:020000040800F2
:10000000708907248903000801420008FD410008A7
:100010004928009035070008C54E00080000000080
:100020000000000000000000000000001D00009023
:10003000390700080000000079000090B94D000861
:10004000A3030008A3030008A3030008A3030008F8
:10005000A3030008A3030008A3030008A3030008E8
:10006000A3030008A3030008A3030008A3030008D8
:10007000A3030008A3030008A3030008A3030008C8
:10008000A3030008A3030008A3030008A3030008B8
:10009000A3030008A3030008A3030008A3030008A8
:1000A000A3030008A3030008A3030008A303000898
:1000B000A3030008A3030008A3030008A303000888
:1000C000A3030008A3030008A3030008A303000878
:1000D000A3030008754E0008A3030008A30300084B
:1000E000A3030008A303000800000000A303000806
:1000F000A3030008A3030008A3030008A303000848
:10010000A3030008A3030008A3030008A303000837
:10011000A3030008A3030008A9310090A30300086B
:10012000A3030008A3030008A3030008A303000817
:10013000A3030008A3030008A3030008A303000807
:1001400000000000000000000000000000000000AF
:10015000A3030008A3030008A3030008A3030008E7
:10016000A3030008A3030008A3030008A3030008D7
:10017000A3030008A3030008A3030008A3030008C7
:10018000A3030008A3030008A3030008A3030008B7
:10019000A3030008A3030008A3030008A3030008A7
:1001A000A3030008A3030008A3030008A303000897
:1001B000A3030008A3030008A3030008A303000887
:1001C000A3030008A3030008A3030008A303000877
:1001D000A3030008A3030008A3030008A303000867
:1001E000A3030008A3030008A3030008A303000857
:1001F000A3030008A3030008A3030008A303000847
:10020000A3030008A3030008A3030008A303000836
:10021000A3030008A3030008A3030008A303000826
:10022000A3030008A3030008A303000800000000C4
:10023000A3030008A303000800000000A3030008B4
:10024000A3030008A3030008A3030008A3030008F6
:10025000A3030008A3030008A3030008A3030008E6
:10026000A3030008A3030008A3030008A3030008D6
:10027000A3030008A3030008A30300080000000074
:10028000A3030008A3030008A30300080000000064
:1002900000000000A303000800F002F800F064F87A
:1002A0000AA090E8000C82448344AAF10107DA45D1
:1002B00001D100F059F8AFF2090EBAE80F0013F0BF
:1002C000010F18BFFB1A43F0010318470C6600002A
:1002D0002C6600000A444FF0000C10F8013B13F0AC
:1002E000070408BF10F8014B1D1108BF10F8015B8F
:1002F000641E05D010F8016B641E01F8016BF9D182
:1003000013F0080F1EBF10F8014BAD1C0C1B09D1D8
:100310006D1E58BF01F801CBFAD505E014F8016B4A
:1003200001F8016B6D1EF9D59142D6D370470000DC
:100330000023002400250026103A28BF78C1FBD8EE
:10034000520728BF30C148BF0B6070471FB506F089
:10035000B5FA00F0B5F804000020002106F098FA84
:10036000E0601FBD10B510BD00F0B2F81146FFF7F8
:10037000EDFF04F021FE00F0D0F803B4FFF7F2FF28
:1003800003BC04F0BDFD0000094880470948004750
:10039000FEE7FEE7FEE7FEE7FEE7FEE7FEE7FEE735
:1003A000FEE7FEE704480549054A064B7047000092
:1003B000CD4D000899020008707F0724708907243A
:1003C0007081072470810724704753EA020C00F003
:1003D00069802DE9F04B4FF00006002B1FBFB3FAE8
:1003E00083F503FA05F424FA05F65E4012BF1643BE
:1003F000B2FA82F502FA05F4C5F120051EBF22FA11
:1004000005FC44EA0C04203556EA044C4FEA144437
:1004100018BF641C4FF000084FF00009904271EBC8
:10042000030C39D3002919BFB1FA81F701FA07F695
:10043000B0FA80F700FA07F6C7F120071EBF20FACE
:1004400007FC46EA0C062037B6FBF4FCA7EB0507D1
:10045000103F07F01F0BCBF120060CFA0BFB2CFA18
:1004600006F644BFB3460026202FA4BF5E464FF0D9
:10047000000B5BEA060C08BF4FF0010B19EB0B09F0
:10048000ABFB027C48EB0608C01B06FB02CC0BFB57
:1004900003CC71EB0C01C1E70B46024641464846CE
:1004A000BDE8F08B13B54FF000004FF00001AFF343
:1004B0000080BDE81C407047704770477047704728
:1004C00000487047307F072400487047107F07249A
:1004D0007546FFF7F9FFAE4605006946534620F022
:1004E0000700854618B020B5FFF75CFFBDE8204047
:1004F0004FF000064FF000074FF000084FF0000BE0
:1005000021F00701AC46ACE8C009ACE8C009ACE892
:10051000C009ACE8C0098D46704710B50446AFF37A
:1005200000802046BDE81040FFF727BF43F2251C9E
:10053000C9F2000C604741F66D3CC9F2000C6047FF
:1005400043F2591CC9F2000C604742F6571CC9F22D
:10055000000C604742F6F94CC9F2000C604742F6C5
:10056000292CC9F2000C604742F6632CC9F2000C3A
:10057000604743F2671CC9F2000C604742F6294C01
:10058000C9F2000C604742F6854CC9F2000C604786
:1005900042F6BF4CC9F2000C604743F29D1CC9F201
:1005A000000C604742F6E90CC9F2000C604742F6C5
:1005B000413CC9F2000C604743F20D1CC9F2000C2B
:1005C000604742F6D92CC9F2000C604743F2171C71
:1005D000C9F2000C604742F6B53CC9F2000C604716
:1005E00042F60D3CC9F2000C604742F69D2CC9F260
:1005F000000C604742F6C91CC9F2000C604742F685
:10060000F51CC9F2000C604742F6231CC9F2000C2D
:10061000604742F6EF3CC9F2000C604742F67B3C73
:10062000C9F2000C604742F68F1CC9F2000C60470B
:100630004FF6910CC9F2030C604741F6C57CC9F234
:10064000000C604741F6B37CC9F2000C604742F2EF
:10065000492CC9F2000C60474FF2B10CC9F2010CF1
:10066000604747F23D0CC9F2030C60474EF2AD4CB7
:10067000C9F2010C60474BF6C93CC9F2010C604756
:1006800047F2593CC9F2030C604746F2AD3CC9F24F
:10069000030C60474FF2AB1CC9F2030C60474FF2EA
:1006A000F31CC9F2030C60474FF2412CC9F2030C52
:1006B00060474FF2E12CC9F2030C60474FF2653CF2
:1006C000C9F2030C604740F2995CC9F2000C604724
:1006D00040F2E10CC9F2000C60474FF2ED1CC9F288
:1006E000030C604748F2BD6CC9F2030C60474FF23F
:1006F000D31CC9F2030C604742F2D11CC9F2000CB2
:1007000060474FF2272CC9F2030C60474FF6D53CE7
:10071000C9F2030C60474FF2297CC9F2030C604711
:1007200048F2614CC9F2030C604740F2F95CC9F22F
:10073000000C604700BFFEE77047000070B504463C
:100740000CB9012070BD94F83500022803D0802038
:1007500060650120F6E7DC492068884249D0DA4923
:1007600018312068884244D0D74930312068884207
:100770003FD0D5494831206888423AD0D2496031CB
:100780002068884235D0D04978312068884230D0FE
:10079000CD499031206888422BD0CB49A8312068C0
:1007A000884226D0C9492068884222D0C7491831DA
:1007B000206888421DD0C54930312068884218D051
:1007C000C24948312068884213D0C049603120684E
:1007D00088420ED0BD4978312068884209D0BB4993
:1007E00090312068884204D0B849A83120688842F6
:1007F00001D1012000E00020F0B3042084F835008E
:10080000B149206888424BD0AF49183120688842EE
:1008100046D0AD4930312068884241D0AA4948319C
:10082000206888423CD0A84960312068884237D08F
:10083000A54978312068884232D0A3499031206898
:1008400088422DD0A049A8312068884228D09F49ED
:100850002068884224D09D491831206888421FD0E2
:100860009A493031206888421AD098494831206826
:10087000884215D0954900E020E060312068884228
:100880000ED0924978312068884209D08F49903142
:100890002068884204D08D49A8312068884206D15A
:1008A0002068006820F001002168086009E12068E4
:1008B000006820F001002168086002E120680068FB
:1008C00020F00E00216808607F492068884249D0E6
:1008D0007D4918312068884244D07B4930312068F6
:1008E00088423FD078494831206888423AD07649DA
:1008F00060312068884235D0734978312068884259
:1009000030D071499031206888422BD06E49A8318F
:100910002068884226D06D492068884222D06B49E1
:100920001831206888421DD06849303120688842DB
:1009300018D0664948312068884213D06349603135
:10094000206888420ED0614978312068884209D0F9
:100950005E4990312068884204D05C49A831206803
:10096000884206D12068006820F0010021680860F4
:1009700005E02068006820F0010021680860524905
:100980002068884270D050491831206888426BD066
:100990004D4930312068884266D04B494831206843
:1009A000884261D048496031206888425CD046491D
:1009B00078312068884257D0434990312068884276
:1009C00052D04149A831206888424DD03F49206823
:1009D000884249D03D4918312068884244D03B497B
:1009E0003031206888423FD03849483120688842F9
:1009F0003AD0364960312068884235D03349783161
:100A00002068884230D031499031206888422BD00C
:100A10002E49A8312068884226D02D492068884276
:100A200022D02B491431206888421DD02849283112
:100A30002068884218D026493C312068884213D06B
:100A400023495031206888420ED021496431206802
:100A5000884209D01E4978312068884204D01C4958
:100A60008C312068884201D1012000E00020D8B1FB
:100A7000206E006820F48070216E0860A56D94F8E7
:100A80005C0000F01F01012088406860D4E9191063
:100A90004860E06E40B1E06E006820F48070E16E66
:100AA0000860D4E91C10486000BF002084F83400BE
:100AB00000BF012084F83500206D10B12046216D63
:100AC000884700203EE6000010000240100402406B
:100AD0000854025810B50446A0B204F02FFA10BD15
:100AE0000348006840F001000149086070470000B9
:100AF00020040058F8B502460023734DDEE00127BC
:100B00009F400E6806EA0704002C71D04E68022E42
:100B100002D04E68122E13D1DF0802F1200656F8DB
:100B200027005E07F70E0F26BE40B0435F07FF0E9B
:100B30000E69BE403043DF0802F1200646F8270068
:100B400010685F000326BE40B0430E7906F003062E
:100B50005F00BE40304310604E68012E08D04E68E2
:100B6000022E05D04E68112E02D04E68122E13D1DF
:100B700090685F000326BE40B0435F00CE68BE4071
:100B800030439060506801269E40B0430E79C6F312
:100B900000169E4030435060D0685F000326BE4080
:100BA000B0435F008E68BE403043D0604E6806F0B0
:100BB0008056B6F1805F1BD100BF444E366846F0C8
:100BC0000206424F3E603E46366806F00206009638
:100BD00000BF00BF3E4E9F0856F827009E07370F04
:100BE0000F26BE40B0433B4EB24202D100262EE05B
:100BF00063E0394EB24201D1012628E0374EB242BD
:100C000001D1022623E0364EB24201D103261EE076
:100C1000344EB24201D1042619E0334EB24201D122
:100C2000052614E0314EB24201D106260FE0304EC7
:100C3000B24201D107260AE02E4EB24201D1082667
:100C400005E02D4EB24201D1092600E00A269F0799
:100C50003F0FBE4030431E4E9F0846F827002868CD
:100C6000A0434E6806F48036B6F5803F00D120439D
:100C700028606868A0434E6806F40036B6F5003F69
:100C800000D1204368604FF0B0463068A0434E6802
:100C900006F48016B6F5801F00D120434FF0B04611
:100CA00030607068A0434E6806F40016B6F5001F69
:100CB00000D120434FF0B04670605B1C0E68DE40F0
:100CC000002E7FF41CAFF8BD80000058F444025899
:100CD0000804005800000258000402580008025896
:100CE000000C025800100258001402580018025854
:100CF000001C0258002002580024025802461369C2
:100D00000B400BB1012000E00020704742690A400F
:100D10008A4202D10A04826100E0816170470AB10F
:100D2000816101E00B0483617047000001480068A5
:100D3000000C70470010005C01480068704700001C
:100D40002000002403480068034909780844014949
:100D500008607047200000242800002410B50320FC
:100D600000F00AF901F0C6FF10490968C1F3032138
:100D70000F4A515C01F01F01C8400E4908600B4842
:100D8000006800F00F001146085C00F01F010948E0
:100D90000068C840084908600F2000F00FF808B14B
:100DA000012010BD00F09AF80020FAE7184402581C
:100DB000C6680008000000240400002470B5044642
:100DC0001148007808B9012070BD0F4800784FF431
:100DD0007A71B1FBF0F00D490968B1FBF0F52846D6
:100DE00003F04EF908B10120EEE7102C07D20022E3
:100DF0002146501E00F083F80548046001E0012000
:100E0000E2E70020E0E700002800002400000024C2
:100E1000240000244178154A11600178F9B1121DAF
:100E200041681160017B0907C27A41EA0261827A56
:100E300041EAC241427B41EA8241827B41EA42412E
:100E4000C27B41EA0241427A41EA0221027A41EA46
:100E5000420102781143054A0832116005E0002181
:100E6000024A121D1160121D1160704798ED00E0DA
:100E700000BF00BF00BFBFF35F8F00BF00BF00BF58
:100E80000548006820F480300349086000200249CA
:100E9000703108607047000024ED00E040F001016F
:100EA0000D4A11600C497039096841F480310A4AD1
:100EB000703A116000BF00BF00BFBFF34F8F00BF8B
:100EC00000BF00BF00BF00BF00BFBFF36F8F00BFF8
:100ED00000BF00BF7047000094ED00E0704701467E
:100EE0000846002809DB00F01F0301229A4043094D
:100EF0009B0003F1E023C3F8002100BF70472DE9F8
:100F0000F05F80460D46164603F0DEFF0746394681
:100F10002A46334601F00700C0F1070ABAF1040F70
:100F200002D94FF0040A01E0C0F1070AD14600F1EE
:100F3000040ABAF1070F02D24FF0000A01E0A0F153
:100F4000030AD4464FF0010A0AFA09FAAAF1010A83
:100F50000AEA020A0AFA0CFA4FF0010B0BFA0CFB30
:100F6000ABF1010B0BEA030B4AEA0B0421464046A6
:100F700003F0B2FFBDE8F09F00BF00F00702064B90
:100F800019684FF6FF031940044B0B4343EA022153
:100F9000014B196000BF70470CED00E00000FA053E
:100FA0000348006840F08070014908607047000005
:100FB0000C4802582DE9F84304460D461746FFF742
:100FC000BBFE8046A86900B100BFE86900B100BF60
:100FD000286A00B100BF00BF94F84000012802D188
:100FE0000220BDE8F883012084F8400000BF94F897
:100FF0004100012828D100206064022084F84100CB
:101000004346002220212046009703F0EEF90646D1
:10101000DEB900222946204603F0F3F8686A78B961
:101020004346012202212046009703F0DEF90646DE
:101030005EB902202168C860012084F8410004E004
:10104000012084F8410000E0022600BF002084F85F
:10105000400000BF3046C4E7F8B50446FFF76CFE19
:1010600006460CB90120F8BD206A402800D000BF18
:1010700000BF94F84000012801D10220F3E70120CD
:1010800084F8400000BF94F8410050B9002084F873
:101090004000204600F04CF841F28831204600F034
:1010A00035F92068006820F47061A068401E41EAAC
:1010B000002021680860A06C3346002220210090A7
:1010C000204603F092F9054635BB2179E06840EAF5
:1010D0000160E1690843216A084321680968124AEE
:1010E0001140084321680860208A616941EA004094
:1010F000A1690843216849680C4A114008432168E6
:1011000048602068006840F0010021680860002005
:101110006064012084F8410000BF002084F8400092
:1011200000BF28469FE700002FFFFF00FEF8E0FF0A
:1011300010B586B0044600BF3748006840F48040D0
:10114000354908600846006800F48040009000BF00
:1011500000BF00BF30480C30006840F002002E494C
:101160000C3108600846006800F00200009000BFE3
:1011700000BF00BF0846006840F00800086008464D
:10118000006800F00800009000BF00BF00BF0846E4
:10119000006840F0100008600846006800F0100089
:1011A000009000BF00BF402001900220029001206B
:1011B0000390032004900A20059001A91748FFF727
:1011C00099FC04200190022002900120039003204A
:1011D00004900920059001A91048FFF78BFC4FF4FB
:1011E0000060019001A90E48FFF784FC4FF4805085
:1011F000019001A90A48FFF77DFC4FF400500190CF
:1012000001A90748FFF776FC0420019001A90548D1
:10121000FFF770FC06B010BDD44402580004025819
:10122000000C0258001002582DE9F84F04460E46F3
:1012300017460025FFF780FD80462068D0F81890FB
:10124000206800F1200A00BF94F84000012802D174
:101250000220BDE8F88F012084F8400000BF94F818
:10126000410001284AD100206064002E40D0222095
:1012700084F8410020680069401CA0632068006970
:10128000401C606326632068406920F0406040F0A5
:101290008060216848612068C0F8189013E04346D8
:1012A000012206212046009703F09FF8054605B16C
:1012B0000CE09AF80000216B0870206B401C206342
:1012C000A06B401EA063A06B0028E8D100BF5DB9F1
:1012D0004346012202212046009703F086F8054686
:1012E00015B902202168C860012084F8410006E099
:1012F000606C40F008006064012500E0022500BF3A
:10130000002084F8400000BF2846A2E781647047AF
:101310002DE9F84304460E4617460025FFF70CFD5D
:101320008046206800F1200900BF94F840000128A1
:1013300002D10220BDE8F883012084F8400000BFFC
:1013400094F84100012845D100206064002E3BD074
:10135000122084F8410020680069401CE062206887
:101360000069401CA06266622068406920F040600D
:101370002168486113E0434601220421204600977A
:1013800003F033F8054605B10CE0606A007889F88F
:101390000000606A401C6062E06A401EE062E06A31
:1013A0000028E8D100BF5DB9434601220221204652
:1013B000009703F01AF8054615B902202168C860A5
:1013C000012084F8410006E0606C40F00800606491
:1013D000012500E0022500BF002084F8400000BF86
:1013E0002846A7E710B501F085FC07490968C1F355
:1013F0000321064A515C01F01F01C84004490860FE
:101400000846006810BD000018440258C66800086D
:101410000000002410B501F031FC05490968C1F352
:101420000211044A515C01F01F01C84010BD0000C8
:1014300020440258C668000870B50146844D2D68E6
:1014400005F00303824D2D68C5F30510804D2D1D59
:101450002D6805F001047E4D0C352D68C5F3CC05D3
:1014600015FB04F501EE105AB8EE411AF0EE410AF0
:1014700000286FD023B1012B4ED0022B6BD16BE033
:10148000734D283D2D68C5F340153DB3704D283D83
:101490002D68C5F3C1066F4D25FA06F201EE102A3C
:1014A000F8EE411A01EE100AB8EE411A81EE812AD7
:1014B0009FED691AC0EE811A654D08352D68C5F398
:1014C000080501EE105AB8EE411A31EE811AF7EE16
:1014D000001A31EE211A22EE010A1CE001EE100A78
:1014E000B8EE411ADFED5D1A81EE812A9FED5A1A9E
:1014F000C0EE811A564D08352D68C5F3080501EE7A
:10150000105AB8EE411A31EE811AF7EE001A31EE98
:10151000211A22EE010A5BE001EE100AB8EE411A30
:10152000DFED4F1A81EE812A9FED4B1AC0EE811A32
:10153000474D08352D68C5F3080501EE105AB8EE81
:10154000411A31EE811AF7EE001A31EE211A22EE1D
:10155000010A3DE077E01DE001EE100AB8EE411A05
:101560009FED402AC2EE011A9FED3B1A80EE812AC0
:10157000374D08352D68C5F3080501EE105AB8EE51
:10158000411A32EE011AB7EE002A31EE021A21EEAC
:10159000810A1DE001EE100AB8EE411ADFED301AA3
:1015A00081EE812A9FED2C1AC0EE811A284D083554
:1015B0002D68C5F3080501EE105AB8EE411A31EE58
:1015C000811AF7EE001A31EE211A22EE010A00BF4D
:1015D00000BF1F4D08352D68C5F3462501EE105A92
:1015E000B8EE411AF7EE001A31EE211AC0EE011AD8
:1015F000BCEEE11A81ED001A154D08352D68C5F3D2
:10160000064501EE105AB8EE411AF7EE001A31EE17
:10161000211AC0EE011ABCEEE11A81ED011A0C4D3F
:1016200008352D68C5F3066501EE105AB8EE411A6B
:10163000F7EE001A31EE211AC0EE011ABCEEE11AE3
:1016400081ED021A03E000250D604D608D6070BDD4
:10165000284402580090D003000000460024744C37
:101660000024744A0024F44A70B50146844D2D6864
:1016700005F00303824D2D68C5F30530804D2D1D07
:101680002D68C5F300147E4D14352D68C5F3CC05C7
:1016900015FB04F501EE105AB8EE411AF0EE410ABE
:1016A00000286FD023B1012B4ED0022B6BD16BE001
:1016B000734D283D2D68C5F340153DB3704D283D51
:1016C0002D68C5F3C1066F4D25FA06F201EE102A0A
:1016D000F8EE411A01EE100AB8EE411A81EE812AA5
:1016E0009FED691AC0EE811A654D10352D68C5F35E
:1016F000080501EE105AB8EE411A31EE811AF7EEE4
:10170000001A31EE211A22EE010A1CE001EE100A45
:10171000B8EE411ADFED5D1A81EE812A9FED5A1A6B
:10172000C0EE811A564D10352D68C5F3080501EE3F
:10173000105AB8EE411A31EE811AF7EE001A31EE66
:10174000211A22EE010A5BE001EE100AB8EE411AFE
:10175000DFED4F1A81EE812A9FED4B1AC0EE811A00
:10176000474D10352D68C5F3080501EE105AB8EE47
:10177000411A31EE811AF7EE001A31EE211A22EEEB
:10178000010A3DE077E01DE001EE100AB8EE411AD3
:101790009FED402AC2EE011A9FED3B1A80EE812A8E
:1017A000374D10352D68C5F3080501EE105AB8EE17
:1017B000411A32EE011AB7EE002A31EE021A21EE7A
:1017C000810A1DE001EE100AB8EE411ADFED301A71
:1017D00081EE812A9FED2C1AC0EE811A284D10351A
:1017E0002D68C5F3080501EE105AB8EE411A31EE26
:1017F000811AF7EE001A31EE211A22EE010A00BF1B
:1018000000BF1F4D10352D68C5F3462501EE105A57
:10181000B8EE411AF7EE001A31EE211AC0EE011AA5
:10182000BCEEE11A81ED001A154D10352D68C5F397
:10183000064501EE105AB8EE411AF7EE001A31EEE5
:10184000211AC0EE011ABCEEE11A81ED011A0C4D0D
:1018500010352D68C5F3066501EE105AB8EE411A31
:10186000F7EE001A31EE211AC0EE011ABCEEE11AB1
:1018700081ED021A03E000250D604D608D6070BDA2
:10188000284402580090D003000000460024744C05
:101890000024744A0024F44A70B50146844D2D6832
:1018A00005F00303824D2D68C5F30550804D2D1DB5
:1018B0002D68C5F300247E4D1C352D68C5F3CC057D
:1018C00015FB04F501EE105AB8EE411AF0EE410A8C
:1018D00000286FD023B1012B4ED0022B6BD16BE0CF
:1018E000734D283D2D68C5F340153DB3704D283D1F
:1018F0002D68C5F3C1066F4D25FA06F201EE102AD8
:10190000F8EE411A01EE100AB8EE411A81EE812A72
:101910009FED691AC0EE811A654D18352D68C5F323
:10192000080501EE105AB8EE411A31EE811AF7EEB1
:10193000001A31EE211A22EE010A1CE001EE100A13
:10194000B8EE411ADFED5D1A81EE812A9FED5A1A39
:10195000C0EE811A564D18352D68C5F3080501EE05
:10196000105AB8EE411A31EE811AF7EE001A31EE34
:10197000211A22EE010A5BE001EE100AB8EE411ACC
:10198000DFED4F1A81EE812A9FED4B1AC0EE811ACE
:10199000474D18352D68C5F3080501EE105AB8EE0D
:1019A000411A31EE811AF7EE001A31EE211A22EEB9
:1019B000010A3DE077E01DE001EE100AB8EE411AA1
:1019C0009FED402AC2EE011A9FED3B1A80EE812A5C
:1019D000374D18352D68C5F3080501EE105AB8EEDD
:1019E000411A32EE011AB7EE002A31EE021A21EE48
:1019F000810A1DE001EE100AB8EE411ADFED301A3F
:101A000081EE812A9FED2C1AC0EE811A284D1835DF
:101A10002D68C5F3080501EE105AB8EE411A31EEF3
:101A2000811AF7EE001A31EE211A22EE010A00BFE8
:101A300000BF1F4D18352D68C5F3462501EE105A1D
:101A4000B8EE411AF7EE001A31EE211AC0EE011A73
:101A5000BCEEE11A81ED001A154D18352D68C5F35D
:101A6000064501EE105AB8EE411AF7EE001A31EEB3
:101A7000211AC0EE011ABCEEE11A81ED011A0C4DDB
:101A800018352D68C5F3066501EE105AB8EE411AF7
:101A9000F7EE001A31EE211AC0EE011ABCEEE11A7F
:101AA00081ED021A03E000250D604D608D6070BD70
:101AB000284402580090D003000000460024744CD3
:101AC0000024744A0024F44A2DE9F0418AB0064605
:101AD000B6F5807F32D1DC48006800F00707052F9B
:101AE00029D2DFE807F003080D26120007A8FFF748
:101AF000A3FC089C21E004A8FFF7B6FD049C1CE0B1
:101B000001A8FFF7C9FE019C17E0CF48001F00683D
:101B100000F040550DB9CD4C0AE0B5F1805F01D120
:101B2000CB4C05E0B5F1005F01D1CA4C00E00024C8
:101B300003E0C94C01E0002400BF80E1B6F5007F5E
:101B400038D1C148006800F4E077802F14D003DC5E
:101B500047B1402F2BD10AE0C02F26D0B7F5807FA8
:101B600025D10EE007A8FFF767FC089C21E004A838
:101B7000FFF77AFD049C1CE001A8FFF78DFE019C95
:101B800017E0B148001F006800F040550DB9AF4C98
:101B90000AE0B5F1805F01D1AD4C05E0B5F1005F21
:101BA00001D1AC4C00E0002403E0AB4C01E0002488
:101BB00000BF44E1B6F5806F3CD1A348083000680F
:101BC00000F46007B7F5800F16D004DC57B1B7F505
:101BD000001F2CD10BE0B7F5C00F26D0B7F5000FD2
:101BE00025D10EE007A8FFF727FC089C21E004A8F8
:101BF000FFF73AFD049C1CE001A8FFF74DFE019C95
:101C000017E09148001F006800F040550DB98F4C57
:101C10000AE0B5F1805F01D18D4C05E0B5F1005FC0
:101C200001D18C4C00E0002403E08B4C01E0002447
:101C300000BF04E1B6F5006F3CD18348083000686E
:101C400000F0E067B7F1007F16D004DC57B1B7F1C0
:101C5000807F2CD10BE0B7F1407F26D0B7F1806FA9
:101C600025D10EE007A8FFF7E7FB089C21E004A8B8
:101C7000FFF7FAFC049C1CE001A8FFF70DFE019C95
:101C800017E07148001F006800F040550DB96F4C17
:101C90000AE0B5F1805F01D16D4C05E0B5F1005F60
:101CA00001D16C4C00E0002403E06B4C01E0002407
:101CB00000BFC4E0B6F5805F3DD16348006800F422
:101CC000E048B8F5005F18D006DCB8F1000F0AD084
:101CD000B8F5805F2CD10BE0B8F5405F26D0B8F5A1
:101CE000804F25D10EE007A8FFF7A6FB089C21E056
:101CF00004A8FFF7B9FC049C1CE001A8FFF7CCFD89
:101D0000019C17E05048001F006800F040550DB9D5
:101D10004E4C0AE0B5F1805F01D14D4C05E0B5F1C4
:101D2000005F01D14B4C00E0002403E04A4C01E08D
:101D3000002400BF83E0B6F5002F2FD142480830C1
:101D4000006800F44038B8F1000F06D0B8F5803FC5
:101D500008D0B8F5003F1ED109E004A8FFF784FCC5
:101D6000049C1AE001A8FFF797FD039C15E0364894
:101D7000001F006800F040550DB9344C0AE0B5F181
:101D8000805F01D1324C05E0B5F1005F01D1314CEB
:101D900000E0002401E0002400BF50E0B6F5803FE1
:101DA00018D12948001F006800F48038B8F1000FEE
:101DB00003D0B8F5803F0AD104E007A8FFF73CFB49
:101DC000089C06E004A8FFF74FFC069C01E00024F5
:101DD00000BF34E0B6F5804F30D11B4808300068B2
:101DE00000F0E048B8F1405F1FD009DCB8F1000F07
:101DF0000DD0B8F1805F0ED0B8F1005F1BD10FE0BD
:101E0000B8F1804F13D0B8F1A04F14D111E0FFF713
:101E100001FB044611E004A8FFF726FC059C0CE03A
:101E200001A8FFF739FD029C07E0084C05E0084CCB
:101E300003E0084C01E0002400BF00E0002420463D
:101E40000AB0BDE8F0810000504402580090D00371
:101E500000093D0000127A000080BB002DE9F0412E
:101E600004460025A846206800F00060B0F1006F2D
:101E700030D1606E48B1B0F5801F0DD0B0F5001FB5
:101E800010D0B0F5401F15D113E0F948006840F4B8
:101E90000030F74908600FE00221201D02F0CCFA63
:101EA000054609E0022104F1240002F077FB054613
:101EB00002E001E0012500BF00BF55B9EC48243025
:101EC000006820F44010616E0843E949243108603D
:101ED00000E0A846208800F48070B0F5807F2DD106
:101EE000606D05281AD2DFE800F0030A1017180009
:101EF000DF48006840F40030DD49086010E0002150
:101F0000201D02F099FA05460AE0002104F12400A0
:101F100002F044FB054603E002E001E0012500BFBA
:101F200000BF55B9D2482430006820F00700616D29
:101F30000843CF492431086000E0A846208800F417
:101F40000070B0F5007F33D1A06D802817D003DC7E
:101F500040B140281CD10CE0C02817D0B0F5807FDC
:101F600016D114E0C248006840F40030C04908604F
:101F700010E00021201D02F05FFA05460AE0002172
:101F800004F1240002F00AFB054603E002E001E050
:101F9000012500BF00BF55B9B5482430006820F4C2
:101FA000E070A16D0843B2492431086000E0A84602
:101FB000208800F48060B0F5806F38D1D4F8A40098
:101FC000B0F5800F19D004DC50B1B0F5001F1DD161
:101FD0000DE0B0F5C00F17D0B0F5000F16D114E02A
:101FE000A348006840F40030A149086010E00021D7
:101FF000201D02F021FA05460AE0002104F1240028
:1020000002F0CCFA054603E002E001E0012500BF42
:1020100000BF5DB996482C30006820F46000D4F809
:10202000A410084392492C31086000E0A84620889B
:1020300000F40060B0F5006F38D1D4F8A800B0F11A
:10204000007F19D004DC50B1B0F1807F1DD10DE0CC
:10205000B0F1407F17D0B0F1806F16D114E0844802
:10206000006840F400308249086010E00021201D23
:1020700002F0E2F905460AE0002104F1240002F032
:102080008DFA054603E002E001E0012500BF00BF34
:102090005DB977482C30006820F0E060D4F8A810D3
:1020A000084373492C31086000E0A846206800F01E
:1020B0000070B0F1007F27D1A06CA0B1102804D02F
:1020C000202809D030280FD10CE06948006840F47E
:1020D00000306749086009E00221201D02F0ACF9D8
:1020E000054603E002E001E0012500BF00BF55B94D
:1020F0005F482030006820F03000A16C08435C4944
:102100002031086000E0A846208800F48050B0F537
:10211000805F36D1E06DB0F5005F19D004DC50B1BE
:10212000B0F5805F1DD10DE0B0F5405F17D0B0F580
:10213000804F16D114E04E48006840F400304C49FE
:10214000086010E00021201D02F076F905460AE043
:10215000002104F1240002F021FA054603E002E028
:1021600001E0012500BF00BF55B941482430006897
:1021700020F4E040E16D08433D492431086000E06F
:10218000A846208800F40050B0F5005F34D1206EDE
:10219000B0F5403F1DD007DC68B1B0F5803F0BD0F3
:1021A000B0F5003F18D10DE0B0F5802F12D0B0F59A
:1021B000A02F11D10FE011E00121201D02F03CF908
:1021C00005460BE0012104F1240002F0E7F9054681
:1021D00004E003E002E001E0012500BF00BF55B9C3
:1021E00023482430006820F4E020216E0843204971
:1021F0002431086000E0A846208800F48040B0F553
:10220000804F38D1D4F8AC00B0F1405F1DD007DC6E
:1022100068B1B0F1805F0BD0B0F1005F18D10DE074
:10222000B0F1804F12D0B0F1A04F11D10FE011E00A
:102230000121201D02F000F905460BE0012104F107
:10224000240002F0ABF9054604E003E002E001E0FF
:10225000012500BF00BF6DB905482C30006820F093
:10226000E040D4F8AC10084301492C31086002E08A
:102270002C440258A846208800F40040B0F5004FD6
:1022800026D1E06E98B1B0F1805F03D0B0F1005F6D
:102290000ED106E0F948006840F40030F7490860C4
:1022A00008E00121201D02F0C7F8054602E001E028
:1022B000012500BF00BF55B9F0482430006820F068
:1022C0004050E16E0843ED492431086000E0A84623
:1022D000206800F08070B0F1807F27D1606CA0B1E1
:1022E000012804D0022809D003280FD10CE0E348CC
:1022F000006840F40030E149086009E00221201D37
:1023000002F09AF8054603E002E001E0012500BF73
:1023100000BF55B9D9482030006820F00300616C37
:102320000843D6492031086000E0A846206800F440
:102330008000B0F5800F7DD1D148006840F48070F6
:10234000CF490860FEF7F8FC064606E0FEF7F4FC0D
:10235000801B642801D9032505E0C948006800F402
:1023600080700028F2D000BF85BBC44844300068AC
:1023700000F44070B4F8B01001F44071884213D0FA
:10238000BE484430006820F44077BC4844300068C0
:1023900040F48030B949443108600846006820F4B0
:1023A0008030086008460760D4F8B000B0F5807F40
:1023B00015D1FEF7C1FC064609E0FEF7BDFC801B07
:1023C00041F28831884202D9032507E038E0AB4862
:1023D00044300068C0F340000028EED000BF55BB79
:1023E00000BFB4F8B00000F44070B0F5407F0ED1EB
:1023F000A2481C38006820F47C51A24AD4F8B000EE
:10240000104041EA10109D491C39086007E09B48C4
:102410001C38006820F47C5098491C3908609748A3
:1024200044300068B4F8B010C1F30B01084393497D
:10243000443101E005E001E0086002E0A84600E068
:10244000A846207800F0010068B3A06F182819D0C2
:1024500005DC48B1082808D0102816D10BE0202848
:1024600011D0282811D10FE011E00121201D01F029
:10247000E3FF05460BE0012104F1240002F08EF891
:10248000054604E003E002E001E0012500BF00BFD3
:1024900055B97A482830006820F03800A16F084309
:1024A00076492831086000E0A846207800F0020054
:1024B000022828D1606F062815D2DFE800F0030457
:1024C0000A11121311E00121201D01F0B5FF05468C
:1024D0000BE0012104F1240002F060F8054604E05D
:1024E00003E002E001E0012500BF00BF55B96348E9
:1024F0002830006820F00700616F08435F492831E9
:10250000086000E0A846207800F0040004282AD1E2
:10251000D4F89000062815D2DFE800F003040A1171
:10252000121311E00121201D01F086FF05460BE08A
:10253000012104F1240002F031F8054604E003E033
:1025400002E001E0012500BF00BF5DB94B482C301F
:10255000006820F00700D4F89010084347492C3158
:10256000086000E0A846207800F02000202836D13E
:10257000D4F88C00B0F1405F1DD007DC68B1B0F139
:10258000805F0BD0B0F1005F18D10DE0B0F1804F4B
:1025900012D0B0F1A04F11D10FE011E00021201DA9
:1025A00001F04AFF05460BE0022104F1240001F08E
:1025B000F5FF054604E003E002E001E0012500BF6D
:1025C00000BF5DB92D482830006820F0E040D4F805
:1025D0008C10084329492831086000E0A84620787B
:1025E00000F04000402836D1D4F89800B0F5406F94
:1025F0001DD007DC68B1B0F5806F0BD0B0F5006F6F
:1026000018D10DE0B0F5805F12D0B0F5A05F11D108
:102610000FE011E00021201D01F00EFF05460BE048
:10262000022104F1240001F0B9FF054604E003E0B3
:1026300002E001E0012500BF00BF5DB90F482C306A
:10264000006820F4E050D4F8981008430B492C316E
:10265000086000E0A846207800F0800080283AD189
:10266000D4F89C00B0F5C04F23D00DDC98B1B0F584
:10267000005F11D0B0F5804F1ED113E02C440258FA
:1026800000480258FFFCFF0FB0F5004F12D0B0F524
:10269000204F11D10FE011E00021201D01F0CCFEF0
:1026A00005460BE0022104F1240001F077FF054606
:1026B00004E003E002E001E0012500BF00BF4DB9E6
:1026C000AD48006820F46040D4F89C100843AA4943
:1026D000086000E0A846207800F00800082817D11C
:1026E000D4F88000B0F5805F07D1022104F1240006
:1026F00001F054FF08B14FF001089F48001F006827
:1027000020F44050D4F8801008439B49091F08600A
:10271000207800F01000102815D1D4F89400B0F5FE
:10272000807F07D1022104F1240001F037FF08B1B6
:102730004FF001089048006820F44070D4F89410DD
:1027400008438D490860206800F40020B0F5002F90
:1027500026D1D4F8A00030B1B0F5803F09D0B0F553
:10276000003F0ED10CE00021201D01F065FE054662
:1027700009E0022104F1240001F010FF054602E007
:1027800001E0012500BF00BF4DB97B48006820F47F
:102790004030D4F8A01008437749086000E0A8460C
:1027A000206800F48020B0F5802F2DD1D4F884006B
:1027B000B0F5801F06D0B0F5001F0CD0B0F5401F5B
:1027C00011D10FE06C482C38006840F400306A49A1
:1027D0002C39086009E0012104F1240001F0DEFE3B
:1027E000054602E001E0012500BF00BF5DB9624877
:1027F000001F006820F44010D4F8841008435E499C
:10280000091F086000E0A846206800F48030B0F599
:10281000803F24D1E06C18B1B0F5803F0FD108E0C3
:1028200055482C38006840F4003053492C39086072
:1028300007E00221201D01F0FFFD054601E0012512
:1028400000BF00BF55B94C480C38006820F48030F8
:10285000E16C084348490C39086000E0A84620684C
:1028600000F00050B0F1005F07D1022104F1240014
:1028700001F094FE08B14FF00108206800F4003028
:10288000B0F5003F27D1E06FA0B1B0F5807F06D052
:10289000B0F5007F0CD0B0F5407F0CD109E0364890
:1028A0002C38006840F4003033492C39086004E0CB
:1028B00003E002E001E0012500BF00BF55B92E484A
:1028C000001F006820F44070E16F08432A49091F87
:1028D000086000E0A846206800F48010B0F5801F72
:1028E00009D125480838006820F00040216F0843CE
:1028F000214908390860206800F40010B0F5001F75
:1029000009D11D480838006820F08070A16E084386
:10291000194908390860206800F08040B0F1804F04
:1029200011D100BF14484838006820F40040124913
:102930004839086008460068D4F8B81008430E49C2
:102940004839086000BF206800F00040B0F1004F37
:1029500009D109480C38006820F04050216D084327
:1029600005490C390860B8F1000F02D10020BDE81C
:10297000F0810120FBE70000584402582DE9F041A6
:1029800004460D4614B90120BDE8F081B648006840
:1029900000F00F00A8420ED2B348006820F00F00EC
:1029A0002843B14908600846006800F00F00A842BB
:1029B00001D00120E8E7207800F0040004280ED1BF
:1029C000AA492069096801F07001884207D9A7481F
:1029D000006820F0700021690843A449086020784D
:1029E00000F00800082811D1A049091D6069096894
:1029F00001F07001884209D99C48001D006820F050
:102A00007000616908439949091D0860207800F049
:102A10001000102811D19549091DA069096801F419
:102A2000E061884209D99148001D006820F4E06007
:102A3000A16908438D49091D0860207800F0200035
:102A4000202811D189490831E069096801F0700135
:102A5000884209D985480830006820F07000E16993
:102A60000843824908310860207800F002000228FB
:102A70000ED17E49E068096801F00F01884207D94C
:102A80007A48006820F00F00E16808437749086041
:102A9000207800F00100002850D07448006820F42D
:102AA0007060A1680843714908606068022807D116
:102AB0006E4818380068C0F34040F8B9012063E759
:102AC0006068032807D1694818380068C0F340607F
:102AD000A0B9012058E76068012807D16348183879
:102AE0000068C0F3002048B901204DE75F4818385E
:102AF0000068C0F3800008B9012045E75B4808384A
:102B0000006820F0070061680843584908390860E8
:102B1000FEF712F9064608E0FEF70EF9801B41F2B7
:102B20008831884201D903202EE7504808380068D0
:102B300000F038006168B0EBC10FEDD1207800F0F3
:102B4000020002280ED14949E068096801F00F012E
:102B5000884207D24548006820F00F00E16808432A
:102B6000424908604048006800F00F00A8420ED9B2
:102B70003D48006820F00F0028433B4908600846A4
:102B8000006800F00F00A84201D00120FCE6207888
:102B900000F0040004280ED134492069096801F0CE
:102BA0007001884207D23148006820F07000216926
:102BB00008432E490860207800F00800082811D149
:102BC0002A49091D6069096801F07001884209D22B
:102BD0002648001D006820F0700061690843234901
:102BE000091D0860207800F01000102811D11F493D
:102BF000091DA069096801F4E061884209D21B48F7
:102C0000001D006820F4E060A16908431749091D10
:102C10000860207800F02000202811D113490831E5
:102C2000E069096801F07001884209D20F48083054
:102C3000006820F07000E16908430C490831086021
:102C400000F058F809490968C1F30321084A515CAA
:102C500001F01F01C8400749086007480068FEF7F7
:102C6000ADF8074638468FE6002000521844025857
:102C7000C6680008000000242400002410B5FEF7F8
:102C8000B1FB0749096801F00F01064A515C01F0E8
:102C90001F01C840044908600846006810BD0000D4
:102CA00018440258C66800080400002410B5FFF755
:102CB000E5FF05490968C1F30211044A515C01F0BE
:102CC0001F01C84010BD00001C440258C66800081F
:102CD00010B5FFF7D3FF05490968C1F30221044A83
:102CE000515C01F01F01C84010BD00001C44025897
:102CF000C6680008F0B5824E366806F0380636B170
:102D0000082E15D0102E15D0182E7DD114E07C4E33
:102D1000103E3668C6F3401646B1794E103E36680E
:102D2000C6F3C107774E26FA07F000E07548E5E0E4
:102D30007548E3E07548E1E0714E1836366806F0F4
:102D400003046F4E18363668C6F305116C4E1C36F8
:102D5000366806F001056A4E24363668C6F3CC069E
:102D600016FB05F601EE106AB8EE410A002971D093
:102D700024B1012C50D0022C6DD16DE0604E103E7C
:102D80003668C6F340163EB35D4E103E3668C6F355
:102D9000C1075C4E26FA07F301EE103AF8EE411A2D
:102DA00001EE101AB8EE411A81EE812A9FED581AF1
:102DB000C0EE011A524E20363668C6F3080601EE00
:102DC000106AB8EE411A31EE811AF7EE001A31EEB0
:102DD000211A62EE010A1EE001EE101AB8EE411A45
:102DE000DFED4C1A81EE812A9FED491AC0EE011ADF
:102DF000434E20363668C6F3080601EE106AB8EE78
:102E0000411A31EE811A00E076E0F7EE001A31EE59
:102E1000211A62EE010A5BE001EE101AB8EE411AC7
:102E20009FED3D2AC2EE011A9FED391A80EE012A6C
:102E3000334E20363668C6F3080601EE106AB8EE47
:102E4000411A32EE011AB7EE002A31EE021A61EE93
:102E5000810A3DE04EE01DE001EE101AB8EE411A85
:102E6000DFED2E1A81EE812A9FED291AC0EE011A9C
:102E7000234E20363668C6F3080601EE106AB8EE17
:102E8000411A31EE811AF7EE001A31EE211A62EE84
:102E9000010A1DE001EE101AB8EE411A9FED1E2A3C
:102EA000C2EE011A9FED1A1A80EE012A144E203646
:102EB0003668C6F3080601EE106AB8EE411A32EE23
:102EC000011AB7EE002A31EE021A61EE810A00BF44
:102ED00000BF0B4E20363668C6F34626721C01EE44
:102EE000102AB8EE411AC0EE811ABCEEE11A11EEBA
:102EF000100A00E0002001E0034800BF00BFF0BD61
:102F0000104402580090D00300093D0000127A00DE
:102F1000000000460024744C0024744A0024F44A43
:102F20002DE9F047044614B90120BDE8F087207868
:102F300000F00100002872D0F948006800F038085D
:102F4000F7481830D0F80090B8F1100F06D0B8F15B
:102F5000180F0FD109F0030002280BD1F0481038E8
:102F60000068C0F3404000286ED0606800286BD134
:102F70000120DAE700BF6068B0F5803F08D1E8487B
:102F80001038006840F48030E549103908602EE0C0
:102F9000606868B9E2481038006820F48030E04981
:102FA000103908600846006820F4802008601EE0A0
:102FB0006068B0F5A02F0DD1D9481038006840F4F2
:102FC0008020D749103908600846006840F48030F6
:102FD00008600CE0D2481038006820F48030D049F6
:102FE000103908600846006820F48020086000BF9F
:102FF0006068A8B1FDF7A0FE054608E0FDF79CFE5D
:10300000401B41F28831884201D903208DE7C44832
:1030100010380068C0F340400028EFD014E014E0FE
:10302000FDF78AFE054608E0FDF786FE401B41F2EB
:103030008831884201D9032077E7B9481038006801
:10304000C0F340400028EFD100BF207800F002001C
:1030500002286BD1B248006800F03808B048183038
:10306000D0F80090B8F1000F05D0B8F1180F2BD1AF
:1030700009F0030040BBAA4810380068C0F3800084
:1030800018B1E06808B901204FE700BFFDF74EFE18
:1030900041F2030188420BD8A1480C38006820F4A3
:1030A0007C30216940EA01309D490C3908600AE012
:1030B0009B480C38006820F0FE40217C40EA01600B
:1030C00097490C39086058E0E06870B394481038AC
:1030D000006820F01900E168084391491039086040
:1030E000FDF72AFE054606E0FDF726FE401B0228F6
:1030F00001D9032019E78A4810380068C0F380001E
:103100000028F1D000BFFDF711FE41F20301884213
:103110000DD883480C38006820F47C30216940EADF
:1031200001307F490C3908600CE00CE026E07C4857
:103130000C38006820F0FE40217C40EA01607849AC
:103140000C39086019E076481038006820F001005A
:10315000734910390860FDF7EFFD054606E0FDF7FD
:10316000EBFD401B022801D90320DEE66C48103835
:103170000068C0F380000028F1D100BF207800F083
:10318000100010286ED16648006800F038086448C6
:103190001830D0F80090B8F1080F06D0B8F1180F29
:1031A0002FD109F0030001282BD15D4810380068A9
:1031B000C0F3002020B1E069802801D00120B4E6EE
:1031C00000BFFDF7B3FD41F2030188420CD854481B
:1031D0000C38006820F0F84094F8201040EA816034
:1031E0004F490C3908600BE04D48001F006820F083
:1031F0007C5094F8201040EA01604949091F08609A
:1032000058E0E06968B346481038006840F0800034
:10321000434910390860FDF78FFD054606E0FDF7CC
:103220008BFD401B022801D903207EE63C48103864
:103230000068C0F300200028F1D000BFFDF776FD44
:1032400041F2030188420ED835480C38006820F05E
:10325000F84094F8201040EA816031490C39086048
:103260000DE00DE027E02E48001F006820F07C50A4
:1032700094F8201040EA01602949091F086019E00C
:1032800027481038006820F0800025491039086070
:10329000FDF752FD054606E0FDF74EFD401B0228F6
:1032A00001D9032041E61E4810380068C0F3002011
:1032B0000028F1D100BF207800F00800082837D19D
:1032C0006069D0B116486430006840F001001449CC
:1032D00064310860FDF730FD054606E0FDF72CFD82
:1032E000401B022801D903201FE60D486430006806
:1032F000C0F340000028F1D01AE0094864300068AB
:1033000020F00100064964310860FDF715FD05460F
:1033100008E0FDF711FD401B022803D9032004E655
:1033200010440258DC480068C0F340000028F0D187
:10333000207800F02000202836D1A069D0B1D648EE
:103340007438006840F48050D34974390860FDF740
:10335000F3FC054606E0FDF7EFFC401B022801D90F
:103360000320E2E5CC4874380068C0F34030002800
:10337000F1D019E0C8487438006820F48050C6497C
:1033800074390860FDF7D8FC054606E0FDF7D4FC6B
:10339000401B022801D90320C7E5BF4874380068E4
:1033A000C0F340300028F1D1207800F00400042858
:1033B0007DD1BA48006840F48070B8490860FDF7D4
:1033C000BBFC054606E0FDF7B7FC401B642801D9AD
:1033D0000320AAE5B148006800F480700028F2D00C
:1033E00000BFA068012808D1AB48001F006840F06A
:1033F0000100A949091F08602DE0A06868B9A64826
:10340000001F006820F00100A349091F086008465A
:10341000006820F0040008601DE0A06805280DD1B8
:103420009D48001F006840F004009B49091F086088
:103430000846006840F0010008600CE09648001F54
:10344000006820F001009449091F086008460068E0
:1034500020F00400086000BFA068A0B1FDF76CFC7C
:10346000054608E0FDF768FC401B41F288318842C0
:1034700001D9032059E58848001F0068C0F34000C7
:103480000028EFD013E0FDF757FC054608E0FDF7F4
:1034900053FC401B41F28831884201D9032044E5A6
:1034A0007D48001F0068C0F340000028EFD1606A2B
:1034B00000287DD078486438006800F0380018286B
:1034C00077D0606A022875D173487438006820F09C
:1034D0008070714974390860FDF72EFC054606E0DE
:1034E000FDF72AFC401B022801D903201DE56A488C
:1034F00074380068C0F340600028F1D100BFD4E9FF
:103500000A1041EA001064494C39096840F2F3326C
:103510009143084360494C390860208E401EC0F337
:103520000800616B491E4FF47E4202EA41210843C4
:10353000218F491ED20102EA014108433C21095D65
:10354000491E120202EA01610843534944390860E6
:1035500000BF081F006820F00100091F08604E48E6
:10356000403800684FF6F8718843A16C40EAC1000A
:1035700049494039086048484838006820F00C0044
:10358000216C08434449483908600846006820F027
:103590000200616C084340494839086008460068E9
:1035A00040F4803008600846006840F4003002E0D3
:1035B0006FE041E025E008600846006840F48020A4
:1035C00008600846006840F001000860324874381E
:1035D000006840F08070304974390860FDF7ACFB3A
:1035E000054606E0FDF7A8FB401B022801D9032091
:1035F0009BE4294874380068C0F340600028F1D08B
:1036000047E025487438006820F0807022497439FA
:103610000860FDF791FB054606E0FDF78DFB401BBA
:10362000022801D9032080E41B4874380068C0F3E5
:1036300040600028F1D12CE017484C380768164844
:1036400044380668606A012821D007F00301A06AA7
:1036500081421CD1C7F30511E06A884217D1C6F335
:103660000801206B401E814211D1606B401EC6F3E1
:10367000462188420BD1A06B401EC6F3064188420A
:1036800005D1E06B401EC6F30661884201D00120DF
:103690004BE4002049E400007444025800480258FA
:1036A00070B588B004460D46032084F83000A06B46
:1036B000032820D0B5F5004F04D1606B40F0805056
:1036C00060631CE0B5F5804F07D1204601F040FB58
:1036D0000646606B3043606311E03DB9204601F05F
:1036E00003FB0646606B3043606308E0606B40F0AC
:1036F0000060606303E0606B40F080506063606B6B
:1037000038B1194821688863012084F8300008B076
:1037100070BD60680390A0680490059520690690CC
:103720006069042802D3606907900FE0A06DB0F5CE
:10373000007F02D16069079008E0A06DB0F5807F3E
:1037400002D10220079001E004200790DDE9060184
:10375000CDE90001206803A90EC9FCF7E7FE0120AE
:1037600084F830000020D2E7FF0FE01F10B50246BA
:10377000D06D800F0870D06DC0F383604870D06D3D
:10378000C0F301608870D06D000CC870B2F85C00A6
:10379000000A087192F85C004871106E000DC88034
:1037A000106EC0F3034008726020805AC0F3C0302E
:1037B00048726020805AC0F3803088726020805A3E
:1037C000C0F34030C8726020805AC0F300300873E4
:1037D00000204873906B002836D16020805A800505
:1037E000030D506E43EA90700861506EC0F3C260E2
:1037F0000875506EC0F302604875506EC0F34250B9
:103800008875506EC0F38240C875506EC0F3C230E8
:1038100008760869401C90640B7E906C03F00703E7
:103820009B1C01249C4060439064087A00F00F03C5
:1038300001209840D064D2E912035B0A5843106516
:103840004FF40073536521E0906B012813D1602081
:10385000805C8006830A506E43EA10400861086964
:10386000401C83029364936C13654FF40073D3641C
:10387000D36C53650AE02E4813689863506B40F090
:1038800080505063012082F8300010BD6420805ABF
:10389000C0F3803001F8190F6420805AC0F3C610BD
:1038A00048706420805C00F07F008870906EC00FCC
:1038B000C870906EC0F341700871906EC0F3826062
:1038C0004871906EC0F383508871906EC0F3405081
:1038D000C87100200872906EC0F3004048726820E2
:1038E000805AC0F3C03088726820805AC0F380309C
:1038F000C8726820805AC0F3403008736820805A2C
:10390000C0F3003048736820805AC0F38120887368
:103910006820805AC0F30120C8736820805CC0F31F
:10392000460008740120487419390020ADE70000F2
:10393000FF0FE01F0246906B0860D06B4860106C70
:103940008860506CC860906C0861D06C4861106DE4
:103950008861506DC86100207047F8B504460020AA
:1039600000906946204601F0A7F9054615B1606B45
:10397000284360630098C0F343263046F8BD00003A
:1039800070B590B005460C466946284601F0FAF835
:10399000064656B1284829688863686B30436863D7
:1039A000012085F8300010B070BD0098C0F3811080
:1039B00020700098C0F340106070009800F47F0001
:1039C000000A009940EA11606080019800060199A0
:1039D00001F47F4140EA0120019901F47F0140EAAE
:1039E0001120019940EA11606060029820720298EB
:1039F000000A60720298C0F30350A0720398C0B22C
:103A0000029901F07F4140EA1140A0810398C0F380
:103A10008520A0730398C0F30120E0730398C0F3DE
:103A200003102074039800F00F0060740498000ED7
:103A3000A0740020B7E70000FF0FE01FF0B585B0CD
:103A4000044614B9012005B0F0BD94F8300020B947
:103A5000002020762046FCF76EFD032084F830001D
:103A6000204600F045F808B10120ECE76946204601
:103A7000FFF786FF08B10120E5E79DF810609DF88B
:103A80001170A06B012805D106B91FB14FF4007168
:103A9000A16507E0A06B012802D10102A16501E048
:103AA0000021A1652046E168FFF7FAFD08B1012079
:103AB000C9E7FDF741F905460CE0FDF73DF9401B6C
:103AC000401C38B94FF000406063012084F830009A
:103AD0000320B8E72046FFF740FF0428EDD100207F
:103AE0006063E062012084F830000020ABE7000052
:103AF0002DE9F04188B00446002003900490059021
:103B000006902C200790DDE90601CDE90001206830
:103B100003A90EC9FCF70AFD07461FB1012008B032
:103B2000BDE8F0812068FCF70BFD07460FB10120CE
:103B3000F5E74FF48030FDF7C7FF5821B0FBF1F6F1
:103B400046B11448B0FBF6F000F101084046FCF71E
:103B5000C1FF02E00220FCF7BDFF204600F0B0FFED
:103B600005463DB1012084F83000606B2843606356
:103B70000120D4E7204600F02DFF05463DB101208D
:103B800084F83000606B284360630120C7E70020A1
:103B9000C5E70000102101002DE9FF4F89B0044660
:103BA00089469846FDF7C8F80290DDF82CB04D46DE
:103BB000B9F1000F07D1606B40F000606063012035
:103BC0000DB0BDE8F08F94F8300001287ED10020C0
:103BD00060630BEB0801206D814205D9606B40F0FA
:103BE000007060630120EBE7032084F830000020C0
:103BF0002168C862A06B012801D04FEA4B2B4FF41B
:103C000000712068FCF7A1FC06464EB17748216898
:103C10008863606B30436063012084F83000CFE735
:103C20004FF0FF3003904FEA482004909020059019
:103C30000220069000200790089003A92068FCF756
:103C400089FC2068C06840F040002168C860B8F175
:103C5000010F07D90220E06259462068FCF77FFC7B
:103C6000064606E00120E06259462068FCF77CFC2D
:103C7000064666B15D4821688863606B30436063C7
:103C8000012084F830000020E062012098E7DDF890
:103C900010A03AE02068406B00F40040F0B1BAF1A7
:103CA000200F1BD30020019013E02068FCF761FC7B
:103CB00007462F706D1C380A28706D1C380C287050
:103CC0006D1C380E28706D1C019800E087E0401CC8
:103CD000019001980828E8D3AAF1200AFDF72CF8F2
:103CE0000299411A1698814201D2169868B93F4844
:103CF00021688863606B40F000406063012084F8B5
:103D000030000020E06203205AE72068406B00F496
:103D100095700028BED02068C06820F0400021685F
:103D2000C8602068406B00F48070B8B1B8F1010F32
:103D300014D9A06B032811D02068FCF71FFC06469D
:103D400066B12A4821688863606B30436063012054
:103D500084F830000020E062012031E72068406BE9
:103D600000F0080068B1214821688863606B40F06A
:103D700008006063012084F830000020E062012028
:103D80001EE72068406B00F0020068B11748216808
:103D90008863606B40F002006063012084F83000AB
:103DA0000020E06201200BE72068406B00F020005B
:103DB00068B10E4821688863606B40F02000606342
:103DC000012084F830000020E0620120F8E6084875
:103DD00021688863012084F830000020F0E6606BE1
:103DE00040F0005060630120EAE60000FF0FE01F92
:103DF0003A0F00182DE9F04F89B0044688469346E3
:103E00001F46FCF799FF0290DA464646B8F1000FCC
:103E100007D1606B40F000606063012009B0BDE82D
:103E2000F08F94F8300001287ED1002060630AEB07
:103E30000701206D814205D9606B40F0007060631E
:103E40000120EBE7032084F8300000202168C862DD
:103E5000A06B012801D04FEA4A2A4FF40071206874
:103E6000FCF773FB05464DB1794821688863606BA8
:103E700028436063012084F83000CFE74FF0FF3023
:103E800003907802049090200590002006900790FF
:103E9000089003A92068FCF75DFB2068C06840F02B
:103EA00040002168C860012F07D92020E0625146F8
:103EB0002068FCF768FB054606E01020E0625146EA
:103EC0002068FCF765FB054665B161482168886399
:103ED000606B28436063012084F830000020E062BA
:103EE00001209BE7DDF8109043E02068406B00F470
:103EF000804040B3B9F1200F25D3002001901DE090
:103F000030780090761C3078009941EA00200090CB
:103F1000761C3078009941EA00400090761C307899
:103F2000009941EA006000E08CE00090761C694650
:103F30002068FCF732FB0198401C0190019808288A
:103F4000DED3A9F12009FCF7F7FE0299411A129875
:103F5000814201D2129860B93D4821688863606B44
:103F600028436063012084F830000020E0620320D1
:103F700054E72068406B00F48D700028B5D02068AD
:103F8000C06820F040002168C8602068406B00F4E1
:103F90008070B0B1012F14D9A06B032811D0206814
:103FA000FCF7ECFA054665B1294821688863606B27
:103FB00028436063012084F830000020E062012083
:103FC0002CE72068406B00F0080068B120482168A9
:103FD0008863606B40F008006063012084F8300063
:103FE0000020E062012019E72068406B00F0020029
:103FF00068B1174821688863606B40F00200606315
:10400000012084F830000020E062012006E72068EB
:10401000406B00F0100068B10D4821688863606B48
:1040200040F010006063012084F830000020E0625E
:104030000120F3E6074821688863012084F83000F6
:104040000020EBE6606B40F0005060630120E5E685
:10405000FF0FE01F3A0F0018042808D14FF0E021AD
:10406000096941F004014FF0E022116107E04FF0CF
:10407000E021096921F004014FF0E022116170474D
:1040800070B504462546681EB0F1807F01D301203B
:104090000FE0681E4FF0E02148610F214FF0FF3024
:1040A00000F01AFF00204FF0E0218861072008612E
:1040B000002070BD10B586B004462B4920688842A8
:1040C00050D100BF00BF2948006840F010002749C8
:1040D00008600846006800F01000009000BF00BFB4
:1040E00000BF00BF00BF21481038006840F0010049
:1040F0001E49103908600846006800F00100009071
:1041000000BF00BF00BF00BF00BF0846006840F00E
:10411000010008600846006800F00100009000BF40
:1041200000BF00BF4FF400700190022002900120F8
:104130000390022004900720059001A90C48FCF789
:10414000D9FC4FF4806001900720059001A9084830
:10415000FCF7D0FC2520FCF7C2FE032211462520E7
:10416000FCF7CDFE06B010BD00100140F04402582F
:10417000000002581D4A0168914236D11C49098845
:1041800001F4004189BB1A49098801F4804171B1E9
:10419000184909780A2903D00021154A118024E022
:1041A0001349098841F40041114A11801DE0114969
:1041B00009780D2906D10E49098841F480410C4A3D
:1041C000118012E00B490978094A1288C2F30D02E6
:1041D000094B995406490988491C054A1180114622
:1041E0000988C72901DD00211180704700100140B6
:1041F0001C0000241E0000244407002400BFFEE72A
:10420000704710B54B6A33B1B2F1406F03D08B6A7F
:104210005B1E046823618B69002B76D00B6AE3B3C5
:104220008B680468E361CB69FBB1D1E90B342343AC
:104230004C6B23434C6A23438C8A43EA84430C69C6
:1042400023430C6A2343CC682343CC6923438C6902
:1042500023430C682343134304686361B2F1406F46
:1042600002D04B680468A361BEE0D1E90B3423435C
:104270004C6B23434C6A23438C8A43EA84430C6986
:1042800023430C6A2343CC6923438C6923430C6882
:104290002343134304686361A6E0FFE7CB69EBB1F6
:1042A000D1E90B3423434C6B23434C6A23438C8A60
:1042B00043EA84430C6A2343CC682343CC692343F9
:1042C0008C6923430C682343134304686361B2F190
:1042D000406FC9D04B680468A36185E0D1E90B3415
:1042E00023434C6B23434C6A23438C8A43EA844325
:1042F0000C6A2343CC6923438C6923430C68234312
:104300001343046863616FE0FFE70B6AC3B38B6814
:104310000468E361CB69EBB1D1E90B3423434C6B07
:1043200023434C6A23438C8A43EA84430C69234326
:104330000C6A2343CC682343CC6923438C69234311
:10434000134304686361B2F1406F4DD04B68046859
:10435000A36149E0D1E90B3423434C6B23434C6AFE
:1043600023438C8A43EA84430C6923430C6A234326
:10437000CC6923438C69234313430468636133E0AE
:10438000FFE7CB69DBB1D1E90B3423434C6B23430B
:104390004C6A23438C8A43EA84430C6A2343CC68E7
:1043A0002343CC6923438C6923431343046863612B
:1043B000B2F1406F18D04B680468A36114E04B6AF7
:1043C00093B1D1E90B3423434C6B23434C6A234311
:1043D0008C8A43EA84430C6A2343CC6923438C6967
:1043E000234313430468636110BD2DE9F041044683
:1043F0000E4617469846069D12E0681C80B1FCF7F1
:104400009BFCA0EB0800A84200D84DB9042084F81A
:104410004100606C40F0010060640120BDE8F08163
:1044200020688068304008B1012000E00020B842D8
:10443000E3D10020F2E700002DE9F04104460E46EA
:1044400000275548006800F00300032802D101202E
:10445000BDE8F08150482838006820F080604E495F
:1044600028390860FCF768FC054606E0FCF764FCA8
:10447000401B022801D90320EAE747482838006892
:10448000C0F3C0600028F1D100BF4348006820F4A9
:104490007C30216840EA01303F490860A088401E16
:1044A000C0F30800A168491E4FF47E4202EA412190
:1044B0000843A189491ED20102EA01410843217C37
:1044C000491E120202EA01610843334910310860B3
:1044D00000BF3148001D006820F0C000616908433A
:1044E0002D49091D08600846006820F02000A169D8
:1044F00008432949091D08600846006820F010009B
:1045000008602548143000684FF6F8718843E16967
:1045100040EAC1002049143108601F48001D0068AE
:1045200040F010001C49091D08602EB908460068BB
:1045300040F40020086012E0012E08D11648001D4A
:10454000006840F480101449091D086007E0124813
:10455000001D006840F400100F49091D08600E4856
:104560002838006840F080600B4928390860FCF763
:10457000E3FB054606E0FCF7DFFB401B022801D900
:10458000032065E7044828380068C0F3C0600028AD
:10459000F1D038465CE70000284402582DE9F0418C
:1045A00004460E4600275548006800F00300032823
:1045B00002D10120BDE8F08150482838006820F081
:1045C00080504E4928390860FCF7B6FB054606E0E6
:1045D000FCF7B2FB401B022801D90320EAE7474859
:1045E00028380068C0F340700028F1D100BF43486C
:1045F000006820F07C70218840EA01503F49086043
:10460000A088401EC0F30800A168491E4FF47E42F6
:1046100002EA41210843A189491ED20102EA01416F
:104620000843217C491E120202EA01610843334912
:104630001831086000BF3148001D006820F4406058
:10464000616908432D49091D08600846006820F487
:104650000070A16908432949091D086008460068DF
:1046600020F48070086025481C3000684FF6F8710F
:104670008843E16940EAC10020491C3108601F48B5
:10468000001D006840F480701C49091D08602EB9A7
:104690000846006840F48000086012E0012E08D14E
:1046A0001648001D006840F400001449091D086008
:1046B00007E01248001D006840F080700F49091D96
:1046C00008600E482838006840F080500B492839AF
:1046D0000860FCF731FB054606E0FCF72DFB401BAC
:1046E000022801D9032065E7044828380068C0F390
:1046F00040700028F1D038465CE70000284402589A
:1047000010B50023234C236000BF00BF00BFBFF3E0
:104710004F8F00BF00BF00BF231F1868C0F34E318A
:1047200000BFC0F3C90200BF43F6E07303EA4113C0
:104730004FF0404404EA82742343174C236000BFC7
:1047400000BF131EA2F10102EED10B1EA1F1010167
:10475000E7D100BF00BF00BFBFF34F8F00BF00BF56
:1047600000BF0C4B703B1B6843F48033094C703C1A
:10477000236000BF00BF00BFBFF34F8F00BF00BF6B
:1047800000BF00BF00BF00BFBFF36F8F00BF00BFFF
:1047900000BF10BD84ED00E060EF00E000BF00BF8F
:1047A00000BFBFF34F8F00BF00BF00BF00BF00BFFF
:1047B00000BFBFF36F8F00BF00BF00BF00201449D0
:1047C000086000BF00BF00BFBFF34F8F00BF00BF36
:1047D00000BF00BF00BF00BFBFF36F8F00BF00BFAF
:1047E00000BF0C48006840F400300A49086000BF70
:1047F00000BF00BFBFF34F8F00BF00BF00BF00BFAF
:1048000000BF00BFBFF36F8F00BF00BF00BF704786
:1048100050EF00E014ED00E010B500231B4C2360C6
:1048200000BF00BF00BFBFF34F8F00BF00BF00BF7E
:10483000231F1868C0F34E3100BFC0F3C90200BF88
:1048400043F6E07303EA41134FF0404404EA8274F4
:1048500023430F4C236000BF00BF131EA2F10102CF
:10486000EED10B1EA1F10101E7D100BF00BF00BFD7
:10487000BFF34F8F00BF00BF00BF00BF00BF00BF2E
:10488000BFF36F8F00BF00BF00BF10BD84ED00E01D
:1048900060EF00E02DE9F04389B004460F46FCF7D5
:1048A0004BFA81464FF000080020019002903E46EE
:1048B00008212068FBF749FE05461DB1284609B0CE
:1048C000BDE8F0834422125B11042068FBF76AFE06
:1048D00005460DB12846F2E74FF0FF30039008205F
:1048E00004903020059002200690002007900120BF
:1048F000089003A92068FBF72DFE2068FBF757FE00
:1049000005460DB12846DAE71AE02068406B00F44E
:10491000002060B9B8F1000F09D12068FBF729FE2B
:1049200001902068FBF725FE029008F10108FCF7D2
:1049300003FAA0EB0900401C10B94FF00040BEE79D
:104940002068406B40F22A5108400028DDD02068E2
:10495000406B00F0080018B1082021688863AEE7BA
:104960002068406B00F0020018B1022021688863C3
:10497000A5E72068406B00F0200018B120202168D6
:1049800088639CE7124821688863029800060299B0
:1049900001F47F4140EA0120029901F47F0140EADD
:1049A0001120029940EA11603060361D019800061E
:1049B000019901F47F4140EA0120019901F47F014E
:1049C00040EA1120019940EA11603060002076E74A
:1049D0003A0F001830B58DB00446012001902068D0
:1049E000FBF7EAFD18B94FF080600DB030BDA06B49
:1049F00003281AD02068FBF7E4FD05460DB12846D0
:104A0000F3E700212068FBF7E1FDE0660421206860
:104A1000FBF7DCFD206708212068FBF7D7FD606706
:104A20000C212068FBF7D2FDA067A06B032807D0FC
:104A300001A92068FBF7CFFD05460DB12846D4E754
:104A4000A06B032820D0BDF8041061644422125BDF
:104A500011042068FBF7C4FD05460DB12846C4E7E4
:104A600000212068FBF7B2FDE06504212068FBF718
:104A7000ADFD206608212068FBF7A8FD60660C21CB
:104A80002068FBF7A3FDA06604212068FBF79EFDCC
:104A9000010D216402A92046FEF768FE10B14FF017
:104AA0008050A2E74420005B01040A4600232068EE
:104AB000FBF79BFD05460DB1284696E7002094E7DD
:104AC000F8B5044600200090002600272068FBF778
:104AD00091FD05460DB12846F8BD2068FBF78FFD16
:104AE000054645B10021E1632068FBF783FD0546DB
:104AF0001DB12846F0E70121E163E06B012808D1F0
:104B000000212068FBF74EFD054615B14FF080509F
:104B1000E2E71DE000212068FBF744FD05460DB1EA
:104B20002846D9E716492068FBF76EFD054615B102
:104B30004FF08050D0E700212068FBF747FD064684
:104B4000012080EAD67080F001070098401C009098
:104B50004FF6FF710098884201D2002FDAD04FF64D
:104B6000FF710098884202D34FF08070B4E706F0DE
:104B70008040B0F1804F01D10120A0630020ABE75D
:104B8000000010C12DE9F04387B004460F46FCF742
:104B9000D3F880463E4600212068FBF717FD00F061
:104BA0000070B0F1007F04D14FF4006007B0BDE8A1
:104BB000F08340212068FBF7C8FC05461DB1606BFF
:104BC00060632846F2E74422125B11042068FBF779
:104BD000E9FC05461DB1606B60632846E6E74FF0CF
:104BE000FF3001904020029060200390022004904A
:104BF000002005900120069001A92068FBF7AAFC7F
:104C00002068FBF706FD05461DB1606B6063284612
:104C1000CCE71AE02068406B00F4004060B14FF030
:104C2000000906E02068FBF7A4FC3060361D09F19E
:104C30000109B9F1080FF5D3FCF77EF8A0EB0800E5
:104C4000401C10B94FF00040B0E72068406B00F402
:104C500095700028DED02068406B00F0080008B195
:104C60000820A3E72068406B00F0020008B1022092
:104C70009CE72068406B00F0200008B1202095E7F9
:104C80000DE02068FBF775FC3060361DFCF754F82A
:104C9000A0EB0800401C10B94FF0004086E72068E8
:104CA000406B00F480500028EBD1024821688863F3
:104CB00000207BE73A0F001870B504460D4615B981
:104CC0004FF0006070BD4422125B11042068FBF7B6
:104CD000A5FC06460EB13046F4E700212068FBF73C
:104CE00075FC28600020EDE77CB5044600200090AC
:104CF000019000212068FBF769FC00F00070B0F122
:104D0000007F02D14FF400607CBD69462046FFF76A
:104D1000C1FD05460DB12846F6E7019800F4803044
:104D200098B14422125B11042068FBF73BFC054656
:104D30000DB12846E8E700212068FBF774FC054622
:104D40000DB12846E0E70020DEE74FF08060DBE7AA
:104D50007CB5044600200090019000212068FBF7FC
:104D600035FC00F00070B0F1007F02D14FF400601C
:104D70007CBD69462046FFF78DFD05460DB12846EE
:104D8000F6E7019800F4802098B14422125B1104E8
:104D90002068FBF707FC05460DB12846E8E702212D
:104DA0002068FBF740FC05460DB12846E0E70020EF
:104DB000DEE74FF08060DBE710B5FBF7C3FF01F0E3
:104DC0005FFA012801D0FBF733FC10BD24480068CE
:104DD00040F47000224908602248006840F0010059
:104DE0002049086000201F49103108601D480068F4
:104DF0001D4908401B49086000201A491831086005
:104E0000091D0860091D0860164928310860091D40
:104E10000860091D0860091D0860091D0860091D5A
:104E20000860091D0860091D08600E48006820F42C
:104E300080200C49086000200A49603108600B4856
:104E400000686FF30F00B0F1005F02D20120084943
:104E500008604FF000600249803908607047000028
:104E600088ED00E0004402587FEDF6EA0010005C97
:104E70000881005170B500240F4D1048FBF7DDFB91
:104E800000BF03E0641CAC4200D904E00B48FBF710
:104E9000D9FB2028F6D100BF002403E0641CAC42FB
:104EA00000D906E0012206490448FBF7D0FB0028A0
:104EB000F4D100BF70BD0000FFFF01000C0800240A
:104EC0001E00002400BFFEE702480068C0F3022075
:104ED000704700000CED00E010B5002804DB0A0765
:104EE000130E054A135406E00A07140E034A00F095
:104EF0000F031B1FD45410BD00E400E018ED00E0C8
:104F000000BF704770B504460420FFF7A5F80A48B3
:104F1000046025464FF47A7045434FF0E020006965
:104F200040F002004FF0E021086108464561006949
:104F300040F00100086170BD1400002430B5044643
:104F4000002504E04FF47A7000F004F86D1CA542CF
:104F5000F8D330BD70B5034600224FF0E0267569E6
:104F60000D4E366803FB06F44FF0E026B16910E001
:104F70004FF0E026B06988420BD0884202D20E1A68
:104F8000324402E02E1A0E4432440146A24200D3BB
:104F900000E0EDE700BF70BD1400002400BF054A2B
:104FA000D26902F04002002AF9D0C2B2014B9A62E3
:104FB000704700000010014010B500F0D7FCFBF76F
:104FC000CDFE042302221146F02000F0CDFD4FF467
:104FD000F070FFF797FF4FF4E13000F079FEFBF738
:104FE0003BFBFBF73EFBFBF741FBFBF744FB0020E1
:104FF000FBF746FBFBF749FB002010BD10B504464C
:10500000240300F095F900F02DF9074800780021FD
:1050100041EA0010401DC2B20B462146202000F09C
:10502000F7FB00F01FF910BD8200002410B500242A
:1050300000BF1A48806800F020000028F9D14FF422
:1050400083701649486100BF1448806800F0020070
:105050000028F9D01148C06840F002000F49C8602C
:105060004FF6FF720021202000F066FC98B9EB2477
:1050700044F4807444F440640948007844EA0034FD
:1050800044F4404400BF44F4801444F0407444F0BD
:1050900040640248446100F079FC10BD00500052A9
:1050A0008200002410B5002400F06EFC00BF00BF99
:1050B00000BF00BF00BFBFF34F8F00BF00BF00BFE6
:1050C00000BF00BF00BFBFF36F8F00BF00BF00BFB6
:1050D00000201949086000BF00BF00BFBFF34F8F19
:1050E00000BF00BF00BF00BF00BF00BFBFF36F8F96
:1050F00000BF00BF00BF00BFFFF78EFB0F48006876
:1051000020F001000D4908600846006840F00200E8
:1051100008604FF6FF720021202000F00DFC0446CD
:105120003CB90020054948610846006840F001008C
:105130000860204610BD000050EF00E00050005213
:105140002DE9F04106460D4617460024A5F1E0453D
:1051500000F01AFC00BF03E0285D3055601C84B2EB
:10516000BC42F9DB00F012FCBDE8F08170B5002410
:105170000025FFF797FF044614B900F033F8054601
:10518000FFF754FF284670BD2DE9F04105460E4655
:1051900017460024FFF786FF044624B93A463146F5
:1051A000284600F069F8FFF741FF2046BDE8F0818E
:1051B00070B505460E46144609480078C02141EAFC
:1051C000001040F00C00401CC2B206233146EB2018
:1051D00000F01EFB2146284600F006FB70BD0000D3
:1051E0008200002438B500F0D7FA00236522194662
:1051F000902000F00DFB0221684600F0F5FA9DF8C2
:1052000001009DF8001040EA01244EF61870844217
:1052100002D1032001490870204638BD82000024D5
:1052200038B50446002000900025012C04D0022C43
:1052300004D0032C06D103E0052505E0352503E065
:10524000152501E0052500BF00BF002341221946B6
:10525000284600F0DDFA0121684600F0C5FA9DF805
:10526000000038BD10B500BF0120FFF7D9FF00F0E6
:1052700001000028F8D110BD2DE9F05F81460F46EE
:105280001646DFF8A8B04FEA1738C7F30B0ACAF57D
:105290008054A64200DC344644E04FEA08314FF423
:1052A00080525846FFF784FF002508E00AEB05000E
:1052B0001BF80000FF2800D003E0681C85B2A5425F
:1052C000F4DB00BFA54216DA4046FFF797FE002543
:1052D00007E019F8050005EB0A010BF80100681C4E
:1052E00085B2A542F5DB4FEA08314FF480525846AB
:1052F00000F026F804E022463946484600F020F83F
:10530000A64200D10FE008F101084FF0000AA144C5
:105310002744301B86B2B6F5805F02DD4FF480541F
:1053200000E03446B9E700BFBDE8F09FD40900248F
:1053300010B5002301221946062000F069FA10BDBD
:105340002DE9F04107460E461446F0B2C0F58075CF
:10535000AC4200DC254612E02A463146384600F0D1
:1053600013F8AC4200D10BE02F442E44601B84B2F2
:10537000B4F5807F02DD4FF4807500E02546EBE751
:1053800000BFBDE8F081000070B505460E4614462A
:10539000FFF7CEFF09480078C02141EA0010401D08
:1053A000C2B200233146322000F032FA21462846AC
:1053B00000F0AEFAFFF756FF70BD00008200002437
:1053C0002DE9F04105460E46294807680020294985
:1053D000096881F8590027480068001DFBF75AF951
:1053E00050B92448006890F82C10012088402249C8
:1053F0000968814320480160681CD8B9D6B11F49AB
:1054000048681C49096888601A4982680968CA6046
:1054100018490968091D8268516016490968091D03
:105420008160164A134909684A6111460968491C96
:1054300011601AE07C190F4800684460BC4207D232
:105440000C480168091D0E480068FBF728F90CE0BC
:1054500008480168091D0B480068FBF720F90A4855
:105460000068844201D208480460BDE8F081000071
:10547000D0000024BC000024D4000024D0F2042476
:10548000C4000024C0000024EC00002410B5044631
:10549000FBF70AF931480068401C30490860304881
:1054A000006840B92E4804600846006801280DD104
:1054B00000F026F90AE02B48006838B9284800684F
:1054C000C06AE16A884201D825480460264800681D
:1054D000401C2549086008460068606494F82C1058
:1054E0000120884021490968084320490860E16A91
:1054F00001EB81011E4A02EB81014868A0608268CD
:10550000E260211D826851608160E16A01EB8101E6
:10551000174A02EB81026261E16A01EB8101144AE0
:1055200052F82110491CE26A02EB8202104B43F848
:105530002210FBF7BEF80B48006868B10848006805
:10554000C06AE16A884207D24FF08050094908607A
:10555000BFF34F8FBFF36F8F10BD0000CC0000244E
:10556000BC000024D8000024E8000024D40000245B
:1055700000F0042404ED00E010B516E0FBF794F809
:105580000C48C068C468201DFBF784F80A4800680E
:10559000401E0949086009480068401E0749086024
:1055A000FBF787F8204600F00BF804480068002855
:1055B000E4D110BDBCF20424CC000024C8000024B7
:1055C00010B50446206BFBF779F82046FBF776F818
:1055D00010BD000000BFFFF7CFFF0648006801289C
:1055E000F9D94FF0805004490860BFF34F8FBFF3E3
:1055F0006F8FF0E700F0042404ED00E02DE9F05F88
:1056000082460F4690469B460A9E0C9C4FEA8801B4
:10561000A522206BFBF757F8A8F10100216B01EBE5
:10562000800929F0070909F0070008B9012000E006
:10563000002028B94FF4587224A12DA0FBF748F898
:1056400087B1002507E0795D04F134004155785DAC
:1056500000B902E06D1C102DF5D300BF00214320DE
:10566000015502E0002084F83400202E01D20120F0
:1056700000E0002028B940F2973214A11CA0FBF7EB
:1056800027F8202E00D31F26E662E664002020655E
:10569000201DFBF722F804F11800FBF71EF8246127
:1056A000C6F12000A06164620020606584F85800A3
:1056B00084F859005A4651464846FBF713F82060D3
:1056C0000B9808B10B980460BDE8F09F2E2E5C2E5D
:1056D0002E5C4D6964646C6577617265735C4672BB
:1056E000656552544F535C7461736B732E63000095
:1056F0004572726F723A2025732C2025640D0A00C2
:1057000010B5002407E004EB84010F4A02EB81008E
:10571000FAF7EDFF641C202CF5D30C48FAF7E7FFED
:105720000B48FAF7E4FF0B48FAF7E1FF0A48FAF7EB
:10573000DEFF0A48FAF7DBFF04480949086004481D
:105740000849086010BD000000F0042480F2042421
:1057500094F20424A8F20424BCF20424D0F2042419
:10576000C0000024C400002409480068006808B98B
:10577000012000E0002020B14FF0FF300549086013
:1057800005E003480068C068006802490860704787
:10579000C0000024EC00002410B511481149086035
:1057A0000120486004210F4881601021C160480534
:1057B00090FAA0F0B0FA80F0401E0A4908614FF458
:1057C000007108484161012181610021C1610162CC
:1057D000FBF742FC08B9002010BD0120FCE70000E7
:1057E00000500052D419002470B504460D46681EBE
:1057F00006490968086141F2883221460348FBF7EF
:1058000013FD08B9002070BD0120FCE7D419002465
:10581000F0B58FB007460D4614461E460197029517
:10582000069604F0030010B90020079013E004F07E
:105830000300012802D1000207900CE004F00300ED
:10584000022802D10002079005E004F003000328BB
:1058500001D100020790C4F3810010B90020089024
:1058600013E0C4F38100012802D1800208900CE00B
:10587000C4F38100022802D18002089005E0C4F33D
:105880008100032801D180020890C4F3011010B9EF
:105890000020049013E0C4F30110012802D100039A
:1058A00004900CE0C4F30110022802D1000304901C
:1058B00005E0C4F30110032801D100030490A009FE
:1058C00010B900200A9013E00120B0EB941F02D120
:1058D00000060A900CE00220B0EB941F02D10006F3
:1058E0000A9005E00320B0EB941F01D100060A9056
:1058F00000200E9009900C900D9041F2883201A981
:105900000248FBF757FB0FB0F0BD0000D41900248C
:1059100070B504460D46681E06490968086141F2E3
:10592000883221460348FBF7F3FC08B9002070BD1C
:105930000120FCE7D419002410B5034600240BE035
:1059400009488068184008B1012000E000200446A2
:105950008C4200D102E0521E002AF1D100BF0AB1F0
:10596000002010BD0120FCE70050005210B5FEF7EA
:1059700015FFFEF7C5FE0348006840F0040001492A
:10598000086010BD9CEF00E072B6704762B67047C9
:1059900030B587B00546002400BF6A48006840F073
:1059A0000200684908600846006800F002000190A3
:1059B00000BF00BF00BF0846006840F00800086054
:1059C0000846006800F00800019000BF00BF00BF5B
:1059D0000846006840F0100008600846006800F0C3
:1059E0001000019000BF00BF00BF56480C3800688F
:1059F00040F4804053490C3908600846006800F4C0
:105A00008040019000BF00BF402002900220039020
:105A100003200590012004900A20069002A94A481C
:105A2000FBF768F8042002900920069002A9464876
:105A3000FBF760F84FF4605002900920069002A92D
:105A40004248FBF757F8042002900920069002A96B
:105A50003F48FBF74FF83B486438006840F480400B
:105A60003849643908600846006820F480400860BE
:105A700000BF3848806800F020000028F9D136487F
:105A800034490860354848600846006840F0010025
:105A9000086000BF2F48806800F020000028F9D17E
:105AA0004FF483702B49486100BF2A48806800F09A
:105AB00002000028F9D02748C06840F002002549BC
:105AC000C86000BF2348806800F020000028F9D19A
:105AD0002049C861EB2444F4807444F44064A81C59
:105AE00044EA003444F4404400BF44F4801444F0D9
:105AF000407444F04064084644611948006820F44A
:105B000080301749086016487030006820F00100A6
:105B10001349703108600020091D08604FF01040E3
:105B2000091D08600F48091D086005200C497031E7
:105B300008600B48006840F480300949086007B0ED
:105B400030BD0000E044025800040258000C025826
:105B5000001002580050005210030001010218000A
:105B600024ED00E02D0003032DE9F041CCB0804688
:105B70000D4616461F4600245148006820F00400D8
:105B80004F49086000BF002001904E48006820F097
:105B900001004C4908600846006800F001000190CF
:105BA00047480C30006840F4404045490C310860DB
:105BB0000846006800F44040019000BF00BF00BFED
:105BC0003F480C30006800F40050B0F5005FF7D19A
:105BD000212031904FF48030329000203490389062
:105BE0000120379002203A90022131A88162CDF83D
:105BF000F480C56246638763002141640821016423
:105C000000218164FDF78CF904461CB101204CB0E1
:105C1000BDE8F0813F20449003204590002046904D
:105C2000082047904020499000014A904020489029
:105C30004B90042144A8FCF7A1FE04460CB10120BE
:105C4000E5E721480290082003904FF4DC710491AD
:105C500002210591069107910021089109910A916D
:105C6000022013902020149000201F9020904FF4C9
:105C70004010239002A8FCF7F1F804460CB1012073
:105C8000C5E70020FFF784FEFBF78AF90F4800689C
:105C900040F080000D49086000BF0C48F4300068F7
:105CA00040F002000949F43108600846006800F03D
:105CB0000200019000BF00BFFAF712FF0020A6E724
:105CC0000C4802582C0400580300040300440258F6
:105CD00010B5044609480A49086008464460002196
:105CE0008160C160016181610C214161FAF704FDAD
:105CF000012204490248FAF7AAFC10BD0010014035
:105D00000C0800241E00002470B504460025ACB128
:105D10000F48006808B9012000E0002028B940F2CF
:105D200049520CA114A0FAF7D3FC00F0AFF90021FE
:105D30002046FFF745FB00F0DBFC05463DB94FF080
:105D4000805011490860BFF34F8FBFF36F8F70BD54
:105D5000F80000242E2E5C2E2E5C4D6964646C6568
:105D600077617265735C4672656552544F535C741B
:105D700061736B732E6300004572726F723A202557
:105D8000732C2025640D0A0004ED00E070B5054673
:105D9000FAF78AFC15B92F48006800E02846044647
:105DA000201DFAF777FC78B9E06A00EB80002A49F9
:105DB00051F8200040B994F82C1001208840274960
:105DC0000968814325480160A06A18B104F11800F0
:105DD000FAF760FC22480068401C214908601D4811
:105DE0000068844209D1211D1E48FAF78AFC1E482A
:105DF0000068401C1C49086006E01C480068401E02
:105E00001A490860FFF7B0FCFAF753FC1148006824
:105E1000844202D02046FFF7D3FB15480068C0B18A
:105E20000C480068844214D11248006808B9012067
:105E300000E0002028B940F2DC420FA117A0FAF7D9
:105E400047FC4FF0805019490860BFF34F8FBFF3F4
:105E50006F8F70BDBC00002400F00424D400002427
:105E6000E8000024BCF20424C8000024CC00002474
:105E7000D8000024F80000242E2E5C2E2E5C4D69E4
:105E800064646C6577617265735C467265655254D3
:105E90004F535C7461736B732E6300004572726FB5
:105EA000723A2025732C2025640D0A0004ED00E0D1
:105EB00003490968016003490968416070470000AF
:105EC000E4000024D000002401200149086070474C
:105ED000E000002470B504460D462CB940F61C4283
:105EE00007A110A0FAF7F4FB124801681831204608
:105EF000FAF7D5FB01212846FFF762FA70BD0000D2
:105F00002E2E5C2E2E5C4D6964646C657761726523
:105F1000735C4672656552544F535C7461736B7366
:105F20002E6300004572726F723A2025732C202573
:105F3000640D0A00BC00002470B504460E461546E8
:105F40002CB940F6524211A119A0FAF7C1FB6068C2
:105F50001B490968C8611A49826809680A621849B8
:105F600009681831826851601549096818318160E3
:105F7000134909688C622168491C21600DB14FF0FA
:105F8000FF3629463046FFF71BFA70BD2E2E5C2ED9
:105F90002E5C4D6964646C6577617265735C4672F2
:105FA000656552544F535C7461736B732E630000CC
:105FB0004572726F723A2025732C2025640D0A00F9
:105FC000BC0000241CB51C4800210B468022CDE9F2
:105FD00000101AA11B4800F023F90446012C02D13D
:105FE000FAF794FB0446012C17D100BF502072B67B
:105FF00080F31188BFF34F8FBFF36F8F62B600BF7E
:106000004FF0FF301049086001201049086000205F
:106010000F490860FAF77FFB0BE0601C08B1012014
:1060200000E0002028B94FF404620AA112A0FAF798
:106030004FFB154800681CBDF000002449444C4546
:1060400000000000D5550008EC000024D800002412
:10605000D00000242E2E5C2E2E5C4D6964646C658D
:1060600077617265735C4672656552544F535C7418
:1060700061736B732E6300004572726F723A202554
:10608000732C2025640D0A00F400002402480068E7
:10609000401C014908607047F800002410B51B48F7
:1060A000006818B101201A4908602DE00020184945
:1060B000086018480068B0FA80F0C0F11F0404EBD3
:1060C0008400154951F8200008B1012000E00020AB
:1060D00028B940F6024211A119A0FAF7F9FA04EB27
:1060E00084010D4A02EB810041684968416000F17A
:1060F000080142688A4202D14168496841604168AA
:10610000C968134A116000BF10BD0000F8000024E8
:10611000E0000024D400002400F004242E2E5C2E85
:106120002E5C4D6964646C6577617265735C467260
:10613000656552544F535C7461736B732E6300003A
:106140004572726F723A2025732C2025640D0A0067
:10615000BC00002470B506460C462EB940F6FD4240
:106160001FA128A0FAF7B4FA2CB940F6FE421CA1F0
:1061700024A0FAF7ADFAFAF797FA26480268706891
:10618000131A2548006890F8590030B100202249C0
:10619000096881F8590001251EE02068401C08B9F3
:1061A000002519E01D4930680968884206D07068EA
:1061B000904203D80125002020600DE0206898421D
:1061C00007D92068C01A20603046FFF771FE00250D
:1061D00002E0002020600125FAF76BFA284670BD26
:1061E0002E2E5C2E2E5C4D6964646C657761726541
:1061F000735C4672656552544F535C7461736B7384
:106200002E6300004572726F723A2025732C202590
:10621000640D0A00D0000024BC000024E400002427
:106220002DE9FF4F85B0804689461746DDE912AB60
:10623000B800FAF775FA064656B15C20FAF770FA1C
:1062400004460CB1266304E03046FAF737FA00E062
:1062500000247CB10020CDE900ABCDE902403A46F4
:1062600049464046089BFFF7C9F92046FFF70EF95B
:10627000012501E04FF0FF35284609B0BDE8F08F59
:106280000549096809B9012005E00449096809B907
:10629000022000E000207047D8000024F80000240D
:1062A0000149086870470000D00000242DE9F04142
:1062B0004FF000085F48006800287DD15E48006804
:1062C000451C5D480560002D1DD15C4800680068D4
:1062D00008B9012000E0002028B940F6C72258A1E3
:1062E00060A0FAF7F5F95548076862480068534915
:1062F00008606048076060480068401C5E490860AC
:10630000FFF732FA00BF5D480068854277D300BFCF
:106310004A480068006808B9012000E0002020B168
:106320004FF0FF305549086068E044480068C06895
:10633000C4686668B54202D2504806605EE0606993
:10634000D4E902128A60D4E902214A60211D426820
:106350008A4201D1E1684160002262610168491E00
:106360000160A06A98B1A06AD4E907128A60D4E9F2
:1063700007214A6004F1180142688A4201D1216A6A
:1063800041600022A2620168491E016000BF94F8CA
:106390002C10012088403A490968084338490860B0
:1063A000E16A01EB8101374A02EB81014868A06094
:1063B0008268E260211D00E033E082685160816004
:1063C000E16A01EB81012F4A02EB81026261E16A1D
:1063D00001EB81012B4A52F82110491CE26A02EBC1
:1063E0008202284B43F822102749E06A0968C96AEB
:1063F00088428DD34FF001088AE700E000BF2248B1
:106400000068C06A00EB80001E4951F82000012896
:1064100001D94FF001081D48006808B14FF001088C
:1064200004E01B480068401C194908604046BDE86C
:10643000F0810000F8000024D0000024C0000024F7
:106440002E2E5C2E2E5C4D6964646C6577617265DE
:10645000735C4672656552544F535C7461736B7321
:106460002E6300004572726F723A2025732C20252E
:10647000640D0A00C4000024E4000024EC000024A1
:10648000D400002400F00424BC000024E000002418
:10649000DC00002470B505462C460026002D5ED099
:1064A00030480068844201D1012000E0002028B972
:1064B00041F24F022CA135A0FAF70AF9206D28B954
:1064C00041F2500228A131A0FAF702F9206D401ED6
:1064D0002065E16CE06A884241D0206D00283ED101
:1064E000201DFAF7D7F840B994F82C100120884005
:1064F0002A490968814329480160E06CE062E06A4A
:10650000C0F12000A06194F82C100120884023499C
:106510000968084321490860E16A01EB8101204ACA
:1065200002EB81014868A0608268E260211D8268F8
:1065300051608160E16A01EB8101194A02EB81023D
:106540006261E16A01EB8101154A52F82110491C90
:10655000E26A02EB8202124B43F822100126304617
:1065600070BD0000BC0000242E2E5C2E2E5C4D69F8
:1065700064646C6577617265735C467265655254DC
:106580004F535C7461736B732E6300004572726FBE
:10659000723A2025732C2025640D0A00D4000024B3
:1065A00000F0042470B50646F068C4682CB940F6C3
:1065B00082423CA144A0FAF78BF8A06AD4E9071202
:1065C0008A60D4E907214A6004F1180142688A42CE
:1065D00001D1216A41600022A2620168491E016066
:1065E0003D48006800283DD16069D4E902128A6004
:1065F000D4E902214A60211D42688A4201D1E16842
:106600004160002262610168491E016094F82C100B
:106610000120884031490968084330490860E16A2F
:1066200001EB81012E4A02EB81014868A06082687B
:10663000E260211D826851608160E16A01EB8101A5
:10664000274A02EB81026261E16A01EB8101244A7F
:1066500052F82110491CE26A02EB8202204B43F8F7
:10666000221010E01F494868E0618268226204F14C
:1066700018018268516081601A4AA2621146096855
:10668000491C116000BF1849E06A0968C96A88425C
:1066900004D9012501201549086000E0002528469D
:1066A00070BD00002E2E5C2E2E5C4D6964646C65FE
:1066B00077617265735C4672656552544F535C74C2
:1066C00061736B732E6300004572726F723A2025FE
:1066D000732C2025640D0A00F8000024D400002447
:1066E00000F00424A8F20424BC000024E0000024EC
:1066F00070B5002400265048006828B940F6B3025F
:106700004EA157A0F9F7E4FFF9F7CEFF4A48006819
:10671000401E494908600846006800287ED1544858
:10672000006800287AD05BE05248C068C468A06A5C
:10673000D4E907128A60D4E907214A6004F11801FC
:1067400042688A4201D1216A41600022A262016846
:10675000491E01606069D4E902128A60D4E902210D
:106760004A60211D42688A4201D1E16841600022ED
:1067700062610168491E016094F82C100120884074
:106780003D49096808433C490860E16A01EB810121
:106790003A4A02EB81014868A0608268E260211DEC
:1067A000826851608160E16A01EB8101334A02EB4A
:1067B00081026261E16A01EB8101304A52F82110E5
:1067C000491CE26A02EB82022C4B43F822102C494E
:1067D000E06A0968C96A884202D301202949086031
:1067E0002448006808B9012000E0002000289BD060
:1067F0000CB1FEF7B9FF2448056865B100BFFFF78B
:1068000055FD10B101201F4908606D1E002DF6D105
:1068100000201D4908601B48006800E008E038B10E
:106820000126300719490860BFF34F8FBFF36F8F00
:10683000F9F73FFF304670BDF80000242E2E5C2E85
:106840002E5C4D6964646C6577617265735C467239
:10685000656552544F535C7461736B732E63000013
:106860004572726F723A2025732C2025640D0A0040
:10687000CC000024A8F20424D400002400F0042456
:10688000BC000024E0000024DC00002404ED00E053
:1068900010B500290AD00878002807D005487844A8
:1068A000F9F743FF002801D0002010BD02487844CA
:1068B00010BD00005A000000520000004FF0407070
:1068C000E1EE100A7047000000000102030401021B
:1068D00003040607080900001469000800000024EA
:1068E00044070000D4020008206E0008440700247A
:1068F0002C820700300300081C0000004300000049
:10690000F8FFFFFF0C0000000E0000000F00000069
:106910002E000000113C90D00304011B3210330103
:106920000122F833FFFF2205000D3C15E2039055CC
:10693000E6039069DC03901417EF02100B59730300
:106940009031740390401A3224323032384220158C
:1069500040CA04241CE003307C12382CF00120844F
:106960000140023B1F1AAA01011402202D021E0140
:106970001EE8360790E0041AEC041AD8041ADC0466
:106980001AE4041AD4041E4837079050041AF80C6D
:106990001119081A3C041AF00C1A40081A34041A87
:1069A00014041A2C041A20041A08041EC43907906F
:1069B0005C086112FF1F504704905048041A4904B4
:1069C0001A4A04291099045119201119201119206B
:1069D0001AA4043910A90401A30617D4C3B2A16FE5
:1069E0001812CD620390A95F03904D60039025615A
:1069F00003906D101A990C1AD5041AFD041E783BE9
:106A0000079080041A88041EE839079090081A98A5
:106A1000041A7404815AEC0C10C2963007772C616A
:106A20000EEEBA51099919C46D078FF46A7035A535
:106A300063E9A395649E3288DB0EA4B8DC791EE975
:106A4000D5E088D9D2972B4CB609BD7CB17E072DF5
:106A5000B8E7911DBF906410B71DF220B06A48716D
:106A6000B9F3DE41BE847DD4DA1AEBE4DD6D51B5B5
:106A7000D4F4C785D38356986C13C0A86B647AF995
:106A800062FDECC9658A4F5C0114D96C0663633DF5
:106A90000FFAF50D088DC8206E3B5E10694CE4417D
:106AA00060D5727167A2D1E4033C47D4044BFD85E5
:106AB0000DD26BB50AA5FAA8B5356C98B242D6C905
:106AC000BBDB40F9BCACE36CD832755CDF45CF0D65
:106AD000D6DC593DD1ABAC30D9263A1061DE5180BD
:106AE00051D7C81661D0BFB5F4B42123C4B35699A9
:106AF00095BACF0FA5BDB89EB802280888055FB229
:106B0000D90CC624E90BB1877C6F2F114C6858ABA8
:106B10001D61C13D2D66B69041DC760671DB01BC7E
:106B200020D2982A10D5EF8985B1711FB5B606A578
:106B3000E4BF9F33D4B8E8A2C9077834F910270F0F
:106B40008EA8099618980EE1BB0D6A7F2D3D6D0841
:106B5000976C6491015C63E6F4516B6B62616C1C31
:106B6000D83065854E103C62F2ED95066C7BA50130
:106B70001BC1F4088257C40FF5C6D9B06550E9B7F8
:106B800012EAB8BE8B7C88B9FCDF1DDD62492DDAC4
:106B900015F37CD38C654CD4FB5861B24DCE51B506
:106BA0003A7410B1BCA3E230BBD441A5DF4AD795FB
:106BB000D83D6DC4D1A4FBF4D6D36AE96943FCD9AE
:106BC0006E34468867ADD0B860DA732D0444E51D95
:106BD00003335F4C0AAAC97C0DDD3C710550AA4104
:106BE000022710100BBE86200CC925B56857B38547
:106BF0006F2009D466B99FE461CE0EF9DE5E98C9B4
:106C0000D9292298D0B0B4A8D7C7173DB359810D60
:106C1000B42E3B5CBDB7AD6CBAC02083B8EDB6B343
:106C2000BF9A0CE2B6039AD2B1743947D5EAAF776E
:106C3000D29D1526DB048316DC73120B63E3843BC1
:106C400064943E6A6D0DA85A6A7A0BCF0EE49DFFDC
:106C5000099327AE10E40AB19E077D44930FF0D24A
:106C6000A3088768F2011EFEC206695D5762F7CB72
:106C700067658071366C19E7066B6E761BD4FEE093
:106C80002BD3895A7ADA10CC4ADD676FDFB9F9F96C
:106C9000EFBE8E43BEB717D58EB060E8A3D6D67EC2
:106CA00093D1A1C4C2D83852F2DF4FF167BBD1678C
:106CB00057BCA6DD06B53F4B36B248DA2B0DD84C93
:106CC0001B0AAFF64A0336607A0441C3EF60DF5512
:106CD000DF67A8EF8E6E3179BE69468CB361CB1A3F
:106CE0008366BCA0D26F2536E2685295770CCC0340
:106CF000470BBBB91602222F260555BE3BBAC52845
:106D00000BBDB2925AB42B046AB35CA7FFD7C23151
:106D1000CFD0B58B9ED92C1DAEDE5BB0C2649B2656
:106D2000F263EC9CA36A750A936D02A906099C3F65
:106D3000360EEB85670772135700E21405824ABFCF
:106D400095147AB8E2AE2BB17B381BB60C9B8ED271
:106D5000920DBED5E5B7EFDC7C21DFDB0BD4D2D3BF
:106D60008642E2D4F1F8B3DD686E83DA1FCD16BE39
:106D7000815B26B9F6E177B06F7747B718E65A0816
:106D800088706A0FFFCA3B06665C0B0111FF9E65A7
:106D90008F69AE62F8D3FF6B6145CF6C1678E20A5B
:106DA000A0EED20DD75483044EC2B30339612667D7
:106DB000A7F71660D04D476949DB776E3E4A6AD126
:106DC000AEDC5AD6D9660BDF40F03BD83753AEBCA9
:106DD000A9C59EBBDE7FCFB247E9FFB5301CF2BD2F
:106DE000BD8AC2BACA3093B353A6A3B4240536D021
:106DF000BA9306D7CD2957DE54BF67D9232E7A66BA
:106E0000B3B84A61C4021B685D942B6F2A37BE0B6E
:106E1000B4A18E0CC31BDF055A8DEF022D000000BC
:0200000490006A
:1000000066293FF0CA86642900F0B480782900F0A0
:10001000ED80732900F00186002070472D4B196890
:100020000868B0E8F04F80F30988BFF36F8F4FF096
:10003000000080F311887047000000000848006845
:10004000006880F308884FF0000080F3148862B6DF
:1000500061B6BFF34F8FBFF36F8F00DF00BF00BFEC
:1000600008ED00E0DFF80C00016841F47001016068
:10007000704700BF88ED00E0EFF30980BFF36F8F9A
:10008000144B1A681EF0100F08BF20ED108A20E9EB
:10009000F04F106009B44FF0500072B680F3118831
:1000A000BFF34F8FBFF36F8F62B601F06DFA4FF061
:1000B000000080F3118809BC19680868B0E8F04FA7
:1000C0001EF0100F08BFB0EC108A80F30988BFF350
:1000D0006F8F7047BC000024EFF30580704700006D
:1000E0000FB4044910B503AA029800F09BFD10BCA0
:1000F0005DF814FB180000240FB41CB5074B06AACA
:100100007B4469460090059800F05DFD002069463B
:1001100000F06CFD1CBC5DF814FB0000E90A000057
:1001200070B50C460546012A05D02878800600D512
:10013000EA69002302E0012305E05B1C934202D23E
:10014000E05C0028F9D1A869E618C01AA861286AFD
:10015000184428622846AFF3008004E0D5E9012165
:1001600014F8010B9047B442F8D32846AFF300804F
:1001700070BD00002DE9F041064600241068752985
:10018000314616A510D0AFF30080002802DA4042B5
:1001900013A507E031688A0701D512A502E04907D7
:1001A00004D511A5012401E0AFF3008000210A224B
:1001B00006F1240709E0B0FBF2FCB0FBF2F302FB0E
:1001C0001C00303078541846491C0028F3D12346CF
:1001D0002A463046BDE8F04100F087BA0000000032
:1001E0002D0000002B0000002000000070B5044628
:1001F0000D4621461068AFF300802188090502D51D
:100200000F4A7A4402E00E4A7A440E32002104F189
:10021000240305E000F00F060009965D5E54491CBA
:100220000028F7D120780023000704D5702D02D0D4
:1002300009B1022311322046BDE8704000F055BAE2
:10024000843307002DE9F05F894604464FF0000A29
:10025000DFF874B1FB44C0F820A02046E16888476D
:10026000002874D0252806D0D4E901219047206ABF
:10027000401C2062F1E700265F462046E16888477F
:100280002028054607DB312D05D2781910F8200CFF
:1002900008B10643F1E7B00701D526F00406C4F81B
:1002A0001CA00027C4F818A02A2D09D0284604F065
:1002B0009AFD38B304EB8708303DC8F8185019E0B0
:1002C00059F8041B204604EB87029161E1688847D6
:1002D000012F054618D1E069002820DA26F0200613
:1002E0001DE0D8F8180000EB800005EB4000303826
:1002F000C8F818002046E1688847054604F073FDF9
:100300000028EED1012F0AD02E2D08D12046E16819
:1003100088477F1C0546022F46F02006C4DBA069F3
:10032000002803DA404246F00106A061F00701D040
:1003300026F010066C2D0BD0682D09D04C2D39D02D
:100340006A2D35D0742D35D07A2D33D016E038E0B3
:10035000E1682F4620468847B842054609D16C2FF0
:1003600026D04FF48060E168064320468847054662
:1003700004E06C2F1AD04FF4807006430DB3A5F142
:100380004100192802D8203546F400664A4629461D
:10039000204626604E46FFF733FE80B101280BD081
:1003A000F61D26F0070000F1080956E74020E4E7B3
:1003B0008020D8E70020D6E706F104094DE728465B
:1003C00052E7206ABDE8F09F5A33070040EA010374
:1003D00010B59B070FD1042A0DD310C808C9121FEE
:1003E0009C42F8D020BA19BA884201D9012010BD28
:1003F0004FF0FF3010BD1AB1D30703D0521C07E0F5
:10040000002010BD10F8013B11F8014B1B1B07D158
:1004100010F8013B11F8014B1B1B01D1921EF1D1C9
:10042000184610BD40EA0103024630B59B0710D1C3
:100430004FF0013400E008C208C91D1B9D4315EAB6
:10044000C41FF8D013F0FF0102F8011B0DD01B0AE6
:10045000F8E711F8013B002B02F8013B05D011F839
:10046000013B002B02F8013BF3D130BD10B5431C1A
:1004700002E010F8011B71B18107FAD14FF001328F
:1004800002C88C1A8C4314EAC211F9D0C01A0A06A9
:1004900003D0C01E10BDC01A10BD0A0401D0801EBA
:1004A00010BD0902FCD0401E10BD032A40F230806E
:1004B00010F0030C00F0158011F8013BBCF1020FA5
:1004C000624498BF11F801CB00F8013B38BF11F826
:1004D000013BA2F1040298BF00F801CB38BF00F83D
:1004E000013B11F0030300F02580083AC0F00880BA
:1004F00051F8043B083A51F804CBA0E80810F5E79E
:10050000121D5CBF51F8043B40F8043BAFF3008080
:10051000D20724BF11F8013B11F801CB48BF11F8F5
:10052000012B24BF00F8013B00F801CB48BF00F8C5
:10053000012B704710B5203AC0F00B80B1E818507D
:10054000203AA0E81850B1E81850A0E81850BFF4BD
:10055000F5AF5FEA027C24BFB1E81850A0E818505C
:1005600044BF18C918C0BDE810405FEA827C24BFB0
:1005700051F8043B40F8043B08BF7047D20728BF3E
:1005800031F8023B48BF11F8012B28BF20F8023B8D
:1005900048BF00F8012B704702F0FF0343EA032233
:1005A00042EA024200F052BB4FF0000200B513468F
:1005B00094469646203922BFA0E80C50A0E80C5083
:1005C000B1F12001BFF4F7AF090728BFA0E80C5034
:1005D00048BF0CC05DF804EB890028BF40F8042B2D
:1005E00008BF704748BF20F8022B11F0804F18BF9A
:1005F00000F8012B704700004FF0013C50F8042B2D
:1006000051F8043B9A4215D1A2EB0C03934313EA31
:10061000CC130BD150F8042B51F8043B9A4209D16A
:10062000A2EB0C03934313EACC13E7D04FF0000086
:10063000704700BFD01A01BAB1FA81F101F0180178
:1006400022FA01F0CB40C1F12001DBB2C0B2C01AE6
:100650002CFA01F3D11A914311EAC311E6D1704784
:1006600030B5B0F10A024FEA900E71F100034EEA84
:10067000817EB0EB0E0061EB91014FEA101E4EEA55
:10068000017E10EB0E0041EB11114FEA102E4EEAE5
:10069000016E10EB0E0041EB11214FEA104E4EEAB5
:1006A000014E10EB0E0041EB1141401841F10001E9
:1006B0004FEAD00040EA41704FEAD10110EB8005CB
:1006C0004FEA810444EA907444EB01046D1944EB51
:1006D0000404521BA3414FF0000348BF0A3200D567
:1006E00030BD401C41F1000130BD2DE9F0470D4601
:1006F00099469246044600F124080168880604D50C
:10070000E06921F01001216000E00120A84201DD34
:10071000471B00E00027A1697A1902EB0900081ABB
:10072000A0612078C00602D42046AFF300800026E6
:1007300008E0D4E901211AF806009047206A401C1D
:10074000761C20624E45F4DB2078C0060AD5204690
:10075000AFF3008006E0D4E9012130209047206A01
:10076000401C2062381EA7F10107F4DC07E0D4E941
:10077000012118F805009047206A401C2062281EBD
:10078000A5F10105F3DC2046AFF3008020780006D8
:1007900002D50220BDE8F0870120FBE770472DE974
:1007A000FF4F0C461E464FF0FF378BB0D2E90001D9
:1007B000DDF860800A908A46C1F30A5505B93D46C6
:1007C000002108464FF00000BAF1000F00F440008D
:1007D00005DA00EB80004FF4400101EA50004FEAD7
:1007E0009059B9F1010F00DDB9460A9850EA4A0064
:1007F0000ED044F61050A5F2FF3545432F14B8F142
:10080000000F1ED07542291E1EDDC9F100021CE03A
:10081000B8F1010F4FF0000001D0302103E0F243A6
:1008200005E02154401CB042FBDB30460022002191
:1008300021540B99C1F80880C1E900200FB0BDE830
:10084000F08FBD1B6D1CDEE74A4600DA694206A840
:1008500000F05CFA06AB93E8070003AB83E80700FF
:1008600050460A9900F0C8FA8DE80700A0F500503C
:100870001F3800900398002D0ADD42F21F014A46FE
:100880000844002303A90390684600F031FD09E005
:10089000A0F500504A461F38002303A9039068467C
:1008A00000F03BFD8DE807000004000C03D04FF082
:1008B000FF30410800E01046B8F1000F03D00022DD
:1008C000009215461EE0751E05D4FFF7C9FE3032B2
:1008D00062556D1EF9D5B3460122084302D00022AD
:1008E0007F1C04E02078302801D100227F1E002ADE
:1008F000099784D01DE0112D07DAFFF7B1FE3032E1
:1009000062556D1C50EA0102F5D1084302D00098EF
:10091000C8B10EE00021681E05E0235C625C6354F0
:100920002254401E491C8142F7DBAB46A81B401EE7
:100930000990002004F80B000B98099AC0F8088071
:10094000C0E9002B7AE711264FF0000857E72DE9A0
:10095000F04F88460446D21D22F0070191B0D1E93C
:100960000001CDE90A0104F008FA02460B98C00F15
:1009700001D02D2007E02068810701D52B2002E05F
:10098000202101EAC000032A099001D0072A05DBD3
:1009900003464146204600F079F90BE120788006B5
:1009A00001D5E06900E00620B8F1650F814606D068
:1009B000B8F1660F18D0B8F1670F70D131E00020A0
:1009C000B9F1110F009001DB112301E009F10103DE
:1009D0000AAA01A90CA8FFF7E2FEDDE90C700026C7
:1009E00009F10105834647E001204B4600904FF096
:1009F00000470AAA01A90CA8FFF7D1FEDDE90DB056
:100A00000C995D46002610B909F101000D18B9EBEB
:100A1000050003D4C0F1FF3609F10105A5EB09007B
:100A20002BE0B9F1010F01DA4FF001090020B9F113
:100A3000110F0090484601DD112300E003460AAA89
:100A400001A90CA8FFF7ABFEDDE90C704D460026AE
:100A50008346207800070AD4AB4500DA5D4601A83A
:100A6000012D04DD411911F8011C302907D04F4533
:100A700002DA17F1040F04DA012082460FE06D1E3E
:100A8000EEE7002F02DCED1B3E4403E0781CA84299
:100A900000DD7D1CB81B00F1010A4FF000472078F3
:100AA000000703D4AA4501DB4FF0FF3A0021B7F15C
:100AB000004F0DF143088DF8431024D002202B2362
:100AC000002F01DA7F422D230A21021EA0F101002E
:100AD00000DC5FB197FBF1FC97FBF1F201FB1C7CA2
:100AE00017460CF1300C08F801CDEEE7A8F1010033
:100AF00003702188090501D5452100E06521A0F199
:100B0000010800F8011C09980FA9A1EB0807FF1DB7
:100B100000B10120411901EBEA70A1693844081ABB
:100B2000401EA0612078C00602D42046AFF30080AA
:100B3000099828B1D4E901219047206A401C20621D
:100B40002078C00622D52046AFF300801EE0002E9C
:100B500004DBB34502DD01A8805D00E03020D4E96C
:100B600001219047206A401C2062761CAAF10100F6
:100B70005FEA000A0AD100F00CFDC0680168405C21
:100B8000D4E901219047206A401C2062281EA5F16B
:100B90000105DCDC07E0D4E9012118F8010B9047DE
:100BA000206A401C2062381EA7F10107F3DC2046B2
:100BB000AFF30080032011B041E6000001694A1C38
:100BC00002610878704700B58FB0CDE9013100218E
:100BD000059105497944CDE9031011466846FFF7B0
:100BE00031FB0FB000BD0000E5FFFFFF0A6802F80F
:100BF000010B0A60704710B5436913B1AFF3008071
:100C000001E0FFF78DFA012010BD127800F12401F8
:100C10000A7000224A700122EDE711684FF0FF329E
:100C2000E9E70000074B70B50D467B44FFF7CBFFAB
:100C30000446284600F0DCF810B14FF0FF3070BDDC
:100C4000204670BD6F4300784FF000020429C0F0C9
:100C5000128010F0030C3FF4A9ACCCF1040CBCF1F1
:100C6000020F18BF00F8012BA8BF20F8022BA1EB40
:100C70000C01FFF79BBC5FEAC17C24BF00F8012B8D
:100C800000F8012B48BF00F8012B70472DE9F04117
:100C90001F46044603260168072A01F4006004DBAE
:100CA00008B116A505E016A503E008B115A500E0FA
:100CB00015A521F010002060A069C01EA0610FB131
:100CC000401EA0612046AFF300804FB1D4E901215E
:100CD00038469047206A401C2062C01C206206E013
:100CE000206AFAE7D4E9012115F8010B9047761E36
:100CF000F8D22046AFF30080BDE8F0814E414E00AF
:100D00006E616E00494E4600696E66002DE9F0473F
:100D1000814616468AB0354878440DC88DE80D00E6
:100D200032487844801C03AC0DC884E80D0041F6BD
:100D30009B300844372190FBF1F290FBF1F5A5F1CF
:100D4000800501FB12041B3C02D56442012000E037
:100D50000020DFF898A080460027FA44AAF1BE0AD6
:100D60000EE0E0070AD03246684607EB4701012350
:100D70000AEB810100F0D1FA8DE8070064107F1CB6
:100D8000002CEED1194F7F44AE3F19E0E80715D093
:100D900007EB04100DF1180A90E80E008AE80E0027
:100DA000C068F04201D1981908903246012306A983
:100DB00003A800F0B2FA03AB83E807006D10641CCF
:100DC000002DE3D14FF0010332466946B8F1000F20
:100DD00003A802D000F08CFA01E000F09EFAC9E905
:100DE0000001C9F808200AB0BDE8F08724290700EF
:100DF000007B00F0800070475FEA400C08BF91F074
:100E0000000F4FEA8C234FEAC12243EA51514FEAC7
:100E10001C5018BF00F5F0404FEA300018BF41F0F9
:100E200000415FEA6C5C00F02980BCF1FF3F08BF25
:100E300040F080407047130C06BF12044FF0100CB6
:100E40004FF0000C130E04BF12020CF1080C130F2C
:100E500004BF12010CF1040C930F04BF92000CF1BB
:100E6000020CD30F04BF52000CF1010C11464FF0DD
:100E70000002A0F11F00A0EB0C00704711F0004F22
:100E800008BF704731F000413FF4D5AF0B0C06BFEF
:100E900009044FF0100C4FF0000C0B0E04BF0902B8
:100EA0000CF1080C0B0F04BF09010CF1040C8B0FA3
:100EB00004BF89000CF1020CCB0F04BF49000CF1F8
:100EC000010CCCF12003A0EB0C0022FA03F302FA90
:100ED0000CF241EA030100F10100704720F07F4C61
:100EE00080EA030023F07F47ACEB070303F57C5354
:100EF00000F0004003F1FF032DE980494FEA154B54
:100F000009B44FEA144325EA0B4E24EA03480FF2D2
:100F1000042606EB132749083E785FEA320203FBFA
:100F20000667C7F5000707FB06F64FEA54374FEA96
:100F3000D64606F1020607FB066CCCF1005C4FEAD0
:100F40001C472CEA074C07FB06F40CFB06F504EBE8
:100F500015464FEA961634BF00204FF000404FEA86
:100F6000D13706FB07FC4FEA1C4C0CFB0BF7D21BDE
:100F700003FB0CF761EB07010CFB0EF7B0EB07402E
:100F800072EB17420CFB08F734BFA2EB0742B2EB3F
:100F9000074261EB17414FEA0C444FEA910706FB09
:100FA00007FC4FEA1C4C0CFB0BF7B0EBC74072EB95
:100FB000573203FB0CF734BFA2EBC742B2EBC74278
:100FC00061EB57310CFB0EF7B0EBC70072EB5772B9
:100FD0000CFB08F734BFA2EBC702B2EBC70261EB10
:100FE0005771039F4FEA816141EA921104EBCC04EF
:100FF0004FEAD1374FEA826206FB07FC42EA9012C1
:101000004FEA80604FEA1C4C0CFB0BF7D21B03FB32
:101010000CF761EB07010CFB0EF7B0EB074072EB2E
:1010200017420CFB08F734BFA2EB0742B2EB0742B2
:1010300061EB17414FEA8C554FEA910704EB9C2472
:1010400006FB07FC4FEA1C4C0CFB0BF7B0EBC74050
:1010500072EB573203FB0CF734BFA2EBC742B2EB83
:10106000C74261EB57310CFB0EF7B0EBC70072EBD8
:1010700057720CFB08F734BFA2EBC702B2EBC702F2
:1010800061EB577115EB4C254FEA816141EA9211F2
:101090004FEA82624FEAD13742EA901206FB07FC20
:1010A00044F100044FEA80604FEA1C4C0CFB0BF744
:1010B000D21B03FB0CF761EB07010CFB0EF7B0EB47
:1010C000074072EB17420CFB08F734BFA2EB074254
:1010D000B2EB074261EB174115EB1C154FEA81316A
:1010E00041EA92414FEA823242EA90424FEA80302E
:1010F0004FEA0C7644F1000448EA03434EEA0B48F9
:101100004FF0000EB2EB080C71EB030724BF6246F0
:1011100039464EEB0E0E4FF0000B0018524149417C
:101120004BEB0B0BB2EB080C71EB03077BF1000BE5
:1011300024BF624639464EEB0E0E4FF0000B0018EE
:10114000524149414BEB0B0BB2EB080C71EB03071F
:101150007BF1000B24BF624639464EEB0E0E51EA7E
:10116000020718BF46F0010616EB0E7655F1000295
:1011700054F1000103D5BDE88901BDE80088BDE850
:101180008901BDE80048B619524141EB0101A3F1C4
:101190000103704780807F7E7D7C7B7A79787776CB
:1011A00076757473727171706F6E6E6D6C6C6B6A44
:1011B0006A696868676666656464636362616160E2
:1011C000605F5F5E5E5D5D5C5C5B5B5A5A5959585F
:1011D00058575756565555555454535352525251C9
:1011E000515050504F4F4F4E4E4D4D4D4C4C4C4B1F
:1011F0004B4B4A4A4A494949484848474747474666
:1012000046464545454444444443434343424242A1
:1012100042414141002B9C4630D477002BD01CB575
:101220004FEA370703B44FF010004FF01001BAF146
:10123000000F06D0BCF1000FDCBF40F0080040F00A
:1012400008014FF000000FBCBDE810400BF1010B8E
:10125000BBF1010F08BF5FEA170722BF12F10102BD
:1012600011F101014FF0004143F1000300F0004093
:1012700043EA00007047F9D35708D0E746EA06462C
:1012800013F1400F4FEA16461FDD13F1200FDFBFA9
:1012900016430A46002120335B42BED0C3F120072B
:1012A00046EA064602FA07F74FEA164646EA0706F6
:1012B000C3F1200722FA03F201FA07F721FA03F13A
:1012C0004FF0000342EA0702A7E746EA020646EAB1
:1012D00006464FEA164646EA0106BCBF46EA0646FF
:1012E000360C4FF000034FF000024FF0000194E77E
:1012F0002DE9804C9A46934670B491E8380007C8AF
:1013000031EA400C48BF34EA430C03D5FFF7E6FD51
:10131000FFF780FFF0BCBDE8008C2DE9804C9A46B9
:10132000934670B491E8380007C810F0804F08BFAA
:1013300013F0804F03D100F005F8FFF76BFFF0BC0E
:10134000BDE8008C20F07F4780EA030023F07F4C4B
:1013500007EB0C03A3F57C5300F00040A3F1FE0360
:1013600092F0000F00F0B38095F0000F00F077804E
:101370002DE901494FEA11404FEA144621EA00489D
:1013800000FB06FC24EA064708FB06F607FB08F804
:1013900000FB07F718EB06484CEB164C4FEA124BD4
:1013A00018EB07484FEA15464CEB174022EA0B4E64
:1013B0000BFB06FC25EA06470EFB06F607FB0EFEB6
:1013C0000BFB07F71EEB064E4CEB164C4FF00006DE
:1013D0001EEB074E4CEB174B18EB0B0840F10000CF
:1013E00018EB0E0B58EB000840F100008F1A4FF07D
:1013F00000013CBFC943661B14BFB5EB040C0021C0
:101400003CBFC943F61B4FEA17444EEA8E0E27EA4B
:1014100004454FEA1C4704FB07622CEA074C05FB16
:1014200007F70CFB05F604FB0CFC16EB074642EB3A
:10143000174216EB0C4642EB1C421BEB060658EB20
:101440000202414146EA9E0601D5BDE80189B6196E
:10145000524141EB0101A3F10103BDE801894FEACB
:1014600014454FEA114724EA054621EA074C05FBDB
:1014700007F406FB07F70CFB06F105FB0CFC11EB70
:10148000074144EB17444FEA124711EB0C4144EB80
:101490001C4422EA074C05FB07F206FB07F70CFB8E
:1014A00006F605FB0CFC16EB074642EB174216EB63
:1014B0000C4642EB1C456A1854F1000148BF7047C6
:1014C000B619524141EB0101A3F10103704795F0B8
:1014D000000F37D04FEA11424FEA144721EA024683
:1014E00024EA074C02FB07F106FB07F70CFB06F4A6
:1014F00002FB0CFC14EB074441EB17414FEA154784
:1015000014EB0C4441EB1C4125EA074C02FB07F5A8
:1015100006FB07F70CFB06F602FB0CFC16EB074676
:1015200045EB174516EB0C4645EB1C42121951F1E1
:10153000000148BF7047B619524141EB0101A3F1C8
:10154000010370474FEA14454FEA114724EA054664
:1015500021EA074C05FB07F106FB07F70CFB06F237
:101560004FF0000605FB0CFC12EB074241EB174164
:1015700012EB0C4251EB1C4148BF7047921841EBF3
:101580000101A3F10103704746F29D0CC0F6000C67
:10159000604740F2C14CC0F6000C604740F6F52CA5
:1015A000C0F6000C604740F60D5CC0F6000C6047CA
:1015B00040F23D7CC0F6000C604744F2B50CC0F62A
:1015C000000C604740F61F5CC0F6000C604744F614
:1015D0003D7CC0F6000C604740F6395CC0F6000C5C
:1015E000604744F2751CC0F6000C604741F2154C90
:1015F000C0F6000C604741F2696CC0F6000C604711
:1016000041F6990CC0F6000C604740F2CB3CC0F6A6
:10161000000C604742F6AD4CC0F6000C604742F645
:10162000D14CC0F6000C604744F6557CC0F6000C67
:10163000604740F6FD4CC0F6000C604745F26D1C5B
:10164000C0F6000C604745F2411CC0F6000C604734
:1016500045F2891CC0F6000C604740F6D52CC0F658
:10166000000C604743F65B1CC0F6000C604745F673
:10167000095CC0F6000C604746F2A12CC0F6000CD5
:10168000604746F2212CC0F6000C604745F6C57C49
:10169000C0F6000C604740F6716CC0F6000C604765
:1016A00040F6156CC0F6000C604740F69D6CC0F625
:1016B000000C604746F2954CC0F6000C604746F2BD
:1016C000A55CC0F6000C604746F28D0CC0F6000C1D
:1016D000604746F2F16CC0F6000C604745F6C96CF5
:1016E000C0F6000C604743F63D2CC0F6000C604786
:1016F00043F6351CC0F6000C604745F6891CC0F661
:10170000000C604743F6993CC0F6000C604745F674
:101710008D1CC0F6000C604743F6F55CC0F6000C6B
:10172000604745F68D5CC0F6000C604745F6397C95
:10173000C0F6000C604746F2AD2CC0F6000C6047C6
:1017400046F2812CC0F6000C604745F6B16CC0F63D
:10175000000C604746F2551CC0F6000C604745F689
:10176000D56CC0F6000C60472DE9FF4FABB0814649
:101770008A461646389D05A92E980DAB15AACDE9C7
:101780000016CDE902051DA924A800F0A7F8082D30
:1017900048D3002443E0EB08002139E0002031E089
:1017A0000DF1140858F824800DF1900B5BF824B06B
:1017B00001FB0B0B0BFB0387DFF8108158F824802B
:1017C000DFF80CB15BF824B001FB0B88DFF804B143
:1017D0005BF824B008FB06B8DFF8FCB05BF824B077
:1017E00000FB0B8808FB03FC002208E007EB020863
:1017F0001AF808800CEB020B09F80B80521C9A4275
:10180000F4D3401C24AF57F824708742C8D8491C31
:101810001DAF57F824708F42C0D8601C0446072CB7
:10182000B9D150E000244CE024A850F824006843CB
:10183000049005FB06F003904FF000083BE0002702
:1018400032E0049808FB00F007FB050005A951F8F9
:101850002410082202FB010001901C4850F82400CB
:101860001B4951F8241008FB01000399484319490A
:1018700051F82410184A52F8242007FB021101FBEA
:10188000050002904FF0000B0BE0514601A836F026
:101890002BFF0090494602A8009A38F07FFD0BF11B
:1018A000010BAB45F1D37F1C24A850F82400B842AB
:1018B000C7D808F101081DA850F824004045BED83B
:1018C000641C072CB0D12FB0BDE8F08F288904909C
:1018D000608904900C890490448904902DE9F047B4
:1018E0000446DDE9097C0B9E089D00203CE0DFF802
:1018F000288158F82080B844DFF8209159F82090CA
:10190000A8EB0908A8F10108DFF80C9159F820901C
:10191000B8FBF9F844F82080DFF8048158F82080FB
:10192000E044DFF8009159F82090A8EB0908A8F1ED
:101930000108DFF8EC9059F82090B8FBF9F841F86D
:10194000208054F82080B8F1000F03D14FF0000838
:1019500041F8208051F82080B8F1000F03D14FF0FA
:10196000000844F82080401C0728C0D14FF0000830
:10197000C5F80080C3F80080C2F80080002046E06F
:1019800054F82080B8F1000F13D051F82080B8F13E
:10199000000F0ED051F8209054F8208008FB06F874
:1019A00008F107084FF0010A0AEBD80809FB08F80C
:1019B00001E04FF0000852F82090C14400F1010806
:1019C00042F8289053F8209051F820A054F8208035
:1019D00008FB06F808F107084FEAD8080AFB08993F
:1019E00000F1010843F8289051F8208054F8209025
:1019F00008FB09F808FB06F808F1070855F82090DD
:101A000009EBD80900F1010845F82890401C072887
:101A1000B6D1BDE8F0870000448904900C89049099
:101A2000608904902889049070B50446B3F5804F0E
:101A300013D1D1E9000540EA05108D6840EA052080
:101A40008D6928438D8940EA054054F82250064E9E
:101A50003540284344F8220003E06FF0704044F81A
:101A60002200002070BD00000000F0CF30B502461B
:101A7000086852F8200020F001000C6842F82400A9
:101A80008868082801D1402300E0002348681843F3
:101A90008C682043CC6820430C6920434C69204368
:101AA0008C692043CC6920430C6A20434C6A204354
:101AB0008C6A2043CC6A20430C6B20434C6B204340
:101AC0008C6B20430C6852F824400D4D2C40204371
:101AD0000C6842F82400086BB0F5801F07D1086835
:101AE00028B1106820F480100C6B20431060086847
:101AF00018B110684C6B20431060002030BD00000E
:101B00008004C0FF30B50346D1E9000540EA051066
:101B10008D6840EA05208D8940EA0545088A401E07
:101B200045EA0055087D801E45EA00608D6928431E
:101B3000551C53F8255005F040452843551C43F8E3
:101B40002500186800F48010B0F5801F0BD158688C
:101B500020F47004088A401E44EA0054586820F4B7
:101B6000700020435860002030BD000010B586B0E2
:101B7000044600BF4E48006840F480304C4908607D
:101B80000846006800F48030009000BF00BF00BF2E
:101B900000BF47480C30006840F0040044490C3155
:101BA00008600846006800F00400009000BF00BF15
:101BB00000BF00BF00BF0846006840F00400086096
:101BC0000846006800F00400009000BF00BF00BF9E
:101BD00000BF00BF0846006840F0040008600846E7
:101BE000006800F00400009000BF00BF00BF00BF0D
:101BF00000BF0846006840F004000860084600681E
:101C000000F00400009000BF00BF00BF00BF00BF95
:101C10000846006840F0040008600846006800F0CC
:101C20000400009000BF00BF00BF00BF00BF084617
:101C3000006840F0080008600846006800F00800EE
:101C4000009000BF00BF00BF4FF4807001900220E1
:101C5000029001200390032004900C20059001A91C
:101C60001448FFF79BFC4FF40070019001A9114844
:101C7000FFF794FC4FF48060019001A90D48FFF735
:101C80008DFC4FF40060019001A90A48FFF786FC23
:101C90004FF48050019001A90648FFF77FFC042013
:101CA000019001A90448FFF779FC06B010BD0000BF
:101CB000D444025800080258000C025870B504467B
:101CC0000E4615460CB9012070BD94F8450028B9A0
:101CD000002084F84400204600F028F804F10801B0
:101CE0002068FFF7C3FE3146A2682068FFF70AFFAD
:101CF0002946E36AD4E90102FFF796FEA16820684D
:101D000050F8210040F00100A268216841F822004B
:101D10000548006840F0004003490860012084F84D
:101D200045000020D0E700000040005210B586B00A
:101D3000044600BF2048006840F480501E490860F7
:101D40000846006800F48050009000BF00BF00BF4C
:101D500019480C30006840F0080017490C31086041
:101D60000846006800F00800009000BF00BF00BFF8
:101D70000846006840F0100008600846006800F05F
:101D80001000009000BF00BF4CF2037001900220D1
:101D9000029001200390032004900C20059001A9DB
:101DA0000648FFF7FBFB4FF68070019001A904483D
:101DB000FFF7F4FB06B010BDD4440258000C0258E3
:101DC00000100258704770477047704710B50446BE
:101DD00020680069C0F34000D8B12068C068C0F333
:101DE0004000B0B16FF00200216808610120207747
:101DF0002068806900F0030018B12046FFF7E5FF76
:101E000005E0204600F0BEF8204600F0BCF80020B7
:101E1000207720680069C0F38000D8B12068C068CE
:101E2000C0F38000B0B16FF00400216808610220A7
:101E300020772068806900F4407018B12046FFF7D1
:101E4000C4FF05E0204600F09DF8204600F09BF816
:101E50000020207720680069C0F3C000D8B1206856
:101E6000C068C0F3C000B0B16FF00800216808611D
:101E7000042020772068C06900F0030018B12046D4
:101E8000FFF7A3FF05E0204600F07CF8204600F0B5
:101E90007AF80020207720680069C0F30010D8B1DC
:101EA0002068C068C0F30010B0B16FF01000216866
:101EB0000861082020772068C06900F4407018B1DC
:101EC0002046FFF782FF05E0204600F05BF8204641
:101ED00000F059F8002020772068006900F0010028
:101EE00058B12068C06800F0010030B16FF0010007
:101EF00021680861204600F047F820680069C0F3B7
:101F0000C01058B12068C068C0F3C01030B16FF085
:101F10008000216808612046FFF755FF20680069AE
:101F2000C0F3002058B12068C068C0F3C01030B1C1
:101F30006FF48070216808612046FFF743FF206836
:101F40000069C0F3801058B12068C068C0F38010E9
:101F500030B16FF0400021680861204600F024F89D
:101F600020680069C0F3401058B12068C068C0F311
:101F7000401030B16FF02000216808612046FFF763
:101F800023FF10BD7047704710B5044604488442D3
:101F900005D100BF40210348FFF705FB00BF10BD7E
:101FA000F4080024001002587047704770477047CB
:101FB00070470146D1F88030D1F8842043EA02000E
:101FC000704700002DE9F04704462068C569206885
:101FD00006682068876840F60F0005EA0008B8F137
:101FE000000F0FD105F0200060B106F0200010B9FD
:101FF00007F0805030B1E06E10B12046E16E8847A6
:10200000BDE8F087B8F1000F7ED06E48384018B9AF
:102010006D4830400028F7D005F0010058B106F4B3
:10202000807040B1012021680862D4F8880040F037
:102030000100C4F8880005F0020058B107F0010063
:1020400040B1022021680862D4F8880040F0040002
:10205000C4F8880005F0040058B107F0010040B151
:10206000042021680862D4F8880040F00200C4F817
:10207000880005F0080070B106F0200010B9514842
:10208000384040B1082021680862D4F8880040F048
:102090000800C4F8880005F4006060B106F08060B4
:1020A00048B14FF4006021680862D4F8880040F01D
:1020B0002000C4F88800D4F88800002844D005F037
:1020C000200050B106F0200010B907F0805020B178
:1020D000E06E10B12046E16E8847D4F88890206801
:1020E000806800F04000402802D009F0280028B3A2
:1020F000204601F023F92068806800F04000402865
:1021000018D12068806800E01FE020F040002168BE
:102110008860A06F50B12D48A16F0865A06FFFF7D0
:1021200047FA88B1A06F016D88470DE02046FFF7A0
:102130003FFF09E02046FFF73BFF05E02046FFF7A1
:1021400037FF0020C4F888005AE705F4801050B12A
:1021500007F4800038B14FF48010216808622046EF
:10216000FFF725FF4CE705F0800058B106F080002E
:1021700010B907F4000028B1206F10B12046216F7C
:1021800088473DE705F0400030B106F0400018B147
:10219000204601F0E7F833E705F4000030B106F01F
:1021A000804018B12046FFF701FF29E705F0807055
:1021B00030B106F0004018B12046FFF7F6FE1FE7E9
:1021C00000BF1DE70100001020010004253300902E
:1021D00010B504460CB9012010BDA06900B100E0A3
:1021E00000BFD4F8800028B9002084F87C00204685
:1021F000FFF7E3F92420C4F880002068006820F08D
:10220000010021680860204601F0E0F9012800D1B2
:10221000E2E7A06A10B1204600F0CEFF20684068D7
:1022200020F49040216848602068806820F02A00EF
:10223000216888602068006840F00100216808601B
:10224000204601F035F8C7E710B50346D3F88400FF
:10225000202874D101B10AB9012010BD00BF93F844
:102260007C00012801D10220F7E7012083F87C00DF
:1022700000BF9965A3F85C20A3F85E200020D86613
:1022800000BF9868B0F5805F0AD1186920B940F2A4
:10229000FF10A3F8600020E0FF20A3F860001CE01E
:1022A000986848B9186918B9FF20A3F8600014E0CD
:1022B0007F20A3F8600010E09868B0F1805F09D13A
:1022C000186918B97F20A3F8600006E03F20A3F842
:1022D000600002E00020A3F8600000BF0020C3F807
:1022E00088002220C3F884001868806840F001004C
:1022F0001C68A060586EB0F1005F21D1B3F868008F
:1023000090421DDC9868B0F5805F04D1186910B95F
:102310001848D86601E01848D86600BF002083F846
:102320007C0000BF1868006840F480701C68206062
:102330001868806840F080501C68A06016E017E0C4
:102340009868B0F5805F04D1186910B90B48D86659
:1023500001E00B48D86600BF002083F87C0000BF76
:102360001868006840F490701C682060002074E7D2
:10237000022072E7F93300901935009087330090FE
:10238000AD340090704710B5044620681DF0A2FEE1
:1023900060681DF09FFE20691DF09CFE60691DF0C5
:1023A00099FE10BD002101604160016141617047EB
:1023B0002DE9F04104460F4616469846B0001EF03F
:1023C00036F86060606810B95320BDE8F0810025E0
:1023D00005E057F82500616841F825006D1CB542FD
:1023E000F7D1E660C4F80880204600F001F8ECE779
:1023F0002DE9F04704464FF00009E16888001EF01F
:1024000016F82060A168491C88001EF010F880466C
:10241000A168491C88001EF00AF80746206818B118
:10242000B8F1000F00D00FB94FF05309B9F1000F08
:1024300055D1002505E0002047F8250048F8250083
:102440006D1CA068401CA842F5D100260BE0606816
:1024500050F8260058F82000401C616851F82610FA
:1024600048F82100761CE068B042F0D1012609E06E
:10247000701E57F8201058F820000844400047F814
:102480002600761CA068B042F2D2002524E06068E5
:1024900050F82500F8B1606850F8250057F8200082
:1024A000216841F82500606850F8250057F82000A1
:1024B000401C616851F8251047F82100206850F849
:1024C0002510606810F8252001209040401E014032
:1024D000206840F825106D1CE068A842D7D140461E
:1024E0001DF0F8FD38461DF0F5FDB9F1000F03D1E0
:1024F000204600F004F881464846BDE8F0872DE903
:10250000F04F85B005464FF400601DF090FF804607
:10251000B8F1000F03D1532005B0BDE8F08F4FF4A0
:102520000062002140461DF092FF00241FE0286851
:1025300050F824000490686850F824B0BBF1090FEB
:1025400000D813E0ABF10902049921FA02F0092145
:1025500037F085F9064658F82600584502D958F84C
:10256000260000E0584648F8260000BF641CE868D2
:10257000A042DCD84FF40077002409E058F824008A
:10258000092804D9A0F1090101228A401744641CDA
:10259000B4F5007FF2D338461DF049FF286178007A
:1025A0001DF045FF6861286908B1686920B9404697
:1025B0001DF090FD5320AFE7002403E010202969AF
:1025C0000855641CBC42F9D34FF4007A002410E093
:1025D00058F82400092800D80AE02A6910556A69C9
:1025E00022F814A0A0F1090101228A40924400BF00
:1025F000641CB4F5007FEBD340461DF06BFD4FF03B
:102600000009002468E0686850F82460286850F8E1
:10261000240004903146049837F021F9834606B926
:1026200059E009F10109092E1CD8C6F1090201205F
:1026300000FA02F3002112E001FA06F040EA0B0270
:102640002869805C102801D0372065E7D5F810C0D4
:102650000CF80260D5F814C02CF81240491C9942BD
:10266000EAD337E0CBF308022869835CA3F10900C1
:102670000390686930F812000290A6F10900DDF8B5
:102680000CC0ACEB000C012000FA0CF00190B3423E
:1026900001D2372040E7002118E04FEA5B2CCDF84B
:1026A00000C0A6F1090C01FA0CFCDDF800E04CEAD0
:1026B0000E0CDDF808E00CEB0E00D5F810E00EF87B
:1026C0000060D5F814E02EF81040491C01988142B2
:1026D000E3D300BF00BF641CE868A04293D8B9F1FF
:1026E000020F16D2002411E02869005D10280CD1D9
:1026F000B4F5007F01D2012000E00A2029690855C5
:102700004FF6FF70696921F81400641CBC42EBD3DA
:102710000AE0002406E02869005D102801D1372076
:10272000FAE6641CBC42F6D30020F5E6F8B5044690
:102730000E4615462660656004F108020821284609
:102740001DF08EFE08B16920F8BD6A464021A068E0
:102750001DF029F908B16920F6E70020E06020614A
:1027600000BFF1E770B50446002514E0E16C01EB11
:10277000850038F02AF9216D01EB850038F025F944
:10278000616D01EB850038F020F9A16D01EB85004A
:1027900038F01BF96D1CA06CA842E7D1E06C1DF06D
:1027A00099FC206D1DF096FC606D1DF093FCA06DF2
:1027B0001DF090FC70BD00218164C164016541651C
:1027C0008165704770B5044600250AE0216C01EB75
:1027D000850038F0FAF8616C01EB850038F0F5F807
:1027E0006D1CE06BA842F1D1206C1DF073FC606C95
:1027F0001DF070FC70BD0021C1630164416470472D
:1028000070B50546002406E005F1CC0151F824001E
:102810001DF060FC641C032CF6D170BD0146002045
:1028200005E0002301F1CC0242F82030401C0328CF
:10283000F7D1002005E0002301F1D80242F8203052
:10284000401C0328F7D1704700BF002240211848E0
:10285000FEF7B8FE00BF17A0FDF742FC4FF47A70F8
:10286000FEF7B5FE19A0FDF73BFC4FF47A70FEF7BA
:10287000AEFE00BF00BF00BF00BF00BFBFF34F8F61
:1028800000BF00BF00BF1648006800F4E0601549B3
:102890000843001D1249086000BF00BF00BFBFF31E
:1028A0004F8F00BF00BF00BF00BF00BFFDE70000AB
:1028B000001002584D656D204163636573732045B8
:1028C00072726F7221210D0A00000000536F66744E
:1028D000205265736574696E672E2E2E0D0A0000F6
:1028E0000CED00E00000FA0570B586B005460C4618
:1028F0000194372002904FF48070039000200490E0
:102900004FF48050059001A9284600F031FC41F2B7
:1029100088323721284600F027FA0646304606B0AE
:1029200070BD70B586B005460C4601942920029012
:102930004FF480700390002004904FF48050059075
:1029400001A9284600F014FC284600F019FB0646B1
:10295000304606B070BD70B586B005460C46019491
:102960001020029000010390002004904FF480504A
:10297000059001A9284600F0FBFB41F288321021A6
:10298000284600F0F1F90646304606B070BD70B535
:1029900086B005460C460194062002904FF48070E4
:1029A0000390002004904FF48050059001A9284620
:1029B00000F0DEFB41F288320621284600F0D4F90F
:1029C0000646304606B070BD30B585B004460020DE
:1029D00000900190029003904FF48050049069465B
:1029E000204600F0C5FB204600F09CF9054628462D
:1029F00005B030BD30B585B004464FF4D5700090B9
:102A00000820019040010290002003904FF4805074
:102A100004906946204600F0ABFB204600F03CFBEA
:102A20000546284605B030BD70B586B005460C4653
:102A30000194122002904FF48070039000200490C3
:102A40004FF48050059001A9284600F091FB41F217
:102A500088321221284600F087F90646304606B033
:102A600070BD70B586B005460C46019411200290E9
:102A70004FF480700390002004904FF48050059034
:102A800001A9284600F074FB41F288321121284642
:102A900000F06AF90646304606B070BDF0B585B064
:102AA000064614461D460094072001904FF480709E
:102AB0000290002003904FF4805004906946304605
:102AC00000F056FB41F288320721304600F04CF905
:102AD0000746384605B0F0BD30B585B00446002045
:102AE0000090022001904FF440700290002003906B
:102AF0004FF4805004906946204600F039FB204690
:102B000000F00AFA0546284605B030BD70B586B01B
:102B100005460C460194092002904FF44070039042
:102B2000002004904FF48050059001A9284600F041
:102B30001FFB284600F0F0F90646304606B070BD8F
:102B400030B585B0044600200090332001904FF44A
:102B500080700290002003904FF4805004906946EA
:102B6000204600F005FB41F288323321204600F078
:102B7000FBF80546284605B030BD70B586B0054661
:102B80000C4601940D2002904FF4807003900020B9
:102B900004904FF48050059001A9284600F0E8FA0F
:102BA00041F288320D21284600F0DEF80646304614
:102BB00006B070BD70B586B005460C460020019089
:102BC000032002904FF480700390002004904FF493
:102BD0008050059001A9284600F0CAFA2246032138
:102BE000284600F0FBF90646304606B070BD30B509
:102BF00085B00446002000900D2001904FF48070B5
:102C00000290002003904FF48050049069462046C3
:102C100000F0AEFA41F288320D21204600F0A4F80F
:102C20000546284605B030BD30B585B004460020C5
:102C300000900C2001904FF48070029000200390CF
:102C40004FF480500490E06840F08000E060E0685D
:102C500020F04000E0606946204600F089FA084A0A
:102C60000C21204600F080F80546E06820F0800046
:102C7000E060B5F1007F00D10025284605B030BDE9
:102C800000E1F50570B586B005460C4601941920A3
:102C900002904FF480700390002004904FF4805015
:102CA000059001A9284600F063FA41F28832192103
:102CB000284600F059F80646304606B070BD70B59B
:102CC00086B005460C460194182002904FF480709F
:102CD0000390002004904FF48050059001A92846ED
:102CE00000F046FA41F288321821284600F03CF8FC
:102CF0000646304606B070BD10B50246002308688F
:102D0000506248689062D1E9020420430C69204374
:102D10004C6920430343D06A20F0FF001843D0627F
:102D2000002010BD01460E480068C0084FF47A73B9
:102D3000B0FBF3F041F2883300FB03F200BF101E3A
:102D4000A2F1010202D14FF000407047486B00F041
:102D500080000028F3D0034888630020F5E70000D6
:102D600000000024C50020002DE9F04305460F4671
:102D7000904666480068C0084FF47A71B0FBF1F0E5
:102D800000FB08F900BFB9F10000A9F1010903D166
:102D90004FF00040BDE8F0836E6B5D483040002886
:102DA000F1D006F400500028EDD1686B00F004006B
:102DB00010B10420A863EDE7686B00F0010010B1CA
:102DC0000120A863E6E752488030A863284600F057
:102DD00099F9B84201D00120DCE70021284600F033
:102DE0009AF904464B48204008B90020D2E704F085
:102DF0000040B0F1004F02D14FF00070CAE704F07C
:102E00008040B0F1804F01D14020C3E704F0005072
:102E1000B0F1005F01D18020BCE704F08050B0F138
:102E2000805F02D14FF48070B4E704F00060B0F12D
:102E3000006F02D14FF40070ACE704F08060B0F195
:102E4000806F02D14FF48060A4E704F08070B0F18D
:102E5000807F02D14FF400609CE704F40000B0F5DD
:102E6000000F02D14FF4805094E704F48000B0F5D5
:102E7000800F02D14FF400508CE704F40010B0F53D
:102E8000001F02D14FF4804084E704F48010B0F5B5
:102E9000801F02D14FF400407CE704F48020B0F59D
:102EA000802F02D14FF4003074E704F40030B0F505
:102EB000003F02D14FF480206CE704F48030B0F57D
:102EC000803F02D14FF4002064E704F40040B0F5E5
:102ED000004F02D14FF480105CE704F48040B0F55D
:102EE000804F02D14FF4001054E704F40050B0F5C5
:102EF000005F02D14FF480004CE704F0080008287E
:102F000001D1000546E74FF4803043E7000000247C
:102F10004500200008E0FFFD10B501461648006896
:102F2000C0084FF47A74B0FBF4F041F2883400FB2F
:102F300004F300BF181EA3F1010302D14FF00040BB
:102F400010BD4A6B02F045000028F3D002F4005097
:102F50000028EFD1486B00F0040010B10420886312
:102F6000EEE7486B00F0010010B101208863E7E74D
:102F7000024888630020E3E700000024C500200029
:102F800010B5014613480068C0084FF47A74B0FBCE
:102F9000F4F041F2883400FB04F300BF181EA3F1E3
:102FA000010302D14FF0004010BD4A6B02F0450012
:102FB0000028F3D002F400500028EFD1486B00F055
:102FC000040010B104208863EEE703488863002002
:102FD000EAE7000000000024C50020002DE9F043CE
:102FE00004460F4690462A480068C0084FF47A719C
:102FF000B0FBF1F041F2883100FB01F900BFB9F1FB
:103000000000A9F1010903D14FF00040BDE8F083B1
:10301000666B06F045000028F1D006F40050002849
:10302000EDD1606B00F0040010B10420A063EDE767
:10303000606B00F0010010B10120A063E6E72046BC
:1030400000F060F8B84201D00120DFE71148A0632A
:103050000021204600F05FF8054605F4604020B9E5
:10306000280CA8F800000020D0E705F48040B0F557
:10307000804F02D14FF40050C8E705F40040B0F58E
:10308000004F02D14FF48050C0E74FF48030BDE7CD
:1030900000000024C500200010B501461848006853
:1030A000C0084FF47A74B0FBF4F041F2883400FBAE
:1030B00004F300BF181EA3F1010302D14FF000403A
:1030C00010BD4A6B02F045000028F3D002F4005016
:1030D0000028EFD1486B00F0040010B10420886391
:1030E000EEE7486B00F0010010B101208863E7E7CC
:1030F000486B00F0400008B1402088630020DFE703
:103100000000002401460869C0B270470146086803
:1031100000F003007047024602F1140043181868DB
:10312000704700000FB410B504460021DDE903022A
:103130001043059A1043069A1043079A104301431F
:103140006068044A104008436060002010BC5DF8CD
:1031500014FB0000002CC0FF0146086840F003008B
:103160000860002070470146D1F8800070470000D9
:1031700010B50246002308689060D1E9010420439D
:10318000CC6820430C6920430343D068024C2040A4
:103190001843D060002010BDC0E0FEFF0246086862
:1031A000C2F880000020704710B50248FEF70EFEFE
:1031B00010BD0000F408002490F8281001F001016F
:1031C00039B10168496821F40031C26A11430268CB
:1031D000516090F8281001F00201022907D101681E
:1031E000496821F48031026B11430268516090F804
:1031F000281001F00401042907D10168496821F46D
:103200008021426B11430268516090F8281001F050
:103210000801082907D10168496821F40041826B3F
:1032200011430268516090F8281001F01001102934
:1032300007D10168896821F48051C26B114302688B
:10324000916090F8281001F02001202907D1016831
:10325000896821F40051026C11430268916090F872
:10326000281001F04001402913D10168496821F478
:103270008011426C114302685160416CB1F5801FAE
:1032800007D10168496821F4C001826C11430268CA
:10329000516090F8281001F08001802907D1016861
:1032A000496821F40021C26C1143026851607047E3
:1032B00038B504460020C4F88800FEF78DF90546AD
:1032C0002068006800F0080008280CD16FF07E40EC
:1032D0002B4600224FF400110090204601F0EEFC36
:1032E00008B1032038BD2068006800F004000428FD
:1032F0000CD16FF07E402B4600224FF480010090ED
:10330000204601F0DBFC08B10320EBE72020C4F8E5
:103310008000C4F8840000BF002084F87C0000BF57
:1033200000BFDFE770B50546AC6B0020A4F85E0077
:10333000A4F856002046FEF73BFE70BD0168096800
:1033400021F490710268116001688968044A114093
:10335000026891602021C0F884100021C166704786
:10336000FEFFFFEF10B504462068006820F0400023
:10337000216808602020C4F88000002020672046D3
:10338000FFF700F810BD2DE9F0410446B4F8607075
:10339000D4F88400222826D12068406A86B2A56D20
:1033A00006EA07002880A06D801CA065B4F85E00C6
:1033B000401EA4F85E00B4F85E00D0B92068006832
:1033C00020F49070216808602068806820F0010077
:1033D000216888602020C4F884000020E066204630
:1033E000FEF7FFF805E02068806940F008002168DA
:1033F0008861BDE8F08100002DE9F0470446B4F88B
:103400006090D4F88400222843D1B4F8685028E0B2
:103410002068406A1FFA80F8A76D08EA0900388022
:10342000A06D801CA065B4F85E00401EA4F85E008C
:10343000B4F85E0098B92068006820F480702168B4
:10344000086020688068174908402168886020204B
:10345000C4F884000020E0662046FEF7C2F8681E2B
:1034600085B2002DD4D1B4F85E60C6B1B4F868005E
:10347000B04214DD2068806820F0805021688860A8
:103480000948E0662068006840F020002168086074
:1034900005E02068806940F0080021688861BDE887
:1034A000F0870000FEFFFFEF8733009070B5044601
:1034B000B4F86060D4F88400222826D12068406ADD
:1034C00085B2F0B22840A16D0870A06D401CA065C7
:1034D000B4F85E00401EA4F85E00B4F85E00D0B9F7
:1034E0002068006820F49070216808602068806877
:1034F00020F00100216888602020C4F884000020AA
:10350000E0662046FEF76DF805E02068806940F02F
:1035100008002168886170BD2DE9F0410446B4F8C7
:103520006080D4F88400222843D1B4F8685028E0A1
:103530002068406A87B208F0FF003840A16D08702B
:10354000A06D401CA065B4F85E00401EA4F85E00AB
:10355000B4F85E0098B92068006820F48070216893
:10356000086020688068174908402168886020202A
:10357000C4F884000020E0662046FEF732F8681E9A
:1035800085B2002DD4D1B4F85E60C6B1B4F868003D
:10359000B04214DD2068806820F080502168886087
:1035A0000948E0662068006840F020002168086053
:1035B00005E02068806940F0080021688861BDE866
:1035C000F0810000FEFFFFEFAD3400902DE9F04FD9
:1035D00089B004464FF00009002007908346F9495E
:1035E0002068884200D100E000BF2169A06808433C
:1035F00061690843E16940EA010A606E40EA0A0A2B
:1036000020680068F049084040EA0A002168086024
:103610002068406820F44050E16808432168486011
:10362000D4F818A0E7492068884202D0206A40EA0E
:103630000A0A20688068E549084040EA0A002168D3
:1036400088602068C06A20F00F00616A0843216822
:10365000C86200BFDE492068884220D1DD4800688A
:1036600000F03800182811D005DC48B1082809D02E
:10367000102811D108E020280AD028280CD109E010
:1036800001250BE0042509E0082507E0102505E0E9
:10369000202503E0402501E0802500BFF8E0CE4969
:1036A0002068884219D1CB48006800F0070006283E
:1036B00010D2DFE800F0030507090B0D00250BE031
:1036C000042509E0082507E0102505E0202503E092
:1036D000402501E0802500BFDAE0C049206888422B
:1036E00019D1BC48006800F00700062810D2DFE8B6
:1036F00000F0030507090B0D00250BE0042509E088
:10370000082507E0102505E0202503E0402501E01D
:10371000802500BFBCE0B2492068884219D1AD487D
:10372000006800F00700062810D2DFE800F003056B
:1037300007090B0D00250BE0042509E0082507E02B
:10374000102505E0202503E0402501E0802500BF8D
:103750009EE0A4492068884219D19E48006800F084
:103760000700062810D2DFE800F0030507090B0D5B
:1037700000250BE0042509E0082507E0102505E0F9
:10378000202503E0402501E0802500BF80E0964928
:103790002068884220D18F48006800F0380018283F
:1037A00011D005DC48B1082809D0102811D108E053
:1037B00020280AD028280CD109E001250BE0042597
:1037C00009E0082507E0102505E0202503E0402555
:1037D00001E0802500BF5BE084492068884219D160
:1037E0007C48006800F00700062810D2DFE800F0EF
:1037F000030507090B0D00250BE0042509E008254A
:1038000007E0102505E0202503E0402501E08025A4
:1038100000BF3DE076492068884219D16D480068B4
:1038200000F00700062810D2DFE800F003050709C2
:103830000B0D00250BE0042509E0082507E0102505
:1038400005E0202503E0402501E0802500BF1FE0C2
:103850005C49206888421AD15E48001D006800F06B
:103860000700062810D2DFE800F0030507090B0D5A
:1038700002250BE0042509E0082507E0102505E0F6
:10388000202503E0402501E0802500BF00E08025E1
:1038900000BF4C492068884271D1102D70D006DCE1
:1038A000022D09D0042D49D0082D6AD1A6E0202D83
:1038B00068D0402DF9D1B3E1FDF798FE616A09B9EE
:1038C000012138E0616A012901D1022133E0616AF6
:1038D000022901D104212EE0616A032901D10621C8
:1038E00029E0616A042901D1082124E0616A0529DF
:1038F00001D10A211FE0616A062901D10C211AE0D9
:10390000616A072901D1102115E0616A082901D1F6
:10391000202110E0616A092901D140210BE0616A90
:103920000A2901D1802106E0616A0B2902D14FF4F6
:10393000807100E00121B0FBF1FBB6E104A8FDF7C6
:103940005AFE0598616A09B9012154E0616A0129AA
:1039500001D102214FE0616A022901D104214AE02C
:10396000616A032901D1062145E0616A042901D178
:10397000082140E0616A052905D10A213BE0FDE309
:1039800080E08FE10BE1616A062901D10C2132E070
:10399000616A072901D110212DE0616A082901D14E
:1039A000202128E0616A092901D1402123E0616AD0
:1039B0000A2901D180211EE0616A0B291AD14FF436
:1039C000807118E0000C0058F369FFCFFFF4FF117D
:1039D0000010014054440258004400400048004098
:1039E000004C0040005000400014014000780040AE
:1039F000007C00400121B0FBF1FB56E101A8FDF77E
:103A0000FFFD0298616A09B9012138E0616A012964
:103A100001D1022133E0616A022901D104212EE0A3
:103A2000616A032901D1062129E0616A042901D1D3
:103A3000082124E0616A052901D10A211FE0616A99
:103A4000062901D10C211AE0616A072901D1102150
:103A500015E0616A082901D1202110E0616A092975
:103A600001D140210BE0616A0A2901D1802106E0E1
:103A7000616A0B2902D14FF4807100E00121B0FB93
:103A8000F1FB12E1FA480068C0F3401088B3F8482F
:103A90000068C0F3C101F748C840616A09B9012153
:103AA00039E0616A012901D1022134E0616A022909
:103AB00001D104212FE0616A032901D106212AE006
:103AC000616A042901D1082125E0616A052901D133
:103AD0000A2120E0616A062901D10C211BE0616AFC
:103AE000072901D1102116E0616A082902D120219D
:103AF00011E013E0616A092901D140210BE0616AFC
:103B00000A2901D1802106E0616A0B2902D14FF414
:103B1000807100E00121B0FBF1FB3FE0606A08B971
:103B2000012038E0606A012801D1022033E0606A98
:103B3000022801D104202EE0606A032801D106206A
:103B400029E0606A042801D1082024E0606A052881
:103B500001D10A201FE0606A062801D10C201AE07A
:103B6000606A072801D1102015E0606A082801D199
:103B7000202010E0606A092801D140200BE0606A33
:103B80000A2801D1802006E0606A0B2802D14FF498
:103B9000807000E00120B749B1FBF0FB85E0606A6E
:103BA00008B9012038E0606A012801D1022033E021
:103BB000606A022801D104202EE0606A032801D146
:103BC000062029E0606A042801D1082024E0606A08
:103BD000052801D10A201FE0606A062801D10C20C7
:103BE0001AE0606A072801D1102015E0606A0828F1
:103BF00001D1202010E0606A092801D140200BE0AB
:103C0000606A0A2801D1802006E0606A0B2802D190
:103C10004FF4807000E001209749B1FBF0FB44E0D5
:103C2000606A08B9012038E0606A012801D10220E9
:103C300033E0606A022801D104202EE0606A032884
:103C400001D1062029E0606A042801D1082024E07F
:103C5000606A052801D10A201FE0606A062801D1A8
:103C60000C201AE0606A072801D1102015E0606A74
:103C7000082801D1202010E0606A092801D14020E5
:103C80000BE0606A0A2801D1802006E0606A0B28F8
:103C900002D14FF4807000E001204FF40041B1FBED
:103CA000F0FB02E00120079000BF00BFBBF1000F56
:103CB00000F0F287606800EB4000584503D8606868
:103CC0000003584503D20120079000F0E5BF102DF6
:103CD00075D006DC022D09D0042D67D0082D6FD1D8
:103CE000CCE0202D6DD0402DF9D14DE2FDF77EFCCA
:103CF0008046606A08B9012238E0606A012801D173
:103D0000022233E0606A022801D104222EE0606AB8
:103D1000032801D1062229E0606A042801D1082283
:103D200024E0606A052801D10A221FE0606A0628A3
:103D300001D10C221AE0606A072801D1102215E097
:103D4000606A082801D1202210E0606A092801D1A8
:103D500040220BE0606A0A2801D1802206E0606AF6
:103D60000B2802D14FF4807200E001229446002318
:103D700040461946FDF749FC4FF4807300228C46FB
:103D8000A0FB031E0CFB03E300FB0233606840084A
:103D90008C461CEB000643EB0201D4F804C06246DB
:103DA00000233046FDF731FC81464EE204A8FDF7C2
:103DB00022FCDDF814E0606A20B901223BE0BFE09C
:103DC00040E282E1606A012801D1022233E0606AA8
:103DD000022801D104222EE0606A032801D10622C4
:103DE00029E0606A042801D1082224E0606A0528DD
:103DF00001D10A221FE0606A062801D10C221AE0D4
:103E0000606A072801D1102215E0606A082801D1F4
:103E1000202210E0606A092801D140220BE0606A8C
:103E20000A2801D1802206E0606A0B2802D14FF4F3
:103E3000807200E001229446002370461946FDF787
:103E4000E4FB4FF4807C0022A0FB0C3E01FB0CE164
:103E500000FB0211606840081E185141D4F804C0EC
:103E6000624600233046FDF7D0FB8146EDE10000BD
:103E7000004402580090D00300093D0001A8FDF75E
:103E8000BFFBDDF808C0606A08B9012238E0606A4B
:103E9000012801D1022233E0606A022801D1042204
:103EA0002EE0606A032801D1062229E0606A042816
:103EB00001D1082224E0606A052801D10A221FE00E
:103EC000606A062801D10C221AE0606A072801D135
:103ED000102215E0606A082801D1202210E0606AF3
:103EE000092801D140220BE0606A0A2801D1802212
:103EF00006E0606A0B2802D14FF4807200E00122D4
:103F00009646002360461946FDF77FFB4FF4807309
:103F100000228C46A0FB031E0CFB03E300FB0233D4
:103F2000606840088C461CEB000643EB0201D4F8A5
:103F300004C0624600233046FDF767FB814684E1FA
:103F4000F8480068C0F3401090B3F6480068C0F32A
:103F5000C101F54820FA01FE606A08B9012239E082
:103F6000606A012801D1022234E0606A022801D18E
:103F700004222FE0606A032801D106222AE0606A49
:103F8000042801D1082225E0606A052801D10A220F
:103F900020E0606A062801D10C221BE0606A072835
:103FA00001D1102216E0606A082802D1202211E017
:103FB00030E0606A092801D140220BE0606A0A28DB
:103FC00001D1802206E0606A0B2802D14FF4807292
:103FD00000E001229446002370461946FDF715FBC8
:103FE0004FF4807300228C46A0FB031E0CFB03E3FE
:103FF00000FB0233606840088C461CEB000643EB74
:104000000201D4F804C0624600233046FDF7FDFAF1
:10401000814659E0606A08B9012238E0606A0128E7
:1040200001D1022233E0606A022801D104222EE08D
:10403000606A032801D1062229E0606A042801D1C0
:10404000082224E0606A052801D10A221FE0606A84
:10405000062801D10C221AE0606A072801D110223B
:1040600015E0606A082801D1202210E0606A092862
:1040700001D140220BE0606A0A2801D1802206E0CB
:10408000606A0B2802D14FF4807200E0012294464E
:104090000023A5481946FDF7B8FA4FF480730022B3
:1040A0008C46A0FB031E0CFB03E300FB023360689D
:1040B00040080E1843EB0201D4F804C06246002306
:1040C0003046FDF7A2FA8146BFE0606A08B90122D6
:1040D00038E0606A012801D1022233E0606A0228D8
:1040E00001D104222EE0606A032801D1062229E0D2
:1040F000606A042801D1082224E0606A052801D101
:104100000A221FE0606A062801D10C221AE0606AC8
:10411000072801D1102215E0606A082801D1202269
:1041200010E0606A092801D140220BE0606A0A2889
:1041300001D1802206E0606A0B2802D14FF4807220
:1041400000E001229446002378481946FDF75DFA05
:104150004FF4807300228C46A0FB031E0CFB03E38C
:1041600000FB0233606840088C461CEB000643EB02
:104170000201D4F804C06246002300E073E0304638
:10418000FDF743FA814660E0606A08B9012238E031
:10419000606A012801D1022233E0606A022801D15D
:1041A00004222EE0606A032801D1062229E0606A19
:1041B000042801D1082224E0606A052801D10A22DE
:1041C0001FE0606A062801D10C221AE0606A072805
:1041D00001D1102215E0606A082801D1202210E0E8
:1041E000606A092801D140220BE0606A0A2801D1E7
:1041F000802206E0606A0B2802D14FF4807200E052
:104200000122944600234FF400401946FDF7FDF9C2
:104210004FF4807300228C46A0FB031E0CFB03E3CB
:1042200000FB0233606840088C461CEB000643EB41
:104230000201D4F804C0624600233046FDF7E5F9D8
:10424000814602E00120079000BF00BFB9F5407F22
:1042500006D3B9F5801F03D22068C0F80C9034E56E
:104260000120079031E5E069B0F5004F71D1082DCC
:1042700070D005DC5DB1012D5AD0042D6BD1A7E0C3
:10428000102D69D0202D68D0402DF7D11EE2FDF70A
:10429000C1F98046606A08B9012038E0606A0128E7
:1042A00001D1022033E0606A022801D104202EE00F
:1042B000606A032801D1062029E0606A042801D140
:1042C000082024E0606A052801D10A201FE0606A06
:1042D000062801D10C201AE0606A072801D11020BD
:1042E00015E0606A082801D1202010E0606A0928E2
:1042F00001D140200BE0606A0A2801D1802006E04D
:10430000606A0B2802D14FF4807000E00120B8FBF6
:10431000F0F04000616800EB5100B0FBF1F01FFAD3
:1043200080F920E2004402580090D00300093D00CB
:10433000FDF775F98046606A08B901203DE0606AC2
:10434000012801D1022038E0606A022806D1042049
:1043500033E020E288E003E2D2E06EE1606A032805
:1043600001D1062029E0606A042801D1082024E058
:10437000606A052801D10A201FE0606A062801D181
:104380000C201AE0606A072801D1102015E0606A4D
:10439000082801D1202010E0606A092801D14020BE
:1043A0000BE0606A0A2801D1802006E0606A0B28D1
:1043B00002D14FF4807000E00120B8FBF0F0400023
:1043C000616800EB5100B0FBF1F01FFA80F9CAE11F
:1043D00004A8FDF710F90598616A09B9012138E0D0
:1043E000616A012901D1022133E0616A022901D108
:1043F00004212EE0616A032901D1062129E0616AC6
:10440000042901D1082124E0616A052901D10A218A
:104410001FE0616A062901D10C211AE0616A0729AF
:1044200001D1102115E0616A082901D1202110E095
:10443000616A092901D140210BE0616A0A2901D191
:10444000802106E0616A0B2902D14FF4807100E0FF
:104450000121B0FBF1F04000616800EB5100B0FBBE
:10446000F1F01FFA80F97EE101A8FDF7C9F8029882
:10447000616A09B9012138E0616A012901D102218B
:1044800033E0616A022901D104212EE0616A032927
:1044900001D1062129E0616A042901D1082124E023
:1044A000616A052901D10A211FE0616A062901D14B
:1044B0000C211AE0616A072901D1102115E0616A17
:1044C000082901D1202110E0616A092901D1402188
:1044D0000BE0616A0A2901D1802106E0616A0B299B
:1044E00002D14FF4807100E00121B0FBF1F04000F7
:1044F000616800EB5100B0FBF1F01FFA80F932E186
:10450000F9480068C0F3401088B3F7480068C0F36A
:10451000C101F648C840616A09B9012139E0616A00
:10452000012901D1022134E0616A022901D104216B
:104530002FE0616A032901D106212AE0616A04297A
:1045400001D1082125E0616A052901D10A2120E075
:10455000616A062901D10C211BE0616A072901D19A
:10456000102116E0616A082902D1202111E01BE028
:10457000616A092901D140210BE0616A0A2901D150
:10458000802106E0616A0B2902D14FF4807100E0BE
:104590000121B0FBF1F04000616800EB5100B0FB7D
:1045A000F1F01FFA80F947E0606A08B9012038E0AD
:1045B000606A012801D1022033E0606A022801D13B
:1045C00004202EE0606A032801D1062029E0606AF9
:1045D000042801D1082024E0606A052801D10A20BE
:1045E0001FE0606A062801D10C201AE0606A0728E3
:1045F00001D1102015E0606A082801D1202010E0C8
:10460000606A092801D140200BE0606A0A2801D1C4
:10461000802006E0606A0B2802D14FF4807000E031
:104620000120B249B1FBF0F04000616800EB51009D
:10463000B0FBF1F01FFA80F995E0606A08B901203B
:1046400038E0606A012801D1022033E0606A022864
:1046500001D104202EE0606A032801D1062029E060
:10466000606A042801D1082024E0606A052801D18D
:104670000A201FE0606A062801D10C201AE0606A57
:10468000072801D1102015E0606A082801D12020F8
:1046900010E0606A092801D140200BE0606A0A2816
:1046A00001D1802006E0606A0B2802D14FF48070AF
:1046B00000E001208E49B1FBF0F04000616800EBA2
:1046C0005100B0FBF1F01FFA80F94CE0606A08B9C4
:1046D000012038E0606A012801D1022033E0606ADD
:1046E000022801D104202EE0606A032801D10620AF
:1046F00029E0606A042801D1082024E0606A0528C6
:1047000001D10A201FE0606A062801D10C201AE0BE
:10471000606A072801D1102015E0606A082801D1DD
:10472000202010E0606A092801D140200BE0606A77
:104730000A2801D1802006E0606A0B2802D14FF4DC
:10474000807000E001204FF40041B1FBF0F0400028
:10475000616800EB5100B0FBF1F01FFA80F902E054
:104760000120079000BF00BFB9F1100F10D3B9F5B9
:10477000803F0DD24FF6F07009EA00000890C9F3AF
:10478000420108980843089008982168C86083E2AD
:104790000120079080E2082D72D005DC5DB1012D6B
:1047A00053D0042D6DD1A5E0102D6BD0202D6AD0F3
:1047B000402D66D117E2FCF72DFF8046606A08B9EC
:1047C000012038E0606A012801D1022033E0606AEC
:1047D000022801D104202EE0606A032801D10620BE
:1047E00029E0606A042801D1082024E0606A0528D5
:1047F00001D10A201FE0606A062801D10C201AE0CE
:10480000606A072801D1102015E0606A082801D1EC
:10481000202010E0606A092801D140200BE0606A86
:104820000A2801D1802006E0606A0B2802D14FF4EB
:10483000807000E00120B8FBF0F0616800EB5100EF
:10484000B0FBF1F01FFA80F919E2FCF7E8FE8046B0
:10485000606A08B901203CE0606A012801D10220A9
:1048600037E0606A022801D1042032E0606A032840
:1048700001D106202DE0606A042805D1082028E037
:1048800083E0F9E1CCE066E1606A052801D10A2005
:104890001FE0606A062801D10C201AE0606A072830
:1048A00001D1102015E0606A082801D1202010E015
:1048B000606A092801D140200BE0606A0A2801D112
:1048C000802006E0606A0B2802D14FF4807000E07F
:1048D0000120B8FBF0F0616800EB5100B0FBF1F093
:1048E0001FFA80F9CBE10000004402580090D00389
:1048F00000093D0004A8FCF77EFE0598616A09B92D
:10490000012138E0616A012901D1022133E0616AA5
:10491000022901D104212EE0616A032901D1062177
:1049200029E0616A042901D1082124E0616A05298E
:1049300001D10A211FE0616A062901D10C211AE088
:10494000616A072901D1102115E0616A082901D1A6
:10495000202110E0616A092901D140210BE0616A40
:104960000A2901D1802106E0616A0B2902D14FF4A6
:10497000807100E00121B0FBF1F0616800EB5100B3
:10498000B0FBF1F01FFA80F979E101A8FCF738FEDD
:104990000298616A09B9012138E0616A012901D1EF
:1049A000022133E0616A022901D104212EE0616A0B
:1049B000032901D1062129E0616A042901D10821D6
:1049C00024E0616A052901D10A211FE0616A0629F4
:1049D00001D10C211AE0616A072901D1102115E0EB
:1049E000616A082901D1202110E0616A092901D1F9
:1049F00040210BE0616A0A2901D1802106E0616A49
:104A00000B2902D14FF4807100E00121B0FBF1F0DD
:104A1000616800EB5100B0FBF1F01FFA80F92EE164
:104A2000A3480068C0F3401088B3A1480068C0F3F1
:104A3000C101A048C840616A09B9012139E0616A31
:104A4000012901D1022134E0616A022901D1042146
:104A50002FE0616A032901D106212AE0616A042955
:104A600001D1082125E0616A052901D10A2120E050
:104A7000616A062901D10C211BE0616A072901D175
:104A8000102116E0616A082902D1202111E01AE004
:104A9000616A092901D140210BE0616A0A2901D12B
:104AA000802106E0616A0B2902D14FF4807100E099
:104AB0000121B0FBF1F0616800EB5100B0FBF1F0B7
:104AC0001FFA80F946E0606A08B9012038E0606AA0
:104AD000012801D1022033E0606A022801D10420BC
:104AE0002EE0606A032801D1062029E0606A0428CC
:104AF00001D1082024E0606A052801D10A201FE0C6
:104B0000606A062801D10C201AE0606A072801D1EA
:104B1000102015E0606A082801D1202010E0606AAA
:104B2000092801D140200BE0606A0A2801D18020C9
:104B300006E0606A0B2802D14FF4807000E001208B
:104B40005C49B1FBF0F0616800EB5100B0FBF1F0A3
:104B50001FFA80F993E0606A08B9012038E0606AC2
:104B6000012801D1022033E0606A022801D104202B
:104B70002EE0606A032801D1062029E0606A04283B
:104B800001D1082024E0606A052801D10A201FE035
:104B9000606A062801D10C201AE0606A072801D15A
:104BA000102015E0606A082801D1202010E0606A1A
:104BB000092801D140200BE0606A0A2801D1802039
:104BC00006E0606A0B2802D14FF4807000E00120FB
:104BD0003949B1FBF0F0616800EB5100B0FBF1F036
:104BE0001FFA80F94BE0606A08B9012038E0606A7A
:104BF000012801D1022033E0606A022801D104209B
:104C00002EE0606A032801D1062029E0606A0428AA
:104C100001D1082024E0606A052801D10A201FE0A4
:104C2000606A062801D10C201AE0606A072801D1C9
:104C3000102015E0606A082801D1202010E0606A89
:104C4000092801D140200BE0606A0A2801D18020A8
:104C500006E0606A0B2802D14FF4807000E001206A
:104C60004FF40041B1FBF0F0616800EB5100B0FB84
:104C7000F1F01FFA80F902E00120079000BF00BFA9
:104C8000B9F1100F06D3B9F5803F03D22068C0F800
:104C90000C9001E0012007900120A4F86A00A4F81C
:104CA00068000020E0662067079809B0BDE8F08F33
:104CB000004402580090D00300093D002DE9F04166
:104CC00004460D4617469846069E4AE0701C00288A
:104CD00047D0FCF781FCA0EB0800B04200D8C6B971
:104CE0002068006820F4D07021680860206880681F
:104CF00020F00100216888602020C4F88000C4F8FA
:104D0000840000BF002084F87C0000BF0320BDE8C1
:104D1000F0812068006800F0040010B32068C069CA
:104D2000C0F3C020E8B14FF4006021680862206839
:104D3000006820F4D070216808602068806820F046
:104D40000100216888602020C4F88000C4F8840035
:104D5000C4F8880000BF002084F87C0000BF032056
:104D6000D5E72068C0692840A84201D1012000E0B1
:104D70000020B842AAD00020C9E703B4019841003E
:104D8000009850EAC12018BF04204A0D18BF40F017
:104D9000010040F2FF72B2EB515F08BF40F0020029
:104DA000012808BF052002B0704770B504460025F1
:104DB00008E02168481C20600878303805EB850140
:104DC00000EB41052168087800F004F80028F0D1D4
:104DD000284670BD0146302903DB392901DC01205A
:104DE00070470020FCE730380A2801D201207047C4
:104DF0000020704710B54021074801F0E3FA002277
:104E00000421064830F08EFC0549086002F054FE8B
:104E100000200449087010BD90EB0524857B0090AC
:104E2000B0020024AC02002430B50346B1F90040C2
:104E3000B2F90050AC4202DDB1F9004001E0B2F934
:104E400000401C80B1F90240B2F90250AC4202DDD0
:104E5000B1F9024001E0B2F902405C80B1F90440CE
:104E6000B2F90450AC4202DAB1F9044001E0B2F9FF
:104E700004409C80B1F90640B2F90650AC4202DA17
:104E8000B1F9064001E0B2F90640DC800120B3F937
:104E90000040B3F90450AC4205DCB3F90240B3F969
:104EA0000650AC4200DD002030BDF8B504460D468A
:104EB00016460027B4F90000B5F90010884212DB4D
:104EC000B4F90200B5F9021088420CDBB4F9040011
:104ED000B5F90410884206DCB4F90600B5F90610ED
:104EE000884200DC01270FB90020F8BD0EB901206F
:104EF000FBE72088ADF800006088ADF8020032467C
:104F00006946284600F0A7F808B90020EDE7A08818
:104F1000ADF800006088ADF80200324669462846C8
:104F200000F099F808B90020DFE72088ADF800000C
:104F3000E088ADF8020032466946284600F08BF85A
:104F400008B90020D1E7A088ADF80000E088ADF8EE
:104F5000020032466946284600F07DF808B9002074
:104F6000C3E70120C1E70246B2F90000B1F90430FD
:104F7000984213DCB2F90400B1F9003098420DDB1D
:104F8000B2F90200B1F90630984207DCB2F9060026
:104F9000B1F90230984201DB012070470020FCE7A4
:104FA000F8B504460D461646B4F90400B5F90010EC
:104FB000884211DBB4F90600B5F9021088420BDB18
:104FC000B4F90000B5F90410884205DCB4F9020018
:104FD000B5F90610884201DD0120F8BD0EB90020A8
:104FE000FBE72088ADF800006088ADF8020032468B
:104FF0006946284600F02FF808B10020EDE7A088A8
:10500000ADF800006088ADF80200324669462846D7
:1050100000F021F808B10020DFE72088ADF800009B
:10502000E088ADF8020032466946284600F013F8E1
:1050300008B10020D1E7A088ADF80000E088ADF805
:10504000020032466946284600F005F808B1002003
:10505000C3E70120C1E72DE9FC5F05460E46144673
:105060004FF0000AB6F90000B5F90010884213DBD2
:10507000B6F90000B5F9041088420DDCB6F902005B
:10508000B5F90210884207DBB6F90200B5F906103F
:10509000884201DC4FF0010ABAF1000F02D1002072
:1050A000BDE8FC9F002C01DC0120F9E728461CF03C
:1050B00064FA834600EBDB70471028461CF0D5F9F4
:1050C000834600EBDB704FEA6008474501DA38465B
:1050D00000E0404681464C4500DD4C462888ADF84E
:1050E00000002888204400B2ADF804006888ADF8BC
:1050F00002006888204400B2ADF806000022314664
:105100006846FFF7A8FF80B1BDF80400204400B254
:10511000ADF80400BDF80600204400B2ADF806006A
:10512000314668462CF0C8FEBAE7E888001B00B29A
:10513000ADF80200E888ADF8060000223146684666
:10514000FFF789FF80B1BDF80400204400B2ADF83C
:105150000400BDF80200001B00B2ADF802003146A9
:1051600068462CF0A9FE9BE7A888001B00B2ADF8AA
:105170000000A888ADF80400002231466846FFF719
:105180006AFF80B1BDF80000001B00B2ADF800005E
:10519000BDF80200001B00B2ADF8020031466846BF
:1051A0002CF08AFE7CE76888ADF80200688820440D
:1051B00000B2ADF80600002231466846FFF74BFF0B
:1051C00080B1BDF80000001B00B2ADF80000BDF8D2
:1051D0000600204400B2ADF80600314668462CF0C7
:1051E0006BFE5DE701205BE710B5B1F90030B2F965
:1051F0000040A34202DAB1F9003001E0B2F9003018
:105200000380B1F90230B2F90240A34202DAB1F9E7
:10521000023001E0B2F902304380B1F90430B2F952
:105220000440A34202DDB1F9043001E0B2F90430D8
:105230008380B1F90630B2F90640A34202DDB1F92C
:10524000063001E0B2F90630C38010BD2DE9FF4100
:10525000044630F008FA05460020039034B147496F
:10526000E0680860204630F075FB03E01EF0E2FFC6
:10527000424908604149096808692CF04DFD3F48E2
:105280000068406920B13D49096848692CF044FD37
:105290003A490968C8692CF03FFD38490968086A2D
:1052A0002CF03AFD35480068006940B900203349C8
:1052B0000968A1F8500100BF00BFBDE8FF812DF0D3
:1052C000FBF82DF041F82D480068B0F85001002897
:1052D0004BD02A4800680068007CC0F34000E8B169
:1052E000264800681FF024F8401E06B223480068D4
:1052F0001EF0B8FF401E07B23B460022114601A82F
:1053000000961CF07FF901A81C4909680968896B9F
:1053100048601A48006807F033FB00BF4FF4807103
:1053200016480068303026F082FF202113480068BC
:1053300000F5987026F07BFF002010490968A1F85D
:105340005001284630F082F903900C48006800684C
:10535000406A50B10949096808680849096809683C
:105360004B6A07490A680399984726F097FC00F0B2
:105370003FF800F007F800BF9FE70000700100242D
:105380006C01002410B5002416E0C4EBC4000C49E5
:1053900051F8200030B1C4EBC401094A52F8210091
:1053A00026F02EFDC4EBC401054A02EB81001C214E
:1053B00026F03DFF601CC4B2042CE6DB10BD0000EB
:1053C0006CEC05240146094A10680BE042688A42E9
:1053D00002D002688A4204D1027E22F00102521CED
:1053E000027640690028F1D1704700004401002492
:1053F0007047000010B50421014800F0E3FF10BD24
:1054000084EB052410B51C21014800F0DBFF10BD22
:105410009CEB05242DE9FF4F8BB004469A46199D5D
:10542000BAF1000F11D11898B0F5807F0DD100208E
:10543000208060800C98401E00B2A0800D98401E15
:1054400000B2E0800FB0BDE8F08FB5F90000404237
:10545000189948430121C1EB202000B22080B5F902
:1054600002004042189948430121C1EB202000B2BC
:105470006080B5F900100C98401A18994843022131
:1054800001EB202000B2A080B5F902100D98401A5F
:1054900018994843022101EB202000B2E080BAF1C4
:1054A000000F14D120882988084400B22080608829
:1054B0006988084400B26080A0882988084400B246
:1054C000A080E0886988084400B2E080BAE70A203A
:1054D0009AFBF0F00A900A98401C09900A9800EB99
:1054E0008000AAEB400B0A9800B230F0B9FB08909C
:1054F000099800B230F0B4FB07900A985A3000B215
:1055000030F0AEFB069009985A3000B230F0A8FB9C
:105510000590CBF10A0108984143079800FB0B1056
:105520000A2190FBF1F6CBF10A0106984143059858
:1055300000FB0B100A2190FBF1F776117F11B4F9F3
:105540000080B4F9029007FB08F006FB19002988D7
:1055500001EBA02000B2ADF8100006FB08F007FB3D
:105560000900698801EBA02000B2ADF81200B4F97F
:105570000480B4F9029007FB08F006FB19002988A3
:1055800001EBA02000B2ADF80C0006FB08F007FB11
:105590000900698801EBA02000B2ADF80E00B4F953
:1055A0000080B4F9069007FB08F006FB1900298873
:1055B00001EBA02000B2ADF8080006FB08F007FBE5
:1055C0000900698801EBA02000B2ADF80A00B4F927
:1055D0000480B4F9069007FB08F006FB190029883F
:1055E00001EBA02000B2ADF8040006FB08F007FBB9
:1055F0000900698801EBA02000B2ADF80600BDF9F2
:105600000800BDF91010884202DABDF9080001E077
:10561000BDF91000BDF90410BDF90C20914202DA69
:10562000BDF9041001E0BDF90C1088420BDABDF998
:105630000800BDF91010884202DABDF908000DE03B
:10564000BDF910000AE0BDF90400BDF90C10884254
:1056500002DABDF9040001E0BDF90C002080BDF9BB
:105660000800BDF91010884202DDBDF9080001E014
:10567000BDF91000BDF90410BDF90C20914202DD06
:10568000BDF9041001E0BDF90C1088420BDDBDF935
:105690000800BDF91010884202DDBDF908000DE0D8
:1056A000BDF910000AE0BDF90400BDF90C108842F4
:1056B00002DDBDF9040001E0BDF90C00A080BDF9D8
:1056C0000A00BDF91210884202DABDF90A0001E0B1
:1056D000BDF91200BDF90610BDF90E20914202DAA3
:1056E000BDF9061001E0BDF90E1088420BDABDF9D4
:1056F0000A00BDF91210884202DABDF90A000DE075
:10570000BDF912000AE0BDF90600BDF90E1088428D
:1057100002DABDF9060001E0BDF90E006080BDF9B6
:105720000A00BDF91210884202DDBDF90A0001E04D
:10573000BDF91200BDF90610BDF90E20914202DD3F
:10574000BDF9061001E0BDF90E1088420BDDBDF970
:105750000A00BDF91210884202DDBDF90A000DE011
:10576000BDF912000AE0BDF90600BDF90E1088422D
:1057700002DDBDF9060001E0BDF90E00E08000BFCA
:1057800060E62DE9F74F86B0044620680590B4F92D
:1057900008100798A0EB0108B4F90A100898A0EBCC
:1057A0000109E089B0F5807F13D1206B00FB08F080
:1057B000E16A01FB1901606A00EBA10BE06A00FBE2
:1057C00008F0216B01FB0901A06A00EBA100049025
:1057D0002FE0A08980B9A06B00FB08F04FEA6018A9
:1057E000A06B00FB09F04FEA6019606A00EB080B40
:1057F000A06A484404901CE0A06B00FB08F04FEA4C
:105800006018A06B00FB09F04FEA6019206B00FBE9
:1058100008F0E16A01FB1901606A00EBA12BE06A64
:1058200000FB08F0216B01FB0901A06A00EBA1203D
:1058300004904FEA2B2604980712B4F90400B042F2
:1058400003DC002009B0BDE8F08F002E01DA002053
:10585000F8E7B4F90600B84201DC0020F2E7002FB7
:1058600001DA0020EEE73420005DC0F3800050B381
:105870003420005DC0F3400078B90225B4F904007B
:105880007843684306FB050A059800EB0A012A469F
:1058900004F1140026F079FC2CE00325B4F904008F
:1058A0007843684306FB050A6A1E059800EB0A0167
:1058B00004F1140026F069FC0AEB0500401E05996E
:1058C000095CA17516E04FF0000A0025208A034606
:1058D0003AB231B2019004F1180023F019F90290A4
:1058E000BDF80800A0823AB231B204F1180023F0EA
:1058F0006FF8A0753420005D00F00100B0B14FF4E6
:105900007F40002100F47C4241EA5211C0F3C402FE
:1059100011430191BDF8042011460291A08ABDF8FF
:105920000810884201D100208CE700BFE07C08B954
:10593000012087E70FFA8BF1A187049801B2E18774
:1059400031B24020015339B242200153C4F844A07F
:1059500084F84850204600F003F80390039871E75C
:105960002DE9F04F8DB00446D4F8009094F83C0037
:105970000C9094F83E000B900C9870280BDA4FF0C6
:10598000FF35B4F940002844002800DA00250C98BF
:105990008030C7B213E00C9890280EDD0125B4F9D1
:1059A00040002844B4F90410884200DB00250C981C
:1059B000C0F1FF008030C7B201E00025FF270B983F
:1059C00070280CDA4FF0FF36B4F94200304400285A
:1059D00000DA00260B98803000F0FF0815E00B98E5
:1059E00090280FDD0126B4F942003044B4F90610C6
:1059F000884200DB00260B98C0F1FF00803000F0E9
:105A0000FF0802E000264FF0FF08A08A0A90A07D60
:105A1000069000200590049003903420005DC0F3B0
:105A2000800000285BD094F84800626C00FB0520E1
:105A300000EB0901022209A826F0A7FBA28894F82E
:105A4000480012FB00F2606C02FB060000EB09014B
:105A5000022208A826F099FBA28894F8480012FBBD
:105A600000F2606C02FB060294F8480000FB05207F
:105A700000EB0901022207A826F087FB3420005D15
:105A8000C0F3400000287ED094F84800616C00FB11
:105A900005110844401E19F800000590A18894F8EB
:105AA000480011FB00F1606C01FB060194F848000E
:105AB0000844401E19F800000490A18894F848009A
:105AC00011FB00F1606C01FB060194F8480000FB3B
:105AD00005110844401E19F80000039053E0208A85
:105AE0000090B4F942204020005B284401B204F148
:105AF0001800009B23F00CF80990208A00904220A7
:105B0000005B304402B2B4F9401004F11800009B6D
:105B100022F0FEFF0890208A00904220005B304473
:105B200002B24020005B284401B204F11800009B3F
:105B300022F0EEFF07903420005DC0F3400010B368
:105B4000B4F942204020005B284401B204F118005F
:105B500022F03EFF05904220005B304402B2B4F9CF
:105B6000401004F1180022F033FF04904220005B43
:105B7000304402B24020005B284401B204F1180016
:105B800022F026FF0390BA46BB463420005DC0F3E6
:105B90004000E0B306987843C7F1FF0C059B03FB78
:105BA0000C00C0F3072104987843C7F1FF0C039B56
:105BB00003FB0C00C0F3072201FB08F0C8F1FF0350
:105BC00002FB0300030AA375022905DC022A03DC99
:105BD00000200DB0BDE8F08F022901DC4FF0000875
:105BE000022A01DC4FF0FF080698022801DC4FF082
:105BF000000A0598022801DC4FF0FF0A04980228E9
:105C000001DC4FF0000B0398022803DC00E002E007
:105C10004FF0FF0B03E0BA46BB46FF21A175BAF176
:105C2000000F02D1099802900BE0BAF1FF0F02D1E8
:105C30000A98029005E05246DDE909101DF068FD62
:105C40000290BBF1000F02D1079801900BE0BBF16D
:105C5000FF0F02D10898019005E05A46DDE90710D0
:105C60001DF056FD0190B8F1000F03D1BDF80400FE
:105C7000A0820FE0B8F1FF0F03D1BDF80800A082A9
:105C800008E04246DDE901101DF042FD0090BDF83C
:105C90000000A08201209CE72DE9F05F0446B4F9E2
:105CA000080001026162B4F90A000102A162B4F9BC
:105CB0000C000A2190FBF1F56F1CB4F90C0005EB08
:105CC0008501A0EB4106684200B22FF0C9FF804673
:105CD000784200B22FF0C4FF8146C5F15A0000B2ED
:105CE0002FF0BEFF8246C7F15A0000B22FF0B8FF76
:105CF0008346C6F10A0000FB08F009FB06000A21F2
:105D000090FBF1F1E162C6F10A0000FB0AF00BFB27
:105D100006000A2190FBF1F12163E06A4111E16282
:105D2000206B41112163A07C23F001F83421095D2F
:105D300060F3000134200155A07C22F0DBFF342108
:105D4000095D60F3410134200155A07C042805D091
:105D5000A07C052802D0A07C062807D13420005D55
:105D600020F00400001D3421085505E03420005DBA
:105D700020F004013420015521682162A06920F03F
:105D8000E000A061A17CA06961F30400A061A1888A
:105D9000A06961F39420A061E188A06961F35F507C
:105DA000A061E08900EBD071491001F5001191FB71
:105DB000F0F2A263FF21A175208AA082BDE8F09FC6
:105DC0002DE9F743054616460024134C2FF04BFCF3
:105DD0008046334629462046019A23F057FC074661
:105DE0005FB900BF00BF2C21204626F020FA4FF0FB
:105DF0000040A0620020BDE8FE830020A062E069B0
:105E000018B940462FF022FCE061E06908B9012092
:105E1000E0612046EFE70000C0EB052410B5142137
:105E2000114800F0CFFA23F0E3FB044600BF1CB991
:105E300000BF00BF00BFFEE700BF14B900BF00BF36
:105E400010BD0A49204623F0BBFC0949204623F037
:105E5000B9FC0849204623F0B7FC0749204623F047
:105E6000ADFC00BFECE70000A8EB05240D8E02900E
:105E7000E1920290FD940290D58D029070B5044697
:105E80000D461021284626F0D2F920680078012816
:105E900004D1208A2880608A68800CE0206800781D
:105EA000022802D1E068686005E0206800780428D4
:105EB00001D10A2068602068406820B12068294626
:105EC0004268904701E000BF00BF70BD2DE9FE436E
:105ED0000446A66AEEB9A18A208A084401B2A182CA
:105EE000E18A608A084401B2E18220460FF0CAFCD0
:105EF00006460EB9BDE8FE83204615F0D5F800220F
:105F00000921304621F06AFE6078C0F3400000B1FC
:105F1000F0E7208A10B9608A002870D00020029033
:105F2000019094F83C0000F00F00032812D1304695
:105F300028F036FA0746304628F0BAF980460320A2
:105F40000090B4F910103B46424630460DF02CFD4F
:105F5000029012E0304628F0A5FA0746304628F0B5
:105F600019F980460C200090B4F9121043463A46C5
:105F700030460DF019FD019000BF304628F06AF957
:105F8000054605F0010028B9BDF90800002801DD2B
:105F90000020029005F0020028B9BDF90800002891
:105FA00001DA0020029005F0040028B9BDF90400D0
:105FB000002801DD0020019005F0080028B9BDF996
:105FC0000400002801DA0020019001AA02A920465D
:105FD00033F0EAFF0023BDF90420BDF90810304674
:105FE0002BF03EF9A08ABDF80810084401B2A18246
:105FF000E08ABDF80410084401B2E18200BF00BF8E
:1060000078E72DE9F84F0446D4F828B0BBF1000F2B
:1060100001D1BDE8F88F94F83C0000F00F0000B902
:10602000F7E723F0B5FE06463068477E4021584624
:1060300029F040FE10B9002161832183584628F0E1
:106040001DFA8046584628F023FA054694F83C008D
:1060500000F00F000C2843D1002121831DBBB4F9AF
:106060001A00C7F164014843642190FBF1F001B2CA
:106070006183584628F08EF88146584628F012FA77
:1060800082460C200090B4F91A104B4652465846EE
:106090000DF08AFC6083B4F91A2000231946584693
:1060A0002BF0DEF869E0204633F0D5FF00900021A8
:1060B00061836A46204633F077FFBDF9003041F630
:1060C000FF72514258460FF085FD8146BDF8000031
:1060D000484402B20123002158462BF0C1F84CE09D
:1060E00094F83C0000F00F00032846D100216183A2
:1060F000B8F1000F23D1B4F91800C7F16401484387
:10610000642190FBF1F001B22183584628F0D0F8C9
:106110008146584628F044F9824603200090B4F99D
:10612000181053464A4658460DF03EFC2083B4F9F9
:10613000181000231A4658462BF092F81DE020460E
:1061400033F06EFF00900021218300226946204633
:1061500033F02AFFBDF9003041F6FF725142584634
:106160000FF09EFC8146BDF80000484401B20123B7
:10617000002258462BF074F800BF208B002860D115
:10618000608B00285DD11DBB584628F08BF98146F5
:10619000584627F0FFFF8246B9F1000F02DCBAF142
:1061A000000F14DDB9F1000F06DA01234A46002181
:1061B00058462BF055F80AE0BAF1000F07DA012330
:1061C000CAF1000002B2002158462BF049F800BF86
:1061D000B8F1000F23D1584628F06AF88146584696
:1061E00028F0DEF88246B9F1000F02DCBAF1000FA8
:1061F00014DDB9F1000F06DA0123002249465846A2
:106200002BF02EF80AE0BAF1000F07DA0123002282
:10621000CAF1000001B258462BF022F800BF324606
:106220000A21584621F0DAFC6078C0F3400000B142
:10623000EFE694F83C0020F00F0184F83C100021B8
:10624000A16200BFE5E62DE9FF4104460F4614B9FF
:106250001DF0F0FF04460CB9BDE8FF811FB9002016
:10626000A4F85001F8E70020ADF80800ADF80A00E6
:1062700020461DF0F7FF401E00B2ADF80C0020468E
:106280001EF056F8401E00B2ADF80E0002AA3946C4
:106290006846FEF7C9FD064606B9DDE72068007CC2
:1062A000C0F3400060B1029820630398606301204E
:1062B000A4F85001606810B160682FF057FBCBE77D
:1062C0002068806918B12068694682699047002576
:1062D0000BE004F1300000EBC50100226846FEF738
:1062E000E4FD00B1B8E7681C85B2B4F85001A842DB
:1062F000EFDCB4F85001202809DAB4F8502104F199
:10630000300101EBC20069461BF01FF80BE00020D2
:10631000A4F85001B4F8502104F1300101EBC2009F
:1063200002A91BF012F8B4F85001401CA4F8500167
:10633000606810B160682FF019FB00BF8CE770B582
:106340000546284600F013F8044600260CE02146D6
:10635000284600F024F806462146284600F086F834
:10636000204625F04DFD3446002CF0D170BD01468D
:1063700009B9002070474868FCE770B5064600245C
:106380003046FFF7F4FF054605E0641C2946304619
:1063900000F005F80546002DF7D1204670BD0246F5
:1063A0000B461068001D03441868704702460B46F0
:1063B0001068034418687047014609B90020704707
:1063C0008868FCE7002242608260CA1C22F0030158
:1063D0000160704770B50446216801F1080025F09E
:1063E00041FC0546A5B100222946204631F0BAF805
:1063F00029462046626831F0A7F8606820B12A4635
:106400002046616831F0AEF86560A06800B9A5600B
:10641000284670BD70B50446216801F1080025F0DA
:1064200021FC0546A5B100222946204631F08CF812
:1064300029462046A26831F095F8A06820B12A4686
:106440002046A16831F080F8A560606800B96560F9
:10645000284670BD014609B901207047486818B93F
:10646000886808B90120F8E70020F6E72DE9F04137
:1064700004460D460CB9BDE8F0812046FFF777FFD2
:10648000A8420FD129462046FFF789FF6060606867
:1064900010B90020A0602FE000222046616831F092
:1064A00061F829E02046FFF787FFA8420FD129466F
:1064B0002046FFF77BFFA060A06810B90020606055
:1064C0001AE000222046A16831F03EF814E0294687
:1064D0002046FFF76BFF064629462046FFF75FFF81
:1064E00007463A463146204631F02EF832463946C4
:1064F000204631F037F800BF00BFBCE710B50446B6
:106500002068806818B1206821468268904720681A
:10651000006828B12068006820602046FFF7EEFF81
:1065200010BD0146886818B18868B0F91600704738
:106530000020FCE72DE9F04F93B005468B469146CD
:106540009A461C9E688C20F00400001D6884A5F803
:10655000209032895946284629F028F91290A5F84A
:1065600020A032895946284629F020F91190688CDC
:1065700020F004006884DDE9111088420CD1DDE9C7
:106580001110884208D1BDF84800BDF84410884277
:1065900002D113B0BDE8F08FA5F82090328959469A
:1065A000284629F003F91290A5F820A0594628465C
:1065B00012F057FD10903189109A1068129A2DF040
:1065C0000EFD3089602833D147F6FF71129888425A
:1065D00002D0119888422BD1284629F00EFB0F904B
:1065E00000EBD0704710284629F007FB0F9000EB16
:1065F000D0704FEA600847F6FF711298884208D1C0
:10660000781C08F10101884200DA01E008F101007C
:10661000129047F6FF711198884208D1781C08F152
:106620000101884200DA01E008F10100119000BF89
:106630002448FFF7CFFE044600BF1CB900BF00BFCF
:1066400000BFFEE700BF04B9A3E71298E06011980D
:106650002061ACB325603089A080C4F808B06846DA
:106660001AF03AF8214668461AF0E9F816496846E1
:106670001AF0B5F81548029000BF154968461AF09F
:10668000BCF8FF22002168461AF0C9F83188684634
:106690001AF0BBF8718868461AF09CF8F06806900A
:1066A00000BF6846002190F83E2061F3000280F8A8
:1066B0003E2000BF3069059068461AF0D7F800BF49
:1066C00000BF66E7B4EB0524E1E703908DEA039091
:1066D000BDE9039010B514210148FFF773FE10BD0A
:1066E000B4EB05242DE9FE4F04460F4690464FF0CB
:1066F000000900256BE1E06800EBC5004068C0F3CD
:10670000406000B162E1E16801EBC501496821F038
:106710007F402BF0FDFA064626EA070008B9012063
:1067200000E00020029026EA080008B9012000E0FD
:1067300000200190DDE90101814272D0E06850F84B
:1067400035A04FF0000B6A4641F6100150462DF07F
:10675000DFF810B14FF0010BA9E06A4641F61101D4
:1067600050462DF0D5F810B14FF0010B9FE06A466E
:1067700041F6120150462DF0CBF810B14FF0010B4D
:1067800095E06A4641F6130150462DF0C1F810B16C
:106790004FF0010B8BE06A4641F6150150462DF093
:1067A000B7F810B14FF0010B81E06A4641F61401D1
:1067B00050462DF0ADF810B14FF0010B77E06A466E
:1067C00041F2690150462DF0A3F810B14FF0010BD2
:1067D0006DE06A4643F20C0150462DF099F810B175
:1067E0004FF0010B63E06A4643F20D0150462DF075
:1067F0008FF810B14FF0010B59E06A4641F20101E8
:1068000050462DF085F810B14FF0010B4FE06A466D
:1068100041F2040150462DF07BF818B14FF0010B06
:1068200045E0D2E06A4641F2020150462DF070F890
:1068300010B14FF0010B3AE06A4641F203015046B5
:106840002DF066F810B14FF0010B30E06A4641F2CE
:10685000050150462DF05CF810B14FF0010B26E019
:106860006A4641F2060150462DF052F810B14FF041
:10687000010B1CE06A4641F2320150462DF048F807
:1068800010B14FF0010B12E06A4643F60F0150467B
:106890002DF03EF810B14FF0010B08E06A4643F6C8
:1068A0000E0150462DF034F808B14FF0010BBBF14A
:1068B000000F02D00320BDE8FE8F6A4640F60A01B1
:1068C00050462DF025F810B14FF002097CE06A46E1
:1068D00040F60B0150462DF01BF810B14FF00209A5
:1068E00072E06A4643F60F0150462DF011F810B1E0
:1068F0004FF0020968E06A4643F60E0150462DF05B
:1069000007F810B14FF002095EE06A4640F63C011C
:1069100050462CF0FDFF10B14FF0020954E06A46DA
:1069200040F63D0150462CF0F3FF10B14FF0020944
:106930004AE06A4640F63A0150462CF0E9FF10B1B1
:106940004FF0020940E06A464FF4046150462CF0D3
:10695000DFFF10B14FF0020936E06A4640F645010C
:1069600050462CF0D5FF10B14FF002092CE06A46DA
:1069700040F6410150462CF0CBFF10B14FF0020918
:1069800022E06A4640F6420150462CF0C1FF10B1A9
:106990004FF0020918E06A4640F6430150462CF0D9
:1069A000B7FF10B14FF002090EE06A4640F6490108
:1069B00050462CF0ADFF10B14FF0020904E0B9F1E0
:1069C000000F01D14FF0010900BF00BF6D1C608CAA
:1069D000C0F3C500A8423FF68EAE48466BE7000004
:1069E00001480068704700007001002470470146AC
:1069F000C1F30412072A00DD0722D0B2704700005D
:106A000010B518210348FFF7DDFC01202EF0C6FE6B
:106A100010BD000060EB05242DE9F04105460F464E
:106A200016460DB9BDE8F0812846F9F71FFD8046EE
:106A3000394628460A4A126890470746E8193146FF
:106A4000074A1268904706463C4603E0A019285CB6
:106A50002855641CA8EB0600A042F7D200BFE1E76E
:106A6000FC0200242DE9F04106460C4617461D465F
:106A700029463046084A126890472060206830B1A5
:106A8000296888190021044A1268904700E0002014
:106A90003860BDE8F0810000F40200242DE9F04FD9
:106AA00087B004460F4692469846DDE910560DB170
:106AB000002028801CB9002007B0BDE8F08F2078A6
:106AC00008B90020F8E70FB90020F5E74FF00009FA
:106AD00006F0020010B906F0040098B1002000E0B2
:106AE000401C215C0A2905D0215C0D2902D0215CC3
:106AF0000029F5D1215C01B1401C15B14FF0FF31E7
:106B00002980D9E706F0020008B141F6FF7800209D
:106B10000690059038E000200490059808B90120FF
:106B200000E0002006A904AACDE90062CDE9021028
:106B3000059960184346524639462FF0C9F88346F6
:106B40000498A8EB00000FFA80F8049848440FFA64
:106B500080F9BBF1000F00D11CE005985844059066
:106B600020780A2802D020780D2800D112E005985C
:106B7000205C0A2803D00598205C0D2803D10598D5
:106B8000401C059006E000BF0598205C10B1B8F1EC
:106B9000000FC0DC00BF059870B905A92046094A5E
:106BA00012689047834635B100225946384621F095
:106BB0005AF90FFA80F900BF0DB1A5F800900598B9
:106BC0007AE70000F40200242DE9F04706468846E3
:106BD000174606B10FB9BDE8F0873046F9F746FC15
:106BE00081463846F9F742FC044604B9F3E704EB62
:106BF000090A414630460B4A12689047804655467E
:106C000003E0281B305C70556D1E08EB0400A842A1
:106C1000F7D906EB08002246394625F0C2FA00BF34
:106C2000D9E70000FC020024024600200FA31B78D5
:106C30008B4211D113781BB90123137001200BE093
:106C40001378012B02D10023137005E01378022B77
:106C500002D10023137001201378012B04D12029C5
:106C600001D10223137001207047000023000000AF
:106C700073B582B00646039801903246002108465B
:106C8000019B2FF041FB0546002001900024681C69
:106C900024F0E8FF044600BF1CB900BF00BF00BFDE
:106CA000FEE700BF14B9002004B070BD002060559D
:106CB0003246691C2046039B2FF026FB2046F3E753
:106CC0002DE9F04781460E4614461F46DDF820A008
:106CD00035461BE0600800FB075529464846D0476B
:106CE000B0F1000809DD04F0010080F00100C0EB04
:106CF0005404E8190546064608E0B8F1000F02DA28
:106D00006408354602E02846BDE8F087002CE1D152
:106D10000020F9E72DE9FF4F85B08346DDE9158AAC
:106D2000DDE91349DDE91775129E05F00200F8B997
:106D30004FB105F0010030B1B9F1000F02D105F0FB
:106D40000C0000B17F1E03E030222046641C325448
:106D5000544501D2202CF7D303E030222046641C96
:106D6000325405F0010018B1BC4201D2202CF4D3FA
:106D700005F01000B0B305F4806050B94CB1544533
:106D800001D0BC4205D1641E1CB1B8F1100F00D176
:106D9000641EB8F1100F09D105F0200030B9202C85
:106DA00004D278222046641C325415E0B8F1100F4A
:106DB00009D105F0200030B1202C04D25822204601
:106DC000641C325408E0B8F1020F05D1202C03D224
:106DD00062222046641C3254202C03D230222046EA
:106DE000641C3254202C16D2B9F1000F04D02D228D
:106DF0002046641C32540EE005F0040020B12B2222
:106E00002046641C325406E005F0080018B1202228
:106E10002046641C3254CDE90275CDE90064584621
:106E200006A90EC900F0A2F809B0BDE8F08F2DE95F
:106E3000FF4F8FB08046DDE91FABDDE91D96219D38
:106E40001C9C00270CB925F0100505F4806000B1EA
:106E5000E4B100BFB4FBF6F106FB1141C8B20A2849
:106E600002DA00F1300107E005F0200109B141210B
:106E700000E0612101440A39CBB239467F1C07AAE0
:106E80005354B4FBF6F40CB1202FE3D307A8CDE99B
:106E900004AB8DE8810203960695404610A90EC901
:106EA000FFF738FF13B0BDE8F08F2DE9FF4F8FB02B
:106EB000DDE9217BDDF89080209EDDE91C454FF067
:106EC0000009002184EA01006940084301D128F04B
:106ED000100808F4806028B1002184EA01006940AC
:106EE00008432DD000BF32463B4620462946FAF7DC
:106EF0008CFB02F0FF0ABAF10A0F02DA0AF1300045
:106F000007E008F0200008B1412000E06120504473
:106F10000A38C2B2484609F1010907A90A543246A3
:106F20003B4620462946FAF770FB04460D460021F1
:106F300084EA01006940084302D0B9F1200FD2D39E
:106F40002398CDE9036BCDE9050807A91E98CDE983
:106F5000001902900FA80FC8FFF7DCFE13B0BDE8C0
:106F6000F08F9A4200D28854704770472DE9FF5F36
:106F700005461446DDE90EA6DDE91087A34607F0B5
:106F8000020078B907F0010060B9B14607E0224677
:106F9000641C2020039B0199A84709F10109C14500
:106FA000F5D300BF08E02246641C711E0E461AF895
:106FB0000100039B0199A847002EF4D107F00200BD
:106FC00050B105E02246641C2020039B0199A8478C
:106FD000A4EB0B004045F5D3204604B0BDE8F09F7C
:106FE0002DE9FF4F8BB0074600250C9800B9FA4FEA
:106FF000EAE20E98007825280AD02A466D1C0E99E0
:107000000878DDE90C13B8470E98401C0E90DBE2BF
:107010000E98401C0E90002400BF0E9800782B287C
:1070200019D004DC20281ED023282CD123E02D28C1
:1070300009D0302827D144F001040E98401C0E904E
:1070400001200A9022E044F002040E98401C0E90A9
:1070500001200A901AE044F004040E98401C0E909F
:1070600001200A9012E044F008040E98401C0E9093
:1070700001200A900AE044F010040E98401C0E9083
:1070800001200A9002E000200A9000BF00BF0A9889
:107090000028C2D180460E990878FDF79BFE20B1EA
:1070A0000EA8FDF782FE804612E00E9800782A288E
:1070B0000ED1189901C91891002804DA44F002048D
:1070C000C0F1000800E080460E99491C0E9100BFF7
:1070D0004FF000090E9800782E281FD144F48064E8
:1070E0000E98401C0E900E990878FDF773FE20B1A3
:1070F0000EA8FDF75AFE814610E00E9800782A2867
:107100000CD1189901C91891002801DD014600E051
:10711000002189460E99491C0E9100BF0E980078F7
:107120006C280AD004DC682816D06A2835D128E0FB
:10713000742820D07A2830D129E044F480740E9845
:10714000401C0E900E9800786C2804D144F4007412
:107150000E98401C0E9021E044F080040E98401CD4
:107160000E900E980078682804D144F040040E98E0
:10717000401C0E9012E044F480740E98401C0E9057
:107180000CE044F400740E98401C0E9006E044F4A9
:1071900080740E98401C0E9000E000BF00BF0E9857
:1071A000007869281DD00EDC622821D006DC252855
:1071B0007ED050281AD058287BD115E0632879D08A
:1071C0006428F9D10CE0732875D004DC6F280ED048
:1071D0007028F1D109E0752804D07828ECD102E0BC
:1071E00000BF00BF00BF00BF00BF00BF00BF00BFA7
:1071F0000E980078782803D00E980078582801D18E
:10720000102623E00E980078702803D00E9800789E
:1072100050280CD1102644F0100444F480740E98C9
:107220004078562812D10E98401C0E900EE00E9811
:1072300000786F2801D1082608E00E9800786228AF
:1072400001D1022602E00A2624F010040E980078EC
:10725000582803D00E980078502801D144F020041B
:107260000E980078692805D00E980078642801D01F
:1072700024F00C0404F4806008B124F001040E989A
:107280000078692803D00E98007864287CD104F433
:107290000070B8B31898C01D20F007001890D0E90E
:1072A00000AB189A083218920020CDE9069803E046
:1072B00073E17CE1F2E01CE1CDE904600894BAEBF3
:1072C00000017BEB000001DA012000E0002000213A
:1072D00002900846B1EB0A0170EB0B0002DA50464F
:1072E000594605E000200146B0EB0A0061EB0B01B6
:1072F000CDE900012A463846DDE90C13FFF7D5FD3C
:107300000546C7E0FFE704F48070D0B1189850F844
:1073100004AB18904FEADA70CDE903980296059411
:10732000BAF1000F01DD514601E0CAF10001CDE9DB
:1073300000102A463846DDE90C13FFF778FD0546B4
:10734000A8E004F0400028B1189810F8041B189029
:10735000C8B20DE004F0800028B1189830F8041B82
:10736000189008B204E0189800681899091D18913F
:1073700082464FEADA70CDE9039802960594BAF195
:10738000000F02DD514602E00BE0CAF10001CDE939
:1073900000102A463846DDE90C13FFF748FD054684
:1073A00078E00E980078562818D1189850F804AB59
:1073B0001890DAF804000068099009980090DAF84B
:1073C00000300D98421B0C9841193846FFF708FE13
:1073D0000544002009905DE06B6F009004F400709C
:1073E000D0B11898C01D20F00700CDE90698089488
:1073F00018900020CDE904600290189903C9189AEA
:1074000008321892CDE900012A463846DDE90C130E
:10741000FFF74BFD05463DE004F4807098B1002273
:10742000CDE9039802960594189800681899091DEB
:10743000CDE9000218912A463846DDE90C13FFF722
:10744000F6FC054626E004F0400028B1189810F834
:10745000041B1890C8B20DE004F0800028B1189801
:1074600030F8041B189088B204E018980068189946
:10747000091D189182460020CDE900A0CDE90398AE
:10748000029605942A463846DDE90C13FFF7CFFC37
:10749000054600BF0E98401C0E9093E0012604F0B4
:1074A000020050B905E02A466D1C2020DDE90C13CE
:1074B000B8473046761C4045F5D3189911F8043B7F
:1074C000D8B22A466D1C1891DDE90C13B84704F0B8
:1074D000020050B105E02A466D1C2020DDE90C13A6
:1074E000B8473046761C4045F5D30E98401C0E90A8
:1074F00068E0189850F804AB18905046B9F1000FA6
:1075000001D0494601E04FF0FF310A46014600E054
:10751000491C0B781BB1131EA2F10102F8D10E1AFF
:1075200004F4806028B14E4501D2304600E0484660
:10753000064604F0020050B905E02A466D1C2020E2
:10754000DDE90C13B8473046761C4045F5D306E01C
:107550001AF8010B2A466D1CDDE90C13B8479AF89E
:10756000000040B104F480600028F1D0B9F10000BF
:10757000A9F10109ECD104F0020050B105E02A465E
:107580006D1C2020DDE90C13B8473046761C4045C1
:10759000F5D30E98401C0E9014E02A466D1C252051
:1075A000DDE90C13B8470E98401C0E900AE02A46FD
:1075B0006D1C0E990878DDE90C13B8470E98401C35
:1075C0000E9000BF00BF00BF0E98007800287FF427
:1075D00010AD0D98854201D2284601E00D98401E5D
:1075E00002460020DDE90C13B84728460FB0BDE87D
:1075F000F08FF0B5012A01D1072604E0022A01D15B
:10760000032600E00126354601EA050401269640DE
:10761000761E33402E1B5643B3402CB901FB02F6B5
:1076200000EBD60633700BE001FB02F600EBD6064A
:1076300036781E43F7B201FB02F600EBD606377030
:10764000F0BD2DE9F04104460E46002774B13146E5
:10765000204600F03DF80546B5F5003F05D20C2D5B
:1076600001D9284600E00C20074600BF3846BDE897
:10767000F08170B504460D462A462146012037F0B8
:1076800072FC70BD0269CA400261C2680A44C260ED
:107690007047024600BF481E084018B100BF00BF37
:1076A00000BFFEE700BF481E1040101A704710B51B
:1076B00002464B1E13444C1E23EA040000BF4B1E1F
:1076C0000B401BB100BF00BF00BFFEE700BF10BDF5
:1076D000024600BF481E084018B100BF00BF00BFEF
:1076E000FEE700BF481E10444B1E9843704770B51C
:1076F0000446204618F04FFF05462946204600F074
:1077000001F870BD70B506460C46601C18F08FFE7F
:10771000054635B122463146284618F08EFE002037
:107720002855284670BD00002DE9F04180460E46E0
:10773000444601206086002500270DE056F827000A
:1077400025A1F8F759FF10B1681C85B202E0608EE0
:10775000401C6086781C87B256F8270020B156F886
:10776000270000780028E9D1208EA84201D1BDE889
:10777000F081A06A20B1A06A24F042FB0020A06240
:10778000E06A20B1E06A24F03BFB0020E062E80000
:1077900024F068FAA06200BFA06A18B900BF00BF59
:1077A00000BFFEE700BF680024F05CFAE06200BFA3
:1077B000E06A18B900BF00BF00BFFEE700BFA06AC3
:1077C00008B1E06A00B900256900E06A24F02FFDE5
:1077D000258600BFCBE700000A0000002DE9F84F26
:1077E00081460E46924699F8090000F007000228EB
:1077F00001D1304600E050468346564501DD304613
:1078000000E050460746032000EB470020F003004D
:1078100000F110053948006839490968A0EB0108F2
:10782000002405EB080037490968884206D233482E
:107830000468606820F0004060603AE03148006809
:10784000854221D813E04FF0FF30009000226946B6
:107850002D4814F079F9002269462C4814F074F987
:107860002648006826490968A0EB010800BF08EB1C
:107870000500244909688842E5D820480468606802
:1078800020F00040606014E0284624F0EBF9044644
:1078900000BF1CB900BF00BF00BFFEE700BF14B9A6
:1078A0000020BDE8F88F606820F0004000F1004043
:1078B000606032465946484602F0E1F82060606850
:1078C00000F04040401C6060606820F080406060D4
:1078D000A781A4F80EB06068C00F20B1204600F167
:1078E0001001A16008E0054800681030A06003485E
:1078F00000682844014908602046D2E77801002446
:10790000C4020024740100246758019011BD019045
:10791000F0B585B006460D4634460020049003902D
:10792000029094F83C0000F0030020B1012838D008
:10793000022866D000BF94F83C0000F003005A49CA
:10794000097888421BD02620005D00EB001000EB78
:107950004000142190FBF1F0544908702720005D8D
:1079600000EB001000EB4000142190FBF1F05049B7
:10797000087094F83C0000F003004B49087002A81E
:1079800003A9CDE9001005EB45014FF6FF7202EAAD
:10799000410004AB46490A78444909780DF0D7FA0A
:1079A0005FE094F83C0000F003003F49097888420A
:1079B0001AD0A08C00EB400040024FF4B471B0FB31
:1079C000F1F03C4908802720005D00EB001000EB3F
:1079D0004000142190FBF1F03549087094F83C0008
:1079E00000F003003049087002A803A9CDE9001097
:1079F000E9B204AB2E4802782E4800880DF0A7FAB1
:107A00002FE094F83C0000F00300274909788842F1
:107A10001AD0A08C00EB400040024FF4B471B0FBD0
:107A2000F1F0244908802620005D00EB001000EBF7
:107A30004000142190FBF1F01C49087094F83C00C0
:107A400000F003001849087002A803A9EAB204ABC9
:107A5000CDE9001015480178164800880DF077FA36
:107A600000BF00BF9DF810009DF80C109DF8082085
:107A7000D708BDF8003067F304038F080093BDF802
:107A8000003067F34A13C7080093BDF8003067F36E
:107A9000CF230093BDF800703B460193BDF804105E
:107AA000084605B0F0BD0000E2010024E00100241A
:107AB000E1010024DE01002410B50120074908700F
:107AC0000748FEF754FC20B9064800682DF042FF35
:107AD00003E0044800682DF049FF10BDAC0200240B
:107AE00090EB0524B002002410B5044694F83E0043
:107AF000C0F3400050B9A08F002807DDA08F4FF6DB
:107B0000FF71884202D0A08F401EA087A08FA8B925
:107B1000606B20B194F83E00C0F3400070B1214684
:107B20001748FEF7A3FCFFF7C7FFE06810B1204637
:107B3000E1688847204624F063F91FE0A06B4042CB
:107B4000E062606BD0B194F83E10C1F3400111B90E
:107B5000216B4942E16294F83E104908C94394F808
:107B60003E2061F3410284F83E20E069616AE161F0
:107B70006062A06A616BA162606300BF10BD00001B
:107B800090EB05242DE9F0418046424800682DF035
:107B90005DFD06464048007880F001003E490870CF
:107BA0003E48FEF7E4FB04466BE000203C490870C9
:107BB00094F83E00C0F3800037490978884253D0DA
:107BC000354801782C34A07C61F38200A0742068D1
:107BD0008719A07C2C3CC0F3C00010BBE06A0028D1
:107BE0001FDC002F1DDB94F83E0000F0010060B99F
:107BF000206950B12046216988470546E06928443C
:107C0000E061606A2844606200BFA06810B120464D
:107C1000A168884794F83E0020F00800083084F8F6
:107C20003E00E06A3044E062E06A00281BDBD4E9F1
:107C30000A10884201DDA06AE0622046A1698847F7
:107C40000546206AA84206D02562606818B1294618
:107C5000D4E900029047D4E90A10884202DB2046AA
:107C6000FFF742FF00BF00BF0D48007820B10B486E
:107C7000FEF77DFB044604E021460848FEF78FFB33
:107C80000446002C91D12DF0EEFC02490860BDE8BD
:107C9000F0810000A8020024AD02002490EB05242E
:107CA000AC020024F7B582B004460E4614B904981D
:107CB00005B0F0BD00BF63223146204627F076FDB7
:107CC0000190019D00BFBDB12868A8B100BF64222A
:107CD0003146204627F06AFD01900198C0B2074660
:107CE0004FB13A462B682846049998470190BDF851
:107CF0000400ADF8100000BF0498D9E770B5044641
:107D00000D46606818B129466068FFF7F7FF2068E4
:107D100018B1294620462268904770BD70B50546C7
:107D20000C46A1B2284619F03DFA70BD70B5054663
:107D30000C46A1B2284619F086FA70BD10B511F0B4
:107D40006BFF10BD70B505460C46164606E028468A
:107D50006A1C95B200F008F804F8010B301EA6F179
:107D600001018EB2F3D170BD70B50446002612F049
:107D700019F82112A02202EB4101C8B211F0DAFF7A
:107D800012F058F82546E11704EB11610912A4EB33
:107D90000121C8B211F0CEFF12F04CF812F002F837
:107DA000A12011F0C7FF12F045F8002011F092FF5A
:107DB000064612F01FF8304670BD70B505460C46F9
:107DC000164606E02178284600F009F8681C85B2BE
:107DD000641C301EA6F101018EB2F3D170BD70B5E6
:107DE00004460E4611F0DEFF2112A02202EB4101F3
:107DF000C8B211F09FFF12F01DF82546E11704EB01
:107E000011610912A4EB0121C8B211F093FF12F025
:107E100011F8304611F08EFF12F00CF811F0EAFF65
:107E20000A20F9F7D4FB70BD70B504460D4600BFBB
:107E3000204600F03BF818B100BF00BF00BFFEE7CE
:107E400000BF284600F050F9001D616808446060DA
:107E5000204600F03AF8204670BD70B505460C4645
:107E6000284600F041F904F11001884201D30120B5
:107E700070BD0020FCE70146A1F1080070477CB509
:107E800005460C46204600F02FF906466A4601A931
:107E90002EF05AFD21462846DDE9003213F0D6F9CE
:107EA0007CBD0146087900F00100704710B504461A
:107EB000204600F019F908B9012010BD0020FCE7A8
:107EC0000146087900F00200704770B5044620466C
:107ED00000F097F805462C60284670BD7CB5064634
:107EE0000C4600200190009000256CB16A4601A963
:107EF00020462EF046FD01980B2805DA6A4601A9B6
:107F0000304632F009FA054685B100BF284600F038
:107F1000EBF8A04203D200BF00BF00BFFEE700BFE6
:107F200029463046DDE9003231F033FC28467CBD7D
:107F300070B504462046FFF7C8FF0546284600F006
:107F4000BEF8204600F0B6F870BD70B50446204675
:107F500000F057F80546284600F0B6F8204600F035
:107F6000BEF870BD70B506460D46284600F049F8CB
:107F7000044600BF1CB900BF00BF00BFFEE700BF42
:107F80002046FFF78EFF90B100BF2846FFF78EFF17
:107F900018B100BF00BF00BFFEE700BF214630465A
:107FA00000F076F821462846FFF73EFF05462846B2
:107FB00070BD70B506460D462846FFF781FFF0B14B
:107FC000284600F057F8044600BF1CB900BF00BFA8
:107FD00000BFFEE700BF00BF2046FFF762FF18B9F1
:107FE00000BF00BF00BFFEE700BF2146304600F0E3
:107FF0004FF829462046FFF717FF054600BF2846E1
:1080000070BD2DE9F0410446204600F06DF8061FD2
:10801000204600F0B8F8074631462FF057FB0546DA
:1080200000BF2046FFF742FF18B100BF00BF00BFEE
:10803000FEE700BF2846BDE8F0812DE9F041064685
:108040000C461546002794B100BF1DB900BF00BF04
:1080500000BFFEE700BF2A462146304600F097F8F1
:108060002046FFF772FF204600F08DF8074638469D
:10807000BDE8F08110B5044600BF2046FFF720FFA1
:1080800018B900BF00BF00BFFEE700BF206810BDE9
:108090007CB505460C46204600F026F806466A46A2
:1080A00001A92EF051FC21462846DDE9003231F0CD
:1080B00070FB7CBD416841F001014160704741683F
:1080C00041F0020141607047416821F002014160C6
:1080D0007047426802F003030B43436070474168F6
:1080E00021F00101416070470146486820F003001B
:1080F00070472DE9F04706460C46304600F043F83D
:108100008046211F2FF0E2FA07463046FFF7ECFFCA
:10811000211D451A00BF384600F035F88146384623
:1081200000F031F880460421FFF7C1FA814503D001
:1081300000BF00BF00BFFEE700BF00BF3046FFF733
:10814000D3FF2919091D884203D000BF00BF00BF1B
:10815000FEE700BF29463846FFF7BBFF00BF3846A1
:10816000FFF7C2FF0C2803D200BF00BF00BFFEE72D
:1081700000BF21463046FFF7ACFF3846FFF7D8FE78
:108180003846BDE8F087014601F1080070472DE947
:10819000F04106460C46154600BF2046FFF781FE1B
:1081A00018B900BF00BF00BFFEE700BF2946204648
:1081B000FFF753FE78B129462046FFF79AFF07469E
:1081C0002046FFF782FE3846FFF779FF39463046F2
:1081D000FFF755FE00BFBDE8F0812DE9F0410646EE
:1081E0000C46154600BF2046FFF75BFE18B100BFE6
:1081F00000BF00BFFEE700BF29462046FFF72DFE67
:1082000088B129462046FFF774FF07463846FFF736
:108210005BFF39463046FFF7A5FE07463946304634
:10822000FFF72DFE00BFBDE8F0812DE9F8430646BB
:10823000344621F0ADFD8046404621F0EEFD78BB8E
:1082400030461FF0DEF938B330461FF056F8208F65
:10825000E18E884212D0E08E2087E08E00906A4640
:108260001C2130461FF0BAFC0746012F02D03846C9
:10827000BDE8F883304628F0BAF800BF404621F048
:10828000DCFD0546042D06D1304625F011FF0746DA
:10829000002120F070FB09E030461FF015FA05E0E0
:1082A000FFE7208FE086304628F0A1F80120DFE7C5
:1082B0002DE9F041044620461FF08AFC0546284679
:1082C00025F050FF064628461AF01AF80746012204
:1082D000394630462CF072FBBDE8F0810146C1F30F
:1082E000C01070470146C1F3801070470146C1F3CA
:1082F000C01070470146C1F3002070470146C1F32A
:10830000C00070470146C1F3401070470146C1F3F9
:10831000402070470146C1F3003070470146C1F369
:10832000001070472DE9F04F89B004460D4600213A
:10833000204625F0B2FD30B91C21284623F077FFF6
:1083400009B0BDE8F08F2946204600F00BFB294616
:10835000204600F07DF80021204626F0DEFF089040
:108360000021204627F052F907900021204626F0F0
:1083700094FD012800D100E0002081460021204624
:1083800027F007FC07460021204626F074FE06462B
:1083900042F2D170874205D1608CC0F3802008B9C9
:1083A000012000E000208246204625F016FE0690BF
:1083B00000BF4FF00008244802884146204627F0BD
:1083C000F5F903900398C0B200BF8346AA682969F3
:1083D0002868CDE90209CDE900125A465146089BAA
:1083E000069810F037FF288342F2D170864205D1FB
:1083F000608CC0F3402008B9012000E00020059007
:10840000204625F0CBFD049000BF4FF000080F4838
:1084100002884146204627F0C9F903900398C0B26C
:1084200000BF83460023EA6869686869CDE90213E2
:10843000CDE900025A46079BDDE9040110F00AFF6E
:10844000688300BF7CE700007E02002482020024D3
:108450002DE9F34F87B00C4607980FF0E9FC8046F2
:10846000079825F0BAFD0690404601F0C2FB206156
:108470002169480023F030FC20602169480023F086
:108480002BFCA060002548E05848029038F9150000
:1084900041F69A7188423FD10020019029E001996C
:1084A000079825F0FAFC00905149009827F00DFC40
:1084B00000B11BE000980FF0D9FC8246BAF1010F21
:1084C00000D013E000980FF0C1FC8346AB4500D00C
:1084D0000CE0009827F091FB0299884201DA02989B
:1084E00002E0009827F089FB029000BF0198401C31
:1084F0000190079825F0EFFC01998842CFD80298A7
:10850000002804DB0298A16821F8150003E000218F
:10851000A06820F8151000BF6D1C2069A842B3D8D0
:108520000026B14600251BE038F9150041F69B7185
:10853000884202DB411A0E4411E041F69A718842EA
:1085400006D1A16831F8151049440FFA81F906E007
:10855000A16821F8150009EB00010FFA81F96D1CE3
:108560002069A842E0D80021079826F0D6FE0590A1
:108570002169491EDDE9050200FB112000B20690C9
:108580000698A0EB090007B2002F00DA00274FF091
:10859000FF30049000200390002513E038F9150007
:1085A00041F69B7188420CDB421A11B207FB01F2C3
:1085B000B2FBF6F212B2A36823F8152004950391DA
:1085C00000BF6D1C2069A842E8D8049800280ADB87
:1085D0000398301A7843B0FBF6F0381A01B2A2685B
:1085E000049822F8101009B0BDE8F08F01E0FFFFF9
:1085F000010006002DE9FC5F0546002211462846D1
:1086000028F0BAFF0021284626F0A1FC814600216F
:10861000284627F022F8484407B20021284626F0D1
:10862000D3FD48440FFA80FA284626F08FFB3844E1
:1086300050440FFA80FB3B4E284625F04CFC01903D
:108640004FF000085CE0A868006850F82840364900
:10865000204627F03AFB00B150E0204627F044FFC7
:10866000002839D10021204626F0A2FB0090009876
:1086700030B1012807D0022804D0032815D100E02A
:1086800000BF00BF00BFB4F91A10B5F91600081AF0
:10869000401CB04201DA304605E0B4F91A10B5F9D1
:1086A0001600081A401C06B214E00021204627F0EC
:1086B00097FA70B904F1140018F09FFE3844B042E4
:1086C00001DA304604E004F1140018F096FE384454
:1086D00006B200BF00BF10E0B4F91A10B5F91600D9
:1086E000081A401CB04201DA304605E0B4F91A100D
:1086F000B5F91600081A401C06B200BF08F10108BF
:10870000019880459FD30748864209D006EB0A00AE
:1087100006B25E4502DD3046BDE8FC9F5846FBE7E9
:108720005846F9E701E0FFFF010004002DE9FC5F76
:10873000054600221146284628F002FF002128465F
:1087400026F005FC82460021284626F0C3FE504450
:108750000FFA80F80021284626F013FE50440FFA45
:1087600080F9284626F002FB4844404400B20190BC
:10877000724C284625F0AFFB83460021284626F0A0
:1087800058FB012866D100265BE0A868006850F815
:1087900026706B49384627F098FA00B150E0384609
:1087A00027F0A2FE002839D10021384626F000FB30
:1087B0000090009830B1032805D0062804D008287E
:1087C00015D102E000BF00BF00BFB5F91800B7F92E
:1087D0001410401A401CA04201DA204605E0B5F909
:1087E0001800B7F91410401A401C04B214E000211C
:1087F000384627F0E8F970B907F1140018F070FE58
:108800004044A04201DA204604E007F1140018F0C9
:1088100067FE404404B200BF00BF10E0B5F9180085
:10882000B7F91410401A401CA04201DA204605E0B6
:10883000B5F91800B7F91410401A401C04B200BF73
:10884000761C5E45A1D33D48844269D004EB090003
:1088500004B265E000265BE0A868006850F8267066
:108860003749384627F031FA00B150E0384627F052
:108870003BFE80BB0021384626F09AFA0090009813
:1088800030B1012805D0042804D0072815D102E012
:1088900000BF00BF00BFB7F91800B5F91410401AA7
:1088A000401CA04201DA204605E0B7F91800B5F9EE
:1088B0001410401A401C04B215E00021384627F07D
:1088C0008FF978B907F1140018F00AFE4844A04265
:1088D00002DA204605E008E007F1140018F000FE77
:1088E000484404B200BF00BF10E0B7F91800B5F962
:1088F0001410401A401CA04201DA204605E0B7F9E6
:108900001800B5F91410401A401C04B200BF761CC0
:108910005E45A1D30948844202D004EB080004B2AA
:108920000648844202D10198BDE8FC9F0198844228
:1089300001DD2046F8E70198F6E7000001E0FFFFBF
:108940000100040010B50446206823F041FA606875
:1089500023F03EFAA06823F03BFAE06823F038FAEF
:1089600010BD00002DE9F34F87B00C46079810F0BA
:1089700007FA8046404601F03CF9606161694800B1
:1089800023F0AAF960606169480023F0A5F9E0606E
:10899000002548E05948029038F9150041F69A71CF
:1089A00088423FD10020019029E00199079825F0E5
:1089B00074FA00905249009827F087F900B11BE043
:1089C000009810F0A5FA8246BAF1010F00D013E02A
:1089D000009810F08DFA8346AB4500D00CE000986B
:1089E00025F070FB0299884201DA029802E00098B3
:1089F00025F068FB029000BF0198401C0190079889
:108A000025F069FA01998842CFD80298002804DB42
:108A10000298E16821F8150003E00020E16821F8E0
:108A2000150000BF6D1C6069A842B3D80026B1468E
:108A300000251BE038F9150041F69B71884202DBE6
:108A4000411A0E4411E041F69A71884206D1E1685C
:108A500031F8151049440FFA81F906E0E16821F870
:108A6000150009EB00010FFA81F96D1C6069A8423D
:108A7000E0D80021079826F0C9FD0690079825F058
:108A80008DFA01466269521E069800FB121000B270
:108A900005900598A0EB090007B2002F00DA002727
:108AA0004FF0FF30049000200390002511E038F9CA
:108AB000150041F69B7188420ADB421A11B207FB8E
:108AC00001F2B2FBF6F212B2E36823F8152000BF00
:108AD0006D1C6069A842EAD8049800280ADB039854
:108AE000301A7843B0FBF6F0381A01B2E268049805
:108AF00022F8101009B0BDE8F08F000001E0FFFF80
:108B0000010006007CB504460D46164628882189DA
:108B1000084400B2ADF8000068886189084400B2DA
:108B2000ADF80200A8882189084400B2ADF804001D
:108B3000E8886189084400B2ADF80600324669460B
:108B40002046636998477CBD2DE9F04704460D46F1
:108B500090469946AD1E606B00EB153AC5F3C8060A
:108B600005F0070101208840C7B200BF51460AF155
:108B7000010A20462EF048FA10B10120BDE8F08726
:108B800000BF00BF04F13C00805D384008B1012007
:108B900000E00020484501D10220EFE704F13C004D
:108BA000805D784004F13C0188550120E070A8F117
:108BB0000100B0F1000800D1E0E77806000E071EC2
:108BC000E0D10127701C0646B0F5007FD9D30026FE
:108BD000CCE70000F8B505460E462C46206B10B1D8
:108BE000206B007818B9606B08B90120F8BD606B84
:108BF00058B128462CF0D7FA07461049096888472B
:108C0000616B884201D30020F0E7206B98B100200F
:108C100000900AE069460A4A206B126890470746AE
:108C2000B74201D10120E1E700BF206B0099405C11
:108C30000028EFD1DAE70120D8E700000403002480
:108C4000F40200240246042A2AD005DC4AB1022A92
:108C500014D0032A34D118E0062A28D0FF2A2FD1B5
:108C60002CE0012909D0022907D0042905D00829C0
:108C700003D0102901D02520704723E0082903D014
:108C8000102901D02520F7E71CE0012907D002298F
:108C900005D0042903D0082901D02520ECE711E0F4
:108CA000082903D0102901D02520E5E70AE008298A
:108CB00003D0102901D02520DEE703E01F20DBE7E9
:108CC0001F20D9E700BF0020D6E7000070B504469A
:108CD0000D460020E070401EA063294620462EF07D
:108CE00093F908B1042070BD04F23A2016F0DAF9C5
:108CF0004AF65521884201D00320F4E70B2214A143
:108D000004F13C002DF067FE08B90120EBE794F870
:108D10003C00E92807D094F83C00EB2803D094F8F5
:108D20003C00E82811D103220CA104F172002DF0BF
:108D300052FE08B90020D6E7052209A104F18E00F1
:108D40002DF049FE08B90020CDE70220CBE7000056
:108D5000EB7690455846415420202000464154006F
:108D600046415433320000002DE9FF4F8FB00F46CB
:108D7000209DF87800F0010008B1FA4800E0FA48B8
:108D80000E90F87800F0010008B1F84800E0F848CB
:108D90000D90F87800F0010008B9F44800E0F448BC
:108DA0000C9001200B90B5E000220B9200206A8805
:108DB000B5F804C0A2EB0C0211B200261AE006EBD3
:108DC000860CEA6802EB8C02127C02F0010242B9C6
:108DD00006EB860CEA6802EB8C029289024410B220
:108DE00007E006EB860CEA6802EB8C0212898A1A0D
:108DF00011B2761C2A69B242E1D8002685E006EB62
:108E0000860CEA6802EB8C02127C02F00102002A56
:108E10007AD191FBF0F80FFA88F306EB8609D5F8C2
:108E20000C8008EB8908B8F80C8008FB03F80FFAEF
:108E300088F206EB8609D5F80C8008EB8908B8F9AA
:108E4000049006EB860AD5F80C8008EB8A08B8F97E
:108E50000680904501DD904607E006EB860AD5F8CE
:108E60000C8008EB8A08B8F90680C14508DD06EBDE
:108E70008609D5F80C8008EB8908B8F9048013E05E
:108E800006EB8609D5F80C8008EB8908B8F906804E
:108E9000904501DD904607E006EB8609D5F80C8089
:108EA00008EB8908B8F90680C44694450BD04FF00A
:108EB000010806EB860AD5F80C9009EB8A09C9F877
:108EC0001080CDF82C8006EB8609D5F80C8008EBD5
:108ED0008908A8F808C006EB8609D5F80C8008EBCD
:108EE0008908B8F80C80A0EB08080FFA88F006EBA8
:108EF0008609D5F80C8008EB8908B8F80880A1EB42
:108F000008080FFA88F100BF761C2A69B2423FF6C2
:108F100076AF00BF0B9800287FF446AF00210F9872
:108F200025F0AEFF012800D100E000200A900020CB
:108F30000990089008A809A9CDE9001029890BB269
:108F4000B5F9022038781E992EF036FCF87800F03A
:108F5000010048B10A9838B10F9825F03EF8BDF8E5
:108F60002410084400B2099011990F9824F095FF3D
:108F700004468AE17F49204626F0A7FE40B1F878F2
:108F8000C0F3800111AA0F980FF035FD04467CE173
:108F90000021204626F038F807900798002858D07E
:108FA00000200390002610E006EB8601E86850F8E8
:108FB0002100A04208D106EB8600E96801EB8000A1
:108FC000B0F90800039003E0761C2869B042EBD8A2
:108FD00000BFF87800F0010030B1608C20F48060B0
:108FE00000F58060608405E0608C20F4007000F57E
:108FF0000070608404F114000D9988470399884239
:1090000026D0204627F0F3F900BFA08AADF804006F
:10901000E08AADF80600208BADF80800608BADF853
:109020000A0000BF04F114000E9A0399904701AAA8
:10903000292120461EF0D2FD204625F093F8224635
:10904000222100901EF0CAFD204627F0D0F900BF73
:1090500007E0608C20F480606084608C20F40070F5
:109060006084002006907878012812D0022819D157
:1090700004F114000C998847B5F90010491C21F03F
:109080000101081A039000EBD070401000B2069066
:1090900009E004F114000C9988472988081A00B2E5
:1090A000069000E000BF00BFF87800F0010050B16A
:1090B0000A9840B104F114000D998847BDF82410B6
:1090C000081A00B209900020039043F20C022046D7
:1090D000039926F06BFB029002980FFA80F800BF0C
:1090E0000020039043F20D022046039926F05EFB18
:1090F000029002980FFA80F900BF204626F07DFD0D
:109100000590204624F0DEFF049008F4C040B0F53E
:10911000005F01D1012000E0002030B128F4C04000
:10912000B0F5FA6F01DC012000E0002090B128F4D6
:10913000C040B0F57A7F04DD28F4C040C0F57A70F5
:1091400001E028F4C04005994843642190FBF1F008
:109150000FFA80F809F4C040B0F5005F0CD101208F
:109160000BE000001F160290131602906D1502907E
:109170005D14029001000600002030B129F4C040C7
:10918000B0F5FA6F01DC012000E0002090B129F475
:10919000C040B0F57A7F04DD29F4C040C0F57A7094
:1091A00001E029F4C04004994843642190FBF1F0A8
:1091B0000FFA80F9A18A1C98401A40440FFA80FAED
:1091C000E18A1D98401A48440FFA80FBF87800F0B5
:1091D000010010B1BDF9240000E0069850440FFAD8
:1091E00080FAF87800F0010008B1069801E0BDF9B6
:1091F000240058440FFA80FBBAF1000F02D1BBF1F2
:10920000000F1BD0204627F0F2F8A08A504400B28D
:10921000A082208B504401B22183E08A584401B2DD
:10922000E182608B584401B26183204627F0DFF869
:1092300001235A465146204627F0B6F9F87800F047
:10924000010008B10A9870B904F114000D9988471B
:109250001F990844BDF820100844BDF824100844A4
:1092600000B2099008E0BDF820101F980844BDF82E
:109270002410081A00B20990F878C0F3800111AAEE
:109280000F980FF0B8FB044600BF24B1DDE91110C0
:1092900081427FF46FAE13B0BDE8F08F024600E06C
:1092A000521C107810B110788842F9D110787047AC
:1092B0002DE9F04F8DB005468946B9F1000F02D176
:1092C0000DB0BDE8F08FA5F81890286810B1286897
:1092D00022F096FD09EB4901062202EB410022F043
:1092E000C1FC286000BF286818B900BF00BF00BFDC
:1092F000FEE700BF286868600221286801FB0900BA
:10930000801CE8600421286801FB0900001DA8609A
:10931000B9F1010F0CD1B420696808700020E96828
:1093200008800120E96848800020A9680880C7E714
:1093300009F10101C80022F0CFFC074609F1010044
:1093400007EB80084FF0000A4FEA890002B20BA930
:109350000CA800F067F90024BDF9300080100790D8
:1093600000200390CCE0002616E00BA90CA800F02A
:1093700061F90CA800F04BF900B90FE0BDF930001D
:10938000801007A941F82600BDF8300000F0030066
:1093900003A941F82600761C042EE6DB00BF042E4C
:1093A00000D0B3E00A990798884219D1079800B213
:1093B00027F814000FFA8AF028F81400DDE90301F9
:1093C000084405990844069908446968085568687E
:1093D000005D0007000E69680855601C04B28DE04E
:1093E000DDE9070188422CD0079800B227F8140065
:1093F0000FFA8AF028F8140003986968085568681D
:10940000005D0007000E69680855601C04B20798EB
:10941000401E00B227F814000FFA8AF028F8140052
:109420000498001D05990844069908446968085580
:109430006868005D0007000E69680855601C04B28A
:109440005CE00999079888422CD0079800B227F869
:1094500014000FFA8AF028F81400DDE9030108442B
:10946000696808556868005D0007000E696808555E
:10947000601C04B20798401E00B227F814000FFACF
:109480008AF028F81400059808300699084469689D
:1094900008556868005D0007000E69680855601C83
:1094A00004B22BE0079800B227F814000FFA8AF0F4
:1094B00028F81400DDE903010844059908446968A7
:1094C00008556868005D0007000E69680855601C53
:1094D00004B20798401E00B227F814000FFA8AF071
:1094E00028F8140006980C30696808556868005D13
:1094F0000007000E69680855601C04B20AF1010AF1
:109500000CA800F084F800287FF42DAF00BF40F2D3
:10951000D32109FB01F00290029880120190601E95
:1095200037F910100198814205D1601E38F91010EA
:109530000198814226D0DDE90121A1EB8220B0F51E
:10954000007F04DC00FB00F14800001407E0C0F5D8
:10955000806000FB00F148000014C0F10F00019989
:1095600009B227F81410019909B228F814106A6892
:1095700010556968095D0907090E6A681155611C73
:109580000CB200BFA61E0EE038F8160027F8140033
:1095900037F8160028F814006868805D6968085577
:1095A000761E601C04B2002EEEDA4FF0000B00268F
:1095B0000020E968088023E0E96821F81B6037F89B
:1095C0001600A96821F81B0010E0A86830F81B00FD
:1095D00037F91610884203DAA86830F81B0001E05A
:1095E00037F91600A96821F81B00761C38F9160017
:1095F000584501D1A642E8DB0BF101000FFA80FBD0
:10960000A642D9DB384622F0E3FB00BF58E601460C
:10961000B1F90200B1F90020904201DC012070474D
:109620000020FCE7028000234380C2F101031BB24B
:109630000B807047B1F90020002A07DC0B884288B4
:109640005200D21C1A4412B20A800CE042880388ED
:10965000D21A5200521D0B881A4412B20A80028894
:10966000521E12B202804288521C12B242807047CF
:109670002DE9F84F824615461E46DAF800000090A4
:10968000DAF8500000F104094FF400720023284674
:109690003146F7F7BAFF07460098B0F80AC06246AD
:1096A00000233846F7F7B1FF834600BF59F8044B53
:1096B00014B90020BDE8F88FA34500D204E0ABEB5D
:1096C000040B09F10409F1E700BFD9F80000584480
:1096D000F0E70246891ED069801E884201D800202A
:1096E00070475389106B03FB0100F9E72DE9F04740
:1096F00080460C4604F11A0015F0D4FC10B100208D
:10970000BDE8F087207800F03F00401E00EB8001AC
:1097100001EBC0054FF00109002621E01849895DE1
:10972000081915F0BFFC0746B9F1000F11D0FF2D45
:109730000BD838460BF0F0FC824629466D1C38F8F1
:1097400011000BF0E9FC824501D00020D8E7B946B2
:1097500005E04FF6FF70874201D00020D0E7761C6D
:109760000D2EDBD3207800F0400038B1B9F1000FA6
:1097700004D038F8150008B10020C1E70120BFE788
:109780007C89049037B582B01546022D04DCBDF803
:109790000C10084605B030BDBDF80C00C00ABDF87D
:1097A000081000EBD1241F2C01D2204600E01F201E
:1097B000BDF8081060F3CF210291BDF80C00C0F392
:1097C0004510BDF80810C1F3451144183F2C01D2D3
:1097D000204600E03F20BDF8081060F34A110291D6
:1097E000BDF80C0000F01F00BDF8081001F01F01CB
:1097F00044181F2C01D2204600E01F20BDF808109D
:1098000060F304010291FF2D03D1BDF80810084652
:10981000C0E72A46DDE9020119F09CFF0190BDF87E
:1098200004100846B6E717B581B01446022C04DCD4
:10983000BDF80810084604B010BDBDF80400C00A09
:10984000BDF80810C90A10FB01F04109BDF8040079
:1098500061F3CF200190BDF8040000F01F00BDF8B7
:10986000081001F01F0110FB01F04109BDF80400D0
:1098700061F304000190BDF80400C0F34510BDF889
:109880000810C1F3451110FB01F08109BDF8040077
:1098900061F34A100190FF2C03D1BDF80410084673
:1098A000C9E72246DDE9010119F054FF0090BDF837
:1098B00000100846BFE737B582B01546022D04DC1C
:1098C000BDF80C10084605B030BDBDF80C00C00A4C
:1098D000BDF80810A0EBD124002C01DD204600E0EB
:1098E0000020BDF8081060F3CF210291BDF80C00F4
:1098F000C0F34510BDF80810C1F34511441A002CFF
:1099000001DD204600E00020BDF8081060F34A1198
:109910000291BDF80C0000F01F00BDF8081001F026
:109920001F01441A002C01DD204600E00020BDF894
:10993000081060F304010291FF2D03D1BDF8081057
:109940000846C0E72A46DDE9020119F003FF01904D
:10995000BDF804100846B6E72DE9F05F04460F464F
:1099600090469946DDE90AAB00252DE047FA05F05F
:10997000C007010F48FA05F000F00100042212FBB5
:10998000001149FA05F000F00100022212FB00115B
:109990004AFA05F000F00100012212FB001654F80B
:1099A000260070B9442016F042FD44F8260054F811
:1099B000260010B95320BDE8F09F54F8260000F0AF
:1099C00053F854F826406D1C082DCFDBC4F840B086
:1099D0000020F0E770B5054600240BE055F82400A0
:1099E00038B155F82400FFF7F5FF55F8240016F0BC
:1099F00071FB641C102CF1D170BD2DE9F0410446BF
:109A00000D46069F002100BF26E045FA01F0C00781
:109A10004FEA107C42FA01F000F001004FF0040818
:109A200018FB00CC43FA01F000F001004FF00208EF
:109A300018FB00CC47FA01F000F001004FF00108DC
:109A400018FB00C654F8260018B94FF0FF30BDE8E7
:109A5000F08154F82640491C0829D6DB0CB1206C53
:109A6000F5E74FF0FF30F2E710B504464022002141
:109A7000204616F0ECFC4FF0FF30206410BD08B516
:109A8000034600930098484080EA620008BD2DE933
:109A9000F84F804640461EF09BF8824640461EF036
:109AA00036F80646504624F05DFB81462B2E09D140
:109AB00048462AF076FF04460022214648462AF00E
:109AC0007DFF3AE00A2E38D16946504624F0CCFB9F
:109AD000504624F082FA04460021484625F0C3F996
:109AE00001280AD1204604EBD071BDF90020C2EB59
:109AF000610191FBF4F10DB209E0204604EBD07155
:109B0000BDF9002002EB610191FBF4F10DB2002DD3
:109B100000DA0025002748462AF043FFA84200D07B
:109B200001270122294648462AF048FF27B1002292
:109B30001C2148461EF052F800BFBDE8F88F10B552
:109B40008060C06000230361002110E0002400F168
:109B5000140343F82140002206E000F1400303EB28
:109B6000C11343F82200521C202AF6DB491C0B29A2
:109B7000ECDB10BDFCB502460B461146002035E07B
:109B800011F8204001EB80077D7801EB8007BE785B
:109B90004FEAD60CBDF800706CF304074FEA950C41
:109BA0000097BDF800706CF34A174FEAD40C009789
:109BB000BDF800706CF3CF270097BDF800C0674672
:109BC000019701EB8004E57800EB4004A41C1555D7
:109BD000BDF80440251200EB4004641C1555BDF887
:109BE0000440E5B200EB40041555401C9842C7D331
:109BF000FCBD0146002000E0401C31F9102041F678
:109C0000FF739A42F8D170472DE9F04706468A461D
:109C10003468BAF1000F0AD1D4F81480B8F1000FFB
:109C200002D0E069404516D84FF0010813E05146D4
:109C300030460EF051F90746022F02D20120BDE84E
:109C4000F087781C08B93846F9E7E069B84201D9CD
:109C50003846F4E7D046A06908B90020EFE720783D
:109C600004284ED10122414620460BF09FFD0546B7
:109C70000DB1681C08B92846E1E701231A462946B8
:109C80002046FEF761FF8146B9F1020F01D10120A4
:109C9000D5E7B9F1010F02D14FF0FF30CFE7BAF1AC
:109CA000000F02D10220F0710CE0F079022809D1F6
:109CB00008F10100854205D0B068A8EB0000B06152
:109CC0000320F071F079022869D00AF10100854281
:109CD00007D1F06910B1F069401C00E00220F0618A
:109CE0005DE0F06908B90120F0612A46514630462E
:109CF0000BF037FB8146B9F1000F50D10120F06124
:109D00004DE00025D04519D108F10105E069A842D0
:109D100000D80225294630460EF0DEF80746012F0E
:109D200001D0781C08B9384689E73FB16769022F2E
:109D300003D3E069B84200D9B8460025E5B94546E5
:109D400000BF6D1CE069A84204D80225454501D931
:109D5000002074E7294630460EF0BEF8074607B9E2
:109D600009E0012F01D0781C08B9384667E745455E
:109D7000E7D1002063E700BF4FF0FF3229462046BD
:109D80002EF069FA8146B9F1000F08D1BAF1000F3F
:109D900005D02A46514620462EF05DFA8146B9F19B
:109DA000000F0DD16561D4E90610801E814202D8F2
:109DB000A069401EA061207940F00100207107E0F9
:109DC000B9F1010F02D14FF0FF3000E0012005464C
:109DD000284634E72DE9F34F85B0814606980068A0
:109DE0000290D9F80000D0F80CA0002500BF02A80E
:109DF00032F051FD83460BF1010018B9062007B07F
:109E0000BDE8F08FBBF5803F05D34FEA1B422846E3
:109E10006D1C2AF810201FFA8BF4202C03DB2F2C4A
:109E200001D05C2C00D111E0802C06DA214679A00B
:109E3000FFF734FA08B10620E1E7FF2D01D3062031
:109E4000DDE728466D1C2AF81040D0E700BF202C23
:109E500001DA04260CE0002602E00298401C029081
:109E6000029800782F28F8D0029800785C28F4D067
:109E700002990698016008E0681E3AF81040202C0C
:109E800002D02E2C00D002E06D1E002DF4D100BFB8
:109E900000202AF815000DB90620B0E7002700E0E1
:109EA0007F1C3AF817002028FAD01FB93AF817009B
:109EB0002E2801D146F0030600E06D1E25B1681E74
:109EC0003AF810002E28F8D10B22202109F1400089
:109ED0002CF0A0FD4FF00008CDF810800820039072
:109EE00000BF38467F1C3AF8104004B966E0202CC9
:109EF00003D02E2C04D1AF4202D046F00306F0E787
:109F0000DDE90310884201D2AF4216D103980B2835
:109F100002D146F0030651E0AF4201D046F00306FD
:109F2000AF4200D94AE02F46082004900B2003904E
:109F30004FEA88604FEA1068D3E7802C0ADB46F0CE
:109F4000020620460BF0E8F84FF46A7101900BF01E
:109F5000A9F80446FF2C11DD0398401E049988429D
:109F600004D846F0030603980490BAE72212049836
:109F7000411C049109F140010A5418E024B1214622
:109F800027A0FFF78BF918B15F2446F003060EE017
:109F9000412C03DB5A2C01DC48F00208612C06DB63
:109FA0007A2C04DC48F00108A4F1200084B2049863
:109FB000411C049109F140010C5492E700BF99F84B
:109FC0004000E52802D1052089F8400003980828C0
:109FD00003D14FEA88604FEA106808F00C000C28A3
:109FE00003D008F00300032801D146F0020606F072
:109FF000020048B908F0010008B146F0100608F068
:10A00000040008B146F008064B2000F80960002063
:10A01000F5E60000222A3A3C3E3F7C7F000000002B
:10A020002B2C3B3D5B5D00002DE9F04704460E46BE
:10A030004022002120462CF0EDFC85202070C0201D
:10A0400084F8200040250020804607464FF0010993
:10A0500000BFC12228466D1C2254002228466D1CD8
:10A06000225400BFB9F1000F06D036F81700B0F146
:10A07000000901D0781CC7B26019494630F0E9FBED
:10A08000AD1C05F01F000028ECD108F1010000F024
:10A09000FF0836F817000028DBD184F8237008F198
:10A0A00001006070304635F0F2FD8246514604F101
:10A0B000240030F0CEFBBDE8F087000010B500BFF3
:10A0C000002208211048F7F77DFA00BF00F01EF8C3
:10A0D00000BF012211460C48F7F774FA00BF00F0E8
:10A0E00015F800BF002201210748F7F76BFA00BFFF
:10A0F00000F00CF800BF012208210348F7F762FACC
:10A1000000BF00F003F810BD0004025810B5022093
:10A11000F7F78AFA10BD000000B587B000BF00BF96
:10A120001948006840F002001749086008460068B6
:10A1300000F00200019000BF00BF00BF00BF00BFE1
:10A140000846006840F0020008600846006800F019
:10A150000200019000BF00BF00BF0120029011204B
:10A160000390012004900320059002A90748F7F707
:10A1700015FA0820029002A90448F7F70FFA00F038
:10A18000B1F807B000BD0000E044025800040258D6
:10A1900010B500BF012208210C48F7F713FA00BFE1
:10A1A000FFF7B4FF00BF012211460848F7F70AFA8B
:10A1B00000BFFFF7ABFF00BF002201210348F7F704
:10A1C00001FA00BFFFF7A2FF10BD00000004025813
:10A1D00070B50546002400261CE06006040E00BF92
:10A1E000012211461048F7F7EDF900BFFFF78EFF87
:10A1F00008210D48F7F71DFA08B1601CC4B200BF72
:10A20000002201210848F7F7DDF900BFFFF77EFFC4
:10A21000701CC6B2082EE0DB15B9FFF7B9FF01E0EC
:10A22000FFF74CFF204670BD0004025870B504468D
:10A23000002524E000BFE00928B1012208211548CB
:10A24000F7F7C0F904E0002208211248F7F7BAF93D
:10A2500000BFFFF75BFF00BF012211460D48F7F773
:10A26000B1F900BFFFF752FF00BF002201210948EA
:10A27000F7F7A8F900BF6006040E681CC5B2082DE8
:10A28000D8DB00BF012208210248F7F79BF900BF85
:10A2900070BD00000004025810B500BF0122082163
:10A2A0000F48F7F78FF900BF00BF012211460C4895
:10A2B000F7F788F900BFFFF729FF00BF0022082148
:10A2C0000748F7F77FF900BFFFF720FF00BF002224
:10A2D00001210348F7F776F900BFFFF717FF10BD1C
:10A2E0000004025810B500BF002208210C48F7F7FF
:10A2F00069F900BFFFF70AFF00BF012211460848B5
:10A30000F7F760F900BFFFF701FF00BF0122082146
:10A310000348F7F757F900BFFFF7F8FE10BD00003C
:10A320000004025870B50024002500BF0122082156
:10A330001548F7F747F900BFFFF7E8FE00BF012215
:10A3400011461148F7F73EF900BFFFF7DFFE09E0BD
:10A35000601CC4B2FA2C03DDFFF7C4FF012507E03F
:10A36000FFF7D4FE08210848F7F763F90028EFD17A
:10A3700000BF00BF002201210348F7F723F900BF07
:10A38000FFF7C4FE284670BD000402587CB506469F
:10A390000D4634465020005D00F00100A84233D045
:10A3A0000DB1012000E000205021095D60F30001A3
:10A3B0005020015504F14401684617F00EF8BDF82D
:10A3C0000000616A898A084400B2ADF80000BDF857
:10A3D0000210606AC08A084400B2ADF80200BDF8FD
:10A3E0000400616A898A084400B2ADF80400BDF82F
:10A3F0000610606AC08A084400B2ADF806006946DB
:10A40000304626F02EF800BF7CBD37B582B0054639
:10A4100014462146039819F005F80190BDF8041080
:10A42000084605B030BD000001460B480078884260
:10A430000FDC09484078884201DB0120704706485C
:10A440008078884205DC0448C078884201DB01201E
:10A45000F4E70020F2E700008989049001461048E3
:10A460000079884219DC0E484079884201DB0120DE
:10A4700070470B488079884205DC0948C0798842DA
:10A4800001DB0120F4E70648007A884205DC044835
:10A49000407A884201DB0120EAE70020E8E700007B
:10A4A000898904902DE9F04F8BB083460D461646FE
:10A4B0001C46DDF8509000200A9008900790069006
:10A4C000002705900490012003900020CBF80000A5
:10A4D0003060286015984B46224631460090284649
:10A4E00015F0D4FEC4F87C01D4F87C0110B10BB097
:10A4F000BDE8F08F316804F1780304F1A402286804
:10A5000015F0C7FF18B15C20C4F87C01EFE715987F
:10A5100015F08DFF0990099818B95320C4F87C01F3
:10A52000E5E709F1210A7AE1AAEB09000C30159957
:10A53000884201D8CA4506D2206A00B176E11E20C1
:10A54000C4F87C0172E1504615F0B3FA8046B8F1C8
:10A55000004F06D3206A00B168E13F20C4F87C01B7
:10A5600064E1AAEB090040440C301599884204D8F4
:10A570000AEB08000C30484503D24020C4F87C01A7
:10A5800054E1504615F091FA029000200490FEA18B
:10A59000504615F0CCFAF0B101AA4146089815F0E2
:10A5A00002FA18B15F20C4F87C013FE101991598C7
:10A5B000814203D95F20C4F87C0137E1DDE908213D
:10A5C00088184246029915F038FF089840440890D0
:10A5D000032003900DE1EEA1504615F0A8FA10B14A
:10A5E00001200A9005E1ECA1504615F0A0FA70B1E7
:10A5F000424604F1A40002992EF0AAF8C4F87C01A6
:10A60000D4F87C0100B111E102200390F1E0E4A153
:10A61000504615F08CFA60B1424604F1A40002994C
:10A620002EF0A1FBC4F87C01D4F87C010028D1D025
:10A63000FCE0DDA1504615F07AFA60B1424604F123
:10A64000980002992EF0C3F8C4F87C01D4F87C017C
:10A650000028BFD0EAE0D6A1504615F068FA78B1DC
:10A66000A06A0028B6D0424604F1980002992EF064
:10A670000BFBC4F87C01D4F87C010028AAD0D5E0FB
:10A68000CDA1504615F053FA80B1A06A0028A1D0A0
:10A690004346214604F19800029A2EF0AAFBC4F822
:10A6A0007C01D4F87C01002894D0BFE0C4A15046BE
:10A6B00015F03DFA80B1A06A00288BD043462146B0
:10A6C00004F19800029A2EF0D4F9C4F87C01D4F871
:10A6D0007C01002886D0A9E0BBA1504615F027FADE
:10A6E00060B1424604F1980002992EF021FBC4F8B3
:10A6F0007C01D4F87C0100287BD097E0B4A15046BF
:10A7000015F015FA60B1424604F1980002992EF056
:10A7100085FAC4F87C01D4F87C01002869D085E072
:10A72000ADA1504615F003FA58B1424604F1980025
:10A7300002992EF00BF9C4F87C01D4F87C01A0B387
:10A7400074E0A7A1504615F0F2F958B1424604F161
:10A75000980002992EF085F8C4F87C01D4F87C01A9
:10A7600018B363E0A0A1504615F0E1F958B1424694
:10A7700004F1980002992EF07AFAC4F87C01D4F81A
:10A780007C0190B152E09AA1504615F0D0F968B121
:10A790004346214604F19800029A2EF0F1F8C4F8DD
:10A7A0007C01D4F87C0100B140E022E0E06938B9D6
:10A7B000504615F026F918B94520C4F87C0135E05B
:10A7C00001200490E06AA0B1039A531E04F5B87208
:10A7D00002EB8301039A531E04F5B27202EB83006D
:10A7E000524615F013F9C4F87C01D4F87C0100B18D
:10A7F0001CE0A06948B9049838B9504615F03CF9F6
:10A8000018B13920C4F87C0110E00A9830B91598C5
:10A8100009EB0001504615F052F9824600BF0A9834
:10A8200020B9D4F87C0100283FF47EAE00BFD4F8F4
:10A830007C0148B9A420005D032805D1D4F8AC0000
:10A8400010B96A20C4F87C01D4F87C0100286BD1CF
:10A85000A020005958B904F1A40015F041FC80462D
:10A8600031684246286815F055FC074651E004F16E
:10A87000A40015F035FC804600273268D21DD108AF
:10A880002A68D21DD008424615F044FC07442868C7
:10A89000042809D93268D21DD1082A68D21CD008F0
:10A8A000424615F037FC07443268D21CD1082A68AA
:10A8B000D21C9008424615F02DFC07442868022857
:10A8C00009D93268D21C91082A68521C9008424665
:10A8D00015F020FC07443268521C91082A68521C6B
:10A8E0005008424615F016FC07442868012808D98C
:10A8F0003268521C51082A685008424615F00AFC7A
:10A900000744326851084246286815F003FC0744A2
:10A9100000BF0898CDE900043A4606A907A8099B9C
:10A9200035F0FFF9C4F87C01D4F87C0128B9069809
:10A93000B84202D05B20C4F87C01099815F0CAFB2C
:10A94000D4F87C0188B9316804F1A402286815F0B4
:10A95000D6FB0590059815F06AFDCBF80000DBF8F2
:10A96000000010B95320C4F87C01D4F87C0148B928
:10A97000DBF800000021059A15F069FD04F198004C
:10A98000009039E041E000004944415400000000DB
:10A9900049454E4400000000504C54450000000062
:10A9A00074524E5300000000624B47440000000008
:10A9B00074455874000000007A5458740000000078
:10A9C000695458740000000074494D4500000000AF
:10A9D000704859730000000067414D4100000000BD
:10A9E0006348524D000000007352474200000000CF
:10A9F000694343500000000033682A68DBF8000018
:10AA000007992CF0CEFFC4F87C01079815F062FB83
:10AA100000BF6CE52DE9FF4F8DB005460E4614468C
:10AA2000F07A022803DC012011B0BDE8F08F3089F4
:10AA3000326901460C901098FBF7C2F907460FB92E
:10AA40000020F1E7397D01F01F001EF070F910B110
:10AA50004FF006080AE0397D01F01F001EF04AF9A8
:10AA600010B14FF0050801E04FF00408386A38B122
:10AA700000BF00BF214628463A6A2FF075FEDEE08F
:10AA8000B869002859D021460BA816F067FC308819
:10AA900018B97088B0F5807F32D0204616F02EFDB0
:10AAA000834600BFE0886188401A401C00B20890CD
:10AAB000301D7188CDE90010308803B259460BA8CB
:10AAC000089AFAF7A7FCBDF82C002188084400B2C8
:10AAD000ADF82C00BDF82E006188084400B2ADF836
:10AAE0002E00BDF830002188084400B2ADF83000D7
:10AAF000BDF832006188084400B2ADF8320000BFF2
:10AB00000BAA09A8A968FAF78FF98146B9F1000FD5
:10AB100004D1384602F087F9012085E7D5F808A06E
:10AB200009A8A860CDF80080224631462846BB69B6
:10AB300019F0BAFEC5F808A081E022460BA8A96862
:10AB4000FAF772F90A900A9820B9384602F06BF9C0
:10AB5000012069E70BA816F0D1FC09900BA816F0AC
:10AB6000CDFC00EB4000039021F0B6F88146D5F80B
:10AB700008A00BA907A816F0F1FB012107A816F001
:10AB800048FDBDF92C00B4F90010401A0690BDF93B
:10AB90002E00B4F90210A0EB010BBDF92E000590B8
:10ABA00042E007AA514602A8FAF73EF90A900A982D
:10ABB00000B936E0CDF80090099803B20FFA8BF295
:10ABC000069801B238461EF0DFFD04900498012873
:10ABD0000ED038461EF0F8FC00BF00BF484621F0FA
:10ABE000F7F8384602F01FF9C5F808A000201BE767
:10ABF00002A8A8604B4607AA31462846CDF8008037
:10AC000019F052FEBDF81E00401C00B2ADF81E0047
:10AC1000BDF82200401C00B2ADF822000BF1010B80
:10AC200000BF0598401C0590BDF93210059881427F
:10AC3000B7DAC5F808A0484621F0CAF800BF384680
:10AC400002F0F1F80120EFE670B505460C46A06968
:10AC500020B1A06921F0D4F80020A06170BD0000EF
:10AC60002DE9F04387B081460D46144628461FF073
:10AC70002FF80746012F4ED12E463046F5F7F6FB4A
:10AC8000C01E00EB060838A14046F5F7B5FC0028C9
:10AC900040D10222314602A81DF0C0F98046B8F129
:10ACA000000F03D0002007B0BDE8F0830022102180
:10ACB00002A81DF0DAFA01AB082205A902A81DF0CE
:10ACC000F8F90198082801D00020ECE702A81DF04F
:10ACD000F5F8206820F0E0002060206820F01F00D8
:10ACE000801C20600598000E059901F47F0100EB9F
:10ACF0001121206861F3942020600698000E0699C7
:10AD000001F47F0100EB1121206861F35F502060A6
:10AD10000120C8E725E01FBB2E4614A103C9CDE9D9
:10AD20000501082205A8B168F5F750FB08B100201D
:10AD3000B9E7206820F0E00020603078216860F3F7
:10AD4000040121603068810A206861F3942020604A
:10AD50003068410D206861F35F5020600120A2E758
:10AD600000BF00209FE70000706E670089504E47CB
:10AD70000D0A1A0A2DE9F04186B080460C460020E3
:10AD80000590207C012834D166683046F5F76EFBCB
:10AD9000C01E871925A13846F5F72EFC40BB324668
:10ADA00003A904A815F024FB05462DB100BF00BF80
:10ADB000002006B0BDE8F0810398009001AA02A926
:10ADC00005A8049B15F0FAF80546049821F018F838
:10ADD0001DB100BF00BF0020EBE7DDE9012000FB53
