:020000040800F2
:10000000E0230120550300083B2D0008332D000894
:10001000372D00081D190008C1310008000000003C
:100020000000000000000000000000009502000831
:100030002119000800000000F10200083D2D000811
:1000400079030008790300087903000879030008A0
:100050007903000879030008790300087903000890
:100060007903000879030008790300087903000880
:100070007903000879030008790300087903000870
:100080007903000879030008790300087903000860
:100090007903000879030008790300087903000850
:1000A0007903000879030008790300087903000840
:1000B0007903000879030008790300087903000830
:1000C0007903000879030008790300087903000820
:1000D00079030008713100087903000879030008EA
:1000E0007903000879030008790300087903000800
:1000F00079030008790300087903000879030008F0
:1001000079030008790300087903000879030008DF
:100110007903000879030008652D000879030008B9
:1001200079030008790300087903000879030008BF
:1001300079030008790300087903000879030008AF
:10014000790300087903000879030008790300089F
:10015000790300087903000879030008790300088F
:10016000790300087903000879030008790300087F
:1001700079030008790300087903000800000000F3
:10018000790300087903000800F002F800F072F823
:100190000AA090E8000C82448344AAF10107DA45E2
:1001A00001D100F067F8AFF2090EBAE80F0013F0C2
:1001B000010F18BFFB1A43F00103184798A404006D
:1001C000B8A404000A444FF0000C10F8013B13F0EF
:1001D000070408BF10F8014B1D1108BF10F8015BA0
:1001E000641E05D010F8016B641E01F8016BF9D193
:1001F00013F0080F1EBF10F8014BAD1C0C1B09D1EA
:100200006D1E58BF01F801CBFAD505E014F8016B5B
:1002100001F8016B6D1EF9D59142D6D370470000ED
:100220000023002400250026103A28BF78C1FBD8FF
:10023000520728BF30C148BF0B607047662937F0AE
:100240006487642900F06E81782900F0A781732902
:1002500000F03186002070471FB537F051FF00F0E5
:1002600063FE04000020002137F0FCFBE0601FBDAE
:1002700010B510BD00F05CFF1146FFF7EDFF2EF04A
:1002800071FF00F07AFF03B4FFF7F2FF03BC05F043
:10029000E9F800002C4B19680868B0E8F04F80F3CB
:1002A0000988BFF36F8F4FF0000080F3118870470B
:1002B0000000000008480068006880F308884FF0DC
:1002C000000080F3148862B661B6BFF34F8FBFF3AE
:1002D0006F8F00DF00BF00BF08ED00E0DFF80C000B
:1002E000016841F470010160704700BF88ED00E0D3
:1002F000EFF30980BFF36F8F134B1A681EF0100FD6
:1003000008BF20ED108A20E9F04F106009B44FF0CB
:10031000500080F31188BFF34F8FBFF36F8F36F01B
:10032000F5FB4FF0000080F3118809BC19680868DC
:10033000B0E8F04F1EF0100F08BFB0EC108A80F349
:100340000988BFF36F8F704798000020EFF3058096
:10035000704700000C48016841F4700101600B48CF
:1003600080470B480047FEE7FEE7FEE7FEE7FEE7B3
:10037000FEE7FEE7FEE7FEE7FEE700000548064968
:10038000044A064B7047000088ED00E0512D00083C
:1003900089010008E01F0120E0230120E01F012067
:1003A000704753EA020C00F069802DE9F04B4FF0E2
:1003B0000006002B1FBFB3FA83F503FA05F424FAF5
:1003C00005F65E4012BF1643B2FA82F502FA05F452
:1003D000C5F120051EBF22FA05FC44EA0C042035B5
:1003E00056EA044C4FEA144418BF641C4FF000084E
:1003F0004FF00009904271EB030C39D3002919BF6B
:10040000B1FA81F701FA07F6B0FA80F700FA07F6B9
:10041000C7F120071EBF20FA07FC46EA0C0620376A
:10042000B6FBF4FCA7EB0507103F07F01F0BCBF161
:1004300020060CFA0BFB2CFA06F644BFB346002646
:10044000202FA4BF5E464FF0000B5BEA060C08BFEE
:100450004FF0010B19EB0B09ABFB027C48EB0608D4
:10046000C01B06FB02CC0BFB03CC71EB0C01C1E7FC
:100470000B46024641464846BDE8F08B13B54FF0A7
:1004800000004FF00001AFF30080BDE81C40704752
:100490000FB4044910B503AA029800F011FD10BC76
:1004A0005DF814FB140000200FB41CB5074B06AA1E
:1004B0007B4469460090059800F0D3FC0020694613
:1004C00000F0E2FC1CBC5DF814FB0000D509000044
:1004D00070B50C460546012A05D02878800600D55F
:1004E000EA69002302E0012305E05B1C934202D28B
:1004F000E05C0028F9D1A869E618C01AA861286A4A
:10050000184428622846AFF3008004E0D5E90121B1
:1005100014F8010B9047B442F8D32846AFF300809B
:1005200070BD00002DE9F0410646002410687529D1
:10053000314616A510D0AFF30080002802DA404201
:1005400013A507E031688A0701D512A502E0490723
:1005500004D511A5012401E0AFF3008000210A2297
:1005600006F1240709E0B0FBF2FCB0FBF2F302FB5A
:100570001C00303078541846491C0028F3D123461B
:100580002A463046BDE8F04100F0FEB90000000008
:100590002D0000002B0000002000000070B5044674
:1005A0000D4621461068AFF300802188090502D569
:1005B0000F4A7A4402E00E4A7A440E32002104F1D6
:1005C000240305E000F00F060009965D5E54491C07
:1005D0000028F7D120780023000704D5702D02D021
:1005E00009B1022311322046BDE8704000F0CCB9B9
:1005F0003A9A04002DE9F05F894604464FF0000A5C
:10060000DFF824B1FB44C0F820A02046E168884709
:1006100000287DD0252806D0D4E901219047206A02
:10062000401C2062F1E700255F462046E1688847CC
:100630002028064607DB312E05D2B81910F8200C09
:1006400008B10543F1E7A80701D525F00405C4F872
:100650001CA00027C4F818A02A2E09D0304602F0AA
:1006600003FE38B304EB8708303EC8F8186019E081
:1006700059F8041B204604EB87029161E168884722
:10068000012F064618D1E069002820DA25F0200560
:100690001DE0D8F8180000EB800006EB4000303871
:1006A000C8F818002046E1688847064602F0DCFDDD
:1006B0000028EED1012F0AD02E2E08D12046E16865
:1006C00088477F1C0646022F45F02005C4DBA06941
:1006D000002803DA404245F00105A061E80701D097
:1006E00025F01005A6B1A6F14100192802D8203640
:1006F00045F400654A463146204625604D46FFF7E1
:100700009DFD60B1012807D0ED1D25F0070000E038
:1007100007E000F1080978E705F1040975E73046BC
:100720007AE7206ABDE8F09F109A040040EA0103CE
:10073000024630B59B0710D14FF0013400E008C2EB
:1007400008C91D1B9D4315EAC41FF8D013F0FF0113
:1007500002F8011B0DD01B0AF8E711F8013B002B32
:1007600002F8013B05D011F8013B002B02F8013BD8
:10077000F3D130BD10B5431C02E010F8011B71B17C
:100780008107FAD14FF0013202C88C1A8C4314EA67
:10079000C211F9D0C01A0A0603D0C01E10BDC01A7B
:1007A00010BD0A0401D0801E10BD0902FCD0401EFD
:1007B00010BD032A40F2308010F0030C00F01580C9
:1007C00011F8013BBCF1020F624498BF11F801CB54
:1007D00000F8013B38BF11F8013BA2F1040298BFB9
:1007E00000F801CB38BF00F8013B11F0030300F023
:1007F0002580083AC0F0088051F8043B083A51F8C7
:1008000004CBA0E80810F5E7121D5CBF51F8043BCB
:1008100040F8043BAFF30080D20724BF11F8013B3E
:1008200011F801CB48BF11F8012B24BF00F8013BA0
:1008300000F801CB48BF00F8012B704710B5203AF3
:10084000C0F00B80B1E81850203AA0E81850B1E889
:100850001850A0E81850BFF4F5AF5FEA027C24BF3F
:10086000B1E81850A0E8185044BF18C918C0BDE836
:1008700010405FEA827C24BF51F8043B40F8043BFF
:1008800008BF7047D20728BF31F8023B48BF11F8B4
:10089000012B28BF20F8023B48BF00F8012B70470E
:1008A00002F0FF0343EA032242EA024200F01CBBCB
:1008B0004FF0000200B5134694469646203922BFF9
:1008C000A0E80C50A0E80C50B1F12001BFF4F7AF44
:1008D000090728BFA0E80C5048BF0CC05DF804EB26
:1008E000890028BF40F8042B08BF704748BF20F894
:1008F000022B11F0804F18BF00F8012B7047000049
:100900004FF0013C50F8042B51F8043B9A4221D19E
:10091000A2EB0C03934313EACC1317D150F8042B2A
:1009200051F8043B9A4215D1A2EB0C03934313EA0E
:10093000CC130BD150F8042B51F8043B9A4209D147
:10094000A2EB0C03934313EACC13DBD04FF000006F
:10095000704700BFD01A01BAB1FA81F101F0180155
:1009600022FA01F0CB40C1F12001DBB2C0B2C01AC3
:100970002CFA01F3D11A914311EAC311E6D1704761
:1009800070477047704770472DE9F0470D4699460C
:100990009246044600F124080168880604D5E069FF
:1009A00021F01001216000E00120A84201DD471B79
:1009B00000E00027A1697A1902EB0900081AA0617A
:1009C0002078C00602D42046AFF30080002608E05D
:1009D000D4E901211AF806009047206A401C761CD1
:1009E00020624E45F4DB2078C0060AD52046AFF3DE
:1009F000008006E0D4E9012130209047206A401CA5
:100A00002062381EA7F10107F4DC07E0D4E90121D8
:100A100018F805009047206A401C2062281EA5F1A6
:100A20000105F3DC2046AFF300802078000602D5F4
:100A30000220BDE8F0870120FBE770472DE9FF4F5A
:100A40000C461E464FF0FF378BB0D2E90001DDF8AF
:100A500060800A908A46C1F30A5505B93D460021D7
:100A600008464FF00000BAF1000F00F4400005DA2C
:100A700000EB80004FF4400101EA50004FEA90592A
:100A8000B9F1010F00DDB9460A9850EA4A000ED0CC
:100A900044F61050A5F2FF3545432F14B8F1000F6E
:100AA0001ED07542291E1EDDC9F100021CE0B8F1FE
:100AB000010F4FF0000001D0302103E0F24305E0C8
:100AC0002154401CB042FBDB30460022002121545F
:100AD0000B99C1F80880C1E900200FB0BDE8F08F84
:100AE000BD1B6D1CDEE74A4600DA694206A800F02D
:100AF000A5FA06AB93E8070003AB83E8070050466E
:100B00000A9900F043FB8DE80700A0F500501F385C
:100B100000900398002D0ADD42F21F014A46084466
:100B2000002303A90390684600F0ACFD09E0A0F59E
:100B300000504A461F38002303A90390684600F07E
:100B4000B6FD8DE807000004000C03D04FF0FF3025
:100B5000410800E01046B8F1000F03D000220092D7
:100B600015461EE0751E05D400F0E2F930326255DC
:100B70006D1EF9D5B3460122084302D000227F1C26
:100B800004E02078302801D100227F1E002A099736
:100B900084D01DE0112D07DA00F0CAF93032625519
:100BA0006D1C50EA0102F5D1084302D00098C8B18B
:100BB0000EE00021681E05E0235C625C6354225451
:100BC000401E491C8142F7DBAB46A81B401E099022
:100BD000002004F80B000B98099AC0F80880C0E9BF
:100BE000002B7AE711264FF0000857E72DE9F04F68
:100BF00088460446D21D22F0070191B0D1E90001D8
:100C0000CDE90A0102F0DEFA02460B98C00F01D0CE
:100C10002D2007E02068810701D52B2002E020214C
:100C200001EAC000032A099001D0072A05DB034628
:100C30004146204600F0C2F90BE12078800601D53C
:100C4000E06900E00620B8F1650F814606D0B8F1F2
:100C5000660F18D0B8F1670F70D131E00020B9F1FC
:100C6000110F009001DB112301E009F101030AAA31
:100C700001A90CA8FFF7E2FEDDE90C70002609F1DE
:100C80000105834647E001204B4600904FF00047A6
:100C90000AAA01A90CA8FFF7D1FEDDE90DB00C9955
:100CA0005D46002610B909F101000D18B9EB0500E9
:100CB00003D4C0F1FF3609F10105A5EB09002BE0D3
:100CC000B9F1010F01DA4FF001090020B9F1110F5C
:100CD0000090484601DD112300E003460AAA01A95D
:100CE0000CA8FFF7ABFEDDE90C704D4600268346ED
:100CF000207800070AD4AB4500DA5D4601A8012D33
:100D000004DD411911F8011C302907D04F4502DAE2
:100D100017F1040F04DA012082460FE06D1EEEE7A2
:100D2000002F02DCED1B3E4403E0781CA84200DDEE
:100D30007D1CB81B00F1010A4FF000472078000726
:100D400003D4AA4501DB4FF0FF3A0021B7F1004F71
:100D50000DF143088DF8431024D002202B23002FDF
:100D600001DA7F422D230A21021EA0F1010000DCDE
:100D70005FB197FBF1FC97FBF1F201FB1C7C17467E
:100D80000CF1300C08F801CDEEE7A8F1010003707A
:100D90002188090501D5452100E06521A0F1010860
:100DA00000F8011C09980FA9A1EB0807FF1D00B16D
:100DB0000120411901EBEA70A1693844081A401E6C
:100DC000A0612078C00602D42046AFF300800998C5
:100DD00028B1D4E901219047206A401C2062207884
:100DE000C00622D52046AFF300801EE0002E04DBB3
:100DF000B34502DD01A8805D00E03020D4E9012187
:100E00009047206A401C2062761CAAF101005FEA2C
:100E1000000A0AD100F088F8C0680168405CD4E993
:100E200001219047206A401C2062281EA5F101057F
:100E3000DCDC07E0D4E9012118F8010B9047206AB7
:100E4000401C2062381EA7F10107F3DC2046AFF3F7
:100E50000080032011B041E601694A1C0261087854
:100E6000704700B58FB0CDE90131002105910549EA
:100E70007944CDE9031011466846FFF7BBFB0FB07C
:100E800000BD0000E5FFFFFF0A6802F8010B0A60E1
:100E9000704710B5436913B1AFF3008001E0FFF76D
:100EA00017FB012010BD127800F124010A70002206
:100EB0004A700122EDE711684FF0FF32E9E70000C8
:100EC000074B70B50D467B44FFF7CBFF0446284621
:100ED00000F026F910B14FF0FF3070BD204670BD14
:100EE0005F0B01004FF000020429C0F0128010F0E7
:100EF000030C3FF4DFACCCF1040CBCF1020F18BFC3
:100F000000F8012BA8BF20F8022BA1EB0C01FFF782
:100F1000D1BC5FEAC17C24BF00F8012B00F8012B93
:100F200048BF00F8012B7047004870479C1F012004
:100F300030B5B0F10A024FEA900E71F100034EEAAB
:100F4000817EB0EB0E0061EB91014FEA101E4EEA7C
:100F5000017E10EB0E0041EB11114FEA102E4EEA0C
:100F6000016E10EB0E0041EB11214FEA104E4EEADC
:100F7000014E10EB0E0041EB1141401841F1000110
:100F80004FEAD00040EA41704FEAD10110EB8005F2
:100F90004FEA810444EA907444EB01046D1944EB78
:100FA0000404521BA3414FF0000348BF0A3200D58E
:100FB00030BD401C41F1000130BD00002DE9F04181
:100FC0001F46044603260168072A01F4006004DB7B
:100FD00008B116A505E016A503E008B115A500E0C7
:100FE00015A521F010002060A069C01EA0610FB1FE
:100FF000401EA0612046AFF300804FB1D4E901212B
:1010000038469047206A401C2062C01C206206E0DF
:10101000206AFAE7D4E9012115F8010B9047761E02
:10102000F8D22046AFF30080BDE8F0814E414E007B
:101030006E616E00494E4600696E66002DE9F0470C
:10104000814616468AB0354878440DC88DE80D00B3
:1010500032487844801C03AC0DC884E80D0041F68A
:101060009B300844372190FBF1F290FBF1F5A5F19C
:10107000800501FB12041B3C02D56442012000E004
:101080000020DFF898A080460027FA44AAF1BE0AA3
:101090000EE0E0070AD03246684607EB470101231D
:1010A0000AEB810100F003FB8DE8070064107F1C50
:1010B000002CEED1194F7F44AE3F19E0E80715D060
:1010C00007EB04100DF1180A90E80E008AE80E00F4
:1010D000C068F04201D1981908903246012306A950
:1010E00003A800F0E4FA03AB83E807006D10641C6A
:1010F000002DE3D14FF0010332466946B8F1000FED
:1011000003A802D000F0BEFA01E000F0D0FAC9E96D
:101110000001C9F808200AB0BDE8F0875C9004001F
:10112000007B00F080007047004870477C1F012062
:101130007546FFF7F9FFAE4605006946534620F0B5
:101140000700854618B020B5FFF718F9BDE8204024
:101150004FF000064FF000074FF000084FF0000B73
:1011600021F00701AC46ACE8C009ACE8C009ACE826
:10117000C009ACE8C0098D46704710B50446AFF30E
:1011800000802046BDE81040FFF77DB85FEA400CC4
:1011900008BF91F0000F4FEA8C234FEAC12243EAC7
:1011A00051514FEA1C5018BF00F5F0404FEA300093
:1011B00018BF41F000415FEA6C5C00F02980BCF18F
:1011C000FF3F08BF40F080407047130C06BF120479
:1011D0004FF0100C4FF0000C130E04BF12020CF174
:1011E000080C130F04BF12010CF1040C930F04BF81
:1011F00092000CF1020CD30F04BF52000CF1010C51
:1012000011464FF00002A0F11F00A0EB0C00704748
:1012100011F0004F08BF704731F000413FF4D5AFE7
:101220000B0C06BF09044FF0100C4FF0000C0B0E16
:1012300004BF09020CF1080C0B0F04BF09010CF1EB
:10124000040C8B0F04BF89000CF1020CCB0F04BF00
:1012500049000CF1010CCCF12003A0EB0C0022FAA8
:1012600003F302FA0CF241EA030100F101007047B6
:1012700020F07F4C80EA030023F07F47ACEB0703AC
:1012800003F57C5300F0004003F1FF032DE9804992
:101290004FEA154B09B44FEA144325EA0B4E24EAF2
:1012A00003480FF2042606EB132749083E785FEA4D
:1012B000320203FB0667C7F5000707FB06F64FEA95
:1012C00054374FEAD64606F1020607FB066CCCF10E
:1012D000005C4FEA1C472CEA074C07FB06F40CFBAA
:1012E00006F504EB15464FEA961634BF00204FF082
:1012F00000404FEAD13706FB07FC4FEA1C4C0CFBC1
:101300000BF7D21B03FB0CF761EB07010CFB0EF78D
:10131000B0EB074072EB17420CFB08F734BFA2EBAF
:101320000742B2EB074261EB17414FEA0C444FEA28
:10133000910706FB07FC4FEA1C4C0CFB0BF7B0EBCC
:10134000C74072EB573203FB0CF734BFA2EBC74226
:10135000B2EBC74261EB57310CFB0EF7B0EBC700A5
:1013600072EB57720CFB08F734BFA2EBC702B2EB6B
:10137000C70261EB5771039F4FEA816141EA921105
:1013800004EBCC044FEAD1374FEA826206FB07FC3C
:1013900042EA90124FEA80604FEA1C4C0CFB0BF7BC
:1013A000D21B03FB0CF761EB07010CFB0EF7B0EB54
:1013B000074072EB17420CFB08F734BFA2EB074261
:1013C000B2EB074261EB17414FEA8C554FEA9107A8
:1013D00004EB9C2406FB07FC4FEA1C4C0CFB0BF7B0
:1013E000B0EBC74072EB573203FB0CF734BFA2EBF4
:1013F000C742B2EBC74261EB57310CFB0EF7B0EBC3
:10140000C70072EB57720CFB08F734BFA2EBC702A0
:10141000B2EBC70261EB577115EB4C254FEA8161C6
:1014200041EA92114FEA82624FEAD13742EA9012C2
:1014300006FB07FC44F100044FEA80604FEA1C4CB5
:101440000CFB0BF7D21B03FB0CF761EB07010CFB4A
:101450000EF7B0EB074072EB17420CFB08F734BFF6
:10146000A2EB0742B2EB074261EB174115EB1C15EB
:101470004FEA813141EA92414FEA823242EA904298
:101480004FEA80304FEA0C7644F1000448EA034307
:101490004EEA0B484FF0000EB2EB080C71EB03075D
:1014A00024BF624639464EEB0E0E4FF0000B00187B
:1014B000524149414BEB0B0BB2EB080C71EB0307AC
:1014C0007BF1000B24BF624639464EEB0E0E4FF007
:1014D000000B0018524149414BEB0B0BB2EB080CCF
:1014E00071EB03077BF1000B24BF624639464EEBDC
:1014F0000E0E51EA020718BF46F0010616EB0E76F3
:1015000055F1000254F1000103D5BDE88901BDE8A1
:101510000088BDE88901BDE80048B619524141EB99
:101520000101A3F10103704780807F7E7D7C7B7A7F
:101530007978777676757473727171706F6E6E6D7F
:101540006C6C6B6A6A696868676666656464636325
:1015500062616160605F5F5E5E5D5D5C5C5B5B5AAB
:101560005A59595858575756565555555454535318
:1015700052525251515050504F4F4F4E4E4D4D4D73
:101580004C4C4C4B4B4B4A4A4A49494948484847BE
:1015900047474746464645454544444444434343FC
:1015A0004342424242414141002B9C4630D47700A5
:1015B0002BD01CB54FEA370703B44FF010004FF0A3
:1015C0001001BAF1000F06D0BCF1000FDCBF40F0F3
:1015D000080040F008014FF000000FBCBDE81040CB
:1015E0000BF1010BBBF1010F08BF5FEA170722BF28
:1015F00012F1010211F101014FF0004143F100032A
:1016000000F0004043EA00007047F9D35708D0E7E4
:1016100046EA064613F1400F4FEA16461FDD13F166
:10162000200FDFBF16430A46002120335B42BED0A5
:10163000C3F1200746EA064602FA07F74FEA1646C4
:1016400046EA0706C3F1200722FA03F201FA07F778
:1016500021FA03F14FF0000342EA0702A7E746EA46
:10166000020646EA06464FEA164646EA0106BCBFAF
:1016700046EA0646360C4FF000034FF000024FF0EA
:10168000000194E72DE9804C9A46934670B491E8A6
:10169000380007C831EA400C48BF34EA430C03D590
:1016A000FFF7E6FDFFF780FFF0BCBDE8008C2DE9F9
:1016B000804C9A46934670B491E8380007C810F001
:1016C000804F08BF13F0804F03D100F005F8FFF7FB
:1016D0006BFFF0BCBDE8008C20F07F4780EA030080
:1016E00023F07F4C07EB0C03A3F57C5300F0004084
:1016F000A3F1FE0392F0000F00F0B38095F0000F0D
:1017000000F077802DE901494FEA11404FEA144675
:1017100021EA004800FB06FC24EA064708FB06F61F
:1017200007FB08F800FB07F718EB06484CEB164CD4
:101730004FEA124B18EB07484FEA15464CEB17409F
:1017400022EA0B4E0BFB06FC25EA06470EFB06F6CB
:1017500007FB0EFE0BFB07F71EEB064E4CEB164C81
:101760004FF000061EEB074E4CEB174B18EB0B0827
:1017700040F1000018EB0E0B58EB000840F10000A0
:101780008F1A4FF000013CBFC943661B14BFB5EB75
:10179000040C00213CBFC943F61B4FEA17444EEA34
:1017A0008E0E27EA04454FEA1C4704FB07622CEA29
:1017B000074C05FB07F70CFB05F604FB0CFC16EBCE
:1017C000074642EB174216EB0C4642EB1C421BEB62
:1017D000060658EB0202414146EA9E0601D5BDE8E5
:1017E0000189B619524141EB0101A3F10103BDE8A2
:1017F00001894FEA14454FEA114724EA054621EAD8
:10180000074C05FB07F406FB07F70CFB06F105FB8D
:101810000CFC11EB074144EB17444FEA124711EB64
:101820000C4144EB1C4422EA074C05FB07F206FB83
:1018300007F70CFB06F605FB0CFC16EB074642EB24
:10184000174216EB0C4642EB1C456A1854F1000196
:1018500048BF7047B619524141EB0101A3F10103A2
:10186000704795F0000F37D04FEA11424FEA144706
:1018700021EA024624EA074C02FB07F106FB07F7C0
:101880000CFB06F402FB0CFC14EB074441EB174184
:101890004FEA154714EB0C4441EB1C4125EA074C79
:1018A00002FB07F506FB07F70CFB06F602FB0CFC38
:1018B00016EB074645EB174516EB0C4645EB1C426D
:1018C000121951F1000148BF7047B619524141EB5E
:1018D0000101A3F1010370474FEA14454FEA114794
:1018E00024EA054621EA074C05FB07F106FB07F74A
:1018F0000CFB06F24FF0000605FB0CFC12EB074256
:1019000041EB174112EB0C4251EB1C4148BF7047B1
:10191000921841EB0101A3F10103704700BFFEE7FC
:101920007047000070B504461D460023B5F5804F92
:1019300013D154F822300C480340D1E9000640EAA4
:1019400006108E6840EA06208E8940EA06408E69BD
:101950003043034344F8223003E06FF0704044F812
:101960002200002070BD00000000F0CF10B503463B
:101970000022086853F8202012480240D1E90104EF
:101980002043CC6820430C6920434C6920438C6978
:101990002043CC6920430C6A20434C6A20438C6A64
:1019A0002043CC6A2043CC6B20430C6B2043024382
:1019B0008868082801D142F04002086843F82020D6
:1019C000002010BD8000F0FF30B503460024501CFD
:1019D00053F8204004F04044D1E9000540EA0510E6
:1019E0008D6840EA05208D8940EA0545088A401E39
:1019F00045EA0055087D801E45EA00608D69284350
:101A00000443501C43F82040002030BD70B504460C
:101A1000A56D00F085F9064694F83500022808D037
:101A20008020606500BF002084F8340000BF0120E2
:101A300070BD2068006820F01600216808602068EA
:101A4000406920F0800021684861206C08B9A06CD2
:101A500028B12068006820F008002168086020682C
:101A6000006820F00100216808600FE000F058F9DC
:101A7000801B05280AD92020606500BF002084F85B
:101A8000340000BF032084F83500D1E720680068E7
:101A900000F001000028E9D194F85C103F20884054
:101AA000A86000BF002084F8340000BF012084F843
:101AB00035000020BCE7014691F83500022803D02C
:101AC0008020486501207047052081F835000868AE
:101AD000006820F001000A6810600020F3E70000B1
:101AE000F8B502460B460025002400200021DEE068
:101AF000012606FA01F51E6806EA0504AC4275D116
:101B00001E7906F00306012E04D01E7906F00306A6
:101B1000022E13D190684F000326BE40B0434F0001
:101B2000DE68BE4030439060506801268E40B0436E
:101B30001E79C6F300168E40304350601E7906F0C1
:101B40000306032E09D0D0684F000326BE40B043E1
:101B50004F009E68BE403043D0601E7906F00306F9
:101B6000022E13D1CF0802F1200656F827004E07A7
:101B7000F70E0F26BE40B0434F07FF0E1E69BE4052
:101B80003043CF0802F1200646F8270010684F00C6
:101B90000326BE40B0431E7906F003064F00BE4048
:101BA000304310605E6806F08056B6F1805F7DD1EC
:101BB00000BF00260096404E366846F480463E4FF1
:101BC0003E603E46366806F48046009600BF00BF81
:101BD0003A4E8F0856F827008E07370F0F26BE4063
:101BE000B043374EB24202D1002624E05EE0354ECB
:101BF000B24201D101261EE0334EB24201D102268B
:101C000019E0324EB24201D1032614E0304EB24206
:101C100001D104260FE02F4EB24201D105260AE081
:101C20002D4EB24201D1062605E02C4EB24201D122
:101C3000072600E008268F073F0FBE4030431F4EA7
:101C40008F0846F82700264E3068A0435E6806F4E9
:101C50008036B6F5803F00D12043214E3060361DDE
:101C60003068A0435E6806F40036B6F5003F00D148
:101C700020431B4E361D3060361D3068A0435E6821
:101C800006F48016B6F5801F00D12043144E0836A6
:101C90003060361D3068A0435E6806F40016B6F565
:101CA000001F00D120430E4E0C363060491C102915
:101CB000FFF41EAFF8BD0000443802400838014070
:101CC000000002400004024000080240000C0240F4
:101CD000001002400014024000180240001C0240A4
:101CE000003C0140024613690B400BB1012000E0AB
:101CF0000020704710B5426921EA020302EA01049C
:101D000043EA0443836110BD0AB1816101E00B0421
:101D10008361704701480068000C7047002004E0B0
:101D200001480068704700001C000020034800685C
:101D30000349097808440149086070471C000020E5
:101D40002400002010B50A48006840F400700849DB
:101D500008600846006840F480600860032000F0D6
:101D60007FF80F2000F006F800F02AF8002010BDE0
:101D7000003C024070B504460E4800784FF47A717A
:101D8000B1FBF0F00C490968B1FBF0F5284600F012
:101D90009BFC08B1012070BD102C07D20022214607
:101DA000501E00F01EF80548046001E00120F2E733
:101DB0000020F0E724000020000000202000002088
:101DC000704701460846002809DB00F01F03012286
:101DD0009A4043099B0003F1E023C3F8002100BFB0
:101DE00070472DE9F05F80460D461646002701F04A
:101DF00001FA074639462A46334601F00700C0F18A
:101E0000070ABAF1040F02D94FF0040A01E0C0F149
:101E1000070AD14600F1040ABAF1070F02D24FF0C7
:101E2000000A01E0A0F1030AD4464FF0010A0AFAC1
:101E300009FAAAF1010A0AEA020A0AFA0CFA4FF0B0
:101E4000010B0BFA0CFBABF1010B0BEA030B4AEA9B
:101E50000B042146404601F0D5F9BDE8F09F000093
:101E600000BF00F00702064B19684FF6FF03194048
:101E7000044B0B4343EA0221014B196000BF70473A
:101E80000CED00E00000FA0570B504460D460CB9F3
:101E9000012070BD5848006800F00700A84209D230
:101EA00055490D700846006800F00700A84201D0AF
:101EB0000120EEE7207800F0020002281DD12078F2
:101EC00000F00400042805D14C48006840F4E050BC
:101ED0004A490860207800F00800082805D14748E2
:101EE000006840F46040454908604448006820F0BC
:101EF000F000A168084341490860207800F0010023
:101F0000A8B36068012807D13C4808380068C0F3CE
:101F10004040B8B90120BCE76068022802D0606880
:101F2000032807D1354808380068C0F3406048B935
:101F30000120AEE7314808380068C0F3400008B916
:101F40000120A6E72D48006820F0030061680843DF
:101F50002A490860FFF7E4FE064609E0FFF7E0FEC5
:101F6000801B41F28831884202D9032091E707E0C3
:101F70002248006800F00C006168B0EB810FEDD1E1
:101F80001D48006800F00700A84209D91A490D70E1
:101F90000846006800F00700A84201D0012078E759
:101FA000207800F00400042807D11448006820F4C9
:101FB000E050E168084311490860207800F008000B
:101FC000082808D10D48006820F46040216940EAE3
:101FD000C1000A49086000F03FF808490968C1F3E8
:101FE0000311074A515CC84006490860064800686A
:101FF000FFF7C0FE00204CE7003C024008380240DA
:102000000E81030800000020200000200148006825
:10201000704700000000002000B5FFF7F7FF0449FB
:102020000968C1F38221034A515CC84000BD000029
:10203000083802401E81030800B5FFF7E7FF044996
:102040000968C1F34231034A515CC84000BD000039
:10205000083802401E8103082DE9F04700240025BE
:102060000026A1462548006800F00C0020B1042895
:1020700005D008283AD105E0DFF8849039E0DFF890
:10208000849036E01D48001F006800F03F041B48A4
:10209000001F006800F4800078B11A481749091F32
:1020A0000968C1F38811A0FB017001462246002394
:1020B0003846FEF776F905460EE011480F49091F2C
:1020C0000968C1F38811A0FB017001462246002374
:1020D0003846FEF766F905460848001F0068C0F359
:1020E0000140401C4600B5FBF6F902E0DFF8109015
:1020F00000BF00BF4846BDE8F08700000838024036
:102100000024F40000127A00F8B504460CB901204E
:10211000F8BD207800F00100002874D0F94800686C
:1021200000F00C0004280DD0F648006800F00C0008
:10213000082813D1F348001F006800F48000B0F5B0
:10214000800F0BD1EF4808380068C0F340400028EA
:1021500059D06068002856D10120D9E700BF6068D7
:10216000B0F5803F08D1E7480838006840F4803077
:10217000E449083908601EE06068B0F5A02F0DD171
:10218000E0480838006840F48020DE4908390860DB
:102190000846006840F4803008600CE0D9480838F0
:1021A000006820F48030D749083908600846006884
:1021B00020F48020086000BF606890B1FFF7B0FD98
:1021C000054606E0FFF7ACFD401B642801D903205B
:1021D0009EE7CC4808380068C0F340400028F1D0A2
:1021E00011E0FFF79DFD054606E0FFF799FD401B56
:1021F000642801D903208BE7C24808380068C0F37F
:1022000040400028F1D1207800F0020002285FD180
:10221000BC48006800F00C0058B1BA48006800F0F3
:102220000C0008281CD1B748001F006800F480008B
:10223000B0B9B44808380068C0F3400020B1E06885
:10224000012801D0012063E7AE480838006820F07B
:10225000F800216940EAC100AA490839086037E05E
:10226000E06800B30120A8490860FFF759FD054662
:1022700006E0FFF755FD401B022801D9032047E780
:10228000A04808380068C0F340000028F1D09D48FD
:102290000838006820F0F800216940EAC100994937
:1022A0000839086014E0002097490860FFF738FDFE
:1022B000054606E0FFF734FD401B022801D9032044
:1022C00026E7904808380068C0F340000028F1D1A4
:1022D000207800F0080008282CD16069A8B10120FE
:1022E0008A490860FFF71CFD054606E0FFF718FD68
:1022F000401B022801D903200AE782486C3000689D
:10230000C0F340000028F1D014E000207F490860AD
:10231000FFF706FD054606E0FFF702FD401B022819
:1023200001D90320F4E677486C300068C0F3400020
:102330000028F1D1207800F00400042870D1002793
:1023400070483830006800F0805090B900BF00201D
:1023500000906C483830006840F08050694938314E
:1023600008600846006800F08050009000BF00BF81
:1023700001276748006800F48070B0B964480068BD
:1023800040F4807062490860FFF7CAFC054606E029
:10239000FFF7C6FC401B022801D90320B8E65C48C1
:1023A000006800F480700028F2D000BFA068012807
:1023B00008D154486830006840F001005149683144
:1023C00008601DE0A06805280DD14E4868300068FF
:1023D00040F004004B49683108600846006840F04E
:1023E000010008600CE047486830006820F00100F8
:1023F0004449683108600846006820F0040008601D
:1024000000BFA068A8B1FFF78BFC054609E0FFF705
:1024100087FC401B41F28831884202D9032077E6CD
:1024200026E0384868300068C0F340000028EED04D
:1024300013E0FFF775FC054608E0FFF771FC401B51
:1024400041F28831884201D9032061E62D48683085
:102450000068C0F340000028EFD1012F07D12948C0
:102460003830006820F0805026493831086000BFBD
:10247000A069002845D02348006800F00C00082817
:102480005DD0A069022845D100201F490866FFF7EA
:1024900047FC054606E0FFF743FC401B022801D934
:1024A000032035E6174808380068C0F3406000286C
:1024B000F1D1D4E907010843616A40EA81110122A0
:1024C000A06AC2EB500041EA00412C20005D41EAC5
:1024D00000600C49091F086001200B490866FFF7DE
:1024E0001FFC054606E0FFF71BFC401B022801D934
:1024F00003200DE6034808380068C0F34060002858
:10250000F1D049E00838024000004742800E4742BF
:1025100000700040002021490866FFF701FC0546D5
:1025200006E0FFF7FDFB401B022801D90320EFE581
:102530001B480068C0F340600028F2D12CE0A0697D
:10254000012800D1E4E51648001D0668A0690128AD
:1025500020D006F48001E06981421BD106F03F01E2
:10256000206A814216D147F6C0703040616AB0EBF4
:10257000811F0FD106F440310122A06AC2EB500046
:10258000B1EB004F06D106F070612C20005DB1EB7D
:10259000006F01D00120BBE50020B9E500004742F3
:1025A0000038024070B504460E4615460CB90120AD
:1025B00070BD94F8490028B9002084F848002046EE
:1025C00000F01CF804F108012068FFF7CFF931464C
:1025D000A2682068FFF7F8F92946236BD4E90102C5
:1025E000FFF7A0F9A168206850F8210040F0010031
:1025F000A268216841F822000020D9E710B586B012
:10260000044600BF002000902248006840F001000E
:10261000204908600846006800F00100009000BFF3
:1026200000BF00BF002000901A480838006840F042
:1026300008001849083908600846006800F00800DA
:10264000009000BF00BF00BF002000900846006857
:1026500040F0100008600846006800F0100000908C
:1026600000BF00BF4CF203700190022002900120D5
:102670000390022004900C20059001A90648FFF762
:102680002FFA4FF68070019001A90448FFF728FA4D
:1026900006B010BD38380240000C02400010024065
:1026A000042808D14FF0E021096941F004014FF0FE
:1026B000E022116107E04FF0E021096921F00401F7
:1026C0004FF0E0221161704770B504462546681E40
:1026D000B0F1807F01D301200FE0681E4FF0E021B0
:1026E00048610F214FF0FF3000F08CFD00204FF0CB
:1026F000E021886107200861002070BD70477047A5
:10270000704710B5044620680069C0F34000D8B196
:102710002068C068C0F34000B0B16FF002002168CB
:102720000861012020772068806900F0030018B15B
:102730002046FFF7E5FF05E0204600F0ADF8204613
:1027400000F0ABF80020207720680069C0F380001B
:10275000D8B12068C068C0F38000B0B16FF0040049
:1027600021680861022020772068806900F44070A9
:1027700018B12046FFF7C4FF05E0204600F08CF8B2
:10278000204600F08AF80020207720680069C0F316
:10279000C000D8B12068C068C0F3C000B0B16FF00D
:1027A000080021680861042020772068C06900F0D3
:1027B000030018B12046FFF7A3FF05E0204600F014
:1027C0006BF8204600F069F8002020772068006947
:1027D000C0F30010D8B12068C068C0F30010B0B1D9
:1027E0006FF0100021680861082020772068C06918
:1027F00000F4407018B12046FFF782FF05E0204644
:1028000000F04AF8204600F048F8002020772068C1
:10281000006900F0010058B12068C06800F00100B4
:1028200030B16FF0010021680861204600F036F8F1
:1028300020680069C0F3C01058B12068C068C0F3B8
:10284000C01030B16FF08000216808612046FFF7AA
:1028500055FF20680069C0F3801058B12068C06837
:10286000C0F3801030B16FF040002168086120464D
:1028700000F024F820680069C0F3401058B12068C7
:10288000C068C0F3401030B16FF0200021680861CB
:102890002046FFF734FF10BD7047704710B504465F
:1028A0000448844205D100BF02210348FFF722FA01
:1028B00000BF10BD90040020001002407047704718
:1028C000704701460022002391F83D2091F83E30E8
:1028D00042EA0300704700002DE9F84F04462068E3
:1028E00005682068C668206847694FF00009CA4635
:1028F00005F00F09B9F1000F0AD105F0200038B139
:1029000006F0200020B1204600F069FABDE8F88FFB
:10291000B9F1000F72D007F0010018B906F49070F9
:1029200000286BD005F0010030B106F4807018B1BA
:10293000206C40F00100206405F0040030B107F085
:10294000010018B1206C40F00200206405F0020084
:1029500030B107F0010018B1206C40F00400206491
:1029600005F0080048B106F0200010B907F001009A
:1029700018B1206C40F008002064206C70B305F0A2
:10298000200028B106F0200010B1204600F027FA00
:1029900020684069C0F3801A206C00F0080010B96C
:1029A000BAF1000F23D0204600F0EEF9206840690C
:1029B00000F04000402816D12068406920F0400017
:1029C00021684861A06B50B15648A16B0865A06BA7
:1029D000FFF771F810B1A06B016D88470CE020463D
:1029E000FFF76EFF08E02046FFF76AFF04E020468D
:1029F000FFF766FF0020206488E7FFE7206B0128CF
:102A000079D105F01000002875D006F010000028DC
:102A100071D000BF002000902068006800902068FE
:102A20004068009000BF00BF2068406900F040008F
:102A3000402839D1A06B006840681FFA80F8B8F1CF
:102A4000000F30D0A08D40452DDDA4F82E80A06B66
:102A5000C069B0F5807F1FD02068C06820F4807006
:102A60002168C8602068406920F001002168486141
:102A70002068406920F0400021684861202084F8E7
:102A80003E00002020632068C06820F0100021680C
:102A9000C860A06BFEF7BAFFA08DE28D801A81B2EC
:102AA0002046FFF70CFF31E7A08DE18D401A1FFA99
:102AB00080F8E08DE8B1B8F1000F1AD02068C06846
:102AC00020F490702168C8602068406920F00100FF
:102AD00021684861202084F83E000020206320689F
:102AE000C06820F010002168C86041462046FFF70A
:102AF000E6FE0BE7FFE705F0800030B106F080004E
:102B000018B1204600F003FB00E705F0400030B1AB
:102B100006F0400018B1204600F051F9F6E600BF7B
:102B2000F4E60000752D000810B504460CB901202C
:102B300010BDA06900B100E000BF94F83D0028B9C5
:102B4000002084F83C00204600F028F8242084F877
:102B50003D002068C06820F400502168C86020460D
:102B600000F09CF92068006920F490402168086119
:102B70002068406920F02A00216848612068C06808
:102B800040F400502168C86000202064202084F8B0
:102B90003D0084F83E000020CAE7000010B586B072
:102BA00004462D492068884254D100BF00BF002050
:102BB00000902A48006840F0100028490860084644
:102BC000006800F01000009000BF00BF00BF00BF11
:102BD00000BF0020009021481438006840F0020037
:102BE0001E49143908600846006800F00200009091
:102BF00000BF00BF00BF00BF00BF0020009008461C
:102C0000006840F0020008600846006800F002001A
:102C1000009000BF00BF00BF402001900220029042
:102C200001200390022004900720059001A90C4880
:102C3000FEF756FF802001900720059001A9084863
:102C4000FEF74EFF2520FFF7BCF803221146252092
:102C5000FFF7C7F806B010BD00100140443802402D
:102C60000004024070B504460D46164694F83E0036
:102C7000202816D105B10EB9012070BD00BF94F80F
:102C80003C00012801D10220F7E7012084F83C0034
:102C900000BF0020206332462946204600F014FA87
:102CA000EBE70220E9E700001D4A0168914236D1B6
:102CB0001C49098801F4004189BB1A49098801F4BB
:102CC000804171B1184909780A2903D00021154AB9
:102CD000118024E01349098841F40041114A118010
:102CE0001DE0114909780D2906D10E49098841F4E2
:102CF00080410C4A118012E00B490978094A128878
:102D0000C2F30D02094B995406490988491C054A2A
:102D1000118011460988C72901DD00211180704703
:102D200000100140180000201A0000202403002099
:102D3000704700BFFEE700BFFEE7704710B5FEF723
:102D4000F5FF34F023FB012801D034F0E9F810BD81
:102D50000348006840F470000149086070470000B3
:102D600088ED00E010B50248FFF7CBFC10BD000075
:102D70009004002070B50546AC6B0020E085E0842F
:102D80002046FFF79DFD70BD0168C96821F4907170
:102D90000268D1600168496921F00101026851614E
:102DA000016B012905D10168C96821F01001026891
:102DB000D160202180F83E1000210163704710B5DA
:102DC00004462068C06820F040002168C8602020C8
:102DD00084F83D002046FFF7ABFF002010BD70B522
:102DE000044694F83E00222856D1A068B0F5805FD2
:102DF0000CD1206950B90025A66A20684068C0F34C
:102E000008003080A06A801CA06215E0A56A002638
:102E1000A068B0F5805F03D0A06828B9206918B910
:102E200020684068287004E02068406800F07F0057
:102E30002870A06A401CA062E08D401E80B2E08530
:102E400040BB2068C06820F020002168C86020686E
:102E5000C06820F480702168C8602068406920F054
:102E6000010021684861202084F83E00206B012881
:102E70000AD12068C06820F010002168C860A18DC8
:102E80002046FFF71CFD02E02046FFF70DFF002063
:102E9000206370BD0020FCE70220FAE72DE9F84F1F
:102EA00004462068006920F44050E1680843216826
:102EB00008612169A068084361690843E169084322
:102EC00000902068C06849F20C618843009908436B
:102ED0002168C8602068406920F44070A1690843F7
:102EE0002168486176492068884203D07549206886
:102EF000884203D1FFF7A0F8814602E0FFF78CF883
:102F00008146E069B0F5004F6CD102206168A0FBFA
:102F1000015003461920A9FB007001462A46384695
:102F2000FDF73FFA6421B0FBF1F04FEA001A0220EE
:102F30006168A0FB01510B461920A9FB00712A46CC
:102F40003846FDF72EFA834602206168A0FB015047
:102F500003461920A9FB00712A463846FDF721FADD
:102F60006421B0FBF1F000EBC00101EB0010ABEB12
:102F70008000322101EBC0006421B0FBF1F000F0D1
:102F8000F8000AEB400A02206168A0FB01500346EA
:102F90001920A9FB007001462A463846FDF701FAC0
:102FA000834602206168A0FB015003461920A9FB5B
:102FB00000712A463846FDF7F4F96421B0FBF1F0C0
:102FC00000EBC00101EB0010ABEB8000322101EB04
:102FD000C0006421B0FBF1F000F00700504421680C
:102FE00088606AE004206168A0FB01500346192054
:102FF000A9FB007001462A463846FDF7D2F9824601
:1030000004206168A0FB015003461920A9FB007051
:1030100001462A463846FDF7C4F96421B0FBF1F0B9
:1030200000EBC00101EB0010AAEB8000322101EBA4
:1030300000106421B0FBF1F000F0F00A0420616898
:10304000A0FB017003461920A9FB00513A4628460F
:10305000FDF7A7F96421B0FBF1F00AEB001A042098
:103060006168A0FB01510B461920A9FB00712A469B
:103070003846FDF796F9834604206168A0FB0150AD
:1030800003461920A9FB007001462A463846FDF781
:1030900088F96421B0FBF1F000EBC00101EB0010F6
:1030A000ABEB8000322101EB00106421B0FBF1F0AA
:1030B00000F00F00504421688860BDE8F88F0000E0
:1030C000001001400014014010B5034699629A8532
:1030D000DA8500201864222083F83E0000BF00201B
:1030E00083F83C0000BF1868C06840F480701C681A
:1030F000E0601868406940F001001C686061186871
:10310000C06840F020001C68E060002010BD01464F
:1031100091F83D00212828D18868B0F5805F0BD157
:10312000086948B90A6A1088C0F308000B6858603B
:10313000086A801C086205E00B6A581C086218784F
:103140000B685860C88C401E80B2C88458B90868A3
:10315000C06820F080000B68D8600868C06840F044
:1031600040000B68D860002070470220FCE7000098
:1031700070B500240F4D1048FFF7AEFB00BF03E011
:10318000641CAC4200D904E00B48FFF79AFB2028EE
:10319000F6D100BF002403E0641CAC4200D906E075
:1031A000012206490448FFF75DFD0028F4D100BF65
:1031B00070BD0000FFFF0100EC0300201A0000209A
:1031C00000BFFEE703B401984100009850EAC12017
:1031D00018BF04204A0D18BF40F0010040F2FF72F2
:1031E000B2EB515F08BF40F00200012808BF052084
:1031F00002B0704702480068C0F302207047000028
:103200000CED00E010B5002804DB0A07130E054A98
:10321000135406E00A07140E034A00F00F031B1FA5
:10322000D45410BD00E400E018ED00E070B5044691
:10323000002508E02168481C20600878303805EB3C
:10324000850100EB41052168087800F004F80028AA
:10325000F0D1284670BD0146302903DB392901DC55
:10326000012070470020FCE730380A2801D20120F5
:10327000704700207047000010B54021074801F05A
:10328000E3FA0022042106482BF00AF905490860F8
:1032900002F002FE00200449087010BDB0C50020F5
:1032A000655F00089C0200209802002030B50346AC
:1032B000B1F90040B2F90050AC4202DDB1F9004072
:1032C00001E0B2F900401C80B1F90240B2F90250AD
:1032D000AC4202DDB1F9024001E0B2F902405C808B
:1032E000B1F90440B2F90450AC4202DAB1F9044039
:1032F00001E0B2F904409C80B1F90640B2F90650F1
:10330000AC4202DAB1F9064001E0B2F90640DC80D5
:103310000120B3F90040B3F90450AC4205DCB3F925
:103320000240B3F90650AC4200DD002030BDF8B5D4
:1033300004460D4616460027B4F90000B5F9001002
:10334000884212DBB4F90200B5F9021088420CDBA6
:10335000B4F90400B5F90410884206DCB4F906009B
:10336000B5F90610884200DC01270FB90020F8BD2E
:103370000EB90120FBE72088ADF800006088ADF8A9
:10338000020032466946284600F0A7F808B9002036
:10339000EDE7A088ADF800006088ADF80200324685
:1033A0006946284600F099F808B90020DFE7208830
:1033B000ADF80000E088ADF80200324669462846C4
:1033C00000F08BF808B90020D1E7A088ADF8000024
:1033D000E088ADF8020032466946284600F07DF8E4
:1033E00008B90020C3E70120C1E70246B2F9000096
:1033F000B1F90430984213DCB2F90400B1F900309D
:1034000098420DDBB2F90200B1F90630984207DCB0
:10341000B2F90600B1F90230984201DB0120704791
:103420000020FCE7F8B504460D461646B4F9040042
:10343000B5F90010884211DBB4F90600B5F90210A5
:1034400088420BDBB4F90000B5F90410884205DCB2
:10345000B4F90200B5F90610884201DD0120F8BD7B
:103460000EB90020FBE72088ADF800006088ADF8B9
:10347000020032466946284600F02FF808B10020C5
:10348000EDE7A088ADF800006088ADF80200324694
:103490006946284600F021F808B10020DFE72088BF
:1034A000ADF80000E088ADF80200324669462846D3
:1034B00000F013F808B10020D1E7A088ADF80000B3
:1034C000E088ADF8020032466946284600F005F86B
:1034D00008B10020C3E70120C1E72DE9FC5F0546E4
:1034E0000E4614464FF0000AB6F90000B5F9001078
:1034F000884213DBB6F90000B5F9041088420DDCF0
:10350000B6F90200B5F90210884207DBB6F90200ED
:10351000B5F90610884201DC4FF0010ABAF1000F3C
:1035200002D10020BDE8FC9F002C01DC0120F9E75E
:10353000284616F0E2FD834600EBDB704710284674
:1035400016F053FD834600EBDB704FEA60084745F9
:1035500001DA384600E0404681464C4500DD4C46E5
:103560002888ADF800002888204400B2ADF8040097
:103570006888ADF802006888204400B2ADF8060003
:10358000002231466846FFF7A8FF80B1BDF804006D
:10359000204400B2ADF80400BDF80600204400B29B
:1035A000ADF806003146684627F044FBBAE7E888E4
:1035B000001B00B2ADF80200E888ADF8060000225A
:1035C00031466846FFF789FF80B1BDF8040020440A
:1035D00000B2ADF80400BDF80200001B00B2ADF867
:1035E00002003146684627F025FB9BE7A888001BB0
:1035F00000B2ADF80000A888ADF804000022314602
:103600006846FFF76AFF80B1BDF80000001B00B2FA
:10361000ADF80000BDF80200001B00B2ADF80200DA
:103620003146684627F006FB7CE76888ADF8020063
:103630006888204400B2ADF8060000223146684692
:10364000FFF74BFF80B1BDF80000001B00B2ADF8E2
:103650000000BDF80600204400B2ADF80600314677
:10366000684627F0E7FA5DE701205BE710B5B1F99E
:103670000030B2F90040A34202DAB1F9003001E0B3
:10368000B2F900300380B1F90230B2F90240A3422E
:1036900002DAB1F9023001E0B2F902304380B1F947
:1036A0000430B2F90440A34202DDB1F9043001E074
:1036B000B2F904308380B1F90630B2F90640A34272
:1036C00002DDB1F9063001E0B2F90630C38010BD69
:1036D0002DE9FF4104462AF084FE054600200390B0
:1036E00034B14749E068086020462AF0F1FF03E062
:1036F00019F060FB4249086041490968086927F0F0
:10370000F7F93F480068406920B13D4909684869B8
:1037100027F0EEF93A490968C86927F0E9F938490C
:103720000968086A27F0E4F935480068006940B97B
:10373000002033490968A1F8500100BF00BFBDE86F
:10374000FF8127F077FD27F0BDFC2D480068B0F819
:10375000500100284BD02A4800680068007CC0F364
:103760004000E8B12648006819F0A2FB401E06B2EE
:103770002348006819F036FB401E07B23B46002282
:10378000114601A8009616F0FDFC01A81C49096825
:103790000968896B48601A48006805F011FE00BF8F
:1037A0004FF4807116480068303021F020FC202151
:1037B0001348006800F5987021F019FC00201049AA
:1037C0000968A1F8500128462AF0FEFD03900C4834
:1037D00000680068406A50B10949096808680849EA
:1037E000096809684B6A07490A680399984721F0F4
:1037F00035F900F03FF800F007F800BF9FE7000040
:103800004C0100204801002010B5002416E0C4EB54
:10381000C4000C4951F8200030B1C4EBC401094A7E
:1038200052F8210021F0CCF9C4EBC401054A02EBA7
:1038300081001C2121F0DBFB601CC4B2042CE6DB00
:1038400010BD00008CC600200146094A10680BE03C
:1038500042688A4202D002688A4204D1027E22F083
:103860000102521C027640690028F1D17047000025
:10387000200100207047000010B50421014800F02D
:10388000E3FF10BDA4C5002010B51C21014800F0C5
:10389000DBFF10BDBCC500202DE9FF4F8BB00446F7
:1038A0009A46199DBAF1000F11D11898B0F5807F92
:1038B0000DD10020208060800C98401E00B2A080B6
:1038C0000D98401E00B2E0800FB0BDE8F08FB5F952
:1038D00000004042189948430121C1EB202000B26A
:1038E0002080B5F902004042189948430121C1EBFC
:1038F000202000B26080B5F900100C98401A189989
:103900004843022101EB202000B2A080B5F902104B
:103910000D98401A18994843022101EB202000B26B
:10392000E080BAF1000F14D120882988084400B241
:10393000208060886988084400B26080A088298857
:10394000084400B2A080E0886988084400B2E080A2
:10395000BAE70A209AFBF0F00A900A98401C0990F6
:103960000A9800EB8000AAEB400B0A9800B22BF0FB
:1039700035F80890099800B22BF030F807900A98B3
:103980005A3000B22BF02AF8069009985A3000B24B
:103990002BF024F80590CBF10A01089841430798D1
:1039A00000FB0B100A2190FBF1F6CBF10A010698FF
:1039B0004143059800FB0B100A2190FBF1F77611AB
:1039C0007F11B4F90080B4F9029007FB08F006FB00
:1039D0001900298801EBA02000B2ADF8100006FB09
:1039E00008F007FB0900698801EBA02000B2ADF8E0
:1039F0001200B4F90480B4F9029007FB08F006FB4A
:103A00001900298801EBA02000B2ADF80C0006FBDC
:103A100008F007FB0900698801EBA02000B2ADF8AF
:103A20000E00B4F90080B4F9069007FB08F006FB1D
:103A30001900298801EBA02000B2ADF8080006FBB0
:103A400008F007FB0900698801EBA02000B2ADF87F
:103A50000A00B4F90480B4F9069007FB08F006FBED
:103A60001900298801EBA02000B2ADF8040006FB84
:103A700008F007FB0900698801EBA02000B2ADF84F
:103A80000600BDF90800BDF91010884202DABDF940
:103A9000080001E0BDF91000BDF90410BDF90C20CB
:103AA000914202DABDF9041001E0BDF90C10884220
:103AB0000BDABDF90800BDF91010884202DABDF931
:103AC00008000DE0BDF910000AE0BDF90400BDF9E1
:103AD0000C10884202DABDF9040001E0BDF90C00C7
:103AE0002080BDF90800BDF91010884202DDBDF943
:103AF000080001E0BDF91000BDF90410BDF90C206B
:103B0000914202DDBDF9041001E0BDF90C108842BC
:103B10000BDDBDF90800BDF91010884202DDBDF9CA
:103B200008000DE0BDF910000AE0BDF90400BDF980
:103B30000C10884202DDBDF9040001E0BDF90C0063
:103B4000A080BDF90A00BDF91210884202DABDF961
:103B50000A0001E0BDF91200BDF90610BDF90E2002
:103B6000914202DABDF9061001E0BDF90E1088425B
:103B70000BDABDF90A00BDF91210884202DABDF96C
:103B80000A000DE0BDF912000AE0BDF90600BDF91A
:103B90000E10884202DABDF9060001E0BDF90E0000
:103BA0006080BDF90A00BDF91210884202DDBDF93E
:103BB0000A0001E0BDF91200BDF90610BDF90E20A2
:103BC000914202DDBDF9061001E0BDF90E108842F8
:103BD0000BDDBDF90A00BDF91210884202DDBDF906
:103BE0000A000DE0BDF912000AE0BDF90600BDF9BA
:103BF0000E10884202DDBDF9060001E0BDF90E009D
:103C0000E08000BF60E62DE9F74F86B004462068EB
:103C10000590B4F908100798A0EB0108B4F90A1050
:103C20000898A0EB0109E089B0F5807F13D1206BE3
:103C300000FB08F0E16A01FB1901606A00EBA10BCF
:103C4000E06A00FB08F0216B01FB0901A06A00EBB0
:103C5000A10004902FE0A08980B9A06B00FB08F0C0
:103C60004FEA6018A06B00FB09F04FEA6019606A28
:103C700000EB080BA06A484404901CE0A06B00FB1A
:103C800008F04FEA6018A06B00FB09F04FEA6019DA
:103C9000206B00FB08F0E16A01FB1901606A00EB90
:103CA000A12BE06A00FB08F0216B01FB0901A06A6F
:103CB00000EBA12004904FEA2B2604980712B4F9D8
:103CC0000400B04203DC002009B0BDE8F08F002EF4
:103CD00001DA0020F8E7B4F90600B84201DC002060
:103CE000F2E7002F01DA0020EEE73420005DC0F398
:103CF000800050B33420005DC0F3400078B9022545
:103D0000B4F904007843684306FB050A059800EB04
:103D10000A012A4604F1140021F017F92CE00325CA
:103D2000B4F904007843684306FB050A6A1E059847
:103D300000EB0A0104F1140021F007F90AEB050079
:103D4000401E0599095CA17516E04FF0000A002598
:103D5000208A03463AB231B2019004F118001DF0F6
:103D6000DBFD0290BDF80800A0823AB231B204F146
:103D700018001DF031FDA0753420005D00F0010039
:103D8000B0B14FF47F40002100F47C4241EA52116F
:103D9000C0F3C40211430191BDF804201146029101
:103DA000A08ABDF80810884201D100208CE700BF2E
:103DB000E07C08B9012087E70FFA8BF1A18704980E
:103DC00001B2E18731B24020015339B242200153A0
:103DD000C4F844A084F84850204600F003F803904B
:103DE000039871E72DE9F04F8DB00446D4F80090A8
:103DF00094F83C000C9094F83E000B900C987028BE
:103E00000BDA4FF0FF35B4F940002844002800DAFF
:103E100000250C988030C7B213E00C9890280EDD76
:103E20000125B4F940002844B4F90410884200DBAD
:103E300000250C98C0F1FF008030C7B201E00025DA
:103E4000FF270B9870280CDA4FF0FF36B4F94200C8
:103E50003044002800DA00260B98803000F0FF087C
:103E600015E00B9890280FDD0126B4F9420030448C
:103E7000B4F90610884200DB00260B98C0F1FF0061
:103E8000803000F0FF0802E000264FF0FF08A08A13
:103E90000A90A07D069000200590049003903420A5
:103EA000005DC0F3800000285BD094F84800626C8D
:103EB00000FB052000EB0901022209A821F045F8CA
:103EC000A28894F8480012FB00F2606C02FB060026
:103ED00000EB0901022208A821F037F8A28894F823
:103EE000480012FB00F2606C02FB060294F84800E6
:103EF00000FB052000EB0901022207A821F025F8AC
:103F00003420005DC0F3400000287ED094F84800C3
:103F1000616C00FB05110844401E19F80000059073
:103F2000A18894F8480011FB00F1606C01FB0601C8
:103F300094F848000844401E19F800000490A18835
:103F400094F8480011FB00F1606C01FB060194F845
:103F5000480000FB05110844401E19F800000390BA
:103F600053E0208A0090B4F942204020005B2844AE
:103F700001B204F11800009B1DF0CEFC0990208ACC
:103F800000904220005B304402B2B4F9401004F1CA
:103F90001800009B1DF0C0FC0890208A0090422071
:103FA000005B304402B24020005B284401B204F1BF
:103FB0001800009B1DF0B0FC07903420005DC0F39A
:103FC000400010B3B4F942204020005B284401B205
:103FD00004F118001DF000FC05904220005B304405
:103FE00002B2B4F9401004F118001DF0F5FB049082
:103FF0004220005B304402B24020005B284401B202
:1040000004F118001DF0E8FB0390BA46BB463420CB
:10401000005DC0F34000E0B306987843C7F1FF0CA1
:10402000059B03FB0C00C0F3072104987843C7F1FC
:10403000FF0C039B03FB0C00C0F3072201FB08F0FD
:10404000C8F1FF0302FB0300030AA375022905DC84
:10405000022A03DC00200DB0BDE8F08F022901DC4C
:104060004FF00008022A01DC4FF0FF0806980228F2
:1040700001DC4FF0000A0598022801DC4FF0FF0A2E
:104080000498022801DC4FF0000B0398022803DC9F
:1040900000E002E04FF0FF0B03E0BA46BB46FF2111
:1040A000A175BAF1000F02D1099802900BE0BAF1A4
:1040B000FF0F02D10A98029005E05246DDE909108F
:1040C00018F0E6F80290BBF1000F02D107980190BA
:1040D0000BE0BBF1FF0F02D10898019005E05A46B2
:1040E000DDE9071018F0D4F80190B8F1000F03D102
:1040F000BDF80400A0820FE0B8F1FF0F03D1BDF8B6
:104100000800A08208E04246DDE9011018F0C0F87E
:104110000090BDF80000A08201209CE72DE9F05F2F
:104120000446B4F9080001026162B4F90A00010210
:10413000A162B4F90C000A2190FBF1F56F1CB4F9EF
:104140000C0005EB8501A0EB4106684200B22AF0A5
:1041500045FC8046784200B22AF040FC8146C5F119
:104160005A0000B22AF03AFC8246C7F15A0000B267
:104170002AF034FC8346C6F10A0000FB08F009FB74
:1041800006000A2190FBF1F1E162C6F10A0000FB92
:104190000AF00BFB06000A2190FBF1F12163E06AB3
:1041A0004111E162206B41112163A07C1DF0C3FC31
:1041B0003421095D60F3000134200155A07C1DF01D
:1041C0009DFC3421095D60F3410134200155A07C40
:1041D000042805D0A07C052802D0A07C062807D1A1
:1041E0003420005D20F00400001D3421085505E056
:1041F0003420005D20F00401342001552168216243
:10420000A06920F0E000A061A17CA06961F3040036
:10421000A061A188A06961F39420A061E188A069F0
:1042200061F35F50A061E08900EBD071491001F5A6
:10423000001191FBF0F2A263FF21A175208AA082F8
:10424000BDE8F09F2DE9F743054616460024134CC0
:104250002AF0C7F88046334629462046019A1EF0C8
:1042600019F907465FB900BF00BF2C21204620F096
:10427000BEFE4FF00040A0620020BDE8FE8300209B
:10428000A062E06918B940462AF09EF8E061E06952
:1042900008B90120E0612046EFE70000E0C50020FA
:1042A00010B51421114800F0CFFA1EF0A5F804460D
:1042B00000BF1CB900BF00BF00BFFEE700BF14B9BC
:1042C00000BF00BF10BD0A4920461EF07DF9094914
:1042D00020461EF07BF9084920461EF079F907496F
:1042E00020461EF06FF900BFECE70000C8C50020B3
:1042F000151C0208E920020805230208DD1B02083C
:1043000070B504460D461021284620F070FE206846
:104310000078012804D1208A2880608A68800CE017
:1043200020680078022802D1E068686005E0206813
:104330000078042801D10A2068602068406820B114
:10434000206829464268904701E000BF00BF70BD69
:104350002DE9FE430446A66AEEB9A18A208A0844E4
:1043600001B2A182E18A608A084401B2E18220465A
:104370000CF05DFD06460EB9BDE8FE83204610F048
:104380004DFC0022092130461CF00CFA6078C0F385
:10439000400000B1F0E7208A10B9608A002870D090
:1043A00000200290019094F83C0000F00F000328D8
:1043B00012D1304622F0D4FE0746304622F058FE95
:1043C000804603200090B4F910103B464246304628
:1043D0000CF024F8029012E0304622F043FF07462A
:1043E000304622F0B7FD80460C200090B4F9121040
:1043F00043463A4630460CF011F8019000BF304673
:1044000022F008FE054605F0010028B9BDF90800B4
:10441000002801DD0020029005F0020028B9BDF956
:104420000800002801DA0020029005F0040028B9F5
:10443000BDF90400002801DD0020019005F008000E
:1044400028B9BDF90400002801DA0020019001AA72
:1044500002A920462DF004FA0023BDF90420BDF97D
:104460000810304625F0DCFDA08ABDF8081008448D
:1044700001B2A182E08ABDF80410084401B2E182D1
:1044800000BF00BF78E72DE9F84F0446D4F828B004
:10449000BBF1000F01D1BDE8F88F94F83C0000F0AB
:1044A0000F0000B9F7E71EF077FB06463068477E3D
:1044B0004021584624F0DEFA10B90021618321839F
:1044C000584622F0BBFE8046584622F0C1FE054603
:1044D00094F83C0000F00F000C2843D10021218308
:1044E0001DBBB4F91A00C7F164014843642190FB75
:1044F000F1F001B26183584622F02CFD8146584606
:1045000022F0B0FE82460C200090B4F91A104B46FF
:10451000524658460BF082FF6083B4F91A200023FC
:104520001946584625F07CFD69E020462DF0EFF94C
:104530000090002161836A4620462DF091F9BDF973
:10454000003041F6FF72514258460CF019FE814688
:10455000BDF80000484402B201230021584625F06E
:104560005FFD4CE094F83C0000F00F00032846D1BA
:1045700000216183B8F1000F23D1B4F91800C7F10D
:1045800064014843642190FBF1F001B22183584655
:1045900022F06EFD8146584622F0E2FD824603205D
:1045A0000090B4F9181053464A4658460BF036FFAF
:1045B0002083B4F9181000231A46584625F030FD20
:1045C0001DE020462DF088F9009000212183002273
:1045D000694620462DF044F9BDF9003041F6FF72DE
:1045E000514258460CF032FD8146BDF80000484467
:1045F00001B201230022584625F012FD00BF208B96
:10460000002860D1608B00285DD11DBB584622F088
:1046100029FE8146584622F09DFC8246B9F1000FE2
:1046200002DCBAF1000F14DDB9F1000F06DA012344
:104630004A460021584625F0F3FC0AE0BAF1000F83
:1046400007DA0123CAF1000002B20021584625F022
:10465000E7FC00BFB8F1000F23D1584622F008FD57
:104660008146584622F07CFD8246B9F1000F02DCFB
:10467000BAF1000F14DDB9F1000F06DA01230022B0
:104680004946584625F0CCFC0AE0BAF1000F07DA9B
:1046900001230022CAF1000001B2584625F0C0FCF7
:1046A00000BF32460A2158461CF07CF86078C0F3FF
:1046B000400000B1EFE694F83C0020F00F0184F8D0
:1046C0003C100021A16200BFE5E62DE9FF41044650
:1046D0000F4614B918F06EFB04460CB9BDE8FF8113
:1046E0001FB90020A4F85001F8E70020ADF8080039
:1046F000ADF80A00204618F075FB401E00B2ADF878
:104700000C00204618F0D4FB401E00B2ADF80E009D
:1047100002AA39466846FEF7C9FD064606B9DDE736
:104720002068007CC0F3400060B1029820630398C9
:1047300060630120A4F85001606810B1606829F03E
:10474000D3FFCBE72068806918B120686946826989
:10475000904700250BE004F1300000EBC50100227A
:104760006846FEF7E4FD00B1B8E7681C85B2B4F80E
:104770005001A842EFDCB4F85001202809DAB4F85F
:10478000502104F1300101EBC200694615F09DFB98
:104790000BE00020A4F85001B4F8502104F13001DE
:1047A00001EBC20002A915F090FBB4F85001401CC7
:1047B000A4F85001606810B1606829F095FF00BF4F
:1047C0008CE770B50546284600F013F8044600262D
:1047D0000CE02146284600F024F8064621462846EB
:1047E00000F086F8204620F0EBF93446002CF0D19A
:1047F00070BD014609B9002070474868FCE770B5F4
:10480000064600243046FFF7F4FF054605E0641C29
:104810002946304600F005F80546002DF7D1204620
:1048200070BD02460B461068001D034418687047AF
:1048300002460B461068034418687047014609B9E0
:10484000002070478868FCE7002242608260CA1C32
:1048500022F003010160704770B50446216801F140
:10486000080020F0DFF80546A5B1002229462046C1
:104870002BF076F92946204662682BF063F96068D0
:1048800020B12A46204661682BF06AF96560A0686D
:1048900000B9A560284670BD70B50446216801F1D5
:1048A000080020F0BFF80546A5B1002229462046A1
:1048B0002BF048F929462046A2682BF051F9A06850
:1048C00020B12A462046A1682BF03CF9A56060681B
:1048D00000B96560284670BD014609B901207047DE
:1048E000486818B9886808B90120F8E70020F6E799
:1048F0002DE9F04104460D460CB9BDE8F081204693
:10490000FFF777FFA8420FD129462046FFF789FF1E
:104910006060606810B90020A0602FE0002220468F
:1049200061682BF01DF929E02046FFF787FFA842B8
:104930000FD129462046FFF77BFFA060A06810B981
:10494000002060601AE000222046A1682BF0FAF8EF
:1049500014E029462046FFF76BFF0646294620460D
:10496000FFF75FFF07463A46314620462BF0EAF84C
:104970003246394620462BF0F3F800BF00BFBCE7B3
:1049800010B504462068806818B120682146826806
:1049900090472068006828B12068006820602046A1
:1049A000FFF7EEFF10BD0146886818B18868B0F9BE
:1049B000160070470020FCE72DE9F04F93B0054644
:1049C0008B4691469A461C9E688C20F00400001D80
:1049D0006884A5F8209032895946284623F0C6FD00
:1049E0001290A5F820A032895946284623F0BEFD32
:1049F0001190688C20F004006884DDE91110884271
:104A00000CD1DDE91110884208D1BDF84800BDF88D
:104A10004410884202D113B0BDE8F08FA5F8209071
:104A200032895946284623F0A1FD1290A5F820A00E
:104A3000594628460EF0CDFA10903189109A106828
:104A4000129A28F08AF93089602833D147F6FF712D
:104A50001298884202D0119888422BD1284623F020
:104A6000ACFF0F9000EBD0704710284623F0A5FF55
:104A70000F9000EBD0704FEA600847F6FF71129874
:104A8000884208D1781C08F10101884200DA01E06F
:104A900008F10100129047F6FF711198884208D181
:104AA000781C08F10101884200DA01E008F10100F8
:104AB000119000BF2448FFF7CFFE044600BF1CB989
:104AC00000BF00BF00BFFEE700BF04B9A3E7129814
:104AD000E06011982061ACB325603089A080C4F8F3
:104AE00008B0684614F0B8FB2146684614F067FC2D
:104AF0001649684614F033FC1548029000BF15496A
:104B0000684614F03AFCFF220021684614F047FC86
:104B10003188684614F039FC7188684614F01AFC34
:104B2000F068069000BF6846002190F83E2061F3CF
:104B3000000280F83E2000BF30690590684614F0FE
:104B400055FC00BF00BF66E7D4C50020195E03080E
:104B5000C5600308F55F030810B514210148FFF78D
:104B600073FE10BDD4C500202DE9FE4F04460F464C
:104B700090464FF0000900256BE1E06800EBC500AE
:104B80004068C0F3406000B162E1E16801EBC5013B
:104B9000496821F07F4025F0A8FF064626EA070075
:104BA00008B9012000E00020029026EA080008B9B8
:104BB000012000E000200190DDE90101814272D076
:104BC000E06850F835A04FF0000B6A4641F610013E
:104BD000504627F05BFD10B14FF0010BA9E06A468B
:104BE00041F61101504627F051FD10B14FF0010B75
:104BF0009FE06A4641F61201504627F047FD10B18A
:104C00004FF0010B95E06A4641F61301504627F03C
:104C10003DFD10B14FF0010B8BE06A4641F61501E6
:104C2000504627F033FD10B14FF0010B81E06A468A
:104C300041F61401504627F029FD10B14FF0010B49
:104C400077E06A4641F26901504627F01FFD10B136
:104C50004FF0010B6DE06A4643F20C01504627F01D
:104C600015FD10B14FF0010B63E06A4643F20D01F0
:104C7000504627F00BFD10B14FF0010B59E06A468A
:104C800041F20101504627F001FD10B14FF0010B38
:104C90004FE06A4641F20401504627F0F7FC18B194
:104CA0004FF0010B45E0D2E06A4641F20201504666
:104CB00027F0ECFC10B14FF0010B3AE06A4641F2EC
:104CC0000301504627F0E2FC10B14FF0010B30E039
:104CD0006A4641F20501504627F0D8FC10B14FF06A
:104CE000010B26E06A4641F20601504627F0CEFC51
:104CF00010B14FF0010B1CE06A4641F23201504600
:104D000027F0C4FC10B14FF0010B12E06A4643F6E5
:104D10000F01504627F0BAFC10B14FF0010B08E02C
:104D20006A4643F60E01504627F0B0FC08B14FF03A
:104D3000010BBBF1000F02D00320BDE8FE8F6A46D5
:104D400040F60A01504627F0A1FC10B14FF00209CD
:104D50007CE06A4640F60B01504627F097FC10B104
:104D60004FF0020972E06A4643F60F01504627F001
:104D70008DFC10B14FF0020968E06A4643F60E015F
:104D8000504627F083FC10B14FF002095EE06A46FE
:104D900040F63C01504627F079FC10B14FF0020973
:104DA00054E06A4640F63D01504627F06FFC10B1D2
:104DB0004FF002094AE06A4640F63A01504627F0B1
:104DC00065FC10B14FF0020940E06A464FF40461FF
:104DD000504627F05BFC10B14FF0020936E06A46FE
:104DE00040F64501504627F051FC10B14FF0020942
:104DF0002CE06A4640F64101504627F047FC10B1CE
:104E00004FF0020922E06A4640F64201504627F080
:104E10003DFC10B14FF0020918E06A4640F643012C
:104E2000504627F033FC10B14FF002090EE06A46FD
:104E300040F64901504627F029FC10B14FF0020915
:104E400004E0B9F1000F01D14FF0010900BF00BF2C
:104E50006D1C608CC0F3C500A8423FF68EAE48467C
:104E60006BE7000001480068704700004C0100201B
:104E700070470146C1F30412072A00DD0722D0B2B1
:104E80007047000010B518210348FFF7DDFC012032
:104E900029F042FB10BD000080C500202DE9F04143
:104EA00005460F4616460DB9BDE8F0812846FBF7CA
:104EB00061FC8046394628460A4A126890470746F0
:104EC000E8193146074A1268904706463C4603E017
:104ED000A019285C2855641CA8EB0600A042F7D254
:104EE00000BFE1E7E80200202DE9F04106460C464C
:104EF00017461D4629463046084A126890472060EA
:104F0000206830B1296888190021044A1268904746
:104F100000E000203860BDE8F0810000E0020020E1
:104F20002DE9F04F87B004460F4692469846DDE9DA
:104F300010560DB1002028801CB9002007B0BDE834
:104F4000F08F207808B90020F8E70FB90020F5E7C6
:104F50004FF0000906F0020010B906F0040098B105
:104F6000002000E0401C215C0A2905D0215C0D29AD
:104F700002D0215C0029F5D1215C01B1401C15B1A2
:104F80004FF0FF312980D9E706F0020008B141F661
:104F9000FF7800200690059038E0002004900598E6
:104FA00008B9012000E0002006A904AACDE90062AA
:104FB000CDE902100599601843465246394629F05A
:104FC00045FD83460498A8EB00000FFA80F804988A
:104FD00048440FFA80F9BBF1000F00D11CE005989E
:104FE0005844059020780A2802D020780D2800D156
:104FF00012E00598205C0A2803D00598205C0D2853
:1050000003D10598401C059006E000BF0598205C80
:1050100010B1B8F1000FC0DC00BF059870B905A948
:105020002046094A12689047834635B10022594606
:1050300038461BF08CFE0FFA80F900BF0DB1A5F8C1
:10504000009005987AE70000E00200202DE9F04783
:1050500006468846174606B10FB9BDE8F0873046C8
:10506000FBF788FB81463846FBF784FB044604B90E
:10507000F3E704EB090A414630460B4A12689047B1
:105080008046554603E0281B305C70556D1E08EBCA
:105090000400A842F7D906EB0800224639461FF063
:1050A00060FF00BFD9E70000E802002002460020B0
:1050B0000FA31B788B4211D113781BB901231370F6
:1050C00001200BE01378012B02D10023137005E0BF
:1050D0001378022B02D10023137001201378012BC7
:1050E00004D1202901D10223137001207047000050
:1050F0002300000073B582B0064603980190324643
:1051000000210846019B29F0BDFF054600200190C3
:105110000024681C1FF086FC044600BF1CB900BFB9
:1051200000BF00BFFEE700BF14B9002004B070BD8F
:10513000002060553246691C2046039B29F0A2FFDF
:105140002046F3E72DE9F04781460E4614461F46F8
:10515000DDF820A035461BE0600800FB0755294616
:105160004846D047B0F1000809DD04F0010080F0A6
:105170000100C0EB5404E8190546064608E0B8F102
:10518000000F02DA6408354602E02846BDE8F087E1
:10519000002CE1D10020F9E72DE9FF4F85B08346CF
:1051A000DDE9158ADDE91349DDE91775129E05F081
:1051B0000200F8B94FB105F0010030B1B9F1000FAC
:1051C00002D105F00C0000B17F1E03E03022204622
:1051D000641C3254544501D2202CF7D303E0302212
:1051E0002046641C325405F0010018B1BC4201D2C3
:1051F000202CF4D305F01000B0B305F4806050B952
:105200004CB1544501D0BC4205D1641E1CB1B8F16B
:10521000100F00D1641EB8F1100F09D105F0200065
:1052200030B9202C04D278222046641C325415E078
:10523000B8F1100F09D105F0200030B1202C04D2B4
:1052400058222046641C325408E0B8F1020F05D100
:10525000202C03D262222046641C3254202C03D21C
:1052600030222046641C3254202C16D2B9F1000F93
:1052700004D02D222046641C32540EE005F00400B8
:1052800020B12B222046641C325406E005F00800B1
:1052900018B120222046641C3254CDE90275CDE9B4
:1052A0000064584606A90EC900F0A2F809B0BDE88E
:1052B000F08F2DE9FF4F8FB08046DDE91FABDDE9B0
:1052C0001D96219D1C9C00270CB925F0100505F4A6
:1052D000806000B1E4B100BFB4FBF6F106FB114100
:1052E000C8B20A2802DA00F1300107E005F0200117
:1052F00009B1412100E0612101440A39CBB23946AC
:105300007F1C07AA5354B4FBF6F40CB1202FE3D34F
:1053100007A8CDE904AB8DE88102039606954046C7
:1053200010A90EC9FFF738FF13B0BDE8F08F2DE9C3
:10533000FF4F8FB0DDE9217BDDF89080209EDDE915
:105340001C454FF00009002184EA01006940084330
:1053500001D128F0100808F4806028B1002184EA07
:105360000100694008432DD000BF32463B4620462D
:105370002946FBF716F802F0FF0ABAF10A0F02DA23
:105380000AF1300007E008F0200008B1412000E0F9
:10539000612050440A38C2B2484609F1010907A900
:1053A0000A5432463B4620462946FAF7FAFF04469D
:1053B0000D46002184EA01006940084302D0B9F19A
:1053C000200FD2D32398CDE9036BCDE9050807A9B7
:1053D0001E98CDE9001902900FA80FC8FFF7DCFE58
:1053E00013B0BDE8F08F9A4200D2885470477047DE
:1053F0002DE9FF5F05461446DDE90EA6DDE91087BD
:10540000A34607F0020078B907F0010060B9B14681
:1054100007E02246641C2020039B0199A84709F15C
:105420000109C145F5D300BF08E02246641C711E86
:105430000E461AF80100039B0199A847002EF4D1EB
:1054400007F0020050B105E02246641C2020039BB7
:105450000199A847A4EB0B004045F5D3204604B0C2
:10546000BDE8F09F00BF70472DE9FF4F8BB00746A6
:1054700000250C9800B9FA4FEAE20E98007825282A
:105480000AD02A466D1C0E990878DDE90C13B8473E
:105490000E98401C0E90DBE20E98401C0E900024EB
:1054A00000BF0E9800782B2819D004DC20281ED0CD
:1054B00023282CD123E02D2809D0302827D144F0EF
:1054C00001040E98401C0E9001200A9022E044F046
:1054D00002040E98401C0E9001200A901AE044F03D
:1054E00004040E98401C0E9001200A9012E044F033
:1054F00008040E98401C0E9001200A900AE044F027
:1055000010040E98401C0E9001200A9002E000202A
:105510000A9000BF00BF0A980028C2D180460E99A9
:105520000878FDF798FE20B10EA8FDF77FFE8046B3
:1055300012E00E9800782A280ED1189901C9189106
:10554000002804DA44F00204C0F1000800E08046BC
:105550000E99491C0E9100BF4FF000090E9800787B
:105560002E281FD144F480640E98401C0E900E9992
:105570000878FDF770FE20B10EA8FDF757FE8146B2
:1055800010E00E9800782A280CD1189901C91891BA
:10559000002801DD014600E0002189460E99491CE2
:1055A0000E9100BF0E9800786C280AD004DC6828A1
:1055B00016D06A2835D128E0742820D07A2830D136
:1055C00029E044F480740E98401C0E900E980078E8
:1055D0006C2804D144F400740E98401C0E9021E015
:1055E00044F080040E98401C0E900E9800786828B5
:1055F00004D144F040040E98401C0E9012E044F494
:1056000080740E98401C0E900CE044F400740E98C8
:10561000401C0E9006E044F480740E98401C0E90DE
:1056200000E000BF00BF0E98007869281DD00EDC96
:10563000622821D006DC25287ED050281AD0582890
:105640007BD115E0632879D06428F9D10CE0732868
:1056500075D004DC6F280ED07028F1D109E07528D0
:1056600004D07828ECD102E000BF00BF00BF00BF2B
:1056700000BF00BF00BF00BF0E980078782803D09D
:105680000E980078582801D1102623E00E98007853
:10569000702803D00E98007850280CD1102644F0C2
:1056A000100444F480740E984078562812D10E9855
:1056B000401C0E900EE00E9800786F2801D108264D
:1056C00008E00E980078622801D1022602E00A263E
:1056D00024F010040E980078582803D00E98007813
:1056E000502801D144F020040E980078692805D094
:1056F0000E980078642801D024F00C0404F4806033
:1057000008B124F001040E980078692803D00E989F
:10571000007864287CD104F40070B8B31898C01DD8
:1057200020F007001890D0E900AB189A08321892C0
:105730000020CDE9069803E073E17CE1F2E01CE192
:10574000CDE904600894BAEB00017BEB000001DABC
:10575000012000E00020002102900846B1EB0A0180
:1057600070EB0B0002DA5046594605E00020014676
:10577000B0EB0A0061EB0B01CDE900012A46384687
:10578000DDE90C13FFF7D3FD0546C7E0FFE704F49E
:105790008070D0B1189850F804AB18904FEADA70C6
:1057A000CDE9039802960594BAF1000F01DD514648
:1057B00001E0CAF10001CDE900102A463846DDE9D2
:1057C0000C13FFF776FD0546A8E004F0400028B171
:1057D000189810F8041B1890C8B20DE004F080006F
:1057E00028B1189830F8041B189008B204E01898F3
:1057F00000681899091D189182464FEADA70CDE9C0
:10580000039802960594BAF1000F02DD514602E0BA
:105810000BE0CAF10001CDE900102A463846DDE967
:105820000C13FFF746FD054678E00E9800785628E1
:1058300018D1189850F804AB1890DAF804000068F2
:10584000099009980090DAF800300D98421B0C98E6
:1058500041193846FFF708FE0544002009905DE035
:10586000EF53000804F40070D0B11898C01D20F068
:105870000700CDE90698089418900020CDE904604F
:105880000290189903C9189A08321892CDE90001BC
:105890002A463846DDE90C13FFF749FD05463DE091
:1058A00004F4807098B10022CDE903980296059423
:1058B000189800681899091DCDE9000218912A4628
:1058C0003846DDE90C13FFF7F4FC054626E004F04A
:1058D000400028B1189810F8041B1890C8B20DE0C9
:1058E00004F0800028B1189830F8041B189088B292
:1058F00004E0189800681899091D18918246002044
:10590000CDE900A0CDE90398029605942A463846D1
:10591000DDE90C13FFF7CDFC054600BF0E98401CD7
:105920000E9093E0012604F0020050B905E02A46EB
:105930006D1C2020DDE90C13B8473046761C40452D
:10594000F5D3189911F8043BD8B22A466D1C18916A
:10595000DDE90C13B84704F0020050B105E02A4617
:105960006D1C2020DDE90C13B8473046761C4045FD
:10597000F5D30E98401C0E9068E0189850F804ABD0
:1059800018905046B9F1000F01D0494601E04FF0A0
:10599000FF310A46014600E0491C0B781BB1131E7B
:1059A000A2F10102F8D10E1A04F4806028B14E452C
:1059B00001D2304600E04846064604F0020050B9E5
:1059C00005E02A466D1C2020DDE90C13B84730465F
:1059D000761C4045F5D306E01AF8010B2A466D1CEB
:1059E000DDE90C13B8479AF8000040B104F4806078
:1059F0000028F1D0B9F10000A9F10109ECD104F0BF
:105A0000020050B105E02A466D1C2020DDE90C1390
:105A1000B8473046761C4045F5D30E98401C0E9092
:105A200014E02A466D1C2520DDE90C13B8470E98BA
:105A3000401C0E900AE02A466D1C0E990878DDE99C
:105A40000C13B8470E98401C0E9000BF00BF00BF5B
:105A50000E98007800287FF410AD0D98854201D291
:105A6000284601E00D98401E02460020DDE90C1397
:105A7000B84728460FB0BDE8F08F2DE9F041044645
:105A80000E46002774B13146204600F02DF8054639
:105A9000B5F5004F05D20C2D01D9284600E00C20A9
:105AA000074600BF3846BDE8F081024600BF481EE9
:105AB000084018B100BF00BF00BFFEE700BF481E8E
:105AC0001040101A704710B502464B1E13444C1E6E
:105AD00023EA040000BF4B1E0B401BB100BF00BFF8
:105AE00000BFFEE700BF10BD024600BF481E0840D1
:105AF00018B100BF00BF00BFFEE700BF481E104442
:105B00004B1E9843704700002DE9F04180460E4639
:105B1000444601206086002500270DE056F8270046
:105B200025A1FAF7EDFE10B1681C85B202E0608E87
:105B3000401C6086781C87B256F8270020B156F8C2
:105B4000270000780028E9D1208EA84201D1BDE8C5
:105B5000F081A06A20B1A06A1FF032F80020A06294
:105B6000E06A20B1E06A1FF02BF80020E062E80054
:105B70001EF058FFA06200BFA06A18B900BF00BFA6
:105B800000BFFEE700BF68001EF04CFFE06200BFF0
:105B9000E06A18B900BF00BF00BFFEE700BFA06AFF
:105BA00008B1E06A00B900256900E06A1FF01FFA39
:105BB000258600BFCBE700000A0000002DE9F84F62
:105BC00081460E46924699F8090000F00700022827
:105BD00001D1304600E050468346564501DD30464F
:105BE00000E050460746032000EB470020F003008A
:105BF00000F110053948006839490968A0EB01082F
:105C0000002405EB080037490968884206D233486A
:105C10000468606820F0004060603AE03148006845
:105C2000854221D813E04FF0FF30009000226946F2
:105C30002D480FF043FD002269462C480FF03EFD31
:105C40002648006826490968A0EB010800BF08EB58
:105C50000500244909688842E5D82048046860683E
:105C600020F00040606014E028461EF0DBFE044691
:105C700000BF1CB900BF00BF00BFFEE700BF14B9E2
:105C80000020BDE8F88F606820F0004000F100407F
:105C9000606032465946484601F0E2FE2060606886
:105CA00000F04040401C6060606820F08040606010
:105CB000A781A4F80EB06068C00F20B1204600F1A3
:105CC0001001A16008E0054800681030A06003489A
:105CD00000682844014908602046D2E754010020AA
:105CE000B002002050010020110E01089558010853
:105CF000F0B585B006460D4634460020049003906A
:105D0000029094F83C0000F0030020B1012838D044
:105D1000022866D000BF94F83C0000F003005A4906
:105D2000097888421BD02620005D00EB001000EBB4
:105D30004000142190FBF1F0544908702720005DC9
:105D400000EB001000EB4000142190FBF1F05049F3
:105D5000087094F83C0000F003004B49087002A85A
:105D600003A9CDE9001005EB45014FF6FF7202EAE9
:105D7000410004AB46490A78444909780AF01EFDFF
:105D80005FE094F83C0000F003003F490978884246
:105D90001AD0A08C00EB400040024FF4B471B0FB6D
:105DA000F1F03C4908802720005D00EB001000EB7B
:105DB0004000142190FBF1F03549087094F83C0044
:105DC00000F003003049087002A803A9CDE90010D3
:105DD000E9B204AB2E4802782E4800880AF0EEFCA7
:105DE0002FE094F83C0000F003002749097888422E
:105DF0001AD0A08C00EB400040024FF4B471B0FB0D
:105E0000F1F0244908802620005D00EB001000EB33
:105E10004000142190FBF1F01C49087094F83C00FC
:105E200000F003001849087002A803A9EAB204AB05
:105E3000CDE9001015480178164800880AF0BEFC2C
:105E400000BF00BF9DF810009DF80C109DF80820C1
:105E5000D708BDF8003067F304038F080093BDF83E
:105E6000003067F34A13C7080093BDF8003067F3AA
:105E7000CF230093BDF800703B460193BDF804109A
:105E8000084605B0F0BD0000060200200402002014
:105E9000050200200202002010B501200749087009
:105EA0000748FEF7A6FC20B90648006828F010FC59
:105EB00003E00448006828F017FC10BD9802002099
:105EC000B0C500209C02002010B5044694F83E00A6
:105ED000C0F3400050B9A08F002807DDA08F4FF617
:105EE000FF71884202D0A08F401EA087A08FA8B962
:105EF000606B20B194F83E00C0F3400070B12146C1
:105F00001748FEF7F5FCFFF7C7FFE06810B1204621
:105F1000E168884720461EF053FE1FE0A06B404218
:105F2000E062606BD0B194F83E10C1F3400111B94A
:105F3000216B4942E16294F83E104908C94394F844
:105F40003E2061F3410284F83E20E069616AE1612C
:105F50006062A06A616BA162606300BF10BD000057
:105F6000B0C500202DE9F04180464248006828F085
:105F70002BFA06464048007880F001003E49087040
:105F80003E48FEF736FC04466BE000203C490870B2
:105F900094F83E00C0F3800037490978884253D016
:105FA000354801782C34A07C61F38200A07420680D
:105FB0008719A07C2C3CC0F3C00010BBE06A00280D
:105FC0001FDC002F1DDB94F83E0000F0010060B9DB
:105FD000206950B12046216988470546E069284478
:105FE000E061606A2844606200BFA06810B120468A
:105FF000A168884794F83E0020F00800083084F833
:106000003E00E06A3044E062E06A00281BDBD4E92D
:106010000A10884201DDA06AE0622046A169884733
:106020000546206AA84206D02562606818B1294654
:10603000D4E900029047D4E90A10884202DB2046E6
:10604000FFF742FF00BF00BF0D48007820B10B48AA
:10605000FEF7CFFB044604E021460848FEF7E1FBCB
:106060000446002C91D128F0BCF902490860BDE833
:10607000F08100009402002099020020B0C50020A9
:1060800098020020F7B582B004460E4614B9049871
:1060900005B0F0BD00BF63223146204622F066FA0B
:1060A0000190019D00BFBDB12868A8B100BF642266
:1060B0003146204622F05AFA01900198C0B20746B4
:1060C0004FB13A462B682846049998470190BDF88D
:1060D0000400ADF8100000BF0498D9E770B504467D
:1060E0000D46606818B129466068FFF7F7FF206821
:1060F00018B1294620462268904770BD70B5054604
:106100000C46A1B2284613F00DFE70BD70B50546D1
:106110000C46A1B2284613F056FE70BD10B50DF026
:106120009BFC10BD70B505460C46164606E0284699
:106130006A1C95B200F008F804F8010B301EA6F1B5
:1061400001018EB2F3D170BD70B5044600260DF08A
:1061500047FD2112A02202EB4101C8B20DF00AFD59
:106160000DF084FD2546E11704EB11610912A4EB43
:106170000121C8B20DF0FEFC0DF078FD0DF030FDF0
:10618000A1200DF0F7FC0DF071FD00200DF0C4FC16
:1061900006460DF04BFD304670BD70B505460C4609
:1061A000164606E02178284600F009F8681C85B2FA
:1061B000641C301EA6F101018EB2F3D170BD70B522
:1061C00004460E460DF00CFD2112A02202EB410107
:1061D000C8B20DF0CFFC0DF049FD2546E11704EBE8
:1061E00011610912A4EB0121C8B20DF0C3FC0DF03E
:1061F0003DFD30460DF0BEFC0DF038FD0DF016FDF6
:106200000A2001F0ADFF70BD70B504460D4600BF19
:10621000204600F03BF818B100BF00BF00BFFEE70A
:1062200000BF284600F050F9001D61680844606016
:10623000204600F03AF8204670BD70B505460C4681
:10624000284600F041F904F11001884201D30120F1
:1062500070BD0020FCE70146A1F1080070477CB545
:1062600005460C46204600F02FF906466A4601A96D
:1062700029F046FA21462846DDE900320EF0A0FD5D
:106280007CBD0146087900F00100704710B5044656
:10629000204600F019F908B9012010BD0020FCE7E4
:1062A0000146087900F00200704770B504462046A8
:1062B00000F097F805462C60284670BD7CB5064670
:1062C0000C4600200190009000256CB16A4601A99F
:1062D000204629F032FA0198092805DA6A4601A910
:1062E00030462BF0FBFB054685B100BF284600F089
:1062F000EBF8A04203D200BF00BF00BFFEE700BF23
:1063000029463046DDE900322BF050F828467CBDA6
:1063100070B504462046FFF7C8FF0546284600F042
:10632000BEF8204600F0B6F870BD70B504462046B1
:1063300000F057F80546284600F0B6F8204600F071
:10634000BEF870BD70B506460D46284600F049F807
:10635000044600BF1CB900BF00BF00BFFEE700BF7E
:106360002046FFF78EFF90B100BF2846FFF78EFF53
:1063700018B100BF00BF00BFFEE700BF2146304696
:1063800000F076F821462846FFF73EFF05462846EE
:1063900070BD70B506460D462846FFF781FFF0B187
:1063A000284600F057F8044600BF1CB900BF00BFE4
:1063B00000BFFEE700BF00BF2046FFF762FF18B92D
:1063C00000BF00BF00BFFEE700BF2146304600F01F
:1063D0004FF829462046FFF717FF054600BF28461D
:1063E00070BD2DE9F0410446204600F06DF8061F0F
:1063F000204600F0B8F80746314629F065FC05460E
:1064000000BF2046FFF742FF18B100BF00BF00BF2A
:10641000FEE700BF2846BDE8F0812DE9F0410646C1
:106420000C461546002794B100BF1DB900BF00BF40
:1064300000BFFEE700BF2A462146304600F097F82D
:106440002046FFF772FF204600F08DF807463846D9
:10645000BDE8F08110B5044600BF2046FFF720FFDD
:1064600018B900BF00BF00BFFEE700BF206810BD25
:106470007CB505460C46204600F026F806466A46DE
:1064800001A929F03DF921462846DDE900322AF02C
:106490008DFF7CBD416841F001014160704741685A
:1064A00041F0020141607047416821F00201416002
:1064B0007047426802F003030B4343607047416832
:1064C00021F00101416070470146486820F0030057
:1064D00070472DE9F04706460C46304600F043F879
:1064E0008046211F29F0F0FB07463046FFF7ECFFFE
:1064F000211D451A00BF384600F035F88146384660
:1065000000F031F880460421FFF7DDFA814503D021
:1065100000BF00BF00BFFEE700BF00BF3046FFF76F
:10652000D3FF2919091D884203D000BF00BF00BF57
:10653000FEE700BF29463846FFF7BBFF00BF3846DD
:10654000FFF7C2FF0C2803D200BF00BF00BFFEE769
:1065500000BF21463046FFF7ACFF3846FFF7D8FEB4
:106560003846BDE8F087014601F1080070472DE983
:10657000F04106460C46154600BF2046FFF781FE57
:1065800018B900BF00BF00BFFEE700BF2946204684
:10659000FFF753FE78B129462046FFF79AFF0746DA
:1065A0002046FFF782FE3846FFF779FF394630462E
:1065B000FFF755FE00BFBDE8F0812DE9F04106462A
:1065C0000C46154600BF2046FFF75BFE18B100BF22
:1065D00000BF00BFFEE700BF29462046FFF72DFEA3
:1065E00088B129462046FFF774FF07463846FFF773
:1065F0005BFF39463046FFF7A5FE07463946304671
:10660000FFF72DFE00BFBDE8F0812DE9F8430646F7
:1066100034461CF0C1FA804640461CF002FB78BBB1
:10662000304619F0AEFD38B3304619F026FC208F05
:10663000E18E884212D0E08E2087E08E00906A467C
:106640001C2130461AF0AEF80746012F02D038461A
:10665000BDE8F883304622F0AAFD00BF40461CF09A
:10666000F0FA0546042D06D1304620F001FC07461D
:1066700000211BF084F809E0304619F0E5FD05E043
:10668000FFE7208FE086304622F091FD0120DFE712
:106690002DE9F041044620461AF07DF805462846CB
:1066A00020F040FC0646284614F0EAFB074601228B
:1066B0003946304627F040F8BDE8F0810146C1F385
:1066C000C01070470146C1F3801070470146C1F306
:1066D000C01070470146C1F3002070470146C1F366
:1066E000C00070470146C1F3401070470146C1F336
:1066F000402070470146C1F3003070470146C1F3A6
:10670000001070472DE9F04F89B004460D46002176
:10671000204620F0A2FA30B91C2128461EF067FC62
:1067200009B0BDE8F08F2946204600F00BFB294652
:10673000204600F07DF80021204621F0C1FC0890A1
:106740000021204621F042FE07900021204621F042
:1067500077FA012800D100E0002081460021204680
:1067600022F0EAF807460021204621F057FB0646B2
:1067700042F2D170874205D1608CC0F3802008B905
:10678000012000E000208246204620F006FB069013
:1067900000BF4FF00008244802884146204621F0FF
:1067A000E5FE03900398C0B200BF8346AA6829693A
:1067B0002868CDE90209CDE900125A465146089BE6
:1067C00006980CF093FC288342F2D170864205D1E2
:1067D000608CC0F3402008B9012000E00020059043
:1067E000204620F0BBFA049000BF4FF000080F488D
:1067F00002884146204621F0B9FE03900398C0B2BA
:1068000000BF83460023EA6869686869CDE902131E
:10681000CDE900025A46079BDDE904010CF066FC55
:10682000688300BF7CE700007A0100207E01002021
:106830002DE9F34F87B00C4607980BF075FC8046A6
:10684000079820F0AAFA0690404601F084F92061EA
:10685000216948001EF020F92060216948001EF0DF
:106860001BF9A060002548E05848029038F915004F
:1068700041F69A7188423FD10020019029E00199A8
:10688000079820F0EAF900905149009822F0FDF8AD
:1068900000B11BE000980BF065FC8246BAF1010FD5
:1068A00000D013E000980BF04DFC8346AB4500D0C0
:1068B0000CE0009822F081F80299884201DA0298EF
:1068C00002E0009822F079F8029000BF0198401C85
:1068D0000190079820F0DFF901998842CFD80298FB
:1068E000002804DB0298A16821F8150003E00021CC
:1068F000A06820F8151000BF6D1C2069A842B3D80D
:106900000026B14600251BE038F9150041F69B71C1
:10691000884202DB411A0E4411E041F69A71884226
:1069200006D1A16831F8151049440FFA81F906E043
:10693000A16821F8150009EB00010FFA81F96D1C1F
:106940002069A842E0D80021079821F0B9FB059002
:106950002169491EDDE9050200FB112000B2069005
:106960000698A0EB090007B2002F00DA00274FF0CD
:10697000FF30049000200390002513E038F9150043
:1069800041F69B7188420CDB421A11B207FB01F2FF
:10699000B2FBF6F212B2A36823F815200495039116
:1069A00000BF6D1C2069A842E8D8049800280ADBC3
:1069B0000398301A7843B0FBF6F0381A01B2A26897
:1069C000049822F8101009B0BDE8F08F01E0FFFF35
:1069D000010006002DE9FC5F05460022114628460D
:1069E00023F0AAFC0021284621F091F981460021DC
:1069F000284621F012FD484407B20021284621F024
:106A0000C3FA48440FFA80FA284621F07FF8384448
:106A100050440FFA80FB3B4E284620F03CF9019091
:106A20004FF000085CE0A868006850F8284036493C
:106A3000204622F02AF800B150E0204622F034FC33
:106A4000002839D10021204621F092F800900098CA
:106A500030B1012807D0022804D0032815D100E066
:106A600000BF00BF00BFB4F91A10B5F91600081A2C
:106A7000401CB04201DA304605E0B4F91A10B5F90D
:106A80001600081A401C06B214E00021204621F02E
:106A900087FF70B904F1140013F06FFA3844B04264
:106AA00001DA304604E004F1140013F066FA3844C9
:106AB00006B200BF00BF10E0B4F91A10B5F9160015
:106AC000081A401CB04201DA304605E0B4F91A1049
:106AD000B5F91600081A401C06B200BF08F10108FB
:106AE000019880459FD30748864209D006EB0A00EB
:106AF00006B25E4502DD3046BDE8FC9F5846FBE726
:106B00005846F9E701E0FFFF010004002DE9FC5FB2
:106B1000054600221146284623F0F2FB00212846B4
:106B200021F0F5F882460021284621F0B3FB5044BD
:106B30000FFA80F80021284621F003FB50440FFA99
:106B400080F9284620F0F2FF4844404400B201900A
:106B5000724C284620F09FF883460021284621F0F9
:106B600048F8012866D100265BE0A868006850F864
:106B700026706B49384621F088FF00B150E0384656
:106B800022F092FB002839D10021384620F0F0FF96
:106B90000090009830B1032805D0062804D00828BA
:106BA00015D102E000BF00BF00BFB5F91800B7F96A
:106BB0001410401A401CA04201DA204605E0B5F945
:106BC0001800B7F91410401A401C04B214E0002158
:106BD000384621F0D8FE70B907F1140013F040FADE
:106BE0004044A04201DA204604E007F1140013F00B
:106BF00037FA404404B200BF00BF10E0B5F91800F6
:106C0000B7F91410401A401CA04201DA204605E0F2
:106C1000B5F91800B7F91410401A401C04B200BFAF
:106C2000761C5E45A1D33D48844269D004EB09003F
:106C300004B265E000265BE0A868006850F82670A2
:106C40003749384621F021FF00B150E0384622F0A4
:106C50002BFB80BB0021384620F08AFF0090009873
:106C600030B1012805D0042804D0072815D102E04E
:106C700000BF00BF00BFB7F91800B5F91410401AE3
:106C8000401CA04201DA204605E0B7F91800B5F92A
:106C90001410401A401C04B215E00021384621F0BF
:106CA0007FFE78B907F1140013F0DAF94844A042E6
:106CB00002DA204605E008E007F1140013F0D0F9ED
:106CC000484404B200BF00BF10E0B7F91800B5F99E
:106CD0001410401A401CA04201DA204605E0B7F922
:106CE0001800B5F91410401A401C04B200BF761CFD
:106CF0005E45A1D30948844202D004EB080004B2E7
:106D00000648844202D10198BDE8FC9F0198844264
:106D100001DD2046F8E70198F6E7000001E0FFFFFB
:106D20000100040010B5044620681DF031FF6068C2
:106D30001DF02EFFA0681DF02BFFE0681DF028FF5E
:106D400010BD00002DE9F34F87B00C4607980BF0FB
:106D5000DBFF8046404600F0FEFE6061616948004E
:106D60001DF09AFE6060616948001DF095FEE060CC
:106D7000002548E05948029038F9150041F69A710B
:106D800088423FD10020019029E0019907981FF027
:106D900064FF00905249009821F077FE00B11BE09B
:106DA00000980CF079F88246BAF1010F00D013E098
:106DB00000980CF061F88346AB4500D00CE00098D9
:106DC00020F060F80299884201DA029802E0009807
:106DD00020F058F8029000BF0198401C01900798DD
:106DE0001FF059FF01998842CFD80298002804DB90
:106DF0000298E16821F8150003E00020E16821F81D
:106E0000150000BF6D1C6069A842B3D80026B146CA
:106E100000251BE038F9150041F69B71884202DB22
:106E2000411A0E4411E041F69A71884206D1E16898
:106E300031F8151049440FFA81F906E0E16821F8AC
:106E4000150009EB00010FFA81F96D1C6069A84279
:106E5000E0D80021079821F0B9FA069007981FF0B2
:106E60007DFF01466269521E069800FB121000B2B7
:106E700005900598A0EB090007B2002F00DA002763
:106E80004FF0FF30049000200390002511E038F906
:106E9000150041F69B7188420ADB421A11B207FBCA
:106EA00001F2B2FBF6F212B2E36823F8152000BF3C
:106EB0006D1C6069A842EAD8049800280ADB039890
:106EC000301A7843B0FBF6F0381A01B2E268049841
:106ED00022F8101009B0BDE8F08F000001E0FFFFBC
:106EE000010006007CB504460D4616462888218917
:106EF000084400B2ADF8000068886189084400B217
:106F0000ADF80200A8882189084400B2ADF8040059
:106F1000E8886189084400B2ADF806003246694647
:106F20002046636998477CBDF8B505460E462C4659
:106F3000206B10B1206B007818B9606B08B9012084
:106F4000F8BD606B58B1284626F0EBFF07461049A4
:106F500009688847616B884201D30020F0E7206B05
:106F600098B1002000900AE069460A4A206B126836
:106F700090470746B74201D10120E1E700BF206BEF
:106F80000099405C0028EFD1DAE70120D8E7000043
:106F9000F0020020E00200202DE9FF4F8FB00F46E5
:106FA000209DF87800F0010008B1FA4800E0FA48A6
:106FB0000E90F87800F0010008B1F84800E0F848B9
:106FC0000D90F87800F0010008B9F44800E0F448AA
:106FD0000C9001200B90B5E000220B9200206A88F3
:106FE000B5F804C0A2EB0C0211B200261AE006EBC1
:106FF000860CEA6802EB8C02127C02F0010242B9B4
:1070000006EB860CEA6802EB8C029289024410B20D
:1070100007E006EB860CEA6802EB8C0212898A1AFA
:1070200011B2761C2A69B242E1D8002685E006EB4F
:10703000860CEA6802EB8C02127C02F00102002A44
:107040007AD191FBF0F80FFA88F306EB8609D5F8B0
:107050000C8008EB8908B8F80C8008FB03F80FFADD
:1070600088F206EB8609D5F80C8008EB8908B8F998
:10707000049006EB860AD5F80C8008EB8A08B8F96C
:107080000680904501DD904607E006EB860AD5F8BC
:107090000C8008EB8A08B8F90680C14508DD06EBCC
:1070A0008609D5F80C8008EB8908B8F9048013E04C
:1070B00006EB8609D5F80C8008EB8908B8F906803C
:1070C000904501DD904607E006EB8609D5F80C8077
:1070D00008EB8908B8F90680C44694450BD04FF0F8
:1070E000010806EB860AD5F80C9009EB8A09C9F865
:1070F0001080CDF82C8006EB8609D5F80C8008EBC3
:107100008908A8F808C006EB8609D5F80C8008EBBA
:107110008908B8F80C80A0EB08080FFA88F006EB95
:107120008609D5F80C8008EB8908B8F80880A1EB2F
:1071300008080FFA88F100BF761C2A69B2423FF6B0
:1071400076AF00BF0B9800287FF446AF00210F9860
:1071500020F069FD012800D100E000200A90002005
:107160000990089008A809A9CDE9001029890BB257
:10717000B5F9022038781E9928F0A9FDF87800F0BA
:10718000010048B10A9838B10F981FF006FEBDF80B
:107190002410084400B2099011990F981FF05DFD6A
:1071A00004468AE17F49204621F06FFC40B1F8781F
:1071B000C0F3800111AA0F980BF0E1FB04467CE1BB
:1071C0000021204620F000FE07900798002858D0A4
:1071D00000200390002610E006EB8601E86850F8D6
:1071E0002100A04208D106EB8600E96801EB80008F
:1071F000B0F90800039003E0761C2869B042EBD890
:1072000000BFF87800F0010030B1608C20F480609D
:1072100000F58060608405E0608C20F4007000F56B
:107220000070608404F114000D9988470399884226
:1072300026D0204621F0BBFF00BFA08AADF8040095
:10724000E08AADF80600208BADF80800608BADF841
:107250000A0000BF04F114000E9A0399904701AA96
:107260002921204619F09EFA20461FF05BFE224697
:107270002221009019F096FA204621F098FF00BFD5
:1072800007E0608C20F480606084608C20F40070E3
:107290006084002006907878012812D0022819D145
:1072A00004F114000C998847B5F90010491C21F02D
:1072B0000101081A039000EBD070401000B2069054
:1072C00009E004F114000C9988472988081A00B2D3
:1072D000069000E000BF00BFF87800F0010050B158
:1072E0000A9840B104F114000D998847BDF82410A4
:1072F000081A00B209900020039043F20C022046C5
:10730000039921F033F9029002980FFA80F800BF38
:107310000020039043F20D022046039921F026F944
:10732000029002980FFA80F900BF204621F045FB39
:10733000059020461FF0A6FD049008F4C040B0F56B
:10734000005F01D1012000E0002030B128F4C040EE
:10735000B0F5FA6F01DC012000E0002090B128F4C4
:10736000C040B0F57A7F04DD28F4C040C0F57A70E3
:1073700001E028F4C04005994843642190FBF1F0F6
:107380000FFA80F809F4C040B0F5005F0CD101207D
:107390000BE000009FA1010893A10108DFA00108F4
:1073A000CF9F010801000600002030B129F4C04041
:1073B000B0F5FA6F01DC012000E0002090B129F463
:1073C000C040B0F57A7F04DD29F4C040C0F57A7082
:1073D00001E029F4C04004994843642190FBF1F096
:1073E0000FFA80F9A18A1C98401A40440FFA80FADB
:1073F000E18A1D98401A48440FFA80FBF87800F0A3
:10740000010010B1BDF9240000E0069850440FFAC5
:1074100080FAF87800F0010008B1069801E0BDF9A3
:10742000240058440FFA80FBBAF1000F02D1BBF1DF
:10743000000F1BD0204621F0BAFEA08A504400B2B3
:10744000A082208B504401B22183E08A584401B2CB
:10745000E182608B584401B26183204621F0A7FE8F
:1074600001235A465146204621F07EFFF87800F06D
:10747000010008B10A9870B904F114000D99884709
:107480001F990844BDF820100844BDF82410084492
:1074900000B2099008E0BDF820101F980844BDF81C
:1074A0002410081A00B20990F878C0F3800111AADC
:1074B0000F980BF064FA044600BF24B1DDE9111007
:1074C00081427FF46FAE13B0BDE8F08F2DE9F04F2D
:1074D0008DB005468946B9F1000F02D10DB0BDE867
:1074E000F08FA5F81890286810B128681DF068FB87
:1074F00009EB4901062202EB41001DF093FA2860D6
:1075000000BF286818B900BF00BF00BFFEE700BF7A
:10751000286868600221286801FB0900801CE86077
:107520000421286801FB0900001DA860B9F1010FC2
:107530000CD1B420696808700020E9680880012037
:10754000E96848800020A9680880C7E709F10101BF
:10755000C8001DF0A1FA074609F1010007EB8008F9
:107560004FF0000A4FEA890002B20BA90CA800F004
:1075700067F90024BDF930008010079000200390C7
:10758000CCE0002616E00BA90CA800F061F90CA8CD
:1075900000F04BF900B90FE0BDF93000801007A9E9
:1075A00041F82600BDF8300000F0030003A941F8BF
:1075B0002600761C042EE6DB00BF042E00D0B3E0CC
:1075C0000A990798884219D1079800B227F8140041
:1075D0000FFA8AF028F81400DDE903010844059940
:1075E000084406990844696808556868005D000702
:1075F000000E69680855601C04B28DE0DDE90701E2
:1076000088422CD0079800B227F814000FFA8AF0AD
:1076100028F814000398696808556868005D000739
:10762000000E69680855601C04B20798401E00B23D
:1076300027F814000FFA8AF028F814000498001DA7
:107640000599084406990844696808556868005D0A
:107650000007000E69680855601C04B25CE00999D7
:10766000079888422CD0079800B227F814000FFA28
:107670008AF028F81400DDE9030108446968085518
:107680006868005D0007000E69680855601C04B258
:107690000798401E00B227F814000FFA8AF028F865
:1076A0001400059808300699084469680855686808
:1076B000005D0007000E69680855601C04B22BE0ED
:1076C000079800B227F814000FFA8AF028F814007F
:1076D000DDE90301084405990844696808556868AC
:1076E000005D0007000E69680855601C04B2079829
:1076F000401E00B227F814000FFA8AF028F8140090
:1077000006980C30696808556868005D0007000E2F
:1077100069680855601C04B20AF1010A0CA800F05F
:1077200084F800287FF42DAF00BF40F2D32109FB7D
:1077300001F00290029880120190601E37F910103B
:107740000198814205D1601E38F9101001988142DC
:1077500026D0DDE90121A1EB8220B0F5007F04DC19
:1077600000FB00F14800001407E0C0F5806000FB5A
:1077700000F148000014C0F10F00019909B227F888
:107780001410019909B228F814106A681055696834
:10779000095D0907090E6A681155611C0CB200BF2A
:1077A000A61E0EE038F8160027F8140037F8160069
:1077B00028F814006868805D69680855761E601CAA
:1077C00004B2002EEEDA4FF0000B00260020E9682C
:1077D000088023E0E96821F81B6037F81600A968E3
:1077E00021F81B0010E0A86830F81B0037F91610CC
:1077F000884203DAA86830F81B0001E037F9160068
:10780000A96821F81B00761C38F91600584501D1EB
:10781000A642E8DB0BF101000FFA80FBA642D9DBA0
:1078200038461DF0B5F900BF58E60146B1F902002F
:10783000B1F90020904201DC012070470020FCE7F4
:10784000028000234380C2F101031BB20B8070470A
:10785000B1F90020002A07DC0B8842885200D21CB4
:107860001A4412B20A800CE042880388D21A5200ED
:10787000521D0B881A4412B20A800288521E12B29C
:1078800002804288521C12B24280704737B582B0E3
:107890001546022D04DCBDF80C10084605B030BDBD
:1078A000BDF80C00C00ABDF8081000EBD1241F2C55
:1078B00001D2204600E01F20BDF8081060F3CF2160
:1078C0000291BDF80C00C0F34510BDF80810C1F3DB
:1078D000451144183F2C01D2204600E03F20BDF85E
:1078E000081060F34A110291BDF80C0000F01F006F
:1078F000BDF8081001F01F0144181F2C01D22046CA
:1079000000E01F20BDF8081060F304010291FF2D74
:1079100003D1BDF808100846C0E72A46DDE9020198
:1079200014F0D8FC0190BDF804100846B6E717B56E
:1079300081B01446022C04DCBDF80810084604B0DF
:1079400010BDBDF80400C00ABDF80810C90A10FB3C
:1079500001F04109BDF8040061F3CF200190BDF8AA
:10796000040000F01F00BDF8081001F01F0110FB1B
:1079700001F04109BDF8040061F304000190BDF875
:107980000400C0F34510BDF80810C1F3451110FB09
:1079900001F08109BDF8040061F34A100190FF2C49
:1079A00003D1BDF804100846C9E72246DDE901010C
:1079B00014F090FC0090BDF800100846BFE737B502
:1079C00082B01546022D04DCBDF80C10084605B047
:1079D00030BDBDF80C00C00ABDF80810A0EBD124E2
:1079E000002C01DD204600E00020BDF8081060F307
:1079F000CF210291BDF80C00C0F34510BDF808106E
:107A0000C1F34511441A002C01DD204600E000209E
:107A1000BDF8081060F34A110291BDF80C0000F0A7
:107A20001F00BDF8081001F01F01441A002C01DDF1
:107A3000204600E00020BDF8081060F30401029128
:107A4000FF2D03D1BDF808100846C0E72A46DDE93E
:107A5000020114F03FFC0190BDF804100846B6E79F
:107A600008B5034600930098484080EA620008BDCC
:107A70002DE9F84F8046404618F08DFE824640467C
:107A800018F028FE064650461FF04CFA81462B2E71
:107A900009D1484625F043FE0446002221464846C7
:107AA00025F04AFE3AE00A2E38D1694650461FF0CA
:107AB000BBFA50461FF071F904460021484620F0F9
:107AC000CCF801280AD1204604EBD071BDF9002082
:107AD000C2EB610191FBF4F10DB209E0204604EB29
:107AE000D071BDF9002002EB610191FBF4F10DB200
:107AF000002D00DA00250027484625F010FEA84298
:107B000000D0012701222946484625F015FE27B15D
:107B100000221C21484618F045FE00BFBDE8F88F42
:107B200010B58060C06000230361002110E00024D4
:107B300000F1140343F82140002206E000F138036D
:107B400003EBC11343F82200521C202AF6DB491C28
:107B50000929ECDB10BD0146002000E0401C31F992
:107B6000102041F6FF739A42F8D1704710B500BF5C
:107B700000224FF480711148FAF7C6F800BF00F0F8
:107B80001FF800BF012240210C48FAF7BDF800BFE2
:107B900000F016F800BF002240210848FAF7B4F8B8
:107BA00000BF00F00DF800BF012211020348FAF7F0
:107BB000ABF800BF00F004F810BD0000001C02404C
:107BC00010B5022000F0D8FA10BD000000B587B053
:107BD00000BF00BF002001901A48006840F08000FC
:107BE000184908600846006800F08000019000BF56
:107BF00000BF00BF00BF00BF002001900846006822
:107C000040F0800008600846006800F080000190A5
:107C100000BF00BF00BF4020029011200390012050
:107C200004900320059002A90748F9F759FF4FF483
:107C30008070029002A90448F9F752FF00F0B4F8EE
:107C400007B000BD30380240001C024010B500BF34
:107C5000012211020C48FAF757F800BFFFF7B0FFF6
:107C600000BF012240210848FAF74EF800BFFFF795
:107C7000A7FF00BF002240210348FAF745F800BFE4
:107C8000FFF79EFF10BD0000001C024070B50546C6
:107C9000002400261DE06006040E00BF01224021E2
:107CA0001148FAF731F800BFFFF78AFF4FF48071EF
:107CB0000D48FAF717F808B1601CC4B200BF0022E3
:107CC00040210948FAF720F800BFFFF779FF701C40
:107CD000C6B2082EDFDB15B9FFF7B8FF01E0FFF7EA
:107CE00045FF204670BD0000001C024070B50446F0
:107CF000002525E000BFE00928B101221102154846
:107D0000FAF702F805E000224FF480711148F9F704
:107D1000FBFF00BFFFF754FF00BF012240210D48C9
:107D2000F9F7F2FF00BFFFF74BFF00BF0022402131
:107D30000848F9F7E9FF00BF6006040E681CC5B2E9
:107D4000082DD7DB00BF012211020248F9F7DCFF42
:107D500000BF70BD001C024010B500BF012211021F
:107D60001048F9F7D1FF00BF00BF012240210D48A4
:107D7000F9F7CAFF00BFFFF723FF00BF00224FF44F
:107D800080710848F9F7C0FF00BFFFF719FF00BF77
:107D9000002240210348F9F7B7FF00BFFFF710FFAB
:107DA00010BD0000001C024010B500BF00224FF4BF
:107DB00080710C48F9F7A8FF00BFFFF701FF00BF73
:107DC000012240210748F9F79FFF00BFFFF7F8FEA7
:107DD00000BF012211020348F9F796FF00BFFFF729
:107DE000EFFE10BD001C024070B50024002500BF4E
:107DF000012211021648F9F787FF00BFFFF7E0FEE6
:107E000000BF012240211248F9F77EFF00BFFFF7B3
:107E1000D7FE09E0601CC4B2FA2C03DDFFF7C4FFF3
:107E2000012508E0FFF7CCFE4FF480710848F9F710
:107E300059FF0028EED100BF00BF002240210448B6
:107E4000F9F762FF00BFFFF7BBFE284670BD0000D8
:107E5000001C02407CB506460D4634465020005DAD
:107E600000F00100A84233D00DB1012000E0002055
:107E70005021095D60F300015020015504F14401D7
:107E8000684612F06AF8BDF80000616A898A084401
:107E900000B2ADF80000BDF80210606AC08A084464
:107EA00000B2ADF80200BDF80400616A898A084496
:107EB00000B2ADF80400BDF80610606AC08A08443C
:107EC00000B2ADF806006946304621F0AAF900BFBD
:107ED0007CBD37B582B0054614462146039814F0A0
:107EE00061F80190BDF80410084605B030BD2DE9D9
:107EF000FF4F8DB005460E461446F07A022803DC8B
:107F0000012011B0BDE8F08F3089326901460C9034
:107F10001098FCF797F907460FB90020F1E7397D73
:107F200001F01F0019F007FE10B14FF006080AE03B
:107F3000397D01F01F0019F0E1FD10B14FF0050887
:107F400001E04FF00408386A38B100BF00BF214695
:107F500028463A6A29F0C3FFDEE0B869002859D004
:107F600021460BA811F0BAFF308818B97088B0F517
:107F7000807F32D0204612F081F8834600BFE0882F
:107F80006188401A401C00B20890301D7188CDE90C
:107F90000010308803B259460BA8089AFBF77CFC06
:107FA000BDF82C002188084400B2ADF82C00BDF8C3
:107FB0002E006188084400B2ADF82E00BDF83000F4
:107FC0002188084400B2ADF83000BDF83200618865
:107FD000084400B2ADF8320000BF0BAA09A8A96896
:107FE000FBF764F98146B9F1000F04D1384601F07E
:107FF0003AFC012085E7D5F808A009A8A860CDF8CB
:108000000080224631462846BB6915F00DFAC5F8B6
:1080100008A081E022460BA8A968FBF747F90A905F
:108020000A9820B9384601F01EFC012069E70BA828
:1080300012F024F809900BA812F020F800EB400091
:1080400003901CF029FD8146D5F808A00BA907A8CC
:1080500011F044FF012107A812F09BF8BDF92C0094
:10806000B4F90010401A0690BDF92E00B4F90210C0
:10807000A0EB010BBDF92E00059042E007AA514686
:1080800002A8FBF713F90A900A9800B936E0CDF878
:108090000090099803B20FFA8BF2069801B23846A5
:1080A0001AF076FA0490049801280ED038461AF097
:1080B0008FF900BF00BF48461CF06AFD384601F04A
:1080C000D2FBC5F808A000201BE702A8A8604B4619
:1080D00007AA31462846CDF8008015F0A5F9BDF86D
:1080E0001E00401C00B2ADF81E00BDF82200401C6E
:1080F00000B2ADF822000BF1010B00BF0598401C47
:108100000590BDF9321005988142B7DAC5F808A08C
:1081100048461CF03DFD00BF384601F0A4FB01209D
:10812000EFE600BF00BF704770B504460420FAF7C1
:10813000B7FA0A48046025464FF47A7045434FF079
:10814000E020006940F002004FF0E021086108469D
:108150004561006940F00100086170BD1000002019
:1081600030B50446002504E04FF47A7000F004F8BE
:108170006D1CA542F8D330BD70B5034600224FF008
:10818000E02675690D4E366803FB06F44FF0E026D5
:10819000B16910E04FF0E026B06988420BD0884208
:1081A00002D20E1A324402E02E1A0E443244014624
:1081B000A24200D300E0EDE700BF70BD1000002038
:1081C000F8B506460C4615460095B4F90630B4F9E4
:1081D0000420B4F90210B4F900000DF0D8FC3046C8
:1081E00014F0E2FDF8BD10B50FF022FF01200DF0F4
:1081F000E1FB10BDF8B505462C461AF0CDFC06464D
:10820000206B26F0E1F83168898B88422CD2606AB5
:10821000009094F83C0000F0030020B1012806D043
:1082200002280CD107E00020ADF8000007E0642030
:108230008DF8020003E064208DF8030000BF00BF4A
:1082400030461AF06DFE2846009914F044FC50B1F7
:1082500000221C21284618F0A5FA0746012F01D05C
:108260003846F8BD00BF00BF26F0BBF820630120F0
:10827000F7E700002DE9F04F9BB007468946164608
:10828000BA4617A814F04DFE4FF4A02138461FF04F
:1082900087FC9DF8691060F382018DF86910304603
:1082A00011F024FF054600EBD5704FEA60083088D6
:1082B000404400B2ADF858007088404400B2ADF8B8
:1082C0005A00002138461FF01EFE1590494603A8AB
:1082D0001EF078FA17A80B904FF400301090334836
:1082E0000490002005900AF13000FCF7A7FA04463C
:1082F00057E02079032800D04DE0208BADF85C00DA
:10830000208A00B2ADF85E006079FD2801DD159885
:1083100003E060791599484300128DF868002568DC
:10832000B5F92000E98B08440090B5F92030D5E973
:108330000512A0681CF062FB8346B5F92000E98BAA
:1083400008440090B5F92030D5E90512E0681CF02A
:1083500055FB0290608B404400B2ADF84800149485
:1083600016A80C9003AA1A21384618F01BFA029896
:1083700080B21FFA8BF1CDE90010BDF8480083B23E
:1083800016AA17A9484614F0AEFD03AA1B213846C9
:1083900018F008FA00BF21460AF13000FCF748FA4D
:1083A0000446002CA5D11BB0BDE8F08FF0B7030840
:1083B00070B504460D4600222946204607F082FE8D
:1083C00001222946204607F07DFE0222294620464A
:1083D00007F096FC04222946204607F091FC70BD68
:1083E0002DE9F74F9EB00C46E078022802DC21B060
:1083F000BDE8F08F1CA8209911F082FDB4F920008F
:1084000001282EDD94F82200FD282ADB208840B3C5
:10841000BDF8700014F8231F4908C1F38001084417
:1084200000B2ADF87000BDF8720021784908C1F3C0
:108430004001084400B2ADF87200BDF87400217824
:108440004908C1F3C001401A00B2ADF87400BDF88C
:10845000760014F82319C1F34001401A00B2ADF8B8
:1084600076001E981CA982681AA8FAF71FFF00B9A7
:10847000BDE7E07B00F0070616B9A088199001E07F
:10848000E0881990BDF864106089814200D100260F
:108490001CA815F02FFF18901C2111A8F8F708FA56
:1084A000A0788DF85D00BDF86400ADF84C00189818
:1084B00060B9208850B94EB91CA81190E0788DF8A9
:1084C0005C0011A91E9816F0C5FD90E7E078FD2824
:1084D00001DBFF2000E0E07810901CA811F0F8FD0F
:1084E0000F901CA811F06CFD0E90DDE90E01814289
:1084F00001DA0F9800E00E980D90B4F900100D9875
:10850000B1EB600F02DAB4F9000001E00D98401001
:1085100007461AA811F0DCFD81464FF0FF300C90A1
:1085200000200B90002F01DC189870B148461CF019
:10853000B3FA0B9000233AB21CA905A816F052FA20
:10854000002105A815F0D0FB0C90BDF86800ADF82F
:108550000C00BDF86C00ADF810000B98149003A847
:1085600011901690FF208DF85C00A01DDDE90E2112
:1085700018F0B4FE8046B8F1000F0CD0022E0AD1DC
:10858000BDF96810D8F8080000EB4100BDF9701083
:10859000A0EB410012901898A0B3BDF96A502CE0EE
:1085A00028B2ADF80E0028B2ADF812004A46109974
:1085B0000B981CF0E2FCBDF968100FFA89F32AB29F
:1085C0000B9815F047FE8DF854009DF854000128D3
:1085D00002D102208DF85400012E09D1BDF972108C
:1085E000691AD8F8080000EB41000088ADF84C008B
:1085F00011A91E9816F02EFD6D1CBDF96E00A84243
:10860000CEDACCE0FFE700255CE0BDF8720028443C
:108610000FFA80FABDF87600401B0FFA80FBBDF917
:108620006A00504504DDBDF96E00584500DA48E0A7
:108630004A4610990B981CF0A0FCBDF90C100FFADB
:1086400089F352460B9815F005FE8DF854009DF8FD
:108650005400012802D102208DF85400BDF96A00AF
:10866000504514DCADF80EA0ADF812A0012E0AD1D1
:10867000BDF97210AAEB0101D8F8080000EB410027
:108680000088ADF84C0011A91E9816F0E3FCBDF966
:108690006E00584514DBADF80EB0ADF812B0012EE7
:1086A0000AD1BDF97210ABEB0101D8F8080000EB5C
:1086B00041000088ADF84C0011A91E9816F0CAFCC4
:1086C00000BF6D1CBD42A0DBBDF87000ADF804001A
:1086D000BDF87400ADF80800BDF87200384400B26F
:1086E000ADF80600BDF87600C01B00B2ADF80A0078
:1086F00001A815F0FFFD00900098B0B9AEB9BDF823
:108700007200384400B2ADF80E00BDF87600C01B10
:1087100000B2ADF8120010988DF85C0000201490A3
:1087200011A91E9816F096FC38E010988DF85C00A0
:1087300001208DF85400BDF97600A0EB070ABDF9C1
:108740007200C51927E0009870B14A4610990B983D
:108750001CF013FCBDF968100FFA89F32AB20B98CC
:1087600015F078FD8DF8540028B2ADF80E0028B24F
:10877000ADF81200012E09D1BDF97210691AD8F8AE
:10878000080000EB41000088ADF84C0011A91E98CC
:1087900016F060FC6D1C5545D5DD00BF00BF0B9881
:1087A00010B10B981CF0F4F90C98401C28B10C98EF
:1087B00016F000FA05A815F079FDB8F1000F02D007
:1087C000404618F082FD00BF11E62DE9F0478EB05B
:1087D00007460C461546206910B90EB0BDE8F08773
:1087E000A07E022800DCF8E720691AF075F9064639
:1087F000022E55D1002041F6FF71CDE90001029013
:1088000003460DA8D4E9041226F0D6F9284611F043
:108810005FFC814600EBD970298801EB6000BDF94F
:10882000348008EBD871A0EB610000B2ADF82C00E9
:10883000BDF82C00BDF834100844401E00B2ADF85D
:108840003000284611F0BCFB814600EBD9706988E6
:1088500001EB6000BDF9368008EBD871A0EB610038
:1088600000B2ADF82E00BDF82E00BDF83610084459
:10887000401E00B2ADF8320003A815F0BDF96069E2
:108880000390208BADF81800A07E8DF82600002004
:1088900000900BAA03A93846236914F0F9FDAEE055
:1088A0000DA9206919F0C0FD8046B8F1010F02D072
:1088B00000BF00BF91E707A814F0CDFDA0788DF8A8
:1088C0002800208BADF82400E07E8DF82600A07EE5
:1088D0008DF82700207FE8BB284611F0F9FB82467F
:1088E00000EBDA70298801EB60000D99C1F38A2949
:1088F00009EBD971A0EB610000B2ADF81400284675
:1089000011F05EFB824600EBDA70698801EB6000D3
:108910000D994FEA515909EBD971A0EB610000B2F2
:10892000ADF81600BDF814000D99C1F38A21084472
:10893000401E00B2ADF81800BDF816000D9900EB0E
:108940005150401E00B2ADF81A0005AA07A93846DA
:10895000236900E002E014F02FFD4FE06888ADF8D5
:108960001600BDF816000D9900EB5150401E00B2E4
:10897000ADF81A003BE02888ADF81400BDF81400EB
:108980000D99C1F38A210844401E00B2ADF81800C9
:1089900017E005AA07A93846236914F00DFDBDF8B4
:1089A00014000D99C1F38A21084400B2ADF81400F7
:1089B000BDF818000D99C1F38A21084400B2ADF842
:1089C0001800BDF91400B5F904108842E1DDBDF8C6
:1089D00016000D9900EB515000B2ADF81600BDF82D
:1089E0001A000D9900EB515000B2ADF81A00BDF914
:1089F0001600B5F906108842BDDD00BF00BF00BFFC
:108A0000EBE62DE9F04F87B083460C46164694F806
:108A10002200022802DC07B0BDE8F08F208C00B9EC
:108A2000F9E794F82300C0F3440000B9F3E794F8A1
:108A3000230000F0010000B1EDE7304611F048FBE3
:108A40008146304611F0BCFA0746B4F90050B945EA
:108A500001DA484600E038468246B5EB6A0F01DD90
:108A60004FEA6A05314605A811F04AFABDF914101B
:108A700094F82300400800F0040010B1B4F920007D
:108A800003E0B4F9200028444042084400B2ADF8A5
:108A90001400BDF9181094F82300400800F00800F5
:108AA00010B1B4F9200003E0B4F92000284440429A
:108AB000081A00B2ADF81800BDF9161094F823009A
:108AC000400800F0020010B1B4F9200003E0B4F94E
:108AD000200028444042084400B2ADF81600BDF919
:108AE0001A1094F82300C0F3400010B1B4F920002C
:108AF00003E0B4F9200028444042081A00B2ADF85F
:108B00001A00208C281A0FFA80F8B8F1000F01DA49
:108B10004FF00008A07894F82210CDE90210E08B05
:108B2000ADF804002BB205AA31465846CDF80080B6
:108B300000F002F800BF6EE72DE9FF4FA3B00D462D
:108B400016461F463298FF2801DBFF2000E03298CE
:108B50003290284615F0CEFB2290229868B967B96A
:108B6000309850B93298009032462946319B23986C
:108B700000F0A9FA27B0BDE8F08F23982946826853
:108B800020A8FAF793FB00B9F4E720A811F0A0FAA7
:108B900081461C2119A81CF02AFA48461BF07CFFCC
:108BA0001C904FF0FF301890002F0ADD00233A464A
:108BB000294612A815F016FF002112A815F094F806
:108BC0001890012331460CA8309A15F00BFF0021B4
:108BD0000CA815F089F80B9009A819901E90BDF803
:108BE000C400ADF86C0032988DF87C0033988DF895
:108BF0007D00B5F900003844B6F90010884203DD65
:108C0000B5F90000384401E0B6F9000000B2ADF853
:108C10001C00B5F90400C01BB6F90410884203DA41
:108C2000B5F90400C01B01E0B6F9040000B2ADF8CC
:108C30002000B5F902003844B6F90210884203DD7D
:108C4000B5F90200384401E0B6F9020000B2ADF80F
:108C50001E00B5F90600C01BB6F90610884203DAFB
:108C6000B5F90600C01B01E0B6F9060000B2ADF888
:108C7000220007A811F02CFA0690B5F90200B6F907
:108C80000210884201DC012000E000208246B5F994
:108C90000600B6F90610884201DB012000E0002042
:108CA0008346229800284CD0BDF88000ADF82400FF
:108CB000BDF88400ADF82800BDF9824029E0BAF182
:108CC000000F04D1BDF91E00A04200DD20E0BBF181
:108CD000000F04D1BDF92200A04200DA1DE020B24D
:108CE000ADF8260020B2ADF82A0049461C981CF0C9
:108CF000B5F9BDF980100FFA89F322B21C9815F06E
:108D0000A9FA8DF8740019A9239816F0A3F900BFE9
:108D1000641CBDF98600A042D1DA00BF0CA815F092
:108D2000C5FA0B9815F046FF1898401C28B112A8F8
:108D300015F0BCFA189815F03DFF1C981BF028FFA1
:108D400018E7B5F90000B6F90010884201DC0120EF
:108D500000E000200590B5F90400B6F9041088423F
:108D600001DB012000E00020049001200390059821
:108D700060B1049850B1BAF1000F07D0BBF1000FF9
:108D800004D00698322801DA0020039001208DF8E3
:108D90007400BAF1000F15D0039898B1BDF81C000B
:108DA000ADF82400BDF82000ADF828006888ADF8C3
:108DB00026007088401E00B2ADF82A0019A9239839
:108DC00016F048F9BBF1000F15D0039898B1BDF823
:108DD0001C00ADF82400BDF82000ADF82800F08894
:108DE000401C00B2ADF82600E888ADF82A0019A9A9
:108DF000239816F02FF9059898B12888ADF824002B
:108E00003088401E00B2ADF82800BDF81E00ADF855
:108E10002600BDF82200ADF82A0019A9239816F003
:108E200019F9049898B1B088401C00B2ADF824003C
:108E3000A888ADF82800BDF81E00ADF82600BDF8E2
:108E40002200ADF82A0019A9239816F003F9039817
:108E5000F0BBBDF88000ADF82400BDF88400ADF88B
:108E60002800B5F90200B6F90210401AB84201DA3A
:108E7000384604E0B5F90200B6F90210401A00B213
:108E80000290002442E06888204400B20190E88803
:108E9000001B00B20090BDF982100198814205DDEF
:108EA000BDF986100098814200DA2EE049461C98F0
:108EB0001CF0D4F8BDF924100FFA89F3019A1C981C
:108EC00015F0C8F98DF87400BDF98210019800E022
:108ED00020E0814209DC0198ADF826000198ADF848
:108EE0002A0019A9239816F0B5F8BDF98610009844
:108EF000814209DB0098ADF826000098ADF82A0001
:108F000019A9239816F0A6F800BF641C02988442A1
:108F1000B9DBC7E0BDF88000ADF82400BDF98410CE
:108F2000BDF91C00401E814202DABDF9840002E056
:108F3000BDF91C00401E00B2ADF8280009A811F0D0
:108F4000C7F88046B8F1000F48DD059810B9BAF1AE
:108F5000000F1ED0BDF9824017E020B2ADF8260008
:108F600020B2ADF82A0041461C981CF077F8BDF9F4
:108F70002410434622B21C9815F06CF98DF8740049
:108F800019A9239816F066F8641CBDF91E00A042CA
:108F9000E3DC059810B9BBF1000F1FD0BDF922002A
:108FA000441C17E020B2ADF8260020B2ADF82A002C
:108FB00041461C981CF052F8BDF92410434622B2D9
:108FC0001C9815F047F98DF8740019A9239816F02C
:108FD00041F8641CBDF98600A042E3DABDF98010B7
:108FE000BDF92000401C814202DDBDF9800002E095
:108FF000BDF92000401C00B2ADF82400BDF884008B
:10900000ADF8280009A811F063F88046B8F1000F08
:1090100048DD049810B9BAF1000F1ED0BDF98240A6
:1090200017E020B2ADF8260020B2ADF82A00414684
:109030001C981CF013F8BDF92410434622B21C986A
:1090400015F008F98DF8740019A9239816F002F8A4
:10905000641CBDF91E00A042E3DC049810B9BBF10A
:10906000000F1FD0BDF92200441C17E020B2ADF85C
:10907000260020B2ADF82A0041461C981BF0EEFFF6
:10908000BDF92410434622B21C9815F0E3F88DF880
:10909000740019A9239815F0DDFF641CBDF9860042
:1090A000A042E3DA0CA815F001F90B9815F082FD47
:1090B00012A815F0FBF8189815F07CFD1C981BF011
:1090C00067FD00BF56E52DE9FF4F89B080460C468D
:1090D0001546DDF858901C2168461BF088FF07A84C
:1090E0000090BDF83000ADF808008DF81890B4F984
:1090F0000200B5F90210884201DC012000E00020E6
:109100000646B4F90600B5F90610884201DB0120D5
:1091100000E000200746B4F90000B5F900108842CD
:1091200001DC012000E000208246B4F90400B5F91A
:109130000410884201DB012000E0002083462088E3
:10914000ADF81C00A088ADF820006088ADF81E00C6
:109150006888401E00B2ADF822001EB16946404644
:1091600015F078FFE888401C00B2ADF81E00E088DA
:10917000ADF822001FB16946404615F06BFF20880C
:10918000ADF81C002888401E00B2ADF8200016B1D2
:10919000B5F9020001E0B4F90200ADF81E0017B104
:1091A000B5F9060001E0B4F90600ADF82200BAF105
:1091B000000F03D06946404615F04CFFA888401CBC
:1091C00000B2ADF81C00A088ADF82000BBF1000F84
:1091D00003D06946404615F03DFF0DB0BDE8F08F65
:1091E0002DE9FF4F93B00746904699464FF6FF7022
:1091F000804502D117B0BDE8F08F3E46746A208CDE
:109200001290208C484506D0A4F82090608C20F065
:109210000400001D60844FF4802120461FF073FA83
:1092200011904FF4802120461FF0DDFA0546119879
:1092300017F0A8FD8246384609F0A7FA8346BBF826
:109240001600ADF83E00BDF93E000AEB050108FB33
:10925000010000B2ADF83E00284605EBD071BDF824
:109260003E20A2EB610109B2ADF83E10BDF83E0010
:1092700050442844401E00B2ADF84200706A808A13
:10928000ADF83C00706A008BADF8400001A815F005
:10929000BFFC01AA4FF4802120461FF0D9FD0FAA80
:1092A00001A9149815F098FC12982084608C20F085
:1092B0000400608400BF9DE72DE9F04F91B00746A0
:1092C0000D46904699464FF6FF70804502D111B089
:1092D000BDE8F08F1097109F7C6A208C0F90208C37
:1092E000484506D0A4F82090608C20F00400001DB2
:1092F000608407A814F080FC07AA4FF48021204660
:109300001FF0CBFC4FF4802120461FF06CFAADF823
:109310002E00384609F039FA064606B9D7E707980D
:1093200017F030FD8246F08AADF81600BDF9160040
:10933000BDF92E10514408FB010000B2ADF8160033
:10934000BDF92E0000EBD071BDF81620A2EB610133
:1093500009B2ADF81610BDF816005044BDF82E1035
:109360000844401E00B2ADF81A00A08AADF81400FF
:10937000208BADF8180005AA03A8A968F9F796FF95
:109380008346BBF1000F13D0A868029003A8A86021
:1093900030461AF035FB01900020009006F11402CF
:1093A00007A92846019B14F073F80298A86000BF33
:1093B0000F982084608C20F00400608400BF86E752
:1093C0002DE9F04105463548006813F007FD0446D5
:1093D0002868866BF06A10B13046F16A88472068C9
:1093E00090B1606880B10CE02C4800680068806A29
:1093F00038B12A4A12681068284A12681268916ABD
:10940000884720690028EFD10120206123480068A7
:109410000068C068806900F0010050B11F48006812
:109420000068C0688069C0F3400010B1012060612D
:1094300001E000206061606908B1012000E00020C7
:1094400007462868406998B12868007CC0F301107D
:1094500048B12868007CC0F3800020B1D6E9001034
:1094600000F01EF804E0D6E900212868FDF73AFD77
:10947000206880B1606870B12868007C00F001004D
:1094800000B147B12168A068884202D16068A0603D
:1094900001E02068A060BDE8F08100004C010020E0
:1094A0002DE9F34F83B00446884800680568874873
:1094B00000680068007CC0F3400040B1287CC0F325
:1094C000800020B100BF00BF05B0BDE8F08F287C50
:1094D000C0F3011002280AD121462846049A00F060
:1094E00004F921462846049AFDF7FCFCEBE0287CB1
:1094F000C0F30110012804D0287CC0F30110032818
:10950000F4D1002002907148006813F067FC824695
:10951000204610F0ACFD0646204610F035FD83468F
:109520004FF4A050B0FBF6F000B2584505DA4FF406
:10953000A050B0FBF6F000B200E058460190B4F93C
:109540000280287CC0F3011001280BD16888218893
:10955000401A401E00B2E080E088801B401C00B230
:10956000608006E02088608060883044401E00B241
:10957000E08000279EE0ABEB07010198814201DD0E
:10958000019801E0ABEB07000FFA80F90120CAF85F
:10959000100047BBB34526DBB146297CC1F301115E
:1095A000032901D1012100E0002108463146049A37
:1095B00000F00FF9287CC0F30110012807D1A4F8AE
:1095C000008008EB0600401E00B2A0803FE0288823
:1095D000401EA0EB080000B2A080A088801B401CA9
:1095E00000B2208033E0029820B94FF420501BF0E5
:1095F00053FA029002980090297CC1F301110329CB
:1096000001D1012100E0002108464A463146049B71
:1096100000F0B2F8287CC0F3011001280AD108EB51
:10962000070000B2208008EB07004844401E00B24B
:10963000A0800CE02888401EA0EB0800C01B00B2F0
:10964000A080A088A0EB0900401C00B2208007EB9E
:10965000090058450DDBDAF8180000F0010040B1B0
:10966000DAF81800C0F3400018B10120CAF814005D
:1096700002E00020CAF81400029808B9049800E03B
:109680000298024621462846FDF72CFC04E0A86A11
:1096900010B12846A96A8847DAF810000028F6D1E8
:1096A00006FB09F1049800EB4100049007EB090068
:1096B00007B200BF5F45FFF65EAF029810B1029897
:1096C0001BF066FA00BF00BFFEE600004C01002060
:1096D00018B5048800940C88048014880C801C88B9
:1096E0001480BDF800401C8018BD2DE9FC5F0546C4
:1096F0000C461646204610F0BAFC8246204610F072
:1097000043FC83461AFB0BF001900198471E4FF073
:10971000000811E006EB47000088009006EB4700C8
:1097200006EB48010988018006EB4800BDF80010EF
:1097300001807F1E08F101084745EBD8B4F9069077
:1097400068886188401A401E00B2E0806888A0EBFB
:109750000900401E00B26080B4F904902888218876
:10976000401A401E00B2A0802888A0EB0900401ECD
:1097700000B22080BDE8FC9F2DE9F04704461D465D
:10978000089F01FB02F0A0F1010C481E00FB02F84B
:1097900000231AE008EB03000CB1ACEB000000263C
:1097A0000FE0A946AD1C07EB400AB9F80090AAF8F3
:1097B00000900CB1104400E0801A06F101090FFA84
:1097C00089F68E42EDDB581C03B29342E2DBBDE822
:1097D000F0872DE9F04782460C46154600263BE00F
:1097E000002731E0601E801B0FFA80F8601EC01B4E
:1097F0000FFA80F9BAF1000F12D007FB048C05EBC9
:109800004C0308FB049C05EB4C0209FB046C05EBC4
:109810004C0106FB047C05EB4C00FFF759FF11E0FF
:1098200009FB046C05EB4C0308FB049C05EB4C02A4
:1098300007FB048C05EB4C0106FB047C05EB4C009C
:10984000FFF746FF781C07B2601C00EBD071B7EB46
:10985000610FC7DB701C06B204EBD471B6EB610F6D
:10986000BEDBBDE8F08710B50446204618F0B0FD19
:1098700010BD00002DE9F14F9EB01E9816F08BFF31
:1098800005462C461E9816F02DFF1D90606A1AF0B2
:10989000B7F807465020005D00F0010010B91FB076
:1098A000BDE8F08F0FA815F0B3F90FAA4FF4E0212F
:1098B00028461FF0CDFA04F144010DA810F04DFB2D
:1098C000BDF83400616A898A084400B2ADF83400FA
:1098D000BDF83610606AC08A084400B2ADF83600A0
:1098E000BDF83800616A898A084400B2ADF83800D2
:1098F000BDF83A10606AC08A084400B2ADF83A0078
:109900000DAA0FA91D9815F067F94FF4E02128461C
:109910001EF03EFA06464FF4E02128461EF0A0FC59
:1099200030440FFA80F84FF4E02128461EF011FE73
:1099300030440FFA80F900200B900C90E16CC819AC
:109940001F49096888478246E06CC11952460BA836
:109950001BF0BFF9BDF83400404400B2ADF834004C
:10996000BDF83600484400B2ADF836004FF0000BA9
:10997000D4F824A040F25742594650461EF0F6FD56
:10998000019001980A9002A814F036F902AA4FF447
:10999000E02128461FF081F99DF83F00022805DCF0
:1099A000BDF81400BDF82810884207D000200BAB8A
:1099B0000DAA02A900901D9813F06AFD00BF6EE782
:1099C000D40200202DE9F04FBDB005460E4600BF81
:1099D00000BFAB460BF13000FAF77EFF10B13DB08F
:1099E000BDE8F08F05F114023BA8B168F9F75EFC01
:1099F00000B9F4E7B0683A903BA8B06035A814F01D
:109A000047F935AA4FF4E02128461FF0ADF927A801
:109A100015F0FEF89DF8DC008DF89F0047F6FF700A
:109A2000ADF89C004FF4E02128461EF092FF074657
:109A300000EBD7704FEA60094FF4E02128461EF092
:109A400088FF074600EBD7704FEA600A314604A84A
:109A50001CF0B8FE24A80A9016A808904FF4E02045
:109A6000119069480590052006900BF13000FAF737
:109A7000E5FE0446C0E00A2235A924A81BF029F916
:109A8000382227A916A81BF024F9E088ADF8900029
:109A9000E088ADF85C0039A80D9038A80E90607B86
:109AA00000F0010020B1B4F90070B4F9028010E0B8
:109AB000A08847F6FF71884200D197E0A28801ABE9
:109AC0002846A16811F034FEBDF90470BDF9068086
:109AD00000BFA88A384407B2E88A40440FFA80F8E9
:109AE000B9F1000F19D0BAF1000F16D0A7EB090099
:109AF00000B2ADF8080007EB090000B2ADF80C00A9
:109B0000A8EB0A0000B2ADF80A0008EB0A0000B2A8
:109B1000ADF80E0002A8079001E000200790207B1E
:109B200000F0030070B3207B00F0010010B1B5F924
:109B3000140000E03846ADF8E400ADF8E680207B84
:109B400000F0020010B1B5F9180000E03846ADF899
:109B5000E000BDF8E600ADF8E20004AA1A212846AC
:109B600016F020FE38AB39AA24A9304614F079F853
:109B700002AA16A9304615F02FF804AA1B21284680
:109B800016F010FE207B00F00C0070B3ADF8E4700E
:109B9000207B00F0040010B1B5F9160000E040464B
:109BA000ADF8E600BDF8E400ADF8E000207B00F081
:109BB000080010B1B5F91A0000E04046ADF8E20027
:109BC00004AA1A21284616F0EDFD38AB39AA24A9BB
:109BD000304614F046F802AA16A9304614F0FCFFED
:109BE00004AA1B21284616F0DDFD00BF21460BF11B
:109BF0003000FAF71DFE0446002C7FF43CAF3A9883
:109C0000B06000BFEBE60000B8B203082DE9F14FE9
:109C10009AB01A9816F0BFFD04461A9816F062FD25
:109C2000199020461EF0C9FE074620461DF02AF96D
:109C3000834607EBD771A28A02EB610109B2189142
:109C40000BEBDB714A10E18A114409B2179107EB63
:109C5000D7714E1014A814F01BF814AA0021204646
:109C60001FF082F84FF41D7016FB00F0552190FB99
:109C7000F1F0642190FBF1F000B2ADF85200BDF8B4
:109C80005200801C00B2ADF8520000201390002159
:109C900020461DF094FF0546002347F6FF7204F1AD
:109CA00014010DA814F09EFE00210DA814F01CF85C
:109CB0000C9000BFA08AADF82800E08AADF82A0019
:109CC000208BADF82C00608BADF82E0000BFBDF8E6
:109CD0002800284400B2ADF82800BDF82C00401B35
:109CE00000B2ADF82C00BDF82A00284400B2ADF84F
:109CF0002A00BDF82E00401B00B2ADF82E00012353
:109D000047F6FF720AA904A814F06CFE002104A80B
:109D100013F0EAFF0390BDF952804FF0000A4FE0C4
:109D200051462046FBF7E4FF0090BDF80000ADF877
:109D300050001398C0F30F290FFA89F024F04EFE5B
:109D400006EB08014843189901EBE03000B2ADF88A
:109D500004000FFA89F024F031FE06EB08014843B5
:109D6000179901EBE03000B2ADF806000FFA89F068
:109D700024F034FE711BA1EB08014843189901EB54
:109D8000E03000B2ADF808000FFA89F024F016FEBA
:109D9000711BA1EB08014843179901EBE03001B2B8
:109DA000ADF80A1002AB01AA14A9199813F059FFD3
:109DB0000AF103001FFA80FA139800F587601390E8
:109DC000BAF5807FACDD0DA814F070FA04A814F089
:109DD0006DFA0C9814F0EEFE039814F0EBFE1BB035
:109DE000BDE8F08F2DE9F04FA5B004460F4625469B
:109DF00004F1140123A8BA68F9F758FA22902298BE
:109E000010B925B0BDE8F08FB868219023A8B860DC
:109E1000002120461DF095FF1E90002120461EF0D7
:109E2000AAF901461E98084400B21D900021204660
:109E30001EF00DFB01461E98084400B21C902046FF
:109E40001CF0ABFF7E35E9884843001200B21B903E
:109E500020461CF083FF29894843001200B21A9063
:109E600017A813F015FF17AA002120461EF07CFF4B
:109E7000394605A81CF0A6FC002012908C480690DC
:109E80000020079017A80B904FF0FF301390002090
:109E90000E900F9005AA1A21204616F083FC002090
:109EA00001903122204601991EF060FB009000983D
:109EB00000F0FF0B00BF002120461DF042FF049080
:109EC000002001903322204601991EF04FFB0090A4
:109ED000009800F0FF0800BF20461DF0C9F803906D
:109EE00020461DF0BFF9029035F87E09002865D0A4
:109EF000E18A1C9801440298081A00B20190A08AD5
:109F0000ADF88000208BADF87C004FF00009B5F86B
:109F10007E000FFA80FABBF1020F1ADD04980028C8
:109F200017DD08F0020040B1002120461EF08FFA34
:109F300018B909F101000FFA80F908F0010040B1E9
:109F4000002120461EF03AF818B9AAF101000FFAD4
:109F500080FA4E462FE01A987043B5F87E10491EDD
:109F600090FBF1F000B2ADF88200BDF882100198CC
:109F7000084400B2ADF88200BDF88200ADF87E0062
:109F80004B4806900120079020A80E901FA80F9024
:109F9000139605AA1A21204616F004FC1FAB20AA2E
:109FA00017A9384613F05DFE05AA1B21204616F0BE
:109FB000F9FB701C06B25645CDDB00BFB5F880003A
:109FC000002865D0A18A1D9801440398081A00B2A0
:109FD0000190E08AADF88200608BADF87E004FF012
:109FE0000009B5F880000FFA80FABBF1020F1ADD04
:109FF0000498002817DD08F0040040B10021204635
:10A000001EF0B9F818B909F101000FFA80F908F04B
:10A01000080040B1002120461EF056F918B9AAF1F7
:10A0200001000FFA80FA4E462FE01B987043B5F8F6
:10A030008010491E90FBF1F000B2ADF88000BDF831
:10A0400080100198084400B2ADF88000BDF880008F
:10A05000ADF87C00164806900220079020A80E90CC
:10A060001FA80F90139605AA1A21204616F09AFBF6
:10A070001FAB20AA17A9384613F0F3FD05AA1B2130
:10A08000204616F08FFB701C06B25645CDDB00BF94
:10A090004FF0FF30139000200E900F9005AA1B2167
:10A0A000204616F07FFB2198B86000BFA9E60000AB
:10A0B000B8B203082DE9F14F9AB01A9816F00AFBCE
:10A0C00007461A9816F067FB05462C46122F7DD1DD
:10A0D0001A9816F05DFB06463078022802D11BB0B4
:10A0E000BDE8F08F94F8380000F00300032805D095
:10A0F00094F8380000F00300022802D101203070EB
:10A10000EDE794F83800C0F38400042808D094F8F0
:10A110003800C0F38400012802D001203070DEE74F
:10A120004FF0000A4622514628461EF01FFA1990A9
:10A130001998C0B2FF2802D001203070CFE700216B
:10A1400028461EF091FB8146208E8144B9F1000F14
:10A1500002D001203070C2E7002128461EF0C5FB66
:10A160008046E08E00FB08F04FEA20281A9816F08F
:10A170000FFB8346B8F5807F09D1002205F1140159
:10A180005846F9F7D4F8E8BB01203070A7E7284615
:10A190001CF078FE824628461EF00FFC179004F152
:10A1A00032001FFA88F100235246CDE9001018A8AA
:10A1B0001799F9F771FBBDF86000A98A084400B24D
:10A1C000ADF86000BDF86210E88A00E01DE00844C8
:10A1D00000B2ADF86200BDF86400A98A084400B27C
:10A1E000ADF86400BDF86610E88A084400B2ADF826
:10A1F0006600002218A95846F9F799F818B9012005
:10A2000030706CE700E000BF19E2152F01D0182F65
:10A21000FAD1002128461EF068FB8046E08E00FB44
:10A2200008F04FEA2028002128461EF01DFB824638
:10A23000208E824428461EF0C0FB199028461CF050
:10A2400021FE1890002641F23202314628461EF0C7
:10A250008DF90E900E9800B2814600BF41F61202B1
:10A26000314628461EF082F90E900E9848440FFAA7
:10A2700080FB00BF41F61302314628461EF076F9F6
:10A280000E900E98484400B2179000BF41F610029D
:10A29000314628461EF06AF90E900E98484400B2E6
:10A2A000169000BF41F61102314628461EF05EF9B5
:10A2B0000E900E98484400B21590608E584400B23B
:10A2C000ADF85000A18E1698084400B2ADF85200C7
:10A2D00094F8390000F00300012804D112A928469F
:10A2E0001CF07AFD27E014A91FFA88F00FFA8AF310
:10A2F000CDE9000112A8DDE91821F9F7CDFABDF882
:10A300004800A98A084400B2ADF84800BDF84A10D8
:10A31000E88A084400B2ADF84A00BDF84C00A98AAA
:10A32000084400B2ADF84C00BDF84E10E88A08446D
:10A3300000B2ADF84E0005F1140110A80FF0FBFDBE
:10A3400012A905F114000FF0F6FDBE481A991CF091
:10A350005FFC0F900F98012800D0C0E610A905F10E
:10A3600014000FF0E8FD152F7ED1E08D08B1A08D0F
:10A3700000B9B4E6B8F1000F00D1B0E61A9816F0B3
:10A38000B1F9064605F114010DA80FF0D4FD2846D9
:10A3900018F090FA0C9094F8390000F003000128AE
:10A3A0003CD1B4F92C10BDF93020891A481C00EBBF
:10A3B000D071BDF83420A2EB610109B2ADF83410C0
:10A3C000B4F92C10BDF93020891A481C00EBD0716B
:10A3D000BDF83820A2EB610109B2ADF83810B4F92C
:10A3E0002E10BDF93220891A481C00EBD071BDF83F
:10A3F0003620A2EB610109B2ADF83610B4F92E1087
:10A40000BDF93220891A481C00EBD071BDF83A2002
:10A41000A2EB610109B2ADF83A1013E012A80FF0F7
:10A4200081FEBDF834100844401E00B2ADF838007B
:10A4300012A80FF0EFFDBDF836100844401E00B220
:10A44000ADF83A00BDF83400584400B2ADF834001D
:10A45000BDF836101698084400B2ADF83600BDF8C5
:10A4600038101798081A00E0E8E000B2ADF838009C
:10A47000BDF83A101598081A00B2ADF83A0094F8F1
:10A48000380000F00300012805D094F8380000F0EF
:10A49000030000287AD106A812F0DDFF06AA0021E9
:10A4A00028461EF09BFB1FFA88F0ADF81A001FFA31
:10A4B0008AF0ADF81800608EADF81C00A18EADF8E2
:10A4C0001E1094F83800C0098DF82C00BDF8480023
:10A4D000584400B2ADF81000BDF84A101698084470
:10A4E00000B2ADF81200BDF84C101798081A00B26F
:10A4F000ADF81400BDF84E101598081A00B2ADF86A
:10A500001600B068039004AA04A8B168F8F7CEFE5C
:10A5100000B9E4E504A8B060BDF83610608D0844C9
:10A5200000B2ADF80600BDF90600BDF9361088424C
:10A5300006DDBDF80600E18D401A00B2ADF8060058
:10A54000BDF80600E18D0844401E00B2ADF80A00D7
:10A5500049E0BDF83400218D084400B2ADF8040094
:10A56000BDF90400BDF93410884206DDBDF80400D1
:10A57000A18D401A00B2ADF80400BDF80400A18D11
:10A580000844401E00B2ADF8080016E034E001AA0D
:10A5900006A93046636A12F00FFFBDF80400BDF84B
:10A5A0003010084400B2ADF80400BDF80800BDF852
:10A5B0003010084400B2ADF80800BDF90400BDF940
:10A5C00038108842E3DBBDF80600BDF832100844BD
:10A5D00000B2ADF80600BDF80A00BDF8321008441C
:10A5E00000B2ADF80A00BDF90600BDF93A10884284
:10A5F000AFDB0398B06020E094F8380000F003006F
:10A60000022811D104A813F0F7FA04AA0021284661
:10A610001EF043FB0020009005F1140204A930460F
:10A62000636A12F035FF08E000BF00BF002305F1A8
:10A6300014021946304612F0BFFE00BF00BF00BF33
:10A640004DE50000F49E04082DE9F14FDCB05C9864
:10A6500016F0A1F805462C465C9816F043F85B907E
:10A6600059A928461CF0B8FB0020CDE9105040F64F
:10A670000A02DDE910011DF079FF0F900F9800B27A
:10A6800058900020CDE9105040F60B02DDE9100192
:10A690001DF06CFF0F900F9800B25790BDF8641139
:10A6A0005898081A00B2ADF86401BDF868115898BE
:10A6B000084400B2ADF86801BDF866115798081A51
:10A6C00000B2ADF86601BDF86A115798084400B2AF
:10A6D000ADF86A0159A80FF017FD834659A80FF08D
:10A6E0008BFC5690D4E90A10A0EB010956988345DB
:10A6F00001DB012000E0002080460020559094F806
:10A700005C0000F0030001280BD1A06A002808DAE1
:10A71000E06A002805DDA16A206B884201D1012092
:10A720005590002128461DF04DFD549000212846EB
:10A730001DF0F1FD5390002128461DF0AFFE529010
:10A74000002128461DF061FC519059A904F1340004
:10A750000FF0DFFBA18E5498084400B2A086218F31
:10A760005398081A01B22187E18E5298084401B229
:10A77000E186618F5198081A01B26187B8F1000F24
:10A7800013D004F134000FF037FC04280DDA56988A
:10A7900000EBD0714A10E98A1144891E0AB2E286A0
:10A7A000E08E001D01B2618715E0B8F1000F12D1F3
:10A7B00004F134000FF0A8FC04280CDA58460BEB27
:10A7C000D071AA8A02EB6101891E09B2A186A08E0E
:10A7D000001D01B2218704F134000FF095FC509068
:10A7E00004F134000FF008FC4F90B8F1000F01D0D5
:10A7F000509800E04F988246B8F1000F05D004F160
:10A800003406371DFE484C9004E004F13606371D2F
:10A81000FC484C90A06D401CF8B1A36A216DC91A88
:10A8200001FB0AF191FBF9F108B2A36A616DC91A43
:10A8300001FB0AF191FBF9F10AB2131AD4F858C0DE
:10A8400003FB0CF1CB1701EB13631B121BB24D93EF
:10A850004D99014409B24D9108E0A16A206B401A5C
:10A8600000FB0AF090FBF9F000B24D90A06C401C88
:10A87000E0B1A36A216CC91A01FB0AF191FBF9F15D
:10A8800008B2A36A616CC91A01FB0AF191FBF9F1E4
:10A890000AB2131AD4F848C003FB0CF1CB1701EB32
:10A8A000136300EB23231BB24E9308E0D4E90901A4
:10A8B000401A00FB0AF090FBF9F000B24E90002025
:10A8C000119041F26A42284611991DF04FFE1090F6
:10A8D0001098C0B24B90B8F1000F0ED04B980128E1
:10A8E0000BD130463E4607464E99494209B24E9139
:10A8F0004D99494209B24D9100BFB8F1000F0AD0FD
:10A9000031884E98084400B2388031884D98084408
:10A9100000B230800AE039884E98081A401C00B214
:10A92000308039884D98081A00B23880559878B32D
:10A93000A26A524202FB0AF292FBF9F211B2B8F19A
:10A94000000F0CD032880A4410B2B7F900208242BE
:10A9500001DD30801BE03A883280388017E03A8889
:10A96000521A521C10B2B6F90020824201DD388022
:10A9700002E032883A803080B7F90020B6F9003022
:10A980009A4204DAB6F900003A883280388000BF73
:10A99000559800BB04F134004C99884701281ADC13
:10A9A00068465B991BF00EFF4FF400300D909648FF
:10A9B00001900020029004F1340003906A461A21AD
:10A9C000284615F0EFFE6A461B21284615F0EAFEE0
:10A9D0005DB0BDE8F08F04F1340149A80FF099FA99
:10A9E0003BA814F015F93BAA4FF4003128461EF09D
:10A9F0002FFA29A85B991BF0E5FE4FF40030369042
:10AA000081482A9000202B903BA82D9004F134001F
:10AA10002C9029AA1A21284615F0C4FE0020119076
:10AA20006022284611991DF0A1FD1090109800B2E7
:10AA300028905698834501DA584600E056982790AA
:10AA4000DDE92701B1EB600F02DD27984010289067
:10AA5000BDF9EC0026904F995098884201DA509841
:10AA600000E04F982790DDE92601B0EB610F02DD91
:10AA7000279840102690B8F1000F08D004F1340058
:10AA80000FF042FB01462698B1EB400F0BDCB8F10A
:10AA9000000F28D104F134000FF0AEFA01462698D9
:10AAA000B1EB400F1FDD9DF8EF0011909DF80601FE
:10AAB00010909DF80E010F9000208DF8EF008DF89A
:10AAC00006018DF80E0104F134023BA95B9814F0E5
:10AAD00083F811988DF8EF0010988DF806010F9803
:10AAE0008DF80E0100BFA98A5498084400B2ADF851
:10AAF0007800298B5398081A00B2ADF87C00E98AD7
:10AB00005298084400B2ADF87A00698B5198081A3F
:10AB100000B2ADF87E0000231EA920A8289A13F0E9
:10AB200061FF002120A813F0DFF81D909DF822019D
:10AB30001C909DF80E011B9000208DF80E018DF8E1
:10AB4000220159A919A80FF0E4F9BDF8641054982E
:10AB5000084400B2ADF86400BDF86610529808448D
:10AB600000B2ADF86600BDF868105398081A00B23C
:10AB7000ADF86800BDF86A105198081A00B2ADF837
:10AB80006A00B8F1000F15D019A80FF035FA0428A3
:10AB900010DA569800EBD0714A10E98A1144891EE8
:10ABA00009B2ADF86610BDF86600001D00B2ADF840
:10ABB0006A0017E0B8F1000F14D119A80FF0A4FA39
:10ABC00004280FDA58460BEBD071AA8A02EB610118
:10ABD000891E09B2ADF86410BDF86400001D00B212
:10ABE000ADF86800BDF9EC20002304F1340113A88E
:10ABF00013F0F8FE002113A813F076F8129005E088
:10AC000009A10108F99F01084C9E040819AA3BA953
:10AC10005B9813F0E1FF1B988DF80E011C988DF8DE
:10AC2000220100208DF8EF008DF806018DF8220139
:10AC300004F134023BA95B9813F0CEFF13A813F084
:10AC400035FB20A813F032FB129813F0B3FF1D98C8
:10AC500013F0B0FF29AA1B21284615F0A3FD00BF61
:10AC6000B6E6F0B591B00546284615F094FD0446C9
:10AC7000284615F037FD0746264603A813F0C8FFFF
:10AC800003AA4FF4403120461EF0E2F847F6FF7069
:10AC9000ADF80C002C20805D00F0010038B120469A
:10ACA00011F007FF0090BDF80000ADF8100021463C
:10ACB00001A807F083FC01AA03A9384613F08CFF12
:10ACC00011B0F0BD2DE9F04FB3B08146484615F004
:10ACD00062FD80464446484615F004FD329000214E
:10ACE00040461CF0C7FF054640461DF066FE824602
:10ACF00040461CF0C7F88346DA4501DB012000E03E
:10AD0000002006460EB1584600E05046319000271C
:10AD100094F85C0000F00300012806D1A06A002826
:10AD200003DAE06A002800DD0127002E3CD097B945
:10AD30003EB1012D02D1B4F9340009E0B4F9380074
:10AD400006E0012D02D1B4F9360001E0B4F93A0071
:10AD5000ADF8BC0037E0606A002812DB3EB1012D7F
:10AD600002D1B4F9340009E0B4F9380006E0012D4D
:10AD700002D1B4F9360001E0B4F93A00ADF8BC00F4
:10AD800021E03EB1012D02D0B4F9340009E0B4F95C
:10AD9000380006E0012D02D0B4F9360001E0B4F924
:10ADA0003A00ADF8BC000EE01FB9E08EADF8BE0071
:10ADB00009E0606A002803DBE08EADF8BE0002E027
:10ADC000608FADF8BE0021A813F022FF21AA4FF436
:10ADD000403140461EF03CF833462FA94046319A98
:10ADE00024F0D0FF2FA904F168000FF0ADF80FA8F0
:10ADF00032991BF0E7FC4FF440301C903C48109017
:10AE0000002011901D9004F16800129021A8139069
:10AE1000404621F048F9022810D00FAA1A214046D6
:10AE200015F0C0FC04F1680221A9329813F0D4FE99
:10AE30000FAA1B21404615F0B5FC55E0382221A988
:10AE400001A819F046FF0FAA1A21404615F0AAFCE6
:10AE500004F1680221A9329813F0BEFE0FAA1B214B
:10AE6000404615F09FFC96B13EB1012D02D0B4F9D9
:10AE7000340009E0B4F9380006E0012D02D0B4F93D
:10AE8000360001E0B4F93A00ADF8BC0002E0608F92
:10AE9000ADF8BE0033462FA94046319A24F072FF28
:10AEA0002FA904F160000FF04FF8382201A921A862
:10AEB00019F00FFF0120119004F16000129021A8F9
:10AEC000139001201D900FAA1A21404615F06AFC2C
:10AED00004F1600221A9329813F07EFE0FAA1B2113
:10AEE000404615F05FFC00BF33B0BDE8F08F0000B6
:10AEF000809F04082DE9F04790B00746384615F0CA
:10AF00004AFC054628461CF00DF8064608A812F033
:10AF100073FE08AA002130461DF0BFFE384615F02A
:10AF2000E1FB0446D4F8088006F1140206A8A168E3
:10AF3000F8F7BCF910B910B0BDE8F08706A8A0601A
:10AF400004A9304607F0B8FFA88AADF80800E88ADF
:10AF5000ADF80A00288BADF80C00BDF81200ADF872
:10AF60000E0002AA02A8A168F8F7A0F998B1D4F8D7
:10AF7000089002A8A060284618F042FD82460020F2
:10AF8000534605F1140208A90090204612F080FAF9
:10AF9000C4F8089000BFA88AADF80800BDF81600F4
:10AFA000ADF80A00288BADF80C00688BADF80E00E8
:10AFB00002AA02A8A168F8F779F998B1D4F8089024
:10AFC00002A8A060284618F01BFD824600205346C8
:10AFD00005F1140208A90090204612F059FAC4F8AD
:10AFE000089000BFC4F8088000BFA4E72DE9FF4F18
:10AFF000A1B0064614462498807B00F00F052298E5
:10B00000807E1F90032D00D10425012D06D0022D36
:10B010000BD0042D10D0082D1DD114E0DFF86C8367
:10B020004FF0800A02201E901AE0DFF864834FF090
:10B03000C00A04201E9013E0DFF858834FF0F00A96
:10B0400010201E900CE0DFF850834FF0FF0A4FF401
:10B0500080701E9004E000BF00BF25B0BDE8F08FF7
:10B0600000BF1F98FD2823DACC4801781F98814241
:10B0700003D1CB480068A84213D000200DE018F897
:10B080000010FF2901D11F9904E018F800101F9A41
:10B0900051430912C34A1154401C1E998842EED3F1
:10B0A00000BFDFF80083BD491F980870BC480560E9
:10B0B0002498B0F806B0249800891B900BFB05F08B
:10B0C0001A90B4F90000B168B1F90010884201DBB0
:10B0D000002005E0B068B0F90000B4F90010401A93
:10B0E0001990B4F900005844B168B1F904108842CD
:10B0F00001DC584606E0B068B0F90400B4F900106D
:10B10000401A401C1890B4F90200B168B1F902105D
:10B11000884201DB002005E0B068B0F90200B4F914
:10B120000210401A1790B4F902101B980844B16835
:10B13000B1F90610884201DC1B9806E0B068B0F94E
:10B140000600B4F90210401A401C16901A9917987C
:10B150004843199901FB050015902E99159801EBAC
:10B16000D0002E90159800F007071C210DA819F0AB
:10B170003EFF22988089ADF83C002298807E8DF8B1
:10B180004C002298807FC0F3C2008DF84D00F9F783
:10B1900069FE019011F026FE0C901B980BFB00F14C
:10B1A0000C98814201DD0C9802E01B990BFB01F029
:10B1B0000B900B9819F070FC8146CDF84090002060
:10B1C0000A9021881998084400B2ADF8200021881F
:10B1D00018980844401E00B2ADF824006188179802
:10B1E000084400B2ADF82200BDF82200ADF82600F8
:10B1F00000BFBDF82400BDF82010401A401C00B26A
:10B20000079000BFBDF82000ADF81400BDF8220083
:10B21000ADF81600BDF82400ADF81800BDF8260002
:10B22000ADF81A0000BFBDF816101698084400B219
:10B23000ADF81A0005A813F05DF8049008A80D9069
:10B240001290C5F10800039019980BEB00011898B3
:10B25000081A6843029017981C9078E00A980190A9
:10B260002AFA07F0209019981D9028E02E9800786F
:10B27000209908400399C91BC8401490149830B114
:10B28000149818F800100A9809F8001003E000213B
:10B290000A9809F800100398874204D22F44209896
:10B2A000E840209005E00027CDF880A02E98401CB3
:10B2B0002E900A98401C0A901D98401C1D901899C9
:10B2C0001D988842D2DB0498A0B1BDF92620BDF9B3
:10B2D0002010019B09EB0300079B12F0BBFF8DF8C8
:10B2E00044009DF8440028B9019909EB0100079931
:10B2F00019F07DFEDDE91801411A0A9801440B9806
:10B30000814206D2BDF82600401C00B2ADF82600EE
:10B3100012E002208DF844000DA9304613F09AFE89
:10B32000BDF82600401C00B2ADF82200BDF8220096
:10B33000ADF8260000200A90029807442E9800EBF2
:10B34000D7002E9007F007071C98401C1C901699F8
:10B350001C98884282DBBDF92200BDF92610884284
:10B360000ED0BDF82600401E00B2ADF82600022027
:10B370008DF844000DA9304613F06CFE00200A90B1
:10B38000484619F005FC00BF67E6000004B1030859
:10B3900006B1030812B1030822B103085C010020C2
:10B3A0006001002034C400202DE9FF4F8FB00C460F
:10B3B00015461E46B4F90200401E0E900E9840102D
:10B3C0000D900E9800F001010D9808440C90B5F90D
:10B3D0000000B6F90010884202DAB5F9000001E079
:10B3E000B6F90000ADF82800B5F90000B6F9001074
:10B3F000884202DDB5F9000001E0B6F90000401E08
:10B4000000B2ADF82C0069880C98081A00B2ADF8AB
:10B410002A0069880D98084400B2ADF82E000F98F4
:10B420000AA982680AA8F7F741FF8246BAF1000F1D
:10B4300002D113B0BDE8F08FE08818B1A08808B140
:10B44000012000E000208346012009900AA812F0A4
:10B4500051FF10B10020099004E0BBF1000F01D0B2
:10B46000002009901C2102A819F0C1FD0AA8029031
:10B470002088ADF81000207A8DF82000099820B1BE
:10B4800002A90F9813F0E6FD78E00AA80EF019FE65
:10B490000746BDF92E000190BDF82A00ADF82E0038
:10B4A00000200090BBF1000F0BD0B4F90600B4F9F6
:10B4B00004100844BDF9281091FBF0F200FB1210B3
:10B4C0000090384619F0E8FA8046CDF814800AA8B2
:10B4D0000790BDF92A904AE03946404619F0BEFD72
:10B4E000BDF928103BB20FFA89F2404612F0B2FEC5
:10B4F0008DF81800BBF1000F27D09DF8180020B37D
:10B50000009800211BE0B4F90420824207DBA388E5
:10B510001B1A1AB28B1819B2831818B20BE0B4F9BF
:10B520000620B4F904301A44824201DC002002E013
:10B53000002208F801204A1C11B2421C10B2B94284
:10B54000E1DB02228DF8182000BF02A90F9813F04A
:10B5500081FDBDF82A00401C00B2ADF82A00BDF8FC
:10B560002E00401C00B2ADF82E0009F1010901982F
:10B570008145B1DD404619F00BFB00BF00BF58E725
:10B580002DE9FF4FC7B08B4691469A46B9F90200A4
:10B59000BAF90210884210DAB9F80200ADF81A01BF
:10B5A000BAF80200ADF81601B9F80000ADF81801BC
:10B5B000BAF80000ADF814010FE0BAF80200ADF8D7
:10B5C0001A01B9F80200ADF81601BAF80000ADF89A
:10B5D0001801B9F80000ADF81401BDF91401BDF966
:10B5E0001811441ABDF91601BDF91A11451A002C9B
:10B5F00001DD204600E06042002D01DD294600E02B
:10B600006942884201DD012000E000204490BBF93E
:10B61000026000204390449870B1002D01DD28465F
:10B6200000E068424101002C01DD204600E060425C
:10B6300091FBF0F043900DE0002C01DD204600E08E
:10B6400060424101002D01DD284600E0684291FB87
:10B65000F0F04390E0494398085C70433F30C611D6
:10B66000771006F0010000EB0708BDF91801BDF9DD
:10B670001411884202DABDF9180101E0BDF9140184
:10B68000801B00B2ADF80401BDF91801BDF9141119
:10B69000884202DDBDF9180101E0BDF91401304412
:10B6A00000B2ADF80801BDF91A01BDF916118842C2
:10B6B00002DABDF91A0101E0BDF91601801B00B2E2
:10B6C000ADF80601BDF91A01BDF91611884202DD77
:10B6D000BDF91A0101E0BDF91601304400B2ADF820
:10B6E0000A01479841A9826841A8F7F7DFFD409019
:10B6F000409810B94BB0BDE8F08F4498F0B3002CDF
:10B7000024DD0021BDF81601C01B00B2CDE9000107
:10B71000BDF91431BDF81A01C01B02B2BDF91811F0
:10B7200035A812F0E1FE0121BDF81601404400B237
:10B73000CDE90001BDF91431BDF81A01404402B24F
:10B74000BDF918112AA812F0CFFE4AE00021BDF879
:10B750001601404400B2CDE90001BDF91431BDF835
:10B760001A01404402B2BDF9181135A812F0BCFE0E
:10B770000121BDF81601C01B00B200E00DE0CDE9CB
:10B780000001BDF91431BDF81A01C01B02B2BDF9A8
:10B7900018112AA812F0A8FE23E00021BDF9160115
:10B7A000CDE90001BDF81401404403B2BDF91A21EE
:10B7B000BDF81801404401B235A812F095FE0121F0
:10B7C000BDF91601CDE90001BDF81401C01B03B29B
:10B7D000BDF91A21BDF81801C01B01B22AA812F048
:10B7E00083FE002135A812F07FFA139000212AA8C9
:10B7F00012F07AFA12904FF0FF30119010909BF8EF
:10B800000900C0F3001068BB0321BDF81A012044F1
:10B8100000B2CDE90001BDF81801401B03B2BDF92B
:10B820001A21BDF918111FA812F05EFE0221BDF801
:10B830001601204400B2CDE90001BDF81401401BFF
:10B8400003B2BDF91621BDF9141114A812F04CFE73
:10B8500000211FA812F048FA1190002114A812F03C
:10B8600043FA109041A80EF02CFC0F90F9F7FAFA69
:10B87000019011F0B7FA0D9041A80EF0D9FB0146E6
:10B880000D98814203D241A80EF0D2FB00E00D9842
:10B890000C900C9819F000F90B90BDF90A010A9070
:10B8A000BDF80601ADF80A0100200990DDE90B01A1
:10B8B00019F0D4FB1C2102A819F099FB41A80290B1
:10B8C000BBF80000ADF810009BF808008DF82000D0
:10B8D0000B98059041A80790BDF906010E9040E035
:10B8E000BDF90411099B0B9AD0180F9A13B20E9A46
:10B8F00012B212F0AFFC8DF818009DF8180028B9AC
:10B90000099A0B9988180F9919F071FB0F990998EA
:10B91000084409900F99099801440C98814206D275
:10B92000BDF80A01401C00B2ADF80A0116E0022081
:10B930008DF8180002A9479813F08CFBBDF80A0196
:10B94000401C00B2ADF80601BDF80601ADF80A01D1
:10B9500000200990DDE90B0119F080FB0E98401CD6
:10B960000E900A990E988842BADDBDF90601BDF91C
:10B970000A1188420CD0BDF80A01401E00B2ADF891
:10B980000A0102208DF8180002A9479813F062FB03
:10B990000B9819F0FDF835A812F088FC2AA812F0CF
:10B9A00085FC1198401C10B11FA812F07FFC109864
:10B9B000401C10B114A812F079FC139813F0FAF897
:10B9C000129813F0F7F8119813F0F4F8109813F098
:10B9D000F1F800BF8EE6000022B203082DE9FF4F08
:10B9E00091B00C4615461E46B4F90200401E109058
:10B9F000109840100F90109800F001010F98084423
:10BA00000E9029880E98081A00B2ADF830002988E7
:10BA10000F98084400B2ADF83400B5F90200B6F949
:10BA20000210884202DAB5F9020001E0B6F902001C
:10BA3000ADF83200B5F90200B6F90210884202DD15
:10BA4000B5F9020001E0B6F90200401E00B2ADF8FF
:10BA5000360011980CA982680CA8F7F727FC8146DC
:10BA6000B9F1000F02D115B0BDE8F08FE08818B130
:10BA7000A08808B1012000E00020824601200B9040
:10BA80000CA812F037FC10B100200B9004E0BAF1C2
:10BA9000000F01D000200B901C2104A819F0A7FA78
:10BAA0000CA804902088ADF81800207A8DF82800A2
:10BAB0000B9820B104A9119813F0CCFA66E00CA8F9
:10BAC0000EF0FFFA8346BDF936000390BDF8320050
:10BAD000ADF83600584618F0DFFF02900298079044
:10BAE0000CA8099000200190BAF1000F0BD0B4F916
:10BAF0000600B4F904100844BDF9321091FBF0F2CD
:10BB000000FB12100190019FBDF9328037E05946C9
:10BB1000029819F0A3FABDF930100FFA8BF30FFA5F
:10BB200088F2029812F096FB8DF82000BAF1000F0F
:10BB300013D09DF8200070B1B4F90400B84202DAC5
:10BB400000208DF82000B4F90600B4F90410084470
:10BB5000B84200DC0027781C07B204A9119813F042
:10BB600079FABDF83200401C00B2ADF83200BDF8E1
:10BB70003600401C00B2ADF8360008F10108039809
:10BB80008045C4DD029819F003F800BF00BF6AE7E2
:10BB90002DE9FC5F8046404614F0FDFD0746B9469E
:10BBA000D9F824603446404614F09CFD0546606A8E
:10BBB00000F114026846A968F7F778FB8246BAF1EB
:10BBC000000F41D0D5F808B0C5F808D094F83C0073
:10BBD000C0F3401048B3608FE18E88420CD1628F71
:10BBE000212329463046FDF7FBFA628F212329469F
:10BBF0003046FDF761FB24E0628F20232946304662
:10BC0000FDF7EEFA628F202329463046FDF754FBFC
:10BC1000E28E012329463046FDF7E2FAE28E012347
:10BC200029463046FDF748FB0BE0628F202329466A
:10BC30003046FDF7D5FA628F202329463046FDF7BE
:10BC40003BFBC5F808B000BFBDE8FC9F2DE9F14FF4
:10BC5000D0B0509814F09FFD04462546288E10B9A8
:10BC600051B0BDE8F08F509814F03CFD4F90608CBF
:10BC700020F00400001D60844DA920461BF0ACF8A4
:10BC80000026B246B4F8208000202084608C20F08A
:10BC90000400001D608427A812F0BAFF1FA811F04D
:10BCA000ABFF27AA4FF4A02120461DF0D1F81FAA10
:10BCB0004FF4A02120461CF0F0FF608C20F004001F
:10BCC0006084A4F82080002120461CF0F4FB1E9024
:10BCD000002120461CF0A6F91D90002120461CF0F2
:10BCE0007EFA1C90002120461CF022FB1B9009A824
:10BCF0004F991AF067FD4FF4A0201690D7480A908C
:10BD000000200B903DA80D9035A80E9000BF9BE140
:10BD100003E00AF101001FFA80FA696A51F82A006B
:10BD2000CFA1F4F7EDFD0028F3D0E96A31F8160051
:10BD3000FAF7D4FC00B181E10027E96A31F8160076
:10BD4000FAF7BCFC08B147F00107E96A31F81600C0
:10BD5000FAF7C8FC10B147F0800716E0A88EB04291
:10BD600013D108F0200008B147F0200708F00200C6
:10BD700008B147F0020708F0040008B147F00407D3
:10BD800008F0080008B147F00807A86A00EBC601F0
:10BD90004BA80EF0C7F8BDF82C01BDF834110844CB
:10BDA00000B2ADF82C01BDF82E01BDF836110844E3
:10BDB00000B2ADF82E01BDF83001BDF834110844D1
:10BDC00000B2ADF83001BDF83201BDF836110844BB
:10BDD00000B2ADF8320157B9382227A93DA818F0B2
:10BDE00078FF20221FA935A818F073FF1DE02784D3
:10BDF000608C20F00400001D60843DA812F008FF54
:10BE000035A811F0F9FE3DAA4FF4A02120461DF0FF
:10BE10001FF835AA4FF4A02120461CF03EFFA4F8DD
:10BE20002080608C20F004006084E96A31F81600FC
:10BE3000FAF760FC8346BBF1000F06D09DF8F100D5
:10BE400040F001008DF8F10005E09DF8F10020F0D0
:10BE500001008DF8F1004BA80C90179609AA1A2141
:10BE6000204614F09FFC9DF81701400800F01000D8
:10BE7000F0B39DF8170120F03E001E308DF8170139
:10BE8000BDF92C11B4F914201C98104481420AD138
:10BE90009DF81701400820F004009DF8171160F389
:10BEA00045018DF81711BDF93011B4F918201B9810
:10BEB000101A81420AD19DF81701400820F00800AD
:10BEC0009DF8171160F345018DF81711BDF92E117A
:10BED000B4F916201E98104481420CD19DF8170128
:10BEE000400820F002009DF8171160F3450100E0C2
:10BEF00014E08DF81711BDF93211B4F91A201D980C
:10BF0000101A81420AD19DF81701400820F0010063
:10BF10009DF8171160F345018DF817114BA80EF02D
:10BF200072F8814607F0200060B1E86A30F8160028
:10BF300000F4007030B1BDF82E01A0EB090000B292
:10BF4000ADF82E014BAA3DA94F9812F045FE359849
:10BF50000890BDF9E8000790BDF9E6000690686A10
:10BF600050F82A0005904DA80EF0D5F803909DF8E2
:10BF7000F11002460698CDE90121009004A8DDE900
:10BF80000732059922F018FE4BA80EF0C4F8BDF94F
:10BF90001010401A039000EBD070BDF82C1101EB8B
:10BFA000600000B2ADF82C014BA80EF02CF8BDF9E2
:10BFB0001210401A039000EBD070BDF82E1101EB67
:10BFC000600000B2ADF82E01BDF82C01BDF81010D4
:10BFD000084400B2ADF83001BDF82E01BDF81210D2
:10BFE000084400B2ADF8320107F02000C0B1E86AA1
:10BFF00030F8160000F4007090B1484609EBD0719B
:10C00000BDF82E21A2EB610109B2ADF82E1109EBAA
:10C01000D071BDF83221A2EB610109B2ADF8321145
:10C02000002000904BAA35A9059B4F9811F030FADB
:10C0300009AA1B21204614F0B5FB00BF701C86B274
:10C040000AF101001FFA80FA288EB0423FF760AE75
:10C05000608C20F00400608400BF01E6849E040828
:10C060000A0000002DE9F14FA2B0229814F093FBD2
:10C0700004462546229814F035FB219000212046E5
:10C080001BF06CFE81462646002741F61202394617
:10C0900030461CF06BFA0A900A98484400B220908F
:10C0A00000BF41F61302394630461CF05FFA0A9091
:10C0B0000A98484400B21F90002120461CF015FA4F
:10C0C000484400B21E9016A811F096FD16AA4FF42F
:10C0D000003120461CF0E1FDA86A10B1D5F8288097
:10C0E0000AE0802018F0D8FC06468022314620461F
:10C0F00014F008F8B04600BF4FF0000A95F83C0075
:10C1000000F00F00012800D18246002641F26A4269
:10C11000314620461CF02AFA0A900A98C0B201283B
:10C1200000D18246E86A00287ED0E86A16F0D4FC86
:10C130000A900A98022814D19DF8750041F6FF7202
:10C14000BDF96A10CDE900120290BDF96C30169A63
:10C1500007A8E96A22F030FDBDF91C60BDF91E7028
:10C1600011E007A9E86A16F05FF98346BBF1010FF9
:10C1700005D10798C0F38A260798470D02E04FF0D3
:10C18000FF36374600BFBAF1000F0DD0A18A2098C4
:10C19000084400B2ADF82000BDF820003044401E35
:10C1A00000B2ADF824000DE0218B1F98081A801B07
:10C1B00000B2ADF82000BDF820003044401E00B2AF
:10C1C000ADF824000A98022815D1E18A1E98084487
:10C1D00000B2ADF82200BDF822003844401E00B283
:10C1E000ADF826000020009008AA16A9EB6A219855
:10C1F00011F04EF940E020461AF044FEA0EB070B88
:10C200000BEBDB704110E08A084400B2ADF822006D
:10C21000BDF822003844401E00B2ADF8260002A846
:10C2200011F019F902AA00E027E04FF4003120468E
:10C230001CF0D4FC304606EBD071491009B2ADF8C1
:10C240000C10384607EBD07149100AB2ADF80E2039
:10C250004FF4003B43F60F02594620461CF086F986
:10C260000190019880B2ADF8080008AA02A9EB6A13
:10C27000219811F0A1F800BF00BF0EA811F0BCFC7E
:10C280000EAA002120461CF008FD9DF8550041F63D
:10C29000FF72BDF94A10CDE900120290BDF94C3091
:10C2A00041460DA80E9A22F087FCE18A1E980844A8
:10C2B00000B2ADF82E00BDF82E00BDF836100844CF
:10C2C00000B2ADF83200E86AB0B920461CF075FB48
:10C2D000BDF93410461A06EBD670A18A01EB600056
:10C2E00000B2ADF82C00BDF82C00BDF834100844A5
:10C2F00000B2ADF8300022E0BAF1000F11D0218B6E
:10C300001F98081ABDF83410401A00B2ADF82C007E
:10C31000BDF82C00BDF83410084400B2ADF8300070
:10C320000DE0A18A2098084400B2ADF82C00BDF8B9
:10C330002C00BDF83410084400B2ADF830000020E5
:10C3400043460BAA0EA90090219811F0A1F8A86A03
:10C3500010B9404618F01CFC23B0BDE8F08F2DE961
:10C36000F14F90B0109814F016FA05462C4610982C
:10C3700014F0B8F906460EA928461AF0B9FC0027B1
:10C3800094F84800C0F3001008B147F0010794F892
:10C390004800C0F3401008B147F0020700212846CA
:10C3A0001CF0E4FA42F2D171884205D1688CC0F3E6
:10C3B000802008B947F0040706A811F01DFCB4F866
:10C3C0004400ADF82E004620005BADF830008DF83B
:10C3D000357006AA002128461CF05FFC0DA8411EFE
:10C3E000626A03780BB90123037000BF284617F077
:10C3F00013FB0790284617F009FB08904FF6FF71D2
:10C40000079888421ED0089888421BD04FF4802B92
:10C4100044F25742594628461CF0A8F80290029868
:10C420000390BDF80C00ADF8260000BF202259464D
:10C4300028461CF09BF8029002980390BDF80C006F
:10C44000ADF8280094F8480000F00700022805D055
:10C4500094F8480000F0070003281FD19DF834002D
:10C46000022803D09DF83400032817D141F6FF714C
:10C47000BDF92A008DE88300BDF92C30069A03A887
:10C48000616A22F099FB0EA80DF053FEBDF90C1065
:10C49000884202DA01208DF8340000BF04F1300830
:10C4A00094F8480000F00700032805D00EA80DF00E
:10C4B000B8FDB0F5806F01DA4FF000080EA904A8AE
:10C4C000B268F6F7F3FE8146B9F1000F02D111B060
:10C4D000BDE8F08F94F8480000F0070070B92846D6
:10C4E0001AF0C0FE8346CBF1000002B200210EA874
:10C4F0000DF037FE688BADF83E0000BF94F84800A1
:10C5000000F00700022805D094F8480000F007006A
:10C5100003280ED1D6F808B004A8B060CDF800808A
:10C520000EAA06A93046636A10F0B2FFC6F808B03A
:10C5300007E0CDF800800EAA06A93046636A10F025
:10C54000A7FFD6F808A004A8B06094F8480000F04F
:10C55000070003284FD141F6FF71BDF92A008DE88D
:10C560008300BDF92C30069A03A8616A22F024FBEF
:10C570000EA80DF0DEFDBDF90C1088421BDA20225A
:10C580001146069814F0E3FB00EB4000B4F84410A9
:10C59000BDF80C201144084400B2ADF82E0046202E
:10C5A000005BADF83000CDF800800EAA06A9304639
:10C5B000636A10F06DFF0EA80DF033FDBDF90E108B
:10C5C000884217DAB4F84400ADF82E00069814F04B
:10C5D000DDFB4621095BBDF80E201144084400B282
:10C5E000ADF83000CDF800800EAA06A93046636A87
:10C5F00010F04EFF00BFC6F808A000BF67E72DE9A6
:10C60000F14F9AB01A9814F065F880461A9814F011
:10C61000C2F80446B8F1150F16D11A9814F062F852
:10C62000054618A9204606F047FC0AA812F0F0FAC1
:10C630000AAA4FF4802120461CF00AFC18AA0AA975
:10C64000284612F0C9FAC5E0B8F1180FFBD11A98C4
:10C6500014F048F8054612A811F0CEFA12AA4FF4C9
:10C66000802120461CF019FB10A9204606F024FC6E
:10C6700010AA0EA8A968F6F719FE0D900D980028CB
:10C680007DD0204606F08DF8814620461CF095F9B5
:10C690008346484617F0B4F902210390BDF95A00C9
:10C6A000CDE901B10090BDF95C300CA8129A039954
:10C6B00022F082FA20461AF0E5FB0646304606EBE9
:10C6C000D0714A10B4F916100A44B9F91610891A33
:10C6D0000B9148461AF0D6FB0B99890391FBF0F0B9
:10C6E0000B90002120461CF026F80A901299B1F90F
:10C6F00008200A99B1F90810501A00EBD0714910BE
:10C7000009B20991BDF832100998081A00B2ADF8C3
:10C710003200304606EBD0714A10B4F916105718A3
:10C72000BDF932000B99484307EBA03709983F1A2F
:10C73000002120461BF01FFB82464FF0000B41F604
:10C740001202594620461BF011FF0390039800B2D5
:10C75000089000BF41F61302594620461BF006FF21
:10C760000390039800B20790A18A089808445044A7
:10C7700000B2ADF8140038B2ADF8160000E028E0C1
:10C78000218B0798081AA0EB0A0000B2ADF8180038
:10C79000BDF81600BDF83210084400B2ADF81A001A
:10C7A0009DF8650040F002008DF86500A8680490CF
:10C7B0000EA8A860484617F023F9834600205B4680
:10C7C00005AA12A90090284610F062FE0498A860FD
:10C7D00000BF00BF1BB0BDE8F08F2DE9F14FA8B03E
:10C7E000289813F0D8FF04462546289813F07AFFBE
:10C7F0002790002120461BF019FD2690002120469D
:10C800001BF0BDFD2590002120461BF088FE2490E2
:10C81000002120461BF02DFC239000BFA08AADF81C
:10C820008400E08AADF88600208BADF88800608B2C
:10C83000ADF88A0000BFBDF884102698084400B205
:10C84000ADF88400BDF888102598081A00B2ADF83C
:10C850008800BDF886102498084400B2ADF8860020
:10C86000BDF88A102398081A00B2ADF88A0013A800
:10C8700012F0CEF913AA4FF4003120461CF0E8FA6A
:10C8800021AA13A9279812F0A7F9002620461AF02A
:10C89000F9FA074600BF208BA18A401A401CC01B32
:10C8A0000FFA80F8686A401C40B1696A01FB08F021
:10C8B000C11700EB116109120EB20CE020461BF00B
:10C8C00045F900F0010BBBF1000F01D0404600E03C
:10C8D0000020064600BF4FF0000B41F26A42594665
:10C8E00020461BF043FE00900098C0B2012802D100
:10C8F000A8EB060006B2A08A304400B2ADF84400AE
:10C90000BDF84400384400B2ADF84800E08AADF804
:10C910004600608BADF84A004FF4403120461BF0D2
:10C9200085FC81464FF4403120461BF028FD8246AD
:10C930004FF4403120461BF0F2FD10904FF440318F
:10C9400020461BF096FB0F90BDF84400A0EB0900B9
:10C9500000B2ADF84400BDF84800504400B2ADF854
:10C960004800BDF846101098081A00B2ADF846000D
:10C97000BDF84A100F98084400B2ADF84A0001A86B
:10C9800012F046F901AA4FF4403120461CF060FA3B
:10C9900011AA01A9279812F01FF929B0BDE8F08F5C
:10C9A0002DE9F14FE0B0609813F0F5FE04462546FE
:10C9B000609813F097FE814604F114015EA8D9F83F
:10C9C0000820F6F773FC10B961B0BDE8F08FD9F814
:10C9D00008005D905EA8C9F808004FF0000841F219
:10C9E0003202414620461BF0C1FD0C900C9800B26B
:10C9F0005690002120461BF09FFD559000212046B7
:10CA00001BF044FB5490002120461BF01CFC53906B
:10CA1000002120461BF0C0FC52904FF4A02120467C
:10CA20001BF011FC51904FF4A02120461BF0B4FCE8
:10CA300050904FF4A02120461BF07EFD4F904FF404
:10CA4000A02120461BF022FB4E90208C4D90002010
:10CA50002084608C20F00400001D60843FA812F048
:10CA6000D7F83FAA4FF4A02120461CF0F1F929A8DD
:10CA700011F0C2F829AA4FF4A02120461CF00DF9AC
:10CA80004D982084608C20F00400608400272046AC
:10CA90001AF0FCFB0146E28A55981044401E411AE8
:10CAA0005698084400B2ADF86E0120461AF0E4FB37
:10CAB0002090002120461BF0EAF8012800D100E078
:10CAC00000201F9049460DA819F07CFE4FF4A020CD
:10CAD0001A90FE480E9000200F9031A8119021A8C6
:10CAE00012904FF0000B33E2E86A30F91B000C9013
:10CAF000BDF86E01401C00B2ADF86A01BDF86A11C4
:10CB00000C980844401E00B2ADF86E01BDF96A01F0
:10CB1000BDF97E11884200DD1EE21F9858B1218BBD
:10CB20005298081A401E2099411A5698081A00B2C5
:10CB3000ADF868010AE0A18A53980844401E209984
:10CB4000411A5698084400B2ADF86C010026F7E18E
:10CB500000200B90A86A50F8270020B1A86A50F86E
:10CB6000270000780B901F9880B1BDF86801401E27
:10CB700000B2ADF86C01286B30F81600BDF86C11EE
:10CB8000081A401C00B2ADF868010FE0BDF86C0156
:10CB9000401C00B2ADF86801286B30F81600BDF8F3
:10CBA00068110844401E00B2ADF86C014FF0000857
:10CBB00000BF34E007EB0801A86A50F8210048B331
:10CBC00007EB0802A96A51F8220008B101780B911D
:10CBD0000B9901F00101D9B11F9961B106EB080170
:10CBE000491C2A6B32F81110BDF86821511A09B29C
:10CBF000ADF868110DE006EB0801491C2A6B32F80C
:10CC00001110BDF86C21114409B2ADF86C1100E0AF
:10CC10000BE000E009E008F101001FFA80F808EBE2
:10CC20000601A88C401E8142C4DB00BFBDF96E0125
:10CC3000BDF97A11884207DA08F10100384487B259
:10CC400006EB080086B279E100BFBDF86801ADF8D7
:10CC50002400BDF86A01ADF82600BDF86C01ADF8FE
:10CC60002800BDF86E01ADF82A0000BF9DF81F0135
:10CC7000400800F0040090B1BDF92410B4F914206C
:10CC80005398104481420ADDBDF91C0100EBD071BC
:10CC9000BDF82420A2EB610109B2ADF824109DF883
:10CCA0001F01400800F0020090B1BDF92610B4F950
:10CCB00016205598104481420ADDBDF91C0100EB95
:10CCC000D071BDF82620A2EB610109B2ADF82610A3
:10CCD0009DF81F01400800F00800B8B1BDF9281008
:10CCE000B4F918205298101A401E81420EDABDF98C
:10CCF0001C0100EBD07182B202F0010202EB610173
:10CD0000BDF82820114409B2ADF828109DF81F0184
:10CD1000C0F34000B8B1BDF92A10B4F91A205498F4
:10CD2000101A401E81420EDABDF91C0100EBD071D1
:10CD300082B202F0010202EB6101BDF82A20114427
:10CD400009B2ADF82A104FF0000AE88E584523D1F9
:10CD5000A88EB04220D194F8200000F0400030B9F5
:10CD600094F8200000F0200008B14AF0200A94F85E
:10CD7000200000F0020008B14AF0020A94F82000F6
:10CD800000F0040008B14AF0040A94F8200000F012
:10CD9000080008B14AF0080ABAF1000F0AD1382297
:10CDA0003FA931A817F095FF202229A921A817F043
:10CDB00090FF1EE0A4F820A0608C20F00400001D6D
:10CDC000608431A811F024FF21A810F015FF31AACA
:10CDD0004FF4A02120461CF03BF821AA4FF4A021DB
:10CDE00020461BF05AFF4D982084608C20F00400F0
:10CDF000608409A81090A88C0BFB00601B900DAA02
:10CE00001A21204613F0CEFC09AA31A9484611F098
:10CE1000E3FEA86A50F8270000287DD0BDF868110D
:10CE20005198084400B2ADF86001BDF86C115098FB
:10CE3000081A00B2ADF86401BDF86A114F980844B1
:10CE400000B2ADF86201BDF86E114E98081A00B23A
:10CE5000ADF866010B98C0F340000890089810B137
:10CE60000220579001E00020579000BFBDF86401F8
:10CE7000BDF86011401A401C00B20490BDF9962024
:10CE800004995798CDE900210290A86A50F827002C
:10CE9000411CBDF998305CA8299A21F08DFE0898B4
:10CEA00018BB0C9901EBD172BDF86A3103EB620239
:10CEB000BDF9720100EBD073A2EB630212B2ADF8C0
:10CEC00062210C9901EBD17202E00000B89F0408C6
:10CED000BDF86A3103EB6202BDF9720100EBD07359
:10CEE00002EB630212B2ADF866215AAA5EA906A847
:10CEF000F6F7DCF90590059890B106A8C9F8080086
:10CF000000200090A86A50F82700431C58AA21A9C5
:10CF1000484610F0BDFA00E003E05EA8C9F808003A
:10CF200000BF0DAA1B21204613F03CFC08F10100B4
:10CF3000384487B206EB080086B200BF701C86B288
:10CF4000A88CB0423FF704AE0BF101001FFA80FB42
:10CF5000E88C58453FF7C8AD00BF5D98C9F8080098
:10CF600000BF31E52DE9F04FA3B0074689461646CC
:10CF7000229730460DF0BAF8054600EBD5704FEA1F
:10CF800060083088404400B2ADF8840070884044A6
:10CF900000B2ADF886001EA810F07AFE1EAA4FF46B
:10CFA000A02138461BF0E0FE18A810F054FA18AA89
:10CFB0004FF4A02138461BF011FE002138461AF02C
:10CFC000A2FF1790494605A819F0FCFB704806908F
:10CFD00021A80E9022983030F7F730FC0446D1E0BB
:10CFE00025681694207901285CD1B5F92000E98BD9
:10CFF00008440090B5F92030D5E90512E06817F033
:10D00000FDFC8246A88B00EB0801608A08440FFAF9
:10D0100080FB0FFA8AF021F0E1FC10FB0BF047F6E1
:10D02000FF7190FBF1F0BDF88610084400B2ADF836
:10D0300012000FFA8AF021F0C9FC10FB0BF047F642
:10D04000FF7190FBF1F0BDF88410084400B2ADF818
:10D050001000A08AADF87800208A00B2ADF87A00FE
:10D060006079FD2801DD179803E06079179948433E
:10D0700000128DF88000012013901EA80B9004A8C8
:10D080000F9005AA1A21384613F08CFB04AB21AA95
:10D090001EA9484610F0E5FD05AA1B21384613F0ED
:10D0A00081FB68E02079002865D1206900B963E040
:10D0B000B5F92000E98B08440090B5F92030D5E996
:10D0C0000512E06817F09AFC824604A9206915F061
:10D0D000ABF9BDF88410A08A081A00B2ADF80800B8
:10D0E000BDF88610E08A081A00B2ADF80A00BDF853
:10D0F00008000499C1F38A210844401E00B2ADF82B
:10D100000C00BDF80A00049900EB5150401E00B21B
:10D11000ADF80E006079FD2801DD179803E0607915
:10D120001799484300128DF86B00A08AADF864008F
:10D13000E18A18A8C1800AEB8A004FEA400ABAF5D2
:10D14000616F01DDAAF5616A1FFA8AF0ADF860002F
:10D1500018A80C9005AA1A21384613F023FB02AA3E
:10D1600018A94846236910F027F905AA1B2138465B
:10D1700013F018FB00BF00BF214622983030F7F7AC
:10D1800057FB0446002C7FF42BAF23B0BDE8F08F93
:10D19000F0B703082DE9F74F8AB00C46904694F893
:10D1A0002A00022802DC0DB0BDE8F08FE08C00B947
:10D1B000F9E794F82A90B9F1FD0F01DD4FF0FF096E
:10D1C000414608A80CF09CFE208D401E05B2BDF81B
:10D1D0002000401B00B2ADF82000BDF82200401B2B
:10D1E00000B2ADF82200BDF82400284400B2ADF82A
:10D1F0002400BDF82600284400B2ADF8260008A996
:10D2000006A80CF07DFEBDF81800E18C401A00B2B3
:10D21000ADF81800BDF81C00E18C084400B2ADF870
:10D220001C00BDF81A00E18C401A00B2ADF81A00DB
:10D23000BDF81E00E18C084400B2ADF81E0008A83D
:10D240000CF046FF824608A80CF0BAFE0746B4F977
:10D250000060BA4501DA504600E038468346B6EB36
:10D260006B0F01DD4FEA6B06E08C304400B2059095
:10D27000A07894F82A10CDE90210A08CADF8040033
:10D2800030B2009008AA06A9059B0A98FBF754FC47
:10D2900000BF88E7F8B50546284613F07CFA064635
:10D2A000284613F075FA0446606BB0F5A02F54D1F0
:10D2B000A06B072806D200202169C870216981F877
:10D2C000220014E0208F81B2202230460DF0DEFDD6
:10D2D00068B100202169C870216981F822001220FC
:10D2E0001DF084FC0090BDF8001060698181208FE2
:10D2F00081B24FF4004230460DF0C8FD98B166206F
:10D300002169C870304621F03FF80090BDF8001048
:10D310002069818030460DF0B3FDA16B884202D1B7
:10D32000B2202169C870208F81B24FF4804230460C
:10D330000DF0ACFD88B1FF20216981F82200304654
:10D3400021F022F80090BDF800102069C183206907
:10D35000008C401C00B221690884F8BD2DE9F04F13
:10D360008BB08146484613F016FA05462C464846CF
:10D3700013F0B8F98346606A16F042FB82469AF8C9
:10D38000000000283ED1A06A00283BD0A06A0078A7
:10D39000C0B303A810F030FC03AA4FF400212846C4
:10D3A0001BF07BFC94F85C00C0F3C00028B19DF832
:10D3B000290040F002008DF82900002128461AF0CB
:10D3C0004FFF0746002128461BF0C3F88046002186
:10D3D00028461AF0DDFC064605F1140101A80CF000
:10D3E000BCFD08EB060002B2B81901B201A80CF0AE
:10D3F000B8FE0020009001AA03A95846A36A10F0C5
:10D4000047F800BF0BB0BDE8F08F7CB50446A069BB
:10D4100085686089002856D1A089002853D1E0880A
:10D42000218988424FDAE18808B221F0D7FAB4F9AD
:10D430000410B4F90E20891A48432168498801EB89
:10D44000E03000B2ADF80200E1885A3108B221F0B4
:10D45000C5FAA18810FB01F02168098801EBE030D2
:10D4600000B2ADF80400218908B221F0B7FAA18812
:10D4700010FB01F02168498801EBE03000B2ADF803
:10D48000060021895A3108B221F0A8FAB4F9041033
:10D49000B4F90E20891A48432168098801EBE0306D
:10D4A00000B2ADF800002A4669466846F5F7FEFE70
:10D4B00006463EB1A169C1F808D06A462169A06953
:10D4C00011F08AFBC2E0608910B1A08900287BD1ED
:10D4D0006089D0BB20680088ADF8000020684088D3
:10D4E000A188084400B2ADF80600E18808B221F036
:10D4F00075FAB4F90410B4F90E20891A484321686A
:10D50000498801EBE03000B2ADF80200E1885A3101
:10D5100008B221F063FAA18810FB01F021680988A4
:10D5200001EBE03000B2ADF804002A4669466846D7
:10D53000F5F7BCFE06463EB1A169C1F808D06A46BF
:10D540002169A06911F048FB00BFA08900287DD1A6
:10D5500020680088A188084400B2ADF80400206863
:10D560004088ADF80200218908B221F037FAA1887D
:10D5700010FB01F02168498801EBE03000B2ADF802
:10D58000060021895A3108B221F028FAB4F90410B2
:10D59000B4F90E20891A48432168098801EBE0306C
:10D5A00000B2ADF800002A4669466846F5F77EFEEF
:10D5B00006463EB1A169C1F808D06A462169A06952
:10D5C00011F00AFB42E0FFE76089A189884205D19A
:10D5D000608918B12089E188884211DB60890228BE
:10D5E00002D1A08901280BD06089032802D1A0892B
:10D5F000022805D06089032828D1A089012825D1D7
:10D6000020680088ADF8000020684088ADF802006E
:10D6100020680088A188084400B2ADF804002068A2
:10D620004088A188084400B2ADF806002A46694641
:10D630006846F5F73BFE06463EB1A169C1F808D041
:10D640006A462169A06911F0C7FA00BFA069856028
:10D650007CBD7CB50446A06985686089012856D1E7
:10D66000A089012853D1E088218988424FDAE188D6
:10D6700008B221F0B3F9A18810FB01F021684988B4
:10D6800001EBE03000B2ADF80600E1885A3108B293
:10D6900021F0A4F9B4F90410B4F90E20891A484312
:10D6A0002168098801EBE03000B2ADF8040021895F
:10D6B00008B221F093F9B4F90410B4F90E20891AD4
:10D6C00048432168498801EBE03000B2ADF8020020
:10D6D00021895A3108B221F081F9A18810FB01F0AB
:10D6E0002168098801EBE03000B2ADF800002A465D
:10D6F00069466846F5F7DAFD06463EB1A169C1F80C
:10D7000008D06A462169A06911F066FAC7E060890D
:10D71000012802D0A08901287ED1608901283AD150
:10D7200020680088A188401A00B2ADF80000206887
:10D730004088ADF80200E18808B221F04FF9A188D5
:10D7400010FB01F02168498801EBE03000B2ADF830
:10D750000600E1885A3108B221F040F9B4F904100A
:10D76000B4F90E20891A48432168098801EBE0309A
:10D7700000B2ADF804002A4669466846F5F796FD02
:10D7800006463EB1A169C1F808D06A462169A06980
:10D7900011F022FA00BFA0890128B7D120680088C3
:10D7A000401E00B2ADF8040020684088A1880844FB
:10D7B00000B2ADF80600218908B221F00FF9B4F9E2
:10D7C0000410B4F90E20891A48432168498801EBF6
:10D7D000E03000B2ADF8020021895A3108B221F0E0
:10D7E000FDF8A18810FB01F02168098801EBE03009
:10D7F00000B2ADF800002A4669466846F5F756FDC6
:10D8000006463EB1A169C1F808D06A462169A069FF
:10D8100011F0E2F943E0FFE76089A189884206D16F
:10D820006089012803D02089E18888420FDB608964
:10D8300010B9A08902280AD0608910B9A0890328EC
:10D8400005D0608903282AD1A089022827D1206821
:10D850000088A188401A00B2ADF800002068408816
:10D86000ADF8020020680088401E00B2ADF8040048
:10D8700020684088A188084400B2ADF806002A4616
:10D8800069466846F5F712FD06463EB1A169C1F842
:10D8900008D06A462169A06911F09EF900BFA0690D
:10D8A00085607CBD7CB50446A069856860890228D6
:10D8B00056D1A089022853D1E088218988424FDAC5
:10D8C000E1885A3108B221F089F8A18810FB01F0F3
:10D8D0002168098801EBE03000B2ADF80000E18872
:10D8E00008B221F07BF8B4F90410B4F90E20891ABB
:10D8F00048432168498801EBE03000B2ADF80600EA
:10D90000218908B221F06AF8A18810FB01F0216892
:10D91000498801EBE03000B2ADF8020021895A31AC
:10D9200008B221F05BF8B4F90410B4F90E20891A9A
:10D9300048432168098801EBE03000B2ADF80400EB
:10D940002A4669466846F5F7B1FC06463EB1A1692C
:10D95000C1F808D06A462169A06911F03DF9CCE010
:10D960006089022802D0A08902287DD1608902281E
:10D970003CD120680088401E00B2ADF80400206849
:10D980004088A188401A00B2ADF80200E1885A31FF
:10D9900008B221F023F8A18810FB01F02168098862
:10D9A00001EBE03000B2ADF80000E18808B221F0F0
:10D9B00015F8B4F90410B4F90E20891A4843216807
:10D9C000498801EBE03000B2ADF806002A4669460E
:10D9D0006846F5F76BFC06463EB1A169C1F808D070
:10D9E0006A462169A06911F0F7F800BFA0890228F2
:10D9F000B5D120680088A188401A00B2ADF80000B7
:10DA000020684088401E00B2ADF8060021895A31D6
:10DA100008B220F0E3FFB4F90410B4F90E20891A1B
:10DA200048432168098801EBE03000B2ADF80400FA
:10DA3000218908B220F0D2FFA18810FB01F02168F3
:10DA4000498801EBE03000B2ADF802002A46694691
:10DA50006846F5F72BFC06464EB1A169C1F808D01F
:10DA60006A462169A06900E002E011F0B5F844E0DF
:10DA70006089A189884206D16089022803D0208963
:10DA8000E18888420FDB608910B9A08903280AD099
:10DA90006089012802D1A089032804D06089012867
:10DAA0002BD1A08948BB20680088A188401A00B209
:10DAB000ADF8000020684088A188401A00B2ADF897
:10DAC000020020680088401E00B2ADF80400206803
:10DAD0004088401E00B2ADF806002A4669466846F6
:10DAE000F5F7E4FB06463EB1A169C1F808D06A46E5
:10DAF0002169A06911F070F800BFA06985607CBD44
:10DB00007CB50446A06985686089032856D1A08940
:10DB1000032853D1E088218988424FDAE1885A31BD
:10DB200008B220F05BFFB4F90410B4F90E20891A92
:10DB300048432168098801EBE03000B2ADF80000ED
:10DB4000E18808B220F04AFFA18810FB01F02168AB
:10DB5000498801EBE03000B2ADF8020021895A316A
:10DB600008B220F03BFFA18810FB01F02168098872
:10DB700001EBE03000B2ADF80400218908B220F0DA
:10DB80002DFFB4F90410B4F90E20891A4843216816
:10DB9000498801EBE03000B2ADF806002A4669463C
:10DBA0006846F5F783FB06463EB1A169C1F808D087
:10DBB0006A462169A06911F00FF8C7E0608903285F
:10DBC00002D0A08903287ED1608903283CD1206837
:10DBD0000088A188084400B2ADF80400206840889D
:10DBE000401E00B2ADF80600E1885A3108B220F0BC
:10DBF000F5FEB4F90410B4F90E20891A48432168DF
:10DC0000098801EBE03000B2ADF80000E18808B20D
:10DC100020F0E4FEA18810FB01F02168498801EBA7
:10DC2000E03000B2ADF802002A4669466846F5F7D2
:10DC30003DFB06463EB1A169C1F808D06A4621699C
:10DC4000A06910F0C9FF00BFA08903287ED1206819
:10DC50000088ADF8000020684088A188401A00B212
:10DC6000ADF8020021895A3108B220F0B7FEA18830
:10DC700010FB01F02168098801EBE03000B2ADF83B
:10DC80000400218908B220F0A9FEB4F90410B4F907
:10DC90000E20891A48432168498801EBE03000B220
:10DCA000ADF806002A4669466846F5F7FFFA0646CB
:10DCB0003EB1A169C1F808D06A462169A06910F097
:10DCC0008BFF43E0FFE76089A189884206D1608924
:10DCD000032803D02089E18888420FDB608902286D
:10DCE00001D1A08950B16089012801D1A08928B152
:10DCF000608902282AD1A089012827D120680088BC
:10DD0000ADF8000020684088A188401A00B2ADF844
:10DD1000020020680088A188084400B2ADF8040021
:10DD200020684088401E00B2ADF806002A466946C9
:10DD30006846F5F7BBFA06463EB1A169C1F808D0BE
:10DD40006A462169A06910F047FF00BFA06985609D
:10DD50007CBD000070B5A4B006460D4620AA22A9DD
:10DD6000304619F09DFA22A80CF062F928B920A8D3
:10DD70000CF05EF908B924B070BD12A9304623F04A
:10DD8000FDFD0446012C00D0F5E72946684618F051
:10DD900019FD1B4801900220029012A804904FF434
:10DDA00080300D9022A80CF043F980B122A8039096
:10DDB0006A461A21304612F0F5FC22AA12A928461A
:10DDC00010F00AFF6A461B21304612F0EBFC20A837
:10DDD0000CF02EF990B120A803906A461A21304623
:10DDE00012F0E0FC20A8039020AA12A9284610F007
:10DDF000F3FE6A461B21304612F0D4FC00BFBAE79E
:10DE0000E0B003082DE9F04FB1B005460F4605F12B
:10DE100014012FA8BA68F5F749FA10B931B0BDE876
:10DE2000F08FB8682E902FA8B8602C4600212846A5
:10DE30001AF0A1F92B90002128461AF008FB2A902D
:10DE4000284618F0AAFFB4F88410484300120FFACD
:10DE500080FA284618F082FFB4F886104843001272
:10DE60000FFA80FB04F12400F6F7C9FC289000218A
:10DE700028461AF032F9823461884843001227900C
:10DE80002188491E279801FB10A0218890FBF1F002
:10DE900000B2269028992698B0FBF1F000B22590A8
:10DEA0004FF4A02128461AF018F96188823C4843B3
:10DEB00000122490284619F0DBF801462B98401AEE
:10DEC00000B22390284619F0CDF901462A98401A4D
:10DED00000B2229014A810F09BFE14AA4FF4A021C7
:10DEE00028461AF0B5FF14A8C07B20F0070114A83B
:10DEF000C173FF208DF85300688BBDF850100844A3
:10DF000000B2ADF8B600394602A818F05BFC4FF439
:10DF1000A0200F905D480390042004904FF000086B
:10DF2000AAE02798504400FB08F0B4F8821090FB58
:10DF3000F1F0A98A01442398084400B20190CDF879
:10DF4000408004F12400F6F779FC06468CE0307B33
:10DF500000F0010000B181E094F88800C0F3C00037
:10DF600008B9708900E0002000B200900198ADF877
:10DF7000B000BDF8B010259801442498081A401E3E
:10DF800000B2ADF8B40025990198084400B20190A0
:10DF9000BDF9B400BDF9BC10884200DA5EE0BDF9FD
:10DFA000B000BDF9C010884200DD60E03089ADF8F6
:10DFB000540000984044B4F8821090FBF1F201FB49
:10DFC00012000FFA80F9706830F91910307BC0F335
:10DFD000001204F16C0030F91200081A00FB0BF07B
:10DFE0002990307BC0F3001104F1700030F911105A
:10DFF000307BC0F3001204F16C0030F91200091AF2
:10E00000299890FBF1F029902998ABEB0001E88A60
:10E0100001442298084400B2ADF8B200706830F9AB
:10E02000190047F6FF71884217D02CA8059014A854
:10E0300006901396706830F91900129002AA1A21FE
:10E04000284612F0AFFB2CAA14A9384610F0C4FDE4
:10E0500002AA1B21284612F0A5FB00BF314604F19D
:10E060002400F6F7E5FB0646002E7FF470AF00BFF4
:10E0700008F101001FFA80F8B4F8820040453FF72C
:10E0800050AF2E98B86000BFC8E60000B8B20308D1
:10E090002DE9F34FB9B083463A980BF11401826829
:10E0A00037A8F5F703F910B93BB0BDE8F08F3A98FF
:10E0B0008068369037A93A9881605D46B5F882004D
:10E0C000022800DAF0E70021584619F03AFE3390B2
:10E0D000002158461AF04FF801463398084400B220
:10E0E0003290002158461AF0B2F90146339808449C
:10E0F00000B23190584618F050FEB5F884104843ED
:10E10000001200B23090584618F028FEB5F886107C
:10E110004843001200B22F90584618F0A9FF01465C
:10E12000BBF8142032981044401A00B22E90584682
:10E1300019F098F80146BBF8162031981044401A9F
:10E1400000B22D903A980BF1140182682BA8F5F7D4
:10E15000ADF82A902A9800B9A6E727A80FF098FDF5
:10E1600027AA4FF4A02158461AF0FEFD19A810F076
:10E170004FFD19AA4FF4003158461AF069FE4FF4CA
:10E18000003158461AF0E5FB064600EBD670471002
:10E190004FF40031584619F04EFE064600EBD6709B
:10E1A0004FEA600ABDF99E00574501DA394600E0A2
:10E1B000514600EBD072B1EB620F06DD9DF8A50071
:10E1C00020F0100010308DF8A500BDF89E00012849
:10E1D00006D19DF8A50020F0100010308DF8A500A4
:10E1E000B5F882103098814201DB012000E0002068
:10E1F000189005F12400F6F721FB0446D4E1207BBA
:10E2000000F0010000B1C9E12089ADF89C0020892F
:10E21000ADF8680095F88800C0F3C00008B96089BF
:10E2200000E0002006B217962E98ADF8D4002E9884
:10E23000ADF8D000179E179EB046606830F91810F0
:10E24000207BC0F3001205F16C0030F91200081AAF
:10E250002F9948431690207BC0F3001105F1700000
:10E2600030F91110207BC0F3001205F16C0030F979
:10E270001200091A169890FBF1F0169016992F9833
:10E28000411A2D98084400B2ADF8D20004A83A997A
:10E2900018F098FAC8480590032006904FF4A02083
:10E2A000119027A80A9019A808901594BDF9D200DA
:10E2B0000390BDF9D20002904FF0000923E1BDF8B0
:10E2C000D000ADF8D400BDF8D200ADF8D600BDF94D
:10E2D000D4103698B0F904003844401C814200DD67
:10E2E00016E1309800FB09F0B5F88210491E90FB4A
:10E2F000F1F12E98084400B2ADF8D00017984844C8
:10E30000B5F8821090FBF1F201FB120006B26068D2
:10E3100030F91610207BC0F3001205F16C0030F9C3
:10E320001200081A2F9948431690207BC0F3001161
:10E3300005F1700030F91110207BC0F3001205F1D7
:10E340006C0030F91200091A169890FBF1F0169043
:10E3500016992F98411A2D98084400B2ADF8D200B2
:10E36000BDF9D0103698B0F90000C01B401E8142A4
:10E3700001DAB046C3E0B9F1000F58D01898E8B3FD
:10E38000606830F9180047F6FF718842F5D0606880
:10E3900030F916008842F0D0BDF9D21002988142BF
:10E3A00001DA029801E0BDF9D2000290BDF9D21065
:10E3B0000398814201DD039801E0BDF9D20003908A
:10E3C000BDF9D400BDF9D010884230D0BDF9D200DB
:10E3D0000190BDF8D000401E00B2ADF8D000BDF8ED
:10E3E000D000ADF8D4000398ADF8D6000298ADF88F
:10E3F000D200BDF9D600BDF9D21000E018E0884285
:10E4000005D1BDF8D200401C00B2ADF8D20034AB4B
:10E4100035AA27A93A980FF024FCBDF8D000401C7B
:10E4200000B2ADF8D000019803900198029064E02A
:10E43000BDF8D400C01B00B2ADF80000BDF8D40098
:10E44000384400B2ADF80400BDF8D600A0EB0A00D5
:10E4500000B2ADF80200BDF8D600504400B2ADF8ED
:10E460000600A9F101001290606830F9180047F623
:10E47000FF71884201D035A800E000200D9060684F
:10E4800030F9160047F6FF71884201D034A800E049
:10E4900000200E90CDF81CD0606830F91800149060
:10E4A00004AA1A21584612F07DF9606830F9180064
:10E4B00047F6FF7188420AD0606830F9160088423A
:10E4C00005D034AB35AA27A93A980FF0CAFB77B12B
:10E4D000BAF1000F0BD0606830F9180047F6FF71F1
:10E4E000884204D06A4619A93A9810F075FB04AA2C
:10E4F0001B21584612F056F900BFB04600BF09F183
:10E5000001001FFA80F9B5F8820048453FF7D7AE01
:10E5100000BF1898E8BBB5F8820048453DD1606857
:10E5200030F9160047F6FF71884236D0BDF8D000AA
:10E53000C01B00B2ADF80000BDF8D000384400B2F6
:10E54000ADF80400BDF8D200A0EB0A0000B2ADF8AF
:10E550000200BDF8D200504400B2ADF80600A9F1A7
:10E560000100129000200D900E90CDF81CD0606834
:10E5700030F91600149004AA1A21584612F012F924
:10E580006A4619A93A9810F027FB04AA1B2158469D
:10E5900000E002E012F006F900BF00BF214605F1DD
:10E5A0002400F6F745F90446002C7FF428AE3A998A
:10E5B0003698886000BF77E5B8B203082DE9F34FBD
:10E5C000B3B08146349809F11401826831A8F4F798
:10E5D0006DFE10B935B0BDE8F08F3498806830908A
:10E5E00031A9349881604D460021484619F0A9FBB5
:10E5F0002D900021484619F0BEFD2C900021484680
:10E6000019F025FF2B90484618F0C7FBB5F8841089
:10E610004843001200B22A90484618F09FFBB5F814
:10E6200086104843001200B22990484618F020FD99
:10E630000146B9F814202C9802442D981044401A31
:10E6400000B22890484618F00DFE0146B9F8162091
:10E650002B9802442D981044401A00B2279024A809
:10E660000FF016FB24AA4FF4A02148461AF07CFBB9
:10E6700016A810F0CDFA16AA4FF4003148461AF049
:10E68000E7FB4FF4003148461AF063F9064600EB09
:10E69000D67047104FF40031484619F0CCFB0646BF
:10E6A00000EBD6704FEA6008BDF99200474501DAE9
:10E6B000394600E0414600EBD072B1EB620F06DD57
:10E6C0009DF8990020F0100010308DF89900BDF8E9
:10E6D0009200012806D19DF8990020F0100010301A
:10E6E0008DF8990005F12400F6F7A8F8044698E1A2
:10E6F000207B00F0010000B18DE12089ADF8900091
:10E700002089ADF85C0095F88800C0F3C00008B916
:10E71000608900E0002006B215962898ADF8BC008C
:10E720002898ADF8B800159E159EB346606830F87D
:10E7300016000A2847D02A980090236833F916005B
:10E74000237BC3F3C00C05F1780333F91C20237B32
:10E75000C3F3C00C05F1740333F91C10002316F049
:10E760004DF900B2ADF8B800BDF8B81028980844CB
:10E7700000B2ADF8B80029980090636833F916002C
:10E78000237BC3F3001C05F1700333F91C20237BAA
:10E79000C3F3001C05F16C0333F91C10002316F0C1
:10E7A0002DF900B2ADF8BA00BDF8BA102998401A98
:10E7B00000B2ADF8BA00BDF8BA102798084400B20C
:10E7C000ADF8BA0005E04EF20100ADF8B800ADF8C2
:10E7D000BA0003A8349917F0F5FF4FF4A020109069
:10E7E000944804900320059024A8099016A8079047
:10E7F00014944FF0000AC8E0BDF8B800ADF8BC00B2
:10E80000BDF8BA00ADF8BE0015985044B5F88210B6
:10E8100090FBF1F201FB120006B2606830F91600BD
:10E8200047F6FF71884247D029980090636833F912
:10E830001600237BC3F3001C05F1700333F91C2081
:10E84000237BC3F3001C05F16C0333F91C10002378
:10E8500016F0D4F800B2ADF8BA00BDF8BA10299895
:10E86000401A00B2ADF8BA00BDF8BA1027980844B3
:10E8700000B2ADF8BA002A980090236833F9160068
:10E88000237BC3F3C00C05F1780333F91C20237BF1
:10E89000C3F3C00C05F1740333F91C10002316F008
:10E8A000ADF800B2ADF8B800BDF8B810289808442B
:10E8B00000B2ADF8B80001E0B34662E0BAF1000F73
:10E8C0005DD0BDF8BC00C01B00B2ADF80400BDF8BF
:10E8D000BC00384400B2ADF80800BDF8BE00A0EBA3
:10E8E000080000B2ADF80600BDF8BE00404400B21A
:10E8F000ADF80A00AAF101001190606830F91B0020
:10E9000047F6FF71884201D02FA800E000200C904C
:10E91000606830F9160047F6FF71884201D02EA8D2
:10E9200000E000200D9001A80690606830F91B00FF
:10E93000139003AA1A21484611F034FF606830F999
:10E940001B0047F6FF71884213D0606830F916004B
:10E9500088420ED02EAB2FAA24A934980FF081F94B
:10E960003FB1B8F1000F04D001AA16A9349810F0F5
:10E9700033F903AA1B21484611F014FF00BFB34628
:10E9800000BF0AF101001FFA80FAB5F88200504575
:10E990003FF732AFB5F8820050453BD1606830F99F
:10E9A000160047F6FF71884234D0BDF8B800C01B8E
:10E9B00000B2ADF80400BDF8B800384400B2ADF8BC
:10E9C0000800BDF8BA00A0EB080000B2ADF80600E0
:10E9D000BDF8BA00404400B2ADF80A00AAF1010047
:10E9E000119000200C900D9001A80690606830F9FD
:10E9F0001600139003AA1A21484611F0D3FE01AA6B
:10EA000016A9349810F0E8F803AA1B21484611F023
:10EA1000C9FE00BF00BF214605F12400F5F708FF3D
:10EA20000446002C7FF464AE34993098886000BFAF
:10EA3000D0E50000B8B203082DE9F74FA2B00F46A9
:10EA4000F88D10B925B0BDE8F08F97F83600022890
:10EA500000DCF7E7F88D012808D1B7F93400002869
:10EA600004DC388E10B9788E00B9EBE72498008862
:10EA7000398E0844B98E401A00B2ADF8800024984F
:10EA80008088398E0844B98E084400B2ADF88400FD
:10EA900024984088798E0844B98E401A00B2ADF8A7
:10EAA00082002498C088798E0844B98E084400B248
:10EAB000ADF88600B7F92E0000EBD071BDF88020CC
:10EAC000A2EB6101491E09B2ADF87810B7F92E002A
:10EAD00000EBD071BDF8842002EB6101491C09B242
:10EAE000ADF87C10B7F92E0000EBD071BDF8822094
:10EAF000A2EB6101491E09B2ADF87A10B7F92E00F8
:10EB000000EBD071BDF8862002EB6101491C09B20F
:10EB1000ADF87E1097F836001D901D98FD2801DD98
:10EB2000FF201D9022981EA982681BA8F4F7BEFB47
:10EB300000B987E719A824990BF0E2F94FF0FF32EA
:10EB4000114619A80BF0FCFAB7F9008019A80BF0D0
:10EB5000BFFA834619A80BF033FA834503DA19A8E4
:10EB60000BF0B6FA02E019A80BF02AFA18901898E0
:10EB7000B8EB600F02DD18984FEA6008B7F90000A3
:10EB8000179020A80BF0A4FA834620A80BF018FADF
:10EB9000834503DA20A80BF09BFA02E020A80BF0D3
:10EBA0000FFA1890DDE91701B0EB610F02DD18983C
:10EBB00040101790B7F92E1017980C1804FB04F1A9
:10EBC000480015F069FF8246B7F92E20179803B266
:10EBD000514620A823F0A0F81EA80FF08BFB16903A
:10EBE0004FF00109169820B9F878FF2801DBB878B2
:10EBF00008B14FF000094FF0FF300F90B9F1000F4E
:10EC00000BD101230FFA88F219A910A80FF0EAFE20
:10EC1000002110A80FF068F80F901EA80BF058FA0A
:10EC2000834615F039FF0E901C2102A816F0DFF97B
:10EC30000CA8029007900E980590B88DADF81000C2
:10EC400097F836008DF82000B8788DF821001EA8BE
:10EC50000BF03EFA834600EBDB70BDF8781001EB59
:10EC6000600000B201901EA80BF0AAF9834600EBE9
:10EC7000DB70BDF87A1001EB600000B20090BDF8C7
:10EC80007C00ADF83400BDF87C00001B401C00B2D5
:10EC9000ADF83000BDF87A00ADF83200BDF87A006A
:10ECA0002044401E00B2ADF83600BDF93010019886
:10ECB000814202DDBDF9300000E00198ADF830007E
:10ECC000BDF936100098814202DABDF9360000E045
:10ECD0000098ADF8360022980CA982680AA8F4F7CB
:10ECE000E5FA002866D00FFA88F219A90AA8F4F705
:10ECF0001EFB00285ED10AA80BF0EAF983465646AF
:10ED0000BDF92A00BDF97A10401A00FB0466BDF96E
:10ED10002810BDF97C00001B401C081A0644B9F1FC
:10ED2000000F09D00FFA88F219A90AA8F4F77AFBA4
:10ED300010B10120099001E0CDF82490BBF1000F43
:10ED400037DD0E980590BDF82800ADF83000BDF80D
:10ED50002C00ADF8340002208DF81800BDF92A50BF
:10ED600023E0ADF83250ADF836500998A8B92246E4
:10ED700031460E9815F0ADFFBDF928105B462A46C6
:10ED80000E980FF067FA8DF818009DF8180001280A
:10ED900004D102208DF8180000E0059602A92298FF
:10EDA00010F058F92644681C05B2BDF92E00A8429F
:10EDB000D7DA00BFBDF87C00ADF83400BDF87C00A8
:10EDC000001B401C00B2ADF83000BDF87E00001BF7
:10EDD000401C00B2ADF83200BDF87E00ADF8360040
:10EDE000BDF930100198814202DDBDF9300000E02C
:10EDF0000198ADF83000BDF932100098401C8142F6
:10EE000002DDBDF9320001E00098401C00B2ADF80F
:10EE1000320022980CA982680AA8F4F747FA002861
:10EE200066D00FFA88F219A90AA8F4F780FAA8BBED
:10EE30000AA80BF04DF983465646BDF93600BDF9D8
:10EE40002E10401A00FB0466BDF92810BDF97C00A5
:10EE5000001B401C081A0644B9F1000F09D00FFA34
:10EE600088F219A90AA8F4F7DDFA10B10120099077
:10EE700001E0CDF82490BBF1000F38DD0E9805902D
:10EE8000BDF82800ADF83000BDF82C00ADF8340016
:10EE900002208DF81800BDF92E5024E028E0ADF8CE
:10EEA0003250ADF836500998A8B9224631460E982E
:10EEB00015F00FFFBDF928105B462A460E980FF09B
:10EEC000C9F98DF818009DF81800012804D1022016
:10EED0008DF8180000E0059602A9229810F0BAF803
:10EEE0002644681E05B2BDF92A00A842D7DD00BF3E
:10EEF000BDF87800204400B2ADF83000BDF87C00C9
:10EF0000001B00B2ADF83400BDF87A00ADF8320055
:10EF1000BDF87A002044401E00B2ADF83600BDF9BD
:10EF200036100098814202DABDF9360000E0009800
:10EF3000ADF8360022980CA982680AA8F4F7B6F951
:10EF4000002870D00FFA88F219A90AA8F4F7EFF98F
:10EF5000002868D10AA80BF0BBF883465646BDF9D5
:10EF60002A00BDF93210401A00FB0466B9F1000F07
:10EF700009D00FFA88F219A90AA8F4F753FA10B1C8
:10EF80000120099001E0CDF82490BBF1000F49DD8C
:10EF9000099810B90E98059001E000200590BDF881
:10EFA0002800ADF83000BDF82C00ADF83400BDF9F4
:10EFB0002A5033E0ADF83250ADF836500998C8B950
:10EFC00031785A460E9815F0D8FFBDF928105B46E7
:10EFD0002A460E980FF03EF98DF818009DF818009B
:10EFE000012802D102208DF8180002A9229810F001
:10EFF00031F810E01D98FF2801D1307805E0307815
:10F0000097F8361010FB01F000128DF8200002A9CD
:10F01000229810F01FF82644681C05B2BDF92E0096
:10F02000A842C7DA00BF97F836008DF82000BDF877
:10F030007800204400B2ADF83000BDF87C00001B21
:10F0400000B2ADF83400BDF87E00001B401C00B2D9
:10F05000ADF83200BDF87E00ADF83600BDF93210D3
:10F060000098401C814202DDBDF9320001E00098A9
:10F07000401C00B2ADF8320022980CA982680AA8A0
:10F08000F4F714F900287DD00FFA88F219A90AA81C
:10F09000F4F74DF900287AD10AA80BF019F8834645
:10F0A0005646BDF93600BDF92E10401A00FB046625
:10F0B000BBF1000F6ADDB9F1000F09D00FFA88F239
:10F0C00019A90AA8F4F7AEF910B10120099001E0DE
:10F0D000CDF82490099810B90E98059001E0002011
:10F0E0000590BDF82800ADF83000BDF82C00ADF853
:10F0F0003400BDF92E5042E0ADF83250ADF8365034
:10F10000B9F1000F09D00FFA88F219A90AA8F4F78B
:10F1100089F910B10120099001E0CDF824900998F7
:10F12000C8B931785A460E9815F027FFBDF9281056
:10F130005B462A460E980FF08DF88DF818009DF862
:10F140001800012802D102208DF8180002A9229887
:10F150000FF080FF10E01D98FF2801D1307805E006
:10F16000307897F8361010FB01F000128DF820006F
:10F1700002A922980FF06EFF2644681E05B2BDF961
:10F180002A0001E003E001E0A842B5DD00BF97F8E6
:10F1900036008DF82000BDF87C00001B401C00B23A
:10F1A000ADF83000BDF87C00ADF83400BDF87A0051
:10F1B000204400B2ADF83200BDF87E00001B00B262
:10F1C000ADF83600BDF932100098401C814202DAD9
:10F1D000BDF9320001E00098401C00B2ADF83200E9
:10F1E000BDF936100098814202DDBDF9360000E01D
:10F1F0000098ADF83600BDF930100198814202DD6B
:10F20000BDF9300000E00198ADF8300022980CA95B
:10F2100082680AA8F4F74AF8E0B30FFA88F219A94D
:10F220000AA8F4F784F8A8BB0AA80AF051FF83469D
:10F230005646601E00FB0466BDF92810BDF97C002F
:10F24000001B401C081A0644B9F1000F09D00FFA40
:10F2500088F219A90AA8F4F7E5F810B1012009907D
:10F2600001E0CDF82490099808B1304600E00E98EE
:10F270000590BBF1000F33DDBDF82800ADF830007C
:10F28000BDF82C00ADF8340002208DF81800BDF94F
:10F290002A5021E025E0ADF83250ADF836500998FB
:10F2A000A0B95A4631460E9815F013FDBDF9281045
:10F2B0005B462A460E980EF0CDFF8DF818009DF89B
:10F2C0001800012802D102208DF8180002A9229806
:10F2D0000FF0C0FE681C05B2BDF92E00A842DADAB4
:10F2E00000BF5646002515E030463319591E00224E
:10F2F00008E0037891F800C080F800C00B70401C53
:10F30000491E521C04EBD47CB2EB6C0FF1DB26449B
:10F31000681C05B2A542E7DBBDF87800ADF8300007
:10F32000BDF878002044401E00B2ADF83400BDF8AE
:10F330007A00204400B2ADF83200BDF87E00001B18
:10F3400000B2ADF83600BDF932100098401C814281
:10F3500002DABDF9320001E00098401C00B2ADF8BD
:10F360003200BDF936100098814202DDBDF9360049
:10F3700000E00098ADF83600BDF934100198401E49
:10F38000814202DABDF9340001E00198401E00B26A
:10F39000ADF8340022980CA982680AA8F3F786FF1A
:10F3A000D0B30FFA88F219A90AA8F3F7C0FF98BBE7
:10F3B0000AA80AF08DFE83465646601E00FB0466CE
:10F3C000BDF92800BDF93010401A0644B9F1000F0C
:10F3D00009D00FFA88F219A90AA8F4F723F810B196
:10F3E0000120099001E0CDF82490099808B1304639
:10F3F00000E00E980590BBF1000F33DDBDF828004A
:10F40000ADF83000BDF82C00ADF8340002208DF8C6
:10F410001800BDF92A5021E025E0ADF83250ADF8D2
:10F4200036500998A0B95A4631460E9815F051FC4D
:10F43000BDF928105B462A460E980EF00BFF8DF89A
:10F4400018009DF81800012802D102208DF818003C
:10F4500002A922980FF0FEFD681C05B2BDF92E002E
:10F46000A842DADA00BFBDF87800ADF83000BDF888
:10F4700078002044401E00B2ADF83400BDF87A0098
:10F48000ADF83200BDF87A002044401E00B2ADF85D
:10F490003600BDF934100198401E814202DABDF9F0
:10F4A000340001E00198401E00B2ADF83400BDF90F
:10F4B00036100098814202DABDF9360000E000986B
:10F4C000ADF8360022980CA982680AA8F3F7EEFE80
:10F4D000D0B30FFA88F219A90AA8F3F728FF98BB4E
:10F4E0000AA80AF0F5FD83465646BDF92A00BDF983
:10F4F0003210401A00FB0466BDF92800BDF9301037
:10F50000401A0644B9F1000F09D00FFA88F219A980
:10F510000AA8F3F787FF10B10120099001E0CDF8A8
:10F5200024900E980590BBF1000F36DDBDF8280041
:10F53000ADF83000BDF82C00ADF8340002208DF895
:10F540001800BDF92A5024E028E0ADF83250ADF89B
:10F5500036500998A8B9224631460E9815F0B9FBE5
:10F56000BDF928105B462A460E980EF073FE8DF802
:10F5700018009DF81800012804D102208DF8180009
:10F5800000E0059602A922980FF064FD2644681C4D
:10F5900005B2BDF92E00A842D7DA00BFBDF8780049
:10F5A000ADF83000BDF878002044401E00B2ADF840
:10F5B0003400BDF87E00001B401C00B2ADF83200E4
:10F5C000BDF87E00ADF83600BDF932100098401C41
:10F5D000814202DDBDF9320001E00098401C00B21A
:10F5E000ADF83200BDF934100198401E814202DAB4
:10F5F000BDF9340001E00198401E00B2ADF83400BE
:10F6000022980CA982680AA8F3F750FED0B30FFA2B
:10F6100088F219A90AA8F3F78AFE98BB0AA80AF08B
:10F6200057FD83465646BDF93600BDF92E10401AE7
:10F6300000FB0466BDF92800BDF93010401A0644ED
:10F64000B9F1000F09D00FFA88F219A90AA8F3F747
:10F65000E9FE10B10120099001E0CDF824900E9848
:10F660000590BBF1000F36DDBDF82800ADF8300085
:10F67000BDF82C00ADF8340002208DF81800BDF95B
:10F680002E5024E028E0ADF83250ADF836500998FD
:10F69000A8B9224631460E9815F01BFBBDF928107B
:10F6A0005B462A460E980EF0D5FD8DF818009DF8A1
:10F6B0001800012804D102208DF8180000E00596FA
:10F6C00002A922980FF0C6FC2644681E05B2BDF9B7
:10F6D0002A00A842D7DD00BFBDF87800204400B260
:10F6E000ADF83000BDF87C00001B00B2ADF834006E
:10F6F000BDF87A00204400B2ADF83200BDF87E00BB
:10F70000001B00B2ADF836000E98059022980CA9A7
:10F7100082680AA8F3F7CAFDA0B30FFA88F219A904
:10F720000AA8F3F704FE68BB0AA80AF0D1FC8346D6
:10F73000BBF1000F25DDBDF82800ADF83000BDF8A5
:10F740002C00ADF83400BDF92A5016E0ADF8325067
:10F75000ADF8365059460E9815F080FCBDF92810CA
:10F760005B462A460E980EF075FD8DF8180002A92A
:10F7700022980FF06FFC681C05B2BDF92E00A8425C
:10F78000E4DA00BFB9F1000F05D110A80EF08EFD2C
:10F790000F980FF00FFA504615F0FAF90E9815F081
:10F7A000F7F900BFFFF74EB92DE9F74FDEB05E98CD
:10F7B0005D9060980AF09AFC804600EBD8704FEAA2
:10F7C000600A60980AF00AFC074600EBD770401008
:10F7D000824507DA60980AF089FC064606EBD67087
:10F7E000401006E060980AF0F9FB054605EBD5707D
:10F7F000401000B25B90609801885B98084400B2AA
:10F80000ADF87001609841885B98084400B2ADF88B
:10F81000720158A80EF03CFA58AA4FF4C0215E9825
:10F8200019F0A2FA9DF8690120F0100010308DF84F
:10F83000690150A80EF0E0F950AA4FF4C0215E987B
:10F8400019F02BFA2CA85F9916F0BCFFFE482D90FA
:10F850004FF4C020399003202E9058A832905D9824
:10F860002430F4F7EBFF044643E23D94A18B5B9810
:10F87000084406B2A088301A00B22B90A089301A32
:10F880000FFA80FABDF870112B98081A00B2ADF883
:10F89000A400BDF872112B98081A00B2ADF8A600AA
:10F8A000BDF870112B98084400B2ADF8A800BDF85F
:10F8B00072112B98084400B2ADF8AA00012347F654
:10F8C000FF7229A94AA80FF08DF8BDF87001A0EBCE
:10F8D0000A0000B2ADF89C00BDF87201A0EB0A006E
:10F8E00000B2ADF89E00BDF870015044401E00B259
:10F8F000ADF8A000BDF872015044401E00B2ADF852
:10F90000A200012347F6FF7227A944A80FF06AF866
:10F91000BDF87001801B00B2ADF89400BDF8720113
:10F92000801B00B2ADF89600BDF870013044401E57
:10F9300000B2ADF89800BDF872013044401E00B22C
:10F94000ADF89A00002347F6FF7225A93EA80FF0F4
:10F9500049F800213EA80EF0C7F924904FF0FF307F
:10F960002390608910B16089401E01E04FF6FF705E
:10F9700022904FF00009A6E12298401C229000201E
:10F98000219061892298814203D100202290012098
:10F990002190A06900906088421E0021484663695A
:10F9A00015F02CF807463C97219810B1208920903B
:10F9B00001E02068209020981F90219808B1E089EC
:10F9C00000E0E0880FFA80F8CDF87880DDF87880E4
:10F9D0005D983030F4F732FF05465FE02879022861
:10F9E00000D055E0A868B84251DCE868B8424EDB68
:10F9F000288A40440FFA80F8698AA88A814202D195
:10FA0000688A209043E0A87D00F0010050B1FF20FB
:10FA1000009000233846D5E9021214F0EFFFC0B27F
:10FA2000139009E0FF20009000233846D4E9051226
:10FA300014F0E4FFC0B21390A98A1191698A12915F
:10FA4000139800F1040C4FEAEC00BDF848C04CEAF2
:10FA50000C4CDFF8F8E10CEA0E01BDF844C04CEAAA
:10FA60000C4C0CEA0E02A2EB010C0CFB00FC01EBAF
:10FA70005C1C0CEA0E0343EA134C1FFA8CFCCDF815
:10FA800040C0BDF840E0F446CDF880C000BF00BFE4
:10FA900029465D983030F4F7CBFE0546002D9DD108
:10FAA000E08B00FB09F001026088401E91FBF0F042
:10FAB0001D901D9800121C901C98401C1B901D98B6
:10FAC00000F0FF0B228C1C99114408B21EF086FF37
:10FAD0001A90228C1B99114408B21EF07FFF1990D6
:10FAE000CBF580711A9811FB00F1199810FB0B10DF
:10FAF00000121890228C1C99114408B21EF066FF67
:10FB00001790228C1B99114408B21EF05FFF1690CB
:10FB1000CBF58071179811FB00F1169810FB0B10B4
:10FB200000121590BDF88000ADF86001ADF862815B
:10FB3000BDF8702106EB0801159848437F3002EBB1
:10FB4000E03000B2ADF85000BDF8722106EB0801BC
:10FB5000189848437F3002EBE03000B2ADF8520015
:10FB600014A835905CA83590CDF8E89050A8319055
:10FB7000219800287CD024980FF01CF8B4F91000CC
:10FB8000AAEB00001390BDF8702113991598484313
:10FB90007F3002EBE03000B2ADF84800BDF87221D2
:10FBA0001399189848437F3002EBE03000B2ADF86B
:10FBB0004A00202250A90AA815F08BF80AA8319013
:10FBC0003B4623A2102106A81CF096FA06A83790FF
:10FBD0002CAA1A215E9810F0E5FD002141F6FF7273
:10FBE000BDF95201CDE901210090BDF9543105A8BC
:10FBF000509A37991EF0E0FFBDF9140000EBD07168
:10FC0000BDF84820A2EB610109B2ADF80C10BDF9B6
:10FC1000160000EBD071BDF84A20A2EB610109B2D9
:10FC2000ADF80E10BDF80C00BDF81410084400B279
:10FC3000ADF81000BDF80E00BDF81610084400B273
:10FC4000ADF81200002006E0F0B703081FF8E00747
:10FC5000256400000CE0009003AA379B31995F985F
:10FC60000DF016FC00213EA80EF03EF8249007E0AF
:10FC70000020319037902CAA1A215E9810F092FD46
:10FC8000219909B144A900E04AA9084600210EF0D3
:10FC90002BF823905CAB14AA58A95F980DF0E1FFF4
:10FCA00023980EF087FF2CAA16215E9810F07AFD9B
:10FCB000BDF87C00ADF860011E98ADF8620109F155
:10FCC000010000F0FF09608848453FF755AE4AA89B
:10FCD0000EF0ECFA44A80EF0E9FA3EA80EF0E6FAAF
:10FCE00024980EF067FF21465D982430F4F7A0FDBC
:10FCF0000446002C7FF4B9AD61B0BDE8F08F000080
:10FD00002DE9F04FB1B005468B4690462E46414650
:10FD1000284603F045F904462089C0F30E00012867
:10FD200002DC31B0BDE8F08F2089C0F3C03020B9CB
:10FD3000208810B9608800B9F3E70021284618F040
:10FD40001AFA82460021284617F0FBFF504400B201
:10FD50002E90284617F021F8B6F884104843001278
:10FD600000B22D9025A80DF047FF25AA4FF4C02121
:10FD7000284618F092FF284617F07AF90146AA8A19
:10FD80002E981044401A00B22490B8F1020F0ED100
:10FD90002089C0F3C03028B14FF4C021284618F0A4
:10FDA0000DF900E000202390B5F91A900DE02089AC
:10FDB000C0F3C03028B14FF4C021284618F047FBEB
:10FDC00000E000202390B5F91690B8F1020F16D18B
:10FDD000DBF80800B0F90600484500DAA1E72398EF
:10FDE00048442599B1F908100844B4F900100844B2
:10FDF000DBF80810B1F90210884200DA91E720A878
:10FE00000DF046FF20AA4FF4C021284618F0ACFFA1
:10FE10000020ADF88600ADF8840059460EA816F013
:10FE2000D1FCA6480F900620109002201C904FF4A1
:10FE3000C0201B9025A8139020A81490B8F1020FA1
:10FE400001D0012000E000200D9096F8880000F01D
:10FE50000700022822D10021284618F03EF9B6F802
:10FE6000841048434FEA202A2D985044B6F8821057
:10FE700090FBF1F000B20B900B99A1EB0A0000EBA4
:10FE8000D0714A102499114409B224910B98A0EB27
:10FE90000A012D98401A00B22D9000BFADF8C29013
:10FEA0002089C0F30E00401E6168C1F30E41484333
:10FEB0000C900027FBE000200B906068C0F30E4020
:10FEC000B7FBF0F100FB117008B901200B90BDF9F0
:10FED00082102D98401A78430C99B0FBF1F12498C8
:10FEE000084400B2ADF8C000ADF8BC000D9868B190
:10FEF000BDF9C2100B9810B1B4F9000001E0B4F9DB
:10FF00000200081A00B2ADF8BE000CE0BDF9C21044
:10FF10000B9810B1B4F9000001E0B4F902000844F4
:10FF200000B2ADF8BE0030A817902FA8189096F830
:10FF3000880000F00700032810D106F178000D9921
:10FF400030F91100009006F1740030F911300021F1
:10FF500038460C9A14F052FD824604E06068C0F303
:10FF60000E40B7FBF0FACDF878A00B98002871D0BE
:10FF70002089C0F3C03000286CD0534650A2102115
:10FF800007A81CF0B9F825A8139007A8199010200D
:10FF90001A900EAA1A21284610F004FC002141F6FE
:10FFA000FF72BDF9A600CDE901210090BDF9A8308E
:10FFB00006A8259A19991EF0FFFDBDF9180000EB5F
:10FFC000D071BDF8BC20A2EB610109B2ADF81010F0
:10FFD000BDF9180000EBD071BDF8BC2002EB610147
:10FFE00009B2ADF814100D9878B1BDF8BE10239881
:10FFF000081A00B2ADF81600BDF81600BDF81A10C8
:020000040801F1
:10000000401A00B2ADF812000EE0BDF8BE10239801
:10001000084400B2ADF81200BDF81200BDF81A1085
:10002000084400B2ADF81600BDF91400B5F914107B
:1000300088420DDBBDF91010B5F91800814207DCCC
:100040000020009004AA25A95846199B0DF020FA1B
:1000500009E0FFE70020139019901A900EAA1A21C8
:10006000284610F09FFBBDF9821001EBD172BDF95B
:10007000C03003EB6202B5F914309A4211DBBDF9CE
:10008000820000EBD072BDF9BC30A3EB6203B5F97E
:100090001820934205DC2FAB30AA20A958460DF05A
:1000A000E0FD0EAA1B21284610F07CFB7F1C0C985B
:1000B00087427FF600AF00BF33E60000B8B2030806
:1000C000256400002DE9F74FB2B00546164631957C
:1000D0003146284602F064FF04462089C0F30E0032
:1000E000012802DC35B0BDE8F08F2089C0F3C030B4
:1000F00020B9208810B9608800B9F3E70EB101205B
:1001000000E0002083460021284617F01AFE2E90BA
:100110000021284618F09BF92D90284616F01EFE67
:100120003199B1F886104843001200B22C9028464D
:1001300017F098F80146EA8A2D9802442E98104448
:10014000401A00B22B904EB94FF4C021284618F047
:1001500012F80746B5F914002A9008E04FF4C021C0
:10016000284618F0B1F80746B5F918002A90B4F9F6
:1001700000002990B4F902002890012E07D1299897
:10018000404200B229902898404200B2289025A809
:100190000DF07EFD25AA4FF4C021284618F0E4FD9D
:1001A0001DA80DF029FD1DAA4FF4C021284618F006
:1001B00074FD0BA8339916F005FB89480C900620B6
:1001C0000D9019960004189025A811901DA8109064
:1001D0002089C0F30E00401E6168C1F30E4100FB90
:1001E00001F94FF00008F6E0BDF996102C98401A7E
:1001F00000FB08F0B0FBF9F12B98084400B2ADF811
:10020000C200ADF8BE002A98ADF8C00036B9BDF8FE
:10021000C000401E00B2ADF8C00005E0BDF8C0004F
:10022000401C00B2ADF8C00000200A906068C0F326
:100230000E40B8FBF0F100FB118008B901200A90D4
:100240000A9838B1BDF8C0102998081A00B2ADF864
:10025000BC0006E0BDF8C0102898081A00B2ADF83E
:10026000BC0030A814902FA815903198703030F948
:100270001B00009031996C3131F91B30A9EB08005B
:100280004A46002114F0BAFB8246CDF86CA00A98C9
:10029000002872D02089C0F3C03000286DD05346AA
:1002A00050A2102106A81BF027FF1DA8109006A839
:1002B0001690102017900BAA1A21284610F072FAF7
:1002C000002141F6FF72BDF98600CDE901210090C1
:1002D000BDF9883005A81D9A16991EF06DFCBDF970
:1002E000160000EBD071BDF8BE20A2EB610109B28F
:1002F000ADF80E10BDF9160000EBD071BDF8BE20B0
:1003000002EB610109B2ADF81210BBF1000F0FD181
:10031000BDF8BC00BDF81410401AC01B00B2ADF807
:100320000C00BDF8BC00C01B00B2ADF810000EE020
:10033000BDF8BC00384400B2ADF80C00BDF8BC00FC
:10034000BDF814100844384400B2ADF81000BDF9EF
:100350001210B5F9160081420DDBBDF90E10B5F98A
:100360001A00814207DC0020009003AA1DA9169BF9
:1003700033980DF08DF809E0FFE7002010901690FB
:1003800017900BAA1A21284610F00CFABDF9961006
:1003900001EBD172BDF9C23003EB6203B5F916204F
:1003A000934211DBBDF9960000EBD072BDF9BE306F
:1003B000A3EB6203B5F91A20934205DC2FAB30AAF8
:1003C00025A933980DF04DFC0BAA1B21284610F0EF
:1003D000E9F908F10108C8457FF606AF00BF81E6DC
:1003E000B8B2030825640000FEB50446204610F0AC
:1003F00071F90546204610F0CEF906461C2D0AD1AB
:100400000A22694630460FF07DFE694602480068C0
:1004100013F0DCFF00BFFEBD140300202DE9FE4FEA
:1004200006460C46174698462021304618F022FB17
:1004300000287DD00C98032803D1304616F0FEFE2C
:1004400002E0304616F004FF814612F0B9FB054683
:100450004FF0000A002002900C98032843D100219D
:10046000304617F061FE83460021304617F005FF45
:100470000190B9F1010F23D0B9F1020F28D0B9F1E1
:10048000030F2ED106F1140009F0E3FDA0EB0B01E0
:100490000198081A009000EBD0700BEB6000B18A55
:1004A00008440FFA80FA05F1140009F0D2FD00901B
:1004B00000EBD070A98A01EB600000B2029010E05E
:1004C000B08A58440FFA80FAB5F91400029008E097
:1004D000318B0198081A0FFA80FAB5F918000290CA
:1004E00000BF00BF45E00021304617F089FF83467A
:1004F0000021304617F03BFD0190B9F1010F25D0E6
:10050000B9F1020F2AD0B9F1030F30D106F114006E
:1005100009F02CFDA0EB0B010198081A009000EBEC
:10052000D0700BEB6001F08A08440FFA80FA00E00B
:1005300054E005F1140009F019FD009000EBD070B3
:100540004110E88A084400B2029010E0F08A584452
:100550000FFA80FAB5F91600029008E0718B019845
:10056000081A0FFA80FAB5F91A00029000BF00BF0E
:1005700000BFB8F1000F17DAB9F1000F05D00298EB
:10058000504502DD2046BDE8FE8F002C01DAA01E9A
:1005900004B2002C01DDA01C04B22146E01704EBDC
:1005A0009070801000B2EEE7002F16DAB9F1000F5C
:1005B00004D00298504501DA2046E4E7002C01DA25
:1005C000A01E04B2002C01DDA01C04B22246E017DC
:1005D00004EB9070801000B2D5E709E008EB04004E
:1005E000002802DAC8F1000004B2381B00D53C46EE
:1005F0002046C8E710B50446207EC0F3800008B14D
:10060000002010BD207A232802D0242803D100E046
:1006100000BF0120F5E700BF00BF4FF480416068D4
:1006200018F028FA08B90020EBE7207A11381C28C6
:1006300023D2DFE800F00E0F101112131415161755
:100640001822221922221A1D1B1C222222221E1FBE
:10065000222000BF00BF00BF00BF00BF00BF00BF1F
:1006600000BF00BF00BF00BF00BF00BF00BF00BF92
:1006700000BF00BF00BF0020C3E70120C1E72DE994
:10068000F041044612F088FA07469FB13868806846
:1006900018B1217A386882689047207EC0F3400004
:1006A00010B10120BDE8F081207E00F0010008B10A
:1006B0000020F7E701260EB9002003E00021606862
:1006C00016F0C2FB05464FF0000827E02868F0B19D
:1006D000287A00F08000802819D1287A802805D057
:1006E000287A20F08000217A884210D16868E06082
:1006F000204629688847207EC0F3400008B10120C9
:10070000D0E7207E00F0010008B10020CAE708F120
:1007100001084146606816F097FB05460DB1012EB1
:10072000D4D02146002016F073FA06460EB90020F8
:1007300003E00021606816F087FB05464FF00008D3
:1007400023E02868D0B1287A00F08000B0B9287A78
:1007500018B1287A217A884210D16868E060204672
:1007600029688847207EC0F3400008B1012099E73E
:10077000207E00F0010008B1002093E708F1010895
:100780004146606816F060FB05460DB1012ED8D0D9
:10079000012E11D16068406870B12046FFF72AFF32
:1007A00050B16068406860602046FFF768FF064609
:1007B000012E01D0002075E7304673E72DE9F043A4
:1007C0008046DDE9074521B92A7022701A70BDE81C
:1007D000F0834FEA282000F00209B9F1000F04D09D
:1007E00000BF99462B464D4600BF00F00409B9F101
:1007F000000F04D000BFA1462C464D4600BF00F0BC
:100800000609B9F1000F09D100F00109B9F1000F93
:100810000ED100BF994623464C4609E000F001097D
:10082000B9F1000F04D000BF994623464C4600BFE3
:1008300022706FEA010909F0FF0602FB06F74FEA92
:10084000272985F8009008F0FF0C00F00109B9F1A4
:10085000000F0DD1BCF1000F02D14FEA012905E0D4
:10086000CCF1000909F0FF0909FB01F94F4601E04D
:1008700001FB0CF73E126FEA060909F0FF0602FBC6
:1008800006F74FEA272983F8009000BF9FE7000092
:100890002DE9FF4F87B005468B469146DDE914A64A
:1008A000584609F000FC0690584609F07BFB05907D
:1008B0001798012804D0022804D0032806D103E0A9
:1008C000494F08E0494F06E0494F04E000BF00BF30
:1008D0000BB0BDE8F08F00BF8EBB2888049028883D
:1008E0005246014602900A98B84703904FF000081C
:1008F00021E0002418E0BDF8100035F814108842FB
:100900000CD005EB44000088049005EB44000088FF
:100910005246014602900A98B847039005EB4400FE
:10092000BDF80C100180641C06988442E3DB05EBE3
:10093000490508F1010805988045DADB51E0FFE739
:1009400000200290288804903078FD2801DB504672
:1009500003E0307800FB0AF0000A0190019A049944
:100960000A98B84703904FF0000836E000242BE0C7
:10097000305D00B927E0315D0298814205D1BDF8B4
:10098000100035F81410884217D0305DFD2801DBC7
:10099000504603E0305D00FB0AF0000A019005EBD1
:1009A0004400008800900146019A0A98B8470390D5
:1009B000305D029035F81400049005EB4400BDF85A
:1009C0000C10018000BF641C06988442D0DB05EB4C
:1009D00049051698064408F1010805988045C5DBCD
:1009E00000BF00BF74E700008D780008BF790008E1
:1009F0002F7900082DE9FF4F89B004469246DDE9C2
:100A00001685F4F72FFA08900A9809F04CFB8146F6
:100A10000A9809F0C7FA8346002D78D1B8F1FD0F86
:100A20000CDB002707E04A4620460C990BF0CAFA77
:100A300004EB4A047F1C5F45F5DB7DE100BF00202D
:100A4000014602464FEAD20CBDF804306CF30403B1
:100A50004FEA910C0193BDF804306CF34A134FEA4E
:100A6000D00C0193BDF804306CF3CF230193BDF893
:100A700004C063460293BDF808100846079042463A
:100A800007990C980BF026FC06900C9904A802918B
:100A9000BDF80810C90A01FB08F10180BDF8081073
:100AA000C1F3451101FB08F14180BDF8081001F0C8
:100AB0001F0101FB08F1818000BFC8F1FF00039016
:100AC000002720E0002619E0BDF81C0034F81610BD
:100AD00088420DD004EB46000088079004EB4600E6
:100AE00000880290014604A8039A0BF07BFC069054
:100AF00004EB4600BDF818100180761C4E45E3DB80
:100B000004EB4A047F1C5F45DCDB15E1FFE7BDF821
:100B1000300000EB00400790B8F1FD0F6FDBA9F14A
:100B2000040006900027B4E0002614E02878FF288F
:100B300003D1BDF8300020800AE02A7820880146E1
:100B400004900C980BF0C6FB0590BDF814002080B3
:100B50006D1CA41C761C4E4503DA05F0030000282A
:100B6000E4D172E0286805900598401CA8B904F00B
:100B7000030048B1BDF830102180A01C0799016026
:100B8000BDF83010E18005E0204607990160079923
:100B9000416000BF08342D1D56E00598002851D053
:100BA0002878FF2803D1BDF8300020800AE02A7899
:100BB0002088014603900C980BF08CFB0490BDF844
:100BC000100020806D1CA41C2878FF2803D1BDF8DC
:100BD000300020800AE02A782088014603900C9893
:100BE0000BF078FB0490BDF8100020806D1CA41C55
:100BF0002878FF2804D1BDF8300020800BE04CE0BD
:100C00002A782088014603900C980BF063FB04902F
:100C1000BDF8100020806D1CA41C2878FF2803D18B
:100C2000BDF8300020800AE02A7820880146039031
:100C30000C980BF04FFB0490BDF8100020806D1C49
:100C4000A41C01E02D1D0834361D0698864289DD5E
:100C500014E02878FF2803D1BDF8300020800AE096
:100C60002A782088014604900C980BF033FB0590FD
:100C7000BDF8140020806D1CA41C761C4E45E8DBDA
:100C8000AAEB090004EB40041898A0EB0900054406
:100C90007F1C5F45FFF648AF4DE0002004902088A0
:100CA00006902088059000200390002740E0002651
:100CB00035E0287888B329780498814209D02878CB
:100CC000FF2801D1404603E0287800FB08F0000A25
:100CD000039029780498814205D1BDF8180034F8B2
:100CE0001610884214D00398FF2802D10C98059062
:100CF00009E004EB4600008802900146039A0C9834
:100D00000BF0E8FA05902878049034F81600069065
:100D100004EB4600BDF8141001806D1C761C4E4596
:100D2000C7DB04EB4A041898A0EB090005447F1CBC
:100D30005F45BCDB00BF00BF0DB0BDE8F08F2DE903
:100D4000FF4F85B081460C46DDE912A7F4F78AF81B
:100D5000804607BBB4F9026018E0B4F9005010E017
:100D6000CDF808A0BDF82000ADF8040030B2009026
:100D7000D8F800002BB2D0F81CC04946079AE047CB
:100D80006D1CB4F90400A842EADA761CB4F9060036
:100D9000B042E2DA2EE0204609F085F9834620468B
:100DA00009F000F90490002620E0002519E0785DA4
:100DB000B0B1785D00FB0AF0000A0290BDF8200097
:100DC000ADF804006088304400B2009021882944C6
:100DD0000BB2D8F80000D0F81CC04946079AE0478B
:100DE0006D1C5D45E3DB14980744761C049886422D
:100DF000DBDB00BF09B0BDE8F08F10B502460B4643
:100E000010681C68A04201D1012010BD0020FCE741
:100E100010B502460B46506820F040401C68A042C6
:100E200003D2506820F040401860002010BD2DE92A
:100E3000F04F89B0044600200890079011F0ACFEF6
:100E4000069006980068057ED4F820800027B946F1
:100E5000B4F91400002802DDB4F9140002E0B4F97A
:100E600014004042B4F91610002902DDB4F916103E
:100E700002E0B4F916104942884201DD012701E081
:100E80004FF00109CAE01021404617F0F3FDB0B958
:100E90004FF48071404617F0EDFD08B907B1C1E08D
:100EA0004FF40071404617F0E5FD18B9B9F1000F95
:100EB00000D0B7E0404616F035F88046AEE0CA46AE
:100EC000CDF814900497BB46404616F0A3F80646AA
:100ED00006F0010008B90020049006F0020008B9ED
:100EE0004FF0000B06F0040008B94FF0000A06F0BE
:100EF000080008B900200590404616F0B3F90390A9
:100F0000404616F027F80290404616F0B1F80190DE
:100F1000404616F025F900900398002802DC02985C
:100F2000002811DDBAF1000F03D0B4F91600A84271
:100F300006DA059840B1B4F916006942884203DC2C
:100F4000CDF820800C2007900198002802DC009842
:100F5000002811DD049818B1B4F91400A84207DA8A
:100F6000BBF1000F08D0B4F914006942884203DCD9
:100F7000CDF82080032007900398002801DC4FF073
:100F8000000A0298002801DC002005900198002842
:100F900001DC002004900098002801DC4FF0000BD9
:100FA000049818B1B4F91400A84215DABBF1000F87
:100FB00004D0B4F91400694288420DDDBAF1000F83
:100FC00003D0B4F91600A84206DA059878B1B4F94E
:100FD0001600694288420ADC0FB1032000E00C20B1
:100FE00094F83C1060F3030184F83C101AE04FF4CD
:100FF0008071404617F03EFD08B907B112E04FF48A
:101000000071404617F036FD18B9B9F1000F00D055
:1010100008E0404615F086FF804600BFB8F1000F9B
:101020007FF431AF00BF089858B194F83C1007988E
:1010300060F3030184F83C100898A0620021A182AB
:10104000E182089809B0BDE8F08F00002DE9FF4F5C
:1010500083B00446204616F0F1F80290029818B9C1
:10106000002007B0BDE8F08F41F6FF750021204653
:1010700017F05AF807460021204617F0FEF882467E
:10108000204615F008FE83464FF000086AE0A0688D
:10109000006850F828603949304617F0F6FC00B176
:1010A0005EE04FF48051304617F0E4FC002856D043
:1010B0004FF00009002001900298012804D0022876
:1010C00009D003282CD10EE0B6F91490A08A384438
:1010D00000B2019025E0B6F91890208BA0EB0A0031
:1010E00000B201901DE006F1140008F0B2FF00907C
:1010F00000EBD070B18A01EB60000FFA80F904F1C7
:10110000140008F0A6FFC01BA0EB0A00009000EB43
:10111000D070A18A394401EB600000B2019000E078
:101120001EE000BF069848440FFA80F904988145F4
:1011300014DB0598814511DC0199A9EB010108B286
:10114000002801DD014600E04142002D01DD2A4674
:1011500000E06A42914200DA054600BF00BF00BFCE
:1011600008F10108D84592D341F6FF70854201D1BC
:10117000002000E0684200B273E7000001000400B4
:101180002DE9FF4F83B00446204616F061F8029027
:10119000029818B9002007B0BDE8F08F41F6FF753E
:1011A0000021204617F02CF907460021204616F0B2
:1011B000DEFE8246204615F06EFD83464FF00008A5
:1011C0006AE0A068006850F828603949304617F096
:1011D0005CFC00B15EE04FF48051304617F04AFCF1
:1011E000002856D04FF000090020019002980128F5
:1011F00004D0022809D003282CD10EE0B6F91690AD
:10120000E08A384400B2019025E0B6F91A90608B6C
:10121000A0EB0A0000B201901DE006F1140008F0F6
:10122000A5FE009000EBD0704110F08A08440FFA40
:1012300080F904F1140008F099FEC01BA0EB0A002D
:10124000009000EBD0704110E08A3844084400B2AE
:10125000019000E01EE000BF069848440FFA80F9B4
:101260000498814514DB0598814511DC0199A9EBAF
:10127000010108B2002801DD014600E04142002DD5
:1012800001DD2A4600E06A42914200DA054600BFCD
:1012900000BF00BF08F10108D84592D341F6FF70A6
:1012A000854201D1002000E0684200B273E70000EF
:1012B000010004002DE9FF4F87B00E469046DDE99E
:1012C00014940021079817F02AFB06900021079834
:1012D00016F097FD0590F078C0F34000A8B1F078C3
:1012E00000F0010020B142F2D1710698884208D086
:1012F000F07800F0010040B942F2D17105988842BF
:1013000003D1F07820F00200F070F07800F00100D6
:1013100008B1964800E096480490F07800F001008B
:1013200008B9924800E09248824600206080A08080
:1013300020612080A060E060CDF80C8003990798C0
:1013400015F08BFC0546E0E00398404506D04FF4CD
:101350000001284617F08EFB00B1D9E085492846E8
:1013600017F093FB00287CD10021284616F02CFDB5
:1013700002900298002875D02069401C2061A08846
:10138000484400B2A080207D00F0010000286AD00F
:10139000216901EB8101880013F07EFB074600BF45
:1013A0001FB900BF00BF00BFFEE700BF1FB9039811
:1013B0000BB0BDE8F08FE06858B12069401E00EB2B
:1013C000800082003846E16813F083FCE06813F087
:1013D000DFFB2069401E00EB800047F82050F078CA
:1013E00000F0010058B14FF0000B41F202025946E3
:1013F000284617F0BBF80190019800B20BE04FF0BF
:10140000000B41F205025946284617F0AFF801904B
:10141000019800B200BF2169491E01EB810107EB71
:1014200081018880F07800F0010058B14FF0000B86
:1014300041F203025946284617F098F801900198A6
:1014400000B20BE04FF0000B41F20602594628466D
:1014500017F08CF80190019800B200BF2169491E75
:1014600002E03EE017E02CE001EB810107EB810197
:10147000C88002982169491E01EB810107EB8101B7
:10148000C86000212069401E00EB800007EB80004F
:101490000161E76015E02846049988470746F0781F
:1014A000C0F3400030B1B4F90400C1190A98814278
:1014B00000DD2DE0A08807EB0901084400B2A08000
:1014C00000BF2846D047B4F90010884202DD284604
:1014D000D04701E0B4F900002080A068401CA06063
:1014E00000BFF078C0F3800010B14FF0FF3000E093
:1014F00001200399084403900398002800DA07E0CC
:101500000399079815F0A9FB0546002D7FF41CAF41
:1015100000BFB4F90400002804DDA088A0EB090096
:1015200000B2A080206908B10A9801E0B4F9040073
:101530006080CDB10398404516D107988068006857
:10154000039950F82150F078C0F3800103AA07985E
:1015500001F015FA45B12846D04720802846049965
:10156000884760800120A060039821E7BB890208BA
:10157000856E0208010006002DE9F04F97B0044681
:1015800000BF00BF4FF0000BDE48028859462046DE
:1015900016F0ECFF0A900A98C6B200BFF0439DF81F
:1015A0005B1060F300018DF85B10B0089DF85B10D4
:1015B00060F341018DF85B10F0089DF85B1060F35B
:1015C00082018DF85B1000BFCF4802885946204643
:1015D00016F0CCFF0A900A98C0B28DF8580000BFF0
:1015E000CA4802885946204616F0C0FF0A900A9859
:1015F000C0B28DF8590000BFC54802885946204640
:1016000016F0B4FF0A900A98C0B28DF85A00002173
:10161000204616F008FB012800D100E000201590BC
:101620009DF85B0000F0010020B90021204616F073
:101630003AFD03E00021204616F0BBFE14909DF811
:101640005B0000F0010020B10021204616F02BFDC8
:1016500003E00021204616F0ACFE13909DF85B00DD
:1016600000F0010018B1204615F097FB02E020467B
:1016700015F074FB12904FF0000B41F23202594604
:10168000204616F073FF0A900A9800B2119000BF2E
:1016900041F610025946204616F068FF0A900A9853
:1016A000E18A0144119801EB000B204615F0EEFD94
:1016B000ABEB000000B210904FF0000B41F61202AD
:1016C0005946204616F052FF0A900A98A18A014412
:1016D000119801EB000B204615F0CEFDABEB00009E
:1016E00000B20F909DF85A709DF85B0000F0010069
:1016F00008B110A800E00FA805460021204617F009
:101700000EF90E900021204616F07BFB0D909DF8FF
:101710005B0000F0010040B142F2D1710D988842A7
:1017200003D1608CC0F3402068B19DF85B0000F0ED
:10173000010048B942F2D1710E98884204D1608C00
:10174000C0F3802000B90027159850B19DF85B00C8
:1017500000F0010028B90FB9012702E0012F00D1E4
:1017600000274FF0000800200C900B90002F49D06C
:101770009DF85B00C0F3800018B1A0684068401E6F
:1017800000E00020814617E000200A9005A9139888
:10179000CDE900014A4616A92046129BFFF78AFDB3
:1017A0008246BDF814101498084440440FFA80F89B
:1017B0000B98401C0B90D146A0684068484502DD5C
:1017C000B9F1000FE0DA0B9820B11498A8EB0000F3
:1017D0000FFA80F89DF85B0000F0010018B1204678
:1017E00015F0BCFA02E0204615F0D7FA83460CA8A3
:1017F000CDE900500B9803B24246594638461EF0D8
:1018000066FA00BF9DF85B00C0F3800018B1A068C5
:101810004068401E00E000208146159840B19DF8C8
:101820005B0000F0010018B92888404400B228800D
:101830004DE001200A9005A91398CDE900014A4620
:1018400016A92046129BFFF735FD8246159850B128
:101850009DF85B0000F0010028B92888BDF814103D
:10186000401A00B2288005AABDF94030DDE9121007
:10187000CDE90131CDE90302BDF93C0053464A46AA
:1018800016A900902046F5F787FBD146089813F07B
:101890007FF900200890159868B19DF85B0000F072
:1018A000010040B92988BDF8302014981044081A66
:1018B00000B228800AE02988BDF81400BDF8302065
:1018C000024414981044084400B2288000BFA06865
:1018D0004068484502DDB9F1000FAADA42F2D17141
:1018E0000E98884202D00D98884202D1204618F006
:1018F00038F800222B2120460EF054FF17B0BDE827
:10190000F08F0000680100206A0100206C010020B7
:101910006E0100202DE9FC5F044689469246207E38
:1019200000F0010008B1BDE8FC9FE56800264FF01B
:10193000010B0120019000BF85B9207EC0F3C000DB
:1019400000B956B9019800B9EDE72046C8470546E9
:101950004FF0000B0020019000E0E4E716B92E469E
:1019600006B9E0E7BBF1000F06D029462046D04774
:101970000546B54200D1D6E74FF0010B05B9DBE7CC
:10198000286816F0E3F800F0800000B1D4E72F6873
:1019900009E00121384617F06DF800B105E038463E
:1019A00015F0C0FA0746002FF3D100BF2FB1012177
:1019B000384617F05FF800B1BEE700BF00BFE0682F
:1019C000A84200D1AFE7E06890B1204600F00DFDDD
:1019D0000090E16808680F21009A0EF0E3FE0746C8
:1019E000012F00D09FE7E168086817F0E0FB00BF17
:1019F000E560204600F0F9FC0746E1683A460868D1
:101A00000E210EF0CFFE8046B8F1010F00D08AE71C
:101A1000E168086817F0CBFB206910B12046216906
:101A2000884700BF7FE7000000BF054A126802F048
:101A30004002002AF9D0C2B2014B5A607047000040
:101A4000001001402DE9F0410446204600F016FB4D
:101A5000054611480068001B461B0F480068401BE4
:101A60000D490860B6B1274661193246204613F089
:101A700030F906E0A068401BA060204600F0FEFAA6
:101A80000444054800688442F4D1B819294613F08B
:101A9000AEFA00BFBDE8F0815401002000B587B068
:101AA00000BF00BF002000904548006840F04000A3
:101AB000434908600846006800F04000009000BFFD
:101AC00000BF00BF00BF00BF0020009008460068B4
:101AD00040F0800008600846006800F08000009038
:101AE00000BF00BF00BF02200290012003900490BD
:101AF0000320059002A93348EFF7F2FF80200290FF
:101B000000200390012004900320059002A92E4894
:101B1000EFF7E6FFF6F75AF800BF00220221294846
:101B2000F0F7F2F800BF1420F6F71AFB00BF01220D
:101B300002212448F0F7E8F800BF3220F6F710FB46
:101B400000208DF80400012201A900F041F90122D2
:101B500001A9A42000F03CF916208DF80400012210
:101B600001A9802000F034F90C208DF80400012236
:101B700001A9882000F02CF9022201A9A12000F07F
:101B80002BF89DF80400302803D19DF805000328A8
:101B900007D09DF80500012803D09DF80500022814
:101BA0000BD19DF805009DF8042000EB022107A051
:101BB000EEF76EFC002007B000BD0120FBE700003F
:101BC0003038024000180240001C024043545020AC
:101BD00049443A25780D0A002DE9F04106460F46A2
:101BE0001546F6F7B9F87020F6F780F8F6F7FCF826
:101BF000F0B2F6F77BF8F6F7F7F8F6F7ADF87120E4
