:020000040800F2
:10000000D0FF002065030008574A00084F4A000847
:10001000534A0008B5270008715C00080000000082
:10002000000000000000000000000000A502000821
:10003000B92700080000000001030008ED57000880
:100040008903000889030008890300088903000860
:100050008903000889030008890300088903000850
:100060008903000889030008890300088903000840
:100070008903000889030008890300088903000830
:100080008903000889030008890300088903000820
:100090008903000889030008890300088903000810
:1000A0008903000889030008890300088903000800
:1000B00089030008890300088903000889030008F0
:1000C00089030008890300088903000889030008E0
:1000D00089030008215C00088903000889030008DF
:1000E00089030008890300088903000889030008C0
:1000F00089030008890300088903000889030008B0
:10010000890300088903000889030008890300089F
:1001100089030008890300081558000889030008AE
:10012000890300088903000889030008890300087F
:10013000890300088903000889030008890300086F
:10014000890300088903000889030008890300085F
:10015000890300088903000889030008890300084F
:10016000890300088903000889030008890300083F
:1001700089030008890300088903000800000000C3
:10018000890300088903000800F002F800F07BF8FA
:100190000AA090E8000C82448344AAF10107DA45E2
:1001A00001D100F070F8AFF2090EBAE80F0013F0B9
:1001B000010F18BFFB1A43F001031847D4250700AD
:1001C000F42507000A444FF0000C10F8013B13F02F
:1001D000070408BF10F8014B1D1108BF10F8015BA0
:1001E000641E05D010F8016B641E01F8016BF9D193
:1001F00013F0080F1EBF10F8014BAD1C0C1B09D1EA
:100200006D1E58BF01F801CBFAD505E014F8016B5B
:1002100001F8016B6D1EF9D59142D6D370470000ED
:100220000023002400250026103A28BF78C1FBD8FF
:10023000520728BF30C148BF0B60704766293FF0A6
:10024000348067293FF03180642900F09781782954
:1002500000F0D081732900F09487002070471FB50B
:100260003FF016F801F048F80400002000213EF0AD
:10027000B1F9401C6060002000213EF095F9E0607B
:100280001FBD10B510BD01F02BF91146FFF7E7FFB8
:1002900035F034FF01F0CEFB03B4FFF7F2FF03BCEF
:1002A00009F07CFE2C4B19680868B0E8F04F80F329
:1002B0000988BFF36F8F4FF0000080F311887047FB
:1002C0000000000008480068006880F308884FF0CC
:1002D000000080F3148862B661B6BFF34F8FBFF39E
:1002E0006F8F00DF00BF00BF08ED00E0DFF80C00FB
:1002F000016841F470010160704700BF88ED00E0C3
:10030000EFF30980BFF36F8F134B1A681EF0100FC5
:1003100008BF20ED108A20E9F04F106009B44FF0BB
:10032000500080F31188BFF34F8FBFF36F8F3DF004
:100330005FF94FF0000080F3118809BC1968086864
:10034000B0E8F04F1EF0100F08BFB0EC108A80F339
:100350000988BFF36F8F7047A4000020EFF305807A
:10036000704700000C48016841F4700101600B48BF
:1003700080470B480047FEE7FEE7FEE7FEE7FEE7A3
:10038000FEE7FEE7FEE7FEE7FEE700000548064958
:10039000044A064B7047000088ED00E00158000851
:1003A00089010008D0EF0020D0FF0020D0EF00200E
:1003B000704753EA020C00F069802DE9F04B4FF0D2
:1003C0000006002B1FBFB3FA83F503FA05F424FAE5
:1003D00005F65E4012BF1643B2FA82F502FA05F442
:1003E000C5F120051EBF22FA05FC44EA0C042035A5
:1003F00056EA044C4FEA144418BF641C4FF000083E
:100400004FF00009904271EB030C39D3002919BF5A
:10041000B1FA81F701FA07F6B0FA80F700FA07F6A9
:10042000C7F120071EBF20FA07FC46EA0C0620375A
:10043000B6FBF4FCA7EB0507103F07F01F0BCBF151
:1004400020060CFA0BFB2CFA06F644BFB346002636
:10045000202FA4BF5E464FF0000B5BEA060C08BFDE
:100460004FF0010B19EB0B09ABFB027C48EB0608C4
:10047000C01B06FB02CC0BFB03CC71EB0C01C1E7EC
:100480000B46024641464846BDE8F08B13B54FF097
:1004900000004FF00001AFF30080BDE81C40704742
:1004A00010B54C1084EA530404D54042C1F1000158
:1004B00038BF491E1B4204D55242C3F1000338BF66
:1004C0005B1EFFF776FF14F0804F04D04042C1F16D
:1004D000000138BF491E14F0004F04D05242C3F14E
:1004E000000338BF5B1E10BD0FB4044910B503AA4A
:1004F000029800F04BFE10BC5DF814FB14000020C5
:100500000FB41CB5074B06AA7B44694600900598BA
:1005100000F00DFE0020694600F01CFE1CBC5DF8DA
:1005200014FB0000490C000070B50C460546012A7A
:1005300005D02878800600D5EA69002302E001236F
:1005400005E05B1C934202D2E05C0028F9D1A86967
:10055000E618C01AA861286A184428622846AFF332
:10056000008004E0D5E9012114F8010B9047B44262
:10057000F8D32846AFF3008070BD00002DE9F041AC
:100580000646002410687529314616A510D0AFF331
:100590000080002802DA404213A507E031688A078C
:1005A00001D512A502E0490704D511A5012401E0F7
:1005B000AFF3008000210A2206F1240709E0B0FB16
:1005C000F2FCB0FBF2F302FB1C003030785418460A
:1005D000491C0028F3D123462A463046BDE8F041A5
:1005E00000F038BB000000002D0000002B000000D0
:1005F0002000000070B504460D4621461068AFF398
:1006000000802188090502D50F4A7A4402E00E4A8B
:100610007A440E32002104F1240305E000F00F06B5
:100620000009965D5E54491C0028F7D1207800230C
:10063000000704D5702D02D009B1022311322046E3
:10064000BDE8704000F006BB241507002DE9F05FFF
:10065000894604464FF0000ADFF874B1FB44C0F845
:1006600020A02046E1688847002874D0252806D0BD
:10067000D4E901219047206A401C2062F1E700265E
:100680005F462046E16888472028054607DB312D74
:1006900005D2781910F8200C08B10643F1E7B0072D
:1006A00001D526F00406C4F81CA00027C4F818A041
:1006B0002A2D09D0284607F09CFB38B304EB8708A5
:1006C000303DC8F8185019E059F8041B204604EBD7
:1006D00087029161E1688847012F054618D1E069DA
:1006E000002820DA26F020061DE0D8F8180000EBDC
:1006F000800005EB40003038C8F818002046E1685B
:100700008847054607F075FB0028EED1012F0AD077
:100710002E2D08D12046E16888477F1C0546022F10
:1007200046F02006C4DBA069002803DA404246F008
:100730000106A061F00701D026F010066C2D0BD049
:10074000682D09D04C2D39D06A2D35D0742D35D077
:100750007A2D33D016E038E0E1682F4620468847EE
:10076000B842054609D16C2F26D04FF48060E1686D
:10077000064320468847054604E06C2F1AD04FF404
:10078000807006430DB3A5F14100192802D8203529
:1007900046F400664A462946204626604E46FFF744
:1007A0004DFD80B101280BD0F61D26F0070000F1A9
:1007B000080956E74020E4E78020D8E70020D6E784
:1007C00006F104094DE7284652E7206ABDE8F09F8C
:1007D000FA1407000EB5054614460E4613A000F0A5
:1007E00044FD284600F041FD16A000F03EFD3046D5
:1007F00000F03BFD15A000F038FD00218DF80B1036
:100800000A210DF10A008DF80A1008E094FBF1F2BC
:1008100001FB124294FBF1F4303200F8012D002C60
:10082000F4DC00F022FD00F015FD00002A2A2A2049
:10083000617373657274696F6E206661696C65645B
:100840003A2000002C2066696C6520002C206C6921
:100850006E65200030B505460B462A4613F8014B5D
:1008600012F8010B08B1A042F8D01CB1002802D048
:100870006D1CF1E7284630BD40EA0103024630B561
:100880009B0710D14FF0013400E008C208C91D1BBE
:100890009D4315EAC41FF8D013F0FF0102F8011BB5
:1008A0000DD01B0AF8E711F8013B002B02F8013BC1
:1008B00005D011F8013B002B02F8013BF3D130BD0C
:1008C00010B5431C02E010F8011B71B18107FAD189
:1008D0004FF0013202C88C1A8C4314EAC211F9D0CD
:1008E000C01A0A0603D0C01E10BDC01A10BD0A04EB
:1008F00001D0801E10BD0902FCD0401E10BD421E5A
:1009000012F8013F002BFBD111F8013B002B02F83C
:10091000013BF9D17047032A40F2308010F0030CFC
:1009200000F0158011F8013BBCF1020F624498BF42
:1009300011F801CB00F8013B38BF11F8013BA2F1DF
:10094000040298BF00F801CB38BF00F8013B11F05A
:10095000030300F06780083AC0F0088051F8043BB8
:10096000083A51F804CBA0E80810F5E7121D5CBF67
:1009700051F8043B40F8043BAFF30080D20724BF9A
:1009800011F8013B11F801CB48BF11F8012B24BF2E
:1009900000F8013B00F801CB48BF00F8012B70477D
:1009A000431A28BF9A427FF6B6AF032A1044114477
:1009B00040F2268010F0030F1EBF11F8013D521EB9
:1009C00000F8013D10F0030F7FF4F6AF11F00303C0
:1009D00000F06884083AC0F00B8051F8043D083AF2
:1009E00051F804CD40F8043D40F804CDFFF7F3BFC3
:1009F000121D5CBF51F8043D40F8043DAFF3008088
:100A0000D20724BF11F8013D11F801CD48BF11F8FC
:100A1000012C24BF00F8013D00F801CD48BF00F8CB
:100A2000012C704710B5203AC0F00B80B1E8185087
:100A3000203AA0E81850B1E81850A0E81850BFF4C8
:100A4000F5AF5FEA027C24BFB1E81850A0E8185067
:100A500044BF18C918C0BDE810405FEA827C24BFBB
:100A600051F8043B40F8043B08BF7047D20728BF49
:100A700031F8023B48BF11F8012B28BF20F8023B98
:100A800048BF00F8012B704702F0FF0343EA03223E
:100A900042EA024200F002B84FF000020429C0F01E
:100AA000128010F0030C00F01B80CCF1040CBCF1A0
:100AB000020F18BF00F8012BA8BF20F8022BA1EBF2
:100AC0000C0100F00DB85FEAC17C24BF00F8012BD7
:100AD00000F8012B48BF00F8012B70474FF00002CF
:100AE00000B5134694469646203922BFA0E80C5024
:100AF000A0E80C50B1F12001BFF4F7AF090728BFFF
:100B0000A0E80C5048BF0CC05DF804EB890028BF7A
:100B100040F8042B08BF704748BF20F8022B11F0A3
:100B2000804F18BF00F8012B704700004FF0013CC8
:100B300050F8042B51F8043B9A4221D1A2EB0C034C
:100B4000934313EACC1317D150F8042B51F8043B0C
:100B50009A4215D1A2EB0C03934313EACC130BD1A9
:100B600050F8042B51F8043B9A4209D1A2EB0C0334
:100B7000934313EACC13DBD04FF00000704700BF63
:100B8000D01A01BAB1FA81F101F0180122FA01F08C
:100B9000CB40C1F12001DBB2C0B2C01A2CFA01F384
:100BA000D11A914311EAC311E6D1704770477047DB
:100BB0007047704730B5B0F10A024FEA900E71F1FC
:100BC00000034EEA817EB0EB0E0061EB91014FEA2B
:100BD000101E4EEA017E10EB0E0041EB11114FEAA0
:100BE000102E4EEA016E10EB0E0041EB11214FEA80
:100BF000104E4EEA014E10EB0E0041EB1141401831
:100C000041F100014FEAD00040EA41704FEAD101C2
:100C100010EB80054FEA810444EA907444EB010430
:100C20006D1944EB0404521BA3414FF0000348BF6D
:100C30000A3200D530BD401C41F1000130BD10B575
:100C400000F05EFB006810BD10B5044600F058FBD4
:100C5000046010BD2DE9F0470D46994692460446C2
:100C600000F124080168880604D5E06921F010012C
:100C7000216000E00120A84201DD471B00E00027C1
:100C8000A1697A1902EB0900081AA0612078C00650
:100C900002D42046AFF30080002608E0D4E9012109
:100CA0001AF806009047206A401C761C20624E45C8
:100CB000F4DB2078C0060AD52046AFF3008006E0BA
:100CC000D4E9012130209047206A401C2062381E60
:100CD000A7F10107F4DC07E0D4E9012118F80500C9
:100CE0009047206A401C2062281EA5F10105F3DC14
:100CF0002046AFF300802078000602D50220BDE830
:100D0000F0870120FBE770472DE9FF4F0C461E4698
:100D10004FF0FF378BB0D2E90001DDF860800A9018
:100D20008A46C1F30A5505B93D46002108464FF0F1
:100D30000000BAF1000F00F4400005DA00EB80007B
:100D40004FF4400101EA50004FEA9059B9F1010F08
:100D500000DDB9460A9850EA4A000ED044F6105019
:100D6000A5F2FF3545432F14B8F1000F1ED0754290
:100D7000291E1EDDC9F100021CE0B8F1010F4FF081
:100D8000000001D0302103E0F24305E02154401C73
:100D9000B042FBDB30460022002121540B99C1F800
:100DA0000880C1E900200FB0BDE8F08FBD1B6D1CAD
:100DB000DEE74A4600DA694206A800F00FFB06AB00
:100DC00093E8070003AB83E8070050460A9901F057
:100DD000BCF88DE80700A0F500501F38009003987C
:100DE000002D0ADD42F21F014A460844002303A9F0
:100DF0000390684601F068FB09E0A0F500504A4600
:100E00001F38002303A90390684601F087FB8DE893
:100E100007000004000C03D04FF0FF30410800E051
:100E20001046B8F1000F03D00022009215461EE0D4
:100E3000751E05D4FFF7BEFE303262556D1EF9D522
:100E4000B3460122084302D000227F1C04E0207830
:100E5000302801D100227F1E002A099784D01DE08E
:100E6000112D07DAFFF7A6FE303262556D1C50EAED
:100E70000102F5D1084302D00098C8B10EE000216C
:100E8000681E05E0235C625C63542254401E491CCA
:100E90008142F7DBAB46A81B401E0990002004F8F6
:100EA0000B000B98099AC0F80880C0E9002B7AE77C
:100EB00011264FF0000857E72DE9F04F8846044609
:100EC000D21D22F0070191B0D1E90001CDE90A015C
:100ED00004F0D0FE02460B98C00F01D02D2007E091
:100EE0002068810701D52B2002E0202101EAC00003
:100EF000032A099001D0072A05DB03464146204614
:100F000000F00CFA0BE12078800601D5E06900E0E2
:100F10000620B8F1650F814606D0B8F1660F18D0EB
:100F2000B8F1670F70D131E00020B9F1110F0090D6
:100F300001DB112301E009F101030AAA01A90CA8B0
:100F4000FFF7E2FEDDE90C70002609F1010583469A
:100F500047E001204B4600904FF000470AAA01A944
:100F60000CA8FFF7D1FEDDE90DB00C995D46002617
:100F700010B909F101000D18B9EB050003D4C0F157
:100F8000FF3609F10105A5EB09002BE0B9F1010FCE
:100F900001DA4FF001090020B9F1110F0090484625
:100FA00001DD112300E003460AAA01A90CA8FFF7FE
:100FB000ABFEDDE90C704D46002683462078000725
:100FC0000AD4AB4500DA5D4601A8012D04DD4119C4
:100FD00011F8011C302907D04F4502DA17F1040F30
:100FE00004DA012082460FE06D1EEEE7002F02DCDE
:100FF000ED1B3E4403E0781CA84200DD7D1CB81BBD
:1010000000F1010A4FF000472078000703D4AA45F9
:1010100001DB4FF0FF3A0021B7F1004F0DF143081B
:101020008DF8431024D002202B23002F01DA7F42B9
:101030002D230A21021EA0F1010000DC5FB197FB05
:10104000F1FC97FBF1F201FB1C7C17460CF1300C14
:1010500008F801CDEEE7A8F1010003702188090529
:1010600001D5452100E06521A0F1010800F8011C2F
:1010700009980FA9A1EB0807FF1D00B10120411934
:1010800001EBEA70A1693844081A401EA06120787B
:10109000C00602D42046AFF30080099828B1D4E9F5
:1010A00001219047206A401C20622078C00622D58A
:1010B0002046AFF300801EE0002E04DBB34502DDC6
:1010C00001A8805D00E03020D4E901219047206A2A
:1010D000401C2062761CAAF101005FEA000A0AD1D6
:1010E00000F00AF9C0680168405CD4E9012190472A
:1010F000206A401C2062281EA5F10105DCDC07E007
:10110000D4E9012118F8010B9047206A401C2062A5
:10111000381EA7F10107F3DC2046AFF3008003205F
:1011200011B041E601694A1C02610878704700B5B8
:101130008FB0CDE901310021059105497944CDE910
:10114000031011466846FFF781FA0FB000BD00009A
:10115000E5FFFFFF0A6802F8010B0A60704710B54F
:10116000436913B1AFF3008001E0FFF7DDF901201F
:1011700010BD127800F124010A7000224A70012289
:10118000EDE711684FF0FF32E9E70000074B70B55B
:101190000D467B44FFF7CBFF0446284600F090F94C
:1011A00010B14FF0FF3070BD204670BD4F4C0100B4
:1011B0000FB4002300B589B00CA900910B99CB6046
:1011C000214B7B440693214B7B44079304236FF010
:1011D0000042CDE901321E4A7A446B46089202462B
:1011E00000203EF0C4F809B05DF814FB70B5064667
:1011F0004FF0FF3015460C46324686B00091CDE9DF
:10120000010169460020049004A8FFF7D1FF0246BF
:101210000498211825B108B1084600E0204628604E
:10122000049800280DD0002A02DD0098884208D0DA
:101230003246081B69460094CDE9010404A8FFF773
:10124000B7FF06B070BD0000D7010000EF0100003D
:101250002D01000010B5002000F036F9FFF711F85D
:10126000BDE81040012008F099BE10B5044602E028
:10127000641C08F095FE20780028F9D110BD431AAF
:1012800028BF9A427FF6CEAB104410F0030F1144F2
:101290001EBF11F8013D521E00F8013D10F0030F72
:1012A0007FF4F6AF103AC0F00A8010B531E918505B
:1012B000103A20E91850BFF4F9AFBDE810405307C9
:1012C00024BF31E9081020E9081044BF51F8043D5B
:1012D00040F8043D12F0030F08BF7047D20728BF43
:1012E00031F8023D48BF11F8012C28BF20F8023D1B
:1012F00048BF00F8012C70470048704790EF00206D
:101300000048704770EF002010B5044600F00EF959
:101310000068005D00F0010010BD00002DE9F04103
:101320001F46044603260168072A01F4006004DB17
:1013300008B116A505E016A503E008B115A500E063
:1013400015A521F010002060A069C01EA0610FB19A
:10135000401EA0612046AFF300804FB1D4E90121C7
:1013600038469047206A401C2062C01C206206E07C
:10137000206AFAE7D4E9012115F8010B9047761E9F
:10138000F8D22046AFF30080BDE8F0814E414E0018
:101390006E616E00494E4600696E6600426842B159
:1013A000016811F8013B23B1521EC0E90012184632
:1013B00070470121C160881E704742685AB1C368F6
:1013C000016843B983688B4205D0491E521CC0E9AD
:1013D0000012002070474FF0FF3070472DE9F047B2
:1013E000814616468AB0354878440DC88DE80D0010
:1013F00032487844801C03AC0DC884E80D0041F6E7
:101400009B300844372190FBF1F290FBF1F5A5F1F8
:10141000800501FB12041B3C02D56442012000E060
:101420000020DFF898A080460027FA44AAF1BE0AFF
:101430000EE0E0070AD03246684607EB4701012379
:101440000AEB810101F06AF88DE8070064107F1C47
:10145000002CEED1194F7F44AE3F19E0E80715D0BC
:1014600007EB04100DF1180A90E80E008AE80E0050
:10147000C068F04201D1981908903246012306A9AC
:1014800003A801F04BF803AB83E807006D10641C60
:10149000002DE3D14FF0010332466946B8F1000F49
:1014A00003A802D001F010F801E001F037F8C9E913
:1014B0000001C9F808200AB0BDE8F087480A070013
:1014C000007B00F08000704710B500F0C1FABDE865
:1014D000104000F0B8BA00000048704770EF0020DC
:1014E0007546FFF7F9FFAE4605006946534620F002
:1014F0000700854618B020B5FEF748FFBDE820403C
:101500004FF000064FF000074FF000084FF0000BBF
:1015100021F00701AC46ACE8C009ACE8C009ACE872
:10152000C009ACE8C0098D467047000010B5FFF750
:10153000E3FE001D10BD00BF9DD003002DE9FF4F4D
:1015400006468BB00878FF2806D0491C2D2805D008
:1015500000244FF0000908E000200CE00124F8E727
:1015600009EB8903491C00EB43090878FF28F7D1F0
:1015700014B1C9F100008146107800252C46AA4616
:1015800029462D2801D02B2804D1521C2D2813D0F8
:10159000002082468B461078FF280FD04FF0000CB9
:1015A0000A21521CA5FB017804FB018105FB0C11EB
:1015B000C5194BEB0104EEE70120EAE700210846DC
:1015C0004FF00000BAF1000F02D000EB800040089D
:1015D000C0F38157012F01DD4FF0FF370E9955EA17
:1015E000040009EB01080BD04FF0020918F5FA7F4F
:1015F00016DA4FEACA70002F706008DD012007E09C
:101600004FEACA70C6E900B00FB0BDE8F08F002005
:101610003060FFF775FEC0F800901821084616E00C
:10162000B8F5FA7F18DD002F02DAF748784401E0B8
:10163000F6487844D0E90010C6E9001040EACA70C4
:101640007060FFF75DFEC0F80090142108460FB0EF
:10165000BDE8F04F3DF026BE002108464FF00000E7
:10166000B8F10001099002DAC7F1000200E03A4641
:1016700001DAC8F1000106A8FFF7B0FE06AB93E857
:10168000070003AB83E8070044F23E005BEA040175
:101690000090584604D144F21E012C465D4600914C
:1016A000210C0904014306D10099240444EA15449D
:1016B0002D041039009104F07F41014306D10099B7
:1016C000240244EA15642D020839009104F07041A7
:1016D000014306D10099240144EA15742D01091F24
:1016E000009104F04041014306D10099A40044EA6E
:1016F0009574AD00891E009104F00041084304D1A7
:1017000000986D196441401E00904FF001033A4665
:101710006846B8F1000FCDE9014503A902DD00F0EC
:1017200012FF01E000F0E5FEBAF1000F04460D469D
:1017300001D084F00044002108464FF000000999D0
:1017400040F2FF77484010F00C0F07D124F0004022
:10175000284303D0C4F30A50B84212D1FFF7D0FD9A
:10176000C0F80090C4F30A50B8420AD1A84878449F
:10177000D0E90010C6E9001004F000410843706091
:1017800042E7C6E900543FE72DE9FF4F1F464FF0FF
:10179000000A4FF0FF38454691B0D7E90146CDF831
:1017A0003CA0FFF7A9FDC0680168405C1090B969D2
:1017B00012986D1C8847396A814688470028F6D1FF
:1017C000B9F1FF3F0AD0002E24F4D06411DDB9F145
:1017D0002B0F08D0B9F12D0F0BD102E0404615B008
:1017E00013E744F48064B96912986D1C8847761E2B
:1017F0008146600504A901D52D2000E02B20002E94
:1018000001F1010B0DF130088DF810003FDDB9F149
:10181000690F08D0B9F1490F05D0B9F16E0F02D0A8
:10182000B9F14E0F1CD13B4601A8009580E850024B
:10183000DDE912126FF002003DF09DFDC11CCED11A
:101840000EE0B96912986D1C884781461398761E80
:1018500044F4007405600F98401C002E0F9016DDB4
:10186000B9F1300FEDD0B9F1780F02D0B9F1580FBE
:101870000DD10F9801280AD13B46CDE90054DDE98E
:101880001212001F02963DF074FDC11CA7D11099E1
:1018900089453ED144F0800406E01399681CAAF102
:1018A000010A44F400740860B9696D1C1298761E30
:1018B000884730288146F0D02BE01099894505D122
:1018C000200603D4761E44F0800418E0484606F053
:1018D00090FA08B3761E0DF123018B4544F4007491
:1018E00008D2A9F130000BF8010B200607D5AAF1A8
:1018F000010003E0200602D40AF101008246A0059F
:1019000002D51399681C0860B96912986D1C884744
:101910008146002ED1DC53E0002E51DDB9F1650F78
:1019200002D0B9F1450F4BD1A00549D5B9696D1C5D
:101930001298761E24F440748847002E81460CDDF0
:101940002B2804D0B9F12D0F07D144F48074B96964
:1019500012986D1C8847761E8146E00501D52D2121
:1019600000E02B2108F8011BCDF8008021E0761E55
:101970000DF13901884544F400740CD2A9F130000E
:1019800010F0FF0088F8000002D10099884509D9BD
:1019900008F1010806E0E00501D51E4801E042F229
:1019A0000F708246B96912986D1C8847814613985A
:1019B0000560002E04DD484606F01BFA0028D6D14B
:1019C000F96912988847FF2053468BF8000088F881
:1019D000000000200A900B9004AA0CA90AA8FFF7A7
:1019E000ADFDA00502D46FF00100F8E614F0240F5D
:1019F00012D0E0071CD13868DDE90A12031D3B60F4
:101A00000068C0E9001213E0881107007A1107008E
:101A10003E100700F1D8FFFF0AA9684606F0B8F9A2
:101A2000E00705D13868009A011D3960006802603E
:101A30002846D4E610B50446AFF300802046BDE842
:101A40001040FEF729BC002801D008F0A7BA704763
:101A500010B5002102A000F013F8012010BD000015
:101A6000534947414252543A2041626E6F726D6150
:101A70006C207465726D696E6174696F6E00000030
:101A800070B505460C460A2000E06D1C08F088FA87
:101A900035B128780028F8D102E0641C08F080FAFB
:101AA00014B120780028F8D1BDE870400A2008F071
:101AB00077BA00002DE9FF4F1F464FF03C0987B071
:101AC0004FF00042DDE9141001F10108DDF858A0E3
:101AD00002EA4050039000200590834605460446E4
:101AE0000490B969461E08988847AAF1010A029035
:101AF000BAF1000F3BDD02982E2815D0102100F01E
:101B000016FA00282EDB4FF0010B0599014317D080
:101B1000B9F1000F0BDB4A46C11700F0F5F9054398
:101B20000C43A9F1040905E0012004900BE008B181
:101B300045F0010501200590049820B9361D02E00A
:101B4000049800B1361FB969089808F10108884760
:101B5000BBF1000FAAF1010A0290C9D00999C1F89E
:101B60000080C5E70298702808D0502806D0F9698F
:101B700008988847BBF1000F14D04FE00020029076
:101B80000120BBF1000F049009D0B969089808F151
:101B900001088847AAF10109B9F1000F07DCF969CA
:101BA000089888476FF001000BB0BDE8F08F2B2834
:101BB00004D02D280CD14FF0FF300490B96908985B
:101BC00008F101088847A9F10109B9F1000FE6DD24
:101BD000411CE4D00A2100F0AAF90028DFDB0299B9
:101BE00008F1010801EB810100EB41000290B969A5
:101BF000089888470A2100F09AF9099AA9F1010981
:101C0000B9F1000FC2F8008001DD0028E7DAF969B8
:101C1000089888470499029800FB016655EA040079
:101C200004D004F04041090002D006E0039898E097
:101C3000A40044EA9574AD00B61E04F0004108000B
:101C400002D16D196441761E159810F0240F03D04F
:101C50004FF00B095C4803E04FF028096FF07D005E
:101C60008246564507DAAAEB06018944B9F1410FCD
:101C700001DD4FF0410901200021A9F1010200F02E
:101C800043F9024628400B462140084301D0012178
:101C900000E00021501E029143F1FF312840214015
:101CA000084301D0012000E000200299834651EA58
:101CB0000B014FD0002108464FF00000039900F4BB
:101CC000400039B100EB80004FF4400100EBD070D0
:101CD00001EA60008015012802DD4FF0FF3000E0CE
:101CE00013D0401C36D0029860B3BBF1000F0CD16A
:101CF0004A460120002100F007F92840214008430E
:101D000001D0012000E00020E0B101204A4600217E
:101D100000F0FAF8034640190A4661412D1A8C4139
:101D200011D3B9F1400F09DD159810F0240F02D03E
:101D3000AAF1340603E0AAF1170600E0761C00259C
:101D40004FF0004406E05B1E42F1FF3220EA03053B
:101D500021EA0204CAF10100B04206DA1B490398E5
:101D600008430190002000900EE0039AC4F3D321B1
:101D7000E80A0A43164940EA44500A433146CDE98D
:101D80000002684606F00DF8159810F0240F0BD0ED
:101D90001598C00715D13868DDE90012031D3B60B6
:101DA0000068C0E900120CE002A8694605F0F0FFE7
:101DB0001598C00705D13868029A011D396000687E
:101DC00002604046F0E6000002FCFFFF0000F07FEA
:101DD0000000F03F2DE9FF4F92461D4685B04FF0C1
:101DE0000041DDE9124BDDE914727F1E01EA4B5020
:101DF000414940F0FF4940EA0108002122F020005B
:101E00004928049102D04E2828D04CE03BA001265E
:101E100007C88DE80700A9690698641C88477F1EDB
:101E2000014606D41DF8060018B121F020018142B8
:101E30000BD0E96906988847032E34D0082E32D09B
:101E40006FF0010009B0BDE8F08F761C032E01D0C1
:101E5000082EE0D1601CCAF80000DCE7A9690698EA
:101E6000641C88477F1E2AD420F02000412826D1F8
:101E7000A9690698641C88477F1E20D420F02000A2
:101E80004E281CD1A9690698641C88477F1E48F417
:101E9000002849F48009CAF8004001D4282806D057
:101EA000E969069888475FEACB7012D022E0A969F9
:101EB0000698641C88477F1E01D4002803DAE9696C
:101EC00006988847BCE72928F1D1641CCAF800406D
:101ED000E9E71BF0240F07D028680499031D2B6045
:101EE0000068C0E9001805E02868021D2A60006843
:101EF000C0F800902046A5E70000F07F494E464913
:101F00004E49545900000000B2F120030AD5C2F135
:101F1000200301FA02F120FA03F300FA02F041EA89
:101F20000301704700FA03F14FF0000070473A28B0
:101F300000D2303820F02002412A01D3A2F137002C
:101F4000884201D34FF0FF3070475FEA400C08BF72
:101F500091F0000F4FEA8C234FEAC12243EA51511E
:101F60004FEA1C5018BF00F5F0404FEA300018BF90
:101F700041F000415FEA6C5C00F02980BCF1FF3F5A
:101F800008BF40F080407047130C06BF12044FF0AA
:101F9000100C4FF0000C130E04BF12020CF1080CD1
:101FA000130F04BF12010CF1040C930F04BF920035
:101FB0000CF1020CD30F04BF52000CF1010C1146BE
:101FC0004FF00002A0F11F00A0EB0C00704711F0D1
:101FD000004F08BF704731F000413FF4D5AF0B0C04
:101FE00006BF09044FF0100C4FF0000C0B0E04BF9D
:101FF00009020CF1080C0B0F04BF09010CF1040CD1
:102000008B0F04BF89000CF1020CCB0F04BF4900F9
:102010000CF1010CCCF12003A0EB0C0022FA03F32D
:1020200002FA0CF241EA030100F10100704720F0CE
:102030007F4C80EA030023F07F47ACEB070303F5F6
:102040007C5300F0004003F1FF032DE980494FEA83
:10205000154B09B44FEA144325EA0B4E24EA034812
:102060000FF2042606EB132749083E785FEA320296
:1020700003FB0667C7F5000707FB06F64FEA543770
:102080004FEAD64606F1020607FB066CCCF1005C6F
:102090004FEA1C472CEA074C07FB06F40CFB06F53D
:1020A00004EB15464FEA961634BF00204FF000406F
:1020B0004FEAD13706FB07FC4FEA1C4C0CFB0BF731
:1020C000D21B03FB0CF761EB07010CFB0EF7B0EB27
:1020D000074072EB17420CFB08F734BFA2EB074234
:1020E000B2EB074261EB17414FEA0C444FEA91070C
:1020F00006FB07FC4FEA1C4C0CFB0BF7B0EBC74090
:1021000072EB573203FB0CF734BFA2EBC742B2EBC2
:10211000C74261EB57310CFB0EF7B0EBC70072EB17
:1021200057720CFB08F734BFA2EBC702B2EBC70231
:1021300061EB5771039F4FEA816141EA921104EB11
:10214000CC044FEAD1374FEA826206FB07FC42EA31
:1021500090124FEA80604FEA1C4C0CFB0BF7D21B2D
:1021600003FB0CF761EB07010CFB0EF7B0EB07402C
:1021700072EB17420CFB08F734BFA2EB0742B2EB3D
:10218000074261EB17414FEA8C554FEA910704EB88
:102190009C2406FB07FC4FEA1C4C0CFB0BF7B0EB36
:1021A000C74072EB573203FB0CF734BFA2EBC742B8
:1021B000B2EBC74261EB57310CFB0EF7B0EBC70037
:1021C00072EB57720CFB08F734BFA2EBC702B2EBFD
:1021D000C70261EB577115EB4C254FEA816141EA6B
:1021E00092114FEA82624FEAD13742EA901206FB1F
:1021F00007FC44F100044FEA80604FEA1C4C0CFBE2
:102200000BF7D21B03FB0CF761EB07010CFB0EF77E
:10221000B0EB074072EB17420CFB08F734BFA2EBA0
:102220000742B2EB074261EB174115EB1C154FEA71
:10223000813141EA92414FEA823242EA90424FEACA
:1022400080304FEA0C7644F1000448EA03434EEA3A
:102250000B484FF0000EB2EB080C71EB030724BFE4
:10226000624639464EEB0E0E4FF0000B00185241FD
:1022700049414BEB0B0BB2EB080C71EB03077BF105
:10228000000B24BF624639464EEB0E0E4FF0000B9A
:102290000018524149414BEB0B0BB2EB080C71EBB0
:1022A00003077BF1000B24BF624639464EEB0E0E4E
:1022B00051EA020718BF46F0010616EB0E7655F1FB
:1022C000000254F1000103D5BDE88901BDE8008892
:1022D000BDE88901BDE80048B619524141EB010152
:1022E000A3F10103704780807F7E7D7C7B7A7978C3
:1022F000777676757473727171706F6E6E6D6C6CCB
:102300006B6A6A696868676666656464636362616C
:102310006160605F5F5E5E5D5D5C5C5B5B5A5A59ED
:102320005958585757565655555554545353525259
:102330005251515050504F4F4F4E4E4D4D4D4C4CB1
:102340004C4B4B4B4A4A4A494949484848474747FA
:102350004746464645454544444444434343434237
:10236000424242414141000046EA0646A3F570530D
:102370004FEA164646EA42564FEAD22242EA415214
:1023800010B54FEAD121A3F1010300F02FF820F09E
:10239000004000F1020C00F0004701EB0050114634
:1023A000BCF5006F40EA070000D210BDBAF1000F83
:1023B0000AD01CB503B44FF004004FF004014FF0F5
:1023C00000000FBCBDE810404FF00001BBF1010F51
:1023D000B9BF04484FF0FF310348002140EA07002D
:1023E00010BD00BFFFFFEF7F0000F07F002B9C4679
:1023F00030D477002BD01CB54FEA370703B44FF029
:1024000010004FF01001BAF1000F06D0BCF1000F20
:10241000DCBF40F0080040F008014FF000000FBCA6
:10242000BDE810400BF1010BBBF1010F08BF5FEAE3
:10243000170722BF12F1010211F101014FF0004113
:1024400043F1000300F0004043EA00007047F9D375
:102450005708D0E746EA064613F1400F4FEA164602
:102460001FDD13F1200FDFBF16430A460021203382
:102470005B42BED0C3F1200746EA064602FA07F7E0
:102480004FEA164646EA0706C3F1200722FA03F28E
:1024900001FA07F721FA03F14FF0000342EA0702BD
:1024A000A7E746EA020646EA06464FEA164646EA25
:1024B0000106BCBF46EA0646360C4FF000034FF05B
:1024C00000024FF0000194E72DE9804C9A469346B4
:1024D00070B491E8380007C831EA400C48BF34EACC
:1024E000430C03D5FFF7A3FDFFF780FFF0BCBDE869
:1024F000008C2DE9804C9A46934670B491E83800E0
:1025000007C831EA400C48BF34EA430C03D5FFF753
:102510008EFDFFF729FFF0BCBDE8008C2DE9804C53
:102520009A46934670B491E8380007C810F0804F7F
:1025300008BF13F0804F03D100F01AF8FFF756FFE1
:10254000F0BCBDE8008C2DE9804C9A46934670B4EF
:1025500091E8380007C810F0804F08BF13F0804F93
:1025600003D100F005F8FFF7FFFEF0BCBDE8008CDA
:1025700020F07F4780EA030023F07F4C07EB0C0339
:10258000A3F57C5300F00040A3F1FE0392F0000F8E
:1025900000F0B38095F0000F00F077802DE901493D
:1025A0004FEA11404FEA144621EA004800FB06FCBE
:1025B00024EA064708FB06F607FB08F800FB07F7C6
:1025C00018EB06484CEB164C4FEA124B18EB074839
:1025D0004FEA15464CEB174022EA0B4E0BFB06FC6C
:1025E00025EA06470EFB06F607FB0EFE0BFB07F778
:1025F0001EEB064E4CEB164C4FF000061EEB074E42
:102600004CEB174B18EB0B0840F1000018EB0E0BCE
:1026100058EB000840F100008F1A4FF000013CBF5A
:10262000C943661B14BFB5EB040C00213CBFC94372
:10263000F61B4FEA17444EEA8E0E27EA04454FEA8E
:102640001C4704FB07622CEA074C05FB07F70CFB51
:1026500005F604FB0CFC16EB074642EB174216EBA3
:102660000C4642EB1C421BEB060658EB02024141B2
:1026700046EA9E0601D5BDE80189B619524141EBF3
:102680000101A3F10103BDE801894FEA14454FEAB6
:10269000114724EA054621EA074C05FB07F406FB2F
:1026A00007F70CFB06F105FB0CFC11EB074144EBB3
:1026B00017444FEA124711EB0C4144EB1C4422EA49
:1026C000074C05FB07F206FB07F70CFB06F605FBBC
:1026D0000CFC16EB074642EB174216EB0C4642EB9E
:1026E0001C456A1854F1000148BF7047B6195241A1
:1026F00041EB0101A3F10103704795F0000F37D0C2
:102700004FEA11424FEA144721EA024624EA074CF5
:1027100002FB07F106FB07F70CFB06F402FB0CFCBF
:1027200014EB074441EB17414FEA154714EB0C44F7
:1027300041EB1C4125EA074C02FB07F506FB07F7B6
:102740000CFB06F602FB0CFC16EB074645EB1745A7
:1027500016EB0C4645EB1C42121951F1000148BF23
:102760007047B619524141EB0101A3F101037047D3
:102770004FEA14454FEA114724EA054621EA074C7F
:1027800005FB07F106FB07F70CFB06F24FF000060E
:1027900005FB0CFC12EB074241EB174112EB0C421C
:1027A00051EB1C4148BF7047921841EB0101A3F166
:1027B0000103704700BFFEE77047000070B5044694
:1027C0001D460023B5F5804F13D154F822300C4834
:1027D0000340D1E9000640EA06108E6840EA062070
:1027E0008E8940EA06408E693043034344F8223024
:1027F00003E06FF0704044F82200002070BD00003C
:102800000000F0CF10B503460022086853F82020DE
:1028100012480240D1E901042043CC6820430C69EE
:1028200020434C6920438C692043CC6920430C6AC7
:1028300020434C6A20438C6A2043CC6A2043CC6BF3
:1028400020430C6B204302438868082801D142F0E2
:102850004002086843F82020002010BD8000F0FFEF
:1028600030B503460024501C53F8204004F0404487
:10287000D1E9000540EA05108D6840EA05208D8900
:1028800040EA0545088A401E45EA0055087D801E3D
:1028900045EA00608D6928430443501C43F82040FA
:1028A000002030BD70B50446A56D00F099F90646CC
:1028B00094F83500022808D08020606500BF002011
:1028C00084F8340000BF012070BD2068006820F04B
:1028D0001600216808602068406920F080002168A7
:1028E0004861206C08B9A06C28B12068006820F00D
:1028F0000800216808602068006820F00100216855
:1029000008600FE000F06CF9801B05280AD9202030
:10291000606500BF002084F8340000BF032084F805
:102920003500D1E72068006800F001000028E9D1F7
:1029300094F85C103F208840A86000BF002084F815
:10294000340000BF012084F835000020BCE70146B8
:1029500091F83500022803D0802048650120704797
:10296000052081F835000868006820F001000A6839
:1029700010600020F3E7000070B5044600F030F965
:1029800006462546681C10B104480078054400BF7F
:1029900000F026F9801BA842FAD370BD2400002065
:1029A000F8B502460B460025002400200021DEE099
:1029B000012606FA01F51E6806EA0504AC4275D147
:1029C0001E7906F00306012E04D01E7906F00306D8
:1029D000022E13D190684F000326BE40B0434F0033
:1029E000DE68BE4030439060506801268E40B043A0
:1029F0001E79C6F300168E40304350601E7906F0F3
:102A00000306032E09D0D0684F000326BE40B04312
:102A10004F009E68BE403043D0601E7906F003062A
:102A2000022E13D1CF0802F1200656F827004E07D8
:102A3000F70E0F26BE40B0434F07FF0E1E69BE4083
:102A40003043CF0802F1200646F8270010684F00F7
:102A50000326BE40B0431E7906F003064F00BE4079
:102A6000304310605E6806F08056B6F1805F7DD11D
:102A700000BF00260096404E366846F480463E4F22
:102A80003E603E46366806F48046009600BF00BFB2
:102A90003A4E8F0856F827008E07370F0F26BE4094
:102AA000B043374EB24202D1002624E05EE0354EFC
:102AB000B24201D101261EE0334EB24201D10226BC
:102AC00019E0324EB24201D1032614E0304EB24238
:102AD00001D104260FE02F4EB24201D105260AE0B3
:102AE0002D4EB24201D1062605E02C4EB24201D154
:102AF000072600E008268F073F0FBE4030431F4ED9
:102B00008F0846F82700264E3068A0435E6806F41A
:102B10008036B6F5803F00D12043214E3060361D0F
:102B20003068A0435E6806F40036B6F5003F00D179
:102B300020431B4E361D3060361D3068A0435E6852
:102B400006F48016B6F5801F00D12043144E0836D7
:102B50003060361D3068A0435E6806F40016B6F596
:102B6000001F00D120430E4E0C363060491C102946
:102B7000FFF41EAFF8BD00004438024008380140A1
:102B8000000002400004024000080240000C024025
:102B9000001002400014024000180240001C0240D5
:102BA000003C0140024613690B400BB1012000E0DC
:102BB0000020704710B5426921EA020302EA0104CD
:102BC00043EA0443836110BD0AB1816101E00B0453
:102BD0008361704701480068000C7047002004E0E2
:102BE00001480068704700001C000020034800688E
:102BF0000349097808440149086070471C00002017
:102C00002400002010B50A48006840F4007008490C
:102C100008600846006840F480600860032000F007
:102C20007FF80F2000F006F800F02AF8002010BD11
:102C3000003C024070B504460E4800784FF47A71AB
:102C4000B1FBF0F00C490968B1FBF0F5284601F042
:102C5000D7FB08B1012070BD102C07D200222146FD
:102C6000501E00F01EF80548046001E00120F2E764
:102C70000020F0E7240000200000002020000020B9
:102C8000704701460846002809DB00F01F030122B7
:102C90009A4043099B0003F1E023C3F8002100BFE1
:102CA00070472DE9F05F80460D461646002702F07A
:102CB000F9FF074639462A46334601F00700C0F1BE
:102CC000070ABAF1040F02D94FF0040A01E0C0F17B
:102CD000070AD14600F1040ABAF1070F02D24FF0F9
:102CE000000A01E0A0F1030AD4464FF0010A0AFAF3
:102CF00009FAAAF1010A0AEA020A0AFA0CFA4FF0E2
:102D0000010B0BFA0CFBABF1010B0BEA030B4AEACC
:102D10000B042146404602F0CDFFBDE8F09F0000C5
:102D200000BF00F00702064B19684FF6FF03194079
:102D3000044B0B4343EA0221014B196000BF70476B
:102D40000CED00E00000FA0570B504460D460CB924
:102D5000012070BD5848006800F00700A84209D261
:102D600055490D700846006800F00700A84201D0E0
:102D70000120EEE7207800F0020002281DD1207823
:102D800000F00400042805D14C48006840F4E050ED
:102D90004A490860207800F00800082805D1474813
:102DA000006840F46040454908604448006820F0ED
:102DB000F000A168084341490860207800F0010054
:102DC000A8B36068012807D13C4808380068C0F300
:102DD0004040B8B90120BCE76068022802D06068B2
:102DE000032807D1354808380068C0F3406048B967
:102DF0000120AEE7314808380068C0F3400008B948
:102E00000120A6E72D48006820F003006168084310
:102E10002A490860FFF7E4FE064609E0FFF7E0FEF6
:102E2000801B41F28831884202D9032091E707E0F4
:102E30002248006800F00C006168B0EB810FEDD112
:102E40001D48006800F00700A84209D91A490D7012
:102E50000846006800F00700A84201D0012078E78A
:102E6000207800F00400042807D11448006820F4FA
:102E7000E050E168084311490860207800F008003C
:102E8000082808D10D48006820F46040216940EA14
:102E9000C1000A49086000F03FF808490968C1F319
:102EA0000311074A515CC84006490860064800689B
:102EB000FFF7C0FE00204CE7003C0240083802400B
:102EC000AAF3030800000020200000200148006849
:102ED000704700000000002000B5FFF7F7FF04492D
:102EE0000968C1F38221034A515CC84000BD00005B
:102EF00008380240BAF3030800B5FFF7E7FF0449BA
:102F00000968C1F34231034A515CC84000BD00006A
:102F100008380240BAF303082DE9F04700240025E1
:102F20000026A1462548006800F00C0020B10428C6
:102F300005D008283AD105E0DFF8849039E0DFF8C1
:102F4000849036E01D48001F006800F03F041B48D5
:102F5000001F006800F4800078B11A481749091F63
:102F60000968C1F38811A0FB0170014622460023C5
:102F70003846FDF71EFA05460EE011480F49091FB5
:102F80000968C1F38811A0FB0170014622460023A5
:102F90003846FDF70EFA05460848001F0068C0F3E2
:102FA0000140401C4600B5FBF6F902E0DFF8109046
:102FB00000BF00BF4846BDE8F08700000838024067
:102FC0000024F40000127A00F8B504460CB9012080
:102FD000F8BD207800F00100002874D0F94800689E
:102FE00000F00C0004280DD0F648006800F00C003A
:102FF000082813D1F348001F006800F48000B0F5E2
:10300000800F0BD1EF4808380068C0F3404000281B
:1030100059D06068002856D10120D9E700BF606808
:10302000B0F5803F08D1E7480838006840F48030A8
:10303000E449083908601EE06068B0F5A02F0DD1A2
:10304000E0480838006840F48020DE49083908600C
:103050000846006840F4803008600CE0D948083821
:10306000006820F48030D7490839086008460068B5
:1030700020F48020086000BF606890B1FFF7B0FDC9
:10308000054606E0FFF7ACFD401B642801D903208C
:103090009EE7CC4808380068C0F340400028F1D0D3
:1030A00011E0FFF79DFD054606E0FFF799FD401B87
:1030B000642801D903208BE7C24808380068C0F3B0
:1030C00040400028F1D1207800F0020002285FD1B2
:1030D000BC48006800F00C0058B1BA48006800F025
:1030E0000C0008281CD1B748001F006800F48000BD
:1030F000B0B9B44808380068C0F3400020B1E068B7
:10310000012801D0012063E7AE480838006820F0AC
:10311000F800216940EAC100AA490839086037E08F
:10312000E06800B30120A8490860FFF759FD054693
:1031300006E0FFF755FD401B022801D9032047E7B1
:10314000A04808380068C0F340000028F1D09D482E
:103150000838006820F0F800216940EAC100994968
:103160000839086014E0002097490860FFF738FD2F
:10317000054606E0FFF734FD401B022801D9032075
:1031800026E7904808380068C0F340000028F1D1D5
:10319000207800F0080008282CD16069A8B101202F
:1031A0008A490860FFF71CFD054606E0FFF718FD99
:1031B000401B022801D903200AE782486C300068CE
:1031C000C0F340000028F1D014E000207F490860DF
:1031D000FFF706FD054606E0FFF702FD401B02284B
:1031E00001D90320F4E677486C300068C0F3400052
:1031F0000028F1D1207800F00400042870D10027C5
:1032000070483830006800F0805090B900BF00204E
:1032100000906C483830006840F08050694938317F
:1032200008600846006800F08050009000BF00BFB2
:1032300001276748006800F48070B0B964480068EE
:1032400040F4807062490860FFF7CAFC054606E05A
:10325000FFF7C6FC401B022801D90320B8E65C48F2
:10326000006800F480700028F2D000BFA068012838
:1032700008D154486830006840F001005149683175
:1032800008601DE0A06805280DD14E486830006830
:1032900040F004004B49683108600846006840F07F
:1032A000010008600CE047486830006820F0010029
:1032B0004449683108600846006820F0040008604E
:1032C00000BFA068A8B1FFF78BFC054609E0FFF737
:1032D00087FC401B41F28831884202D9032077E6FF
:1032E00026E0384868300068C0F340000028EED07F
:1032F00013E0FFF775FC054608E0FFF771FC401B83
:1033000041F28831884201D9032061E62D486830B6
:103310000068C0F340000028EFD1012F07D12948F1
:103320003830006820F0805026493831086000BFEE
:10333000A069002845D02348006800F00C00082848
:103340005DD0A069022845D100201F490866FFF71B
:1033500047FC054606E0FFF743FC401B022801D965
:10336000032035E6174808380068C0F3406000289D
:10337000F1D1D4E907010843616A40EA81110122D1
:10338000A06AC2EB500041EA00412C20005D41EAF6
:1033900000600C49091F086001200B490866FFF70F
:1033A0001FFC054606E0FFF71BFC401B022801D965
:1033B00003200DE6034808380068C0F34060002889
:1033C000F1D049E00838024000004742800E4742F1
:1033D00000700040002021490866FFF701FC054607
:1033E00006E0FFF7FDFB401B022801D90320EFE5B3
:1033F0001B480068C0F340600028F2D12CE0A069AF
:10340000012800D1E4E51648001D0668A0690128DE
:1034100020D006F48001E06981421BD106F03F0113
:10342000206A814216D147F6C0703040616AB0EB25
:10343000811F0FD106F440310122A06AC2EB500077
:10344000B1EB004F06D106F070612C20005DB1EBAE
:10345000006F01D00120BBE50020B9E50000474224
:1034600000380240F0B589B004460E46002703201C
:1034700084F83400606C032820D0B6F5805F04D156
:10348000A06B40F08050A0631CE0B6F5006F07D140
:10349000204602F0D5F80546A06B2843A06311E052
:1034A0003EB9204602F098F80546A06B2843A06379
:1034B00008E0A06B40F00060A06303E0A06B40F068
:1034C0008050A063A06B38B1174821688863012041
:1034D00084F83400012713E060680390A06804902A
:1034E000E0680590069660690790A069089006A8B4
:1034F00007C88DE80700206803A90EC901F0D1FABA
:103500004FF40071206801F047FB054635B10648CD
:1035100021688863A06B2843A0630127012084F8F9
:103520003400384609B0F0BDFF05400010B5024632
:10353000506E800F0870506EC0F383604870506EFC
:10354000C0F301608870506E000CC870B2F864005F
:10355000000A087192F864004871906E000DC880EE
:10356000906EC0F3034008726820805AC0F3C030E8
:1035700048726820805AC0F3803088726820805A70
:10358000C0F34030C8726820805AC0F3003008731E
:1035900000204873506C002836D16820805A80057E
:1035A000030DD06E43EA90700861D06EC0F3C26024
:1035B0000875D06EC0F302604875D06EC0F34250FB
:1035C0008875D06EC0F38240C875D06EC0F3C2302B
:1035D00008760869401C50650B7E506D03F00703A8
:1035E0009B1C01249C4060435065087A00F00F0347
:1035F000012098409065D2E915035B0A5843D065D5
:103600004FF40073136621E0506C012813D1682039
:10361000805C8006830AD06E43EA10400861086926
:10362000401C83025365536DD3654FF4007393655B
:10363000936D13660AE02E4813689863906B40F010
:1036400080509063012082F8340010BD6C20805AB5
:10365000C0F3803001F8190F6C20805AC0F3C610F7
:1036600048706C20805C00F07F008870106FC00F85
:10367000C870106FC0F341700871106FC0F38260A2
:103680004871106FC0F383508871106FC0F34050C1
:10369000C87100200872106FC0F30040487270209B
:1036A000805AC0F3C03088727020805AC0F38030D6
:1036B000C8727020805AC0F3403008737020805A5E
:1036C000C0F3003048737020805AC0F381208873A3
:1036D0007020805AC0F30120C8737020805CC0F352
:1036E000460008740120487419390020ADE7000035
:1036F000FF0540000246506C0860906C4860D06C3A
:103700008860106DC860506D0861906D4861D06D23
:103710008861106EC86100207047F8B5044600202B
:1037200000906946204601F03FFF054615B1A06BA9
:103730002843A0630098C0F343263046F8BD10B577
:1037400004460CB9012010BD94F8340020B90020C3
:103750002077204600F068F8032084F834002046E3
:1037600000F00CF808B10120EDE70020A063206311
:10377000012084F834000020E5E7000070B58AB02D
:10378000044600200490059006900790089076204B
:10379000099007A807C88DE80700206804A90EC98A
:1037A00001F07FF9064616B101200AB070BD002075
:1037B0001B490860206801F08EF901201849A039E2
:1037C000C1F8A000204601F089FE05463DB1012068
:1037D00084F83400A06B2843A0630120E5E720466D
:1037E00001F0FBFD05463DB1012084F83400A06BDB
:1037F0002843A0630120D8E74FF40071206801F04E
:10380000CBF905464DB1074821688863A06B284372
:10381000A063012084F83400C7E70020C5E700005A
:10382000A0802542FF05400010B586B004465949E6
:10383000206888427ED100BF002000905648006872
:1038400040F40060544908600846006800F40060D5
:10385000009000BF00BF00BF00BF002000904E4896
:103860001438006840F004004B49143908600846D9
:10387000006800F00400009000BF00BF00BF00BF60
:1038800000BF002000900846006840F00400086077
:103890000846006800F00400009000BF00BF00BFB1
:1038A00000BF00BF002000900846006840F0040000
:1038B00008600846006800F00400009000BF00BFE8
:1038C00000BF00BF00BF002000900846006840F025
:1038D000040008600846006800F00400009000BF83
:1038E00000BF00BF00BF00BF002000900846006876
:1038F00040F0040008600846006800F004000090F2
:1039000000BF00BF00BF00BF00BF002000900846FE
:10391000006840F0080008600846006800F00800F1
:10392000009000BF00BF00BF8815019002200290E8
:10393000012000E02BE00390022004900C20059071
:1039400001A91648FFF72CF84FF40070019001A967
:103950001248FFF725F84FF48060019001A90F4845
:10396000FFF71EF84FF40060019001A90B48FFF724
:1039700017F84FF48050019001A90848FFF710F89C
:103980000420019001A90648FFF70AF800BF06B01D
:1039900010BD0000002C01404438024000080240E5
:1039A000000C02402DE9FF4F89B004468B46994632
:1039B000DDF858A0FFF714F902900B9800905D46CF
:1039C000BBF1000F07D1A06B40F00060A0630120A5
:1039D0000DB0BDE8F08F94F8340001287ED10020AE
:1039E000A063009800EB0901E06D814205D9A06B4E
:1039F00040F00070A0630120EAE7032084F834005F
:103A000000202168C862606C012802D00098400242
:103A100000904FF0FF3003904FEA4920049090202F
:103A2000059002200690002007900120089003A92D
:103A3000206801F011F8B9F1010F07D902202063C5
:103A40002068009901F010F9804606E0012020630B
:103A50002068009901F024F98046B8F1000F0DD0DC
:103A6000754821688863A06B40EA0800A0630120C4
:103A700084F83400002020630120A9E7049E3AE086
:103A80002068406B00F40040E0B1DEB100200190FE
:103A900015E0206801F028F807462F706D1C761E8F
:103AA000380A28706D1C761E380C28706D1C761E26
:103AB000380E28706D1C761E0198401C01900198EC
:103AC0000828E6D3FFF78CF80299401A504502D235
:103AD000BAF1000F0FD15848216800E0A6E08863D2
:103AE000A06B40F00040A063012084F83400002067
:103AF000206303206CE72068406B40F22A310840C5
:103B00000028BDD02068406B00F48070D0B1B9F1BE
:103B1000010F17D9606C032814D0206801F080F9D8
:103B20008046B8F1000F0DD0434821688863A06B30
:103B300040EA0800A063012084F8340000202063DC
:103B4000012045E72068406B00F0080068B13A4862
:103B500021688863A06B40F00800A063012084F80E
:103B6000340000202063012032E72068406B00F021
:103B7000020068B1304821688863A06B40F0020001
:103B8000A063012084F834000020206301201FE797
:103B90002068406B00F0200068B1274821688863E6
:103BA000A06B40F02000A063012084F834000020C6
:103BB000206301200CE729E0206800F095FF07460C
:103BC0002F706D1C761E380A28706D1C761E380CFE
:103BD00028706D1C761E380E28706D1C761EFEF740
:103BE000FFFF0299401A504502D2BAF1000F0DD1E1
:103BF000114821688863A06B40F00040A063012059
:103C000084F83400002020630120E1E62068406B46
:103C100000F4001008B1002ECED140F23A502168D5
:103C20008863012084F834000020D1E6A06B40F0C6
:103C30000050A0630120CBE6FF0540002DE9F04FC6
:103C400089B00446894693469846FEF7C9FF02901C
:103C5000DA464D46B9F1000F07D1A06B40F0006085
:103C6000A063012009B0BDE8F08F94F8340001286A
:103C70007ED10020A0630AEB0801E06D814205D9E6
:103C8000A06B40F00070A0630120EBE7032084F8F4
:103C9000340000202168C862606C012801D04FEA1E
:103CA0004A2A4FF0FF3003904FEA482004909020BA
:103CB00005900020069007900120089003A9206835
:103CC00000F0CAFEB8F1010F07D920202063514649
:103CD000206801F0C3F8064606E010202063514634
:103CE000206801F0D7F8064666B15F48216888630E
:103CF000A06B3043A063012084F8340000202063CF
:103D00000120AFE7049F43E02068406B00F480404F
:103D100030B32FB3002001901FE0287800906D1C75
:103D20007F1E2878009941EA002000906D1C7F1EBC
:103D30002878009941EA004000906D1C7F1E287889
:103D4000009941EA006000906D1C7F1E6946206862
:103D500000F0E2FE0198401C019001980828DCD395
:103D6000FEF73EFF0299411A1298814203D200E009
:103D700074E0129860B93C4821688863A06B3043B6
:103D8000A063012084F8340000202063032069E749
:103D90002068406B40F21A3108400028B4D02068F7
:103DA000406B00F48070B8B1B8F1010F14D9606CA9
:103DB000032811D0206801F033F8064666B12A487E
:103DC00021688863A06B3043A063012084F834002D
:103DD00000202063012045E72068406B00F00800C8
:103DE00068B1214821688863A06B40F00800A06397
:103DF000012084F8340000202063012032E720688D
:103E0000406B00F0020068B1174821688863A06B1E
:103E100040F00200A063012084F8340000202063F9
:103E200001201FE72068406B00F0100068B10E48C9
:103E300021688863A06B40F01000A063012084F823
:103E400034000020206301200CE740F23A50216842
:103E50008863012084F83400002003E7A06B40F061
:103E60000050A0630120FDE6FF05400010B50446A8
:103E70000CB9012010BD606A38B96068B0F5827F66
:103E800000D105E00021E16102E0002121616161D2
:103E9000A06AB0F5005F00D100BF94F8510028B9C6
:103EA000002084F85000204600F050F8022084F8EA
:103EB00051002068006820F0400021680860A08858
:103EC00000F48270218901F404410843A18901F4BE
:103ED00000610843217C01F002010843217D01F0CB
:103EE00001010843218B01F400710843217F01F097
:103EF000380108432021095D01F080010843218D2C
:103F000001F400510843216808600421A06901EA16
:103F1000104094F8241001F0100108432168486013
:103F2000A06AB0F5005F03D1A08D80B2216808615E
:103F30002068C06920F400602168C86100206065C5
:103F4000012084F85100002094E7000010B586B0ED
:103F500004462A49206888424DD100BF00BF002096
:103F600000902748006840F0020025490860084694
:103F7000006800F00200009000BF00BF00BF00BF5B
:103F800000BF002000900846006840F00200086072
:103F90000846006800F00200009000BF00BF00BFAC
:103FA00000BF00BF002000900846006840F00200FB
:103FB00008600846006800F00200009000BF00BFE3
:103FC00000BF0820019002200290012003900220EF
:103FD00004900520059001A90A48FEF7E1FC102095
:103FE000019001A90748FEF7DBFC2020019001A900
:103FF0000448FEF7D5FC06B010BD000000300140BB
:1040000030380240000402402DE9F04F85B00446EC
:10401000884691461D460E9E002004900120029085
:104020000020019000BF94F85000012803D1022025
:1040300005B0BDE8F08F012084F8500000BFFEF706
:10404000CFFD074694F851B060680390AA46BBF1D3
:10405000010F0BD00398B0F5827F04D1A06810B98E
:10406000BBF1040F02D0022001902CE1B8F1000F47
:1040700003D0B9F1000F00D015B90120019022E161
:1040800094F85100042802D0052084F85100002043
:104090006065C4F83890E587A587C4F83080E58668
:1040A000A58620646064A06AB0F5005F0DD100BFF2
:1040B0002068006820F400502168086020680068CB
:1040C00040F400502168086000BF2068006800F0DC
:1040D0004000402805D02068006840F0400021687A
:1040E0000860E068B0F5006F56D1606810B1BAF1B1
:1040F000010F09D1206B00882168C860206B801CEB
:104100002063E08E401EE0863FE02068806800F07B
:10411000020002281CD1E08ED0B10298012817D1EC
:10412000206B00882168C860206B801C2063E08EB3
:10413000401EE08600200290E08E48B9A06AB0F5EB
:10414000005F05D12068006840F480502168086055
:104150002068806800F0010068B1E08F58B12068E5
:10416000C068A16B0880A06B801CA063E08F401E1C
:10417000E08701200290FEF733FDC01BB04204D35C
:10418000701C10B1032001909DE0E08E0028BCD18E
:10419000E08F0028B9D156E0606810B1BAF1010F84
:1041A00009D1206B007821680873206B401C2063C4
:1041B000E08E401EE08640E02068806800F002004B
:1041C00002281CD1E08ED0B10298012817D1206BB3
:1041D000007821680873206B401C2063E08E401E2D
:1041E000E08600200290E08E48B9A06AB0F5005F3A
:1041F00005D12068006840F480502168086020687C
:10420000806800F0010068B1E08F58B12068C06894
:10421000A16B0870A06B401CA063E08F401EE0877C
:1042200001200290FEF7DCFCC01BB04201D3701CE1
:1042300000B916B90320019045E0E08E0028BBD1FB
:10424000E08F0028B8D1A06AB0F5005F12D13346E4
:10425000012211462046009701F05CFA30B1606DF2
:1042600040F002006065032001902CE02068C068E7
:10427000049000BF2068806800F01000102809D169
:10428000606D40F0020060654FF6EF702168886055
:10429000012001903A463146204601F005FA20B14E
:1042A00001200190202060650DE0A06850B900BF9A
:1042B000002000902068C06800902068806800900E
:1042C00000BF00BF00BF012084F8510000BF0020E4
:1042D00084F8500000BF0198AAE670B504460E4667
:1042E00015460CB9012070BD94F8490028B900208A
:1042F00084F84800204600F01DF804F10801206809
:10430000FEF780FA3146A2682068FEF7A9FA29462E
:10431000236BD4E90102FEF751FAA168206850F836
:10432000210040F00100A268216841F8220000202D
:10433000D9E7000010B586B0044600BF0020009009
:104340002248006840F001002049086008460068E3
:1043500000F00100009000BF00BF00BF00200090EF
:104360001A480838006840F0080018490839086001
:104370000846006800F00800009000BF00BF00BFC2
:10438000002000900846006840F0100008600846D1
:10439000006800F01000009000BF00BF4CF20370F6
:1043A00001900220029001200390022004900C2032
:1043B000059001A90648FEF7F3FA4FF680700190C8
:1043C00001A90448FEF7ECFA06B010BD38380240E7
:1043D000000C024000100240042808D14FF0E021F8
:1043E000096941F004014FF0E022116107E04FF04C
:1043F000E021096921F004014FF0E02211617047CA
:1044000070B504462546681EB0F1807F01D30120B7
:104410000FE0681E4FF0E02148610F214FF0FF30A0
:1044200001F048FC00204FF0E0218861072008617E
:10443000002070BD70477047704710B50446206873
:104440000069C0F34000D8B12068C068C0F34000E4
:10445000B0B16FF002002168086101202077206868
:10446000806900F0030018B12046FFF7E5FF05E082
:10447000204600F0ADF8204600F0ABF80020207791
:1044800020680069C0F38000D8B12068C068C0F31C
:104490008000B0B16FF0040021680861022020772D
:1044A0002068806900F4407018B12046FFF7C4FF0F
:1044B00005E0204600F08CF8204600F08AF8002045
:1044C000207720680069C0F3C000D8B12068C068B8
:1044D000C0F3C000B0B16FF008002168086104208B
:1044E00020772068C06900F0030018B12046FFF76C
:1044F000A3FF05E0204600F06BF8204600F069F8C5
:104500000020207720680069C0F30010D8B120682F
:10451000C068C0F30010B0B16FF0100021680861EE
:10452000082020772068C06900F4407018B1204648
:10453000FFF782FF05E0204600F04AF8204600F031
:1045400048F8002020772068006900F0010058B189
:104550002068C06800F0010030B16FF001002168F0
:104560000861204600F036F820680069C0F3C010EA
:1045700058B12068C068C0F3C01030B16FF080003F
:10458000216808612046FFF755FF20680069C0F3E5
:10459000801058B12068C068C0F3801030B16FF04F
:1045A000400021680861204600F015F82068006985
:1045B000C0F3401058B12068C068C0F3401030B15B
:1045C0006FF02000216808612046FFF734FF10BD1E
:1045D0007047704770477047704770470146002228
:1045E000002391F83D2091F83E3042EA03007047E5
:1045F0002DE9F84F0446206805682068C6682068E1
:1046000047694FF00009CA4605F00F09B9F1000FDC
:104610000AD105F0200038B106F0200020B1204674
:1046200001F035F9BDE8F88FB9F1000F72D007F04D
:10463000010018B906F4907000286BD005F0010055
:1046400030B106F4807018B1206C40F00100206495
:1046500005F0040030B107F0010018B1206C40F003
:104660000200206405F0020030B107F0010018B12B
:10467000206C40F00400206405F0080048B106F00A
:10468000200010B907F0010018B1206C40F00800BC
:104690002064206C70B305F0200028B106F02000E3
:1046A00010B1204601F0F3F820684069C0F3801A89
:1046B000206C00F0080010B9BAF1000F23D020469A
:1046C00001F0BAF82068406900F04000402816D197
:1046D0002068406920F0400021684861A06B50B11B
:1046E0005648A16B0865A06BFEF731F910B1A06BBD
:1046F000016D88470CE02046FFF76FFF08E0204679
:10470000FFF76BFF04E02046FFF767FF00202064FF
:1047100088E7FFE7206B012879D105F01000002819
:1047200075D006F01000002871D000BF0020009066
:1047300020680068009020684068009000BF00BFBB
:104740002068406900F04000402839D1A06B006823
:1047500040681FFA80F8B8F1000F30D0A08D4045B6
:104760002DDDA4F82E80A06BC069B0F5807F1FD02E
:104770002068C06820F480702168C86020684069A3
:1047800020F00100216848612068406920F0400065
:1047900021684861202084F83E00002020632068C2
:1047A000C06820F010002168C860A06BFEF77AF89E
:1047B000A08DE28D801A81B22046FFF70DFF31E710
:1047C000A08DE18D401A1FFA80F8E08DE8B1B8F1B4
:1047D000000F1AD02068C06820F490702168C8606B
:1047E0002068406920F0010021684861202084F899
:1047F0003E00002020632068C06820F0100021687F
:10480000C86041462046FFF7E7FE0BE7FFE705F0EB
:10481000800030B106F0800018B1204601F0CFF9D9
:1048200000E705F0400030B106F0400018B1204626
:1048300001F01DF8F6E600BFF4E600002558000878
:1048400010B504460CB9012010BDA06900B100E00C
:1048500000BF94F83D0028B9002084F83C002046B1
:1048600000F028F8242084F83D002068C06820F477
:1048700000502168C860204601F068F8206800698F
:1048800020F49040216808612068406920F02A00E7
:10489000216848612068C06840F400502168C86001
:1048A00000202064202084F83D0084F83E00002091
:1048B000CAE7000010B586B004462E492068884239
:1048C00055D100BF00BF002000902B48006840F089
:1048D0001000294908600846006800F010000090A8
:1048E00000BF00BF00BF00BF00BF002000902248F3
:1048F0001438006840F001001F4914390860084668
:10490000006800F00100009000BF00BF00BF00BFC2
:1049100000BF002000900846006840F001000860D9
:104920000846006800F00100009000BF00BF00BF13
:10493000481501900220029001200390022004906B
:104940000720059001A90D48FEF72AF84FF4806072
:1049500001900720059001A90848FEF721F82520BD
:10496000FEF78FF9032211462520FEF79AF906B0CB
:1049700010BD000000100140443802400000024019
:1049800070B504460D46164694F83E00202816D110
:1049900005B10EB9012070BD00BF94F83C0001289C
:1049A00001D10220F7E7012084F83C0000BF00207D
:1049B000206332462946204601F0DEF8EBE702206C
:1049C000E9E700001D4A0168914236D11C49098877
:1049D00001F4004189BB1A49098801F4804171B191
:1049E000184909780A2903D00021154A118024E0CA
:1049F0001349098841F40041114A11801DE0114911
:104A000009780D2906D10E49098841F480410C4AE4
:104A1000118012E00B490978094A1288C2F30D028D
:104A2000094B995406490988491C054A11801146C9
:104A30000988C72901DD002111807047001001405D
:104A4000180000201A00002048050020704700BF11
:104A5000FEE700BFFEE7704710B502460023086876
:104A6000506248689062D1E9020420430C692043F7
:104A70004C6920430343D06A20F0F7001843D0620A
:104A8000002010BD01460869C0B2704701460868A1
:104A900000F003007047024602F114004318186842
:104AA00070470FB410B504460021DDE9030210433E
:104AB000059A1043069A1043079A1043089A104328
:104AC0000143606847F6FF6290430843606000203E
:104AD00010BC5DF814FB10B50446032020600220D2
:104AE000FDF74AFF002010BD0146D1F88000704755
:104AF00010B50246002308689060D1E90104204304
:104B0000CC6820430C6920430343D0686FF30B004B
:104B10001843D060002010BD02460868C2F880002B
:104B20000020704770B586B005460C4601943720CA
:104B3000029040200390002004904FF48060059084
:104B400001A92846FFF7D4FF41F2883237212846D1
:104B500000F0DCF90646304606B070BD70B586B090
:104B600005460C460B482043019029200290402026
:104B70000390002004904FF48060059001A928461E
:104B8000FFF7B6FF284600F0C9FA0646304606B0E1
:104B900070BD00000000108070B586B005460C4660
:104BA00001941020029040200390002004904FF4C4
:104BB0008060059001A92846FFF79AFF41F28832EC
:104BC0001021284600F0A2F90646304606B070BD16
:104BD00070B586B005460C46019406200290402030
:104BE0000390002004904FF48060059001A92846AE
:104BF000FFF77EFF41F288320621284600F086F951
:104C00000646304606B070BD30B585B0044600207B
:104C100000900190029003904FF4806004906946E8
:104C20002046FFF765FF204600F050F9054628466C
:104C300005B030BD30B585B004464FF4D570009056
:104C40000820019040200290002003904FF48060E3
:104C5000049069462046FFF74BFF204600F0E6FA35
:104C60000546284605B030BD70B586B005460C46F1
:104C700001941220029040200390002004904FF4F1
:104C80008060059001A92846FFF732FF41F2883283
:104C90001221284600F03AF90646304606B070BDAB
:104CA00070B586B005460C46019411200290402054
:104CB0000390002004904FF48060059001A92846DD
:104CC000FFF716FF41F288321121284600F01EF945
:104CD0000646304606B070BDF0B585B006461446AF
:104CE0001D46009407200190402002900020039070
:104CF0004FF48060049069463046FFF7F9FE41F2B8
:104D000088320721304600F001F90746384605B0E1
:104D1000F0BD30B585B0044600200090022001901F
:104D2000C0200290002003904FF4806004906946F8
:104D30002046FFF7DDFE204600F0BEF90546284676
:104D400005B030BD70B586B005460C46019409200B
:104D50000290C0200390002004904FF480600590E2
:104D600001A92846FFF7C4FE284600F0A5F906462B
:104D7000304606B070BD30B585B0044600200090C6
:104D80003320019040200290002003904FF4806077
:104D9000049069462046FFF7ABFE41F2883233218A
:104DA000204600F0B3F80546284605B030BD70B582
:104DB00086B005460C4601940D20029040200390D9
:104DC000002004904FF48060059001A92846FFF769
:104DD0008FFE41F288320D21284600F097F80646F2
:104DE000304606B070BD70B586B005460C46002052
:104DF00001900320029040200390002004904FF483
:104E00008060059001A92846FFF772FE2246032123
:104E1000284600F0AFF90646304606B070BD0000E7
:104E200030B585B00446002000900C200190402051
:104E30000290002003904FF4806004906946204661
:104E4000FFF756FE044A0C21204600F05FF80546A5
:104E5000284605B030BD000000E1F50570B586B00C
:104E600005460C4601941920029040200390002032
:104E700004904FF48060059001A92846FFF738FEA2
:104E800041F288321921284600F040F806463046A3
:104E900006B070BD70B586B005460C46019418206A
:104EA000029040200390002004904FF48060059011
:104EB00001A92846FFF71CFE41F288321821284636
:104EC00000F024F80646304606B070BD01460E4894
:104ED0000068C0084FF47A73B0FBF3F041F28833F6
:104EE00000FB03F200BF101EA2F1010202D14FF03D
:104EF00000407047486B00F080000028F3D0C520C8
:104F000088630020F5E70000000000202DE9F04351
:104F100005460F46904666480068C0084FF47A710F
:104F2000B0FBF1F000FB08F900BFB9F10000A9F1F6
:104F3000010903D14FF00040BDE8F0836E6B06F02D
:104F400045000028F1D006F400600028EDD1686B20
:104F500000F0040010B10420A863EDE7686B00F0D6
:104F6000010010B10120A863E6E7C520A863284628
:104F7000FFF788FDB84201D00120DDE70021284677
:104F8000FFF789FD04464B48204008B90020D3E7CD
:104F900004F00040B0F1004F02D14FF00070CBE7B9
:104FA00004F08040B0F1804F01D14020C4E704F00C
:104FB0000050B0F1005F01D18020BDE704F08050C7
:104FC000B0F1805F02D14FF48070B5E704F000606B
:104FD000B0F1006F02D14FF40070ADE704F08060D3
:104FE000B0F1806F02D14FF48060A5E704F08070CB
:104FF000B0F1807F02D14FF400609DE704F400001F
:10500000B0F5000F02D14FF4805095E704F4800012
:10501000B0F5800F02D14FF400508DE704F400107A
:10502000B0F5001F02D14FF4804085E704F48010F2
:10503000B0F5801F02D14FF400407DE704F48020DA
:10504000B0F5802F02D14FF4003075E704F4003042
:10505000B0F5003F02D14FF480206DE704F48030BA
:10506000B0F5803F02D14FF4002065E704F4004022
:10507000B0F5004F02D14FF480105DE704F480409A
:10508000B0F5804F02D14FF4001055E704F4005002
:10509000B0F5005F02D14FF480004DE704F0080046
:1050A000082801D1000547E74FF4803044E70000AD
:1050B0000000002008E0FFFD10B50146164800681A
:1050C000C0084FF47A74B0FBF4F041F2883400FB6E
:1050D00004F300BF181EA3F1010302D14FF00040FA
:1050E00010BD4A6B02F045000028F3D002F40060C6
:1050F0000028EFD1486B00F0040010B10420886351
:10510000EEE7486B00F0010010B101208863E7E78B
:10511000C52088630020E3E70000002010B50146A9
:1051200013480068C0084FF47A74B0FBF4F041F201
:10513000883400FB04F300BF181EA3F1010302D161
:105140004FF0004010BD4A6B02F045000028F3D03C
:1051500002F400600028EFD1486B00F0040010B1A9
:1051600004208863EEE7C52088630020EAE700009A
:10517000000000202DE9F04304460F4690462A48DF
:105180000068C0084FF47A71B0FBF1F041F2883149
:1051900000FB01F900BFB9F10000A9F1010903D139
:1051A0004FF00040BDE8F083666B06F04500002834
:1051B000F1D006F400600028EDD1606B00F004002F
:1051C00010B10420A063EDE7606B00F0010010B1A6
:1051D0000120A063E6E72046FFF754FCB84201D067
:1051E0000120DFE7C520A06300212046FFF753FC24
:1051F000054605F4604020B9280CA8F800000020FE
:10520000D0E705F48040B0F5804F02D14FF4005054
:10521000C8E705F40040B0F5004F02D14FF48050CC
:10522000C0E74FF48030BDE70000002010B5014614
:1052300018480068C0084FF47A74B0FBF4F041F2EB
:10524000883400FB04F300BF181EA3F1010302D150
:105250004FF0004010BD4A6B02F045000028F3D02B
:1052600002F400600028EFD1486B00F0040010B198
:1052700004208863EEE7486B00F0010010B10120C4
:105280008863E7E7486B00F0400008B1402088637E
:105290000020DFE7000000202DE9F04389B004463C
:1052A0000F46FDF79DFC81464FF00008002001905D
:1052B00002903E4608212068FFF76EFC05461DB1AE
:1052C000284609B0BDE8F0835022125B1104206823
:1052D000FFF728FC05460DB12846F2E74FF0FF30F6
:1052E00003900820049030200590022006900020B2
:1052F00007900120089003A92068FFF7ADFB206804
:10530000FFF739FD05460DB12846DAE71CE02068B5
:10531000406B00F4001040B12068FFF7E5FB01A9E5
:1053200041F8280008F1010805E02068406B00F40E
:10533000005000B90EE0FDF753FCA0EB0900401C43
:1053400010B94FF00040BCE72068406B00F02A0025
:105350000028DCD000BF2068406B00F0080018B1C6
:10536000082021688863ACE72068406B00F00200E9
:1053700018B1022021688863A3E72068406B00F021
:10538000200018B12020216888639AE740F23A5043
:105390002168886302980006029901F47F4140EA7F
:1053A0000120029901F47F0140EA1120029940EAAC
:1053B00011603060361D01980006019901F47F41AB
:1053C00040EA0120019901F47F0140EA112001998E
:1053D00040EA11603060002073E730B58FB00446BA
:1053E000012003902068FFF751FB18B94FF080604F
:1053F0000FB030BD606C03281BD02068FFF789FC1C
:1054000005460DB12846F3E700212068FFF743FB6E
:10541000606704212068FFF73EFBA0670821206831
:10542000FFF739FBE0670C212068FFF734FB802190
:105430000851606C032807D003A92068FFF7D3FC4C
:1054400005460DB12846D3E7606C032820D0BDF88F
:105450000C1021655022125B11042068FFF772FCCA
:1054600005460DB12846C3E700212068FFF713FB6E
:10547000606604212068FFF70EFBA0660821206803
:10548000FFF709FBE0660C212068FFF704FB2067AB
:1054900004212068FFF7FFFA010DE16404A920460A
:1054A000FEF744F810B14FF08050A1E75020005BA8
:1054B00001040A4600232068FFF70EFC05460DB1E3
:1054C000284695E7D4E90412A069CDE900120290BC
:1054D00094E80F00FFF7E5FA002089E7F8B50446E5
:1054E00000200090002600272068FFF78DFB05466E
:1054F0000DB12846F8BD2068FFF79CFB054645B175
:105500000021A1642068FFF77FFB05461DB12846F6
:10551000F0E70121A164A06C012808D100212068D6
:10552000FFF700FB054615B14FF08050E2E71DE0A4
:1055300000212068FFF7F6FA05460DB12846D9E7A5
:1055400018492068FFF70AFB054615B14FF0805057
:10555000D0E700212068FFF79EFA0646012080EA86
:10556000D67080F001070098401C00904FF6FF7144
:105570000098884201D2002FDAD04FF6FF710098D0
:10558000884202D34FF08070B4E706F08040B0F15B
:10559000804F02D10120606401E00020606400209F
:1055A000A8E70000000010C170B504460D4615B90B
:1055B0004FF0006070BD5022125B11042068FFF7AD
:1055C000F6FB06460EB13046F4E700212068FFF7EF
:1055D00062FA28600020EDE77CB5044600200090C8
:1055E000019000212068FFF756FA00F00070B0F13A
:1055F000007F02D14FF400607CBD69462046FFF772
:105600004BFE05460DB12846F6E7019800F48030C0
:1056100098B15022125B11042068FFF783FA054607
:105620000DB12846E8E700212068FFF7D1FA0546CA
:105630000DB12846E0E70020DEE74FF08060DBE7B1
:105640007CB5044600200090019000212068FFF7FF
:1056500022FA00F00070B0F1007F02D14FF4006038
:105660007CBD69462046FFF717FE05460DB128466A
:10567000F6E7019800F4802098B15022125B1104E3
:105680002068FFF74FFA05460DB12846E8E70221EA
:105690002068FFF79DFA05460DB12846E0E7002097
:1056A000DEE74FF08060DBE77CB504460D4616462A
:1056B000164800681821B0FBF1F01549B0FBF1F075
:1056C0004FF47A71484301906068B0F5827F0DD144
:1056D0002B46002280212046009600F01BF898B14E
:1056E000606D40F02000606503207CBD00BF019824
:1056F00000B908E00198401E019020688068C0F35E
:10570000C0100028F3D100BF0020EEE70000002009
:1057100040420F002DE9F84F04460D4690461E46C4
:10572000DDF82890FDF75CFAA0EB0900371AFDF7C9
:1057300057FA82462C480068C0F3CB30784300907B
:1057400045E0701C002842D0FDF74AFAA0EB0A00A1
:10575000B84200D2A7BB2068406820F0E000216872
:1057600048606068B0F5827F0DD1A068B0F5004F49
:1057700003D0A068B0F5806F05D12068006820F0E4
:10578000400021680860A06AB0F5005F0DD100BF3D
:105790002068006820F400502168086020680068D4
:1057A00040F400502168086000BF012084F85100D7
:1057B00000BF002084F8500000BF0320BDE8F88F30
:1057C000FFE7009800B900270098401E009020686D
:1057D00080682840A84201D1012000E00020404517
:1057E000AFD10020EAE700000000002010B5FDF76F
:1057F000FDF938F04DFB012801D038F013F910BD48
:105800000348006840F470000149086070470000D8
:1058100088ED00E010B50248FEF70FFE10BD000055
:10582000B406002070B50546AC6B0020E085E0842E
:105830002046FEF7D2FE70BD0168C96821F4907160
:105840000268D1600168496921F001010268516173
:10585000016B012905D10168C96821F010010268B6
:10586000D160202180F83E1000210163704710B5FF
:1058700004462068C06820F040002168C8602020ED
:1058800084F83D002046FFF7E1F8002010BD70B518
:10589000044694F83E00222856D1A068B0F5805FF7
:1058A0000CD1206950B90025A66A20684068C0F371
:1058B00008003080A06A801CA06215E0A56A00265E
:1058C000A068B0F5805F03D0A06828B9206918B936
:1058D00020684068287004E02068406800F07F007D
:1058E0002870A06A401CA062E08D401E80B2E08556
:1058F00040BB2068C06820F020002168C860206894
:10590000C06820F480702168C8602068406920F079
:10591000010021684861202084F83E00206B0128A6
:105920000AD12068C06820F010002168C860A18DED
:105930002046FEF751FE02E02046FFF743F8002024
:10594000206370BD0020FCE70220FAE72DE9F84F44
:1059500004462068006920F44050E168084321684B
:1059600008612169A068084361690843E169084347
:1059700000902068C06849F20C6188430099084390
:105980002168C8602068406920F44070A16908431C
:105990002168486176492068884203D075492068AB
:1059A000884203D1FDF7A8FA814602E0FDF794FA98
:1059B0008146E069B0F5004F6CD102206168A0FB20
:1059C000015003461920A9FB007001462A463846BB
:1059D000FAF7EFFC6421B0FBF1F04FEA001A022065
:1059E0006168A0FB01510B461920A9FB00712A46F2
:1059F0003846FAF7DEFC834602206168A0FB0150BE
:105A000003461920A9FB00712A463846FAF7D1FC53
:105A10006421B0FBF1F000EBC00101EB0010ABEB37
:105A20008000322101EBC0006421B0FBF1F000F0F6
:105A3000F8000AEB400A02206168A0FB015003460F
:105A40001920A9FB007001462A463846FAF7B1FC36
:105A5000834602206168A0FB015003461920A9FB80
:105A600000712A463846FAF7A4FC6421B0FBF1F035
:105A700000EBC00101EB0010ABEB8000322101EB29
:105A8000C0006421B0FBF1F000F007005044216831
:105A900088606AE004206168A0FB01500346192079
:105AA000A9FB007001462A463846FAF782FC824676
:105AB00004206168A0FB015003461920A9FB007077
:105AC00001462A463846FAF774FC6421B0FBF1F02F
:105AD00000EBC00101EB0010AAEB8000322101EBCA
:105AE00000106421B0FBF1F000F0F00A04206168BE
:105AF000A0FB017003461920A9FB00513A46284635
:105B0000FAF757FC6421B0FBF1F00AEB001A04200D
:105B10006168A0FB01510B461920A9FB00712A46C0
:105B20003846FAF746FC834604206168A0FB015022
:105B300003461920A9FB007001462A463846FAF7A9
:105B400038FC6421B0FBF1F000EBC00101EB001068
:105B5000ABEB8000322101EB00106421B0FBF1F0CF
:105B600000F00F00504421688860BDE8F88F000005
:105B7000001001400014014010B5034699629A8557
:105B8000DA8500201864222083F83E0000BF002040
:105B900083F83C0000BF1868C06840F480701C683F
:105BA000E0601868406940F001001C686061186896
:105BB000C06840F020001C68E060002010BD014675
:105BC00091F83D00212828D18868B0F5805F0BD17D
:105BD000086948B90A6A1088C0F308000B68586061
:105BE000086A801C086205E00B6A581C0862187875
:105BF0000B685860C88C401E80B2C88458B90868C9
:105C0000C06820F080000B68D8600868C06840F069
:105C100040000B68D860002070470220FCE70000BD
:105C200070B500240F4D1048FEF7E2FC00BF03E002
:105C3000641CAC4200D904E00B48FEF7CFFC2028DE
:105C4000F6D100BF002403E0641CAC4200D906E09A
:105C5000012206490448FEF793FE0028F4D100BF54
:105C600070BD0000FFFF0100100600201A00002098
:105C700000BFFEE703B401984100009850EAC1203C
:105C800018BF04204A0D18BF40F0010040F2FF7217
:105C9000B2EB515F08BF40F00200012808BF0520A9
:105CA00002B0704702480068C0F30220704700004D
:105CB0000CED00E010B5002804DB0A07130E054ABE
:105CC000135406E00A07140E034A00F00F031B1FCB
:105CD000D45410BD00E400E018ED00E00000000026
:105CE00030B52DED048B81B0B0EE408AF0EE608AC5
:105CF0006A4651EC180B10F0AFF800989FED329BFC
:105D00007E300090002821DC53EC192B51EC180B4D
:105D100038F0C8FE1AD0002140F608004FF000000D
:105D2000044651EC180B38F077FC08EE100A40F6E8
:105D3000080004EA00014FF00000B5EEC08AF1EE61
:105D400010FA04BF0220FAF77FFF2DE00098FF2829
:105D500030DB002108464FF0000000F4400553EC12
:105D6000192B51EC180B39F09BF88CBF002401243F
:105D70000220FAF769FF9FED168A4DB1002C0CBF87
:105D80004FF400004FF48000A84218BF9FED118A25
:105D9000042108464FF00000002C01BFB1EE480A74
:105DA00001B0BDEC048B30BDB0EE480A01B0BDECD3
:105DB000048B30BD51EC180B38F02EFC01B000EE16
:105DC000100ABDEC048B30BD000000000000000094
:105DD0000000807FFFFF7F7F30B583B00446FAF775
:105DE0002EFF9FED090B05468DED000B002221468D
:105DF0006846FBF7FBF92846FAF726FF9DED000BF6
:105E000003B030BD000000000000000000000000F2
:105E100010B52F499FED2C1B2DED020B84B005987A
:105E200020F000408842D8BF9DED040B2DDD2949AC
:105E3000884209D1049840B94FF00100FAF704FFF5
:105E400001F076FF06B010BD05DB9DED040B01F0FF
:105E50005BFF06B010BD68469DED040B01F0ACF988
:105E600010F0030004BF9DED021B9DED000B0CD054
:105E700001280ED09DED021B9DED000B022817D0CE
:105E8000012001F0E9FC06B010BD01F0B1FB06B045
:105E900010BD9DED021B9DED000B012001F0DCFC0F
:105EA00051EC100B38F0ACFB06B041EC100B10BD00
:105EB00001F09EFB51EC100B38F0A2FB06B041EC58
:105EC000100B10BD000000000000000000000000EA
:105ED000FB21E93F0000F07F30B540F2FF742DED6B
:105EE000048BF0EE608A18EE901A85B0B0EE408A0E
:105EF0009FED2B9B05468DED008B34EA115147D069
:105F000053EC192B51EC180B38F0CCFD40D02A463D
:105F100051EC180B39F0FDF941EC180B18EE900A12
:105F20008DED008B34EA10501CD053EC192B51EC42
:105F3000180B38F0B7FD2BD10220FAF785FE01F0DF
:105F400017FF10EE901A18EE900A8DED020B8DEDF2
:105F5000008B61F31E0003909DED020B05B0BDECBC
:105F6000048B30BD0220FAF76FFE01F0F1FE10EE57
:105F7000901A18EE900A8DED020B8DED008B61F3F7
:105F80001E0003909DED020B05B0BDEC048B30BDEF
:105F900005B0B0EE480AF0EE680ABDEC048B30BDE7
:105FA000000000000000000070B5D94B00242DED6A
:105FB000020B2DED108BDDE91010984205DA20F070
:105FC00000429A4201D809D141B19DED100BBDECC0
:105FD000108B02B0BDE8704001F096BEB0F5801F96
:105FE00026DA11430BD0002813DA0120FAF72CFE31
:105FF000BDEC108B02B0BDE8704001F099BE0220EC
:10600000FAF722FE01F068FE51EC100B38F0F8FAB6
:106010009EE06FF035049FEDC00B53EC102B9DED0F
:10602000100B51EC100B38F03DFECDE91001084685
:1060300004EB2051C0F31304B948A1F2FF3120440E
:1060400000F4801080F07F6282F04052224301EB26
:1060500020559FEDB50B119253EC102B9DED100BBD
:1060600051EC100B39F02AF841EC180BA01CC0F3CE
:1060700013009FEDAFDB9FEDB0EBB14E7E440328E4
:106080006CD296ED000B51EC180B53EC102B38F042
:1060900009FD1DD1002D01BF96ED000BBDEC108B4D
:1060A00002B070BD284638F096FD41EC180B53EC59
:1060B0001D2B38F0F7FD41EC190B53EC1E2B51EC66
:1060C000180B38F0EFFD53EC192B38F0D7FA3FE0FE
:1060D0009FED9D0B51EC180B53EC102B38F0E2FDAB
:1060E0009FED9B1B53EC112B38F010FF41EC190B6B
:1060F00053EC182B51EC180B38F0D4FD53EC192B42
:1061000038F0D0FD41EC190B002D04BF53EC192BD6
:1061100051EC180B1AD0284638F05DFD41EC1A0BF3
:1061200053EC1D2B38F0BEFD53EC192B38F0EEFE6E
:1061300053EC182B38F0C2FF41EC180B53EC1E2B1C
:1061400051EC1A0B38F0AEFD53EC182B38F0B6FFBB
:10615000BDEC108B02B041EC100B70BD9FED7E0BBF
:1061600051EC180B53EC102B38F088FA41EC100B63
:1061700051EC180B53EC102B38F03CFB41EC190B95
:10618000284638F028FD41EC1B0B53EC192B51EC41
:10619000190B38F087FD41EC1A0B714853EC1A2BA0
:1061A000261851EC1A0B38F07DFD41EC1F0B6D48A1
:1061B000C4F1510404F5D724B0EE4F0AF0EE6F0A93
:1061C0000321784401F0CCFA53EC1F2B51EC100B57
:1061D00038F068FD41EC1C0B6348B0EE4F0AF0EE5E
:1061E0006F0A0421784401F0BBFA53EC1A2B51ECEE
:1061F000100B38F057FD344353EC1C2B38F03EFAAB
:1062000041EC1C0B002C4CDD9FED510B51EC180B9D
:1062100053EC102B38F046FD53EC182B38F042FDB0
:1062200041EC1A0B55B353EC1D2B51EC1B0B38F002
:1062300039FD41EC1D0B53EC1C2B51EC1A0B38F0C3
:106240001DFA53EC192B38F02DFD53EC1D2B38F0B3
:1062500015FA53EC1A2B38F059FE53EC182B38F082
:106260002DFF41EC180B53EC1E2B51EC1B0B38F09F
:1062700019FD53EC182B38F021FF69E753EC1C2B68
:1062800051EC1A0B38F0FAF953EC192B38F00AFDDF
:1062900053EC1A2B38F03AFE53EC182B38F036FE3C
:1062A00056E735B353EC1D2B51EC1B0B38F0FAFCC1
:1062B00041EC1A0B53EC1C2B51EC180B38F0FEFE82
:1062C00053EC192B38F0EEFC53EC1A2B38F0F6FE99
:1062D00053EC182B38F0F2FE41EC180B53EC1E2B4C
:1062E00051EC1B0B38F0DEFC53EC182B38F0E6FEBB
:1062F0002EE753EC1C2B51EC180B38F0DFFE53EC5F
:10630000192B38F0CFFC53EC182B38F0FFFD1FE7AA
:106310000000F07F0000000000000000000050437B
:10632000645F090000000000000000000000F03F72
:10633000763C7935EF39EA3D0000E0FE422EE63F3B
:10634000E0BB060000000000555555555555D53F9A
:10635000000000000000E03F0000000000000040DE
:1063600086EBF9FFAAB90600A0B9060000000000FC
:1063700070B5414A00252DED020B2DED048BDDE9B2
:106380000404944205DA24F00041914201D809D175
:1063900040B19DED040BBDEC048B02B0BDE8704034
:1063A00001F0B2BCB4F5801F26DA08430BD0002CF4
:1063B00013DA0120FAF748FCBDEC048B02B0BDE80B
:1063C000704001F0B5BC0220FAF73EFC01F084FCFD
:1063D00051EC100B38F014F946E09FED290B6FF0EB
:1063E000350553EC102B9DED040B51EC100B38F0E0
:1063F00059FCCDE904010C4605EB2450A0F2FF3016
:10640000C10F40F2FF32521A62F31F54084438F0B1
:10641000E2FB05949DED040B41EC180B51EC100BC5
:1064200017F085FE9FED181B53EC112B38F03AFC4A
:106430009FED170B41EC190B53EC102B51EC180B83
:1064400038F030FC53EC192B38F018F99FED120B93
:1064500041EC190B53EC102B51EC180B38F022FCCB
:1064600053EC192B38F00AF9BDEC048B02B041EC67
:10647000100B70BD000000000000F07F0000000065
:1064800000000000000050430EE526157BCBDB3FEB
:10649000362BF111F3FE593D00609F501344D33F5A
:1064A0002DE9F04D2DED040B2DED0E8B96B0DDE9B1
:1064B0002550279CDDF890A025F0004624F00048E8
:1064C000BAF1000F14BF0121002101EB4502FC4984
:1064D00053184A1093422AD3002814BF01230023E3
:1064E00003EB44030B44F7498B4220D358EA0001E5
:1064F0009FEDF59B76D0DFF8D8B35D4503D1BAF1B7
:10650000000F05D188E0BAF1000F08BF002100D0CC
:10651000012101EB450111F5001F08D8002814BF27
:106520000121002101EB440111F5001F0BD99DED64
:10653000261B9DED240B16B0BDEC0E8B04B0BDE800
:10654000F04D01F0EBBB0027002DBCBFE1498845B1
:1065500021DAE1498845A8BF02271CDAC3451ADCC5
:10656000DE4901EB2851142908DDC1F1340220FA7B
:1065700002F101FA02F282420DD108E058B9C1F1EC
:10658000140228FA02F101FA02F2424503D101F0A5
:106590000101C1F1020756EA0A0124D1002C22DAD6
:1065A000002D18BF022F01D0012F0AD00220FAF7C8
:1065B0004BFB16B0BDEC0E8B04B0BDE8F04D01F006
:1065C0008BBB0220FAF740FB01F086FB51EC100B6D
:1065D00038F016F841EC100B16B0BDEC0E8B04B081
:1065E000BDE8F08D18E09FEDBEAB9FEDBF8B00289E
:1065F00071D1B848804522D105F1804010F5801056
:1066000008BFBAF1000F07D0B3450ADC002CA8BFC1
:106610009DED260BE0DA0DE0B0EE490AF0EE690AD6
:10662000DAE7002C06DA9DED260B51EC100B37F063
:10663000E7FF6FE0AE48784490ED000BCCE7D8451B
:106640004DD1002C48DA2EB186423AD1BAF1000F72
:1066500042D126E0BAF1000F13D00220FAF7F4FA83
:1066600001F076FB8DED020B9DED240B8DED000B03
:1066700010EE900A039961F31E0003909DED020B4A
:10668000AAE78DED02AB9DED240B1AEE901A10EEE9
:10669000900A8DED000B61F31E0003909DED020B3F
:1066A0009AE78DED028B9DED240B18EE901A10EEFB
:1066B000900A8DED000B61F31E0003909DED020B1F
:1066C0008AE709DA9DED240B51EC190B53EC102BE2
:1066D00038F090F81EE020E09DED240B7CE7864228
:1066E0001BDAB4F1804F0DD0A4F10050B0F1FF508F
:1066F00013D1002D11DB9DED240B51EC100B33F069
:106700004FFB07E09DED240B53EC102B51EC100BCD
:1067100000F0C2BC41EC100B5EE79DED240B51EC88
:10672000100B0EF056F8BAF1000FCDE90E0142D170
:106730009FED710B46B3A6F1E040B0F17F600CD045
:106740005E4538D1002D00DAA7B3022F0CBF01201F
:106750004FF0FF3038F03FFADCE7002D01DD002C70
:106760000DDA002D01DD002C1FDB002D16DA002CC8
:1067700014DB012F08BF9FED620B3FF42DAFB0EE8D
:106780004A0AF0EE6A0A27E7022F18BF002D0CD044
:10679000012F0AD1002DFFF61FAF06E0002DB8BF74
:1067A000002C08DA012F3FF417AFB0EE480AF0EEE4
:1067B000680A11E71BE0012000EBE57050EA0701D1
:1067C00015D0791EB0EE498AF0EE698A084308BFF9
:1067D0009FED4D8B4E480025804570DD4D494E485C
:1067E000884514DDB0420DDB002C19DB2FE00120C1
:1067F000FAF72AFA16B0BDEC0E8B04B0BDE8F04DE6
:1068000001F096BAB34502DC002C09DC1FE0864299
:1068100002DA002C1BDA03E05E452BDD002C16DDCE
:106820000220FAF711FA01F093FA8DED020B53EC06
:106830001A2B51EC180B38F035FACDE90001039909
:10684000019861F31E0003909DED020BC4E6022047
:10685000FAF7FAF901F08CFA10EE901A18EE900A95
:106860008DED020B8DED008B61F31E0003909DED0D
:10687000020BB1E69DED0E0B53EC192B51EC100BF6
:1068800038F01CFC9FED260BCDE9080153EC102BD2
:106890009DED080B51EC100B38F004FA9FED221B14
:1068A00053EC112B38F032FB9DED081B53EC112BF0
:1068B00038F0F8F99FED1E1B53EC112B3CE08CE0F7
:1068C000FFFF1F00FFFF0F00000000000000F03F6F
:1068D0000000F03F0000F07F0000404301FCFFFF9C
:1068E000000000000000F07F000000000000000039
:1068F00026B6060000000000000000000000008036
:10690000000000000000F0FF000000000000F0BFE9
:106910000000E0410000F043FFFFEF3F00000000F7
:10692000000000000000D03F555555555555D53F46
:10693000000000000000E03F38F0E8FA9DED080B91
:1069400041EC1A0B53EC102B51EC100B38F0AAF958
:1069500053EC1A2B38F0A6F941EC1A0B9FEDFE0B05
:1069600053EC102B9DED080B51EC100B38F09AF9FD
:1069700041EC1B0B9FEDFA0B51EC1A0B53EC102B57
:1069800038F090F941EC1A0B9FEDF70B53EC102BFC
:106990009DED080B51EC100B38F084F953EC1A2BD9
:1069A00038F08CFB41EC1A0B51EC1B0B53EC1A2BFF
:1069B00037F064FE0690CDE906519DED060B53ECD1
:1069C0001B2B51EC100B38F079FB53EC1A2B38F0E1
:1069D0009DFA41EC100B00F0A1B90020B6F5801F24
:1069E0000EDA9FEDE30B53EC102B9DED0E0B51ECEB
:1069F000100B38F057F9CDE90E016FF034000E4658
:106A000000EB2650A0F2FF37C6F31300DA4940F03E
:106A10007F6646F040568842D8BF002408DDD7493B
:106A20008142C8BF012403DC0024A6F580167F1C28
:106A3000D348784400EBC4000F9690ED00CB9DED59
:106A40000E0B53EC1C2B51EC100B38F037FB9DED6B
:106A50000E0B41EC1B0B53EC1C2B51EC100B37F0C5
:106A60000DFE41EC100B51EC190B53EC102B37F0D1
:106A7000C1FE41EC1D0B51EC1B0B53EC1D2B38F0F0
:106A800011F941EC1A0BBF488DED10AB784410950D
:106A900090ED000B4FF0005040EA660000EB8440A0
:106AA0008DED080B00F5002009909DED080B53ECCF
:106AB0001C2B51EC100B38F001FB9DED0E1B53EC21
:106AC000112B38F023FA41EC100B53EC102B9DEDF9
:106AD000100B51EC100B38F0E5F89DED080B41EC74
:106AE0001C0B53EC102B9DED100B51EC100B38F0E0
:106AF000D9F853EC1B2B38F009FA53EC1C2B38F067
:106B0000DDFA53EC1D2B38F0CDF841EC1C0B53ECA7
:106B10001A2B51EC1A0B38F0C5F841EC1B0B9A48B4
:106B20000621B0EE4B0AF0EE6B0A784400F018FE36
:106B3000B0EE401AF0EE601AB0EE41DAF0EE61DA33
:106B400053EC1B2B51EC1B0B38F0ACF853EC1D2B0A
:106B500038F0A8F89DED100B41EC1B0B53EC1A2BF1
:106B600051EC100B37F08AFD53EC1C2B38F09AF8DF
:106B700053EC1B2B37F082FD9DED100B41EC1B0BF2
:106B800053EC102B51EC100B38F08CF841EC1D0B32
:106B90009FED7FEB53EC1E2B37F070FD53EC1B2B5E
:106BA00037F06CFD0890CDE908519DED080B53ECD2
:106BB0001E2B51EC100B38F081FA53EC1D2B38F0E2
:106BC0007DFA53EC1B2B38F0A1F99DED080B41EC3D
:106BD0001D0B53EC102B9DED100B51EC100B38F0EE
:106BE00061F841EC1B0B53EC1A2B51EC1D0B38F0E8
:106BF00059F89DED080B41EC1A0B53EC102B51EC9E
:106C00001C0B38F04FF853EC1A2B37F037FD41ECE2
:106C10001A0B51EC1B0B53EC1A2B37F02FFD0C9079
:106C2000CDE90C519DED0C0B53EC1B2B51EC100BD3
:106C300038F044FA53EC1A2B38F068F941EC1B0B8E
:106C40009FED550B53EC102B9DED0C0B51EC100BE5
:106C500038F028F841EC1A0B9FED510B51EC1B0B4F
:106C600053EC102B38F01EF841EC1B0B9FED4E0B34
:106C700053EC102B9DED0C0B51EC100B38F012F86F
:106C800053EC1B2B37F0FAFC41EC100B48487844CE
:106C900000EBC40090ED001B51EC100B53EC112BDA
:106CA00037F0ECFC41EC1B0B384637F094FFCDE994
:106CB000080153EC1B2B51EC1A0B37F0DFFC41ECB5
:106CC000100B3C48784400EBC40090ED00CB51EC35
:106CD000100B53EC1C2B37F0D1FC9DED081B53EC33
:106CE000112B37F0CBFC0690CDE906519DED080B3A
:106CF00053EC102B9DED060B51EC100B38F0DEF928
:106D000053EC1C2B38F0DAF953EC1A2B38F0D6F987
:106D100053EC1B2B38F0FAF841EC100B9DED261BC1
:106D200053EC102B8DED001B00959DED260B51ECC7
:106D3000100B37F0B7FF9DED000B41EC1A0B53EC35
:106D4000102B9DED260B51EC100B38F0B7F99DED93
:106D5000061B53EC112B2FE0000000604715F73F96
:106D6000FE822B654715F73F44DF5DF80BAE543EBE
:106D700000000000000040438E9803007AB60B002C
:106D800072B10600D0B10600AAB0060000000000F3
:106D90000000000000000840000000E009C7EE3FCE
:106DA000FD033ADC09C7EE3FF5015B14E02F3EBE60
:106DB00036AF0600F0AE060037F074FF53EC1A2B26
:106DC00037F05CFC9DED060B41EC1A0B53EC102BDD
:106DD0009DED000B51EC100B37F064FFCDE90C0179
:106DE0009DED0C0B51EC1A0B53EC102B37F046FCBD
:106DF000CDE902010C46AA498C422FDB611A0843F7
:106E000018D19DED0C0B53EC102B9DED020B51ECAA
:106E1000100B38F053F941EC1B0B9FEDA30B51EC19
:106E20001A0B53EC102B37F029FC53EC1B2B38F0CA
:106E300037F82DD20220F9F707FF00F089FF10EE96
:106E4000901A18EE900A8DED020B8DED008B61F318
:106E50001E0003909DED020BFFF7BEBB944A24F089
:106E60000041914214D39349214408437FF4EFAC8D
:106E70009DED0C0B53EC102B9DED020B51EC100B08
:106E800038F01CF953EC1A2B38F00AF87FF6DFAC17
:106E900024F000408849894A002601EB20518242B3
:106EA0002BDA481C4FF4801121FA00F02044844A68
:106EB000C0F30A517A44A1F2FF3192ED000B814AEE
:106EC0008DED080BCA4020EA0202C0F3130040F423
:106ED0008010C1F1140120FA01F60992002CB8BF0C
:106EE00076429DED080B53EC102B9DED0C0B51ECF5
:106EF000100B38F0E3F8CDE90C019DED0C0B51ECD3
:106F00001A0B53EC102B37F0B9FB9FED6F0B089069
:106F1000CDE9085153EC102B9DED080B51EC100BF3
:106F200037F0C0FE41EC1B0B9FED690B53EC102BAF
:106F30009DED080B51EC100B37F0B4FE9DED0C0BE2
:106F400041EC1C0B53EC102B9DED080B51EC100B7E
:106F500038F0B4F853EC1A2B37F0D8FF9FED5E1BD6
:106F600053EC112B37F09EFE53EC1C2B37F086FBB5
:106F700041EC1A0B51EC1B0B53EC1A2B37F07EFB38
:106F8000CDE902019DED020B53EC1B2B51EC100BD4
:106F900038F094F853EC1A2B37F0B8FF9DED020B44
:106FA00041EC1A0B53EC102B51EC100B37F07AFE1E
:106FB000CDE908014A489DED080B0521784400F011
:106FC000CFFB9DED081B51EC100B53EC112B37F050
:106FD00069FE9DED021B53EC112B37F097FFCDE9B5
:106FE00006019DED020B53EC1A2B51EC100B37F000
:106FF00059FE53EC1A2B37F041FB9FED3B0B41EC54
:107000001A0B53EC102B9DED060B51EC100B38F0C6
:1070100055F89DED060B41EC1B0B53EC102B9DED31
:10702000020B51EC100B37F03DFE53EC1B2B37F0ED
:10703000E1FB53EC1A2B38F041F89DED021B53ECA9
:10704000112B38F03BF853EC192B37F05FFFCDE9EB
:10705000020101EB065001150029C8BF039015DCA1
:107060009DED020B324651EC100B38F052F9FEF751
:1070700001FE042808BF00F07BFE32469DED020BA6
:1070800051EC100B38F045F9CDE902019DED020BF2
:1070900051EC180B53EC102B37F004FEFFF73ABB02
:1070A0000000904000000000FE822B654715973CD1
:1070B00000CC904000346F3F01FCFFFF0000E03F38
:1070C000A8AD0600FFFF0F0000000000432EE63FC2
:1070D000396CA80C615C20BEEF39FAFE422EE63F07
:1070E00048AC060000000000000000000000004066
:1070F00010B52F499FED2C1B2DED020B84B0059888
:1071000020F000408842DCBF00209DED040B32DD02
:107110002849884209D1049840B94FF00100F9F795
:1071200093FD00F005FE06B010BD05DB9DED040BE0
:1071300000F0EAFD06B010BD68469DED040B00F0BE
:107140003BF810F0030011D0012818D09DED021B70
:107150009DED000B02281AD000F04AFA51EC100BFA
:1071600037F04EFA06B041EC100B10BD9DED021B3E
:107170009DED000B012000F06FFB06B010BD9DEDF2
:10718000021B9DED000B00F033FA06B010BD01208C
:1071900000F062FB51EC100B37F032FA06B041EC14
:1071A000100B10BD000000000000000000000000F7
:1071B000FB21E93F0000F07F2DE9F14F04462DED62
:1071C000020B2DED088B8AB09FEDE70B80ED020BD3
:1071D000139EE74826F0004585420ADC9DED120B20
:1071E000002084ED000B0AB0BDEC088B03B0BDE8B5
:1071F000F08FE0489FEDE0AB9FEDE1BBA84247DD9B
:10720000E14F9FEDE39B9FEDE48B9DED120B53EC63
:107210001A2B51EC100B002E1CDD37F04FFF41EC08
:10722000100BBD4208D053EC1B2B51EC100B37F068
:1072300045FFC4E900010BE053EC192B51EC100B96
:1072400037F03CFF53EC182B37F038FFC4E900014E
:107250000120C8E737F012FA41EC100BBD4208D00C
:1072600053EC1B2B51EC100B37F008FAC4E900016A
:107270000BE053EC192B51EC100B37F0FFF953ECEA
:10728000182B37F0FBF9C4E900014FF0FF30AAE7F3
:10729000C348A84279DB9DED120B51EC100B0DF0A9
:1072A00098FA41EC180B9FEDC00B53EC102B37F004
:1072B000F9FC9FEDBF1B53EC112B37F0DFF937F0D2
:1072C0002DFC074637F087FC41EC190B53EC1A2BC9
:1072D00037F0E8FC53EC182B37F018FE41EC180B94
:1072E00053EC1B2B51EC190B37F0DCFCDFF8C8A278
:1072F00041EC100B4FEA15580125FA4453EC102BC2
:1073000051EC180B37F0DAFE032DC4E900013DD033
:10731000C1F30A5005EB4511A8EB00001139814279
:1073200034DA0AEB051BB0EE48AA9BED000BF0EE39
:1073300068AA53EC102B51EC190B37F0B3FC41EC5D
:107340001B0B51EC1A0B53EC1B2B37F0B7FE41EC27
:10735000180B51EC1A0B53EC182B37F0AFFE53EC13
:107360001B2B37F0ABFE9BED020B41EC1A0B53ECE1
:10737000102B51EC190B37F095FC53EC1A2B37F00E
:107380009DFE41EC100B6D1CB8E70EE0002EA8BF6F
:107390003846BFF628AF94ED000B51EC100B37F0D8
:1073A0002FF9C4E9000178421DE7C6F3130040F449
:1073B000801EC6F30A50A0F2F530471100F01F05F9
:1073C000C5F12000DDF848B0089000200690079035
:1073D0000520EC467949002D07EB0002794408BFEF
:1073E00051F8221009D051F8223001EB8201AB4054
:1073F0004A68089922FA01F11943A1FB0E26A1FB64
:107400000B131A449A4234BF0123002303EB0608EE
:107410000CEB8003D3E901A60E448E4234BF012158
:10742000002192448A4411B1924502D903E0924569
:1074300001D2012100E00021C3E901A641444CF83A
:107440002010011EA0F10100C4DC029800F10050E0
:10745000850F0298DDE903678000DDF8148037F0BE
:10746000BAFB41EC1A0B304637F0CCFB9FED541BB6
:1074700053EC112B37F016FC41EC1B0B384637F060
:10748000C1FB9FED511B53EC112B37F00BFC41EC72
:10749000180B404637F0B6FB9FED4D1B53EC112BFC
:1074A00037F000FC41EC190B51EC180B53EC192B85
:1074B00037F0E4F853EC1B2B37F0E0F853EC1A2BC1
:1074C00037F0DCF8CDE90801002008909DED080BAD
:1074D00053EC1A2B51EC100B37F0F0FD53EC1B2B37
:1074E00037F0ECFD53EC182B37F0E8FD53EC192B7B
:1074F00037F00CFD9FED381B53EC112B37F0D2FB0E
:107500009FED370B41EC180B53EC102B9DED080B46
:1075100051EC100B37F0C6FB53EC182B37F0AEF8DC
:107520009FED310B41EC180B53EC102B9DED080B2C
:1075300051EC100B37F0B6FB53EC182B37F09EF8DC
:1075400041EC100B139810F0004F06D06D4251EC37
:10755000100B37F055F841EC100B284684ED000B6A
:1075600041E60000000000000000000000000000F4
:10757000FB21E93F7CD9024000004054FB21F93F48
:107580003163621A61B4D03DFB21F93F0000000075
:107590000000601A61B4D03D7370032E8A19A33BBA
:1075A000FB2139410000000083C8C96D305FE43F12
:1075B000000000000000E03F6AA90600B8A806002D
:1075C000000000000000103E000000000000103C21
:1075D000000000000000103A182D4454FB21F93D32
:1075E0003326A611460B113C00000054FB21F93D47
:1075F00010B52DED040B2DED088B82B0B0EE419A45
:10760000F0EE619A0B9820F000449FED4BABB4F183
:10761000795F11DA9DED0A0B51EC100B37F07EFA11
:10762000002801BFB0EE4A0AF0EE6A0A02B0BDECD3
:10763000088B04BF04B010BD9DED0A0B53EC102B5A
:1076400051EC100B37F02EFB41EC180B3C48062197
:10765000B0EE480AF0EE680A784400F081F853EC86
:10766000182B51EC100B37F01DFB9DED0A0B41EC74
:107670001B0B53EC192B51EC100B37F013FB41ECA7
:10768000190B53EC1B2B51EC180B37F00BFB53EC85
:10769000192B37F013FD9FED2C0B41EC190B53EC1C
:1076A000102B51EC180B37F0FDFA41EC100B284869
:1076B000844210DA53EC192B51EC100B37F0FEFC1E
:1076C00053EC1A2B37F022FC41EC100B02B0BDEC4E
:1076D000088B04B010BD1F48A042BCBF9FED1E1B0D
:1076E0008DED001B06DBA4F500100190002000903A
:1076F0009DED001B51EC100B53EC112B37F0DEFC11
:107700009DED000B41EC180B53EC102B51EC1A0BB8
:1077100037F0D4FC41EC1A0B53EC192B51EC180B3D
:1077200037F0CCFC53EC1A2B37F0F0FB41EC100B8C
:10773000CCE7000000000000000000000000F03F67
:10774000D4A5060000000000000000000000E03F9B
:107750003333D33F0000E93F000000000000D23F78
:1077600070B504462DED028B4D1E00EBC500B0EE4A
:10777000408AF0EE608A90ED000B35F0060017D0DD
:1077800053EC182B51EC100B37F08CFA41EC100B2A
:107790006D1E04EBC50090ED001B51EC100B53EC7B
:1077A000112B36F06BFF41EC100B35F00600E7D1E2
:1077B000022D36D0042D1CD0062D1CBFBDEC028B33
:1077C00070BD53EC182B51EC100B37F06BFA94EDA5
:1077D0000A1B53EC112B36F051FF53EC182B37F0EA
:1077E00061FA94ED081B53EC112B36F047FF41EC86
:1077F000100B53EC182B51EC100B37F053FA94ED9F
:10780000061B53EC112B36F039FF53EC182B37F0D5
:1078100049FA94ED040B53EC102B36F02FFF41EC9A
:10782000100B53EC182B51EC100B37F03BFA94ED86
:10783000021B53EC112B36F021FF53EC182B37F0C1
:1078400031FA94ED001B53EC112B36F017FFBDEC11
:10785000028B41EC100B70BD31B504462DED040BCD
:107860002DED0A8BB0EE41BAF0EE61BA0B989DEDAA
:107870000A0B20F00040B0F1795F0DDA51EC100BEB
:10788000FEF7F8F9042808BF00F072FA9DED0A0B24
:10789000BDEC0A8B05B030BD53EC102B51EC100B36
:1078A00037F000FA41EC180B9DED0A0B53EC182B46
:1078B00051EC100B37F0F6F941EC190B2C48B0EEF7
:1078C000480AF0EE680A05217844FFF749FF9FED6A
:1078D0002ACBB0EE40AAF0EE60AA9CB353EC1C2B6E
:1078E00051EC190B37F0DEF941EC1C0B53EC1A2B61
:1078F00051EC190B37F0D6F99FED210B41EC190B28
:1079000053EC102B51EC1B0B37F0CCF953EC192B2B
:1079100037F0D4FB53EC182B37F0C4F953EC1B2B86
:1079200037F0CCFB53EC1C2B37F0C8FB9DED0A1B4A
:1079300053EC112B37F0EAFABDEC0A8B05B041ECA1
:10794000100B30BDFFE753EC1A2B51EC180B37F03E
:10795000A9F953EC1C2B36F091FE53EC192B37F0A0
:10796000A1F99DED0A1B53EC112B36F087FEE3E7DE
:1079700064A4060000000000495555555555C5BF83
:10798000000000000000E03FF1B506462DED040BBD
:10799000BD482DED0C8B8AB0B0EE418AF0EE618AC5
:1079A000179D25F000449FEDBABB9FEDBBCB8442F1
:1079B00008DA9DED160B51EC100B37F0AFF80028EC
:1079C00000F0E980B64FA74231DC002D0DDA9DEDC5
:1079D000160B51EC100B36F013FECDE9160151ECED
:1079E000180B36F00DFE41EC180B9FEDAF0B53EC6E
:1079F000102B9DED160B51EC100B37F087FA53EC62
:107A0000182B9FEDAB0BCDE9040151EC100B37F0B7
:107A100055FB41EC100B53EC102B9DED040B51EC7E
:107A2000100B36F02BFE9FEDA48BCDE916019DEDDA
:107A3000160B53EC102B51EC100B37F033F9CDE94A
:107A400004019DED040B53EC102B51EC100B37F09F
:107A500029F941EC190B9A480621B0EE490AF0EEDB
:107A6000690A7844FFF77CFE9648B0EE40DAF0EE03
:107A700060DAB0EE490AF0EE690A06217844FFF7B1
:107A80006FFE9DED041B51EC100B53EC112B37F0E6
:107A900009F99DED040B41EC1A0B53EC102B9DEDF5
:107AA000160B51EC100B37F0FDF841EC190B53ECB1
:107AB0001A2B51EC1D0B36F0E1FD53EC192B37F06E
:107AC000F1F853EC182B36F0D9FD9DED041B53EC67
:107AD000112B37F0E7F853EC182B36F0CFFD41ECC3
:107AE000180B9FED790B51EC190B53EC102B37F061
:107AF000D9F853EC182B36F0C1FD41EC190B9DED74
:107B0000160B53EC192B51EC100B36F0B7FD41EC72
:107B1000180BA74269DC304637F05DF841EC1A0BD0
:107B200051EC180B53EC1A2B36F0A8FD41EC1B0B53
:107B300053EC182B51EC180B37F0B4F853EC1B2B0B
:107B400036F058FE53EC192B37F0B8FA9DED161BA2
:107B500053EC112B37F0DAF99FED5D1B53EC112B31
:107B600037F0A0F853EC1A2B37F0D0F941EC180B92
:107B7000022000EAA570C0F1010037F02CF853ECA8
:107B8000182B37F08FF800BF41EC100B0AB0BDEC9A
:107B90000C8B05B0F0BD711C1698214308430CD026
:107BA0009DED160B012E1CBF53EC102B51EC1C0B42
:107BB00010D000BF36F01EFEE6E79DED160B51EC2F
:107BC000100B0CF006FE41EC100B51EC1B0B53ECB0
:107BD000102BEFE751EC100BFEF74CF8042808BF10
:107BE00000F0C6F89DED160BD0E7012E04BFB0EEF5
:107BF000480AF0EE680AC9D08DED048B0024049485
:107C00009DED040B53EC102B9DED160B51EC100B5E
:107C100037F07CF953EC192B37F078F941EC190B5C
:107C200053EC182B51EC1C0B36F0E4FD41EC180B17
:107C30008DED008B00949DED040B53EC102B9DED0E
:107C4000000B51EC100B37F02DF853EC1B2B36F0DA
:107C500015FD9DED000B41EC1A0B53EC192B51EC6B
:107C6000100B37F01FF853EC1A2B36F007FD53ECCE
:107C7000182B37F017F89DED001B53EC112B36F045
:107C8000FDFC81E7000000000000303E0000000025
:107C9000000000000000F03F000000000000F0BF06
:107CA0002894E53F00000000182D4454FB21E93FD3
:107CB000075C143326A6813C000000000000000091
:107CC000F2A2060008A30600635555555555D53F49
:107CD00000000000000000409FED070B10B553ECC2
:107CE000102B9FED070B51EC100B36F083FD41EC90
:107CF000100B10BD0000000000000000000000009C
:107D0000000000000000F03F10B553EC102B51ECC8
:107D1000100B36F0B3FC41EC100B10BD10B553EC5A
:107D2000112B51EC100B36F0A9FC41EC100B10BDDF
:107D30009FED050B10B553EC102B51EC100B36F0EA
:107D400059FD41EC100B10BD0000000000000000C8
:107D50009FED050B10B553EC102B51EC100B36F0CA
:107D6000A1FF41EC100B10BD0000000000000070EE
:107D70009FED050B10B553EC102B51EC100B36F0AA
:107D800091FF41EC100B10BD00000000000000103E
:107D900010B5044691ED000BFDF7A2FF84ED000A3B
:107DA00010BD10B5044690ED000B0846FEF794F8A0
:107DB00084ED000B10BD70B50446002508E0216875
:107DC000481C20600878303805EB850100EB410540
:107DD0002168087800F004F80028F0D1284670BD2A
:107DE0000146302903DB392901DC012070470020DE
:107DF000FCE730380A2801D2012070470020704784
:107E000010B54021074801F0E3FA0022042106489A
:107E10002DF088FA0549086002F098FD0020044919
:107E2000087010BDD0DA002019AA00082402002032
:107E30002002002030B50346B1F90040B2F90050ED
:107E4000AC4202DDB1F9004001E0B2F900401C8013
:107E5000B1F90240B2F90250AC4202DDB1F9024080
:107E600001E0B2F902405C80B1F90440B2F904507B
:107E7000AC4202DAB1F9044001E0B2F904409C805E
:107E8000B1F90640B2F90650AC4202DAB1F9064047
:107E900001E0B2F90640DC800120B3F90040B3F9FB
:107EA0000450AC4205DCB3F90240B3F90650AC42D1
:107EB00000DD002030BDF8B504460D46164600270B
:107EC000B4F90000B5F90010884212DBB4F90200E1
:107ED000B5F9021088420CDBB4F90400B5F90410BE
:107EE000884206DCB4F90600B5F90610884200DCC9
:107EF00001270FB90020F8BD0EB90120FBE720884B
:107F0000ADF800006088ADF80200324669462846A8
:107F100000F0A7F808B90020EDE7A088ADF8000050
:107F20006088ADF8020032466946284600F099F8AC
:107F300008B90020DFE72088ADF80000E088ADF840
:107F4000020032466946284600F08BF808B9002046
:107F5000D1E7A088ADF80000E088ADF80200324615
:107F60006946284600F07DF808B90020C3E70120E3
:107F7000C1E70246B2F90000B1F90430984213DCBF
:107F8000B2F90400B1F9003098420DDBB2F90200F9
:107F9000B1F90630984207DCB2F90600B1F90230B7
:107FA000984201DB012070470020FCE7F8B5044649
:107FB0000D461646B4F90400B5F90010884211DBED
:107FC000B4F90600B5F9021088420BDBB4F90000E1
:107FD000B5F90410884205DCB4F90200B5F90610C1
:107FE000884201DD0120F8BD0EB90020FBE72088A2
:107FF000ADF800006088ADF80200324669462846B8
:1080000000F02FF808B10020EDE7A088ADF80000DF
:108010006088ADF8020032466946284600F021F833
:1080200008B10020DFE72088ADF80000E088ADF857
:10803000020032466946284600F013F808B10020D5
:10804000D1E7A088ADF80000E088ADF80200324624
:108050006946284600F005F808B10020C3E7012072
:10806000C1E72DE9FC5F05460E4614464FF0000AB5
:10807000B6F90000B5F90010884213DBB6F900002C
:10808000B5F9041088420DDCB6F90200B5F902100A
:10809000884207DBB6F90200B5F90610884201DC18
:1080A0004FF0010ABAF1000F02D10020BDE8FC9F99
:1080B000002C01DC0120F9E7284617F09FF88346E1
:1080C00000EBDB704710284617F017F8834600EBEB
:1080D000DB704FEA6008474501DA384600E0404669
:1080E00081464C4500DD4C462888ADF800002888C4
:1080F000204400B2ADF804006888ADF8020068883A
:10810000204400B2ADF80600002231466846FFF771
:10811000A8FF80B1BDF80400204400B2ADF804000F
:10812000BDF80600204400B2ADF8060031466846AE
:1081300029F098FBBAE7E888001B00B2ADF802000E
:10814000E888ADF80600002231466846FFF789FF4F
:1081500080B1BDF80400204400B2ADF80400BDF8C1
:108160000200001B00B2ADF802003146684629F05B
:1081700079FB9BE7A888001B00B2ADF80000A88837
:10818000ADF80400002231466846FFF76AFF80B16F
:10819000BDF80000001B00B2ADF80000BDF8020001
:1081A000001B00B2ADF802003146684629F05AFBC8
:1081B0007CE76888ADF802006888204400B2ADF81A
:1081C0000600002231466846FFF74BFF80B1BDF83C
:1081D0000000001B00B2ADF80000BDF8060020440E
:1081E00000B2ADF806003146684629F03BFB5DE77A
:1081F00001205BE710B5B1F90030B2F90040A342AD
:1082000002DAB1F9003001E0B2F900300380B1F9CF
:108210000230B2F90240A34202DAB1F9023001E0C1
:10822000B2F902304380B1F90430B2F90440A342FC
:1082300002DDB1F9043001E0B2F904308380B1F914
:108240000630B2F90640A34202DDB1F9063001E082
:10825000B2F90630C38010BD2DE9FF4104462DF070
:108260005CF805460020039034B14749E068086097
:1082700020462DF06FF903E019F0C0FF4249086075
:1082800041490968086928F039FF3F48006840699A
:1082900020B13D490968486928F030FF3A4909682A
:1082A000C86928F02BFF38490968086A28F026FFBA
:1082B00035480068006940B9002033490968A1F8D1
:1082C000500100BF00BFBDE8FF812AF035F92AF058
:1082D0007BF82D480068B0F8500100284BD02A48A0
:1082E00000680068007CC0F34000E8B126480068E0
:1082F0001AF002F8401E06B22348006819F096FFF3
:10830000401E07B23B460022114601A8009616F017
:10831000B3FF01A81C4909680968896B48601A48BD
:10832000006807F057F900BF4FF4807116480068E5
:10833000303023F0C4F820211348006800F598700D
:1083400023F0BDF8002010490968A1F85001284623
:108350002CF0D6FF03900C4800680068406A50B1CA
:108360000949096808680849096809684B6A0749A2
:108370000A680399984722F0DBFD00F03FF800F00F
:1083800007F800BF9FE700005801002054010020BB
:1083900010B5002416E0C4EBC4000C4951F82000CD
:1083A00030B1C4EBC401094A52F8210022F072FE38
:1083B000C4EBC401054A02EB81001C2123F07FF8C5
:1083C000601CC4B2042CE6DB10BD0000ACDB002056
:1083D0000146094A10680BE042688A4202D00268EE
:1083E0008A4204D1027E22F00102521C02764069C8
:1083F0000028F1D1704700002C01002070470000D8
:1084000010B50421014800F0E3FF10BDC4DA0020DC
:1084100010B51C21014800F0DBFF10BDDCDA0020A4
:108420002DE9FF4F8BB004469A46199DBAF1000F13
:1084300011D11898B0F5807F0DD100202080608088
:108440000C98401E00B2A0800D98401E00B2E08043
:108450000FB0BDE8F08FB5F90000404218994843CD
:108460000121C1EB202000B22080B5F9020040427A
:10847000189948430121C1EB202000B26080B5F972
:1084800000100C98401A18994843022101EB202053
:1084900000B2A080B5F902100D98401A189948430F
:1084A000022101EB202000B2E080BAF1000F14D1CC
:1084B00020882988084400B22080608869880844A0
:1084C00000B26080A0882988084400B2A080E088BB
:1084D0006988084400B2E080BAE70A209AFBF0F00D
:1084E0000A900A98401C09900A9800EB8000AAEBB9
:1084F000400B0A9800B22DF0BFF90890099800B21D
:108500002DF0BAF907900A985A3000B22DF0B4F95C
:10851000069009985A3000B22DF0AEF90590CBF1D3
:108520000A0108984143079800FB0B100A2190FBB1
:10853000F1F6CBF10A0106984143059800FB0B10B8
:108540000A2190FBF1F776117F11B4F90080B4F99C
:10855000029007FB08F006FB1900298801EBA02018
:1085600000B2ADF8100006FB08F007FB09006988AF
:1085700001EBA02000B2ADF81200B4F90480B4F908
:10858000029007FB08F006FB1900298801EBA020E8
:1085900000B2ADF80C0006FB08F007FB0900698883
:1085A00001EBA02000B2ADF80E00B4F90080B4F9E0
:1085B000069007FB08F006FB1900298801EBA020B4
:1085C00000B2ADF8080006FB08F007FB0900698857
:1085D00001EBA02000B2ADF80A00B4F90480B4F9B0
:1085E000069007FB08F006FB1900298801EBA02084
:1085F00000B2ADF8040006FB08F007FB090069882B
:1086000001EBA02000B2ADF80600BDF90800BDF9ED
:108610001010884202DABDF9080001E0BDF910002F
:10862000BDF90410BDF90C20914202DABDF9041025
:1086300001E0BDF90C1088420BDABDF90800BDF964
:108640001010884202DABDF908000DE0BDF91000F3
:108650000AE0BDF90400BDF90C10884202DABDF948
:10866000040001E0BDF90C002080BDF90800BDF94F
:108670001010884202DDBDF9080001E0BDF91000CC
:10868000BDF90410BDF90C20914202DDBDF90410C2
:1086900001E0BDF90C1088420BDDBDF90800BDF901
:1086A0001010884202DDBDF908000DE0BDF9100090
:1086B0000AE0BDF90400BDF90C10884202DDBDF9E5
:1086C000040001E0BDF90C00A080BDF90A00BDF96D
:1086D0001210884202DABDF90A0001E0BDF9120069
:1086E000BDF90610BDF90E20914202DABDF906105F
:1086F00001E0BDF90E1088420BDABDF90A00BDF9A0
:108700001210884202DABDF90A000DE0BDF912002C
:108710000AE0BDF90600BDF90E10884202DABDF983
:10872000060001E0BDF90E006080BDF90A00BDF948
:108730001210884202DDBDF90A0001E0BDF9120005
:10874000BDF90610BDF90E20914202DDBDF90610FB
:1087500001E0BDF90E1088420BDDBDF90A00BDF93C
:108760001210884202DDBDF90A000DE0BDF91200C9
:108770000AE0BDF90600BDF90E10884202DDBDF920
:10878000060001E0BDF90E00E08000BF60E62DE9C3
:10879000F74F86B0044620680590B4F90810079892
:1087A000A0EB0108B4F90A100898A0EB0109E089D0
:1087B000B0F5807F13D1206B00FB08F0E16A01FB6C
:1087C0001901606A00EBA10BE06A00FB08F0216B65
:1087D00001FB0901A06A00EBA10004902FE0A08931
:1087E00080B9A06B00FB08F04FEA6018A06B00FB9B
:1087F00009F04FEA6019606A00EB080BA06A484470
:1088000004901CE0A06B00FB08F04FEA6018A06B1E
:1088100000FB09F04FEA6019206B00FB08F0E16AE9
:1088200001FB1901606A00EBA12BE06A00FB08F074
:10883000216B01FB0901A06A00EBA12004904FEA23
:108840002B2604980712B4F90400B04203DC002080
:1088500009B0BDE8F08F002E01DA0020F8E7B4F986
:108860000600B84201DC0020F2E7002F01DA002008
:10887000EEE73420005DC0F3800050B33420005D8B
:10888000C0F3400078B90225B4F904007843684386
:1088900006FB050A059800EB0A012A4604F11400BC
:1088A00022F0BBFD2CE00325B4F9040078436843B3
:1088B00006FB050A6A1E059800EB0A0104F1140084
:1088C00022F0ABFD0AEB0500401E0599095CA1757D
:1088D00016E04FF0000A0025208A03463AB231B272
:1088E000019004F118001EF013FC0290BDF808007E
:1088F000A0823AB231B204F118001EF069FBA075F3
:108900003420005D00F00100B0B14FF47F40002141
:1089100000F47C4241EA5211C0F3C40211430191B8
:10892000BDF8042011460291A08ABDF808108842C3
:1089300001D100208CE700BFE07C08B9012087E767
:108940000FFA8BF1A187049801B2E18731B2402080
:10895000015339B242200153C4F844A084F848506E
:10896000204600F003F80390039871E72DE9F04FDB
:108970008DB00446D4F8009094F83C000C9094F824
:108980003E000B900C9870280BDA4FF0FF35B4F9CD
:1089900040002844002800DA00250C988030C7B237
:1089A00013E00C9890280EDD0125B4F9400028440E
:1089B000B4F90410884200DB00250C98C0F1FF00D8
:1089C0008030C7B201E00025FF270B9870280CDA31
:1089D0004FF0FF36B4F942003044002800DA002698
:1089E0000B98803000F0FF0815E00B9890280FDD01
:1089F0000126B4F942003044B4F90610884200DB85
:108A000000260B98C0F1FF00803000F0FF0802E064
:108A100000264FF0FF08A08A0A90A07D0690002053
:108A20000590049003903420005DC0F3800000287E
:108A30005BD094F84800626C00FB052000EB090154
:108A4000022209A822F0E9FCA28894F8480012FB4F
:108A500000F2606C02FB060000EB0901022208A88C
:108A600022F0DBFCA28894F8480012FB00F2606C54
:108A700002FB060294F8480000FB052000EB090108
:108A8000022207A822F0C9FC3420005DC0F3400098
:108A900000287ED094F84800616C00FB0511084462
:108AA000401E19F800000590A18894F8480011FBB9
:108AB00000F1606C01FB060194F848000844401E78
:108AC00019F800000490A18894F8480011FB00F107
:108AD000606C01FB060194F8480000FB0511084496
:108AE000401E19F80000039053E0208A0090B4F96A
:108AF00042204020005B284401B204F11800009B92
:108B00001EF006FB0990208A00904220005B304452
:108B100002B2B4F9401004F11800009B1EF0F8FAFC
:108B20000890208A00904220005B304402B240202E
:108B3000005B284401B204F11800009B1EF0E8FA23
:108B400007903420005DC0F3400010B3B4F9422018
:108B50004020005B284401B204F118001EF038FAEE
:108B600005904220005B304402B2B4F9401004F199
:108B700018001EF02DFA04904220005B304402B22F
:108B80004020005B284401B204F118001EF020FAD6
:108B90000390BA46BB463420005DC0F34000E0B30A
:108BA00006987843C7F1FF0C059B03FB0C00C0F34C
:108BB000072104987843C7F1FF0C039B03FB0C00CB
:108BC000C0F3072201FB08F0C8F1FF0302FB03001A
:108BD000030AA375022905DC022A03DC00200DB07C
:108BE000BDE8F08F022901DC4FF00008022A01DC09
:108BF0004FF0FF080698022801DC4FF0000A0598A4
:108C0000022801DC4FF0FF0A0498022801DC4FF033
:108C1000000B0398022803DC00E002E04FF0FF0B9A
:108C200003E0BA46BB46FF21A175BAF1000F02D19D
:108C3000099802900BE0BAF1FF0F02D10A98029056
:108C400005E05246DDE9091018F014FF0290BBF16F
:108C5000000F02D1079801900BE0BBF1FF0F02D18A
:108C60000898019005E05A46DDE9071018F002FF68
:108C70000190B8F1000F03D1BDF80400A0820FE00D
:108C8000B8F1FF0F03D1BDF80800A08208E042460A
:108C9000DDE9011018F0EEFE0090BDF80000A082A2
:108CA00001209CE72DE9F05F0446B4F908000102B9
:108CB0006162B4F90A000102A162B4F90C000A2150
:108CC00090FBF1F56F1CB4F90C0005EB8501A0EBEE
:108CD0004106684200B22CF0CFFD8046784200B2D7
:108CE0002CF0CAFD8146C5F15A0000B22CF0C4FD3B
:108CF0008246C7F15A0000B22CF0BEFD8346C6F191
:108D00000A0000FB08F009FB06000A2190FBF1F1C4
:108D1000E162C6F10A0000FB0AF00BFB06000A2123
:108D200090FBF1F12163E06A4111E162206B411196
:108D30002163A07C1EF0A3FC3421095D60F30001D7
:108D400034200155A07C1EF07DFC3421095D60F3C8
:108D5000410134200155A07C042805D0A07C0528C1
:108D600002D0A07C062807D13420005D20F004004A
:108D7000001D3421085505E03420005D20F0040179
:108D80003420015521682162A06920F0E000A06133
:108D9000A17CA06961F30400A061A188A06961F3CE
:108DA0009420A061E188A06961F35F50A061E0892F
:108DB00000EBD071491001F5001191FBF0F2A263B4
:108DC000FF21A175208AA082BDE8F09F2DE9F7431D
:108DD000054616460024134C2CF09FFA8046334675
:108DE00029462046019A1FF0F9F807465FB900BFEF
:108DF00000BF2C21204622F062FB4FF00040A06211
:108E00000020BDE8FE830020A062E06918B940465A
:108E10002CF076FAE061E06908B90120E0612046B3
:108E2000EFE7000000DB002010B51421114800F02E
:108E3000CFFA1FF085F8044600BF1CB900BF00BF81
:108E400000BFFEE700BF14B900BF00BF10BD0A4954
:108E500020461FF05DF9094920461FF05BF90849DB
:108E600020461FF059F9074920461FF04FF900BF6F
:108E7000ECE70000E8DA00205D770208317C0208A8
:108E80004D7E02082577020870B504460D46102174
:108E9000284622F014FB20680078012804D1208A9B
:108EA0002880608A68800CE020680078022802D15F
:108EB000E068686005E020680078042801D10A2095
:108EC00068602068406820B1206829464268904761
:108ED00001E000BF00BF70BD2DE9FE430446A66A55
:108EE000EEB9A18A208A084401B2A182E18A608A8F
:108EF000084401B2E18220460CF0C4F806460EB9DF
:108F0000BDE8FE83204610F0CFFB00220921304649
:108F10001DF02EF86078C0F3400000B1F0E7208A21
:108F200010B9608A002870D000200290019094F857
:108F30003C0000F00F00032812D1304624F0DCFE84
:108F40000746304624F060FE804603200090B4F9C6
:108F500010103B46424630460AF085FA029012E075
:108F6000304624F04BFF0746304624F0E3FD8046B0
:108F70000C200090B4F9121043463A4630460AF0ED
:108F800072FA019000BF304624F034FE054605F029
:108F9000010028B9BDF90800002801DD0020029079
:108FA00005F0020028B9BDF90800002801DA002008
:108FB000029005F0040028B9BDF90400002801DD85
:108FC0000020019005F0080028B9BDF90400002830
:108FD00001DA0020019001AA02A9204630F020FA0F
:108FE0000023BDF90420BDF90810304627F0D8FA57
:108FF000A08ABDF80810084401B2A182E08ABDF839
:109000000410084401B2E18200BF00BF78E72DE9F7
:10901000F84F0446D4F828B0BBF1000F01D1BDE8E9
:10902000F88F94F83C0000F00F0000B9F7E71FF04C
:10903000B3FB06463068477E4021584625F0D9FFED
:1090400010B9002161832183584624F0C3FE804675
:10905000584624F0C9FE054694F83C0000F00F0085
:109060000C2843D1002121831DBBB4F91A00C7F19C
:1090700064014843642190FBF1F001B261835846DA
:1090800024F058FD8146584624F0B8FE82460C2054
:109090000090B4F91A104B46524658460AF0E3F9CC
:1090A0006083B4F91A2000231946584627F078FA4D
:1090B00069E0204630F00BFA0090002161836A4697
:1090C000204630F0ADF9BDF9003041F6FF72514253
:1090D00058460CF07FF98146BDF80000484402B2C2
:1090E00001230021584627F05BFA4CE094F83C003D
:1090F00000F00F00032846D100216183B8F1000F72
:1091000023D1B4F91800C7F164014843642190FBEE
:10911000F1F001B22183584624F076FD814658468D
:1091200024F0EAFD824603200090B4F9181053465B
:109130004A4658460AF097F92083B4F918100023DC
:109140001A46584627F02CFA1DE0204630F0A4F9C4
:1091500000900021218300226946204630F060F90A
:10916000BDF9003041F6FF72514258460CF098F8B4
:109170008146BDF80000484401B201230022584650
:1091800027F00EFA00BF208B002860D1608B0028EA
:109190005DD11DBB584624F031FE8146584624F06F
:1091A000C9FC8246B9F1000F02DCBAF1000F14DDF0
:1091B000B9F1000F06DA01234A460021584627F08C
:1091C000EFF90AE0BAF1000F07DA0123CAF1000053
:1091D00002B20021584627F0E3F900BFB8F1000FB2
:1091E00023D1584624F010FD8146584624F084FDD2
:1091F0008246B9F1000F02DCBAF1000F14DDB9F1BB
:10920000000F06DA012300224946584627F0C8F924
:109210000AE0BAF1000F07DA01230022CAF10000C8
:1092200001B2584627F0BCF900BF32460A21584621
:109230001CF09EFE6078C0F3400000B1EFE694F8A9
:109240003C0020F00F0184F83C100021A16200BF17
:10925000E5E62DE9FF4104460F4614B918F0CEFFAC
:1092600004460CB9BDE8FF811FB90020A4F85001E5
:10927000F8E70020ADF80800ADF80A00204618F025
:10928000D5FF401E00B2ADF80C00204619F034F8AE
:10929000401E00B2ADF80E0002AA39466846FEF73D
:1092A000C9FD064606B9DDE72068007CC0F3400032
:1092B00060B102982063039860630120A4F8500114
:1092C000606810B160682CF051F9CBE720688069C4
:1092D00018B1206869468269904700250BE004F1C7
:1092E000300000EBC50100226846FEF7E4FD00B146
:1092F000B8E7681C85B2B4F85001A842EFDCB4F8B6
:109300005001202809DAB4F8502104F1300101EBB2
:10931000C200694615F073FE0BE00020A4F850016E
:10932000B4F8502104F1300101EBC20002A915F09C
:1093300066FEB4F85001401CA4F85001606810B1FA
:1093400060682CF013F900BF8CE770B5054628461D
:1093500000F013F8044600260CE02146284600F0F1
:1093600024F806462146284600F086F8204621F0DB
:1093700091FE3446002CF0D170BD014609B90020A1
:1093800070474868FCE770B5064600243046FFF792
:10939000F4FF054605E0641C2946304600F005F858
:1093A0000546002DF7D1204670BD02460B461068D9
:1093B000001D03441868704702460B4610680344BA
:1093C00018687047014609B9002070478868FCE7B3
:1093D000002242608260CA1C22F0030101607047D3
:1093E00070B50446216801F1080021F085FD0546AD
:1093F000A5B10022294620462DF06AFD29462046C7
:1094000062682DF057FD606820B12A4620466168E9
:109410002DF05EFD6560A06800B9A560284670BDAE
:1094200070B50446216801F1080021F065FD05468C
:10943000A5B10022294620462DF03CFD29462046B4
:10944000A2682DF045FDA06820B12A462046A168FB
:109450002DF030FDA560606800B96560284670BDDC
:10946000014609B901207047486818B9886808B9E9
:109470000120F8E70020F6E72DE9F04104460D460B
:109480000CB9BDE8F0812046FFF777FFA8420FD165
:1094900029462046FFF789FF6060606810B9002008
:1094A000A0602FE00022204661682DF011FD29E028
:1094B0002046FFF787FFA8420FD129462046FFF735
:1094C0007BFFA060A06810B9002060601AE0002255
:1094D0002046A1682DF0EEFC14E029462046FFF757
:1094E0006BFF064629462046FFF75FFF07463A46D0
:1094F000314620462DF0DEFC3246394620462DF01E
:10950000E7FC00BF00BFBCE710B5044620688068D8
:1095100018B120682146826890472068006828B109
:109520002068006820602046FFF7EEFF10BD01466E
:10953000886818B18868B0F9160070470020FCE709
:109540002DE9F04F93B005468B4691469A461C9EF6
:10955000688C20F00400001D6884A5F820903289F2
:109560005946284625F0BAFB1290A5F820A032896A
:109570005946284625F0B2FB1190688C20F0040073
:109580006884DDE9111088420CD1DDE911108842B0
:1095900008D1BDF84800BDF84410884202D113B08C
:1095A000BDE8F08FA5F8209032895946284625F06D
:1095B00095FB1290A5F820A0594628460EF044FAD3
:1095C00010903189109A1068129A2AF033FB308972
:1095D000602833D147F6FF711298884202D0119863
:1095E00088422BD1284625F0FBFC0F9000EBD07071
:1095F0004710284625F0F4FC0F9000EBD0704FEA9E
:10960000600847F6FF711298884208D1781C08F16B
:109610000101884200DA01E008F10100129047F6EA
:10962000FF711198884208D1781C08F10101884225
:1096300000DA01E008F10100119000BF2448FFF7B3
:10964000CFFE044600BF1CB900BF00BF00BFFEE74D
:1096500000BF04B9A3E71298E06011982061ACB391
:1096600025603089A080C4F808B0684614F0E4FD95
:109670002146684614F06CFE1649684614F03EFE1A
:109680001548029000BF1549684614F043FEFF22BA
:109690000021684614F050FE3188684614F042FEFE
:1096A0007188684614F025FEF068069000BF684691
:1096B000002190F83E2061F3000280F83E2000BFB8
:1096C00030690590684614F05BFE00BF00BF66E796
:1096D000F4DA0020FDC80308A9CB0308D9CA03089F
:1096E00010B514210148FFF773FE10BDF4DA002015
:1096F0002DE9FE4F04460F4690464FF00009002525
:109700006BE1E06800EBC5004068C0F3406000B169
:1097100062E1E16801EBC501496821F07F4027F073
:10972000DFFC064626EA070008B9012000E0002019
:10973000029026EA080008B9012000E0002001900C
:10974000DDE90101814272D0E06850F835A04FF0A8
:10975000000B6A4641F61001504629F011FF10B186
:109760004FF0010BA9E06A4641F61101504629F07D
:1097700007FF10B14FF0010B9FE06A4641F612015E
:10978000504629F0FDFE10B14FF0010B95E06A46FE
:1097900041F61301504629F0F3FE10B14FF0010BD2
:1097A0008BE06A4641F61501504629F0E9FE10B1FA
:1097B0004FF0010B81E06A4641F61401504629F052
:1097C000DFFE10B14FF0010B77E06A4641F269010C
:1097D000504629F0D5FE10B14FF0010B6DE06A46FE
:1097E00043F20C01504629F0CBFE10B14FF0010BB3
:1097F00063E06A4643F20D01504629F0C1FE10B104
:109800004FF0010B59E06A4641F20101504629F040
:10981000B7FE10B14FF0010B4FE06A4641F2040170
:10982000504629F0ADFE18B14FF0010B45E0D2E0F3
:109830006A4641F20201504629F0A2FE10B14FF0F3
:10984000010B3AE06A4641F20301504629F098FEC6
:1098500010B14FF0010B30E06A4641F2050150466D
:1098600029F08EFE10B14FF0010B26E06A4641F25E
:109870000601504629F084FE10B14FF0010B1CE0A8
:109880006A4641F23201504629F07AFE10B14FF09B
:10989000010B12E06A4643F60F01504629F070FEB4
:1098A00010B14FF0010B08E06A4643F60E01504636
:1098B00029F066FE08B14FF0010BBBF1000F02D09A
:1098C0000320BDE8FE8F6A4640F60A01504629F0A3
:1098D00057FE10B14FF002097CE06A4640F60B01DA
:1098E000504629F04DFE10B14FF0020972E06A4671
:1098F00043F60F01504629F043FE10B14FF0020924
:1099000068E06A4643F60E01504629F039FE10B170
:109910004FF002095EE06A4640F63C01504629F0ED
:109920002FFE10B14FF0020954E06A4640F63D01A7
:10993000504629F025FE10B14FF002094AE06A4670
:1099400040F63A01504629F01BFE10B14FF00209D3
:1099500040E06A464FF40461504629F011FE10B110
:109960004FF0020936E06A4640F64501504629F0BC
:1099700007FE10B14FF002092CE06A4640F64101A3
:10998000504629F0FDFD10B14FF0020922E06A4671
:1099900040F64201504629F0F3FD10B14FF00209A4
:1099A00018E06A4640F64301504629F0E9FD10B13F
:1099B0004FF002090EE06A4640F64901504629F090
:1099C000DFFD10B14FF0020904E0B9F1000F01D141
:1099D0004FF0010900BF00BF6D1C608CC0F3C500D3
:1099E000A8423FF68EAE48466BE70000014800688B
:1099F000704700005801002070470146C1F304126F
:109A0000072A00DD0722D0B27047000010B51821E8
:109A10000348FFF7DDFC01202BF0C0FC10BD000067
:109A2000A0DA00202DE9F04105460F4616460DB993
:109A3000BDE8F0812846F6F743FF804639462846C0
:109A40000A4A126890470746E8193146074A1268E1
:109A5000904706463C4603E0A019285C2855641C44
:109A6000A8EB0600A042F7D200BFE1E77002002099
:109A70002DE9F04106460C4617461D46294630465C
:109A8000084A126890472060206830B12968881918
:109A90000021044A1268904700E000203860BDE8C9
:109AA000F0810000680200202DE9F04F87B00446E5
:109AB0000F4692469846DDE910560DB100202880E9
:109AC0001CB9002007B0BDE8F08F207808B900204D
:109AD000F8E70FB90020F5E74FF0000906F00200A3
:109AE00010B906F0040098B1002000E0401C215C91
:109AF0000A2905D0215C0D2902D0215C0029F5D16D
:109B0000215C01B1401C15B14FF0FF312980D9E72C
:109B100006F0020008B141F6FF780020069005909B
:109B200038E000200490059808B9012000E00020EA
:109B300006A904AACDE90062CDE9021005996018D2
:109B40004346524639462BF0CFFE83460498A8EB95
:109B500000000FFA80F8049848440FFA80F9BBF12E
:109B6000000F00D11CE005985844059020780A2881
:109B700002D020780D2800D112E00598205C0A2838
:109B800003D00598205C0D2803D10598401C059052
:109B900006E000BF0598205C10B1B8F1000FC0DCF2
:109BA00000BF059870B905A92046094A1268904778
:109BB000834635B10022594638461CF0C4FB0FFAE3
:109BC00080F900BF0DB1A5F8009005987AE7000074
:109BD000680200202DE9F04706468846174606B180
:109BE0000FB9BDE8F0873046F6F76AFE8146384681
:109BF000F6F766FE044604B9F3E704EB090A4146AA
:109C000030460B4A126890478046554603E0281BB1
:109C1000305C70556D1E08EB0400A842F7D906EBC6
:109C200008002246394621F004FC00BFD9E70000B5
:109C300070020020024600200FA31B788B4211D136
:109C400013781BB90123137001200BE01378012B4B
:109C500002D10023137005E01378022B02D10023F8
:109C6000137001201378012B04D1202901D1022384
:109C70001370012070470000230000002DE9F04719
:109C800081460E4614461F46DDF820A035461BE0EF
:109C9000600800FB075529464846D047B0F1000848
:109CA00009DD04F0010080F00100C0EB5404E81964
:109CB0000546064608E0B8F1000F02DA64083546AA
:109CC00002E02846BDE8F087002CE1D10020F9E74A
:109CD0002DE9FF4F85B08346DDE9158ADDE913499B
:109CE000DDE91775129E05F00200F8B94FB105F0D5
:109CF000010030B1B9F1000F02D105F00C0000B144
:109D00007F1E03E030222046641C3254544501D2A9
:109D1000202CF7D303E030222046641C325405F097
:109D2000010018B1BC4201D2202CF4D305F0100080
:109D3000B0B305F4806050B94CB1544501D0BC4279
:109D400005D1641E1CB1B8F1100F00D1641EB8F12A
:109D5000100F09D105F0200030B9202C04D2782250
:109D60002046641C325415E0B8F1100F09D105F0FB
:109D7000200030B1202C04D258222046641C3254DA
:109D800008E0B8F1020F05D1202C03D26222204650
:109D9000641C3254202C03D230222046641C3254DE
:109DA000202C16D2B9F1000F04D02D222046641CBD
:109DB00032540EE005F0040020B12B222046641C32
:109DC000325406E005F0080018B120222046641C39
:109DD0003254CDE90275CDE90064584606A90EC992
:109DE00000F0A2F809B0BDE8F08F2DE9FF4F8FB069
:109DF0008046DDE91FABDDE91D96219D1C9C0027F7
:109E00000CB925F0100505F4806000B1E4B100BF85
:109E1000B4FBF6F106FB1141C8B20A2802DA00F1E0
:109E2000300107E005F0200109B1412100E0612186
:109E300001440A39CBB239467F1C07AA5354B4FBFC
:109E4000F6F40CB1202FE3D307A8CDE904AB8DE8DD
:109E5000810203960695404610A90EC9FFF738FF08
:109E600013B0BDE8F08F2DE9FF4F8FB0DDE9217B06
:109E7000DDF89080209EDDE91C454FF000090021AF
:109E800084EA01006940084301D128F0100808F471
:109E9000806028B1002184EA0100694008432DD088
:109EA00000BF32463B4620462946F6F782FA02F0CA
:109EB000FF0ABAF10A0F02DA0AF1300007E008F0EF
:109EC000200008B1412000E0612050440A38C2B2AD
:109ED000484609F1010907A90A5432463B46204683
:109EE0002946F6F766FA04460D46002184EA010089
:109EF0006940084302D0B9F1200FD2D32398CDE9AD
:109F0000036BCDE9050807A91E98CDE90019029059
:109F10000FA80FC8FFF7DCFE13B0BDE8F08F9A4220
:109F200000D28854704770472DE9FF5F05461446FC
:109F3000DDE90EA6DDE91087A34607F0020078B937
:109F400007F0010060B9B14607E02246641C2020FA
:109F5000039B0199A84709F10109C145F5D300BF49
:109F600008E02246641C711E0E461AF80100039B8D
:109F70000199A847002EF4D107F0020050B105E086
:109F80002246641C2020039B0199A847A4EB0B00E8
:109F90004045F5D3204604B0BDE8F09F00BF7047B0
:109FA00000BF70472DE9FF4F8BB0074600250C9886
:109FB00000B9FA4FEAE20E98007825280AD02A461E
:109FC0006D1C0E990878DDE90C13B8470E98401CFB
:109FD0000E90DBE20E98401C0E90002400BF0E98FD
:109FE00000782B2819D004DC20281ED023282CD15F
:109FF00023E02D2809D0302827D144F001040E9801
:10A00000401C0E9001200A9022E044F002040E98B9
:10A01000401C0E9001200A901AE044F004040E98AF
:10A02000401C0E9001200A9012E044F008040E98A3
:10A03000401C0E9001200A900AE044F010040E9893
:10A04000401C0E9001200A9002E000200A9000BF00
:10A0500000BF0A980028C2D180460E990878FDF703
:10A06000BFFE20B10EA8FDF7A6FE804612E00E98B6
:10A0700000782A280ED1189901C91891002804DA0D
:10A0800044F00204C0F1000800E080460E99491C2B
:10A090000E9100BF4FF000090E9800782E281FD1B6
:10A0A00044F480640E98401C0E900E990878FDF7D9
:10A0B00097FE20B10EA8FDF77EFE814610E00E98B7
:10A0C00000782A280CD1189901C91891002801DDBF
:10A0D000014600E0002189460E99491C0E9100BFFF
:10A0E0000E9800786C280AD004DC682816D06A28FC
:10A0F00035D128E0742820D07A2830D129E044F4E2
:10A1000080740E98401C0E900E9800786C2804D134
:10A1100044F400740E98401C0E9021E044F080043A
:10A120000E98401C0E900E980078682804D144F0D8
:10A1300040040E98401C0E9012E044F480740E9877
:10A14000401C0E900CE044F400740E98401C0E90DD
:10A1500006E044F480740E98401C0E9000E000BFAE
:10A1600000BF0E98007869281DD00EDC622821D02F
:10A1700006DC25287ED050281AD058287BD115E03F
:10A18000632879D06428F9D10CE0732875D004DCF9
:10A190006F280ED07028F1D109E0752804D07828F6
:10A1A000ECD102E000BF00BF00BF00BF00BF00BF96
:10A1B00000BF00BF0E980078782803D00E98007872
:10A1C000582801D1102623E00E980078702803D07B
:10A1D0000E98007850280CD1102644F0100444F456
:10A1E00080740E984078562812D10E98401C0E901C
:10A1F0000EE00E9800786F2801D1082608E00E982E
:10A200000078622801D1022602E00A2624F0100418
:10A210000E980078582803D00E980078502801D165
:10A2200044F020040E980078692805D00E98007834
:10A23000642801D024F00C0404F4806008B124F0F8
:10A2400001040E980078692803D00E9800786428DD
:10A250007CD104F40070B8B31898C01D20F007003A
:10A260001890D0E900AB189A083218920020CDE976
:10A27000069803E073E17CE1F2E01CE1CDE90460C3
:10A280000894BAEB00017BEB000001DA012000E04A
:10A290000020002102900846B1EB0A0170EB0B0090
:10A2A00002DA5046594605E000200146B0EB0A00AC
:10A2B00061EB0B01CDE900012A463846DDE90C13BC
:10A2C000FFF7D1FD0546C7E0FFE704F48070D0B189
:10A2D000189850F804AB18904FEADA70CDE903985B
:10A2E00002960594BAF1000F01DD514601E0CAF172
:10A2F0000001CDE900102A463846DDE90C13FFF7CE
:10A3000074FD0546A8E004F0400028B1189810F844
:10A31000041B1890C8B20DE004F0800028B1189812
:10A3200030F8041B189008B204E0189800681899D7
:10A33000091D189182464FEADA70CDE9039802961A
:10A340000594BAF1000F02DD514602E00BE0CAF1BC
:10A350000001CDE900102A463846DDE90C13FFF76D
:10A3600044FD054678E00E980078562818D11898D4
:10A3700050F804AB1890DAF80400006809900998C6
:10A380000090DAF800300D98421B0C9841193846BD
:10A39000FFF708FE0544002009905DE0279F0008B4
:10A3A00004F40070D0B11898C01D20F00700CDE96A
:10A3B0000698089418900020CDE90460029018993E
:10A3C00003C9189A08321892CDE900012A46384686
:10A3D000DDE90C13FFF747FD05463DE004F480700E
:10A3E00098B10022CDE90398029605941898006868
:10A3F0001899091DCDE9000218912A463846DDE971
:10A400000C13FFF7F2FC054626E004F0400028B1EB
:10A41000189810F8041B1890C8B20DE004F08000E2
:10A4200028B1189830F8041B189088B204E01898E6
:10A4300000681899091D189182460020CDE900A0F6
:10A44000CDE90398029605942A463846DDE90C13B7
:10A45000FFF7CBFC054600BF0E98401C0E9093E022
:10A46000012604F0020050B905E02A466D1C2020A8
:10A47000DDE90C13B8473046761C4045F5D31899F2
:10A4800011F8043BD8B22A466D1C1891DDE90C1373
:10A49000B84704F0020050B105E02A466D1C2020A8
:10A4A000DDE90C13B8473046761C4045F5D30E98CD
:10A4B000401C0E9068E0189850F804AB1890504675
:10A4C000B9F1000F01D0494601E04FF0FF310A46D3
:10A4D000014600E0491C0B781BB1131EA2F10102DA
:10A4E000F8D10E1A04F4806028B14E4501D23046EE
:10A4F00000E04846064604F0020050B905E02A464E
:10A500006D1C2020DDE90C13B8473046761C404511
:10A51000F5D306E01AF8010B2A466D1CDDE90C1391
:10A52000B8479AF8000040B104F480600028F1D0E8
:10A53000B9F10000A9F10109ECD104F0020050B119
:10A5400005E02A466D1C2020DDE90C13B847304693
:10A55000761C4045F5D30E98401C0E9014E02A4618
:10A560006D1C2520DDE90C13B8470E98401C0E9099
:10A570000AE02A466D1C0E990878DDE90C13B847ED
:10A580000E98401C0E9000BF00BF00BF0E980078D0
:10A5900000287FF410AD0D98854201D2284601E0D5
:10A5A0000D98401E02460020DDE90C13B8472846EE
:10A5B0000FB0BDE8F08F00002DE9FF4F8DB00D46C4
:10A5C0001646002E06DB042E04DA012D02DB282DB0
:10A5D00000DC05E040F2251236493748F6F7FAF874
:10A5E00006EBC60000EB461034490844445706EB1E
:10A5F000C60000EB461032490844475728460CF085
:10A60000A3F88046C01708EB50704FEAE00B3146C4
:10A6100028460CF05FF80C909BFBF4F004FB10B0A4
:10A62000201A0B909BFBF4F0C01B0A9002A938463D
:10A6300000F00EFFDDF834904FF0000834E00B9886
:10A64000804501DB012100E000210A9801EB000AAE
:10A65000DDE90C100844019001983B4602AA5146DE
:10A660000090484600F04CFF002041460AE00A9A5C
:10A67000904201D10B9A891A19F80030109A53545C
:10A68000401C21445045F2DB00200C9A02EB0801EB
:10A6900005E0019A135C109A5354401C2144B842BF
:10A6A000F7DBD14408F10108A045C8DB11B0BDE8D3
:10A6B000F08F00007C220708CC21070860620408A4
:10A6C000BC61040870B505460C4606222146601C94
:10A6D000F6F766F9257070BD2DE9F04104460E4687
:10A6E000002774B13146204600F02DF80546B5F537
:10A6F000802F05D20C2D01D9284600E00C200746FA
:10A7000000BF3846BDE8F081024600BF481E084041
:10A7100018B100BF00BF00BFFEE700BF481E1040D9
:10A72000101A704710B502464B1E13444C1E23EA04
:10A73000040000BF4B1E0B401BB100BF00BF00BF99
:10A74000FEE700BF10BD024600BF481E084018B11A
:10A7500000BF00BF00BFFEE700BF481E10444B1EF5
:10A76000984370472DE9F04180460E46444601204B
:10A770006086002500270DE056F8270025A1F6F792
:10A78000D5F910B1681C85B202E0608E401C60866D
:10A79000781C87B256F8270020B156F827000078B9
:10A7A0000028E9D1208EA84201D1BDE8F081A06A3D
:10A7B00020B1A06A20F06EFC0020A062E06A20B107
:10A7C000E06A20F067FC0020E062E80020F094FBE3
:10A7D000A06200BFA06A18B900BF00BF00BFFEE7BB
:10A7E00000BF680020F088FBE06200BFE06A18B993
:10A7F00000BF00BF00BFFEE700BFA06A08B1E06A6B
:10A8000000B900256900E06A20F059FE258600BFE6
:10A81000CBE700000A0000002DE9F84F81460E4604
:10A82000924699F8090000F00700022801D130464D
:10A8300000E050468346564501DD304600E0504674
:10A840000746032000EB470020F0030000F110054D
:10A850003948006839490968A0EB0108002405EB74
:10A86000080037490968884206D23348046860689E
:10A8700020F0004060603AE031480068854221D80D
:10A8800013E04FF0FF300090002269462D480FF092
:10A8900015FD002269462C480FF010FD264800687F
:10A8A00026490968A0EB010800BF08EB0500244910
:10A8B00009688842E5D820480468606820F00040B4
:10A8C000606014E0284620F017FB044600BF1CB966
:10A8D00000BF00BF00BFFEE700BF14B90020BDE805
:10A8E000F88F606820F0004000F100406060324660
:10A8F0005946484602F02AF92060606800F040405E
:10A90000401C6060606820F080406060A781A4F80F
:10A910000EB06068C00F20B1204600F11001A160A8
:10A9200008E0054800681030A0600348006828442B
:10A93000014908602046D2E760010020380200206B
:10A940005C01002067500108FDA4010810B501203A
:10A95000074908700748FEF710FD20B9064800684F
:10A960002AF0F8FD03E0044800682AF0FFFD10BD5E
:10A9700020020020D0DA00202402002010B5044676
:10A9800094F83E00C0F3400050B9A08F002807DDC6
:10A99000A08F4FF6FF71884202D0A08F401EA08783
:10A9A000A08FA8B9606B20B194F83E00C0F34000BE
:10A9B00070B121461748FEF75FFDFFF7C7FFE0685B
:10A9C00010B12046E1688847204620F063FB1FE075
:10A9D000A06B4042E062606BD0B194F83E10C1F3CE
:10A9E000400111B9216B4942E16294F83E104908D7
:10A9F000C94394F83E2061F3410284F83E20E069A7
:10AA0000616AE1616062A06A616BA162606300BF1C
:10AA100010BD0000D0DA00202DE9F0418046424808
:10AA200000682AF06DFC06464048007880F001007E
:10AA30003E4908703E48FEF7A0FC04466BE000204B
:10AA40003C49087094F83E00C0F38000374909780B
:10AA5000884253D0354801782C34A07C61F38200C1
:10AA6000A07420688719A07C2C3CC0F3C00010BBE8
:10AA7000E06A00281FDC002F1DDB94F83E0000F088
:10AA8000010060B9206950B1204621698847054618
:10AA9000E0692844E061606A2844606200BFA06801
:10AAA00010B12046A168884794F83E0020F00800C5
:10AAB000083084F83E00E06A3044E062E06A002832
:10AAC0001BDBD4E90A10884201DDA06AE06220465F
:10AAD000A16988470546206AA84206D025626068B9
:10AAE00018B12946D4E900029047D4E90A108842F7
:10AAF00002DB2046FFF742FF00BF00BF0D48007891
:10AB000020B10B48FEF739FC044604E02146084812
:10AB1000FEF74BFC0446002C91D12AF0FEFB0249C3
:10AB20000860BDE8F08100001C0200202102002026
:10AB3000D0DA0020200200202DE9F04106460D4623
:10AB400017461C46002D05DB102D03DC26FA05F008
:10AB500000B904E0B92210491048F5F73BFE681E21
:10AB600016E026FA00F101F00101227802F0070256
:10AB7000C2F107029140226807EBE202127811430A
:10AB8000226807EBE2021170401E2168491C216017
:10AB90000028E6DABDE8F0817C220708DC200708FF
:10ABA0002DE9F05F824688461646002E02DB072E0E
:10ABB00000DC05E04FF41772624963A0F5F70AFE66
:10ABC00040462DF06DFF07460024B5E00025AFE0BC
:10ABD0002246294650460BF053FD00B1A7E0082E4F
:10ABE00073D2DFE806F004101C2733465B76281981
:10ABF00000EBD0714910A0EB410109B9012100E03F
:10AC000000218B4684E0204604EBD0714910A4EB70
:10AC1000410109B9012100E000218B4678E00320C1
:10AC200095FBF0F100FB115008B9012000E0002075
:10AC300083466DE02819032190FBF1F201FB12001D
:10AC400008B9012000E00020834661E0032295FB63
:10AC5000F2F2214604EBD17302EB630000EBD072F9
:10AC60005210A0EB42020AB9012200E000229346F2
:10AC70004EE005FB04F1032291FBF2F302FB1312F9
:10AC800005FB04F000EBD0714910A0EB4101114429
:10AC900009B9012100E000218B4639E005FB04F2EF
:10ACA000032392FBF3FC03FB1C2305FB04F101EBE4
:10ACB000D1725210A1EB4202981800EBD0725210E0
:10ACC000A0EB420212B9012201E01BE000229346F0
:10ACD0001EE005FB04F2032392FBF3FC03FB1C22A2
:10ACE000291901EBD1735B10A1EB4303D01800EBE2
:10ACF000D0725210A0EB42020AB9012200E00022F9
:10AD0000934605E04FF41B720E4918A0F5F762FD5B
:10AD100000BF2246294640460BF0B2FC814689EA34
:10AD20000B032246294640462EF072FD00BF6D1CE3
:10AD3000BD42FFF64DAF641CBC42FFF647AFBDE815
:10AD4000F09F00007C22070830203C3D2028696EDF
:10AD500074296D61736B2026262028696E74296D15
:10AD600061736B203C3D20370000000066616C730E
:10AD700065000000F7B582B004460E4614B9049889
:10AD800005B0F0BD00BF63223146204623F0A6FF88
:10AD90000190019D00BFBDB12868A8B100BF642229
:10ADA0003146204623F09AFF01900198C0B2074631
:10ADB0004FB13A462B682846049998470190BDF850
:10ADC0000400ADF8100000BF0498D9E770B5044640
:10ADD0000D46606818B129466068FFF7F7FF2068E4
:10ADE00018B1294620462268904770BD10B50DF075
:10ADF000ADFB10BD70B505460C46164606E028466C
:10AE00006A1C95B200F008F804F8010B301EA6F198
:10AE100001018EB2F3D170BD70B5044600260DF06D
:10AE20005FFC2112A02202EB4101C8B20DF020FC10
:10AE30000DF09EFC2546E11704EB11610912A4EB0D
:10AE40000121C8B20DF014FC0DF092FC0DF048FC8D
:10AE5000A1200DF00DFC0DF08BFC00200DF0D8FBB7
:10AE600006460DF065FC304670BD70B505460C46D3
:10AE7000164606E02178284600F009F8681C85B2DD
:10AE8000641C301EA6F101018EB2F3D170BD70B505
:10AE900004460E460DF024FC2112A02202EB4101D3
:10AEA000C8B20DF0E5FB0DF063FC2546E11704EB9D
:10AEB00011610912A4EB0121C8B20DF0D9FB0DF00C
:10AEC00057FC30460DF0D4FB0DF052FC0DF030FC79
:10AED0000A2002F0D3FC70BD70B504460D4600BFD9
:10AEE000204600F03BF818B100BF00BF00BFFEE7EE
:10AEF00000BF284600F050F9001D616808446060FA
:10AF0000204600F03AF8204670BD70B505460C4664
:10AF1000284600F041F904F11001884201D30120D4
:10AF200070BD0020FCE70146A1F1080070477CB528
:10AF300005460C46204600F02FF906466A4601A950
:10AF40002BF0B0FB21462846DDE900320EF0F1FC83
:10AF50007CBD0146087900F00100704710B5044639
:10AF6000204600F019F908B9012010BD0020FCE7C7
:10AF70000146087900F00200704770B5044620468B
:10AF800000F097F805462C60284670BD7CB5064653
:10AF90000C4600200190009000256CB16A4601A982
:10AFA00020462BF09CFB01980C2805DA6A4601A983
:10AFB00030462EF0EBFB054685B100BF284600F079
:10AFC000EBF8A04203D200BF00BF00BFFEE700BF06
:10AFD00029463046DDE900322DF099FF28467CBD38
:10AFE00070B504462046FFF7C8FF0546284600F026
:10AFF000BEF8204600F0B6F870BD70B50446204695
:10B0000000F057F80546284600F0B6F8204600F054
:10B01000BEF870BD70B506460D46284600F049F8EA
:10B02000044600BF1CB900BF00BF00BFFEE700BF61
:10B030002046FFF78EFF90B100BF2846FFF78EFF36
:10B0400018B100BF00BF00BFFEE700BF2146304679
:10B0500000F076F821462846FFF73EFF05462846D1
:10B0600070BD70B506460D462846FFF781FFF0B16A
:10B07000284600F057F8044600BF1CB900BF00BFC7
:10B0800000BFFEE700BF00BF2046FFF762FF18B910
:10B0900000BF00BF00BFFEE700BF2146304600F002
:10B0A0004FF829462046FFF717FF054600BF284600
:10B0B00070BD2DE9F0410446204600F06DF8061FF2
:10B0C000204600F0B8F8074631462CF00CFA054649
:10B0D00000BF2046FFF742FF18B100BF00BF00BF0E
:10B0E000FEE700BF2846BDE8F0812DE9F0410646A5
:10B0F0000C461546002794B100BF1DB900BF00BF24
:10B1000000BFFEE700BF2A462146304600F097F810
:10B110002046FFF772FF204600F08DF807463846BC
:10B12000BDE8F08110B5044600BF2046FFF720FFC0
:10B1300018B900BF00BF00BFFEE700BF206810BD08
:10B140007CB505460C46204600F026F806466A46C1
:10B1500001A92BF0A7FA21462846DDE900322DF09F
:10B16000D6FE7CBD416841F00101416070474168F5
:10B1700041F0020141607047416821F002014160E5
:10B180007047426802F003030B4343607047416815
:10B1900021F00101416070470146486820F003003A
:10B1A00070472DE9F04706460C46304600F043F85C
:10B1B0008046211F2CF097F907463046FFF7ECFF39
:10B1C000211D451A00BF384600F035F88146384643
:10B1D00000F031F880460421FFF7A4FA814503D03E
:10B1E00000BF00BF00BFFEE700BF00BF3046FFF753
:10B1F000D3FF2919091D884203D000BF00BF00BF3B
:10B20000FEE700BF29463846FFF7BBFF00BF3846C0
:10B21000FFF7C2FF0C2803D200BF00BF00BFFEE74C
:10B2200000BF21463046FFF7ACFF3846FFF7D8FE97
:10B230003846BDE8F087014601F1080070472DE966
:10B24000F04106460C46154600BF2046FFF781FE3A
:10B2500018B900BF00BF00BFFEE700BF2946204667
:10B26000FFF753FE78B129462046FFF79AFF0746BD
:10B270002046FFF782FE3846FFF779FF3946304611
:10B28000FFF755FE00BFBDE8F0812DE9F04106460D
:10B290000C46154600BF2046FFF75BFE18B100BF05
:10B2A00000BF00BFFEE700BF29462046FFF72DFE86
:10B2B00088B129462046FFF774FF07463846FFF756
:10B2C0005BFF39463046FFF7A5FE07463946304654
:10B2D000FFF72DFE00BFBDE8F0810146C1F3C010AD
:10B2E00070470146C1F3801070470146C1F3C0109A
:10B2F00070470146C1F3002070470146C1F3C0000A
:10B3000070470146C1F3401070470146C1F3402029
:10B3100070470146C1F3003070470146C1F3001089
:10B32000704700002DE9F04F89B004460D4600211A
:10B33000204622F082FA30B91C21284620F0BFF8BE
:10B3400009B0BDE8F08F2946204600F049FC2946A7
:10B35000204600F081F90021204623F0A1FB08904F
:10B360000021204623F052FC07900021204623F0C4
:10B3700026FA012800D100E0002081460021204665
:10B3800023F0FAFD07460021204623F0B9FA0646CD
:10B3900042F2D170874205D1608CC0F3802008B999
:10B3A000012000E000208246204622F0E6FA0690C6
:10B3B00000BF4FF00008244802884146204623F091
:10B3C0008DFC03900398C0B200BF8346AA68296928
:10B3D0002868CDE90209CDE900125A465146089B7A
:10B3E00006980CF029FC288342F2D170864205D1E0
:10B3F000608CC0F3402008B9012000E000200590D7
:10B40000204622F09BFA049000BF4FF000080F483E
:10B4100002884146204623F061FC03900398C0B2A5
:10B4200000BF83460023EA6869686869CDE90213B2
:10B43000CDE900025A46079BDDE904010CF0FCFB54
:10B44000688300BF7CE70000860100208A0100209D
:10B450002DE9F04104460D46012C02DB1E2C00DCD8
:10B4600005E040F26312164916A0F5F7B3F921463C
:10B470002846F5F711FB0121601E295401274FF0E2
:10B48000000818E000260DE0A85D39460AF0DAF958
:10B49000A855701CA04204DAA85D711C695C484084
:10B4A000A855761CA642EFDB022138460AF0CAF9FD
:10B4B000074608F10108A045E4DBBDE8F081000083
:10B4C0007C22070831203C3D206465677265652059
:10B4D000262620646567726565203C3D2071726395
:10B4E0006F646567656E5F524545445F534F4C4FCF
:10B4F0004D4F4E5F4445475245455F4D4158000012
:10B500002DE9F05F8046894692461C460A9D012C33
:10B5100002DB1E2C00DC05E040F27D12144915A070
:10B52000F5F758F921462846F5F7B6FA00271AE04C
:10B5300018F80700297880EA010B621E691C28466A
:10B54000F5F72EFA0021601E2954002608E01AF8AB
:10B55000060059460AF076F9A95D4840A855761CC0
:10B56000A642F4DB7F1C4F45E2DBBDE8F09F000004
:10B570007C22070831203C3D2064656772656520A8
:10B58000262620646567726565203C3D20717263E4
:10B590006F646567656E5F524545445F534F4C4F1E
:10B5A0004D4F4E5F4445475245455F4D4158000061
:10B5B00070B505460E46B6F5004F02D34FF0FF308A
:10B5C00070BD3446012D08D104EB8400022101EB4B
:10B5D0004000032190FBF1F421E0022D08D104EB9F
:10B5E000440101EBC401481C00EBD0714C1016E083
:10B5F000042D01D1E40012E0082D04D104EB8400F5
:10B6000000EBC4040BE0072D02D10EB9182405E0AD
:10B610004FF455720A490BA0F5F7DCF800BF002C77
:10B6200000DB05E040F25732054908A0F5F7D2F8F3
:10B63000B4F5004F02D34FF0FF30C1E72046BFE71B
:10B640007C22070866616C73650000007265737583
:10B650006C74203E3D2030002DE9F34F87B00C463E
:10B6600007980BF0C3FB8046079822F086F90690F6
:10B67000404601F096FA2061216948001FF076FCEF
:10B680002060216948001FF071FCA060002548E09F
:10B690005848029038F9150041F69A7188423FD116
:10B6A0000020019029E00199079822F0C6F8009047
:10B6B0005149009823F0A8FC00B11BE000980BF062
:10B6C000B3FB8246BAF1010F00D013E000980BF0F3
:10B6D0009BFB8346AB4500D00CE0009823F080FC38
:10B6E0000299884201DA029802E0009823F078FC7F
:10B6F000029000BF0198401C0190079822F0BBF80F
:10B7000001998842CFD80298002804DB0298A168EA
:10B7100021F8150003E00021A06820F8151000BFF3
:10B720006D1C2069A842B3D80026B14600251BE055
:10B7300038F9150041F69B71884202DB411A0E442C
:10B7400011E041F69A71884206D1A16831F81510CE
:10B7500049440FFA81F906E0A16821F8150009EBC8
:10B7600000010FFA81F96D1C2069A842E0D8002180
:10B77000079823F095F905902169491EDDE9050236
:10B7800000FB112000B206900698A0EB090007B25A
:10B79000002F00DA00274FF0FF30049000200390C4
:10B7A000002513E038F9150041F69B7188420CDB47
:10B7B000421A11B207FB01F2B2FBF6F212B2A36811
:10B7C00023F815200495039100BF6D1C2069A84241
:10B7D000E8D8049800280ADB0398301A7843B0FBB5
:10B7E000F6F0381A01B2A268049822F8101009B0D5
:10B7F000BDE8F08F01E0FFFF010006002DE9FC5FCE
:10B80000054600221146284625F056F80021284614
:10B8100023F015F881460021284623F01EFA4844FB
:10B8200007B20021284623F0FAF848440FFA80FABC
:10B83000284622F037FF384450440FFA80FB3B4E35
:10B84000284622F018F801904FF000085CE0A86844
:10B85000006850F828403649204623F0D5FB00B157
:10B8600050E0204623F0E0FF002839D10021204697
:10B8700022F04AFF0090009830B1012807D002283A
:10B8800004D0032815D100E000BF00BF00BFB4F909
:10B890001A10B5F91600081A401CB04201DA3046F9
:10B8A00005E0B4F91A10B5F91600081A401C06B2E2
:10B8B00014E00021204623F086FB70B904F1140047
:10B8C00013F0E3FB3844B04201DA304604E004F1FF
:10B8D000140013F0DAFB384406B200BF00BF10E0DA
:10B8E000B4F91A10B5F91600081A401CB04201DA72
:10B8F000304605E0B4F91A10B5F91600081A401CD4
:10B9000006B200BF08F10108019880459FD307489F
:10B91000864209D006EB0A0006B25E4502DD3046DB
:10B92000BDE8FC9F5846FBE75846F9E701E0FFFFFA
:10B93000010004002DE9FC5F05460022114628465F
:10B9400024F09EFF0021284622F079FF8246002144
:10B95000284623F01AF950440FFA80F800212846AF
:10B9600023F0C5F850440FFA80F9284622F0AAFEC9
:10B970004844404400B20190724C284621F07BFFBD
:10B9800083460021284622F0F3FE012866D10026D6
:10B990005BE0A868006850F826706B49384623F0D1
:10B9A00033FB00B150E0384623F03EFF002839D188
:10B9B0000021384622F0A8FE0090009830B10328FC
:10B9C00005D0062804D0082815D102E000BF00BF2A
:10B9D00000BFB5F91800B7F91410401A401CA04276
:10B9E00001DA204605E0B5F91800B7F91410401A3D
:10B9F000401C04B214E00021384623F0D7FA70B995
:10BA000007F1140013F0ADFB4044A04201DA2046D8
:10BA100004E007F1140013F0A4FB404404B200BF9B
:10BA200000BF10E0B5F91800B7F91410401A401C17
:10BA3000A04201DA204605E0B5F91800B7F9141064
:10BA4000401A401C04B200BF761C5E45A1D33D489D
:10BA5000844269D004EB090004B265E000265BE093
:10BA6000A868006850F826703749384623F0CCFAA9
:10BA700000B150E0384623F0D7FE80BB00213846A5
:10BA800022F042FE0090009830B1012805D0042831
:10BA900004D0072815D102E000BF00BF00BFB7F9EE
:10BAA0001800B5F91410401A401CA04201DA2046D3
:10BAB00005E0B7F91800B5F91410401A401C04B29B
:10BAC00015E00021384623F07EFA78B907F114001A
:10BAD00013F047FB4844A04202DA204605E008E0A4
:10BAE00007F1140013F03DFB484404B200BF00BF4F
:10BAF00010E0B7F91800B5F91410401A401CA04224
:10BB000001DA204605E0B7F91800B5F91410401A1B
:10BB1000401C04B200BF761C5E45A1D30948844294
:10BB200002D004EB080004B20648844202D1019816
:10BB3000BDE8FC9F0198844201DD2046F8E70198AA
:10BB4000F6E7000001E0FFFF01000400F0B52DED75
:10BB5000028B9FB004460D4617462846FAF73CF97B
:10BB6000B0EE408AF0EE608A51EC180B32F0D6FF4E
:10BB700004460EA6642101A8F4F7B0FF0CA62246E5
:10BB80000CA11AA8F4F7BCFC1AA90B48006829F00C
:10BB900059FA314601A8F4F7B2FE01A90748006836
:10BBA0001EF03EFA1FB0BDEC028BF0BD000000009D
:10BBB00048455800255800003C0300204003002061
:10BBC00010B5044620681FF04DFA60681FF04AFA6D
:10BBD000A0681FF047FAE0681FF044FA10BD0000AB
:10BBE0002DE9F34F87B00C4607980BF0F3FE804623
:10BBF000404600F0D6FF6061616948001FF0B6F969
:10BC00006060616948001FF0B1F9E060002548E01C
:10BC10005948029038F9150041F69A7188423FD18F
:10BC20000020019029E00199079821F006FE00907C
:10BC30005249009823F0E8F900B11BE000980BF09E
:10BC4000E7FE8246BAF1010F00D013E000980BF036
:10BC5000CFFE8346AB4500D00CE0009821F002FFF8
:10BC60000299884201DA029802E0009821F0FAFE77
:10BC7000029000BF0198401C0190079821F0FBFD45
:10BC800001998842CFD80298002804DB0298E16825
:10BC900021F8150003E00020E16821F8150000BF3D
:10BCA0006D1C6069A842B3D80026B14600251BE090
:10BCB00038F9150041F69B71884202DB411A0E44A7
:10BCC00011E041F69A71884206D1E16831F8151009
:10BCD00049440FFA81F906E0E16821F8150009EB03
:10BCE00000010FFA81F96D1C6069A842E0D80021BB
:10BCF000079822F08BFF0690079821F01FFE01465F
:10BD00006269521E069800FB121000B20590059859
:10BD1000A0EB090007B2002F00DA00274FF0FF3038
:10BD2000049000200390002511E038F9150041F639
:10BD30009B7188420ADB421A11B207FB01F2B2FB87
:10BD4000F6F212B2E36823F8152000BF6D1C60699B
:10BD5000A842EAD8049800280ADB0398301A7843EE
:10BD6000B0FBF6F0381A01B2E268049822F810101D
:10BD700009B0BDE8F08F000001E0FFFF0100060000
:10BD80007CB504460D46164628882189084400B231
:10BD9000ADF8000068886189084400B2ADF802007F
:10BDA000A8882189084400B2ADF80400E8886189B8
:10BDB000084400B2ADF80600324669462046636981
:10BDC00098477CBD2DE9F04704460D4690469946BC
:10BDD000AD1E606B00EB153AC5F3C80605F0070110
:10BDE00001208840C7B200BF51460AF1010A20462F
:10BDF0002AF032FF10B10120BDE8F08700BF00BF7C
:10BE000004F13C00805D384008B1012000E00020D2
:10BE1000484501D10220EFE704F13C00805D784005
:10BE200004F13C0188550120E070A8F10100B0F157
:10BE3000000800D1E0E77806000E071EE0D10127D8
:10BE4000701C0646B0F5007FD9D30026CCE7000071
:10BE5000F8B505460E462C46206B10B1206B0078D5
:10BE600018B9606B08B90120F8BD606B58B128465D
:10BE700028F0B0FF0746104909688847616B88427F
:10BE800001D30020F0E7206B98B1002000900AE079
:10BE900069460A4A206B126890470746B74201D1AB
:10BEA0000120E1E700BF206B0099405C0028EFD142
:10BEB000DAE70120D8E700007802002068020020BD
:10BEC00070B504460D460020E070401EA063294670
:10BED00020462AF0C1FE08B1042070BD04F23A20C9
:10BEE00011F0B6FD4AF65521884201D00320F4E74F
:10BEF0000B2214A104F13C002AF01BFC08B901201C
:10BF0000EBE794F83C00E92807D094F83C00EB28D4
:10BF100003D094F83C00E82811D103220CA104F1CD
:10BF200072002AF006FC08B90020D6E7052209A114
:10BF300004F18E002AF0FDFB08B90020CDE70220B5
:10BF4000CBE70000EB769045584641542020200076
:10BF50004641540046415433320000002DE9FF4F62
:10BF60008FB00F46209DF87800F0010008B1FA4824
:10BF700000E0FA480E90F87800F0010008B1F848A7
:10BF800000E0F8480D90F87800F0010008B9F44896
:10BF900000E0F4480C9001200B90B5E000220B92D9
:10BFA00000206A88B5F804C0A2EB0C0211B200268A
:10BFB0001AE006EB860CEA6802EB8C02127C02F0B7
:10BFC000010242B906EB860CEA6802EB8C02928908
:10BFD000024410B207E006EB860CEA6802EB8C0222
:10BFE00012898A1A11B2761C2A69B242E1D8002657
:10BFF00085E006EB860CEA6802EB8C02127C02F00C
:10C000000102002A7AD191FBF0F80FFA88F306EBCF
:10C010008609D5F80C8008EB8908B8F80C8008FB75
:10C0200003F80FFA88F206EB8609D5F80C8008EBC6
:10C030008908B8F9049006EB860AD5F80C8008EB5D
:10C040008A08B8F90680904501DD904607E006EBC6
:10C05000860AD5F80C8008EB8A08B8F90680C14535
:10C0600008DD06EB8609D5F80C8008EB8908B8F9DD
:10C07000048013E006EB8609D5F80C8008EB8908EC
:10C08000B8F90680904501DD904607E006EB860989
:10C09000D5F80C8008EB8908B8F90680C4469445A9
:10C0A0000BD04FF0010806EB860AD5F80C9009EB8F
:10C0B0008A09C9F81080CDF82C8006EB8609D5F8DE
:10C0C0000C8008EB8908A8F808C006EB8609D5F8AB
:10C0D0000C8008EB8908B8F80C80A0EB08080FFA70
:10C0E00088F006EB8609D5F80C8008EB8908B8F8CB
:10C0F0000880A1EB08080FFA88F100BF761C2A69B6
:10C10000B2423FF676AF00BF0B9800287FF446AFEF
:10C1100000210F9822F046FB012800D100E000200A
:10C120000A9000200990089008A809A9CDE90010FC
:10C1300029890BB2B5F9022038781E992BF01CFA28
:10C14000F87800F0010048B10A9838B10F9821F052
:10C1500014FCBDF82410084400B2099011990F98FE
:10C1600021F06BFB04468AE17F49204622F04CFF18
:10C1700040B1F878C0F3800111AA0F980BF0FAFAD9
:10C1800004467CE10021204622F090FB07900798AE
:10C19000002858D000200390002610E006EB86010E
:10C1A000E86850F82100A04208D106EB8600E96853
:10C1B00001EB8000B0F90800039003E0761C2869C9
:10C1C000B042EBD800BFF87800F0010030B1608CCD
:10C1D00020F4806000F58060608405E0608C20F4CD
:10C1E000007000F50070608404F114000D99884718
:10C1F0000399884226D0204623F098FA00BFA08AEF
:10C20000ADF80400E08AADF80600208BADF8080018
:10C21000608BADF80A0000BF04F114000E9A039978
:10C22000904701AA2921204619F0A2FE204621F0BC
:10C2300069FC22462221009019F09AFE204623F044
:10C2400075FA00BF07E0608C20F480606084608C29
:10C2500020F400706084002006907878012812D0C5
:10C26000022819D104F114000C998847B5F900107F
:10C27000491C21F00101081A039000EBD070401016
:10C2800000B2069009E004F114000C99884729884F
:10C29000081A00B2069000E000BF00BFF87800F076
:10C2A000010050B10A9840B104F114000D9988477B
:10C2B000BDF82410081A00B209900020039043F240
:10C2C0000C022046039922F009FD029002980FFA11
:10C2D00080F800BF0020039043F20D02204603992E
:10C2E00022F0FCFC029002980FFA80F900BF204671
:10C2F00022F076FE0590204621F0B4FB049008F46D
:10C30000C040B0F5005F01D1012000E0002030B155
:10C3100028F4C040B0F5FA6F01DC012000E00020F5
:10C3200090B128F4C040B0F57A7F04DD28F4C04015
:10C33000C0F57A7001E028F4C040059948436421B3
:10C3400090FBF1F00FFA80F809F4C040B0F5005FFF
:10C350000CD101200BE0000093F2010887F20108E4
:10C36000E1F10108DFF0010801000600002030B112
:10C3700029F4C040B0F5FA6F01DC012000E0002094
:10C3800090B129F4C040B0F57A7F04DD29F4C040B3
:10C39000C0F57A7001E029F4C04004994843642153
:10C3A00090FBF1F00FFA80F9A18A1C98401A4044E2
:10C3B0000FFA80FAE18A1D98401A48440FFA80FB70
:10C3C000F87800F0010010B1BDF9240000E00698F3
:10C3D00050440FFA80FAF87800F0010008B106988E
:10C3E00001E0BDF9240058440FFA80FBBAF1000FB8
:10C3F00002D1BBF1000F1BD0204623F097F9A08A91
:10C40000504400B2A082208B504401B22183E08AC4
:10C41000584401B2E182608B584401B261832046E6
:10C4200023F084F901235A465146204623F05CFA52
:10C43000F87800F0010008B10A9870B904F114000E
:10C440000D9988471F990844BDF820100844BDF88D
:10C450002410084400B2099008E0BDF820101F988D
:10C460000844BDF82410081A00B20990F878C0F307
:10C47000800111AA0F980BF07DF9044600BF24B18A
:10C48000DDE9111081427FF46FAE13B0BDE8F08F8B
:10C49000024600E0521C107810B110788842F9D1A1
:10C4A000107870472DE9F04F8DB005468946B9F1F7
:10C4B000000F02D10DB0BDE8F08FA5F818902868E4
:10C4C00010B128681EF0E6FD09EB4901062202EBD7
:10C4D00041001EF011FD286000BF286818B900BF98
:10C4E00000BF00BFFEE700BF28686860022128681F
:10C4F00001FB0900801CE8600421286801FB090099
:10C50000001DA860B9F1010F0CD1B4206968087052
:10C510000020E96808800120E96848800020A968B7
:10C520000880C7E709F10101C8001EF01FFD07469A
:10C5300009F1010007EB80084FF0000A4FEA89007B
:10C5400002B20BA90CA800F067F90024BDF9300075
:10C550008010079000200390CCE0002616E00BA985
:10C560000CA800F061F90CA800F04BF900B90FE03D
:10C57000BDF93000801007A941F82600BDF8300051
:10C5800000F0030003A941F82600761C042EE6DB28
:10C5900000BF042E00D0B3E00A990798884219D151
:10C5A000079800B227F814000FFA8AF028F8140050
:10C5B000DDE90301084405990844069908446968BF
:10C5C00008556868005D0007000E69680855601C22
:10C5D00004B28DE0DDE9070188422CD0079800B253
:10C5E00027F814000FFA8AF028F8140003986968F5
:10C5F00008556868005D0007000E69680855601CF2
:10C6000004B20798401E00B227F814000FFA8AF00F
:10C6100028F814000498001D059908440699084458
:10C62000696808556868005D0007000E696808556C
:10C63000601C04B25CE00999079888422CD00798E6
:10C6400000B227F814000FFA8AF028F81400DDE988
:10C6500003010844696808556868005D0007000E1A
:10C6600069680855601C04B20798401E00B227F89C
:10C6700014000FFA8AF028F814000598083006997B
:10C680000844696808556868005D0007000E69681D
:10C690000855601C04B22BE0079800B227F814007C
:10C6A0000FFA8AF028F81400DDE90301084405991F
:10C6B0000844696808556868005D0007000E6968ED
:10C6C0000855601C04B20798401E00B227F81400F9
:10C6D0000FFA8AF028F8140006980C30696808559B
:10C6E0006868005D0007000E69680855601C04B2A8
:10C6F0000AF1010A0CA800F084F800287FF42DAF9D
:10C7000000BF40F2D32109FB01F002900298801291
:10C710000190601E37F910100198814205D1601E0A
:10C7200038F910100198814226D0DDE90121A1EBF2
:10C730008220B0F5007F04DC00FB00F1480000140B
:10C7400007E0C0F5806000FB00F148000014C0F174
:10C750000F00019909B227F81410019909B228F8BD
:10C7600014106A6810556968095D0907090E6A683E
:10C770001155611C0CB200BFA61E0EE038F8160061
:10C7800027F8140037F8160028F814006868805D50
:10C7900069680855761E601C04B2002EEEDA4FF070
:10C7A000000B00260020E968088023E0E96821F8F2
:10C7B0001B6037F81600A96821F81B0010E0A86874
:10C7C00030F81B0037F91610884203DAA86830F8F1
:10C7D0001B0001E037F91600A96821F81B00761C40
:10C7E00038F91600584501D1A642E8DB0BF10100EB
:10C7F0000FFA80FBA642D9DB38461EF033FC00BF9F
:10C8000058E60146B1F90200B1F90020904201DC7E
:10C81000012070470020FCE7028000234380C2F122
:10C8200001031BB20B807047B1F90020002A07DC1E
:10C830000B8842885200D21C1A4412B20A800CE0C3
:10C8400042880388D21A5200521D0B881A4412B231
:10C850000A800288521E12B202804288521C12B212
:10C86000428070472DE9F84F824615461E46DAF899
:10C8700000000090DAF8500000F104094FF4007253
:10C88000002328463146F3F794FD07460098B0F898
:10C890000AC0624600233846F3F78BFD834600BF8B
:10C8A00059F8044B14B90020BDE8F88FA34500D215
:10C8B00004E0ABEB040B09F10409F1E700BFD9F880
:10C8C00000005844F0E70246891ED069801E884265
:10C8D00001D8002070475389106B03FB0100F9E772
:10C8E0002DE9F04780460C4604F11A0011F0B0F82B
:10C8F00010B10020BDE8F087207800F03F00401E16
:10C9000000EB800101EBC0054FF00109002621E09A
:10C910001849895D081911F09BF80746B9F1000F15
:10C9200011D0FF2D0BD8384607F0DCFF8246294690
:10C930006D1C38F8110007F0D5FF824501D00020AA
:10C94000D8E7B94605E04FF6FF70874201D00020D6
:10C95000D0E7761C0D2EDBD3207800F0400038B1F4
:10C96000B9F1000F04D038F8150008B10020C1E774
:10C970000120BFE7246F040837B582B01546022DA9
:10C9800004DCBDF80C10084605B030BDBDF80C0045
:10C99000C00ABDF8081000EBD1241F2C01D220469C
:10C9A00000E01F20BDF8081060F3CF210291BDF810
:10C9B0000C00C0F34510BDF80810C1F34511441830
:10C9C0003F2C01D2204600E03F20BDF8081060F364
:10C9D0004A110291BDF80C0000F01F00BDF80810CC
:10C9E00001F01F0144181F2C01D2204600E01F2037
:10C9F000BDF8081060F304010291FF2D03D1BDF8CA
:10CA000008100846C0E72A46DDE9020115F010F8D3
:10CA10000190BDF804100846B6E717B581B014467A
:10CA2000022C04DCBDF80810084604B010BDBDF8A7
:10CA30000400C00ABDF80810C90A10FB01F0410942
:10CA4000BDF8040061F3CF200190BDF8040000F0B0
:10CA50001F00BDF8081001F01F0110FB01F0410993
:10CA6000BDF8040061F304000190BDF80400C0F3B8
:10CA70004510BDF80810C1F3451110FB01F0810904
:10CA8000BDF8040061F34A100190FF2C03D1BDF8FA
:10CA900004100846C9E72246DDE9010114F0C8FF89
:10CAA0000090BDF800100846BFE737B582B01546C4
:10CAB000022D04DCBDF80C10084605B030BDBDF8F1
:10CAC0000C00C00ABDF80810A0EBD124002C01DD39
:10CAD000204600E00020BDF8081060F3CF2102914D
:10CAE000BDF80C00C0F34510BDF80810C1F34511A6
:10CAF000441A002C01DD204600E00020BDF808109B
:10CB000060F34A110291BDF80C0000F01F00BDF85F
:10CB1000081001F01F01441A002C01DD204600E03E
:10CB20000020BDF8081060F304010291FF2D03D12D
:10CB3000BDF808100846C0E72A46DDE9020114F0F6
:10CB400077FF0190BDF804100846B6E708B5034624
:10CB500000930098484080EA620008BD10B58060EC
:10CB6000C06000230361002110E0002400F11403E1
:10CB700043F82140002206E000F1440303EBC11317
:10CB800043F82200521C202AF6DB491C0C29ECDB5E
:10CB900010BD10B541EC100BF9F73AF951EC100B40
:10CBA00010BD0146002000E0401C31F9102041F684
:10CBB000FF739A42F8D170472DE9F04706468A463E
:10CBC0003468BAF1000F0AD1D4F81480B8F1000F1C
:10CBD00002D0E069404516D84FF0010813E05146F5
:10CBE00030460AF031F90746022F02D20120BDE893
:10CBF000F087781C08B93846F9E7E069B84201D9EE
:10CC00003846F4E7D046A06908B90020EFE720785D
:10CC100004284ED101224146204608F0C7F90546B6
:10CC20000DB1681C08B92846E1E701231A462946D8
:10CC30002046FFF7C7F88146B9F1020F01D1012064
:10CC4000D5E7B9F1010F02D14FF0FF30CFE7BAF1CC
:10CC5000000F02D10220F0710CE0F079022809D116
:10CC600008F10100854205D0B068A8EB0000B06172
:10CC70000320F071F079022869D00AF101008542A1
:10CC800007D1F06910B1F069401C00E00220F061AA
:10CC90005DE0F06908B90120F0612A46514630464E
:10CCA00007F05FFF8146B9F1000F50D10120F0611C
:10CCB0004DE00025D04519D108F10105E069A842F1
:10CCC00000D80225294630460AF0BEF80746012F53
:10CCD00001D0781C08B9384689E73FB16769022F4F
:10CCE00003D3E069B84200D9B8460025E5B9454606
:10CCF00000BF6D1CE069A84204D80225454501D952
:10CD0000002074E7294630460AF09EF8074607B926
:10CD100009E0012F01D0781C08B9384667E745457E
:10CD2000E7D1002063E700BF4FF0FF3229462046DD
:10CD30002BF027FA8146B9F1000F08D1BAF1000FA4
:10CD400005D02A46514620462BF01BFA8146B9F100
:10CD5000000F0DD16561D4E90610801E814202D812
:10CD6000A069401EA061207940F00100207107E019
:10CD7000B9F1010F02D14FF0FF3000E0012005466C
:10CD8000284634E72DE9F34F85B0814606980068C0
:10CD90000290D9F80000D0F80CA0002500BF02A82E
:10CDA0002EF04EFC83460BF1010018B9062007B0A7
:10CDB000BDE8F08FBBF5803F05D34FEA1B42284604
:10CDC0006D1C2AF810201FFA8BF4202C03DB2F2C6B
:10CDD00001D05C2C00D111E0802C06DA214679A02C
:10CDE000FFF756FB08B10620E1E7FF2D01D306202F
:10CDF000DDE728466D1C2AF81040D0E700BF202C44
:10CE000001DA04260CE0002602E00298401C0290A1
:10CE1000029800782F28F8D0029800785C28F4D087
:10CE200002990698016008E0681E3AF81040202C2C
:10CE300002D02E2C00D002E06D1E002DF4D100BFD8
:10CE400000202AF815000DB90620B0E7002700E001
:10CE50007F1C3AF817002028FAD01FB93AF81700BB
:10CE60002E2801D146F0030600E06D1E25B1681E94
:10CE70003AF810002E28F8D10B22202109F14000A9
:10CE800029F076FC4FF00008CDF8108008200390C0
:10CE900000BF38467F1C3AF8104004B966E0202CE9
:10CEA00003D02E2C04D1AF4202D046F00306F0E7A7
:10CEB000DDE90310884201D2AF4216D103980B2856
:10CEC00002D146F0030651E0AF4201D046F003061E
:10CED000AF4200D94AE02F46082004900B2003906F
:10CEE0004FEA88604FEA1068D3E7802C0ADB46F0EF
:10CEF0000206204607F0F6FC4FF46A71019007F035
:10CF0000B7FC0446FF2C11DD0398401E04998842AB
:10CF100004D846F0030603980490BAE72212049856
:10CF2000411C049109F140010A5418E024B1214642
:10CF300027A0FFF7ADFA18B15F2446F003060EE014
:10CF4000412C03DB5A2C01DC48F00208612C06DB83
:10CF50007A2C04DC48F00108A4F1200084B2049883
:10CF6000411C049109F140010C5492E700BF99F86B
:10CF70004000E52802D1052089F8400003980828E0
:10CF800003D14FEA88604FEA106808F00C000C28C3
:10CF900003D008F00300032801D146F0020606F092
:10CFA000020048B908F0010008B146F0100608F088
:10CFB000040008B146F008064B2000F80960002084
:10CFC000F5E60000222A3A3C3E3F7C7F000000004C
:10CFD0002B2C3B3D5B5D00002DE9F04704460E46DF
:10CFE00040220021204629F0C3FB85202070C0206C
:10CFF00084F8200040250020804607464FF00109B4
:10D0000000BFC12228466D1C2254002228466D1CF8
:10D01000225400BFB9F1000F06D036F81700B0F166
:10D02000000901D0781CC7B2601949462DF030F8CC
:10D03000AD1C05F01F000028ECD108F1010000F044
:10D04000FF0836F817000028DBD184F8237008F1B8
:10D0500001006070304631F080FA8246514604F19A
:10D0600024002DF015F8BDE8F087000010B500BFD2
:10D0700000224FF400611148F5F7A6FD00BF00F053
:10D0800021F800BF012211460D48F5F79DFD00BFB4
:10D0900000F018F800BF002201210948F5F794FDBF
:10D0A00000BF00F00FF800BF0122D1020348F5F7DE
:10D0B0008BFD00BF00F006F810BD00000014024018
:10D0C0000004024010B5022000F0E4FB10BD000097
:10D0D00000B587B000BF00BF002001901A4800686B
:10D0E00040F00200184908600846006800F002009D
:10D0F000019000BF00BF00BF00BF00BF0020019033
:10D100000846006840F0200008600846006800F00B
:10D110002000019000BF00BF00BF0120029011203D
:10D120000390012004900320059002A90748F5F719
:10D1300037FC4FF40060029002A90548F5F730FC77
:10D1400000F0BEF807B000BD3038024000040240D5
:10D150000014024010B500BF0122D1020C48F5F7BF
:10D1600033FD00BFFFF7AEFF00BF012211460948A3
:10D17000F5F72AFD00BFFFF7A5FF00BF0022012140
:10D180000448F5F721FD00BFFFF79CFF10BD00002C
:10D19000001402400004024070B505460024002639
:10D1A0001DE06006040E00BF012211461148F5F78C
:10D1B0000BFD00BFFFF786FF4FF400610E48F5F747
:10D1C000F1FC08B1601CC4B200BF00220121094873
:10D1D000F5F7FAFC00BFFFF775FF701CC6B2082E0A
:10D1E000DFDB15B9FFF7B6FF01E0FFF73FFF204691
:10D1F00070BD0000000402400014024070B50446F7
:10D20000002525E000BFE00928B10122D102154820
:10D21000F5F7DAFC05E000224FF400611148F5F75C
:10D22000D3FC00BFFFF74EFF00BF012211460E489E
:10D23000F5F7CAFC00BFFFF745FF00BF0022012140
:10D240000948F5F7C1FC00BF6006040E681CC5B2B2
:10D25000082DD7DB00BF0122D1020248F5F7B4FC4C
:10D2600000BF70BD001402400004024010B500BFB2
:10D270000122D1021048F5F7A7FC00BF00BF012230
:10D2800011460E48F5F7A0FC00BFFFF71BFF00BFDB
:10D2900000224FF400610848F5F796FC00BFFFF745
:10D2A00011FF00BF002201210448F5F78DFC00BFEB
:10D2B000FFF708FF10BD0000001402400004024008
:10D2C00010B500BF00224FF400610C48F5F77CFC5C
:10D2D00000BFFFF7F7FE00BF012211460848F5F72F
:10D2E00073FC00BFFFF7EEFE00BF0122D10203482E
:10D2F000F5F76AFC00BFFFF7E5FE10BD0014024021
:10D300000004024070B50024002500BF0122D102B4
:10D310001648F5F759FC00BFFFF7D4FE00BF012205
:10D3200011461348F5F750FC00BFFFF7CBFE09E0AC
:10D33000601CC4B2FA2C03DDFFF7C2FF012508E030
:10D34000FFF7C0FE4FF400610848F5F72BFC0028FA
:10D35000EED100BF00BF002201210548F5F734FCE3
:10D3600000BFFFF7AFFE284670BD0000001402406A
:10D37000000402407CB55548808841F2180188427B
:10D3800002D10A205249087052484168002088475B
:10D3900000205149087091E04E48808E4E490A782D
:10D3A00001219140084000287CD04C48006821F0C1
:10D3B00017FE054601214948006820F03EFA044660
:10D3C00021F00EFE281A0A3842490C31424A1278DE
:10D3D00031F8121088426CDD4048006820F042FBB2
:10D3E0003C4920313C4A127831F81210884260DD05
:10D3F0003B483949097830F821004FF6FF718842DF
:10D4000016D134480C303449097830F811003449C9
:10D41000314A127821F822002E4820302E4909780E
:10D4200030F811002E492C4A127801EB8201488015
:10D430002C482D49097830F811002C490978254CE1
:10D440002034254DCDE900102D7834F81530143CEA
:10D45000214D2D7834F81520214C1F4D2D7804EBEB
:10D46000850461881E4C1C4D2D7834F825000DF084
:10D470006DF918480C301849097830F81100214628
:10D48000154A127821F822001248203012490978F2
:10D4900030F811002146104A127801EB82014880D1
:10D4A00007E0FFE74FF6FF710D480B4A127820F8AE
:10D4B000221009480078401C074908700648007887
:10D4C000034909788842FFF667AF7CBDA4060020B7
:10D4D00099030020340000209803002090030020CE
:10D4E00044DE0020686E04089B0300209A0300209D
:10D4F0007CB506460D4634465020005D00F0010024
:10D50000A84233D00DB1012000E000205021095D78
:10D5100060F300015020015504F14401684611F008
:10D52000A4FDBDF80000616A898A084400B2ADF824
:10D530000000BDF80210606AC08A084400B2ADF86D
:10D540000200BDF80400616A898A084400B2ADF89F
:10D550000400BDF80610606AC08A084400B2ADF845
:10D5600006006946304622F01BF900BF7CBD37B586
:10D5700082B0054614462146039814F057F80190EE
:10D58000BDF80410084605B030BD000001460B4848
:10D59000007888420FDC09484078884201DB01208E
:10D5A000704706488078884205DC0448C078884285
:10D5B00001DB0120F4E70020F2E70000316F0408EE
:10D5C000014610480079884219DC0E4840798842AB
:10D5D00001DB012070470B488079884205DC09484F
:10D5E000C079884201DB0120F4E70648007A8842CE
:10D5F00005DC0448407A884201DB0120EAE700208C
:10D60000E8E70000316F04082DE9FF4F8DB00546B3
:10D610000E461446F07A022803DC012011B0BDE862
:10D62000F08F3089326901460C901098FBF7CEFBE1
:10D6300007460FB90020F1E7397D01F01F001AF00D
:10D640001EF810B14FF006080AE0397D01F01F0006
:10D6500019F0F8FF10B14FF0050801E04FF0040891
:10D66000386A38B100BF00BF214628463A6A2CF01C
:10D67000F2FADEE0B869002859D021460BA811F073
:10D68000D0FC308818B97088B0F5807F32D0204641
:10D6900011F091FD834600BFE0886188401A401C6C
:10D6A00000B20890301D7188CDE90010308803B2B7
:10D6B00059460BA8089AFAF7B3FEBDF82C0021884A
:10D6C000084400B2ADF82C00BDF82E006188084473
:10D6D00000B2ADF82E00BDF830002188084400B239
:10D6E000ADF83000BDF832006188084400B2ADF8F2
:10D6F000320000BF0BAA09A8A968FAF79BFB814674
:10D70000B9F1000F04D1384602F0B7F9012085E7DE
:10D71000D5F808A009A8A860CDF8008022463146B7
:10D720002846BB6915F0F2F8C5F808A081E022464A
:10D730000BA8A968FAF77EFB0A900A9820B9384628
:10D7400002F09BF9012069E70BA811F034FD099064
:10D750000BA811F030FD00EB400003901DF006FC1B
:10D760008146D5F808A00BA907A811F05AFC0121A1
:10D7700007A811F088FDBDF92C00B4F90010401A7B
:10D780000690BDF92E00B4F90210A0EB010BBDF913
:10D790002E00059042E007AA514602A8FAF74AFB7C
:10D7A0000A900A9800B936E0CDF80090099803B2C3
:10D7B0000FFA8BF2069801B238461AF08DFC0490ED
:10D7C000049801280ED038461AF0A6FB00BF00BF0F
:10D7D00048461DF047FC384602F04FF9C5F808A04E
:10D7E00000201BE702A8A8604B4607AA314628463E
:10D7F000CDF8008015F08AF8BDF81E00401C00B27C
:10D80000ADF81E00BDF82200401C00B2ADF82200A9
:10D810000BF1010B00BF0598401C0590BDF93210BB
:10D8200005988142B7DAC5F808A048461DF01AFCF1
:10D8300000BF384602F021F90120EFE600BF00BF2B
:10D840007047000070B504460420F6F7C5FD0A488D
:10D85000046025464FF47A7045434FF0E02000699C
:10D8600040F002004FF0E021086108464561006980
:10D8700040F00100086170BD1000002030B5044682
:10D88000002504E04FF47A7000F004F86D1CA54206
:10D89000F8D330BD70B5034600224FF0E02675691D
:10D8A0000D4E366803FB06F44FF0E026B16910E038
:10D8B0004FF0E026B06988420BD0884202D20E1A9F
:10D8C000324402E02E1A0E4432440146A24200D3F2
:10D8D00000E0EDE700BF70BD100000202DE9F04131
:10D8E00004460E46D4F800800021204600F06EFB6E
:10D8F00005465DBB002700BF4046A16B29F0ACF98F
:10D90000054605B121E098F80000042805D1E06B38
:10D910000078012121EAD01009E0E06B0078E528C9
:10D9200002D0E06B007808B9012000E0002020B1AF
:10D93000781C0746B04201D107E0002701212046AC
:10D9400000F041F90546002DD6D000BF042D00D1CE
:10D9500007252846BDE8F0812DE9F04704468946B1
:10D9600020462DF09FFD10B10120BDE8F08749460B
:10D970002046FEF7A8FF0746A7634FF40072002178
:10D9800004F13C0028F0F4FE60894FF40041B1EB53
:10D99000402F01D8084601E06089400206464FF05A
:10D9A000000800E07608B6F5007F05D9304606F09D
:10D9B0001CFFB0F10008F5D0B6F5007F17D932464C
:10D9C0000021404628F0D4FE760A002500E03544C8
:10D9D0006089A84207D97A1960783346414600F039
:10D9E000FDFB0028F3D0404606F006FF10E004F1EE
:10D9F0003C080126002500E035446089A84207D98B
:10DA00007A1960783346414600F0E8FB0028F3D0ED
:10DA10006089A84201D00120A7E70020A5E72DE9F1
:10DA2000F04F85B0044625680021204600F0CEFA6C
:10DA300007461FB1384605B0BDE8F08F28780428A6
:10DA40004CD1E86830F089FD01903EE0296901F190
:10DA500024000FF0FDFF0199884200D035E02869CD
:10DA600090F8230003904FF0400A002002901FE03E
:10DA70000AF01F0008B90AF1020A296901EB0A003D
:10DA80000FF0E6FF009006F02DFF8346EA6802994A
:10DA900032F8110006F026FF834500D00BE0039812
:10DAA000401EC0B203900AF1020A0298401C029084
:10DAB00003980028DCD100BF039828B9E9680298D0
:10DAC00031F8100000B906E000BF0021204600F048
:10DAD000EAF8071EBAD000BF3846ACE74FF0FF099E
:10DAE000CDF810904FF0FF30E06400BF2846A16BE6
:10DAF00029F0B2F8074607B162E0E06B06780EB98C
:10DB000004275DE0E06BC07A00F03F0884F80680EF
:10DB1000E52E05D008F0080040B1B8F10F0F05D090
:10DB20004FF0FF094FF0FF30E06442E0B8F10F0F13
:10DB300022D14B20005D00F04000A0BB06F0400069
:10DB400038B1E06B407B049006F0BF06B146206B15
:10DB5000E0644E450CD1E06B417B0498814207D1D3
:10DB6000E16BE868FEF7BCFE10B1A9F1010000E02E
:10DB7000FF2000F0FF091CE0B9F1000F06D1E06BB7
:10DB80002DF038FC0499884200D119E04B20005D4B
:10DB900000F0010040B90B2204F14001E06B28F0D5
:10DBA000C8FD08B90CE004E04FF0FF094FF0FF306A
:10DBB000E0640021204600F006F80746002F95D0CB
:10DBC00000BF384637E72DE9F0410446884627680C
:10DBD000206B00F120063878042801D1800601E08E
:10DBE0004FF40010B04201D80020A063A06B10B920
:10DBF0000420BDE8F081C6F3080000284AD1A06BDC
:10DC0000401CA063606B38B93889B0EB561F41D80F
:10DC10000020A0630420ECE77889401E00EA56202B
:10DC2000002837D12046616B09F00EF90546012D19
:10DC300001D80220DDE7681C08B90120D9E7F8699E
:10DC4000A84221D8B8F1000F03D10020A06304201E
:10DC5000CFE72046616BFEF7AFFF05460DB9072001
:10DC6000C7E7012D01D10220C3E7681C08B90120D4
:10DC7000BFE729463846FFF76FFE08B10120B8E735
:10DC8000E07940F00400E071656329463846FEF70C
:10DC90001AFEA0632663C6F3080107F13C0008449E
:10DCA000E0630020A5E72DE9F05F044688460426DE
:10DCB00027684FF0FF0AD3466CE03846A16B28F086
:10DCC000CBFF064606B168E0E06B05780DB9042687
:10DCD00063E03878042814D1B8F1000F02D0832D06
:10DCE00051D15AE0852D4ED1206BE064204610F0D2
:10DCF00097F9064626B93869007900F03F00A0710F
:10DD00004BE0E06BC07A00F03F0984F80690E52D07
:10DD10000AD02E2D08D029F02000082801D101209A
:10DD200000E00020404502D04FF0FF0A2BE0B9F19F
:10DD30000F0F1CD105F0400038B1E06B90F80DB02A
:10DD400005F0BF05AA46206BE06455450BD1E06B9A
:10DD5000407B584507D1E16BF86829F0C7FB10B14B
:10DD6000AAF1010000E0FF2000F0FF0A0BE0BAF189
:10DD7000000F04D1E06B2DF03DFB584502D04FF071
:10DD8000FF30E06409E000212046FFF71CFF064653
:10DD900006B102E0A06B00288FD100BF0EB10020B9
:10DDA000A0633046BDE8F09F2DE9F04F99B00446DE
:10DDB00026684B20005D00F0A00018B1062019B0C5
:10DDC000BDE8F08F4FF0000B01E00BF1010BF068A4
:10DDD00030F81B000028F8D13078042866D10BF108
:10DDE0000E000F21B0FBF1F000F102094946204678
:10DDF000FFF774FD05460DB12846E0E7A9F10100E3
:10DE00002022216B02FB1010E064E07900F0040096
:10DE1000002845D0E07920F00400E071204606F0AB
:10DE200085FE05460DB12846C9E74FF0FF32204672
:10DE3000616B06F096FE05460DB12846BFE7A06867
:10DE400070B32146684610F0CBF805460DB1284660
:10DE5000B5E770894002D4E90431181841F1000196
:10DE6000C4E90401D4E90473316901F138003A4688
:10DE70002CF0E0F8D4E90473316901F128003A4646
:10DE80002CF0D8F8E07940F00100316981F82100E8
:10DE900068462CF081F905460DB128468FE700BF92
:10DEA000D6E90310FFF798F8002088E70C2204F168
:10DEB000400115A828F04FFC9DF85F0000F001001C
:10DEC00028B340214B2001554FF0010A0EE0534684
:10DED00015A904F14000F26808F03EFB2046FFF768
:10DEE0009EFD054605B104E00AF1010ABAF1640F8E
:10DEF000EDD300BFBAF1640F01D107205FE7042D15
:10DF000001D028465BE79DF85F104B2001559DF836
:10DF10005F0000F0020030B10BF10C000D21B0FBEE
:10DF2000F1F0401C00E00120814649462046FFF701
:10DF3000D5FC054675BBA9F10100B0F1000929D057
:10DF4000206BA0EB4911204600F040F805460DBBC0
:10DF500004F140002DF04EFA149000BF3046A16B42
:10DF600028F07AFE054605B113E009F0FF02E16BE7
:10DF7000F068149B2AF0A8F90120F07000212046D7
:10DF8000FFF721FE054625B9A9F10100B0F100090E
:10DF9000E4D100BFC5B93046A16B28F05DFE05464F
:10DFA00095B920220021E06B28F0E2FB0B2204F15E
:10DFB0004001E06B28F0CFFB4B20005D00F0180023
:10DFC000E16B08730120F0702846F8E62DE9F04176
:10DFD00004460D4626683078042801D1800601E009
:10DFE0004FF40010A84202D905F01F0010B1022022
:10DFF000BDE8F0812563A7682FB93078032802DBDC
:10E00000F76A0020E07147B93089B0EB551F01D89D
:10E010000220EDE7F06AA0631CE070894FEA402817
:10E0200011E03946204608F00FFF0746781C08B972
:10E030000120DDE7022F02D3F069B84201D80220A7
:10E04000D6E7A5EB08054545EBD239463046FEF745
:10E050003AFCA0636763A06B08B90220C8E7A06B15
:10E0600000EB5520A063C5F3080106F13C0008440D
:10E07000E0630020BCE770B50446002514B1012C14
:10E0800007D103E02BF00AFB054604E028F050FF1F
:10E0900001E0012500BF00BF0DB1012070BD0020CF
:10E0A000FCE700002DE9F0470646894615465EBBB1
:10E0B000B9F1000F09D0B9F1010F13D0B9F1020F76
:10E0C00005D0B9F1030F1CD106E000241BE04FF48A
:10E0D00000702860002416E01E48B0F85800288020
:10E0E000002410E01B48416D806DA1FB00700146CB
:10E0F0004FF4007200233846F2F7D2F9286000246A
:10E1000001E0042400BF22E0012E1FD1B9F1000F6D
:10E1100009D0B9F1010F11D0B9F1020F05D0B9F151
:10E12000030F10D106E000240FE04FF400702880A8
:10E1300000240AE008202880002406E04FF4C040B4
:10E140002860002401E0042400BF00E001242046F0
:10E15000BDE8F087FC0600202DE9F04180460E4620
:10E1600014461D46002715B90420BDE8F081B8F11A
:10E17000000F03D0B8F1010F25D113E02A46214644
:10E1800030462BF0B3FA074609E0022F01D02BF0FE
:10E1900085FA2A46214630462BF0A8FA0746002F7A
:10E1A000F3D112E00BE0002000EB44214FF40072A9
:10E1B000304628F01DFF641C06F500766D1E002D0C
:10E1C000F1D1002701E0012700BF00BF0FB90020F7
:10E1D000CBE70120C9E70146002070472DE9F04157
:10E1E00007460E4614461D464FF0000815B9042098
:10E1F000BDE8F08117B1012F24D112E02A46214653
:10E2000030462BF09BFA804607E02BF047FA2A466F
:10E21000214630462BF092FA8046B8F1000FF4D137
:10E2200013E00BE0002000EB44214FF40072304675
:10E2300028F080FF641C06F500766D1E002DF1D1DC
:10E24000A84602E04FF0010800BF00BFB8F1000F80
:10E2500001D10020CCE70120CAE7F8B506460C46FC
:10E2600015460095B4F90630B4F90420B4F902104B
:10E27000B4F900000CF029FB304613F0B9FFF8BDEB
:10E2800010B50EF0E7FD01200CF0C8F910BD00003C
:10E290002DE9FF5F82460C46934658462AF000FC63
:10E2A000074600257E1E3DE0062E00D105264FF0D4
:10E2B000000834E04FF000092CE0A6EB09000390C1
:10E2C000701C012121EA50000290029818B1781EBA
:10E2D000A0EB080000E0404601905846019A0399DF
:10E2E00008F0CEF9A0B9B5EBC40F11DA05F00702BA
:10E2F000C2F107010AEBE502107808F0BBF90090C3
:10E300005846DDE9003203992BF082FA6D1C00BFFC
:10E3100009F10109B9F1020FCFDB08F10108B84595
:10E32000C8DBB61E012EBFDAB5EBC40F00D105E085
:10E3300040F25222024903A0F2F74CFABDE8FF9FD7
:10E340007C22070869203D3D20646174614C656E44
:10E35000202A2038000000002DE9F84F82460E46A2
:10E360009346002E02DB072E00DC05E040F201227E
:10E370004B494CA0F2F72EFA534850F82A0046EACF
:10E38000C0084446002006E0611240F23752514373
:10E3900081EA4404401C0A28F6DB44EA882045F25E
:10E3A000124180EA01094FEAE93000B905E04FF473
:10E3B00002723B4945A0F2F70DFA00270BE03946FF
:10E3C000484608F057F903463A4608210090584657
:10E3D0002BF01EFA7F1C052FF1DD0621484608F0C0
:10E3E00049F907463B460722082158462BF010FA08
:10E3F0000721484608F03EF907463B4608221146E9
:10E4000058462BF005FA0821484608F033F907462C
:10E410003B460822072158462BF0FAF909270CE061
:10E420003946484608F026F9C7F10E01034608228E
:10E43000009058462BF0ECF97F1C0F2FF0DB58466C
:10E440002AF02EFB054600270CE03946484608F026
:10E4500011F90090681EC11B08225846009B2BF042
:10E46000D7F97F1C082FF0DB08270DE03946484616
:10E4700008F000F90090A5F10F00C21908215846D4
:10E48000009B2BF0C5F97F1C0F2FEFDBA5F10802D5
:10E490000123082158462BF0BBF9BDE8F88F000096
:10E4A0007C22070830203C3D2028696E74296D616C
:10E4B000736B2026262028696E74296D61736B208A
:10E4C0003C3D203700000000046304086269747357
:10E4D000203E3E203135203D3D2030002DE9F34FD8
:10E4E00083B00F4603982AF0DBFA804607240CE03D
:10E4F00000232246062103982BF08AF900230622E6
:10E50000214603982BF084F9A41CA8F10700A0422F
:10E51000EEDC6FF0030435E06FF003052FE0281EFA
:10E5200001DB014600E041428946201E01DB014635
:10E5300000E04142494505DD201E01DB014600E0C7
:10E5400041428946B9F1020F02D0B9F1040F15D149
:10E55000E21CE91C002303982BF094F9E21CA8F1BB
:10E5600004004119002303982BF08CF9A8F1040052
:10E570000219E91C002303982BF084F96D1C042D6B
:10E58000CDDD641C042CC7DD01A9384608F04AF82B
:10E590000646002436E0002531E004B93DB114B947
:10E5A000701EA84203D0701EA04201D105B925E01B
:10E5B0004FF0FF391EE04FF0FF3A16E0BAF1000FBE
:10E5C00004D1B9F1000F01D1012000E00020034681
:10E5D00001A8405D00EB090201A8005D00EB0A0103
:10E5E00003982BF015F90AF1010ABAF1010FE5DDE4
:10E5F00009F10109B9F1010FDDDD00BF6D1CB54264
:10E60000CBDB641CB442C6DB072F38DBB9460020E5
:10E6100007E04FEAE92141F62572514381EA4909B1
:10E62000401C0C28F5DB49EA0734A01400B905E0CA
:10E6300040F2ED12134914A0F2F7CCF800251BE0CC
:10E640004FF0000A14E0A8F10B0000EB0A0B04F0F5
:10E6500001032A46594603982BF0DAF804F0010327
:10E660005A46294603982BF0D3F864100AF1010AA0
:10E67000BAF1030FE7DB6D1C062DE1DB00BF05B02F
:10E68000BDE8F08F7C22070862697473203E3E204B
:10E690003138203D3D2030002DE9F04F9BB007463A
:10E6A00089461646BA4617A813F074FE4FF4A02107
:10E6B000384620F041F89DF8691060F382018DF82A
:10E6C0006910304610F093FD054600EBD5704FEA17
:10E6D00060083088404400B2ADF85800708840446B
:10E6E00000B2ADF85A000021384620F057F91590D5
:10E6F000494603A81EF056FE17A80B904FF40030B1
:10E70000109033480490002005900AF13000FAF789
:10E7100059FE044657E02079032800D04DE0208BB5
:10E72000ADF85C00208A00B2ADF85E006079FD288B
:10E7300001DD159803E060791599484300128DF8C2
:10E7400068002568B5F92000E98B08440090B5F908
:10E750002030D5E90512A0681CF02BFB8346B5F9E3
:10E760002000E98B08440090B5F92030D5E9051266
:10E77000E0681CF01EFB0290608B404400B2ADF8D4
:10E780004800149416A80C9003AA1A21384617F0D2
:10E79000EFFB029880B21FFA8BF1CDE90010BDF8B3
:10E7A000480083B216AA17A9484613F0D5FD03AA5C
:10E7B0001B21384617F0DCFB00BF21460AF1300070
:10E7C000FAF7FAFD0446002CA5D11BB0BDE8F08F86
:10E7D000102904082DE9F74F9EB00C46E078022876
:10E7E00002DC21B0BDE8F08F1CA8209910F010FCCD
:10E7F000B4F9200001282EDD94F82200FD282ADB40
:10E80000208840B3BDF8700014F8231F4908C1F3F5
:10E810008001084400B2ADF87000BDF872002178A4
:10E820004908C1F34001084400B2ADF87200BDF8D8
:10E83000740021784908C1F3C001401A00B2ADF854
:10E840007400BDF8760014F82319C1F34001401A92
:10E8500000B2ADF876001E981CA982681AA8F9F7D4
:10E86000E9FA00B9BDE7E07B00F0070616B9A08819
:10E87000199001E0E0881990BDF864106089814228
:10E8800000D100261CA814F0A7FF18901C2111A885
:10E89000F2F724F9A0788DF85D00BDF86400ADF8BA
:10E8A0004C00189860B9208850B94EB91CA8119036
:10E8B000E0788DF85C0011A91E9815F03DFE90E7F8
:10E8C000E078FD2801DBFF2000E0E07810901CA834
:10E8D00010F06AFC0F901CA810F0F3FB0E90DDE91D
:10E8E0000E01814201DA0F9800E00E980D90B4F904
:10E8F00000100D98B1EB600F02DAB4F9000001E0EE
:10E900000D98401007461AA810F04EFC81464FF0B3
:10E91000FF300C9000200B90002F01DC189870B194
:10E9200048461CF023FB0B9000233AB21CA905A813
:10E9300015F0CAFA002105A814F048FC0C90BDF8A7
:10E940006800ADF80C00BDF86C00ADF810000B9835
:10E95000149003A811901690FF208DF85C00A01D64
:10E96000DDE90E2118F0B6F88046B8F1000F0CD0A2
:10E97000022E0AD1BDF96810D8F8080000EB41005A
:10E98000BDF97010A0EB410012901898A0B3BDF92A
:10E990006A502CE028B2ADF80E0028B2ADF8120093
:10E9A0004A4610990B981CF050FDBDF968100FFAFB
:10E9B00089F32AB20B9814F0BFFE8DF854009DF82D
:10E9C0005400012802D102208DF85400012E09D1F3
:10E9D000BDF97210691AD8F8080000EB41000088F0
:10E9E000ADF84C0011A91E9815F0A6FD6D1CBDF9DF
:10E9F0006E00A842CEDACCE0FFE700255CE0BDF86F
:10EA0000720028440FFA80FABDF87600401B0FFA16
:10EA100080FBBDF96A00504504DDBDF96E00584524
:10EA200000DA48E04A4610990B981CF00EFDBDF93B
:10EA30000C100FFA89F352460B9814F07DFE8DF8F6
:10EA400054009DF85400012802D102208DF8540092
:10EA5000BDF96A00504514DCADF80EA0ADF812A067
:10EA6000012E0AD1BDF97210AAEB0101D8F80800F5
:10EA700000EB41000088ADF84C0011A91E9815F07C
:10EA80005BFDBDF96E00584514DBADF80EB0ADF876
:10EA900012B0012E0AD1BDF97210ABEB0101D8F80A
:10EAA000080000EB41000088ADF84C0011A91E9849
:10EAB00015F042FD00BF6D1CBD42A0DBBDF870002B
:10EAC000ADF80400BDF87400ADF80800BDF87200A0
:10EAD000384400B2ADF80600BDF87600C01B00B2A5
:10EAE000ADF80A0001A814F077FE00900098B0B9C4
:10EAF000AEB9BDF87200384400B2ADF80E00BDF8F2
:10EB00007600C01B00B2ADF8120010988DF85C00C2
:10EB10000020149011A91E9815F00EFD38E01098F1
:10EB20008DF85C0001208DF85400BDF97600A0EB53
:10EB3000070ABDF97200C51927E0009870B14A466E
:10EB400010990B981CF081FCBDF968100FFA89F33D
:10EB50002AB20B9814F0F0FD8DF8540028B2ADF8ED
:10EB60000E0028B2ADF81200012E09D1BDF97210C5
:10EB7000691AD8F8080000EB41000088ADF84C0095
:10EB800011A91E9815F0D8FC6D1C5545D5DD00BFA8
:10EB900000BF0B9810B10B981CF064FA0C98401C45
:10EBA00028B10C9815F078FA05A814F0F1FDB8F129
:10EBB000000F02D0404617F084FF00BF11E62DE998
:10EBC000F0478EB007460C461546206910B90EB0C6
:10EBD000BDE8F087A07E022800DCF8E7206919F084
:10EBE0001FFD0646022E55D1002041F6FF71CDE9EA
:10EBF0000001029003460DA8D4E9041226F02AFF72
:10EC0000284610F0D1FA814600EBD970298801EB33
:10EC10006000BDF9348008EBD871A0EB610000B250
:10EC2000ADF82C00BDF82C00BDF834100844401E8F
:10EC300000B2ADF83000284610F043FA814600EBF0
:10EC4000D970698801EB6000BDF9368008EBD87196
:10EC5000A0EB610000B2ADF82E00BDF82E00BDF8AB
:10EC600036100844401E00B2ADF8320003A814F07C
:10EC700035FA60690390208BADF81800A07E8DF8FE
:10EC80002600002000900BAA03A93846236913F040
:10EC900071FEAEE00DA9206919F06AF98046B8F15D
:10ECA000010F02D000BF00BF91E707A813F045FE97
:10ECB000A0788DF82800208BADF82400E07E8DF838
:10ECC0002600A07E8DF82700207FE8BB284610F0A4
:10ECD0006BFA824600EBDA70298801EB60000D992F
:10ECE000C1F38A2909EBD971A0EB610000B2ADF83C
:10ECF0001400284610F0E5F9824600EBDA706988C6
:10ED000001EB60000D994FEA515909EBD971A0EB65
:10ED1000610000B2ADF81600BDF814000D99C1F302
:10ED20008A210844401E00B2ADF81800BDF8160054
:10ED30000D9900EB5150401E00B2ADF81A0005AA23
:10ED400007A93846236900E002E013F0A7FD4FE071
:10ED50006888ADF81600BDF816000D9900EB51500B
:10ED6000401E00B2ADF81A003BE02888ADF8140050
:10ED7000BDF814000D99C1F38A210844401E00B269
:10ED8000ADF8180017E005AA07A93846236913F063
:10ED900085FDBDF814000D99C1F38A21084400B225
:10EDA000ADF81400BDF818000D99C1F38A2108448C
:10EDB00000B2ADF81800BDF91400B5F9041088428E
:10EDC000E1DDBDF816000D9900EB515000B2ADF831
:10EDD0001600BDF81A000D9900EB515000B2ADF8C5
:10EDE0001A00BDF91600B5F906108842BDDD00BF56
:10EDF00000BF00BFEBE62DE9F04F87B083460C461D
:10EE0000164694F82200022802DC07B0BDE8F08F15
:10EE1000208C00B9F9E794F82300C0F3440000B94E
:10EE2000F3E794F8230000F0010000B1EDE730466D
:10EE300010F0BAF98146304610F043F90746B4F9AC
:10EE40000050B94501DA484600E038468246B5EB45
:10EE50006A0F01DD4FEA6A05314605A810F0D8F8BF
:10EE6000BDF9141094F82300400800F0040010B11C
:10EE7000B4F9200003E0B4F92000284440420844DB
:10EE800000B2ADF81400BDF9181094F82300400842
:10EE900000F0080010B1B4F9200003E0B4F920003C
:10EEA00028444042081A00B2ADF81800BDF9161007
:10EEB00094F82300400800F0020010B1B4F92000DB
:10EEC00003E0B4F9200028444042084400B2ADF801
:10EED0001600BDF91A1094F82300C0F3400010B1D9
:10EEE000B4F9200003E0B4F9200028444042081A95
:10EEF00000B2ADF81A00208C281A0FFA80F8B8F189
:10EF0000000F01DA4FF00008A07894F82210CDE944
:10EF10000210E08BADF804002BB205AA314658462A
:10EF2000CDF8008000F002F800BF6EE72DE9FF4F3A
:10EF3000A3B00D4616461F463298FF2801DBFF207E
:10EF400000E032983290284614F046FC2290229835
:10EF500068B967B9309850B932980090324629465E
:10EF6000319B239800F0A9FA27B0BDE8F08F2398D1
:10EF70002946826820A8F8F75DFF00B9F4E720A8C9
:10EF800010F012F981461C2119A81CF098FA484685
:10EF90001BF0ECFF1C904FF0FF301890002F0ADDA3
:10EFA00000233A46294612A814F08EFF002112A829
:10EFB00014F00CF91890012331460CA8309A14F083
:10EFC00083FF00210CA814F001F90B9009A81990F7
:10EFD0001E90BDF8C400ADF86C0032988DF87C002E
:10EFE00033988DF87D00B5F900003844B6F900106B
:10EFF000884203DDB5F90000384401E0B6F90000AD
:10F0000000B2ADF81C00B5F90400C01BB6F904103D
:10F01000884203DAB5F90400C01B01E0B6F9040028
:10F0200000B2ADF82000B5F902003844B6F902107C
:10F03000884203DDB5F90200384401E0B6F9020068
:10F0400000B2ADF81E00B5F90600C01BB6F90610F7
:10F05000884203DAB5F90600C01B01E0B6F90600E4
:10F0600000B2ADF8220007A810F09EF80690B5F99E
:10F070000200B6F90210884201DC012000E0002005
:10F080008246B5F90600B6F90610884201DB012078
:10F0900000E000208346229800284CD0BDF8800074
:10F0A000ADF82400BDF88400ADF82800BDF9824019
:10F0B00029E0BAF1000F04D1BDF91E00A04200DD25
:10F0C00020E0BBF1000F04D1BDF92200A04200DA1C
:10F0D0001DE020B2ADF8260020B2ADF82A00494666
:10F0E0001C981CF023FABDF980100FFA89F322B2A4
:10F0F0001C9814F021FB8DF8740019A9239815F0C1
:10F100001BFA00BF641CBDF98600A042D1DA00BF23
:10F110000CA814F03DFB0B9814F0BEFF1898401C8F
:10F1200028B112A814F034FB189814F0B5FF1C98FD
:10F130001BF098FF18E7B5F90000B6F900108842F7
:10F1400001DC012000E000200590B5F90400B6F9CB
:10F150000410884201DB012000E00020049001201F
:10F160000390059860B1049850B1BAF1000F07D030
:10F17000BBF1000F04D00698322801DA002003907A
:10F1800001208DF87400BAF1000F15D0039898B1E2
:10F19000BDF81C00ADF82400BDF82000ADF8280033
:10F1A0006888ADF826007088401E00B2ADF82A00CD
:10F1B00019A9239815F0C0F9BBF1000F15D00398D9
:10F1C00098B1BDF81C00ADF82400BDF82000ADF8E2
:10F1D0002800F088401C00B2ADF82600E888ADF8A1
:10F1E0002A0019A9239815F0A7F9059898B128883D
:10F1F000ADF824003088401E00B2ADF82800BDF8FC
:10F200001E00ADF82600BDF82200ADF82A0019A9AD
:10F21000239815F091F9049898B1B088401C00B279
:10F22000ADF82400A888ADF82800BDF81E00ADF8A0
:10F230002600BDF82200ADF82A0019A9239815F080
:10F240007BF90398F0BBBDF88000ADF82400BDF851
:10F250008400ADF82800B5F90200B6F90210401A92
:10F26000B84201DA384604E0B5F90200B6F90210F6
:10F27000401A00B20290002442E06888204400B2A4
:10F280000190E888001B00B20090BDF9821001983F
:10F29000814205DDBDF986100098814200DA2EE03A
:10F2A00049461C981CF042F9BDF924100FFA89F365
:10F2B000019A1C9814F040FA8DF87400BDF9821080
:10F2C000019800E020E0814209DC0198ADF82600B9
:10F2D0000198ADF82A0019A9239815F02DF9BDF968
:10F2E00086100098814209DB0098ADF8260000984E
:10F2F000ADF82A0019A9239815F01EF900BF641C67
:10F3000002988442B9DBC7E0BDF88000ADF8240064
:10F31000BDF98410BDF91C00401E814202DABDF91E
:10F32000840002E0BDF91C00401E00B2ADF82800C8
:10F3300009A80FF039FF8046B8F1000F48DD0598A5
:10F3400010B9BAF1000F1ED0BDF9824017E020B20B
:10F35000ADF8260020B2ADF82A0041461C981CF0FA
:10F36000E5F8BDF92410434622B21C9814F0E4F9E4
:10F370008DF8740019A9239815F0DEF8641CBDF906
:10F380001E00A042E3DC059810B9BBF1000F1FD0AE
:10F39000BDF92200441C17E020B2ADF8260020B2CF
:10F3A000ADF82A0041461C981CF0C0F8BDF92410A5
:10F3B000434622B21C9814F0BFF98DF8740019A9C5
:10F3C000239815F0B9F8641CBDF98600A042E3DA71
:10F3D000BDF98010BDF92000401C814202DDBDF95D
:10F3E000800002E0BDF92000401C00B2ADF824000E
:10F3F000BDF88400ADF8280009A80FF0D5FE8046BE
:10F40000B8F1000F48DD049810B9BAF1000F1ED012
:10F41000BDF9824017E020B2ADF8260020B2ADF869
:10F420002A0041461C981CF081F8BDF9241043467F
:10F4300022B21C9814F080F98DF8740019A9239851
:10F4400015F07AF8641CBDF91E00A042E3DC0498B4
:10F4500010B9BBF1000F1FD0BDF92200441C17E00A
:10F4600020B2ADF8260020B2ADF82A0041461C9823
:10F470001CF05CF8BDF92410434622B21C9814F02D
:10F480005BF98DF8740019A9239815F055F8641CE0
:10F49000BDF98600A042E3DA0CA814F079F90B98C4
:10F4A00014F0FAFD12A814F073F9189814F0F4FD92
:10F4B0001C981BF0D7FD00BF56E52DE9FF4F89B022
:10F4C00080460C461546DDF858901C2168461BF016
:10F4D000F6FF07A80090BDF83000ADF808008DF8E1
:10F4E0001890B4F90200B5F90210884201DC01203D
:10F4F00000E000200646B4F90600B5F9061088427F
:10F5000001DB012000E000200746B4F90000B5F956
:10F510000010884201DC012000E000208246B4F99E
:10F520000400B5F90410884201DB012000E000204E
:10F5300083462088ADF81C00A088ADF820006088C4
:10F54000ADF81E006888401E00B2ADF822001EB162
:10F550006946404614F0F0FFE888401C00B2ADF860
:10F560001E00E088ADF822001FB16946404614F045
:10F57000E3FF2088ADF81C002888401E00B2ADF8DB
:10F58000200016B1B5F9020001E0B4F90200ADF8AF
:10F590001E0017B1B5F9060001E0B4F90600ADF898
:10F5A0002200BAF1000F03D06946404614F0C4FFB0
:10F5B000A888401C00B2ADF81C00A088ADF820005F
:10F5C000BBF1000F03D06946404614F0B5FF0DB003
:10F5D000BDE8F08F2DE9F04105463548006812F08E
:10F5E00021FE04462868866BF06A10B13046F16A45
:10F5F0008847206890B1606880B10CE02C480068B2
:10F600000068806A38B12A4A12681068284A12686D
:10F610001268916A884720690028EFD10120206193
:10F62000234800680068C068806900F0010050B19C
:10F630001F4800680068C0688069C0F3400010B1CE
:10F640000120606101E000206061606908B1012073
:10F6500000E0002007462868406998B12868007CCF
:10F66000C0F3011048B12868007CC0F3800020B1CD
:10F67000D6E9001000F01EF804E0D6E90021286861
:10F68000FCF77EFB206880B1606870B12868007C60
:10F6900000F0010000B147B12168A068884202D1A2
:10F6A0006068A06001E02068A060BDE8F081000013
:10F6B000580100202DE9F34F83B0044688480068C4
:10F6C0000568874800680068007CC0F3400040B1CE
:10F6D000287CC0F3800020B100BF00BF05B0BDE8AA
:10F6E000F08F287CC0F3011002280AD12146284659
:10F6F000049A00F004F921462846049AFCF740FBDE
:10F70000EBE0287CC0F30110012804D0287CC0F372
:10F7100001100328F4D1002002907148006812F013
:10F7200081FD824620460FF023FD064620460FF05D
:10F73000B3FC83464FF4A050B0FBF6F000B258453E
:10F7400005DA4FF4A050B0FBF6F000B200E05846E6
:10F750000190B4F90280287CC0F3011001280BD17C
:10F7600068882188401A401E00B2E080E088801B33
:10F77000401C00B2608006E02088608060883044D1
:10F78000401E00B2E08000279EE0ABEB070101982D
:10F79000814201DD019801E0ABEB07000FFA80F92F
:10F7A0000120CAF8100047BBB34526DBB146297CCF
:10F7B000C1F30111032901D1012100E00021084614
:10F7C0003146049A00F00FF9287CC0F3011001289B
:10F7D00007D1A4F8008008EB0600401E00B2A0800C
:10F7E0003FE02888401EA0EB080000B2A080A0885F
:10F7F000801B401C00B2208033E0029820B94FF4F7
:10F8000020501BF0B3FB029002980090297CC1F3BA
:10F810000111032901D1012100E0002108464A46D7
:10F820003146049B00F0B2F8287CC0F30110012897
:10F830000AD108EB070000B2208008EB070048441B
:10F84000401E00B2A0800CE02888401EA0EB0800FB
:10F85000C01B00B2A080A088A0EB0900401C00B231
:10F86000208007EB090058450DDBDAF8180000F09E
:10F87000010040B1DAF81800C0F3400018B10120CF
:10F88000CAF8140002E00020CAF81400029808B96F
:10F89000049800E00298024621462846FCF770FAD8
:10F8A00004E0A86A10B12846A96A8847DAF810006F
:10F8B0000028F6D106FB09F1049800EB4100049002
:10F8C00007EB090007B200BF5F45FFF65EAF029885
:10F8D00010B102981BF0C6FB00BF00BFFEE600009F
:10F8E0005801002018B5048800940C8804801488FE
:10F8F0000C801C881480BDF800401C8018BD2DE9C8
:10F90000FC5F05460C46164620460FF031FC824649
:10F9100020460FF0C1FB83461AFB0BF001900198C3
:10F92000471E4FF0000811E006EB470000880090EA
:10F9300006EB470006EB48010988018006EB48000A
:10F94000BDF8001001807F1E08F101084745EBD883
:10F95000B4F9069068886188401A401E00B2E080C1
:10F960006888A0EB0900401E00B26080B4F90490E2
:10F9700028882188401A401E00B2A0802888A0EB69
:10F980000900401E00B22080BDE8FC9F2DE9F04731
:10F9900004461D46089F01FB02F0A0F1010C481E21
:10F9A00000FB02F800231AE008EB03000CB1ACEBFB
:10F9B000000000260FE0A946AD1C07EB400AB9F88D
:10F9C0000090AAF800900CB1104400E0801A06F1F3
:10F9D00001090FFA89F68E42EDDB581C03B29342FF
:10F9E000E2DBBDE8F0872DE9F04782460C4615467C
:10F9F00000263BE0002731E0601E801B0FFA80F8F4
:10FA0000601EC01B0FFA80F9BAF1000F12D007FB7D
:10FA1000048C05EB4C0308FB049C05EB4C0209FB32
:10FA2000046C05EB4C0106FB047C05EB4C00FFF776
:10FA300059FF11E009FB046C05EB4C0308FB049C27
:10FA400005EB4C0207FB048C05EB4C0106FB047C28
:10FA500005EB4C00FFF746FF781C07B2601C00EB7B
:10FA6000D071B7EB610FC7DB701C06B204EBD47129
:10FA7000B6EB610FBEDBBDE8F08710B5044620464B
:10FA800018F04AFA10BD00002DE9F14F9EB01E9803
:10FA900015F0C5FD05462C461E9815F067FD1D9016
:10FAA000606A19F0BFFD07465020005D00F00100BC
:10FAB00010B91FB0BDE8F08F0FA814F01BFB0FAA00
:10FAC0004FF4E02128461FF082FC04F144010DA808
:10FAD0000FF0CBFABDF83400616A898A084400B29D
:10FAE000ADF83400BDF83610606AC08A084400B230
:10FAF000ADF83600BDF83800616A898A084400B262
:10FB0000ADF83800BDF83A10606AC08A084400B207
:10FB1000ADF83A000DAA0FA91D9814F0CFFA4FF4D2
:10FB2000E02128461EF0A5FE06464FF4E0212846B7
:10FB30001FF011F830440FFA80F84FF4E021284606
:10FB40001FF0BFF830440FFA80F900200B900C90A2
:10FB5000E16CC8191F49096888478246E06CC119E1
:10FB600052460BA81BF01DFBBDF83400404400B208
:10FB7000ADF83400BDF83600484400B2ADF83600A8
:10FB80004FF0000BD4F824A040F25742594650469B
:10FB90001FF0A4F8019001980A9002A813F09EFAB1
:10FBA00002AA4FF4E02128461FF036FB9DF83F00E3
:10FBB000022805DCBDF81400BDF82810884207D0E3
:10FBC00000200BAB0DAA02A900901D9812F0D2FEE6
:10FBD00000BF6EE75C0200202DE9F14F9AB01A9841
:10FBE00015F0BCFC07461A9815F019FD05462C4681
:10FBF000122F7DD11A9815F00FFD06463078022895
:10FC000002D11BB0BDE8F08F94F8380000F003007B
:10FC1000032805D094F8380000F00300022802D130
:10FC200001203070EDE794F83800C0F38400042818
:10FC300008D094F83800C0F38400012802D00120D5
:10FC40003070DEE74FF0000A4622514628461FF08A
:10FC500045F819901998C0B2FF2802D001203070E1
:10FC6000CFE7002128461FF039F98146208E8144D4
:10FC7000B9F1000F02D001203070C2E70021284600
:10FC80001FF053F98046E08E00FB08F04FEA202871
:10FC90001A9815F0C1FC8346B8F5807F09D100227F
:10FCA00005F114015846F8F706F9E8BB0120307059
:10FCB000A7E728461DF0D6FE824628461FF090F999
:10FCC000179004F132001FFA88F100235246CDE963
:10FCD000001018A81799F8F7A3FBBDF86000A98ACF
:10FCE000084400B2ADF86000BDF86210E88A00E098
:10FCF0001DE0084400B2ADF86200BDF86400A98AB6
:10FD0000084400B2ADF86400BDF86610E88A084403
:10FD100000B2ADF86600002218A95846F8F7CBF8F3
:10FD200018B9012030706CE700E000BF19E2152F10
:10FD300001D0182FFAD1002128461FF0F6F880468E
:10FD4000E08E00FB08F04FEA2028002128461FF033
:10FD5000C5F88246208E824428461FF041F919904A
:10FD600028461DF07FFE1890002641F232023146EF
:10FD700028461EF0B3FF0E900E9800B2814600BFD9
:10FD800041F61202314628461EF0A8FF0E900E984A
:10FD900048440FFA80FB00BF41F613023146284663
:10FDA0001EF09CFF0E900E98484400B2179000BFC2
:10FDB00041F61002314628461EF090FF0E900E9834
:10FDC000484400B2169000BF41F611023146284661
:10FDD0001EF084FF0E900E98484400B21590608E7D
:10FDE000584400B2ADF85000A18E1698084400B2F5
:10FDF000ADF8520094F8390000F00300012804D156
:10FE000012A928461DF0D8FD27E014A91FFA88F092
:10FE10000FFA8AF3CDE9000112A8DDE91821F8F7FD
:10FE2000FFFABDF84800A98A084400B2ADF84800BE
:10FE3000BDF84A10E88A084400B2ADF84A00BDF89F
:10FE40004C00A98A084400B2ADF84C00BDF84E1031
:10FE5000E88A084400B2ADF84E0005F1140110A87C
:10FE60000FF0FAF812A905F114000FF0F5F8BE48EA
:10FE70001A991DF0BDFC0F900F98012800D0C0E624
:10FE800010A905F114000FF0E7F8152F7ED1E08DD1
:10FE900008B1A08D00B9B4E6B8F1000F00D1B0E60A
:10FEA0001A9815F063FB064605F114010DA80FF032
:10FEB000D3F8284618F0A2FA0C9094F8390000F014
:10FEC000030001283CD1B4F92C10BDF93020891A67
:10FED000481C00EBD071BDF83420A2EB610109B2DF
:10FEE000ADF83410B4F92C10BDF93020891A481C33
:10FEF00000EBD071BDF83820A2EB610109B2ADF87A
:10FF00003810B4F92E10BDF93220891A481C00EBC4
:10FF1000D071BDF83620A2EB610109B2ADF8361000
:10FF2000B4F92E10BDF93220891A481C00EBD071AB
:10FF3000BDF83A20A2EB610109B2ADF83A1013E026
:10FF400012A80FF069F9BDF834100844401E00B241
:10FF5000ADF8380012A80FF0DEF8BDF836100844EE
:10FF6000401E00B2ADF83A00BDF83400584400B26B
:10FF7000ADF83400BDF836101698084400B2ADF85C
:10FF80003600BDF838101798081A00E0E8E000B213
:10FF9000ADF83800BDF83A101598081A00B2ADF85F
:10FFA0003A0094F8380000F00300012805D094F8D6
:10FFB000380000F0030000287AD106A812F0BDFC3A
:10FFC00006AA002128461FF0C8F81FFA88F0ADF8ED
:10FFD0001A001FFA8AF0ADF81800608EADF81C0008
:10FFE000A18EADF81E1094F83800C0098DF82C00D1
:10FFF000BDF84800584400B2ADF81000BDF84A10F2
:020000040801F1
:100000001698084400B2ADF81200BDF84C101798CD
:10001000081A00B2ADF81400BDF84E101598081A71
:1000200000B2ADF81600B068039004AA04A8B16845
:10003000F7F700FF00B9E4E504A8B060BDF836109A
:10004000608D084400B2ADF80600BDF90600BDF9A8
:100050003610884206DDBDF80600E18D401A00B278
:10006000ADF80600BDF80600E18D0844401E00B260
:10007000ADF80A0049E0BDF83400218D084400B213
:10008000ADF80400BDF90400BDF93410884206DD66
:10009000BDF80400A18D401A00B2ADF80400BDF80F
:1000A0000400A18D0844401E00B2ADF8080016E01F
:1000B00034E001AA06A93046636A12F0EFFBBDF8EE
:1000C0000400BDF83010084400B2ADF80400BDF8DB
:1000D0000800BDF83010084400B2ADF80800BDF9C2
:1000E0000400BDF938108842E3DBBDF80600BDF816
:1000F0003210084400B2ADF80600BDF80A00BDF8A1
:100100003210084400B2ADF80A00BDF90600BDF98E
:100110003A108842AFDB0398B06020E094F83800D2
:1001200000F00300022811D104A812F0D7FF04AA9E
:10013000002128461FF070F80020009005F11402FD
:1001400004A93046636A12F015FC08E000BF00BF46
:10015000002305F114021946304612F09FFB00BF40
:1001600000BF00BF4DE50000306104082DE9FF4FDE
:10017000A1B0064614462498807B00F00F05229813
:10018000807E1F90032D00D10425012D06D0022D65
:100190000BD0042D10D0082D1DD114E0DFF86C8396
:1001A0004FF0800A02201E901AE0DFF864834FF0BF
:1001B000C00A04201E9013E0DFF858834FF0F00AC5
:1001C00010201E900CE0DFF850834FF0FF0A4FF430
:1001D00080701E9004E000BF00BF25B0BDE8F08F26
:1001E00000BF1F98FD2823DACC4801781F98814270
:1001F00003D1CB480068A84213D000200DE018F8C6
:100200000010FF2901D11F9904E018F800101F9A6F
:1002100051430912C34A1154401C1E998842EED31F
:1002200000BFDFF80083BD491F980870BC48056017
:100230002498B0F806B0249800891B900BFB05F0B9
:100240001A90B4F90000B168B1F90010884201DBDE
:10025000002005E0B068B0F90000B4F90010401AC1
:100260001990B4F900005844B168B1F904108842FB
:1002700001DC584606E0B068B0F90400B4F900109B
:10028000401A401C1890B4F90200B168B1F902108C
:10029000884201DB002005E0B068B0F90200B4F943
:1002A0000210401A1790B4F902101B980844B16864
:1002B000B1F90610884201DC1B9806E0B068B0F97D
:1002C0000600B4F90210401A401C16901A991798AB
:1002D0004843199901FB050015902E99159801EBDB
:1002E000D0002E90159800F007071C210DA81BF0D8
:1002F000E6F822988089ADF83C002298807E8DF83F
:100300004C002298807FC0F3C2008DF84D00F9F7B1
:100310006DFB019011F08AFF0C901B980BFB00F114
:100320000C98814201DD0C9802E01B990BFB01F057
:100330000B900B981AF01AFE8146CDF840900020E1
:100340000A9021881998084400B2ADF8200021884D
:1003500018980844401E00B2ADF824006188179830
:10036000084400B2ADF82200BDF82200ADF8260026
:1003700000BFBDF82400BDF82010401A401C00B298
:10038000079000BFBDF82000ADF81400BDF82200B2
:10039000ADF81600BDF82400ADF81800BDF8260031
:1003A000ADF81A0000BFBDF816101698084400B248
:1003B000ADF81A0005A813F00FFA049008A80D90E4
:1003C0001290C5F10800039019980BEB00011898E2
:1003D000081A6843029017981C9078E00A980190D8
:1003E0002AFA07F0209019981D9028E02E9800789E
:1003F000209908400399C91BC8401490149830B143
:10040000149818F800100A9809F8001003E0002169
:100410000A9809F800100398874204D22F442098C4
:10042000E840209005E00027CDF880A02E98401CE1
:100430002E900A98401C0A901D98401C1D901899F7
:100440001D988842D2DB0498A0B1BDF92620BDF9E1
:100450002010019B09EB0300079B13F06DF98DF849
:1004600044009DF8440028B9019909EB010007995F
:100470001BF025F8DDE91801411A0A9801440B9890
:10048000814206D2BDF82600401C00B2ADF826001D
:1004900012E002208DF844000DA9304614F04CF80B
:1004A000BDF82600401C00B2ADF82200BDF82200C5
:1004B000ADF8260000200A90029807442E9800EB21
:1004C000D7002E9007F007071C98401C1C90169927
:1004D0001C98884282DBBDF92200BDF926108842B3
:1004E0000ED0BDF82600401E00B2ADF82600022056
:1004F0008DF844000DA9304614F01EF800200A9033
:1005000048461AF0AFFD00BF67E60000AC230408C0
:10051000AE230408BA230408CA2304086801002093
:100520006C01002054D900202DE9FF4F8FB00C46FC
:1005300015461E46B4F90200401E0E900E9840105B
:100540000D900E9800F001010D9808440C90B5F93B
:100550000000B6F90010884202DAB5F9000001E0A7
:10056000B6F90000ADF82800B5F90000B6F90010A2
:10057000884202DDB5F9000001E0B6F90000401E36
:1005800000B2ADF82C0069880C98081A00B2ADF8DA
:100590002A0069880D98084400B2ADF82E000F9823
:1005A0000AA982680AA8F7F745FC8246BAF1000F4B
:1005B00002D113B0BDE8F08FE08818B1A08808B16F
:1005C000012000E000208346012009900AA813F0D2
:1005D00003F910B10020099004E0BBF1000F01D035
:1005E000002009901C2102A81AF069FF0AA80290B5
:1005F0002088ADF81000207A8DF82000099820B1ED
:1006000002A90F9813F098FF78E00AA80EF0C5FD34
:100610000746BDF92E000190BDF82A00ADF82E0066
:1006200000200090BBF1000F0BD0B4F90600B4F924
:1006300004100844BDF9281091FBF0F200FB1210E1
:10064000009038461AF092FC8046CDF814800AA833
:100650000790BDF92A904AE0394640461AF066FFF5
:10066000BDF928103BB20FFA89F2404613F064F846
:100670008DF81800BBF1000F27D09DF8180020B3AB
:10068000009800211BE0B4F90420824207DBA38814
:100690001B1A1AB28B1819B2831818B20BE0B4F9EE
:1006A0000620B4F904301A44824201DC002002E042
:1006B000002208F801204A1C11B2421C10B2B942B3
:1006C000E1DB02228DF8182000BF02A90F9813F079
:1006D00033FFBDF82A00401C00B2ADF82A00BDF877
:1006E0002E00401C00B2ADF82E0009F1010901985E
:1006F0008145B1DD40461AF0B5FC00BF00BF58E7A8
:100700002DE9FF4FC7B08B4691469A46B9F90200D2
:10071000BAF90210884210DAB9F80200ADF81A01ED
:10072000BAF80200ADF81601B9F80000ADF81801EA
:10073000BAF80000ADF814010FE0BAF80200ADF805
:100740001A01B9F80200ADF81601BAF80000ADF8C8
:100750001801B9F80000ADF81401BDF91401BDF994
:100760001811441ABDF91601BDF91A11451A002CC9
:1007700001DD204600E06042002D01DD294600E059
:100780006942884201DD012000E000204490BBF96D
:10079000026000204390449870B1002D01DD28468E
:1007A00000E068424101002C01DD204600E060428B
:1007B00091FBF0F043900DE0002C01DD204600E0BD
:1007C00060424101002D01DD284600E0684291FBB6
:1007D000F0F04390E0494398085C70433F30C61105
:1007E000771006F0010000EB0708BDF91801BDF90C
:1007F0001411884202DABDF9180101E0BDF91401B3
:10080000801B00B2ADF80401BDF91801BDF9141147
:10081000884202DDBDF9180101E0BDF91401304440
:1008200000B2ADF80801BDF91A01BDF916118842F0
:1008300002DABDF91A0101E0BDF91601801B00B210
:10084000ADF80601BDF91A01BDF91611884202DDA5
:10085000BDF91A0101E0BDF91601304400B2ADF84E
:100860000A01479841A9826841A8F7F7E3FA409046
:10087000409810B94BB0BDE8F08F4498F0B3002C0D
:1008800024DD0021BDF81601C01B00B2CDE9000136
:10089000BDF91431BDF81A01C01B02B2BDF918111F
:1008A00035A813F093F80121BDF81601404400B2B9
:1008B000CDE90001BDF91431BDF81A01404402B27E
:1008C000BDF918112AA813F081F84AE00021BDF8FB
:1008D0001601404400B2CDE90001BDF91431BDF864
:1008E0001A01404402B2BDF9181135A813F06EF890
:1008F0000121BDF81601C01B00B200E00DE0CDE9FA
:100900000001BDF91431BDF81A01C01B02B2BDF9D6
:1009100018112AA813F05AF823E00021BDF9160196
:10092000CDE90001BDF81401404403B2BDF91A211C
:10093000BDF81801404401B235A813F047F8012171
:10094000BDF91601CDE90001BDF81401C01B03B2C9
:10095000BDF91A21BDF81801C01B01B22AA813F075
:1009600035F8002135A812F031FC139000212AA897
:1009700012F02CFC12904FF0FF30119010909BF869
:100980000900C0F3001068BB0321BDF81A01204420
:1009900000B2CDE90001BDF81801401B03B2BDF95A
:1009A0001A21BDF918111FA813F010F80221BDF883
:1009B0001601204400B2CDE90001BDF81401401B2E
:1009C00003B2BDF91621BDF9141114A812F0FEFFEF
:1009D00000211FA812F0FAFB1190002114A812F0B8
:1009E000F5FB109041A80EF0D8FB0F90F8F7FEFF32
:1009F000019011F01BFC0D9041A80EF09AFB0146EE
:100A00000D98814203D241A80EF093FB00E00D98AF
:100A10000C900C981AF0AAFA0B90BDF90A010A90F2
:100A2000BDF80601ADF80A0100200990DDE90B01CF
:100A30001AF07CFD1C2102A81AF041FD41A8029089
:100A4000BBF80000ADF810009BF808008DF82000FE
:100A50000B98059041A80790BDF906010E9040E063
:100A6000BDF90411099B0B9AD0180F9A13B20E9A74
:100A700012B212F061FE8DF818009DF8180028B926
:100A8000099A0B9988180F991AF019FD0F9909986E
:100A9000084409900F99099801440C98814206D2A4
:100AA000BDF80A01401C00B2ADF80A0116E00220B0
:100AB0008DF8180002A9479813F03EFDBDF80A0111
:100AC000401C00B2ADF80601BDF80601ADF80A0100
:100AD00000200990DDE90B011AF028FD0E98401C5A
:100AE0000E900A990E988842BADDBDF90601BDF94B
:100AF0000A1188420CD0BDF80A01401E00B2ADF8C0
:100B00000A0102208DF8180002A9479813F014FD7D
:100B10000B981AF0A7FA35A812F03AFE2AA812F09C
:100B200037FE1198401C10B11FA812F031FE10982A
:100B3000401C10B114A812F02BFE139813F0ACFA5D
:100B4000129813F0A9FA119813F0A6FA109813F05E
:100B5000A3FA00BF8EE60000CA2404082DE9FF4F67
:100B600091B00C4615461E46B4F90200401E109086
:100B7000109840100F90109800F001010F98084451
:100B80000E9029880E98081A00B2ADF83000298816
:100B90000F98084400B2ADF83400B5F90200B6F978
:100BA0000210884202DAB5F9020001E0B6F902004B
:100BB000ADF83200B5F90200B6F90210884202DD44
:100BC000B5F9020001E0B6F90200401E00B2ADF82E
:100BD000360011980CA982680CA8F7F72BF981460A
:100BE000B9F1000F02D115B0BDE8F08FE08818B15F
:100BF000A08808B1012000E00020824601200B906F
:100C00000CA812F0E9FD10B100200B9004E0BAF13D
:100C1000000F01D000200B901C2104A81AF04FFCFB
:100C20000CA804902088ADF81800207A8DF82800D0
:100C30000B9820B104A9119813F07EFC66E00CA873
:100C40000EF0ABFA8346BDF936000390BDF83200D2
:100C5000ADF8360058461AF089F9029002980790CC
:100C60000CA8099000200190BAF1000F0BD0B4F944
:100C70000600B4F904100844BDF9321091FBF0F2FB
:100C800000FB12100190019FBDF9328037E05946F8
:100C900002981AF04BFCBDF930100FFA8BF30FFAE3
:100CA00088F2029812F048FD8DF82000BAF1000F8A
:100CB00013D09DF8200070B1B4F90400B84202DAF4
:100CC00000208DF82000B4F90600B4F9041008449F
:100CD000B84200DC0027781C07B204A9119813F071
:100CE0002BFCBDF83200401C00B2ADF83200BDF85C
:100CF0003600401C00B2ADF8360008F10108039838
:100D00008045C4DD02981AF0ADF900BF00BF6AE764
:100D10002DE9F14FD0B0509814F081FC04462546DF
:100D2000288E10B951B0BDE8F08F509814F01EFC19
:100D30004F90608C20F00400001D60844DA9204677
:100D40001CF03AFE0026B246B4F820800020208431
:100D5000608C20F00400001D608427A813F0CAF9FD
:100D60001FA812F0BBF927AA4FF4A02120461EF0BD
:100D70002EFB1FAA4FF4A02120461EF04DFA608CD6
:100D800020F004006084A4F82080002120461DF09B
:100D90008BFF1E90002120461DF068FE1D90002153
:100DA00020461DF0CBFE1C90002120461DF014FFB4
:100DB0001B9009A84F991CF0F5FA4FF4A02016904B
:100DC000D7480A9000200B903DA80D9035A80E90B2
:100DD00000BF9BE103E00AF101001FFA80FA696A93
:100DE00051F82A00CFA1EFF7A1FE0028F3D0E96A5D
:100DF00031F81600FAF781FA00B181E10027E96ABB
:100E000031F81600FAF769FA08B147F00107E96A04
:100E100031F81600FAF775FA10B147F0800716E0BE
:100E2000A88EB04213D108F0200008B147F0200787
:100E300008F0020008B147F0020708F0040008B10A
:100E400047F0040708F0080008B147F00807A86A4F
:100E500000EBC6014BA80EF0F6F8BDF82C01BDF86A
:100E60003411084400B2ADF82C01BDF82E01BDF8D4
:100E70003611084400B2ADF82E01BDF83001BDF8BE
:100E80003411084400B2ADF83001BDF83201BDF8AC
:100E90003611084400B2ADF8320157B9382227A9FB
:100EA0003DA81AF07EF920221FA935A81AF079F979
:100EB0001DE02784608C20F00400001D60843DA8A4
:100EC00013F018F935A812F009F93DAA4FF4A02142
:100ED00020461EF07CFA35AA4FF4A02120461EF0D1
:100EE0009BF9A4F82080608C20F004006084E96AFB
:100EF00031F81600FAF70DFA8346BBF1000F06D061
:100F00009DF8F10040F001008DF8F10005E09DF83A
:100F1000F10020F001008DF8F1004BA80C9017961D
:100F200009AA1A21204615F023F89DF81701400858
:100F300000F01000F0B39DF8170120F03E001E30C5
:100F40008DF81701BDF92C11B4F914201C98104428
:100F500081420AD19DF81701400820F004009DF855
:100F6000171160F345018DF81711BDF93011B4F96F
:100F700018201B98101A81420AD19DF817014008C9
:100F800020F008009DF8171160F345018DF8171146
:100F9000BDF92E11B4F916201E98104481420CD1CF
:100FA0009DF81701400820F002009DF8171160F32A
:100FB000450100E014E08DF81711BDF93211B4F9C4
:100FC0001A201D98101A81420AD19DF81701400875
:100FD00020F001009DF8171160F345018DF81711FD
:100FE0004BA80EF091F8814607F0200060B1E86A46
:100FF00030F8160000F4007030B1BDF82E01A0EBFF
:10100000090000B2ADF82E014BAA3DA94F9813F08C
:1010100055F835980890BDF9E8000790BDF9E6004D
:101020000690686A50F82A0005904DA80EF0EDF879
:1010300003909DF8F11002460698CDE90121009039
:1010400004A8DDE90732059924F004FD4BA80EF051
:10105000DCF8BDF91010401A039000EBD070BDF819
:101060002C1101EB600000B2ADF82C014BA80EF082
:101070004BF8BDF91210401A039000EBD070BDF888
:101080002E1101EB600000B2ADF82E01BDF82C016D
:10109000BDF81010084400B2ADF83001BDF82E01C3
:1010A000BDF81210084400B2ADF8320107F020007C
:1010B000C0B1E86A30F8160000F4007090B14846FC
:1010C00009EBD071BDF82E21A2EB610109B2ADF898
:1010D0002E1109EBD071BDF83221A2EB610109B2EA
:1010E000ADF83211002000904BAA35A9059B4F980E
:1010F00011F040FC09AA1B21204614F039FF00BF63
:10110000701C86B20AF101001FFA80FA288EB042E4
:101110003FF760AE608C20F00400608400BF01E601
:10112000F86004080A0000002DE9F14F90B0109813
:1011300014F075FA05462C46109814F017FA064676
:101140000EA928461CF0C4FB002794F84800C0F301
:10115000001008B147F0010794F84800C0F34010B0
:1011600008B147F00207002128461DF012FF42F2A5
:10117000D171884205D1688CC0F3802008B947F04E
:10118000040706A811F0AAFFB4F84400ADF82E0039
:101190004620005BADF830008DF8357006AA0021BE
:1011A00028461EF039F80DA8411E626A03780BB973
:1011B0000123037000BF284618F040FA0790284624
:1011C00018F036FA08904FF6FF71079888421ED043
:1011D000089888421BD04FF4802B44F2574259465E
:1011E00028461DF07BFD029002980390BDF80C008C
:1011F000ADF8260000BF2022594628461DF06EFD9E
:10120000029002980390BDF80C00ADF8280094F805
:10121000480000F00700022805D094F8480000F0CC
:10122000070003281FD19DF83400022803D09DF841
:101230003400032817D141F6FF71BDF92A008DE86B
:101240008300BDF92C30069A03A8616A24F002FCE1
:101250000EA80DF0E8FFBDF90C10884202DA01205B
:101260008DF8340000BF04F1300894F8480000F015
:101270000700032805D00EA80DF054FFB0F5806FCD
:1012800001DA4FF000080EA904A8B268F6F7D2FD03
:101290008146B9F1000F02D111B0BDE8F08F94F88A
:1012A000480000F0070070B928461CF0A7FD8346EF
:1012B000CBF1000002B200210EA80DF0CCFF688B2C
:1012C000ADF83E0000BF94F8480000F00700022887
:1012D00005D094F8480000F0070003280ED1D6F896
:1012E00008B004A8B060CDF800800EAA06A9304668
:1012F000636A11F03FFBC6F808B007E0CDF8008044
:101300000EAA06A93046636A11F034FBD6F808A08D
:1013100004A8B06094F8480000F0070003284FD1FB
:1013200041F6FF71BDF92A008DE88300BDF92C302C
:10133000069A03A8616A24F08DFB0EA80DF073FFD6
:10134000BDF90C1088421BDA20221146069814F0D1
:10135000FAFF00EB4000B4F84410BDF80C20114433
:10136000084400B2ADF82E004620005BADF8300016
:10137000CDF800800EAA06A93046636A11F0FAFA89
:101380000EA80DF0CFFEBDF90E10884217DAB4F8A2
:101390004400ADF82E00069814F0F0FF4621095BDA
:1013A000BDF80E201144084400B2ADF83000CDF86D
:1013B00000800EAA06A93046636A11F0DBFA00BF6E
:1013C000C6F808A000BF67E72DE9F04FA3B00746B5
:1013D00089461646229730460DF009FF054600EB78
:1013E000D5704FEA60083088404400B2ADF8840000
:1013F0007088404400B2ADF886001EA811F0BAFE15
:101400001EAA4FF4A02138461DF06DFF18A811F058
:1014100094FA18AA4FF4A02138461DF09EFE002130
:1014200038461DF0BBFA1790494605A81BF0BAFFD5
:101430007048069021A80E9022983030F7F7C2FF2E
:101440000446D1E025681694207901285CD1B5F9CD
:101450002000E98B08440090B5F92030D5E9051249
:10146000E06819F0A6FC8246A88B00EB0801608AB0
:1014700008440FFA80FB0FFA8AF024F0FDF910FB04
:101480000BF047F6FF7190FBF1F0BDF886100844B1
:1014900000B2ADF812000FFA8AF024F0E5F910FB63
:1014A0000BF047F6FF7190FBF1F0BDF88410084493
:1014B00000B2ADF81000A08AADF87800208A00B222
:1014C000ADF87A006079FD2801DD179803E06079B6
:1014D0001799484300128DF88000012013901EA830
:1014E0000B9004A80F9005AA1A21384614F040FD6D
:1014F00004AB21AA1EA9484611F025FE05AA1B210E
:10150000384614F035FD68E02079002865D120695F
:1015100000B963E0B5F92000E98B08440090B5F903
:101520002030D5E90512E06819F043FC824604A991
:10153000206916F01DFDBDF88410A08A081A00B2BB
:10154000ADF80800BDF88610E08A081A00B2ADF8C0
:101550000A00BDF808000499C1F38A210844401E1E
:1015600000B2ADF80C00BDF80A00049900EB515030
:10157000401E00B2ADF80E006079FD2801DD17981D
:1015800003E060791799484300128DF86B00A08A38
:10159000ADF86400E18A18A8C1800AEB8A004FEA1E
:1015A000400ABAF5616F01DDAAF5616A1FFA8AF097
:1015B000ADF8600018A80C9005AA1A21384614F05E
:1015C000D7FC02AA18A94846236911F067F905AAB1
:1015D0001B21384614F0CCFC00BF00BF21462298E6
:1015E0003030F7F7E9FE0446002C7FF42BAF23B030
:1015F000BDE8F08F102904082DE9F74F8AB00C469A
:10160000904694F82A00022802DC0DB0BDE8F08F65
:10161000E08C00B9F9E794F82A90B9F1FD0F01DDEB
:101620004FF0FF09414608A80DF0F2FC208D401E46
:1016300005B2BDF82000401B00B2ADF82000BDF897
:101640002200401B00B2ADF82200BDF8240028445F
:1016500000B2ADF82400BDF82600284400B2ADF871
:10166000260008A906A80DF0D3FCBDF81800E18CEF
:10167000401A00B2ADF81800BDF81C00E18C084417
:1016800000B2ADF81C00BDF81A00E18C401A00B29F
:10169000ADF81A00BDF81E00E18C084400B2ADF8A8
:1016A0001E0008A80DF080FD824608A80DF009FD77
:1016B0000746B4F90060BA4501DA504600E0384602
:1016C0008346B6EB6B0F01DD4FEA6B06E08C3044CE
:1016D00000B20590A07894F82A10CDE90210A08CF1
:1016E000ADF8040030B2009008AA06A9059B0A983C
:1016F000FDF71CFC00BF88E72DE9F04F8BB0814659
:10170000484613F08CFF05462C46484613F02EFF42
:101710008346606A17F086FF82469AF80000002828
:101720003ED1A06A00283BD0A06A0078C0B303A8CD
:1017300011F0D4FC03AA4FF4002128461DF06CFDE3
:1017400094F85C00C0F3C00028B19DF8290040F077
:1017500002008DF82900002128461DF0FCF90746FB
:10176000002128461DF0ADFA8046002128461DF0D4
:1017700080F8064605F1140101A80DF076FC08EB8F
:10178000060002B2B81901B201A80DF064FD0020F4
:10179000009001AA03A95846A36A11F0EBF800BF14
:1017A0000BB0BDE8F08F7CB50446A0698568608900
:1017B000002856D1A089002853D1E0882189884289
:1017C0004FDAE18808B224F057F8B4F90410B4F9FC
:1017D0000E20891A48432168498801EBE03000B2A5
:1017E000ADF80200E1885A3108B224F045F8A1882A
:1017F00010FB01F02168098801EBE03000B2ADF880
:101800000400218908B224F037F8A18810FB01F008
:101810002168498801EBE03000B2ADF8060021896B
:101820005A3108B224F028F8B4F90410B4F90E20A3
:10183000891A48432168098801EBE03000B2ADF80D
:1018400000002A4669466846F6F7F4FA06463EB1B5
:10185000A169C1F808D06A462169A06912F02EFC7E
:10186000C2E0608910B1A08900287BD16089D0BB1B
:1018700020680088ADF8000020684088A1880844EE
:1018800000B2ADF80600E18808B223F0F5FFB4F924
:101890000410B4F90E20891A48432168498801EBE5
:1018A000E03000B2ADF80200E1885A3108B223F00E
:1018B000E3FFA18810FB01F02168098801EBE0300B
:1018C00000B2ADF804002A4669466846F6F7B2FA57
:1018D00006463EB1A169C1F808D06A462169A069EF
:1018E00012F0ECFB00BFA08900287DD120680088A1
:1018F000A188084400B2ADF8040020684088ADF823
:101900000200218908B223F0B7FFA18810FB01F083
:101910002168498801EBE03000B2ADF8060021896A
:101920005A3108B223F0A8FFB4F90410B4F90E201C
:10193000891A48432168098801EBE03000B2ADF80C
:1019400000002A4669466846F6F774FA06463EB134
:10195000A169C1F808D06A462169A06912F0AEFBFE
:1019600042E0FFE76089A189884205D1608918B10A
:101970002089E188884211DB6089022802D1A08990
:1019800001280BD06089032802D1A089022805D044
:101990006089032828D1A089012825D120680088E2
:1019A000ADF8000020684088ADF80200206800888B
:1019B000A188084400B2ADF8040020684088A188DE
:1019C000084400B2ADF806002A4669466846F6F7B4
:1019D00031FA06463EB1A169C1F808D06A462169CC
:1019E000A06912F06BFB00BFA06985607CBD7CB56F
:1019F0000446A06985686089012856D1A08901281C
:101A000053D1E088218988424FDAE18808B223F077
:101A100033FFA18810FB01F02168498801EBE03019
:101A200000B2ADF80600E1885A3108B223F024FF75
:101A3000B4F90410B4F90E20891A484321680988C2
:101A400001EBE03000B2ADF80400218908B223F0C8
:101A500013FFB4F90410B4F90E20891A4843216821
:101A6000498801EBE03000B2ADF8020021895A311B
:101A700008B223F001FFA18810FB01F0216809885A
:101A800001EBE03000B2ADF800002A466946684636
:101A9000F6F7D0F906463EB1A169C1F808D06A460A
:101AA0002169A06912F00AFBC7E06089012802D011
:101AB000A08901287ED1608901283AD12068008858
:101AC000A188401A00B2ADF8000020684088ADF847
:101AD0000200E18808B223F0CFFEA18810FB01F0DC
:101AE0002168498801EBE03000B2ADF80600E188DA
:101AF0005A3108B223F0C0FEB4F90410B4F90E2034
:101B0000891A48432168098801EBE03000B2ADF83A
:101B100004002A4669466846F6F78CF906463EB147
:101B2000A169C1F808D06A462169A06912F0C6FA15
:101B300000BFA0890128B7D120680088401E00B2EC
:101B4000ADF8040020684088A188084400B2ADF8D0
:101B50000600218908B223F08FFEB4F90410B4F90D
:101B60000E20891A48432168498801EBE03000B211
:101B7000ADF8020021895A3108B223F07DFEA18818
:101B800010FB01F02168098801EBE03000B2ADF8EC
:101B900000002A4669466846F6F74CF906463EB10B
:101BA000A169C1F808D06A462169A06912F086FAD5
:101BB00043E0FFE76089A189884206D16089012856
:101BC00003D02089E18888420FDB608910B9A089A1
:101BD00002280AD0608910B9A089032805D060893D
:101BE00003282AD1A089022827D120680088A1884B
:101BF000401A00B2ADF8000020684088ADF802003D
