:020000040800F2
:1000000030FF0020D1020008B73B0008AF3B0008DA
:10001000B33B0008251900085549000800000000FE
:10002000000000000000000000000000390200088D
:1000300029190008000000007D020008B9460008E8
:10004000EB020008EB020008EB020008EB020008DC
:10005000EB020008EB020008EB020008EB020008CC
:10006000EB020008EB020008EB020008EB020008BC
:10007000EB020008EB020008EB020008EB020008AC
:10008000EB020008EB020008EB020008EB0200089C
:10009000EB020008EB020008EB020008EB0200088C
:1000A000EB020008EB020008EB020008EB0200087C
:1000B000EB020008EB020008EB020008EB0200086C
:1000C000EB020008EB020008EB020008EB0200085C
:1000D000EB02000831490008EB020008EB020008BF
:1000E000EB020008EB020008EB020008EB0200083C
:1000F000EB020008EB020008EB020008EB0200082C
:10010000EB020008EB020008EB020008EB0200081B
:10011000EB020008EB020008D1460008EB020008E1
:10012000EB020008EB020008EB020008EB020008FB
:1001300000F002F800F070F80AA090E8000C824489
:100140008344AAF10107DA4501D100F065F8AFF266
:10015000090EBAE80F0013F0010F18BFFB1A43F0A5
:10016000010318478CFF0600ACFF06000A444FF05D
:10017000000C10F8013B13F0070408BF10F8014B06
:100180001D1108BF10F8015B641E05D010F8016B4B
:10019000641E01F8016BF9D113F0080F1EBF10F8AF
:1001A000014BAD1C0C1B09D16D1E58BF01F801CBD2
:1001B000FAD505E014F8016B01F8016B6D1EF9D555
:1001C0009142D6D37047000000230024002500266A
:1001D000103A28BF78C1FBD8520728BF30C148BFAA
:1001E0000B60704766293DF0D685642900F0768162
:1001F000782900F0AF81732900F0A78600207047AE
:100200001FB500F0DBFE0400002000213DF064F883
:10021000E0601FBD10B510BD00F08EFF1146FFF766
:10022000EFFF33F0BBF900F0ACFF03B4FFF7F2FFD0
:1002300003BC06F0DDFC0000224B19680868B0E83A
:10024000F00F80F30988BFF36F8F4FF0000080F349
:1002500011884EF00D0E704700000000064800683F
:10026000006880F3088862B661B6BFF34F8FBFF3B2
:100270006F8F00DF00BF00BF08ED00E0EFF30980E3
:10028000BFF36F8F0F4B1A6820E9F00F106008B5AD
:100290004FF0500080F31188BFF34F8FBFF36F8F83
:1002A0003CF03CF84FF0000080F31188BDE80840B6
:1002B00019680868B0E8F00F80F30988BFF36F8F02
:1002C000704700BF9C000020EFF3058070470000DE
:1002D0000948804709480047FEE7FEE7FEE7FEE7DA
:1002E000FEE7FEE7FEE7FEE7FEE7FEE70448054916
:1002F000054A064B70470000CD4600083101000852
:1003000030ED002030FF002030EF002030EF0020E3
:10031000704753EA020C00F069802DE9F04B4FF072
:100320000006002B1FBFB3FA83F503FA05F424FA85
:1003300005F65E4012BF1643B2FA82F502FA05F4E2
:10034000C5F120051EBF22FA05FC44EA0C04203545
:1003500056EA044C4FEA144418BF641C4FF00008DE
:100360004FF00009904271EB030C39D3002919BFFB
:10037000B1FA81F701FA07F6B0FA80F700FA07F64A
:10038000C7F120071EBF20FA07FC46EA0C062037FB
:10039000B6FBF4FCA7EB0507103F07F01F0BCBF1F2
:1003A00020060CFA0BFB2CFA06F644BFB3460026D7
:1003B000202FA4BF5E464FF0000B5BEA060C08BF7F
:1003C0004FF0010B19EB0B09ABFB027C48EB060865
:1003D000C01B06FB02CC0BFB03CC71EB0C01C1E78D
:1003E0000B46024641464846BDE8F08B13B54FF038
:1003F00000004FF00001AFF30080BDE81C407047E3
:1004000010B54C1084EA530404D54042C1F10001F8
:1004100038BF491E1B4204D55242C3F1000338BF06
:100420005B1EFFF776FF14F0804F04D04042C1F10D
:10043000000138BF491E14F0004F04D05242C3F1EE
:10044000000338BF5B1E10BD0FB4044910B503AAEA
:10045000029800F07FFD10BC5DF814FB1400002032
:100460000FB41CB5074B06AA7B446946009005985B
:1004700000F041FD0020694600F050FD1CBC5DF815
:1004800014FB0000B10A000070B50C460546012AB5
:1004900005D02878800600D5EA69002302E0012310
:1004A00005E05B1C934202D2E05C0028F9D1A86908
:1004B000E618C01AA861286A184428622846AFF3D3
:1004C000008004E0D5E9012114F8010B9047B44203
:1004D000F8D32846AFF3008070BD00002DE9F0414D
:1004E0000646002410687529314616A510D0AFF3D2
:1004F0000080002802DA404213A507E031688A072D
:1005000001D512A502E0490704D511A5012401E097
:10051000AFF3008000210A2206F1240709E0B0FBB6
:10052000F2FCB0FBF2F302FB1C00303078541846AA
:10053000491C0028F3D123462A463046BDE8F04145
:1005400000F06BBA000000002D0000002B0000003E
:100550002000000070B504460D4621461068AFF338
:1005600000802188090502D50F4A7A4402E00E4A2C
:100570007A440E32002104F1240305E000F00F0656
:100580000009965D5E54491C0028F7D120780023AD
:10059000000704D5702D02D009B102231132204684
:1005A000BDE8704000F039BA6CF506002DE9F05F47
:1005B000894604464FF0000ADFF874B1FB44C0F8E6
:1005C00020A02046E1688847002874D0252806D05E
:1005D000D4E901219047206A401C2062F1E70026FF
:1005E0005F462046E16888472028054607DB312D15
:1005F00005D2781910F8200C08B10643F1E7B007CE
:1006000001D526F00406C4F81CA00027C4F818A0E1
:100610002A2D09D0284604F0EDF938B304EB8708F9
:10062000303DC8F8185019E059F8041B204604EB77
:1006300087029161E1688847012F054618D1E0697A
:10064000002820DA26F020061DE0D8F8180000EB7C
:10065000800005EB40003038C8F818002046E168FB
:100660008847054604F0C6F90028EED1012F0AD0CC
:100670002E2D08D12046E16888477F1C0546022FB1
:1006800046F02006C4DBA069002803DA404246F0A9
:100690000106A061F00701D026F010066C2D0BD0EA
:1006A000682D09D04C2D39D06A2D35D0742D35D018
:1006B0007A2D33D016E038E0E1682F46204688478F
:1006C000B842054609D16C2F26D04FF48060E1680E
:1006D000064320468847054604E06C2F1AD04FF4A5
:1006E000807006430DB3A5F14100192802D82035CA
:1006F00046F400664A462946204626604E46FFF7E5
:1007000071FD80B101280BD0F61D26F0070000F125
:10071000080956E74020E4E78020D8E70020D6E724
:1007200006F104094DE7284652E7206ABDE8F09F2C
:1007300042F5060040EA0103024630B59B0710D19E
:100740004FF0013400E008C208C91D1B9D4315EAA3
:10075000C41FF8D013F0FF0102F8011B0DD01B0AD3
:10076000F8E711F8013B002B02F8013B05D011F826
:10077000013B002B02F8013BF3D130BD10B5431C07
:1007800002E010F8011B71B18107FAD14FF001327C
:1007900002C88C1A8C4314EAC211F9D0C01A0A0696
:1007A00003D0C01E10BDC01A10BD0A0401D0801EA7
:1007B00010BD0902FCD0401E10BD032A40F230805B
:1007C00010F0030C00F0158011F8013BBCF1020F92
:1007D000624498BF11F801CB00F8013B38BF11F813
:1007E000013BA2F1040298BF00F801CB38BF00F82A
:1007F000013B11F0030300F02580083AC0F00880A7
:1008000051F8043B083A51F804CBA0E80810F5E78A
:10081000121D5CBF51F8043B40F8043BAFF300806D
:10082000D20724BF11F8013B11F801CB48BF11F8E2
:10083000012B24BF00F8013B00F801CB48BF00F8B2
:10084000012B704710B5203AC0F00B80B1E818506A
:10085000203AA0E81850B1E81850A0E81850BFF4AA
:10086000F5AF5FEA027C24BFB1E81850A0E8185049
:1008700044BF18C918C0BDE810405FEA827C24BF9D
:1008800051F8043B40F8043B08BF7047D20728BF2B
:1008900031F8023B48BF11F8012B28BF20F8023B7A
:1008A00048BF00F8012B704702F0FF0343EA032220
:1008B00042EA024200F062BB4FF0000200B513466C
:1008C00094469646203922BFA0E80C50A0E80C5070
:1008D000B1F12001BFF4F7AF090728BFA0E80C5021
:1008E00048BF0CC05DF804EB890028BF40F8042B1A
:1008F00008BF704748BF20F8022B11F0804F18BF87
:1009000000F8012B704700004FF0013C50F8042B19
:1009100051F8043B9A4221D1A2EB0C03934313EA12
:10092000CC1317D150F8042B51F8043B9A4215D13F
:10093000A2EB0C03934313EACC130BD150F8042B16
:1009400051F8043B9A4209D1A2EB0C03934313EAFA
:10095000CC13DBD04FF00000704700BFD01A01BAB3
:10096000B1FA81F101F0180122FA01F0CB40C1F196
:100970002001DBB2C0B2C01A2CFA01F3D11A9143A4
:1009800011EAC311E6D1704770477047704770474E
:1009900030B5B0F10A024FEA900E71F100034EEA51
:1009A000817EB0EB0E0061EB91014FEA101E4EEA22
:1009B000017E10EB0E0041EB11114FEA102E4EEAB2
:1009C000016E10EB0E0041EB11214FEA104E4EEA82
:1009D000014E10EB0E0041EB1141401841F10001B6
:1009E0004FEAD00040EA41704FEAD10110EB800598
:1009F0004FEA810444EA907444EB01046D1944EB1E
:100A00000404521BA3414FF0000348BF0A3200D533
:100A100030BD401C41F1000130BD2DE9F0470D46CD
:100A200099469246044600F124080168880604D5D8
:100A3000E06921F01001216000E00120A84201DD01
:100A4000471B00E00027A1697A1902EB0900081A88
:100A5000A0612078C00602D42046AFF300800026B3
:100A600008E0D4E901211AF806009047206A401CEA
:100A7000761C20624E45F4DB2078C0060AD520465D
:100A8000AFF3008006E0D4E9012130209047206ACE
:100A9000401C2062381EA7F10107F4DC07E0D4E90E
:100AA000012118F805009047206A401C2062281E8A
:100AB000A5F10105F3DC2046AFF3008020780006A5
:100AC00002D50220BDE8F0870120FBE770472DE941
:100AD000FF4F0C461E464FF0FF378BB0D2E90001A6
:100AE000DDF860800A908A46C1F30A5505B93D4693
:100AF000002108464FF00000BAF1000F00F440005A
:100B000005DA00EB80004FF4400101EA50004FEAA3
:100B10009059B9F1010F00DDB9460A9850EA4A0030
:100B20000ED044F61050A5F2FF3545432F14B8F10E
:100B3000000F1ED07542291E1EDDC9F100021CE007
:100B4000B8F1010F4FF0000001D0302103E0F24373
:100B500005E02154401CB042FBDB3046002200215E
:100B600021540B99C1F80880C1E900200FB0BDE8FD
:100B7000F08FBD1B6D1CDEE74A4600DA694206A80D
:100B800000F060FA06AB93E8070003AB83E80700C8
:100B900050460A9900F0FEFA8DE80700A0F50050D3
:100BA0001F3800900398002D0ADD42F21F014A46CB
:100BB0000844002303A90390684600F067FD09E09C
:100BC000A0F500504A461F38002303A90390684649
:100BD00000F071FD8DE807000004000C03D04FF019
:100BE000FF30410800E01046B8F1000F03D00022AA
:100BF000009215461EE0751E05D4FFF7C9FE30327F
:100C000062556D1EF9D5B3460122084302D0002279
:100C10007F1C04E02078302801D100227F1E002AAA
:100C2000099784D01DE0112D07DAFFF7B1FE3032AD
:100C300062556D1C50EA0102F5D1084302D00098BC
:100C4000C8B10EE00021681E05E0235C625C6354BD
:100C50002254401E491C8142F7DBAB46A81B401EB4
:100C60000990002004F80B000B98099AC0F808803E
:100C7000C0E9002B7AE711264FF0000857E72DE96D
:100C8000F04F88460446D21D22F0070191B0D1E909
:100C90000001CDE90A0103F05FFE02460B98C00F88
:100CA00001D02D2007E02068810701D52B2002E02C
:100CB000202101EAC000032A099001D0072A05DBA0
:100CC00003464146204600F07DF90BE1207880067E
:100CD00001D5E06900E00620B8F1650F814606D035
:100CE000B8F1660F18D0B8F1670F70D131E000206D
:100CF000B9F1110F009001DB112301E009F10103AB
:100D00000AAA01A90CA8FFF7E2FEDDE90C70002693
:100D100009F10105834647E001204B4600904FF062
:100D200000470AAA01A90CA8FFF7D1FEDDE90DB022
:100D30000C995D46002610B909F101000D18B9EBB8
:100D4000050003D4C0F1FF3609F10105A5EB090048
:100D50002BE0B9F1010F01DA4FF001090020B9F1E0
:100D6000110F0090484601DD112300E003460AAA56
:100D700001A90CA8FFF7ABFEDDE90C704D4600267B
:100D80008346207800070AD4AB4500DA5D4601A807
:100D9000012D04DD411911F8011C302907D04F4500
:100DA00002DA17F1040F04DA012082460FE06D1E0B
:100DB000EEE7002F02DCED1B3E4403E0781CA84266
:100DC00000DD7D1CB81B00F1010A4FF000472078C0
:100DD000000703D4AA4501DB4FF0FF3A0021B7F129
:100DE000004F0DF143088DF8431024D002202B232F
:100DF000002F01DA7F422D230A21021EA0F10100FB
:100E000000DC5FB197FBF1FC97FBF1F201FB1C7C6E
:100E100017460CF1300C08F801CDEEE7A8F10100FF
:100E200003702188090501D5452100E06521A0F165
:100E3000010800F8011C09980FA9A1EB0807FF1D84
:100E400000B10120411901EBEA70A1693844081A88
:100E5000401EA0612078C00602D42046AFF3008077
:100E6000099828B1D4E901219047206A401C2062EA
:100E70002078C00622D52046AFF300801EE0002E69
:100E800004DBB34502DD01A8805D00E03020D4E939
:100E900001219047206A401C2062761CAAF10100C3
:100EA0005FEA000A0AD100F089F8C0680168405C76
:100EB000D4E901219047206A401C2062281EA5F138
:100EC0000105DCDC07E0D4E9012118F8010B9047AB
:100ED000206A401C2062381EA7F10107F3DC20467F
:100EE000AFF30080032011B041E6000001694A1C05
:100EF00002610878704700B58FB0CDE9013100215B
:100F0000059105497944CDE9031011466846FFF77C
:100F10004DFB0FB000BD0000E5FFFFFF0A6802F8BF
:100F2000010B0A60704710B5436913B1AFF300803D
:100F300001E0FFF7A9FA012010BD127800F12401A9
:100F40000A7000224A700122EDE711684FF0FF326B
:100F5000E9E70000074B70B50D467B44FFF7CBFF78
:100F60000446284600F0E0F810B14FF0FF3070BDA5
:100F7000204670BDF74601004FF000020429C0F082
:100F8000128010F0030C3FF499ACCCF1040CBCF1CE
:100F9000020F18BF00F8012BA8BF20F8022BA1EB0D
:100FA0000C01FFF78BBC5FEAC17C24BF00F8012B6A
:100FB00000F8012B48BF00F8012B7047004870472C
:100FC000F0EC00202DE9F0411F460446032601689D
:100FD000072A01F4006004DB08B116A505E016A598
:100FE00003E008B115A500E015A521F01000206070
:100FF000A069C01EA0610FB1401EA0612046AFF3E2
:1010000000804FB1D4E9012138469047206A401C46
:101010002062C01C206206E0206AFAE7D4E90121C0
:1010200015F8010B9047761EF8D22046AFF30080EA
:10103000BDE8F0814E414E006E616E00494E4600A3
:10104000696E66002DE9F047814616468AB035483C
:1010500078440DC88DE80D0032487844801C03ACFC
:101060000DC884E80D0041F69B300844372190FB01
:10107000F1F290FBF1F5A5F1800501FB12041B3C98
:1010800002D56442012000E00020DFF898A08046ED
:101090000027FA44AAF1BE0A0EE0E0070AD0324661
:1010A000684607EB470101230AEB810100F003FBCF
:1010B0008DE8070064107F1C002CEED1194F7F448F
:1010C000AE3F19E0E80715D007EB04100DF1180A40
:1010D00090E80E008AE80E00C068F04201D198192D
:1010E00008903246012306A903A800F0E4FA03ABF6
:1010F00083E807006D10641C002DE3D14FF001035D
:1011000032466946B8F1000F03A802D000F0BEFADB
:1011100001E000F0D0FAC9E90001C9F808200AB0DE
:10112000BDE8F0873CEB0600007B00F080007047D4
:1011300000487047D0EC00207546FFF7F9FFAE4637
:1011400005006946534620F00700854618B020B5D3
:10115000FFF7CCF8BDE820404FF000064FF0000745
:101160004FF000084FF0000B21F00701AC46ACE84F
:10117000C009ACE8C009ACE8C009ACE8C0098D46BC
:10118000704710B50446AFF300802046BDE810401C
:10119000FFF74BB85FEA400C08BF91F0000F4FEA31
:1011A0008C234FEAC12243EA51514FEA1C5018BF29
:1011B00000F5F0404FEA300018BF41F000415FEA0F
:1011C0006C5C00F02980BCF1FF3F08BF40F080401C
:1011D0007047130C06BF12044FF0100C4FF0000CB8
:1011E000130E04BF12020CF1080C130F04BF1201FE
:1011F0000CF1040C930F04BF92000CF1020CD30FFE
:1012000004BF52000CF1010C11464FF00002A0F196
:101210001F00A0EB0C00704711F0004F08BF704793
:1012200031F000413FF4D5AF0B0C06BF09044FF07D
:10123000100C4FF0000C0B0E04BF09020CF1080C4F
:101240000B0F04BF09010CF1040C8B0F04BF8900C4
:101250000CF1020CCB0F04BF49000CF1010CCCF1D6
:101260002003A0EB0C0022FA03F302FA0CF241EA8D
:10127000030100F10100704720F07F4C80EA030079
:1012800023F07F47ACEB070303F57C5300F00040ED
:1012900003F1FF032DE980494FEA154B09B44FEAEA
:1012A000144325EA0B4E24EA03480FF2042606EB0A
:1012B000132749083E785FEA320203FB0667C7F549
:1012C000000707FB06F64FEA54374FEAD64606F109
:1012D000020607FB066CCCF1005C4FEA1C472CEAC7
:1012E000074C07FB06F40CFB06F504EB15464FEA2A
:1012F000961634BF00204FF000404FEAD13706FB6E
:1013000007FC4FEA1C4C0CFB0BF7D21B03FB0CF742
:1013100061EB07010CFB0EF7B0EB074072EB1742D5
:101320000CFB08F734BFA2EB0742B2EB074261EBBC
:1013300017414FEA0C444FEA910706FB07FC4FEABE
:101340001C4C0CFB0BF7B0EBC74072EB573203FBA6
:101350000CF734BFA2EBC742B2EBC74261EB573187
:101360000CFB0EF7B0EBC70072EB57720CFB08F7E3
:1013700034BFA2EBC702B2EBC70261EB5771039F08
:101380004FEA816141EA921104EBCC044FEAD13774
:101390004FEA826206FB07FC42EA90124FEA806045
:1013A0004FEA1C4C0CFB0BF7D21B03FB0CF761EB59
:1013B00007010CFB0EF7B0EB074072EB17420CFB7A
:1013C00008F734BFA2EB0742B2EB074261EB1741CB
:1013D0004FEA8C554FEA910704EB9C2406FB07FC6F
:1013E0004FEA1C4C0CFB0BF7B0EBC74072EB5732CB
:1013F00003FB0CF734BFA2EBC742B2EBC74261EB71
:1014000057310CFB0EF7B0EBC70072EB57720CFBB9
:1014100008F734BFA2EBC702B2EBC70261EB57710A
:1014200015EB4C254FEA816141EA92114FEA826245
:101430004FEAD13742EA901206FB07FC44F1000460
:101440004FEA80604FEA1C4C0CFB0BF7D21B03FBEE
:101450000CF761EB07010CFB0EF7B0EB074072EBEA
:1014600017420CFB08F734BFA2EB0742B2EB07426E
:1014700061EB174115EB1C154FEA813141EA9241AE
:101480004FEA823242EA90424FEA80304FEA0C76CD
:1014900044F1000448EA03434EEA0B484FF0000EC3
:1014A000B2EB080C71EB030724BF624639464EEBE2
:1014B0000E0E4FF0000B0018524149414BEB0B0B45
:1014C000B2EB080C71EB03077BF1000B24BF624603
:1014D00039464EEB0E0E4FF0000B001852414941B9
:1014E0004BEB0B0BB2EB080C71EB03077BF1000B22
:1014F00024BF624639464EEB0E0E51EA020718BF72
:1015000046F0010616EB0E7655F1000254F100018B
:1015100003D5BDE88901BDE80088BDE88901BDE8C3
:101520000048B619524141EB0101A3F10103704794
:1015300080807F7E7D7C7B7A797877767675747310
:10154000727171706F6E6E6D6C6C6B6A6A696868CF
:10155000676666656464636362616160605F5F5E65
:101560005E5D5D5C5C5B5B5A5A59595858575756DB
:101570005655555554545353525252515150505040
:101580004F4F4F4E4E4D4D4D4C4C4C4B4B4B4A4A92
:101590004A494949484848474747474646464545D6
:1015A000454444444443434343424242424141410F
:1015B000002B9C4630D477002BD01CB54FEA370760
:1015C00003B44FF010004FF01001BAF1000F06D035
:1015D000BCF1000FDCBF40F0080040F008014FF004
:1015E00000000FBCBDE810400BF1010BBBF1010F77
:1015F00008BF5FEA170722BF12F1010211F10101D2
:101600004FF0004143F1000300F0004043EA0000C6
:101610007047F9D35708D0E746EA064613F1400F62
:101620004FEA16461FDD13F1200FDFBF16430A46AF
:10163000002120335B42BED0C3F1200746EA0646B4
:1016400002FA07F74FEA164646EA0706C3F12007F3
:1016500022FA03F201FA07F721FA03F14FF000032F
:1016600042EA0702A7E746EA020646EA06464FEACA
:10167000164646EA0106BCBF46EA0646360C4FF05F
:1016800000034FF000024FF0000194E72DE9804C79
:101690009A46934670B491E8380007C831EA400C86
:1016A00048BF34EA430C03D5FFF7E6FDFFF780FFA0
:1016B000F0BCBDE8008C2DE9804C9A46934670B48E
:1016C00091E8380007C810F0804F08BF13F0804F32
:1016D00003D100F005F8FFF76BFFF0BCBDE8008C0C
:1016E00020F07F4780EA030023F07F4C07EB0C03D8
:1016F000A3F57C5300F00040A3F1FE0392F0000F2D
:1017000000F0B38095F0000F00F077802DE90149DB
:101710004FEA11404FEA144621EA004800FB06FC5C
:1017200024EA064708FB06F607FB08F800FB07F764
:1017300018EB06484CEB164C4FEA124B18EB0748D7
:101740004FEA15464CEB174022EA0B4E0BFB06FC0A
:1017500025EA06470EFB06F607FB0EFE0BFB07F716
:101760001EEB064E4CEB164C4FF000061EEB074EE0
:101770004CEB174B18EB0B0840F1000018EB0E0B6D
:1017800058EB000840F100008F1A4FF000013CBFF9
:10179000C943661B14BFB5EB040C00213CBFC94311
:1017A000F61B4FEA17444EEA8E0E27EA04454FEA2D
:1017B0001C4704FB07622CEA074C05FB07F70CFBF0
:1017C00005F604FB0CFC16EB074642EB174216EB42
:1017D0000C4642EB1C421BEB060658EB0202414151
:1017E00046EA9E0601D5BDE80189B619524141EB92
:1017F0000101A3F10103BDE801894FEA14454FEA55
:10180000114724EA054621EA074C05FB07F406FBCD
:1018100007F70CFB06F105FB0CFC11EB074144EB51
:1018200017444FEA124711EB0C4144EB1C4422EAE7
:10183000074C05FB07F206FB07F70CFB06F605FB5A
:101840000CFC16EB074642EB174216EB0C4642EB3C
:101850001C456A1854F1000148BF7047B61952413F
:1018600041EB0101A3F10103704795F0000F37D060
:101870004FEA11424FEA144721EA024624EA074C94
:1018800002FB07F106FB07F70CFB06F402FB0CFC5E
:1018900014EB074441EB17414FEA154714EB0C4496
:1018A00041EB1C4125EA074C02FB07F506FB07F755
:1018B0000CFB06F602FB0CFC16EB074645EB174546
:1018C00016EB0C4645EB1C42121951F1000148BFC2
:1018D0007047B619524141EB0101A3F10103704772
:1018E0004FEA14454FEA114724EA054621EA074C1E
:1018F00005FB07F106FB07F70CFB06F24FF00006AD
:1019000005FB0CFC12EB074241EB174112EB0C42BA
:1019100051EB1C4148BF7047921841EB0101A3F104
:101920000103704700BFFEE77047000070B5044632
:10193000B3F5804F13D1D1E9000540EA05108D6859
:1019400040EA05208D6928438D8940EA054054F816
:101950002250064E3540284344F8220003E06FF041
:10196000704044F82200002070BD00000000F0CF5D
:1019700070B50246086852F8200020F001000E6899
:1019800042F826008868082801D1402300E000239F
:10199000486818438E683043CE6830430E69304340
:1019A0004E693043CE6930430E6A30434E6A30434D
:1019B0008E6A3043CE6A30430E6B40EA0604886973
:1019C0000443486B0443074D45F4806545F4E02526
:1019D000086852F82000A84320430E6842F8260009
:1019E000002070BD7FFB080010B50346D1E900045C
:1019F00040EA04108C6840EA04208C8940EA0444E0
:101A0000088A401E44EA0054087D801E44EA0060B3
:101A10008C692043541C53F8244004F04044204374
:101A2000541C43F82400002010BD000070B504468B
:101A3000002594F82100022803D00420A06301258A
:101A4000C1E02068006820F00E002168086020686E
:101A5000006820F00100216808605C492068884225
:101A600052D95A4978392068884201D1012047E08B
:101A7000564964392068884201D1102040E053491A
:101A800050392068884201D1801539E04F493C39EE
:101A90002068884201D1801432E04C4928392068FE
:101AA000884202D14FF480302AE048491439206836
:101AB000884202D14FF4801022E0444920688842D5
:101AC00001D140041CE042492068884201D1012034
:101AD00016E03F4914312068884201D110200FE000
:101AE0003B4928312068884201D1801508E03849F7
:101AF0003C312068884201D1801401E04FF48030ED
:101B00003349091F086051E030497839206888421C
:101B100001D1012047E02D4964392068884201D174
:101B2000102040E0294950392068884201D18015B1
:101B300039E026493C392068884201D1801432E0DE
:101B4000224928392068884202D14FF480302AE0A7
:101B50001E4914392068884202D14FF4801022E0D7
:101B60001A492068884201D140041CE018492068C5
:101B7000884201D1012016E01549143120688842BD
:101B800001D110200FE0124928312068884201D18C
:101B9000801508E00E493C312068884201D180144C
:101BA00001E04FF48030094980394860012084F811
:101BB000210000BF002084F8200000BF606B10B13E
:101BC0002046616B8847284670BD000080000240B7
:101BD0000804024070B5044600F0C8F906462546E0
:101BE000681C10B104480078054400BF00F0BEF93D
:101BF000801BA842FAD370BD240000202DE9F847CD
:101C0000024600239C467BE14FF0010808FA03F4EA
:101C1000D1F8008008EA0400A0427DD1DFF8F4A2E8
:101C2000D1F80480A8EB0A09D0453AD014DCB8F109
:101C3000030F50D009DCB8F1000F31D0B8F1010F1B
:101C40001CD0B8F1020F49D120E0B8F1110F18D023
:101C5000B8F1120F42D11EE0B9F5881F25D006DC7D
:101C6000B9F5803F20D0B9F5801F37D11AE0B9F51A
:101C7000001F18D0B9F5041F30D117E0D1F80CC0FF
:101C80002DE0D1F80C8008F1040C28E0D1F80C808C
:101C900008F1080C23E0D1F80C8008F10C0C1EE0D0
:101CA00000BF00BF00BF00BF00BF00BFD1F8088069
:101CB000B8F1000F02D14FF0040C0BE0D1F808800E
:101CC000B8F1010F03D14FF0080C146102E04FF09E
:101CD000080C546103E04FF0000C00E000BF00BFAF
:101CE000FF2801D8904601E002F104084646FF288B
:101CF00002D84FEA830803E0A3F108084FEA8808F6
:101D00004746D6F800804FF00F0909FA07F928EA8C
:101D100009080CFA07F900E07AE048EA0908C6F871
:101D20000080D1F8048008F08058B8F1805F6FD14E
:101D300000BFDFF8E481D8F8188048F00108DFF828
:101D4000D891C9F81880C846D8F8188008F001085A
:101D5000CDF8008000BF00BF4FEAB9384FEA9309C1
:101D600058F829504FEA83784FEA18794FF00F0856
:101D700008FA09F825EA0805DFF8A081424502D1F2
:101D80004FF0000824E0DFF89881424502D14FF07F
:101D900001081DE0DFF88C81424502D14FF00208B6
:101DA00016E0DFF88481424502D14FF003080FE0CE
:101DB000DFF87881424502D14FF0040808E0DFF8EF
:101DC0007081424502D14FF0050801E04FF006084E
:101DD0004FEA83794FEA197908FA09F848EA0505C4
:101DE000DFF850814FEA930948F82950D1F8048070
:101DF00008F48038B8F5803F0BD1DFF83C81D8F883
:101E0000008048EA0008DFF83091C9F800800AE055
:101E100075E0DFF82481D8F8008028EA0008DFF8B0
:101E20001891C9F80080D1F8048008F40038B8F59A
:101E3000003F0ED1DFF8008108F10408D8F80080D7
:101E400048EA0008DFF8F09009F10409C9F80080B9
:101E50000DE0DFF8E48008F10408D8F8008028EAF3
:101E60000008DFF8D49009F10409C9F80080D1F81E
:101E7000048008F48018B8F5801F0ED1DFF8B88010
:101E800008F10808D8F8008048EA0008DFF8A890B0
:101E900009F10809C9F800800DE0DFF89C8008F11D
:101EA0000808D8F8008028EA0008DFF88C9009F1CB
:101EB0000809C9F80080D1F8048008F40018B8F5C2
:101EC000001F0ED1DFF8708008F10C08D8F80080F0
:101ED00048EA0008DFF8609009F10C09C9F80080B1
:101EE0000DE0DFF8548008F10C08D8F8008028EAEB
:101EF0000008DFF8449009F10C09C9F800805B1C68
:101F0000D1F8008028FA03F8B8F1000F7FF47CAE16
:101F1000BDE8F887000011100010024000080140E1
:101F2000000C014000100140001401400018014065
:101F3000001C014008000140000401400246936873
:101F40000B400BB1012000E00020704710B5C268C3
:101F500021EA020302EA010443EA0443036110BDDB
:101F60000AB1016101E00B04036170470148006898
:101F7000704700001C0000200348006803490978EE
:101F800008440149086070471C000020240000201C
:101F900010B50848006840F01000064908600320AA
:101FA00000F080F80F2000F007F800F02BF8002078
:101FB00010BD00000020024070B504460E480078B5
:101FC0004FF47A71B1FBF0F00C490968B1FBF0F500
:101FD000284601F035FB08B1012070BD102C07D256
:101FE00000222146501E00F01EF80548046001E062
:101FF0000120F2E70020F0E724000020000000208C
:1020000020000020704701460846002809DB00F048
:102010001F0301229A4043099B0003F1E023C3F808
:10202000002100BF70472DE9F05F80460D4616463F
:10203000002702F0A5FC074639462A46334601F040
:102040000700C0F1070ABAF1040F02D94FF0040AE1
:1020500001E0C0F1070AD14600F1040ABAF1070F06
:1020600002D24FF0000A01E0A0F1030AD4464FF07B
:10207000010A0AFA09FAAAF1010A0AEA020A0AFAA4
:102080000CFA4FF0010B0BFA0CFBABF1010B0BEA56
:10209000030B4AEA0B042146404602F079FCBDE8F6
:1020A000F09F000000BF00F00702064B19684FF6D2
:1020B000FF031940044B0B4343EA0221014B196013
:1020C00000BF70470CED00E00000FA0570B5044653
:1020D0000D460CB9012070BD5A48006800F0070099
:1020E000A8420ED25748006820F0070028435549FF
:1020F00008600846006800F00700A84201D00120EF
:10210000E9E7207800F0020002281DD1207800F0D5
:102110000400042805D14C48406840F4E0604A4976
:102120004860207800F00800082805D1464840683B
:1021300040F46050444948604348406820F0F00053
:10214000A168084340494860207800F0010078B356
:102150006068012806D13C48006800F4003090B95E
:102160000120B8E76068022806D13748006800F00F
:10217000007040B90120AEE73348006800F002006B
:1021800008B90120A7E73048406820F003006168E3
:1021900008432D494860FFF7E9FE064609E0FFF7CE
:1021A000E5FE801B41F28831884202D9032092E784
:1021B00007E02548406800F00C006168B0EB810F33
:1021C000EDD12048006800F00700A8420ED91D4854
:1021D000006820F0070028431A4908600846006894
:1021E00000F00700A84201D0012074E7207800F039
:1021F0000400042807D11448406820F4E060E16836
:10220000084311494860207800F00800082808D1E8
:102210000D48406820F46050216940EAC1000A4935
:10222000486000F03FF808494968C1F30311074AC4
:10223000515CC8400649086006480068FFF7BCFECC
:10224000002048E700200240001002409ADD030809
:1022500000000020200000200148006870470000B6
:102260000000002000B5FFF7F7FF04494968C1F3FB
:102270000221034A515CC84000BD0000001002402A
:10228000AADD030800B5FFF7E7FF04494968C1F379
:10229000C221034A515CC84000BD0000001002404A
:1022A000AADD0308F0B585B00FF26C0C9CE8E010D5
:1022B00001A8A0E8E0101CA52D68009500210022CF
:1022C000002300240020194D696801F00C05F5B1C8
:1022D000042D02D0082D19D101E0154819E001ADF7
:1022E000C1F38346AC5D01F4803555B10F4D6D6887
:1022F000C5F340451DF805200D4D6543B5FBF2F3D0
:1023000002E00C4D04FB05F3184602E000BF08484C
:1023100000BF00BF05B0F0BD0203040506070809B1
:102320000A0B0C0D0E0F10100102000000100240ED
:1023300000127A0000093D00F8B504460CB90120EE
:10234000F8BD207800F00100002878D0F8484068F7
:1023500000F00C0004280CD0F548406800F00C0098
:10236000082811D1F248406800F48030B0F5803F71
:102370000AD1EF48006800F4003000285FD06068A0
:1023800000285CD10120DBE700BF6068B0F5803F2A
:1023900006D1E748006840F48030E549086028E04D
:1023A000606858B9E248006820F48030E04908606D
:1023B0000846006820F4802008601AE06068B0F5E4
:1023C000A02F0BD1DA48006840F48020D84908607B
:1023D0000846006840F4803008600AE0D44800688D
:1023E00020F48030D24908600846006820F480203C
:1023F000086000BF606888B1FFF7B8FD054606E0D9
:10240000FFF7B4FD401B642801D9032098E7C848B2
:10241000006800F400300028F2D010E0FFF7A6FDBD
:10242000054606E0FFF7A2FD401B642801D9032002
:1024300086E7BF48006800F400300028F2D1207819
:1024400000F00200022857D1B948406800F00C00A3
:1024500050B1B748406800F00C00082818D1B448C3
:10246000406800F4803098B9B148006800F002007C
:1024700020B12069012801D0012061E7AC48006843
:1024800020F0F800616940EAC100A949086033E022
:102490002069E8B10120A7490860FFF767FD0546FC
:1024A00006E0FFF763FD401B022801D9032047E740
:1024B0009F48006800F002000028F2D09C480068A5
:1024C00020F0F800616940EAC1009949086013E012
:1024D000002098490860FFF749FD054606E0FFF730
:1024E00045FD401B022801D9032029E790480068D8
:1024F00000F002000028F2D1207800F0080008283F
:102500002DD1A069B8B101208B490860FFF72EFDDD
:10251000054606E0FFF72AFD401B022801D90320EB
:102520000EE78348406A00F002000028F2D0012044
:1025300001F042FB13E000207F490860FFF716FD21
:10254000054606E0FFF712FD401B022801D90320D3
:10255000F6E67748406A00F002000028F2D12078C1
:1025600000F00400042873D100277148C06900F00E
:10257000805070B900BF6E48C06940F080506C490F
:10258000C8610846C06900F08050009000BF00BFDD
:1025900001276A48006800F48070B0B96748006895
:1025A00040F4807065490860FFF7E0FC054606E0EE
:1025B000FFF7DCFC401B642801D90320C0E65F481C
:1025C000006800F480700028F2D000BFE0680128A5
:1025D00006D15748006A40F001005549086227E0DB
:1025E000E06858B95248006A20F00100504908627A
:1025F0000846006A20F00400086219E0E068052837
:102600000BD14B48006A40F0040049490862084673
:10261000006A40F0010008620AE04548006A20F0C4
:102620000100434908620846006A20F0040008627D
:1026300000BFE068A0B1FFF799FC054609E0FFF78D
:1026400095FC401B41F28831884202D9032077E68D
:1026500022E03748006A00F002000028EFD012E0C4
:10266000FFF784FC054608E0FFF780FC401B41F2C1
:102670008831884201D9032062E62D48006A00F0C3
:1026800002000028F0D1012F05D12948C06920F0AF
:1026900080502749C86100BFE069C8B3244840683A
:1026A00000F00C00082860D0E069022848D1002022
:1026B00020490866FFF75AFC054606E0FFF756FC7E
:1026C000401B022801D903203AE61948006800F0AF
:1026D00000700028F2D1206AB0F5803F07D114487D
:1026E000406820F40030A168084311494860D4E9EB
:1026F000080108430E49496821F4741108430C4944
:10270000486001200B490866FFF730FC054607E0EA
:102710003DE0FFF72BFC401B022801D903200FE608
:102720000348006800F000700028F2D02FE000009D
:10273000001002400000424280044242007000400B
:10274000002014490866FFF711FC054606E0FFF774
:102750000DFC401B022801D90320F1E50E4800685A
:1027600000F000700028F2D111E0E069012800D1EA
:10277000E6E50948466806F48031206A814204D1C2
:1027800006F47011606A814201D00120D8E5002072
:10279000D6E50000000042420010024010B502469B
:1027A000506E800F0870506EC0F383604870506E9A
:1027B000C0F301608870506E000CC870B2F86400FD
:1027C000000A087192F864004871906E000DC8808C
:1027D000906EC0F3034008726820805AC0F3C03086
:1027E00048726820805AC0F3803088726820805A0E
:1027F000C0F34030C8726820805AC0F300300873BC
:1028000000204873506C002836D16820805A80051B
:10281000030DD06E43EA90700861D06EC0F3C260C1
:102820000875D06EC0F302604875D06EC0F3425098
:102830008875D06EC0F38240C875D06EC0F3C230C8
:1028400008760869401C50650B7E506D03F0070345
:102850009B1C01249C4060435065087A00F00F03E4
:10286000012098409065D2E915035B0A5843D06572
:102870004FF40073136621E0506C012813D16820D7
:10288000805C8006830AD06E43EA104008610869C4
:10289000401C83025365536DD3654FF400739365F9
:1028A000936D13660AE02E4813689863906B40F0AE
:1028B00080509063012082F8340010BD6C20805A53
:1028C000C0F3803001F8190F6C20805AC0F3C61095
:1028D00048706C20805C00F07F008870106FC00F23
:1028E000C870106FC0F341700871106FC0F3826040
:1028F0004871106FC0F383508871106FC0F340505F
:10290000C87100200872106FC0F300404872702038
:10291000805AC0F3C03088727020805AC0F3803073
:10292000C8727020805AC0F3403008737020805AFB
:10293000C0F3003048737020805AC0F38120887340
:102940007020805AC0F30120C8737020805CC0F3EF
:10295000460008740120487419390020ADE70000D2
:10296000FF054000F8B50446002000906946204667
:1029700001F006FE054615B1A06B2843A063009840
:10298000C0F343263046F8BD10B504460CB901200B
:1029900010BD94F8340020B900202077204600F0C4
:1029A00053F8032084F83400204600F00BF808B1F7
:1029B0000120EDE70020A0632063012084F83400AB
:1029C0000020E5E770B58AB0044600200490059029
:1029D0000690079008907620099007A807C88DE810
:1029E0000700206804A90EC901F01FF9064616B1B8
:1029F00001200AB070BD002012490860206801F073
:102A00002EF901200F49A039C1F8A000204601F09D
:102A100051FD05463DB1012084F83400A06B2843E8
:102A2000A0630120E5E7204601F0C2FC05463DB168
:102A3000012084F83400A06B2843A0630120D8E76C
:102A40000020D6E7A000304210B586B004464F49BA
:102A5000206888427ED100BF4D48406940F48060C4
:102A60004B4948610846406900F48060019000BF0E
:102A700000BF00BF00BF0846806940F010008861B9
:102A80000846806900F01000019000BF00BF00BF41
:102A900000BF00BF0846806940F01000886108460A
:102AA000806900F01000019000BF00BF00BF00BFB0
:102AB00000BF0846806940F01000886108468069C0
:102AC00000F01000019000BF00BF00BF00BF00BFBA
:102AD0000846806940F0100088610846806900F06F
:102AE0001000019000BF00BF00BF00BF00BF08463C
:102AF000806940F0100088610846806900F010008D
:102B0000019000BF00BF00BF00BF00BF0846806942
:102B100040F0200088610846806900F020000190A4
:102B200000BF00BF00BF8815029002200390012063
:102B300004900320059002A91648FFF75FF84FF4B0
:102B40000070029002A91348FFF758F84FF4806014
:102B5000029000E018E002A90E48FFF74FF84FF48A
:102B60000060029002A90B48FFF748F84FF480502C
:102B7000029002A90748FFF741F80420029002A939
:102B80000548FFF73BF800BF06B010BD00800140CC
:102B90000010024000100140001401402DE9FF4FD9
:102BA00089B004468B469946DDF858A0FFF7DEF958
:102BB00002900B9800905D46BBF1000F07D1A06B0F
:102BC00040F00060A06301200DB0BDE8F08F94F8E4
:102BD000340001287ED10020A063009800EB090199
:102BE000E06D814205D9A06B40F00070A063012028
:102BF000EAE7032084F8340000202168C862606C92
:102C0000012802D00098400200904FF40071206823
:102C100001F086F88046B8F1000F0AD08E4821688E
:102C20008863A06B40EA0800A063012084F83400A8
:102C3000CAE74FF0FF3003904FEA492004909020FC
:102C4000059002200690002007900120089003A91B
:102C5000206800F0C5FFB9F1010F07D902202063F9
:102C60002068009901F0A8F8804606E00120206362
:102C70002068009901F0BCF88046B8F1000F0DD033
:102C8000754821688863A06B40EA0800A0630120B2
:102C900084F8340000202063012095E7049E3AE088
:102CA0002068406B00F40040F0B1EEB100200190CC
:102CB00017E0206800F0DCFF07462F706D1C761EC1
:102CC000380A28706D1C761E380C28706D1C761E14
:102CD000380E00E0BAE028706D1C761E0198401C8A
:102CE000019001980828E4D3FFF740F90299401AAF
:102CF000504502D2BAF1000F0DD1574821688863C0
:102D0000A06B40F00040A063012084F83400002054
:102D10002063032058E72068406B40F22A310840C6
:102D20000028BDD02068406B00F48070D0B1B9F1AC
:102D3000010F17D9606C032814D0206801F0FCF84B
:102D40008046B8F1000F0DD0434821688863A06B1E
:102D500040EA0800A063012084F8340000202063CA
:102D6000012031E72068406B00F0080068B13A4864
:102D700021688863A06B40F00800A063012084F8FC
:102D800034000020206301201EE72068406B00F023
:102D9000020068B1304821688863A06B40F00200EF
:102DA000A063012084F834000020206301200BE799
:102DB0002068406B00F0200068B1274821688863D4
:102DC000A06B40F02000A063012084F834000020B4
:102DD00020630120F8E629E0206800F049FF07465B
:102DE0002F706D1C761E380A28706D1C761E380CEC
:102DF00028706D1C761E380E28706D1C761EFFF72D
:102E0000B5F80299401A504502D2BAF1000F0DD11F
:102E1000114821688863A06B40F00040A063012046
:102E200084F83400002020630120CDE62068406B48
:102E300000F4001008B1002ECED140F23A502168C3
:102E40008863012084F834000020BDE6A06B40F0C8
:102E50000050A0630120B7E6FF0540002DE9F04FC8
:102E600089B00446894693469846FFF77FF802905A
:102E7000DA464E46B9F1000F07D1A06B40F0006072
:102E8000A063012009B0BDE8F08F94F83400012858
:102E90007ED10020A0630AEB0801E06D814205D9D4
:102EA000A06B40F00070A0630120EBE7032084F8E2
:102EB000340000202168C862606C012801D04FEA0C
:102EC0004A2A4FF40071206800F02AFF05464DB1F0
:102ED000764821688863A06B2843A063012084F8AA
:102EE0003400CFE74FF0FF3003904FEA48200490C2
:102EF000902005900020069007900120089003A9DB
:102F0000206800F06DFEB8F1010F07D92020206382
:102F10005146206801F02EF8054606E01020206397
:102F20005146206801F042F8054665B15F482168C6
:102F30008863A06B2843A063012084F8340000203C
:102F4000206301209EE7049F43E02068406B00F46B
:102F5000804040B33FB30020019021E030780090E2
:102F6000761C7F1E3078009941EA00200090761C84
:102F70007F1E3078009941EA00400090761C7F1E49
:102F80003078009941EA00600090761C7F1E00E0D6
:102F900085E06946206800F083FE0198401C01909E
:102FA00001980828DAD3FEF7E1FF0299411A129836
:102FB000814201D2129860B93C4821688863A06BB5
:102FC0002843A063012084F83400002020630320FC
:102FD00058E72068406B40F21A3108400028B4D00E
:102FE0002068406B00F48070B8B1B8F1010F14D9BB
:102FF000606C032811D0206800F09EFF054665B183
:103000002A4821688863A06B2843A063012084F8C4
:10301000340000202063012034E72068406B00F07A
:10302000080068B1214821688863A06B40F008005F
:10303000A063012084F8340000202063012021E7F0
:103040002068406B00F0020068B11848216888636E
:10305000A06B40F00200A063012084F8340000203F
:10306000206301200EE72068406B00F0100068B17B
:103070000E4821688863A06B40F01000A063012017
:1030800084F83400002020630120FBE640F23A502F
:1030900021688863012084F834000020F2E6A06BE8
:1030A00040F00050A0630120ECE60000FF05400066
:1030B00010B504460CB9012010BD606A38B96068CB
:1030C000B0F5827F00D105E00021E16102E000213E
:1030D00021616161A06AB0F5005F00D100BF94F882
:1030E000510028B9002084F85000204600F04AF82A
:1030F000022084F851002068006820F04000216818
:103100000860A08800F48270218901F4044108431A
:10311000A18901F400610843217C01F00201084308
:10312000217D01F001010843218B01F40071084366
:10313000217F01F0380108432021095D01F0800161
:103140000843218D01F400510843216808600421DF
:10315000A06901EA104021684860A06AB0F5005FEC
:1031600003D1A08D80B2216808612068C06920F475
:1031700000602168C86100206065012084F851006A
:10318000002099E710B586B0044627492068884298
:1031900048D100BF00BF2548806940F0080023499E
:1031A00088610846806900F00800019000BF00BFF8
:1031B00000BF00BF00BF0846806940F0080088617A
:1031C0000846806900F00800019000BF00BF00BF02
:1031D00000BF00BF0846806940F0080088610846CB
:1031E000806900F00800019000BF00BF00BF4FF4ED
:1031F00000500290022003900120049003200590CB
:1032000002A90B48FEF7FAFC4FF48040029002A995
:103210000748FEF7F3FC4FF40040029002A904486F
:10322000FEF7ECFC06B010BD003800400010024074
:10323000000C01402DE9FF5F0446884691461D467B
:103240000E9E012002900020019000BF94F85000D3
:10325000012803D1022004B0BDE8F09F012084F8CA
:10326000500000BFFEF782FE074694F851B0606838
:103270000390AA46BBF1010F0BD00398B0F5827FF3
:1032800004D1A06810B9BBF1040F02D00220019054
:103290003DE1B8F1000F03D0B9F1000F00D015B92E
:1032A0000120019033E194F85100042802D0052058
:1032B00084F8510000206065C4F83890E587A58740
:1032C000C4F83080E586A58620646064A06AB0F505
:1032D000005F0DD100BF2068006820F40050216815
:1032E00008602068006840F400502168086000BF52
:1032F0002068006800F04000402805D02068006881
:1033000040F0400021680860E068B0F5006F56D1D9
:10331000606810B1BAF1010F09D1206B00882168F3
:10332000C860206B801C2063E08E401EE0863FE07A
:103330002068806800F0020002281CD1E08ED0B125
:103340000298012817D1206B00882168C860206B83
:10335000801C2063E08E401EE08600200290E08EFC
:1033600048B9A06AB0F5005F05D12068006840F454
:103370008050216808602068806800F0010068B112
:10338000E08F58B12068C068A16B0880A06B801CDA
:10339000A063E08F401EE08701200290FEF7E6FD6B
:1033A000C01BB04204D3701C10B103200190AEE0EA
:1033B000E08E0028BCD1E08F0028B9D156E06068CB
:1033C00010B1BAF1010F09D1206B007821680873A0
:1033D000206B401C2063E08E401EE08640E02068A9
:1033E000806800F0020002281CD1E08ED0B1029863
:1033F000012817D1206B007821680873206B401CCE
:103400002063E08E401EE08600200290E08E48B9E6
:10341000A06AB0F5005F05D12068006840F48050D4
:10342000216808602068806800F0010068B1E08FC2
:1034300058B12068C068A16B0870A06B401CA063E5
:10344000E08F401EE08701200290FEF78FFDC01B39
:10345000B04201D3701C00B916B90320019056E0A8
:10346000E08E0028BBD1E08F0028B8D1A06AB0F56B
:10347000005F10D13346012211462046009701F02B
:10348000AFF830B1606D40F002006065032001903C
:103490003DE02068C06820688068C0F30010E8B193
:1034A000204601F099F8012814D1606D40F0020027
:1034B000606500BF2068006820F400502168086043
:1034C0002068006840F400502168086000BF0120B7
:1034D000019003E04FF6EF70216888603A4631466C
:1034E000204601F065F820B10120019020206065A0
:1034F0000DE0A06850B900BF002000902068C068AF
:10350000009020688068009000BF00BF00BF0120CD
:1035100084F8510000BF002084F8500000BF0198DB
:1035200099E670B504460E4615461CB1A069B0F583
:10353000807F01D1012070BD94F8410028B900209E
:1035400084F84000204600F01FF804F108012068CC
:10355000FEF70EFA3146A2682068FEF745FA2946C2
:10356000236BD4E90102FEF7E1F9A168206850F865
:10357000210040F00100A268216841F822000120EA
:1035800084F841000020D6E710B586B0044600BF9D
:103590001E48406940F480701C49486108464069F3
:1035A00000F48070019000BF00BF00BF0846806932
:1035B00040F0200088610846806900F020000190FA
:1035C00000BF00BF00BF0846806940F0400088612E
:1035D0000846806900F04000019000BF00BF4CF237
:1035E00003700290022003900120049003200590B4
:1035F00002A90748FEF702FB4FF68070029002A96D
:103600000448FEF7FBFA06B010BD000000100240AF
:103610000014014000180140042808D14FF0E021B7
:10362000096941F004014FF0E022116107E04FF019
:10363000E021096921F004014FF0E0221161704797
:1036400070B504462546681EB0F1807F01D3012085
:103650000FE0681E4FF0E02148610F214FF0FF306E
:1036600001F096F900204FF0E02188610720086101
:10367000002070BD70477047704710B50446206841
:103680000069C0F34000D8B12068C068C0F34000B2
:10369000B0B16FF002002168086101202077206836
:1036A000806900F0030018B12046FFF7E5FF05E050
:1036B000204600F0ADF8204600F0ABF8002020775F
:1036C00020680069C0F38000D8B12068C068C0F3EA
:1036D0008000B0B16FF004002168086102202077FB
:1036E0002068806900F4407018B12046FFF7C4FFDD
:1036F00005E0204600F08CF8204600F08AF8002013
:10370000207720680069C0F3C000D8B12068C06885
:10371000C0F3C000B0B16FF0080021680861042058
:1037200020772068C06900F0030018B12046FFF739
:10373000A3FF05E0204600F06BF8204600F069F892
:103740000020207720680069C0F30010D8B12068FD
:10375000C068C0F30010B0B16FF0100021680861BC
:10376000082020772068C06900F4407018B1204616
:10377000FFF782FF05E0204600F04AF8204600F0FF
:1037800048F8002020772068006900F0010058B157
:103790002068C06800F0010030B16FF001002168BE
:1037A0000861204600F036F820680069C0F3C010B8
:1037B00058B12068C068C0F3C01030B16FF080000D
:1037C000216808612046FFF755FF20680069C0F3B3
:1037D000801058B12068C068C0F3801030B16FF01D
:1037E000400021680861204600F024F82068006944
:1037F000C0F3401058B12068C068C0F3401030B129
:103800006FF02000216808612046FFF734FF10BDEB
:103810007047704710B504460448844205D100BF84
:1038200020210348FEF792FB00BF10BDC404002016
:1038300000180140704770472DE9F04704462068A2
:1038400005682068C668206847694FF00008C146CF
:1038500005F00F08B8F1000F0AD105F0200038B1CB
:1038600006F0200020B1204600F064FFBDE8F0879C
:10387000B8F1000F71D007F0010018B906F490708C
:1038800000286AD005F0010030B106F4807018B14C
:10389000E06B40F00100E06305F0040030B107F098
:1038A000010018B1E06B40F00200E06305F0020097
:1038B00030B107F0010018B1E06B40F00400E063A4
:1038C00005F0080048B106F0200010B907F001002B
:1038D00018B1E06B40F00800E063E06B68B305F0FE
:1038E000200028B106F0200010B1204600F022FF91
:1038F00020684069C0F38019E06B00F0080010B93F
:10390000B9F1000F22D0204600F0F4FE2068406993
:1039100000F04000B0B12068406920F0400021680C
:103920004861606B50B11848616B4863606BFEF78B
:103930007DF810B1606B416B88470CE02046FFF7C3
:103940007AFF08E02046FFF776FF04E02046FFF705
:1039500072FF0020E06389E7FFE705F0800030B1E7
:1039600006F0800018B1204600F0B2FF7EE705F0B7
:10397000400030B106F0400018B1204600F0CAFE09
:1039800074E700BF72E70000E146000810B5044686
:103990000CB9012010BDA06900B100E000BF94F88F
:1039A000390028B9002084F83800204600F028F8B3
:1039B000242084F839002068C06820F40050216871
:1039C000C860204600F006FF2068006920F490409F
:1039D000216808612068406920F02A002168486158
:1039E0002068C06840F400502168C8600020E0638F
:1039F000202084F8390084F83A000020CAE700004B
:103A000010B586B004462849206888424AD100BFD4
:103A100000BF2648806940F00400244988610846B8
:103A2000806900F00400019000BF00BF00BF00BF2C
:103A300000BF0846806940F004008861084680693C
:103A400000F00400019000BF00BF00BF00BF00BF36
:103A50000846806940F4804088610846806900F427
:103A60008040019000BF00BF00BF481502900220B7
:103A70000390012004900320059002A90C48FEF752
:103A8000BDF84FF4806002900020039002A908481E
:103A9000FEF7B4F82520FEF7B6FA032211462520DA
:103AA000FEF7C1FA06B010BD003801400010024018
:103AB0000008014010B5034693F83A0020282FD1A2
:103AC00001B10AB9012010BD00BF93F838000128E8
:103AD00001D10220F7E7012083F8380000BF996286
:103AE0009A85DA850020D863222083F83A0000BF47
:103AF000002083F8380000BF1868C06840F4807068
:103B00001C68E0601868406940F001001C68606152
:103B10001868C06840F020001C68E0600020D2E710
:103B20000220D0E71D4A0168914236D11C4909881C
:103B300001F4004189BB1A49098801F4804171B13F
:103B4000184909780A2903D00021154A118024E078
:103B50001349098841F40041114A11801DE01149BF
:103B600009780D2906D10E49098841F480410C4A93
:103B7000118012E00B490978094A1288C2F30D023C
:103B8000094B995406490988491C054A1180114678
:103B90000988C72901DD00211180704700380140E4
:103BA000180000201A0000201C030020704700BFEE
:103BB000FEE700BFFEE7704708B508490968C90875
:103BC0004FF47A72B1FBF2F14143009100BF00BFA4
:103BD00000994A1E00920029F9D108BD000000207A
:103BE00010B5024600230868506248689062D1E927
:103BF000020420430C6920434C6920430343D06AEC
:103C000020F0F7001843D062002010BD014608697B
:103C1000C0B270470146086800F0030070470246D2
:103C200002F114004318186870470FB410B5044629
:103C30000021DDE903021043059A1043069A104360
:103C4000079A1043089A10430143606847F6FF62E1
:103C5000904308436060002010BC5DF814FB10B571
:103C60000446032020600220FDF7B4FF002010BDB1
:103C70000146D1F88000704710B50246002308685D
:103C80009060D1E901042043CC6820430C692043B3
:103C90000343D0686FF30B001843D060002010BDC1
:103CA00002460868C2F880000020704770B586B0F0
:103CB00005460C46019437200290402003900020D6
:103CC00004904FF48060059001A92846FFF7D4FFC7
:103CD00041F288323721284600F0A4F906463046E2
:103CE00006B070BD70B586B005460C460B48204343
:103CF00001902920029040200390002004904FF46E
:103D00008060059001A92846FFF7B6FF284600F01D
:103D100091FA0646304606B070BD000000001080E3
:103D200070B586B005460C460194102002904020E4
:103D30000390002004904FF48060059001A928466C
:103D4000FFF79AFF41F288321021284600F06AF905
:103D50000646304606B070BD30B585B0044600203A
:103D600000900190029003904FF4806004906946A7
:103D70002046FFF781FF204600F034F9054628462B
:103D800005B030BD30B585B004464FF4D570009015
:103D90000820019040200290002003904FF48060A2
:103DA000049069462046FFF767FF204600F0CAFAF4
:103DB0000546284605B030BD70B586B005460C46B0
:103DC00001941220029040200390002004904FF4B0
:103DD0008060059001A92846FFF74EFF41F2883226
:103DE0001221284600F01EF90646304606B070BD86
:103DF00070B586B005460C46019411200290402013
:103E00000390002004904FF48060059001A928469B
:103E1000FFF732FF41F288321121284600F002F903
:103E20000646304606B070BDF0B585B0064614466D
:103E30001D4600940720019040200290002003902E
:103E40004FF48060049069463046FFF715FF41F259
:103E500088320721304600F0E5F80746384605B0BD
:103E6000F0BD30B585B004460020009002200190DE
:103E7000C0200290002003904FF4806004906946B7
:103E80002046FFF7F9FE204600F0A2F90546284635
:103E900005B030BD70B586B005460C4601940920CA
:103EA0000290C0200390002004904FF480600590A1
:103EB00001A92846FFF7E0FE284600F089F90646EA
:103EC000304606B070BD70B586B005460C4601940C
:103ED0000D20029040200390002004904FF4806059
:103EE000059001A92846FFF7C7FE41F288320D214F
:103EF000284600F097F80646304606B070BD70B50B
:103F000086B005460C460020019003200290402018
:103F10000390002004904FF48060059001A928468A
:103F2000FFF7AAFE22460321284600F0AFF9064615
:103F3000304606B070BD000030B585B004460020A4
:103F400000900C20019040200290002003904FF43C
:103F50008060049069462046FFF78EFE044A0C21DB
:103F6000204600F05FF80546284605B030BD000049
:103F700000E1F50570B586B005460C4601941920A0
:103F8000029040200390002004904FF48060059040
:103F900001A92846FFF770FE41F288321921284610
:103FA00000F040F80646304606B070BD70B586B0E9
:103FB00005460C46019418200290402003900020F2
:103FC00004904FF48060059001A92846FFF754FE45
:103FD00041F288321821284600F024F8064630467F
:103FE00006B070BD01460E480068C0084FF47A73F1
:103FF000B0FBF3F041F2883300FB03F200BF101E68
:10400000A2F1010202D14FF000407047486B00F06E
:1040100080000028F3D0C52088630020F5E7000069
:10402000000000202DE9F04305460F469046664803
:104030000068C0084FF47A71B0FBF1F000FB08F99A
:1040400000BFB9F10000A9F1010903D14FF0004010
:10405000BDE8F0836E6B06F045000028F1D006F451
:1040600000600028EDD1686B00F0040010B104205E
:10407000A863EDE7686B00F0010010B10120A863B0
:10408000E6E7C520A8632846FFF7C0FDB84201D087
:104090000120DDE700212846FFF7C1FD04464B481B
:1040A000204008B90020D3E704F00040B0F1004FF1
:1040B00002D14FF00070CBE704F08040B0F1804FA8
:1040C00001D14020C4E704F00050B0F1005F01D1FD
:1040D0008020BDE704F08050B0F1805F02D14FF442
:1040E0008070B5E704F00060B0F1006F02D14FF4CA
:1040F0000070ADE704F08060B0F1806F02D14FF442
:104100008060A5E704F08070B0F1807F02D14FF4A9
:1041100000609DE704F40000B0F5000F02D14FF4F9
:10412000805095E704F48000B0F5800F02D14FF481
:1041300000508DE704F40010B0F5001F02D14FF4D9
:10414000804085E704F48010B0F5801F02D14FF461
:1041500000407DE704F48020B0F5802F02D14FF4B9
:10416000003075E704F40030B0F5003F02D14FF4A1
:1041700080206DE704F48030B0F5803F02D14FF429
:10418000002065E704F40040B0F5004F02D14FF481
:1041900080105DE704F48040B0F5804F02D14FF409
:1041A000001055E704F40050B0F5005F02D14FF461
:1041B00080004DE704F00800082801D1000547E71A
:1041C0004FF4803044E700000000002008E0FFFDCD
:1041D00010B5014616480068C0084FF47A74B0FB69
:1041E000F4F041F2883400FB04F300BF181EA3F181
:1041F000010302D14FF0004010BD4A6B02F04500B0
:104200000028F3D002F400600028EFD1486B00F0E2
:10421000040010B104208863EEE7486B00F0010051
:1042200010B101208863E7E7C52088630020E3E739
:104230000000002010B5014613480068C0084FF484
:104240007A74B0FBF4F041F2883400FB04F300BF51
:10425000181EA3F1010302D14FF0004010BD4A6BBC
:1042600002F045000028F3D002F400600028EFD1EE
:10427000486B00F0040010B104208863EEE7C5200D
:1042800088630020EAE70000000000202DE9F043E9
:1042900004460F4690462A480068C0084FF47A71D9
:1042A000B0FBF1F041F2883100FB01F900BFB9F138
:1042B0000000A9F1010903D14FF00040BDE8F083EF
:1042C000666B06F045000028F1D006F40060002877
:1042D000EDD1606B00F0040010B10420A063EDE7A5
:1042E000606B00F0010010B10120A063E6E72046FA
:1042F000FFF78CFCB84201D00120DFE7C520A063A6
:1043000000212046FFF78BFC054605F4604020B9EC
:10431000280CA8F800000020D0E705F48040B0F594
:10432000804F02D14FF40050C8E705F40040B0F5CB
:10433000004F02D14FF48050C0E74FF48030BDE70A
:104340000000002010B5014618480068C0084FF46E
:104350007A74B0FBF4F041F2883400FB04F300BF40
:10436000181EA3F1010302D14FF0004010BD4A6BAB
:1043700002F045000028F3D002F400600028EFD1DD
:10438000486B00F0040010B104208863EEE7486B2E
:1043900000F0010010B101208863E7E7486B00F0EE
:1043A000400008B1402088630020DFE700000020C3
:1043B00030B58FB00446012003902068FFF72AFC37
:1043C00018B94FF080600FB030BD606C03281BD06F
:1043D0002068FFF746FD05460DB12846F3E70021AA
:1043E0002068FFF71CFC606704212068FFF717FCBA
:1043F000A06708212068FFF712FCE0670C21206805
:10440000FFF70DFC80210851606C032807D003A939
:104410002068FFF774FD05460DB12846D3E7606CB0
:10442000032820D0BDF80C1021655022125B110426
:104430002068FFF72FFD05460DB12846C3E7002190
:104440002068FFF7ECFB606604212068FFF7E7FBBC
:10445000A06608212068FFF7E2FBE0660C212068D7
:10446000FFF7DDFB206704212068FFF7D8FB010D73
:10447000E16404A92046FEF791F910B14FF0805095
:10448000A1E75020005B01040A4600232068FFF7E3
:10449000CBFC05460DB1284695E7D4E90412A06986
:1044A000CDE90012029094E80F00FFF7BEFB002058
:1044B00089E70000F8B50446002000900026002798
:1044C0002068FFF749FC05460DB12846F8BD206875
:1044D000FFF758FC054645B10021A1642068FFF7AD
:1044E0003BFC05461DB12846F0E70121A164A06C04
:1044F000012808D100212068FFF7D8FB054615B137
:104500004FF08050E2E71DE000212068FFF7CEFB6E
:1045100005460DB12846D9E718492068FFF7E2FBA8
:10452000054615B14FF08050D0E700212068FFF715
:1045300076FB0646012080EAD67080F001070098DD
:10454000401C00904FF6FF710098884201D2002F66
:10455000DAD04FF6FF710098884202D34FF0807096
:10456000B4E706F08040B0F1804F02D101206064D2
:1045700001E0002060640020A8E70000000010C1F6
:1045800070B504460D4615B94FF0006070BD50225D
:10459000125B11042068FFF796FC06460EB1304608
:1045A000F4E700212068FFF73AFB28600020EDE7E0
:1045B000F8B504460D4616462B46002280212046BB
:1045C000009600F00DF828B1606D40F020006065A5
:1045D0000320F8BD0020FCE70146012070470000E1
:1045E0002DE9F84F04460D4690461E46DDF828900A
:1045F000FDF7BCFCA0EB0900371AFDF7B7FC8246BB
:104600002C480068C0F3CB307843009045E0701C24
:10461000002842D0FDF7AAFCA0EB0A00B84200D265
:10462000A7BB2068406820F0E0002168486060680F
:10463000B0F5827F0DD1A068B0F5004F03D0A0681F
:10464000B0F5806F05D12068006820F04000216837
:104650000860A06AB0F5005F0DD100BF2068006857
:1046600020F40050216808602068006840F4005081
:104670002168086000BF012084F8510000BF0020BD
:1046800084F8500000BF0320BDE8F88FFFE70098D2
:1046900000B900270098401E0090206880682840DC
:1046A000A84201D1012000E000204045AFD1002008
:1046B000EAE700000000002010B5FDF75DFC38F0CF
:1046C0005BFA012801D038F021F810BD70470000D6
:1046D00010B50248FEF7D1FF10BD0000C404002051
:1046E00070B505466C6A0020E085E0842046FFF73F
:1046F000A2F870BD0168C96821F490710268D160A8
:104700000168496921F0010102685161202180F8A6
:104710003A10704710B504462068C06820F0400089
:104720002168C860202084F839002046FFF73EFA4F
:10473000002010BD70B5044694F83A00222847D1F5
:10474000A068B0F5805F0CD1206950B90025A66A39
:1047500020684068C0F308003080A06A801CA06216
:1047600015E0A56A0026A068B0F5805F03D0A068B8
:1047700028B9206918B920684068287004E02068CA
:10478000406800F07F002870A06A401CA062E08DA5
:10479000401E80B2E085C8B92068C06820F02000C3
:1047A0002168C8602068C06820F480702168C860F3
:1047B0002068406920F0010021684861202084F8C9
:1047C0003A002046FFF7AEF9002070BD0020FCE75C
:1047D0000220FAE770B504462168096921F44051C6
:1047E000E2681143226811612269A168114362697C
:1047F00041EA02052168C96841F20C6291432943EC
:104800002268D1602168496921F44071A26911438D
:10481000226851612D4A2168914202D1FDF732FD93
:1048200001E0FDF71FFD00EBC00101EB0011626824
:104830009200B1FBF2F100EBC00202EB00126368E0
:104840009B00B2FBF3F26423B2FBF3F202EBC20370
:1048500003EB0212A1EB8201322202EB011164226E
:10486000B1FBF2F101F0F00100EBC00202EB00122B
:1048700063689B00B2FBF3F26423B2FBF3F201EB3B
:10488000021200EBC00101EB001163689B00B1FB59
:10489000F3F100EBC00303EB00136668B600B3FB53
:1048A000F6F36426B3FBF6F303EBC30606EB031340
:1048B000A1EB8301322303EB01116423B1FBF3F17C
:1048C00001F00F0111442268916070BD0038014071
:1048D000014691F83900212828D18868B0F5805F19
:1048E0000BD1086948B90A6A1088C0F308000B6840
:1048F0005860086A801C086205E00B6A581C086250
:1049000018780B685860C88C401E80B2C88458B9AB
:104910000868C06820F080000B68D8600868C0682C
:1049200040F040000B68D860002070470220FCE790
:1049300010B50648FEF780FF00BF01220449034876
:10494000FFF7B8F80028F8D110BD0000E4030020FC
:104950001A00002000BFFEE7490050EAC12018BF3E
:1049600004204A0D18BF40F0010040F2FF72B2EB84
:10497000515F08BF40F00200012808BF05207047C2
:1049800002480068C0F30220704700000CED00E010
:1049900010B5002804DB0A07130E054A135406E07D
:1049A0000A07140E034A00F00F031B1FD45410BD56
:1049B00000E400E018ED00E070B50446002508E0D2
:1049C0002168481C20600878303805EB850100EB31
:1049D00041052168087800F004F80028F0D1284645
:1049E00070BD0146302903DB392901DC0120704705
:1049F0000020FCE730380A2801D20120704700204F
:104A00007047000010B54021074801F0E3FA00228A
:104A1000042106482DF060FF0549086002F002FEFF
:104A200000200449087010BD50990020F17600085C
:104A3000900200208C02002030B50346B1F90040FE
:104A4000B2F90050AC4202DDB1F9004001E0B2F928
:104A500000401C80B1F90240B2F90250AC4202DDC4
:104A6000B1F9024001E0B2F902405C80B1F90440C2
:104A7000B2F90450AC4202DAB1F9044001E0B2F9F3
:104A800004409C80B1F90640B2F90650AC4202DA0B
:104A9000B1F9064001E0B2F90640DC800120B3F92B
:104AA0000040B3F90450AC4205DCB3F90240B3F95D
:104AB0000650AC4200DD002030BDF8B504460D467E
:104AC00016460027B4F90000B5F90010884212DB41
:104AD000B4F90200B5F9021088420CDBB4F9040005
:104AE000B5F90410884206DCB4F90600B5F90610E1
:104AF000884200DC01270FB90020F8BD0EB9012063
:104B0000FBE72088ADF800006088ADF8020032466F
:104B10006946284600F0A7F808B90020EDE7A0880C
:104B2000ADF800006088ADF80200324669462846BC
:104B300000F099F808B90020DFE72088ADF8000000
:104B4000E088ADF8020032466946284600F08BF84E
:104B500008B90020D1E7A088ADF80000E088ADF8E2
:104B6000020032466946284600F07DF808B9002068
:104B7000C3E70120C1E70246B2F90000B1F90430F1
:104B8000984213DCB2F90400B1F9003098420DDB11
:104B9000B2F90200B1F90630984207DCB2F906001A
:104BA000B1F90230984201DB012070470020FCE798
:104BB000F8B504460D461646B4F90400B5F90010E0
:104BC000884211DBB4F90600B5F9021088420BDB0C
:104BD000B4F90000B5F90410884205DCB4F902000C
:104BE000B5F90610884201DD0120F8BD0EB900209C
:104BF000FBE72088ADF800006088ADF8020032467F
:104C00006946284600F02FF808B10020EDE7A0889B
:104C1000ADF800006088ADF80200324669462846CB
:104C200000F021F808B10020DFE72088ADF800008F
:104C3000E088ADF8020032466946284600F013F8D5
:104C400008B10020D1E7A088ADF80000E088ADF8F9
:104C5000020032466946284600F005F808B10020F7
:104C6000C3E70120C1E72DE9FC5F05460E46144667
:104C70004FF0000AB6F90000B5F90010884213DBC6
:104C8000B6F90000B5F9041088420DDCB6F902004F
:104C9000B5F90210884207DBB6F90200B5F9061033
:104CA000884201DC4FF0010ABAF1000F02D1002066
:104CB000BDE8FC9F002C01DC0120F9E7284619F033
:104CC00010FD834600EBDB704710284619F081FC8D
:104CD000834600EBDB704FEA6008474501DA38464F
:104CE00000E0404681464C4500DD4C462888ADF842
:104CF00000002888204400B2ADF804006888ADF8B0
:104D000002006888204400B2ADF806000022314657
:104D10006846FFF7A8FF80B1BDF80400204400B248
:104D2000ADF80400BDF80600204400B2ADF806005E
:104D3000314668462AF098F9BAE7E888001B00B2C5
:104D4000ADF80200E888ADF806000022314668465A
:104D5000FFF789FF80B1BDF80400204400B2ADF830
:104D60000400BDF80200001B00B2ADF8020031469D
:104D700068462AF079F99BE7A888001B00B2ADF8D5
:104D80000000A888ADF80400002231466846FFF70D
:104D90006AFF80B1BDF80000001B00B2ADF8000052
:104DA000BDF80200001B00B2ADF8020031466846B3
:104DB0002AF05AF97CE76888ADF802006888204438
:104DC00000B2ADF80600002231466846FFF74BFFFF
:104DD00080B1BDF80000001B00B2ADF80000BDF8C6
:104DE0000600204400B2ADF80600314668462AF0BD
:104DF0003BF95DE701205BE710B5B1F90030B2F98E
:104E00000040A34202DAB1F9003001E0B2F900300B
:104E10000380B1F90230B2F90240A34202DAB1F9DB
:104E2000023001E0B2F902304380B1F90430B2F946
:104E30000440A34202DDB1F9043001E0B2F90430CC
:104E40008380B1F90630B2F90640A34202DDB1F920
:104E5000063001E0B2F90630C38010BD2DE9FF41F4
:104E600004462DF0DAFC05460020039034B1474992
:104E7000E068086020462DF047FE03E01CF08CFA45
:104E8000424908604149096808692AF04BF83F48DF
:104E90000068406920B13D49096848692AF042F834
:104EA0003A490968C8692AF03DF838490968086A2A
:104EB0002AF038F835480068006940B900203349C5
:104EC0000968A1F8500100BF00BFBDE8FF812AF0CA
:104ED000CBFB2AF011FB2D480068B0F850010028E8
:104EE0004BD02A4800680068007CC0F34000E8B15D
:104EF000264800681CF0CEFA401E06B2234800681F
:104F00001CF062FA401E07B23B460022114601A87F
:104F1000009619F02BFC01A81C4909680968896BE7
:104F200048601A48006806F0A7FE00BF4FF4807181
:104F300016480068303024F080FA202113480068B9
:104F400000F5987024F079FA002010490968A1F85A
:104F5000500128462DF054FC03900C48006800686E
:104F6000406A50B109490968086808490968096830
:104F70004B6A07490A680399984723F095FF00F0A8
:104F80003FF800F007F800BF9FE700005001002045
:104F90004C01002010B5002416E0C4EBC4000C49FD
:104FA00051F8200030B1C4EBC401094A52F8210085
:104FB00024F02CF8C4EBC401054A02EB81001C214B
:104FC00024F03BFA601CC4B2042CE6DB10BD0000E8
:104FD0002C9A00200146094A10680BE042688A4278
:104FE00002D002688A4204D1027E22F00102521CE1
:104FF000027640690028F1D17047000024010020AA
:105000007047000010B50421014800F0E3FF10BD17
:105010004499002010B51C21014800F0DBFF10BDB1
:105020005C9900202DE9FF4F8BB004469A46199DEC
:10503000BAF1000F11D11898B0F5807F0DD1002082
:10504000208060800C98401E00B2A0800D98401E09
:1050500000B2E0800FB0BDE8F08FB5F9000040422B
:10506000189948430121C1EB202000B22080B5F9F6
:1050700002004042189948430121C1EB202000B2B0
:105080006080B5F900100C98401A18994843022125
:1050900001EB202000B2A080B5F902100D98401A53
:1050A00018994843022101EB202000B2E080BAF1B8
:1050B000000F14D120882988084400B2208060881D
:1050C0006988084400B26080A0882988084400B23A
:1050D000A080E0886988084400B2E080BAE70A202E
:1050E0009AFBF0F00A900A98401C09900A9800EB8D
:1050F0008000AAEB400B0A9800B22DF08BFE0890BE
:10510000099800B22DF086FE07900A985A3000B236
:105110002DF080FE069009985A3000B22DF07AFEEC
:105120000590CBF10A0108984143079800FB0B104A
:105130000A2190FBF1F6CBF10A010698414305984C
:1051400000FB0B100A2190FBF1F776117F11B4F9E7
:105150000080B4F9029007FB08F006FB19002988CB
:1051600001EBA02000B2ADF8100006FB08F007FB31
:105170000900698801EBA02000B2ADF81200B4F973
:105180000480B4F9029007FB08F006FB1900298897
:1051900001EBA02000B2ADF80C0006FB08F007FB05
:1051A0000900698801EBA02000B2ADF80E00B4F947
:1051B0000080B4F9069007FB08F006FB1900298867
:1051C00001EBA02000B2ADF8080006FB08F007FBD9
:1051D0000900698801EBA02000B2ADF80A00B4F91B
:1051E0000480B4F9069007FB08F006FB1900298833
:1051F00001EBA02000B2ADF8040006FB08F007FBAD
:105200000900698801EBA02000B2ADF80600BDF9E5
:105210000800BDF91010884202DABDF9080001E06B
:10522000BDF91000BDF90410BDF90C20914202DA5D
:10523000BDF9041001E0BDF90C1088420BDABDF98C
:105240000800BDF91010884202DABDF908000DE02F
:10525000BDF910000AE0BDF90400BDF90C10884248
:1052600002DABDF9040001E0BDF90C002080BDF9AF
:105270000800BDF91010884202DDBDF9080001E008
:10528000BDF91000BDF90410BDF90C20914202DDFA
:10529000BDF9041001E0BDF90C1088420BDDBDF929
:1052A0000800BDF91010884202DDBDF908000DE0CC
:1052B000BDF910000AE0BDF90400BDF90C108842E8
:1052C00002DDBDF9040001E0BDF90C00A080BDF9CC
:1052D0000A00BDF91210884202DABDF90A0001E0A5
:1052E000BDF91200BDF90610BDF90E20914202DA97
:1052F000BDF9061001E0BDF90E1088420BDABDF9C8
:105300000A00BDF91210884202DABDF90A000DE068
:10531000BDF912000AE0BDF90600BDF90E10884281
:1053200002DABDF9060001E0BDF90E006080BDF9AA
:105330000A00BDF91210884202DDBDF90A0001E041
:10534000BDF91200BDF90610BDF90E20914202DD33
:10535000BDF9061001E0BDF90E1088420BDDBDF964
:105360000A00BDF91210884202DDBDF90A000DE005
:10537000BDF912000AE0BDF90600BDF90E10884221
:1053800002DDBDF9060001E0BDF90E00E08000BFBE
:1053900060E62DE9F74F86B0044620680590B4F921
:1053A00008100798A0EB0108B4F90A100898A0EBC0
:1053B0000109E089B0F5807F13D1206B00FB08F074
:1053C000E16A01FB1901606A00EBA10BE06A00FBD6
:1053D00008F0216B01FB0901A06A00EBA100049019
:1053E0002FE0A08980B9A06B00FB08F04FEA60189D
:1053F000A06B00FB09F04FEA6019606A00EB080B34
:10540000A06A484404901CE0A06B00FB08F04FEA3F
:105410006018A06B00FB09F04FEA6019206B00FBDD
:1054200008F0E16A01FB1901606A00EBA12BE06A58
:1054300000FB08F0216B01FB0901A06A00EBA12031
:1054400004904FEA2B2604980712B4F90400B042E6
:1054500003DC002009B0BDE8F08F002E01DA002047
:10546000F8E7B4F90600B84201DC0020F2E7002FAB
:1054700001DA0020EEE73420005DC0F3800050B375
:105480003420005DC0F3400078B90225B4F904006F
:105490007843684306FB050A059800EB0A012A4693
:1054A00004F1140023F077FF2CE00325B4F9040085
:1054B0007843684306FB050A6A1E059800EB0A015B
:1054C00004F1140023F067FF0AEB0500401E059964
:1054D000095CA17516E04FF0000A0025208A0346FA
:1054E0003AB231B2019004F1180020F023FC02908E
:1054F000BDF80800A0823AB231B204F1180020F0E1
:1055000079FBA0753420005D00F00100B0B14FF4CC
:105510007F40002100F47C4241EA5211C0F3C402F2
:1055200011430191BDF8042011460291A08ABDF8F3
:105530000810884201D100208CE700BFE07C08B948
:10554000012087E70FFA8BF1A187049801B2E18768
:1055500031B24020015339B242200153C4F844A073
:1055600084F84850204600F003F80390039871E750
:105570002DE9F04F8DB00446D4F8009094F83C002B
:105580000C9094F83E000B900C9870280BDA4FF0BA
:10559000FF35B4F940002844002800DA00250C98B3
:1055A0008030C7B213E00C9890280EDD0125B4F9C5
:1055B00040002844B4F90410884200DB00250C9810
:1055C000C0F1FF008030C7B201E00025FF270B9833
:1055D00070280CDA4FF0FF36B4F94200304400284E
:1055E00000DA00260B98803000F0FF0815E00B98D9
:1055F00090280FDD0126B4F942003044B4F90610BA
:10560000884200DB00260B98C0F1FF00803000F0DC
:10561000FF0802E000264FF0FF08A08A0A90A07D54
:10562000069000200590049003903420005DC0F3A4
:10563000800000285BD094F84800626C00FB0520D5
:1056400000EB0901022209A823F0A5FEB4F9040029
:1056500094F848205043626C00FB062000EB0901DF
:10566000022208A823F097FEB4F9040094F8482019
:105670005043626C00FB062294F8480000FB0520B2
:1056800000EB0901022207A823F085FE3420005D0B
:10569000C0F3400000287ED094F84800616C00FB05
:1056A00005110844401E19F800000590B4F90400E3
:1056B00094F848104843616C00FB061194F84800C8
:1056C0000844401E19F800000490B4F9040094F84E
:1056D00048104843616C00FB061194F8480000FB39
:1056E00005110844401E19F80000039053E0208A79
:1056F0000090B4F942204020005B284401B204F13C
:105700001800009B20F016FB0990208A0090422090
:10571000005B304402B2B4F9401004F11800009B61
:1057200020F008FB0890208A00904220005B304463
:1057300002B24020005B284401B204F11800009B33
:1057400020F0F8FA07903420005DC0F3400010B359
:10575000B4F942204020005B284401B204F1180053
:1057600020F048FA05904220005B304402B2B4F9C0
:10577000401004F1180020F03DFA04904220005B34
:10578000304402B24020005B284401B204F118000A
:1057900020F030FA0390BA46BB463420005DC0F3D7
:1057A0004000E0B306987843C7F1FF0C059B03FB6C
:1057B0000C00C0F3072104987843C7F1FF0C039B4A
:1057C00003FB0C00C0F3072201FB08F0C8F1FF0344
:1057D00002FB0300030AA375022905DC022A03DC8D
:1057E00000200DB0BDE8F08F022901DC4FF0000869
:1057F000022A01DC4FF0FF080698022801DC4FF076
:10580000000A0598022801DC4FF0FF0A04980228DC
:1058100001DC4FF0000B0398022803DC00E002E0FB
:105820004FF0FF0B03E0BA46BB46FF21A175BAF16A
:10583000000F02D1099802900BE0BAF1FF0F02D1DC
:105840000A98029005E05246DDE909101BF012F8B3
:105850000290BBF1000F02D1079801900BE0BBF161
:10586000FF0F02D10898019005E05A46DDE90710C4
:105870001BF000F80190B8F1000F03D1BDF804004F
:10588000A0820FE0B8F1FF0F03D1BDF80800A0829D
:1058900008E04246DDE901101AF0ECFF0090BDF887
:1058A0000000A08201209CE72DE9F05F0446B4F9D6
:1058B000080001026162B4F90A000102A162B4F9B0
:1058C0000C000A2190FBF1F56F1CB4F90C0005EBFC
:1058D0008501A0EB4106684200B22DF09BFA80469C
:1058E000784200B22DF096FA8146C5F15A0000B216
:1058F0002DF090FA8246C7F15A0000B22DF08AFAD4
:105900008346C6F10A0000FB08F009FB06000A21E5
:1059100090FBF1F1E162C6F10A0000FB0AF00BFB1B
:1059200006000A2190FBF1F12163E06A4111E16276
:10593000206B41112163A07C20F00BFB3421095D19
:1059400060F3000134200155A07C20F0E5FA3421F9
:10595000095D60F3410134200155A07C042805D085
:10596000A07C052802D0A07C062807D13420005D49
:1059700020F00400001D3421085505E03420005DAE
:1059800020F004013420015521682162A06920F033
:10599000E000A061A17CA06961F30400A061A1887E
:1059A000A06961F39420A061E188A06961F35F5070
:1059B000A061E08900EBD071491001F5001191FB65
:1059C000F0F2A263FF21A175208AA082BDE8F09FBA
:1059D0002DE9F743054616460024134C2CF01DFF15
:1059E0008046334629462046019A20F061FF07464B
:1059F0005FB900BF00BF2C21204623F01EFD4FF0F1
:105A00000040A0620020BDE8FE830020A062E069A3
:105A100018B940462CF0F4FEE061E06908B90120B5
:105A2000E0612046EFE700008099002010B51421C6
:105A3000114800F0CFFA20F0EDFE044600BF1CB97B
:105A400000BF00BF00BFFEE700BF14B900BF00BF2A
:105A500010BD0A49204620F0C5FF0949204620F024
:105A6000C3FF0849204620F0C1FF0749204620F027
:105A7000B7FF00BFECE70000689900203160020822
:105A80000565020821670208F95F020870B504463F
:105A90000D461021284623F0D0FC2068007801280C
:105AA00004D1208A2880608A68800CE02068007811
:105AB000022802D1E068686005E0206800780428C8
:105AC00001D10A2068602068406820B1206829461A
:105AD0004268904701E000BF00BF70BD2DE9FE4362
:105AE0000446A66AEEB9A18A208A084401B2A182BE
:105AF000E18A608A084401B2E18220460EF010FF7C
:105B000006460EB9BDE8FE83204613F0AFFA002228
:105B1000092130461FF00EF96078C0F3400000B153
:105B2000F0E7208A10B9608A002870D00020029027
:105B3000019094F83C0000F00F00032812D1304689
:105B400025F034FD0746304625F0B8FC804603209A
:105B50000090B4F910103B46424630460DF09CF8D8
:105B6000029012E0304625F0A3FD0746304625F0AE
:105B700017FC80460C200090B4F9121043463A46B8
:105B800030460DF089F8019000BF304625F068FCE2
:105B9000054605F0010028B9BDF90800002801DD1F
:105BA0000020029005F0020028B9BDF90800002885
:105BB00001DA0020029005F0040028B9BDF90400C4
:105BC000002801DD0020019005F0080028B9BDF98A
:105BD0000400002801DA0020019001AA02A9204651
:105BE00030F0ACFF0023BDF90420BDF908103046A9
:105BF00028F03CFCA08ABDF80810084401B2A1823C
:105C0000E08ABDF80410084401B2E18200BF00BF81
:105C100078E72DE9F84F0446D4F828B0BBF1000F1F
:105C200001D1BDE8F88F94F83C0000F00F0000B9F6
:105C3000F7E721F0BFF906463068477E4021584615
:105C400027F03EF910B9002161832183584625F0E1
:105C50001BFD8046584625F021FD054694F83C0082
:105C600000F00F000C2843D1002121831DBBB4F9A3
:105C70001A00C7F164014843642190FBF1F001B2BE
:105C80006183584625F08CFB8146584625F010FD6F
:105C900082460C200090B4F91A104B4652465846E2
:105CA0000CF0FAFF6083B4F91A2000231946584615
:105CB00028F0DCFB69E0204630F097FF00900021DF
:105CC00061836A46204630F039FFBDF9003041F665
:105CD000FF72514258460EF0CBFF8146BDF80000DE
:105CE000484402B201230021584628F0BFFB4CE093
:105CF00094F83C0000F00F00032846D10021618396
:105D0000B8F1000F23D1B4F91800C7F1640148437A
:105D1000642190FBF1F001B22183584625F0CEFBBF
:105D20008146584625F042FC824603200090B4F993
:105D3000181053464A4658460CF0AEFF2083B4F97B
:105D4000181000231A46584628F090FB1DE0204604
:105D500030F030FF00900021218300226946204668
:105D600030F0ECFEBDF9003041F6FF72514258466A
:105D70000EF0E4FE8146BDF80000484401B2012364
:105D80000022584628F072FB00BF208B002860D10B
:105D9000608B00285DD11DBB584625F089FC8146EB
:105DA000584625F0FDFA8246B9F1000F02DCBAF13F
:105DB000000F14DDB9F1000F06DA01234A46002175
:105DC000584628F053FB0AE0BAF1000F07DA012326
:105DD000CAF1000002B20021584628F047FB00BF7C
:105DE000B8F1000F23D1584625F068FB814658468C
:105DF00025F0DCFB8246B9F1000F02DCBAF1000F9E
:105E000014DDB9F1000F06DA012300224946584695
:105E100028F02CFB0AE0BAF1000F07DA0123002278
:105E2000CAF1000001B2584628F020FB00BF3246FC
:105E30000A2158461EF07EFF6078C0F3400000B192
:105E4000EFE694F83C0020F00F0184F83C100021AC
:105E5000A16200BFE5E62DE9FF4104460F4614B9F3
:105E60001BF09AFA04460CB9BDE8FF811FB9002067
:105E7000A4F85001F8E70020ADF80800ADF80A00DA
:105E800020461BF0A1FA401E00B2ADF80C002046DF
:105E90001BF000FB401E00B2ADF80E0002AA39460E
:105EA0006846FEF7C9FD064606B9DDE72068007CB6
:105EB000C0F3400060B10298206303986063012042
:105EC000A4F85001606810B160682CF029FECBE79F
:105ED0002068806918B1206869468269904700256A
:105EE0000BE004F1300000EBC50100226846FEF72C
:105EF000E4FD00B1B8E7681C85B2B4F85001A842CF
:105F0000EFDCB4F85001202809DAB4F8502104F18C
:105F1000300101EBC200694618F0CBFA0BE000201B
:105F2000A4F85001B4F8502104F1300101EBC20093
:105F300002A918F0BEFAB4F85001401CA4F85001B0
:105F4000606810B160682CF0EBFD00BF8CE770B5A5
:105F50000546284600F013F8044600260CE02146CA
:105F6000284600F024F806462146284600F086F828
:105F7000204623F04BF83446002CF0D170BD01468A
:105F800009B9002070474868FCE770B50646002450
:105F90003046FFF7F4FF054605E0641C294630460D
:105FA00000F005F80546002DF7D1204670BD0246E9
:105FB0000B461068001D03441868704702460B46E4
:105FC0001068034418687047014609B900207047FB
:105FD0008868FCE7002242608260CA1C22F003014C
:105FE0000160704770B50446216801F1080022F095
:105FF0003FFF0546A5B10022294620462EF026FB8C
:106000002946204662682EF013FB606820B12A46BC
:10601000204661682EF01AFB6560A06800B9A56093
:10602000284670BD70B50446216801F1080022F0D1
:106030001FFF0546A5B10022294620462EF0F8FA9A
:1060400029462046A2682EF001FBA06820B12A460E
:106050002046A1682EF0ECFAA560606800B9656082
:10606000284670BD014609B901207047486818B933
:10607000886808B90120F8E70020F6E72DE9F0412B
:1060800004460D460CB9BDE8F0812046FFF777FFC6
:10609000A8420FD129462046FFF789FF606060685B
:1060A00010B90020A0602FE00022204661682EF089
:1060B000CDFA29E02046FFF787FFA8420FD12946F5
:1060C0002046FFF77BFFA060A06810B90020606049
:1060D0001AE000222046A1682EF0AAFA14E0294610
:1060E0002046FFF76BFF064629462046FFF75FFF75
:1060F00007463A46314620462EF09AFA324639464D
:1061000020462EF0A3FA00BF00BFBCE710B504463E
:106110002068806818B1206821468268904720680E
:10612000006828B12068006820602046FFF7EEFF75
:1061300010BD0146886818B18868B0F9160070472C
:106140000020FCE72DE9F04F93B005468B469146C1
:106150009A461C9E688C20F00400001D6884A5F8F7
:10616000209032895946284626F026FC1290A5F840
:1061700020A032895946284626F01EFC1190688CD2
:1061800020F004006884DDE9111088420CD1DDE9BB
:106190001110884208D1BDF84800BDF8441088426B
:1061A00002D113B0BDE8F08FA5F82090328959468E
:1061B000284626F001FC1290A5F820A05946284652
:1061C00011F0B3F810903189109A1068129A2AF0E1
:1061D000D6FF3089602833D147F6FF711298884284
:1061E00002D0119888422BD1284626F00CFE0F9041
:1061F00000EBD0704710284626F005FE0F9000EB0C
:10620000D0704FEA600847F6FF711298884208D1B3
:10621000781C08F10101884200DA01E008F1010070
:10622000129047F6FF711198884208D1781C08F146
:106230000101884200DA01E008F10100119000BF7D
:106240002448FFF7CFFE044600BF1CB900BF00BFC3
:1062500000BFFEE700BF04B9A3E71298E060119801
:106260002061ACB325603089A080C4F808B06846CE
:1062700017F0EAFA2146684617F099FB1649684676
:1062800017F065FB1548029000BF1549684617F0E6
:106290006CFBFF220021684617F079FB31886846C5
:1062A00017F06BFB7188684617F04CFBF06806909E
:1062B00000BF6846002190F83E2061F3000280F89C
:1062C0003E2000BF30690590684617F087FB00BF8D
:1062D00000BF66E7749900202DB60308D9B80308FB
:1062E00009B8030810B514210148FFF773FE10BD6B
:1062F000749900202DE9FE4F04460F4690464FF05A
:10630000000900256BE1E06800EBC5004068C0F3C0
:10631000406000B162E1E16801EBC501496821F02C
:106320007F4028F0FBFD064626EA070008B9012059
:1063300000E00020029026EA080008B9012000E0F1
:1063400000200190DDE90101814272D0E06850F83F
:1063500035A04FF0000B6A4641F6100150462AF076
:10636000A7FB10B14FF0010BA9E06A4641F61101FD
:1063700050462AF09DFB10B14FF0010B9FE06A469A
:1063800041F6120150462AF093FB10B14FF0010B79
:1063900095E06A4641F6130150462AF089FB10B198
:1063A0004FF0010B8BE06A4641F6150150462AF08A
:1063B0007FFB10B14FF0010B81E06A4641F61401FA
:1063C00050462AF075FB10B14FF0010B77E06A469A
:1063D00041F2690150462AF06BFB10B14FF0010BFE
:1063E0006DE06A4643F20C0150462AF061FB10B1A1
:1063F0004FF0010B63E06A4643F20D0150462AF06C
:1064000057FB10B14FF0010B59E06A4641F2010110
:1064100050462AF04DFB10B14FF0010B4FE06A4699
:1064200041F2040150462AF043FB18B14FF0010B32
:1064300045E0D2E06A4641F2020150462AF038FBBC
:1064400010B14FF0010B3AE06A4641F203015046A9
:106450002AF02EFB10B14FF0010B30E06A4641F2FA
:10646000050150462AF024FB10B14FF0010B26E045
:106470006A4641F2060150462AF01AFB10B14FF06D
:10648000010B1CE06A4641F2320150462AF010FB33
:1064900010B14FF0010B12E06A4643F60F0150466F
:1064A0002AF006FB10B14FF0010B08E06A4643F6F4
:1064B0000E0150462AF0FCFA08B14FF0010BBBF177
:1064C000000F02D00320BDE8FE8F6A4640F60A01A5
:1064D00050462AF0EDFA10B14FF002097CE06A460E
:1064E00040F60B0150462AF0E3FA10B14FF00209D2
:1064F00072E06A4643F60F0150462AF0D9FA10B10D
:106500004FF0020968E06A4643F60E0150462AF051
:10651000CFFA10B14FF002095EE06A4640F63C0146
:1065200050462AF0C5FA10B14FF0020954E06A460D
:1065300040F63D0150462AF0BBFA10B14FF0020977
:106540004AE06A4640F63A0150462AF0B1FA10B1E4
:106550004FF0020940E06A464FF4046150462AF0C9
:10656000A7FA10B14FF0020936E06A4640F645013D
:1065700050462AF09DFA10B14FF002092CE06A460D
:1065800040F6410150462AF093FA10B14FF002094B
:1065900022E06A4640F6420150462AF089FA10B1DC
:1065A0004FF0020918E06A4640F6430150462AF0CF
:1065B0007FFA10B14FF002090EE06A4640F6490139
:1065C00050462AF075FA10B14FF0020904E0B9F113
:1065D000000F01D14FF0010900BF00BF6D1C608C9E
:1065E000C0F3C500A8423FF68EAE48466BE70000F8
:1065F00001480068704700005001002070470146C4
:10660000C1F30412072A00DD0722D0B27047000050
:1066100010B518210348FFF7DDFC01202CF098F994
:1066200010BD0000209900202DE9F04105460F46DD
:1066300016460DB9BDE8F0812846FAF79FF8804666
:10664000394628460A4A126890470746E8193146F3
:10665000074A1268904706463C4603E0A019285CAA
:106660002855641CA8EB0600A042F7D200BFE1E762
:10667000DC0200202DE9F04106460C4617461D4677
:1066800029463046084A126890472060206830B199
:10669000296888190021044A1268904700E0002008
:1066A0003860BDE8F0810000D40200202DE9F04FF1
:1066B00087B004460F4692469846DDE910560DB164
:1066C000002028801CB9002007B0BDE8F08F20789A
:1066D00008B90020F8E70FB90020F5E74FF00009EE
:1066E00006F0020010B906F0040098B1002000E0A6
:1066F000401C215C0A2905D0215C0D2902D0215CB7
:106700000029F5D1215C01B1401C15B14FF0FF31DA
:106710002980D9E706F0020008B141F6FF78002091
:106720000690059038E000200490059808B90120F3
:1067300000E0002006A904AACDE90062CDE902101C
:10674000059960184346524639462CF09BFB834618
:106750000498A8EB00000FFA80F8049848440FFA58
:1067600080F9BBF1000F00D11CE00598584405905A
:1067700020780A2802D020780D2800D112E0059850
:10678000205C0A2803D00598205C0D2803D10598C9
:10679000401C059006E000BF0598205C10B1B8F1E0
:1067A000000FC0DC00BF059870B905A92046094A52
:1067B00012689047834635B10022594638461EF08C
:1067C000FCFB0FFA80F900BF0DB1A5F80090059809
:1067D0007AE70000D40200202DE9F04706468846FB
:1067E000174606B10FB9BDE8F0873046F9F7C6FF86
:1067F00081463846F9F7C2FF044604B9F3E704EBD3
:10680000090A414630460B4A126890478046554671
:1068100003E0281B305C70556D1E08EB0400A84295
:10682000F7D906EB08002246394622F0C0FD00BF2A
:10683000D9E70000DC020020024600200FA31B78ED
:106840008B4211D113781BB90123137001200BE087
:106850001378012B02D10023137005E01378022B6B
:1068600002D10023137001201378012B04D12029B9
:1068700001D10223137001207047000023000000A3
:1068800073B582B00646039801903246002108464F
:10689000019B2CF013FE0546002001900024681C8B
:1068A00022F0E6FA044600BF1CB900BF00BF00BFDB
:1068B000FEE700BF14B9002004B070BD0020605591
:1068C0003246691C2046039B2CF0F8FD2046F3E776
:1068D0002DE9F04781460E4614461F46DDF820A0FC
:1068E00035461BE0600800FB075529464846D0475F
:1068F000B0F1000809DD04F0010080F00100C0EBF8
:106900005404E8190546064608E0B8F1000F02DA1B
:106910006408354602E02846BDE8F087002CE1D146
:106920000020F9E72DE9FF4F85B08346DDE9158AA0
:10693000DDE91349DDE91775129E05F00200F8B98B
:106940004FB105F0010030B1B9F1000F02D105F0EF
:106950000C0000B17F1E03E030222046641C32543C
:10696000544501D2202CF7D303E030222046641C8A
:10697000325405F0010018B1BC4201D2202CF4D3EE
:1069800005F01000B0B305F4806050B94CB1544527
:1069900001D0BC4205D1641E1CB1B8F1100F00D16A
:1069A000641EB8F1100F09D105F0200030B9202C79
:1069B00004D278222046641C325415E0B8F1100F3E
:1069C00009D105F0200030B1202C04D258222046F5
:1069D000641C325408E0B8F1020F05D1202C03D218
:1069E00062222046641C3254202C03D230222046DE
:1069F000641C3254202C16D2B9F1000F04D02D2281
:106A00002046641C32540EE005F0040020B12B2215
:106A10002046641C325406E005F0080018B120221C
:106A20002046641C3254CDE90275CDE90064584615
:106A300006A90EC900F0A2F809B0BDE8F08F2DE953
:106A4000FF4F8FB08046DDE91FABDDE91D96219D2C
:106A50001C9C00270CB925F0100505F4806000B1DE
:106A6000E4B100BFB4FBF6F106FB1141C8B20A283D
:106A700002DA00F1300107E005F0200109B14121FF
:106A800000E0612101440A39CBB239467F1C07AAD4
:106A90005354B4FBF6F40CB1202FE3D307A8CDE98F
:106AA00004AB8DE8810203960695404610A90EC9F5
:106AB000FFF738FF13B0BDE8F08F2DE9FF4F8FB01F
:106AC000DDE9217BDDF89080209EDDE91C454FF05B
:106AD0000009002184EA01006940084301D128F03F
:106AE000100808F4806028B1002184EA01006940A0
:106AF00008432DD000BF32463B4620462946F9F7D1
:106B000008FC02F0FF0ABAF10A0F02DA0AF13000BB
:106B100007E008F0200008B1412000E06120504467
:106B20000A38C2B2484609F1010907A90A54324697
:106B30003B4620462946F9F7ECFB04460D4600216A
:106B400084EA01006940084302D0B9F1200FD2D392
:106B50002398CDE9036BCDE9050807A91E98CDE977
:106B6000001902900FA80FC8FFF7DCFE13B0BDE8B4
:106B7000F08F9A4200D28854704770472DE9FF5F2A
:106B800005461446DDE90EA6DDE91087A34607F0A9
:106B9000020078B907F0010060B9B14607E022466B
:106BA000641C2020039B0199A84709F10109C145F4
:106BB000F5D300BF08E02246641C711E0E461AF889
:106BC0000100039B0199A847002EF4D107F00200B1
:106BD00050B105E02246641C2020039B0199A84780
:106BE000A4EB0B004045F5D3204604B0BDE8F09F70
:106BF00000BF70472DE9FF4F8BB0074600250C986A
:106C000000B9FA4FEAE20E98007825280AD02A4601
:106C10006D1C0E990878DDE90C13B8470E98401CDE
:106C20000E90DBE20E98401C0E90002400BF0E98E0
:106C300000782B2819D004DC20281ED023282CD142
:106C400023E02D2809D0302827D144F001040E98E4
:106C5000401C0E9001200A9022E044F002040E989D
:106C6000401C0E9001200A901AE044F004040E9893
:106C7000401C0E9001200A9012E044F008040E9887
:106C8000401C0E9001200A900AE044F010040E9877
:106C9000401C0E9001200A9002E000200A9000BFE4
:106CA00000BF0A980028C2D180460E990878FDF7E7
:106CB00098FE20B10EA8FDF77FFE804612E00E98E8
:106CC00000782A280ED1189901C91891002804DAF1
:106CD00044F00204C0F1000800E080460E99491C0F
:106CE0000E9100BF4FF000090E9800782E281FD19A
:106CF00044F480640E98401C0E900E990878FDF7BD
:106D000070FE20B10EA8FDF757FE814610E00E98E8
:106D100000782A280CD1189901C91891002801DDA2
:106D2000014600E0002189460E99491C0E9100BFE2
:106D30000E9800786C280AD004DC682816D06A28DF
:106D400035D128E0742820D07A2830D129E044F4C5
:106D500080740E98401C0E900E9800786C2804D118
:106D600044F400740E98401C0E9021E044F080041E
:106D70000E98401C0E900E980078682804D144F0BC
:106D800040040E98401C0E9012E044F480740E985B
:106D9000401C0E900CE044F400740E98401C0E90C1
:106DA00006E044F480740E98401C0E9000E000BF92
:106DB00000BF0E98007869281DD00EDC622821D013
:106DC00006DC25287ED050281AD058287BD115E023
:106DD000632879D06428F9D10CE0732875D004DCDD
:106DE0006F280ED07028F1D109E0752804D07828DA
:106DF000ECD102E000BF00BF00BF00BF00BF00BF7A
:106E000000BF00BF0E980078782803D00E98007855
:106E1000582801D1102623E00E980078702803D05E
:106E20000E98007850280CD1102644F0100444F439
:106E300080740E984078562812D10E98401C0E90FF
:106E40000EE00E9800786F2801D1082608E00E9811
:106E50000078622801D1022602E00A2624F01004FC
:106E60000E980078582803D00E980078502801D149
:106E700044F020040E980078692805D00E98007818
:106E8000642801D024F00C0404F4806008B124F0DC
:106E900001040E980078692803D00E9800786428C1
:106EA0007CD104F40070B8B31898C01D20F007001E
:106EB0001890D0E900AB189A083218920020CDE95A
:106EC000069803E073E17CE1F2E01CE1CDE90460A7
:106ED0000894BAEB00017BEB000001DA012000E02E
:106EE0000020002102900846B1EB0A0170EB0B0074
:106EF00002DA5046594605E000200146B0EB0A0090
:106F000061EB0B01CDE900012A463846DDE90C139F
:106F1000FFF7D3FD0546C7E0FFE704F48070D0B16A
:106F2000189850F804AB18904FEADA70CDE903983E
:106F300002960594BAF1000F01DD514601E0CAF155
:106F40000001CDE900102A463846DDE90C13FFF7B1
:106F500076FD0546A8E004F0400028B1189810F826
:106F6000041B1890C8B20DE004F0800028B11898F6
:106F700030F8041B189008B204E0189800681899BB
:106F8000091D189182464FEADA70CDE903980296FE
:106F90000594BAF1000F02DD514602E00BE0CAF1A0
:106FA0000001CDE900102A463846DDE90C13FFF751
:106FB00046FD054678E00E980078562818D11898B6
:106FC00050F804AB1890DAF80400006809900998AA
:106FD0000090DAF800300D98421B0C9841193846A1
:106FE000FFF708FE0544002009905DE07B6B000878
:106FF00004F40070D0B11898C01D20F00700CDE94E
:107000000698089418900020CDE904600290189921
:1070100003C9189A08321892CDE900012A46384669
:10702000DDE90C13FFF749FD05463DE004F48070EF
:1070300098B10022CDE9039802960594189800684B
:107040001899091DCDE9000218912A463846DDE954
:107050000C13FFF7F4FC054626E004F0400028B1CD
:10706000189810F8041B1890C8B20DE004F08000C6
:1070700028B1189830F8041B189088B204E01898CA
:1070800000681899091D189182460020CDE900A0DA
:10709000CDE90398029605942A463846DDE90C139B
:1070A000FFF7CDFC054600BF0E98401C0E9093E004
:1070B000012604F0020050B905E02A466D1C20208C
:1070C000DDE90C13B8473046761C4045F5D31899D6
:1070D00011F8043BD8B22A466D1C1891DDE90C1357
:1070E000B84704F0020050B105E02A466D1C20208C
:1070F000DDE90C13B8473046761C4045F5D30E98B1
:10710000401C0E9068E0189850F804AB1890504658
:10711000B9F1000F01D0494601E04FF0FF310A46B6
:10712000014600E0491C0B781BB1131EA2F10102BD
:10713000F8D10E1A04F4806028B14E4501D23046D1
:1071400000E04846064604F0020050B905E02A4631
:107150006D1C2020DDE90C13B8473046761C4045F5
:10716000F5D306E01AF8010B2A466D1CDDE90C1375
:10717000B8479AF8000040B104F480600028F1D0CC
:10718000B9F10000A9F10109ECD104F0020050B1FD
:1071900005E02A466D1C2020DDE90C13B847304677
:1071A000761C4045F5D30E98401C0E9014E02A46FC
:1071B0006D1C2520DDE90C13B8470E98401C0E907D
:1071C0000AE02A466D1C0E990878DDE90C13B847D1
:1071D0000E98401C0E9000BF00BF00BF0E980078B4
:1071E00000287FF410AD0D98854201D2284601E0B9
:1071F0000D98401E02460020DDE90C13B8472846D2
:107200000FB0BDE8F08F2DE9F04104460E4600278F
:1072100074B13146204600F02DF80546B5F5004F13
:1072200005D20C2D01D9284600E00C20074600BFEE
:107230003846BDE8F081024600BF481E084018B13C
:1072400000BF00BF00BFFEE700BF481E1040101A7D
:10725000704710B502464B1E13444C1E23EA04002F
:1072600000BF4B1E0B401BB100BF00BF00BFFEE7BD
:1072700000BF10BD024600BF481E084018B100BF45
:1072800000BF00BFFEE700BF481E10444B1E9843DE
:10729000704700002DE9F04180460E46444601202B
:1072A0006086002500270DE056F8270025A1F9F794
:1072B0002BFB10B1681C85B202E0608E401C60861A
:1072C000781C87B256F8270020B156F827000078BE
:1072D0000028E9D1208EA84201D1BDE8F081A06A42
:1072E00020B1A06A21F092FE0020A062E06A20B1E5
:1072F000E06A21F08BFE0020E062E80021F0B8FD9A
:10730000A06200BFA06A18B900BF00BF00BFFEE7BF
:1073100000BF680021F0ACFDE06200BFE06A18B970
:1073200000BF00BF00BFFEE700BFA06A08B1E06A6F
:1073300000B900256900E06A22F07FF8258600BFC9
:10734000CBE700000A0000002DE9F84F81460E4609
:10735000924699F8090000F00700022801D1304652
:1073600000E050468346564501DD304600E0504679
:107370000746032000EB470020F0030000F1100552
:107380003948006839490968A0EB0108002405EB79
:10739000080037490968884206D2334804686068A3
:1073A00020F0004060603AE031480068854221D812
:1073B00013E04FF0FF300090002269462D4812F094
:1073C000A5FB002269462C4812F0A0FB2648006865
:1073D00026490968A0EB010800BF08EB0500244915
:1073E00009688842E5D820480468606820F00040B9
:1073F000606014E0284621F03BFD044600BF1CB944
:1074000000BF00BF00BFFEE700BF14B90020BDE809
:10741000F88F606820F0004000F100406060324664
:107420005946484602F007F82060606800F0404086
:10743000401C6060606820F080406060A781A4F814
:107440000EB06068C00F20B1204600F11001A160AD
:1074500008E0054800681030A06003480068284430
:10746000014908602046D2E758010020A40200200C
:107470005401002003490108419D0108F0B585B081
:1074800006460D463446002004900390029094F87E
:107490003C0000F0030020B1012838D0022866D05B
:1074A00000BF94F83C0000F003005A490978884274
:1074B0001BD02620005D00EB001000EB40001421E3
:1074C00090FBF1F0544908702720005D00EB00109C
:1074D00000EB4000142190FBF1F05049087094F843
:1074E0003C0000F003004B49087002A803A9CDE955
:1074F000001005EB45014FF6FF7202EA410004ABB4
:1075000046490A78444909780CF06FFD5FE094F829
:107510003C0000F003003F49097888421AD0A08C53
:1075200000EB400040024FF4B471B0FBF1F03C4975
:1075300008802720005D00EB001000EB40001421C4
:1075400090FBF1F03549087094F83C0000F003001E
:107550003049087002A803A9CDE90010E9B204ABD4
:107560002E4802782E4800880CF03FFD2FE094F85A
:107570003C0000F003002749097888421AD0A08C0B
:1075800000EB400040024FF4B471B0FBF1F024492D
:1075900008802620005D00EB001000EB4000142165
:1075A00090FBF1F01C49087094F83C0000F00300D7
:1075B0001849087002A803A9EAB204ABCDE900108B
:1075C00015480178164800880CF00FFD00BF00BF79
:1075D0009DF810009DF80C109DF80820D708BDF804
:1075E000003067F304038F080093BDF8003067F3A1
:1075F0004A13C7080093BDF8003067F3CF23009308
:10760000BDF800703B460193BDF80410084605B074
:10761000F0BD00000A02002008020020090200203C
:107620000602002010B50120074908700748FEF740
:10763000A6FC20B9064800682BF066FA03E004486F
:1076400000682BF06DFA10BD8C02002050990020CC
:107650009002002010B5044694F83E00C0F34000AC
:1076600050B9A08F002807DDA08F4FF6FF71884228
:1076700002D0A08F401EA087A08FA8B9606B20B158
:1076800094F83E00C0F3400070B121461748FEF761
:10769000F5FCFFF7C7FFE06810B12046E1688847B6
:1076A000204621F0B3FC1FE0A06B4042E062606B1B
:1076B000D0B194F83E10C1F3400111B9216B494299
:1076C000E16294F83E104908C94394F83E2061F302
:1076D000410284F83E20E069616AE1616062A06A6B
:1076E000616BA162606300BF10BD00005099002073
:1076F0002DE9F0418046424800682BF081F80646AB
:107700004048007880F001003E4908703E48FEF78E
:1077100036FC04466BE000203C49087094F83E00BB
:10772000C0F3800037490978884253D03548017842
:107730002C34A07C61F38200A07420688719A07C9F
:107740002C3CC0F3C00010BBE06A00281FDC002FF7
:107750001DDB94F83E0000F0010060B9206950B1D3
:107760002046216988470546E0692844E061606A4F
:107770002844606200BFA06810B12046A168884715
:1077800094F83E0020F00800083084F83E00E06ADB
:107790003044E062E06A00281BDBD4E90A1088422A
:1077A00001DDA06AE0622046A16988470546206A9B
:1077B000A84206D02562606818B12946D4E90002C3
:1077C0009047D4E90A10884202DB2046FFF742FFC7
:1077D00000BF00BF0D48007820B10B48FEF7CFFB7B
:1077E000044604E021460848FEF7E1FB0446002C6D
:1077F00091D12BF012F802490860BDE8F081000039
:10780000880200208D020020509900208C02002068
:10781000F7B582B004460E4614B9049805B0F0BD21
:1078200000BF63223146204625F0C6F80190019D35
:1078300000BFBDB12868A8B100BF64223146204610
:1078400025F0BAF801900198C0B207464FB13A4608
:107850002B682846049998470190BDF80400ADF8BC
:10786000100000BF0498D9E770B504460D46606863
:1078700018B129466068FFF7F7FF206818B129465C
:1078800020462268904770BD70B505460C46A1B2EF
:10789000284616F03BFD70BD70B505460C46A1B2FA
:1078A000284616F084FD70BD10B510F0E9FA10BD41
:1078B00070B505460C46164606E028466A1C95B289
:1078C00000F008F804F8010B301EA6F101018EB299
:1078D000F3D170BD70B50446002610F091FB211263
:1078E000A02202EB4101C8B210F054FB10F0CEFB15
:1078F0002546E11704EB11610912A4EB0121C8B27E
:1079000010F048FB10F0C2FB10F07AFBA12010F041
:1079100041FB10F0BBFB002010F00EFB064610F000
:1079200095FB304670BD70B505460C46164606E020
:107930002178284600F009F8681C85B2641C301EC6
:10794000A6F101018EB2F3D170BD70B504460E46AA
:1079500010F056FB2112A02202EB4101C8B210F038
:1079600019FB10F093FB2546E11704EB1161091296
:10797000A4EB0121C8B210F00DFB10F087FB3046DC
:1079800010F008FB10F082FB10F060FB0A2002F000
:1079900085FB70BD70B504460D4600BF204600F063
:1079A0003BF818B100BF00BF00BFFEE700BF28468C
:1079B00000F050F9001D616808446060204600F046
:1079C0003AF8204670BD70B505460C46284600F0D2
:1079D00041F904F11001884201D3012070BD00205B
:1079E000FCE70146A1F1080070477CB505460C464E
:1079F000204600F02FF906466A4601A92CF0A4F8AB
:107A000021462846DDE9003211F002FC7CBD01462A
:107A1000087900F00100704710B50446204600F0D8
:107A200019F908B9012010BD0020FCE701460879CA
:107A300000F00200704770B50446204600F097F849
:107A400005462C60284670BD7CB506460C460020D5
:107A50000190009000256CB16A4601A920462CF0E7
:107A600090F80198092805DA6A4601A930462FF0F6
:107A70000FFA054685B100BF284600F0EBF8A0429A
:107A800003D200BF00BF00BFFEE700BF294630465B
:107A9000DDE900322EF0F7FD28467CBD70B50446C6
:107AA0002046FFF7C8FF0546284600F0BEF82046EE
:107AB00000F0B6F870BD70B50446204600F057F8E7
:107AC0000546284600F0B6F8204600F0BEF870BD26
:107AD00070B506460D46284600F049F8044600BF3A
:107AE0001CB900BF00BF00BFFEE700BF2046FFF784
:107AF0008EFF90B100BF2846FFF78EFF18B100BF80
:107B000000BF00BFFEE700BF2146304600F076F818
:107B100021462846FFF73EFF0546284670BD70B552
:107B200006460D462846FFF781FFF0B1284600F0D3
:107B300057F8044600BF1CB900BF00BF00BFFEE7F6
:107B400000BF00BF2046FFF762FF18B900BF00BFAB
:107B500000BFFEE700BF2146304600F04FF829463F
:107B60002046FFF717FF054600BF284670BD2DE9E8
:107B7000F0410446204600F06DF8061F204600F054
:107B8000B8F8074631462DF024F8054600BF2046D8
:107B9000FFF742FF18B100BF00BF00BFFEE700BF04
:107BA0002846BDE8F0812DE9F04106460C46154611
:107BB000002794B100BF1DB900BF00BF00BFFEE7A2
:107BC00000BF2A462146304600F097F82046FFF7CE
:107BD00072FF204600F08DF807463846BDE8F08178
:107BE00010B5044600BF2046FFF720FF18B900BFBC
:107BF00000BF00BFFEE700BF206810BD7CB5054692
:107C00000C46204600F026F806466A4601A92BF0ED
:107C10009BFF21462846DDE900322EF034FD7CBD75
:107C2000416841F0010141607047416841F0020143
:107C300041607047416821F002014160704742682D
:107C400002F003030B4343607047416821F00101D8
:107C5000416070470146486820F0030070472DE9F5
:107C6000F04706460C46304600F043F88046211F98
:107C70002CF0AFFF07463046FFF7ECFF211D451AF9
:107C800000BF384600F035F88146384600F031F83C
:107C900080460421FFF7DDFA814503D000BF00BF15
:107CA00000BFFEE700BF00BF3046FFF7D3FF291932
:107CB000091D884203D000BF00BF00BFFEE700BF20
:107CC00029463846FFF7BBFF00BF3846FFF7C2FF23
:107CD0000C2803D200BF00BF00BFFEE700BF214653
:107CE0003046FFF7ACFF3846FFF7D8FE3846BDE810
:107CF000F087014601F1080070472DE9F041064682
:107D00000C46154600BF2046FFF781FE18B900BF9C
:107D100000BF00BFFEE700BF29462046FFF753FE25
:107D200078B129462046FFF79AFF07462046FFF71D
:107D300082FE3846FFF779FF39463046FFF755FE99
:107D400000BFBDE8F0812DE9F04106460C4615461E
:107D500000BF2046FFF75BFE18B100BF00BF00BFA9
:107D6000FEE700BF29462046FFF72DFE88B12946D1
:107D70002046FFF774FF07463846FFF75BFF39469A
:107D80003046FFF7A5FE074639463046FFF72DFE81
:107D900000BFBDE8F0812DE9F843064634461FF0E8
:107DA00009F9804640461FF04AF978BB30461CF07E
:107DB000D4FC38B330461CF04CFB208FE18E884257
:107DC00012D0E08E2087E08E00906A461C2130465B
:107DD0001CF0B0FF0746012F02D03846BDE8F883FB
:107DE000304625F00AFC00BF40461FF038F9054632
:107DF000042D06D1304623F061FA074600211DF01C
:107E0000CCFE09E030461CF00BFD05E0FFE7208FBB
:107E1000E086304625F0F1FB0120DFE72DE9F04157
:107E2000044620461CF080FF0546284623F0A0FAB1
:107E30000646284617F018FB074601223946304609
:107E400029F08CFEBDE8F0810146C1F3C0107047F7
:107E50000146C1F3801070470146C1F3C01070475E
:107E60000146C1F3002070470146C1F3C0007047CE
:107E70000146C1F3401070470146C1F340207047EE
:107E80000146C1F3003070470146C1F3001070474E
:107E90002DE9F04F89B004460D460021204623F01D
:107EA00002F930B91C21284621F0C7FA09B0BDE813
:107EB000F08F2946204600F00BFB2946204600F0B3
:107EC0007DF80021204624F021FB08900021204667
:107ED00024F0A2FC07900021204624F0D7F80128C6
:107EE00000D100E0002081460021204624F04AFF16
:107EF00007460021204624F0B7F9064642F2D17029
:107F0000874205D1608CC0F3802008B9012000E0D1
:107F100000208246204623F066F9069000BF4FF00D
:107F20000008244802884146204624F045FD03907D
:107F30000398C0B200BF8346AA6829692868CDE9C2
:107F40000209CDE900125A465146089B06980FF0E7
:107F5000E5FA288342F2D170864205D1608CC0F3E5
:107F6000402008B9012000E000200590204623F0C1
:107F70001BF9049000BF4FF000080F4802884146EB
:107F8000204624F019FD03900398C0B200BF834639
:107F90000023EA6869686869CDE90213CDE9000247
:107FA0005A46079BDDE904010FF0B8FA688300BF69
:107FB0007CE700007E010020820100202DE9F34FC4
:107FC00087B00C4607980EF097F88046079823F084
:107FD0000AF90690404601F0A9FA2061216948009B
:107FE00020F080FF20602169480020F07BFFA06026
:107FF000002548E05848029038F9150041F69A717A
:1080000088423FD10020019029E00199079823F090
:108010004AF800905149009824F05DFF00B11BE040
:1080200000980EF087F88246BAF1010F00D013E0F5
:1080300000980EF06FF88346AB4500D00CE0009836
:1080400024F0E1FE0299884201DA029802E00098E9
:1080500024F0D9FE029000BF0198401C01900798BF
:1080600023F03FF801998842CFD80298002804DB1A
:108070000298A16821F8150003E00021A06820F80B
:10808000151000BF6D1C2069A842B3D80026B14668
:1080900000251BE038F9150041F69B71884202DB90
:1080A000411A0E4411E041F69A71884206D1A16846
:1080B00031F8151049440FFA81F906E0A16821F85A
:1080C000150009EB00010FFA81F96D1C2069A84227
:1080D000E0D80021079824F019FA05902169491E7B
:1080E000DDE9050200FB112000B206900698A0EB26
:1080F000090007B2002F00DA00274FF0FF3004908C
:1081000000200390002513E038F9150041F69B711B
:1081100088420CDB421A11B207FB01F2B2FBF6F205
:1081200012B2A36823F815200495039100BF6D1CBB
:108130002069A842E8D8049800280ADB0398301A7E
:108140007843B0FBF6F0381A01B2A268049822F81E
:10815000101009B0BDE8F08F01E0FFFF010006003C
:108160002DE9FC5F054600221146284626F00AFB51
:108170000021284623F0F1FF81460021284624F003
:1081800072FB484407B20021284624F023F94844F2
:108190000FFA80FA284623F0DFFE384450440FFAE5
:1081A00080FB3B4E284622F09CFF01904FF00008D8
:1081B0005CE0A868006850F828403649204624F062
:1081C0008AFE00B150E0204625F094FA002839D10B
:1081D0000021204623F0F2FE0090009830B10128E3
:1081E00007D0022804D0032815D100E000BF00BF4B
:1081F00000BFB4F91A10B5F91600081A401CB042B5
:1082000001DA304605E0B4F91A10B5F91600081A7B
:10821000401C06B214E00021204624F0E7FD70B9AE
:1082200004F1140016F09DF93844B04201DA3046EA
:1082300004E004F1140016F094F9384406B200BFCB
:1082400000BF10E0B4F91A10B5F91600081A401C66
:10825000B04201DA304605E0B4F91A10B5F916005B
:10826000081A401C06B200BF08F1010801988045B9
:108270009FD30748864209D006EB0A0006B25E4546
:1082800002DD3046BDE8FC9F5846FBE75846F9E75B
:1082900001E0FFFF010004002DE9FC5F054600221C
:1082A0001146284626F052FA0021284623F055FFB1
:1082B00082460021284624F013FA50440FFA80F831
:1082C0000021284624F063F950440FFA80F928462B
:1082D00023F052FE4844404400B20190724C2846BC
:1082E00022F0FFFE83460021284623F0A8FE012845
:1082F00066D100265BE0A868006850F826706B49DC
:10830000384624F0E8FD00B150E0384625F0F2F997
:10831000002839D10021384623F050FE0090009803
:1083200030B1032805D0062804D0082815D102E072
:1083300000BF00BF00BFB5F91800B7F91410401A0C
:10834000401CA04201DA204605E0B5F91800B7F953
:108350001410401A401C04B214E00021384624F0E6
:1083600038FD70B907F1140016F06EF94044A042D0
:1083700001DA204604E007F1140016F065F94044E4
:1083800004B200BF00BF10E0B5F91800B7F914102F
:10839000401A401CA04201DA204605E0B5F9180059
:1083A000B7F91410401A401C04B200BF761C5E4599
:1083B000A1D33D48844269D004EB090004B265E0D2
:1083C00000265BE0A868006850F8267037493846F8
:1083D00024F081FD00B150E0384625F08BF980BBD8
:1083E0000021384623F0EAFD0090009830B10128C2
:1083F00005D0042804D0072815D102E000BF00BF33
:1084000000BFB7F91800B5F91410401A401CA0427B
:1084100001DA204605E0B7F91800B5F91410401A42
:10842000401C04B215E00021384624F0DFFC78B986
:1084300007F1140016F008F94844A04202DA204679
:1084400005E008E007F1140016F0FEF8484404B215
:1084500000BF00BF10E0B7F91800B5F91410401ABA
:10846000401CA04201DA204605E0B7F91800B5F932
:108470001410401A401C04B200BF761C5E45A1D304
:108480000948844202D004EB080004B20648844242
:1084900002D10198BDE8FC9F0198844201DD20468D
:1084A000F8E70198F6E7000001E0FFFF0100040093
:1084B00010B50446206820F091FD606820F08EFD24
:1084C000A06820F08BFDE06820F088FD10BD000062
:1084D0002DE9F34F87B00C4607980EF0B5FD8046A6
:1084E000404601F023F860616169480020F0FAFC21
:1084F00060606169480020F0F5FCE060002548E01C
:108500005948029038F9150041F69A7188423FD1D6
:108510000020019029E00199079822F0C4FD009005
:108520005249009824F0D7FC00B11BE000980EF0EF
:1085300053FE8246BAF1010F00D013E000980EF00E
:108540003BFE8346AB4500D00CE0009822F0C0FE15
:108550000299884201DA029802E0009822F0B8FEFF
:10856000029000BF0198401C0190079822F0B9FDCD
:1085700001998842CFD80298002804DB0298E1686C
:1085800021F8150003E00020E16821F8150000BF84
:108590006D1C6069A842B3D80026B14600251BE0D7
:1085A00038F9150041F69B71884202DB411A0E44EE
:1085B00011E041F69A71884206D1E16831F8151050
:1085C00049440FFA81F906E0E16821F8150009EB4A
:1085D00000010FFA81F96D1C6069A842E0D8002102
:1085E000079824F019F90690079822F0DDFD01465E
:1085F0006269521E069800FB121000B205900598A1
:10860000A0EB090007B2002F00DA00274FF0FF307F
:10861000049000200390002511E038F9150041F680
:108620009B7188420ADB421A11B207FB01F2B2FBCE
:10863000F6F212B2E36823F8152000BF6D1C6069E2
:10864000A842EAD8049800280ADB0398301A784335
:10865000B0FBF6F0381A01B2E268049822F8101064
:1086600009B0BDE8F08F000001E0FFFF0100060047
:108670007CB504460D46164628882189084400B278
:10868000ADF8000068886189084400B2ADF80200C6
:10869000A8882189084400B2ADF80400E8886189FF
:1086A000084400B2ADF806003246694620466369C8
:1086B00098477CBD2DE9F04704460D469046994603
:1086C000AD1E606B00EB153AC5F3C80605F0070157
:1086D00001208840C7B200BF51460AF1010A204676
:1086E0002BF092FD10B10120BDE8F08700BF00BF64
:1086F00004F13C00805D384008B1012000E000201A
:10870000484501D10220EFE704F13C00805D78404C
:1087100004F13C0188550120E070A8F10100B0F19E
:10872000000800D1E0E77806000E071EE0D101271F
:10873000701C0646B0F5007FD9D30026CCE70000B8
:10874000F8B505460E462C46206B10B1206B00781C
:1087500018B9606B08B90120F8BD606B58B12846A4
:1087600029F0FBFD0746104909688847616B88427C
:1087700001D30020F0E7206B98B1002000900AE0C0
:1087800069460A4A206B126890470746B74201D1F2
:108790000120E1E700BF206B0099405C0028EFD189
:1087A000DAE70120D8E70000E4020020D40200202C
:1087B00070B504460D460020E070401EA0632946B7
:1087C00020462BF021FD08B1042070BD04F23A20B0
:1087D00014F03AFC4AF65521884201D00320F4E710
:1087E0000B2214A104F13C002BF0F5F908B901208B
:1087F000EBE794F83C00E92807D094F83C00EB281C
:1088000003D094F83C00E82811D103220CA104F114
:1088100072002BF0E0F908B90020D6E7052209A183
:1088200004F18E002BF0D7F908B90020CDE7022023
:10883000CBE70000EB7690455846415420202000BD
:108840004641540046415433320000002DE9FF4FA9
:108850008FB00F46209DF87800F0010008B1FA486B
:1088600000E0FA480E90F87800F0010008B1F848EE
:1088700000E0F8480D90F87800F0010008B9F448DD
:1088800000E0F4480C9001200B90B5E000220B9220
:1088900000206A88B5F804C0A2EB0C0211B20026D1
:1088A0001AE006EB860CEA6802EB8C02127C02F0FE
:1088B000010242B906EB860CEA6802EB8C0292894F
:1088C000024410B207E006EB860CEA6802EB8C0269
:1088D00012898A1A11B2761C2A69B242E1D800269E
:1088E00085E006EB860CEA6802EB8C02127C02F053
:1088F0000102002A7AD191FBF0F80FFA88F306EB17
:108900008609D5F80C8008EB8908B8F80C8008FBBC
:1089100003F80FFA88F206EB8609D5F80C8008EB0D
:108920008908B8F9049006EB860AD5F80C8008EBA4
:108930008A08B8F90680904501DD904607E006EB0D
:10894000860AD5F80C8008EB8A08B8F90680C1457C
:1089500008DD06EB8609D5F80C8008EB8908B8F924
:10896000048013E006EB8609D5F80C8008EB890833
:10897000B8F90680904501DD904607E006EB8609D0
:10898000D5F80C8008EB8908B8F90680C4469445F0
:108990000BD04FF0010806EB860AD5F80C9009EBD6
:1089A0008A09C9F81080CDF82C8006EB8609D5F825
:1089B0000C8008EB8908A8F808C006EB8609D5F8F2
:1089C0000C8008EB8908B8F80C80A0EB08080FFAB7
:1089D00088F006EB8609D5F80C8008EB8908B8F812
:1089E0000880A1EB08080FFA88F100BF761C2A69FD
:1089F000B2423FF676AF00BF0B9800287FF446AF37
:108A000000210F9823F035FB012800D100E0002061
:108A10000A9000200990089008A809A9CDE9001043
:108A200029890BB2B5F9022038781E992CF01AF971
:108A3000F87800F0010048B10A9838B10F9822F098
:108A4000D2FBBDF82410084400B2099011990F9888
:108A500022F029FB04468AE17F49204624F03BFAB4
:108A600040B1F878C0F3800111AA0F980EF027F9F1
:108A700004467CE10021204623F0CCFB07900798B8
:108A8000002858D000200390002610E006EB860155
:108A9000E86850F82100A04208D106EB8600E9689A
:108AA00001EB8000B0F90800039003E0761C286910
:108AB000B042EBD800BFF87800F0010030B1608C14
:108AC00020F4806000F58060608405E0608C20F414
:108AD000007000F50070608404F114000D9988475F
:108AE0000399884226D0204624F087FD00BFA08A43
:108AF000ADF80400E08AADF80600208BADF8080060
:108B0000608BADF80A0000BF04F114000E9A0399BF
:108B1000904701AA292120461CF00CF9204622F09A
:108B200027FC2246222100901CF004F9204624F064
:108B300064FD00BF07E0608C20F480606084608C7E
:108B400020F400706084002006907878012812D00C
:108B5000022819D104F114000C998847B5F90010C6
:108B6000491C21F00101081A039000EBD07040105D
:108B700000B2069009E004F114000C998847298896
:108B8000081A00B2069000E000BF00BFF87800F0BD
:108B9000010050B10A9840B104F114000D998847C2
:108BA000BDF82410081A00B209900020039043F287
:108BB0000C022046039923F0FFFE029002980FFA60
:108BC00080F800BF0020039043F20D022046039975
:108BD00023F0F2FE029002980FFA80F900BF2046BF
:108BE00024F011F90590204622F072FB049008F45D
:108BF000C040B0F5005F01D1012000E0002030B19D
:108C000028F4C040B0F5FA6F01DC012000E000203C
:108C100090B128F4C040B0F57A7F04DD28F4C0405C
:108C2000C0F57A7001E028F4C040059948436421FA
:108C300090FBF1F00FFA80F809F4C040B0F5005F46
:108C40000CD101200BE0000087E701087BE7010859
:108C5000C7E60108B7E5010801000600002030B1B1
:108C600029F4C040B0F5FA6F01DC012000E00020DB
:108C700090B129F4C040B0F57A7F04DD29F4C040FA
:108C8000C0F57A7001E029F4C0400499484364219A
:108C900090FBF1F00FFA80F9A18A1C98401A404429
:108CA0000FFA80FAE18A1D98401A48440FFA80FBB7
:108CB000F87800F0010010B1BDF9240000E006983A
:108CC00050440FFA80FAF87800F0010008B10698D5
:108CD00001E0BDF9240058440FFA80FBBAF1000FFF
:108CE00002D1BBF1000F1BD0204624F086FCA08AE5
:108CF000504400B2A082208B504401B22183E08A0C
:108D0000584401B2E182608B584401B2618320462D
:108D100024F073FC01235A465146204624F04AFDB4
:108D2000F87800F0010008B10A9870B904F1140055
:108D30000D9988471F990844BDF820100844BDF8D4
:108D40002410084400B2099008E0BDF820101F98D4
:108D50000844BDF82410081A00B20990F878C0F34E
:108D6000800111AA0F980DF0AAFF044600BF24B19C
:108D7000DDE9111081427FF46FAE13B0BDE8F08FD2
:108D8000024600E0521C107810B110788842F9D1E8
:108D9000107870472DE9F04F8DB005468946B9F13E
:108DA000000F02D10DB0BDE8F08FA5F8189028682B
:108DB00010B1286820F02AF909EB4901062202EBDC
:108DC000410020F055F8286000BF286818B900BF9E
:108DD00000BF00BFFEE700BF286868600221286866
:108DE00001FB0900801CE8600421286801FB0900E0
:108DF000001DA860B9F1010F0CD1B420696808709A
:108E00000020E96808800120E96848800020A968FE
:108E10000880C7E709F10101C80020F063F80746A0
:108E200009F1010007EB80084FF0000A4FEA8900C2
:108E300002B20BA90CA800F067F90024BDF93000BC
:108E40008010079000200390CCE0002616E00BA9CC
:108E50000CA800F061F90CA800F04BF900B90FE084
:108E6000BDF93000801007A941F82600BDF8300098
:108E700000F0030003A941F82600761C042EE6DB6F
:108E800000BF042E00D0B3E00A990798884219D198
:108E9000079800B227F814000FFA8AF028F8140097
:108EA000DDE9030108440599084406990844696806
:108EB00008556868005D0007000E69680855601C69
:108EC00004B28DE0DDE9070188422CD0079800B29A
:108ED00027F814000FFA8AF028F81400039869683C
:108EE00008556868005D0007000E69680855601C39
:108EF00004B20798401E00B227F814000FFA8AF057
:108F000028F814000498001D05990844069908449F
:108F1000696808556868005D0007000E69680855B3
:108F2000601C04B25CE00999079888422CD007982D
:108F300000B227F814000FFA8AF028F81400DDE9CF
:108F400003010844696808556868005D0007000E61
:108F500069680855601C04B20798401E00B227F8E3
:108F600014000FFA8AF028F81400059808300699C2
:108F70000844696808556868005D0007000E696864
:108F80000855601C04B22BE0079800B227F81400C3
:108F90000FFA8AF028F81400DDE903010844059966
:108FA0000844696808556868005D0007000E696834
:108FB0000855601C04B20798401E00B227F8140040
:108FC0000FFA8AF028F8140006980C3069680855E2
:108FD0006868005D0007000E69680855601C04B2EF
:108FE0000AF1010A0CA800F084F800287FF42DAFE4
:108FF00000BF40F2D32109FB01F0029002988012D9
:109000000190601E37F910100198814205D1601E51
:1090100038F910100198814226D0DDE90121A1EB39
:109020008220B0F5007F04DC00FB00F14800001452
:1090300007E0C0F5806000FB00F148000014C0F1BB
:109040000F00019909B227F81410019909B228F804
:1090500014106A6810556968095D0907090E6A6885
:109060001155611C0CB200BFA61E0EE038F81600A8
:1090700027F8140037F8160028F814006868805D97
:1090800069680855761E601C04B2002EEEDA4FF0B7
:10909000000B00260020E968088023E0E96821F839
:1090A0001B6037F81600A96821F81B0010E0A868BB
:1090B00030F81B0037F91610884203DAA86830F838
:1090C0001B0001E037F91600A96821F81B00761C87
:1090D00038F91600584501D1A642E8DB0BF1010032
:1090E0000FFA80FBA642D9DB38461FF077FF00BF9E
:1090F00058E60146B1F90200B1F90020904201DCC6
:10910000012070470020FCE7028000234380C2F169
:1091100001031BB20B807047B1F90020002A07DC65
:109120000B8842885200D21C1A4412B20A800CE00A
:1091300042880388D21A5200521D0B881A4412B278
:109140000A800288521E12B202804288521C12B259
:10915000428070472DE9F84F824615461E46DAF8E0
:1091600000000090DAF8500000F104094FF400729A
:10917000002328463146F7F7CCF807460098B0F8A8
:109180000AC0624600233846F7F7C3F8834600BF9B
:1091900059F8044B14B90020BDE8F88FA34500D25C
:1091A00004E0ABEB040B09F10409F1E700BFD9F8C7
:1091B00000005844F0E70246891ED069801E8842AC
:1091C00001D8002070475389106B03FB0100F9E7B9
:1091D0002DE9F04780460C4604F11A0013F034FFE5
:1091E00010B10020BDE8F087207800F03F00401E5D
:1091F00000EB800101EBC0054FF00109002621E0E2
:109200001849895D081913F01FFF0746B9F1000FCF
:1092100011D0FF2D0BD838460AF0CCFF82462946E4
:109220006D1C38F811000AF0C5FF824501D00020FE
:10923000D8E7B94605E04FF6FF70874201D000201D
:10924000D0E7761C0D2EDBD3207800F0400038B13B
:10925000B9F1000F04D038F8150008B10020C1E7BB
:109260000120BFE7CC4E040837B582B01546022D69
:1092700004DCBDF80C10084605B030BDBDF80C008C
:10928000C00ABDF8081000EBD1241F2C01D22046E3
:1092900000E01F20BDF8081060F3CF210291BDF857
:1092A0000C00C0F34510BDF80810C1F34511441877
:1092B0003F2C01D2204600E03F20BDF8081060F3AB
:1092C0004A110291BDF80C0000F01F00BDF8081013
:1092D00001F01F0144181F2C01D2204600E01F207E
:1092E000BDF8081060F304010291FF2D03D1BDF811
:1092F00008100846C0E72A46DDE9020117F0DCFA4B
:109300000190BDF804100846B6E717B581B01446C1
:10931000022C04DCBDF80810084604B010BDBDF8EE
:109320000400C00ABDF80810C90A48434109BDF845
:10933000040061F3CF200190BDF8040000F01F008D
:10934000BDF8081001F01F0148434109BDF80400B1
:1093500061F304000190BDF80400C0F34510BDF8AE
:109360000810C1F3451148438109BDF8040061F3B9
:109370004A100190FF2C03D1BDF804100846CCE739
:109380002246DDE9010117F097FA0090BDF80010C0
:109390000846C2E737B582B01546022D04DCBDF899
:1093A0000C10084605B030BDBDF80C00C00ABDF871
:1093B0000810A0EBD124002C01DD204600E00020A5
:1093C000BDF8081060F3CF210291BDF80C00C0F386
:1093D0004510BDF80810C1F34511441A002C01DDF9
:1093E000204600E00020BDF8081060F34A11029109
:1093F000BDF80C0000F01F00BDF8081001F01F01BF
:10940000441A002C01DD204600E00020BDF80810C1
:1094100060F304010291FF2D03D1BDF80810084646
:10942000C0E72A46DDE9020117F046FA0190BDF8CF
:1094300004100846B6E708B5034600930098484074
:1094400080EA620008BD2DE9F84F804640461BF0D7
:109450006BFC824640461BF006FC0646504621F057
:1094600087FF81462B2E09D1484628F06AFB044627
:1094700000222146484628F071FB3AE00A2E38D1F6
:109480006946504621F0F6FF504621F0ACFE0446F6
:109490000021484622F007FE01280AD1204604EBAD
:1094A000D071BDF90020C2EB610191FBF4F10DB266
:1094B00009E0204604EBD071BDF9002002EB610108
:1094C00091FBF4F10DB2002D00DA0025002748468B
:1094D00028F037FBA84200D0012701222946484640
:1094E00028F03CFB27B100221C2148461BF022FC3F
:1094F00000BFBDE8F88F10B58060C0600023036135
:10950000002110E0002400F1140343F82140002260
:1095100006E000F1380303EBC11343F82200521CAC
:10952000202AF6DB491C0929ECDB10BD014600208E
:1095300000E0401C31F9102041F6FF739A42F8D147
:1095400070472DE9F04706468A463468BAF1000FA5
:109550000AD1D4F81480B8F1000F02D0E069404578
:1095600016D84FF0010813E0514630460CF018FEB3
:109570000746022F02D20120BDE8F087781C08B907
:109580003846F9E7E069B84201D93846F4E7D046F1
:10959000A06908B90020EFE7207804284ED1012205
:1095A000414620460BF050F905460DB1681C08B93C
:1095B0002846E1E701231A4629462046FFF77AF8B4
:1095C0008146B9F1020F01D10120D5E7B9F1010FB0
:1095D00002D14FF0FF30CFE7BAF1000F02D10220E5
:1095E000F0710CE0F079022809D108F10100854200
:1095F00005D0B068A8EB0000B0610320F071F079ED
:10960000022869D00AF10100854207D1F06910B142
:10961000F069401C00E00220F0615DE0F06908B9EB
:109620000120F0612A46514630460AF0E8FE8146A4
:10963000B9F1000F50D10120F0614DE00025D04577
:1096400019D108F10105E069A84200D80225294690
:1096500030460CF0A5FD0746012F01D0781C08B953
:10966000384689E73FB16769022F03D3E069B84202
:1096700000D9B8460025E5B9454600BF6D1CE06934
:10968000A84204D80225454501D9002074E729469F
:1096900030460CF085FD074607B909E0012F01D0DF
:1096A000781C08B9384667E74545E7D1002063E7ED
:1096B00000BF4FF0FF32294620462CF066F9814664
:1096C000B9F1000F08D1BAF1000F05D02A46514672
:1096D00020462CF05AF98146B9F1000F0DD1656191
:1096E000D4E90610801E814202D8A069401EA06104
:1096F000207940F00100207107E0B9F1010F02D19B
:109700004FF0FF3000E001200546284634E7000016
:109710002DE9F34F85B08146069800680290D9F88C
:109720000000D0F80CA0002500BF02A82FF0BEFF5B
:1097300083460BF1010018B9062007B0BDE8F08F91
:10974000BBF5803F05D34FEA1B4228466D1C2AF823
:1097500010201FFA8BF4202C03DB2F2C01D05C2C63
:1097600000D111E0802C06DA214679A0FFF708FB32
:1097700008B10620E1E7FF2D01D30620DDE72846EA
:109780006D1C2AF81040D0E700BF202C01DA042617
:109790000CE0002602E00298401C0290029800783B
:1097A0002F28F8D0029800785C28F4D00299069807
:1097B000016008E0681E3AF81040202C02D02E2CE0
:1097C00000D002E06D1E002DF4D100BF00202AF869
:1097D00015000DB90620B0E7002700E07F1C3AF81D
:1097E00017002028FAD01FB93AF817002E2801D107
:1097F00046F0030600E06D1E25B1681E3AF8100021
:109800002E28F8D10B22202109F140002AF002FA7B
:109810004FF00008CDF810800820039000BF3846B4
:109820007F1C3AF8104004B966E0202C03D02E2C9F
:1098300004D1AF4202D046F00306F0E7DDE90310A1
:10984000884201D2AF4216D103980B2802D146F0CC
:10985000030651E0AF4201D046F00306AF4200D903
:109860004AE02F46082004900B2003904FEA8860BE
:109870004FEA1068D3E7802C0ADB46F00206204648
:109880000AF098FC4FF46A7101900AF059FC044602
:10989000FF2C11DD0398401E0499884204D846F03D
:1098A000030603980490BAE722120498411C04911D
:1098B00009F140010A5418E024B1214627A0FFF71E
:1098C0005FFA18B15F2446F003060EE0412C03DB7B
:1098D0005A2C01DC48F00208612C06DB7A2C04DCEF
:1098E00048F00108A4F1200084B20498411C0491BE
:1098F00009F140010C5492E700BF99F84000E528B7
:1099000002D1052089F840000398082803D14FEAC6
:1099100088604FEA106808F00C000C2803D008F0AB
:109920000300032801D146F0020606F0020048B900
:1099300008F0010008B146F0100608F0040008B174
:1099400046F008064B2000F809600020F5E600000C
:10995000222A3A3C3E3F7C7F000000002B2C3B3DFE
:109960005B5D00002DE9F04704460E4640220021D1
:1099700020462AF04FF985202070C02084F820006E
:1099800040250020804607464FF0010900BFC12254
:1099900028466D1C2254002228466D1C225400BF0C
:1099A000B9F1000F06D036F81700B0F1000901D068
:1099B000781CC7B2601949462DF034FEAD1C05F085
:1099C0001F000028ECD108F1010000F0FF0836F874
:1099D00017000028DBD184F8237008F101006070C3
:1099E000304633F02EFC8246514604F124002DF01F
:1099F00019FEBDE8F087000010B500BF00224FF44B
:109A000000711148F8F7ACFA00BF00F021F800BF70
:109A1000012202210D48F8F7A3FA00BF00F018F860
:109A200000BF002202210948F8F79AFA00BF00F0AF
:109A30000FF800BF012251020348F8F791FA00BF66
:109A400000F006F810BD0000001C0140000C0140B1
:109A500010B5022000F02EFB10BD000000B585B04F
:109A600000BF00BF1948806940F0080017498861AD
:109A70000846806900F00800009000BF00BF00BFEA
:109A800000BF00BF0846806940F08000886108463A
:109A9000806900F08000009000BF00BF00BF02207E
:109AA000019011200290012003900320049001A94D
:109AB0000748F8F7A3F84FF40070019001A9054892
:109AC000F8F79CF800F0BEF805B000BD00100240A9
:109AD000000C0140001C014010B500BF01225102E2
:109AE0000C48F8F73DFA00BFFFF7B2FF00BF0122B4
:109AF00002210948F8F734FA00BFFFF7A9FF00BFB9
:109B0000002202210448F8F72BFA00BFFFF7A0FF5C
:109B100010BD0000001C0140000C014070B505465E
:109B2000002400261DE06006040E00BF0122022171
:109B30001148F8F715FA00BFFFF78AFF4FF40071DC
:109B40000E48F8F7FBF908B1601CC4B200BF002250
:109B500002210948F8F704FA00BFFFF779FF701CEB
:109B6000C6B2082EDFDB15B9FFF7B6FF01E0FFF73D
:109B700043FF204670BD0000000C0140001C014066
:109B800070B50446002525E000BFE00928B1012298
:109B900051021548F8F7E4F905E000224FF400718E
:109BA0001148F8F7DDF900BFFFF752FF00BF0122AF
:109BB00002210E48F8F7D4F900BFFFF749FF00BFB4
:109BC000002202210948F8F7CBF900BF6006040E15
:109BD000681CC5B2082DD7DB00BF01225102024824
:109BE000F8F7BEF900BF70BD001C0140000C014039
:109BF00010B500BF012251021048F8F7B1F900BFBB
:109C000000BF012202210E48F8F7AAF900BFFFF7B2
:109C10001FFF00BF00224FF400710848F8F7A0F9B9
:109C200000BFFFF715FF00BF002202210448F8F72C
:109C300097F900BFFFF70CFF10BD0000001C0140AA
:109C4000000C014010B500BF00224FF400710C4819
:109C5000F8F786F900BFFFF7FBFE00BF01220221E3
:109C60000848F8F77DF900BFFFF7F2FE00BF0122B8
:109C700051020348F8F774F900BFFFF7E9FE10BD81
:109C8000001C0140000C014070B50024002500BFFD
:109C9000012251021648F8F763F900BFFFF7D8FE1A
:109CA00000BF012202211348F8F75AF900BFFFF75D
:109CB000CFFE09E0601CC4B2FA2C03DDFFF7C2FF3F
:109CC000012508E0FFF7C4FE4FF400710848F8F7DB
:109CD00035F90028EED100BF00BF0022022105485F
:109CE000F8F73EF900BFFFF7B3FE284670BD00004D
:109CF000001C0140000C01407CB506460D46344670
:109D00005020005D00F00100A84233D00DB10120C9
:109D100000E000205021095D60F300015020015552
:109D200004F14401684614F00CFCBDF80000616ABF
:109D3000898A084400B2ADF80000BDF80210606ADC
:109D4000C08A084400B2ADF80200BDF80400616AA0
:109D5000898A084400B2ADF80400BDF80610606AB4
:109D6000C08A084400B2ADF806006946304623F0C8
:109D70007EFC00BF7CBD37B582B005461446214647
:109D8000039816F003FC0190BDF80410084605B0D6
:109D900030BD000001460B48007888420FDC0948BE
:109DA0004078884201DB012070470648807888426D
:109DB00005DC0448C078884201DB0120F4E700207C
:109DC000F2E70000D94E04080146104800798842A5
:109DD00019DC0E484079884201DB012070470B48AE
:109DE0008079884205DC0948C079884201DB01207E
:109DF000F4E70648007A884205DC0448407A884245
:109E000001DB0120EAE70020E8E70000D94E040862
:109E10002DE9FF4F8DB005460E461446F07A022814
:109E200003DC012011B0BDE8F08F308932690146B2
:109E30000C901098FBF7CCFD07460FB90020F1E716
:109E4000397D01F01F001CF084F810B14FF00608B6
:109E50000AE0397D01F01F001CF05EF810B14FF0F0
:109E6000050801E04FF00408386A38B100BF00BFB0
:109E7000214628463A6A2DF00CFADEE0B86900283F
:109E800059D021460BA814F01DFB308818B97088F2
:109E9000B0F5807F32D0204614F0E4FB834600BF4B
:109EA000E0886188401A401C00B20890301D71881B
:109EB000CDE90010308803B259460BA8089AFBF789
:109EC000B1F8BDF82C002188084400B2ADF82C0090
:109ED000BDF82E006188084400B2ADF82E00BDF830
:109EE00030002188084400B2ADF83000BDF83200DF
:109EF0006188084400B2ADF8320000BF0BAA09A87F
:109F0000A968FAF799FD8146B9F1000F04D13846E6
:109F100002F005F9012085E7D5F808A009A8A86096
:109F2000CDF80080224631462846BB6917F06EFD09
:109F3000C5F808A081E022460BA8A968FAF77CFDC5
:109F40000A900A9820B9384602F0E9F8012069E73A
:109F50000BA814F087FB09900BA814F083FB00EB0F
:109F6000400003901EF0BEFF8146D5F808A00BA963
:109F700007A814F0A7FA012107A814F0FEFBBDF909
:109F80002C00B4F90010401A0690BDF92E00B4F967
:109F90000210A0EB010BBDF92E00059042E007AACC
:109FA000514602A8FAF748FD0A900A9800B936E02F
:109FB000CDF80090099803B20FFA8BF2069801B21F
:109FC00038461CF0F3FC0490049801280ED0384663
:109FD0001CF00CFC00BF00BF48461EF0FFFF3846D7
:109FE00002F09DF8C5F808A000201BE702A8A860B1
:109FF0004B4607AA31462846CDF8008017F006FDEB
:10A00000BDF81E00401C00B2ADF81E00BDF82200D5
:10A01000401C00B2ADF822000BF1010B00BF059807
:10A02000401C0590BDF9321005988142B7DAC5F899
:10A0300008A048461EF0D2FF00BF384602F06FF875
:10A040000120EFE600BF00BF7047000070B5044676
:10A0500000204FF0E0210861F9F7DEFAE11704EB88
:10A060005171C1F3CF010C4A1180E11704EB51711A
:10A07000CD104FF47A7045434FF0E020006940F076
:10A0800002004FF0E021086108464561006940F098
:10A090000100086170BD00001000002030B50446CA
:10A0A000002504E04FF47A7000F004F86D1CA5421E
:10A0B000F8D330BD70B5034600224FF0E026756935
:10A0C0000D4E368803FB06F44FF0E026B16910E030
:10A0D0004FF0E026B06988420BD0884202D20E1AB7
:10A0E000324402E02E1A0E4432440146A24200D30A
:10A0F00000E0EDE700BF70BD100000202DE9F04149
:10A1000004460E46D4F800800021204600F06EFB85
:10A1100005465DBB002700BF4046A16B2AF074F8DE
:10A12000054605B121E098F80000042805D1E06B50
:10A130000078012121EAD01009E0E06B0078E528E1
:10A1400002D0E06B007808B9012000E0002020B1C7
:10A15000781C0746B04201D107E0002701212046C4
:10A1600000F041F90546002DD6D000BF042D00D1E6
:10A1700007252846BDE8F0812DE9F04704468946C9
:10A1800020462FF043FA10B10120BDE8F087494680
:10A190002046FFF710F80746A7634FF4007200212E
:10A1A00004F13C0029F036FD60894FF40041B1EB29
:10A1B000402F01D8084601E06089400206464FF072
:10A1C000000800E07608B6F5007F05D9304609F0B2
:10A1D00075FFB0F10008F5D0B6F5007F17D932460B
:10A1E0000021404629F016FD760A002500E035449E
:10A1F0006089A84207D97A1960783346414600F051
:10A20000FDFB0028F3D0404609F05FFF10E004F1A9
:10A210003C080126002500E035446089A84207D9A2
:10A220007A1960783346414600F0E8FB0028F3D005
:10A230006089A84201D00120A7E70020A5E72DE909
:10A24000F04F85B0044625680021204600F0CEFA84
:10A2500007461FB1384605B0BDE8F08F28780428BE
:10A260004CD1E86832F0EDFF01903EE0296901F140
:10A27000240012F0E9FE0199884200D035E02869F7
:10A2800090F8230003904FF0400A002002901FE056
:10A290000AF01F0008B90AF1020A296901EB0A0055
:10A2A00012F0D2FE009009F085FF8346EA68029919
:10A2B00032F8110009F07EFF834500D00BE00398CF
:10A2C000401EC0B203900AF1020A0298401C02909C
:10A2D00003980028DCD100BF039828B9E9680298E8
:10A2E00031F8100000B906E000BF0021204600F060
:10A2F000EAF8071EBAD000BF3846ACE74FF0FF09B6
:10A30000CDF810904FF0FF30E06400BF2846A16BFD
:10A3100029F07AFF074607B162E0E06B06780EB9D4
:10A3200004275DE0E06BC07A00F03F0884F8068007
:10A33000E52E05D008F0080040B1B8F10F0F05D0A8
:10A340004FF0FF094FF0FF30E06442E0B8F10F0F2B
:10A3500022D14B20005D00F04000A0BB06F0400081
:10A3600038B1E06B407B049006F0BF06B146206B2D
:10A37000E0644E450CD1E06B417B0498814207D1EB
:10A38000E16BE868FEF724FF10B1A9F1010000E0DD
:10A39000FF2000F0FF091CE0B9F1000F06D1E06BCF
:10A3A0002FF0DCF80499884200D119E04B20005DC1
:10A3B00000F0010040B90B2204F14001E06B29F0EC
:10A3C0000AFC08B90CE004E04FF0FF094FF0FF3041
:10A3D000E0640021204600F006F80746002F95D0E3
:10A3E00000BF384637E72DE9F04104468846276824
:10A3F000206B00F120063878042801D1800601E0A6
:10A400004FF40010B04201D80020A063A06B10B937
:10A410000420BDE8F081C6F3080000284AD1A06BF3
:10A42000401CA063606B38B93889B0EB561F41D827
:10A430000020A0630420ECE77889401E00EA562043
:10A44000002837D12046616B0BF0AAFE0546012D8E
:10A4500001D80220DDE7681C08B90120D9E7F869B6
:10A46000A84221D8B8F1000F03D10020A063042036
:10A47000CFE72046616BFFF764F805460DB907206A
:10A48000C7E7012D01D10220C3E7681C08B90120EC
:10A49000BFE729463846FFF76FFE08B10120B8E74D
:10A4A000E07940F00400E071656329463846FEF724
:10A4B00082FEA0632663C6F3080107F13C0008444E
:10A4C000E0630020A5E72DE9F05F044688460426F6
:10A4D00027684FF0FF0AD3466CE03846A16B29F09D
:10A4E00093FE064606B168E0E06B05780DB90426D8
:10A4F00063E03878042814D1B8F1000F02D0832D1E
:10A5000051D15AE0852D4ED1206BE064204613F0E6
:10A51000CBF8064626B93869007900F03F00A071F3
:10A520004BE0E06BC07A00F03F0984F80690E52D1F
:10A530000AD02E2D08D029F02000082801D10120B2
:10A5400000E00020404502D04FF0FF0A2BE0B9F1B7
:10A550000F0F1CD105F0400038B1E06B90F80DB042
:10A5600005F0BF05AA46206BE06455450BD1E06BB2
:10A57000407B584507D1E16BF8682AF02DFB10B1FC
:10A58000AAF1010000E0FF2000F0FF0A0BE0BAF1A1
:10A59000000F04D1E06B2EF0E1FF584502D04FF0E0
:10A5A000FF30E06409E000212046FFF71CFF06466B
:10A5B00006B102E0A06B00288FD100BF0EB10020D1
:10A5C000A0633046BDE8F09F2DE9F04F99B00446F6
:10A5D00026684B20005D00F0A00018B1062019B0DD
:10A5E000BDE8F08F4FF0000B01E00BF1010BF068BC
:10A5F00030F81B000028F8D13078042866D10BF120
:10A600000E000F21B0FBF1F000F10209494620468F
:10A61000FFF774FD05460DB12846E0E7A9F10100FA
:10A620002022216B02FB1010E064E07900F00400AE
:10A63000002845D0E07920F00400E071204609F0C0
:10A64000C3FE05460DB12846C9E74FF0FF3220464C
:10A65000616B09F0D4FE05460DB12846BFE7A0683E
:10A6600070B32146684612F0FFFF05460DB128463B
:10A67000B5E770894002D4E90431181841F10001AE
:10A68000C4E90401D4E90473316901F138003A46A0
:10A690002CF09AFFD4E90473316901F128003A469D
:10A6A0002CF092FFE07940F00100316981F821003F
:10A6B00068462DF039F805460DB128468FE700BFF2
:10A6C000D6E90310FFF74EF9002088E70C2204F1C9
:10A6D000400115A829F091FA9DF85F0000F00100F3
:10A6E00028B340214B2001554FF0010A0EE053469C
:10A6F00015A904F14000F2680BF016FB2046FFF7A5
:10A700009EFD054605B104E00AF1010ABAF1640FA5
:10A71000EDD300BFBAF1640F01D107205FE7042D2C
:10A7200001D028465BE79DF85F104B2001559DF84E
:10A730005F0000F0020030B10BF10C000D21B0FB06
:10A74000F1F0401C00E00120814649462046FFF719
:10A75000D5FC054675BBA9F10100B0F1000929D06F
:10A76000206BA0EB4911204600F040F805460DBBD8
:10A7700004F140002EF0F2FE149000BF3046A16BB1
:10A7800029F042FD054605B113E009F0FF02E16B37
:10A79000F068149B2BF09CF90120F07000212046FA
:10A7A000FFF721FE054625B9A9F10100B0F1000926
:10A7B000E4D100BFC5B93046A16B29F025FD05469F
:10A7C00095B920220021E06B29F024FA0B2204F134
:10A7D0004001E06B29F011FA4B20005D00F01800F9
:10A7E000E16B08730120F0702846F8E62DE9F0418E
:10A7F00004460D4626683078042801D1800601E021
:10A800004FF40010A84202D905F01F0010B1022039
:10A81000BDE8F0812563A7682FB93078032802DBF3
:10A82000F76A0020E07147B93089B0EB551F01D8B5
:10A830000220EDE7F06AA0631CE070894FEA40282F
:10A8400011E0394620460BF0ABFC0746781C08B9EE
:10A850000120DDE7022F02D3F069B84201D80220BF
:10A86000D6E7A5EB08054545EBD239463046FEF75D
:10A87000A2FCA0636763A06B08B90220C8E7A06BC5
:10A8800000EB5520A063C5F3080106F13C00084425
:10A89000E0630020BCE770B50446002514B1012C2C
:10A8A00007D103E02CF088FA054604E029F0FEFE0B
:10A8B00001E0012500BF00BF0DB1012070BD0020E7
:10A8C000FCE700002DE9F0470646894615465EBBC9
:10A8D000B9F1000F09D0B9F1010F13D0B9F1020F8E
:10A8E00005D0B9F1030F1CD106E000241BE04FF4A2
:10A8F00000702860002416E01E48B0F85800288038
:10A90000002410E01B48416D806DA1FB00700146E2
:10A910004FF4007200233846F5F772FD28600024DA
:10A9200001E0042400BF22E0012E1FD1B9F1000F85
:10A9300009D0B9F1010F11D0B9F1020F05D0B9F169
:10A94000030F10D106E000240FE04FF400702880C0
:10A9500000240AE008202880002406E04FF4C040CC
:10A960002860002401E0042400BF00E00124204608
:10A97000BDE8F0870C0500202DE9F04180460E4629
:10A9800014461D46002715B90420BDE8F081B8F132
:10A99000000F03D0B8F1010F25D113E02A4621465C
:10A9A00030462CF025FA074609E0022F01D02CF0A2
:10A9B00003FA2A46214630462CF01AFA0746002FA1
:10A9C000F3D112E00BE0002000EB44214FF40072C1
:10A9D000304629F0C7FE641C06F500766D1E002D7A
:10A9E000F1D1002701E0012700BF00BF0FB900200F
:10A9F000CBE70120C9E70146002070472DE9F0416F
:10AA000007460E4614461D464FF0000815B90420AF
:10AA1000BDE8F08117B1012F24D112E02A4621466A
:10AA200030462CF00DFA804607E02CF0C5F92A4696
:10AA3000214630462CF004FA8046B8F1000FF4D1DC
:10AA400013E00BE0002000EB44214FF4007230468D
:10AA500029F02AFF641C06F500766D1E002DF1D149
:10AA6000A84602E04FF0010800BF00BFB8F1000F98
:10AA700001D10020CCE70120CAE7F8B506460C4614
:10AA800015460095B4F90630B4F90420B4F9021063
:10AA9000B4F900000FF0D1FA304616F077FCF8BD9B
:10AAA00010B511F01BFD01200FF0DAF910BDF8B55B
:10AAB00005462C461CF07EFA0646206B27F0A0FEC9
:10AAC0003168898B88422CD2606A009094F83C00EF
:10AAD00000F0030020B1012806D002280CD107E0C5
:10AAE0000020ADF8000007E064208DF8020003E0CC
:10AAF00064208DF8030000BF00BF30461CF01EFC30
:10AB00002846009916F0D9FA50B100221C21284697
:10AB10001AF010F90746012F01D03846F8BD00BFE2
:10AB200000BF27F07AFE20630120F7E72DE9F04F00
:10AB30009BB0074689461646BA4617A816F0E3FCAE
:10AB40004FF4A021384621F051FA9DF8691060F3C6
:10AB500082018DF86910304613F0BCFD054600EB0C
:10AB6000D5704FEA60083088404400B2ADF8580014
:10AB70007088404400B2ADF85A000021384621F0F8
:10AB8000E8FB1590494603A820F042F817A80B905F
:10AB90004FF40030109033480490002005900AF1E3
:10ABA0003000FBF711FA044657E02079032800D063
:10ABB0004DE0208BADF85C00208A00B2ADF85E005D
:10ABC0006079FD2801DD159803E060791599484307
:10ABD00000128DF868002568B5F92000E98B08445B
:10ABE0000090B5F92030D5E90512A0681EF02CF9C7
:10ABF0008346B5F92000E98B08440090B5F9203070
:10AC0000D5E90512E0681EF01FF90290608B404400
:10AC100000B2ADF84800149416A80C9003AA1A21AB
:10AC200038461AF087F8029880B21FFA8BF1CDE906
:10AC30000010BDF8480083B216AA17A9484616F0BE
:10AC400044FC03AA1B2138461AF074F800BF2146C1
:10AC50000AF13000FBF7B2F90446002CA5D11BB075
:10AC6000BDE8F08F7C14040870B504460D46002240
:10AC70002946204607F07EFE01222946204607F09D
:10AC800079FE02222946204607F092FC042229463A
:10AC9000204607F08DFC70BD2DE9F74F9EB00C46A5
:10ACA000E078022802DC21B0BDE8F08F1CA82099D2
:10ACB00013F01AFCB4F9200001282EDD94F82200CC
:10ACC000FD282ADB208840B3BDF8700014F8231F4C
:10ACD0004908C1F38001084400B2ADF87000BDF826
:10ACE000720021784908C1F34001084400B2ADF870
:10ACF0007200BDF8740021784908C1F3C001401A00
:10AD000000B2ADF87400BDF8760014F82319C1F351
:10AD10004001401A00B2ADF876001E981CA9826866
:10AD20001AA8F9F789FE00B9BDE7E07B00F0070635
:10AD300016B9A088199001E0E0881990BDF8641058
:10AD40006089814200D100261CA817F0C5FD18902B
:10AD50001C2111A8F5F7B0FDA0788DF85D00BDF8B5
:10AD60006400ADF84C00189860B9208850B94EB90D
:10AD70001CA81190E0788DF85C0011A91E9818F0BD
:10AD80005BFC90E7E078FD2801DBFF2000E0E07845
:10AD900010901CA813F090FC0F901CA813F004FC5A
:10ADA0000E90DDE90E01814201DA0F9800E00E9865
:10ADB0000D90B4F900100D98B1EB600F02DAB4F900
:10ADC000000001E00D98401007461AA813F074FC2B
:10ADD00081464FF0FF300C9000200B90002F01DCDB
:10ADE000189870B148461EF07DF80B9000233AB2D7
:10ADF0001CA905A818F0E8F8002105A817F066FAC4
:10AE00000C90BDF86800ADF80C00BDF86C00ADF812
:10AE100010000B98149003A811901690FF208DF845
:10AE20005C00A01DDDE90E211AF066FC8046B8F139
:10AE3000000F0CD0022E0AD1BDF96810D8F8080016
:10AE400000EB4100BDF97010A0EB41001290189882
:10AE5000A0B3BDF96A502CE028B2ADF80E0028B2BC
:10AE6000ADF812004A4610990B981EF0ACFABDF9E5
:10AE700068100FFA89F32AB20B9817F0DDFC8DF8F1
:10AE800054009DF85400012802D102208DF854008E
:10AE9000012E09D1BDF97210691AD8F8080000EB2B
:10AEA00041000088ADF84C0011A91E9818F0C4FBB1
:10AEB0006D1CBDF96E00A842CEDACCE0FFE700259C
:10AEC0005CE0BDF8720028440FFA80FABDF8760005
:10AED000401B0FFA80FBBDF96A00504504DDBDF947
:10AEE0006E00584500DA48E04A4610990B981EF06B
:10AEF0006AFABDF90C100FFA89F352460B9817F055
:10AF00009BFC8DF854009DF85400012802D10220CA
:10AF10008DF85400BDF96A00504514DCADF80EA060
:10AF2000ADF812A0012E0AD1BDF97210AAEB0101F1
:10AF3000D8F8080000EB41000088ADF84C0011A9DA
:10AF40001E9818F079FBBDF96E00584514DBADF87A
:10AF50000EB0ADF812B0012E0AD1BDF97210ABEBF4
:10AF60000101D8F8080000EB41000088ADF84C0062
:10AF700011A91E9818F060FB00BF6D1CBD42A0DB3C
:10AF8000BDF87000ADF80400BDF87400ADF808001D
:10AF9000BDF87200384400B2ADF80600BDF8760086
:10AFA000C01B00B2ADF80A0001A817F095FC009094
:10AFB0000098B0B9AEB9BDF87200384400B2ADF82F
:10AFC0000E00BDF87600C01B00B2ADF8120010985C
:10AFD0008DF85C000020149011A91E9818F02CFB2D
:10AFE00038E010988DF85C0001208DF85400BDF910
:10AFF0007600A0EB070ABDF97200C51927E000989A
:10B0000070B14A4610990B981EF0DDF9BDF9681031
:10B010000FFA89F32AB20B9817F00EFC8DF8540042
:10B0200028B2ADF80E0028B2ADF81200012E09D1F9
:10B03000BDF97210691AD8F8080000EB41000088C9
:10B04000ADF84C0011A91E9818F0F6FA6D1C554584
:10B05000D5DD00BF00BF0B9810B10B981DF0BEFFEF
:10B060000C98401C28B10C9818F096F805A817F019
:10B070000FFCB8F1000F02D040461AF034FB00BFBD
:10B0800011E62DE9F0478EB007460C4615462069BB
:10B0900010B90EB0BDE8F087A07E022800DCF8E70A
:10B0A00020691BF027FF0646022E55D1002041F6ED
:10B0B000FF71CDE90001029003460DA8D4E9041206
:10B0C00027F096FF284613F0F7FA814600EBD97077
:10B0D000298801EB6000BDF9348008EBD871A0EB42
:10B0E000610000B2ADF82C00BDF82C00BDF83410A2
:10B0F0000844401E00B2ADF83000284613F054FA60
:10B10000814600EBD970698801EB6000BDF936809B
:10B1100008EBD871A0EB610000B2ADF82E00BDF8CD
:10B120002E00BDF836100844401E00B2ADF83200C3
:10B1300003A817F053F860690390208BADF818004E
:10B14000A07E8DF82600002000900BAA03A93846A7
:10B15000236916F08FFCAEE00DA920691BF072FB8D
:10B160008046B8F1010F02D000BF00BF91E707A8E9
:10B1700016F063FCA0788DF82800208BADF8240031
:10B18000E07E8DF82600A07E8DF82700207FE8BBAA
:10B19000284613F091FA824600EBDA70298801EB19
:10B1A00060000D99C1F38A2909EBD971A0EB610008
:10B1B00000B2ADF81400284613F0F6F9824600EB11
:10B1C000DA70698801EB60000D994FEA515909EB7B
:10B1D000D971A0EB610000B2ADF81600BDF8140003
:10B1E0000D99C1F38A210844401E00B2ADF8180041
:10B1F000BDF816000D9900EB5150401E00B2ADF89D
:10B200001A0005AA07A93846236900E002E016F0F3
:10B21000C5FB4FE06888ADF81600BDF816000D9923
:10B2200000EB5150401E00B2ADF81A003BE02888F8
:10B23000ADF81400BDF814000D99C1F38A2108443B
:10B24000401E00B2ADF8180017E005AA07A938465D
:10B25000236916F0A3FBBDF814000D99C1F38A21F0
:10B26000084400B2ADF81400BDF818000D99C1F300
:10B270008A21084400B2ADF81800BDF91400B5F9F0
:10B2800004108842E1DDBDF816000D9900EB515025
:10B2900000B2ADF81600BDF81A000D9900EB515040
:10B2A00000B2ADF81A00BDF91600B5F906108842D3
:10B2B000BDDD00BF00BF00BFEBE62DE9F04F87B05A
:10B2C00083460C46164694F82200022802DC07B09A
:10B2D000BDE8F08F208C00B9F9E794F82300C0F3A3
:10B2E000440000B9F3E794F8230000F0010000B136
:10B2F000EDE7304613F0E0F98146304613F054F99B
:10B300000746B4F90050B94501DA484600E038462E
:10B310008246B5EB6A0F01DD4FEA6A05314605A8A2
:10B3200013F0E2F8BDF9141094F82300400800F07F
:10B33000040010B1B4F9200003E0B4F9200028445F
:10B340004042084400B2ADF81400BDF9181094F85A
:10B350002300400800F0080010B1B4F9200003E019
:10B36000B4F9200028444042081A00B2ADF8180091
:10B37000BDF9161094F82300400800F0020010B147
:10B38000B4F9200003E0B4F9200028444042084406
:10B3900000B2ADF81600BDF91A1094F82300C0F3FE
:10B3A000400010B1B4F9200003E0B4F920002844B3
:10B3B0004042081A00B2ADF81A00208C281A0FFA81
:10B3C00080F8B8F1000F01DA4FF00008A07894F887
:10B3D0002210CDE90210E08BADF804002BB205AAD3
:10B3E00031465846CDF8008000F002F800BF6EE705
:10B3F0002DE9FF4FA3B00D4616461F463298FF2891
:10B4000001DBFF2000E032983290284617F064FA02
:10B410002290229868B967B9309850B93298009054
:10B4200032462946319B239800F0A9FA27B0BDE89F
:10B43000F08F23982946826820A8F9F7FDFA00B911
:10B44000F4E720A813F038F981461C2119A81DF053
:10B45000F4FF48461DF046FD1C904FF0FF30189059
:10B46000002F0ADD00233A46294612A817F0ACFD4A
:10B47000002112A816F02AFF1890012331460CA8CB
:10B48000309A17F0A1FD00210CA816F01FFF0B90B9
:10B4900009A819901E90BDF8C400ADF86C00329850
:10B4A0008DF87C0033988DF87D00B5F900003844A4
:10B4B000B6F90010884203DDB5F90000384401E018
:10B4C000B6F9000000B2ADF81C00B5F90400C01BCD
:10B4D000B6F90410884203DAB5F90400C01B01E094
:10B4E000B6F9040000B2ADF82000B5F90200384406
:10B4F000B6F90210884203DDB5F90200384401E0D4
:10B50000B6F9020000B2ADF81E00B5F90600C01B86
:10B51000B6F90610884203DAB5F90600C01B01E04F
:10B52000B6F9060000B2ADF8220007A813F0C4F87F
:10B530000690B5F90200B6F90210884201DC01203C
:10B5400000E000208246B5F90600B6F906108842F0
:10B5500001DB012000E000208346229800284CD027
:10B56000BDF88000ADF82400BDF88400ADF82800D7
:10B57000BDF9824029E0BAF1000F04D1BDF91E00E7
:10B58000A04200DD20E0BBF1000F04D1BDF9220094
:10B59000A04200DA1DE020B2ADF8260020B2ADF8DE
:10B5A0002A0049461C981DF07FFFBDF980100FFA54
:10B5B00089F322B21C9817F03FF98DF8740019A98D
:10B5C000239818F039F800BF641CBDF98600A0422A
:10B5D000D1DA00BF0CA817F05BF90B9817F0DCFD6F
:10B5E0001898401C28B112A817F052F9189817F0B3
:10B5F000D3FD1C981DF0F2FC18E7B5F90000B6F970
:10B600000010884201DC012000E000200590B5F91F
:10B610000400B6F90410884201DB012000E000209C
:10B62000049001200390059860B1049850B1BAF1DC
:10B63000000F07D0BBF1000F04D00698322801DAC2
:10B640000020039001208DF87400BAF1000F15D08E
:10B65000039898B1BDF81C00ADF82400BDF8200097
:10B66000ADF828006888ADF826007088401E00B24A
:10B67000ADF82A0019A9239817F0DEFFBBF1000FDF
:10B6800015D0039898B1BDF81C00ADF82400BDF8A2
:10B690002000ADF82800F088401C00B2ADF826006C
:10B6A000E888ADF82A0019A9239817F0C5FF059876
:10B6B00098B12888ADF824003088401E00B2ADF85B
:10B6C0002800BDF81E00ADF82600BDF82200ADF838
:10B6D0002A0019A9239817F0AFFF049898B1B088F1
:10B6E000401C00B2ADF82400A888ADF82800BDF8D1
:10B6F0001E00ADF82600BDF82200ADF82A0019A9F9
:10B70000239817F099FF0398F0BBBDF88000ADF8BF
:10B710002400BDF88400ADF82800B5F90200B6F9A0
:10B720000210401AB84201DA384604E0B5F90200C6
:10B73000B6F90210401A00B20290002442E0688874
:10B74000204400B20190E888001B00B20090BDF9CF
:10B7500082100198814205DDBDF986100098814272
:10B7600000DA2EE049461C981DF09EFEBDF924101B
:10B770000FFA89F3019A1C9817F05EF88DF874009F
:10B78000BDF98210019800E020E0814209DC0198B7
:10B79000ADF826000198ADF82A0019A9239817F0F2
:10B7A0004BFFBDF986100098814209DB0098ADF887
:10B7B00026000098ADF82A0019A9239817F03CFF3D
:10B7C00000BF641C02988442B9DBC7E0BDF880006A
:10B7D000ADF82400BDF98410BDF91C00401E814263
:10B7E00002DABDF9840002E0BDF91C00401E00B27F
:10B7F000ADF8280009A812F05FFF8046B8F1000FED
:10B8000048DD059810B9BAF1000F1ED0BDF982408D
:10B8100017E020B2ADF8260020B2ADF82A0041466C
:10B820001C981DF041FEBDF92410434622B21C981D
:10B8300017F002F88DF8740019A9239817F0FCFE90
:10B84000641CBDF91E00A042E3DC059810B9BBF1F1
:10B85000000F1FD0BDF92200441C17E020B2ADF844
:10B86000260020B2ADF82A0041461C981DF01CFEAF
:10B87000BDF92410434622B21C9816F0DDFF8DF866
:10B88000740019A9239817F0D7FE641CBDF986002F
:10B89000A042E3DABDF98010BDF92000401C8142CE
:10B8A00002DDBDF9800002E0BDF92000401C00B2BD
:10B8B000ADF82400BDF88400ADF8280009A812F006
:10B8C000FBFE8046B8F1000F48DD049810B9BAF1CC
:10B8D000000F1ED0BDF9824017E020B2ADF826005F
:10B8E00020B2ADF82A0041461C981DF0DDFDBDF9DF
:10B8F0002410434622B21C9816F09EFF8DF8740067
:10B9000019A9239817F098FE641CBDF91E00A042E7
:10B91000E3DC049810B9BBF1000F1FD0BDF9220081
:10B92000441C17E020B2ADF8260020B2ADF82A0082
:10B9300041461C981DF0B8FDBDF92410434622B2C3
:10B940001C9816F079FF8DF8740019A9239817F048
:10B9500073FE641CBDF98600A042E3DA0CA816F061
:10B9600097FF0B9817F018FC12A816F091FF189883
:10B9700017F012FC1C981DF031FB00BF56E52DE9B5
:10B98000FF4F89B080460C461546DDF858901C21C3
:10B9900068461DF052FD07A80090BDF83000ADF8D4
:10B9A00008008DF81890B4F90200B5F90210884229
:10B9B00001DC012000E000200646B4F90600B5F9DC
:10B9C0000610884201DB012000E000200746B4F9A0
:10B9D0000000B5F90010884201DC012000E00020E1
:10B9E0008246B4F90400B5F90410884201DB012055
:10B9F00000E0002083462088ADF81C00A088ADF848
:10BA000020006088ADF81E006888401E00B2ADF8C6
:10BA100022001EB16946404617F00EFEE888401C21
:10BA200000B2ADF81E00E088ADF822001FB16946F3
:10BA3000404617F001FE2088ADF81C002888401E03
:10BA400000B2ADF8200016B1B5F9020001E0B4F97A
:10BA50000200ADF81E0017B1B5F9060001E0B4F917
:10BA60000600ADF82200BAF1000F03D06946404647
:10BA700017F0E2FDA888401C00B2ADF81C00A088B9
:10BA8000ADF82000BBF1000F03D06946404617F027
:10BA9000D3FD0DB0BDE8F08F2DE9FF4F93B0074601
:10BAA000904699464FF6FF70804502D117B0BDE829
:10BAB000F08F3E46746A208C1290208C484506D048
:10BAC000A4F82090608C20F00400001D60844FF4E6
:10BAD0008021204621F03DF811904FF4802120462E
:10BAE00021F0A7F80546119819F082FA82463846E7
:10BAF0000AF0C5FF8346BBF81600ADF83E00BDF95D
:10BB00003E000AEB050108FB010000B2ADF83E0063
:10BB1000284605EBD071BDF83E20A2EB610109B2C9
:10BB2000ADF83E10BDF83E0050442844401E00B21F
:10BB3000ADF84200706A808AADF83C00706A008BF4
:10BB4000ADF8400001A817F055FB01AA4FF4802181
:10BB5000204621F0A3FB0FAA01A9149817F02EFB91
:10BB600012982084608C20F00400608400BF9DE760
:10BB70002DE9F04F91B007460D46904699464FF695
:10BB8000FF70804502D111B0BDE8F08F1097109F73
:10BB90007C6A208C0F90208C484506D0A4F8209019
:10BBA000608C20F00400001D608407A816F016FBCE
:10BBB00007AA4FF48021204621F095FA4FF4802106
:10BBC000204621F036F8ADF82E0038460AF057FF2F
:10BBD000064606B9D7E7079819F00AFA8246F08AAE
:10BBE000ADF81600BDF91600BDF92E10514408FB42
:10BBF000010000B2ADF81600BDF92E0000EBD071C7
:10BC0000BDF81620A2EB610109B2ADF81610BDF81F
:10BC100016005044BDF82E100844401E00B2ADF886
:10BC20001A00A08AADF81400208BADF8180005AA00
:10BC300003A8A968F8F700FF8346BBF1000F13D0F3
:10BC4000A868029003A8A86030461CF0E7F80190AD
:10BC50000020009006F1140207A92846019B15F068
:10BC600009FF0298A86000BF0F982084608C20F024
:10BC70000400608400BF86E72DE9F04105463548A1
:10BC8000006815F09DFB04462868866BF06A10B1C9
:10BC90003046F16A8847206890B1606880B10CE056
:10BCA0002C4800680068806A38B12A4A1268106817
:10BCB000284A12681268916A884720690028EFD1E3
:10BCC00001202061234800680068C068806900F096
:10BCD000010050B11F4800680068C0688069C0F367
:10BCE000400010B10120606101E0002060616069E6
:10BCF00008B1012000E0002007462868406998B19B
:10BD00002868007CC0F3011048B12868007CC0F3AB
:10BD1000800020B1D6E9001000F01EF804E0D6E95A
:10BD200000212868FCF7A4FC206880B1606870B12D
:10BD30002868007C00F0010000B147B12168A068CC
:10BD4000884202D16068A06001E02068A060BDE880
:10BD5000F0810000500100202DE9F34F83B004462C
:10BD6000884800680568874800680068007CC0F360
:10BD7000400040B1287CC0F3800020B100BF00BF6C
:10BD800005B0BDE8F08F287CC0F3011002280AD16D
:10BD900021462846049A00F004F921462846049AD0
:10BDA000FCF766FCEBE0287CC0F30110012804D00E
:10BDB000287CC0F301100328F4D1002002907148C0
:10BDC000006815F0FDFA8246204612F044FC064653
:10BDD000204612F0CDFB83464FF4A050B0FBF6F0A6
:10BDE00000B2584505DA4FF4A050B0FBF6F000B2AF
:10BDF00000E058460190B4F90280287CC0F301109D
:10BE000001280BD168882188401A401E00B2E080CA
:10BE1000E088801B401C00B2608006E020886080C3
:10BE200060883044401E00B2E08000279EE0ABEB0B
:10BE300007010198814201DD019801E0ABEB0700A9
:10BE40000FFA80F90120CAF8100047BBB34526DB82
:10BE5000B146297CC1F30111032901D1012100E080
:10BE6000002108463146049A00F00FF9287CC0F3FF
:10BE70000110012807D1A4F8008008EB0600401E3D
:10BE800000B2A0803FE02888401EA0EB080000B26E
:10BE9000A080A088801B401C00B2208033E0029864
:10BEA00020B94FF420501DF01DF802900298009028
:10BEB000297CC1F30111032901D1012100E00021F6
:10BEC00008464A463146049B00F0B2F8287CC0F38D
:10BED000011001280AD108EB070000B2208008EB0E
:10BEE00007004844401E00B2A0800CE02888401E95
:10BEF000A0EB0800C01B00B2A080A088A0EB090046
:10BF0000401C00B2208007EB090058450DDBDAF831
:10BF1000180000F0010040B1DAF81800C0F340004A
:10BF200018B10120CAF8140002E00020CAF8140079
:10BF3000029808B9049800E0029802462146284673
:10BF4000FCF796FB04E0A86A10B12846A96A884766
:10BF5000DAF810000028F6D106FB09F1049800EB8E
:10BF60004100049007EB090007B200BF5F45FFF6F0
:10BF70005EAF029810B102981DF030F800BF00BF0C
:10BF8000FEE600005001002018B5048800940C88DB
:10BF9000048014880C801C881480BDF800401C802C
:10BFA00018BD2DE9FC5F05460C461646204612F0EA
:10BFB00052FB8246204612F0DBFA83460AFB0BF066
:10BFC00001900198471E4FF0000811E006EB470072
:10BFD0000088009006EB470006EB480109880180C5
:10BFE00006EB4800BDF8001001807F1E08F1010833
:10BFF0004745EBD8B4F9069068886188401A401E1E
:10C0000000B2E0806888A0EB0900401E00B26080AA
:10C01000B4F9049028882188401A401E00B2A080FC
:10C020002888A0EB0900401E00B22080BDE8FC9FDC
:10C030002DE9F04704461D46089F01FB02F0A0F1E0
:10C04000010C481E00FB02F800231AE008EB030075
:10C050000CB1ACEB000000260FE0A946AD1C07EBCD
:10C06000400AB9F80090AAF800900CB1104400E022
:10C07000801A06F101090FFA89F68E42EDDB581C91
:10C0800003B29342E2DBBDE8F0872DE9F047824638
:10C090000C46154600263BE0002731E0601E801B61
:10C0A0000FFA80F8601EC01B0FFA80F9BAF1000F7A
:10C0B00012D007FB048C05EB4C0308FB049C05EB3A
:10C0C0004C0209FB046C05EB4C0106FB047C05EB00
:10C0D0004C00FFF759FF11E009FB046C05EB4C0322
:10C0E00008FB049C05EB4C0207FB048C05EB4C01A0
:10C0F00006FB047C05EB4C00FFF746FF781C07B2FB
:10C10000601C00EBD071B7EB610FC7DB701C06B28F
:10C1100004EBD471B6EB610FBEDBBDE8F08710B560
:10C12000044620461AF062FB10BD00002DE9F14FD5
:10C130009EB01E9818F0F8FD05462C461E9818F083
:10C140009AFD1D90606A1BF069FE07465020005D55
:10C1500000F0010010B91FB0BDE8F08F0FA817F074
:10C1600049F80FAA4FF4E021284621F097F804F18E
:10C1700044010DA812F0E5F9BDF83400616A898A1E
:10C18000084400B2ADF83400BDF83610606AC08AC9
:10C19000084400B2ADF83600BDF83800616A898AFB
:10C1A000084400B2ADF83800BDF83A10606AC08AA1
:10C1B000084400B2ADF83A000DAA0FA91D9816F078
:10C1C000FDFF4FF4E021284620F008F806464FF422
:10C1D000E021284620F06AFA30440FFA80F84FF444
:10C1E000E021284620F0DBFB30440FFA80F90020E4
:10C1F0000B900C90E16CC8191F490968884782466A
:10C20000E06CC11952460BA81CF089FFBDF8340040
:10C21000404400B2ADF83400BDF83600484400B2E6
:10C22000ADF836004FF0000BD4F824A040F257428E
:10C230005946504620F0C0FB019001980A9002A890
:10C2400015F0CCFF02AA4FF4E021284620F04BFF66
:10C250009DF83F00022805DCBDF81400BDF8281049
:10C26000884207D000200BAB0DAA02A900901D98B0
:10C2700015F000FC00BF6EE7C80200202DE9F04F6A
:10C28000BDB005460E4600BF00BFAB460BF1300007
:10C29000F9F7E8FE10B13DB0BDE8F08F05F11402EA
:10C2A0003BA8B168F8F7C8FB00B9F4E7B0683A906A
:10C2B0003BA8B06035A815F0DDFF35AA4FF4E021AA
:10C2C000284620F077FF27A816F094FF9DF8DC00A1
:10C2D0008DF89F0047F6FF70ADF89C004FF4E02109
:10C2E000284620F05CFD074600EBD7704FEA600956
:10C2F0004FF4E021284620F052FD074600EBD770AE
:10C300004FEA600A314604A81EF082FC24A80A9075
:10C3100016A808904FF4E020119069480590052078
:10C3200006900BF13000F9F74FFE0446C0E00A22F8
:10C3300035A924A81CF0F3FE382227A916A81CF062
:10C34000EEFEE088ADF89000E088ADF85C0039A81A
:10C350000D9038A80E90607B00F0010020B1B4F978
:10C360000070B4F9028010E0A08847F6FF7188429F
:10C3700000D197E0A28801AB2846A16813F0CCFC5D
:10C38000BDF90470BDF9068000BFA88A384407B221
:10C39000E88A40440FFA80F8B9F1000F19D0BAF1D9
:10C3A000000F16D0A7EB090000B2ADF8080007EBAC
:10C3B000090000B2ADF80C00A8EB0A0000B2ADF81D
:10C3C0000A0008EB0A0000B2ADF80E0002A80790C0
:10C3D00001E000200790207B00F0030070B3207B79
:10C3E00000F0010010B1B5F9140000E03846ADF8D6
:10C3F000E400ADF8E680207B00F0020010B1B5F952
:10C40000180000E03846ADF8E000BDF8E600ADF8F1
:10C41000E20004AA1A21284618F08CFC38AB39AA8D
:10C4200024A9304615F00FFF02AA16A9304616F0CF
:10C43000C5FE04AA1B21284618F07CFC207B00F0D6
:10C440000C0070B3ADF8E470207B00F0040010B174
:10C45000B5F9160000E04046ADF8E600BDF8E4008E
:10C46000ADF8E000207B00F0080010B1B5F91A002B
:10C4700000E04046ADF8E20004AA1A21284618F070
:10C4800059FC38AB39AA24A9304615F0DCFE02AAC3
:10C4900016A9304616F092FE04AA1B21284618F071
:10C4A00049FC00BF21460BF13000F9F787FD044637
:10C4B000002C7FF43CAF3A98B06000BFEBE6000080
:10C4C000440F04082DE9F14F9AB01A9818F02CFC8B
:10C4D00004461A9818F0CFFB1990204620F093FCE0
:10C4E000074620461EF0F4FE834607EBD771A28A6A
:10C4F00002EB610109B218910BEBDB714A10E18A82
:10C50000114409B2179107EBD7714E1014A815F01A
:10C51000B1FE14AA0021204620F04CFE4FF41D70FD
:10C520007043552190FBF1F0642190FBF1F000B2D3
:10C53000ADF85200BDF85200801C00B2ADF85200B8
:10C5400000201390002120461FF05FFD05460023C8
:10C5500047F6FF7204F114010DA816F035FD002115
:10C560000DA815F0B3FE0C9000BFA08AADF828000E
:10C57000E08AADF82A00208BADF82C00608BADF876
:10C580002E0000BFBDF82800284400B2ADF82800F6
:10C59000BDF82C00401B00B2ADF82C00BDF82A00FD
:10C5A000284400B2ADF82A00BDF82E00401B00B2AE
:10C5B000ADF82E00012347F6FF720AA904A816F071
:10C5C00003FD002104A815F081FE0390BDF95280FF
:10C5D0004FF0000A4FE051462046FAF74FFF009017
:10C5E000BDF80000ADF850001398C0F30F290FFA02
:10C5F00089F026F00FFC06EB08014843189901EB7F
:10C60000E03000B2ADF804000FFA89F026F0F2FB3A
:10C6100006EB08014843179901EBE03000B2ADF892
:10C6200006000FFA89F026F0F5FB711BA1EB08015B
:10C630004843189901EBE03000B2ADF808000FFA5A
:10C6400089F026F0D7FB711BA1EB0801484317992D
:10C6500001EBE03001B2ADF80A1002AB01AA14A957
:10C66000199815F0F0FD0AF103001FFA80FA1398EB
:10C6700000F587601390BAF5807FACDD0DA816F049
:10C6800007F904A816F004F90C9816F085FD039834
:10C6900016F082FD1BB0BDE8F08F00002DE9F04FD1
:10C6A000A5B004460F46254604F1140123A8BA6834
:10C6B000F8F7C2F92290229810B925B0BDE8F08FA2
:10C6C000B868219023A8B860002120461FF05FFDC4
:10C6D0001E90002120461FF074FF01461E9808445A
:10C6E00000B21D900021204620F0D7F801461E9888
:10C6F000084400B21C9020461EF075FD7E35E98886
:10C700004843001200B21B9020461EF04DFD2989BF
:10C710004843001200B21A9017A815F0ABFD17AAF3
:10C720000021204620F046FD394605A81EF070FA8B
:10C73000002012908C4806900020079017A80B90BC
:10C740004FF0FF30139000200E900F9005AA1A2191
:10C75000204618F0EFFA002001903122204601997E
:10C7600020F02AF90090009800F0FF0B00BF002194
:10C7700020461FF00CFD049000200190332220463B
:10C78000019920F019F90090009800F0FF0800BF0F
:10C7900020461EF093FE039020461EF089FF029073
:10C7A00035F87E09002865D0E18A1C98014402987A
:10C7B000081A00B20190A08AADF88000208BADF875
:10C7C0007C004FF00009B5F87E000FFA80FABBF14B
:10C7D000020F1ADD0498002817DD08F0020040B1AE
:10C7E0000021204620F059F818B909F101000FFA8C
:10C7F00080F908F0010040B1002120461FF004FE3E
:10C8000018B9AAF101000FFA80FA4E462FE01A98E3
:10C810007043B5F87E10491E90FBF1F000B2ADF800
:10C820008200BDF882100198084400B2ADF8820081
:10C83000BDF88200ADF87E004B48069001200790BD
:10C8400020A80E901FA80F90139605AA1A21204623
:10C8500018F070FA1FAB20AA17A9384615F0F3FCA0
:10C8600005AA1B21204618F065FA701C06B2564531
:10C87000CDDB00BFB5F88000002865D0A18A1D98E7
:10C8800001440398081A00B20190E08AADF88200D2
:10C89000608BADF87E004FF00009B5F880000FFA0C
:10C8A00080FABBF1020F1ADD0498002817DD08F0AA
:10C8B000040040B1002120461FF083FE18B909F1A1
:10C8C00001000FFA80F908F0080040B1002120466D
:10C8D0001FF020FF18B9AAF101000FFA80FA4E46A6
:10C8E0002FE01B987043B5F88010491E90FBF1F0C3
:10C8F00000B2ADF88000BDF880100198084400B285
:10C90000ADF88000BDF88000ADF87C0016480690B8
:10C910000220079020A80E901FA80F90139605AA3A
:10C920001A21204618F006FA1FAB20AA17A938468C
:10C9300015F089FC05AA1B21204618F0FBF9701C94
:10C9400006B25645CDDB00BF4FF0FF3013900020FC
:10C950000E900F9005AA1B21204618F0EBF92198A4
:10C96000B86000BFA9E60000440F04082DE9F14FAC
:10C970009AB01A9818F077F907461A9818F0D4F96F
:10C9800005462C46122F7DD11A9818F0CAF9064692
:10C990003078022802D11BB0BDE8F08F94F838003F
:10C9A00000F00300032805D094F8380000F00300DD
:10C9B000022802D101203070EDE794F83800C0F36E
:10C9C0008400042808D094F83800C0F384000128BB
:10C9D00002D001203070DEE74FF0000A46225146B7
:10C9E00028461FF0E9FF19901998C0B2FF2802D01D
:10C9F00001203070CFE70021284620F05BF9814606
:10CA0000208E8144B9F1000F02D001203070C2E7BE
:10CA10000021284620F08FF98046E08E00FB08F0C8
:10CA20004FEA20281A9818F07CF98346B8F5807FE1
:10CA300009D1002205F114015846F8F73EF8E8BB89
:10CA400001203070A7E728461EF042FC82462846A7
:10CA500020F0D9F9179004F132001FFA88F1002371
:10CA60005246CDE9001018A81799F8F7DBFABDF87F
:10CA70006000A98A084400B2ADF86000BDF86210F9
:10CA8000E88A00E01DE0084400B2ADF86200BDF89D
:10CA90006400A98A084400B2ADF86400BDF86610CD
:10CAA000E88A084400B2ADF86600002218A958468A
:10CAB000F8F703F818B9012030706CE700E000BF08
:10CAC00019E2152F01D0182FFAD10021284620F0A5
:10CAD00032F98046E08E00FB08F04FEA2028002162
:10CAE000284620F0E7F88246208E8244284620F02F
:10CAF0008AF9199028461EF0EBFB1890002641F2A7
:10CB00003202314628461FF057FF0E900E9800B2B1
:10CB1000814600BF41F61202314628461FF04CFF05
:10CB20000E900E9848440FFA80FB00BF41F61302A6
:10CB3000314628461FF040FF0E900E98484400B240
:10CB4000179000BF41F61002314628461FF034FF0F
:10CB50000E900E98484400B2169000BF41F61102A4
:10CB6000314628461FF028FF0E900E98484400B228
:10CB70001590608E584400B2ADF85000A18E169802
:10CB8000084400B2ADF8520094F8390000F00300F8
:10CB9000012804D112A928461EF044FB27E014A95D
:10CBA0001FFA88F00FFA8AF3CDE9000112A8DDE937
:10CBB0001821F8F737FABDF84800A98A084400B2EE
:10CBC000ADF84800BDF84A10E88A084400B2ADF854
:10CBD0004A00BDF84C00A98A084400B2ADF84C00E8
:10CBE000BDF84E10E88A084400B2ADF84E0005F1D9
:10CBF000140110A811F093FC12A905F1140011F012
:10CC00008EFCBE481A991EF029FA0F900F98012841
:10CC100000D0C0E610A905F1140011F080FC152F1A
:10CC20007ED1E08D08B1A08D00B9B4E6B8F1000F57
:10CC300000D1B0E61A9818F01EF8064605F1140166
:10CC40000DA811F06CFC28461AF042F80C9094F8EC
:10CC5000390000F0030001283CD1B4F92C10BDF9D3
:10CC60003020891A481C00EBD071BDF83420A2EBAB
:10CC7000610109B2ADF83410B4F92C10BDF93020BF
:10CC8000891A481C00EBD071BDF83820A2EB610175
:10CC900009B2ADF83810B4F92E10BDF93220891A56
:10CCA000481C00EBD071BDF83620A2EB610109B23F
:10CCB000ADF83610B4F92E10BDF93220891A481C8F
:10CCC00000EBD071BDF83A20A2EB610109B2ADF8DA
:10CCD0003A1013E012A811F019FDBDF83410084401
:10CCE000401E00B2ADF8380012A811F087FCBDF864
:10CCF00036100844401E00B2ADF83A00BDF83400CA
:10CD0000584400B2ADF83400BDF836101698084407
:10CD100000B2ADF83600BDF838101798081A00E0D8
:10CD2000E8E000B2ADF83800BDF83A101598081ADE
:10CD300000B2ADF83A0094F8380000F00300012882
:10CD400005D094F8380000F0030000287AD106A836
:10CD500014F073FE06AA0021284620F065F91FFA98
:10CD600088F0ADF81A001FFA8AF0ADF81800608E4E
:10CD7000ADF81C00A18EADF81E1094F83800C00963
:10CD80008DF82C00BDF84800584400B2ADF81000F2
:10CD9000BDF84A101698084400B2ADF81200BDF86C
:10CDA0004C101798081A00B2ADF81400BDF84E10D8
:10CDB0001598081A00B2ADF81600B068039004AADE
:10CDC00004A8B168F7F738FE00B9E4E504A8B0603C
:10CDD000BDF83610608D084400B2ADF80600BDF90C
:10CDE0000600BDF93610884206DDBDF80600E18D6B
:10CDF000401A00B2ADF80600BDF80600E18D084407
:10CE0000401E00B2ADF80A0049E0BDF83400218DA3
:10CE1000084400B2ADF80400BDF90400BDF93410B7
:10CE2000884206DDBDF80400A18D401A00B2ADF8BD
:10CE30000400BDF80400A18D0844401E00B2ADF806
:10CE4000080016E034E001AA06A93046636A14F02F
:10CE5000A5FDBDF80400BDF83010084400B2ADF8DF
:10CE60000400BDF80800BDF83010084400B2ADF869
:10CE70000800BDF90400BDF938108842E3DBBDF8B5
:10CE80000600BDF83210084400B2ADF80600BDF847
:10CE90000A00BDF83210084400B2ADF80A00BDF92E
:10CEA0000600BDF93A108842AFDB0398B06020E07D
:10CEB00094F8380000F00300022811D104A815F0FE
:10CEC0008DF904AA0021284620F00DF900200090D9
:10CED00005F1140204A93046636A14F0CBFD08E0A2
:10CEE00000BF00BF002305F114021946304614F0BC
:10CEF00055FD00BF00BF00BF4DE50000D04D040848
:10CF00002DE9F14FDCB05C9817F00EFF05462C467A
:10CF10005C9817F0B0FE5B9059A928461EF082F984
:10CF20000020CDE9105040F60A02DDE910011FF0A3
:10CF300043FD0F900F9800B258900020CDE910509B
:10CF400040F60B02DDE910011FF036FD0F900F983F
:10CF500000B25790BDF864115898081A00B2ADF8A5
:10CF60006401BDF868115898084400B2ADF8680132
:10CF7000BDF866115798081A00B2ADF86601BDF801
:10CF80006A115798084400B2ADF86A0159A811F027
:10CF9000AFFB834659A811F023FB5690D4E90A1041
:10CFA000A0EB01095698834501DB012000E0002039
:10CFB00080460020559094F85C0000F003000128A2
:10CFC0000BD1A06A002808DAE06A002805DDA16A12
:10CFD000206B884201D101205590002128461FF086
:10CFE00017FB5490002128461FF0BBFB53900021F3
:10CFF00028461FF079FC5290002128461FF02BFA9A
:10D00000519059A904F1340011F077FAA18E549887
:10D01000084400B2A086218F5398081A01B22187D4
:10D02000E18E5298084401B2E186618F5198081A46
:10D0300001B26187B8F1000F13D004F1340011F090
:10D04000CFFA04280DDA569800EBD0714A10E98A1D
:10D050001144891E0AB2E286E08E001D01B261878A
:10D0600015E0B8F1000F12D104F1340011F040FBCB
:10D0700004280CDA58460BEBD071AA8A02EB610146
:10D08000891E09B2A186A08E001D01B2218704F17C
:10D09000340011F02DFB509004F1340011F0A0FA8F
:10D0A0004F90B8F1000F01D0509800E04F988246A1
:10D0B000B8F1000F05D004F13406371DFE484C903E
:10D0C00004E004F13606371DFC484C90A06D401C6E
:10D0D000F8B1A36A216DC91A01FB0AF191FBF9F1BC
:10D0E00008B2A36A616DC91A01FB0AF191FBF9F15B
:10D0F0000AB2131AD4F858C003FB0CF1CB1701EB9A
:10D1000013631B121BB24D934D99014409B24D910B
:10D1100008E0A16A206B401A00FB0AF090FBF9F0CE
:10D1200000B24D90A06C401CE0B1A36A216CC91AFA
:10D1300001FB0AF191FBF9F108B2A36A616CC91A0B
:10D1400001FB0AF191FBF9F10AB2131AD4F848C0B5
:10D1500003FB0CF1CB1701EB136300EB23231BB292
:10D160004E9308E0D4E90901401A00FB0AF090FB55
:10D17000F9F000B24E900020119041F26A42284628
:10D1800011991FF019FC10901098C0B24B90B8F193
:10D19000000F0ED04B9801280BD130463E46074673
:10D1A0004E99494209B24E914D99494209B24D9169
:10D1B00000BFB8F1000F0AD031884E98084400B281
:10D1C000388031884D98084400B230800AE03988B0
:10D1D0004E98081A401C00B2308039884D98081AC1
:10D1E00000B23880559878B3A26A524202FB0AF224
:10D1F00092FBF9F211B2B8F1000F0CD032880A4458
:10D2000010B2B7F90020824201DD30801BE03A887D
:10D210003280388017E03A88521A521C10B2B6F9A0
:10D220000020824201DD388002E032883A8030807E
:10D23000B7F90020B6F900309A4204DAB6F90000D6
:10D240003A883280388000BF559800BB04F1340022
:10D250004C99884701281ADC68465B991DF0D8FC78
:10D260004FF400300D90964801900020029004F198
:10D27000340003906A461A21284617F05BFD6A467F
:10D280001B21284617F056FD5DB0BDE8F08F04F174
:10D29000340149A811F031F93BA815F0ABFF3BAAC6
:10D2A0004FF4003128461FF0F9FF29A85B991DF0C3
:10D2B000AFFC4FF40030369081482A9000202B902C
:10D2C0003BA82D9004F134002C9029AA1A2128465D
:10D2D00017F030FD002011906022284611991FF0B0
:10D2E0006BFB1090109800B228905698834501DA95
:10D2F000584600E056982790DDE92701B1EB600F12
:10D3000002DD279840102890BDF9EC0026904F9937
:10D310005098884201DA509800E04F982790DDE954
:10D320002601B0EB610F02DD279840102690B8F17E
:10D33000000F08D004F1340011F0DAF90146269804
:10D34000B1EB400F0BDCB8F1000F28D104F1340031
:10D3500011F046F901462698B1EB400F1FDD9DF80C
:10D36000EF0011909DF8060110909DF80E010F90AE
:10D3700000208DF8EF008DF806018DF80E0104F104
:10D3800034023BA95B9815F019FF11988DF8EF0056
:10D3900010988DF806010F988DF80E0100BFA98A2C
:10D3A0005498084400B2ADF87800298B5398081AB5
:10D3B00000B2ADF87C00E98A5298084400B2ADF89A
:10D3C0007A00698B5198081A00B2ADF87E000023EC
:10D3D0001EA920A8289A15F0F7FD002120A814F016
:10D3E00075FF1D909DF822011C909DF80E011B9069
:10D3F00000208DF80E018DF8220159A919A811F00D
:10D400007CF8BDF864105498084400B2ADF864008C
:10D41000BDF866105298084400B2ADF86600BDF839
:10D4200068105398081A00B2ADF86800BDF86A1089
:10D430005198081A00B2ADF86A00B8F1000F15D083
:10D4400019A811F0CDF8042810DA569800EBD07125
:10D450004A10E98A1144891E09B2ADF86610BDF878
:10D460006600001D00B2ADF86A0017E0B8F1000FC9
:10D4700014D119A811F03CF904280FDA58460BEB27
:10D48000D071AA8A02EB6101891E09B2ADF864105D
:10D49000BDF86400001D00B2ADF86800BDF9EC20D5
:10D4A000002304F1340113A815F08EFD002113A808
:10D4B00014F00CFF129005E0F1E60108E1E5010827
:10D4C000284D040819AA3BA95B9815F077FE1B9814
:10D4D0008DF80E011C988DF8220100208DF8EF00C8
:10D4E0008DF806018DF8220104F134023BA95B9806
:10D4F00015F064FE13A815F0CBF920A815F0C8F9B3
:10D50000129815F049FE1D9815F046FE29AA1B2118
:10D51000284617F00FFC00BFB6E6F0B591B00546FF
:10D52000284617F001FC0446284617F0A4FB0746DE
:10D53000264603A815F05EFE03AA4FF440312046AC
:10D540001FF0ACFE47F6FF70ADF80C002C20805D9C
:10D5500000F0010038B1204613F09DFD0090BDF8A9
:10D560000000ADF81000214601A809F0A1F901AAB8
:10D5700003A9384615F022FE11B0F0BD2DE9F04F99
:10D58000B3B08146484617F0CFFB80464446484634
:10D5900017F071FB3290002140461EF091FD0546C8
:10D5A00040461FF030FC824640461DF091FE834607
:10D5B000DA4501DB012000E0002006460EB15846A6
:10D5C00000E050463190002794F85C0000F0030022
:10D5D000012806D1A06A002803DAE06A002800DDED
:10D5E0000127002E3CD097B93EB1012D02D1B4F9EC
:10D5F000340009E0B4F9380006E0012D02D1B4F995
:10D60000360001E0B4F93A00ADF8BC0037E0606ADA
:10D61000002812DB3EB1012D02D1B4F9340009E03B
:10D62000B4F9380006E0012D02D1B4F9360001E06A
:10D63000B4F93A00ADF8BC0021E03EB1012D02D0B2
:10D64000B4F9340009E0B4F9380006E0012D02D045
:10D65000B4F9360001E0B4F93A00ADF8BC000EE0D0
:10D660001FB9E08EADF8BE0009E0606A002803DB58
:10D67000E08EADF8BE0002E0608FADF8BE0021A8DC
:10D6800015F0B8FD21AA4FF4403140461FF006FEC8
:10D6900033462FA94046319A27F03FFB2FA904F1CA
:10D6A000680010F045FF0FA832991DF0B1FA4FF451
:10D6B00040301C903C481090002011901D9004F1C7
:10D6C0006800129021A81390404622F0FEFE022826
:10D6D00010D00FAA1A21404617F02CFB04F1680263
:10D6E00021A9329815F06AFD0FAA1B21404617F0B8
:10D6F00021FB55E0382221A901A81BF010FD0FAA3B
:10D700001A21404617F016FB04F1680221A932984D
:10D7100015F054FD0FAA1B21404617F00BFB96B1E4
:10D720003EB1012D02D0B4F9340009E0B4F938005B
:10D7300006E0012D02D0B4F9360001E0B4F93A0058
:10D74000ADF8BC0002E0608FADF8BE0033462FA9F3
:10D750004046319A27F0E1FA2FA904F1600010F059
:10D76000E7FE382201A921A81BF0D9FC0120119065
:10D7700004F16000129021A8139001201D900FAABF
:10D780001A21404617F0D6FA04F1600221A9329816
:10D7900015F014FD0FAA1B21404617F0CBFA00BF6D
:10D7A00033B0BDE8F08F00005C4E04082DE9F0476F
:10D7B00090B00746384617F0B7FA054628461DF0E0
:10D7C000D7FD064608A814F009FD08AA0021304636
:10D7D0001FF089FC384617F04EFA0446D4F808804A
:10D7E00006F1140206A8A168F7F726F910B910B0DF
:10D7F000BDE8F08706A8A06004A9304609F008FD3E
:10D80000A88AADF80800E88AADF80A00288BADF8C0
:10D810000C00BDF81200ADF80E0002AA02A8A16823
:10D82000F7F70AF998B1D4F8089002A8A060284642
:10D830001AF0F4FA82460020534605F1140208A9B2
:10D840000090204614F016F9C4F8089000BFA88A8A
:10D85000ADF80800BDF81600ADF80A00288BADF849
:10D860000C00688BADF80E0002AA02A8A168F7F7B9
:10D87000E3F898B1D4F8089002A8A06028461AF0FE
:10D88000CDFA82460020534605F1140208A9009003
:10D89000204614F0EFF8C4F8089000BFC4F80880E0
:10D8A00000BFA4E72DE9FF4FA1B006461446249817
:10D8B000807B00F00F052298807E1F90032D00D101
:10D8C0000425012D06D0022D0BD0042D10D0082DDB
:10D8D0001DD114E0DFF86C834FF0800A02201E9007
:10D8E0001AE0DFF864834FF0C00A04201E9013E0B2
:10D8F000DFF858834FF0F00A10201E900CE0DFF89C
:10D9000050834FF0FF0A4FF480701E9004E000BF78
:10D9100000BF25B0BDE8F08F00BF1F98FD2823DAB7
:10D92000CC4801781F98814203D1CB480068A842B7
:10D9300013D000200DE018F80010FF2901D11F9925
:10D9400004E018F800101F9A51430912C34A1154F9
:10D95000401C1E998842EED300BFDFF80083BD490A
:10D960001F980870BC4805602498B0F806B0249849
:10D9700000891B900BFB05F01A90B4F90000B16808
:10D98000B1F90010884201DB002005E0B068B0F971
:10D990000000B4F90010401A1990B4F9000058447E
:10D9A000B168B1F90410884201DC584606E0B0685D
:10D9B000B0F90400B4F90010401A401C1890B4F9F2
:10D9C0000200B168B1F90210884201DB002005E0D5
:10D9D000B068B0F90200B4F90210401A1790B4F917
:10D9E00002101B980844B168B1F90610884201DCA6
:10D9F0001B9806E0B068B0F90600B4F90210401AAE
:10DA0000401C16901A9917984843199901FB050074
:10DA100015902E99159801EBD0002E90159800F0D6
:10DA200007071C210DA81BF008FD22988089ADF87E
:10DA30003C002298807E8DF84C002298807FC0F3B5
:10DA4000C2008DF84D00F8F7D3FD019013F0BCFC37
:10DA50000C901B980BFB00F10C98814201DD0C9897
:10DA600002E01B990BFB01F00B900B981BF03AFAAC
:10DA70008146CDF8409000200A90218819980844EA
:10DA800000B2ADF82000218818980844401E00B26A
:10DA9000ADF8240061881798084400B2ADF8220060
:10DAA000BDF82200ADF8260000BFBDF82400BDF887
:10DAB0002010401A401C00B2079000BFBDF82000A3
:10DAC000ADF81400BDF82200ADF81600BDF8240032
:10DAD000ADF81800BDF82600ADF81A0000BFBDF87B
:10DAE00016101698084400B2ADF81A0005A814F0F4
:10DAF000F3FE049008A80D901290C5F10800039061
:10DB000019980BEB00011898081A684302901798AF
:10DB10001C9078E00A9801902AFA07F02090199852
:10DB20001D9028E02E980078209908400399C91B81
:10DB3000C8401490149830B1149818F800100A983E
:10DB400009F8001003E000210A9809F80010039872
:10DB5000874204D22F442098E840209005E0002717
:10DB6000CDF880A02E98401C2E900A98401C0A9058
:10DB70001D98401C1D9018991D988842D2DB04986E
:10DB8000A0B1BDF92620BDF92010019B09EB0300CF
:10DB9000079B14F051FE8DF844009DF8440028B90D
:10DBA000019909EB010007991BF047FCDDE9180119
:10DBB000411A0A9801440B98814206D2BDF826000A
:10DBC000401C00B2ADF8260012E002208DF844009F
:10DBD0000DA9304615F030FDBDF82600401C00B2FE
:10DBE000ADF82200BDF82200ADF8260000200A9012
:10DBF000029807442E9800EBD7002E9007F00707F5
:10DC00001C98401C1C9016991C98884282DBBDF918
:10DC10002200BDF9261088420ED0BDF82600401E15
:10DC200000B2ADF8260002208DF844000DA9304660
:10DC300015F002FD00200A9048461BF0CFF900BF06
:10DC400067E60000900D0408920D04089E0D04087C
:10DC5000AE0D04086001002064010020D49700206C
:10DC60002DE9FF4F8FB00C4615461E46B4F9020051
:10DC7000401E0E900E9840100D900E9800F001017D
:10DC80000D9808440C90B5F90000B6F900108842D0
:10DC900002DAB5F9000001E0B6F90000ADF828009D
:10DCA000B5F90000B6F90010884202DDB5F90000B0
:10DCB00001E0B6F90000401E00B2ADF82C00698802
:10DCC0000C98081A00B2ADF82A0069880D9808442B
:10DCD00000B2ADF82E000F980AA982680AA8F6F7DC
:10DCE000ABFE8246BAF1000F02D113B0BDE8F08F4F
:10DCF000E08818B1A08808B1012000E00020834628
:10DD0000012009900AA814F0E7FD10B10020099045
:10DD100004E0BBF1000F01D0002009901C2102A8F3
:10DD20001BF08BFB0AA802902088ADF81000207A27
:10DD30008DF82000099820B102A90F9815F07CFCFD
:10DD400078E00AA810F0B1FC0746BDF92E0001905A
:10DD5000BDF82A00ADF82E0000200090BBF1000FA6
:10DD60000BD0B4F90600B4F904100844BDF928102A
:10DD700091FBF0F200FB1210009038461BF0B2F855
:10DD80008046CDF814800AA80790BDF92A904AE091
:10DD9000394640461BF088FBBDF928103BB20FFA0C
:10DDA00089F2404614F048FD8DF81800BBF1000FD1
:10DDB00027D09DF8180020B3009800211BE0B4F98B
:10DDC0000420824207DBA3881B1A1AB28B1819B2EF
:10DDD000831818B20BE0B4F90620B4F904301A44E1
:10DDE000824201DC002002E0002208F801204A1CE7
:10DDF00011B2421C10B2B942E1DB02228DF81820A8
:10DE000000BF02A90F9815F017FCBDF82A00401CAE
:10DE100000B2ADF82A00BDF82E00401C00B2ADF8EB
:10DE20002E0009F1010901988145B1DD40461BF042
:10DE3000D5F800BF00BF58E72DE9FF4FC7B08B46AC
:10DE400091469A46B9F90200BAF90210884210DAEE
:10DE5000B9F80200ADF81A01BAF80200ADF81601DF
:10DE6000B9F80000ADF81801BAF80000ADF81401D7
:10DE70000FE0BAF80200ADF81A01B9F80200ADF8E7
:10DE80001601BAF80000ADF81801B9F80000ADF8B5
:10DE90001401BDF91401BDF91811441ABDF9160198
:10DEA000BDF91A11451A002C01DD204600E0604240
:10DEB000002D01DD294600E06942884201DD012094
:10DEC00000E000204490BBF9026000204390449899
:10DED00070B1002D01DD284600E068424101002CB0
:10DEE00001DD204600E0604291FBF0F043900DE040
:10DEF000002C01DD204600E060424101002D01DDE3
:10DF0000284600E0684291FBF0F04390E0494398D6
:10DF1000085C70433F30C611771006F0010000EB3B
:10DF20000708BDF91801BDF91411884202DABDF9DC
:10DF3000180101E0BDF91401801B00B2ADF8040125
:10DF4000BDF91801BDF91411884202DDBDF91801AF
:10DF500001E0BDF91401304400B2ADF80801BDF98B
:10DF60001A01BDF91611884202DABDF91A0101E061
:10DF7000BDF91601801B00B2ADF80601BDF91A010A
:10DF8000BDF91611884202DDBDF91A0101E0BDF9A3
:10DF90001601304400B2ADF80A01479841A98268E1
:10DFA00041A8F6F749FD4090409810B94BB0BDE844
:10DFB000F08F4498F0B3002C24DD0021BDF8160149
:10DFC000C01B00B2CDE90001BDF91431BDF81A0142
:10DFD000C01B02B2BDF9181135A814F077FD01215C
:10DFE000BDF81601404400B2CDE90001BDF914317D
:10DFF000BDF81A01404402B2BDF918112AA814F064
:10E0000065FD4AE00021BDF81601404400B2CDE9AB
:10E010000001BDF91431BDF81A01404402B2BDF946
:10E02000181135A814F052FD0121BDF81601C01BCE
:10E0300000B200E00DE0CDE90001BDF91431BDF8FA
:10E040001A01C01B02B2BDF918112AA814F03EFD36
:10E0500023E00021BDF91601CDE90001BDF814014E
:10E06000404403B2BDF91A21BDF81801404401B281
:10E0700035A814F02BFD0121BDF91601CDE90001F1
:10E08000BDF81401C01B03B2BDF91A21BDF8180177
:10E09000C01B01B22AA814F019FD002135A814F004
:10E0A00015F9139000212AA814F010F912904FF0DE
:10E0B000FF30119010909BF80900C0F3001068BB6E
:10E0C0000321BDF81A01204400B2CDE90001BDF8DA
:10E0D0001801401B03B2BDF91A21BDF918111FA880
:10E0E00014F0F4FC0221BDF81601204400B2CDE981
:10E0F0000001BDF81401401B03B2BDF91621BDF9A2
:10E10000141114A814F0E2FC00211FA814F0DEF88A
:10E110001190002114A814F0D9F8109041A810F023
:10E12000C4FA0F90F8F764FA019013F04DF90D90CE
:10E1300041A810F071FA01460D98814203D241A81E
:10E1400010F06AFA00E00D980C900C981AF0CAFED4
:10E150000B90BDF90A010A90BDF80601ADF80A015D
:10E1600000200990DDE90B011BF09EF91C2102A89B
:10E170001BF063F941A80290BBF80000ADF8100055
:10E180009BF808008DF820000B98059041A8079097
:10E19000BDF906010E9040E0BDF90411099B0B9AF0
:10E1A000D0180F9A13B20E9A12B214F045FB8DF8E4
:10E1B00018009DF8180028B9099A0B9988180F992A
:10E1C0001BF03BF90F990998084409900F99099899
:10E1D00001440C98814206D2BDF80A01401C00B2ED
:10E1E000ADF80A0116E002208DF8180002A9479840
:10E1F00015F022FABDF80A01401C00B2ADF8060184
:10E20000BDF80601ADF80A0100200990DDE90B0117
:10E210001BF04AF90E98401C0E900A990E988842FD
:10E22000BADDBDF90601BDF90A1188420CD0BDF86E
:10E230000A01401E00B2ADF80A0102208DF8180054
:10E2400002A9479815F0F8F90B981AF0C7FE35A8FF
:10E2500014F01EFB2AA814F01BFB1198401C10B1EF
:10E260001FA814F015FB1098401C10B114A814F04E
:10E270000FFB139814F090FF129814F08DFF119873
:10E2800014F08AFF109814F087FF00BF8EE600009C
:10E29000AE0E04082DE9FF4F91B00C4615461E4600
:10E2A000B4F90200401E1090109840100F90109882
:10E2B00000F001010F9808440E9029880E98081A62
:10E2C00000B2ADF8300029880F98084400B2ADF8CC
:10E2D0003400B5F90200B6F90210884202DAB5F945
:10E2E000020001E0B6F90200ADF83200B5F9020013
:10E2F000B6F90210884202DDB5F9020001E0B6F974
:10E300000200401E00B2ADF8360011980CA98268D8
:10E310000CA8F6F791FB8146B9F1000F02D115B0B8
:10E32000BDE8F08FE08818B1A08808B1012000E0B6
:10E330000020824601200B900CA814F0CDFA10B1F9
:10E3400000200B9004E0BAF1000F01D000200B90E8
:10E350001C2104A81BF071F80CA804902088ADF8CB
:10E360001800207A8DF828000B9820B104A9119884
:10E3700015F062F966E00CA810F097F98346BDF934
:10E3800036000390BDF83200ADF8360058461AF05A
:10E39000A9FD0290029807900CA809900020019016
:10E3A000BAF1000F0BD0B4F90600B4F90410084418
:10E3B000BDF9321091FBF0F200FB12100190019FA9
:10E3C000BDF9328037E0594602981BF06DF8BDF96F
:10E3D00030100FFA8BF30FFA88F2029814F02CFA2F
:10E3E0008DF82000BAF1000F13D09DF8200070B115
:10E3F000B4F90400B84202DA00208DF82000B4F924
:10E400000600B4F904100844B84200DC0027781C68
:10E4100007B204A9119815F00FF9BDF83200401C9D
:10E4200000B2ADF83200BDF83600401C00B2ADF8C5
:10E43000360008F1010803988045C4DD02981AF0FF
:10E44000CDFD00BF00BF6AE72DE9FC5F8046404676
:10E4500016F06AFC0746B946D9F8246034464046AF
:10E4600016F009FC0546606A00F114026846A968C6
:10E47000F6F7E2FA8246BAF1000F41D0D5F808B0BB
:10E48000C5F808D094F83C00C0F3401048B3608F42
:10E49000E18E88420CD1628F212329463046FDF758
:10E4A000FBFA628F212329463046FDF761FB24E009
:10E4B000628F202329463046FDF7EEFA628F202333
:10E4C00029463046FDF754FBE28E012329463046AB
:10E4D000FDF7E2FAE28E012329463046FDF748FBBC
:10E4E0000BE0628F202329463046FDF7D5FA628F74
:10E4F000202329463046FDF73BFBC5F808B000BF96
:10E50000BDE8FC9F2DE9F14FD0B0509816F00CFCFF
:10E5100004462546288E10B951B0BDE8F08F5098BA
:10E5200016F0A9FB4F90608C20F00400001D608461
:10E530004DA920461CF076FE0026B246B4F8208095
:10E5400000202084608C20F00400001D608427A837
:10E5500014F050FE1FA813F041FE27AA4FF4A0218B
:10E5600020461EF09BFE1FAA4FF4A02120461EF05D
:10E57000BAFD608C20F004006084A4F820800021A3
:10E5800020461EF0BEF91E90002120461DF070FFAF
:10E590001D90002120461EF048F81C9000212046C6
:10E5A0001EF0ECF81B9009A84F991CF031FB4FF4BA
:10E5B000A0201690D7480A9000200B903DA80D90FF
:10E5C00035A80E9000BF9BE103E00AF101001FFA9D
:10E5D00080FA696A51F82A00CFA1F2F795F900286C
:10E5E000F3D0E96A31F81600F9F73EFC00B181E199
:10E5F0000027E96A31F81600F9F726FC08B147F060
:10E600000107E96A31F81600F9F732FC10B147F05A
:10E61000800716E0A88EB04213D108F0200008B1A0
:10E6200047F0200708F0020008B147F0020708F0A1
:10E63000040008B147F0040708F0080008B147F0EB
:10E640000807A86A00EBC6014BA80FF05FFFBDF8F2
:10E650002C01BDF83411084400B2ADF82C01BDF80E
:10E660002E01BDF83611084400B2ADF82E01BDF8F8
:10E670003001BDF83411084400B2ADF83001BDF8E6
:10E680003201BDF83611084400B2ADF8320157B975
:10E69000382227A93DA81AF042FD20221FA935A83B
:10E6A0001AF03DFD1DE02784608C20F00400001D61
:10E6B00060843DA814F09EFD35A813F08FFD3DAA9F
:10E6C0004FF4A02120461EF0E9FD35AA4FF4A02109
:10E6D00020461EF008FDA4F82080608C20F0040085
:10E6E0006084E96A31F81600F9F7CAFB8346BBF18A
:10E6F000000F06D09DF8F10040F001008DF8F10008
:10E7000005E09DF8F10020F001008DF8F1004BA824
:10E710000C90179609AA1A21204616F00BFB9DF8BB
:10E720001701400800F01000F0B39DF8170120F029
:10E730003E001E308DF81701BDF92C11B4F91420DC
:10E740001C98104481420AD19DF81701400820F01E
:10E7500004009DF8171160F345018DF81711BDF9FC
:10E760003011B4F918201B98101A81420AD19DF873
:10E770001701400820F008009DF8171160F34501CB
:10E780008DF81711BDF92E11B4F916201E981044FA
:10E7900081420CD19DF81701400820F002009DF83D
:10E7A000171160F3450100E014E08DF81711BDF971
:10E7B0003211B4F91A201D98101A81420AD19DF81D
:10E7C0001701400820F001009DF8171160F3450182
:10E7D0008DF817114BA80FF00AFF814607F02000B3
:10E7E00060B1E86A30F8160000F4007030B1BDF88E
:10E7F0002E01A0EB090000B2ADF82E014BAA3DA9F5
:10E800004F9814F0DBFC35980890BDF9E8000790AC
:10E81000BDF9E6000690686A50F82A0005904DA8F8
:10E820000FF06DFF03909DF8F11002460698CDE9B8
:10E830000121009004A8DDE90732059924F0D8FBF6
:10E840004BA80FF05CFFBDF91010401A039000EBCD
:10E85000D070BDF82C1101EB600000B2ADF82C01B6
:10E860004BA80FF0C4FEBDF91210401A039000EB44
:10E87000D070BDF82E1101EB600000B2ADF82E0192
:10E88000BDF82C01BDF81010084400B2ADF83001FD
:10E89000BDF82E01BDF81210084400B2ADF83201E7
:10E8A00007F02000C0B1E86A30F8160000F40070EC
:10E8B00090B1484609EBD071BDF82E21A2EB610161
:10E8C00009B2ADF82E1109EBD071BDF83221A2EBDF
:10E8D000610109B2ADF83211002000904BAA35A9B0
:10E8E000059B4F9813F0C6F809AA1B21204616F085
:10E8F00021FA00BF701C86B20AF101001FFA80FAEB
:10E90000288EB0423FF760AE608C20F00400608437
:10E9100000BF01E6604D04080A0000002DE9F14F38
:10E92000A2B0229816F000FA04462546229816F066
:10E93000A2F92190002120461DF036FC8146264692
:10E94000002741F61202394630461EF035F80A908B
:10E950000A98484400B2209000BF41F6130239469D
:10E9600030461EF029F80A900A98484400B21F90D9
:10E97000002120461DF0DFFF484400B21E9016A87B
:10E9800013F02CFC16AA4FF4003120461EF0ABFB0E
:10E99000A86A10B1D5F828800AE080201AF0A2FAFF
:10E9A000064680223146204615F098FEB04600BF4C
:10E9B0004FF0000A95F83C0000F00F00012800D14C
:10E9C0008246002641F26A42314620461DF0F4FF9D
:10E9D0000A900A98C0B2012800D18246E86A00284D
:10E9E0007ED0E86A18F086FA0A900A98022814D1B4
:10E9F0009DF8750041F6FF72BDF96A10CDE900126D
:10EA00000290BDF96C30169A07A8E96A24F0F0FA72
:10EA1000BDF91C60BDF91E7011E007A9E86A17F086
:10EA200011FF8346BBF1010F05D10798C0F38A2679
:10EA30000798470D02E04FF0FF36374600BFBAF1A6
:10EA4000000F0DD0A18A2098084400B2ADF8200034
:10EA5000BDF820003044401E00B2ADF824000DE0A7
:10EA6000218B1F98081A801B00B2ADF82000BDF85A
:10EA700020003044401E00B2ADF824000A9802285D
:10EA800015D1E18A1E98084400B2ADF82200BDF805
:10EA900022003844401E00B2ADF82600002000904D
:10EAA00008AA16A9EB6A219812F0E4FF40E020467C
:10EAB0001CF00EFCA0EB070B0BEBDB704110E08AA7
:10EAC000084400B2ADF82200BDF822003844401ED0
:10EAD00000B2ADF8260002A812F0AFFF02AA00E0D3
:10EAE00027E04FF4003120461EF09EFA304606EB38
:10EAF000D071491009B2ADF80C10384607EBD0714F
:10EB000049100AB2ADF80E204FF4003B43F60F0255
:10EB1000594620461DF050FF0190019880B2ADF893
:10EB2000080008AA02A9EB6A219812F037FF00BF7B
:10EB300000BF0EA813F052FB0EAA002120461EF0C3
:10EB4000D2FA9DF8550041F6FF72BDF94A10CDE9A1
:10EB500000120290BDF94C3041460DA80E9A24F0E7
:10EB600047FAE18A1E98084400B2ADF82E00BDF8BD
:10EB70002E00BDF83610084400B2ADF83200E86A45
:10EB8000B0B920461EF03FF9BDF93410461A06EB25
:10EB9000D670A18A01EB600000B2ADF82C00BDF880
:10EBA0002C00BDF83410084400B2ADF8300022E06B
:10EBB000BAF1000F11D0218B1F98081ABDF834103C
:10EBC000401A00B2ADF82C00BDF82C00BDF834108E
:10EBD000084400B2ADF830000DE0A18A2098084446
:10EBE00000B2ADF82C00BDF82C00BDF8341008447C
:10EBF00000B2ADF83000002043460BAA0EA90090E9
:10EC0000219812F037FFA86A10B940461AF0E6F9C9
:10EC100023B0BDE8F08F2DE9F14F90B0109816F0B9
:10EC200083F805462C46109816F025F806460EA9DE
:10EC300028461CF083FA002794F84800C0F300101F
:10EC400008B147F0010794F84800C0F3401008B13C
:10EC500047F00207002128461EF0AEF842F2D171BB
:10EC6000884205D1688CC0F3802008B947F00407BA
:10EC700006A813F0B3FAB4F84400ADF82E0046200D
:10EC8000005BADF830008DF8357006AA00212846EB
:10EC90001EF029FA0DA8411E626A03780BB9012300
:10ECA000037000BF284619F0C5F80790284619F0F0
:10ECB000BBF808904FF6FF71079888421ED008985D
:10ECC00088421BD04FF4802B44F2574259462846C5
:10ECD0001DF072FE029002980390BDF80C00ADF892
:10ECE000260000BF2022594628461DF065FE0290EE
:10ECF00002980390BDF80C00ADF8280094F8480085
:10ED000000F00700022805D094F8480000F0070042
:10ED100003281FD19DF83400022803D09DF8340049
:10ED2000032817D141F6FF71BDF92A008DE8830051
:10ED3000BDF92C30069A03A8616A24F059F90EA88F
:10ED40000FF0EBFCBDF90C10884202DA01208DF8BF
:10ED5000340000BF04F1300894F8480000F00700C8
:10ED6000032805D00EA80FF050FCB0F5806F01DA33
:10ED70004FF000080EA904A8B268F5F75DFE8146C1
:10ED8000B9F1000F02D111B0BDE8F08F94F848003E
:10ED900000F0070070B928461CF08AFC8346CBF1CE
:10EDA000000002B200210EA80FF0CFFC688BADF876
:10EDB0003E0000BF94F8480000F00700022805D08C
:10EDC00094F8480000F0070003280ED1D6F808B0E8
:10EDD00004A8B060CDF800800EAA06A93046636A88
:10EDE00012F048FEC6F808B007E0CDF800800EAA81
:10EDF00006A93046636A12F03DFED6F808A004A8C2
:10EE0000B06094F8480000F0070003284FD141F6A5
:10EE1000FF71BDF92A008DE88300BDF92C30069AF8
:10EE200003A8616A24F0E4F80EA80FF076FCBDF99F
:10EE30000C1088421BDA20221146069816F0BDF805
:10EE400000EB4000B4F84410BDF80C201144084415
:10EE500000B2ADF82E004620005BADF83000CDF8D2
:10EE600000800EAA06A93046636A12F003FE0EA8BF
:10EE70000FF0CBFBBDF90E10884217DAB4F844004E
:10EE8000ADF82E00069816F0B7F84621095BBDF8DC
:10EE90000E201144084400B2ADF83000CDF80080D7
:10EEA0000EAA06A93046636A12F0E4FD00BFC6F858
:10EEB00008A000BF67E72DE9F14F9AB01A9815F046
:10EEC000D2FE80461A9815F02FFF0446B8F1150FB0
:10EED00016D11A9815F0CFFE054618A9204608F05D
:10EEE00097F90AA814F086F90AAA4FF4802120465F
:10EEF0001EF0D4F918AA0AA9284614F05FF9C5E053
:10EF0000B8F1180FFBD11A9815F0B5FE054612A8F6
:10EF100013F064F912AA4FF4802120461EF0E3F8A2
:10EF200010A9204608F074F910AA0EA8A968F5F7F0
:10EF300083FD0D900D9800287DD0204607F0ABFD95
:10EF4000814620461DF05FFF8346484618F066FF65
:10EF500002210390BDF95A00CDE901B10090BDF93D
:10EF60005C300CA8129A039924F042F820461CF059
:10EF7000AFF90646304606EBD0714A10B4F91610C8
:10EF80000A44B9F91610891A0B9148461CF0A0F9E9
:10EF90000B99890391FBF0F00B90002120461DF0A6
:10EFA000F0FD0A901299B1F908200A99B1F90810F8
:10EFB000501A00EBD071491009B20991BDF8321016
:10EFC0000998081A00B2ADF83200304606EBD0714D
:10EFD0004A10B4F916105718BDF932000B9948437E
:10EFE00007EBA03709983F1A002120461DF0E9F8E9
:10EFF00082464FF0000B41F61202594620461DF0A2
:10F00000DBFC0390039800B2089000BF41F61302A6
:10F01000594620461DF0D0FC0390039800B207909B
:10F02000A18A08980844504400B2ADF8140038B2E0
:10F03000ADF8160000E028E0218B0798081AA0EB35
:10F040000A0000B2ADF81800BDF81600BDF8321085
:10F05000084400B2ADF81A009DF8650040F00200C7
:10F060008DF86500A86804900EA8A860484618F0BE
:10F07000D5FE834600205B4605AA12A900902846CB
:10F0800012F0F8FC0498A86000BF00BF1BB0BDE8F8
:10F09000F08F2DE9F14FA8B0289815F045FE0446F1
:10F0A0002546289815F0E7FD2790002120461DF001
:10F0B000E3FA2690002120461DF087FB25900021D1
:10F0C00020461DF052FC2490002120461DF0F7F947
:10F0D000239000BFA08AADF88400E08AADF88600D6
:10F0E000208BADF88800608BADF88A0000BFBDF8BA
:10F0F00084102698084400B2ADF88400BDF888104A
:10F100002598081A00B2ADF88800BDF8861024983A
:10F11000084400B2ADF88600BDF88A102398081A9A
:10F1200000B2ADF88A0013A814F064F813AA4FF4E3
:10F13000003120461EF0B2F821AA13A9279814F036
:10F140003DF8002620461CF0C3F8074600BF208B80
:10F15000A18A401A401CC01B0FFA80F8686A401C44
:10F1600040B1696A01FB08F0C11700EB1161091297
:10F170000EB20CE020461CF00FFF00F0010BBBF1BB
:10F18000000F01D0404600E00020064600BF4FF0CF
:10F19000000B41F26A42594620461DF00DFC0090DA
:10F1A0000098C0B2012802D1A8EB060006B2A08ADE
:10F1B000304400B2ADF84400BDF84400384400B219
:10F1C000ADF84800E08AADF84600608BADF84A0023
:10F1D0004FF4403120461DF04FFA81464FF4403144
:10F1E00020461DF0F2FA82464FF4403120461DF0D1
:10F1F000BCFB10904FF4403120461DF060F90F9099
:10F20000BDF84400A0EB090000B2ADF84400BDF821
:10F210004800504400B2ADF84800BDF846101098C0
:10F22000081A00B2ADF84600BDF84A100F9808441D
:10F2300000B2ADF84A0001A813F0DCFF01AA4FF4B8
:10F24000403120461EF02AF811AA01A9279813F090
:10F25000B5FF29B0BDE8F08F2DE9F14FE0B060981F
:10F2600015F062FD04462546609815F004FD8146C0
:10F2700004F114015EA8D9F80820F5F7DDFB10B9F8
:10F2800061B0BDE8F08FD9F808005D905EA8C9F8BC
:10F2900008004FF0000841F23202414620461DF0BE
:10F2A0008BFB0C900C9800B25690002120461DF06C
:10F2B00069FB5590002120461DF00EF95490002165
:10F2C00020461DF0E6F95390002120461DF08AFAF1
:10F2D00052904FF4A02120461DF0DBF951904FF4DD
:10F2E000A02120461DF07EFA50904FF4A021204628
:10F2F0001DF048FB4F904FF4A02120461DF0ECF884
:10F300004E90208C4D9000202084608C20F00400D2
:10F31000001D60843FA813F06DFF3FAA4FF4A021A9
:10F3200020461DF0BBFF29A812F058FF29AA4FF470
:10F33000A02120461DF0D7FE4D982084608C20F03F
:10F3400004006084002720461CF0C6F90146E28ACA
:10F3500055981044401E411A5698084400B2ADF822
:10F360006E0120461CF0AEF92090002120461CF0D2
:10F37000B4FE012800D100E000201F9049460DA8EE
:10F380001BF046FC4FF4A0201A90FE480E9000207F
:10F390000F9031A8119021A812904FF0000B33E28A
:10F3A000E86A30F91B000C90BDF86E01401C00B2F9
:10F3B000ADF86A01BDF86A110C980844401E00B20D
:10F3C000ADF86E01BDF96A01BDF97E11884200DD1C
:10F3D0001EE21F9858B1218B5298081A401E20999E
:10F3E000411A5698081A00B2ADF868010AE0A18ADD
:10F3F00053980844401E2099411A5698084400B278
:10F40000ADF86C010026F7E100200B90A86A50F8D7
:10F41000270020B1A86A50F8270000780B901F98A9
:10F4200080B1BDF86801401E00B2ADF86C01286BD8
:10F4300030F81600BDF86C11081A401C00B2ADF887
:10F4400068010FE0BDF86C01401C00B2ADF8680126
:10F45000286B30F81600BDF868110844401E00B251
:10F46000ADF86C014FF0000800BF34E007EB080175
:10F47000A86A50F8210048B307EB0802A96A51F8BE
:10F48000220008B101780B910B9901F00101D9B16B
:10F490001F9961B106EB0801491C2A6B32F8111063
:10F4A000BDF86821511A09B2ADF868110DE006EBFC
:10F4B0000801491C2A6B32F81110BDF86C21114467
:10F4C00009B2ADF86C1100E00BE000E009E008F1D2
:10F4D00001001FFA80F808EB0601A88C401E81424B
:10F4E000C4DB00BFBDF96E01BDF97A11884207DAAD
:10F4F00008F10100384487B206EB080086B279E1D2
:10F5000000BFBDF86801ADF82400BDF86A01ADF890
:10F510002600BDF86C01ADF82800BDF86E01ADF80D
:10F520002A0000BF9DF81F01400800F0040090B1C0
:10F53000BDF92410B4F914205398104481420ADD17
:10F54000BDF91C0100EBD071BDF82420A2EB6101D4
:10F5500009B2ADF824109DF81F01400800F0020028
:10F5600090B1BDF92610B4F9162055981044814287
:10F570000ADDBDF91C0100EBD071BDF82620A2EB1D
:10F58000610109B2ADF826109DF81F01400800F096
:10F590000800B8B1BDF92810B4F918205298101A13
:10F5A000401E81420EDABDF91C0100EBD07182B21F
:10F5B00002F0010202EB6101BDF82820114409B2FA
:10F5C000ADF828109DF81F01C0F34000B8B1BDF997
:10F5D0002A10B4F91A205498101A401E81420EDAEB
:10F5E000BDF91C0100EBD07182B202F0010202EB06
:10F5F0006101BDF82A20114409B2ADF82A104FF07C
:10F60000000AE88E584523D1A88EB04220D194F844
:10F61000200000F0400030B994F8200000F02000F5
:10F6200008B14AF0200A94F8200000F0020008B166
:10F630004AF0020A94F8200000F0040008B14AF0F1
:10F64000040A94F8200000F0080008B14AF0080A03
:10F65000BAF1000F0AD138223FA931A819F05FFD95
:10F66000202229A921A819F05AFD1EE0A4F820A003
:10F67000608C20F00400001D608431A813F0BAFDF6
:10F6800021A812F0ABFD31AA4FF4A02120461DF0B5
:10F6900005FE21AA4FF4A02120461DF024FD4D981F
:10F6A0002084608C20F00400608409A81090A88C4D
:10F6B0000BFB00601B900DAA1A21204615F03AFBA7
:10F6C00009AA31A9484613F079FDA86A50F8270025
:10F6D00000287DD0BDF868115198084400B2ADF8FB
:10F6E0006001BDF86C115098081A00B2ADF86401C1
:10F6F000BDF86A114F98084400B2ADF86201BDF838
:10F700006E114E98081A00B2ADF866010B98C0F35E
:10F7100040000890089810B10220579001E00020A6
:10F72000579000BFBDF86401BDF86011401A401C3D
:10F7300000B20490BDF9962004995798CDE90021B4
:10F740000290A86A50F82700411CBDF998305CA8C7
:10F75000299A23F04DFC089818BB0C9901EBD17243
:10F76000BDF86A3103EB6202BDF9720100EBD073A0
:10F77000A2EB630212B2ADF862210C9901EBD172D7
:10F7800002E00000944E0408BDF86A3103EB620207
:10F79000BDF9720100EBD07302EB630212B2ADF857
:10F7A00066215AAA5EA906A8F5F746F905900598BC
:10F7B00090B106A8C9F8080000200090A86A50F887
:10F7C0002700431C58AA21A9484612F053F900E02B
:10F7D00003E05EA8C9F8080000BF0DAA1B2120465F
:10F7E00015F0A8FA08F10100384487B206EB0800CA
:10F7F00086B200BF701C86B2A88CB0423FF704AE40
:10F800000BF101001FFA80FBE88C58453FF7C8ADAB
:10F8100000BF5D98C9F8080000BF31E52DE9F04F41
:10F82000A3B0074689461646229730460EF052FF8F
:10F83000054600EBD5704FEA60083088404400B2BE
:10F84000ADF884007088404400B2ADF886001EA870
:10F8500012F010FD1EAA4FF4A02138461DF0AAFC9C
:10F8600018A812F0EAF818AA4FF4A02138461DF0A3
:10F87000DBFB002138461CF06CFD1790494605A8BB
:10F880001BF0C6F97048069021A80E9022983030DF
:10F89000F6F79AFB0446D1E02568169420790128F2
:10F8A0005CD1B5F92000E98B08440090B5F920300F
:10F8B000D5E90512E06819F0C7FA8246A88B00EB7B
:10F8C0000801608A08440FFA80FB0FFA8AF023F0DF
:10F8D000A1FA00FB0BF047F6FF7190FBF1F0BDF8C9
:10F8E0008610084400B2ADF812000FFA8AF023F037
:10F8F00089FA00FB0BF047F6FF7190FBF1F0BDF8C1
:10F900008410084400B2ADF81000A08AADF8780069
:10F91000208A00B2ADF87A006079FD2801DD1798E1
:10F9200003E060791799484300128DF880000120A8
:10F9300013901EA80B9004A80F9005AA1A21384610
:10F9400015F0F8F904AB21AA1EA9484612F07BFC79
:10F9500005AA1B21384615F0EDF968E0207900284A
:10F9600065D1206900B963E0B5F92000E98B08444E
:10F970000090B5F92030D5E90512E06819F064FA75
:10F98000824604A9206916F05DFFBDF88410A08AA4
:10F99000081A00B2ADF80800BDF88610E08A081A0F
:10F9A00000B2ADF80A00BDF808000499C1F38A213D
:10F9B0000844401E00B2ADF80C00BDF80A000499DE
:10F9C00000EB5150401E00B2ADF80E006079FD28EA
:10F9D00001DD179803E060791799484300128DF80C
:10F9E0006B00A08AADF86400E18A18A8C1800AEB18
:10F9F0008A004FEA400ABAF5616F01DDAAF5616A33
:10FA00001FFA8AF0ADF8600018A80C9005AA1A2118
:10FA1000384615F08FF902AA18A94846236911F053
:10FA2000BDFF05AA1B21384615F084F900BF00BFB1
:10FA3000214622983030F6F7C1FA0446002C7FF4B4
:10FA40002BAF23B0BDE8F08F7C1404082DE9F74FED
:10FA50008AB00C46904694F82A00022802DC0DB0C9
:10FA6000BDE8F08FE08C00B9F9E794F82A90B9F17D
:10FA7000FD0F01DD4FF0FF09414608A80EF034FDEF
:10FA8000208D401E05B2BDF82000401B00B2ADF82D
:10FA90002000BDF82200401B00B2ADF82200BDF8E6
:10FAA0002400284400B2ADF82400BDF82600284404
:10FAB00000B2ADF8260008A906A80EF015FDBDF8A5
:10FAC0001800E18C401A00B2ADF81800BDF81C0017
:10FAD000E18C084400B2ADF81C00BDF81A00E18CBE
:10FAE000401A00B2ADF81A00BDF81E00E18C0844BF
:10FAF00000B2ADF81E0008A80EF0DEFD824608A890
:10FB00000EF052FD0746B4F90060BA4501DA5046DE
:10FB100000E038468346B6EB6B0F01DD4FEA6B061B
:10FB2000E08C304400B20590A07894F82A10CDE91A
:10FB30000210A08CADF8040030B2009008AA06A90B
:10FB4000059B0A98FBF754FC00BF88E7F8B505460B
:10FB5000284615F0E9F80646284615F0E2F804466E
:10FB6000606BB0F5A02F54D1A06B072806D20020FF
:10FB70002169C870216981F8220014E0208F81B2C8
:10FB8000202230460FF076FC68B100202169C87051
:10FB9000216981F8220012201FF042FA0090BDF87E
:10FBA000001060698181208F81B24FF4004230469D
:10FBB0000FF060FC98B166202169C870304622F0D1
:10FBC000FFFD0090BDF800102069818030460FF0E5
:10FBD0004BFCA16B884202D1B2202169C870208FF2
:10FBE00081B24FF4804230460FF044FC88B1FF20D0
:10FBF000216981F82200304622F0E2FD0090BDF834
:10FC000000102069C1832069008C401C00B221696A
:10FC10000884F8BD2DE9F04F8BB08146484615F0B9
:10FC200083F805462C46484615F025F88346606A59
:10FC300018F0F4F882469AF8000000283ED1A06A35
:10FC400000283BD0A06A0078C0B303A812F0C6FA1F
:10FC500003AA4FF4002128461DF045FA94F85C00F1
:10FC6000C0F3C00028B19DF8290040F002008DF8D3
:10FC70002900002128461CF019FD074600212846CE
:10FC80001CF08DFE8046002128461CF0A7FA06468F
:10FC900005F1140101A80EF054FC08EB060002B2B5
:10FCA000B81901B201A80EF050FD0020009001AA81
:10FCB00003A95846A36A11F0DDFE00BF0BB0BDE8F2
:10FCC000F08F7CB50446A06985686089002856D10C
:10FCD000A089002853D1E088218988424FDAE18841
:10FCE00008B223F097F8B4F90410B4F90E20891A79
:10FCF00048432168498801EBE03000B2ADF80200CA
:10FD0000E1885A3108B223F085F8B4F90410484369
:10FD10002168098801EBE03000B2ADF804002189C8
:10FD200008B223F077F8B4F90410484321684988F1
:10FD300001EBE03000B2ADF8060021895A3108B27B
:10FD400023F068F8B4F90410B4F90E20891A484376
:10FD50002168098801EBE03000B2ADF800002A46C6
:10FD600069466846F4F768FE06463EB1A169C1F8E7
:10FD700008D06A462169A06913F020FAC2E06089C0
:10FD800010B1A08900287BD16089D0BB2068008891
:10FD9000ADF8000020684088A188084400B2ADF8A2
:10FDA0000600E18808B223F035F8B4F90410B4F97C
:10FDB0000E20891A48432168498801EBE03000B2DF
:10FDC000ADF80200E1885A3108B223F023F8B4F903
:10FDD000041048432168098801EBE03000B2ADF817
:10FDE00004002A4669466846F4F726FE06463EB1F8
:10FDF000A169C1F808D06A462169A06913F0DEF94B
:10FE000000BFA08900287DD120680088A18808440F
:10FE100000B2ADF8040020684088ADF802002189E6
:10FE200008B222F0F7FFB4F904104843216849886A
:10FE300001EBE03000B2ADF8060021895A3108B27A
:10FE400022F0E8FFB4F90410B4F90E20891A4843EF
:10FE50002168098801EBE03000B2ADF800002A46C5
:10FE600069466846F4F7E8FD06463EB1A169C1F867
:10FE700008D06A462169A06913F0A0F942E0FFE7C3
:10FE80006089A189884205D1608918B12089E188FB
:10FE9000884211DB6089022802D1A08901280BD099
:10FEA0006089032802D1A089022805D0608903282F
:10FEB00028D1A089012825D120680088ADF800004C
:10FEC00020684088ADF8020020680088A1880844B6
:10FED00000B2ADF8040020684088A188084400B250
:10FEE000ADF806002A4669466846F4F7A5FD0646C1
:10FEF0003EB1A169C1F808D06A462169A06913F032
:10FF00005DF900BFA06985607CBD7CB50446A06931
:10FF100085686089012856D1A089012853D1E088DD
:10FF2000218988424FDAE18808B222F073FFB4F9E0
:10FF3000041048432168498801EBE03000B2ADF875
:10FF40000600E1885A3108B222F064FFB4F90410C7
:10FF5000B4F90E20891A48432168098801EBE03082
:10FF600000B2ADF80400218908B222F053FFB4F9C1
:10FF70000410B4F90E20891A48432168498801EB1E
:10FF8000E03000B2ADF8020021895A3108B222F007
:10FF900041FFB4F9041048432168098801EBE030BF
:10FFA00000B2ADF800002A4669466846F4F744FD01
:10FFB00006463EB1A169C1F808D06A462169A06928
:10FFC00013F0FCF8C7E06089012802D0A08901285D
:10FFD0007ED1608901283AD120680088A188401A22
:10FFE00000B2ADF8000020684088ADF80200E1885A
:10FFF00008B222F00FFFB4F9041048432168498881
:020000040801F1
:1000000001EBE03000B2ADF80600E1885A3108B2E9
:1000100022F000FFB4F90410B4F90E20891A484305
:100020002168098801EBE03000B2ADF804002A46EF
:1000300069466846F4F700FD06463EB1A169C1F87D
:1000400008D06A462169A06913F0B8F800BFA089FA
:100050000128B7D120680088401E00B2ADF8040026
:1000600020684088A188084400B2ADF806002189C4
:1000700008B222F0CFFEB4F90410B4F90E20891AA8
:1000800048432168498801EBE03000B2ADF8020036
:1000900021895A3108B222F0BDFEB4F90410484358
:1000A0002168098801EBE03000B2ADF800002A4673
:1000B00069466846F4F7C0FC06463EB1A169C1F83E
:1000C00008D06A462169A06913F078F843E0FFE799
:1000D0006089A189884206D16089012803D02089DE
:1000E000E18888420FDB608910B9A08902280AD014
:1000F000608910B9A089032805D0608903282AD116
:10010000A089022827D120680088A188401A00B25F
:10011000ADF8000020684088ADF802002068008833
:10012000401E00B2ADF8040020684088A188084451
:1001300000B2ADF806002A4669466846F4F77CFC32
:1001400006463EB1A169C1F808D06A462169A06996
:1001500013F034F800BFA06985607CBD7CB504460F
:10016000A06985686089022856D1A089022853D1E8
:10017000E088218988424FDAE1885A3108B222F0BA
:1001800049FEB4F9041048432168098801EBE030C6
:1001900000B2ADF80000E18808B222F03BFEB4F9ED
:1001A0000410B4F90E20891A48432168498801EBEC
:1001B000E03000B2ADF80600218908B222F02AFE34
:1001C000B4F9041048432168498801EBE03000B2DB
:1001D000ADF8020021895A3108B222F01BFEB4F9B1
:1001E0000410B4F90E20891A48432168098801EBEC
:1001F000E03000B2ADF804002A4669466846F4F7DC
:100200001BFC06463EB1A169C1F808D06A462169C7
:10021000A06912F0D3FFCCE06089022802D0A08947
:1002200002287DD1608902283CD120680088401EC8
:1002300000B2ADF8040020684088A188401A00B2DE
:10024000ADF80200E1885A3108B222F0E3FDB4F9BA
:10025000041048432168098801EBE03000B2ADF892
:100260000000E18808B222F0D5FDB4F90410B4F919
:100270000E20891A48432168498801EBE03000B21A
:10028000ADF806002A4669466846F4F7D5FB0646EF
:100290003EB1A169C1F808D06A462169A06912F08F
:1002A0008DFF00BFA0890228B5D120680088A188F1
:1002B000401A00B2ADF8000020684088401E00B22D
:1002C000ADF8060021895A3108B222F0A3FDB4F935
:1002D0000410B4F90E20891A48432168098801EBFB
:1002E000E03000B2ADF80400218908B222F092FD9E
:1002F000B4F9041048432168498801EBE03000B2AA
:10030000ADF802002A4669466846F4F795FB0646B2
:100310004EB1A169C1F808D06A462169A06900E020
:1003200002E012F04BFF44E06089A189884206D1C7
:100330006089022803D02089E18888420FDB608928
:1003400010B9A08903280AD06089012802D1A089A8
:10035000032804D0608901282BD1A08948BB2068DC
:100360000088A188401A00B2ADF8000020684088DB
:10037000A188401A00B2ADF8020020680088401E33
:1003800000B2ADF8040020684088401E00B2ADF80D
:1003900006002A4669466846F4F74EFB06463EB11B
:1003A000A169C1F808D06A462169A06912F006FF68
:1003B00000BFA06985607CBD7CB50446A0698568E6
:1003C0006089032856D1A089032853D1E088218968
:1003D00088424FDAE1885A3108B222F01BFDB4F9A5
:1003E0000410B4F90E20891A48432168098801EBEA
:1003F000E03000B2ADF80000E18808B222F00AFD5A
:10040000B4F9041048432168498801EBE03000B298
:10041000ADF8020021895A3108B222F0FBFCB4F990
:10042000041048432168098801EBE03000B2ADF8C0
:100430000400218908B222F0EDFCB4F90410B4F9EB
:100440000E20891A48432168498801EBE03000B248
:10045000ADF806002A4669466846F4F7EDFA064606
:100460003EB1A169C1F808D06A462169A06912F0BD
:10047000A5FEC7E06089032802D0A08903287ED1A9
:10048000608903283CD120680088A188084400B214
:10049000ADF8040020684088401E00B2ADF80600A8
:1004A000E1885A3108B222F0B5FCB4F90410B4F96D
:1004B0000E20891A48432168098801EBE03000B218
:1004C000ADF80000E18808B222F0A4FCB4F90410F1
:1004D00048432168498801EBE03000B2ADF80200E2
:1004E0002A4669466846F4F7A7FA06463EB1A1696E
:1004F000C1F808D06A462169A06912F05FFE00BF0A
:10050000A08903287ED120680088ADF8000020680B
:100510004088A188401A00B2ADF8020021895A3102
:1005200008B222F077FCB4F9041048432168098826
:1005300001EBE03000B2ADF80400218908B222F0EE
:1005400069FCB4F90410B4F90E20891A48432168F3
:10055000498801EBE03000B2ADF806002A46694652
:100560006846F4F769FA06463EB1A169C1F808D0B9
:100570006A462169A06912F021FE43E0FFE7608925
:10058000A189884206D16089032803D02089E188A7
:1005900088420FDB6089022801D1A08950B16089AF
:1005A000012801D1A08928B1608902282AD1A08917
:1005B000012827D120680088ADF800002068408815
:1005C000A188401A00B2ADF8020020680088A18816
:1005D000084400B2ADF8040020684088401E00B214
:1005E000ADF806002A4669466846F4F725FA06463D
:1005F0003EB1A169C1F808D06A462169A06912F02C
:10060000DDFD00BFA06985607CBD000070B5A4B0B1
:1006100006460D4620AA22A930461BF067F822A8FC
:100620000DF0FAFF28B920A80DF0F6FF08B924B0A4
:1006300070BD12A9304626F00FFB0446012C00D0F5
:10064000F5E7294668461AF0E3FA1B4801900220B4
:10065000029012A804904FF480300D9022A80DF063
:10066000DBFF80B122A803906A461A21304614F0BD
:1006700061FB22AA12A9284612F0A0FD6A461B219E
:10068000304614F057FB20A80DF0C6FF90B120A80B
:1006900003906A461A21304614F04CFB20A80390C0
:1006A00020AA12A9284612F089FD6A461B2130466D
:1006B00014F040FB00BFBAE76C0D04082DE9F04FC1
:1006C000B1B005460F4605F114012FA8BA68F4F73A
:1006D000B3F910B931B0BDE8F08FB8682E902FA8EB
:1006E000B8602C46002128461BF06BFF2B900021A0
:1006F00028461CF0D2F82A9028461AF074FDB4F867
:100700008410484300120FFA80FA28461AF04CFD74
:10071000B4F88610484300120FFA80FB04F124005D
:10072000F5F733FC2890002128461BF0FCFE8234AC
:1007300061884843001227902188491E279801FBB1
:1007400010A0218890FBF1F000B2269028992698FD
:10075000B0FBF1F000B225904FF4A02128461BF029
:10076000E2FE6188823C48430012249028461AF039
:10077000A5FE01462B98401A00B2239028461AF095
:1007800097FF01462A98401A00B2229014A812F04E
:1007900031FD14AA4FF4A02128461CF07FFD14A8B7
:1007A000C07B20F0070114A8C173FF208DF853000F
:1007B000688BBDF85010084400B2ADF8B600394659
:1007C00002A81AF025FA4FF4A0200F905D4803907C
:1007D000042004904FF00008AAE02798504400FB42
:1007E00008F0B4F8821090FBF1F0A98A0144239834
:1007F000084400B20190CDF8408004F12400F5F7E0
:10080000E3FB06468CE0307B00F0010000B181E0A4
:1008100094F88800C0F3C00008B9708900E0002097
:1008200000B200900198ADF8B000BDF8B010259866
:1008300001442498081A401E00B2ADF8B40025996E
:100840000198084400B20190BDF9B400BDF9BC1094
:10085000884200DA5EE0BDF9B000BDF9C010884200
:1008600000DD60E03089ADF8540000984044B4F8F1
:10087000821090FBF1F201FB12000FFA80F9706810
:1008800030F91910307BC0F3001204F16C0030F91C
:100890001200081A00FB0BF02990307BC0F3001106
:1008A00004F1700030F91110307BC0F3001204F134
:1008B0006C0030F91200091A299890FBF1F0299088
:1008C0002998ABEB0001E88A01442298084400B261
:1008D000ADF8B200706830F9190047F6FF71884230
:1008E00017D02CA8059014A806901396706830F9BC
:1008F0001900129002AA1A21284614F01BFA2CAAF9
:1009000014A9384612F05AFC02AA1B21284614F0FA
:1009100011FA00BF314604F12400F5F74FFB0646FB
:10092000002E7FF470AF00BF08F101001FFA80F8BD
:10093000B4F8820040453FF750AF2E98B86000BF32
:10094000C8E60000440F04082DE9F34FB9B0834610
:100950003A980BF11401826837A8F4F76DF810B9D2
:100960003BB0BDE8F08F3A988068369037A93A9846
:1009700081605D46B5F88200022800DAF0E70021C8
:1009800058461BF004FC3390002158461BF019FE1A
:1009900001463398084400B23290002158461BF0BB
:1009A0007CFF01463398084400B2319058461AF053
:1009B0001AFCB5F884104843001200B23090584633
:1009C0001AF0F2FBB5F886104843001200B22F90DF
:1009D00058461AF073FD0146BBF8142032981044B3
:1009E000401A00B22E9058461AF062FE0146BBF83B
:1009F000162031981044401A00B22D903A980BF10D
:100A0000140182682BA8F4F717F82A902A9800B9E5
:100A1000A6E727A811F02EFC27AA4FF4A0215846DC
:100A20001CF0C8FB19A812F0E5FB19AA4FF400311D
:100A300058461CF033FC4FF4003158461CF0AFF917
:100A4000064600EBD67047104FF4003158461BF0B5
:100A500018FC064600EBD6704FEA600ABDF99E000E
:100A6000574501DA394600E0514600EBD072B1EB50
:100A7000620F06DD9DF8A50020F0100010308DF803
:100A8000A500BDF89E00012806D19DF8A50020F024
:100A9000100010308DF8A500B5F882103098814212
:100AA00001DB012000E00020189005F12400F5F79B
:100AB0008BFA0446D4E1207B00F0010000B1C9E1CB
:100AC0002089ADF89C002089ADF8680095F8880071
:100AD000C0F3C00008B9608900E0002006B2179694
:100AE0002E98ADF8D4002E98ADF8D000179E179E22
:100AF000B046606830F91810207BC0F3001205F191
:100B00006C0030F91200081A2F9948431690207B88
:100B1000C0F3001105F1700030F91110207BC0F313
:100B2000001205F16C0030F91200091A169890FBBA
:100B3000F1F0169016992F98411A2D98084400B29A
:100B4000ADF8D20004A83A991AF062F8C8480590A6
:100B5000032006904FF4A020119027A80A9019A80E
:100B600008901594BDF9D2000390BDF9D20002900F
:100B70004FF0000923E1BDF8D000ADF8D400BDF876
:100B8000D200ADF8D600BDF9D4103698B0F9040003
:100B90003844401C814200DD16E1309800FB09F02A
:100BA000B5F88210491E90FBF1F12E98084400B26E
:100BB000ADF8D00017984844B5F8821090FBF1F2D8
:100BC00001FB120006B2606830F91610207BC0F3FA
:100BD000001205F16C0030F91200081A2F994843F1
:100BE0001690207BC0F3001105F1700030F9111050
:100BF000207BC0F3001205F16C0030F91200091AD5
:100C0000169890FBF1F0169016992F98411A2D988E
:100C1000084400B2ADF8D200BDF9D0103698B0F952
:100C20000000C01B401E814201DAB046C3E0B9F1AA
:100C3000000F58D01898E8B3606830F9180047F6EC
:100C4000FF718842F5D0606830F916008842F0D014
:100C5000BDF9D2100298814201DA029801E0BDF993
:100C6000D2000290BDF9D2100398814201DD0398B1
:100C700001E0BDF9D2000390BDF9D400BDF9D01058
:100C8000884230D0BDF9D2000190BDF8D000401E9E
:100C900000B2ADF8D000BDF8D000ADF8D400039894
:100CA000ADF8D6000298ADF8D200BDF9D600BDF976
:100CB000D21000E018E0884205D1BDF8D200401CF7
:100CC00000B2ADF8D20034AB35AA27A93A9811F09A
:100CD000BAFABDF8D000401C00B2ADF8D0000198BF
:100CE00003900198029064E0BDF8D400C01B00B2EC
:100CF000ADF80000BDF8D400384400B2ADF80400EF
:100D0000BDF8D600A0EB0A0000B2ADF80200BDF8B5
:100D1000D600504400B2ADF80600A9F101001290CF
:100D2000606830F9180047F6FF71884201D035A895
:100D300000E000200D90606830F9160047F6FF7162
:100D4000884201D034A800E000200E90CDF81CD0DD
:100D5000606830F91800149004AA1A21584613F05C
:100D6000E9FF606830F9180047F6FF7188420AD041
:100D7000606830F91600884205D034AB35AA27A93F
:100D80003A9811F060FA77B1BAF1000F0BD06068B1
:100D900030F9180047F6FF71884204D06A4619A955
:100DA0003A9812F00BFA04AA1B21584613F0C2FF1E
:100DB00000BFB04600BF09F101001FFA80F9B5F885
:100DC000820048453FF7D7AE00BF1898E8BBB5F89A
:100DD000820048453DD1606830F9160047F6FF7142
:100DE000884236D0BDF8D000C01B00B2ADF800007C
:100DF000BDF8D000384400B2ADF80400BDF8D20010
:100E0000A0EB0A0000B2ADF80200BDF8D2005044D9
:100E100000B2ADF80600A9F10100129000200D907B
:100E20000E90CDF81CD0606830F91600149004AA1A
:100E30001A21584613F07EFF6A4619A93A9812F013
:100E4000BDF904AA1B21584600E002E013F072FF2E
:100E500000BF00BF214605F12400F5F7AFF80446B6
:100E6000002C7FF428AE3A993698886000BF77E569
:100E7000440F04082DE9F34FB3B08146349809F1CB
:100E80001401826831A8F3F7D7FD10B935B0BDE879
:100E9000F08F34988068309031A9349881604D4645
:100EA000002148461BF073F92D90002148461BF0A5
:100EB00088FB2C90002148461BF0EFFC2B90484605
:100EC0001AF091F9B5F884104843001200B22A9044
:100ED00048461AF069F9B5F886104843001200B286
:100EE000299048461AF0EAFA0146B9F814202C98DD
:100EF00002442D981044401A00B2289048461AF037
:100F0000D7FB0146B9F816202B9802442D981044BF
:100F1000401A00B2279024A811F0ACF924AA4FF48B
:100F2000A02148461CF046F916A812F063F916AA4B
:100F30004FF4003148461CF0B1F94FF400314846F7
:100F40001BF02DFF064600EBD67047104FF4003122
:100F500048461BF096F9064600EBD6704FEA60084B
:100F6000BDF99200474501DA394600E0414600EB01
:100F7000D072B1EB620F06DD9DF8990020F01000F1
:100F800010308DF89900BDF89200012806D19DF827
:100F9000990020F0100010308DF8990005F1240020
:100FA000F5F712F8044698E1207B00F0010000B14B
:100FB0008DE12089ADF890002089ADF85C0095F8AE
:100FC0008800C0F3C00008B9608900E0002006B2C4
:100FD00015962898ADF8BC002898ADF8B800159E75
:100FE000159EB346606830F816000A2847D02A9844
:100FF0000090236833F91600237BC3F3C00C05F17E
:10100000780333F91C20237BC3F3C00C05F1740370
:1010100033F91C10002317F017FF00B2ADF8B80029
:10102000BDF8B8102898084400B2ADF8B800299867
:101030000090636833F91600237BC3F3001C05F1AD
:10104000700333F91C20237BC3F3001C05F16C03F0
:1010500033F91C10002317F0F7FE00B2ADF8BA0008
:10106000BDF8BA102998401A00B2ADF8BA00BDF820
:10107000BA102798084400B2ADF8BA0005E04EF265
:101080000100ADF8B800ADF8BA0003A8349919F022
:10109000BFFD4FF4A02010909448049003200590C9
:1010A00024A8099016A8079014944FF0000AC8E0ED
:1010B000BDF8B800ADF8BC00BDF8BA00ADF8BE0090
:1010C00015985044B5F8821090FBF1F201FB120024
:1010D00006B2606830F9160047F6FF71884247D0C3
:1010E00029980090636833F91600237BC3F3001C32
:1010F00005F1700333F91C20237BC3F3001C05F1B9
:101100006C0333F91C10002317F09EFE00B2ADF8FB
:10111000BA00BDF8BA102998401A00B2ADF8BA006A
:10112000BDF8BA102798084400B2ADF8BA002A9862
:101130000090236833F91600237BC3F3C00C05F13C
:10114000780333F91C20237BC3F3C00C05F174032F
:1011500033F91C10002317F077FE00B2ADF8B80089
:10116000BDF8B8102898084400B2ADF8B80001E006
:10117000B34662E0BAF1000F5DD0BDF8BC00C01B01
:1011800000B2ADF80400BDF8BC00384400B2ADF8C0
:101190000800BDF8BE00A0EB080000B2ADF80600E4
:1011A000BDF8BE00404400B2ADF80A00AAF101004B
:1011B0001190606830F91B0047F6FF71884201D03A
:1011C0002FA800E000200C90606830F9160047F668
:1011D000FF71884201D02EA800E000200D9001A8E8
:1011E0000690606830F91B00139003AA1A21484644
:1011F00013F0A0FD606830F91B0047F6FF718842CC
:1012000013D0606830F9160088420ED02EAB2FAA9A
:1012100024A9349811F017F83FB1B8F1000F04D0A9
:1012200001AA16A9349811F0C9FF03AA1B21484648
:1012300013F080FD00BFB34600BF0AF101001FFAA2
:1012400080FAB5F8820050453FF732AFB5F882001A
:1012500050453BD1606830F9160047F6FF7188426F
:1012600034D0BDF8B800C01B00B2ADF80400BDF822
:10127000B800384400B2ADF80800BDF8BA00A0EBE1
:10128000080000B2ADF80600BDF8BA00404400B254
:10129000ADF80A00AAF10100119000200C900D9009
:1012A00001A80690606830F91600139003AA1A216D
:1012B000484613F03FFD01AA16A9349811F07EFFAD
:1012C00003AA1B21484613F035FD00BF00BF21468D
:1012D00005F12400F4F772FE0446002C7FF464AE9E
:1012E00034993098886000BFD0E50000440F0408AE
:1012F0002DE9F74FA2B00F46F88D10B925B0BDE823
:10130000F08F97F83600022800DCF7E7F88D012807
:1013100008D1B7F93400002804DC388E10B9788E73
:1013200000B9EBE724980088398E0844B98E401A3A
:1013300000B2ADF8800024988088398E0844B98EB8
:10134000084400B2ADF8840024984088798E08449F
:10135000B98E401A00B2ADF882002498C088798E08
:101360000844B98E084400B2ADF88600B7F92E00E3
:1013700000EBD071BDF88020A2EB6101491E09B2DB
:10138000ADF87810B7F92E0000EBD071BDF88420CD
:1013900002EB6101491C09B2ADF87C10B7F92E00CF
:1013A00000EBD071BDF88220A2EB6101491E09B2A9
:1013B000ADF87A10B7F92E0000EBD071BDF8862099
:1013C00002EB6101491C09B2ADF87E1097F83600B6
:1013D0001D901D98FD2801DDFF201D9022981EA95B
:1013E00082681BA8F3F728FB00B987E719A824999E
:1013F0000DF07AF84FF0FF32114619A80DF094F96C
:10140000B7F9008019A80DF057F9834619A80DF017
:10141000CBF8834503DA19A80DF04EF902E019A8BC
:101420000DF0C2F818901898B8EB600F02DD18980C
:101430004FEA6008B7F90000179020A80DF03CF9BA
:10144000834620A80DF0B0F8834503DA20A80DF0FC
:1014500033F902E020A80DF0A7F81890DDE9170194
:10146000B0EB610F02DD189840101790B7F92E10FD
:1014700017980C1804FB04F1480017F033FD82465E
:10148000B7F92E20179803B2514620A825F01EFE6A
:101490001EA811F021FA16904FF00109169820B9F4
:1014A000F878FF2801DBB87808B14FF000094FF059
:1014B000FF300F90B9F1000F0BD101230FFA88F222
:1014C00019A910A811F080FD002110A810F0FEFE4F
:1014D0000F901EA80DF0F0F8834617F003FD0E9054
:1014E0001C2102A817F0A9FF0CA8029007900E98E3
:1014F0000590B88DADF8100097F836008DF82000F3
:10150000B8788DF821001EA80DF0D6F8834600EBC0
:10151000DB70BDF8781001EB600000B201901EA8EE
:101520000DF042F8834600EBDB70BDF87A1001EB5A
:10153000600000B20090BDF87C00ADF83400BDF84A
:101540007C00001B401C00B2ADF83000BDF87A00F2
:10155000ADF83200BDF87A002044401E00B2ADF86C
:101560003600BDF930100198814202DDBDF930002E
:1015700000E00198ADF83000BDF9361000988142C6
:1015800002DABDF9360000E00098ADF83600229886
:101590000CA982680AA8F3F74FFA002866D00FFA60
:1015A00088F219A90AA8F3F788FA00285ED10AA8D8
:1015B0000DF082F883465646BDF92A00BDF97A102F
:1015C000401A00FB0466BDF92810BDF97C00001B21
:1015D000401C081A0644B9F1000F09D00FFA88F22E
:1015E00019A90AA8F3F7E4FA10B10120099001E063
:1015F000CDF82490BBF1000F37DD0E980590BDF8B3
:101600002800ADF83000BDF82C00ADF83400022001
:101610008DF81800BDF92A5023E0ADF83250ADF82E
:1016200036500998A8B9224631460E9817F077FD32
:10163000BDF928105B462A460E9811F0FDF88DF88A
:1016400018009DF81800012804D102208DF8180018
:1016500000E0059602A9229811F0EEFF2644681CCE
:1016600005B2BDF92E00A842D7DA00BFBDF87C0054
:10167000ADF83400BDF87C00001B401C00B2ADF892
:101680003000BDF87E00001B401C00B2ADF83200F7
:10169000BDF87E00ADF83600BDF9301001988142EA
:1016A00002DDBDF9300000E00198ADF83000BDF971
:1016B00032100098401C814202DDBDF9320001E089
:1016C0000098401C00B2ADF8320022980CA9826844
:1016D0000AA8F3F7B1F9002866D00FFA88F219A921
:1016E0000AA8F3F7EAF9A8BB0AA80CF0E5FF8346BD
:1016F0005646BDF93600BDF92E10401A00FB0466AF
:10170000BDF92810BDF97C00001B401C081A0644D6
:10171000B9F1000F09D00FFA88F219A90AA8F3F756
:1017200047FA10B10120099001E0CDF82490BBF1F7
:10173000000F38DD0E980590BDF82800ADF8300098
:10174000BDF82C00ADF8340002208DF81800BDF96A
:101750002E5024E028E0ADF83250ADF8365009980C
:10176000A8B9224631460E9817F0D9FCBDF92810C9
:101770005B462A460E9811F05FF88DF818009DF828
:101780001800012804D102208DF8180000E0059609
:1017900002A9229811F050FF2644681E05B2BDF937
:1017A0002A00A842D7DD00BFBDF87800204400B26F
:1017B000ADF83000BDF87C00001B00B2ADF834007D
:1017C000BDF87A00ADF83200BDF87A002044401E22
:1017D00000B2ADF83600BDF936100098814202DA49
:1017E000BDF9360000E00098ADF8360022980CA94B
:1017F00082680AA8F3F720F900286FD00FFA88F260
:1018000019A90AA8F3F759F9002867D10AA80CF01A
:1018100053FF83465646BDF92A00BDF93210401ADF
:1018200000FB0466B9F1000F09D00FFA88F219A97C
:101830000AA8F3F7BDF910B10120099001E0CDF835
:101840002490BBF1000F48DD099810B90E9805905F
:1018500001E000200590BDF82800ADF83000BDF88B
:101860002C00ADF83400BDF92A5032E0ADF832500A
:10187000ADF836500998C8B931785A460E9817F025
:10188000A2FDBDF928105B462A460E9810F0D4FF41
:101890008DF818009DF81800012802D102208DF85B
:1018A000180002A9229811F0C7FE0FE01D98FF282A
:1018B00001D1307804E0307897F8361048430012B0
:1018C0008DF8200002A9229811F0B6FE2644681C6B
:1018D00005B2BDF92E00A842C8DA00BF97F836005D
:1018E0008DF82000BDF87800204400B2ADF830003B
:1018F000BDF87C00001B00B2ADF83400BDF87E00DE
:10190000001B401C00B2ADF83200BDF87E00ADF8FF
:101910003600BDF932100098401C814202DDBDF94D
:10192000320001E00098401C00B2ADF8320022986D
:101930000CA982680AA8F3F77FF800287ED00FFA76
:1019400088F219A90AA8F3F7B8F8002878D10AA8EC
:101950000CF0B2FE83465646BDF93600BDF92E1096
:10196000401A00FB0466BBF1000F66DDB9F1000F01
:1019700009D00FFA88F219A90AA8F3F719F910B1DA
:101980000120099001E0CDF82490099810B90E9833
:10199000059001E000200590BDF82800ADF830006A
:1019A000BDF82C00ADF83400BDF92E5041E0ADF883
:1019B0003250ADF83650B9F1000F09D00FFA88F265
:1019C00019A90AA8F3F7F4F810B10120099001E071
:1019D000CDF824900998C8B931785A460E9817F076
:1019E000F2FCBDF928105B462A460E9810F024FF41
:1019F0008DF818009DF81800012802D102208DF8FA
:101A0000180002A9229811F017FE0FE01D98FF2878
:101A100001D1307804E0307897F83610484300124E
:101A20008DF8200002A9229811F006FE2644681EB7
:101A300005B2BDF92A00A842B9DD00E000E000BF10
:101A400097F836008DF82000BDF87C00001B401C84
:101A500000B2ADF83000BDF87C00ADF83400BDF840
:101A60007A00204400B2ADF83200BDF87E00001BC1
:101A700000B2ADF83600BDF932100098401C81422A
:101A800002DABDF9320001E00098401C00B2ADF866
:101A90003200BDF936100098814202DDBDF93600F2
:101AA00000E00098ADF83600BDF930100198814291
:101AB00002DDBDF9300000E00198ADF83000229859
:101AC0000CA982680AA8F2F7B7FFE0B30FFA88F210
:101AD00019A90AA8F2F7F1FFA8BB0AA80CF0ECFDBF
:101AE00083465646601E00FB0466BDF92810BDF90A
:101AF0007C00001B401C081A0644B9F1000F09D0F5
:101B00000FFA88F219A90AA8F3F752F810B10120C8
:101B1000099001E0CDF82490099808B1304600E022
:101B20000E980590BBF1000F33DDBDF82800ADF82D
:101B30003000BDF82C00ADF8340002208DF81800FC
:101B4000BDF92A5021E025E0ADF83250ADF836500D
:101B50000998A0B95A4631460E9817F0E0FABDF937
:101B600028105B462A460E9810F066FE8DF8180085
:101B70009DF81800012802D102208DF8180002A952
:101B8000229811F059FD681C05B2BDF92E00A8423B
:101B9000DADA00BF5646002515E030463319591EE3
:101BA000002208E0037891F800C080F800C00B70B4
:101BB000401C491E521C04EBD47CB2EB6C0FF1DBD1
:101BC0002644681C05B2A542E7DBBDF87800ADF8F5
:101BD0003000BDF878002044401E00B2ADF834005B
:101BE000BDF87A00204400B2ADF83200BDF87E00A6
:101BF000001B00B2ADF83600BDF932100098401C51
