:020000040800F2
:1000000048D90020D1020008732D00086B2D00088C
:100010006F2D00088D18000839300008000000001E
:10002000000000000000000000000000390200088D
:1000300091180008000000007D0200089D2D0008B6
:10004000EB020008EB020008EB020008EB020008DC
:10005000EB020008EB020008EB020008EB020008CC
:10006000EB020008EB020008EB020008EB020008BC
:10007000EB020008EB020008EB020008EB020008AC
:10008000EB020008EB020008EB020008EB0200089C
:10009000EB020008EB020008EB020008EB0200088C
:1000A000EB020008EB020008EB020008EB0200087C
:1000B000EB020008EB020008EB020008EB0200086C
:1000C000EB020008EB020008EB020008EB0200085C
:1000D000EB02000815300008EB020008EB020008F4
:1000E000EB020008EB020008EB020008EB0200083C
:1000F000EB020008EB020008EB020008EB0200082C
:10010000EB020008EB020008EB020008EB0200081B
:10011000EB020008EB020008B52D0008EB02000816
:10012000EB020008EB020008EB020008EB020008FB
:1001300000F002F800F070F80AA090E8000C824489
:100140008344AAF10107DA4501D100F065F8AFF266
:10015000090EBAE80F0013F0010F18BFFB1A43F0A5
:100160000103184734070600540706000A444FF0FD
:10017000000C10F8013B13F0070408BF10F8014B06
:100180001D1108BF10F8015B641E05D010F8016B4B
:10019000641E01F8016BF9D113F0080F1EBF10F8AF
:1001A000014BAD1C0C1B09D16D1E58BF01F801CBD2
:1001B000FAD505E014F8016B01F8016B6D1EF9D555
:1001C0009142D6D37047000000230024002500266A
:1001D000103A28BF78C1FBD8520728BF30C148BFAA
:1001E0000B60704766293DF08E81642900F05281D2
:1001F000782900F08B81732900F015860020704764
:100200001FB500F049FE0400002000213CF01CFC5A
:10021000E0601FBD10B510BD00F042FF1146FFF7B2
:10022000EFFF32F0EDF800F060FF03B4FFF7F2FFEC
:1002300003BC05F04FF80000224B19680868B0E8CD
:10024000F00F80F30988BFF36F8F4FF0000080F349
:1002500011884EF00D0E704700000000064800683F
:10026000006880F3088862B661B6BFF34F8FBFF3B2
:100270006F8F00DF00BF00BF08ED00E0EFF30980E3
:10028000BFF36F8F0F4B1A6820E9F00F106008B5AD
:100290004FF0500080F31188BFF34F8FBFF36F8F83
:1002A0003BF056FC4FF0000080F31188BDE8084099
:1002B00019680868B0E8F00F80F30988BFF36F8F02
:1002C000704700BF98000020EFF3058070470000E2
:1002D0000948804709480047FEE7FEE7FEE7FEE7DA
:1002E000FEE7FEE7FEE7FEE7FEE7FEE70448054916
:1002F000054A064B70470000B12D00083101000887
:1003000048C7002048D9002048C9002048C900201B
:10031000704753EA020C00F069802DE9F04B4FF072
:100320000006002B1FBFB3FA83F503FA05F424FA85
:1003300005F65E4012BF1643B2FA82F502FA05F4E2
:10034000C5F120051EBF22FA05FC44EA0C04203545
:1003500056EA044C4FEA144418BF641C4FF00008DE
:100360004FF00009904271EB030C39D3002919BFFB
:10037000B1FA81F701FA07F6B0FA80F700FA07F64A
:10038000C7F120071EBF20FA07FC46EA0C062037FB
:10039000B6FBF4FCA7EB0507103F07F01F0BCBF1F2
:1003A00020060CFA0BFB2CFA06F644BFB3460026D7
:1003B000202FA4BF5E464FF0000B5BEA060C08BF7F
:1003C0004FF0010B19EB0B09ABFB027C48EB060865
:1003D000C01B06FB02CC0BFB03CC71EB0C01C1E78D
:1003E0000B46024641464846BDE8F08B13B54FF038
:1003F00000004FF00001AFF30080BDE81C407047E3
:100400000FB4044910B503AA029800F011FD10BC06
:100410005DF814FB140000200FB41CB5074B06AAAE
:100420007B4469460090059800F0D3FC00206946A3
:1004300000F0E2FC1CBC5DF814FB0000D5090000D4
:1004400070B50C460546012A05D02878800600D5EF
:10045000EA69002302E0012305E05B1C934202D21B
:10046000E05C0028F9D1A869E618C01AA861286ADA
:10047000184428622846AFF3008004E0D5E9012142
:1004800014F8010B9047B442F8D32846AFF300802C
:1004900070BD00002DE9F041064600241068752962
:1004A000314616A510D0AFF30080002802DA404292
:1004B00013A507E031688A0701D512A502E04907B4
:1004C00004D511A5012401E0AFF3008000210A2228
:1004D00006F1240709E0B0FBF2FCB0FBF2F302FBEB
:1004E0001C00303078541846491C0028F3D12346AC
:1004F0002A463046BDE8F04100F0FEB90000000099
:100500002D0000002B0000002000000070B5044604
:100510000D4621461068AFF300802188090502D5F9
:100520000F4A7A4402E00E4A7A440E32002104F166
:10053000240305E000F00F060009965D5E54491C97
:100540000028F7D120780023000704D5702D02D0B1
:1005500009B1022311322046BDE8704000F0CCB949
:1005600006FD05002DE9F05F894604464FF0000ABC
:10057000DFF824B1FB44C0F820A02046E16888479A
:1005800000287DD0252806D0D4E901219047206A93
:10059000401C2062F1E700255F462046E16888475D
:1005A0002028064607DB312E05D2B81910F8200C9A
:1005B00008B10543F1E7A80701D525F00405C4F803
:1005C0001CA00027C4F818A02A2E09D0304602F03B
:1005D00083FD38B304EB8708303EC8F8186019E093
:1005E00059F8041B204604EB87029161E1688847B3
:1005F000012F064618D1E069002820DA25F02005F1
:100600001DE0D8F8180000EB800006EB4000303801
:10061000C8F818002046E1688847064602F05CFDED
:100620000028EED1012F0AD02E2E08D12046E168F5
:1006300088477F1C0646022F45F02005C4DBA069D1
:10064000002803DA404245F00105A061E80701D027
:1006500025F01005A6B1A6F14100192802D82036D0
:1006600045F400654A463146204625604D46FFF771
:10067000B9FD60B1012807D0ED1D25F0070000E0AD
:1006800007E000F1080978E705F1040975E730464D
:100690007AE7206ABDE8F09FDCFC050040EA010330
:1006A000024630B59B0710D14FF0013400E008C27C
:1006B00008C91D1B9D4315EAC41FF8D013F0FF01A4
:1006C00002F8011B0DD01B0AF8E711F8013B002BC3
:1006D00002F8013B05D011F8013B002B02F8013B69
:1006E000F3D130BD10B5431C02E010F8011B71B10D
:1006F0008107FAD14FF0013202C88C1A8C4314EAF8
:10070000C211F9D0C01A0A0603D0C01E10BDC01A0B
:1007100010BD0A0401D0801E10BD0902FCD0401E8D
:1007200010BD032A40F2308010F0030C00F0158059
:1007300011F8013BBCF1020F624498BF11F801CBE4
:1007400000F8013B38BF11F8013BA2F1040298BF49
:1007500000F801CB38BF00F8013B11F0030300F0B3
:100760002580083AC0F0088051F8043B083A51F857
:1007700004CBA0E80810F5E7121D5CBF51F8043B5C
:1007800040F8043BAFF30080D20724BF11F8013BCF
:1007900011F801CB48BF11F8012B24BF00F8013B31
:1007A00000F801CB48BF00F8012B704710B5203A84
:1007B000C0F00B80B1E81850203AA0E81850B1E81A
:1007C0001850A0E81850BFF4F5AF5FEA027C24BFD0
:1007D000B1E81850A0E8185044BF18C918C0BDE8C7
:1007E00010405FEA827C24BF51F8043B40F8043B90
:1007F00008BF7047D20728BF31F8023B48BF11F845
:10080000012B28BF20F8023B48BF00F8012B70479E
:1008100002F0FF0343EA032242EA024200F01CBB5B
:100820004FF0000200B5134694469646203922BF89
:10083000A0E80C50A0E80C50B1F12001BFF4F7AFD4
:10084000090728BFA0E80C5048BF0CC05DF804EBB6
:10085000890028BF40F8042B08BF704748BF20F824
:10086000022B11F0804F18BF00F8012B70470000D9
:100870004FF0013C50F8042B51F8043B9A4221D12F
:10088000A2EB0C03934313EACC1317D150F8042BBB
:1008900051F8043B9A4215D1A2EB0C03934313EA9F
:1008A000CC130BD150F8042B51F8043B9A4209D1D8
:1008B000A2EB0C03934313EACC13DBD04FF0000000
:1008C000704700BFD01A01BAB1FA81F101F01801E6
:1008D00022FA01F0CB40C1F12001DBB2C0B2C01A54
:1008E0002CFA01F3D11A914311EAC311E6D17047F2
:1008F00070477047704770472DE9F0470D4699469D
:100900009246044600F124080168880604D5E0698F
:1009100021F01001216000E00120A84201DD471B09
:1009200000E00027A1697A1902EB0900081AA0610A
:100930002078C00602D42046AFF30080002608E0ED
:10094000D4E901211AF806009047206A401C761C61
:1009500020624E45F4DB2078C0060AD52046AFF36E
:10096000008006E0D4E9012130209047206A401C35
:100970002062381EA7F10107F4DC07E0D4E9012169
:1009800018F805009047206A401C2062281EA5F137
:100990000105F3DC2046AFF300802078000602D585
:1009A0000220BDE8F0870120FBE770472DE9FF4FEB
:1009B0000C461E464FF0FF378BB0D2E90001DDF840
:1009C00060800A908A46C1F30A5505B93D46002168
:1009D00008464FF00000BAF1000F00F4400005DABD
:1009E00000EB80004FF4400101EA50004FEA9059BB
:1009F000B9F1010F00DDB9460A9850EA4A000ED05D
:100A000044F61050A5F2FF3545432F14B8F1000FFE
:100A10001ED07542291E1EDDC9F100021CE0B8F18E
:100A2000010F4FF0000001D0302103E0F24305E058
:100A30002154401CB042FBDB3046002200212154EF
:100A40000B99C1F80880C1E900200FB0BDE8F08F14
:100A5000BD1B6D1CDEE74A4600DA694206A800F0BD
:100A6000A5FA06AB93E8070003AB83E807005046FE
:100A70000A9900F043FB8DE80700A0F500501F38ED
:100A800000900398002D0ADD42F21F014A460844F7
:100A9000002303A90390684600F0ACFD09E0A0F52F
:100AA00000504A461F38002303A90390684600F00F
:100AB000B6FD8DE807000004000C03D04FF0FF30B6
:100AC000410800E01046B8F1000F03D00022009268
:100AD00015461EE0751E05D400F0E2F9303262556D
:100AE0006D1EF9D5B3460122084302D000227F1CB7
:100AF00004E02078302801D100227F1E002A0997C7
:100B000084D01DE0112D07DA00F0CAF930326255A9
:100B10006D1C50EA0102F5D1084302D00098C8B11B
:100B20000EE00021681E05E0235C625C63542254E1
:100B3000401E491C8142F7DBAB46A81B401E0990B2
:100B4000002004F80B000B98099AC0F80880C0E94F
:100B5000002B7AE711264FF0000857E72DE9F04FF8
:100B600088460446D21D22F0070191B0D1E9000168
:100B7000CDE90A0102F062FA02460B98C00F01D0DB
:100B80002D2007E02068810701D52B2002E02021DD
:100B900001EAC000032A099001D0072A05DB0346B9
:100BA0004146204600F0C2F90BE12078800601D5CD
:100BB000E06900E00620B8F1650F814606D0B8F183
:100BC000660F18D0B8F1670F70D131E00020B9F18D
:100BD000110F009001DB112301E009F101030AAAC2
:100BE00001A90CA8FFF7E2FEDDE90C70002609F16F
:100BF0000105834647E001204B4600904FF0004737
:100C00000AAA01A90CA8FFF7D1FEDDE90DB00C99E5
:100C10005D46002610B909F101000D18B9EB050079
:100C200003D4C0F1FF3609F10105A5EB09002BE063
:100C3000B9F1010F01DA4FF001090020B9F1110FEC
:100C40000090484601DD112300E003460AAA01A9ED
:100C50000CA8FFF7ABFEDDE90C704D46002683467D
:100C6000207800070AD4AB4500DA5D4601A8012DC3
:100C700004DD411911F8011C302907D04F4502DA73
:100C800017F1040F04DA012082460FE06D1EEEE733
:100C9000002F02DCED1B3E4403E0781CA84200DD7F
:100CA0007D1CB81B00F1010A4FF0004720780007B7
:100CB00003D4AA4501DB4FF0FF3A0021B7F1004F02
:100CC0000DF143088DF8431024D002202B23002F70
:100CD00001DA7F422D230A21021EA0F1010000DC6F
:100CE0005FB197FBF1FC97FBF1F201FB1C7C17460F
:100CF0000CF1300C08F801CDEEE7A8F1010003700B
:100D00002188090501D5452100E06521A0F10108F0
:100D100000F8011C09980FA9A1EB0807FF1D00B1FD
:100D20000120411901EBEA70A1693844081A401EFC
:100D3000A0612078C00602D42046AFF30080099855
:100D400028B1D4E901219047206A401C2062207814
:100D5000C00622D52046AFF300801EE0002E04DB43
:100D6000B34502DD01A8805D00E03020D4E9012117
:100D70009047206A401C2062761CAAF101005FEABD
:100D8000000A0AD100F088F8C0680168405CD4E924
:100D900001219047206A401C2062281EA5F1010510
:100DA000DCDC07E0D4E9012118F8010B9047206A48
:100DB000401C2062381EA7F10107F3DC2046AFF388
:100DC0000080032011B041E601694A1C02610878E5
:100DD000704700B58FB0CDE901310021059105497B
:100DE0007944CDE9031011466846FFF7BBFB0FB00D
:100DF00000BD0000E5FFFFFF0A6802F8010B0A6072
:100E0000704710B5436913B1AFF3008001E0FFF7FD
:100E100017FB012010BD127800F124010A70002296
:100E20004A700122EDE711684FF0FF32E9E7000058
:100E3000074B70B50D467B44FFF7CBFF04462846B1
:100E400000F026F910B14FF0FF3070BD204670BDA4
:100E5000032C01004FF000020429C0F0128010F0B2
:100E6000030C3FF4DFACCCF1040CBCF1020F18BF53
:100E700000F8012BA8BF20F8022BA1EB0C01FFF713
:100E8000D1BC5FEAC17C24BF00F8012B00F8012B24
:100E900048BF00F8012B70470048704708C7002082
:100EA00030B5B0F10A024FEA900E71F100034EEA3C
:100EB000817EB0EB0E0061EB91014FEA101E4EEA0D
:100EC000017E10EB0E0041EB11114FEA102E4EEA9D
:100ED000016E10EB0E0041EB11214FEA104E4EEA6D
:100EE000014E10EB0E0041EB1141401841F10001A1
:100EF0004FEAD00040EA41704FEAD10110EB800583
:100F00004FEA810444EA907444EB01046D1944EB08
:100F10000404521BA3414FF0000348BF0A3200D51E
:100F200030BD401C41F1000130BD00002DE9F04111
:100F30001F46044603260168072A01F4006004DB0B
:100F400008B116A505E016A503E008B115A500E057
:100F500015A521F010002060A069C01EA0610FB18E
:100F6000401EA0612046AFF300804FB1D4E90121BB
:100F700038469047206A401C2062C01C206206E070
:100F8000206AFAE7D4E9012115F8010B9047761E93
:100F9000F8D22046AFF30080BDE8F0814E414E000C
:100FA0006E616E00494E4600696E66002DE9F0479D
:100FB000814616468AB0354878440DC88DE80D0044
:100FC00032487844801C03AC0DC884E80D0041F61B
:100FD0009B300844372190FBF1F290FBF1F5A5F12D
:100FE000800501FB12041B3C02D56442012000E095
:100FF0000020DFF898A080460027FA44AAF1BE0A34
:101000000EE0E0070AD03246684607EB47010123AD
:101010000AEB810100F003FB8DE8070064107F1CE0
:10102000002CEED1194F7F44AE3F19E0E80715D0F0
:1010300007EB04100DF1180A90E80E008AE80E0084
:10104000C068F04201D1981908903246012306A9E0
:1010500003A800F0E4FA03AB83E807006D10641CFA
:10106000002DE3D14FF0010332466946B8F1000F7D
:1010700003A802D000F0BEFA01E000F0D0FAC9E9FE
:101080000001C9F808200AB0BDE8F08728F3050080
:10109000007B00F08000704700487047E8C60020E1
:1010A0007546FFF7F9FFAE4605006946534620F046
:1010B0000700854618B020B5FFF718F9BDE82040B5
:1010C0004FF000064FF000074FF000084FF0000B04
:1010D00021F00701AC46ACE8C009ACE8C009ACE8B7
:1010E000C009ACE8C0098D46704710B50446AFF39F
:1010F00000802046BDE81040FFF797B85FEA400C3B
:1011000008BF91F0000F4FEA8C234FEAC12243EA57
:1011100051514FEA1C5018BF00F5F0404FEA300023
:1011200018BF41F000415FEA6C5C00F02980BCF11F
:10113000FF3F08BF40F080407047130C06BF120409
:101140004FF0100C4FF0000C130E04BF12020CF104
:10115000080C130F04BF12010CF1040C930F04BF11
:1011600092000CF1020CD30F04BF52000CF1010CE1
:1011700011464FF00002A0F11F00A0EB0C007047D9
:1011800011F0004F08BF704731F000413FF4D5AF78
:101190000B0C06BF09044FF0100C4FF0000C0B0EA7
:1011A00004BF09020CF1080C0B0F04BF09010CF17C
:1011B000040C8B0F04BF89000CF1020CCB0F04BF91
:1011C00049000CF1010CCCF12003A0EB0C0022FA39
:1011D00003F302FA0CF241EA030100F10100704747
:1011E00020F07F4C80EA030023F07F47ACEB07033D
:1011F00003F57C5300F0004003F1FF032DE9804923
:101200004FEA154B09B44FEA144325EA0B4E24EA82
:1012100003480FF2042606EB132749083E785FEADD
:10122000320203FB0667C7F5000707FB06F64FEA25
:1012300054374FEAD64606F1020607FB066CCCF19E
:10124000005C4FEA1C472CEA074C07FB06F40CFB3A
:1012500006F504EB15464FEA961634BF00204FF012
:1012600000404FEAD13706FB07FC4FEA1C4C0CFB51
:101270000BF7D21B03FB0CF761EB07010CFB0EF71E
:10128000B0EB074072EB17420CFB08F734BFA2EB40
:101290000742B2EB074261EB17414FEA0C444FEAB9
:1012A000910706FB07FC4FEA1C4C0CFB0BF7B0EB5D
:1012B000C74072EB573203FB0CF734BFA2EBC742B7
:1012C000B2EBC74261EB57310CFB0EF7B0EBC70036
:1012D00072EB57720CFB08F734BFA2EBC702B2EBFC
:1012E000C70261EB5771039F4FEA816141EA921196
:1012F00004EBCC044FEAD1374FEA826206FB07FCCD
:1013000042EA90124FEA80604FEA1C4C0CFB0BF74C
:10131000D21B03FB0CF761EB07010CFB0EF7B0EBE4
:10132000074072EB17420CFB08F734BFA2EB0742F1
:10133000B2EB074261EB17414FEA8C554FEA910738
:1013400004EB9C2406FB07FC4FEA1C4C0CFB0BF740
:10135000B0EBC74072EB573203FB0CF734BFA2EB84
:10136000C742B2EBC74261EB57310CFB0EF7B0EB53
:10137000C70072EB57720CFB08F734BFA2EBC70231
:10138000B2EBC70261EB577115EB4C254FEA816157
:1013900041EA92114FEA82624FEAD13742EA901253
:1013A00006FB07FC44F100044FEA80604FEA1C4C46
:1013B0000CFB0BF7D21B03FB0CF761EB07010CFBDB
:1013C0000EF7B0EB074072EB17420CFB08F734BF87
:1013D000A2EB0742B2EB074261EB174115EB1C157C
:1013E0004FEA813141EA92414FEA823242EA904229
:1013F0004FEA80304FEA0C7644F1000448EA034398
:101400004EEA0B484FF0000EB2EB080C71EB0307ED
:1014100024BF624639464EEB0E0E4FF0000B00180B
:10142000524149414BEB0B0BB2EB080C71EB03073C
:101430007BF1000B24BF624639464EEB0E0E4FF097
:10144000000B0018524149414BEB0B0BB2EB080C5F
:1014500071EB03077BF1000B24BF624639464EEB6C
:101460000E0E51EA020718BF46F0010616EB0E7683
:1014700055F1000254F1000103D5BDE88901BDE832
:101480000088BDE88901BDE80048B619524141EB2A
:101490000101A3F10103704780807F7E7D7C7B7A10
:1014A0007978777676757473727171706F6E6E6D10
:1014B0006C6C6B6A6A6968686766666564646363B6
:1014C00062616160605F5F5E5E5D5D5C5C5B5B5A3C
:1014D0005A595958585757565655555554545353A9
:1014E00052525251515050504F4F4F4E4E4D4D4D04
:1014F0004C4C4C4B4B4B4A4A4A494949484848474F
:10150000474747464646454545444444444343438C
:101510004342424242414141002B9C4630D4770035
:101520002BD01CB54FEA370703B44FF010004FF033
:101530001001BAF1000F06D0BCF1000FDCBF40F083
:10154000080040F008014FF000000FBCBDE810405B
:101550000BF1010BBBF1010F08BF5FEA170722BFB8
:1015600012F1010211F101014FF0004143F10003BA
:1015700000F0004043EA00007047F9D35708D0E775
:1015800046EA064613F1400F4FEA16461FDD13F1F7
:10159000200FDFBF16430A46002120335B42BED036
:1015A000C3F1200746EA064602FA07F74FEA164655
:1015B00046EA0706C3F1200722FA03F201FA07F709
:1015C00021FA03F14FF0000342EA0702A7E746EAD7
:1015D000020646EA06464FEA164646EA0106BCBF40
:1015E00046EA0646360C4FF000034FF000024FF07B
:1015F000000194E72DE9804C9A46934670B491E837
:10160000380007C831EA400C48BF34EA430C03D520
:10161000FFF7E6FDFFF780FFF0BCBDE8008C2DE989
:10162000804C9A46934670B491E8380007C810F091
:10163000804F08BF13F0804F03D100F005F8FFF78B
:101640006BFFF0BCBDE8008C20F07F4780EA030010
:1016500023F07F4C07EB0C03A3F57C5300F0004014
:10166000A3F1FE0392F0000F00F0B38095F0000F9D
:1016700000F077802DE901494FEA11404FEA144606
:1016800021EA004800FB06FC24EA064708FB06F6B0
:1016900007FB08F800FB07F718EB06484CEB164C65
:1016A0004FEA124B18EB07484FEA15464CEB174030
:1016B00022EA0B4E0BFB06FC25EA06470EFB06F65C
:1016C00007FB0EFE0BFB07F71EEB064E4CEB164C12
:1016D0004FF000061EEB074E4CEB174B18EB0B08B8
:1016E00040F1000018EB0E0B58EB000840F1000031
:1016F0008F1A4FF000013CBFC943661B14BFB5EB06
:10170000040C00213CBFC943F61B4FEA17444EEAC4
:101710008E0E27EA04454FEA1C4704FB07622CEAB9
:10172000074C05FB07F70CFB05F604FB0CFC16EB5E
:10173000074642EB174216EB0C4642EB1C421BEBF2
:10174000060658EB0202414146EA9E0601D5BDE875
:101750000189B619524141EB0101A3F10103BDE832
:1017600001894FEA14454FEA114724EA054621EA68
:10177000074C05FB07F406FB07F70CFB06F105FB1E
:101780000CFC11EB074144EB17444FEA124711EBF5
:101790000C4144EB1C4422EA074C05FB07F206FB14
:1017A00007F70CFB06F605FB0CFC16EB074642EBB5
:1017B000174216EB0C4642EB1C456A1854F1000127
:1017C00048BF7047B619524141EB0101A3F1010333
:1017D000704795F0000F37D04FEA11424FEA144797
:1017E00021EA024624EA074C02FB07F106FB07F751
:1017F0000CFB06F402FB0CFC14EB074441EB174115
:101800004FEA154714EB0C4441EB1C4125EA074C09
:1018100002FB07F506FB07F70CFB06F602FB0CFCC8
:1018200016EB074645EB174516EB0C4645EB1C42FD
:10183000121951F1000148BF7047B619524141EBEE
:101840000101A3F1010370474FEA14454FEA114724
:1018500024EA054621EA074C05FB07F106FB07F7DA
:101860000CFB06F24FF0000605FB0CFC12EB0742E6
:1018700041EB174112EB0C4251EB1C4148BF704742
:10188000921841EB0101A3F10103704700BFFEE78D
:101890007047000070B50446B3F5804F13D1D1E90D
:1018A000000540EA05108D6840EA05208D6928434F
:1018B0008D8940EA054054F82250064E35402843B1
:1018C00044F8220003E06FF0704044F8220000204A
:1018D00070BD00000000F0CF70B50246086852F8F5
:1018E000200020F001000E6842F8260088680828D1
:1018F00001D1402300E00023486818438E6830433C
:10190000CE6830430E6930434E693043CE69304370
:101910000E6A30434E6A30438E6A3043CE6A30439B
:101920000E6B40EA060488690443486B0443074D84
:1019300045F4806545F4E025086852F82000A84386
:1019400020430E6842F82600002070BD7FFB08008F
:1019500010B50346D1E9000440EA04108C6840EA5F
:1019600004208C8940EA0444088A401E44EA00545A
:10197000087D801E44EA00608C692043541C53F8A3
:10198000244004F040442043541C43F82400002029
:1019900010BD000070B50446002594F8210002280F
:1019A00003D00420A0630125C1E02068006820F076
:1019B0000E00216808602068006820F0010021689E
:1019C00008605C492068884252D95A4978392068B1
:1019D000884201D1012047E0564964392068884295
:1019E00001D1102040E0534950392068884201D18C
:1019F000801539E04F493C392068884201D1801474
:101A000032E04C4928392068884202D14FF48030B6
:101A10002AE0484914392068884202D14FF48010E6
:101A200022E044492068884201D140041CE0424938
:101A30002068884201D1012016E03F491431206816
:101A4000884201D110200FE03B49283120688842AC
:101A500001D1801508E038493C312068884201D125
:101A6000801401E04FF480303349091F086051E0D1
:101A7000304978392068884201D1012047E02D495A
:101A800064392068884201D1102040E0294950394A
:101A90002068884201D1801539E026493C39206808
:101AA000884201D1801432E02249283920688842D6
:101AB00002D14FF480302AE01E4914392068884250
:101AC00002D14FF4801022E01A492068884201D1E7
:101AD00040041CE018492068884201D1012016E02A
:101AE000154914312068884201D110200FE01249B5
:101AF00028312068884201D1801508E00E493C3128
:101B00002068884201D1801401E04FF480300949F7
:101B100080394860012084F8210000BF002084F84B
:101B2000200000BF606B10B12046616B88472846DB
:101B300070BD000080000240080402402DE9F84713
:101B4000024600239C467BE14FF0010808FA03F4AB
:101B5000D1F8008008EA0400A0427DD1DFF8F4A2A9
:101B6000D1F80480A8EB0A09D0453AD014DCB8F1CA
:101B7000030F50D009DCB8F1000F31D0B8F1010FDC
:101B80001CD0B8F1020F49D120E0B8F1110F18D0E4
:101B9000B8F1120F42D11EE0B9F5881F25D006DC3E
:101BA000B9F5803F20D0B9F5801F37D11AE0B9F5DB
:101BB000001F18D0B9F5041F30D117E0D1F80CC0C0
:101BC0002DE0D1F80C8008F1040C28E0D1F80C804D
:101BD00008F1080C23E0D1F80C8008F10C0C1EE091
:101BE00000BF00BF00BF00BF00BF00BFD1F808802A
:101BF000B8F1000F02D14FF0040C0BE0D1F80880CF
:101C0000B8F1010F03D14FF0080C146102E04FF05E
:101C1000080C546103E04FF0000C00E000BF00BF6F
:101C2000FF2801D8904601E002F104084646FF284B
:101C300002D84FEA830803E0A3F108084FEA8808B6
:101C40004746D6F800804FF00F0909FA07F928EA4D
:101C500009080CFA07F900E07AE048EA0908C6F832
:101C60000080D1F8048008F08058B8F1805F6FD10F
:101C700000BFDFF8E481D8F8188048F00108DFF8E9
:101C8000D891C9F81880C846D8F8188008F001081B
:101C9000CDF8008000BF00BF4FEAB9384FEA930982
:101CA00058F829504FEA83784FEA18794FF00F0817
:101CB00008FA09F825EA0805DFF8A081424502D1B3
:101CC0004FF0000824E0DFF89881424502D14FF040
:101CD00001081DE0DFF88C81424502D14FF0020877
:101CE00016E0DFF88481424502D14FF003080FE08F
:101CF000DFF87881424502D14FF0040808E0DFF8B0
:101D00007081424502D14FF0050801E04FF006080E
:101D10004FEA83794FEA197908FA09F848EA050584
:101D2000DFF850814FEA930948F82950D1F8048030
:101D300008F48038B8F5803F0BD1DFF83C81D8F843
:101D4000008048EA0008DFF83091C9F800800AE016
:101D500075E0DFF82481D8F8008028EA0008DFF871
:101D60001891C9F80080D1F8048008F40038B8F55B
:101D7000003F0ED1DFF8008108F10408D8F8008098
:101D800048EA0008DFF8F09009F10409C9F800807A
:101D90000DE0DFF8E48008F10408D8F8008028EAB4
:101DA0000008DFF8D49009F10409C9F80080D1F8DF
:101DB000048008F48018B8F5801F0ED1DFF8B880D1
:101DC00008F10808D8F8008048EA0008DFF8A89071
:101DD00009F10809C9F800800DE0DFF89C8008F1DE
:101DE0000808D8F8008028EA0008DFF88C9009F18C
:101DF0000809C9F80080D1F8048008F40018B8F583
:101E0000001F0ED1DFF8708008F10C08D8F80080B0
:101E100048EA0008DFF8609009F10C09C9F8008071
:101E20000DE0DFF8548008F10C08D8F8008028EAAB
:101E30000008DFF8449009F10C09C9F800805B1C28
:101E4000D1F8008028FA03F8B8F1000F7FF47CAED7
:101E5000BDE8F887000011100010024000080140A2
:101E6000000C014000100140001401400018014026
:101E7000001C014008000140000401400246936834
:101E80000B400BB1012000E00020704710B5C26884
:101E900021EA020302EA010443EA0443036110BD9C
:101EA0000AB1016101E00B04036170470148006859
:101EB000704700001C0000200348006803490978AF
:101EC00008440149086070471C00002024000020DD
:101ED00010B50848006840F010000649086003206B
:101EE00000F080F80F2000F007F800F02BF8002039
:101EF00010BD00000020024070B504460E48007876
:101F00004FF47A71B1FBF0F00C490968B1FBF0F5C0
:101F1000284600F073FC08B1012070BD102C07D2D8
:101F200000222146501E00F01EF80548046001E022
:101F30000120F2E70020F0E724000020000000204C
:101F400020000020704701460846002809DB00F009
:101F50001F0301229A4043099B0003F1E023C3F8C9
:101F6000002100BF70472DE9F05F80460D46164600
:101F7000002701F077F8074639462A46334601F034
:101F80000700C0F1070ABAF1040F02D94FF0040AA2
:101F900001E0C0F1070AD14600F1040ABAF1070FC7
:101FA00002D24FF0000A01E0A0F1030AD4464FF03C
:101FB000010A0AFA09FAAAF1010A0AEA020A0AFA65
:101FC0000CFA4FF0010B0BFA0CFBABF1010B0BEA17
:101FD000030B4AEA0B042146404601F04BF8BDE8EA
:101FE000F09F000000BF00F00702064B19684FF693
:101FF000FF031940044B0B4343EA0221014B1960D4
:1020000000BF70470CED00E00000FA0570B5044613
:102010000D460CB9012070BD5A48006800F0070059
:10202000A8420ED25748006820F0070028435549BF
:1020300008600846006800F00700A84201D00120AF
:10204000E9E7207800F0020002281DD1207800F096
:102050000400042805D14C48406840F4E0604A4937
:102060004860207800F00800082805D146484068FC
:1020700040F46050444948604348406820F0F00014
:10208000A168084340494860207800F0010078B317
:102090006068012806D13C48006800F4003090B91F
:1020A0000120B8E76068022806D13748006800F0D0
:1020B000007040B90120AEE73348006800F002002C
:1020C00008B90120A7E73048406820F003006168A4
:1020D00008432D494860FFF7E9FE064609E0FFF78F
:1020E000E5FE801B41F28831884202D9032092E745
:1020F00007E02548406800F00C006168B0EB810FF4
:10210000EDD12048006800F00700A8420ED91D4814
:10211000006820F0070028431A4908600846006854
:1021200000F00700A84201D0012074E7207800F0F9
:102130000400042807D11448406820F4E060E168F6
:10214000084311494860207800F00800082808D1A9
:102150000D48406820F46050216940EAC1000A49F6
:10216000486000F03FF808494968C1F30311074A85
:10217000515CC8400649086006480068FFF7BCFE8D
:10218000002048E700200240001002400AD5030862
:102190000000002020000020014800687047000077
:1021A0000000002000B5FFF7F7FF04494968C1F3BC
:1021B0000221034A515CC84000BD000000100240EB
:1021C0001AD5030800B5FFF7E7FF04494968C1F3D2
:1021D000C221034A515CC84000BD0000001002400B
:1021E0001AD50308F0B585B00FF26C0C9CE8E0102E
:1021F00001A8A0E8E0101CA52D6800950021002290
:10220000002300240020194D696801F00C05F5B188
:10221000042D02D0082D19D101E0154819E001ADB7
:10222000C1F38346AC5D01F4803555B10F4D6D6847
:10223000C5F340451DF805200D4D6543B5FBF2F390
:1022400002E00C4D04FB05F3184602E000BF08480D
:1022500000BF00BF05B0F0BD020304050607080972
:102260000A0B0C0D0E0F10100102000000100240AE
:1022700000127A0000093D00F8B504460CB90120AF
:10228000F8BD207800F00100002878D0F8484068B8
:1022900000F00C0004280CD0F548406800F00C0059
:1022A000082811D1F248406800F48030B0F5803F32
:1022B0000AD1EF48006800F4003000285FD0606861
:1022C00000285CD10120DBE700BF6068B0F5803FEB
:1022D00006D1E748006840F48030E549086028E00E
:1022E000606858B9E248006820F48030E04908602E
:1022F0000846006820F4802008601AE06068B0F5A5
:10230000A02F0BD1DA48006840F48020D84908603B
:102310000846006840F4803008600AE0D44800684D
:1023200020F48030D24908600846006820F48020FC
:10233000086000BF606888B1FFF7B8FD054606E099
:10234000FFF7B4FD401B642801D9032098E7C84873
:10235000006800F400300028F2D010E0FFF7A6FD7E
:10236000054606E0FFF7A2FD401B642801D90320C3
:1023700086E7BF48006800F400300028F2D12078DA
:1023800000F00200022857D1B948406800F00C0064
:1023900050B1B748406800F00C00082818D1B44884
:1023A000406800F4803098B9B148006800F002003D
:1023B00020B12069012801D0012061E7AC48006804
:1023C00020F0F800616940EAC100A949086033E0E3
:1023D0002069E8B10120A7490860FFF767FD0546BD
:1023E00006E0FFF763FD401B022801D9032047E701
:1023F0009F48006800F002000028F2D09C48006866
:1024000020F0F800616940EAC1009949086013E0D2
:10241000002098490860FFF749FD054606E0FFF7F0
:1024200045FD401B022801D9032029E79048006898
:1024300000F002000028F2D1207800F008000828FF
:102440002DD1A069B8B101208B490860FFF72EFD9E
:10245000054606E0FFF72AFD401B022801D90320AC
:102460000EE78348406A00F002000028F2D0012005
:1024700000F080FC13E000207F490860FFF716FDA4
:10248000054606E0FFF712FD401B022801D9032094
:10249000F6E67748406A00F002000028F2D1207882
:1024A00000F00400042873D100277148C06900F0CF
:1024B000805070B900BF6E48C06940F080506C49D0
:1024C000C8610846C06900F08050009000BF00BF9E
:1024D00001276A48006800F48070B0B96748006856
:1024E00040F4807065490860FFF7E0FC054606E0AF
:1024F000FFF7DCFC401B642801D90320C0E65F48DD
:10250000006800F480700028F2D000BFE068012865
:1025100006D15748006A40F001005549086227E09B
:10252000E06858B95248006A20F00100504908623A
:102530000846006A20F00400086219E0E0680528F7
:102540000BD14B48006A40F0040049490862084634
:10255000006A40F0010008620AE04548006A20F085
:102560000100434908620846006A20F0040008623E
:1025700000BFE068A0B1FFF799FC054609E0FFF74E
:1025800095FC401B41F28831884202D9032077E64E
:1025900022E03748006A00F002000028EFD012E085
:1025A000FFF784FC054608E0FFF780FC401B41F282
:1025B0008831884201D9032062E62D48006A00F084
:1025C00002000028F0D1012F05D12948C06920F070
:1025D00080502749C86100BFE069C8B324484068FB
:1025E00000F00C00082860D0E069022848D10020E3
:1025F00020490866FFF75AFC054606E0FFF756FC3F
:10260000401B022801D903203AE61948006800F06F
:1026100000700028F2D1206AB0F5803F07D114483D
:10262000406820F40030A168084311494860D4E9AB
:10263000080108430E49496821F4741108430C4904
:10264000486001200B490866FFF730FC054607E0AB
:102650003DE0FFF72BFC401B022801D903200FE6C9
:102660000348006800F000700028F2D02FE000005E
:1026700000100240000042428004424200700040CC
:10268000002014490866FFF711FC054606E0FFF735
:102690000DFC401B022801D90320F1E50E4800681B
:1026A00000F000700028F2D111E0E069012800D1AB
:1026B000E6E50948466806F48031206A814204D183
:1026C00006F47011606A814201D00120D8E5002033
:1026D000D6E50000000042420010024070B50446FA
:1026E0000E4615461CB1A069B0F5807F01D10120CE
:1026F00070BD94F8410028B9002084F840002046BD
:1027000000F020F804F108012068FFF7E5F83146F1
:10271000A2682068FFF71CF92946236BD4E901025F
:10272000FFF7B8F8A168206850F8210040F00100D8
:10273000A268216841F82200012084F841000020AD
:10274000D6E7000010B586B0044600BF1E484069B9
:1027500040F480701C4948610846406900F480706C
:10276000019000BF00BF00BF0846806940F0200014
:1027700088610846806900F02000019000BF00BF1A
:1027800000BF0846806940F04000886108468069C3
:1027900000F04000019000BF00BF4CF203700290B7
:1027A00002200390012004900320059002A907480D
:1027B000FFF7C4F94FF68070029002A90448FFF7B2
:1027C000BDF906B010BD0000001002400014014029
:1027D00000180140042808D14FF0E021096941F0B8
:1027E00004014FF0E022116107E04FF0E021096998
:1027F00021F004014FF0E0221161704770B50446EA
:102800002546681EB0F1807F01D301200FE0681ECD
:102810004FF0E02148610F214FF0FF3000F02AFC1B
:1028200000204FF0E021886107200861002070BD82
:1028300070477047704710B5044620680069C0F3C0
:102840004000D8B12068C068C0F34000B0B16FF05C
:10285000020021680861012020772068806900F06B
:10286000030018B12046FFF7E5FF05E0204600F021
:10287000ADF8204600F0ABF8002020772068006912
:10288000C0F38000D8B12068C068C0F38000B0B148
:102890006FF00400216808610220207720688069B9
:1028A00000F4407018B12046FFF7C4FF05E0204651
:1028B00000F08CF8204600F08AF80020207720688D
:1028C0000069C0F3C000D8B12068C068C0F3C00080
:1028D000B0B16FF0080021680861042020772068FB
:1028E000C06900F0030018B12046FFF7A3FF05E020
:1028F000204600F06BF8204600F069F800202077B1
:1029000020680069C0F30010D8B12068C068C0F327
:102910000010B0B16FF01000216808610820207726
:102920002068C06900F4407018B12046FFF782FFAC
:1029300005E0204600F04AF8204600F048F8002064
:1029400020772068006900F0010058B12068C06855
:1029500000F0010030B16FF00100216808612046ED
:1029600000F036F820680069C0F3C01058B1206844
:10297000C068C0F3C01030B16FF0800021680861FA
:102980002046FFF755FF20680069C0F3801058B15A
:102990002068C068C0F3801030B16FF0400021683B
:1029A0000861204600F024F820680069C0F3401058
:1029B00058B12068C068C0F3401030B16FF02000FB
:1029C000216808612046FFF734FF10BD704770474B
:1029D00010B504460448844205D100BF20210348B5
:1029E000FFF754FA00BF10BD640600200018014034
:1029F000704770472DE9F047044620680568206855
:102A0000C668206847694FF00008C14605F00F0806
:102A1000B8F1000F0AD105F0200038B106F020000F
:102A200020B1204600F0F8F9BDE8F087B8F1000FBA
:102A300071D007F0010018B906F4907000286AD030
:102A400005F0010030B106F4807018B1E06B40F081
:102A50000100E06305F0040030B107F0010018B197
:102A6000E06B40F00200E06305F0020030B107F0D7
:102A7000010018B1E06B40F00400E06305F00800CD
:102A800048B106F0200010B907F0010018B1E06B62
:102A900040F00800E063E06B68B305F0200028B167
:102AA00006F0200010B1204600F0B6F92068406919
:102AB000C0F38019E06B00F0080010B9B9F1000F05
:102AC00022D0204600F088F92068406900F04000DC
:102AD000B0B12068406920F0400021684861606B17
:102AE00050B11848616B4863606BFEF753FF10B13B
:102AF000606B416B88470CE02046FFF77AFF08E0E7
:102B00002046FFF776FF04E02046FFF772FF002023
:102B1000E06389E7FFE705F0800030B106F0800050
:102B200018B1204600F046FA7EE705F0400030B1CB
:102B300006F0400018B1204600F05EF974E700BFCF
:102B400072E70000C52D000810B504460CB901203D
:102B500010BDA06900B100E000BF94F8390028B9A9
:102B6000002084F83800204600F028F8242084F85B
:102B700039002068C06820F400502168C8602046F1
:102B800000F09AF92068006920F4904021680861FB
:102B90002068406920F02A00216848612068C068E8
:102BA00040F400502168C8600020E063202084F8D1
:102BB000390084F83A000020CAE7000010B586B05A
:102BC00004462849206888424AD100BF00BF2648F1
:102BD000806940F00400244988610846806900F05B
:102BE0000400019000BF00BF00BF00BF00BF084647
:102BF000806940F0040088610846806900F00400A4
:102C0000019000BF00BF00BF00BF00BF0846806941
:102C100040F4804088610846806900F4804001905B
:102C200000BF00BF00BF48150290022003900120A2
:102C300004900320059002A90C48FEF77FFF4FF493
:102C4000806002900020039002A90848FEF776FFFA
:102C50002520FFF778F9032211462520FFF783F995
:102C600006B010BD003801400010024000080140CD
:102C700010B5034693F83A0020282FD101B10AB9C4
:102C8000012010BD00BF93F83800012801D10220B7
:102C9000F7E7012083F8380000BF99629A85DA854A
:102CA0000020D863222083F83A0000BF002083F878
:102CB000380000BF1868C06840F480701C68E0608D
:102CC0001868406940F001001C6860611868C068BD
:102CD00040F020001C68E0600020D2E70220D0E72E
:102CE0001D4A0168914236D11C49098801F400410E
:102CF00089BB1A49098801F4804171B118490978E2
:102D00000A2903D00021154A118024E013490988BB
:102D100041F40041114A11801DE0114909780D2943
:102D200006D10E49098841F480410C4A118012E015
:102D30000B490978094A1288C2F30D02094B9954CC
:102D400006490988491C054A118011460988C72986
:102D500001DD00211180704700380140180000207B
:102D60001A000020BC040020704700BFFEE700BF2F
:102D7000FEE7704708B508490968C9084FF47A7238
:102D8000B1FBF2F14143009100BF00BF00994A1E20
:102D900000920029F9D108BD0000002010B5FFF70E
:102DA0008BF839F0E5FA012801D039F0ABF810BD05
:102DB0007047000010B50248FFF73DFD10BD000050
:102DC0006406002070B505466C6A0020E085E0844A
:102DD0002046FFF70EFE70BD0168C96821F49071AE
:102DE0000268D1600168496921F0010102685161FE
:102DF000202180F83A10704710B504462068C0685A
:102E000020F040002168C860202084F83900204666
:102E1000FFF7AAFF002010BD70B5044694F83A00F1
:102E2000222847D1A068B0F5805F0CD1206950B945
:102E30000025A66A20684068C0F308003080A06AB8
:102E4000801CA06215E0A56A0026A068B0F5805F2E
:102E500003D0A06828B9206918B920684068287094
:102E600004E02068406800F07F002870A06A401CE1
:102E7000A062E08D401E80B2E085C8B92068C068BD
:102E800020F020002168C8602068C06820F48070AD
:102E90002168C8602068406920F00100216848610D
:102EA000202084F83A002046FFF71AFF002070BD6A
:102EB0000020FCE70220FAE770B5044621680969A2
:102EC00021F44051E2681143226811612269A1682E
:102ED0001143626941EA02052168C96841F20C6246
:102EE000914329432268D1602168496921F44071E6
:102EF000A2691143226851612D4A2168914202D191
:102F0000FFF760F901E0FFF74DF900EBC00101EBBD
:102F1000001162689200B1FBF2F100EBC00202EB1B
:102F2000001263689B00B2FBF3F26423B2FBF3F27E
:102F300002EBC20303EB0212A1EB8201322202EB8D
:102F400001116422B1FBF2F101F0F00100EBC002CB
:102F500002EB001263689B00B2FBF3F26423B2FB46
:102F6000F3F201EB021200EBC00101EB0011636808
:102F70009B00B1FBF3F100EBC00303EB00136668A9
:102F8000B600B3FBF6F36426B3FBF6F303EBC3061C
:102F900006EB0313A1EB8301322303EB011164233E
:102FA000B1FBF3F101F00F0111442268916070BD93
:102FB00000380140014691F83900212828D188685D
:102FC000B0F5805F0BD1086948B90A6A1088C0F370
:102FD00008000B685860086A801C086205E00B6AEC
:102FE000581C086218780B685860C88C401E80B264
:102FF000C88458B90868C06820F080000B68D860A1
:103000000868C06840F040000B68D8600020704736
:103010000220FCE710B50648FFF7ECFC00BF0122D8
:1030200004490348FFF724FE0028F8D110BD000032
:10303000840500201A00002000BFFEE7490050EA86
:10304000C12018BF04204A0D18BF40F0010040F213
:10305000FF72B2EB515F08BF40F00200012808BFC9
:103060000520704702480068C0F302207047000046
:103070000CED00E010B5002804DB0A07130E054A2A
:10308000135406E00A07140E034A00F00F031B1F37
:10309000D45410BD00E400E018ED00E070B5044623
:1030A000002508E02168481C20600878303805EBCE
:1030B000850100EB41052168087800F004F800283C
:1030C000F0D1284670BD0146302903DB392901DCE7
:1030D000012070470020FCE730380A2801D2012087
:1030E000704700207047000010B54021074801F0EC
:1030F000E3FA0022042106482EF020FB054908606F
:1031000003F054FD00200449087010BD10C50020D4
:10311000796C0008980200209402002030B5034624
:10312000B1F90040B2F90050AC4202DDB1F9004003
:1031300001E0B2F900401C80B1F90240B2F902503E
:10314000AC4202DDB1F9024001E0B2F902405C801C
:10315000B1F90440B2F90450AC4202DAB1F90440CA
:1031600001E0B2F904409C80B1F90640B2F9065082
:10317000AC4202DAB1F9064001E0B2F90640DC8067
:103180000120B3F90040B3F90450AC4205DCB3F9B7
:103190000240B3F90650AC4200DD002030BDF8B566
:1031A00004460D4616460027B4F90000B5F9001094
:1031B000884212DBB4F90200B5F9021088420CDB38
:1031C000B4F90400B5F90410884206DCB4F906002D
:1031D000B5F90610884200DC01270FB90020F8BDC0
:1031E0000EB90120FBE72088ADF800006088ADF83B
:1031F000020032466946284600F0A7F808B90020C8
:10320000EDE7A088ADF800006088ADF80200324616
:103210006946284600F099F808B90020DFE72088C1
:10322000ADF80000E088ADF8020032466946284655
:1032300000F08BF808B90020D1E7A088ADF80000B5
:10324000E088ADF8020032466946284600F07DF875
:1032500008B90020C3E70120C1E70246B2F9000027
:10326000B1F90430984213DCB2F90400B1F900302E
:1032700098420DDBB2F90200B1F90630984207DC42
:10328000B2F90600B1F90230984201DB0120704723
:103290000020FCE7F8B504460D461646B4F90400D4
:1032A000B5F90010884211DBB4F90600B5F9021037
:1032B00088420BDBB4F90000B5F90410884205DC44
:1032C000B4F90200B5F90610884201DD0120F8BD0D
:1032D0000EB90020FBE72088ADF800006088ADF84B
:1032E000020032466946284600F02FF808B1002057
:1032F000EDE7A088ADF800006088ADF80200324626
:103300006946284600F021F808B10020DFE7208850
:10331000ADF80000E088ADF8020032466946284664
:1033200000F013F808B10020D1E7A088ADF8000044
:10333000E088ADF8020032466946284600F005F8FC
:1033400008B10020C3E70120C1E72DE9FC5F054675
:103350000E4614464FF0000AB6F90000B5F9001009
:10336000884213DBB6F90000B5F9041088420DDC81
:10337000B6F90200B5F90210884207DBB6F902007F
:10338000B5F90610884201DC4FF0010ABAF1000FCE
:1033900002D10020BDE8FC9F002C01DC0120F9E7F0
:1033A000284618F0E4FF834600EBDB704710284600
:1033B00018F055FF834600EBDB704FEA6008474585
:1033C00001DA384600E0404681464C4500DD4C4677
:1033D0002888ADF800002888204400B2ADF8040029
:1033E0006888ADF802006888204400B2ADF8060095
:1033F000002231466846FFF7A8FF80B1BDF80400FF
:10340000204400B2ADF80400BDF80600204400B22C
:10341000ADF80600314668462AF0A6FBBAE7E88810
:10342000001B00B2ADF80200E888ADF806000022EB
:1034300031466846FFF789FF80B1BDF8040020449B
:1034400000B2ADF80400BDF80200001B00B2ADF8F8
:103450000200314668462AF087FB9BE7A888001BDC
:1034600000B2ADF80000A888ADF804000022314693
:103470006846FFF76AFF80B1BDF80000001B00B28C
:10348000ADF80000BDF80200001B00B2ADF802006C
:10349000314668462AF068FB7CE76888ADF8020090
:1034A0006888204400B2ADF8060000223146684624
:1034B000FFF74BFF80B1BDF80000001B00B2ADF874
:1034C0000000BDF80600204400B2ADF80600314609
:1034D00068462AF049FB5DE701205BE710B5B1F9CA
:1034E0000030B2F90040A34202DAB1F9003001E045
:1034F000B2F900300380B1F90230B2F90240A342C0
:1035000002DAB1F9023001E0B2F902304380B1F9D8
:103510000430B2F90440A34202DDB1F9043001E005
:10352000B2F904308380B1F90630B2F90640A34203
:1035300002DDB1F9063001E0B2F90630C38010BDFA
:103540002DE9FF4104462EF09AF80546002003902D
:1035500034B14749E068086020462EF007FA03E0DE
:103560001CF034F9424908604149096808692AF0A9
:103570004DFA3F480068406920B13D4909684869F3
:103580002AF044FA3A490968C8692AF03FFA3849EA
:103590000968086A2AF03AFA35480068006940B9B3
:1035A000002033490968A1F8500100BF00BFBDE801
:1035B000FF812AF005FE2AF04BFD2D480068B0F887
:1035C000500100284BD02A4800680068007CC0F3F6
:1035D0004000E8B1264800681CF076F9401E06B2AB
:1035E000234800681CF00AF9401E07B23B4600223F
:1035F000114601A8009618F006FF01A81C490968A9
:103600000968896B48601A48006807F001FF00BF2D
:103610004FF4807116480068303024F02AF92021D8
:103620001348006800F5987024F023F90020104931
:103630000968A1F8500128462EF014F803900C48B0
:1036400000680068406A50B109490968086808497B
:10365000096809684B6A07490A680399984723F083
:1036600035FE00F03FF800F007F800BF9FE70000CC
:10367000480100204401002010B5002416E0C4EBEE
:10368000C4000C4951F8200030B1C4EBC401094A10
:1036900052F8210023F0CCFEC4EBC401054A02EB32
:1036A00081001C2124F0E5F8601CC4B2042CE6DB88
:1036B00010BD0000ECC500200146094A10680BE06F
:1036C00042688A4202D002688A4204D1027E22F015
:1036D0000102521C027640690028F1D170470000B7
:1036E0001C0100207047000010B50421014800F0C3
:1036F000E3FF10BD04C5002010B51C21014800F0F7
:10370000DBFF10BD1CC500202DE9FF4F8BB0044628
:103710009A46199DBAF1000F11D11898B0F5807F23
:103720000DD10020208060800C98401E00B2A08047
:103730000D98401E00B2E0800FB0BDE8F08FB5F9E3
:1037400000004042189948430121C1EB202000B2FB
:103750002080B5F902004042189948430121C1EB8D
:10376000202000B26080B5F900100C98401A18991A
:103770004843022101EB202000B2A080B5F90210DD
:103780000D98401A18994843022101EB202000B2FD
:10379000E080BAF1000F14D120882988084400B2D3
:1037A000208060886988084400B26080A0882988E9
:1037B000084400B2A080E0886988084400B2E08034
:1037C000BAE70A209AFBF0F00A900A98401C099088
:1037D0000A9800EB8000AAEB400B0A9800B22EF08A
:1037E0004BFA0890099800B22EF046FA07900A9812
:1037F0005A3000B22EF040FA069009985A3000B2C2
:103800002EF03AFA0590CBF10A0108984143079847
:1038100000FB0B100A2190FBF1F6CBF10A01069890
:103820004143059800FB0B100A2190FBF1F776113C
:103830007F11B4F90080B4F9029007FB08F006FB91
:103840001900298801EBA02000B2ADF8100006FB9A
:1038500008F007FB0900698801EBA02000B2ADF871
:103860001200B4F90480B4F9029007FB08F006FBDB
:103870001900298801EBA02000B2ADF80C0006FB6E
:1038800008F007FB0900698801EBA02000B2ADF841
:103890000E00B4F90080B4F9069007FB08F006FBAF
:1038A0001900298801EBA02000B2ADF8080006FB42
:1038B00008F007FB0900698801EBA02000B2ADF811
:1038C0000A00B4F90480B4F9069007FB08F006FB7F
:1038D0001900298801EBA02000B2ADF8040006FB16
:1038E00008F007FB0900698801EBA02000B2ADF8E1
:1038F0000600BDF90800BDF91010884202DABDF9D2
:10390000080001E0BDF91000BDF90410BDF90C205C
:10391000914202DABDF9041001E0BDF90C108842B1
:103920000BDABDF90800BDF91010884202DABDF9C2
:1039300008000DE0BDF910000AE0BDF90400BDF972
:103940000C10884202DABDF9040001E0BDF90C0058
:103950002080BDF90800BDF91010884202DDBDF9D4
:10396000080001E0BDF91000BDF90410BDF90C20FC
:10397000914202DDBDF9041001E0BDF90C1088424E
:103980000BDDBDF90800BDF91010884202DDBDF95C
:1039900008000DE0BDF910000AE0BDF90400BDF912
:1039A0000C10884202DDBDF9040001E0BDF90C00F5
:1039B000A080BDF90A00BDF91210884202DABDF9F3
:1039C0000A0001E0BDF91200BDF90610BDF90E2094
:1039D000914202DABDF9061001E0BDF90E108842ED
:1039E0000BDABDF90A00BDF91210884202DABDF9FE
:1039F0000A000DE0BDF912000AE0BDF90600BDF9AC
:103A00000E10884202DABDF9060001E0BDF90E0091
:103A10006080BDF90A00BDF91210884202DDBDF9CF
:103A20000A0001E0BDF91200BDF90610BDF90E2033
:103A3000914202DDBDF9061001E0BDF90E10884289
:103A40000BDDBDF90A00BDF91210884202DDBDF997
:103A50000A000DE0BDF912000AE0BDF90600BDF94B
:103A60000E10884202DDBDF9060001E0BDF90E002E
:103A7000E08000BF60E62DE9F74F86B0044620687D
:103A80000590B4F908100798A0EB0108B4F90A10E2
:103A90000898A0EB0109E089B0F5807F13D1206B75
:103AA00000FB08F0E16A01FB1901606A00EBA10B61
:103AB000E06A00FB08F0216B01FB0901A06A00EB42
:103AC000A10004902FE0A08980B9A06B00FB08F052
:103AD0004FEA6018A06B00FB09F04FEA6019606ABA
:103AE00000EB080BA06A484404901CE0A06B00FBAC
:103AF00008F04FEA6018A06B00FB09F04FEA60196C
:103B0000206B00FB08F0E16A01FB1901606A00EB21
:103B1000A12BE06A00FB08F0216B01FB0901A06A00
:103B200000EBA12004904FEA2B2604980712B4F969
:103B30000400B04203DC002009B0BDE8F08F002E85
:103B400001DA0020F8E7B4F90600B84201DC0020F1
:103B5000F2E7002F01DA0020EEE73420005DC0F329
:103B6000800050B33420005DC0F3400078B90225D6
:103B7000B4F904007843684306FB050A059800EB96
:103B80000A012A4604F1140023F015FE2CE0032557
:103B9000B4F904007843684306FB050A6A1E0598D9
:103BA00000EB0A0104F1140023F005FE0AEB050006
:103BB000401E0599095CA17516E04FF0000A00252A
:103BC000208A03463AB231B2019004F1180020F085
:103BD0008FFA0290BDF80800A0823AB231B204F127
:103BE000180020F0E5F9A0753420005D00F0010018
:103BF000B0B14FF47F40002100F47C4241EA521101
:103C0000C0F3C40211430191BDF804201146029192
:103C1000A08ABDF80810884201D100208CE700BFBF
:103C2000E07C08B9012087E70FFA8BF1A18704989F
:103C300001B2E18731B24020015339B24220015331
:103C4000C4F844A084F84850204600F003F80390DC
:103C5000039871E72DE9F04F8DB00446D4F8009039
:103C600094F83C000C9094F83E000B900C9870284F
:103C70000BDA4FF0FF35B4F940002844002800DA91
:103C800000250C988030C7B213E00C9890280EDD08
:103C90000125B4F940002844B4F90410884200DB3F
:103CA00000250C98C0F1FF008030C7B201E000256C
:103CB000FF270B9870280CDA4FF0FF36B4F942005A
:103CC0003044002800DA00260B98803000F0FF080E
:103CD00015E00B9890280FDD0126B4F9420030441E
:103CE000B4F90610884200DB00260B98C0F1FF00F3
:103CF000803000F0FF0802E000264FF0FF08A08AA5
:103D00000A90A07D06900020059004900390342036
:103D1000005DC0F3800000285BD094F84800626C1E
:103D200000FB052000EB0901022209A823F043FD56
:103D3000B4F9040094F848205043626C00FB06205C
:103D400000EB0901022208A823F035FDB4F90400B4
:103D500094F848205043626C00FB062294F8480017
:103D600000FB052000EB0901022207A823F023FD38
:103D70003420005DC0F3400000287ED094F8480055
:103D8000616C00FB05110844401E19F80000059005
:103D9000B4F9040094F848104843616C00FB061124
:103DA00094F848000844401E19F800000490B4F943
:103DB000040094F848104843616C00FB061194F825
:103DC000480000FB05110844401E19F8000003904C
:103DD00053E0208A0090B4F942204020005B284440
:103DE00001B204F11800009B20F082F90990208AAA
:103DF00000904220005B304402B2B4F9401004F15C
:103E00001800009B20F074F90890208A009042204E
:103E1000005B304402B24020005B284401B204F150
:103E20001800009B20F064F907903420005DC0F377
:103E3000400010B3B4F942204020005B284401B296
:103E400004F1180020F0B4F805904220005B3044E3
:103E500002B2B4F9401004F1180020F0A9F804905F
:103E60004220005B304402B24020005B284401B293
:103E700004F1180020F09CF80390BA46BB463420A9
:103E8000005DC0F34000E0B306987843C7F1FF0C33
:103E9000059B03FB0C00C0F3072104987843C7F18E
:103EA000FF0C039B03FB0C00C0F3072201FB08F08F
:103EB000C8F1FF0302FB0300030AA375022905DC16
:103EC000022A03DC00200DB0BDE8F08F022901DCDE
:103ED0004FF00008022A01DC4FF0FF080698022884
:103EE00001DC4FF0000A0598022801DC4FF0FF0AC0
:103EF0000498022801DC4FF0000B0398022803DC31
:103F000000E002E04FF0FF0B03E0BA46BB46FF21A2
:103F1000A175BAF1000F02D1099802900BE0BAF135
:103F2000FF0F02D10A98029005E05246DDE9091020
:103F30001AF072FD0290BBF1000F02D107980190B8
:103F40000BE0BBF1FF0F02D10898019005E05A4643
:103F5000DDE907101AF060FD0190B8F1000F03D100
:103F6000BDF80400A0820FE0B8F1FF0F03D1BDF847
:103F70000800A08208E04246DDE901101AF04CFD7D
:103F80000090BDF80000A08201209CE72DE9F05FC1
:103F90000446B4F9080001026162B4F90A000102A2
:103FA000A162B4F90C000A2190FBF1F56F1CB4F981
:103FB0000C0005EB8501A0EB4106684200B22DF034
:103FC0005BFE8046784200B22DF056FE8146C5F178
:103FD0005A0000B22DF050FE8246C7F15A0000B2DE
:103FE0002DF04AFE8346C6F10A0000FB08F009FBEB
:103FF00006000A2190FBF1F1E162C6F10A0000FB24
:104000000AF00BFB06000A2190FBF1F12163E06A44
:104010004111E162206B41112163A07C20F077F90E
:104020003421095D60F3000134200155A07C20F0AB
:1040300051F93421095D60F3410134200155A07C20
:10404000042805D0A07C052802D0A07C062807D132
:104050003420005D20F00400001D3421085505E0E7
:104060003420005D20F004013420015521682162D4
:10407000A06920F0E000A061A17CA06961F30400C8
:10408000A061A188A06961F39420A061E188A06982
:1040900061F35F50A061E08900EBD071491001F538
:1040A000001191FBF0F2A263FF21A175208AA0828A
:1040B000BDE8F09F2DE9F743054616460024134C52
:1040C0002DF0DDFA8046334629462046019A20F03D
:1040D000CDFD07465FB900BF00BF2C21204623F06D
:1040E000C8FB4FF00040A0620020BDE8FE83002026
:1040F000A062E06918B940462DF0B4FAE061E069C9
:1041000008B90120E0612046EFE7000040C500202B
:1041100010B51421114800F0CFFA20F059FD0446E3
:1041200000BF1CB900BF00BF00BFFEE700BF14B94D
:1041300000BF00BF10BD0A49204620F031FE0949EA
:10414000204620F02FFE0849204620F02DFE07498A
:10415000204620F023FE00BFECE7000028C5002029
:10416000ED430208C1480208DD4A0208B5430208CF
:1041700070B504460D461021284623F07AFB2068CE
:104180000078012804D1208A2880608A68800CE0A9
:1041900020680078022802D1E068686005E02068A5
:1041A0000078042801D10A2068602068406820B1A6
:1041B000206829464268904701E000BF00BF70BDFB
:1041C0002DE9FE430446A66AEEB9A18A208A084476
:1041D00001B2A182E18A608A084401B2E1822046EC
:1041E0000EF02FFE06460EB9BDE8FE83204612F003
:1041F00011FD0022092130461FF054F86078C0F309
:10420000400000B1F0E7208A10B9608A002870D021
:1042100000200290019094F83C0000F00F00032869
:1042200012D1304625F072FD0746304625F0F6FCE7
:10423000804603200090B4F910103B4642463046B9
:104240000EF0F6F8029012E0304625F0E1FD074648
:10425000304625F055FC80460C200090B4F9121031
:1042600043463A4630460EF0E3F8019000BF304630
:1042700025F0A6FC054605F0010028B9BDF90800A7
:10428000002801DD0020029005F0020028B9BDF9E8
:104290000800002801DA0020029005F0040028B987
:1042A000BDF90400002801DD0020019005F00800A0
:1042B00028B9BDF90400002801DA0020019001AA04
:1042C00002A9204631F06CFC0023BDF90420BDF9A1
:1042D0000810304628F084FCA08ABDF80810084475
:1042E00001B2A182E08ABDF80410084401B2E18263
:1042F00000BF00BF78E72DE9F84F0446D4F828B096
:10430000BBF1000F01D1BDE8F88F94F83C0000F03C
:104310000F0000B9F7E721F02BF806463068477E1A
:104320004021584627F07CF910B900216183218390
:10433000584625F059FD8046584625F05FFD054654
:1043400094F83C0000F00F000C2843D10021218399
:104350001DBBB4F91A00C7F164014843642190FB06
:10436000F1F001B26183584625F0CAFB81465846F8
:1043700025F04EFD82460C200090B4F91A104B46F1
:10438000524658460EF054F86083B4F91A200023C0
:104390001946584628F024FC69E0204631F057FCC5
:1043A0000090002161836A46204631F0F9FBBDF997
:1043B000003041F6FF72514258460EF0EBFE814646
:1043C000BDF80000484402B201230021584628F0FD
:1043D00007FC4CE094F83C0000F00F00032846D1A5
:1043E00000216183B8F1000F23D1B4F91800C7F19F
:1043F00064014843642190FBF1F001B221835846E7
:1044000025F00CFC8146584625F080FC82460320AE
:104410000090B4F9181053464A4658460EF008F872
:104420002083B4F9181000231A46584628F0D8FB08
:104430001DE0204631F0F0FB009000212183002296
:104440006946204631F0ACFBBDF9003041F6FF7201
:10445000514258460EF004FE8146BDF80000484423
:1044600001B201230022584628F0BAFB00BF208B7E
:10447000002860D1608B00285DD11DBB584625F017
:10448000C7FC8146584625F03BFB8246B9F1000F38
:1044900002DCBAF1000F14DDB9F1000F06DA0123D6
:1044A0004A460021584628F09BFB0AE0BAF1000F6B
:1044B00007DA0123CAF1000002B20021584628F0B1
:1044C0008FFB00BFB8F1000F23D1584625F0A6FBA3
:1044D0008146584625F01AFC8246B9F1000F02DCED
:1044E000BAF1000F14DDB9F1000F06DA0123002242
:1044F0004946584628F074FB0AE0BAF1000F07DA83
:1045000001230022CAF1000001B2584628F068FBDE
:1045100000BF32460A2158461EF0C4FE6078C0F340
:10452000400000B1EFE694F83C0020F00F0184F861
:104530003C100021A16200BFE5E62DE9FF410446E1
:104540000F4614B91BF042F904460CB9BDE8FF81CF
:104550001FB90020A4F85001F8E70020ADF80800CA
:10456000ADF80A0020461BF049F9401E00B2ADF834
:104570000C0020461BF0A8F9401E00B2ADF80E005A
:1045800002AA39466846FEF7C9FD064606B9DDE7C8
:104590002068007CC0F3400060B10298206303985B
:1045A00060630120A4F85001606810B160682DF0CC
:1045B000E9F9CBE72068806918B12068694682690B
:1045C000904700250BE004F1300000EBC50100220C
:1045D0006846FEF7E4FD00B1B8E7681C85B2B4F8A0
:1045E0005001A842EFDCB4F85001202809DAB4F8F1
:1045F000502104F1300101EBC200694617F09FFD24
:104600000BE00020A4F85001B4F8502104F130016F
:1046100001EBC20002A917F092FDB4F85001401C52
:10462000A4F85001606810B160682DF0ABF900BFCC
:104630008CE770B50546284600F013F804460026BE
:104640000CE02146284600F024F80646214628467C
:1046500000F086F8204622F0EBFE3446002CF0D124
:1046600070BD014609B9002070474868FCE770B585
:10467000064600243046FFF7F4FF054605E0641CBB
:104680002946304600F005F80546002DF7D12046B2
:1046900070BD02460B461068001D03441868704741
:1046A00002460B461068034418687047014609B972
:1046B000002070478868FCE7002242608260CA1CC4
:1046C00022F003010160704770B50446216801F1D2
:1046D000080022F0DFFD0546A5B10022294620464C
:1046E0002EF0B6FD2946204662682EF0A3FD6068D4
:1046F00020B12A46204661682EF0AAFD6560A068B8
:1047000000B9A560284670BD70B50446216801F166
:10471000080022F0BFFD0546A5B10022294620462B
:104720002EF088FD29462046A2682EF091FDA06853
:1047300020B12A462046A1682EF07CFDA560606865
:1047400000B96560284670BD014609B9012070476F
:10475000486818B9886808B90120F8E70020F6E72A
:104760002DE9F04104460D460CB9BDE8F081204624
:10477000FFF777FFA8420FD129462046FFF789FFB0
:104780006060606810B90020A0602FE00022204621
:1047900061682EF05DFD29E02046FFF787FFA84203
:1047A0000FD129462046FFF77BFFA060A06810B913
:1047B000002060601AE000222046A1682EF03AFD39
:1047C00014E029462046FFF76BFF0646294620469F
:1047D000FFF75FFF07463A46314620462EF02AFD96
:1047E0003246394620462EF033FD00BF00BFBCE7FD
:1047F00010B504462068806818B120682146826898
:1048000090472068006828B1206800682060204632
:10481000FFF7EEFF10BD0146886818B18868B0F94F
:10482000160070470020FCE72DE9F04F93B00546D5
:104830008B4691469A461C9E688C20F00400001D11
:104840006884A5F8209032895946284626F064FCF1
:104850001290A5F820A032895946284626F05CFC23
:104860001190688C20F004006884DDE91110884202
:104870000CD1DDE91110884208D1BDF84800BDF81F
:104880004410884202D113B0BDE8F08FA5F8209003
:1048900032895946284626F03FFC1290A5F820A000
:1048A0005946284610F099FB10903189109A1068EB
:1048B000129A2BF028FA3089602833D147F6FF711D
:1048C0001298884202D0119888422BD1284626F0AF
:1048D0004AFE0F9000EBD0704710284626F043FEAA
:1048E0000F9000EBD0704FEA600847F6FF71129806
:1048F000884208D1781C08F10101884200DA01E001
:1049000008F10100129047F6FF711198884208D112
:10491000781C08F10101884200DA01E008F1010089
:10492000119000BF2448FFF7CFFE044600BF1CB91A
:1049300000BF00BF00BFFEE700BF04B9A3E71298A5
:10494000E06011982061ACB325603089A080C4F884
:1049500008B0684616F0B0FD2146684616F06BFEBA
:104960001649684616F02BFE1548029000BF1549FF
:10497000684616F036FEFF220021684616F047FE14
:104980003188684616F037FE7188684616F012FEC8
:10499000F068069000BF6846002190F83E2061F361
:1049A000000280F83E2000BF30690590684616F08E
:1049B0005BFE00BF00BF66E734C5002061AE0308A0
:1049C0000DB103083DB0030810B514210148FFF7ED
:1049D00073FE10BD34C500202DE9FE4F04460F467E
:1049E00090464FF0000900256BE1E06800EBC50040
:1049F0004068C0F3406000B162E1E16801EBC501CD
:104A0000496821F07F4028F0FEFF064626EA0700AD
:104A100008B9012000E00020029026EA080008B949
:104A2000012000E000200190DDE90101814272D007
:104A3000E06850F835A04FF0000B6A4641F61001CF
:104A400050462AF0F9FD10B14FF0010BA9E06A467B
:104A500041F6110150462AF0EFFD10B14FF0010B65
:104A60009FE06A4641F6120150462AF0E5FD10B17A
:104A70004FF0010B95E06A4641F6130150462AF0CB
:104A8000DBFD10B14FF0010B8BE06A4641F61501DA
:104A900050462AF0D1FD10B14FF0010B81E06A467B
:104AA00041F6140150462AF0C7FD10B14FF0010B3A
:104AB00077E06A4641F2690150462AF0BDFD10B127
:104AC0004FF0010B6DE06A4643F20C0150462AF0AC
:104AD000B3FD10B14FF0010B63E06A4643F20D01E4
:104AE00050462AF0A9FD10B14FF0010B59E06A467B
:104AF00041F2010150462AF09FFD10B14FF0010B29
:104B00004FE06A4641F2040150462AF095FD18B183
:104B10004FF0010B45E0D2E06A4641F202015046F7
:104B20002AF08AFD10B14FF0010B3AE06A4641F2DB
:104B3000030150462AF080FD10B14FF0010B30E028
:104B40006A4641F2050150462AF076FD10B14FF059
:104B5000010B26E06A4641F2060150462AF06CFD40
:104B600010B14FF0010B1CE06A4641F23201504691
:104B70002AF062FD10B14FF0010B12E06A4643F6D5
:104B80000F0150462AF058FD10B14FF0010B08E01C
:104B90006A4643F60E0150462AF04EFD08B14FF02A
:104BA000010BBBF1000F02D00320BDE8FE8F6A4667
:104BB00040F60A0150462AF03FFD10B14FF00209BD
:104BC0007CE06A4640F60B0150462AF035FD10B1F4
:104BD0004FF0020972E06A4643F60F0150462AF090
:104BE0002BFD10B14FF0020968E06A4643F60E0152
:104BF00050462AF021FD10B14FF002095EE06A46EE
:104C000040F63C0150462AF017FD10B14FF0020962
:104C100054E06A4640F63D0150462AF00DFD10B1C1
:104C20004FF002094AE06A4640F63A0150462AF03F
:104C300003FD10B14FF0020940E06A464FF40461F1
:104C400050462AF0F9FC10B14FF0020936E06A46EE
:104C500040F6450150462AF0EFFC10B14FF0020932
:104C60002CE06A4640F6410150462AF0E5FC10B1BE
:104C70004FF0020922E06A4640F6420150462AF00F
:104C8000DBFC10B14FF0020918E06A4640F6430120
:104C900050462AF0D1FC10B14FF002090EE06A46EE
:104CA00040F6490150462AF0C7FC10B14FF0020906
:104CB00004E0B9F1000F01D14FF0010900BF00BFBE
:104CC0006D1C608CC0F3C500A8423FF68EAE48460E
:104CD0006BE70000014800687047000048010020B1
:104CE00070470146C1F30412072A00DD0722D0B243
:104CF0007047000010B518210348FFF7DDFC0120C4
:104D00002CF058FD10BD0000E0C400202DE9F0415A
:104D100005460F4616460DB9BDE8F0812846FBF75B
:104D2000E1FC8046394628460A4A12689047074601
:104D3000E8193146074A1268904706463C4603E0A8
:104D4000A019285C2855641CA8EB0600A042F7D2E5
:104D500000BFE1E7E80200202DE9F04106460C46DD
:104D600017461D4629463046084A1268904720607B
:104D7000206830B1296888190021044A12689047D8
:104D800000E000203860BDE8F0810000E002002073
:104D90002DE9F04F87B004460F4692469846DDE96C
:104DA00010560DB1002028801CB9002007B0BDE8C6
:104DB000F08F207808B90020F8E70FB90020F5E758
:104DC0004FF0000906F0020010B906F0040098B197
:104DD000002000E0401C215C0A2905D0215C0D293F
:104DE00002D0215C0029F5D1215C01B1401C15B134
:104DF0004FF0FF312980D9E706F0020008B141F6F3
:104E0000FF7800200690059038E000200490059877
:104E100008B9012000E0002006A904AACDE900623B
:104E2000CDE90210059960184346524639462CF0E8
:104E30005BFF83460498A8EB00000FFA80F8049803
:104E400048440FFA80F9BBF1000F00D11CE005982F
:104E50005844059020780A2802D020780D2800D1E7
:104E600012E00598205C0A2803D00598205C0D28E4
:104E700003D10598401C059006E000BF0598205C12
:104E800010B1B8F1000FC0DC00BF059870B905A9DA
:104E90002046094A12689047834635B10022594698
:104EA00038461EF040FB0FFA80F900BF0DB1A5F89F
:104EB000009005987AE70000E00200202DE9F04715
:104EC00006468846174606B10FB9BDE8F08730465A
:104ED000FBF708FC81463846FBF704FC044604B99E
:104EE000F3E704EB090A414630460B4A1268904743
:104EF0008046554603E0281B305C70556D1E08EB5C
:104F00000400A842F7D906EB08002246394622F0F1
:104F10006AFC00BFD9E70000E8020020024600203A
:104F20000FA31B788B4211D113781BB90123137087
:104F300001200BE01378012B02D10023137005E050
:104F40001378022B02D10023137001201378012B58
:104F500004D1202901D102231370012070470000E1
:104F60002300000073B582B00646039801903246D4
:104F700000210846019B2DF0D3F905460020019041
:104F80000024681C22F086F9044600BF1CB900BF4B
:104F900000BF00BFFEE700BF14B9002004B070BD21
:104FA000002060553246691C2046039B2DF0B8F95D
:104FB0002046F3E72DE9F04781460E4614461F468A
:104FC000DDF820A035461BE0600800FB07552946A8
:104FD0004846D047B0F1000809DD04F0010080F038
:104FE0000100C0EB5404E8190546064608E0B8F194
:104FF000000F02DA6408354602E02846BDE8F08773
:10500000002CE1D10020F9E72DE9FF4F85B0834660
:10501000DDE9158ADDE91349DDE91775129E05F012
:105020000200F8B94FB105F0010030B1B9F1000F3D
:1050300002D105F00C0000B17F1E03E030222046B3
:10504000641C3254544501D2202CF7D303E03022A3
:105050002046641C325405F0010018B1BC4201D254
:10506000202CF4D305F01000B0B305F4806050B9E3
:105070004CB1544501D0BC4205D1641E1CB1B8F1FD
:10508000100F00D1641EB8F1100F09D105F02000F7
:1050900030B9202C04D278222046641C325415E00A
:1050A000B8F1100F09D105F0200030B1202C04D246
:1050B00058222046641C325408E0B8F1020F05D192
:1050C000202C03D262222046641C3254202C03D2AE
:1050D00030222046641C3254202C16D2B9F1000F25
:1050E00004D02D222046641C32540EE005F004004A
:1050F00020B12B222046641C325406E005F0080043
:1051000018B120222046641C3254CDE90275CDE945
:105110000064584606A90EC900F0A2F809B0BDE81F
:10512000F08F2DE9FF4F8FB08046DDE91FABDDE941
:105130001D96219D1C9C00270CB925F0100505F437
:10514000806000B1E4B100BFB4FBF6F106FB114191
:10515000C8B20A2802DA00F1300107E005F02001A8
:1051600009B1412100E0612101440A39CBB239463D
:105170007F1C07AA5354B4FBF6F40CB1202FE3D3E1
:1051800007A8CDE904AB8DE8810203960695404659
:1051900010A90EC9FFF738FF13B0BDE8F08F2DE955
:1051A000FF4F8FB0DDE9217BDDF89080209EDDE9A7
:1051B0001C454FF00009002184EA010069400843C2
:1051C00001D128F0100808F4806028B1002184EA99
:1051D0000100694008432DD000BF32463B462046BF
:1051E0002946FBF796F802F0FF0ABAF10A0F02DA35
:1051F0000AF1300007E008F0200008B1412000E08B
:10520000612050440A38C2B2484609F1010907A991
:105210000A5432463B4620462946FBF77AF80446B4
:105220000D46002184EA01006940084302D0B9F12B
:10523000200FD2D32398CDE9036BCDE9050807A948
:105240001E98CDE9001902900FA80FC8FFF7DCFEE9
:1052500013B0BDE8F08F9A4200D28854704770476F
:105260002DE9FF5F05461446DDE90EA6DDE910874E
:10527000A34607F0020078B907F0010060B9B14613
:1052800007E02246641C2020039B0199A84709F1EE
:105290000109C145F5D300BF08E02246641C711E18
:1052A0000E461AF80100039B0199A847002EF4D17D
:1052B00007F0020050B105E02246641C2020039B49
:1052C0000199A847A4EB0B004045F5D3204604B054
:1052D000BDE8F09F00BF70472DE9FF4F8BB0074638
:1052E00000250C9800B9FA4FEAE20E9800782528BC
:1052F0000AD02A466D1C0E990878DDE90C13B847D0
:105300000E98401C0E90DBE20E98401C0E9000247C
:1053100000BF0E9800782B2819D004DC20281ED05E
:1053200023282CD123E02D2809D0302827D144F080
:1053300001040E98401C0E9001200A9022E044F0D7
:1053400002040E98401C0E9001200A901AE044F0CE
:1053500004040E98401C0E9001200A9012E044F0C4
:1053600008040E98401C0E9001200A900AE044F0B8
:1053700010040E98401C0E9001200A9002E00020BC
:105380000A9000BF00BF0A980028C2D180460E993B
:105390000878FDF798FE20B10EA8FDF77FFE804645
:1053A00012E00E9800782A280ED1189901C9189198
:1053B000002804DA44F00204C0F1000800E080464E
:1053C0000E99491C0E9100BF4FF000090E9800780D
:1053D0002E281FD144F480640E98401C0E900E9924
:1053E0000878FDF770FE20B10EA8FDF757FE814644
:1053F00010E00E9800782A280CD1189901C918914C
:10540000002801DD014600E0002189460E99491C73
:105410000E9100BF0E9800786C280AD004DC682832
:1054200016D06A2835D128E0742820D07A2830D1C7
:1054300029E044F480740E98401C0E900E98007879
:105440006C2804D144F400740E98401C0E9021E0A6
:1054500044F080040E98401C0E900E980078682846
:1054600004D144F040040E98401C0E9012E044F425
:1054700080740E98401C0E900CE044F400740E985A
:10548000401C0E9006E044F480740E98401C0E9070
:1054900000E000BF00BF0E98007869281DD00EDC28
:1054A000622821D006DC25287ED050281AD0582822
:1054B0007BD115E0632879D06428F9D10CE07328FA
:1054C00075D004DC6F280ED07028F1D109E0752862
:1054D00004D07828ECD102E000BF00BF00BF00BFBD
:1054E00000BF00BF00BF00BF0E980078782803D02F
:1054F0000E980078582801D1102623E00E980078E5
:10550000702803D00E98007850280CD1102644F053
:10551000100444F480740E984078562812D10E98E6
:10552000401C0E900EE00E9800786F2801D10826DE
:1055300008E00E980078622801D1022602E00A26CF
:1055400024F010040E980078582803D00E980078A4
:10555000502801D144F020040E980078692805D025
:105560000E980078642801D024F00C0404F48060C4
:1055700008B124F001040E980078692803D00E9831
:10558000007864287CD104F40070B8B31898C01D6A
:1055900020F007001890D0E900AB189A0832189252
:1055A0000020CDE9069803E073E17CE1F2E01CE124
:1055B000CDE904600894BAEB00017BEB000001DA4E
:1055C000012000E00020002102900846B1EB0A0112
:1055D00070EB0B0002DA5046594605E00020014608
:1055E000B0EB0A0061EB0B01CDE900012A46384619
:1055F000DDE90C13FFF7D3FD0546C7E0FFE704F430
:105600008070D0B1189850F804AB18904FEADA7057
:10561000CDE9039802960594BAF1000F01DD5146D9
:1056200001E0CAF10001CDE900102A463846DDE963
:105630000C13FFF776FD0546A8E004F0400028B102
:10564000189810F8041B1890C8B20DE004F0800000
:1056500028B1189830F8041B189008B204E0189884
:1056600000681899091D189182464FEADA70CDE951
:10567000039802960594BAF1000F02DD514602E04C
:105680000BE0CAF10001CDE900102A463846DDE9F9
:105690000C13FFF746FD054678E00E980078562873
:1056A00018D1189850F804AB1890DAF80400006884
:1056B000099009980090DAF800300D98421B0C9878
:1056C00041193846FFF708FE0544002009905DE0C7
:1056D0005F52000804F40070D0B11898C01D20F08B
:1056E0000700CDE90698089418900020CDE90460E1
:1056F0000290189903C9189A08321892CDE900014E
:105700002A463846DDE90C13FFF749FD05463DE022
:1057100004F4807098B10022CDE9039802960594B4
:10572000189800681899091DCDE9000218912A46B9
:105730003846DDE90C13FFF7F4FC054626E004F0DB
:10574000400028B1189810F8041B1890C8B20DE05A
:1057500004F0800028B1189830F8041B189088B223
:1057600004E0189800681899091D189182460020D5
:10577000CDE900A0CDE90398029605942A46384663
:10578000DDE90C13FFF7CDFC054600BF0E98401C69
:105790000E9093E0012604F0020050B905E02A467D
:1057A0006D1C2020DDE90C13B8473046761C4045BF
:1057B000F5D3189911F8043BD8B22A466D1C1891FC
:1057C000DDE90C13B84704F0020050B105E02A46A9
:1057D0006D1C2020DDE90C13B8473046761C40458F
:1057E000F5D30E98401C0E9068E0189850F804AB62
:1057F00018905046B9F1000F01D0494601E04FF032
:10580000FF310A46014600E0491C0B781BB1131E0C
:10581000A2F10102F8D10E1A04F4806028B14E45BD
:1058200001D2304600E04846064604F0020050B976
:1058300005E02A466D1C2020DDE90C13B8473046F0
:10584000761C4045F5D306E01AF8010B2A466D1C7C
:10585000DDE90C13B8479AF8000040B104F4806009
:105860000028F1D0B9F10000A9F10109ECD104F050
:10587000020050B105E02A466D1C2020DDE90C1322
:10588000B8473046761C4045F5D30E98401C0E9024
:1058900014E02A466D1C2520DDE90C13B8470E984C
:1058A000401C0E900AE02A466D1C0E990878DDE92E
:1058B0000C13B8470E98401C0E9000BF00BF00BFED
:1058C0000E98007800287FF410AD0D98854201D223
:1058D000284601E00D98401E02460020DDE90C1329
:1058E000B84728460FB0BDE8F08F2DE9F0410446D7
:1058F0000E46002774B13146204600F02DF80546CB
:10590000B5F5003F05D20C2D01D9284600E00C204A
:10591000074600BF3846BDE8F081024600BF481E7A
:10592000084018B100BF00BF00BFFEE700BF481E1F
:105930001040101A704710B502464B1E13444C1EFF
:1059400023EA040000BF4B1E0B401BB100BF00BF89
:1059500000BFFEE700BF10BD024600BF481E084062
:1059600018B100BF00BF00BFFEE700BF481E1044D3
:105970004B1E9843704700002DE9F04180460E46CB
:10598000444601206086002500270DE056F82700D8
:1059900025A1FAF76DFF10B1681C85B202E0608E98
:1059A000401C6086781C87B256F8270020B156F854
:1059B000270000780028E9D1208EA84201D1BDE857
:1059C000F081A06A20B1A06A21F032FD0020A0621F
:1059D000E06A20B1E06A21F02BFD0020E062E800DF
:1059E00021F058FCA06200BFA06A18B900BF00BF38
:1059F00000BFFEE700BF680021F04CFCE06200BF82
:105A0000E06A18B900BF00BF00BFFEE700BFA06A90
:105A100008B1E06A00B900256900E06A21F029FFB9
:105A2000258600BFCBE700000A0000002DE9F84FF3
:105A300081460E46924699F8090000F007000228B8
:105A400001D1304600E050468346564501DD3046E0
:105A500000E050460746032000EB470020F003001B
:105A600000F110053948006839490968A0EB0108C0
:105A7000002405EB080037490968884206D23348FC
:105A80000468606820F0004060603AE031480068D7
:105A9000854221D813E04FF0FF3000900022694684
:105AA0002D4811F067FF002269462C4811F062FF73
:105AB0002648006826490968A0EB010800BF08EBEA
:105AC0000500244909688842E5D8204804686068D0
:105AD00020F00040606014E0284621F0DBFB044623
:105AE00000BF1CB900BF00BF00BFFEE700BF14B974
:105AF0000020BDE8F88F606820F0004000F1004011
:105B0000606032465946484603F0D0FD2060606828
:105B100000F04040401C6060606820F080406060A1
:105B2000A781A4F80EB06068C00F20B1204600F134
:105B30001001A16008E0054800681030A06003482B
:105B400000682844014908602046D2E7500100203F
:105B5000AC0200204C010020252E0108A97B010881
:105B600001B59CB004211C9827F030FA1C9823F052
:105B7000E1F91B9001211B9827F03AFAFC4AFD49F4
:105B80001B9827F075FA42F264011B9827F088FAF7
:105B900000224FF496711B9827F0DAFD1B9820F035
:105BA00045F81A90F4A11A9821F048F80022F64915
:105BB0001A9822F022FC01200021009102230A46BB
:105BC000CDE901101A9827F022FA1B9817F098FED9
:105BD000EE4908601EF016F90490EC48016804983C
:105BE0001EF04AF84FF48061E848006822F0B8FBE4
:105BF00001200322CDE90020034602460321029042
:105C0000E248006827F003FA502001210523CDE97E
:105C1000003100231A46CDE902101946DB4800681E
:105C200018F0D4F8322001210C23CDE900310023F3
:105C30001A46CDE902100221D448006818F0C6F8CF
:105C40000C220021D148006818F0E8F80C21CF4858
:105C5000006818F027F900231A46CD49CB480068A0
:105C600022F036FBCB48007830B94FF44071C7487A
:105C7000006818F0C1F908E0C6480078012804D18E
:105C80004102C248006818F0B7F900220521BF4858
:105C9000006827F067FC00221146BC48006827F026
:105CA000F8FDBA4800682BF0BDFC002201460490C4
:105CB000B648006817F077FDB749086050210A2000
:105CC00027F0ECFF00B202460490B3480168AF48E9
:105CD000006818F0BEF850210A2027F0DFFF00B25C
:105CE00002460490AC480168A848006818F0B1F872
:105CF00050210A2027F0D2FF00B202460490A648A5
:105D00000168A248006818F0A4F850210A2027F082
:105D1000C5FF00B2024604909F4801689B48006896
:105D200018F097F850210A2027F0B8FF00B2024679
:105D30000490994801689548006818F08AF8502145
:105D40000A2027F0ABFF00B2024604909248016897
:105D50008E48006818F07DF850210A2027F09EFF39
:105D600000B2024604908C4801688848006818F028
:105D700070F850210A2027F091FF00B202460490EB
:105D8000854801688148006818F063F850210A20AE
:105D900027F084FF00B2024604907F4801687B48E8
:105DA000006818F056F850210A2027F077FF00B25B
:105DB00002460490784801687448006818F049F871
:105DC00050210A2027F06AFF00B202460490724870
:105DD00001686E48006818F03CF850210A2027F04E
:105DE0005DFF00B2024604906B4801686748006896
:105DF00018F02FF850210A2027F050FF00B2024679
:105E00000490654801686148006818F022F81C9801
:105E100023F090F819904FF40001199822F0A0FA9D
:105E20000121199827F0E4F842F26401199827F04B
:105E300037F900224FF49671199827F089FC4C4AE3
:105E40004C49199827F014F919981FF0EFFE1A9091
:105E500052A11A9820F0F2FE00224B491A9822F023
:105E6000CCFA01210020009002230246CDE9010175
:105E700001461A9827F0CBF8199817F041FD4B49C5
:105E800008601DF0BFFF04904848016804981DF0A9
:105E9000F3FE4FF480614548006822F061FA01206A
:105EA0000322CDE9002003460246032102903F4829
:105EB000006827F0ACF8502001210523CDE900311E
:105EC00000231A46CDE9021019463848006817F039
:105ED0007DFF322101220C23CDE900320023CDE9E0
:105EE00002211A4602213148006817F06FFF42F282
:105EF000640211462D48006827F0E2F902212B4880
:105F0000006818F023F8002206212848006817F0DE
:105F100085FF0C212548006817F0C4FF00231A46AE
:105F20001B492248006822F0D3F94FF400711F4842
:105F3000006818F061F8002205211C48006827F06D
:105F400011FB002211461948006827F0A2FC1148F5
:105F5000007868BB4FF4A02200211448006827F0A5
:105F600055FC002202211148006827F04FFC2AE06E
:105F7000360400203E040020556E69717565207658
:105F8000697369746F727300280300204C0300204A
:105F9000297E000814030020580300204D6F6E7402
:105FA000686C7920726576656E7565005003002017
:105FB000FFE7FE480078022805D100221021FC48A6
:105FC000006827F023FC0121122027F071FD002238
:105FD00001460490F648006817F0E5FBF5490860B3
:105FE00050210A2027F05AFE00B202460490F148E0
:105FF0000168EF48006817F02CFF50210A2027F0B5
:106000004DFE00B202460490EA480168E848006884
:1060100017F01FFF50210A2027F040FE00B2024671
:106020000490E4480168E248006817F012FF50212C
:106030000A2027F033FE00B202460490DD480168D2
:10604000DB48006817F005FF50210A2027F026FEE4
:1060500000B202460490D7480168D548006817F09E
:10606000F8FE50210A2027F019FE00B202460490E3
:10607000D0480168CE48006817F0EBFE50210A2096
:1060800027F00CFE00B202460490CA480168C848D6
:10609000006817F0DEFE50210A2027F0FFFD00B255
:1060A00002460490C3480168C148006817F0D1FE59
:1060B00050210A2027F0F2FD00B202460490BD48AC
:1060C0000168BB48006817F0C4FE50210A2027F081
:1060D000E5FD00B202460490B6480168B448006885
:1060E00017F0B7FE50210A2027F0D8FD00B2024673
:1060F0000490B0480168AE48006817F0AAFE50212D
:106100000A2027F0CBFD00B202460490A94801689E
:10611000A748006817F09DFE50210A2027F0BEFD19
:1061200000B202460490A3480168A148006817F035
:1061300090FEA14800682BF075FA002201460490F9
:106140009B48006817F02FFB9C49086050210A20EB
:1061500027F0A4FD00B202460490984801689448D4
:10616000006817F076FE50210A2027F097FD00B254
:1061700002460490914801688D48006817F069FE56
:1061800050210A2027F08AFD00B2024604908B4875
:1061900001688748006817F05CFE50210A2027F04C
:1061A0007DFD00B202460490844801688048006882
:1061B00017F04FFE50210A2027F070FD00B2024672
:1061C00004907E4801687A48006817F042FE50212A
:1061D0000A2027F063FD00B2024604907748016868
:1061E0007348006817F035FE50210A2027F056FD4D
:1061F00000B202460490714801686D48006817F0CB
:1062000028FE50210A2027F049FD00B202460490E2
:106210006A4801686648006817F01BFE50210A2092
:1062200027F03CFD00B202460490644801686048D3
:10623000006817F00EFE50210A2027F02FFD00B253
:10624000024604905D4801685948006817F001FE55
:1062500050210A2027F022FD00B202460490574840
:1062600001685348006817F0F4FD50210A2027F018
:1062700015FD00B202460490504801684C48006881
:1062800017F0E7FD50210A2027F008FD00B2024672
:1062900004904A4801684648006817F0DAFD48A0B3
:1062A0004AA34DA250A100901C9803F085FA5249D0
:1062B00008600846006823F00BFC4FF400010490CE
:1062C00022F04EF84C48006821F024FE18905A2025
:1062D0004FF4877164230022CDE9001046481899D5
:1062E000006821F0CDFF18F0C2F90490BDF810004D
:1062F000ADF8040000200346024600903E4818997D
:10630000006821F0D1FF07A815F0D6F86422142107
:1063100007A815F08CF94FF6FF7107A815F067F97B
:10632000052027F0F1FB0490002000900F22324856
:10633000049B1899006821F091FD17902F4907A838
:1063400015F045F907A8179915F07BF941F20401FA
:1063500007A815F056F940F68C2107A815F03FF96B
:1063600007A815F081F9002027F0CEFB04906FF00C
:10637000130000900F222048049B1899006821F018
:106380006DFD17901E4907A815F021F907A8179968
:1063900015F057F940F6282107A815F032F94FF407
:1063A000486107A815F01BF917982BE0140300208B
:1063B000500300205C0300204C03002060030020F9
:1063C000436F7374733A20353825000053616C6550
:1063D000733A203434250000526576656E75653A4F
:1063E00020363325000000004D6F6E74686C7920F4
:1063F0005461726765740000400300203D2A030861
:10640000892A03080C9007A815F02EF9092027F017
:106410007BFB04906FF0270000900F22FE48049B46
:106420001899006821F01AFD1790FC4907A815F08B
:10643000CEF807A8179915F004F94FF42F6107A8B3
:1064400015F0DFF84FF4E16107A815F0C8F807A8C8
:1064500015F00AF9F2A0F5A3F7A2FAA100901C9892
:1064600003F0AAF9FA490860FA480078022808DA25
:106470000846006823F02CFB4FF40001049021F043
:106480006FFFF348006821F045FD18905A218800FD
:1064900064230022CDE90001ED481899006821F03D
:1064A000EFFE18F0E4F80490BDF81000ADF8040019
:1064B0000020034602460090E5481899006821F044
:1064C000F3FE002027F020FB04906FF009000090FD
:1064D0001422DF48049B1899006821F0BFFCDE49B4
:1064E000086008460068002201460490D848006809
:1064F00021F054FED8480068272201460490D44871
:10650000006821F025FE052027F0FEFA0490002007
:1065100000901E22CE48049B1899006821F09EFC32
:10652000CD49486008464068282201460490C84882
:10653000006821F033FEC8484068452201460490B7
:10654000C348006821F004FE092027F0DDFA04901A
:106550006FF0130000900A22BD48049B1899006850
:1065600021F07CFCBC4988600846806846220146D0
:106570000490B748006821F011FEB7488068632294
:1065800001460490B248006821F0E2FDB24A64215D
:10659000B2482BF0D3F8B2A0B4A3B8A2BAA100902D
:1065A0001C9803F009F9BC490860AA480078022841
:1065B00008DA0846006823F08BFA4FF400010490D3
:1065C00021F0CEFEB448006802900A20039000201B
:1065D000049002A807C827F028F902A807C827F0E6
:1065E00031F900BFAC48006802900A2003904FF4D4
:1065F0000030049002A807C827F08FF902A807C846
:1066000027F08CF800BF4FF4003247F6FF71A24824
:10661000006827F03EF94FF40032FF219E480068E1
:1066200026F094FF0421122027F018FA4FF40032CC
:10663000014604909848006826F06BFF18F06AFB4A
:106640004FF40032014604909348006827F0A7F801
:106650004FF4003203219048006827F0B0F8012180
:10666000122027F0FBF94FF4C022014604908A481B
:10667000006827F034F98848006821F04BFC189036
:106680008C20DC213C230A22CDE900108248189995
:10669000006821F0F5FD18F03DFB0490BDF81000F6
:1066A000ADF8040011200323152200907A481899B0
:1066B000006821F0F9FD18F02DFB04900F200290E6
:1066C000BDF81000ADF80400162004231A4600900F
:1066D00071481899006821F0BBFD002027F014FADA
:1066E0000490002000900A226B48049B18990068CF
:1066F00021F0B4FB1790002267481799006821F039
:106700004DFD142264481799006821F021FD0321F2
:10671000002027F0A3F903210490002027F09EF920
:10672000039000200121CDE900105B48DDE903233F
:106730001899006821F01CFC179000225648179900
:10674000006821F02BFD142253481799006821F0AE
:10675000FFFC052027F0D8F90490002000900C22BF
:106760004D48049B1899006821F078FB179014227B
:1067700049481799006821F011FD282246481799C9
:10678000006821F0E5FC0321052027F067F90321CB
:106790000490052027F062F9002103900120CDE943
:1067A00000013D48DDE903231899006821F0E0FB72
:1067B0001790142238481799006821F0EFFC28221E
:1067C00035481799006821F0C3FC092027F09CF98F
:1067D0000490002000900A222F48049B189900681A
:1067E00021F03CFB179028222B481799006821F0D4
:1067F000D5FC3C2228481799006821F0A9FC032108
:10680000092027F02BF903210490092027F026F90D
:1068100003900020012141E040030020D52A030815
:106820004D6F62696C653A20000000005461626C33
:1068300065743A20000000004465736B746F703A11
:106840002000000053657373696F6E7300000000D1
:106850004403002014030020DCC60020212B030881
:106860004869676820537065656400004E6F726DFB
:10687000616C205370656564000000004C6F7720E8
:1068800073706565640000004E6574776F726B20ED
:10689000537065656400000048030020CDE90010D6
:1068A0004F48DDE903231899006821F061FB179038
:1068B00028224B481799006821F070FC3C22484878
:1068C0001799006821F044FC0421122027F0C6F833
:1068D00004906FF01800009004224148049B18991E
:1068E000006821F0E9FA17903D4800681FF09EF912
:1068F00006903CA1069820F0A1F900223A4906989A
:1069000021F07BFD364800681FF090F9059037A113
:10691000059820F093F907A814F0CEFD3C220A2137
:1069200007A814F084FE4FF6FF7107A814F05FFE6D
:10693000304907A814F04BFE07A8179914F081FE00
:1069400041F2040107A814F05CFE4FF4487107A857
:1069500014F045FE07A814F087FE1C9827F056F89F
:1069600025480078012812D1C82211462348006822
:1069700026F0A6FCC82211462148006826F0A0FC9B
:10698000C82211461648006826F09AFC14E01B48FD
:10699000006824F0E8FD049018480499006826F087
:1069A0007FFB17480499006826F07AFB0C4804998D
:1069B000006826F075FB00BF372027F0C9F80346B2
:1069C0000A2202210490069821F078FD00200A2373
:1069D00015220090DDE9050121F082FD1DB000BD0A
:1069E000480300202D000000280300204D62707332
:1069F00000000000F92C03081403002040030020CD
:106A000044030020F0B585B006460D46344600200C
:106A100004900390029094F83C0000F0030020B131
:106A2000012838D0022866D000BF94F83C0000F05E
:106A300003005A49097888421BD02620005D00EBEC
:106A4000001000EB4000142190FBF1F05449087055
:106A50002720005D00EB001000EB4000142190FBAC
:106A6000F1F05049087094F83C0000F003004B49E5
:106A7000087002A803A9CDE9001005EB45014FF607
:106A8000FF7202EA410004AB46490A78444909789A
:106A90000BF09EFE5FE094F83C0000F003003F49DD
:106AA000097888421AD0A08C00EB400040024FF4D5
:106AB000B471B0FBF1F03C4908802720005D00EB89
:106AC000001000EB4000142190FBF1F035490870F4
:106AD00094F83C0000F003003049087002A803A9B4
:106AE000CDE90010E9B204AB2E4802782E480088A8
:106AF0000BF06EFE2FE094F83C0000F003002749F5
:106B0000097888421AD0A08C00EB400040024FF474
:106B1000B471B0FBF1F0244908802620005D00EB41
:106B2000001000EB4000142190FBF1F01C490870AC
:106B300094F83C0000F003001849087002A803A96B
:106B4000EAB204ABCDE90010154801781648008878
:106B50000BF03EFE00BF00BF9DF810009DF80C102A
:106B60009DF80820D708BDF8003067F304038F08AC
:106B70000093BDF8003067F34A13C7080093BDF8CF
:106B8000003067F3CF230093BDF800703B460193BC
:106B9000BDF80410084605B0F0BD00000202002058
:106BA0000002002001020020FE01002010B501209B
:106BB000074908700748FDF754FD20B906480068EA
:106BC0002AF0D4FE03E0044800682AF0DBFE10BD82
:106BD0009402002010C500209802002010B5044641
:106BE00094F83E00C0F3400050B9A08F002807DDA4
:106BF000A08F4FF6FF71884202D0A08F401EA08761
:106C0000A08FA8B9606B20B194F83E00C0F340009B
:106C100070B121461748FDF7A3FDFFF7C7FFE068F5
:106C200010B12046E1688847204620F001FC1FE0B3
:106C3000A06B4042E062606BD0B194F83E10C1F3AB
:106C4000400111B9216B4942E16294F83E104908B4
:106C5000C94394F83E2061F3410284F83E20E06984
:106C6000616AE1616062A06A616BA162606300BFFA
:106C700010BD000010C500202DE9F04180464248BB
:106C800000682AF0EFFC06464048007880F00100DA
:106C90003E4908703E48FDF7E4FC04466BE00020E6
:106CA0003C49087094F83E00C0F3800037490978E9
:106CB000884253D0354801782C34A07C61F382009F
:106CC000A07420688719A07C2C3CC0F3C00010BBC6
:106CD000E06A00281FDC002F1DDB94F83E0000F066
:106CE000010060B9206950B12046216988470546F6
:106CF000E0692844E061606A2844606200BFA068DF
:106D000010B12046A168884794F83E0020F00800A2
:106D1000083084F83E00E06A3044E062E06A00280F
:106D20001BDBD4E90A10884201DDA06AE06220463C
:106D3000A16988470546206AA84206D02562606896
:106D400018B12946D4E900029047D4E90A108842D4
:106D500002DB2046FFF742FF00BF00BF0D4800786E
:106D600020B10B48FDF77DFC044604E021460848AD
:106D7000FDF78FFC0446002C91D12AF080FC0249DB
:106D80000860BDE8F081000090020020950200201C
:106D900010C5002094020020F7B582B004460E46CC
:106DA00014B9049805B0F0BD00BF632231462046F7
:106DB00024F0B2F90190019D00BFBDB12868A8B1CF
:106DC00000BF64223146204624F0A6F901900198C4
:106DD000C0B207464FB13A462B68284604999847F7
:106DE0000190BDF80400ADF8100000BF0498D9E789
:106DF00070B504460D46606818B129466068FFF713
:106E0000F7FF206818B1294620462268904770BDD8
:106E100070B505460C46A1B2284615F0BDF870BD08
:106E200070B505460C46A1B2284615F006F970BDAE
:106E300010B50EF011FE10BD70B505460C46164695
:106E400006E028466A1C95B200F008F804F8010B29
:106E5000301EA6F101018EB2F3D170BD70B50446AB
:106E600000260EF0B9FE2112A02202EB4101C8B2A9
:106E70000EF07CFE0EF0F6FE2546E11704EB1161E4
:106E80000912A4EB0121C8B20EF070FE0EF0EAFE6A
:106E90000EF0A2FEA1200EF069FE0EF0E3FE00202F
:106EA0000EF036FE06460EF0BDFE304670BD70B5E3
:106EB00005460C46164606E02178284600F009F8FB
:106EC000681C85B2641C301EA6F101018EB2F3D19C
:106ED00070BD70B504460E460EF07EFE2112A02253
:106EE00002EB4101C8B20EF041FE0EF0BBFE25469A
:106EF000E11704EB11610912A4EB0121C8B20EF0F5
:106F000035FE0EF0AFFE30460EF030FE0EF0AAFE5B
:106F10000EF088FE0A2003F04BF970BDF8B5044668
:106F200020461CF058F9054620461CF0B5F90646E7
:106F30000E2D5FD11EF01CFA07461EF06EFA0128D6
:106F400058D12D480068002854D11FF03DFF074656
:106F5000022121F005FA1FF037FF074616F0EEFA7E
:106F6000254908601FF030FF074600227F2126F0E8
:106F7000EDFA122026F0C8FD00901FF025FF07460D
:106F80000022009926F0C5FA1C48007830B9C822C2
:106F9000B4211948006826F093F912E017480078E8
:106FA000012806D1DC22C8211348006826F088F9A0
:106FB00007E04FF4A5724FF496710F48006826F071
:106FC0007FF9012240F2C6710B48006816F012FBEF
:106FD0001E23002209210848006821F06FFA334679
:106FE000002207490448006821F072F9024800684D
:106FF00016F0F2FAF8BD00001C0300201403002074
:10700000E17C000870B504460D4600BF204600F044
:107010003BF818B100BF00BF00BFFEE700BF284625
:1070200000F050F9001D616808446060204600F0DF
:107030003AF8204670BD70B505460C46284600F06B
:1070400041F904F11001884201D3012070BD0020F4
:10705000FCE70146A1F1080070477CB505460C46E7
:10706000204600F02FF906466A4601A92BF09EFC47
:1070700021462846DDE900320FF09EFE7CBD014628
:10708000087900F00100704710B50446204600F072
:1070900019F908B9012010BD0020FCE70146087964
:1070A00000F00200704770B50446204600F097F8E3
:1070B00005462C60284670BD7CB506460C4600206F
:1070C0000190009000256CB16A4601A920462BF082
:1070D0008AFC01980B2805DA6A4601A930462EF091
:1070E0009DFE054685B100BF284600F0EBF8A042A2
:1070F00003D200BF00BF00BFFEE700BF29463046F5
:10710000DDE900322EF0F2FA28467CBD70B5044667
:107110002046FFF7C8FF0546284600F0BEF8204687
:1071200000F0B6F870BD70B50446204600F057F880
:107130000546284600F0B6F8204600F0BEF870BDBF
:1071400070B506460D46284600F049F8044600BFD3
:107150001CB900BF00BF00BFFEE700BF2046FFF71D
:107160008EFF90B100BF2846FFF78EFF18B100BF19
:1071700000BF00BFFEE700BF2146304600F076F8B2
:1071800021462846FFF73EFF0546284670BD70B5EC
:1071900006460D462846FFF781FFF0B1284600F06D
:1071A00057F8044600BF1CB900BF00BF00BFFEE790
:1071B00000BF00BF2046FFF762FF18B900BF00BF45
:1071C00000BFFEE700BF2146304600F04FF82946D9
:1071D0002046FFF717FF054600BF284670BD2DE982
:1071E000F0410446204600F06DF8061F204600F0EE
:1071F000B8F8074631462CF0DFF8054600BF2046B8
:10720000FFF742FF18B100BF00BF00BFFEE700BF9D
:107210002846BDE8F0812DE9F04106460C461546AA
:10722000002794B100BF1DB900BF00BF00BFFEE73B
:1072300000BF2A462146304600F097F82046FFF767
:1072400072FF204600F08DF807463846BDE8F08111
:1072500010B5044600BF2046FFF720FF18B900BF55
:1072600000BF00BFFEE700BF206810BD7CB505462B
:107270000C46204600F026F806466A4601A92BF087
:1072800095FB21462846DDE900322EF02FFA7CBD21
:10729000416841F0010141607047416841F00201DD
:1072A00041607047416821F00201416070474268C7
:1072B00002F003030B4343607047416821F0010172
:1072C000416070470146486820F0030070472DE98F
:1072D000F04706460C46304600F043F88046211F32
:1072E0002CF06AF807463046FFF7ECFF211D451ADF
:1072F00000BF384600F035F88146384600F031F8D6
:1073000080460421FEF717FB814503D000BF00BF74
:1073100000BFFEE700BF00BF3046FFF7D3FF2919CB
:10732000091D884203D000BF00BF00BFFEE700BFB9
:1073300029463846FFF7BBFF00BF3846FFF7C2FFBC
:107340000C2803D200BF00BF00BFFEE700BF2146EC
:107350003046FFF7ACFF3846FFF7D8FE3846BDE8A9
:10736000F087014601F1080070472DE9F04106461B
:107370000C46154600BF2046FFF781FE18B900BF36
:1073800000BF00BFFEE700BF29462046FFF753FEBF
:1073900078B129462046FFF79AFF07462046FFF7B7
:1073A00082FE3846FFF779FF39463046FFF755FE33
:1073B00000BFBDE8F0812DE9F04106460C461546B8
:1073C00000BF2046FFF75BFE18B100BF00BF00BF43
:1073D000FEE700BF29462046FFF72DFE88B129466B
:1073E0002046FFF774FF07463846FFF75BFF394634
:1073F0003046FFF7A5FE074639463046FFF72DFE1B
:1074000000BFBDE8F0812DE9F843064634461DF083
:10741000AFFF804640461DF0F0FF78BB30461BF0C2
:1074200054FC38B330461BF0CCFA208FE18E8842F2
:1074300012D0E08E2087E08E00906A461C213046F4
:107440001BF030FF0746012F02D03846BDE8F88315
:10745000304624F082FC00BF40461DF0DEFF0546AA
:10746000042D06D1304622F0D9FA074600211CF03F
:1074700072FD09E030461BF08BFC05E0FFE7208F32
:10748000E086304624F069FC0120DFE72DE9F04179
:10749000044620461BF000FF0546284622F018FB54
:1074A0000646284615F02CFE07460122394630468E
:1074B00029F0F8F9BDE8F0810146C1F3C01070472A
:1074C0000146C1F3801070470146C1F3C0107047F8
:1074D0000146C1F3002070470146C1F3C000704768
:1074E0000146C1F3401070470146C1F34020704788
:1074F0000146C1F3003070470146C1F300107047E8
:107500002DE9F04F89B004460D460021204622F0B7
:107510007AF930B91C21284620F0ABF909B0BDE852
:10752000F08F2946204600F00BFB2946204600F04C
:107530007DF80021204623F099FB08900021204689
:1075400023F01AFD07900021204623F04FF901286F
:1075500000D100E0002081460021204623F0C2FF38
:1075600007460021204623F02FFA064642F2D1704A
:10757000874205D1608CC0F3802008B9012000E06B
:1075800000208246204622F0DEF9069000BF4FF030
:107590000008244802884146204623F0BDFD0390A0
:1075A0000398C0B200BF8346AA6829692868CDE95C
:1075B0000209CDE900125A465146089B06980DF083
:1075C00099FD288342F2D170864205D1608CC0F3C8
:1075D000402008B9012000E000200590204622F05C
:1075E00093F9049000BF4FF000080F48028841460D
:1075F000204623F091FD03900398C0B200BF83465C
:107600000023EA6869686869CDE90213CDE90002E0
:107610005A46079BDDE904010DF06CFD688300BF4D
:107620007CE70000760100207A0100202DE9F34F6D
:1076300087B00C4607980CF07BFD8046079822F037
:1076400082F90690404602F0ACF8206121694800BA
:107650001FF05AFE2060216948001FF055FEA0600F
:10766000002548E05848029038F9150041F69A7113
:1076700088423FD10020019029E00199079822F02B
:10768000C2F800905149009823F0D5FF00B11BE0EB
:1076900000980CF06BFD8246BAF1010F00D013E0A8
:1076A00000980CF053FD8346AB4500D00CE00098E9
:1076B00023F059FF0299884201DA029802E000980B
:1076C00023F051FF029000BF0198401C01900798E1
:1076D00022F0B7F801998842CFD80298002804DB3D
:1076E0000298A16821F8150003E00021A06820F8A5
:1076F000151000BF6D1C2069A842B3D80026B14602
:1077000000251BE038F9150041F69B71884202DB29
:10771000411A0E4411E041F69A71884206D1A168DF
:1077200031F8151049440FFA81F906E0A16821F8F3
:10773000150009EB00010FFA81F96D1C2069A842C0
:10774000E0D80021079823F091FA05902169491E9D
:10775000DDE9050200FB112000B206900698A0EBBF
:10776000090007B2002F00DA00274FF0FF30049025
:1077700000200390002513E038F9150041F69B71B5
:1077800088420CDB421A11B207FB01F2B2FBF6F29F
:1077900012B2A36823F815200495039100BF6D1C55
:1077A0002069A842E8D8049800280ADB0398301A18
:1077B0007843B0FBF6F0381A01B2A268049822F8B8
:1077C000101009B0BDE8F08F01E0FFFF01000600D6
:1077D0002DE9FC5F054600221146284625F08CFB6A
:1077E0000021284623F069F881460021284623F02D
:1077F000EAFB484407B20021284623F09BF948449D
:107800000FFA80FA284622F057FF384450440FFA06
:1078100080FB3B4E284622F014F801904FF0000800
:107820005CE0A868006850F828403649204623F0FC
:1078300002FF00B150E0204624F00CFB002839D1B3
:107840000021204622F06AFF0090009830B1012804
:1078500007D0022804D0032815D100E000BF00BFE4
:1078600000BFB4F91A10B5F91600081A401CB0424E
:1078700001DA304605E0B4F91A10B5F91600081A15
:10788000401C06B214E00021204623F05FFE70B9D0
:1078900004F1140014F0ABFC3844B04201DA304675
:1078A00004E004F1140014F0A2FC384406B200BF56
:1078B00000BF10E0B4F91A10B5F91600081A401C00
:1078C000B04201DA304605E0B4F91A10B5F91600F5
:1078D000081A401C06B200BF08F101080198804553
:1078E0009FD30748864209D006EB0A0006B25E45E0
:1078F00002DD3046BDE8FC9F5846FBE75846F9E7F5
:1079000001E0FFFF010004002DE9FC5F05460022B5
:107910001146284625F0D4FA0021284622F0CDFF52
:1079200082460021284623F08BFA50440FFA80F853
:107930000021284623F0DBF950440FFA80F928464D
:1079400022F0CAFE4844404400B20190724C2846DE
:1079500021F077FF83460021284622F020FF0128EE
:1079600066D100265BE0A868006850F826706B4975
:10797000384623F060FE00B150E0384624F06AFA41
:10798000002839D10021384622F0C8FE0090009826
:1079900030B1032805D0062804D0082815D102E00C
:1079A00000BF00BF00BFB5F91800B7F91410401AA6
:1079B000401CA04201DA204605E0B5F91800B7F9ED
:1079C0001410401A401C04B214E00021384623F081
:1079D000B0FD70B907F1140014F07CFC4044A042E3
:1079E00001DA204604E007F1140014F073FC40446F
:1079F00004B200BF00BF10E0B5F91800B7F91410C9
:107A0000401A401CA04201DA204605E0B5F91800F2
:107A1000B7F91410401A401C04B200BF761C5E4532
:107A2000A1D33D48844269D004EB090004B265E06B
:107A300000265BE0A868006850F826703749384691
:107A400023F0F9FD00B150E0384624F003FA80BB82
:107A50000021384622F062FE0090009830B10128E3
:107A600005D0042804D0072815D102E000BF00BFCC
:107A700000BFB7F91800B5F91410401A401CA04215
:107A800001DA204605E0B7F91800B5F91410401ADC
:107A9000401C04B215E00021384623F057FD78B9A8
:107AA00007F1140014F016FC4844A04202DA204604
:107AB00005E008E007F1140014F00CFC484404B29F
:107AC00000BF00BF10E0B7F91800B5F91410401A54
:107AD000401CA04201DA204605E0B7F91800B5F9CC
:107AE0001410401A401C04B200BF761C5E45A1D39E
:107AF0000948844202D004EB080004B206488442DC
:107B000002D10198BDE8FC9F0198844201DD204626
:107B1000F8E70198F6E7000001E0FFFF010004002C
:107B200010B5044620681FF06BFC60681FF068FC0D
:107B3000A0681FF065FCE0681FF062FC10BD00004B
:107B40002DE9F34F87B00C4607980DF0E1F8804619
:107B5000404601F026FE6061616948001FF0D4FBD9
:107B60006060616948001FF0CFFBE060002548E0DD
:107B70005948029038F9150041F69A7188423FD170
:107B80000020019029E00199079821F03CFE009027
:107B90005249009823F04FFD00B11BE000980DF012
:107BA0007FF98246BAF1010F00D013E000980DF082
:107BB00067F98346AB4500D00CE0009821F038FF10
:107BC0000299884201DA029802E0009821F030FF21
:107BD000029000BF0198401C0190079821F031FEEF
:107BE00001998842CFD80298002804DB0298E16806
:107BF00021F8150003E00020E16821F8150000BF1E
:107C00006D1C6069A842B3D80026B14600251BE070
:107C100038F9150041F69B71884202DB411A0E4487
:107C200011E041F69A71884206D1E16831F81510E9
:107C300049440FFA81F906E0E16821F8150009EBE3
:107C400000010FFA81F96D1C6069A842E0D800219B
:107C5000079823F091F90690079821F055FE014608
:107C60006269521E069800FB121000B2059005983A
:107C7000A0EB090007B2002F00DA00274FF0FF3019
:107C8000049000200390002511E038F9150041F61A
:107C90009B7188420ADB421A11B207FB01F2B2FB68
:107CA000F6F212B2E36823F8152000BF6D1C60697C
:107CB000A842EAD8049800280ADB0398301A7843CF
:107CC000B0FBF6F0381A01B2E268049822F81010FE
:107CD00009B0BDE8F08F000001E0FFFF01000600E1
:107CE0002DE9F0418CB0044620461BF074FA05469D
:107CF00020461BF0D4FA074620461BF071FA0646D0
:107D00001C2D29D10BA9304615F028FCBDF82C00FC
:107D10009DF92E10CDE900109DF92F3010A22021E1
:107D200003A827F0BFF903A9384629F03DFB104806
:107D3000006821F00FF900200D4908601FF044F899
:107D40008046022121F031F81FF03EF880460022E3
:107D5000114625F0FBFB00BF0CB0BDE8F081000030
:107D6000253032642E253032642E25640000000058
:107D70001C0300207CB504460D4616462888218940
:107D8000084400B2ADF8000068886189084400B278
:107D9000ADF80200A8882189084400B2ADF80400BB
:107DA000E8886189084400B2ADF8060032466946A9
:107DB0002046636998477CBDF8B505460E462C46BB
:107DC000206B10B1206B007818B9606B08B90120E6
:107DD000F8BD606B58B1284629F069F9074610498B
:107DE00009688847616B884201D30020F0E7206B67
:107DF00098B1002000900AE069460A4A206B126898
:107E000090470746B74201D10120E1E700BF206B50
:107E10000099405C0028EFD1DAE70120D8E70000A4
:107E2000F0020020E00200202DE9F04FA7B08246CA
:107E300050461BF0D0F9074650461BF02DFA054678
:107E4000012F01D0082F03D1284623F086FF39E205
:107E50001A2FFCD150461BF01CFA0446606BB0F59B
:107E6000C02F26D1A06B022823D1284615F09DFFF4
:107E700002280ED13022FC491BA8F8F797FC1BAE54
:107E8000226C56F82230F9A2D4E90B0127F00AF946
:107E900017E23022F44930311BA8F8F787FC1BAEFB
:107EA000226C56F82230F1A2D4E90B0127F0FAF83F
:107EB00007E2606BB0F5A02FEAD1606A002879D0A4
:107EC000A06A002876D00321A06AB0F90200CDE9AB
:107ED0000001A06AB0F90030606AB0F90220B0F980
:107EE00000101CA819F0AAF800211CA818F008FC22
:107EF0001B90284621F09CFD8046B5F91A00002110
:107F0000C146CDE900104FEAE87008EB5070C1108F
:107F1000E88A084403B2FF2205F1140115A818F0FD
:107F200053FF002115A818F0EBFB149006A819F0D8
:107F300019FC7F208DF81B00A0690088ADF81C009B
:107F4000206805F11402816804A8FBF7E7F82068AF
:107F5000D0F808B004A821688860606A0088ADF88D
:107F60000800A06A0088401E00B2ADF80C00606AEC
:107F7000B0F90200A16AB1F90210884203DA606A1E
:107F8000B0F9020002E0A06AB0F90200ADF80A0000
:107F9000688BADF80E0002AA06A9206819F0C6FB8E
:107FA0002068C0F808B01B9819F0AEFB149819F0BF
:107FB000ABFB00BF666C284615F0E0FEA16B884263
:107FC00070D1284615F0F1FE01280AD116F0A2FE64
:107FD0000990BDF824102069818402202169C88499
:107FE00008E03189206981850F202169C88500203A
:107FF000216988869EA2082125A8236C27F052F8C3
:10800000002041F6FF71CDE9000103460290994836
:1080100025A9026824A829F01DFF284615F0C5FEF1
:10802000022856D1002017F0D7FBC0EB00105030CB
:10803000A02190FBF1F0012809DD002017F0CCFB16
:10804000C0EB00105030A02190FBF1F000E00120C7
:10805000E1684988081A00B2ADF88E00BDF88E00BC
:10806000BDF89210401A00B2ADF88A0000212846EF
:1080700015F089FEB04216D1E06814F09BF98046F5
:1080800000EBD870E168098801EB600000B2ADF840
:108090008800BDF88800BDF89010084400B2ADF823
:1080A0008C0055E007E1E06814F084F9804600EBAD
:1080B000D870E168098801EB600000B2ADF88C006F
:1080C000BDF88C00BDF89010401A00B2ADF88800E1
:1080D0003EE0E06814F06EF9814600EBD970E1688B
:1080E000098801EB6000BDF9908008EBD871A0EB26
:1080F000610000B2ADF88800BDF88800BDF89010AE
:10810000084400B2ADF88C00002017F065FBC0EB0E
:1081100000105030A02190FBF1F0012809DD002073
:1081200017F05AFBC0EB00105030A02190FBF1F08B
:1081300000E00120E1684988081A00B2ADF88E001D
:10814000BDF88E00BDF89210401A00B2ADF88A005A
:10815000002017F041FB502101EBC000A02190FB53
:10816000F1F0012809DD002017F036FB502101EB6A
:10817000C000A02190FBF1F000E00120BDF88810C4
:10818000081A00B2ADF88000002017F025FB50213E
:1081900001EBC000A02190FBF1F0012809DD0020D7
:1081A00017F01AFB502101EBC000A02190FBF1F069
:1081B00000E00120BDF88C10084400B2ADF8840046
:1081C000002017F009FB502101EBC000A02190FB1B
:1081D000F1F0012809DD002017F0FEFA502101EB33
:1081E000C000A02190FBF1F000E00120BDF88A1052
:1081F000081A00B2ADF88200002017F0EDFA502105
:1082000001EBC000A02190FBF1F0012809DD002066
:1082100017F0E2FA502101EBC000A02190FBF1F031
:1082200000E00120BDF88E10084400B2ADF88600D1
:1082300012A819F097FA3089ADF84C00002017F019
:10824000CBFA00EB80005030A02190FBF1F0012828
:1082500012DD002017F0C0FA00EB80005030A021A2
:1082600090FBF1F009E0000028B10408257300003C
:10827000257500006C030020012000B2ADF8480015
:1082800020AA12A9206819F051FA0AA818F0C0F91A
:1082900016F040FD0990BDF82400ADF834000B48FD
:1082A00000680A900020009025AB22AA0AA9206845
:1082B00017F0FAFD04E000202169C8842169C8850F
:1082C00000BF00BF27B0BDE8F08F00006C030020A6
:1082D0002DE9FF4F8FB00F46209DF87800F0010088
:1082E00008B1FA4800E0FA480E90F87800F0010072
:1082F00008B1F84800E0F8480D90F87800F0010067
:1083000008B9F44800E0F4480C9001200B90B5E067
:1083100000220B9200206A88B5F804C0A2EB0C0280
:1083200011B200261AE006EB860CEA6802EB8C021A
:10833000127C02F0010242B906EB860CEA6802EBFD
:108340008C029289024410B207E006EB860CEA68C0
:1083500002EB8C0212898A1A11B2761C2A69B24287
:10836000E1D8002685E006EB860CEA6802EB8C0279
:10837000127C02F00102002A7AD191FBF0F80FFA88
:1083800088F306EB8609D5F80C8008EB8908B8F865
:108390000C8008FB03F80FFA88F206EB8609D5F883
:1083A0000C8008EB8908B8F9049006EB860AD5F82A
:1083B0000C8008EB8A08B8F90680904501DD9046EC
:1083C00007E006EB860AD5F80C8008EB8A08B8F9B6
:1083D0000680C14508DD06EB8609D5F80C8008EB60
:1083E0008908B8F9048013E006EB8609D5F80C80FB
:1083F00008EB8908B8F90680904501DD904607E052
:1084000006EB8609D5F80C8008EB8908B8F90680D8
:10841000C44694450BD04FF0010806EB860AD5F808
:108420000C9009EB8A09C9F81080CDF82C8006EB76
:108430008609D5F80C8008EB8908A8F808C006EB77
:108440008609D5F80C8008EB8908B8F80C80A0EBF9
:1084500008080FFA88F006EB8609D5F80C8008EBBF
:108460008908B8F80880A1EB08080FFA88F100BF66
:10847000761C2A69B2423FF676AF00BF0B980028FF
:108480007FF446AF00210F9822F0A3F9012800D114
:1084900000E000200A9000200990089008A809A98F
:1084A000CDE9001029890BB2B5F9022038781E9960
:1084B0002AF085FFF87800F0010048B10A9838B139
:1084C0000F9821F040FABDF82410084400B209903A
:1084D00011990F9821F097F904468AE17F492046C7
:1084E00023F0A9F840B1F878C0F3800111AA0F98E1
:1084F0000CF049FA04467CE10021204622F03AFAC9
:1085000007900798002858D000200390002610E01C
:1085100006EB8601E86850F82100A04208D106EB7E
:108520008600E96801EB8000B0F90800039003E0E1
:10853000761C2869B042EBD800BFF87800F0010043
:1085400030B1608C20F4806000F58060608405E0CC
:10855000608C20F4007000F50070608404F1140059
:108560000D9988470399884226D0204623F0F5FBD1
:1085700000BFA08AADF80400E08AADF80600208BA9
:10858000ADF80800608BADF80A0000BF04F11400DC
:108590000E9A0399904701AA292120461AF082FEDB
:1085A000204621F095FA2246222100901AF07AFE08
:1085B000204623F0D2FB00BF07E0608C20F48060EF
:1085C0006084608C20F400706084002006907878CD
:1085D000012812D0022819D104F114000C998847FF
:1085E000B5F90010491C21F00101081A039000EBB5
:1085F000D070401000B2069009E004F114000C990C
:1086000088472988081A00B2069000E000BF00BF22
:10861000F87800F0010050B10A9840B104F114005C
:108620000D998847BDF82410081A00B2099000205F
:10863000039043F20C022046039922F06DFD029054
:1086400002980FFA80F800BF0020039043F20D0259
:108650002046039922F060FD029002980FFA80F9FB
:1086600000BF204622F07FFF0590204621F0E0F970
:10867000049008F4C040B0F5005F01D1012000E093
:10868000002030B128F4C040B0F5FA6F01DC0120C1
:1086900000E0002090B128F4C040B0F57A7F04DDFE
:1086A00028F4C040C0F57A7001E028F4C040059974
:1086B0004843642190FBF1F00FFA80F809F4C040C0
:1086C000B0F5005F0CD101200BE0000021C40108CF
:1086D00015C4010853C3010843C201080100060084
:1086E000002030B129F4C040B0F5FA6F01DC012060
:1086F00000E0002090B129F4C040B0F57A7F04DD9D
:1087000029F4C040C0F57A7001E029F4C040049912
:108710004843642190FBF1F00FFA80F9A18A1C987C
:10872000401A40440FFA80FAE18A1D98401A4844E2
:108730000FFA80FBF87800F0010010B1BDF92400B9
:1087400000E0069850440FFA80FAF87800F0010033
:1087500008B1069801E0BDF9240058440FFA80FBE7
:10876000BAF1000F02D1BBF1000F1BD0204623F05D
:10877000F4FAA08A504400B2A082208B504401B287
:108780002183E08A584401B2E182608B584401B2EF
:108790006183204623F0E1FA01235A4651462046E0
:1087A00023F0B8FBF87800F0010008B10A9870B91E
:1087B00004F114000D9988471F990844BDF8201052
:1087C0000844BDF82410084400B2099008E0BDF840
:1087D00020101F980844BDF82410081A00B2099010
:1087E000F878C0F3800111AA0F980CF0CCF8044679
:1087F00000BF24B1DDE9111081427FF46FAE13B0E8
:10880000BDE8F08F2DE9F04F8DB005468946B9F1EE
:10881000000F02D10DB0BDE8F08FA5F818902868C0
:1088200010B128681EF004FE09EB4901062202EB94
:1088300041001EF02FFD286000BF286818B900BF56
:1088400000BF00BFFEE700BF2868686002212868FB
:1088500001FB0900801CE8600421286801FB090075
:10886000001DA860B9F1010F0CD1B420696808702F
:108870000020E96808800120E96848800020A96894
:108880000880C7E709F10101C8001EF03DFD074659
:1088900009F1010007EB80084FF0000A4FEA890058
:1088A00002B20BA90CA800F067F90024BDF9300052
:1088B0008010079000200390CCE0002616E00BA962
:1088C0000CA800F061F90CA800F04BF900B90FE01A
:1088D000BDF93000801007A941F82600BDF830002E
:1088E00000F0030003A941F82600761C042EE6DB05
:1088F00000BF042E00D0B3E00A990798884219D12E
:10890000079800B227F814000FFA8AF028F814002C
:10891000DDE903010844059908440699084469689B
:1089200008556868005D0007000E69680855601CFE
:1089300004B28DE0DDE9070188422CD0079800B22F
:1089400027F814000FFA8AF028F8140003986968D1
:1089500008556868005D0007000E69680855601CCE
:1089600004B20798401E00B227F814000FFA8AF0EC
:1089700028F814000498001D059908440699084435
:10898000696808556868005D0007000E6968085549
:10899000601C04B25CE00999079888422CD00798C3
:1089A00000B227F814000FFA8AF028F81400DDE965
:1089B00003010844696808556868005D0007000EF7
:1089C00069680855601C04B20798401E00B227F879
:1089D00014000FFA8AF028F8140005980830069958
:1089E0000844696808556868005D0007000E6968FA
:1089F0000855601C04B22BE0079800B227F8140059
:108A00000FFA8AF028F81400DDE9030108440599FB
:108A10000844696808556868005D0007000E6968C9
:108A20000855601C04B20798401E00B227F81400D5
:108A30000FFA8AF028F8140006980C306968085577
:108A40006868005D0007000E69680855601C04B284
:108A50000AF1010A0CA800F084F800287FF42DAF79
:108A600000BF40F2D32109FB01F00290029880126E
:108A70000190601E37F910100198814205D1601EE7
:108A800038F910100198814226D0DDE90121A1EBCF
:108A90008220B0F5007F04DC00FB00F148000014E8
:108AA00007E0C0F5806000FB00F148000014C0F151
:108AB0000F00019909B227F81410019909B228F89A
:108AC00014106A6810556968095D0907090E6A681B
:108AD0001155611C0CB200BFA61E0EE038F816003E
:108AE00027F8140037F8160028F814006868805D2D
:108AF00069680855761E601C04B2002EEEDA4FF04D
:108B0000000B00260020E968088023E0E96821F8CE
:108B10001B6037F81600A96821F81B0010E0A86850
:108B200030F81B0037F91610884203DAA86830F8CD
:108B30001B0001E037F91600A96821F81B00761C1C
:108B400038F91600584501D1A642E8DB0BF10100C7
:108B50000FFA80FBA642D9DB38461EF051FC00BF5D
:108B600058E60146B1F90200B1F90020904201DC5B
:108B7000012070470020FCE7028000234380C2F1FF
:108B800001031BB20B807047B1F90020002A07DCFB
:108B90000B8842885200D21C1A4412B20A800CE0A0
:108BA00042880388D21A5200521D0B881A4412B20E
:108BB0000A800288521E12B202804288521C12B2EF
:108BC0004280704737B582B01546022D04DCBDF8EF
:108BD0000C10084605B030BDBDF80C00C00ABDF849
:108BE000081000EBD1241F2C01D2204600E01F20EA
:108BF000BDF8081060F3CF210291BDF80C00C0F35E
:108C00004510BDF80810C1F3451144183F2C01D29E
:108C1000204600E03F20BDF8081060F34A110291A1
:108C2000BDF80C0000F01F00BDF8081001F01F0196
:108C300044181F2C01D2204600E01F20BDF8081068
:108C400060F304010291FF2D03D1BDF8081008461E
:108C5000C0E72A46DDE9020115F000FF0190BDF8EA
:108C600004100846B6E717B581B01446022C04DCA0
:108C7000BDF80810084604B010BDBDF80400C00AD5
:108C8000BDF80810C90A48434109BDF8040061F362
:108C9000CF200190BDF8040000F01F00BDF80810BF
:108CA00001F01F0148434109BDF8040061F30400CD
:108CB0000190BDF80400C0F34510BDF80810C1F3E1
:108CC000451148438109BDF8040061F34A10019041
:108CD000FF2C03D1BDF804100846CCE72246DDE99D
:108CE000010115F0BBFE0090BDF800100846C2E778
:108CF00037B582B01546022D04DCBDF80C100846CD
:108D000005B030BDBDF80C00C00ABDF80810A0EBDE
:108D1000D124002C01DD204600E00020BDF8081021
:108D200060F3CF210291BDF80C00C0F34510BDF8EF
:108D30000810C1F34511441A002C01DD204600E063
:108D40000020BDF8081060F34A110291BDF80C0034
:108D500000F01F00BDF8081001F01F01441A002C9C
:108D600001DD204600E00020BDF8081060F304019A
:108D70000291FF2D03D1BDF808100846C0E72A462E
:108D8000DDE9020115F06AFE0190BDF80410084605
:108D9000B6E700002DE9F84F80460C46C34658461A
:108DA00020F096FE814622F0DEFB8246002016F07F
:108DB00013FD00EB8000502101EB8000A02190FB0F
:108DC000F1F001280BDD002016F006FD00EB80001D
:108DD000502101EB8000A02190FBF1F000E0012088
:108DE000AAEB000006B27748007800286BD116F095
:108DF000F3FC00EB800101EBC000502101EB80008F
:108E0000A02190FBF1F001280DDD002016F0E4FC1C
:108E100000EB800101EBC000502101EB8000A0219C
:108E200090FBF1F000E0012081464B464FF4807248
:108E30000021204600961EF019FA07B2394658461E
:108E400024F092FD002016F0C7FC00EB80005021BA
:108E500001EB4000A02190FBF1F001280BDD002088
:108E600016F0BAFC00EB8000502101EB4000A0217D
:108E700090FBF1F000E0012040420FFA80F9002061
:108E800016F0AAFC00EB8000502101EB4000A0216D
:108E900090FBF1F001280BDD002016F09DFC00EBAB
:108EA0008000502101EB4000A02190FBF1F000E098
:108EB000012040420FFA80FA4B465246062158469E
:108EC0001FF0FCFA67E0002016F086FCC0EB0010F3
:108ED000502101EB8000A02190FBF1F001280BDD77
:108EE000002016F079FCC0EB0010502101EB80004F
:108EF000A02190FBF1F000E0012081464B464FF4A9
:108F000080720021204600961EF0B0F907B2394663
:108F1000584624F029FD002016F05EFC00EB80008E
:108F2000502101EB4000A02190FBF1F001280BDD66
:108F3000002016F051FC00EB8000502101EB4000B6
:108F4000A02190FBF1F000E0012040420FFA80F9EF
:108F5000002016F041FC00EB8000502101EB4000A6
:108F6000A02190FBF1F001280BDD002016F034FC6D
:108F700000EB8000502101EB4000A02190FBF1F0BC
:108F800000E0012040420FFA80FA4B46524606218B
:108F900058461FF093FAFF2C00DDFF24002509E05E
:108FA0002946584620F02FFC8146E1B2002224F0E9
:108FB000E9FB6D1C584620F044FCA842F0D8BDE8FF
:108FC000F88F0000140300202DE9F8438046404646
:108FD0001FF0B0FF8146484623F0D6FD00214846E9
:108FE00023F0F4FF02231A460321484623F0CEFF64
:108FF0004FF4802148461FF0B3F915F08BFE002294
:1090000001460090484624F084FAFB480078D0B925
:10901000002016F0E1FBC0EB001101EB40105030D6
:10902000A02190FBF1F001280BDD002016F0D4FB0D
:10903000C0EB001101EB40105030A02190FBF1F08B
:109040001BE0012019E0002016F0C6FB00EBC00178
:10905000C1EB80105030A02190FBF1F001280BDD16
:10906000002016F0B9FB00EBC001C1EB80105030BE
:10907000A02190FBF1F000E0012006B20022314671
:10908000484624F0DFFB0022FF21484624F05EFA28
:10909000002247F6FF71484624F0FBFBD6480078D3
:1090A000D8BB002016F098FB00EB800101EBC0005C
:1090B000502101EB8000A02190FBF1F001280DDD93
:1090C000002016F089FB00EB800101EBC00050216D
:1090D00001EB8000A02190FBF1F000E0012006B23E
:1090E000002016F079FB00EB800101EBC00050215D
:1090F00001EB8000A02190FBF1F001280EDD0020A3
:1091000016F06AFB00EB800101EBC000502101EB7F
:109110008000A02190FBF1F001E007E0012007B200
:1091200032463946484624F0CBF83AE0002016F0A3
:1091300053FBC0EB0010502101EB8000A02190FBFD
:10914000F1F001280BDD002016F046FBC0EB00100B
:10915000502101EB8000A02190FBF1F000E0012004
:1091600006B2002016F038FBC0EB0010502101EBD6
:109170008000A02190FBF1F001280BDD002016F00B
:109180002BFBC0EB0010502101EB8000A02190FBD5
:10919000F1F000E0012007B232463946484624F09B
:1091A0008FF8002016F018FB00EB8000502101EB37
:1091B0004000A02190FBF1F001280BDD002016F00B
:1091C0000BFB00EB8000502101EB4000A02190FB45
:1091D000F1F000E00120404206B2002016F0FCFA57
:1091E00000EB8000502101EB4000A02190FBF1F04A
:1091F00001280BDD002016F0EFFA00EB8000502173
:1092000001EB4000A02190FBF1F000E00120404282
:1092100007B233463A46062148461FF04FF900246C
:109220002AE0484613F05CFB06467449085D24F0CA
:109230006BFC002201460090304624F06AF90022BF
:1092400047F6FF71304624F024FB002211463046D9
:1092500024F098FA14221146304624F031F8674879
:1092600003190022664930461FF032F84FF480613E
:1092700030461FF09AFD641C6048005D1328D0D171
:10928000404613F02DFB05465E4928461FF068F85E
:1092900015F040FD012201460090284624F039F9DE
:1092A0000A2600273A463146284624F0BEFA3A46B6
:1092B0003146284624F0C6FA3A463146284624F07C
:1092C000DBFA3A463146284624F086FA00BF0022EF
:1092D00047F6FF71284624F0DCFA4B4600224A4943
:1092E00028461EF0F5FF00221146284624F0DDFA3C
:1092F000002246A1284624F01CF93F4800780028A7
:1093000078D116F069FAC0EBC00000EB40005021A4
:1093100001EB4000A02190FBF1F001280DDD0020C1
:1093200016F05AFAC0EBC00000EB4000502101EBF0
:109330004000A02190FBF1F000E0012006B20020E7
:1093400016F04AFAC0EBC00000EB4000502101EBE0
:109350004000A02190FBF1F001280DDD002016F067
:109360003BFAC0EBC00000EB4000502101EB400095
:10937000A02190FBF1F000E0012007B2324639460F
:10938000284623F09DFF002016F026FAC0EB0010BF
:109390005030A02190FBF1F0012809DD002016F0EB
:1093A0001BFAC0EB00105030A02190FBF1F000E060
:1093B0000120404206B2002016F00EFAC0EB001069
:1093C0005030A02190FBF1F0012809DD002016F0BB
:1093D00003FAC0EB00105030A02190FBF1F000E048
:1093E0000120404207B233463A46062128461FF084
:1093F00065F886E00CE000001403002074040020EF
:10940000AD9500080200040009950008EF81830073
:10941000002016F0E1F900EBC00101EB0010502133
:1094200001EB4000A02190FBF1F001280DDD0020B0
:1094300016F0D2F900EBC00101EB0010502101EB56
:109440004000A02190FBF1F000E0012006B20020D6
:1094500016F0C2F900EBC00101EB0010502101EB46
:109460004000A02190FBF1F001280DDD002016F056
:10947000B3F900EBC00101EB0010502101EB4000FB
:10948000A02190FBF1F000E0012007B232463946FE
:10949000284623F015FF002016F09EF9C0EB0010BF
:1094A0005030A02190FBF1F0012809DD002016F0DA
:1094B00093F9C0EB00105030A02190FBF1F000E0D8
:1094C0000120404206B2002016F086F9C0EB0010E1
:1094D0005030A02190FBF1F0012809DD002016F0AA
:1094E0007BF9C0EB00105030A02190FBF1F000E0C0
:1094F0000120404207B233463A46062128461EF074
:10950000DDFFBDE8F8830000F0B591B004462046C9
:1095100019F061FE072844D1204619F0C0FE064626
:1095200016F054F9074616F069F90546304622F060
:109530001AF805EBD571B0EB610F18DA01A811F03C
:10954000BBFF314601A812F07CF8174901A812F0C0
:109550003EF84FF48072002101A812F068F8C8218B
:1095600001A812F04EF801A812F07EF818E001A848
:1095700011F0A2FF314601A812F063F80A4901A8D0
:1095800012F025F800224FF4807101A812F04FF874
:10959000C82101A812F035F801A812F065F800BF43
:1095A00000BF11B0F0BD0000958D00082DE9F0431B
:1095B00091B00746384619F00EFE0546384619F0B8
:1095C0006BFE80460E2D2BD1404620F081FA0646D8
:1095D00016F0FCF8814616F011F90446304621F0E9
:1095E000C2FF04EBD471B0EB610F18DA01A811F0DF
:1095F00063FF314601A812F024F8254901A811F0B3
:10960000E6FF4FF48072002101A812F010F8C82183
:1096100001A811F0F6FF01A812F026F800BF33E010
:10962000072D31D1384619F03AFE04462078C01C87
:10963000C6B2132E00DB0026304624F065FA0F90E8
:10964000207824F061FA0E90124800680023009000
:109650001846DDE90E1227F07BFF207824F054FA3B
:1096600010900D48109926F042FC0C48109A0168A1
:109670000B48006814F057FC0A48109A01680A4821
:10968000006814F050FC00BF11B0BDE8F08300008A
:10969000958D00086C030020300300205803002043
:1096A0004C030020600300205003002008B503464F
:1096B00000930098484080EA620008BD2DE9F84F09
:1096C0008046404619F0E8FD8246404619F083FD89
:1096D0000646504620F0FCF981462B2E09D148461B
:1096E00027F0D3F8044600222146484627F0DAF84E
:1096F0003AE00A2E38D16946504620F06BFA5046BF
:1097000020F021F904460021484621F07CF8012888
:109710000AD1204604EBD071BDF90020C2EB6101F3
:1097200091FBF4F10DB209E0204604EBD071BDF9D4
:10973000002002EB610191FBF4F10DB2002D00DA83
:1097400000250027484627F0A0F8A84200D00127AE
:1097500001222946484627F0A5F827B100221C21FE
:10976000484619F09FFD00BFBDE8F88F10B5806036
:10977000C06000230361002110E0002400F1140305
:1097800043F82140002206E000F1400303EBC1133F
:1097900043F82200521C202AF6DB491C0B29ECDB83
:1097A00010BD0146002000E0401C31F9102041F6B8
:1097B000FF739A42F8D170472DE9F04F89B0064601
:1097C0000F4614461D46DDF8488030461FF0B2FBB8
:1097D000814642F2D171484623F062FC012148469D
:1097E00023F006FC48461CF021FA824639465046D2
:1097F0001DF024FA0022A44950461EF0FEFD484602
:109800001EF0F6FB834600221146584623F013F95A
:109810004FF400320021584623F00DF942F2640162
:10982000584624F0A1F848461FF084FB08900D220A
:109830001146089823F044FD4FF480320021089827
:1098400023F0F9F80022914908981EF0D6FD002077
:1098500024F05AF9002201460290089823F059FE9C
:1098600048461CF0E3F90790214607981DF0E6F9F9
:1098700048461FF05FFB06900D221146069823F024
:109880001FFD4FF480320021069823F0D4F8002207
:109890007E4906981EF0B1FD052024F035F900221E
:1098A00001460290069823F034FE48461CF0BEF9AB
:1098B0000590294605981DF0C1F948461FF03AFB6E
:1098C00004900D221146049823F0FAFC4FF48032E4
:1098D0000021049823F0AFF800226C4904981EF090
:1098E0008CFD092024F010F9002201460290049812
:1098F00023F00FFE48461CF099F903904146039867
:109900001DF09CF96248007801285BD1614A6249E8
:10991000484623F0ADFB01200021009104230A46B4
:10992000CDE90110504623F072FB032001210022F3
:109930000B46CDE9002102901146584623F067FB03
:1099400001200221CDE9000103460A4600210290D0
:10995000089823F05CFB01200321CDE900010346B8
:10996000022200210290069823F051FB01200421DD
:10997000CDE900010346022200210290049823F061
:1099800046FB01200221CDE90001034603221146D6
:109990000290079823F03BFB01200321CDE9000151
:1099A00003460A460290059823F031FB012004216A
:1099B000CDE900010346032211460290039823F0EB
:1099C00026FB5CE0354A3649484623F051FB01202E
:1099D0000021009102230A46CDE90110504623F0F0
:1099E00016FB01200022CDE900200223114602903F
:1099F000584623F00CFB0120022100220346CDE94A
:109A0000002102901146089823F001FB0120032158
:109A100000220346CDE9002102901146069823F06A
:109A2000F6FA0120042100220346CDE9002102902C
:109A30001146049823F0EBFA01200221002203468C
:109A4000CDE90021029002460321079823F0DFFAB6
:109A50000120032100220346CDE9002102900246A5
:109A6000059823F0D4FA0120042100220346CDE911
:109A70000021029002460321039823F0C8FA5846B9
:109A800009B0BDE8F08F0000280300203803002053
:109A900014030020860400207C0400209A04002087
:109AA000940400202DE9FE4F06460F4614461D463D
:109AB000DDF8308030461FF03DFA8146484623F0FD
:109AC00063F842F2D17242F26401484623F0F8FB97
:109AD0002B4A2C49484623F0CBFA48461AF05AFC48
:109AE0008246394650461BF0FEFA022000210091C2
:109AF00001230A46CDE90110504623F088FA484672
:109B00001CF094F88346214658461DF097F8012032
:109B1000002102220346CDE900210290584623F09D
:109B200076FA48461CF082F88346294658461DF0CE
:109B300085F80022144958461EF05FFC01200022DF
:109B4000CDE900200346022200210290584623F06E
:109B50005EFA48461CF06AF88346414658461DF0B6
:109B60006DF80120002102220346CDE90021029078
:109B700003220221584623F04AFA4846BDE8FE8FE8
:109B8000B0040020A60400202003002010B500BF70
:109B900000224FF400711148F8F782F900BF00F07D
:109BA00021F800BF012202210D48F8F779F900BF22
:109BB00000F018F800BF002202210948F8F770F9F8
:109BC00000BF00F00FF800BF012251020348F8F770
:109BD00067F900BF00F006F810BD0000001C01404E
:109BE000000C014010B5022000F0EEFA10BD00009C
:109BF00000B585B000BF00BF1948806940F008007B
:109C0000174988610846806900F00800009000BF8D
:109C100000BF00BF00BF00BF0846806940F0800061
:109C200088610846806900F08000009000BF00BF96
:109C300000BF022001901120029001200390032018
:109C4000049001A90748F7F779FF4FF400700190DD
:109C500001A90548F7F772FF00F0BEF805B000BD96
:109C600000100240000C0140001C014010B500BF74
:109C7000012251020C48F8F713F900BFFFF7B2FFB9
:109C800000BF012202210948F8F70AF900BFFFF7D7
:109C9000A9FF00BF002202210448F8F701F900BF24
:109CA000FFF7A0FF10BD0000001C0140000C0140A8
:109CB00070B50546002400261DE06006040E00BFB6
:109CC000012202211148F8F7EBF800BFFFF78AFFE5
:109CD0004FF400710E48F8F7D1F808B1601CC4B217
:109CE00000BF002202210948F8F7DAF800BFFFF7A9
:109CF00079FF701CC6B2082EDFDB15B9FFF7B6FF7F
:109D000001E0FFF743FF204670BD0000000C01405A
:109D1000001C014070B50446002525E000BFE009A5
:109D200028B1012251021548F8F7BAF805E00022DF
:109D30004FF400711148F8F7B3F800BFFFF752FF76
:109D400000BF012202210E48F8F7AAF800BFFFF772
:109D500049FF00BF002202210948F8F7A1F800BF1F
:109D60006006040E681CC5B2082DD7DB00BF0122B7
:109D700051020248F8F794F800BF70BD001C014082
:109D8000000C014010B500BF012251021048F8F745
:109D900087F800BF00BF012202210E48F8F780F8C3
:109DA00000BFFFF71FFF00BF00224FF400710848FB
:109DB000F8F776F800BFFFF715FF00BF0022022179
:109DC0000448F8F76DF800BFFFF70CFF10BD000066
:109DD000001C0140000C014010B500BF00224FF4F0
:109DE00000710C48F8F75CF800BFFFF7FBFE00BFFE
:109DF000012202210848F8F753F800BFFFF7F2FEEE
:109E000000BF012251020348F8F74AF800BFFFF7EC
:109E1000E9FE10BD001C0140000C014070B500249B
:109E2000002500BF012251021648F8F739F800BF9B
:109E3000FFF7D8FE00BF012202211348F8F730F8DF
:109E400000BFFFF7CFFE09E0601CC4B2FA2C03DDAF
:109E5000FFF7C2FF012508E0FFF7C4FE4FF40071D1
:109E60000848F8F70BF80028EED100BF00BF002229
:109E700002210548F8F714F800BFFFF7B3FE2846A3
:109E800070BD0000001C0140000C01407CB506467E
:109E90000D4634465020005D00F00100A84233D04A
:109EA0000DB1012000E000205021095D60F30001A8
:109EB0005020015504F14401684612F088F9BDF8BC
:109EC0000000616A898A084400B2ADF80000BDF85C
:109ED0000210606AC08A084400B2ADF80200BDF802
:109EE0000400616A898A084400B2ADF80400BDF834
:109EF0000610606AC08A084400B2ADF806006946E0
:109F0000304621F064FF00BF7CBD37B582B0054606
:109F100014462146039814F0F4FB0190BDF8041098
:109F2000084605B030BD2DE9FF4F8DB005460E4601
:109F30001446F07A022803DC012011B0BDE8F08F4E
:109F40003089326901460C901098FAF7B3F8074649
:109F50000FB90020F1E7397D01F01F001AF0D7F9A1
:109F600010B14FF006080AE0397D01F01F001AF029
:109F7000B1F910B14FF0050801E04FF00408386A5C
:109F800038B100BF00BF214628463A6A2CF0DCFDFC
:109F9000DEE0B869002859D021460BA812F0D8F8A5
:109FA000308818B97088B0F5807F32D0204612F022
:109FB0009FF9834600BFE0886188401A401C00B2C8
:109FC0000890301D7188CDE90010308803B25946E1
:109FD0000BA8089AF9F798FBBDF82C0021880844D3
:109FE00000B2ADF82C00BDF82E006188084400B224
:109FF000ADF82E00BDF830002188084400B2ADF85D
:10A000003000BDF832006188084400B2ADF832007B
:10A0100000BF0BAA09A8A968F9F780F88146B9F131
:10A02000000F04D1384601F046FC012085E7D5F841
:10A0300008A009A8A860CDF800802246314628462D
:10A04000BB6915F0FDFEC5F808A081E022460BA80B
:10A05000A968F9F763F80A900A9820B9384601F020
:10A060002AFC012069E70BA812F042F909900BA81D
:10A0700012F03EF900EB400003901DF045F98146D7
:10A08000D5F808A00BA907A812F062F8012107A8CB
:10A0900012F0C0F9BDF92C00B4F90010401A069076
:10A0A000BDF92E00B4F90210A0EB010BBDF92E0092
:10A0B000059042E007AA514602A8F9F72FF80A9046
:10A0C0000A9800B936E0CDF80090099803B20FFA6B
:10A0D0008BF2069801B238461AF046FE04900498B6
:10A0E00001280ED038461AF05FFD00BF00BF484679
:10A0F0001DF086F9384601F0DEFBC5F808A0002007
:10A100001BE702A8A8604B4607AA31462846CDF8AF
:10A11000008015F095FEBDF81E00401C00B2ADF8A1
:10A120001E00BDF82200401C00B2ADF822000BF169
:10A13000010B00BF0598401C0590BDF93210059831
:10A140008142B7DAC5F808A048461DF059F900BFAA
:10A15000384601F0B0FB0120EFE600BF00BF7047BA
:10A1600070B5044600204FF0E0210861F8F732FB9B
:10A17000E11704EB5171C1F3CF010C4A1180E117D3
:10A1800004EB5171CD104FF47A7045434FF0E0204D
:10A19000006940F002004FF0E02108610846456187
:10A1A000006940F00100086170BD0000100000204F
:10A1B00030B50446002504E04FF47A7000F004F84E
:10A1C0006D1CA542F8D330BD70B5034600224FF098
:10A1D000E02675690D4E368803FB06F44FF0E02645
:10A1E000B16910E04FF0E026B06988420BD0884298
:10A1F00002D20E1A324402E02E1A0E4432440146B4
:10A20000A24200D300E0EDE700BF70BD10000020C7
:10A21000F8B506460C4615460095B4F90630B4F973
:10A220000420B4F90210B4F900000DF03AFE3046F3
:10A2300015F0C6FAF8BD10B510F084F801200DF045
:10A2400043FD10BDF8B505462C461BF091F80646B7
:10A25000206B27F007FA3168898B88422CD2606A1C
:10A26000009094F83C0000F0030020B1012806D0D3
:10A2700002280CD107E00020ADF8000007E06420C0
:10A280008DF8020003E064208DF8030000BF00BFDA
:10A2900030461BF055FA2846009914F0ECFF50B1F7
:10A2A00000221C21284618F0FDFF0746012F01D08F
:10A2B0003846F8BD00BF00BF27F0E1F92063012058
:10A2C000F7E700002DE9F04F9BB007468946164698
:10A2D000BA4617A815F031FB4FF4A021384620F0FC
:10A2E00035FA9DF8691060F382018DF869103046E7
:10A2F00012F036F8054600EBD5704FEA600830885A
:10A30000404400B2ADF858007088404400B2ADF847
:10A310005A000021384620F0CCFB1590494603A88E
:10A320001FF026F817A80B904FF400301090334818
:10A330000490002005900AF13000FAF7B7F90446BE
:10A3400057E02079032800D04DE0208BADF85C0069
:10A35000208A00B2ADF85E006079FD2801DD159815
:10A3600003E060791599484300128DF8680025686C
:10A37000B5F92000E98B08440090B5F92030D5E903
:10A380000512A0681CF072FF8346B5F92000E98B26
:10A3900008440090B5F92030D5E90512E0681CF0BA
:10A3A00065FF0290608B404400B2ADF84800149401
:10A3B00016A80C9003AA1A21384618F073FF0298C9
:10A3C00080B21FFA8BF1CDE90010BDF8480083B2CE
:10A3D00016AA17A9484615F092FA03AA1B21384677
:10A3E00018F060FF00BF21460AF13000FAF758F973
:10A3F0000446002CA5D11BB0BDE8F08FEC0B04087F
:10A4000070B504460D4600222946204607F07EFE20
:10A4100001222946204607F079FE022229462046DD
:10A4200007F092FC04222946204607F08DFC70BDFF
:10A430002DE9F74F9EB00C46E078022802DC21B0EF
:10A44000BDE8F08F1CA8209911F094FEB4F920000B
:10A4500001282EDD94F82200FD282ADB208840B355
:10A46000BDF8700014F8231F4908C1F380010844A7
:10A4700000B2ADF87000BDF8720021784908C1F350
:10A480004001084400B2ADF87200BDF874002178B4
:10A490004908C1F3C001401A00B2ADF87400BDF81C
:10A4A000760014F82319C1F34001401A00B2ADF848
:10A4B00076001E981CA982681AA8F8F72FFE00B92A
:10A4C000BDE7E07B00F0070616B9A088199001E00F
:10A4D000E0881990BDF864106089814200D100269F
:10A4E0001CA816F0B1FC18901C2111A8F6F798F9D9
:10A4F000A0788DF85D00BDF86400ADF84C001898A8
:10A5000060B9208850B94EB91CA81190E0788DF838
:10A510005C0011A91E9817F047FB90E7E078FD2832
:10A5200001DBFF2000E0E07810901CA811F00AFF8A
:10A530000F901CA811F07EFE0E90DDE90E01814205
:10A5400001DA0F9800E00E980D90B4F900100D9804
:10A55000B1EB600F02DAB4F9000001E00D98401091
:10A5600007461AA811F0EEFE81464FF0FF300C901E
:10A5700000200B90002F01DC189870B148461CF0A9
:10A58000C3FE0B9000233AB21CA905A816F0D4FF15
:10A59000002105A816F0B4F80C90BDF86800ADF8DD
:10A5A0000C00BDF86C00ADF810000B98149003A8D7
:10A5B00011901690FF208DF85C00A01DDDE90E21A2
:10A5C00019F078FA8046B8F1000F0CD0022E0AD1AB
:10A5D000BDF96810D8F8080000EB4100BDF9701013
:10A5E000A0EB410012901898A0B3BDF96A502CE07E
:10A5F00028B2ADF80E0028B2ADF812004A46109904
:10A600000B981DF0FCF8BDF968100FFA89F32AB217
:10A610000B9816F02BFB8DF854009DF85400012880
:10A6200002D102208DF85400012E09D1BDF972101B
:10A63000691AD8F8080000EB41000088ADF84C001A
:10A6400011A91E9817F0B0FA6D1CBDF96E00A84252
:10A65000CEDACCE0FFE700255CE0BDF872002844CC
:10A660000FFA80FABDF87600401B0FFA80FBBDF9A7
:10A670006A00504504DDBDF96E00584500DA48E037
:10A680004A4610990B981DF0BAF8BDF90C100FFA54
:10A6900089F352460B9816F0E9FA8DF854009DF8AC
:10A6A0005400012802D102208DF85400BDF96A003F
:10A6B000504514DCADF80EA0ADF812A0012E0AD161
:10A6C000BDF97210AAEB0101D8F8080000EB4100B7
:10A6D0000088ADF84C0011A91E9817F065FABDF975
:10A6E0006E00584514DBADF80EB0ADF812B0012E77
:10A6F0000AD1BDF97210ABEB0101D8F8080000EBEC
:10A7000041000088ADF84C0011A91E9817F04CFAD2
:10A7100000BF6D1CBD42A0DBBDF87000ADF80400A9
:10A72000BDF87400ADF80800BDF87200384400B2FE
:10A73000ADF80600BDF87600C01B00B2ADF80A0007
:10A7400001A816F081FB00900098B0B9AEB9BDF831
:10A750007200384400B2ADF80E00BDF87600C01BA0
:10A7600000B2ADF8120010988DF85C000020149033
:10A7700011A91E9817F018FA38E010988DF85C00AF
:10A7800001208DF85400BDF97600A0EB070ABDF951
:10A790007200C51927E0009870B14A4610990B98CD
:10A7A0001DF02DF8BDF968100FFA89F32AB20B9845
:10A7B00016F05CFA8DF8540028B2ADF80E0028B2FD
:10A7C000ADF81200012E09D1BDF97210691AD8F83E
:10A7D000080000EB41000088ADF84C0011A91E985C
:10A7E00017F0E2F96D1C5545D5DD00BF00BF0B9891
:10A7F00010B10B981CF004FE0C98401C28B10C986A
:10A8000016F082FF05A816F0FBFAB8F1000F02D08F
:10A81000404619F046F900BF11E62DE9F0478EB029
:10A8200007460C461546206910B90EB0BDE8F08702
:10A83000A07E022800DCF8E720691AF039FD064600
:10A84000022E55D1002041F6FF71CDE900010290A2
:10A8500003460DA8D4E9041227F0FCFA284611F0AB
:10A8600071FD814600EBD970298801EB6000BDF9CC
:10A87000348008EBD871A0EB610000B2ADF82C0079
:10A88000BDF82C00BDF834100844401E00B2ADF8ED
:10A890003000284611F0CEFC814600EBD970698863
:10A8A00001EB6000BDF9368008EBD871A0EB6100C8
:10A8B00000B2ADF82E00BDF82E00BDF836100844E9
:10A8C000401E00B2ADF8320003A815F0A1FE606989
:10A8D0000390208BADF81800A07E8DF82600002094
:10A8E00000900BAA03A93846236915F0DDFAAEE003
:10A8F0000DA920691AF084F98046B8F1010F02D041
:10A9000000BF00BF91E707A815F0B1FAA0788DF855
:10A910002800208BADF82400E07E8DF82600A07E74
:10A920008DF82700207FE8BB284611F00BFD8246FA
:10A9300000EBDA70298801EB60000D99C1F38A29D8
:10A9400009EBD971A0EB610000B2ADF81400284604
:10A9500011F070FC824600EBDA70698801EB600050
:10A960000D994FEA515909EBD971A0EB610000B282
:10A97000ADF81600BDF814000D99C1F38A21084402
:10A98000401E00B2ADF81800BDF816000D9900EB9E
:10A990005150401E00B2ADF81A0005AA07A938466A
:10A9A000236900E002E015F013FA4FE06888ADF883
:10A9B0001600BDF816000D9900EB5150401E00B274
:10A9C000ADF81A003BE02888ADF81400BDF814007B
:10A9D0000D99C1F38A210844401E00B2ADF8180059
:10A9E00017E005AA07A93846236915F0F1F9BDF863
:10A9F00014000D99C1F38A21084400B2ADF8140087
:10AA0000BDF818000D99C1F38A21084400B2ADF8D1
:10AA10001800BDF91400B5F904108842E1DDBDF855
:10AA200016000D9900EB515000B2ADF81600BDF8BC
:10AA30001A000D9900EB515000B2ADF81A00BDF9A3
:10AA40001600B5F906108842BDDD00BF00BF00BF8B
:10AA5000EBE62DE9F04F87B083460C46164694F896
:10AA60002200022802DC07B0BDE8F08F208C00B97C
:10AA7000F9E794F82300C0F3440000B9F3E794F831
:10AA8000230000F0010000B1EDE7304611F05AFC60
:10AA90008146304611F0CEFB0746B4F90050B94567
:10AAA00001DA484600E038468246B5EB6A0F01DD20
:10AAB0004FEA6A05314605A811F05CFBBDF9141098
:10AAC00094F82300400800F0040010B1B4F920000D
:10AAD00003E0B4F9200028444042084400B2ADF835
:10AAE0001400BDF9181094F82300400800F0080085
:10AAF00010B1B4F9200003E0B4F92000284440422A
:10AB0000081A00B2ADF81800BDF9161094F8230029
:10AB1000400800F0020010B1B4F9200003E0B4F9DD
:10AB2000200028444042084400B2ADF81600BDF9A8
:10AB30001A1094F82300C0F3400010B1B4F92000BB
:10AB400003E0B4F9200028444042081A00B2ADF8EE
:10AB50001A00208C281A0FFA80F8B8F1000F01DAD9
:10AB60004FF00008A07894F82210CDE90210E08B95
:10AB7000ADF804002BB205AA31465846CDF8008046
:10AB800000F002F800BF6EE72DE9FF4FA3B00D46BD
:10AB900016461F463298FF2801DBFF2000E032985E
:10ABA0003290284616F050F92290229868B967B979
:10ABB000309850B93298009032462946319B2398FC
:10ABC00000F0A9FA27B0BDE8F08F239829468268E3
:10ABD00020A8F8F7A3FA00B9F4E720A811F0B2FB17
:10ABE00081461C2119A81CF044FE48461CF08CFB31
:10ABF0001C904FF0FF301890002F0ADD00233A46DA
:10AC0000294612A816F098FC002112A815F078FD2C
:10AC10001890012331460CA8309A16F08DFC0021C3
:10AC20000CA815F06DFD0B9009A819901E90BDF8A9
:10AC3000C400ADF86C0032988DF87C0033988DF824
:10AC40007D00B5F900003844B6F90010884203DDF4
:10AC5000B5F90000384401E0B6F9000000B2ADF8E3
:10AC60001C00B5F90400C01BB6F90410884203DAD1
:10AC7000B5F90400C01B01E0B6F9040000B2ADF85C
:10AC80002000B5F902003844B6F90210884203DD0D
:10AC9000B5F90200384401E0B6F9020000B2ADF89F
:10ACA0001E00B5F90600C01BB6F90610884203DA8B
:10ACB000B5F90600C01B01E0B6F9060000B2ADF818
:10ACC000220007A811F03EFB0690B5F90200B6F984
:10ACD0000210884201DC012000E000208246B5F924
:10ACE0000600B6F90610884201DB012000E00020D2
:10ACF0008346229800284CD0BDF88000ADF824008F
:10AD0000BDF88400ADF82800BDF9824029E0BAF111
:10AD1000000F04D1BDF91E00A04200DD20E0BBF110
:10AD2000000F04D1BDF92200A04200DA1DE020B2DC
:10AD3000ADF8260020B2ADF82A0049461C981CF058
:10AD4000CFFDBDF980100FFA89F322B21C9815F0DF
:10AD50008DFF8DF8740019A9239816F025FF00BF08
:10AD6000641CBDF98600A042D1DA00BF0CA816F021
:10AD700047F80B9816F0C8FC1898401C28B112A888
:10AD800016F03EF8189816F0BFFC1C981CF038FB23
:10AD900018E7B5F90000B6F90010884201DC01207F
:10ADA00000E000200590B5F90400B6F904108842CF
:10ADB00001DB012000E000200490012003900598B1
:10ADC00060B1049850B1BAF1000F07D0BBF1000F89
:10ADD00004D00698322801DA0020039001208DF873
:10ADE0007400BAF1000F15D0039898B1BDF81C009B
:10ADF000ADF82400BDF82000ADF828006888ADF853
:10AE000026007088401E00B2ADF82A0019A92398C8
:10AE100016F0CAFEBBF1000F15D0039898B1BDF82B
:10AE20001C00ADF82400BDF82000ADF82800F08823
:10AE3000401C00B2ADF82600E888ADF82A0019A938
:10AE4000239816F0B1FE059898B12888ADF8240033
:10AE50003088401E00B2ADF82800BDF81E00ADF8E5
:10AE60002600BDF82200ADF82A0019A9239816F093
:10AE70009BFE049898B1B088401C00B2ADF8240045
:10AE8000A888ADF82800BDF81E00ADF82600BDF872
:10AE90002200ADF82A0019A9239816F085FE039820
:10AEA000F0BBBDF88000ADF82400BDF88400ADF81B
:10AEB0002800B5F90200B6F90210401AB84201DACA
:10AEC000384604E0B5F90200B6F90210401A00B2A3
:10AED0000290002442E06888204400B20190E88893
:10AEE000001B00B20090BDF982100198814205DD7F
:10AEF000BDF986100098814200DA2EE049461C9880
:10AF00001CF0EEFCBDF924100FFA89F3019A1C988D
:10AF100015F0ACFE8DF87400BDF98210019800E0C8
:10AF200020E0814209DC0198ADF826000198ADF8D7
:10AF30002A0019A9239816F037FEBDF9861000984B
:10AF4000814209DB0098ADF826000098ADF82A0090
:10AF500019A9239816F028FE00BF641C02988442A9
:10AF6000B9DBC7E0BDF88000ADF82400BDF984105E
:10AF7000BDF91C00401E814202DABDF9840002E0E6
:10AF8000BDF91C00401E00B2ADF8280009A811F060
:10AF9000D9F98046B8F1000F48DD059810B9BAF12B
:10AFA000000F1ED0BDF9824017E020B2ADF8260098
:10AFB00020B2ADF82A0041461C981CF091FCBDF966
:10AFC0002410434622B21C9815F050FE8DF87400F0
:10AFD00019A9239816F0E8FD641CBDF91E00A042D3
:10AFE000E3DC059810B9BBF1000F1FD0BDF92200BA
:10AFF000441C17E020B2ADF8260020B2ADF82A00BC
:10B0000041461C981CF06CFCBDF92410434622B24A
:10B010001C9815F02BFE8DF8740019A9239816F0D2
:10B02000C3FD641CBDF98600A042E3DABDF98010BF
:10B03000BDF92000401C814202DDBDF9800002E024
:10B04000BDF92000401C00B2ADF82400BDF884001A
:10B05000ADF8280009A811F075F98046B8F1000F85
:10B0600048DD049810B9BAF1000F1ED0BDF9824036
:10B0700017E020B2ADF8260020B2ADF82A00414614
:10B080001C981CF02DFCBDF92410434622B21C98DC
:10B0900015F0ECFD8DF8740019A9239816F084FDC5
:10B0A000641CBDF91E00A042E3DC049810B9BBF19A
:10B0B000000F1FD0BDF92200441C17E020B2ADF8EC
:10B0C000260020B2ADF82A0041461C981CF008FC6E
:10B0D000BDF92410434622B21C9815F0C7FD8DF827
:10B0E000740019A9239816F05FFD641CBDF9860051
:10B0F000A042E3DA0CA815F083FE0B9816F004FBCF
:10B1000012A815F07DFE189816F0FEFA1C981CF097
:10B1100077F900BF56E52DE9FF4F89B080460C4610
:10B120001546DDF858901C2168461CF0A2FB07A8C4
:10B130000090BDF83000ADF808008DF81890B4F913
:10B140000200B5F90210884201DC012000E0002075
:10B150000646B4F90600B5F90610884201DB012065
:10B1600000E000200746B4F90000B5F9001088425D
:10B1700001DC012000E000208246B4F90400B5F9AA
:10B180000410884201DB012000E000208346208873
:10B19000ADF81C00A088ADF820006088ADF81E0056
:10B1A0006888401E00B2ADF822001EB169464046D4
:10B1B00016F0FAFCE888401C00B2ADF81E00E088EA
:10B1C000ADF822001FB16946404616F0EDFC20881C
:10B1D000ADF81C002888401E00B2ADF8200016B162
:10B1E000B5F9020001E0B4F90200ADF81E0017B194
:10B1F000B5F9060001E0B4F90600ADF82200BAF195
:10B20000000F03D06946404616F0CEFCA888401CCB
:10B2100000B2ADF81C00A088ADF82000BBF1000F13
:10B2200003D06946404616F0BFFC0DB0BDE8F08F74
:10B230002DE9FF4F93B00746904699464FF6FF70B1
:10B24000804502D117B0BDE8F08F3E46746A208C6D
:10B250001290208C484506D0A4F82090608C20F0F5
:10B260000400001D60844FF48021204620F021F866
:10B2700011904FF48021204620F08BF8054611985C
:10B2800018F06CF98246384609F083FA8346BBF819
:10B290001600ADF83E00BDF93E000AEB050108FBC3
:10B2A000010000B2ADF83E00284605EBD071BDF8B4
:10B2B0003E20A2EB610109B2ADF83E10BDF83E00A0
:10B2C00050442844401E00B2ADF84200706A808AA3
:10B2D000ADF83C00706A008BADF8400001A816F094
:10B2E00041FA01AA4FF48021204620F087FB0FAAE3
:10B2F00001A9149816F01AFA12982084608C20F094
:10B300000400608400BF9DE72DE9F04F91B007462F
:10B310000D46904699464FF6FF70804502D111B018
:10B32000BDE8F08F1097109F7C6A208C0F90208CC6
:10B33000484506D0A4F82090608C20F00400001D41
:10B34000608407A815F064F907AA4FF4802120460D
:10B3500020F079FA4FF48021204620F01AF8ADF859
:10B360002E00384609F015FA064606B9D7E70798C1
:10B3700018F0F4F88246F08AADF81600BDF9160010
:10B38000BDF92E10514408FB010000B2ADF81600C3
:10B39000BDF92E0000EBD071BDF81620A2EB6101C3
:10B3A00009B2ADF81610BDF816005044BDF82E10C5
:10B3B0000844401E00B2ADF81A00A08AADF814008F
:10B3C000208BADF8180005AA03A8A968F7F7A6FE18
:10B3D0008346BBF1000F13D0A868029003A8A860B1
:10B3E00030461AF045FF01900020009006F114024B
:10B3F00007A92846019B14F057FD0298A86000BFDA
:10B400000F982084608C20F00400608400BF86E7E1
:10B410002DE9F04105463548006814F0EBF9044683
:10B420002868866BF06A10B13046F16A8847206858
:10B4300090B1606880B10CE02C4800680068806AB8
:10B4400038B12A4A12681068284A12681268916A4C
:10B45000884720690028EFD1012020612348006837
:10B460000068C068806900F0010050B11F480068A2
:10B470000068C0688069C0F3400010B101206061BD
:10B4800001E000206061606908B1012000E0002057
:10B4900007462868406998B12868007CC0F301100D
:10B4A00048B12868007CC0F3800020B1D6E90010C4
:10B4B00000F01EF804E0D6E900212868FCF75AFCE9
:10B4C000206880B1606870B12868007C00F00100DD
:10B4D00000B147B12168A068884202D16068A060CD
:10B4E00001E02068A060BDE8F08100004801002074
:10B4F0002DE9F34F83B00446884800680568874803
:10B5000000680068007CC0F3400040B1287CC0F3B4
:10B51000800020B100BF00BF05B0BDE8F08F287CDF
:10B52000C0F3011002280AD121462846049A00F0EF
:10B5300004F921462846049AFCF71CFCEBE0287C21
:10B54000C0F30110012804D0287CC0F301100328A7
:10B55000F4D1002002907148006814F04BF9824643
:10B56000204610F0BEFE0646204610F047FE8346F9
:10B570004FF4A050B0FBF6F000B2584505DA4FF496
:10B58000A050B0FBF6F000B200E058460190B4F9CC
:10B590000280287CC0F3011001280BD16888218823
:10B5A000401A401E00B2E080E088801B401C00B2C0
:10B5B000608006E02088608060883044401E00B2D1
:10B5C000E08000279EE0ABEB07010198814201DD9E
:10B5D000019801E0ABEB07000FFA80F90120CAF8EF
:10B5E000100047BBB34526DBB146297CC1F30111EE
:10B5F000032901D1012100E0002108463146049AC7
:10B6000000F00FF9287CC0F30110012807D1A4F83D
:10B61000008008EB0600401E00B2A0803FE02888B2
:10B62000401EA0EB080000B2A080A088801B401C38
:10B6300000B2208033E0029820B94FF420501BF074
:10B6400063FE029002980090297CC1F30111032946
:10B6500001D1012100E0002108464A463146049B01
:10B6600000F0B2F8287CC0F3011001280AD108EBE1
:10B67000070000B2208008EB07004844401E00B2DB
:10B68000A0800CE02888401EA0EB0800C01B00B280
:10B69000A080A088A0EB0900401C00B2208007EB2E
:10B6A000090058450DDBDAF8180000F0010040B140
:10B6B000DAF81800C0F3400018B10120CAF81400ED
:10B6C00002E00020CAF81400029808B9049800E0CB
:10B6D0000298024621462846FCF74CFB04E0A86A83
:10B6E00010B12846A96A8847DAF810000028F6D178
:10B6F00006FB09F1049800EB4100049007EB0900F8
:10B7000007B200BF5F45FFF65EAF029810B1029826
:10B710001BF076FE00BF00BFFEE6000048010020DF
:10B7200018B5048800940C88048014880C801C8848
:10B730001480BDF800401C8018BD2DE9FC5F054653
:10B740000C461646204610F0CCFD8246204610F0EE
:10B7500055FD83460AFB0BF001900198471E4FF000
:10B76000000811E006EB47000088009006EB470058
:10B7700006EB48010988018006EB4800BDF800107F
:10B7800001807F1E08F101084745EBD8B4F9069007
:10B7900068886188401A401E00B2E0806888A0EB8B
:10B7A0000900401E00B26080B4F904902888218806
:10B7B000401A401E00B2A0802888A0EB0900401E5D
:10B7C00000B22080BDE8FC9F2DE9F04704461D46ED
:10B7D000089F01FB02F0A0F1010C481E00FB02F8DB
:10B7E00000231AE008EB03000CB1ACEB00000026CC
:10B7F0000FE0A946AD1C07EB400AB9F80090AAF883
:10B8000000900CB1104400E0801A06F101090FFA13
:10B8100089F68E42EDDB581C03B29342E2DBBDE8B1
:10B82000F0872DE9F04782460C46154600263BE09E
:10B83000002731E0601E801B0FFA80F8601EC01BDD
:10B840000FFA80F9BAF1000F12D007FB048C05EB58
:10B850004C0308FB049C05EB4C0209FB046C05EB54
:10B860004C0106FB047C05EB4C00FFF759FF11E08F
:10B8700009FB046C05EB4C0308FB049C05EB4C0234
:10B8800007FB048C05EB4C0106FB047C05EB4C002C
:10B89000FFF746FF781C07B2601C00EBD071B7EBD6
:10B8A000610FC7DB701C06B204EBD471B6EB610FFD
:10B8B000BEDBBDE8F08710B50446204619F074F9E8
:10B8C00010BD00002DE9F14F9EB01E9817F0E4FC6A
:10B8D00005462C461E9817F086FC1D90606A1AF0EB
:10B8E000C7FC07465020005D00F0010010B91FB0F2
:10B8F000BDE8F08F0FA815F035FF0FAA4FF4E02137
:10B90000284620F07BF804F144010DA810F05FFCFC
:10B91000BDF83400616A898A084400B2ADF8340089
:10B92000BDF83610606AC08A084400B2ADF836002F
:10B93000BDF83800616A898A084400B2ADF8380061
:10B94000BDF83A10606AC08A084400B2ADF83A0007
:10B950000DAA0FA91D9815F0E9FE4FF4E021284625
:10B960001EF0ECFF06464FF4E02128461FF04EFA89
:10B9700030440FFA80F84FF4E02128461FF0BFFB57
:10B9800030440FFA80F900200B900C90E16CC8193C
:10B990001F49096888478246E06CC11952460BA8C6
:10B9A0001BF0CDFDBDF83400404400B2ADF83400CA
:10B9B000BDF83600484400B2ADF836004FF0000B39
:10B9C000D4F824A040F25742594650461FF0A4FB39
:10B9D000019001980A9002A814F01AFE02AA4FF4EE
:10B9E000E02128461FF02FFF9DF83F00022805DCCC
:10B9F000BDF81400BDF82810884207D000200BAB1A
:10BA00000DAA02A900901D9814F04EFA00BF6EE72F
:10BA1000D40200202DE9F04FBDB005460E4600BF10
:10BA200000BFAB460BF13000F8F78EFE10B13DB011
:10BA3000BDE8F08F05F114023BA8B168F7F76EFB83
:10BA400000B9F4E7B0683A903BA8B06035A814F0AC
:10BA50002BFE35AA4FF4E02128461FF05BFF27A8F4
:10BA600015F080FE9DF8DC008DF89F0047F6FF7012
:10BA7000ADF89C004FF4E02128461FF040FD07463A
:10BA800000EBD7704FEA60094FF4E02128461FF021
:10BA900036FD074600EBD7704FEA600A314604A82E
:10BAA0001DF066FC24A80A9016A808904FF4E02028
:10BAB000119069480590052006900BF13000F8F7C9
:10BAC000F5FD0446C0E00A2235A924A81BF037FD85
:10BAD000382227A916A81BF032FDE088ADF89000A7
:10BAE000E088ADF85C0039A80D9038A80E90607B16
:10BAF00000F0010020B1B4F90070B4F9028010E048
:10BB0000A08847F6FF71884200D197E0A28801AB78
:10BB10002846A16812F022F8BDF90470BDF906802C
:10BB200000BFA88A384407B2E88A40440FFA80F878
:10BB3000B9F1000F19D0BAF1000F16D0A7EB090028
:10BB400000B2ADF8080007EB090000B2ADF80C0038
:10BB5000A8EB0A0000B2ADF80A0008EB0A0000B238
:10BB6000ADF80E0002A8079001E000200790207BAE
:10BB700000F0030070B3207B00F0010010B1B5F9B4
:10BB8000140000E03846ADF8E400ADF8E680207B14
:10BB900000F0020010B1B5F9180000E03846ADF829
:10BBA000E000BDF8E600ADF8E20004AA1A2128463C
:10BBB00017F078FB38AB39AA24A9304614F05DFDA4
:10BBC00002AA16A9304615F0B1FD04AA1B21284689
:10BBD00017F068FB207B00F00C0070B3ADF8E47048
:10BBE000207B00F0040010B1B5F9160000E04046DB
:10BBF000ADF8E600BDF8E400ADF8E000207B00F011
:10BC0000080010B1B5F91A0000E04046ADF8E200B6
:10BC100004AA1A21284617F045FB38AB39AA24A9F3
:10BC2000304614F02AFD02AA16A9304615F07EFD12
:10BC300004AA1B21284617F035FB00BF21460BF153
:10BC40003000F8F72DFD0446002C7FF43CAF3A9805
:10BC5000B06000BFEBE60000B40604082DE9F14F28
:10BC60009AB01A9817F018FB04461A9817F0BBFA06
:10BC7000199020461FF077FC074620461DF0D8FE9D
:10BC8000834607EBD771A28A02EB610109B21891D2
:10BC90000BEBDB714A10E18A114409B2179107EBF3
:10BCA000D7714E1014A814F0FFFC14AA00212046EE
:10BCB0001FF030FE4FF41D707043552190FBF1F0E2
:10BCC000642190FBF1F000B2ADF85200BDF85200D3
:10BCD000801C00B2ADF852000020139000212046D5
:10BCE0001EF043FD0546002347F6FF7204F11401E0
:10BCF0000DA815F021FC00210DA814F001FD0C90F9
:10BD000000BFA08AADF82800E08AADF82A00208B99
:10BD1000ADF82C00608BADF82E0000BFBDF82800F8
:10BD2000284400B2ADF82800BDF82C00401B00B23A
:10BD3000ADF82C00BDF82A00284400B2ADF82A0066
:10BD4000BDF82E00401B00B2ADF82E00012347F6CF
:10BD5000FF720AA904A815F0EFFB002104A814F053
:10BD6000CFFC0390BDF952804FF0000A4FE05146DE
:10BD70002046FAF747FE0090BDF80000ADF85000ED
:10BD80001398C0F30F290FFA89F025F075FF06EB21
:10BD900008014843189901EBE03000B2ADF8040007
:10BDA0000FFA89F025F058FF06EB08014843179970
:10BDB00001EBE03000B2ADF806000FFA89F025F093
:10BDC0005BFF711BA1EB08014843189901EBE030C0
:10BDD00000B2ADF808000FFA89F025F03DFF711BA5
:10BDE000A1EB08014843179901EBE03001B2ADF82F
:10BDF0000A1002AB01AA14A9199814F03EFC0AF12A
:10BE000003001FFA80FA139800F587601390BAF5C3
:10BE1000807FACDD0DA814F0F3FF04A814F0F0FF50
:10BE20000C9815F071FC039815F06EFC1BB0BDE882
:10BE3000F08F00002DE9F04FA5B004460F462546CF
:10BE400004F1140123A8BA68F7F768F92290229840
:10BE500010B925B0BDE8F08FB868219023A8B8606C
:10BE6000002120461EF043FD1E90002120461EF0BA
:10BE700058FF01461E98084400B21D90002120463C
:10BE80001FF0BBF801461E98084400B21C902046E3
:10BE90001DF059FD7E35E9884843001200B21B9021
:10BEA00020461DF031FD29894843001200B21A9046
:10BEB00017A814F0F9FB17AA002120461FF02AFD4D
:10BEC000394605A81DF054FA002012908C480690BF
:10BED0000020079017A80B904FF0FF301390002020
:10BEE0000E900F9005AA1A21204617F0DBF90020CA
:10BEF00001903122204601991FF00EF90090009820
:10BF000000F0FF0B00BF002120461EF0F0FC049063
:10BF1000002001903322204601991FF0FDF8009087
:10BF2000009800F0FF0800BF20461DF077FE039048
:10BF300020461DF06DFF029035F87E09002865D07F
:10BF4000E18A1C9801440298081A00B20190A08A64
:10BF5000ADF88000208BADF87C004FF00009B5F8FB
:10BF60007E000FFA80FABBF1020F1ADD0498002858
:10BF700017DD08F0020040B1002120461FF03DF817
:10BF800018B909F101000FFA80F908F0010040B179
:10BF9000002120461EF0E8FD18B9AAF101000FFAB1
:10BFA00080FA4E462FE01A987043B5F87E10491E6D
:10BFB00090FBF1F000B2ADF88200BDF8821001985C
:10BFC000084400B2ADF88200BDF88200ADF87E00F2
:10BFD0004B4806900120079020A80E901FA80F90B4
:10BFE000139605AA1A21204617F05CF91FAB20AA68
:10BFF00017A9384614F041FB05AA1B21204617F06B
:10C0000051F9701C06B25645CDDB00BFB5F8800073
:10C01000002865D0A18A1D9801440398081A00B22F
:10C020000190E08AADF88200608BADF87E004FF0A1
:10C030000009B5F880000FFA80FABBF1020F1ADD93
:10C040000498002817DD08F0040040B100212046C4
:10C050001EF067FE18B909F101000FFA80F908F027
:10C06000080040B1002120461EF004FF18B9AAF1D3
:10C0700001000FFA80FA4E462FE01B987043B5F886
:10C080008010491E90FBF1F000B2ADF88000BDF8C1
:10C0900080100198084400B2ADF88000BDF880001F
:10C0A000ADF87C00164806900220079020A80E905C
:10C0B0001FA80F90139605AA1A21204617F0F2F830
:10C0C0001FAB20AA17A9384614F0D7FA05AA1B21DE
:10C0D000204617F0E7F8701C06B25645CDDB00BFCE
:10C0E0004FF0FF30139000200E900F9005AA1B21F7
:10C0F000204617F0D7F82198B86000BFA9E60000E5
:10C10000B40604082DE9F14F9AB01A9817F063F8B5
:10C1100007461A9817F0C0F805462C46122F7DD115
:10C120001A9817F0B6F806463078022802D11BB0EC
:10C13000BDE8F08F94F8380000F00300032805D024
:10C1400094F8380000F00300022802D1012030707A
:10C15000EDE794F83800C0F38400042808D094F880
:10C160003800C0F38400012802D001203070DEE7DF
:10C170004FF0000A4622514628461EF0CDFF199086
:10C180001998C0B2FF2802D001203070CFE70021FB
:10C1900028461FF03FF98146208E8144B9F1000FF7
:10C1A00002D001203070C2E7002128461FF073F949
:10C1B0008046E08E00FB08F04FEA20281A9817F01E
:10C1C00068F88346B8F5807F09D1002205F1140193
:10C1D0005846F6F7E4FFE8BB01203070A7E7284691
:10C1E0001DF026FC824628461FF0BDF9179004F189
:10C1F00032001FFA88F100235246CDE9001018A83A
:10C200001799F7F781FABDF86000A98A084400B2CF
:10C21000ADF86000BDF86210E88A00E01DE0084457
:10C2200000B2ADF86200BDF86400A98A084400B20B
:10C23000ADF86400BDF86610E88A084400B2ADF8B5
:10C240006600002218A95846F6F7A9FF18B9012080
:10C2500030706CE700E000BF19E2152F01D0182FF5
:10C26000FAD1002128461FF016F98046E08E00FB27
:10C2700008F04FEA2028002128461FF0CBF882461C
:10C28000208E824428461FF06EF9199028461DF032
:10C29000CFFB1890002641F23202314628461EF0AC
:10C2A0003BFF0E900E9800B2814600BF41F612028D
:10C2B000314628461EF030FF0E900E9848440FFA83
:10C2C00080FB00BF41F61302314628461EF024FFD2
:10C2D0000E900E98484400B2179000BF41F610022D
:10C2E000314628461EF018FF0E900E98484400B2C2
:10C2F000169000BF41F61102314628461EF00CFF91
:10C300000E900E98484400B21590608E584400B2CA
:10C31000ADF85000A18E1698084400B2ADF8520056
:10C3200094F8390000F00300012804D112A928462E
:10C330001DF028FB27E014A91FFA88F00FFA8AF3F2
:10C34000CDE9000112A8DDE91821F7F7DDF9BDF804
:10C350004800A98A084400B2ADF84800BDF84A1068
:10C36000E88A084400B2ADF84A00BDF84C00A98A3A
:10C37000084400B2ADF84C00BDF84E10E88A0844FD
:10C3800000B2ADF84E0005F1140110A80FF00DFF3A
:10C3900012A905F114000FF008FFBE481A991DF00C
:10C3A0000DFA0F900F98012800D0C0E610A905F1F2
:10C3B00014000FF0FAFE152F7ED1E08D08B1A08D8C
:10C3C00000B9B4E6B8F1000F00D1B0E61A9816F043
:10C3D0000AFF064605F114010DA80FF0E6FE2846F7
:10C3E00018F054FE0C9094F8390000F00300012876
:10C3F0003CD1B4F92C10BDF93020891A481C00EB4F
:10C40000D071BDF83420A2EB610109B2ADF834104F
:10C41000B4F92C10BDF93020891A481C00EBD071FA
:10C42000BDF83820A2EB610109B2ADF83810B4F9BB
:10C430002E10BDF93220891A481C00EBD071BDF8CE
:10C440003620A2EB610109B2ADF83610B4F92E1016
:10C45000BDF93220891A481C00EBD071BDF83A2092
:10C46000A2EB610109B2ADF83A1013E012A80FF087
:10C4700093FFBDF834100844401E00B2ADF83800F8
:10C4800012A80FF001FFBDF836100844401E00B29C
:10C49000ADF83A00BDF83400584400B2ADF83400AD
:10C4A000BDF836101698084400B2ADF83600BDF855
:10C4B00038101798081A00E0E8E000B2ADF838002C
:10C4C000BDF83A101598081A00B2ADF83A0094F881
:10C4D000380000F00300012805D094F8380000F07F
:10C4E000030000287AD106A813F0C1FC06AA002197
:10C4F00028461FF049F91FFA88F0ADF81A001FFA14
:10C500008AF0ADF81800608EADF81C00A18EADF871
:10C510001E1094F83800C0098DF82C00BDF84800B2
:10C52000584400B2ADF81000BDF84A1016980844FF
:10C5300000B2ADF81200BDF84C101798081A00B2FE
:10C54000ADF81400BDF84E101598081A00B2ADF8F9
:10C550001600B068039004AA04A8B168F6F7DEFDDF
:10C5600000B9E4E504A8B060BDF83610608D084459
:10C5700000B2ADF80600BDF90600BDF936108842DC
:10C5800006DDBDF80600E18D401A00B2ADF80600E8
:10C59000BDF80600E18D0844401E00B2ADF80A0067
:10C5A00049E0BDF83400218D084400B2ADF8040024
:10C5B000BDF90400BDF93410884206DDBDF8040061
:10C5C000A18D401A00B2ADF80400BDF80400A18DA1
:10C5D0000844401E00B2ADF8080016E034E001AA9D
:10C5E00006A93046636A13F0F3FBBDF80400BDF8FA
:10C5F0003010084400B2ADF80400BDF80800BDF8E2
:10C600003010084400B2ADF80800BDF90400BDF9CF
:10C6100038108842E3DBBDF80600BDF8321008444C
:10C6200000B2ADF80600BDF80A00BDF832100844AB
:10C6300000B2ADF80A00BDF90600BDF93A10884213
:10C64000AFDB0398B06020E094F8380000F00300FE
:10C65000022811D104A813F0DBFF04AA0021284608
:10C660001FF0F1F80020009005F1140204A93046F3
:10C67000636A13F019FC08E000BF00BF002305F156
:10C6800014021946304613F0A3FB00BF00BF00BFE1
:10C690004DE500002CB004082DE9F14FDCB05C98AA
:10C6A00016F0FAFD05462C465C9816F09CFD5B9052
:10C6B00059A928461DF066F90020CDE9105040F632
:10C6C0000A02DDE910011EF027FD0F900F9800B25D
:10C6D00058900020CDE9105040F60B02DDE9100122
:10C6E0001EF01AFD0F900F9800B25790BDF864111C
:10C6F0005898081A00B2ADF86401BDF8681158984E
:10C70000084400B2ADF86801BDF866115798081AE0
:10C7100000B2ADF86601BDF86A115798084400B23E
:10C72000ADF86A0159A80FF029FE834659A80FF009
:10C730009DFD5690D4E90A10A0EB01095698834557
:10C7400001DB012000E0002080460020559094F895
:10C750005C0000F0030001280BD1A06A002808DA71
:10C76000E06A002805DDA16A206B884201D1012022
:10C770005590002128461EF0FBFA549000212846CF
:10C780001EF09FFB5390002128461EF05DFC529046
:10C79000002128461EF00FFA519059A904F13400E7
:10C7A0000FF0F1FCA18E5498084400B2A086218FAE
:10C7B0005398081A01B22187E18E5298084401B2B9
:10C7C000E186618F5198081A01B26187B8F1000FB4
:10C7D00013D004F134000FF049FD04280DDA569807
:10C7E00000EBD0714A10E98A1144891E0AB2E28630
:10C7F000E08E001D01B2618715E0B8F1000F12D183
:10C8000004F134000FF0BAFD04280CDA58460BEBA3
:10C81000D071AA8A02EB6101891E09B2A186A08E9D
:10C82000001D01B2218704F134000FF0A7FD5090E4
:10C8300004F134000FF01AFD4F90B8F1000F01D051
:10C84000509800E04F988246B8F1000F05D004F1EF
:10C850003406371DFE484C9004E004F13606371DBF
:10C86000FC484C90A06D401CF8B1A36A216DC91A18
:10C8700001FB0AF191FBF9F108B2A36A616DC91AD3
:10C8800001FB0AF191FBF9F10AB2131AD4F858C06E
:10C8900003FB0CF1CB1701EB13631B121BB24D937F
:10C8A0004D99014409B24D9108E0A16A206B401AEC
:10C8B00000FB0AF090FBF9F000B24D90A06C401C18
:10C8C000E0B1A36A216CC91A01FB0AF191FBF9F1ED
:10C8D00008B2A36A616CC91A01FB0AF191FBF9F174
:10C8E0000AB2131AD4F848C003FB0CF1CB1701EBC2
:10C8F000136300EB23231BB24E9308E0D4E9090134
:10C90000401A00FB0AF090FBF9F000B24E900020B4
:10C91000119041F26A42284611991EF0FDFB1090D9
:10C920001098C0B24B90B8F1000F0ED04B98012870
:10C930000BD130463E4607464E99494209B24E91C8
:10C940004D99494209B24D9100BFB8F1000F0AD08C
:10C9500031884E98084400B2388031884D98084498
:10C9600000B230800AE039884E98081A401C00B2A4
:10C97000308039884D98081A00B23880559878B3BD
:10C98000A26A524202FB0AF292FBF9F211B2B8F12A
:10C99000000F0CD032880A4410B2B7F9002082424E
:10C9A00001DD30801BE03A883280388017E03A8819
:10C9B000521A521C10B2B6F90020824201DD3880B2
:10C9C00002E032883A803080B7F90020B6F90030B2
:10C9D0009A4204DAB6F900003A883280388000BF03
:10C9E000559800BB04F134004C99884701281ADCA3
:10C9F00068465B991CF0BCFC4FF400300D909648E3
:10CA000001900020029004F1340003906A461A213C
:10CA1000284616F047FC6A461B21284616F042FCC1
:10CA20005DB0BDE8F08F04F1340149A80FF0ABFB15
:10CA30003BA814F097FE3BAA4FF4003128461EF0A5
:10CA4000DDFF29A85B991CF093FC4FF40030369071
:10CA500081482A9000202B903BA82D9004F13400AF
:10CA60002C9029AA1A21284616F01CFC00201190AF
:10CA70006022284611991EF04FFB1090109800B2CA
:10CA800028905698834501DA584600E0569827903A
:10CA9000DDE92701B1EB600F02DD279840102890F7
:10CAA000BDF9EC0026904F995098884201DA5098D1
:10CAB00000E04F982790DDE92601B0EB610F02DD21
:10CAC000279840102690B8F1000F08D004F13400E8
:10CAD0000FF054FC01462698B1EB400F0BDCB8F187
:10CAE000000F28D104F134000FF0C0FB0146269856
:10CAF000B1EB400F1FDD9DF8EF0011909DF806018E
:10CB000010909DF80E010F9000208DF8EF008DF829
:10CB100006018DF80E0104F134023BA95B9814F074
:10CB200005FE11988DF8EF0010988DF806010F980A
:10CB30008DF80E0100BFA98A5498084400B2ADF8E0
:10CB40007800298B5398081A00B2ADF87C00E98A66
:10CB50005298084400B2ADF87A00698B5198081ACF
:10CB600000B2ADF87E0000231EA920A8289A14F078
:10CB7000E3FC002120A813F0C3FD1D909DF82201C5
:10CB80001C909DF80E011B9000208DF80E018DF871
:10CB9000220159A919A80FF0F6FABDF864105498AB
:10CBA000084400B2ADF86400BDF86610529808441D
:10CBB00000B2ADF86600BDF868105398081A00B2CC
:10CBC000ADF86800BDF86A105198081A00B2ADF8C7
:10CBD0006A00B8F1000F15D019A80FF047FB042820
:10CBE00010DA569800EBD0714A10E98A1144891E78
:10CBF00009B2ADF86610BDF86600001D00B2ADF8D0
:10CC00006A0017E0B8F1000F14D119A80FF0B6FBB5
:10CC100004280FDA58460BEBD071AA8A02EB6101A7
:10CC2000891E09B2ADF86410BDF86400001D00B2A1
:10CC3000ADF86800BDF9EC20002304F1340113A81D
:10CC400014F07AFC002113A813F05AFD129005E0AD
:10CC50007DC301086DC2010884AF040819AA3BA96D
:10CC60005B9814F063FD1B988DF80E011C988DF8ED
:10CC7000220100208DF8EF008DF806018DF82201C9
:10CC800004F134023BA95B9814F050FD13A814F092
:10CC9000B7F820A814F0B4F8129814F035FD1D98D8
:10CCA00014F032FD29AA1B21284616F0FBFA00BF1A
:10CCB000B6E6F0B591B00546284616F0EDFA044602
:10CCC000284616F090FA0746264603A814F04AFDB7
:10CCD00003AA4FF4403120461EF090FE47F6FF7045
:10CCE000ADF80C002C20805D00F0010038B120462A
:10CCF00012F0AFFA0090BDF80000ADF81000214628
:10CD000001A807F05FFC01AA03A9384614F00EFD44
:10CD100011B0F0BD2DE9F04FB3B08146484616F092
:10CD2000BBFA80464446484616F05DFA3290002130
:10CD300040461DF075FD054640461EF014FC824637
:10CD400040461CF075FE8346DA4501DB012000E019
:10CD5000002006460EB1584600E0504631900027AC
:10CD600094F85C0000F00300012806D1A06A0028B6
:10CD700003DAE06A002800DD0127002E3CD097B9D5
:10CD80003EB1012D02D1B4F9340009E0B4F9380004
:10CD900006E0012D02D1B4F9360001E0B4F93A0001
:10CDA000ADF8BC0037E0606A002812DB3EB1012D0F
:10CDB00002D1B4F9340009E0B4F9380006E0012DDD
:10CDC00002D1B4F9360001E0B4F93A00ADF8BC0084
:10CDD00021E03EB1012D02D0B4F9340009E0B4F9EC
:10CDE000380006E0012D02D0B4F9360001E0B4F9B4
:10CDF0003A00ADF8BC000EE01FB9E08EADF8BE0001
:10CE000009E0606A002803DBE08EADF8BE0002E0B6
:10CE1000608FADF8BE0021A814F0A4FC21AA4FF445
:10CE2000403140461EF0EAFD33462FA94046319A74
:10CE300026F020FB2FA904F168000FF0BFF90FA81E
:10CE400032991CF095FA4FF440301C903C481090F9
:10CE5000002011901D9004F16800129021A81390F9
:10CE6000404622F0F6F8022810D00FAA1A214046B8
:10CE700016F018FA04F1680221A9329814F056FC51
:10CE80000FAA1B21404616F00DFA55E0382221A9C1
:10CE900001A81AF054FB0FAA1A21404616F002FA14
:10CEA00004F1680221A9329814F040FC0FAA1B215A
:10CEB000404616F0F7F996B13EB1012D02D0B4F913
:10CEC000340009E0B4F9380006E0012D02D0B4F9CD
:10CED000360001E0B4F93A00ADF8BC0002E0608F22
:10CEE000ADF8BE0033462FA94046319A26F0C2FA6B
:10CEF0002FA904F160000FF061F9382201A921A8DF
:10CF00001AF01DFB0120119004F16000129021A87D
:10CF1000139001201D900FAA1A21404616F0C2F965
:10CF200004F1600221A9329814F000FC0FAA1B2121
:10CF3000404616F0B7F900BF33B0BDE8F08F0000EF
:10CF4000B8B004082DE9F04790B00746384616F00F
:10CF5000A3F9054628461CF0BBFD064608A813F0B9
:10CF600057FB08AA002130461EF06DFC384616F02B
:10CF70003AF90446D4F8088006F1140206A8A1681C
:10CF8000F6F7CCF810B910B0BDE8F08706A8A0609D
:10CF900004A9304607F094FFA88AADF80800E88A93
:10CFA000ADF80A00288BADF80C00BDF81200ADF802
:10CFB0000E0002AA02A8A168F6F7B0F898B1D4F85A
:10CFC000089002A8A060284619F052F98246002075
:10CFD000534605F1140208A90090204612F064FFA0
:10CFE000C4F8089000BFA88AADF80800BDF8160084
:10CFF000ADF80A00288BADF80C00688BADF80E0078
:10D0000002AA02A8A168F6F789F898B1D4F80890A6
:10D0100002A8A060284619F02BF98246002053464A
:10D0200005F1140208A90090204612F03DFFC4F853
:10D03000089000BFC4F8088000BFA4E72DE9FF4FA7
:10D04000A1B0064614462498807B00F00F05229874
:10D05000807E1F90032D00D10425012D06D0022DC6
:10D060000BD0042D10D0082D1DD114E0DFF86C83F7
:10D070004FF0800A02201E901AE0DFF864834FF020
:10D08000C00A04201E9013E0DFF858834FF0F00A26
:10D0900010201E900CE0DFF850834FF0FF0A4FF491
:10D0A00080701E9004E000BF00BF25B0BDE8F08F87
:10D0B00000BF1F98FD2823DACC4801781F988142D1
:10D0C00003D1CB480068A84213D000200DE018F827
:10D0D0000010FF2901D11F9904E018F800101F9AD1
:10D0E00051430912C34A1154401C1E998842EED381
:10D0F00000BFDFF80083BD491F980870BC48056079
:10D100002498B0F806B0249800891B900BFB05F01A
:10D110001A90B4F90000B168B1F90010884201DB3F
:10D12000002005E0B068B0F90000B4F90010401A22
:10D130001990B4F900005844B168B1F9041088425C
:10D1400001DC584606E0B068B0F90400B4F90010FC
:10D15000401A401C1890B4F90200B168B1F90210ED
:10D16000884201DB002005E0B068B0F90200B4F9A4
:10D170000210401A1790B4F902101B980844B168C5
:10D18000B1F90610884201DC1B9806E0B068B0F9DE
:10D190000600B4F90210401A401C16901A9917980C
:10D1A0004843199901FB050015902E99159801EB3C
:10D1B000D0002E90159800F007071C210DA81AF03A
:10D1C00058FB22988089ADF83C002298807E8DF82B
:10D1D0004C002298807FC0F3C2008DF84D00F7F715
:10D1E00079FD019012F00AFB0C901B980BFB00F1EB
:10D1F0000C98814201DD0C9802E01B990BFB01F0B9
:10D200000B900B981AF080F88146CDF840900020E2
:10D210000A9021881998084400B2ADF820002188AE
:10D2200018980844401E00B2ADF824006188179891
:10D23000084400B2ADF82200BDF82200ADF8260087
:10D2400000BFBDF82400BDF82010401A401C00B2F9
:10D25000079000BFBDF82000ADF81400BDF8220013
:10D26000ADF81600BDF82400ADF81800BDF8260092
:10D27000ADF81A0000BFBDF816101698084400B2A9
:10D28000ADF81A0005A813F0DFFD049008A80D9072
:10D290001290C5F10800039019980BEB0001189843
:10D2A000081A6843029017981C9078E00A98019039
:10D2B0002AFA07F0209019981D9028E02E980078FF
:10D2C000209908400399C91BC8401490149830B1A4
:10D2D000149818F800100A9809F8001003E00021CB
:10D2E0000A9809F800100398874204D22F44209826
:10D2F000E840209005E00027CDF880A02E98401C43
:10D300002E900A98401C0A901D98401C1D90189958
:10D310001D988842D2DB0498A0B1BDF92620BDF942
:10D320002010019B09EB0300079B13F09FFC8DF875
:10D3300044009DF8440028B9019909EB01000799C0
:10D340001AF097FADDE91801411A0A9801440B987E
:10D35000814206D2BDF82600401C00B2ADF826007E
:10D3600012E002208DF844000DA9304614F01CFC98
:10D37000BDF82600401C00B2ADF82200BDF8220026
:10D38000ADF8260000200A90029807442E9800EB82
:10D39000D7002E9007F007071C98401C1C90169988
:10D3A0001C98884282DBBDF92200BDF92610884214
:10D3B0000ED0BDF82600401E00B2ADF826000220B7
:10D3C0008DF844000DA9304614F0EEFB00200A90C1
:10D3D00048461AF015F800BF67E60000000504088B
:10D3E000020504080E0504081E0504085801002063
:10D3F0005C01002094C300202DE9FF4F8FB00C4644
:10D4000015461E46B4F90200401E0E900E984010BC
:10D410000D900E9800F001010D9808440C90B5F99C
:10D420000000B6F90010884202DAB5F9000001E008
:10D43000B6F90000ADF82800B5F90000B6F9001003
:10D44000884202DDB5F9000001E0B6F90000401E97
:10D4500000B2ADF82C0069880C98081A00B2ADF83B
:10D460002A0069880D98084400B2ADF82E000F9884
:10D470000AA982680AA8F5F751FE8246BAF1000FA0
:10D4800002D113B0BDE8F08FE08818B1A08808B1D0
:10D49000012000E000208346012009900AA813F033
:10D4A000D3FC10B10020099004E0BBF1000F01D0C3
:10D4B000002009901C2102A81AF0DBF90AA80290AA
:10D4C0002088ADF81000207A8DF82000099820B14E
:10D4D00002A90F9814F068FB78E00AA80EF02BFF61
:10D4E0000746BDF92E000190BDF82A00ADF82E00C8
:10D4F00000200090BBF1000F0BD0B4F90600B4F986
:10D5000004100844BDF9281091FBF0F200FB121042
:10D510000090384619F0F8FE8046CDF814800AA82D
:10D520000790BDF92A904AE0394640461AF0D8F9EA
:10D53000BDF928103BB20FFA89F2404613F096FB72
:10D540008DF81800BBF1000F27D09DF8180020B30C
:10D55000009800211BE0B4F90420824207DBA38875
:10D560001B1A1AB28B1819B2831818B20BE0B4F94F
:10D570000620B4F904301A44824201DC002002E0A3
:10D58000002208F801204A1C11B2421C10B2B94214
:10D59000E1DB02228DF8182000BF02A90F9814F0D9
:10D5A00003FBBDF82A00401C00B2ADF82A00BDF80C
:10D5B0002E00401C00B2ADF82E0009F101090198BF
:10D5C0008145B1DD404619F01BFF00BF00BF58E7A1
:10D5D0002DE9FF4FC7B08B4691469A46B9F9020034
:10D5E000BAF90210884210DAB9F80200ADF81A014F
:10D5F000BAF80200ADF81601B9F80000ADF818014C
:10D60000BAF80000ADF814010FE0BAF80200ADF866
:10D610001A01B9F80200ADF81601BAF80000ADF829
:10D620001801B9F80000ADF81401BDF91401BDF9F5
:10D630001811441ABDF91601BDF91A11451A002C2A
:10D6400001DD204600E06042002D01DD294600E0BA
:10D650006942884201DD012000E000204490BBF9CE
:10D66000026000204390449870B1002D01DD2846EF
:10D6700000E068424101002C01DD204600E06042EC
:10D6800091FBF0F043900DE0002C01DD204600E01E
:10D6900060424101002D01DD284600E0684291FB17
:10D6A000F0F04390E0494398085C70433F30C61166
:10D6B000771006F0010000EB0708BDF91801BDF96D
:10D6C0001411884202DABDF9180101E0BDF9140114
:10D6D000801B00B2ADF80401BDF91801BDF91411A9
:10D6E000884202DDBDF9180101E0BDF914013044A2
:10D6F00000B2ADF80801BDF91A01BDF91611884252
:10D7000002DABDF91A0101E0BDF91601801B00B271
:10D71000ADF80601BDF91A01BDF91611884202DD06
:10D72000BDF91A0101E0BDF91601304400B2ADF8AF
:10D730000A01479841A9826841A8F5F7EFFC40909B
:10D74000409810B94BB0BDE8F08F4498F0B3002C6E
:10D7500024DD0021BDF81601C01B00B2CDE9000197
:10D76000BDF91431BDF81A01C01B02B2BDF9181180
:10D7700035A813F063FC0121BDF81601404400B246
:10D78000CDE90001BDF91431BDF81A01404402B2DF
:10D79000BDF918112AA813F051FC4AE00021BDF888
:10D7A0001601404400B2CDE90001BDF91431BDF8C5
:10D7B0001A01404402B2BDF9181135A813F03EFC1D
:10D7C0000121BDF81601C01B00B200E00DE0CDE95B
:10D7D0000001BDF91431BDF81A01C01B02B2BDF938
:10D7E00018112AA813F02AFC23E00021BDF9160124
:10D7F000CDE90001BDF81401404403B2BDF91A217E
:10D80000BDF81801404401B235A813F017FC0121FE
:10D81000BDF91601CDE90001BDF81401C01B03B22A
:10D82000BDF91A21BDF81801C01B01B22AA813F0D6
:10D8300005FC002135A812F063FF139000212AA8EF
:10D8400012F05EFF12904FF0FF30119010909BF895
:10D850000900C0F3001068BB0321BDF81A01204481
:10D8600000B2CDE90001BDF81801401B03B2BDF9BB
:10D870001A21BDF918111FA813F0E0FB0221BDF811
:10D880001601204400B2CDE90001BDF81401401B8F
:10D8900003B2BDF91621BDF9141114A813F0CEFB83
:10D8A00000211FA812F02CFF1190002114A812F0E3
:10D8B00027FF109041A80EF03EFD0F90F7F70AFAEF
:10D8C000019011F09BFF0D9041A80EF0EBFC01467A
:10D8D0000D98814203D241A80EF0E4FC00E00D98BF
:10D8E0000C900C9819F010FD0B90BDF90A010A90EC
:10D8F000BDF80601ADF80A0100200990DDE90B0131
:10D9000019F0EEFF1C2102A819F0B3FF41A8029004
:10D91000BBF80000ADF810009BF808008DF820005F
:10D920000B98059041A80790BDF906010E9040E0C4
:10D93000BDF90411099B0B9AD0180F9A13B20E9AD5
:10D9400012B213F093F98DF818009DF8180028B959
:10D95000099A0B9988180F9919F08BFF0F9909985C
:10D96000084409900F99099801440C98814206D205
:10D97000BDF80A01401C00B2ADF80A0116E0022011
:10D980008DF8180002A9479814F00EF9BDF80A01A5
:10D99000401C00B2ADF80601BDF80601ADF80A0161
:10D9A00000200990DDE90B0119F09AFF0E98401C48
:10D9B0000E900A990E988842BADDBDF90601BDF9AC
:10D9C0000A1188420CD0BDF80A01401E00B2ADF821
:10D9D0000A0102208DF8180002A9479814F0E4F813
:10D9E0000B9819F00DFD35A813F00AFA2AA813F0C8
:10D9F00007FA1198401C10B11FA813F001FA1098F3
:10DA0000401C10B114A813F0FBF9139813F07CFE1E
:10DA1000129813F079FE119813F076FE109813F017
:10DA200073FE00BF8EE600001E0604082DE9FF4FBE
:10DA300091B00C4615461E46B4F90200401E1090E7
:10DA4000109840100F90109800F001010F980844B2
:10DA50000E9029880E98081A00B2ADF83000298877
:10DA60000F98084400B2ADF83400B5F90200B6F9D9
:10DA70000210884202DAB5F9020001E0B6F90200AC
:10DA8000ADF83200B5F90200B6F90210884202DDA5
:10DA9000B5F9020001E0B6F90200401E00B2ADF88F
:10DAA000360011980CA982680CA8F5F737FB81465F
:10DAB000B9F1000F02D115B0BDE8F08FE08818B1C0
:10DAC000A08808B1012000E00020824601200B90D0
:10DAD0000CA813F0B9F910B100200B9004E0BAF1D2
:10DAE000000F01D000200B901C2104A819F0C1FEEA
:10DAF0000CA804902088ADF81800207A8DF8280032
:10DB00000B9820B104A9119814F04EF866E00CA807
:10DB10000EF011FC8346BDF936000390BDF83200CB
:10DB2000ADF83600584619F0EFFB029002980790C6
:10DB30000CA8099000200190BAF1000F0BD0B4F9A5
:10DB40000600B4F904100844BDF9321091FBF0F25C
:10DB500000FB12100190019FBDF9328037E0594659
:10DB6000029819F0BDFEBDF930100FFA8BF30FFAD1
:10DB700088F2029813F07AF88DF82000BAF1000FBD
:10DB800013D09DF8200070B1B4F90400B84202DA55
:10DB900000208DF82000B4F90600B4F90410084400
:10DBA000B84200DC0027781C07B204A9119813F0D2
:10DBB000FBFFBDF83200401C00B2ADF83200BDF8EA
:10DBC0003600401C00B2ADF8360008F10108039899
:10DBD0008045C4DD029819F013FC00BF00BF6AE75E
:10DBE0002DE9FC5F8046404615F056FB0746B946D6
:10DBF000D9F824603446404615F0F5FA0546606AC7
:10DC000000F114026846A968F5F788FA8246BAF16D
:10DC1000000F41D0D5F808B0C5F808D094F83C0002
:10DC2000C0F3401048B3608FE18E88420CD1628F00
:10DC3000212329463046FDF7FBFA628F212329462E
:10DC40003046FDF761FB24E0628F202329463046F1
:10DC5000FDF7EEFA628F202329463046FDF754FB8C
:10DC6000E28E012329463046FDF7E2FAE28E0123D7
:10DC700029463046FDF748FB0BE0628F20232946FA
:10DC80003046FDF7D5FA628F202329463046FDF74E
:10DC90003BFBC5F808B000BFBDE8FC9F2DE9F14F84
:10DCA000D0B0509815F0F8FA04462546288E10B9E1
:10DCB00051B0BDE8F08F509815F095FA4F90608CF8
:10DCC00020F00400001D60844DA920461BF05AFE80
:10DCD0000026B246B4F8208000202084608C20F01A
:10DCE0000400001D608427A813F03CFD1FA812F05B
:10DCF0008FFC27AA4FF4A02120461DF07FFE1FAA0B
:10DD00004FF4A02120461DF09EFD608C20F0040001
:10DD10006084A4F82080002120461DF0A2F91E9006
:10DD2000002120461CF054FF1D90002120461DF0CC
:10DD30002CF81C90002120461DF0D0F81B9009A85B
:10DD40004F991BF015FB4FF4A0201690D7480A906E
:10DD500000200B903DA80D9035A80E9000BF9BE1D0
:10DD600003E00AF101001FFA80FA696A51F82A00FB
:10DD7000CFA1F2F77DFD0028F3D0E96A31F8160053
:10DD8000F9F7AAFB00B181E10027E96A31F8160032
:10DD9000F9F792FB08B147F00107E96A31F816007C
:10DDA000F9F79EFB10B147F0800716E0A88EB0424D
:10DDB00013D108F0200008B147F0200708F0020056
:10DDC00008B147F0020708F0040008B147F0040763
:10DDD00008F0080008B147F00807A86A00EBC60180
:10DDE0004BA80EF0D9F9BDF82C01BDF83411084448
:10DDF00000B2ADF82C01BDF82E01BDF83611084473
:10DE000000B2ADF82E01BDF83001BDF83411084460
:10DE100000B2ADF83001BDF83201BDF8361108444A
:10DE200000B2ADF8320157B9382227A93DA819F040
:10DE300086FB20221FA935A819F081FB1DE027844D
:10DE4000608C20F00400001D60843DA813F08AFC63
:10DE500035A812F0DDFB3DAA4FF4A02120461DF0AD
:10DE6000CDFD35AA4FF4A02120461DF0ECFCA4F80E
:10DE70002080608C20F004006084E96A31F816008C
:10DE8000F9F736FB8346BBF1000F06D09DF8F10091
:10DE900040F001008DF8F10005E09DF8F10020F060
:10DEA00001008DF8F1004BA80C90179609AA1A21D1
:10DEB000204615F0F7F99DF81701400800F0100012
:10DEC000F0B39DF8170120F03E001E308DF81701C9
:10DED000BDF92C11B4F914201C98104481420AD1C8
:10DEE0009DF81701400820F004009DF8171160F319
:10DEF00045018DF81711BDF93011B4F918201B98A0
:10DF0000101A81420AD19DF81701400820F008003C
:10DF10009DF8171160F345018DF81711BDF92E1109
:10DF2000B4F916201E98104481420CD19DF81701B7
:10DF3000400820F002009DF8171160F3450100E051
:10DF400014E08DF81711BDF93211B4F91A201D989B
:10DF5000101A81420AD19DF81701400820F00100F3
:10DF60009DF8171160F345018DF817114BA80EF0BD
:10DF700084F9814607F0200060B1E86A30F81600A5
:10DF800000F4007030B1BDF82E01A0EB090000B222
:10DF9000ADF82E014BAA3DA94F9813F0C7FB359859
:10DFA0000890BDF9E8000790BDF9E6000690686AA0
:10DFB00050F82A0005904DA80EF0E7F903909DF85F
:10DFC000F11002460698CDE90121009004A8DDE990
:10DFD0000732059923F03EFF4BA80EF0D6F9BDF9A4
:10DFE0001010401A039000EBD070BDF82C1101EB1B
:10DFF000600000B2ADF82C014BA80EF03EF9BDF95F
:10E000001210401A039000EBD070BDF82E1101EBF6
:10E01000600000B2ADF82E01BDF82C01BDF8101063
:10E02000084400B2ADF83001BDF82E01BDF8121061
:10E03000084400B2ADF8320107F02000C0B1E86A30
:10E0400030F8160000F4007090B1484609EBD0712A
:10E05000BDF82E21A2EB610109B2ADF82E1109EB3A
:10E06000D071BDF83221A2EB610109B2ADF83211D5
:10E07000002000904BAA35A9059B4F9811F014FF82
:10E0800009AA1B21204615F00DF900BF701C86B2AD
:10E090000AF101001FFA80FA288EB0423FF760AE05
:10E0A000608C20F00400608400BF01E6BCAF04086F
:10E0B0000A0000002DE9F14FA2B0229815F0ECF80B
:10E0C00004462546229815F08EF82190002120461E
:10E0D0001CF01AFC81462646002741F612023946FA
:10E0E00030461DF019F80A900A98484400B2209072
:10E0F00000BF41F61302394630461DF00DF80A9074
:10E100000A98484400B21F90002120461CF0C3FF2B
:10E11000484400B21E9016A812F07AFA16AA4FF4DC
:10E12000003120461DF08FFBA86A10B1D5F8288079
:10E130000AE0802019F0E8F80646802231462046A1
:10E1400014F084FDB04600BF4FF0000A95F83C0083
:10E1500000F00F00012800D18246002641F26A42F9
:10E16000314620461CF0D8FF0A900A98C0B2012818
:10E1700000D18246E86A00287ED0E86A17F098F855
:10E180000A900A98022814D19DF8750041F6FF7292
:10E19000BDF96A10CDE900120290BDF96C30169AF3
:10E1A00007A8E96A23F056FEBDF91C60BDF91E7090
:10E1B00011E007A9E86A16F023FD8346BBF1010FC1
:10E1C00005D10798C0F38A260798470D02E04FF063
:10E1D000FF36374600BFBAF1000F0DD0A18A209854
:10E1E000084400B2ADF82000BDF820003044401EC5
:10E1F00000B2ADF824000DE0218B1F98081A801B97
:10E2000000B2ADF82000BDF820003044401E00B23E
:10E21000ADF824000A98022815D1E18A1E98084416
:10E2200000B2ADF82200BDF822003844401E00B212
:10E23000ADF826000020009008AA16A9EB6A2198E4
:10E2400011F032FE40E020461BF0F2FBA0EB070B82
:10E250000BEBDB704110E08A084400B2ADF82200FD
:10E26000BDF822003844401E00B2ADF8260002A8D6
:10E2700011F0FDFD02AA00E027E04FF40031204636
:10E280001DF082FA304606EBD071491009B2ADF8A4
:10E290000C10384607EBD07149100AB2ADF80E20C9
:10E2A0004FF4003B43F60F02594620461CF034FF62
:10E2B0000190019880B2ADF8080008AA02A9EB6AA3
:10E2C000219811F085FD00BF00BF0EA812F0A0F943
:10E2D0000EAA002120461DF0B6FA9DF8550041F621
:10E2E000FF72BDF94A10CDE900120290BDF94C3021
:10E2F00041460DA80E9A23F0ADFDE18A1E98084410
:10E3000000B2ADF82E00BDF82E00BDF8361008445E
:10E3100000B2ADF83200E86AB0B920461DF023F92A
:10E32000BDF93410461A06EBD670A18A01EB6000E5
:10E3300000B2ADF82C00BDF82C00BDF83410084434
:10E3400000B2ADF8300022E0BAF1000F11D0218BFD
:10E350001F98081ABDF83410401A00B2ADF82C000E
:10E36000BDF82C00BDF83410084400B2ADF8300000
:10E370000DE0A18A2098084400B2ADF82C00BDF849
:10E380002C00BDF83410084400B2ADF83000002075
:10E3900043460BAA0EA90090219811F085FDA86AAA
:10E3A00010B9404619F02CF823B0BDE8F08F2DE9E4
:10E3B000F14F90B0109814F06FFF05462C4610985E
:10E3C00014F011FF06460EA928461BF067FA002735
:10E3D00094F84800C0F3001008B147F0010794F822
:10E3E0004800C0F3401008B147F00207002128465A
:10E3F0001DF092F842F2D171884205D1688CC0F3C9
:10E40000802008B947F0040706A812F001F9B4F813
:10E410004400ADF82E004620005BADF830008DF8CA
:10E42000357006AA002128461DF00DFA0DA8411EE0
:10E43000626A03780BB90123037000BF284617F006
:10E4400023FF0790284617F019FF08904FF6FF7139
:10E45000079888421ED0089888421BD04FF4802B22
:10E4600044F25742594628461CF056FE0290029844
:10E470000390BDF80C00ADF8260000BF20225946DD
:10E4800028461CF049FE029002980390BDF80C004B
:10E49000ADF8280094F8480000F00700022805D0E5
:10E4A00094F8480000F0070003281FD19DF83400BD
:10E4B000022803D09DF83400032817D141F6FF71DC
:10E4C000BDF92A008DE88300BDF92C30069A03A817
:10E4D000616A23F0BFFC0EA80DF065FFBDF90C10BA
:10E4E000884202DA01208DF8340000BF04F13008C0
:10E4F00094F8480000F00700032805D00EA80DF09E
:10E50000CAFEB0F5806F01DA4FF000080EA904A82A
:10E51000B268F4F703FE8146B9F1000F02D111B0E1
:10E52000BDE8F08F94F8480000F0070070B9284665
:10E530001BF06EFC8346CBF1000002B200210EA856
:10E540000DF050FF688BADF83E0000BF94F8480016
:10E5500000F00700022805D094F8480000F00700FA
:10E5600003280ED1D6F808B004A8B060CDF800801A
:10E570000EAA06A93046636A11F096FCC6F808B0E8
:10E5800007E0CDF800800EAA06A93046636A11F0B4
:10E590008BFCD6F808A004A8B06094F8480000F0FE
:10E5A000070003284FD141F6FF71BDF92A008DE81D
:10E5B0008300BDF92C30069A03A8616A23F04AFC57
:10E5C0000EA80DF0F0FEBDF90C1088421BDA2022D7
:10E5D0001146069814F0A7FF00EB4000B4F8441071
:10E5E000BDF80C201144084400B2ADF82E004620BE
:10E5F000005BADF83000CDF800800EAA06A93046C9
:10E60000636A11F051FC0EA80DF045FEBDF90E1025
:10E61000884217DAB4F84400ADF82E00069814F0DA
:10E62000A1FF4621095BBDF80E201144084400B249
:10E63000ADF83000CDF800800EAA06A93046636A16
:10E6400011F032FC00BFC6F808A000BF67E72DE953
:10E65000F14F9AB01A9814F0BEFD80461A9814F043
:10E660001BFE0446B8F1150F16D11A9814F0BBFD25
:10E67000054618A9204606F023FC0AA813F072F8F4
:10E680000AAA4FF4802120461DF0B8F918AA0AA959
:10E69000284613F04BF8C5E0B8F1180FFBD11A98D3
:10E6A00014F0A1FD054612A811F0B2FF12AA4FF412
:10E6B000802120461DF0C7F810A9204606F000FC76
:10E6C00010AA0EA8A968F4F729FD0D900D9800284E
:10E6D0007DD0204606F069F8814620461CF043FFB5
:10E6E0008346484617F0C4FD02210390BDF95A0045
:10E6F000CDE901B10090BDF95C300CA8129A0399E4
:10E7000023F0A8FB20461BF093F90646304606EBA3
:10E71000D0714A10B4F916100A44B9F91610891AC2
:10E720000B9148461BF084F90B99890391FBF0F09B
:10E730000B90002120461CF0D4FD0A901299B1F9EB
:10E7400008200A99B1F90810501A00EBD07149104D
:10E7500009B20991BDF832100998081A00B2ADF853
:10E760003200304606EBD0714A10B4F91610571833
:10E77000BDF932000B99484307EBA03709983F1ABF
:10E78000002120461CF0CDF882464FF0000B41F6E8
:10E790001202594620461CF0BFFC0390039800B2B9
:10E7A000089000BF41F61302594620461CF0B4FC05
:10E7B0000390039800B20790A18A08980844504437
:10E7C00000B2ADF8140038B2ADF8160000E028E051
:10E7D000218B0798081AA0EB0A0000B2ADF81800C8
:10E7E000BDF81600BDF83210084400B2ADF81A00AA
:10E7F0009DF8650040F002008DF86500A86804905F
:10E800000EA8A860484617F033FD834600205B46FB
:10E8100005AA12A90090284611F046FB0498A860AA
:10E8200000BF00BF1BB0BDE8F08F2DE9F14FA8B0CD
:10E83000289814F031FD04462546289814F0D3FC9E
:10E840002790002120461CF0C7FA26900021204680
:10E850001CF06BFB2590002120461CF036FC249018
:10E86000002120461CF0DBF9239000BFA08AADF800
:10E870008400E08AADF88600208BADF88800608BBC
:10E88000ADF88A0000BFBDF884102698084400B295
:10E89000ADF88400BDF888102598081A00B2ADF8CC
:10E8A0008800BDF886102498084400B2ADF88600B0
:10E8B000BDF88A102398081A00B2ADF88A0013A890
:10E8C00012F050FF13AA4FF4003120461DF096F8C5
:10E8D00021AA13A9279812F029FF002620461BF031
:10E8E000A7F8074600BF208BA18A401A401CC01B16
:10E8F0000FFA80F8686A401C40B1696A01FB08F0B1
:10E90000C11700EB116109120EB20CE020461BF09A
:10E91000F3FE00F0010BBBF1000F01D0404600E018
:10E920000020064600BF4FF0000B41F26A425946F4
:10E9300020461CF0F1FB00900098C0B2012802D1E3
:10E94000A8EB060006B2A08A304400B2ADF844003D
:10E95000BDF84400384400B2ADF84800E08AADF894
:10E960004600608BADF84A004FF4403120461CF061
:10E9700033FA81464FF4403120461CF0D6FA8246E5
:10E980004FF4403120461CF0A0FB10904FF4403172
:10E9900020461CF044F90F90BDF84400A0EB09009C
:10E9A00000B2ADF84400BDF84800504400B2ADF8E4
:10E9B0004800BDF846101098081A00B2ADF846009D
:10E9C000BDF84A100F98084400B2ADF84A0001A8FB
:10E9D00012F0C8FE01AA4FF4403120461DF00EF897
:10E9E00011AA01A9279812F0A1FE29B0BDE8F08F65
:10E9F0002DE9F14FE0B0609814F04EFC0446254636
:10EA0000609814F0F0FB814604F114015EA8D9F877
:10EA10000820F4F783FB10B961B0BDE8F08FD9F896
:10EA200008005D905EA8C9F808004FF0000841F2A8
:10EA30003202414620461CF06FFB0C900C9800B24D
:10EA40005690002120461CF04DFB55900021204699
:10EA50001CF0F2F85490002120461CF0CAF95390A3
:10EA6000002120461CF06EFA52904FF4A02120465F
:10EA70001CF0BFF951904FF4A02120461CF062FA1F
:10EA800050904FF4A02120461CF02CFB4F904FF4E7
:10EA9000A02120461CF0D0F84E90208C4D900020F4
:10EAA0002084608C20F00400001D60843FA812F0D8
:10EAB00059FE3FAA4FF4A02120461CF09FFF29A831
:10EAC00011F0A6FD29AA4FF4A02120461CF0BBFEA0
:10EAD0004D982084608C20F004006084002720463C
:10EAE0001BF0AAF90146E28A55981044401E411ACB
:10EAF0005698084400B2ADF86E0120461BF092F91A
:10EB00002090002120461BF098FE012800D100E053
:10EB100000201F9049460DA81AF02AFC4FF4A020AF
:10EB20001A90FE480E9000200F9031A8119021A855
:10EB300012904FF0000B33E2E86A30F91B000C90A2
:10EB4000BDF86E01401C00B2ADF86A01BDF86A1153
:10EB50000C980844401E00B2ADF86E01BDF96A0180
:10EB6000BDF97E11884200DD1EE21F9858B1218B4D
:10EB70005298081A401E2099411A5698081A00B255
:10EB8000ADF868010AE0A18A53980844401E209914
:10EB9000411A5698084400B2ADF86C010026F7E11E
:10EBA00000200B90A86A50F8270020B1A86A50F8FE
:10EBB000270000780B901F9880B1BDF86801401EB7
:10EBC00000B2ADF86C01286B30F81600BDF86C117E
:10EBD000081A401C00B2ADF868010FE0BDF86C01E6
:10EBE000401C00B2ADF86801286B30F81600BDF883
:10EBF00068110844401E00B2ADF86C014FF00008E7
:10EC000000BF34E007EB0801A86A50F8210048B3C0
:10EC100007EB0802A96A51F8220008B101780B91AC
:10EC20000B9901F00101D9B11F9961B106EB0801FF
:10EC3000491C2A6B32F81110BDF86821511A09B22B
:10EC4000ADF868110DE006EB0801491C2A6B32F89B
:10EC50001110BDF86C21114409B2ADF86C1100E03F
:10EC60000BE000E009E008F101001FFA80F808EB72
:10EC70000601A88C401E8142C4DB00BFBDF96E01B5
:10EC8000BDF97A11884207DA08F10100384487B2E9
:10EC900006EB080086B279E100BFBDF86801ADF867
:10ECA0002400BDF86A01ADF82600BDF86C01ADF88E
:10ECB0002800BDF86E01ADF82A0000BF9DF81F01C5
:10ECC000400800F0040090B1BDF92410B4F91420FC
:10ECD0005398104481420ADDBDF91C0100EBD0714C
:10ECE000BDF82420A2EB610109B2ADF824109DF813
:10ECF0001F01400800F0020090B1BDF92610B4F9E0
:10ED000016205598104481420ADDBDF91C0100EB24
:10ED1000D071BDF82620A2EB610109B2ADF8261032
:10ED20009DF81F01400800F00800B8B1BDF9281097
:10ED3000B4F918205298101A401E81420EDABDF91B
:10ED40001C0100EBD07182B202F0010202EB610102
:10ED5000BDF82820114409B2ADF828109DF81F0114
:10ED6000C0F34000B8B1BDF92A10B4F91A20549884
:10ED7000101A401E81420EDABDF91C0100EBD07161
:10ED800082B202F0010202EB6101BDF82A201144B7
:10ED900009B2ADF82A104FF0000AE88E584523D189
:10EDA000A88EB04220D194F8200000F0400030B985
:10EDB00094F8200000F0200008B14AF0200A94F8EE
:10EDC000200000F0020008B14AF0020A94F8200086
:10EDD00000F0040008B14AF0040A94F8200000F0A2
:10EDE000080008B14AF0080ABAF1000F0AD1382227
:10EDF0003FA931A818F0A3FB202229A921A818F0C7
:10EE00009EFB1EE0A4F820A0608C20F00400001DF2
:10EE1000608431A812F0A6FC21A811F0F9FB31AAF8
:10EE20004FF4A02120461CF0E9FD21AA4FF4A021B7
:10EE300020461CF008FD4D982084608C20F00400D2
:10EE4000608409A81090A88C0BFB00601B900DAA91
:10EE50001A21204614F026FA09AA31A9484612F0D0
:10EE600065FCA86A50F8270000287DD0BDF868111D
:10EE70005198084400B2ADF86001BDF86C1150988B
:10EE8000081A00B2ADF86401BDF86A114F98084441
:10EE900000B2ADF86201BDF86E114E98081A00B2CA
:10EEA000ADF866010B98C0F340000890089810B1C7
:10EEB0000220579001E00020579000BFBDF8640188
:10EEC000BDF86011401A401C00B20490BDF99620B4
:10EED00004995798CDE900210290A86A50F82700BC
:10EEE000411CBDF998305CA8299A22F0B3FF08981C
:10EEF00018BB0C9901EBD172BDF86A3103EB6202C9
:10EF0000BDF9720100EBD073A2EB630212B2ADF84F
:10EF100062210C9901EBD17202E00000F0B004080C
:10EF2000BDF86A3103EB6202BDF9720100EBD073E8
:10EF300002EB630212B2ADF866215AAA5EA906A8D6
:10EF4000F4F7ECF80590059890B106A8C9F8080008
:10EF500000200090A86A50F82700431C58AA21A955
:10EF6000484610F0A1FF00E003E05EA8C9F80800E1
:10EF700000BF0DAA1B21204614F094F908F10100EE
:10EF8000384487B206EB080086B200BF701C86B218
:10EF9000A88CB0423FF704AE0BF101001FFA80FBD2
:10EFA000E88C58453FF7C8AD00BF5D98C9F8080028
:10EFB00000BF31E52DE9F04FA3B00746894616465C
:10EFC000229730460DF0CCF9054600EBD5704FEA9C
:10EFD00060083088404400B2ADF884007088404436
:10EFE00000B2ADF886001EA811F05EFB1EAA4FF419
:10EFF000A02138461CF08EFC18A810F038FF18AA83
:10F000004FF4A02138461CF0BFFB002138461BF00E
:10F0100050FD1790494605A81AF0AAF970480690C5
:10F0200021A80E9022983030F5F740FB0446D1E03D
:10F0300025681694207901285CD1B5F92000E98B68
:10F0400008440090B5F92030D5E90512E06818F0C1
:10F050000DF98246A88B00EB0801608A08440FFA7C
:10F0600080FB0FFA8AF022F007FE00FB0BF047F658
:10F07000FF7190FBF1F0BDF88610084400B2ADF8C6
:10F0800012000FFA8AF022F0EFFD00FB0BF047F6BA
:10F09000FF7190FBF1F0BDF88410084400B2ADF8A8
:10F0A0001000A08AADF87800208A00B2ADF87A008E
:10F0B0006079FD2801DD179803E0607917994843CE
:10F0C00000128DF88000012013901EA80B9004A858
:10F0D0000F9005AA1A21384614F0E4F804AB21AACF
:10F0E0001EA9484611F0C9FA05AA1B21384614F09A
:10F0F000D9F868E02079002865D1206900B963E07B
:10F10000B5F92000E98B08440090B5F92030D5E925
:10F110000512E06818F0AAF8824604A9206915F0E3
:10F120006FFDBDF88410A08A081A00B2ADF808007F
:10F13000BDF88610E08A081A00B2ADF80A00BDF8E2
:10F1400008000499C1F38A210844401E00B2ADF8BA
:10F150000C00BDF80A00049900EB5150401E00B2AB
:10F16000ADF80E006079FD2801DD179803E06079A5
:10F170001799484300128DF86B00A08AADF864001F
:10F18000E18A18A8C1800AEB8A004FEA400ABAF562
:10F19000616F01DDAAF5616A1FFA8AF0ADF86000BF
:10F1A00018A80C9005AA1A21384614F07BF802AA78
:10F1B00018A94846236910F00BFE05AA1B21384602
:10F1C00014F070F800BF00BF214622983030F5F7E8
:10F1D00067FA0446002C7FF42BAF23B0BDE8F08F14
:10F1E000EC0B04082DE9F74F8AB00C46904694F8D2
:10F1F0002A00022802DC0DB0BDE8F08FE08C00B9D7
:10F20000F9E794F82A90B9F1FD0F01DD4FF0FF09FD
:10F21000414608A80CF0AEFF208D401E05B2BDF897
:10F220002000401B00B2ADF82000BDF82200401BBA
:10F2300000B2ADF82200BDF82400284400B2ADF8B9
:10F240002400BDF82600284400B2ADF8260008A925
:10F2500006A80CF08FFFBDF81800E18C401A00B230
:10F26000ADF81800BDF81C00E18C084400B2ADF800
:10F270001C00BDF81A00E18C401A00B2ADF81A006B
:10F28000BDF81E00E18C084400B2ADF81E0008A8CD
:10F290000DF058F8824608A80CF0CCFF0746B4F9E8
:10F2A0000060BA4501DA504600E038468346B6EBC6
:10F2B0006B0F01DD4FEA6B06E08C304400B2059025
:10F2C000A07894F82A10CDE90210A08CADF80400C3
:10F2D00030B2009008AA06A9059B0A98FBF754FCD7
:10F2E00000BF88E7F8B50546284613F0D5FF064667
:10F2F000284613F0CEFF0446606BB0F5A02F54D122
:10F30000A06B072806D200202169C870216981F806
:10F31000220014E0208F81B2202230460DF0F6FE4C
:10F3200068B100202169C870216981F8220012208B
:10F330001EF0EAFB0090BDF8001060698181208F0B
:10F3400081B24FF4004230460DF0E0FE98B16620E5
:10F350002169C870304622F065F90090BDF80010B0
:10F360002069818030460DF0CBFEA16B884202D12E
:10F37000B2202169C870208F81B24FF4804230469C
:10F380000DF0C4FE88B1FF20216981F822003046CB
:10F3900022F048F90090BDF800102069C18320696F
:10F3A000008C401C00B221690884F8BD2DE9F04FA3
:10F3B0008BB08146484613F06FFF05462C46484601
:10F3C00013F011FF8346606A16F052FF82469AF8E6
:10F3D000000000283ED1A06A00283BD0A06A007837
:10F3E000C0B303A811F014F903AA4FF40021284672
:10F3F0001CF029FA94F85C00C0F3C00028B19DF815
:10F40000290040F002008DF82900002128461BF059
:10F41000FDFC0746002128461BF071FE80460021B6
:10F4200028461BF08BFA064605F1140101A80CF0E2
:10F43000CEFE08EB060002B2B81901B201A80CF02A
:10F44000D1FF0020009001AA03A95846A36A10F03A
:10F450002BFD00BF0BB0BDE8F08F7CB50446A06962
:10F4600085686089002856D1A089002853D1E0889A
:10F47000218988424FDAE18808B222F0FDFBB4F915
:10F480000410B4F90E20891A48432168498801EB19
:10F49000E03000B2ADF80200E1885A3108B222F043
:10F4A000EBFBB4F9041048432168098801EBE03014
:10F4B00000B2ADF80400218908B222F0DDFBB4F9F6
:10F4C000041048432168498801EBE03000B2ADF8F0
:10F4D000060021895A3108B222F0CEFBB4F904109B
:10F4E000B4F90E20891A48432168098801EBE030FD
:10F4F00000B2ADF800002A4669466846F3F70EFEF2
:10F5000006463EB1A169C1F808D06A462169A069E2
:10F5100012F00CF9C2E0608910B1A08900287BD1FB
:10F520006089D0BB20680088ADF800002068408862
:10F53000A188084400B2ADF80600E18808B222F0C4
:10F540009BFBB4F90410B4F90E20891A48432168D2
:10F55000498801EBE03000B2ADF80200E1885A3191
:10F5600008B222F089FBB4F90410484321680988E5
:10F5700001EBE03000B2ADF804002A466946684667
:10F58000F3F7CCFD06463EB1A169C1F808D06A4642
:10F590002169A06912F0CAF800BFA08900287DD1B6
:10F5A00020680088A188084400B2ADF804002068F3
:10F5B0004088ADF80200218908B222F05DFBB4F961
:10F5C000041048432168498801EBE03000B2ADF8EF
:10F5D000060021895A3108B222F04EFBB4F904101A
:10F5E000B4F90E20891A48432168098801EBE030FC
:10F5F00000B2ADF800002A4669466846F3F78EFD72
:10F6000006463EB1A169C1F808D06A462169A069E1
:10F6100012F08CF842E0FFE76089A189884205D1A9
:10F62000608918B12089E188884211DB608902284D
:10F6300002D1A08901280BD06089032802D1A089BA
:10F64000022805D06089032828D1A089012825D166
:10F6500020680088ADF8000020684088ADF80200FE
:10F6600020680088A188084400B2ADF80400206832
:10F670004088A188084400B2ADF806002A466946D1
:10F680006846F3F74BFD06463EB1A169C1F808D0C4
:10F690006A462169A06912F049F800BFA069856037
:10F6A0007CBD7CB50446A06985686089012856D177
:10F6B000A089012853D1E088218988424FDAE18866
:10F6C00008B222F0D9FAB4F90410484321684988F5
:10F6D00001EBE03000B2ADF80600E1885A3108B223
:10F6E00022F0CAFAB4F90410B4F90E20891A48437A
:10F6F0002168098801EBE03000B2ADF804002189EF
:10F7000008B222F0B9FAB4F90410B4F90E20891A3B
:10F7100048432168498801EBE03000B2ADF80200AF
:10F7200021895A3108B222F0A7FAB4F904104843EB
:10F730002168098801EBE03000B2ADF800002A46EC
:10F7400069466846F3F7EAFC06463EB1A169C1F88E
:10F7500008D06A462169A06911F0E8FFC7E0608916
:10F76000012802D0A08901287ED1608901283AD1E0
:10F7700020680088A188401A00B2ADF80000206817
:10F780004088ADF80200E18808B222F075FAB4F9B9
:10F79000041048432168498801EBE03000B2ADF81D
:10F7A0000600E1885A3108B222F066FAB4F9041072
:10F7B000B4F90E20891A48432168098801EBE0302A
:10F7C00000B2ADF804002A4669466846F3F7A6FC85
:10F7D00006463EB1A169C1F808D06A462169A06910
:10F7E00011F0A4FF00BFA0890128B7D120680088CC
:10F7F000401E00B2ADF8040020684088A18808448B
:10F8000000B2ADF80600218908B222F035FAB4F949
:10F810000410B4F90E20891A48432168498801EB85
:10F82000E03000B2ADF8020021895A3108B222F06E
:10F8300023FAB4F9041048432168098801EBE03049
:10F8400000B2ADF800002A4669466846F3F766FC48
:10F8500006463EB1A169C1F808D06A462169A0698F
:10F8600011F064FF43E0FFE76089A189884206D177
:10F870006089012803D02089E18888420FDB6089F4
:10F8800010B9A08902280AD0608910B9A08903287C
:10F8900005D0608903282AD1A089022827D12068B1
:10F8A0000088A188401A00B2ADF8000020684088A6
:10F8B000ADF8020020680088401E00B2ADF80400D8
:10F8C00020684088A188084400B2ADF806002A46A6
:10F8D00069466846F3F722FC06463EB1A169C1F8C5
:10F8E00008D06A462169A06911F020FF00BFA06915
:10F8F00085607CBD7CB50446A06985686089022866
:10F9000056D1A089022853D1E088218988424FDA54
:10F91000E1885A3108B222F0AFF9B4F90410484333
:10F920002168098801EBE03000B2ADF80000E18801
:10F9300008B222F0A1F9B4F90410B4F90E20891A22
:10F9400048432168498801EBE03000B2ADF8060079
:10F95000218908B222F090F9B4F9041048432168D3
:10F96000498801EBE03000B2ADF8020021895A313C
:10F9700008B222F081F9B4F90410B4F90E20891A02
:10F9800048432168098801EBE03000B2ADF804007B
:10F990002A4669466846F3F7C1FB06463EB1A169AF
:10F9A000C1F808D06A462169A06911F0BFFECCE019
:10F9B0006089022802D0A08902287DD160890228AE
:10F9C0003CD120680088401E00B2ADF804002068D9
:10F9D0004088A188401A00B2ADF80200E1885A318F
:10F9E00008B222F049F9B4F90410484321680988A3
:10F9F00001EBE03000B2ADF80000E18808B222F07F
:10FA00003BF9B4F90410B4F90E20891A484321686F
:10FA1000498801EBE03000B2ADF806002A4669469D
:10FA20006846F3F77BFB06463EB1A169C1F808D0F2
:10FA30006A462169A06911F079FE00BFA0890228F9
:10FA4000B5D120680088A188401A00B2ADF8000046
:10FA500020684088401E00B2ADF8060021895A3166
:10FA600008B222F009F9B4F90410B4F90E20891A89
:10FA700048432168098801EBE03000B2ADF804008A
:10FA8000218908B222F0F8F8B4F90410484321683B
:10FA9000498801EBE03000B2ADF802002A46694621
:10FAA0006846F3F73BFB06464EB1A169C1F808D0A2
:10FAB0006A462169A06900E002E011F037FE44E0E7
:10FAC0006089A189884206D16089022803D02089F3
:10FAD000E18888420FDB608910B9A08903280AD029
:10FAE0006089012802D1A089032804D060890128F7
:10FAF0002BD1A08948BB20680088A188401A00B299
:10FB0000ADF8000020684088A188401A00B2ADF826
:10FB1000020020680088401E00B2ADF80400206892
:10FB20004088401E00B2ADF806002A466946684685
:10FB3000F3F7F4FA06463EB1A169C1F808D06A4667
:10FB40002169A06911F0F2FD00BFA06985607CBD4C
:10FB50007CB50446A06985686089032856D1A089D0
:10FB6000032853D1E088218988424FDAE1885A314D
:10FB700008B222F081F8B4F90410B4F90E20891A01
:10FB800048432168098801EBE03000B2ADF800007D
:10FB9000E18808B222F070F8B4F9041048432168F3
:10FBA000498801EBE03000B2ADF8020021895A31FA
:10FBB00008B222F061F8B4F90410484321680988BA
:10FBC00001EBE03000B2ADF80400218908B222F068
:10FBD00053F8B4F90410B4F90E20891A4843216887
:10FBE000498801EBE03000B2ADF806002A466946CC
:10FBF0006846F3F793FA06463EB1A169C1F808D00A
:10FC00006A462169A06911F091FDC7E06089032867
:10FC100002D0A08903287ED1608903283CD12068C6
:10FC20000088A188084400B2ADF80400206840882C
:10FC3000401E00B2ADF80600E1885A3108B222F049
:10FC40001BF8B4F90410B4F90E20891A484321684E
:10FC5000098801EBE03000B2ADF80000E18808B29D
:10FC600022F00AF8B4F9041048432168498801EBEE
:10FC7000E03000B2ADF802002A4669466846F3F764
:10FC80004DFA06463EB1A169C1F808D06A4621691D
:10FC9000A06911F04BFD00BFA08903287ED1206828
:10FCA0000088ADF8000020684088A188401A00B2A2
:10FCB000ADF8020021895A3108B221F0DDFFB4F914
:10FCC000041048432168098801EBE03000B2ADF828
:10FCD0000400218908B221F0CFFFB4F90410B4F96F
:10FCE0000E20891A48432168498801EBE03000B2B0
:10FCF000ADF806002A4669466846F3F70FFA06464D
:10FD00003EB1A169C1F808D06A462169A06911F025
:10FD10000DFD43E0FFE76089A189884206D1608933
:10FD2000032803D02089E18888420FDB60890228FC
:10FD300001D1A08950B16089012801D1A08928B1E1
:10FD4000608902282AD1A089012827D1206800884B
:10FD5000ADF8000020684088A188401A00B2ADF8D4
:10FD6000020020680088A188084400B2ADF80400B1
:10FD700020684088401E00B2ADF806002A46694659
:10FD80006846F3F7CBF906463EB1A169C1F808D041
:10FD90006A462169A06911F0C9FC00BFA0698560AD
:10FDA0007CBD000070B5A4B006460D4620AA22A96D
:10FDB00030461AF04BF822A80CF074FA28B920A8A3
:10FDC0000CF070FA08B924B070BD12A9304625F0C5
:10FDD00075FF0446012C00D0F5E72946684619F066
:10FDE000C7FA1B4801900220029012A804904FF419
:10FDF00080300D9022A80CF055FA80B122A8039013
:10FE00006A461A21304613F04DFA22AA12A9284652
:10FE100011F08CFC6A461B21304613F043FA20A8EF
:10FE20000CF040FA90B120A803906A461A2130469F
:10FE300013F038FA20A8039020AA12A9284611F03E
:10FE400075FC6A461B21304613F02CFA00BFBAE756
:10FE5000DC0404082DE9F04FB1B005460F4605F16A
:10FE600014012FA8BA68F3F759F910B931B0BDE8F9
:10FE7000F08FB8682E902FA8B8602C460021284635
:10FE80001AF04FFF2B90002128461BF0B6F82A905D
:10FE9000284619F058FDB4F88410484300120FFAB0
:10FEA00080FA284619F030FDB4F886104843001255
:10FEB0000FFA80FB04F12400F4F7D9FB289000210D
:10FEC00028461AF0E0FE82346188484300122790E9
:10FED0002188491E279801FB10A0218890FBF1F092
:10FEE00000B2269028992698B0FBF1F000B2259038
:10FEF0004FF4A02128461AF0C6FE6188823C484390
:10FF000000122490284619F089FE01462B98401AC9
:10FF100000B22390284619F07BFF01462A98401A28
:10FF200000B2229014A811F01DFC14AA4FF4A021D5
:10FF300028461BF063FD14A8C07B20F0070114A81D
:10FF4000C173FF208DF85300688BBDF85010084432
:10FF500000B2ADF8B600394602A819F009FA4FF41C
:10FF6000A0200F905D480390042004904FF00008FB
:10FF7000AAE02798504400FB08F0B4F8821090FBE8
:10FF8000F1F0A98A01442398084400B20190CDF809
:10FF9000408004F12400F4F789FB06468CE0307BB6
:10FFA00000F0010000B181E094F88800C0F3C000C7
:10FFB00008B9708900E0002000B200900198ADF807
:10FFC000B000BDF8B010259801442498081A401ECE
:10FFD00000B2ADF8B40025990198084400B2019030
:10FFE000BDF9B400BDF9BC10884200DA5EE0BDF98D
:10FFF000B000BDF9C010884200DD60E03089ADF886
:020000040801F1
:10000000540000984044B4F8821090FBF1F201FBD8
:1000100012000FFA80F9706830F91910307BC0F3C4
:10002000001204F16C0030F91200081A00FB0BF00A
:100030002990307BC0F3001104F1700030F91110E9
:10004000307BC0F3001204F16C0030F91200091A81
:10005000299890FBF1F029902998ABEB0001E88AF0
:1000600001442298084400B2ADF8B200706830F93B
:10007000190047F6FF71884217D02CA8059014A8E4
:1000800006901396706830F91900129002AA1A218E
:10009000284613F007F92CAA14A9384611F046FB9C
:1000A00002AA1B21284613F0FDF800BF314604F1D7
:1000B0002400F4F7F5FA0646002E7FF470AF00BF77
:1000C00008F101001FFA80F8B4F8820040453FF7BC
:1000D00050AF2E98B86000BFC8E60000B406040810
:1000E0002DE9F34FB9B083463A980BF114018268B9
:1000F00037A8F3F713F810B93BB0BDE8F08F3A9882
:100100008068369037A93A9881605D46B5F88200DC
:10011000022800DAF0E7002158461AF0E8FB339095
:10012000002158461AF0FDFD01463398084400B2FC
:100130003290002158461AF060FF01463398084477
:1001400000B23190584619F0FEFBB5F884104843D0
:10015000001200B23090584619F0D6FBB5F8861060
:100160004843001200B22F90584619F057FD01463F
:10017000BBF8142032981044401A00B22E90584612
:1001800019F046FE0146BBF8162031981044401A7B
:1001900000B22D903A980BF1140182682BA8F2F767
:1001A000BDFF2A902A9800B9A6E727A810F07CFA8C
:1001B00027AA4FF4A02158461BF0ACFB19A811F058
:1001C000D1FA19AA4FF4003158461BF017FC4FF42E
:1001D000003158461BF093F9064600EBD6704710E5
:1001E0004FF4003158461AF0FCFB064600EBD6707F
:1001F0004FEA600ABDF99E00574501DA394600E032
:10020000514600EBD072B1EB620F06DD9DF8A50000
:1002100020F0100010308DF8A500BDF89E000128D8
:1002200006D19DF8A50020F0100010308DF8A50033
:10023000B5F882103098814201DB012000E00020F7
:10024000189005F12400F4F731FA0446D4E1207B3C
:1002500000F0010000B1C9E12089ADF89C002089BF
:10026000ADF8680095F88800C0F3C00008B960894F
:1002700000E0002006B217962E98ADF8D4002E9814
:10028000ADF8D000179E179EB046606830F9181080
:10029000207BC0F3001205F16C0030F91200081A3F
:1002A0002F9948431690207BC0F3001105F1700090
:1002B00030F91110207BC0F3001205F16C0030F909
:1002C0001200091A169890FBF1F0169016992F98C3
:1002D000411A2D98084400B2ADF8D20004A83A990A
:1002E00019F046F8C8480590032006904FF4A02066
:1002F000119027A80A9019A808901594BDF9D2006A
:100300000390BDF9D20002904FF0000923E1BDF83F
:10031000D000ADF8D400BDF8D200ADF8D600BDF9DC
:10032000D4103698B0F904003844401C814200DDF6
:1003300016E1309800FB09F0B5F88210491E90FBD9
:10034000F1F12E98084400B2ADF8D0001798484457
:10035000B5F8821090FBF1F201FB120006B2606862
:1003600030F91610207BC0F3001205F16C0030F953
:100370001200081A2F9948431690207BC0F30011F1
:1003800005F1700030F91110207BC0F3001205F167
:100390006C0030F91200091A169890FBF1F01690D3
:1003A00016992F98411A2D98084400B2ADF8D20042
:1003B000BDF9D0103698B0F90000C01B401E814234
:1003C00001DAB046C3E0B9F1000F58D01898E8B38D
:1003D000606830F9180047F6FF718842F5D0606810
:1003E00030F916008842F0D0BDF9D210029881424F
:1003F00001DA029801E0BDF9D2000290BDF9D210F5
:100400000398814201DD039801E0BDF9D200039019
:10041000BDF9D400BDF9D010884230D0BDF9D2006A
:100420000190BDF8D000401E00B2ADF8D000BDF87C
:10043000D000ADF8D4000398ADF8D6000298ADF81E
:10044000D200BDF9D600BDF9D21000E018E0884214
:1004500005D1BDF8D200401C00B2ADF8D20034ABDB
:1004600035AA27A93A9810F008F9BDF8D000401C29
:1004700000B2ADF8D000019803900198029064E0BA
:10048000BDF8D400C01B00B2ADF80000BDF8D40028
:10049000384400B2ADF80400BDF8D600A0EB0A0065
:1004A00000B2ADF80200BDF8D600504400B2ADF87D
:1004B0000600A9F101001290606830F9180047F6B3
:1004C000FF71884201D035A800E000200D906068DF
:1004D00030F9160047F6FF71884201D034A800E0D9
:1004E00000200E90CDF81CD0606830F918001490F0
:1004F00004AA1A21584612F0D5FE606830F9180097
:1005000047F6FF7188420AD0606830F916008842C9
:1005100005D034AB35AA27A93A9810F0AEF877B1D8
:10052000BAF1000F0BD0606830F9180047F6FF7180
:10053000884204D06A4619A93A9811F0F7F804AA3B
:100540001B21584612F0AEFE00BFB04600BF09F1B5
:1005500001001FFA80F9B5F8820048453FF7D7AE91
:1005600000BF1898E8BBB5F8820048453DD16068E7
:1005700030F9160047F6FF71884236D0BDF8D0003A
:10058000C01B00B2ADF80000BDF8D000384400B286
:10059000ADF80400BDF8D200A0EB0A0000B2ADF83F
:1005A0000200BDF8D200504400B2ADF80600A9F137
:1005B0000100129000200D900E90CDF81CD06068C4
:1005C00030F91600149004AA1A21584612F06AFE57
:1005D0006A4619A93A9811F0A9F804AA1B215846AD
:1005E00000E002E012F05EFE00BF00BF214605F110
:1005F0002400F4F755F80446002C7FF428AE3A990D
:100600003698886000BF77E5B40604082DE9F34FFB
:10061000B3B08146349809F11401826831A8F2F729
:100620007DFD10B935B0BDE8F08F3498806830900A
:1006300031A9349881604D46002148461AF057F997
:100640002D90002148461AF06CFB2C900021484662
:100650001AF0D3FC2B90484619F075F9B5F88410C0
:100660004843001200B22A90484619F04DF9B5F8F7
:1006700086104843001200B22990484619F0CEFA7D
:100680000146B9F814202C9802442D981044401AC1
:1006900000B22890484619F0BBFB0146B9F8162075
:1006A0002B9802442D981044401A00B2279024A899
:1006B0000FF0FAFF24AA4FF4A02148461BF02AF9B4
:1006C00016A811F04FF816AA4FF4003148461BF057
:1006D00095F94FF4003148461AF011FF064600EB39
:1006E000D67047104FF4003148461AF07AF90646A2
:1006F00000EBD6704FEA6008BDF99200474501DA79
:10070000394600E0414600EBD072B1EB620F06DDE6
:100710009DF8990020F0100010308DF89900BDF878
:100720009200012806D19DF8990020F010001030A9
:100730008DF8990005F12400F3F7B8FF044698E11D
:10074000207B00F0010000B18DE12089ADF8900020
:100750002089ADF85C0095F88800C0F3C00008B9A6
:10076000608900E0002006B215962898ADF8BC001C
:100770002898ADF8B800159E159EB346606830F80D
:1007800016000A2847D02A980090236833F91600EB
:10079000237BC3F3C00C05F1780333F91C20237BC2
:1007A000C3F3C00C05F1740333F91C10002316F0D9
:1007B0005DFD00B2ADF8B800BDF8B8102898084447
:1007C00000B2ADF8B80029980090636833F91600BC
:1007D000237BC3F3001C05F1700333F91C20237B3A
:1007E000C3F3001C05F16C0333F91C10002316F051
:1007F0003DFD00B2ADF8BA00BDF8BA102998401A14
:1008000000B2ADF8BA00BDF8BA102798084400B29B
:10081000ADF8BA0005E04EF20100ADF8B800ADF851
:10082000BA0003A8349918F0A3FD4FF4A02010904B
:10083000944804900320059024A8099016A80790D6
:1008400014944FF0000AC8E0BDF8B800ADF8BC0041
:10085000BDF8BA00ADF8BE0015985044B5F8821046
:1008600090FBF1F201FB120006B2606830F916004D
:1008700047F6FF71884247D029980090636833F9A2
:100880001600237BC3F3001C05F1700333F91C2011
:10089000237BC3F3001C05F16C0333F91C10002308
:1008A00016F0E4FC00B2ADF8BA00BDF8BA10299811
:1008B000401A00B2ADF8BA00BDF8BA102798084443
:1008C00000B2ADF8BA002A980090236833F91600F8
:1008D000237BC3F3C00C05F1780333F91C20237B81
:1008E000C3F3C00C05F1740333F91C10002316F098
:1008F000BDFC00B2ADF8B800BDF8B81028980844A7
:1009000000B2ADF8B80001E0B34662E0BAF1000F02
:100910005DD0BDF8BC00C01B00B2ADF80400BDF84E
:10092000BC00384400B2ADF80800BDF8BE00A0EB32
:10093000080000B2ADF80600BDF8BE00404400B2A9
:10094000ADF80A00AAF101001190606830F91B00AF
:1009500047F6FF71884201D02FA800E000200C90DC
:10096000606830F9160047F6FF71884201D02EA862
:1009700000E000200D9001A80690606830F91B008F
:10098000139003AA1A21484612F08CFC606830F9D3
:100990001B0047F6FF71884213D0606830F91600DB
:1009A00088420ED02EAB2FAA24A934980FF065FEF2
:1009B0003FB1B8F1000F04D001AA16A9349810F085
:1009C000B5FE03AA1B21484612F06CFC00BFB346DB
:1009D00000BF0AF101001FFA80FAB5F88200504505
:1009E0003FF732AFB5F8820050453BD1606830F92F
:1009F000160047F6FF71884234D0BDF8B800C01B1E
:100A000000B2ADF80400BDF8B800384400B2ADF84B
:100A10000800BDF8BA00A0EB080000B2ADF806006F
:100A2000BDF8BA00404400B2ADF80A00AAF10100D6
:100A3000119000200C900D9001A80690606830F98C
:100A40001600139003AA1A21484612F02BFC01AAA3
:100A500016A9349810F06AFE03AA1B21484612F02A
:100A600021FC00BF00BF214605F12400F3F718FE6A
:100A70000446002C7FF464AE34993098886000BF3F
:100A8000D0E50000B40604082DE9F74FA2B00F46E8
:100A9000F88D10B925B0BDE8F08F97F83600022820
:100AA00000DCF7E7F88D012808D1B7F934000028F9
:100AB00004DC388E10B9788E00B9EBE724980088F2
:100AC000398E0844B98E401A00B2ADF880002498DF
:100AD0008088398E0844B98E084400B2ADF884008D
:100AE00024984088798E0844B98E401A00B2ADF837
:100AF00082002498C088798E0844B98E084400B2D8
:100B0000ADF88600B7F92E0000EBD071BDF880205B
:100B1000A2EB6101491E09B2ADF87810B7F92E00B9
:100B200000EBD071BDF8842002EB6101491C09B2D1
:100B3000ADF87C10B7F92E0000EBD071BDF8822023
:100B4000A2EB6101491E09B2ADF87A10B7F92E0087
:100B500000EBD071BDF8862002EB6101491C09B29F
:100B6000ADF87E1097F836001D901D98FD2801DD28
:100B7000FF201D9022981EA982681BA8F2F7CEFACA
:100B800000B987E719A824990BF0F4FA4FF0FF3267
:100B9000114619A80BF015FCB7F9008019A80BF045
:100BA000D1FB834619A80BF045FB834503DA19A84E
:100BB0000BF0C8FB02E019A80BF03CFB189018984A
:100BC000B8EB600F02DD18984FEA6008B7F9000033
:100BD000179020A80BF0B6FB834620A80BF02AFB49
:100BE000834503DA20A80BF0ADFB02E020A80BF050
:100BF00021FB1890DDE91701B0EB610F02DD1898B9
:100C000040101790B7F92E1017980C1804FB04F138
:100C1000480016F079FB8246B7F92E20179803B2E8
:100C2000514620A825F018FA1EA810F00DF91690CC
:100C30004FF00109169820B9F878FF2801DBB87841
:100C400008B14FF000094FF0FF300F90B9F1000FDD
:100C50000BD101230FFA88F219A910A810F06CFC2F
:100C6000002110A80FF04CFD0F901EA80BF06AFB9E
:100C7000834616F049FB0E901C2102A816F0F9FDE0
:100C80000CA8029007900E980590B88DADF8100052
:100C900097F836008DF82000B8788DF821001EA84E
:100CA0000BF050FB834600EBDB70BDF8781001EBD6
:100CB000600000B201901EA80BF0BCFA834600EB66
:100CC000DB70BDF87A1001EB600000B20090BDF857
:100CD0007C00ADF83400BDF87C00001B401C00B265
:100CE000ADF83000BDF87A00ADF83200BDF87A00FA
:100CF0002044401E00B2ADF83600BDF93010019816
:100D0000814202DDBDF9300000E00198ADF830000D
:100D1000BDF936100098814202DABDF9360000E0D4
:100D20000098ADF8360022980CA982680AA8F2F75C
:100D3000F5F9002866D00FFA88F219A90AA8F2F787
:100D40002EFA00285ED10AA80BF0FCFA834656461C
:100D5000BDF92A00BDF97A10401A00FB0466BDF9FE
:100D60002810BDF97C00001B401C081A0644B9F18C
:100D7000000F09D00FFA88F219A90AA8F2F78AFA27
:100D800010B10120099001E0CDF82490BBF1000FD3
:100D900037DD0E980590BDF82800ADF83000BDF89D
:100DA0002C00ADF8340002208DF81800BDF92A504F
:100DB00023E0ADF83250ADF836500998A8B9224674
:100DC00031460E9816F0BBFBBDF928105B462A464B
:100DD0000E980FF04BFF8DF818009DF818000128B1
:100DE00004D102208DF8180000E0059602A922988F
:100DF00010F0DAFE2644681C05B2BDF92E00A842A8
:100E0000D7DA00BFBDF87C00ADF83400BDF87C0037
:100E1000001B401C00B2ADF83000BDF87E00001B86
:100E2000401C00B2ADF83200BDF87E00ADF83600CF
:100E3000BDF930100198814202DDBDF9300000E0BB
:100E40000198ADF83000BDF932100098401C814285
:100E500002DDBDF9320001E00098401C00B2ADF89F
:100E6000320022980CA982680AA8F2F757F90028E4
:100E700066D00FFA88F219A90AA8F2F790F9A8BB70
:100E80000AA80BF05FFA83465646BDF93600BDF955
:100E90002E10401A00FB0466BDF92810BDF97C0035
:100EA000001B401C081A0644B9F1000F09D00FFAC4
:100EB00088F219A90AA8F2F7EDF910B101200990FA
:100EC00001E0CDF82490BBF1000F38DD0E980590BD
:100ED000BDF82800ADF83000BDF82C00ADF83400A6
:100EE00002208DF81800BDF92E5024E028E0ADF85E
:100EF0003250ADF836500998A8B9224631460E98BE
:100F000016F01DFBBDF928105B462A460E980FF01F
:100F1000ADFE8DF818009DF81800012804D10220BC
:100F20008DF8180000E0059602A9229810F03CFE0A
:100F30002644681E05B2BDF92A00A842D7DD00BFCD
:100F4000BDF87800204400B2ADF83000BDF87C0058
:100F5000001B00B2ADF83400BDF87A00ADF83200E5
:100F6000BDF87A002044401E00B2ADF83600BDF94D
:100F700036100098814202DABDF9360000E0009890
:100F8000ADF8360022980CA982680AA8F2F7C6F8D4
:100F900000286FD00FFA88F219A90AA8F2F7FFF813
:100FA000002867D10AA80BF0CDF983465646BDF953
:100FB0002A00BDF93210401A00FB0466B9F1000F97
:100FC00009D00FFA88F219A90AA8F2F763F910B14B
:100FD0000120099001E0CDF82490BBF1000F48DD1D
:100FE000099810B90E98059001E000200590BDF811
:100FF0002800ADF83000BDF82C00ADF83400BDF984
:101000002A5032E0ADF83250ADF836500998C8B9E0
:1010100031785A460E9816F0F2FBBDF928105B465F
:101020002A460E980FF022FE8DF818009DF8180041
:10103000012802D102208DF8180002A9229810F090
:10104000B3FD0FE01D98FF2801D1307804E030781F
:1010500097F83610484300128DF8200002A9229814
:1010600010F0A2FD2644681C05B2BDF92E00A8426E
:10107000C8DA00BF97F836008DF82000BDF8780078
:10108000204400B2ADF83000BDF87C00001B00B277
:10109000ADF83400BDF87E00001B401C00B2ADF876
:1010A0003200BDF87E00ADF83600BDF93210009870
:1010B000401C814202DDBDF9320001E00098401C75
:1010C00000B2ADF8320022980CA982680AA8F2F7A3
:1010D00025F800287ED00FFA88F219A90AA8F2F79D
:1010E0005EF8002878D10AA80BF02CF98346564602
:1010F000BDF93600BDF92E10401A00FB0466BBF1A5
:10110000000F66DDB9F1000F09D00FFA88F219A9B6
:101110000AA8F2F7BFF810B10120099001E0CDF85C
:101120002490099810B90E98059001E000200590D0
:10113000BDF82800ADF83000BDF82C00ADF8340043
:10114000BDF92E5041E0ADF83250ADF83650B9F14E
:10115000000F09D00FFA88F219A90AA8F2F79AF835
:1011600010B10120099001E0CDF824900998C8B988
:1011700031785A460E9816F042FBBDF928105B46AE
:101180002A460E980FF072FD8DF818009DF8180091
:10119000012802D102208DF8180002A9229810F02F
:1011A00003FD0FE01D98FF2801D1307804E030786E
:1011B00097F83610484300128DF8200002A92298B3
:1011C00010F0F2FC2644681E05B2BDF92A00A842C0
:1011D000B9DD00E000E000BF97F836008DF8200090
:1011E000BDF87C00001B401C00B2ADF83000BDF81B
:1011F0007C00ADF83400BDF87A00204400B2ADF8B0
:101200003200BDF87E00001B00B2ADF83600BDF91B
:1012100032100098401C814202DABDF9320001E030
:101220000098401C00B2ADF83200BDF936100098AD
:10123000814202DDBDF9360000E00098ADF83600CD
:10124000BDF930100198814202DDBDF9300000E0A7
:101250000198ADF8300022980CA982680AA8F1F72D
:101260005DFFE0B30FFA88F219A90AA8F1F797FF1A
:10127000A8BB0AA80BF066F883465646601E00FB22
:101280000466BDF92810BDF97C00001B401C081A3B
:101290000644B9F1000F09D00FFA88F219A90AA87B
:1012A000F1F7F8FF10B10120099001E0CDF824908A
:1012B000099808B1304600E00E980590BBF1000F88
:1012C00033DDBDF82800ADF83000BDF82C00ADF8D6
:1012D000340002208DF81800BDF92A5021E025E0E5
:1012E000ADF83250ADF836500998A0B95A4631469B
:1012F0000E9816F024F9BDF928105B462A460E9880
:101300000FF0B4FC8DF818009DF81800012802D1E8
:1013100002208DF8180002A9229810F045FC681CE4
:1013200005B2BDF92E00A842DADA00BF5646002504
:1013300015E030463319591E002208E0037891F871
:1013400000C080F800C00B70401C491E521C04EB0A
:10135000D47CB2EB6C0FF1DB2644681C05B2A542CD
:10136000E7DBBDF87800ADF83000BDF87800204428
:10137000401E00B2ADF83400BDF87A00204400B23F
:10138000ADF83200BDF87E00001B00B2ADF83600AB
:10139000BDF932100098401C814202DABDF93200DA
:1013A00001E00098401C00B2ADF83200BDF93610E3
:1013B0000098814202DDBDF9360000E00098ADF8EA
:1013C0003600BDF934100198401E814202DABDF9A1
:1013D000340001E00198401E00B2ADF834002298BC
:1013E0000CA982680AA8F1F799FED0B30FFA88F227
:1013F00019A90AA8F1F7D3FE98BB0AA80AF0A2FF20
:1014000083465646601E00FB0466BDF92800BDF900
:101410003010401A0644B9F1000F09D00FFA88F2D3
:1014200019A90AA8F1F736FF10B10120099001E0CF
:10143000CDF82490099808B1304600E00E98059048
:10144000BBF1000F33DDBDF82800ADF83000BDF86A
:101450002C00ADF8340002208DF81800BDF92A5098
:1014600021E025E0ADF83250ADF836500998A0B92A
:101470005A4631460E9816F062F8BDF928105B46C0
:101480002A460E980FF0F2FB8DF818009DF8180010
:10149000012802D102208DF8180002A9229810F02C
:1014A00083FB681C05B2BDF92E00A842DADA00BF42
:1014B000BDF87800ADF83000BDF878002044401E3B
:1014C00000B2ADF83400BDF87A00ADF83200BDF8D6
:1014D0007A002044401E00B2ADF83600BDF9341049
:1014E0000198401E814202DABDF9340001E0019802
:1014F000401E00B2ADF83400BDF9361000988142AC
:1015000002DABDF9360000E00098ADF83600229806
:101510000CA982680AA8F1F701FED0B30FFA88F28D
:1015200019A90AA8F1F73BFE98BB0AA80AF00AFF1E
:1015300083465646BDF92A00BDF93210401A00FB19
:101540000466BDF92800BDF93010401A0644B9F10F
:10155000000F09D00FFA88F219A90AA8F1F79AFE2C
:1015600010B10120099001E0CDF824900E9805906B
:10157000BBF1000F36DDBDF82800ADF83000BDF836
:101580002C00ADF8340002208DF81800BDF92A5067
:1015900024E028E0ADF83250ADF836500998A8B9EB
:1015A000224631460E9815F0CAFFBDF928105B4659
:1015B0002A460E980FF05AFB8DF818009DF8180077
:1015C000012804D102208DF8180000E0059602A938
:1015D000229810F0E9FA2644681C05B2BDF92E00E5
:1015E000A842D7DA00BFBDF87800ADF83000BDF8EA
:1015F00078002044401E00B2ADF83400BDF87E00F3
:10160000001B401C00B2ADF83200BDF87E00ADF802
:101610003600BDF932100098401C814202DDBDF950
:10162000320001E00098401C00B2ADF83200BDF974
:1016300034100198401E814202DABDF9340001E005
:101640000198401E00B2ADF8340022980CA98268BF
:101650000AA8F1F763FDD0B30FFA88F219A90AA816
:10166000F1F79DFD98BB0AA80AF06CFE834656462A
:10167000BDF93600BDF92E10401A00FB0466BDF915
:101680002800BDF93010401A0644B9F1000F09D006
:101690000FFA88F219A90AA8F1F7FCFD10B1012090
:1016A000099001E0CDF824900E980590BBF1000F51
:1016B00036DDBDF82800ADF83000BDF82C00ADF8DF
:1016C000340002208DF81800BDF92E5024E028E0E7
:1016D000ADF83250ADF836500998A8B922463146D7
:1016E0000E9815F02CFFBDF928105B462A460E987F
:1016F0000FF0BCFA8DF818009DF81800012804D1ED
:1017000002208DF8180000E0059602A9229810F03A
:101710004BFA2644681E05B2BDF92A00A842D7DD5F
:1017200000BFBDF87800204400B2ADF83000BDF82D
:101730007C00001B00B2ADF83400BDF87A002044F4
:1017400000B2ADF83200BDF87E00001B00B2ADF86B
:1017500036000E98059022980CA982680AA8F1F725
:10176000DDFCA0B30FFA88F219A90AA8F1F717FD5A
:1017700068BB0AA80AF0E6FD8346BBF1000F25DD31
:10178000BDF82800ADF83000BDF82C00ADF83400ED
:10179000BDF92A5016E0ADF83250ADF83650594632
:1017A0000E9816F09DF8BDF928105B462A460E9853
:1017B0000FF05CFA8DF8180002A9229810F0F4F9E5
:1017C000681C05B2BDF92E00A842E4DA00BFB9F1E9
:1017D000000F05D110A80FF013FB0F980FF094FF26
:1017E000504615F00DFE0E9815F00AFE00BFFFF7EB
:1017F00051B900002DE9F74FDEB05E985D9060981A
:101800000AF0AEFD804600EBD8704FEA600A60989F
:101810000AF01EFD074600EBD7704010824507DA3C
:1018200060980AF09DFD064606EBD670401006E073
:1018300060980AF00DFD054605EBD570401000B22A
:101840005B90609801885B98084400B2ADF8700125
:10185000609841885B98084400B2ADF8720158A8BE
:101860000EF022FF58AA4FF4C0215E981AF052F8E9
:101870009DF8690120F0100010308DF8690150A822
:101880000EF0C6FE50AA4FF4C0215E9819F0DBFF9F
:101890002CA85F9917F06CFDFE482D904FF4C020E6
:1018A000399003202E9058A832905D982430F2F79A
:1018B000FDFE044641E23D94A18B5B98084406B2CC
:1018C000A088301A00B22B90A089301A0FFA80FA43
:1018D000BDF870112B98081A00B2ADF8A400BDF83D
:1018E00072112B98081A00B2ADF8A600BDF870115D
:1018F0002B98084400B2ADF8A800BDF872112B98DF
:10190000084400B2ADF8AA00012347F6FF7229A9E6
:101910004AA80FF011FEBDF87001A0EB0A0000B25A
:10192000ADF89C00BDF87201A0EB0A0000B2ADF862
:101930009E00BDF870015044401E00B2ADF8A000FA
:10194000BDF872015044401E00B2ADF8A200012360
:1019500047F6FF7227A944A80FF0EEFDBDF870010D
:10196000801B00B2ADF89400BDF87201801B00B27C
:10197000ADF89600BDF870013044401E00B2ADF8DD
:101980009800BDF872013044401E00B2ADF89A00D4
:10199000002347F6FF7225A93EA80FF0CDFD0021D8
:1019A0003EA80EF0ADFE24904FF0FF3023906089EA
:1019B00010B16089401E01E04FF6FF7022904FF099
:1019C0000009A4E12298401C229000202190618906
:1019D0002298814203D10020229001202190A06909
:1019E00000906088421E00214846636915F03EFC65
:1019F00007463C97219810B12089209001E020688B
:101A0000209020981F90219808B1E08900E0E0889C
:101A10000FFA80F8CDF87880DDF878805D98303066
:101A2000F2F744FE05465FE02879022800D055E031
:101A3000A868B84251DCE868B8424EDB288A4044C6
:101A40000FFA80F8698AA88A814202D1688A2090B8
:101A500043E0A87D00F0010050B1FF20009000237A
:101A60003846D5E9021215F001FCC0B2139009E026
:101A7000FF20009000233846D4E9051215F0F6FB4C
:101A8000C0B21390A98A1191698A1291139800F13A
:101A9000040C4FEAEC00BDF848C04CEA0C4CDFF8EF
:101AA000F8E10CEA0E01BDF844C04CEA0C4C0CEA1B
:101AB0000E03A3EB010C0CFB00FC01EB5C1C0CEA1D
:101AC0000E0242EA124C1FFA8CFCCDF840C0BDF861
:101AD00040E0F446CDF880C000BF00BF29465D98C5
:101AE0003030F2F7DDFD0546002D9DD1E08B00FB87
:101AF00009F001026088401E91FBF0F01D901D98D6
:101B000000121C901C98401C1B901D9800F0FF0BAD
:101B1000228C1C99114408B220F0AEF81A90228C45
:101B20001B99114408B220F0A7F81990CBF58071E9
:101B30001A984143199800FB0B1000121890228C40
:101B40001C99114408B220F08FF81790228C1B9931
:101B5000114408B220F088F81690CBF580711798E0
:101B60004143169800FB0B1000121590BDF8800041
:101B7000ADF86001ADF86281BDF8702106EB080197
:101B8000159848437F3002EBE03000B2ADF85000CA
:101B9000BDF8722106EB0801189848437F3002EB2C
:101BA000E03000B2ADF8520014A835905CA8359032
:101BB000CDF8E89050A83190219800287CD0249846
:101BC0000FF0A2FDB4F91000AAEB00001390BDF8CD
:101BD00070211399159848437F3002EBE03000B232
:101BE000ADF84800BDF872211399189848437F302A
:101BF00002EBE03000B2ADF84A00202250A90AA85A
