:020000040800F2
:1000000070E00020D1020008A33C00089B3C0008DF
:100010009F3C0008111A0008414A00080000000037
:10002000000000000000000000000000390200088D
:10003000151A0008000000007D020008A54700080E
:10004000EB020008EB020008EB020008EB020008DC
:10005000EB020008EB020008EB020008EB020008CC
:10006000EB020008EB020008EB020008EB020008BC
:10007000EB020008EB020008EB020008EB020008AC
:10008000EB020008EB020008EB020008EB0200089C
:10009000EB020008EB020008EB020008EB0200088C
:1000A000EB020008EB020008EB020008EB0200087C
:1000B000EB020008EB020008EB020008EB0200086C
:1000C000EB020008EB020008EB020008EB0200085C
:1000D000EB0200081D4A0008EB020008EB020008D2
:1000E000EB020008EB020008EB020008EB0200083C
:1000F000EB020008EB020008EB020008EB0200082C
:10010000EB020008EB020008EB020008EB0200081B
:10011000EB020008EB020008BD470008EB020008F4
:10012000EB020008EB020008EB020008EB020008FB
:1001300000F002F800F070F80AA090E8000C824489
:100140008344AAF10107DA4501D100F065F8AFF266
:10015000090EBAE80F0013F0010F18BFFB1A43F0A5
:100160000103184784D40700A4D407000A444FF0C1
:10017000000C10F8013B13F0070408BF10F8014B06
:100180001D1108BF10F8015B641E05D010F8016B4B
:10019000641E01F8016BF9D113F0080F1EBF10F8AF
:1001A000014BAD1C0C1B09D16D1E58BF01F801CBD2
:1001B000FAD505E014F8016B01F8016B6D1EF9D555
:1001C0009142D6D37047000000230024002500266A
:1001D000103A28BF78C1FBD8520728BF30C148BFAA
:1001E0000B60704766293FF04C84642900F07681EB
:1001F000782900F0AF81732900F01D870020704737
:100200001FB500F051FF0400002000213EF0DAFE8F
:10021000E0601FBD10B510BD01F004F81146FFF7F6
:10022000EFFF34F06FFD01F022F803B4FFF7F2FFA7
:1002300003BC06F053FD0000224B19680868B0E8C3
:10024000F00F80F30988BFF36F8F4FF0000080F349
:1002500011884EF00D0E704700000000064800683F
:10026000006880F3088862B661B6BFF34F8FBFF3B2
:100270006F8F00DF00BF00BF08ED00E0EFF30980E3
:10028000BFF36F8F0F4B1A6820E9F00F106008B5AD
:100290004FF0500080F31188BFF34F8FBFF36F8F83
:1002A0003DF0B2FE4FF0000080F31188BDE8084039
:1002B00019680868B0E8F00F80F30988BFF36F8F02
:1002C000704700BF9C000020EFF3058070470000DE
:1002D0000948804709480047FEE7FEE7FEE7FEE7DA
:1002E000FEE7FEE7FEE7FEE7FEE7FEE70448054916
:1002F000054A064B70470000B94700083101000865
:1003000070DA002070E0002070DC002070DC00203B
:10031000704753EA020C00F069802DE9F04B4FF072
:100320000006002B1FBFB3FA83F503FA05F424FA85
:1003300005F65E4012BF1643B2FA82F502FA05F4E2
:10034000C5F120051EBF22FA05FC44EA0C04203545
:1003500056EA044C4FEA144418BF641C4FF00008DE
:100360004FF00009904271EB030C39D3002919BFFB
:10037000B1FA81F701FA07F6B0FA80F700FA07F64A
:10038000C7F120071EBF20FA07FC46EA0C062037FB
:10039000B6FBF4FCA7EB0507103F07F01F0BCBF1F2
:1003A00020060CFA0BFB2CFA06F644BFB3460026D7
:1003B000202FA4BF5E464FF0000B5BEA060C08BF7F
:1003C0004FF0010B19EB0B09ABFB027C48EB060865
:1003D000C01B06FB02CC0BFB03CC71EB0C01C1E78D
:1003E0000B46024641464846BDE8F08B13B54FF038
:1003F00000004FF00001AFF30080BDE81C407047E3
:1004000010B54C1084EA530404D54042C1F10001F8
:1004100038BF491E1B4204D55242C3F1000338BF06
:100420005B1EFFF776FF14F0804F04D04042C1F10D
:10043000000138BF491E14F0004F04D05242C3F1EE
:10044000000338BF5B1E10BD0FB4044910B503AAEA
:10045000029800F0F5FD10BC5DF814FB14000020BC
:100460000FB41CB5074B06AA7B446946009005985B
:1004700000F0B7FD0020694600F0C6FD1CBC5DF829
:1004800014FB00009D0B000070B50C460546012AC8
:1004900005D02878800600D5EA69002302E0012310
:1004A00005E05B1C934202D2E05C0028F9D1A86908
:1004B000E618C01AA861286A184428622846AFF3D3
:1004C000008004E0D5E9012114F8010B9047B44203
:1004D000F8D32846AFF3008070BD00002DE9F0414D
:1004E0000646002410687529314616A510D0AFF3D2
:1004F0000080002802DA404213A507E031688A072D
:1005000001D512A502E0490704D511A5012401E097
:10051000AFF3008000210A2206F1240709E0B0FBB6
:10052000F2FCB0FBF2F302FB1C00303078541846AA
:10053000491C0028F3D123462A463046BDE8F04145
:1005400000F0E1BA000000002D0000002B000000C8
:100550002000000070B504460D4621461068AFF338
:1005600000802188090502D50F4A7A4402E00E4A2C
:100570007A440E32002104F1240305E000F00F0656
:100580000009965D5E54491C0028F7D120780023AD
:10059000000704D5702D02D009B102231132204684
:1005A000BDE8704000F0AFBA64CA07002DE9F05F03
:1005B000894604464FF0000ADFF874B1FB44C0F8E6
:1005C00020A02046E1688847002874D0252806D05E
:1005D000D4E901219047206A401C2062F1E70026FF
:1005E0005F462046E16888472028054607DB312D15
:1005F00005D2781910F8200C08B10643F1E7B007CE
:1006000001D526F00406C4F81CA00027C4F818A0E1
:100610002A2D09D0284604F063FA38B304EB870882
:10062000303DC8F8185019E059F8041B204604EB77
:1006300087029161E1688847012F054618D1E0697A
:10064000002820DA26F020061DE0D8F8180000EB7C
:10065000800005EB40003038C8F818002046E168FB
:100660008847054604F03CFA0028EED1012F0AD055
:100670002E2D08D12046E16888477F1C0546022FB1
:1006800046F02006C4DBA069002803DA404246F0A9
:100690000106A061F00701D026F010066C2D0BD0EA
:1006A000682D09D04C2D39D06A2D35D0742D35D018
:1006B0007A2D33D016E038E0E1682F46204688478F
:1006C000B842054609D16C2F26D04FF48060E1680E
:1006D000064320468847054604E06C2F1AD04FF4A5
:1006E000807006430DB3A5F14100192802D82035CA
:1006F00046F400664A462946204626604E46FFF7E5
:1007000071FD80B101280BD0F61D26F0070000F125
:10071000080956E74020E4E78020D8E70020D6E724
:1007200006F104094DE7284652E7206ABDE8F09F2C
:100730003ACA070040EA010310B59B070FD1042A0B
:100740000DD310C808C9121F9C42F8D020BA19BA9C
:10075000884201D9012010BD4FF0FF3010BD1AB101
:10076000D30703D0521C07E0002010BD10F8013B56
:1007700011F8014B1B1B07D110F8013B11F8014B7D
:100780001B1B01D1921EF1D1184610BD40EA010396
:10079000024630B59B0710D14FF0013400E008C28B
:1007A00008C91D1B9D4315EAC41FF8D013F0FF01B3
:1007B00002F8011B0DD01B0AF8E711F8013B002BD2
:1007C00002F8013B05D011F8013B002B02F8013B78
:1007D000F3D130BD10B5431C02E010F8011B71B11C
:1007E0008107FAD14FF0013202C88C1A8C4314EA07
:1007F000C211F9D0C01A0A0603D0C01E10BDC01A1B
:1008000010BD0A0401D0801E10BD0902FCD0401E9C
:1008100010BD40EA010370B59B072ED14FF00136A1
:10082000042A2AD308C810C99D1B9D43121F15EA2C
:10083000C61517D0D8B2E1B2401A50EA056110D1FE
:1008400098B2A1B2401A50EA05410AD123F07F4084
:1008500024F07F41401A50EA052102D1180EA0EB86
:10086000146070BDA342DBD018BA21BA884201D906
:10087000012070BD4FF0FF3070BD0AB9002070BD7F
:1008800010F8013B11F8014B63B1A3420AD1521E8B
:1008900008D010F8013B11F8014B1BB1A34201D164
:1008A000521EEDD1181B70BD032A40F2308010F0AB
:1008B000030C00F0158011F8013BBCF1020F6244FB
:1008C00098BF11F801CB00F8013B38BF11F8013B8C
:1008D000A2F1040298BF00F801CB38BF00F8013B39
:1008E00011F0030300F02580083AC0F0088051F8A9
:1008F000043B083A51F804CBA0E80810F5E7121DB4
:100900005CBF51F8043B40F8043BAFF30080D207D2
:1009100024BF11F8013B11F801CB48BF11F8012B9E
:1009200024BF00F8013B00F801CB48BF00F8012BC1
:10093000704710B5203AC0F00B80B1E81850203A4B
:10094000A0E81850B1E81850A0E81850BFF4F5AF6F
:100950005FEA027C24BFB1E81850A0E8185044BFF9
:1009600018C918C0BDE810405FEA827C24BF51F866
:10097000043B40F8043B08BF7047D20728BF31F85A
:10098000023B48BF11F8012B28BF20F8023B48BFAB
:1009900000F8012B704702F0FF0343EA032242EA0A
:1009A000024200F061BB4FF0000200B513469446CE
:1009B0009646203922BFA0E80C50A0E80C50B1F1B7
:1009C0002001BFF4F7AF090728BFA0E80C5048BFCB
:1009D0000CC05DF804EB890028BF40F8042B08BF69
:1009E000704748BF20F8022B11F0804F18BF00F865
:1009F000012B70474FF0013C50F8042B51F8043B99
:100A00009A4221D1A2EB0C03934313EACC1317D1E2
:100A100050F8042B51F8043B9A4215D1A2EB0C0379
:100A2000934313EACC130BD150F8042B51F8043B39
:100A30009A4209D1A2EB0C03934313EACC13DBD007
:100A40004FF00000704700BFD01A01BAB1FA81F12F
:100A500001F0180122FA01F0CB40C1F12001DBB214
:100A6000C0B2C01A2CFA01F3D11A914311EAC31192
:100A7000E6D17047704770477047704730B5B0F1A6
:100A80000A024FEA900E71F100034EEA817EB0EB4C
:100A90000E0061EB91014FEA101E4EEA017E10EB51
:100AA0000E0041EB11114FEA102E4EEA016E10EBD1
:100AB0000E0041EB11214FEA104E4EEA014E10EBB1
:100AC0000E0041EB1141401841F100014FEAD00006
:100AD00040EA41704FEAD10110EB80054FEA8104F2
:100AE00044EA907444EB01046D1944EB0404521B76
:100AF000A3414FF0000348BF0A3200D530BD401C6F
:100B000041F1000130BD2DE9F0470D46994692466E
:100B1000044600F124080168880604D5E06921F044
:100B20001001216000E00120A84201DD471B00E028
:100B30000027A1697A1902EB0900081AA061207840
:100B4000C00602D42046AFF30080002608E0D4E9B6
:100B500001211AF806009047206A401C761C20628A
:100B60004E45F4DB2078C0060AD52046AFF300805E
:100B700006E0D4E9012130209047206A401C206221
:100B8000381EA7F10107F4DC07E0D4E9012118F8C9
:100B900005009047206A401C2062281EA5F101052F
:100BA000F3DC2046AFF300802078000602D5022057
:100BB000BDE8F0870120FBE770472DE9FF4F0C46A9
:100BC0001E464FF0FF378BB0D2E90001DDF86080A0
:100BD0000A908A46C1F30A5505B93D4600210846E8
:100BE0004FF00000BAF1000F00F4400005DA00EB0E
:100BF00080004FF4400101EA50004FEA9059B9F1EA
:100C0000010F00DDB9460A9850EA4A000ED044F6BA
:100C10001050A5F2FF3545432F14B8F1000F1ED038
:100C20007542291E1EDDC9F100021CE0B8F1010F5A
:100C30004FF0000001D0302103E0F24305E02154E1
:100C4000401CB042FBDB30460022002121540B99AE
:100C5000C1F80880C1E900200FB0BDE8F08FBD1BCE
:100C60006D1CDEE74A4600DA694206A800F060FA29
:100C700006AB93E8070003AB83E8070050460A99E8
:100C800000F0FEFA8DE80700A0F500501F38009034
:100C90000398002D0ADD42F21F014A460844002352
:100CA00003A90390684600F067FD09E0A0F5005035
:100CB0004A461F38002303A90390684600F071FDDF
:100CC0008DE807000004000C03D04FF0FF3041080E
:100CD00000E01046B8F1000F03D000220092154644
:100CE0001EE0751E05D4FFF7C9FE303262556D1E39
:100CF000F9D5B3460122084302D000227F1C04E04C
:100D00002078302801D100227F1E002A099784D044
:100D10001DE0112D07DAFFF7B1FE303262556D1C70
:100D200050EA0102F5D1084302D00098C8B10EE0A4
:100D30000021681E05E0235C625C63542254401E5F
:100D4000491C8142F7DBAB46A81B401E09900020DE
:100D500004F80B000B98099AC0F80880C0E9002B32
:100D60007AE711264FF0000857E72DE9F04F884643
:100D70000446D21D22F0070191B0D1E90001CDE96E
:100D80000A0103F05FFE02460B98C00F01D02D2030
:100D900007E02068810701D52B2002E0202101EA2D
:100DA000C000032A099001D0072A05DB034641460B
:100DB000204600F07DF90BE12078800601D5E0693E
:100DC00000E00620B8F1650F814606D0B8F1660F45
:100DD00018D0B8F1670F70D131E00020B9F1110FD0
:100DE000009001DB112301E009F101030AAA01A926
:100DF0000CA8FFF7E2FEDDE90C70002609F1010501
:100E0000834647E001204B4600904FF000470AAA76
:100E100001A90CA8FFF7D1FEDDE90DB00C995D46E4
:100E2000002610B909F101000D18B9EB050003D433
:100E3000C0F1FF3609F10105A5EB09002BE0B9F17E
:100E4000010F01DA4FF001090020B9F1110F0090F4
:100E5000484601DD112300E003460AAA01A90CA8B7
:100E6000FFF7ABFEDDE90C704D4600268346207887
:100E700000070AD4AB4500DA5D4601A8012D04DD68
:100E8000411911F8011C302907D04F4502DA17F13A
:100E9000040F04DA012082460FE06D1EEEE7002FFA
:100EA00002DCED1B3E4403E0781CA84200DD7D1C03
:100EB000B81B00F1010A4FF000472078000703D467
:100EC000AA4501DB4FF0FF3A0021B7F1004F0DF1C9
:100ED00043088DF8431024D002202B23002F01DA81
:100EE0007F422D230A21021EA0F1010000DC5FB128
:100EF00097FBF1FC97FBF1F201FB1C7C17460CF110
:100F0000300C08F801CDEEE7A8F10100037021884C
:100F1000090501D5452100E06521A0F1010800F88F
:100F2000011C09980FA9A1EB0807FF1D00B10120C2
:100F3000411901EBEA70A1693844081A401EA0610A
:100F40002078C00602D42046AFF30080099828B16B
:100F5000D4E901219047206A401C20622078C00615
:100F600022D52046AFF300801EE0002E04DBB345FF
:100F700002DD01A8805D00E03020D4E90121904726
:100F8000206A401C2062761CAAF101005FEA000A78
:100F90000AD100F089F8C0680168405CD4E90121F9
:100FA0009047206A401C2062281EA5F10105DCDC68
:100FB00007E0D4E9012118F8010B9047206A401C92
:100FC0002062381EA7F10107F3DC2046AFF3008052
:100FD000032011B041E6000001694A1C0261087853
:100FE000704700B58FB0CDE9013100210591054969
:100FF0007944CDE9031011466846FFF7D7FA0FB0E0
:1010000000BD0000E5FFFFFF0A6802F8010B0A605F
:10101000704710B5436913B1AFF3008001E0FFF7EB
:1010200033FA012010BD127800F124010A70002269
:101030004A700122EDE711684FF0FF32E9E7000046
:10104000074B70B50D467B44FFF7CBFF044628469F
:1010500000F0E0F810B14FF0FF3070BD204670BDD9
:10106000E75601004FF000020429C0F0128010F092
:10107000030C3FF49AACCCF1040CBCF1020F18BF86
:1010800000F8012BA8BF20F8022BA1EB0C01FFF701
:101090008CBC5FEAC17C24BF00F8012B00F8012B57
:1010A00048BF00F8012B70470048704730DA002035
:1010B0002DE9F0411F46044603260168072A01F482
:1010C000006004DB08B116A505E016A503E008B131
:1010D00015A500E015A521F010002060A069C01E34
:1010E000A0610FB1401EA0612046AFF300804FB158
:1010F000D4E9012138469047206A401C2062C01C78
:10110000206206E0206AFAE7D4E9012115F8010B14
:101110009047761EF8D22046AFF30080BDE8F081FC
:101120004E414E006E616E00494E4600696E66008B
:101130002DE9F047814616468AB0354878440DC8F7
:101140008DE80D0032487844801C03AC0DC884E85B
:101150000D0041F69B300844372190FBF1F290FBE3
:10116000F1F5A5F1800501FB12041B3C02D5644298
:10117000012000E00020DFF898A080460027FA4414
:10118000AAF1BE0A0EE0E0070AD03246684607EB35
:10119000470101230AEB810100F003FB8DE8070002
:1011A00064107F1C002CEED1194F7F44AE3F19E034
:1011B000E80715D007EB04100DF1180A90E80E00AF
:1011C0008AE80E00C068F04201D1981908903246B2
:1011D000012306A903A800F0E4FA03AB83E80700A3
:1011E0006D10641C002DE3D14FF0010332466946B7
:1011F000B8F1000F03A802D000F0BEFA01E000F041
:10120000D0FAC9E90001C9F808200AB0BDE8F087A2
:1012100048BF0700007B00F080007047004870471F
:1012200010DA00207546FFF7F9FFAE460500694663
:10123000534620F00700854618B020B5FFF756F852
:10124000BDE820404FF000064FF000074FF00008C7
:101250004FF0000B21F00701AC46ACE8C009ACE848
:10126000C009ACE8C009ACE8C0098D46704710B5AC
:101270000446AFF300802046BDE81040FEF7D5BF1E
:101280005FEA400C08BF91F0000F4FEA8C234FEA51
:10129000C12243EA51514FEA1C5018BF00F5F040FB
:1012A0004FEA300018BF41F000415FEA6C5C00F08B
:1012B0002980BCF1FF3F08BF40F080407047130C0D
:1012C00006BF12044FF0100C4FF0000C130E04BFB9
:1012D00012020CF1080C130F04BF12010CF1040CE4
:1012E000930F04BF92000CF1020CD30F04BF520005
:1012F0000CF1010C11464FF00002A0F11F00A0EB11
:101300000C00704711F0004F08BF704731F00041EA
:101310003FF4D5AF0B0C06BF09044FF0100C4FF093
:10132000000C0B0E04BF09020CF1080C0B0F04BFDC
:1013300009010CF1040C8B0F04BF89000CF1020CA5
:10134000CB0F04BF49000CF1010CCCF12003A0EB42
:101350000C0022FA03F302FA0CF241EA030100F155
:101360000100704720F07F4C80EA030023F07F47A4
:10137000ACEB070303F57C5300F0004003F1FF03DF
:101380002DE980494FEA154B09B44FEA144325EA89
:101390000B4E24EA03480FF2042606EB13274908F4
:1013A0003E785FEA320203FB0667C7F5000707FBDA
:1013B00006F64FEA54374FEAD64606F1020607FB17
:1013C000066CCCF1005C4FEA1C472CEA074C07FB8B
:1013D00006F40CFB06F504EB15464FEA961634BFEF
:1013E00000204FF000404FEAD13706FB07FC4FEAE0
:1013F0001C4C0CFB0BF7D21B03FB0CF761EB07013A
:101400000CFB0EF7B0EB074072EB17420CFB08F732
:1014100034BFA2EB0742B2EB074261EB17414FEA40
:101420000C444FEA910706FB07FC4FEA1C4C0CFBEF
:101430000BF7B0EBC74072EB573203FB0CF734BF2E
:10144000A2EBC742B2EBC74261EB57310CFB0EF780
:10145000B0EBC70072EB57720CFB08F734BFA2EB7E
:10146000C702B2EBC70261EB5771039F4FEA81617C
:1014700041EA921104EBCC044FEAD1374FEA826281
:1014800006FB07FC42EA90124FEA80604FEA1C4CD0
:101490000CFB0BF7D21B03FB0CF761EB07010CFBFA
:1014A0000EF7B0EB074072EB17420CFB08F734BFA6
:1014B000A2EB0742B2EB074261EB17414FEA8C55B2
:1014C0004FEA910704EB9C2406FB07FC4FEA1C4CF7
:1014D0000CFB0BF7B0EBC74072EB573203FB0CF77A
:1014E00034BFA2EBC742B2EBC74261EB57310CFBF2
:1014F0000EF7B0EBC70072EB57720CFB08F734BF66
:10150000A2EBC702B2EBC70261EB577115EB4C259A
:101510004FEA816141EA92114FEA82624FEAD13784
:1015200042EA901206FB07FC44F100044FEA806097
:101530004FEA1C4C0CFB0BF7D21B03FB0CF761EBC7
:1015400007010CFB0EF7B0EB074072EB17420CFBE8
:1015500008F734BFA2EB0742B2EB074261EB174139
:1015600015EB1C154FEA813141EA92414FEA823274
:1015700042EA90424FEA80304FEA0C7644F1000490
:1015800048EA03434EEA0B484FF0000EB2EB080C5A
:1015900071EB030724BF624639464EEB0E0E4FF047
:1015A000000B0018524149414BEB0B0BB2EB080CFE
:1015B00071EB03077BF1000B24BF624639464EEB0B
:1015C0000E0E4FF0000B0018524149414BEB0B0B34
:1015D000B2EB080C71EB03077BF1000B24BF6246F2
:1015E00039464EEB0E0E51EA020718BF46F00106CF
:1015F00016EB0E7655F1000254F1000103D5BDE85B
:101600008901BDE80088BDE88901BDE80048B61938
:10161000524141EB0101A3F10103704780807F7EBD
:101620007D7C7B7A79787776767574737271717058
:101630006F6E6E6D6C6C6B6A6A696868676666650A
:101640006464636362616160605F5F5E5E5D5D5C98
:101650005C5B5B5A5A595958585757565655555509
:101660005454535352525251515050504F4F4F4E69
:101670004E4D4D4D4C4C4C4B4B4B4A4A4A494949B7
:1016800048484847474747464646454545444444F9
:10169000444343434342424242414141002B9C4622
:1016A00030D477002BD01CB54FEA370703B44FF086
:1016B00010004FF01001BAF1000F06D0BCF1000F7E
:1016C000DCBF40F0080040F008014FF000000FBC04
:1016D000BDE810400BF1010BBBF1010F08BF5FEA41
:1016E000170722BF12F1010211F101014FF0004171
:1016F00043F1000300F0004043EA00007047F9D3D3
:101700005708D0E746EA064613F1400F4FEA16465F
:101710001FDD13F1200FDFBF16430A4600212033DF
:101720005B42BED0C3F1200746EA064602FA07F73D
:101730004FEA164646EA0706C3F1200722FA03F2EB
:1017400001FA07F721FA03F14FF0000342EA07021A
:10175000A7E746EA020646EA06464FEA164646EA82
:101760000106BCBF46EA0646360C4FF000034FF0B8
:1017700000024FF0000194E72DE9804C9A46934611
:1017800070B491E8380007C831EA400C48BF34EA29
:10179000430C03D5FFF7E6FDFFF780FFF0BCBDE883
:1017A000008C2DE9804C9A46934670B491E838003D
:1017B00007C810F0804F08BF13F0804F03D100F02E
:1017C00005F8FFF76BFFF0BCBDE8008C20F07F4709
:1017D00080EA030023F07F4C07EB0C03A3F57C5356
:1017E00000F00040A3F1FE0392F0000F00F0B38080
:1017F00095F0000F00F077802DE901494FEA114084
:101800004FEA144621EA004800FB06FC24EA06479A
:1018100008FB06F607FB08F800FB07F718EB06487D
:101820004CEB164C4FEA124B18EB07484FEA1546A3
:101830004CEB174022EA0B4E0BFB06FC25EA064751
:101840000EFB06F607FB0EFE0BFB07F71EEB064E24
:101850004CEB164C4FF000061EEB074E4CEB174BB3
:1018600018EB0B0840F1000018EB0E0B58EB0008CA
:1018700040F100008F1A4FF000013CBFC943661BC6
:1018800014BFB5EB040C00213CBFC943F61B4FEA63
:1018900017444EEA8E0E27EA04454FEA1C4704FB24
:1018A00007622CEA074C05FB07F70CFB05F604FB67
:1018B0000CFC16EB074642EB174216EB0C4642EBCC
:1018C0001C421BEB060658EB0202414146EA9E060B
:1018D00001D5BDE80189B619524141EB0101A3F1DF
:1018E0000103BDE801894FEA14454FEA114724EA94
:1018F000054621EA074C05FB07F406FB07F70CFB3E
:1019000006F105FB0CFC11EB074144EB17444FEAD1
:10191000124711EB0C4144EB1C4422EA074C05FB37
:1019200007F206FB07F70CFB06F605FB0CFC16EBB3
:10193000074642EB174216EB0C4642EB1C456A1871
:1019400054F1000148BF7047B619524141EB010103
:10195000A3F10103704795F0000F37D04FEA114211
:101960004FEA144721EA024624EA074C02FB07F13A
:1019700006FB07F70CFB06F402FB0CFC14EB074418
:1019800041EB17414FEA154714EB0C4441EB1C4166
:1019900025EA074C02FB07F506FB07F70CFB06F6EA
:1019A00002FB0CFC16EB074645EB174516EB0C4605
:1019B00045EB1C42121951F1000148BF7047B6199E
:1019C000524141EB0101A3F1010370474FEA144575
:1019D0004FEA114724EA054621EA074C05FB07F1C7
:1019E00006FB07F70CFB06F24FF0000605FB0CFCAC
:1019F00012EB074241EB174112EB0C4251EB1C4139
:101A000048BF7047921841EB0101A3F101037047F1
:101A100000BFFEE77047000070B50446B3F5804F85
:101A200013D1D1E9000540EA05108D6840EA052090
:101A30008D6928438D8940EA054054F82250064EAE
:101A40003540284344F8220003E06FF0704044F82A
:101A50002200002070BD00000000F0CF70B50246EB
:101A6000086852F8200020F001000E6842F82600B5
:101A70008868082801D1402300E000234868184303
:101A80008E683043CE6830430E6930434E69304330
:101A9000CE6930430E6A30434E6A30438E6A30431B
:101AA000CE6A30430E6B40EA060488690443486BF3
:101AB0000443074D45F4806545F4E025086852F875
:101AC0002000A84320430E6842F82600002070BD85
:101AD0007FFB080010B50346D1E9000440EA04107A
:101AE0008C6840EA04208C8940EA0444088A401E3D
:101AF00044EA0054087D801E44EA00608C6920435B
:101B0000541C53F8244004F040442043541C43F830
:101B10002400002010BD000070B50446002594F894
:101B20002100022803D00420A0630125C1E0206821
:101B3000006820F00E00216808602068006820F02E
:101B40000100216808605C492068884252D95A49DE
:101B500078392068884201D1012047E0564964392C
:101B60002068884201D1102040E053495039206854
:101B7000884201D1801539E04F493C3920688842BC
:101B800001D1801432E04C4928392068884202D1C2
:101B90004FF480302AE0484914392068884202D145
:101BA0004FF4801022E044492068884201D140046B
:101BB0001CE042492068884201D1012016E03F49DB
:101BC00014312068884201D110200FE03B492831B0
:101BD0002068884201D1801508E038493C312068EE
:101BE000884201D1801401E04FF480303349091F4D
:101BF000086051E0304978392068884201D10120DD
:101C000047E02D4964392068884201D1102040E026
:101C1000294950392068884201D1801539E0264988
:101C20003C392068884201D1801432E022492839A9
:101C30002068884202D14FF480302AE01E491439CE
:101C40002068884202D14FF4801022E01A492068AF
:101C5000884201D140041CE018492068884201D123
:101C6000012016E0154914312068884201D1102066
:101C70000FE0124928312068884201D1801508E020
:101C80000E493C312068884201D1801401E04FF4B4
:101C90008030094980394860012084F8210000BF64
:101CA000002084F8200000BF606B10B12046616BFB
:101CB0008847284670BD00008000024008040240AA
:101CC00070B5044600F0C8F906462546681C10B1F8
:101CD00004480078054400BF00F0BEF9801BA8420C
:101CE000FAD370BD240000202DE9F84702460023F6
:101CF0009C467BE14FF0010808FA03F4D1F800801C
:101D000008EA0400A0427DD1DFF8F4A2D1F80480F3
:101D1000A8EB0A09D0453AD014DCB8F1030F50D033
:101D200009DCB8F1000F31D0B8F1010F1CD0B8F1C7
:101D3000020F49D120E0B8F1110F18D0B8F1120FFD
:101D400042D11EE0B9F5881F25D006DCB9F5803FE9
:101D500020D0B9F5801F37D11AE0B9F5001F18D08F
:101D6000B9F5041F30D117E0D1F80CC02DE0D1F83F
:101D70000C8008F1040C28E0D1F80C8008F1080C64
:101D800023E0D1F80C8008F10C0C1EE000BF00BF6E
:101D900000BF00BF00BF00BFD1F80880B8F1000F3E
:101DA00002D14FF0040C0BE0D1F80880B8F1010F1C
:101DB00003D14FF0080C146102E04FF0080C54619D
:101DC00003E04FF0000C00E000BF00BFFF2801D887
:101DD000904601E002F104084646FF2802D84FEA87
:101DE000830803E0A3F108084FEA88084746D6F8BD
:101DF00000804FF00F0909FA07F928EA09080CFAE0
:101E000007F900E07AE048EA0908C6F80080D1F84E
:101E1000048008F08058B8F1805F6FD100BFDFF810
:101E2000E481D8F8188048F00108DFF8D891C9F8A3
:101E30001880C846D8F8188008F00108CDF800804E
:101E400000BF00BF4FEAB9384FEA930958F829504C
:101E50004FEA83784FEA18794FF00F0808FA09F82B
:101E600025EA0805DFF8A081424502D14FF00008BD
:101E700024E0DFF89881424502D14FF001081DE0CF
:101E8000DFF88C81424502D14FF0020816E0DFF8FE
:101E90008481424502D14FF003080FE0DFF87881DA
:101EA000424502D14FF0040808E0DFF87081424556
:101EB00002D14FF0050801E04FF006084FEA8379A0
:101EC0004FEA197908FA09F848EA0505DFF8508160
:101ED0004FEA930948F82950D1F8048008F4803873
:101EE000B8F5803F0BD1DFF83C81D8F8008048EA94
:101EF0000008DFF83091C9F800800AE075E0DFF8EB
:101F00002481D8F8008028EA0008DFF81891C9F881
:101F10000080D1F8048008F40038B8F5003F0ED1F5
:101F2000DFF8008108F10408D8F8008048EA0008CA
:101F3000DFF8F09009F10409C9F800800DE0DFF83E
:101F4000E48008F10408D8F8008028EA0008DFF8E7
:101F5000D49009F10409C9F80080D1F8048008F48C
:101F60008018B8F5801F0ED1DFF8B88008F1080896
:101F7000D8F8008048EA0008DFF8A89009F10809BD
:101F8000C9F800800DE0DFF89C8008F10808D8F857
:101F9000008028EA0008DFF88C9009F10809C9F8E8
:101FA0000080D1F8048008F40018B8F5001F0ED1A5
:101FB000DFF8708008F10C08D8F8008048EA0008C3
:101FC000DFF8609009F10C09C9F800800DE0DFF836
:101FD000548008F10C08D8F8008028EA0008DFF8DF
:101FE000449009F10C09C9F800805B1CD1F800800D
:101FF00028FA03F8B8F1000F7FF47CAEBDE8F8874B
:10200000000011100010024000080140000C0140C7
:10201000001001400014014000180140001C014064
:102020000800014000040140024693680B400BB1D8
:10203000012000E00020704710B5C26821EA0203C9
:1020400002EA010443EA0443036110BD0AB10161DD
:1020500001E00B040361704701480068704700000D
:102060001C0000200348006803490978084401491E
:10207000086070471C0000202400002010B50848AC
:10208000006840F0100006490860032000F080F866
:102090000F2000F007F800F02BF8002010BD000022
:1020A0000020024070B504460E4800784FF47A7163
:1020B000B1FBF0F00C490968B1FBF0F5284601F0DE
:1020C00035FB08B1012070BD102C07D2002221463B
:1020D000501E00F01EF80548046001E00120F2E700
:1020E0000020F0E724000020000000202000002055
:1020F000704701460846002809DB00F01F03012253
:102100009A4043099B0003F1E023C3F8002100BF7C
:1021100070472DE9F05F80460D461646002702F015
:10212000A5FC074639462A46334601F00700C0F1B0
:10213000070ABAF1040F02D94FF0040A01E0C0F116
:10214000070AD14600F1040ABAF1070F02D24FF094
:10215000000A01E0A0F1030AD4464FF0010A0AFA8E
:1021600009FAAAF1010A0AEA020A0AFA0CFA4FF07D
:10217000010B0BFA0CFBABF1010B0BEA030B4AEA68
:102180000B042146404602F079FCBDE8F09F0000B8
:1021900000BF00F00702064B19684FF6FF03194015
:1021A000044B0B4343EA0221014B196000BF704707
:1021B0000CED00E00000FA0570B504460D460CB9C0
:1021C000012070BD5A48006800F00700A8420ED2F6
:1021D0005748006820F00700284355490860084622
:1021E000006800F00700A84201D00120E9E720784C
:1021F00000F0020002281DD1207800F0040004281D
:1022000005D14C48406840F4E0604A494860207875
:1022100000F00800082805D14648406840F46050A6
:10222000444948604348406820F0F000A1680843F2
:1022300040494860207800F0010078B360680128C8
:1022400006D13C48006800F4003090B90120B8E79E
:102250006068022806D13748006800F0007040B975
:102260000120AEE73348006800F0020008B9012001
:10227000A7E73048406820F00300616808432D4913
:102280004860FFF7E9FE064609E0FFF7E5FE801B20
:1022900041F28831884202D9032092E707E02548BD
:1022A000406800F00C006168B0EB810FEDD1204870
:1022B000006800F00700A8420ED91D48006820F011
:1022C000070028431A4908600846006800F0070024
:1022D000A84201D0012074E7207800F0040004280F
:1022E00007D11448406820F4E060E16808431149D0
:1022F0004860207800F00800082808D10D484068A0
:1023000020F46050216940EAC1000A49486000F0A9
:102310003FF808494968C1F30311074A515CC840B6
:102320000649086006480068FFF7BCFE002048E741
:10233000002002400010024086FA0308000000203E
:1023400020000020014800687047000000000020C5
:1023500000B5FFF7F7FF04494968C1F30221034ABA
:10236000515CC84000BD00000010024096FA03080E
:1023700000B5FFF7E7FF04494968C1F3C221034AEA
:10238000515CC84000BD00000010024096FA0308EE
:10239000F0B585B00FF26C0C9CE8E01001A8A0E845
:1023A000E0101CA52D6800950021002200230024C8
:1023B0000020194D696801F00C05F5B1042D02D01B
:1023C000082D19D101E0154819E001ADC1F383468C
:1023D000AC5D01F4803555B10F4D6D68C5F34045D6
:1023E0001DF805200D4D6543B5FBF2F302E00C4DE1
:1023F00004FB05F3184602E000BF084800BF00BF19
:1024000005B0F0BD02030405060708090A0B0C0D10
:102410000E0F1010010200000010024000127A009E
:1024200000093D00F8B504460CB90120F8BD20783C
:1024300000F00100002878D0F848406800F00C0057
:1024400004280CD0F548406800F00C00082811D191
:10245000F248406800F48030B0F5803F0AD1EF4880
:10246000006800F4003000285FD0606800285CD16C
:102470000120DBE700BF6068B0F5803F06D1E74888
:10248000006840F48030E549086028E0606858B989
:10249000E248006820F48030E0490860084600689F
:1024A00020F4802008601AE06068B0F5A02F0BD1FE
:1024B000DA48006840F48020D8490860084600687F
:1024C00040F4803008600AE0D448006820F480308E
:1024D000D24908600846006820F48020086000BFE8
:1024E000606888B1FFF7B8FD054606E0FFF7B4FD68
:1024F000401B642801D9032098E7C848006800F40D
:1025000000300028F2D010E0FFF7A6FD054606E0F7
:10251000FFF7A2FD401B642801D9032086E7BF48CE
:10252000006800F400300028F2D1207800F00200AA
:10253000022857D1B948406800F00C0050B1B748A4
:10254000406800F00C00082818D1B448406800F436
:10255000803098B9B148006800F0020020B12069CD
:10256000012801D0012061E7AC48006820F0F800A4
:10257000616940EAC100A949086033E02069E8B117
:102580000120A7490860FFF767FD054606E0FFF751
:1025900063FD401B022801D9032047E79F480068DC
:1025A00000F002000028F2D09C48006820F0F800FB
:1025B000616940EAC1009949086013E00020984928
:1025C0000860FFF749FD054606E0FFF745FD401BA3
:1025D000022801D9032029E79048006800F0020092
:1025E0000028F2D1207800F0080008282DD1A06939
:1025F000B8B101208B490860FFF72EFD054606E0C3
:10260000FFF72AFD401B022801D903200EE783486B
:10261000406A00F002000028F2D0012001F042FBE5
:1026200013E000207F490860FFF716FD054606E02D
:10263000FFF712FD401B022801D90320F6E6774878
:10264000406A00F002000028F2D1207800F0040077
:10265000042873D100277148C06900F0805070B918
:1026600000BF6E48C06940F080506C49C8610846A0
:10267000C06900F08050009000BF00BF01276A4889
:10268000006800F48070B0B96748006840F480705A
:1026900065490860FFF7E0FC054606E0FFF7DCFC53
:1026A000401B642801D90320C0E65F48006800F49D
:1026B00080700028F2D000BFE068012806D157489A
:1026C000006A40F001005549086227E0E06858B907
:1026D0005248006A20F00100504908620846006A2A
:1026E00020F00400086219E0E06805280BD14B488F
:1026F000006A40F00400494908620846006A40F058
:10270000010008620AE04548006A20F001004349E0
:1027100008620846006A20F00400086200BFE06812
:10272000A0B1FFF799FC054609E0FFF795FC401BB7
:1027300041F28831884202D9032077E622E0374807
:10274000006A00F002000028EFD012E0FFF784FCDE
:10275000054608E0FFF780FC401B41F288318842C3
:1027600001D9032062E62D48006A00F0020000282B
:10277000F0D1012F05D12948C06920F080502749A8
:10278000C86100BFE069C8B32448406800F00C008D
:10279000082860D0E069022848D100202049086656
:1027A000FFF75AFC054606E0FFF756FC401B0228DF
:1027B00001D903203AE61948006800F000700028AB
:1027C000F2D1206AB0F5803F07D11448406820F468
:1027D0000030A168084311494860D4E90801084362
:1027E0000E49496821F4741108430C4948600120DE
:1027F0000B490866FFF730FC054607E03DE0FFF7B0
:102800002BFC401B022801D903200FE60348006877
:1028100000F000700028F2D02FE00000001002400D
:1028200000004242800442420070004000201449EF
:102830000866FFF711FC054606E0FFF70DFC401B9C
:10284000022801D90320F1E50E48006800F000706D
:102850000028F2D111E0E069012800D1E6E509483D
:10286000466806F48031206A814204D106F4701172
:10287000606A814201D00120D8E50020D6E5000041
:10288000000042420010024010B50246506E800F18
:102890000870506EC0F383604870506EC0F30160E2
:1028A0008870506E000CC870B2F86400000A08719D
:1028B00092F864004871906E000DC880906EC0F36D
:1028C000034008726820805AC0F3C0304872682004
:1028D000805AC0F3803088726820805AC0F340303C
:1028E000C8726820805AC0F3003008730020487313
:1028F000506C002836D16820805A8005030DD06EB8
:1029000043EA90700861D06EC0F3C2600875D06E63
:10291000C0F302604875D06EC0F342508875D06E27
:10292000C0F38240C875D06EC0F3C2300876086923
:10293000401C50650B7E506D03F007039B1C012467
:102940009C4060435065087A00F00F0301209840D6
:102950009065D2E915035B0A5843D0654FF40073C4
:10296000136621E0506C012813D16820805C80063A
:10297000830AD06E43EA104008610869401C830254
:102980005365536DD3654FF400739365936D136670
:102990000AE02E4813689863906B40F08050906373
:1029A000012082F8340010BD6C20805AC0F38030C2
:1029B00001F8190F6C20805AC0F3C61048706C20C3
:1029C000805C00F07F008870106FC00FC870106FBF
:1029D000C0F341700871106FC0F382604871106FCE
:1029E000C0F383508871106FC0F34050C87100204D
:1029F0000872106FC0F3004048727020805AC0F314
:102A0000C03088727020805AC0F38030C872702045
:102A1000805AC0F3403008737020805AC0F30030F1
:102A200048737020805AC0F3812088737020805AC8
:102A3000C0F30120C8737020805CC0F346000874A6
:102A40000120487419390020ADE70000FF0540005F
:102A5000F8B50446002000906946204601F006FEC5
:102A6000054615B1A06B2843A0630098C0F3432628
:102A70003046F8BD10B504460CB9012010BD94F8DD
:102A8000340020B900202077204600F053F80320BE
:102A900084F83400204600F00BF808B10120EDE77F
:102AA0000020A0632063012084F834000020E5E7C3
:102AB00070B58AB0044600200490059006900790F7
:102AC00008907620099007A807C88DE807002068BD
:102AD00004A90EC901F01FF9064616B101200AB07B
:102AE00070BD002012490860206801F02EF9012015
:102AF0000F49A039C1F8A000204601F051FD05465C
:102B00003DB1012084F83400A06B2843A06301206C
:102B1000E5E7204601F0C2FC05463DB1012084F8FE
:102B20003400A06B2843A0630120D8E70020D6E73B
:102B3000A000304210B586B004464F492068884254
:102B40007ED100BF4D48406940F480604B494861E8
:102B50000846406900F48060019000BF00BF00BFDC
:102B600000BF0846806940F010008861084680690F
:102B700000F01000019000BF00BF00BF00BF00BF09
:102B80000846806940F0100088610846806900F0BE
:102B90001000019000BF00BF00BF00BF00BF08468B
:102BA000806940F0100088610846806900F01000DC
:102BB000019000BF00BF00BF00BF00BF0846806992
:102BC00040F0100088610846806900F01000019014
:102BD00000BF00BF00BF00BF00BF0846806940F0D3
:102BE000100088610846806900F01000019000BF65
:102BF00000BF00BF00BF00BF0846806940F0200052
:102C000088610846806900F02000019000BF00BF85
:102C100000BF881502900220039001200490032039
:102C2000059002A91648FFF75FF84FF40070029074
:102C300002A91348FFF758F84FF48060029000E0B3
:102C400018E002A90E48FFF74FF84FF40060029019
:102C500002A90B48FFF748F84FF48050029002A9F0
:102C60000748FFF741F80420029002A90548FFF742
:102C70003BF800BF06B010BD0080014000100240CC
:102C800000100140001401402DE9FF4F89B00446B7
:102C90008B469946DDF858A0FFF7DEF902900B98B5
:102CA00000905D46BBF1000F07D1A06B40F00060C3
:102CB000A06301200DB0BDE8F08F94F83400012826
:102CC0007ED10020A063009800EB0901E06D8142F5
:102CD00005D9A06B40F00070A0630120EAE7032053
:102CE00084F8340000202168C862606C012802D09A
:102CF0000098400200904FF40071206801F086F8BF
:102D00008046B8F1000F0AD08E4821688863A06B16
:102D100040EA0800A063012084F83400CAE74FF0BD
:102D2000FF3003904FEA4920049090200590022044
:102D30000690002007900120089003A9206800F069
:102D4000C5FFB9F1010F07D902202063206800995F
:102D500001F0A8F8804606E0012020632068009971
:102D600001F0BCF88046B8F1000F0DD0754821681D
:102D70008863A06B40EA0800A063012084F8340057
:102D800000202063012095E7049E3AE02068406B14
:102D900000F40040F0B1EEB10020019017E020688F
:102DA00000F0DCFF07462F706D1C761E380A287075
:102DB0006D1C761E380C28706D1C761E380E00E0D7
:102DC000BAE028706D1C761E0198401C0190019895
:102DD0000828E4D3FFF740F90299401A504502D27F
:102DE000BAF1000F0DD1574821688863A06B40F0FD
:102DF0000040A063012084F83400002020630320F9
:102E000058E72068406B40F22A3108400028BDD0C6
:102E10002068406B00F48070D0B1B9F1010F17D970
:102E2000606C032814D0206801F0FCF88046B8F1EB
:102E3000000F0DD0434821688863A06B40EA08006A
:102E4000A063012084F8340000202063012031E7D2
:102E50002068406B00F0080068B13A482168886338
:102E6000A06B40F00800A063012084F8340000202B
:102E7000206301201EE72068406B00F0020068B16B
:102E8000304821688863A06B40F00200A0630120F5
:102E900084F834000020206301200BE72068406B99
:102EA00000F0200068B1274821688863A06B40F0DB
:102EB0002000A063012084F834000020206301205A
:102EC000F8E629E0206800F049FF07462F706D1CE6
:102ED000761E380A28706D1C761E380C28706D1C02
:102EE000761E380E28706D1C761EFFF7B5F8029915
:102EF000401A504502D2BAF1000F0DD11148216895
:102F00008863A06B40F00040A063012084F8340087
:102F1000002020630120CDE62068406B00F4001003
:102F200008B1002ECED140F23A50216888630120CA
:102F300084F834000020BDE6A06B40F00050A06390
:102F40000120B7E6FF0540002DE9F04F89B00446A7
:102F5000894693469846FFF77FF80290DA464E4638
:102F6000B9F1000F07D1A06B40F00060A063012011
:102F700009B0BDE8F08F94F8340001287ED100201C
:102F8000A0630AEB0801E06D814205D9A06B40F017
:102F90000070A0630120EBE7032084F834000020D8
:102FA0002168C862606C012801D04FEA4A2A4FF4B8
:102FB0000071206800F02AFF05464DB1764821686F
:102FC0008863A06B2843A063012084F83400CFE716
:102FD0004FF0FF3003904FEA482004909020059076
:102FE0000020069007900120089003A9206800F0B7
:102FF0006DFEB8F1010F07D92020206351462068EB
:1030000001F02EF8054606E01020206351462068A6
:1030100001F042F8054665B15F4821688863A06BFE
:103020002843A063012084F834000020206301209D
:103030009EE7049F43E02068406B00F4804040B36B
:103040003FB30020019021E030780090761C7F1E75
:103050003078009941EA00200090761C7F1E30787D
:10306000009941EA00400090761C7F1E307800995C
:1030700041EA00600090761C7F1E00E085E0694612
:10308000206800F083FE0198401C019001980828F8
:10309000DAD3FEF7E1FF0299411A1298814201D278
:1030A000129860B93C4821688863A06B2843A063EC
:1030B000012084F8340000202063032058E72068B2
:1030C000406B40F21A3108400028B4D02068406BB1
:1030D00000F48070B8B1B8F1010F14D9606C032806
:1030E00011D0206800F09EFF054665B12A4821688E
:1030F0008863A06B2843A063012084F8340000207B
:103100002063012034E72068406B00F0080068B1BC
:10311000214821688863A06B40F00800A06301206B
:1031200084F8340000202063012021E72068406BF0
:1031300000F0020068B1184821688863A06B40F075
:103140000200A063012084F83400002020630120E5
:103150000EE72068406B00F0100068B10E4821684F
:103160008863A06B40F01000A063012084F8340055
:10317000002020630120FBE640F23A50216888637A
:10318000012084F834000020F2E6A06B40F00050EB
:10319000A0630120ECE60000FF05400010B50446E6
:1031A0000CB9012010BD606A38B96068B0F5827F43
:1031B00000D105E00021E16102E0002121616161AF
:1031C000A06AB0F5005F00D100BF94F8510028B9A3
:1031D000002084F85000204600F04AF8022084F8CD
:1031E00051002068006820F0400021680860A08835
:1031F00000F48270218901F404410843A18901F49B
:1032000000610843217C01F002010843217D01F0A7
:1032100001010843218B01F400710843217F01F073
:10322000380108432021095D01F080010843218D08
:1032300001F400510843216808600421A06901EAF3
:10324000104021684860A06AB0F5005F03D1A08DEE
:1032500080B2216808612068C06920F4006021689C
:10326000C86100206065012084F85100002099E7C2
:1032700010B586B0044627492068884248D100BF6F
:1032800000BF2548806940F008002349886108464E
:10329000806900F00800019000BF00BF00BF00BFC0
:1032A00000BF0846806940F00800886108468069D0
:1032B00000F00800019000BF00BF00BF00BF00BFCA
:1032C0000846806940F0080088610846806900F07F
:1032D0000800019000BF00BF00BF4FF400500290F3
:1032E00002200390012004900320059002A90B48BE
:1032F000FEF7FAFC4FF48040029002A90748FEF75F
:10330000F3FC4FF40040029002A90448FEF7ECFCE5
:1033100006B010BD0038004000100240000C014013
:103320002DE9FF5F0446884691461D460E9E01200A
:1033300002900020019000BF94F85000012803D1B2
:10334000022004B0BDE8F09F012084F8500000BFC7
:10335000FEF782FE074694F851B060680390AA46D3
:10336000BBF1010F0BD00398B0F5827F04D1A068A8
:1033700010B9BBF1040F02D0022001903DE1B8F179
:10338000000F03D0B9F1000F00D015B90120019052
:1033900033E194F85100042802D0052084F851004C
:1033A00000206065C4F83890E587A587C4F83080B0
:1033B000E586A58620646064A06AB0F5005F0DD143
:1033C00000BF2068006820F4005021680860206871
:1033D000006840F400502168086000BF2068006861
:1033E00000F04000402805D02068006840F0400010
:1033F00021680860E068B0F5006F56D1606810B1D0
:10340000BAF1010F09D1206B00882168C860206BD8
:10341000801C2063E08E401EE0863FE020688068CC
:1034200000F0020002281CD1E08ED0B102980128E1
:1034300017D1206B00882168C860206B801C206336
:10344000E08E401EE08600200290E08E48B9A06A1F
:10345000B0F5005F05D12068006840F48050216815
:1034600008602068806800F0010068B1E08F58B102
:103470002068C068A16B0880A06B801CA063E08FEF
:10348000401EE08701200290FEF7E6FDC01BB0421F
:1034900004D3701C10B103200190AEE0E08E002830
:1034A000BCD1E08F0028B9D156E0606810B1BAF104
:1034B000010F09D1206B007821680873206B401C34
:1034C0002063E08E401EE08640E02068806800F0C7
:1034D000020002281CD1E08ED0B10298012817D139
:1034E000206B007821680873206B401C2063E08EFD
:1034F000401EE08600200290E08E48B9A06AB0F538
:10350000005F05D12068006840F4805021680860A1
:103510002068806800F0010068B1E08F58B1206831
:10352000C068A16B0870A06B401CA063E08F401EB8
:10353000E08701200290FEF78FFDC01BB04201D34F
:10354000701C00B916B90320019056E0E08E0028E7
:10355000BBD1E08F0028B8D1A06AB0F5005F10D1D0
:103560003346012211462046009701F0AFF830B1F2
:10357000606D40F002006065032001903DE020682E
:10358000C06820688068C0F30010E8B1204601F0F0
:1035900099F8012814D1606D40F00200606500BF09
:1035A0002068006820F400502168086020680068E6
:1035B00040F400502168086000BF0120019003E042
:1035C0004FF6EF70216888603A463146204601F098
:1035D00065F820B101200190202060650DE0A06811
:1035E00050B900BF002000902068C068009020689B
:1035F0008068009000BF00BF00BF012084F8510028
:1036000000BF002084F8500000BF019899E670B513
:1036100004460E4615461CB1A069B0F5807F01D165
:10362000012070BD94F8410028B9002084F84000C2
:10363000204600F01FF804F108012068FEF70EFA9A
:103640003146A2682068FEF745FA2946236BD4E983
:103650000102FEF7E1F9A168206850F8210040F06E
:103660000100A268216841F82200012084F841008D
:103670000020D6E710B586B0044600BF1E4840695A
:1036800040F480701C4948610846406900F480702D
:10369000019000BF00BF00BF0846806940F02000D5
:1036A00088610846806900F02000019000BF00BFDB
:1036B00000BF0846806940F0400088610846806984
:1036C00000F04000019000BF00BF4CF20370029078
:1036D00002200390012004900320059002A90748CE
:1036E000FEF702FB4FF68070029002A90448FEF735
:1036F000FBFA06B010BD00000010024000140140AB
:1037000000180140042808D14FF0E021096941F078
:1037100004014FF0E022116107E04FF0E021096958
:1037200021F004014FF0E0221161704770B50446AA
:103730002546681EB0F1807F01D301200FE0681E8E
:103740004FF0E02148610F214FF0FF3001F096F972
:1037500000204FF0E021886107200861002070BD43
:1037600070477047704710B5044620680069C0F381
:103770004000D8B12068C068C0F34000B0B16FF01D
:10378000020021680861012020772068806900F02C
:10379000030018B12046FFF7E5FF05E0204600F0E2
:1037A000ADF8204600F0ABF80020207720680069D3
:1037B000C0F38000D8B12068C068C0F38000B0B109
:1037C0006FF004002168086102202077206880697A
:1037D00000F4407018B12046FFF7C4FF05E0204612
:1037E00000F08CF8204600F08AF80020207720684E
:1037F0000069C0F3C000D8B12068C068C0F3C00041
:10380000B0B16FF0080021680861042020772068BB
:10381000C06900F0030018B12046FFF7A3FF05E0E0
:10382000204600F06BF8204600F069F80020207771
:1038300020680069C0F30010D8B12068C068C0F3E8
:103840000010B0B16FF010002168086108202077E7
:103850002068C06900F4407018B12046FFF782FF6D
:1038600005E0204600F04AF8204600F048F8002025
:1038700020772068006900F0010058B12068C06816
:1038800000F0010030B16FF00100216808612046AE
:1038900000F036F820680069C0F3C01058B1206805
:1038A000C068C0F3C01030B16FF0800021680861BB
:1038B0002046FFF755FF20680069C0F3801058B11B
:1038C0002068C068C0F3801030B16FF040002168FC
:1038D0000861204600F024F820680069C0F3401019
:1038E00058B12068C068C0F3401030B16FF02000BC
:1038F000216808612046FFF734FF10BD704770470C
:1039000010B504460448844205D100BF2021034875
:10391000FEF792FB00BF10BDCC0400200018014050
:10392000704770472DE9F047044620680568206815
:10393000C668206847694FF00008C14605F00F08C7
:10394000B8F1000F0AD105F0200038B106F02000D0
:1039500020B1204600F064FFBDE8F087B8F1000F09
:1039600071D007F0010018B906F4907000286AD0F1
:1039700005F0010030B106F4807018B1E06B40F042
:103980000100E06305F0040030B107F0010018B158
:10399000E06B40F00200E06305F0020030B107F098
:1039A000010018B1E06B40F00400E06305F008008E
:1039B00048B106F0200010B907F0010018B1E06B23
:1039C00040F00800E063E06B68B305F0200028B128
:1039D00006F0200010B1204600F022FF2068406968
:1039E000C0F38019E06B00F0080010B9B9F1000FC6
:1039F00022D0204600F0F4FE2068406900F040002C
:103A0000B0B12068406920F0400021684861606BD7
:103A100050B11848616B4863606BFEF77DF810B1D8
:103A2000606B416B88470CE02046FFF77AFF08E0A7
:103A30002046FFF776FF04E02046FFF772FF0020E4
:103A4000E06389E7FFE705F0800030B106F0800011
:103A500018B1204600F0B2FF7EE705F0400030B11B
:103A600006F0400018B1204600F0CAFE74E700BF1F
:103A700072E70000CD47000810B504460CB90120DC
:103A800010BDA06900B100E000BF94F8390028B96A
:103A9000002084F83800204600F028F8242084F81C
:103AA00039002068C06820F400502168C8602046B2
:103AB00000F006FF2068006920F49040216808614A
:103AC0002068406920F02A00216848612068C068A9
:103AD00040F400502168C8600020E063202084F892
:103AE000390084F83A000020CAE7000010B586B01B
:103AF00004462849206888424AD100BF00BF2648B2
:103B0000806940F00400244988610846806900F01B
:103B10000400019000BF00BF00BF00BF00BF084607
:103B2000806940F0040088610846806900F0040064
:103B3000019000BF00BF00BF00BF00BF0846806902
:103B400040F4804088610846806900F4804001901C
:103B500000BF00BF00BF4815029002200390012063
:103B600004900320059002A90C48FEF7BDF84FF41D
:103B7000806002900020039002A90848FEF7B4F884
:103B80002520FEF7B6FA032211462520FEF7C1FADA
:103B900006B010BD0038014000100240000801408E
:103BA00010B5034693F83A0020282FD101B10AB985
:103BB000012010BD00BF93F83800012801D1022078
:103BC000F7E7012083F8380000BF99629A85DA850B
:103BD0000020D863222083F83A0000BF002083F839
:103BE000380000BF1868C06840F480701C68E0604E
:103BF0001868406940F001001C6860611868C0687E
:103C000040F020001C68E0600020D2E70220D0E7EE
:103C10001D4A0168914236D11C49098801F40041CE
:103C200089BB1A49098801F4804171B118490978A2
:103C30000A2903D00021154A118024E0134909887C
:103C400041F40041114A11801DE0114909780D2904
:103C500006D10E49098841F480410C4A118012E0D6
:103C60000B490978094A1288C2F30D02094B99548D
:103C700006490988491C054A118011460988C72947
:103C800001DD00211180704700380140180000203C
:103C90001A00002024030020704700BFFEE700BF89
:103CA000FEE7704708B508490968C9084FF47A72F9
:103CB000B1FBF2F14143009100BF00BF00994A1EE1
:103CC00000920029F9D108BD0000002010B502467D
:103CD00000230868506248689062D1E902042043DA
:103CE0000C6920434C6920430343D06A20F0F7005D
:103CF0001843D062002010BD01460869C0B2704769
:103D00000146086800F003007047024602F1140003
:103D10004318186870470FB410B504460021DDE958
:103D200003021043059A1043069A1043079A104362
:103D3000089A10430143606847F6FF6290430843C6
:103D40006060002010BC5DF814FB10B50446032031
:103D500020600220FDF7B4FF002010BD0146D1F81D
:103D60008000704710B50246002308689060D1E9D2
:103D700001042043CC6820430C6920430343D068EE
:103D80006FF30B001843D060002010BD0246086896
:103D9000C2F880000020704770B586B005460C461A
:103DA00001943720029040200390002004904FF4AB
:103DB0008060059001A92846FFF7D4FF41F28832C0
:103DC0003721284600F0A4F90646304606B070BDFB
:103DD00070B586B005460C460B482043019029205B
:103DE000029040200390002004904FF480600590E2
:103DF00001A92846FFF7B6FF284600F091FA0646CB
:103E0000304606B070BD00000000108070B586B06E
:103E100005460C460194102002904020039000209B
:103E200004904FF48060059001A92846FFF79AFF9F
:103E300041F288321021284600F06AF906463046E1
:103E400006B070BD30B585B00446002000900190EA
:103E5000029003904FF48060049069462046FFF77B
:103E600081FF204600F034F90546284605B030BDF4
:103E700030B585B004464FF4D5700090082001900D
:103E800040200290002003904FF480600490694627
:103E90002046FFF767FF204600F0CAFA054628468D
:103EA00005B030BD70B586B005460C4601941220B1
:103EB000029040200390002004904FF48060059011
:103EC00001A92846FFF74EFF41F288321221284609
:103ED00000F01EF90646304606B070BD70B586B0DB
:103EE00005460C46019411200290402003900020CA
:103EF00004904FF48060059001A92846FFF732FF37
:103F000041F288321121284600F002F90646304677
:103F100006B070BDF0B585B0064614461D46009447
:103F20000720019040200290002003904FF4806011
:103F3000049069463046FFF715FF41F288320721A9
:103F4000304600F0E5F80746384605B0F0BD30B51C
:103F500085B004460020009002200190C02002900D
:103F6000002003904FF48060049069462046FFF7DC
:103F7000F9FE204600F0A2F90546284605B030BDFE
:103F800070B586B005460C46019409200290C02009
:103F90000390002004904FF48060059001A928460A
:103FA000FFF7E0FE284600F089F90646304606B0E5
:103FB00070BD70B586B005460C4601940D20029088
:103FC00040200390002004904FF48060059001A9E8
:103FD0002846FFF7C7FE41F288320D21284600F03F
:103FE00097F80646304606B070BD70B586B00546F7
:103FF0000C460020019003200290402003900020F6
:1040000004904FF48060059001A92846FFF7AAFEAE
:1040100022460321284600F0AFF90646304606B096
:1040200070BD000030B585B00446002000900C2023
:10403000019040200290002003904FF48060049093
:1040400069462046FFF78EFE044A0C21204600F008
:104050005FF80546284605B030BD000000E1F505D3
:1040600070B586B005460C46019419200290402098
:104070000390002004904FF48060059001A9284629
:10408000FFF770FE41F288321921284600F040F80F
:104090000646304606B070BD70B586B005460C4683
:1040A00001941820029040200390002004904FF4C7
:1040B0008060059001A92846FFF754FE41F288323E
:1040C0001821284600F024F80646304606B070BD98
:1040D00001460E480068C0084FF47A73B0FBF3F055
:1040E00041F2883300FB03F200BF101EA2F101026F
:1040F00002D14FF000407047486B00F0800000286C
:10410000F3D0C52088630020F5E700000000002000
:104110002DE9F04305460F46904666480068C00802
:104120004FF47A71B0FBF1F000FB08F900BFB9F170
:104130000000A9F1010903D14FF00040BDE8F08370
:104140006E6B06F045000028F1D006F400600028F0
:10415000EDD1686B00F0040010B10420A863EDE716
:10416000686B00F0010010B10120A863E6E7C520EC
:10417000A8632846FFF7C0FDB84201D00120DDE763
:1041800000212846FFF7C1FD04464B48204008B9EE
:104190000020D3E704F00040B0F1004F02D14FF00F
:1041A0000070CBE704F08040B0F1804F01D1402097
:1041B000C4E704F00050B0F1005F01D18020BDE7FA
:1041C00004F08050B0F1805F02D14FF48070B5E709
:1041D00004F00060B0F1006F02D14FF40070ADE761
:1041E00004F08060B0F1806F02D14FF48060A5E7E9
:1041F00004F08070B0F1807F02D14FF400609DE741
:1042000004F40000B0F5000F02D14FF4805095E7A0
:1042100004F48000B0F5800F02D14FF400508DE718
:1042200004F40010B0F5001F02D14FF4804085E780
:1042300004F48010B0F5801F02D14FF400407DE7F8
:1042400004F48020B0F5802F02D14FF4003075E7E0
:1042500004F40030B0F5003F02D14FF480206DE748
:1042600004F48030B0F5803F02D14FF4002065E7C0
:1042700004F40040B0F5004F02D14FF480105DE728
:1042800004F48040B0F5804F02D14FF4001055E7A0
:1042900004F40050B0F5005F02D14FF480004DE708
:1042A00004F00800082801D1000547E74FF48030EA
:1042B00044E700000000002008E0FFFD10B50146C3
:1042C00016480068C0084FF47A74B0FBF4F041F26D
:1042D000883400FB04F300BF181EA3F1010302D1D0
:1042E0004FF0004010BD4A6B02F045000028F3D0AB
:1042F00002F400600028EFD1486B00F0040010B118
:1043000004208863EEE7486B00F0010010B1012043
:104310008863E7E7C52088630020E3E7000000200A
:1043200010B5014613480068C0084FF47A74B0FB1A
:10433000F4F041F2883400FB04F300BF181EA3F12F
:10434000010302D14FF0004010BD4A6B02F045005E
:104350000028F3D002F400600028EFD1486B00F091
:10436000040010B104208863EEE7C52088630020B4
:10437000EAE70000000000202DE9F04304460F4664
:1043800090462A480068C0084FF47A71B0FBF1F0FB
:1043900041F2883100FB01F900BFB9F10000A9F139
:1043A000010903D14FF00040BDE8F083666B06F0D1
:1043B00045000028F1D006F400600028EDD1606BC4
:1043C00000F0040010B10420A063EDE7606B00F082
:1043D000010010B10120A063E6E72046FFF78CFC46
:1043E000B84201D00120DFE7C520A06300212046AC
:1043F000FFF78BFC054605F4604020B9280CA8F8AF
:1044000000000020D0E705F48040B0F5804F02D1D5
:104410004FF40050C8E705F40040B0F5004F02D15A
:104420004FF48050C0E74FF48030BDE7000000201B
:1044300010B5014618480068C0084FF47A74B0FB04
:10444000F4F041F2883400FB04F300BF181EA3F11E
:10445000010302D14FF0004010BD4A6B02F045004D
:104460000028F3D002F400600028EFD1486B00F080
:10447000040010B104208863EEE7486B00F00100EF
:1044800010B101208863E7E7486B00F0400008B1F5
:10449000402088630020DFE70000002030B58FB0A7
:1044A0000446012003902068FFF72AFC18B94FF05A
:1044B00080600FB030BD606C03281BD02068FFF710
:1044C00046FD05460DB12846F3E700212068FFF7B9
:1044D0001CFC606704212068FFF717FCA067082117
:1044E0002068FFF712FCE0670C212068FFF70DFC45
:1044F00080210851606C032807D003A92068FFF7CA
:1045000074FD05460DB12846D3E7606C032820D022
:10451000BDF80C1021655022125B11042068FFF7D2
:104520002FFD05460DB12846C3E700212068FFF79F
:10453000ECFB606604212068FFF7E7FBA06608211A
:104540002068FFF7E2FBE0660C212068FFF7DDFB47
:10455000206704212068FFF7D8FB010DE16404A95E
:104560002046FEF791F910B14FF08050A1E750209E
:10457000005B01040A4600232068FFF7CBFC0546D8
:104580000DB1284695E7D4E90412A069CDE90012DF
:10459000029094E80F00FFF7BEFB002089E70000BF
:1045A000F8B5044600200090002600272068FFF799
:1045B00049FC05460DB12846F8BD2068FFF758FCB8
:1045C000054645B10021A1642068FFF73BFC054684
:1045D0001DB12846F0E70121A164A06C012808D193
:1045E00000212068FFF7D8FB054615B14FF0805039
:1045F000E2E71DE000212068FFF7CEFB05460DB184
:104600002846D9E718492068FFF7E2FB054615B1AF
:104610004FF08050D0E700212068FFF776FB064678
:10462000012080EAD67080F001070098401C0090BD
:104630004FF6FF710098884201D2002FDAD04FF672
:10464000FF710098884202D34FF08070B4E706F003
:104650008040B0F1804F02D10120606401E0002071
:1046600060640020A8E70000000010C170B5044697
:104670000D4615B94FF0006070BD5022125B110459
:104680002068FFF796FC06460EB13046F4E700219D
:104690002068FFF73AFB28600020EDE7F8B50446F4
:1046A0000D4616462B46002280212046009600F03B
:1046B0000DF828B1606D40F0200060650320F8BD62
:1046C0000020FCE701460120704700002DE9F84F6B
:1046D00004460D4690461E46DDF82890FDF7BCFCCA
:1046E000A0EB0900371AFDF7B7FC82462C4800689A
:1046F000C0F3CB307843009045E0701C002842D0D6
:10470000FDF7AAFCA0EB0A00B84200D2A7BB2068C4
:10471000406820F0E000216848606068B0F5827F62
:104720000DD1A068B0F5004F03D0A068B0F5806F40
:1047300005D12068006820F0400021680860A06A68
:10474000B0F5005F0DD100BF2068006820F4005074
:10475000216808602068006840F400502168086003
:1047600000BF012084F8510000BF002084F85000F1
:1047700000BF0320BDE8F88FFFE7009800B90027CD
:104780000098401E0090206880682840A84201D10F
:10479000012000E000204045AFD10020EAE7000002
:1047A0000000002010B5FDF75DFC3AF05BF8012831
:1047B00001D039F021FE10BD7047000010B502484D
:1047C000FEF7D1FF10BD0000CC04002070B50546F7
:1047D0006C6A0020E085E0842046FFF7A2F870BDF7
:1047E0000168C96821F490710268D1600168496963
:1047F00021F0010102685161202180F83A107047D0
:1048000010B504462068C06820F040002168C860E8
:10481000202084F839002046FFF73EFA002010BD22
:1048200070B5044694F83A00222847D1A068B0F544
:10483000805F0CD1206950B90025A66A20684068C5
:10484000C0F308003080A06A801CA06215E0A56A51
:104850000026A068B0F5805F03D0A06828B9206961
:1048600018B920684068287004E02068406800F0AB
:104870007F002870A06A401CA062E08D401E80B2BC
:10488000E085C8B92068C06820F020002168C860B1
:104890002068C06820F480702168C8602068406982
:1048A00020F0010021684861202084F83A00204669
:1048B000FFF7AEF9002070BD0020FCE70220FAE708
:1048C00070B504462168096921F44051E26811433A
:1048D000226811612269A1681143626941EA0205F7
:1048E0002168C96841F20C62914329432268D16072
:1048F0002168496921F44071A2691143226851611C
:104900002D4A2168914202D1FDF732FD01E0FDF709
:104910001FFD00EBC00101EB001162689200B1FBCA
:10492000F2F100EBC00202EB001263689B00B2FBE5
:10493000F3F26423B2FBF3F202EBC20303EB0212C5
:10494000A1EB8201322202EB01116422B1FBF2F1F0
:1049500001F0F00100EBC00202EB001263689B0063
:10496000B2FBF3F26423B2FBF3F201EB021200EBB1
:10497000C00101EB001163689B00B1FBF3F100EB98
:10498000C00303EB00136668B600B3FBF6F36426BE
:10499000B3FBF6F303EBC30606EB0313A1EB8301B2
:1049A000322303EB01116423B1FBF3F101F00F019A
:1049B00011442268916070BD00380140014691F8B1
:1049C0003900212828D18868B0F5805F0BD10869AB
:1049D00048B90A6A1088C0F308000B685860086A72
:1049E000801C086205E00B6A581C086218780B6886
:1049F0005860C88C401E80B2C88458B90868C06826
:104A000020F080000B68D8600868C06840F0400063
:104A10000B68D860002070470220FCE710B50648FC
:104A2000FEF780FF00BF012204490348FFF7B8F8F2
:104A30000028F8D110BD0000EC0300201A0000206F
:104A400000BFFEE7490050EAC12018BF04204A0D0C
:104A500018BF40F0010040F2FF72B2EB515F08BF97
:104A600040F00200012808BF052070470248006896
:104A7000C0F30220704700000CED00E010B50028E4
:104A800004DB0A07130E054A135406E00A07140E46
:104A9000034A00F00F031B1FD45410BD00E400E0D4
:104AA00018ED00E070B50446002508E02168481CB8
:104AB00020600878303805EB850100EB410521685E
:104AC000087800F004F80028F0D1284670BD0146AF
:104AD000302903DB392901DC012070470020FCE785
:104AE00030380A2801D201207047002070470000AA
:104AF00010B54021074801F0E3FA002204210648DE
:104B00002FF09EFA0549086002F010FE00200449CB
:104B1000087010BD90D60020F97700089802002098
:104B20009402002030B50346B1F90040B2F90050BC
:104B3000AC4202DDB1F9004001E0B2F900401C8056
:104B4000B1F90240B2F90250AC4202DDB1F90240C3
:104B500001E0B2F902405C80B1F90440B2F90450BE
:104B6000AC4202DAB1F9044001E0B2F904409C80A1
:104B7000B1F90640B2F90650AC4202DAB1F906408A
:104B800001E0B2F90640DC800120B3F90040B3F93E
:104B90000450AC4205DCB3F90240B3F90650AC4214
:104BA00000DD002030BDF8B504460D46164600274E
:104BB000B4F90000B5F90010884212DBB4F9020024
:104BC000B5F9021088420CDBB4F90400B5F9041001
:104BD000884206DCB4F90600B5F90610884200DC0C
:104BE00001270FB90020F8BD0EB90120FBE720888E
:104BF000ADF800006088ADF80200324669462846EC
:104C000000F0A7F808B90020EDE7A088ADF8000093
:104C10006088ADF8020032466946284600F099F8EF
:104C200008B90020DFE72088ADF80000E088ADF883
:104C3000020032466946284600F08BF808B9002089
:104C4000D1E7A088ADF80000E088ADF80200324658
:104C50006946284600F07DF808B90020C3E7012026
:104C6000C1E70246B2F90000B1F90430984213DC02
:104C7000B2F90400B1F9003098420DDBB2F902003C
:104C8000B1F90630984207DCB2F90600B1F90230FA
:104C9000984201DB012070470020FCE7F8B504468C
:104CA0000D461646B4F90400B5F90010884211DB30
:104CB000B4F90600B5F9021088420BDBB4F9000024
:104CC000B5F90410884205DCB4F90200B5F9061004
:104CD000884201DD0120F8BD0EB90020FBE72088E5
:104CE000ADF800006088ADF80200324669462846FB
:104CF00000F02FF808B10020EDE7A088ADF8000023
:104D00006088ADF8020032466946284600F021F876
:104D100008B10020DFE72088ADF80000E088ADF89A
:104D2000020032466946284600F013F808B1002018
:104D3000D1E7A088ADF80000E088ADF80200324667
:104D40006946284600F005F808B10020C3E70120B5
:104D5000C1E72DE9FC5F05460E4614464FF0000AF8
:104D6000B6F90000B5F90010884213DBB6F900006F
:104D7000B5F9041088420DDCB6F90200B5F902104D
:104D8000884207DBB6F90200B5F90610884201DC5B
:104D90004FF0010ABAF1000F02D10020BDE8FC9FDC
:104DA000002C01DC0120F9E728461BF00EF88346B1
:104DB00000EBDB70471028461AF07FFF834600EBBC
:104DC000DB704FEA6008474501DA384600E04046AC
:104DD00081464C4500DD4C462888ADF80000288807
:104DE000204400B2ADF804006888ADF8020068887D
:104DF000204400B2ADF80600002231466846FFF7B5
:104E0000A8FF80B1BDF80400204400B2ADF8040052
:104E1000BDF80600204400B2ADF8060031466846F1
:104E20002BF092FCBAE7E888001B00B2ADF8020054
:104E3000E888ADF80600002231466846FFF789FF92
:104E400080B1BDF80400204400B2ADF80400BDF804
:104E50000200001B00B2ADF80200314668462BF09C
:104E600073FC9BE7A888001B00B2ADF80000A8887F
:104E7000ADF80400002231466846FFF76AFF80B1B2
:104E8000BDF80000001B00B2ADF80000BDF8020044
:104E9000001B00B2ADF80200314668462BF054FC0E
:104EA0007CE76888ADF802006888204400B2ADF85D
:104EB0000600002231466846FFF74BFF80B1BDF87F
:104EC0000000001B00B2ADF80000BDF80600204451
:104ED00000B2ADF80600314668462BF035FC5DE7C0
:104EE00001205BE710B5B1F90030B2F90040A342F0
:104EF00002DAB1F9003001E0B2F900300380B1F913
:104F00000230B2F90240A34202DAB1F9023001E004
:104F1000B2F902304380B1F90430B2F90440A3423F
:104F200002DDB1F9043001E0B2F904308380B1F957
:104F30000630B2F90640A34202DDB1F9063001E0C5
:104F4000B2F90630C38010BD2DE9FF4104462FF0B1
:104F500018F805460020039034B14749E06808601E
:104F600020462FF085F903E01DF08AFD42490860D4
:104F70004149096808692BF045FB3F4800684069D2
:104F800020B13D49096848692BF03CFB3A49096862
:104F9000C8692BF037FB38490968086A2BF032FBE7
:104FA00035480068006940B9002033490968A1F814
:104FB000500100BF00BFBDE8FF812BF0C5FE2BF004
:104FC0000BFE2D480068B0F8500100284BD02A484D
:104FD00000680068007CC0F34000E8B12648006823
:104FE0001DF0CCFD401E06B2234800681DF060FD98
:104FF000401E07B23B460022114601A800961AF057
:1050000029FF01A81C4909680968896B48601A488A
:10501000006807F09FFE00BF4FF4807116480068DB
:10502000303025F04CFD20211348006800F59870C1
:1050300025F045FD002010490968A1F850012846D7
:105040002EF092FF03900C4800680068406A50B14F
:105050000949096808680849096809684B6A0749E5
:105060000A680399984725F063FA00F03FF800F0CA
:1050700007F800BF9FE70000500100204C0100200E
:1050800010B5002416E0C4EBC4000C4951F8200010
:1050900030B1C4EBC401094A52F8210025F0FAFAF4
:1050A000C4EBC401054A02EB81001C2125F007FD79
:1050B000601CC4B2042CE6DB10BD00006CD70020DD
:1050C0000146094A10680BE042688A4202D0026831
:1050D0008A4204D1027E22F00102521C027640690B
:1050E0000028F1D170470000240100207047000023
:1050F00010B50421014800F0E3FF10BD84D6002064
:1051000010B51C21014800F0DBFF10BD9CD600202B
:105110002DE9FF4F8BB004469A46199DBAF1000F56
:1051200011D11898B0F5807F0DD1002020806080CB
:105130000C98401E00B2A0800D98401E00B2E08086
:105140000FB0BDE8F08FB5F9000040421899484310
:105150000121C1EB202000B22080B5F902004042BD
:10516000189948430121C1EB202000B26080B5F9B5
:1051700000100C98401A18994843022101EB202096
:1051800000B2A080B5F902100D98401A1899484352
:10519000022101EB202000B2E080BAF1000F14D10F
:1051A00020882988084400B22080608869880844E3
:1051B00000B26080A0882988084400B2A080E088FE
:1051C0006988084400B2E080BAE70A209AFBF0F050
:1051D0000A900A98401C09900A9800EB8000AAEBFC
:1051E000400B0A9800B22FF0C9F90890099800B254
:1051F0002FF0C4F907900A985A3000B22FF0BEF988
:10520000069009985A3000B22FF0B8F90590CBF10A
:105210000A0108984143079800FB0B100A2190FBF4
:10522000F1F6CBF10A0106984143059800FB0B10FB
:105230000A2190FBF1F776117F11B4F90080B4F9DF
:10524000029007FB08F006FB1900298801EBA0205B
:1052500000B2ADF8100006FB08F007FB09006988F2
:1052600001EBA02000B2ADF81200B4F90480B4F94B
:10527000029007FB08F006FB1900298801EBA0202B
:1052800000B2ADF80C0006FB08F007FB09006988C6
:1052900001EBA02000B2ADF80E00B4F90080B4F923
:1052A000069007FB08F006FB1900298801EBA020F7
:1052B00000B2ADF8080006FB08F007FB090069889A
:1052C00001EBA02000B2ADF80A00B4F90480B4F9F3
:1052D000069007FB08F006FB1900298801EBA020C7
:1052E00000B2ADF8040006FB08F007FB090069886E
:1052F00001EBA02000B2ADF80600BDF90800BDF931
:105300001010884202DABDF9080001E0BDF9100072
:10531000BDF90410BDF90C20914202DABDF9041068
:1053200001E0BDF90C1088420BDABDF90800BDF9A7
:105330001010884202DABDF908000DE0BDF9100036
:105340000AE0BDF90400BDF90C10884202DABDF98B
:10535000040001E0BDF90C002080BDF90800BDF992
:105360001010884202DDBDF9080001E0BDF910000F
:10537000BDF90410BDF90C20914202DDBDF9041005
:1053800001E0BDF90C1088420BDDBDF90800BDF944
:105390001010884202DDBDF908000DE0BDF91000D3
:1053A0000AE0BDF90400BDF90C10884202DDBDF928
:1053B000040001E0BDF90C00A080BDF90A00BDF9B0
:1053C0001210884202DABDF90A0001E0BDF91200AC
:1053D000BDF90610BDF90E20914202DABDF90610A2
:1053E00001E0BDF90E1088420BDABDF90A00BDF9E3
:1053F0001210884202DABDF90A000DE0BDF9120070
:105400000AE0BDF90600BDF90E10884202DABDF9C6
:10541000060001E0BDF90E006080BDF90A00BDF98B
:105420001210884202DDBDF90A0001E0BDF9120048
:10543000BDF90610BDF90E20914202DDBDF906103E
:1054400001E0BDF90E1088420BDDBDF90A00BDF97F
:105450001210884202DDBDF90A000DE0BDF912000C
:105460000AE0BDF90600BDF90E10884202DDBDF963
:10547000060001E0BDF90E00E08000BF60E62DE906
:10548000F74F86B0044620680590B4F908100798D5
:10549000A0EB0108B4F90A100898A0EB0109E08913
:1054A000B0F5807F13D1206B00FB08F0E16A01FBAF
:1054B0001901606A00EBA10BE06A00FB08F0216BA8
:1054C00001FB0901A06A00EBA10004902FE0A08974
:1054D00080B9A06B00FB08F04FEA6018A06B00FBDE
:1054E00009F04FEA6019606A00EB080BA06A4844B3
:1054F00004901CE0A06B00FB08F04FEA6018A06B62
:1055000000FB09F04FEA6019206B00FB08F0E16A2C
:1055100001FB1901606A00EBA12BE06A00FB08F0B7
:10552000216B01FB0901A06A00EBA12004904FEA66
:105530002B2604980712B4F90400B04203DC0020C3
:1055400009B0BDE8F08F002E01DA0020F8E7B4F9C9
:105550000600B84201DC0020F2E7002F01DA00204B
:10556000EEE73420005DC0F3800050B33420005DCE
:10557000C0F3400078B90225B4F9040078436843C9
:1055800006FB050A059800EB0A012A4604F11400FF
:1055900025F043FA2CE00325B4F90400784368436E
:1055A00006FB050A6A1E059800EB0A0104F11400C7
:1055B00025F033FA0AEB0500401E0599095CA17538
:1055C00016E04FF0000A0025208A03463AB231B2B5
:1055D000019004F1180021F0BBFE0290BDF8080014
:1055E000A0823AB231B204F1180021F011FEA07588
:1055F0003420005D00F00100B0B14FF47F40002185
:1056000000F47C4241EA5211C0F3C40211430191FB
:10561000BDF8042011460291A08ABDF80810884206
:1056200001D100208CE700BFE07C08B9012087E7AA
:105630000FFA8BF1A187049801B2E18731B24020C3
:10564000015339B242200153C4F844A084F84850B1
:10565000204600F003F80390039871E72DE9F04F1E
:105660008DB00446D4F8009094F83C000C9094F867
:105670003E000B900C9870280BDA4FF0FF35B4F910
:1056800040002844002800DA00250C988030C7B27A
:1056900013E00C9890280EDD0125B4F94000284451
:1056A000B4F90410884200DB00250C98C0F1FF001B
:1056B0008030C7B201E00025FF270B9870280CDA74
:1056C0004FF0FF36B4F942003044002800DA0026DB
:1056D0000B98803000F0FF0815E00B9890280FDD44
:1056E0000126B4F942003044B4F90610884200DBC8
:1056F00000260B98C0F1FF00803000F0FF0802E0A8
:1057000000264FF0FF08A08A0A90A07D0690002096
:105710000590049003903420005DC0F380000028C1
:105720005BD094F84800626C00FB052000EB090197
:10573000022209A825F071F9B4F9040094F8482070
:105740005043626C00FB062000EB0901022208A80E
:1057500025F063F9B4F9040094F848205043626CD2
:1057600000FB062294F8480000FB052000EB09012D
:10577000022207A825F051F93420005DC0F3400053
:1057800000287ED094F84800616C00FB05110844A5
:10579000401E19F800000590B4F9040094F8481070
:1057A0004843616C00FB061194F848000844401E11
:1057B00019F800000490B4F9040094F84810484324
:1057C000616C00FB061194F8480000FB05110844C9
:1057D000401E19F80000039053E0208A0090B4F9AD
:1057E00042204020005B284401B204F11800009BD5
:1057F00021F0AEFD0990208A00904220005B3044E9
:1058000002B2B4F9401004F11800009B21F0A0FD91
:105810000890208A00904220005B304402B2402071
:10582000005B284401B204F11800009B21F090FDB8
:1058300007903420005DC0F3400010B3B4F942205B
:105840004020005B284401B204F1180021F0E0FC84
:1058500005904220005B304402B2B4F9401004F1DC
:10586000180021F0D5FC04904220005B304402B2C5
:105870004020005B284401B204F1180021F0C8FC6C
:105880000390BA46BB463420005DC0F34000E0B34D
:1058900006987843C7F1FF0C059B03FB0C00C0F38F
:1058A000072104987843C7F1FF0C039B03FB0C000E
:1058B000C0F3072201FB08F0C8F1FF0302FB03005D
:1058C000030AA375022905DC022A03DC00200DB0BF
:1058D000BDE8F08F022901DC4FF00008022A01DC4C
:1058E0004FF0FF080698022801DC4FF0000A0598E7
:1058F000022801DC4FF0FF0A0498022801DC4FF077
:10590000000B0398022803DC00E002E04FF0FF0BDD
:1059100003E0BA46BB46FF21A175BAF1000F02D1E0
:10592000099802900BE0BAF1FF0F02D10A98029099
:1059300005E05246DDE909101CF010FB0290BBF1B6
:10594000000F02D1079801900BE0BBF1FF0F02D1CD
:105950000898019005E05A46DDE907101CF0FEFAB0
:105960000190B8F1000F03D1BDF80400A0820FE050
:10597000B8F1FF0F03D1BDF80800A08208E042464D
:10598000DDE901101CF0EAFA0090BDF80000A082E9
:1059900001209CE72DE9F05F0446B4F908000102FC
:1059A0006162B4F90A000102A162B4F90C000A2193
:1059B00090FBF1F56F1CB4F90C0005EB8501A0EB31
:1059C0004106684200B22EF0D9FD8046784200B20E
:1059D0002EF0D4FD8146C5F15A0000B22EF0CEFD66
:1059E0008246C7F15A0000B22EF0C8FD8346C6F1C8
:1059F0000A0000FB08F009FB06000A2190FBF1F108
:105A0000E162C6F10A0000FB0AF00BFB06000A2166
:105A100090FBF1F12163E06A4111E162206B4111D9
:105A20002163A07C21F0A3FD3421095D60F3000116
:105A300034200155A07C21F07DFD3421095D60F307
:105A4000410134200155A07C042805D0A07C052804
:105A500002D0A07C062807D13420005D20F004008D
:105A6000001D3421085505E03420005D20F00401BC
:105A70003420015521682162A06920F0E000A06176
:105A8000A17CA06961F30400A061A188A06961F311
:105A90009420A061E188A06961F35F50A061E08972
:105AA00000EBD071491001F5001191FBF0F2A263F7
:105AB000FF21A175208AA082BDE8F09F2DE9F74360
:105AC000054616460024134C2EF05BFA80463346FA
:105AD00029462046019A22F0F9F907465FB900BF2E
:105AE00000BF2C21204624F0EAFF4FF00040A062C6
:105AF0000020BDE8FE830020A062E06918B940469E
:105B00002EF032FAE061E06908B90120E061204638
:105B1000EFE70000C0D6002010B51421114800F0B6
:105B2000CFFA22F085F9044600BF1CB900BF00BFC0
:105B300000BFFEE700BF14B900BF00BF10BD0A4997
:105B4000204622F05DFA0949204622F05BFA084916
:105B5000204622F059FA0749204622F04FFA00BFAA
:105B6000ECE70000A8D600204D760208217B020851
:105B70003D7D02081576020870B504460D461021D9
:105B8000284624F09CFF20680078012804D1208A50
:105B90002880608A68800CE020680078022802D1A2
:105BA000E068686005E020680078042801D10A20D8
:105BB00068602068406820B12068294642689047A4
:105BC00001E000BF00BF70BD2DE9FE430446A66A98
:105BD000EEB9A18A208A084401B2A182E18A608AD2
:105BE000084401B2E18220460FF008FF06460EB9D4
:105BF000BDE8FE83204614F05FFB002209213046F9
:105C000020F00CFC6078C0F3400000B1F0E7208A7F
:105C100010B9608A002870D000200290019094F89A
:105C20003C0000F00F00032812D1304627F000F8A6
:105C30000746304626F084FF804603200090B4F9E2
:105C400010103B46424630460EF094F8029012E0A7
:105C5000304627F06FF80746304626F0E3FE8046D0
:105C60000C200090B4F9121043463A4630460EF02C
:105C700081F8019000BF304626F034FF054605F05C
:105C8000010028B9BDF90800002801DD00200290BC
:105C900005F0020028B9BDF90800002801DA00204B
:105CA000029005F0040028B9BDF90400002801DDC8
:105CB0000020019005F0080028B9BDF90400002873
:105CC00001DA0020019001AA02A9204632F0ACFDC1
:105CD0000023BDF90420BDF90810304629F008FF63
:105CE000A08ABDF80810084401B2A182E08ABDF87C
:105CF0000410084401B2E18200BF00BF78E72DE93B
:105D0000F84F0446D4F828B0BBF1000F01D1BDE82C
:105D1000F88F94F83C0000F00F0000B9F7E722F08C
:105D200057FC06463068477E4021584628F00AFC5A
:105D300010B9002161832183584626F0E7FF804691
:105D4000584626F0EDFF054694F83C0000F00F00A1
:105D50000C2843D1002121831DBBB4F91A00C7F1DF
:105D600064014843642190FBF1F001B2618358461D
:105D700026F058FE8146584626F0DCFF82460C206D
:105D80000090B4F91A104B46524658460DF0F2FFF7
:105D90006083B4F91A2000231946584629F0A8FE5A
:105DA00069E0204632F097FD0090002161836A4649
:105DB000204632F039FDBDF9003041F6FF72514204
:105DC00058460FF0C3FF8146BDF80000484402B2B8
:105DD00001230021584629F08BFE4CE094F83C004A
:105DE00000F00F00032846D100216183B8F1000FB5
:105DF00023D1B4F91800C7F164014843642190FB32
:105E0000F1F001B22183584626F09AFE81465846A9
:105E100026F00EFF824603200090B4F91810534676
:105E20004A4658460DF0A6FF2083B4F91810002307
:105E30001A46584629F05CFE1DE0204632F030FD3F
:105E400000900021218300226946204632F0ECFCBC
:105E5000BDF9003041F6FF72514258460FF0DCFEAA
:105E60008146BDF80000484401B201230022584693
:105E700029F03EFE00BF208B002860D1608B0028F7
:105E80005DD11DBB584626F055FF8146584626F089
:105E9000C9FD8246B9F1000F02DCBAF1000F14DD32
:105EA000B9F1000F06DA01234A460021584629F0CD
:105EB0001FFE0AE0BAF1000F07DA0123CAF1000061
:105EC00002B20021584629F013FE00BFB8F1000FBE
:105ED00023D1584626F034FE8146584626F0A8FEC7
:105EE0008246B9F1000F02DCBAF1000F14DDB9F1FE
:105EF000000F06DA012300224946584629F0F8FD32
:105F00000AE0BAF1000F07DA01230022CAF100000B
:105F100001B2584629F0ECFD00BF32460A2158462E
:105F200020F07CFA6078C0F3400000B1EFE694F80E
:105F30003C0020F00F0184F83C100021A16200BF5A
:105F4000E5E62DE9FF4104460F4614B91CF098FD23
:105F500004460CB9BDE8FF811FB90020A4F8500128
:105F6000F8E70020ADF80800ADF80A0020461CF064
:105F70009FFD401E00B2ADF80C0020461CF0FEFD57
:105F8000401E00B2ADF80E0002AA39466846FEF780
:105F9000C9FD064606B9DDE72068007CC0F3400075
:105FA00060B102982063039860630120A4F8500157
:105FB000606810B160682EF067F9CBE720688069EF
:105FC00018B1206869468269904700250BE004F10A
:105FD000300000EBC50100226846FEF7E4FD00B189
:105FE000B8E7681C85B2B4F85001A842EFDCB4F8F9
:105FF0005001202809DAB4F8502104F1300101EBF6
:10600000C200694619F0C9FD0BE00020A4F8500158
:10601000B4F8502104F1300101EBC20002A919F0DB
:10602000BCFDB4F85001401CA4F85001606810B1E8
:1060300060682EF029F900BF8CE770B50546284648
:1060400000F013F8044600260CE02146284600F034
:1060500024F806462146284600F086F8204624F01B
:1060600019FB3446002CF0D170BD014609B900205F
:1060700070474868FCE770B5064600243046FFF7D5
:10608000F4FF054605E0641C2946304600F005F89B
:106090000546002DF7D1204670BD02460B4610681C
:1060A000001D03441868704702460B4610680344FD
:1060B00018687047014609B9002070478868FCE7F6
:1060C000002242608260CA1C22F003010160704716
:1060D00070B50446216801F1080024F00DFA054668
:1060E000A5B100222946204630F0EEF82946204688
:1060F000626830F0DBF8606820B12A4620466168AB
:1061000030F0E2F86560A06800B9A560284670BD6F
:1061100070B50446216801F1080024F0EDF9054648
:10612000A5B100222946204630F0C0F82946204675
:10613000A26830F0C9F8A06820B12A462046A168BC
:1061400030F0B4F8A560606800B96560284670BD9D
:10615000014609B901207047486818B9886808B92C
:106160000120F8E70020F6E72DE9F04104460D464E
:106170000CB9BDE8F0812046FFF777FFA8420FD1A8
:1061800029462046FFF789FF6060606810B900204B
:10619000A0602FE000222046616830F095F829E0E9
:1061A0002046FFF787FFA8420FD129462046FFF778
:1061B0007BFFA060A06810B9002060601AE0002298
:1061C0002046A16830F072F814E029462046FFF717
:1061D0006BFF064629462046FFF75FFF07463A4613
:1061E0003146204630F062F832463946204630F0DB
:1061F0006BF800BF00BFBCE710B50446206880689C
:1062000018B120682146826890472068006828B14C
:106210002068006820602046FFF7EEFF10BD0146B1
:10622000886818B18868B0F9160070470020FCE74C
:106230002DE9F04F93B005468B4691469A461C9E39
:10624000688C20F00400001D6884A5F82090328935
:106250005946284627F0F2FE1290A5F820A0328970
:106260005946284627F0EAFE1190688C20F0040079
:106270006884DDE9111088420CD1DDE911108842F3
:1062800008D1BDF84800BDF84410884202D113B0CF
:10629000BDE8F08FA5F8209032895946284627F0AE
:1062A000CDFE1290A5F820A05946284612F0ABF872
:1062B00010903189109A1068129A2CF01EFB3089C8
:1062C000602833D147F6FF711298884202D01198A6
:1062D00088422BD1284628F0D8F80F9000EBD070D8
:1062E0004710284628F0D1F80F9000EBD0704FEA05
:1062F000600847F6FF711298884208D1781C08F1AF
:106300000101884200DA01E008F10100129047F62D
:10631000FF711198884208D1781C08F10101884268
:1063200000DA01E008F10100119000BF2448FFF7F6
:10633000CFFE044600BF1CB900BF00BF00BFFEE790
:1063400000BF04B9A3E71298E06011982061ACB3D4
:1063500025603089A080C4F808B0684618F0E8FDD0
:106360002146684618F097FE1649684618F063FE05
:106370001548029000BF1549684618F06AFEFF22D2
:106380000021684618F077FE3188684618F069FEEB
:106390007188684618F04AFEF068069000BF6846AB
:1063A000002190F83E2061F3000280F83E2000BFFB
:1063B00030690590684618F085FE00BF00BF66E7AB
:1063C000B4D6002019D30308C5D50308F5D40308B3
:1063D00010B514210148FFF773FE10BDB4D600209C
:1063E0002DE9FE4F04460F4690464FF00009002568
:1063F0006BE1E06800EBC5004068C0F3406000B1AD
:1064000062E1E16801EBC501496821F07F402AF0B3
:10641000F5F8064626EA070008B9012000E000204A
:10642000029026EA080008B9012000E0002001904F
:10643000DDE90101814272D0E06850F835A04FF0EB
:10644000000B6A4641F6100150462BF0EFFE10B1EA
:106450004FF0010BA9E06A4641F6110150462BF0BE
:10646000E5FE10B14FF0010B9FE06A4641F61201C4
:1064700050462BF0DBFE10B14FF0010B95E06A4661
:1064800041F6130150462BF0D1FE10B14FF0010B35
:106490008BE06A4641F6150150462BF0C7FE10B15D
:1064A0004FF0010B81E06A4641F6140150462BF093
:1064B000BDFE10B14FF0010B77E06A4641F2690171
:1064C00050462BF0B3FE10B14FF0010B6DE06A4661
:1064D00043F20C0150462BF0A9FE10B14FF0010B16
:1064E00063E06A4643F20D0150462BF09FFE10B167
:1064F0004FF0010B59E06A4641F2010150462BF082
:1065000095FE10B14FF0010B4FE06A4641F20401D5
:1065100050462BF08BFE18B14FF0010B45E0D2E056
:106520006A4641F2020150462BF080FE10B14FF056
:10653000010B3AE06A4641F2030150462BF076FE29
:1065400010B14FF0010B30E06A4641F205015046B0
:106550002BF06CFE10B14FF0010B26E06A4641F2C1
:10656000060150462BF062FE10B14FF0010B1CE00B
:106570006A4641F2320150462BF058FE10B14FF0FE
:10658000010B12E06A4643F60F0150462BF04EFE17
:1065900010B14FF0010B08E06A4643F60E01504679
:1065A0002BF044FE08B14FF0010BBBF1000F02D0FD
:1065B0000320BDE8FE8F6A4640F60A0150462BF0E4
:1065C00035FE10B14FF002097CE06A4640F60B013F
:1065D00050462BF02BFE10B14FF0020972E06A46D4
:1065E00043F60F0150462BF021FE10B14FF0020987
:1065F00068E06A4643F60E0150462BF017FE10B1D4
:106600004FF002095EE06A4640F63C0150462BF02E
:106610000DFE10B14FF0020954E06A4640F63D010C
:1066200050462BF003FE10B14FF002094AE06A46D3
:1066300040F63A0150462BF0F9FD10B14FF0020937
:1066400040E06A464FF4046150462BF0EFFD10B174
:106650004FF0020936E06A4640F6450150462BF0FD
:10666000E5FD10B14FF002092CE06A4640F6410109
:1066700050462BF0DBFD10B14FF0020922E06A46D4
:1066800040F6420150462BF0D1FD10B14FF0020907
:1066900018E06A4640F6430150462BF0C7FD10B1A2
:1066A0004FF002090EE06A4640F6490150462BF0D1
:1066B000BDFD10B14FF0020904E0B9F1000F01D1A6
:1066C0004FF0010900BF00BF6D1C608CC0F3C50016
:1066D000A8423FF68EAE48466BE7000001480068CE
:1066E000704700005001002070470146C1F30412BA
:1066F000072A00DD0722D0B27047000010B518212C
:106700000348FFF7DDFC01202DF0D6FC10BD000092
:1067100060D600202DE9F04105460F4616460DB91A
:10672000BDE8F0812846FAF755F8804639462846F4
:106730000A4A126890470746E8193146074A126824
:10674000904706463C4603E0A019285C2855641C87
:10675000A8EB0600A042F7D200BFE1E7E402002068
:106760002DE9F04106460C4617461D46294630469F
:10677000084A126890472060206830B1296888195B
:106780000021044A1268904700E000203860BDE80C
:10679000F0810000DC0200202DE9F04F87B00446B4
:1067A0000F4692469846DDE910560DB1002028802C
:1067B0001CB9002007B0BDE8F08F207808B9002090
:1067C000F8E70FB90020F5E74FF0000906F00200E6
:1067D00010B906F0040098B1002000E0401C215CD4
:1067E0000A2905D0215C0D2902D0215C0029F5D1B0
:1067F000215C01B1401C15B14FF0FF312980D9E770
:1068000006F0020008B141F6FF78002006900590DE
:1068100038E000200490059808B9012000E000202D
:1068200006A904AACDE90062CDE902100599601815
:106830004346524639462DF0D9FE83460498A8EBCC
:1068400000000FFA80F8049848440FFA80F9BBF171
:10685000000F00D11CE005985844059020780A28C4
:1068600002D020780D2800D112E00598205C0A287B
:1068700003D00598205C0D2803D10598401C059095
:1068800006E000BF0598205C10B1B8F1000FC0DC35
:1068900000BF059870B905A92046094A12689047BB
:1068A000834635B10022594638461FF0FCFE0FFAE8
:1068B00080F900BF0DB1A5F8009005987AE70000B7
:1068C000DC0200202DE9F04706468846174606B14F
:1068D0000FB9BDE8F0873046F9F77CFF81463846AE
:1068E000F9F778FF044604B9F3E704EB090A4146D7
:1068F00030460B4A126890478046554603E0281BF5
:10690000305C70556D1E08EB0400A842F7D906EB09
:1069100008002246394624F08CF800BFD9E7000071
:10692000E4020020024600200FA31B788B4211D105
:1069300013781BB90123137001200BE01378012B8E
:1069400002D10023137005E01378022B02D100233B
:10695000137001201378012B04D1202901D10223C7
:1069600013700120704700002300000073B582B04F
:10697000064603980190324600210846019B2EF0FE
:1069800051F90546002001900024681C23F0B4FD55
:10699000044600BF1CB900BF00BF00BFFEE700BF38
:1069A00014B9002004B070BD002060553246691C47
:1069B0002046039B2EF036F92046F3E72DE9F047F9
:1069C00081460E4614461F46DDF820A035461BE0E2
:1069D000600800FB075529464846D047B0F100083B
:1069E00009DD04F0010080F00100C0EB5404E81957
:1069F0000546064608E0B8F1000F02DA640835469D
:106A000002E02846BDE8F087002CE1D10020F9E73C
:106A10002DE9FF4F85B08346DDE9158ADDE913498D
:106A2000DDE91775129E05F00200F8B94FB105F0C7
:106A3000010030B1B9F1000F02D105F00C0000B136
:106A40007F1E03E030222046641C3254544501D29C
:106A5000202CF7D303E030222046641C325405F08A
:106A6000010018B1BC4201D2202CF4D305F0100073
:106A7000B0B305F4806050B94CB1544501D0BC426C
:106A800005D1641E1CB1B8F1100F00D1641EB8F11D
:106A9000100F09D105F0200030B9202C04D2782243
:106AA0002046641C325415E0B8F1100F09D105F0EE
:106AB000200030B1202C04D258222046641C3254CD
:106AC00008E0B8F1020F05D1202C03D26222204643
:106AD000641C3254202C03D230222046641C3254D1
:106AE000202C16D2B9F1000F04D02D222046641CB0
:106AF00032540EE005F0040020B12B222046641C25
:106B0000325406E005F0080018B120222046641C2B
:106B10003254CDE90275CDE90064584606A90EC984
:106B200000F0A2F809B0BDE8F08F2DE9FF4F8FB05B
:106B30008046DDE91FABDDE91D96219D1C9C0027E9
:106B40000CB925F0100505F4806000B1E4B100BF78
:106B5000B4FBF6F106FB1141C8B20A2802DA00F1D3
:106B6000300107E005F0200109B1412100E0612179
:106B700001440A39CBB239467F1C07AA5354B4FBEF
:106B8000F6F40CB1202FE3D307A8CDE904AB8DE8D0
:106B9000810203960695404610A90EC9FFF738FFFB
:106BA00013B0BDE8F08F2DE9FF4F8FB0DDE9217BF9
:106BB000DDF89080209EDDE91C454FF000090021A2
:106BC00084EA01006940084301D128F0100808F464
:106BD000806028B1002184EA0100694008432DD07B
:106BE00000BF32463B4620462946F9F792FB02F0A9
:106BF000FF0ABAF10A0F02DA0AF1300007E008F0E2
:106C0000200008B1412000E0612050440A38C2B29F
:106C1000484609F1010907A90A5432463B46204675
:106C20002946F9F776FB04460D46002184EA010067
:106C30006940084302D0B9F1200FD2D32398CDE99F
:106C4000036BCDE9050807A91E98CDE9001902904C
:106C50000FA80FC8FFF7DCFE13B0BDE8F08F9A4213
:106C600000D28854704770472DE9FF5F05461446EF
:106C7000DDE90EA6DDE91087A34607F0020078B92A
:106C800007F0010060B9B14607E02246641C2020ED
:106C9000039B0199A84709F10109C145F5D300BF3C
:106CA00008E02246641C711E0E461AF80100039B80
:106CB0000199A847002EF4D107F0020050B105E079
:106CC0002246641C2020039B0199A847A4EB0B00DB
:106CD0004045F5D3204604B0BDE8F09F00BF7047A3
:106CE0002DE9FF4F8BB0074600250C9800B9FA4FED
:106CF000EAE20E98007825280AD02A466D1C0E99E3
:106D00000878DDE90C13B8470E98401C0E90DBE2C2
:106D10000E98401C0E90002400BF0E9800782B287F
:106D200019D004DC20281ED023282CD123E02D28C4
:106D300009D0302827D144F001040E98401C0E9051
:106D400001200A9022E044F002040E98401C0E90AC
:106D500001200A901AE044F004040E98401C0E90A2
:106D600001200A9012E044F008040E98401C0E9096
:106D700001200A900AE044F010040E98401C0E9086
:106D800001200A9002E000200A9000BF00BF0A988C
:106D90000028C2D180460E990878FDF798FE20B1F0
:106DA0000EA8FDF77FFE804612E00E9800782A2894
:106DB0000ED1189901C91891002804DA44F0020490
:106DC000C0F1000800E080460E99491C0E9100BFFA
:106DD0004FF000090E9800782E281FD144F48064EB
:106DE0000E98401C0E900E990878FDF770FE20B1A9
:106DF0000EA8FDF757FE814610E00E9800782A286D
:106E00000CD1189901C91891002801DD014600E054
:106E1000002189460E99491C0E9100BF0E980078FA
:106E20006C280AD004DC682816D06A2835D128E0FE
:106E3000742820D07A2830D129E044F480740E9848
:106E4000401C0E900E9800786C2804D144F4007415
:106E50000E98401C0E9021E044F080040E98401CD7
:106E60000E900E980078682804D144F040040E98E3
:106E7000401C0E9012E044F480740E98401C0E905A
:106E80000CE044F400740E98401C0E9006E044F4AC
:106E900080740E98401C0E9000E000BF00BF0E985A
:106EA000007869281DD00EDC622821D006DC252858
:106EB0007ED050281AD058287BD115E0632879D08D
:106EC0006428F9D10CE0732875D004DC6F280ED04B
:106ED0007028F1D109E0752804D07828ECD102E0BF
:106EE00000BF00BF00BF00BF00BF00BF00BF00BFAA
:106EF0000E980078782803D00E980078582801D191
:106F0000102623E00E980078702803D00E980078A1
:106F100050280CD1102644F0100444F480740E98CC
:106F20004078562812D10E98401C0E900EE00E9814
:106F300000786F2801D1082608E00E9800786228B2
:106F400001D1022602E00A2624F010040E980078EF
:106F5000582803D00E980078502801D144F020041E
:106F60000E980078692805D00E980078642801D022
:106F700024F00C0404F4806008B124F001040E989D
:106F80000078692803D00E98007864287CD104F436
:106F90000070B8B31898C01D20F007001890D0E911
:106FA00000AB189A083218920020CDE9069803E049
:106FB00073E17CE1F2E01CE1CDE904600894BAEBF6
:106FC00000017BEB000001DA012000E0002000213D
:106FD00002900846B1EB0A0170EB0B0002DA504652
:106FE000594605E000200146B0EB0A0061EB0B01B9
:106FF000CDE900012A463846DDE90C13FFF7D3FD41
:107000000546C7E0FFE704F48070D0B1189850F847
:1070100004AB18904FEADA70CDE903980296059414
:10702000BAF1000F01DD514601E0CAF10001CDE9DE
:1070300000102A463846DDE90C13FFF776FD0546B9
:10704000A8E004F0400028B1189810F8041B18902C
:10705000C8B20DE004F0800028B1189830F8041B85
:10706000189008B204E0189800681899091D189142
:1070700082464FEADA70CDE9039802960594BAF198
:10708000000F02DD514602E00BE0CAF10001CDE93C
:1070900000102A463846DDE90C13FFF746FD054689
:1070A00078E00E980078562818D1189850F804AB5C
:1070B0001890DAF804000068099009980090DAF84E
:1070C00000300D98421B0C9841193846FFF708FE16
:1070D0000544002009905DE0676C000804F400702E
:1070E000D0B11898C01D20F00700CDE9069808948B
:1070F00018900020CDE904600290189903C9189AED
:1071000008321892CDE900012A463846DDE90C1311
:10711000FFF749FD05463DE004F4807098B1002278
:10712000CDE9039802960594189800681899091DEE
:10713000CDE9000218912A463846DDE90C13FFF725
:10714000F4FC054626E004F0400028B1189810F839
:10715000041B1890C8B20DE004F0800028B1189804
:1071600030F8041B189088B204E018980068189949
:10717000091D189182460020CDE900A0CDE90398B1
:10718000029605942A463846DDE90C13FFF7CDFC3C
:10719000054600BF0E98401C0E9093E0012604F0B7
:1071A000020050B905E02A466D1C2020DDE90C13D1
:1071B000B8473046761C4045F5D3189911F8043B82
:1071C000D8B22A466D1C1891DDE90C13B84704F0BB
:1071D000020050B105E02A466D1C2020DDE90C13A9
:1071E000B8473046761C4045F5D30E98401C0E90AB
:1071F00068E0189850F804AB18905046B9F1000FA9
:1072000001D0494601E04FF0FF310A46014600E057
:10721000491C0B781BB1131EA2F10102F8D10E1A02
:1072200004F4806028B14E4501D2304600E0484663
:10723000064604F0020050B905E02A466D1C2020E5
:10724000DDE90C13B8473046761C4045F5D306E01F
:107250001AF8010B2A466D1CDDE90C13B8479AF8A1
:10726000000040B104F480600028F1D0B9F10000C2
:10727000A9F10109ECD104F0020050B105E02A4661
:107280006D1C2020DDE90C13B8473046761C4045C4
:10729000F5D30E98401C0E9014E02A466D1C252054
:1072A000DDE90C13B8470E98401C0E900AE02A4600
:1072B0006D1C0E990878DDE90C13B8470E98401C38
:1072C0000E9000BF00BF00BF0E98007800287FF42A
:1072D00010AD0D98854201D2284601E00D98401E60
:1072E00002460020DDE90C13B84728460FB0BDE880
:1072F000F08F2DE9F04104460E46002774B1314667
:10730000204600F02DF80546B5F5802F05D20C2D4E
:1073100001D9284600E00C20074600BF3846BDE8EA
:10732000F081024600BF481E084018B100BF00BFF0
:1073300000BFFEE700BF481E1040101A704710B58E
:1073400002464B1E13444C1E23EA040000BF4B1E92
:107350000B401BB100BF00BF00BFFEE700BF10BD68
:10736000024600BF481E084018B100BF00BF00BF62
:10737000FEE700BF481E10444B1E9843704702466C
:107380000020CB1C23F00301D36E8B4205D3D36EB8
:107390005B1AD366906E4318936670472DE9F041EF
:1073A00080460E46444601206086002500270DE0F9
:1073B00056F8270025A1F9F71DFB10B1681C85B20E
:1073C00002E0608E401C6086781C87B256F8270069
:1073D00020B156F8270000780028E9D1208EA84275
:1073E00001D1BDE8F081A06A20B1A06A23F052F972
:1073F0000020A062E06A20B1E06A23F04BF900208F
:10740000E062E80023F078F8A06200BFA06A18B933
:1074100000BF00BF00BFFEE700BF680023F06CF8AC
:10742000E06200BFE06A18B900BF00BF00BFFEE71E
:1074300000BFA06A08B1E06A00B900256900E06AEF
:1074400023F03DFB258600BFCBE700000A000000CB
:107450002DE9F84F81460E46924699F8090000F052
:107460000700022801D1304600E0504683465645C9
:1074700001DD304600E050460746032000EB4700A0
:1074800020F0030000F11005394800683949096807
:10749000A0EB0108002405EB080037490968884281
:1074A00006D233480468606820F0004060603AE02B
:1074B00031480068854221D813E04FF0FF3000903A
:1074C000002269462D4813F0A1FC002269462C4891
:1074D00013F09CFC2648006826490968A0EB0108C7
:1074E00000BF08EB0500244909688842E5D8204818
:1074F0000468606820F00040606014E0284622F0D4
:10750000FBFF044600BF1CB900BF00BF00BFFEE781
:1075100000BF14B90020BDE8F88F606820F000407B
:1075200000F10040606032465946484602F09FF93B
:107530002060606800F04040401C6060606820F09F
:1075400080406060A781A4F80EB06068C00F20B1D1
:10755000204600F11001A16008E0054800681030E5
:10756000A060034800682844014908602046D2E72B
:1075700058010020AC02002054010020DF5901080E
:1075800029B40108F0B585B006460D463446002002
:1075900004900390029094F83C0000F0030020B1A6
:1075A000012838D0022866D000BF94F83C0000F0D3
:1075B00003005A49097888421BD02620005D00EB61
:1075C000001000EB4000142190FBF1F054490870CA
:1075D0002720005D00EB001000EB4000142190FB21
:1075E000F1F05049087094F83C0000F003004B495A
:1075F000087002A803A9CDE9001005EB45014FF67C
:10760000FF7202EA410004AB46490A78444909780E
:107610000DF059FD5FE094F83C0000F003003F4995
:10762000097888421AD0A08C00EB400040024FF449
:10763000B471B0FBF1F03C4908802720005D00EBFD
:10764000001000EB4000142190FBF1F03549087068
:1076500094F83C0000F003003049087002A803A928
:10766000CDE90010E9B204AB2E4802782E4800881C
:107670000DF029FD2FE094F83C0000F003002749AD
:10768000097888421AD0A08C00EB400040024FF4E9
:10769000B471B0FBF1F0244908802620005D00EBB6
:1076A000001000EB4000142190FBF1F01C49087021
:1076B00094F83C0000F003001849087002A803A9E0
:1076C000EAB204ABCDE900101548017816480088ED
:1076D0000DF0F9FC00BF00BF9DF810009DF80C10E4
:1076E0009DF80820D708BDF8003067F304038F0821
:1076F0000093BDF8003067F34A13C7080093BDF844
:10770000003067F3CF230093BDF800703B46019330
:10771000BDF80410084605B0F0BD00000A020020C4
:1077200008020020090200200602002010B50120F6
:10773000074908700748FEF798FC20B9064800681A
:107740002CF096FD03E0044800682CF09DFD10BD70
:107750009402002090D600209802002010B5044624
:1077600094F83E00C0F3400050B9A08F002807DD18
:10777000A08F4FF6FF71884202D0A08F401EA087D5
:10778000A08FA8B9606B20B194F83E00C0F3400010
:1077900070B121461748FEF7E7FCFFF7C7FFE06826
:1077A00010B12046E1688847204622F073FF1FE0B1
:1077B000A06B4042E062606BD0B194F83E10C1F320
:1077C000400111B9216B4942E16294F83E10490829
:1077D000C94394F83E2061F3410284F83E20E069F9
:1077E000616AE1616062A06A616BA162606300BF6F
:1077F00010BD000090D600202DE9F041804642489F
:1078000000682CF0B1FB06464048007880F001008B
:107810003E4908703E48FEF728FC04466BE0002015
:107820003C49087094F83E00C0F38000374909785D
:10783000884253D0354801782C34A07C61F3820013
:10784000A07420688719A07C2C3CC0F3C00010BB3A
:10785000E06A00281FDC002F1DDB94F83E0000F0DA
:10786000010060B9206950B120462169884705466A
:10787000E0692844E061606A2844606200BFA06853
:1078800010B12046A168884794F83E0020F0080017
:10789000083084F83E00E06A3044E062E06A002884
:1078A0001BDBD4E90A10884201DDA06AE0622046B1
:1078B000A16988470546206AA84206D0256260680B
:1078C00018B12946D4E900029047D4E90A10884249
:1078D00002DB2046FFF742FF00BF00BF0D480078E3
:1078E00020B10B48FEF7C1FB044604E021460848DE
:1078F000FEF7D3FB0446002C91D12CF042FB024949
:107900000860BDE8F0810000900200209502002090
:1079100090D6002094020020F7B582B004460E46AF
:1079200014B9049805B0F0BD00BF6322314620466B
:1079300026F084FB0190019D00BFBDB12868A8B16D
:1079400000BF64223146204626F078FB0190019862
:10795000C0B207464FB13A462B682846049998476B
:107960000190BDF80400ADF8100000BF0498D9E7FD
:1079700070B504460D46606818B129466068FFF787
:10798000F7FF206818B1294620462268904770BD4D
:1079900070B505460C46A1B2284618F02BF870BD0C
:1079A00070B505460C46A1B2284618F074F870BDB3
:1079B00010B511F057FB10BD70B505460C461646C4
:1079C00006E028466A1C95B200F008F804F8010B9E
:1079D000301EA6F101018EB2F3D170BD70B5044620
:1079E000002611F0FFFB2112A02202EB4101C8B2D8
:1079F00011F0C2FB11F03CFC2546E11704EB1161CC
:107A00000912A4EB0121C8B211F0B6FB11F030FC51
:107A100011F0E8FBA12011F0AFFB11F029FC0020D0
:107A200011F07CFB064611F003FC304670BD70B5CA
:107A300005460C46164606E02178284600F009F86F
:107A4000681C85B2641C301EA6F101018EB2F3D110
:107A500070BD70B504460E4611F0C4FB2112A02281
:107A600002EB4101C8B211F087FB11F001FC254681
:107A7000E11704EB11610912A4EB0121C8B211F066
:107A80007BFB11F0F5FB304611F076FB11F0F0FBBB
:107A900011F0CEFB0A2003F06FFB70BD2DE9F0471B
:107AA00004468846266865684FF0000A277BD14661
:107AB00000BF1FBB66B9A5684FF400722946204677
:107AC000236F9847064626B96FF00100BDE8F0879E
:107AD0006D1C761EBAF1000F09D04FF0000A28780D
:107AE00010B16FF00500F1E7FF20287005E028785D
:107AF000FF2802D14FF0010A0BE080274FEA490925
:107B00002878384008B149F001097F10A8F1010830
:107B100000BFB8F1000FCCD12773266065604846DE
:107B2000D4E770B504460D4600BF204600F08FF93B
:107B300018B100BF00BF00BFFEE700BF284600F03D
:107B4000A4FA001D616808446060204600F08EF9C8
:107B5000204670BD70B505460C46284600F095FAE3
:107B600004F11001884201D3012070BD0020FCE720
:107B70000146A1F1080070472DE9F04F87B00C468F
:107B80004FF4B55BCDF818B041F2511BCDF814B0ED
:107B900042F6CF1BCDF810B041F6905BCDF80CB09B
:107BA0004FF0000BCDF800B080E0D0F800C0D0F866
:107BB0004080D0F88090D0F8C0100CEB090AACEBF4
:107BC000090BCDF808B0A8EB010B4FF4B55E0BFB29
:107BD0000EFB4FEA2B3741447F1A0AEB010CAAEB4C
:107BE0000101DDF808B007EB0B08DDF808B0ABEBDE
:107BF0000709D0F8E050036AD0F8A060026EA3EB4A
:107C0000050A5F19A6EB020BCDF808B03244A7EBCA
:107C1000020B0BFB0EFB4FEA2B333A44DDF808B0A6
:107C2000D34441F6905E0BFB0EFB4FEA2B3BCDF8A5
:107C300004B041F2511B0AFB0BFEDDF804B0ABEBC4
:107C40002E3542F6CF1EDDF808B00BFB0EFEDDF838
:107C500004B0ABEB2E3BABEB02069B1BED1A0CEB1F
:107C6000020BC0F800B0ACEB020BC0F8E0B008EBC0
:107C7000060BC0F820B0A8EB060BC0F8C0B009EBAB
:107C8000030BC0F840B0A9EB030BC0F8A0B001EBA8
:107C9000050BC0F860B0A1EB050BC0F880B0001D6B
:107CA000DDF800B00BF1010BCDF800B0DDF800B04D
:107CB000BBF1080FFFF679AF20384FF0000BCDF87D
:107CC00000B0A2E0D0F800B00BF5004CD0F808806E
:107CD000D0F8109081690CEB090AACEB090BCDF8D8
:107CE00008B0A8EB010B4FF4B55E0BFB0EFB4FEA9F
:107CF0002B3741447F1A0AEB010CAAEB0101DDF896
:107D000008B007EB0B08DDF808B0ABEB0709C56955
:107D100043684669C268A3EB050A5F19A6EB020B2C
:107D2000CDF808B03244A7EB020B0BFB0EFB4FEA79
:107D30002B333A44DDF808B0D34441F6905E0BFB98
:107D40000EFB4FEA2B3BCDF804B041F2511B0AFB6E
:107D50000BFEDDF804B0ABEB2E3542F6CF1EDDF89E
:107D600008B00BFB0EFEDDF804B0ABEB2E3BABEB2B
:107D700002069B1BED1A0CEB020BCBF3092BDFF871
:107D80009CE01EF80BB084F800B0ACEB020BCBF318
:107D9000092B1EF80BB084F807B008EB060BCBF3E9
:107DA000092B1EF80BB084F801B0A8EB060BCBF33F
:107DB000092B1EF80BB084F806B009EB030BCBF3CC
:107DC000092B1EF80BB084F802B0A9EB030BCBF320
:107DD000092B1EF80BB084F805B001EB050BCBF3B3
:107DE000092B1EF80BB084F803B0A1EB050BCBF305
:107DF000092B1EF80BB084F804B008342030DDF8ED
:107E000000B00BF1010BCDF800B0DDF800B0BBF114
:107E1000080FFFF657AF07B0BDE8F08FC41F050885
:107E20007CB505460C46204600F02FF906466A460A
:107E300001A92DF03DFA21462846DDE9003212F075
:107E400051FB7CBD0146087900F00100704710B578
:107E50000446204600F019F908B9012010BD0020A1
:107E6000FCE70146087900F00200704770B504464F
:107E7000204600F097F805462C60284670BD7CB57A
:107E800006460C4600200190009000256CB16A4621
:107E900001A920462DF029FA01980C2805DA6A4636
:107EA00001A9304630F06AFE054685B100BF28467C
:107EB00000F0EBF8A04203D200BF00BF00BFFEE716
:107EC00000BF29463046DDE9003230F01AFA284674
:107ED0007CBD70B504462046FFF7C8FF054628461E
:107EE00000F0BEF8204600F0B6F870BD70B504464C
:107EF000204600F057F80546284600F0B6F8204620
:107F000000F0BEF870BD70B506460D46284600F07C
:107F100049F8044600BF1CB900BF00BF00BFFEE720
:107F200000BF2046FFF78EFF90B100BF2846FFF745
:107F30008EFF18B100BF00BF00BFFEE700BF2146A3
:107F4000304600F076F821462846FFF7EAFD054660
:107F5000284670BD70B506460D462846FFF781FFDE
:107F6000F0B1284600F057F8044600BF1CB900BF26
:107F700000BF00BFFEE700BF00BF2046FFF762FF63
:107F800018B900BF00BF00BFFEE700BF2146304662
:107F900000F04FF829462046FFF7C3FD054600BF15
:107FA000284670BD2DE9F0410446204600F06DF8EA
:107FB000061F204600F0B8F8074631462EF047FC71
:107FC000054600BF2046FFF742FF18B100BF00BFC3
:107FD00000BFFEE700BF2846BDE8F0812DE9F04173
:107FE00006460C461546002794B100BF1DB900BFD8
:107FF00000BF00BFFEE700BF2A462146304600F022
:1080000097F82046FFF772FF204600F08DF80746EC
:108010003846BDE8F08110B5044600BF2046FFF7A2
:1080200020FF18B900BF00BF00BFFEE700BF2068F7
:1080300010BD7CB505460C46204600F026F80646E5
:108040006A4601A92DF034F921462846DDE90032BF
:1080500030F057F97CBD416841F001014160704743
:10806000416841F0020141607047416821F002011E
:1080700041607047426802F003030B43436070475E
:10808000416821F00101416070470146486820F0D5
:10809000030070472DE9F04706460C46304600F0D5
:1080A00043F88046211F2EF0D2FB07463046FFF7EB
:1080B000ECFF211D451A00BF384600F035F8814617
:1080C000384600F031F880460421FFF738F9814541
:1080D00003D000BF00BF00BFFEE700BF00BF3046B7
:1080E000FFF7D3FF2919091D884203D000BF00BF45
:1080F00000BFFEE700BF29463846FFF7BBFF00BFC1
:108100003846FFF7C2FF0C2803D200BF00BF00BFF4
:10811000FEE700BF21463046FFF7ACFF3846FFF7C9
:10812000D8FE3846BDE8F087014601F108007047E7
:108130002DE9F04106460C46154600BF2046FFF7E4
:1081400081FE18B900BF00BF00BFFEE700BF29468F
:108150002046FFF7FFFC78B129462046FFF79AFF3B
:1081600007462046FFF782FE3846FFF779FF39467B
:108170003046FFF755FE00BFBDE8F0812DE9F04124
:1081800006460C46154600BF2046FFF75BFE18B1B9
:1081900000BF00BF00BFFEE700BF29462046FFF733
:1081A000D9FC88B129462046FFF774FF07463846B8
:1081B000FFF75BFF39463046FFF7A5FE0746394615
:1081C0003046FFF72DFE00BFBDE8F0812DE9F843F2
:1081D0000646344620F0FCF98046404620F03DFA41
:1081E00078BB30461DF02DFE38B330461DF0A5FC9F
:1081F000208FE18E884212D0E08E2087E08E0090A2
:108200006A461C2130461EF009F90746012F02D0AC
:108210003846BDE8F883304626F031FD00BF4046C1
:1082200020F02BFA0546042D06D1304624F088FBB9
:10823000074600211EF0BFFF09E030461DF064FE36
:1082400005E0FFE7208FE086304626F018FD01208C
:10825000DFE72DE9F041044620461EF0D9F8054637
:10826000284624F0C7FB0646284618F071FC07464E
:108270000122394630462BF02FF8BDE8F081014647
:10828000C1F3C01070470146C1F38010704701462A
:10829000C1F3C01070470146C1F30020704701468A
:1082A000C1F3C00070470146C1F34010704701465A
:1082B000C1F3402070470146C1F3003070470146CA
:1082C000C1F30010704700002DE9F04F89B004465B
:1082D0000D460021204624F028FA30B91C212846FA
:1082E00022F0EDFB09B0BDE8F08F2946204600F0F2
:1082F0000BFB2946204600F07DF80021204625F0A2
:1083000047FC08900021204625F0C8FD0790002179
:10831000204625F0FDF9012800D100E0002081462B
:108320000021204626F070F807460021204625F05F
:10833000DDFA064642F2D170874205D1608CC0F367
:10834000802008B9012000E000208246204624F069
:108350008CFA069000BF4FF000082448028841467E
:10836000204625F06BFE03900398C0B200BF834601
:10837000AA6829692868CDE90209CDE900125A46A0
:108380005146089B069810F037F9288342F2D170C5
:10839000864205D1608CC0F3402008B9012000E07E
:1083A00000200590204624F041FA049000BF4FF0D1
:1083B00000080F4802884146204625F03FFE039002
:1083C0000398C0B200BF83460023EA686968686901
:1083D000CDE90213CDE900025A46079BDDE904010D
:1083E00010F00AF9688300BF7CE700007E010020DE
:1083F000820100202DE9F34F87B00C4607980EF05C
:10840000E9FE8046079824F030FA0690404601F0D5
:10841000A9FA20612169480022F0A8F820602169AA
:10842000480022F0A3F8A060002548E058480290D8
:1084300038F9150041F69A7188423FD10020019029
:1084400029E00199079824F070F9009051490098AB
:1084500026F083F800B11BE000980EF0D9FE8246AA
:10846000BAF1010F00D013E000980EF0C1FE834670
:10847000AB4500D00CE0009826F007F8029988423E
:1084800001DA029802E0009825F0FFFF029000BF99
:108490000198401C0190079824F065F901998842E1
:1084A000CFD80298002804DB0298A16821F81500B3
:1084B00003E00021A06820F8151000BF6D1C2069A2
:1084C000A842B3D80026B14600251BE038F91500B4
:1084D00041F69B71884202DB411A0E4411E041F6DD
:1084E0009A71884206D1A16831F8151049440FFAF3
:1084F00081F906E0A16821F8150009EB00010FFAE7
:1085000081F96D1C2069A842E0D80021079825F068
:108510003FFB05902169491EDDE9050200FB1120A2
:1085200000B206900698A0EB090007B2002F00DA0F
:1085300000274FF0FF30049000200390002513E047
:1085400038F9150041F69B7188420CDB421A11B2D2
:1085500007FB01F2B2FBF6F212B2A36823F8152072
:108560000495039100BF6D1C2069A842E8D80498C7
:1085700000280ADB0398301A7843B0FBF6F0381A6B
:1085800001B2A268049822F8101009B0BDE8F08F7B
:1085900001E0FFFF010006002DE9FC5F0546002217
:1085A0001146284627F030FC0021284625F017F90F
:1085B00081460021284625F098FC484407B2002156
:1085C000284625F049FA48440FFA80FA284625F053
:1085D00005F8384450440FFA80FB3B4E284624F0FF
:1085E000C2F801904FF000085CE0A868006850F8FD
:1085F00028403649204625F0B0FF00B150E0204623
:1086000026F0BAFB002839D10021204625F018F8C1
:108610000090009830B1012807D0022804D0032828
:1086200015D100E000BF00BF00BFB4F91A10B5F9C2
:108630001600081A401CB04201DA304605E0B4F9D1
:108640001A10B5F91600081A401C06B214E00021F1
:10865000204625F00DFF70B904F1140017F0F5FA6B
:108660003844B04201DA304604E004F1140017F057
:10867000ECFA384406B200BF00BF10E0B4F91A109B
:10868000B5F91600081A401CB04201DA304605E080
:10869000B4F91A10B5F91600081A401C06B200BF4A
:1086A00008F10108019880459FD30748864209D008
:1086B00006EB0A0006B25E4502DD3046BDE8FC9FCF
:1086C0005846FBE75846F9E701E0FFFF01000400C8
:1086D0002DE9FC5F054600221146284627F078FB6D
:1086E0000021284625F07BF882460021284625F007
:1086F00039FB50440FFA80F80021284625F089FA0A
:1087000050440FFA80F9284624F078FF484440444A
:1087100000B20190724C284624F025F883460021CF
:10872000284624F0CEFF012866D100265BE0A86829
:10873000006850F826706B49384625F00EFF00B1EE
:1087400050E0384626F018FB002839D10021384681
:1087500024F076FF0090009830B1032805D0062859
:1087600004D0082815D102E000BF00BF00BFB5F952
:108770001800B7F91410401A401CA04201DA204634
:1087800005E0B5F91800B7F91410401A401C04B2FE
:1087900014E00021384625F05EFE70B907F11400A0
:1087A00017F0C6FA4044A04201DA204604E007F17F
:1087B000140017F0BDFA404404B200BF00BF10E03F
:1087C000B5F91800B7F91410401A401CA04201DA9C
:1087D000204605E0B5F91800B7F91410401A401CFE
:1087E00004B200BF761C5E45A1D33D48844269D0E7
:1087F00004EB090004B265E000265BE0A8680068AD
:1088000050F826703749384625F0A7FE00B150E0F1
:10881000384626F0B1FA80BB0021384624F010FF1C
:108820000090009830B1012805D0042804D0072812
:1088300015D102E000BF00BF00BFB7F91800B5F9BD
:108840001410401A401CA04201DA204605E0B7F996
:108850001800B5F91410401A401C04B215E00021AC
:10886000384625F005FE78B907F1140017F060FAD4
:108870004844A04202DA204605E008E007F114006F
:1088800017F056FA484404B200BF00BF10E0B7F931
:108890001800B5F91410401A401CA04201DA204615
:1088A00005E0B7F91800B5F91410401A401C04B2DD
:1088B00000BF761C5E45A1D30948844202D004EB78
:1088C000080004B20648844202D10198BDE8FC9F2A
:1088D0000198844201DD2046F8E70198F6E70000A0
:1088E00001E0FFFF0100040010B50446206821F0FC
:1088F000B9FE606821F0B6FEA06821F0B3FEE06822
:1089000021F0B0FE10BD00002DE9F34F87B00C46FA
:1089100007980FF007FC8046404601F023F860619D
:108920006169480021F022FE60606169480021F021
:108930001DFEE060002548E05948029038F9150016
:1089400041F69A7188423FD10020019029E00199B7
:10895000079823F0EAFE00905249009825F0FDFDAB
:1089600000B11BE000980FF0A5FC8246BAF1010FA0
:1089700000D013E000980FF08DFC8346AB4500D08B
:108980000CE0009823F0E6FF0299884201DA029891
:1089900002E0009823F0DEFF029000BF0198401C27
:1089A0000190079823F0DFFE01998842CFD8029802
:1089B000002804DB0298E16821F8150003E000209C
:1089C000E16821F8150000BF6D1C6069A842B3D8AA
:1089D0000026B14600251BE038F9150041F69B71D1
:1089E000884202DB411A0E4411E041F69A71884236
:1089F00006D1E16831F8151049440FFA81F906E013
:108A0000E16821F8150009EB00010FFA81F96D1CEE
:108A10006069A842E0D80021079825F03FFA069047
:108A2000079823F003FF01466269521E069800FB77
:108A3000121000B205900598A0EB090007B2002FB4
:108A400000DA00274FF0FF3004900020039000254B
:108A500011E038F9150041F69B7188420ADB421A91
:108A600011B207FB01F2B2FBF6F212B2E36823F88F
:108A7000152000BF6D1C6069A842EAD80498002840
:108A80000ADB0398301A7843B0FBF6F0381A01B2CB
:108A9000E268049822F8101009B0BDE8F08F0000D9
:108AA00001E0FFFF010006007CB504460D461646B6
:108AB00028882189084400B2ADF8000068886189DF
:108AC000084400B2ADF80200A8882189084400B229
:108AD000ADF80400E8886189084400B2ADF80600EA
:108AE000324669462046636998477CBD2DE9F047C8
:108AF00004460D4690469946AD1E606B00EB153A54
:108B0000C5F3C80605F0070101208840C7B200BFC1
:108B100051460AF1010A20462DF0B4F910B10120A6
:108B2000BDE8F08700BF00BF04F13C00805D384025
:108B300008B1012000E00020484501D10220EFE704
:108B400004F13C00805D784004F13C01885501202F
:108B5000E070A8F10100B0F1000800D1E0E778066C
:108B6000000E071EE0D10127701C0646B0F5007FFD
:108B7000D9D30026CCE70000F8B505460E462C46B2
:108B8000206B10B1206B007818B9606B08B9012018
:108B9000F8BD606B58B128462AF093FF074610498C
:108BA00009688847616B884201D30020F0E7206B99
:108BB00098B1002000900AE069460A4A206B1268CA
:108BC00090470746B74201D10120E1E700BF206B83
:108BD0000099405C0028EFD1DAE70120D8E70000D7
:108BE000EC020020DC02002070B504460D46002097
:108BF000E070401EA063294620462DF043F908B1DD
:108C0000042070BD04F23A2015F092FD4AF6552179
:108C1000884201D00320F4E70B2214A104F13C00A8
:108C20002CF018FE08B90120EBE794F83C00E92885
:108C300007D094F83C00EB2803D094F83C00E828D7
:108C400011D103220CA104F172002CF003FE08B92B
:108C50000020D6E7052209A104F18E002CF0FAFDD0
:108C600008B90020CDE70220CBE70000EB76904565
:108C70005846415420202000464154004641543378
:108C8000320000002DE9FF4F8FB00F46209DF8788D
:108C900000F0010008B1FA4800E0FA480E90F878B8
:108CA00000F0010008B1F84800E0F8480D90F878AD
:108CB00000F0010008B9F44800E0F4480C900120ED
:108CC0000B90B5E000220B9200206A88B5F804C032
:108CD000A2EB0C0211B200261AE006EB860CEA6841
:108CE00002EB8C02127C02F0010242B906EB860C08
:108CF000EA6802EB8C029289024410B207E006EBAC
:108D0000860CEA6802EB8C0212898A1A11B2761C70
:108D10002A69B242E1D8002685E006EB860CEA68B3
:108D200002EB8C02127C02F00102002A7AD191FB44
:108D3000F0F80FFA88F306EB8609D5F80C8008EBFB
:108D40008908B8F80C8008FB03F80FFA88F206EBE4
:108D50008609D5F80C8008EB8908B8F9049006EB71
:108D6000860AD5F80C8008EB8A08B8F90680904589
:108D700001DD904607E006EB860AD5F80C8008EB8B
:108D80008A08B8F90680C14508DD06EB8609D5F8E2
:108D90000C8008EB8908B8F9048013E006EB86091B
:108DA000D5F80C8008EB8908B8F90680904501DDFC
:108DB000904607E006EB8609D5F80C8008EB890899
:108DC000B8F90680C44694450BD04FF0010806EB75
:108DD000860AD5F80C9009EB8A09C9F81080CDF8FD
:108DE0002C8006EB8609D5F80C8008EB8908A8F8DA
:108DF00008C006EB8609D5F80C8008EB8908B8F89E
:108E00000C80A0EB08080FFA88F006EB8609D5F86D
:108E10000C8008EB8908B8F80880A1EB08080FFA65
:108E200088F100BF761C2A69B2423FF676AF00BFD8
:108E30000B9800287FF446AF00210F9824F05BFCCC
:108E4000012800D100E000200A900020099008903D
:108E500008A809A9CDE9001029890BB2B5F90220AB
:108E600038781E992DF03CFDF87800F0010048B1EB
:108E70000A9838B10F9823F0F8FCBDF82410084484
:108E800000B2099011990F9823F04FFC04468AE133
:108E90007F49204625F061FB40B1F878C0F380019E
:108EA00011AA0F980EF079FF04467CE100212046BC
:108EB00024F0F2FC07900798002858D00020039077
:108EC000002610E006EB8601E86850F82100A04279
:108ED00008D106EB8600E96801EB8000B0F90800D4
:108EE000039003E0761C2869B042EBD800BFF87805
:108EF00000F0010030B1608C20F4806000F58060EB
:108F0000608405E0608C20F4007000F500706084DF
:108F100004F114000D9988470399884226D0204611
:108F200025F0ADFE00BFA08AADF80400E08AADF8E0
:108F30000600208BADF80800608BADF80A0000BF7A
:108F400004F114000E9A0399904701AA29212046A2
:108F50001DF064FA204623F04DFD224622210090A8
:108F60001DF05CFA204625F08AFE00BF07E0608C09
:108F700020F480606084608C20F4007060840020A5
:108F800006907878012812D0022819D104F1140033
:108F90000C998847B5F90010491C21F00101081A05
:108FA000039000EBD070401000B2069009E004F18D
:108FB00014000C9988472988081A00B2069000E02E
:108FC00000BF00BFF87800F0010050B10A9840B12E
:108FD00004F114000D998847BDF82410081A00B256
:108FE00009900020039043F20C022046039925F0DB
:108FF00025F8029002980FFA80F800BF0020039035
:1090000043F20D022046039925F018F802900298C9
:109010000FFA80F900BF204625F037FA0590204668
:1090200023F098FC049008F4C040B0F5005F01D133
:10903000012000E0002030B128F4C040B0F5FA6F04
:1090400001DC012000E0002090B128F4C040B0F520
:109050007A7F04DD28F4C040C0F57A7001E028F47E
:10906000C04005994843642190FBF1F00FFA80F865
:1090700009F4C040B0F5005F0CD101200BE0000006
:109080006FFE010863FE0108AFFD01089FFC0108A7
:1090900001000600002030B129F4C040B0F5FA6F9D
:1090A00001DC012000E0002090B129F4C040B0F5BF
:1090B0007A7F04DD29F4C040C0F57A7001E029F41C
:1090C000C04004994843642190FBF1F00FFA80F905
:1090D000A18A1C98401A40440FFA80FAE18A1D9830
:1090E000401A48440FFA80FBF87800F0010010B1F4
:1090F000BDF9240000E0069850440FFA80FAF87891
:1091000000F0010008B1069801E0BDF924005844C0
:109110000FFA80FBBAF1000F02D1BBF1000F1BD098
:10912000204625F0ACFDA08A504400B2A082208BDE
:10913000504401B22183E08A584401B2E182608B3D
:10914000584401B26183204625F099FD01235A4617
:109150005146204625F070FEF87800F0010008B175
:109160000A9870B904F114000D9988471F990844B2
:10917000BDF820100844BDF82410084400B209903E
:1091800008E0BDF820101F980844BDF82410081A04
:1091900000B20990F878C0F3800111AA0F980EF080
:1091A000FCFD044600BF24B1DDE9111081427FF4CB
:1091B0006FAE13B0BDE8F08F024600E0521C10788D
:1091C00010B110788842F9D1107870472DE9F04F2E
:1091D0008DB005468946B9F1000F02D10DB0BDE84A
:1091E000F08FA5F81890286810B1286821F052FA7D
:1091F00009EB4901062202EB410021F07DF92860CC
:1092000000BF286818B900BF00BF00BFFEE700BF5D
:10921000286868600221286801FB0900801CE8605A
:109220000421286801FB0900001DA860B9F1010FA5
:109230000CD1B420696808700020E968088001201A
:10924000E96848800020A9680880C7E709F10101A2
:10925000C80021F08BF9074609F1010007EB8008EF
:109260004FF0000A4FEA890002B20BA90CA800F0E7
:1092700067F90024BDF930008010079000200390AA
:10928000CCE0002616E00BA90CA800F061F90CA8B0
:1092900000F04BF900B90FE0BDF93000801007A9CC
:1092A00041F82600BDF8300000F0030003A941F8A2
:1092B0002600761C042EE6DB00BF042E00D0B3E0AF
:1092C0000A990798884219D1079800B227F8140024
:1092D0000FFA8AF028F81400DDE903010844059923
:1092E000084406990844696808556868005D0007E5
:1092F000000E69680855601C04B28DE0DDE90701C5
:1093000088422CD0079800B227F814000FFA8AF090
:1093100028F814000398696808556868005D00071C
:10932000000E69680855601C04B20798401E00B220
:1093300027F814000FFA8AF028F814000498001D8A
:109340000599084406990844696808556868005DED
:109350000007000E69680855601C04B25CE00999BA
:10936000079888422CD0079800B227F814000FFA0B
:109370008AF028F81400DDE90301084469680855FB
:109380006868005D0007000E69680855601C04B23B
:109390000798401E00B227F814000FFA8AF028F848
:1093A00014000598083006990844696808556868EB
:1093B000005D0007000E69680855601C04B22BE0D0
:1093C000079800B227F814000FFA8AF028F8140062
:1093D000DDE903010844059908446968085568688F
:1093E000005D0007000E69680855601C04B207980C
:1093F000401E00B227F814000FFA8AF028F8140073
:1094000006980C30696808556868005D0007000E12
:1094100069680855601C04B20AF1010A0CA800F042
:1094200084F800287FF42DAF00BF40F2D32109FB60
:1094300001F00290029880120190601E37F910101E
:109440000198814205D1601E38F9101001988142BF
:1094500026D0DDE90121A1EB8220B0F5007F04DCFC
:1094600000FB00F14800001407E0C0F5806000FB3D
:1094700000F148000014C0F10F00019909B227F86B
:109480001410019909B228F814106A681055696817
:10949000095D0907090E6A681155611C0CB200BF0D
:1094A000A61E0EE038F8160027F8140037F816004C
:1094B00028F814006868805D69680855761E601C8D
:1094C00004B2002EEEDA4FF0000B00260020E9680F
:1094D000088023E0E96821F81B6037F81600A968C6
:1094E00021F81B0010E0A86830F81B0037F91610AF
:1094F000884203DAA86830F81B0001E037F916004B
:10950000A96821F81B00761C38F91600584501D1CE
:10951000A642E8DB0BF101000FFA80FBA642D9DB83
:10952000384621F09FF800BF58E60146B1F9020025
:10953000B1F90020904201DC012070470020FCE7D7
:10954000028000234380C2F101031BB20B807047ED
:10955000B1F90020002A07DC0B8842885200D21C97
:109560001A4412B20A800CE042880388D21A5200D0
:10957000521D0B881A4412B20A800288521E12B27F
:1095800002804288521C12B2428070472DE9F84F87
:10959000824615461E46DAF800000090DAF85000C0
:1095A00000F104094FF40072002328463146F6F713
:1095B000B0FE07460098B0F80AC06246002338465D
:1095C000F6F7A7FE834600BF59F8044B14B90020F4
:1095D000BDE8F88FA34500D204E0ABEB040B09F122
:1095E0000409F1E700BFD9F800005844F0E702464B
:1095F000891ED069801E884201D800207047538997
:10960000106B03FB0100F9E72DE9F04780460C469B
:1096100004F11A0015F08CF810B10020BDE8F087B5
:10962000207800F03F00401E00EB800101EBC005F8
:109630004FF00109002621E01849895D081915F04D
:1096400077F80746B9F1000F11D0FF2D0BD8384637
:109650000BF01EFE824629466D1C38F811000BF0F7
:1096600017FE824501D00020D8E7B94605E04FF645
:10967000FF70874201D00020D0E7761C0D2EDBD38F
:10968000207800F0400038B1B9F1000F04D038F86C
:10969000150008B10020C1E70120BFE7C423050879
:1096A00037B582B01546022D04DCBDF80C10084613
:1096B00005B030BDBDF80C00C00ABDF8081000EBC5
:1096C000D1241F2C01D2204600E01F20BDF8081035
:1096D00060F3CF210291BDF80C00C0F34510BDF836
:1096E0000810C1F3451144183F2C01D2204600E078
:1096F0003F20BDF8081060F34A110291BDF80C003C
:1097000000F01F00BDF8081001F01F0144181F2CC5
:1097100001D2204600E01F20BDF8081060F30401CC
:109720000291FF2D03D1BDF808100846C0E72A4674
:10973000DDE9020118F034FC0190BDF80410084680
:10974000B6E717B581B01446022C04DCBDF808104A
:10975000084604B010BDBDF80400C00ABDF80810EA
:10976000C90A48434109BDF8040061F3CF200190C4
:10977000BDF8040000F01F00BDF8081001F01F0143
:1097800048434109BDF8040061F304000190BDF8AD
:109790000400C0F34510BDF80810C1F3451148435B
:1097A0008109BDF8040061F34A100190FF2C03D138
:1097B000BDF804100846CCE72246DDE9010118F0A7
:1097C000EFFB0090BDF800100846C2E737B582B045
:1097D0001546022D04DCBDF80C10084605B030BD5E
:1097E000BDF80C00C00ABDF80810A0EBD124002C75
:1097F00001DD204600E00020BDF8081060F3CF2115
:109800000291BDF80C00C0F34510BDF80810C1F37B
:109810004511441A002C01DD204600E00020BDF86F
:10982000081060F34A110291BDF80C0000F01F000F
:10983000BDF8081001F01F01441A002C01DD20467C
:1098400000E00020BDF8081060F304010291FF2D34
:1098500003D1BDF808100846C0E72A46DDE9020139
:1098600018F09EFB0190BDF804100846B6E708B555
:10987000034600930098484080EA620008BD2DE945
:10988000F84F804640461CF0C3FD824640461CF01F
:109890005EFD0646504623F0ADF881462B2E09D1D9
:1098A000484629F00CFD044600222146484629F08E
:1098B00013FD3AE00A2E38D16946504623F01CF9D0
:1098C000504622F0D2FF04460021484623F02DFFE7
:1098D00001280AD1204604EBD071BDF90020C2EB6B
:1098E000610191FBF4F10DB209E0204604EBD07167
:1098F000BDF9002002EB610191FBF4F10DB2002DE6
:1099000000DA00250027484629F0D9FCA84200D0FB
:10991000012701222946484629F0DEFC27B1002212
:109920001C2148461CF07AFD00BFBDE8F88F10B539
:109930008060C06000230361002110E0002400F17A
:10994000140343F82140002206E000F1440303EB36
:10995000C11343F82200521C202AF6DB491C0C29B3
:10996000ECDB10BD0146002000E0401C31F9102066
:1099700041F6FF739A42F8D170472DE9F047064649
:109980008A463468BAF1000F0AD1D4F81480B8F1CD
:10999000000F02D0E069404516D84FF0010813E0EF
:1099A000514630460DF06AFC0746022F02D20120D4
:1099B000BDE8F087781C08B93846F9E7E069B84295
:1099C00001D93846F4E7D046A06908B90020EFE78E
:1099D000207804284ED10122414620460BF0A2FFF8
:1099E00005460DB1681C08B92846E1E701231A466F
:1099F00029462046FFF77AF88146B9F1020F01D1D6
:109A00000120D5E7B9F1010F02D14FF0FF30CFE7C8
:109A1000BAF1000F02D10220F0710CE0F0790228B7
:109A200009D108F10100854205D0B068A8EB00001B
:109A3000B0610320F071F079022869D00AF10100C9
:109A4000854207D1F06910B1F069401C00E00220A6
:109A5000F0615DE0F06908B90120F0612A465146E5
:109A600030460BF03AFD8146B9F1000F50D101208C
:109A7000F0614DE00025D04519D108F10105E069FC
:109A8000A84200D80225294630460DF0F7FB0746CC
:109A9000012F01D0781C08B9384689E73FB16769C2
:109AA000022F03D3E069B84200D9B8460025E5B9D2
:109AB000454600BF6D1CE069A84204D80225454513
:109AC00001D9002074E7294630460DF0D7FB074640
:109AD00007B909E0012F01D0781C08B9384667E7BB
:109AE0004545E7D1002063E700BF4FF0FF3229462C
:109AF00020462DF088FD8146B9F1000F08D1BAF15A
:109B0000000F05D02A46514620462DF07CFD8146A7
:109B1000B9F1000F0DD16561D4E90610801E8142B4
:109B200002D8A069401EA061207940F00100207198
:109B300007E0B9F1010F02D14FF0FF3000E0012042
:109B40000546284634E72DE9F74F86B00D46164600
:109B500089E0112E03D2062009B0BDE8F08F113E36
:109B600015F801AB0AF0EE0008B10620F4E74FEA61
:109B70002A190AF00F00039010210698FDF7FFFB49
:109B80008046B8F1000F01D10320E5E706982030A8
:109B9000039900EBC10040F82980002004460746E5
:109BA00005E015F8011B08F804100F44641C102C84
:109BB000F7D379000698FDF7E2FB0190019808B908
:109BC0000320C9E706983030039A00EBC2000199E0
:109BD00040F8291000200290044605901AE018F879
:109BE000040004900AE00598421C02990592019A2B
:109BF00022F810100298401C80B202900498411E76
:109C000004910028EFD14FF6FF71029801EA40005D
:109C10000290641C102CE2D3BE4201D206209BE7C6
:109C2000F61B39460698FDF7AAFB8346BBF1000FE9
:109C300001D1032090E706984030039900EBC10062
:109C400040F829B000240CE015F801ABB9F1000F81
:109C500004D1BAF10B0F01DD06207DE70BF804A05B
:109C6000641CBC42F0D3002E7FF473AF002073E776
:109C70002DE9F34F85B08146069800680290D9F827
:109C80000000D0F80CA0002500BF02A831F084FB32
:109C900083460BF1010018B9062007B0BDE8F08F2C
:109CA000BBF5803F05D34FEA1B4228466D1C2AF8BE
:109CB00010201FFA8BF4202C03DB2F2C01D05C2CFE
:109CC00000D111E0802C06DA214679A0FFF774FA62
:109CD00008B10620E1E7FF2D01D30620DDE7284685
:109CE0006D1C2AF81040D0E700BF202C01DA0426B2
:109CF0000CE0002602E00298401C029002980078D6
:109D00002F28F8D0029800785C28F4D002990698A1
:109D1000016008E0681E3AF81040202C02D02E2C7A
:109D200000D002E06D1E002DF4D100BF00202AF803
:109D300015000DB90620B0E7002700E07F1C3AF8B7
:109D400017002028FAD01FB93AF817002E2801D1A1
:109D500046F0030600E06D1E25B1681E3AF81000BB
:109D60002E28F8D10B22202109F140002BF091FD83
:109D70004FF00008CDF810800820039000BF38464F
:109D80007F1C3AF8104004B966E0202C03D02E2C3A
:109D900004D1AF4202D046F00306F0E7DDE903103C
:109DA000884201D2AF4216D103980B2802D146F067
:109DB000030651E0AF4201D046F00306AF4200D99E
:109DC0004AE02F46082004900B2003904FEA886059
:109DD0004FEA1068D3E7802C0ADB46F002062046E3
:109DE0000BF056FA4FF46A7101900BF017FA044623
:109DF000FF2C11DD0398401E0499884204D846F0D8
:109E0000030603980490BAE722120498411C0491B7
:109E100009F140010A5418E024B1214627A0FFF7B8
:109E2000CBF918B15F2446F003060EE0412C03DBAA
:109E30005A2C01DC48F00208612C06DB7A2C04DC89
:109E400048F00108A4F1200084B20498411C049158
:109E500009F140010C5492E700BF99F84000E52851
:109E600002D1052089F840000398082803D14FEA61
:109E700088604FEA106808F00C000C2803D008F046
:109E80000300032801D146F0020606F0020048B99B
:109E900008F0010008B146F0100608F0040008B10F
:109EA00046F008064B2000F809600020F5E60000A7
:109EB000222A3A3C3E3F7C7F000000002B2C3B3D99
:109EC0005B5D00002DE9F04782460C4616462BE00C
:109ED000412E02D20620BDE8F087413E14F8019BD6
:109EE00009F0F00008B10620F5E709F003074FF488
:109EF00080715046FDF743FA05460DB90320EAE7A5
:109F00000AF1500040F8275000270BE0084810F8ED
:109F1000078014F8010B074931F81810484345F839
:109F200028007F1C402FF1D3002ED1D10020D2E792
:109F3000041F0508441F05082DE9F04704460E4696
:109F40004022002120462BF0A4FC85202070C02058
:109F500084F8200040250020804607464FF0010984
:109F600000BFC12228466D1C2254002228466D1CC9
:109F7000225400BFB9F1000F06D036F81700B0F137
:109F8000000901D0781CC7B2601949462FF0C0F90A
:109F9000AD1C05F01F000028ECD108F1010000F015
:109FA000FF0836F817000028DBD184F8237008F189
:109FB00001006070304634F0BAFF8246514604F129
:109FC00024002FF0A5F9BDE8F087000010B500BF10
:109FD00000224FF400711148F8F738F800BF00F084
:109FE00021F800BF012202210D48F8F72FF800BF29
:109FF00000F018F800BF002202210948F8F726F8FF
:10A0000000BF00F00FF800BF012251020348F8F72B
:10A010001DF800BF00F006F810BD0000001C014054
:10A02000000C014010B5022001F0B2F810BD000094
:10A0300000B585B000BF00BF1948806940F0080036
:10A04000174988610846806900F00800009000BF49
:10A0500000BF00BF00BF00BF0846806940F080001D
:10A0600088610846806900F08000009000BF00BF52
:10A0700000BF0220019011200290012003900320D4
:10A08000049001A90748F7F72FFE4FF400700190E4
:10A0900001A90548F7F728FE00F0BEF805B000BD9D
:10A0A00000100240000C0140001C014010B500BF30
:10A0B000012251020C48F7F7C9FF00BFFFF7B2FFBA
:10A0C00000BF012202210948F7F7C0FF00BFFFF7D8
:10A0D000A9FF00BF002202210448F7F7B7FF00BF25
:10A0E000FFF7A0FF10BD0000001C0140000C014064
:10A0F00070B50546002400261DE06006040E00BF72
:10A10000012202211148F7F7A1FF00BFFFF78AFFE4
:10A110004FF400710E48F7F787FF08B1601CC4B216
:10A1200000BF002202210948F7F790FF00BFFFF7A8
:10A1300079FF701CC6B2082EDFDB15B9FFF7B6FF3A
:10A1400001E0FFF743FF204670BD0000000C014016
:10A15000001C014070B50446002525E000BFE00961
:10A1600028B1012251021548F7F770FF05E00022DF
:10A170004FF400711148F7F769FF00BFFFF752FF76
:10A1800000BF012202210E48F7F760FF00BFFFF772
:10A1900049FF00BF002202210948F7F757FF00BF1F
:10A1A0006006040E681CC5B2082DD7DB00BF012273
:10A1B00051020248F7F74AFF00BF70BD001C014082
:10A1C000000C014010B500BF012251021048F7F702
:10A1D0003DFF00BF00BF012202210E48F7F736FF06
:10A1E00000BFFFF71FFF00BF00224FF400710848B7
:10A1F000F7F72CFF00BFFFF715FF00BF0022022179
:10A200000448F7F723FF00BFFFF70CFF10BD000065
:10A21000001C0140000C014010B500BF00224FF4AB
:10A2200000710C48F7F712FF00BFFFF7FBFE00BFFD
:10A23000012202210848F7F709FF00BFFFF7F2FEED
:10A2400000BF012251020348F7F700FF00BFFFF7EC
:10A25000E9FE10BD001C0140000C014070B5002457
:10A26000002500BF012251021648F7F7EFFE00BF9C
:10A27000FFF7D8FE00BF012202211348F7F7E6FEE0
:10A2800000BFFFF7CFFE09E0601CC4B2FA2C03DD6B
:10A29000FFF7C2FF012508E0FFF7C4FE4FF400718D
:10A2A0000848F7F7C1FE0028EED100BF00BF00222A
:10A2B00002210548F7F7CAFE00BFFFF7B3FE2846A4
:10A2C00070BD0000001C0140000C01407CB506463A
:10A2D0000D4634465020005D00F00100A84233D006
:10A2E0000DB1012000E000205021095D60F3000164
:10A2F0005020015504F14401684615F096FCBDF864
:10A300000000616A898A084400B2ADF80000BDF817
:10A310000210606AC08A084400B2ADF80200BDF8BD
:10A320000400616A898A084400B2ADF80400BDF8EF
:10A330000610606AC08A084400B2ADF8060069469B
:10A34000304624F0D6FC00BF7CBD37B582B0054650
:10A3500014462146039817F08DFC0190BDF80410B7
:10A36000084605B030BD000001460B480078884221
:10A370000FDC09484078884201DB0120704706481D
:10A380008078884205DC0448C078884201DB0120DF
:10A39000F4E70020F2E70000D12305080146104849
:10A3A0000079884219DC0E484079884201DB01209F
:10A3B00070470B488079884205DC0948C07988429B
:10A3C00001DB0120F4E70648007A884205DC0448F6
:10A3D000407A884201DB0120EAE70020E8E700003C
:10A3E000D12305082DE9FF4F8DB005460E461446D2
:10A3F000F07A022803DC012011B0BDE8F08F30892B
:10A40000326901460C901098FBF758FB07460FB9CC
:10A410000020F1E7397D01F01F001DF0A8F810B110
:10A420004FF006080AE0397D01F01F001DF082F8A8
:10A4300010B14FF0050801E04FF00408386A38B158
:10A4400000BF00BF214628463A6A2EF098FDDEE0A4
:10A45000B869002859D021460BA815F0A7FB308811
:10A4600018B97088B0F5807F32D0204615F06EFCA8
:10A47000834600BFE0886188401A401C00B2089003
:10A48000301D7188CDE90010308803B259460BA801
:10A49000089AFAF73DFEBDF82C002188084400B266
:10A4A000ADF82C00BDF82E006188084400B2ADF86C
:10A4B0002E00BDF830002188084400B2ADF830000D
:10A4C000BDF832006188084400B2ADF8320000BF28
:10A4D0000BAA09A8A968FAF725FB8146B9F1000F74
:10A4E00004D1384602F089FE012085E7D5F808A09E
:10A4F00009A8A860CDF80080224631462846BB69ED
:10A5000018F0F8FDC5F808A081E022460BA8A9685C
:10A51000FAF708FB0A900A9820B9384602F06DFE57
:10A52000012069E70BA815F011FC09900BA815F0A4
:10A530000DFC00EB4000039020F018F88146D5F8A0
:10A5400008A00BA907A815F031FB012107A815F0F9
:10A5500088FCBDF92C00B4F90010401A0690BDF932
:10A560002E00B4F90210A0EB010BBDF92E000590EE
:10A5700042E007AA514602A8FAF7D4FA0A900A98CC
:10A5800000B936E0CDF80090099803B20FFA8BF2CB
:10A59000069801B238461DF017FD04900498012872
:10A5A0000ED038461DF030FC00BF00BF484620F0FA
:10A5B00059F8384602F021FEC5F808A000201BE734
:10A5C00002A8A8604B4607AA31462846CDF800806D
:10A5D00018F090FDBDF81E00401C00B2ADF81E0042
:10A5E000BDF82200401C00B2ADF822000BF1010BB7
:10A5F00000BF0598401C0590BDF9321005988142B6
:10A60000B7DAC5F808A0484620F02CF800BF384655
:10A6100002F0F3FD0120EFE670B506460D466C6AC8
:10A6200004B970BD287C58B101280DD1606B18B1F8
:10A6300004F134001CF062F8204626F0DFFE04E04E
:10A64000204626F0DBFE00E000BF00BF00BFE8E7C9
:10A650002DE9F04FADB00E46144630461DF058FFC0
:10A6600080464FF00109B8F1000F79D1B568D6F8EE
:10A6700004B00722A5A12846F6F7CBF868BB0E3533
:10A68000206820F0E0002060206820F01F00401CBF
:10A69000206015F8011B206861F39420206015F8F4
:10A6A000011B2068800A40EA0121206861F39420A0
:10A6B000206015F8011B206861F35F50206015F8D9
:10A6C000011B0802216840EA5151206861F35F5084
:10A6D000206048462DB0BDE8F08F284610F07AF98A
:10A6E00001283BD1206820F0E0002060206820F0A5
:10A6F0001F00401C20604FF480501FF0FDFE0746F5
:10A700000FB90020E6E700208DF88C002A95CDF8DF
:10A71000ACB02C9023A84FF480533A467D4900906A
:10A7200005A810F0E4FB8246BAF1000F0CD1BDF889
:10A730003010206861F394202060BDF8321020684A
:10A7400061F35F50206003E04FF0000901E007E093
:10A7500000BF38461FF09EFF4846BBE700BFD3E06E
:10A76000B8F1010FFBD137463846F6F733F8401FF2
:10A77000C51969A12846F6F73DF900286DD11821C1
:10A7800027A8F6F710F90222394624A81CF066F82B
:10A790008246BAF1000F01D04E209BE723AB08227E
:10A7A00027A924A81CF0A5F88246BAF1000F02D10F
:10A7B0002398082804D024A81BF0A0FF002089E7D4
:10A7C00052A127A8F6F716F9002845D100220E213C
:10A7D00024A81CF06AF923AB042227A924A81CF0A2
:10A7E00088F88246BAF1000F02D12398042804D0D9
:10A7F00024A81BF083FF00206CE7206820F0E00015
:10A800002060206820F01F00401C206027AD15F854
:10A81000011B206861F39420206015F8011B20685B
:10A82000800A40EA0121206861F39420206015F835
:10A83000011B206861F35F50206015F8011B0802BE
:10A84000216840EA5151206861F35F50206024A8DC
:10A850001BF054FF01203DE755E03846F5F7BAFFFD
:10A86000001FC5192EA12846F6F7C4F800284AD1C2
:10A87000022239462AA81BF0F1FF8346BBF1000FE4
:10A8800001D04E2026E74FF480501FF035FE0546DC
:10A8900025B92AA81BF032FF00201BE701208DF804
:10A8A00080000020299024902AA807C821AB07C364
:10A8B00020A84FF480532A461649009002A810F0B1
:10A8C00016FB824628461FF0E5FE2AA81BF016FF5D
:10A8D000BAF1000F16D1206820F0E0002060206857
:10A8E00020F01F00401C2060BDF82410206861F398
:10A8F00094202060BDF82610206861F35F5020602E
:10A900000120E7E600BF00BF0020E3E65F534A50A6
:10A91000475F5F005DA401082E736A706700000046
:10A920002E6A7067000000002DE9F04FADB00D46B3
:10A9300001202C90287C00287CD16C6A9CB958207E
:10A940001FF0DAFD04461CB900202DB0BDE8F08FE1
:10A9500058212046F6F727F86C6268688068206006
:10A960006868406860600722FBA12068F5F751FF26
:10A97000002871D126680E3616F8010BA06016F873
:10A98000011BA06840EA0120A06016F8010BE060FE
:10A9900016F8011BE06840EA0120E06016F8010BA0
:10A9A000206116F8011B206940EA0120206116F899
:10A9B000010B606116F8011B606940EA01206061CB
:10A9C000216988001FF098FDE061E06928B9204600
:10A9D00026F014FD00240020B7E700202062206943
:10A9E00006EB4007E069076001200DE016F8011B47
:10A9F00016F8013B41EA0321421EE36953F8222085
:10AA00000A4443F82020401C21698142EEDC4FF0CB
:10AA1000FF30A0616269A168514301EB41001FF062
:10AA20006BFD6062606A30B9204626F0E7FC0024C6
:10AA300000208AE7B0E0616A2164A16861644FF494
:10AA400080501FF059FDA062A06A30B9204626F060
:10AA5000D5FC0024002078E713E078201FF04CFD9F
:10AA6000E062E06A28B9204626F0C8FC00240020F5
:10AA70006BE7002084F8300000216163A8612C9806
:10AA800063E720680FF0A6FF012872D100031FF0D2
:10AA900033FD07462FB9204626F0B0FC00240020E5
:10AAA00053E700208DF888002068299060682A907C
:10AAB00000202B9022A84FF480533A46A8490090DA
:10AAC00004A810F014FA804638461FF0E3FDB8F1F0
:10AAD000000F57D1BDF82C00A060BDF82E00E0603B
:10AAE00001202061BDF82E006061216988001FF0FF
:10AAF00003FDE061E06928B9204626F07FFC0024D0
:10AB0000002022E700202062D4F80090E069C0F81D
:10AB100000904FF0FF30A0616269A168514301EBE2
:10AB200041001FF0E9FC6062606A28B9204626F007
:10AB300065FC0024002008E7616A2164A168616463
:10AB40004FF480501FF0D8FCA062A06A28B92046BC
:10AB500026F054FC00240020F7E678201FF0CCFCFF
:10AB6000E062E06A30B9204626F048FC002400206C
:10AB7000EBE60FE0002084F8300000216163A8615B
:10AB80002C98E2E600202C9000BF38461FF082FD92
:10AB90002C98DAE600BFC9E1287C0128FBD16F6858
:10ABA0003846F5F717FE401FC4196EA12046F5F789
:10ABB00021FF002874D1182126A8F5F7F4FE0222FF
:10ABC000394623A81BF04AFE8146B9F1000F01D097
:10ABD0004E20BAE622AB162226A923A81BF089FE36
:10ABE0008146B9F1000F02D12298162804D023A87B
:10ABF0001BF084FD0020A8E657A126A8F5F7FAFE71
:10AC000000287DD16C6AA4B958201FF075FC044659
:10AC100024B923A81BF072FD002096E65821204697
:10AC2000F5F7C1FE6C6268688068206068684068FB
:10AC3000606026AE0E3616F8010BA06016F8011BF8
:10AC4000A06840EA0120A06016F8010BE06016F849
:10AC5000011BE06840EA0120E06016F8010B20616A
:10AC600016F8011B206940EA0120206116F8010B4B
:10AC7000606116F8011B606940EA012060610020F4
:10AC8000E061216988001FF037FC2062206A40B92A
:10AC900023A81BF033FD204626F0B0FB002054E62D
:10ACA0007FE01621206901EB400A206AC0F800A06D
:10ACB0004FF0010822E022AB022226A923A81BF0B4
:10ACC00018FE8146B9F1000F02D12298022804D063
:10ACD00023A81BF013FD002037E626AE16F801BBB3
:10ACE00016F8011B4BEA012BA8F10100216A51F86B
:10ACF0002000584441F8280008F10108206900E0CC
:10AD00004EE04045D7DC4FF0FF30A0616269A1689A
:10AD1000514301EB41001FF0EFFB6062606A38B9FC
:10AD200023A81BF0EBFC204626F068FB00200CE675
:10AD3000616A2164A16861644FF480501FF0DCFBFC
:10AD4000A062A06A90B923A81BF0D8FC204626F088
:10AD500055FB0020F9E500005F534A50475F5F0054
:10AD60005DA401082E736A706700000078201FF050
:10AD7000C3FBE062E06A38B923A81BF0BFFC2046A1
:10AD800026F03CFB0020E0E5012084F8300023A9F8
:10AD90000EC9C4E90E2361630020A8610120D4E537
:10ADA000C3E03846F5F716FD001FC41960A1204620
:10ADB000F5F720FE0028F3D10222394629A81BF01E
:10ADC0004DFD8346BBF1000F01D00020BDE56C6A4C
:10ADD000A4B958201FF090FB044624B929A81BF001
:10ADE0008DFC0020B1E558212046F5F7DCFD6C62B2
:10ADF0006868806820606868406860604FF48050D0
:10AE00001FF07AFB8046B8F1000F07D129A81BF08C
:10AE100075FC204626F0F2FA002096E501208DF818
:10AE20007C0000202890239029A807C820AB07C3E6
:10AE30001FA84FF4805342463F49009001A810F0EC
:10AE400056F8814640461FF025FCB9F1000F62D14B
:10AE5000BDF82000A060BDF82200E0600120206164
:10AE6000BDF8220060610020E061216988001FF0C8
:10AE700043FB2062206A38B929A81BF03FFC20461A
:10AE800026F0BCFA002060E54FF0000A206AC0F806
:10AE900000A04FF0FF30A0616269A168514301EB4F
:10AEA00041001FF029FB6062606A38B929A81BF0D5
:10AEB00025FC204626F0A2FA002046E5616A2164BE
:10AEC000A16861644FF480501FF016FBA062A06A75
:10AED00038B929A81BF012FC204626F08FFA002072
:10AEE00033E578201FF008FBE062E06A38B929A852
:10AEF0001BF004FC204626F081FA002025E5012005
:10AF000084F8300029A90EC9C4E90E23616300202A
:10AF1000A861012019E5686A10B1686A1FF0BAFBE0
:10AF200029A81BF0EBFB00200FE500BF00200CE57B
:10AF30002E6A7067000000005DA401082DE9FF4F34
:10AF400083B00E461F46DDF84490307C002873D154
:10AF5000746A606997FBF0F8A069404537D0E069F2
:10AF600050F82810E1642069401E404506D122684F
:10AF7000E16C881A61680A1A226507E008F101008D
:10AF8000E16951F82010E06C091A21650021616522
:10AF900004F1300000904FF480535F49D4E90A2057
:10AFA0000FF0A5FF8246BAF1000F03D0002007B0D2
:10AFB000BDE8F08F00225949E06A0FF047FF824652
:10AFC000BAF1000F01D00020F1E7C4F818804FF06B
:10AFD000000B606997FBF0F100FB1170A16848431A
:10AFE00000EB4001626A059800EB400010440D1828
:10AFF00000211BE015F8013B03F0F802100215F8E0
:10B00000013B03F0FC0240EAC20015F8013B40EAB4
:10B01000E3005A460BF1010B09F802004FEA202C1D
:10B020005A460BF1010B09F802C0491C10988142E5
:10B03000E0DB0120BBE7FFE7307C012867D1746AC1
:10B04000606997FBF0FA04F134000290029800B9AD
:10B050005FE0A069504526D0206A50F82A1061654B
:10B06000002204F13400616D1BF01FFD04F130007B
:10B0700000904FF480532849D4E90A200FF037FF9D
:10B080008046B8F1000F01D0002090E7002223494C
:10B09000E06A0FF0DBFE8046B8F1000F01D000201F
:10B0A00085E7C4F818A04FF0000B606997FBF0F13A
:10B0B00000FB1170A168484300EB4001626A0598EB
:10B0C00000EB400010440D1800211BE015F8013B77
:10B0D00003F0F802100215F8013B03F0FC0240EA0D
:10B0E000C20015F8013B40EAE3005A460BF1010BA0
:10B0F00009F802004FEA202C5A460BF1010B09F81F
:10B1000002C0491C10988142E0DB01204FE700BFDC
:10B1100000BF00204BE700005DA40108D5920108A4
:10B1200000BF00BF7047000070B5044600204FF01C
:10B13000E0210861F8F7E6FAE11704EB5171C1F379
:10B14000CF010C4A1180E11704EB5171CD104FF47F
:10B150007A7045434FF0E020006940F002004FF064
:10B16000E021086108464561006940F0010008617E
:10B1700070BD00001000002030B50446002504E03A
:10B180004FF47A7000F004F86D1CA542F8D330BD7E
:10B1900070B5034600224FF0E02675690D4E3688E3
:10B1A00003FB06F44FF0E026B16910E04FF0E02613
:10B1B000B06988420BD0884202D20E1A324402E0B3
:10B1C0002E1A0E4432440146A24200D300E0EDE7BD
:10B1D00000BF70BD100000202DE9F04104460E466E
:10B1E000D4F800800021204600F06EFB05465DBBD0
:10B1F000002700BF4046A16B2AF044FE054605B17A
:10B2000021E098F80000042805D1E06B00780121C6
:10B2100021EAD01009E0E06B0078E52802D0E06B6D
:10B22000007808B9012000E0002020B1781C074612
:10B23000B04201D107E000270121204600F041F98A
:10B240000546002DD6D000BF042D00D10725284685
:10B25000BDE8F0812DE9F04704468946204630F0EC
:10B260004BF810B10120BDE8F08749462046FEF7B3
:10B27000BEF90746A7634FF40072002104F13C00B9
:10B280002AF007FB60894FF40041B1EB402F01D851
:10B29000084601E06089400206464FF0000800E0E1
:10B2A0007608B6F5007F05D9304609F075FFB0F194
:10B2B0000008F5D0B6F5007F17D932460021404688
:10B2C0002AF0E7FA760A002500E035446089A842B2
:10B2D00007D97A1960783346414600F0FDFB002813
:10B2E000F3D0404609F05FFF10E004F13C0801266E
:10B2F000002500E035446089A84207D97A196078B2
:10B300003346414600F0E8FB0028F3D06089A842AC
:10B3100001D00120A7E70020A5E72DE9F04F85B077
:10B32000044625680021204600F0CEFA07461FB1EA
:10B33000384605B0BDE8F08F287804284CD1E8687D
:10B3400033F0F5FD01903EE0296901F1240013F08E
:10B35000EFF90199884200D035E0286990F8230080
:10B3600003904FF0400A002002901FE00AF01F00F7
:10B3700008B90AF1020A296901EB0A0013F0D8F9A9
:10B38000009009F085FF8346EA68029932F81100BF
:10B3900009F07EFF834500D00BE00398401EC0B249
:10B3A00003900AF1020A0298401C029003980028B8
:10B3B000DCD100BF039828B9E968029831F8100081
:10B3C00000B906E000BF0021204600F0EAF8071EA1
:10B3D000BAD000BF3846ACE74FF0FF09CDF8109067
:10B3E0004FF0FF30E06400BF2846A16B2AF04AFD11
:10B3F000074607B162E0E06B06780EB904275DE00E
:10B40000E06BC07A00F03F0884F80680E52E05D096
:10B4100008F0080040B1B8F10F0F05D04FF0FF0958
:10B420004FF0FF30E06442E0B8F10F0F22D14B2023
:10B43000005D00F04000A0BB06F0400038B1E06BBA
:10B44000407B049006F0BF06B146206BE0644E4599
:10B450000CD1E06B417B0498814207D1E16BE86835
:10B46000FEF7D2F810B1A9F1010000E0FF2000F0D2
:10B47000FF091CE0B9F1000F06D1E06B2FF0E4FEEC
:10B480000499884200D119E04B20005D00F00100D2
:10B4900040B90B2204F14001E06B2AF0DBF908B956
:10B4A0000CE004E04FF0FF094FF0FF30E0640021B2
:10B4B000204600F006F80746002F95D000BF38461A
:10B4C00037E72DE9F041044688462768206B00F1F4
:10B4D00020063878042801D1800601E04FF40010DE
:10B4E000B04201D80020A063A06B10B90420BDE8D1
:10B4F000F081C6F3080000284AD1A06B401CA0636D
:10B50000606B38B93889B0EB561F41D80020A06372
:10B510000420ECE77889401E00EA5620002837D145
:10B520002046616B0BF0AAFE0546012D01D80220D2
:10B53000DDE7681C08B90120D9E7F869A84221D8DD
:10B54000B8F1000F03D10020A0630420CFE720460C
:10B55000616BFEF712FA05460DB90720C7E7012D0A
:10B5600001D10220C3E7681C08B90120BFE72946C2
:10B570003846FFF76FFE08B10120B8E7E07940F0E8
:10B580000400E071656329463846FEF730F8A06391
:10B590002663C6F3080107F13C000844E06300207D
:10B5A000A5E72DE9F05F04468846042627684FF09A
:10B5B000FF0AD3466CE03846A16B2AF063FC0646CE
:10B5C00006B168E0E06B05780DB9042663E03878D1
:10B5D000042814D1B8F1000F02D0832D51D15AE0C4
:10B5E000852D4ED1206BE064204613F0D1FB06463A
:10B5F00026B93869007900F03F00A0714BE0E06B9C
:10B60000C07A00F03F0984F80690E52D0AD02E2D6F
:10B6100008D029F02000082801D1012000E00020F6
:10B62000404502D04FF0FF0A2BE0B9F10F0F1CD1BB
:10B6300005F0400038B1E06B90F80DB005F0BF05A3
:10B64000AA46206BE06455450BD1E06B407B584522
:10B6500007D1E16BF8682BF0FDF810B1AAF10100F9
:10B6600000E0FF2000F0FF0A0BE0BAF1000F04D168
:10B67000E06B2FF0E9FD584502D04FF0FF30E06459
:10B6800009E000212046FFF71CFF064606B102E054
:10B69000A06B00288FD100BF0EB10020A063304600
:10B6A000BDE8F09F2DE9F04F99B0044626684B2085
:10B6B000005D00F0A00018B1062019B0BDE8F08FC1
:10B6C0004FF0000B01E00BF1010BF06830F81B00AC
:10B6D0000028F8D13078042866D10BF10E000F2134
:10B6E000B0FBF1F000F1020949462046FFF774FD76
:10B6F00005460DB12846E0E7A9F101002022216BA3
:10B7000002FB1010E064E07900F00400002845D04E
:10B71000E07920F00400E071204609F0C3FE054600
:10B720000DB12846C9E74FF0FF322046616B09F0A2
:10B73000D4FE05460DB12846BFE7A06870B3214688
:10B74000684613F005FB05460DB12846B5E770893C
:10B750004002D4E90431181841F10001C4E90401A0
:10B76000D4E90473316901F138003A462DF0A2FDA5
:10B77000D4E90473316901F128003A462DF09AFDAD
:10B78000E07940F00100316981F8210068462DF030
:10B7900041FE05460DB128468FE700BFD6E90310EC
:10B7A000FEF7CAFB002088E70C2204F1400115A82F
:10B7B0002AF062F89DF85F0000F0010028B34021F4
:10B7C0004B2001554FF0010A0EE0534615A904F134
:10B7D0004000F2680BF016FB2046FFF79EFD054681
:10B7E00005B104E00AF1010ABAF1640FEDD300BF1C
:10B7F000BAF1640F01D107205FE7042D01D028467C
:10B800005BE79DF85F104B2001559DF85F0000F04D
:10B81000020030B10BF10C000D21B0FBF1F0401C27
:10B8200000E00120814649462046FFF7D5FC054649
:10B8300075BBA9F10100B0F1000929D0206BA0EB84
:10B840004911204600F040F805460DBB04F14000C8
:10B850002FF0FAFC149000BF3046A16B2AF012FBC7
:10B86000054605B113E009F0FF02E16BF068149B97
:10B870002BF06CFF0120F07000212046FFF721FE25
:10B88000054625B9A9F10100B0F10009E4D100BFD6
:10B89000C5B93046A16B2AF0F5FA054695B92022C4
:10B8A0000021E06B29F0F5FF0B2204F14001E06B71
:10B8B00029F0E2FF4B20005D00F01800E16B0873F7
:10B8C0000120F0702846F8E62DE9F04104460D46C7
:10B8D00026683078042801D1800601E04FF400107A
:10B8E000A84202D905F01F0010B10220BDE8F08186
:10B8F0002563A7682FB93078032802DBF76A002098
:10B90000E07147B93089B0EB551F01D80220EDE74F
:10B91000F06AA0631CE070894FEA402811E03946C4
:10B9200020460BF0ABFC0746781C08B90120DDE788
:10B93000022F02D3F069B84201D80220D6E7A5EB66
:10B9400008054545EBD239463046FDF750FEA06369
:10B950006763A06B08B90220C8E7A06B00EB552015
:10B96000A063C5F3080106F13C000844E063002031
:10B97000BCE770B50446002514B1012C07D103E0E3
:10B980002DF090F8054604E02AF0CEFC01E00125F8
:10B9900000BF00BF0DB1012070BD0020FCE700001A
:10B9A0002DE9F0470646894615465EBBB9F1000F02
:10B9B00009D0B9F1010F13D0B9F1020F05D0B9F1D7
:10B9C000030F1CD106E000241BE04FF40070286038
:10B9D000002416E01E48B0F858002880002410E02B
:10B9E0001B48416D806DA1FB007001464FF4007251
:10B9F00000233846F4F704FD2860002401E0042405
:10BA000000BF22E0012E1FD1B9F1000F09D0B9F11A
:10BA1000010F11D0B9F1020F05D0B9F1030F10D108
:10BA200006E000240FE04FF40070288000240AE0B4
:10BA300008202880002406E04FF4C040286000243D
:10BA400001E0042400BF00E001242046BDE8F087A7
:10BA5000140500202DE9F04180460E4614461D468F
:10BA6000002715B90420BDE8F081B8F1000F03D01C
:10BA7000B8F1010F25D113E02A46214630462DF0BA
:10BA80002DF8074609E0022F01D02DF00BF82A46C9
:10BA9000214630462DF022F80746002FF3D112E060
:10BAA0000BE0002000EB44214FF4007230462AF0F6
:10BAB00097FC641C06F500766D1E002DF1D1002761
:10BAC00001E0012700BF00BF0FB90020CBE7012034
:10BAD000C9E70146002070472DE9F04107460E46B0
:10BAE00014461D464FF0000815B90420BDE8F0814A
:10BAF00017B1012F24D112E02A46214630462DF0FD
:10BB000015F8804607E02CF0CDFF2A462146304646
:10BB10002DF00CF88046B8F1000FF4D113E00BE0E3
:10BB2000002000EB44214FF4007230462AF0FAFC6A
:10BB3000641C06F500766D1E002DF1D1A84602E0CA
:10BB40004FF0010800BF00BFB8F1000F01D1002085
:10BB5000CCE70120CAE7F8B506460C461546009525
:10BB6000B4F90630B4F90420B4F90210B4F90000B5
:10BB70000FF0D7FD304616F07DFFF8BD10B512F07E
:10BB800021F801200FF0E0FC10BDF8B505462C4669
:10BB90001CF01EFD0646206B28F0E6F93168898B03
:10BBA00088422CD2606A009094F83C0000F00300B8
:10BBB00020B1012806D002280CD107E00020ADF802
:10BBC000000007E064208DF8020003E064208DF897
:10BBD000030000BF00BF30461CF0BEFE284600999F
:10BBE00016F0DFFD50B100221C2128461AF016FC89
:10BBF0000746012F01D03846F8BD00BF00BF28F02E
:10BC0000C0F920630120F7E72DE9F04F9BB007460C
:10BC100089461646BA4617A816F0E9FF4FF4A02148
:10BC2000384621F025FD9DF8691060F382018DF8FA
:10BC30006910304614F0C2F8054600EBD5704FEAA3
:10BC400060083088404400B2ADF858007088404425
:10BC500000B2ADF85A000021384621F0BCFE159024
:10BC6000494603A820F016FB17A80B904FF40030AC
:10BC7000109033480490002005900AF13000FAF744
:10BC800019FA044657E02079032800D04DE0208BB4
:10BC9000ADF85C00208A00B2ADF85E006079FD2846
:10BCA00001DD159803E060791599484300128DF87D
:10BCB00068002568B5F92000E98B08440090B5F9C3
:10BCC0002030D5E90512A0681EF002FC8346B5F9C4
:10BCD0002000E98B08440090B5F92030D5E9051221
:10BCE000E0681EF0F5FB0290608B404400B2ADF8B6
:10BCF0004800149416A80C9003AA1A2138461AF08A
:10BD00008DFB029880B21FFA8BF1CDE90010BDF8CF
:10BD1000480083B216AA17A9484616F04AFF03AA9C
:10BD20001B2138461AF07AFB00BF21460AF1300089
:10BD3000FAF7BAF90446002CA5D11BB0BDE8F08F84
:10BD40006831040870B504460D4600222946204695
:10BD500007F07EFE01222946204607F079FE0222E6
:10BD60002946204607F092FC04222946204607F087
:10BD70008DFC70BD2DE9F74F9EB00C46E07802288F
:10BD800002DC21B0BDE8F08F1CA8209913F020FF41
:10BD9000B4F9200001282EDD94F82200FD282ADBCA
:10BDA000208840B3BDF8700014F8231F4908C1F380
:10BDB0008001084400B2ADF87000BDF8720021782F
:10BDC0004908C1F34001084400B2ADF87200BDF863
:10BDD000740021784908C1F3C001401A00B2ADF8DF
:10BDE0007400BDF8760014F82319C1F34001401A1D
:10BDF00000B2ADF876001E981CA982681AA8F8F760
:10BE000091FE00B9BDE7E07B00F0070616B9A088F7
:10BE1000199001E0E0881990BDF8641060898142B2
:10BE200000D100261CA818F0CBF818901C2111A8EE
:10BE3000F4F7B9FDA0788DF85D00BDF86400ADF8A9
:10BE40004C00189860B9208850B94EB91CA81190C0
:10BE5000E0788DF85C0011A91E9818F061FF90E75A
:10BE6000E078FD2801DBFF2000E0E07810901CA8BE
:10BE700013F096FF0F901CA813F00AFF0E90DDE957
:10BE80000E01814201DA0F9800E00E980D90B4F98E
:10BE900000100D98B1EB600F02DAB4F9000001E078
:10BEA0000D98401007461AA813F07AFF81464FF00C
:10BEB000FF300C9000200B90002F01DC189870B11F
:10BEC00048461EF053FB0B9000233AB21CA905A86C
:10BED00018F0EEFB002105A817F06CFD0C90BDF8E2
:10BEE0006800ADF80C00BDF86C00ADF810000B98C0
:10BEF000149003A811901690FF208DF85C00A01DEF
:10BF0000DDE90E211AF006FF8046B8F1000F0CD0D3
:10BF1000022E0AD1BDF96810D8F8080000EB4100E4
:10BF2000BDF97010A0EB410012901898A0B3BDF9B4
:10BF30006A502CE028B2ADF80E0028B2ADF812001D
:10BF40004A4610990B981EF080FDBDF968100FFA53
:10BF500089F32AB20B9817F0E3FF8DF854009DF88F
:10BF60005400012802D102208DF85400012E09D17D
:10BF7000BDF97210691AD8F8080000EB410000887A
:10BF8000ADF84C0011A91E9818F0CAFE6D1CBDF941
:10BF90006E00A842CEDACCE0FFE700255CE0BDF8F9
:10BFA000720028440FFA80FABDF87600401B0FFAA1
:10BFB00080FBBDF96A00504504DDBDF96E005845AF
:10BFC00000DA48E04A4610990B981EF03EFDBDF994
:10BFD0000C100FFA89F352460B9817F0A1FF8DF859
:10BFE00054009DF85400012802D102208DF854001D
:10BFF000BDF96A00504514DCADF80EA0ADF812A0F2
:10C00000012E0AD1BDF97210AAEB0101D8F808007F
:10C0100000EB41000088ADF84C0011A91E9818F003
:10C020007FFEBDF96E00584514DBADF80EB0ADF8DB
:10C0300012B0012E0AD1BDF97210ABEB0101D8F894
:10C04000080000EB41000088ADF84C0011A91E98D3
:10C0500018F066FE00BF6D1CBD42A0DBBDF870008D
:10C06000ADF80400BDF87400ADF80800BDF872002A
:10C07000384400B2ADF80600BDF87600C01B00B22F
:10C08000ADF80A0001A817F09BFF00900098B0B926
:10C09000AEB9BDF87200384400B2ADF80E00BDF87C
:10C0A0007600C01B00B2ADF8120010988DF85C004D
:10C0B0000020149011A91E9818F032FE38E0109854
:10C0C0008DF85C0001208DF85400BDF97600A0EBDE
:10C0D000070ABDF97200C51927E0009870B14A46F9
:10C0E00010990B981EF0B1FCBDF968100FFA89F396
:10C0F0002AB20B9817F014FF8DF8540028B2ADF84F
:10C100000E0028B2ADF81200012E09D1BDF972104F
:10C11000691AD8F8080000EB41000088ADF84C001F
:10C1200011A91E9818F0FCFD6D1C5545D5DD00BF0A
:10C1300000BF0B9810B10B981EF094FA0C98401C9D
:10C1400028B10C9818F09CFB05A817F015FFB8F162
:10C15000000F02D040461AF0D4FD00BF11E62DE9D1
:10C16000F0478EB007460C461546206910B90EB050
:10C17000BDE8F087A07E022800DCF8E720691CF00B
:10C18000C7F90646022E55D1002041F6FF71CDE9D0
:10C190000001029003460DA8D4E9041228F0DCFA4D
:10C1A000284613F0FDFD814600EBD970298801EB8C
:10C1B0006000BDF9348008EBD871A0EB610000B2DB
:10C1C000ADF82C00BDF82C00BDF834100844401E1A
:10C1D00000B2ADF83000284613F05AFD814600EB5E
:10C1E000D970698801EB6000BDF9368008EBD87121
:10C1F000A0EB610000B2ADF82E00BDF82E00BDF836
:10C2000036100844401E00B2ADF8320003A817F003
:10C2100059FB60690390208BADF81800A07E8DF863
:10C220002600002000900BAA03A93846236916F0C7
:10C2300095FFAEE00DA920691BF012FE8046B8F113
:10C24000010F02D000BF00BF91E707A816F069FFF9
:10C25000A0788DF82800208BADF82400E07E8DF8C2
:10C260002600A07E8DF82700207FE8BB284613F02B
:10C2700097FD824600EBDA70298801EB60000D998A
:10C28000C1F38A2909EBD971A0EB610000B2ADF8C6
:10C290001400284613F0FCFC824600EBDA70698833
:10C2A00001EB60000D994FEA515909EBD971A0EBF0
:10C2B000610000B2ADF81600BDF814000D99C1F38D
:10C2C0008A210844401E00B2ADF81800BDF81600DF
:10C2D0000D9900EB5150401E00B2ADF81A0005AAAE
:10C2E00007A93846236900E002E016F0CBFE4FE0D4
:10C2F0006888ADF81600BDF816000D9900EB515096
:10C30000401E00B2ADF81A003BE02888ADF81400DA
:10C31000BDF814000D99C1F38A210844401E00B2F3
:10C32000ADF8180017E005AA07A93846236916F0EA
:10C33000A9FEBDF814000D99C1F38A21084400B28A
:10C34000ADF81400BDF818000D99C1F38A21084416
:10C3500000B2ADF81800BDF91400B5F90410884218
:10C36000E1DDBDF816000D9900EB515000B2ADF8BB
:10C370001600BDF81A000D9900EB515000B2ADF84F
:10C380001A00BDF91600B5F906108842BDDD00BFE0
:10C3900000BF00BFEBE62DE9F04F87B083460C46A7
:10C3A000164694F82200022802DC07B0BDE8F08FA0
:10C3B000208C00B9F9E794F82300C0F3440000B9D9
:10C3C000F3E794F8230000F0010000B1EDE73046F8
:10C3D00013F0E6FC8146304613F05AFC0746B4F9E8
:10C3E0000050B94501DA484600E038468246B5EBD0
:10C3F0006A0F01DD4FEA6A05314605A813F0E8FB34
:10C40000BDF9141094F82300400800F0040010B1A6
:10C41000B4F9200003E0B4F9200028444042084465
:10C4200000B2ADF81400BDF9181094F823004008CC
:10C4300000F0080010B1B4F9200003E0B4F92000C6
:10C4400028444042081A00B2ADF81800BDF9161091
:10C4500094F82300400800F0020010B1B4F9200065
:10C4600003E0B4F9200028444042084400B2ADF88B
:10C470001600BDF91A1094F82300C0F3400010B163
:10C48000B4F9200003E0B4F9200028444042081A1F
:10C4900000B2ADF81A00208C281A0FFA80F8B8F113
:10C4A000000F01DA4FF00008A07894F82210CDE9CF
:10C4B0000210E08BADF804002BB205AA31465846B5
:10C4C000CDF8008000F002F800BF6EE72DE9FF4FC5
:10C4D000A3B00D4616461F463298FF2801DBFF2009
:10C4E00000E032983290284617F06AFD2290229898
:10C4F00068B967B9309850B93298009032462946E9
:10C50000319B239800F0A9FA27B0BDE8F08F23985B
:10C510002946826820A8F8F705FB00B9F4E720A8AF
:10C5200013F03EFC81461C2119A81EF0C8FA4846AB
:10C530001EF01CF81C904FF0FF301890002F0ADD01
:10C5400000233A46294612A818F0B2F8002112A892
:10C5500017F030FA1890012331460CA8309A18F0E1
:10C56000A7F800210CA817F025FA0B9009A819903C
:10C570001E90BDF8C400ADF86C0032988DF87C00B8
:10C5800033988DF87D00B5F900003844B6F90010F5
:10C59000884203DDB5F90000384401E0B6F9000037
:10C5A00000B2ADF81C00B5F90400C01BB6F90410C8
:10C5B000884203DAB5F90400C01B01E0B6F90400B3
:10C5C00000B2ADF82000B5F902003844B6F9021007
:10C5D000884203DDB5F90200384401E0B6F90200F3
:10C5E00000B2ADF81E00B5F90600C01BB6F9061082
:10C5F000884203DAB5F90600C01B01E0B6F906006F
:10C6000000B2ADF8220007A813F0CAFB0690B5F9F6
:10C610000200B6F90210884201DC012000E000208F
:10C620008246B5F90600B6F90610884201DB012002
:10C6300000E000208346229800284CD0BDF88000FE
:10C64000ADF82400BDF88400ADF82800BDF98240A3
:10C6500029E0BAF1000F04D1BDF91E00A04200DDAF
:10C6600020E0BBF1000F04D1BDF92200A04200DAA6
:10C670001DE020B2ADF8260020B2ADF82A004946F0
:10C680001C981EF053FABDF980100FFA89F322B2FC
:10C690001C9817F045FC8DF8740019A9239818F020
:10C6A0003FFB00BF641CBDF98600A042D1DA00BF89
:10C6B0000CA817F061FC0B9818F0E2F81898401CD1
:10C6C00028B112A817F058FC189818F0D9F81C983F
:10C6D0001DF0C8FF18E7B5F90000B6F90010884250
:10C6E00001DC012000E000200590B5F90400B6F956
:10C6F0000410884201DB012000E0002004900120AA
:10C700000390059860B1049850B1BAF1000F07D0BA
:10C71000BBF1000F04D00698322801DA0020039004
:10C7200001208DF87400BAF1000F15D0039898B16C
:10C73000BDF81C00ADF82400BDF82000ADF82800BD
:10C740006888ADF826007088401E00B2ADF82A0057
:10C7500019A9239818F0E4FABBF1000F15D003983B
:10C7600098B1BDF81C00ADF82400BDF82000ADF86C
:10C770002800F088401C00B2ADF82600E888ADF82B
:10C780002A0019A9239818F0CBFA059898B128889F
:10C79000ADF824003088401E00B2ADF82800BDF886
:10C7A0001E00ADF82600BDF82200ADF82A0019A938
:10C7B000239818F0B5FA049898B1B088401C00B2DC
:10C7C000ADF82400A888ADF82800BDF81E00ADF82B
:10C7D0002600BDF82200ADF82A0019A9239818F008
:10C7E0009FFA0398F0BBBDF88000ADF82400BDF8B7
:10C7F0008400ADF82800B5F90200B6F90210401A1D
:10C80000B84201DA384604E0B5F90200B6F9021080
:10C81000401A00B20290002442E06888204400B22E
:10C820000190E888001B00B20090BDF982100198C9
:10C83000814205DDBDF986100098814200DA2EE0C4
:10C8400049461C981EF072F9BDF924100FFA89F3BD
:10C85000019A1C9817F064FB8DF87400BDF98210E2
:10C86000019800E020E0814209DC0198ADF8260043
:10C870000198ADF82A0019A9239818F051FABDF9CA
:10C8800086100098814209DB0098ADF826000098D8
:10C89000ADF82A0019A9239818F042FA00BF641CC9
:10C8A00002988442B9DBC7E0BDF88000ADF82400EF
:10C8B000BDF98410BDF91C00401E814202DABDF9A9
:10C8C000840002E0BDF91C00401E00B2ADF8280053
:10C8D00009A813F065FA8046B8F1000F48DD059805
:10C8E00010B9BAF1000F1ED0BDF9824017E020B296
:10C8F000ADF8260020B2ADF82A0041461C981EF083
:10C9000015F9BDF92410434622B21C9817F008FB14
:10C910008DF8740019A9239818F002FA641CBDF967
:10C920001E00A042E3DC059810B9BBF1000F1FD038
:10C93000BDF92200441C17E020B2ADF8260020B259
:10C94000ADF82A0041461C981EF0F0F8BDF92410FD
:10C95000434622B21C9817F0E3FA8DF8740019A927
:10C96000239818F0DDF9641CBDF98600A042E3DAD3
:10C97000BDF98010BDF92000401C814202DDBDF9E7
:10C98000800002E0BDF92000401C00B2ADF8240098
:10C99000BDF88400ADF8280009A813F001FA80461C
:10C9A000B8F1000F48DD049810B9BAF1000F1ED09D
:10C9B000BDF9824017E020B2ADF8260020B2ADF8F4
:10C9C0002A0041461C981EF0B1F8BDF924104346D8
:10C9D00022B21C9817F0A4FA8DF8740019A92398B4
:10C9E00018F09EF9641CBDF91E00A042E3DC049817
:10C9F00010B9BBF1000F1FD0BDF92200441C17E095
:10CA000020B2ADF8260020B2ADF82A0041461C98AD
:10CA10001EF08CF8BDF92410434622B21C9817F082
:10CA20007FFA8DF8740019A9239818F079F9641C1D
:10CA3000BDF98600A042E3DA0CA817F09DFA0B9826
:10CA400017F01EFF12A817F097FA189817F018FFA2
:10CA50001C981DF007FE00BF56E52DE9FF4F89B079
:10CA600080460C461546DDF858901C2168461EF09D
:10CA700026F807A80090BDF83000ADF808008DF842
:10CA80001890B4F90200B5F90210884201DC0120C7
:10CA900000E000200646B4F90600B5F90610884209
:10CAA00001DB012000E000200746B4F90000B5F9E1
:10CAB0000010884201DC012000E000208246B4F929
:10CAC0000400B5F90410884201DB012000E00020D9
:10CAD00083462088ADF81C00A088ADF8200060884F
:10CAE000ADF81E006888401E00B2ADF822001EB1ED
:10CAF0006946404618F014F9E888401C00B2ADF8C9
:10CB00001E00E088ADF822001FB16946404618F0CB
:10CB100007F92088ADF81C002888401E00B2ADF847
:10CB2000200016B1B5F9020001E0B4F90200ADF839
:10CB30001E0017B1B5F9060001E0B4F90600ADF822
:10CB40002200BAF1000F03D06946404618F0E8F819
:10CB5000A888401C00B2ADF81C00A088ADF82000E9
:10CB6000BBF1000F03D06946404618F0D9F80DB06C
:10CB7000BDE8F08F2DE9FF4F93B0074690469946E8
:10CB80004FF6FF70804502D117B0BDE8F08F3E46EA
:10CB9000746A208C1290208C484506D0A4F820900E
:10CBA000608C20F00400001D60844FF4802120463A
:10CBB00021F011FB11904FF48021204621F07BFBE6
:10CBC0000546119819F08AFD824638460AF0C5FFDD
:10CBD0008346BBF81600ADF83E00BDF93E000AEBF7
:10CBE000050108FB010000B2ADF83E00284605EB48
:10CBF000D071BDF83E20A2EB610109B2ADF83E1044
:10CC0000BDF83E0050442844401E00B2ADF842003A
:10CC1000706A808AADF83C00706A008BADF8400005
:10CC200001A817F05BFE01AA4FF48021204621F0F5
:10CC300077FE0FAA01A9149817F034FE12982084E9
:10CC4000608C20F00400608400BF9DE72DE9F04F68
:10CC500091B007460D46904699464FF6FF708045C5
:10CC600002D111B0BDE8F08F1097109F7C6A208C24
:10CC70000F90208C484506D0A4F82090608C20F0BE
:10CC80000400001D608407A816F01CFE07AA4FF4DC
:10CC90008021204621F069FD4FF48021204621F0BB
:10CCA0000AFBADF82E0038460AF057FF064606B9D3
:10CCB000D7E7079819F012FD8246F08AADF8160002
:10CCC000BDF91600BDF92E10514408FB010000B259
:10CCD000ADF81600BDF92E0000EBD071BDF816209E
:10CCE000A2EB610109B2ADF81610BDF81600504470
:10CCF000BDF82E100844401E00B2ADF81A00A08AFC
:10CD0000ADF81400208BADF8180005AA03A8A96897
:10CD1000F7F708FF8346BBF1000F13D0A868029015
:10CD200003A8A86030461CF087FB0190002000900B
:10CD300006F1140207A92846019B16F00FFA029883
:10CD4000A86000BF0F982084608C20F004006084ED
:10CD500000BF86E72DE9F04105463548006815F02B
:10CD6000A3FE04462868866BF06A10B13046F16A6B
:10CD70008847206890B1606880B10CE02C4800685A
:10CD80000068806A38B12A4A12681068284A126816
:10CD90001268916A884720690028EFD1012020613C
:10CDA000234800680068C068806900F0010050B145
:10CDB0001F4800680068C0688069C0F3400010B177
:10CDC0000120606101E000206061606908B101201C
:10CDD00000E0002007462868406998B12868007C78
:10CDE000C0F3011048B12868007CC0F3800020B176
:10CDF000D6E9001000F01EF804E0D6E9002128680A
:10CE0000FBF752FE206880B1606870B12868007C32
:10CE100000F0010000B147B12168A068884202D14A
:10CE20006068A06001E02068A060BDE8F0810000BB
:10CE3000500100202DE9F34F83B004468848006874
:10CE40000568874800680068007CC0F3400040B176
:10CE5000287CC0F3800020B100BF00BF05B0BDE852
:10CE6000F08F287CC0F3011002280AD12146284601
:10CE7000049A00F004F921462846049AFBF714FEB0
:10CE8000EBE0287CC0F30110012804D0287CC0F31B
:10CE900001100328F4D1002002907148006815F0B9
:10CEA00003FE8246204612F04AFF0646204612F054
:10CEB000D3FE83464FF4A050B0FBF6F000B25845C5
:10CEC00005DA4FF4A050B0FBF6F000B200E058468F
:10CED0000190B4F90280287CC0F3011001280BD125
:10CEE00068882188401A401E00B2E080E088801BDC
:10CEF000401C00B2608006E020886080608830447A
:10CF0000401E00B2E08000279EE0ABEB07010198D5
:10CF1000814201DD019801E0ABEB07000FFA80F9D7
:10CF20000120CAF8100047BBB34526DBB146297C77
:10CF3000C1F30111032901D1012100E000210846BC
:10CF40003146049A00F00FF9287CC0F30110012843
:10CF500007D1A4F8008008EB0600401E00B2A080B4
:10CF60003FE02888401EA0EB080000B2A080A08807
:10CF7000801B401C00B2208033E0029820B94FF49F
:10CF800020501DF0F3FA029002980090297CC1F322
:10CF90000111032901D1012100E0002108464A4680
:10CFA0003146049B00F0B2F8287CC0F30110012840
:10CFB0000AD108EB070000B2208008EB07004844C4
:10CFC000401E00B2A0800CE02888401EA0EB0800A4
:10CFD000C01B00B2A080A088A0EB0900401C00B2DA
:10CFE000208007EB090058450DDBDAF8180000F047
:10CFF000010040B1DAF81800C0F3400018B1012078
:10D00000CAF8140002E00020CAF81400029808B917
:10D01000049800E00298024621462846FBF744FDAA
:10D0200004E0A86A10B12846A96A8847DAF8100017
:10D030000028F6D106FB09F1049800EB41000490AA
:10D0400007EB090007B200BF5F45FFF65EAF02982D
:10D0500010B102981DF006FB00BF00BFFEE6000005
:10D060005001002018B5048800940C8804801488AE
:10D070000C801C881480BDF800401C8018BD2DE970
:10D08000FC5F05460C461646204612F058FE8246C6
:10D09000204612F0E1FD83460AFB0BF00190019857
:10D0A000471E4FF0000811E006EB47000088009093
:10D0B00006EB470006EB48010988018006EB4800B3
:10D0C000BDF8001001807F1E08F101084745EBD82C
:10D0D000B4F9069068886188401A401E00B2E0806A
:10D0E0006888A0EB0900401E00B26080B4F904908B
:10D0F00028882188401A401E00B2A0802888A0EB12
:10D100000900401E00B22080BDE8FC9F2DE9F047D9
:10D1100004461D46089F01FB02F0A0F1010C481EC9
:10D1200000FB02F800231AE008EB03000CB1ACEBA3
:10D13000000000260FE0A946AD1C07EB400AB9F835
:10D140000090AAF800900CB1104400E0801A06F19B
:10D1500001090FFA89F68E42EDDB581C03B29342A7
:10D16000E2DBBDE8F0872DE9F04782460C46154624
:10D1700000263BE0002731E0601E801B0FFA80F89C
:10D18000601EC01B0FFA80F9BAF1000F12D007FB26
:10D19000048C05EB4C0308FB049C05EB4C0209FBDB
:10D1A000046C05EB4C0106FB047C05EB4C00FFF71F
:10D1B00059FF11E009FB046C05EB4C0308FB049CD0
:10D1C00005EB4C0207FB048C05EB4C0106FB047CD1
:10D1D00005EB4C00FFF746FF781C07B2601C00EB24
:10D1E000D071B7EB610FC7DB701C06B204EBD471D2
:10D1F000B6EB610FBEDBBDE8F08710B504462046F4
:10D200001AF002FE10BD00002DE9F14F9EB01E98ED
:10D2100019F0FEF805462C461E9819F0A0F81D904E
:10D22000606A1CF009F907465020005D00F001001B
:10D2300010B91FB0BDE8F08F0FA817F04FFB0FAA71
:10D240004FF4E021284621F06BFB04F144010DA8C6
:10D2500012F0EBFCBDF83400616A898A084400B220
:10D26000ADF83400BDF83610606AC08A084400B2D8
:10D27000ADF83600BDF83800616A898A084400B20A
:10D28000ADF83800BDF83A10606AC08A084400B2B0
:10D29000ADF83A000DAA0FA91D9817F003FB4FF443
:10D2A000E021284620F0DCFA06464FF4E02128462B
:10D2B00020F03EFD30440FFA80F84FF4E02128467C
:10D2C00020F0AFFE30440FFA80F900200B900C9054
:10D2D000E16CC8191F49096888478246E06CC1198A
:10D2E00052460BA81DF05DFABDF83400404400B270
:10D2F000ADF83400BDF83600484400B2ADF8360051
:10D300004FF0000BD4F824A040F257425946504643
:10D3100020F094FE019001980A9002A816F0D2FA2B
:10D3200002AA4FF4E021284621F01FFA9DF83F00A1
:10D33000022805DCBDF81400BDF82810884207D08B
:10D3400000200BAB0DAA02A900901D9815F006FF56
:10D3500000BF6EE7D00200202DE9F04FBDB00546BA
:10D360000E4600BF00BFAB460BF13000F8F7F0FEF1
:10D3700010B13DB0BDE8F08F05F114023BA8B168D3
:10D38000F7F7D0FB00B9F4E7B0683A903BA8B0607B
:10D3900035A816F0E3FA35AA4FF4E021284621F02B
:10D3A0004BFA27A817F09AFA9DF8DC008DF89F0039
:10D3B00047F6FF70ADF89C004FF4E021284621F0BD
:10D3C00030F8074600EBD7704FEA60094FF4E021D0
:10D3D000284621F026F8074600EBD7704FEA600A8E
:10D3E000314604A81EF056FF24A80A9016A80890FB
:10D3F0004FF4E020119069480590052006900BF14C
:10D400003000F8F757FE0446C0E00A2235A924A8E8
:10D410001DF0C7F9382227A916A81DF0C2F9E08827
:10D42000ADF89000E088ADF85C0039A80D9038A800
:10D430000E90607B00F0010020B1B4F90070B4F9E7
:10D44000028010E0A08847F6FF71884200D197E083
:10D45000A28801AB2846A16813F0D2FFBDF9047081
:10D46000BDF9068000BFA88A384407B2E88A404464
:10D470000FFA80F8B9F1000F19D0BAF1000F16D0E9
:10D48000A7EB090000B2ADF8080007EB090000B2F5
:10D49000ADF80C00A8EB0A0000B2ADF80A0008EBEA
:10D4A0000A0000B2ADF80E0002A8079001E00020CB
:10D4B0000790207B00F0030070B3207B00F0010098
:10D4C00010B1B5F9140000E03846ADF8E400ADF84D
:10D4D000E680207B00F0020010B1B5F9180000E0F2
:10D4E0003846ADF8E000BDF8E600ADF8E20004AA69
:10D4F0001A21284618F092FF38AB39AA24A93046E1
:10D5000016F015FA02AA16A9304617F0CBF904AAAC
:10D510001B21284618F082FF207B00F00C0070B31E
:10D52000ADF8E470207B00F0040010B1B5F91600EE
:10D5300000E04046ADF8E600BDF8E400ADF8E000DC
:10D54000207B00F0080010B1B5F91A0000E0404659
:10D55000ADF8E20004AA1A21284618F05FFF38ABA4
:10D5600039AA24A9304616F0E2F902AA16A93046D3
:10D5700017F098F904AA1B21284618F04FFF00BFA6
:10D5800021460BF13000F8F78FFD0446002C7FF4A4
:10D590003CAF3A98B06000BFEBE60000302C0408C6
:10D5A0002DE9F14F9AB01A9818F032FF04461A98F4
:10D5B00018F0D5FE1990204620F067FF0746204658
:10D5C0001FF0C8F9834607EBD771A28A02EB61010D
:10D5D00009B218910BEBDB714A10E18A114409B2D0
:10D5E000179107EBD7714E1014A816F0B7F914AACB
:10D5F0000021204621F020F94FF41D707043552181
:10D6000090FBF1F0642190FBF1F000B2ADF8520014
:10D61000BDF85200801C00B2ADF8520000201390FB
:10D620000021204620F033F80546002347F6FF721C
:10D6300004F114010DA817F03BF800210DA816F015
:10D64000B9F90C9000BFA08AADF82800E08AADF8C7
:10D650002A00208BADF82C00608BADF82E0000BFA7
:10D66000BDF82800284400B2ADF82800BDF82C0011
:10D67000401B00B2ADF82C00BDF82A00284400B2CF
:10D68000ADF82A00BDF82E00401B00B2ADF82E0008
:10D69000012347F6FF720AA904A817F009F8002130
:10D6A00004A816F087F90390BDF952804FF0000AE4
:10D6B0004FE051462046F9F765FF0090BDF80000A5
:10D6C000ADF850001398C0F30F290FFA89F026F037
:10D6D00055FF06EB08014843189901EBE03000B212
:10D6E000ADF804000FFA89F026F038FF06EB0801C8
:10D6F0004843179901EBE03000B2ADF806000FFA8D
:10D7000089F026F03BFF711BA1EB080148431899F3
:10D7100001EBE03000B2ADF808000FFA89F026F016
:10D720001DFF711BA1EB08014843179901EBE03085
:10D7300001B2ADF80A1002AB01AA14A9199816F0AB
:10D74000F6F80AF103001FFA80FA139800F58760D3
:10D750001390BAF5807FACDD0DA816F00DFC04A87F
:10D7600016F00AFC0C9817F08BF8039817F088F85D
:10D770001BB0BDE8F08F00002DE9F04FA5B00446C6
:10D780000F46254604F1140123A8BA68F7F7CAF931
:10D790002290229810B925B0BDE8F08FB86821908A
:10D7A00023A8B8600021204620F033F81E90002105
:10D7B000204620F048FA01461E98084400B21D9009
:10D7C0000021204620F0ABFB01461E98084400B221
:10D7D0001C9020461FF049F87E35E9884843001226
:10D7E00000B21B9020461FF021F8298948430012FF
:10D7F00000B21A9017A816F0B1F817AA0021204617
:10D8000021F01AF8394605A81EF044FD00201290B8
:10D810008C4806900020079017A80B904FF0FF301F
:10D82000139000200E900F9005AA1A21204618F0A0
:10D83000F5FD0020019031222046019920F0FEFBE9
:10D840000090009800F0FF0B00BF002120461FF061
:10D85000E0FF04900020019033222046019920F03F
:10D86000EDFB0090009800F0FF0800BF20461FF07D
:10D8700067F9039020461FF05DFA029035F87E09A3
:10D88000002865D0E18A1C9801440298081A00B269
:10D890000190A08AADF88000208BADF87C004FF09D
:10D8A0000009B5F87E000FFA80FABBF1020F1ADD0D
:10D8B0000498002817DD08F0020040B1002120463E
:10D8C00020F02DFB18B909F101000FFA80F908F0DA
:10D8D000010040B10021204620F0D8F818B9AAF183
:10D8E00001000FFA80FA4E462FE01A987043B5F8FF
:10D8F0007E10491E90FBF1F000B2ADF88200BDF839
:10D9000082100198084400B2ADF88200BDF8820090
:10D91000ADF87E004B4806900120079020A80E909D
:10D920001FA80F90139605AA1A21204618F076FD1D
:10D930001FAB20AA17A9384615F0F9FF05AA1B212D
:10D94000204618F06BFD701C06B25645CDDB00BFBB
:10D95000B5F88000002865D0A18A1D98014403987D
:10D96000081A00B20190E08AADF88200608BADF831
:10D970007E004FF00009B5F880000FFA80FABBF185
:10D98000020F1ADD0498002817DD08F0040040B1EA
:10D990000021204620F057F918B909F101000FFACB
:10D9A00080F908F0080040B10021204620F0F4F989
:10D9B00018B9AAF101000FFA80FA4E462FE01B9821
:10D9C0007043B5F88010491E90FBF1F000B2ADF83D
:10D9D0008000BDF880100198084400B2ADF88000C6
:10D9E000BDF88000ADF87C00164806900220079034
:10D9F00020A80E901FA80F90139605AA1A21204662
:10DA000018F00CFD1FAB20AA17A9384615F08FFFA0
:10DA100005AA1B21204618F001FD701C06B25645D0
:10DA2000CDDB00BF4FF0FF30139000200E900F9021
:10DA300005AA1B21204618F0F1FC2198B86000BF10
:10DA4000A9E60000302C04082DE9F14F9AB01A988D
:10DA500018F07DFC07461A9818F0DAFC05462C46AB
:10DA6000122F7DD11A9818F0D0FC06463078022883
:10DA700002D11BB0BDE8F08F94F8380000F003002D
:10DA8000032805D094F8380000F00300022802D1E2
:10DA900001203070EDE794F83800C0F384000428CA
:10DAA00008D094F83800C0F38400012802D0012087
:10DAB0003070DEE74FF0000A46225146284620F03B
:10DAC000BDFA19901998C0B2FF2802D00120307019
:10DAD000CFE70021284620F02FFC8146208E81448C
:10DAE000B9F1000F02D001203070C2E700212846B2
:10DAF00020F063FC8046E08E00FB08F04FEA20280F
:10DB00001A9818F082FC8346B8F5807F09D100226C
:10DB100005F114015846F7F746F8E8BB01203070CC
:10DB2000A7E728461EF016FF8246284620F0ADFCE7
:10DB3000179004F132001FFA88F100235246CDE914
:10DB4000001018A81799F7F7E3FABDF86000A98A42
:10DB5000084400B2ADF86000BDF86210E88A00E049
:10DB60001DE0084400B2ADF86200BDF86400A98A67
:10DB7000084400B2ADF86400BDF86610E88A0844B5
:10DB800000B2ADF86600002218A95846F7F70BF866
:10DB900018B9012030706CE700E000BF19E2152FC2
:10DBA00001D0182FFAD10021284620F006FC80462B
:10DBB000E08E00FB08F04FEA20280021284620F0E4
:10DBC000BBFB8246208E8244284620F05EFC1990E2
:10DBD00028461EF0BFFE1890002641F23202314660
:10DBE000284620F02BFA0E900E9800B2814600BF16
:10DBF00041F612023146284620F020FA0E900E9887
:10DC000048440FFA80FB00BF41F613023146284614
:10DC100020F014FA0E900E98484400B2179000BFFE
:10DC200041F610023146284620F008FA0E900E9870
:10DC3000484400B2169000BF41F611023146284612
:10DC400020F0FCF90E900E98484400B21590608EBA
:10DC5000584400B2ADF85000A18E1698084400B2A6
:10DC6000ADF8520094F8390000F00300012804D107
:10DC700012A928461EF018FE27E014A91FFA88F002
:10DC80000FFA8AF3CDE9000112A8DDE91821F7F7B0
:10DC90003FFABDF84800A98A084400B2ADF8480030
:10DCA000BDF84A10E88A084400B2ADF84A00BDF851
:10DCB0004C00A98A084400B2ADF84C00BDF84E10E3
:10DCC000E88A084400B2ADF84E0005F1140110A82E
:10DCD00011F099FF12A905F1140011F094FFBE484C
:10DCE0001A991EF0FDFC0F900F98012800D0C0E695
:10DCF00010A905F1140011F086FF152F7ED1E08DDB
:10DD000008B1A08D00B9B4E6B8F1000F00D1B0E6BB
:10DD10001A9818F024FB064605F114010DA811F01D
:10DD200072FF28461AF0E2FA0C9094F8390000F0DD
:10DD3000030001283CD1B4F92C10BDF93020891A18
:10DD4000481C00EBD071BDF83420A2EB610109B290
:10DD5000ADF83410B4F92C10BDF93020891A481CE4
:10DD600000EBD071BDF83820A2EB610109B2ADF82B
:10DD70003810B4F92E10BDF93220891A481C00EB76
:10DD8000D071BDF83620A2EB610109B2ADF83610B2
:10DD9000B4F92E10BDF93220891A481C00EBD0715D
:10DDA000BDF83A20A2EB610109B2ADF83A1013E0D8
:10DDB00012A812F01FF8BDF834100844401E00B23B
:10DDC000ADF8380012A811F08DFFBDF836100844E8
:10DDD000401E00B2ADF83A00BDF83400584400B21D
:10DDE000ADF83400BDF836101698084400B2ADF80E
:10DDF0003600BDF838101798081A00E0E8E000B2C5
:10DE0000ADF83800BDF83A101598081A00B2ADF810
:10DE10003A0094F8380000F00300012805D094F887
:10DE2000380000F0030000287AD106A815F079F92F
:10DE300006AA0021284620F039FC1FFA88F0ADF828
:10DE40001A001FFA8AF0ADF81800608EADF81C00B9
:10DE5000A18EADF81E1094F83800C0098DF82C0082
:10DE6000BDF84800584400B2ADF81000BDF84A10A3
:10DE70001698084400B2ADF81200BDF84C1017987F
:10DE8000081A00B2ADF81400BDF84E101598081A23
:10DE900000B2ADF81600B068039004AA04A8B168F7
:10DEA000F6F740FE00B9E4E504A8B060BDF836100E
:10DEB000608D084400B2ADF80600BDF90600BDF95A
:10DEC0003610884206DDBDF80600E18D401A00B22A
:10DED000ADF80600BDF80600E18D0844401E00B212
:10DEE000ADF80A0049E0BDF83400218D084400B2C5
:10DEF000ADF80400BDF90400BDF93410884206DD18
:10DF0000BDF80400A18D401A00B2ADF80400BDF8C0
:10DF10000400A18D0844401E00B2ADF8080016E0D0
:10DF200034E001AA06A93046636A15F0ABF8BDF8E3
:10DF30000400BDF83010084400B2ADF80400BDF88C
:10DF40000800BDF83010084400B2ADF80800BDF973
:10DF50000400BDF938108842E3DBBDF80600BDF8C7
:10DF60003210084400B2ADF80600BDF80A00BDF852
:10DF70003210084400B2ADF80A00BDF90600BDF940
:10DF80003A108842AFDB0398B06020E094F8380084
:10DF900000F00300022811D104A815F093FC04AA94
:10DFA0000021284620F0E1FB0020009005F114023A
:10DFB00004A93046636A15F0D1F808E000BF00BF3D
:10DFC000002305F114021946304615F05BF800BF36
:10DFD00000BF00BF4DE50000081E05082DE9F14F08
:10DFE000DCB05C9818F014FA05462C465C9818F0E2
:10DFF000B6F95B9059A928461EF056FC0020CDE9E1
:10E00000105040F60A02DDE9100120F017F80F90D9
:10E010000F9800B258900020CDE9105040F60B0246
:10E02000DDE9100120F00AF80F900F9800B2579028
:10E03000BDF864115898081A00B2ADF86401BDF833
:10E0400068115898084400B2ADF86801BDF866112F
:10E050005798081A00B2ADF86601BDF86A115798D2
:10E06000084400B2ADF86A0159A811F0B5FE834624
:10E0700059A811F029FE5690D4E90A10A0EB010925
:10E080005698834501DB012000E0002080460020F7
:10E09000559094F85C0000F0030001280BD1A06AB1
:10E0A000002808DAE06A002805DDA16A206B8842B2
:10E0B00001D101205590002128461FF0EBFD54901E
:10E0C000002128461FF08FFE5390002128461FF0A4
:10E0D0004DFF5290002128461FF0FFFC519059A996
:10E0E00004F1340011F07DFDA18E5498084400B273
:10E0F000A086218F5398081A01B22187E18E529889
:10E10000084401B2E186618F5198081A01B2618713
:10E11000B8F1000F13D004F1340011F0D5FD04283C
:10E120000DDA569800EBD0714A10E98A1144891E25
:10E130000AB2E286E08E001D01B2618715E0B8F1F7
:10E14000000F12D104F1340011F046FE04280CDA5D
:10E1500058460BEBD071AA8A02EB6101891E09B205
:10E16000A186A08E001D01B2218704F1340011F0B8
:10E1700033FE509004F1340011F0A6FD4F90B8F139
:10E18000000F01D0509800E04F988246B8F1000F80
:10E1900005D004F13406371DFE484C9004E004F12C
:10E1A0003606371DFC484C90A06D401CF8B1A36AA0
:10E1B000216DC91A01FB0AF191FBF9F108B2A36ABA
:10E1C000616DC91A01FB0AF191FBF9F10AB2131A48
:10E1D000D4F858C003FB0CF1CB1701EB13631B12EF
:10E1E0001BB24D934D99014409B24D9108E0A16ACB
:10E1F000206B401A00FB0AF090FBF9F000B24D9042
:10E20000A06C401CE0B1A36A216CC91A01FB0AF1A1
:10E2100091FBF9F108B2A36A616CC91A01FB0AF11A
:10E2200091FBF9F10AB2131AD4F848C003FB0CF1C0
:10E23000CB1701EB136300EB23231BB24E9308E0D3
:10E24000D4E90901401A00FB0AF090FBF9F000B292
:10E250004E900020119041F26A42284611991FF019
:10E26000EDFE10901098C0B24B90B8F1000F0ED098
:10E270004B9801280BD130463E4607464E994942FD
:10E2800009B24E914D99494209B24D9100BFB8F182
:10E29000000F0AD031884E98084400B23880318887
:10E2A0004D98084400B230800AE039884E98081A28
:10E2B000401C00B2308039884D98081A00B238806E
:10E2C000559878B3A26A524202FB0AF292FBF9F225
:10E2D00011B2B8F1000F0CD032880A4410B2B7F96D
:10E2E0000020824201DD30801BE03A883280388095
:10E2F00017E03A88521A521C10B2B6F90020824236
:10E3000001DD388002E032883A803080B7F90020A1
:10E31000B6F900309A4204DAB6F900003A88328041
:10E32000388000BF559800BB04F134004C998847F1
:10E3300001281ADC68465B991DF0ACFF4FF40030F1
:10E340000D90964801900020029004F13400039053
:10E350006A461A21284618F061F86A461B212846A9
:10E3600018F05CF85DB0BDE8F08F04F1340149A805
:10E3700011F037FC3BA816F0B1FA3BAA4FF400317C
:10E38000284620F0CDFA29A85B991DF083FF4FF4B1
:10E390000030369081482A9000202B903BA82D9089
:10E3A00004F134002C9029AA1A21284618F036F8D6
:10E3B000002011906022284611991FF03FFE109016
:10E3C000109800B228905698834501DA584600E02C
:10E3D00056982790DDE92701B1EB600F02DD279801
:10E3E00040102890BDF9EC0026904F995098884233
:10E3F00001DA509800E04F982790DDE92601B0EB54
:10E40000610F02DD279840102690B8F1000F08D068
:10E4100004F1340011F0E0FC01462698B1EB400F06
:10E420000BDCB8F1000F28D104F1340011F04CFCE2
:10E4300001462698B1EB400F1FDD9DF8EF001190CB
:10E440009DF8060110909DF80E010F9000208DF8A8
:10E45000EF008DF806018DF80E0104F134023BA99E
:10E460005B9816F01FFA11988DF8EF0010988DF850
:10E4700006010F988DF80E0100BFA98A5498084430
:10E4800000B2ADF87800298B5398081A00B2ADF8A5
:10E490007C00E98A5298084400B2ADF87A00698B92
:10E4A0005198081A00B2ADF87E0000231EA920A8DA
:10E4B000289A16F0FDF8002120A815F07BFA1D908F
:10E4C0009DF822011C909DF80E011B9000208DF8F4
:10E4D0000E018DF8220159A919A811F082FBBDF88F
:10E4E00064105498084400B2ADF86400BDF866109A
:10E4F0005298084400B2ADF86600BDF86810539811
:10E50000081A00B2ADF86800BDF86A105198081AF0
:10E5100000B2ADF86A00B8F1000F15D019A811F0DB
:10E52000D3FB042810DA569800EBD0714A10E98A20
:10E530001144891E09B2ADF86610BDF86600001DD1
:10E5400000B2ADF86A0017E0B8F1000F14D119A8B5
:10E5500011F042FC04280FDA58460BEBD071AA8A5E
:10E5600002EB6101891E09B2ADF86410BDF86400C8
:10E57000001D00B2ADF86800BDF9EC20002304F1E5
:10E58000340113A816F094F8002113A815F012FA1C
:10E59000129005E0D9FD0108C9FC0108601D0508BD
:10E5A00019AA3BA95B9816F07DF91B988DF80E010E
:10E5B0001C988DF8220100208DF8EF008DF80601DF
:10E5C0008DF8220104F134023BA95B9816F06AF938
:10E5D00013A815F0D1FC20A815F0CEFC129816F067
:10E5E0004FF91D9816F04CF929AA1B21284617F05F
:10E5F00015FF00BFB6E6F0B591B00546284617F006
:10E6000007FF0446284617F0AAFE0746264603A839
:10E6100016F064F903AA4FF44031204620F080F947
:10E6200047F6FF70ADF80C002C20805D00F0010073
:10E6300038B1204614F0A3F80090BDF80000ADF802
:10E640001000214601A809F0A1F901AA03A9384642
:10E6500016F028F911B0F0BD2DE9F04FB3B08146A6
:10E66000484617F0D5FE80464446484617F077FEE8
:10E670003290002140461FF065F8054640461FF0E5
:10E6800004FF824640461EF065F98346DA4501DB09
:10E69000012000E0002006460EB1584600E050463A
:10E6A0003190002794F85C0000F00300012806D1A7
:10E6B000A06A002803DAE06A002800DD0127002EA6
:10E6C0003CD097B93EB1012D02D1B4F9340009E034
:10E6D000B4F9380006E0012D02D1B4F9360001E0AA
:10E6E000B4F93A00ADF8BC0037E0606A002812DBEC
:10E6F0003EB1012D02D1B4F9340009E0B4F938007B
:10E7000006E0012D02D1B4F9360001E0B4F93A0077
:10E71000ADF8BC0021E03EB1012D02D0B4F93400C7
:10E7200009E0B4F9380006E0012D02D0B4F9360052
:10E7300001E0B4F93A00ADF8BC000EE01FB9E08E7C
:10E74000ADF8BE0009E0606A002803DBE08EADF89A
:10E75000BE0002E0608FADF8BE0021A816F0BEF842
:10E7600021AA4FF44031404620F0DAF833462FA971
:10E770004046319A28F00FF92FA904F1680011F0F2
:10E780004BFA0FA832991DF085FD4FF440301C90D4
:10E790003C481090002011901D9004F168001290E8
:10E7A00021A81390404623F030FA022810D00FAA77
:10E7B0001A21404617F032FE04F1680221A932986E
:10E7C00016F070F80FAA1B21404617F027FE55E0FF
:10E7D000382221A901A81BF0E4FF0FAA1A21404604
:10E7E00017F01CFE04F1680221A9329816F05AF8BD
:10E7F0000FAA1B21404617F011FE96B13EB1012D24
:10E8000002D0B4F9340009E0B4F9380006E0012D73
:10E8100002D0B4F9360001E0B4F93A00ADF8BC001A
:10E8200002E0608FADF8BE0033462FA94046319A12
:10E8300028F0B1F82FA904F1600011F0EDF93822A9
:10E8400001A921A81BF0ADFF0120119004F1600087
:10E85000129021A8139001201D900FAA1A21404662
:10E8600017F0DCFD04F1600221A9329816F01AF8C5
:10E870000FAA1B21404617F0D1FD00BF33B0BDE801
:10E88000F08F0000941E05082DE9F04790B0074670
:10E89000384617F0BDFD054628461EF0ABF8064683
:10E8A00008A815F00FF808AA002130461FF05DFFF8
:10E8B000384617F054FD0446D4F8088006F11402D7
:10E8C00006A8A168F6F72EF910B910B0BDE8F087D8
:10E8D00006A8A06004A9304609F008FDA88AADF892
:10E8E0000800E88AADF80A00288BADF80C00BDF8E6
:10E8F0001200ADF80E0002AA02A8A168F6F712F9FC
:10E9000098B1D4F8089002A8A06028461AF094FDA7
:10E9100082460020534605F1140208A900902046C3
:10E9200014F01CFCC4F8089000BFA88AADF80800D9
:10E93000BDF81600ADF80A00288BADF80C00688B06
:10E94000ADF80E0002AA02A8A168F6F7EBF898B19C
:10E95000D4F8089002A8A06028461AF06DFD8246FF
:10E960000020534605F1140208A90090204614F037
:10E97000F5FBC4F8089000BFC4F8088000BFA4E706
:10E980002DE9FF4FA1B0064614462498807B00F085
:10E990000F052298807E1F90032D00D10425012DA4
:10E9A00006D0022D0BD0042D10D0082D1DD114E05F
:10E9B000DFF86C834FF0800A02201E901AE0DFF827
:10E9C00064834FF0C00A04201E9013E0DFF85883E0
:10E9D0004FF0F00A10201E900CE0DFF850834FF04B
:10E9E000FF0A4FF480701E9004E000BF00BF25B006
:10E9F000BDE8F08F00BF1F98FD2823DACC480178CE
:10EA00001F98814203D1CB480068A84213D0002050
:10EA10000DE018F80010FF2901D11F9904E018F843
:10EA200000101F9A51430912C34A1154401C1E99E9
:10EA30008842EED300BFDFF80083BD491F980870FD
:10EA4000BC4805602498B0F806B0249800891B9053
:10EA50000BFB05F01A90B4F90000B168B1F9001091
:10EA6000884201DB002005E0B068B0F90000B4F98D
:10EA70000010401A1990B4F900005844B168B1F977
:10EA80000410884201DC584606E0B068B0F9040082
:10EA9000B4F90010401A401C1890B4F90200B16893
:10EAA000B1F90210884201DB002005E0B068B0F93E
:10EAB0000200B4F90210401A1790B4F902101B9822
:10EAC0000844B168B1F90610884201DC1B9806E0E1
:10EAD000B068B0F90600B4F90210401A401C169054
:10EAE0001A9917984843199901FB050015902E991A
:10EAF000159801EBD0002E90159800F007071C2107
:10EB00000DA81BF0DCFF22988089ADF83C0022980C
:10EB1000807E8DF84C002298807FC0F3C2008DF873
:10EB20004D00F7F7DBFD019013F0C2FF0C901B982E
:10EB30000BFB00F10C98814201DD0C9802E01B995F
:10EB40000BFB01F00B900B981BF010FD8146CDF8EC
:10EB5000409000200A9021881998084400B2ADF82E
:10EB60002000218818980844401E00B2ADF8240007
:10EB700061881798084400B2ADF82200BDF8220061
:10EB8000ADF8260000BFBDF82400BDF82010401AE3
:10EB9000401C00B2079000BFBDF82000ADF8140083
:10EBA000BDF82200ADF81600BDF82400ADF818003D
:10EBB000BDF82600ADF81A0000BFBDF81610169873
:10EBC000084400B2ADF81A0005A815F0F9F9049050
:10EBD00008A80D901290C5F10800039019980BEB4E
:10EBE00000011898081A6843029017981C9078E062
:10EBF0000A9801902AFA07F0209019981D9028E0B1
:10EC00002E980078209908400399C91BC840149099
:10EC1000149830B1149818F800100A9809F80010E8
:10EC200003E000210A9809F800100398874204D2F3
:10EC30002F442098E840209005E00027CDF880A0E0
:10EC40002E98401C2E900A98401C0A901D98401C3B
:10EC50001D9018991D988842D2DB0498A0B1BDF987
:10EC60002620BDF92010019B09EB0300079B15F03E
:10EC700057F98DF844009DF8440028B9019909EB33
:10EC8000010007991BF01BFFDDE91801411A0A98E2
:10EC900001440B98814206D2BDF82600401C00B208
:10ECA000ADF8260012E002208DF844000DA9304690
:10ECB00016F036F8BDF82600401C00B2ADF8220070
:10ECC000BDF82200ADF8260000200A900298074403
:10ECD0002E9800EBD7002E9007F007071C98401CD9
:10ECE0001C9016991C98884282DBBDF92200BDF960
:10ECF000261088420ED0BDF82600401E00B2ADF8A6
:10ED0000260002208DF844000DA9304616F008F8C0
:10ED100000200A9048461BF0A5FC00BF67E60000F3
:10ED20007C2A04087E2A04088A2A04089A2A0408ED
:10ED3000600100206401002014D500202DE9FF4F60
:10ED40008FB00C4615461E46B4F90200401E0E90C8
:10ED50000E9840100D900E9800F001010D98084497
:10ED60000C90B5F90000B6F90010884202DAB5F946
:10ED7000000001E0B6F90000ADF82800B5F9000088
:10ED8000B6F90010884202DDB5F9000001E0B6F9DD
:10ED90000000401E00B2ADF82C0069880C98081ADB
:10EDA00000B2ADF82A0069880D98084400B2ADF8A9
:10EDB0002E000F980AA982680AA8F5F7B3FE8246CA
:10EDC000BAF1000F02D113B0BDE8F08FE08818B19E
:10EDD000A08808B1012000E00020834601200990AE
:10EDE0000AA815F0EDF810B10020099004E0BBF17D
:10EDF000000F01D0002009901C2102A81BF05FFE2B
:10EE00000AA802902088ADF81000207A8DF8200022
:10EE1000099820B102A90F9815F082FF78E00AA89E
:10EE200010F0B7FF0746BDF92E000190BDF82A008B
:10EE3000ADF82E0000200090BBF1000F0BD0B4F90C
:10EE40000600B4F904100844BDF9281091FBF0F253
:10EE500000FB1210009038461BF088FB8046CDF86E
:10EE600014800AA80790BDF92A904AE03946404626
:10EE70001BF05CFEBDF928103BB20FFA89F2404648
:10EE800015F04EF88DF81800BBF1000F27D09DF853
:10EE9000180020B3009800211BE0B4F9042082423E
:10EEA00007DBA3881B1A1AB28B1819B2831818B281
:10EEB0000BE0B4F90620B4F904301A44824201DCB4
:10EEC000002002E0002208F801204A1C11B2421C76
:10EED00010B2B942E1DB02228DF8182000BF02A96E
:10EEE0000F9815F01DFFBDF82A00401C00B2ADF8C8
:10EEF0002A00BDF82E00401C00B2ADF82E0009F12A
:10EF0000010901988145B1DD40461BF0ABFB00BF14
:10EF100000BF58E72DE9FF4FC7B08B4691469A4690
:10EF2000B9F90200BAF90210884210DAB9F8020001
:10EF3000ADF81A01BAF80200ADF81601B9F80000F0
:10EF4000ADF81801BAF80000ADF814010FE0BAF8F6
:10EF50000200ADF81A01B9F80200ADF81601BAF8CE
:10EF60000000ADF81801B9F80000ADF81401BDF9C2
:10EF70001401BDF91811441ABDF91601BDF91A1191
:10EF8000451A002C01DD204600E06042002D01DD25
:10EF9000294600E06942884201DD012000E00020AE
:10EFA0004490BBF9026000204390449870B1002D5A
:10EFB00001DD284600E068424101002C01DD2046C9
:10EFC00000E0604291FBF0F043900DE0002C01DD89
:10EFD000204600E060424101002D01DD284600E0AE
:10EFE000684291FBF0F04390E0494398085C70431D
:10EFF0003F30C611771006F0010000EB0708BDF99D
:10F000001801BDF91411884202DABDF9180101E0B6
:10F01000BDF91401801B00B2ADF80401BDF918015F
:10F02000BDF91411884202DDBDF9180101E0BDF9F6
:10F030001401304400B2ADF80801BDF91A01BDF960
:10F040001611884202DABDF91A0101E0BDF9160174
:10F05000801B00B2ADF80601BDF91A01BDF9161109
:10F06000884202DDBDF91A0101E0BDF91601304404
:10F0700000B2ADF80A01479841A9826841A8F5F7A6
:10F0800051FD4090409810B94BB0BDE8F08F4498C6
:10F09000F0B3002C24DD0021BDF81601C01B00B226
:10F0A000CDE90001BDF91431BDF81A01C01B02B24F
:10F0B000BDF9181135A815F07DF80121BDF816012C
:10F0C000404400B2CDE90001BDF91431BDF81A0188
:10F0D000404402B2BDF918112AA815F06BF84AE0B5
:10F0E0000021BDF81601404400B2CDE90001BDF990
:10F0F0001431BDF81A01404402B2BDF9181135A807
:10F1000015F058F80121BDF81601C01B00B200E04F
:10F110000DE0CDE90001BDF91431BDF81A01C01BA5
:10F1200002B2BDF918112AA815F044F823E0002115
:10F13000BDF91601CDE90001BDF81401404403B248
:10F14000BDF91A21BDF81801404401B235A815F0E7
:10F1500031F80121BDF91601CDE90001BDF8140116
:10F16000C01B03B2BDF91A21BDF81801C01B01B2C2
:10F170002AA815F01FF8002135A814F01BFC1390E5
:10F1800000212AA814F016FC12904FF0FF301190C5
:10F1900010909BF80900C0F3001068BB0321BDF874
:10F1A0001A01204400B2CDE90001BDF81801401B4E
:10F1B00003B2BDF91A21BDF918111FA814F0FAFF06
:10F1C0000221BDF81601204400B2CDE90001BDF8CE
:10F1D0001401401B03B2BDF91621BDF9141114A886
:10F1E00014F0E8FF00211FA814F0E4FB11900021A7
:10F1F00014A814F0DFFB109041A810F0CAFD0F9086
:10F20000F7F76CFA019013F053FC0D9041A810F041
:10F2100077FD01460D98814203D241A810F070FDA0
:10F2200000E00D980C900C981BF0A0F90B90BDF924
:10F230000A010A90BDF80601ADF80A010020099004
:10F24000DDE90B011BF072FC1C2102A81BF037FC4E
:10F2500041A80290BBF80000ADF810009BF8080030
:10F260008DF820000B98059041A80790BDF9060184
:10F270000E9040E0BDF90411099B0B9AD0180F9A2B
:10F2800013B20E9A12B214F04BFE8DF818009DF8CE
:10F29000180028B9099A0B9988180F991BF00FFCD0
:10F2A0000F990998084409900F99099801440C98FE
:10F2B000814206D2BDF80A01401C00B2ADF80A0135
:10F2C00016E002208DF8180002A9479815F028FDD5
:10F2D000BDF80A01401C00B2ADF80601BDF80601F8
:10F2E000ADF80A0100200990DDE90B011BF01EFCBE
:10F2F0000E98401C0E900A990E988842BADDBDF90E
:10F300000601BDF90A1188420CD0BDF80A01401E61
:10F3100000B2ADF80A0102208DF8180002A9479842
:10F3200015F0FEFC0B981BF09DF935A814F024FE97
:10F330002AA814F021FE1198401C10B11FA814F047
:10F340001BFE1098401C10B114A814F015FE139861
:10F3500015F096FA129815F093FA119815F090FAA4
:10F36000109815F08DFA00BF8EE600009A2B040865
:10F370002DE9FF4F91B00C4615461E46B4F9020028
:10F38000401E1090109840100F90109800F001014E
:10F390000F9808440E9029880E98081A00B2ADF80C
:10F3A000300029880F98084400B2ADF83400B5F950
:10F3B0000200B6F90210884202DAB5F9020001E053
:10F3C000B6F90200ADF83200B5F90200B6F9021044
:10F3D000884202DDB5F9020001E0B6F90200401EE4
:10F3E00000B2ADF8360011980CA982680CA8F5F7A8
:10F3F00099FB8146B9F1000F02D115B0BDE8F08F3D
:10F40000E08818B1A08808B1012000E00020824601
:10F4100001200B900CA814F0D3FD10B100200B902C
:10F4200004E0BAF1000F01D000200B901C2104A8C9
:10F430001BF045FB0CA804902088ADF81800207A3A
:10F440008DF828000B9820B104A9119815F068FCDC
:10F4500066E00CA810F09DFC8346BDF936000390D1
:10F46000BDF83200ADF8360058461BF07FF8029028
:10F47000029807900CA8099000200190BAF1000FA3
:10F480000BD0B4F90600B4F904100844BDF93210E9
:10F4900091FBF0F200FB12100190019FBDF9328048
:10F4A00037E0594602981BF041FBBDF930100FFAC6
:10F4B0008BF30FFA88F2029814F032FD8DF82000D9
:10F4C000BAF1000F13D09DF8200070B1B4F9040018
:10F4D000B84202DA00208DF82000B4F90600B4F931
:10F4E00004100844B84200DC0027781C07B204A9C5
:10F4F000119815F015FCBDF83200401C00B2ADF8B3
:10F500003200BDF83600401C00B2ADF8360008F1FC
:10F51000010803988045C4DD02981BF0A3F800BFE2
:10F5200000BF6AE72DE9FC5F8046404616F070FF99
:10F530000746B946D9F824603446404616F00FFF16
:10F540000546606A00F114026846A968F5F7EAFA10
:10F550008246BAF1000F41D0D5F808B0C5F808D0FE
:10F5600094F83C00C0F3401048B3608FE18E8842AD
:10F570000CD1628F212329463046FDF7FBFA628FBA
:10F58000212329463046FDF761FB24E0628F2023CA
:10F5900029463046FDF7EEFA628F20232946304691
:10F5A000FDF754FBE28E012329463046FDF7E2FACF
:10F5B000E28E012329463046FDF748FB0BE0628FBF
:10F5C000202329463046FDF7D5FA628F20232946AD
:10F5D0003046FDF73BFBC5F808B000BFBDE8FC9F17
:10F5E0002DE9F14FD0B0509816F012FF0446254691
:10F5F000288E10B951B0BDE8F08F509816F0AFFECC
:10F600004F90608C20F00400001D60844DA92046BE
:10F610001DF04AF90026B246B4F82080002020846C
:10F62000608C20F00400001D608427A815F056F9B6
:10F630001FA814F047F927AA4FF4A02120461FF075
:10F640006FF91FAA4FF4A02120461FF08EF8608C9E
:10F6500020F004006084A4F82080002120461EF0E1
:10F6600092FC1E90002120461EF044FA1D900021BD
:10F6700020461EF01CFB1C90002120461EF0C0FB03
:10F680001B9009A84F991CF005FE4FF4A02016907E
:10F69000D7480A9000200B903DA80D9035A80E90F9
:10F6A00000BF9BE103E00AF101001FFA80FA696ADA
:10F6B00051F82A00CFA1F1F79DF90028F3D0E96AAB
:10F6C00031F81600F8F7EBFD00B181E10027E96A97
:10F6D00031F81600F8F7D3FD08B147F00107E96AE1
:10F6E00031F81600F8F7DFFD10B147F0800716E09B
:10F6F000A88EB04213D108F0200008B147F02007CF
:10F7000008F0020008B147F0020708F0040008B151
:10F7100047F0040708F0080008B147F00807A86A96
:10F7200000EBC6014BA810F065FABDF82C01BDF83E
:10F730003411084400B2ADF82C01BDF82E01BDF81B
:10F740003611084400B2ADF82E01BDF83001BDF805
:10F750003411084400B2ADF83001BDF83201BDF8F3
:10F760003611084400B2ADF8320157B9382227A942
:10F770003DA81BF016F820221FA935A81BF011F890
:10F780001DE02784608C20F00400001D60843DA8EB
:10F7900015F0A4F835A814F095F83DAA4FF4A0216F
:10F7A00020461FF0BDF835AA4FF4A02120461EF0D8
:10F7B000DCFFA4F82080608C20F004006084E96AFB
:10F7C00031F81600F8F777FD8346BBF1000F06D03D
:10F7D0009DF8F10040F001008DF8F10005E09DF882
:10F7E000F10020F001008DF8F1004BA80C90179665
:10F7F00009AA1A21204616F011FE9DF817014008AB
:10F8000000F01000F0B39DF8170120F03E001E300C
:10F810008DF81701BDF92C11B4F914201C9810446F
:10F8200081420AD19DF81701400820F004009DF89C
:10F83000171160F345018DF81711BDF93011B4F9B6
:10F8400018201B98101A81420AD19DF81701400810
:10F8500020F008009DF8171160F345018DF817118D
:10F86000BDF92E11B4F916201E98104481420CD116
:10F870009DF81701400820F002009DF8171160F371
:10F88000450100E014E08DF81711BDF93211B4F90B
:10F890001A201D98101A81420AD19DF817014008BC
:10F8A00020F001009DF8171160F345018DF8171144
:10F8B0004BA810F010FA814607F0200060B1E86A0A
:10F8C00030F8160000F4007030B1BDF82E01A0EB46
:10F8D000090000B2ADF82E014BAA3DA94F9814F0D3
:10F8E000E1FF35980890BDF9E8000790BDF9E60002
:10F8F0000690686A50F82A0005904DA810F073FA37
:10F9000003909DF8F11002460698CDE90121009080
:10F9100004A8DDE90732059924F01EFF4BA810F07A
:10F9200062FABDF91010401A039000EBD070BDF8D8
:10F930002C1101EB600000B2ADF82C014BA810F0C7
:10F94000CAF9BDF91210401A039000EBD070BDF84F
:10F950002E1101EB600000B2ADF82E01BDF82C01B4
:10F96000BDF81010084400B2ADF83001BDF82E010A
:10F97000BDF81210084400B2ADF8320107F02000C3
:10F98000C0B1E86A30F8160000F4007090B1484643
:10F9900009EBD071BDF82E21A2EB610109B2ADF8DF
:10F9A0002E1109EBD071BDF83221A2EB610109B231
:10F9B000ADF83211002000904BAA35A9059B4F9855
:10F9C00013F0CCFB09AA1B21204616F027FD00BF2F
:10F9D000701C86B20AF101001FFA80FA288EB0422C
:10F9E0003FF760AE608C20F00400608400BF01E649
:10F9F000981D05080A0000002DE9F14FA2B02298D9
:10FA000016F006FD04462546229816F0A8FC219023
:10FA1000002120461DF00AFF81462646002741F6B8
:10FA20001202394630461EF009FB0A900A984844F3
:10FA300000B2209000BF41F61302394630461EF056
:10FA4000FDFA0A900A98484400B21F90002120460F
:10FA50001EF0B3FA484400B21E9016A813F032FF0D
:10FA600016AA4FF4003120461EF07FFEA86A10B19E
:10FA7000D5F828800AE080201AF078FD064680221A
:10FA80003146204616F09EF9B04600BF4FF0000AFE
:10FA900095F83C0000F00F00012800D182460026B6
:10FAA00041F26A42314620461EF0C8FA0A900A988E
:10FAB000C0B2012800D18246E86A00287ED0E86AF8
:10FAC00018F026FD0A900A98022814D19DF87500B6
:10FAD00041F6FF72BDF96A10CDE900120290BDF93E
:10FAE0006C30169A07A8E96A24F036FEBDF91C604E
:10FAF000BDF91E7011E007A9E86A18F0B1F9834654
:10FB0000BBF1010F05D10798C0F38A260798470D6E
:10FB100002E04FF0FF36374600BFBAF1000F0DD0BC
:10FB2000A18A2098084400B2ADF82000BDF820005A
:10FB30003044401E00B2ADF824000DE0218B1F9828
:10FB4000081A801B00B2ADF82000BDF82000304438
:10FB5000401E00B2ADF824000A98022815D1E18AAF
:10FB60001E98084400B2ADF82200BDF822003844C7
:10FB7000401E00B2ADF826000020009008AA16A989
:10FB8000EB6A219813F0EAFA40E020461CF0E2FE0E
:10FB9000A0EB070B0BEBDB704110E08A084400B2CE
:10FBA000ADF82200BDF822003844401E00B2ADF886
:10FBB000260002A813F0B5FA02AA00E027E04FF4ED
:10FBC000003120461EF072FD304606EBD071491020
:10FBD00009B2ADF80C10384607EBD07149100AB2E3
:10FBE000ADF80E204FF4003B43F60F025946204675
:10FBF0001EF024FA0190019880B2ADF8080008AA1E
:10FC000002A9EB6A219813F03DFA00BF00BF0EA8CD
:10FC100013F058FE0EAA002120461EF0A6FD9DF806
:10FC2000550041F6FF72BDF94A10CDE9001202906D
:10FC3000BDF94C3041460DA80E9A24F08DFDE18AA5
:10FC40001E98084400B2ADF82E00BDF82E00BDF895
:10FC50003610084400B2ADF83200E86AB0B9204668
:10FC60001EF013FCBDF93410461A06EBD670A18ABB
:10FC700001EB600000B2ADF82C00BDF82C00BDF81F
:10FC80003410084400B2ADF8300022E0BAF1000FA1
:10FC900011D0218B1F98081ABDF83410401A00B2F9
:10FCA000ADF82C00BDF82C00BDF83410084400B2AB
:10FCB000ADF830000DE0A18A2098084400B2ADF8FC
:10FCC0002C00BDF82C00BDF83410084400B2ADF88B
:10FCD0003000002043460BAA0EA90090219813F093
:10FCE0003DFAA86A10B940461AF0BCFC23B0BDE842
:10FCF000F08F2DE9F14F90B0109816F089FB054672
:10FD00002C46109816F02BFB06460EA928461CF030
:10FD100057FD002794F84800C0F3001008B147F0E1
:10FD2000010794F84800C0F3401008B147F00207FB
:10FD3000002128461EF082FB42F2D171884205D193
:10FD4000688CC0F3802008B947F0040706A813F0B8
:10FD5000B9FDB4F84400ADF82E004620005BADF8C4
:10FD600030008DF8357006AA002128461EF0FDFCF3
:10FD70000DA8411E626A03780BB90123037000BF0E
:10FD8000284619F065FB0790284619F05BFB0890A0
:10FD90004FF6FF71079888421ED0089888421BD002
:10FDA0004FF4802B44F25742594628461EF046F93C
:10FDB000029002980390BDF80C00ADF8260000BF39
:10FDC0002022594628461EF039F9029002980390E5
:10FDD000BDF80C00ADF8280094F8480000F00700CA
:10FDE000022805D094F8480000F0070003281FD12E
:10FDF0009DF83400022803D09DF83400032817D161
:10FE000041F6FF71BDF92A008DE88300BDF92C3061
:10FE1000069A03A8616A24F09FFC0EA80FF0F1FF78
:10FE2000BDF90C10884202DA01208DF8340000BFC1
:10FE300004F1300894F8480000F00700032805D0CA
:10FE40000EA80FF056FFB0F5806F01DA4FF00008F2
:10FE50000EA904A8B268F4F765FE8146B9F1000F57
:10FE600002D111B0BDE8F08F94F8480000F007000F
:10FE700070B928461CF05EFF8346CBF1000002B249
:10FE800000210EA80FF0D5FF688BADF83E0000BF33
:10FE900094F8480000F00700022805D094F84800C4
:10FEA00000F0070003280ED1D6F808B004A8B0600F
:10FEB000CDF800800EAA06A93046636A13F04EF909
:10FEC000C6F808B007E0CDF800800EAA06A93046B3
:10FED000636A13F043F9D6F808A004A8B06094F858
:10FEE000480000F0070003284FD141F6FF71BDF92B
:10FEF0002A008DE88300BDF92C30069A03A8616AB8
:10FF000024F02AFC0EA80FF07CFFBDF90C108842EB
:10FF10001BDA20221146069816F0C5FB00EB4000C4
:10FF2000B4F84410BDF80C201144084400B2ADF8F8
:10FF30002E004620005BADF83000CDF800800EAA00
:10FF400006A93046636A13F009F90EA80FF0D1FE36
:10FF5000BDF90E10884217DAB4F84400ADF82E004F
:10FF6000069816F0BFFB4621095BBDF80E20114430
:10FF7000084400B2ADF83000CDF800800EAA06A902
:10FF80003046636A13F0EAF800BFC6F808A000BF65
:10FF900067E72DE9F14F9AB01A9816F0D8F9804624
:10FFA0001A9816F035FA0446B8F1150F16D11A98BA
:10FFB00016F0D5F9054618A9204608F097F90AA8C1
:10FFC00014F08CFC0AAA4FF4802120461EF0A8FCF5
:10FFD00018AA0AA9284614F065FCC5E0B8F1180F64
:10FFE000FBD11A9816F0BBF9054612A813F06AFC6B
:10FFF00012AA4FF4802120461EF0B7FB10A920461C
:020000040801F1
:1000000008F074F910AA0EA8A968F4F78BFD0D90FA
:100010000D9800287DD0204607F0ABFD8146204694
:100020001EF033FA8346484619F006FA022103907F
:10003000BDF95A00CDE901B10090BDF95C300CA8C2
:10004000129A039924F088FB20461CF083FC064694
:10005000304606EBD0714A10B4F916100A44B9F9CB
:100060001610891A0B9148461CF074FC0B998903F1
:1000700091FBF0F00B90002120461EF0C4F80A908E
:100080001299B1F908200A99B1F90810501A00EB39
:10009000D071491009B20991BDF832100998081AB7
:1000A00000B2ADF83200304606EBD0714A10B4F918
:1000B00016105718BDF932000B99484307EBA037CB
:1000C00009983F1A002120461DF0BDFB82464FF0E3
:1000D000000B41F61202594620461DF0AFFF039077
:1000E000039800B2089000BF41F61302594620461B
:1000F0001DF0A4FF0390039800B20790A18A08980E
:100100000844504400B2ADF8140038B2ADF81600FF
:1001100000E028E0218B0798081AA0EB0A0000B243
:10012000ADF81800BDF81600BDF83210084400B252
:10013000ADF81A009DF8650040F002008DF86500EA
:10014000A86804900EA8A860484619F075F983467F
:1001500000205B4605AA12A90090284612F0FEFF77
:100160000498A86000BF00BF1BB0BDE8F08F2DE968
:10017000F14FA8B0289816F04BF904462546289868
:1001800016F0EDF82790002120461DF0B7FD2690CF
:10019000002120461DF05BFE2590002120461DF029
:1001A00026FF2490002120461DF0CBFC239000BFA9
:1001B000A08AADF88400E08AADF88600208BADF807
:1001C0008800608BADF88A0000BFBDF884102698C7
:1001D000084400B2ADF88400BDF888102598081ACC
:1001E00000B2ADF88800BDF886102498084400B22B
:1001F000ADF88600BDF88A102398081A00B2ADF851
:100200008A0013A814F06AFB13AA4FF400312046A9
:100210001EF086FB21AA13A9279814F043FB0026A1
:1002200020461CF097FB074600BF208BA18A401A8E
:10023000401CC01B0FFA80F8686A401C40B1696A14
:1002400001FB08F0C11700EB116109120EB20CE0BE
:1002500020461DF0E3F900F0010BBBF1000F01D0C7
:10026000404600E00020064600BF4FF0000B41F280
:100270006A42594620461DF0E1FE00900098C0B247
:10028000012802D1A8EB060006B2A08A304400B2D1
:10029000ADF84400BDF84400384400B2ADF8480061
:1002A000E08AADF84600608BADF84A004FF440316B
:1002B00020461DF023FD81464FF4403120461DF0BD
:1002C000C6FD82464FF4403120461DF090FE10904E
:1002D0004FF4403120461DF034FC0F90BDF844002F
:1002E000A0EB090000B2ADF84400BDF8480050444E
:1002F00000B2ADF84800BDF846101098081A00B2D8
:10030000ADF84600BDF84A100F98084400B2ADF8A9
:100310004A0001A814F0E2FA01AA4FF44031204645
:100320001EF0FEFA11AA01A9279814F0BBFA29B011
:10033000BDE8F08F2DE9F14FE0B0609816F068F855
:1003400004462546609816F00AF8814604F1140127
:100350005EA8D9F80820F4F7E5FB10B961B0BDE854
:10036000F08FD9F808005D905EA8C9F808004FF03A
:10037000000841F23202414620461DF05FFE0C901B
:100380000C9800B25690002120461DF03DFE55907D
:10039000002120461DF0E2FB5490002120461DF074
:1003A000BAFC5390002120461DF05EFD52904FF4A0
:1003B000A02120461DF0AFFC51904FF4A021204613
:1003C0001DF052FD50904FF4A02120461DF01CFE60
:1003D0004F904FF4A02120461DF0C0FB4E90208C82
:1003E0004D9000202084608C20F00400001D60846B
:1003F0003FA814F073FA3FAA4FF4A02120461EF044
:100400008FFA29A813F05EFA29AA4FF4A0212046FA
:100410001EF0ABF94D982084608C20F004006084BD
:10042000002720461CF09AFC0146E28A55981044A9
:10043000401E411A5698084400B2ADF86E0120469D
:100440001CF082FC2090002120461DF088F9012834
:1004500000D100E000201F9049460DA81BF01AFFB4
:100460004FF4A0201A90FE480E9000200F9031A863
:10047000119021A812904FF0000B33E2E86A30F996
:100480001B000C90BDF86E01401C00B2ADF86A0173
:10049000BDF86A110C980844401E00B2ADF86E0118
:1004A000BDF96A01BDF97E11884200DD1EE21F9888
:1004B00058B1218B5298081A401E2099411A56981B
:1004C000081A00B2ADF868010AE0A18A53980844FE
:1004D000401E2099411A5698084400B2ADF86C01AC
:1004E0000026F7E100200B90A86A50F8270020B101
:1004F000A86A50F8270000780B901F9880B1BDF8CB
:100500006801401E00B2ADF86C01286B30F816008F
:10051000BDF86C11081A401C00B2ADF868010FE07C
:10052000BDF86C01401C00B2ADF86801286B30F8D2
:100530001600BDF868110844401E00B2ADF86C0109
:100540004FF0000800BF34E007EB0801A86A50F83C
:10055000210048B307EB0802A96A51F8220008B14C
:1005600001780B910B9901F00101D9B11F9961B18B
:1005700006EB0801491C2A6B32F81110BDF86821FE
:10058000511A09B2ADF868110DE006EB0801491CDB
:100590002A6B32F81110BDF86C21114409B2ADF884
:1005A0006C1100E00BE000E009E008F101001FFA27
:1005B00080F808EB0601A88C401E8142C4DB00BF16
:1005C000BDF96E01BDF97A11884207DA08F1010020
:1005D000384487B206EB080086B279E100BFBDF867
:1005E0006801ADF82400BDF86A01ADF82600BDF839
:1005F0006C01ADF82800BDF86E01ADF82A0000BF0F
:100600009DF81F01400800F0040090B1BDF92410CE
:10061000B4F914205398104481420ADDBDF91C013D
:1006200000EBD071BDF82420A2EB610109B2ADF856
:1006300024109DF81F01400800F0020090B1BDF9A0
:100640002610B4F916205598104481420ADDBDF9F0
:100650001C0100EBD071BDF82620A2EB610109B2AC
:10066000ADF826109DF81F01400800F00800B8B151
:10067000BDF92810B4F918205298101A401E814272
:100680000EDABDF91C0100EBD07182B202F001025A
:1006900002EB6101BDF82820114409B2ADF8281021
:1006A0009DF81F01C0F34000B8B1BDF92A10B4F99C
:1006B0001A205498101A401E81420EDABDF91C010E
:1006C00000EBD07182B202F0010202EB6101BDF8D1
:1006D0002A20114409B2ADF82A104FF0000AE88E22
:1006E000584523D1A88EB04220D194F8200000F0C4
:1006F000400030B994F8200000F0200008B14AF022
:10070000200A94F8200000F0020008B14AF0020A22
:1007100094F8200000F0040008B14AF0040A94F8AC
:10072000200000F0080008B14AF0080ABAF1000FF2
:100730000AD138223FA931A81AF033F8202229A97A
:1007400021A81AF02EF81EE0A4F820A0608C20F05A
:100750000400001D608431A814F0C0F821A813F033
:10076000B1F831AA4FF4A02120461EF0D9F821AAF1
:100770004FF4A02120461DF0F8FF4D982084608C96
:1007800020F00400608409A81090A88C0BFB006086
:100790001B900DAA1A21204615F040FE09AA31A986
:1007A000484614F07FF8A86A50F8270000287DD04A
:1007B000BDF868115198084400B2ADF86001BDF869
:1007C0006C115098081A00B2ADF86401BDF86A11B6
:1007D0004F98084400B2ADF86201BDF86E114E9812
:1007E000081A00B2ADF866010B98C0F340000890FB
:1007F000089810B10220579001E00020579000BFE8
:10080000BDF86401BDF86011401A401C00B20490AC
:10081000BDF9962004995798CDE900210290A86A65
:1008200050F82700411CBDF998305CA8299A23F0A4
:1008300093FF089818BB0C9901EBD172BDF86A318F
:1008400003EB6202BDF9720100EBD073A2EB63020D
:1008500012B2ADF862210C9901EBD17202E00000F6
:10086000CC1E0508BDF86A3103EB6202BDF97201C6
:1008700000EBD07302EB630212B2ADF866215AAA04
:100880005EA906A8F4F74EF90590059890B106A860
:10089000C9F8080000200090A86A50F82700431CFF
:1008A00058AA21A9484612F059FC00E003E05EA8CE
:1008B000C9F8080000BF0DAA1B21204615F0AEFDA7
:1008C00008F10100384487B206EB080086B200BF89
:1008D000701C86B2A88CB0423FF704AE0BF1010049
:1008E0001FFA80FBE88C58453FF7C8AD00BF5D9804
:1008F000C9F8080000BF31E52DE9F04FA3B0074665
:1009000089461646229730460FF058FA054600EB06
:10091000D5704FEA60083088404400B2ADF88400DA
:100920007088404400B2ADF886001EA813F016F897
:100930001EAA4FF4A02138461DF07EFF18A812F021
:10094000F0FB18AA4FF4A02138461DF0AFFE00219D
:1009500038461DF040F81790494605A81BF09AFC50
:100960007048069021A80E9022983030F5F7A2FB2F
:100970000446D1E025681694207901285CD1B5F9A8
:100980002000E98B08440090B5F92030D5E9051224
:10099000E06819F09DFD8246A88B00EB0801608A93
:1009A00008440FFA80FB0FFA8AF023F0E7FD00FB02
:1009B0000BF047F6FF7190FBF1F0BDF8861008448C
:1009C00000B2ADF812000FFA8AF023F0CFFD00FB61
:1009D0000BF047F6FF7190FBF1F0BDF8841008446E
:1009E00000B2ADF81000A08AADF87800208A00B2FD
:1009F000ADF87A006079FD2801DD179803E0607991
:100A00001799484300128DF88000012013901EA80A
:100A10000B9004A80F9005AA1A21384615F0FEFC89
:100A200004AB21AA1EA9484612F081FF05AA1B218A
:100A3000384615F0F3FC68E02079002865D120697C
:100A400000B963E0B5F92000E98B08440090B5F9DE
:100A50002030D5E90512E06819F03AFD824604A974
:100A6000206917F0FDF9BDF88410A08A081A00B2B9
:100A7000ADF80800BDF88610E08A081A00B2ADF89B
:100A80000A00BDF808000499C1F38A210844401EF9
:100A900000B2ADF80C00BDF80A00049900EB51500B
:100AA000401E00B2ADF80E006079FD2801DD1798F8
:100AB00003E060791799484300128DF86B00A08A13
:100AC000ADF86400E18A18A8C1800AEB8A004FEAF9
:100AD000400ABAF5616F01DDAAF5616A1FFA8AF072
:100AE000ADF8600018A80C9005AA1A21384615F038
:100AF00095FC02AA18A94846236912F0C3FA05AA70
:100B00001B21384615F08AFC00BF00BF2146229801
:100B10003030F5F7C9FA0446002C7FF42BAF23B030
:100B2000BDE8F08F683104082DE9F74F8AB00C4614
:100B3000904694F82A00022802DC0DB0BDE8F08F40
:100B4000E08C00B9F9E794F82A90B9F1FD0F01DDC6
:100B50004FF0FF09414608A80FF03AF8208D401EDB
:100B600005B2BDF82000401B00B2ADF82000BDF872
:100B70002200401B00B2ADF82200BDF8240028443A
:100B800000B2ADF82400BDF82600284400B2ADF84C
:100B9000260008A906A80FF01BF8BDF81800E18C84
:100BA000401A00B2ADF81800BDF81C00E18C0844F2
:100BB00000B2ADF81C00BDF81A00E18C401A00B27A
:100BC000ADF81A00BDF81E00E18C084400B2ADF883
:100BD0001E0008A80FF0E4F8824608A80FF058F8A5
:100BE0000746B4F90060BA4501DA504600E03846DD
:100BF0008346B6EB6B0F01DD4FEA6B06E08C3044A9
:100C000000B20590A07894F82A10CDE90210A08CCB
:100C1000ADF8040030B2009008AA06A9059B0A9816
:100C2000FBF754FC00BF88E7F8B50546284615F0E9
:100C3000EFFB0646284615F0E8FB0446606BB0F56E
:100C4000A02F54D1A06B072806D200202169C870BC
:100C5000216981F8220014E0208F81B220223046E1
:100C60000FF07CFF68B100202169C870216981F80C
:100C7000220012201FF044FD0090BDF800106069B2
:100C80008181208F81B24FF4004230460FF066FF21
:100C900098B166202169C870304623F045F900906C
:100CA000BDF800102069818030460FF051FFA16B24
:100CB000884202D1B2202169C870208F81B24FF4DE
:100CC000804230460FF04AFF88B1FF20216981F849
:100CD0002200304623F028F90090BDF8001020696A
:100CE000C1832069008C401C00B221690884F8BDD2
:100CF0002DE9F04F8BB08146484615F089FB05463B
:100D00002C46484615F02BFB8346606A18F094FB8E
:100D100082469AF8000000283ED1A06A00283BD005
:100D2000A06A0078C0B303A812F0CCFD03AA4FF468
:100D3000002128461DF019FD94F85C00C0F3C000A6
:100D400028B19DF8290040F002008DF8290000210B
:100D500028461CF0EDFF0746002128461DF061F9EA
:100D60008046002128461CF07BFD064605F1140153
:100D700001A80EF05AFF08EB060002B2B81901B242
:100D800001A80FF056F80020009001AA03A95846C8
:100D9000A36A12F0E3F900BF0BB0BDE8F08F7CB599
:100DA0000446A06985686089002856D1A08900287A
:100DB00053D1E088218988424FDAE18808B223F0D4
:100DC000DDFBB4F90410B4F90E20891A48432168F8
:100DD000498801EBE03000B2ADF80200E1885A31F9
:100DE00008B223F0CBFBB4F904104843216809880A
:100DF00001EBE03000B2ADF80400218908B223F025
:100E0000BDFBB4F9041048432168498801EBE03088
:100E100000B2ADF8060021895A3108B223F0AEFBCA
:100E2000B4F90410B4F90E20891A484321680988DE
:100E300001EBE03000B2ADF800002A466946684692
:100E4000F3F770FE06463EB1A169C1F808D06A46C4
:100E50002169A06913F026FDC2E0608910B1A08964
:100E600000287BD16089D0BB20680088ADF80000E5
:100E700020684088A188084400B2ADF80600E188E7
:100E800008B223F07BFBB4F90410B4F90E20891AE0
:100E900048432168498801EBE03000B2ADF8020018
:100EA000E1885A3108B223F069FBB4F904104843D1
:100EB0002168098801EBE03000B2ADF804002A4651
:100EC00069466846F3F72EFE06463EB1A169C1F8B1
:100ED00008D06A462169A06913F0E4FC00BFA0892C
:100EE00000287DD120680088A188084400B2ADF8B0
:100EF000040020684088ADF80200218908B223F080
:100F00003DFBB4F9041048432168498801EBE03007
:100F100000B2ADF8060021895A3108B223F02EFB49
:100F2000B4F90410B4F90E20891A484321680988DD
:100F300001EBE03000B2ADF800002A466946684691
:100F4000F3F7F0FD06463EB1A169C1F808D06A4644
:100F50002169A06913F0A6FC42E0FFE76089A1893E
:100F6000884205D1608918B12089E188884211DB67
:100F70006089022802D1A08901280BD0608903284A
:100F800002D1A089022805D06089032828D1A08930
:100F9000012825D120680088ADF80000206840882D
:100FA000ADF8020020680088A188084400B2ADF8BE
:100FB000040020684088A188084400B2ADF806000B
:100FC0002A4669466846F3F7ADFD06463EB1A1697B
:100FD000C1F808D06A462169A06913F063FC00BF1C
:100FE000A06985607CBD7CB50446A0698568608980
:100FF000012856D1A089012853D1E088218988424F
:101000004FDAE18808B223F0B9FAB4F90410484382
:101010002168498801EBE03000B2ADF80600E188B4
:101020005A3108B223F0AAFAB4F90410B4F90E2028
:10103000891A48432168098801EBE03000B2ADF815
:101040000400218908B223F099FAB4F90410B4F924
:101050000E20891A48432168498801EBE03000B22C
:10106000ADF8020021895A3108B223F087FAB4F9A9
:10107000041048432168098801EBE03000B2ADF864
:1010800000002A4669466846F3F74CFD06463EB125
:10109000A169C1F808D06A462169A06913F002FC71
:1010A000C7E06089012802D0A08901287ED160892B
:1010B00001283AD120680088A188401A00B2ADF812
:1010C000000020684088ADF80200E18808B223F0F3
:1010D00055FAB4F9041048432168498801EBE0301F
:1010E00000B2ADF80600E1885A3108B223F046FAA2
:1010F000B4F90410B4F90E20891A4843216809880C
:1011000001EBE03000B2ADF804002A4669466846BB
:10111000F3F708FD06463EB1A169C1F808D06A465A
:101120002169A06913F0BEFB00BFA0890128B7D1D7
:1011300020680088401E00B2ADF804002068408896
:10114000A188084400B2ADF80600218908B223F056
:1011500015FAB4F90410B4F90E20891A484321682D
:10116000498801EBE03000B2ADF8020021895A3124
:1011700008B223F003FAB4F904104843216809883F
:1011800001EBE03000B2ADF800002A46694668463F
:10119000F3F7C8FC06463EB1A169C1F808D06A461B
:1011A0002169A06913F07EFB43E0FFE76089A18914
:1011B000884206D16089012803D02089E1888842CD
:1011C0000FDB608910B9A08902280AD0608910B9A4
:1011D000A089032805D0608903282AD1A089022884
:1011E00027D120680088A188401A00B2ADF800001D
:1011F00020684088ADF8020020680088401E00B2D8
:10120000ADF8040020684088A188084400B2ADF819
:1012100006002A4669466846F3F784FC06463EB156
:10122000A169C1F808D06A462169A06913F03AFBA8
:1012300000BFA06985607CBD7CB50446A069856857
:101240006089022856D1A089022853D1E0882189DB
:1012500088424FDAE1885A3108B223F08FF9B4F9A5
:10126000041048432168098801EBE03000B2ADF872
:101270000000E18808B223F081F9B4F90410B4F950
:101280000E20891A48432168498801EBE03000B2FA
:10129000ADF80600218908B223F070F9B4F9041002
:1012A00048432168498801EBE03000B2ADF8020004
:1012B00021895A3108B223F061F9B4F90410B4F964
:1012C0000E20891A48432168098801EBE03000B2FA
:1012D000ADF804002A4669466846F3F723FC064643
:1012E0003EB1A169C1F808D06A462169A06913F02E
:1012F000D9FACCE06089022802D0A08902287DD1E9
:10130000608902283CD120680088401E00B2ADF8F8
:10131000040020684088A188401A00B2ADF802009D
:10132000E1885A3108B223F029F9B4F9041048438E
:101330002168098801EBE03000B2ADF80000E188D7
:1013400008B223F01BF9B4F90410B4F90E20891A7D
:1013500048432168498801EBE03000B2ADF806004F
:101360002A4669466846F3F7DDFB06463EB1A169A9
:10137000C1F808D06A462169A06913F093FA00BF4A
:10138000A0890228B5D120680088A188401A00B23F
:10139000ADF8000020684088401E00B2ADF806009D
:1013A00021895A3108B223F0E9F8B4F90410B4F9EC
:1013B0000E20891A48432168098801EBE03000B209
:1013C000ADF80400218908B223F0D8F8B4F904106C
:1013D00048432168498801EBE03000B2ADF80200D3
:1013E0002A4669466846F3F79DFB06464EB1A16959
:1013F000C1F808D06A462169A06900E002E013F054
:1014000051FA44E06089A189884206D160890228A6
:1014100003D02089E18888420FDB608910B9A08958
:1014200003280AD06089012802D1A089032804D0AA
:10143000608901282BD1A08948BB20680088A18839
:10144000401A00B2ADF8000020684088A188401A18
:1014500000B2ADF8020020680088401E00B2ADF86E
:10146000040020684088401E00B2ADF806002A46FD
:1014700069466846F3F756FB06463EB1A169C1F8D6
:1014800008D06A462169A06913F00CFA00BFA06970
:1014900085607CBD7CB50446A069856860890328A9
:1014A00056D1A089032853D1E088218988424FDA98
:1014B000E1885A3108B223F061F8B4F90410B4F9A4
:1014C0000E20891A48432168098801EBE03000B2F8
:1014D000ADF80000E18808B223F050F8B4F9041028
:1014E00048432168498801EBE03000B2ADF80200C2
:1014F00021895A3108B223F041F8B4F90410484365
:101500002168098801EBE03000B2ADF804002189C0
:1015100008B223F033F8B4F90410B4F90E20891A94
:1015200048432168498801EBE03000B2ADF806007D
:101530002A4669466846F3F7F5FA06463EB1A169C0
:10154000C1F808D06A462169A06913F0ABF9C7E079
:101550006089032802D0A08903287ED160890328EE
:101560003CD120680088A188084400B2ADF804008E
:1015700020684088401E00B2ADF80600E1885A316C
:1015800008B222F0FBFFB4F90410B4F90E20891A56
:1015900048432168098801EBE03000B2ADF8000053
:1015A000E18808B222F0EAFFB4F904104843216848
:1015B000498801EBE03000B2ADF802002A466946E6
:1015C0006846F3F7AFFA06463EB1A169C1F808D004
:1015D0006A462169A06913F065F900BFA089032854
:1015E0007ED120680088ADF8000020684088A1887E
:1015F000401A00B2ADF8020021895A3108B222F037
:10160000BDFFB4F9041048432168098801EBE030BC
:1016100000B2ADF80400218908B222F0AFFFB4F99E
:101620000410B4F90E20891A48432168498801EB57
:10163000E03000B2ADF806002A4669466846F3F786
:1016400071FA06463EB1A169C1F808D06A4621691F
:10165000A06913F027F943E0FFE76089A189884278
:1016600006D16089032803D02089E18888420FDBF6
:101670006089022801D1A08950B16089012801D177
:10168000A08928B1608902282AD1A089012827D100
:1016900020680088ADF8000020684088A188401AC2
:1016A00000B2ADF8020020680088A188084400B2AA
:1016B000ADF8040020684088401E00B2ADF8060076
:1016C0002A4669466846F3F72DFA06463EB1A169F7
:1016D000C1F808D06A462169A06913F0E3F800BF99
:1016E000A06985607CBD000070B5A4B006460D46BB
:1016F00020AA22A930461BF03BFB22A80EF000FBDB
:1017000028B920A80EF0FCFA08B924B070BD12A9BF
:10171000304627F017F90446012C00D0F5E729469A
:1017200068461AF0B7FD1B4801900220029012A8EB
:1017300004904FF480300D9022A80EF0E1FA80B1B1
:1017400022A803906A461A21304614F067FE22AAA6
:1017500012A9284613F0A6F86A461B21304614F059
:101760005DFE20A80EF0CCFA90B120A803906A4646
:101770001A21304614F052FE20A8039020AA12A984
:10178000284613F08FF86A461B21304614F046FEB7
:1017900000BFBAE7582A04082DE9F04FB1B005465A
:1017A0000F4605F114012FA8BA68F3F7BBF910B979
:1017B00031B0BDE8F08FB8682E902FA8B8602C46E5
:1017C000002128461CF03FFA2B90002128461CF0EF
:1017D000A6FB2A9028461BF048F8B4F8841048432A
:1017E00000120FFA80FA28461BF020F8B4F8861091
:1017F000484300120FFA80FB04F12400F4F73BFC8D
:101800002890002128461CF0D0F982346188484392
:10181000001227902188491E279801FB10A02188DB
:1018200090FBF1F000B2269028992698B0FBF1F0D9
:1018300000B225904FF4A02128461CF0B6F961882B
:10184000823C48430012249028461BF079F9014657
:101850002B98401A00B2239028461BF06BFA0146E1
:101860002A98401A00B2229014A813F037F814AA4C
:101870004FF4A02128461DF053F814A8C07B20F097
:10188000070114A8C173FF208DF85300688BBDF8C1
:101890005010084400B2ADF8B600394602A81AF05C
:1018A000F9FC4FF4A0200F905D48039004200490B1
:1018B0004FF00008AAE02798504400FB08F0B4F865
:1018C000821090FBF1F0A98A01442398084400B2E9
:1018D0000190CDF8408004F12400F4F7EBFB0646BC
:1018E0008CE0307B00F0010000B181E094F88800CA
:1018F000C0F3C00008B9708900E0002000B2009079
:101900000198ADF8B000BDF8B010259801442498B6
:10191000081A401E00B2ADF8B40025990198084499
:1019200000B20190BDF9B400BDF9BC10884200DAE4
:101930005EE0BDF9B000BDF9C010884200DD60E096
:101940003089ADF8540000984044B4F8821090FB00
:10195000F1F201FB12000FFA80F9706830F91910EA
:10196000307BC0F3001204F16C0030F91200081A49
:1019700000FB0BF02990307BC0F3001104F17000E4
:1019800030F91110307BC0F3001204F16C0030F913
:101990001200091A299890FBF1F029902998ABEBD5
:1019A0000001E88A01442298084400B2ADF8B20070
:1019B000706830F9190047F6FF71884217D02CA8DB
:1019C000059014A806901396706830F919001290CB
:1019D00002AA1A21284614F021FD2CAA14A938467F
:1019E00012F060FF02AA1B21284614F017FD00BF69
:1019F000314604F12400F4F757FB0646002E7FF42D
:101A000070AF00BF08F101001FFA80F8B4F882003F
:101A100040453FF750AF2E98B86000BFC8E60000C1
:101A2000302C04082DE9F34FB9B083463A980BF1F6
:101A30001401826837A8F3F775F810B93BB0BDE818
:101A4000F08F3A988068369037A93A9881605D4661
:101A5000B5F88200022800DAF0E7002158461BF0B2
:101A6000D8FE3390002158461CF0EDF8014633981B
:101A7000084400B23290002158461CF050FA01464A
:101A80003398084400B2319058461AF0EEFEB5F88B
:101A900084104843001200B2309058461AF0C6FE37
:101AA000B5F886104843001200B22F9058461BF03C
:101AB00047F80146BBF8142032981044401A00B28F
:101AC0002E9058461BF036F90146BBF81620319887
:101AD0001044401A00B22D903A980BF1140182681C
:101AE0002BA8F3F71FF82A902A9800B9A6E727A891
:101AF00011F034FF27AA4FF4A02158461CF09CFE99
:101B000019A812F0EBFE19AA4FF4003158461CF048
:101B100007FF4FF4003158461CF083FC064600EBEB
:101B2000D67047104FF4003158461BF0ECFE0646C5
:101B300000EBD6704FEA600ABDF99E00574501DA06
:101B4000394600E0514600EBD072B1EB620F06DD82
:101B50009DF8A50020F0100010308DF8A500BDF80C
:101B60009E00012806D19DF8A50020F0100010303D
:101B70008DF8A500B5F882103098814201DB012074
:101B800000E00020189005F12400F4F793FA0446D1
:101B9000D4E1207B00F0010000B1C9E12089ADF85B
:101BA0009C002089ADF8680095F88800C0F3C0005B
:101BB00008B9608900E0002006B217962E98ADF8AB
:101BC000D4002E98ADF8D000179E179EB0466068DE
:101BD00030F91810207BC0F3001205F16C0030F9C9
:101BE0001200081A2F9948431690207BC0F3001169
:101BF00005F1700030F91110207BC0F3001205F1DF
