:020000040800F2
:1000000048280120650300083B3B0008333B0008FB
:10001000373B00081D270008C13F00080000000012
:10002000000000000000000000000000A502000821
:100030002127000800000000010300083D3B0008E4
:100040008903000889030008890300088903000860
:100050008903000889030008890300088903000850
:100060008903000889030008890300088903000840
:100070008903000889030008890300088903000830
:100080008903000889030008890300088903000820
:100090008903000889030008890300088903000810
:1000A0008903000889030008890300088903000800
:1000B00089030008890300088903000889030008F0
:1000C00089030008890300088903000889030008E0
:1000D00089030008713F00088903000889030008AC
:1000E00089030008890300088903000889030008C0
:1000F00089030008890300088903000889030008B0
:10010000890300088903000889030008890300089F
:100110008903000889030008653B0008890300087B
:10012000890300088903000889030008890300087F
:10013000890300088903000889030008890300086F
:10014000890300088903000889030008890300085F
:10015000890300088903000889030008890300084F
:10016000890300088903000889030008890300083F
:1001700089030008890300088903000800000000C3
:10018000890300088903000800F002F800F07BF8FA
:100190000AA090E8000C82448344AAF10107DA45E2
:1001A00001D100F070F8AFF2090EBAE80F0013F0B9
:1001B000010F18BFFB1A43F001031847D488080049
:1001C000F48808000A444FF0000C10F8013B13F0CB
:1001D000070408BF10F8014B1D1108BF10F8015BA0
:1001E000641E05D010F8016B641E01F8016BF9D193
:1001F00013F0080F1EBF10F8014BAD1C0C1B09D1EA
:100200006D1E58BF01F801CBFAD505E014F8016B5B
:1002100001F8016B6D1EF9D59142D6D370470000ED
:100220000023002400250026103A28BF78C1FBD8FF
:10023000520728BF30C148BF0B607047662900F0E5
:1002400038A7672900F035A7642900F07381782961
:1002500000F0AC81732900F00487002070471FB5BF
:1002600040F01AFF00F0B8FF04000020002140F029
:10027000B5F8401C60600020002140F099F8E06073
:100280001FBD10B510BD01F0DFF81146FFF7E7FF05
:1002900036F0C4FF01F082FB03B4FFF7F2FF03BCAA
:1002A00008F09EF82C4B19680868B0E8F04F80F30E
:1002B0000988BFF36F8F4FF0000080F311887047FB
:1002C0000000000008480068006880F308884FF0CC
:1002D000000080F3148862B661B6BFF34F8FBFF39E
:1002E0006F8F00DF00BF00BF08ED00E0DFF80C00FB
:1002F000016841F470010160704700BF88ED00E0C3
:10030000EFF30980BFF36F8F134B1A681EF0100FC5
:1003100008BF20ED108A20E9F04F106009B44FF0BB
:10032000500080F31188BFF34F8FBFF36F8F3FF002
:100330004FF84FF0000080F3118809BC1968086875
:10034000B0E8F04F1EF0100F08BFB0EC108A80F339
:100350000988BFF36F8F704798000020EFF3058086
:10036000704700000C48016841F4700101600B48BF
:1003700080470B480047FEE7FEE7FEE7FEE7FEE7A3
:10038000FEE7FEE7FEE7FEE7FEE700000548064958
:10039000044A064B7047000088ED00E0513B00081E
:1003A0008901000848240120482801204824012010
:1003B000704753EA020C00F069802DE9F04B4FF0D2
:1003C0000006002B1FBFB3FA83F503FA05F424FAE5
:1003D00005F65E4012BF1643B2FA82F502FA05F442
:1003E000C5F120051EBF22FA05FC44EA0C042035A5
:1003F00056EA044C4FEA144418BF641C4FF000083E
:100400004FF00009904271EB030C39D3002919BF5A
:10041000B1FA81F701FA07F6B0FA80F700FA07F6A9
:10042000C7F120071EBF20FA07FC46EA0C0620375A
:10043000B6FBF4FCA7EB0507103F07F01F0BCBF151
:1004400020060CFA0BFB2CFA06F644BFB346002636
:10045000202FA4BF5E464FF0000B5BEA060C08BFDE
:100460004FF0010B19EB0B09ABFB027C48EB0608C4
:10047000C01B06FB02CC0BFB03CC71EB0C01C1E7EC
:100480000B46024641464846BDE8F08B13B54FF097
:1004900000004FF00001AFF30080BDE81C40704742
:1004A0000FB4044910B503AA029800F0DFFD10BC98
:1004B0005DF814FB140000200FB41CB5074B06AA0E
:1004C0007B4469460090059800F0A1FD0020694634
:1004D00000F0B0FD1CBC5DF814FB0000710B0000C7
:1004E00070B50C460546012A05D02878800600D54F
:1004F000EA69002302E0012305E05B1C934202D27B
:10050000E05C0028F9D1A869E618C01AA861286A39
:10051000184428622846AFF3008004E0D5E90121A1
:1005200014F8010B9047B442F8D32846AFF300808B
:1005300070BD00002DE9F0410646002410687529C1
:10054000314616A510D0AFF30080002802DA4042F1
:1005500013A507E031688A0701D512A502E0490713
:1005600004D511A5012401E0AFF3008000210A2287
:1005700006F1240709E0B0FBF2FCB0FBF2F302FB4A
:100580001C00303078541846491C0028F3D123460B
:100590002A463046BDE8F04100F0CBBA000000002A
:1005A0002D0000002B0000002000000070B5044664
:1005B0000D4621461068AFF300802188090502D559
:1005C0000F4A7A4402E00E4A7A440E32002104F1C6
:1005D000240305E000F00F060009965D5E54491CF7
:1005E0000028F7D120780023000704D5702D02D011
:1005F00009B1022311322046BDE8704000F099BADB
:100600008A7808002DE9F05F894604464FF0000A19
:10061000DFF824B1FB44C0F820A02046E1688847F9
:1006200000287DD0252806D0D4E901219047206AF2
:10063000401C2062F1E700255F462046E1688847BC
:100640002028064607DB312E05D2B81910F8200CF9
:1006500008B10543F1E7A80701D525F00405C4F862
:100660001CA00027C4F818A02A2E09D0304605F097
:10067000BAFD38B304EB8708303EC8F8186019E0BB
:1006800059F8041B204604EB87029161E168884712
:10069000012F064618D1E069002820DA25F0200550
:1006A0001DE0D8F8180000EB800006EB4000303861
:1006B000C8F818002046E1688847064605F093FD13
:1006C0000028EED1012F0AD02E2E08D12046E16855
:1006D00088477F1C0646022F45F02005C4DBA06931
:1006E000002803DA404245F00105A061E80701D087
:1006F00025F01005A6B1A6F14100192802D8203630
:1007000045F400654A463146204625604D46FFF7D0
:1007100095FD60B1012807D0ED1D25F0070000E030
:1007200007E000F1080978E705F1040975E73046AC
:100730007AE7206ABDE8F09F607808000EB50546AC
:1007400014460E4613A000F000FD284600F0FDFC04
:1007500016A000F0FAFC304600F0F7FC15A000F0FF
:10076000F4FC00218DF80B100A210DF10A008DF820
:100770000A1008E094FBF1F201FB124294FBF1F441
:10078000303200F8012D002CF4DC00F0DEFC00F02B
:10079000D1FC00002A2A2A20617373657274696F84
:1007A0006E206661696C65643A2000002C206669E1
:1007B0006C6520002C206C696E65200030B5054604
:1007C0000B462A4613F8014B12F8010B08B1A04260
:1007D000F8D01CB1002802D06D1CF1E7284630BDCE
:1007E00040EA0103024630B59B0710D14FF00134B7
:1007F00000E008C208C91D1B9D4315EAC41FF8D0BC
:1008000013F0FF0102F8011B0DD01B0AF8E711F8E5
:10081000013B002B02F8013B05D011F8013B002BF6
:1008200002F8013BF3D130BD10B5431C02E010F8D3
:10083000011B71B18107FAD14FF0013202C88C1A45
:100840008C4314EAC211F9D0C01A0A0603D0C01EA4
:1008500010BDC01A10BD0A0401D0801E10BD0902CF
:10086000FCD0401E10BD421E12F8013F002BFBD1F0
:1008700011F8013B002B02F8013BF9D17047032A24
:1008800040F2308010F0030C00F0158011F8013BAD
:10089000BCF1020F624498BF11F801CB00F8013B94
:1008A00038BF11F8013BA2F1040298BF00F801CB58
:1008B00038BF00F8013B11F0030300F06780083AED
:1008C000C0F0088051F8043B083A51F804CBA0E886
:1008D0000810F5E7121D5CBF51F8043B40F8043BDB
:1008E000AFF30080D20724BF11F8013B11F801CB10
:1008F00048BF11F8012B24BF00F8013B00F801CBE1
:1009000048BF00F8012B7047431A28BF9A427FF670
:10091000B6AF032A1044114440F2268010F0030FB2
:100920001EBF11F8013D521E00F8013D10F0030FEB
:100930007FF4F6AF11F0030300F02484083AC0F00E
:100940000B8051F8043D083A51F804CD40F8043DBD
:1009500040F804CDFFF7F3BF121D5CBF51F8043D12
:1009600040F8043DAFF30080D20724BF11F8013DE9
:1009700011F801CD48BF11F8012C24BF00F8013D4A
:1009800000F801CD48BF00F8012C704710B5203A9F
:10099000C0F00B80B1E81850203AA0E81850B1E838
:1009A0001850A0E81850BFF4F5AF5FEA027C24BFEE
:1009B000B1E81850A0E8185044BF18C918C0BDE8E5
:1009C00010405FEA827C24BF51F8043B40F8043BAE
:1009D00008BF7047D20728BF31F8023B48BF11F863
:1009E000012B28BF20F8023B48BF00F8012B7047BD
:1009F00002F0FF0343EA032242EA024200F002B897
:100A00004FF000020429C0F0128010F0030C00F037
:100A10001B80CCF1040CBCF1020F18BF00F8012BB5
:100A2000A8BF20F8022BA1EB0C0100F00DB85FEA83
:100A3000C17C24BF00F8012B00F8012B48BF00F84F
:100A4000012B70474FF0000200B5134694469646BE
:100A5000203922BFA0E80C50A0E80C50B1F12001D1
:100A6000BFF4F7AF090728BFA0E80C5048BF0CC07F
:100A70005DF804EB890028BF40F8042B08BF7047DD
:100A800048BF20F8022B11F0804F18BF00F8012B4F
:100A9000704700004FF0013C50F8042B51F8043B24
:100AA0009A4221D1A2EB0C03934313EACC1317D142
:100AB00050F8042B51F8043B9A4215D1A2EB0C03D9
:100AC000934313EACC130BD150F8042B51F8043B99
:100AD0009A4209D1A2EB0C03934313EACC13DBD067
:100AE0004FF00000704700BFD01A01BAB1FA81F18F
:100AF00001F0180122FA01F0CB40C1F12001DBB274
:100B0000C0B2C01A2CFA01F3D11A914311EAC311F1
:100B1000E6D17047704770477047704710B500F0D6
:100B20005FFB006810BD10B5044600F059FB04607F
:100B300010BD2DE9F0470D4699469246044600F156
:100B400024080168880604D5E06921F010012160BD
:100B500000E00120A84201DD471B00E00027A16959
:100B60007A1902EB0900081AA0612078C00602D4A5
:100B70002046AFF30080002608E0D4E901211AF8EE
:100B800006009047206A401C761C20624E45F4DB2C
:100B90002078C0060AD52046AFF3008006E0D4E9ED
:100BA000012130209047206A401C2062381EA7F1A6
:100BB0000107F4DC07E0D4E9012118F805009047AB
:100BC000206A401C2062281EA5F10105F3DC2046A6
:100BD000AFF300802078000602D50220BDE8F08740
:100BE0000120FBE770472DE9FF4F0C461E464FF0F2
:100BF000FF378BB0D2E90001DDF860800A908A46A9
:100C0000C1F30A5505B93D46002108464FF00000E2
:100C1000BAF1000F00F4400005DA00EB80004FF459
:100C2000400101EA50004FEA9059B9F1010F00DD8F
:100C3000B9460A9850EA4A000ED044F61050A5F280
:100C4000FF3545432F14B8F1000F1ED07542291E01
:100C50001EDDC9F100021CE0B8F1010F4FF00000E9
:100C600001D0302103E0F24305E02154401CB042A2
:100C7000FBDB30460022002121540B99C1F808808B
:100C8000C1E900200FB0BDE8F08FBD1B6D1CDEE791
:100C90004A4600DA694206A800F054FB06AB93E826
:100CA000070003AB83E8070050460A9901F001F9F9
:100CB0008DE80700A0F500501F3800900398002D24
:100CC0000ADD42F21F014A460844002303A90390AB
:100CD000684601F0ADFB09E0A0F500504A461F3818
:100CE000002303A90390684601F0CCFB8DE80700C0
:100CF0000004000C03D04FF0FF30410800E0104624
:100D0000B8F1000F03D00022009215461EE0751EB8
:100D100005D400F069FA303262556D1EF9D5B3463C
:100D20000122084302D000227F1C04E020783028F2
:100D300001D100227F1E002A099784D01DE0112DC9
:100D400007DA00F051FA303262556D1C50EA0102A8
:100D5000F5D1084302D00098C8B10EE00021681E0A
:100D600005E0235C625C63542254401E491C8142AE
:100D7000F7DBAB46A81B401E0990002004F80B00CF
:100D80000B98099AC0F80880C0E9002B7AE7112671
:100D90004FF0000857E72DE9F04F88460446D21D72
:100DA00022F0070191B0D1E90001CDE90A0103F079
:100DB00009F902460B98C00F01D02D2007E02068EA
:100DC000810701D52B2002E0202101EAC000032A7F
:100DD000099001D0072A05DB03464146204600F072
:100DE00051FA0BE12078800601D5E06900E0062089
:100DF000B8F1650F814606D0B8F1660F18D0B8F18A
:100E0000670F70D131E00020B9F1110F009001DBC4
:100E1000112301E009F101030AAA01A90CA8FFF7B7
:100E2000E2FEDDE90C70002609F10105834647E08A
:100E300001204B4600904FF000470AAA01A90CA8D8
:100E4000FFF7D1FEDDE90DB00C995D46002610B923
:100E500009F101000D18B9EB050003D4C0F1FF360C
:100E600009F10105A5EB09002BE0B9F1010F01DA49
:100E70004FF001090020B9F1110F0090484601DD43
:100E8000112300E003460AAA01A90CA8FFF7ABFE54
:100E9000DDE90C704D4600268346207800070AD411
:100EA000AB4500DA5D4601A8012D04DD411911F8BA
:100EB000011C302907D04F4502DA17F1040F04DA7C
:100EC000012082460FE06D1EEEE7002F02DCED1BD5
:100ED0003E4403E0781CA84200DD7D1CB81B00F1F5
:100EE000010A4FF000472078000703D4AA4501DB30
:100EF0004FF0FF3A0021B7F1004F0DF143088DF894
:100F0000431024D002202B23002F01DA7F422D230F
:100F10000A21021EA0F1010000DC5FB197FBF1FC89
:100F200097FBF1F201FB1C7C17460CF1300C08F822
:100F300001CDEEE7A8F1010003702188090501D574
:100F4000452100E06521A0F1010800F8011C099885
:100F50000FA9A1EB0807FF1D00B10120411901EB0A
:100F6000EA70A1693844081A401EA0612078C006C2
:100F700002D42046AFF30080099828B1D4E90121BA
:100F80009047206A401C20622078C00622D5204667
:100F9000AFF300801EE0002E04DBB34502DD01A8A4
:100FA000805D00E03020D4E901219047206A401C98
:100FB0002062761CAAF101005FEA000A0AD100F063
:100FC0000BF9C0680168405CD4E901219047206AB0
:100FD000401C2062281EA5F10105DCDC07E0D4E9F5
:100FE000012118F8010B9047206A401C2062381E2E
:100FF000A7F10107F3DC2046AFF30080032011B016
:1010000041E6000001694A1C02610878704700B59A
:101010008FB0CDE901310021059105497944CDE931
:10102000031011466846FFF7EDFA0FB000BD00004F
:10103000E5FFFFFF0A6802F8010B0A60704710B570
:10104000436913B1AFF3008001E0FFF749FA0120D3
:1010500010BD127800F124010A7000224A700122AA
:10106000EDE711684FF0FF32E9E70000074B70B57C
:101070000D467B44FFF7CBFF0446284600F0D4F929
:1010800010B14FF0FF3070BD204670BD1F4501000C
:101090000FB4002300B589B00CA900910B99CB6067
:1010A000214B7B440693214B7B44079304236FF031
:1010B0000042CDE901321E4A7A446B46089202464C
:1010C000002040F058F809B05DF814FB70B50646F2
:1010D0004FF0FF3015460C46324686B00091CDE900
:1010E000010169460020049004A8FFF7D1FF0246E1
:1010F0000498211825B108B1084600E02046286070
:10110000049800280DD0002A02DD0098884208D0FB
:101110003246081B69460094CDE9010404A8FFF794
:10112000B7FF06B070BD00005F020000770200004C
:10113000B701000010B5002000F07AF9FFF7A1F820
:10114000BDE81040012007F04BB910B5044602E09D
:10115000641C07F047F920780028F9D110BD431A24
:1011600028BF9A427FF612AC104410F0030F1144CE
:101170001EBF11F8013D521E00F8013D10F0030F93
:101180007FF4F6AF103AC0F00A8010B531E918507C
:10119000103A20E91850BFF4F9AFBDE810405307EA
:1011A00024BF31E9081020E9081044BF51F8043D7C
:1011B00040F8043D12F0030F08BF7047D20728BF64
:1011C00031F8023D48BF11F8012C28BF20F8023D3C
:1011D00048BF00F8012C70470048704704240120E4
:1011E00000487047E423012030B5B0F10A024FEA0D
:1011F000900E71F100034EEA817EB0EB0E0061EBC0
:1012000091014FEA101E4EEA017E10EB0E0041EBF9
:1012100011114FEA102E4EEA016E10EB0E0041EB59
:1012200011214FEA104E4EEA014E10EB0E0041EB39
:101230001141401841F100014FEAD00040EA4170ED
:101240004FEAD10110EB80054FEA810444EA907423
:1012500044EB01046D1944EB0404521BA3414FF00D
:10126000000348BF0A3200D530BD401C41F10001E7
:1012700030BD10B5044600F00DF90068005D00F0C7
:10128000010010BD2DE9F0411F4604460326016808
:10129000072A01F4006004DB08B116A505E016A5D5
:1012A00003E008B115A500E015A521F010002060AD
:1012B000A069C01EA0610FB1401EA0612046AFF31F
:1012C00000804FB1D4E9012138469047206A401C84
:1012D0002062C01C206206E0206AFAE7D4E90121FE
:1012E00015F8010B9047761EF8D22046AFF3008028
:1012F000BDE8F0814E414E006E616E00494E4600E1
:10130000696E6600426842B1016811F8013B23B181
:10131000521EC0E90012184670470121C160881EA4
:10132000704742685AB1C368016843B983688B4209
:1013300005D0491E521CC0E90012002070474FF032
:10134000FF3070472DE9F047814616468AB0354890
:1013500078440DC88DE80D0032487844801C03ACF9
:101360000DC884E80D0041F69B300844372190FBFE
:10137000F1F290FBF1F5A5F1800501FB12041B3C95
:1013800002D56442012000E00020DFF898A08046EA
:101390000027FA44AAF1BE0A0EE0E0070AD032465E
:1013A000684607EB470101230AEB810101F06AF867
:1013B0008DE8070064107F1C002CEED1194F7F448C
:1013C000AE3F19E0E80715D007EB04100DF1180A3D
:1013D00090E80E008AE80E00C068F04201D198192A
:1013E00008903246012306A903A801F04BF803AB8D
:1013F00083E807006D10641C002DE3D14FF001035A
:1014000032466946B8F1000F03A802D001F010F887
:1014100001E001F037F8C9E90001C9F808200AB075
:10142000BDE8F087006E0800007B00F08000704788
:1014300010B500F0C1FABDE8104000F0B8BA0000E5
:1014400000487047E42301207546FFF7F9FFAE46D8
:1014500005006946534620F00700854618B020B5C0
:10146000FEF794FFBDE820404FF000064FF0000764
:101470004FF000084FF0000B21F00701AC46ACE83C
:10148000C009ACE8C009ACE8C009ACE8C0098D46A9
:101490007047000010B5FFF79FFE001D10BD00BF94
:1014A0003DEF03002DE9FF4F06468BB00878FF287B
:1014B00006D0491C2D2805D000244FF0000908E073
:1014C00000200CE00124F8E709EB8903491C00EB3C
:1014D00043090878FF28F7D114B1C9F1000081460B
:1014E000107800252C46AA4629462D2801D02B2805
:1014F00004D1521C2D2813D0002082468B46107830
:10150000FF280FD04FF0000C0A21521CA5FB0178D8
:1015100004FB018105FB0C11C5194BEB0104EEE73F
:101520000120EAE7002108464FF00000BAF1000F61
:1015300002D000EB80004008C0F38157012F01DD8D
:101540004FF0FF370E9955EA040009EB01080BD064
:101550004FF0020918F5FA7F16DA4FEACA70002F29
:10156000706008DD012007E04FEACA70C6E900B0EC
:101570000FB0BDE8F08F00203060FFF731FEC0F8FB
:1015800000901821084616E0B8F5FA7F18DD002F04
:1015900002DAF748784401E0F6487844D0E90010D0
:1015A000C6E9001040EACA707060FFF719FEC0F883
:1015B0000090142108460FB0BDE8F04F3FF076BD13
:1015C000002108464FF00000B8F10001099002DA4E
:1015D000C7F1000200E03A4601DAC8F1000106A8AE
:1015E000FFF7B0FE06AB93E8070003AB83E8070004
:1015F00044F23E005BEA04010090584604D144F2F4
:101600001E012C465D460091210C0904014306D1C0
:101610000099240444EA15442D041039009104F083
:101620007F41014306D10099240244EA15642D024A
:101630000839009104F07041014306D1009924015A
:1016400044EA15742D01091F009104F04041014343
:1016500006D10099A40044EA9574AD00891E00915A
:1016600004F00041084304D100986D196441401E04
:1016700000904FF001033A466846B8F1000FCDE9FB
:10168000014503A902DD00F012FF01E000F0E5FED4
:10169000BAF1000F04460D4601D084F00044002149
:1016A00008464FF00000099940F2FF77484010F0DB
:1016B0000C0F07D124F00040284303D0C4F30A5094
:1016C000B84212D1FFF78CFDC0F80090C4F30A5065
:1016D000B8420AD1A8487844D0E90010C6E9001001
:1016E00004F000410843706042E7C6E900543FE758
:1016F0002DE9FF4F1F464FF0000A4FF0FF384546D7
:1017000091B0D7E90146CDF83CA0FFF765FDC06870
:101710000168405C1090B96912986D1C8847396A5D
:10172000814688470028F6D1B9F1FF3F0AD0002E44
:1017300024F4D06411DDB9F12B0F08D0B9F12D0FCD
:101740000BD102E0404615B013E744F48064B96958
:1017500012986D1C8847761E8146600504A901D544
:101760002D2000E02B20002E01F1010B0DF130089F
:101770008DF810003FDDB9F1690F08D0B9F1490FBC
:1017800005D0B9F16E0F02D0B9F14E0F1CD13B4616
:1017900001A8009580E85002DDE912126FF0020006
:1017A0003FF0EDFCC11CCED10EE0B96912986D1C62
:1017B000884781461398761E44F4007405600F989C
:1017C000401C002E0F9016DDB9F1300FEDD0B9F1AD
:1017D000780F02D0B9F1580F0DD10F9801280AD116
:1017E0003B46CDE90054DDE91212001F02963FF09E
:1017F000C4FCC11CA7D1109989453ED144F0800496
:1018000006E01399681CAAF1010A44F40074086008
:10181000B9696D1C1298761E884730288146F0D031
:101820002BE01099894505D1200603D4761E44F09B
:10183000800418E0484604F0D6FC08B3761E0DF18B
:1018400023018B4544F4007408D2A9F130000BF851
:10185000010B200607D5AAF1010003E0200602D4FF
:101860000AF101008246A00502D51399681C0860A0
:10187000B96912986D1C88478146002ED1DC53E06F
:10188000002E51DDB9F1650F02D0B9F1450F4BD1F2
:10189000A00549D5B9696D1C1298761E24F44074D0
:1018A0008847002E81460CDD2B2804D0B9F12D0F7E
:1018B00007D144F48074B96912986D1C8847761E6C
:1018C0008146E00501D52D2100E02B2108F8011B00
:1018D000CDF8008021E0761E0DF13901884544F4F1
:1018E00000740CD2A9F1300010F0FF0088F800005D
:1018F00002D10099884509D908F1010806E0E00500
:1019000001D51E4801E042F20F708246B969129873
:101910006D1C8847814613980560002E04DD4846FB
:1019200004F061FC0028D6D1F96912988847FF209D
:1019300053468BF8000088F8000000200A900B90B6
:1019400004AA0CA90AA8FFF7ADFDA00502D46FF008
:101950000100F8E614F0240F12D0E0071CD138681B
:10196000DDE90A12031D3B600068C0E9001213E0C4
:101970002075080012750800D6730800F1D8FFFF23
:101980000AA9684604F0ACFBE00705D13868009A64
:10199000011D3960006802602846D4E610B504468F
:1019A000AFF300802046BDE81040FEF775BC00286C
:1019B00001D006F015BD704710B5002102A000F05F
:1019C00013F8012010BD0000534947414252543AD8
:1019D0002041626E6F726D616C207465726D696E0C
:1019E0006174696F6E00000070B505460C460A20F0
:1019F00000E06D1C06F0F6FC35B128780028F8D11F
:101A000002E0641C06F0EEFC14B120780028F8D146
:101A1000BDE870400A2006F0E5BC00002DE9FF4F4C
:101A20001F464FF03C0987B04FF00042DDE914102B
:101A300001F10108DDF858A002EA405003900020AF
:101A400005908346054604460490B969461E0898E9
:101A50008847AAF1010A0290BAF1000F3BDD029813
:101A60002E2815D0102100F016FA00282EDB4FF09A
:101A7000010B0599014317D0B9F1000F0BDB4A4662
:101A8000C11700F0F5F905430C43A9F1040905E07D
:101A9000012004900BE008B145F0010501200590FC
:101AA000049820B9361D02E0049800B1361FB969C8
:101AB000089808F101088847BBF1000FAAF1010A54
:101AC0000290C9D00999C1F80080C5E70298702832
:101AD00008D0502806D0F96908988847BBF1000F54
:101AE00014D04FE0002002900120BBF1000F0490C1
:101AF00009D0B969089808F101088847AAF10109D5
:101B0000B9F1000F07DCF969089888476FF0010008
:101B10000BB0BDE8F08F2B2804D02D280CD14FF04E
:101B2000FF300490B969089808F101088847A9F1C5
:101B30000109B9F1000FE6DD411CE4D00A2100F0F3
:101B4000AAF90028DFDB029908F1010801EB810105
:101B500000EB41000290B969089888470A2100F01B
:101B60009AF9099AA9F10109B9F1000FC2F80080A8
:101B700001DD0028E7DAF969089888470499029896
:101B800000FB016655EA040004D004F0404109005E
:101B900002D006E0039898E0A40044EA9574AD00F2
:101BA000B61E04F00041080002D16D196441761E92
:101BB000159810F0240F03D04FF00B095C4803E098
:101BC0004FF028096FF07D008246564507DAAAEBF0
:101BD00006018944B9F1410F01DD4FF041090120AF
:101BE0000021A9F1010200F043F9024628400B460A
:101BF0002140084301D0012100E00021501E029144
:101C000043F1FF3128402140084301D0012000E08A
:101C100000200299834651EA0B014FD0002108466B
:101C20004FF00000039900F4400039B100EB800050
:101C30004FF4400100EBD07001EA600080150128EC
:101C400002DD4FF0FF3000E013D0401C36D0029888
:101C500060B3BBF1000F0CD14A460120002100F017
:101C600007F928402140084301D0012000E000206E
:101C7000E0B101204A46002100F0FAF8034640197D
:101C80000A4661412D1A8C4111D3B9F1400F09DD8B
:101C9000159810F0240F02D0AAF1340603E0AAF13F
:101CA000170600E0761C00254FF0004406E05B1E9E
:101CB00042F1FF3220EA030521EA0204CAF10100E1
:101CC000B04206DA1B4903980843019000200090B7
:101CD0000EE0039AC4F3D321E80A0A43164940EA06
:101CE00044500A433146CDE90002684604F001FA47
:101CF000159810F0240F0BD01598C00715D138682F
:101D0000DDE90012031D3B600068C0E900120CE031
:101D100002A8694604F0E4F91598C00705D13868AF
:101D2000029A011D3960006802604046F0E600003A
:101D300002FCFFFF0000F07F0000F03F2DE9FF4FA5
:101D400092461D4685B04FF00041DDE9124BDDE9BA
:101D500014727F1E01EA4B50414940F0FF4940EAAE
:101D60000108002122F020004928049102D04E28C9
:101D700028D04CE03BA0012607C88DE80700A969E0
:101D80000698641C88477F1E014606D41DF806008D
:101D900018B121F0200181420BD0E96906988847EB
:101DA000032E34D0082E32D06FF0010009B0BDE808
:101DB000F08F761C032E01D0082EE0D1601CCAF8EB
:101DC0000000DCE7A9690698641C88477F1E2AD4B6
:101DD00020F02000412826D1A9690698641C884774
:101DE0007F1E20D420F020004E281CD1A96906981F
:101DF000641C88477F1E48F4002849F48009CAF80B
:101E0000004001D4282806D0E969069888475FEA8F
:101E1000CB7012D022E0A9690698641C88477F1E07
:101E200001D4002803DAE96906988847BCE7292825
:101E3000F1D1641CCAF80040E9E71BF0240F07D079
:101E400028680499031D2B600068C0E9001805E0AC
:101E50002868021D2A600068C0F800902046A5E7A7
:101E60000000F07F494E46494E4954590000000099
:101E7000B2F120030AD5C2F1200301FA02F120FADF
:101E800003F300FA02F041EA0301704700FA03F19C
:101E90004FF0000070473A2800D2303820F020027E
:101EA000412A01D3A2F13700884201D34FF0FF301D
:101EB00070475FEA400C08BF91F0000F4FEA8C2397
:101EC0004FEAC12243EA51514FEA1C5018BF00F5B6
:101ED000F0404FEA300018BF41F000415FEA6C5C0F
:101EE00000F02980BCF1FF3F08BF40F08040704700
:101EF000130C06BF12044FF0100C4FF0000C130E21
:101F000004BF12020CF1080C130F04BF12010CF1F4
:101F1000040C930F04BF92000CF1020CD30F04BF0A
:101F200052000CF1010C11464FF00002A0F11F000D
:101F3000A0EB0C00704711F0004F08BF704731F064
:101F400000413FF4D5AF0B0C06BF09044FF0100C55
:101F50004FF0000C0B0E04BF09020CF1080C0B0F24
:101F600004BF09010CF1040C8B0F04BF89000CF1B4
:101F7000020CCB0F04BF49000CF1010CCCF1200383
:101F8000A0EB0C0022FA03F302FA0CF241EA03017F
:101F900000F10100704720F07F4C80EA030023F03D
:101FA0007F47ACEB070303F57C5300F0004003F1DF
:101FB000FF032DE980494FEA154B09B44FEA14435A
:101FC00025EA0B4E24EA03480FF2042606EB1327FA
:101FD00049083E785FEA320203FB0667C7F500074F
:101FE00007FB06F64FEA54374FEAD64606F10206DB
:101FF00007FB066CCCF1005C4FEA1C472CEA074C4F
:1020000007FB06F40CFB06F504EB15464FEA9616A3
:1020100034BF00204FF000404FEAD13706FB07FCE9
:102020004FEA1C4C0CFB0BF7D21B03FB0CF761EBCC
:1020300007010CFB0EF7B0EB074072EB17420CFBED
:1020400008F734BFA2EB0742B2EB074261EB17413E
:102050004FEA0C444FEA910706FB07FC4FEA1C4C81
:102060000CFB0BF7B0EBC74072EB573203FB0CF7DE
:1020700034BFA2EBC742B2EBC74261EB57310CFB56
:102080000EF7B0EBC70072EB57720CFB08F734BFCA
:10209000A2EBC702B2EBC70261EB5771039F4FEA95
:1020A000816141EA921104EBCC044FEAD1374FEA47
:1020B000826206FB07FC42EA90124FEA80604FEA18
:1020C0001C4C0CFB0BF7D21B03FB0CF761EB07015D
:1020D0000CFB0EF7B0EB074072EB17420CFB08F756
:1020E00034BFA2EB0742B2EB074261EB17414FEA64
:1020F0008C554FEA910704EB9C2406FB07FC4FEA42
:102100001C4C0CFB0BF7B0EBC74072EB573203FBD8
:102110000CF734BFA2EBC742B2EBC74261EB5731B9
:102120000CFB0EF7B0EBC70072EB57720CFB08F715
:1021300034BFA2EBC702B2EBC70261EB577115EBDC
:102140004C254FEA816141EA92114FEA82624FEADF
:10215000D13742EA901206FB07FC44F100044FEA33
:1021600080604FEA1C4C0CFB0BF7D21B03FB0CF7F7
:1021700061EB07010CFB0EF7B0EB074072EB174267
:102180000CFB08F734BFA2EB0742B2EB074261EB4E
:10219000174115EB1C154FEA813141EA92414FEA94
:1021A000823242EA90424FEA80304FEA0C7644F1A4
:1021B000000448EA03434EEA0B484FF0000EB2EB2E
:1021C000080C71EB030724BF624639464EEB0E0E36
:1021D0004FF0000B0018524149414BEB0B0BB2EB97
:1021E000080C71EB03077BF1000B24BF62463946F4
:1021F0004EEB0E0E4FF0000B0018524149414BEBD5
:102200000B0BB2EB080C71EB03077BF1000B24BF47
:10221000624639464EEB0E0E51EA020718BF46F0F1
:10222000010616EB0E7655F1000254F1000103D5BC
:10223000BDE88901BDE80088BDE88901BDE8004826
:10224000B619524141EB0101A3F1010370478080AF
:102250007F7E7D7C7B7A7978777676757473727100
:1022600071706F6E6E6D6C6C6B6A6A6968686766B8
:1022700066656464636362616160605F5F5E5E5D4A
:102280005D5C5C5B5B5A5A595958585757565655BE
:1022900055555454535352525251515050504F4F20
:1022A0004F4E4E4D4D4D4C4C4C4B4B4B4A4A4A4970
:1022B00049494848484747474746464645454544B3
:1022C000444444434343434242424241414100006B
:1022D00046EA0646A3F570534FEA164646EA4256CA
:1022E0004FEAD22242EA415210B54FEAD121A3F17E
:1022F000010300F02FF820F0004000F1020C00F084
:10230000004701EB00501146BCF5006F40EA0700A2
:1023100000D210BDBAF1000F0AD01CB503B44FF0C3
:1023200004004FF004014FF000000FBCBDE8104066
:102330004FF00001BBF1010FB9BF04484FF0FF316E
:102340000348002140EA070010BD00BFFFFFEF7FF8
:102350000000F07F002B9C4630D477002BD01CB5BA
:102360004FEA370703B44FF010004FF01001BAF1F5
:10237000000F06D0BCF1000FDCBF40F0080040F0B9
:1023800008014FF000000FBCBDE810400BF1010B3D
:10239000BBF1010F08BF5FEA170722BF12F101026C
:1023A00011F101014FF0004143F1000300F0004042
:1023B00043EA00007047F9D35708D0E746EA0646DB
:1023C00013F1400F4FEA16461FDD13F1200FDFBF58
:1023D00016430A46002120335B42BED0C3F12007DA
:1023E00046EA064602FA07F74FEA164646EA0706A5
:1023F000C3F1200722FA03F201FA07F721FA03F1E9
:102400004FF0000342EA0702A7E746EA020646EA5F
:1024100006464FEA164646EA0106BCBF46EA0646AD
:10242000360C4FF000034FF000024FF0000194E72C
:102430002DE9804C9A46934670B491E8380007C85D
:1024400031EA400C48BF34EA430C03D5FFF7A3FD43
:10245000FFF780FFF0BCBDE8008C2DE9804C9A4668
:10246000934670B491E8380007C831EA400C48BF81
:1024700034EA430C03D5FFF78EFDFFF729FFF0BCCC
:10248000BDE8008C2DE9804C9A46934670B491E8E3
:10249000380007C810F0804F08BF13F0804F03D1F9
:1024A00000F01AF8FFF756FFF0BCBDE8008C2DE9EC
:1024B000804C9A46934670B491E8380007C810F0F3
:1024C000804F08BF13F0804F03D100F005F8FFF7ED
:1024D000FFFEF0BCBDE8008C20F07F4780EA0300DF
:1024E00023F07F4C07EB0C03A3F57C5300F0004076
:1024F000A3F1FE0392F0000F00F0B38095F0000FFF
:1025000000F077802DE901494FEA11404FEA144667
:1025100021EA004800FB06FC24EA064708FB06F611
:1025200007FB08F800FB07F718EB06484CEB164CC6
:102530004FEA124B18EB07484FEA15464CEB174091
:1025400022EA0B4E0BFB06FC25EA06470EFB06F6BD
:1025500007FB0EFE0BFB07F71EEB064E4CEB164C73
:102560004FF000061EEB074E4CEB174B18EB0B0819
:1025700040F1000018EB0E0B58EB000840F1000092
:102580008F1A4FF000013CBFC943661B14BFB5EB67
:10259000040C00213CBFC943F61B4FEA17444EEA26
:1025A0008E0E27EA04454FEA1C4704FB07622CEA1B
:1025B000074C05FB07F70CFB05F604FB0CFC16EBC0
:1025C000074642EB174216EB0C4642EB1C421BEB54
:1025D000060658EB0202414146EA9E0601D5BDE8D7
:1025E0000189B619524141EB0101A3F10103BDE894
:1025F00001894FEA14454FEA114724EA054621EACA
:10260000074C05FB07F406FB07F70CFB06F105FB7F
:102610000CFC11EB074144EB17444FEA124711EB56
:102620000C4144EB1C4422EA074C05FB07F206FB75
:1026300007F70CFB06F605FB0CFC16EB074642EB16
:10264000174216EB0C4642EB1C456A1854F1000188
:1026500048BF7047B619524141EB0101A3F1010394
:10266000704795F0000F37D04FEA11424FEA1447F8
:1026700021EA024624EA074C02FB07F106FB07F7B2
:102680000CFB06F402FB0CFC14EB074441EB174176
:102690004FEA154714EB0C4441EB1C4125EA074C6B
:1026A00002FB07F506FB07F70CFB06F602FB0CFC2A
:1026B00016EB074645EB174516EB0C4645EB1C425F
:1026C000121951F1000148BF7047B619524141EB50
:1026D0000101A3F1010370474FEA14454FEA114786
:1026E00024EA054621EA074C05FB07F106FB07F73C
:1026F0000CFB06F24FF0000605FB0CFC12EB074248
:1027000041EB174112EB0C4251EB1C4148BF7047A3
:10271000921841EB0101A3F10103704700BFFEE7EE
:102720007047000070B504461D460023B5F5804F84
:1027300013D154F822300C480340D1E9000640EA96
:1027400006108E6840EA06208E8940EA06408E69AF
:102750003043034344F8223003E06FF0704044F804
:102760002200002070BD00000000F0CF10B503462D
:102770000022086853F8202012480240D1E90104E1
:102780002043CC6820430C6920434C6920438C696A
:102790002043CC6920430C6A20434C6A20438C6A56
:1027A0002043CC6A2043CC6B20430C6B2043024374
:1027B0008868082801D142F04002086843F82020C8
:1027C000002010BD8000F0FF30B503460024501CEF
:1027D00053F8204004F04044D1E9000540EA0510D8
:1027E0008D6840EA05208D8940EA0545088A401E2B
:1027F00045EA0055087D801E45EA00608D69284342
:102800000443501C43F82040002030BD70B50446FE
:10281000A56D00F085F9064694F83500022808D029
:102820008020606500BF002084F8340000BF0120D4
:1028300070BD2068006820F01600216808602068DC
:10284000406920F0800021684861206C08B9A06CC4
:1028500028B12068006820F008002168086020681E
:10286000006820F00100216808600FE000F058F9CE
:10287000801B05280AD92020606500BF002084F84D
:10288000340000BF032084F83500D1E720680068D9
:1028900000F001000028E9D194F85C103F20884046
:1028A000A86000BF002084F8340000BF012084F835
:1028B00035000020BCE7014691F83500022803D01E
:1028C0008020486501207047052081F835000868A0
:1028D000006820F001000A6810600020F3E70000A3
:1028E000F8B502460B460025002400200021DEE05A
:1028F000012606FA01F51E6806EA0504AC4275D108
:102900001E7906F00306012E04D01E7906F0030698
:10291000022E13D190684F000326BE40B0434F00F3
:10292000DE68BE4030439060506801268E40B04360
:102930001E79C6F300168E40304350601E7906F0B3
:102940000306032E09D0D0684F000326BE40B043D3
:102950004F009E68BE403043D0601E7906F00306EB
:10296000022E13D1CF0802F1200656F827004E0799
:10297000F70E0F26BE40B0434F07FF0E1E69BE4044
:102980003043CF0802F1200646F8270010684F00B8
:102990000326BE40B0431E7906F003064F00BE403A
:1029A000304310605E6806F08056B6F1805F7DD1DE
:1029B00000BF00260096404E366846F480463E4FE3
:1029C0003E603E46366806F48046009600BF00BF73
:1029D0003A4E8F0856F827008E07370F0F26BE4055
:1029E000B043374EB24202D1002624E05EE0354EBD
:1029F000B24201D101261EE0334EB24201D102267D
:102A000019E0324EB24201D1032614E0304EB242F8
:102A100001D104260FE02F4EB24201D105260AE073
:102A20002D4EB24201D1062605E02C4EB24201D114
:102A3000072600E008268F073F0FBE4030431F4E99
:102A40008F0846F82700264E3068A0435E6806F4DB
:102A50008036B6F5803F00D12043214E3060361DD0
:102A60003068A0435E6806F40036B6F5003F00D13A
:102A700020431B4E361D3060361D3068A0435E6813
:102A800006F48016B6F5801F00D12043144E083698
:102A90003060361D3068A0435E6806F40016B6F557
:102AA000001F00D120430E4E0C363060491C102907
:102AB000FFF41EAFF8BD0000443802400838014062
:102AC000000002400004024000080240000C0240E6
:102AD000001002400014024000180240001C024096
:102AE000003C0140024613690B400BB1012000E09D
:102AF0000020704710B5426921EA020302EA01048E
:102B000043EA0443836110BD0AB1816101E00B0413
:102B10008361704701480068000C7047002004E0A2
:102B200001480068704700001C000020034800684E
:102B30000349097808440149086070471C000020D7
:102B40002400002010B50A48006840F400700849CD
:102B500008600846006840F480600860032000F0C8
:102B60007FF80F2000F006F800F02AF8002010BDD2
:102B7000003C024070B504460E4800784FF47A716C
:102B8000B1FBF0F00C490968B1FBF0F5284600F004
:102B90009BFC08B1012070BD102C07D200222146F9
:102BA000501E00F01EF80548046001E00120F2E725
:102BB0000020F0E72400002000000020200000207A
:102BC000704701460846002809DB00F01F03012278
:102BD0009A4043099B0003F1E023C3F8002100BFA2
:102BE00070472DE9F05F80460D461646002701F03C
:102BF00001FA074639462A46334601F00700C0F17C
:102C0000070ABAF1040F02D94FF0040A01E0C0F13B
:102C1000070AD14600F1040ABAF1070F02D24FF0B9
:102C2000000A01E0A0F1030AD4464FF0010A0AFAB3
:102C300009FAAAF1010A0AEA020A0AFA0CFA4FF0A2
:102C4000010B0BFA0CFBABF1010B0BEA030B4AEA8D
:102C50000B042146404601F0D5F9BDE8F09F000085
:102C600000BF00F00702064B19684FF6FF0319403A
:102C7000044B0B4343EA0221014B196000BF70472C
:102C80000CED00E00000FA0570B504460D460CB9E5
:102C9000012070BD5848006800F00700A84209D222
:102CA00055490D700846006800F00700A84201D0A1
:102CB0000120EEE7207800F0020002281DD12078E4
:102CC00000F00400042805D14C48006840F4E050AE
:102CD0004A490860207800F00800082805D14748D4
:102CE000006840F46040454908604448006820F0AE
:102CF000F000A168084341490860207800F0010015
:102D0000A8B36068012807D13C4808380068C0F3C0
:102D10004040B8B90120BCE76068022802D0606872
:102D2000032807D1354808380068C0F3406048B927
:102D30000120AEE7314808380068C0F3400008B908
:102D40000120A6E72D48006820F0030061680843D1
:102D50002A490860FFF7E4FE064609E0FFF7E0FEB7
:102D6000801B41F28831884202D9032091E707E0B5
:102D70002248006800F00C006168B0EB810FEDD1D3
:102D80001D48006800F00700A84209D91A490D70D3
:102D90000846006800F00700A84201D0012078E74B
:102DA000207800F00400042807D11448006820F4BB
:102DB000E050E168084311490860207800F00800FD
:102DC000082808D10D48006820F46040216940EAD5
:102DD000C1000A49086000F03FF808490968C1F3DA
:102DE0000311074A515CC84006490860064800685C
:102DF000FFF7C0FE00204CE7003C024008380240CC
:102E0000B2110408000000202000002001480068E2
:102E1000704700000000002000B5FFF7F7FF0449ED
:102E20000968C1F38221034A515CC84000BD00001B
:102E300008380240C211040800B5FFF7E7FF044953
:102E40000968C1F34231034A515CC84000BD00002B
:102E500008380240C21104082DE9F047002400257B
:102E60000026A1462548006800F00C0020B1042887
:102E700005D008283AD105E0DFF8849039E0DFF882
:102E8000849036E01D48001F006800F03F041B4896
:102E9000001F006800F4800078B11A481749091F24
:102EA0000968C1F38811A0FB017001462246002386
:102EB0003846FDF77EFA05460EE011480F49091F16
:102EC0000968C1F38811A0FB017001462246002366
:102ED0003846FDF76EFA05460848001F0068C0F343
:102EE0000140401C4600B5FBF6F902E0DFF8109007
:102EF00000BF00BF4846BDE8F08700000838024028
:102F00000024F40000127A00F8B504460CB9012040
:102F1000F8BD207800F00100002874D0F94800685E
:102F200000F00C0004280DD0F648006800F00C00FA
:102F3000082813D1F348001F006800F48000B0F5A2
:102F4000800F0BD1EF4808380068C0F340400028DC
:102F500059D06068002856D10120D9E700BF6068C9
:102F6000B0F5803F08D1E7480838006840F4803069
:102F7000E449083908601EE06068B0F5A02F0DD163
:102F8000E0480838006840F48020DE4908390860CD
:102F90000846006840F4803008600CE0D9480838E2
:102FA000006820F48030D749083908600846006876
:102FB00020F48020086000BF606890B1FFF7B0FD8A
:102FC000054606E0FFF7ACFD401B642801D903204D
:102FD0009EE7CC4808380068C0F340400028F1D094
:102FE00011E0FFF79DFD054606E0FFF799FD401B48
:102FF000642801D903208BE7C24808380068C0F371
:1030000040400028F1D1207800F0020002285FD172
:10301000BC48006800F00C0058B1BA48006800F0E5
:103020000C0008281CD1B748001F006800F480007D
:10303000B0B9B44808380068C0F3400020B1E06877
:10304000012801D0012063E7AE480838006820F06D
:10305000F800216940EAC100AA490839086037E050
:10306000E06800B30120A8490860FFF759FD054654
:1030700006E0FFF755FD401B022801D9032047E772
:10308000A04808380068C0F340000028F1D09D48EF
:103090000838006820F0F800216940EAC100994929
:1030A0000839086014E0002097490860FFF738FDF0
:1030B000054606E0FFF734FD401B022801D9032036
:1030C00026E7904808380068C0F340000028F1D196
:1030D000207800F0080008282CD16069A8B10120F0
:1030E0008A490860FFF71CFD054606E0FFF718FD5A
:1030F000401B022801D903200AE782486C3000688F
:10310000C0F340000028F1D014E000207F4908609F
:10311000FFF706FD054606E0FFF702FD401B02280B
:1031200001D90320F4E677486C300068C0F3400012
:103130000028F1D1207800F00400042870D1002785
:1031400070483830006800F0805090B900BF00200F
:1031500000906C483830006840F080506949383140
:1031600008600846006800F08050009000BF00BF73
:1031700001276748006800F48070B0B964480068AF
:1031800040F4807062490860FFF7CAFC054606E01B
:10319000FFF7C6FC401B022801D90320B8E65C48B3
:1031A000006800F480700028F2D000BFA0680128F9
:1031B00008D154486830006840F001005149683136
:1031C00008601DE0A06805280DD14E4868300068F1
:1031D00040F004004B49683108600846006840F040
:1031E000010008600CE047486830006820F00100EA
:1031F0004449683108600846006820F0040008600F
:1032000000BFA068A8B1FFF78BFC054609E0FFF7F7
:1032100087FC401B41F28831884202D9032077E6BF
:1032200026E0384868300068C0F340000028EED03F
:1032300013E0FFF775FC054608E0FFF771FC401B43
:1032400041F28831884201D9032061E62D48683077
:103250000068C0F340000028EFD1012F07D12948B2
:103260003830006820F0805026493831086000BFAF
:10327000A069002845D02348006800F00C00082809
:103280005DD0A069022845D100201F490866FFF7DC
:1032900047FC054606E0FFF743FC401B022801D926
:1032A000032035E6174808380068C0F3406000285E
:1032B000F1D1D4E907010843616A40EA8111012292
:1032C000A06AC2EB500041EA00412C20005D41EAB7
:1032D00000600C49091F086001200B490866FFF7D0
:1032E0001FFC054606E0FFF71BFC401B022801D926
:1032F00003200DE6034808380068C0F3406000284A
:10330000F1D049E00838024000004742800E4742B1
:1033100000700040002021490866FFF701FC0546C7
:1033200006E0FFF7FDFB401B022801D90320EFE573
:103330001B480068C0F340600028F2D12CE0A0696F
:10334000012800D1E4E51648001D0668A06901289F
:1033500020D006F48001E06981421BD106F03F01D4
:10336000206A814216D147F6C0703040616AB0EBE6
:10337000811F0FD106F440310122A06AC2EB500038
:10338000B1EB004F06D106F070612C20005DB1EB6F
:10339000006F01D00120BBE50020B9E500004742E5
:1033A0000038024070B504460E4615460CB901209F
:1033B00070BD94F8490028B9002084F848002046E0
:1033C00000F01CF804F108012068FFF7CFF931463E
:1033D000A2682068FFF7F8F92946236BD4E90102B7
:1033E000FFF7A0F9A168206850F8210040F0010023
:1033F000A268216841F822000020D9E710B586B004
:10340000044600BF002000902248006840F0010000
:10341000204908600846006800F00100009000BFE5
:1034200000BF00BF002000901A480838006840F034
:1034300008001849083908600846006800F00800CC
:10344000009000BF00BF00BF002000900846006849
:1034500040F0100008600846006800F0100000907E
:1034600000BF00BF4CF203700190022002900120C7
:103470000390022004900C20059001A90648FFF754
:103480002FFA4FF68070019001A90448FFF728FA3F
:1034900006B010BD38380240000C02400010024057
:1034A000042808D14FF0E021096941F004014FF0F0
:1034B000E022116107E04FF0E021096921F00401E9
:1034C0004FF0E0221161704770B504462546681E32
:1034D000B0F1807F01D301200FE0681E4FF0E021A2
:1034E00048610F214FF0FF3000F08CFD00204FF0BD
:1034F000E021886107200861002070BD7047704797
:10350000704710B5044620680069C0F34000D8B188
:103510002068C068C0F34000B0B16FF002002168BD
:103520000861012020772068806900F0030018B14D
:103530002046FFF7E5FF05E0204600F0ADF8204605
:1035400000F0ABF80020207720680069C0F380000D
:10355000D8B12068C068C0F38000B0B16FF004003B
:1035600021680861022020772068806900F440709B
:1035700018B12046FFF7C4FF05E0204600F08CF8A4
:10358000204600F08AF80020207720680069C0F308
:10359000C000D8B12068C068C0F3C000B0B16FF0FF
:1035A000080021680861042020772068C06900F0C5
:1035B000030018B12046FFF7A3FF05E0204600F006
:1035C0006BF8204600F069F8002020772068006939
:1035D000C0F30010D8B12068C068C0F30010B0B1CB
:1035E0006FF0100021680861082020772068C0690A
:1035F00000F4407018B12046FFF782FF05E0204636
:1036000000F04AF8204600F048F8002020772068B3
:10361000006900F0010058B12068C06800F00100A6
:1036200030B16FF0010021680861204600F036F8E3
:1036300020680069C0F3C01058B12068C068C0F3AA
:10364000C01030B16FF08000216808612046FFF79C
:1036500055FF20680069C0F3801058B12068C06829
:10366000C0F3801030B16FF040002168086120463F
:1036700000F024F820680069C0F3401058B12068B9
:10368000C068C0F3401030B16FF0200021680861BD
:103690002046FFF734FF10BD7047704710B5044651
:1036A0000448844205D100BF02210348FFF722FAF3
:1036B00000BF10BD3C06002000100240704770475C
:1036C000704701460022002391F83D2091F83E30DA
:1036D00042EA0300704700002DE9F84F04462068D5
:1036E00005682068C668206847694FF00009CA4627
:1036F00005F00F09B9F1000F0AD105F0200038B12B
:1037000006F0200020B1204600F069FABDE8F88FED
:10371000B9F1000F72D007F0010018B906F49070EB
:1037200000286BD005F0010030B106F4807018B1AC
:10373000206C40F00100206405F0040030B107F077
:10374000010018B1206C40F00200206405F0020076
:1037500030B107F0010018B1206C40F00400206483
:1037600005F0080048B106F0200010B907F001008C
:1037700018B1206C40F008002064206C70B305F094
:10378000200028B106F0200010B1204600F027FAF2
:1037900020684069C0F3801A206C00F0080010B95E
:1037A000BAF1000F23D0204600F0EEF920684069FE
:1037B00000F04000402816D12068406920F0400009
:1037C00021684861A06B50B15648A16B0865A06B99
:1037D000FFF771F810B1A06B016D88470CE020462F
:1037E000FFF76EFF08E02046FFF76AFF04E020467F
:1037F000FFF766FF0020206488E7FFE7206B0128C1
:1038000079D105F01000002875D006F010000028CE
:1038100071D000BF002000902068006800902068F0
:103820004068009000BF00BF2068406900F0400081
:10383000402839D1A06B006840681FFA80F8B8F1C1
:10384000000F30D0A08D40452DDDA4F82E80A06B58
:10385000C069B0F5807F1FD02068C06820F48070F8
:103860002168C8602068406920F001002168486133
:103870002068406920F0400021684861202084F8D9
:103880003E00002020632068C06820F010002168FE
:10389000C860A06BFEF7BAFFA08DE28D801A81B2DE
:1038A0002046FFF70CFF31E7A08DE18D401A1FFA8B
:1038B00080F8E08DE8B1B8F1000F1AD02068C06838
:1038C00020F490702168C8602068406920F00100F1
:1038D00021684861202084F83E0000202063206891
:1038E000C06820F010002168C86041462046FFF7FC
:1038F000E6FE0BE7FFE705F0800030B106F0800040
:1039000018B1204600F003FB00E705F0400030B19D
:1039100006F0400018B1204600F051F9F6E600BF6D
:10392000F4E60000753B000810B504460CB9012010
:1039300010BDA06900B100E000BF94F83D0028B9B7
:10394000002084F83C00204600F028F8242084F869
:103950003D002068C06820F400502168C8602046FF
:1039600000F09CF92068006920F49040216808610B
:103970002068406920F02A00216848612068C068FA
:1039800040F400502168C86000202064202084F8A2
:103990003D0084F83E000020CAE7000010B586B064
:1039A00004462D492068884254D100BF00BF002042
:1039B00000902A48006840F0100028490860084636
:1039C000006800F01000009000BF00BF00BF00BF03
:1039D00000BF0020009021481438006840F0020029
:1039E0001E49143908600846006800F00200009083
:1039F00000BF00BF00BF00BF00BF0020009008460E
:103A0000006840F0020008600846006800F002000C
:103A1000009000BF00BF00BF402001900220029034
:103A200001200390022004900720059001A90C4872
:103A3000FEF756FF802001900720059001A9084855
:103A4000FEF74EFF2520FFF7BCF803221146252084
:103A5000FFF7C7F806B010BD00100140443802401F
:103A60000004024070B504460D46164694F83E0028
:103A7000202816D105B10EB9012070BD00BF94F801
:103A80003C00012801D10220F7E7012084F83C0026
:103A900000BF0020206332462946204600F014FA79
:103AA000EBE70220E9E700001D4A0168914236D1A8
:103AB0001C49098801F4004189BB1A49098801F4AD
:103AC000804171B1184909780A2903D00021154AAB
:103AD000118024E01349098841F40041114A118002
:103AE0001DE0114909780D2906D10E49098841F4D4
:103AF00080410C4A118012E00B490978094A12886A
:103B0000C2F30D02094B995406490988491C054A1C
:103B1000118011460988C72901DD002111807047F5
:103B200000100140180000201A000020D0040020DE
:103B3000704700BFFEE700BFFEE7704710B5FEF715
:103B4000F5FF3CF0C9F8012801D03BF08FFE10BD15
:103B50000348006840F470000149086070470000A5
:103B600088ED00E010B50248FFF7CBFC10BD000067
:103B70003C06002070B50546AC6B0020E085E08473
:103B80002046FFF79DFD70BD0168C96821F4907162
:103B90000268D1600168496921F001010268516140
:103BA000016B012905D10168C96821F01001026883
:103BB000D160202180F83E1000210163704710B5CC
:103BC00004462068C06820F040002168C8602020BA
:103BD00084F83D002046FFF7ABFF002010BD70B514
:103BE000044694F83E00222856D1A068B0F5805FC4
:103BF0000CD1206950B90025A66A20684068C0F33E
:103C000008003080A06A801CA06215E0A56A00262A
:103C1000A068B0F5805F03D0A06828B9206918B902
:103C200020684068287004E02068406800F07F0049
:103C30002870A06A401CA062E08D401E80B2E08522
:103C400040BB2068C06820F020002168C860206860
:103C5000C06820F480702168C8602068406920F046
:103C6000010021684861202084F83E00206B012873
:103C70000AD12068C06820F010002168C860A18DBA
:103C80002046FFF71CFD02E02046FFF70DFF002055
:103C9000206370BD0020FCE70220FAE72DE9F84F11
:103CA00004462068006920F44050E1680843216818
:103CB00008612169A068084361690843E169084314
:103CC00000902068C06849F20C618843009908435D
:103CD0002168C8602068406920F44070A1690843E9
:103CE0002168486176492068884203D07549206878
:103CF000884203D1FFF7A0F8814602E0FFF78CF875
:103D00008146E069B0F5004F6CD102206168A0FBEC
:103D1000015003461920A9FB007001462A46384687
:103D2000FCF747FB6421B0FBF1F04FEA001A0220D8
:103D30006168A0FB01510B461920A9FB00712A46BE
:103D40003846FCF736FB834602206168A0FB015031
:103D500003461920A9FB00712A463846FCF729FBC7
:103D60006421B0FBF1F000EBC00101EB0010ABEB04
:103D70008000322101EBC0006421B0FBF1F000F0C3
:103D8000F8000AEB400A02206168A0FB01500346DC
:103D90001920A9FB007001462A463846FCF709FBAA
:103DA000834602206168A0FB015003461920A9FB4D
:103DB00000712A463846FCF7FCFA6421B0FBF1F0AA
:103DC00000EBC00101EB0010ABEB8000322101EBF6
:103DD000C0006421B0FBF1F000F0070050442168FE
:103DE00088606AE004206168A0FB01500346192046
:103DF000A9FB007001462A463846FCF7DAFA8246EB
:103E000004206168A0FB015003461920A9FB007043
:103E100001462A463846FCF7CCFA6421B0FBF1F0A3
:103E200000EBC00101EB0010AAEB8000322101EB96
:103E300000106421B0FBF1F000F0F00A042061688A
:103E4000A0FB017003461920A9FB00513A46284601
:103E5000FCF7AFFA6421B0FBF1F00AEB001A042082
:103E60006168A0FB01510B461920A9FB00712A468D
:103E70003846FCF79EFA834604206168A0FB015097
:103E800003461920A9FB007001462A463846FCF774
:103E900090FA6421B0FBF1F000EBC00101EB0010DF
:103EA000ABEB8000322101EB00106421B0FBF1F09C
:103EB00000F00F00504421688860BDE8F88F0000D2
:103EC000001001400014014010B5034699629A8524
:103ED000DA8500201864222083F83E0000BF00200D
:103EE00083F83C0000BF1868C06840F480701C680C
:103EF000E0601868406940F001001C686061186863
:103F0000C06840F020001C68E060002010BD014641
:103F100091F83D00212828D18868B0F5805F0BD149
:103F2000086948B90A6A1088C0F308000B6858602D
:103F3000086A801C086205E00B6A581C0862187841
:103F40000B685860C88C401E80B2C88458B9086895
:103F5000C06820F080000B68D8600868C06840F036
:103F600040000B68D860002070470220FCE700008A
:103F700070B500240F4D1048FFF7AEFB00BF03E003
:103F8000641CAC4200D904E00B48FFF79AFB2028E0
:103F9000F6D100BF002403E0641CAC4200D906E067
:103FA000012206490448FFF75DFD0028F4D100BF57
:103FB00070BD0000FFFF0100980500201A000020DE
:103FC00000BFFEE703B401984100009850EAC12009
:103FD00018BF04204A0D18BF40F0010040F2FF72E4
:103FE000B2EB515F08BF40F00200012808BF052076
:103FF00002B0704702480068C0F30220704700001A
:104000000CED00E010B5002804DB0A07130E054A8A
:10401000135406E00A07140E034A00F00F031B1F97
:10402000D45410BD00E400E018ED00E000000000F2
:1040300030B52DED048B81B0B0EE408AF0EE608A91
:104040006A4651EC180B11F0DFFA00989FED329B95
:104050007E300090002821DC53EC192B51EC180B1A
:104060003CF024FC1AD0002140F608004FF000007C
:10407000044651EC180B3CF0D3F908EE100A40F658
:10408000080004EA00014FF00000B5EEC08AF1EE2E
:1040900010FA04BF0220FCF746FD2DE00098FF282F
:1040A00030DB002108464FF0000000F4400553ECDF
:1040B000192B51EC180B3CF0F7FD8CBF00240124A8
:1040C0000220FCF730FD9FED168A4DB1002C0CBF8D
:1040D0004FF400004FF48000A84218BF9FED118AF2
:1040E000042108464FF00000002C01BFB1EE480A41
:1040F00001B0BDEC048B30BDB0EE480A01B0BDECA0
:10410000048B30BD51EC180B3CF08AF901B000EE85
:10411000100ABDEC048B30BD000000000000000060
:104120000000807FFFFF7F7F30B583B00446FCF73F
:10413000F5FC9FED090B05468DED000B0022214695
:104140006846FCF7C3FF2846FCF7EDFC9DED000B2D
:1041500003B030BD000000000000000000000000BF
:1041600010B52F499FED2C1B2DED020B84B0059847
:1041700020F000408842D8BF9DED040B2DDD294979
:10418000884209D1049840B94FF00100FCF7CBFCFC
:1041900001F076FF06B010BD05DB9DED040B01F0CC
:1041A0005BFF06B010BD68469DED040B01F0ACF955
:1041B00010F0030004BF9DED021B9DED000B0CD021
:1041C00001280ED09DED021B9DED000B022817D09B
:1041D000012001F0E9FC06B010BD01F0B1FB06B012
:1041E00010BD9DED021B9DED000B012001F0DCFCDC
:1041F00051EC100B3CF008F906B041EC100B10BD6F
:1042000001F09EFB51EC100B3CF0FEF806B041ECC7
:10421000100B10BD000000000000000000000000B6
:10422000FB21E93F0000F07F30B540F2FF742DED37
:10423000048BF0EE608A18EE901A85B0B0EE408ADA
:104240009FED2B9B05468DED008B34EA115147D035
:1042500053EC192B51EC180B3CF028FB40D02A46AC
:1042600051EC180B3CF059FF41EC180B18EE900A7A
:104270008DED008B34EA10501CD053EC192B51EC0F
:10428000180B3CF013FB2BD10220FCF74CFC01F087
:1042900017FF10EE901A18EE900A8DED020B8DEDBF
:1042A000008B61F31E0003909DED020B05B0BDEC89
:1042B000048B30BD0220FCF736FC01F0F1FE10EE5D
:1042C000901A18EE900A8DED020B8DED008B61F3C4
:1042D0001E0003909DED020B05B0BDEC048B30BDBC
:1042E00005B0B0EE480AF0EE680ABDEC048B30BDB4
:1042F000000000000000000070B5D94B00242DED37
:10430000020B2DED108BDDE91010984205DA20F03C
:1043100000429A4201D809D141B19DED100BBDEC8C
:10432000108B02B0BDE8704001F096BEB0F5801F62
:1043300026DA11430BD0002813DA0120FCF7F3FB37
:10434000BDEC108B02B0BDE8704001F099BE0220B8
:10435000FCF7E9FB01F068FE51EC100B3CF054F85F
:104360009EE06FF035049FEDC00B53EC102B9DEDDC
:10437000100B51EC100B3CF099FBCDE910010846F5
:1043800004EB2051C0F31304B948A1F2FF312044DB
:1043900000F4801080F07F6282F04052224301EBF3
:1043A00020559FEDB50B119253EC102B9DED100B8A
:1043B00051EC100B3CF086FD41EC180BA01CC0F337
:1043C00013009FEDAFDB9FEDB0EBB14E7E440328B1
:1043D0006CD296ED000B51EC180B53EC102B3CF00B
:1043E00065FA1DD1002D01BF96ED000BBDEC108BC1
:1043F00002B070BD28463CF0F2FA41EC180B53ECC9
:104400001D2B3CF053FB41EC190B53EC1E2B51ECD4
:10441000180B3CF04BFB53EC192B3CF033F83FE00E
:104420009FED9D0B51EC180B53EC102B3CF03EFB19
:104430009FED9B1B53EC112B3CF06CFC41EC190BDA
:1044400053EC182B51EC180B3CF030FB53EC192BB0
:104450003CF02CFB41EC190B002D04BF53EC192B45
:1044600051EC180B1AD028463CF0B9FA41EC1A0B63
:1044700053EC1D2B3CF01AFB53EC192B3CF04AFC7F
:1044800053EC182B3CF01EFD41EC180B53EC1E2B8B
:1044900051EC1A0B3CF00AFB53EC182B3CF012FDCC
:1044A000BDEC108B02B041EC100B70BD9FED7E0B8C
:1044B00051EC180B53EC102B3BF0E4FF41EC100BCC
:1044C00051EC180B53EC102B3CF098F841EC190B05
:1044D00028463CF084FA41EC1B0B53EC192B51ECB1
:1044E000190B3CF0E3FA41EC1A0B714853EC1A2B10
:1044F000261851EC1A0B3CF0D9FA41EC1F0B6D4811
:10450000C4F1510404F5D724B0EE4F0AF0EE6F0A5F
:104510000321784401F0CCFA53EC1F2B51EC100B23
:104520003CF0C4FA41EC1C0B6348B0EE4F0AF0EECD
:104530006F0A0421784401F0BBFA53EC1A2B51ECBA
:10454000100B3CF0B3FA344353EC1C2B3BF09AFFB6
:1045500041EC1C0B002C4CDD9FED510B51EC180B6A
:1045600053EC102B3CF0A2FA53EC182B3CF09EFAC3
:1045700041EC1A0B55B353EC1D2B51EC1B0B3CF0CB
:1045800095FA41EC1D0B53EC1C2B51EC1A0B3BF034
:1045900079FF53EC192B3CF089FA53EC1D2B3BF0BF
:1045A00071FF53EC1A2B3CF0B5FB53EC182B3CF08D
:1045B00089FC41EC180B53EC1E2B51EC1B0B3CF00F
:1045C00075FA53EC182B3CF07DFC69E753EC1C2B7F
:1045D00051EC1A0B3BF056FF53EC192B3CF066FAEA
:1045E00053EC1A2B3CF096FB53EC182B3CF092FB4F
:1045F00056E735B353EC1D2B51EC1B0B3CF056FA30
:1046000041EC1A0B53EC1C2B51EC180B3CF05AFCF0
:1046100053EC192B3CF04AFA53EC1A2B3CF052FCA9
:1046200053EC182B3CF04EFC41EC180B53EC1E2BBA
:1046300051EC1B0B3CF03AFA53EC182B3CF042FCCB
:104640002EE753EC1C2B51EC180B3CF03BFC53ECCD
:10465000192B3CF02BFA53EC182B3CF05BFB1FE7BB
:104660000000F07F00000000000000000000504348
:10467000645F090000000000000000000000F03F3F
:10468000763C7935EF39EA3D0000E0FE422EE63F08
:10469000B03B080000000000555555555555D53F15
:1046A000000000000000E03F0000000000000040AB
:1046B00086EBF9FF7A390800703908000000000025
:1046C00070B5414A00252DED020B2DED048BDDE97F
:1046D0000404944205DA24F00041914201D809D142
:1046E00040B19DED040BBDEC048B02B0BDE8704001
:1046F00001F0B2BCB4F5801F26DA08430BD0002CC1
:1047000013DA0120FCF70FFABDEC048B02B0BDE810
:10471000704001F0B5BC0220FCF705FA01F084FC02
:1047200051EC100B3BF070FE46E09FED290B6FF053
:10473000350553EC102B9DED040B51EC100B3CF0A8
:10474000B5F9CDE904010C4605EB2450A0F2FF3089
:10475000C10F40F2FF32521A62F31F5408443CF07A
:104760003EF905949DED040B41EC180B51EC100B38
:1047700018F028FF9FED181B53EC112B3CF096F915
:104780009FED170B41EC190B53EC102B51EC180B50
:104790003CF08CF953EC192B3BF074FE9FED120B9F
:1047A00041EC190B53EC102B51EC180B3CF07EF93B
:1047B00053EC192B3BF066FEBDEC048B02B041ECD0
:1047C000100B70BD000000000000F07F0000000032
:1047D00000000000000050430EE526157BCBDB3FB8
:1047E000362BF111F3FE593D00609F501344D33F27
:1047F0002DE9F04D2DED040B2DED0E8B96B0DDE97E
:104800002550279CDDF890A025F0004624F00048B4
:10481000BAF1000F14BF0121002101EB4502FC4950
:1048200053184A1093422AD3002814BF01230023AF
:1048300003EB44030B44F7498B4220D358EA0001B1
:104840009FEDF59B76D0DFF8D8B35D4503D1BAF183
:10485000000F05D188E0BAF1000F08BF002100D099
:10486000012101EB450111F5001F08D8002814BFF4
:104870000121002101EB440111F5001F0BD99DED31
:10488000261B9DED240B16B0BDEC0E8B04B0BDE8CD
:10489000F04D01F0EBBB0027002DBCBFE14988457E
:1048A00021DAE1498845A8BF02271CDAC3451ADC92
:1048B000DE4901EB2851142908DDC1F1340220FA48
:1048C00002F101FA02F282420DD108E058B9C1F1B9
:1048D000140228FA02F101FA02F2424503D101F072
:1048E0000101C1F1020756EA0A0124D1002C22DAA3
:1048F000002D18BF022F01D0012F0AD00220FCF793
:1049000012F916B0BDEC0E8B04B0BDE8F04D01F00D
:104910008BBB0220FCF707F901F086FB51EC100B72
:104920003BF072FD41EC100B16B0BDEC0E8B04B0E9
:10493000BDE8F08D18E09FEDBEAB9FEDBF8B00286A
:1049400071D1B848804522D105F1804010F5801022
:1049500008BFBAF1000F07D0B3450ADC002CA8BF8E
:104960009DED260BE0DA0DE0B0EE490AF0EE690AA3
:10497000DAE7002C06DA9DED260B51EC100B3BF02C
:1049800043FD6FE0AE48784490ED000BCCE7D8458E
:104990004DD1002C48DA2EB186423AD1BAF1000F3F
:1049A00042D126E0BAF1000F13D00220FCF7BBF889
:1049B00001F076FB8DED020B9DED240B8DED000BD0
:1049C00010EE900A039961F31E0003909DED020B17
:1049D000AAE78DED02AB9DED240B1AEE901A10EEB6
:1049E000900A8DED000B61F31E0003909DED020B0C
:1049F0009AE78DED028B9DED240B18EE901A10EEC8
:104A0000900A8DED000B61F31E0003909DED020BEB
:104A10008AE709DA9DED240B51EC190B53EC102BAE
:104A20003BF0ECFD1EE020E09DED240B7CE7864290
:104A30001BDAB4F1804F0DD0A4F10050B0F1FF505B
:104A400013D1002D11DB9DED240B51EC100B35F033
:104A50003DFE07E09DED240B53EC102B51EC100BA9
:104A600000F0C2BC41EC100B5EE79DED240B51EC55
:104A7000100B0FF01DFCBAF1000FCDE90E0142D171
:104A80009FED710B46B3A6F1E040B0F17F600CD012
:104A90005E4538D1002D00DAA7B3022F0CBF0120EC
:104AA0004FF0FF303BF09BFFDCE7002D01DD002CD9
:104AB0000DDA002D01DD002C1FDB002D16DA002C95
:104AC00014DB012F08BF9FED620B3FF42DAFB0EE5A
:104AD0004A0AF0EE6A0A27E7022F18BF002D0CD011
:104AE000012F0AD1002DFFF61FAF06E0002DB8BF41
:104AF000002C08DA012F3FF417AFB0EE480AF0EEB1
:104B0000680A11E71BE0012000EBE57050EA07019D
:104B100015D0791EB0EE498AF0EE698A084308BFC5
:104B20009FED4D8B4E480025804570DD4D494E4828
:104B3000884514DDB0420DDB002C19DB2FE001208D
:104B4000FBF7F1FF16B0BDEC0E8B04B0BDE8F04DE5
:104B500001F096BAB34502DC002C09DC1FE0864266
:104B600002DA002C1BDA03E05E452BDD002C16DD9B
:104B70000220FBF7D8FF01F093FA8DED020B53EC06
:104B80001A2B51EC180B3BF091FFCDE90001039972
:104B9000019861F31E0003909DED020BC4E6022014
:104BA000FBF7C1FF01F08CFA10EE901A18EE900A94
:104BB0008DED020B8DED008B61F31E0003909DEDDA
:104BC000020BB1E69DED0E0B53EC192B51EC100BC3
:104BD0003CF078F99FED260BCDE9080153EC102B42
:104BE0009DED080B51EC100B3BF060FF9FED221B7D
:104BF00053EC112B3CF08EF89DED081B53EC112B60
:104C00003BF054FF9FED1E1B53EC112B3CE08CE05E
:104C1000FFFF1F00FFFF0F00000000000000F03F3B
:104C20000000F03F0000F07F0000404301FCFFFF68
:104C3000000000000000F07F000000000000000005
:104C4000F6350800000000000000000000000080B1
:104C5000000000000000F0FF000000000000F0BFB6
:104C60000000E0410000F043FFFFEF3F00000000C4
:104C7000000000000000D03F555555555555D53F13
:104C8000000000000000E03F3CF044F89DED080B00
:104C900041EC1A0B53EC102B51EC100B3BF006FFC0
:104CA00053EC1A2B3BF002FF41EC1A0B9FEDFE0B6D
:104CB00053EC102B9DED080B51EC100B3BF0F6FE66
:104CC00041EC1B0B9FEDFA0B51EC1A0B53EC102B24
:104CD0003BF0ECFE41EC1A0B9FEDF70B53EC102B65
:104CE0009DED080B51EC100B3BF0E0FE53EC1A2B42
:104CF0003CF0E8F841EC1A0B51EC1B0B53EC1A2B6F
:104D00003BF0C0FB0690CDE906519DED060B53EC40
:104D10001B2B51EC100B3CF0D5F853EC1A2B3BF04D
:104D2000F9FF41EC100B00F0A1B90020B6F5801F8F
:104D30000EDA9FEDE30B53EC102B9DED0E0B51ECB7
:104D4000100B3BF0B3FECDE90E016FF034000E46C0
:104D500000EB2650A0F2FF37C6F31300DA4940F00B
:104D60007F6646F040568842D8BF002408DDD74908
:104D70008142C8BF012403DC0024A6F580167F1CF5
:104D8000D348784400EBC4000F9690ED00CB9DED26
:104D90000E0B53EC1C2B51EC100B3CF093F89DEDDB
:104DA0000E0B41EC1B0B53EC1C2B51EC100B3BF08E
:104DB00069FB41EC100B51EC190B53EC102B3BF041
:104DC0001DFC41EC1D0B51EC1B0B53EC1D2B3BF060
:104DD0006DFE41EC1A0BBF488DED10AB7844109579
:104DE00090ED000B4FF0005040EA660000EB84406D
:104DF0008DED080B00F5002009909DED080B53EC9C
:104E00001C2B51EC100B3CF05DF89DED0E1B53EC90
:104E1000112B3BF07FFF41EC100B53EC102B9DED61
:104E2000100B51EC100B3BF041FE9DED080B41ECDB
:104E30001C0B53EC102B9DED100B51EC100B3BF0A9
:104E400035FE53EC1B2B3BF065FF53EC1C2B3CF069
:104E500039F853EC1D2B3BF029FE41EC1C0B53ECB5
:104E60001A2B51EC1A0B3BF021FE41EC1B0B9A481C
:104E70000621B0EE4B0AF0EE6B0A784400F018FE03
:104E8000B0EE401AF0EE601AB0EE41DAF0EE61DA00
:104E900053EC1B2B51EC1B0B3BF008FE53EC1D2B72
:104EA0003BF004FE9DED100B41EC1B0B53EC1A2B59
:104EB00051EC100B3BF0E6FA53EC1C2B3BF0F6FDEB
:104EC00053EC1B2B3BF0DEFA9DED100B41EC1B0B62
:104ED00053EC102B51EC100B3BF0E8FD41EC1D0B9B
:104EE0009FED7FEB53EC1E2B3BF0CCFA53EC1B2BCE
:104EF0003BF0C8FA0890CDE908519DED080B53EC42
:104F00001E2B51EC100B3BF0DDFF53EC1D2B3BF047
:104F1000D9FF53EC1B2B3BF0FDFE9DED080B41EC44
:104F20001D0B53EC102B9DED100B51EC100B3BF0B7
:104F3000BDFD41EC1B0B53EC1A2B51EC1D0B3BF050
:104F4000B5FD9DED080B41EC1A0B53EC102B51EC09
:104F50001C0B3BF0ABFD53EC1A2B3BF093FA41ECEE
:104F60001A0B51EC1B0B53EC1A2B3BF08BFA0C90E9
:104F7000CDE90C519DED0C0B53EC1B2B51EC100BA0
:104F80003BF0A0FF53EC1A2B3BF0C4FE41EC1B0B93
:104F90009FED550B53EC102B9DED0C0B51EC100BB2
:104FA0003BF084FD41EC1A0B9FED510B51EC1B0BB8
:104FB00053EC102B3BF07AFD41EC1B0B9FED4E0B9D
:104FC00053EC102B9DED0C0B51EC100B3BF06EFDD8
:104FD00053EC1B2B3BF056FA41EC100B484878443D
:104FE00000EBC40090ED001B51EC100B53EC112BA7
:104FF0003BF048FA41EC1B0B38463BF0F0FCCDE9A6
:10500000080153EC1B2B51EC1A0B3BF03BFA41EC23
:10501000100B3C48784400EBC40090ED00CB51EC01
:10502000100B53EC1C2B3BF02DFA9DED081B53ECA1
:10503000112B3BF027FA0690CDE906519DED080BA8
:1050400053EC102B9DED060B51EC100B3BF03AFF8F
:1050500053EC1C2B3BF036FF53EC1A2B3BF032FF8A
:1050600053EC1B2B3BF056FE41EC100B9DED261B29
:1050700053EC102B8DED001B00959DED260B51EC94
:10508000100B3BF013FD9DED000B41EC1A0B53ECA4
:10509000102B9DED260B51EC100B3BF013FF9DEDFB
:1050A000061B53EC112B2FE0000000604715F73F63
:1050B000FE822B654715F73F44DF5DF80BAE543E8B
:1050C00000000000000040438E9803007AB60B00F9
:1050D00042310800A03108007A30080000000000CA
:1050E0000000000000000840000000E009C7EE3F9B
:1050F000FD033ADC09C7EE3FF5015B14E02F3EBE2D
:10510000062F0800C02E08003BF0D0FC53EC1A2BF1
:105110003BF0B8F99DED060B41EC1A0B53EC102B4C
:105120009DED000B51EC100B3BF0C0FCCDE90C01E8
:105130009DED0C0B51EC1A0B53EC102B3BF0A2F92C
:10514000CDE902010C46AA498C422FDB611A0843C3
:1051500018D19DED0C0B53EC102B9DED020B51EC77
:10516000100B3BF0AFFE41EC1B0B9FEDA30B51EC82
:105170001A0B53EC102B3BF085F953EC1B2B3BF037
:1051800093FD2DD20220FBF7CEFC00F089FF10EE3C
:10519000901A18EE900A8DED020B8DED008B61F3E5
:1051A0001E0003909DED020BFFF7BEBB944A24F056
:1051B0000041914214D39349214408437FF4EFAC5A
:1051C0009DED0C0B53EC102B9DED020B51EC100BD5
:1051D0003BF078FE53EC1A2B3BF066FD7FF6DFAC1C
:1051E00024F000408849894A002601EB2051824280
:1051F0002BDA481C4FF4801121FA00F02044844A35
:10520000C0F30A517A44A1F2FF3192ED000B814ABA
:105210008DED080BCA4020EA0202C0F3130040F4EF
:105220008010C1F1140120FA01F60992002CB8BFD8
:1052300076429DED080B53EC102B9DED0C0B51ECC1
:10524000100B3BF03FFECDE90C019DED0C0B51EC3A
:105250001A0B53EC102B3BF015F99FED6F0B0890D8
:10526000CDE9085153EC102B9DED080B51EC100BC0
:105270003BF01CFC41EC1B0B9FED690B53EC102B1E
:105280009DED080B51EC100B3BF010FC9DED0C0B51
:1052900041EC1C0B53EC102B9DED080B51EC100B4B
:1052A0003BF010FE53EC1A2B3BF034FD9FED5E1BE0
:1052B00053EC112B3BF0FAFB53EC1C2B3BF0E2F8C8
:1052C00041EC1A0B51EC1B0B53EC1A2B3BF0DAF8A8
:1052D000CDE902019DED020B53EC1B2B51EC100BA1
:1052E0003BF0F0FD53EC1A2B3BF014FD9DED020B4F
:1052F00041EC1A0B53EC102B51EC100B3BF0D6FB8E
:10530000CDE908014A489DED080B0521784400F0DD
:10531000CFFB9DED081B51EC100B53EC112B3BF018
:10532000C5FB9DED021B53EC112B3BF0F3FCCDE9CB
:1053300006019DED020B53EC1A2B51EC100B3BF0C8
:10534000B5FB53EC1A2B3BF09DF89FED3B0B41EC6A
:105350001A0B53EC102B9DED060B51EC100B3BF090
:10536000B1FD9DED060B41EC1B0B53EC102B9DED9D
:10537000020B51EC100B3BF099FB53EC1B2B3BF059
:105380003DF953EC1A2B3BF09DFD9DED021B53ECB8
:10539000112B3BF097FD53EC192B3BF0BBFCCDE9F7
:1053A000020101EB065001150029C8BF039015DC6E
:1053B0009DED020B324651EC100B3BF0AEFEFEF7BA
:1053C00001FE042808BF00F07BFE32469DED020B73
:1053D00051EC100B3BF0A1FECDE902019DED020B5B
:1053E00051EC180B53EC102B3BF060FBFFF73ABB72
:1053F0000000904000000000FE822B654715973C9E
:1054000000CC904000346F3F01FCFFFF0000E03F04
:10541000782D0800FFFF0F0000000000432EE63F3C
:10542000396CA80C615C20BEEF39FAFE422EE63FD3
:10543000182C0800000000000000000000000040E0
:1054400010B52F499FED2C1B2DED020B84B0059854
:1054500020F000408842DCBF00209DED040B32DDCF
:105460002849884209D1049840B94FF00100FBF760
:105470005AFB00F005FE06B010BD05DB9DED040BE8
:1054800000F0EAFD06B010BD68469DED040B00F08B
:105490003BF810F0030011D0012818D09DED021B3D
:1054A0009DED000B02281AD000F04AFA51EC100BC7
:1054B0003AF0AAFF06B041EC100B10BD9DED021BA7
:1054C0009DED000B012000F06FFB06B010BD9DEDBF
:1054D000021B9DED000B00F033FA06B010BD012059
:1054E00000F062FB51EC100B3AF08EFF06B041EC7D
:1054F000100B10BD000000000000000000000000C4
:10550000FB21E93F0000F07F2DE9F14F04462DED2E
:10551000020B2DED088B8AB09FEDE70B80ED020B9F
:10552000139EE74826F0004585420ADC9DED120BEC
:10553000002084ED000B0AB0BDEC088B03B0BDE881
:10554000F08FE0489FEDE0AB9FEDE1BBA84247DD67
:10555000E14F9FEDE39B9FEDE48B9DED120B53EC30
:105560001A2B51EC100B002E1CDD3BF0ABFC41EC78
:10557000100BBD4208D053EC1B2B51EC100B3BF031
:10558000A1FCC4E900010BE053EC192B51EC100B0A
:105590003BF098FC53EC182B3BF094FCC4E9000161
:1055A0000120C8E73AF06EFF41EC100BBD4208D075
:1055B00053EC1B2B51EC100B3AF064FFC4E90001D3
:1055C0000BE053EC192B51EC100B3AF05BFF53EC52
:1055D000182B3AF057FFC4E900014FF0FF30AAE75B
:1055E000C348A84279DB9DED120B51EC100B0EF075
:1055F0005FFE41EC180B9FEDC00B53EC102B3BF002
:1056000055FA9FEDBF1B53EC112B3AF03BFF3BF0DB
:1056100089F907463BF0E3F941EC190B53EC1A2BDF
:105620003BF044FA53EC182B3BF074FB41EC180BA5
:1056300053EC1B2B51EC190B3BF038FADFF8C8A2E6
:1056400041EC100B4FEA15580125FA4453EC102B8E
:1056500051EC180B3BF036FC032DC4E900013DD0A2
:10566000C1F30A5005EB4511A8EB00001139814246
:1056700034DA0AEB051BB0EE48AA9BED000BF0EE06
:1056800068AA53EC102B51EC190B3BF00FFA41ECCC
:105690001B0B51EC1A0B53EC1B2B3BF013FC41EC96
:1056A000180B51EC1A0B53EC182B3BF00BFC53EC82
:1056B0001B2B3BF007FC9BED020B41EC1A0B53EC50
:1056C000102B51EC190B3BF0F1F953EC1A2B3BF07A
:1056D000F9FB41EC100B6D1CB8E70EE0002EA8BFE3
:1056E0003846BFF628AF94ED000B51EC100B3AF0A2
:1056F0008BFEC4E9000178421DE7C6F3130040F4B5
:10570000801EC6F30A50A0F2F530471100F01F05C5
:10571000C5F12000DDF848B0089000200690079001
:105720000520EC467949002D07EB0002794408BFBB
:1057300051F8221009D051F8223001EB8201AB4020
:105740004A68089922FA01F11943A1FB0E26A1FB30
:105750000B131A449A4234BF0123002303EB0608BB
:105760000CEB8003D3E901A60E448E4234BF012125
:10577000002192448A4411B1924502D903E0924536
:1057800001D2012100E00021C3E901A641444CF807
:105790002010011EA0F10100C4DC029800F10050AD
:1057A000850F0298DDE903678000DDF814803BF087
:1057B00016F941EC1A0B30463BF028F99FED541BCB
:1057C00053EC112B3BF072F941EC1B0B38463BF0CC
:1057D0001DF99FED511B53EC112B3BF067F941EC88
:1057E000180B40463BF012F99FED4D1B53EC112B6B
:1057F0003BF05CF941EC190B51EC180B53EC192BF5
:105800003AF040FE53EC1B2B3AF03CFE53EC1A2BC3
:105810003AF038FECDE90801002008909DED080B14
:1058200053EC1A2B51EC100B3BF04CFB53EC1B2BA5
:105830003BF048FB53EC182B3BF044FB53EC192B8B
:105840003BF068FA9FED381B53EC112B3BF02EF91F
:105850009FED370B41EC180B53EC102B9DED080B13
:1058600051EC100B3BF022F953EC182B3AF00AFEE6
:105870009FED310B41EC180B53EC102B9DED080BF9
:1058800051EC100B3BF012F953EC182B3AF0FAFDE7
:1058900041EC100B139810F0004F06D06D4251EC04
:1058A000100B3AF0B1FD41EC100B284684ED000BD3
:1058B00041E60000000000000000000000000000C1
:1058C000FB21E93F7CD9024000004054FB21F93F15
:1058D0003163621A61B4D03DFB21F93F0000000042
:1058E0000000601A61B4D03D7370032E8A19A33B87
:1058F000FB2139410000000083C8C96D305FE43FDF
:10590000000000000000E03F3A2908008828080055
:10591000000000000000103E000000000000103CED
:10592000000000000000103A182D4454FB21F93DFE
:105930003326A611460B113C00000054FB21F93D13
:1059400010B52DED040B2DED088B82B0B0EE419A11
:10595000F0EE619A0B9820F000449FED4BABB4F150
:10596000795F11DA9DED0A0B51EC100B3AF0DAFF7A
:10597000002801BFB0EE4A0AF0EE6A0A02B0BDECA0
:10598000088B04BF04B010BD9DED0A0B53EC102B27
:1059900051EC100B3BF08AF841EC180B3C48062107
:1059A000B0EE480AF0EE680A784400F081F853EC53
:1059B000182B51EC100B3BF079F89DED0A0B41ECE4
:1059C0001B0B53EC192B51EC100B3BF06FF841EC17
:1059D000190B53EC1B2B51EC180B3BF067F853ECF5
:1059E000192B3BF06FFA9FED2C0B41EC190B53EC8C
:1059F000102B51EC180B3BF059F841EC100B2848D8
:105A0000844210DA53EC192B51EC100B3BF05AFA8C
:105A100053EC1A2B3BF07EF941EC100B02B0BDECBD
:105A2000088B04B010BD1F48A042BCBF9FED1E1BD9
:105A30008DED001B06DBA4F5001001900020009006
:105A40009DED001B51EC100B53EC112B3BF03AFA7F
:105A50009DED000B41EC180B53EC102B51EC1A0B85
:105A60003BF030FA41EC1A0B53EC192B51EC180BAC
:105A70003BF028FA53EC1A2B3BF04CF941EC100B9D
:105A8000CCE7000000000000000000000000F03F34
:105A9000A425080000000000000000000000E03F16
:105AA0003333D33F0000E93F000000000000D23F45
:105AB00070B504462DED028B4D1E00EBC500B0EE17
:105AC000408AF0EE608A90ED000B35F0060017D0AA
:105AD00053EC182B51EC100B3AF0E8FF41EC100B93
:105AE0006D1E04EBC50090ED001B51EC100B53EC48
:105AF000112B3AF0C7FC41EC100B35F00600E7D152
:105B0000022D36D0042D1CD0062D1CBFBDEC028BFF
:105B100070BD53EC182B51EC100B3AF0C7FF94ED0D
:105B20000A1B53EC112B3AF0ADFC53EC182B3AF056
:105B3000BDFF94ED081B53EC112B3AF0A3FC41EC94
:105B4000100B53EC182B51EC100B3AF0AFFF94ED07
:105B5000061B53EC112B3AF095FC53EC182B3AF042
:105B6000A5FF94ED040B53EC102B3AF08BFC41ECA9
:105B7000100B53EC182B51EC100B3AF097FF94EDEF
:105B8000021B53EC112B3AF07DFC53EC182B3AF02E
:105B90008DFF94ED001B53EC112B3AF073FCBDEC20
:105BA000028B41EC100B70BD31B504462DED040B9A
:105BB0002DED0A8BB0EE41BAF0EE61BA0B989DED77
:105BC0000A0B20F00040B0F1795F0DDA51EC100BB8
:105BD000FEF7F8F9042808BF00F072FA9DED0A0BF1
:105BE000BDEC0A8B05B030BD53EC102B51EC100B03
:105BF0003AF05CFF41EC180B9DED0A0B53EC182BAF
:105C000051EC100B3AF052FF41EC190B2C48B0EE5E
:105C1000480AF0EE680A05217844FFF749FF9FED36
:105C20002ACBB0EE40AAF0EE60AA9CB353EC1C2B3A
:105C300051EC190B3AF03AFF41EC1C0B53EC1A2BC8
:105C400051EC190B3AF032FF9FED210B41EC190B8F
:105C500053EC102B51EC1B0B3AF028FF53EC192B93
:105C60003BF030F953EC182B3AF020FF53EC1B2B90
:105C70003BF028F953EC1C2B3BF024F99DED0A1B5B
:105C800053EC112B3BF046F8BDEC0A8B05B041EC10
:105C9000100B30BDFFE753EC1A2B51EC180B3AF008
:105CA00005FF53EC1C2B3AF0EDFB53EC192B3AF0AB
:105CB000FDFE9DED0A1B53EC112B3AF0E3FBE3E7ED
:105CC0003424080000000000495555555555C5BFFE
:105CD000000000000000E03FF1B506462DED040B8A
:105CE000BD482DED0C8B8AB0B0EE418AF0EE618A92
:105CF000179D25F000449FEDBABB9FEDBBCB8442BE
:105D000008DA9DED160B51EC100B3AF00BFE002853
:105D100000F0E980B64FA74231DC002D0DDA9DED91
:105D2000160B51EC100B3AF06FFBCDE9160151EC5C
:105D3000180B3AF069FB41EC180B9FEDAF0B53ECDD
:105D4000102B9DED160B51EC100B3AF0E3FF53ECCA
:105D5000182B9FEDAB0BCDE9040151EC100B3BF080
:105D6000B1F841EC100B53EC102B9DED040B51ECF2
:105D7000100B3AF087FB9FEDA48BCDE916019DED4A
:105D8000160B53EC102B51EC100B3AF08FFECDE9B3
:105D900004019DED040B53EC102B51EC100B3AF069
:105DA00085FE41EC190B9A480621B0EE490AF0EE47
:105DB000690A7844FFF77CFE9648B0EE40DAF0EED0
:105DC00060DAB0EE490AF0EE690A06217844FFF77E
:105DD0006FFE9DED041B51EC100B53EC112B3AF0B0
:105DE00065FE9DED040B41EC1A0B53EC102B9DED61
:105DF000160B51EC100B3AF059FE41EC190B53EC19
:105E00001A2B51EC1D0B3AF03DFB53EC192B3AF0D9
:105E10004DFE53EC182B3AF035FB9DED041B53EC73
:105E2000112B3AF043FE53EC182B3AF02BFB41ECCC
:105E3000180B9FED790B51EC190B53EC102B3AF02A
:105E400035FE53EC182B3AF01DFB41EC190B9DED80
:105E5000160B53EC192B51EC100B3AF013FB41ECE1
:105E6000180BA74269DC30463AF0B9FD41EC1A0B39
:105E700051EC180B53EC1A2B3AF004FB41EC1B0BC2
:105E800053EC182B51EC180B3AF010FE53EC1B2B73
:105E90003AF0B4FB53EC192B3BF014F89DED161BB4
:105EA00053EC112B3AF036FF9FED5D1B53EC112B99
:105EB0003AF0FCFD53EC1A2B3AF02CFF41EC180B96
:105EC000022000EAA570C0F101003AF088FD53EC11
:105ED000182B3AF0EBFD00BF41EC100B0AB0BDEC03
:105EE0000C8B05B0F0BD711C1698214308430CD0F3
:105EF0009DED160B012E1CBF53EC102B51EC1C0B0F
:105F000010D000BF3AF07AFBE6E79DED160B51EC9E
:105F1000100B0EF0CDF941EC100B51EC1B0B53ECB8
:105F2000102BEFE751EC100BFEF74CF8042808BFDC
:105F300000F0C6F89DED160BD0E7012E04BFB0EEC1
:105F4000480AF0EE680AC9D08DED048B0024049451
:105F50009DED040B53EC102B9DED160B51EC100B2B
:105F60003AF0D8FE53EC192B3AF0D4FE41EC190B61
:105F700053EC182B51EC1C0B3AF040FB41EC180B86
:105F80008DED008B00949DED040B53EC102B9DEDDB
:105F9000000B51EC100B3AF089FD53EC1B2B3AF03F
:105FA00071FA9DED000B41EC1A0B53EC192B51ECDF
:105FB000100B3AF07BFD53EC1A2B3AF063FA53ECDA
:105FC000182B3AF073FD9DED001B53EC112B3AF0AA
:105FD00059FA81E7000000000000303E0000000098
:105FE000000000000000F03F000000000000F0BFD3
:105FF0002894E53F00000000182D4454FB21E93FA0
:10600000075C143326A6813C00000000000000005D
:10601000C2220800D8220800635555555555D53F72
:1060200000000000000000409FED070B10B553EC8E
:10603000102B9FED070B51EC100B3AF0DFFA41ECFF
:10604000100B10BD00000000000000000000000068
:10605000000000000000F03F10B553EC102B51EC95
:10606000100B3AF00FFA41EC100B10BD10B553ECC9
:10607000112B51EC100B3AF005FA41EC100B10BD4E
:106080009FED050B10B553EC102B51EC100B3AF0B3
:10609000B5FA41EC100B10BD00000000000000003C
:1060A0009FED050B10B553EC102B51EC100B3AF093
:1060B000FDFC41EC100B10BD000000000000007062
:1060C0009FED050B10B553EC102B51EC100B3AF073
:1060D000EDFC41EC100B10BD0000000000000010B2
:1060E00010B5044691ED000BFDF7A2FF84ED000A08
:1060F00010BD10B5044690ED000B0846FEF794F86D
:1061000084ED000B10BD2DE9F04107460E463C69B9
:10611000A0680068B04202D90020BDE8F081B2B2A8
:10612000A368198A986803F0DDF90546681C40B138
:10613000606800EBC50120680A68C2F313021044CE
:10614000EBE70020E9E72DE9F04780460C461746CB
:106150009946D8F81050A8680068B84202D90020C3
:10616000BDE8F087BAB2AB68198A986803F0BAF94B
:106170000646701CB8B1686800EBC6010868000DDF
:10618000A080487920810879E08091F9060060813B
:1061900091F90700A081688A400AA27B60F303029C
:1061A000A2730120DCE70020DAE770B50446002581
:1061B00008E02168481C20600878303805EB85012C
:1061C00000EB41052168087800F004F80028F0D1C0
:1061D000284670BD0146302903DB392901DC012046
:1061E00070470020FCE730380A2801D201207047B0
:1061F0000020704710B54021074801F0E3FA002263
:106200000421064830F004F90549086002F094FEC4
:1062100000200449087010BD70C7002005900008D8
:106220008C0200208802002030B50346B1F90040FE
:10623000B2F90050AC4202DDB1F9004001E0B2F920
:1062400000401C80B1F90240B2F90250AC4202DDBC
:10625000B1F9024001E0B2F902405C80B1F90440BA
:10626000B2F90450AC4202DAB1F9044001E0B2F9EB
:1062700004409C80B1F90640B2F90650AC4202DA03
:10628000B1F9064001E0B2F90640DC800120B3F923
:106290000040B3F90450AC4205DCB3F90240B3F955
:1062A0000650AC4200DD002030BDF8B504460D4676
:1062B00016460027B4F90000B5F90010884212DB39
:1062C000B4F90200B5F9021088420CDBB4F90400FD
:1062D000B5F90410884206DCB4F90600B5F90610D9
:1062E000884200DC01270FB90020F8BD0EB901205B
:1062F000FBE72088ADF800006088ADF80200324668
:106300006946284600F0A7F808B90020EDE7A08804
:10631000ADF800006088ADF80200324669462846B4
:1063200000F099F808B90020DFE72088ADF80000F8
:10633000E088ADF8020032466946284600F08BF846
:1063400008B90020D1E7A088ADF80000E088ADF8DA
:10635000020032466946284600F07DF808B9002060
:10636000C3E70120C1E70246B2F90000B1F90430E9
:10637000984213DCB2F90400B1F9003098420DDB09
:10638000B2F90200B1F90630984207DCB2F9060012
:10639000B1F90230984201DB012070470020FCE790
:1063A000F8B504460D461646B4F90400B5F90010D8
:1063B000884211DBB4F90600B5F9021088420BDB04
:1063C000B4F90000B5F90410884205DCB4F9020004
:1063D000B5F90610884201DD0120F8BD0EB9002094
:1063E000FBE72088ADF800006088ADF80200324677
:1063F0006946284600F02FF808B10020EDE7A08894
:10640000ADF800006088ADF80200324669462846C3
:1064100000F021F808B10020DFE72088ADF8000087
:10642000E088ADF8020032466946284600F013F8CD
:1064300008B10020D1E7A088ADF80000E088ADF8F1
:10644000020032466946284600F005F808B10020EF
:10645000C3E70120C1E72DE9FC5F05460E4614465F
:106460004FF0000AB6F90000B5F90010884213DBBE
:10647000B6F90000B5F9041088420DDCB6F9020047
:10648000B5F90210884207DBB6F90200B5F906102B
:10649000884201DC4FF0010ABAF1000F02D100205E
:1064A000BDE8FC9F002C01DC0120F9E7284618F02C
:1064B000DEF8834600EBDB704710284618F04FF8F3
:1064C000834600EBDB704FEA6008474501DA384647
:1064D00000E0404681464C4500DD4C462888ADF83A
:1064E00000002888204400B2ADF804006888ADF8A8
:1064F00002006888204400B2ADF806000022314650
:106500006846FFF7A8FF80B1BDF80400204400B240
:10651000ADF80400BDF80600204400B2ADF8060056
:10652000314668462BF076FABAE7E888001B00B2DD
:10653000ADF80200E888ADF8060000223146684652
:10654000FFF789FF80B1BDF80400204400B2ADF828
:106550000400BDF80200001B00B2ADF80200314695
:1065600068462BF057FA9BE7A888001B00B2ADF8ED
:106570000000A888ADF80400002231466846FFF705
:106580006AFF80B1BDF80000001B00B2ADF800004A
:10659000BDF80200001B00B2ADF8020031466846AB
:1065A0002BF038FA7CE76888ADF802006888204450
:1065B00000B2ADF80600002231466846FFF74BFFF7
:1065C00080B1BDF80000001B00B2ADF80000BDF8BE
:1065D0000600204400B2ADF80600314668462BF0B4
:1065E00019FA5DE701205BE710B5B1F90030B2F9A7
:1065F0000040A34202DAB1F9003001E0B2F9003004
:106600000380B1F90230B2F90240A34202DAB1F9D3
:10661000023001E0B2F902304380B1F90430B2F93E
:106620000440A34202DDB1F9043001E0B2F90430C4
:106630008380B1F90630B2F90640A34202DDB1F918
:10664000063001E0B2F90630C38010BD2DE9FF41EC
:1066500004462FF07EFE05460020039034B14749E2
:10666000E068086020462FF0EBFF03E01BF0FCFC25
:10667000424908604149096808692AF0F5FE3F4827
:106680000068406920B13D49096848692AF0ECFE7C
:106690003A490968C8692AF0E7FE38490968086A72
:1066A0002AF0E2FE35480068006940B9002033490D
:1066B0000968A1F8500100BF00BFBDE8FF812CF0C0
:1066C00031F82BF077FF2D480068B0F85001002812
:1066D0004BD02A4800680068007CC0F34000E8B155
:1066E000264800681BF03EFD401E06B223480068A5
:1066F0001BF0D2FC401E07B23B460022114601A807
:10670000009617F0F9FF01A81C4909680968896B10
:1067100048601A48006806F0E7FB00BF4FF480713C
:1067200016480068303024F002FF2021134800682A
:1067300000F5987024F0FBFE002010490968A1F8CC
:10674000500128462FF0F8FD03900C4800680068BF
:10675000406A50B109490968086808490968096828
:106760004B6A07490A680399984724F017FC00F020
:106770003FF800F007F800BF9FE700004C01002041
:106780004801002010B5002416E0C4EBC4000C49F9
:1067900051F8200030B1C4EBC401094A52F821007D
:1067A00024F0AEFCC4EBC401054A02EB81001C21BD
:1067B00024F0BDFE601CC4B2042CE6DB10BD00005A
:1067C0004CC800200146094A10680BE042688A4222
:1067D00002D002688A4204D1027E22F00102521CD9
:1067E000027640690028F1D17047000020010020A6
:1067F0007047000010B50421014800F0E3FF10BD10
:1068000064C7002010B51C21014800F0DBFF10BD5B
:106810007CC700202DE9FF4F8BB004469A46199D96
:10682000BAF1000F11D11898B0F5807F0DD100207A
:10683000208060800C98401E00B2A0800D98401E01
:1068400000B2E0800FB0BDE8F08FB5F90000404223
:10685000189948430121C1EB202000B22080B5F9EE
:1068600002004042189948430121C1EB202000B2A8
:106870006080B5F900100C98401A1899484302211D
:1068800001EB202000B2A080B5F902100D98401A4B
:1068900018994843022101EB202000B2E080BAF1B0
:1068A000000F14D120882988084400B22080608815
:1068B0006988084400B26080A0882988084400B232
:1068C000A080E0886988084400B2E080BAE70A2026
:1068D0009AFBF0F00A900A98401C09900A9800EB85
:1068E0008000AAEB400B0A9800B230F043F8089001
:1068F000099800B230F03EF807900A985A3000B27A
:1069000030F038F8069009985A3000B230F032F87A
:106910000590CBF10A0108984143079800FB0B1042
:106920000A2190FBF1F6CBF10A0106984143059844
:1069300000FB0B100A2190FBF1F776117F11B4F9DF
:106940000080B4F9029007FB08F006FB19002988C3
:1069500001EBA02000B2ADF8100006FB08F007FB29
:106960000900698801EBA02000B2ADF81200B4F96B
:106970000480B4F9029007FB08F006FB190029888F
:1069800001EBA02000B2ADF80C0006FB08F007FBFD
:106990000900698801EBA02000B2ADF80E00B4F93F
:1069A0000080B4F9069007FB08F006FB190029885F
:1069B00001EBA02000B2ADF8080006FB08F007FBD1
:1069C0000900698801EBA02000B2ADF80A00B4F913
:1069D0000480B4F9069007FB08F006FB190029882B
:1069E00001EBA02000B2ADF8040006FB08F007FBA5
:1069F0000900698801EBA02000B2ADF80600BDF9DE
:106A00000800BDF91010884202DABDF9080001E063
:106A1000BDF91000BDF90410BDF90C20914202DA55
:106A2000BDF9041001E0BDF90C1088420BDABDF984
:106A30000800BDF91010884202DABDF908000DE027
:106A4000BDF910000AE0BDF90400BDF90C10884240
:106A500002DABDF9040001E0BDF90C002080BDF9A7
:106A60000800BDF91010884202DDBDF9080001E000
:106A7000BDF91000BDF90410BDF90C20914202DDF2
:106A8000BDF9041001E0BDF90C1088420BDDBDF921
:106A90000800BDF91010884202DDBDF908000DE0C4
:106AA000BDF910000AE0BDF90400BDF90C108842E0
:106AB00002DDBDF9040001E0BDF90C00A080BDF9C4
:106AC0000A00BDF91210884202DABDF90A0001E09D
:106AD000BDF91200BDF90610BDF90E20914202DA8F
:106AE000BDF9061001E0BDF90E1088420BDABDF9C0
:106AF0000A00BDF91210884202DABDF90A000DE061
:106B0000BDF912000AE0BDF90600BDF90E10884279
:106B100002DABDF9060001E0BDF90E006080BDF9A2
:106B20000A00BDF91210884202DDBDF90A0001E039
:106B3000BDF91200BDF90610BDF90E20914202DD2B
:106B4000BDF9061001E0BDF90E1088420BDDBDF95C
:106B50000A00BDF91210884202DDBDF90A000DE0FD
:106B6000BDF912000AE0BDF90600BDF90E10884219
:106B700002DDBDF9060001E0BDF90E00E08000BFB6
:106B800060E62DE9F74F86B0044620680590B4F919
:106B900008100798A0EB0108B4F90A100898A0EBB8
:106BA0000109E089B0F5807F13D1206B00FB08F06C
:106BB000E16A01FB1901606A00EBA10BE06A00FBCE
:106BC00008F0216B01FB0901A06A00EBA100049011
:106BD0002FE0A08980B9A06B00FB08F04FEA601895
:106BE000A06B00FB09F04FEA6019606A00EB080B2C
:106BF000A06A484404901CE0A06B00FB08F04FEA38
:106C00006018A06B00FB09F04FEA6019206B00FBD5
:106C100008F0E16A01FB1901606A00EBA12BE06A50
:106C200000FB08F0216B01FB0901A06A00EBA12029
:106C300004904FEA2B2604980712B4F90400B042DE
:106C400003DC002009B0BDE8F08F002E01DA00203F
:106C5000F8E7B4F90600B84201DC0020F2E7002FA3
:106C600001DA0020EEE73420005DC0F3800050B36D
:106C70003420005DC0F3400078B90225B4F9040067
:106C80007843684306FB050A059800EB0A012A468B
:106C900004F1140024F0F9FB2CE00325B4F90400FE
:106CA0007843684306FB050A6A1E059800EB0A0153
:106CB00004F1140024F0E9FB0AEB0500401E0599DD
:106CC000095CA17516E04FF0000A0025208A0346F2
:106CD0003AB231B2019004F1180020F0FDFA0290AE
:106CE000BDF80800A0823AB231B204F1180020F0D9
:106CF00053FAA0753420005D00F00100B0B14FF4EC
:106D00007F40002100F47C4241EA5211C0F3C402EA
:106D100011430191BDF8042011460291A08ABDF8EB
:106D20000810884201D100208CE700BFE07C08B940
:106D3000012087E70FFA8BF1A187049801B2E18760
:106D400031B24020015339B242200153C4F844A06B
:106D500084F84850204600F003F80390039871E748
:106D60002DE9F04F8DB00446D4F8009094F83C0023
:106D70000C9094F83E000B900C9870280BDA4FF0B2
:106D8000FF35B4F940002844002800DA00250C98AB
:106D90008030C7B213E00C9890280EDD0125B4F9BD
:106DA00040002844B4F90410884200DB00250C9808
:106DB000C0F1FF008030C7B201E00025FF270B982B
:106DC00070280CDA4FF0FF36B4F942003044002846
:106DD00000DA00260B98803000F0FF0815E00B98D1
:106DE00090280FDD0126B4F942003044B4F90610B2
:106DF000884200DB00260B98C0F1FF00803000F0D5
:106E0000FF0802E000264FF0FF08A08A0A90A07D4C
:106E1000069000200590049003903420005DC0F39C
:106E2000800000285BD094F84800626C00FB0520CD
:106E300000EB0901022209A824F027FBA28894F89C
:106E4000480012FB00F2606C02FB060000EB090137
:106E5000022208A824F019FBA28894F8480012FB2B
:106E600000F2606C02FB060294F8480000FB05206B
:106E700000EB0901022207A824F007FB3420005D83
:106E8000C0F3400000287ED094F84800616C00FBFD
:106E900005110844401E19F800000590A18894F8D7
:106EA000480011FB00F1606C01FB060194F84800FA
:106EB0000844401E19F800000490A18894F8480086
:106EC00011FB00F1606C01FB060194F8480000FB27
:106ED00005110844401E19F80000039053E0208A71
:106EE0000090B4F942204020005B284401B204F134
:106EF0001800009B20F0F0F90990208A00904220B1
:106F0000005B304402B2B4F9401004F11800009B59
:106F100020F0E2F90890208A00904220005B304483
:106F200002B24020005B284401B204F11800009B2B
:106F300020F0D2F907903420005DC0F3400010B378
:106F4000B4F942204020005B284401B204F118004B
:106F500020F022F905904220005B304402B2B4F9DF
:106F6000401004F1180020F017F904904220005B53
:106F7000304402B24020005B284401B204F1180002
:106F800020F00AF90390BA46BB463420005DC0F3F6
:106F90004000E0B306987843C7F1FF0C059B03FB64
:106FA0000C00C0F3072104987843C7F1FF0C039B42
:106FB00003FB0C00C0F3072201FB08F0C8F1FF033C
:106FC00002FB0300030AA375022905DC022A03DC85
:106FD00000200DB0BDE8F08F022901DC4FF0000861
:106FE000022A01DC4FF0FF080698022801DC4FF06E
:106FF000000A0598022801DC4FF0FF0A04980228D5
:1070000001DC4FF0000B0398022803DC00E002E0F3
:107010004FF0FF0B03E0BA46BB46FF21A175BAF162
:10702000000F02D1099802900BE0BAF1FF0F02D1D4
:107030000A98029005E05246DDE909101AF00CFAB0
:107040000290BBF1000F02D1079801900BE0BBF159
:10705000FF0F02D10898019005E05A46DDE90710BC
:107060001AF0FAF90190B8F1000F03D1BDF804004D
:10707000A0820FE0B8F1FF0F03D1BDF80800A08295
:1070800008E04246DDE901101AF0E6F90090BDF88B
:107090000000A08201209CE72DE9F05F0446B4F9CE
:1070A000080001026162B4F90A000102A162B4F9A8
:1070B0000C000A2190FBF1F56F1CB4F90C0005EBF4
:1070C0008501A0EB4106684200B22FF053FC8046D8
:1070D000784200B22FF04EFC8146C5F15A0000B252
:1070E0002FF048FC8246C7F15A0000B22FF042FC54
:1070F0008346C6F10A0000FB08F009FB06000A21DE
:1071000090FBF1F1E162C6F10A0000FB0AF00BFB13
:1071100006000A2190FBF1F12163E06A4111E1626E
:10712000206B41112163A07C20F08DFB3421095D8F
:1071300060F3000134200155A07C20F067FB34216E
:10714000095D60F3410134200155A07C042805D07D
:10715000A07C052802D0A07C062807D13420005D41
:1071600020F00400001D3421085505E03420005DA6
:1071700020F004013420015521682162A06920F02B
:10718000E000A061A17CA06961F30400A061A18876
:10719000A06961F39420A061E188A06961F35F5068
:1071A000A061E08900EBD071491001F5001191FB5D
:1071B000F0F2A263FF21A175208AA082BDE8F09FB2
:1071C0002DE9F743054616460024134C2FF0C1F86D
:1071D0008046334629462046019A20F0E3FF0746C1
:1071E0005FB900BF00BF2C21204624F0A0F94FF06A
:1071F0000040A0620020BDE8FE830020A062E0699C
:1072000018B940462FF098F8E061E06908B901200C
:10721000E0612046EFE70000A0C7002010B5142170
:10722000114800F0CFFA20F06FFF044600BF1CB9F0
:1072300000BF00BF00BFFEE700BF14B900BF00BF22
:1072400010BD0A49204621F047F80949204621F09F
:1072500045F80849204621F043F80749204621F027
:1072600039F800BFECE7000088C700202579020844
:10727000F97D020815800208ED78020870B5044611
:107280000D461021284624F052F920680078012884
:1072900004D1208A2880608A68800CE02068007809
:1072A000022802D1E068686005E0206800780428C0
:1072B00001D10A2068602068406820B12068294612
:1072C0004268904701E000BF00BF70BD2DE9FE435A
:1072D0000446A66AEEB9A18A208A084401B2A182B6
:1072E000E18A608A084401B2E18220460DF03FFB4A
:1072F00006460EB9BDE8FE83204611F033FD00229C
:10730000092130461FF078F86078C0F3400000B1E2
:10731000F0E7208A10B9608A002870D0002002901F
:10732000019094F83C0000F00F00032812D1304681
:1073300026F056FB0746304626F0DAFA8046032050
:107340000090B4F910103B46424630460CF0E0FD88
:10735000029012E0304626F0C5FB0746304626F084
:1073600039FA80460C200090B4F9121043463A4690
:1073700030460CF0CDFD019000BF304626F08AFA71
:10738000054605F0010028B9BDF90800002801DD17
:107390000020029005F0020028B9BDF9080000287D
:1073A00001DA0020029005F0040028B9BDF90400BC
:1073B000002801DD0020019005F0080028B9BDF982
:1073C0000400002801DA0020019001AA02A9204649
:1073D00032F0A0FD0023BDF90420BDF908103046AD
:1073E00029F05EFAA08ABDF80810084401B2A18213
:1073F000E08ABDF80410084401B2E18200BF00BF7A
:1074000078E72DE9F84F0446D4F828B0BBF1000F17
:1074100001D1BDE8F88F94F83C0000F00F0000B9EE
:10742000F7E721F093FA06463068477E4021584638
:1074300027F060FF10B9002161832183584626F0B0
:107440003DFB8046584626F043FB054694F83C0039
:1074500000F00F000C2843D1002121831DBBB4F99B
:107460001A00C7F164014843642190FBF1F001B2B6
:107470006183584626F0AEF98146584626F032FB25
:1074800082460C200090B4F91A104B4652465846DA
:107490000CF03EFD6083B4F91A20002319465846CB
:1074A00029F0FEF969E0204632F08BFD00900021C2
:1074B00061836A46204632F02DFDBDF9003041F669
:1074C000FF72514258460DF0FBFB8146BDF80000AB
:1074D000484402B201230021584629F0E1F94CE06A
:1074E00094F83C0000F00F00032846D1002161838E
:1074F000B8F1000F23D1B4F91800C7F16401484373
:10750000642190FBF1F001B22183584626F0F0F996
:107510008146584626F064FA824603200090B4F96A
:10752000181053464A4658460CF0F2FC2083B4F932
:10753000181000231A46584629F0B2F91DE02046DB
:1075400032F024FD0090002121830022694620466C
:1075500032F0E0FCBDF9003041F6FF72514258466E
:107560000DF014FB8146BDF80000484401B2012330
:107570000022584629F094F900BF208B002860D1E2
:10758000608B00285DD11DBB584626F0ABFA8146C2
:10759000584626F01FF98246B9F1000F02DCBAF115
:1075A000000F14DDB9F1000F06DA01234A4600216D
:1075B000584629F075F90AE0BAF1000F07DA0123FD
:1075C000CAF1000002B20021584629F069F900BF53
:1075D000B8F1000F23D1584626F08AF98146584663
:1075E00026F0FEF98246B9F1000F02DCBAF1000F75
:1075F00014DDB9F1000F06DA01230022494658468E
:1076000029F04EF90AE0BAF1000F07DA012300224F
:10761000CAF1000001B2584629F042F900BF3246D3
:107620000A2158461EF0E8FE6078C0F3400000B121
:10763000EFE694F83C0020F00F0184F83C100021A4
:10764000A16200BFE5E62DE9FF4104460F4614B9EB
:107650001AF00AFD04460CB9BDE8FF811FB90020ED
:10766000A4F85001F8E70020ADF80800ADF80A00D2
:1076700020461AF011FD401E00B2ADF80C00204665
:107680001AF070FD401E00B2ADF80E0002AA394695
:107690006846FEF7C9FD064606B9DDE72068007CAE
:1076A000C0F3400060B1029820630398606301203A
:1076B000A4F85001606810B160682EF0CDFFCBE7F0
:1076C0002068806918B12068694682699047002562
:1076D0000BE004F1300000EBC50100226846FEF724
:1076E000E4FD00B1B8E7681C85B2B4F85001A842C7
:1076F000EFDCB4F85001202809DAB4F8502104F185
:10770000300101EBC200694616F099FE0BE0002043
:10771000A4F85001B4F8502104F1300101EBC2008B
:1077200002A916F08CFEB4F85001401CA4F85001D8
:10773000606810B160682EF08FFF00BF8CE770B5F5
:107740000546284600F013F8044600260CE02146C2
:10775000284600F024F806462146284600F086F820
:10776000204623F0CDFC3446002CF0D170BD0146FC
:1077700009B9002070474868FCE770B50646002448
:107780003046FFF7F4FF054605E0641C2946304605
:1077900000F005F80546002DF7D1204670BD0246E1
:1077A0000B461068001D03441868704702460B46DC
:1077B0001068034418687047014609B900207047F3
:1077C0008868FCE7002242608260CA1C22F0030144
:1077D0000160704770B50446216801F1080023F08C
:1077E000C1FB0546A5B100222946204630F014FA17
:1077F00029462046626830F001FA606820B12A46C6
:107800002046616830F008FA6560A06800B9A5609C
:10781000284670BD70B50446216801F1080023F0C8
:10782000A1FB0546A5B100222946204630F0E6F925
:1078300029462046A26830F0EFF9A06820B12A4618
:107840002046A16830F0DAF9A560606800B965608B
:10785000284670BD014609B901207047486818B92B
:10786000886808B90120F8E70020F6E72DE9F04123
:1078700004460D460CB9BDE8F0812046FFF777FFBE
:10788000A8420FD129462046FFF789FF6060606853
:1078900010B90020A0602FE000222046616830F07F
:1078A000BBF929E02046FFF787FFA8420FD1294600
:1078B0002046FFF77BFFA060A06810B90020606041
:1078C0001AE000222046A16830F098F914E0294619
:1078D0002046FFF76BFF064629462046FFF75FFF6D
:1078E00007463A463146204630F088F93246394656
:1078F000204630F091F900BF00BFBCE710B5044648
:107900002068806818B12068214682689047206806
:10791000006828B12068006820602046FFF7EEFF6D
:1079200010BD0146886818B18868B0F91600704724
:107930000020FCE72DE9F04F93B005468B469146B9
:107940009A461C9E688C20F00400001D6884A5F8EF
:10795000209032895946284627F048FA1290A5F817
:1079600020A032895946284627F040FA1190688CA9
:1079700020F004006884DDE9111088420CD1DDE9B3
:107980001110884208D1BDF84800BDF84410884263
:1079900002D113B0BDE8F08FA5F820903289594686
:1079A000284627F023FA1290A5F820A05946284629
:1079B0000FF095FB10903189109A1068129A2DF0F3
:1079C00058F93089602833D147F6FF711298884200
:1079D00002D0119888422BD1284627F02EFC0F9018
:1079E00000EBD0704710284627F027FC0F9000EBE3
:1079F000D0704FEA600847F6FF711298884208D1AC
:107A0000781C08F10101884200DA01E008F1010068
:107A1000129047F6FF711198884208D1781C08F13E
:107A20000101884200DA01E008F10100119000BF75
:107A30002448FFF7CFFE044600BF1CB900BF00BFBB
:107A400000BFFEE700BF04B9A3E71298E0601198F9
:107A50002061ACB325603089A080C4F808B06846C6
:107A600015F008FE2146684615F0B7FE164968462F
:107A700015F083FE1548029000BF1549684615F0C1
:107A80008AFEFF220021684615F097FE318868467D
:107A900015F089FE7188684615F06AFEF068069058
:107AA00000BF6846002190F83E2061F3000280F894
:107AB0003E2000BF30690590684615F0A5FE00BF66
:107AC00000BF66E794C70020DDE6030889E90308E4
:107AD000B9E8030810B514210148FFF773FE10BD83
:107AE00094C700202DE9FE4F04460F4690464FF004
:107AF000000900256BE1E06800EBC5004068C0F3B9
:107B0000406000B162E1E16801EBC501496821F024
:107B10007F4029F09CFC064626EA070008B90120B0
:107B200000E00020029026EA080008B9012000E0E9
:107B300000200190DDE90101814272D0E06850F837
:107B400035A04FF0000B6A4641F6100150462CF06C
:107B500015FD10B14FF0010BA9E06A4641F6110185
:107B600050462CF00BFD10B14FF0010B9FE06A4620
:107B700041F6120150462CF001FD10B14FF0010BFF
:107B800095E06A4641F6130150462CF0F7FC10B11F
:107B90004FF0010B8BE06A4641F6150150462CF080
:107BA000EDFC10B14FF0010B81E06A4641F6140183
:107BB00050462CF0E3FC10B14FF0010B77E06A4621
:107BC00041F2690150462CF0D9FC10B14FF0010B85
:107BD0006DE06A4643F20C0150462CF0CFFC10B128
:107BE0004FF0010B63E06A4643F20D0150462CF062
:107BF000C5FC10B14FF0010B59E06A4641F201019A
:107C000050462CF0BBFC10B14FF0010B4FE06A4620
:107C100041F2040150462CF0B1FC18B14FF0010BB9
:107C200045E0D2E06A4641F2020150462CF0A6FC43
:107C300010B14FF0010B3AE06A4641F203015046A1
:107C40002CF09CFC10B14FF0010B30E06A4641F281
:107C5000050150462CF092FC10B14FF0010B26E0CC
:107C60006A4641F2060150462CF088FC10B14FF0F4
:107C7000010B1CE06A4641F2320150462CF07EFCBA
:107C800010B14FF0010B12E06A4643F60F01504667
:107C90002CF074FC10B14FF0010B08E06A4643F67B
:107CA0000E0150462CF06AFC08B14FF0010BBBF1FD
:107CB000000F02D00320BDE8FE8F6A4640F60A019D
:107CC00050462CF05BFC10B14FF002097CE06A4694
:107CD00040F60B0150462CF051FC10B14FF0020958
:107CE00072E06A4643F60F0150462CF047FC10B193
:107CF0004FF0020968E06A4643F60E0150462CF048
:107D00003DFC10B14FF002095EE06A4640F63C01CE
:107D100050462CF033FC10B14FF0020954E06A4693
:107D200040F63D0150462CF029FC10B14FF00209FD
:107D30004AE06A4640F63A0150462CF01FFC10B16A
:107D40004FF0020940E06A464FF4046150462CF0BF
:107D500015FC10B14FF0020936E06A4640F64501C5
:107D600050462CF00BFC10B14FF002092CE06A4693
:107D700040F6410150462CF001FC10B14FF00209D1
:107D800022E06A4640F6420150462CF0F7FB10B163
:107D90004FF0020918E06A4640F6430150462CF0C5
:107DA000EDFB10B14FF002090EE06A4640F64901C2
:107DB00050462CF0E3FB10B14FF0020904E0B9F19A
:107DC000000F01D14FF0010900BF00BF6D1C608C96
:107DD000C0F3C500A8423FF68EAE48466BE70000F0
:107DE00001480068704700004C01002070470146C0
:107DF000C1F30412072A00DD0722D0B27047000049
:107E000010B518210348FFF7DDFC01202EF03CFBE4
:107E100010BD000040C700202DE9F04105460F4687
:107E200016460DB9BDE8F0812846F8F7FDFC8046FE
:107E3000394628460A4A126890470746E8193146EB
:107E4000074A1268904706463C4603E0A019285CA2
:107E50002855641CA8EB0600A042F7D200BFE1E75A
:107E6000D80200202DE9F04106460C4617461D4673
:107E700029463046084A126890472060206830B191
:107E8000296888190021044A1268904700E0002000
:107E90003860BDE8F0810000D00200202DE9F04FED
:107EA00087B004460F4692469846DDE910560DB15C
:107EB000002028801CB9002007B0BDE8F08F207892
:107EC00008B90020F8E70FB90020F5E74FF00009E6
:107ED00006F0020010B906F0040098B1002000E09E
:107EE000401C215C0A2905D0215C0D2902D0215CAF
:107EF0000029F5D1215C01B1401C15B14FF0FF31D3
:107F00002980D9E706F0020008B141F6FF78002089
:107F10000690059038E000200490059808B90120EB
:107F200000E0002006A904AACDE90062CDE9021014
:107F3000059960184346524639462EF053FD834654
:107F40000498A8EB00000FFA80F8049848440FFA50
:107F500080F9BBF1000F00D11CE005985844059052
:107F600020780A2802D020780D2800D112E0059848
:107F7000205C0A2803D00598205C0D2803D10598C1
:107F8000401C059006E000BF0598205C10B1B8F1D8
:107F9000000FC0DC00BF059870B905A92046094A4A
:107FA00012689047834635B10022594638461EF084
:107FB0007CFB0FFA80F900BF0DB1A5F80090059881
:107FC0007AE70000D00200202DE9F04706468846F7
:107FD000174606B10FB9BDE8F0873046F8F724FC24
:107FE00081463846F8F720FC044604B9F3E704EB71
:107FF000090A414630460B4A12689047804655466A
:1080000003E0281B305C70556D1E08EB0400A8428D
:10801000F7D906EB08002246394623F042FA00BFA2
:10802000D9E70000D8020020024600200FA31B78E9
:108030008B4211D113781BB90123137001200BE07F
:108040001378012B02D10023137005E01378022B63
:1080500002D10023137001201378012B04D12029B1
:1080600001D102231370012070470000230000009B
:1080700073B582B006460398019032460021084647
:10808000019B2EF0CBFF0546002001900024681CC8
:1080900022F068FF044600BF1CB900BF00BF00BF4C
:1080A000FEE700BF14B9002004B070BD0020605589
:1080B0003246691C2046039B2EF0B0FF2046F3E7B2
:1080C0002DE9F04781460E4614461F46DDF820A0F4
:1080D00035461BE0600800FB075529464846D04757
:1080E000B0F1000809DD04F0010080F00100C0EBF0
:1080F0005404E8190546064608E0B8F1000F02DA14
:108100006408354602E02846BDE8F087002CE1D13E
:108110000020F9E72DE9FF4F85B08346DDE9158A98
:10812000DDE91349DDE91775129E05F00200F8B983
:108130004FB105F0010030B1B9F1000F02D105F0E7
:108140000C0000B17F1E03E030222046641C325434
:10815000544501D2202CF7D303E030222046641C82
:10816000325405F0010018B1BC4201D2202CF4D3E6
:1081700005F01000B0B305F4806050B94CB154451F
:1081800001D0BC4205D1641E1CB1B8F1100F00D162
:10819000641EB8F1100F09D105F0200030B9202C71
:1081A00004D278222046641C325415E0B8F1100F36
:1081B00009D105F0200030B1202C04D258222046ED
:1081C000641C325408E0B8F1020F05D1202C03D210
:1081D00062222046641C3254202C03D230222046D6
:1081E000641C3254202C16D2B9F1000F04D02D2279
:1081F0002046641C32540EE005F0040020B12B220E
:108200002046641C325406E005F0080018B1202214
:108210002046641C3254CDE90275CDE9006458460D
:1082200006A90EC900F0A2F809B0BDE8F08F2DE94B
:10823000FF4F8FB08046DDE91FABDDE91D96219D24
:108240001C9C00270CB925F0100505F4806000B1D6
:10825000E4B100BFB4FBF6F106FB1141C8B20A2835
:1082600002DA00F1300107E005F0200109B14121F7
:1082700000E0612101440A39CBB239467F1C07AACC
:108280005354B4FBF6F40CB1202FE3D307A8CDE987
:1082900004AB8DE8810203960695404610A90EC9ED
:1082A000FFF738FF13B0BDE8F08F2DE9FF4F8FB017
:1082B000DDE9217BDDF89080209EDDE91C454FF053
:1082C0000009002184EA01006940084301D128F037
:1082D000100808F4806028B1002184EA0100694098
:1082E00008432DD000BF32463B4620462946F8F7CA
:1082F00060F802F0FF0ABAF10A0F02DA0AF1300060
:1083000007E008F0200008B1412000E0612050445F
:108310000A38C2B2484609F1010907A90A5432468F
:108320003B4620462946F8F744F804460D4600210E
:1083300084EA01006940084302D0B9F1200FD2D38A
:108340002398CDE9036BCDE9050807A91E98CDE96F
:10835000001902900FA80FC8FFF7DCFE13B0BDE8AC
:10836000F08F9A4200D28854704770472DE9FF5F22
:1083700005461446DDE90EA6DDE91087A34607F0A1
:10838000020078B907F0010060B9B14607E0224663
:10839000641C2020039B0199A84709F10109C145EC
:1083A000F5D300BF08E02246641C711E0E461AF881
:1083B0000100039B0199A847002EF4D107F00200A9
:1083C00050B105E02246641C2020039B0199A84778
:1083D000A4EB0B004045F5D3204604B0BDE8F09F68
:1083E00000BF704700BF70472DE9FF4F8BB00746B5
:1083F00000250C9800B9FA4FEAE20E98007825287B
:108400000AD02A466D1C0E990878DDE90C13B8478E
:108410000E98401C0E90DBE20E98401C0E9000243B
:1084200000BF0E9800782B2819D004DC20281ED01D
:1084300023282CD123E02D2809D0302827D144F03F
:1084400001040E98401C0E9001200A9022E044F096
:1084500002040E98401C0E9001200A901AE044F08D
:1084600004040E98401C0E9001200A9012E044F083
:1084700008040E98401C0E9001200A900AE044F077
:1084800010040E98401C0E9001200A9002E000207B
:108490000A9000BF00BF0A980028C2D180460E99FA
:1084A0000878FDF797FE20B10EA8FDF77EFE804606
:1084B00012E00E9800782A280ED1189901C9189157
:1084C000002804DA44F00204C0F1000800E080460D
:1084D0000E99491C0E9100BF4FF000090E980078CC
:1084E0002E281FD144F480640E98401C0E900E99E3
:1084F0000878FDF76FFE20B10EA8FDF756FE814605
:1085000010E00E9800782A280CD1189901C918910A
:10851000002801DD014600E0002189460E99491C32
:108520000E9100BF0E9800786C280AD004DC6828F1
:1085300016D06A2835D128E0742820D07A2830D186
:1085400029E044F480740E98401C0E900E98007838
:108550006C2804D144F400740E98401C0E9021E065
:1085600044F080040E98401C0E900E980078682805
:1085700004D144F040040E98401C0E9012E044F4E4
:1085800080740E98401C0E900CE044F400740E9819
:10859000401C0E9006E044F480740E98401C0E902F
:1085A00000E000BF00BF0E98007869281DD00EDCE7
:1085B000622821D006DC25287ED050281AD05828E1
:1085C0007BD115E0632879D06428F9D10CE07328B9
:1085D00075D004DC6F280ED07028F1D109E0752821
:1085E00004D07828ECD102E000BF00BF00BF00BF7C
:1085F00000BF00BF00BF00BF0E980078782803D0EE
:108600000E980078582801D1102623E00E980078A3
:10861000702803D00E98007850280CD1102644F012
:10862000100444F480740E984078562812D10E98A5
:10863000401C0E900EE00E9800786F2801D108269D
:1086400008E00E980078622801D1022602E00A268E
:1086500024F010040E980078582803D00E98007863
:10866000502801D144F020040E980078692805D0E4
:108670000E980078642801D024F00C0404F4806083
:1086800008B124F001040E980078692803D00E98F0
:10869000007864287CD104F40070B8B31898C01D29
:1086A00020F007001890D0E900AB189A0832189211
:1086B0000020CDE9069803E073E17CE1F2E01CE1E3
:1086C000CDE904600894BAEB00017BEB000001DA0D
:1086D000012000E00020002102900846B1EB0A01D1
:1086E00070EB0B0002DA5046594605E000200146C7
:1086F000B0EB0A0061EB0B01CDE900012A463846D8
:10870000DDE90C13FFF7D1FD0546C7E0FFE704F4F0
:108710008070D0B1189850F804AB18904FEADA7016
:10872000CDE9039802960594BAF1000F01DD514698
:1087300001E0CAF10001CDE900102A463846DDE922
:108740000C13FFF774FD0546A8E004F0400028B1C3
:10875000189810F8041B1890C8B20DE004F08000BF
:1087600028B1189830F8041B189008B204E0189843
:1087700000681899091D189182464FEADA70CDE910
:10878000039802960594BAF1000F02DD514602E00B
:108790000BE0CAF10001CDE900102A463846DDE9B8
:1087A0000C13FFF744FD054678E00E980078562834
:1087B00018D1189850F804AB1890DAF80400006843
:1087C000099009980090DAF800300D98421B0C9837
:1087D00041193846FFF708FE0544002009905DE086
:1087E0006B83000804F40070D0B11898C01D20F00D
:1087F0000700CDE90698089418900020CDE90460A0
:108800000290189903C9189A08321892CDE900010C
:108810002A463846DDE90C13FFF747FD05463DE0E3
:1088200004F4807098B10022CDE903980296059473
:10883000189800681899091DCDE9000218912A4678
:108840003846DDE90C13FFF7F2FC054626E004F09C
:10885000400028B1189810F8041B1890C8B20DE019
:1088600004F0800028B1189830F8041B189088B2E2
:1088700004E0189800681899091D18918246002094
:10888000CDE900A0CDE90398029605942A46384622
:10889000DDE90C13FFF7CBFC054600BF0E98401C2A
:1088A0000E9093E0012604F0020050B905E02A463C
:1088B0006D1C2020DDE90C13B8473046761C40457E
:1088C000F5D3189911F8043BD8B22A466D1C1891BB
:1088D000DDE90C13B84704F0020050B105E02A4668
:1088E0006D1C2020DDE90C13B8473046761C40454E
:1088F000F5D30E98401C0E9068E0189850F804AB21
:1089000018905046B9F1000F01D0494601E04FF0F0
:10891000FF310A46014600E0491C0B781BB1131ECB
:10892000A2F10102F8D10E1A04F4806028B14E457C
:1089300001D2304600E04846064604F0020050B935
:1089400005E02A466D1C2020DDE90C13B8473046AF
:10895000761C4045F5D306E01AF8010B2A466D1C3B
:10896000DDE90C13B8479AF8000040B104F48060C8
:108970000028F1D0B9F10000A9F10109ECD104F00F
:10898000020050B105E02A466D1C2020DDE90C13E1
:10899000B8473046761C4045F5D30E98401C0E90E3
:1089A00014E02A466D1C2520DDE90C13B8470E980B
:1089B000401C0E900AE02A466D1C0E990878DDE9ED
:1089C0000C13B8470E98401C0E9000BF00BF00BFAC
:1089D0000E98007800287FF410AD0D98854201D2E2
:1089E000284601E00D98401E02460020DDE90C13E8
:1089F000B84728460FB0BDE8F08F00002DE9FF4FC3
:108A00008DB00D461646002E06DB042E04DA012D2D
:108A100002DB282D00DC05E040F2251236493748FC
:108A2000F7F78CFE06EBC60000EB4610344908440D
:108A3000445706EBC60000EB46103249084447573E
:108A400028460DF07DF88046C01708EB50704FEABD
:108A5000E00B314628460DF039F80C909BFBF4F002
:108A600004FB10B0201A0B909BFBF4F0C01B0A9083
:108A700002A9384601F068F8DDF834904FF000089C
:108A800034E00B98804501DB012100E000210A98C9
:108A900001EB000ADDE90C100844019001983B4607
:108AA00002AA51460090484601F0A6F8002041462F
:108AB0000AE00A9A904201D10B9A891A19F80030FB
:108AC000109A5354401C21445045F2DB00200C9A6C
:108AD00002EB080105E0019A135C109A5354401C04
:108AE0002144B842F7DBD14408F10108A045C8DBB6
:108AF00011B0BDE8F08F0000FC8908084C89080817
:108B00006C7D0808C87C080870B505460C4606222E
:108B10002146601CF7F7F8FE257070BD2DE9F04185
:108B200004460E46002774B13146204600F02DF869
:108B30000546B5F5004F05D20C2D01D9284600E0B9
:108B40000C20074600BF3846BDE8F081024600BF52
:108B5000481E084018B100BF00BF00BFFEE700BFBD
:108B6000481E1040101A704710B502464B1E1344A1
:108B70004C1E23EA040000BF4B1E0B401BB100BF7C
:108B800000BF00BFFEE700BF10BD024600BF481E89
:108B9000084018B100BF00BF00BFFEE700BF481E7D
:108BA00010444B1E984370472DE9F04180460E4615
:108BB000444601206086002500270DE056F8270076
:108BC00025A1F7F767FF10B1681C85B202E0608E3F
:108BD000401C6086781C87B256F8270020B156F8F2
:108BE000270000780028E9D1208EA84201D1BDE8F5
:108BF000F081A06A20B1A06A22F082FA0020A0626F
:108C0000E06A20B1E06A22F07BFA0020E062E8002E
:108C100022F0A8F9A06200BFA06A18B900BF00BF87
:108C200000BFFEE700BF680022F09CF9E06200BFD1
:108C3000E06A18B900BF00BF00BFFEE700BFA06A2E
:108C400008B1E06A00B900256900E06A22F06FFC13
:108C5000258600BFCBE700000A0000002DE9F84F91
:108C600081460E46924699F8090000F00700022856
:108C700001D1304600E050468346564501DD30467E
:108C800000E050460746032000EB470020F00300B9
:108C900000F110053948006839490968A0EB01085E
:108CA000002405EB080037490968884206D233489A
:108CB0000468606820F0004060603AE03148006875
:108CC000854221D813E04FF0FF3000900022694622
:108CD0002D4810F013FE002269462C4810F00EFEBD
:108CE0002648006826490968A0EB010800BF08EB88
:108CF0000500244909688842E5D82048046860686E
:108D000020F00040606014E0284622F02BF9044671
:108D100000BF1CB900BF00BF00BFFEE700BF14B911
:108D20000020BDE8F88F606820F0004000F10040AE
:108D3000606032465946484602F05CF9206060683F
:108D400000F04040401C6060606820F0804060603F
:108D5000A781A4F80EB06068C00F20B1204600F1D2
:108D60001001A16008E0054800681030A0600348C9
:108D700000682844014908602046D2E754010020D9
:108D8000A00200205001002051490108D59A010895
:108D9000F0B585B006460D46344600200490039099
:108DA000029094F83C0000F0030020B1012838D074
:108DB000022866D000BF94F83C0000F003005A4936
:108DC000097888421BD02620005D00EB001000EBE4
:108DD0004000142190FBF1F0544908702720005DF9
:108DE00000EB001000EB4000142190FBF1F0504923
:108DF000087094F83C0000F003004B49087002A88A
:108E000003A9CDE9001005EB45014FF6FF7202EA18
:108E1000410004AB46490A78444909780BF054FAFA
:108E20005FE094F83C0000F003003F490978884275
:108E30001AD0A08C00EB400040024FF4B471B0FB9C
:108E4000F1F03C4908802720005D00EB001000EBAA
:108E50004000142190FBF1F03549087094F83C0073
:108E600000F003003049087002A803A9CDE9001002
:108E7000E9B204AB2E4802782E4800880BF024FAA1
:108E80002FE094F83C0000F003002749097888425D
:108E90001AD0A08C00EB400040024FF4B471B0FB3C
:108EA000F1F0244908802620005D00EB001000EB63
:108EB0004000142190FBF1F01C49087094F83C002C
:108EC00000F003001849087002A803A9EAB204AB35
:108ED000CDE9001015480178164800880BF0F4F928
:108EE00000BF00BF9DF810009DF80C109DF80820F1
:108EF000D708BDF8003067F304038F080093BDF86E
:108F0000003067F34A13C7080093BDF8003067F3D9
:108F1000CF230093BDF800703B460193BDF80410C9
:108F2000084605B0F0BD0000060200200402002043
:108F3000050200200202002010B501200749087038
:108F40000748FEF714FC20B9064800682DF078FBAE
:108F500003E0044800682DF07FFB10BD880200206C
:108F600070C700208C02002010B5044694F83E0023
:108F7000C0F3400050B9A08F002807DDA08F4FF646
:108F8000FF71884202D0A08F401EA087A08FA8B991
:108F9000606B20B194F83E00C0F3400070B12146F0
:108FA0001748FEF763FCFFF7C7FFE06810B12046E3
:108FB000E1688847204622F0A3F81FE0A06B4042FA
:108FC000E062606BD0B194F83E10C1F3400111B97A
:108FD000216B4942E16294F83E104908C94394F874
:108FE0003E2061F3410284F83E20E069616AE1615C
:108FF0006062A06A616BA162606300BF10BD000087
:1090000070C700202DE9F0418046424800682DF0ED
:1090100093F906464048007880F001003E49087008
:109020003E48FEF7A4FB04466BE000203C49087074
:1090300094F83E00C0F3800037490978884253D045
:10904000354801782C34A07C61F38200A07420683C
:109050008719A07C2C3CC0F3C00010BBE06A00283C
:109060001FDC002F1DDB94F83E0000F0010060B90A
:10907000206950B12046216988470546E0692844A7
:10908000E061606A2844606200BFA06810B12046B9
:10909000A168884794F83E0020F00800083084F862
:1090A0003E00E06A3044E062E06A00281BDBD4E95D
:1090B0000A10884201DDA06AE0622046A169884763
:1090C0000546206AA84206D02562606818B1294684
:1090D000D4E900029047D4E90A10884202DB204616
:1090E000FFF742FF00BF00BF0D48007820B10B48DA
:1090F000FEF73DFB044604E021460848FEF74FFB1F
:109100000446002C91D12DF024F902490860BDE8F5
:10911000F0810000840200208902002070C7002036
:10912000880200202DE9F04106460D4617461C46F0
:10913000002D05DB102D03DC26FA05F000B904E054
:10914000B92210491048F7F7F9FA681E16E026FA16
:1091500000F101F00101227802F00702C2F10702DA
:109160009140226807EBE20212781143226807EB74
:10917000E2021170401E2168491C21600028E6DAD5
:10918000BDE8F081FC8908085C8808082DE9F05FDB
:10919000824688461646002E02DB072E00DC05E0DC
:1091A0004FF41772624963A0F7F7C8FA404630F0EF
:1091B00059F807460024B5E00025AFE022462946CD
:1091C00050460CF059FC00B1A7E0082E73D2DFE83E
:1091D00006F004101C2733465B76281900EBD0718B
:1091E0004910A0EB410109B9012100E000218B46A3
:1091F00084E0204604EBD0714910A4EB410109B989
:10920000012100E000218B4678E0032095FBF0F17E
:1092100000FB115008B9012000E0002083466DE0FA
:109220002819032190FBF1F201FB120008B901207B
:1092300000E00020834661E0032295FBF2F2214624
:1092400004EBD17302EB630000EBD0725210A0EB81
:1092500042020AB9012200E0002293464EE005FBDB
:1092600004F1032291FBF2F302FB131205FB04F05D
:1092700000EBD0714910A0EB4101114409B9012163
:1092800000E000218B4639E005FB04F2032392FB4A
:10929000F3FC03FB1C2305FB04F101EBD17252101C
:1092A000A1EB4202981800EBD0725210A0EB4202E0
:1092B00012B9012201E01BE0002293461EE005FBEB
:1092C00004F2032392FBF3FC03FB1C22291901EB9C
:1092D000D1735B10A1EB4303D01800EBD072521096
:1092E000A0EB42020AB9012200E00022934605E009
:1092F0004FF41B720E4918A0F7F720FA00BF224660
:10930000294640460CF0B8FB814689EA0B03224609
:109310002946404630F07EFF00BF6D1CBD42FFF67F
:109320004DAF641CBC42FFF647AFBDE8F09F0000A4
:10933000FC89080830203C3D2028696E74296D6145
:10934000736B2026262028696E74296D61736B204B
:109350003C3D20370000000066616C736500000032
:10936000F7B582B004460E4614B9049805B0F0BDB6
:1093700000BF63223146204625F038FD0190019D53
:1093800000BFBDB12868A8B100BF642231462046A5
:1093900025F02CFD01900198C0B207464FB13A4626
:1093A0002B682846049998470190BDF80400ADF851
:1093B000100000BF0498D9E770B504460D466068F8
:1093C00018B129466068FFF7F7FF206818B12946F1
:1093D00020462268904770BD70B505460C46A1B284
:1093E000284614F059FF70BD70B505460C46A1B271
:1093F000284614F0A2FF70BD10B50EF0D1FB10BDD1
:1094000070B505460C46164606E028466A1C95B21D
:1094100000F008F804F8010B301EA6F101018EB22D
:10942000F3D170BD70B5044600260EF07DFC21120C
:10943000A02202EB4101C8B20EF040FC0EF0BAFCD3
:109440002546E11704EB11610912A4EB0121C8B212
:109450000EF034FC0EF0AEFC0EF066FCA1200EF017
:109460002DFC0EF0A7FC00200EF0FAFB06460EF0D5
:1094700081FC304670BD70B505460C46164606E0C8
:109480002178284600F009F8681C85B2641C301E5B
:10949000A6F101018EB2F3D170BD70B504460E463F
:1094A0000EF042FC2112A02202EB4101C8B20EF0E4
:1094B00005FC0EF07FFC2546E11704EB1161091253
:1094C000A4EB0121C8B20EF0F9FB0EF073FC30469C
:1094D0000EF0F4FB0EF06EFC0EF04CFC0A2002F0D5
:1094E000CFF970BDF0B503460C460025661E11E0AD
:1094F000A81900EBD077791033F81100904201DD04
:109500004E1E07E033F81100904201DA4D1C01E0D5
:109510000846F0BDB542EBDD4FF0FF30F9E770B51E
:1095200004460D4600BF204600F03BF818B100BFCE
:1095300000BF00BFFEE700BF284600F050F9001D45
:10954000616808446060204600F03AF8204670BD2B
:1095500070B505460C46284600F041F904F11001AB
:10956000884201D3012070BD0020FCE70146A1F133
:10957000080070477CB505460C46204600F02FF9E0
:1095800006466A4601A92EF017F921462846DDE96C
:1095900000320FF02CFD7CBD0146087900F001007F
:1095A000704710B50446204600F019F908B90120AB
:1095B00010BD0020FCE70146087900F0020070476A
:1095C00070B50446204600F097F805462C60284602
:1095D00070BD7CB506460C46002001900090002529
:1095E0006CB16A4601A920462EF003F901980928BA
:1095F00005DA6A4601A9304630F0CAFD054685B154
:1096000000BF284600F0EBF8A04203D200BF00BF25
:1096100000BFFEE700BF29463046DDE9003230F0EA
:10962000E7F928467CBD70B504462046FFF7C8FF21
:109630000546284600F0BEF8204600F0B6F870BD9A
:1096400070B50446204600F057F80546284600F05D
:10965000B6F8204600F0BEF870BD70B506460D465F
:10966000284600F049F8044600BF1CB900BF00BFFF
:1096700000BFFEE700BF2046FFF78EFF90B100BF9E
:109680002846FFF78EFF18B100BF00BF00BFFEE7FE
:1096900000BF2146304600F076F821462846FFF705
:1096A0003EFF0546284670BD70B506460D46284665
:1096B000FFF781FFF0B1284600F057F8044600BFDD
:1096C0001CB900BF00BF00BFFEE700BF00BF2046BF
:1096D000FFF762FF18B900BF00BF00BFFEE700BF81
:1096E0002146304600F04FF829462046FFF717FF85
:1096F000054600BF284670BD2DE9F04104462046CE
:1097000000F06DF8061F204600F0B8F80746314615
:109710002EF07BFB054600BF2046FFF742FF18B145
:1097200000BF00BF00BFFEE700BF2846BDE8F081D4
:109730002DE9F04106460C461546002794B100BFBE
:109740001DB900BF00BF00BFFEE700BF2A4621468B
:10975000304600F097F82046FFF772FF204600F0F1
:109760008DF807463846BDE8F08110B5044600BFC5
:109770002046FFF720FF18B900BF00BF00BFFEE77B
:1097800000BF206810BD7CB505460C46204600F0A1
:1097900026F806466A4601A92EF00EF8214628460C
:1097A000DDE9003230F024F97CBD416841F001016F
:1097B00041607047416841F0020141607047416873
:1097C00021F0020141607047426802F003030B433D
:1097D00043607047416821F00101416070470146D4
:1097E000486820F0030070472DE9F04706460C4614
:1097F000304600F043F88046211F2EF006FB074656
:109800003046FFF7ECFF211D451A00BF384600F037
:1098100035F88146384600F031F880460421FFF7DC
:10982000A3F9814503D000BF00BF00BFFEE700BF22
:1098300000BF3046FFF7D3FF2919091D884203D026
:1098400000BF00BF00BFFEE700BF29463846FFF754
:10985000BBFF00BF3846FFF7C2FF0C2803D200BF92
:1098600000BF00BFFEE700BF21463046FFF7ACFF58
:109870003846FFF7D8FE3846BDE8F087014601F1CB
:10988000080070472DE9F04106460C46154600BF1A
:109890002046FFF781FE18B900BF00BF00BFFEE7FA
:1098A00000BF29462046FFF753FE78B129462046DF
:1098B000FFF79AFF07462046FFF782FE3846FFF77C
:1098C00079FF39463046FFF755FE00BFBDE8F0810D
:1098D0002DE9F04106460C46154600BF2046FFF72D
:1098E0005BFE18B100BF00BF00BFFEE700BF294606
:1098F0002046FFF72DFE88B129462046FFF774FF6A
:1099000007463846FFF75BFF39463046FFF7A5FEAE
:10991000074639463046FFF72DFE00BFBDE8F0810F
:109920002DE9F843064634461FF010F880464046BD
:109930001FF051F878BB30461BF0CBFD38B33046F2
:109940001BF043FC208FE18E884212D0E08E2087EE
:10995000E08E00906A461C2130461CF04DFD074603
:10996000012F02D03846BDE8F883304626F05FF874
:1099700000BF40461FF03FF80546042D06D1304693
:1099800023F0B6FE074600211DF0D9FB09E0304662
:109990001BF002FE05E0FFE7208FE086304626F050
:1099A00046F80120DFE72DE9F041044620461CF08F
:1099B00077F80546284623F0F5FE0646284615F0BA
:1099C0008DFE07460122394630462BF05DFEBDE88C
:1099D000F0810146C1F3C01070470146C1F3801009
:1099E00070470146C1F3C01070470146C1F3002023
:1099F00070470146C1F3C00070470146C1F34010F3
:109A000070470146C1F3402070470146C1F3003062
:109A100070470146C1F30010704700002DE9F04F78
:109A200089B004460D460021204623F056FD30B98A
:109A30001C21284621F07BFD09B0BDE8F08F2946A6
:109A4000204600F049FC2946204600F081F900211B
:109A5000204624F075FF08900021204625F0F6F8F6
:109A600007900021204624F02BFD012800D100E0C2
:109A7000002081460021204625F09EFB074600215C
:109A8000204624F00BFE064642F2D170874205D1F3
:109A9000608CC0F3802008B9012000E000208246DD
:109AA000204623F0BAFD069000BF4FF0000824487E
:109AB00002884146204625F099F903900398C0B2E8
:109AC00000BF8346AA6829692868CDE90209CDE963
:109AD00000125A465146089B06980DF08DFB2883CC
:109AE00042F2D170864205D1608CC0F3402008B9A3
:109AF000012000E000200590204623F06FFD049037
:109B000000BF4FF000080F4802884146204625F06C
:109B10006DF903900398C0B200BF83460023EA6842
:109B200069686869CDE90213CDE900025A46079BCE
:109B3000DDE904010DF060FB688300BF7CE70000F5
:109B40007A0100207E0100202DE9F04104460D46F7
:109B5000012C02DB1E2C00DC05E040F263121649EA
:109B600016A0F6F7EBFD21462846F6F749FF01213E
:109B7000601E295401274FF0000818E000260DE070
:109B8000A85D39460BF098FAA855701CA04204DA7B
:109B9000A85D711C695C4840A855761CA642EFDBA5
:109BA000022138460BF088FA074608F10108A04563
:109BB000E4DBBDE8F0810000FC89080831203C3D71
:109BC0002064656772656520262620646567726576
:109BD00065203C3D207172636F646567656E5F52FE
:109BE0004545445F534F4C4F4D4F4E5F44454752A0
:109BF00045455F4D415800002DE9F05F804689469C
:109C000092461C460A9D012C02DB1E2C00DC05E05E
:109C100040F27D12144915A0F6F790FD2146284622
:109C2000F6F7EEFE00271AE018F80700297880EA18
:109C3000010B621E691C2846F6F766FE0021601EB5
:109C40002954002608E01AF8060059460BF034FAA9
:109C5000A95D4840A855761CA642F4DB7F1C4F4501
:109C6000E2DBBDE8F09F0000FC89080831203C3DA4
:109C700020646567726565202626206465677265C5
:109C800065203C3D207172636F646567656E5F524D
:109C90004545445F534F4C4F4D4F4E5F44454752EF
:109CA00045455F4D4158000070B505460E46B6F576
:109CB000004F02D34FF0FF3070BD3446012D08D164
:109CC00004EB8400022101EB4000032190FBF1F43E
:109CD00021E0022D08D104EB440101EBC401481C32
:109CE00000EBD0714C1016E0042D01D1E40012E01D
:109CF000082D04D104EB840000EBC4040BE0072D15
:109D000002D10EB9182405E04FF455720A490BA090
:109D1000F6F714FD00BF002C00DB05E040F25732DF
:109D2000054908A0F6F70AFDB4F5004F02D34FF03D
:109D3000FF30C1E72046BFE7FC89080866616C7305
:109D400065000000726573756C74203E3D20300024
:109D50002DE9F34F87B00C4607980CF06BFA80465C
:109D6000079823F05AFC0690404601F0C6F920619E
:109D70002169480021F030F920602169480021F074
:109D80002BF9A060002548E05848029038F91500EA
:109D900041F69A7188423FD10020019029E0019953
:109DA000079823F09AFB00905149009825F0ADFAEE
:109DB00000B11BE000980CF05BFA8246BAF1010F8B
:109DC00000D013E000980CF043FA8346AB4500D076
:109DD0000CE0009825F031FA0299884201DA0298E5
:109DE00002E0009825F029FA029000BF0198401C7B
:109DF0000190079823F08FFB01998842CFD80298F1
:109E0000002804DB0298A16821F8150003E0002176
:109E1000A06820F8151000BF6D1C2069A842B3D8B7
:109E20000026B14600251BE038F9150041F69B716C
:109E3000884202DB411A0E4411E041F69A718842D1
:109E400006D1A16831F8151049440FFA81F906E0EE
:109E5000A16821F8150009EB00010FFA81F96D1CCA
:109E60002069A842E0D80021079824F069FD0590F8
:109E70002169491EDDE9050200FB112000B20690B0
:109E80000698A0EB090007B2002F00DA00274FF078
:109E9000FF30049000200390002513E038F91500EE
:109EA00041F69B7188420CDB421A11B207FB01F2AA
:109EB000B2FBF6F212B2A36823F8152004950391C1
:109EC00000BF6D1C2069A842E8D8049800280ADB6E
:109ED0000398301A7843B0FBF6F0381A01B2A26842
:109EE000049822F8101009B0BDE8F08F01E0FFFFE0
:109EF000010006002DE9FC5F0546002211462846B8
:109F000026F05AFE0021284624F041FB814600211C
:109F1000284624F0C2FE484407B20021284624F017
:109F200073FC48440FFA80FA284624F02FFA38448C
:109F300050440FFA80FB3B4E284623F0ECFA019088
:109F40004FF000085CE0A868006850F828403649E7
:109F5000204625F0DAF900B150E0204625F0E4FD76
:109F6000002839D10021204624F042FA00900098C0
:109F700030B1012807D0022804D0032815D100E011
:109F800000BF00BF00BFB4F91A10B5F91600081AD7
:109F9000401CB04201DA304605E0B4F91A10B5F9B8
:109FA0001600081A401C06B214E00021204625F0D5
:109FB00037F970B904F1140014F099FA3844B0423A
:109FC00001DA304604E004F1140014F090FA384449
:109FD00006B200BF00BF10E0B4F91A10B5F91600C0
:109FE000081A401CB04201DA304605E0B4F91A10F4
:109FF000B5F91600081A401C06B200BF08F10108A6
:10A00000019880459FD30748864209D006EB0A0095
:10A0100006B25E4502DD3046BDE8FC9F5846FBE7D0
:10A020005846F9E701E0FFFF010004002DE9FC5F5D
:10A03000054600221146284626F0A2FD00212846AA
:10A0400024F0A5FA82460021284624F063FD5044FE
:10A050000FFA80F80021284624F0B3FC50440FFA90
:10A0600080F9284624F0A2F94844404400B2019007
:10A07000724C284623F04FFA83460021284624F0EC
:10A08000F8F9012866D100265BE0A868006850F85E
:10A0900026706B49384625F038F900B150E0384653
:10A0A00025F042FD002839D10021384624F0A0F9DE
:10A0B0000090009830B1032805D0062804D0082865
:10A0C00015D102E000BF00BF00BFB5F91800B7F915
:10A0D0001410401A401CA04201DA204605E0B5F9F0
:10A0E0001800B7F91410401A401C04B214E0002103
:10A0F000384625F088F870B907F1140014F06AFAB0
:10A100004044A04201DA204604E007F1140014F0B4
:10A1100061FA404404B200BF00BF10E0B5F9180076
:10A12000B7F91410401A401CA04201DA204605E09D
:10A13000B5F91800B7F91410401A401C04B200BF5A
:10A14000761C5E45A1D33D48844269D004EB0900EA
:10A1500004B265E000265BE0A868006850F826704D
:10A160003749384625F0D1F800B150E0384625F09F
:10A17000DBFC80BB0021384624F03AF900900098BF
:10A1800030B1012805D0042804D0072815D102E0F9
:10A1900000BF00BF00BFB7F91800B5F91410401A8E
:10A1A000401CA04201DA204605E0B7F91800B5F9D5
:10A1B0001410401A401C04B215E00021384625F066
:10A1C0002FF878B907F1140014F004FA4844A042BB
:10A1D00002DA204605E008E007F1140014F0FAF96D
:10A1E000484404B200BF00BF10E0B7F91800B5F949
:10A1F0001410401A401CA04201DA204605E0B7F9CD
:10A200001800B5F91410401A401C04B200BF761CA7
:10A210005E45A1D30948844202D004EB080004B291
:10A220000648844202D10198BDE8FC9F019884420F
:10A2300001DD2046F8E70198F6E7000001E0FFFFA6
:10A2400001000400F0B52DED028B9FB004460D46D1
:10A2500017462846F9F768FFB0EE408AF0EE608AAC
:10A2600051EC180B36F05EFB04460EA6642101A8E3
:10A27000F6F7E8FB0CA622460CA11AA8F6F71CF983
:10A280001AA90B4800682BF0F9FE314601A8F6F731
:10A29000EAFA01A9074800681FF0CAFF1FB0BDEC29
:10A2A000028BF0BD00000000484558002558000012
:10A2B0009C030020A003002010B50446206820F075
:10A2C00007FF606820F004FFA06820F001FFE0684D
:10A2D00020F0FEFE10BD00002DE9F34F87B00C46C4
:10A2E00007980CF097FD8046404600F006FF60613D
:10A2F0006169480020F070FE60606169480020F0EC
:10A300006BFEE060002548E05948029038F91500DE
:10A3100041F69A7188423FD10020019029E00199CD
:10A32000079823F0DAF800905249009824F0EDFFE6
:10A3300000B11BE000980CF035FE8246BAF1010F27
:10A3400000D013E000980CF01DFE8346AB4500D012
:10A350000CE0009823F0D6F90299884201DA0298BD
:10A3600002E0009823F0CEF9029000BF0198401C53
:10A370000190079823F0CFF801998842CFD802982E
:10A38000002804DB0298E16821F8150003E00020B2
:10A39000E16821F8150000BF6D1C6069A842B3D8C0
:10A3A0000026B14600251BE038F9150041F69B71E7
:10A3B000884202DB411A0E4411E041F69A7188424C
:10A3C00006D1E16831F8151049440FFA81F906E029
:10A3D000E16821F8150009EB00010FFA81F96D1C05
:10A3E0006069A842E0D80021079824F02FFC06906D
:10A3F000079823F0F3F801466269521E069800FBA5
:10A40000121000B205900598A0EB090007B2002FCA
:10A4100000DA00274FF0FF30049000200390002561
:10A4200011E038F9150041F69B7188420ADB421AA7
:10A4300011B207FB01F2B2FBF6F212B2E36823F8A5
:10A44000152000BF6D1C6069A842EAD80498002856
:10A450000ADB0398301A7843B0FBF6F0381A01B2E1
:10A46000E268049822F8101009B0BDE8F08F0000EF
:10A4700001E0FFFF010006007CB504460D461646CC
:10A4800028882189084400B2ADF8000068886189F5
:10A49000084400B2ADF80200A8882189084400B23F
:10A4A000ADF80400E8886189084400B2ADF8060000
:10A4B000324669462046636998477CBDF8B5054633
:10A4C0000E462C46206B10B1206B007818B9606BDB
:10A4D00008B90120F8BD606B58B128462BF0D9FCB3
:10A4E0000746104909688847616B884201D30020FC
:10A4F000F0E7206B98B1002000900AE069460A4A14
:10A50000206B126890470746B74201D10120E1E76E
:10A5100000BF206B0099405C0028EFD1DAE70120F2
:10A52000D8E70000E0020020D00200202DE9FF4F14
:10A530008FB00F46209DF87800F0010008B1FA486E
:10A5400000E0FA480E90F87800F0010008B1F848F1
:10A5500000E0F8480D90F87800F0010008B9F448E0
:10A5600000E0F4480C9001200B90B5E000220B9223
:10A5700000206A88B5F804C0A2EB0C0211B20026D4
:10A580001AE006EB860CEA6802EB8C02127C02F001
:10A59000010242B906EB860CEA6802EB8C02928952
:10A5A000024410B207E006EB860CEA6802EB8C026C
:10A5B00012898A1A11B2761C2A69B242E1D80026A1
:10A5C00085E006EB860CEA6802EB8C02127C02F056
:10A5D0000102002A7AD191FBF0F80FFA88F306EB1A
:10A5E0008609D5F80C8008EB8908B8F80C8008FBC0
:10A5F00003F80FFA88F206EB8609D5F80C8008EB11
:10A600008908B8F9049006EB860AD5F80C8008EBA7
:10A610008A08B8F90680904501DD904607E006EB10
:10A62000860AD5F80C8008EB8A08B8F90680C1457F
:10A6300008DD06EB8609D5F80C8008EB8908B8F927
:10A64000048013E006EB8609D5F80C8008EB890836
:10A65000B8F90680904501DD904607E006EB8609D3
:10A66000D5F80C8008EB8908B8F90680C4469445F3
:10A670000BD04FF0010806EB860AD5F80C9009EBD9
:10A680008A09C9F81080CDF82C8006EB8609D5F828
:10A690000C8008EB8908A8F808C006EB8609D5F8F5
:10A6A0000C8008EB8908B8F80C80A0EB08080FFABA
:10A6B00088F006EB8609D5F80C8008EB8908B8F815
:10A6C0000880A1EB08080FFA88F100BF761C2A6900
:10A6D000B2423FF676AF00BF0B9800287FF446AF3A
:10A6E00000210F9823F0DFFE012800D100E00020B8
:10A6F0000A9000200990089008A809A9CDE9001047
:10A7000029890BB2B5F9022038781E992DF080FB0B
:10A71000F87800F0010048B10A9838B10F9822F09B
:10A720007CFFBDF82410084400B2099011990F98DD
:10A7300022F0D3FE04468AE17F49204624F0E5FD5D
:10A7400040B1F878C0F3800111AA0F980CF09DF980
:10A7500004467CE10021204623F076FF079007980D
:10A76000002858D000200390002610E006EB860158
:10A77000E86850F82100A04208D106EB8600E9689D
:10A7800001EB8000B0F90800039003E0761C286913
:10A79000B042EBD800BFF87800F0010030B1608C17
:10A7A00020F4806000F58060608405E0608C20F417
:10A7B000007000F50070608404F114000D99884762
:10A7C0000399884226D0204625F031F900BFA08A9F
:10A7D000ADF80400E08AADF80600208BADF8080063
:10A7E000608BADF80A0000BF04F114000E9A0399C3
:10A7F000904701AA292120461BF0FEFD204622F0A9
:10A80000D1FF2246222100901BF0F6FD204625F0C4
:10A810000EF900BF07E0608C20F480606084608CDB
:10A8200020F400706084002006907878012812D00F
:10A83000022819D104F114000C998847B5F90010C9
:10A84000491C21F00101081A039000EBD070401060
:10A8500000B2069009E004F114000C998847298899
:10A86000081A00B2069000E000BF00BFF87800F0C0
:10A87000010050B10A9840B104F114000D998847C5
:10A88000BDF82410081A00B209900020039043F28A
:10A890000C022046039924F0A9FA029002980FFABC
:10A8A00080F800BF0020039043F20D022046039978
:10A8B00024F09CFA029002980FFA80F900BF20461B
:10A8C00024F0BBFC0590204622F01CFF049008F405
:10A8D000C040B0F5005F01D1012000E0002030B1A0
:10A8E00028F4C040B0F5FA6F01DC012000E0002040
:10A8F00090B128F4C040B0F57A7F04DD28F4C04060
:10A90000C0F57A7001E028F4C040059948436421FD
:10A9100090FBF1F00FFA80F809F4C040B0F5005F49
:10A920000CD101200BE0000013E7010807E7010844
:10A9300053E6010843E5010801000600002030B19C
:10A9400029F4C040B0F5FA6F01DC012000E00020DE
:10A9500090B129F4C040B0F57A7F04DD29F4C040FD
:10A96000C0F57A7001E029F4C0400499484364219D
:10A9700090FBF1F00FFA80F9A18A1C98401A40442C
:10A980000FFA80FAE18A1D98401A48440FFA80FBBA
:10A99000F87800F0010010B1BDF9240000E006983D
:10A9A00050440FFA80FAF87800F0010008B10698D8
:10A9B00001E0BDF9240058440FFA80FBBAF1000F02
:10A9C00002D1BBF1000F1BD0204625F030F8A08A41
:10A9D000504400B2A082208B504401B22183E08A0F
:10A9E000584401B2E182608B584401B26183204631
:10A9F00025F01DF801235A465146204625F0F4F86B
:10AA0000F87800F0010008B10A9870B904F1140058
:10AA10000D9988471F990844BDF820100844BDF8D7
:10AA20002410084400B2099008E0BDF820101F98D7
:10AA30000844BDF82410081A00B20990F878C0F351
:10AA4000800111AA0F980CF020F8044600BF24B131
:10AA5000DDE9111081427FF46FAE13B0BDE8F08FD5
:10AA60002DE9F04F8DB005468946B9F1000F02D1AE
:10AA70000DB0BDE8F08FA5F81890286810B12868CF
:10AA800020F03EFB09EB4901062202EB410020F0D9
:10AA900069FA286000BF286818B900BF00BF00BF6E
:10AAA000FEE700BF286868600221286801FB0900F2
:10AAB000801CE8600421286801FB0900001DA860D3
:10AAC000B9F1010F0CD1B420696808700020E96861
:10AAD00008800120E96848800020A9680880C7E74D
:10AAE00009F10101C80020F077FA074609F10100D9
:10AAF00007EB80084FF0000A4FEA890002B20BA969
:10AB00000CA800F067F90024BDF930008010079010
:10AB100000200390CCE0002616E00BA90CA800F062
:10AB200061F90CA800F04BF900B90FE0BDF9300055
:10AB3000801007A941F82600BDF8300000F003009E
:10AB400003A941F82600761C042EE6DB00BF042E84
:10AB500000D0B3E00A990798884219D1079800B24B
:10AB600027F814000FFA8AF028F81400DDE9030131
:10AB700008440599084406990844696808556868B6
:10AB8000005D0007000E69680855601C04B28DE086
:10AB9000DDE9070188422CD0079800B227F814009D
:10ABA0000FFA8AF028F81400039869680855686855
:10ABB000005D0007000E69680855601C04B2079824
:10ABC000401E00B227F814000FFA8AF028F814008B
:10ABD0000498001D059908440699084469680855B9
:10ABE0006868005D0007000E69680855601C04B2C3
:10ABF0005CE00999079888422CD0079800B227F8A2
:10AC000014000FFA8AF028F81400DDE90301084463
:10AC1000696808556868005D0007000E6968085596
:10AC2000601C04B20798401E00B227F814000FFA07
:10AC30008AF028F8140005980830069908446968D5
:10AC400008556868005D0007000E69680855601CBB
:10AC500004B22BE0079800B227F814000FFA8AF02C
:10AC600028F81400DDE903010844059908446968DF
:10AC700008556868005D0007000E69680855601C8B
:10AC800004B20798401E00B227F814000FFA8AF0A9
:10AC900028F8140006980C30696808556868005D4B
:10ACA0000007000E69680855601C04B20AF1010A29
:10ACB0000CA800F084F800287FF42DAF00BF40F20C
:10ACC000D32109FB01F00290029880120190601ECE
:10ACD00037F910100198814205D1601E38F9101023
:10ACE0000198814226D0DDE90121A1EB8220B0F557
:10ACF000007F04DC00FB00F14800001407E0C0F511
:10AD0000806000FB00F148000014C0F10F000199C1
:10AD100009B227F81410019909B228F814106A68CA
:10AD200010556968095D0907090E6A681155611CAB
:10AD30000CB200BFA61E0EE038F8160027F814006B
:10AD400037F8160028F814006868805D69680855AF
:10AD5000761E601C04B2002EEEDA4FF0000B0026C7
:10AD60000020E968088023E0E96821F81B6037F8D3
:10AD70001600A96821F81B0010E0A86830F81B0035
:10AD800037F91610884203DAA86830F81B0001E092
:10AD900037F91600A96821F81B00761C38F916004F
:10ADA000584501D1A642E8DB0BF101000FFA80FB08
:10ADB000A642D9DB384620F08BF900BF58E60146A1
:10ADC000B1F90200B1F90020904201DC0120704786
:10ADD0000020FCE7028000234380C2F101031BB284
:10ADE0000B807047B1F90020002A07DC0B884288ED
:10ADF0005200D21C1A4412B20A800CE04288038826
:10AE0000D21A5200521D0B881A4412B20A800288CC
:10AE1000521E12B202804288521C12B24280704707
:10AE200037B582B01546022D04DCBDF80C1008467B
:10AE300005B030BDBDF80C00C00ABDF8081000EB2D
:10AE4000D1241F2C01D2204600E01F20BDF808109D
:10AE500060F3CF210291BDF80C00C0F34510BDF89E
:10AE60000810C1F3451144183F2C01D2204600E0E0
:10AE70003F20BDF8081060F34A110291BDF80C00A4
:10AE800000F01F00BDF8081001F01F0144181F2C2E
:10AE900001D2204600E01F20BDF8081060F3040135
:10AEA0000291FF2D03D1BDF808100846C0E72A46DD
:10AEB000DDE9020116F0F2FA0190BDF8041008462F
:10AEC000B6E717B581B01446022C04DCBDF80810B3
:10AED000084604B010BDBDF80400C00ABDF8081053
:10AEE000C90A10FB01F04109BDF8040061F3CF204D
:10AEF0000190BDF8040000F01F00BDF8081001F03B
:10AF00001F0110FB01F04109BDF8040061F30400CA
:10AF10000190BDF80400C0F34510BDF80810C1F35E
:10AF2000451110FB01F08109BDF8040061F34A10DE
:10AF30000190FF2C03D1BDF804100846C9E7224652
:10AF4000DDE9010116F0AAFA0090BDF800100846EC
:10AF5000BFE737B582B01546022D04DCBDF80C10F2
:10AF6000084605B030BDBDF80C00C00ABDF8081099
:10AF7000A0EBD124002C01DD204600E00020BDF82C
:10AF8000081060F3CF210291BDF80C00C0F345100A
:10AF9000BDF80810C1F34511441A002C01DD20460C
:10AFA00000E00020BDF8081060F34A110291BDF8DE
:10AFB0000C0000F01F00BDF8081001F01F01441A3A
:10AFC000002C01DD204600E00020BDF8081060F3F1
:10AFD00004010291FF2D03D1BDF808100846C0E717
:10AFE0002A46DDE9020116F059FA0190BDF8041075
:10AFF0000846B6E708B5034600930098484080EA43
:10B00000620008BD2DE9F84F804640461AF048FD21
:10B01000824640461AF0E3FC0646504622F0C2FB48
:10B0200081462B2E09D148462AF021FB04460022F6
:10B03000214648462AF028FB3AE00A2E38D16946D4
:10B04000504622F031FC504622F0E7FA0446002137
:10B05000484623F042FA01280AD1204604EBD07179
:10B06000BDF90020C2EB610191FBF4F10DB209E0E2
:10B07000204604EBD071BDF9002002EB610191FB89
:10B08000F4F10DB2002D00DA0025002748462AF021
:10B09000EEFAA84200D001270122294648462AF0AC
:10B0A000F3FA27B100221C2148461BF0A5F900BF86
:10B0B000BDE8F88F10B58060C060002303610021F7
:10B0C00010E0002400F1140343F82140002206E0C0
:10B0D00000F1380303EBC11343F82200521C202A6D
:10B0E000F6DB491C0929ECDB10BD10B541EC100B57
:10B0F000F9F736F851EC100B10BD0146002000E0C6
:10B10000401C31F9102041F6FF739A42F8D1704784
:10B1100010B500BF00224FF480711148F7F7F4FC1E
:10B1200000BF00F01FF800BF012240210C48F7F7D4
:10B13000EBFC00BF00F016F800BF002240210848D9
:10B14000F7F7E2FC00BF00F00DF800BF012211028A
:10B150000348F7F7D9FC00BF00F004F810BD000069
:10B16000001C024010B5022000F096FB10BD00004C
:10B1700000B587B000BF00BF002001901A480068EA
:10B1800040F08000184908600846006800F0800020
:10B19000019000BF00BF00BF00BF00BF00200190B2
:10B1A0000846006840F0800008600846006800F02B
:10B1B0008000019000BF00BF00BF4020029011201E
:10B1C0000390012004900320059002A90748F7F797
:10B1D00087FB4FF48070029002A90448F7F780FBC8
:10B1E00000F0B4F807B000BD30380240001C024047
:10B1F00010B500BF012211020C48F7F785FC00BF13
:10B20000FFF7B0FF00BF012240210848F7F77CFCA0
:10B2100000BFFFF7A7FF00BF002240210348F7F758
:10B2200073FC00BFFFF79EFF10BD0000001C024032
:10B2300070B50546002400261DE06006040E00BF20
:10B24000012240211148F7F75FFC00BFFFF78AFF9A
:10B250004FF480710D48F7F745FC08B1601CC4B28B
:10B2600000BF002240210948F7F74EFC00BFFFF75E
:10B2700079FF701CC6B2082EDFDB15B9FFF7B8FFE7
:10B2800001E0FFF745FF204670BD0000001C0240B2
:10B2900070B50446002525E000BFE00928B1012271
:10B2A00011021548F7F730FC05E000224FF48071D9
:10B2B0001148F7F729FC00BFFFF754FF00BF012238
:10B2C00040210D48F7F720FC00BFFFF74BFF00BF00
:10B2D000002240210848F7F717FC00BF6006040E63
:10B2E000681CC5B2082DD7DB00BF0122110202483D
:10B2F000F7F70AFC00BF70BD001C024010B500BF8C
:10B30000012211021048F7F7FFFB00BF00BF012226
:10B3100040210D48F7F7F8FB00BFFFF723FF00BF00
:10B3200000224FF480710848F7F7EEFB00BFFFF7EB
:10B3300019FF00BF002240210348F7F7E5FB00BFDB
:10B34000FFF710FF10BD0000001C024010B500BF49
:10B3500000224FF480710C48F7F7D6FB00BFFFF7CF
:10B3600001FF00BF012240210748F7F7CDFB00BFD6
:10B37000FFF7F8FE00BF012211020348F7F7C4FBF4
:10B3800000BFFFF7EFFE10BD001C024070B50024A7
:10B39000002500BF012211021648F7F7B5FB00BFD8
:10B3A000FFF7E0FE00BF012240211248F7F7ACFB97
:10B3B00000BFFFF7D7FE09E0601CC4B2FA2C03DD22
:10B3C000FFF7C4FF012508E0FFF7CCFE4FF48071C2
:10B3D0000848F7F787FB0028EED100BF00BF002226
:10B3E00040210448F7F790FB00BFFFF7BBFE28465B
:10B3F00070BD0000001C02407CB55548808841F2B9
:10B400001801884202D10A20524908705248416806
:10B410000020884700205149087091E04E48808EF6
:10B420004E490A7801219140084000287CD04C48C0
:10B43000006823F002FF054601214948006822F018
:10B440004CF8044623F0F9FE281A0A3842490C3118
:10B45000424A127831F8121088426CDD4048006888
:10B4600022F050F93C4920313C4A127831F8121050
:10B47000884260DD3B483949097830F821004FF6B1
:10B48000FF71884216D134480C303449097830F8BD
:10B4900011003449314A127821F822002E48203018
:10B4A0002E49097830F811002E492C4A127801EB08
:10B4B000820148802C482D49097830F811002C4928
:10B4C0000978254C2034254DCDE900102D7834F82D
:10B4D0001530143C214D2D7834F81520214C1F4D8A
:10B4E0002D7804EB850461881E4C1C4D2D7834F8B2
:10B4F00025000EF017FC18480C301849097830F870
:10B5000011002146154A127821F8220012482030F5
:10B510001249097830F811002146104A127801EBDF
:10B520008201488007E0FFE74FF6FF710D480B4AA4
:10B53000127820F8221009480078401C074908704A
:10B5400006480078034909788842FFF667AF7CBD5A
:10B550002C060020F903002034000020F80300200E
:10B56000F00300209022012060830408FB030020E8
:10B57000FA0300207CB506460D4634465020005D97
:10B5800000F00100A84233D00DB1012000E00020FE
:10B590005021095D60F300015020015504F1440180
:10B5A000684612F094FFBDF80000616A898A084479
:10B5B00000B2ADF80000BDF80210606AC08A08440D
:10B5C00000B2ADF80200BDF80400616A898A08443F
:10B5D00000B2ADF80400BDF80610606AC08A0844E5
:10B5E00000B2ADF806006946304624F05AFA00BFB2
:10B5F0007CBD37B582B0054614462146039815F048
:10B6000009FD0190BDF80410084605B030BD2DE9D4
:10B61000FF4F8DB005460E461446F07A022803DC33
:10B62000012011B0BDE8F08F3089326901460C90DD
:10B630001098FBF7C5FD07460FB90020F1E7397DEB
:10B6400001F01F001CF0FFF810B14FF006080AE0EF
:10B65000397D01F01F001CF0D9F810B14FF005083A
:10B6600001E04FF00408386A38B100BF00BF21463E
:10B6700028463A6A2EF0F9FFDEE0B869002859D072
:10B6800021460BA812F0E4FE308818B97088B0F596
:10B69000807F32D0204612F0ABFF834600BFE088A7
:10B6A0006188401A401C00B20890301D7188CDE9B5
:10B6B0000010308803B259460BA8089AFBF7AAF885
:10B6C000BDF82C002188084400B2ADF82C00BDF86C
:10B6D0002E006188084400B2ADF82E00BDF830009D
:10B6E0002188084400B2ADF83000BDF8320061880E
:10B6F000084400B2ADF8320000BF0BAA09A8A9683F
:10B70000FAF792FD8146B9F1000F04D1384601F0F5
:10B710003EFE012085E7D5F808A009A8A860CDF86D
:10B720000080224631462846BB6917F025F8C5F847
:10B7300008A081E022460BA8A968FAF775FD0A90D7
:10B740000A9820B9384601F022FE012069E70BA8CB
:10B7500012F04EFF09900BA812F04AFF00EB4000D8
:10B7600003901FF039FC8146D5F808A00BA907A863
:10B7700012F06EFE012107A812F0C5FFBDF92C00E2
:10B78000B4F90010401A0690BDF92E00B4F9021069
:10B79000A0EB010BBDF92E00059042E007AA51462F
:10B7A00002A8FAF741FD0A900A9800B936E0CDF8F0
:10B7B0000090099803B20FFA8BF2069801B238464E
:10B7C0001CF06EFD0490049801280ED038461CF041
:10B7D00087FC00BF00BF48461FF07AFC384601F0E6
:10B7E000D6FDC5F808A000201BE702A8A8604B46BC
:10B7F00007AA31462846CDF8008016F0BDFFBDF8F7
:10B800001E00401C00B2ADF81E00BDF82200401C16
:10B8100000B2ADF822000BF1010B00BF0598401CEF
:10B820000590BDF9321005988142B7DAC5F808A035
:10B8300048461FF04DFC00BF384601F0A8FD01202E
:10B84000EFE600BF00BF704770B504460420F7F76D
:10B8500027FE0A48046025464FF47A7045434FF0AE
:10B86000E020006940F002004FF0E0210861084646
:10B870004561006940F00100086170BD10000020C2
:10B8800030B50446002504E04FF47A7000F004F867
:10B890006D1CA542F8D330BD70B5034600224FF0B1
:10B8A000E02675690D4E366803FB06F44FF0E0267E
:10B8B000B16910E04FF0E026B06988420BD08842B1
:10B8C00002D20E1A324402E02E1A0E4432440146CD
:10B8D000A24200D300E0EDE700BF70BD10000020E1
:10B8E000F8B506460C4615460095B4F90630B4F98D
:10B8F0000420B4F90210B4F900000EF0D2FA304678
:10B9000016F0ACFBF8BD10B510F090FD01200EF064
:10B9100071F910BDF8B505462C461DF017F806461E
:10B92000206B2AF009FD3168898B88422CD2606A2D
:10B93000009094F83C0000F0030020B1012806D0EC
:10B9400002280CD107E00020ADF8000007E06420D9
:10B950008DF8020003E064208DF8030000BF00BFF3
:10B9600030461DF0B7F92846009916F0A4F950B1F9
:10B9700000221C2128461AF03FFD0746012F01D066
:10B980003846F8BD00BF00BF2AF0E3FC2063012069
:10B99000F7E700002DE9FF5F82460C4693465846C4
:10B9A0002DF060FC074600257E1E3DE0062E00D1EE
:10B9B00005264FF0000834E04FF000092CE0A6EB1C
:10B9C00009000390701C012121EA500002900298A6
:10B9D00018B1781EA0EB080000E0404601905846E0
:10B9E000019A03990AF048F8A0B9B5EBC40F11DA2F
:10B9F00005F00702C2F107010AEBE50210780AF030
:10BA000034F800905846DDE9003203992EF002FC2C
:10BA10006D1C00BF09F10109B9F1020FCFDB08F17C
:10BA20000108B845C8DBB61E012EBFDAB5EBC40F5E
:10BA300000D105E040F25222024903A0F4F77EFE55
:10BA4000BDE8FF9FFC89080869203D3D20646174C2
:10BA5000614C656E202A2038000000002DE9F84F67
:10BA600082460E469346002E02DB072E00DC05E0E0
:10BA700040F201224B494CA0F4F760FE534850F8C5
:10BA80002A0046EAC0084446002006E0611240F25F
:10BA90003752514381EA4404401C0A28F6DB44EA49
:10BAA000882045F2124180EA01094FEAE93000B9E5
:10BAB00005E04FF402723B4945A0F4F73FFE002732
:10BAC0000BE03946484609F0D0FF03463A460821C4
:10BAD000009058462EF09EFB7F1C052FF1DD0621BD
:10BAE000484609F0C2FF07463B4607220821584650
:10BAF0002EF090FB0721484609F0B7FF07463B466A
:10BB00000822114658462EF085FB0821484609F0C8
:10BB1000ACFF07463B460822072158462EF07AFB29
:10BB200009270CE03946484609F09FFFC7F10E018E
:10BB300003460822009058462EF06CFB7F1C0F2F06
:10BB4000F0DB58462DF08EFB054600270CE0394609
:10BB5000484609F08AFF0090681EC11B082258461B
:10BB6000009B2EF057FB7F1C082FF0DB08270DE011
:10BB70003946484609F079FF0090A5F10F00C21937
:10BB800008215846009B2EF045FB7F1C0F2FEFDB52
:10BB9000A5F108020123082158462EF03BFBBDE821
:10BBA000F88F0000FC89080830203C3D2028696E91
:10BBB00074296D61736B2026262028696E74296DA7
:10BBC00061736B203C3D203700000000107E0808A8
:10BBD00062697473203E3E203135203D3D203000A7
:10BBE0002DE9F34F83B00F4603982DF03BFB8046C1
:10BBF00007240CE000232246062103982EF00AFBBE
:10BC000000230622214603982EF004FBA41CA8F171
:10BC10000700A042EEDC6FF0030435E06FF003058F
:10BC20002FE0281E01DB014600E041428946201E2C
:10BC300001DB014600E04142494505DD201E01DBF4
:10BC4000014600E041428946B9F1020F02D0B9F144
:10BC5000040F15D1E21CE91C002303982EF014FBFD
:10BC6000E21CA8F104004119002303982EF00CFBFC
:10BC7000A8F104000219E91C002303982EF004FB2C
:10BC80006D1C042DCDDD641C042CC7DD01A93846D4
:10BC900009F0C3FE0646002436E0002531E004B971
:10BCA0003DB114B9701EA84203D0701EA04201D14C
:10BCB00005B925E04FF0FF391EE04FF0FF3A16E0DE
:10BCC000BAF1000F04D1B9F1000F01D1012000E059
:10BCD0000020034601A8405D00EB090201A8005DB9
:10BCE00000EB0A0103982EF095FA0AF1010ABAF165
:10BCF000010FE5DD09F10109B9F1010FDDDD00BF3B
:10BD00006D1CB542CBDB641CB442C6DB072F38DBAD
:10BD1000B946002007E04FEAE92141F62572514378
:10BD200081EA4909401C0C28F5DB49EA0734A014D4
:10BD300000B905E040F2ED12134914A0F4F7FEFC3F
:10BD400000251BE04FF0000A14E0A8F10B0000EB07
:10BD50000A0B04F001032A46594603982EF05AFABA
:10BD600004F001035A46294603982EF053FA641052
:10BD70000AF1010ABAF1030FE7DB6D1C062DE1DBC6
:10BD800000BF05B0BDE8F08FFC89080862697473D4
:10BD9000203E3E203138203D3D2030002DE9F04F3F
:10BDA0009BB0074689461646BA4617A816F028FAE9
:10BDB0004FF4A021384622F033FB9DF8691060F360
:10BDC00082018DF86910304612F04AFC054600EBFE
:10BDD000D5704FEA60083088404400B2ADF8580092
:10BDE0007088404400B2ADF85A000021384622F075
:10BDF000CAFC1590494603A821F024F917A80B9016
:10BE00004FF40030109033480490002005900AF160
:10BE10003000FBF7D1FC044657E02079032800D01E
:10BE20004DE0208BADF85C00208A00B2ADF85E00DA
:10BE30006079FD2801DD159803E060791599484384
:10BE400000128DF868002568B5F92000E98B0844D8
:10BE50000090B5F92030D5E90512A0681EF0DFFF8B
:10BE60008346B5F92000E98B08440090B5F92030ED
:10BE7000D5E90512E0681EF0D2FF0290608B4044C5
:10BE800000B2ADF84800149416A80C9003AA1A2129
:10BE900038461AF0B1FA029880B21FFA8BF1CDE958
:10BEA0000010BDF8480083B216AA17A9484616F03C
:10BEB00089F903AA1B2138461AF09EFA00BF2146D1
:10BEC0000AF13000FBF772FC0446002CA5D11BB030
:10BED000BDE8F08F9448040870B504460D46002272
:10BEE0002946204607F082FE01222946204607F017
:10BEF0007DFE02222946204607F096FC04222946B0
:10BF0000204607F091FC70BD2DE9F74F9EB00C461E
:10BF1000E078022802DC21B0BDE8F08F1CA820994F
:10BF200012F0A8FAB4F9200001282EDD94F82200BE
:10BF3000FD282ADB208840B3BDF8700014F8231FC9
:10BF40004908C1F38001084400B2ADF87000BDF8A3
:10BF5000720021784908C1F34001084400B2ADF8ED
:10BF60007200BDF8740021784908C1F3C001401A7D
:10BF700000B2ADF87400BDF8760014F82319C1F3CF
:10BF80004001401A00B2ADF876001E981CA98268E4
:10BF90001AA8FAF749F900B9BDE7E07B00F00706F7
:10BFA00016B9A088199001E0E0881990BDF86410D6
:10BFB0006089814200D100261CA817F043FB18902D
:10BFC0001C2111A8F4F73EFDA0788DF85D00BDF8A6
:10BFD0006400ADF84C00189860B9208850B94EB98B
:10BFE0001CA81190E0788DF85C0011A91E9818F03B
:10BFF000D9F990E7E078FD2801DBFF2000E0E07848
:10C0000010901CA812F01EFB0F901CA812F092FAC0
:10C010000E90DDE90E01814201DA0F9800E00E98E2
:10C020000D90B4F900100D98B1EB600F02DAB4F97D
:10C03000000001E00D98401007461AA812F002FB1C
:10C0400081464FF0FF300C9000200B90002F01DC58
:10C05000189870B148461EF0BFFF0B9000233AB20B
:10C060001CA905A817F066FE002105A816F0E4FF3C
:10C070000C90BDF86800ADF80C00BDF86C00ADF890
:10C0800010000B98149003A811901690FF208DF8C3
:10C090005C00A01DDDE90E211AF000FE8046B8F11B
:10C0A000000F0CD0022E0AD1BDF96810D8F8080094
:10C0B00000EB4100BDF97010A0EB41001290189800
:10C0C000A0B3BDF96A502CE028B2ADF80E0028B23A
:10C0D000ADF812004A4610990B981FF0EEF9BDF921
:10C0E00068100FFA89F32AB20B9817F05BFA8DF8F3
:10C0F00054009DF85400012802D102208DF854000C
:10C10000012E09D1BDF97210691AD8F8080000EBA8
:10C1100041000088ADF84C0011A91E9818F042F9B2
:10C120006D1CBDF96E00A842CEDACCE0FFE7002519
:10C130005CE0BDF8720028440FFA80FABDF8760082
:10C14000401B0FFA80FBBDF96A00504504DDBDF9C4
:10C150006E00584500DA48E04A4610990B981FF0E7
:10C16000ACF9BDF90C100FFA89F352460B9817F091
:10C1700019FA8DF854009DF85400012802D10220CC
:10C180008DF85400BDF96A00504514DCADF80EA0DE
:10C19000ADF812A0012E0AD1BDF97210AAEB01016F
:10C1A000D8F8080000EB41000088ADF84C0011A958
:10C1B0001E9818F0F7F8BDF96E00584514DBADF87D
:10C1C0000EB0ADF812B0012E0AD1BDF97210ABEB72
:10C1D0000101D8F8080000EB41000088ADF84C00E0
:10C1E00011A91E9818F0DEF800BF6D1CBD42A0DB3F
:10C1F000BDF87000ADF80400BDF87400ADF808009B
:10C20000BDF87200384400B2ADF80600BDF8760003
:10C21000C01B00B2ADF80A0001A817F013FA009095
:10C220000098B0B9AEB9BDF87200384400B2ADF8AC
:10C230000E00BDF87600C01B00B2ADF812001098D9
:10C240008DF85C000020149011A91E9818F0AAF82F
:10C2500038E010988DF85C0001208DF85400BDF98D
:10C260007600A0EB070ABDF97200C51927E0009817
:10C2700070B14A4610990B981FF01FF9BDF968106C
:10C280000FFA89F32AB20B9817F08CF98DF8540045
:10C2900028B2ADF80E0028B2ADF81200012E09D177
:10C2A000BDF97210691AD8F8080000EB4100008847
:10C2B000ADF84C0011A91E9818F074F86D1C554586
:10C2C000D5DD00BF00BF0B9810B10B981EF000FF2A
:10C2D0000C98401C28B10C9817F014FE05A817F014
:10C2E0008DF9B8F1000F02D040461AF0CEFC00BF25
:10C2F00011E62DE9F0478EB007460C461546206939
:10C3000010B90EB0BDE8F087A07E022800DCF8E787
:10C3100020691CF069FA0646022E55D1002041F62C
:10C32000FF71CDE90001029003460DA8D4E9041283
:10C330002AF00EFC284612F085F9814600EBD970F0
:10C34000298801EB6000BDF9348008EBD871A0EBBF
:10C35000610000B2ADF82C00BDF82C00BDF834101F
:10C360000844401E00B2ADF83000284612F0E2F852
:10C37000814600EBD970698801EB6000BDF9368019
:10C3800008EBD871A0EB610000B2ADF82E00BDF84B
:10C390002E00BDF836100844401E00B2ADF8320041
:10C3A00003A816F0D1FD60690390208BADF818004A
:10C3B000A07E8DF82600002000900BAA03A9384625
:10C3C000236916F00DFAAEE00DA920691BF0B4FE4A
:10C3D0008046B8F1010F02D000BF00BF91E707A867
:10C3E00016F0E1F9A0788DF82800208BADF8240034
:10C3F000E07E8DF82600A07E8DF82700207FE8BB28
:10C40000284612F01FF9824600EBDA70298801EB0A
:10C4100060000D99C1F38A2909EBD971A0EB610085
:10C4200000B2ADF81400284612F084F8824600EB02
:10C43000DA70698801EB60000D994FEA515909EBF8
:10C44000D971A0EB610000B2ADF81600BDF8140080
:10C450000D99C1F38A210844401E00B2ADF81800BE
:10C46000BDF816000D9900EB5150401E00B2ADF81A
:10C470001A0005AA07A93846236900E002E016F071
:10C4800043F94FE06888ADF81600BDF816000D9925
:10C4900000EB5150401E00B2ADF81A003BE0288876
:10C4A000ADF81400BDF814000D99C1F38A210844B9
:10C4B000401E00B2ADF8180017E005AA07A93846DB
:10C4C000236916F021F9BDF814000D99C1F38A21F2
:10C4D000084400B2ADF81400BDF818000D99C1F37E
:10C4E0008A21084400B2ADF81800BDF91400B5F96E
:10C4F00004108842E1DDBDF816000D9900EB5150A3
:10C5000000B2ADF81600BDF81A000D9900EB5150BD
:10C5100000B2ADF81A00BDF91600B5F90610884250
:10C52000BDDD00BF00BF00BFEBE62DE9F04F87B0D7
:10C5300083460C46164694F82200022802DC07B017
:10C54000BDE8F08F208C00B9F9E794F82300C0F320
:10C55000440000B9F3E794F8230000F0010000B1B3
:10C56000EDE7304612F06EF88146304611F0E2FFFA
:10C570000746B4F90050B94501DA484600E03846AC
:10C580008246B5EB6A0F01DD4FEA6A05314605A820
:10C5900011F070FFBDF9141094F82300400800F06A
:10C5A000040010B1B4F9200003E0B4F920002844DD
:10C5B0004042084400B2ADF81400BDF9181094F8D8
:10C5C0002300400800F0080010B1B4F9200003E097
:10C5D000B4F9200028444042081A00B2ADF818000F
:10C5E000BDF9161094F82300400800F0020010B1C5
:10C5F000B4F9200003E0B4F9200028444042084484
:10C6000000B2ADF81600BDF91A1094F82300C0F37B
:10C61000400010B1B4F9200003E0B4F92000284430
:10C620004042081A00B2ADF81A00208C281A0FFAFE
:10C6300080F8B8F1000F01DA4FF00008A07894F804
:10C640002210CDE90210E08BADF804002BB205AA50
:10C6500031465846CDF8008000F002F800BF6EE782
:10C660002DE9FF4FA3B00D4616461F463298FF280E
:10C6700001DBFF2000E032983290284616F0E2FFFE
:10C680002290229868B967B9309850B932980090D2
:10C6900032462946319B239800F0A9FA27B0BDE81D
:10C6A000F08F23982946826820A8F9F7BDFD00B9CC
:10C6B000F4E720A811F0C6FF81461C2119A81EF03E
:10C6C00036FF48461EF088FC1C904FF0FF30189053
:10C6D000002F0ADD00233A46294612A817F02AFB4C
:10C6E000002112A816F0A8FC1890012331460CA8CE
:10C6F000309A17F01FFB00210CA816F09DFC0B9040
:10C7000009A819901E90BDF8C400ADF86C003298CD
:10C710008DF87C0033988DF87D00B5F90000384421
:10C72000B6F90010884203DDB5F90000384401E095
:10C73000B6F9000000B2ADF81C00B5F90400C01B4A
:10C74000B6F90410884203DAB5F90400C01B01E011
:10C75000B6F9040000B2ADF82000B5F90200384483
:10C76000B6F90210884203DDB5F90200384401E051
:10C77000B6F9020000B2ADF81E00B5F90600C01B04
:10C78000B6F90610884203DAB5F90600C01B01E0CD
:10C79000B6F9060000B2ADF8220007A811F052FF6A
:10C7A0000690B5F90200B6F90210884201DC0120BA
:10C7B00000E000208246B5F90600B6F9061088426E
:10C7C00001DB012000E000208346229800284CD0A5
:10C7D000BDF88000ADF82400BDF88400ADF8280055
:10C7E000BDF9824029E0BAF1000F04D1BDF91E0065
:10C7F000A04200DD20E0BBF1000F04D1BDF9220012
:10C80000A04200DA1DE020B2ADF8260020B2ADF85B
:10C810002A0049461C981EF0C1FEBDF980100FFA8F
:10C8200089F322B21C9816F0BDFE8DF8740019A988
:10C83000239817F0B7FD00BF641CBDF98600A04225
:10C84000D1DA00BF0CA816F0D9FE0B9817F05AFBEE
:10C850001898401C28B112A816F0D0FE189817F0AE
:10C8600051FB1C981EF034FC18E7B5F90000B6F92E
:10C870000010884201DC012000E000200590B5F99D
:10C880000400B6F90410884201DB012000E000201A
:10C89000049001200390059860B1049850B1BAF15A
:10C8A000000F07D0BBF1000F04D00698322801DA40
:10C8B0000020039001208DF87400BAF1000F15D00C
:10C8C000039898B1BDF81C00ADF82400BDF8200015
:10C8D000ADF828006888ADF826007088401E00B2C8
:10C8E000ADF82A0019A9239817F05CFDBBF1000FE1
:10C8F00015D0039898B1BDF81C00ADF82400BDF820
:10C900002000ADF82800F088401C00B2ADF82600E9
:10C91000E888ADF82A0019A9239817F043FD059877
:10C9200098B12888ADF824003088401E00B2ADF8D8
:10C930002800BDF81E00ADF82600BDF82200ADF8B5
:10C940002A0019A9239817F02DFD049898B1B088F2
:10C95000401C00B2ADF82400A888ADF82800BDF84E
:10C960001E00ADF82600BDF82200ADF82A0019A976
:10C97000239817F017FD0398F0BBBDF88000ADF8C1
:10C980002400BDF88400ADF82800B5F90200B6F91E
:10C990000210401AB84201DA384604E0B5F9020044
:10C9A000B6F90210401A00B20290002442E06888F2
:10C9B000204400B20190E888001B00B20090BDF94D
:10C9C00082100198814205DDBDF9861000988142F0
:10C9D00000DA2EE049461C981EF0E0FDBDF9241057
:10C9E0000FFA89F3019A1C9816F0DCFD8DF874009B
:10C9F000BDF98210019800E020E0814209DC019835
:10CA0000ADF826000198ADF82A0019A9239817F06F
:10CA1000C9FCBDF986100098814209DB0098ADF889
:10CA200026000098ADF82A0019A9239817F0BAFC3F
:10CA300000BF641C02988442B9DBC7E0BDF88000E7
:10CA4000ADF82400BDF98410BDF91C00401E8142E0
:10CA500002DABDF9840002E0BDF91C00401E00B2FC
:10CA6000ADF8280009A811F0EDFD8046B8F1000FDF
:10CA700048DD059810B9BAF1000F1ED0BDF982400B
:10CA800017E020B2ADF8260020B2ADF82A004146EA
:10CA90001C981EF083FDBDF92410434622B21C9859
:10CAA00016F080FD8DF8740019A9239817F07AFC10
:10CAB000641CBDF91E00A042E3DC059810B9BBF16F
:10CAC000000F1FD0BDF92200441C17E020B2ADF8C2
:10CAD000260020B2ADF82A0041461C981EF05EFDEB
:10CAE000BDF92410434622B21C9816F05BFD8DF868
:10CAF000740019A9239817F055FC641CBDF9860031
:10CB0000A042E3DABDF98010BDF92000401C81424B
:10CB100002DDBDF9800002E0BDF92000401C00B23A
:10CB2000ADF82400BDF88400ADF8280009A811F084
:10CB300089FD8046B8F1000F48DD049810B9BAF1BC
:10CB4000000F1ED0BDF9824017E020B2ADF82600DC
:10CB500020B2ADF82A0041461C981EF01FFDBDF919
:10CB60002410434622B21C9816F01CFD8DF8740068
:10CB700019A9239817F016FC641CBDF91E00A042E9
:10CB8000E3DC049810B9BBF1000F1FD0BDF92200FF
:10CB9000441C17E020B2ADF8260020B2ADF82A0000
:10CBA00041461C981EF0FAFCBDF92410434622B2FF
:10CBB0001C9816F0F7FC8DF8740019A9239817F04B
:10CBC000F1FB641CBDF98600A042E3DA0CA816F064
:10CBD00015FD0B9817F096F912A816F00FFD18988E
:10CBE00017F090F91C981EF073FA00BF56E52DE976
:10CBF000FF4F89B080460C461546DDF858901C2141
:10CC000068461EF094FC07A80090BDF83000ADF80F
:10CC100008008DF81890B4F90200B5F902108842A6
:10CC200001DC012000E000200646B4F90600B5F959
:10CC30000610884201DB012000E000200746B4F91D
:10CC40000000B5F90010884201DC012000E000205E
:10CC50008246B4F90400B5F90410884201DB0120D2
:10CC600000E0002083462088ADF81C00A088ADF8C5
:10CC700020006088ADF81E006888401E00B2ADF844
:10CC800022001EB16946404617F08CFBE888401C24
:10CC900000B2ADF81E00E088ADF822001FB1694671
:10CCA000404617F07FFB2088ADF81C002888401E06
:10CCB00000B2ADF8200016B1B5F9020001E0B4F9F8
:10CCC0000200ADF81E0017B1B5F9060001E0B4F995
:10CCD0000600ADF82200BAF1000F03D069464046C5
:10CCE00017F060FBA888401C00B2ADF81C00A088BB
:10CCF000ADF82000BBF1000F03D06946404617F0A5
:10CD000051FB0DB0BDE8F08F2DE9FF4F93B0074602
:10CD1000904699464FF6FF70804502D117B0BDE8A6
:10CD2000F08F3E46746A208C1290208C484506D0C5
:10CD3000A4F82090608C20F00400001D60844FF463
:10CD40008021204622F01FF911904FF480212046C7
:10CD500022F089F90546119819F0C2FC824638463E
:10CD600009F099FD8346BBF81600ADF83E00BDF909
:10CD70003E000AEB050108FB010000B2ADF83E00E1
:10CD8000284605EBD071BDF83E20A2EB610109B247
:10CD9000ADF83E10BDF83E0050442844401E00B29D
:10CDA000ADF84200706A808AADF83C00706A008B72
:10CDB000ADF8400001A817F0D3F801AA4FF4802184
:10CDC000204622F085FC0FAA01A9149817F0ACF8B0
:10CDD00012982084608C20F00400608400BF9DE7DE
:10CDE0002DE9F04F91B007460D46904699464FF613
:10CDF000FF70804502D111B0BDE8F08F1097109FF1
:10CE00007C6A208C0F90208C484506D0A4F8209096
:10CE1000608C20F00400001D608407A816F094F8D0
:10CE200007AA4FF48021204622F077FB4FF480219F
:10CE3000204622F018F9ADF82E00384609F02BFDF7
:10CE4000064606B9D7E7079819F04AFC8246F08AE9
:10CE5000ADF81600BDF91600BDF92E10514408FBBF
:10CE6000010000B2ADF81600BDF92E0000EBD07144
:10CE7000BDF81620A2EB610109B2ADF81610BDF89D
:10CE800016005044BDF82E100844401E00B2ADF804
:10CE90001A00A08AADF81400208BADF8180005AA7E
:10CEA00003A8A968F9F7C0F98346BBF1000F13D0B6
:10CEB000A868029003A8A86030461CF0BBFC019053
:10CEC0000020009006F1140207A92846019B15F0E6
:10CED00087FC0298A86000BF0F982084608C20F027
:10CEE0000400608400BF86E72DE9F041054635481F
:10CEF000006815F0CDF804462868866BF06A10B11A
:10CF00003046F16A8847206890B1606880B10CE0D3
:10CF10002C4800680068806A38B12A4A1268106894
:10CF2000284A12681268916A884720690028EFD160
:10CF300001202061234800680068C068806900F013
:10CF4000010050B11F4800680068C0688069C0F3E4
:10CF5000400010B10120606101E000206061606963
:10CF600008B1012000E0002007462868406998B118
:10CF70002868007CC0F3011048B12868007CC0F329
:10CF8000800020B1D6E9001000F01EF804E0D6E9D8
:10CF900000212868FDF770FA206880B1606870B1E0
:10CFA0002868007C00F0010000B147B12168A0684A
:10CFB000884202D16068A06001E02068A060BDE8FE
:10CFC000F08100004C0100202DE9F34F83B00446AE
:10CFD000884800680568874800680068007CC0F3DE
:10CFE000400040B1287CC0F3800020B100BF00BFEA
:10CFF00005B0BDE8F08F287CC0F3011002280AD1EB
:10D0000021462846049A00F004F921462846049A4D
:10D01000FDF732FAEBE0287CC0F30110012804D0C0
:10D02000287CC0F301100328F4D10020029071483D
:10D03000006815F02DF88246204611F0D2FA064617
:10D04000204611F05BFA83464FF4A050B0FBF6F097
:10D0500000B2584505DA4FF4A050B0FBF6F000B22C
:10D0600000E058460190B4F90280287CC0F301101A
:10D0700001280BD168882188401A401E00B2E08048
:10D08000E088801B401C00B2608006E02088608041
:10D0900060883044401E00B2E08000279EE0ABEB89
:10D0A00007010198814201DD019801E0ABEB070027
:10D0B0000FFA80F90120CAF8100047BBB34526DB00
:10D0C000B146297CC1F30111032901D1012100E0FE
:10D0D000002108463146049A00F00FF9287CC0F37D
:10D0E0000110012807D1A4F8008008EB0600401EBB
:10D0F00000B2A0803FE02888401EA0EB080000B2EC
:10D10000A080A088801B401C00B2208033E00298E1
:10D1100020B94FF420501DF05FFF0290029800905C
:10D12000297CC1F30111032901D1012100E0002173
:10D1300008464A463146049B00F0B2F8287CC0F30A
:10D14000011001280AD108EB070000B2208008EB8B
:10D1500007004844401E00B2A0800CE02888401E12
:10D16000A0EB0800C01B00B2A080A088A0EB0900C3
:10D17000401C00B2208007EB090058450DDBDAF8AF
:10D18000180000F0010040B1DAF81800C0F34000C8
:10D1900018B10120CAF8140002E00020CAF81400F7
:10D1A000029808B9049800E00298024621462846F1
:10D1B000FDF762F904E0A86A10B12846A96A884719
:10D1C000DAF810000028F6D106FB09F1049800EB0C
:10D1D0004100049007EB090007B200BF5F45FFF66E
:10D1E0005EAF029810B102981DF072FF00BF00BF41
:10D1F000FEE600004C01002018B5048800940C885D
:10D20000048014880C801C881480BDF800401C80A9
:10D2100018BD2DE9FC5F05460C461646204611F068
:10D22000E0F98246204611F069F983461AFB0BF0BB
:10D2300001900198471E4FF0000811E006EB4700EF
:10D240000088009006EB470006EB48010988018042
:10D2500006EB4800BDF8001001807F1E08F10108B0
:10D260004745EBD8B4F9069068886188401A401E9B
:10D2700000B2E0806888A0EB0900401E00B2608028
:10D28000B4F9049028882188401A401E00B2A0807A
:10D290002888A0EB0900401E00B22080BDE8FC9F5A
:10D2A0002DE9F04704461D46089F01FB02F0A0F15E
:10D2B000010C481E00FB02F800231AE008EB0300F3
:10D2C0000CB1ACEB000000260FE0A946AD1C07EB4B
:10D2D000400AB9F80090AAF800900CB1104400E0A0
:10D2E000801A06F101090FFA89F68E42EDDB581C0F
:10D2F00003B29342E2DBBDE8F0872DE9F0478246B6
:10D300000C46154600263BE0002731E0601E801BDE
:10D310000FFA80F8601EC01B0FFA80F9BAF1000FF7
:10D3200012D007FB048C05EB4C0308FB049C05EBB7
:10D330004C0209FB046C05EB4C0106FB047C05EB7D
:10D340004C00FFF759FF11E009FB046C05EB4C039F
:10D3500008FB049C05EB4C0207FB048C05EB4C011D
:10D3600006FB047C05EB4C00FFF746FF781C07B278
:10D37000601C00EBD071B7EB610FC7DB701C06B20D
:10D3800004EBD471B6EB610FBEDBBDE8F08710B5DE
:10D39000044620461AF0A4FE10BD00002DE9F14F0E
:10D3A0009EB01E9818F07CFB05462C461E9818F07F
:10D3B0001EFB1D90606A1CF03DFA07465020005D80
:10D3C00000F0010010B91FB0BDE8F08F0FA816F0F3
:10D3D000C7FD0FAA4FF4E021284622F079F904F1A5
:10D3E00044010DA811F073F8BDF83400616A898A10
:10D3F000084400B2ADF83400BDF83610606AC08A47
:10D40000084400B2ADF83600BDF83800616A898A78
:10D41000084400B2ADF83800BDF83A10606AC08A1E
:10D42000084400B2ADF83A000DAA0FA91D9816F0F5
:10D430007BFD4FF4E021284621F0EAF806464FF440
:10D44000E021284621F04CFB30440FFA80F84FF4DD
:10D45000E021284621F0BDFC30440FFA80F900207D
:10D460000B900C90E16CC8191F49096888478246E7
:10D47000E06CC11952460BA81DF0CBFEBDF834007C
:10D48000404400B2ADF83400BDF83600484400B264
:10D49000ADF836004FF0000BD4F824A040F257420C
:10D4A0005946504621F0A2FC019001980A9002A82A
:10D4B00015F04AFD02AA4FF4E021284622F02DF88B
:10D4C0009DF83F00022805DCBDF81400BDF82810C7
:10D4D000884207D000200BAB0DAA02A900901D982E
:10D4E00015F07EF900BF6EE7C40200202DE9F04F71
:10D4F000BDB005460E4600BF00BFAB460BF1300085
:10D50000FAF7A8F910B13DB0BDE8F08F05F11402AB
:10D510003BA8B168F8F788FE00B9F4E7B0683A9024
:10D520003BA8B06035A815F05BFD35AA4FF4E021AB
:10D53000284622F059F827A816F012FD9DF8DC00C5
:10D540008DF89F0047F6FF70ADF89C004FF4E02186
:10D55000284621F03EFE074600EBD7704FEA6009EF
:10D560004FF4E021284621F034FE074600EBD77047
:10D570004FEA600A314604A81FF064FD24A80A900F
:10D5800016A808904FF4E0201190694805900520F6
:10D5900006900BF13000FAF70FF90446C0E00A22BA
:10D5A00035A924A81DF035FE382227A916A81DF09C
:10D5B00030FEE088ADF89000E088ADF85C0039A856
:10D5C0000D9038A80E90607B00F0010020B1B4F9F6
:10D5D0000070B4F9028010E0A08847F6FF7188421D
:10D5E00000D197E0A28801AB2846A16813F0A6F805
:10D5F000BDF90470BDF9068000BFA88A384407B29F
:10D60000E88A40440FFA80F8B9F1000F19D0BAF156
:10D61000000F16D0A7EB090000B2ADF8080007EB29
:10D62000090000B2ADF80C00A8EB0A0000B2ADF89A
:10D630000A0008EB0A0000B2ADF80E0002A807903D
:10D6400001E000200790207B00F0030070B3207BF6
:10D6500000F0010010B1B5F9140000E03846ADF853
:10D66000E400ADF8E680207B00F0020010B1B5F9CF
:10D67000180000E03846ADF8E000BDF8E600ADF86F
:10D68000E20004AA1A21284618F0B6FE38AB39AADF
:10D6900024A9304615F08DFC02AA16A9304616F0D2
:10D6A00043FC04AA1B21284618F0A6FE207B00F0AC
:10D6B0000C0070B3ADF8E470207B00F0040010B1F2
:10D6C000B5F9160000E04046ADF8E600BDF8E4000C
:10D6D000ADF8E000207B00F0080010B1B5F91A00A9
:10D6E00000E04046ADF8E20004AA1A21284618F0EE
:10D6F00083FE38AB39AA24A9304615F05AFC02AA99
:10D7000016A9304616F010FC04AA1B21284618F072
:10D7100073FE00BF21460BF13000FAF747F80446CC
:10D72000002C7FF43CAF3A98B06000BFEBE60000FD
:10D730005C4304082DE9F14F9AB01A9818F0B0F93B
:10D7400004461A9818F053F91990204621F075FDF7
:10D75000074620461FF0D6FF834607EBD771A28A03
:10D7600002EB610109B218910BEBDB714A10E18AFF
:10D77000114409B2179107EBD7714E1014A815F098
:10D780002FFC14AA0021204621F02EFF4FF41D701B
:10D7900016FB00F0552190FBF1F0642190FBF1F0B5
:10D7A00000B2ADF85200BDF85200801C00B2ADF8D6
:10D7B0005200002013900021204620F040FE054634
:10D7C000002347F6FF7204F114010DA816F0B2FA17
:10D7D00000210DA815F030FC0C9000BFA08AADF818
:10D7E0002800E08AADF82A00208BADF82C00608B71
:10D7F000ADF82E0000BFBDF82800284400B2ADF8F7
:10D800002800BDF82C00401B00B2ADF82C00BDF87C
:10D810002A00284400B2ADF82A00BDF82E00401BB3
:10D8200000B2ADF82E00012347F6FF720AA904A842
:10D8300016F080FA002104A815F0FEFB0390BDF954
:10D8400052804FF0000A4FE051462046FBF7A0FA05
:10D850000090BDF80000ADF850001398C0F30F29F8
:10D860000FFA89F029F086F806EB08014843189969
:10D8700001EBE03000B2ADF804000FFA89F029F0B6
:10D8800069F806EB08014843179901EBE03000B254
:10D89000ADF806000FFA89F029F06CF8711BA1EBC6
:10D8A00008014843189901EBE03000B2ADF80800D8
:10D8B0000FFA89F029F04EF8711BA1EB08014843DB
:10D8C000179901EBE03001B2ADF80A1002AB01AAE2
:10D8D00014A9199815F06DFB0AF103001FFA80FADC
:10D8E000139800F587601390BAF5807FACDD0DA822
:10D8F00015F084FE04A815F081FE0C9816F002FBCA
:10D90000039816F0FFFA1BB0BDE8F08F2DE9F04F39
:10D91000A5B004460F46254604F1140123A8BA68B1
:10D92000F8F782FC2290229810B925B0BDE8F08F5C
:10D93000B868219023A8B8600021204620F041FE5D
:10D940001E900021204621F056F801461E980844FA
:10D9500000B21D900021204621F0B9F901461E9821
:10D96000084400B21C9020461FF057FE7E35E9881F
:10D970004843001200B21B9020461FF02FFE298959
:10D980004843001200B21A9017A815F029FB17AAF5
:10D990000021204621F028FE394605A81FF052FB41
:10D9A000002012908C4806900020079017A80B903A
:10D9B0004FF0FF30139000200E900F9005AA1A210F
:10D9C000204618F019FD00200190312220460199CF
:10D9D00021F00CFA0090009800F0FF0B00BF00212E
:10D9E000204620F0EEFD04900020019033222046D6
:10D9F000019921F0FBF90090009800F0FF0800BFAA
:10DA000020461FF075FF0390204620F06BF802902F
:10DA100035F87E09002865D0E18A1C9801440298F7
:10DA2000081A00B20190A08AADF88000208BADF8F2
:10DA30007C004FF00009B5F87E000FFA80FABBF1C8
:10DA4000020F1ADD0498002817DD08F0020040B12B
:10DA50000021204621F03BF918B909F101000FFA25
:10DA600080F908F0010040B10021204620F0E6FED8
:10DA700018B9AAF101000FFA80FA4E462FE01A9861
:10DA80007043B5F87E10491E90FBF1F000B2ADF87E
:10DA90008200BDF882100198084400B2ADF88200FF
:10DAA000BDF88200ADF87E004B480690012007903B
:10DAB00020A80E901FA80F90139605AA1A212046A1
:10DAC00018F09AFC1FAB20AA17A9384615F071FA76
:10DAD00005AA1B21204618F08FFC701C06B2564583
:10DAE000CDDB00BFB5F88000002865D0A18A1D9865
:10DAF00001440398081A00B20190E08AADF8820050
:10DB0000608BADF87E004FF00009B5F880000FFA89
:10DB100080FABBF1020F1ADD0498002817DD08F027
:10DB2000040040B10021204620F065FF18B909F13A
:10DB300001000FFA80F908F0080040B100212046EA
:10DB400021F002F818B9AAF101000FFA80FA4E4646
:10DB50002FE01B987043B5F88010491E90FBF1F040
:10DB600000B2ADF88000BDF880100198084400B202
:10DB7000ADF88000BDF88000ADF87C001648069036
:10DB80000220079020A80E901FA80F90139605AAB8
:10DB90001A21204618F030FC1FAB20AA17A93846DE
:10DBA00015F007FA05AA1B21204618F025FC701C69
:10DBB00006B25645CDDB00BF4FF0FF30139000207A
:10DBC0000E900F9005AA1B21204618F015FC2198F5
:10DBD000B86000BFA9E600005C4304082DE9F14FDE
:10DBE0009AB01A9817F0FBFE07461A9817F058FFDC
:10DBF00005462C46122F7DD11A9817F04EFF064687
:10DC00003078022802D11BB0BDE8F08F94F83800BC
:10DC100000F00300032805D094F8380000F003005A
:10DC2000022802D101203070EDE794F83800C0F3EB
:10DC30008400042808D094F83800C0F38400012838
:10DC400002D001203070DEE74FF0000A4622514634
:10DC5000284621F0CBF819901998C0B2FF2802D0BD
:10DC600001203070CFE70021284621F03DFA81469F
:10DC7000208E8144B9F1000F02D001203070C2E73C
:10DC80000021284621F071FA8046E08E00FB08F062
:10DC90004FEA20281A9817F000FF8346B8F5807FD6
:10DCA00009D1002205F114015846F8F7FEFAE8BB45
:10DCB00001203070A7E728461FF024FD8246284641
:10DCC00021F0BBFA179004F132001FFA88F100230B
:10DCD0005246CDE9001018A81799F8F79BFDBDF83A
:10DCE0006000A98A084400B2ADF86000BDF8621077
:10DCF000E88A00E01DE0084400B2ADF86200BDF81B
:10DD00006400A98A084400B2ADF86400BDF866104A
:10DD1000E88A084400B2ADF86600002218A9584607
:10DD2000F8F7C3FA18B9012030706CE700E000BFC3
:10DD300019E2152F01D0182FFAD10021284621F021
:10DD400014FA8046E08E00FB08F04FEA20280021FC
:10DD5000284621F0C9F98246208E8244284621F0C7
:10DD60006CFA199028461FF0CDFC1890002641F25D
:10DD700032023146284621F039F80E900E9800B252
:10DD8000814600BF41F612023146284621F02EF8A6
:10DD90000E900E9848440FFA80FB00BF41F6130224
:10DDA0003146284621F022F80E900E98484400B2E1
:10DDB000179000BF41F610023146284621F016F8B0
:10DDC0000E900E98484400B2169000BF41F6110222
:10DDD0003146284621F00AF80E900E98484400B2C9
:10DDE0001590608E584400B2ADF85000A18E169880
:10DDF000084400B2ADF8520094F8390000F0030076
:10DE0000012804D112A928461FF026FC27E014A9F6
:10DE10001FFA88F00FFA8AF3CDE9000112A8DDE9B4
:10DE20001821F8F7F7FCBDF84800A98A084400B2A9
:10DE3000ADF84800BDF84A10E88A084400B2ADF8D1
:10DE40004A00BDF84C00A98A084400B2ADF84C0065
:10DE5000BDF84E10E88A084400B2ADF84E0005F156
:10DE6000140110A810F021FB12A905F1140010F004
:10DE70001CFBBE481A991FF00BFB0F900F9801284E
:10DE800000D0C0E610A905F1140010F00EFB152F0C
:10DE90007ED1E08D08B1A08D00B9B4E6B8F1000FD5
:10DEA00000D1B0E61A9817F0A2FD064605F114015C
:10DEB0000DA810F0FAFA28461AF084FB0C9094F89A
:10DEC000390000F0030001283CD1B4F92C10BDF951
:10DED0003020891A481C00EBD071BDF83420A2EB29
:10DEE000610109B2ADF83410B4F92C10BDF930203D
:10DEF000891A481C00EBD071BDF83820A2EB6101F3
:10DF000009B2ADF83810B4F92E10BDF93220891AD3
:10DF1000481C00EBD071BDF83620A2EB610109B2BC
:10DF2000ADF83610B4F92E10BDF93220891A481C0C
:10DF300000EBD071BDF83A20A2EB610109B2ADF857
:10DF40003A1013E012A810F0A7FBBDF834100844F3
:10DF5000401E00B2ADF8380012A810F015FBBDF855
:10DF600036100844401E00B2ADF83A00BDF8340047
:10DF7000584400B2ADF83400BDF836101698084485
:10DF800000B2ADF83600BDF838101798081A00E056
:10DF9000E8E000B2ADF83800BDF83A101598081A5C
:10DFA00000B2ADF83A0094F8380000F00300012800
:10DFB00005D094F8380000F0030000287AD106A8B4
:10DFC00014F0F1FB06AA0021284621F047FA1FFAB7
:10DFD00088F0ADF81A001FFA8AF0ADF81800608ECC
:10DFE000ADF81C00A18EADF81E1094F83800C009E1
:10DFF0008DF82C00BDF84800584400B2ADF8100070
:10E00000BDF84A101698084400B2ADF81200BDF8E9
:10E010004C101798081A00B2ADF81400BDF84E1055
:10E020001598081A00B2ADF81600B068039004AA5B
:10E0300004A8B168F8F7F8F800B9E4E504A8B060FE
:10E04000BDF83610608D084400B2ADF80600BDF989
:10E050000600BDF93610884206DDBDF80600E18DE8
:10E06000401A00B2ADF80600BDF80600E18D084484
:10E07000401E00B2ADF80A0049E0BDF83400218D21
:10E08000084400B2ADF80400BDF90400BDF9341035
:10E09000884206DDBDF80400A18D401A00B2ADF83B
:10E0A0000400BDF80400A18D0844401E00B2ADF884
:10E0B000080016E034E001AA06A93046636A14F0AD
:10E0C00023FBBDF80400BDF83010084400B2ADF8E1
:10E0D0000400BDF80800BDF83010084400B2ADF8E7
:10E0E0000800BDF90400BDF938108842E3DBBDF833
:10E0F0000600BDF83210084400B2ADF80600BDF8C5
:10E100000A00BDF83210084400B2ADF80A00BDF9AB
:10E110000600BDF93A108842AFDB0398B06020E0FA
:10E1200094F8380000F00300022811D104A814F07C
:10E130000BFF04AA0021284621F0EFF900200090EF
:10E1400005F1140204A93046636A14F049FB08E0A3
:10E1500000BF00BF002305F114021946304614F039
:10E16000D3FA00BF00BF00BF4DE5000004820408E1
:10E170002DE9F14FDCB05C9817F092FC05462C4677
:10E180005C9817F034FC5B9059A928461FF064FA9C
:10E190000020CDE9105040F60A02DDE9100120F020
:10E1A00025FE0F900F9800B258900020CDE9105036
:10E1B00040F60B02DDE9100120F018FE0F900F98D9
:10E1C00000B25790BDF864115898081A00B2ADF823
:10E1D0006401BDF868115898084400B2ADF86801B0
:10E1E000BDF866115798081A00B2ADF86601BDF87F
:10E1F0006A115798084400B2ADF86A0159A810F0A6
:10E200003DFA834659A810F0B1F95690D4E90A10A6
:10E21000A0EB01095698834501DB012000E00020B6
:10E2200080460020559094F85C0000F0030001281F
:10E230000BD1A06A002808DAE06A002805DDA16A8F
:10E24000206B884201D1012055900021284620F002
:10E25000F9FB54900021284620F09DFC53900021AA
:10E26000284620F05BFD52900021284620F00DFB4F
:10E27000519059A904F1340010F005F9A18E549879
:10E28000084400B2A086218F5398081A01B2218752
:10E29000E18E5298084401B2E186618F5198081AC4
:10E2A00001B26187B8F1000F13D004F1340010F00F
:10E2B0005DF904280DDA569800EBD0714A10E98A0E
:10E2C0001144891E0AB2E286E08E001D01B2618708
:10E2D00015E0B8F1000F12D104F1340010F0CEF9BE
:10E2E00004280CDA58460BEBD071AA8A02EB6101C4
:10E2F000891E09B2A186A08E001D01B2218704F1FA
:10E30000340010F0BBF9509004F1340010F02EF9F5
:10E310004F90B8F1000F01D0509800E04F9882461E
:10E32000B8F1000F05D004F13406371DFE484C90BB
:10E3300004E004F13606371DFC484C90A06D401CEB
:10E34000F8B1A36A216DC91A01FB0AF191FBF9F139
:10E3500008B2A36A616DC91A01FB0AF191FBF9F1D8
:10E360000AB2131AD4F858C003FB0CF1CB1701EB17
:10E3700013631B121BB24D934D99014409B24D9189
:10E3800008E0A16A206B401A00FB0AF090FBF9F04C
:10E3900000B24D90A06C401CE0B1A36A216CC91A78
:10E3A00001FB0AF191FBF9F108B2A36A616CC91A89
:10E3B00001FB0AF191FBF9F10AB2131AD4F848C033
:10E3C00003FB0CF1CB1701EB136300EB23231BB210
:10E3D0004E9308E0D4E90901401A00FB0AF090FBD3
:10E3E000F9F000B24E900020119041F26A422846A6
:10E3F000119920F0FBFC10901098C0B24B90B8F12E
:10E40000000F0ED04B9801280BD130463E460746F0
:10E410004E99494209B24E914D99494209B24D91E6
:10E4200000BFB8F1000F0AD031884E98084400B2FE
:10E43000388031884D98084400B230800AE039882D
:10E440004E98081A401C00B2308039884D98081A3E
:10E4500000B23880559878B3A26A524202FB0AF2A1
:10E4600092FBF9F211B2B8F1000F0CD032880A44D5
:10E4700010B2B7F90020824201DD30801BE03A88FB
:10E480003280388017E03A88521A521C10B2B6F91E
:10E490000020824201DD388002E032883A803080FC
:10E4A000B7F90020B6F900309A4204DAB6F9000054
:10E4B0003A883280388000BF559800BB04F13400A0
:10E4C0004C99884701281ADC68465B991EF0BAFD12
:10E4D0004FF400300D90964801900020029004F116
:10E4E000340003906A461A21284617F085FF6A46D1
:10E4F0001B21284617F080FF5DB0BDE8F08F04F1C6
:10E50000340149A80FF0BFFF3BA815F029FD3BAA35
:10E510004FF40031284621F0DBF829A85B991EF062
:10E5200091FD4FF40030369081482A9000202B90C6
:10E530003BA82D9004F134002C9029AA1A212846DA
:10E5400017F05AFF0020119060222846119920F000
:10E550004DFC1090109800B228905698834501DA2F
:10E56000584600E056982790DDE92701B1EB600F8F
:10E5700002DD279840102890BDF9EC0026904F99B5
:10E580005098884201DA509800E04F982790DDE9D2
:10E590002601B0EB610F02DD279840102690B8F1FC
:10E5A000000F08D004F1340010F068F801462698F6
:10E5B000B1EB400F0BDCB8F1000F28D104F13400AF
:10E5C0000FF0D4FF01462698B1EB400F1FDD9DF8F8
:10E5D000EF0011909DF8060110909DF80E010F902C
:10E5E00000208DF8EF008DF806018DF80E0104F182
:10E5F00034023BA95B9815F097FC11988DF8EF0059
:10E6000010988DF806010F988DF80E0100BFA98AA9
:10E610005498084400B2ADF87800298B5398081A32
:10E6200000B2ADF87C00E98A5298084400B2ADF817
:10E630007A00698B5198081A00B2ADF87E00002369
:10E640001EA920A8289A15F075FB002120A814F017
:10E65000F3FC1D909DF822011C909DF80E011B906B
:10E6600000208DF80E018DF8220159A919A80FF08C
:10E670000AFFBDF864105498084400B2ADF8640075
:10E68000BDF866105298084400B2ADF86600BDF8B7
:10E6900068105398081A00B2ADF86800BDF86A1007
:10E6A0005198081A00B2ADF86A00B8F1000F15D001
:10E6B00019A80FF05BFF042810DA569800EBD07110
:10E6C0004A10E98A1144891E09B2ADF86610BDF8F6
:10E6D0006600001D00B2ADF86A0017E0B8F1000F47
:10E6E00014D119A80FF0CAFF04280FDA58460BEB13
:10E6F000D071AA8A02EB6101891E09B2ADF86410DB
:10E70000BDF86400001D00B2ADF86800BDF9EC2052
:10E71000002304F1340113A815F00CFB002113A809
:10E7200014F08AFC129005E07DE601086DE5010811
:10E730004081040819AA3BA95B9815F0F5FB1B98CA
:10E740008DF80E011C988DF8220100208DF8EF0045
:10E750008DF806018DF8220104F134023BA95B9883
:10E7600015F0E2FB13A814F049FF20A814F046FFAF
:10E77000129815F0C7FB1D9815F0C4FB29AA1B21A0
:10E78000284617F039FE00BFB6E6F0B591B0054651
:10E79000284617F085F90446284617F028F9074659
:10E7A000264603A815F0DCFB03AA4FF440312046AF
:10E7B00020F08EFF47F6FF70ADF80C002C20805D36
:10E7C00000F0010038B1204613F063FA0090BDF864
:10E7D0000000ADF81000214601A807F075FF01AA5E
:10E7E00003A9384615F0A0FB11B0F0BD2DE9F04F9C
:10E7F000B3B08146484617F053F980464446484630
:10E8000017F0F5F83290002140461FF073FE0546E0
:10E81000404620F012FD824640461EF073FF8346BC
:10E82000DA4501DB012000E0002006460EB1584623
:10E8300000E050463190002794F85C0000F003009F
:10E84000012806D1A06A002803DAE06A002800DD6A
:10E850000127002E3CD097B93EB1012D02D1B4F969
:10E86000340009E0B4F9380006E0012D02D1B4F912
:10E87000360001E0B4F93A00ADF8BC0037E0606A58
:10E88000002812DB3EB1012D02D1B4F9340009E0B9
:10E89000B4F9380006E0012D02D1B4F9360001E0E8
:10E8A000B4F93A00ADF8BC0021E03EB1012D02D030
:10E8B000B4F9340009E0B4F9380006E0012D02D0C3
:10E8C000B4F9360001E0B4F93A00ADF8BC000EE04E
:10E8D0001FB9E08EADF8BE0009E0606A002803DBD6
:10E8E000E08EADF8BE0002E0608FADF8BE0021A85A
:10E8F00015F036FB21AA4FF44031404620F0E8FEE7
:10E9000033462FA94046319A29F0DDFA2FA904F1A8
:10E9100068000FF0D3FD0FA832991EF093FB4FF45F
:10E9200040301C903C481090002011901D9004F144
:10E930006800129021A81390404625F02CFB022875
:10E9400010D00FAA1A21404617F056FD04F16802B4
:10E9500021A9329815F0E8FA0FAA1B21404617F0BA
:10E960004BFD55E0382221A901A81CF052FC0FAA4A
:10E970001A21404617F040FD04F1680221A932989F
:10E9800015F0D2FA0FAA1B21404617F035FD96B1BB
:10E990003EB1012D02D0B4F9340009E0B4F93800D9
:10E9A00006E0012D02D0B4F9360001E0B4F93A00D6
:10E9B000ADF8BC0002E0608FADF8BE0033462FA971
:10E9C0004046319A29F07FFA2FA904F160000FF038
:10E9D00075FD382201A921A81CF01BFC0120119013
:10E9E00004F16000129021A8139001201D900FAA3D
:10E9F0001A21404617F000FD04F1600221A9329867
:10EA000015F092FA0FAA1B21404617F0F5FC00BF43
:10EA100033B0BDE8F08F0000908204082DE9F04784
:10EA200090B00746384617F03BF8054628461EF0DA
:10EA3000B9FE064608A814F087FA08AA0021304655
:10EA400020F06BFD384616F0D2FF0446D4F808805B
:10EA500006F1140206A8A168F7F7E6FB10B910B09A
:10EA6000BDE8F08706A8A06004A9304608F0AAFA1D
:10EA7000A88AADF80800E88AADF80A00288BADF83E
:10EA80000C00BDF81200ADF80E0002AA02A8A168A1
:10EA9000F7F7CAFB98B1D4F8089002A8A0602846FE
:10EAA0001AF0C8FE82460020534605F1140208A958
:10EAB0000090204613F094FEC4F8089000BFA88A86
:10EAC000ADF80800BDF81600ADF80A00288BADF8C7
:10EAD0000C00688BADF80E0002AA02A8A168F7F737
:10EAE000A3FB98B1D4F8089002A8A06028461AF0B9
:10EAF000A1FE82460020534605F1140208A90090A9
:10EB0000204613F06DFEC4F8089000BFC4F80880DA
:10EB100000BFA4E72DE9FF4FA1B006461446249894
:10EB2000807B00F00F052298807E1F90032D00D17E
:10EB30000425012D06D0022D0BD0042D10D0082D58
:10EB40001DD114E0DFF86C834FF0800A02201E9084
:10EB50001AE0DFF864834FF0C00A04201E9013E02F
:10EB6000DFF858834FF0F00A10201E900CE0DFF819
:10EB700050834FF0FF0A4FF480701E9004E000BFF6
:10EB800000BF25B0BDE8F08F00BF1F98FD2823DA35
:10EB9000CC4801781F98814203D1CB480068A84235
:10EBA00013D000200DE018F80010FF2901D11F99A3
:10EBB00004E018F800101F9A51430912C34A115477
:10EBC000401C1E998842EED300BFDFF80083BD4988
:10EBD0001F980870BC4805602498B0F806B02498C7
:10EBE00000891B900BFB05F01A90B4F90000B16886
:10EBF000B1F90010884201DB002005E0B068B0F9EF
:10EC00000000B4F90010401A1990B4F900005844FB
:10EC1000B168B1F90410884201DC584606E0B068DA
:10EC2000B0F90400B4F90010401A401C1890B4F96F
:10EC30000200B168B1F90210884201DB002005E052
:10EC4000B068B0F90200B4F90210401A1790B4F994
:10EC500002101B980844B168B1F90610884201DC23
:10EC60001B9806E0B068B0F90600B4F90210401A2B
:10EC7000401C16901A9917984843199901FB0500F2
:10EC800015902E99159801EBD0002E90159800F054
:10EC900007071C210DA81CF04AFC22988089ADF8BA
:10ECA0003C002298807E8DF84C002298807FC0F333
:10ECB000C2008DF84D00F9F793F8019013F0ECF9CC
:10ECC0000C901B980BFB00F10C98814201DD0C9815
:10ECD00002E01B990BFB01F00B900B981CF07CF9E8
:10ECE0008146CDF8409000200A9021881998084468
:10ECF00000B2ADF82000218818980844401E00B2E8
:10ED0000ADF8240061881798084400B2ADF82200DD
:10ED1000BDF82200ADF8260000BFBDF82400BDF804
:10ED20002010401A401C00B2079000BFBDF8200020
:10ED3000ADF81400BDF82200ADF81600BDF82400AF
:10ED4000ADF81800BDF82600ADF81A0000BFBDF8F8
:10ED500016101698084400B2ADF81A0005A814F071
:10ED600071FC049008A80D901290C5F10800039062
:10ED700019980BEB00011898081A6843029017982D
:10ED80001C9078E00A9801902AFA07F020901998D0
:10ED90001D9028E02E980078209908400399C91BFF
:10EDA000C8401490149830B1149818F800100A98BC
:10EDB00009F8001003E000210A9809F800100398F0
:10EDC000874204D22F442098E840209005E0002795
:10EDD000CDF880A02E98401C2E900A98401C0A90D6
:10EDE0001D98401C1D9018991D988842D2DB0498EC
:10EDF000A0B1BDF92620BDF92010019B09EB03004D
:10EE0000079B14F0CFFB8DF844009DF8440028B90F
:10EE1000019909EB010007991CF089FBDDE9180154
:10EE2000411A0A9801440B98814206D2BDF8260087
:10EE3000401C00B2ADF8260012E002208DF844001C
:10EE40000DA9304615F0AEFABDF82600401C00B200
:10EE5000ADF82200BDF82200ADF8260000200A908F
:10EE6000029807442E9800EBD7002E9007F0070772
:10EE70001C98401C1C9016991C98884282DBBDF996
:10EE80002200BDF9261088420ED0BDF82600401E93
:10EE900000B2ADF8260002208DF844000DA93046DE
:10EEA00015F080FA00200A9048461CF011F900BFC6
:10EEB00067E60000A8410408AA410408B641040816
:10EEC000C64104085C01002060010020F4C5002058
:10EED0002DE9FF4F8FB00C4615461E46B4F90200CF
:10EEE000401E0E900E9840100D900E9800F00101FB
:10EEF0000D9808440C90B5F90000B6F9001088424E
:10EF000002DAB5F9000001E0B6F90000ADF828001A
:10EF1000B5F90000B6F90010884202DDB5F900002D
:10EF200001E0B6F90000401E00B2ADF82C0069887F
:10EF30000C98081A00B2ADF82A0069880D980844A8
:10EF400000B2ADF82E000F980AA982680AA8F7F758
:10EF50006BF98246BAF1000F02D113B0BDE8F08F11
:10EF6000E08818B1A08808B1012000E000208346A5
:10EF7000012009900AA814F065FB10B10020099047
:10EF800004E0BBF1000F01D0002009901C2102A871
:10EF90001CF0CDFA0AA802902088ADF81000207A63
:10EFA0008DF82000099820B102A90F9815F0FAF900
:10EFB00078E00AA80FF03FFB0746BDF92E0001904C
:10EFC000BDF82A00ADF82E0000200090BBF1000F24
:10EFD0000BD0B4F90600B4F904100844BDF92810A8
:10EFE00091FBF0F200FB1210009038461BF0F4FF8A
:10EFF0008046CDF814800AA80790BDF92A904AE00F
:10F00000394640461CF0CAFABDF928103BB20FFA47
:10F0100089F2404614F0C6FA8DF81800BBF1000FD3
:10F0200027D09DF8180020B3009800211BE0B4F908
:10F030000420824207DBA3881B1A1AB28B1819B26C
:10F04000831818B20BE0B4F90620B4F904301A445E
:10F05000824201DC002002E0002208F801204A1C64
:10F0600011B2421C10B2B942E1DB02228DF8182025
:10F0700000BF02A90F9815F095F9BDF82A00401CB1
:10F0800000B2ADF82A00BDF82E00401C00B2ADF869
:10F090002E0009F1010901988145B1DD40461CF0BF
:10F0A00017F800BF00BF58E72DE9FF4FC7B08B46E8
:10F0B00091469A46B9F90200BAF90210884210DA6C
:10F0C000B9F80200ADF81A01BAF80200ADF816015D
:10F0D000B9F80000ADF81801BAF80000ADF8140155
:10F0E0000FE0BAF80200ADF81A01B9F80200ADF865
:10F0F0001601BAF80000ADF81801B9F80000ADF833
:10F100001401BDF91401BDF91811441ABDF9160115
:10F11000BDF91A11451A002C01DD204600E06042BD
:10F12000002D01DD294600E06942884201DD012011
:10F1300000E000204490BBF9026000204390449816
:10F1400070B1002D01DD284600E068424101002C2D
:10F1500001DD204600E0604291FBF0F043900DE0BD
:10F16000002C01DD204600E060424101002D01DD60
:10F17000284600E0684291FBF0F04390E049439854
:10F18000085C70433F30C611771006F0010000EBB9
:10F190000708BDF91801BDF91411884202DABDF95A
:10F1A000180101E0BDF91401801B00B2ADF80401A3
:10F1B000BDF91801BDF91411884202DDBDF918012D
:10F1C00001E0BDF91401304400B2ADF80801BDF909
:10F1D0001A01BDF91611884202DABDF91A0101E0DF
:10F1E000BDF91601801B00B2ADF80601BDF91A0188
:10F1F000BDF91611884202DDBDF91A0101E0BDF921
:10F200001601304400B2ADF80A01479841A982685E
:10F2100041A8F7F709F84090409810B94BB0BDE805
:10F22000F08F4498F0B3002C24DD0021BDF81601C6
:10F23000C01B00B2CDE90001BDF91431BDF81A01BF
:10F24000C01B02B2BDF9181135A814F0F5FA01215E
:10F25000BDF81601404400B2CDE90001BDF91431FA
:10F26000BDF81A01404402B2BDF918112AA814F0E1
:10F27000E3FA4AE00021BDF81601404400B2CDE9AE
:10F280000001BDF91431BDF81A01404402B2BDF9C4
:10F29000181135A814F0D0FA0121BDF81601C01BD1
:10F2A00000B200E00DE0CDE90001BDF91431BDF878
:10F2B0001A01C01B02B2BDF918112AA814F0BCFA39
:10F2C00023E00021BDF91601CDE90001BDF81401CC
:10F2D000404403B2BDF91A21BDF81801404401B2FF
:10F2E00035A814F0A9FA0121BDF91601CDE90001F4
:10F2F000BDF81401C01B03B2BDF91A21BDF81801F5
:10F30000C01B01B22AA814F097FA002135A813F007
:10F3100093FE139000212AA813F08EFE12904FF056
:10F32000FF30119010909BF80900C0F3001068BBEB
:10F330000321BDF81A01204400B2CDE90001BDF857
:10F340001801401B03B2BDF91A21BDF918111FA8FD
:10F3500014F072FA0221BDF81601204400B2CDE982
:10F360000001BDF81401401B03B2BDF91621BDF91F
:10F37000141114A814F060FA00211FA813F05CFE09
:10F380001190002114A813F057FE109041A80FF01F
:10F3900052F90F90F8F724FD019012F07DFE0D90C8
:10F3A00041A80FF0FFF801460D98814203D241A811
:10F3B0000FF0F8F800E00D980C900C981BF00CFE84
:10F3C0000B90BDF90A010A90BDF80601ADF80A01DB
:10F3D00000200990DDE90B011CF0E0F81C2102A8D7
:10F3E0001CF0A5F841A80290BBF80000ADF8100091
:10F3F0009BF808008DF820000B98059041A8079015
:10F40000BDF906010E9040E0BDF90411099B0B9A6D
:10F41000D0180F9A13B20E9A12B214F0C3F88DF8E6
:10F4200018009DF8180028B9099A0B9988180F99A7
:10F430001CF07DF80F990998084409900F990998D4
:10F4400001440C98814206D2BDF80A01401C00B26A
:10F45000ADF80A0116E002208DF8180002A94798BD
:10F4600014F0A0FFBDF80A01401C00B2ADF806017F
:10F47000BDF80601ADF80A0100200990DDE90B0195
:10F480001CF08CF80E98401C0E900A990E98884239
:10F49000BADDBDF90601BDF90A1188420CD0BDF8EC
:10F4A0000A01401E00B2ADF80A0102208DF81800D2
:10F4B00002A9479814F076FF0B981BF009FE35A8B7
:10F4C00014F09CF82AA814F099F81198401C10B177
:10F4D0001FA814F093F81098401C10B114A814F051
:10F4E0008DF8139814F00EFD129814F00BFD11987E
:10F4F00014F008FD109814F005FD00BF8EE6000022
:10F50000C64204082DE9FF4F91B00C4615461E4631
:10F51000B4F90200401E1090109840100F901098FF
:10F5200000F001010F9808440E9029880E98081ADF
:10F5300000B2ADF8300029880F98084400B2ADF849
:10F540003400B5F90200B6F90210884202DAB5F9C2
:10F55000020001E0B6F90200ADF83200B5F9020090
:10F56000B6F90210884202DDB5F9020001E0B6F9F1
:10F570000200401E00B2ADF8360011980CA9826856
:10F580000CA8F6F751FE8146B9F1000F02D115B073
:10F59000BDE8F08FE08818B1A08808B1012000E034
:10F5A0000020824601200B900CA814F04BF810B1FB
:10F5B00000200B9004E0BAF1000F01D000200B9066
:10F5C0001C2104A81BF0B3FF0CA804902088ADF800
:10F5D0001800207A8DF828000B9820B104A9119802
:10F5E00014F0E0FE66E00CA80FF025F88346BDF9A4
:10F5F00036000390BDF83200ADF8360058461BF0D7
:10F60000EBFC0290029807900CA809900020019052
:10F61000BAF1000F0BD0B4F90600B4F90410084495
:10F62000BDF9321091FBF0F200FB12100190019F26
:10F63000BDF9328037E0594602981BF0AFFFBDF9A3
:10F6400030100FFA8BF30FFA88F2029813F0AAFF2A
:10F650008DF82000BAF1000F13D09DF8200070B192
:10F66000B4F90400B84202DA00208DF82000B4F9A1
:10F670000600B4F904100844B84200DC0027781CE6
:10F6800007B204A9119814F08DFEBDF83200401C99
:10F6900000B2ADF83200BDF83600401C00B2ADF843
:10F6A000360008F1010803988045C4DD02981BF07C
:10F6B0000FFD00BF00BF6AE72DE9FC5F80464046B2
:10F6C00016F0EEF90746B946D9F8246034464046AC
:10F6D00016F08DF90546606A00F114026846A968C3
:10F6E000F6F7A2FD8246BAF1000F41D0D5F808B076
:10F6F000C5F808D094F83C00C0F3401048B3608FC0
:10F70000E18E88420CD1628F212329463046FDF7D5
:10F71000FBFA628F212329463046FDF761FB24E086
:10F72000628F202329463046FDF7EEFA628F2023B0
:10F7300029463046FDF754FBE28E01232946304628
:10F74000FDF7E2FAE28E012329463046FDF748FB39
:10F750000BE0628F202329463046FDF7D5FA628FF1
:10F76000202329463046FDF73BFBC5F808B000BF13
:10F77000BDE8FC9F2DE9F14FD0B0509816F090F9FC
:10F7800004462546288E10B951B0BDE8F08F509838
:10F7900016F02DF94F90608C20F00400001D60845D
:10F7A0004DA920461DF058FF0026B246B4F820802F
:10F7B00000202084608C20F00400001D608427A8B5
:10F7C00014F0CEFB1FA813F0BFFB27AA4FF4A02113
:10F7D00020461FF07DFF1FAA4FF4A02120461FF0F6
:10F7E0009CFE608C20F004006084A4F8208000213E
:10F7F00020461FF0A0FA1E90002120461FF052F86C
:10F800001D90002120461FF02AF91C90002120465F
:10F810001FF0CEF91B9009A84F991DF013FC4FF46F
:10F82000A0201690D7480A9000200B903DA80D907C
:10F8300035A80E9000BF9BE103E00AF101001FFA1A
:10F8400080FA696A51F82A00CFA1F1F723F900285C
:10F85000F3D0E96A31F81600FAF7CBF800B181E18C
:10F860000027E96A31F81600FAF7B3F808B147F053
:10F870000107E96A31F81600FAF7BFF810B147F04E
:10F88000800716E0A88EB04213D108F0200008B11E
:10F8900047F0200708F0020008B147F0020708F01F
:10F8A000040008B147F0040708F0080008B147F069
:10F8B0000807A86A00EBC6014BA80EF0EDFDBDF8E5
:10F8C0002C01BDF83411084400B2ADF82C01BDF88C
:10F8D0002E01BDF83611084400B2ADF82E01BDF876
:10F8E0003001BDF83411084400B2ADF83001BDF864
:10F8F0003201BDF83611084400B2ADF8320157B9F3
:10F90000382227A93DA81BF084FC20221FA935A876
:10F910001BF07FFC1DE02784608C20F00400001D9C
:10F9200060843DA814F01CFB35A813F00DFB3DAA24
:10F930004FF4A02120461FF0CBFE35AA4FF4A021A2
:10F9400020461FF0EAFDA4F82080608C20F004001F
:10F950006084E96A31F81600FAF757F88346BBF17C
:10F96000000F06D09DF8F10040F001008DF8F10085
:10F9700005E09DF8F10020F001008DF8F1004BA8A2
:10F980000C90179609AA1A21204616F035FD9DF80D
:10F990001701400800F01000F0B39DF8170120F0A7
:10F9A0003E001E308DF81701BDF92C11B4F914205A
:10F9B0001C98104481420AD19DF81701400820F09C
:10F9C00004009DF8171160F345018DF81711BDF97A
:10F9D0003011B4F918201B98101A81420AD19DF8F1
:10F9E0001701400820F008009DF8171160F3450149
:10F9F0008DF81711BDF92E11B4F916201E98104478
:10FA000081420CD19DF81701400820F002009DF8BA
:10FA1000171160F3450100E014E08DF81711BDF9EE
:10FA20003211B4F91A201D98101A81420AD19DF89A
:10FA30001701400820F001009DF8171160F34501FF
:10FA40008DF817114BA80EF098FD814607F02000A5
:10FA500060B1E86A30F8160000F4007030B1BDF80B
:10FA60002E01A0EB090000B2ADF82E014BAA3DA972
:10FA70004F9814F059FA35980890BDF9E8000790AE
:10FA8000BDF9E6000690686A50F82A0005904DA876
:10FA90000EF0FBFD03909DF8F11002460698CDE9AB
:10FAA0000121009004A8DDE90732059927F050F8FC
:10FAB0004BA80EF0EAFDBDF91010401A039000EBC0
:10FAC000D070BDF82C1101EB600000B2ADF82C0134
:10FAD0004BA80EF052FDBDF91210401A039000EB36
:10FAE000D070BDF82E1101EB600000B2ADF82E0110
:10FAF000BDF82C01BDF81010084400B2ADF830017B
:10FB0000BDF82E01BDF81210084400B2ADF8320164
:10FB100007F02000C0B1E86A30F8160000F4007069
:10FB200090B1484609EBD071BDF82E21A2EB6101DE
:10FB300009B2ADF82E1109EBD071BDF83221A2EB5C
:10FB4000610109B2ADF83211002000904BAA35A92D
:10FB5000059B4F9812F044FE09AA1B21204616F07F
:10FB60004BFC00BF701C86B20AF101001FFA80FA3C
:10FB7000288EB0423FF760AE608C20F004006084B5
:10FB800000BF01E6788104080A0000002DE9F14F6A
:10FB9000A2B0229815F084FF04462546229815F05D
:10FBA00026FF2190002120461EF018FD81462646A2
:10FBB000002741F61202394630461FF017F90A9025
:10FBC0000A98484400B2209000BF41F6130239461B
:10FBD00030461FF00BF90A900A98484400B21F9073
:10FBE000002120461FF0C1F8484400B21E9016A81C
:10FBF00013F0AAF916AA4FF4003120461FF08DFC2D
:10FC0000A86A10B1D5F828800AE080201BF0E4F93A
:10FC1000064680223146204615F01CFCB04600BF47
:10FC20004FF0000A95F83C0000F00F00012800D1C9
:10FC30008246002641F26A42314620461FF0D6F83D
:10FC40000A900A98C0B2012800D18246E86A0028CA
:10FC50007ED0E86A18F0C8FD0A900A98022814D1EC
:10FC60009DF8750041F6FF72BDF96A10CDE90012EA
:10FC70000290BDF96C30169A07A8E96A26F068FF71
:10FC8000BDF91C60BDF91E7011E007A9E86A18F003
:10FC900053FA8346BBF1010F05D10798C0F38A26BA
:10FCA0000798470D02E04FF0FF36374600BFBAF124
:10FCB000000F0DD0A18A2098084400B2ADF82000B2
:10FCC000BDF820003044401E00B2ADF824000DE025
:10FCD000218B1F98081A801B00B2ADF82000BDF8D8
:10FCE00020003044401E00B2ADF824000A980228DB
:10FCF00015D1E18A1E98084400B2ADF82200BDF883
:10FD000022003844401E00B2ADF8260000200090CA
:10FD100008AA16A9EB6A219812F062FD40E020467D
:10FD20001DF0F0FCA0EB070B0BEBDB704110E08A41
:10FD3000084400B2ADF82200BDF822003844401E4D
:10FD400000B2ADF8260002A812F02DFD02AA00E0D4
:10FD500027E04FF4003120461FF080FB304606EBD1
:10FD6000D071491009B2ADF80C10384607EBD071CC
:10FD700049100AB2ADF80E204FF4003B43F60F02D3
:10FD8000594620461FF032F80190019880B2ADF834
:10FD9000080008AA02A9EB6A219812F0B5FC00BF7E
:10FDA00000BF0EA813F0D0F80EAA002120461FF0C5
:10FDB000B4FB9DF8550041F6FF72BDF94A10CDE93C
:10FDC00000120290BDF94C3041460DA80E9A26F063
:10FDD000BFFEE18A1E98084400B2ADF82E00BDF8BF
:10FDE0002E00BDF83610084400B2ADF83200E86AC3
:10FDF000B0B920461FF021FABDF93410461A06EBBF
:10FE0000D670A18A01EB600000B2ADF82C00BDF8FD
:10FE10002C00BDF83410084400B2ADF8300022E0E8
:10FE2000BAF1000F11D0218B1F98081ABDF83410B9
:10FE3000401A00B2ADF82C00BDF82C00BDF834100B
:10FE4000084400B2ADF830000DE0A18A20980844C3
:10FE500000B2ADF82C00BDF82C00BDF834100844F9
:10FE600000B2ADF83000002043460BAA0EA9009066
:10FE7000219812F0B5FCA86A10B940461BF028F989
:10FE800023B0BDE8F08F2DE9F14F90B0109815F038
:10FE900007FE05462C46109815F0A9FD06460EA94A
:10FEA00028461DF065FB002794F84800C0F30010B9
:10FEB00008B147F0010794F84800C0F3401008B1BA
:10FEC00047F00207002128461FF090F942F2D17155
:10FED000884205D1688CC0F3802008B947F0040738
:10FEE00006A813F031F8B4F84400ADF82E0046200F
:10FEF000005BADF830008DF8357006AA0021284669
:10FF00001FF00BFB0DA8411E626A03780BB9012399
:10FF1000037000BF284619F099FC0790284619F095
:10FF20008FFC08904FF6FF71079888421ED0089802
:10FF300088421BD04FF4802B44F257425946284642
:10FF40001EF054FF029002980390BDF80C00ADF82B
:10FF5000260000BF2022594628461EF047FF029087
:10FF600002980390BDF80C00ADF8280094F8480002
:10FF700000F00700022805D094F8480000F00700C0
:10FF800003281FD19DF83400022803D09DF83400C7
:10FF9000032817D141F6FF71BDF92A008DE88300CF
:10FFA000BDF92C30069A03A8616A26F0D1FD0EA88F
:10FFB0000EF079FBBDF90C10884202DA01208DF8B1
:10FFC000340000BF04F1300894F8480000F0070046
:10FFD000032805D00EA80EF0DEFAB0F5806F01DA26
:10FFE0004FF000080EA904A8B268F6F71DF9814683
:10FFF000B9F1000F02D111B0BDE8F08F94F84800BC
:020000040801F1
:1000000000F0070070B928461DF06CFD8346CBF167
:10001000000002B200210EA80EF05DFB688BADF867
:100020003E0000BF94F8480000F00700022805D009
:1000300094F8480000F0070003280ED1D6F808B065
:1000400004A8B060CDF800800EAA06A93046636A05
:1000500012F0C6FBC6F808B007E0CDF800800EAA83
:1000600006A93046636A12F0BBFBD6F808A004A8C4
:10007000B06094F8480000F0070003284FD141F623
:10008000FF71BDF92A008DE88300BDF92C30069A76
:1000900003A8616A26F05CFD0EA80EF004FBBDF912
:1000A0000C1088421BDA20221146069816F0FDFA41
:1000B00000EB4000B4F84410BDF80C201144084493
:1000C00000B2ADF82E004620005BADF83000CDF850
:1000D00000800EAA06A93046636A12F081FB0EA8C2
:1000E0000EF059FABDF90E10884217DAB4F8440040
:1000F000ADF82E00069816F0F7FA4621095BBDF818
:100100000E201144084400B2ADF83000CDF8008054
:100110000EAA06A93046636A12F062FB00BFC6F859
:1001200008A000BF67E72DE9F14F9AB01A9815F0C3
:1001300056FC80461A9815F0B3FC0446B8F1150F2A
:1001400016D11A9815F053FC054618A9204606F05A
:1001500039FF0AA813F004FF0AAA4FF480212046B1
:100160001FF0B6FA18AA0AA9284613F0DDFEC5E06A
:10017000B8F1180FFBD11A9815F039FC054612A8F2
:1001800012F0E2FE12AA4FF4802120461FF0C5F9BA
:1001900010A9204606F016FF10AA0EA8A968F6F7C7
:1001A00043F80D900D9800287DD0204606F07FFB87
:1001B000814620461FF041F88346484619F03AFB35
:1001C00002210390BDF95A00CDE901B10090BDF9BB
:1001D0005C300CA8129A039926F0BAFC20461DF058
:1001E00091FA0646304606EBD0714A10B4F9161063
:1001F0000A44B9F91610891A0B9148461DF082FA83
:100200000B99890391FBF0F00B90002120461EF022
:10021000D2FE0A901299B1F908200A99B1F9081092
:10022000501A00EBD071491009B20991BDF8321093
:100230000998081A00B2ADF83200304606EBD071CA
:100240004A10B4F916105718BDF932000B994843FB
:1002500007EBA03709983F1A002120461EF0CBF982
:1002600082464FF0000B41F61202594620461EF01E
:10027000BDFD0390039800B2089000BF41F6130241
:10028000594620461EF0B2FD0390039800B2079035
:10029000A18A08980844504400B2ADF8140038B25E
:1002A000ADF8160000E028E0218B0798081AA0EBB3
:1002B0000A0000B2ADF81800BDF81600BDF8321003
:1002C000084400B2ADF81A009DF8650040F0020045
:1002D0008DF86500A86804900EA8A860484619F03B
:1002E000A9FA834600205B4605AA12A90090284679
:1002F00012F076FA0498A86000BF00BF1BB0BDE8FA
:10030000F08F2DE9F14FA8B0289815F0C9FB0446ED
:100310002546289815F06BFB2790002120461EF0FB
:10032000C5FB2690002120461EF069FC2590002187
:1003300020461EF034FD2490002120461EF0D9FAFC
:10034000239000BFA08AADF88400E08AADF8860053
:10035000208BADF88800608BADF88A0000BFBDF837
:1003600084102698084400B2ADF88400BDF88810C7
:100370002598081A00B2ADF88800BDF886102498B8
:10038000084400B2ADF88600BDF88A102398081A18
:1003900000B2ADF88A0013A813F0E2FD13AA4FF4DF
:1003A000003120461FF094F921AA13A9279813F0D1
:1003B000BBFD002620461DF0A5F9074600BF208B97
:1003C000A18A401A401CC01B0FFA80F8686A401CC2
:1003D00040B1696A01FB08F0C11700EB1161091215
:1003E0000EB20CE020461DF0F1FF00F0010BBBF156
:1003F000000F01D0404600E00020064600BF4FF04D
:10040000000B41F26A42594620461EF0EFFC009074
:100410000098C0B2012802D1A8EB060006B2A08A5B
:10042000304400B2ADF84400BDF84400384400B296
:10043000ADF84800E08AADF84600608BADF84A00A0
:100440004FF4403120461EF031FB81464FF44031DD
:1004500020461EF0D4FB82464FF4403120461EF069
:100460009EFC10904FF4403120461EF042FA0F904F
:10047000BDF84400A0EB090000B2ADF84400BDF89F
:100480004800504400B2ADF84800BDF8461010983E
:10049000081A00B2ADF84600BDF84A100F9808449B
:1004A00000B2ADF84A0001A813F05AFD01AA4FF4BA
:1004B000403120461FF00CF911AA01A9279813F02A
:1004C00033FD29B0BDE8F08F2DE9F14FE0B0609821
:1004D00015F0E6FA04462546609815F088FA81463C
:1004E00004F114015EA8D9F80820F5F79DFE10B9B3
:1004F00061B0BDE8F08FD9F808005D905EA8C9F83A
:1005000008004FF0000841F23202414620461EF03A
:100510006DFC0C900C9800B25690002120461EF005
:100520004BFC5590002120461EF0F0F9549000211C
:1005300020461EF0C8FA5390002120461EF06CFBA6
:1005400052904FF4A02120461EF0BDFA51904FF476
:10055000A02120461EF060FB50904FF4A0212046C1
:100560001EF02AFC4F904FF4A02120461EF0CEF939
:100570004E90208C4D9000202084608C20F0040050
:10058000001D60843FA813F0EBFC3FAA4FF4A021AC
:1005900020461FF09DF829A812F0D6FC29AA4FF496
:1005A000A02120461EF0B9FF4D982084608C20F0D9
:1005B00004006084002720461DF0A8FA0146E28A64
:1005C00055981044401E411A5698084400B2ADF8A0
:1005D0006E0120461DF090FA2090002120461DF06B
:1005E00096FF012800D100E000201F9049460DA889
:1005F0001CF028FD4FF4A0201A90FE480E90002019
:100600000F9031A8119021A812904FF0000B33E207
:10061000E86A30F91B000C90BDF86E01401C00B276
:10062000ADF86A01BDF86A110C980844401E00B28A
:10063000ADF86E01BDF96A01BDF97E11884200DD99
:100640001EE21F9858B1218B5298081A401E20991B
:10065000411A5698081A00B2ADF868010AE0A18A5A
:1006600053980844401E2099411A5698084400B2F5
:10067000ADF86C010026F7E100200B90A86A50F855
:10068000270020B1A86A50F8270000780B901F9827
:1006900080B1BDF86801401E00B2ADF86C01286B56
:1006A00030F81600BDF86C11081A401C00B2ADF805
:1006B00068010FE0BDF86C01401C00B2ADF86801A4
:1006C000286B30F81600BDF868110844401E00B2CF
:1006D000ADF86C014FF0000800BF34E007EB0801F3
:1006E000A86A50F8210048B307EB0802A96A51F83C
:1006F000220008B101780B910B9901F00101D9B1E9
:100700001F9961B106EB0801491C2A6B32F81110E0
:10071000BDF86821511A09B2ADF868110DE006EB79
:100720000801491C2A6B32F81110BDF86C211144E4
:1007300009B2ADF86C1100E00BE000E009E008F14F
:1007400001001FFA80F808EB0601A88C401E8142C8
:10075000C4DB00BFBDF96E01BDF97A11884207DA2A
:1007600008F10100384487B206EB080086B279E14F
:1007700000BFBDF86801ADF82400BDF86A01ADF80E
:100780002600BDF86C01ADF82800BDF86E01ADF88B
:100790002A0000BF9DF81F01400800F0040090B13E
:1007A000BDF92410B4F914205398104481420ADD95
:1007B000BDF91C0100EBD071BDF82420A2EB610152
:1007C00009B2ADF824109DF81F01400800F00200A6
:1007D00090B1BDF92610B4F9162055981044814205
:1007E0000ADDBDF91C0100EBD071BDF82620A2EB9B
:1007F000610109B2ADF826109DF81F01400800F014
:100800000800B8B1BDF92810B4F918205298101A90
:10081000401E81420EDABDF91C0100EBD07182B29C
:1008200002F0010202EB6101BDF82820114409B277
:10083000ADF828109DF81F01C0F34000B8B1BDF914
:100840002A10B4F91A205498101A401E81420EDA68
:10085000BDF91C0100EBD07182B202F0010202EB83
:100860006101BDF82A20114409B2ADF82A104FF0F9
:10087000000AE88E584523D1A88EB04220D194F8C2
:10088000200000F0400030B994F8200000F0200073
:1008900008B14AF0200A94F8200000F0020008B1E4
:1008A0004AF0020A94F8200000F0040008B14AF06F
:1008B000040A94F8200000F0080008B14AF0080A81
:1008C000BAF1000F0AD138223FA931A81AF0A1FCD1
:1008D000202229A921A81AF09CFC1EE0A4F820A03F
:1008E000608C20F00400001D608431A813F038FBF8
:1008F00021A812F029FB31AA4FF4A02120461EF0B6
:10090000E7FE21AA4FF4A02120461EF006FE4D98D6
:100910002084608C20F00400608409A81090A88CCA
:100920000BFB00601B900DAA1A21204615F064FDF8
:1009300009AA31A9484613F0F7FAA86A50F8270027
:1009400000287DD0BDF868115198084400B2ADF878
:100950006001BDF86C115098081A00B2ADF864013E
:10096000BDF86A114F98084400B2ADF86201BDF8B5
:100970006E114E98081A00B2ADF866010B98C0F3DC
:1009800040000890089810B10220579001E0002024
:10099000579000BFBDF86401BDF86011401A401CBB
:1009A00000B20490BDF9962004995798CDE9002132
:1009B0000290A86A50F82700411CBDF998305CA845
:1009C000299A26F0C5F8089818BB0C9901EBD1724A
:1009D000BDF86A3103EB6202BDF9720100EBD0731E
:1009E000A2EB630212B2ADF862210C9901EBD17255
:1009F00002E00000C8820408BDF86A3103EB62021D
:100A0000BDF9720100EBD07302EB630212B2ADF8D4
:100A100066215AAA5EA906A8F5F706FC0590059876
:100A200090B106A8C9F8080000200090A86A50F804
:100A30002700431C58AA21A9484611F0D1FE00E026
:100A400003E05EA8C9F8080000BF0DAA1B212046DC
:100A500015F0D2FC08F10100384487B206EB08001B
:100A600086B200BF701C86B2A88CB0423FF704AEBD
:100A70000BF101001FFA80FBE88C58453FF7C8AD29
:100A800000BF5D98C9F8080000BF31E52DE9F04FBF
:100A9000A3B0074689461646229730460DF0E0FD82
:100AA000054600EBD5704FEA60083088404400B23C
:100AB000ADF884007088404400B2ADF886001EA8EE
:100AC00012F08EFA1EAA4FF4A02138461EF08CFDBB
:100AD00018A811F068FE18AA4FF4A02138461EF09D
:100AE000BDFC002138461DF04EFE1790494605A872
:100AF0001CF0A8FA7048069021A80E902298303079
:100B0000F6F75AFE0446D1E02568169420790128AC
:100B10005CD1B5F92000E98B08440090B5F920308C
:100B2000D5E90512E0681AF07AF98246A88B00EB45
:100B30000801608A08440FFA80FB0FFA8AF025F05A
:100B400019FF10FB0BF047F6FF7190FBF1F0BDF8B9
:100B50008610084400B2ADF812000FFA8AF025F0B2
:100B600001FF10FB0BF047F6FF7190FBF1F0BDF8B1
:100B70008410084400B2ADF81000A08AADF87800E7
:100B8000208A00B2ADF87A006079FD2801DD17985F
:100B900003E060791799484300128DF88000012026
:100BA00013901EA80B9004A80F9005AA1A2138468E
:100BB00015F022FC04AB21AA1EA9484612F0F9F94F
:100BC00005AA1B21384615F017FC68E0207900289B
:100BD00065D1206900B963E0B5F92000E98B0844CC
:100BE0000090B5F92030D5E90512E0681AF017F940
:100BF000824604A9206917F09FFABDF88410A08AE4
:100C0000081A00B2ADF80800BDF88610E08A081A8C
:100C100000B2ADF80A00BDF808000499C1F38A21BA
:100C20000844401E00B2ADF80C00BDF80A0004995B
:100C300000EB5150401E00B2ADF80E006079FD2867
:100C400001DD179803E060791799484300128DF889
:100C50006B00A08AADF86400E18A18A8C1800AEB95
:100C60008A004FEA400ABAF5616F01DDAAF5616AB0
:100C70001FFA8AF0ADF8600018A80C9005AA1A2196
:100C8000384615F0B9FB02AA18A94846236911F0A5
:100C90003BFD05AA1B21384615F0AEFB00BF00BF87
:100CA000214622983030F6F781FD0446002C7FF46F
:100CB0002BAF23B0BDE8F08F944804082DE9F74F1F
:100CC0008AB00C46904694F82A00022802DC0DB047
:100CD000BDE8F08FE08C00B9F9E794F82A90B9F1FB
:100CE000FD0F01DD4FF0FF09414608A80DF0C2FBE2
:100CF000208D401E05B2BDF82000401B00B2ADF8AB
:100D00002000BDF82200401B00B2ADF82200BDF863
:100D10002400284400B2ADF82400BDF82600284481
:100D200000B2ADF8260008A906A80DF0A3FBBDF897
:100D30001800E18C401A00B2ADF81800BDF81C0094
:100D4000E18C084400B2ADF81C00BDF81A00E18C3B
:100D5000401A00B2ADF81A00BDF81E00E18C08443C
:100D600000B2ADF81E0008A80DF06CFC824608A881
:100D70000DF0E0FB0746B4F90060BA4501DA5046D1
:100D800000E038468346B6EB6B0F01DD4FEA6B0699
:100D9000E08C304400B20590A07894F82A10CDE998
:100DA0000210A08CADF8040030B2009008AA06A989
:100DB000059B0A98FBF754FC00BF88E7F8B5054689
:100DC000284614F06DFE0646284614F066FE0446DA
:100DD000606BB0F5A02F54D1A06B072806D200207D
:100DE0002169C870216981F8220014E0208F81B246
:100DF000202230460EF078FC68B100202169C870CE
:100E0000216981F82200122020F0ACFB0090BDF88F
:100E1000001060698181208F81B24FF4004230461A
:100E20000EF062FC98B166202169C870304625F04A
:100E300063FA0090BDF800102069818030460EF002
:100E40004DFCA16B884202D1B2202169C870208F6D
:100E500081B24FF4804230460EF046FC88B1FF204C
:100E6000216981F82200304625F046FA0090BDF84D
:100E700000102069C1832069008C401C00B22169E8
:100E80000884F8BD2DE9F04F8BB08146484614F038
:100E900007FE05462C46484614F0A9FD8346606AC5
:100EA00018F0C8FC82469AF8000000283ED1A06ADB
:100EB00000283BD0A06A0078C0B303A812F044F821
:100EC00003AA4FF4002128461EF027FB94F85C008B
:100ED000C0F3C00028B19DF8290040F002008DF851
:100EE0002900002128461DF0FBFD07460021284669
:100EF0001DF06FFF8046002128461DF089FB064645
:100F000005F1140101A80DF0E2FA08EB060002B2A7
:100F1000B81901B201A80DF0DEFB0020009001AA73
:100F200003A95846A36A11F05BFC00BF0BB0BDE8F3
:100F3000F08F7CB50446A06985686089002856D189
:100F4000A089002853D1E088218988424FDAE188BE
:100F500008B225F00FFDB4F90410B4F90E20891A77
:100F600048432168498801EBE03000B2ADF8020047
:100F7000E1885A3108B225F0FDFCA18810FB01F090
:100F80002168098801EBE03000B2ADF80400218946
:100F900008B225F0EFFCA18810FB01F02168498818
:100FA00001EBE03000B2ADF8060021895A3108B2F9
:100FB00025F0E0FCB4F90410B4F90E20891A484376
:100FC0002168098801EBE03000B2ADF800002A4644
:100FD00069466846F5F728F906463EB1A169C1F8A9
:100FE00008D06A462169A06912F09EFFC2E06089BC
:100FF00010B1A08900287BD16089D0BB206800880F
:10100000ADF8000020684088A188084400B2ADF81F
:101010000600E18808B225F0ADFCB4F90410B4F97B
:101020000E20891A48432168498801EBE03000B25C
:10103000ADF80200E1885A3108B225F09BFCA18886
:1010400010FB01F02168098801EBE03000B2ADF837
:1010500004002A4669466846F5F7E6F806463EB1BA
:10106000A169C1F808D06A462169A06912F05CFF45
:1010700000BFA08900287DD120680088A18808448D
:1010800000B2ADF8040020684088ADF80200218964
:1010900008B225F06FFCA18810FB01F02168498897
:1010A00001EBE03000B2ADF8060021895A3108B2F8
:1010B00025F060FCB4F90410B4F90E20891A4843F5
:1010C0002168098801EBE03000B2ADF800002A4643
:1010D00069466846F5F7A8F806463EB1A169C1F829
:1010E00008D06A462169A06912F01EFF42E0FFE7BE
:1010F0006089A189884205D1608918B12089E18879
:10110000884211DB6089022802D1A08901280BD016
:101110006089032802D1A089022805D060890328AC
:1011200028D1A089012825D120680088ADF80000C9
:1011300020684088ADF8020020680088A188084433
:1011400000B2ADF8040020684088A188084400B2CD
:10115000ADF806002A4669466846F5F765F8064682
:101160003EB1A169C1F808D06A462169A06912F0B0
:10117000DBFE00BFA06985607CBD7CB50446A0692C
:1011800085686089012856D1A089012853D1E0885B
:10119000218988424FDAE18808B225F0EBFBA1886B
:1011A00010FB01F02168498801EBE03000B2ADF896
:1011B0000600E1885A3108B225F0DCFBB4F90410CE
:1011C000B4F90E20891A48432168098801EBE03000
:1011D00000B2ADF80400218908B225F0CBFBB4F9C8
:1011E0000410B4F90E20891A48432168498801EB9C
:1011F000E03000B2ADF8020021895A3108B225F082
:10120000B9FBA18810FB01F02168098801EBE030EF
:1012100000B2ADF800002A4669466846F5F704F8C2
:1012200006463EB1A169C1F808D06A462169A069A5
:1012300012F07AFEC7E06089012802D0A089012857
:101240007ED1608901283AD120680088A188401A9F
:1012500000B2ADF8000020684088ADF80200E188D7
:1012600008B225F087FBA18810FB01F021684988AE
:1012700001EBE03000B2ADF80600E1885A3108B267
:1012800025F078FBB4F90410B4F90E20891A48430C
:101290002168098801EBE03000B2ADF804002A466D
:1012A00069466846F4F7C0FF06463EB1A169C1F839
:1012B00008D06A462169A06912F036FE00BFA089F5
:1012C0000128B7D120680088401E00B2ADF80400A4
:1012D00020684088A188084400B2ADF80600218942
:1012E00008B225F047FBB4F90410B4F90E20891AAE
:1012F00048432168498801EBE03000B2ADF80200B4
:1013000021895A3108B225F035FBA18810FB01F084
:101310002168098801EBE03000B2ADF800002A46F0
:1013200069466846F4F780FF06463EB1A169C1F8F8
:1013300008D06A462169A06912F0F6FD43E0FFE794
:101340006089A189884206D16089012803D020895B
:10135000E18888420FDB608910B9A08902280AD091
:10136000608910B9A089032805D0608903282AD193
:10137000A089022827D120680088A188401A00B2DD
:10138000ADF8000020684088ADF8020020680088B1
:10139000401E00B2ADF8040020684088A1880844CF
:1013A00000B2ADF806002A4669466846F4F73CFFED
:1013B00006463EB1A169C1F808D06A462169A06914
:1013C00012F0B2FD00BFA06985607CBD7CB504460B
:1013D000A06985686089022856D1A089022853D166
:1013E000E088218988424FDAE1885A3108B225F035
:1013F000C1FAA18810FB01F02168098801EBE030F7
:1014000000B2ADF80000E18808B225F0B3FAB4F9F3
:101410000410B4F90E20891A48432168498801EB69
:10142000E03000B2ADF80600218908B225F0A2FA3A
:10143000A18810FB01F02168498801EBE03000B27F
:10144000ADF8020021895A3108B225F093FAB4F9B7
:101450000410B4F90E20891A48432168098801EB69
:10146000E03000B2ADF804002A4669466846F4F759
:10147000DBFE06463EB1A169C1F808D06A46216983
:10148000A06912F051FDCCE06089022802D0A08949
:1014900002287DD1608902283CD120680088401E46
:1014A00000B2ADF8040020684088A188401A00B25C
:1014B000ADF80200E1885A3108B225F05BFAA18844
:1014C00010FB01F02168098801EBE03000B2ADF8B3
:1014D0000000E18808B225F04DFAB4F90410B4F91F
:1014E0000E20891A48432168498801EBE03000B298
:1014F000ADF806002A4669466846F4F795FE0646AA
:101500003EB1A169C1F808D06A462169A06912F00C
:101510000BFD00BFA0890228B5D120680088A188F2
:10152000401A00B2ADF8000020684088401E00B2AA
:10153000ADF8060021895A3108B225F01BFAB4F93A
:101540000410B4F90E20891A48432168098801EB78
:10155000E03000B2ADF80400218908B225F00AFAA3
:10156000A18810FB01F02168498801EBE03000B24E
:10157000ADF802002A4669466846F4F755FE06466D
:101580004EB1A169C1F808D06A462169A06900E09E
:1015900002E012F0C9FC44E06089A189884206D1CA
:1015A0006089022803D02089E18888420FDB6089A6
:1015B00010B9A08903280AD06089012802D1A08926
:1015C000032804D0608901282BD1A08948BB20685A
:1015D0000088A188401A00B2ADF800002068408859
:1015E000A188401A00B2ADF8020020680088401EB1
:1015F00000B2ADF8040020684088401E00B2ADF88B
:1016000006002A4669466846F4F70EFE06463EB1D5
:10161000A169C1F808D06A462169A06912F084FC6A
:1016200000BFA06985607CBD7CB50446A069856863
:101630006089032856D1A089032853D1E0882189E5
:1016400088424FDAE1885A3108B225F093F9B4F9AB
:101650000410B4F90E20891A48432168098801EB67
:10166000E03000B2ADF80000E18808B225F082F960
:10167000A18810FB01F02168498801EBE03000B23D
:10168000ADF8020021895A3108B225F073F9A1881A
:1016900010FB01F02168098801EBE03000B2ADF8E1
:1016A0000400218908B225F065F9B4F90410B4F9F1
:1016B0000E20891A48432168498801EBE03000B2C6
:1016C000ADF806002A4669466846F4F7ADFD0646C1
:1016D0003EB1A169C1F808D06A462169A06912F03B
:1016E00023FCC7E06089032802D0A08903287ED1AB
:1016F000608903283CD120680088A188084400B292
:10170000ADF8040020684088401E00B2ADF8060025
:10171000E1885A3108B225F02DF9B4F90410B4F972
:101720000E20891A48432168098801EBE03000B295
:10173000ADF80000E18808B225F01CF9A18810FB83
:1017400001F02168498801EBE03000B2ADF80200F9
:101750002A4669466846F4F767FD06463EB1A16928
:10176000C1F808D06A462169A06912F0DDFB00BF0C
:10177000A08903287ED120680088ADF80000206889
:101780004088A188401A00B2ADF8020021895A3180
:1017900008B225F0EFF8A18810FB01F02168098854
:1017A00001EBE03000B2ADF80400218908B225F069
:1017B000E1F8B4F90410B4F90E20891A48432168FD
:1017C000498801EBE03000B2ADF806002A466946D0
:1017D0006846F4F729FD06463EB1A169C1F808D074
:1017E0006A462169A06912F09FFB43E0FFE7608928
:1017F000A189884206D16089032803D02089E18825
:1018000088420FDB6089022801D1A08950B160892C
:10181000012801D1A08928B1608902282AD1A08994
:10182000012827D120680088ADF800002068408892
:10183000A188401A00B2ADF8020020680088A18893
:10184000084400B2ADF8040020684088401E00B291
:10185000ADF806002A4669466846F4F7E5FC0646F8
:101860003EB1A169C1F808D06A462169A06912F0A9
:101870005BFB00BFA06985607CBD000070B5A4B0B3
:1018800006460D4620AA22A930461CF049F922A896
:101890000CF088FE28B920A80CF084FE08B924B00A
:1018A00070BD12A9304628F0C3FB0446012C00D0BD
:1018B000F5E7294668461BF0C5FB1B48019002204E
:1018C000029012A804904FF480300D9022A80CF0E2
:1018D00069FE80B122A803906A461A21304614F0AE
:1018E0008BFD22AA12A9284612F01EFB6A461B2174
:1018F000304614F081FD20A80CF054FE90B120A8D1
:1019000003906A461A21304614F076FD20A8039011
:1019100020AA12A9284612F007FB6A461B2130466E
:1019200014F06AFD00BFBAE7844104082DE9F04FC6
:10193000B1B005460F4605F114012FA8BA68F4F7B7
:1019400073FC10B931B0BDE8F08FB8682E902FA8A5
:10195000B8602C46002128461DF04DF82B90002140
:1019600028461DF0B4F92A9028461BF056FEB4F81C
:101970008410484300120FFA80FA28461BF02EFE0E
:10198000B4F88610484300120FFA80FB04F12400DB
:10199000F5F7F3FE2890002128461CF0DEFF823484
:1019A00061884843001227902188491E279801FB2F
:1019B00010A0218890FBF1F000B22690289926987B
:1019C000B0FBF1F000B225904FF4A02128461CF0A6
:1019D000C4FF6188823C48430012249028461BF0D3
:1019E00087FF01462B98401A00B2239028461CF02E
:1019F00079F801462A98401A00B2229014A812F0F1
:101A0000AFFA14AA4FF4A02128461DF061FE14A8D5
:101A1000C07B20F0070114A8C173FF208DF853008C
:101A2000688BBDF85010084400B2ADF8B6003946D6
:101A300002A81BF007FB4FF4A0200F905D48039015
:101A4000042004904FF00008AAE02798504400FBBF
:101A500008F0B4F8821090FBF1F0A98A01442398B1
:101A6000084400B20190CDF8408004F12400F5F75D
:101A7000A3FE06468CE0307B00F0010000B181E05F
:101A800094F88800C0F3C00008B9708900E0002015
:101A900000B200900198ADF8B000BDF8B0102598E4
:101AA00001442498081A401E00B2ADF8B4002599EC
:101AB0000198084400B20190BDF9B400BDF9BC1012
:101AC000884200DA5EE0BDF9B000BDF9C01088427E
:101AD00000DD60E03089ADF8540000984044B4F86F
:101AE000821090FBF1F201FB12000FFA80F970688E
:101AF00030F91910307BC0F3001204F16C0030F99A
:101B00001200081A00FB0BF02990307BC0F3001183
:101B100004F1700030F91110307BC0F3001204F1B1
:101B20006C0030F91200091A299890FBF1F0299005
:101B30002998ABEB0001E88A01442298084400B2DE
:101B4000ADF8B200706830F9190047F6FF718842AD
:101B500017D02CA8059014A806901396706830F939
:101B60001900129002AA1A21284614F045FC2CAA4A
:101B700014A9384612F0D8F902AA1B21284614F0FD
:101B80003BFC00BF314604F12400F5F70FFE06468A
:101B9000002E7FF470AF00BF08F101001FFA80F83B
:101BA000B4F8820040453FF750AF2E98B86000BFB0
:101BB000C8E600005C4304082DE9F34FB9B0834642
:101BC0003A980BF11401826837A8F4F72DFB10B98D
:101BD0003BB0BDE8F08F3A988068369037A93A98C4
:101BE00081605D46B5F88200022800DAF0E7002146
:101BF00058461CF0E6FC3390002158461CF0FBFED2
