:020000040800F2
:10000000F00204248903000801420008FD410008B1
:100010009921009035070008C54E00080000000037
:100020000000000000000000000000001D00009023
:10003000390700080000000079000090B94D000861
:10004000A3030008A3030008A3030008A3030008F8
:10005000A3030008A3030008A3030008A3030008E8
:10006000A3030008A3030008A3030008A3030008D8
:10007000A3030008A3030008A3030008A3030008C8
:10008000A3030008A3030008A3030008A3030008B8
:10009000A3030008A3030008A3030008A3030008A8
:1000A000A3030008A3030008A3030008A303000898
:1000B000A3030008A3030008A3030008A303000888
:1000C000A3030008A3030008A3030008A303000878
:1000D000A3030008754E0008A3030008A30300084B
:1000E000A3030008A303000800000000A303000806
:1000F000A3030008A3030008A3030008A303000848
:10010000A3030008A3030008A3030008A303000837
:10011000A3030008A3030008F92A0090A303000822
:10012000A3030008A3030008A3030008A303000817
:10013000A3030008A3030008A3030008A303000807
:1001400000000000000000000000000000000000AF
:10015000A3030008A3030008A3030008A3030008E7
:10016000A3030008A3030008A3030008A3030008D7
:10017000A3030008A3030008A3030008A3030008C7
:10018000A3030008A3030008A3030008A3030008B7
:10019000A3030008A3030008A3030008A3030008A7
:1001A000A3030008A3030008A3030008A303000897
:1001B000A3030008A3030008A3030008A303000887
:1001C000A3030008A3030008A3030008A303000877
:1001D000A3030008A3030008A3030008A303000867
:1001E000A3030008A3030008A3030008A303000857
:1001F000A3030008A3030008A3030008A303000847
:10020000A3030008A3030008A3030008A303000836
:10021000A3030008A3030008A3030008A303000826
:10022000A3030008A3030008A303000800000000C4
:10023000A3030008A303000800000000A3030008B4
:10024000A3030008A3030008A3030008A3030008F6
:10025000A3030008A3030008A3030008A3030008E6
:10026000A3030008A3030008A3030008A3030008D6
:10027000A3030008A3030008A30300080000000074
:10028000A3030008A3030008A30300080000000064
:1002900000000000A303000800F002F800F064F87A
:1002A0000AA090E8000C82448344AAF10107DA45D1
:1002B00001D100F059F8AFF2090EBAE80F0013F0BF
:1002C000010F18BFFB1A43F0010318470C6600002A
:1002D0002C6600000A444FF0000C10F8013B13F0AC
:1002E000070408BF10F8014B1D1108BF10F8015B8F
:1002F000641E05D010F8016B641E01F8016BF9D182
:1003000013F0080F1EBF10F8014BAD1C0C1B09D1D8
:100310006D1E58BF01F801CBFAD505E014F8016B4A
:1003200001F8016B6D1EF9D59142D6D370470000DC
:100330000023002400250026103A28BF78C1FBD8EE
:10034000520728BF30C148BF0B6070471FB506F089
:10035000B5FA00F0B5F804000020002106F098FA84
:10036000E0601FBD10B510BD00F0B2F81146FFF7F8
:10037000EDFF04F021FE00F0D0F803B4FFF7F2FF28
:1003800003BC04F0BDFD0000094880470948004750
:10039000FEE7FEE7FEE7FEE7FEE7FEE7FEE7FEE735
:1003A000FEE7FEE704480549054A064B7047000092
:1003B000CD4D000899020008F0F80324F00204244F
:1003C000F0FA0324F0FA0324704753EA020C00F019
:1003D00069802DE9F04B4FF00006002B1FBFB3FAE8
:1003E00083F503FA05F424FA05F65E4012BF1643BE
:1003F000B2FA82F502FA05F4C5F120051EBF22FA11
:1004000005FC44EA0C04203556EA044C4FEA144437
:1004100018BF641C4FF000084FF00009904271EBC8
:10042000030C39D3002919BFB1FA81F701FA07F695
:10043000B0FA80F700FA07F6C7F120071EBF20FACE
:1004400007FC46EA0C062037B6FBF4FCA7EB0507D1
:10045000103F07F01F0BCBF120060CFA0BFB2CFA18
:1004600006F644BFB3460026202FA4BF5E464FF0D9
:10047000000B5BEA060C08BF4FF0010B19EB0B09F0
:10048000ABFB027C48EB0608C01B06FB02CC0BFB57
:1004900003CC71EB0C01C1E70B46024641464846CE
:1004A000BDE8F08B13B54FF000004FF00001AFF343
:1004B0000080BDE81C407047704770477047704728
:1004C00000487047B0F803240048704790F80324B0
:1004D0007546FFF7F9FFAE4605006946534620F022
:1004E0000700854618B020B5FFF75CFFBDE8204047
:1004F0004FF000064FF000074FF000084FF0000BE0
:1005000021F00701AC46ACE8C009ACE8C009ACE892
:10051000C009ACE8C0098D46704710B50446AFF37A
:1005200000802046BDE81040FFF727BF42F6752C3B
:10053000C9F2000C604741F67D1CC9F2000C60470F
:1005400042F6A92CC9F2000C604742F2A72CC9F26E
:10055000000C604742F2496CC9F2000C604742F25D
:10056000793CC9F2000C604742F2B33CC9F2000C7E
:10057000604742F6B72CC9F2000C604742F2795C42
:10058000C9F2000C604742F2D55CC9F2000C60472A
:1005900042F20F6CC9F2000C604742F6ED2CC9F232
:1005A000000C604742F2392CC9F2000C604742F25D
:1005B000914CC9F2000C604742F65D2CC9F2000C68
:1005C000604742F2294CC9F2000C604742F6672CA2
:1005D000C9F2000C604742F2055CC9F2000C6047AA
:1005E00042F25D4CC9F2000C604742F2ED3CC9F2A8
:1005F000000C604742F2193CC9F2000C604742F21D
:10060000453CC9F2000C604742F2732CC9F2000C61
:10061000604742F23F5CC9F2000C604742F2CB4CAB
:10062000C9F2000C604742F2DF2CC9F2000C6047AF
:100630004EF2813CC9F2030C604741F6D55CC9F229
:10064000000C604741F6C35CC9F2000C604742F2FF
:10065000590CC9F2000C60474EF66D0CC9F2010C42
:10066000604746F6714CC9F2030C60474DF6694C81
:10067000C9F2010C60474BF2853CC9F2010C60479E
:1006800046F68D7CC9F2030C604745F6CD2CC9F2C5
:10069000030C60474DF69B4CC9F2030C60474DF6C6
:1006A000E34CC9F2030C60474DF6315CC9F2030C10
:1006B00060474DF6D15CC9F2030C60474DF6556CAE
:1006C000C9F2030C604740F26B6CC9F2000C604742
:1006D00040F2E10CC9F2000C60474DF6DD4CC9F266
:1006E000030C604748F2551CC9F2030C60474DF6F5
:1006F000C34CC9F2030C604741F6E17CC9F2000C1F
:1007000060474DF6175CC9F2030C60474EF2C56CAA
:10071000C9F2030C60474EF2192CC9F2030C604772
:1007200047F6F96CC9F2030C604740F2C96CC9F294
:10073000000C604700BFFEE77047000070B504463C
:100740000CB9012070BD94F83500022803D0802038
:1007500060650120F6E7DC492068884249D0DA4923
:1007600018312068884244D0D74930312068884207
:100770003FD0D5494831206888423AD0D2496031CB
:100780002068884235D0D04978312068884230D0FE
:10079000CD499031206888422BD0CB49A8312068C0
:1007A000884226D0C9492068884222D0C7491831DA
:1007B000206888421DD0C54930312068884218D051
:1007C000C24948312068884213D0C049603120684E
:1007D00088420ED0BD4978312068884209D0BB4993
:1007E00090312068884204D0B849A83120688842F6
:1007F00001D1012000E00020F0B3042084F835008E
:10080000B149206888424BD0AF49183120688842EE
:1008100046D0AD4930312068884241D0AA4948319C
:10082000206888423CD0A84960312068884237D08F
:10083000A54978312068884232D0A3499031206898
:1008400088422DD0A049A8312068884228D09F49ED
:100850002068884224D09D491831206888421FD0E2
:100860009A493031206888421AD098494831206826
:10087000884215D0954900E020E060312068884228
:100880000ED0924978312068884209D08F49903142
:100890002068884204D08D49A8312068884206D15A
:1008A0002068006820F001002168086009E12068E4
:1008B000006820F001002168086002E120680068FB
:1008C00020F00E00216808607F492068884249D0E6
:1008D0007D4918312068884244D07B4930312068F6
:1008E00088423FD078494831206888423AD07649DA
:1008F00060312068884235D0734978312068884259
:1009000030D071499031206888422BD06E49A8318F
:100910002068884226D06D492068884222D06B49E1
:100920001831206888421DD06849303120688842DB
:1009300018D0664948312068884213D06349603135
:10094000206888420ED0614978312068884209D0F9
:100950005E4990312068884204D05C49A831206803
:10096000884206D12068006820F0010021680860F4
:1009700005E02068006820F0010021680860524905
:100980002068884270D050491831206888426BD066
:100990004D4930312068884266D04B494831206843
:1009A000884261D048496031206888425CD046491D
:1009B00078312068884257D0434990312068884276
:1009C00052D04149A831206888424DD03F49206823
:1009D000884249D03D4918312068884244D03B497B
:1009E0003031206888423FD03849483120688842F9
:1009F0003AD0364960312068884235D03349783161
:100A00002068884230D031499031206888422BD00C
:100A10002E49A8312068884226D02D492068884276
:100A200022D02B491431206888421DD02849283112
:100A30002068884218D026493C312068884213D06B
:100A400023495031206888420ED021496431206802
:100A5000884209D01E4978312068884204D01C4958
:100A60008C312068884201D1012000E00020D8B1FB
:100A7000206E006820F48070216E0860A56D94F8E7
:100A80005C0000F01F01012088406860D4E9191063
:100A90004860E06E40B1E06E006820F48070E16E66
:100AA0000860D4E91C10486000BF002084F83400BE
:100AB00000BF012084F83500206D10B12046216D63
:100AC000884700203EE6000010000240100402406B
:100AD0000854025810B50446A0B204F02FFA10BD15
:100AE0000348006840F001000149086070470000B9
:100AF00020040058F8B502460023734DDEE00127BC
:100B00009F400E6806EA0704002C71D04E68022E42
:100B100002D04E68122E13D1DF0802F1200656F8DB
:100B200027005E07F70E0F26BE40B0435F07FF0E9B
:100B30000E69BE403043DF0802F1200646F8270068
:100B400010685F000326BE40B0430E7906F003062E
:100B50005F00BE40304310604E68012E08D04E68E2
:100B6000022E05D04E68112E02D04E68122E13D1DF
:100B700090685F000326BE40B0435F00CE68BE4071
:100B800030439060506801269E40B0430E79C6F312
:100B900000169E4030435060D0685F000326BE4080
:100BA000B0435F008E68BE403043D0604E6806F0B0
:100BB0008056B6F1805F1BD100BF444E366846F0C8
:100BC0000206424F3E603E46366806F00206009638
:100BD00000BF00BF3E4E9F0856F827009E07370F04
:100BE0000F26BE40B0433B4EB24202D100262EE05B
:100BF00063E0394EB24201D1012628E0374EB242BD
:100C000001D1022623E0364EB24201D103261EE076
:100C1000344EB24201D1042619E0334EB24201D122
:100C2000052614E0314EB24201D106260FE0304EC7
:100C3000B24201D107260AE02E4EB24201D1082667
:100C400005E02D4EB24201D1092600E00A269F0799
:100C50003F0FBE4030431E4E9F0846F827002868CD
:100C6000A0434E6806F48036B6F5803F00D120439D
:100C700028606868A0434E6806F40036B6F5003F69
:100C800000D1204368604FF0B0463068A0434E6802
:100C900006F48016B6F5801F00D120434FF0B04611
:100CA00030607068A0434E6806F40016B6F5001F69
:100CB00000D120434FF0B04670605B1C0E68DE40F0
:100CC000002E7FF41CAFF8BD80000058F444025899
:100CD0000804005800000258000402580008025896
:100CE000000C025800100258001402580018025854
:100CF000001C0258002002580024025802461369C2
:100D00000B400BB1012000E00020704742690A400F
:100D10008A4202D10A04826100E0816170470AB10F
:100D2000816101E00B0483617047000001480068A5
:100D3000000C70470010005C01480068704700001C
:100D40002000002403480068034909780844014949
:100D500008607047200000242800002410B50320FC
:100D600000F00AF901F0C6FF10490968C1F3032138
:100D70000F4A515C01F01F01C8400E4908600B4842
:100D8000006800F00F001146085C00F01F010948E0
:100D90000068C840084908600F2000F00FF808B14B
:100DA000012010BD00F09AF80020FAE7184402581C
:100DB000C6680008000000240400002470B5044642
:100DC0001148007808B9012070BD0F4800784FF431
:100DD0007A71B1FBF0F00D490968B1FBF0F52846D6
:100DE00003F04EF908B10120EEE7102C07D20022E3
:100DF0002146501E00F083F80548046001E0012000
:100E0000E2E70020E0E700002800002400000024C2
:100E1000240000244178154A11600178F9B1121DAF
:100E200041681160017B0907C27A41EA0261827A56
:100E300041EAC241427B41EA8241827B41EA42412E
:100E4000C27B41EA0241427A41EA0221027A41EA46
:100E5000420102781143054A0832116005E0002181
:100E6000024A121D1160121D1160704798ED00E0DA
:100E700000BF00BF00BFBFF35F8F00BF00BF00BF58
:100E80000548006820F480300349086000200249CA
:100E9000703108607047000024ED00E040F001016F
:100EA0000D4A11600C497039096841F480310A4AD1
:100EB000703A116000BF00BF00BFBFF34F8F00BF8B
:100EC00000BF00BF00BF00BF00BFBFF36F8F00BFF8
:100ED00000BF00BF7047000094ED00E0704701467E
:100EE0000846002809DB00F01F0301229A4043094D
:100EF0009B0003F1E023C3F8002100BF70472DE9F8
:100F0000F05F80460D46164603F0DEFF0746394681
:100F10002A46334601F00700C0F1070ABAF1040F70
:100F200002D94FF0040A01E0C0F1070AD14600F1EE
:100F3000040ABAF1070F02D24FF0000A01E0A0F153
:100F4000030AD4464FF0010A0AFA09FAAAF1010A83
:100F50000AEA020A0AFA0CFA4FF0010B0BFA0CFB30
:100F6000ABF1010B0BEA030B4AEA0B0421464046A6
:100F700003F0B2FFBDE8F09F00BF00F00702064B90
:100F800019684FF6FF031940044B0B4343EA022153
:100F9000014B196000BF70470CED00E00000FA053E
:100FA0000348006840F08070014908607047000005
:100FB0000C4802582DE9F84304460D461746FFF742
:100FC000BBFE8046A86900B100BFE86900B100BF60
:100FD000286A00B100BF00BF94F84000012802D188
:100FE0000220BDE8F883012084F8400000BF94F897
:100FF0004100012828D100206064022084F84100CB
:101000004346002220212046009703F0EEF90646D1
:10101000DEB900222946204603F0F3F8686A78B961
:101020004346012202212046009703F0DEF90646DE
:101030005EB902202168C860012084F8410004E004
:10104000012084F8410000E0022600BF002084F85F
:10105000400000BF3046C4E7F8B50446FFF76CFE19
:1010600006460CB90120F8BD206A402800D000BF18
:1010700000BF94F84000012801D10220F3E70120CD
:1010800084F8400000BF94F8410050B9002084F873
:101090004000204600F04CF841F28831204600F034
:1010A00035F92068006820F47061A068401E41EAAC
:1010B000002021680860A06C3346002220210090A7
:1010C000204603F092F9054635BB2179E06840EAF5
:1010D0000160E1690843216A084321680968124AEE
:1010E0001140084321680860208A616941EA004094
:1010F000A1690843216849680C4A114008432168E6
:1011000048602068006840F0010021680860002005
:101110006064012084F8410000BF002084F8400092
:1011200000BF28469FE700002FFFFF00FEF8E0FF0A
:1011300010B586B0044600BF3748006840F48040D0
:10114000354908600846006800F48040009000BF00
:1011500000BF00BF30480C30006840F002002E494C
:101160000C3108600846006800F00200009000BFE3
:1011700000BF00BF0846006840F00800086008464D
:10118000006800F00800009000BF00BF00BF0846E4
:10119000006840F0100008600846006800F0100089
:1011A000009000BF00BF402001900220029001206B
:1011B0000390032004900A20059001A91748FFF727
:1011C00099FC04200190022002900120039003204A
:1011D00004900920059001A91048FFF78BFC4FF4FB
:1011E0000060019001A90E48FFF784FC4FF4805085
:1011F000019001A90A48FFF77DFC4FF400500190CF
:1012000001A90748FFF776FC0420019001A90548D1
:10121000FFF770FC06B010BDD44402580004025819
:10122000000C0258001002582DE9F84F04460E46F3
:1012300017460025FFF780FD80462068D0F81890FB
:10124000206800F1200A00BF94F84000012802D174
:101250000220BDE8F88F012084F8400000BF94F818
:10126000410001284AD100206064002E40D0222095
:1012700084F8410020680069401CA0632068006970
:10128000401C606326632068406920F0406040F0A5
:101290008060216848612068C0F8189013E04346D8
:1012A000012206212046009703F09FF8054605B16C
:1012B0000CE09AF80000216B0870206B401C206342
:1012C000A06B401EA063A06B0028E8D100BF5DB9F1
:1012D0004346012202212046009703F086F8054686
:1012E00015B902202168C860012084F8410006E099
:1012F000606C40F008006064012500E0022500BF3A
:10130000002084F8400000BF2846A2E781647047AF
:101310002DE9F84304460E4617460025FFF70CFD5D
:101320008046206800F1200900BF94F840000128A1
:1013300002D10220BDE8F883012084F8400000BFFC
:1013400094F84100012845D100206064002E3BD074
:10135000122084F8410020680069401CE062206887
:101360000069401CA06266622068406920F040600D
:101370002168486113E0434601220421204600977A
:1013800003F033F8054605B10CE0606A007889F88F
:101390000000606A401C6062E06A401EE062E06A31
:1013A0000028E8D100BF5DB9434601220221204652
:1013B000009703F01AF8054615B902202168C860A5
:1013C000012084F8410006E0606C40F00800606491
:1013D000012500E0022500BF002084F8400000BF86
:1013E0002846A7E710B501F085FC07490968C1F355
:1013F0000321064A515C01F01F01C84004490860FE
:101400000846006810BD000018440258C66800086D
:101410000000002410B501F031FC05490968C1F352
:101420000211044A515C01F01F01C84010BD0000C8
:1014300020440258C668000870B50146844D2D68E6
:1014400005F00303824D2D68C5F30510804D2D1D59
:101450002D6805F001047E4D0C352D68C5F3CC05D3
:1014600015FB04F501EE105AB8EE411AF0EE410AF0
:1014700000286FD023B1012B4ED0022B6BD16BE033
:10148000734D283D2D68C5F340153DB3704D283D83
:101490002D68C5F3C1066F4D25FA06F201EE102A3C
:1014A000F8EE411A01EE100AB8EE411A81EE812AD7
:1014B0009FED691AC0EE811A654D08352D68C5F398
:1014C000080501EE105AB8EE411A31EE811AF7EE16
:1014D000001A31EE211A22EE010A1CE001EE100A78
:1014E000B8EE411ADFED5D1A81EE812A9FED5A1A9E
:1014F000C0EE811A564D08352D68C5F3080501EE7A
:10150000105AB8EE411A31EE811AF7EE001A31EE98
:10151000211A22EE010A5BE001EE100AB8EE411A30
:10152000DFED4F1A81EE812A9FED4B1AC0EE811A32
:10153000474D08352D68C5F3080501EE105AB8EE81
:10154000411A31EE811AF7EE001A31EE211A22EE1D
:10155000010A3DE077E01DE001EE100AB8EE411A05
:101560009FED402AC2EE011A9FED3B1A80EE812AC0
:10157000374D08352D68C5F3080501EE105AB8EE51
:10158000411A32EE011AB7EE002A31EE021A21EEAC
:10159000810A1DE001EE100AB8EE411ADFED301AA3
:1015A00081EE812A9FED2C1AC0EE811A284D083554
:1015B0002D68C5F3080501EE105AB8EE411A31EE58
:1015C000811AF7EE001A31EE211A22EE010A00BF4D
:1015D00000BF1F4D08352D68C5F3462501EE105A92
:1015E000B8EE411AF7EE001A31EE211AC0EE011AD8
:1015F000BCEEE11A81ED001A154D08352D68C5F3D2
:10160000064501EE105AB8EE411AF7EE001A31EE17
:10161000211AC0EE011ABCEEE11A81ED011A0C4D3F
:1016200008352D68C5F3066501EE105AB8EE411A6B
:10163000F7EE001A31EE211AC0EE011ABCEEE11AE3
:1016400081ED021A03E000250D604D608D6070BDD4
:10165000284402580090D003000000460024744C37
:101660000024744A0024F44A70B50146844D2D6864
:1016700005F00303824D2D68C5F30530804D2D1D07
:101680002D68C5F300147E4D14352D68C5F3CC05C7
:1016900015FB04F501EE105AB8EE411AF0EE410ABE
:1016A00000286FD023B1012B4ED0022B6BD16BE001
:1016B000734D283D2D68C5F340153DB3704D283D51
:1016C0002D68C5F3C1066F4D25FA06F201EE102A0A
:1016D000F8EE411A01EE100AB8EE411A81EE812AA5
:1016E0009FED691AC0EE811A654D10352D68C5F35E
:1016F000080501EE105AB8EE411A31EE811AF7EEE4
:10170000001A31EE211A22EE010A1CE001EE100A45
:10171000B8EE411ADFED5D1A81EE812A9FED5A1A6B
:10172000C0EE811A564D10352D68C5F3080501EE3F
:10173000105AB8EE411A31EE811AF7EE001A31EE66
:10174000211A22EE010A5BE001EE100AB8EE411AFE
:10175000DFED4F1A81EE812A9FED4B1AC0EE811A00
:10176000474D10352D68C5F3080501EE105AB8EE47
:10177000411A31EE811AF7EE001A31EE211A22EEEB
:10178000010A3DE077E01DE001EE100AB8EE411AD3
:101790009FED402AC2EE011A9FED3B1A80EE812A8E
:1017A000374D10352D68C5F3080501EE105AB8EE17
:1017B000411A32EE011AB7EE002A31EE021A21EE7A
:1017C000810A1DE001EE100AB8EE411ADFED301A71
:1017D00081EE812A9FED2C1AC0EE811A284D10351A
:1017E0002D68C5F3080501EE105AB8EE411A31EE26
:1017F000811AF7EE001A31EE211A22EE010A00BF1B
:1018000000BF1F4D10352D68C5F3462501EE105A57
:10181000B8EE411AF7EE001A31EE211AC0EE011AA5
:10182000BCEEE11A81ED001A154D10352D68C5F397
:10183000064501EE105AB8EE411AF7EE001A31EEE5
:10184000211AC0EE011ABCEEE11A81ED011A0C4D0D
:1018500010352D68C5F3066501EE105AB8EE411A31
:10186000F7EE001A31EE211AC0EE011ABCEEE11AB1
:1018700081ED021A03E000250D604D608D6070BDA2
:10188000284402580090D003000000460024744C05
:101890000024744A0024F44A70B50146844D2D6832
:1018A00005F00303824D2D68C5F30550804D2D1DB5
:1018B0002D68C5F300247E4D1C352D68C5F3CC057D
:1018C00015FB04F501EE105AB8EE411AF0EE410A8C
:1018D00000286FD023B1012B4ED0022B6BD16BE0CF
:1018E000734D283D2D68C5F340153DB3704D283D1F
:1018F0002D68C5F3C1066F4D25FA06F201EE102AD8
:10190000F8EE411A01EE100AB8EE411A81EE812A72
:101910009FED691AC0EE811A654D18352D68C5F323
:10192000080501EE105AB8EE411A31EE811AF7EEB1
:10193000001A31EE211A22EE010A1CE001EE100A13
:10194000B8EE411ADFED5D1A81EE812A9FED5A1A39
:10195000C0EE811A564D18352D68C5F3080501EE05
:10196000105AB8EE411A31EE811AF7EE001A31EE34
:10197000211A22EE010A5BE001EE100AB8EE411ACC
:10198000DFED4F1A81EE812A9FED4B1AC0EE811ACE
:10199000474D18352D68C5F3080501EE105AB8EE0D
:1019A000411A31EE811AF7EE001A31EE211A22EEB9
:1019B000010A3DE077E01DE001EE100AB8EE411AA1
:1019C0009FED402AC2EE011A9FED3B1A80EE812A5C
:1019D000374D18352D68C5F3080501EE105AB8EEDD
:1019E000411A32EE011AB7EE002A31EE021A21EE48
:1019F000810A1DE001EE100AB8EE411ADFED301A3F
:101A000081EE812A9FED2C1AC0EE811A284D1835DF
:101A10002D68C5F3080501EE105AB8EE411A31EEF3
:101A2000811AF7EE001A31EE211A22EE010A00BFE8
:101A300000BF1F4D18352D68C5F3462501EE105A1D
:101A4000B8EE411AF7EE001A31EE211AC0EE011A73
:101A5000BCEEE11A81ED001A154D18352D68C5F35D
:101A6000064501EE105AB8EE411AF7EE001A31EEB3
:101A7000211AC0EE011ABCEEE11A81ED011A0C4DDB
:101A800018352D68C5F3066501EE105AB8EE411AF7
:101A9000F7EE001A31EE211AC0EE011ABCEEE11A7F
:101AA00081ED021A03E000250D604D608D6070BD70
:101AB000284402580090D003000000460024744CD3
:101AC0000024744A0024F44A2DE9F0418AB0064605
:101AD000B6F5807F32D1DC48006800F00707052F9B
:101AE00029D2DFE807F003080D26120007A8FFF748
:101AF000A3FC089C21E004A8FFF7B6FD049C1CE0B1
:101B000001A8FFF7C9FE019C17E0CF48001F00683D
:101B100000F040550DB9CD4C0AE0B5F1805F01D120
:101B2000CB4C05E0B5F1005F01D1CA4C00E00024C8
:101B300003E0C94C01E0002400BF80E1B6F5007F5E
:101B400038D1C148006800F4E077802F14D003DC5E
:101B500047B1402F2BD10AE0C02F26D0B7F5807FA8
:101B600025D10EE007A8FFF767FC089C21E004A838
:101B7000FFF77AFD049C1CE001A8FFF78DFE019C95
:101B800017E0B148001F006800F040550DB9AF4C98
:101B90000AE0B5F1805F01D1AD4C05E0B5F1005F21
:101BA00001D1AC4C00E0002403E0AB4C01E0002488
:101BB00000BF44E1B6F5806F3CD1A348083000680F
:101BC00000F46007B7F5800F16D004DC57B1B7F505
:101BD000001F2CD10BE0B7F5C00F26D0B7F5000FD2
:101BE00025D10EE007A8FFF727FC089C21E004A8F8
:101BF000FFF73AFD049C1CE001A8FFF74DFE019C95
:101C000017E09148001F006800F040550DB98F4C57
:101C10000AE0B5F1805F01D18D4C05E0B5F1005FC0
:101C200001D18C4C00E0002403E08B4C01E0002447
:101C300000BF04E1B6F5006F3CD18348083000686E
:101C400000F0E067B7F1007F16D004DC57B1B7F1C0
:101C5000807F2CD10BE0B7F1407F26D0B7F1806FA9
:101C600025D10EE007A8FFF7E7FB089C21E004A8B8
:101C7000FFF7FAFC049C1CE001A8FFF70DFE019C95
:101C800017E07148001F006800F040550DB96F4C17
:101C90000AE0B5F1805F01D16D4C05E0B5F1005F60
:101CA00001D16C4C00E0002403E06B4C01E0002407
:101CB00000BFC4E0B6F5805F3DD16348006800F422
:101CC000E048B8F5005F18D006DCB8F1000F0AD084
:101CD000B8F5805F2CD10BE0B8F5405F26D0B8F5A1
:101CE000804F25D10EE007A8FFF7A6FB089C21E056
:101CF00004A8FFF7B9FC049C1CE001A8FFF7CCFD89
:101D0000019C17E05048001F006800F040550DB9D5
:101D10004E4C0AE0B5F1805F01D14D4C05E0B5F1C4
:101D2000005F01D14B4C00E0002403E04A4C01E08D
:101D3000002400BF83E0B6F5002F2FD142480830C1
:101D4000006800F44038B8F1000F06D0B8F5803FC5
:101D500008D0B8F5003F1ED109E004A8FFF784FCC5
:101D6000049C1AE001A8FFF797FD039C15E0364894
:101D7000001F006800F040550DB9344C0AE0B5F181
:101D8000805F01D1324C05E0B5F1005F01D1314CEB
:101D900000E0002401E0002400BF50E0B6F5803FE1
:101DA00018D12948001F006800F48038B8F1000FEE
:101DB00003D0B8F5803F0AD104E007A8FFF73CFB49
:101DC000089C06E004A8FFF74FFC069C01E00024F5
:101DD00000BF34E0B6F5804F30D11B4808300068B2
:101DE00000F0E048B8F1405F1FD009DCB8F1000F07
:101DF0000DD0B8F1805F0ED0B8F1005F1BD10FE0BD
:101E0000B8F1804F13D0B8F1A04F14D111E0FFF713
:101E100001FB044611E004A8FFF726FC059C0CE03A
:101E200001A8FFF739FD029C07E0084C05E0084CCB
:101E300003E0084C01E0002400BF00E0002420463D
:101E40000AB0BDE8F0810000504402580090D00371
:101E500000093D0000127A000080BB002DE9F0412E
:101E600004460025A846206800F00060B0F1006F2D
:101E700030D1606E48B1B0F5801F0DD0B0F5001FB5
:101E800010D0B0F5401F15D113E0F948006840F4B8
:101E90000030F74908600FE00221201D02F0CCFA63
:101EA000054609E0022104F1240002F077FB054613
:101EB00002E001E0012500BF00BF55B9EC48243025
:101EC000006820F44010616E0843E949243108603D
:101ED00000E0A846208800F48070B0F5807F2DD106
:101EE000606D05281AD2DFE800F0030A1017180009
:101EF000DF48006840F40030DD49086010E0002150
:101F0000201D02F099FA05460AE0002104F12400A0
:101F100002F044FB054603E002E001E0012500BFBA
:101F200000BF55B9D2482430006820F00700616D29
:101F30000843CF492431086000E0A846208800F417
:101F40000070B0F5007F33D1A06D802817D003DC7E
:101F500040B140281CD10CE0C02817D0B0F5807FDC
:101F600016D114E0C248006840F40030C04908604F
:101F700010E00021201D02F05FFA05460AE0002172
:101F800004F1240002F00AFB054603E002E001E050
:101F9000012500BF00BF55B9B5482430006820F4C2
:101FA000E070A16D0843B2492431086000E0A84602
:101FB000208800F48060B0F5806F38D1D4F8A40098
:101FC000B0F5800F19D004DC50B1B0F5001F1DD161
:101FD0000DE0B0F5C00F17D0B0F5000F16D114E02A
:101FE000A348006840F40030A149086010E00021D7
:101FF000201D02F021FA05460AE0002104F1240028
:1020000002F0CCFA054603E002E001E0012500BF42
:1020100000BF5DB996482C30006820F46000D4F809
:10202000A410084392492C31086000E0A84620889B
:1020300000F40060B0F5006F38D1D4F8A800B0F11A
:10204000007F19D004DC50B1B0F1807F1DD10DE0CC
:10205000B0F1407F17D0B0F1806F16D114E0844802
:10206000006840F400308249086010E00021201D23
:1020700002F0E2F905460AE0002104F1240002F032
:102080008DFA054603E002E001E0012500BF00BF34
:102090005DB977482C30006820F0E060D4F8A810D3
:1020A000084373492C31086000E0A846206800F01E
:1020B0000070B0F1007F27D1A06CA0B1102804D02F
:1020C000202809D030280FD10CE06948006840F47E
:1020D00000306749086009E00221201D02F0ACF9D8
:1020E000054603E002E001E0012500BF00BF55B94D
:1020F0005F482030006820F03000A16C08435C4944
:102100002031086000E0A846208800F48050B0F537
:10211000805F36D1E06DB0F5005F19D004DC50B1BE
:10212000B0F5805F1DD10DE0B0F5405F17D0B0F580
:10213000804F16D114E04E48006840F400304C49FE
:10214000086010E00021201D02F076F905460AE043
:10215000002104F1240002F021FA054603E002E028
:1021600001E0012500BF00BF55B941482430006897
:1021700020F4E040E16D08433D492431086000E06F
:10218000A846208800F40050B0F5005F34D1206EDE
:10219000B0F5403F1DD007DC68B1B0F5803F0BD0F3
:1021A000B0F5003F18D10DE0B0F5802F12D0B0F59A
:1021B000A02F11D10FE011E00121201D02F03CF908
:1021C00005460BE0012104F1240002F0E7F9054681
:1021D00004E003E002E001E0012500BF00BF55B9C3
:1021E00023482430006820F4E020216E0843204971
:1021F0002431086000E0A846208800F48040B0F553
:10220000804F38D1D4F8AC00B0F1405F1DD007DC6E
:1022100068B1B0F1805F0BD0B0F1005F18D10DE074
:10222000B0F1804F12D0B0F1A04F11D10FE011E00A
:102230000121201D02F000F905460BE0012104F107
:10224000240002F0ABF9054604E003E002E001E0FF
:10225000012500BF00BF6DB905482C30006820F093
:10226000E040D4F8AC10084301492C31086002E08A
:102270002C440258A846208800F40040B0F5004FD6
:1022800026D1E06E98B1B0F1805F03D0B0F1005F6D
:102290000ED106E0F948006840F40030F7490860C4
:1022A00008E00121201D02F0C7F8054602E001E028
:1022B000012500BF00BF55B9F0482430006820F068
:1022C0004050E16E0843ED492431086000E0A84623
:1022D000206800F08070B0F1807F27D1606CA0B1E1
:1022E000012804D0022809D003280FD10CE0E348CC
:1022F000006840F40030E149086009E00221201D37
:1023000002F09AF8054603E002E001E0012500BF73
:1023100000BF55B9D9482030006820F00300616C37
:102320000843D6492031086000E0A846206800F440
:102330008000B0F5800F7DD1D148006840F48070F6
:10234000CF490860FEF7F8FC064606E0FEF7F4FC0D
:10235000801B642801D9032505E0C948006800F402
:1023600080700028F2D000BF85BBC44844300068AC
:1023700000F44070B4F8B01001F44071884213D0FA
:10238000BE484430006820F44077BC4844300068C0
:1023900040F48030B949443108600846006820F4B0
:1023A0008030086008460760D4F8B000B0F5807F40
:1023B00015D1FEF7C1FC064609E0FEF7BDFC801B07
:1023C00041F28831884202D9032507E038E0AB4862
:1023D00044300068C0F340000028EED000BF55BB79
:1023E00000BFB4F8B00000F44070B0F5407F0ED1EB
:1023F000A2481C38006820F47C51A24AD4F8B000EE
:10240000104041EA10109D491C39086007E09B48C4
:102410001C38006820F47C5098491C3908609748A3
:1024200044300068B4F8B010C1F30B01084393497D
:10243000443101E005E001E0086002E0A84600E068
:10244000A846207800F0010068B3A06F182819D0C2
:1024500005DC48B1082808D0102816D10BE0202848
:1024600011D0282811D10FE011E00121201D01F029
:10247000E3FF05460BE0012104F1240002F08EF891
:10248000054604E003E002E001E0012500BF00BFD3
:1024900055B97A482830006820F03800A16F084309
:1024A00076492831086000E0A846207800F0020054
:1024B000022828D1606F062815D2DFE800F0030457
:1024C0000A11121311E00121201D01F0B5FF05468C
:1024D0000BE0012104F1240002F060F8054604E05D
:1024E00003E002E001E0012500BF00BF55B96348E9
:1024F0002830006820F00700616F08435F492831E9
:10250000086000E0A846207800F0040004282AD1E2
:10251000D4F89000062815D2DFE800F003040A1171
:10252000121311E00121201D01F086FF05460BE08A
:10253000012104F1240002F031F8054604E003E033
:1025400002E001E0012500BF00BF5DB94B482C301F
:10255000006820F00700D4F89010084347492C3158
:10256000086000E0A846207800F02000202836D13E
:10257000D4F88C00B0F1405F1DD007DC68B1B0F139
:10258000805F0BD0B0F1005F18D10DE0B0F1804F4B
:1025900012D0B0F1A04F11D10FE011E00021201DA9
:1025A00001F04AFF05460BE0022104F1240001F08E
:1025B000F5FF054604E003E002E001E0012500BF6D
:1025C00000BF5DB92D482830006820F0E040D4F805
:1025D0008C10084329492831086000E0A84620787B
:1025E00000F04000402836D1D4F89800B0F5406F94
:1025F0001DD007DC68B1B0F5806F0BD0B0F5006F6F
:1026000018D10DE0B0F5805F12D0B0F5A05F11D108
:102610000FE011E00021201D01F00EFF05460BE048
:10262000022104F1240001F0B9FF054604E003E0B3
:1026300002E001E0012500BF00BF5DB90F482C306A
:10264000006820F4E050D4F8981008430B492C316E
:10265000086000E0A846207800F0800080283AD189
:10266000D4F89C00B0F5C04F23D00DDC98B1B0F584
:10267000005F11D0B0F5804F1ED113E02C440258FA
:1026800000480258FFFCFF0FB0F5004F12D0B0F524
:10269000204F11D10FE011E00021201D01F0CCFEF0
:1026A00005460BE0022104F1240001F077FF054606
:1026B00004E003E002E001E0012500BF00BF4DB9E6
:1026C000AD48006820F46040D4F89C100843AA4943
:1026D000086000E0A846207800F00800082817D11C
:1026E000D4F88000B0F5805F07D1022104F1240006
:1026F00001F054FF08B14FF001089F48001F006827
:1027000020F44050D4F8801008439B49091F08600A
:10271000207800F01000102815D1D4F89400B0F5FE
:10272000807F07D1022104F1240001F037FF08B1B6
:102730004FF001089048006820F44070D4F89410DD
:1027400008438D490860206800F40020B0F5002F90
:1027500026D1D4F8A00030B1B0F5803F09D0B0F553
:10276000003F0ED10CE00021201D01F065FE054662
:1027700009E0022104F1240001F010FF054602E007
:1027800001E0012500BF00BF4DB97B48006820F47F
:102790004030D4F8A01008437749086000E0A8460C
:1027A000206800F48020B0F5802F2DD1D4F884006B
:1027B000B0F5801F06D0B0F5001F0CD0B0F5401F5B
:1027C00011D10FE06C482C38006840F400306A49A1
:1027D0002C39086009E0012104F1240001F0DEFE3B
:1027E000054602E001E0012500BF00BF5DB9624877
:1027F000001F006820F44010D4F8841008435E499C
:10280000091F086000E0A846206800F48030B0F599
:10281000803F24D1E06C18B1B0F5803F0FD108E0C3
:1028200055482C38006840F4003053492C39086072
:1028300007E00221201D01F0FFFD054601E0012512
:1028400000BF00BF55B94C480C38006820F48030F8
:10285000E16C084348490C39086000E0A84620684C
:1028600000F00050B0F1005F07D1022104F1240014
:1028700001F094FE08B14FF00108206800F4003028
:10288000B0F5003F27D1E06FA0B1B0F5807F06D052
:10289000B0F5007F0CD0B0F5407F0CD109E0364890
:1028A0002C38006840F4003033492C39086004E0CB
:1028B00003E002E001E0012500BF00BF55B92E484A
:1028C000001F006820F44070E16F08432A49091F87
:1028D000086000E0A846206800F48010B0F5801F72
:1028E00009D125480838006820F00040216F0843CE
:1028F000214908390860206800F40010B0F5001F75
:1029000009D11D480838006820F08070A16E084386
:10291000194908390860206800F08040B0F1804F04
:1029200011D100BF14484838006820F40040124913
:102930004839086008460068D4F8B81008430E49C2
:102940004839086000BF206800F00040B0F1004F37
:1029500009D109480C38006820F04050216D084327
:1029600005490C390860B8F1000F02D10020BDE81C
:10297000F0810120FBE70000584402582DE9F041A6
:1029800004460D4614B90120BDE8F081B648006840
:1029900000F00F00A8420ED2B348006820F00F00EC
:1029A0002843B14908600846006800F00F00A842BB
:1029B00001D00120E8E7207800F0040004280ED1BF
:1029C000AA492069096801F07001884207D9A7481F
:1029D000006820F0700021690843A449086020784D
:1029E00000F00800082811D1A049091D6069096894
:1029F00001F07001884209D99C48001D006820F050
:102A00007000616908439949091D0860207800F049
:102A10001000102811D19549091DA069096801F419
:102A2000E061884209D99148001D006820F4E06007
:102A3000A16908438D49091D0860207800F0200035
:102A4000202811D189490831E069096801F0700135
:102A5000884209D985480830006820F07000E16993
:102A60000843824908310860207800F002000228FB
:102A70000ED17E49E068096801F00F01884207D94C
:102A80007A48006820F00F00E16808437749086041
:102A9000207800F00100002850D07448006820F42D
:102AA0007060A1680843714908606068022807D116
:102AB0006E4818380068C0F34040F8B9012063E759
:102AC0006068032807D1694818380068C0F340607F
:102AD000A0B9012058E76068012807D16348183879
:102AE0000068C0F3002048B901204DE75F4818385E
:102AF0000068C0F3800008B9012045E75B4808384A
:102B0000006820F0070061680843584908390860E8
:102B1000FEF712F9064608E0FEF70EF9801B41F2B7
:102B20008831884201D903202EE7504808380068D0
:102B300000F038006168B0EBC10FEDD1207800F0F3
:102B4000020002280ED14949E068096801F00F012E
:102B5000884207D24548006820F00F00E16808432A
:102B6000424908604048006800F00F00A8420ED9B2
:102B70003D48006820F00F0028433B4908600846A4
:102B8000006800F00F00A84201D00120FCE6207888
:102B900000F0040004280ED134492069096801F0CE
:102BA0007001884207D23148006820F07000216926
:102BB00008432E490860207800F00800082811D149
:102BC0002A49091D6069096801F07001884209D22B
:102BD0002648001D006820F0700061690843234901
:102BE000091D0860207800F01000102811D11F493D
:102BF000091DA069096801F4E061884209D21B48F7
:102C0000001D006820F4E060A16908431749091D10
:102C10000860207800F02000202811D113490831E5
:102C2000E069096801F07001884209D20F48083054
:102C3000006820F07000E16908430C490831086021
:102C400000F058F809490968C1F30321084A515CAA
:102C500001F01F01C8400749086007480068FEF7F7
:102C6000ADF8074638468FE6002000521844025857
:102C7000C6680008000000242400002410B5FEF7F8
:102C8000B1FB0749096801F00F01064A515C01F0E8
:102C90001F01C840044908600846006810BD0000D4
:102CA00018440258C66800080400002410B5FFF755
:102CB000E5FF05490968C1F30211044A515C01F0BE
:102CC0001F01C84010BD00001C440258C66800081F
:102CD00010B5FFF7D3FF05490968C1F30221044A83
:102CE000515C01F01F01C84010BD00001C44025897
:102CF000C6680008F0B5824E366806F0380636B170
:102D0000082E15D0102E15D0182E7DD114E07C4E33
:102D1000103E3668C6F3401646B1794E103E36680E
:102D2000C6F3C107774E26FA07F000E07548E5E0E4
:102D30007548E3E07548E1E0714E1836366806F0F4
:102D400003046F4E18363668C6F305116C4E1C36F8
:102D5000366806F001056A4E24363668C6F3CC069E
:102D600016FB05F601EE106AB8EE410A002971D093
:102D700024B1012C50D0022C6DD16DE0604E103E7C
:102D80003668C6F340163EB35D4E103E3668C6F355
:102D9000C1075C4E26FA07F301EE103AF8EE411A2D
:102DA00001EE101AB8EE411A81EE812A9FED581AF1
:102DB000C0EE011A524E20363668C6F3080601EE00
:102DC000106AB8EE411A31EE811AF7EE001A31EEB0
:102DD000211A62EE010A1EE001EE101AB8EE411A45
:102DE000DFED4C1A81EE812A9FED491AC0EE011ADF
:102DF000434E20363668C6F3080601EE106AB8EE78
:102E0000411A31EE811A00E076E0F7EE001A31EE59
:102E1000211A62EE010A5BE001EE101AB8EE411AC7
:102E20009FED3D2AC2EE011A9FED391A80EE012A6C
:102E3000334E20363668C6F3080601EE106AB8EE47
:102E4000411A32EE011AB7EE002A31EE021A61EE93
:102E5000810A3DE04EE01DE001EE101AB8EE411A85
:102E6000DFED2E1A81EE812A9FED291AC0EE011A9C
:102E7000234E20363668C6F3080601EE106AB8EE17
:102E8000411A31EE811AF7EE001A31EE211A62EE84
:102E9000010A1DE001EE101AB8EE411A9FED1E2A3C
:102EA000C2EE011A9FED1A1A80EE012A144E203646
:102EB0003668C6F3080601EE106AB8EE411A32EE23
:102EC000011AB7EE002A31EE021A61EE810A00BF44
:102ED00000BF0B4E20363668C6F34626721C01EE44
:102EE000102AB8EE411AC0EE811ABCEEE11A11EEBA
:102EF000100A00E0002001E0034800BF00BFF0BD61
:102F0000104402580090D00300093D0000127A00DE
:102F1000000000460024744C0024744A0024F44A43
:102F20002DE9F047044614B90120BDE8F087207868
:102F300000F00100002872D0F948006800F038085D
:102F4000F7481830D0F80090B8F1100F06D0B8F15B
:102F5000180F0FD109F0030002280BD1F0481038E8
:102F60000068C0F3404000286ED0606800286BD134
:102F70000120DAE700BF6068B0F5803F08D1E8487B
:102F80001038006840F48030E549103908602EE0C0
:102F9000606868B9E2481038006820F48030E04981
:102FA000103908600846006820F4802008601EE0A0
:102FB0006068B0F5A02F0DD1D9481038006840F4F2
:102FC0008020D749103908600846006840F48030F6
:102FD00008600CE0D2481038006820F48030D049F6
:102FE000103908600846006820F48020086000BF9F
:102FF0006068A8B1FDF7A0FE054608E0FDF79CFE5D
:10300000401B41F28831884201D903208DE7C44832
:1030100010380068C0F340400028EFD014E014E0FE
:10302000FDF78AFE054608E0FDF786FE401B41F2EB
:103030008831884201D9032077E7B9481038006801
:10304000C0F340400028EFD100BF207800F002001C
:1030500002286BD1B248006800F03808B048183038
:10306000D0F80090B8F1000F05D0B8F1180F2BD1AF
:1030700009F0030040BBAA4810380068C0F3800084
:1030800018B1E06808B901204FE700BFFDF74EFE18
:1030900041F2030188420BD8A1480C38006820F4A3
:1030A0007C30216940EA01309D490C3908600AE012
:1030B0009B480C38006820F0FE40217C40EA01600B
:1030C00097490C39086058E0E06870B394481038AC
:1030D000006820F01900E168084391491039086040
:1030E000FDF72AFE054606E0FDF726FE401B0228F6
:1030F00001D9032019E78A4810380068C0F380001E
:103100000028F1D000BFFDF711FE41F20301884213
:103110000DD883480C38006820F47C30216940EADF
:1031200001307F490C3908600CE00CE026E07C4857
:103130000C38006820F0FE40217C40EA01607849AC
:103140000C39086019E076481038006820F001005A
:10315000734910390860FDF7EFFD054606E0FDF7FD
:10316000EBFD401B022801D90320DEE66C48103835
:103170000068C0F380000028F1D100BF207800F083
:10318000100010286ED16648006800F038086448C6
:103190001830D0F80090B8F1080F06D0B8F1180F29
:1031A0002FD109F0030001282BD15D4810380068A9
:1031B000C0F3002020B1E069802801D00120B4E6EE
:1031C00000BFFDF7B3FD41F2030188420CD854481B
:1031D0000C38006820F0F84094F8201040EA816034
:1031E0004F490C3908600BE04D48001F006820F083
:1031F0007C5094F8201040EA01604949091F08609A
:1032000058E0E06968B346481038006840F0800034
:10321000434910390860FDF78FFD054606E0FDF7CC
:103220008BFD401B022801D903207EE63C48103864
:103230000068C0F300200028F1D000BFFDF776FD44
:1032400041F2030188420ED835480C38006820F05E
:10325000F84094F8201040EA816031490C39086048
:103260000DE00DE027E02E48001F006820F07C50A4
:1032700094F8201040EA01602949091F086019E00C
:1032800027481038006820F0800025491039086070
:10329000FDF752FD054606E0FDF74EFD401B0228F6
:1032A00001D9032041E61E4810380068C0F3002011
:1032B0000028F1D100BF207800F00800082837D19D
:1032C0006069D0B116486430006840F001001449CC
:1032D00064310860FDF730FD054606E0FDF72CFD82
:1032E000401B022801D903201FE60D486430006806
:1032F000C0F340000028F1D01AE0094864300068AB
:1033000020F00100064964310860FDF715FD05460F
:1033100008E0FDF711FD401B022803D9032004E655
:1033200010440258DC480068C0F340000028F0D187
:10333000207800F02000202836D1A069D0B1D648EE
:103340007438006840F48050D34974390860FDF740
:10335000F3FC054606E0FDF7EFFC401B022801D90F
:103360000320E2E5CC4874380068C0F34030002800
:10337000F1D019E0C8487438006820F48050C6497C
:1033800074390860FDF7D8FC054606E0FDF7D4FC6B
:10339000401B022801D90320C7E5BF4874380068E4
:1033A000C0F340300028F1D1207800F00400042858
:1033B0007DD1BA48006840F48070B8490860FDF7D4
:1033C000BBFC054606E0FDF7B7FC401B642801D9AD
:1033D0000320AAE5B148006800F480700028F2D00C
:1033E00000BFA068012808D1AB48001F006840F06A
:1033F0000100A949091F08602DE0A06868B9A64826
:10340000001F006820F00100A349091F086008465A
:10341000006820F0040008601DE0A06805280DD1B8
:103420009D48001F006840F004009B49091F086088
:103430000846006840F0010008600CE09648001F54
:10344000006820F001009449091F086008460068E0
:1034500020F00400086000BFA068A0B1FDF76CFC7C
:10346000054608E0FDF768FC401B41F288318842C0
:1034700001D9032059E58848001F0068C0F34000C7
:103480000028EFD013E0FDF757FC054608E0FDF7F4
:1034900053FC401B41F28831884201D9032044E5A6
:1034A0007D48001F0068C0F340000028EFD1606A2B
:1034B00000287DD078486438006800F0380018286B
:1034C00077D0606A022875D173487438006820F09C
:1034D0008070714974390860FDF72EFC054606E0DE
:1034E000FDF72AFC401B022801D903201DE56A488C
:1034F00074380068C0F340600028F1D100BFD4E9FF
:103500000A1041EA001064494C39096840F2F3326C
:103510009143084360494C390860208E401EC0F337
:103520000800616B491E4FF47E4202EA41210843C4
:10353000218F491ED20102EA014108433C21095D65
:10354000491E120202EA01610843534944390860E6
:1035500000BF081F006820F00100091F08604E48E6
:10356000403800684FF6F8718843A16C40EAC1000A
:1035700049494039086048484838006820F00C0044
:10358000216C08434449483908600846006820F027
:103590000200616C084340494839086008460068E9
:1035A00040F4803008600846006840F4003002E0D3
:1035B0006FE041E025E008600846006840F48020A4
:1035C00008600846006840F001000860324874381E
:1035D000006840F08070304974390860FDF7ACFB3A
:1035E000054606E0FDF7A8FB401B022801D9032091
:1035F0009BE4294874380068C0F340600028F1D08B
:1036000047E025487438006820F0807022497439FA
:103610000860FDF791FB054606E0FDF78DFB401BBA
:10362000022801D9032080E41B4874380068C0F3E5
:1036300040600028F1D12CE017484C380768164844
:1036400044380668606A012821D007F00301A06AA7
:1036500081421CD1C7F30511E06A884217D1C6F335
:103660000801206B401E814211D1606B401EC6F3E1
:10367000462188420BD1A06B401EC6F3064188420A
:1036800005D1E06B401EC6F30661884201D00120DF
:103690004BE4002049E400007444025800480258FA
:1036A00070B588B004460D46032084F83000A06B46
:1036B000032820D0B5F5004F04D1606B40F0805056
:1036C00060631CE0B5F5804F07D1204601F040FB58
:1036D0000646606B3043606311E03DB9204601F05F
:1036E00003FB0646606B3043606308E0606B40F0AC
:1036F0000060606303E0606B40F080506063606B6B
:1037000038B1194821688863012084F8300008B076
:1037100070BD60680390A0680490059520690690CC
:103720006069042802D3606907900FE0A06DB0F5CE
:10373000007F02D16069079008E0A06DB0F5807F3E
:1037400002D10220079001E004200790DDE9060184
:10375000CDE90001206803A90EC9FCF7E7FE0120AE
:1037600084F830000020D2E7FF0FE01F10B50246BA
:10377000D06D800F0870D06DC0F383604870D06D3D
:10378000C0F301608870D06D000CC870B2F85C00A6
:10379000000A087192F85C004871106E000DC88034
:1037A000106EC0F3034008726020805AC0F3C0302E
:1037B00048726020805AC0F3803088726020805A3E
:1037C000C0F34030C8726020805AC0F300300873E4
:1037D00000204873906B002836D16020805A800505
:1037E000030D506E43EA90700861506EC0F3C260E2
:1037F0000875506EC0F302604875506EC0F34250B9
:103800008875506EC0F38240C875506EC0F3C230E8
:1038100008760869401C90640B7E906C03F00703E7
:103820009B1C01249C4060439064087A00F00F03C5
:1038300001209840D064D2E912035B0A5843106516
:103840004FF40073536521E0906B012813D1602081
:10385000805C8006830A506E43EA10400861086964
:10386000401C83029364936C13654FF40073D3641C
:10387000D36C53650AE02E4813689863506B40F090
:1038800080505063012082F8300010BD6420805ABF
:10389000C0F3803001F8190F6420805AC0F3C610BD
:1038A00048706420805C00F07F008870906EC00FCC
:1038B000C870906EC0F341700871906EC0F3826062
:1038C0004871906EC0F383508871906EC0F3405081
:1038D000C87100200872906EC0F3004048726820E2
:1038E000805AC0F3C03088726820805AC0F380309C
:1038F000C8726820805AC0F3403008736820805A2C
:10390000C0F3003048736820805AC0F38120887368
:103910006820805AC0F30120C8736820805CC0F31F
:10392000460008740120487419390020ADE70000F2
:10393000FF0FE01F0246906B0860D06B4860106C70
:103940008860506CC860906C0861D06C4861106DE4
:103950008861506DC86100207047F8B504460020AA
:1039600000906946204601F0A7F9054615B1606B45
:10397000284360630098C0F343263046F8BD00003A
:1039800070B590B005460C466946284601F0FAF835
:10399000064656B1284829688863686B30436863D7
:1039A000012085F8300010B070BD0098C0F3811080
:1039B00020700098C0F340106070009800F47F0001
:1039C000000A009940EA11606080019800060199A0
:1039D00001F47F4140EA0120019901F47F0140EAAE
:1039E0001120019940EA11606060029820720298EB
:1039F000000A60720298C0F30350A0720398C0B22C
:103A0000029901F07F4140EA1140A0810398C0F380
:103A10008520A0730398C0F30120E0730398C0F3DE
:103A200003102074039800F00F0060740498000ED7
:103A3000A0740020B7E70000FF0FE01FF0B585B0CD
:103A4000044614B9012005B0F0BD94F8300020B947
:103A5000002020762046FCF76EFD032084F830001D
:103A6000204600F045F808B10120ECE76946204601
:103A7000FFF786FF08B10120E5E79DF810609DF88B
:103A80001170A06B012805D106B91FB14FF4007168
:103A9000A16507E0A06B012802D10102A16501E048
:103AA0000021A1652046E168FFF7FAFD08B1012079
:103AB000C9E7FDF741F905460CE0FDF73DF9401B6C
:103AC000401C38B94FF000406063012084F830009A
:103AD0000320B8E72046FFF740FF0428EDD100207F
:103AE0006063E062012084F830000020ABE7000052
:103AF0002DE9F04188B00446002003900490059021
:103B000006902C200790DDE90601CDE90001206830
:103B100003A90EC9FCF70AFD07461FB1012008B032
:103B2000BDE8F0812068FCF70BFD07460FB10120CE
:103B3000F5E74FF48030FDF7C7FF5821B0FBF1F6F1
:103B400046B11448B0FBF6F000F101084046FCF71E
:103B5000C1FF02E00220FCF7BDFF204600F0B0FFED
:103B600005463DB1012084F83000606B2843606356
:103B70000120D4E7204600F02DFF05463DB101208D
:103B800084F83000606B284360630120C7E70020A1
:103B9000C5E70000102101002DE9FF4F89B0044660
:103BA00089469846FDF7C8F80290DDF82CB04D46DE
:103BB000B9F1000F07D1606B40F000606063012035
:103BC0000DB0BDE8F08F94F8300001287ED10020C0
:103BD00060630BEB0801206D814205D9606B40F0FA
:103BE000007060630120EBE7032084F830000020C0
:103BF0002168C862A06B012801D04FEA4B2B4FF41B
:103C000000712068FCF7A1FC06464EB17748216898
:103C10008863606B30436063012084F83000CFE735
:103C20004FF0FF3003904FEA482004909020059019
:103C30000220069000200790089003A92068FCF756
:103C400089FC2068C06840F040002168C860B8F175
:103C5000010F07D90220E06259462068FCF77FFC7B
:103C6000064606E00120E06259462068FCF77CFC2D
:103C7000064666B15D4821688863606B30436063C7
:103C8000012084F830000020E062012098E7DDF890
:103C900010A03AE02068406B00F40040F0B1BAF1A7
:103CA000200F1BD30020019013E02068FCF761FC7B
:103CB00007462F706D1C380A28706D1C380C287050
:103CC0006D1C380E28706D1C019800E087E0401CC8
:103CD000019001980828E8D3AAF1200AFDF72CF8F2
:103CE0000299411A1698814201D2169868B93F4844
:103CF00021688863606B40F000406063012084F8B5
:103D000030000020E06203205AE72068406B00F496
:103D100095700028BED02068C06820F0400021685F
:103D2000C8602068406B00F48070B8B1B8F1010F32
:103D300014D9A06B032811D02068FCF71FFC06469D
:103D400066B12A4821688863606B30436063012054
:103D500084F830000020E062012031E72068406BE9
:103D600000F0080068B1214821688863606B40F06A
:103D700008006063012084F830000020E062012028
:103D80001EE72068406B00F0020068B11748216808
:103D90008863606B40F002006063012084F83000AB
:103DA0000020E06201200BE72068406B00F020005B
:103DB00068B10E4821688863606B40F02000606342
:103DC000012084F830000020E0620120F8E6084875
:103DD00021688863012084F830000020F0E6606BE1
:103DE00040F0005060630120EAE60000FF0FE01F92
:103DF0003A0F00182DE9F04F89B0044688469346E3
:103E00001F46FCF799FF0290DA464646B8F1000FCC
:103E100007D1606B40F000606063012009B0BDE82D
:103E2000F08F94F8300001287ED1002060630AEB07
:103E30000701206D814205D9606B40F0007060631E
:103E40000120EBE7032084F8300000202168C862DD
:103E5000A06B012801D04FEA4A2A4FF40071206874
:103E6000FCF773FB05464DB1794821688863606BA8
:103E700028436063012084F83000CFE74FF0FF3023
:103E800003907802049090200590002006900790FF
:103E9000089003A92068FCF75DFB2068C06840F02B
:103EA00040002168C860012F07D92020E0625146F8
:103EB0002068FCF768FB054606E01020E0625146EA
:103EC0002068FCF765FB054665B161482168886399
:103ED000606B28436063012084F830000020E062BA
:103EE00001209BE7DDF8109043E02068406B00F470
:103EF000804040B3B9F1200F25D3002001901DE090
:103F000030780090761C3078009941EA00200090CB
:103F1000761C3078009941EA00400090761C307899
:103F2000009941EA006000E08CE00090761C694650
:103F30002068FCF732FB0198401C0190019808288A
:103F4000DED3A9F12009FCF7F7FE0299411A129875
:103F5000814201D2129860B93D4821688863606B44
:103F600028436063012084F830000020E0620320D1
:103F700054E72068406B00F48D700028B5D02068AD
:103F8000C06820F040002168C8602068406B00F4E1
:103F90008070B0B1012F14D9A06B032811D0206814
:103FA000FCF7ECFA054665B1294821688863606B27
:103FB00028436063012084F830000020E062012083
:103FC0002CE72068406B00F0080068B120482168A9
:103FD0008863606B40F008006063012084F8300063
:103FE0000020E062012019E72068406B00F0020029
:103FF00068B1174821688863606B40F00200606315
:10400000012084F830000020E062012006E72068EB
:10401000406B00F0100068B10D4821688863606B48
:1040200040F010006063012084F830000020E0625E
:104030000120F3E6074821688863012084F83000F6
:104040000020EBE6606B40F0005060630120E5E685
:10405000FF0FE01F3A0F0018042808D14FF0E021AD
:10406000096941F004014FF0E022116107E04FF0CF
:10407000E021096921F004014FF0E022116170474D
:1040800070B504462546681EB0F1807F01D301203B
:104090000FE0681E4FF0E02148610F214FF0FF3024
:1040A00000F01AFF00204FF0E0218861072008612E
:1040B000002070BD10B586B004462B4920688842A8
:1040C00050D100BF00BF2948006840F010002749C8
:1040D00008600846006800F01000009000BF00BFB4
:1040E00000BF00BF00BF21481038006840F0010049
:1040F0001E49103908600846006800F00100009071
:1041000000BF00BF00BF00BF00BF0846006840F00E
:10411000010008600846006800F00100009000BF40
:1041200000BF00BF4FF400700190022002900120F8
:104130000390022004900720059001A90C48FCF789
:10414000D9FC4FF4806001900720059001A9084830
:10415000FCF7D0FC2520FCF7C2FE032211462520E7
:10416000FCF7CDFE06B010BD00100140F04402582F
:10417000000002581D4A0168914236D11C49098845
:1041800001F4004189BB1A49098801F4804171B1E9
:10419000184909780A2903D00021154A118024E022
:1041A0001349098841F40041114A11801DE0114969
:1041B00009780D2906D10E49098841F480410C4A3D
:1041C000118012E00B490978094A1288C2F30D02E6
:1041D000094B995406490988491C054A1180114622
:1041E0000988C72901DD00211180704700100140B6
:1041F0001C0000241E000024C803002400BFFEE7AA
:10420000704710B54B6A33B1B2F1406F03D08B6A7F
:104210005B1E046823618B69002B76D00B6AE3B3C5
:104220008B680468E361CB69FBB1D1E90B342343AC
:104230004C6B23434C6A23438C8A43EA84430C69C6
:1042400023430C6A2343CC682343CC6923438C6902
:1042500023430C682343134304686361B2F1406F46
:1042600002D04B680468A361BEE0D1E90B3423435C
:104270004C6B23434C6A23438C8A43EA84430C6986
:1042800023430C6A2343CC6923438C6923430C6882
:104290002343134304686361A6E0FFE7CB69EBB1F6
:1042A000D1E90B3423434C6B23434C6A23438C8A60
:1042B00043EA84430C6A2343CC682343CC692343F9
:1042C0008C6923430C682343134304686361B2F190
:1042D000406FC9D04B680468A36185E0D1E90B3415
:1042E00023434C6B23434C6A23438C8A43EA844325
:1042F0000C6A2343CC6923438C6923430C68234312
:104300001343046863616FE0FFE70B6AC3B38B6814
:104310000468E361CB69EBB1D1E90B3423434C6B07
:1043200023434C6A23438C8A43EA84430C69234326
:104330000C6A2343CC682343CC6923438C69234311
:10434000134304686361B2F1406F4DD04B68046859
:10435000A36149E0D1E90B3423434C6B23434C6AFE
:1043600023438C8A43EA84430C6923430C6A234326
:10437000CC6923438C69234313430468636133E0AE
:10438000FFE7CB69DBB1D1E90B3423434C6B23430B
:104390004C6A23438C8A43EA84430C6A2343CC68E7
:1043A0002343CC6923438C6923431343046863612B
:1043B000B2F1406F18D04B680468A36114E04B6AF7
:1043C00093B1D1E90B3423434C6B23434C6A234311
:1043D0008C8A43EA84430C6A2343CC6923438C6967
:1043E000234313430468636110BD2DE9F041044683
:1043F0000E4617469846069D12E0681C80B1FCF7F1
:104400009BFCA0EB0800A84200D84DB9042084F81A
:104410004100606C40F0010060640120BDE8F08163
:1044200020688068304008B1012000E00020B842D8
:10443000E3D10020F2E700002DE9F04104460E46EA
:1044400000275548006800F00300032802D101202E
:10445000BDE8F08150482838006820F080604E495F
:1044600028390860FCF768FC054606E0FCF764FCA8
:10447000401B022801D90320EAE747482838006892
:10448000C0F3C0600028F1D100BF4348006820F4A9
:104490007C30216840EA01303F490860A088401E16
:1044A000C0F30800A168491E4FF47E4202EA412190
:1044B0000843A189491ED20102EA01410843217C37
:1044C000491E120202EA01610843334910310860B3
:1044D00000BF3148001D006820F0C000616908433A
:1044E0002D49091D08600846006820F02000A169D8
:1044F00008432949091D08600846006820F010009B
:1045000008602548143000684FF6F8718843E16967
:1045100040EAC1002049143108601F48001D0068AE
:1045200040F010001C49091D08602EB908460068BB
:1045300040F40020086012E0012E08D11648001D4A
:10454000006840F480101449091D086007E0124813
:10455000001D006840F400100F49091D08600E4856
:104560002838006840F080600B4928390860FCF763
:10457000E3FB054606E0FCF7DFFB401B022801D900
:10458000032065E7044828380068C0F3C0600028AD
:10459000F1D038465CE70000284402582DE9F0418C
:1045A00004460E4600275548006800F00300032823
:1045B00002D10120BDE8F08150482838006820F081
:1045C00080504E4928390860FCF7B6FB054606E0E6
:1045D000FCF7B2FB401B022801D90320EAE7474859
:1045E00028380068C0F340700028F1D100BF43486C
:1045F000006820F07C70218840EA01503F49086043
:10460000A088401EC0F30800A168491E4FF47E42F6
:1046100002EA41210843A189491ED20102EA01416F
:104620000843217C491E120202EA01610843334912
:104630001831086000BF3148001D006820F4406058
:10464000616908432D49091D08600846006820F487
:104650000070A16908432949091D086008460068DF
:1046600020F48070086025481C3000684FF6F8710F
:104670008843E16940EAC10020491C3108601F48B5
:10468000001D006840F480701C49091D08602EB9A7
:104690000846006840F48000086012E0012E08D14E
:1046A0001648001D006840F400001449091D086008
:1046B00007E01248001D006840F080700F49091D96
:1046C00008600E482838006840F080500B492839AF
:1046D0000860FCF731FB054606E0FCF72DFB401BAC
:1046E000022801D9032065E7044828380068C0F390
:1046F00040700028F1D038465CE70000284402589A
:1047000010B50023234C236000BF00BF00BFBFF3E0
:104710004F8F00BF00BF00BF231F1868C0F34E318A
:1047200000BFC0F3C90200BF43F6E07303EA4113C0
:104730004FF0404404EA82742343174C236000BFC7
:1047400000BF131EA2F10102EED10B1EA1F1010167
:10475000E7D100BF00BF00BFBFF34F8F00BF00BF56
:1047600000BF0C4B703B1B6843F48033094C703C1A
:10477000236000BF00BF00BFBFF34F8F00BF00BF6B
:1047800000BF00BF00BF00BFBFF36F8F00BF00BFFF
:1047900000BF10BD84ED00E060EF00E000BF00BF8F
:1047A00000BFBFF34F8F00BF00BF00BF00BF00BFFF
:1047B00000BFBFF36F8F00BF00BF00BF00201449D0
:1047C000086000BF00BF00BFBFF34F8F00BF00BF36
:1047D00000BF00BF00BF00BFBFF36F8F00BF00BFAF
:1047E00000BF0C48006840F400300A49086000BF70
:1047F00000BF00BFBFF34F8F00BF00BF00BF00BFAF
:1048000000BF00BFBFF36F8F00BF00BF00BF704786
:1048100050EF00E014ED00E010B500231B4C2360C6
:1048200000BF00BF00BFBFF34F8F00BF00BF00BF7E
:10483000231F1868C0F34E3100BFC0F3C90200BF88
:1048400043F6E07303EA41134FF0404404EA8274F4
:1048500023430F4C236000BF00BF131EA2F10102CF
:10486000EED10B1EA1F10101E7D100BF00BF00BFD7
:10487000BFF34F8F00BF00BF00BF00BF00BF00BF2E
:10488000BFF36F8F00BF00BF00BF10BD84ED00E01D
:1048900060EF00E02DE9F04389B004460F46FCF7D5
:1048A0004BFA81464FF000080020019002903E46EE
:1048B00008212068FBF749FE05461DB1284609B0CE
:1048C000BDE8F0834422125B11042068FBF76AFE06
:1048D00005460DB12846F2E74FF0FF30039008205F
:1048E00004903020059002200690002007900120BF
:1048F000089003A92068FBF72DFE2068FBF757FE00
:1049000005460DB12846DAE71AE02068406B00F44E
:10491000002060B9B8F1000F09D12068FBF729FE2B
:1049200001902068FBF725FE029008F10108FCF7D2
:1049300003FAA0EB0900401C10B94FF00040BEE79D
:104940002068406B40F22A5108400028DDD02068E2
:10495000406B00F0080018B1082021688863AEE7BA
:104960002068406B00F0020018B1022021688863C3
:10497000A5E72068406B00F0200018B120202168D6
:1049800088639CE7124821688863029800060299B0
:1049900001F47F4140EA0120029901F47F0140EADD
:1049A0001120029940EA11603060361D019800061E
:1049B000019901F47F4140EA0120019901F47F014E
:1049C00040EA1120019940EA11603060002076E74A
:1049D0003A0F001830B58DB00446012001902068D0
:1049E000FBF7EAFD18B94FF080600DB030BDA06B49
:1049F00003281AD02068FBF7E4FD05460DB12846D0
:104A0000F3E700212068FBF7E1FDE0660421206860
:104A1000FBF7DCFD206708212068FBF7D7FD606706
:104A20000C212068FBF7D2FDA067A06B032807D0FC
:104A300001A92068FBF7CFFD05460DB12846D4E754
:104A4000A06B032820D0BDF8041061644422125BDF
:104A500011042068FBF7C4FD05460DB12846C4E7E4
:104A600000212068FBF7B2FDE06504212068FBF718
:104A7000ADFD206608212068FBF7A8FD60660C21CB
:104A80002068FBF7A3FDA06604212068FBF79EFDCC
:104A9000010D216402A92046FEF768FE10B14FF017
:104AA0008050A2E74420005B01040A4600232068EE
:104AB000FBF79BFD05460DB1284696E7002094E7DD
:104AC000F8B5044600200090002600272068FBF778
:104AD00091FD05460DB12846F8BD2068FBF78FFD16
:104AE000054645B10021E1632068FBF783FD0546DB
:104AF0001DB12846F0E70121E163E06B012808D1F0
:104B000000212068FBF74EFD054615B14FF080509F
:104B1000E2E71DE000212068FBF744FD05460DB1EA
:104B20002846D9E716492068FBF76EFD054615B102
:104B30004FF08050D0E700212068FBF747FD064684
:104B4000012080EAD67080F001070098401C009098
:104B50004FF6FF710098884201D2002FDAD04FF64D
:104B6000FF710098884202D34FF08070B4E706F0DE
:104B70008040B0F1804F01D10120A0630020ABE75D
:104B8000000010C12DE9F04387B004460F46FCF742
:104B9000D3F880463E4600212068FBF717FD00F061
:104BA0000070B0F1007F04D14FF4006007B0BDE8A1
:104BB000F08340212068FBF7C8FC05461DB1606BFF
:104BC00060632846F2E74422125B11042068FBF779
:104BD000E9FC05461DB1606B60632846E6E74FF0CF
:104BE000FF3001904020029060200390022004904A
:104BF000002005900120069001A92068FBF7AAFC7F
:104C00002068FBF706FD05461DB1606B6063284612
:104C1000CCE71AE02068406B00F4004060B14FF030
:104C2000000906E02068FBF7A4FC3060361D09F19E
:104C30000109B9F1080FF5D3FCF77EF8A0EB0800E5
:104C4000401C10B94FF00040B0E72068406B00F402
:104C500095700028DED02068406B00F0080008B195
:104C60000820A3E72068406B00F0020008B1022092
:104C70009CE72068406B00F0200008B1202095E7F9
:104C80000DE02068FBF775FC3060361DFCF754F82A
:104C9000A0EB0800401C10B94FF0004086E72068E8
:104CA000406B00F480500028EBD1024821688863F3
:104CB00000207BE73A0F001870B504460D4615B981
:104CC0004FF0006070BD4422125B11042068FBF7B6
:104CD000A5FC06460EB13046F4E700212068FBF73C
:104CE00075FC28600020EDE77CB5044600200090AC
:104CF000019000212068FBF769FC00F00070B0F122
:104D0000007F02D14FF400607CBD69462046FFF76A
:104D1000C1FD05460DB12846F6E7019800F4803044
:104D200098B14422125B11042068FBF73BFC054656
:104D30000DB12846E8E700212068FBF774FC054622
:104D40000DB12846E0E70020DEE74FF08060DBE7AA
:104D50007CB5044600200090019000212068FBF7FC
:104D600035FC00F00070B0F1007F02D14FF400601C
:104D70007CBD69462046FFF78DFD05460DB12846EE
:104D8000F6E7019800F4802098B14422125B1104E8
:104D90002068FBF707FC05460DB12846E8E702212D
:104DA0002068FBF740FC05460DB12846E0E70020EF
:104DB000DEE74FF08060DBE710B5FBF7C3FF01F0E3
:104DC0005FFA012801D0FBF733FC10BD24480068CE
:104DD00040F47000224908602248006840F0010059
:104DE0002049086000201F49103108601D480068F4
:104DF0001D4908401B49086000201A491831086005
:104E0000091D0860091D0860164928310860091D40
:104E10000860091D0860091D0860091D0860091D5A
:104E20000860091D0860091D08600E48006820F42C
:104E300080200C49086000200A49603108600B4856
:104E400000686FF30F00B0F1005F02D20120084943
:104E500008604FF000600249803908607047000028
:104E600088ED00E0004402587FEDF6EA0010005C97
:104E70000881005170B500240F4D1048FBF7DDFB91
:104E800000BF03E0641CAC4200D904E00B48FBF710
:104E9000D9FB2028F6D100BF002403E0641CAC42FB
:104EA00000D906E0012206490448FBF7D0FB0028A0
:104EB000F4D100BF70BD0000FFFF0100900400248A
:104EC0001E00002400BFFEE702480068C0F3022075
:104ED000704700000CED00E010B5002804DB0A0765
:104EE000130E054A135406E00A07140E034A00F095
:104EF0000F031B1FD45410BD00E400E018ED00E0C8
:104F000000BF704770B504460420FFF7A5F80A48B3
:104F1000046025464FF47A7045434FF0E020006965
:104F200040F002004FF0E021086108464561006949
:104F300040F00100086170BD1400002430B5044643
:104F4000002504E04FF47A7000F004F86D1CA542CF
:104F5000F8D330BD70B5034600224FF0E0267569E6
:104F60000D4E366803FB06F44FF0E026B16910E001
:104F70004FF0E026B06988420BD0884202D20E1A68
:104F8000324402E02E1A0E4432440146A24200D3BB
:104F900000E0EDE700BF70BD1400002400BF054A2B
:104FA000D26902F04002002AF9D0C2B2014B9A62E3
:104FB000704700000010014010B500F0D7FCFBF76F
:104FC000CDFE042302221146F02000F0CDFD4FF467
:104FD000F070FFF797FF4FF4E13000F079FEFBF738
:104FE0003BFBFBF73EFBFBF741FBFBF744FB0020E1
:104FF000FBF746FBFBF749FB002010BD10B504464C
:10500000240300F095F900F02DF9074800780021FD
:1050100041EA0010401DC2B20B462146202000F09C
:10502000F7FB00F01FF910BD8200002410B500242A
:1050300000BF1A48806800F020000028F9D14FF422
:1050400083701649486100BF1448806800F0020070
:105050000028F9D01148C06840F002000F49C8602C
:105060004FF6FF720021202000F066FC98B9EB2477
:1050700044F4807444F440640948007844EA0034FD
:1050800044F4404400BF44F4801444F0407444F0BD
:1050900040640248446100F079FC10BD00500052A9
:1050A0008200002410B5002400F06EFC00BF00BF99
:1050B00000BF00BF00BFBFF34F8F00BF00BF00BFE6
:1050C00000BF00BF00BFBFF36F8F00BF00BF00BFB6
:1050D00000201949086000BF00BF00BFBFF34F8F19
:1050E00000BF00BF00BF00BF00BF00BFBFF36F8F96
:1050F00000BF00BF00BF00BFFFF78EFB0F48006876
:1051000020F001000D4908600846006840F00200E8
:1051100008604FF6FF720021202000F00DFC0446CD
:105120003CB90020054948610846006840F001008C
:105130000860204610BD000050EF00E00050005213
:105140002DE9F04106460D4617460024A5F1E0453D
:1051500000F01AFC00BF03E0285D3055601C84B2EB
:10516000BC42F9DB00F012FCBDE8F08170B5002410
:105170000025FFF797FF044614B900F033F8054601
:10518000FFF754FF284670BD2DE9F04105460E4655
:1051900017460024FFF786FF044624B93A463146F5
:1051A000284600F069F8FFF741FF2046BDE8F0818E
:1051B00070B505460E46144609480078C02141EAFC
:1051C000001040F00C00401CC2B206233146EB2018
:1051D00000F01EFB2146284600F006FB70BD0000D3
:1051E0008200002438B500F0D7FA00236522194662
:1051F000902000F00DFB0221684600F0F5FA9DF8C2
:1052000001009DF8001040EA01244EF61870844217
:1052100002D1032001490870204638BD82000024D5
:1052200038B50446002000900025012C04D0022C43
:1052300004D0032C06D103E0052505E0352503E065
:10524000152501E0052500BF00BF002341221946B6
:10525000284600F0DDFA0121684600F0C5FA9DF805
:10526000000038BD10B500BF0120FFF7D9FF00F0E6
:1052700001000028F8D110BD2DE9F05F81460F46EE
:105280001646DFF8A8B04FEA1738C7F30B0ACAF57D
:105290008054A64200DC344644E04FEA08314FF423
:1052A00080525846FFF784FF002508E00AEB05000E
:1052B0001BF80000FF2800D003E0681C85B2A5425F
:1052C000F4DB00BFA54216DA4046FFF797FE002543
:1052D00007E019F8050005EB0A010BF80100681C4E
:1052E00085B2A542F5DB4FEA08314FF480525846AB
:1052F00000F026F804E022463946484600F020F83F
:10530000A64200D10FE008F101084FF0000AA144C5
:105310002744301B86B2B6F5805F02DD4FF480541F
:1053200000E03446B9E700BFBDE8F09F580600240E
:1053300010B5002301221946062000F069FA10BDBD
:105340002DE9F04107460E461446F0B2C0F58075CF
:10535000AC4200DC254612E02A463146384600F0D1
:1053600013F8AC4200D10BE02F442E44601B84B2F2
:10537000B4F5807F02DD4FF4807500E02546EBE751
:1053800000BFBDE8F081000070B505460E4614462A
:10539000FFF7CEFF09480078C02141EA0010401D08
:1053A000C2B200233146322000F032FA21462846AC
:1053B00000F0AEFAFFF756FF70BD00008200002437
:1053C0002DE9F04105460E46294807680020294985
:1053D000096881F8590027480068001DFBF75AF951
:1053E00050B92448006890F82C10012088402249C8
:1053F0000968814320480160681CD8B9D6B11F49AB
:1054000048681C49096888601A4982680968CA6046
:1054100018490968091D8268516016490968091D03
:105420008160164A134909684A6111460968491C96
:1054300011601AE07C190F4800684460BC4207D232
:105440000C480168091D0E480068FBF728F90CE0BC
:1054500008480168091D0B480068FBF720F90A4855
:105460000068844201D208480460BDE8F081000071
:10547000D0000024BC000024D4000024B05F01242C
:10548000C4000024C0000024EC00002410B5044631
:10549000FBF70AF931480068401C30490860304881
:1054A000006840B92E4804600846006801280DD104
:1054B00000F026F90AE02B48006838B9284800684F
:1054C000C06AE16A884201D825480460264800681D
:1054D000401C2549086008460068606494F82C1058
:1054E0000120884021490968084320490860E16A91
:1054F00001EB81011E4A02EB81014868A0608268CD
:10550000E260211D826851608160E16A01EB8101E6
:10551000174A02EB81026261E16A01EB8101144AE0
:1055200052F82110491CE26A02EB8202104B43F848
:105530002210FBF7BEF80B48006868B10848006805
:10554000C06AE16A884207D24FF08050094908607A
:10555000BFF34F8FBFF36F8F10BD0000CC0000244E
:10556000BC000024D8000024E8000024D40000245B
:10557000E05C012404ED00E010B516E0FBF794F8C0
:105580000C48C068C468201DFBF784F80A4800680E
:10559000401E0949086009480068401E0749086024
:1055A000FBF787F8204600F00BF804480068002855
:1055B000E4D110BD9C5F0124CC000024C80000246D
:1055C00010B50446206BFBF779F82046FBF776F818
:1055D00010BD000000BFFFF7CFFF0648006801289C
:1055E000F9D94FF0805004490860BFF34F8FBFF3E3
:1055F0006F8FF0E7E05C012404ED00E02DE9F05F3F
:1056000082460F4690469B460A9E0C9C4FEA8801B4
:10561000A522206BFBF757F8A8F10100216B01EBE5
:10562000800929F0070909F0070008B9012000E006
:10563000002028B94FF4587224A12DA0FBF748F898
:1056400087B1002507E0795D04F134004155785DAC
:1056500000B902E06D1C102DF5D300BF00214320DE
:10566000015502E0002084F83400202E01D20120F0
:1056700000E0002028B940F2973214A11CA0FBF7EB
:1056800027F8202E00D31F26E662E664002020655E
:10569000201DFBF722F804F11800FBF71EF8246127
:1056A000C6F12000A06164620020606584F85800A3
:1056B00084F859005A4651464846FBF713F82060D3
:1056C0000B9808B10B980460BDE8F09F2E2E5C2E5D
:1056D0002E5C4D6964646C6577617265735C4672BB
:1056E000656552544F535C7461736B732E63000095
:1056F0004572726F723A2025732C2025640D0A00C2
:1057000010B5002407E004EB84010F4A02EB81008E
:10571000FAF7EDFF641C202CF5D30C48FAF7E7FFED
:105720000B48FAF7E4FF0B48FAF7E1FF0A48FAF7EB
:10573000DEFF0A48FAF7DBFF04480949086004481D
:105740000849086010BD0000E05C0124605F01248E
:10575000745F0124885F01249C5F0124B05F0124F1
:10576000C0000024C400002409480068006808B98B
:10577000012000E0002020B14FF0FF300549086013
:1057800005E003480068C068006802490860704787
:10579000C0000024EC00002410B511481149086035
:1057A0000120486004210F4881601021C160480534
:1057B00090FAA0F0B0FA80F0401E0A4908614FF458
:1057C000007108484161012181610021C1610162CC
:1057D000FBF742FC08B9002010BD0120FCE70000E7
:1057E000005000525816002470B504460D46681E3D
:1057F00006490968086141F2883221460348FBF7EF
:1058000013FD08B9002070BD0120FCE758160024E4
:10581000F0B58FB007460D4614461E460197029517
:10582000069604F0030010B90020079013E004F07E
:105830000300012802D1000207900CE004F00300ED
:10584000022802D10002079005E004F003000328BB
:1058500001D100020790C4F3810010B90020089024
:1058600013E0C4F38100012802D1800208900CE00B
:10587000C4F38100022802D18002089005E0C4F33D
:105880008100032801D180020890C4F3011010B9EF
:105890000020049013E0C4F30110012802D100039A
:1058A00004900CE0C4F30110022802D1000304901C
:1058B00005E0C4F30110032801D100030490A009FE
:1058C00010B900200A9013E00120B0EB941F02D120
:1058D00000060A900CE00220B0EB941F02D10006F3
:1058E0000A9005E00320B0EB941F01D100060A9056
:1058F00000200E9009900C900D9041F2883201A981
:105900000248FBF757FB0FB0F0BD0000581600240B
:1059100070B504460D46681E06490968086141F2E3
:10592000883221460348FBF7F3FC08B9002070BD1C
:105930000120FCE75816002410B5034600240BE0B4
:1059400009488068184008B1012000E000200446A2
:105950008C4200D102E0521E002AF1D100BF0AB1F0
:10596000002010BD0120FCE70050005210B5FEF7EA
:1059700015FFFEF7C5FE0348006840F0040001492A
:10598000086010BD9CEF00E072B6704762B67047C9
:1059900030B587B00546002400BF6A48006840F073
:1059A0000200684908600846006800F002000190A3
:1059B00000BF00BF00BF0846006840F00800086054
:1059C0000846006800F00800019000BF00BF00BF5B
:1059D0000846006840F0100008600846006800F0C3
:1059E0001000019000BF00BF00BF56480C3800688F
:1059F00040F4804053490C3908600846006800F4C0
:105A00008040019000BF00BF402002900220039020
:105A100003200590012004900A20069002A94A481C
:105A2000FBF768F8042002900920069002A9464876
:105A3000FBF760F84FF4605002900920069002A92D
:105A40004248FBF757F8042002900920069002A96B
:105A50003F48FBF74FF83B486438006840F480400B
:105A60003849643908600846006820F480400860BE
:105A700000BF3848806800F020000028F9D136487F
:105A800034490860354848600846006840F0010025
:105A9000086000BF2F48806800F020000028F9D17E
:105AA0004FF483702B49486100BF2A48806800F09A
:105AB00002000028F9D02748C06840F002002549BC
:105AC000C86000BF2348806800F020000028F9D19A
:105AD0002049C861EB2444F4807444F44064A81C59
:105AE00044EA003444F4404400BF44F4801444F0D9
:105AF000407444F04064084644611948006820F44A
:105B000080301749086016487030006820F00100A6
:105B10001349703108600020091D08604FF01040E3
:105B2000091D08600F48091D086005200C497031E7
:105B300008600B48006840F480300949086007B0ED
:105B400030BD0000E044025800040258000C025826
:105B5000001002580050005210030001010218000A
:105B600024ED00E02D0003032DE9F041CCB0804688
:105B70000D4616461F4600245148006820F00400D8
:105B80004F49086000BF002001904E48006820F097
:105B900001004C4908600846006800F001000190CF
:105BA00047480C30006840F4404045490C310860DB
:105BB0000846006800F44040019000BF00BF00BFED
:105BC0003F480C30006800F40050B0F5005FF7D19A
:105BD000212031904FF48030329000203490389062
:105BE0000120379002203A90022131A88162CDF83D
:105BF000F480C56246638763002141640821016423
:105C000000218164FDF78CF904461CB101204CB0E1
:105C1000BDE8F0813F20449003204590002046904D
:105C2000082047904020499000014A904020489029
:105C30004B90042144A8FCF7A1FE04460CB10120BE
:105C4000E5E721480290082003904FF4DC710491AD
:105C500002210591069107910021089109910A916D
:105C6000022013902020149000201F9020904FF4C9
:105C70004010239002A8FCF7F1F804460CB1012073
:105C8000C5E70020FFF784FEFBF78AF90F4800689C
:105C900040F080000D49086000BF0C48F4300068F7
:105CA00040F002000949F43108600846006800F03D
:105CB0000200019000BF00BFFAF712FF0020A6E724
:105CC0000C4802582C0400580300040300440258F6
:105CD00010B5044609480A49086008464460002196
:105CE0008160C160016181610C214161FAF704FDAD
:105CF000012204490248FAF7AAFC10BD0010014035
:105D0000900400241E00002470B504460025ACB1A8
:105D10000F48006808B9012000E0002028B940F2CF
:105D200049520CA114A0FAF7D3FC00F0AFF90021FE
:105D30002046FFF745FB00F0DBFC05463DB94FF080
:105D4000805011490860BFF34F8FBFF36F8F70BD54
:105D5000F80000242E2E5C2E2E5C4D6964646C6568
:105D600077617265735C4672656552544F535C741B
:105D700061736B732E6300004572726F723A202557
:105D8000732C2025640D0A0004ED00E070B5054673
:105D9000FAF78AFC15B92F48006800E02846044647
:105DA000201DFAF777FC78B9E06A00EB80002A49F9
:105DB00051F8200040B994F82C1001208840274960
:105DC0000968814325480160A06A18B104F11800F0
:105DD000FAF760FC22480068401C214908601D4811
:105DE0000068844209D1211D1E48FAF78AFC1E482A
:105DF0000068401C1C49086006E01C480068401E02
:105E00001A490860FFF7B0FCFAF753FC1148006824
:105E1000844202D02046FFF7D3FB15480068C0B18A
:105E20000C480068844214D11248006808B9012067
:105E300000E0002028B940F2DC420FA117A0FAF7D9
:105E400047FC4FF0805019490860BFF34F8FBFF3F4
:105E50006F8F70BDBC000024E05C0124D4000024DE
:105E6000E80000249C5F0124C8000024CC0000242A
:105E7000D8000024F80000242E2E5C2E2E5C4D69E4
:105E800064646C6577617265735C467265655254D3
:105E90004F535C7461736B732E6300004572726FB5
:105EA000723A2025732C2025640D0A0004ED00E0D1
:105EB00003490968016003490968416070470000AF
:105EC000E4000024D000002401200149086070474C
:105ED000E000002470B504460D462CB940F61C4283
:105EE00007A110A0FAF7F4FB124801681831204608
:105EF000FAF7D5FB01212846FFF762FA70BD0000D2
:105F00002E2E5C2E2E5C4D6964646C657761726523
:105F1000735C4672656552544F535C7461736B7366
:105F20002E6300004572726F723A2025732C202573
:105F3000640D0A00BC00002470B504460E461546E8
:105F40002CB940F6524211A119A0FAF7C1FB6068C2
:105F50001B490968C8611A49826809680A621849B8
:105F600009681831826851601549096818318160E3
:105F7000134909688C622168491C21600DB14FF0FA
:105F8000FF3629463046FFF71BFA70BD2E2E5C2ED9
:105F90002E5C4D6964646C6577617265735C4672F2
:105FA000656552544F535C7461736B732E630000CC
:105FB0004572726F723A2025732C2025640D0A00F9
:105FC000BC0000241CB51C4800210B468022CDE9F2
:105FD00000101AA11B4800F023F90446012C02D13D
:105FE000FAF794FB0446012C17D100BF502072B67B
:105FF00080F31188BFF34F8FBFF36F8F62B600BF7E
:106000004FF0FF301049086001201049086000205F
:106010000F490860FAF77FFB0BE0601C08B1012014
:1060200000E0002028B94FF404620AA112A0FAF798
:106030004FFB154800681CBDF000002449444C4546
:1060400000000000D5550008EC000024D800002412
:10605000D00000242E2E5C2E2E5C4D6964646C658D
:1060600077617265735C4672656552544F535C7418
:1060700061736B732E6300004572726F723A202554
:10608000732C2025640D0A00F400002402480068E7
:10609000401C014908607047F800002410B51B48F7
:1060A000006818B101201A4908602DE00020184945
:1060B000086018480068B0FA80F0C0F11F0404EBD3
:1060C0008400154951F8200008B1012000E00020AB
:1060D00028B940F6024211A119A0FAF7F9FA04EB27
:1060E00084010D4A02EB810041684968416000F17A
:1060F000080142688A4202D14168496841604168AA
:10610000C968134A116000BF10BD0000F8000024E8
:10611000E0000024D4000024E05C01242E2E5C2E3C
:106120002E5C4D6964646C6577617265735C467260
:10613000656552544F535C7461736B732E6300003A
:106140004572726F723A2025732C2025640D0A0067
:10615000BC00002470B506460C462EB940F6FD4240
:106160001FA128A0FAF7B4FA2CB940F6FE421CA1F0
:1061700024A0FAF7ADFAFAF797FA26480268706891
:10618000131A2548006890F8590030B100202249C0
:10619000096881F8590001251EE02068401C08B9F3
:1061A000002519E01D4930680968884206D07068EA
:1061B000904203D80125002020600DE0206898421D
:1061C00007D92068C01A20603046FFF771FE00250D
:1061D00002E0002020600125FAF76BFA284670BD26
:1061E0002E2E5C2E2E5C4D6964646C657761726541
:1061F000735C4672656552544F535C7461736B7384
:106200002E6300004572726F723A2025732C202590
:10621000640D0A00D0000024BC000024E400002427
:106220002DE9FF4F85B0804689461746DDE912AB60
:10623000B800FAF775FA064656B15C20FAF770FA1C
:1062400004460CB1266304E03046FAF737FA00E062
:1062500000247CB10020CDE900ABCDE902403A46F4
:1062600049464046089BFFF7C9F92046FFF70EF95B
:10627000012501E04FF0FF35284609B0BDE8F08F59
:106280000549096809B9012005E00449096809B907
:10629000022000E000207047D8000024F80000240D
:1062A0000149086870470000D00000242DE9F04142
:1062B0004FF000085F48006800287DD15E48006804
:1062C000451C5D480560002D1DD15C4800680068D4
:1062D00008B9012000E0002028B940F6C72258A1E3
:1062E00060A0FAF7F5F95548076862480068534915
:1062F00008606048076060480068401C5E490860AC
:10630000FFF732FA00BF5D480068854277D300BFCF
:106310004A480068006808B9012000E0002020B168
:106320004FF0FF305549086068E044480068C06895
:10633000C4686668B54202D2504806605EE0606993
:10634000D4E902128A60D4E902214A60211D426820
:106350008A4201D1E1684160002262610168491E00
:106360000160A06A98B1A06AD4E907128A60D4E9F2
:1063700007214A6004F1180142688A4201D1216A6A
:1063800041600022A2620168491E016000BF94F8CA
:106390002C10012088403A490968084338490860B0
:1063A000E16A01EB8101374A02EB81014868A06094
:1063B0008268E260211D00E033E082685160816004
:1063C000E16A01EB81012F4A02EB81026261E16A1D
:1063D00001EB81012B4A52F82110491CE26A02EBC1
:1063E0008202284B43F822102749E06A0968C96AEB
:1063F00088428DD34FF001088AE700E000BF2248B1
:106400000068C06A00EB80001E4951F82000012896
:1064100001D94FF001081D48006808B14FF001088C
:1064200004E01B480068401C194908604046BDE86C
:10643000F0810000F8000024D0000024C0000024F7
:106440002E2E5C2E2E5C4D6964646C6577617265DE
:10645000735C4672656552544F535C7461736B7321
:106460002E6300004572726F723A2025732C20252E
:10647000640D0A00C4000024E4000024EC000024A1
:10648000D4000024E05C0124BC000024E0000024CF
:10649000DC00002470B505462C460026002D5ED099
:1064A00030480068844201D1012000E0002028B972
:1064B00041F24F022CA135A0FAF70AF9206D28B954
:1064C00041F2500228A131A0FAF702F9206D401ED6
:1064D0002065E16CE06A884241D0206D00283ED101
:1064E000201DFAF7D7F840B994F82C100120884005
:1064F0002A490968814329480160E06CE062E06A4A
:10650000C0F12000A06194F82C100120884023499C
:106510000968084321490860E16A01EB8101204ACA
:1065200002EB81014868A0608268E260211D8268F8
:1065300051608160E16A01EB8101194A02EB81023D
:106540006261E16A01EB8101154A52F82110491C90
:10655000E26A02EB8202124B43F822100126304617
:1065600070BD0000BC0000242E2E5C2E2E5C4D69F8
:1065700064646C6577617265735C467265655254DC
:106580004F535C7461736B732E6300004572726FBE
:10659000723A2025732C2025640D0A00D4000024B3
:1065A000E05C012470B50646F068C4682CB940F67A
:1065B00082423CA144A0FAF78BF8A06AD4E9071202
:1065C0008A60D4E907214A6004F1180142688A42CE
:1065D00001D1216A41600022A2620168491E016066
:1065E0003D48006800283DD16069D4E902128A6004
:1065F000D4E902214A60211D42688A4201D1E16842
:106600004160002262610168491E016094F82C100B
:106610000120884031490968084330490860E16A2F
:1066200001EB81012E4A02EB81014868A06082687B
:10663000E260211D826851608160E16A01EB8101A5
:10664000274A02EB81026261E16A01EB8101244A7F
:1066500052F82110491CE26A02EB8202204B43F8F7
:10666000221010E01F494868E0618268226204F14C
:1066700018018268516081601A4AA2621146096855
:10668000491C116000BF1849E06A0968C96A88425C
:1066900004D9012501201549086000E0002528469D
:1066A00070BD00002E2E5C2E2E5C4D6964646C65FE
:1066B00077617265735C4672656552544F535C74C2
:1066C00061736B732E6300004572726F723A2025FE
:1066D000732C2025640D0A00F8000024D400002447
:1066E000E05C0124885F0124BC000024E000002459
:1066F00070B5002400265048006828B940F6B3025F
:106700004EA157A0F9F7E4FFF9F7CEFF4A48006819
:10671000401E494908600846006800287ED1544858
:10672000006800287AD05BE05248C068C468A06A5C
:10673000D4E907128A60D4E907214A6004F11801FC
:1067400042688A4201D1216A41600022A262016846
:10675000491E01606069D4E902128A60D4E902210D
:106760004A60211D42688A4201D1E16841600022ED
:1067700062610168491E016094F82C100120884074
:106780003D49096808433C490860E16A01EB810121
:106790003A4A02EB81014868A0608268E260211DEC
:1067A000826851608160E16A01EB8101334A02EB4A
:1067B00081026261E16A01EB8101304A52F82110E5
:1067C000491CE26A02EB82022C4B43F822102C494E
:1067D000E06A0968C96A884202D301202949086031
:1067E0002448006808B9012000E0002000289BD060
:1067F0000CB1FEF7B9FF2448056865B100BFFFF78B
:1068000055FD10B101201F4908606D1E002DF6D105
:1068100000201D4908601B48006800E008E038B10E
:106820000126300719490860BFF34F8FBFF36F8F00
:10683000F9F73FFF304670BDF80000242E2E5C2E85
:106840002E5C4D6964646C6577617265735C467239
:10685000656552544F535C7461736B732E63000013
:106860004572726F723A2025732C2025640D0A0040
:10687000CC000024885F0124D4000024E05C0124C3
:10688000BC000024E0000024DC00002404ED00E053
:1068900010B500290AD00878002807D005487844A8
:1068A000F9F743FF002801D0002010BD02487844CA
:1068B00010BD00005A000000520000004FF0407070
:1068C000E1EE100A7047000000000102030401021B
:1068D00003040607080900001469000800000024EA
:1068E000C8030000D4020008706A0008C80300242E
:1068F00028FF0300300300081C00000043000000D4
:10690000F8FFFFFF0C0000000E0000000F00000069
:106910002E000000113C90D00304011B3210330103
:106920000122F833FFFF2205000D3C29D1039069B5
:10693000D503907DCB03901417EF02100B8D6F03DE
:106940009065700390C016322432303238422015E0
:10695000C05201241CE003307C12382CF00120844A
:106960000140023B1F1AAA01011402202D021E0140
:106970001EF85A1590F0041AFC041AE8041AEC04E4
:106980001AF4041AE4041E585B159060041A0804F3
:106990001A10041A4C041119041A50041A44041A47
:1069A00024041A3C041A30041A18042ED45D1590DD
:1069B0006C245112FF1FC8310490C832041A3304EA
:1069C0001A340429109904411A78201A78201A7868
:1069D000201B1C35082910990401AC0617D4C3B23A
:1069E000A16F1812ED590390C95603906D5703908B
:1069F000455803908D101AB90C1AF5041A1D101E73
:106A0000885F159090041A98041EF85D1590A008F0
:106A10001AA8041A8404411B186018190C1AE804F7
:106A20001AE0042AF01819141AC8081A08081AB823
:106A3000081A10081AD0081AB0041AC0041AD80488
:106A4000380C24E1049084851190749112482143FC
:106A500001021AA4107FCCA41290B8A818420813FF
:106A6000E7471B903B047213138003021C240000B1
:0200000490006A
:1000000066293EF00684642900F0B480782900F067
:10001000ED80732900F06986002070472D4B196828
:100020000868B0E8F04F80F30988BFF36F8F4FF096
:10003000000080F311887047000000000848006845
:10004000006880F308884FF0000080F3148862B6DF
:1000500061B6BFF34F8FBFF36F8F00DF00BF00BFEC
:1000600008ED00E0DFF80C00016841F47001016068
:10007000704700BF88ED00E0EFF30980BFF36F8F9A
:10008000144B1A681EF0100F08BF20ED108A20E9EB
:10009000F04F106009B44FF0500072B680F3118831
:1000A000BFF34F8FBFF36F8F62B601F0D5FA4FF0F9
:1000B000000080F3118809BC19680868B0E8F04FA7
:1000C0001EF0100F08BFB0EC108A80F30988BFF350
:1000D0006F8F7047BC000024EFF30580704700006D
:1000E0000FB4044910B503AA029800F003FE10BC37
:1000F0005DF814FB180000240FB41CB5074B06AACA
:100100007B4469460090059800F0C5FD00206946D3
:1001100000F0D4FD1CBC5DF814FB0000B90B00001E
:1001200070B50C460546012A05D02878800600D512
:10013000EA69002302E0012305E05B1C934202D23E
:10014000E05C0028F9D1A869E618C01AA861286AFD
:10015000184428622846AFF3008004E0D5E9012165
:1001600014F8010B9047B442F8D32846AFF300804F
:1001700070BD00002DE9F041064600241068752985
:10018000314616A510D0AFF30080002802DA4042B5
:1001900013A507E031688A0701D512A502E04907D7
:1001A00004D511A5012401E0AFF3008000210A224B
:1001B00006F1240709E0B0FBF2FCB0FBF2F302FB0E
:1001C0001C00303078541846491C0028F3D12346CF
:1001D0002A463046BDE8F04100F0EFBA00000000CA
:1001E0002D0000002B0000002000000070B5044628
:1001F0000D4621461068AFF300802188090502D51D
:100200000F4A7A4402E00E4A7A440E32002104F189
:10021000240305E000F00F060009965D5E54491CBA
:100220000028F7D120780023000704D5702D02D0D4
:1002300009B1022311322046BDE8704000F0BDBA7A
:10024000945715002DE9F05F894604464FF0000AE7
:10025000DFF874B1FB44C0F820A02046E16888476D
:10026000002874D0252806D0D4E901219047206ABF
:10027000401C2062F1E700265F462046E16888477F
:100280002028054607DB312D05D2781910F8200CFF
:1002900008B10643F1E7B00701D526F00406C4F81B
:1002A0001CA00027C4F818A02A2D09D0284604F065
:1002B000EEFA38B304EB8708303DC8F8185019E05F
:1002C00059F8041B204604EB87029161E1688847D6
:1002D000012F054618D1E069002820DA26F0200613
:1002E0001DE0D8F8180000EB800005EB4000303826
:1002F000C8F818002046E1688847054604F0C7FAA8
:100300000028EED1012F0AD02E2D08D12046E16819
:1003100088477F1C0546022F46F02006C4DBA069F3
:10032000002803DA404246F00106A061F00701D040
:1003300026F010066C2D0BD0682D09D04C2D39D02D
:100340006A2D35D0742D35D07A2D33D016E038E0B3
:10035000E1682F4620468847B842054609D16C2FF0
:1003600026D04FF48060E168064320468847054662
:1003700004E06C2F1AD04FF4807006430DB3A5F142
:100380004100192802D8203546F400664A4629461D
:10039000204626604E46FFF733FE80B101280BD081
:1003A000F61D26F0070000F1080956E74020E4E7B3
:1003B0008020D8E70020D6E706F104094DE728465B
:1003C00052E7206ABDE8F09F6A57150030B5054630
:1003D0000B462A4613F8014B12F8010B08B1A04254
:1003E000F8D01CB1002802D06D1CF1E7284630BDC2
:1003F00040EA010310B59B070FD1042A0DD310C8A2
:1004000008C9121F9C42F8D020BA19BA884201D9F3
:10041000012010BD4FF0FF3010BD1AB1D30703D03B
:10042000521C07E0002010BD10F8013B11F8014BF1
:100430001B1B07D110F8013B11F8014B1B1B01D10D
:10044000921EF1D1184610BD40EA0103024630B5B4
:100450009B0710D14FF0013400E008C208C91D1BF2
:100460009D4315EAC41FF8D013F0FF0102F8011BE9
:100470000DD01B0AF8E711F8013B002B02F8013BF5
:1004800005D011F8013B002B02F8013BF3D130BD40
:1004900010B5431C02E010F8011B71B18107FAD1BD
:1004A0004FF0013202C88C1A8C4314EAC211F9D001
:1004B000C01A0A0603D0C01E10BDC01A10BD0A041F
:1004C00001D0801E10BD0902FCD0401E10BD40EAC4
:1004D000010370B59B072ED14FF00136042A2AD3B1
:1004E00008C810C99D1B9D43121F15EAC61517D0D9
:1004F000D8B2E1B2401A50EA056110D198B2A1B267
:10050000401A50EA05410AD123F07F4024F07F4190
:10051000401A50EA052102D1180EA0EB146070BDFC
:10052000A342DBD018BA21BA884201D9012070BD9C
:100530004FF0FF3070BD0AB9002070BD10F8013BCC
:1005400011F8014B63B1A3420AD1521E08D010F832
:10055000013B11F8014B1BB1A34201D1521EEDD159
:10056000181B70BD421E12F8013F002BFBD111F881
:10057000013B002B02F8013BF9D17047032A40F2FE
:10058000308010F0030C00F0158011F8013BBCF135
:10059000020F624498BF11F801CB00F8013B38BF4D
:1005A00011F8013BA2F1040298BF00F801CB38BF5B
:1005B00000F8013B11F0030300F02580083AC0F079
:1005C000088051F8043B083A51F804CBA0E8081021
:1005D000F5E7121D5CBF51F8043B40F8043BAFF354
:1005E0000080D20724BF11F8013B11F801CB48BFAE
:1005F00011F8012B24BF00F8013B00F801CB48BFE4
:1006000000F8012B704710B5203AC0F00B80B1E81C
:100610001850203AA0E81850B1E81850A0E8185037
:10062000BFF4F5AF5FEA027C24BFB1E81850A0E840
:10063000185044BF18C918C0BDE810405FEA827C5A
:1006400024BF51F8043B40F8043B08BF7047D20771
:1006500028BF31F8023B48BF11F8012B28BF20F812
:10066000023B48BF00F8012B704702F0FF0343EA4A
:10067000032242EA024200F051BB4FF0000200B5F3
:10068000134694469646203922BFA0E80C50A0E8B5
:100690000C50B1F12001BFF4F7AF090728BFA0E863
:1006A0000C5048BF0CC05DF804EB890028BF40F82F
:1006B000042B08BF704748BF20F8022B11F0804F71
:1006C00018BF00F8012B70474FF0013C50F8042B85
:1006D00051F8043B9A4215D1A2EB0C03934313EA61
:1006E000CC130BD150F8042B51F8043B9A4209D19A
:1006F000A2EB0C03934313EACC13E7D04FF00000B6
:10070000704700BFD01A01BAB1FA81F101F01801A7
:1007100022FA01F0CB40C1F12001DBB2C0B2C01A15
:100720002CFA01F3D11A914311EAC311E6D17047B3
:1007300030B5B0F10A024FEA900E71F100034EEAB3
:10074000817EB0EB0E0061EB91014FEA101E4EEA84
:10075000017E10EB0E0041EB11114FEA102E4EEA14
:10076000016E10EB0E0041EB11214FEA104E4EEAE4
:10077000014E10EB0E0041EB1141401841F1000118
:100780004FEAD00040EA41704FEAD10110EB8005FA
:100790004FEA810444EA907444EB01046D1944EB80
:1007A0000404521BA3414FF0000348BF0A3200D596
:1007B00030BD401C41F1000130BD2DE9F0470D4630
:1007C00099469246044600F124080168880604D53B
:1007D000E06921F01001216000E00120A84201DD64
:1007E000471B00E00027A1697A1902EB0900081AEB
:1007F000A0612078C00602D42046AFF30080002616
:1008000008E0D4E901211AF806009047206A401C4C
:10081000761C20624E45F4DB2078C0060AD52046BF
:10082000AFF3008006E0D4E9012130209047206A30
:10083000401C2062381EA7F10107F4DC07E0D4E970
:10084000012118F805009047206A401C2062281EEC
:10085000A5F10105F3DC2046AFF300802078000607
:1008600002D50220BDE8F0870120FBE770472DE9A3
:10087000FF4F0C461E464FF0FF378BB0D2E9000108
:10088000DDF860800A908A46C1F30A5505B93D46F5
:10089000002108464FF00000BAF1000F00F44000BC
:1008A00005DA00EB80004FF4400101EA50004FEA06
:1008B0009059B9F1010F00DDB9460A9850EA4A0093
:1008C0000ED044F61050A5F2FF3545432F14B8F171
:1008D000000F1ED07542291E1EDDC9F100021CE06A
:1008E000B8F1010F4FF0000001D0302103E0F243D6
:1008F00005E02154401CB042FBDB304600220021C1
:1009000021540B99C1F80880C1E900200FB0BDE85F
:10091000F08FBD1B6D1CDEE74A4600DA694206A86F
:1009200000F05CFA06AB93E8070003AB83E807002E
:1009300050460A9900F0C8FA8DE80700A0F500506B
:100940001F3800900398002D0ADD42F21F014A462D
:100950000844002303A90390684600F031FD09E034
:10096000A0F500504A461F38002303A903906846AB
:1009700000F03BFD8DE807000004000C03D04FF0B1
:10098000FF30410800E01046B8F1000F03D000220C
:10099000009215461EE0751E05D4FFF7C9FE3032E1
:1009A00062556D1EF9D5B3460122084302D00022DC
:1009B0007F1C04E02078302801D100227F1E002A0D
:1009C000099784D01DE0112D07DAFFF7B1FE303210
:1009D00062556D1C50EA0102F5D1084302D000981F
:1009E000C8B10EE00021681E05E0235C625C635420
:1009F0002254401E491C8142F7DBAB46A81B401E17
:100A00000990002004F80B000B98099AC0F80880A0
:100A1000C0E9002B7AE711264FF0000857E72DE9CF
:100A2000F04F88460446D21D22F0070191B0D1E96B
:100A30000001CDE90A0103F048FE02460B98C00F01
:100A400001D02D2007E02068810701D52B2002E08E
:100A5000202101EAC000032A099001D0072A05DB02
:100A600003464146204600F079F90BE120788006E4
:100A700001D5E06900E00620B8F1650F814606D097
:100A8000B8F1660F18D0B8F1670F70D131E00020CF
:100A9000B9F1110F009001DB112301E009F101030D
:100AA0000AAA01A90CA8FFF7E2FEDDE90C700026F6
:100AB00009F10105834647E001204B4600904FF0C5
:100AC00000470AAA01A90CA8FFF7D1FEDDE90DB085
:100AD0000C995D46002610B909F101000D18B9EB1B
:100AE000050003D4C0F1FF3609F10105A5EB0900AB
:100AF0002BE0B9F1010F01DA4FF001090020B9F143
:100B0000110F0090484601DD112300E003460AAAB8
:100B100001A90CA8FFF7ABFEDDE90C704D460026DD
:100B20008346207800070AD4AB4500DA5D4601A869
:100B3000012D04DD411911F8011C302907D04F4562
:100B400002DA17F1040F04DA012082460FE06D1E6D
:100B5000EEE7002F02DCED1B3E4403E0781CA842C8
:100B600000DD7D1CB81B00F1010A4FF00047207822
:100B7000000703D4AA4501DB4FF0FF3A0021B7F18B
:100B8000004F0DF143088DF8431024D002202B2391
:100B9000002F01DA7F422D230A21021EA0F101005D
:100BA00000DC5FB197FBF1FC97FBF1F201FB1C7CD1
:100BB00017460CF1300C08F801CDEEE7A8F1010062
:100BC00003702188090501D5452100E06521A0F1C8
:100BD000010800F8011C09980FA9A1EB0807FF1DE7
:100BE00000B10120411901EBEA70A1693844081AEB
:100BF000401EA0612078C00602D42046AFF30080DA
:100C0000099828B1D4E901219047206A401C20624C
:100C10002078C00622D52046AFF300801EE0002ECB
:100C200004DBB34502DD01A8805D00E03020D4E99B
:100C300001219047206A401C2062761CAAF1010025
:100C40005FEA000A0AD100F00CFDC0680168405C50
:100C5000D4E901219047206A401C2062281EA5F19A
:100C60000105DCDC07E0D4E9012118F8010B90470D
:100C7000206A401C2062381EA7F10107F3DC2046E1
:100C8000AFF30080032011B041E6000001694A1C67
:100C900002610878704700B58FB0CDE901310021BD
:100CA000059105497944CDE9031011466846FFF7DF
:100CB000C9FA0FB000BD0000E5FFFFFF0A6802F8A7
:100CC000010B0A60704710B5436913B1AFF30080A0
:100CD00001E0FFF725FA012010BD127800F1240190
:100CE0000A7000224A700122EDE711684FF0FF32CE
:100CF000E9E70000074B70B50D467B44FFF7CBFFDB
:100D00000446284600F0DCF810B14FF0FF3070BD0B
:100D1000204670BD9F4200784FF000020429C0F0C9
:100D2000128010F0030C3FF4AAACCCF1040CBCF11F
:100D3000020F18BF00F8012BA8BF20F8022BA1EB6F
:100D40000C01FFF79CBC5FEAC17C24BF00F8012BBB
:100D500000F8012B48BF00F8012B70472DE9F04146
:100D60001F46044603260168072A01F4006004DBDD
:100D700008B116A505E016A503E008B115A500E029
:100D800015A521F010002060A069C01EA0610FB160
:100D9000401EA0612046AFF300804FB1D4E901218D
:100DA00038469047206A401C2062C01C206206E042
:100DB000206AFAE7D4E9012115F8010B9047761E65
:100DC000F8D22046AFF30080BDE8F0814E414E00DE
:100DD0006E616E00494E4600696E66002DE9F0476F
:100DE000814616468AB0354878440DC88DE80D0016
:100DF00032487844801C03AC0DC884E80D0041F6ED
:100E00009B300844372190FBF1F290FBF1F5A5F1FE
:100E1000800501FB12041B3C02D56442012000E066
:100E20000020DFF898A080460027FA44AAF1BE0A05
:100E30000EE0E0070AD03246684607EB470101237F
:100E40000AEB810100F0D1FA8DE8070064107F1CE5
:100E5000002CEED1194F7F44AE3F19E0E80715D0C2
:100E600007EB04100DF1180A90E80E008AE80E0056
:100E7000C068F04201D1981908903246012306A9B2
:100E800003A800F0B2FA03AB83E807006D10641CFE
:100E9000002DE3D14FF0010332466946B8F1000F4F
:100EA00003A802D000F08CFA01E000F09EFAC9E934
:100EB0000001C9F808200AB0BDE8F087644C1500AD
:100EC000007B00F0800070475FEA400C08BF91F0A3
:100ED000000F4FEA8C234FEAC12243EA51514FEAF7
:100EE0001C5018BF00F5F0404FEA300018BF41F029
:100EF00000415FEA6C5C00F02980BCF1FF3F08BF55
:100F000040F080407047130C06BF12044FF0100CE5
:100F10004FF0000C130E04BF12020CF1080C130F5B
:100F200004BF12010CF1040C930F04BF92000CF1EA
:100F3000020CD30F04BF52000CF1010C11464FF00C
:100F40000002A0F11F00A0EB0C00704711F0004F51
:100F500008BF704731F000413FF4D5AF0B0C06BF1E
:100F600009044FF0100C4FF0000C0B0E04BF0902E7
:100F70000CF1080C0B0F04BF09010CF1040C8B0FD2
:100F800004BF89000CF1020CCB0F04BF49000CF127
:100F9000010CCCF12003A0EB0C0022FA03F302FABF
:100FA0000CF241EA030100F10100704720F07F4C90
:100FB00080EA030023F07F47ACEB070303F57C5383
:100FC00000F0004003F1FF032DE980494FEA154B83
:100FD00009B44FEA144325EA0B4E24EA03480FF202
:100FE000042606EB132749083E785FEA320203FB2A
:100FF0000667C7F5000707FB06F64FEA54374FEAC6
:10100000D64606F1020607FB066CCCF1005C4FEAFF
:101010001C472CEA074C07FB06F40CFB06F504EB17
:1010200015464FEA961634BF00204FF000404FEAB5
:10103000D13706FB07FC4FEA1C4C0CFB0BF7D21B0D
:1010400003FB0CF761EB07010CFB0EF7B0EB07405D
:1010500072EB17420CFB08F734BFA2EB0742B2EB6E
:10106000074261EB17414FEA0C444FEA910706FB38
:1010700007FC4FEA1C4C0CFB0BF7B0EBC74072EBC4
:10108000573203FB0CF734BFA2EBC742B2EBC742A7
:1010900061EB57310CFB0EF7B0EBC70072EB5772E8
:1010A0000CFB08F734BFA2EBC702B2EBC70261EB3F
:1010B0005771039F4FEA816141EA921104EBCC041E
:1010C0004FEAD1374FEA826206FB07FC42EA9012F0
:1010D0004FEA80604FEA1C4C0CFB0BF7D21B03FB62
:1010E0000CF761EB07010CFB0EF7B0EB074072EB5E
:1010F00017420CFB08F734BFA2EB0742B2EB0742E2
:1011000061EB17414FEA8C554FEA910704EB9C24A1
:1011100006FB07FC4FEA1C4C0CFB0BF7B0EBC7407F
:1011200072EB573203FB0CF734BFA2EBC742B2EBB2
:10113000C74261EB57310CFB0EF7B0EBC70072EB07
:1011400057720CFB08F734BFA2EBC702B2EBC70221
:1011500061EB577115EB4C254FEA816141EA921121
:101160004FEA82624FEAD13742EA901206FB07FC4F
:1011700044F100044FEA80604FEA1C4C0CFB0BF773
:10118000D21B03FB0CF761EB07010CFB0EF7B0EB76
:10119000074072EB17420CFB08F734BFA2EB074283
:1011A000B2EB074261EB174115EB1C154FEA813199
:1011B00041EA92414FEA823242EA90424FEA80305D
:1011C0004FEA0C7644F1000448EA03434EEA0B4828
:1011D0004FF0000EB2EB080C71EB030724BF624620
:1011E00039464EEB0E0E4FF0000B001852414941AC
:1011F0004BEB0B0BB2EB080C71EB03077BF1000B15
:1012000024BF624639464EEB0E0E4FF0000B00181D
:10121000524149414BEB0B0BB2EB080C71EB03074E
:101220007BF1000B24BF624639464EEB0E0E51EAAD
:10123000020718BF46F0010616EB0E7655F10002C4
:1012400054F1000103D5BDE88901BDE80088BDE87F
:101250008901BDE80048B619524141EB0101A3F1F3
:101260000103704780807F7E7D7C7B7A79787776FA
:1012700076757473727171706F6E6E6D6C6C6B6A73
:101280006A69686867666665646463636261616011
:10129000605F5F5E5E5D5D5C5C5B5B5A5A5959588E
:1012A00058575756565555555454535352525251F8
:1012B000515050504F4F4F4E4E4D4D4D4C4C4C4B4E
:1012C0004B4B4A4A4A494949484848474747474695
:1012D00046464545454444444443434343424242D1
:1012E00042414141002B9C4630D477002BD01CB5A5
:1012F0004FEA370703B44FF010004FF01001BAF176
:10130000000F06D0BCF1000FDCBF40F0080040F039
:1013100008014FF000000FBCBDE810400BF1010BBD
:10132000BBF1010F08BF5FEA170722BF12F10102EC
:1013300011F101014FF0004143F1000300F00040C2
:1013400043EA00007047F9D35708D0E746EA06465B
:1013500013F1400F4FEA16461FDD13F1200FDFBFD8
:1013600016430A46002120335B42BED0C3F120075A
:1013700046EA064602FA07F74FEA164646EA070625
:10138000C3F1200722FA03F201FA07F721FA03F169
:101390004FF0000342EA0702A7E746EA020646EAE0
:1013A00006464FEA164646EA0106BCBF46EA06462E
:1013B000360C4FF000034FF000024FF0000194E7AD
:1013C0002DE9804C9A46934670B491E8380007C8DE
:1013D00031EA400C48BF34EA430C03D5FFF7E6FD81
:1013E000FFF780FFF0BCBDE8008C2DE9804C9A46E9
:1013F000934670B491E8380007C810F0804F08BFDA
:1014000013F0804F03D100F005F8FFF76BFFF0BC3D
:10141000BDE8008C20F07F4780EA030023F07F4C7A
:1014200007EB0C03A3F57C5300F00040A3F1FE038F
:1014300092F0000F00F0B38095F0000F00F077807D
:101440002DE901494FEA11404FEA144621EA0048CC
:1014500000FB06FC24EA064708FB06F607FB08F833
:1014600000FB07F718EB06484CEB164C4FEA124B03
:1014700018EB07484FEA15464CEB174022EA0B4E93
:101480000BFB06FC25EA06470EFB06F607FB0EFEE5
:101490000BFB07F71EEB064E4CEB164C4FF000060D
:1014A0001EEB074E4CEB174B18EB0B0840F10000FE
:1014B00018EB0E0B58EB000840F100008F1A4FF0AC
:1014C00000013CBFC943661B14BFB5EB040C0021EF
:1014D0003CBFC943F61B4FEA17444EEA8E0E27EA7B
:1014E00004454FEA1C4704FB07622CEA074C05FB46
:1014F00007F70CFB05F604FB0CFC16EB074642EB6A
:10150000174216EB0C4642EB1C421BEB060658EB4F
:101510000202414146EA9E0601D5BDE80189B6199D
:10152000524141EB0101A3F10103BDE801894FEAFA
:1015300014454FEA114724EA054621EA074C05FB0A
:1015400007F406FB07F70CFB06F105FB0CFC11EB9F
:10155000074144EB17444FEA124711EB0C4144EBAF
:101560001C4422EA074C05FB07F206FB07F70CFBBD
:1015700006F605FB0CFC16EB074642EB174216EB92
:101580000C4642EB1C456A1854F1000148BF7047F5
:10159000B619524141EB0101A3F10103704795F0E7
:1015A000000F37D04FEA11424FEA144721EA0246B2
:1015B00024EA074C02FB07F106FB07F70CFB06F4D5
:1015C00002FB0CFC14EB074441EB17414FEA1547B3
:1015D00014EB0C4441EB1C4125EA074C02FB07F5D8
:1015E00006FB07F70CFB06F602FB0CFC16EB0746A6
:1015F00045EB174516EB0C4645EB1C42121951F111
:10160000000148BF7047B619524141EB0101A3F1F7
:10161000010370474FEA14454FEA114724EA054693
:1016200021EA074C05FB07F106FB07F70CFB06F266
:101630004FF0000605FB0CFC12EB074241EB174193
:1016400012EB0C4251EB1C4148BF7047921841EB22
:101650000101A3F10103704746F29D0CC0F6000C96
:10166000604740F2C14CC0F6000C604740F6F52CD4
:10167000C0F6000C604740F60D5CC0F6000C6047F9
:1016800040F23D7CC0F6000C604744F2B50CC0F659
:10169000000C604740F61F5CC0F6000C604744F643
:1016A0003D7CC0F6000C604740F6395CC0F6000C8B
:1016B000604744F2751CC0F6000C604741F2154CBF
:1016C000C0F6000C604741F2696CC0F6000C604740
:1016D00041F6990CC0F6000C604740F2CB3CC0F6D6
:1016E000000C604742F6AD4CC0F6000C604742F675
:1016F000D14CC0F6000C604744F6557CC0F6000C97
:10170000604740F6FD4CC0F6000C604745F26D1C8A
:10171000C0F6000C604745F2411CC0F6000C604763
:1017200045F2891CC0F6000C604740F6D52CC0F687
:10173000000C604743F65B1CC0F6000C604745F6A2
:10174000095CC0F6000C604746F2A12CC0F6000C04
:10175000604746F2212CC0F6000C604745F6C57C78
:10176000C0F6000C604740F6716CC0F6000C604794
:1017700040F6156CC0F6000C604740F69D6CC0F654
:10178000000C604746F2954CC0F6000C604746F2EC
:10179000A55CC0F6000C604746F28D0CC0F6000C4C
:1017A000604746F2F16CC0F6000C604745F6C96C24
:1017B000C0F6000C604743F63D2CC0F6000C6047B5
:1017C00043F6351CC0F6000C604745F6891CC0F690
:1017D000000C604743F6993CC0F6000C604745F6A4
:1017E0008D1CC0F6000C604743F6F55CC0F6000C9B
:1017F000604745F68D5CC0F6000C604745F6397CC5
:10180000C0F6000C604746F2AD2CC0F6000C6047F5
:1018100046F2812CC0F6000C604745F6B16CC0F66C
:10182000000C604746F2551CC0F6000C604745F6B8
:10183000D56CC0F6000C604770B50446B3F5804F18
:1018400013D1D1E9000540EA05108D6840EA052072
:101850008D6928438D8940EA054054F82250064E90
:101860003540284344F8220003E06FF0704044F80C
:101870002200002070BD00000000F0CF30B502460D
:10188000086852F8200020F001000C6842F824009B
:101890008868082801D1402300E0002348681843E5
:1018A0008C682043CC6820430C6920434C6920435A
:1018B0008C692043CC6920430C6A20434C6A204346
:1018C0008C6A2043CC6A20430C6B20434C6B204332
:1018D0008C6B20430C6852F824400D4D2C40204363
:1018E0000C6842F82400086BB0F5801F07D1086827
:1018F00028B1106820F480100C6B20431060086839
:1019000018B110684C6B20431060002030BD0000FF
:101910008004C0FF30B50346D1E9000540EA051058
:101920008D6840EA05208D8940EA0545088A401EF9
:1019300045EA0055087D801E45EA00608D69284310
:10194000551C53F8255005F040452843551C43F8D5
:101950002500186800F48010B0F5801F0BD158687E
:1019600020F47004088A401E44EA0054586820F4A9
:10197000700020435860002030BD000010B586B0D4
:10198000044600BF4E48006840F480304C4908606F
:101990000846006800F48030009000BF00BF00BF20
:1019A00000BF47480C30006840F0040044490C3147
:1019B00008600846006800F00400009000BF00BF07
:1019C00000BF00BF00BF0846006840F00400086088
:1019D0000846006800F00400009000BF00BF00BF90
:1019E00000BF00BF0846006840F0040008600846D9
:1019F000006800F00400009000BF00BF00BF00BFFF
:101A000000BF0846006840F004000860084600680F
:101A100000F00400009000BF00BF00BF00BF00BF87
:101A20000846006840F0040008600846006800F0BE
:101A30000400009000BF00BF00BF00BF00BF084609
:101A4000006840F0080008600846006800F00800E0
:101A5000009000BF00BF00BF4FF4807001900220D3
:101A6000029001200390032004900C20059001A90E
:101A70001448FFF7FBFD4FF40070019001A91148D5
:101A8000FFF7F4FD4FF48060019001A90D48FFF7C6
:101A9000EDFD4FF40060019001A90A48FFF7E6FD53
:101AA0004FF48050019001A90648FFF7DFFD0420A4
:101AB000019001A90448FFF7D9FD06B010BD000050
:101AC000D444025800080258000C025870B504466D
:101AD0000E4615460CB9012070BD94F8450028B992
:101AE000002084F84400204600F028F804F10801A2
:101AF0002068FFF7C3FE3146A2682068FFF70AFF9F
:101B00002946E36AD4E90102FFF796FEA16820683E
:101B100050F8210040F00100A268216841F822003D
:101B20000548006840F0004003490860012084F83F
:101B300045000020D0E700000040005210B586B0FC
:101B4000044600BF2048006840F480501E490860E9
:101B50000846006800F48050009000BF00BF00BF3E
:101B600019480C30006840F0080017490C31086033
:101B70000846006800F00800009000BF00BF00BFEA
:101B80000846006840F0100008600846006800F051
:101B90001000009000BF00BF4CF2037001900220C3
:101BA000029001200390032004900C20059001A9CD
:101BB0000648FFF75BFD4FF68070019001A90448CD
:101BC000FFF754FD06B010BDD4440258000C025873
:101BD00000100258704770477047704710B50446B0
:101BE00020680069C0F34000D8B12068C068C0F325
:101BF0004000B0B16FF00200216808610120207739
:101C00002068806900F0030018B12046FFF7E5FF67
:101C100005E0204600F0BEF8204600F0BCF80020A9
:101C2000207720680069C0F38000D8B12068C068C0
:101C3000C0F38000B0B16FF0040021680861022099
:101C400020772068806900F4407018B12046FFF7C3
:101C5000C4FF05E0204600F09DF8204600F09BF808
:101C60000020207720680069C0F3C000D8B1206848
:101C7000C068C0F3C000B0B16FF00800216808610F
:101C8000042020772068C06900F0030018B12046C6
:101C9000FFF7A3FF05E0204600F07CF8204600F0A7
:101CA0007AF80020207720680069C0F30010D8B1CE
:101CB0002068C068C0F30010B0B16FF01000216858
:101CC0000861082020772068C06900F4407018B1CE
:101CD0002046FFF782FF05E0204600F05BF8204633
:101CE00000F059F8002020772068006900F001001A
:101CF00058B12068C06800F0010030B16FF00100F9
:101D000021680861204600F047F820680069C0F3A8
:101D1000C01058B12068C068C0F3C01030B16FF077
:101D20008000216808612046FFF755FF20680069A0
:101D3000C0F3002058B12068C068C0F3C01030B1B3
:101D40006FF48070216808612046FFF743FF206828
:101D50000069C0F3801058B12068C068C0F38010DB
:101D600030B16FF0400021680861204600F024F88F
:101D700020680069C0F3401058B12068C068C0F303
:101D8000401030B16FF02000216808612046FFF755
:101D900023FF10BD7047704710B5044604488442C5
:101DA00005D100BF40210348FFF765FC00BF10BD0F
:101DB000780500240010025870477047704770473C
:101DC00070470146D1F88030D1F8842043EA020000
:101DD000704700002DE9F04704462068C569206877
:101DE00006682068876840F60F0005EA0008B8F129
:101DF000000F0FD105F0200060B106F0200010B9EF
:101E000007F0805030B1E06E10B12046E16E884797
:101E1000BDE8F087B8F1000F7ED06E48384018B9A1
:101E20006D4830400028F7D005F0010058B106F4A5
:101E3000807040B1012021680862D4F8880040F029
:101E40000100C4F8880005F0020058B107F0010055
:101E500040B1022021680862D4F8880040F00400F4
:101E6000C4F8880005F0040058B107F0010040B143
:101E7000042021680862D4F8880040F00200C4F809
:101E8000880005F0080070B106F0200010B9514834
:101E9000384040B1082021680862D4F8880040F03A
:101EA0000800C4F8880005F4006060B106F08060A6
:101EB00048B14FF4006021680862D4F8880040F00F
:101EC0002000C4F88800D4F88800002844D005F029
:101ED000200050B106F0200010B907F0805020B16A
:101EE000E06E10B12046E16E8847D4F888902068F3
:101EF000806800F04000402802D009F0280028B394
:101F0000204600F0C3FE2068806800F040004028B2
:101F100018D12068806800E01FE020F040002168B0
:101F20008860A06F50B12D48A16F0865A06FFFF7C2
:101F3000A7FB88B1A06F016D88470DE02046FFF731
:101F40003FFF09E02046FFF73BFF05E02046FFF793
:101F500037FF0020C4F888005AE705F4801050B11C
:101F600007F4800038B14FF48010216808622046E1
:101F7000FFF725FF4CE705F0800058B106F0800020
:101F800010B907F4000028B1206F10B12046216F6E
:101F900088473DE705F0400030B106F0400018B139
:101FA000204600F087FE33E705F4000030B106F06C
:101FB000804018B12046FFF701FF29E705F0807047
:101FC00030B106F0004018B12046FFF7F6FE1FE7DB
:101FD00000BF1DE70100001020010004752C0090D7
:101FE00010B504460CB9012010BDA06900B100E095
:101FF00000BFD4F8800028B9002084F87C00204677
:10200000FFF743FB2420C4F880002068006820F01C
:10201000010021680860204600F080FF012800D1FF
:10202000E2E7A06A10B1204600F06EFD206840682B
:1020300020F49040216848602068806820F02A00E1
:10204000216888602068006840F00100216808600D
:10205000204600F0D5FDC7E710B50346D3F884004D
:10206000202874D101B10AB9012010BD00BF93F836
:102070007C00012801D10220F7E7012083F87C00D1
:1020800000BF9965A3F85C20A3F85E200020D86605
:1020900000BF9868B0F5805F0AD1186920B940F296
:1020A000FF10A3F8600020E0FF20A3F860001CE010
:1020B000986848B9186918B9FF20A3F8600014E0BF
:1020C0007F20A3F8600010E09868B0F1805F09D12C
:1020D000186918B97F20A3F8600006E03F20A3F834
:1020E000600002E00020A3F8600000BF0020C3F8F9
:1020F00088002220C3F884001868806840F001003E
:102100001C68A060586EB0F1005F21D1B3F8680080
:1021100090421DDC9868B0F5805F04D1186910B951
:102120001848D86601E01848D86600BF002083F838
:102130007C0000BF1868006840F480701C68206054
:102140001868806840F080501C68A06016E017E0B6
:102150009868B0F5805F04D1186910B90B48D8664B
:1021600001E00B48D86600BF002083F87C0000BF68
:102170001868006840F490701C682060002074E7C4
:10218000022072E7492D0090692E0090D72C009014
:10219000FD2D00907047000000BF0022402118482C
:1021A000FFF778FA00BF17A0FDF79AFF4FF47A7097
:1021B000FFF775FA19A0FDF793FF4FF47A70FFF758
:1021C0006EFA00BF00BF00BF00BF00BFBFF34F8F5C
:1021D00000BF00BF00BF1648006800F4E06015496A
:1021E0000843001D1249086000BF00BF00BFBFF3D5
:1021F0004F8F00BF00BF00BF00BF00BFFDE7000062
:10220000001002584D656D2041636365737320456E
:1022100072726F7221210D0A00000000536F667404
:10222000205265736574696E672E2E2E0D0A0000AC
:102230000CED00E00000FA0570B586B005460C46CE
:102240000194372002904FF4807003900020049096
:102250004FF48050059001A9284600F031FC41F26E
:1022600088323721284600F027FA0646304606B065
:1022700070BD70B586B005460C46019429200290C9
:102280004FF480700390002004904FF4805005902C
:1022900001A9284600F014FC284600F019FB064668
:1022A000304606B070BD70B586B005460C46019448
:1022B0001020029000010390002004904FF4805001
:1022C000059001A9284600F0FBFB41F2883210215D
:1022D000284600F0F1F90646304606B070BD70B5EC
:1022E00086B005460C460194062002904FF480709B
:1022F0000390002004904FF48050059001A92846D7
:1023000000F0DEFB41F288320621284600F0D4F9C5
:102310000646304606B070BD30B585B00446002094
:1023200000900190029003904FF480500490694611
:10233000204600F0C5FB204600F09CF905462846E3
:1023400005B030BD30B585B004464FF4D57000906F
:102350000820019040010290002003904FF480502B
:1023600004906946204600F0ABFB204600F03CFBA1
:102370000546284605B030BD70B586B005460C460A
:102380000194122002904FF480700390002004907A
:102390004FF48050059001A9284600F091FB41F2CE
:1023A00088321221284600F087F90646304606B0EA
:1023B00070BD70B586B005460C46019411200290A0
:1023C0004FF480700390002004904FF480500590EB
:1023D00001A9284600F074FB41F2883211212846F9
:1023E00000F06AF90646304606B070BDF0B585B01B
:1023F000064614461D460094072001904FF4807055
:102400000290002003904FF48050049069463046BB
:1024100000F056FB41F288320721304600F04CF9BB
:102420000746384605B0F0BD30B585B004460020FB
:102430000090022001904FF4407002900020039021
:102440004FF4805004906946204600F039FB204646
:1024500000F00AFA0546284605B030BD70B586B0D2
:1024600005460C460194092002904FF440700390F9
:10247000002004904FF48050059001A9284600F0F8
:102480001FFB284600F0F0F90646304606B070BD46
:1024900030B585B0044600200090332001904FF401
:1024A00080700290002003904FF4805004906946A1
:1024B000204600F005FB41F288323321204600F02F
:1024C000FBF80546284605B030BD70B586B0054618
:1024D0000C4601940D2002904FF480700390002070
:1024E00004904FF48050059001A9284600F0E8FAC6
:1024F00041F288320D21284600F0DEF806463046CB
:1025000006B070BD70B586B005460C46002001903F
:10251000032002904FF480700390002004904FF449
:102520008050059001A9284600F0CAFA22460321EE
:10253000284600F0FBF90646304606B070BD30B5BF
:1025400085B00446002000900D2001904FF480706B
:102550000290002003904FF480500490694620467A
:1025600000F0AEFA41F288320D21204600F0A4F8C6
:102570000546284605B030BD30B585B0044600207C
:1025800000900C2001904FF4807002900020039086
:102590004FF480500490E06840F08000E060E06814
:1025A00020F04000E0606946204600F089FA084AC1
:1025B0000C21204600F080F80546E06820F08000FD
:1025C000E060B5F1007F00D10025284605B030BDA0
:1025D00000E1F50570B586B005460C46019419205A
:1025E00002904FF480700390002004904FF48050CC
:1025F000059001A9284600F063FA41F288321921BA
:10260000284600F059F80646304606B070BD70B551
:1026100086B005460C460194182002904FF4807055
:102620000390002004904FF48050059001A92846A3
:1026300000F046FA41F288321821284600F03CF8B2
:102640000646304606B070BD10B502460023086845
:10265000506248689062D1E9020420430C6920432B
:102660004C6920430343D06A20F0FF001843D06236
:10267000002010BD01460E480068C0084FF47A7370
:10268000B0FBF3F041F2883300FB03F200BF101EF1
:10269000A2F1010202D14FF000407047486B00F0F8
:1026A00080000028F3D0034888630020F5E700008D
:1026B00000000024C50020002DE9F04305460F4628
:1026C000904666480068C0084FF47A71B0FBF1F09C
:1026D00000FB08F900BFB9F10000A9F1010903D11D
:1026E0004FF00040BDE8F0836E6B5D48304000283D
:1026F000F1D006F400500028EDD1686B00F0040022
:1027000010B10420A863EDE7686B00F0010010B180
:102710000120A863E6E752488030A863284600F00D
:1027200099F9B84201D00120DCE70021284600F0E9
:102730009AF904464B48204008B90020D2E704F03B
:102740000040B0F1004F02D14FF00070CAE704F032
:102750008040B0F1804F01D14020C3E704F0005029
:10276000B0F1005F01D18020BCE704F08050B0F1EF
:10277000805F02D14FF48070B4E704F00060B0F1E4
:10278000006F02D14FF40070ACE704F08060B0F14C
:10279000806F02D14FF48060A4E704F08070B0F144
:1027A000807F02D14FF400609CE704F40000B0F594
:1027B000000F02D14FF4805094E704F48000B0F58C
:1027C000800F02D14FF400508CE704F40010B0F5F4
:1027D000001F02D14FF4804084E704F48010B0F56C
:1027E000801F02D14FF400407CE704F48020B0F554
:1027F000802F02D14FF4003074E704F40030B0F5BC
:10280000003F02D14FF480206CE704F48030B0F533
:10281000803F02D14FF4002064E704F40040B0F59B
:10282000004F02D14FF480105CE704F48040B0F513
:10283000804F02D14FF4001054E704F40050B0F57B
:10284000005F02D14FF480004CE704F00800082834
:1028500001D1000546E74FF4803043E70000002433
:102860004500200008E0FFFD10B50146164800684D
:10287000C0084FF47A74B0FBF4F041F2883400FBE6
:1028800004F300BF181EA3F1010302D14FF0004072
:1028900010BD4A6B02F045000028F3D002F400504E
:1028A0000028EFD1486B00F0040010B104208863C9
:1028B000EEE7486B00F0010010B101208863E7E704
:1028C000024888630020E3E700000024C5002000E0
:1028D00010B5014613480068C0084FF47A74B0FB85
:1028E000F4F041F2883400FB04F300BF181EA3F19A
:1028F000010302D14FF0004010BD4A6B02F04500C9
:102900000028F3D002F400500028EFD1486B00F00B
:10291000040010B104208863EEE7034888630020B8
:10292000EAE7000000000024C50020002DE9F04384
:1029300004460F4690462A480068C0084FF47A7152
:10294000B0FBF1F041F2883100FB01F900BFB9F1B1
:102950000000A9F1010903D14FF00040BDE8F08368
:10296000666B06F045000028F1D006F40050002800
:10297000EDD1606B00F0040010B10420A063EDE71E
:10298000606B00F0010010B10120A063E6E7204673
:1029900000F060F8B84201D00120DFE71148A063E1
:1029A0000021204600F05FF8054605F4604020B99C
:1029B000280CA8F800000020D0E705F48040B0F50E
:1029C000804F02D14FF40050C8E705F40040B0F545
:1029D000004F02D14FF48050C0E74FF48030BDE784
:1029E00000000024C500200010B50146184800680A
:1029F000C0084FF47A74B0FBF4F041F2883400FB65
:102A000004F300BF181EA3F1010302D14FF00040F0
:102A100010BD4A6B02F045000028F3D002F40050CC
:102A20000028EFD1486B00F0040010B10420886347
:102A3000EEE7486B00F0010010B101208863E7E782
:102A4000486B00F0400008B1402088630020DFE7B9
:102A50000000002401460869C0B2704701460868BA
:102A600000F003007047024602F114004318186892
:102A7000704700000FB410B504460021DDE90302E1
:102A80001043059A1043069A1043079A10430143D6
:102A90006068044A104008436060002010BC5DF884
:102AA00014FB0000002CC0FF0146086840F0030042
:102AB0000860002070470146D1F880007047000090
:102AC00010B50246002308689060D1E90104204354
:102AD000CC6820430C6920430343D068024C20405B
:102AE0001843D060002010BDC0E0FEFF0246086819
:102AF000C2F880000020704710B50248FFF76EF85A
:102B000010BD00007805002490F8281001F00101A4
:102B100039B10168496821F40031C26A1143026881
:102B2000516090F8281001F00201022907D10168D4
:102B3000496821F48031026B11430268516090F8BA
:102B4000281001F00401042907D10168496821F423
:102B50008021426B11430268516090F8281001F007
:102B60000801082907D10168496821F40041826BF6
:102B700011430268516090F8281001F010011029EB
:102B800007D10168896821F48051C26B1143026842
:102B9000916090F8281001F02001202907D10168E8
:102BA000896821F40051026C11430268916090F829
:102BB000281001F04001402913D10168496821F42F
:102BC0008011426C114302685160416CB1F5801F65
:102BD00007D10168496821F4C001826C1143026881
:102BE000516090F8281001F08001802907D1016818
:102BF000496821F40021C26C11430268516070479A
:102C000038B504460020C4F88800FEF74DFD05469F
:102C10002068006800F0080008280CD16FF07E40A2
:102C20002B4600224FF400110090204601F0EEFCEC
:102C300008B1032038BD2068006800F004000428B3
:102C40000CD16FF07E402B4600224FF480010090A3
:102C5000204601F0DBFC08B10320EBE72020C4F89C
:102C60008000C4F8840000BF002084F87C0000BF0E
:102C700000BFDFE770B50546AC6B0020A4F85E002E
:102C8000A4F856002046FFF79BF870BD016809685C
:102C900021F490710268116001688968044A11404A
:102CA000026891602021C0F884100021C16670473D
:102CB000FEFFFFEF10B504462068006820F04000DA
:102CC000216808602020C4F880000020206720468A
:102CD000FFF760FA10BD2DE9F0410446B4F86070CA
:102CE000D4F88400222826D12068406A86B2A56DD7
:102CF00006EA07002880A06D801CA065B4F85E007D
:102D0000401EA4F85E00B4F85E00D0B920680068E8
:102D100020F49070216808602068806820F001002D
:102D2000216888602020C4F884000020E0662046E6
:102D3000FEF7BFFC05E02068806940F008002168CC
:102D40008861BDE8F08100002DE9F0470446B4F841
:102D50006090D4F88400222843D1B4F8685028E069
:102D60002068406A1FFA80F8A76D08EA09003880D9
:102D7000A06D801CA065B4F85E00401EA4F85E0043
:102D8000B4F85E0098B92068006820F4807021686B
:102D90000860206880681749084021688860202002
:102DA000C4F884000020E0662046FEF782FC681E1E
:102DB00085B2002DD4D1B4F85E60C6B1B4F8680015
:102DC000B04214DD2068806820F08050216888605F
:102DD0000948E0662068006840F02000216808602B
:102DE00005E02068806940F0080021688861BDE83E
:102DF000F0870000FEFFFFEFD72C009070B504466F
:102E0000B4F86060D4F88400222826D12068406A93
:102E100085B2F0B22840A16D0870A06D401CA0657D
:102E2000B4F85E00401EA4F85E00B4F85E00D0B9AD
:102E30002068006820F4907021680860206880682D
:102E400020F00100216888602020C4F88400002060
:102E5000E0662046FEF72DFC05E02068806940F022
:102E600008002168886170BD2DE9F0410446B4F87E
:102E70006080D4F88400222843D1B4F8685028E058
:102E80002068406A87B208F0FF003840A16D0870E2
:102E9000A06D401CA065B4F85E00401EA4F85E0062
:102EA000B4F85E0098B92068006820F4807021684A
:102EB00008602068806817490840216888602020E1
:102EC000C4F884000020E0662046FEF7F2FB681E8E
:102ED00085B2002DD4D1B4F85E60C6B1B4F86800F4
:102EE000B04214DD2068806820F08050216888603E
:102EF0000948E0662068006840F02000216808600A
:102F000005E02068806940F0080021688861BDE81C
:102F1000F0810000FEFFFFEFFD2D00902DE9F04F46
:102F200089B004464FF00009002007908346F94914
:102F30002068884200D100E000BF2169A0680843F2
:102F400061690843E16940EA010A606E40EA0A0AE1
:102F500020680068F049084040EA0A0021680860DB
:102F60002068406820F44050E168084321684860C8
:102F7000D4F818A0E7492068884202D0206A40EAC5
:102F80000A0A20688068E549084040EA0A0021688A
:102F900088602068C06A20F00F00616A08432168D9
:102FA000C86200BFDE492068884220D1DD48006841
:102FB00000F03800182811D005DC48B1082809D0E5
:102FC000102811D108E020280AD028280CD109E0C7
:102FD00001250BE0042509E0082507E0102505E0A0
:102FE000202503E0402501E0802500BFF8E0CE4920
:102FF0002068884219D1CB48006800F007000628F5
:1030000010D2DFE800F0030507090B0D00250BE0E7
:10301000042509E0082507E0102505E0202503E048
:10302000402501E0802500BFDAE0C04920688842E1
:1030300019D1BC48006800F00700062810D2DFE86C
:1030400000F0030507090B0D00250BE0042509E03E
:10305000082507E0102505E0202503E0402501E0D4
:10306000802500BFBCE0B2492068884219D1AD4834
:10307000006800F00700062810D2DFE800F0030522
:1030800007090B0D00250BE0042509E0082507E0E2
:10309000102505E0202503E0402501E0802500BF44
:1030A0009EE0A4492068884219D19E48006800F03B
:1030B0000700062810D2DFE800F0030507090B0D12
:1030C00000250BE0042509E0082507E0102505E0B0
:1030D000202503E0402501E0802500BF80E09649DF
:1030E0002068884220D18F48006800F038001828F6
:1030F00011D005DC48B1082809D0102811D108E00A
:1031000020280AD028280CD109E001250BE004254D
:1031100009E0082507E0102505E0202503E040250B
:1031200001E0802500BF5BE084492068884219D116
:103130007C48006800F00700062810D2DFE800F0A5
:10314000030507090B0D00250BE0042509E0082500
:1031500007E0102505E0202503E0402501E080255B
:1031600000BF3DE076492068884219D16D4800686B
:1031700000F00700062810D2DFE800F00305070979
:103180000B0D00250BE0042509E0082507E01025BC
:1031900005E0202503E0402501E0802500BF1FE079
:1031A0005C49206888421AD15E48001D006800F022
:1031B0000700062810D2DFE800F0030507090B0D11
:1031C00002250BE0042509E0082507E0102505E0AD
:1031D000202503E0402501E0802500BF00E0802598
:1031E00000BF4C492068884271D1102D70D006DC98
:1031F000022D09D0042D49D0082D6AD1A6E0202D3A
:1032000068D0402DF9D1B3E1FEF758FA616A09B9E7
:10321000012138E0616A012901D1022133E0616AAC
:10322000022901D104212EE0616A032901D106217E
:1032300029E0616A042901D1082124E0616A052995
:1032400001D10A211FE0616A062901D10C211AE08F
:10325000616A072901D1102115E0616A082901D1AD
:10326000202110E0616A092901D140210BE0616A47
:103270000A2901D1802106E0616A0B2902D14FF4AD
:10328000807100E00121B0FBF1FBB6E104A8FEF77C
:103290001AFA0598616A09B9012154E0616A0129A5
:1032A00001D102214FE0616A022901D104214AE0E3
:1032B000616A032901D1062145E0616A042901D12F
:1032C000082140E0616A052905D10A213BE0FDE3C0
:1032D00080E08FE10BE1616A062901D10C2132E027
:1032E000616A072901D110212DE0616A082901D105
:1032F000202128E0616A092901D1402123E0616A87
:103300000A2901D180211EE0616A0B291AD14FF4EC
:10331000807118E0000C0058F369FFCFFFF4FF1133
:10332000001001405444025800440040004800404E
:10333000004C004000500040001401400078004064
:10334000007C00400121B0FBF1FB56E101A8FEF733
:10335000BFF90298616A09B9012138E0616A01295F
:1033600001D1022133E0616A022901D104212EE05A
:10337000616A032901D1062129E0616A042901D18A
:10338000082124E0616A052901D10A211FE0616A50
:10339000062901D10C211AE0616A072901D1102107
:1033A00015E0616A082901D1202110E0616A09292C
:1033B00001D140210BE0616A0A2901D1802106E098
:1033C000616A0B2902D14FF4807100E00121B0FB4A
:1033D000F1FB12E1FA480068C0F3401088B3F848E6
:1033E0000068C0F3C101F748C840616A09B901210A
:1033F00039E0616A012901D1022134E0616A0229C0
:1034000001D104212FE0616A032901D106212AE0BC
:10341000616A042901D1082125E0616A052901D1E9
:103420000A2120E0616A062901D10C211BE0616AB2
:10343000072901D1102116E0616A082902D1202153
:1034400011E013E0616A092901D140210BE0616AB2
:103450000A2901D1802106E0616A0B2902D14FF4CB
:10346000807100E00121B0FBF1FB3FE0606A08B928
:10347000012038E0606A012801D1022033E0606A4F
:10348000022801D104202EE0606A032801D1062021
:1034900029E0606A042801D1082024E0606A052838
:1034A00001D10A201FE0606A062801D10C201AE031
:1034B000606A072801D1102015E0606A082801D150
:1034C000202010E0606A092801D140200BE0606AEA
:1034D0000A2801D1802006E0606A0B2802D14FF44F
:1034E000807000E00120B749B1FBF0FB85E0606A25
:1034F00008B9012038E0606A012801D1022033E0D8
:10350000606A022801D104202EE0606A032801D1FC
:10351000062029E0606A042801D1082024E0606ABE
:10352000052801D10A201FE0606A062801D10C207D
:103530001AE0606A072801D1102015E0606A0828A7
:1035400001D1202010E0606A092801D140200BE061
:10355000606A0A2801D1802006E0606A0B2802D147
:103560004FF4807000E001209749B1FBF0FB44E08C
:10357000606A08B9012038E0606A012801D10220A0
:1035800033E0606A022801D104202EE0606A03283B
:1035900001D1062029E0606A042801D1082024E036
:1035A000606A052801D10A201FE0606A062801D15F
:1035B0000C201AE0606A072801D1102015E0606A2B
:1035C000082801D1202010E0606A092801D140209C
:1035D0000BE0606A0A2801D1802006E0606A0B28AF
:1035E00002D14FF4807000E001204FF40041B1FBA4
:1035F000F0FB02E00120079000BF00BFBBF1000F0D
:1036000000F0F287606800EB4000584503D860681E
:103610000003584503D20120079000F0E5BF102DAC
:1036200075D006DC022D09D0042D67D0082D6FD18E
:10363000CCE0202D6DD0402DF9D14DE2FEF73EF8C3
:103640008046606A08B9012238E0606A012801D129
:10365000022233E0606A022801D104222EE0606A6F
:10366000032801D1062229E0606A042801D108223A
:1036700024E0606A052801D10A221FE0606A06285A
:1036800001D10C221AE0606A072801D1102215E04E
:10369000606A082801D1202210E0606A092801D15F
:1036A00040220BE0606A0A2801D1802206E0606AAD
:1036B0000B2802D14FF4807200E0012294460023CF
:1036C00040461946FEF709F84FF4807300228C46F5
:1036D000A0FB031E0CFB03E300FB02336068400801
:1036E0008C461CEB000643EB0201D4F804C0624692
:1036F00000233046FDF7F1FF81464EE204A8FDF7B6
:10370000E2FFDDF814E0606A20B901223BE0BFE08F
:1037100040E282E1606A012801D1022233E0606A5E
:10372000022801D104222EE0606A032801D106227A
:1037300029E0606A042801D1082224E0606A052893
:1037400001D10A221FE0606A062801D10C221AE08A
:10375000606A072801D1102215E0606A082801D1AB
:10376000202210E0606A092801D140220BE0606A43
:103770000A2801D1802206E0606A0B2802D14FF4AA
:10378000807200E001229446002370461946FDF73E
:10379000A4FF4FF4807C0022A0FB0C3E01FB0CE157
:1037A00000FB0211606840081E185141D4F804C0A3
:1037B000624600233046FDF790FF8146EDE10000B0
:1037C000004402580090D00300093D0001A8FDF715
:1037D0007FFFDDF808C0606A08B9012238E0606A3E
:1037E000012801D1022233E0606A022801D10422BB
:1037F0002EE0606A032801D1062229E0606A0428CD
:1038000001D1082224E0606A052801D10A221FE0C4
:10381000606A062801D10C221AE0606A072801D1EB
:10382000102215E0606A082801D1202210E0606AA9
:10383000092801D140220BE0606A0A2801D18022C8
:1038400006E0606A0B2802D14FF4807200E001228A
:103850009646002360461946FDF73FFF4FF48073FC
:1038600000228C46A0FB031E0CFB03E300FB02338B
:10387000606840088C461CEB000643EB0201D4F85C
:1038800004C0624600233046FDF727FF814684E1ED
:10389000F8480068C0F3401090B3F6480068C0F3E1
:1038A000C101F54820FA01FE606A08B9012239E039
:1038B000606A012801D1022234E0606A022801D145
:1038C00004222FE0606A032801D106222AE0606A00
:1038D000042801D1082225E0606A052801D10A22C6
:1038E00020E0606A062801D10C221BE0606A0728EC
:1038F00001D1102216E0606A082802D1202211E0CE
:1039000030E0606A092801D140220BE0606A0A2891
:1039100001D1802206E0606A0B2802D14FF4807248
:1039200000E001229446002370461946FDF7D5FEBB
:103930004FF4807300228C46A0FB031E0CFB03E3B4
:1039400000FB0233606840088C461CEB000643EB2A
:103950000201D4F804C0624600233046FDF7BDFEE4
:10396000814659E0606A08B9012238E0606A01289E
:1039700001D1022233E0606A022801D104222EE044
:10398000606A032801D1062229E0606A042801D177
:10399000082224E0606A052801D10A221FE0606A3B
:1039A000062801D10C221AE0606A072801D11022F2
:1039B00015E0606A082801D1202210E0606A092819
:1039C00001D140220BE0606A0A2801D1802206E082
:1039D000606A0B2802D14FF4807200E00122944605
:1039E0000023A5481946FDF778FE4FF480730022A6
:1039F0008C46A0FB031E0CFB03E300FB0233606854
:103A000040080E1843EB0201D4F804C062460023BC
:103A10003046FDF762FE8146BFE0606A08B90122C8
:103A200038E0606A012801D1022233E0606A02288E
:103A300001D104222EE0606A032801D1062229E088
:103A4000606A042801D1082224E0606A052801D1B7
:103A50000A221FE0606A062801D10C221AE0606A7F
:103A6000072801D1102215E0606A082801D1202220
:103A700010E0606A092801D140220BE0606A0A2840
:103A800001D1802206E0606A0B2802D14FF48072D7
:103A900000E001229446002378481946FDF71DFEF8
:103AA0004FF4807300228C46A0FB031E0CFB03E343
:103AB00000FB0233606840088C461CEB000643EBB9
:103AC0000201D4F804C06246002300E073E03046EF
:103AD000FDF703FE814660E0606A08B9012238E024
:103AE000606A012801D1022233E0606A022801D114
:103AF00004222EE0606A032801D1062229E0606AD0
:103B0000042801D1082224E0606A052801D10A2294
:103B10001FE0606A062801D10C221AE0606A0728BB
:103B200001D1102215E0606A082801D1202210E09E
:103B3000606A092801D140220BE0606A0A2801D19D
:103B4000802206E0606A0B2802D14FF4807200E008
:103B50000122944600234FF400401946FDF7BDFDB5
:103B60004FF4807300228C46A0FB031E0CFB03E382
:103B700000FB0233606840088C461CEB000643EBF8
:103B80000201D4F804C0624600233046FDF7A5FDCB
:103B9000814602E00120079000BF00BFB9F5407FD9
:103BA00006D3B9F5801F03D22068C0F80C9034E525
:103BB0000120079031E5E069B0F5004F71D1082D83
:103BC00070D005DC5DB1012D5AD0042D6BD1A7E07A
:103BD000102D69D0202D68D0402DF7D11EE2FDF7C1
:103BE00081FD8046606A08B9012038E0606A0128DA
:103BF00001D1022033E0606A022801D104202EE0C6
:103C0000606A032801D1062029E0606A042801D1F6
:103C1000082024E0606A052801D10A201FE0606ABC
:103C2000062801D10C201AE0606A072801D1102073
:103C300015E0606A082801D1202010E0606A092898
:103C400001D140200BE0606A0A2801D1802006E003
:103C5000606A0B2802D14FF4807000E00120B8FBAD
:103C6000F0F04000616800EB5100B0FBF1F01FFA8A
:103C700080F920E2004402580090D00300093D0082
:103C8000FDF735FD8046606A08B901203DE0606AB5
:103C9000012801D1022038E0606A022806D1042000
:103CA00033E020E288E003E2D2E06EE1606A0328BC
:103CB00001D1062029E0606A042801D1082024E00F
:103CC000606A052801D10A201FE0606A062801D138
:103CD0000C201AE0606A072801D1102015E0606A04
:103CE000082801D1202010E0606A092801D1402075
:103CF0000BE0606A0A2801D1802006E0606A0B2888
:103D000002D14FF4807000E00120B8FBF0F04000D9
:103D1000616800EB5100B0FBF1F01FFA80F9CAE1D5
:103D200004A8FDF7D0FC0598616A09B9012138E0C3
:103D3000616A012901D1022133E0616A022901D1BE
:103D400004212EE0616A032901D1062129E0616A7C
:103D5000042901D1082124E0616A052901D10A2141
:103D60001FE0616A062901D10C211AE0616A072966
:103D700001D1102115E0616A082901D1202110E04C
:103D8000616A092901D140210BE0616A0A2901D148
:103D9000802106E0616A0B2902D14FF4807100E0B6
:103DA0000121B0FBF1F04000616800EB5100B0FB75
:103DB000F1F01FFA80F97EE101A8FDF789FC029875
:103DC000616A09B9012138E0616A012901D1022142
:103DD00033E0616A022901D104212EE0616A0329DE
:103DE00001D1062129E0616A042901D1082124E0DA
:103DF000616A052901D10A211FE0616A062901D102
:103E00000C211AE0616A072901D1102115E0616ACD
:103E1000082901D1202110E0616A092901D140213E
:103E20000BE0616A0A2901D1802106E0616A0B2951
:103E300002D14FF4807100E00121B0FBF1F04000AD
:103E4000616800EB5100B0FBF1F01FFA80F932E13C
:103E5000F9480068C0F3401088B3F7480068C0F321
:103E6000C101F648C840616A09B9012139E0616AB7
:103E7000012901D1022134E0616A022901D1042122
:103E80002FE0616A032901D106212AE0616A042931
:103E900001D1082125E0616A052901D10A2120E02C
:103EA000616A062901D10C211BE0616A072901D151
:103EB000102116E0616A082902D1202111E01BE0DF
:103EC000616A092901D140210BE0616A0A2901D107
:103ED000802106E0616A0B2902D14FF4807100E075
:103EE0000121B0FBF1F04000616800EB5100B0FB34
:103EF000F1F01FFA80F947E0606A08B9012038E064
:103F0000606A012801D1022033E0606A022801D1F1
:103F100004202EE0606A032801D1062029E0606AAF
:103F2000042801D1082024E0606A052801D10A2074
:103F30001FE0606A062801D10C201AE0606A072899
:103F400001D1102015E0606A082801D1202010E07E
:103F5000606A092801D140200BE0606A0A2801D17B
:103F6000802006E0606A0B2802D14FF4807000E0E8
:103F70000120B249B1FBF0F04000616800EB510054
:103F8000B0FBF1F01FFA80F995E0606A08B90120F2
:103F900038E0606A012801D1022033E0606A02281B
:103FA00001D104202EE0606A032801D1062029E017
:103FB000606A042801D1082024E0606A052801D144
:103FC0000A201FE0606A062801D10C201AE0606A0E
:103FD000072801D1102015E0606A082801D12020AF
:103FE00010E0606A092801D140200BE0606A0A28CD
:103FF00001D1802006E0606A0B2802D14FF4807066
:1040000000E001208E49B1FBF0F04000616800EB58
:104010005100B0FBF1F01FFA80F94CE0606A08B97A
:10402000012038E0606A012801D1022033E0606A93
:10403000022801D104202EE0606A032801D1062065
:1040400029E0606A042801D1082024E0606A05287C
:1040500001D10A201FE0606A062801D10C201AE075
:10406000606A072801D1102015E0606A082801D194
:10407000202010E0606A092801D140200BE0606A2E
:104080000A2801D1802006E0606A0B2802D14FF493
:10409000807000E001204FF40041B1FBF0F04000DF
:1040A000616800EB5100B0FBF1F01FFA80F902E00B
:1040B0000120079000BF00BFB9F1100F10D3B9F570
:1040C000803F0DD24FF6F07009EA00000890C9F366
:1040D000420108980843089008982168C86083E264
:1040E0000120079080E2082D72D005DC5DB1012D22
:1040F00053D0042D6DD1A5E0102D6BD0202D6AD0AA
:10410000402D66D117E2FDF7EDFA8046606A08B9E6
:10411000012038E0606A012801D1022033E0606AA2
:10412000022801D104202EE0606A032801D1062074
:1041300029E0606A042801D1082024E0606A05288B
:1041400001D10A201FE0606A062801D10C201AE084
:10415000606A072801D1102015E0606A082801D1A3
:10416000202010E0606A092801D140200BE0606A3D
:104170000A2801D1802006E0606A0B2802D14FF4A2
:10418000807000E00120B8FBF0F0616800EB5100A6
:10419000B0FBF1F01FFA80F919E2FDF7A8FA8046AA
:1041A000606A08B901203CE0606A012801D1022060
:1041B00037E0606A022801D1042032E0606A0328F7
:1041C00001D106202DE0606A042805D1082028E0EE
:1041D00083E0F9E1CCE066E1606A052801D10A20BC
:1041E0001FE0606A062801D10C201AE0606A0728E7
:1041F00001D1102015E0606A082801D1202010E0CC
:10420000606A092801D140200BE0606A0A2801D1C8
:10421000802006E0606A0B2802D14FF4807000E035
:104220000120B8FBF0F0616800EB5100B0FBF1F049
:104230001FFA80F9CBE10000004402580090D0033F
:1042400000093D0004A8FDF73EFA0598616A09B926
:10425000012138E0616A012901D1022133E0616A5C
:10426000022901D104212EE0616A032901D106212E
:1042700029E0616A042901D1082124E0616A052945
:1042800001D10A211FE0616A062901D10C211AE03F
:10429000616A072901D1102115E0616A082901D15D
:1042A000202110E0616A092901D140210BE0616AF7
:1042B0000A2901D1802106E0616A0B2902D14FF45D
:1042C000807100E00121B0FBF1F0616800EB51006A
:1042D000B0FBF1F01FFA80F979E101A8FDF7F8F9D8
:1042E0000298616A09B9012138E0616A012901D1A6
:1042F000022133E0616A022901D104212EE0616AC2
:10430000032901D1062129E0616A042901D108218C
:1043100024E0616A052901D10A211FE0616A0629AA
:1043200001D10C211AE0616A072901D1102115E0A1
:10433000616A082901D1202110E0616A092901D1AF
:1043400040210BE0616A0A2901D1802106E0616AFF
:104350000B2902D14FF4807100E00121B0FBF1F094
:10436000616800EB5100B0FBF1F01FFA80F92EE11B
:10437000A3480068C0F3401088B3A1480068C0F3A8
:10438000C101A048C840616A09B9012139E0616AE8
:10439000012901D1022134E0616A022901D10421FD
:1043A0002FE0616A032901D106212AE0616A04290C
:1043B00001D1082125E0616A052901D10A2120E007
:1043C000616A062901D10C211BE0616A072901D12C
:1043D000102116E0616A082902D1202111E01AE0BB
:1043E000616A092901D140210BE0616A0A2901D1E2
:1043F000802106E0616A0B2902D14FF4807100E050
:104400000121B0FBF1F0616800EB5100B0FBF1F06D
:104410001FFA80F946E0606A08B9012038E0606A56
:10442000012801D1022033E0606A022801D1042072
:104430002EE0606A032801D1062029E0606A042882
:1044400001D1082024E0606A052801D10A201FE07C
:10445000606A062801D10C201AE0606A072801D1A1
:10446000102015E0606A082801D1202010E0606A61
:10447000092801D140200BE0606A0A2801D1802080
:1044800006E0606A0B2802D14FF4807000E0012042
:104490005C49B1FBF0F0616800EB5100B0FBF1F05A
:1044A0001FFA80F993E0606A08B9012038E0606A79
:1044B000012801D1022033E0606A022801D10420E2
:1044C0002EE0606A032801D1062029E0606A0428F2
:1044D00001D1082024E0606A052801D10A201FE0EC
:1044E000606A062801D10C201AE0606A072801D111
:1044F000102015E0606A082801D1202010E0606AD1
:10450000092801D140200BE0606A0A2801D18020EF
:1045100006E0606A0B2802D14FF4807000E00120B1
:104520003949B1FBF0F0616800EB5100B0FBF1F0EC
:104530001FFA80F94BE0606A08B9012038E0606A30
:10454000012801D1022033E0606A022801D1042051
:104550002EE0606A032801D1062029E0606A042861
:1045600001D1082024E0606A052801D10A201FE05B
:10457000606A062801D10C201AE0606A072801D180
:10458000102015E0606A082801D1202010E0606A40
:10459000092801D140200BE0606A0A2801D180205F
:1045A00006E0606A0B2802D14FF4807000E0012021
:1045B0004FF40041B1FBF0F0616800EB5100B0FB3B
:1045C000F1F01FFA80F902E00120079000BF00BF60
:1045D000B9F1100F06D3B9F5803F03D22068C0F8B7
:1045E0000C9001E0012007900120A4F86A00A4F8D3
:1045F00068000020E0662067079809B0BDE8F08FEA
:10460000004402580090D00300093D002DE9F0411C
:1046100004460D4617469846069E4AE0701C002840
:1046200047D0FDF741F8A0EB0800B04200D8C6B96A
:104630002068006820F4D0702168086020688068D5
:1046400020F00100216888602020C4F88000C4F8B0
:10465000840000BF002084F87C0000BF0320BDE878
:10466000F0812068006800F0040010B32068C06981
:10467000C0F3C020E8B14FF40060216808622068F0
:10468000006820F4D070216808602068806820F0FD
:104690000100216888602020C4F88000C4F88400EC
:1046A000C4F8880000BF002084F87C0000BF03200D
:1046B000D5E72068C0692840A84201D1012000E068
:1046C0000020B842AAD00020C9E703B401984100F5
:1046D000009850EAC12018BF04204A0D18BF40F0CE
:1046E000010040F2FF72B2EB515F08BF40F00200E0
:1046F000012808BF052002B070472DE9F0410746A8
:104700000E463C69A0680068B04202D90020BDE8AE
:10471000F081B2B2A368198A986803F093F805464D
:10472000681C40B1606800EBC50120680A68C2F3EC
:1047300013021044EBE70020E9E72DE9F0410746BA
:104740000D463C69A0680068A84203D8A06880882C
:10475000A84202D20020BDE8F081AAB2A368198A5B
:10476000986803F08CF80646701C40B1606800EB56
:10477000C60120680A68C2F313021044EBE7002068
:10478000E9E72DE9F04780460C4617469946D8F8E8
:104790001050A8680068B84202D90020BDE8F08730
:1047A000BAB2AB68198A986803F04CF80646701CD8
:1047B000B8B1686800EBC6010868000DA0804879B0
:1047C00020810879E08091F90600608191F9070065
:1047D000A081688A400AA27B60F30302A2730120D1
:1047E000DCE70020DAE72DE9F04780460C46164664
:1047F0009946D8F81050A8680068B04203D8A86855
:104800008088B04202D20020BDE8F087B2B2AB6827
:10481000198A986803F033F80746781CB8B16868BD
:1048200000EBC7010868000DA08048792081087955
:10483000E08091F90600608191F90700A081688A03
:10484000400AA27B60F30302A2730120DCE7002090
:10485000DAE770B50446002508E02168481C2060AE
:104860000878303805EB850100EB410521680878B0
:1048700000F004F80028F0D1284670BD0146302928
:1048800003DB392901DC012070470020FCE73038C8
:104890000A2801D2012070470020704710B540213E
:1048A000074801F0E3FA00220421064830F0CAFA72
:1048B0000549086002F00EFE00200449087010BD92
:1048C00070580224A1750090B8020024B40200249C
:1048D00030B50346B1F90040B2F90050AC4202DDF8
:1048E000B1F9004001E0B2F900401C80B1F902408A
:1048F000B2F90250AC4202DDB1F9024001E0B2F976
:1049000002405C80B1F90440B2F90450AC4202DAD2
:10491000B1F9044001E0B2F904409C80B1F90640CD
:10492000B2F90650AC4202DAB1F9064001E0B2F940
:104930000640DC800120B3F90040B3F90450AC42DA
:1049400005DCB3F90240B3F90650AC4200DD0020AB
:1049500030BDF8B504460D4616460027B4F90000F0
:10496000B5F90010884212DBB4F90200B5F9021063
:1049700088420CDBB4F90400B5F90410884206DC67
:10498000B4F90600B5F90610884200DC01270FB91A
:104990000020F8BD0EB90120FBE72088ADF800002B
:1049A0006088ADF8020032466946284600F0A7F854
:1049B00008B90020EDE7A088ADF800006088ADF8E8
:1049C000020032466946284600F099F808B90020EE
:1049D000DFE72088ADF80000E088ADF8020032463D
:1049E0006946284600F08BF808B90020D1E7A08876
:1049F000ADF80000E088ADF802003246694628466E
:104A000000F07DF808B90020C3E70120C1E70246A5
:104A1000B2F90000B1F90430984213DCB2F9040095
:104A2000B1F9003098420DDBB2F90200B1F906305D
:104A3000984207DCB2F90600B1F90230984201DB76
:104A4000012070470020FCE7F8B504460D461646E5
:104A5000B4F90400B5F90010884211DBB4F906007E
:104A6000B5F9021088420BDBB4F90000B5F9041067
:104A7000884205DCB4F90200B5F90610884201DD70
:104A80000120F8BD0EB90020FBE72088ADF800003A
:104A90006088ADF8020032466946284600F02FF8DB
:104AA00008B10020EDE7A088ADF800006088ADF8FF
:104AB000020032466946284600F021F808B100207D
:104AC000DFE72088ADF80000E088ADF8020032464C
:104AD0006946284600F013F808B10020D1E7A08805
:104AE000ADF80000E088ADF802003246694628467D
:104AF00000F005F808B10020C3E70120C1E72DE967
:104B0000FC5F05460E4614464FF0000AB6F9000059
:104B1000B5F90010884213DBB6F90000B5F90410AE
:104B200088420DDCB6F90200B5F90210884207DBB5
:104B3000B6F90200B5F90610884201DC4FF0010A0F
:104B4000BAF1000F02D10020BDE8FC9F002C01DC6F
:104B50000120F9E728461BF036FA834600EBDB70AC
:104B6000471028461BF0A7F9834600EBDB704FEA9D
:104B70006008474501DA384600E0404681464C452A
:104B800000DD4C462888ADF800002888204400B29B
:104B9000ADF804006888ADF802006888204400B2CF
:104BA000ADF80600002231466846FFF7A8FF80B145
:104BB000BDF80400204400B2ADF80400BDF80600C2
:104BC000204400B2ADF80600314668462CF01EFBCA
:104BD000BAE7E888001B00B2ADF80200E888ADF83B
:104BE0000600002231466846FFF789FF80B1BDF814
:104BF0000400204400B2ADF80400BDF80200001B20
:104C000000B2ADF80200314668462CF0FFFA9BE78F
:104C1000A888001B00B2ADF80000A888ADF8040019
:104C2000002231466846FFF76AFF80B1BDF80000F8
:104C3000001B00B2ADF80000BDF80200001B00B27E
:104C4000ADF80200314668462CF0E0FA7CE768884F
:104C5000ADF802006888204400B2ADF806000022DA
:104C600031466846FFF74BFF80B1BDF80000001BDE
:104C700000B2ADF80000BDF80600204400B2ADF867
:104C80000600314668462CF0C1FA5DE701205BE77B
:104C900010B5B1F90030B2F90040A34202DAB1F91F
:104CA000003001E0B2F900300380B1F90230B2F90E
:104CB0000240A34202DAB1F9023001E0B2F9023057
:104CC0004380B1F90430B2F90440A34202DDB1F9E6
:104CD000043001E0B2F904308380B1F90630B2F952
:104CE0000640A34202DDB1F9063001E0B2F9063018
:104CF000C38010BD2DE9FF41044630F044F805465D
:104D00000020039034B14749E0680860204630F045
:104D1000B1F903E01EF036F94249086041490968DB
:104D200008692CF00BF93F480068406920B13D4903
:104D3000096848692CF002F93A490968C8692CF0F9
:104D4000FDF838490968086A2CF0F8F83548006819
:104D5000006940B9002033490968A1F8500100BF3B
:104D600000BFBDE8FF812CF051FD2CF097FC2D48D1
:104D70000068B0F8500100284BD02A48006800684D
:104D8000007CC0F34000E8B1264800681EF078F9C6
:104D9000401E06B2234800681EF00CF9401E07B200
:104DA0003B460022114601A800961BF051F901A8CC
:104DB0001C4909680968896B48601A48006808F04E
:104DC00041F800BF4FF4807116480068303026F07B
:104DD000DCFA20211348006800F5987026F0D5FA17
:104DE000002010490968A1F8500128462FF0BEFFA5
:104DF00003900C4800680068406A50B1094909688E
:104E000008680849096809684B6A07490A680399EC
:104E1000984725F0F1FF00F03FF800F007F800BFD9
:104E20009FE70000700100246C01002410B50024ED
:104E300016E0C4EBC4000C4951F8200030B1C4EBBB
:104E4000C401094A52F8210026F088F8C4EBC401D5
:104E5000054A02EB81001C2126F097FA601CC4B2BF
:104E6000042CE6DB10BD00004C5902240146094A1F
:104E700010680BE042688A4202D002688A4204D17C
:104E8000027E22F00102521C027640690028F1D114
:104E900070470000440100247047000010B5042151
:104EA000014800F0E3FF10BD6458022410B51C2136
:104EB000014800F0DBFF10BD7C5802242DE9FF4FB4
:104EC0008BB004469A46199DBAF1000F11D118987B
:104ED000B0F5807F0DD10020208060800C98401EAE
:104EE00000B2A0800D98401E00B2E0800FB0BDE877
:104EF000F08FB5F900004042189948430121C1EBF9
:104F0000202000B22080B5F90200404218994843A1
:104F10000121C1EB202000B26080B5F900100C988F
:104F2000401A18994843022101EB202000B2A080CA
:104F3000B5F902100D98401A18994843022101EB67
:104F4000202000B2E080BAF1000F14D12088298817
:104F5000084400B2208060886988084400B26080FC
:104F6000A0882988084400B2A080E08869880844A5
:104F700000B2E080BAE70A209AFBF0F00A900A98A3
:104F8000401C09900A9800EB8000AAEB400B0A989D
:104F900000B230F0F5F90890099800B230F0F0F95D
:104FA00007900A985A3000B230F0EAF90690099852
:104FB0005A3000B230F0E4F90590CBF10A010898BC
:104FC0004143079800FB0B100A2190FBF1F6CBF14F
:104FD0000A0106984143059800FB0B100A2190FB3B
:104FE000F1F776117F11B4F90080B4F9029007FB54
:104FF00008F006FB1900298801EBA02000B2ADF8EB
:10500000100006FB08F007FB0900698801EBA020EF
:1050100000B2ADF81200B4F90480B4F9029007FBB5
:1050200008F006FB1900298801EBA02000B2ADF8BA
:105030000C0006FB08F007FB0900698801EBA020C3
:1050400000B2ADF80E00B4F90080B4F9069007FB89
:1050500008F006FB1900298801EBA02000B2ADF88A
:10506000080006FB08F007FB0900698801EBA02097
:1050700000B2ADF80A00B4F90480B4F9069007FB59
:1050800008F006FB1900298801EBA02000B2ADF85A
:10509000040006FB08F007FB0900698801EBA0206B
:1050A00000B2ADF80600BDF90800BDF91010884245
:1050B00002DABDF9080001E0BDF91000BDF90410E5
:1050C000BDF90C20914202DABDF9041001E0BDF9EE
:1050D0000C1088420BDABDF90800BDF910108842A7
:1050E00002DABDF908000DE0BDF910000AE0BDF9D3
:1050F0000400BDF90C10884202DABDF9040001E099
:10510000BDF90C002080BDF90800BDF910108842DF
:1051100002DDBDF9080001E0BDF91000BDF9041081
:10512000BDF90C20914202DDBDF9041001E0BDF98A
:105130000C1088420BDDBDF90800BDF91010884243
:1051400002DDBDF908000DE0BDF910000AE0BDF96F
:105150000400BDF90C10884202DDBDF9040001E035
:10516000BDF90C00A080BDF90A00BDF912108842FB
:1051700002DABDF90A0001E0BDF91200BDF906101E
:10518000BDF90E20914202DABDF9061001E0BDF929
:105190000E1088420BDABDF90A00BDF912108842E0
:1051A00002DABDF90A000DE0BDF912000AE0BDF90E
:1051B0000600BDF90E10884202DABDF9060001E0D2
:1051C000BDF90E006080BDF90A00BDF912108842D9
:1051D00002DDBDF90A0001E0BDF91200BDF90610BB
:1051E000BDF90E20914202DDBDF9061001E0BDF9C6
:1051F0000E1088420BDDBDF90A00BDF9121088427D
:1052000002DDBDF90A000DE0BDF912000AE0BDF9AA
:105210000600BDF90E10884202DDBDF9060001E06E
:10522000BDF90E00E08000BF60E62DE9F74F86B0C3
:10523000044620680590B4F908100798A0EB01080F
:10524000B4F90A100898A0EB0109E089B0F5807F55
:1052500013D1206B00FB08F0E16A01FB1901606AC1
:1052600000EBA10BE06A00FB08F0216B01FB0901D8
:10527000A06A00EBA10004902FE0A08980B9A06B88
:1052800000FB08F04FEA6018A06B00FB09F04FEA42
:105290006019606A00EB080BA06A484404901CE0A7
:1052A000A06B00FB08F04FEA6018A06B00FB09F050
:1052B0004FEA6019206B00FB08F0E16A01FB19015D
:1052C000606A00EBA12BE06A00FB08F0216B01FB98
:1052D0000901A06A00EBA12004904FEA2B26049854
:1052E0000712B4F90400B04203DC002009B0BDE8A5
:1052F000F08F002E01DA0020F8E7B4F90600B8427A
:1053000001DC0020F2E7002F01DA0020EEE7342074
:10531000005DC0F3800050B33420005DC0F3400056
:1053200078B90225B4F904007843684306FB050AFE
:10533000059800EB0A012A4604F1140025F0D3FF7A
:105340002CE00325B4F904007843684306FB050A02
:105350006A1E059800EB0A0104F1140025F0C3FF52
:105360000AEB0500401E0599095CA17516E04FF097
:10537000000A0025208A03463AB231B2019004F1B6
:10538000180022F01BFB0290BDF80800A0823AB280
:1053900031B204F1180022F071FAA0753420005DDA
:1053A00000F00100B0B14FF47F40002100F47C42D6
:1053B00041EA5211C0F3C40211430191BDF8042027
:1053C00011460291A08ABDF80810884201D1002040
:1053D0008CE700BFE07C08B9012087E70FFA8BF16A
:1053E000A187049801B2E18731B24020015339B25C
:1053F00042200153C4F844A084F84850204600F0ED
:1054000003F80390039871E72DE9F04F8DB004463F
:10541000D4F8009094F83C000C9094F83E000B9067
:105420000C9870280BDA4FF0FF35B4F9400028448F
:10543000002800DA00250C988030C7B213E00C98E1
:1054400090280EDD0125B4F940002844B4F9041079
:10545000884200DB00250C98C0F1FF008030C7B205
:1054600001E00025FF270B9870280CDA4FF0FF367B
:10547000B4F942003044002800DA00260B9880304E
:1054800000F0FF0815E00B9890280FDD0126B4F915
:1054900042003044B4F90610884200DB00260B9825
:1054A000C0F1FF00803000F0FF0802E000264FF05E
:1054B000FF08A08A0A90A07D069000200590049025
:1054C00003903420005DC0F3800000285BD094F886
:1054D0004800626C00FB052000EB0901022209A8CC
:1054E00025F001FFA28894F8480012FB00F2606CDE
:1054F00002FB060000EB0901022208A825F0F3FEDA
:10550000A28894F8480012FB00F2606C02FB0602CD
:1055100094F8480000FB052000EB0901022207A8CF
:1055200025F0E1FE3420005DC0F3400000287ED06D
:1055300094F84800616C00FB05110844401E19F8FE
:1055400000000590A18894F8480011FB00F1606C00
:1055500001FB060194F848000844401E19F80000B9
:105560000490A18894F8480011FB00F1606C01FBE5
:10557000060194F8480000FB05110844401E19F884
:105580000000039053E0208A0090B4F942204020AC
:10559000005B284401B204F11800009B22F00EFACF
:1055A0000990208A00904220005B304402B2B4F996
:1055B000401004F11800009B22F000FA0890208AA5
:1055C00000904220005B304402B24020005B28443F
:1055D00001B204F11800009B22F0F0F9079034208A
:1055E000005DC0F3400010B3B4F942204020005BDE
:1055F000284401B204F1180022F040F9059042203D
:10560000005B304402B2B4F9401004F1180022F0FB
:1056100035F904904220005B304402B24020005B28
:10562000284401B204F1180022F028F90390BA4688
:10563000BB463420005DC0F34000E0B306987843D9
:10564000C7F1FF0C059B03FB0C00C0F30721049876
:105650007843C7F1FF0C039B03FB0C00C0F3072248
:1056600001FB08F0C8F1FF0302FB0300030AA37566
:10567000022905DC022A03DC00200DB0BDE8F08F12
:10568000022901DC4FF00008022A01DC4FF0FF087C
:105690000698022801DC4FF0000A0598022801DC78
:1056A0004FF0FF0A0498022801DC4FF0000B03982A
:1056B000022803DC00E002E04FF0FF0B03E0BA46F3
:1056C000BB46FF21A175BAF1000F02D109980290E3
:1056D0000BE0BAF1FF0F02D10A98029005E05246A2
:1056E000DDE909101CF0F8FD0290BBF1000F02D1BA
:1056F000079801900BE0BBF1FF0F02D108980190D1
:1057000005E05A46DDE907101CF0E6FD0190B8F10E
:10571000000F03D1BDF80400A0820FE0B8F1FF0F25
:1057200003D1BDF80800A08208E04246DDE901107F
:105730001CF0D2FD0090BDF80000A08201209CE783
:105740002DE9F05F0446B4F9080001026162B4F982
:105750000A000102A162B4F90C000A2190FBF1F5E4
:105760006F1CB4F90C0005EB8501A0EB4106684203
:1057700000B22FF005FE8046784200B22FF000FE06
:105780008146C5F15A0000B22FF0FAFD8246C7F1FA
:105790005A0000B22FF0F4FD8346C6F10A0000FB68
:1057A00008F009FB06000A2190FBF1F1E162C6F165
:1057B0000A0000FB0AF00BFB06000A2190FBF1F146
:1057C0002163E06A4111E162206B41112163A07CF9
:1057D00022F003FA3421095D60F300013420015501
:1057E000A07C22F0DDF93421095D60F34101342011
:1057F0000155A07C042805D0A07C052802D0A07CFF
:10580000062807D13420005D20F00400001D34215B
:10581000085505E03420005D20F0040134200155D6
:1058200021682162A06920F0E000A061A17CA0694C
:1058300061F30400A061A188A06961F39420A061D4
:10584000E188A06961F35F50A061E08900EBD0714D
:10585000491001F5001191FBF0F2A263FF21A1753F
:10586000208AA082BDE8F09F2DE9F7430546164641
:105870000024134C2FF087FA8046334629462046F1
:10588000019A22F059FE07465FB900BF00BF2C21E4
:10589000204625F07AFD4FF00040A0620020BDE8D0
:1058A000FE830020A062E06918B940462FF05EFA3E
:1058B000E061E06908B90120E0612046EFE70000FF
:1058C000A058022410B51421114800F0CFFA22F09C
:1058D000E5FD044600BF1CB900BF00BF00BFFEE7E6
:1058E00000BF14B900BF00BF10BD0A49204622F016
:1058F000BDFE0949204622F0BBFE0849204622F0A1
:10590000B9FE0749204622F0AFFE00BFECE70000D9
:1059100088580224B97C02908D810290A98302905C
:10592000817C029070B504460D461021284625F072
:105930002CFD20680078012804D1208A2880608A04
:1059400068800CE020680078022802D1E068686076
:1059500005E020680078042801D10A2068602068EA
:10596000406820B1206829464268904701E000BFA6
:1059700000BF70BD2DE9FE430446A66AEEB9A18AB8
:10598000208A084401B2A182E18A608A084401B2F7
:10599000E182204610F0BAF806460EB9BDE8FE8353
:1059A000204614F011FD00220921304620F0BEFFF0
:1059B0006078C0F3400000B1F0E7208A10B9608A37
:1059C000002870D000200290019094F83C0000F074
:1059D0000F00032812D1304627F090FD07463046CD
:1059E00027F014FD804603200090B4F910103B46C8
:1059F000424630460EF03AFA029012E0304627F066
:105A0000FFFD0746304627F073FC80460C200090CF
:105A1000B4F9121043463A4630460EF027FA019088
:105A200000BF304627F0C4FC054605F0010028B948
:105A3000BDF90800002801DD0020029005F00200F9
:105A400028B9BDF90800002801DA0020029005F00D
:105A5000040028B9BDF90400002801DD00200190F0
:105A600005F0080028B9BDF90400002801DA00207B
:105A7000019001AA02A9204633F050FA0023BDF993
:105A80000420BDF9081030462AF098FCA08ABDF821
:105A90000810084401B2A182E08ABDF8041008444D
:105AA00001B2E18200BF00BF78E72DE9F84F04465C
:105AB000D4F828B0BBF1000F01D1BDE8F88F94F8FD
:105AC0003C0000F00F0000B9F7E723F0B7F80646F6
:105AD0003068477E4021584629F09AF910B90021D4
:105AE00061832183584627F077FD8046584627F08A
:105AF0007DFD054694F83C0000F00F000C2843D1D2
:105B0000002121831DBBB4F91A00C7F16401484389
:105B1000642190FBF1F001B26183584627F0E8FB65
:105B20008146584627F06CFD82460C200090B4F95F
:105B30001A104B46524658460EF098F96083B4F955
:105B40001A200023194658462AF038FC69E02046FE
:105B500033F03BFA0090002161836A46204633F01F
:105B6000DDF9BDF9003041F6FF725142584610F0A0
:105B700075F98146BDF80000484402B201230021B6
:105B800058462AF01BFC4CE094F83C0000F00F0053
:105B9000032846D100216183B8F1000F23D1B4F965
:105BA0001800C7F164014843642190FBF1F001B291
:105BB0002183584627F02AFC8146584627F09EFC50
:105BC000824603200090B4F9181053464A465846BE
:105BD0000EF04CF92083B4F9181000231A465846E9
:105BE0002AF0ECFB1DE0204633F0D4F900900021B0
:105BF000218300226946204633F090F9BDF9003038
:105C000041F6FF725142584610F08EF88146BDF8B9
:105C10000000484401B20123002258462AF0CEFB7E
:105C200000BF208B002860D1608B00285DD11DBB98
:105C3000584627F0E5FC8146584627F059FB824636
:105C4000B9F1000F02DCBAF1000F14DDB9F1000F59
:105C500006DA01234A46002158462AF0AFFB0AE043
:105C6000BAF1000F07DA0123CAF1000002B20021E5
:105C700058462AF0A3FB00BFB8F1000F23D15846C5
:105C800027F0C4FB8146584627F038FC8246B9F11C
:105C9000000F02DCBAF1000F14DDB9F1000F06DAD3
:105CA00001230022494658462AF088FB0AE0BAF14F
:105CB000000F07DA01230022CAF1000001B25846A2
:105CC0002AF07CFB00BF32460A21584620F02EFE07
:105CD0006078C0F3400000B1EFE694F83C0020F09B
:105CE0000F0184F83C100021A16200BFE5E62DE918
:105CF000FF4104460F4614B91DF044F904460CB99F
:105D0000BDE8FF811FB90020A4F85001F8E700208A
:105D1000ADF80800ADF80A0020461DF04BF9401E12
:105D200000B2ADF80C0020461DF0AAF9401E00B2EA
:105D3000ADF80E0002AA39466846FEF7C9FD0646D0
:105D400006B9DDE72068007CC0F3400060B102982E
:105D50002063039860630120A4F85001606810B1CB
:105D600060682FF093F9CBE72068806918B120684C
:105D700069468269904700250BE004F1300000EB92
:105D8000C50100226846FEF7E4FD00B1B8E7681CD3
:105D900085B2B4F85001A842EFDCB4F850012028D5
:105DA00009DAB4F8502104F1300101EBC200694670
:105DB00019F0F1FF0BE00020A4F85001B4F85021D5
:105DC00004F1300101EBC20002A919F0E4FFB4F8BC
:105DD0005001401CA4F85001606810B160682FF0B9
:105DE00055F900BF8CE770B50546284600F013F85A
:105DF000044600260CE02146284600F024F806461A
:105E00002146284600F086F8204625F0A7F83446BB
:105E1000002CF0D170BD014609B9002070474868D8
:105E2000FCE770B5064600243046FFF7F4FF054650
:105E300005E0641C2946304600F005F80546002DB3
:105E4000F7D1204670BD02460B461068001D034482
:105E50001868704702460B4610680344186870477C
:105E6000014609B9002070478868FCE700224260BB
:105E70008260CA1C22F003010160704770B50446BD
:105E8000216801F1080024F09BFF0546A5B100221E
:105E90002946204631F080F929462046626831F0D3
:105EA0006DF9606820B12A462046616831F074F9C6
:105EB0006560A06800B9A560284670BD70B504464D
:105EC000216801F1080024F07BFF0546A5B10022FE
:105ED0002946204631F052F929462046A26831F081
:105EE0005BF9A06820B12A462046A16831F046F946
:105EF000A560606800B96560284670BD014609B9B3
:105F000001207047486818B9886808B90120F8E787
:105F10000020F6E72DE9F04104460D460CB9BDE836
:105F2000F0812046FFF777FFA8420FD1294620468F
:105F3000FFF789FF6060606810B90020A0602FE063
:105F400000222046616831F027F929E02046FFF75A
:105F500087FFA8420FD129462046FFF77BFFA060AC
:105F6000A06810B9002060601AE000222046A168F5
:105F700031F004F914E029462046FFF76BFF06468E
:105F800029462046FFF75FFF07463A46314620463E
:105F900031F0F4F832463946204631F0FDF800BFC2
:105FA00000BFBCE710B504462068806818B12068BF
:105FB0002146826890472068006828B12068006800
:105FC00020602046FFF7EEFF10BD0146886818B13B
:105FD0008868B0F9160070470020FCE72DE9F04F03
:105FE00093B005468B4691469A461C9E688C20F0DD
:105FF0000400001D6884A5F820903289594628467F
:1060000028F082FC1290A5F820A032895946284633
:1060100028F07AFC1190688C20F004006884DDE997
:10602000111088420CD1DDE91110884208D1BDF869
:106030004800BDF84410884202D113B0BDE8F08F8B
:10604000A5F8209032895946284628F05DFC129028
:10605000A5F820A05946284612F051FA109031892F
:10606000109A1068129A2DF030FB3089602833D1D5
:1060700047F6FF711298884202D0119888422BD1BE
:10608000284628F068FE0F9000EBD0704710284695
:1060900028F061FE0F9000EBD0704FEA600847F6E1
:1060A000FF711298884208D1781C08F101018842DA
:1060B00000DA01E008F10100129047F6FF71119833
:1060C000884208D1781C08F10101884200DA01E019
:1060D00008F10100119000BF2448FFF7CFFE0446ED
:1060E00000BF1CB900BF00BF00BFFEE700BF04B97E
:1060F000A3E71298E06011982061ACB32560308965
:10610000A080C4F808B0684618F0E8FF2146684649
:1061100019F097F81649684619F063F81548029087
:1061200000BF1549684619F06AF8FF220021684649
:1061300019F077F83188684619F069F8718868466F
:1061400019F04AF8F068069000BF6846002190F800
:106150003E2061F3000280F83E2000BF30690590C8
:10616000684619F085F800BF00BF66E7945802241E
:10617000F5D60390A1D90390D1D8039010B514217E
:106180000148FFF773FE10BD945802242DE9FE4F1D
:1061900004460F4690464FF0000900256BE1E06889
:1061A00000EBC5004068C0F3406000B162E1E16807
:1061B00001EBC501496821F07F402AF0BCFE06468C
:1061C00026EA070008B9012000E00020029026EA34
:1061D000080008B9012000E000200190DDE901017C
:1061E000814272D0E06850F835A04FF0000B6A464B
:1061F00041F6100150462CF001FF10B14FF0010B99
:10620000A9E06A4641F6110150462CF0F7FE10B1A4
:106210004FF0010B9FE06A4641F6120150462CF008
:10622000EDFE10B14FF0010B95E06A4641F6130107
:1062300050462CF0E3FE10B14FF0010B8BE06A46A4
:1062400041F6150150462CF0D9FE10B14FF0010B6C
:1062500081E06A4641F6140150462CF0CFFE10B1A1
:106260004FF0010B77E06A4641F2690150462CF08D
:10627000C5FE10B14FF0010B6DE06A4643F20C0110
:1062800050462CF0BBFE10B14FF0010B63E06A46A4
:1062900043F20D0150462CF0B1FE10B14FF0010B4E
:1062A00059E06A4641F2010150462CF0A7FE10B1B8
:1062B0004FF0010B4FE06A4641F2040150462CF0CA
:1062C0009DFE18B14FF0010B45E0D2E06A4641F265
:1062D000020150462CF092FE10B14FF0010B3AE053
:1062E0006A4641F2030150462CF088FE10B14FF08F
:1062F000010B30E06A4641F2050150462CF07EFE6B
:1063000010B14FF0010B26E06A4641F206015046FB
:106310002CF074FE10B14FF0010B1CE06A4641F204
:10632000320150462CF06AFE10B14FF0010B12E022
:106330006A4643F60F0150462CF060FE10B14FF054
:10634000010B08E06A4643F60E0150462CF056FE5B
:1063500008B14FF0010BBBF1000F02D00320BDE8E4
:10636000FE8F6A4640F60A0150462CF047FE10B1F7
:106370004FF002097CE06A4640F60B0150462CF0D3
:106380003DFE10B14FF0020972E06A4643F60F017C
:1063900050462CF033FE10B14FF0020968E06A4617
:1063A00043F60E0150462CF029FE10B14FF00209C1
:1063B0005EE06A4640F63C0150462CF01FFE10B1EC
:1063C0004FF0020954E06A4640F63D0150462CF079
:1063D00015FE10B14FF002094AE06A4640F63A0154
:1063E00050462CF00BFE10B14FF0020940E06A4617
:1063F0004FF4046150462CF001FE10B14FF0020939
:1064000036E06A4640F6450150462CF0F7FD10B1E3
:106410004FF002092CE06A4640F6410150462CF04C
:10642000EDFD10B14FF0020922E06A4640F642014C
:1064300050462CF0E3FD10B14FF0020918E06A4617
:1064400040F6430150462CF0D9FD10B14FF002093F
:106450000EE06A4640F6490150462CF0CFFD10B1DF
:106460004FF0020904E0B9F1000F01D14FF001092A
:1064700000BF00BF6D1C608CC0F3C500A8423FF692
:106480008EAE48466BE70000014800687047000088
:106490007001002470470146C1F30412072A00DD91
:1064A0000722D0B27047000010B518210348FFF74B
:1064B000DDFC01202EF002FD10BD0000405802243A
:1064C0002DE9F04105460F4616460DB9BDE8F081AD
:1064D0002846F9F7DDFF8046394628460A4A126801
:1064E00090470746E8193146074A12689047064622
:1064F0003C4603E0A019285C2855641CA8EB060064
:10650000A042F7D200BFE1E7040300242DE9F041E7
:1065100006460C4617461D4629463046084A12686C
:1065200090472060206830B1296888190021044A0A
:106530001268904700E000203860BDE8F08100005C
:10654000FC0200242DE9F04F87B004460F46924626
:106550009846DDE910560DB1002028801CB90020B6
:1065600007B0BDE8F08F207808B90020F8E70FB930
:106570000020F5E74FF0000906F0020010B906F020
:10658000040098B1002000E0401C215C0A2905D0DD
:10659000215C0D2902D0215C0029F5D1215C01B1DB
:1065A000401C15B14FF0FF312980D9E706F00200F9
:1065B00008B141F6FF7800200690059038E00020F1
:1065C0000490059808B9012000E0002006A904AA5B
:1065D000CDE90062CDE902100599601843465246A4
:1065E00039462EF005FF83460498A8EB00000FFA09
:1065F00080F8049848440FFA80F9BBF1000F00D1ED
:106600001CE005985844059020780A2802D020788C
:106610000D2800D112E00598205C0A2803D00598C7
:10662000205C0D2803D10598401C059006E000BFB2
:106630000598205C10B1B8F1000FC0DC00BF0598D0
:1066400070B905A92046094A12689047834635B1BA
:1066500000225946384620F0F6FA0FFA80F900BFBA
:106660000DB1A5F8009005987AE70000FC0200241F
:106670002DE9F04706468846174606B10FB9BDE832
:10668000F0873046F9F704FF81463846F9F700FFF6
:10669000044604B9F3E704EB090A414630460B4AC5
:1066A000126890478046554603E0281B305C7055C1
:1066B0006D1E08EB0400A842F7D906EB080022463D
:1066C000394624F01CFE00BFD9E700000403002473
:1066D000024600200FA31B788B4211D113781BB9FF
:1066E0000123137001200BE01378012B02D100234A
:1066F000137005E01378022B02D1002313700120E0
:106700001378012B04D1202901D102231370012019
:10671000704700002300000073B582B0064603985E
:106720000190324600210846019B2FF07DF9054675
:10673000002001900024681C24F042FB044600BFA6
:106740001CB900BF00BF00BFFEE700BF14B90020A6
:1067500004B070BD002060553246691C2046039B82
:106760002FF062F92046F3E72DE9F04781460E4607
:1067700014461F46DDF820A035461BE0600800FBEC
:10678000075529464846D047B0F1000809DD04F016
:10679000010080F00100C0EB5404E81905460646EC
:1067A00008E0B8F1000F02DA6408354602E0284636
:1067B000BDE8F087002CE1D10020F9E72DE9FF4F7B
:1067C00085B08346DDE9158ADDE91349DDE91775F2
:1067D000129E05F00200F8B94FB105F0010030B18A
:1067E000B9F1000F02D105F00C0000B17F1E03E0EB
:1067F00030222046641C3254544501D2202CF7D359
:1068000003E030222046641C325405F0010018B128
:10681000BC4201D2202CF4D305F01000B0B305F433
:10682000806050B94CB1544501D0BC4205D1641EC2
:106830001CB1B8F1100F00D1641EB8F1100F09D1CE
:1068400005F0200030B9202C04D278222046641CA8
:10685000325415E0B8F1100F09D105F0200030B125
:10686000202C04D258222046641C325408E0B8F18F
:10687000020F05D1202C03D262222046641C325420
:10688000202C03D230222046641C3254202C16D2F5
:10689000B9F1000F04D02D222046641C32540EE0C2
:1068A00005F0040020B12B222046641C325406E07F
:1068B00005F0080018B120222046641C3254CDE9AE
:1068C0000275CDE90064584606A90EC900F0A2F889
:1068D00009B0BDE8F08F2DE9FF4F8FB08046DDE9AC
:1068E0001FABDDE91D96219D1C9C00270CB925F0EE
:1068F000100505F4806000B1E4B100BFB4FBF6F10F
:1069000006FB1141C8B20A2802DA00F1300107E0A3
:1069100005F0200109B1412100E0612101440A395B
:10692000CBB239467F1C07AA5354B4FBF6F40CB122
:10693000202FE3D307A8CDE904AB8DE881020396AD
:106940000695404610A90EC9FFF738FF13B0BDE801
:10695000F08F2DE9FF4F8FB0DDE9217BDDF89080CE
:10696000209EDDE91C454FF00009002184EA01006A
:106970006940084301D128F0100808F4806028B16C
:10698000002184EA0100694008432DD000BF32464F
:106990003B4620462946FAF7A0FE02F0FF0ABAF16C
:1069A0000A0F02DA0AF1300007E008F0200008B10F
:1069B000412000E0612050440A38C2B2484609F143
:1069C000010907A90A5432463B4620462946FAF7F0
:1069D00084FE04460D46002184EA01006940084314
:1069E00002D0B9F1200FD2D32398CDE9036BCDE9C2
:1069F000050807A91E98CDE9001902900FA80FC835
:106A0000FFF7DCFE13B0BDE8F08F9A4200D2885445
:106A1000704770472DE9FF5F05461446DDE90EA675
:106A2000DDE91087A34607F0020078B907F00100FE
:106A300060B9B14607E02246641C2020039B0199FF
:106A4000A84709F10109C145F5D300BF08E0224676
:106A5000641C711E0E461AF80100039B0199A84799
:106A6000002EF4D107F0020050B105E02246641C6C
:106A70002020039B0199A847A4EB0B004045F5D3C8
:106A8000204604B0BDE8F09F2DE9FF4F8BB00746CC
:106A900000250C9800B9FA4FEAE20E9800782528F4
:106AA0000AD02A466D1C0E990878DDE90C13B84708
:106AB0000E98401C0E90DBE20E98401C0E900024B5
:106AC00000BF0E9800782B2819D004DC20281ED097
:106AD00023282CD123E02D2809D0302827D144F0B9
:106AE00001040E98401C0E9001200A9022E044F010
:106AF00002040E98401C0E9001200A901AE044F007
:106B000004040E98401C0E9001200A9012E044F0FC
:106B100008040E98401C0E9001200A900AE044F0F0
:106B200010040E98401C0E9001200A9002E00020F4
:106B30000A9000BF00BF0A980028C2D180460E9973
:106B40000878FDF79BFE20B10EA8FDF782FE804677
:106B500012E00E9800782A280ED1189901C91891D0
:106B6000002804DA44F00204C0F1000800E0804686
:106B70000E99491C0E9100BF4FF000090E98007845
:106B80002E281FD144F480640E98401C0E900E995C
:106B90000878FDF773FE20B10EA8FDF75AFE814676
:106BA00010E00E9800782A280CD1189901C9189184
:106BB000002801DD014600E0002189460E99491CAC
:106BC0000E9100BF0E9800786C280AD004DC68286B
:106BD00016D06A2835D128E0742820D07A2830D100
:106BE00029E044F480740E98401C0E900E980078B2
:106BF0006C2804D144F400740E98401C0E9021E0DF
:106C000044F080040E98401C0E900E98007868287E
:106C100004D144F040040E98401C0E9012E044F45D
:106C200080740E98401C0E900CE044F400740E9892
:106C3000401C0E9006E044F480740E98401C0E90A8
:106C400000E000BF00BF0E98007869281DD00EDC60
:106C5000622821D006DC25287ED050281AD058285A
:106C60007BD115E0632879D06428F9D10CE0732832
:106C700075D004DC6F280ED07028F1D109E075289A
:106C800004D07828ECD102E000BF00BF00BF00BFF5
:106C900000BF00BF00BF00BF0E980078782803D067
:106CA0000E980078582801D1102623E00E9800781D
:106CB000702803D00E98007850280CD1102644F08C
:106CC000100444F480740E984078562812D10E981F
:106CD000401C0E900EE00E9800786F2801D1082617
:106CE00008E00E980078622801D1022602E00A2608
:106CF00024F010040E980078582803D00E980078DD
:106D0000502801D144F020040E980078692805D05D
:106D10000E980078642801D024F00C0404F48060FC
:106D200008B124F001040E980078692803D00E9869
:106D3000007864287CD104F40070B8B31898C01DA2
:106D400020F007001890D0E900AB189A083218928A
:106D50000020CDE9069803E073E17CE1F2E01CE15C
:106D6000CDE904600894BAEB00017BEB000001DA86
:106D7000012000E00020002102900846B1EB0A014A
:106D800070EB0B0002DA5046594605E00020014640
:106D9000B0EB0A0061EB0B01CDE900012A46384651
:106DA000DDE90C13FFF7D5FD0546C7E0FFE704F466
:106DB0008070D0B1189850F804AB18904FEADA7090
:106DC000CDE9039802960594BAF1000F01DD514612
:106DD00001E0CAF10001CDE900102A463846DDE99C
:106DE0000C13FFF778FD0546A8E004F0400028B139
:106DF000189810F8041B1890C8B20DE004F0800039
:106E000028B1189830F8041B189008B204E01898BC
:106E100000681899091D189182464FEADA70CDE989
:106E2000039802960594BAF1000F02DD514602E084
:106E30000BE0CAF10001CDE900102A463846DDE931
:106E40000C13FFF748FD054678E00E9800785628A9
:106E500018D1189850F804AB1890DAF804000068BC
:106E6000099009980090DAF800300D98421B0C98B0
:106E700041193846FFF708FE0544002009905DE0FF
:106E8000136A009004F40070D0B11898C01D20F06F
:106E90000700CDE90698089418900020CDE9046019
:106EA0000290189903C9189A08321892CDE9000186
:106EB0002A463846DDE90C13FFF74BFD05463DE059
:106EC00004F4807098B10022CDE9039802960594ED
:106ED000189800681899091DCDE9000218912A46F2
:106EE0003846DDE90C13FFF7F6FC054626E004F012
:106EF000400028B1189810F8041B1890C8B20DE093
:106F000004F0800028B1189830F8041B189088B25B
:106F100004E0189800681899091D1891824600200D
:106F2000CDE900A0CDE90398029605942A4638469B
:106F3000DDE90C13FFF7CFFC054600BF0E98401C9F
:106F40000E9093E0012604F0020050B905E02A46B5
:106F50006D1C2020DDE90C13B8473046761C4045F7
:106F6000F5D3189911F8043BD8B22A466D1C189134
:106F7000DDE90C13B84704F0020050B105E02A46E1
:106F80006D1C2020DDE90C13B8473046761C4045C7
:106F9000F5D30E98401C0E9068E0189850F804AB9A
:106FA00018905046B9F1000F01D0494601E04FF06A
:106FB000FF310A46014600E0491C0B781BB1131E45
:106FC000A2F10102F8D10E1A04F4806028B14E45F6
:106FD00001D2304600E04846064604F0020050B9AF
:106FE00005E02A466D1C2020DDE90C13B847304629
:106FF000761C4045F5D306E01AF8010B2A466D1CB5
:10700000DDE90C13B8479AF8000040B104F4806041
:107010000028F1D0B9F10000A9F10109ECD104F088
:10702000020050B105E02A466D1C2020DDE90C135A
:10703000B8473046761C4045F5D30E98401C0E905C
:1070400014E02A466D1C2520DDE90C13B8470E9884
:10705000401C0E900AE02A466D1C0E990878DDE966
:107060000C13B8470E98401C0E9000BF00BF00BF25
:107070000E98007800287FF410AD0D98854201D25B
:10708000284601E00D98401E02460020DDE90C1361
:10709000B84728460FB0BDE8F08F2DE9F04104460F
:1070A0000E46002774B13146204600F02DF8054603
:1070B000B5F5003F05D20C2D01D9284600E00C2083
:1070C000074600BF3846BDE8F081024600BF481EB3
:1070D000084018B100BF00BF00BFFEE700BF481E58
:1070E0001040101A704710B502464B1E13444C1E38
:1070F00023EA040000BF4B1E0B401BB100BF00BFC2
:1071000000BFFEE700BF10BD024600BF481E08409A
:1071100018B100BF00BF00BFFEE700BF481E10440B
:107120004B1E9843704702460020CB1C23F00301FE
:10713000D36E8B4205D3D36E5B1AD366906E431821
:10714000936670472DE9F04180460E464446012083
:107150006086002500270DE056F8270025A1F9F7E5
:10716000B3FA10B1681C85B202E0608E401C6086E4
:10717000781C87B256F8270020B156F8270000780F
:107180000028E9D1208EA84201D1BDE8F081A06A93
:1071900020B1A06A23F0E2FE0020A062E06A20B1E4
:1071A000E06A23F0DBFE0020E062E80023F008FE46
:1071B000A06200BFA06A18B900BF00BF00BFFEE711
:1071C00000BF680023F0FCFDE06200BFE06A18B970
:1071D00000BF00BF00BFFEE700BFA06A08B1E06AC1
:1071E00000B900256900E06A24F0CFF8258600BFC9
:1071F000CBE700000A0000002DE9F84F81460E465B
:10720000924699F8090000F00700022801D13046A3
:1072100000E050468346564501DD304600E05046CA
:107220000746032000EB470020F0030000F11005A3
:107230003948006839490968A0EB0108002405EBCA
:10724000080037490968884206D2334804686068F4
:1072500020F0004060603AE031480068854221D863
:1072600013E04FF0FF300090002269462D4813F0E4
:1072700055FE002269462C4813F050FE264800684F
:1072800026490968A0EB010800BF08EB0500244966
:1072900009688842E5D820480468606820F000400A
:1072A000606014E0284623F08BFD044600BF1CB943
:1072B00000BF00BF00BFFEE700BF14B90020BDE85B
:1072C000F88F606820F0004000F1004060603246B6
:1072D0005946484602F0DAF92060606800F0404004
:1072E000401C6060606820F080406060A781A4F866
:1072F0000EB06068C00F20B1204600F11001A160FF
:1073000008E0054800681030A06003480068284481
:10731000014908602046D2E778010024CC0200240D
:1073200074010024EF5A0190CDB40190F0B585B0FE
:1073300006460D463446002004900390029094F8CF
:107340003C0000F0030020B1012838D0022866D0AC
:1073500000BF94F83C0000F003005A4909788842C5
:107360001BD02620005D00EB001000EB4000142134
:1073700090FBF1F0544908702720005D00EB0010ED
:1073800000EB4000142190FBF1F05049087094F894
:107390003C0000F003004B49087002A803A9CDE9A6
:1073A000001005EB45014FF6FF7202EA410004AB05
:1073B00046490A78444909780DF00DFF5FE094F8DA
:1073C0003C0000F003003F49097888421AD0A08CA5
:1073D00000EB400040024FF4B471B0FBF1F03C49C7
:1073E00008802720005D00EB001000EB4000142116
:1073F00090FBF1F03549087094F83C0000F0030070
:107400003049087002A803A9CDE90010E9B204AB25
:107410002E4802782E4800880DF0DDFE2FE094F80B
:107420003C0000F003002749097888421AD0A08C5C
:1074300000EB400040024FF4B471B0FBF1F024497E
:1074400008802620005D00EB001000EB40001421B6
:1074500090FBF1F01C49087094F83C0000F0030028
:107460001849087002A803A9EAB204ABCDE90010DC
:1074700015480178164800880DF0ADFE00BF00BF2A
:107480009DF810009DF80C109DF80820D708BDF855
:10749000003067F304038F080093BDF8003067F3F2
:1074A0004A13C7080093BDF8003067F3CF23009359
:1074B000BDF800703B460193BDF80410084605B0C6
:1074C000F0BD0000E2010024E0010024E1010024FD
:1074D000DE01002410B50120074908700748FEF7B7
:1074E0009AFC20B9064800682DF0C4FD03E004486A
:1074F00000682DF0CBFD10BDB402002470580224AA
:10750000B802002410B5044694F83E00C0F34000D1
:1075100050B9A08F002807DDA08F4FF6FF71884279
:1075200002D0A08F401EA087A08FA8B9606B20B1A9
:1075300094F83E00C0F3400070B121461748FEF7B2
:10754000E9FCFFF7C7FFE06810B12046E168884713
:10755000204623F003FD1FE0A06B4042E062606B19
:10756000D0B194F83E10C1F3400111B9216B4942EA
:10757000E16294F83E104908C94394F83E2061F353
:10758000410284F83E20E069616AE1616062A06ABC
:10759000616BA162606300BF10BD000070580224DF
:1075A0002DE9F0418046424800682DF0DFFB064699
:1075B0004048007880F001003E4908703E48FEF7E0
:1075C0002AFC04466BE000203C49087094F83E0019
:1075D000C0F3800037490978884253D03548017894
:1075E0002C34A07C61F38200A07420688719A07CF1
:1075F0002C3CC0F3C00010BBE06A00281FDC002F49
:107600001DDB94F83E0000F0010060B9206950B124
:107610002046216988470546E0692844E061606AA0
:107620002844606200BFA06810B12046A168884766
:1076300094F83E0020F00800083084F83E00E06A2C
:107640003044E062E06A00281BDBD4E90A1088427B
:1076500001DDA06AE0622046A16988470546206AEC
:10766000A84206D02562606818B12946D4E9000214
:107670009047D4E90A10884202DB2046FFF742FF18
:1076800000BF00BF0D48007820B10B48FEF7C3FBD8
:10769000044604E021460848FEF7D5FB0446002CCA
:1076A00091D12DF070FB02490860BDE8F081000027
:1076B000B0020024B502002470580224B402002451
:1076C000F7B582B004460E4614B9049805B0F0BD73
:1076D00000BF63223146204627F016F90190019D34
:1076E00000BFBDB12868A8B100BF64223146204662
:1076F00027F00AF901900198C0B207464FB13A4607
:107700002B682846049998470190BDF80400ADF80D
:10771000100000BF0498D9E770B504460D466068B4
:1077200018B129466068FFF7F7FF206818B12946AD
:1077300020462268904770BD70B505460C46A1B240
:10774000284618F055FA70BD70B505460C46A1B232
:10775000284618F09EFA70BD10B511F001FD10BD5D
:1077600070B505460C46164606E028466A1C95B2DA
:1077700000F008F804F8010B301EA6F101018EB2EA
:10778000F3D170BD70B50446002611F0AFFD211293
:10779000A02202EB4101C8B211F070FD11F0EEFD24
:1077A0002546E11704EB11610912A4EB0121C8B2CF
:1077B00011F064FD11F0E2FD11F098FDA12011F02F
:1077C0005DFD11F0DBFD002011F028FD064611F0F3
:1077D000B5FD304670BD70B505460C46164606E050
:1077E0002178284600F009F8681C85B2641C301E18
:1077F000A6F101018EB2F3D170BD70B504460E46FC
:1078000011F074FD2112A02202EB4101C8B211F067
:1078100035FD11F0B3FD2546E11704EB11610912A6
:10782000A4EB0121C8B211F029FD11F0A7FD3046EB
:1078300011F024FD11F0A2FD11F080FD0A20F9F7EE
:107840002EFF70BDF0B503460C460025661E11E004
:10785000A81900EBD077791033F81100904201DDC0
:107860004E1E07E033F81100904201DA4D1C01E092
:107870000846F0BDB542EBDD4FF0FF30F9E770B5DB
:1078800003460C460025661E0FE0A819411033F888
:107890001100904201DD4E1E07E033F811009042C6
:1078A00001DA4D1C01E0084670BDB542EDDD4FF038
:1078B000FF30F9E72DE9F0470446884626686568F9
:1078C0004FF0000A277BD14600BF1FBB66B9A568F1
:1078D0004FF4007229462046236F9847064626B982
:1078E0006FF00100BDE8F0876D1C761EBAF1000F45
:1078F00009D04FF0000A287810B16FF00500F1E7C9
:10790000FF20287005E02878FF2802D14FF0010AF7
:107910000BE080274FEA49092878384008B149F040
:1079200001097F10A8F1010800BFB8F1000FCCD108
:107930002773266065604846D4E770B504460D4657
:1079400000BF204600F08FF918B100BF00BF00BF94
:10795000FEE700BF284600F0A4FA001D6168084455
:107960006060204600F08EF9204670BD70B5054677
:107970000C46284600F095FA04F11001884201D324
:10798000012070BD0020FCE70146A1F1080070470E
:107990002DE9F04F87B00C464FF4B55BCDF818B029
:1079A00041F2511BCDF814B042F6CF1BCDF810B008
:1079B00041F6905BCDF80CB04FF0000BCDF800B065
:1079C00080E0D0F800C0D0F84080D0F88090D0F8A7
:1079D000C0100CEB090AACEB090BCDF808B0A8EB12
:1079E000010B4FF4B55E0BFB0EFB4FEA2B37414406
:1079F0007F1A0AEB010CAAEB0101DDF808B007EBD6
:107A00000B08DDF808B0ABEB0709D0F8E050036ACB
:107A1000D0F8A060026EA3EB050A5F19A6EB020B7B
:107A2000CDF808B03244A7EB020B0BFB0EFB4FEA7C
:107A30002B333A44DDF808B0D34441F6905E0BFB9B
:107A40000EFB4FEA2B3BCDF804B041F2511B0AFB71
:107A50000BFEDDF804B0ABEB2E3542F6CF1EDDF8A1
:107A600008B00BFB0EFEDDF804B0ABEB2E3BABEB2E
:107A700002069B1BED1A0CEB020BC0F800B0ACEB3E
:107A8000020BC0F8E0B008EB060BC0F820B0A8EB82
:107A9000060BC0F8C0B009EB030BC0F840B0A9EB6F
:107AA000030BC0F8A0B001EB050BC0F860B0A1EB70
:107AB000050BC0F880B0001DDDF800B00BF1010B24
:107AC000CDF800B0DDF800B0BBF1080FFFF679AFDC
:107AD00020384FF0000BCDF800B0A2E0D0F800B095
:107AE0000BF5004CD0F80880D0F8109081690CEBB1
:107AF000090AACEB090BCDF808B0A8EB010B4FF469
:107B0000B55E0BFB0EFB4FEA2B3741447F1A0AEBA5
:107B1000010CAAEB0101DDF808B007EB0B08DDF85A
:107B200008B0ABEB0709C56943684669C268A3EBB7
:107B3000050A5F19A6EB020BCDF808B03244A7EB9B
:107B4000020B0BFB0EFB4FEA2B333A44DDF808B077
:107B5000D34441F6905E0BFB0EFB4FEA2B3BCDF876
:107B600004B041F2511B0AFB0BFEDDF804B0ABEB95
:107B70002E3542F6CF1EDDF808B00BFB0EFEDDF809
:107B800004B0ABEB2E3BABEB02069B1BED1A0CEBF0
:107B9000020BCBF3092BDFF89CE01EF80BB084F846
:107BA00000B0ACEB020BCBF3092B1EF80BB084F842
:107BB00007B008EB060BCBF3092B1EF80BB084F8CB
:107BC00001B0A8EB060BCBF3092B1EF80BB084F821
:107BD00006B009EB030BCBF3092B1EF80BB084F8AE
:107BE00002B0A9EB030BCBF3092B1EF80BB084F802
:107BF00005B001EB050BCBF3092B1EF80BB084F895
:107C000003B0A1EB050BCBF3092B1EF80BB084F8E6
:107C100004B008342030DDF800B00BF1010BCDF8D2
:107C200000B0DDF800B0BBF1080FFFF657AF07B0AA
:107C3000BDE8F08F8CA912907CB505460C46204615
:107C400000F02FF906466A4601A92EF00DFA2146EA
:107C50002846DDE9003212F0CDFC7CBD01460879F2
:107C600000F00100704710B50446204600F019F9F5
:107C700008B9012010BD0020FCE70146087900F09A
:107C80000200704770B50446204600F097F805469C
:107C90002C60284670BD7CB506460C46002001903D
:107CA000009000256CB16A4601A920462EF0F9F932
:107CB00001980B2805DA6A4601A9304631F0E6FA48
:107CC000054685B100BF284600F0EBF8A04203D27C
:107CD00000BF00BF00BFFEE700BF29463046DDE918
:107CE000003230F088FE28467CBD70B50446204640
:107CF000FFF7C8FF0546284600F0BEF8204600F012
:107D0000B6F870BD70B50446204600F057F8054639
:107D1000284600F0B6F8204600F0BEF870BD70B5F9
:107D200006460D46284600F049F8044600BF1CB937
:107D300000BF00BF00BFFEE700BF2046FFF78EFF79
:107D400090B100BF2846FFF78EFF18B100BF00BFFB
:107D500000BFFEE700BF2146304600F076F821461E
:107D60002846FFF7EAFD0546284670BD70B5064671
:107D70000D462846FFF781FFF0B1284600F057F87E
:107D8000044600BF1CB900BF00BF00BFFEE700BF34
:107D900000BF2046FFF762FF18B900BF00BF00BF59
:107DA000FEE700BF2146304600F04FF82946204646
:107DB000FFF7C3FD054600BF284670BD2DE9F04121
:107DC0000446204600F06DF8061F204600F0B8F883
:107DD000074631462FF094FA054600BF2046FFF7CC
:107DE00042FF18B100BF00BF00BFFEE700BF28463A
:107DF000BDE8F0812DE9F04106460C461546002706
:107E000094B100BF1DB900BF00BF00BFFEE700BFB7
:107E10002A462146304600F097F82046FFF772FFC9
:107E2000204600F08DF807463846BDE8F08110B5D1
:107E3000044600BF2046FFF720FF18B900BF00BF6F
:107E400000BFFEE700BF206810BD7CB505460C46AC
:107E5000204600F026F806466A4601A92EF004F9ED
:107E600021462846DDE9003230F0C5FD7CBD416881
:107E700041F0010141607047416841F002014160F9
:107E80007047416821F0020141607047426802F08A
:107E900003030B4343607047416821F001014160D7
:107EA00070470146486820F0030070472DE9F0470D
:107EB00006460C46304600F043F88046211F2FF05E
:107EC0001FFA07463046FFF7ECFF211D451A00BF99
:107ED000384600F035F88146384600F031F88046E3
:107EE0000421FFF700F9814503D000BF00BF00BFA8
:107EF000FEE700BF00BF3046FFF7D3FF2919091D79
:107F0000884203D000BF00BF00BFFEE700BF294684
:107F10003846FFF7BBFF00BF3846FFF7C2FF0C280B
:107F200003D200BF00BF00BFFEE700BF21463046BE
:107F3000FFF7ACFF3846FFF7D8FE3846BDE8F087BC
:107F4000014601F1080070472DE9F04106460C4654
:107F5000154600BF2046FFF781FE18B900BF00BFDD
:107F600000BFFEE700BF29462046FFF7FFFC78B1BF
:107F700029462046FFF79AFF07462046FFF782FE74
:107F80003846FFF779FF39463046FFF755FE00BF08
:107F9000BDE8F0812DE9F04106460C46154600BFCC
:107FA0002046FFF75BFE18B100BF00BF00BFFEE731
:107FB00000BF29462046FFF7D9FC88B12946204654
:107FC000FFF774FF07463846FFF75BFF3946304638
:107FD000FFF7A5FE074639463046FFF72DFE00BFE6
:107FE000BDE8F0812DE9F8430646344620F026FE30
:107FF0008046404620F067FE78BB30461EF0A9F967
:1080000038B330461EF021F8208FE18E884212D01E
:10801000E08E2087E08E00906A461C2130461EF0DC
:1080200085FC0746012F02D03846BDE8F88330466C
:1080300027F08BFA00BF404620F055FE0546042D80
:1080400006D1304625F0E2F8074600211FF0E9FB93
:1080500009E030461EF0E0F905E0FFE7208FE086FA
:10806000304627F072FA0120DFE72DE9F04104469F
:1080700020461EF055FC0546284625F021F9064607
:10808000284618F0F9FE07460122394630462CF002
:108090000BF8BDE8F0810146C1F3C01070470146FE
:1080A000C1F3801070470146C1F3C010704701460C
:1080B000C1F3002070470146C1F3C000704701467C
:1080C000C1F3401070470146C1F34020704701469C
:1080D000C1F3003070470146C1F300107047000043
:1080E0002DE9F04F89B004460D460021204624F0CA
:1080F00082FF30B91C21284623F047F909B0BDE8BA
:10810000F08F2946204600F00BFB2946204600F060
:108110007DF80021204626F0AEF908900021204687
:1081200026F022FB07900021204625F064FF01285D
:1081300000D100E0002081460021204626F0D7FD36
:1081400007460021204626F044F8064642F2D17048
:10815000874205D1608CC0F3802008B9012000E07F
:1081600000208246204624F0E6FF069000BF4FF034
:108170000008244802884146204626F0C5FB0390AB
:108180000398C0B200BF8346AA6829692868CDE970
:108190000209CDE900125A465146089B069810F094
:1081A000A7FA288342F2D170864205D1608CC0F3D1
:1081B000402008B9012000E000200590204624F06E
:1081C0009BFF049000BF4FF000080F480288414613
:1081D000204626F099FB03900398C0B200BF834667
:1081E0000023EA6869686869CDE90213CDE90002F5
:1081F0005A46079BDDE9040110F07AFA688300BF54
:108200007CE700007E020024820200242DE9F34F67
:1082100087B00C4607980FF059F88046079824F06D
:108220008AFF0690404601F0ACFA206121694800BF
:1082300022F000FE20602169480022F0FBFDA060D2
:10824000002548E05848029038F9150041F69A7127
:1082500088423FD10020019029E00199079824F03D
:10826000CAFE00905149009826F0DDFD00B11BE0E8
:1082700000980FF049F88246BAF1010F00D013E0E0
:1082800000980FF031F88346AB4500D00CE0009821
:1082900026F061FD0299884201DA029802E0009816
:1082A00026F059FD029000BF0198401C01900798EC
:1082B00024F0BFFE01998842CFD80298002804DB41
:1082C0000298A16821F8150003E00021A06820F8B9
:1082D000151000BF6D1C2069A842B3D80026B14616
:1082E00000251BE038F9150041F69B71884202DB3E
:1082F000411A0E4411E041F69A71884206D1A168F4
:1083000031F8151049440FFA81F906E0A16821F807
:10831000150009EB00010FFA81F96D1C2069A842D4
:10832000E0D80021079826F0A6F805902169491E9B
:10833000DDE9050200FB112000B206900698A0EBD3
:10834000090007B2002F00DA00274FF0FF30049039
:1083500000200390002513E038F9150041F69B71C9
:1083600088420CDB421A11B207FB01F2B2FBF6F2B3
:1083700012B2A36823F815200495039100BF6D1C69
:108380002069A842E8D8049800280ADB0398301A2C
:108390007843B0FBF6F0381A01B2A268049822F8CC
:1083A000101009B0BDE8F08F01E0FFFF01000600EA
:1083B0002DE9FC5F054600221146284628F08AF97F
:1083C0000021284625F071FE81460021284626F02E
:1083D000F2F9484407B20021284625F0A3FF48449B
:1083E0000FFA80FA284625F05FFD384450440FFA12
:1083F00080FB3B4E284624F01CFE01904FF0000805
:108400005CE0A868006850F828403649204626F00D
:108410000AFD00B150E0204627F014F9002839D1B8
:108420000021204625F072FD0090009830B101280F
:1084300007D0022804D0032815D100E000BF00BFF8
:1084400000BFB4F91A10B5F91600081A401CB04262
:1084500001DA304605E0B4F91A10B5F91600081A29
:10846000401C06B214E00021204626F067FC70B9DB
:1084700004F1140017F0E7FC3844B04201DA30464A
:1084800004E004F1140017F0DEFC384406B200BF2B
:1084900000BF10E0B4F91A10B5F91600081A401C14
:1084A000B04201DA304605E0B4F91A10B5F9160009
:1084B000081A401C06B200BF08F101080198804567
:1084C0009FD30748864209D006EB0A0006B25E45F4
:1084D00002DD3046BDE8FC9F5846FBE75846F9E709
:1084E00001E0FFFF010004002DE9FC5F05460022CA
:1084F0001146284628F0D2F80021284625F0D5FD5F
:1085000082460021284626F093F850440FFA80F85E
:108510000021284625F0E3FF50440FFA80F9284651
:1085200025F0D2FC4844404400B20190724C2846E9
:1085300024F07FFD83460021284625F028FD0128F0
:1085400066D100265BE0A868006850F826706B4989
:10855000384626F068FC00B150E0384627F072F843
:10856000002839D10021384625F0D0FC0090009831
:1085700030B1032805D0062804D0082815D102E020
:1085800000BF00BF00BFB5F91800B7F91410401ABA
:10859000401CA04201DA204605E0B5F91800B7F901
:1085A0001410401A401C04B214E00021384626F092
:1085B000B8FB70B907F1140017F0B8FC4044A042B2
:1085C00001DA204604E007F1140017F0AFFC404444
:1085D00004B200BF00BF10E0B5F91800B7F91410DD
:1085E000401A401CA04201DA204605E0B5F9180007
:1085F000B7F91410401A401C04B200BF761C5E4547
:10860000A1D33D48844269D004EB090004B265E07F
:1086100000265BE0A868006850F8267037493846A5
:1086200026F001FC00B150E0384627F00BF880BB83
:108630000021384625F06AFC0090009830B10128EE
:1086400005D0042804D0072815D102E000BF00BFE0
:1086500000BFB7F91800B5F91410401A401CA04229
:1086600001DA204605E0B7F91800B5F91410401AF0
:10867000401C04B215E00021384626F05FFB78B9B3
:1086800007F1140017F052FC4844A04202DA2046D9
:1086900005E008E007F1140017F048FC484404B274
:1086A00000BF00BF10E0B7F91800B5F91410401A68
:1086B000401CA04201DA204605E0B7F91800B5F9E0
:1086C0001410401A401C04B200BF761C5E45A1D3B2
:1086D0000948844202D004EB080004B206488442F0
:1086E00002D10198BDE8FC9F0198844201DD20463B
:1086F000F8E70198F6E7000001E0FFFF0100040041
:1087000010B50446206822F011FC606822F00EFCCF
:10871000A06822F00BFCE06822F008FC10BD00000D
:108720002DE9F34F87B00C4607980FF077FD804690
:10873000404601F026F860616169480022F07AFB4A
:1087400060606169480022F075FBE060002548E048
:108750005948029038F9150041F69A7188423FD184
:108760000020019029E00199079824F044FC009032
:108770005249009826F057FB00B11BE000980FF01B
:1087800015FE8246BAF1010F00D013E000980FF0F9
:10879000FDFD8346AB4500D00CE0009824F040FD81
:1087A0000299884201DA029802E0009824F038FD2C
:1087B000029000BF0198401C0190079824F039FCFA
:1087C00001998842CFD80298002804DB0298E1681A
:1087D00021F8150003E00020E16821F8150000BF32
:1087E0006D1C6069A842B3D80026B14600251BE085
:1087F00038F9150041F69B71884202DB411A0E449C
:1088000011E041F69A71884206D1E16831F81510FD
:1088100049440FFA81F906E0E16821F8150009EBF7
:1088200000010FFA81F96D1C6069A842E0D80021AF
:10883000079825F099FF0690079824F05DFC014603
:108840006269521E069800FB121000B2059005984E
:10885000A0EB090007B2002F00DA00274FF0FF302D
:10886000049000200390002511E038F9150041F62E
:108870009B7188420ADB421A11B207FB01F2B2FB7C
:10888000F6F212B2E36823F8152000BF6D1C606990
:10889000A842EAD8049800280ADB0398301A7843E3
:1088A000B0FBF6F0381A01B2E268049822F8101012
:1088B00009B0BDE8F08F000001E0FFFF01000600F5
:1088C0007CB504460D46164628882189084400B226
:1088D000ADF8000068886189084400B2ADF8020074
:1088E000A8882189084400B2ADF80400E8886189AD
:1088F000084400B2ADF80600324669462046636976
:1089000098477CBD2DE9F04704460D4690469946B0
:10891000AD1E606B00EB153AC5F3C80605F0070104
:1089200001208840C7B200BF51460AF1010A204623
:108930002EF084F910B10120BDE8F08700BF00BF20
:1089400004F13C00805D384008B1012000E00020C7
:10895000484501D10220EFE704F13C00805D7840FA
:1089600004F13C0188550120E070A8F10100B0F14C
:10897000000800D1E0E77806000E071EE0D10127CD
:10898000701C0646B0F5007FD9D30026CCE7000066
:10899000F8B505460E462C46206B10B1206B0078CA
:1089A00018B9606B08B90120F8BD606B58B1284652
:1089B0002BF089FF0746104909688847616B884298
:1089C00001D30020F0E7206B98B1002000900AE06E
:1089D00069460A4A206B126890470746B74201D1A0
:1089E0000120E1E700BF206B0099405C0028EFD137
:1089F000DAE70120D8E700000C030024FC02002481
:108A000070B504460D460020E070401EA063294664
:108A100020462EF013F908B1042070BD04F23A206C
:108A200015F01EFF4AF65521884201D00320F4E7D5
:108A30000B2214A104F13C002DF0E8FD08B901203F
:108A4000EBE794F83C00E92807D094F83C00EB28C9
:108A500003D094F83C00E82811D103220CA104F1C2
:108A600072002DF0D3FD08B90020D6E7052209A138
:108A700004F18E002DF0CAFD08B90020CDE70220D8
:108A8000CBE70000EB76904558464154202020006B
:108A90004641540046415433320000002DE9FF4F57
:108AA0008FB00F46209DF87800F0010008B1FA4819
:108AB00000E0FA480E90F87800F0010008B1F8489C
:108AC00000E0F8480D90F87800F0010008B9F4488B
:108AD00000E0F4480C9001200B90B5E000220B92CE
:108AE00000206A88B5F804C0A2EB0C0211B200267F
:108AF0001AE006EB860CEA6802EB8C02127C02F0AC
:108B0000010242B906EB860CEA6802EB8C029289FC
:108B1000024410B207E006EB860CEA6802EB8C0216
:108B200012898A1A11B2761C2A69B242E1D800264B
:108B300085E006EB860CEA6802EB8C02127C02F000
:108B40000102002A7AD191FBF0F80FFA88F306EBC4
:108B50008609D5F80C8008EB8908B8F80C8008FB6A
:108B600003F80FFA88F206EB8609D5F80C8008EBBB
:108B70008908B8F9049006EB860AD5F80C8008EB52
:108B80008A08B8F90680904501DD904607E006EBBB
:108B9000860AD5F80C8008EB8A08B8F90680C1452A
:108BA00008DD06EB8609D5F80C8008EB8908B8F9D2
:108BB000048013E006EB8609D5F80C8008EB8908E1
:108BC000B8F90680904501DD904607E006EB86097E
:108BD000D5F80C8008EB8908B8F90680C44694459E
:108BE0000BD04FF0010806EB860AD5F80C9009EB84
:108BF0008A09C9F81080CDF82C8006EB8609D5F8D3
:108C00000C8008EB8908A8F808C006EB8609D5F89F
:108C10000C8008EB8908B8F80C80A0EB08080FFA64
:108C200088F006EB8609D5F80C8008EB8908B8F8BF
:108C30000880A1EB08080FFA88F100BF761C2A69AA
:108C4000B2423FF676AF00BF0B9800287FF446AFE4
:108C500000210F9825F0C2F9012800D100E0002082
:108C60000A9000200990089008A809A9CDE90010F1
:108C700029890BB2B5F9022038781E992EF08AFBAB
:108C8000F87800F0010048B10A9838B10F9824F044
:108C900052FABDF82410084400B2099011990F98B7
:108CA00024F0A9F904468AE17F49204626F0BBF862
:108CB00040B1F878C0F3800111AA0F980FF0E9F8DD
:108CC00004467CE10021204625F04CFA07900798E5
:108CD000002858D000200390002610E006EB860103
:108CE000E86850F82100A04208D106EB8600E96848
:108CF00001EB8000B0F90800039003E0761C2869BE
:108D0000B042EBD800BFF87800F0010030B1608CC1
:108D100020F4806000F58060608405E0608C20F4C1
:108D2000007000F50070608404F114000D9988470C
:108D30000399884226D0204626F007FC00BFA08A6F
:108D4000ADF80400E08AADF80600208BADF808000D
:108D5000608BADF80A0000BF04F114000E9A03996D
:108D6000904701AA292120461DF0E0FD204624F06D
:108D7000A7FA2246222100901DF0D8FD204626F0B9
:108D8000E4FB00BF07E0608C20F480606084608CAE
:108D900020F400706084002006907878012812D0BA
:108DA000022819D104F114000C998847B5F9001074
:108DB000491C21F00101081A039000EBD07040100B
:108DC00000B2069009E004F114000C998847298844
:108DD000081A00B2069000E000BF00BFF87800F06B
:108DE000010050B10A9840B104F114000D99884770
:108DF000BDF82410081A00B209900020039043F235
:108E00000C022046039925F07FFD029002980FFA8C
:108E100080F800BF0020039043F20D022046039922
:108E200025F072FD029002980FFA80F900BF2046EB
:108E300025F091FF0590204624F0F2F9049008F403
:108E4000C040B0F5005F01D1012000E0002030B14A
:108E500028F4C040B0F5FA6F01DC012000E00020EA
:108E600090B128F4C040B0F57A7F04DD28F4C0400A
:108E7000C0F57A7001E028F4C040059948436421A8
:108E800090FBF1F00FFA80F809F4C040B0F5005FF4
:108E90000CD101200BE000006B0002905F000290FB
:108EA000B9FF0190A9FE019001000600002030B139
:108EB00029F4C040B0F5FA6F01DC012000E0002089
:108EC00090B129F4C040B0F57A7F04DD29F4C040A8
:108ED000C0F57A7001E029F4C04004994843642148
:108EE00090FBF1F00FFA80F9A18A1C98401A4044D7
:108EF0000FFA80FAE18A1D98401A48440FFA80FB65
:108F0000F87800F0010010B1BDF9240000E00698E7
:108F100050440FFA80FAF87800F0010008B1069882
:108F200001E0BDF9240058440FFA80FBBAF1000FAC
:108F300002D1BBF1000F1BD0204626F006FBA08A11
:108F4000504400B2A082208B504401B22183E08AB9
:108F5000584401B2E182608B584401B261832046DB
:108F600026F0F3FA01235A465146204626F0CAFB62
:108F7000F87800F0010008B10A9870B904F1140003
:108F80000D9988471F990844BDF820100844BDF882
:108F90002410084400B2099008E0BDF820101F9882
:108FA0000844BDF82410081A00B20990F878C0F3FC
:108FB000800111AA0F980EF06CFF044600BF24B187
:108FC000DDE9111081427FF46FAE13B0BDE8F08F80
:108FD000024600E0521C107810B110788842F9D196
:108FE000107870472DE9F04F8DB005468946B9F1EC
:108FF000000F02D10DB0BDE8F08FA5F818902868D9
:1090000010B1286821F0AAFF09EB4901062202EB02
:10901000410021F0D5FE286000BF286818B900BFC4
:1090200000BF00BFFEE700BF286868600221286813
:1090300001FB0900801CE8600421286801FB09008D
:10904000001DA860B9F1010F0CD1B4206968087047
:109050000020E96808800120E96848800020A968AC
:109060000880C7E709F10101C80021F0E3FE0746C7
:1090700009F1010007EB80084FF0000A4FEA890070
:1090800002B20BA90CA800F067F90024BDF930006A
:109090008010079000200390CCE0002616E00BA97A
:1090A0000CA800F061F90CA800F04BF900B90FE032
:1090B000BDF93000801007A941F82600BDF8300046
:1090C00000F0030003A941F82600761C042EE6DB1D
:1090D00000BF042E00D0B3E00A990798884219D146
:1090E000079800B227F814000FFA8AF028F8140045
:1090F000DDE90301084405990844069908446968B4
:1091000008556868005D0007000E69680855601C16
:1091100004B28DE0DDE9070188422CD0079800B247
:1091200027F814000FFA8AF028F8140003986968E9
:1091300008556868005D0007000E69680855601CE6
:1091400004B20798401E00B227F814000FFA8AF004
:1091500028F814000498001D05990844069908444D
:10916000696808556868005D0007000E6968085561
:10917000601C04B25CE00999079888422CD00798DB
:1091800000B227F814000FFA8AF028F81400DDE97D
:1091900003010844696808556868005D0007000E0F
:1091A00069680855601C04B20798401E00B227F891
:1091B00014000FFA8AF028F8140005980830069970
:1091C0000844696808556868005D0007000E696812
:1091D0000855601C04B22BE0079800B227F8140071
:1091E0000FFA8AF028F81400DDE903010844059914
:1091F0000844696808556868005D0007000E6968E2
:109200000855601C04B20798401E00B227F81400ED
:109210000FFA8AF028F8140006980C30696808558F
:109220006868005D0007000E69680855601C04B29C
:109230000AF1010A0CA800F084F800287FF42DAF91
:1092400000BF40F2D32109FB01F002900298801286
:109250000190601E37F910100198814205D1601EFF
:1092600038F910100198814226D0DDE90121A1EBE7
:109270008220B0F5007F04DC00FB00F14800001400
:1092800007E0C0F5806000FB00F148000014C0F169
:109290000F00019909B227F81410019909B228F8B2
:1092A00014106A6810556968095D0907090E6A6833
:1092B0001155611C0CB200BFA61E0EE038F8160056
:1092C00027F8140037F8160028F814006868805D45
:1092D00069680855761E601C04B2002EEEDA4FF065
:1092E000000B00260020E968088023E0E96821F8E7
:1092F0001B6037F81600A96821F81B0010E0A86869
:1093000030F81B0037F91610884203DAA86830F8E5
:109310001B0001E037F91600A96821F81B00761C34
:1093200038F91600584501D1A642E8DB0BF10100DF
:109330000FFA80FBA642D9DB384621F0F7FD00BFCB
:1093400058E60146B1F90200B1F90020904201DC73
:10935000012070470020FCE7028000234380C2F117
:1093600001031BB20B807047B1F90020002A07DC13
:109370000B8842885200D21C1A4412B20A800CE0B8
:1093800042880388D21A5200521D0B881A4412B226
:109390000A800288521E12B202804288521C12B207
:1093A000428070472DE9F84F824615461E46DAF88E
:1093B00000000090DAF8500000F104094FF4007248
:1093C000002328463146F8F788F907460098B0F898
:1093D0000AC0624600233846F8F77FF9834600BF8B
:1093E00059F8044B14B90020BDE8F88FA34500D20A
:1093F00004E0ABEB040B09F10409F1E700BFD9F875
:1094000000005844F0E70246891ED069801E884259
:1094100001D8002070475389106B03FB0100F9E766
:109420002DE9F04780460C4604F11A0015F018FAB1
:1094300010B10020BDE8F087207800F03F00401E0A
:1094400000EB800101EBC0054FF00109002621E08F
:109450001849895D081915F003FA0746B9F1000F9C
:1094600011D0FF2D0BD838460BF09AFF82462946C3
:109470006D1C38F811000BF093FF824501D00020DD
:10948000D8E7B94605E04FF6FF70874201D00020CB
:10949000D0E7761C0D2EDBD3207800F0400038B1E9
:1094A000B9F1000F04D038F8150008B10020C1E769
:1094B0000120BFE78CAD129037B582B01546022D62
:1094C00004DCBDF80C10084605B030BDBDF80C003A
:1094D000C00ABDF8081000EBD1241F2C01D2204691
:1094E00000E01F20BDF8081060F3CF210291BDF805
:1094F0000C00C0F34510BDF80810C1F34511441825
:109500003F2C01D2204600E03F20BDF8081060F358
:109510004A110291BDF80C0000F01F00BDF80810C0
:1095200001F01F0144181F2C01D2204600E01F202B
:10953000BDF8081060F304010291FF2D03D1BDF8BE
:1095400008100846C0E72A46DDE9020118F0E6FEE9
:109550000190BDF804100846B6E717B581B014466F
:10956000022C04DCBDF80810084604B010BDBDF89C
:109570000400C00ABDF80810C90A10FB01F0410937
:10958000BDF8040061F3CF200190BDF8040000F0A5
:109590001F00BDF8081001F01F0110FB01F0410988
:1095A000BDF8040061F304000190BDF80400C0F3AD
:1095B0004510BDF80810C1F3451110FB01F08109F9
:1095C000BDF8040061F34A100190FF2C03D1BDF8EF
:1095D00004100846C9E72246DDE9010118F09EFEA5
:1095E0000090BDF800100846BFE737B582B01546B9
:1095F000022D04DCBDF80C10084605B030BDBDF8E6
:109600000C00C00ABDF80810A0EBD124002C01DD2D
:10961000204600E00020BDF8081060F3CF21029141
:10962000BDF80C00C0F34510BDF80810C1F345119A
:10963000441A002C01DD204600E00020BDF808108F
:1096400060F34A110291BDF80C0000F01F00BDF854
:10965000081001F01F01441A002C01DD204600E033
:109660000020BDF8081060F304010291FF2D03D122
:10967000BDF808100846C0E72A46DDE9020118F0E7
:109680004DFE0190BDF804100846B6E708B5034644
:1096900000930098484080EA620008BD2DE9F84F29
:1096A000804640461DF03CF9824640461DF0D7F802
:1096B0000646504623F004FE81462B2E09D148462B
:1096C0002AF0E5FC04460022214648462AF0ECFC3C
:1096D0003AE00A2E38D16946504623F073FE5046D0
:1096E00023F029FD04460021484624F06AFC0128A5
:1096F0000AD1204604EBD071BDF90020C2EB610114
:1097000091FBF4F10DB209E0204604EBD071BDF9F4
:10971000002002EB610191FBF4F10DB2002D00DAA3
:109720000025002748462AF0B2FCA84200D00127B5
:109730000122294648462AF0B7FC27B100221C2105
:1097400048461DF0F3F800BFBDE8F88F10B5806003
:10975000C06000230361002110E0002400F1140325
:1097600043F82140002206E000F1400303EBC1135F
:1097700043F82200521C202AF6DB491C0B29ECDBA3
:1097800010BD0146002000E0401C31F9102041F6D8
:10979000FF739A42F8D170472DE9F04706468A4692
:1097A0003468BAF1000F0AD1D4F81480B8F1000F70
:1097B00002D0E069404516D84FF0010813E0514649
:1097C00030460DF0D7FD0746022F02D20120BDE83A
:1097D000F087781C08B93846F9E7E069B84201D942
:1097E0003846F4E7D046A06908B90020EFE72078B2
:1097F00004284ED10122414620460CF01BF90546B3
:109800000DB1681C08B92846E1E701231A4629462C
:109810002046FFF777F88146B9F1020F01D1012008
:10982000D5E7B9F1010F02D14FF0FF30CFE7BAF120
:10983000000F02D10220F0710CE0F079022809D16A
:1098400008F10100854205D0B068A8EB0000B061C6
:109850000320F071F079022869D00AF101008542F5
:1098600007D1F06910B1F069401C00E00220F061FE
:109870005DE0F06908B90120F0612A4651463046A2
:109880000BF0B3FE8146B9F1000F50D10120F06119
:109890004DE00025D04519D108F10105E069A84245
:1098A00000D80225294630460DF064FD0746012FF9
:1098B00001D0781C08B9384689E73FB16769022FA3
:1098C00003D3E069B84200D9B8460025E5B945465A
:1098D00000BF6D1CE069A84204D80225454501D9A6
:1098E000002074E7294630460DF044FD074607B9CD
:1098F00009E0012F01D0781C08B9384667E74545D3
:10990000E7D1002063E700BF4FF0FF322946204631
:109910002EF0EDF98146B9F1000F08D1BAF1000F30
:1099200005D02A46514620462EF0E1F98146B9F18C
:10993000000F0DD16561D4E90610801E814202D866
:10994000A069401EA061207940F00100207107E06D
:10995000B9F1010F02D14FF0FF3000E001200546C0
:10996000284634E72DE9F74F86B00D46164689E0C4
:10997000112E03D2062009B0BDE8F08F113E15F874
:1099800001AB0AF0EE0008B10620F4E74FEA2A190D
:109990000AF00F00039010210698FDF7C4FB8046E3
:1099A000B8F1000F01D10320E5E7069820300399B4
:1099B00000EBC10040F8298000200446074605E07E
:1099C00015F8011B08F804100F44641C102CF7D381
:1099D00079000698FDF7A7FB0190019808B90320CC
:1099E000C9E706983030039A00EBC200019940F8AD
:1099F000291000200290044605901AE018F804008F
:109A000004900AE00598421C02990592019A22F8F6
:109A100010100298401C80B202900498411E0491DC
:109A20000028EFD14FF6FF71029801EA4000029042
:109A3000641C102CE2D3BE4201D206209BE7F61B29
:109A400039460698FDF76FFB8346BBF1000F01D145
:109A5000032090E706984030039900EBC10040F8DE
:109A600029B000240CE015F801ABB9F1000F04D1C6
:109A7000BAF10B0F01DD06207DE70BF804A0641C92
:109A8000BC42F0D3002E7FF473AF002073E70000D8
:109A90002DE9F34F85B08146069800680290D9F809
:109AA0000000D0F80CA0002500BF02A831F07DFE18
:109AB00083460BF1010018B9062007B0BDE8F08F0E
:109AC000BBF5803F05D34FEA1B4228466D1C2AF8A0
:109AD00010201FFA8BF4202C03DB2F2C01D05C2CE0
:109AE00000D111E0802C06DA214679A0FFF770FA48
:109AF00008B10620E1E7FF2D01D30620DDE7284667
:109B00006D1C2AF81040D0E700BF202C01DA042693
:109B10000CE0002602E00298401C029002980078B7
:109B20002F28F8D0029800785C28F4D00299069883
:109B3000016008E0681E3AF81040202C02D02E2C5C
:109B400000D002E06D1E002DF4D100BF00202AF8E5
:109B500015000DB90620B0E7002700E07F1C3AF899
:109B600017002028FAD01FB93AF817002E2801D183
:109B700046F0030600E06D1E25B1681E3AF810009D
:109B80002E28F8D10B22202109F140002CF05DFD98
:109B90004FF00008CDF810800820039000BF384631
:109BA0007F1C3AF8104004B966E0202C03D02E2C1C
:109BB00004D1AF4202D046F00306F0E7DDE903101E
:109BC000884201D2AF4216D103980B2802D146F049
:109BD000030651E0AF4201D046F00306AF4200D980
:109BE0004AE02F46082004900B2003904FEA88603B
:109BF0004FEA1068D3E7802C0ADB46F002062046C5
:109C00000BF0CEFB4FF46A7101900BF08FFB044612
:109C1000FF2C11DD0398401E0499884204D846F0B9
:109C2000030603980490BAE722120498411C049199
:109C300009F140010A5418E024B1214627A0FFF79A
:109C4000C7F918B15F2446F003060EE0412C03DB90
:109C50005A2C01DC48F00208612C06DB7A2C04DC6B
:109C600048F00108A4F1200084B20498411C04913A
:109C700009F140010C5492E700BF99F84000E52833
:109C800002D1052089F840000398082803D14FEA43
:109C900088604FEA106808F00C000C2803D008F028
:109CA0000300032801D146F0020606F0020048B97D
:109CB00008F0010008B146F0100608F0040008B1F1
:109CC00046F008064B2000F809600020F5E6000089
:109CD000222A3A3C3E3F7C7F000000002B2C3B3D7B
:109CE0005B5D00002DE9F04782460C4616462BE0EE
:109CF000412E02D20620BDE8F087413E14F8019BB8
:109D000009F0F00008B10620F5E709F003074FF469
:109D100080715046FDF707FA05460DB90320EAE7C2
:109D20000AF1500040F8275000270BE0084810F8CF
:109D3000078014F8010B074931F81810484345F81B
:109D400028007F1C402FF1D3002ED1D10020D2E774
:109D5000CCA812900CA912902DE9F04704460E46AB
:109D60004022002120462CF070FC85202070C0206D
:109D700084F8200040250020804607464FF0010966
:109D800000BFC12228466D1C2254002228466D1CAB
:109D9000225400BFB9F1000F06D036F81700B0F119
:109DA000000901D0781CC7B2601949462FF0E4FCC5
:109DB000AD1C05F01F000028ECD108F1010000F0F7
:109DC000FF0836F817000028DBD184F8237008F16B
:109DD00001006070304634F0D2FC8246514604F1F6
:109DE00024002FF0C9FCBDE8F087000010B500BFCB
:109DF000002208211048F7F74DFC00BF00F01EF8C4
:109E000000BF012211460C48F7F744FC00BF00F0E8
:109E100015F800BF002201210748F7F73BFC00BFFF
:109E200000F00CF800BF012208210348F7F732FCCC
:109E300000BF00F003F810BD0004025810B5022066
:109E4000F7F75AFC10BD000000B587B000BF00BF97
:109E50001948006840F00200174908600846006889
:109E600000F00200019000BF00BF00BF00BF00BFB4
:109E70000846006840F0020008600846006800F0EC
:109E80000200019000BF00BF00BF0120029011201E
:109E90000390012004900320059002A90748F7F7DA
:109EA000E5FB0820029002A90448F7F7DFFB00F069
:109EB000B1F807B000BD0000E044025800040258A9
:109EC00010B500BF012208210C48F7F7E3FB00BFE3
:109ED000FFF7B4FF00BF012211460848F7F7DAFB8D
:109EE00000BFFFF7ABFF00BF002201210348F7F7D7
:109EF000D1FB00BFFFF7A2FF10BD00000004025815
:109F000070B50546002400261CE06006040E00BF64
:109F1000012211461048F7F7BDFB00BFFFF78EFF87
:109F200008210D48F7F7EDFB08B1601CC4B200BF73
:109F3000002201210848F7F7ADFB00BFFFF77EFFC5
:109F4000701CC6B2082EE0DB15B9FFF7B9FF01E0BF
:109F5000FFF74CFF204670BD0004025870B5044660
:109F6000002524E000BFE00928B10122082115489E
:109F7000F7F790FB04E0002208211248F7F78AFB6C
:109F800000BFFFF75BFF00BF012211460D48F7F746
:109F900081FB00BFFFF752FF00BF002201210948EB
:109FA000F7F778FB00BF6006040E681CC5B2082DE9
:109FB000D8DB00BF012208210248F7F76BFB00BF86
:109FC00070BD00000004025810B500BF0122082136
:109FD0000F48F7F75FFB00BF00BF012211460C4896
:109FE000F7F758FB00BFFFF729FF00BF0022082149
:109FF0000748F7F74FFB00BFFFF720FF00BF002225
:10A0000001210348F7F746FB00BFFFF717FF10BD1C
:10A010000004025810B500BF002208210C48F7F7D1
:10A0200039FB00BFFFF70AFF00BF012211460848B5
:10A03000F7F730FB00BFFFF701FF00BF0122082147
:10A040000348F7F727FB00BFFFF7F8FE10BD00003D
:10A050000004025870B50024002500BF0122082129
:10A060001548F7F717FB00BFFFF7E8FE00BF012216
:10A0700011461148F7F70EFB00BFFFF7DFFE09E0BE
:10A08000601CC4B2FA2C03DDFFF7C4FF012507E012
:10A09000FFF7D4FE08210848F7F733FB0028EFD17B
:10A0A00000BF00BF002201210348F7F7F3FA00BF09
:10A0B000FFF7C4FE284670BD000402587CB5064672
:10A0C0000D4634465020005D00F00100A84233D018
:10A0D0000DB1012000E000205021095D60F3000176
:10A0E0005020015504F14401684615F09CFEBDF86E
:10A0F0000000616A898A084400B2ADF80000BDF82A
:10A100000210606AC08A084400B2ADF80200BDF8CF
:10A110000400616A898A084400B2ADF80400BDF801
:10A120000610606AC08A084400B2ADF806006946AD
:10A13000304625F044FA00BF7CBD37B582B00546F5
:10A1400014462146039817F029FF0190BDF804102A
:10A15000084605B030BD000001460B480078884233
:10A160000FDC09484078884201DB0120704706482F
:10A170008078884205DC0448C078884201DB0120F1
:10A18000F4E70020F2E7000099AD12900146104874
:10A190000079884219DC0E484079884201DB0120B1
:10A1A00070470B488079884205DC0948C0798842AD
:10A1B00001DB0120F4E70648007A884205DC044808
:10A1C000407A884201DB0120EAE70020E8E700004E
:10A1D00099AD12902DE9FF4F8DB005460E461446FD
:10A1E000F07A022803DC012011B0BDE8F08F30893D
:10A1F000326901460C901098FBF736FB07460FB901
:10A200000020F1E7397D01F01F001DF0E6FC10B1E0
:10A210004FF006080AE0397D01F01F001DF0C0FC78
:10A2200010B14FF0050801E04FF00408386A38B16A
:10A2300000BF00BF214628463A6A2FF028FADEE028
:10A24000B869002859D021460BA815F0ADFD30881B
:10A2500018B97088B0F5807F32D0204615F074FEB2
:10A26000834600BFE0886188401A401C00B2089015
:10A27000301D7188CDE90010308803B259460BA813
:10A28000089AFAF71BFEBDF82C002188084400B29A
:10A29000ADF82C00BDF82E006188084400B2ADF87E
:10A2A0002E00BDF830002188084400B2ADF830001F
:10A2B000BDF832006188084400B2ADF8320000BF3A
:10A2C0000BAA09A8A968FAF703FB8146B9F1000FA8
:10A2D00004D1384603F009F8012085E7D5F808A035
:10A2E00009A8A860CDF80080224631462846BB69FF
:10A2F00019F082F9C5F808A081E022460BA8A968E8
:10A30000FAF7E6FA0A900A9820B9384602F0EDFF0B
:10A31000012069E70BA815F017FE09900BA815F0AE
:10A3200013FE00EB4000039020F084FD8146D5F839
:10A3300008A00BA907A815F037FD012107A815F003
:10A340008EFEBDF92C00B4F90010401A0690BDF93C
:10A350002E00B4F90210A0EB010BBDF92E00059000
:10A3600042E007AA514602A8FAF7B2FA0A900A9800
:10A3700000B936E0CDF80090099803B20FFA8BF2DD
:10A38000069801B238461EF055F904900498012849
:10A390000ED038461EF06EF800BF00BF484620F0D1
:10A3A000C5FD384602F0A1FFC5F808A000201BE754
:10A3B00002A8A8604B4607AA31462846CDF800807F
:10A3C00019F01AF9BDF81E00401C00B2ADF81E00CD
:10A3D000BDF82200401C00B2ADF822000BF1010BC9
:10A3E00000BF0598401C0590BDF9321005988142C8
:10A3F000B7DAC5F808A0484620F098FD00BF3846F7
:10A4000002F073FF0120EFE670B506460C46656A60
:10A4100028461CF043FC606A20F0A0FD70BD70B5BA
:10A4200006460D466C6A04B970BD287C58B10128F7
:10A430000DD1606B18B104F134001CF02FFC2046E4
:10A4400027F0C4FE04E0204627F0C0FE00E000BF75
:10A4500000BF00BFE8E700002DE9F04F91B0834650
:10A460000D46144628461EF089FB0646012E39D1BA
:10A470002F463846F6F70CF8C01E00EB07081CA163
:10A480004046F6F721F960BB022229460EA81CF0CF
:10A49000B5FC8246BAF1000F03D0002011B0BDE830
:10A4A000F08F0023362269460EA81CF0F2FCDDF87E
:10A4B0001280DDF81690206868F3942020602068F0
:10A4C00069F35F502060206820F0E00020600EA853
:10A4D0001CF0E4FB206820F01F00001D206001201C
:10A4E000DCE702E00EB90020D8E70020D6E7000044
:10A4F000626D70002DE9F04FADB00E461446304647
:10A500001EF03CFB80464FF00109B8F1000F79D1F5
:10A51000B568D6F804B00722A5A12846F5F7D7FFFD
:10A5200068BB0E35206820F0E0002060206820F035
:10A530001F00401C206015F8011B206861F3942067
:10A54000206015F8011B2068800A40EA012120687C
:10A5500061F39420206015F8011B206861F35F50BF
:10A56000206015F8011B0802216840EA515120685B
:10A5700061F35F50206048462DB0BDE8F08F28465B
:10A5800010F0B0FA01283BD1206820F0E0002060F4
:10A59000206820F01F00401C20604FF4805020F005
:10A5A0000FFC07460FB90020E6E700208DF88C006D
:10A5B0002A95CDF8ACB02C9023A84FF480533A469E
:10A5C0007D49009005A810F01AFD8246BAF1000FEF
:10A5D0000CD1BDF83010206861F394202060BDF8E4
:10A5E0003210206861F35F50206003E04FF00009F3
:10A5F00001E007E000BF384620F0B0FC4846BBE76A
:10A6000000BFD3E0B8F1010FFBD137463846F5F76C
:10A610003FFF401FC51969A12846F6F755F80028E5
:10A620006DD1182127A8F6F728F80222394624A868
:10A630001CF0E4FB8246BAF1000F01D04E209BE7EC
:10A6400023AB082227A924A81CF023FC8246BAF1D8
:10A65000000F02D12398082804D024A81CF01EFB68
:10A66000002089E752A127A8F6F72EF8002845D147
:10A6700000220E2124A81CF0E8FC23AB042227A909
:10A6800024A81CF006FC8246BAF1000F02D12398E0
:10A69000042804D024A81CF001FB00206CE72068EB
:10A6A00020F0E0002060206820F01F00401C2060A7
:10A6B00027AD15F8011B206861F39420206015F880
:10A6C000011B2068800A40EA0121206861F3942080
:10A6D000206015F8011B206861F35F50206015F8B9
:10A6E000011B0802216840EA5151206861F35F5064
:10A6F000206024A81CF0D2FA01203DE755E038463E
:10A70000F5F7C6FE001FC5192EA12846F5F7DCFF98
:10A7100000284AD1022239462AA81CF06FFB834642
:10A72000BBF1000F01D04E2026E74FF4805020F0FF
:10A7300047FB054625B92AA81CF0B0FA00201BE704
:10A7400001208DF880000020299024902AA807C8B5
:10A7500021AB07C320A84FF480532A461649009026
:10A7600002A810F04CFC8246284620F0F7FB2AA8ED
:10A770001CF094FABAF1000F16D1206820F0E00026
:10A780002060206820F01F00401C2060BDF82410CD
:10A79000206861F394202060BDF82610206861F3E2
:10A7A0005F5020600120E7E600BF00BF0020E3E625
:10A7B0005F534A50475F5F006DA501902E736A702A
:10A7C000670000002E6A7067000000002DE9F0416C
:10A7D000ADF58B6D80460C46207C01285BD1666808
:10A7E0003046F5F755FEC01E87192EA13846F5F7FD
:10A7F0006BFF20B100200DF58B6DBDE8F0814FF4AB
:10A8000084610EA8F5F739FF02220EA861681CF0DA
:10A81000F5FA0546012D01D10020ECE70023362290
:10A8200069460EA81CF035FB9DF80000422803D1B4
:10A830009DF801004D2801D00020DCE7DDF80A007A
:10A840001190DDF812001290DDF816001390BDF89B
:10A850001C00ADF85000129914984843C008159098
:10A860004FF4846020F0ACFA606200BF606A18B9EF
:10A8700000BF00BF00BFFEE700BF606A08B900204C
:10A88000B9E74FF484620EA9606AF5F777FE0020FD
:10A89000A0610120AFE7207C08B90020ABE70020D1
:10A8A000A9E70000626D70002DE9F04FADB00D46D4
:10A8B00001202C90287C00287CD16C6A9CB95820FF
:10A8C00020F07EFA04461CB900202DB0BDE8F08FC0
:10A8D00058212046F5F7D1FE6C62686880682060D8
:10A8E0006868406860600722FBA12068F5F7EFFD0B
:10A8F000002871D126680E3616F8010BA06016F8F4
:10A90000011BA06840EA0120A06016F8010BE0607E
:10A9100016F8011BE06840EA0120E06016F8010B20
:10A92000206116F8011B206940EA0120206116F819
:10A93000010B606116F8011B606940EA012060614B
:10A940002169880020F03CFAE061E06928B92046DE
:10A9500027F03CFC00240020B7E70020206220699B
:10A9600006EB4007E069076001200DE016F8011BC7
:10A9700016F8013B41EA0321421EE36953F8222005
:10A980000A4443F82020401C21698142EEDC4FF04C
:10A99000FF30A0616269A168514301EB410020F0E2
:10A9A0000FFA6062606A30B9204627F00FFC00247D
:10A9B00000208AE7B0E0616A2164A16861644FF415
:10A9C000805020F0FDF9A062A06A30B9204627F03F
:10A9D000FDFB0024002078E713E0782020F0F0F958
:10A9E000E062E06A28B9204627F0F0FB002400204E
:10A9F0006BE7002084F8300000216163A8612C9887
:10AA000063E7206810F06EF8012872D1000320F08F
:10AA1000D7F907462FB9204627F0D8FB002400209D
:10AA200053E700208DF888002068299060682A90FC
:10AA300000202B9022A84FF480533A46A84900905A
:10AA400004A810F0DCFA8046384620F087FAB8F106
:10AA5000000F57D1BDF82C00A060BDF82E00E060BB
:10AA600001202061BDF82E0060612169880020F07E
:10AA7000A7F9E061E06928B9204627F0A7FB002488
:10AA8000002022E700202062D4F80090E069C0F89E
:10AA900000904FF0FF30A0616269A168514301EB63
:10AAA000410020F08DF96062606A28B9204627F0E5
:10AAB0008DFB0024002008E7616A2164A1686164BD
:10AAC0004FF4805020F07CF9A062A06A28B920469B
:10AAD00027F07CFB00240020F7E6782020F070F9B6
:10AAE000E062E06A30B9204627F070FB00240020C5
:10AAF000EBE60FE0002084F8300000216163A861DC
:10AB00002C98E2E600202C9000BF384620F026FA70
:10AB10002C98DAE600BFC9E1287C0128FBD16F68D8
:10AB20003846F5F7B5FC401FC4196EA12046F5F76D
:10AB3000CBFD002874D1182126A8F5F79EFD02222E
:10AB4000394623A81CF05AF98146B9F1000F01D00B
:10AB50004E20BAE622AB162226A923A81CF099F9AA
:10AB60008146B9F1000F02D12298162804D023A8FB
:10AB70001CF094F80020A8E657A126A8F5F7A4FD3C
:10AB800000287DD16C6AA4B9582020F019F9044638
:10AB900024B923A81CF082F8002096E6582120460C
:10ABA000F5F76BFD6C6268688068206068684068D3
:10ABB000606026AE0E3616F8010BA06016F8011B79
:10ABC000A06840EA0120A06016F8010BE06016F8CA
:10ABD000011BE06840EA0120E06016F8010B2061EB
:10ABE00016F8011B206940EA0120206116F8010BCC
:10ABF000606116F8011B606940EA01206061002075
:10AC0000E0612169880020F0DBF82062206A40B909
:10AC100023A81CF043F8204627F0D8FA002054E679
:10AC20007FE01621206901EB400A206AC0F800A0ED
:10AC30004FF0010822E022AB022226A923A81CF033
:10AC400028F98146B9F1000F02D12298022804D0D8
:10AC500023A81CF023F8002037E626AE16F801BB27
:10AC600016F8011B4BEA012BA8F10100216A51F8EB
:10AC70002000584441F8280008F10108206900E04C
:10AC80004EE04045D7DC4FF0FF30A0616269A1681B
:10AC9000514301EB410020F093F86062606A38B9DB
:10ACA00023A81BF0FBFF204627F090FA00200CE6BB
:10ACB000616A2164A16861644FF4805020F080F8DB
:10ACC000A062A06A90B923A81BF0E8FF204627F0F5
:10ACD0007DFA0020F9E500005F534A50475F5F00AE
:10ACE0006DA501902E736A7067000000782020F037
:10ACF00067F8E062E06A38B923A81BF0CFFF20466E
:10AD000027F064FA0020E0E5012084F8300023A950
:10AD10000EC9C4E90E2361630020A8610120D4E5B7
:10AD2000C3E03846F5F7B4FB001FC41960A1204604
:10AD3000F5F7CAFC0028F3D10222394629A81CF0F5
:10AD40005DF88346BBF1000F01D00020BDE56C6AC1
:10AD5000A4B9582020F034F8044624B929A81BF0DF
:10AD60009DFF0020B1E558212046F5F786FC6C6276
:10AD70006868806820606868406860604FF4805050
:10AD800020F01EF88046B8F1000F07D129A81BF06B
:10AD900085FF204627F01AFA002096E501208DF85D
:10ADA0007C0000202890239029A807C820AB07C367
:10ADB0001FA84FF4805342463F49009001A810F06D
:10ADC0001EF98146404620F0C9F8B9F1000F62D162
:10ADD000BDF82000A060BDF82200E06001202061E5
:10ADE000BDF8220060610020E061216988001FF049
:10ADF000E7FF2062206A38B929A81BF04FFF2046E0
:10AE000027F0E4F9002060E54FF0000A206AC0F85E
:10AE100000A04FF0FF30A0616269A168514301EBCF
:10AE200041001FF0CDFF6062606A38B929A81BF0AD
:10AE300035FF204627F0CAF9002046E5616A216403
:10AE4000A16861644FF480501FF0BAFFA062A06A4D
:10AE500038B929A81BF022FF204627F0B7F90020B7
:10AE600033E578201FF0ACFFE062E06A38B929A82A
:10AE70001BF014FF204627F0A9F9002025E501204A
:10AE800084F8300029A90EC9C4E90E2361630020AB
:10AE9000A861012019E5686A10B1686A20F05EF8BF
:10AEA00029A81BF0FBFE00200FE500BF00200CE5E9
:10AEB0002E6A7067000000006DA501902DE9F04F2B
:10AEC00085B08946924698460E9DD9F82440A08ABE
:10AED000401EA0EB08000FFA80F8E169E06801FB72
:10AEE00008000490A069C10804980AFB01000490BE
:10AEF0000022204604991CF0A8F8A069C00800FBB5
:10AF000005F2002320460F991BF0C3FFA06910280B
:10AF10000CD3A069102809D1A069C00800FB05F274
:10AF2000002320460F991BF0B4FFEDE00F9EA069AF
:10AF300010283FD006DC01287CD004287DD00828CA
:10AF40007AD156E018281BD02028F9D1002714E028
:10AF50000023042203A920461BF09BFF9DF80C2030
:10AF60009DF80D109DF80E0017F09EF9029006EB6B
:10AF70004700BDF8081001807F1CAF42E8DBC1E04C
:10AF8000002714E00023032203A920461BF081FFC1
:10AF90009DF80C209DF80D109DF80E0017F084F917
:10AFA000029006EB4700BDF8081001807F1CAF42FD
:10AFB000E8DBA7E0002719E00023022203A92046CE
:10AFC0001BF067FFBDF80CB04FEACB631A0ECBF352
:10AFD000451399004FEADB23D80017F065F902907A
:10AFE00006EB4700BDF8081001807F1CAF42E3DB91
:10AFF00088E000271BE00023012203A920461BF064
:10B0000048FF9DF80CB004F1200050F82B0002908E
:10B010009DF808209DF809109DF80A0017F044F9E2
:10B02000019006EB4700BDF8041001807F1CAF4281
:10B03000E1DB67E033E000E063E000272CE0002381
:10B04000012203A920461BF024FF4FF0000B1EE055
:10B050009DF80C00CBF10401084100F00F000290B4
:10B0600004F12000029950F8210001909DF804207D
:10B070009DF805109DF8060017F016F9009006EBF4
:10B080004700BDF8001001800BF1040B7F1CBBF1E1
:10B09000080F01DAAF42DBDBAF42D0DB32E0002742
:10B0A0002CE00023012203A920461BF0F2FE4FF002
:10B0B000000B1EE09DF80C00CBF10701084100F0E9
:10B0C0000100029004F12000029950F82100019043
:10B0D0009DF804209DF805109DF8060017F0E4F88F
:10B0E000009006EB4700BDF8001001800BF1010B4A
:10B0F0007F1CBBF1080F01DAAF42DBDBAF42D0DBD4
:10B1000000E000BF00BF00BF012005B0BDE8F08F28
:10B110002DE9FF4F83B00E461F46DDF84490307C8A
:10B12000002873D1746A606997FBF0F8A069404504
:10B1300037D0E06950F82810E1642069401E40458E
:10B1400006D12268E16C881A61680A1A226507E054
:10B1500008F10100E16951F82010E06C091A21653D
:10B160000021616504F1300000904FF480535F4985
:10B17000D4E90A200FF043FF8246BAF1000F03D052
:10B18000002007B0BDE8F08F00225949E06A0FF0B7
