:020000040800F2
:10000000F8BB0020E1020008AF3F0008AB3F00084A
:10001000AD3F00088D260008D94900080000000007
:10002000000000000000000000000000490200087D
:100030008F260008000000008D0200082D480008EF
:10004000FB020008FB020008FB020008FB0200089C
:10005000FB020008FB020008FB020008FB0200088C
:10006000FB020008FB020008FB020008FB0200087C
:10007000FB020008FB020008FB020008FB0200086C
:10008000FB020008FB020008FB020008FB0200085C
:10009000FB020008FB020008FB020008FB0200084C
:1000A000FB020008FB020008FB020008FB0200083C
:1000B000FB020008FB020008FB020008FB0200082C
:1000C000FB020008FB020008FB020008FB0200081C
:1000D000FB020008B9490008FB020008FB02000807
:1000E000FB020008FB020008FB020008FB020008FC
:1000F000FB020008FB020008FB020008FB020008EC
:10010000FB020008FB020008FB020008FB020008DB
:10011000FB020008FB020008FB020008FB020008CB
:10012000FB020008FB020008FB020008FB020008BB
:1001300000F002F800F079F80AA090E8000C824480
:100140008344AAF10107DA4501D100F06EF8AFF25D
:10015000090EBAE80F0013F0010F18BFFB1A43F0A5
:100160000103184718460600384606000A444FF0B7
:10017000000C10F8013B13F0070408BF10F8014B06
:100180001D1108BF10F8015B641E05D010F8016B4B
:10019000641E01F8016BF9D113F0080F1EBF10F8AF
:1001A000014BAD1C0C1B09D16D1E58BF01F801CBD2
:1001B000FAD505E014F8016B01F8016B6D1EF9D555
:1001C0009142D6D37047000000230024002500266A
:1001D000103A28BF78C1FBD8520728BF30C148BFAA
:1001E0000B607047662931F0AB81672931F0A88137
:1001F000642900F07B81782900F0B481732900F034
:100200004287002070471FB500F0EAFF040000207D
:10021000002130F0F7F8401C60600020002130F031
:10022000DBF8E0601FBD10B510BD01F0E3F811462A
:10023000FFF7E9FF29F0BEF801F086FB03B4FFF7F2
:10024000F2FF03BC06F00FFE224B19680868B0E805
:10025000F00F80F30988BFF36F8F4FF0000080F339
:1002600011884EF00D0E704700000000064800682F
:10027000006880F3088862B661B6BFF34F8FBFF3A2
:100280006F8F00DF00BF00BF08ED00E0EFF30980D3
:10029000BFF36F8F0F4B1A6820E9F00F106008B59D
:1002A0004FF0500080F31188BFF34F8FBFF36F8F73
:1002B0002FF02EFA4FF0000080F31188BDE80840BF
:1002C00019680868B0E8F00F80F30988BFF36F8FF2
:1002D000704700BF98000020EFF3058070470000D2
:1002E0000948804709480047FEE7FEE7FEE7FEE7CA
:1002F000FEE7FEE7FEE7FEE7FEE7FEE70448054906
:10030000054A064B704700004548000831010008C7
:10031000F8B50020F8BB0020F8B70020F8B700209F
:10032000704753EA020C00F069802DE9F04B4FF062
:100330000006002B1FBFB3FA83F503FA05F424FA75
:1003400005F65E4012BF1643B2FA82F502FA05F4D2
:10035000C5F120051EBF22FA05FC44EA0C04203535
:1003600056EA044C4FEA144418BF641C4FF00008CE
:100370004FF00009904271EB030C39D3002919BFEB
:10038000B1FA81F701FA07F6B0FA80F700FA07F63A
:10039000C7F120071EBF20FA07FC46EA0C062037EB
:1003A000B6FBF4FCA7EB0507103F07F01F0BCBF1E2
:1003B00020060CFA0BFB2CFA06F644BFB3460026C7
:1003C000202FA4BF5E464FF0000B5BEA060C08BF6F
:1003D0004FF0010B19EB0B09ABFB027C48EB060855
:1003E000C01B06FB02CC0BFB03CC71EB0C01C1E77D
:1003F0000B46024641464846BDE8F08B13B54FF028
:1004000000004FF00001AFF30080BDE81C407047D2
:1004100010B54C1084EA530404D54042C1F10001E8
:1004200038BF491E1B4204D55242C3F1000338BFF6
:100430005B1EFFF776FF14F0804F04D04042C1F1FD
:10044000000138BF491E14F0004F04D05242C3F1DE
:10045000000338BF5B1E10BD0FB4044910B503AADA
:10046000029800F015FE10BC5DF814FB1800002087
:100470000FB41CB5074B06AA7B446946009005984B
:1004800000F0D7FD0020694600F0E6FD1CBC5DF8D9
:1004900014FB0000DD0B000070B50C460546012A78
:1004A00005D02878800600D5EA69002302E0012300
:1004B00005E05B1C934202D2E05C0028F9D1A869F8
:1004C000E618C01AA861286A184428622846AFF3C3
:1004D000008004E0D5E9012114F8010B9047B442F3
:1004E000F8D32846AFF3008070BD00002DE9F0413D
:1004F0000646002410687529314616A510D0AFF3C2
:100500000080002802DA404213A507E031688A071C
:1005100001D512A502E0490704D511A5012401E087
:10052000AFF3008000210A2206F1240709E0B0FBA6
:10053000F2FCB0FBF2F302FB1C003030785418469A
:10054000491C0028F3D123462A463046BDE8F04135
:1005500000F002BB000000002D0000002B00000096
:100560002000000070B504460D4621461068AFF328
:1005700000802188090502D50F4A7A4402E00E4A1C
:100580007A440E32002104F1240305E000F00F0646
:100590000009965D5E54491C0028F7D1207800239D
:1005A000000704D5702D02D009B102231132204674
:1005B000BDE8704000F0D0BA2C3806002DE9F05F9D
:1005C000894604464FF0000ADFF874B1FB44C0F8D6
:1005D00020A02046E1688847002874D0252806D04E
:1005E000D4E901219047206A401C2062F1E70026EF
:1005F0005F462046E16888472028054607DB312D05
:1006000005D2781910F8200C08B10643F1E7B007BD
:1006100001D526F00406C4F81CA00027C4F818A0D1
:100620002A2D09D0284604F0FAFE38B304EB8708D7
:10063000303DC8F8185019E059F8041B204604EB67
:1006400087029161E1688847012F054618D1E0696A
:10065000002820DA26F020061DE0D8F8180000EB6C
:10066000800005EB40003038C8F818002046E168EB
:100670008847054604F0D3FE0028EED1012F0AD0AA
:100680002E2D08D12046E16888477F1C0546022FA1
:1006900046F02006C4DBA069002803DA404246F099
:1006A0000106A061F00701D026F010066C2D0BD0DA
:1006B000682D09D04C2D39D06A2D35D0742D35D008
:1006C0007A2D33D016E038E0E1682F46204688477F
:1006D000B842054609D16C2F26D04FF48060E168FE
:1006E000064320468847054604E06C2F1AD04FF495
:1006F000807006430DB3A5F14100192802D82035BA
:1007000046F400664A462946204626604E46FFF7D4
:1007100069FD80B101280BD0F61D26F0070000F11D
:10072000080956E74020E4E78020D8E70020D6E714
:1007300006F104094DE7284652E7206ABDE8F09F1C
:100740000238060010B5002000F006FDFFF76BFD33
:10075000BDE81040012006F086BB30B505460B46CB
:100760002A4613F8014B12F8010B08B1A042F8D049
:100770001CB1002802D06D1CF1E7284630BD40EACC
:100780000103024630B59B0710D14FF0013400E061
:1007900008C208C91D1B9D4315EAC41FF8D013F0F9
:1007A000FF0102F8011B0DD01B0AF8E711F8013B0D
:1007B000002B02F8013B05D011F8013B002B02F899
:1007C000013BF3D130BD10B5431C02E010F8011B12
:1007D00071B18107FAD14FF0013202C88C1A8C43F3
:1007E00014EAC211F9D0C01A0A0603D0C01E10BD07
:1007F000C01A10BD0A0401D0801E10BD0902FCD031
:10080000401E10BD421E12F8013F002BFBD111F813
:10081000013B002B02F8013BF9D17047032A40F25B
:10082000308010F0030C00F0158011F8013BBCF192
:10083000020F624498BF11F801CB00F8013B38BFAA
:1008400011F8013BA2F1040298BF00F801CB38BFB8
:1008500000F8013B11F0030300F06780083AC0F094
:10086000088051F8043B083A51F804CBA0E808107E
:10087000F5E7121D5CBF51F8043B40F8043BAFF3B1
:100880000080D20724BF11F8013B11F801CB48BF0B
:1008900011F8012B24BF00F8013B00F801CB48BF41
:1008A00000F8012B7047431A28BF9A427FF6B6AF73
:1008B000032A1044114440F2268010F0030F1EBF9B
:1008C00011F8013D521E00F8013D10F0030F7FF4B6
:1008D000F6AF11F0030300F05984083AC0F00B8022
:1008E00051F8043D083A51F804CD40F8043D40F871
:1008F00004CDFFF7F3BF121D5CBF51F8043D40F873
:10090000043DAFF30080D20724BF11F8013D11F878
:1009100001CD48BF11F8012C24BF00F8013D00F8BB
:1009200001CD48BF00F8012C704710B5203AC0F047
:100930000B80B1E81850203AA0E81850B1E81850E0
:10094000A0E81850BFF4F5AF5FEA027C24BFB1E81D
:100950001850A0E8185044BF18C918C0BDE810408E
:100960005FEA827C24BF51F8043B40F8043B08BF97
:100970007047D20728BF31F8023B48BF11F8012B5E
:1009800028BF20F8023B48BF00F8012B704702F057
:10099000FF0343EA032242EA024200F002B84FF0AA
:1009A00000020429C0F0128010F0030C00F01B803C
:1009B000CCF1040CBCF1020F18BF00F8012BA8BF4A
:1009C00020F8022BA1EB0C0100F00DB85FEAC17C0E
:1009D00024BF00F8012B00F8012B48BF00F8012BC1
:1009E00070474FF0000200B51346944696462039F2
:1009F00022BFA0E80C50A0E80C50B1F12001BFF4D8
:100A0000F7AF090728BFA0E80C5048BF0CC05DF83D
:100A100004EB890028BF40F8042B08BF704748BF8B
:100A200020F8022B11F0804F18BF00F8012B7047FF
:100A30004FF0013C50F8042B51F8043B9A4221D16D
:100A4000A2EB0C03934313EACC1317D150F8042BF9
:100A500051F8043B9A4215D1A2EB0C03934313EADD
:100A6000CC130BD150F8042B51F8043B9A4209D116
:100A7000A2EB0C03934313EACC13DBD04FF000003E
:100A8000704700BFD01A01BAB1FA81F101F0180124
:100A900022FA01F0CB40C1F12001DBB2C0B2C01A92
:100AA0002CFA01F3D11A914311EAC311E6D1704730
:100AB000704770477047704730B5B0F10A024FEA8F
:100AC000900E71F100034EEA817EB0EB0E0061EBF7
:100AD00091014FEA101E4EEA017E10EB0E0041EB31
:100AE00011114FEA102E4EEA016E10EB0E0041EB91
:100AF00011214FEA104E4EEA014E10EB0E0041EB71
:100B00001141401841F100014FEAD00040EA417024
:100B10004FEAD10110EB80054FEA810444EA90745A
:100B200044EB01046D1944EB0404521BA3414FF044
:100B3000000348BF0A3200D530BD401C41F100011E
:100B400030BD10B500F050FB006810BD10B5044674
:100B500000F04AFB046010BD2DE9F0470D469946B0
:100B60009246044600F124080168880604D5E0692D
:100B700021F01001216000E00120A84201DD471BA7
:100B800000E00027A1697A1902EB0900081AA061A8
:100B90002078C00602D42046AFF30080002608E08B
:100BA000D4E901211AF806009047206A401C761CFF
:100BB00020624E45F4DB2078C0060AD52046AFF30C
:100BC000008006E0D4E9012130209047206A401CD3
:100BD0002062381EA7F10107F4DC07E0D4E9012107
:100BE00018F805009047206A401C2062281EA5F1D5
:100BF0000105F3DC2046AFF300802078000602D523
:100C00000220BDE8F0870120FBE770472DE9FF4F88
:100C10000C461E464FF0FF378BB0D2E90001DDF8DD
:100C200060800A908A46C1F30A5505B93D46002105
:100C300008464FF00000BAF1000F00F4400005DA5A
:100C400000EB80004FF4400101EA50004FEA905958
:100C5000B9F1010F00DDB9460A9850EA4A000ED0FA
:100C600044F61050A5F2FF3545432F14B8F1000F9C
:100C70001ED07542291E1EDDC9F100021CE0B8F12C
:100C8000010F4FF0000001D0302103E0F24305E0F6
:100C90002154401CB042FBDB30460022002121548D
:100CA0000B99C1F80880C1E900200FB0BDE8F08FB2
:100CB000BD1B6D1CDEE74A4600DA694206A800F05B
:100CC00001FB06AB93E8070003AB83E8070050463F
:100CD0000A9901F0A6F88DE80700A0F500501F382A
:100CE00000900398002D0ADD42F21F014A46084495
:100CF000002303A90390684601F052FB09E0A0F528
:100D000000504A461F38002303A90390684601F0AB
:100D100071FB8DE807000004000C03D04FF0FF309A
:100D2000410800E01046B8F1000F03D00022009205
:100D300015461EE0751E05D4FFF7BEFE3032625523
:100D40006D1EF9D5B3460122084302D000227F1C54
:100D500004E02078302801D100227F1E002A099764
:100D600084D01DE0112D07DAFFF7A6FE3032625560
:100D70006D1C50EA0102F5D1084302D00098C8B1B9
:100D80000EE00021681E05E0235C625C635422547F
:100D9000401E491C8142F7DBAB46A81B401E099050
:100DA000002004F80B000B98099AC0F80880C0E9ED
:100DB000002B7AE711264FF0000857E72DE9F04F96
:100DC00088460446D21D22F0070191B0D1E9000106
:100DD000CDE90A0103F001FE02460B98C00F01D0D5
:100DE0002D2007E02068810701D52B2002E020217B
:100DF00001EAC000032A099001D0072A05DB034657
:100E00004146204600F0FEF90BE12078800601D52E
:100E1000E06900E00620B8F1650F814606D0B8F120
:100E2000660F18D0B8F1670F70D131E00020B9F12A
:100E3000110F009001DB112301E009F101030AAA5F
:100E400001A90CA8FFF7E2FEDDE90C70002609F10C
:100E50000105834647E001204B4600904FF00047D4
:100E60000AAA01A90CA8FFF7D1FEDDE90DB00C9983
:100E70005D46002610B909F101000D18B9EB050017
:100E800003D4C0F1FF3609F10105A5EB09002BE001
:100E9000B9F1010F01DA4FF001090020B9F1110F8A
:100EA0000090484601DD112300E003460AAA01A98B
:100EB0000CA8FFF7ABFEDDE90C704D46002683461B
:100EC000207800070AD4AB4500DA5D4601A8012D61
:100ED00004DD411911F8011C302907D04F4502DA11
:100EE00017F1040F04DA012082460FE06D1EEEE7D1
:100EF000002F02DCED1B3E4403E0781CA84200DD1D
:100F00007D1CB81B00F1010A4FF000472078000754
:100F100003D4AA4501DB4FF0FF3A0021B7F1004F9F
:100F20000DF143088DF8431024D002202B23002F0D
:100F300001DA7F422D230A21021EA0F1010000DC0C
:100F40005FB197FBF1FC97FBF1F201FB1C7C1746AC
:100F50000CF1300C08F801CDEEE7A8F101000370A8
:100F60002188090501D5452100E06521A0F101088E
:100F700000F8011C09980FA9A1EB0807FF1D00B19B
:100F80000120411901EBEA70A1693844081A401E9A
:100F9000A0612078C00602D42046AFF300800998F3
:100FA00028B1D4E901219047206A401C20622078B2
:100FB000C00622D52046AFF300801EE0002E04DBE1
:100FC000B34502DD01A8805D00E03020D4E90121B5
:100FD0009047206A401C2062761CAAF101005FEA5B
:100FE000000A0AD100F0FCF8C0680168405CD4E94E
:100FF00001219047206A401C2062281EA5F10105AE
:10100000DCDC07E0D4E9012118F8010B9047206AE5
:10101000401C2062381EA7F10107F3DC2046AFF325
:101020000080032011B041E601694A1C0261087882
:10103000704700B58FB0CDE9013100210591054918
:101040007944CDE9031011466846FFF7B7FA0FB0AF
:1010500000BD0000E5FFFFFF0A6802F8010B0A600F
:10106000704710B5436913B1AFF3008001E0FFF79B
:1010700013FA012010BD127800F124010A70002239
:101080004A700122EDE711684FF0FF32E9E70000F6
:10109000074B70B50D467B44FFF7CBFF044628464F
:1010A00000F082F910B14FF0FF3070BD204670BDE6
:1010B00067F300000FB4002300B589B00CA90091BC
:1010C0000B99CB60214B7B440693214B7B440793C8
:1010D00004236FF00042CDE901321E4A7A446B4688
:1010E00008920246002030F08DFA09B05DF814FB3A
:1010F00070B506464FF0FF3015460C46324686B0B6
:101100000091CDE9010169460020049004A8FFF791
:10111000D1FF02460498211825B108B1084600E025
:1011200020462860049800280DD0002A02DD00988F
:10113000884208D03246081B69460094CDE9010474
:1011400004A8FFF7B7FF06B070BD0000BB010000A8
:10115000D30100001101000010B500F02FF9BDE827
:10116000104000F025B9431A28BF9A427FF6DDAB44
:10117000104410F0030F11441EBF11F8013D521E20
:1011800000F8013D10F0030F7FF4F6AF103AC0F005
:101190000A8010B531E91850103A20E91850BFF410
:1011A000F9AFBDE81040530724BF31E9081020E92A
:1011B000081044BF51F8043D40F8043D12F0030FFD
:1011C00008BF7047D20728BF31F8023D48BF11F869
:1011D000012C28BF20F8023D48BF00F8012C7047C1
:1011E00000487047B8B500200048704798B5002007
:1011F00010B5044600F024F90068005D00F001001D
:1012000010BD00002DE9F0411F4604460326016889
:10121000072A01F4006004DB08B116A505E016A555
:1012200003E008B115A500E015A521F0100020602D
:10123000A069C01EA0610FB1401EA0612046AFF39F
:1012400000804FB1D4E9012138469047206A401C04
:101250002062C01C206206E0206AFAE7D4E901217E
:1012600015F8010B9047761EF8D22046AFF30080A8
:10127000BDE8F0814E414E006E616E00494E460061
:10128000696E6600426842B1016811F8013B23B102
:10129000521EC0E90012184670470121C160881E25
:1012A000704742685AB1C368016843B983688B428A
:1012B00005D0491E521CC0E90012002070474FF0B3
:1012C000FF3070472DE9F047814616468AB0354811
:1012D00078440DC88DE80D0032487844801C03AC7A
:1012E0000DC884E80D0041F69B300844372190FB7F
:1012F000F1F290FBF1F5A5F1800501FB12041B3C16
:1013000002D56442012000E00020DFF898A080466A
:101310000027FA44AAF1BE0A0EE0E0070AD03246DE
:10132000684607EB470101230AEB810101F062F8EF
:101330008DE8070064107F1C002CEED1194F7F440C
:10134000AE3F19E0E80715D007EB04100DF1180ABD
:1013500090E80E008AE80E00C068F04201D19819AA
:1013600008903246012306A903A801F043F803AB15
:1013700083E807006D10641C002DE3D14FF00103DA
:1013800032466946B8F1000F03A802D001F008F810
:1013900001E001F02FF8C9E90001C9F808200AB0FE
:1013A000BDE8F087D82D0600007B00F08000704774
:1013B000002801D005F057BD7047000010B500218E
:1013C00002A000F0CAFA012010BD000053494741B5
:1013D0004252543A2041626E6F726D616C207465A6
:1013E000726D696E6174696F6E000000004870472D
:1013F00098B500207546FFF7F9FFAE46050069462F
:10140000534620F00700854618B020B5FEF776FF5A
:10141000BDE820404FF000064FF000074FF00008F5
:101420004FF0000B21F00701AC46ACE8C009ACE876
:10143000C009ACE8C009ACE8C0098D46704700009F
:1014400010B5FFF7CDFE001D10BD00BFB9EF0200C3
:101450002DE9FF4F06468BB00878FF2806D0491CBF
:101460002D2805D000244FF0000908E000200CE0F2
:101470000124F8E709EB8903491C00EB43090878CC
:10148000FF28F7D114B1C9F100008146107800257A
:101490002C46AA4629462D2801D02B2804D1521CBF
:1014A0002D2813D0002082468B461078FF280FD0BD
:1014B0004FF0000C0A21521CA5FB017804FB0181AE
:1014C00005FB0C11C5194BEB0104EEE70120EAE71F
:1014D000002108464FF00000BAF1000F02D000EBE7
:1014E00080004008C0F38157012F01DD4FF0FF3726
:1014F0000E9955EA040009EB01080BD04FF00209E0
:1015000018F5FA7F16DA4FEACA70002F706008DD0E
:10151000012007E04FEACA70C6E900B00FB0BDE88D
:10152000F08F00203060FFF75FFEC0F800901821B8
:10153000084616E0B8F5FA7F18DD002F02DAF74802
:10154000784401E0F6487844D0E90010C6E900107C
:1015500040EACA707060FFF747FEC0F8009014219F
:1015600008460FB0BDE8F04F2FF0E7BF0021084656
:101570004FF00000B8F10001099002DAC7F1000253
:1015800000E03A4601DAC8F1000106A8FFF79AFE2A
:1015900006AB93E8070003AB83E8070044F23E0084
:1015A0005BEA04010090584604D144F21E012C4627
:1015B0005D460091210C0904014306D100992404E1
:1015C00044EA15442D041039009104F07F41014391
:1015D00006D10099240244EA15642D0208390091CD
:1015E00004F07041014306D10099240144EA1574C6
:1015F0002D01091F009104F04041014306D10099DB
:10160000A40044EA9574AD00891E009104F00041E5
:10161000084304D100986D196441401E00904FF0BA
:1016200001033A466846B8F1000FCDE9014503A928
:1016300002DD00F0F4FE01E000F0C7FEBAF1000F99
:1016400004460D4601D084F00044002108464FF0C6
:101650000000099940F2FF77484010F00C0F07D1C5
:1016600024F00040284303D0C4F30A50B84212D1FA
:10167000FFF7BAFDC0F80090C4F30A50B8420AD18F
:10168000A8487844D0E90010C6E9001004F00041F1
:101690000843706042E7C6E900543FE72DE9FF4F79
:1016A0001F464FF0000A4FF0FF38454691B0D7E98A
:1016B0000146CDF83CA0FFF793FDC0680168405C8F
:1016C0001090B96912986D1C8847396A814688471D
:1016D0000028F6D1B9F1FF3F0AD0002E24F4D064DF
:1016E00011DDB9F12B0F08D0B9F12D0F0BD102E0AC
:1016F000404615B013E744F48064B96912986D1C34
:101700008847761E8146600504A901D52D2000E09A
:101710002B20002E01F1010B0DF130088DF8100087
:101720003FDDB9F1690F08D0B9F1490F05D0B9F122
:101730006E0F02D0B9F14E0F1CD13B4601A80095A7
:1017400080E85002DDE912126FF002002FF05EFF18
:10175000C11CCED10EE0B96912986D1C8847814634
:101760001398761E44F4007405600F98401C002EF8
:101770000F9016DDB9F1300FEDD0B9F1780F02D02E
:10178000B9F1580F0DD10F9801280AD13B46CDE988
:101790000054DDE91212001F02962FF035FFC11C24
:1017A000A7D1109989453ED144F0800406E01399F1
:1017B000681CAAF1010A44F400740860B9696D1C40
:1017C0001298761E884730288146F0D02BE0109979
:1017D000894505D1200603D4761E44F0800418E024
:1017E000484603F01CFE08B3761E0DF123018B451D
:1017F00044F4007408D2A9F130000BF8010B200664
:1018000007D5AAF1010003E0200602D40AF1010085
:101810008246A00502D51399681C0860B969129820
:101820006D1C88478146002ED1DC53E0002E51DD2F
:10183000B9F1650F02D0B9F1450F4BD1A00549D5DB
:10184000B9696D1C1298761E24F440748847002EE6
:1018500081460CDD2B2804D0B9F12D0F07D144F4BB
:101860008074B96912986D1C8847761E8146E00520
:1018700001D52D2100E02B2108F8011BCDF80080B7
:1018800021E0761E0DF13901884544F400740CD234
:10189000A9F1300010F0FF0088F8000002D1009993
:1018A000884509D908F1010806E0E00501D51E4880
:1018B00001E042F20F708246B96912986D1C8847A8
:1018C000814613980560002E04DD484603F0A7FD0D
:1018D0000028D6D1F96912988847FF2053468BF823
:1018E000000088F8000000200A900B9004AA0CA9C0
:1018F0000AA8FFF7ADFDA00502D46FF00100F8E6DD
:1019000014F0240F12D0E0071CD13868DDE90A1268
:10191000031D3B600068C0E9001213E0603206005E
:101920005232060016310600F1D8FFFF0AA96846B8
:1019300003F0E6FCE00705D13868009A011D396024
:10194000006802602846D4E610B50446AFF3008074
:101950002046BDE81040FEF771BC70B505460C4648
:101960000A2000E06D1C05F07FFA35B128780028C8
:10197000F8D102E0641C05F077FA14B12078002851
:10198000F8D1BDE870400A2005F06EBA2DE9FF4F8E
:101990001F464FF03C0987B04FF00042DDE91410BC
:1019A00001F10108DDF858A002EA40500390002040
:1019B00005908346054604460490B969461E08987A
:1019C0008847AAF1010A0290BAF1000F3BDD0298A4
:1019D0002E2815D0102100F016FA00282EDB4FF02B
:1019E000010B0599014317D0B9F1000F0BDB4A46F3
:1019F000C11700F0F5F905430C43A9F1040905E00E
:101A0000012004900BE008B145F00105012005908C
:101A1000049820B9361D02E0049800B1361FB96958
:101A2000089808F101088847BBF1000FAAF1010AE4
:101A30000290C9D00999C1F80080C5E702987028C2
:101A400008D0502806D0F96908988847BBF1000FE4
:101A500014D04FE0002002900120BBF1000F049051
:101A600009D0B969089808F101088847AAF1010965
:101A7000B9F1000F07DCF969089888476FF0010099
:101A80000BB0BDE8F08F2B2804D02D280CD14FF0DF
:101A9000FF300490B969089808F101088847A9F156
:101AA0000109B9F1000FE6DD411CE4D00A2100F084
:101AB000AAF90028DFDB029908F1010801EB810196
:101AC00000EB41000290B969089888470A2100F0AC
:101AD0009AF9099AA9F10109B9F1000FC2F8008039
:101AE00001DD0028E7DAF969089888470499029827
:101AF00000FB016655EA040004D004F040410900EF
:101B000002D006E0039898E0A40044EA9574AD0082
:101B1000B61E04F00041080002D16D196441761E22
:101B2000159810F0240F03D04FF00B095C4803E028
:101B30004FF028096FF07D008246564507DAAAEB80
:101B400006018944B9F1410F01DD4FF0410901203F
:101B50000021A9F1010200F043F9024628400B469A
:101B60002140084301D0012100E00021501E0291D4
:101B700043F1FF3128402140084301D0012000E01B
:101B800000200299834651EA0B014FD000210846FC
:101B90004FF00000039900F4400039B100EB8000E1
:101BA0004FF4400100EBD07001EA6000801501287D
:101BB00002DD4FF0FF3000E013D0401C36D0029819
:101BC00060B3BBF1000F0CD14A460120002100F0A8
:101BD00007F928402140084301D0012000E00020FF
:101BE000E0B101204A46002100F0FAF8034640190E
:101BF0000A4661412D1A8C4111D3B9F1400F09DD1C
:101C0000159810F0240F02D0AAF1340603E0AAF1CF
:101C1000170600E0761C00254FF0004406E05B1E2E
:101C200042F1FF3220EA030521EA0204CAF1010071
:101C3000B04206DA1B490398084301900020009047
:101C40000EE0039AC4F3D321E80A0A43164940EA96
:101C500044500A433146CDE90002684603F0B6FB22
:101C6000159810F0240F0BD01598C00715D13868BF
:101C7000DDE90012031D3B600068C0E900120CE0C2
:101C800002A8694603F03CFB1598C00705D13868E7
:101C9000029A011D3960006802604046F0E60000CB
:101CA00002FCFFFF0000F07F0000F03F2DE9FF4F36
:101CB00092461D4685B04FF00041DDE9124BDDE94B
:101CC00014727F1E01EA4B50414940F0FF4940EA3F
:101CD0000108002122F020004928049102D04E285A
:101CE00028D04CE03BA0012607C88DE80700A96971
:101CF0000698641C88477F1E014606D41DF806001E
:101D000018B121F0200181420BD0E969069888477B
:101D1000032E34D0082E32D06FF0010009B0BDE898
:101D2000F08F761C032E01D0082EE0D1601CCAF87B
:101D30000000DCE7A9690698641C88477F1E2AD446
:101D400020F02000412826D1A9690698641C884704
:101D50007F1E20D420F020004E281CD1A9690698AF
:101D6000641C88477F1E48F4002849F48009CAF89B
:101D7000004001D4282806D0E969069888475FEA20
:101D8000CB7012D022E0A9690698641C88477F1E98
:101D900001D4002803DAE96906988847BCE72928B6
:101DA000F1D1641CCAF80040E9E71BF0240F07D00A
:101DB00028680499031D2B600068C0E9001805E03D
:101DC0002868021D2A600068C0F800902046A5E738
:101DD0000000F07F494E46494E495459000000002A
:101DE000B2F120030AD5C2F1200301FA02F120FA70
:101DF00003F300FA02F041EA0301704700FA03F12D
:101E00004FF0000070473A2800D2303820F020020E
:101E1000412A01D3A2F13700884201D34FF0FF30AD
:101E200070475FEA400C08BF91F0000F4FEA8C2327
:101E30004FEAC12243EA51514FEA1C5018BF00F546
:101E4000F0404FEA300018BF41F000415FEA6C5C9F
:101E500000F02980BCF1FF3F08BF40F08040704790
:101E6000130C06BF12044FF0100C4FF0000C130EB1
:101E700004BF12020CF1080C130F04BF12010CF185
:101E8000040C930F04BF92000CF1020CD30F04BF9B
:101E900052000CF1010C11464FF00002A0F11F009E
:101EA000A0EB0C00704711F0004F08BF704731F0F5
:101EB00000413FF4D5AF0B0C06BF09044FF0100CE6
:101EC0004FF0000C0B0E04BF09020CF1080C0B0FB5
:101ED00004BF09010CF1040C8B0F04BF89000CF145
:101EE000020CCB0F04BF49000CF1010CCCF1200314
:101EF000A0EB0C0022FA03F302FA0CF241EA030110
:101F000000F10100704720F07F4C80EA030023F0CD
:101F10007F47ACEB070303F57C5300F0004003F16F
:101F2000FF032DE980494FEA154B09B44FEA1443EA
:101F300025EA0B4E24EA03480FF2042606EB13278A
:101F400049083E785FEA320203FB0667C7F50007DF
:101F500007FB06F64FEA54374FEAD64606F102066B
:101F600007FB066CCCF1005C4FEA1C472CEA074CDF
:101F700007FB06F40CFB06F504EB15464FEA961634
:101F800034BF00204FF000404FEAD13706FB07FC7A
:101F90004FEA1C4C0CFB0BF7D21B03FB0CF761EB5D
:101FA00007010CFB0EF7B0EB074072EB17420CFB7E
:101FB00008F734BFA2EB0742B2EB074261EB1741CF
:101FC0004FEA0C444FEA910706FB07FC4FEA1C4C12
:101FD0000CFB0BF7B0EBC74072EB573203FB0CF76F
:101FE00034BFA2EBC742B2EBC74261EB57310CFBE7
:101FF0000EF7B0EBC70072EB57720CFB08F734BF5B
:10200000A2EBC702B2EBC70261EB5771039F4FEA25
:10201000816141EA921104EBCC044FEAD1374FEAD7
:10202000826206FB07FC42EA90124FEA80604FEAA8
:102030001C4C0CFB0BF7D21B03FB0CF761EB0701ED
:102040000CFB0EF7B0EB074072EB17420CFB08F7E6
:1020500034BFA2EB0742B2EB074261EB17414FEAF4
:102060008C554FEA910704EB9C2406FB07FC4FEAD2
:102070001C4C0CFB0BF7B0EBC74072EB573203FB69
:102080000CF734BFA2EBC742B2EBC74261EB57314A
:102090000CFB0EF7B0EBC70072EB57720CFB08F7A6
:1020A00034BFA2EBC702B2EBC70261EB577115EB6D
:1020B0004C254FEA816141EA92114FEA82624FEA70
:1020C000D13742EA901206FB07FC44F100044FEAC4
:1020D00080604FEA1C4C0CFB0BF7D21B03FB0CF788
:1020E00061EB07010CFB0EF7B0EB074072EB1742F8
:1020F0000CFB08F734BFA2EB0742B2EB074261EBDF
:10210000174115EB1C154FEA813141EA92414FEA24
:10211000823242EA90424FEA80304FEA0C7644F134
:10212000000448EA03434EEA0B484FF0000EB2EBBE
:10213000080C71EB030724BF624639464EEB0E0EC6
:102140004FF0000B0018524149414BEB0B0BB2EB27
:10215000080C71EB03077BF1000B24BF6246394684
:102160004EEB0E0E4FF0000B0018524149414BEB65
:102170000B0BB2EB080C71EB03077BF1000B24BFD8
:10218000624639464EEB0E0E51EA020718BF46F082
:10219000010616EB0E7655F1000254F1000103D54D
:1021A000BDE88901BDE80088BDE88901BDE80048B7
:1021B000B619524141EB0101A3F101037047808040
:1021C0007F7E7D7C7B7A7978777676757473727191
:1021D00071706F6E6E6D6C6C6B6A6A696868676649
:1021E00066656464636362616160605F5F5E5E5DDB
:1021F0005D5C5C5B5B5A5A5959585857575656554F
:1022000055555454535352525251515050504F4FB0
:102210004F4E4E4D4D4D4C4C4C4B4B4B4A4A4A4900
:102220004949484848474747474646464545454443
:1022300044444443434343424242424141410000FB
:1022400046EA0646A3F570534FEA164646EA42565A
:102250004FEAD22242EA415210B54FEAD121A3F10E
:10226000010300F02FF820F0004000F1020C00F014
:10227000004701EB00501146BCF5006F40EA070033
:1022800000D210BDBAF1000F0AD01CB503B44FF054
:1022900004004FF004014FF000000FBCBDE81040F7
:1022A0004FF00001BBF1010FB9BF04484FF0FF31FF
:1022B0000348002140EA070010BD00BFFFFFEF7F89
:1022C0000000F07F002B9C4630D477002BD01CB54B
:1022D0004FEA370703B44FF010004FF01001BAF186
:1022E000000F06D0BCF1000FDCBF40F0080040F04A
:1022F00008014FF000000FBCBDE810400BF1010BCE
:10230000BBF1010F08BF5FEA170722BF12F10102FC
:1023100011F101014FF0004143F1000300F00040D2
:1023200043EA00007047F9D35708D0E746EA06466B
:1023300013F1400F4FEA16461FDD13F1200FDFBFE8
:1023400016430A46002120335B42BED0C3F120076A
:1023500046EA064602FA07F74FEA164646EA070635
:10236000C3F1200722FA03F201FA07F721FA03F179
:102370004FF0000342EA0702A7E746EA020646EAF0
:1023800006464FEA164646EA0106BCBF46EA06463E
:10239000360C4FF000034FF000024FF0000194E7BD
:1023A0002DE9804C9A46934670B491E8380007C8EE
:1023B00031EA400C48BF34EA430C03D5FFF7A3FDD4
:1023C000FFF780FFF0BCBDE8008C2DE9804C9A46F9
:1023D000934670B491E8380007C831EA400C48BF12
:1023E00034EA430C03D5FFF78EFDFFF729FFF0BC5D
:1023F000BDE8008C2DE9804C9A46934670B491E874
:10240000380007C810F0804F08BF13F0804F03D189
:1024100000F01AF8FFF756FFF0BCBDE8008C2DE97C
:10242000804C9A46934670B491E8380007C810F083
:10243000804F08BF13F0804F03D100F005F8FFF77D
:10244000FFFEF0BCBDE8008C20F07F4780EA03006F
:1024500023F07F4C07EB0C03A3F57C5300F0004006
:10246000A3F1FE0392F0000F00F0B38095F0000F8F
:1024700000F077802DE901494FEA11404FEA1446F8
:1024800021EA004800FB06FC24EA064708FB06F6A2
:1024900007FB08F800FB07F718EB06484CEB164C57
:1024A0004FEA124B18EB07484FEA15464CEB174022
:1024B00022EA0B4E0BFB06FC25EA06470EFB06F64E
:1024C00007FB0EFE0BFB07F71EEB064E4CEB164C04
:1024D0004FF000061EEB074E4CEB174B18EB0B08AA
:1024E00040F1000018EB0E0B58EB000840F1000023
:1024F0008F1A4FF000013CBFC943661B14BFB5EBF8
:10250000040C00213CBFC943F61B4FEA17444EEAB6
:102510008E0E27EA04454FEA1C4704FB07622CEAAB
:10252000074C05FB07F70CFB05F604FB0CFC16EB50
:10253000074642EB174216EB0C4642EB1C421BEBE4
:10254000060658EB0202414146EA9E0601D5BDE867
:102550000189B619524141EB0101A3F10103BDE824
:1025600001894FEA14454FEA114724EA054621EA5A
:10257000074C05FB07F406FB07F70CFB06F105FB10
:102580000CFC11EB074144EB17444FEA124711EBE7
:102590000C4144EB1C4422EA074C05FB07F206FB06
:1025A00007F70CFB06F605FB0CFC16EB074642EBA7
:1025B000174216EB0C4642EB1C456A1854F1000119
:1025C00048BF7047B619524141EB0101A3F1010325
:1025D000704795F0000F37D04FEA11424FEA144789
:1025E00021EA024624EA074C02FB07F106FB07F743
:1025F0000CFB06F402FB0CFC14EB074441EB174107
:102600004FEA154714EB0C4441EB1C4125EA074CFB
:1026100002FB07F506FB07F70CFB06F602FB0CFCBA
:1026200016EB074645EB174516EB0C4645EB1C42EF
:10263000121951F1000148BF7047B619524141EBE0
:102640000101A3F1010370474FEA14454FEA114716
:1026500024EA054621EA074C05FB07F106FB07F7CC
:102660000CFB06F24FF0000605FB0CFC12EB0742D8
:1026700041EB174112EB0C4251EB1C4148BF704734
:10268000921841EB0101A3F101037047FEE7704787
:1026900030B5B3F5804F05D06FF0704140F822108F
:1026A000002030BD8C690B688D6823434C68898994
:1026B000240144EA0524234343EA014150F822302F
:1026C000014C23401943E9E70000F0CF10B50A6838
:1026D00050F8223023F0010340F822308B68082B99
:1026E00023D000224C681C43CB6813430A691C4367
:1026F00014434A698B691443CA6914430A6A144330
:102700004A6A14438A6A1443CA6A14430A6B14431C
:102710004A6B234309681A43054C50F82130A34300
:10272000134340F82130002010BD4022DAE70000BA
:102730007FFF0F0030B5D1E9003443EA04138C6801
:102740008D89240244EA054423430C8A094D00EB99
:10275000820005EB045423430C7D6D0105EB0464FA
:10276000896923430B43416801F040410B434360B7
:10277000002030BD0000F0FF2DE9F05F90F821103F
:102780000024022903D004218163012485E001682B
:102790000A6822F00E020A6001680A6822F001024B
:1027A0000A603F4E3E4FB215DFF8F4C0DFF8F090FC
:1027B000DFF8ECA0DFF8E8B0DFF8E4E00168783F8C
:1027C00013011502ACF1640CA9F15009AAF13C0AFD
:1027D000ABF1280BAEF1140E4FF48018B14227D99B
:1027E000B9420ED0614512D049451DD0514518D08F
:1027F000594518D0714501D1424615E0294EB142E4
:1028000001D1012210E0274E1436B14201D110222D
:102810000AE0244E2836B14206D0224A3C32914288
:1028200001D11A4600E02A461E49091F0A602BE022
:10283000B94213D0614517D0494522D051451DD02A
:1028400059451DD0714501D142461AE0B14202D12D
:102850004FF0807215E0134EB14201D1012210E019
:10286000104E1436B14201D110220AE00D4E283626
:10287000B14206D00B4A3C32914201D11A4600E0E7
:102880002A46074980394A60012180F82110002139
:1028900080F82010416B01B188472046BDE8F09FC9
:1028A000800002400804024070B5044600F018F9A8
:1028B0000546601C02D004480078044400F010F97A
:1028C000401BA042FAD370BD1C0000202DE9F84F38
:1028D000DFF8C091002409F1040A0AF1040B234631
:1028E0004FF00F080BF1040ECCE00127A7403A404F
:1028F000BA4272D1DFF8A0C14D68A5EB0C06654560
:102900002BD00DDC032D34D005DC35B3012D19D0CF
:10291000022D2FD11BE0112D16D0122D2AD119E036
:10292000B6F5881F19D006DCB6F5803F15D0B6F590
:10293000801F1FD111E0B6F5001F0ED0B6F5041FA1
:1029400018D10AE0CB6815E0CB681B1D12E0CB68FC
:1029500008330FE0CB680C330CE08B682BB1012BF4
:102960004FF0080303D0476104E0042302E007614D
:1029700000E00023FF2A01D8064601E000F104062A
:102980004FEA840501D9A5F12005376808FA05FC4E
:1029900027EA0C0703FA05F547EA050737604D6893
:1029A000ED006ED53D4DAE6946F00106AE61AD69F4
:1029B00024F0030605F001050095394D7719BE682E
:1029C000A5072D0F08FA05FC26EA0C06DFF8D4C08F
:1029D000604503D14FF0000C25E052E0DFF8C8C09D
:1029E000604502D14FF0010C1DE0DFF8C0C060452A
:1029F00002D14FF0020C16E0DFF8B4C0604502D1FE
:102A00004FF0030C0FE0DFF8ACC0604502D14FF08F
:102A1000040C08E0DFF8A0C0604502D14FF0050CBF
:102A200001E04FF0060C0CFA05FC4CEA060CC7F866
:102A300008C04D68D9F80060ED034D4601D5164336
:102A400000E096432E604D68DAF80060AD0355460D
:102A500001D5164300E096432E604D68DBF8006018
:102A6000ED025D4601D5164300E096432E604D68A9
:102A7000DEF80060AD02754601D5164300E09643CE
:102A80002E60641C0A6832FA04F57FF42EAFBDE8AC
:102A9000F88F0000000401400000111000100240F7
:102AA0000000014000080140000C014000100140FE
:102AB0000014014000180140001C014080680840DB
:102AC00000D001207047C26821EA02030A4043EAAD
:102AD0000241016170470AB1016170470904FBE7D7
:102AE00001488068704700001C000020024881688F
:102AF00002781144816070471C000020074810B51F
:102B0000016841F010010160032000F057F80F2028
:102B100000F006F800F024F8002010BD002002406C
:102B200070B50D4D04464FF47A712878B1FBF0F082
:102B30000A490968B1FBF0F001F0A4F848B9102C7B
:102B400007D200222146501E00F018F800206C60C9
:102B500070BD012070BD00001C000020000000209E
:102B60007047002809DB00F01F0201219140400955
:102B7000800000F1E020C0F800117047F0B40E4B67
:102B80001B68C3F30223C3F10704042C00D90424F7
:102B90001D1D072D01D2002300E0DB1E012606FAD1
:102BA00004F56D1E0D409D409E40761E164045EA80
:102BB0000601F0BC01F025BF0CED00E0064A00F074
:102BC000070110684FF6FF03184040EA012003494F
:102BD00008431060704700000CED00E00000FA05AB
:102BE0002DE9F0470D46040067D0DFF81881D8F8CA
:102BF000000000F00700A8420CD2D8F8001021F025
:102C000007012943C8F80010D8F8000000F00700B9
:102C1000A84252D120683C4E810712D5400703D507
:102C2000706840F4E06070602078000703D5706839
:102C300040F4605070607068A16820F0F0000843B4
:102C400070602078C00727D06068012810D03168F4
:102C5000022810D0890700292FDA716821F00301BA
:102C600001437160FFF73CFF074641F288390CE0F1
:102C700031688903EFE78901EDE7FFF731FFC11BF9
:102C8000494502D90320BDE8F0877068616800F00B
:102C90000C00B0EB810FF0D1D8F80010404601F0E5
:102CA0000701A9420BD9016821F0070129430160FE
:102CB000006800F00700A84201D00120E3E7207877
:102CC000400705D57068E16820F4E0600843706053
:102CD0002078000706D57068216920F4605040EA2A
:102CE000C100706000F038F87168084AC1F3031140
:102CF000515CC8400649086006480068FFF710FFAD
:102D00000020C0E7002002400010024040160308E7
:102D100000000020200000200448054900684968A0
:102D2000044AC1F30221515CC840704700000020F2
:102D3000001002405016030804480549006849681D
:102D4000044AC1F3C221515CC84070470000002012
:102D5000001002405016030812A085B00FC88DE87D
:102D60000F0014A0144B006804905968134801F038
:102D70000C02042A10D0082A0ED1C1F38342C903E1
:102D80001DF802000AD5596804AAC1F34041515CFC
:102D90000A4A5043B0FBF1F005B070470849484378
:102DA000FAE7000002030405060708090A0B0C0DE8
:102DB0000E0F1010010200000010024000127A00F5
:102DC00000093D002DE9F84F04006FD02078BE4D7A
:102DD000C00747D06868C0F38100012807D0686841
:102DE000C0F38100022809D16868C00306D52868AD
:102DF000800337D560680028E7D033E06068B0F51D
:102E0000803F0BD010B1B0F5A02F11D0286820F46E
:102E100080302860286820F4802002E0286840F490
:102E200080302860606888B1FFF75AFE064609E0E6
:102E3000286840F480202860F0E7FFF751FE801BEF
:102E4000642873D828688003F7D50BE0FFF748FEA5
:102E5000064604E0FFF744FE801B6428F1D828688A
:102E60008003F7D42078DFF8648280074FF0010AEE
:102E70004FF0000939D5686810F00C0F07D068686A
:102E8000C0F38100022809D16868C00306D428680D
:102E9000800714D52069012808D110E02069B0B15D
:102EA000C8F800A0FFF71CFE064605E007E1FFF7A3
:102EB00017FE801B0228C4D828688007F7D5286829
:102EC000616920F0F80040EAC10028600DE0C8F810
:102ED0000090FFF705FE064604E0FFF701FE801BA9
:102EE000022823D828688007F7D4207800072CD53B
:102EF0007748A169D9B1C0F800A0FFF7F1FD0646F7
:102F000004E0FFF7EDFD801B02280FD8686A8007F8
:102F1000F7D570484FF4FA510068B0FBF1F000901B
:102F200000BF0098411E0091FAD20EE07CE0C0F88C
:102F30000090FFF7D5FD064604E0FFF7D1FD801BAA
:102F4000022871D8686A8007F7D4207840075BD5DB
:102F5000E8690027C00008D4E86940F08050E861C3
:102F6000E869012700F0805000905B480168C905BE
:102F700011D40168834641F480710160FFF7B0FD10
:102F8000064604E0FFF7ACFD801B64284CD8DBF854
:102F90000000C005F6D5E06801280AD008B1052870
:102FA00013D0286A20F001002862286A20F004006B
:102FB00002E0286A40F001002862E06841F2883BA4
:102FC00088B1FFF78DFD064609E0286A40F004004D
:102FD0002862EEE7FFF784FD811B59455BD8286A1C
:102FE0008007F7D50BE0FFF77BFD064604E0FFF70F
:102FF00077FD811B59454ED8286A8007F7D41FB149
:10300000E86920F08050E861E069A8B36968C1F31D
:103010008101022946D00228484606D0C8F860003F
:10302000FFF75EFD044639E035E04746C8F860002A
:10303000FFF756FD064604E0FFF752FD801B02280D
:1030400029D828688001F7D4206AB0F5803F05D1DF
:103050006868A16820F4003008436860D4E908017A
:103060000843696821F4741108436860C7F860A0D8
:10307000FFF736FD044605E023E0FFF731FD001BB6
:10308000022808D828688001F7D51AE0FFF728FD44
:10309000001B022802D90320BDE8F88F28688001B0
:1030A000F4D40EE00128F7D06868226A00F4803179
:1030B000914204D1616A00F47010884201D001206D
:1030C000EAE70020E8E7000000100240000042426A
:1030D000800442420000002000700040F0B5426EC3
:1030E000920F0A70426EC2F383624A70426EC2F35C
:1030F00001628A70426E120CCA70B0F86420120A23
:103100000A7190F864204A71826E120DCA80826E34
:10311000C2F303420A72B0F86820C2F3C0324A72A6
:10312000B0F86820C2F380328A72B0F86820C2F327
:103130004032CA72B0F86820C2F300320A73002627
:103140004E73436C4FF40075012463B1012B3AD0E8
:10315000026847499163816B41F08051816380F837
:1031600034400120F0BDB0F86820C36E9205120D06
:1031700042EA93720A61C26EC2F3C2620A75C26EFB
:10318000C2F302624A75C26EC2F342528A75C26EBF
:10319000C2F38242CA75C26EC2F3C2320A760B69AA
:1031A0005B1C43650A7E02F00702921C9340436554
:1031B0000A7A02F00F0704FA07F28265520A5343B3
:1031C000C0E917350EE090F86820C36E9206920AA7
:1031D00042EA13420A610A69521C93024365C0E93C
:1031E0001653056630F86C2FC2F3803201F8192FA0
:1031F0000288C2F3C6124A70027802F07F028A7017
:103200004268D20FCA704268C2F341720A714268C2
:10321000C2F382624A714268C2F383528A71426881
:10322000C2F34052CA710E724268C2F300424A723F
:103230008288C2F3C0328A728288C2F38032CA7234
:103240008288C2F340320A738288C2F300324A7322
:103250008288C2F381228A738288C2F30122CA73F0
:103260000079C0F3460008744C740020F0BD0000E3
:10327000FF05400038B5002504460095B0F8500021
:103280000104206801F000F828B90021206800F04E
:10329000A5FE0090284610B1A16B0143A1630098E0
:1032A000C0F3432038BD70B504000ED094F834004C
:1032B000002518B92577204600F03AF8032084F855
:1032C0003400204600F00AF808B1012070BDA56363
:1032D0002563012084F83400002070BDFEB5002570
:1032E000044676200095CDE9015029460B460A4652
:1032F000206800F076FE08B10120FEBD0B4E46F8B6
:10330000A05F206800F07FFE01253560204601F0B7
:10331000CBF920B9204601F04FF90028EDD084F810
:103320003450A16B0143A163E6E700000000304286
:1033300010B50068354986B0884264D13448416987
:1033400041F480614161416901F4806104918169C6
:1033500041F010018161816901F0100104918169DE
:1033600041F010018161816901F0100104918169CE
:1033700041F010018161816901F0100104918169BE
:1033800041F010018161816901F0100104918169AE
:1033900041F010018161816901F01001049181699E
:1033A00041F02001816180691A4C00F020000490F6
:1033B0004FF48070009002200190012002900320C1
:1033C000039069462046FFF781FA6115009169462E
:1033D0002046FFF77BFA2115009169462046FFF74A
:1033E00075FAE114009169462046FFF76FFAA014C0
:1033F000009069462046FFF769FA0420009069466C
:103400000548FFF763FA06B010BD000000800140D8
:103410000010024000100140001401402DE9FF4F50
:1034200087B016460D460446DDF85080FFF758FB7E
:1034300082463DB194F83400012807D0A06B40F0DB
:1034400000500DE0A06B40F0006009E00027A7638A
:103450000A98E16D3044884204D9A06B40F00070B6
:10346000A06394E0032084F834002068C762606C95
:10347000012800D076024FF40071206800F016FE9B
:10348000012140B12368624A9A63A26B0243A2639E
:1034900084F834107BE04FF0FF3000900A980591DB
:1034A00040020190902002900220CDE90307894656
:1034B000BB466946206800F07BFD0A98012806D9C2
:1034C000022020633146206800F06AFE05E0C4F85F
:1034D00030903146206800F07BFE30B122684C49C4
:1034E0009163A16B0143A1634DE0019E1FE0406B1E
:1034F000000413D596B10027206800F08CFD05F874
:10350000010B010A05F8011B010C05F8021B000E56
:10351000361F7F1C05F8010C082FEDD3FFF7E0FAEA
:10352000A0EB0A0141451FD2B8F1000F1CD0206862
:10353000416B40F22A321142D9D0416BC90509D5FD
:103540000A99012906D9616C032903D000F0CCFE49
:103550000028C3D12068416B09071AD52C49816323
:10356000A06B40F0080051E0216829488863A06BF7
:1035700040F00040A06384F83490C4F830B00320D9
:103580000BB0BDE8F08F84F83490C4F830B001205F
:10359000F6E7416B890705D51D498163A06B40F0B3
:1035A000020033E0416B89061CD519498163A06B89
:1035B00040F020002AE000F02EFD05F8010B010A82
:1035C00005F8011B010C05F8021B000E05F8010CA3
:1035D000361FFFF785FAA0EB0A01414510D2B8F17A
:1035E000000F0DD02068416B890201D5002EE2D179
:1035F000216840F23A50886384F834900020BFE795
:10360000216803488863A06B40F00040A063BAE7DC
:10361000FF0540002DE9FF4F89B015460E460446D0
:10362000FFF75EFA07903EB194F83400012807D006
:10363000A06B40F000500DE0A06B40F0006009E08E
:103640000027A7630C98E16D2844884204D9A06B39
:1036500040F00070A0638AE0032084F83400206802
:10366000C762606C012800D06D024FF400712068C1
:1036700000F01CFDDFF860B1012140B12368C3F800
:1036800038B0A26B0243A26384F834106FE04FF0AD
:10369000FF3000900C98CDE9047140020190902019
:1036A000CDE902078946BA466946206800F080FCE9
:1036B0000C98012806D9202020632946206800F0B4
:1036C0002DFE05E0102020632946206800F03EFE14
:1036D0005FEA000806D02168C1F838B0A06B40EA64
:1036E000080070E0019F26E0406B40041BD5D7B175
:1036F000002516F8010B069016F8011B3F1F40EA43
:103700000120069016F8021B40EA0140069016F8C8
:10371000011C40EA0160069006A9206800F08EFCBA
:103720006D1C082DE5D3FFF7DBF90799411A1698B0
:10373000814220D2F8B12068416B40F21A32114226
:10374000D2D0416BC90523D50C99012920D9616CD0
:1037500003291DD000F0C8FDD0B12268C2F838B0EE
:10376000A16B0143A16384F83490C4F830A0012018
:103770000DB0BDE8F08F2168C1F838B0A16B41EA07
:103780000801A16384F83490C4F830A00320EFE767
:103790002068416B090705D5C0F838B0A06B40F030
:1037A000080010E0416B890705D5C0F838B0A06B60
:1037B00040F0020007E0416BC90606D5C0F838B0FA
:1037C000A06B40F01000A063CDE740F23A51816356
:1037D00084F834900020CBE7FF05400070B504006A
:1037E00008D0606A002538B12561656194F8510000
:1037F00040B10CE0012070BD6068B0F5827FF5D06B
:10380000E561F3E784F85050204600F047F80220C5
:1038100084F851002068016821F040010160A0880F
:10382000218900F4827001F404410843A18901F464
:1038300000610843217C01F002010843217D01F071
:1038400001010843218B01F400710843217F01F03D
:103850003801084394F8201001F080010843218DBD
:1038600001F40051084321680860A069042101EABD
:10387000104021684860A06AB0F5005F03D1A08DB8
:10388000216880B208612068C16921F40061C161CA
:103890006565012084F85100002070BD10B50068F6
:1038A0001D4986B0884234D11C48816941F0080125
:1038B0008161816901F008010491816941F0080189
:1038C0008161816901F008010491816941F0080179
:1038D00081618069124C00F0080004904FF40050A0
:1038E000009002200190012002900320039069467D
:1038F0002046FEF7EBFF4FF48041009169462046D9
:10390000FEF7E4FF4FF40041009169462046FEF7C0
:10391000DDFF06B010BD000000380040001002407E
:10392000000C01402DE9F84F044690F850000125A5
:1039300000270A9E984692468B4601280FD0012008
:1039400084F85000FFF7CCF894F851108146626873
:10395000404601290CD0B2F5827F07D102E0022057
:10396000BDE8F88FA2680AB9042901D002270AE14C
:10397000BBF1000F3CD0BAF1000F39D0B8F1000F05
:1039800036D094F85110042902D0052184F8511042
:1039900000216165C4F838A0A4F83E80A4F83C80FA
:1039A000C4F830B0A4F83680A4F83480216461648F
:1039B000A16A4FF40058414509D121680A6822F4F0
:1039C00000520A6021680A6842F400520A602168C5
:1039D0000A68520603D40A6842F040020A60E168AD
:1039E000B1F5006F616805D0F1B301284DD08DE0CD
:1039F0000127C8E009B1012840D1206B2168008867
:103A0000C860206B801C2063E08E401EE08635E09D
:103A100020688168890717D5E18EA9B1012D13D1DE
:103A2000216B0988C160206B801C2063E08E401EE2
:103A3000E086E08E002538B9A06A404504D12068B0
:103A4000016841F48051016020688168C9070DD088
:103A5000E18F59B1C068A16B0880A06B801CA06386
:103A6000E08F401EE08700E00FE00125FFF738F807
:103A7000A0EB0900B04201D3701C5DD1E08E00289C
:103A8000C6D1E08F0028C3D146E0206B21680078C2
:103A90000873206B401C2063E08E401EE08635E0FA
:103AA00020688168890717D5E18EA9B1012D13D14E
:103AB000216B09780173206B401C2063E08E401E4F
:103AC000E086E08E002538B9A06A404504D1206820
:103AD000016841F48051016020688168C9070BD0FA
:103AE000E18F49B1C068A16B0870A06B401CA06356
:103AF000E08F401EE0870125FEF7F2FFA0EB0900F2
:103B0000B04202D3701C01D016E0AEB1E08E0028A6
:103B1000C6D1E08F0028C3D1A06A404510D1012250
:103B2000334611462046CDF8009000F023FE28B120
:103B3000606D40F002006065032724E02068C068E3
:103B400020688168C943C9060DD4616D41F0020146
:103B50006165016821F4005101602068016841F449
:103B60000051016001274A463146204600F0F2FD2F
:103B700018B101272020606505E0A06818B9206809
:103B8000C16880680090012084F85100002084F80A
:103B900050003846E4E670B515460E46040007D0DE
:103BA000A069B0F5807F03D094F8410010B107E020
:103BB000012070BD002084F84000204600F01EF86F
:103BC00004F108012068FEF781FD3146A2682068F3
:103BD000FEF7B0FDD4E901022946236BFEF758FD3C
:103BE000A168206850F8212042F0010240F821200D
:103BF000012084F84100002070BD0000184800B585
:103C0000416985B041F480714161416901F480717D
:103C10000491816941F020018161816901F02001F5
:103C20000491816941F0400181618069694600F039
:103C3000400004904CF2037000900220019001209B
:103C40000290032003900748FEF740FE4FF6807075
:103C5000009069460448FEF739FE05B000BD00003B
:103C60000010024000140140001801404FF0E02114
:103C70000428086903D020F004000861704740F070
:103C80000400FAE710B5401EB0F1807F01D3012097
:103C900010BD4FF0E02460610F21601700F0B1FE0D
:103CA0000020A06107202061002010BD70470000A7
:103CB00070B5026804461068D168536910F00F0FA0
:103CC00052D003F0010501F490762E435FD0C20775
:103CD00005D0CA0503D5E26B42F00102E263420758
:103CE00005D5DA0703D0E26B42F00202E2638207F5
:103CF00005D5DA0703D0E26B42F00402E263020763
:103D000007D501F020022A4303D0E26B42F00802FB
:103D1000E263E26B002A33D0800604D5880602D520
:103D2000204600F0A6FD20684069E16BC0F38010DA
:103D3000090700D428B3204600F08DFD20684169B2
:103D400049061AD5416921F040014161606BA0B17B
:103D50002D494163606BFEF70FFD002810D0606BAA
:103D6000416BBDE870400847830610D58B060ED521
:103D70002046BDE8704000F07CBD2046FFF796FF6E
:103D800070BD2046FFF792FF0020E06370BD030680
:103D90002BD50B0629D594F839002128F6D1A06837
:103DA000B0F5805F01D12069B0B1206A411C216269
:103DB000216800784860E08C401E0004000CE0841C
:103DC000E4D12068C16821F08001C1602068C16829
:103DD00041F04001C16070BD206A0088C0F3080056
:103DE0005060206A801C2062E5E74006F3D5480653
:103DF000F1D5D168204621F04001D160202184F81E
:103E0000391000F0D1F870BD4748000870B50400C3
:103E100004D094F83900002510B106E0012070BDEF
:103E200084F83850204600F023F8242084F8390024
:103E30002068C16821F40051C160204600F060FD97
:103E40002068016921F4904101612068416921F0F5
:103E50002A0141612068C16841F40051C160E563F5
:103E6000202084F8390084F83A00002070BD00005A
:103E700010B500681E4986B0884236D11D48816958
:103E800041F004018161816901F0040104918169BB
:103E900041F004018161816901F0040104918169AB
:103EA00041F4804181618069134C00F480400490AA
:103EB0004FF4007000900220019001200290032036
:103EC000039069462046FEF701FD2115009100216F
:103ED000019169462046FEF7F9FC2520FEF741FED8
:103EE000032211462520FEF749FE06B010BD000052
:103EF00000380140001002400008014090F83A30BC
:103F0000202B22D1F9B1F2B190F83830012B1CD01E
:103F100081628285C2850021C163222280F83A2015
:103F200080F838100168CA6842F48072CA6001687B
:103F30004A6942F001024A610068C16841F020010B
:103F4000C1600020704701207047022070470000C8
:103F500030B50068114988420CD1114A50880104DB
:103F600008D41146440409784FF0000306D50A2905
:103F700001D0538030BD40F400400DE00D2909D040
:103F8000C0F30D04074D401C80B229555080C7284E
:103F9000EFD830BD40F48040508030BD0038014043
:103FA00012000020400500207047FEE7FEE7704742
:103FB0000A6842624A688262D1E902231A43D1E95F
:103FC00004310B43C16A1A4321F0F7011143C16266
:103FD00000207047006800F0030070470844406903
:103FE000704770B50DF1100C11439CE8700023432D
:103FF000194329434268314347F6FF639A430A4312
:104000004260002070BD10B5032101600220FEF760
:104010004BFC002010BDD0F8800070470A68826019
:10402000D1E901231A43D1E903310B43C1681A4393
:104030006FF30B011143C160002070470968C0F89D
:1040400080100020704710B586B0044600913721DB
:10405000019140210020CDE9021008010490694639
:104060002046FFF7DBFF41F288323721204600F07F
:1040700085F906B010BD000010B50B4A86B00446A5
:1040800011432920CDE90010402002900020039028
:10409000500D049069462046FFF7C0FF204600F00F
:1040A00025FA06B010BD00000000108010B586B0E3
:1040B000044600911021019140210020CDE9021019
:1040C0000801049069462046FFF7A8FF41F28832B4
:1040D0001021204600F052F906B010BD30B585B071
:1040E00000250446009501954FF480600295CDE9C6
:1040F000035069462046FFF791FF0B484FF4FA51F1
:104100000068B0FBF1F141F288304143491E02D210
:104110004FF0004504E0606B0006F7D5C520A063B2
:1041200005B0284630BD00000000002070B585B005
:1041300004464FF4D570009008204026CDE90106D2
:104140000025C001CDE9035069462046FFF766FF10
:1041500012484FF4FA510068B0FBF1F141F2883097
:104160004143491E02D24FF0004514E0606B10F04D
:10417000450FF6D00005F4D4606B400701D5042547
:1041800003E0606BC00702D00125A56303E0606B0C
:10419000400600D5A66305B0284670BD000000208B
:1041A00010B586B0044600911221019140210020F3
:1041B000CDE902100801049069462046FFF72EFF62
:1041C00041F288321221204600F0D8F806B010BD26
:1041D00010B586B0044600911121019140210020C4
:1041E000CDE902100801049069462046FFF716FF4A
:1041F00041F288321121204600F0C0F806B010BD0F
:1042000010B586B00446072140200092CDE9011088
:10421000002003904FF48060049069462046FFF729
:10422000FDFE41F288320721204600F0A7F806B0D3
:1042300010BD10B586B0002102220446C020CDE991
:104240000201CDE900125002049069462046FFF7B2
:10425000E5FE204600F022F906B010BD10B586B08C
:104260000446009109210191C0210020CDE90210EE
:104270004FF48060049069462046FFF7CFFE204649
:1042800000F00CF906B010BD10B586B004460091E0
:104290000D21019140210020CDE902100801049078
:1042A00069462046FFF7BAFE41F288320D212046CA
:1042B00000F064F806B010BD30B585B005460023A7
:1042C0000320CDE900304020CDE9020300010C4677
:1042D000049069462846FFF7A1FE2246032128469E
:1042E00000F026F905B030BD10B586B000210446B7
:1042F00040200C22CDE90201CDE90012000104901A
:1043000069462046FFF78AFE034A0C21204600F04A
:1043100035F806B010BD000000E1F50510B586B017
:10432000044600911921019140210020CDE902109D
:104330000801049069462046FFF770FE41F288327A
:104340001921204600F01AF806B010BD10B586B04D
:10435000044600911821019140210020CDE902106E
:104360000801049069462046FFF758FE41F2883262
:104370001821204600F002F806B010BD454B10B5DC
:104380001B684FF4FA54B3FBF4F353435B1E02D2A1
:104390004FF0004010BD426B12F0450FF6D01205F1
:1043A000F4D4426B520703D504218163084610BD43
:1043B000426BD20702D00121816305E0C5228263EE
:1043C0000269D2B28A4201D0012010BD0021FFF75C
:1043D00005FE3149084201D1002010BD002802DA53
:1043E0004FF0007010BD410001D5402010BD81008C
:1043F00001D5802010BDC10002D54FF4807010BDE2
:10440000010102D54FF4007010BD410102D54FF4F7
:10441000806010BDC10102D54FF4006010BD0102E3
:1044200002D54FF4805010BD410202D54FF4005028
:1044300010BD810202D54FF4804010BDC10202D5EB
:104440004FF4004010BD410302D54FF4003010BDC1
:10445000810302D54FF4802010BDC10302D54FF473
:10446000002010BD010402D54FF4801010BD41049E
:1044700002D54FF4001010BD810402D54FF4800026
:1044800010BD000702D54FF4000010BD4FF480307E
:1044900010BD00000000002008E0FFFD12494FF4AD
:1044A000FA520968B1FBF2F241F288314A43521ED6
:1044B00002D24FF000407047416B11F0450FF6D02B
:1044C0000905F4D4416B490703D5042181630846EB
:1044D0007047416BC90703D00121816308467047CB
:1044E000C521816300207047000000200F494FF470
:1044F000FA520968B1FBF2F241F288314A43521E86
:1045000002D24FF000407047416B11F0450FF6D0DA
:104510000905F4D4416B490703D50421816308469A
:104520007047C52181630020704700000000002013
:1045300030B5204B4FF4FA541B68B3FBF4F441F24E
:1045400088335C43641E02D24FF0004030BD436BA1
:1045500013F0450FF6D01B05F4D4436B5B0703D56E
:1045600004218163084630BD436BDB0702D0012183
:10457000816303E00369DBB28B4201D0012030BDCF
:10458000C52181630021FFF729FD10F4604F04D09D
:10459000410406D54FF4005030BD000C10800020BF
:1045A00030BD000402D54FF4805030BD4FF4803050
:1045B00030BD00000000002010B590B0044601207E
:1045C000ADF838002068FFF705FD002854D0606C76
:1045D000032842D02068FFF72CFE00284AD1002192
:1045E0002068FFF7FBFC606704212068FFF7F6FCFA
:1045F000A06708212068FFF7F1FCE0670C21206824
:10460000FFF7ECFCC4F88000606C032825D00EA9ED
:104610002068FFF751FE00282CD1606C03281CD0C5
:10462000BDF83800206501042068FFF717FE002858
:1046300020D100212068FFF7D1FC606604212068AA
:10464000FFF7CCFCA06608212068FFF7C7FCE066F6
:104650000C212068FFF7C2FC206704212068FFF7C7
:10466000BDFC000DE06403A92046FEF737FD30B124
:104670004FF0805010B010BD4FF08060FAE7B4F8F2
:104680005000002302042068FFF7BAFD0028F1D192
:1046900004F1100007C88DE8070094E80F00FFF749
:1046A000A0FC0020E6E700002DE9F84F00260446B4
:1046B0000096374635460068FFF710FD002827D1E1
:1046C0002068FFF733FD4FF0805B4FF001094FF694
:1046D000FF7848B1A6642068FFF700FD002817D1D5
:1046E000A06C012802D01FE0C4F848900021206887
:1046F000FFF7A9FC58B917E000212068FFF7A3FCD9
:10470000002805D151462068FFF7B6FC10B1584685
:10471000BDE8F88F00212068FFF760FC0746C50F51
:104720000098401C009001E0DFF824A0009941456A
:1047300001D2002DE0D0414502D34FF08070E7E771
:10474000780002D5C4F8449000E066640020DFE7FA
:10475000000010C138B50B460092044600228021AB
:1047600000F008F8002804D0606D40F0200060657B
:10477000032038BD2DE9F8431E469146884604467D
:10478000089DFEF7ADF9401B351AFEF7A9F907465B
:1047900025480068C0F3CB30684338E0701C37D040
:1047A000FEF79EF9C01BA84203D215B1009860B372
:1047B0002CE02068416821F0E00141606068B0F5BC
:1047C000827F0BD1A068B0F5004F02D0B0F5806FAA
:1047D00004D12068016821F040010160A06AB0F5B1
:1047E000005F09D12068016821F400510160206850
:1047F000016841F400510160012084F8510000205B
:1048000084F850000320BDE8F8830025401E009086
:104810002068816838EA010004D000204845BDD1F5
:104820000020F0E70120F9E70000002010B5FEF7B6
:104830005DF92BF0F1FA012803D0BDE810402BF010
:10484000E1B810BD704710B5406A0021C185C18430
:10485000FFF72CFA10BD0168CA6822F49072CA6092
:1048600001684A6922F001024A61202180F83A1069
:10487000704710B590F83A10222901D0022010BDDF
:1048800081684FF48053994201D1026922B1826A52
:1048900099421BD049B10AE00268816A5268C2F3AA
:1048A00008020A80816A891C08E0016971B1016807
:1048B000496801F07F011170816A491C8162C18DD4
:1048C000491E0904090CC18503D016E00168496836
:1048D000F1E70168CA6822F02002CA600168CA686C
:1048E00022F48072CA6001684A6922F001024A61BA
:1048F000202180F83A10FFF72BFB002010BD0000AC
:1049000070B5044600680169E26821F44051114322
:104910000161A16820690143606901432068C268A0
:1049200041F20C639A430A43C26020684169A2695C
:1049300021F44071114341611E492068884202D12F
:10494000FEF7FAF901E0FEF7E7F900EBC00101EB31
:104950000011606864228000B1FBF0F3B3FBF2F356
:104960006FF018067343B1FBF0F5B1FBF0F605EB01
:104970008305322303EB0515B5FBF2F5B6FBF2F622
:1049800005F0F00505EB0615B1FBF0F6B1FBF0F014
:10499000B0FBF2F06FF01801484306EB800003EB28
:1049A0000010B0FBF2F0216800F00F00284488608E
:1049B00070BD00000038014010B50548FFF778F9D8
:1049C000012204490248FFF799FA0028F8D110BDE6
:1049D0000806002012000020FEE7490050EAC1202E
:1049E00018BF04204A0D18BF40F0010040F2FF72CA
:1049F000B2EB515F08BF40F00200012808BF05205C
:104A000070470907090E002804DB00F1E02080F858
:104A10000014704700F00F0000F1E02080F8141D32
:104A2000704700002DE9F74F144694B00021C4E907
:104A300002111599079121F00045C9498D4206DC04
:104A40001599C4E9000117B00020BDE8F08FC549F1
:104A5000DFF814A3A9423CDD0799C44E0029C44FD6
:104A6000C44A1599534619DD2CF04EFA554506D027
:104A7000C14AC24B2CF048FAC4E900010AE04FF0E9
:104A8000D352BE4B2CF040FA32463B462CF03CFA57
:104A9000C4E9000117B00120BDE8F08F2BF0FAFC4B
:104AA000554506D0B44AB54B2BF0F4FCC4E90001DF
:104AB0000AE04FF0D352B14B2BF0ECFC32463B46B0
:104AC0002BF0E8FCC4E9000117B04FF0FF30BDE85F
:104AD000F08FAB49A942159978DB21F0004183465C
:104AE0008846A84AA84B2BF0E9FF0022A74B2BF0E1
:104AF000D1FC2BF01FFF09902BF079FF06460F46E3
:104B00009C4A53462BF0DAFF43465A462CF00AF9EA
:104B100080468A46984A994B304639462BF0CEFF5C
:104B20002A0D01250B92424653462CF0FBF8032D2B
:104B3000C4E9000139D00B98C1F30A51401A05EBC2
:104B400045111139814230DA9148C346784400EB6F
:104B50000510CDF80CA00C90D0E900233046394662
:104B60002BF0ACFF02460B46049106905846039981
:104B70002CF0CAF980468A4602460B4658460399ED
:104B80002CF0C2F9049B069A2CF0BEF983460C98CF
:104B900003913946D0E9022330462BF08FFF5A4665
:104BA000039B2CF0B1F96D1CBDE707980028A2BF4C
:104BB000099817B0BDE8F08F616881F0004161602D
:104BC000099817B04042BDE8F08FFFE7844615987A
:104BD000C1F31301C0F30A50A0F2F5304FEA601898
:104BE00000F01F06C6F120001390002006900790E9
:104BF00041F4801E05206D4676B1664A08EB00013F
:104C00007A4452F8213002EB8101B3404A6813998B
:104C100022FA01F1194305E05F4908EB00027944EB
:104C200051F82210A1FB0E27A1FB0C131A449A4243
:104C300034BF0123002303EB070A05EB8003D3E90C
:104C400001B70F448F4234BF0121002193448B44AC
:104C500011B1934502D903E0934501D2012100E04F
:104C60000021C3E901B7514445F82010011EA0F10D
:104C70000100C1DC0298059F00F10050800F1290E6
:104C80000298DDE9035680002BF0B1FE83462846EA
:104C90000D912BF0C3FE6FF01D022CF085FCCDE9C9
:104CA0000E0130462BF0BAFE6FF03D022CF07CFC7A
:104CB00080468A4638462BF0B1FE6FF05D022CF03C
:104CC00073FC07464246534611912BF0E3FBDDE9A6
:104CD0000E232BF0DFFB5A460D9B2BF0DBFB002550
:104CE0000E465A4628460D9B2CF00EF9DDE90E23A0
:104CF0002CF00AF9424653462CF006F93A46119B2D
:104D00002CF010F8DFF898A0244A53462BF0D6FE7A
:104D100007468846234A244B314628462BF0CEFED0
:104D20003A4643462BF0B6FB074688464FF0A8426A
:104D30005346314628462BF0C1FE3A4643462BF0F7
:104D4000A9FB159A12F0004F04D0129A81F000418D
:104D500052421292C4E90001129817B0BDE8F08FD8
:104D6000FB21E93F7CD90240FB21F93F7370032E00
:104D70008A19A33B000040543163621A61B4D03DEC
:104D8000FB21394183C8C96D305FE43F0000E03F3B
:104D900090F305000CF30500EEF20500182D4454C5
:104DA000FB21F93D3326A611460B113C2DE9FF4DA1
:104DB00021F0004807460C46B8F1795F08DA2BF07D
:104DC000B9FD002801BF0020324904B0BDE8F08DD4
:104DD0003A462346104619462BF070FE0546024619
:104DE0002D480E460B460621784400F05DF82A4611
:104DF00033462BF063FEDDE9022382468B463846BC
:104E000021462BF05BFE04460F4652465B46284681
:104E100031462BF053FE22463B462CF075F80746F0
:104E20008A464FF0FF32284631462CF0BDFB1B4A24
:104E300090450ADA3A4653462CF066F804B0002250
:104E4000BDE8F04D134B2BF06DBF154A4245A8BF8E
:104E5000A8F500154FF00004B8BF124D22462B46AE
:104E60002CF052F80646884622462B460020094977
:104E70002CF04AF804460D463A4653463046414621
:104E80002CF042F804B022462B46BDE8F04D2BF042
:104E900049BF00000000F03FBCF005003333D33FB2
:104EA0000000E93F0000D23F2DE9F0414F1E00EB2A
:104EB000C7010446D1E9000115461E4637F0060237
:104EC0000DD02A4633462BF0F9FD7F1E04EBC703B5
:104ED000D3E900232BF0DEFA37F00602F1D1022FDE
:104EE00025D0042F13D0062F18BFBDE8F0812A4625
:104EF00033462BF0E3FDD4E90A232BF0CBFA2A4604
:104F000033462BF0DBFDD4E908232BF0C3FA2A4605
:104F100033462BF0D3FDD4E906232BF0BBFA2A4607
:104F200033462BF0CBFDD4E904232BF0B3FA2A4609
:104F300033462BF0C3FDD4E902232BF0ABFA2A460B
:104F400033462BF0BBFDD4E90023BDE8F0412BF044
:104F5000A1BA00002DE9FF4D054621F0004084B0C4
:104F60000C46B0F1795F0BDA2846FFF736FD0428CE
:104F700008BF00F0BDF9284608B02146BDE8F08D15
:104F80002A460B4610462BF099FD06460F462A4648
:104F900023462BF093FD804626488A4632463B4600
:104FA00005217844FFF780FF83461098029160B393
:104FB000214A224B404651462BF080FDCDE90001AD
:104FC0005A4640465146029B2BF078FD8246884661
:104FD000DDE906014FF0FF322CF0E6FA5246434677
:104FE0002BF092FF32463B462BF068FDDDE90623AD
:104FF0002BF08AFFDDE900232BF086FF08B02A465C
:105000002346BDE8F04D2BF08DBE0B465A46304688
:1050100039462BF053FD084A084B2BF03BFA424629
:1050200053462BF04BFD08B02A462346BDE8F04D11
:105030002BF030BA02F00500495555555555C5BFFE
:105040002DE9F04D04468CB0904821F000471646FB
:1050500098460D460991874206DA204629462BF0EC
:1050600069FC002800F0AE808948B8421CDC099831
:105070000028BCBF85F0004588F00048854A864B73
:10508000204629462BF04EFE04460D463246434646
:10509000824883492BF038FF22462B462BF0FAF941
:1050A000002604460D46B04622462B4610461946B9
:1050B0002BF004FD8B46824602460B462BF0FEFC8D
:1050C0000246089077480B46009106217844FFF786
:1050D000EBFECDE90310744806217844009B089A42
:1050E000FFF7E2FE52465B462BF0E8FCCDE90510E7
:1050F00052465B46204629462BF0E0FC0791009083
:10510000DDE90310DDE905322BF0C4F9079B009AB5
:105110002BF0D4FC324643462BF0BCF952465B469A
:105120002BF0CCFC324643462BF0B4F980460E46B9
:105130005E4A5F4B079900982BF0C0FC424633460D
:105140002BF0A8F982468B4622462B462BF0A2F97B
:1051500080464F480E46B84214985BDC2BF047FC63
:1051600007464246334605912BF094F9CDE90110EC
:1051700042463346104619462BF0A0FCDDE90132C9
:105180002BF044FA52465B462BF0BEFE22462B46DD
:105190002BF0C8FD01222CF007FA3A46059B2BF0B4
:1051A000C1FD04460D460998022101EAA070C0F134
:1051B00001002BF01CFC0CB022462B46BDE8F04D44
:1051C0002BF07CBC1498401C384320430BD014981F
:1051D000012812D00CB022462B46BDE8F04D00202D
:1051E00034492BF013BA0CB025F000432246BDE839
:1051F000F04D002030492BF009BA20462946FFF730
:10520000ECFB042808BF00F073F820460CB02946D8
:10521000BDE8F08D012802BF40460CB0BDE8F08D1E
:1052200000270B463A46204629462BF07BFD524686
:105230005B462BF077FD04460D4642463346002080
:105240001C492BF0E3F983463A468846334610461C
:105250002BF034FC0022184B2BF01CF906468A4632
:1052600022462B46384641462BF028FC3246534610
:105270002BF010F95A4643462BF020FC0CB03A466E
:105280004346BDE8F04D2BF005B900000000303E6C
:105290002894E53F182D4454FB21E93F075C143363
:1052A00026A6813C00EF050022EF05006355555509
:1052B0005555D53F0000F0BF0000F03F00221346D7
:1052C000104601492BF0A2B90000F03F01222CF05A
:1052D0006BB92BF0DFB800221346104611462BF0B5
:1052E00095B940F2013200204FF0E0412CF05CB95A
:1052F000024A002011072CF057B9000001FDFFFF02
:1053000010B50446D1E9000100F002F8206010BD9C
:10531000F8B504460D466A460BF07EF800987E30DC
:10532000009000281EDC00221346204629462BF060
:10533000C5FA17D0002140F608004FF000000646DD
:10534000204629462BF074F8044640F6080006EA89
:1053500000014FF0000034F0004004BF0220FBF7D2
:10536000F5FB29E00098FF2828DB002108464FF0D4
:10537000000000F4400600221346204629462BF088
:105380009BFC8CBF002501250220FBF7DFFB4FF0C3
:10539000FF4446B1002D0CBF4FF400004FF48000D5
:1053A000B04218BF084C042108464FF00000002D01
:1053B00004BF84F00040F8BD2046F8BD20462946D1
:1053C000BDE8F8402BF034B8FFFF7F7F10B50446EE
:1053D0000A46D4E90003194611F0DEFAC4E90001D7
:1053E00010BD70B5044600256FF02F0608E0206858
:1053F000411C2160007805EB850106EB4101451851
:105400002068007800F004F80028F0D1284670BD2C
:105410003038092801D80120704700207047303803
:105420000A2801D2012070470020704710B54021A2
:10543000074801F079F800220421064823F052FAC7
:10544000054CA06002F0ACF80020207010BD0000F8
:1054500010A10020497600081402002070B5B1F9AF
:105460000040B2F900309C4200DD23460380B1F9D0
:105470000240B2F90250AC4200DC2C464480B1F943
:105480000450B2F90460B54200DB35468580B1F9BD
:105490000610B2F90620914200DB1146C1800120BE
:1054A000AB4201DC8C4200DD002070BDF8B50D463A
:1054B0000446B0F90000B1F900101646884247DBF7
:1054C000B4F90210B5F90220914241DBB4F904109D
:1054D000B5F9042091423BDCB4F90610B5F9062079
:1054E000914235DC96B3ADF800006088ADF802005B
:1054F00032466946284600F099F8002827D0A0884F
:10550000ADF800006088ADF80200324669462846D2
:1055100000F08CF800281AD02088ADF80000E08850
:10552000ADF8020032466946284600F07FF80028B0
:105530000DD0A088ADF80000E088ADF8020032463A
:105540006946284600F072F8002800D00120F8BD16
:105550000020F8BDB0F90020B1F904309A4213DC04
:10556000B0F90420B1F900309A420DDBB0F9022005
:10557000B1F906309A4207DCB0F90600B1F9021021
:10558000884201DB0120704700207047F8B50D46C6
:105590000446B0F90400B1F900101646884243DB16
:1055A000B4F90600B5F9021088423DDBB4F90000F9
:1055B000B5F90410884237DCB4F90210B5F90620B9
:1055C000914231DC76B3ADF800006088ADF802009E
:1055D00032466946284600F029F818BBA088ADF885
:1055E00000006088ADF8020032466946284600F0A7
:1055F0001DF8B8B92088ADF80000E088ADF80200C9
:1056000032466946284600F011F858B9A088ADF82E
:105610000000E088ADF8020032466946284600F0F6
:1056200005F808B10020F8BD0120F8BD2DE9FC41C6
:1056300005460F46B1F90000B5F90010144688423E
:105640003BDBB5F90410884237DCB7F90200B5F945
:105650000210884231DBB5F9061088422DDC002C9F
:1056600076DD284612F0FAFC00EBD0704610284692
:1056700012F0B0FC00EBD0704010864200DA3046E9
:10568000844200DD04462888ADF800002888002206
:105690002044ADF804006888ADF8020068883946F7
:1056A0002044ADF806006846FFF7C0FF40B1BDF8E2
:1056B00004002044ADF804003FE00020BDE8FC8178
:1056C000E8880022001BADF80200E888ADF806006B
:1056D00039466846FFF7AAFF28B1BDF80400204408
:1056E000ADF8040011E0A8880022001BADF800000E
:1056F000A888ADF8040039466846FFF797FF50B117
:10570000BDF80000001BADF80000BDF80200001B52
:10571000ADF8020016E06888ADF802006888002243
:105720002044ADF8060039466846FFF77FFF70B1A8
:10573000BDF80000001BADF80000BDF806002044D5
:10574000ADF806003946684620F0BEFAB6E7FFE736
:105750000120B3E710B5B1F90030B2F90040A3421F
:1057600000DB23460380B1F90230B2F90240A342C4
:1057700000DB23464380B1F90430B2F90440A34270
:1057800000DC23468380B1F90610B2F9062091426D
:1057900000DC1146C18010BDFEB5054623F0A0F81F
:1057A0000024354E0746009435B1E86870602846FD
:1057B00023F066F9706802E014F086FE70600069FC
:1057C0001FF0A2FF7068406908B11FF09DFF70686C
:1057D000C0691FF099FF7068006A1FF095FF70683C
:1057E0000169E1B320F062FF20F0DCFE7068B0F8E0
:1057F000501199B30168097C890715D514F0C2FED0
:10580000401E05B2706814F077FE401E03B20022FD
:10581000114601A8009512F04DFC706801A90268BC
:10582000926B516005F060FC70684FF4807130300D
:105830001BF0ECFC7068202100F598701BF0E6FC72
:105840007068A0F85041384623F044F80090706822
:105850000068436A13B132680099984700E007E096
:105860001BF01CFB00F034F8BDE8FE4000F006B869
:10587000A0F85041FEBD00004C01002070B5094E5B
:105880000024C4EBC40556F8250008B11BF07AFBD0
:1058900006EB85001C211BF0B9FC641CE4B2042C4F
:1058A000EFD370BDECA10020084949680AE04A68BE
:1058B000824202D00A68824203D10A7E42F001028B
:1058C0000A7649690029F2D17047000020010020C2
:1058D000704700000421014800F026BE04A100200A
:1058E0001C21014800F020BE1CA100202DE9FE4F24
:1058F0000446DDE90C0513B9B0F5807F7ED0B5F91B
:1059000000604FF0FF3C764246430CEB262636B251
:105910002680B5F902707F4247430CEB27273FB240
:105920006780B5F900C0A1EB0C0141434FF0020CB8
:105930000CEB212109B2A180B5F90280A2EB08028B
:1059400042430CEB222000B2E080002B7ED04FF0CF
:105950000A0A93FBFAF6704200EB800003EB400763
:1059600006F1010930B223F0E5F900900FFA89F051
:1059700023F0E0F983465A3630B223F0DBF9804653
:1059800009F15A0000B223F0D5F90146009AC7F197
:105990000A0000FB02F300FB08F001FB07010BFB10
:1059A000073393FBFAF291FBFAF15011B4F900209E
:1059B0004FEA611BB4F902100BFB02F6B5F800C008
:1059C00000FB11630CEBA323E646B5F802C00FFA07
:1059D00083FACDF800C0B4F9043000FB02F90BFBE8
:1059E00001920BFB03F800FB11850CEBA2220EEBDE
:1059F000A52512B22DB200FB03FC00E02EE0CDE99C
:105A000001C80BFB01C1DDF800C0B4F906700CEB56
:105A1000A1210BB200FB17610EEBA1210EB2DDF844
:105A200008800BFB079100FB17800CEBA121DDF830
:105A300004C00EEBA0200BFB07C7DDF800C009B2C5
:105A40000CEBA72700B23FB2D44600E00FE056456A
:105A500000DAB446A84217DA804616E0002020801B
:105A6000491E6080A180521EE280BDE8FE8F2A8818
:105A7000324422806A883A4462802A881144A18094
:105A800069880844E080F0E7A846C44504DAD446B3
:105A9000564506DAB44604E0A84201DA844600E03E
:105AA000AC46A4F800C0D446564500DDB446A84232
:105AB00001DD804600E0A846C44504DD5046564559
:105AC00004DD304602E0A84200DC2846A080914276
:105AD00001DA084600E010469F4201DA3D4600E048
:105AE0001D46A84205DA914201DA084606E0104652
:105AF00004E09F4201DA384600E018466080914297
:105B000001DD084600E010469F4201DD3D4600E011
:105B10001D46A84203DD914206DC114604E09F4287
:105B200001DD394600E01946E1809EE72DE9FE4F90
:105B30000446D0F800B0B0F90800E589081AB4F9B5
:105B40000A10511AD4E90932B5F5807F3AD0A589F7
:105B5000002DA56B05FB00F005FB01F54FEA601079
:105B60004FEA65113CD0256BE66A05FB00F706FBA2
:105B70001177464305FB016003EBA72902EBA02048
:105B8000B4F904104FEA292706128046B94246DDCF
:105B9000002F44DBB4F90600B04240DD002E3EDBAE
:105BA00094F8340042073DD5820704F114001BD459
:105BB00001FB067102224D0092460BEB05011BF022
:105BC000DEFA21E0256BE66A05FB00F706FB11779C
:105BD000464305FB016003EBA70902EBA000CFE7FA
:105BE00003EB00095018CBE701FB067101EB4105FF
:105BF0004FF0030A0BEB050102221BF0C0FAE81C70
:105C0000584410F8010CA07594F83400C0071FD058
:105C10004FF4FC60ADF80000A18A814218D1002049
:105C2000BDE8FE8F32B204F118002369CDE901020C
:105C3000002539B2AA468B4618F076F90090BDF8D7
:105C40000000A082DDE90102594618F005F9DAE703
:105C5000E07C78B1A4F83C90A4F83E80A4F84070B1
:105C6000A4F84260656484F848A02046BDE8FE4F71
:105C700000F002B80120D3E72DE9F04F044690F878
:105C80003C10D0F8009090F83E0087B04FF0FF36FF
:105C9000702907DAB4F940203546012A00D50025DD
:105CA00080310DE0902916DDB4F94020B4F90430BC
:105CB0000125521C9A4200DB0025A1F27F114942C6
:105CC000C9B28846702809DAB4F94210012900D512
:105CD0000026803010E00025FF21F2E790280DDD3E
:105CE000B4F94210B4F906200126491C914200DBA8
:105CF0000026A0F27F104042C7B201E00026FF2735
:105D000060690590A07D0190002082468346009046
:105D100094F83400400744D594F84810606C02228F
:105D200001FB0501494404A81BF029FAB4F9040059
:105D300094F8481002224843616C06FB0011494464
:105D400003A81BF01CFAB4F9041094F84800626C24
:105D5000414306FB012200FB05901118022202A814
:105D60001BF00DFA94F83400800761D594F84800D0
:105D7000626C00EB090100FB05230B4413F8013CA6
:105D80000093B4F90430434306FB0322114400FBA3
:105D9000050011F801AC111801EB090010F8010C15
:105DA00045E0B4F84000B4F94220284401B204F1BF
:105DB00018008146236918F0B7F80490B4F842003F
:105DC000B4F94010304402B254F8103F484618F07D
:105DD000ABF80390608E2368304402B2208E2844D2
:105DE00001B2484618F0A0F8029094F82400103C44
:105DF00080071DD5B4F9422034F8400F284401B281
:105E0000484618F029F800906088B4F90010304432
:105E100002B2484618F020F882466088304402B248
:105E200034F84009284401B2484618F015F8834672
:105E300094F8340042464546800735D50199009BC9
:105E400001FB08F1C8F1FF0003FB00110AFB08F396
:105E50000BFB0030C1F30721C0F3072001FB07F360
:105E6000C7F1FF0600FB06331B0AA375022907D8FA
:105E7000022803D8002007B0BDE8F08F002702E019
:105E8000022800D8FF270198022800D80022009895
:105E9000022800D8FF22BAF1020F00D80025BBF17A
:105EA000020F03D8FF2501E0FF20A075DAB1FF2A19
:105EB0001BD0DDE9041014F035F80190BDB1FF2DC1
:105EC00017D0DDE902102A4614F02CF800903FB1FB
:105ED000FF2F10D001463A46019814F023F80090A5
:105EE000BDF8000009E00498E7E70598E5E70298A7
:105EF000ECE70398EAE7BDF80400A0820120BAE7C6
:105F00002DE9F0470446B0F908000A270002606254
:105F1000B4F90A000002A062B4F90C0090FBF7F596
:105F2000694201EB810100EB4106684205F101087D
:105F300000B222F0FFFE8246E84300B222F0FAFEF1
:105F40008146C5F15A0000B222F0F4FE0546C8F1C0
:105F50005A0000B222F0EEFE0146C6F10A0000FB34
:105F60000AF3684301FB060009FB063292FBF7F2D5
:105F700090FBF7F051114011C4E90B10A07C18F010
:105F80009AF994F8341060F3000184F83410A07C7E
:105F900018F081F994F8341060F3410184F834105A
:105FA000A07C042823D0052821D006281FD021F06A
:105FB000040184F8341021682162A16921F0E00114
:105FC00060F30401A08860F39421E08860F35F51DE
:105FD000A161E0894FF4001101EB5001B1FBF0F039
:105FE000A063FF20A075208AA082BDE8F08741F061
:105FF0000401DEE72DE9F04115460E460746114C37
:1060000022F06EFC80462B4632463946204618F078
:10601000CFFC20B10020A062E06950B110E02C213B
:1060200020461BF0F3F84FF00040A0620020BDE8CE
:10603000F081404622F04EFCE06108B90120E061A9
:106040002046F4E740A1002010B51421074800F0D5
:106050006BFA18F073FC40B10549016005494160D5
:10606000054981600549C16010BDFEE728A10020F7
:1060700071E30108E5E601085DE801083DE3010878
:1060800070B50D460446102128461BF0BFF8206865
:106090000078012804D0022807D0042807D008E09F
:1060A000208A2880608A688003E0E06800E00A2097
:1060B000686020684268002A03D02946BDE8704025
:1060C000104770BDFEB5856A0446BDB9A08A218A15
:1060D0000844A082E08A618A0844E082204609F0F0
:1060E0004DFC050079D020460CF012FE002209215B
:1060F000284617F089F8607880076ED4208A10B996
:10610000608A002869D00026ADF80860ADF8046008
:1061100094F83C0000F00F000328284616D01DF02C
:106120006BF8074628461CF041FF03460C20009000
:10613000B4F912103A46284608F006F9ADF8040002
:1061400028461CF085FFC10712D017E01CF0E8FFBD
:10615000074628461CF084FF024603200090B4F94D
:1061600010103B46284608F0EFF8ADF80800E7E7C6
:10617000BDF90810002901DDADF80860810705D4DC
:10618000BDF90810002901DAADF80860410705D40F
:10619000BDF90410002901DDADF80460000705D445
:1061A000BDF90400002801DAADF8046001AA02A9D3
:1061B000204626F0BAF90023BDF90420BDF90810E5
:1061C00028461EF057FEA08ABDF808100844A08299
:1061D000E08ABDF804100844E082FEBD2DE9FC5FB2
:1061E0000446806A5FEA000B71D094F83C00000717
:1061F0006DD018F0EFFE019000684021457E5846B2
:106200001DF0E8FD4FF0000818B9A4F81A80A4F8B2
:10621000188058461CF0E2FF824658461CF0E5FF05
:10622000064694F83C004FF0640900F00F000C287B
:1062300002D003284CD09AE0A4F8188056B1B4F9E3
:106240001A50002718F0C6FE00684946407EC0F18B
:10625000640222E0B4F91A00C5F16401484390FBDE
:10626000F9F0608358461CF0A1FE054658461CF024
:10627000C3FF02460C200090B4F91A102B46584672
:1062800008F062F86083024600231EE0781907B226
:1062900002FB05F090FBF1F005B2002DF6D1ADF850
:1062A0000070A4F81A806A460021204626F03DF9C5
:1062B00041F6FF72BDF900305142584609F0C2FC68
:1062C000BDF800100123084402B200214CE09AE01E
:1062D000A4F81A80BAF1000F0AD0B4F918500027B8
:1062E00018F078FE00684946407EC0F1640222E062
:1062F000B4F91800C5F16401484390FBF9F020831C
:1063000058461CF0ADFE054658461CF009FF0346F2
:1063100003200090B4F918102A46584608F014F8E3
:106320002083014600231EE0781907B202FB05F026
:1063300090FBF1F005B2002DF6D1ADF80070A4F895
:10634000188000226946204626F0EFF841F6FF72D9
:10635000BDF900305142584609F0F2FBBDF800107B
:106360000123084401B2002258461EF083FD208B11
:10637000002848D1608B002845D1C6B958461CF08A
:106380003BFF054658461CF011FE002D06DC002898
:106390000DDD002D02DA01232A4604E0002806DA8A
:1063A0000123404202B2002158461EF063FDBAF1BB
:1063B000000F19D158461CF053FE054658461CF0F4
:1063C000AFFE002D07DC00280EDD002D03DA0123CF
:1063D0000022294605E0002806DA01230022404277
:1063E00001B258461EF046FD0A215846019A16F0A1
:1063F0000BFF6078800706D414F83C0F20F00F00E4
:10640000207044F8148CBDE8FC9F7FB50D46040055
:1064100003D114F059F8040023D00026FDB1ADF8E3
:106420000060ADF8026014F067F8401EADF804009B
:10643000204614F0A7F8401EADF806006A4629462B
:1064400002A8FFF70BF800280BD02068017C890711
:1064500008D5DDE90001C4E90C01012029E0A0F81C
:1064600050617FBD82690AB102A9904700250AE008
:1064700004EBC501002202A83031FFF717F800280D
:10648000EFD16D1CADB2B4F85001A842F0D880B283
:10649000202804D204EBC00002A9303004E0A4F8A4
:1064A000506104F13000694611F037FDB4F8500135
:1064B000401CA4F8500160680028D2D022F0ECFA09
:1064C0007FBD70B5054600F012F804460CE0214689
:1064D000284600F01EF806462146284600F071F8CE
:1064E00020461AF04FFD3446002CF0D170BD002834
:1064F00000D04068704700B503460022FFF7F7FF61
:1065000003E01846521C00F004F80100F9D11046CF
:1065100000BD0068091D405870470068405870472A
:10652000002800D08068704700224260C91C21F01A
:10653000030182600160704770B50446006808304E
:106540001AF096FC050013D001460022204623F0E5
:1065500000FD29462046626823F0F2FC616819B10B
:106560002A46204623F0F5FC6560A06800B9A560C6
:10657000284670BD70B50446006808301AF078FCF3
:10658000050013D001460022204623F0D9FC2946FD
:106590002046A26823F0DDFCA16819B12A462046F6
:1065A00023F0CEFCA560606800B96560284670BD28
:1065B00028B1416809B9806808B1002070470120FE
:1065C000704770B504000DD0FFF791FF002288429C
:1065D000204608D1FFF79DFF606010B10022014600
:1065E0001EE0A26070BDFFF79BFF88422068084450
:1065F0000AD10168A16029B12046BDE8704000229F
:1066000023F09EBC626070BD05682046FFF781FFE5
:10661000064602462946204623F092FC2A46314689
:106620002046BDE8704023F094BC10B504460068D5
:1066300082680AB12146904720680068002801D08E
:106640002060F5E710BD8068002801D0B0F9160081
:10665000704700002DE9F047054690B0408C189C2B
:1066600040F00400688490462A8499468A4622892C
:1066700028461DF0B5FA0646A5F820902289514615
:1066800028461DF0ADFA0746688CBE4220F0040093
:10669000688403D13104B1EB074F68D0A5F820809E
:1066A0002289514628461DF09BFA06468046A5F8E9
:1066B0002090514628460BF0D3F8218900683246D5
:1066C00021F0F3F82089602823D147F6FF794E4561
:1066D00001D04F451DD128461DF079FB00EBD0704D
:1066E000461028461DF073FB00EBD0704010C845E3
:1066F00006D1711C431C994200DA00E01946884615
:106700004F4506D1711C421C914201DA0F4600E050
:1067100017461948FFF710FF06002BD03560C6E971
:1067200003872089B0806846C6F808A010F076FE7E
:106730001248FF21CDE900601148029011480390F2
:1067400000200790CDE9080120880A9060889DF814
:106750003E1040420B90E0680690002060F300017C
:106760008DF83E1020690590684610F0B5FE10B017
:10677000BDE8F087FEE7000034A1002045EC0208E8
:1067800035EE02088DED020814210148FFF7CCBE5A
:1067900034A100202DE9F84F002490468946064692
:1067A000254643F60F0A43F60E0B00E10420F1687C
:1067B00000EBC500085881017ED480B230EA09019F
:1067C00012D0002130EA080010D00020814273D09E
:1067D000F0686A4641F6100150F83570384620F0EE
:1067E00055FE002869D103E00121EBE70120EDE728
:1067F0006A4641F61101384620F048FE002873D160
:106800006A4641F61201384620F040FE00286BD15E
:106810006A4641F61301384620F038FE002863D15D
:106820006A4641F61501384620F030FE00285BD15B
:106830006A4641F61401384620F028FEE8BB6A4655
:1068400041F26901384620F021FEB0BB6A4643F2AE
:106850000C01384620F01AFE78BB6A4643F20D015F
:10686000384620F013FE40BB6A4641F2010138462B
:1068700020F00CFE08BB6A4641F20401384620F0C5
:1068800005FED0B96A4641F20201384620F0FEFD0D
:1068900098B96A4641F20301384620F0F7FD60B925
:1068A0006A4641F20501384620F0F0FD28B96A46F3
:1068B00041F20601384601E078E015E020F0E6FDFF
:1068C00090B96A4641F23201384620F0DFFD58B9EE
:1068D0006A465146384620F0D9FD28B96A465946DD
:1068E000384620F0D3FD10B10320BDE8F88F6A468A
:1068F00040F60A01384620F0C9FDE8BB6A4640F67A
:106900000B01384620F0C2FDB0BB6A4651463846FE
:1069100020F0BCFD80BB6A465946384620F0B6FDE3
:1069200050BB6A4640F63C01384620F0AFFD18BB2C
:106930006A4640F63D01384620F0A8FDE0B96A46B7
:1069400040F63A01384620F0A1FDA8B96A464FF456
:106950000461384620F09AFD70B96A4640F6450158
:10696000384620F093FD38B96A4640F64101384672
:1069700020F08CFD00B900E014E06A4640F64201C8
:10698000384620F083FD68B96A4640F64301384630
:1069900020F07CFD30B96A4640F64901384620F0C7
:1069A00075FD08B1022401E004B901246D1C708C4E
:1069B000C0F3C500A8423FF6F9AE204695E70000B7
:1069C00001484068704700004C0100207047C0F348
:1069D0000410072800D907207047000010B51821BF
:1069E0000348FFF7A1FD03490120087010BD000016
:1069F000E0A00020400200202DE9F04190460D4625
:106A0000040016D0F9F7DFFE29460B4D0646204656
:106A1000AA6890470746AA68E01941469047014690
:106A20003846721A03E04318E35C2354401C824248
:106A3000F9D2BDE8F0810000540200202DE9F041B8
:106A4000094C90460E4662681D4607461946904717
:106A5000306020B128686268384400219047C8F847
:106A60000000BDE8F0810000540200202DE9F04F45
:106A700087B08A46DDE910581F4693460446002138
:106A800005B129805CB12078002809D0BAF1000F47
:106A900005D0002618F0060F15D0002004E00020D5
:106AA00007B0BDE8F08F401C215C0A2904D00D29F5
:106AB00002D00029F7D100E0401C002DF0D04FF0AB
:106AC000FF312980ECE75FEA887001D541F6FF7756
:106AD000894608468DF81010059125E00598CDF8F7
:106AE000189058B3002104ABCDE902310DF1180C18
:106AF000CDE9008C20443B465A46514622F044F9E9
:106B000006997A1A314417B20EB288B10599084431
:106B1000059021780A290BD00D2909D0205C0A287C
:106B20000ED00D280CD00598205C08B1002FD5DCC4
:106B3000059848B105B12E800598B1E70121D2E74B
:106B40000598401C0590F3E7064A05A920465268BF
:106B500090470146002DEFD00022504616F0B9FCB8
:106B600006B2E8E7540200202DE9F04117468846B6
:106B700006001ED0002F1CD0F9F725FE044638462B
:106B8000F9F721FE050014D00B4A2C4441469268C7
:106B900030469047411903E0621BB25C3255641ED7
:106BA000A142F9D930442A463946BDE8F0411AF0ED
:106BB000F1BABDE8F0810000540200200023027801
:106BC000232902D0012A0DD00FE02AB10021012A89
:106BD00004D0022A04D008E0012101E0017004E0A1
:106BE000017001E0202902D00123184670470221DC
:106BF000F6E72DE9F047984614460D468246DDF843
:106C0000209013E0660806FB0857394650464A466E
:106C10009047002808DD44F30000C0EB540407EB64
:106C20000805A4F1010401E005DA3446002CE9D19D
:106C30002046BDE8F0873846FBE72DE9FC5F0CAD48
:106C40009E4692468B4695E81201DDE91132DDE958
:106C50000F7C96074FF0300519D453B1D60708D0F2
:106C600002F00C0656EA080603D05B1E01E00D5543
:106C7000641C644504D2202CF9D301E00D55641C3A
:106C80005FEAC27903D09C4201D2202CF6D3D6060B
:106C900024D556050AD44CB1644501D09C4205D197
:106CA000641E03D0102F03D1641E04E0102F02D005
:106CB000022F0AD00EE0960603D4202C1ED278268E
:106CC00006E0202C1AD2582602E0202C16D262268A
:106CD0000E55641C202C11D20D55641C202C0DD295
:106CE000B8F1000F01D02D2506E0550701D52B2561
:106CF00002E0150702D520250D55641CCDE900EBF7
:106D0000064655468B4698469146900713D127462E
:106D100006E02A46DDE900316D1C2020B0477F1CCB
:106D20004745F6D307E02A466D1C641EDDE90031B5
:106D30001BF80400B047002CF5D15FEA897006D437
:106D400009E02A46DDE900316D1C2020B047A5EBA3
:106D50000A014145F5D32846BDE8FC9F2DE9F04FD7
:106D60008FB099468B46DDE91818DDE91C63DDE933
:106D70001A4786469246002009B923F010035A05A7
:106D800007AD00D5C9B1B1FBF4F204FB1212D2B2C7
:106D90000A2A01D2303209E05FEA836C02D54FF053
:106DA000410C01E04FF0610C62440A3AB1FBF4F18E
:106DB0002A54401C09B12028E5D3CDF80880CDE93C
:106DC0000563CDE90050CDE903474B46524659468D
:106DD0007046FFF732FF0FB0BDE8F08F2DE9FF4F8F
:106DE0008FB01CACDDE9239594E8030820AC94E84F
:106DF000C004002450EA010201D125F010056A0503
:106E00000DF11C0802D550EA010217D032463B466C
:106E1000F9F787FAD2B20A2A01D2303206E0AB067D
:106E200001D5412300E061231A440A3A08F80420FE
:106E3000641C50EA010201D0202CE7D3CDE9008484
:106E4000CDF808B0CDE90595CDE9036A0FAF97E815
:106E50000F00FFF7F2FE13B0BDE8F08F9A4200D2A8
:106E60008854704770477047704700002DE9FF4F06
:106E700089B082460A980024169D002801D1DFF8C7
:106E8000F0A367E1252802D02246641CE2E1491CF8
:106E9000002608460C9101782B291BD004DC202900
:106EA0001BD0232904D11BE02D290ED0302909D075
:106EB0000027C8B2FEF7ACFAA8B10CA8FEF791FA09
:106EC00007461CE046F0010601E046F00206401CC1
:106ED0000C90E0E746F00406F9E746F00806F6E70E
:106EE00046F01006F3E70C9801782A2907D180CDE7
:106EF000002F02DA46F002067F42401C0C900C98EC
:106F00004FF0000801782E2917D1401C0C9046F450
:106F100080660078FEF77CFA20B10CA8FEF761FAD3
:106F200080460AE00C9908782A2806D101CD00286D
:106F300000DC0020491C80460C910C9801786C29DB
:106F40000AD004DC68290FD06A2918D127E07429F7
:106F500028D07A2913D125E0401C0C90017846F402
:106F600080766C291BD00AE0401C0C90017846F01A
:106F70008006682903D146F04006401C0C9002466A
:106F80000078692822D015DC62281FD00DDC252866
:106F900077D050281AD058287FF476AF16E046F400
:106FA0000076EAE746F48076E7E763286AD064284B
:106FB000F2D10BE073286FD004DC6F2806D0702864
:106FC000EAD103E0752801D07828E5D178280DD0E2
:106FD00058280BD070280BD0502809D06F2816D015
:106FE000622816D00A2126F0100616E0102107E0CC
:106FF0005078102146F48876562804D1521C0C9201
:107000001078582807D01078502804D005E00821BF
:1070100008E0022106E046F020061078692803D037
:10702000642801D026F00C06700501D526F0010673
:107030001078692813D0642811D0562854D0B00590
:1070400060D5ED1D0020CDE90410CDF81880029028
:10705000CDE9077625F00705F5E8020121E0B00546
:1070600028D5ED1D25F007050023F5E802020DF1F6
:107070001009002A89E80A01CDE9077603DA01211F
:1070800002E0E4E070E000210023029119461B1A9F
:10709000914102DA114604E08EE00021404261EBAA
:1070A0000201CDE90001DDE90A1322465046FFF74F
:1070B00095FE4BE0F00503D501CD0BE0404210E01A
:1070C000700602D515F8040B04E03006F4D535F847
:1070D000040B00B2CDE90218CDE90476C10F0028F7
:1070E000ECDDCDE900012BE001CD4168096800919C
:1070F00003680B98021B0A9801195046FFF7B6FE69
:10710000044424E0F00508D5CDE90218CDE9047661
:1071100002CD0020CDE9001012E0700602D515F86E
:10712000040B06E0300603D535F8040B80B200E00E
:1071300001CDCDE902180021CDE90001CDE90476A9
:10714000DDE90A1322465046FFF708FE04460C9874
:10715000401C0C900C99087800287FF493AE0B9893
:1071600084427BD222467AE04FF00108B00707D56F
:107170000BE02246DDE90A13641C2020D446E047D8
:10718000414608F10108B942F3D3DDE90A1322466A
:1071900015F8040B641CD446E047B00706D4D6E7C4
:1071A0002246DDE90A13641C2020D047414608F13D
:1071B0000108B942F4D3CAE755F804BBB8F100009E
:1071C0005A4601D0014601E04FF0FF31584600E039
:1071D000401C03780BB1491EFAD2A0EB02097005DE
:1071E00005D548464146C14500D308468146B0070B
:1071F00007D514E02246DDE90A13641C2020D4469A
:10720000E047494609F10109B942F3D307E0DDE956
:107210000A1322460BF1010B641CD446E0479BF88D
:10722000000020B17105F2D5B8F10108EFD2B00726
:1072300006D48CE72246DDE90A13641C2020D047DF
:10724000494609F10109B942F4D380E706E0224634
:10725000641C2520DDE90A13D04778E7421E034667
:1072600000200A99D0470DB02046BDE8F08F0000FD
:10727000656E00082DE9FF4F8FB015460C46042AB5
:1072800068D2012C66DB282C64DC05EBC50000EB22
:1072900045115648084410F904905448A43808444D
:1072A00010F90480204609F025FCC11700EB51704D
:1072B000C6102946204609F0FFFB96FBF9F109FBB1
:1072C00011610B90A9EB010096FBF9F10A90A1EB7B
:1072D000080046460990701E6D460C901D2839D84E
:1072E00031462846F9F75BFB0120A919824601F8CF
:1072F000010C002716E000240CE0285D514608F040
:1073000039FE611C2855B14203DA291949784840F1
:107310002855641CB442F0DB0221504608F02AFED6
:1073200082467F1CB742E6DB0027DDF83CA057E031
:107330000A98874201DB012000E000200999CDF87E
:1073400038D000EB010B0B990F9845180C98089555
:107350001D2801D9F9F7F6F941462846F9F71FFB30
:1073600000261DE01AF806002978A8F1010248401D
:107370000D90691C2846F9F796FA002105EB0800E4
:107380000C4600F8011C08E00E980D99005D08F00D
:10739000F1FD295D48402855641C4445F4DB761C0A
:1073A0005E45DFDB00203E460AE00999884201D1B4
:1073B0000A99761A12991AF80020401C8A554E44F0
:1073C0005845F2DB0B990020394405E0089A135C1C
:1073D000129A401C535449444045F7DBDA447F1C61
:1073E0004F45A5DB13B0BDE8F08F0000E48403082F
:1073F00070B505460C460622481CF9F754FA25706C
:1074000070BD10B503004FF000000DD04A1E1142B0
:1074100000D0FEE71944491E91430A46B1F5802F7A
:1074200002D20C2A01D9084610BD0C2010BD084418
:107430004A1E401E9043114200D0FEE770470000F4
:107440002DE9F0410446012000250F4660862E46B6
:107450000BE01B49F9F7ECFA10B16D1CADB202E07C
:10746000608E401C6086761CB6B257F8260010B1BC
:1074700001780029EDD1208EA8421ED0A06A0026F6
:1074800010B119F07FFDA662E06A10B119F07AFD23
:10749000E662E80019F0ECFCA06238B1680019F06F
:1074A000E7FCE06218B1A16A11B102E0FEE7FEE775
:1074B0000025690019F0AAFE2586BDE8F0810000CC
:1074C000808F01082DE9F84F8146407A0D4600F083
:1074D0000700022819D010468046954200DD2A4652
:1074E000164603202A4F2B4B00EB460020F00304E6
:1074F000B86819681034411A7A6804EB010C944595
:1075000005D2416821F0004124E00846E4E79442B6
:1075100019D89A464FF0FF3B08197968884210D96C
:10752000002269461C48CDF800B00CF06FF800222C
:1075300069461A480CF06AF8B968DAF80000091AC6
:10754000EAE7B868DDE7204619F092FCC0B141686F
:1075500041F0004188EA6502416089EA0201016068
:10756000416801F04041491C31F080414160868111
:10757000A0F80E8005D500F110018160BDE8F88FFC
:10758000FEE7B96801F1100221448260B960F5E7B5
:1075900054010020300200206BF90008D1370108A7
:1075A00010B5084C012020700748FEF7A0FF002806
:1075B000A06803D0BDE8104021F06EBABDE81040CD
:1075C00021F05EBA1402002010A1002010B504467C
:1075D00090F83E00616B820707D4A28F3AB1A2F502
:1075E0007F43FF3B15D0521EA287A28F8AB909B1F3
:1075F00082070ED521461348FEF7E3FFFFF7D0FFC1
:10760000E16809B1204688472046BDE8104019F0DE
:10761000B9BCA26B5242E262002911D0820702D4A7
:10762000226B5242E2624210521C62F3410084F823
:107630003E00626AE069E2616062A06AA162606322
:1076400010BD000010A1002070B5304E706821F010
:1076500041F90546707880F00100707047E0002025
:10766000307094F83E007178C0F380028A4242D0B4
:1076700061F3820084F83E00E16A4A19030719D4D5
:10768000002917DC002A15DBC00709D1216939B1AF
:1076900020468847E1690144E161616A084460620B
:1076A000A16809B12046884794F83E0040F00800E0
:1076B00084F83E00E06A4019E06216D4A16A88426C
:1076C00000DDE162A169204688470146206A8842C0
:1076D00004D0216262680AB120689047D4E90A01A7
:1076E000814202DB2046FFF771FF307818B108486D
:1076F000FEF7FDFE03E021460548FEF70AFF040001
:10770000ADD121F0EDF8706070BD000014020020D2
:1077100010A1002070B5102902D830FA01F401D070
:10772000F9F710F8491E12D420FA01F404F001050B
:107730001C6804F00706C6F1070602EBE404B54036
:107740002678354325701C68641C1C60EAE770BD10
:107750002DE9F05F914683468A46072A70D808468D
:1077600024F034FB00258046032764E000245FE01A
:107770002A462146584609F083F9C8BBB9F1080FDB
:107780005ED2DFE809F0040C13182028363D60199A
:1077900000EBD07121F0010181423BD011E005EBFB
:1077A000D57020F00100A84234D00AE094FBF7F035
:1077B00007FB104004E0601990FBF7F107FB110094
:1077C00040B3002627E094FBF7F005EBD57180EA83
:1077D0006100C007F4E704FB05F090FBF7F107FB3D
:1077E000110100EBD07222F00102801A0844E7E791
:1077F0001DE004FB05F090FBF7F107FB110106E02B
:1078000004FB05F191FBF7F207FB121160194140EF
:10781000C807D5E701262A462146504609F030F927
:1078200080EA06032A462146504624F095FF641C50
:1078300044459DDB6D1C454598DBBDE8F09FFFE7A7
:10784000F8F780FF70B5044640680D4608B1FFF7B1
:10785000F9FF2268002A04D029462046BDE870407E
:10786000104770BD0AF00EBC70B515460E460446B2
:1078700006E02046641CA4B200F006F806F8010BEE
:107880006D1EADB2F5D270BD10B504460AF0A0FC75
:10789000200AA02101EB4000C0B20AF06DFC0AF002
:1078A000D9FCE0B20AF068FC0AF0D4FC0AF090FCC3
:1078B000A1200AF061FC0AF0CDFC00200AF02EFCA9
:1078C00004460AF0A9FC204610BD70B514460D46CA
:1078D000064606E02978304600F007F8761CB6B276
:1078E0006D1C641EA4B2F5D270BD70B50D46044681
:1078F0000AF06EFC200AA02101EB4000C0B20AF0A1
:107900003BFC0AF0A7FCE0B20AF036FC0AF0A2FC4D
:1079100028460AF031FC0AF09DFC0AF07DFCBDE827
:1079200070400A2001F0A4BF30B583B00446F9F7D7
:1079300008F905460020CDE90000024621466846C8
:10794000F9F7D6FB2846F9F701F9DDE9000103B0A4
:1079500030BD000030B50F4885B0816941F00801A5
:10796000816180694FF4807400F008000490012068
:10797000CDE9004002900320074D03906946284658
:10798000FAF7A4FF002221462846FBF7A4F805B029
:1079900030BD000000100240000C014070B50D46E3
:1079A000044600F04DF800B1FEE76868616820F019
:1079B0000300001D08446060204600F049F820469E
:1079C00070BD4068103120F00300884201D30120CF
:1079D0007047002070472DE9FC47054648680C4673
:1079E00020F0030001AA694621F07DFFDDE9006077
:1079F00005EBC61101EB80098046D9F8440060B15F
:107A000064B1C4E9020504F10807C46038460421E2
:107A1000FFF70DFD874202D0FEE7FEE7FEE7C9F85B
:107A200044400123286903FA06F10843286105EB65
:107A3000860003FA08F142690A434261BDE8FC8707
:107A4000406830F0030001D00020704701207047EB
:107A500010B5044600F08CF8046010BD2DE9FC4719
:107A60004FF0000780460E0001973D46009745D035
:107A70000C460DF1040AE946802907D3084626F092
:107A80002BFC411F01208840401E04444A465146B9
:107A9000204621F028FF019C0C2C2FDA08EB8400F3
:107AA000009940694FF0FF3202FA01F14546084063
:107AB0000CD1641C2869A240104016D026F004FCAA
:107AC0000446019005EB8000406980B126F0FCFB84
:107AD00005EBC411009001EB8000456C75B168683E
:107AE00020F00300B04203D2FEE73D46F6E7FEE792
:107AF000DDE900322946404624F02BFB2846BDE84C
:107B0000FC8710B50446FFF7A3FF416841F002016E
:107B10004160606840F00100606010BD10B504462F
:107B200000F026F8416821F002014160606820F011
:107B30000100606010BD70B506460D46084600F0B5
:107B400017F8040008D0207910F0010F0ED0284655
:107B5000FFF776FF08B1FEE7FEE72146304600F06A
:107B60003EF821462846FFF719FF0546284670BD16
:107B700010B5426800F1080122F00302121F8C18B0
:107B8000FFF75EFF00B1FEE7204610BD70B5064668
:107B90000C004FF000001FD0FAB12079154610F00C
:107BA000010F1BD011462046FFF70BFF78B1294685
:107BB000204600F025F805462046FFF749FF686893
:107BC000294640F0020068603046FFF704FF204677
:107BD000FFF7A4FF04F1080070BDFEE7FEE77CB5E7
:107BE000054648680C4620F003006A4601A921F0CA
:107BF0007AFEDDE900322146284624F0AAFA7CBD4F
:107C00002DE9F0410D4604460830091F461860680A
:107C100006F1080720F00300401BA0F104083846D5
:107C20000421FFF704FC874200D0FEE7606808EB00
:107C3000050120F00300091D884200D0FEE73079DD
:107C400000F0030040EA0800706020F003000C28F8
:107C500000D2FEE7207900F0030028436060304640
:107C6000FFF74FFF3046BDE8F08100002DE9F04FEF
:107C70000C4687B0054600211BF07BF860B3214617
:107C8000284600F0AFFA2146284600F0A5F800216A
:107C900028461BF00BFF0590002128461BF068FFCB
:107CA0000490002128461BF03CFE012800D0002053
:107CB0008046002128461CF06EF806460021284622
:107CC0001BF084FE42F2D17907464E450BD1688CF9
:107CD000400508D4012607E007B02046BDE8F04F74
:107CE0001C2119F093BA002628461BF0C0F8DFF8D3
:107CF00078A0834628460021BAF802201BF070FFC6
:107D0000D4F810C0A3682168CDF800C0CDF80C806D
:107D1000CDE90131C2B231465846059B09F066FEF5
:107D200020834F4504D1688C800501D4012600E0F2
:107D3000002628461BF081F8074628460021BAF89D
:107D400006201BF04DFFC2B2606900256368E16840
:107D50008DE82B0031463846049B09F047FE6083CE
:107D600007B0BDE8F08F00007801002010B54FF497
:107D700000434FF0FF3299422CD2012808D002284C
:107D80000FD0042816D0082816D007281CD019E0D8
:107D900001EB8100022101EB4000032190FBF1F097
:107DA0000EE001EB410000EBC100401C00EBD07085
:107DB000401005E0C80003E001EB810000EBC100CA
:107DC000002805DAF8F7BEFC0029FBD1182010BD09
:107DD0009842FCD3104610BD2DE9F34F81B00C46FC
:107DE000019809F0E1F8804601981BF040F88346BD
:107DF000404601F017F82061400019F065F8206056
:107E00002069400019F060F8002541F69A79A060D9
:107E100035E038F91510454E49452FD10027DFF8D8
:107E200010A11CE0394601981AF0A3FF51460090BA
:107E30001BF0D7FF90B9009809F0C8F801280DD1C0
:107E4000009809F0B9F8A84208D100981BF0BFFFCC
:107E5000B04203DB00981BF0BAFF06467F1C019876
:107E60001AF099FFB842DDD8002E03DBA06820F895
:107E7000156003E0A168002021F815006D1C206941
:107E8000A842C6D800252F46284641F69B764A468A
:107E900015E038F91010B14204DB0D44A5F5F85592
:107EA0009B3D0BE0914204D1A16831F81010394498
:107EB00003E0A36823F8101039440FB2401C216975
:107EC0008142E6D8002101981BF0F0FD2169C1F143
:107ED000010200FB02B0C01B01B2002900DA002140
:107EE00000224FF0FF37104610E038F91030B3424F
:107EF0000BDBA3F5F8539B3B1AB201FB02F3B3FB78
:107F0000F5F3A76827F810300746401C2369834221
:107F1000EBD8002F07DBA81A4843B0FBF5F0081A8E
:107F2000A16821F81700BDE8FE8F000001E0FFFF07
:107F3000010006002DE9F05F0022074611461DF002
:107F4000D7F8002138461BF00BFD044600213846C7
:107F50001BF023FE20440FFA80F8002138461BF066
:107F600082FD20440FFA80FB38461BF087FC00EBB3
:107F7000080101EB0B000FFA80F9254C38461AF086
:107F80000AFF8246002627E0B8682249006850F8B8
:107F9000265028461BF025FFE8B928461CF042FA77
:107FA00048BB002128461BF08EFC20B3012822D0BC
:107FB000022820D003281ED0002128461BF000FFF5
:107FC00048B9688BE98A401A401C00B24044A0427C
:107FD00000DB044624B2761C5645D5D341F6FF702B
:107FE000C44212D004EB0B0000B24946484500DC05
:107FF0000846BDE8F09FB5F91A00B7F91610401A07
:10800000411CA142E6DB0C46E4E74846F1E70000EC
:1080100001E0FFFF010004002DE9F05F00220546AA
:1080200011461DF04FF8002128461BF099FC04462C
:10803000002128461BF079FD20440FFA80F9002129
:1080400028461BF048FD20440FFA80F828461BF014
:1080500023FC00EB080101EB09000FFA80FB4B4CFD
:1080600028461AF098FE8246002128461BF044FC60
:1080700001284FF000062CD06AE0A8684449006847
:1080800050F8267038461BF0ACFE08BB38461CF092
:10809000C9F938BB002138461BF015FC10B3032882
:1080A00020D006281ED008281CD0002138461BF0FE
:1080B00080FE68B907F1140007460FF0ABFF484493
:1080C000A04204DB38460FF0A5FF00EB090424B200
:1080D000761C5645D1D341F6FF70C44241D004EB23
:1080E00008003DE0B5F91800B7F91410401A411C1A
:1080F000A142ECDB0C46EAE7A8682549006850F885
:10810000267038461BF06DFE08BB38461CF08AF915
:1081100088BB002138461BF0D6FB60B301282BD06A
:10812000042829D0072827D0002138461BF048FE14
:1081300068B907F1140007460FF06CFF4044A042F5
:1081400004DB38460FF066FF00EB080424B2761C0F
:108150005645D1D341F6FF70C44202D004EB09006A
:1081600004B241F6FF70C442584602D05C4500DDBF
:108170002046BDE8F09FFFE7B7F91800B5F91410E5
:10818000401A411CA142E1DB0C46DFE701E0FFFFA2
:108190000100040030B59FB00846FFF7C5FB28F08A
:1081A000C9FB044664216846F8F71BFC0AA5224671
:1081B0000AA119A8F8F75CF9094C19A9606A20F01E
:1081C00075FA29466846F8F71DFB6946A06A18F05B
:1081D0008AF81FB030BD00004845580025580000FF
:1081E000980300202DE9F84F0C46834609F010FB58
:1081F000804600F017FE6061400018F065FE606088
:108200006069400018F060FE002541F69A79E06050
:1082100035E038F91510464E49452FD10027DFF8D3
:1082200014A11CE0394658461AF0A3FD51460090AF
:108230001BF0D7FD90B9009809F0FCFA01280DD188
:10824000009809F0EDFAA84208D100981AF063FEF0
:10825000B04203DB00981AF05EFE06467F1C5846CB
:108260001AF099FDB842DDD8002E03DBE06820F853
:10827000156003E0E168002021F815006D1C6069BD
:10828000A842C6D800263546304641F69B774A4676
:1082900015E038F91010B94204DB0E44A6F5F85683
:1082A0009B3E0BE0914204D1E16831F81010294463
:1082B00003E0E36823F8101029440DB2401C616903
:1082C0008142E6D8002158461BF052FC81465846B0
:1082D0001AF0B3FD6169C1F1010209FB0200401B04
:1082E00001B2002900DA002100254FF0FF332846B3
:1082F0000FE038F91020BA420ADBA2F5F8529B3A97
:1083000012B24A43B2FBF6F2D4F80CC02CF810209B
:10831000401C62698242ECD8002B07DB701B48438B
:10832000B0FBF6F0081AE16821F81300BDE8F88FF9
:1083300001E0FFFF010006001CB50B8804892344FF
:10834000ADF800304B8844892344ADF802308B8867
:1083500004892344ADF80430C98843891944ADF831
:1083600006104369694698471CBD2DE9F04707464A
:10837000406B891E00EB1136C1F3C80501F00701FF
:108380004FF0010A0AFA01F098469146C4B231460C
:10839000761C384621F0E6FC10B10120BDE8F087DC
:1083A00052464FF40073791991F83C0010EA040C1E
:1083B00001D04FF0010CC44501D10220EEE760402E
:1083C00081F83C00B9F10100FA708146E6D0600006
:1083D00010F0FF04E7D101246D1C9D42E3D300257A
:1083E000D5E70000F8B50D46D0E90C21044682B16E
:1083F000127872B139B120F06FF80E4909688847D8
:10840000616B884211D2206B88B100200A4E009027
:1084100006E061B1EFE7326869469047A84206D0AE
:10842000206B0099415C0029F5D10020F8BD0120A6
:10843000F8BD00006C0200205802002010B5044670
:108440000020E070401EA063204621F08BFC08B1A4
:10845000042010BD04F23A200EF099FAA0F52A414A
:10846000553901D0032010BD0B2211A104F13C00AD
:1084700021F05DFA40B194F83C00E92806D0EB28E1
:1084800004D0E82802D011E0012010BD03220BA186
:1084900004F1720021F04BFA0028F6D0052208A161
:1084A00004F18E0021F043FA0028EED0022010BD26
:1084B000EB76904558464154202020004641540018
:1084C00046415433320000002DE9FF4F87B0C87891
:1084D000189CC0070D46002801D0E64800E0E64899
:1084E000059001D0E54800E0E548824601D1E34827
:1084F00000E0E34804906088A1884FF0000BA0EBF7
:10850000010001B25A465846D4F810C010E000EB02
:1085100080034FF01007E66807EB8307F75DFF075E
:108520000AD0082707EB8303F35AC91A09B2401C83
:108530008445ECD8002043E00C2707EB8303F35A73
:108540001A4412B2F3E709EB89031020E66800EB46
:10855000830E16F80E00C00730D191FBF2F70C2005
:1085600000EB83000090305A7843042707EB830721
:1085700036F907C0062707EB8307F75F00B287428B
:1085800001DD804600E0B846C44501DD674602E0F3
:10859000874200DD0746874204D04FF0010C46F8C1
:1085A0000EC0E346E668082000EB83003752E3681C
:1085B0000098185A101A02B2C81B01B209F1010042
:1085C000236981464B45BED8BBF1000F93D10021F2
:1085D00007981BF09FF9012800D000208346002057
:1085E000ADF80800ADF80C0003A902A8CDE9000120
:1085F0002089B4F9022003B22878169921F068FF87
:10860000E97811EA0B0F07D007981AF030FCBDF893
:1086100008100844ADF80800099907981AF0A9FB5A
:108620000BE0984930461BF0DCFB78B1E87809AAEA
:10863000C0F38001079809F029F8060003D0DDE9AE
:1086400009018842EDD10BB0BDE8F08F0021304622
:108650001BF0A4F9E8B30027384621690FE0E2686F
:1086600000EB800352F82320B24207D100EB8002D6
:10867000E168082000EB82000F5E02E0401C8142AE
:10868000EDD8E878C007708C02D040F4806001E03B
:1086900040F40070708406F114008046514688470B
:1086A000B84228D030461BF05BFEB08AADF800001F
:1086B000F08AADF80200308BADF80400708BADF895
:1086C0000600059A3946404690476A4629213046B9
:1086D00000E00CE014F098FD30461AF05AFC3246E7
:1086E000222114F091FD30461BF03AFE03E0708C1D
:1086F00020F4C060708468784FF0000901280FD022
:10870000022815D1049906F114008847B4F9001025
:10871000491C21F00101081A00EBD070401005E05F
:10872000049906F1140088472188081A0FFA80F985
:10873000E87810EA0B0F08D006F11400514688477C
:10874000BDF80810081AADF808003046002143F2C1
:108750000C021BF045FA0FFA80F83046002143F274
:108760000D021BF03DFA07B230461BF030FB0090C3
:1087700030461AF0D0FB0146C8F34130012810D131
:1087800028F4C040B0F5FA6F0BDCB0F57A7F01DD5C
:10879000C0F57A70009A5043642290FBF2F00FFA11
:1087A00080F8C7F3413001280ED127F4C040B0F55E
:1087B000FA6F09DCB0F57A7F01DDC0F57A704843C5
:1087C000642190FBF1F007B2B18A1498411A01EBD1
:1087D000080002B2F18A1598401A384401B2E878CC
:1087E000C007002802D0BDF9080000E04846104448
:1087F00007B201D0484601E0BDF9080008440FFA6D
:1088000080F857EA080019D030461BF0A9FDB08A5D
:108810003844B082308B38443083F18A01EB080051
:10882000F082718B01EB0800708330461BF098FDDD
:1088300001234246394630461BF042FEE87810EAF2
:108840000B0F0CD106F114005146884717990844C4
:10885000BDF80C100844BDF80810084406E0BDF847
:108860000C1017980844BDF80810081AADF8080055
:10887000DCE60000CD800108C380010845800108C6
:10888000C97F01080100060000E0401C02780AB11F
:108890008A42FAD1D0B270472DE9F04F8BB05FEA2F
:1088A000010A054643D0A5F818A0286808B118F0B9
:1088B00069FB0AEB4A00062101EB400018F0D8FAE8
:1088C000286058B3022202EB4A0101440422E96005
:1088D00002EB8A010144C5E9010101210024BAF13A
:1088E000010F1CD04FEACA00083018F0EDFA064616
:1088F00000EB8A074FEA8A0000B2ADF80000C0F131
:1089000001022146ADF802408010A146A346ADF811
:1089100024204C463F1D01910590B3E0FEE7B422B0
:108920000270E8680480E8684180A86804800BB0A1
:10893000BDE8F08F4FF00008BDF92400002808DCE6
:10894000BDF80210032202EB41010844ADF82400F7
:108950000DE0BDF80220BDF800100523521A03EB0C
:1089600042021044491EADF82400ADF80010BDF8D5
:108970000200401CADF80200684600F0F0F878B143
:10898000BDF9000005AB821043F8282001AA00F0D1
:10899000030142F8281008F10108B8F1040FCBDBFD
:1089A000B8F1040F74D108990598884212D126F8BD
:1089B000140027F81490DDE901010844DDE90312F1
:1089C0001144084469680855696800010855641C29
:1089D00024B255E00699884219D026F8140027F8E9
:1089E00014906A68019810556A6800011055641C5B
:1089F000059A20B2521E26F8102027F81090DDE9C3
:108A000002120A440499091D11446A6832E0079968
:108A100026F814008842494627F8149015D0DDE95D
:108A2000012010446A6810556A6800011055641CE2
:108A3000059A20B2521E26F8102027F81010DDE902
:108A40000312114408316A6814E0DDE901021044A0
:108A5000039A10446A6810556A6800011055641C36
:108A6000059A20B2521E26F8102027F810100499FB
:108A70006A680C3111546A6809011154401C04B22F
:108A800009F10109684600F06AF800287FF452AF46
:108A900006EB440240F2D3200AFB00F132F9022C2B
:108AA0008812824205D107EB440232F9022C82423D
:108AB0001AD0A1EB8021B1F5007F03DC494341F3DB
:108AC000CF3106E0C1F58061494341F3CF31C1F1B7
:108AD0000F0126F8140027F814006868015568682B
:108AE00009010155641C24B2A01E0DE037F81010D6
:108AF00026F8141036F8101027F8141069680A5C6C
:108B00000A55641C24B2401E0028EFDAEB680021ED
:108B10000846A3F800B01CE0EA6822F81100AB6830
:108B200036F8102023F811200BE0D5F808C036F9EC
:108B300010303CF811209A4200DB1A462CF8112024
:108B4000401C37F910208A4201D1A042EDDB491CBC
:108B500009B2A042E0DB304618F002FAE7E6B0F9CD
:108B60000210B0F90000814201DC012070470020B2
:108B7000704770B515460168046D680A4A8940EA75
:108B8000C350590A0023241DF7F7CBFB02CC21B1B7
:108B9000884204D3401A241DF8E7002070BD2168E4
:108BA000084470BDC269891E921E8A4201D8002005
:108BB0007047026B408900FB012070472DE9F05F90
:108BC0008146884601F11A000DF0E1FE88BB98F855
:108BD0000000012700F03F00401E00EB8001DFF89D
:108BE0005CA001EBC00400254FF6FF7B1AF80510CE
:108BF00001EB08000DF0CBFE06466FB1FF2C18D834
:108C000006F048FB074639F81400641C06F042FBE6
:108C100087420ED1374601E05E450AD16D1C0D2D0D
:108C2000E4D398F80000400606D52FB139F81400B7
:108C300010B10020BDE8F09F0120FBE7A8910308D8
:108C400017B581B0022A03D8BDF8080004B010BDE2
:108C5000BDF80830BDF80400D90A01EBD0211F2966
:108C600000D31F2161F3CF20C3F34511C0F3451496
:108C70002144ADF804003F2900D33F2161F34A109D
:108C800003F01F0100F01F031944ADF804001F2971
:108C900000D31F2161F30400ADF80400FF2A07D0C0
:108CA000DDE9010111F058F90090BDF80000CDE7B1
:108CB00080B2CBE717B581B0022A03D8BDF808000F
:108CC00004B010BDBDF80410BDF80800CB0AC40AFA
:108CD00063435B0963F3CF2100F01F0401F01F031E
:108CE00063435B0963F30401C1F34513C0F345100B
:108CF0004343980960F34A11ADF80410FF2A07D0E6
:108D0000DDE9010111F028F90090BDF80000D7E776
:108D100088B2D5E717B581B0022A03D8BDF808009C
:108D200004B010BDBDF80830BDF80400D90AA1EBAD
:108D3000D021002900DC002161F3CF20C3F34511CD
:108D4000C0F34514091BADF80400002900DC002124
:108D500061F34A1003F01F0100F01F03C91AADF8B8
:108D60000400002900DC002161F30400ADF80400D8
:108D7000FF2A07D0DDE9010111F0EEF80090BDF8FF
:108D80000000CDE780B2CBE700B5244B21F00042D4
:108D900087B09A42DCBF0022134629DD204B9A425D
:108DA00008D140B94FF00100F7F7D0FEFCF793FA75
:108DB00007B000BD03DBFCF789FA07B000BD02AACB
:108DC000FBF730FE10F0030104BF0DF1080C9CE826
:108DD0000F000DD0012001290ED0022914D00DF171
:108DE000080C00909CE80F00FCF7B4F807B000BD39
:108DF000FBF7DCFF07B000BD0DF1080C00909CE80C
:108E00000F00FCF7A7F805E00DF1080C9CE80F0037
:108E1000FBF7CCFF07B081F0004100BDFB21E93F2B
:108E20000000F07F0146002041F6FF7200E0401C88
:108E300031F910309342FAD170472DE9F0470568B7
:108E40005FEA010807462BD04146384608F0C8F8CB
:108E5000022846D3411C45D0E969814242D84646A2
:108E6000A86900283ED028784FF0FF3904281ED08A
:108E700046455FD1E869741CA04200D8022421460F
:108E8000384608F0ADF801282CD0411C2AD080B318
:108E9000686902284ED3E96981424BD9064649E008
:108EA0006E6916B1E869B042DAD80126D8E7012226
:108EB0003146284606F009FD040062D0601C60D0EF
:108EC00001231A4621462846FFF74FFA022808D008
:108ED000012809D0B8F1000F08D0F979022909D08A
:108EE00010E00120BDE8F0874846FBE70221F97158
:108EF00043E01EE0711C8C423FD0B968711AB96121
:108F00000321F97108F101018C4206D1F96909B117
:108F1000491C00E00221F9612FE0F869012600B93F
:108F2000FE6122464146384606F0CBFA30BBFE6170
:108F300029E0A4B93446E869641CA04202D802249E
:108F4000022E0AD32146384608F04AF838B10128E3
:108F5000C8D0411CC6D0B442EDD10020C2E74A4679
:108F60002146284622F03DFC40B9B8F100000AD065
:108F700001462246284622F034FC20B101280FD0B9
:108F800001242046AEE76C61D5E90601891E8842BE
:108F900001D8401EA861287940F001002871F0E74F
:108FA0004C46EEE72DE9F34F81B008680090019838
:108FB0000E46002400684FF48037D0F80CA06846B5
:108FC00024F02AFF411C39D0B84203D3020C2AF8FE
:108FD0001420641C85B2202D10D32F2D10D05C2DB1
:108FE0000ED0802D04D229466DA0FFF74DFC28BB82
:108FF000FF2C23D22AF81450641CE0E7042509E072
:109000000025009901E0491C009108782F28FAD02A
:109010005C28F8D00098306008E00AEB440030F893
:10902000020C202801D02E2802D1641E002CF4D17D
:1090300000212AF814100CB1002703E00620BDE837
:10904000FE8F7F1C3AF817002028FAD01FB9BAF813
:1090500000002E2803D145F0030500E0641E2CB16A
:109060000AEB440030F8020C2E28F7D101980B22AD
:109070002021403020F070FC4FF00009C8464FF02E
:10908000080B3AF817607F1C06B3202E03D02E2E53
:1090900004D1A74202D045F00305F2E7D84501D23A
:1090A000A74219D1BBF10B0F0ED0A74201D045F05A
:1090B00003050BD84FEA896027464FF008084FF0A8
:1090C0000B0B4FEA1069DCE745F00305019890F8B7
:1090D0004000E5283DD040E0802E09D345F0020550
:1090E000304606F0D7F84FF46A7106F0ABF8064642
:1090F000FF2E0FD9ABF10100804503D345F00305E6
:10910000D846BEE70198320A404408F1010880F8C9
:10911000402017E026B1314624A0FFF7B5FB18B177
:109120005F2645F003050DE0A6F14100192801D89E
:1091300049F00209A6F16100192803D8203E49F040
:109140000109B6B20198404408F1010880F8406076
:1091500097E70198052180F84010BBF1080F03D173
:109160004FEA89604FEA1069C9F38100032803D0F0
:109170006FEA0900800701D145F00205A80709D46C
:109180005FEAC97001D045F010055FEA497001D56A
:1091900045F00805019880F84B5000204FE700008B
:1091A000222A3A3C3E3F7C7F000000002B2C3B3DB6
:1091B0005B5D00002DE9F05F8946064640220021F4
:1091C00020F0CAFB852030700025C020402486F89E
:1091D0002000A8460127AA464FF0C10B06F804B0AC
:1091E000641C06F804A0641C27B139F815700FB18F
:1091F0006D1CEDB23019394623F045FEA41CE00683
:10920000F2D108F1010000F0FF0839F8150000283C
:10921000E4D186F8235008F101007070484627F029
:10922000BBF8014606F12400BDE8F05F23F02BBE39
:1092300070B5134D4FF40074002221462846F9F70B
:109240004AFC022000F022FB0E4E01220221304691
:10925000F9F741FC022000F019FB00220221304600
:10926000F9F739FC022000F011FB012221462846C3
:10927000F9F731FCBDE87040022000F007BB0000A8
:10928000001C0140000C0140144800B5816985B004
:1092900041F008018161816901F00801049181694F
:1092A00041F0800181618069694600F0800004908E
:1092B00002200090112001900120029003200390D1
:1092C0000748F9F703FB4FF4007000906946054822
:1092D000F9F7FCFA00F0B8F805B000BD0010024044
:1092E000000C0140001C014010B5012251020C4845
:1092F000F9F7F1FB022000F0C9FA0A4C0122022121
:109300002046F9F7E8FB022000F0C0FA0022022113
:109310002046F9F7E0FBBDE81040022000F0B6BAA5
:10932000001C0140000C01402DE9F0470024DFF84B
:109330005890164E074625464FF400786006040EF6
:10934000012202213046F9F7C6FB022000F09EFA06
:1093500041464846F9F7B2FB08B1641CE4B200226A
:1093600002213046F9F7B7FB022000F08FFA6D1C9E
:10937000EDB2082DE2D327B1FFF75AFF2046BDE832
:10938000F087FFF7B1FFF9E7001C0140000C014036
:109390002DE9F041DFF85880164E054600244FF4C1
:1093A0000077280601D5012200E000223946404618
:1093B000F9F791FB022000F069FA01220221304600
:1093C000F9F789FB022000F061FA00220221304601
:1093D000F9F781FB6806641C050EE4B2082CE0D3A3
:1093E00039464046BDE8F0410122F9F774BB000060
:1093F000001C0140000C014070B50122104D5402C8
:1094000021462846F9F767FB0E4E0122022130461D
:10941000F9F761FB022000F039FA002221462846C4
:10942000F9F759FB022000F031FA00220221304600
:10943000F9F751FBBDE87040022000F027BA0000A8
:10944000001C0140000C014070B50E4D4FF400743B
:10945000002221462846F9F73EFB022000F016FACA
:10946000012202210848F9F736FB022000F00EFA2B
:10947000012221462846F9F72EFBBDE87040022064
:1094800000F004BA001C0140000C01402DE9F0413D
:109490000122174F00245602254631463846F9F777
:1094A0001AFB022000F0F2F9DFF8488001220221C5
:1094B0004046F9F710FB07E0641CE4B2FA2C03D92C
:1094C000FFF7C2FF012508E0022000F0DFF9314676
:1094D0003846F9F7F3FA0028EED10022022140467F
:1094E000F9F7F9FA022000F0D1F92846BDE8F08139
:1094F000001C0140000C01402DE9FC413048314C7A
:109500008088A0F58051183901D10A2060702E4E54
:10951000002071688847002020702C4F4FF6FF789C
:1095200048E0B18E0122824011423ED060681AF0BC
:109530004EFC05460121606819F01BFC1AF047FC3F
:109540002178281A06EB41010A38898988422EDDE4
:10955000606819F0E0FC257806EB45010B8C984219
:1095600025DD37F82520424505D1888927F82500D3
:1095700007EB850043801648E27830F81200A278A5
:10958000CDE9002007EB85008A89418837F825005E
:109590000AF01EFA207806EB40018A8927F820207D
:1095A00007EB8000098C418001E027F820802078BB
:1095B000401C20706178C0B28842B2D3BDE8FC8103
:1095C00090060020B80200203000002018A40020DF
:1095D000548603081CB5044690F8500000F00100C2
:1095E00088422DD094F8500011B140F0010101E003
:1095F00020F0010184F8501004F1440168460EF097
:10960000C2FC616ABDF80020888A1044ADF80000F1
:10961000BDF80200C98A0844ADF80200606ABDF8CE
:109620000410808A0844ADF80400606ABDF8061092
:10963000C08A0844ADF80600694620461AF0C4FE08
:109640001CBD08B50846114610F081FA0090BDF81F
:10965000000008BD812803D3FE2801D801207047EF
:10966000002070472DE9F04F0646C87A89B01546AC
:109670000F46022803D8012009B0BDE8F08F184634
:109680003A69B968FCF7B6FC041EF5D0207D00F0FD
:109690001F0014F010FE08B1062008E0207D00F045
:1096A0001F0014F0F8FD08B1052000E00420226A34
:1096B000814622B12946304623F0FBF9B7E0A06984
:1096C000E8B3294602A80EF031FC388818B978882A
:1096D000B0F5807F2AD0A88829886A88401A401C63
:1096E00001B2E8883B1D801A401C02B27888CDE99F
:1096F0000003B7F9003002A8FCF7F8F8BDF808003D
:1097000029880844ADF80800BDF80A0069880844B3
:10971000ADF80A00BDF80C0029880844ADF80C002B
:10972000BDF80E0069880844ADF80E0002AA04A82E
:10973000B168FBF793FE002879D004A800E00DE0A3
:10974000D6F80880B060CDF800902A4639463046F9
:10975000A36911F081F9C6F8088068E02A4603A8D9
:10976000B168FBF77BFE002861D0BDF81000BDF8A2
:109770000C10401A401C0FFA80FA0AEB4A0017F04E
:10978000A3FB059003A901A8D6F808B00EF0CEFB04
:10979000012101A80EF095FCBDF90C00B5F90010EF
:1097A000401A0890BDF90E80B5F90200A8EB00053B
:1097B00034E001AA594606A8FBF750FE60B30598AD
:1097C00000900898534601B22AB2204615F04EF98F
:1097D00001280CD0204615F09EF8059817F0C0FB24
:1097E000204615F098F80020C6F808B044E706A80F
:1097F000B060CDF8009001AA39463046059B11F0C3
:109800002BF9BDF80600401CADF80600BDF80A00B3
:10981000401CADF80A006D1C08F10108BDF91200EA
:109820004045C6DAC6F808B0059817F099FB2046FF
:1098300015F071F81FE7704770B54FF0E024002174
:10984000054621610846FAF711FA0849E808088038
:109850004FF47A714843216941F00201216160614E
:10986000206940F00100206170BD00001000002060
:1098700070B5054600244FF47A7603E0304600F0D8
:1098800005F8641CAC42F9D370BD000070B54FF010
:10989000E02500216C69094AAB6912885043AA6926
:1098A0009A42FCD002D2A3EB020302E0A4EB020630
:1098B0003344194413468142F1D370BD1000002097
:1098C0002DE9F0410F4604460021066800F00EFB2A
:1098D000E8B900253046A16B20F044FAB8B93178D8
:1098E0000429E16B097803D0E52905D021B107E00F
:1098F00041F3C011491C03D06D1CBD420AD000E0E9
:1099000000250121204600F0FFF80028E2D00428BD
:1099100000D10720BDE8F0812DE9F0470C4605464F
:1099200024F002FAA8BB21462846FFF73BF9064679
:10993000A8634FF4007705F13C003A4600218146C8
:1099400020F00AF86889BC01B4EB402F02D9440228
:1099500000E06408BC421DD9204605F045FC5FEAE2
:109960000008F6D0224600211FF0F6FF670A002407
:1099700000E03C446889A04207D9321968783B4628
:10998000414600F06EFB0028F3D0404605F030FC65
:109990000FE011E00127002400E03C446889A04268
:1099A00007D9321968783B46494600F05AFB00282F
:1099B000F3D06889A04202D00120BDE8F0870020E2
:1099C000FBE72DE9F05F04460021066800F08EFAFF
:1099D00000284CD1307804280CD0FF254FF0FF39F7
:1099E000A846C4F84C903046A16B20F0BBF90700A4
:1099F0004ED13EE0F06826F0CFFC82462FE0306981
:109A000024300CF0C4FF504529D1306940254FF077
:109A1000000990F8238017E0E80600D1AD1C3069FA
:109A200028440CF0B4FF05F035FCF168074631F826
:109A3000190005F02FFC87420AD1A8F1010000F0BF
:109A4000FF0809F10109AD1CB8F1000FE4D102E0F3
:109A5000B8F1000F03D1F16831F8190030B10021DD
:109A6000204600F0B3F85FEA000BC8D05846BDE8C6
:109A7000F09FE16B087850B1CA7AE52802F03F0206
:109A8000A27135D0130704D50F2A31D105E0042780
:109A900038E00F2A01D0DDB11FE094F84B205206C8
:109AA00029D4420606D591F80D8000F0BF00226B44
:109AB0000546E264A84208D14A7B424505D1F068D8
:109AC000FFF77CF808B16D1E00E0FF25EDB212E053
:109AD000084624F0D7F8404514D094F84B00C0074E
:109AE00006D10B2204F14001E06B1FF020FF48B1CA
:109AF000FF25C4F84C900021204600F005F807002F
:109B00003FF471AF3846B2E72DE9F04707680446E5
:109B1000066B38782036894604280AD04FF40010A6
:109B20004FF00008B04238D9A06B28B1F10506D03B
:109B300044E04FF08050F3E70420BDE8F087401C7C
:109B4000A063616B29B17889401E10EA562F05D0B9
:109B500034E03889B0EB561F1FD92FE0204607F0BC
:109B60003FFA054601281DD9681C14D0F869A8429F
:109B70001ED8B9F1000F10D02046616BFFF75DF9D8
:109B800005000DD0012D0DD0681C04D029463846A3
:109B9000FFF7C2FE40B10120CFE7C4F83880CBE721
:109BA0000720CAE70220C8E7E07940F00400E0712E
:109BB000294638466563FEF7F5FFA063C6F3080043
:109BC00038443C302663E0630020B6E72DE9F047D7
:109BD0000426FF2589460446A84607685EE0384605
:109BE00020F0C0F806005DD1E16B087898B13A78B2
:109BF000042A12D0CA7AE52802F03F02A27108D0E6
:109C00002E2806D022F02003082B1BD000234B4522
:109C10001AD0FF2532E0042644E0B9F1000F02D04B
:109C2000832841D02AE0852828D1206BE064204693
:109C30000DF0F9F8060035D13869007900F03F00E1
:109C4000A07131E00123E2E70F2A01D015BB1CE02F
:109C5000420606D591F80D8000F0BF00226B054644
:109C6000E264A84208D14A7B424505D1F86820F059
:109C7000F5FB08B16D1E00E0FF25EDB20021204686
:109C8000FFF742FF060009D00CE0084623F0FAFF78
:109C9000404509D04FF0FF30E06405E0A16B00299A
:109CA0009DD10EB10020A0633046BDE8F0870000D2
:109CB0002DE9F04F0446066890F84B0097B010F07D
:109CC000A00F03D0062017B0BDE8F08F0025F06884
:109CD00000E06D1C30F815100029FAD13078042806
:109CE00019D004F140010C2214A800911FF02BFEA2
:109CF0009DF85B00C0076BD0402084F84B00012723
:109D00003B4614A9F268009806F04CFE2046FFF787
:109D100058FEE8BB51E00F200E35B5FBF0F5AD1C49
:109D200029462046FFF7CCFD0028CCD169422022ED
:109D3000206B02EB41110844E064E079410736D51D
:109D400020F00400E071204605F0A4FB0028BAD101
:109D5000421E2046616B05F0B4FB0028B3D1A06819
:109D600028B3214668460DF041F80028ABD1708930
:109D7000D4E904234102521843F10003C4E9042347
:109D80003069383023F05AF8D4E90423306900E010
:109D900016E0283023F052F8E079316940F00100F4
:109DA00081F82100684623F0D9F800288BD1D6E944
:109DB0000310FFF7FFF9002085E77F1C642F9FD376
:109DC000642F0FD00428F7D19DF85B0084F84B0076
:109DD0009DF85B00800707D50D200C35B5FBF0F72B
:109DE0007F1C02E007206EE7012739462046FFF777
:109DF00067FD050076D17F1E5FEA070B5AD0216B05
:109E0000CBF1000001EB4011204600F06FF8050097
:109E100068D1009823F036FF02903046A16B1FF006
:109E2000A1FF05005ED1F0680190E76B02980BF08E
:109E3000FF0A78730F20F87200203873014607F18B
:109E40001A0023F020F8AAF1010000EB800101EBD9
:109E5000C009A84601E0854204D0019830F81950A5
:109E600009F101092048294610F80800384423F078
:109E70000AF80DB94FF6FF7508F10108B8F10D0F9A
:109E80004FF6FF70E7D3854203D0019830F81900F0
:109E900008B94AF0400A87F800A00120F0700021BC
:109EA0002046FFF731FE05001CD1ABF101005FEA4F
:109EB000000BB2D13046A16B1FF054FF050011D149
:109EC00020220021E06B1FF047FD0B22E06B009980
:109ED0001FF039FD94F84B00E16B00F01800087397
:109EE0000120F0702846EEE6A89103082DE9F04124
:109EF000076806460D463878042806D04FF400104F
:109F0000A8423CD9E8063AD102E04FF08050F7E78A
:109F10003563B46834B93878032807D30020FC6A65
:109F2000F0711CB178894FEA402812E03889B0EB13
:109F3000551F24D9F86A12E0304607F051F804465C
:109F4000401C1AD0022C1AD3F869A04217D9A5EBED
:109F5000080545452146EFD23846FEF723FEC6E9FF
:109F60000D4060B100EB5520B063C5F308003844E4
:109F70003C30F0630020BDE8F0810120FBE70220C7
:109F8000F9E710B510B1012803D104E022F098FBE5
:109F900018B1012010BD20F005F8002010BD000010
:109FA00010B514464FF4007218B101281AD00120E0
:109FB00010BD41B1134B0129986D0AD0022904D07C
:109FC00003290DD103E0002010BD2260FBE72080B3
:109FD000F9E7596D0023A1FB0001F6F719FA0FE02C
:109FE000042010BD0029EED0012907D0022903D09A
:109FF0000329F5D10820EAE72280E4E74FF4C040C6
:10A000002060E0E7E80600202DE9F0411C0015463D
:10A010000E4605D030B1012812D00120BDE8F081F4
:10A020000420FBE71A4604E0022801D022F048FB96
:10A0300022462946304622F05BFB0028F4D10CE092
:10A040004FF4007769023A4630461FF0F7FF641E6E
:10A0500005F1010506F50076F4D10020DEE70020C9
:10A0600070472DE9F0411C0015460E4605D030B171
:10A07000012810D00120BDE8F0810420FBE71A463A
:10A0800002E022F01DFB22462946304622F04AFB20
:10A090000028F6D10CE04FF4007769023A463046CA
:10A0A00020F064F8641E05F1010506F50076F4D190
:10A0B0000020E0E738B505460092B1F90240B1F959
:10A0C0000630B1F90420B1F90000214609F038FD4D
:10A0D0002846BDE8384010F0F1B92DE9F74F82B0BD
:10A0E0008A46049821F072FE00248046471E34E020
:10A0F000062F00D1052700262CE00025781C40F310
:10A100004009781B0090B9F1FF3F03D0A8EB06008F
:10A11000401E00E03046834602460099049806F04F
:10A12000AFFC98B9B4EBCA0F10DA029804F007013B
:10A1300000EBE400C1F1070100785A46C84000F086
:10A1400001030099049822F007FB641C6D1C022D8A
:10A15000D7DB761C4645D0DBBF1E012FC8DAB4EB37
:10A16000CA0F01D0F6F7EEFA05B0BDE8F08F000097
:10A170002DE9F0411746072916D8394A52F8200030
:10A1800041EAC00318460021421240F237546243AC
:10A19000491C82EA40000A29F6DB40EA832445F2A2
:10A1A00012404440E01301D0F6F7CCFA002544FAFF
:10A1B00005F000F001032A460821384622F0CCFAC7
:10A1C0006D1C052DF3DDC4F38013072208213846EA
:10A1D00022F0C2FA0822C4F3C0131146384622F016
:10A1E000BBFAC4F3002308220721384622F0B4FA50
:10A1F000092544FA05F000F00103C5F10E0108221B
:10A20000384622F0A9FA6D1C0F2DF2DB384621F0FA
:10A21000DDFD0646002544FA05F000F00103711B40
:10A2200008223846491E22F097FA6D1C082DF2DBF1
:10A23000082544FA05F000F0010372190821384698
:10A240000F3A22F089FA6D1C0F2DF2DBA6F10802FD
:10A250003846BDE8F0410123082122F07DBA000014
:10A26000888503082DE9F34F83B0039821F0AEFDF4
:10A2700007248146C51F0CE00023224606210398CF
:10A2800022F06AFA002306222146039822F064FA9B
:10A29000A41CAC42F0DB6FF003052E4634462000D0
:10A2A00000D56042002D01DB294600E06942814271
:10A2B00002DD280000D56842022801D0042815D10B
:10A2C0000023EA1CE11C039822F067FA09EB040161
:10A2D0000023EA1C091F039822F05FFA09EB05022C
:10A2E0000023E11C121F039822F057FA641C042C6F
:10A2F000D5DD6D1C042DD1DD6946049806F09AFB6E
:10A30000804600274FF0FF3B26E0002621E027B9DA
:10A31000F6B1A8F1010086421AD0A8F101008742E7
:10A3200000D1AEB15D46EA465C4654EA050029D04C
:10A3300000231AF806101AF807004A1901190398A1
:10A3400022F00AFA641C012CEFDD6D1C012DEBDDFF
:10A35000761C4645DBDB7F1C4745D6DB0498072887
:10A360002DDB0021C21241F625735A43491C82EAB3
:10A3700040000C29F6DB049940EA0135A81403D00B
:10A38000F6F7E0F90123D4E70026002405F00100E8
:10A3900009EB0407804603460B3F324639460398D3
:10A3A00022F0DAF943463A463146039822F0D4F9CE
:10A3B0006D10641C032CE9DB761C062EE5DB05B072
:10A3C000BDE8F08F2DE9F04F99B08146044615465F
:10A3D0008A4614A810F00CF94FF4A021484619F051
:10A3E0007CFA9DF85D1060F382018DF85D102846BF
:10A3F0000DF02EFE00EBD07046102888002130446E
:10A40000ADF8600068883044ADF86200484619F045
:10A4100007FB8046514602A818F0EAFA14A80A90F1
:10A420004FF400300F902C4803900020049004F16A
:10A4300030008346FCF774F849E02079032842D1C4
:10A44000208BADF85000208AADF852006079FD28CD
:10A4500001D9404602E000FB08F0000A8DF85C00DC
:10A460002568B5F92030E88B18440090D5E905122D
:10A47000A06816F08EFC0746B5F92030E88B18442A
:10A480000090D5E90512E06816F083FC0546608B64
:10A4900002AA3044ADF8440018A80B901A21139476
:10A4A000484612F0B1FEA9B2B8B2CDE90001BDF83C
:10A4B000443018AA14A9504610F08AF802AA1B21A9
:10A4C000484612F0A1FE21465846FCF726F8040043
:10A4D000B3D119B0BDE8F08F944B03082DE9F74FC5
:10A4E000C87898B00C4602287ED911460AA80DF00B
:10A4F0002FFDB4F92000012829DD94F82200FD2861
:10A5000025D3208818B394F82300BDF828104008FC
:10A51000C0F380021144ADF82810BDF82A10C0F332
:10A5200040000844ADF82A0094F82310BDF82C0030
:10A530004908C1F3C001401AADF82C0094F823106B
:10A54000BDF82E00C1F34001401AADF82E00189856
:10A550000AA982680CA8FAF781FF00287ED0E07B68
:10A5600010F0070519D0E088ADF80000BDF8000034
:10A570006189884200D100250AA810F06BFF0746C8
:10A580001C2103A8F6F72DFAA0788DF82500BDF858
:10A590000000ADF814001FB105E060680090E5E729
:10A5A000208800B9F5B3E078FD2800D3FF2083466A
:10A5B0000AA80DF041FD81460AA80DF0FFFC0646F1
:10A5C0004846B14500DB3046B4F90010B1EB600FEE
:10A5D00000DB411088460CA80DF02EFD82464FF09E
:10A5E000FF301690002000E038E00090B8F1000F36
:10A5F00000DC77B1504616F067FC0090002342461D
:10A600000AA90EA811F090F900210EA810F032FD51
:10A610001690BDF83000ADF80400BDF83400ADF878
:10A62000080000E011E00098069001A8039008904F
:10A63000FF208DF8240032464946A01D13F036FA5B
:10A64000060018D0022D0CD015E00AA80390E0787F
:10A650008DF8240003A9189811F01BFC1BB0BDE86D
:10A66000F08FBDF93010B06800EB4100BDF9281043
:10A67000A0EB410004907FB3BDF9324027E027B240
:10A68000ADF80670ADF80A7052465946009816F0BB
:10A690008CFDBDF9301053463A46009810F09CFEF0
:10A6A0008DF81C00012802D102208DF81C00012D1C
:10A6B00008D1BDF92A10B068611A00EB410000888A
:10A6C000ADF8140003A9189811F0E3FB641CBDF960
:10A6D0003600A042D3DABCE0FFE7002054E0BDF82A
:10A6E0002A1001EB0900BDF82E1004B2A1EB0900FD
:10A6F00007B2BDF93200A04203DDBDF93600B84211
:10A7000040DB52465946009816F04FFDBDF9041043
:10A7100053462246009810F05FFE8DF81C00012879
:10A7200002D102208DF81C00BDF93200A04212DCDB
:10A73000ADF80640ADF80A40012D08D1BDF92A1048
:10A74000B068611A00EB41000088ADF8140003A95D
:10A75000189811F09EFBBDF93600B84212DBADF837
:10A760000670ADF80A70012D08D1BDF92A10B06845
:10A77000791A00EB41000088ADF8140003A918987D
:10A7800011F087FB09F1010081464045A7DBBDF8C8
:10A790002800ADF85000BDF82C00BDF82A10ADF827
:10A7A000540001EB0800BDF82E10ADF85200A1EBEB
:10A7B0000800ADF8560014A810F04CFE07462843D8
:10A7C0000DD0BDF92E100120A1EB0809BDF92A100A
:10A7D0008DF824B08DF81C0001EB080437E0BDF8BB
:10A7E0002A108DF824B001EB0800ADF80600BDF882
:10A7F0002E10A1EB0800ADF80A000020069003A976
:10A80000189811F046FB24E06FB152465946009863
:10A8100016F0CBFCBDF93010534622B2009810F070
:10A82000DBFD8DF81C00ADF80640ADF80A40012DA7
:10A8300008D1BDF92A10B068611A00EB4100008808
:10A84000ADF8140003A9189811F023FB641C4C45C3
:10A85000DADD009808B116F083FB1698401C05D08D
:10A86000169811F00BF90EA810F0D8FD002E3FF449
:10A87000F5AE304613F013F9F0E6F0B50646086978
:10A880008FB015460C46002871D0A17E02296ED9E2
:10A8900014F0FFFA022820D001A9206914F05CF816
:10A8A000012864D104A810F0DFF8A0788DF81C000E
:10A8B000208BADF81800E07E8DF81A00A07E8DF890
:10A8C0001B00207F4FF0FF37E0B301996888ADF897
:10A8D0000A0007EB51510844A8E0002741F6FF7039
:10A8E000CDE900700297D4E904123B460DA81EF092
:10A8F000EDFA28460DF0A0FB01462A88BDF9340088
:10A9000001EBD17102EB610100EBD072A1EB6201AE
:10A910000844401EADF83000ADF82C1028460DF06C
:10A920004DFB01466A88BDF9360001EBD17102EB9F
:10A93000610100EBD072A1EB62010844ADF82E106A
:10A94000401E00E015E0ADF8320003A810F03AFB1D
:10A9500060690390208BADF81800A07E8DF826006A
:10A9600000970BAA03A93046236910F097F80FB09F
:10A97000F0BD28460DF060FB298800EBD07001EB9C
:10A9800060000199C1F38A21A0EB5100ADF80800E5
:10A9900028460DF013FB698800EBD07001EB6001D5
:10A9A0000198A1EB9051C0F38A22ADF80A10BDF8CE
:10A9B0000830521E1A4407EB5050ADF80C200844E2
:10A9C000ADF80E0002AA04A93046236910F024F85D
:10A9D000CDE701992888C1F38A21ADF80800491E06
:10A9E000084410E002AA04A93046236910F014F8C4
:10A9F0000198BDF80810C0F38A200144ADF8081092
:10AA0000BDF80C100844ADF80C00BDF90800B5F90C
:10AA100004108842E6DDBDF80A10019801EB5051A0
:10AA2000ADF80A10BDF80E1001EB5050ADF80E0055
:10AA3000BDF90A00B5F906108842CADD97E72DE98D
:10AA4000F041804691F8220086B00C461646022856
:10AA500068D9208C002865D094F8230010F03E0FB0
:10AA600060D0C0075ED110460DF0E6FA07463046CA
:10AA70000DF0A4FAB4F90050874200DA3846B5EB7D
:10AA8000600F00DD4510314604A80DF061FA94F81E
:10AA90002300BDF91020C0F344014807B4F9200099
:10AAA00001D4284440421044ADF810000807BDF915
:10AAB0001420B4F9200001D428444042101AADF803
:10AAC000140094F82300BDF9121040088007B4F96F
:10AAD000200001D4284440420844ADF8120094F804
:10AAE0002300BDF916104008C007B4F9200001D1B9
:10AAF00028444042081AADF81600208C281A01B2EA
:10AB0000002900DA0021A27894F82200CDE902029F
:10AB1000E08BADF8040000912B4604AA3146404674
:10AB200000F003F806B0BDE8F0812DE9FF4FA3B0B7
:10AB30001F46DDE9326ADDF8C08015460C46FF2E5F
:10AB400000D3FF26084610F085FC8146384350EAC2
:10AB500008006DD023982146826803A8FAF77EFC8E
:10AB600000286CD003A80DF067FA02901C2108A8F9
:10AB700016F04CFB029816F0A7F90B904FF0FF303F
:10AB80000090002F0ADD00233A46214616A810F057
:10AB9000CBFE002116A810F06DFA0090012342466A
:10ABA00029461CA810F0C0FE00211CA810F062FA73
:10ABB00001900FA808900D90BDF8C4008DF8386082
:10ABC000ADF828008DF839A0B4F90000B5F90010EF
:10ABD0003844884200DC0846ADF85000B4F904005F
:10ABE000B5F90410C01B884200DB0846ADF85400DC
:10ABF000B4F90200B5F902103844884200DC084676
:10AC0000ADF85200B4F90600B5F90610C01B884231
:10AC100000DB0846ADF8560014A80DF00DFA014609
:10AC2000B4F90200B5F9022090420BDC01200AE0E1
:10AC300000962A462146319B239800F0D0F927B090
:10AC4000BDE8F08F00208046B4F90600B5F9062073
:10AC5000904201DB012600E00026B9F1000F44D04C
:10AC6000BDF80C00ADF83C00BDF81000ADF8400098
:10AC7000BDF90E4022E0B8F1000F03D1BDF952003A
:10AC8000A0421ADC1EB9BDF95600A0421ADB25B25B
:10AC9000ADF84250ADF83E5002990B9816F0E3FA29
:10ACA000BDF90C102A46029B0B9810F095FB8DF80D
:10ACB000300008A9239811F0ECF8641CBDF91200CB
:10ACC000A042D8DA1CA810F0A9FB019810F0D6FE1B
:10ACD0000098401C05D016A810F0A0FB009810F0BA
:10ACE000CDFE0B9816F03CF9A9E7B4F90000B5F9D0
:10ACF0000020904201DC012000E000208146B4F9F0
:10AD00000400B5F90420904201DB012000E000209E
:10AD1000824609EA0A0202EA08024FF0010B3242B7
:10AD200003D0322901DA4FF0000B01208DF83000FA
:10AD300018EA0B0F12D0BDF85000ADF83C00BDF87A
:10AD40005400ADF840006088ADF83E00688808A95E
:10AD5000401EADF84200239811F09BF816EA0B0F45
:10AD600012D0BDF85000ADF83C00BDF85400ADF86D
:10AD70004000E88808A9401CADF83E00E088ADF826
:10AD80004200239811F085F8B9F1000F12D0208805
:10AD9000ADF83C00288808A9401EADF84000BDF879
:10ADA0005200ADF83E00BDF85600ADF842002398C1
:10ADB00011F06FF8BAF1000F12D0A88808A9401C52
:10ADC000ADF83C00A088ADF84000BDF85200ADF8E9
:10ADD0003E00BDF85600ADF84200239811F059F836
:10ADE000BDF80C00BBF1000FADF83C0008D0BDF978
:10ADF0005000BDF91010421E914248DA084647E063
:10AE0000BDF81000ADF84000B4F90200B5F9021029
:10AE1000401AB84200DB07460FFA87F8002533E0F6
:10AE20006088284406B2E088401B07B2BDF90E00D6
:10AE3000B04203DDBDF91200B84224DB02990B9841
:10AE400016F011FABDF93C103246029B0B9810F037
:10AE5000C3FA8DF83000BDF90E00B04207DCADF842
:10AE60003E60ADF8426008A9239811F012F8BDF9D0
:10AE70001200B84207DBADF83E70ADF8427008A989
:10AE8000239811F006F86D1C4545C9DBA0E0401E73
:10AE9000ADF840000FA80DF0CFF8051E41DD59EACE
:10AEA00008001DD0BDF90E4016E027B2ADF8427083
:10AEB000ADF83E7029460B9816F0D5F9BDF93C1057
:10AEC0002B463A460B9810F087FA8DF8300008A907
:10AED000239810F0DEFF641CBDF95200A042E4DCB0
:10AEE00059EA06001DD0BDF9564015E027B2ADF86D
:10AEF0004270ADF83E7029460B9816F0B4F9BDF9D2
:10AF00003C102B463A460B9810F066FA8DF830004C
:10AF100008A9239810F0BDFFBDF91200641CA042DF
:10AF2000E4DABDF95400BDF90C10421C914201DD78
:10AF3000084600E0401CADF83C00BDF81000ADF83C
:10AF400040000FA80DF078F8051E41DD5AEA080010
:10AF50001DD0BDF90E4016E027B2ADF84270ADF835
:10AF60003E7029460B9816F07EF9BDF93C102B4631
:10AF70003A460B9810F030FA8DF8300008A9239863
:10AF800010F087FF641CBDF95200A042E4DC5AEACD
:10AF900006001DD0BDF9564015E026B2ADF842605E
:10AFA000ADF83E6029460B9816F05DF9BDF93C10EE
:10AFB0002B4632460B9810F00FFA8DF8300008A996
:10AFC000239810F066FFBDF91200641CA042E4DA79
:10AFD0001CA810F023FA019810F050FD7BE62DE933
:10AFE000FF478AB00C46824615461C216846169ECD
:10AFF00016F00CF907A80090BDF83400ADF8080071
:10B000008DF81860B4F90200B5F90210884201DC2D
:10B01000012700E00027B4F90600B5F906108842C0
:10B0200001DB012600E00026B4F90000B5F90010AC
:10B03000884201DC012100E000218846B4F90410B7
:10B04000B5F90420914201DB012100E00021ADF8B7
:10B050001C00A088ADF820006088ADF81E0068884C
:10B060008946401EADF822001FB16946504610F0D7
:10B0700010FFE888401CADF81E00E088ADF8220003
:10B080001EB16946504610F004FF2088ADF81C0040
:10B090002888401EADF8200017B1B5F9020001E084
:10B0A000B4F90200ADF81E0016B1B5F9060001E0D2
:10B0B000B4F90600ADF82200B8F1000F03D06946DC
:10B0C000504610F0E6FEA888401CADF81C00A08891
:10B0D000ADF82000B9F1000F03D06946504610F0DA
:10B0E000D8FE0EB0BDE8F0872DE9F041284F0646A6
:10B0F00078680FF0FDF904463068856BE96A09B19C
:10B1000028468847206850B1606828B907E0786809
:10B110000068816A01B1884720690028F7D10121C0
:10B12000216178680068C0688269D20704D08069AC
:10B13000800701D5616101E000206061606908B1AC
:10B14000012700E000273068416971B1016911F001
:10B15000300F06D0490704D5D5E9001000F01AF8E1
:10B1600003E0D5E90021FDF7E7F8206800280BD0BF
:10B170006168002908D03268127CBA43D20703D133
:10B18000A268824202D1A160BDE8F081A060FBE725
:10B190004C0100202DE9F34F0446864887B04168F2
:10B1A0000D682869820701D5420770D4C0F30110E9
:10B1B00002282AD0012801D0032868D1002000905D
:10B1C00008460FF095F98346A0882188401A401C54
:10B1D00006B220460CF0E6FE4FF4A051B1FBF6F2A9
:10B1E0000190824201DAB1FBF6F00390B4F902005B
:10B1F0000290287CC0F30110012813D020886080C1
:10B20000711E0844E0800027C4E021462846089AC1
:10B2100000F0DCF8089A09B021462846BDE8F04F56
:10B22000FDF78AB868882188401A401EE080801B9C
:10B23000401C6080E7E70399C01B884200DD084698
:10B240000FFA80F90120CBF810000FBB0198B04233
:10B250001EDB287CB146C0F30110032810D000206B
:10B260004946089A00F0E6F8287CC0F3011001284E
:10B2700008D029880298081A401EA080801B54E03C
:10B280000120EDE7029820800298304463E08DE0D1
:10B29000009820B94FF4205015F016FE0090287C3D
:10B2A000C0F3011003281AD00020864600984946B2
:10B2B000069006FB01F0401E0590701E4843DDF825
:10B2C00020C0049000208246884221DA0498BEF112
:10B2D000000F504401D0059A101A002212E00120FC
:10B2E000E3E7069BBEF1000F03EB400863460CF159
:10B2F000020C1B88A8F8003001D0084400E0401A76
:10B30000521C12B2B242ECDB0AF1010000B2DAE7E1
:10B31000287CC0F30110012819D029880298081A46
:10B32000C01B401EA080A0EB0900401C208001989B
:10B330004F44874212DBDBF81800C0070ED0DBF861
:10B34000180080070AD50120CBF8140009E0029804
:10B35000384420804844401EA080E8E70021CBF814
:10B360001410009828B1024621462846FCF7E4FF55
:10B3700005E0089AF8E7A96A09B128468847DBF88A
:10B3800010000028F7D1089906FB09F001EB4000F6
:10B390003FB2089001988742FFF64DAF0098002811
:10B3A00004D009B0BDE8F04F15F0DABD09B0BDE832
:10B3B000F08F00004C01002030B504880D88058016
:10B3C00010880880188810801C8030BDF8B50646AB
:10B3D0000C46888809881746401A401C05B220464A
:10B3E0000CF0E0FD454300200CE007EB450107EBC6
:10B3F00040020B88ADF80030B2F800C0A1F800C0E0
:10B400001380401C6D1E8542EFD871886288E088E9
:10B41000891A491EE1807188081A401E60803188AF
:10B420002288A088891A491EA1803188081A401EE6
:10B430002080F8BD2DE9F0470C46164682460027CD
:10B4400001EBD47931E00025601C00EBD07827E0D7
:10B45000E01B401E01B2601B401E00B2BAF1000F9B
:10B460000AD005FB041201FB040106EB420300FBBA
:10B47000047006EB410209E000FB047201FB0400CA
:10B4800006EB420306EB400205FB041006EB40010D
:10B4900007FB045006EB4000FFF78EFF6D1C2DB23A
:10B4A000B5EB680FD4DB7F1C3FB2B7EB690FCADB8B
:10B4B000BDE8F0872DE9F0479CB0054611F0F2FB9E
:10B4C0000446284611F0B6FB8246606A14F050FB31
:10B4D000054694F85000C00778D001A810F0F2FAA1
:10B4E0004FF4E02901AA4946204618F0E2FD04F194
:10B4F00044010FA80CF047FD606ABDF83C10828A39
:10B500001144ADF83C10BDF83E10C08A0FAA0844A3
:10B51000ADF83E00606ABDF84010808A0844ADF87E
:10B520004000606ABDF84210C08A0844ADF842008D
:10B5300001A9504610F0B2FA4946204618F01EFA0A
:10B5400006464946204618F0E2FA87194946204641
:10B5500018F03FFB4FF000081E490644CDF8648008
:10B56000CDF86880E06C0968284488470246E06CA2
:10B57000411919A815F070FDBDF83C0040F2574282
:10B580003844ADF83C00BDF83E0041463044ADF8CB
:10B590003E00606A18F024FB054611A80FF012FD6A
:10B5A00011AA4946204618F0E3FC9DF8070002283E
:10B5B00004D8BDF85000A9B2884207D019AB0FAA31
:10B5C00011A95046CDF800800FF068FA1CB0BDE814
:10B5D000F0870000540200202DE9F14F94B0149838
:10B5E00011F022FB0646149811F05CFB0446122E63
:10B5F0007ED0152E01D0182E7BD1002118F0B6FB7D
:10B60000E18E41430F120021204618F09AFB218E53
:10B6100001EB000A204618F0DAFB0490204617F0F0
:10B620007AFC03902046002141F2320218F0D8FA49
:10B6300005462046002141F6120218F0D1FA2844AE
:10B640000FFA80F92046002141F6130218F0C8FADB
:10B65000284400B202902046002141F6100218F062
:10B66000BFFA28440FFA80F82046002141F6110263
:10B6700018F0B6FA2844618E0FFA80FB01EB09003E
:10B68000ADF84400A18E01EB0800ADF8460094F837
:10B69000390000F0030001287DD011A9B8B2CDE92E
:10B6A0000001DDE903210FFA8AF307A8FAF71EF972
:10B6B000BDF81C10A08A0844ADF81C00BDF81E108F
:10B6C000E08A0844ADF81E00BDF82010A08A0844A6
:10B6D000ADF82000BDF82210E08A0844ADF8220041
:10B6E00004F114010D4612A801910CF043FC01E095
:10B6F0006BE067E007A928460CF03CFCCE481499A3
:10B7000017F021FB01285DD112A901980CF032FC41
:10B71000152E57D1E08D002854D0A08D002851D08F
:10B72000002F4FD0149811F085FA064603A801990E
:10B730000CF020FC204613F0D3FA054694F83900AB
:10B7400000F0030001287DD0BDF82000BDF81C10DA
:10B75000401ABDF80C100844ADF81000BDF82200E6
:10B76000BDF81E10401ABDF80E100844BDF80C10AC
:10B77000ADF8120001EB0900ADF80C00BDF80E1099
:10B7800001EB0800ADF80E00BDF810100298081A81
:10B79000ADF8100000E088E0BDF81210A1EB0B003E
:10B7A000ADF8120094F8380000F00301012976D0BA
:10B7B000800774D0022973D0002319463046019ABD
:10B7C0000FF02AF915B0BDE8F08F149811F068FA5F
:10B7D000054600780228F5D094F838004FF00106AD
:10B7E000C143890759D000F00301022955D0C0F3A5
:10B7F0008400042801D001284FD120460021462290
:10B8000018F0EEF9C0B2FF2847D10021204618F009
:10B8100098FA218EC14240D10021204618F0A6FAA4
:10B82000E18E41430F12149811F03AFA8046B7F5B1
:10B83000807F36D0204617F06EFB8146204618F0F8
:10B84000C6FA00E036E0014604F13202B8B2CDE9B2
:10B85000000200234A4602A8FAF748F8BDF808009B
:10B86000A18A00220844ADF80800BDF80A00E18A68
:10B870000844ADF80A00BDF80C00A18A0844ADF8F0
:10B880000C00BDF80E00E18A0844ADF80E0002A9D4
:10B890004046F9F70BFE002894D12E7092E734E071
:10B8A000B9E0002204F11401F3E707A9204617F0DC
:10B8B000FAFA15E7B4F92C0029B2401ABDF80C10B9
:10B8C000401C00EBD070A1EB6001ADF80C10BDF88E
:10B8D0001010BDF80E20A1EB6000ADF81000B4F917
:10B8E0002E002914401A401C00EBD070A2EB60001F
:10B8F000ADF80E00B4F92E00401ABDF81210401C2D
:10B9000000EBD070A1EB600030E709A80FF0ACF8B5
:10B9100009AA0021204618F0E3FAADF82670ADF828
:10B9200024A0608EADF82800A08EADF82A0094F80F
:10B930003800BDF81C10C0098DF8380001EB090073
:10B94000BDF81E10ADF8140001EB0800ADF81600AC
:10B95000BDF82010029805AA081ABDF82210ADF80B
:10B960001800A1EB0B00ADF81A00B7681046394675
:10B97000F9F774FD002891D005A8B060BDF90E104C
:10B98000608D084400B2ADF80200884203DDE18D0D
:10B99000401AADF80200E18D80B20844401E30E04C
:10B9A000BDF90C10208D084400B2ADF800008842AB
:10B9B00003DDA18D401AADF80000A18D80B20844CE
:10B9C000401E0DE06A4609A93046636A0FF024F86C
:10B9D000BDF800002844ADF80000BDF8040028447C
:10B9E000ADF80400BDF90000BDF910108842E9DB94
:10B9F000BDF8021028140144ADF80210BDF806107D
:10BA00000844ADF80600BDF90200BDF912108842E5
:10BA1000C6DBB760D6E609A80FF0D4FA09AA002160
:10BA2000204618F0A5FA00200090636A09A9304664
:10BA3000019A0FF033F8C5E6B48303082DE9FF4FF0
:10BA400095B0987B8A7E00F00F04DDF888800D4663
:10BA5000032C00D10424012C19D0022C1FD0042C5B
:10BA600025D0082C7ED1DFF88C924FF0FF0A6101BF
:10BA7000FD2A34D2DFF880C29CF80000904203D146
:10BA8000DCF80400A04224D000209C4F1FE0DFF827
:10BA900064924FF0800AA9F116090221E8E7DFF865
:10BAA00054924FF0C00AA9F114090421E0E7DFF82D
:10BAB00044924FF0F00AA9F110091021D8E719F8C3
:10BAC0000060FF2E1BD05643360A3E54401C88426D
:10BAD000F5D3DFF828928CF80020CCF804401798B2
:10BAE000DE880996B0F900101598B3F808B06643DF
:10BAF0008068B0F90020914203DB002202E0164684
:10BB0000E3E7521A0A92099A8B18B0F9042093427B
:10BB100001DC099901E0511A491C0B911799B0F900
:10BB20000220B1F90210914201DB002200E0521A1A
:10BB30000E92B0F9060001EB0B02824201DC58467E
:10BB400001E0401A401C0F900E980A99704301FBC7
:10BB5000040008EBD00700F007061C21684615F02A
:10BB600055FB00E0C3E0A889ADF80800A87E8DF879
:10BB70001800A87FC0F3C2008DF81900FAF720FF63
:10BB80000EF0BAFC099901FB0BF1814200DC08467A
:10BB9000109015F099F983460390179800250188B5
:10BBA0000A9801441798ADF81C1002880B98401EA3
:10BBB0000244ADF82020179843880E981844531A71
:10BBC0005B1CADF81E001BB21193ADF83010ADF840
:10BBD00022000F99ADF83200ADF834200844ADF8DA
:10BBE00036000CA80FF036FC139007A800900590C3
:10BBF000C4F108001290DDE9091001440B98081AFD
:10BC0000604314900E985BE02B462AFA06F04FF042
:10BC1000000C0A991AE03A78DDF848800240A8EB57
:10BC2000060832FA08F204D019F802800BF80580F1
:10BC300001E00BF805C0129A964202D22644E04079
:10BC400002E0002650467F1C491C6D1C0B9A914255
:10BC5000E1DB139880B10BEB0300BDF92220BDF9A5
:10BC60001C108046119B0FF0B7FB8DF8100018B91F
:10BC70004046119915F0CAFADDE90A10401A411937
:10BC80001098814205D2BDF82200401CADF8220078
:10BC90000EE002208DF810006946159810F0F9F8B2
:10BCA000BDF82200401CADF81E00ADF822000025B2
:10BCB0001498304407EBD00700F007060998401CA1
:10BCC0000F99099088429FDBBDF91E10BDF9220033
:10BCD000814209D0401EADF8220002208DF81000EC
:10BCE0006946159810F0D5F8584615F039F919B08D
:10BCF000BDE8F08F4E46030860010020949F0020AD
:10BD00002DE9F04F8346B1F902000C46401E411068
:10BD100000F001004618B2F90000B3F9005089B0F4
:10BD2000A84200DB2846ADF80000B2F90000B3F9E4
:10BD30000030984200DC1846401EADF804005088E0
:10BD4000801BADF8020050880844ADF80600694633
:10BD50000846DBF80820F9F781FB002822D0E088AC
:10BD600018B1A08808B1012000E00020804601261B
:10BD700068460FF06FFB10B9B8F1000F00D0002635
:10BD80001C2102A815F042FACDF808D02088ADF8A1
:10BD90001000207A6D468DF8200036B102A9584671
:10BDA00010F077F809B0BDE8F08FBDF80410BDF9C8
:10BDB0000000BDF906A0091A491C0EB2BDF8021018
:10BDC000ADF806104FF00009B8F1000F08D0B4F933
:10BDD0000610B4F90420114490FBF1F201FB1209A2
:10BDE000304615F071F8079505900746BDF90250E9
:10BDF0003EE03146384615F036FABDF900103346BC
:10BE00002AB238460FF0E8FA8DF81800B8F1000FA2
:10BE10001FD0F0B1002148460B4615E0B4F90420CC
:10BE2000824205DB121A1144104409B200B207E045
:10BE3000B4F906C06244824201DC002000E07B5479
:10BE4000491C401C09B200B2B142E7DB02208DF868
:10BE5000180002A9584610F01CF8BDF80200401C5A
:10BE6000ADF80200BDF80600401CADF806006D1CE0
:10BE70005545BEDD384615F073F893E72DE9FF4FC1
:10BE8000B2F90250B3F90240BBB0A54208DA1288F9
:10BE900065F31F4062F30F0064F31F411A8807E047
:10BEA0001B8864F31F40128865F31F4163F30F0082
:10BEB00062F30F010FFA81F906B20714A9EB060429
:10BEC0004FEA214AAAEB07053791002C01DD2046F5
:10BED00000E06042002D01DD294600E06942884211
:10BEE00001DD012000E0002000903C98B0F9021034
:10BEF000009858B1002D01DD284600E0684242015B
:10BF0000002C01DD20460CE060420AE0002C01DD3F
:10BF1000204600E060424201002D01DD284600E09D
:10BF2000684292FBF0F0AB4A105C48433F30C011CE
:10BF30004FEA600800F0010202EB080B49464E454B
:10BF400000DA3146A1EB0001ADF8601001DD3146A9
:10BF500000E049460144ADF864105146574500DA07
:10BF60003946A1EB0001ADF8621001DD394600E071
:10BF700051460844ADF866003B9818A98268084607
:10BF8000F9F76CFA00287DD00098002100287AD0BB
:10BF9000002C16DDAAEB080000B2CDE90001A7EBEA
:10BFA000080002B24B46314602A80FF0F1FA0AEB44
:10BFB0000B00012100B2CDE900014B4607EB0B005D
:10BFC00015E00AEB0B0000B2CDE9000107EB0B0016
:10BFD00002B24B46314602A80FF0DAFAAAEB08008B
:10BFE000012100B2CDE900014B46A7EB080002B2E7
:10BFF00031460DA80FF0CCFA002102A80FF03AF854
:10C00000399000210DA80FF035F838904FF0FF302F
:10C01000804600903C98407AC00623D4381903210A
:10C0200000B2CDE90001701B03B23A46314621A8A7
:10C030000FF0AEFA379902200A14111909B2CDE9AE
:10C040000010379801B2481B03B22CA80FF0A0FAD9
:10C05000002121A80FF00EF8009000212CA80FF06D
:10C0600009F88046BDF86400BDF86010401A401C15
:10C0700006B2FAF7A5FC0EF03FFA044618A80BF03A
:10C08000B5FF01E0A2E029E0A04203D218A80BF01E
:10C09000ADFF0446A146204614F016FF8246BDF9C6
:10C0A00066B0BDF86200ADF866000024494650460F
:10C0B00015F0D9F81C211AA815F0A8F83C9818A971
:10C0C0001A910088ADF870003C98007ACDF874A001
:10C0D0008DF880001F91BDF9625044E009EB0B0020
:10C0E000CDE900A103B206EB0B0001B23A4602A86B
:10C0F0000FF04EFA0121A9EB0800CDE900A103B22F
:10C10000A6EB080001B23A4673E70AEB0400BDF95A
:10C110006010074633462AB20FF05EF98DF87800BA
:10C1200018B93846314615F071F83444A11949451B
:10C1300005D2BDF86600401CADF8660012E0022092
:10C140008DF878001AA93B980FF0A3FEBDF86600A1
:10C150000024401CADF86200ADF866004946504628
:10C1600015F081F86D1C5D45CFDDBDF96210BDF99C
:10C170006600814209D0401EADF8660002208DF8AD
:10C1800078001AA93B980FF084FE504614F0E8FEA0
:10C1900002A80FF043F90DA80FF040F90098401CD9
:10C1A00002D021A80FF03AF9B8F1FF3F02D02CA835
:10C1B0000FF034F939980FF061FC38980FF05EFCFD
:10C1C00000980FF05BFC40460FF058FC3FB0BDE814
:10C1D000F08F00004E4703082DE9F04F8346B1F978
:10C1E00002000C46401E411000F00100158889B085
:10C1F0000844281AADF8000010880844ADF804007F
:10C20000B2F90200B3F90210884200DB0846ADF82B
:10C210000200B2F90200B3F90210884200DC0846BD
:10C22000401EADF8060069460846DBF80820F9F71D
:10C2300015F900281FD0E08818B1A08808B101279F
:10C2400000E00027012568460FF004F900B907B1A6
:10C2500000251C2102A814F0D9FFCDF808D02088B1
:10C26000ADF81000207A6E468DF8200035B102A995
:10C2700058460FF00EFE09B0BDE8F08FBDF804007F
:10C28000BDF80010BDF90690401A401C0FFA80F866
:10C29000BDF80200ADF80600404614F015FE8246D7
:10C2A00000250796059057B1B4F90600B4F90410BB
:10C2B0000844BDF9021091FBF0F200FB1215BDF924
:10C2C00002602EE04146504614F0CDFFBDF900104B
:10C2D000434632B250460FF07FF88DF818008FB108
:10C2E00070B1B4F90400A84202DA00208DF81800F9
:10C2F000B4F90600B4F904100844A84200DC002593
:10C300006D1C2DB202A958460FF0C3FDBDF8020006
:10C31000401CADF80200BDF80600401CADF8060058
:10C32000761C4E45CEDD504614F01AFEA3E7000001
:10C330002DE9F04FCDB0054610F0B4FC0446008E58
:10C3400000287CD0284610F075FC4590608C40F0A9
:10C3500004016184204643A916F0A5FD0026B4F827
:10C3600020802684608C374640F004013546618485
:10C370002DA80FF0A7FB3BA80EF024FE4FF4A02938
:10C380002DAA4946204617F094FE3BAA494620466E
:10C3900017F0EEFD608C20F004016184A4F8208089
:10C3A0000021204617F00EFC4C900021204617F08B
:10C3B0006FFB4B900021204617F0A2FB4A90002112
:10C3C000204617F0C7FB499011A8459916F010FBBD
:10C3D000B248CDE9120503A8159025A8CDF87890AC
:10C3E000169050E17F1CBFB2606AADA150F82700E3
:10C3F000F4F71EFB0028F5D0E06A30F81600C0F311
:10C40000C001002976D10025C0F3C01101B101257A
:10C41000C0F3401010B145F0800518E0A08EB04286
:10C4200015D15FEA886001D545F020055FEA887084
:10C4300001D545F002055FEA487003D500E02AE126
:10C4400045F004055FEA087001D545F00805A06ACB
:10C4500000EBC60123A80BF084FDBDF88C10BDF8DD
:10C460000C010144ADF88C10BDF88E20BDF80E1102
:10C470000A44ADF88E20BDF890201044ADF890002D
:10C48000BDF892000844ADF8920045B32584608C55
:10C4900040F00401618403A80FF014FB25A80EF0FE
:10C4A00091FD4FF4A02903AA4946204617F001FE4A
:10C4B00025AA4946204617F05BFDA4F82080608C31
:10C4C00020F004016184E06A30F81600C0F3003007
:10C4D00000289DF8B1000ED040F001000DE0382298
:10C4E0002DA903A814F0B8FD20223BA925A814F01B
:10C4F000B3FDE8E7C3E020F001008DF8B10023A808
:10C50000149011AA1A211F96204610F07DFE9DF866
:10C510002F004108C9063CD520F03E001E308DF8A2
:10C520002F00B4F914304A99BDF98C2019448A427D
:10C5300003D120F008008DF82F00B4F91820499895
:10C54000BDF99010101A814205D19DF82F0020F0FE
:10C5500010008DF82F00B4F916204C98BDF98E10FC
:10C560001044814205D19DF82F0020F004008DF881
:10C570002F00B4F91A204B98BDF99210101A81427D
:10C5800007D19DF82F008108490061F345008DF81F
:10C590002F00BDF89210BDF98E00091A491C0FFA40
:10C5A00081F9A90608D5E16A31F81610890503D585
:10C5B000A0EB0900ADF88E0023AA03A945980FF05F
:10C5C0006DFA25984890606ABDF9A8B0BDF9A6A09B
:10C5D00050F82700469043A80BF046FD9DF8B12087
:10C5E000CDF800A0CDE901025B4647A8489A4699DC
:10C5F0001CF06CFC23A80BF037FDBDF91C31BDF815
:10C600008C10C01A00EBD07001EB6001ADF88C10FB
:10C61000BDF89200BDF88EC0BDF91E21A0EB0C0044
:10C62000401C00B2801A00EBD0700CEB600000B22E
:10C630001944ADF8901081180AB2ADF88E00ADF82B
:10C640009220A9060ED5E16A31F81610890509D5A0
:10C6500009EBD971A0EB6100ADF88E00A2EB61008F
:10C66000ADF892000020009023AA25A9469B45988A
:10C670000EF014FA11AA1B21204610F0C5FD761CFD
:10C680007F1CB6B2BFB2208EB0423FF6ADAE608C1A
:10C6900020F0040060844DB0BDE8F08F7C83030877
:10C6A0000A0000002DE9F04790B0054610F0FAFAB4
:10C6B0000446284610F0BEFA06460BA9204616F09E
:10C6C0008EFB94F848000025C10600D501258006A0
:10C6D00001D545F002050021204617F063FBA0F5C7
:10C6E0001C51D13904D1608C400501D445F00405BA
:10C6F00003A80EF067FCB4F84400ADF82200B4F8CB
:10C700004600ADF824008DF8295003AA00212046E8
:10C7100017F02EFC9DF82800012708B98DF8287025
:10C72000E06B0490206C059004994FF6FF708142F5
:10C7300019D00599814216D04FF48028204644F242
:10C740005742414617F04CFA0090BDF80000ADF892
:10C750001A0020462022414617F042FA0090BDF808
:10C760000000ADF81C0094F8480041F6FF7A00F094
:10C770000700022801D003281AD19DF828000228BA
:10C7800001D0032814D1BDF91E10CDE9001A02957D
:10C79000BDF92030039A0DA8616A1CF097FB0BA825
:10C7A0000BF068FCBDF93410884201DA8DF828706E
:10C7B00094F8480004F1300700F00700032805D082
:10C7C0000BA80BF00DFCB0F5806F00DA00270BA969
:10C7D0000EA8B268F8F742FE00287DD094F8480011
:10C7E00040070BD1204616F007FD404202B200215F
:10C7F0000BA80BF052FC608BADF8320094F84800A7
:10C800000DF1380900F00700022813D0032811D0D9
:10C8100000970BAA03A93046636A0EF03FF9B0688F
:10C82000C6F80890804694F8480000F007000328F6
:10C830000FD058E0D6F80880C6F8089000970BAAE9
:10C8400003A93046636A0EF029F94046C6F808800D
:10C85000E6E7BDF91E10CDE9001A0295BDF92030BA
:10C86000039A0DA8616A1CF031FB0BA80BF002FCC7
:10C87000BDF93410884219DA20221146039810F0CD
:10C8800028FEB4F84410BDF8342000EB40001144F9
:10C890000844ADF82200B4F84600ADF82400009733
:10C8A0000BAA03A93046636A0EF0F8F80BA80BF048
:10C8B00097FB0146BDF93600814214DAB4F8441002
:10C8C000ADF822100399B4F84620098910440844B1
:10C8D000ADF82400009700E007E00BAA03A930465A
:10C8E000636A0EF0DBF8C6F8088010B0BDE8F08788
:10C8F0002DE9F04F82460446A1B08B4615461046FE
:10C900000BF0A6FB00EBD070471028883844ADF838
:10C91000700068883844ADF8720019A80EF08AFBE0
:10C920004FF4A02519AA2946504617F06FFB13A80B
:10C930000EF09AF813AA2946504617F0D1FA0021B2
:10C94000504617F06DF80646594601A816F050F803
:10C950005E4802901CA80A9004F130001F90F9F77D
:10C96000DFFDACE0256812942079012801D098B34E
:10C97000A1E0B5F92030E88B18440090D5E9051204
:10C98000E06814F006FAA98B628A00B211443944B7
:10C990000DB280461CF0CEF9684347F6FF7990FB54
:10C9A000F9F0BDF872100844ADF8760040461CF06E
:10C9B000BDF9684390FBF9F0BDF870100844ADF87C
:10C9C0007400A08AADF86400208AADF86600607932
:10C9D000FD2802D9304602E015E07043000A8DF8C8
:10C9E0006C0001200F9019A807901DA80B9001AAB8
:10C9F0001A21504610F008FC1DAB1CAA19A9584674
:10CA00000EF00BFB52E02069F0B3B5F92030E88B53
:10CA100018440090D5E90512E06814F0BAF905460B
:10CA200020A9206911F098FFBDF87000A18A401A72
:10CA3000ADF87400BDF87210E28A891A209AADF838
:10CA40007610C2F38A235B1E1844ADF878004FF0CD
:10CA5000FF3000EB52500844ADF87A006079FD28B1
:10CA600001D9304601E07043000A8DF85700A08AD2
:10CA7000ADF85000E08AADF8520005EB85004000AB
:10CA8000B0F5616F03DD00E015E0A0F56160ADF881
:10CA90004C0013A8089001AA1A21504610F0B4FBCC
:10CAA0001DAA13A9584623690DF0B6FF01AA1B2140
:10CAB000504610F0A9FB21461F98F9F72EFD0400FF
:10CAC0007FF450AF21B0BDE8F08F0000944B030815
:10CAD00070B5054691F82A0088B00C46022858D94E
:10CAE000E18C002955D0114604A80BF031FA218DB4
:10CAF000BDF81000491E401AADF81000BDF8120034
:10CB0000401AADF81200BDF814000844ADF8140046
:10CB1000BDF816000844ADF8160004A906A80BF0ED
:10CB200017FABDF81810E08C091AADF81810BDF806
:10CB30001C100844ADF81C00BDF81A00E18C401A26
:10CB4000ADF81A00BDF81E00E18C0844ADF81E00D7
:10CB500004A80BF071FA064604A80BF02FFAB4F9FA
:10CB60000010864200DA3046B1EB600F00DD411064
:10CB7000E08CA278084403B294F82A00CDE90202BE
:10CB8000A08CADF80400009104AA06A92846FDF780
:10CB9000CCFF08B070BD2DE9F0418CB0054610F017
:10CBA00081F80446284610F045F88046606A12F085
:10CBB000DFFF007800283BD1A06A002838D0007839
:10CBC000002835D001A80EF0FDF901AA4FF400218C
:10CBD000204617F0CDF994F85C00000705D59DF8C4
:10CBE000210040F002008DF821000021204616F0BF
:10CBF0008EFF07460021204616F0EBFF0646002177
:10CC0000204616F0BBFE054604F1140109A80BF0FE
:10CC1000BAF9701902B2781901B209A80BF03DFAFD
:10CC20000020009009AA01A94046A36A0DF036FF32
:10CC30000CB0BDE8F0817CB50446806961896D4621
:10CC40008668A08961B1002865D0814203D122891C
:10CC5000E3889A427CD302297BD003297AD0AFE0C3
:10CC600010BBE088218988421ED2B4F906001CF06E
:10CC700061F8B4F90410B4F90E20891A4843216808
:10CC8000498801EBE030ADF80200E0885A3000B28C
:10CC90001CF050F8B4F9041048432168098801EBEE
:10CCA000E030ADF8040040E020680088ADF80000F6
:10CCB0002068A18840880844ADF80600B4F9060051
:10CCC0001CF038F8B4F90410B4F90E20891A48435E
:10CCD0002168498801EBE030ADF80200E0885A3065
:10CCE00000B21CF027F8B4F904103246484321681A
:10CCF000098801EBE030ADF8040069460846F8F712
:10CD0000ADFB30B1A0696A4685602169A0690EF06B
:10CD1000C5FEA08970BB2068A18800880844ADF8D2
:10CD2000040020684088ADF80200B4F908001CF047
:10CD300001F8B4F9041048432168498801EBE03058
:10CD4000ADF8060020895A3000B21BF0F3FF02E074
:10CD500015E012E00FE0B4F90410B4F90E20891ABE
:10CD6000484321683246098801EBE030ADF8000005
:10CD700069461AE024E0022801D0012820D1206869
:10CD800032460088ADF8000020684088ADF8020007
:10CD90002068A18800880844ADF804002068A188B4
:10CDA00040880844ADF8060029460846F8F756FBC7
:10CDB00030B1A0696A4685602169A0690EF06EFEF7
:10CDC000A06986607CBD7CB50446806961896D463A
:10CDD0008668A08901290CD0012867D0814203D13F
:10CDE0002289E3889A427ED300297DD003297CD012
:10CDF000B5E0012822D1E088218988421ED2B4F909
:10CE000006001BF097FFB4F90410484321684988D5
:10CE100001EBE030ADF80600E0885A3000B21BF0BC
:10CE200089FFB4F90410B4F90E20891A4843216827
:10CE3000098801EBE030ADF8040042E02068A188E9
:10CE40000088401AADF8000020684088ADF8020064
:10CE5000B4F906001BF06EFFB4F9041048432168D2
:10CE6000498801EBE030ADF80600E0885A3000B2A6
:10CE70001BF060FFB4F90410B4F90E20891A48437E
:10CE800021683246098801EBE030ADF804006946BC
:10CE90000846F8F7E3FA30B1A0696A46856021696F
:10CEA000A0690EF0FBFDA089012858D120680088F8
:10CEB000401EADF804002068A18840880844ADF801
:10CEC0000600B4F908001BF035FFB4F90410B4F9FA
:10CED0000E20891A48432168498801EBE030ADF8FB
:10CEE0000200208902E018E010E014E05A3000B29D
:10CEF0001BF020FFB4F9041032464843216809882A
:10CF000001EBE030ADF8000069461DE0022804D0D6
:10CF1000032802D023E0022821D12068A1883246CC
:10CF20000088401AADF8000020684088ADF8020083
:10CF300020680088401EADF804002068A188408861
:10CF40000844ADF8060029460846F8F787FA30B1DC
:10CF5000A0696A4685602169A0690EF09FFDA069FD
:10CF600086607CBD7CB50446806961896D468668B3
:10CF7000A08902290CD002287ED0814203D12289C7
:10CF8000E3889A4279D3002978D0012977D0D4E078
:10CF900002283FD1E088218988423BD25A3000B232
:10CFA0001BF0C8FEB4F9041048432168098801EB5E
:10CFB000E030ADF80000B4F906001BF0BBFEB4F998
:10CFC0000410B4F90E20891A48432168498801EBFE
:10CFD000E030ADF80600B4F908001BF0ABFEB4F980
:10CFE000041048432168498801EBE030ADF80200A5
:10CFF00020895A3000B21BF09DFEB4F90410B4F938
:10D000000E20891A48432168098801EBE030ADF809
:10D01000040066E020680088401EADF80400206827
:10D02000A1884088401AADF80200E0885A3000B26A
:10D030001BF080FEB4F9041048432168098801EB15
:10D04000E030ADF80000B4F906001BF073FEB4F94F
:10D050000410B4F90E20891A4843216832464988E1
:10D0600001EBE030ADF8060069460846F8F7F6F93E
:10D0700058B1A069856003E00AE03BE034E036E0A7
:10D080006A462169A0690EF009FDA089022854D1E1
:10D090002068A1880088401AADF800002068408808
:10D0A000401EADF8060020895A3000B21BF042FE47
:10D0B000B4F90410B4F90E20891A4843216809888C
:10D0C00001EBE030ADF80400B4F908001BF032FECB
:10D0D000B4F9041048432168498801EBE030ADF809
:10D0E0000200324669461DE0032803D025E00328EC
:10D0F00000D010BB2068A18832460088401AADF8E5
:10D1000000002068A1884088401AADF8020020681D
:10D1100029460088401EADF8040020684088401E63
:10D12000ADF806000846F8F799F930B1A0696A46EB
:10D1300085602169A0690EF0B1FCA06986607CBDA4
:10D140007CB50446806961896D468668A08903299B
:10D150000ED0032867D0814203D12289E3889A4206
:10D160007ED302297DD001297CD002297BD0B1E079
:10D1700003281FD1E088218988421BD25A3000B28F
:10D180001BF0D8FDB4F90410B4F90E20891A4843F5
:10D190002168098801EBE030ADF80000B4F9060021
:10D1A0001BF0C8FDB4F9041048432168498801EB1D
:10D1B000E03040E02068A18800880844ADF8040011
:10D1C00020684088401EADF80600E0885A3000B262
:10D1D0001BF0B0FDB4F90410B4F90E20891A4843CD
:10D1E0002168098801EBE030ADF80000B4F90600D1
:10D1F0001BF0A0FDB4F90410324648432168498869
:10D2000001EBE030ADF8020069460846F8F726F970
:10D2100030B1A0696A4685602169A0690EF03EFCC4
:10D22000A089032856D120680088ADF80000206846
:10D23000A1884088401AADF8020020895A3000B217
:10D240001BF078FDB4F9041048432168098801EB0C
:10D25000E030ADF80400B4F908001BF06BFD03E00A
:10D2600016E010E013E00FE0B4F90410B4F90E205A
:10D27000891A484321683246498801EBE030ADF80D
:10D28000060069461BE018B1012801D022E008BB66
:10D29000206832460088ADF800002068A1884088E8
:10D2A000401AADF802002068A18800880844ADF853
:10D2B0000400206829464088401EADF80600084654
:10D2C000F8F7CCF830B1A0696A4685602169A06999
:10D2D0000EF0E4FBA06986607CBD000070B5A4B0D0
:10D2E0000C46054622AA20A915F09BFF20A80AF0AB
:10D2F0007DFE20B922A80AF079FE00283ED012A9AE
:10D3000028461FF05BF9012838D12146684615F000
:10D310006FFB1B4801900220029012A804904FF46A
:10D3200080300D9020A80AF061FE80B120A8039003
:10D330006A461A2128460FF067FF20AA12A9204644
:10D340000EF0ACFB6A461B2128460FF05DFF22A8B9
:10D350000AF04CFE002811D022AE6A461A21284657
:10D3600003960FF051FF22AA12A9204603960EF051
:10D3700095FB6A461B2128460FF046FF24B070BD7E
:10D38000144603082DE9F74FB1F92E00A2B0144658
:10D390000D46002872D095F8361002296ED9012862
:10D3A00008D1B5F93400002804DC288E10B9688E45
:10D3B0000028EFD02088298EAA8E0844801AADF864
:10D3C0002000A38819441144ADF8241062886B8EA4
:10D3D0001A44AB8ED21AADF82220E3886E8E334405
:10D3E000AE8E3344ADF82630B5F92E6006EBD67616
:10D3F000A0EB6600401EADF82800012000EB660699
:10D400003144ADF82C10B5F92E1001EBD171A2EB1F
:10D410006101491EADF82A10B5F92E1001EBD1714A
:10D4200000EB61001844ADF82E0095F836000D9021
:10D43000FD2801D9FF200D9022980AA9826820A812
:10D44000F8F70CF80028A5D0214603A80AF080FDC3
:10D450004FF0FF3739463A4603A80AF011FEB5F9F6
:10D46000009003A80AF0E8FD044603A80AF0A6FD10
:10D47000844203A803DA0AF0DFFD02E0FEE30AF0CB
:10D480009DFDB9EB600F01DD4FEA6009B5F9006061
:10D4900008A80AF0D1FD044608A80AF08FFD8442CE
:10D4A00008A802DA0AF0C8FD01E00AF087FDB6EB31
:10D4B000600F00DD4610B5F92E00841904FB04F05E
:10D4C000400013F001FD00900146B5F92E203346CF
:10D4D00008A81FF02DFA0AA80DF0BCFF012620B9FC
:10D4E000E878FF2801D3A87800B100261F9756B925
:10D4F00001234A4603A912A80EF016FA002112A829
:10D500000DF0B8FD1F900AA80AF096FD13F0DCFCA0
:10D5100083461C2118A813F079FE01A81890CDF8B5
:10D520006CB01D90A88DADF8680095F836008DF8A8
:10D530007800A8788DF879000AA80AF07DFDBDF87A
:10D54000281000EBD07001EB60000FFA80FA0AA8F7
:10D550000AF034FDBDF82A1000EBD07001EB60003A
:10D5600007B2BDF82C00ADF80800001B401C00B24B
:10D57000621EADF80400ADF8061011440C9209B219
:10D58000ADF80A105246504500DC1046ADF80400D4
:10D59000B94200DB39462298ADF80A1001A9826829
:10D5A00005A8F7F75BFFC0B34A4603A905A8F7F73C
:10D5B0007DFF90BB05A80AF03FFDBDF91610BDF92F
:10D5C0002A200E90891A0098BDF92C2001FB040036
:10D5D000BDF91410121B891A0844401E119046B15F
:10D5E0004A4603A905A8F7F7D1FF10B1012007901B
:10D5F00000E007960E98002827DDBDF81400ADF86E
:10D600000400CDF86CB0BDF81800ADF80800022099
:10D610008DF87000BDF9168013E016E0ADF80A80B1
:10D620000798ADF80680E8B311981B9018A92298C6
:10D630000EF02FFC11982044119008F101000FFA10
:10D6400080F8BDF91A104145E8DABDF82C00ADF8B4
:10D650000800001B401C00B2ADF80400BDF82E20ED
:10D66000ADF80A20111B491C09B2ADF8061052464C
:10D67000504500DC1046ADF80400781C0F90814244
:10D6800000DC791C2298ADF8061001A9826805A873
:10D69000F7F7E4FED0B34A4603A905A8F7F706FF5B
:10D6A000A8B15FE0FFE722465846119913F0D4FC79
:10D6B000BDF91410424658460E9B0DF08DFE8DF8B4
:10D6C00070000128B2D102208DF87000AEE705A8E5
:10D6D0000AF0B2FCBDF90A10BDF91A200E90891AA1
:10D6E0000098BDF92C2001FB0400BDF91410121B99
:10D6F000891A0844401E11904EB14A4603A905A854
:10D70000F7F744FF18B10120079001E02AE00796DF
:10D710000E98002826DDBDF81400ADF80400CDF801
:10D720006CB0BDF81800ADF8080002208DF870004C
:10D73000BDF91A8012E0ADF80A800798ADF80680AE
:10D74000B0B311981B9018A922980EF0A2FB119863
:10D7500020441190A8F101000FFA80F8BDF91610CD
:10D760004145E8DDBDF828002044ADF80400BDF8CF
:10D770002C00001BADF80800BDF82A000C99ADF88C
:10D780000600084400B2ADF80A00B84200DB384693
:10D79000ADF80A00229801A9826805A8F7F75EFE95
:10D7A00090B34A4603A905A8F7F780FEA8B177E031
:10D7B000FFE722465846119913F04EFCBDF91410AC
:10D7C000424658460E9B0DF007FE8DF8700001286A
:10D7D000B9D102208DF87000B5E705A80AF02CFC3D
:10D7E0000E90BDF91610BDF906200098891A01FBAC
:10D7F000040011904EB14A4603A905A8F7F7C6FEEA
:10D8000018B10120079001E04AE007960E98002821
:10D8100046DD079860B100201B90BDF81400ADF8FC
:10D820000400BDF81800ADF80800BDF9160032E09C
:10D83000CDF86CB0F1E7ADF80A800798ADF8068036
:10D8400058B10D98FF281198007803D095F836103C
:10D850004843000A8DF8780013E011980E9A017879
:10D86000584613F0A2FCBDF91410424658460E9BD0
:10D870000DF0B2FD8DF87000012802D102208DF864
:10D88000700018A922980EF004FB11982044119002
:10D8900008F1010000B2BDF91A1080464145CADA0C
:10D8A00095F836008DF87800BDF828002044ADF8D2
:10D8B0000400BDF82C00BDF82E10001BADF80800C8
:10D8C000081B401CADF80A1000B20F99ADF8060015
:10D8D000884200DC781CADF80600229801A9826815
:10D8E00005A8F7F7BBFDE8B34A4603A905A8F7F773
:10D8F000DDFDB8BB05A80AF09FFB0790BDF90A1033
:10D90000BDF91A200098891A01FB040011900798AC
:10D91000002854DD2EB14A4603A905A8F7F736FEC4
:10D9200000B966B100201B90BDF81400ADF80400EA
:10D93000BDF81800ADF80800BDF91A003AE0CDF8BE
:10D940006CB0F1E7ADF80680ADF80A802EB14A461A
:10D9500003A905A8F7F71AFE00B96EB10D98FF28C4
:10D96000119800E02BE0007803D095F8361048437A
:10D97000000A8DF8780013E01198079A017858464C
:10D9800013F013FCBDF9141042465846079B0DF0E6
:10D9900023FD8DF87000012802D102208DF870005F
:10D9A00018A922980EF075FA119820441190A8F148
:10D9B000010000B2BDF9161080464145C2DD95F860
:10D9C00036008DF87800BDF82C00ADF80800011B7A
:10D9D000BDF82A00491C09B22044ADF8041000B279
:10D9E000ADF80600BDF82E200F9B121B12B2ADF849
:10D9F0000A20984200DB781CADF80600BA4200DC31
:10DA00003A46ADF80A205046514500DC01462298BE
:10DA1000ADF8041001A9826805A8F7F71FFDC8B387
:10DA20004A464D4603A905A8F7F740FD90BB05A857
:10DA30000AF002FB10900C990098BDF92C2001FB14
:10DA40000400BDF91410121B891A0844401E1190DD
:10DA500046B12A4603A905A8F7F798FD10B14FF083
:10DA6000010802E0B6F1000801D0119800E0584624
:10DA70001B901098002832DDBDF81400ADF80400AA
:10DA8000BDF81800ADF8080002208DF87000BDF94F
:10DA9000165020E023E0ADF80650ADF80A50B8F17A
:10DAA000000F12D1DDE91021584613F0D5FABDF967
:10DAB00014102A465846109B0DF08EFC8DF870000D
:10DAC000012802D102208DF8700018A922980EF0CA
:10DAD000E0F96D1C2DB2BDF91A00A842DBDA002373
:10DAE000009815E000EB040EAEF10101002204EBFA
:10DAF000D47C07E0057891F8008000F8018B01F8EC
:10DB00000159521CB2EB6C0FF4DB5B1C70461BB26C
:10DB1000A342E7DBBDF828000C99ADF804000844E7
:10DB200001B2BDF82A000F9B204400B2ADF80600F8
:10DB3000BDF82E20ADF80810121B12B2ADF80A2065
:10DB4000984200DB781CADF80600BA4200DC3A4689
:10DB5000AAF10100ADF80A201090814200DB0146D5
:10DB60002298ADF8081001A9826805A8F7F776FC9D
:10DB7000B8B34A464D4603A905A8F7F797FC80BB02
:10DB800005A80AF059FA0E900C990098BDF90420E6
:10DB900001FB0400BDF91410891A0844119046B124
:10DBA0002A4603A905A8F7F7F1FC10B14FF00108C8
:10DBB00002E0B6F1000801D0119800E058461B9031
:10DBC0000E98002832DDBDF81400ADF80400BDF851
:10DBD0001800ADF8080002208DF87000BDF916504D
:10DBE00020E023E0ADF80650ADF80A50B8F1000F80
:10DBF00012D158460E9A119913F02EFABDF914104D
:10DC00002A4658460E9B0DF0E7FB8DF87000012860
:10DC100002D102208DF8700018A922980EF039F96F
:10DC20006D1C2DB2BDF91A00A842DBDABDF8280040
:10DC30000C99ADF80400084400B2ADF80800BDF836
:10DC40002A100C9AADF806101144109A09B2ADF8DA
:10DC50000A10904201DBAAF10100ADF80800B942B8
:10DC600000DB39462298ADF80A1001A9826805A8A0
:10DC7000F7F7F4FBC8B34A464D4600E042E103A97A
:10DC800005A8F7F713FC80BB05A80AF0D5F9BDF984
:10DC90001620BDF906100D90511A0098BDF9042008
:10DCA00001FB0400BDF91410891A01EB000846B10C
:10DCB0002A4603A905A8F7F769FC10B101200790CF
:10DCC00000E007960D98CDF86CB0002821DDBDF876
:10DCD0001400ADF80400BDF81800ADF808000220EB
:10DCE0008DF87000BDF916500FE012E0ADF80A5043
:10DCF0000798ADF80650D0B3CDF86C8018A92298DB
:10DD00000EF0C7F86D1CA0442DB2BDF91A00A84250
:10DD1000ECDABDF82800ADF804000C99BDF82E200F
:10DD2000084401B2101BADF80810401CADF80A20E1
:10DD300000B20F9AADF80600904200DC781CADF8F6
:10DD400006001098814201DBAAF101012298ADF88A
:10DD5000081001A9826805A8F7F780FBC0B34A46FE
:10DD60004D4603A905A8F7F7A1FBA8B158E0FFE7C6
:10DD700022464146584613F06FF9BDF914102A4661
:10DD800058460D9B0DF028FB8DF870000128B5D189
:10DD900002208DF87000B1E705A80AF04DF9BDF931
:10DDA0000A10BDF91A208246891A0098BDF904208C
:10DDB00001FB0400BDF91410891A0F184EB12A4650
:10DDC00003A905A8F7F7E2FB18B14FF0010801E03D
:10DDD00026E0B046CDF86CB0BAF1000F20DDBDF8FA
:10DDE0001400ADF80400BDF81800ADF808000220DA
:10DDF0008DF87000BDF91A500EE0ADF80650ADF880
:10DE00000A50B8F1000F2FD01B9718A922980EF0D6
:10DE100040F86D1E27442DB2BDF91600A842ECDD76
:10DE2000BDF8280001A92044ADF80400BDF82C007D
:10DE3000001BADF80800BDF82A002044ADF806002C
:10DE4000BDF82E00001BADF80A002298CDF86CB08A
:10DE5000826805A8F7F702FBF0B34A4603A905A8B4
:10DE6000F7F724FBA0B140E022463946584613F0AC
:10DE7000F3F8BDF9141053462A4658460DF0ACFA93
:10DE80008DF870000128C0D102208DF87000BCE729
:10DE900005A80AF0D1F8051E27DDBDF81400ADF87D
:10DEA0000400BDF81800ADF80800BDF9164018E0F0
:10DEB000ADF80640ADF80A402946584613F0D3F9AC
:10DEC000BDF914102B46224658460DF085FA8DF800
:10DED000700018A9229800E007E00DF0DAFF641C3A
:10DEE00024B2BDF91A00A042E2DA2EB912A80DF050
:10DEF00095FA1F980DF0C2FD009813F031F85846BE
:10DF000013F02EF825B0BDE8F08F00002DE9F74F93
:10DF1000D2B0144652984A9010460AF099F8E18817
:10DF2000628800EBD070891A491C09B2421001EBDB
:10DF3000D170B2EB600F04DA20460AF089F800EBEA
:10DF4000D0704010489021880844ADF80C006188DA
:10DF500048980844ADF80E001FA80DF06BF84FF478
:10DF6000C0241FAA2146529816F050F89DF885004B
:10DF700040F010008DF8850017A80DF023F817AABF
:10DF80002146529815F0F4FF05A8539914F030FD7E
:10DF9000EA480690032007901FA80B904A98129415
:10DFA00024305090F8F7BCFAC1E11694A18B489840
:10DFB000A28908440FFA80F8A8EB0201A08809B2F0
:10DFC000BDF80C20A8EB00000491111AADF8F81070
:10DFD000BDF80E1002440B1AADF8FC200844ADF851
:10DFE000FA30ADF8FE0047F6FF7501232A463EA938
:10DFF00028A80DF099FCBDF80C2004990123501AB3
:10E00000ADF80001BDF80E00411AADF802110499F7
:10E01000491E0A44ADF804210844ADF806012A4619
:10E0200040A92EA80DF080FCBDF80C00BDF80E2014
:10E03000A0EB0801ADF80811A2EB0801ADF80A1138
:10E04000A8F101010844ADF80C015018ADF80E011B
:10E0500000232A4642A922A80DF066FC002122A82E
:10E060000DF008F84990608908B1401E01E04FF6B4
:10E07000FF708246002646E161890AF1010A4FF0ED
:10E080000009514502D1CA464FF00109A06900902C
:10E09000628800213046521E636912F07AFE834680
:10E0A0001590B9F1000F01D0A06800E02068009041
:10E0B0004F9001D0E08900E0E08807B24A984B9782
:10E0C00000F130000190F8F72BFA3DE028790228A2
:10E0D00036D1A968594533DCEA685A4530DB288ACD
:10E0E000AB8A384407B2688A984203D1688AADF88F
:10E0F000000025E0A87D4FF00003C0074FF0FF00AF
:10E100000090584601D1D4E9051212F042FEC0B287
:10E110006A8A001DC308A98A90B2894A89B240EA76
:10E12000004041EA014110401140091A594300EBF7
:10E130005110104040EA1040ADF8000080B200904D
:10E1400029460198F8F7E9F90500BFD1E08B704343
:10E1500001026088401E91FBF0F001120291491CFF
:10E160003491C5B2208C0299084400B21AF0E2FD45
:10E170003590208C3499084400B21AF0DBFD01463A
:10E18000C5F58070359A0190504301FB05000112DE
:10E190004C91208C0299084400B21AF0C7FD0290FD
:10E1A000208C3499084400B21AF0C0FD0146DDE924
:10E1B0000102504301FB05000512BDF80000ADF857
:10E1C0007C0008EB0700BDF80C2000FB05F17F3157
:10E1D00002EBE131ADF87E70ADF834114C99BDF829
:10E1E0000E2048437F3002EBE030ADF8360103A843
:10E1F00013960E9017A80A90B9F1000F5AD04998BB
:10E200000DF03CFCB4F910100498BDF80E20401A33
:10E21000BDF80C1045437F3501EBE5354C99414382
:10E220007F3102EBE137202217A934A812F014FF46
:10E2300034A80A905B4643A2102144A819F016F9AD
:10E2400044A8109005AA1A2152980EF0DDFFBDF9DE
:10E250006E004FF0000B41F6FF728DE80508BDF926
:10E2600070304EA8179A10991AF030FEBDF9380197
:10E2700000EBD071A5EB6102BDF93A11104401EB3E
:10E28000D173A7EB6303ADF8F020ADF8F400581894
:10E29000ADF8F230ADF8F600CDF800B03CAA109B16
:10E2A0000A9953980CF0FAFB002122A80CF0E2FE28
:10E2B000499007E000200A90109005AA1A21529870
:10E2C0000EF0A2FFB9F1000F01D02EA800E028A89F
:10E2D00000210CF0CFFE054603AB4DAA1FA95398B1
:10E2E0000CF09BFE28460DF0C9FB05AA162152989A
:10E2F0000EF08AFFBDF83C01ADF87C004B98761C0F
:10E30000ADF87E00F6B26088B0423FF6B5AE28A800
:10E310000DF084F82EA80DF081F822A80DF07EF8FB
:10E3200049980DF0ABFB21465098F8F7F6F8040039
:10E330007FF43BAE55B0BDE8F08F0000944B03086E
:10E340001FF8E007256400002DE9FF4F81B00C465F
:10E3500080462021DDF838A015F03CFD002878D05B
:10E36000BAF1030F404621D014F03FFF814610F070
:10E3700041FE0546002708F1140000903E46BAF120
:10E38000030F3946404614D015F000FC82460021A8
:10E39000404615F061FB83464846B9F1010F59D05C
:10E3A00002285FD0B9F1030F63D138E014F016FFF3
:10E3B000DCE715F089FB83460021404615F0AEFBF3
:10E3C00082464846B9F1010F19D002281FD0B9F191
:10E3D000030F4ED1009809F017FEA0EB0B01A1EB43
:10E3E0000A00B8F8141000EBD0720BEB620008447E
:10E3F00007B205F1140009F007FEA98A23E0B8F876
:10E400001410B5F9146001EB0B0007B231E0B8F855
:10E410001810B5F91860A1EB0A0007B229E00098BE
:10E4200009F0BAFDA0EB0A01A1EB0B00B8F8161039
:10E4300000EBD0720AEB6200084407B205F1140049
:10E4400009F0AAFDE98A00EBD07001EB600006B28A
:10E450000FE030E0B8F81610B5F9166001EB0A00CD
:10E4600007B206E0B8F81A10B5F91A60A1EB0B0074
:10E4700007B2A01E049900B2002910DAB9F1000F0A
:10E4800015D0BE4221DC12E0002C01DDA41C24B218
:10E49000E01704EB9070801005B0BDE8F08F039991
:10E4A000002912DAB9F1000F01D0BE420DDB002CB9
:10E4B000EADA0446E8E70498E04202D504984042CC
:10E4C00004B20398001B00D5039C2046E4E770B516
:10E4D000044610F07FFD48B1006882680AB1217AD5
:10E4E0009047207E810743D4C0077CD101260021BC
:10E4F000606814F0FDFC00251AE0016899B1017A0A
:10E50000CA0910D0802904D0227A21F080019142DA
:10E5100009D14168E160016820468847207E810773
:10E5200026D4C0075FD16D1C2946606814F0E0FC5A
:10E5300008B1002EE1D12146002014F004FC051E94
:10E5400003D00021606814F0D3FC002619E00168B4
:10E5500091B1017A0A060FD411B1227A91420BD1FE
:10E560004168E160016820468847207E810701D527
:10E57000012070BDC00736D1761C3146606814F0AA
:10E58000B7FC10B1012DE2D02FE0012D2DD1606834
:10E59000416851B3217E490727D4217A232919D014
:10E5A000242917D0A90315F015FCF0B1207A1138F1
:10E5B0001C280FD2DFE800F01919191919191919B7
:10E5C0001919190E0E190E0E191919190E0E0E0E13
:10E5D00019190E196068406860602046FFF777FFE0
:10E5E0000546012801D0002070BD284670BD0000FE
:10E5F00070B50B4D00244FF40F76314600201BF010
:10E6000077FC45F8240018B1641CE4B2022CF4D362
:10E610001BF0B8F9022C01D1002800D0012070BDF8
:10E620002C05002038B5044600F048FC002806D12F
:10E630006946204621F0B2F8002800D1206038BD9C
:10E6400038B50446694621F0A9F8002801D1002117
:10E65000216038BD2DE9F04F87B017469846044633
:10E66000694621F09BF85FEA000A77D194F831A05F
:10E670005FEA0A00F9D100980078042807D1421F08
:10E680002046216C00F01DFF5FEA000AEDD1266DE7
:10E6900004F154004FF0010B0290002E74D0F943A6
:10E6A00071EA080135D0D4E90401C31B71EB0802FB
:10E6B00001D207468846C4E90E7857EA08004DD0D3
:10E6C0007A1E48F1FF3316461D462046FAF751FAE6
:10E6D000014620640098FAF765FA00287ED0009978
:10E6E000720A42EAC5524B895B1E1A401518208FE8
:10E6F000C005E4D0626CAA42E1D094F83000000674
:10E7000036D5487801230299FBF7ABFC002866D187
:10E7100028E056F8049BA1680227C9B10025BF1C58
:10E720000191884620466D1C02F05AFC01460128E2
:10E7300054D9481C53D008F101008142F1D04F4513
:10E7400002D820C6019801C60098C0698842E5D861
:10E75000206D4F45076002D800203060F7E04FF091
:10E76000110AF4E094F8300000F07F0084F83000E3
:10E77000009801232A4640780299FBF745FC0028BF
:10E78000C5D16564E3E0FFE7009A1078042806D05D
:10E79000B8F1010F03D34FF0FF374FF00008D4E971
:10E7A0000410CD1B70EB080305D294F830309B07A2
:10E7B00001D40F468046D4E90E01CDE904010020C2
:10E7C0000190C4E90E0057EA08003BD050894FEA97
:10E7D0004029DDE90401084326D001E09CE0A1E0E6
:10E7E000781E48F1FF314A460023F1F79AFD0546AD
:10E7F0000E46DDE90401401E41F1FF314A46002387
:10E80000CDE90401F1F78DFD281A8E410CD3DDE925
:10E810000410A9F10102D5432940C4E90E107F1A62
:10E8200068EB0008216C0CE0A16849B90021204682
:10E83000FAF703FB014601286ED0481C72D0A16094
:10E84000216479BB46E04A46D4E90E50BF1A68EB12
:10E85000030815EB09025841C4E90E2094F8303042
:10E860009D0712D5D4E90465B61A854105D2C4E9DD
:10E87000042043F0400084F830002046FAF7DDFA27
:10E88000010006D10027B84612E0204602F0A8FB9E
:10E890000146481C55D001293ED90098C0698842DC
:10E8A0003AD921640023B9EB070073EB0800CAD3FF
:10E8B000D4E90E30DB1940EB0800C4E90E30F8054E
:10E8C00008D00098FAF76EF930B3790A41EAC851D6
:10E8D00008440190D4E90E01D4E90423121A8B41B3
:10E8E00007D2C4E9040194F8300040F0400084F8F5
:10E8F0003000208FC0052AD0626C0198824226D059
:10E9000094F83000000614D500980123029940784D
:10E91000FBF7A7FB30B906E0022084F8310007B00E
:10E92000BDE8F08F0DE094F8300000F07F0084F82F
:10E9300030000098DDE9012140780123FBF764FBFA
:10E9400018B184F831B00120E9E7019860645046BD
:10E95000E5E7000017B581B01446029800906846BC
:10E9600002F0DFFD002802DA0B2004B010BD0A4BD4
:10E97000002253F8201001B10A70019901B10A7008
:10E9800043F820102CB1002201A902A81BF014F8B2
:10E99000EBE70020E9E70000380500202DE9F74FFC
:10E9A00096B005000BD002F03F06324614A917A816
:10E9B0001BF002F804004FF0000A04D02FE10920F8
:10E9C00019B0BDE8F08F149800904FF48C6000F0FF
:10E9D0000BFC5FEA00090BD0149809F50071C0E93F
:10E9E00003916846179901F0BDFC040002D006E0CF
:10E9F0001120E5E79DF84B00000600D5062416F02F
:10EA00001C0F78D04CB1042C03D16846FBF750F9A9
:10EA1000044646F008064CB1FDE09DF8060010F0F3
:10EA2000110F69D1700701D50824F4E030076ED5C5
:10EA300014984FF020084FF0010B0178042925D0DD
:10EA40000F9907F05BFF074602F063FB01460F9842
:10EA50000E301EF0EBF90F99002281F80B800F9910
:10EA600014981EF0CFF90F9800211C301EF0DEF92B
:10EA7000149880F803B0EFB3D0F8388000223946FC
:10EA800068461DF0E0FA040037D0C4E0286029464B
:10EA9000149804F025F914981E2200210069801CA6
:10EAA0001AF05AFF14981A220021006926301AF031
:10EAB00053FF1499096981F8048002F02AFB01468A
:10EAC0001498006908301EF0B1F914996846096974
:10EAD00081F821B01EF042FA040017D1A96849B1AB
:10EAE000002228461DF0AFFA0446A8681499401E7B
:10EAF00048610AE01CE00BE016E0414614981BF068
:10EB000031F9044614987F1E47617CB183E011E01F
:10EB1000002C04D19DF80600C10601D504247AE03A
:10EB2000B10703D5C00701D0072474E0300701D531
:10EB300046F040061498816BA9640F99E964017846
:10EB4000042930D00F9907F0D9FEA8600F981C3027
:10EB500007F0E7FEC5E9040AC5F850A0149929603A
:10EB6000149900204FF40072C988A98085F830609C
:10EB700085F831A0C5F844A0C5E90E00014605F1AD
:10EB8000540083461AF0E8FEB00644D5D5E9046780
:10EB900056EA07003FD0C5E90E671498A968408976
:10EBA000400280461DE00299296204999DF80720E1
:10EBB00021F0FF01114369621399A962294604F00B
:10EBC0008FF8C9E7284602F00BFA0146012800D861
:10EBD0000224481C00D101244046361A67EB0A077C
:10EBE00024B90246921B7AEB0700EBD3296494B94F
:10EBF000F00510D01498F9F7D5FFA0B1710A41EAD9
:10EC0000C7510A186A641498012359464078FBF7E3
:10EC1000FBF900B10124484600F0EAFA0CB1C5F84E
:10EC200000A02046CCE60224F5E773B582B00400CC
:10EC300007D00022694603A81AF0BEFE050003D0E3
:10EC400043E0092004B070BD009820604FF48C6050
:10EC500000F0CAFA06000BD0009806F50071C0E972
:10EC600003612046039901F07DFB050002D026E0F8
:10EC70001120E7E794F84B00000618D4A079C006ED
:10EC800027D500980178042904D0E16B07F036FEFF
:10EC9000A0600CE0A16821622169E27921F0FF0106
:10ECA00011436162E16CA162214604F019F80098F9
:10ECB0000021C088A0802046FBF718F905463046A1
:10ECC00000F096FA042D06D00DB1002020602846F1
:10ECD000B8E70525F3E70525F7E72DE9FC5F894649
:10ECE00000259A461646044669461D6020F056FDEA
:10ECF00000281AD194F83100002816D194F8300079
:10ED0000C00711D0D4E90E02D4E90431181A04F175
:10ED1000540361EB02010193831B4FF0010B71F16E
:10ED2000000100D206468EE00720BDE8FC9F208F40
:10ED3000C0056CD1D4E90E230098550A45EAC355A5
:10ED40004089401E054013D152EA030005D0206DD2
:10ED500028B12046F9F70DFF05E0A06803E0204642
:10ED6000216C02F03DF9022819D3411C49D02064DE
:10ED7000216C0098F9F716FF88B100EB0508770AB7
:10ED800023D00098EA1941898A4200D94F1B407864
:10ED90003B4642464946FBF737F990BB03E0022069
:10EDA00084F83100C1E794F8300000060BD5616C9F
:10EDB000A1EB0800B84206D209EB40204FF40072E4
:10EDC00001991AF0C0FD7D022FE0626C42451CD013
:10EDD00094F8300000060CD5009801230199407882
:10EDE000FBF73FF968B994F8300000F07F0084F831
:10EDF000300000980123424640780199FBF704F95E
:10EE000018B184F831B001208FE7C4F84480208F16
:10EE1000C0F30800C0F50075B54200D935460119A8
:10EE20002A46484654311AF08EFDDAF80000761B67
:10EE30004119CAF80010D4E90E20521940F100001F
:10EE4000C4E90E20A944002E7FF471AF00206CE7C6
:10EE5000F8B50E460746694620F0A0FC04002BD109
:10EE60009EB14FF48C6000F0BFF9050013D00098FC
:10EE700005F50071C0E9035100213846FAF7A6FEF6
:10EE80000446042809D044B113E000213846FBF7BA
:10EE90002DF8044610E01120F8BD3146384602F046
:10EEA0003AF900213846FAF72FFE0446042800D12B
:10EEB0000024284600F09CF92046F8BDF0B595B036
:10EEC000044614A920F06AFC050023D194F8300010
:10EED00041061FD5000611D51498626C01234078B5
:10EEE00004F15401FBF7BDF810B1012015B0F0BDDD
:10EEF00094F8300000F07F0084F8300002F009F947
:10EF0000064614980178042905D0A16C1AF02AFF4E
:10EF100005005FD083E0204600F0BCFA05007ED1FA
:10EF2000421E2046216C00F0CCFA050077D14FF448
:10EF30008C6000F059F907000BD0149807F50071A8
:10EF4000C0E903712146684607F050FF050002D072
:10EF50003CE01120CAE7149801690A7942F02002C6
:10EF60000A71E179026941F0010182F8211000691A
:10EF7000A16834301DF05AFFD4E9042314980069C5
:10EF800038301DF05BFFD4E9042314980069283061
:10EF90001DF054FF1498314600690C301DF046FFF7
:10EFA0001498002102695175006910301DF03EFF70
:10EFB00068461DF0D3FF050008D114981EF070FEBE
:10EFC000054614F8300F00F0BF002070384600F0FE
:10EFD0000FF924E0E56C2946E87A40F02000E87259
:10EFE000A26820681DF00EFF05F11C0021691DF0CC
:10EFF0001DFF314605F116001DF018FF002105F137
:10F0000012001DF040FF14980121C1701EF048FE4F
:10F01000054694F8300000F0BF0084F83000284620
:10F0200064E72DE9FC5F04460020894618609A4693
:10F0300016466946204620F0B1FB002808D194F816
:10F040003100002804D194F83000800702D4072052
:10F05000BDE8FC9F00984FF0010B017804F15400CB
:10F060000190042904D0A06B8119814200D2C643CB
:10F07000B0E0208FC0057FD1D4E90E230098550A57
:10F0800045EAC3554089401E05401AD152EA0300A3
:10F0900005D0206D38B12046F9F76BFD07E0A06878
:10F0A00038B9002100E0216C2046F9F7C6FE00289F
:10F0B0007CD001282ED0411C57D02064A16801B912
:10F0C000A06094F8300000060DD50098626C012312
:10F0D00040780199FAF7C5FFA0BB94F8300000F022
:10F0E0007F0084F83000216C0098F9F75BFD88B14F
:10F0F00000EB0508770A26D00098EA1941898A4270
:10F1000000D94F1B40783B4642464946FAF7A9FFD3
:10F11000C0B903E0022084F8310099E7616CA1EBEB
:10F120000800B8420CD209EB40214FF4007201985C
:10F130001AF009FC94F8300000F07F0084F83000E9
:10F140007D022DE011E0616C414513D0D4E90E1031
:10F15000D4E90423891A98410CD20098012342462D
:10F1600040780199FAF750FF20B184F831B00120BE
:10F170006EE701E0C4F84480208FC0F30800C0F5BA
:10F180000075B54200D9354620442A4649465430D8
:10F190001AF0D9FB94F8300040F0800084F8300079
:10F1A000DAF80000761B4119A94400E015E0CAF81E
:10F1B0000010D4E90E134A1943F10003C4E90E23E9
:10F1C000D4E904108D1A70EB030501D211461846DC
:10F1D000C4E90410002E7FF44CAF14F8300F40F057
:10F1E00040002070002033E7014600201AF080BE66
:10F1F000014600201AF050BEF0B505460020802DD3
:10F2000001D22846F0BDB1F56A7FFBD10C4E002338
:10F2100045F220541022E11A03EB510136F8217017
:10F22000AF4206D001D20B4600E00C46521EF2D18E
:10F23000F0BD002AFCD006EB81004088F0BD000044
:10F2400078E60408F0B50024802801D284B21DE0DD
:10F25000B0F5803F1AD2B1F56A7F17D10C4D00226C
:10F2600086B245F220531021981A02EB500035F86F
:10F270002070B74206D001D2024600E00346491E84
:10F28000F2D103E011B105EB800044882046F0BDC7
:10F29000F491030830B5B0F5803F1FD280B2B0F5CD
:10F2A000805F01D21B4900E01B4931F8022B002A84
:10F2B00014D0904212D331F8023B1C0ADBB2D518AD
:10F2C000854221D9092C09D2DFE804F005090E1086
:10F2D000121416181A00801A31F8100030BD811A65
:10F2E00001F00101401A0DE010380BE0203809E070
:10F2F000303807E01A3805E0083003E0503801E004
:10F30000A0F5E35080B230BD002CCED101EB43011B
:10F31000CBE70000FC3A0608EE3C06082DE9F05F5A
:10F32000994616468A4680460025DDF828B00EE04C
:10F3300000240AEB050707E03A4608EB0401012325
:10F3400058461DF009FA641CB442F5DB6D1C4D45AE
:10F35000EEDBBDE8F09F00002DE9FF4F83B00446CF
:10F36000DDE910870E460846139D08F05FFE8346D0
:10F37000304608F01DFE0190012D0FD0022D0FD058
:10F38000032D3ED1404E6FB12088ADF80000387893
:10F390004FF0000AFD2837D3424638E03B4EF2E7F3
:10F3A0003B4EF0E72088ADF80800ADF8000042467B
:10F3B00002990698B047002702901FE0002517E049
:10F3C000BDF8000034F8151088420BD004EB45005E
:10F3D00042460088ADF80800ADF800000299069892
:10F3E000B047029004EB4500BDF8081001806D1C89
:10F3F0005D45E5DB05987F1C04EB400401988742DE
:10F40000DCDB07B0BDE8F08F00FB08F0020A0099D2
:10F410000698B0470290002030E0002525E0785D96
:10F4200010B3504505D1BDF8001034F815209142B5
:10F4300015D0FD2801D3424602E000FB08F0020A85
:10F4400004EB45000088ADF8080002990698B04723
:10F45000029017F805A034F81500ADF8000004EB91
:10F460004500BDF8081001806D1C5D45D7DB05988F
:10F4700004EB40041298074409F101000199814608
:10F480008842CADBBDE70000B58C0008418C00084B
:10F49000158D000870B50646C07903280FD1B569EF
:10F4A000B46808E0621C214630681CF09AF9002814
:10F4B00006D1641C6D1E002DF4D10020F0710020D7
:10F4C00070BD70B5044616460D46C0690FE00128B0
:10F4D00002D92A1A921C00E03246291A491C2068D7
:10F4E0001CF07FF9002804D1E069401EE06100288B
:10F4F000EDD170BD2DE9FF4F85B09346DDE9127562
:10F500000E460446F7F75CFA304608F08FFD804659
:10F51000304608F04DFD82466DB1BDF82000FD2F4C
:10F5200000EB00497ED3A8F1040001900020009078
:10F53000BDF8207026E1FD2F0ED3002507E04246DE
:10F54000204608990AF010FB04EB4B046D1C55454E
:10F55000F5DB09B0BDE8F08FBDF80010002060F3C6
:10F56000040189B260F34A1189B260F3CF21ADF88A
:10F57000001088B20090BDF80000009001463A46A5
:10F5800008980AF0E9FC0190089880B2C10A794312
:10F59000ADF80810C0F34511794300F01F0078431F
:10F5A000ADF80A10ADF80C00C7F1FF0100254FE0DF
:10F5B000002048E0BDF8002034F810309A423CD0DA
:10F5C00004EB40021288ADF80420ADF80020BDF82D
:10F5D0000430BDF80820DE0A06FB0122803202EB6F
:10F5E000C21606EBC232BDF81060C2F3C45262F319
:10F5F000CF26BDF80A20C3F3451707FB012280324E
:10F6000002EBC21707EBC232C2F3C55262F34A16CD
:10F61000BDF80C2003F01F0303FB0122803202EB34
:10F62000C21300E0B4E003EBC232C2F3C45262F38F
:10F630000406B2B2ADF81060019204EB4002BDF8CE
:10F6400004301380401C4045B4DB04EB4B046D1CBC
:10F650005545ADDB7DE7002610E02A78FF2A12D061
:10F660002088ADF80800029908980AF075FC02900D
:10F67000BDF808002080A41C6D1C761C464557DA96
:10F68000A807EAD154E02780F5E72868411C43D059
:10F69000F0B32A78FF2A4FD02088ADF808000299ED
:10F6A00008980AF059FC0290BDF80800208015F86F
:10F6B000012FA41CFF2A41D02088ADF80800029930
:10F6C00008980AF049FC0290BDF80800208015F85F
:10F6D000012FA41CFF2A33D02088ADF8080002991E
:10F6E00008980AF039FC0290BDF80800208015F84F
:10F6F000012FA41CFF2A25D02088ADF8080002990C
:10F7000008980AF029FC0290BDF80800208000E06B
:10F710000BE0A41C6D1C0AE0A00704D02780C4F8ED
:10F720000290E78001E0C4E9009908342D1D361DE0
:10F7300001988642A9DD18E02780B8E72780C6E750
:10F740002780D4E72780E2E72A78FF2A1ED0208886
:10F75000ADF80800029908980AF0FEFB0290BDF887
:10F7600008002080A41C6D1C761C4645ECDBABEB2E
:10F77000080004EB40041498A0EB0800054400982E
:10F78000401C00905045FFF666AFE2E62780E9E7AF
:10F7900000212388ADF804308946084633E000266E
:10F7A00027E0287818B3884205D0FF282FD000FB27
:10F7B00007F2120A9146884203D134F816008342B8
:10F7C00010D0B9F1FF0F24D004EB46004A46008860
:10F7D000ADF80400019908980AF0BEFB0190297861
:10F7E00034F8163004EB4600BDF8042002806D1C8E
:10F7F000761C4645D5DB149804EB4B04A0EB0800BF
:10F8000005440098401C00905045C8DBA1E63A46EC
:10F81000D0E70898E2E72DE9FF4F85B00D46DDE916
:10F8200012A7F7F7CDF8BDF8209080464FB12846D3
:10F8300008F0FCFB0390284608F0BAFB834600263C
:10F8400040E0B5F9026017E0B5F900400FFA86FB19
:10F850000DE0CDF808A0ADF80490CDF800B0D8F8D0
:10F86000000023B2079AC7690599B847641CB5F927
:10F870000400A042EDDA761CB5F90600B042E3DAE6
:10F8800009B0BDE8F08F002416E0385D98B100FBA8
:10F890000AF0000A0290ADF804906888079A304494
:10F8A00000B2009028880599204403B2D8F80000DF
:10F8B000D0F81CC0E047641C03988442E5DB149830
:10F8C000761C07445E45DEDBDAE72DE9F0470646A5
:10F8D000C0698F1E801E9146B84200D800273C4662
:10F8E000B84600254FF4007A706B00EB14313046B7
:10F8F0001AF038FA18B14FF0FF30BDE8F08704F085
:10F90000070201209040F269C4F3C801C0B2534617
:10F91000921E06EB010C641C9CF83CC00CEA000C27
:10F920004006000E944202D3002420461946BCF142
:10F93000000F05D0A0460025BC4207D10020DCE71F
:10F940006D1C4D45F8D108F10200D6E70028E0D142
:10F950000120491C9942DCD3C6E700680968884247
:10F9600001D1012070470020704740680A6820F0EC
:10F970004040904200D20860002070472DE9F04FCF
:10F9800087B004460020019002900FF023FB00682E
:10F9900000263746057E206A0090B4F9141000292D
:10F9A00000DC4942B4F91600002800DC40428142E4
:10F9B00001DD0126AEE00127ACE0102114F00AFAC7
:10F9C00000287DD0BB46B146DA46C846009813F001
:10F9D0003FFBC10700D18946810701D44FF00008E1
:10F9E000410701D44FF0000B000701D44FF0000A8B
:10F9F000009813F001FC0590009813F0D7FA0490DA
:10FA0000009813F02DFB0390009813F089FB0599E3
:10FA1000002902DC0499002912DDBBF1000F03D09C
:10FA2000B4F91610A94207DABAF1000F08D0B4F9F8
:10FA300016106A42914203DC009901910C21029157
:10FA40000399002901DC002812DDB9F1000F03D071
:10FA5000B4F91410A94207DAB8F1000F08D0B4F9CC
:10FA600014106A42914203DC009901910321029132
:10FA70000599002901DC4FF0000B0499002901DCF5
:10FA80004FF0000A0399002901DC4FF0000900281B
:10FA900001DC4FF00008B9F1000F03D0B4F91400F5
:10FAA000A84218DAB8F1000F04D0B4F91400694282
:10FAB000884210DDBBF1000F05D0B4F9160000E05C
:10FAC00014E0A84207DABAF1000F0FD0B4F916001B
:10FAD000694288420ADC0EB1032000E00C2094F851
:10FAE0003C1060F3030184F83C1017E04FF4807180
:10FAF000009814F06FF936EA00000FD14FF400714E
:10FB0000009814F067F937EA000007D1009813F065
:10FB100040FA0090009800287FF44FAF019858B148
:10FB200094F83C10029860F3030184F83C100198AB
:10FB3000A0620020A082E082019807B0BDE8F08FAB
:10FB40002DE9FF5F064613F049FBB0F1000A72D0C1
:10FB500041F6FF740021304613F0B6FF80460021C5
:10FB6000304613F0DBFF8146304613F014F983462C
:10FB7000002758E0B0683249006850F827502846FE
:10FB800014F02FF9F0BB4FF48051284614F022F9FD
:10FB9000C0B35046BAF1010F05D0022809D0BAF11E
:10FBA000030F3FD11AE0B18AB5F9145001EB0800F8
:10FBB00004E0318BB5F91850A1EB09000399019AC3
:10FBC000294409B200B291422CDB029A914229DC0D
:10FBD000081A00B200281CDD01461BE005F11400E4
:10FBE00008F012FAA98A00EBD07001EB600005B2B0
:10FBF00006F1140008F008FAA0EB0801A1EB0900D7
:10FC0000B18A00E00EE000EBD07208EB620008441D
:10FC1000D4E74142002C01DD224600E062429142DD
:10FC200000DA04467F1C5F45A4D3A4F5F850FF38E2
:10FC300004D0604200B204B0BDE8F09F0020F9E7B4
:10FC4000010004002DE9FF5F064613F0CEFAB0F183
:10FC5000000A72D041F6FF740021304613F096FF7F
:10FC600080460021304613F0F7FE8146304613F0FF
:10FC700092F88346002758E0B0683249006850F88F
:10FC80002750284614F0ADF8F0BB4FF480512846B9
:10FC900014F0A0F8C0B35046BAF1010F05D0022805
:10FCA00009D0BAF1030F3FD11AE0F18AB5F9165025
:10FCB00001EB080004E0718BB5F91A50A1EB0900C3
:10FCC0000399019A294409B200B291422CDB029AAD
:10FCD000914229DC081A00B200281CDD01461BE015
:10FCE00005F1140008F058F9E98A00EBD07001EB37
:10FCF000600005B206F1140008F04EF9A0EB08010F
:10FD0000A1EB0900F18A00E00EE000EBD07208EBF5
:10FD100062000844D4E74142002C01DD224600E0A5
:10FD20006242914200DA04467F1C5F45A4D3A4F5E9
:10FD3000F850FF3804D0604200B204B0BDE8F09F34
:10FD40000020F9E7010004002DE9FF4F83B00F46C2
:10FD5000DDE910A493460021039814F015F8054638
:10FD60000021039813F02BFEF9788A070BD5CB07F7
:10FD700042F2D17202D0954202D007E0904207D100
:10FD800021F00200F870F878C00701D0764800E052
:10FD900076480190F878C0070CD0744859468146DF
:10FDA00000206080A08020612080A060E060CDF80D
:10FDB00000B0A6E06C48F1E70099594506D04FF431
:10FDC0000001304614F006F800287DD1684930461D
:10FDD00014F007F8002878D10021304613F0DEFD3A
:10FDE0005FEA000860D02069401C2061A28802EB15
:10FDF0000A01A180217DC90769D000EB8000800045
:10FE000011F062F805001CD0E16851B12069401E74
:10FE100000EB80008200284611F01EF9E06811F026
:10FE20009FF820694FF0000100EB800005EB800097
:10FE300040F8146CF878C007304603D041F2020253
:10FE400002E0FEE741F2050213F0CAFE216900B2AA
:10FE500001EB810105EB810121F8100CF8784FF0DE
:10FE60000001C007304602D041F2030201E041F236
:10FE7000060213F0B5FE216900B201EB810105EB2A
:10FE8000810121F80E0C2069002100EB800005EBB8
:10FE9000800040F8088C206900EB800005EB8000B2
:10FEA00040F8041CE56012E0019930468847F97873
:10FEB000890705D5B4F904100A1806998A4226DC88
:10FEC000A2885044104401E021E00FE0A0803046B9
:10FED000494688470146B4F90000814202DD3046B8
:10FEE000494688472080A068401CA060F8784007F9
:10FEF00002D54FF0FF3000E0012000994118009139
:10FF000005D4039812F035FF061E7FF455AFB4F9FF
:10FF10000400002802DDA0EB0A00A080206908B1DF
:10FF2000069801E0B4F904006080CEB1009858450D
:10FF300016D103996A468968096851F82050F87803
:10FF4000C0F38001039801F0A1FB4DB1284649465A
:10FF50008847208001992846884760800120A0605A
:10FF6000009807B0BDE8F08FCF3D0208172F0208B8
:10FF70000100060030B5044600200722C3091D25F4
:10FF80006B4383EA400021FA02F303F00103634369
:10FF90004340D8B2521EF1D530BD00002DE9F04FDC
:10FFA000B44D93B0044600212A8813F019FE9DF841
:10FFB0001710421C62F30001820862F34101C0087D
:10FFC00060F382018DF81710204600216A8813F033
:10FFD00007FE8DF8140020460021AA8813F000FEC9
:10FFE0008DF8150020460021EA8813F0F9FD8DF800
:10FFF00016000021204613F08DFC012800D00020BF
:020000040801F1
:1000000083469DF817004FF00001C00720460CD032
:1000100013F0A7FD06469DF817004FF00001C0073A
:10002000204605D013F03BFD04E013F038FDF1E766
:1000300013F097FD81469DF81700C007204602D0B7
:1000400012F015FF01E012F0F8FE0C90204600219E
:1000500041F2320213F0C4FD05462046002141F66C
:10006000100213F0BDFDE18A28444718204613F022
:10007000D1F8381AADF834002046002141F61202BA
:1000800013F0AEFDA18A28444518204613F0BBF8B2
:10009000281AADF83C009DF817009DF81680C0079F
:1000A00001D00DAD00E00FAD0021204613F06CFE35
:1000B00011900021204613F082FC10909DF817004B
:1000C000C10709D01099A1F51C52D13A02D1618C17
:1000D000890509D5C10709D11199A1F51C52D13A59
:1000E00004D1618C490501D44FF00008BBF1000F29
:1000F0000CD0C0070AD1B8F1000F03D0B8F1010F3E
:1001000002D003E0012000E0002080460027ADF887
:100110003870BA46B8F1000F3AD09DF81700400782
:1001200003D5A0684268521E13E0002211E00020AF
:100130000B9006A8CDE9009005A920460C9BFFF77F
:1001400003FEBDF81810BA1911440FB20AF1010AE2
:100150000246A0684068904201DD002AE7DABAF161
:10016000000F01D0B81B07B29DF81700C00720464A
:1001700002D012F062FE01E012F079FE0EA9CDE984
:10018000005101460FFA8AF33A4640461AF0A0F9A8
:100190009DF81710480703D5A0684068401E00E08E
:1001A00000208046BBF1000F04D0C80702D1288888
:1001B000384428800DF1180AA0684168414546DDA1
:1001C000B8F1000F43DB01200B90CDE9009A4246C5
:1001D00005A920460C9BFFF7B7FD0746BBF1000FB2
:1001E00008D09DF81700C00704D12888BDF8181062
:1001F000401A2880BDF934300C9A02A8019380E897
:100200000406BDF93C0000903B46424605A9204645
:10021000F8F75AF9B846099810F0A2FE00200990A4
:10022000BBF1000F03D09DF81700C00709D0288844
:10023000BDF818100844BDF838103144084428802F
:10024000BAE7BDF8381028883144401AF7E7119909
:1002500042F2D170814202D01099814202D12046EF
:1002600014F059FB00222B2120460CF0CDFF13B0D7
:10027000BDE8F08F680100202DE9F05F0546007EA3
:1002800092468B46C0076BD14FF00108EC68002600
:10029000C1467CB9287EC0F3C000401E30425FD109
:1002A000B9F1000F5CD02846594688474FF0000846
:1002B0000446C1460EB9261E52D0B8F1000F06D032
:1002C00021462846524690470446B04248D04FF057
:1002D0000108002CDDD0206813F0ECFA0006D8D419
:1002E00027683AE00121384613F074FD80B32FB13E
:1002F0000121384613F06EFD0028CAD1E868A042FB
:100300002ED070B1284601F031F80246E8680F217E
:1003100000680CF079FF012822D1E868006814F029
:100320001FF82846EC6001F021F80246E8680E212B
:1003300000680CF069FF012812D1E868006814F029
:100340000FF8296900290BD02846BDE8F05F08475F
:10035000FFE7384612F01DFE0746002FC2D1CDE759
:10036000BDE8F09F73B504460568019801E0401CA4
:10037000019001782F29FAD05C29F8D00020A060E4
:10038000E06101980078202807D2802084F84B0093
:1003900000212046F9F7AAFD7CBD01A92046F8F707
:1003A00001FE0028F8D12046F9F70BFB94F84B101A
:1003B00028B10428F0D14907EED405207CBD4907B7
:1003C000FCD4A079C006F8D52878042809D0208E5E
:1003D000C0F30800411928463C3106F08FFAA060AE
:1003E000DBE7A06820622069E17920F0FF00084384
:1003F0006062E06CA0622146284602F071FCCCE706
:1004000004490A685206FCD5024AC1B2121D1160A5
:10041000704700000038014010B5144600222260E9
:10042000114A21F000439342A8BF10BD53EA0002D5
:1004300008BF10BDB3F5801FA8BF226807DA3622B7
:1004400021F0B2F86FF0350221F000432260DFF8AE
:100450001CC06FF31E510CEB23531A4441F0FF51A3
:1004600041F00051226010BD0000F07F02FCFFFF50
:1004700010B50C460846FEF7D5F8204610F082FD70
:10048000002010BD10B50C460846FEF7D9F82046EE
:1004900010F078FD002010BD70B50D46502010F012
:1004A000E7FC040009D02946FEF7BFFB18B120463F
:1004B00010F068FD0024204670BD002070BD0000D3
:1004C000F0B5C9B0002014460F4610702F250DF16D
:1004D0001A0669463846FEF7BBFC10B10C2049B03D
:1004E000F0BD9DF80C00C00603D525703146601C98
:1004F00001E031462046F0F742F907A12046F0F727
:1005000097FA0028E5D005A12046F0F791FA0028D7
:10051000DFD00020E3E700002F2E00002F2E2E005A
:10052000FEB54FF4784518241F4E13E01FA0CDE907
:1005300000400A211823C8220295084606F062F9F5
:100540001EA0EFF789FF20213046F2F7BCFAC82041
:10055000F2F7AAF91CF0B4F80028E7D10022202114
:100560003046F2F7B8FAFEF743F81C4801221CA106
:100570000068FEF7EFF9002815D01AA0CDE9004079
:100580001823C822282102950A2006F03BF91AA058
:10059000EFF762FF20213046F2F795FABDE8FE4002
:1005A000C820F2F781B9FEBD000C0140534420433E
:1005B000617264204572726F7221000053442043BF
:1005C000617264204572726F722C20506C65617389
:1005D0006520436865636B210D0A00002C0500202F
:1005E000303A000053442043617264204D6F756EB1
:1005F00074204661696C2100534420436172642079
:100600004D6F756E74204661696C2C20506C65616D
:10061000736520436865636B210D0A0070B5002483
:100620000E46012A04D0022A04D0032A04D004E092
:10063000122402E0012400E013244FF4167010F09D
:1006400017FC050008D022463146FEF7A7F900281E
:10065000284602D010F096FC002070BD70B51C46F4
:100660001546084622462946049BFEF736FB00281D
:1006700000D00C2070BD10B5084600213BB1012B05
:1006800002D0022B05D106E0D0E90E4305E0FDF7CC
:10069000E1FF002010BDD0E90443A2184B41F6E76A
:1006A000886B10600020704770B51C4615460846E0
:1006B00022462946049BFEF7B4FC002800D00C20FB
:1006C00070BD00002DE9F0413B4886B0816941F0E2
:1006D00080018161816901F080010591816941F0AA
:1006E000800181618069012400F0800005904FF451
:1006F00000660327CDE90064DFF8C080CDE902473A
:1007000069464046F2F7E2F8A0020025CDE900056F
:10071000CDE9024769464046F2F7D8F8F8F7B4FD4C
:10072000002231464046F2F7D6F91420F9F7A0F836
:10073000012231464046F2F7CEF93220F9F798F817
:100740008DF81050012204A9002000F007F90122C1
:1007500004A9A42000F002F916208DF8100001224F
:1007600004A9802000F0FAF80C208DF81000012276
:1007700004A9882000F0F2F8022204A9A12000F0C8
:1007800025F89DF81000302803D19DF81110032999
:1007900009D09DF81110012905D0022903D00120AC
:1007A00006B0BDE8F081C9B201EB002104A0EFF76B
:1007B00053FE0020F4E7000000100240001C01403E
:1007C0004354502049443A25780D0A002DE9F04160
:1007D00015460F460446F8F70FFE7020F8F7D8FDCF
:1007E000F8F754FEE0B2F8F7D3FDF8F74FFEF8F74C
:1007F00003FE7120F8F7CCFDF8F748FE00246E1ECA
:1008000009E0B44201D0012000E00020F8F78CFD9F
:100810003855641CE4B2AC42F3D3BDE8F041F8F7BC
:1008200013BE00002DE9FC470026484F8DF80460F8
:100830004FF00A0A3878464D401CC0B2B0FBFAF2BD
:100840000AFB12013446B04638704FF6FF7909B101
:100850000A2861D2012201A90220FFF7B7FF9DF803
:100860000400010758D000F00F00062854D209FAFE
:1008700000F1C84340F44040A8864FF00108A98E1B
:1008800008FA04F001423AD032480422694630F8AE
:100890001400FFF79BFF95F844009DF80010C00777
:1008A0009DF8010001F00F010ED000EB012105EBD6
:1008B000440001849DF802209DF8031002F00F020D
:1008C00001EB0221818110E000EB0120224909881F
:1008D000091A05EB440081819DF802209DF8031060
:1008E00002F00F0201EB022101849DF800000821B3
:1008F000B1EB101F03D005EB440006848681641C15
:10090000E4B2052CBBD3A9894FF0010819B9288C92
:1009100008B98DF804603E709DF80400C0060CD143
:10092000A88E010402D520F4004005E0A5F80C9043
:10093000A5F8209000F46040A8863878F02801D906
:1009400087F800A04046BDE8FC8700002D0000208D
:1009500030000020D8450308900600202DE9F04122
:1009600015460E4604460027F8F746FD7020F8F7B6
:100970000FFDF8F78BFDE0B2F8F70AFDF8F786FDFA
:10098000002408E0305DF8F703FDF8F77FFD07006D
:1009900003D1641CE4B2AC42F4D3F8F755FD3846F9
:1009A000BDE8F0812DE9FC4115461C4606460B22A8
:1009B00018F0C9FF052C11D91D4A0CE00021AD1C0F
:1009C0002346044663F35F044008E30300D5544024
:1009D000491C1029F4D328880028EFD1072569463F
:1009E00004F00F003030392800D9C01D48556D1E65
:1009F0002409F5D17E2288464A556F1E06E0F8F795
:100A000029FE10B1BC4206D0641C641CAC4202D268
:100A1000305D2028F3D14146082D02D2485D6D1C7F
:100A200000E020203055641C082CF5D3BDE8FC8183
:100A30002110010030B50346012815D0072093FB93
:100A4000F0F0801C202B11D09A0002EB40026FF0D6
:100A5000010404EB4004521C92FBF4F25400421EC9
:100A60000A2505EB830306E0002030BD1A24F6E7D3
:100A70008B541B1B521E012AFADA06220A7030BD63
:100A800010B50378A3F115049C2C07D8002905DBC9
:100A9000994203DA002A01DB9A4201DBEFF752FEAA
:100AA00002FB031100EBE10001F007014078C840B0
:100AB00000F0010010BD000070B50C460546042989
:100AC00001D3EFF73FFE00F015F804EBC401084A2C
:100AD00001EB4411064B0A44A433194452574957B9
:100AE0004A43C11700EB5170C2EBE00070BD00003B
:100AF00040840308014610B5401E272801D9EFF7AE
:100B000021FE802000EB01104843403002290DDB1C
:100B1000072291FBF2F26FF01803921C5343373017
:100B20000A3303FB0200072900DB243810BD2DE93E
:100B3000FC5F83461BF04AF900240546A146A24605
:100B400042E04FF00008CDF800A046464746CDF8F9
:100B500004A025E04A4639465846FFF791FF404534
:100B60000AD1761CF6B2052E03D018D904F101047F
:100B700015E004F1030412E069463046F6F738FC4C
:100B8000B8F1000F04D1684601F019FA00B1283419
:100B90004A4639465846FFF773FF804601267F1CB8
:100BA000AF42D7DB69463046F6F722FCB8F1000FBA
:100BB00003D069460020F6F71BFC684601F0FFF9F8
:100BC00000B1283409F10109A945BADB002042E04F
:100BD0004FF00008CDF800A046464746CDF804A0E7
:100BE00025E03A4649465846FFF74AFF40450AD1B4
:100BF000761CF6B2052E03D018D904F1010415E0D5
:100C000004F1030412E069463046F6F7F1FBB8F14F
:100C1000000F04D1684601F0D2F900B128343A46F9
:100C200049465846FFF72CFF804601267F1CAF42FD
:100C3000D7DB69463046F6F7DBFBB8F1000F03D08F
:100C400069460020F6F7D4FB684601F0B8F900B118
:100C5000283409F101008146A842B9DB0027A5F13B
:100C6000010921E000261CE03A4631465846FFF7CC
:100C700007FF80463A46711C5846FFF701FF404582
:100C80000ED17A1C31465846FFF7FAFE404507D18F
:100C90007A1C711C5846FFF7F3FE404500D1E41C56
:100CA000761C4E45E0DB7F1C4F45DBDB00273846DA
:100CB0000DE0002607E0424631465846FFF7E0FEC9
:100CC00000B17F1C761CAE42F5DB08F101008046C6
:100CD000A842EEDB07EB87006D438100684200EB22
:100CE000800011EB400000D540422844401E90FB9C
:100CF000F5F0401E00EB800004EB4000BDE8FC9FD7
:100D00002DE9F74F89465FEA000A02D1B9F1000FD9
:100D100025D100252C464FF0FF3B4FF400481AE048
:100D20000AEB04104768C668474518D2464516D2F4
:100D30000078029919F0E2FA102810D801218140B8
:100D4000B94204DD304405442D1D454502DB5846BB
:100D5000BDE8FE8F641C4C45E2D3454501D3EFF757
:100D6000F1FC2846F4E72DE9F34F87B007468046AB
:100D7000694612F098F8384613F029F8039038467F
:100D800012F0C9F806900021384612F0B9FE8146EB
:100D90000021384612F0DEFE05460021384612F0EA
:100DA00011FF06460021384612F072FE0290002123
:100DB000384612F0E4FE04460021384612F07DFE6B
:100DC00004F0010104EBD47201EB620100F00102B6
:100DD00000EBD07002EB6000491C401C09B200B26D
:100DE0000D2900DB0D218B460D2800DB0D208246EE
:100DF0000D2D00DB0D250D2E00DB0D2602980D2894
:100E000001DA074600E00D27002469E0D8F8280041
:100E100000EBC40104A807F0A4F8BDF9100049468E
:100E2000484513DCBDF90020B9F10D0F00DB0D21A1
:100E3000511A0844ADF81000BDF91200B0421EDC92
:100E4000BDF902200D2E07DA314606E0BDF800207C
:100E5000A2EB0A010844EDE70D21511A0844039959
:100E6000ADF81200BDF91400491B891E88421EDB33
:100E7000BDF900100D2D014407DA284606E0BDF843
:100E80000220A2EB0B010844E9E70D200844069973
:100E9000ADF81400BDF91600C91B891E884217DB86
:100EA000BDF902100D2F014407DA384606E0BDF8FF
:100EB0000010014401EB0A00E9E70D200844ADF8F9
:100EC0001600002204A80899F4F7B0FB60B905E009
:100ED000BDF80210014401EB0B00F0E7641CA4B262
:100EE000B8F83000A04291D8B8F83000A04201D143
:100EF0004FF6FF7409B02046BDE8F08F10F00700F0
:100F000000D101207047B0F90C00032101EB400033
:100F100020F00300103070472DE9F05F89469346BA
:100F20008246002112F0E5FD05460021504612F0F0
:100F30000AFE80460021504612F03DFE0446002184
:100F4000504612F09EFD0646504612F040FF411BEF
:100F5000A1EB0807504611F0DEFF001B801B874203
:100F6000504605DA12F033FF411BA1EB080003E005
:100F700011F0D1FF001B801B00EBD070401001B2BC
:100F8000BAF814004A191044A9F80000BAF816007B
:100F90000A191044A9F80200BBF1000F01D0ABF808
:100FA0000010BDE8F09F0000024A0021128812F0F4
:100FB00017BE000078010020034A10B500211289F5
:100FC00012F00EFEC0B210BD78010020034A10B529
:100FD0000021528912F004FEC0B210BD7801002039
:100FE0002DE9F04104680D46022973D3E169A94255
:100FF00070D921784FF0FF36012909D002292CD071
:10100000F20D02EA8507032936D004297DD141E09B
:10101000A06A05EB550700EB5721204618F0A2FE09
:10102000002873D1C7F3080020447F1C90F83C804F
:10103000A06A00EB5721204618F094FE48BBC7F386
:101040000800204490F83C1048EA0120E90701D04C
:1010500006095BE0C0F30B0658E0A06A00EB15211F
:10106000204618F07FFEA0B9E8B204EB40003C3007
:1010700005F08DFC064649E0A06A00EBD51120463C
:1010800018F070FE28B938193C3005F04AFC20F001
:1010900070463BE0D0E9042352EA030101D08168A5
:1010A00009B9C179B1B981686FF0004C691A521E53
:1010B00043F1FF33520A42EAC3526389B2FBF3F3AE
:1010C000C279022A07D0032A0DD0022A1DD0C06996
:1010D00020B90CE019E0994217D801D1664615E015
:1010E00005F1010612E082698A42F9D8EFE7A06AA9
:1010F00000EBD511204618F035FE38B938193C30D0
:1011000005F00FFC20F0004600E001263046BDE867
:10111000F081002070472DE9F0474FF0000AD0F829
:101120000090064681F81AA0806B0C4600287ED0FD
:1011300099F80000042806D0F06C401C29D0002546
:101140002F46B8461AE0D9F81000BDE8F04700F085
:10115000DCBB08F1010837B9A0F55841B1F5006FC3
:1011600001D207460AE06119C5F1FF0240EA0740D3
:101170001A311AF0B1FBB8B105440027D9F80C10A8
:1011800031F818000028E4D107B10025611981F871
:101190001AA0002001462E23F26B125C401C202A6C
:1011A0000FD0052A02D002E00025EDE7E52209284C
:1011B00004D10C2902D26518491C6B736518491CAF
:1011C0006A730B28E8D36018554680F80DA0A07EFE
:1011D00018BB19B100210A46082314E03F20A0766D
:1011E000012114E02E2800D11023A0F14107192F6E
:1011F00005D8F76B3F7B1F4201D0203080B26718C3
:10120000491CB876521CA018407B0028EAD160180F
:101210008576F06B007B00B96573F06BC07A207344
:10122000F06B1C3005F07DFBC4E9000500E009E02F
:10123000F06B163005F0ABFB6081F06B183005F0F9
:10124000A6FB2081BDE8F0872DE9FC470F0023D0E5
:10125000046965692DB12868B84202D16868BDE8A3
:10126000FC87618A00204FF0040CC1F308060CE0F3
:10127000A26800EB800352F823100CEB8303D25AD0
:10128000791A8A420AD2401C80B28642F0D81DB137
:101290002F606169002048600020E0E700EB8005D6
:1012A0001220A26800EB85000026105C4FF00608B3
:1012B00002280BD04FF00C0A68B1DFF8ACC0102246
:1012C0000823032810D0012828D046E008EB850029
:1012D000105A461841E00AEB850008EB85031058C8
:1012E000D25A405C161838E0ADF80410CDF800C0B2
:1012F000A06802EB850103EB8509425A50F80910FA
:10130000022301A8F5F775FC38B3A16851F809204C
:10131000801A08EB85024010895A1DE0ADF80410D0
:10132000CDF800C0A06802EB850103EB8509425AA5
:1013300050F80910022301A8F5F75BFC68B1A16819
:1013400008EB850351F80920801A42100AEB85004A
:101350000858C95A30F812000E18606910B10760B9
:101360006069466030467AE721EF02082DE9F041D6
:1013700000260746354630460FE00DF06CFE216D25
:10138000B94209D1022802D0042803D003E0204644
:10139000BDE8F0812646254620460DF021FE0400DA
:1013A000EBD10EB13046F3E70DB12846F0E7BDE8CA
:1013B000F04100200DF014BE7CB5036900690025E2
:1013C0005B8AC4689B04A0682AD4830F16D00123CB
:1013D000B3EB907F30D101EB0240266801901748B3
:1013E0000090A068042320F04042314601A8F5F7A0
:1013F00000FC08B3801B801061681CE001EB022137
:101400002668ADF804100E4920F0404200910223F6
:10141000314601A8F5F7EDFB70B1801B4010EBE7FA
:101420006368805C595C39B130B1637B491E2268C6
:10143000401E01FB03210D5628467CBD43360108A2
:10144000573601082DE9FC5F88461F461446824640
:1014500005464FF4003112F048FA00EBD070461008
:10146000A01B0FFA80F9A88EAC8C10F0060F06D0E6
:10147000C0F34100022804D0012845D004E0288DA3
:1014800000E0E88C204484B204F15A0000B217F066
:1014900051FC00FB09F0C51320B217F04BFC00FB18
:1014A00009F0C4134FF440394946504612F021FB6D
:1014B00083464946504612F046FB01904946504645
:1014C00012F079FB00904946504612F0DAFAB8F86B
:1014D000001030444A19A2EB0B01891B3980B8F87F
:1014E00000104A19019931441144B980B8F802102A
:1014F0000A190099511A891B7980B8F80210214401
:101500000844F880BDE8FC9FB5F93000B5F9321009
:10151000084400EBD070B5F92E1040108142B0DBCA
:10152000ADE710B504464FF0FF302368190010D026
:1015300011F8012B202A0DD33A2AF9D11A78303A22
:10154000092A06D89B1C8B4203D1022A01DA1046D5
:10155000216010BD002010BD2DE9F041054600209E
:101560006B8C0E460427C3F3C504EA680EE007EB54
:10157000C00151585FEAC11C07D521F07F41B1423B
:1015800003D152F83000BDE8F081401C8442EED80F
:101590004FF0806000EB73204FEAF0506884C0F396
:1015A000C500C10010460FF02FFDE860C0B3688C85
:1015B000C0F3C504641E16D06FF003025300E86840
:1015C00002EBC40141585FEAC11C0CD489010AD462
:1015D00000EBC40103EBC40C6044641ED0E900C0FE
:1015E000C1E900C0EBD1E868082100EBC4000FF0AE
:1015F0000DFE08200FF03CFCE96841F8340015F0BE
:1016000076FFEA6807EBC400115841F08071115071
:10161000EA6866F317011150E86850F83400B2E741
:10162000FFE7FEE72DE9FC410068C068C068B0FB39
:10163000F1F5954200DD1546134F78680068806922
:1016400000B30020ADF80000ADF80400ADF80200D2
:101650002CB2601E06B2ADF8066078686946006874
:1016600082699047684606F09DFCA84202DD341E60
:10167000EFDC01E0002C02DC0020BDE8FC81BDF9BC
:1016800006506D1C2846F8E74C010020136821B174
:101690005B1E13600BD4806805E05B1C13608068E0
:1016A00041688B4203DA006850F82300704700203D
:1016B00070472DE9FF4F83B0064698468B46059844
:1016C000F5F785F901218140B6F820A001F0FF0966
:1016D0006FEA0A0080B2019096F822004FF0FF37BF
:1016E000C0F3800500241BE0F16801EBC4004268F0
:1016F000920141D59DB9042202EBC402895801F43C
:101700007F0159450BD10068817911EA090F06D094
:101710006A46059915F0BAFE00B1012098BB641C19
:10172000708CC0F3C500A042DED825E0F06804222A
:1017300002EBC40200EBC401805800F47F0285B2C2
:101740005A4518D10868817911EA090F13D0019917
:101750000D4210D1BD420EDD6A46059915F096FE88
:1017600000B1012038B155450DD0AF4203DA0099E0
:101770002F46C8F80010641C708CC0F3C500A0424E
:10178000D4D8002F06DB00990120C8F8001007B05C
:10179000BDE8F08F0020FAE72DE9F047814642F3DB
:1017A0000006C0F15A001D460F46540800B2761CD0
:1017B00017F0C0FAA7EB040800FB08F0C711484671
:1017C00017F0B8FA00FB08F0C011002F06DD7F3FCC
:1017D00039120A1B32442A80214405E07F3739122E
:1017E0000A1B21442A80891BA980002806DD7F3836
:1017F0000012011B31446980204405E07F30001253
:10180000011B20446980801BE880BDE8F087000050
:10181000024A0021928812F0E3B90000780100200A
:10182000034A10B50021D28912F0DAF9C0B210BD16
:1018300078010020034A10B50021128A12F0D0F975
:10184000C0B210BD7801002010B50448F1F712FDB8
:10185000042801D0012010BD002010BDE8060020A2
:101860002DE9F04104460020678C0D460426C7F39D
:10187000C503E2680AE006EBC00151585FEA811C2B
:1018800003D521F07F41A94202D0401C8342F2D807
:10189000834203D002EBC000BDE8F0814FF08060CE
:1018A00000EB77204FEAF0506084C0F3C500C10020
:1018B00010460FF0A9FBE060608CC0F3C500401E2D
:1018C0000DD06FF00703E16803EBC00601EBC00227
:1018D0003144401ED1E90061C2E90061F3D1082121
:1018E000E0680FF093FC08200FF0C2FAE16808608E
:1018F00015F0FDFDE168486840F000704860E1685F
:1019000065F317004860E068C6E72DE9F0474FF03F
:1019100000090F46804640244E464D461FE0B4F570
:10192000187F22D2E00600D1A41C08EB040005F0C9
:101930002EF809F10109A41C36B9A0F55841B1F5FA
:10194000006F01D206460AE07919C5F1FF0240EAAC
:1019500006401A3119F0C0FF38B10544002698F846
:1019600023104945DBD81EB901E00025FBE715B976
:101970003F20B8760125791900208876787398F889
:1019800004003873C00602D50020014603E008F1C8
:10199000380004F0D1FFC7E9000108F10C0004F0A1
:1019A000F6FF788108F10E0004F0F1FF3881BDE800
:1019B000F087000038B50C480D46144690F820001A
:1019C0004FF00201C0074FF0120002D013F04CFF9D
:1019D00001E013F061FF2246294608F0D7FA009093
:1019E000BDF8000038BD0000BCA000202DE9F04784
:1019F0004FF0000CDDE90964089DDDF82CA0E146FC
:101A00006F1EF9B9052A03D0062A01D0042A03D192
:101A10000023012D00D10122002106E036F81180BB
:101A20009C44C4440FFA8CFC491CA942F6D3ACEB8D
:101A3000030109B2072A2AD2DFE802F004070B29C2
:101A400021160D00A4F8009021E0411A01EBD1719C
:101A500012E0411A11E0411A09B23AB291FBF2F1D7
:101A6000A4F800900BB212E0411A09B22AB291FB1D
:101A7000F2F10BB203EBD3714910218007E0411A58
:101A80000AB2691C09B292FBF1F10BB2238000216A
:101A90000AE034F8112036F811C0624404EB410C1E
:101AA0001A44ACF80220491CB942F2D304EB4501B8
:101AB00006EB450231F8021C32F8022C1144228850
:101AC000891A0BB2BAF1000F0CD0002108E034F8EB
:101AD000112036F81170821AD21B24F81120491CEB
:101AE000A942F4D31846BDE8F08770B58AB0054620
:101AF000FFF75AFA04462846FFF78AFE002C5FD00B
:101B000000285DD069462846F6F7B0F80C2107A8F2
:101B10000FF07CFB2846002141F2320212F060F8FF
:101B200004462846002141F6120212F059F806191F
:101B30002846002141F6100212F052F804442846CB
:101B400011F061FBA98A3144081AADF82400284637
:101B500011F060FBE98A2144081AADF82600002440
:101B600007E0006807AA694650F8240001F0E2FB8C
:101B7000641CA8684168A142F3D800980FF0F0F9FE
:101B800001980FF0EDF902980FF0EAF903980FF0C1
:101B9000E7F90021284612F0FEF804460021284605
:101BA00011F014FF42F2D1718C4201D0884202D16F
:101BB000284612F0B0FE00222B2128460BF024FB11
:101BC0000AB070BD2DE9F043394887B0816941F012
:101BD00080018161816901F080010691816941F094
:101BE000800181618069012500F0800006904FF43A
:101BF00000680326CDE90085DFF8B890CDE90256EC
