:020000040800F2
:10000000C072072489030008452D0008412D00080F
:10001000B51E0090310600083532000800000000CF
:100020000000000000000000000000001D00009023
:100030003506000800000000790000902931000812
:10004000A3030008A3030008A3030008A3030008F8
:10005000A3030008A3030008A3030008A3030008E8
:10006000A3030008A3030008A3030008A3030008D8
:10007000A3030008A3030008A3030008A3030008C8
:10008000A3030008A3030008A3030008A3030008B8
:10009000A3030008A3030008A3030008A3030008A8
:1000A000A3030008A3030008A3030008A303000898
:1000B000A3030008A3030008A3030008A303000888
:1000C000A3030008A3030008A3030008A303000878
:1000D000A3030008E5310008A3030008A3030008F8
:1000E000A3030008A303000800000000A303000806
:1000F000A3030008A3030008A3030008A303000848
:10010000A3030008A3030008A3030008A303000837
:10011000A3030008A3030008551F0090A3030008D1
:10012000A3030008A3030008A3030008A303000817
:10013000A3030008A3030008A3030008A303000807
:1001400000000000000000000000000000000000AF
:10015000A3030008A3030008A3030008A3030008E7
:10016000A3030008A3030008A3030008A3030008D7
:10017000A3030008A3030008A3030008A3030008C7
:10018000A3030008A3030008A3030008A3030008B7
:10019000A3030008A3030008A3030008A3030008A7
:1001A000A3030008A3030008A3030008A303000897
:1001B000A3030008A3030008A3030008A303000887
:1001C000A3030008A3030008A3030008A303000877
:1001D000A3030008A3030008A3030008A303000867
:1001E000A3030008A3030008A3030008A303000857
:1001F000A3030008A3030008A3030008A303000847
:10020000A3030008A3030008A3030008A303000836
:10021000A3030008A3030008A3030008A303000826
:10022000A3030008A3030008A303000800000000C4
:10023000A3030008A303000800000000A3030008B4
:10024000A3030008A3030008A3030008A3030008F6
:10025000A3030008A3030008A3030008A3030008E6
:10026000A3030008A3030008A3030008A3030008D6
:10027000A3030008A3030008A30300080000000074
:10028000A3030008A3030008A30300080000000064
:1002900000000000A303000800F002F800F064F87A
:1002A0000AA090E8000C82448344AAF10107DA45D1
:1002B00001D100F059F8AFF2090EBAE80F0013F0BF
:1002C000010F18BFFB1A43F001031847DC4300007D
:1002D000FC4300000A444FF0000C10F8013B13F0FF
:1002E000070408BF10F8014B1D1108BF10F8015B8F
:1002F000641E05D010F8016B641E01F8016BF9D182
:1003000013F0080F1EBF10F8014BAD1C0C1B09D1D8
:100310006D1E58BF01F801CBFAD505E014F8016B4A
:1003200001F8016B6D1EF9D59142D6D370470000DC
:100330000023002400250026103A28BF78C1FBD8EE
:10034000520728BF30C148BF0B6070471FB504F08B
:100350009DF900F0B5F804000020002104F080F9B8
:10036000E0601FBD10B510BD00F0B2F81146FFF7F8
:10037000EDFF02F0D9FF00F0D0F803B4FFF7F2FF71
:1003800003BC02F075FF0000094880470948004798
:10039000FEE7FEE7FEE7FEE7FEE7FEE7FEE7FEE735
:1003A000FEE7FEE704480549054A064B7047000092
:1003B0003D31000899020008C0680724C072072474
:1003C000C06A0724C06A0724704753EA020C00F091
:1003D00069802DE9F04B4FF00006002B1FBFB3FAE8
:1003E00083F503FA05F424FA05F65E4012BF1643BE
:1003F000B2FA82F502FA05F4C5F120051EBF22FA11
:1004000005FC44EA0C04203556EA044C4FEA144437
:1004100018BF641C4FF000084FF00009904271EBC8
:10042000030C39D3002919BFB1FA81F701FA07F695
:10043000B0FA80F700FA07F6C7F120071EBF20FACE
:1004400007FC46EA0C062037B6FBF4FCA7EB0507D1
:10045000103F07F01F0BCBF120060CFA0BFB2CFA18
:1004600006F644BFB3460026202FA4BF5E464FF0D9
:10047000000B5BEA060C08BF4FF0010B19EB0B09F0
:10048000ABFB027C48EB0608C01B06FB02CC0BFB57
:1004900003CC71EB0C01C1E70B46024641464846CE
:1004A000BDE8F08B13B54FF000004FF00001AFF343
:1004B0000080BDE81C407047704770477047704728
:1004C000004870477C680724004870475C68072430
:1004D0007546FFF7F9FFAE4605006946534620F022
:1004E0000700854618B020B5FFF75CFFBDE8204047
:1004F0004FF000064FF000074FF000084FF0000BE0
:1005000021F00701AC46ACE8C009ACE8C009ACE892
:10051000C009ACE8C0098D46704710B50446AFF37A
:1005200000802046BDE81040FFF727BF46F6C15CBB
:10053000C9F2030C604741F6F12CC9F2000C604788
:1005400041F6DF2CC9F2000C604741F6755CC9F238
:10055000000C604749F29D3CC9F2010C60474FF620
:10056000F57CC9F2020C604748F6450CC9F2010C53
:10057000604745F6617CC9F2010C604740F2A52C4A
:10058000C9F2030C60474FF6BD0CC9F2020C60477C
:1005900046F2177CC9F2030C604746F25F7CC9F251
:1005A000030C604746F2AD7CC9F2030C604746F687
:1005B0004D0CC9F2030C604746F6D10CC9F2030C8E
:1005C000604740F2415CC9F2000C604740F2E10C28
:1005D000C9F2000C604746F2597CC9F2030C60472F
:1005E00041F2E10CC9F2030C604746F23F7CC9F2CC
:1005F000030C604741F6FD4CC9F2000C604746F21F
:10060000937CC9F2030C604747F2051CC9F2030C46
:10061000604746F6594CC9F2030C604740F6856CBA
:10062000C9F2030C604740F2A15CC9F2000C6047BC
:1006300000BFFEE77047000070B504460CB901200A
:1006400070BD94F83500022803D080206065012039
:10065000F6E7DC492068884249D0DA491831206839
:10066000884244D0D7493031206888423FD0D549AC
:100670004831206888423AD0D249603120688842A7
:1006800035D0D04978312068884230D0CD4990317A
:10069000206888422BD0CB49A8312068884226D0D8
:1006A000C9492068884222D0C74918312068884249
:1006B0001DD0C54930312068884218D0C249483120
:1006C0002068884213D0C0496031206888420ED02B
:1006D000BD4978312068884209D0BB4990312068F3
:1006E000884204D0B849A8312068884201D101204D
:1006F00000E00020F0B3042084F83500B149206800
:1007000088424BD0AF4918312068884246D0AD4965
:1007100030312068884241D0AA4948312068884257
:100720003CD0A84960312068884237D0A54978314B
:100730002068884232D0A3499031206888422DD069
:10074000A049A8312068884228D09F492068884263
:1007500024D09D491831206888421FD09A493031F1
:10076000206888421AD0984948312068884215D0BC
:10077000954900E020E06031206888420ED092491F
:1007800078312068884209D08F49903120688842AA
:1007900004D08D49A8312068884206D120680068BD
:1007A00020F001002168086009E12068006820F05D
:1007B00001002168086002E12068006820F00E0056
:1007C000216808607F492068884249D07D491831F6
:1007D0002068884244D07B493031206888423FD02D
:1007E00078494831206888423AD07649603120689B
:1007F000884235D0734978312068884230D07149B9
:100800009031206888422BD06E49A83120688842F8
:1008100026D06D492068884222D06B491831206863
:1008200088421DD0684930312068884218D0664916
:1008300048312068884213D063496031206888427B
:100840000ED0614978312068884209D05E499031E4
:100850002068884204D05C49A8312068884206D1CB
:100860002068006820F001002168086005E0206829
:10087000006820F001002168086052492068884221
:1008800070D050491831206888426BD04D493031C2
:100890002068884266D04B4948312068884261D040
:1008A00048496031206888425CD0464978312068E8
:1008B000884257D0434990312068884252D04149FC
:1008C000A831206888424DD03F492068884249D0ED
:1008D0003D4918312068884244D03B493031206876
:1008E00088423FD038494831206888423AD036495A
:1008F00060312068884235D0334978312068884299
:1009000030D031499031206888422BD02E49A8310F
:100910002068884226D02D492068884222D02B4961
:100920001431206888421DD0284928312068884227
:1009300018D026493C312068884213D023495031D1
:10094000206888420ED0214964312068884209D04D
:100950001E4978312068884204D01C498C312068B7
:10096000884201D1012000E00020D8B1206E00684B
:1009700020F48070216E0860A56D94F85C0000F092
:100980001F01012088406860D4E919104860E06EBA
:1009900040B1E06E006820F48070E16E0860D4E938
:1009A0001C10486000BF002084F8340000BF012004
:1009B00084F83500206D10B12046216D8847002055
:1009C0003EE60000100002401004024008540258A5
:1009D0000348006840F001000149086070470000CA
:1009E00020040058F8B502460023734DDEE00127CD
:1009F0009F400E6806EA0704002C71D04E68022E54
:100A000002D04E68122E13D1DF0802F1200656F8EC
:100A100027005E07F70E0F26BE40B0435F07FF0EAC
:100A20000E69BE403043DF0802F1200646F8270079
:100A300010685F000326BE40B0430E7906F003063F
:100A40005F00BE40304310604E68012E08D04E68F3
:100A5000022E05D04E68112E02D04E68122E13D1F0
:100A600090685F000326BE40B0435F00CE68BE4082
:100A700030439060506801269E40B0430E79C6F323
:100A800000169E4030435060D0685F000326BE4091
:100A9000B0435F008E68BE403043D0604E6806F0C1
:100AA0008056B6F1805F1BD100BF444E366846F0D9
:100AB0000206424F3E603E46366806F00206009649
:100AC00000BF00BF3E4E9F0856F827009E07370F15
:100AD0000F26BE40B0433B4EB24202D100262EE06C
:100AE00063E0394EB24201D1012628E0374EB242CE
:100AF00001D1022623E0364EB24201D103261EE088
:100B0000344EB24201D1042619E0334EB24201D133
:100B1000052614E0314EB24201D106260FE0304ED8
:100B2000B24201D107260AE02E4EB24201D1082678
:100B300005E02D4EB24201D1092600E00A269F07AA
:100B40003F0FBE4030431E4E9F0846F827002868DE
:100B5000A0434E6806F48036B6F5803F00D12043AE
:100B600028606868A0434E6806F40036B6F5003F7A
:100B700000D1204368604FF0B0463068A0434E6813
:100B800006F48016B6F5801F00D120434FF0B04622
:100B900030607068A0434E6806F40016B6F5001F7A
:100BA00000D120434FF0B04670605B1C0E68DE4001
:100BB000002E7FF41CAFF8BD80000058F4440258AA
:100BC00008040058000002580004025800080258A7
:100BD000000C025800100258001402580018025865
:100BE000001C0258002002580024025802461369D3
:100BF0000B400BB1012000E00020704742690A4021
:100C00008A4202D10A04826100E0816170470AB120
:100C1000816101E00B0483617047000001480068B6
:100C2000000C70470010005C01480068704700002D
:100C3000200000240348006803490978084401495A
:100C400008607047200000242800002410B503200D
:100C500000F00AF901F0CCFA10490968C1F3032148
:100C60000F4A515C01F01F01C8400E4908600B4853
:100C7000006800F00F001146085C00F01F010948F1
:100C80000068C840084908600F2000F00FF808B15C
:100C9000012010BD00F09AF80020FAE7184402582D
:100CA00096460008000000240400002470B50446A5
:100CB0001148007808B9012070BD0F4800784FF442
:100CC0007A71B1FBF0F00D490968B1FBF0F52846E7
:100CD00001F078FF08B10120EEE7102C07D20022C6
:100CE0002146501E00F083F80548046001E0012011
:100CF000E2E70020E0E700002800002400000024D4
:100D0000240000244178154A11600178F9B1121DC0
:100D100041681160017B0907C27A41EA0261827A67
:100D200041EAC241427B41EA8241827B41EA42413F
:100D3000C27B41EA0241427A41EA0221027A41EA57
:100D4000420102781143054A0832116005E0002192
:100D5000024A121D1160121D1160704798ED00E0EB
:100D600000BF00BF00BFBFF35F8F00BF00BF00BF69
:100D70000548006820F480300349086000200249DB
:100D8000703108607047000024ED00E040F0010180
:100D90000D4A11600C497039096841F480310A4AE2
:100DA000703A116000BF00BF00BFBFF34F8F00BF9C
:100DB00000BF00BF00BF00BF00BFBFF36F8F00BF09
:100DC00000BF00BF7047000094ED00E0704701468F
:100DD0000846002809DB00F01F0301229A4043095E
:100DE0009B0003F1E023C3F8002100BF70472DE909
:100DF000F05F80460D46164602F01EFA0746394659
:100E00002A46334601F00700C0F1070ABAF1040F81
:100E100002D94FF0040A01E0C0F1070AD14600F1FF
:100E2000040ABAF1070F02D24FF0000A01E0A0F164
:100E3000030AD4464FF0010A0AFA09FAAAF1010A94
:100E40000AEA020A0AFA0CFA4FF0010B0BFA0CFB41
:100E5000ABF1010B0BEA030B4AEA0B0421464046B7
:100E600002F0F2F9BDE8F09F00BF00F00702064B68
:100E700019684FF6FF031940044B0B4343EA022164
:100E8000014B196000BF70470CED00E00000FA054F
:100E90000348006840F08070014908607047000016
:100EA0000C48025810B501F0A3F907490968C1F3CD
:100EB0000321064A515C01F01F01C8400449086043
:100EC0000846006810BD0000184402589646000805
:100ED0000000002410B501F04FF905490968C1F37D
:100EE0000211044A515C01F01F01C84010BD00000E
:100EF000204402589646000870B50146844D2D687E
:100F000005F00303824D2D68C5F30530804D2D1D7E
:100F10002D68C5F300147E4D14352D68C5F3CC053E
:100F200015FB04F501EE105AB8EE411AF0EE410A35
:100F300000286FD023B1012B4ED0022B6BD16BE078
:100F4000734D283D2D68C5F340153DB3704D283DC8
:100F50002D68C5F3C1066F4D25FA06F201EE102A81
:100F6000F8EE411A01EE100AB8EE411A81EE812A1C
:100F70009FED691AC0EE811A654D10352D68C5F3D5
:100F8000080501EE105AB8EE411A31EE811AF7EE5B
:100F9000001A31EE211A22EE010A1CE001EE100ABD
:100FA000B8EE411ADFED5D1A81EE812A9FED5A1AE3
:100FB000C0EE811A564D10352D68C5F3080501EEB7
:100FC000105AB8EE411A31EE811AF7EE001A31EEDE
:100FD000211A22EE010A5BE001EE100AB8EE411A76
:100FE000DFED4F1A81EE812A9FED4B1AC0EE811A78
:100FF000474D10352D68C5F3080501EE105AB8EEBF
:10100000411A31EE811AF7EE001A31EE211A22EE62
:10101000010A3DE077E01DE001EE100AB8EE411A4A
:101020009FED402AC2EE011A9FED3B1A80EE812A05
:10103000374D10352D68C5F3080501EE105AB8EE8E
:10104000411A32EE011AB7EE002A31EE021A21EEF1
:10105000810A1DE001EE100AB8EE411ADFED301AE8
:1010600081EE812A9FED2C1AC0EE811A284D103591
:101070002D68C5F3080501EE105AB8EE411A31EE9D
:10108000811AF7EE001A31EE211A22EE010A00BF92
:1010900000BF1F4D10352D68C5F3462501EE105ACF
:1010A000B8EE411AF7EE001A31EE211AC0EE011A1D
:1010B000BCEEE11A81ED001A154D10352D68C5F30F
:1010C000064501EE105AB8EE411AF7EE001A31EE5D
:1010D000211AC0EE011ABCEEE11A81ED011A0C4D85
:1010E00010352D68C5F3066501EE105AB8EE411AA9
:1010F000F7EE001A31EE211AC0EE011ABCEEE11A29
:1011000081ED021A03E000250D604D608D6070BD19
:10111000284402580090D003000000460024744C7C
:101120000024744A0024F44A70B50146844D2D68A9
:1011300005F00303824D2D68C5F30550804D2D1D2C
:101140002D68C5F300247E4D1C352D68C5F3CC05F4
:1011500015FB04F501EE105AB8EE411AF0EE410A03
:1011600000286FD023B1012B4ED0022B6BD16BE046
:10117000734D283D2D68C5F340153DB3704D283D96
:101180002D68C5F3C1066F4D25FA06F201EE102A4F
:10119000F8EE411A01EE100AB8EE411A81EE812AEA
:1011A0009FED691AC0EE811A654D18352D68C5F39B
:1011B000080501EE105AB8EE411A31EE811AF7EE29
:1011C000001A31EE211A22EE010A1CE001EE100A8B
:1011D000B8EE411ADFED5D1A81EE812A9FED5A1AB1
:1011E000C0EE811A564D18352D68C5F3080501EE7D
:1011F000105AB8EE411A31EE811AF7EE001A31EEAC
:10120000211A22EE010A5BE001EE100AB8EE411A43
:10121000DFED4F1A81EE812A9FED4B1AC0EE811A45
:10122000474D18352D68C5F3080501EE105AB8EE84
:10123000411A31EE811AF7EE001A31EE211A22EE30
:10124000010A3DE077E01DE001EE100AB8EE411A18
:101250009FED402AC2EE011A9FED3B1A80EE812AD3
:10126000374D18352D68C5F3080501EE105AB8EE54
:10127000411A32EE011AB7EE002A31EE021A21EEBF
:10128000810A1DE001EE100AB8EE411ADFED301AB6
:1012900081EE812A9FED2C1AC0EE811A284D183557
:1012A0002D68C5F3080501EE105AB8EE411A31EE6B
:1012B000811AF7EE001A31EE211A22EE010A00BF60
:1012C00000BF1F4D18352D68C5F3462501EE105A95
:1012D000B8EE411AF7EE001A31EE211AC0EE011AEB
:1012E000BCEEE11A81ED001A154D18352D68C5F3D5
:1012F000064501EE105AB8EE411AF7EE001A31EE2B
:10130000211AC0EE011ABCEEE11A81ED011A0C4D52
:1013100018352D68C5F3066501EE105AB8EE411A6E
:10132000F7EE001A31EE211AC0EE011ABCEEE11AF6
:1013300081ED021A03E000250D604D608D6070BDE7
:10134000284402580090D003000000460024744C4A
:101350000024744A0024F44A2DE9F0410446002593
:10136000A846206800F00060B0F1006F30D1606ED8
:1013700048B1B0F5801F0DD0B0F5001F10D0B0F50A
:10138000401F15D113E0F948006840F40030F749D8
:1013900008600FE00221201D01F0D6FC054609E09F
:1013A000022104F1240001F081FD054602E001E084
:1013B000012500BF00BF55B9EC482430006820F477
:1013C0004010616E0843E9492431086000E0A846F6
:1013D000208800F48070B0F5807F2DD1606D0528E5
:1013E0001AD2DFE800F0030A10171800DF4800687F
:1013F00040F40030DD49086010E00021201D01F0BC
:10140000A3FC05460AE0002104F1240001F04EFD92
:10141000054603E002E001E0012500BF00BF55B929
:10142000D2482430006820F00700616D0843CF499E
:101430002431086000E0A846208800F40070B0F570
:10144000007F33D1A06D802817D003DC40B1402845
:101450001CD10CE0C02817D0B0F5807F16D114E065
:10146000C248006840F40030C049086010E0002124
:10147000201D01F069FC05460AE0002104F124006A
:1014800001F014FD054603E002E001E0012500BF84
:1014900000BF55B9B5482430006820F4E070A16D54
:1014A0000843B2492431086000E0A846208800F4CF
:1014B0008060B0F5806F38D1D4F8A400B0F5800F0B
:1014C00019D004DC50B1B0F5001F1DD10DE0B0F50E
:1014D000C00F17D0B0F5000F16D114E0A348006874
:1014E00040F40030A149086010E00021201D01F007
:1014F0002BFC05460AE0002104F1240001F0D6FC93
:10150000054603E002E001E0012500BF00BF5DB930
:1015100096482C30006820F46000D4F8A4100843EA
:1015200092492C31086000E0A846208800F4006051
:10153000B0F5006F38D1D4F8A800B0F1007F19D011
:1015400004DC50B1B0F1807F1DD10DE0B0F1407FDF
:1015500017D0B0F1806F16D114E08448006840F4D1
:1015600000308249086010E00021201D01F0ECFBF2
:1015700005460AE0002104F1240001F097FC05462D
:1015800003E002E001E0012500BF00BF5DB977483C
:101590002C30006820F0E060D4F8A81008437349AC
:1015A0002C31086000E0A846206800F00070B0F11F
:1015B000007F27D1A06CA0B1102804D0202809D02A
:1015C00030280FD10CE06948006840F400306749CA
:1015D000086009E00221201D01F0B6FB054603E08A
:1015E00002E001E0012500BF00BF55B95F4820308F
:1015F000006820F03000A16C08435C49203108608D
:1016000000E0A846208800F48050B0F5805F36D115
:10161000E06DB0F5005F19D004DC50B1B0F5805F2B
:101620001DD10DE0B0F5405F17D0B0F5804F16D159
:1016300014E04E48006840F400304C49086010E067
:101640000021201D01F080FB05460AE0002104F185
:10165000240001F02BFC054603E002E001E0012537
:1016600000BF00BF55B941482430006820F4E04075
:10167000E16D08433D492431086000E0A846208818
:1016800000F40050B0F5005F34D1206EB0F5403F5B
:101690001DD007DC68B1B0F5803F0BD0B0F5003F3E
:1016A00018D10DE0B0F5802F12D0B0F5A02F11D1D8
:1016B0000FE011E00121201D01F046FB05460BE083
:1016C000012104F1240001F0F1FB054604E003E0F0
:1016D00002E001E0012500BF00BF55B923482430D6
:1016E000006820F4E020216E08432049243108607E
:1016F00000E0A846208800F48040B0F5804F38D143
:10170000D4F8AC00B0F1405F1DD007DC68B1B0F197
:10171000805F0BD0B0F1005F18D10DE0B0F1804FC9
:1017200012D0B0F1A04F11D10FE011E00121201D26
:1017300001F00AFB05460BE0012104F1240001F051
:10174000B5FB054604E003E002E001E0012500BF2F
:1017500000BF6DB905482C30006820F0E040D4F897
:10176000AC10084301492C31086002E02C440258B7
:10177000A846208800F40040B0F5004F26D1E06E66
:1017800098B1B0F1805F03D0B0F1005F0ED106E0F8
:10179000F948006840F40030F749086008E001218A
:1017A000201D01F0D1FA054602E001E0012500BF4D
:1017B00000BF55B9F0482430006820F04050E16E79
:1017C0000843ED492431086000E0A846206800F095
:1017D0008070B0F1807F27D1606CA0B1012804D067
:1017E000022809D003280FD10CE0E348006840F438
:1017F0000030E149086009E00221201D01F0A4FA4F
:10180000054603E002E001E0012500BF00BF55B935
:10181000D9482030006820F00300616C0843D649A5
:101820002031086000E0A846206800F48000B0F590
:10183000800F7DD1D148006840F48070CF490860A6
:10184000FFF7F2F9064606E0FFF7EEF9801B642881
:1018500001D9032505E0C948006800F4807000281C
:10186000F2D000BF85BBC4484430006800F440702B
:10187000B4F8B01001F44071884213D0BE4844302F
:10188000006820F44077BC484430006840F4803061
:10189000B949443108600846006820F48030086087
:1018A00008460760D4F8B000B0F5807F15D1FFF787
:1018B000BBF9064609E0FFF7B7F9801B41F2883112
:1018C000884202D9032507E038E0AB48443000687D
:1018D000C0F340000028EED000BF55BB00BFB4F8F5
:1018E000B00000F44070B0F5407F0ED1A2481C3823
:1018F000006820F47C51A24AD4F8B000104041EABC
:1019000010109D491C39086007E09B481C3800688E
:1019100020F47C5098491C3908609748443000688E
:10192000B4F8B010C1F30B0108439349443101E00E
:1019300005E001E0086002E0A84600E0A846207843
:1019400000F0010068B3A06F182819D005DC48B179
:10195000082808D0102816D10BE0202811D02828FC
:1019600011D10FE011E00121201D01F0EDF9054634
:101970000BE0012104F1240001F098FA054604E08F
:1019800003E002E001E0012500BF00BF55B97A483D
:101990002830006820F03800A16F084376492831CC
:1019A000086000E0A846207800F00200022828D154
:1019B000606F062815D2DFE800F003040A11121345
:1019C00011E00121201D01F0BFF905460BE00121C6
:1019D00004F1240001F06AFA054604E003E002E0A5
:1019E00001E0012500BF00BF55B9634828300068F9
:1019F00020F00700616F08435F492831086000E06C
:101A0000A846207800F0040004282AD1D4F89000D9
:101A1000062815D2DFE800F003040A11121311E0C2
:101A20000121201D01F090F905460BE0012104F190
:101A3000240001F03BFA054604E003E002E001E087
:101A4000012500BF00BF5DB94B482C30006820F075
:101A50000700D4F89010084347492C31086000E093
:101A6000A846207800F02000202836D1D4F88C0039
:101A7000B0F1405F1DD007DC68B1B0F1805F0BD0E2
:101A8000B0F1005F18D10DE0B0F1804F12D0B0F18D
:101A9000A04F11D10FE011E00021201D01F054F9F9
:101AA00005460BE0022104F1240001F0FFF9054690
:101AB00004E003E002E001E0012500BF00BF5DB9E2
:101AC0002D482830006820F0E040D4F88C100843FE
:101AD00029492831086000E0A846207800F040003D
:101AE000402836D1D4F89800B0F5406F1DD007DCFF
:101AF00068B1B0F5806F0BD0B0F5006F18D10DE074
:101B0000B0F5805F12D0B0F5A05F11D10FE011E009
:101B10000021201D01F018F905460BE0022104F117
:101B2000240001F0C3F9054604E003E002E001E00F
:101B3000012500BF00BF5DB90F482C30006820F4BC
:101B4000E050D4F8981008430B492C31086000E0AD
:101B5000A846207800F0800080283AD1D4F89C0074
:101B6000B0F5C04F23D00DDC98B1B0F5005F11D0B7
:101B7000B0F5804F1ED113E02C44025800480258A3
:101B8000FFFCFF0FB0F5004F12D0B0F5204F11D180
:101B90000FE011E00021201D01F0D6F805460BE012
:101BA000022104F1240001F081F9054604E003E07C
:101BB00002E001E0012500BF00BF4DB9AD4800685B
:101BC00020F46040D4F89C100843AA49086000E063
:101BD000A846207800F00800082817D1D4F8800023
:101BE000B0F5805F07D1022104F1240001F05EF915
:101BF00008B14FF001089F48001F006820F44050D2
:101C0000D4F8801008439B49091F0860207800F031
:101C10001000102815D1D4F89400B0F5807F07D1BA
:101C2000022104F1240001F041F908B14FF001084C
:101C30009048006820F44070D4F8941008438D490F
:101C40000860206800F40020B0F5002F26D1D4F8F9
:101C5000A00030B1B0F5803F09D0B0F5003F0ED103
:101C60000CE00021201D01F06FF8054609E002217B
:101C700004F1240001F01AF9054602E001E0012513
:101C800000BF00BF4DB97B48006820F44030D4F855
:101C9000A01008437749086000E0A846206800F4D7
:101CA0008020B0F5802F2DD1D4F88400B0F5801FAE
:101CB00006D0B0F5001F0CD0B0F5401F11D10FE0D9
:101CC0006C482C38006840F400306A492C390860B0
:101CD00009E0012104F1240001F0E8F8054602E0E2
:101CE00001E0012500BF00BF5DB96248001F006828
:101CF00020F44010D4F8841008435E49091F08609E
:101D000000E0A846206800F48030B0F5803F24D180
:101D1000E06C18B1B0F5803F0FD108E055482C3881
:101D2000006840F4003053492C39086007E0022174
:101D3000201D01F009F8054601E0012500BF00BFA4
:101D400055B94C480C38006820F48030E16C0843E9
:101D500048490C39086000E0A846206800F00050AF
:101D6000B0F1005F07D1022104F1240001F09EF8D8
:101D700008B14FF00108206800F40030B0F5003FD2
:101D800027D1E06FA0B1B0F5807F06D0B0F5007F1D
:101D90000CD0B0F5407F0CD109E036482C380068F3
:101DA00040F4003033492C39086004E003E002E0DD
:101DB00001E0012500BF00BF55B92E48001F006893
:101DC00020F44070E16F08432A49091F086000E0D1
:101DD000A846206800F48010B0F5801F09D125487E
:101DE0000838006820F00040216F08432149083975
:101DF0000860206800F40010B0F5001F09D11D48EC
:101E00000838006820F08070A16E0843194908392D
:101E10000860206800F08040B0F1804F11D100BF11
:101E200014484838006820F40040124948390860D6
:101E300008460068D4F8B81008430E4948390860CD
:101E400000BF206800F00040B0F1004F09D1094800
:101E50000C38006820F04050216D084305490C39CA
:101E60000860B8F1000F02D10020BDE8F081012028
:101E7000FBE70000584402582DE9F04104460D46A6
:101E800014B90120BDE8F081B648006800F00F00E9
:101E9000A8420ED2B348006820F00F002843B14991
:101EA00008600846006800F00F00A84201D0012039
:101EB000E8E7207800F0040004280ED1AA49206940
:101EC000096801F07001884207D9A748006820F02E
:101ED000700021690843A4490860207800F00800D8
:101EE000082811D1A049091D6069096801F0700135
:101EF000884209D99C48001D006820F07000616983
:101F000008439949091D0860207800F01000102846
:101F100011D19549091DA069096801F4E061884261
:101F200009D99148001D006820F4E060A1690843C8
:101F30008D49091D0860207800F02000202811D16B
:101F400089490831E069096801F07001884209D9BE
:101F500085480830006820F07000E1690843824934
:101F600008310860207800F0020002280ED17E4976
:101F7000E068096801F00F01884207D97A480068D3
:101F800020F00F00E168084377490860207800F0EE
:101F90000100002850D07448006820F47060A168E7
:101FA0000843714908606068022807D16E481838F4
:101FB0000068C0F34040F8B9012063E76068032877
:101FC00007D1694818380068C0F34060A0B9012003
:101FD00058E76068012807D1634818380068C0F3E3
:101FE000002048B901204DE75F4818380068C0F369
:101FF000800008B9012045E75B480838006820F0F8
:10200000070061680843584908390860FEF70CFE6C
:10201000064608E0FEF708FE801B41F28831884240
:1020200001D903202EE750480838006800F0380036
:102030006168B0EBC10FEDD1207800F002000228FA
:102040000ED14949E068096801F00F01884207D2C2
:102050004548006820F00F00E168084342490860E5
:102060004048006800F00F00A8420ED93D480068C3
:1020700020F00F0028433B4908600846006800F044
:102080000F00A84201D00120FCE6207800F00400F7
:1020900004280ED134492069096801F07001884292
:1020A00007D23148006820F07000216908432E49AA
:1020B0000860207800F00800082811D12A49091D7D
:1020C0006069096801F07001884209D22648001D44
:1020D000006820F07000616908432349091D086009
:1020E000207800F01000102811D11F49091DA069A7
:1020F000096801F4E061884209D21B48001D0068AC
:1021000020F4E060A16908431749091D08602078A0
:1021100000F02000202811D113490831E069096836
:1021200001F07001884209D20F480830006820F0A1
:102130007000E16908430C490831086000F058F864
:1021400009490968C1F30321084A515C01F01F01E4
:10215000C8400749086007480068FEF7A7FD074622
:1021600038468FE600200052184402589646000870
:10217000000000242400002410B5FEF793FE074958
:10218000096801F00F01064A515C01F01F01C840C7
:10219000044908600846006810BD00001844025851
:1021A000964600080400002410B5FFF7E5FF054936
:1021B0000968C1F30211044A515C01F01F01C840D3
:1021C00010BD00001C4402589646000810B5FFF7E9
:1021D000D3FF05490968C1F30221044A515C01F0AB
:1021E0001F01C84010BD00001C440258964600085C
:1021F000F0B5824E366806F0380636B1082E15D096
:10220000102E15D0182E7DD114E07C4E103E36686D
:10221000C6F3401646B1794E103E3668C6F3C10784
:10222000774E26FA07F000E07548E5E07548E3E0F0
:102230007548E1E0714E1836366806F003046F4EBB
:1022400018363668C6F305116C4E1C36366806F033
:1022500001056A4E24363668C6F3CC0616FB05F631
:1022600001EE106AB8EE410A002971D024B1012CA8
:1022700050D0022C6DD16DE0604E103E3668C6F332
:1022800040163EB35D4E103E3668C6F3C1075C4E45
:1022900026FA07F301EE103AF8EE411A01EE101A91
:1022A000B8EE411A81EE812A9FED581AC0EE011A4C
:1022B000524E20363668C6F3080601EE106AB8EEB4
:1022C000411A31EE811AF7EE001A31EE211A62EE50
:1022D000010A1EE001EE101AB8EE411ADFED4C1AA9
:1022E00081EE812A9FED491AC0EE011A434E203635
:1022F0003668C6F3080601EE106AB8EE411A31EEF0
:10230000811A00E076E0F7EE001A31EE211A62EE53
:10231000010A5BE001EE101AB8EE411A9FED3D2A6A
:10232000C2EE011A9FED391A80EE012A334E203693
:102330003668C6F3080601EE106AB8EE411A32EEAE
:10234000011AB7EE002A31EE021A61EE810A3DE071
:102350004EE01DE001EE101AB8EE411ADFED2E1A24
:1023600081EE812A9FED291AC0EE011A234E2036F4
:102370003668C6F3080601EE106AB8EE411A31EE6F
:10238000811AF7EE001A31EE211A62EE010A1DE001
:1023900001EE101AB8EE411A9FED1E2AC2EE011A84
:1023A0009FED1A1A80EE012A144E20363668C6F3C5
:1023B000080601EE106AB8EE411A32EE011AB7EEC5
:1023C000002A31EE021A61EE810A00BF00BF0B4EF7
:1023D00020363668C6F34626721C01EE102AB8EE87
:1023E000411AC0EE811ABCEEE11A11EE100A00E0AB
:1023F000002001E0034800BF00BFF0BD10440258B8
:102400000090D00300093D0000127A000000004651
:102410000024744C0024744A0024F44A2DE9F04747
:10242000044614B90120BDE8F087207800F00100CF
:10243000002872D0F948006800F03808F7481830D2
:10244000D0F80090B8F1100F06D0B8F1180F0FD1E6
:1024500009F0030002280BD1F04810380068C0F3DF
:10246000404000286ED0606800286BD10120DAE778
:1024700000BF6068B0F5803F08D1E84810380068B8
:1024800040F48030E549103908602EE0606868B992
:10249000E2481038006820F48030E04910390860C4
:1024A0000846006820F4802008601EE06068B0F5EF
:1024B000A02F0DD1D9481038006840F48020D749AA
:1024C000103908600846006840F4803008600CE06D
:1024D000D2481038006820F48030D04910390860A4
:1024E0000846006820F48020086000BF6068A8B13A
:1024F000FEF79AFB054608E0FEF796FB401B41F20B
:102500008831884201D903208DE7C448103800681B
:10251000C0F340400028EFD014E014E0FEF784FB45
:10252000054608E0FEF780FB401B41F288318842F7
:1025300001D9032077E7B94810380068C0F340405C
:102540000028EFD100BF207800F0020002286BD1F4
:10255000B248006800F03808B0481830D0F8009051
:10256000B8F1000F05D0B8F1180F2BD109F0030016
:1025700040BBAA4810380068C0F3800018B1E0687A
:1025800008B901204FE700BFFEF748FB41F2030105
:1025900088420BD8A1480C38006820F47C302169AF
:1025A00040EA01309D490C3908600AE09B480C382C
:1025B000006820F0FE40217C40EA016097490C3918
:1025C000086058E0E06870B394481038006820F064
:1025D0001900E1680843914910390860FEF724FBAF
:1025E000054606E0FEF720FB401B022801D9032028
:1025F00019E78A4810380068C0F380000028F1D03D
:1026000000BFFEF70BFB41F2030188420DD883485F
:102610000C38006820F47C30216940EA01307F49A1
:102620000C3908600CE00CE026E07C480C380068AF
:1026300020F0FE40217C40EA016078490C390860B6
:1026400019E076481038006820F00100734910390D
:102650000860FEF7E9FA054606E0FEF7E5FA401BDA
:10266000022801D90320DEE66C4810380068C0F368
:1026700080000028F1D100BF207800F01000102861
:102680006ED16648006800F0380864481830D0F809
:102690000090B8F1080F06D0B8F1180F2FD109F04B
:1026A000030001282BD15D4810380068C0F30020DA
:1026B00020B1E069802801D00120B4E600BFFEF718
:1026C000ADFA41F2030188420CD854480C38006836
:1026D00020F0F84094F8201040EA81604F490C390E
:1026E00008600BE04D48001F006820F07C5094F813
:1026F000201040EA01604949091F086058E0E0697C
:1027000068B346481038006840F0800043491039EB
:102710000860FEF789FA054606E0FEF785FA401BD9
:10272000022801D903207EE63C4810380068C0F337
:1027300000200028F1D000BFFEF770FA41F203013B
:1027400088420ED835480C38006820F0F84094F8DC
:10275000201040EA816031490C3908600DE00DE03D
:1027600027E02E48001F006820F07C5094F82010CD
:1027700040EA01602949091F086019E0274810381C
:10278000006820F08000254910390860FEF74CFAF7
:10279000054606E0FEF748FA401B022801D903204F
:1027A00041E61E4810380068C0F300200028F1D12F
:1027B00000BF207800F00800082837D16069D0B148
:1027C00016486430006840F0010014496431086024
:1027D000FEF72AFA054606E0FEF726FA401B022815
:1027E00001D903201FE60D4864300068C0F34000A3
:1027F0000028F1D01AE009486430006820F0010098
:10280000064964310860FEF70FFA054608E0FEF756
:102810000BFA401B022803D9032004E61044025897
:10282000DC480068C0F340000028F0D1207800F0B8
:102830002000202836D1A069D0B1D648743800686D
:1028400040F48050D34974390860FEF7EDF905462D
:1028500006E0FEF7E9F9401B022801D90320E2E572
:10286000CC4874380068C0F340300028F1D019E03B
:10287000C8487438006820F48050C649743908602C
:10288000FEF7D2F9054606E0FEF7CEF9401B022816
:1028900001D90320C7E5BF4874380068C0F3403051
:1028A0000028F1D1207800F0040004287DD1BA4836
:1028B000006840F48070B8490860FEF7B5F9054635
:1028C00006E0FEF7B1F9401B642801D90320AAE510
:1028D000B148006800F480700028F2D000BFA06802
:1028E000012808D1AB48001F006840F00100A94949
:1028F000091F08602DE0A06868B9A648001F00689D
:1029000020F00100A349091F08600846006820F074
:10291000040008601DE0A06805280DD19D48001F37
:10292000006840F004009B49091F086008460068E1
:1029300040F0010008600CE09648001F006820F09D
:1029400001009449091F08600846006820F004004F
:10295000086000BFA068A0B1FEF766F9054608E070
:10296000FEF762F9401B41F28831884201D9032009
:1029700059E58848001F0068C0F340000028EFD0E8
:1029800013E0FEF751F9054608E0FEF74DF9401B4C
:1029900041F28831884201D9032044E57D48001F77
:1029A0000068C0F340000028EFD1606A00287DD0A5
:1029B00078486438006800F03800182877D0606ADA
:1029C000022875D173487438006820F0807071490E
:1029D00074390860FEF728F9054606E0FEF724F989
:1029E000401B022801D903201DE56A48743800689D
:1029F000C0F340600028F1D100BFD4E90A1041EAD9
:102A0000001064494C39096840F2F332914308439D
:102A100060494C390860208E401EC0F30800616B8D
:102A2000491E4FF47E4202EA41210843218F491E8C
:102A3000D20102EA014108433C21095D491E12020C
:102A400002EA0161084353494439086000BF081F86
:102A5000006820F00100091F08604E4840380068F7
:102A60004FF6F8718843A16C40EAC10049494039EA
:102A7000086048484838006820F00C00216C084382
:102A80004449483908600846006820F00200616C3B
:102A900008434049483908600846006840F48030DF
:102AA00008600846006840F4003002E06FE041E052
:102AB00025E008600846006840F480200860084669
:102AC000006840F00100086032487438006840F047
:102AD0008070304974390860FEF7A6F8054606E0B4
:102AE000FEF7A2F8401B022801D903209BE42948E5
:102AF00074380068C0F340600028F1D047E02548F2
:102B00007438006820F08070224974390860FEF73C
:102B10008BF8054606E0FEF787F8401B022801D92E
:102B2000032080E41B4874380068C0F3406000282C
:102B3000F1D12CE017484C3807681648443806682D
:102B4000606A012821D007F00301A06A81421CD1EC
:102B5000C7F30511E06A884217D1C6F30801206B5C
:102B6000401E814211D1606B401EC6F3462188424F
:102B70000BD1A06B401EC6F30641884205D1E06B25
:102B8000401EC6F30661884201D001204BE40020BC
:102B900049E400007444025800480258042808D14F
:102BA0004FF0E021096941F004014FF0E02211618A
:102BB00007E04FF0E021096921F004014FF0E02225
:102BC0001161704770B504462546681EB0F1807FDC
:102BD00001D301200FE0681E4FF0E02148610F2172
:102BE0004FF0FF3000F030FB00204FF0E021886113
:102BF00007200861002070BD10B586B004462B493F
:102C00002068884250D100BF00BF2948006840F0CA
:102C10001000274908600846006800F01000009086
:102C200000BF00BF00BF00BF00BF214810380068D0
:102C300040F001001E49103908600846006800F0A5
:102C40000100009000BF00BF00BF00BF00BF0846EA
:102C5000006840F0010008600846006800F00100CC
:102C6000009000BF00BF00BF4FF400700190022031
:102C7000029001200390022004900720059001A9F2
:102C80000C48FDF7AFFE4FF48060019007200590DF
:102C900001A90848FDF7A6FE2520FEF798F80322B3
:102CA00011462520FEF7A3F806B010BD0010014024
:102CB000F0440258000002581D4A0168914236D182
:102CC0001C49098801F4004189BB1A49098801F4AB
:102CD000804171B1184909780A2903D00021154AA9
:102CE000118024E01349098841F40041114A118000
:102CF0001DE0114909780D2906D10E49098841F4D2
:102D000080410C4A118012E00B490978094A128867
:102D1000C2F30D02094B995406490988491C054A1A
:102D2000118011460988C72901DD002111807047F3
:102D3000001001401C0000241E0000243803002461
:102D400000BFFEE7704700002DE9F04104460E4643
:102D500000275548006800F00300032802D1012035
:102D6000BDE8F08150482838006820F080604E4966
:102D700028390860FDF758FF054606E0FDF754FFC7
:102D8000401B022801D90320EAE747482838006899
:102D9000C0F3C0600028F1D100BF4348006820F4B0
:102DA0007C30216840EA01303F490860A088401E1D
:102DB000C0F30800A168491E4FF47E4202EA412197
:102DC0000843A189491ED20102EA01410843217C3E
:102DD000491E120202EA01610843334910310860BA
:102DE00000BF3148001D006820F0C0006169084341
:102DF0002D49091D08600846006820F02000A169DF
:102E000008432949091D08600846006820F01000A1
:102E100008602548143000684FF6F8718843E1696E
:102E200040EAC1002049143108601F48001D0068B5
:102E300040F010001C49091D08602EB908460068C2
:102E400040F40020086012E0012E08D11648001D51
:102E5000006840F480101449091D086007E012481A
:102E6000001D006840F400100F49091D08600E485D
:102E70002838006840F080600B4928390860FDF769
:102E8000D3FE054606E0FDF7CFFE401B022801D920
:102E9000032065E7044828380068C0F3C0600028B4
:102EA000F1D038465CE70000284402582DE9F04193
:102EB00004460E4600275548006800F0030003282A
:102EC00002D10120BDE8F08150482838006820F088
:102ED00080504E4928390860FDF7A6FE054606E0F9
:102EE000FDF7A2FE401B022801D90320EAE747486C
:102EF00028380068C0F340700028F1D100BF434873
:102F0000006820F07C70218840EA01503F49086049
:102F1000A088401EC0F30800A168491E4FF47E42FD
:102F200002EA41210843A189491ED20102EA014176
:102F30000843217C491E120202EA01610843334919
:102F40001831086000BF3148001D006820F440605F
:102F5000616908432D49091D08600846006820F48E
:102F60000070A16908432949091D086008460068E6
:102F700020F48070086025481C3000684FF6F87116
:102F80008843E16940EAC10020491C3108601F48BC
:102F9000001D006840F480701C49091D08602EB9AE
:102FA0000846006840F48000086012E0012E08D155
:102FB0001648001D006840F400001449091D08600F
:102FC00007E01248001D006840F080700F49091D9D
:102FD00008600E482838006840F080500B492839B6
:102FE0000860FDF721FE054606E0FDF71DFE401BCB
:102FF000022801D9032065E7044828380068C0F397
:1030000040700028F1D038465CE7000028440258A0
:1030100010B50023234C236000BF00BF00BFBFF3E7
:103020004F8F00BF00BF00BF231F1868C0F34E3191
:1030300000BFC0F3C90200BF43F6E07303EA4113C7
:103040004FF0404404EA82742343174C236000BFCE
:1030500000BF131EA2F10102EED10B1EA1F101016E
:10306000E7D100BF00BF00BFBFF34F8F00BF00BF5D
:1030700000BF0C4B703B1B6843F48033094C703C21
:10308000236000BF00BF00BFBFF34F8F00BF00BF72
:1030900000BF00BF00BF00BFBFF36F8F00BF00BF06
:1030A00000BF10BD84ED00E060EF00E000BF00BF96
:1030B00000BFBFF34F8F00BF00BF00BF00BF00BF06
:1030C00000BFBFF36F8F00BF00BF00BF00201449D7
:1030D000086000BF00BF00BFBFF34F8F00BF00BF3D
:1030E00000BF00BF00BF00BFBFF36F8F00BF00BFB6
:1030F00000BF0C48006840F400300A49086000BF77
:1031000000BF00BFBFF34F8F00BF00BF00BF00BFB5
:1031100000BF00BFBFF36F8F00BF00BF00BF70478D
:1031200050EF00E014ED00E010B5FDF783FD00F076
:103130008FFF012801D0FDF7F9F910BD2448006880
:1031400040F47000224908602248006840F0010005
:103150002049086000201F49103108601D480068A0
:103160001D4908401B49086000201A4918310860B1
:10317000091D0860091D0860164928310860091DED
:103180000860091D0860091D0860091D0860091D07
:103190000860091D0860091D08600E48006820F4D9
:1031A00080200C49086000200A49603108600B4803
:1031B00000686FF30F00B0F1005F02D201200849F0
:1031C00008604FF0006002498039086070470000D5
:1031D00088ED00E0004402587FEDF6EA0010005C44
:1031E0000881005170B500240F4D1048FDF7A3F978
:1031F00000BF03E0641CAC4200D904E00B48FDF7BB
:103200009FF92028F6D100BF002403E0641CAC42E3
:1032100000D906E0012206490448FDF796F9002886
:10322000F4D100BF70BD0000FFFF010000040024C6
:103230001E00002400BFFEE702480068C0F3022021
:10324000704700000CED00E010B5002804DB0A0711
:10325000130E054A135406E00A07140E034A00F041
:103260000F031B1FD45410BD00E400E018ED00E074
:1032700000BF704770B504460420FFF78FFC0A4872
:10328000046025464FF47A7045434FF0E020006912
:1032900040F002004FF0E0210861084645610069F6
:1032A00040F00100086170BD1400002430B50446F0
:1032B000002504E04FF47A7000F004F86D1CA5427C
:1032C000F8D330BD70B5034600224FF0E026756993
:1032D0000D4E366803FB06F44FF0E026B16910E0AE
:1032E0004FF0E026B06988420BD0884202D20E1A15
:1032F000324402E02E1A0E4432440146A24200D368
:1033000000E0EDE700BF70BD1400002400BF054AD7
:10331000D26902F04002002AF9D0C2B2014B9A628F
:10332000704700000010014010B500F00BFAFDF7E7
:103330008DFC042302221146F02000F0FDFA4FF428
:10334000F070FFF797FF4FF4E13000F0A9FBFDF7B5
:1033500001F9FDF704F9FDF707F9FDF70AF9002077
:10336000FDF70CF9FDF70FF9002010BD2DE9F04134
:1033700005460E462948076800202949096881F852
:10338000590027480068001DFDF702F950B924488C
:10339000006890F82C100120884022490968814378
:1033A00020480160681CD8B9D6B11F4948681C493B
:1033B000096888601A4982680968CA6018490968FA
:1033C000091D8268516016490968091D8160164A05
:1033D000134909684A6111460968491C11601AE0DD
:1033E0007C190F4800684460BC4207D20C48016851
:1033F000091D0E480068FDF7D0F80CE00848016888
:10340000091D0B480068FDF7C8F80A4800688442A7
:1034100001D208480460BDE8F0810000CC0000241F
:10342000B8000024D0000024D0DD0424C000002413
:10343000BC000024E800002410B50446FDF7B2F8F3
:1034400031480068401C304908603048006840B985
:103450002E4804600846006801280DD100F026F9C6
:103460000AE02B48006838B928480068C06AE16A59
:10347000884201D82548046026480068401C254938
:10348000086008460068606494F82C1001208840A9
:1034900021490968084320490860E16A01EB81017C
:1034A0001E4A02EB81014868A0608268E260211D2B
:1034B000826851608160E16A01EB8101174A02EB89
:1034C00081026261E16A01EB8101144A52F8211024
:1034D000491CE26A02EB8202104B43F82210FDF70E
:1034E00066F80B48006868B108480068C06AE16A7D
:1034F000884207D24FF0805009490860BFF34F8FD0
:10350000BFF36F8F10BD0000C8000024B800002476
:10351000D4000024E4000024D000002400DB0424B4
:1035200004ED00E010B516E0FDF73CF80C48C0686B
:10353000C468201DFDF72CF80A480068401E0949A0
:10354000086009480068401E07490860FDF72FF829
:10355000204600F00BF8044800680028E4D110BDB4
:10356000BCDD0424C8000024C400002410B50446B7
:10357000206BFDF721F82046FDF71EF810BD000076
:1035800000BFFFF7CFFF064800680128F9D94FF0C8
:10359000805004490860BFF34F8FBFF36F8FF0E78F
:1035A00000DB042404ED00E02DE9F05F82460F46C5
:1035B00090469B460A9E0C9C4FEA8801A522206BF0
:1035C000FCF7FFFFA8F10100216B01EB800929F056
:1035D000070909F0070008B9012000E0002028B918
:1035E0004FF4587224A12DA0FCF7F0FF87B10025FD
:1035F00007E0795D04F134004155785D00B902E0DF
:103600006D1C102DF5D300BF00214320015502E0B1
:10361000002084F83400202E01D2012000E0002098
:1036200028B940F2973214A11CA0FCF7CFFF202E3E
:1036300000D31F26E662E66400202065201DFCF70B
:10364000CAFF04F11800FCF7C6FF2461C6F1200090
:10365000A06164620020606584F8580084F8590015
:103660005A4651464846FCF7BBFF20600B9808B10C
:103670000B980460BDE8F09F2E2E5C2E2E5C4D69E9
:1036800064646C6577617265735C467265655254FB
:103690004F535C7461736B732E6300004572726FDD
:1036A000723A2025732C2025640D0A0010B50024E1
:1036B00007E004EB84010F4A02EB8100FCF795FF61
:1036C000641C202CF5D30C48FCF78FFF0B48FCF74B
:1036D0008CFF0B48FCF789FF0A48FCF786FF0A4875
:1036E000FCF783FF0448094908600448084908605A
:1036F00010BD000000DB042480DD042494DD0424DC
:10370000A8DD0424BCDD0424D0DD0424BC00002496
:10371000C000002409480068006808B9012000E0E2
:10372000002020B14FF0FF300549086005E0034854
:103730000068C0680068024908607047BC00002447
:10374000E800002410B5FFF7B1FCFFF761FC034867
:10375000006840F004000149086010BD9CEF00E0E3
:1037600030B587B00546002400BF6A48006840F0C5
:103770000200684908600846006800F002000190F5
:1037800000BF00BF00BF0846006840F008000860A6
:103790000846006800F00800019000BF00BF00BFAD
:1037A0000846006840F0100008600846006800F015
:1037B0001000019000BF00BF00BF56480C380068E1
:1037C00040F4804053490C3908600846006800F412
:1037D0008040019000BF00BF402002900220039073
:1037E00003200590012004900A20069002A94A486F
:1037F000FDF7F8F8042002900920069002A9464837
:10380000FDF7F0F84FF4605002900920069002A9ED
:103810004248FDF7E7F8042002900920069002A92B
:103820003F48FDF7DFF83B486438006840F48040CB
:103830003849643908600846006820F48040086010
:1038400000BF3848806800F020000028F9D13648D1
:1038500034490860354848600846006840F0010077
:10386000086000BF2F48806800F020000028F9D1D0
:103870004FF483702B49486100BF2A48806800F0EC
:1038800002000028F9D02748C06840F0020025490E
:10389000C86000BF2348806800F020000028F9D1EC
:1038A0002049C861EB2444F4807444F44064A81CAB
:1038B00044EA003444F4404400BF44F4801444F02B
:1038C000407444F04064084644611948006820F49C
:1038D00080301749086016487030006820F00100F9
:1038E0001349703108600020091D08604FF0104036
:1038F000091D08600F48091D086005200C4970313A
:1039000008600B48006840F480300949086007B03F
:1039100030BD0000E044025800040258000C025878
:10392000001002580050005210030001010218005C
:1039300024ED00E02D0003032DE9F041CCB08046DA
:103940000D4616461F4600245148006820F004002A
:103950004F49086000BF002001904E48006820F0E9
:1039600001004C4908600846006800F00100019021
:1039700047480C30006840F4404045490C3108602D
:103980000846006800F44040019000BF00BF00BF3F
:103990003F480C30006800F40050B0F5005FF7D1EC
:1039A000212031904FF480303290002034903890B4
:1039B0000120379002203A90022131A88162CDF88F
:1039C000F480C56246638763002141640821016475
:1039D00000218164FEF722FD04461CB101204CB099
:1039E000BDE8F0813F2044900320459000204690A0
:1039F000082047904020499000014A90402048907C
:103A00004B90042144A8FEF737FA04460CB101207C
:103A1000E5E721480290082003904FF4DC710491FF
:103A200002210591069107910021089109910A91BF
:103A3000022013902020149000201F9020904FF41B
:103A40004010239002A8FDF787FC04460CB101202A
:103A5000C5E70020FFF784FEFDF71AFA0F4800685B
:103A600040F080000D49086000BF0C48F430006849
:103A700040F002000949F43108600846006800F08F
:103A80000200019000BF00BFFCF7A2FF0020A6E7E4
:103A90000C4802582C040058030004030044025848
:103AA00010B5044609480A490860084644600021E8
:103AB0008160C160016181610C214161FCF79AFD67
:103AC000012204490248FCF740FD10BD00100140EE
:103AD000000400241E00002470B504460025ACB18B
:103AE0000F48006808B9012000E0002028B940F222
:103AF00049520CA114A0FCF769FD00F0AFF90021B8
:103B00002046FFF733FC00F0DBFC05463DB94FF0E3
:103B1000805011490860BFF34F8FBFF36F8F70BDA6
:103B2000F40000242E2E5C2E2E5C4D6964646C65BE
:103B300077617265735C4672656552544F535C746D
:103B400061736B732E6300004572726F723A2025A9
:103B5000732C2025640D0A0004ED00E070B50546C5
:103B6000FCF720FD15B92F48006800E02846044600
:103B7000201DFCF70DFD78B9E06A00EB80002A49B2
:103B800051F8200040B994F82C10012088402749B2
:103B90000968814325480160A06A18B104F1180042
:103BA000FCF7F6FC22480068401C214908601D48CB
:103BB0000068844209D1211D1E48FCF720FD1E48E3
:103BC0000068401C1C49086006E01C480068401E54
:103BD0001A490860FFF79EFDFCF7E9FC11480068F0
:103BE000844202D02046FFF7C1FC15480068C0B1EE
:103BF0000C480068844214D11248006808B90120BA
:103C000000E0002028B940F2DC420FA117A0FCF729
:103C1000DDFC4FF0805019490860BFF34F8FBFF3B0
:103C20006F8F70BDB800002400DB0424D000002496
:103C3000E4000024BCDD0424C4000024C8000024E7
:103C4000D4000024F40000242E2E5C2E2E5C4D693E
:103C500064646C6577617265735C46726565525425
:103C60004F535C7461736B732E6300004572726F07
:103C7000723A2025732C2025640D0A0004ED00E023
:103C80000349096801600349096841607047000001
:103C9000E0000024CC0000240120014908607047A6
:103CA000DC00002470B504460D462CB940F61C42D9
:103CB00007A110A0FCF78AFC1248016818312046C1
:103CC000FCF76BFC01212846FFF750FB70BD00009C
:103CD0002E2E5C2E2E5C4D6964646C657761726576
:103CE000735C4672656552544F535C7461736B73B9
:103CF0002E6300004572726F723A2025732C2025C6
:103D0000640D0A00B800002470B504460E4615463E
:103D10002CB940F6524211A119A0FCF757FC60687B
:103D20001B490968C8611A49826809680A6218490A
:103D30000968183182685160154909681831816035
:103D4000134909688C622168491C21600DB14FF04C
:103D5000FF3629463046FFF709FB70BD2E2E5C2E3C
:103D60002E5C4D6964646C6577617265735C467244
:103D7000656552544F535C7461736B732E6300001E
:103D80004572726F723A2025732C2025640D0A004B
:103D9000B80000241CB51C4800210B468022CDE948
:103DA00000101AA11B4800F023F90446012C02D18F
:103DB000FCF72AFC0446012C17D100BF502072B634
:103DC00080F31188BFF34F8FBFF36F8F62B600BFD0
:103DD0004FF0FF30104908600120104908600020B2
:103DE0000F490860FCF715FC0BE0601C08B10120CE
:103DF00000E0002028B94FF404620AA112A0FCF7E9
:103E0000E5FB154800681CBDEC00002449444C4506
:103E10000000000081350008E8000024D4000024E0
:103E2000CC0000242E2E5C2E2E5C4D6964646C65E3
:103E300077617265735C4672656552544F535C746A
:103E400061736B732E6300004572726F723A2025A6
:103E5000732C2025640D0A00F0000024024800683D
:103E6000401C014908607047F400002410B51B484D
:103E7000006818B101201A4908602DE00020184997
:103E8000086018480068B0FA80F0C0F11F0404EB25
:103E90008400154951F8200008B1012000E00020FD
:103EA00028B940F6024211A119A0FCF78FFB04EBE0
:103EB00084010D4A02EB810041684968416000F1CC
:103EC000080142688A4202D14168496841604168FC
:103ED000C968134A116000BF10BD0000F40000243F
:103EE000DC000024D000002400DB04242E2E5C2EF5
:103EF0002E5C4D6964646C6577617265735C4672B3
:103F0000656552544F535C7461736B732E6300008C
:103F10004572726F723A2025732C2025640D0A00B9
:103F2000B800002470B506460C462EB940F6FD4296
:103F30001FA128A0FCF74AFB2CB940F6FE421CA1A9
:103F400024A0FCF743FBFCF72DFB264802687068B1
:103F5000131A2548006890F8590030B10020224912
:103F6000096881F8590001251EE02068401C08B945
:103F7000002519E01D4930680968884206D070683C
:103F8000904203D80125002020600DE0206898426F
:103F900007D92068C01A20603046FFF771FE00255F
:103FA00002E0002020600125FCF701FB284670BDDF
:103FB0002E2E5C2E2E5C4D6964646C657761726593
:103FC000735C4672656552544F535C7461736B73D6
:103FD0002E6300004572726F723A2025732C2025E3
:103FE000640D0A00CC000024B8000024E000002486
:103FF0002DE9FF4F85B0804689461746DDE912ABB3
:10400000B800FCF70BFB064656B15C20FCF706FB3C
:1040100004460CB1266304E03046FCF7CDFA00E01C
:1040200000247CB10020CDE900ABCDE902403A4646
:1040300049464046089BFFF7B7FA2046FFF7FCF9D0
:10404000012501E04FF0FF35284609B0BDE8F08FAB
:104050000549096809B9012005E00449096809B959
:10406000022000E000207047D4000024F400002467
:104070000149086870470000CC0000242DE9F04198
:104080004FF000085F48006800287DD15E48006856
:10409000451C5D480560002D1DD15C480068006826
:1040A00008B9012000E0002028B940F6C72258A135
:1040B00060A0FCF78BFA55480768624800685349CE
:1040C00008606048076060480068401C5E490860FE
:1040D000FFF720FB00BF5D480068854277D300BF33
:1040E0004A480068006808B9012000E0002020B1BB
:1040F0004FF0FF305549086068E044480068C068E8
:10410000C4686668B54202D2504806605EE06069E5
:10411000D4E902128A60D4E902214A60211D426872
:104120008A4201D1E1684160002262610168491E52
:104130000160A06A98B1A06AD4E907128A60D4E944
:1041400007214A6004F1180142688A4201D1216ABC
:1041500041600022A2620168491E016000BF94F81C
:104160002C10012088403A49096808433849086002
:10417000E16A01EB8101374A02EB81014868A060E6
:104180008268E260211D00E033E082685160816056
:10419000E16A01EB81012F4A02EB81026261E16A6F
:1041A00001EB81012B4A52F82110491CE26A02EB13
:1041B0008202284B43F822102749E06A0968C96A3D
:1041C00088428DD34FF001088AE700E000BF224803
:1041D0000068C06A00EB80001E4951F820000128E9
:1041E00001D94FF001081D48006808B14FF00108DF
:1041F00004E01B480068401C194908604046BDE8BF
:10420000F0810000F4000024CC000024BC00002455
:104210002E2E5C2E2E5C4D6964646C657761726530
:10422000735C4672656552544F535C7461736B7373
:104230002E6300004572726F723A2025732C202580
:10424000640D0A00C0000024E0000024E8000024FF
:10425000D000002400DB0424B8000024DC0000248B
:10426000D800002470B505462C460026002D5ED0EF
:1042700030480068844201D1012000E0002028B9C4
:1042800041F24F022CA135A0FCF7A0F9206D28B90E
:1042900041F2500228A131A0FCF798F9206D401E90
:1042A0002065E16CE06A884241D0206D00283ED153
:1042B000201DFCF76DF940B994F82C1001208840BE
:1042C0002A490968814329480160E06CE062E06A9C
:1042D000C0F12000A06194F82C10012088402349EF
:1042E0000968084321490860E16A01EB8101204A1D
:1042F00002EB81014868A0608268E260211D82684B
:1043000051608160E16A01EB8101194A02EB81028F
:104310006261E16A01EB8101154A52F82110491CE2
:10432000E26A02EB8202124B43F822100126304669
:1043300070BD0000B80000242E2E5C2E2E5C4D694E
:1043400064646C6577617265735C4672656552542E
:104350004F535C7461736B732E6300004572726F10
:10436000723A2025732C2025640D0A00D000002409
:1043700000DB042470B50646F068C4682CB940F62A
:1043800082423CA144A0FCF721F9A06AD4E90712BB
:104390008A60D4E907214A6004F1180142688A4220
:1043A00001D1216A41600022A2620168491E0160B8
:1043B0003D48006800283DD16069D4E902128A6056
:1043C000D4E902214A60211D42688A4201D1E16894
:1043D0004160002262610168491E016094F82C105E
:1043E0000120884031490968084330490860E16A82
:1043F00001EB81012E4A02EB81014868A0608268CE
:10440000E260211D826851608160E16A01EB8101F7
:10441000274A02EB81026261E16A01EB8101244AD1
:1044200052F82110491CE26A02EB8202204B43F849
:10443000221010E01F494868E0618268226204F19E
:1044400018018268516081601A4AA26211460968A7
:10445000491C116000BF1849E06A0968C96A8842AE
:1044600004D9012501201549086000E000252846EF
:1044700070BD00002E2E5C2E2E5C4D6964646C6550
:1044800077617265735C4672656552544F535C7414
:1044900061736B732E6300004572726F723A202550
:1044A000732C2025640D0A00F4000024D0000024A1
:1044B00000DB0424A8DD0424B8000024DC00002470
:1044C00070B5002400265048006828B940F6B302B1
:1044D0004EA157A0FCF77AF8FCF764F84A48006848
:1044E000401E494908600846006800287ED15448AB
:1044F000006800287AD05BE05248C068C468A06AAF
:10450000D4E907128A60D4E907214A6004F118014E
:1045100042688A4201D1216A41600022A262016898
:10452000491E01606069D4E902128A60D4E902215F
:104530004A60211D42688A4201D1E168416000223F
:1045400062610168491E016094F82C1001208840C6
:104550003D49096808433C490860E16A01EB810173
:104560003A4A02EB81014868A0608268E260211D3E
:10457000826851608160E16A01EB8101334A02EB9C
:1045800081026261E16A01EB8101304A52F8211037
:10459000491CE26A02EB82022C4B43F822102C49A0
:1045A000E06A0968C96A884202D301202949086083
:1045B0002448006808B9012000E0002000289BD0B2
:1045C0000CB1FFF7A7F82448056865B100BFFFF7F5
:1045D00055FD10B101201F4908606D1E002DF6D158
:1045E00000201D4908601B48006800E008E038B161
:1045F0000126300719490860BFF34F8FBFF36F8F53
:10460000FBF7D5FF304670BDF40000242E2E5C2E43
:104610002E5C4D6964646C6577617265735C46728B
:10462000656552544F535C7461736B732E63000065
:104630004572726F723A2025732C2025640D0A0092
:10464000C8000024A8DD0424D000002400DB0424DA
:10465000B8000024DC000024D800002404ED00E0B1
:1046600010B500290AD00878002807D005487844FA
:10467000FBF7D9FF002801D0002010BD0248784484
:1046800010BD00005A000000520000004FF04070C2
:10469000E1EE100A7047000000000102030401026D
:1046A0000304060708090000E4460008000000248F
:1046B00038030000D4020008E04700083803002453
:1046C000886F0700300300081C0000004300000052
:1046D000F8FFFFFF0C0000000E0000000F000000BC
:1046E0002E000000113C90D00304011B3210330156
:1046F0000122F833FFFF2205000D3CA55B0390E586
:104700005F0390F95503901EA5020390D504134052
:104710000532243230323842201540B504241CE0E2
:1047200003307812382CF00120800140023B1F1A20
:10473000AA01011402202D021E011EDC750490D472
:10474000041AE0041ACC041AD0041AD8041AC804B3
:104750001E3C76049044041AEC0C1AF4041A300C33
:104760001AE4081A34081A28041A08041A20041A29
:1047700014041AFC181EB8780490500C6112FF1F24
:1047800084BB039084BC041ABD041ABE042910998A
:1047900004411A34201A34201A34201AD80439104B
:1047A000990401B40617D4C3B2A16F1812DDF70241
:1047B00090B9F402905DF5029035F602907D101AE2
:1047C000A90C1AE5041A0D101E687A049070041AD8
:1047D00078041EDC78049080081A88041A64048126
:0200000490006A
:10000000662937F0E380642900F0B480782900F095
:10001000ED80732900F0D585002070472D4B1968BD
:100020000868B0E8F04F80F30988BFF36F8F4FF096
:10003000000080F311887047000000000848006845
:10004000006880F308884FF0000080F3148862B6DF
:1000500061B6BFF34F8FBFF36F8F00DF00BF00BFEC
:1000600008ED00E0DFF80C00016841F47001016068
:10007000704700BF88ED00E0EFF30980BFF36F8F9A
:10008000144B1A681EF0100F08BF20ED108A20E9EB
:10009000F04F106009B44FF0500072B680F3118831
:1000A000BFF34F8FBFF36F8F62B601F041FA4FF08D
:1000B000000080F3118809BC19680868B0E8F04FA7
:1000C0001EF0100F08BFB0EC108A80F30988BFF350
:1000D0006F8F7047B8000024EFF305807047000071
:1000E0000FB4044910B503AA029800F06FFD10BCCC
:1000F0005DF814FB180000240FB41CB5074B06AACA
:100100007B4469460090059800F031FD0020694667
:1001100000F040FD1CBC5DF814FB0000910A0000DB
:1001200070B50C460546012A05D02878800600D512
:10013000EA69002302E0012305E05B1C934202D23E
:10014000E05C0028F9D1A869E618C01AA861286AFD
:10015000184428622846AFF3008004E0D5E9012165
:1001600014F8010B9047B442F8D32846AFF300804F
:1001700070BD00002DE9F041064600241068752985
:10018000314616A510D0AFF30080002802DA4042B5
:1001900013A507E031688A0701D512A502E04907D7
:1001A00004D511A5012401E0AFF3008000210A224B
:1001B00006F1240709E0B0FBF2FCB0FBF2F302FB0E
:1001C0001C00303078541846491C0028F3D12346CF
:1001D0002A463046BDE8F04100F05BBA000000005E
:1001E0002D0000002B0000002000000070B5044628
:1001F0000D4621461068AFF300802188090502D51D
:100200000F4A7A4402E00E4A7A440E32002104F189
:10021000240305E000F00F060009965D5E54491CBA
:100220000028F7D120780023000704D5702D02D0D4
:1002300009B1022311322046BDE8704000F029BA0E
:10024000767204002DE9F05F894604464FF0000AFB
:10025000DFF874B1FB44C0F820A02046E16888476D
:10026000002874D0252806D0D4E901219047206ABF
:10027000401C2062F1E700265F462046E16888477F
:100280002028054607DB312D05D2781910F8200CFF
:1002900008B10643F1E7B00701D526F00406C4F81B
:1002A0001CA00027C4F818A02A2D09D0284603F066
:1002B00070FC38B304EB8708303DC8F8185019E0DB
:1002C00059F8041B204604EB87029161E1688847D6
:1002D000012F054618D1E069002820DA26F0200613
:1002E0001DE0D8F8180000EB800005EB4000303826
:1002F000C8F818002046E1688847054603F049FC25
:100300000028EED1012F0AD02E2D08D12046E16819
:1003100088477F1C0546022F46F02006C4DBA069F3
:10032000002803DA404246F00106A061F00701D040
:1003300026F010066C2D0BD0682D09D04C2D39D02D
:100340006A2D35D0742D35D07A2D33D016E038E0B3
:10035000E1682F4620468847B842054609D16C2FF0
:1003600026D04FF48060E168064320468847054662
:1003700004E06C2F1AD04FF4807006430DB3A5F142
:100380004100192802D8203546F400664A4629461D
:10039000204626604E46FFF733FE80B101280BD081
:1003A000F61D26F0070000F1080956E74020E4E7B3
:1003B0008020D8E70020D6E706F104094DE728465B
:1003C00052E7206ABDE8F09F4C72040040EA010346
:1003D000024630B59B0710D14FF0013400E008C24F
:1003E00008C91D1B9D4315EAC41FF8D013F0FF0177
:1003F00002F8011B0DD01B0AF8E711F8013B002B96
:1004000002F8013B05D011F8013B002B02F8013B3B
:10041000F3D130BD10B5431C02E010F8011B71B1DF
:100420008107FAD14FF0013202C88C1A8C4314EACA
:10043000C211F9D0C01A0A0603D0C01E10BDC01ADE
:1004400010BD0A0401D0801E10BD0902FCD0401E60
:1004500010BD032A40F2308010F0030C00F015802C
:1004600011F8013BBCF1020F624498BF11F801CBB7
:1004700000F8013B38BF11F8013BA2F1040298BF1C
:1004800000F801CB38BF00F8013B11F0030300F086
:100490002580083AC0F0088051F8043B083A51F82A
:1004A00004CBA0E80810F5E7121D5CBF51F8043B2F
:1004B00040F8043BAFF30080D20724BF11F8013BA2
:1004C00011F801CB48BF11F8012B24BF00F8013B04
:1004D00000F801CB48BF00F8012B704710B5203A57
:1004E000C0F00B80B1E81850203AA0E81850B1E8ED
:1004F0001850A0E81850BFF4F5AF5FEA027C24BFA3
:10050000B1E81850A0E8185044BF18C918C0BDE899
:1005100010405FEA827C24BF51F8043B40F8043B62
:1005200008BF7047D20728BF31F8023B48BF11F817
:10053000012B28BF20F8023B48BF00F8012B704771
:1005400002F0FF0343EA032242EA024200F052BBF8
:100550004FF0000200B5134694469646203922BF5C
:10056000A0E80C50A0E80C50B1F12001BFF4F7AFA7
:10057000090728BFA0E80C5048BF0CC05DF804EB89
:10058000890028BF40F8042B08BF704748BF20F8F7
:10059000022B11F0804F18BF00F8012B70470000AC
:1005A0004FF0013C50F8042B51F8043B9A4215D10E
:1005B000A2EB0C03934313EACC130BD150F8042B9A
:1005C00051F8043B9A4209D1A2EB0C03934313EA7E
:1005D000CC13E7D04FF00000704700BFD01A01BA2B
:1005E000B1FA81F101F0180122FA01F0CB40C1F11A
:1005F0002001DBB2C0B2C01A2CFA01F3D11A914328
:1006000011EAC311E6D1704730B5B0F10A024FEAE2
:10061000900E71F100034EEA817EB0EB0E0061EBAB
:1006200091014FEA101E4EEA017E10EB0E0041EBE5
:1006300011114FEA102E4EEA016E10EB0E0041EB45
:1006400011214FEA104E4EEA014E10EB0E0041EB25
:100650001141401841F100014FEAD00040EA4170D9
:100660004FEAD10110EB80054FEA810444EA90740F
:1006700044EB01046D1944EB0404521BA3414FF0F9
:10068000000348BF0A3200D530BD401C41F10001D3
:1006900030BD2DE9F0470D4699469246044600F1DB
:1006A00024080168880604D5E06921F01001216062
:1006B00000E00120A84201DD471B00E00027A169FE
:1006C0007A1902EB0900081AA0612078C00602D44A
:1006D0002046AFF30080002608E0D4E901211AF893
:1006E00006009047206A401C761C20624E45F4DBD1
:1006F0002078C0060AD52046AFF3008006E0D4E992
:10070000012130209047206A401C2062381EA7F14A
:100710000107F4DC07E0D4E9012118F8050090474F
:10072000206A401C2062281EA5F10105F3DC20464A
:10073000AFF300802078000602D50220BDE8F087E4
:100740000120FBE770472DE9FF4F0C461E464FF096
:10075000FF378BB0D2E90001DDF860800A908A464D
:10076000C1F30A5505B93D46002108464FF0000087
:10077000BAF1000F00F4400005DA00EB80004FF4FE
:10078000400101EA50004FEA9059B9F1010F00DD34
:10079000B9460A9850EA4A000ED044F61050A5F225
:1007A000FF3545432F14B8F1000F1ED07542291EA6
:1007B0001EDDC9F100021CE0B8F1010F4FF000008E
:1007C00001D0302103E0F24305E02154401CB04247
:1007D000FBDB30460022002121540B99C1F8088030
:1007E000C1E900200FB0BDE8F08FBD1B6D1CDEE736
:1007F0004A4600DA694206A800F05CFA06AB93E8C4
:10080000070003AB83E8070050460A9900F0C8FAD6
:100810008DE80700A0F500501F3800900398002DC8
:100820000ADD42F21F014A460844002303A903904F
:10083000684600F031FD09E0A0F500504A461F3837
:10084000002303A90390684600F03BFD8DE80700F4
:100850000004000C03D04FF0FF30410800E01046C8
:10086000B8F1000F03D00022009215461EE0751E5D
:1008700005D4FFF7C9FE303262556D1EF9D5B34677
:100880000122084302D000227F1C04E02078302897
:1008900001D100227F1E002A099784D01DE0112D6E
:1008A00007DAFFF7B1FE303262556D1C50EA0102E3
:1008B000F5D1084302D00098C8B10EE00021681EAF
:1008C00005E0235C625C63542254401E491C814253
:1008D000F7DBAB46A81B401E0990002004F80B0074
:1008E0000B98099AC0F80880C0E9002B7AE7112616
:1008F0004FF0000857E72DE9F04F88460446D21D17
:1009000022F0070191B0D1E90001CDE90A0103F01D
:100910000AF902460B98C00F01D02D2007E020688D
:10092000810701D52B2002E0202101EAC000032A23
:10093000099001D0072A05DB03464146204600F016
:1009400079F90BE12078800601D5E06900E0062006
:10095000B8F1650F814606D0B8F1660F18D0B8F12E
:10096000670F70D131E00020B9F1110F009001DB69
:10097000112301E009F101030AAA01A90CA8FFF75C
:10098000E2FEDDE90C70002609F10105834647E02F
:1009900001204B4600904FF000470AAA01A90CA87D
:1009A000FFF7D1FEDDE90DB00C995D46002610B9C8
:1009B00009F101000D18B9EB050003D4C0F1FF36B1
:1009C00009F10105A5EB09002BE0B9F1010F01DAEE
:1009D0004FF001090020B9F1110F0090484601DDE8
:1009E000112300E003460AAA01A90CA8FFF7ABFEF9
:1009F000DDE90C704D4600268346207800070AD4B6
:100A0000AB4500DA5D4601A8012D04DD411911F85E
:100A1000011C302907D04F4502DA17F1040F04DA20
:100A2000012082460FE06D1EEEE7002F02DCED1B79
:100A30003E4403E0781CA84200DD7D1CB81B00F199
:100A4000010A4FF000472078000703D4AA4501DBD4
:100A50004FF0FF3A0021B7F1004F0DF143088DF838
:100A6000431024D002202B23002F01DA7F422D23B4
:100A70000A21021EA0F1010000DC5FB197FBF1FC2E
:100A800097FBF1F201FB1C7C17460CF1300C08F8C7
:100A900001CDEEE7A8F1010003702188090501D519
:100AA000452100E06521A0F1010800F8011C09982A
:100AB0000FA9A1EB0807FF1D00B10120411901EBAF
:100AC000EA70A1693844081A401EA0612078C00667
:100AD00002D42046AFF30080099828B1D4E901215F
:100AE0009047206A401C20622078C00622D520460C
:100AF000AFF300801EE0002E04DBB34502DD01A849
:100B0000805D00E03020D4E901219047206A401C3C
:100B10002062761CAAF101005FEA000A0AD100F007
:100B20000CFDC0680168405CD4E901219047206A4F
:100B3000401C2062281EA5F10105DCDC07E0D4E999
:100B4000012118F8010B9047206A401C2062381ED2
:100B5000A7F10107F3DC2046AFF30080032011B0BA
:100B600041E6000001694A1C02610878704700B53F
:100B70008FB0CDE901310021059105497944CDE9D6
:100B8000031011466846FFF75DFB0FB000BD000083
:100B9000E5FFFFFF0A6802F8010B0A60704710B515
:100BA000436913B1AFF3008001E0FFF7B9FA012008
:100BB00010BD127800F124010A7000224A7001224F
:100BC000EDE711684FF0FF32E9E70000074B70B521
:100BD0000D467B44FFF7CBFF0446284600F0DCF8C7
:100BE00010B14FF0FF3070BD204670BD3727007840
:100BF0004FF000020429C0F0128010F0030C3FF403
:100C0000A9ACCCF1040CBCF1020F18BF00F8012B09
:100C1000A8BF20F8022BA1EB0C01FFF79BBC5FEAF9
:100C2000C17C24BF00F8012B00F8012B48BF00F85D
:100C3000012B70472DE9F0411F4604460326016849
:100C4000072A01F4006004DB08B116A505E016A52B
:100C500003E008B115A500E015A521F01000206003
:100C6000A069C01EA0610FB1401EA0612046AFF375
:100C700000804FB1D4E9012138469047206A401CDA
:100C80002062C01C206206E0206AFAE7D4E9012154
:100C900015F8010B9047761EF8D22046AFF300807E
:100CA000BDE8F0814E414E006E616E00494E460037
:100CB000696E66002DE9F047814616468AB03548D0
:100CC00078440DC88DE80D0032487844801C03AC90
:100CD0000DC884E80D0041F69B300844372190FB95
:100CE000F1F290FBF1F5A5F1800501FB12041B3C2C
:100CF00002D56442012000E00020DFF898A0804681
:100D00000027FA44AAF1BE0A0EE0E0070AD03246F4
:100D1000684607EB470101230AEB810100F0D1FA95
:100D20008DE8070064107F1C002CEED1194F7F4422
:100D3000AE3F19E0E80715D007EB04100DF1180AD3
:100D400090E80E008AE80E00C068F04201D19819C0
:100D500008903246012306A903A800F0B2FA03ABBB
:100D600083E807006D10641C002DE3D14FF00103F0
:100D700032466946B8F1000F03A802D000F08CFAA1
:100D800001E000F09EFAC9E90001C9F808200AB0A4
:100D9000BDE8F08770680400007B00F080007047B9
:100DA0005FEA400C08BF91F0000F4FEA8C234FEA36
:100DB000C12243EA51514FEA1C5018BF00F5F040E0
:100DC0004FEA300018BF41F000415FEA6C5C00F070
:100DD0002980BCF1FF3F08BF40F080407047130CF2
:100DE00006BF12044FF0100C4FF0000C130E04BF9E
:100DF00012020CF1080C130F04BF12010CF1040CC9
:100E0000930F04BF92000CF1020CD30F04BF5200E9
:100E10000CF1010C11464FF00002A0F11F00A0EBF5
:100E20000C00704711F0004F08BF704731F00041CF
:100E30003FF4D5AF0B0C06BF09044FF0100C4FF078
:100E4000000C0B0E04BF09020CF1080C0B0F04BFC1
:100E500009010CF1040C8B0F04BF89000CF1020C8A
:100E6000CB0F04BF49000CF1010CCCF12003A0EB27
:100E70000C0022FA03F302FA0CF241EA030100F13A
:100E80000100704720F07F4C80EA030023F07F4789
:100E9000ACEB070303F57C5300F0004003F1FF03C4
:100EA0002DE980494FEA154B09B44FEA144325EA6E
:100EB0000B4E24EA03480FF2042606EB13274908D9
:100EC0003E785FEA320203FB0667C7F5000707FBBF
:100ED00006F64FEA54374FEAD64606F1020607FBFC
:100EE000066CCCF1005C4FEA1C472CEA074C07FB70
:100EF00006F40CFB06F504EB15464FEA961634BFD4
:100F000000204FF000404FEAD13706FB07FC4FEAC4
:100F10001C4C0CFB0BF7D21B03FB0CF761EB07011E
:100F20000CFB0EF7B0EB074072EB17420CFB08F717
:100F300034BFA2EB0742B2EB074261EB17414FEA25
:100F40000C444FEA910706FB07FC4FEA1C4C0CFBD4
:100F50000BF7B0EBC74072EB573203FB0CF734BF13
:100F6000A2EBC742B2EBC74261EB57310CFB0EF765
:100F7000B0EBC70072EB57720CFB08F734BFA2EB63
:100F8000C702B2EBC70261EB5771039F4FEA816161
:100F900041EA921104EBCC044FEAD1374FEA826266
:100FA00006FB07FC42EA90124FEA80604FEA1C4CB5
:100FB0000CFB0BF7D21B03FB0CF761EB07010CFBDF
:100FC0000EF7B0EB074072EB17420CFB08F734BF8B
:100FD000A2EB0742B2EB074261EB17414FEA8C5597
:100FE0004FEA910704EB9C2406FB07FC4FEA1C4CDC
:100FF0000CFB0BF7B0EBC74072EB573203FB0CF75F
:1010000034BFA2EBC742B2EBC74261EB57310CFBD6
:101010000EF7B0EBC70072EB57720CFB08F734BF4A
:10102000A2EBC702B2EBC70261EB577115EB4C257F
:101030004FEA816141EA92114FEA82624FEAD13769
:1010400042EA901206FB07FC44F100044FEA80607C
:101050004FEA1C4C0CFB0BF7D21B03FB0CF761EBAC
:1010600007010CFB0EF7B0EB074072EB17420CFBCD
:1010700008F734BFA2EB0742B2EB074261EB17411E
:1010800015EB1C154FEA813141EA92414FEA823259
:1010900042EA90424FEA80304FEA0C7644F1000475
:1010A00048EA03434EEA0B484FF0000EB2EB080C3F
:1010B00071EB030724BF624639464EEB0E0E4FF02C
:1010C000000B0018524149414BEB0B0BB2EB080CE3
:1010D00071EB03077BF1000B24BF624639464EEBF0
:1010E0000E0E4FF0000B0018524149414BEB0B0B19
:1010F000B2EB080C71EB03077BF1000B24BF6246D7
:1011000039464EEB0E0E51EA020718BF46F00106B3
:1011100016EB0E7655F1000254F1000103D5BDE83F
:101120008901BDE80088BDE88901BDE80048B6191D
:10113000524141EB0101A3F10103704780807F7EA2
:101140007D7C7B7A7978777676757473727171703D
:101150006F6E6E6D6C6C6B6A6A69686867666665EF
:101160006464636362616160605F5F5E5E5D5D5C7D
:101170005C5B5B5A5A5959585857575656555555EE
:101180005454535352525251515050504F4F4F4E4E
:101190004E4D4D4D4C4C4C4B4B4B4A4A4A4949499C
:1011A00048484847474747464646454545444444DE
:1011B000444343434342424242414141002B9C4607
:1011C00030D477002BD01CB54FEA370703B44FF06B
:1011D00010004FF01001BAF1000F06D0BCF1000F63
:1011E000DCBF40F0080040F008014FF000000FBCE9
:1011F000BDE810400BF1010BBBF1010F08BF5FEA26
:10120000170722BF12F1010211F101014FF0004155
:1012100043F1000300F0004043EA00007047F9D3B7
:101220005708D0E746EA064613F1400F4FEA164644
:101230001FDD13F1200FDFBF16430A4600212033C4
:101240005B42BED0C3F1200746EA064602FA07F722
:101250004FEA164646EA0706C3F1200722FA03F2D0
:1012600001FA07F721FA03F14FF0000342EA0702FF
:10127000A7E746EA020646EA06464FEA164646EA67
:101280000106BCBF46EA0646360C4FF000034FF09D
:1012900000024FF0000194E72DE9804C9A469346F6
:1012A00070B491E8380007C831EA400C48BF34EA0E
:1012B000430C03D5FFF7E6FDFFF780FFF0BCBDE868
:1012C000008C2DE9804C9A46934670B491E8380022
:1012D00007C810F0804F08BF13F0804F03D100F013
:1012E00005F8FFF76BFFF0BCBDE8008C20F07F47EE
:1012F00080EA030023F07F4C07EB0C03A3F57C533B
:1013000000F00040A3F1FE0392F0000F00F0B38064
:1013100095F0000F00F077802DE901494FEA114068
:101320004FEA144621EA004800FB06FC24EA06477F
:1013300008FB06F607FB08F800FB07F718EB064862
:101340004CEB164C4FEA124B18EB07484FEA154688
:101350004CEB174022EA0B4E0BFB06FC25EA064736
:101360000EFB06F607FB0EFE0BFB07F71EEB064E09
:101370004CEB164C4FF000061EEB074E4CEB174B98
:1013800018EB0B0840F1000018EB0E0B58EB0008AF
:1013900040F100008F1A4FF000013CBFC943661BAB
:1013A00014BFB5EB040C00213CBFC943F61B4FEA48
:1013B00017444EEA8E0E27EA04454FEA1C4704FB09
:1013C00007622CEA074C05FB07F70CFB05F604FB4C
:1013D0000CFC16EB074642EB174216EB0C4642EBB1
:1013E0001C421BEB060658EB0202414146EA9E06F0
:1013F00001D5BDE80189B619524141EB0101A3F1C4
:101400000103BDE801894FEA14454FEA114724EA78
:10141000054621EA074C05FB07F406FB07F70CFB22
:1014200006F105FB0CFC11EB074144EB17444FEAB6
:10143000124711EB0C4144EB1C4422EA074C05FB1C
:1014400007F206FB07F70CFB06F605FB0CFC16EB98
:10145000074642EB174216EB0C4642EB1C456A1856
:1014600054F1000148BF7047B619524141EB0101E8
:10147000A3F10103704795F0000F37D04FEA1142F6
:101480004FEA144721EA024624EA074C02FB07F11F
:1014900006FB07F70CFB06F402FB0CFC14EB0744FD
:1014A00041EB17414FEA154714EB0C4441EB1C414B
:1014B00025EA074C02FB07F506FB07F70CFB06F6CF
:1014C00002FB0CFC16EB074645EB174516EB0C46EA
:1014D00045EB1C42121951F1000148BF7047B61983
:1014E000524141EB0101A3F1010370474FEA14455A
:1014F0004FEA114724EA054621EA074C05FB07F1AC
:1015000006FB07F70CFB06F24FF0000605FB0CFC90
:1015100012EB074241EB174112EB0C4251EB1C411D
:1015200048BF7047921841EB0101A3F101037047D6
:1015300043F66D6CC0F6000C604740F2C14CC0F63B
:10154000000C604740F6E51CC0F6000C604740F612
:10155000FD3CC0F6000C604740F2396CC0F6000C50
:10156000604742F6F93CC0F6000C604740F60F4C6D
:10157000C0F6000C604743F2AD2CC0F6000C60478B
:1015800040F6294CC0F6000C604742F6B94CC0F654
:10159000000C604740F6D56CC0F6000C604740F682
:1015A000F96CC0F6000C604741F2291CC0F6000C33
:1015B000604740F2CB3CC0F6000C604742F2A91CE9
:1015C000C0F6000C604742F2CD1CC0F6000C60472C
:1015D00043F2C52CC0F6000C604740F6ED3CC0F667
:1015E000000C604743F6D92CC0F6000C604744F26B
:1015F000710CC0F6000C604743F6F17CC0F6000C9D
:10160000604743F6955CC0F6000C604740F6615CAD
:10161000C0F6000C604740F6055CC0F6000C604761
:1016200040F68D5CC0F6000C604744F2652CC0F6B5
:10163000000C604744F2753CC0F6000C604743F66E
:101640005D6CC0F6000C604744F2C14CC0F6000C63
:10165000604743F6994CC0F6000C604743F65D3C8A
:10166000C0F6000C604743F6095CC0F6000C60470A
:1016700044F27D0CC0F6000C604744F2510CC0F6F9
:10168000000C604743F6814CC0F6000C604743F6FF
:10169000257CC0F6000C604743F6A54CC0F6000C54
:1016A0006047000070B50446B3F5804F13D1D1E90F
:1016B000000540EA05108D6840EA05208D69284341
:1016C0008D8940EA054054F82250064E35402843A3
:1016D00044F8220003E06FF0704044F8220000203C
:1016E00070BD00000000F0CF30B50246086852F827
:1016F000200020F001000C6842F8240088680828C7
:1017000001D1402300E00023486818438C6820433F
:10171000CC6820430C6920434C6920438C692043EA
:10172000CC6920430C6A20434C6A20438C6A2043D6
:10173000CC6A20430C6B20434C6B20438C6B2043C2
:101740000C6852F824400D4D2C4020430C6842F8A0
:101750002400086BB0F5801F07D1086828B1106815
:1017600020F480100C6B20431060086818B11068DA
:101770004C6B20431060002030BD00008004C0FF8F
:1017800030B50346D1E9000540EA05108D6840EA0E
:1017900005208D8940EA0545088A401E45EA005526
:1017A000087D801E45EA00608D692843551C53F86A
:1017B000255005F040452843551C43F8250018687E
:1017C00000F48010B0F5801F0BD1586820F470042D
:1017D000088A401E44EA0054586820F470002043F0
:1017E0005860002030BD000070B504460E46154616
:1017F0000CB9012070BD94F8450028B9002084F888
:101800004400204600F028F804F108012068FFF7A2
:101810006BFF3146A2682068FFF7B2FF2946E36AF2
:10182000D4E90102FFF73EFFA168206850F82100CB
:1018300040F00100A268216841F8220005480068D4
:1018400040F0004003490860012084F84500002072
:10185000D0E700000040005210B586B0044600BF3B
:101860002048006840F480501E490860084600681F
:1018700000F48050009000BF00BF00BF19480C303A
:10188000006840F0080017490C31086008460068FD
:1018900000F00800009000BF00BF00BF08460068CD
:1018A00040F0100008600846006800F0100000904A
:1018B00000BF00BF4CF20370019002200290012093
:1018C0000390032004900C20059001A90648FFF71F
:1018D00039FE4FF68070019001A90448FFF732FEEF
:1018E00006B010BDD4440258000C02580010025833
:1018F000704770477047704710B50446206800690C
:10190000C0F34000D8B12068C068C0F34000B0B157
:101910006FF002002168086101202077206880694B
:1019200000F0030018B12046FFF7E5FF05E0204670
:1019300000F0BEF8204600F0BCF8002020772068B8
:101940000069C0F38000D8B12068C068C0F380008F
:10195000B0B16FF004002168086102202077206890
:10196000806900F4407018B12046FFF7C4FF05E01D
:10197000204600F09DF8204600F09BF800202077DC
:1019800020680069C0F3C000D8B12068C068C0F307
:10199000C000B0B16FF00800216808610420207712
:1019A0002068C06900F0030018B12046FFF7A3FFCC
:1019B00005E0204600F07CF8204600F07AF8002090
:1019C000207720680069C0F30010D8B12068C06893
:1019D000C0F30010B0B16FF010002168086108205A
:1019E00020772068C06900F4407018B12046FFF7E6
:1019F00082FF05E0204600F05BF8204600F059F831
:101A0000002020772068006900F0010058B12068AC
:101A1000C06800F0010030B16FF00100216808617A
:101A2000204600F047F820680069C0F3C01058B1A4
:101A30002068C068C0F3C01030B16FF0800021682A
:101A400008612046FFF755FF20680069C0F30020B9
:101A500058B12068C068C0F3C01030B16FF4807016
:101A6000216808612046FFF743FF20680069C0F342
:101A7000801058B12068C068C0F3801030B16FF09A
:101A8000400021680861204600F024F820680069C1
:101A9000C0F3401058B12068C068C0F3401030B1A6
:101AA0006FF02000216808612046FFF723FF10BD7A
:101AB0007047704710B504460448844205D100BF02
:101AC00040210348FFF743FD00BF10BDE804002498
:101AD00000100258704770477047704770470146C2
:101AE000D1F88030D1F8842043EA0200704700002A
:101AF0002DE9F04704462068C5692068066820681B
:101B0000876840F60F0005EA0008B8F1000F0FD112
:101B100005F0200060B106F0200010B907F08050F9
:101B200030B1E06E10B12046E16E8847BDE8F08725
:101B3000B8F1000F7ED06E48384018B96D4830407B
:101B40000028F7D005F0010058B106F4807040B1CC
:101B5000012021680862D4F8880040F00100C4F830
:101B6000880005F0020058B107F0010040B10220E2
:101B700021680862D4F8880040F00400C4F88800A6
:101B800005F0040058B107F0010040B104202168BD
:101B90000862D4F8880040F00200C4F8880005F01C
:101BA000080070B106F0200010B95148384040B12B
:101BB000082021680862D4F8880040F00800C4F8C2
:101BC000880005F4006060B106F0806048B14FF411
:101BD000006021680862D4F8880040F02000C4F852
:101BE0008800D4F88800002844D005F0200050B1C7
:101BF00006F0200010B907F0805020B1E06E10B15F
:101C00002046E16E8847D4F888902068806800F00C
:101C10004000402802D009F0280028B3204600F0F8
:101C200063FA2068806800F04000402818D12068DE
:101C3000806800E01FE020F0400021688860A06F0D
:101C400050B12D48A16F0865A06FFFF785FC88B1E2
:101C5000A06F016D88470DE02046FFF73FFF09E0C8
:101C60002046FFF73BFF05E02046FFF737FF002047
:101C7000C4F888005AE705F4801050B107F48000DA
:101C800038B14FF48010216808622046FFF725FF25
:101C90004CE705F0800058B106F0800010B907F459
:101CA000000028B1206F10B12046216F88473DE722
:101CB00005F0400030B106F0400018B1204600F0B9
:101CC00027FA33E705F4000030B106F0804018B180
:101CD0002046FFF701FF29E705F0807030B106F0DC
:101CE000004018B12046FFF7F6FE1FE700BF1DE7D2
:101CF0000100001020010004D120009010B504461E
:101D00000CB9012010BDA06900B100E000BFD4F8FB
:101D1000800028B9002084F87C002046FFF721FCD1
:101D20002420C4F880002068006820F001002168A9
:101D30000860204600F020FB012800D1E2E7A06AFD
:101D400010B1204600F00EF92068406820F4904061
:101D5000216848602068806820F02A002168886037
:101D60002068006840F0010021680860204600F00B
:101D700075F9C7E710B50346D3F88400202874D15D
:101D800001B10AB9012010BD00BF93F87C00012801
:101D900001D10220F7E7012083F87C0000BF99659C
:101DA000A3F85C20A3F85E200020D86600BF9868E6
:101DB000B0F5805F0AD1186920B940F2FF10A3F88E
:101DC000600020E0FF20A3F860001CE0986848B99C
:101DD000186918B9FF20A3F8600014E07F20A3F869
:101DE000600010E09868B0F1805F09D1186918B9F7
:101DF0007F20A3F8600006E03F20A3F8600002E027
:101E00000020A3F8600000BF0020C3F88800222053
:101E1000C3F884001868806840F001001C68A06066
:101E2000586EB0F1005F21D1B3F8680090421DDC1C
:101E30009868B0F5805F04D1186910B91848D86661
:101E400001E01848D86600BF002083F87C0000BF7E
:101E50001868006840F480701C682060186880680A
:101E600040F080501C68A06016E017E09868B0F55C
:101E7000805F04D1186910B90B48D86601E00B489F
:101E8000D86600BF002083F87C0000BF1868006897
:101E900040F490701C682060002074E7022072E714
:101EA000A5210090C5220090332100905922009076
:101EB0007047000000BF002240211848FFF756FB82
:101EC00000BF17A0FEF70CF94FF47A70FFF753FB31
:101ED00019A0FEF705F94FF47A70FFF74CFB00BF2D
:101EE00000BF00BF00BF00BFBFF34F8F00BF00BFE8
:101EF00000BF1648006800F4E06015490843001D63
:101F00001249086000BF00BF00BFBFF34F8F00BF82
:101F100000BF00BF00BF00BFFDE700000010025877
:101F20004D656D20416363657373204572726F72F6
:101F300021210D0A00000000536F66742052657362
:101F40006574696E672E2E2E0D0A00000CED00E000
:101F50000000FA0510B50248FFF7CEFC10BD0000E6
:101F6000E804002490F8281001F0010139B101685B
:101F7000496821F40031C26A11430268516090F847
:101F8000281001F00201022907D10168496821F4F3
:101F90008031026B11430268516090F8281001F003
:101FA0000401042907D10168496821F48021426BAA
:101FB00011430268516090F8281001F008010829C7
:101FC00007D10168496821F40041826B114302681E
:101FD000516090F8281001F01001102907D1016814
:101FE000896821F48051C26B11430268916090F8B6
:101FF000281001F02001202907D10168896821F407
:102000000051026C11430268916090F8281001F0B1
:102010004001402913D10168496821F48011426CC4
:10202000114302685160416CB1F5801F07D101680E
:10203000496821F4C001826C11430268516090F834
:10204000281001F08001802907D10168496821F436
:102050000021C26C114302685160704738B50446D4
:102060000020C4F88800FFF78BFA05462068006856
:1020700000F0080008280CD16FF07E402B460022AB
:102080004FF400110090204601F0EEFC08B103204F
:1020900038BD2068006800F0040004280CD16FF0FF
:1020A0007E402B4600224FF480010090204601F034
:1020B000DBFC08B10320EBE72020C4F88000C4F863
:1020C000840000BF002084F87C0000BF00BFDFE771
:1020D00070B50546AC6B0020A4F85E00A4F856006D
:1020E0002046FFF7FBFC70BD0168096821F4907180
:1020F0000268116001688968044A114002689160B1
:102100002021C0F884100021C1667047FEFFFFEF58
:1021100010B504462068006820F04000216808607F
:102120002020C4F88000002020672046FFF7C0FE72
:1021300010BD2DE9F0410446B4F86070D4F8840075
:10214000222826D12068406A86B2A56D06EA0700DB
:102150002880A06D801CA065B4F85E00401EA4F825
:102160005E00B4F85E00D0B92068006820F490707A
:10217000216808602068806820F00100216888607C
:102180002020C4F884000020E0662046FFF7FDF917
:1021900005E02068806940F0080021688861BDE89A
:1021A000F08100002DE9F0470446B4F86090D4F8BF
:1021B0008400222843D1B4F8685028E02068406A9F
:1021C0001FFA80F8A76D08EA09003880A06D801C0E
:1021D000A065B4F85E00401EA4F85E00B4F85E008E
:1021E00098B92068006820F4807021680860206831
:1021F000806817490840216888602020C4F884005E
:102200000020E0662046FFF7C0F9681E85B2002D69
:10221000D4D1B4F85E60C6B1B4F86800B04214DD41
:102220002068806820F08050216888600948E06656
:102230002068006840F020002168086005E0206800
:10224000806940F0080021688861BDE8F0870000DF
:10225000FEFFFFEF3321009070B50446B4F86060D4
:10226000D4F88400222826D12068406A85B2F0B2D2
:102270002840A16D0870A06D401CA065B4F85E00F8
:10228000401EA4F85E00B4F85E00D0B92068006873
:1022900020F49070216808602068806820F00100B8
:1022A000216888602020C4F884000020E066204671
:1022B000FFF76BF905E02068806940F008002168AD
:1022C000886170BD2DE9F0410446B4F86080D4F80F
:1022D0008400222843D1B4F8685028E02068406A7E
:1022E00087B208F0FF003840A16D0870A06D401C57
:1022F000A065B4F85E00401EA4F85E00B4F85E006D
:1023000098B92068006820F480702168086020680F
:10231000806817490840216888602020C4F884003C
:102320000020E0662046FFF730F9681E85B2002DD8
:10233000D4D1B4F85E60C6B1B4F86800B04214DD20
:102340002068806820F08050216888600948E06635
:102350002068006840F020002168086005E02068DF
:10236000806940F0080021688861BDE8F0810000C4
:10237000FEFFFFEF592200902DE9F04F89B004468F
:102380004FF00009002007908346F94920688842F1
:1023900000D100E000BF2169A068084361690843DB
:1023A000E16940EA010A606E40EA0A0A20680068B2
:1023B000F049084040EA0A00216808602068406847
:1023C00020F44050E168084321684860D4F818A020
:1023D000E7492068884202D0206A40EA0A0A206859
:1023E0008068E549084040EA0A0021688860206862
:1023F000C06A20F00F00616A08432168C86200BF0C
:10240000DE492068884220D1DD48006800F03800AD
:10241000182811D005DC48B1082809D0102811D19E
:1024200008E020280AD028280CD109E001250BE07B
:10243000042509E0082507E0102505E0202503E034
:10244000402501E0802500BFF8E0CE4920688842A1
:1024500019D1CB48006800F00700062810D2DFE849
:1024600000F0030507090B0D00250BE0042509E02A
:10247000082507E0102505E0202503E0402501E0C0
:10248000802500BFDAE0C0492068884219D1BC48E5
:10249000006800F00700062810D2DFE800F003050E
:1024A00007090B0D00250BE0042509E0082507E0CE
:1024B000102505E0202503E0402501E0802500BF30
:1024C000BCE0B2492068884219D1AD48006800F0EC
:1024D0000700062810D2DFE800F0030507090B0DFE
:1024E00000250BE0042509E0082507E0102505E09C
:1024F000202503E0402501E0802500BF9EE0A4499F
:102500002068884219D19E48006800F0070006281C
:1025100010D2DFE800F0030507090B0D00250BE0E2
:10252000042509E0082507E0102505E0202503E043
:10253000402501E0802500BF80E096492068884260
:1025400020D18F48006800F03800182811D005DC31
:1025500048B1082809D0102811D108E020280AD055
:1025600028280CD109E001250BE0042509E0082505
:1025700007E0102505E0202503E0402501E0802547
:1025800000BF5BE084492068884219D17C4800681C
:1025900000F00700062810D2DFE800F00305070965
:1025A0000B0D00250BE0042509E0082507E01025A8
:1025B00005E0202503E0402501E0802500BF3DE047
:1025C00076492068884219D16D48006800F00700FC
:1025D000062810D2DFE800F0030507090B0D0025DF
:1025E0000BE0042509E0082507E0102505E020257B
:1025F00003E0402501E0802500BF1FE05C49206822
:1026000088421AD15E48001D006800F007000628C5
:1026100010D2DFE800F0030507090B0D02250BE0DF
:10262000042509E0082507E0102505E0202503E042
:10263000402501E0802500BF00E0802500BF4C4917
:102640002068884271D1102D70D006DC022D09D08F
:10265000042D49D0082D6AD1A6E0202D68D0402D48
:10266000F9D1B3E1FEF796FF616A09B9012138E0BB
:10267000616A012901D1022133E0616A022901D195
:1026800004212EE0616A032901D1062129E0616A53
:10269000042901D1082124E0616A052901D10A2118
:1026A0001FE0616A062901D10C211AE0616A07293D
:1026B00001D1102115E0616A082901D1202110E023
:1026C000616A092901D140210BE0616A0A2901D11F
:1026D000802106E0616A0B2902D14FF4807100E08D
:1026E0000121B0FBF1FBB6E104A8FEF758FF059805
:1026F000616A09B9012154E0616A012901D102210D
:102700004FE0616A022901D104214AE0616A03298C
:1027100001D1062145E0616A042901D1082140E088
:10272000616A052905D10A213BE0FDE380E08FE1E4
:102730000BE1616A062901D10C2132E0616A0729A7
:1027400001D110212DE0616A082901D1202128E062
:10275000616A092901D1402123E0616A0A2901D176
:1027600080211EE0616A0B291AD14FF4807118E0B4
:10277000000C0058F369FFCFFFF4FF110010014077
:10278000544402580044004000480040004C0040BF
:10279000005000400014014000780040007C0040E0
:1027A0000121B0FBF1FB56E101A8FEF7FDFE029806
:1027B000616A09B9012138E0616A012901D1022168
:1027C00033E0616A022901D104212EE0616A032904
:1027D00001D1062129E0616A042901D1082124E000
:1027E000616A052901D10A211FE0616A062901D128
:1027F0000C211AE0616A072901D1102115E0616AF4
:10280000082901D1202110E0616A092901D1402164
:102810000BE0616A0A2901D1802106E0616A0B2977
:1028200002D14FF4807100E00121B0FBF1FB12E115
:10283000FA480068C0F3401088B3F8480068C0F355
:10284000C101F748C840616A09B9012139E0616AEC
:10285000012901D1022134E0616A022901D1042158
:102860002FE0616A032901D106212AE0616A042967
:1028700001D1082125E0616A052901D10A2120E062
:10288000616A062901D10C211BE0616A072901D187
:10289000102116E0616A082902D1202111E013E01D
:1028A000616A092901D140210BE0616A0A2901D13D
:1028B000802106E0616A0B2902D14FF4807100E0AB
:1028C0000121B0FBF1FB3FE0606A08B9012038E06C
:1028D000606A012801D1022033E0606A022801D138
:1028E00004202EE0606A032801D1062029E0606AF6
:1028F000042801D1082024E0606A052801D10A20BB
:102900001FE0606A062801D10C201AE0606A0728DF
:1029100001D1102015E0606A082801D1202010E0C4
:10292000606A092801D140200BE0606A0A2801D1C1
:10293000802006E0606A0B2802D14FF4807000E02E
:102940000120B749B1FBF0FB85E0606A08B90120BE
:1029500038E0606A012801D1022033E0606A022871
:1029600001D104202EE0606A032801D1062029E06D
:10297000606A042801D1082024E0606A052801D19A
:102980000A201FE0606A062801D10C201AE0606A64
:10299000072801D1102015E0606A082801D1202005
:1029A00010E0606A092801D140200BE0606A0A2823
:1029B00001D1802006E0606A0B2802D14FF48070BC
:1029C00000E001209749B1FBF0FB44E0606A08B9E0
:1029D000012038E0606A012801D1022033E0606AFA
:1029E000022801D104202EE0606A032801D10620CC
:1029F00029E0606A042801D1082024E0606A0528E3
:102A000001D10A201FE0606A062801D10C201AE0DB
:102A1000606A072801D1102015E0606A082801D1FA
:102A2000202010E0606A092801D140200BE0606A94
:102A30000A2801D1802006E0606A0B2802D14FF4F9
:102A4000807000E001204FF40041B1FBF0FB02E098
:102A50000120079000BF00BFBBF1000F00F0F2871C
:102A6000606800EB4000584503D860680003584593
:102A700003D20120079000F0E5BF102D75D006DCD1
:102A8000022D09D0042D67D0082D6FD1CCE0202D68
:102A90006DD0402DF9D14DE2FEF77CFD8046606A95
:102AA00008B9012238E0606A012801D1022233E02E
:102AB000606A022801D104222EE0606A032801D155
:102AC000062229E0606A042801D1082224E0606A15
:102AD000052801D10A221FE0606A062801D10C22D4
:102AE0001AE0606A072801D1102215E0606A082800
:102AF00001D1202210E0606A092801D140220BE0B8
:102B0000606A0A2801D1802206E0606A0B2802D19F
:102B10004FF4807200E0012294460023404619469B
:102B2000FEF747FD4FF4807300228C46A0FB031E86
:102B30000CFB03E300FB0233606840088C461CEB8F
:102B4000000643EB0201D4F804C06246002330467D
:102B5000FEF72FFD81464EE204A8FEF720FDDDF8CA
:102B600014E0606A20B901223BE0BFE040E282E16C
:102B7000606A012801D1022233E0606A022801D193
:102B800004222EE0606A032801D1062229E0606A4F
:102B9000042801D1082224E0606A052801D10A2214
:102BA0001FE0606A062801D10C221AE0606A07283B
:102BB00001D1102215E0606A082801D1202210E01E
:102BC000606A092801D140220BE0606A0A2801D11D
:102BD000802206E0606A0B2802D14FF4807200E088
:102BE00001229446002370461946FEF7E2FC4FF49A
:102BF000807C0022A0FB0C3E01FB0CE100FB0211DB
:102C0000606840081E185141D4F804C06246002391
:102C10003046FEF7CEFC8146EDE10000004402584C
:102C20000090D00300093D0001A8FEF7BDFCDDF8CF
:102C300008C0606A08B9012238E0606A012801D141
:102C4000022233E0606A022801D104222EE0606A89
:102C5000032801D1062229E0606A042801D1082254
:102C600024E0606A052801D10A221FE0606A062874
:102C700001D10C221AE0606A072801D1102215E068
:102C8000606A082801D1202210E0606A092801D179
:102C900040220BE0606A0A2801D1802206E0606AC7
:102CA0000B2802D14FF4807200E0012296460023E7
:102CB00060461946FEF77DFC4FF4807300228C4677
:102CC000A0FB031E0CFB03E300FB0233606840081B
:102CD0008C461CEB000643EB0201D4F804C06246AC
:102CE00000233046FEF765FC814684E1F848006821
:102CF000C0F3401090B3F6480068C0F3C101F54836
:102D000020FA01FE606A08B9012239E0606A0128F0
:102D100001D1022234E0606A022801D104222FE0AE
:102D2000606A032801D106222AE0606A042801D1E2
:102D3000082225E0606A052801D10A2220E0606AA5
:102D4000062801D10C221BE0606A072801D110225D
:102D500016E0606A082802D1202211E030E0606AA3
:102D6000092801D140220BE0606A0A2801D18022A3
:102D700006E0606A0B2802D14FF4807200E0012265
:102D80009446002370461946FEF713FC4FF48073F7
:102D900000228C46A0FB031E0CFB03E300FB023366
:102DA000606840088C461CEB000643EB0201D4F837
:102DB00004C0624600233046FEF7FBFB814659E023
:102DC000606A08B9012238E0606A012801D1022254
:102DD00033E0606A022801D104222EE0606A0328F1
:102DE00001D1062229E0606A042801D1082224E0EA
:102DF000606A052801D10A221FE0606A062801D115
:102E00000C221AE0606A072801D1102215E0606ADE
:102E1000082801D1202210E0606A092801D140224F
:102E20000BE0606A0A2801D1802206E0606A0B2864
:102E300002D14FF4807200E0012294460023A5489D
:102E40001946FEF7B6FB4FF4807300228C46A0FBB8
:102E5000031E0CFB03E300FB0233606840080E18FE
:102E600043EB0201D4F804C0624600233046FEF76B
:102E7000A0FB8146BFE0606A08B9012238E0606AC1
:102E8000012801D1022233E0606A022801D1042224
:102E90002EE0606A032801D1062229E0606A042836
:102EA00001D1082224E0606A052801D10A221FE02E
:102EB000606A062801D10C221AE0606A072801D155
:102EC000102215E0606A082801D1202210E0606A13
:102ED000092801D140220BE0606A0A2801D1802232
:102EE00006E0606A0B2802D14FF4807200E00122F4
:102EF0009446002378481946FEF75BFB4FF4807335
:102F000000228C46A0FB031E0CFB03E300FB0233F4
:102F1000606840088C461CEB000643EB0201D4F8C5
:102F200004C06246002300E073E03046FEF741FB38
:102F3000814660E0606A08B9012238E0606A0128D1
:102F400001D1022233E0606A022801D104222EE07E
:102F5000606A032801D1062229E0606A042801D1B1
:102F6000082224E0606A052801D10A221FE0606A75
:102F7000062801D10C221AE0606A072801D110222C
:102F800015E0606A082801D1202210E0606A092853
:102F900001D140220BE0606A0A2801D1802206E0BC
:102FA000606A0B2802D14FF4807200E0012294463F
:102FB00000234FF400401946FEF7FBFA4FF48073EC
:102FC00000228C46A0FB031E0CFB03E300FB023334
:102FD000606840088C461CEB000643EB0201D4F805
:102FE00004C0624600233046FEF7E3FA814602E061
:102FF0000120079000BF00BFB9F5407F06D3B9F5A7
:10300000801F03D22068C0F80C9034E5012007909F
:1030100031E5E069B0F5004F71D1082D70D005DCC5
:103020005DB1012D5AD0042D6BD1A7E0102D69D0D0
:10303000202D68D0402DF7D11EE2FEF7BFFA804662
:10304000606A08B9012038E0606A012801D10220D5
:1030500033E0606A022801D104202EE0606A032870
:1030600001D1062029E0606A042801D1082024E06B
:10307000606A052801D10A201FE0606A062801D194
:103080000C201AE0606A072801D1102015E0606A60
:10309000082801D1202010E0606A092801D14020D1
:1030A0000BE0606A0A2801D1802006E0606A0B28E4
:1030B00002D14FF4807000E00120B8FBF0F0400036
:1030C000616800EB5100B0FBF1F01FFA80F920E2DB
:1030D000004402580090D00300093D00FEF773FA47
:1030E0008046606A08B901203DE0606A012801D18C
:1030F000022038E0606A022806D1042033E020E292
:1031000088E003E2D2E06EE1606A032801D1062084
:1031100029E0606A042801D1082024E0606A0528BB
:1031200001D10A201FE0606A062801D10C201AE0B4
:10313000606A072801D1102015E0606A082801D1D3
:10314000202010E0606A092801D140200BE0606A6D
:103150000A2801D1802006E0606A0B2802D14FF4D2
:10316000807000E00120B8FBF0F04000616800EBE7
:103170005100B0FBF1F01FFA80F9CAE104A8FEF794
:103180000EFA0598616A09B9012138E0616A0129DE
:1031900001D1022133E0616A022901D104212EE02C
:1031A000616A032901D1062129E0616A042901D15C
:1031B000082124E0616A052901D10A211FE0616A22
:1031C000062901D10C211AE0616A072901D11021D9
:1031D00015E0616A082901D1202110E0616A0929FE
:1031E00001D140210BE0616A0A2901D1802106E06A
:1031F000616A0B2902D14FF4807100E00121B0FB1C
:10320000F1F04000616800EB5100B0FBF1F01FFAF3
:1032100080F97EE101A8FEF7C7F90298616A09B951
:10322000012138E0616A012901D1022133E0616A9C
:10323000022901D104212EE0616A032901D106216E
:1032400029E0616A042901D1082124E0616A052985
:1032500001D10A211FE0616A062901D10C211AE07F
:10326000616A072901D1102115E0616A082901D19D
:10327000202110E0616A092901D140210BE0616A37
:103280000A2901D1802106E0616A0B2902D14FF49D
:10329000807100E00121B0FBF1F04000616800EBBB
:1032A0005100B0FBF1F01FFA80F932E1F9480068F3
:1032B000C0F3401088B3F7480068C0F3C101F64876
:1032C000C840616A09B9012139E0616A012901D167
:1032D000022134E0616A022901D104212FE0616AF0
:1032E000032901D106212AE0616A042901D10821BC
:1032F00025E0616A052901D10A2120E0616A0629D9
:1033000001D10C211BE0616A072901D1102116E0CF
:10331000616A082902D1202111E01BE0616A0929B4
:1033200001D140210BE0616A0A2901D1802106E028
:10333000616A0B2902D14FF4807100E00121B0FBDA
:10334000F1F04000616800EB5100B0FBF1F01FFAB2
:1033500080F947E0606A08B9012038E0606A012816
:1033600001D1022033E0606A022801D104202EE05E
:10337000606A032801D1062029E0606A042801D18F
:10338000082024E0606A052801D10A201FE0606A55
:10339000062801D10C201AE0606A072801D110200C
:1033A00015E0606A082801D1202010E0606A092831
:1033B00001D140200BE0606A0A2801D1802006E09C
:1033C000606A0B2802D14FF4807000E00120B249FE
:1033D000B1FBF0F04000616800EB5100B0FBF1F090
:1033E0001FFA80F995E0606A08B9012038E0606A48
:1033F000012801D1022033E0606A022801D10420B3
:103400002EE0606A032801D1062029E0606A0428C2
:1034100001D1082024E0606A052801D10A201FE0BC
:10342000606A062801D10C201AE0606A072801D1E1
:10343000102015E0606A082801D1202010E0606AA1
:10344000092801D140200BE0606A0A2801D18020C0
:1034500006E0606A0B2802D14FF4807000E0012082
:103460008E49B1FBF0F04000616800EB5100B0FB09
:10347000F1F01FFA80F94CE0606A08B9012038E0E9
:10348000606A012801D1022033E0606A022801D17C
:1034900004202EE0606A032801D1062029E0606A3A
:1034A000042801D1082024E0606A052801D10A20FF
:1034B0001FE0606A062801D10C201AE0606A072824
:1034C00001D1102015E0606A082801D1202010E009
:1034D000606A092801D140200BE0606A0A2801D106
:1034E000802006E0606A0B2802D14FF4807000E073
:1034F00001204FF40041B1FBF0F04000616800EBA7
:103500005100B0FBF1F01FFA80F902E001200790B2
:1035100000BF00BFB9F1100F10D3B9F5803F0DD235
:103520004FF6F07009EA00000890C9F342010898CC
:103530000843089008982168C86083E2012007903A
:1035400080E2082D72D005DC5DB1012D53D0042D31
:103550006DD1A5E0102D6BD0202D6AD0402D66D105
:1035600017E2FEF72BF88046606A08B9012038E0C0
:10357000606A012801D1022033E0606A022801D18B
:1035800004202EE0606A032801D1062029E0606A49
:10359000042801D1082024E0606A052801D10A200E
:1035A0001FE0606A062801D10C201AE0606A072833
:1035B00001D1102015E0606A082801D1202010E018
:1035C000606A092801D140200BE0606A0A2801D115
:1035D000802006E0606A0B2802D14FF4807000E082
:1035E0000120B8FBF0F0616800EB5100B0FBF1F096
:1035F0001FFA80F919E2FDF7E6FF8046606A08B914
:1036000001203CE0606A012801D1022037E0606AB5
:10361000022801D1042032E0606A032801D106208B
:103620002DE0606A042805D1082028E083E0F9E154
:10363000CCE066E1606A052801D10A201FE0606ADB
:10364000062801D10C201AE0606A072801D1102059
:1036500015E0606A082801D1202010E0606A09287E
:1036600001D140200BE0606A0A2801D1802006E0E9
:10367000606A0B2802D14FF4807000E00120B8FB93
:10368000F0F0616800EB5100B0FBF1F01FFA80F937
:10369000CBE10000004402580090D00300093D0037
:1036A00004A8FDF77CFF0598616A09B9012138E09B
:1036B000616A012901D1022133E0616A022901D145
:1036C00004212EE0616A032901D1062129E0616A03
:1036D000042901D1082124E0616A052901D10A21C8
:1036E0001FE0616A062901D10C211AE0616A0729ED
:1036F00001D1102115E0616A082901D1202110E0D3
:10370000616A092901D140210BE0616A0A2901D1CE
:10371000802106E0616A0B2902D14FF4807100E03C
:103720000121B0FBF1F0616800EB5100B0FBF1F05A
:103730001FFA80F979E101A8FDF736FF0298616A66
:1037400009B9012138E0616A012901D1022133E080
:10375000616A022901D104212EE0616A032901D1A5
:10376000062129E0616A042901D1082124E0616A67
:10377000052901D10A211FE0616A062901D10C2126
:103780001AE0616A072901D1102115E0616A082950
:1037900001D1202110E0616A092901D140210BE00B
:1037A000616A0A2901D1802106E0616A0B2902D1F0
:1037B0004FF4807100E00121B0FBF1F0616800EB93
:1037C0005100B0FBF1F01FFA80F92EE1A348006828
:1037D000C0F3401088B3A1480068C0F3C101A048FD
:1037E000C840616A09B9012139E0616A012901D142
:1037F000022134E0616A022901D104212FE0616ACB
:10380000032901D106212AE0616A042901D1082196
:1038100025E0616A052901D10A2120E0616A0629B3
:1038200001D10C211BE0616A072901D1102116E0AA
:10383000616A082902D1202111E01AE0616A092990
:1038400001D140210BE0616A0A2901D1802106E003
:10385000616A0B2902D14FF4807100E00121B0FBB5
:10386000F1F0616800EB5100B0FBF1F01FFA80F954
:1038700046E0606A08B9012038E0606A012801D199
:10388000022033E0606A022801D104202EE0606A41
:10389000032801D1062029E0606A042801D108200C
:1038A00024E0606A052801D10A201FE0606A06282A
:1038B00001D10C201AE0606A072801D1102015E020
:1038C000606A082801D1202010E0606A092801D12F
:1038D00040200BE0606A0A2801D1802006E0606A7F
:1038E0000B2802D14FF4807000E001205C49B1FB4D
:1038F000F0F0616800EB5100B0FBF1F01FFA80F9C5
:1039000093E0606A08B9012038E0606A012801D1BB
:10391000022033E0606A022801D104202EE0606AB0
:10392000032801D1062029E0606A042801D108207B
:1039300024E0606A052801D10A201FE0606A062899
:1039400001D10C201AE0606A072801D1102015E08F
:10395000606A082801D1202010E0606A092801D19E
:1039600040200BE0606A0A2801D1802006E0606AEE
:103970000B2802D14FF4807000E001203949B1FBDF
:10398000F0F0616800EB5100B0FBF1F01FFA80F934
:103990004BE0606A08B9012038E0606A012801D173
:1039A000022033E0606A022801D104202EE0606A20
:1039B000032801D1062029E0606A042801D10820EB
:1039C00024E0606A052801D10A201FE0606A062809
:1039D00001D10C201AE0606A072801D1102015E0FF
:1039E000606A082801D1202010E0606A092801D10E
:1039F00040200BE0606A0A2801D1802006E0606A5E
:103A00000B2802D14FF4807000E001204FF40041F8
:103A1000B1FBF0F0616800EB5100B0FBF1F01FFA70
:103A200080F902E00120079000BF00BFB9F1100F3C
:103A300006D3B9F5803F03D22068C0F80C9001E0AE
:103A4000012007900120A4F86A00A4F86800002073
:103A5000E0662067079809B0BDE8F08F004402587F
:103A60000090D00300093D002DE9F04104460D46C9
:103A700017469846069E4AE0701C002847D0FDF77E
:103A80007FFDA0EB0800B04200D8C6B920680068EE
:103A900020F4D070216808602068806820F0010060
:103AA000216888602020C4F88000C4F8840000BF2A
:103AB000002084F87C0000BF0320BDE8F08120686E
:103AC000006800F0040010B32068C069C0F3C02093
:103AD000E8B14FF40060216808622068006820F4B3
:103AE000D070216808602068806820F0010021689B
:103AF00088602020C4F88000C4F88400C4F88800DE
:103B000000BF002084F87C0000BF0320D5E72068B8
:103B1000C0692840A84201D1012000E00020B8423D
:103B2000AAD00020C9E703B401984100009850EAE8
:103B3000C12018BF04204A0D18BF40F0010040F218
:103B4000FF72B2EB515F08BF40F00200012808BFCE
:103B5000052002B0704770B50446002508E02168D2
:103B6000481C20600878303805EB850100EB4105E2
:103B70002168087800F004F80028F0D1284670BDCC
:103B80000146302903DB392901DC01207047002080
:103B9000FCE730380A2801D2012070470020704726
:103BA00010B54021074801F0E3FA0022042106483D
:103BB0002BF040F80549086002F000FE002004499F
:103BC000087010BD90D6052489680090BC020024BE
:103BD000B802002430B50346B1F90040B2F90050F4
:103BE000AC4202DDB1F9004001E0B2F900401C80B6
:103BF000B1F90240B2F90250AC4202DDB1F9024023
:103C000001E0B2F902405C80B1F90440B2F904501D
:103C1000AC4202DAB1F9044001E0B2F904409C8000
:103C2000B1F90640B2F90650AC4202DAB1F90640E9
:103C300001E0B2F90640DC800120B3F90040B3F99D
:103C40000450AC4205DCB3F90240B3F90650AC4273
:103C500000DD002030BDF8B504460D4616460027AD
:103C6000B4F90000B5F90010884212DBB4F9020083
:103C7000B5F9021088420CDBB4F90400B5F9041060
:103C8000884206DCB4F90600B5F90610884200DC6B
:103C900001270FB90020F8BD0EB90120FBE72088ED
:103CA000ADF800006088ADF802003246694628464B
:103CB00000F0A7F808B90020EDE7A088ADF80000F3
:103CC0006088ADF8020032466946284600F099F84F
:103CD00008B90020DFE72088ADF80000E088ADF8E3
:103CE000020032466946284600F08BF808B90020E9
:103CF000D1E7A088ADF80000E088ADF802003246B8
:103D00006946284600F07DF808B90020C3E7012085
:103D1000C1E70246B2F90000B1F90430984213DC61
:103D2000B2F90400B1F9003098420DDBB2F902009B
:103D3000B1F90630984207DCB2F90600B1F9023059
:103D4000984201DB012070470020FCE7F8B50446EB
:103D50000D461646B4F90400B5F90010884211DB8F
:103D6000B4F90600B5F9021088420BDBB4F9000083
:103D7000B5F90410884205DCB4F90200B5F9061063
:103D8000884201DD0120F8BD0EB90020FBE7208844
:103D9000ADF800006088ADF802003246694628465A
:103DA00000F02FF808B10020EDE7A088ADF8000082
:103DB0006088ADF8020032466946284600F021F8D6
:103DC00008B10020DFE72088ADF80000E088ADF8FA
:103DD000020032466946284600F013F808B1002078
:103DE000D1E7A088ADF80000E088ADF802003246C7
:103DF0006946284600F005F808B10020C3E7012015
:103E0000C1E72DE9FC5F05460E4614464FF0000A57
:103E1000B6F90000B5F90010884213DBB6F90000CE
:103E2000B5F9041088420DDCB6F90200B5F90210AC
:103E3000884207DBB6F90200B5F90610884201DCBA
:103E40004FF0010ABAF1000F02D10020BDE8FC9F3B
:103E5000002C01DC0120F9E7284616F05EFD8346C0
:103E600000EBDB704710284616F0CFFC834600EBD2
:103E7000DB704FEA6008474501DA384600E040460B
:103E800081464C4500DD4C462888ADF80000288866
:103E9000204400B2ADF804006888ADF802006888DC
:103EA000204400B2ADF80600002231466846FFF714
:103EB000A8FF80B1BDF80400204400B2ADF80400B2
:103EC000BDF80600204400B2ADF806003146684651
:103ED00027F07AFABAE7E888001B00B2ADF80200D2
:103EE000E888ADF80600002231466846FFF789FFF2
:103EF00080B1BDF80400204400B2ADF80400BDF864
:103F00000200001B00B2ADF802003146684627F0FF
:103F10005BFA9BE7A888001B00B2ADF80000A888F8
:103F2000ADF80400002231466846FFF76AFF80B111
:103F3000BDF80000001B00B2ADF80000BDF80200A3
:103F4000001B00B2ADF802003146684627F03CFA8B
:103F50007CE76888ADF802006888204400B2ADF8BC
:103F60000600002231466846FFF74BFF80B1BDF8DE
:103F70000000001B00B2ADF80000BDF806002044B0
:103F800000B2ADF806003146684627F01DFA5DE73D
:103F900001205BE710B5B1F90030B2F90040A3424F
:103FA00002DAB1F9003001E0B2F900300380B1F972
:103FB0000230B2F90240A34202DAB1F9023001E064
:103FC000B2F902304380B1F90430B2F90440A3429F
:103FD00002DDB1F9043001E0B2F904308380B1F9B7
:103FE0000630B2F90640A34202DDB1F9063001E025
:103FF000B2F90630C38010BD2DE9FF4104462AF016
:10400000BAFD05460020039034B14749E0680860D6
:1040100020462AF027FF03E019F0DCFA4249086045
:1040200041490968086927F02DF93F48006840694F
:1040300020B13D490968486927F024F93A490968DF
:10404000C86927F01FF938490968086A27F01AF982
:1040500035480068006940B9002033490968A1F873
:10406000500100BF00BFBDE8FF8127F0ADFC27F085
:10407000F3FB2D480068B0F8500100284BD02A48C7
:1040800000680068007CC0F34000E8B12648006882
:1040900019F01EFB401E06B22348006819F0B2FA60
:1040A000401E07B23B460022114601A8009616F0BA
:1040B00079FC01A81C4909680968896B48601A489D
:1040C000006805F0B7FD00BF4FF480711648006826
:1040D000303021F038FB20211348006800F598703B
:1040E00021F031FB002010490968A1F85001284651
:1040F0002AF034FD03900C4800680068406A50B113
:104100000949096808680849096809684B6A074944
:104110000A680399984721F04DF800F03FF800F045
:1041200007F800BF9FE700006C010024680100242D
:1041300010B5002416E0C4EBC4000C4951F820006F
:1041400030B1C4EBC401094A52F8210021F0E4F86F
:10415000C4EBC401054A02EB81001C2121F0F3FAF3
:10416000601CC4B2042CE6DB10BD00006CD7052433
:104170000146094A10680BE042688A4202D0026890
:104180008A4204D1027E22F00102521C027640696A
:104190000028F1D170470000400100247047000062
:1041A00010B50421014800F0E3FF10BD84D60524BA
:1041B00010B51C21014800F0DBFF10BD9CD6052482
:1041C0002DE9FF4F8BB004469A46199DBAF1000FB6
:1041D00011D11898B0F5807F0DD10020208060802B
:1041E0000C98401E00B2A0800D98401E00B2E080E6
:1041F0000FB0BDE8F08FB5F9000040421899484370
:104200000121C1EB202000B22080B5F9020040421C
:10421000189948430121C1EB202000B26080B5F914
:1042200000100C98401A18994843022101EB2020F5
:1042300000B2A080B5F902100D98401A18994843B1
:10424000022101EB202000B2E080BAF1000F14D16E
:1042500020882988084400B2208060886988084442
:1042600000B26080A0882988084400B2A080E0885D
:104270006988084400B2E080BAE70A209AFBF0F0AF
:104280000A900A98401C09900A9800EB8000AAEB5B
:10429000400B0A9800B22AF06BFF0890099800B210
:1042A0002AF066FF07900A985A3000B22AF060FFA1
:1042B000069009985A3000B22AF05AFF0590CBF1C7
:1042C0000A0108984143079800FB0B100A2190FB54
:1042D000F1F6CBF10A0106984143059800FB0B105B
:1042E0000A2190FBF1F776117F11B4F90080B4F93F
:1042F000029007FB08F006FB1900298801EBA020BB
:1043000000B2ADF8100006FB08F007FB0900698851
:1043100001EBA02000B2ADF81200B4F90480B4F9AA
:10432000029007FB08F006FB1900298801EBA0208A
:1043300000B2ADF80C0006FB08F007FB0900698825
:1043400001EBA02000B2ADF80E00B4F90080B4F982
:10435000069007FB08F006FB1900298801EBA02056
:1043600000B2ADF8080006FB08F007FB09006988F9
:1043700001EBA02000B2ADF80A00B4F90480B4F952
:10438000069007FB08F006FB1900298801EBA02026
:1043900000B2ADF8040006FB08F007FB09006988CD
:1043A00001EBA02000B2ADF80600BDF90800BDF990
:1043B0001010884202DABDF9080001E0BDF91000D2
:1043C000BDF90410BDF90C20914202DABDF90410C8
:1043D00001E0BDF90C1088420BDABDF90800BDF907
:1043E0001010884202DABDF908000DE0BDF9100096
:1043F0000AE0BDF90400BDF90C10884202DABDF9EB
:10440000040001E0BDF90C002080BDF90800BDF9F1
:104410001010884202DDBDF9080001E0BDF910006E
:10442000BDF90410BDF90C20914202DDBDF9041064
:1044300001E0BDF90C1088420BDDBDF90800BDF9A3
:104440001010884202DDBDF908000DE0BDF9100032
:104450000AE0BDF90400BDF90C10884202DDBDF987
:10446000040001E0BDF90C00A080BDF90A00BDF90F
:104470001210884202DABDF90A0001E0BDF912000B
:10448000BDF90610BDF90E20914202DABDF9061001
:1044900001E0BDF90E1088420BDABDF90A00BDF942
:1044A0001210884202DABDF90A000DE0BDF91200CF
:1044B0000AE0BDF90600BDF90E10884202DABDF926
:1044C000060001E0BDF90E006080BDF90A00BDF9EB
:1044D0001210884202DDBDF90A0001E0BDF91200A8
:1044E000BDF90610BDF90E20914202DDBDF906109E
:1044F00001E0BDF90E1088420BDDBDF90A00BDF9DF
:104500001210884202DDBDF90A000DE0BDF912006B
:104510000AE0BDF90600BDF90E10884202DDBDF9C2
:10452000060001E0BDF90E00E08000BF60E62DE965
:10453000F74F86B0044620680590B4F90810079834
:10454000A0EB0108B4F90A100898A0EB0109E08972
:10455000B0F5807F13D1206B00FB08F0E16A01FB0E
:104560001901606A00EBA10BE06A00FB08F0216B07
:1045700001FB0901A06A00EBA10004902FE0A089D3
:1045800080B9A06B00FB08F04FEA6018A06B00FB3D
:1045900009F04FEA6019606A00EB080BA06A484412
:1045A00004901CE0A06B00FB08F04FEA6018A06BC1
:1045B00000FB09F04FEA6019206B00FB08F0E16A8C
:1045C00001FB1901606A00EBA12BE06A00FB08F017
:1045D000216B01FB0901A06A00EBA12004904FEAC6
:1045E0002B2604980712B4F90400B04203DC002023
:1045F00009B0BDE8F08F002E01DA0020F8E7B4F929
:104600000600B84201DC0020F2E7002F01DA0020AA
:10461000EEE73420005DC0F3800050B33420005D2D
:10462000C0F3400078B90225B4F904007843684328
:1046300006FB050A059800EB0A012A4604F114005E
:1046400021F02FF82CE00325B4F9040078436843E7
:1046500006FB050A6A1E059800EB0A0104F1140026
:1046600021F01FF80AEB0500401E0599095CA175B1
:1046700016E04FF0000A0025208A03463AB231B214
:10468000019004F118001DF0D9FC0290BDF808005B
:10469000A0823AB231B204F118001DF02FFCA075CF
:1046A0003420005D00F00100B0B14FF47F400021E4
:1046B00000F47C4241EA5211C0F3C402114301915B
:1046C000BDF8042011460291A08ABDF80810884266
:1046D00001D100208CE700BFE07C08B9012087E70A
:1046E0000FFA8BF1A187049801B2E18731B2402023
:1046F000015339B242200153C4F844A084F8485011
:10470000204600F003F80390039871E72DE9F04F7D
:104710008DB00446D4F8009094F83C000C9094F8C6
:104720003E000B900C9870280BDA4FF0FF35B4F96F
:1047300040002844002800DA00250C988030C7B2D9
:1047400013E00C9890280EDD0125B4F940002844B0
:10475000B4F90410884200DB00250C98C0F1FF007A
:104760008030C7B201E00025FF270B9870280CDAD3
:104770004FF0FF36B4F942003044002800DA00263A
:104780000B98803000F0FF0815E00B9890280FDDA3
:104790000126B4F942003044B4F90610884200DB27
:1047A00000260B98C0F1FF00803000F0FF0802E007
:1047B00000264FF0FF08A08A0A90A07D06900020F6
:1047C0000590049003903420005DC0F38000002821
:1047D0005BD094F84800626C00FB052000EB0901F7
:1047E000022209A820F05DFFA28894F8480012FB7D
:1047F00000F2606C02FB060000EB0901022208A82F
:1048000020F04FFFA28894F8480012FB00F2606C81
:1048100002FB060294F8480000FB052000EB0901AA
:10482000022207A820F03DFF3420005DC0F34000C5
:1048300000287ED094F84800616C00FB0511084404
:10484000401E19F800000590A18894F8480011FB5B
:1048500000F1606C01FB060194F848000844401E1A
:1048600019F800000490A18894F8480011FB00F1A9
:10487000606C01FB060194F8480000FB0511084438
:10488000401E19F80000039053E0208A0090B4F90C
:1048900042204020005B284401B204F11800009B34
:1048A0001DF0CCFB0990208A00904220005B304430
:1048B00002B2B4F9401004F11800009B1DF0BEFBD9
:1048C0000890208A00904220005B304402B24020D1
:1048D000005B284401B204F11800009B1DF0AEFB00
:1048E00007903420005DC0F3400010B3B4F94220BB
:1048F0004020005B284401B204F118001DF0FEFACC
:1049000005904220005B304402B2B4F9401004F13B
:1049100018001DF0F3FA04904220005B304402B20C
:104920004020005B284401B204F118001DF0E6FAB3
:104930000390BA46BB463420005DC0F34000E0B3AC
:1049400006987843C7F1FF0C059B03FB0C00C0F3EE
:10495000072104987843C7F1FF0C039B03FB0C006D
:10496000C0F3072201FB08F0C8F1FF0302FB0300BC
:10497000030AA375022905DC022A03DC00200DB01E
:10498000BDE8F08F022901DC4FF00008022A01DCAB
:104990004FF0FF080698022801DC4FF0000A059846
:1049A000022801DC4FF0FF0A0498022801DC4FF0D6
:1049B000000B0398022803DC00E002E04FF0FF0B3D
:1049C00003E0BA46BB46FF21A175BAF1000F02D140
:1049D000099802900BE0BAF1FF0F02D10A980290F9
:1049E00005E05246DDE9091018F062F80290BBF1CB
:1049F000000F02D1079801900BE0BBF1FF0F02D12D
:104A00000898019005E05A46DDE9071018F050F8C3
:104A10000190B8F1000F03D1BDF80400A0820FE0AF
:104A2000B8F1FF0F03D1BDF80800A08208E04246AC
:104A3000DDE9011018F03CF80090BDF80000A082FC
:104A400001209CE72DE9F05F0446B4F9080001025B
:104A50006162B4F90A000102A162B4F90C000A21F2
:104A600090FBF1F56F1CB4F90C0005EB8501A0EB90
:104A70004106684200B22AF07BFB8046784200B2D1
:104A80002AF076FB8146C5F15A0000B22AF070FB8D
:104A90008246C7F15A0000B22AF06AFB8346C6F18B
:104AA0000A0000FB08F009FB06000A2190FBF1F167
:104AB000E162C6F10A0000FB0AF00BFB06000A21C6
:104AC00090FBF1F12163E06A4111E162206B411139
:104AD0002163A07C1DF0C1FB3421095D60F300015E
:104AE00034200155A07C1DF09BFB3421095D60F34F
:104AF000410134200155A07C042805D0A07C052864
:104B000002D0A07C062807D13420005D20F00400EC
:104B1000001D3421085505E03420005D20F004011B
:104B20003420015521682162A06920F0E000A061D5
:104B3000A17CA06961F30400A061A188A06961F370
:104B40009420A061E188A06961F35F50A061E089D1
:104B500000EBD071491001F5001191FBF0F2A26356
:104B6000FF21A175208AA082BDE8F09F2DE9F743BF
:104B7000054616460024134C29F0FDFF80463346B7
:104B800029462046019A1EF017F807465FB900BF74
:104B900000BF2C21204620F0D6FD4FF00040A0623F
:104BA0000020BDE8FE830020A062E06918B94046FD
:104BB00029F0D4FFE061E06908B90120E0612046F6
:104BC000EFE70000C0D6052410B51421114800F00D
:104BD000CFFA1DF0A3FF044600BF1CB900BF00BF01
:104BE00000BFFEE700BF14B900BF00BF10BD0A49F7
:104BF00020461EF07BF8094920461EF079F8084946
:104C000020461EF077F8074920461EF06DF800BFD9
:104C1000ECE70000A8D60524392302900D28029065
:104C2000292A02900123029070B504460D461021F6
:104C3000284620F088FD20680078012804D1208AC9
:104C40002880608A68800CE020680078022802D101
:104C5000E068686005E020680078042801D10A2037
:104C600068602068406820B1206829464268904703
:104C700001E000BF00BF70BD2DE9FE430446A66AF7
:104C8000EEB9A18A208A084401B2A182E18A608A31
:104C9000084401B2E18220460CF0E9FC06460EB958
:104CA000BDE8FE83204610F0CBFB002209213046F0
:104CB0001CF064F96078C0F3400000B1F0E7208A8E
:104CC00010B9608A002870D000200290019094F8FA
:104CD0003C0000F00F00032812D1304622F0ECFD1A
:104CE0000746304622F070FD804603200090B4F95C
:104CF00010103B46424630460BF0B0FF029012E0E7
:104D0000304622F05BFE0746304622F0CFFC80465C
:104D10000C200090B4F9121043463A4630460BF08E
:104D20009DFF019000BF304622F020FD054605F0B2
:104D3000010028B9BDF90800002801DD002002901B
:104D400005F0020028B9BDF90800002801DA0020AA
:104D5000029005F0040028B9BDF90400002801DD27
:104D60000020019005F0080028B9BDF904000028D2
:104D700001DA0020019001AA02A920462CF0B6FF1A
:104D80000023BDF90420BDF90810304625F0F4FCDD
:104D9000A08ABDF80810084401B2A182E08ABDF8DB
:104DA0000410084401B2E18200BF00BF78E72DE99A
:104DB000F84F0446D4F828B0BBF1000F01D1BDE88C
:104DC000F88F94F83C0000F00F0000B9F7E71EF0F0
:104DD00075FA06463068477E4021584624F0F6F9B9
:104DE00010B9002161832183584622F0D3FD80460B
:104DF000584622F0D9FD054694F83C0000F00F001B
:104E00000C2843D1002121831DBBB4F91A00C7F13E
:104E100064014843642190FBF1F001B2618358467C
:104E200022F044FC8146584622F0C8FD82460C2000
:104E30000090B4F91A104B46524658460BF00EFF3C
:104E40006083B4F91A2000231946584625F094FCD3
:104E500069E020462CF0A1FF0090002161836A46A2
:104E600020462CF043FFBDF9003041F6FF7251425D
:104E700058460CF0A5FD8146BDF80000484402B23A
:104E800001230021584625F077FC4CE094F83C00C3
:104E900000F00F00032846D100216183B8F1000F14
:104EA00023D1B4F91800C7F164014843642190FB91
:104EB000F1F001B22183584622F086FC8146584623
:104EC00022F0FAFC824603200090B4F918105346F1
:104ED0004A4658460BF0C2FE2083B4F9181000234E
:104EE0001A46584625F048FC1DE020462CF03AFFB3
:104EF0000090002121830022694620462CF0F6FE16
:104F0000BDF9003041F6FF72514258460CF0BEFC2C
:104F10008146BDF80000484401B2012300225846F2
:104F200025F02AFC00BF208B002860D1608B002870
:104F30005DD11DBB584622F041FD8146584622F006
:104F4000B5FB8246B9F1000F02DCBAF1000F14DDA7
:104F5000B9F1000F06DA01234A460021584625F030
:104F60000BFC0AE0BAF1000F07DA0123CAF10000D6
:104F700002B20021584625F0FFFB00BFB8F1000F38
:104F800023D1584622F020FC8146584622F094FC5A
:104F90008246B9F1000F02DCBAF1000F14DDB9F15D
:104FA000000F06DA012300224946584625F0E4FBAB
:104FB0000AE0BAF1000F07DA01230022CAF100006B
:104FC00001B2584625F0D8FB00BF32460A215846A8
:104FD0001BF0D4FF6078C0F3400000B1EFE694F816
:104FE0003C0020F00F0184F83C100021A16200BFBA
:104FF000E5E62DE9FF4104460F4614B918F0EAFA38
:1050000004460CB9BDE8FF811FB90020A4F8500187
:10501000F8E70020ADF80800ADF80A00204618F0C7
:10502000F1FA401E00B2ADF80C00204618F050FB1B
:10503000401E00B2ADF80E0002AA39466846FEF7DF
:10504000C9FD064606B9DDE72068007CC0F34000D4
:1050500060B102982063039860630120A4F85001B6
:10506000606810B1606829F009FFCBE720688069AB
:1050700018B1206869468269904700250BE004F169
:10508000300000EBC50100226846FEF7E4FD00B1E8
:10509000B8E7681C85B2B4F85001A842EFDCB4F858
:1050A0005001202809DAB4F8502104F1300101EB55
:1050B000C200694615F019FB0BE00020A4F850016E
:1050C000B4F8502104F1300101EBC20002A915F03F
:1050D0000CFBB4F85001401CA4F85001606810B1FA
:1050E000606829F0CBFE00BF8CE770B50546284606
:1050F00000F013F8044600260CE02146284600F094
:1051000024F806462146284600F086F8204620F07E
:1051100003F93446002CF0D170BD014609B90020D6
:1051200070474868FCE770B5064600243046FFF734
:10513000F4FF054605E0641C2946304600F005F8FA
:105140000546002DF7D1204670BD02460B4610687B
:10515000001D03441868704702460B46106803445C
:1051600018687047014609B9002070478868FCE755
:10517000002242608260CA1C22F003010160704775
:1051800070B50446216801F108001FF0F7FF0546DD
:10519000A5B10022294620462BF010F929462046C9
:1051A00062682BF0FDF8606820B12A4620466168ED
:1051B0002BF004F96560A06800B9A560284670BDB1
:1051C00070B50446216801F108001FF0D7FF0546BD
:1051D000A5B10022294620462BF0E2F829462046B8
:1051E000A2682BF0EBF8A06820B12A462046A168FF
:1051F0002BF0D6F8A560606800B96560284670BDE0
:10520000014609B901207047486818B9886808B98B
:105210000120F8E70020F6E72DE9F04104460D46AD
:105220000CB9BDE8F0812046FFF777FFA8420FD107
:1052300029462046FFF789FF6060606810B90020AA
:10524000A0602FE00022204661682BF0B7F829E02B
:105250002046FFF787FFA8420FD129462046FFF7D7
:105260007BFFA060A06810B9002060601AE00022F7
:105270002046A1682BF094F814E029462046FFF759
:105280006BFF064629462046FFF75FFF07463A4672
:10529000314620462BF084F83246394620462BF022
:1052A0008DF800BF00BFBCE710B5044620688068D9
:1052B00018B120682146826890472068006828B1AC
:1052C0002068006820602046FFF7EEFF10BD014611
:1052D000886818B18868B0F9160070470020FCE7AC
:1052E0002DE9F04F93B005468B4691469A461C9E99
:1052F000688C20F00400001D6884A5F82090328995
:105300005946284623F0DEFC1290A5F820A03289E9
:105310005946284623F0D6FC1190688C20F00400F2
:105320006884DDE9111088420CD1DDE91110884252
:1053300008D1BDF84800BDF84410884202D113B02E
:10534000BDE8F08FA5F8209032895946284623F011
:10535000B9FC1290A5F820A0594628460EF047FA4D
:1053600010903189109A1068129A28F0C0F830898C
:10537000602833D147F6FF711298884202D0119805
:1053800088422BD1284623F0C4FE0F9000EBD0704A
:105390004710284623F0BDFE0F9000EBD0704FEA77
:1053A000600847F6FF711298884208D1781C08F10E
:1053B0000101884200DA01E008F10100129047F68D
:1053C000FF711198884208D1781C08F101018842C8
:1053D00000DA01E008F10100119000BF2448FFF756
:1053E000CFFE044600BF1CB900BF00BF00BFFEE7F0
:1053F00000BF04B9A3E71298E06011982061ACB334
:1054000025603089A080C4F808B0684614F034FBE9
:105410002146684614F0E3FB1649684614F0AFFBDA
:105420001548029000BF1549684614F0B6FBFF22EC
:105430000021684614F0C3FB3188684614F0B5FBC0
:105440007188684614F096FBF068069000BF6846C5
:10545000002190F83E2061F3000280F83E2000BF5A
:1054600030690590684614F0D1FB00BF00BF66E7C5
:10547000B4D60524716103901D6403904D630390BD
:1054800010B514210148FFF773FE10BDB4D60524F2
:105490002DE9FE4F04460F4690464FF000090025C7
:1054A0006BE1E06800EBC5004068C0F3406000B10C
:1054B00062E1E16801EBC501496821F07F4025F018
:1054C000DEFE064626EA070008B9012000E00020BB
:1054D000029026EA080008B9012000E000200190AF
:1054E000DDE90101814272D0E06850F835A04FF04B
:1054F000000B6A4641F61001504627F091FC10B1AE
:105500004FF0010BA9E06A4641F61101504627F021
:1055100087FC10B14FF0010B9FE06A4641F6120183
:10552000504627F07DFC10B14FF0010B95E06A4624
:1055300041F61301504627F073FC10B14FF0010BF8
:105540008BE06A4641F61501504627F069FC10B120
:105550004FF0010B81E06A4641F61401504627F0F6
:105560005FFC10B14FF0010B77E06A4641F2690130
:10557000504627F055FC10B14FF0010B6DE06A4624
:1055800043F20C01504627F04BFC10B14FF0010BD9
:1055900063E06A4643F20D01504627F041FC10B12A
:1055A0004FF0010B59E06A4641F20101504627F0E5
:1055B00037FC10B14FF0010B4FE06A4641F2040195
:1055C000504627F02DFC18B14FF0010B45E0D2E01A
:1055D0006A4641F20201504627F022FC10B14FF01A
:1055E000010B3AE06A4641F20301504627F018FCED
:1055F00010B14FF0010B30E06A4641F20501504610
:1056000027F00EFC10B14FF0010B26E06A4641F284
:105610000601504627F004FC10B14FF0010B1CE0CE
:105620006A4641F23201504627F0FAFB10B14FF0C2
:10563000010B12E06A4643F60F01504627F0F0FBDB
:1056400010B14FF0010B08E06A4643F60E015046D8
:1056500027F0E6FB08B14FF0010BBBF1000F02D0C1
:105660000320BDE8FE8F6A4640F60A01504627F047
:10567000D7FB10B14FF002097CE06A4640F60B01FF
:10568000504627F0CDFB10B14FF0020972E06A4698
:1056900043F60F01504627F0C3FB10B14FF002094B
:1056A00068E06A4643F60E01504627F0B9FB10B198
:1056B0004FF002095EE06A4640F63C01504627F092
:1056C000AFFB10B14FF0020954E06A4640F63D01CD
:1056D000504627F0A5FB10B14FF002094AE06A4698
:1056E00040F63A01504627F09BFB10B14FF00209FB
:1056F00040E06A464FF40461504627F091FB10B138
:105700004FF0020936E06A4640F64501504627F060
:1057100087FB10B14FF002092CE06A4640F64101C8
:10572000504627F07DFB10B14FF0020922E06A4697
:1057300040F64201504627F073FB10B14FF00209CA
:1057400018E06A4640F64301504627F069FB10B165
:105750004FF002090EE06A4640F64901504627F034
:105760005FFB10B14FF0020904E0B9F1000F01D165
:105770004FF0010900BF00BF6D1C608CC0F3C50075
:10578000A8423FF68EAE48466BE70000014800682D
:10579000704700006C01002470470146C1F30412F9
:1057A000072A00DD0722D0B27047000010B518218B
:1057B0000348FFF7DDFC012029F078FA10BD000056
:1057C00060D605242DE9F04105460F4616460DB971
:1057D000BDE8F0812846FAF71DFE80463946284686
:1057E0000A4A126890470746E8193146074A126884
:1057F000904706463C4603E0A019285C2855641CE7
:10580000A8EB0600A042F7D200BFE1E7080300249E
:105810002DE9F04106460C4617461D4629463046FE
:10582000084A126890472060206830B129688819BA
:105830000021044A1268904700E000203860BDE86B
:10584000F0810000000300242DE9F04F87B00446EA
:105850000F4692469846DDE910560DB1002028808B
:105860001CB9002007B0BDE8F08F207808B90020EF
:10587000F8E70FB90020F5E74FF0000906F0020045
:1058800010B906F0040098B1002000E0401C215C33
:105890000A2905D0215C0D2902D0215C0029F5D10F
:1058A000215C01B1401C15B14FF0FF312980D9E7CF
:1058B00006F0020008B141F6FF780020069005903E
:1058C00038E000200490059808B9012000E000208D
:1058D00006A904AACDE90062CDE902100599601875
:1058E00043465246394629F07BFC83460498A8EB90
:1058F00000000FFA80F8049848440FFA80F9BBF1D1
:10590000000F00D11CE005985844059020780A2823
:1059100002D020780D2800D112E00598205C0A28DA
:1059200003D00598205C0D2803D10598401C0590F4
:1059300006E000BF0598205C10B1B8F1000FC0DC94
:1059400000BF059870B905A92046094A126890471A
:10595000834635B10022594638461BF08AFD0FFABE
:1059600080F900BF0DB1A5F8009005987AE7000016
:10597000000300242DE9F04706468846174606B185
:105980000FB9BDE8F0873046FAF744FD8146384646
:10599000FAF740FD044604B9F3E704EB090A41466F
:1059A00030460B4A126890478046554603E0281B54
:1059B000305C70556D1E08EB0400A842F7D906EB69
:1059C0000800224639461FF078FE00BFD9E70000E4
:1059D00008030024024600200FA31B788B4211D13C
:1059E00013781BB90123137001200BE01378012BEE
:1059F00002D10023137005E01378022B02D100239B
:105A0000137001201378012B04D1202901D1022326
:105A100013700120704700002300000073B582B0AE
:105A2000064603980190324600210846019B29F062
:105A3000F3FE0546002001900024681C1FF09EFB29
:105A4000044600BF1CB900BF00BF00BFFEE700BF97
:105A500014B9002004B070BD002060553246691CA6
:105A60002046039B29F0D8FE2046F3E72DE9F047B6
:105A700081460E4614461F46DDF820A035461BE041
:105A8000600800FB075529464846D047B0F100089A
:105A900009DD04F0010080F00100C0EB5404E819B6
:105AA0000546064608E0B8F1000F02DA64083546FC
:105AB00002E02846BDE8F087002CE1D10020F9E79C
:105AC0002DE9FF4F85B08346DDE9158ADDE91349ED
:105AD000DDE91775129E05F00200F8B94FB105F027
:105AE000010030B1B9F1000F02D105F00C0000B196
:105AF0007F1E03E030222046641C3254544501D2FC
:105B0000202CF7D303E030222046641C325405F0E9
:105B1000010018B1BC4201D2202CF4D305F01000D2
:105B2000B0B305F4806050B94CB1544501D0BC42CB
:105B300005D1641E1CB1B8F1100F00D1641EB8F17C
:105B4000100F09D105F0200030B9202C04D27822A2
:105B50002046641C325415E0B8F1100F09D105F04D
:105B6000200030B1202C04D258222046641C32542C
:105B700008E0B8F1020F05D1202C03D262222046A2
:105B8000641C3254202C03D230222046641C325430
:105B9000202C16D2B9F1000F04D02D222046641C0F
:105BA00032540EE005F0040020B12B222046641C84
:105BB000325406E005F0080018B120222046641C8B
:105BC0003254CDE90275CDE90064584606A90EC9E4
:105BD00000F0A2F809B0BDE8F08F2DE9FF4F8FB0BB
:105BE0008046DDE91FABDDE91D96219D1C9C002749
:105BF0000CB925F0100505F4806000B1E4B100BFD8
:105C0000B4FBF6F106FB1141C8B20A2802DA00F132
:105C1000300107E005F0200109B1412100E06121D8
:105C200001440A39CBB239467F1C07AA5354B4FB4E
:105C3000F6F40CB1202FE3D307A8CDE904AB8DE82F
:105C4000810203960695404610A90EC9FFF738FF5A
:105C500013B0BDE8F08F2DE9FF4F8FB0DDE9217B58
:105C6000DDF89080209EDDE91C454FF00009002101
:105C700084EA01006940084301D128F0100808F4C3
:105C8000806028B1002184EA0100694008432DD0DA
:105C900000BF32463B4620462946FBF78AFC02F00D
:105CA000FF0ABAF10A0F02DA0AF1300007E008F041
:105CB000200008B1412000E0612050440A38C2B2FF
:105CC000484609F1010907A90A5432463B462046D5
:105CD0002946FBF76EFC04460D46002184EA0100CC
:105CE0006940084302D0B9F1200FD2D32398CDE9FF
:105CF000036BCDE9050807A91E98CDE900190290AC
:105D00000FA80FC8FFF7DCFE13B0BDE8F08F9A4272
:105D100000D28854704770472DE9FF5F054614464E
:105D2000DDE90EA6DDE91087A34607F0020078B989
:105D300007F0010060B9B14607E02246641C20204C
:105D4000039B0199A84709F10109C145F5D300BF9B
:105D500008E02246641C711E0E461AF80100039BDF
:105D60000199A847002EF4D107F0020050B105E0D8
:105D70002246641C2020039B0199A847A4EB0B003A
:105D80004045F5D3204604B0BDE8F09F2DE9FF4F14
:105D90008BB0074600250C9800B9FA4FEAE20E983E
:105DA000007825280AD02A466D1C0E990878DDE96E
:105DB0000C13B8470E98401C0E90DBE20E98401C66
:105DC0000E90002400BF0E9800782B2819D004DC18
:105DD00020281ED023282CD123E02D2809D03028BC
:105DE00027D144F001040E98401C0E9001200A9027
:105DF00022E044F002040E98401C0E9001200A900C
:105E00001AE044F004040E98401C0E9001200A9001
:105E100012E044F008040E98401C0E9001200A90F5
:105E20000AE044F010040E98401C0E9001200A90E5
:105E300002E000200A9000BF00BF0A980028C2D1EB
:105E400080460E990878FDF79BFE20B10EA8FDF75D
:105E500082FE804612E00E9800782A280ED118990A
:105E600001C91891002804DA44F00204C0F10008C6
:105E700000E080460E99491C0E9100BF4FF00009CA
:105E80000E9800782E281FD144F480640E98401C90
:105E90000E900E990878FDF773FE20B10EA8FDF75D
:105EA0005AFE814610E00E9800782A280CD11899E5
:105EB00001C91891002801DD014600E00021894652
:105EC0000E99491C0E9100BF0E9800786C280AD0DC
:105ED00004DC682816D06A2835D128E0742820D040
:105EE0007A2830D129E044F480740E98401C0E903A
:105EF0000E9800786C2804D144F400740E98401C6D
:105F00000E9021E044F080040E98401C0E900E98F4
:105F10000078682804D144F040040E98401C0E908C
:105F200012E044F480740E98401C0E900CE044F48F
:105F300000740E98401C0E9006E044F480740E9895
:105F4000401C0E9000E000BF00BF0E98007869284A
:105F50001DD00EDC622821D006DC25287ED05028FA
:105F60001AD058287BD115E0632879D06428F9D15C
:105F70000CE0732875D004DC6F280ED07028F1D1A6
:105F800009E0752804D07828ECD102E000BF00BFFA
:105F900000BF00BF00BF00BF00BF00BF0E98007869
:105FA000782803D00E980078582801D1102623E0D5
:105FB0000E980078702803D00E98007850280CD1E5
:105FC000102644F0100444F480740E98407856284B
:105FD00012D10E98401C0E900EE00E9800786F289B
:105FE00001D1082608E00E980078622801D1022627
:105FF00002E00A2624F010040E980078582803D0F6
:106000000E980078502801D144F020040E980078B2
:10601000692805D00E980078642801D024F00C047B
:1060200004F4806008B124F001040E980078692817
:1060300003D00E98007864287CD104F40070B8B3C3
:106040001898C01D20F007001890D0E900AB189AEE
:10605000083218920020CDE9069803E073E17CE154
:10606000F2E01CE1CDE904600894BAEB00017BEB9F
:10607000000001DA012000E0002000210290084623
:10608000B1EB0A0170EB0B0002DA5046594605E00D
:1060900000200146B0EB0A0061EB0B01CDE90001E5
:1060A0002A463846DDE90C13FFF7D5FD0546C7E063
:1060B000FFE704F48070D0B1189850F804AB189042
:1060C0004FEADA70CDE9039802960594BAF1000F11
:1060D00001DD514601E0CAF10001CDE900102A4678
:1060E0003846DDE90C13FFF778FD0546A8E004F01B
:1060F000400028B1189810F8041B1890C8B20DE0A1
:1061000004F0800028B1189830F8041B189008B2E9
:1061100004E0189800681899091D189182464FEA02
:10612000DA70CDE9039802960594BAF1000F02DD0A
:10613000514602E00BE0CAF10001CDE900102A4609
:106140003846DDE90C13FFF748FD054678E00E9868
:106150000078562818D1189850F804AB1890DAF83F
:1061600004000068099009980090DAF800300D9852
:10617000421B0C9841193846FFF708FE05440020E1
:1061800009905DE0175D009004F40070D0B118989C
:10619000C01D20F00700CDE9069808941890002053
:1061A000CDE904600290189903C9189A0832189230
:1061B000CDE900012A463846DDE90C13FFF74BFD17
:1061C00005463DE004F4807098B10022CDE90398C3
:1061D00002960594189800681899091DCDE90002E7
:1061E00018912A463846DDE90C13FFF7F6FC054600
:1061F00026E004F0400028B1189810F8041B18900D
:10620000C8B20DE004F0800028B1189830F8041BE3
:10621000189088B204E0189800681899091D189120
:1062200082460020CDE900A0CDE9039802960594AE
:106230002A463846DDE90C13FFF7CFFC054600BFC0
:106240000E98401C0E9093E0012604F0020050B915
:1062500005E02A466D1C2020DDE90C13B8473046C6
:10626000761C4045F5D3189911F8043BD8B22A465C
:106270006D1C1891DDE90C13B84704F0020050B111
:1062800005E02A466D1C2020DDE90C13B847304696
:10629000761C4045F5D30E98401C0E9068E0189887
:1062A00050F804AB18905046B9F1000F01D04946A0
:1062B00001E04FF0FF310A46014600E0491C0B782F
:1062C0001BB1131EA2F10102F8D10E1A04F4806072
:1062D00028B14E4501D2304600E04846064604F05B
:1062E000020050B905E02A466D1C2020DDE90C13A0
:1062F000B8473046761C4045F5D306E01AF8010B46
:106300002A466D1CDDE90C13B8479AF8000040B12D
:1063100004F480600028F1D0B9F10000A9F101096E
:10632000ECD104F0020050B105E02A466D1C20209B
:10633000DDE90C13B8473046761C4045F5D30E987E
:10634000401C0E9014E02A466D1C2520DDE90C133C
:10635000B8470E98401C0E900AE02A466D1C0E9914
:106360000878DDE90C13B8470E98401C0E9000BF6A
:1063700000BF00BF0E98007800287FF410AD0D9884
:10638000854201D2284601E00D98401E02460020B9
:10639000DDE90C13B84728460FB0BDE8F08F2DE9B2
:1063A000F04104460E46002774B13146204600F005
:1063B0002DF80546B5F5003F05D20C2D01D928462C
:1063C00000E00C20074600BF3846BDE8F0810246D9
:1063D00000BF481E084018B100BF00BF00BFFEE765
:1063E00000BF481E1040101A704710B502464B1EE1
:1063F00013444C1E23EA040000BF4B1E0B401BB18C
:1064000000BF00BF00BFFEE700BF10BD024600BFD7
:10641000481E084018B100BF00BF00BFFEE700BF24
:10642000481E10444B1E9843704700002DE9F04170
:1064300080460E46444601206086002500270DE078
:1064400056F8270025A1FAF7ABF810B1681C85B201
:1064500002E0608E401C6086781C87B256F82700E8
:1064600020B156F8270000780028E9D1208EA842F4
:1064700001D1BDE8F081A06A20B1A06A1EF04CFFF6
:106480000020A062E06A20B1E06A1EF045FF002013
:10649000E062E8001EF072FEA06200BFA06A18B9B8
:1064A00000BF00BF00BFFEE700BF68001EF066FE31
:1064B000E06200BFE06A18B900BF00BF00BFFEE79E
:1064C00000BFA06A08B1E06A00B900256900E06A6F
:1064D0001FF039F9258600BFCBE700000A00000055
:1064E0002DE9F84F81460E46924699F8090000F0D2
:1064F0000700022801D1304600E050468346564549
:1065000001DD304600E050460746032000EB47001F
:1065100020F0030000F11005394800683949096886
:10652000A0EB0108002405EB080037490968884200
:1065300006D233480468606820F0004060603AE0AA
:1065400031480068854221D813E04FF0FF300090B9
:10655000002269462D480FF0C3FC002269462C48F2
:106560000FF0BEFC2648006826490968A0EB010828
:1065700000BF08EB0500244909688842E5D8204897
:106580000468606820F00040606014E028461EF057
:10659000F5FD044600BF1CB900BF00BF00BFFEE709
:1065A00000BF14B90020BDE8F88F606820F00040FB
:1065B00000F10040606032465946484601F0E2FE74
:1065C0002060606800F04040401C6060606820F01F
:1065D00080406060A781A4F80EB06068C00F20B151
:1065E000204600F11001A16008E005480068103065
:1065F000A060034800682844014908602046D2E7AB
:1066000074010024D002002470010024511601906E
:10661000A9600190F0B585B006460D4634460020CD
:1066200004900390029094F83C0000F0030020B125
:10663000012838D0022866D000BF94F83C0000F052
:1066400003005A49097888421BD02620005D00EBE0
:10665000001000EB4000142190FBF1F05449087049
:106660002720005D00EB001000EB4000142190FBA0
:10667000F1F05049087094F83C0000F003004B49D9
:10668000087002A803A9CDE9001005EB45014FF6FB
:10669000FF7202EA410004AB46490A78444909788E
:1066A0000AF0ACFC5FE094F83C0000F003003F49C6
:1066B000097888421AD0A08C00EB400040024FF4C9
:1066C000B471B0FBF1F03C4908802720005D00EB7D
:1066D000001000EB4000142190FBF1F035490870E8
:1066E00094F83C0000F003003049087002A803A9A8
:1066F000CDE90010E9B204AB2E4802782E4800889C
:106700000AF07CFC2FE094F83C0000F003002749DD
:10671000097888421AD0A08C00EB400040024FF468
:10672000B471B0FBF1F0244908802620005D00EB35
:10673000001000EB4000142190FBF1F01C490870A0
:1067400094F83C0000F003001849087002A803A95F
:10675000EAB204ABCDE9001015480178164800886C
:106760000AF04CFC00BF00BF9DF810009DF80C1013
:106770009DF80820D708BDF8003067F304038F08A0
:106780000093BDF8003067F34A13C7080093BDF8C3
:10679000003067F3CF230093BDF800703B460193B0
:1067A000BDF80410084605B0F0BD0000DE0100246D
:1067B000DC010024DD010024DA01002410B50120F1
:1067C000074908700748FEF7A8FC20B9064800688A
:1067D00028F048FB03E00448006828F04FFB10BD98
:1067E000B802002490D60524BC02002410B504464B
:1067F00094F83E00C0F3400050B9A08F002807DD98
:10680000A08F4FF6FF71884202D0A08F401EA08754
:10681000A08FA8B9606B20B194F83E00C0F340008F
:1068200070B121461748FEF7F7FCFFF7C7FFE06895
:1068300010B12046E168884720461EF06DFD1FE03C
:10684000A06B4042E062606BD0B194F83E10C1F39F
:10685000400111B9216B4942E16294F83E104908A8
:10686000C94394F83E2061F3410284F83E20E06978
:10687000616AE1616062A06A616BA162606300BFEE
:1068800010BD000090D605242DE9F0418046424815
:10689000006828F063F906464048007880F001005F
:1068A0003E4908703E48FEF738FC04466BE0002085
:1068B0003C49087094F83E00C0F3800037490978DD
:1068C000884253D0354801782C34A07C61F3820093
:1068D000A07420688719A07C2C3CC0F3C00010BBBA
:1068E000E06A00281FDC002F1DDB94F83E0000F05A
:1068F000010060B9206950B12046216988470546EA
:10690000E0692844E061606A2844606200BFA068D2
:1069100010B12046A168884794F83E0020F0080096
:10692000083084F83E00E06A3044E062E06A002803
:106930001BDBD4E90A10884201DDA06AE062204630
:10694000A16988470546206AA84206D0256260688A
:1069500018B12946D4E900029047D4E90A108842C8
:1069600002DB2046FFF742FF00BF00BF0D48007862
:1069700020B10B48FEF7D1FB044604E0214608484D
:10698000FEF7E3FB0446002C91D128F0F4F802490D
:106990000860BDE8F0810000B4020024B9020024C0
:1069A00090D60524B8020024F7B582B004460E46FE
:1069B00014B9049805B0F0BD00BF632231462046EB
:1069C00022F080F90190019D00BFBDB12868A8B1F7
:1069D00000BF64223146204622F074F901900198EC
:1069E000C0B207464FB13A462B68284604999847EB
:1069F0000190BDF80400ADF8100000BF0498D9E77D
:106A000070B504460D46606818B129466068FFF706
:106A1000F7FF206818B1294620462268904770BDCC
:106A200070B505460C46A1B2284613F08BFD70BD2B
:106A300070B505460C46A1B2284613F0D4FD70BDD2
:106A400010B50DF015FC10BD70B505460C46164688
:106A500006E028466A1C95B200F008F804F8010B1D
:106A6000301EA6F101018EB2F3D170BD70B504469F
:106A700000260DF0C3FC2112A02202EB4101C8B296
:106A80000DF084FC0DF002FD2546E11704EB1161C9
:106A90000912A4EB0121C8B20DF078FC0DF0F6FC50
:106AA0000DF0ACFCA1200DF071FC0DF0EFFC00200E
:106AB0000DF03CFC06460DF0C9FC304670BD70B5CB
:106AC00005460C46164606E02178284600F009F8EF
:106AD000681C85B2641C301EA6F101018EB2F3D190
:106AE00070BD70B504460E460DF088FC2112A02240
:106AF00002EB4101C8B20DF049FC0DF0C7FC254680
:106B0000E11704EB11610912A4EB0121C8B20DF0E9
:106B10003DFC0DF0BBFC30460DF038FC0DF0B6FC32
:106B20000DF094FC0A20FAF726FD70BD70B50446FE
:106B30000D4600BF204600F03BF818B100BF00BF73
:106B400000BFFEE700BF284600F050F9001D616855
:106B500008446060204600F03AF8204670BD70B5E9
:106B600005460C46284600F041F904F11001884220
:106B700001D3012070BD0020FCE70146A1F108000F
:106B800070477CB505460C46204600F02FF90646B6
:106B90006A4601A929F060F921462846DDE900325C
:106BA0000EF020FD7CBD0146087900F00100704721
:106BB00010B50446204600F019F908B9012010BDAF
:106BC0000020FCE70146087900F00200704770B52C
:106BD0000446204600F097F805462C60284670BD14
:106BE0007CB506460C4600200190009000256CB153
:106BF0006A4601A9204629F04CF901980B2805DACC
:106C00006A4601A930462BF0AFF9054685B100BFB1
:106C1000284600F0EBF8A04203D200BF00BF00BF3F
:106C2000FEE700BF29463046DDE900322AF004FEC7
:106C300028467CBD70B504462046FFF7C8FF0546D0
:106C4000284600F0BEF8204600F0B6F870BD70B5DA
:106C50000446204600F057F80546284600F0B6F8EE
:106C6000204600F0BEF870BD70B506460D462846B9
:106C700000F049F8044600BF1CB900BF00BF00BFC8
:106C8000FEE700BF2046FFF78EFF90B100BF284609
:106C9000FFF78EFF18B100BF00BF00BFFEE700BFC7
:106CA0002146304600F076F821462846FFF73EFFA1
:106CB0000546284670BD70B506460D462846FFF7C6
:106CC00081FFF0B1284600F057F8044600BF1CB918
:106CD00000BF00BF00BFFEE700BF00BF2046FFF7B8
:106CE00062FF18B900BF00BF00BFFEE700BF21462A
:106CF000304600F04FF829462046FFF717FF0546BB
:106D000000BF284670BD2DE9F0410446204600F042
:106D10006DF8061F204600F0B8F80746314629F006
:106D200001FC054600BF2046FFF742FF18B100BF37
:106D300000BF00BFFEE700BF2846BDE8F0812DE997
:106D4000F04106460C461546002794B100BF1DB918
:106D500000BF00BF00BFFEE700BF2A462146304605
:106D600000F097F82046FFF772FF204600F08DF8FC
:106D700007463846BDE8F08110B5044600BF2046FE
:106D8000FFF720FF18B900BF00BF00BFFEE700BF3C
:106D9000206810BD7CB505460C46204600F026F85C
:106DA00006466A4601A929F057F821462846DDE93A
:106DB00000322AF041FD7CBD416841F00101416093
:106DC0007047416841F0020141607047416821F01D
:106DD000020141607047426802F003030B434360C5
:106DE0007047416821F001014160704701464868E1
:106DF00020F0030070472DE9F04706460C46304668
:106E000000F043F88046211F29F08CFB07463046EE
:106E1000FFF7ECFF211D451A00BF384600F035F89A
:106E20008146384600F031F880460421FFF7DDFA4C
:106E3000814503D000BF00BF00BFFEE700BF00BF19
:106E40003046FFF7D3FF2919091D884203D000BF40
:106E500000BF00BFFEE700BF29463846FFF7BBFF73
:106E600000BF3846FFF7C2FF0C2803D200BF00BFA7
:106E700000BFFEE700BF21463046FFF7ACFF3846B3
:106E8000FFF7D8FE3846BDE8F087014601F108005B
:106E900070472DE9F04106460C46154600BF2046D6
:106EA000FFF781FE18B900BF00BF00BFFEE700BFBB
:106EB00029462046FFF753FE78B129462046FFF7C2
:106EC0009AFF07462046FFF782FE3846FFF779FF14
:106ED00039463046FFF755FE00BFBDE8F0812DE989
:106EE000F04106460C46154600BF2046FFF75BFE04
:106EF00018B100BF00BF00BFFEE700BF2946204613
:106F0000FFF72DFE88B129462046FFF774FF07469C
:106F10003846FFF75BFF39463046FFF7A5FE0746C8
:106F200039463046FFF72DFE00BFBDE8F0812DE960
:106F3000F843064634461CF0C1F9804640461CF032
:106F400002FA78BB304619F02CFD38B3304619F000
:106F5000A4FB208FE18E884212D0E08E2087E08E45
:106F600000906A461C2130461AF008F80746012FA7
:106F700002D03846BDE8F883304622F0C4FC00BF9A
:106F800040461CF0F0F90546042D06D1304620F0AD
:106F90001BFB074600211AF084FF09E0304619F078
:106FA00063FD05E0FFE7208FE086304622F0ABFC72
:106FB0000120DFE72DE9F0410446204619F0D8FF13
:106FC0000546284620F05AFB0646284614F068FB82
:106FD000074601223946304626F078FFBDE8F081A9
:106FE0000146C1F3C01070470146C1F380107047DD
:106FF0000146C1F3C01070470146C1F3002070473D
:107000000146C1F3C00070470146C1F3401070470C
:107010000146C1F3402070470146C1F3003070477C
:107020000146C1F3001070472DE9F04F89B00446C6
:107030000D460021204620F0BCF930B91C2128461D
:107040001EF081FB09B0BDE8F08F2946204600F014
:107050000BFB2946204600F07DF80021204621F058
:10706000E8FB08900021204621F05CFD07900021FC
:10707000204621F09EF9012800D100E00020814641
:107080000021204622F011F807460021204621F079
:107090007EFA064642F2D170874205D1608CC0F379
:1070A000802008B9012000E000208246204620F020
:1070B00020FA069000BF4FF000082448028841469D
:1070C000204621F0FFFD03900398C0B200BF834625
:1070D000AA6829692868CDE90209CDE900125A4653
:1070E0005146089B06980CF00FFC288342F2D170A1
:1070F000864205D1608CC0F3402008B9012000E031
:1071000000200590204620F0D5F9049000BF4FF0F4
:1071100000080F4802884146204621F0D3FD039025
:107120000398C0B200BF83460023EA6869686869B3
:10713000CDE90213CDE900025A46079BDDE90401BF
:107140000CF0E2FB688300BF7CE700007A020024B9
:107150007E0200242DE9F34F87B00C4607980BF010
:10716000F1FB8046079820F0C4F90690404601F0F4
:1071700084F92061216948001EF03AF820602169F5
:1071800048001EF035F8A060002548E058480290FD
:1071900038F9150041F69A7188423FD100200190DC
:1071A00029E00199079820F004F9009051490098CE
:1071B00022F017F800B11BE000980BF0E1FB8246CB
:1071C000BAF1010F00D013E000980BF0C9FB834621
:1071D000AB4500D00CE0009821F09BFF029988425B
:1071E00001DA029802E0009821F093FF029000BFBC
:1071F0000198401C0190079820F0F9F80199884205
:10720000CFD80298002804DB0298A16821F8150065
:1072100003E00021A06820F8151000BF6D1C206954
:10722000A842B3D80026B14600251BE038F9150066
:1072300041F69B71884202DB411A0E4411E041F68F
:107240009A71884206D1A16831F8151049440FFAA5
:1072500081F906E0A16821F8150009EB00010FFA99
:1072600081F96D1C2069A842E0D80021079821F01F
:10727000E0FA05902169491EDDE9050200FB1120B5
:1072800000B206900698A0EB090007B2002F00DAC2
:1072900000274FF0FF30049000200390002513E0FA
:1072A00038F9150041F69B7188420CDB421A11B285
:1072B00007FB01F2B2FBF6F212B2A36823F8152025
:1072C0000495039100BF6D1C2069A842E8D804987A
:1072D00000280ADB0398301A7843B0FBF6F0381A1E
:1072E00001B2A268049822F8101009B0BDE8F08F2E
:1072F00001E0FFFF010006002DE9FC5F05460022CA
:107300001146284623F0C4FB0021284621F0ABF8A3
:1073100081460021284621F02CFC484407B2002178
:10732000284621F0DDF948440FFA80FA284620F07B
:1073300099FF384450440FFA80FB3B4E284620F01A
:1073400056F801904FF000085CE0A868006850F81B
:1073500028403649204621F044FF00B150E0204645
:1073600022F04EFB002839D10021204620F0ACFF4E
:107370000090009830B1012807D0022804D00328DB
:1073800015D100E000BF00BF00BFB4F91A10B5F975
:107390001600081A401CB04201DA304605E0B4F984
:1073A0001A10B5F91600081A401C06B214E00021A4
:1073B000204621F0A1FE70B904F1140013F0EDF99C
:1073C0003844B04201DA304604E004F1140013F00E
:1073D000E4F9384406B200BF00BF10E0B4F91A1057
:1073E000B5F91600081A401CB04201DA304605E033
:1073F000B4F91A10B5F91600081A401C06B200BFFD
:1074000008F10108019880459FD30748864209D0BA
:1074100006EB0A0006B25E4502DD3046BDE8FC9F81
:107420005846FBE75846F9E701E0FFFF010004007A
:107430002DE9FC5F054600221146284623F00CFB8F
:107440000021284621F00FF882460021284621F02D
:10745000CDFA50440FFA80F80021284621F01DFA99
:1074600050440FFA80F9284620F00CFF484440446D
:1074700000B20190724C28461FF0B9FF83460021EC
:10748000284620F062FF012866D100265BE0A8684C
:10749000006850F826706B49384621F0A2FE00B112
:1074A00050E0384622F0ACFA002839D100213846A5
:1074B00020F00AFF0090009830B1032805D006287C
:1074C00004D0082815D102E000BF00BF00BFB5F905
:1074D0001800B7F91410401A401CA04201DA2046E7
:1074E00005E0B5F91800B7F91410401A401C04B2B1
:1074F00014E00021384621F0F2FD70B907F11400C4
:1075000013F0BEF94044A04201DA204604E007F13E
:10751000140013F0B5F9404404B200BF00BF10E0FE
:10752000B5F91800B7F91410401A401CA04201DA4E
:10753000204605E0B5F91800B7F91410401A401CB0
:1075400004B200BF761C5E45A1D33D48844269D099
:1075500004EB090004B265E000265BE0A86800685F
:1075600050F826703749384621F03BFE00B150E014
:10757000384622F045FA80BB0021384620F0A4FEB0
:107580000090009830B1012805D0042804D00728C5
:1075900015D102E000BF00BF00BFB7F91800B5F970
:1075A0001410401A401CA04201DA204605E0B7F949
:1075B0001800B5F91410401A401C04B215E000215F
:1075C000384621F099FD78B907F1140013F058F905
:1075D0004844A04202DA204605E008E007F1140022
:1075E00013F04EF9484404B200BF00BF10E0B7F9F1
:1075F0001800B5F91410401A401CA04201DA2046C8
:1076000005E0B7F91800B5F91410401A401C04B28F
:1076100000BF761C5E45A1D30948844202D004EB2A
:10762000080004B20648844202D10198BDE8FC9FDC
:107630000198844201DD2046F8E70198F6E7000052
:1076400001E0FFFF0100040010B5044620681DF0B2
:107650004BFE60681DF048FEA0681DF045FEE06826
:107660001DF042FE10BD00002DE9F34F87B00C461F
:1076700007980BF057FF8046404600F0FEFE606121
:10768000616948001DF0B4FD6060616948001DF04B
:10769000AFFDE060002548E05948029038F9150038
:1076A00041F69A7188423FD10020019029E001996A
:1076B00007981FF07EFE00905249009821F091FD3E
:1076C00000B11BE000980BF0F5FF8246BAF1010F04
:1076D00000D013E000980BF0DDFF8346AB4500D0EF
:1076E0000CE000981FF07AFF0299884201DA0298B4
:1076F00002E000981FF072FF029000BF0198401C4A
:10770000019007981FF073FE01998842CFD8029824
:10771000002804DB0298E16821F8150003E000204E
:10772000E16821F8150000BF6D1C6069A842B3D85C
:107730000026B14600251BE038F9150041F69B7183
:10774000884202DB411A0E4411E041F69A718842E8
:1077500006D1E16831F8151049440FFA81F906E0C5
:10776000E16821F8150009EB00010FFA81F96D1CA1
:107770006069A842E0D80021079821F0D3F906906B
:1077800007981FF097FE01466269521E069800FB9B
:10779000121000B205900598A0EB090007B2002F67
:1077A00000DA00274FF0FF300490002003900025FE
:1077B00011E038F9150041F69B7188420ADB421A44
:1077C00011B207FB01F2B2FBF6F212B2E36823F842
:1077D000152000BF6D1C6069A842EAD804980028F3
:1077E0000ADB0398301A7843B0FBF6F0381A01B27E
:1077F000E268049822F8101009B0BDE8F08F00008C
:1078000001E0FFFF010006007CB504460D46164668
:1078100028882189084400B2ADF800006888618991
:10782000084400B2ADF80200A8882189084400B2DB
:10783000ADF80400E8886189084400B2ADF806009C
:10784000324669462046636998477CBDF8B50546CF
:107850000E462C46206B10B1206B007818B9606B77
:1078600008B90120F8BD606B58B1284626F023FF07
:107870000746104909688847616B884201D3002098
:10788000F0E7206B98B1002000900AE069460A4AB0
:10789000206B126890470746B74201D10120E1E70B
:1078A00000BF206B0099405C0028EFD1DAE701208F
:1078B000D8E7000010030024000300242DE9FF4F47
:1078C0008FB00F46209DF87800F0010008B1FA480B
:1078D00000E0FA480E90F87800F0010008B1F8488E
:1078E00000E0F8480D90F87800F0010008B9F4487D
:1078F00000E0F4480C9001200B90B5E000220B92C0
:1079000000206A88B5F804C0A2EB0C0211B2002670
:107910001AE006EB860CEA6802EB8C02127C02F09D
:10792000010242B906EB860CEA6802EB8C029289EE
:10793000024410B207E006EB860CEA6802EB8C0208
:1079400012898A1A11B2761C2A69B242E1D800263D
:1079500085E006EB860CEA6802EB8C02127C02F0F2
:107960000102002A7AD191FBF0F80FFA88F306EBB6
:107970008609D5F80C8008EB8908B8F80C8008FB5C
:1079800003F80FFA88F206EB8609D5F80C8008EBAD
:107990008908B8F9049006EB860AD5F80C8008EB44
:1079A0008A08B8F90680904501DD904607E006EBAD
:1079B000860AD5F80C8008EB8A08B8F90680C1451C
:1079C00008DD06EB8609D5F80C8008EB8908B8F9C4
:1079D000048013E006EB8609D5F80C8008EB8908D3
:1079E000B8F90680904501DD904607E006EB860970
:1079F000D5F80C8008EB8908B8F90680C446944590
:107A00000BD04FF0010806EB860AD5F80C9009EB75
:107A10008A09C9F81080CDF82C8006EB8609D5F8C4
:107A20000C8008EB8908A8F808C006EB8609D5F891
:107A30000C8008EB8908B8F80C80A0EB08080FFA56
:107A400088F006EB8609D5F80C8008EB8908B8F8B1
:107A50000880A1EB08080FFA88F100BF761C2A699C
:107A6000B2423FF676AF00BF0B9800287FF446AFD6
:107A700000210F9820F090FC012800D100E00020A8
:107A80000A9000200990089008A809A9CDE90010E3
:107A900029890BB2B5F9022038781E9928F045FDE6
:107AA000F87800F0010048B10A9838B10F981FF03B
:107AB00020FDBDF82410084400B2099011990F98D8
:107AC0001FF077FC04468AE17F49204621F089FBBC
:107AD00040B1F878C0F3800111AA0F980BF05DFB5C
:107AE00004467CE10021204620F01AFD079007980B
:107AF000002858D000200390002610E006EB8601F5
:107B0000E86850F82100A04208D106EB8600E96839
:107B100001EB8000B0F90800039003E0761C2869AF
:107B2000B042EBD800BFF87800F0010030B1608CB3
:107B300020F4806000F58060608405E0608C20F4B3
:107B4000007000F50070608404F114000D998847FE
:107B50000399884226D0204621F0D5FE00BFA08A96
:107B6000ADF80400E08AADF80600208BADF80800FF
:107B7000608BADF80A0000BF04F114000E9A03995F
:107B8000904701AA2921204619F0F8F920461FF054
:107B900075FD22462221009019F0F0F9204621F0CF
:107BA000B2FE00BF07E0608C20F480606084608CCF
:107BB00020F400706084002006907878012812D0AC
:107BC000022819D104F114000C998847B5F9001066
:107BD000491C21F00101081A039000EBD0704010FD
:107BE00000B2069009E004F114000C998847298836
:107BF000081A00B2069000E000BF00BFF87800F05D
:107C0000010050B10A9840B104F114000D99884761
:107C1000BDF82410081A00B209900020039043F226
:107C20000C022046039921F04DF8029002980FFAB9
:107C300080F800BF0020039043F20D022046039914
:107C400021F040F8029002980FFA80F900BF204618
:107C500021F05FFA059020461FF0C0FC049008F464
:107C6000C040B0F5005F01D1012000E0002030B13C
:107C700028F4C040B0F5FA6F01DC012000E00020DC
:107C800090B128F4C040B0F57A7F04DD28F4C040FC
:107C9000C0F57A7001E028F4C0400599484364219A
:107CA00090FBF1F00FFA80F809F4C040B0F5005FE6
:107CB0000CD101200BE00000BFA90190B3A90190F5
:107CC0000DA90190FDA7019001000600002030B130
:107CD00029F4C040B0F5FA6F01DC012000E000207B
:107CE00090B129F4C040B0F57A7F04DD29F4C0409A
:107CF000C0F57A7001E029F4C0400499484364213A
:107D000090FBF1F00FFA80F9A18A1C98401A4044C8
:107D10000FFA80FAE18A1D98401A48440FFA80FB56
:107D2000F87800F0010010B1BDF9240000E00698D9
:107D300050440FFA80FAF87800F0010008B1069874
:107D400001E0BDF9240058440FFA80FBBAF1000F9E
:107D500002D1BBF1000F1BD0204621F0D4FDA08A38
:107D6000504400B2A082208B504401B22183E08AAB
:107D7000584401B2E182608B584401B261832046CD
:107D800021F0C1FD01235A465146204621F098FEBC
:107D9000F87800F0010008B10A9870B904F11400F5
:107DA0000D9988471F990844BDF820100844BDF874
:107DB0002410084400B2099008E0BDF820101F9874
:107DC0000844BDF82410081A00B20990F878C0F3EE
:107DD000800111AA0F980BF0E0F9044600BF24B10E
:107DE000DDE9111081427FF46FAE13B0BDE8F08F72
:107DF0002DE9F04F8DB005468946B9F1000F02D14B
:107E00000DB0BDE8F08FA5F81890286810B128686B
:107E10001DF082FA09EB4901062202EB41001DF038
:107E2000ADF9286000BF286818B900BF00BF00BFC7
:107E3000FEE700BF286868600221286801FB09008E
:107E4000801CE8600421286801FB0900001DA8606F
:107E5000B9F1010F0CD1B420696808700020E968FD
:107E600008800120E96848800020A9680880C7E7E9
:107E700009F10101C8001DF0BBF9074609F1010035
:107E800007EB80084FF0000A4FEA890002B20BA905
:107E90000CA800F067F90024BDF9300080100790AD
:107EA00000200390CCE0002616E00BA90CA800F0FF
:107EB00061F90CA800F04BF900B90FE0BDF93000F2
:107EC000801007A941F82600BDF8300000F003003B
:107ED00003A941F82600761C042EE6DB00BF042E21
:107EE00000D0B3E00A990798884219D1079800B2E8
:107EF00027F814000FFA8AF028F81400DDE90301CE
:107F00000844059908440699084469680855686852
:107F1000005D0007000E69680855601C04B28DE022
:107F2000DDE9070188422CD0079800B227F8140039
:107F30000FFA8AF028F814000398696808556868F1
:107F4000005D0007000E69680855601C04B20798C0
:107F5000401E00B227F814000FFA8AF028F8140027
:107F60000498001D05990844069908446968085555
:107F70006868005D0007000E69680855601C04B25F
:107F80005CE00999079888422CD0079800B227F83E
:107F900014000FFA8AF028F81400DDE90301084400
:107FA000696808556868005D0007000E6968085533
:107FB000601C04B20798401E00B227F814000FFAA4
:107FC0008AF028F814000598083006990844696872
:107FD00008556868005D0007000E69680855601C58
:107FE00004B22BE0079800B227F814000FFA8AF0C9
:107FF00028F81400DDE9030108440599084469687C
:1080000008556868005D0007000E69680855601C27
:1080100004B20798401E00B227F814000FFA8AF045
:1080200028F8140006980C30696808556868005DE7
:108030000007000E69680855601C04B20AF1010AC5
:108040000CA800F084F800287FF42DAF00BF40F2A8
:10805000D32109FB01F00290029880120190601E6A
:1080600037F910100198814205D1601E38F91010BF
:108070000198814226D0DDE90121A1EB8220B0F5F3
:10808000007F04DC00FB00F14800001407E0C0F5AD
:10809000806000FB00F148000014C0F10F0001995E
:1080A00009B227F81410019909B228F814106A6867
:1080B00010556968095D0907090E6A681155611C48
:1080C0000CB200BFA61E0EE038F8160027F8140008
:1080D00037F8160028F814006868805D696808554C
:1080E000761E601C04B2002EEEDA4FF0000B002664
:1080F0000020E968088023E0E96821F81B6037F870
:108100001600A96821F81B0010E0A86830F81B00D1
:1081100037F91610884203DAA86830F81B0001E02E
:1081200037F91600A96821F81B00761C38F91600EB
:10813000584501D1A642E8DB0BF101000FFA80FBA4
:10814000A642D9DB38461DF0CFF800BF58E60146FD
:10815000B1F90200B1F90020904201DC0120704722
:108160000020FCE7028000234380C2F101031BB220
:108170000B807047B1F90020002A07DC0B88428889
:108180005200D21C1A4412B20A800CE042880388C2
:10819000D21A5200521D0B881A4412B20A80028869
:1081A000521E12B202804288521C12B242807047A4
:1081B00037B582B01546022D04DCBDF80C10084618
:1081C00005B030BDBDF80C00C00ABDF8081000EBCA
:1081D000D1241F2C01D2204600E01F20BDF808103A
:1081E00060F3CF210291BDF80C00C0F34510BDF83B
:1081F0000810C1F3451144183F2C01D2204600E07D
:108200003F20BDF8081060F34A110291BDF80C0040
:1082100000F01F00BDF8081001F01F0144181F2CCA
:1082200001D2204600E01F20BDF8081060F30401D1
:108230000291FF2D03D1BDF808100846C0E72A4679
:10824000DDE9020114F056FC0190BDF80410084667
:10825000B6E717B581B01446022C04DCBDF808104F
:10826000084604B010BDBDF80400C00ABDF80810EF
:10827000C90A10FB01F04109BDF8040061F3CF20E9
:108280000190BDF8040000F01F00BDF8081001F0D7
:108290001F0110FB01F04109BDF8040061F3040067
:1082A0000190BDF80400C0F34510BDF80810C1F3FB
:1082B000451110FB01F08109BDF8040061F34A107B
:1082C0000190FF2C03D1BDF804100846C9E72246EF
:1082D000DDE9010114F00EFC0090BDF80010084625
:1082E000BFE737B582B01546022D04DCBDF80C108F
:1082F000084605B030BDBDF80C00C00ABDF8081036
:10830000A0EBD124002C01DD204600E00020BDF8C8
:10831000081060F3CF210291BDF80C00C0F34510A6
:10832000BDF80810C1F34511441A002C01DD2046A8
:1083300000E00020BDF8081060F34A110291BDF87A
:108340000C0000F01F00BDF8081001F01F01441AD6
:10835000002C01DD204600E00020BDF8081060F38D
:1083600004010291FF2D03D1BDF808100846C0E7B3
:108370002A46DDE9020114F0BDFB0190BDF80410AE
:108380000846B6E708B5034600930098484080EADF
:10839000620008BD2DE9F84F8046404618F0E8FD20
:1083A0008246404618F083FD064650461FF066F9A7
:1083B00081462B2E09D1484625F07BFD044600223C
:1083C0002146484625F082FD3AE00A2E38D169461A
:1083D00050461FF0D5F950461FF08BF80446002197
:1083E00048461FF0CCFF01280AD1204604EBD0718B
:1083F000BDF90020C2EB610191FBF4F10DB209E07F
:10840000204604EBD071BDF9002002EB610191FB25
:10841000F4F10DB2002D00DA00250027484625F0C2
:1084200048FDA84200D0012701222946484625F0F0
:108430004DFD27B100221C21484618F09FFD00BFCA
:10844000BDE8F88F10B58060C06000230361002193
:1084500010E0002400F1140343F82140002206E05C
:1084600000F1400303EBC11343F82200521C202A01
:10847000F6DB491C0B29ECDB10BD0146002000E0B7
:10848000401C31F9102041F6FF739A42F8D1704731
:1084900010B500BF002208211048F9F767F800BFA7
:1084A00000F01EF800BF012211460C48F9F75EF8F3
:1084B00000BF00F015F800BF002201210748F9F7BE
:1084C00055F800BF00F00CF800BF01220821034856
:1084D000F9F74CF800BF00F003F810BD0004025893
:1084E00010B50220F9F774F810BD000000B587B090
:1084F00000BF00BF1948006840F00200174908603B
:108500000846006800F00200019000BF00BF00BFF5
:1085100000BF00BF0846006840F00200086008463F
:10852000006800F00200019000BF00BF00BF012002
:10853000029011200390012004900320059002A9CD
:108540000748F8F7FFFF0820029002A90448F8F74F
:10855000F9FF00F0B1F807B000BD0000E044025898
:108560000004025810B500BF012208210C48F8F79A
:10857000FDFF00BFFFF7B4FF00BF0122114608480E
:10858000F8F7F4FF00BFFFF7ABFF00BF00220121A7
:108590000348F8F7EBFF00BFFFF7A2FF10BD000094
:1085A0000004025870B50546002400261CE0600651
:1085B000040E00BF012211461048F8F7D7FF00BF94
:1085C000FFF78EFF08210D48F9F707F808B1601C86
:1085D000C4B200BF002201210848F8F7C7FF00BF5E
:1085E000FFF77EFF701CC6B2082EE0DB15B9FFF75F
:1085F000B9FF01E0FFF74CFF204670BD00040258B0
:1086000070B50446002524E000BFE00928B101222E
:1086100008211548F8F7AAFF04E0002208211248B3
:10862000F8F7A4FF00BFFFF75BFF00BF0122114670
:108630000D48F8F79BFF00BFFFF752FF00BF002275
:1086400001210948F8F792FF00BF6006040E681C7C
:10865000C5B2082DD8DB00BF012208210248F8F777
:1086600085FF00BF70BD00000004025810B500BFB8
:10867000012208210F48F8F779FF00BF00BF01224F
:1086800011460C48F8F772FF00BFFFF729FF00BF43
:10869000002208210748F8F769FF00BFFFF720FF15
:1086A00000BF002201210348F8F760FF00BFFFF779
:1086B00017FF10BD0004025810B500BF00220821AA
:1086C0000C48F8F753FF00BFFFF70AFF00BF012275
:1086D00011460848F8F74AFF00BFFFF701FF00BF47
:1086E000012208210348F8F741FF00BFFFF7F8FE19
:1086F00010BD00000004025870B50024002500BF22
:10870000012208211548F8F731FF00BFFFF7E8FE06
:1087100000BF012211461148F8F728FF00BFFFF7FC
:10872000DFFE09E0601CC4B2FA2C03DDFFF7C4FFD2
:10873000012507E0FFF7D4FE08210848F8F74DFFB0
:108740000028EFD100BF00BF002201210348F8F745
:108750000DFF00BFFFF7C4FE284670BD000402589D
:108760007CB506460D4634465020005D00F0010001
:10877000A84233D00DB1012000E000205021095D56
:1087800060F300015020015504F14401684611F0E6
:10879000F4FFBDF80000616A898A084400B2ADF8B0
:1087A0000000BDF80210606AC08A084400B2ADF84B
:1087B0000200BDF80400616A898A084400B2ADF87D
:1087C0000400BDF80610606AC08A084400B2ADF823
:1087D00006006946304621F0D0F800BF7CBD37B5B1
:1087E00082B0054614462146039813F0EBFF019032
:1087F000BDF80410084605B030BD2DE9FF4F8DB01F
:1088000005460E461446F07A022803DC012011B01A
:10881000BDE8F08F3089326901460C901098FCF762
:10882000A5F907460FB90020F1E7397D01F01F00D7
:1088300019F013FD10B14FF006080AE0397D01F080
:108840001F0019F0EDFC10B14FF0050801E04FF0EA
:108850000408386A38B100BF00BF214628463A6A8A
:1088600029F083FDDEE0B869002859D021460BA825
:1088700011F044FF308818B97088B0F5807F32D08D
:10888000204612F00BF8834600BFE0886188401A4A
:10889000401C00B20890301D7188CDE9001030886E
:1088A00003B259460BA8089AFBF78AFCBDF82C00C6
:1088B0002188084400B2ADF82C00BDF82E00618874
:1088C000084400B2ADF82E00BDF8300021880844FD
:1088D00000B2ADF83000BDF832006188084400B243
:1088E000ADF8320000BF0BAA09A8A968FBF772F91E
:1088F0008146B9F1000F04D1384601F0EEFB0120AA
:1089000085E7D5F808A009A8A860CDF80080224620
:1089100031462846BB6915F097F9C5F808A081E0F3
:1089200022460BA8A968FBF755F90A900A9820B9C6
:10893000384601F0D2FB012069E70BA811F0AEFF29
:1089400009900BA811F0AAFF00EB400003901CF067
:108950004FFC8146D5F808A00BA907A811F0CEFE60
:10896000012107A812F025F8BDF92C00B4F9001078
:10897000401A0690BDF92E00B4F90210A0EB010BCD
:10898000BDF92E00059042E007AA514602A8FBF768
:1089900021F90A900A9800B936E0CDF800900998BC
:1089A00003B20FFA8BF2069801B238461AF082F938
:1089B0000490049801280ED038461AF09BF800BFA6
:1089C00000BF48461CF090FC384601F086FBC5F815
:1089D00008A000201BE702A8A8604B4607AA314662
:1089E0002846CDF8008015F02FF9BDF81E00401C78
:1089F00000B2ADF81E00BDF82200401C00B2ADF878
:108A000022000BF1010B00BF0598401C0590BDF939
:108A1000321005988142B7DAC5F808A048461CF024
:108A200063FC00BF384601F058FB0120EFE600BFB1
:108A300000BF7047F8B506460C4615460095B4F9D8
:108A40000630B4F90420B4F90210B4F900000DF0B6
:108A5000A8FC304614F0B8FDF8BD10B50FF0F2FEDA
:108A600001200DF0B1FB10BDF8B505462C461AF0FB
:108A700025FC0646206B26F071F83168898B884208
:108A80002CD2606A009094F83C0000F0030020B102
:108A9000012806D002280CD107E00020ADF8000024
:108AA00007E064208DF8020003E064208DF80300E5
:108AB00000BF00BF30461AF0C5FD2846009914F0EB
:108AC0001AFC50B100221C21284618F057FA07461C
:108AD000012F01D03846F8BD00BF00BF26F04BF88B
:108AE00020630120F7E700002DE9F04F9BB0074617
:108AF00089461646BA4617A814F023FE4FF4A02163
:108B000038461FF0F9FB9DF8691060F382018DF87B
:108B10006910304611F0F3FE054600EBD5704FEAC0
:108B200060083088404400B2ADF858007088404476
:108B300000B2ADF85A00002138461FF090FD1590A4
:108B4000494603A81EF0EAF917A80B904FF400302D
:108B5000109033480490002005900AF13000FCF793
:108B600001FB044657E02079032800D04DE0208B1C
:108B7000ADF85C00208A00B2ADF85E006079FD2897
:108B800001DD159803E060791599484300128DF8CE
:108B900068002568B5F92000E98B08440090B5F914
:108BA0002030D5E90512A0681CF0D4FA8346B5F947
:108BB0002000E98B08440090B5F92030D5E9051272
:108BC000E0681CF0C7FA0290608B404400B2ADF838
:108BD0004800149416A80C9003AA1A21384618F0DD
:108BE000CDF9029880B21FFA8BF1CDE90010BDF8E3
:108BF000480083B216AA17A9484614F084FD03AAB8
:108C00001B21384618F0BAF900BF21460AF130009E
:108C1000FCF7A2FA0446002CA5D11BB0BDE8F08FEA
:108C200068C0039070B504460D46002229462046D0
:108C300007F082FE01222946204607F07DFE02222F
:108C40002946204607F096FC04222946204607F0D4
:108C500091FC70BD2DE9F74F9EB00C46E0780228DC
:108C600002DC21B0BDE8F08F1CA8209911F058FD5E
:108C7000B4F9200001282EDD94F82200FD282ADB1B
:108C8000208840B3BDF8700014F8231F4908C1F3D1
:108C90008001084400B2ADF87000BDF87200217880
:108CA0004908C1F34001084400B2ADF87200BDF8B4
:108CB000740021784908C1F3C001401A00B2ADF830
:108CC0007400BDF8760014F82319C1F34001401A6E
:108CD00000B2ADF876001E981CA982681AA8FAF7AF
:108CE00079FF00B9BDE7E07B00F0070616B9A08860
:108CF000199001E0E0881990BDF864106089814204
:108D000000D100261CA815F005FF18901C2111A801
:108D1000F7F71EFCA0788DF85D00BDF86400ADF893
:108D20004C00189860B9208850B94EB91CA8119011
:108D3000E0788DF85C0011A91E9816F09BFD90E775
:108D4000E078FD2801DBFF2000E0E07810901CA80F
:108D500011F0CEFD0F901CA811F042FD0E90DDE940
:108D60000E01814201DA0F9800E00E980D90B4F9DF
:108D700000100D98B1EB600F02DAB4F9000001E0C9
:108D80000D98401007461AA811F0B2FD81464FF029
:108D9000FF300C9000200B90002F01DC189870B170
:108DA00048461CF025FA0B9000233AB21CA905A8EE
:108DB00016F028FA002105A815F0A6FB0C90BDF8C6
:108DC0006800ADF80C00BDF86C00ADF810000B9811
:108DD000149003A811901690FF208DF85C00A01D40
:108DE000DDE90E2118F00CFE8046B8F1000F0CD022
:108DF000022E0AD1BDF96810D8F8080000EB410036
:108E0000BDF97010A0EB410012901898A0B3BDF905
:108E10006A502CE028B2ADF80E0028B2ADF812006E
:108E20004A4610990B981CF054FCBDF968100FFAD3
:108E300089F32AB20B9815F01DFE8DF854009DF8A9
:108E40005400012802D102208DF85400012E09D1CE
:108E5000BDF97210691AD8F8080000EB41000088CB
:108E6000ADF84C0011A91E9816F004FD6D1CBDF95B
:108E70006E00A842CEDACCE0FFE700255CE0BDF84A
:108E8000720028440FFA80FABDF87600401B0FFAF2
:108E900080FBBDF96A00504504DDBDF96E00584500
:108EA00000DA48E04A4610990B981CF012FCBDF914
:108EB0000C100FFA89F352460B9815F0DBFD8DF874
:108EC00054009DF85400012802D102208DF854006E
:108ED000BDF96A00504514DCADF80EA0ADF812A043
:108EE000012E0AD1BDF97210AAEB0101D8F80800D1
:108EF00000EB41000088ADF84C0011A91E9816F057
:108F0000B9FCBDF96E00584514DBADF80EB0ADF8F4
:108F100012B0012E0AD1BDF97210ABEB0101D8F8E5
:108F2000080000EB41000088ADF84C0011A91E9824
:108F300016F0A0FC00BF6D1CBD42A0DBBDF87000A8
:108F4000ADF80400BDF87400ADF80800BDF872007B
:108F5000384400B2ADF80600BDF87600C01B00B280
:108F6000ADF80A0001A815F0D5FD00900098B0B941
:108F7000AEB9BDF87200384400B2ADF80E00BDF8CD
:108F80007600C01B00B2ADF8120010988DF85C009E
:108F90000020149011A91E9816F06CFC38E010986F
:108FA0008DF85C0001208DF85400BDF97600A0EB2F
:108FB000070ABDF97200C51927E0009870B14A464A
:108FC00010990B981CF085FBBDF968100FFA89F316
:108FD0002AB20B9815F04EFD8DF8540028B2ADF86A
:108FE0000E0028B2ADF81200012E09D1BDF97210A1
:108FF000691AD8F8080000EB41000088ADF84C0071
:1090000011A91E9816F036FC6D1C5545D5DD00BF24
:1090100000BF0B9810B10B981CF066F90C98401C1F
:1090200028B10C9816F0D6F905A815F04FFDB8F147
:10903000000F02D0404618F0DAFC00BF11E62DE91F
:10904000F0478EB007460C461546206910B90EB0A1
:10905000BDE8F087A07E022800DCF8E720691AF05E
:10906000CDF80646022E55D1002041F6FF71CDE91C
:109070000001029003460DA8D4E9041226F066F917
:10908000284611F035FC814600EBD970298801EBA8
:109090006000BDF9348008EBD871A0EB610000B22C
:1090A000ADF82C00BDF82C00BDF834100844401E6B
:1090B00000B2ADF83000284611F092FB814600EB7B
:1090C000D970698801EB6000BDF9368008EBD87172
:1090D000A0EB610000B2ADF82E00BDF82E00BDF887
:1090E00036100844401E00B2ADF8320003A815F057
:1090F00093F960690390208BADF81800A07E8DF87D
:109100002600002000900BAA03A93846236914F01A
:10911000CFFDAEE00DA9206919F018FD8046B8F129
:10912000010F02D000BF00BF91E707A814F0A3FD14
:10913000A0788DF82800208BADF82400E07E8DF813
:109140002600A07E8DF82700207FE8BB284611F07E
:10915000CFFB824600EBDA70298801EB60000D99A5
:10916000C1F38A2909EBD971A0EB610000B2ADF817
:109170001400284611F034FB824600EBDA7069884F
:1091800001EB60000D994FEA515909EBD971A0EB41
:10919000610000B2ADF81600BDF814000D99C1F3DE
:1091A0008A210844401E00B2ADF81800BDF8160030
:1091B0000D9900EB5150401E00B2ADF81A0005AAFF
:1091C00007A93846236900E002E014F005FD4FE0EE
:1091D0006888ADF81600BDF816000D9900EB5150E7
:1091E000401E00B2ADF81A003BE02888ADF814002C
:1091F000BDF814000D99C1F38A210844401E00B245
:10920000ADF8180017E005AA07A93846236914F03D
:10921000E3FCBDF814000D99C1F38A21084400B2A3
:10922000ADF81400BDF818000D99C1F38A21084467
:1092300000B2ADF81800BDF91400B5F90410884269
:10924000E1DDBDF816000D9900EB515000B2ADF80C
:109250001600BDF81A000D9900EB515000B2ADF8A0
:109260001A00BDF91600B5F906108842BDDD00BF31
:1092700000BF00BFEBE62DE9F04F87B083460C46F8
:10928000164694F82200022802DC07B0BDE8F08FF1
:10929000208C00B9F9E794F82300C0F3440000B92A
:1092A000F3E794F8230000F0010000B1EDE7304649
:1092B00011F01EFB8146304611F092FA0746B4F9D0
:1092C0000050B94501DA484600E038468246B5EB21
:1092D0006A0F01DD4FEA6A05314605A811F020FA50
:1092E000BDF9141094F82300400800F0040010B1F8
:1092F000B4F9200003E0B4F92000284440420844B7
:1093000000B2ADF81400BDF9181094F8230040081D
:1093100000F0080010B1B4F9200003E0B4F9200017
:1093200028444042081A00B2ADF81800BDF91610E2
:1093300094F82300400800F0020010B1B4F92000B6
:1093400003E0B4F9200028444042084400B2ADF8DC
:109350001600BDF91A1094F82300C0F3400010B1B4
:10936000B4F9200003E0B4F9200028444042081A70
:1093700000B2ADF81A00208C281A0FFA80F8B8F164
:10938000000F01DA4FF00008A07894F82210CDE920
:109390000210E08BADF804002BB205AA3146584606
:1093A000CDF8008000F002F800BF6EE72DE9FF4F16
:1093B000A3B00D4616461F463298FF2801DBFF205A
:1093C00000E032983290284615F0A4FB22902298B3
:1093D00068B967B9309850B932980090324629463A
:1093E000319B239800F0A9FA27B0BDE8F08F2398AD
:1093F0002946826820A8FAF7EDFB00B9F4E720A817
:1094000011F076FA81461C2119A81CF09CF94846F7
:109410001BF0EEFE1C904FF0FF301890002F0ADD7D
:1094200000233A46294612A815F0ECFE002112A8A6
:1094300015F06AF81890012331460CA8309A15F0FF
:10944000E1FE00210CA815F05FF80B9009A8199017
:109450001E90BDF8C400ADF86C0032988DF87C0009
:1094600033988DF87D00B5F900003844B6F9001046
:10947000884203DDB5F90000384401E0B6F9000088
:1094800000B2ADF81C00B5F90400C01BB6F9041019
:10949000884203DAB5F90400C01B01E0B6F9040004
:1094A00000B2ADF82000B5F902003844B6F9021058
:1094B000884203DDB5F90200384401E0B6F9020044
:1094C00000B2ADF81E00B5F90600C01BB6F90610D3
:1094D000884203DAB5F90600C01B01E0B6F90600C0
:1094E00000B2ADF8220007A811F002FA0690B5F913
:1094F0000200B6F90210884201DC012000E00020E1
:109500008246B5F90600B6F90610884201DB012053
:1095100000E000208346229800284CD0BDF880004F
:10952000ADF82400BDF88400ADF82800BDF98240F4
:1095300029E0BAF1000F04D1BDF91E00A04200DD00
:1095400020E0BBF1000F04D1BDF92200A04200DAF7
:109550001DE020B2ADF8260020B2ADF82A00494641
:109560001C981CF027F9BDF980100FFA89F322B27C
:109570001C9815F07FFA8DF8740019A9239816F03D
:1095800079F900BF641CBDF98600A042D1DA00BFA2
:109590000CA815F09BFA0B9815F01CFF1898401CAE
:1095A00028B112A815F092FA189815F013FF1C981C
:1095B0001BF09AFE18E7B5F90000B6F900108842D2
:1095C00001DC012000E000200590B5F90400B6F9A7
:1095D0000410884201DB012000E0002004900120FB
:1095E0000390059860B1049850B1BAF1000F07D00C
:1095F000BBF1000F04D00698322801DA0020039056
:1096000001208DF87400BAF1000F15D0039898B1BD
:10961000BDF81C00ADF82400BDF82000ADF828000E
:109620006888ADF826007088401E00B2ADF82A00A8
:1096300019A9239816F01EF9BBF1000F15D0039855
:1096400098B1BDF81C00ADF82400BDF82000ADF8BD
:109650002800F088401C00B2ADF82600E888ADF87C
:109660002A0019A9239816F005F9059898B12888B9
:10967000ADF824003088401E00B2ADF82800BDF8D7
:109680001E00ADF82600BDF82200ADF82A0019A989
:10969000239816F0EFF8049898B1B088401C00B2F7
:1096A000ADF82400A888ADF82800BDF81E00ADF87C
:1096B0002600BDF82200ADF82A0019A9239816F05B
:1096C000D9F80398F0BBBDF88000ADF82400BDF8D0
:1096D0008400ADF82800B5F90200B6F90210401A6E
:1096E000B84201DA384604E0B5F90200B6F90210D2
:1096F000401A00B20290002442E06888204400B280
:109700000190E888001B00B20090BDF9821001981A
:10971000814205DDBDF986100098814200DA2EE015
:1097200049461C981CF046F8BDF924100FFA89F33D
:10973000019A1C9815F09EF98DF87400BDF98210FD
:10974000019800E020E0814209DC0198ADF8260094
:109750000198ADF82A0019A9239816F08BF8BDF9E5
:1097600086100098814209DB0098ADF82600009829
:10977000ADF82A0019A9239816F07CF800BF641CE4
:1097800002988442B9DBC7E0BDF88000ADF8240040
:10979000BDF98410BDF91C00401E814202DABDF9FA
:1097A000840002E0BDF91C00401E00B2ADF82800A4
:1097B00009A811F09DF88046B8F1000F48DD059822
:1097C00010B9BAF1000F1ED0BDF9824017E020B2E7
:1097D000ADF8260020B2ADF82A0041461C981BF0D7
:1097E000E9FFBDF92410434622B21C9815F042F956
:1097F0008DF8740019A9239816F03CF8641CBDF983
:109800001E00A042E3DC059810B9BBF1000F1FD089
:10981000BDF92200441C17E020B2ADF8260020B2AA
:10982000ADF82A0041461C981BF0C4FFBDF9241076
:10983000434622B21C9815F01DF98DF8740019A941
:10984000239816F017F8641CBDF98600A042E3DAED
:10985000BDF98010BDF92000401C814202DDBDF938
:10986000800002E0BDF92000401C00B2ADF82400E9
:10987000BDF88400ADF8280009A811F039F8804639
:10988000B8F1000F48DD049810B9BAF1000F1ED0EE
:10989000BDF9824017E020B2ADF8260020B2ADF845
:1098A0002A0041461C981BF085FFBDF92410434651
:1098B00022B21C9815F0DEF88DF8740019A92398CF
:1098C00015F0D8FF641CBDF91E00A042E3DC04982B
:1098D00010B9BBF1000F1FD0BDF92200441C17E0E6
:1098E00020B2ADF8260020B2ADF82A0041461C98FF
:1098F0001BF060FFBDF92410434622B21C9815F0FE
:10990000B9F88DF8740019A9239815F0B3FF641CF9
:10991000BDF98600A042E3DA0CA815F0D7F80B9841
:1099200015F058FD12A815F0D1F8189815F052FD51
:109930001C981BF0D9FC00BF56E52DE9FF4F89B0FC
:1099400080460C461546DDF858901C2168461BF0F1
:10995000FAFE07A80090BDF83000ADF808008DF8B9
:109960001890B4F90200B5F90210884201DC012018
:1099700000E000200646B4F90600B5F9061088425A
:1099800001DB012000E000200746B4F90000B5F932
:109990000010884201DC012000E000208246B4F97A
:1099A0000400B5F90410884201DB012000E000202A
:1099B00083462088ADF81C00A088ADF820006088A0
:1099C000ADF81E006888401E00B2ADF822001EB13E
:1099D0006946404615F04EFFE888401C00B2ADF8DD
:1099E0001E00E088ADF822001FB16946404615F020
:1099F00041FF2088ADF81C002888401E00B2ADF859
:109A0000200016B1B5F9020001E0B4F90200ADF88A
:109A10001E0017B1B5F9060001E0B4F90600ADF873
:109A20002200BAF1000F03D06946404615F022FF2C
:109A3000A888401C00B2ADF81C00A088ADF820003A
:109A4000BBF1000F03D06946404615F013FF0DB07F
:109A5000BDE8F08F2DE9FF4F93B007469046994639
:109A60004FF6FF70804502D117B0BDE8F08F3E463B
:109A7000746A208C1290208C484506D0A4F820905F
:109A8000608C20F00400001D60844FF4802120468B
:109A90001FF0E5F911904FF4802120461FF04FFA96
:109AA0000546119817F000FD8246384609F07BFA0A
:109AB0008346BBF81600ADF83E00BDF93E000AEB48
:109AC000050108FB010000B2ADF83E00284605EB99
:109AD000D071BDF83E20A2EB610109B2ADF83E1095
:109AE000BDF83E0050442844401E00B2ADF842008C
:109AF000706A808AADF83C00706A008BADF8400057
:109B000001A815F095FC01AA4FF4802120461FF012
:109B10004BFD0FAA01A9149815F06EFC1298208431
:109B2000608C20F00400608400BF9DE72DE9F04FB9
:109B300091B007460D46904699464FF6FF70804516
:109B400002D111B0BDE8F08F1097109F7C6A208C75
:109B50000F90208C484506D0A4F82090608C20F00F
:109B60000400001D608407A814F056FC07AA4FF4F7
:109B7000802120461FF03DFC4FF4802120461FF03D
:109B8000DEF9ADF82E00384609F00DFA064606B9A2
:109B9000D7E7079817F088FC8246F08AADF81600E0
:109BA000BDF91600BDF92E10514408FB010000B2AA
:109BB000ADF81600BDF92E0000EBD071BDF81620EF
:109BC000A2EB610109B2ADF81610BDF816005044C1
:109BD000BDF82E100844401E00B2ADF81A00A08A4D
:109BE000ADF81400208BADF8180005AA03A8A968E9
:109BF000F9F7F0FF8346BBF1000F13D0A86802907D
:109C000003A8A86030461AF08DFA01900020009059
:109C100006F1140207A92846019B14F049F802989E
:109C2000A86000BF0F982084608C20F0040060843E
:109C300000BF86E72DE9F04105463548006813F07E
:109C4000DDFC04462868866BF06A10B13046F16A84
:109C50008847206890B1606880B10CE02C480068AB
:109C60000068806A38B12A4A12681068284A126867
:109C70001268916A884720690028EFD1012020618D
:109C8000234800680068C068806900F0010050B196
:109C90001F4800680068C0688069C0F3400010B1C8
:109CA0000120606101E000206061606908B101206D
:109CB00000E0002007462868406998B12868007CC9
:109CC000C0F3011048B12868007CC0F3800020B1C7
:109CD000D6E9001000F01EF804E0D6E9002128685B
:109CE000FDF792FD206880B1606870B12868007C43
:109CF00000F0010000B147B12168A068884202D19C
:109D00006068A06001E02068A060BDE8F08100000C
:109D10006C0100242DE9F34F83B0044688480068A5
:109D20000568874800680068007CC0F3400040B1C7
:109D3000287CC0F3800020B100BF00BF05B0BDE8A3
:109D4000F08F287CC0F3011002280AD12146284652
:109D5000049A00F004F921462846049AFDF754FDC0
:109D6000EBE0287CC0F30110012804D0287CC0F36C
:109D700001100328F4D1002002907148006813F00C
:109D80003DFC8246204610F082FD0646204610F03B
:109D90000BFD83464FF4A050B0FBF6F000B25845DF
:109DA00005DA4FF4A050B0FBF6F000B200E05846E0
:109DB0000190B4F90280287CC0F3011001280BD176
:109DC00068882188401A401E00B2E080E088801B2D
:109DD000401C00B2608006E02088608060883044CB
:109DE000401E00B2E08000279EE0ABEB0701019827
:109DF000814201DD019801E0ABEB07000FFA80F929
:109E00000120CAF8100047BBB34526DBB146297CC8
:109E1000C1F30111032901D1012100E0002108460D
:109E20003146049A00F00FF9287CC0F30110012894
:109E300007D1A4F8008008EB0600401E00B2A08005
:109E40003FE02888401EA0EB080000B2A080A08858
:109E5000801B401C00B2208033E0029820B94FF4F0
:109E600020501BF0C5F9029002980090297CC1F3A4
:109E70000111032901D1012100E0002108464A46D1
:109E80003146049B00F0B2F8287CC0F30110012891
:109E90000AD108EB070000B2208008EB0700484415
:109EA000401E00B2A0800CE02888401EA0EB0800F5
:109EB000C01B00B2A080A088A0EB0900401C00B22B
:109EC000208007EB090058450DDBDAF8180000F098
:109ED000010040B1DAF81800C0F3400018B10120C9
:109EE000CAF8140002E00020CAF81400029808B969
:109EF000049800E00298024621462846FDF784FCBB
:109F000004E0A86A10B12846A96A8847DAF8100068
:109F10000028F6D106FB09F1049800EB41000490FB
:109F200007EB090007B200BF5F45FFF65EAF02987E
:109F300010B102981BF0D8F900BF00BFFEE6000088
:109F40006C01002418B5048800940C8804801488DF
:109F50000C801C881480BDF800401C8018BD2DE9C1
:109F6000FC5F05460C461646204610F090FC8246E3
:109F7000204610F019FC83461AFB0BF00190019863
:109F8000471E4FF0000811E006EB470000880090E4
:109F900006EB470006EB48010988018006EB480004
:109FA000BDF8001001807F1E08F101084745EBD87D
:109FB000B4F9069068886188401A401E00B2E080BB
:109FC0006888A0EB0900401E00B26080B4F90490DC
:109FD00028882188401A401E00B2A0802888A0EB63
:109FE0000900401E00B22080BDE8FC9F2DE9F0472B
:109FF00004461D46089F01FB02F0A0F1010C481E1B
:10A0000000FB02F800231AE008EB03000CB1ACEBF4
:10A01000000000260FE0A946AD1C07EB400AB9F886
:10A020000090AAF800900CB1104400E0801A06F1EC
:10A0300001090FFA89F68E42EDDB581C03B29342F8
:10A04000E2DBBDE8F0872DE9F04782460C46154675
:10A0500000263BE0002731E0601E801B0FFA80F8ED
:10A06000601EC01B0FFA80F9BAF1000F12D007FB77
:10A07000048C05EB4C0308FB049C05EB4C0209FB2C
:10A08000046C05EB4C0106FB047C05EB4C00FFF770
:10A0900059FF11E009FB046C05EB4C0308FB049C21
:10A0A00005EB4C0207FB048C05EB4C0106FB047C22
:10A0B00005EB4C00FFF746FF781C07B2601C00EB75
:10A0C000D071B7EB610FC7DB701C06B204EBD47123
:10A0D000B6EB610FBEDBBDE8F08710B50446204645
:10A0E00018F008FD10BD00002DE9F14F9EB01E983C
:10A0F00016F03EFF05462C461E9816F0E0FE1D9019
:10A10000606A1AF00FF807465020005D00F0010069
:10A1100010B91FB0BDE8F08F0FA815F089F90FAA8C
:10A120004FF4E02128461FF03FFA04F144010DA846
:10A1300010F023FBBDF83400616A898A084400B23C
:10A14000ADF83400BDF83610606AC08A084400B229
:10A15000ADF83600BDF83800616A898A084400B25B
:10A16000ADF83800BDF83A10606AC08A084400B201
:10A17000ADF83A000DAA0FA91D9815F03DF94FF45E
:10A18000E02128461EF0B0F906464FF4E0212846AB
:10A190001EF012FC30440FFA80F84FF4E0212846FC
:10A1A0001EF083FD30440FFA80F900200B900C90D4
:10A1B000E16CC8191F49096888478246E06CC119DB
:10A1C00052460BA81BF031F9BDF83400404400B2F0
:10A1D000ADF83400BDF83600484400B2ADF83600A2
:10A1E0004FF0000BD4F824A040F257425946504695
:10A1F0001EF068FD019001980A9002A814F00CF975
:10A2000002AA4FF4E02128461FF0F3F89DF83F0022
:10A21000022805DCBDF81400BDF82810884207D0DC
:10A2200000200BAB0DAA02A900901D9813F040FD71
:10A2300000BF6EE7F40200242DE9F04FBDB00546E3
:10A240000E4600BF00BFAB460BF13000FAF7D8FF57
:10A2500010B13DB0BDE8F08F05F114023BA8B16824
:10A26000F9F7B8FC00B9F4E7B0683A903BA8B060E1
:10A2700035A814F01DF935AA4FF4E02128461FF047
:10A280001FF927A815F0D4F89DF8DC008DF89F0081
:10A2900047F6FF70ADF89C004FF4E02128461EF011
:10A2A000EAFE074600EBD7704FEA60094FF4E02161
:10A2B00028461EF0E0FE074600EBD7704FEA600A22
:10A2C000314604A81CF02AFE24A80A9016A808907B
:10A2D0004FF4E020119069480590052006900BF19D
:10A2E0003000FAF73FFF0446C0E00A2235A924A84F
:10A2F0001BF09BF8382227A916A81BF096F8E088D7
:10A30000ADF89000E088ADF85C0039A80D9038A851
:10A310000E90607B00F0010020B1B4F90070B4F938
:10A32000028010E0A08847F6FF71884200D197E0D4
:10A33000A28801AB2846A16811F00AFEBDF904709D
:10A34000BDF9068000BFA88A384407B2E88A4044B5
:10A350000FFA80F8B9F1000F19D0BAF1000F16D03A
:10A36000A7EB090000B2ADF8080007EB090000B246
:10A37000ADF80C00A8EB0A0000B2ADF80A0008EB3B
:10A380000A0000B2ADF80E0002A8079001E000201C
:10A390000790207B00F0030070B3207B00F00100E9
:10A3A00010B1B5F9140000E03846ADF8E400ADF89E
:10A3B000E680207B00F0020010B1B5F9180000E043
:10A3C0003846ADF8E000BDF8E600ADF8E20004AABA
:10A3D0001A21284616F0D2FD38AB39AA24A93046F6
:10A3E00014F04FF802AA16A9304615F005F804AA91
:10A3F0001B21284616F0C2FD207B00F00C0070B334
:10A40000ADF8E470207B00F0040010B1B5F916003F
:10A4100000E04046ADF8E600BDF8E400ADF8E0002D
:10A42000207B00F0080010B1B5F91A0000E04046AA
:10A43000ADF8E20004AA1A21284616F09FFD38ABB9
:10A4400039AA24A9304614F01CF802AA16A93046ED
:10A4500014F0D2FF04AA1B21284616F08FFD00BF7E
:10A4600021460BF13000FAF777FE0446002C7FF40A
:10A470003CAF3A98B06000BFEBE6000030BB039001
:10A480002DE9F14F9AB01A9816F072FD04461A9809
:10A4900016F015FD199020461EF03BFE074620469B
:10A4A0001DF09CF8834607EBD771A28A02EB61018D
:10A4B00009B218910BEBDB714A10E18A114409B221
:10A4C000179107EBD7714E1014A813F0F1FF14AADF
:10A4D000002120461EF0F4FF4FF41D7016FB00F023
:10A4E000552190FBF1F0642190FBF1F000B2ADF842
:10A4F0005200BDF85200801C00B2ADF8520000209E
:10A500001390002120461DF006FF0546002347F664
:10A51000FF7204F114010DA814F074FE00210DA8BF
:10A5200013F0F2FF0C9000BFA08AADF82800E08A7B
:10A53000ADF82A00208BADF82C00608BADF82E0012
:10A5400000BFBDF82800284400B2ADF82800BDF8CF
:10A550002C00401B00B2ADF82C00BDF82A002844A6
:10A5600000B2ADF82A00BDF82E00401B00B2ADF8D5
:10A570002E00012347F6FF720AA904A814F042FE38
:10A58000002104A813F0C0FF0390BDF952804FF0E2
:10A59000000A4FE051462046FCF73CF80090BDF819
:10A5A0000000ADF850001398C0F30F290FFA89F09E
:10A5B00024F0DEFD06EB08014843189901EBE0307A
:10A5C00000B2ADF804000FFA89F024F0C1FD06EBEB
:10A5D00008014843179901EBE03000B2ADF80600DE
:10A5E0000FFA89F024F0C4FD711BA1EB0801484368
:10A5F000189901EBE03000B2ADF808000FFA89F0CD
:10A6000024F0A6FD711BA1EB08014843179901EB4B
:10A61000E03001B2ADF80A1002AB01AA14A91998F2
:10A6200013F02FFF0AF103001FFA80FA139800F5C8
:10A6300087601390BAF5807FACDD0DA814F046FA60
:10A6400004A814F043FA0C9814F0C4FE039814F014
:10A65000C1FE1BB0BDE8F08F2DE9F04FA5B0044658
:10A660000F46254604F1140123A8BA68F9F7B2FA97
:10A670002290229810B925B0BDE8F08FB8682190DB
:10A6800023A8B860002120461DF007FF1E9000217E
:10A6900020461EF01CF901461E98084400B21D9089
:10A6A000002120461EF07FFA01461E98084400B2A1
:10A6B0001C9020461CF01DFF7E35E988484300129F
:10A6C00000B21B9020461CF0F5FE29894843001279
:10A6D00000B21A9017A813F0EBFE17AA002120462B
:10A6E0001EF0EEFE394605A81CF018FC0020129062
:10A6F0008C4806900020079017A80B904FF0FF3071
:10A70000139000200E900F9005AA1A21204616F0F3
:10A7100035FC002001903122204601991EF0D2FA2A
:10A720000090009800F0FF0B00BF002120461DF0B4
:10A73000B4FE0490002001903322204601991EF0BF
:10A74000C1FA0090009800F0FF0800BF20461DF0FD
:10A750003BF8039020461DF031F9029035F87E0950
:10A76000002865D0E18A1C9801440298081A00B2BA
:10A770000190A08AADF88000208BADF87C004FF0EE
:10A780000009B5F87E000FFA80FABBF1020F1ADD5E
:10A790000498002817DD08F0020040B1002120468F
:10A7A0001EF001FA18B909F101000FFA80F908F05A
:10A7B000010040B1002120461DF0ACFF18B9AAF1FC
:10A7C00001000FFA80FA4E462FE01A987043B5F850
:10A7D0007E10491E90FBF1F000B2ADF88200BDF88A
:10A7E00082100198084400B2ADF88200BDF88200E2
:10A7F000ADF87E004B4806900120079020A80E90EF
:10A800001FA80F90139605AA1A21204616F0B6FB32
:10A810001FAB20AA17A9384613F033FE05AA1B2147
:10A82000204616F0ABFB701C06B25645CDDB00BFD0
:10A83000B5F88000002865D0A18A1D9801440398CE
:10A84000081A00B20190E08AADF88200608BADF882
:10A850007E004FF00009B5F880000FFA80FABBF1D6
:10A86000020F1ADD0498002817DD08F0040040B13B
:10A87000002120461EF02BF818B909F101000FFA4B
:10A8800080F908F0080040B1002120461EF0C8F809
:10A8900018B9AAF101000FFA80FA4E462FE01B9872
:10A8A0007043B5F88010491E90FBF1F000B2ADF88E
:10A8B0008000BDF880100198084400B2ADF8800017
:10A8C000BDF88000ADF87C00164806900220079085
:10A8D00020A80E901FA80F90139605AA1A212046B3
:10A8E00016F04CFB1FAB20AA17A9384613F0C9FD80
:10A8F00005AA1B21204616F041FB701C06B25645E6
:10A90000CDDB00BF4FF0FF30139000200E900F9072
:10A9100005AA1B21204616F031FB2198B86000BF24
:10A92000A9E6000030BB03902DE9F14F9AB01A98C8
:10A9300016F0BDFA07461A9816F01AFB05462C4683
:10A94000122F7DD11A9816F010FB06463078022897
:10A9500002D11BB0BDE8F08F94F8380000F003007E
:10A96000032805D094F8380000F00300022802D133
:10A9700001203070EDE794F83800C0F3840004281B
:10A9800008D094F83800C0F38400012802D00120D8
:10A990003070DEE74FF0000A4622514628461EF08E
:10A9A00091F919901998C0B2FF2802D00120307097
:10A9B000CFE7002128461EF003FB8146208E81440C
:10A9C000B9F1000F02D001203070C2E70021284603
:10A9D0001EF037FB8046E08E00FB08F04FEA20288F
:10A9E0001A9816F0C2FA8346B8F5807F09D1002282
:10A9F00005F114015846F9F72EF9E8BB0120307033
:10AA0000A7E728461CF0EAFD824628461EF081FB97
:10AA1000179004F132001FFA88F100235246CDE965
:10AA2000001018A81799F9F7CBFBBDF86000A98AA8
:10AA3000084400B2ADF86000BDF86210E88A00E09A
:10AA40001DE0084400B2ADF86200BDF86400A98AB8
:10AA5000084400B2ADF86400BDF86610E88A084406
:10AA600000B2ADF86600002218A95846F9F7F3F8CD
:10AA700018B9012030706CE700E000BF19E2152F13
:10AA800001D0182FFAD1002128461EF0DAFA8046AC
:10AA9000E08E00FB08F04FEA2028002128461EF037
:10AAA0008FFA8246208E824428461EF032FB19908F
:10AAB00028461CF093FD1890002641F232023146E0
:10AAC00028461EF0FFF80E900E9800B2814600BF97
:10AAD00041F61202314628461EF0F4F80E900E9808
:10AAE00048440FFA80FB00BF41F613023146284666
:10AAF0001EF0E8F80E900E98484400B2179000BF80
:10AB000041F61002314628461EF0DCF80E900E98F1
:10AB1000484400B2169000BF41F611023146284663
:10AB20001EF0D0F80E900E98484400B21590608E3A
:10AB3000584400B2ADF85000A18E1698084400B2F7
:10AB4000ADF8520094F8390000F00300012804D158
:10AB500012A928461CF0ECFC27E014A91FFA88F083
:10AB60000FFA8AF3CDE9000112A8DDE91821F9F7FF
:10AB700027FBBDF84800A98A084400B2ADF8480098
:10AB8000BDF84A10E88A084400B2ADF84A00BDF8A2
:10AB90004C00A98A084400B2ADF84C00BDF84E1034
:10ABA000E88A084400B2ADF84E0005F1140110A87F
:10ABB0000FF0D1FD12A905F114000FF0CCFDBE4835
:10ABC0001A991CF0D1FB0F900F98012800D0C0E615
:10ABD00010A905F114000FF0BEFD152F7ED1E08DF8
:10ABE00008B1A08D00B9B4E6B8F1000F00D1B0E60D
:10ABF0001A9816F064F9064605F114010DA80FF035
:10AC0000AAFD284618F0E8F90C9094F8390000F0F5
:10AC1000030001283CD1B4F92C10BDF93020891A69
:10AC2000481C00EBD071BDF83420A2EB610109B2E1
:10AC3000ADF83410B4F92C10BDF93020891A481C35
:10AC400000EBD071BDF83820A2EB610109B2ADF87C
:10AC50003810B4F92E10BDF93220891A481C00EBC7
:10AC6000D071BDF83620A2EB610109B2ADF8361003
:10AC7000B4F92E10BDF93220891A481C00EBD071AE
:10AC8000BDF83A20A2EB610109B2ADF83A1013E029
:10AC900012A80FF057FEBDF834100844401E00B251
:10ACA000ADF8380012A80FF0C5FDBDF83610084405
:10ACB000401E00B2ADF83A00BDF83400584400B26E
:10ACC000ADF83400BDF836101698084400B2ADF85F
:10ACD0003600BDF838101798081A00E0E8E000B216
:10ACE000ADF83800BDF83A101598081A00B2ADF862
:10ACF0003A0094F8380000F00300012805D094F8D9
:10AD0000380000F0030000287AD106A812F0B3FF43
:10AD100006AA002128461EF00DFB1FFA88F0ADF8A8
:10AD20001A001FFA8AF0ADF81800608EADF81C000A
:10AD3000A18EADF81E1094F83800C0098DF82C00D3
:10AD4000BDF84800584400B2ADF81000BDF84A10F4
:10AD50001698084400B2ADF81200BDF84C101798D0
:10AD6000081A00B2ADF81400BDF84E101598081A74
:10AD700000B2ADF81600B068039004AA04A8B16848
:10AD8000F8F728FF00B9E4E504A8B060BDF8361074
:10AD9000608D084400B2ADF80600BDF90600BDF9AB
:10ADA0003610884206DDBDF80600E18D401A00B27B
:10ADB000ADF80600BDF80600E18D0844401E00B263
:10ADC000ADF80A0049E0BDF83400218D084400B216
:10ADD000ADF80400BDF90400BDF93410884206DD69
:10ADE000BDF80400A18D401A00B2ADF80400BDF812
:10ADF0000400A18D0844401E00B2ADF8080016E022
:10AE000034E001AA06A93046636A12F0E5FEBDF8F7
:10AE10000400BDF83010084400B2ADF80400BDF8DD
:10AE20000800BDF83010084400B2ADF80800BDF9C4
:10AE30000400BDF938108842E3DBBDF80600BDF818
:10AE40003210084400B2ADF80600BDF80A00BDF8A3
:10AE50003210084400B2ADF80A00BDF90600BDF991
:10AE60003A108842AFDB0398B06020E094F83800D5
:10AE700000F00300022811D104A813F0CDFA04AAAF
:10AE8000002128461EF0B5FA0020009005F11402BA
:10AE900004A93046636A12F00BFF08E000BF00BF50
:10AEA000002305F114021946304612F095FE00BF4A
:10AEB00000BF00BF4DE50000807304902DE9F14F05
:10AEC000DCB05C9816F054F805462C465C9815F0FA
:10AED000F6FF5B9059A928461CF02AFB0020CDE91B
:10AEE000105040F60A02DDE910011DF0EBFE0F9054
:10AEF0000F9800B258900020CDE9105040F60B0298
:10AF0000DDE910011DF0DEFE0F900F9800B25790A2
:10AF1000BDF864115898081A00B2ADF86401BDF884
:10AF200068115898084400B2ADF86801BDF8661180
:10AF30005798081A00B2ADF86601BDF86A11579823
:10AF4000084400B2ADF86A0159A80FF0EDFC834641
:10AF500059A80FF061FC5690D4E90A10A0EB010942
:10AF60005698834501DB012000E000208046002048
:10AF7000559094F85C0000F0030001280BD1A06A02
:10AF8000002808DAE06A002805DDA16A206B884203
:10AF900001D101205590002128461DF0BFFC54909E
:10AFA000002128461DF063FD5390002128461DF026
:10AFB00021FE5290002128461DF0D3FB519059A943
:10AFC00004F134000FF0B5FBA18E5498084400B290
:10AFD000A086218F5398081A01B22187E18E5298DA
:10AFE000084401B2E186618F5198081A01B2618765
:10AFF000B8F1000F13D004F134000FF00DFC042859
:10B000000DDA569800EBD0714A10E98A1144891E76
:10B010000AB2E286E08E001D01B2618715E0B8F148
:10B02000000F12D104F134000FF07EFC04280CDA7A
:10B0300058460BEBD071AA8A02EB6101891E09B256
:10B04000A186A08E001D01B2218704F134000FF00B
:10B050006BFC509004F134000FF0DEFB4F90B8F120
:10B06000000F01D0509800E04F988246B8F1000FD1
:10B0700005D004F13406371DFE484C9004E004F17D
:10B080003606371DFC484C90A06D401CF8B1A36AF1
:10B09000216DC91A01FB0AF191FBF9F108B2A36A0B
:10B0A000616DC91A01FB0AF191FBF9F10AB2131A99
:10B0B000D4F858C003FB0CF1CB1701EB13631B1240
:10B0C0001BB24D934D99014409B24D9108E0A16A1C
:10B0D000206B401A00FB0AF090FBF9F000B24D9093
:10B0E000A06C401CE0B1A36A216CC91A01FB0AF1F3
:10B0F00091FBF9F108B2A36A616CC91A01FB0AF16C
:10B1000091FBF9F10AB2131AD4F848C003FB0CF111
:10B11000CB1701EB136300EB23231BB24E9308E024
:10B12000D4E90901401A00FB0AF090FBF9F000B2E3
:10B130004E900020119041F26A42284611991DF06C
:10B14000C1FD10901098C0B24B90B8F1000F0ED016
:10B150004B9801280BD130463E4607464E9949424E
:10B1600009B24E914D99494209B24D9100BFB8F1D3
:10B17000000F0AD031884E98084400B238803188D8
:10B180004D98084400B230800AE039884E98081A79
:10B19000401C00B2308039884D98081A00B23880BF
:10B1A000559878B3A26A524202FB0AF292FBF9F276
:10B1B00011B2B8F1000F0CD032880A4410B2B7F9BE
:10B1C0000020824201DD30801BE03A8832803880E6
:10B1D00017E03A88521A521C10B2B6F90020824287
:10B1E00001DD388002E032883A803080B7F90020F3
:10B1F000B6F900309A4204DAB6F900003A88328093
:10B20000388000BF559800BB04F134004C99884742
:10B2100001281ADC68465B991BF080FE4FF4003071
:10B220000D90964801900020029004F134000390A4
:10B230006A461A21284615F0A1FE6A461B212846B7
:10B2400015F09CFE5DB0BDE8F08F04F1340149A813
:10B250000FF06FFA3BA814F0EBF83BAA4FF4003163
:10B2600028461EF0A1F929A85B991BF057FE4FF460
:10B270000030369081482A9000202B903BA82D90DA
:10B2800004F134002C9029AA1A21284615F076FEE4
:10B29000002011906022284611991DF013FD109096
:10B2A000109800B228905698834501DA584600E07D
:10B2B00056982790DDE92701B1EB600F02DD279852
:10B2C00040102890BDF9EC0026904F995098884284
:10B2D00001DA509800E04F982790DDE92601B0EBA5
:10B2E000610F02DD279840102690B8F1000F08D0BA
:10B2F00004F134000FF018FB01462698B1EB400F23
:10B300000BDCB8F1000F28D104F134000FF084FAFF
:10B3100001462698B1EB400F1FDD9DF8EF0011901C
:10B320009DF8060110909DF80E010F9000208DF8F9
:10B33000EF008DF806018DF80E0104F134023BA9EF
:10B340005B9814F059F811988DF8EF0010988DF86B
:10B3500006010F988DF80E0100BFA98A5498084481
:10B3600000B2ADF87800298B5398081A00B2ADF8F6
:10B370007C00E98A5298084400B2ADF87A00698BE3
:10B380005198081A00B2ADF87E0000231EA920A82B
:10B39000289A13F037FF002120A813F0B5F81D906C
:10B3A0009DF822011C909DF80E011B9000208DF845
:10B3B0000E018DF8220159A919A80FF0BAF9BDF8AC
:10B3C00064105498084400B2ADF86400BDF86610EB
:10B3D0005298084400B2ADF86600BDF86810539862
:10B3E000081A00B2ADF86800BDF86A105198081A42
:10B3F00000B2ADF86A00B8F1000F15D019A80FF02F
:10B400000BFA042810DA569800EBD0714A10E98A3A
:10B410001144891E09B2ADF86610BDF86600001D22
:10B4200000B2ADF86A0017E0B8F1000F14D119A806
:10B430000FF07AFA04280FDA58460BEBD071AA8A7B
:10B4400002EB6101891E09B2ADF86410BDF8640019
:10B45000001D00B2ADF86800BDF9EC20002304F136
:10B46000340113A813F0CEFE002113A813F04CF8FA
:10B47000129005E029A9019019A80190D8720490B2
:10B4800019AA3BA95B9813F0B7FF1B988DF80E0122
:10B490001C988DF8220100208DF8EF008DF8060130
:10B4A0008DF8220104F134023BA95B9813F0A4FF4C
:10B4B00013A813F00BFB20A813F008FB129813F04D
:10B4C00089FF1D9813F086FF29AA1B21284615F035
:10B4D00055FD00BFB6E6F0B591B00546284615F01B
:10B4E00047FD0446284615F0EAFC0746264603A811
:10B4F00013F09EFF03AA4FF4403120461EF054F88B
:10B5000047F6FF70ADF80C002C20805D00F00100C4
:10B5100038B1204611F0DDFE0090BDF80000ADF816
:10B520001000214601A807F057FC01AA03A93846DC
:10B5300013F062FF11B0F0BD2DE9F04FB3B08146BA
:10B54000484615F015FD80464446484615F0B7FCC0
:10B550003290002140461CF039FF054640461DF060
:10B56000D8FD824640461CF039F88346DA4501DBB7
:10B57000012000E0002006460EB1584600E050468B
:10B580003190002794F85C0000F00300012806D1F8
:10B59000A06A002803DAE06A002800DD0127002EF7
:10B5A0003CD097B93EB1012D02D1B4F9340009E085
:10B5B000B4F9380006E0012D02D1B4F9360001E0FB
:10B5C000B4F93A00ADF8BC0037E0606A002812DB3D
:10B5D0003EB1012D02D1B4F9340009E0B4F93800CC
:10B5E00006E0012D02D1B4F9360001E0B4F93A00C9
:10B5F000ADF8BC0021E03EB1012D02D0B4F9340019
:10B6000009E0B4F9380006E0012D02D0B4F93600A3
:10B6100001E0B4F93A00ADF8BC000EE01FB9E08ECD
:10B62000ADF8BE0009E0606A002803DBE08EADF8EB
:10B63000BE0002E0608FADF8BE0021A813F0F8FE56
:10B6400021AA4FF4403140461DF0AEFF33462FA9EA
:10B650004046319A24F0C4FF2FA904F168000FF08E
:10B6600083F80FA832991BF059FC4FF440301C901E
:10B670003C481090002011901D9004F16800129039
:10B6800021A81390404621F0D8F8022810D00FAA24
:10B690001A21404615F072FC04F1680221A9329883
:10B6A00013F0AAFE0FAA1B21404615F067FC55E0D7
:10B6B000382221A901A819F0B8FE0FAA1A21404684
:10B6C00015F05CFC04F1680221A9329813F094FE95
:10B6D0000FAA1B21404615F051FC96B13EB1012D39
:10B6E00002D0B4F9340009E0B4F9380006E0012DC5
:10B6F00002D0B4F9360001E0B4F93A00ADF8BC006C
:10B7000002E0608FADF8BE0033462FA94046319A63
:10B7100024F066FF2FA904F160000FF025F838220D
:10B7200001A921A819F081FE0120119004F1600007
:10B73000129021A8139001201D900FAA1A214046B3
:10B7400015F01CFC04F1600221A9329813F054FE9C
:10B750000FAA1B21404615F011FC00BF33B0BDE815
:10B76000F08F00000C7404902DE9F04790B007466C
:10B77000384615F0FDFB054628461BF07FFF0646C0
:10B7800008A812F049FE08AA002130461DF031FE3B
:10B79000384615F094FB0446D4F8088006F11402EC
:10B7A00006A8A168F8F716FA10B910B0BDE8F0873E
:10B7B00006A8A06004A9304607F08CFFA88AADF85F
:10B7C0000800E88AADF80A00288BADF80C00BDF837
:10B7D0001200ADF80E0002AA02A8A168F8F7FAF963
:10B7E00098B1D4F8089002A8A060284618F09AFCF6
:10B7F00082460020534605F1140208A90090204615
:10B8000012F056FAC4F8089000BFA88AADF80800F4
:10B81000BDF81600ADF80A00288BADF80C00688B57
:10B82000ADF80E0002AA02A8A168F8F7D3F998B102
:10B83000D4F8089002A8A060284618F073FC82464D
:10B840000020534605F1140208A90090204612F08A
:10B850002FFAC4F8089000BFC4F8088000BFA4E71E
:10B860002DE9FF4FA1B0064614462498807B00F0D6
:10B870000F052298807E1F90032D00D10425012DF5
:10B8800006D0022D0BD0042D10D0082D1DD114E0B0
:10B89000DFF86C834FF0800A02201E901AE0DFF878
:10B8A00064834FF0C00A04201E9013E0DFF8588331
:10B8B0004FF0F00A10201E900CE0DFF850834FF09C
:10B8C000FF0A4FF480701E9004E000BF00BF25B057
:10B8D000BDE8F08F00BF1F98FD2823DACC4801781F
:10B8E0001F98814203D1CB480068A84213D00020A2
:10B8F0000DE018F80010FF2901D11F9904E018F895
:10B9000000101F9A51430912C34A1154401C1E993A
:10B910008842EED300BFDFF80083BD491F9808704E
:10B92000BC4805602498B0F806B0249800891B90A4
:10B930000BFB05F01A90B4F90000B168B1F90010E2
:10B94000884201DB002005E0B068B0F90000B4F9DE
:10B950000010401A1990B4F900005844B168B1F9C8
:10B960000410884201DC584606E0B068B0F90400D3
:10B97000B4F90010401A401C1890B4F90200B168E4
:10B98000B1F90210884201DB002005E0B068B0F98F
:10B990000200B4F90210401A1790B4F902101B9873
:10B9A0000844B168B1F90610884201DC1B9806E032
:10B9B000B068B0F90600B4F90210401A401C1690A5
:10B9C0001A9917984843199901FB050015902E996B
:10B9D000159801EBD0002E90159800F007071C2158
:10B9E0000DA819F0B0FE22988089ADF83C0022988D
:10B9F000807E8DF84C002298807FC0F3C2008DF8C5
:10BA00004D00F9F7C3FE019011F0FCFD0C901B985E
:10BA10000BFB00F10C98814201DD0C9802E01B99B0
:10BA20000BFB01F00B900B9819F0E2FB8146CDF86F
:10BA3000409000200A9021881998084400B2ADF87F
:10BA40002000218818980844401E00B2ADF8240058
:10BA500061881798084400B2ADF82200BDF82200B2
:10BA6000ADF8260000BFBDF82400BDF82010401A34
:10BA7000401C00B2079000BFBDF82000ADF81400D4
:10BA8000BDF82200ADF81600BDF82400ADF818008E
:10BA9000BDF82600ADF81A0000BFBDF816101698C4
:10BAA000084400B2ADF81A0005A813F033F804906A
:10BAB00008A80D901290C5F10800039019980BEB9F
:10BAC00000011898081A6843029017981C9078E0B3
:10BAD0000A9801902AFA07F0209019981D9028E002
:10BAE0002E980078209908400399C91BC8401490EB
:10BAF000149830B1149818F800100A9809F800103A
:10BB000003E000210A9809F800100398874204D244
:10BB10002F442098E840209005E00027CDF880A031
:10BB20002E98401C2E900A98401C0A901D98401C8C
:10BB30001D9018991D988842D2DB0498A0B1BDF9D8
:10BB40002620BDF92010019B09EB0300079B12F092
:10BB500091FF8DF844009DF8440028B9019909EB44
:10BB60000100079919F0EFFDDDE91801411A0A9863
:10BB700001440B98814206D2BDF82600401C00B259
:10BB8000ADF8260012E002208DF844000DA93046E1
:10BB900013F070FEBDF82600401C00B2ADF8220084
:10BBA000BDF82200ADF8260000200A900298074454
:10BBB0002E9800EBD7002E9007F007071C98401C2A
:10BBC0001C9016991C98884282DBBDF92200BDF9B1
:10BBD000261088420ED0BDF82600401E00B2ADF8F7
:10BBE000260002208DF844000DA9304613F042FED5
:10BBF00000200A90484619F077FB00BF67E6000076
:10BC000094B9039096B90390A2B90390B2B9039086
:10BC10007C0100248001002414D505242DE9FF4F68
:10BC20008FB00C4615461E46B4F90200401E0E9019
:10BC30000E9840100D900E9800F001010D980844E8
:10BC40000C90B5F90000B6F90010884202DAB5F997
:10BC5000000001E0B6F90000ADF82800B5F90000D9
:10BC6000B6F90010884202DDB5F9000001E0B6F92E
:10BC70000000401E00B2ADF82C0069880C98081A2C
:10BC800000B2ADF82A0069880D98084400B2ADF8FA
:10BC90002E000F980AA982680AA8F7F79BFF824630
:10BCA000BAF1000F02D113B0BDE8F08FE08818B1EF
:10BCB000A08808B1012000E00020834601200990FF
:10BCC0000AA812F027FF10B10020099004E0BBF190
:10BCD000000F01D0002009901C2102A819F033FDAB
:10BCE0000AA802902088ADF81000207A8DF8200074
:10BCF000099820B102A90F9813F0BCFD78E00AA8BA
:10BD00000EF0EFFD0746BDF92E000190BDF82A00A8
:10BD1000ADF82E0000200090BBF1000F0BD0B4F95D
:10BD20000600B4F904100844BDF9281091FBF0F2A4
:10BD300000FB12100090384619F05AFA8046CDF8F0
:10BD400014800AA80790BDF92A904AE03946404677
:10BD500019F030FDBDF928103BB20FFA89F24046C8
:10BD600012F088FE8DF81800BBF1000F27D09DF867
:10BD7000180020B3009800211BE0B4F9042082428F
:10BD800007DBA3881B1A1AB28B1819B2831818B2D2
:10BD90000BE0B4F90620B4F904301A44824201DC05
:10BDA000002002E0002208F801204A1C11B2421CC7
:10BDB00010B2B942E1DB02228DF8182000BF02A9BF
:10BDC0000F9813F057FDBDF82A00401C00B2ADF8E3
:10BDD0002A00BDF82E00401C00B2ADF82E0009F17B
:10BDE000010901988145B1DD404619F07DFA00BF97
:10BDF00000BF58E72DE9FF4FC7B08B4691469A46E2
:10BE0000B9F90200BAF90210884210DAB9F8020052
:10BE1000ADF81A01BAF80200ADF81601B9F8000041
:10BE2000ADF81801BAF80000ADF814010FE0BAF847
:10BE30000200ADF81A01B9F80200ADF81601BAF81F
:10BE40000000ADF81801B9F80000ADF81401BDF913
:10BE50001401BDF91811441ABDF91601BDF91A11E2
:10BE6000451A002C01DD204600E06042002D01DD76
:10BE7000294600E06942884201DD012000E00020FF
:10BE80004490BBF9026000204390449870B1002DAB
:10BE900001DD284600E068424101002C01DD20461A
:10BEA00000E0604291FBF0F043900DE0002C01DDDA
:10BEB000204600E060424101002D01DD284600E0FF
:10BEC000684291FBF0F04390E0494398085C70436E
:10BED0003F30C611771006F0010000EB0708BDF9EE
:10BEE0001801BDF91411884202DABDF9180101E008
:10BEF000BDF91401801B00B2ADF80401BDF91801B1
:10BF0000BDF91411884202DDBDF9180101E0BDF947
:10BF10001401304400B2ADF80801BDF91A01BDF9B1
:10BF20001611884202DABDF91A0101E0BDF91601C5
:10BF3000801B00B2ADF80601BDF91A01BDF916115A
:10BF4000884202DDBDF91A0101E0BDF91601304455
:10BF500000B2ADF80A01479841A9826841A8F7F7F5
:10BF600039FE4090409810B94BB0BDE8F08F44982E
:10BF7000F0B3002C24DD0021BDF81601C01B00B277
:10BF8000CDE90001BDF91431BDF81A01C01B02B2A0
:10BF9000BDF9181135A812F0B7FE0121BDF8160140
:10BFA000404400B2CDE90001BDF91431BDF81A01D9
:10BFB000404402B2BDF918112AA812F0A5FE4AE0C9
:10BFC0000021BDF81601404400B2CDE90001BDF9E1
:10BFD0001431BDF81A01404402B2BDF9181135A858
:10BFE00012F092FE0121BDF81601C01B00B200E064
:10BFF0000DE0CDE90001BDF91431BDF81A01C01BF7
:10C0000002B2BDF918112AA812F07EFE23E0002129
:10C01000BDF91601CDE90001BDF81401404403B299
:10C02000BDF91A21BDF81801404401B235A812F03B
:10C030006BFE0121BDF91601CDE90001BDF8140127
:10C04000C01B03B2BDF91A21BDF81801C01B01B213
:10C050002AA812F059FE002135A812F055FA1390C3
:10C0600000212AA812F050FA12904FF0FF301190E0
:10C0700010909BF80900C0F3001068BB0321BDF8C5
:10C080001A01204400B2CDE90001BDF81801401B9F
:10C0900003B2BDF91A21BDF918111FA812F034FE20
:10C0A0000221BDF81601204400B2CDE90001BDF81F
:10C0B0001401401B03B2BDF91621BDF9141114A8D7
:10C0C00012F022FE00211FA812F01EFA119000218A
:10C0D00014A812F019FA109041A80EF002FC0F906B
:10C0E000F9F754FB019011F08DFA0D9041A80EF074
:10C0F000AFFB01460D98814203D241A80EF0A8FB88
:10C1000000E00D980C900C9819F072F80B90BDF9A6
:10C110000A010A90BDF80601ADF80A010020099055
:10C12000DDE90B0119F046FB1C2102A819F00BFBFD
:10C1300041A80290BBF80000ADF810009BF8080081
:10C140008DF820000B98059041A80790BDF90601D5
:10C150000E9040E0BDF90411099B0B9AD0180F9A7C
:10C1600013B20E9A12B212F085FC8DF818009DF8E9
:10C17000180028B9099A0B9988180F9919F0E3FA51
:10C180000F990998084409900F99099801440C984F
:10C19000814206D2BDF80A01401C00B2ADF80A0186
:10C1A00016E002208DF8180002A9479813F062FBF0
:10C1B000BDF80A01401C00B2ADF80601BDF8060149
:10C1C000ADF80A0100200990DDE90B0119F0F2FA3F
:10C1D0000E98401C0E900A990E988842BADDBDF95F
:10C1E0000601BDF90A1188420CD0BDF80A01401EB3
:10C1F00000B2ADF80A0102208DF8180002A9479894
:10C2000013F038FB0B9819F06FF835A812F05EFCAC
:10C210002AA812F05BFC1198401C10B11FA812F064
:10C2200055FC1098401C10B114A812F04FFC139844
:10C2300013F0D0F8129813F0CDF8119813F0CAF853
:10C24000109813F0C7F800BF8EE60000B2BA039052
:10C250002DE9FF4F91B00C4615461E46B4F9020079
:10C26000401E1090109840100F90109800F001019F
:10C270000F9808440E9029880E98081A00B2ADF85D
:10C28000300029880F98084400B2ADF83400B5F9A1
:10C290000200B6F90210884202DAB5F9020001E0A4
:10C2A000B6F90200ADF83200B5F90200B6F9021095
:10C2B000884202DDB5F9020001E0B6F90200401E35
:10C2C00000B2ADF8360011980CA982680CA8F7F7F7
:10C2D00081FC8146B9F1000F02D115B0BDE8F08FA5
:10C2E000E08818B1A08808B1012000E00020824653
:10C2F00001200B900CA812F00DFC10B100200B9047
:10C3000004E0BAF1000F01D000200B901C2104A81A
:10C3100019F019FA0CA804902088ADF81800207ABA
:10C320008DF828000B9820B104A9119813F0A2FAF7
:10C3300066E00CA80EF0D5FA8346BDF936000390EE
:10C34000BDF83200ADF83600584618F051FF0290A3
:10C35000029807900CA8099000200190BAF1000FF4
:10C360000BD0B4F90600B4F904100844BDF932103A
:10C3700091FBF0F200FB12100190019FBDF9328099
:10C3800037E05946029819F015FABDF930100FFA46
:10C390008BF30FFA88F2029812F06CFB8DF82000F4
:10C3A000BAF1000F13D09DF8200070B1B4F9040069
:10C3B000B84202DA00208DF82000B4F90600B4F982
:10C3C00004100844B84200DC0027781C07B204A916
:10C3D000119813F04FFABDF83200401C00B2ADF8CE
:10C3E0003200BDF83600401C00B2ADF8360008F14E
:10C3F000010803988045C4DD029818F075FF00BF5E
:10C4000000BF6AE72DE9FC5F8046404614F0B0FDAE
:10C410000746B946D9F824603446404614F04FFD2B
:10C420000546606A00F114026846A968F7F7D2FB76
:10C430008246BAF1000F41D0D5F808B0C5F808D04F
:10C4400094F83C00C0F3401048B3608FE18E8842FE
:10C450000CD1628F212329463046FDF7FBFA628F0B
:10C46000212329463046FDF761FB24E0628F20231B
:10C4700029463046FDF7EEFA628F202329463046E2
:10C48000FDF754FBE28E012329463046FDF7E2FA20
:10C49000E28E012329463046FDF748FB0BE0628F10
:10C4A000202329463046FDF7D5FA628F20232946FE
:10C4B0003046FDF73BFBC5F808B000BFBDE8FC9F68
:10C4C0002DE9F14FD0B0509814F052FD04462546A6
:10C4D000288E10B951B0BDE8F08F509814F0EFFCE1
:10C4E0004F90608C20F00400001D60844DA9204610
:10C4F0001BF01EF80026B246B4F8208000202084ED
:10C50000608C20F00400001D608427A812F090FFCA
:10C510001FA811F081FF27AA4FF4A02120461DF08B
:10C5200043F81FAA4FF4A02120461CF062FF608C44
:10C5300020F004006084A4F82080002120461CF034
:10C5400066FB1E90002120461CF018F91D9000216A
:10C5500020461CF0F0F91C90002120461CF094FAB3
:10C560001B9009A84F991AF0D9FC4FF4A0201690FF
:10C57000D7480A9000200B903DA80D9035A80E904A
:10C5800000BF9BE103E00AF101001FFA80FA696A2B
:10C5900051F82A00CFA1F4F703F80028F3D0E96A94
:10C5A00031F81600FAF72CFD00B181E10027E96AA5
:10C5B00031F81600FAF714FD08B147F00107E96AEF
:10C5C00031F81600FAF720FD10B147F0800716E0A9
:10C5D000A88EB04213D108F0200008B147F0200720
:10C5E00008F0020008B147F0020708F0040008B1A3
:10C5F00047F0040708F0080008B147F00807A86AE8
:10C6000000EBC6014BA80EF09DF8BDF82C01BDF85B
:10C610003411084400B2ADF82C01BDF82E01BDF86C
:10C620003611084400B2ADF82E01BDF83001BDF856
:10C630003411084400B2ADF83001BDF83201BDF844
:10C640003611084400B2ADF8320157B9382227A993
:10C650003DA818F0EAFE20221FA935A818F0E5FE33
:10C660001DE02784608C20F00400001D60843DA83C
:10C6700012F0DEFE35A811F0CFFE3DAA4FF4A02146
:10C6800020461CF091FF35AA4FF4A02120461CF053
:10C69000B0FEA4F82080608C20F004006084E96A79
:10C6A00031F81600FAF7B8FC8346BBF1000F06D04C
:10C6B0009DF8F10040F001008DF8F10005E09DF8D3
:10C6C000F10020F001008DF8F1004BA80C901796B6
:10C6D00009AA1A21204614F051FC9DF817014008C0
:10C6E00000F01000F0B39DF8170120F03E001E305E
:10C6F0008DF81701BDF92C11B4F914201C981044C1
:10C7000081420AD19DF81701400820F004009DF8ED
:10C71000171160F345018DF81711BDF93011B4F907
:10C7200018201B98101A81420AD19DF81701400861
:10C7300020F008009DF8171160F345018DF81711DE
:10C74000BDF92E11B4F916201E98104481420CD167
:10C750009DF81701400820F002009DF8171160F3C2
:10C76000450100E014E08DF81711BDF93211B4F95C
:10C770001A201D98101A81420AD19DF8170140080D
:10C7800020F001009DF8171160F345018DF8171195
:10C790004BA80EF048F8814607F0200060B1E86A27
:10C7A00030F8160000F4007030B1BDF82E01A0EB97
:10C7B000090000B2ADF82E014BAA3DA94F9812F026
:10C7C0001BFE35980890BDF9E8000790BDF9E6001A
:10C7D0000690686A50F82A0005904DA80EF0ABF854
:10C7E00003909DF8F11002460698CDE901210090D2
:10C7F00004A8DDE90732059922F0A8FD4BA80EF048
:10C800009AF8BDF91010401A039000EBD070BDF8F3
:10C810002C1101EB600000B2ADF82C014BA80EF01A
:10C8200002F8BDF91210401A039000EBD070BDF869
:10C830002E1101EB600000B2ADF82E01BDF82C0105
:10C84000BDF81010084400B2ADF83001BDF82E015B
:10C85000BDF81210084400B2ADF8320107F0200014
:10C86000C0B1E86A30F8160000F4007090B1484694
:10C8700009EBD071BDF82E21A2EB610109B2ADF830
:10C880002E1109EBD071BDF83221A2EB610109B282
:10C89000ADF83211002000904BAA35A9059B4F98A6
:10C8A00011F006FA09AA1B21204614F067FB00BF0D
:10C8B000701C86B20AF101001FFA80FA288EB0427D
:10C8C0003FF760AE608C20F00400608400BF01E69A
:10C8D000107304900A0000002DE9F14FA2B02298D5
:10C8E00014F046FB04462546229814F0E8FA2190FD
:10C8F000002120461BF0DEFD81462646002741F63A
:10C900001202394630461CF0DDF90A900A98484474
:10C9100000B2209000BF41F61302394630461CF0A9
:10C92000D1F90A900A98484400B21F90002120468D
:10C930001CF087F9484400B21E9016A811F06CFD57
:10C9400016AA4FF4003120461CF053FDA86A10B11E
:10C95000D5F828800AE0802018F04AFC064680229C
:10C960003146204613F0DEFFB04600BF4FF0000A0C
:10C9700095F83C0000F00F00012800D18246002607
:10C9800041F26A42314620461CF09CF90A900A980E
:10C99000C0B2012800D18246E86A00287ED0E86A49
:10C9A00016F02CFC0A900A98022814D19DF8750004
:10C9B00041F6FF72BDF96A10CDE900120290BDF98F
:10C9C0006C30169A07A8E96A22F0C0FCBDF91C6019
:10C9D000BDF91E7011E007A9E86A16F0B7F88346A2
:10C9E000BBF1010F05D10798C0F38A260798470DC0
:10C9F00002E04FF0FF36374600BFBAF1000F0DD00E
:10CA0000A18A2098084400B2ADF82000BDF82000AB
:10CA10003044401E00B2ADF824000DE0218B1F9879
:10CA2000081A801B00B2ADF82000BDF82000304489
:10CA3000401E00B2ADF824000A98022815D1E18A00
:10CA40001E98084400B2ADF82200BDF82200384418
:10CA5000401E00B2ADF826000020009008AA16A9DA
:10CA6000EB6A219811F024F940E020461AF0B6FD57
:10CA7000A0EB070B0BEBDB704110E08A084400B21F
:10CA8000ADF82200BDF822003844401E00B2ADF8D7
:10CA9000260002A811F0EFF802AA00E027E04FF408
:10CAA000003120461CF046FC304606EBD0714910A0
:10CAB00009B2ADF80C10384607EBD07149100AB234
:10CAC000ADF80E204FF4003B43F60F0259462046C6
:10CAD0001CF0F8F80190019880B2ADF8080008AA9F
:10CAE00002A9EB6A219811F077F800BF00BF0EA8E9
:10CAF00011F092FC0EAA002120461CF07AFC9DF851
:10CB0000550041F6FF72BDF94A10CDE900120290BE
:10CB1000BDF94C3041460DA80E9A22F017FCE18A6F
:10CB20001E98084400B2ADF82E00BDF82E00BDF8E6
:10CB30003610084400B2ADF83200E86AB0B92046B9
:10CB40001CF0E7FABDF93410461A06EBD670A18A3C
:10CB500001EB600000B2ADF82C00BDF82C00BDF870
:10CB60003410084400B2ADF8300022E0BAF1000FF2
:10CB700011D0218B1F98081ABDF83410401A00B24A
:10CB8000ADF82C00BDF82C00BDF83410084400B2FC
:10CB9000ADF830000DE0A18A2098084400B2ADF84D
:10CBA0002C00BDF82C00BDF83410084400B2ADF8DC
:10CBB0003000002043460BAA0EA90090219811F0E6
:10CBC00077F8A86A10B9404618F08EFB23B0BDE88C
:10CBD000F08F2DE9F14F90B0109814F0C9F9054687
:10CBE0002C46109814F06BF906460EA928461AF048
:10CBF0002BFC002794F84800C0F3001008B147F060
:10CC0000010794F84800C0F3401008B147F002074C
:10CC1000002128461CF056FA42F2D171884205D113
:10CC2000688CC0F3802008B947F0040706A811F00B
:10CC3000F3FBB4F84400ADF82E004620005BADF8DD
:10CC400030008DF8357006AA002128461CF0D1FB73
:10CC50000DA8411E626A03780BB90123037000BF5F
:10CC6000284617F06BFA0790284617F061FA0890EB
:10CC70004FF6FF71079888421ED0089888421BD053
:10CC80004FF4802B44F25742594628461CF01AF8BC
:10CC9000029002980390BDF80C00ADF8260000BF8A
:10CCA0002022594628461CF00DF802900298039065
:10CCB000BDF80C00ADF8280094F8480000F007001B
:10CCC000022805D094F8480000F0070003281FD17F
:10CCD0009DF83400022803D09DF83400032817D1B2
:10CCE00041F6FF71BDF92A008DE88300BDF92C30B3
:10CCF000069A03A8616A22F029FB0EA80DF029FE0E
:10CD0000BDF90C10884202DA01208DF8340000BF12
:10CD100004F1300894F8480000F00700032805D01B
:10CD20000EA80DF08EFDB0F5806F01DA4FF000080F
:10CD30000EA904A8B268F6F74DFF8146B9F1000FBD
:10CD400002D111B0BDE8F08F94F8480000F0070060
:10CD500070B928461AF032FE8346CBF1000002B2C9
:10CD600000210EA80DF00DFE688BADF83E0000BF4F
:10CD700094F8480000F00700022805D094F8480015
:10CD800000F0070003280ED1D6F808B004A8B06060
:10CD9000CDF800800EAA06A93046636A10F088FF1D
:10CDA000C6F808B007E0CDF800800EAA06A9304604
:10CDB000636A10F07DFFD6F808A004A8B06094F86C
:10CDC000480000F0070003284FD141F6FF71BDF97C
:10CDD0002A008DE88300BDF92C30069A03A8616A09
:10CDE00022F0B4FA0EA80DF0B4FDBDF90C10884283
:10CDF0001BDA20221146069814F03BFB00EB4000A2
:10CE0000B4F84410BDF80C201144084400B2ADF849
:10CE10002E004620005BADF83000CDF800800EAA51
:10CE200006A93046636A10F043FF0EA80DF009FD15
:10CE3000BDF90E10884217DAB4F84400ADF82E00A0
:10CE4000069814F035FB4621095BBDF80E2011440D
:10CE5000084400B2ADF83000CDF800800EAA06A953
:10CE60003046636A10F024FF00BFC6F808A000BF78
:10CE700067E72DE9F14F9AB01A9814F018F8804638
:10CE80001A9814F075F80446B8F1150F16D11A98CF
:10CE900014F015F8054618A9204606F01BFC0AA850
:10CEA00012F0C6FA0AAA4FF4802120461CF07CFB3F
:10CEB00018AA0AA9284612F09FFAC5E0B8F1180F7F
:10CEC000FBD11A9813F0FBFF054612A811F0A4FA43
:10CED00012AA4FF4802120461CF08BFA10A920469C
:10CEE00006F0F8FB10AA0EA8A968F6F773FE0D90DD
:10CEF0000D9800287DD0204606F061F88146204636
:10CF00001CF007F98346484617F00CF902210390FC
:10CF1000BDF95A00CDE901B10090BDF95C300CA813
:10CF2000129A039922F012FA20461AF057FB06468D
:10CF3000304606EBD0714A10B4F916100A44B9F91C
:10CF40001610891A0B9148461AF048FB0B99890371
:10CF500091FBF0F00B90002120461BF098FF0A9007
:10CF60001299B1F908200A99B1F90810501A00EB8A
:10CF7000D071491009B20991BDF832100998081A08
:10CF800000B2ADF83200304606EBD0714A10B4F969
:10CF900016105718BDF932000B99484307EBA0371C
:10CFA00009983F1A002120461BF091FA82464FF063
:10CFB000000B41F61202594620461BF083FE0390F7
:10CFC000039800B2089000BF41F61302594620466C
:10CFD0001BF078FE0390039800B20790A18A08988E
:10CFE0000844504400B2ADF8140038B2ADF8160051
:10CFF00000E028E0218B0798081AA0EB0A0000B295
:10D00000ADF81800BDF81600BDF83210084400B2A3
:10D01000ADF81A009DF8650040F002008DF865003B
:10D02000A86804900EA8A860484617F07BF88346CD
:10D0300000205B4605AA12A90090284610F038FE91
:10D040000498A86000BF00BF1BB0BDE8F08F2DE9B9
:10D05000F14FA8B0289813F08BFF04462546289876
:10D0600013F02DFF2790002120461BF08BFC26900B
:10D07000002120461BF02FFD2590002120461BF0AB
:10D08000FAFD2490002120461BF09FFB239000BF57
:10D09000A08AADF88400E08AADF88600208BADF858
:10D0A0008800608BADF88A0000BFBDF88410269818
:10D0B000084400B2ADF88400BDF888102598081A1D
:10D0C00000B2ADF88800BDF886102498084400B27C
:10D0D000ADF88600BDF88A102398081A00B2ADF8A2
:10D0E0008A0013A812F0A4F913AA4FF400312046C5
:10D0F0001CF05AFA21AA13A9279812F07DF90026EC
:10D1000020461AF06BFA074600BF208BA18A401A0E
:10D11000401CC01B0FFA80F8686A401C40B1696A65
:10D1200001FB08F0C11700EB116109120EB20CE00F
:10D1300020461BF0B7F800F0010BBBF1000F01D047
:10D14000404600E00020064600BF4FF0000B41F2D1
:10D150006A42594620461BF0B5FD00900098C0B2C7
:10D16000012802D1A8EB060006B2A08A304400B222
:10D17000ADF84400BDF84400384400B2ADF84800B2
:10D18000E08AADF84600608BADF84A004FF44031BC
:10D1900020461BF0F7FB81464FF4403120461BF040
:10D1A0009AFC82464FF4403120461BF064FD1090FB
:10D1B0004FF4403120461BF008FB0F90BDF84400AF
:10D1C000A0EB090000B2ADF84400BDF8480050449F
:10D1D00000B2ADF84800BDF846101098081A00B229
:10D1E000ADF84600BDF84A100F98084400B2ADF8FB
:10D1F0004A0001A812F01CF901AA4FF44031204660
:10D200001CF0D2F911AA01A9279812F0F5F829B05B
:10D21000BDE8F08F2DE9F14FE0B0609813F0A8FE63
:10D2200004462546609813F04AFE814604F1140135
:10D230005EA8D9F80820F6F7CDFC10B961B0BDE8BA
:10D24000F08FD9F808005D905EA8C9F808004FF08B
:10D25000000841F23202414620461BF033FD0C909B
:10D260000C9800B25690002120461BF011FD5590FD
:10D27000002120461BF0B6FA5490002120461BF0F6
:10D280008EFB5390002120461BF032FC52904FF44D
:10D29000A02120461BF083FB51904FF4A021204693
:10D2A0001BF026FC50904FF4A02120461BF0F0FC10
:10D2B0004F904FF4A02120461BF094FA4E90208C02
:10D2C0004D9000202084608C20F00400001D6084BC
:10D2D0003FA812F0ADF83FAA4FF4A02120461CF061
:10D2E00063F929A811F098F829AA4FF4A021204643
:10D2F0001CF07FF84D982084608C20F0040060843E
:10D30000002720461AF06EFB0146E28A5598104429
:10D31000401E411A5698084400B2ADF86E012046EE
:10D320001AF056FB2090002120461BF05CF80128E3
:10D3300000D100E000201F9049460DA819F0EEFD35
:10D340004FF4A0201A90FE480E9000200F9031A8B4
:10D35000119021A812904FF0000B33E2E86A30F9E7
:10D360001B000C90BDF86E01401C00B2ADF86A01C4
:10D37000BDF86A110C980844401E00B2ADF86E0169
:10D38000BDF96A01BDF97E11884200DD1EE21F98D9
:10D3900058B1218B5298081A401E2099411A56986C
:10D3A000081A00B2ADF868010AE0A18A539808444F
:10D3B000401E2099411A5698084400B2ADF86C01FD
:10D3C0000026F7E100200B90A86A50F8270020B152
:10D3D000A86A50F8270000780B901F9880B1BDF81C
:10D3E0006801401E00B2ADF86C01286B30F81600E1
:10D3F000BDF86C11081A401C00B2ADF868010FE0CE
:10D40000BDF86C01401C00B2ADF86801286B30F823
:10D410001600BDF868110844401E00B2ADF86C015A
