:020000040800F2
:10000000B0A4012055030008433D00083B3D000813
:100010003F3D0008A11A00085D4F000800000000E5
:100020000000000000000000000000009502000831
:10003000A51A000800000000F1020008D94A0008D3
:1000400079030008790300087903000879030008A0
:100050007903000879030008790300087903000890
:100060007903000879030008790300087903000880
:100070007903000879030008790300087903000870
:100080007903000879030008790300087903000860
:100090007903000879030008790300087903000850
:1000A0007903000879030008790300087903000840
:1000B0007903000879030008790300087903000830
:1000C0007903000879030008790300087903000820
:1000D000790300080D4F0008790300087903000830
:1000E0007903000879030008790300087903000800
:1000F00079030008790300087903000879030008F0
:1001000079030008790300087903000879030008DF
:100110007903000879030008014B000879030008FF
:1001200079030008790300087903000879030008BF
:1001300079030008790300087903000879030008AF
:10014000790300087903000879030008790300089F
:10015000790300087903000879030008790300088F
:10016000790300087903000879030008790300087F
:1001700079030008790300087903000800000000F3
:10018000790300087903000800F002F800F072F823
:100190000AA090E8000C82448344AAF10107DA45E2
:1001A00001D100F067F8AFF2090EBAE80F0013F0C2
:1001B000010F18BFFB1A43F001031847D4D70700FB
:1001C000F4D707000A444FF0000C10F8013B13F07D
:1001D000070408BF10F8014B1D1108BF10F8015BA0
:1001E000641E05D010F8016B641E01F8016BF9D193
:1001F00013F0080F1EBF10F8014BAD1C0C1B09D1EA
:100200006D1E58BF01F801CBFAD505E014F8016B5B
:1002100001F8016B6D1EF9D59142D6D370470000ED
:100220000023002400250026103A28BF78C1FBD8FF
:10023000520728BF30C148BF0B60704766293FF0A6
:10024000EE85642900F09281782900F0CB81732932
:1002500000F05B87002070471FB53FF0DBFD00F02A
:100260006BFF0400002000213FF086FAE0601FBD14
:1002700010B510BD01F01EF81146FFF7EDFF35F087
:1002800067F801F03CF803B4FFF7F2FF03BC06F097
:10029000B7FF00002C4B19680868B0E8F04F80F3F6
:1002A0000988BFF36F8F4FF0000080F3118870470B
:1002B0000000000008480068006880F308884FF0DC
:1002C000000080F3148862B661B6BFF34F8FBFF3AE
:1002D0006F8F00DF00BF00BF08ED00E0DFF80C000B
:1002E000016841F470010160704700BF88ED00E0D3
:1002F000EFF30980BFF36F8F134B1A681EF0100FD6
:1003000008BF20ED108A20E9F04F106009B44FF0CB
:10031000500080F31188BFF34F8FBFF36F8F3EF013
:100320001DFA4FF0000080F3118809BC19680868B5
:10033000B0E8F04F1EF0100F08BFB0EC108A80F349
:100340000988BFF36F8F7047A4000020EFF305808A
:10035000704700000C48016841F4700101600B48CF
:1003600080470B480047FEE7FEE7FEE7FEE7FEE7B3
:10037000FEE7FEE7FEE7FEE7FEE700000548064968
:10038000044A064B7047000088ED00E0ED4A000883
:1003900089010008B0940120B0A40120B09401208C
:1003A000704753EA020C00F069802DE9F04B4FF0E2
:1003B0000006002B1FBFB3FA83F503FA05F424FAF5
:1003C00005F65E4012BF1643B2FA82F502FA05F452
:1003D000C5F120051EBF22FA05FC44EA0C042035B5
:1003E00056EA044C4FEA144418BF641C4FF000084E
:1003F0004FF00009904271EB030C39D3002919BF6B
:10040000B1FA81F701FA07F6B0FA80F700FA07F6B9
:10041000C7F120071EBF20FA07FC46EA0C0620376A
:10042000B6FBF4FCA7EB0507103F07F01F0BCBF161
:1004300020060CFA0BFB2CFA06F644BFB346002646
:10044000202FA4BF5E464FF0000B5BEA060C08BFEE
:100450004FF0010B19EB0B09ABFB027C48EB0608D4
:10046000C01B06FB02CC0BFB03CC71EB0C01C1E7FC
:100470000B46024641464846BDE8F08B13B54FF0A7
:1004800000004FF00001AFF30080BDE81C40704752
:1004900010B54C1084EA530404D54042C1F1000168
:1004A00038BF491E1B4204D55242C3F1000338BF76
:1004B0005B1EFFF776FF14F0804F04D04042C1F17D
:1004C000000138BF491E14F0004F04D05242C3F15E
:1004D000000338BF5B1E10BD0FB4044910B503AA5A
:1004E000029800F017FE10BC5DF814FB1400002009
:1004F0000FB41CB5074B06AA7B44694600900598CB
:1005000000F0D9FD0020694600F0E8FD1CBC5DF854
:1005100014FB0000E10B000070B50C460546012AF3
:1005200005D02878800600D5EA69002302E001237F
:1005300005E05B1C934202D2E05C0028F9D1A86977
:10054000E618C01AA861286A184428622846AFF342
:10055000008004E0D5E9012114F8010B9047B44272
:10056000F8D32846AFF3008070BD00002DE9F041BC
:100570000646002410687529314616A510D0AFF341
:100580000080002802DA404213A507E031688A079C
:1005900001D512A502E0490704D511A5012401E007
:1005A000AFF3008000210A2206F1240709E0B0FB26
:1005B000F2FCB0FBF2F302FB1C003030785418461A
:1005C000491C0028F3D123462A463046BDE8F041B5
:1005D00000F003BB000000002D0000002B00000015
:1005E0002000000070B504460D4621461068AFF3A8
:1005F00000802188090502D50F4A7A4402E00E4A9C
:100600007A440E32002104F1240305E000F00F06C5
:100610000009965D5E54491C0028F7D1207800231C
:10062000000704D5702D02D009B1022311322046F3
:10063000BDE8704000F0D1BA7CCD07002DE9F05F35
:10064000894604464FF0000ADFF874B1FB44C0F855
:1006500020A02046E1688847002874D0252806D0CD
:10066000D4E901219047206A401C2062F1E700266E
:100670005F462046E16888472028054607DB312D84
:1006800005D2781910F8200C08B10643F1E7B0073D
:1006900001D526F00406C4F81CA00027C4F818A051
:1006A0002A2D09D0284604F0ADFC38B304EB8708A6
:1006B000303DC8F8185019E059F8041B204604EBE7
:1006C00087029161E1688847012F054618D1E069EA
:1006D000002820DA26F020061DE0D8F8180000EBEC
:1006E000800005EB40003038C8F818002046E1686B
:1006F0008847054604F086FC0028EED1012F0AD079
:100700002E2D08D12046E16888477F1C0546022F20
:1007100046F02006C4DBA069002803DA404246F018
:100720000106A061F00701D026F010066C2D0BD059
:10073000682D09D04C2D39D06A2D35D0742D35D087
:100740007A2D33D016E038E0E1682F4620468847FE
:10075000B842054609D16C2F26D04FF48060E1687D
:10076000064320468847054604E06C2F1AD04FF414
:10077000807006430DB3A5F14100192802D8203539
:1007800046F400664A462946204626604E46FFF754
:1007900055FD80B101280BD0F61D26F0070000F1B1
:1007A000080956E74020E4E78020D8E70020D6E794
:1007B00006F104094DE7284652E7206ABDE8F09F9C
:1007C00052CD070040EA010310B59B070FD1042A60
:1007D0000DD310C808C9121F9C42F8D020BA19BA0C
:1007E000884201D9012010BD4FF0FF3010BD1AB171
:1007F000D30703D0521C07E0002010BD10F8013BC6
:1008000011F8014B1B1B07D110F8013B11F8014BEC
:100810001B1B01D1921EF1D1184610BD40EA010305
:10082000024630B59B0710D14FF0013400E008C2FA
:1008300008C91D1B9D4315EAC41FF8D013F0FF0122
:1008400002F8011B0DD01B0AF8E711F8013B002B41
:1008500002F8013B05D011F8013B002B02F8013BE7
:10086000F3D130BD10B5431C02E010F8011B71B18B
:100870008107FAD14FF0013202C88C1A8C4314EA76
:10088000C211F9D0C01A0A0603D0C01E10BDC01A8A
:1008900010BD0A0401D0801E10BD0902FCD0401E0C
:1008A00010BD40EA010370B59B072ED14FF0013611
:1008B000042A2AD308C810C99D1B9D43121F15EA9C
:1008C000C61517D0D8B2E1B2401A50EA056110D16E
:1008D00098B2A1B2401A50EA05410AD123F07F40F4
:1008E00024F07F41401A50EA052102D1180EA0EBF6
:1008F000146070BDA342DBD018BA21BA884201D976
:10090000012070BD4FF0FF3070BD0AB9002070BDEE
:1009100010F8013B11F8014B63B1A3420AD1521EFA
:1009200008D010F8013B11F8014B1BB1A34201D1D3
:10093000521EEDD1181B70BD032A40F2308010F01A
:10094000030C00F0158011F8013BBCF1020F62446A
:1009500098BF11F801CB00F8013B38BF11F8013BFB
:10096000A2F1040298BF00F801CB38BF00F8013BA8
:1009700011F0030300F02580083AC0F0088051F818
:10098000043B083A51F804CBA0E80810F5E7121D23
:100990005CBF51F8043B40F8043BAFF30080D20742
:1009A00024BF11F8013B11F801CB48BF11F8012B0E
:1009B00024BF00F8013B00F801CB48BF00F8012B31
:1009C000704710B5203AC0F00B80B1E81850203ABB
:1009D000A0E81850B1E81850A0E81850BFF4F5AFDF
:1009E0005FEA027C24BFB1E81850A0E8185044BF69
:1009F00018C918C0BDE810405FEA827C24BF51F8D6
:100A0000043B40F8043B08BF7047D20728BF31F8C9
:100A1000023B48BF11F8012B28BF20F8023B48BF1A
:100A200000F8012B704702F0FF0343EA032242EA79
:100A3000024200F002B84FF000020429C0F0128018
:100A400010F0030C00F01B80CCF1040CBCF1020F81
:100A500018BF00F8012BA8BF20F8022BA1EB0C0156
:100A600000F00DB85FEAC17C24BF00F8012B00F84C
:100A7000012B48BF00F8012B70474FF0000200B572
:100A8000134694469646203922BFA0E80C50A0E8B1
:100A90000C50B1F12001BFF4F7AF090728BFA0E85F
:100AA0000C5048BF0CC05DF804EB890028BF40F82B
:100AB000042B08BF704748BF20F8022B11F0804F6D
:100AC00018BF00F8012B70474FF0013C50F8042B81
:100AD00051F8043B9A4221D1A2EB0C03934313EA51
:100AE000CC1317D150F8042B51F8043B9A4215D17E
:100AF000A2EB0C03934313EACC130BD150F8042B55
:100B000051F8043B9A4209D1A2EB0C03934313EA38
:100B1000CC13DBD04FF00000704700BFD01A01BAF1
:100B2000B1FA81F101F0180122FA01F0CB40C1F1D4
:100B30002001DBB2C0B2C01A2CFA01F3D11A9143E2
:100B400011EAC311E6D1704770477047704770478C
:100B500030B5B0F10A024FEA900E71F100034EEA8F
:100B6000817EB0EB0E0061EB91014FEA101E4EEA60
:100B7000017E10EB0E0041EB11114FEA102E4EEAF0
:100B8000016E10EB0E0041EB11214FEA104E4EEAC0
:100B9000014E10EB0E0041EB1141401841F10001F4
:100BA0004FEAD00040EA41704FEAD10110EB8005D6
:100BB0004FEA810444EA907444EB01046D1944EB5C
:100BC0000404521BA3414FF0000348BF0A3200D572
:100BD00030BD401C41F1000130BD2DE9F0470D460C
:100BE00099469246044600F124080168880604D517
:100BF000E06921F01001216000E00120A84201DD40
:100C0000471B00E00027A1697A1902EB0900081AC6
:100C1000A0612078C00602D42046AFF300800026F1
:100C200008E0D4E901211AF806009047206A401C28
:100C3000761C20624E45F4DB2078C0060AD520469B
:100C4000AFF3008006E0D4E9012130209047206A0C
:100C5000401C2062381EA7F10107F4DC07E0D4E94C
:100C6000012118F805009047206A401C2062281EC8
:100C7000A5F10105F3DC2046AFF3008020780006E3
:100C800002D50220BDE8F0870120FBE770472DE97F
:100C9000FF4F0C461E464FF0FF378BB0D2E90001E4
:100CA000DDF860800A908A46C1F30A5505B93D46D1
:100CB000002108464FF00000BAF1000F00F4400098
:100CC00005DA00EB80004FF4400101EA50004FEAE2
:100CD0009059B9F1010F00DDB9460A9850EA4A006F
:100CE0000ED044F61050A5F2FF3545432F14B8F14D
:100CF000000F1ED07542291E1EDDC9F100021CE046
:100D0000B8F1010F4FF0000001D0302103E0F243B1
:100D100005E02154401CB042FBDB3046002200219C
:100D200021540B99C1F80880C1E900200FB0BDE83B
:100D3000F08FBD1B6D1CDEE74A4600DA694206A84B
:100D400000F03EFA06AB93E8070003AB83E8070028
:100D500050460A9900F0DCFA8DE80700A0F5005033
:100D60001F3800900398002D0ADD42F21F014A4609
:100D70000844002303A90390684600F045FD09E0FC
:100D8000A0F500504A461F38002303A90390684687
:100D900000F04FFD8DE807000004000C03D04FF079
:100DA000FF30410800E01046B8F1000F03D00022E8
:100DB000009215461EE0751E05D4FFF7C9FE3032BD
:100DC00062556D1EF9D5B3460122084302D00022B8
:100DD0007F1C04E02078302801D100227F1E002AE9
:100DE000099784D01DE0112D07DAFFF7B1FE3032EC
:100DF00062556D1C50EA0102F5D1084302D00098FB
:100E0000C8B10EE00021681E05E0235C625C6354FB
:100E10002254401E491C8142F7DBAB46A81B401EF2
:100E20000990002004F80B000B98099AC0F808807C
:100E3000C0E9002B7AE711264FF0000857E72DE9AB
:100E4000F04F88460446D21D22F0070191B0D1E947
:100E50000001CDE90A0104F083F802460B98C00FA7
:100E600001D02D2007E02068810701D52B2002E06A
:100E7000202101EAC000032A099001D0072A05DBDE
:100E800003464146204600F05BF90BE120788006DE
:100E900001D5E06900E00620B8F1650F814606D073
:100EA000B8F1660F18D0B8F1670F70D131E00020AB
:100EB000B9F1110F009001DB112301E009F10103E9
:100EC0000AAA01A90CA8FFF7E2FEDDE90C700026D2
:100ED00009F10105834647E001204B4600904FF0A1
:100EE00000470AAA01A90CA8FFF7D1FEDDE90DB061
:100EF0000C995D46002610B909F101000D18B9EBF7
:100F0000050003D4C0F1FF3609F10105A5EB090086
:100F10002BE0B9F1010F01DA4FF001090020B9F11E
:100F2000110F0090484601DD112300E003460AAA94
:100F300001A90CA8FFF7ABFEDDE90C704D460026B9
:100F40008346207800070AD4AB4500DA5D4601A845
:100F5000012D04DD411911F8011C302907D04F453E
:100F600002DA17F1040F04DA012082460FE06D1E49
:100F7000EEE7002F02DCED1B3E4403E0781CA842A4
:100F800000DD7D1CB81B00F1010A4FF000472078FE
:100F9000000703D4AA4501DB4FF0FF3A0021B7F167
:100FA000004F0DF143088DF8431024D002202B236D
:100FB000002F01DA7F422D230A21021EA0F1010039
:100FC00000DC5FB197FBF1FC97FBF1F201FB1C7CAD
:100FD00017460CF1300C08F801CDEEE7A8F101003E
:100FE00003702188090501D5452100E06521A0F1A4
:100FF000010800F8011C09980FA9A1EB0807FF1DC3
:1010000000B10120411901EBEA70A1693844081AC6
:10101000401EA0612078C00602D42046AFF30080B5
:10102000099828B1D4E901219047206A401C206228
:101030002078C00622D52046AFF300801EE0002EA7
:1010400004DBB34502DD01A8805D00E03020D4E977
:1010500001219047206A401C2062761CAAF1010001
:101060005FEA000A0AD100F067F8C0680168405CD6
:10107000D4E901219047206A401C2062281EA5F176
:101080000105DCDC07E0D4E9012118F8010B9047E9
:10109000206A401C2062381EA7F10107F3DC2046BD
:1010A000AFF30080032011B041E6000001694A1C43
:1010B00002610878704700B58FB0CDE90131002199
:1010C000059105497944CDE9031011466846FFF7BB
:1010D000B5FA0FB000BD0000E5FFFFFF0A6802F897
:1010E000010B0A60704710B5436913B1AFF300807C
:1010F00001E0FFF711FA012010BD127800F1240180
:101100000A7000224A700122EDE711684FF0FF32A9
:10111000E9E70000074B70B50D467B44FFF7CBFFB6
:101120000446284600F0BEF810B14FF0FF3070BD05
:10113000204670BD4F5B010000487047709401204D
:101140002DE9F0411F46044603260168072A01F4F1
:10115000006004DB08B116A505E016A503E008B1A0
:1011600015A500E015A521F010002060A069C01EA3
:10117000A0610FB1401EA0612046AFF300804FB1C7
:10118000D4E9012138469047206A401C2062C01CE7
:10119000206206E0206AFAE7D4E9012115F8010B84
:1011A0009047761EF8D22046AFF30080BDE8F0816C
:1011B0004E414E006E616E00494E4600696E6600FB
:1011C0002DE9F047814616468AB0354878440DC867
:1011D0008DE80D0032487844801C03AC0DC884E8CB
:1011E0000D0041F69B300844372190FBF1F290FB53
:1011F000F1F5A5F1800501FB12041B3C02D5644208
:10120000012000E00020DFF898A080460027FA4483
:10121000AAF1BE0A0EE0E0070AD03246684607EBA4
:10122000470101230AEB810100F003FB8DE8070071
:1012300064107F1C002CEED1194F7F44AE3F19E0A3
:10124000E80715D007EB04100DF1180A90E80E001E
:101250008AE80E00C068F04201D198190890324621
:10126000012306A903A800F0E4FA03AB83E8070012
:101270006D10641C002DE3D14FF001033246694626
:10128000B8F1000F03A802D000F0BEFA01E000F0B0
:10129000D0FAC9E90001C9F808200AB0BDE8F08712
:1012A00060C20700007B00F0800070470048704774
:1012B000509401207546FFF7F9FFAE4605006946D8
:1012C000534620F00700854618B020B5FFF756F8C2
:1012D000BDE820404FF000064FF000074FF0000837
:1012E0004FF0000B21F00701AC46ACE8C009ACE8B8
:1012F000C009ACE8C009ACE8C0098D46704710B51C
:101300000446AFF300802046BDE81040FEF7BBBFA7
:101310005FEA400C08BF91F0000F4FEA8C234FEAC0
:10132000C12243EA51514FEA1C5018BF00F5F0406A
:101330004FEA300018BF41F000415FEA6C5C00F0FA
:101340002980BCF1FF3F08BF40F080407047130C7C
:1013500006BF12044FF0100C4FF0000C130E04BF28
:1013600012020CF1080C130F04BF12010CF1040C53
:10137000930F04BF92000CF1020CD30F04BF520074
:101380000CF1010C11464FF00002A0F11F00A0EB80
:101390000C00704711F0004F08BF704731F000415A
:1013A0003FF4D5AF0B0C06BF09044FF0100C4FF003
:1013B000000C0B0E04BF09020CF1080C0B0F04BF4C
:1013C00009010CF1040C8B0F04BF89000CF1020C15
:1013D000CB0F04BF49000CF1010CCCF12003A0EBB2
:1013E0000C0022FA03F302FA0CF241EA030100F1C5
:1013F0000100704720F07F4C80EA030023F07F4714
:10140000ACEB070303F57C5300F0004003F1FF034E
:101410002DE980494FEA154B09B44FEA144325EAF8
:101420000B4E24EA03480FF2042606EB1327490863
:101430003E785FEA320203FB0667C7F5000707FB49
:1014400006F64FEA54374FEAD64606F1020607FB86
:10145000066CCCF1005C4FEA1C472CEA074C07FBFA
:1014600006F40CFB06F504EB15464FEA961634BF5E
:1014700000204FF000404FEAD13706FB07FC4FEA4F
:101480001C4C0CFB0BF7D21B03FB0CF761EB0701A9
:101490000CFB0EF7B0EB074072EB17420CFB08F7A2
:1014A00034BFA2EB0742B2EB074261EB17414FEAB0
:1014B0000C444FEA910706FB07FC4FEA1C4C0CFB5F
:1014C0000BF7B0EBC74072EB573203FB0CF734BF9E
:1014D000A2EBC742B2EBC74261EB57310CFB0EF7F0
:1014E000B0EBC70072EB57720CFB08F734BFA2EBEE
:1014F000C702B2EBC70261EB5771039F4FEA8161EC
:1015000041EA921104EBCC044FEAD1374FEA8262F0
:1015100006FB07FC42EA90124FEA80604FEA1C4C3F
:101520000CFB0BF7D21B03FB0CF761EB07010CFB69
:101530000EF7B0EB074072EB17420CFB08F734BF15
:10154000A2EB0742B2EB074261EB17414FEA8C5521
:101550004FEA910704EB9C2406FB07FC4FEA1C4C66
:101560000CFB0BF7B0EBC74072EB573203FB0CF7E9
:1015700034BFA2EBC742B2EBC74261EB57310CFB61
:101580000EF7B0EBC70072EB57720CFB08F734BFD5
:10159000A2EBC702B2EBC70261EB577115EB4C250A
:1015A0004FEA816141EA92114FEA82624FEAD137F4
:1015B00042EA901206FB07FC44F100044FEA806007
:1015C0004FEA1C4C0CFB0BF7D21B03FB0CF761EB37
:1015D00007010CFB0EF7B0EB074072EB17420CFB58
:1015E00008F734BFA2EB0742B2EB074261EB1741A9
:1015F00015EB1C154FEA813141EA92414FEA8232E4
:1016000042EA90424FEA80304FEA0C7644F10004FF
:1016100048EA03434EEA0B484FF0000EB2EB080CC9
:1016200071EB030724BF624639464EEB0E0E4FF0B6
:10163000000B0018524149414BEB0B0BB2EB080C6D
:1016400071EB03077BF1000B24BF624639464EEB7A
:101650000E0E4FF0000B0018524149414BEB0B0BA3
:10166000B2EB080C71EB03077BF1000B24BF624661
:1016700039464EEB0E0E51EA020718BF46F001063E
:1016800016EB0E7655F1000254F1000103D5BDE8CA
:101690008901BDE80088BDE88901BDE80048B619A8
:1016A000524141EB0101A3F10103704780807F7E2D
:1016B0007D7C7B7A797877767675747372717170C8
:1016C0006F6E6E6D6C6C6B6A6A696868676666657A
:1016D0006464636362616160605F5F5E5E5D5D5C08
:1016E0005C5B5B5A5A595958585757565655555579
:1016F0005454535352525251515050504F4F4F4ED9
:101700004E4D4D4D4C4C4C4B4B4B4A4A4A49494926
:101710004848484747474746464645454544444468
:10172000444343434342424242414141002B9C4691
:1017300030D477002BD01CB54FEA370703B44FF0F5
:1017400010004FF01001BAF1000F06D0BCF1000FED
:10175000DCBF40F0080040F008014FF000000FBC73
:10176000BDE810400BF1010BBBF1010F08BF5FEAB0
:10177000170722BF12F1010211F101014FF00041E0
:1017800043F1000300F0004043EA00007047F9D342
:101790005708D0E746EA064613F1400F4FEA1646CF
:1017A0001FDD13F1200FDFBF16430A46002120334F
:1017B0005B42BED0C3F1200746EA064602FA07F7AD
:1017C0004FEA164646EA0706C3F1200722FA03F25B
:1017D00001FA07F721FA03F14FF0000342EA07028A
:1017E000A7E746EA020646EA06464FEA164646EAF2
:1017F0000106BCBF46EA0646360C4FF000034FF028
:1018000000024FF0000194E72DE9804C9A46934680
:1018100070B491E8380007C831EA400C48BF34EA98
:10182000430C03D5FFF7E6FDFFF780FFF0BCBDE8F2
:10183000008C2DE9804C9A46934670B491E83800AC
:1018400007C810F0804F08BF13F0804F03D100F09D
:1018500005F8FFF76BFFF0BCBDE8008C20F07F4778
:1018600080EA030023F07F4C07EB0C03A3F57C53C5
:1018700000F00040A3F1FE0392F0000F00F0B380EF
:1018800095F0000F00F077802DE901494FEA1140F3
:101890004FEA144621EA004800FB06FC24EA06470A
:1018A00008FB06F607FB08F800FB07F718EB0648ED
:1018B0004CEB164C4FEA124B18EB07484FEA154613
:1018C0004CEB174022EA0B4E0BFB06FC25EA0647C1
:1018D0000EFB06F607FB0EFE0BFB07F71EEB064E94
:1018E0004CEB164C4FF000061EEB074E4CEB174B23
:1018F00018EB0B0840F1000018EB0E0B58EB00083A
:1019000040F100008F1A4FF000013CBFC943661B35
:1019100014BFB5EB040C00213CBFC943F61B4FEAD2
:1019200017444EEA8E0E27EA04454FEA1C4704FB93
:1019300007622CEA074C05FB07F70CFB05F604FBD6
:101940000CFC16EB074642EB174216EB0C4642EB3B
:101950001C421BEB060658EB0202414146EA9E067A
:1019600001D5BDE80189B619524141EB0101A3F14E
:101970000103BDE801894FEA14454FEA114724EA03
:10198000054621EA074C05FB07F406FB07F70CFBAD
:1019900006F105FB0CFC11EB074144EB17444FEA41
:1019A000124711EB0C4144EB1C4422EA074C05FBA7
:1019B00007F206FB07F70CFB06F605FB0CFC16EB23
:1019C000074642EB174216EB0C4642EB1C456A18E1
:1019D00054F1000148BF7047B619524141EB010173
:1019E000A3F10103704795F0000F37D04FEA114281
:1019F0004FEA144721EA024624EA074C02FB07F1AA
:101A000006FB07F70CFB06F402FB0CFC14EB074487
:101A100041EB17414FEA154714EB0C4441EB1C41D5
:101A200025EA074C02FB07F506FB07F70CFB06F659
:101A300002FB0CFC16EB074645EB174516EB0C4674
:101A400045EB1C42121951F1000148BF7047B6190D
:101A5000524141EB0101A3F1010370474FEA1445E4
:101A60004FEA114724EA054621EA074C05FB07F136
:101A700006FB07F70CFB06F24FF0000605FB0CFC1B
:101A800012EB074241EB174112EB0C4251EB1C41A8
:101A900048BF7047921841EB0101A3F10103704761
:101AA00000BFFEE77047000070B504461D460023E6
:101AB000B5F5804F13D154F822300C480340D1E9DA
:101AC000000640EA06108E6840EA06208E8940EA49
:101AD00006408E693043034344F8223003E06FF040
:101AE000704044F82200002070BD00000000F0CFDC
:101AF00010B503460022086853F82020124802401F
:101B0000D1E901042043CC6820430C6920434C698F
:101B100020438C692043CC6920430C6A20434C6AE3
:101B200020438C6A2043CC6A2043CC6B20430C6B4F
:101B3000204302438868082801D142F04002086827
:101B400043F82020002010BD8000F0FF30B5034690
:101B50000024501C53F8204004F04044D1E9000513
:101B600040EA05108D6840EA05208D8940EA054568
:101B7000088A401E45EA0055087D801E45EA00603F
:101B80008D6928430443501C43F82040002030BD99
:101B900070B50446A56D00F099F9064694F8350035
:101BA000022808D08020606500BF002084F834003F
:101BB00000BF012070BD2068006820F01600216879
:101BC00008602068406920F0800021684861206C2E
:101BD00008B9A06C28B12068006820F008002168CE
:101BE00008602068006820F00100216808600FE0AC
:101BF00000F06CF9801B05280AD92020606500BF21
:101C0000002084F8340000BF032084F83500D1E7B9
:101C10002068006800F001000028E9D194F85C1009
:101C20003F208840A86000BF002084F8340000BF37
:101C3000012084F835000020BCE7014691F835000A
:101C4000022803D08020486501207047052081F8D4
:101C500035000868006820F001000A681060002064
:101C6000F3E7000070B5044600F030F9064625465B
:101C7000681C10B104480078054400BF00F026F944
:101C8000801BA842FAD370BD24000020F8B502469C
:101C90000B460025002400200021DEE0012606FA84
:101CA00001F51E6806EA0504AC4275D11E7906F0FE
:101CB0000306012E04D01E7906F00306022E13D16E
:101CC00090684F000326BE40B0434F00DE68BE4020
:101CD00030439060506801268E40B0431E79C6F3B1
:101CE00000168E40304350601E7906F00306032E26
:101CF00009D0D0684F000326BE40B0434F009E6815
:101D0000BE403043D0601E7906F00306022E13D188
:101D1000CF0802F1200656F827004E07F70E0F26CF
:101D2000BE40B0434F07FF0E1E69BE403043CF0890
:101D300002F1200646F8270010684F000326BE4037
:101D4000B0431E7906F003064F00BE4030431060DA
:101D50005E6806F08056B6F1805F7DD100BF002638
:101D60000096404E366846F480463E4F3E603E4602
:101D7000366806F48046009600BF00BF3A4E8F08D2
:101D800056F827008E07370F0F26BE40B043374E58
:101D9000B24202D1002624E05EE0354EB24201D1CB
:101DA00001261EE0334EB24201D1022619E0324E26
:101DB000B24201D1032614E0304EB24201D10426D2
:101DC0000FE02F4EB24201D105260AE02D4EB2425D
:101DD00001D1062605E02C4EB24201D1072600E0D3
:101DE00008268F073F0FBE4030431F4E8F0846F82E
:101DF0002700264E3068A0435E6806F48036B6F5AC
:101E0000803F00D12043214E3060361D3068A04312
:101E10005E6806F40036B6F5003F00D120431B4E45
:101E2000361D3060361D3068A0435E6806F48016AB
:101E3000B6F5801F00D12043144E08363060361DA1
:101E40003068A0435E6806F40016B6F5001F00D1A6
:101E500020430E4E0C363060491C1029FFF41EAF93
:101E6000F8BD00004438024008380140000002403C
:101E70000004024000080240000C02400010024032
:101E80000014024000180240001C0240003C0140C7
:101E9000024613690B400BB1012000E0002070479F
:101EA00010B5426921EA020302EA010443EA04434D
:101EB000836110BD0AB1816101E00B048361704749
:101EC00001480068000C7047002004E001480068E9
:101ED000704700001C00002003480068034909788F
:101EE00008440149086070471C00002024000020BD
:101EF00010B50A48006840F40070084908600846B8
:101F0000006840F480600860032000F07FF80F2034
:101F100000F006F800F02AF8002010BD003C024056
:101F200070B504460E4800784FF47A71B1FBF0F0BA
:101F30000C490968B1FBF0F5284601F0D7FB08B160
:101F4000012070BD102C07D200222146501E00F047
:101F50001EF80548046001E00120F2E70020F0E7E8
:101F600024000020000000202000002070470146CF
:101F70000846002809DB00F01F0301229A404309AC
:101F80009B0003F1E023C3F8002100BF70472DE957
:101F9000F05F80460D461646002702F0F9FF07461F
:101FA00039462A46334601F00700C0F1070ABAF164
:101FB000040F02D94FF0040A01E0C0F1070AD1462C
:101FC00000F1040ABAF1070F02D24FF0000A01E053
:101FD000A0F1030AD4464FF0010A0AFA09FAAAF15D
:101FE000010A0AEA020A0AFA0CFA4FF0010B0BFA8C
:101FF0000CFBABF1010B0BEA030B4AEA0B04214685
:10200000404602F0CDFFBDE8F09F000000BF00F0A9
:102010000702064B19684FF6FF031940044B0B43A8
:1020200043EA0221014B196000BF70470CED00E04C
:102030000000FA0570B504460D460CB9012070BDCC
:102040005848006800F00700A84209D255490D70B1
:102050000846006800F00700A84201D00120EEE722
:10206000207800F0020002281DD1207800F0040042
:10207000042805D14C48006840F4E0504A49086003
:10208000207800F00800082805D14748006840F48F
:102090006040454908604448006820F0F000A168AD
:1020A000084341490860207800F00100A8B3606847
:1020B000012807D13C4808380068C0F34040B8B94F
:1020C0000120BCE76068022802D06068032807D1BD
:1020D000354808380068C0F3406048B90120AEE7D1
:1020E000314808380068C0F3400008B90120A6E76D
:1020F0002D48006820F00300616808432A49086001
:10210000FFF7E4FE064609E0FFF7E0FE801B41F220
:102110008831884202D9032091E707E0224800680D
:1021200000F00C006168B0EB810FEDD11D48006834
:1021300000F00700A84209D91A490D700846006846
:1021400000F00700A84201D0012078E7207800F0D5
:102150000400042807D11448006820F4E050E16826
:10216000084311490860207800F00800082808D1C9
:102170000D48006820F46040216940EAC1000A4926
:10218000086000F03FF808490968C1F30311074AE5
:10219000515CC8400649086006480068FFF7C0FE69
:1021A00000204CE7003C02400838024022FE0308B1
:1021B0000000002020000020014800687047000057
:1021C0000000002000B5FFF7F7FF04490968C1F3DC
:1021D0008221034A515CC84000BD0000083802401B
:1021E00032FE030800B5FFF7E7FF04490968C1F3B1
:1021F0004231034A515CC84000BD0000083802402B
:1022000032FE03082DE9F047002400250026A146F0
:102210002548006800F00C0020B1042805D00828EB
:102220003AD105E0DFF8849039E0DFF8849036E0B9
:102230001D48001F006800F03F041B48001F006895
:1022400000F4800078B11A481749091F0968C1F3E2
:102250008811A0FB01700146224600233846FEF794
:10226000A0F805460EE011480F49091F0968C1F39F
:102270008811A0FB01700146224600233846FEF774
:1022800090F805460848001F0068C0F30140401C54
:102290004600B5FBF6F902E0DFF8109000BF00BF82
:1022A0004846BDE8F0870000083802400024F400EA
:1022B00000127A00F8B504460CB90120F8BD207868
:1022C00000F00100002874D0F948006800F00C000C
:1022D00004280DD0F648006800F00C00082813D13F
:1022E000F348001F006800F48000B0F5800F0BD1A8
:1022F000EF4808380068C0F34040002859D06068B3
:10230000002856D10120D9E700BF6068B0F5803FB2
:1023100008D1E7480838006840F48030E4490839BB
:1023200008601EE06068B0F5A02F0DD1E0480838C5
:10233000006840F48020DE490839086008460068DB
:1023400040F4803008600CE0D9480838006820F478
:102350008030D749083908600846006820F480209A
:10236000086000BF606890B1FFF7B0FD054606E069
:10237000FFF7ACFD401B642801D903209EE7CC4841
:1023800008380068C0F340400028F1D011E0FFF7A2
:102390009DFD054606E0FFF799FD401B642801D925
:1023A00003208BE7C24808380068C0F3404000288B
:1023B000F1D1207800F0020002285FD1BC4800680B
:1023C00000F00C0058B1BA48006800F00C00082872
:1023D0001CD1B748001F006800F48000B0B9B448B1
:1023E00008380068C0F3400020B1E068012801D03F
:1023F000012063E7AE480838006820F0F800216942
:1024000040EAC100AA490839086037E0E06800B333
:102410000120A8490860FFF759FD054606E0FFF7CF
:1024200055FD401B022801D9032047E7A048083882
:102430000068C0F340000028F1D09D4808380068CB
:1024400020F0F800216940EAC10099490839086084
:1024500014E0002097490860FFF738FD054606E0C4
:10246000FFF734FD401B022801D9032026E79048DE
:1024700008380068C0F340000028F1D1207800F04F
:10248000080008282CD16069A8B101208A49086099
:10249000FFF71CFD054606E0FFF718FD401B02286C
:1024A00001D903200AE782486C300068C0F340007D
:1024B0000028F1D014E000207F490860FFF706FDF6
:1024C000054606E0FFF702FD401B022801D9032064
:1024D000F4E677486C300068C0F340000028F1D182
:1024E000207800F00400042870D1002770483830AC
:1024F000006800F0805090B900BF002000906C4848
:102500003830006840F0805069493831086008462A
:10251000006800F08050009000BF00BF01276748AE
:10252000006800F48070B0B96448006840F48070BE
:1025300062490860FFF7CAFC054606E0FFF7C6FCE3
:10254000401B022801D90320B8E65C48006800F46B
:1025500080700028F2D000BFA068012808D154483C
:102560006830006840F001005149683108601DE0A2
:10257000A06805280DD14E486830006840F004007E
:102580004B49683108600846006840F00100086067
:102590000CE047486830006820F001004449683189
:1025A00008600846006820F00400086000BFA068CA
:1025B000A8B1FFF78BFC054609E0FFF787FC401B3D
:1025C00041F28831884202D9032077E626E0384874
:1025D00068300068C0F340000028EED013E0FFF739
:1025E00075FC054608E0FFF771FC401B41F288319D
:1025F000884201D9032061E62D4868300068C0F3A5
:1026000040000028EFD1012F07D129483830006859
:1026100020F0805026493831086000BFA0690028AA
:1026200045D02348006800F00C0008285DD0A06960
:10263000022845D100201F490866FFF747FC0546E0
:1026400006E0FFF743FC401B022801D9032035E6D2
:10265000174808380068C0F340600028F1D1D4E979
:1026600007010843616A40EA81110122A06AC2EBB6
:10267000500041EA00412C20005D41EA00600C4915
:10268000091F086001200B490866FFF71FFC05467B
:1026900006E0FFF71BFC401B022801D903200DE6D2
:1026A000034808380068C0F340600028F1D049E0D2
:1026B0000838024000004742800E47420070004048
:1026C000002021490866FFF701FC054606E0FFF7F8
:1026D000FDFB401B022801D90320EFE51B480068E1
:1026E000C0F340600028F2D12CE0A069012800D19D
:1026F000E4E51648001D0668A069012820D006F40C
:102700008001E06981421BD106F03F01206A8142CD
:1027100016D147F6C0703040616AB0EB811F0FD10F
:1027200006F440310122A06AC2EB5000B1EB004F29
:1027300006D106F070612C20005DB1EB006F01D076
:102740000120BBE50020B9E5000047420038024007
:10275000F0B589B004460E460027032084F8340003
:10276000606C032820D0B6F5805F04D1A06B40F0E8
:102770008050A0631CE0B6F5006F07D1204602F040
:10278000D5F80546A06B2843A06311E03EB920466A
:1027900002F098F80546A06B2843A06308E0A06B00
:1027A00040F00060A06303E0A06B40F08050A063A5
:1027B000A06B38B1174821688863012084F8340081
:1027C000012713E060680390A0680490E06805901A
:1027D000069660690790A069089006A807C88DE86A
:1027E0000700206803A90EC901F0D1FA4FF4007167
:1027F000206801F047FB054635B10648216888632B
:10280000A06B2843A0630127012084F834003846D8
:1028100009B0F0BDFF05400010B50246506E800FB4
:102820000870506EC0F383604870506EC0F3016052
:102830008870506E000CC870B2F86400000A08710D
:1028400092F864004871906E000DC880906EC0F3DD
:10285000034008726820805AC0F3C0304872682074
:10286000805AC0F3803088726820805AC0F34030AC
:10287000C8726820805AC0F3003008730020487383
:10288000506C002836D16820805A8005030DD06E28
:1028900043EA90700861D06EC0F3C2600875D06ED4
:1028A000C0F302604875D06EC0F342508875D06E98
:1028B000C0F38240C875D06EC0F3C2300876086994
:1028C000401C50650B7E506D03F007039B1C0124D8
:1028D0009C4060435065087A00F00F030120984047
:1028E0009065D2E915035B0A5843D0654FF4007335
:1028F000136621E0506C012813D16820805C8006AB
:10290000830AD06E43EA104008610869401C8302C4
:102910005365536DD3654FF400739365936D1366E0
:102920000AE02E4813689863906B40F080509063E3
:10293000012082F8340010BD6C20805AC0F3803032
:1029400001F8190F6C20805AC0F3C61048706C2033
:10295000805C00F07F008870106FC00FC870106F2F
:10296000C0F341700871106FC0F382604871106F3E
:10297000C0F383508871106FC0F34050C8710020BD
:102980000872106FC0F3004048727020805AC0F384
:10299000C03088727020805AC0F38030C8727020B6
:1029A000805AC0F3403008737020805AC0F3003062
:1029B00048737020805AC0F3812088737020805A39
:1029C000C0F30120C8737020805CC0F34600087417
:1029D0000120487419390020ADE70000FF054000D0
:1029E0000246506C0860906C4860D06C8860106D36
:1029F000C860506D0861906D4861D06D8861106E3F
:102A0000C86100207047F8B5044600200090694670
:102A1000204601F03FFF054615B1A06B2843A06397
:102A20000098C0F343263046F8BD10B504460CB9F3
:102A3000012010BD94F8340020B9002020772046F2
:102A400000F068F8032084F83400204600F00CF809
:102A500008B10120EDE70020A0632063012084F885
:102A600034000020E5E7000070B58AB0044600207D
:102A7000049005900690079008907620099007A88A
:102A800007C88DE80700206804A90EC901F07FF986
:102A9000064616B101200AB070BD00201B4908602F
:102AA000206801F08EF901201849A039C1F8A00072
:102AB000204601F089FE05463DB1012084F834002E
:102AC000A06B2843A0630120E5E7204601F0FBFD51
:102AD00005463DB1012084F83400A06B2843A06373
:102AE0000120D8E74FF40071206801F0CBF90546CA
:102AF0004DB1074821688863A06B2843A06301207B
:102B000084F83400C7E70020C5E70000A080254214
:102B1000FF05400010B586B0044659492068884238
:102B20007ED100BF002000905648006840F400604D
:102B3000544908600846006800F40060009000BF37
:102B400000BF00BF00BF002000904E48143800684E
:102B500040F004004B49143908600846006800F052
:102B60000400009000BF00BF00BF00BF00BF0020F6
:102B700000900846006840F00400086008460068BD
:102B800000F00400009000BF00BF00BF00BF00BF06
:102B9000002000900846006840F0040008600846E5
:102BA000006800F00400009000BF00BF00BF00BF3D
:102BB00000BF002000900846006840F00400086054
:102BC0000846006800F00400009000BF00BF00BF8E
:102BD00000BF00BF002000900846006840F00400DD
:102BE00008600846006800F00400009000BF00BFC5
:102BF00000BF00BF00BF002000900846006840F002
:102C0000080008600846006800F00800009000BF57
:102C100000BF00BF8815019002200290012000E053
:102C20002BE00390022004900C20059001A9164887
:102C3000FFF72CF84FF40070019001A91248FFF73C
:102C400025F84FF48060019001A90F48FFF71EF8A6
:102C50004FF40060019001A90B48FFF717F84FF4FB
:102C60008050019001A90848FFF710F80420019056
:102C700001A90648FFF70AF800BF06B010BD000022
:102C8000002C01404438024000080240000C024081
:102C90002DE9FF4F89B004468B469946DDF858A0D0
:102CA000FFF714F902900B9800905D46BBF1000FFE
:102CB00007D1A06B40F00060A06301200DB0BDE81B
:102CC000F08F94F8340001287ED10020A063009892
:102CD00000EB0901E06D814205D9A06B40F0007066
:102CE000A0630120EAE7032084F834000020216873
:102CF000C862606C012802D00098400200904FF03A
:102D0000FF3003904FEA4920049090200590022064
:102D10000690002007900120089003A9206801F088
:102D200011F8B9F1010F07D902202063206800993A
:102D300001F010F9804606E0012020632068009928
:102D400001F024F98046B8F1000F0DD075482168D4
:102D50008863A06B40EA0800A063012084F8340077
:102D6000002020630120A9E7049E3AE02068406B20
:102D700000F40040E0B1DEB10020019015E02068D1
:102D800001F028F807462F706D1C761E380A28704F
:102D90006D1C761E380C28706D1C761E380E28703F
:102DA0006D1C761E0198401C019001980828E6D3FE
:102DB000FFF78CF80299401A504502D2BAF1000F81
:102DC0000FD15848216800E0A6E08863A06B40F06E
:102DD0000040A063012084F8340000202063032019
:102DE0006CE72068406B40F22A3108400028BDD0D3
:102DF0002068406B00F48070D0B1B9F1010F17D991
:102E0000606C032814D0206801F080F98046B8F186
:102E1000000F0DD0434821688863A06B40EA08008A
:102E2000A063012084F8340000202063012045E7DE
:102E30002068406B00F0080068B13A482168886358
:102E4000A06B40F00800A063012084F8340000204B
:102E50002063012032E72068406B00F0020068B177
:102E6000304821688863A06B40F00200A063012015
:102E700084F834000020206301201FE72068406BA5
:102E800000F0200068B1274821688863A06B40F0FB
:102E90002000A063012084F834000020206301207A
:102EA0000CE729E0206800F095FF07462F706D1CA5
:102EB000761E380A28706D1C761E380C28706D1C22
:102EC000761E380E28706D1C761EFEF7FFFF0299E5
:102ED000401A504502D2BAF1000F0DD111482168B5
:102EE0008863A06B40F00040A063012084F83400A8
:102EF000002020630120E1E62068406B00F4001010
:102F000008B1002ECED140F23A50216888630120EA
:102F100084F834000020D1E6A06B40F00050A0639C
:102F20000120CBE6FF0540002DE9F04F89B00446B3
:102F3000894693469846FEF7C9FF0290DA464D4609
:102F4000B9F1000F07D1A06B40F00060A063012031
:102F500009B0BDE8F08F94F8340001287ED100203C
:102F6000A0630AEB0801E06D814205D9A06B40F037
:102F70000070A0630120EBE7032084F834000020F8
:102F80002168C862606C012801D04FEA4A2A4FF0DC
:102F9000FF3003904FEA48200490902005900020D5
:102FA000069007900120089003A9206800F0CAFE4F
:102FB000B8F1010F07D9202020635146206801F0A5
:102FC000C3F8064606E0102020635146206801F051
:102FD000D7F8064666B15F4821688863A06B304326
:102FE000A063012084F83400002020630120AFE7B3
:102FF000049F43E02068406B00F4804030B32FB35F
:10300000002001901FE0287800906D1C7F1E28781A
:10301000009941EA002000906D1C7F1E28780099DD
:1030200041EA004000906D1C7F1E2878009941EA1B
:10303000006000906D1C7F1E6946206800F0E2FE73
:103040000198401C019001980828DCD3FEF73EFF50
:103050000299411A1298814203D200E074E012985A
:1030600060B93C4821688863A06B3043A0630120AD
:1030700084F8340000202063032069E72068406B57
:1030800040F21A3108400028B4D02068406B00F4A8
:103090008070B8B1B8F1010F14D9606C032811D059
:1030A000206801F033F8064666B12A482168886333
:1030B000A06B3043A063012084F83400002020631B
:1030C000012045E72068406B00F0080068B1214806
:1030D00021688863A06B40F00800A063012084F899
:1030E000340000202063012032E72068406B00F0AC
:1030F000020068B1174821688863A06B40F00200A5
:10310000A063012084F834000020206301201FE721
:103110002068406B00F0100068B10E482168886399
:10312000A06B40F01000A063012084F83400002060
:10313000206301200CE740F23A50216888630120A7
:1031400084F83400002003E7A06B40F00050A06337
:103150000120FDE6FF05400010B504460CB9012032
:1031600010BD606A38B96068B0F5827F00D105E0B3
:103170000021E16102E0002121616161A06AB0F5F6
:10318000005F00D100BF94F8510028B9002084F8F6
:103190005000204600F050F8022084F851002068CA
:1031A000006820F0400021680860A08800F4827068
:1031B000218901F404410843A18901F40061084315
:1031C000217C01F002010843217D01F00101084347
:1031D000218B01F400710843217F01F0380108437D
:1031E0002021095D01F080010843218D01F4005187
:1031F0000843216808600421A06901EA104094F89E
:10320000241001F01001084321684860A06AB0F55D
:10321000005F03D1A08D80B2216808612068C06979
:1032200020F400602168C86100206065012084F8F6
:103230005100002094E7000010B586B004462A49EA
:10324000206888424DD100BF00BF00200090274871
:10325000006840F00200254908600846006800F058
:103260000200009000BF00BF00BF00BF00BF0020F1
:1032700000900846006840F00200086008460068B8
:1032800000F00200009000BF00BF00BF00BF00BF01
:10329000002000900846006840F0020008600846E0
:1032A000006800F00200009000BF00BF00BF0820CF
:1032B000019002200290012003900220049005203A
:1032C000059001A90A48FEF7E1FC1020019001A930
:1032D0000748FEF7DBFC2020019001A90448FEF717
:1032E000D5FC06B010BD000000300140303802406F
:1032F000000402402DE9F04F85B00446884691460F
:103300001D460E9E00200490012002900020019096
:1033100000BF94F85000012803D1022005B0BDE899
:10332000F08F012084F8500000BFFEF7CFFD074664
:1033300094F851B060680390AA46BBF1010F0BD01E
:103340000398B0F5827F04D1A06810B9BBF1040FD7
:1033500002D0022001902CE1B8F1000F03D0B9F1A6
:10336000000F00D015B90120019022E194F851001E
:10337000042802D0052084F8510000206065C4F8BC
:103380003890E587A587C4F83080E586A586206457
:103390006064A06AB0F5005F0DD100BF20680068CE
:1033A00020F40050216808602068006840F4005054
:1033B0002168086000BF2068006800F040004028D5
:1033C00005D02068006840F0400021680860E0688F
:1033D000B0F5006F56D1606810B1BAF1010F09D194
:1033E000206B00882168C860206B801C2063E08E01
:1033F000401EE0863FE02068806800F0020002285E
:103400001CD1E08ED0B10298012817D1206B008822
:103410002168C860206B801C2063E08E401EE0861F
:1034200000200290E08E48B9A06AB0F5005F05D197
:103430002068006840F48050216808602068806837
:1034400000F0010068B1E08F58B12068C068A16B3E
:103450000880A06B801CA063E08F401EE0870120E5
:103460000290FEF733FDC01BB04204D3701C10B1B4
:10347000032001909DE0E08E0028BCD1E08F002861
:10348000B9D156E0606810B1BAF1010F09D1206BD3
:10349000007821680873206B401C2063E08E401E7A
:1034A000E08640E02068806800F0020002281CD11D
:1034B000E08ED0B10298012817D1206B00782168E6
:1034C0000873206B401C2063E08E401EE0860020C5
:1034D0000290E08E48B9A06AB0F5005F05D120687F
:1034E000006840F48050216808602068806800F01F
:1034F000010068B1E08F58B12068C068A16B087006
:10350000A06B401CA063E08F401EE087012002906A
:10351000FEF7DCFCC01BB04201D3701C00B916B929
:103520000320019045E0E08E0028BBD1E08F002809
:10353000B8D1A06AB0F5005F12D13346012211461E
:103540002046009701F05CFA30B1606D40F0020057
:103550006065032001902CE02068C068049000BFE3
:103560002068806800F01000102809D1606D40F0DC
:10357000020060654FF6EF702168886001200190BD
:103580003A463146204601F005FA20B1012001906B
:10359000202060650DE0A06850B900BF00200090B9
:1035A0002068C068009020688068009000BF00BF5D
:1035B00000BF012084F8510000BF002084F85000B3
:1035C00000BF0198AAE670B504460E4615460CB930
:1035D000012070BD94F8490028B9002084F8480003
:1035E000204600F01DF804F108012068FEF780FA7B
:1035F0003146A2682068FEF7A9FA2946236BD4E970
:103600000102FEF751FAA168206850F8210040F04D
:103610000100A268216841F822000020D9E70000DB
:1036200010B586B0044600BF002000902248006814
:1036300040F00100204908600846006800F00100E1
:10364000009000BF00BF00BF002000901A4808385B
:10365000006840F00800184908390860084600680A
:1036600000F00800009000BF00BF00BF00200090E5
:103670000846006840F0100008600846006800F046
:103680001000009000BF00BF4CF2037001900220B8
:10369000029001200390022004900C20059001A9C3
:1036A0000648FEF7F3FA4FF68070019001A904482E
:1036B000FEF7ECFA06B010BD38380240000C0240AC
:1036C00000100240042808D14FF0E021096941F0C0
:1036D00004014FF0E022116107E04FF0E021096999
:1036E00021F004014FF0E0221161704770B50446EB
:1036F0002546681EB0F1807F01D301200FE0681ECF
:103700004FF0E02148610F214FF0FF3001F048FCFD
:1037100000204FF0E021886107200861002070BD83
:1037200070477047704710B5044620680069C0F3C1
:103730004000D8B12068C068C0F34000B0B16FF05D
:10374000020021680861012020772068806900F06C
:10375000030018B12046FFF7E5FF05E0204600F022
:10376000ADF8204600F0ABF8002020772068006913
:10377000C0F38000D8B12068C068C0F38000B0B149
:103780006FF00400216808610220207720688069BA
:1037900000F4407018B12046FFF7C4FF05E0204652
:1037A00000F08CF8204600F08AF80020207720688E
:1037B0000069C0F3C000D8B12068C068C0F3C00081
:1037C000B0B16FF0080021680861042020772068FC
:1037D000C06900F0030018B12046FFF7A3FF05E021
:1037E000204600F06BF8204600F069F800202077B2
:1037F00020680069C0F30010D8B12068C068C0F329
:103800000010B0B16FF01000216808610820207727
:103810002068C06900F4407018B12046FFF782FFAD
:1038200005E0204600F04AF8204600F048F8002065
:1038300020772068006900F0010058B12068C06856
:1038400000F0010030B16FF00100216808612046EE
:1038500000F036F820680069C0F3C01058B1206845
:10386000C068C0F3C01030B16FF0800021680861FB
:103870002046FFF755FF20680069C0F3801058B15B
:103880002068C068C0F3801030B16FF0400021683C
:103890000861204600F015F820680069C0F3401068
:1038A00058B12068C068C0F3401030B16FF02000FC
:1038B000216808612046FFF734FF10BD704770474C
:1038C000704770477047704701460022002391F807
:1038D0003D2091F83E3042EA030070472DE9F84F51
:1038E0000446206805682068C668206847694FF06C
:1038F0000009CA4605F00F09B9F1000F0AD105F019
:10390000200038B106F0200020B1204601F035F942
:10391000BDE8F88FB9F1000F72D007F0010018B9B7
:1039200006F4907000286BD005F0010030B106F469
:10393000807018B1206C40F00100206405F0040094
:1039400030B107F0010018B1206C40F00200206493
:1039500005F0020030B107F0010018B1206C40F012
:103960000400206405F0080048B106F0200010B9FA
:1039700007F0010018B1206C40F008002064206CB2
:1039800070B305F0200028B106F0200010B12046E9
:1039900001F0F3F820684069C0F3801A206C00F051
:1039A000080010B9BAF1000F23D0204601F0BAF890
:1039B0002068406900F04000402816D12068406926
:1039C00020F0400021684861A06B50B15648A16BBF
:1039D0000865A06BFEF731F910B1A06B016D884747
:1039E0000CE02046FFF76FFF08E02046FFF76BFF73
:1039F00004E02046FFF767FF0020206488E7FFE728
:103A0000206B012879D105F01000002875D006F050
:103A10001000002871D000BF0020009020680068CE
:103A2000009020684068009000BF00BF2068406997
:103A300000F04000402839D1A06B006840681FFAB0
:103A400080F8B8F1000F30D0A08D40452DDDA4F8EE
:103A50002E80A06BC069B0F5807F1FD02068C06841
:103A600020F480702168C8602068406920F001005F
:103A7000216848612068406920F040002168486161
:103A8000202084F83E00002020632068C06820F0D9
:103A900010002168C860A06BFEF77AF8A08DE28D57
:103AA000801A81B22046FFF70DFF31E7A08DE18D2E
:103AB000401A1FFA80F8E08DE8B1B8F1000F1AD073
:103AC0002068C06820F490702168C8602068406950
:103AD00020F0010021684861202084F83E00002089
:103AE00020632068C06820F010002168C86041464B
:103AF0002046FFF7E7FE0BE7FFE705F0800030B157
:103B000006F0800018B1204601F0CFF900E705F07B
:103B1000400030B106F0400018B1204601F01DF819
:103B2000F6E600BFF4E60000114B000810B50446AD
:103B30000CB9012010BDA06900B100E000BF94F8ED
:103B40003D0028B9002084F83C00204600F028F809
:103B5000242084F83D002068C06820F400502168CB
:103B6000C860204601F068F82068006920F49040A1
:103B7000216808612068406920F02A0021684861B6
:103B80002068C06840F400502168C86000202064AC
:103B9000202084F83D0084F83E000020CAE70000A1
:103BA00010B586B004462E492068884255D100BF22
:103BB00000BF002000902B48006840F01000294909
:103BC00008600846006800F01000009000BF00BFC9
:103BD00000BF00BF00BF00200090224814380068DA
:103BE00040F001001F49143908600846006800F0E1
:103BF0000100009000BF00BF00BF00BF00BF002059
:103C000000900846006840F001000860084600681F
:103C100000F00100009000BF00BF00BF48150190F8
:103C200002200290012003900220049007200590BA
:103C300001A90D48FEF72AF84FF480600190072093
:103C4000059001A90848FEF721F82520FEF78FF915
:103C5000032211462520FEF79AF906B010BD000098
:103C600000100140443802400000024070B5044694
:103C70000D46164694F83E00202816D105B10EB91F
:103C8000012070BD00BF94F83C00012801D1022042
:103C9000F7E7012084F83C0000BF00202063324693
:103CA0002946204601F0DEF8EBE70220E9E70000B4
:103CB0001D4A0168914236D11C49098801F400412E
:103CC00089BB1A49098801F4804171B11849097802
:103CD0000A2903D00021154A118024E013490988DC
:103CE00041F40041114A11801DE0114909780D2964
:103CF00006D10E49098841F480410C4A118012E036
:103D00000B490978094A1288C2F30D02094B9954EC
:103D100006490988491C054A118011460988C729A6
:103D200001DD0021118070470010014018000020C3
:103D30001A0000202C030020704700BFFEE700BFE0
:103D4000FEE7704710B502460023086850624868D5
:103D50009062D1E9020420430C6920434C6920435E
:103D60000343D06A20F0F7001843D062002010BD52
:103D700001460869C0B270470146086800F00300B8
:103D80007047024602F114004318186870470FB4D8
:103D900010B504460021DDE903021043059A1043E3
:103DA000069A1043079A1043089A1043014360682B
:103DB00047F6FF62904308436060002010BC5DF846
:103DC00014FB10B50446032020600220FDF74AFFD3
:103DD000002010BD0146D1F88000704710B50246A2
:103DE000002308689060D1E901042043CC68204397
:103DF0000C6920430343D0686FF30B001843D06075
:103E0000002010BD02460868C2F8800000207047FC
:103E100070B586B005460C460194372002904020CC
:103E20000390002004904FF48060059001A928467B
:103E3000FFF7D4FF41F288323721284600F0DCF941
:103E40000646304606B070BD70B586B005460C46D5
:103E50000B4820430190292002904020039000202D
:103E600004904FF48060059001A92846FFF7B6FF43
:103E7000284600F0C9FA0646304606B070BD00007C
:103E80000000108070B586B005460C4601941020E5
:103E9000029040200390002004904FF48060059031
:103EA00001A92846FFF79AFF41F2883210212846DF
:103EB00000F0A2F90646304606B070BD70B586B077
:103EC00005460C46019406200290402003900020F5
:103ED00004904FF48060059001A92846FFF77EFF0B
:103EE00041F288320621284600F086F9064630461F
:103EF00006B070BD30B585B004460020009001903A
:103F0000029003904FF48060049069462046FFF7CA
:103F100065FF204600F050F90546284605B030BD43
:103F200030B585B004464FF4D5700090082001905C
:103F300040200290002003904FF480600490694676
:103F40002046FFF74BFF204600F0E6FA05462846DC
:103F500005B030BD70B586B005460C460194122000
:103F6000029040200390002004904FF48060059060
:103F700001A92846FFF732FF41F288321221284674
:103F800000F03AF90646304606B070BD70B586B00E
:103F900005460C4601941120029040200390002019
:103FA00004904FF48060059001A92846FFF716FFA2
:103FB00041F288321121284600F01EF906463046AB
:103FC00006B070BDF0B585B0064614461D46009497
:103FD0000720019040200290002003904FF4806061
:103FE000049069463046FFF7F9FE41F28832072116
:103FF000304600F001F90746384605B0F0BD30B54F
:1040000085B004460020009002200190C02002905C
:10401000002003904FF48060049069462046FFF72B
:10402000DDFE204600F0BEF90546284605B030BD4D
:1040300070B586B005460C46019409200290C02058
:104040000390002004904FF48060059001A9284659
:10405000FFF7C4FE284600F0A5F90646304606B034
:1040600070BD30B585B0044600200090332001902B
:1040700040200290002003904FF480600490694635
:104080002046FFF7ABFE41F288323321204600F094
:10409000B3F80546284605B030BD70B586B0054674
:1040A0000C4601940D2002904020039000200490C3
:1040B0004FF48060059001A92846FFF78FFE41F27A
:1040C00088320D21284600F097F80646304606B0A3
:1040D00070BD70B586B005460C46002001900320E7
:1040E000029040200390002004904FF480600590DF
:1040F00001A92846FFF772FE22460321284600F058
:10410000AFF90646304606B070BD000030B585B048
:104110000446002000900C200190402002900020D6
:1041200003904FF48060049069462046FFF756FEE6
:10413000044A0C21204600F05FF80546284605B0E9
:1041400030BD000000E1F50570B586B005460C46AF
:1041500001941920029040200390002004904FF415
:104160008060059001A92846FFF738FE41F28832A9
:104170001921284600F040F80646304606B070BDCA
:1041800070B586B005460C46019418200290402078
:104190000390002004904FF48060059001A9284608
:1041A000FFF71CFE41F288321821284600F024F85F
:1041B0000646304606B070BD01460E480068C0088D
:1041C0004FF47A73B0FBF3F041F2883300FB03F253
:1041D00000BF101EA2F1010202D14FF00040704753
:1041E000486B00F080000028F3D0C52088630020D1
:1041F000F5E70000000000202DE9F04305460F46DA
:10420000904666480068C0084FF47A71B0FBF1F040
:1042100000FB08F900BFB9F10000A9F1010903D1C1
:104220004FF00040BDE8F0836E6B06F045000028BB
:10423000F1D006F400600028EDD1686B00F00400B6
:1042400010B10420A863EDE7686B00F0010010B125
:104250000120A863E6E7C520A8632846FFF788FD8C
:10426000B84201D00120DDE700212846FFF789FD93
:1042700004464B48204008B90020D3E704F0004032
:10428000B0F1004F02D14FF00070CBE704F0804056
:10429000B0F1804F01D14020C4E704F00050B0F1EC
:1042A000005F01D18020BDE704F08050B0F1805F55
:1042B00002D14FF48070B5E704F00060B0F1006FF8
:1042C00002D14FF40070ADE704F08060B0F1806F70
:1042D00002D14FF48060A5E704F08070B0F1807FD8
:1042E00002D14FF400609DE704F40000B0F5000F28
:1042F00002D14FF4805095E704F48000B0F5800FB0
:1043000002D14FF400508DE704F40010B0F5001F07
:1043100002D14FF4804085E704F48010B0F5801F8F
:1043200002D14FF400407DE704F48020B0F5802FE7
:1043300002D14FF4003075E704F40030B0F5003FCF
:1043400002D14FF480206DE704F48030B0F5803F57
:1043500002D14FF4002065E704F40040B0F5004FAF
:1043600002D14FF480105DE704F48040B0F5804F37
:1043700002D14FF4001055E704F40050B0F5005F8F
:1043800002D14FF480004DE704F00800082801D165
:10439000000547E74FF4803044E7000000000020AC
:1043A00008E0FFFD10B5014616480068C0084FF44C
:1043B0007A74B0FBF4F041F2883400FB04F300BFE0
:1043C000181EA3F1010302D14FF0004010BD4A6B4B
:1043D00002F045000028F3D002F400600028EFD17D
:1043E000486B00F0040010B104208863EEE7486BCE
:1043F00000F0010010B101208863E7E7C520886361
:104400000020E3E70000002010B5014613480068D3
:10441000C0084FF47A74B0FBF4F041F2883400FB2A
:1044200004F300BF181EA3F1010302D14FF00040B6
:1044300010BD4A6B02F045000028F3D002F4006082
:104440000028EFD1486B00F0040010B1042088630D
:10445000EEE7C52088630020EAE7000000000020A6
:104460002DE9F04304460F4690462A480068C008EC
:104470004FF47A71B0FBF1F041F2883100FB01F9A1
:1044800000BFB9F10000A9F1010903D14FF00040CC
:10449000BDE8F083666B06F045000028F1D006F415
:1044A00000600028EDD1606B00F0040010B1042022
:1044B000A063EDE7606B00F0010010B10120A06384
:1044C000E6E72046FFF754FCB84201D00120DFE7C1
:1044D000C520A06300212046FFF753FC054605F4E4
:1044E000604020B9280CA8F800000020D0E705F4AF
:1044F0008040B0F5804F02D14FF40050C8E705F47A
:104500000040B0F5004F02D14FF48050C0E74FF4A7
:104510008030BDE70000002010B501461848006853
:10452000C0084FF47A74B0FBF4F041F2883400FB19
:1045300004F300BF181EA3F1010302D14FF00040A5
:1045400010BD4A6B02F045000028F3D002F4006071
:104550000028EFD1486B00F0040010B104208863FC
:10456000EEE7486B00F0010010B101208863E7E737
:10457000486B00F0400008B1402088630020DFE76E
:10458000000000202DE9F04389B004460F46FDF7F6
:104590009DFC81464FF000080020019002903E46AD
:1045A00008212068FFF76EFC05461DB1284609B0BA
:1045B000BDE8F0835022125B11042068FFF728FC4D
:1045C00005460DB12846F2E74FF0FF300390082072
:1045D00004903020059002200690002007900120D2
:1045E000089003A92068FFF7ADFB2068FFF739FDAD
:1045F00005460DB12846DAE71CE02068406B00F460
:10460000001040B12068FFF7E5FB01A941F8280040
:1046100008F1010805E02068406B00F4005000B983
:104620000EE0FDF753FCA0EB0900401C10B94FF061
:104630000040BCE72068406B00F02A000028DCD076
:1046400000BF2068406B00F0080018B10820216806
:104650008863ACE72068406B00F0020018B10220CC
:1046600021688863A3E72068406B00F0200018B140
:104670002020216888639AE740F23A5021688863D5
:1046800002980006029901F47F4140EA0120029954
:1046900001F47F0140EA1120029940EA1160306084
:1046A000361D01980006019901F47F4140EA01207E
:1046B000019901F47F0140EA1120019940EA11605B
:1046C0003060002073E730B58FB0044601200390BE
:1046D0002068FFF751FB18B94FF080600FB030BD74
:1046E000606C03281BD02068FFF789FC05460DB1DC
:1046F0002846F3E700212068FFF743FB60670421A9
:104700002068FFF73EFBA06708212068FFF739FB10
:10471000E0670C212068FFF734FB80210851606CB2
:10472000032807D003A92068FFF7D3FC05460DB185
:104730002846D3E7606C032820D0BDF80C10216513
:104740005022125B11042068FFF772FC05460DB180
:104750002846C3E700212068FFF713FB60660421A9
:104760002068FFF70EFBA06608212068FFF709FB11
:10477000E0660C212068FFF704FB20670421206815
:10478000FFF7FFFA010DE16404A92046FEF744F8A3
:1047900010B14FF08050A1E75020005B01040A46A1
:1047A00000232068FFF70EFC05460DB1284695E76B
:1047B000D4E90412A069CDE90012029094E80F0038
:1047C000FFF7E5FA002089E7F8B5044600200090DD
:1047D000002600272068FFF78DFB05460DB128460F
:1047E000F8BD2068FFF79CFB054645B10021A16498
:1047F0002068FFF77FFB05461DB12846F0E7012141
:10480000A164A06C012808D100212068FFF700FBFB
:10481000054615B14FF08050E2E71DE00021206809
:10482000FFF7F6FA05460DB12846D9E71849206882
:10483000FFF70AFB054615B14FF08050D0E7002185
:104840002068FFF79EFA0646012080EAD67080F0C5
:1048500001070098401C00904FF6FF7100988842B5
:1048600001D2002FDAD04FF6FF710098884202D3B0
:104870004FF08070B4E706F08040B0F1804F02D175
:104880000120606401E0002060640020A8E70000CF
:10489000000010C170B504460D4615B94FF0006018
:1048A00070BD5022125B11042068FFF7F6FB06462C
:1048B0000EB13046F4E700212068FFF762FA286065
:1048C0000020EDE77CB50446002000900190002117
:1048D0002068FFF756FA00F00070B0F1007F02D1B7
:1048E0004FF400607CBD69462046FFF74BFE05464D
:1048F0000DB12846F6E7019800F4803098B15022B7
:10490000125B11042068FFF783FA05460DB12846B3
:10491000E8E700212068FFF7D1FA05460DB12846E7
:10492000E0E70020DEE74FF08060DBE77CB504467F
:1049300000200090019000212068FFF722FA00F08B
:104940000070B0F1007F02D14FF400607CBD694679
:104950002046FFF717FE05460DB12846F6E70198F9
:1049600000F4802098B15022125B11042068FFF7F8
:104970004FFA05460DB12846E8E702212068FFF707
:104980009DFA05460DB12846E0E70020DEE74FF02E
:104990008060DBE77CB504460D4616461648006885
:1049A0001821B0FBF1F01549B0FBF1F04FF47A712A
:1049B000484301906068B0F5827F0DD12B460022FC
:1049C00080212046009600F01BF898B1606D40F001
:1049D0002000606503207CBD00BF019800B908E09D
:1049E0000198401E019020688068C0F3C010002824
:1049F000F3D100BF0020EEE70000002040420F008E
:104A00002DE9F84F04460D4690461E46DDF82890E5
:104A1000FDF75CFAA0EB0900371AFDF757FA82465A
:104A20002C480068C0F3CB307843009045E0701C00
:104A3000002842D0FDF74AFAA0EB0A00B84200D2A3
:104A4000A7BB2068406820F0E000216848606068EB
:104A5000B0F5827F0DD1A068B0F5004F03D0A068FB
:104A6000B0F5806F05D12068006820F04000216813
:104A70000860A06AB0F5005F0DD100BF2068006833
:104A800020F40050216808602068006840F400505D
:104A90002168086000BF012084F8510000BF002099
:104AA00084F8500000BF0320BDE8F88FFFE70098AE
:104AB00000B900270098401E0090206880682840B8
:104AC000A84201D1012000E000204045AFD10020E4
:104AD000EAE700000000002010B5FDF7FDF93AF00C
:104AE0009BFA012801D03AF061F810BD0348006834
:104AF00040F47000014908607047000088ED00E054
:104B000010B50248FEF70FFE10BD0000980400200B
:104B100070B50546AC6B0020E085E0842046FEF7CA
:104B2000D2FE70BD0168C96821F490710268D1603D
:104B30000168496921F0010102685161016B012995
:104B400005D10168C96821F010010268D1602021F7
:104B500080F83E1000210163704710B504462068BC
:104B6000C06820F040002168C860202084F83D0023
:104B70002046FFF7E1F8002010BD70B5044694F818
:104B80003E00222856D1A068B0F5805F0CD1206984
:104B900050B90025A66A20684068C0F3080030803C
:104BA000A06A801CA06215E0A56A0026A068B0F586
:104BB000805F03D0A06828B9206918B920684068D0
:104BC000287004E02068406800F07F002870A06A28
:104BD000401CA062E08D401E80B2E08540BB206892
:104BE000C06820F020002168C8602068C06820F4F8
:104BF00080702168C8602068406920F00100216849
:104C00004861202084F83E00206B01280AD12068EA
:104C1000C06820F010002168C860A18D2046FEF712
:104C200051FE02E02046FFF743F80020206370BDEC
:104C30000020FCE70220FAE72DE9F84F044620683F
:104C4000006920F44050E168084321680861216947
:104C5000A068084361690843E1690843009020683F
:104C6000C06849F20C618843009908432168C86014
:104C70002068406920F44070A169084321684861B8
:104C800076492068884203D075492068884203D15C
:104C9000FDF7A8FA814602E0FDF794FA8146E06943
:104CA000B0F5004F6CD102206168A0FB01500346B3
:104CB0001920A9FB007001462A463846FBF771FB14
:104CC0006421B0FBF1F04FEA001A02206168A0FBFA
:104CD00001510B461920A9FB00712A463846FBF703
:104CE00060FB834602206168A0FB01500346192047
:104CF000A9FB00712A463846FBF753FB6421B0FB41
:104D0000F1F000EBC00101EB0010ABEB80003221B1
:104D100001EBC0006421B0FBF1F000F0F8000AEBF9
:104D2000400A02206168A0FB015003461920A9FB3C
:104D3000007001462A463846FBF733FB83460220C3
:104D40006168A0FB015003461920A9FB00712A46A7
:104D50003846FBF726FB6421B0FBF1F000EBC00105
:104D600001EB0010ABEB8000322101EBC0006421AD
:104D7000B0FBF1F000F007005044216888606AE061
:104D800004206168A0FB015003461920A9FB0070B4
:104D900001462A463846FBF704FB82460420616838
:104DA000A0FB015003461920A9FB007001462A46CA
:104DB0003846FBF7F6FA6421B0FBF1F000EBC001D6
:104DC00001EB0010AAEB8000322101EB00106421FE
:104DD000B0FBF1F000F0F00A04206168A0FB017064
:104DE00003461920A9FB00513A462846FBF7D9FA99
:104DF0006421B0FBF1F00AEB001A04206168A0FB0B
:104E000001510B461920A9FB00712A463846FBF7D1
:104E1000C8FA834604206168A0FB015003461920AC
:104E2000A9FB007001462A463846FBF7BAFA64210E
:104E3000B0FBF1F000EBC00101EB0010ABEB800028
:104E4000322101EB00106421B0FBF1F000F00F0003
:104E5000504421688860BDE8F88F000000100140D0
:104E60000014014010B5034699629A85DA85002046
:104E70001864222083F83E0000BF002083F83C0025
:104E800000BF1868C06840F480701C68E060186853
:104E9000406940F001001C6860611868C06840F01B
:104EA00020001C68E060002010BD014691F83D0024
:104EB000212828D18868B0F5805F0BD1086948B9EE
:104EC0000A6A1088C0F308000B685860086A801CE2
:104ED000086205E00B6A581C086218780B68586075
:104EE000C88C401E80B2C88458B90868C06820F0D9
:104EF00080000B68D8600868C06840F040000B680C
:104F0000D860002070470220FCE7000070B5002444
:104F10000F4D1048FEF7E2FC00BF03E0641CAC42FA
:104F200000D904E00B48FEF7CFFC2028F6D100BFE3
:104F3000002403E0641CAC4200D906E001220649CB
:104F40000448FEF793FE0028F4D100BF70BD0000B6
:104F5000FFFF0100F40300201A00002000BFFEE75D
:104F600003B401984100009850EAC12018BF042002
:104F70004A0D18BF40F0010040F2FF72B2EB515FE2
:104F800008BF40F00200012808BF052002B07047AA
:104F900002480068C0F30220704700000CED00E0FA
:104FA00010B5002804DB0A07130E054A135406E067
:104FB0000A07140E034A00F00F031B1FD45410BD40
:104FC00000E400E018ED00E070B50446002508E0BC
:104FD0002168481C20600878303805EB850100EB1B
:104FE00041052168087800F004F80028F0D128462F
:104FF00070BD0146302903DB392901DC01207047EF
:105000000020FCE730380A2801D201207047002038
:105010007047000010B54021074801F0E3FA002274
:10502000042106482FF032FB0549086002F010FE0B
:1050300000200449087010BDD0D800201D7D000854
:10504000A00200209C02002030B50346B1F90040C8
:10505000B2F90050AC4202DDB1F9004001E0B2F912
:1050600000401C80B1F90240B2F90250AC4202DDAE
:10507000B1F9024001E0B2F902405C80B1F90440AC
:10508000B2F90450AC4202DAB1F9044001E0B2F9DD
:1050900004409C80B1F90640B2F90650AC4202DAF5
:1050A000B1F9064001E0B2F90640DC800120B3F915
:1050B0000040B3F90450AC4205DCB3F90240B3F947
:1050C0000650AC4200DD002030BDF8B504460D4668
:1050D00016460027B4F90000B5F90010884212DB2B
:1050E000B4F90200B5F9021088420CDBB4F90400EF
:1050F000B5F90410884206DCB4F90600B5F90610CB
:10510000884200DC01270FB90020F8BD0EB901204C
:10511000FBE72088ADF800006088ADF80200324659
:105120006946284600F0A7F808B90020EDE7A088F6
:10513000ADF800006088ADF80200324669462846A6
:1051400000F099F808B90020DFE72088ADF80000EA
:10515000E088ADF8020032466946284600F08BF838
:1051600008B90020D1E7A088ADF80000E088ADF8CC
:10517000020032466946284600F07DF808B9002052
:10518000C3E70120C1E70246B2F90000B1F90430DB
:10519000984213DCB2F90400B1F9003098420DDBFB
:1051A000B2F90200B1F90630984207DCB2F9060004
:1051B000B1F90230984201DB012070470020FCE782
:1051C000F8B504460D461646B4F90400B5F90010CA
:1051D000884211DBB4F90600B5F9021088420BDBF6
:1051E000B4F90000B5F90410884205DCB4F90200F6
:1051F000B5F90610884201DD0120F8BD0EB9002086
:10520000FBE72088ADF800006088ADF80200324668
:105210006946284600F02FF808B10020EDE7A08885
:10522000ADF800006088ADF80200324669462846B5
:1052300000F021F808B10020DFE72088ADF8000079
:10524000E088ADF8020032466946284600F013F8BF
:1052500008B10020D1E7A088ADF80000E088ADF8E3
:10526000020032466946284600F005F808B10020E1
:10527000C3E70120C1E72DE9FC5F05460E46144651
:105280004FF0000AB6F90000B5F90010884213DBB0
:10529000B6F90000B5F9041088420DDCB6F9020039
:1052A000B5F90210884207DBB6F90200B5F906101D
:1052B000884201DC4FF0010ABAF1000F02D1002050
:1052C000BDE8FC9F002C01DC0120F9E728461BF01B
:1052D00096F8834600EBDB70471028461BF007F872
:1052E000834600EBDB704FEA6008474501DA384639
:1052F00000E0404681464C4500DD4C462888ADF82C
:1053000000002888204400B2ADF804006888ADF899
:1053100002006888204400B2ADF806000022314641
:105320006846FFF7A8FF80B1BDF80400204400B232
:10533000ADF80400BDF80600204400B2ADF8060048
:10534000314668462BF026FDBAE7E888001B00B21C
:10535000ADF80200E888ADF8060000223146684644
:10536000FFF789FF80B1BDF80400204400B2ADF81A
:105370000400BDF80200001B00B2ADF80200314687
:1053800068462BF007FD9BE7A888001B00B2ADF82C
:105390000000A888ADF80400002231466846FFF7F7
:1053A0006AFF80B1BDF80000001B00B2ADF800003C
:1053B000BDF80200001B00B2ADF80200314668469D
:1053C0002BF0E8FC7CE76888ADF802006888204490
:1053D00000B2ADF80600002231466846FFF74BFFE9
:1053E00080B1BDF80000001B00B2ADF80000BDF8B0
:1053F0000600204400B2ADF80600314668462BF0A6
:10540000C9FC5DE701205BE710B5B1F90030B2F9E6
:105410000040A34202DAB1F9003001E0B2F90030F5
:105420000380B1F90230B2F90240A34202DAB1F9C5
:10543000023001E0B2F902304380B1F90430B2F930
:105440000440A34202DDB1F9043001E0B2F90430B6
:105450008380B1F90630B2F90640A34202DDB1F90A
:10546000063001E0B2F90630C38010BD2DE9FF41DE
:1054700004462FF0ACF805460020039034B14749AC
:10548000E068086020462FF019FA03E01DF014FED2
:10549000424908604149096808692BF0D9FB3F4837
:1054A0000068406920B13D49096848692BF0D0FB8C
:1054B0003A490968C8692BF0CBFB38490968086A82
:1054C0002BF0C6FB35480068006940B9002033491D
:1054D0000968A1F8500100BF00BFBDE8FF812BF0B3
:1054E00059FF2BF09FFE2D480068B0F850010028AE
:1054F0004BD02A4800680068007CC0F34000E8B147
:10550000264800681DF056FE401E06B2234800687B
:105510001DF0EAFD401E07B23B460022114601A8DD
:1055200000961AF0B1FF01A81C4909680968896B47
:1055300048601A48006807F09BFE00BF4FF4807176
:1055400016480068303025F0E0FD2021134800683F
:1055500000F5987025F0D9FD002010490968A1F8E0
:10556000500128462FF026F803900C480068006888
:10557000406A50B10949096808680849096809681A
:105580004B6A07490A680399984725F0F5FA00F035
:105590003FF800F007F800BF9FE700005801002027
:1055A0005401002010B5002416E0C4EBC4000C49DF
:1055B00051F8200030B1C4EBC401094A52F821006F
:1055C00025F08CFBC4EBC401054A02EB81001C21D1
:1055D00025F09BFD601CC4B2042CE6DB10BD00006E
:1055E000ACD900200146094A10680BE042688A42A3
:1055F00002D002688A4204D1027E22F00102521CCB
:10560000027640690028F1D1704700002C0100208B
:105610007047000010B50421014800F0E3FF10BD01
:10562000C4D8002010B51C21014800F0DBFF10BDDC
:10563000DCD800202DE9FF4F8BB004469A46199D17
:10564000BAF1000F11D11898B0F5807F0DD100206C
:10565000208060800C98401E00B2A0800D98401EF3
:1056600000B2E0800FB0BDE8F08FB5F90000404215
:10567000189948430121C1EB202000B22080B5F9E0
:1056800002004042189948430121C1EB202000B29A
:105690006080B5F900100C98401A1899484302210F
:1056A00001EB202000B2A080B5F902100D98401A3D
:1056B00018994843022101EB202000B2E080BAF1A2
:1056C000000F14D120882988084400B22080608807
:1056D0006988084400B26080A0882988084400B224
:1056E000A080E0886988084400B2E080BAE70A2018
:1056F0009AFBF0F00A900A98401C09900A9800EB77
:105700008000AAEB400B0A9800B22FF05DFA0890D7
:10571000099800B22FF058FA07900A985A3000B250
:105720002FF052FA069009985A3000B22FF04CFA36
:105730000590CBF10A0108984143079800FB0B1034
:105740000A2190FBF1F6CBF10A0106984143059836
:1057500000FB0B100A2190FBF1F776117F11B4F9D1
:105760000080B4F9029007FB08F006FB19002988B5
:1057700001EBA02000B2ADF8100006FB08F007FB1B
:105780000900698801EBA02000B2ADF81200B4F95D
:105790000480B4F9029007FB08F006FB1900298881
:1057A00001EBA02000B2ADF80C0006FB08F007FBEF
:1057B0000900698801EBA02000B2ADF80E00B4F931
:1057C0000080B4F9069007FB08F006FB1900298851
:1057D00001EBA02000B2ADF8080006FB08F007FBC3
:1057E0000900698801EBA02000B2ADF80A00B4F905
:1057F0000480B4F9069007FB08F006FB190029881D
:1058000001EBA02000B2ADF8040006FB08F007FB96
:105810000900698801EBA02000B2ADF80600BDF9CF
:105820000800BDF91010884202DABDF9080001E055
:10583000BDF91000BDF90410BDF90C20914202DA47
:10584000BDF9041001E0BDF90C1088420BDABDF976
:105850000800BDF91010884202DABDF908000DE019
:10586000BDF910000AE0BDF90400BDF90C10884232
:1058700002DABDF9040001E0BDF90C002080BDF999
:105880000800BDF91010884202DDBDF9080001E0F2
:10589000BDF91000BDF90410BDF90C20914202DDE4
:1058A000BDF9041001E0BDF90C1088420BDDBDF913
:1058B0000800BDF91010884202DDBDF908000DE0B6
:1058C000BDF910000AE0BDF90400BDF90C108842D2
:1058D00002DDBDF9040001E0BDF90C00A080BDF9B6
:1058E0000A00BDF91210884202DABDF90A0001E08F
:1058F000BDF91200BDF90610BDF90E20914202DA81
:10590000BDF9061001E0BDF90E1088420BDABDF9B1
:105910000A00BDF91210884202DABDF90A000DE052
:10592000BDF912000AE0BDF90600BDF90E1088426B
:1059300002DABDF9060001E0BDF90E006080BDF994
:105940000A00BDF91210884202DDBDF90A0001E02B
:10595000BDF91200BDF90610BDF90E20914202DD1D
:10596000BDF9061001E0BDF90E1088420BDDBDF94E
:105970000A00BDF91210884202DDBDF90A000DE0EF
:10598000BDF912000AE0BDF90600BDF90E1088420B
:1059900002DDBDF9060001E0BDF90E00E08000BFA8
:1059A00060E62DE9F74F86B0044620680590B4F90B
:1059B00008100798A0EB0108B4F90A100898A0EBAA
:1059C0000109E089B0F5807F13D1206B00FB08F05E
:1059D000E16A01FB1901606A00EBA10BE06A00FBC0
:1059E00008F0216B01FB0901A06A00EBA100049003
:1059F0002FE0A08980B9A06B00FB08F04FEA601887
:105A0000A06B00FB09F04FEA6019606A00EB080B1D
:105A1000A06A484404901CE0A06B00FB08F04FEA29
:105A20006018A06B00FB09F04FEA6019206B00FBC7
:105A300008F0E16A01FB1901606A00EBA12BE06A42
:105A400000FB08F0216B01FB0901A06A00EBA1201B
:105A500004904FEA2B2604980712B4F90400B042D0
:105A600003DC002009B0BDE8F08F002E01DA002031
:105A7000F8E7B4F90600B84201DC0020F2E7002F95
:105A800001DA0020EEE73420005DC0F3800050B35F
:105A90003420005DC0F3400078B90225B4F9040059
:105AA0007843684306FB050A059800EB0A012A467D
:105AB00004F1140025F0D7FA2CE00325B4F9040012
:105AC0007843684306FB050A6A1E059800EB0A0145
:105AD00004F1140025F0C7FA0AEB0500401E0599F1
:105AE000095CA17516E04FF0000A0025208A0346E4
:105AF0003AB231B2019004F1180021F04BFF02904C
:105B0000BDF80800A0823AB231B204F1180021F0C9
:105B1000A1FEA0753420005D00F00100B0B14FF48B
:105B20007F40002100F47C4241EA5211C0F3C402DC
:105B300011430191BDF8042011460291A08ABDF8DD
:105B40000810884201D100208CE700BFE07C08B932
:105B5000012087E70FFA8BF1A187049801B2E18752
:105B600031B24020015339B242200153C4F844A05D
:105B700084F84850204600F003F80390039871E73A
:105B80002DE9F04F8DB00446D4F8009094F83C0015
:105B90000C9094F83E000B900C9870280BDA4FF0A4
:105BA000FF35B4F940002844002800DA00250C989D
:105BB0008030C7B213E00C9890280EDD0125B4F9AF
:105BC00040002844B4F90410884200DB00250C98FA
:105BD000C0F1FF008030C7B201E00025FF270B981D
:105BE00070280CDA4FF0FF36B4F942003044002838
:105BF00000DA00260B98803000F0FF0815E00B98C3
:105C000090280FDD0126B4F942003044B4F90610A3
:105C1000884200DB00260B98C0F1FF00803000F0C6
:105C2000FF0802E000264FF0FF08A08A0A90A07D3E
:105C3000069000200590049003903420005DC0F38E
:105C4000800000285BD094F84800626C00FB0520BF
:105C500000EB0901022209A825F005FAA28894F8B0
:105C6000480012FB00F2606C02FB060000EB090129
:105C7000022208A825F0F7F9A28894F8480012FB40
:105C800000F2606C02FB060294F8480000FB05205D
:105C900000EB0901022207A825F0E5F93420005D98
:105CA000C0F3400000287ED094F84800616C00FBEF
:105CB00005110844401E19F800000590A18894F8C9
:105CC000480011FB00F1606C01FB060194F84800EC
:105CD0000844401E19F800000490A18894F8480078
:105CE00011FB00F1606C01FB060194F8480000FB19
:105CF00005110844401E19F80000039053E0208A63
:105D00000090B4F942204020005B284401B204F125
:105D10001800009B21F03EFE0990208A009042204E
:105D2000005B304402B2B4F9401004F11800009B4B
:105D300021F030FE0890208A00904220005B304421
:105D400002B24020005B284401B204F11800009B1D
:105D500021F020FE07903420005DC0F3400010B316
:105D6000B4F942204020005B284401B204F118003D
:105D700021F070FD05904220005B304402B2B4F97E
:105D8000401004F1180021F065FD04904220005BF2
:105D9000304402B24020005B284401B204F11800F4
:105DA00021F058FD0390BA46BB463420005DC0F395
:105DB0004000E0B306987843C7F1FF0C059B03FB56
:105DC0000C00C0F3072104987843C7F1FF0C039B34
:105DD00003FB0C00C0F3072201FB08F0C8F1FF032E
:105DE00002FB0300030AA375022905DC022A03DC77
:105DF00000200DB0BDE8F08F022901DC4FF0000853
:105E0000022A01DC4FF0FF080698022801DC4FF05F
:105E1000000A0598022801DC4FF0FF0A04980228C6
:105E200001DC4FF0000B0398022803DC00E002E0E5
:105E30004FF0FF0B03E0BA46BB46FF21A175BAF154
:105E4000000F02D1099802900BE0BAF1FF0F02D1C6
:105E50000A98029005E05246DDE909101CF0BCFBEF
:105E60000290BBF1000F02D1079801900BE0BBF14B
:105E7000FF0F02D10898019005E05A46DDE90710AE
:105E80001CF0AAFB0190B8F1000F03D1BDF804008B
:105E9000A0820FE0B8F1FF0F03D1BDF80800A08287
:105EA00008E04246DDE901101CF096FB0090BDF8C9
:105EB0000000A08201209CE72DE9F05F0446B4F9C0
:105EC000080001026162B4F90A000102A162B4F99A
:105ED0000C000A2190FBF1F56F1CB4F90C0005EBE6
:105EE0008501A0EB4106684200B22EF06DFE8046AF
:105EF000784200B22EF068FE8146C5F15A0000B229
:105F00002EF062FE8246C7F15A0000B22EF05CFE0F
:105F10008346C6F10A0000FB08F009FB06000A21CF
:105F200090FBF1F1E162C6F10A0000FB0AF00BFB05
:105F300006000A2190FBF1F12163E06A4111E16260
:105F4000206B41112163A07C21F033FE3421095DD7
:105F500060F3000134200155A07C21F00DFE3421B6
:105F6000095D60F3410134200155A07C042805D06F
:105F7000A07C052802D0A07C062807D13420005D33
:105F800020F00400001D3421085505E03420005D98
:105F900020F004013420015521682162A06920F01D
:105FA000E000A061A17CA06961F30400A061A18868
:105FB000A06961F39420A061E188A06961F35F505A
:105FC000A061E08900EBD071491001F5001191FB4F
:105FD000F0F2A263FF21A175208AA082BDE8F09FA4
:105FE0002DE9F743054616460024134C2EF0EFFA30
:105FF0008046334629462046019A22F089FA074610
:106000005FB900BF00BF2C21204625F07EF84FF07D
:106010000040A0620020BDE8FE830020A062E0698D
:1060200018B940462EF0C6FAE061E06908B90120CF
:10603000E0612046EFE7000000D9002010B51421F0
:10604000114800F0CFFA22F015FA044600BF1CB93F
:1060500000BF00BF00BFFEE700BF14B900BF00BF14
:1060600010BD0A49204622F0EDFA0949204622F0E7
:10607000EBFA0849204622F0E9FA0749204622F0C7
:10608000DFFA00BFECE70000E8D80020917C0208AE
:106090006581020881830208597C020870B50446B4
:1060A0000D461021284625F030F820680078012898
:1060B00004D1208A2880608A68800CE020680078FB
:1060C000022802D1E068686005E0206800780428B2
:1060D00001D10A2068602068406820B12068294604
:1060E0004268904701E000BF00BF70BD2DE9FE434C
:1060F0000446A66AEEB9A18A208A084401B2A182A8
:10610000E18A608A084401B2E18220460FF014FF60
:1061100006460EB9BDE8FE83204614F08FFB002230
:106120000921304620F09CFC6078C0F3400000B1AB
:10613000F0E7208A10B9608A002870D00020029011
:10614000019094F83C0000F00F00032812D1304673
:1061500027F094F80746304627F018F880460320C9
:106160000090B4F910103B46424630460EF094F8C9
:10617000029012E0304627F003F90746304626F039
:1061800077FF80460C200090B4F9121043463A463F
:1061900030460EF081F8019000BF304626F0C8FF6F
:1061A000054605F0010028B9BDF90800002801DD09
:1061B0000020029005F0020028B9BDF9080000286F
:1061C00001DA0020029005F0040028B9BDF90400AE
:1061D000002801DD0020019005F0080028B9BDF974
:1061E0000400002801DA0020019001AA02A920463B
:1061F00032F04AFE0023BDF90420BDF908103046F4
:1062000029F09CFFA08ABDF80810084401B2A182C1
:10621000E08ABDF80410084401B2E18200BF00BF6B
:1062200078E72DE9F84F0446D4F828B0BBF1000F09
:1062300001D1BDE8F88F94F83C0000F00F0000B9E0
:10624000F7E722F0E7FC06463068477E40215846D3
:1062500028F09EFC10B9002161832183584627F065
:106260007BF88046584627F081F8054694F83C00B4
:1062700000F00F000C2843D1002121831DBBB4F98D
:106280001A00C7F164014843642190FBF1F001B2A8
:106290006183584626F0ECFE8146584627F070F898
:1062A00082460C200090B4F91A104B4652465846CC
:1062B0000DF0F2FF6083B4F91A2000231946584606
:1062C00029F03CFF69E0204632F035FE00900021C5
:1062D00061836A46204632F0D7FDBDF9003041F6B1
:1062E000FF72514258460FF0CFFF8146BDF80000C3
:1062F000484402B201230021584629F01FFF4CE018
:1063000094F83C0000F00F00032846D1002161837F
:10631000B8F1000F23D1B4F91800C7F16401484364
:10632000642190FBF1F001B22183584626F02EFF44
:106330008146584626F0A2FF824603200090B4F919
:10634000181053464A4658460DF0A6FF2083B4F96C
:10635000181000231A46584629F0F0FE1DE020468A
:1063600032F0CEFD009000212183002269462046B4
:1063700032F08AFDBDF9003041F6FF7251425846B5
:106380000FF0E8FE8146BDF80000484401B2012349
:106390000022584629F0D2FE00BF208B002860D191
:1063A000608B00285DD11DBB584626F0E9FF814671
:1063B000584626F05DFE8246B9F1000F02DCBAF1C4
:1063C000000F14DDB9F1000F06DA01234A4600215F
:1063D000584629F0B3FE0AE0BAF1000F07DA0123AC
:1063E000CAF1000002B20021584629F0A7FE00BF02
:1063F000B8F1000F23D1584626F0C8FE8146584612
:1064000026F03CFF8246B9F1000F02DCBAF1000F22
:1064100014DDB9F1000F06DA01230022494658467F
:1064200029F08CFE0AE0BAF1000F07DA01230022FE
:10643000CAF1000001B2584629F080FE00BF324682
:106440000A21584620F00CFB6078C0F3400000B1F0
:10645000EFE694F83C0020F00F0184F83C10002196
:10646000A16200BFE5E62DE9FF4104460F4614B9DD
:106470001CF022FE04460CB9BDE8FF811FB90020C4
:10648000A4F85001F8E70020ADF80800ADF80A00C4
:1064900020461CF029FE401E00B2ADF80C0020463C
:1064A0001CF088FE401E00B2ADF80E0002AA39466C
:1064B0006846FEF7C9FD064606B9DDE72068007CA0
:1064C000C0F3400060B1029820630398606301202C
:1064D000A4F85001606810B160682EF0FBF9CBE7BA
:1064E0002068806918B12068694682699047002554
:1064F0000BE004F1300000EBC50100226846FEF716
:10650000E4FD00B1B8E7681C85B2B4F85001A842B8
:10651000EFDCB4F85001202809DAB4F8502104F176
:10652000300101EBC200694619F051FE0BE000207A
:10653000A4F85001B4F8502104F1300101EBC2007D
:1065400002A919F044FEB4F85001401CA4F850010F
:10655000606810B160682EF0BDF900BF8CE770B5BF
:106560000546284600F013F8044600260CE02146B4
:10657000284600F024F806462146284600F086F812
:10658000204624F0ABFB3446002CF0D170BD014610
:1065900009B9002070474868FCE770B5064600243A
:1065A0003046FFF7F4FF054605E0641C29463046F7
:1065B00000F005F80546002DF7D1204670BD0246D3
:1065C0000B461068001D03441868704702460B46CE
:1065D0001068034418687047014609B900207047E5
:1065E0008868FCE7002242608260CA1C22F0030136
:1065F0000160704770B50446216801F1080024F07D
:106600009FFA0546A5B100222946204630F080F9C0
:1066100029462046626830F06DF9606820B12A464C
:106620002046616830F074F96560A06800B9A56023
:10663000284670BD70B50446216801F1080024F0B9
:106640007FFA0546A5B100222946204630F052F9CE
:1066500029462046A26830F05BF9A06820B12A469E
:106660002046A16830F046F9A560606800B9656011
:10667000284670BD014609B901207047486818B91D
:10668000886808B90120F8E70020F6E72DE9F04115
:1066900004460D460CB9BDE8F0812046FFF777FFB0
:1066A000A8420FD129462046FFF789FF6060606845
:1066B00010B90020A0602FE000222046616830F071
:1066C00027F929E02046FFF787FFA8420FD1294686
:1066D0002046FFF77BFFA060A06810B90020606033
:1066E0001AE000222046A16830F004F914E029469F
:1066F0002046FFF76BFF064629462046FFF75FFF5F
:1067000007463A463146204630F0F4F832463946DC
:10671000204630F0FDF800BF00BFBCE710B50446CE
:106720002068806818B120682146826890472068F8
:10673000006828B12068006820602046FFF7EEFF5F
:1067400010BD0146886818B18868B0F91600704716
:106750000020FCE72DE9F04F93B005468B469146AB
:106760009A461C9E688C20F00400001D6884A5F8E1
:10677000209032895946284627F086FF1290A5F8C6
:1067800020A032895946284627F07EFF1190688C58
:1067900020F004006884DDE9111088420CD1DDE9A5
:1067A0001110884208D1BDF84800BDF84410884255
:1067B00002D113B0BDE8F08FA5F820903289594678
:1067C000284627F061FF1290A5F820A059462846D8
:1067D00012F0C5F810903189109A1068129A2CF0B6
:1067E000B2FB3089602833D147F6FF711298884296
:1067F00002D0119888422BD1284628F06CF90F90CE
:1068000000EBD0704710284628F065F90F9000EB98
:10681000D0704FEA600847F6FF711298884208D19D
:10682000781C08F10101884200DA01E008F101005A
:10683000129047F6FF711198884208D1781C08F130
:106840000101884200DA01E008F10100119000BF67
:106850002448FFF7CFFE044600BF1CB900BF00BFAD
:1068600000BFFEE700BF04B9A3E71298E0601198EB
:106870002061ACB325603089A080C4F808B06846B8
:1068800018F06CFE2146684618F01BFF1649684652
:1068900018F0E7FE1548029000BF1549684618F049
:1068A000EEFEFF220021684618F0FBFE31886846A4
:1068B00018F0EDFE7188684618F0CEFEF06806907C
:1068C00000BF6846002190F83E2061F3000280F886
:1068D0003E2000BF30690590684618F009FF00BFF0
:1068E00000BF66E7F4D8002069DA030815DD030865
:1068F00045DC030810B514210148FFF773FE10BDF5
:10690000F4D800202DE9FE4F04460F4690464FF084
:10691000000900256BE1E06800EBC5004068C0F3AA
:10692000406000B162E1E16801EBC501496821F016
:106930007F402AF089F9064626EA070008B90120B7
:1069400000E00020029026EA080008B9012000E0DB
:1069500000200190DDE90101814272D0E06850F829
:1069600035A04FF0000B6A4641F6100150462BF05F
:1069700083FF10B14FF0010BA9E06A4641F6110107
:1069800050462BF079FF10B14FF0010B9FE06A46A3
:1069900041F6120150462BF06FFF10B14FF0010B82
:1069A00095E06A4641F6130150462BF065FF10B1A1
:1069B0004FF0010B8BE06A4641F6150150462BF073
:1069C0005BFF10B14FF0010B81E06A4641F6140104
:1069D00050462BF051FF10B14FF0010B77E06A46A3
:1069E00041F2690150462BF047FF10B14FF0010B07
:1069F0006DE06A4643F20C0150462BF03DFF10B1AA
:106A00004FF0010B63E06A4643F20D0150462BF054
:106A100033FF10B14FF0010B59E06A4641F201011A
:106A200050462BF029FF10B14FF0010B4FE06A46A2
:106A300041F2040150462BF01FFF18B14FF0010B3B
:106A400045E0D2E06A4641F2020150462BF014FFC5
:106A500010B14FF0010B3AE06A4641F20301504693
:106A60002BF00AFF10B14FF0010B30E06A4641F203
:106A7000050150462BF000FF10B14FF0010B26E04E
:106A80006A4641F2060150462BF0F6FE10B14FF077
:106A9000010B1CE06A4641F2320150462BF0ECFE3D
:106AA00010B14FF0010B12E06A4643F60F01504659
:106AB0002BF0E2FE10B14FF0010B08E06A4643F6FE
:106AC0000E0150462BF0D8FE08B14FF0010BBBF180
:106AD000000F02D00320BDE8FE8F6A4640F60A018F
:106AE00050462BF0C9FE10B14FF002097CE06A4617
:106AF00040F60B0150462BF0BFFE10B14FF00209DB
:106B000072E06A4643F60F0150462BF0B5FE10B115
:106B10004FF0020968E06A4643F60E0150462BF03A
:106B2000ABFE10B14FF002095EE06A4640F63C0150
:106B300050462BF0A1FE10B14FF0020954E06A4616
:106B400040F63D0150462BF097FE10B14FF0020980
:106B50004AE06A4640F63A0150462BF08DFE10B1ED
:106B60004FF0020940E06A464FF4046150462BF0B2
:106B700083FE10B14FF0020936E06A4640F6450147
:106B800050462BF079FE10B14FF002092CE06A4616
:106B900040F6410150462BF06FFE10B14FF0020954
:106BA00022E06A4640F6420150462BF065FE10B1E5
:106BB0004FF0020918E06A4640F6430150462BF0B8
:106BC0005BFE10B14FF002090EE06A4640F6490143
:106BD00050462BF051FE10B14FF0020904E0B9F11C
:106BE000000F01D14FF0010900BF00BF6D1C608C88
:106BF000C0F3C500A8423FF68EAE48466BE70000E2
:106C000001480068704700005801002070470146A5
:106C1000C1F30412072A00DD0722D0B2704700003A
:106C200010B518210348FFF7DDFC01202DF06AFDA7
:106C300010BD0000A0D800202DE9F04105460F4608
:106C400016460DB9BDE8F0812846F9F70BFE8046DF
:106C5000394628460A4A126890470746E8193146DD
:106C6000074A1268904706463C4603E0A019285C94
:106C70002855641CA8EB0600A042F7D200BFE1E74C
:106C8000EC0200202DE9F04106460C4617461D4651
:106C900029463046084A126890472060206830B183
:106CA000296888190021044A1268904700E00020F2
:106CB0003860BDE8F0810000E40200202DE9F04FCB
:106CC00087B004460F4692469846DDE910560DB14E
:106CD000002028801CB9002007B0BDE8F08F207884
:106CE00008B90020F8E70FB90020F5E74FF00009D8
:106CF00006F0020010B906F0040098B1002000E090
:106D0000401C215C0A2905D0215C0D2902D0215CA0
:106D10000029F5D1215C01B1401C15B14FF0FF31C4
:106D20002980D9E706F0020008B141F6FF7800207B
:106D30000690059038E000200490059808B90120DD
:106D400000E0002006A904AACDE90062CDE9021006
:106D5000059960184346524639462DF06DFF83462B
:106D60000498A8EB00000FFA80F8049848440FFA42
:106D700080F9BBF1000F00D11CE005985844059044
:106D800020780A2802D020780D2800D112E005983A
:106D9000205C0A2803D00598205C0D2803D10598B3
:106DA000401C059006E000BF0598205C10B1B8F1CA
:106DB000000FC0DC00BF059870B905A92046094A3C
:106DC00012689047834635B10022594638461FF075
:106DD0008CFF0FFA80F900BF0DB1A5F8009005985F
:106DE0007AE70000E40200202DE9F04706468846D5
:106DF000174606B10FB9BDE8F0873046F9F732FD06
:106E000081463846F9F72EFD044604B9F3E704EB52
:106E1000090A414630460B4A12689047804655465B
:106E200003E0281B305C70556D1E08EB0400A8427F
:106E3000F7D906EB08002246394624F020F900BFB6
:106E4000D9E70000EC020020024600200FA31B78C7
:106E50008B4211D113781BB90123137001200BE071
:106E60001378012B02D10023137005E01378022B55
:106E700002D10023137001201378012B04D12029A3
:106E800001D102231370012070470000230000008D
:106E900073B582B006460398019032460021084639
:106EA000019B2EF0E5F90546002001900024681CA6
:106EB00023F046FE044600BF1CB900BF00BF00BF60
:106EC000FEE700BF14B9002004B070BD002060557B
:106ED0003246691C2046039B2EF0CAF92046F3E790
:106EE0002DE9F04781460E4614461F46DDF820A0E6
:106EF00035461BE0600800FB075529464846D04749
:106F0000B0F1000809DD04F0010080F00100C0EBE1
:106F10005404E8190546064608E0B8F1000F02DA05
:106F20006408354602E02846BDE8F087002CE1D130
:106F30000020F9E72DE9FF4F85B08346DDE9158A8A
:106F4000DDE91349DDE91775129E05F00200F8B975
:106F50004FB105F0010030B1B9F1000F02D105F0D9
:106F60000C0000B17F1E03E030222046641C325426
:106F7000544501D2202CF7D303E030222046641C74
:106F8000325405F0010018B1BC4201D2202CF4D3D8
:106F900005F01000B0B305F4806050B94CB1544511
:106FA00001D0BC4205D1641E1CB1B8F1100F00D154
:106FB000641EB8F1100F09D105F0200030B9202C63
:106FC00004D278222046641C325415E0B8F1100F28
:106FD00009D105F0200030B1202C04D258222046DF
:106FE000641C325408E0B8F1020F05D1202C03D202
:106FF00062222046641C3254202C03D230222046C8
:10700000641C3254202C16D2B9F1000F04D02D226A
:107010002046641C32540EE005F0040020B12B22FF
:107020002046641C325406E005F0080018B1202206
:107030002046641C3254CDE90275CDE900645846FF
:1070400006A90EC900F0A2F809B0BDE8F08F2DE93D
:10705000FF4F8FB08046DDE91FABDDE91D96219D16
:107060001C9C00270CB925F0100505F4806000B1C8
:10707000E4B100BFB4FBF6F106FB1141C8B20A2827
:1070800002DA00F1300107E005F0200109B14121E9
:1070900000E0612101440A39CBB239467F1C07AABE
:1070A0005354B4FBF6F40CB1202FE3D307A8CDE979
:1070B00004AB8DE8810203960695404610A90EC9DF
:1070C000FFF738FF13B0BDE8F08F2DE9FF4F8FB009
:1070D000DDE9217BDDF89080209EDDE91C454FF045
:1070E0000009002184EA01006940084301D128F029
:1070F000100808F4806028B1002184EA010069408A
:1071000008432DD000BF32463B4620462946F9F7BA
:1071100048F902F0FF0ABAF10A0F02DA0AF1300068
:1071200007E008F0200008B1412000E06120504451
:107130000A38C2B2484609F1010907A90A54324681
:107140003B4620462946F9F72CF904460D46002116
:1071500084EA01006940084302D0B9F1200FD2D37C
:107160002398CDE9036BCDE9050807A91E98CDE961
:10717000001902900FA80FC8FFF7DCFE13B0BDE89E
:10718000F08F9A4200D28854704770472DE9FF5F14
:1071900005461446DDE90EA6DDE91087A34607F093
:1071A000020078B907F0010060B9B14607E0224655
:1071B000641C2020039B0199A84709F10109C145DE
:1071C000F5D300BF08E02246641C711E0E461AF873
:1071D0000100039B0199A847002EF4D107F002009B
:1071E00050B105E02246641C2020039B0199A8476A
:1071F000A4EB0B004045F5D3204604B0BDE8F09F5A
:1072000000BF70472DE9FF4F8BB0074600250C9853
:1072100000B9FA4FEAE20E98007825280AD02A46EB
:107220006D1C0E990878DDE90C13B8470E98401CC8
:107230000E90DBE20E98401C0E90002400BF0E98CA
:1072400000782B2819D004DC20281ED023282CD12C
:1072500023E02D2809D0302827D144F001040E98CE
:10726000401C0E9001200A9022E044F002040E9887
:10727000401C0E9001200A901AE044F004040E987D
:10728000401C0E9001200A9012E044F008040E9871
:10729000401C0E9001200A900AE044F010040E9861
:1072A000401C0E9001200A9002E000200A9000BFCE
:1072B00000BF0A980028C2D180460E990878FDF7D1
:1072C00098FE20B10EA8FDF77FFE804612E00E98D2
:1072D00000782A280ED1189901C91891002804DADB
:1072E00044F00204C0F1000800E080460E99491CF9
:1072F0000E9100BF4FF000090E9800782E281FD184
:1073000044F480640E98401C0E900E990878FDF7A6
:1073100070FE20B10EA8FDF757FE814610E00E98D2
:1073200000782A280CD1189901C91891002801DD8C
:10733000014600E0002189460E99491C0E9100BFCC
:107340000E9800786C280AD004DC682816D06A28C9
:1073500035D128E0742820D07A2830D129E044F4AF
:1073600080740E98401C0E900E9800786C2804D102
:1073700044F400740E98401C0E9021E044F0800408
:107380000E98401C0E900E980078682804D144F0A6
:1073900040040E98401C0E9012E044F480740E9845
:1073A000401C0E900CE044F400740E98401C0E90AB
:1073B00006E044F480740E98401C0E9000E000BF7C
:1073C00000BF0E98007869281DD00EDC622821D0FD
:1073D00006DC25287ED050281AD058287BD115E00D
:1073E000632879D06428F9D10CE0732875D004DCC7
:1073F0006F280ED07028F1D109E0752804D07828C4
:10740000ECD102E000BF00BF00BF00BF00BF00BF63
:1074100000BF00BF0E980078782803D00E9800783F
:10742000582801D1102623E00E980078702803D048
:107430000E98007850280CD1102644F0100444F423
:1074400080740E984078562812D10E98401C0E90E9
:107450000EE00E9800786F2801D1082608E00E98FB
:107460000078622801D1022602E00A2624F01004E6
:107470000E980078582803D00E980078502801D133
:1074800044F020040E980078692805D00E98007802
:10749000642801D024F00C0404F4806008B124F0C6
:1074A00001040E980078692803D00E9800786428AB
:1074B0007CD104F40070B8B31898C01D20F0070008
:1074C0001890D0E900AB189A083218920020CDE944
:1074D000069803E073E17CE1F2E01CE1CDE9046091
:1074E0000894BAEB00017BEB000001DA012000E018
:1074F0000020002102900846B1EB0A0170EB0B005E
:1075000002DA5046594605E000200146B0EB0A0079
:1075100061EB0B01CDE900012A463846DDE90C1389
:10752000FFF7D3FD0546C7E0FFE704F48070D0B154
:10753000189850F804AB18904FEADA70CDE9039828
:1075400002960594BAF1000F01DD514601E0CAF13F
:107550000001CDE900102A463846DDE90C13FFF79B
:1075600076FD0546A8E004F0400028B1189810F810
:10757000041B1890C8B20DE004F0800028B11898E0
:1075800030F8041B189008B204E0189800681899A5
:10759000091D189182464FEADA70CDE903980296E8
:1075A0000594BAF1000F02DD514602E00BE0CAF18A
:1075B0000001CDE900102A463846DDE90C13FFF73B
:1075C00046FD054678E00E980078562818D11898A0
:1075D00050F804AB1890DAF8040000680990099894
:1075E0000090DAF800300D98421B0C98411938468B
:1075F000FFF708FE0544002009905DE08B7100084C
:1076000004F40070D0B11898C01D20F00700CDE937
:107610000698089418900020CDE90460029018990B
:1076200003C9189A08321892CDE900012A46384653
:10763000DDE90C13FFF749FD05463DE004F48070D9
:1076400098B10022CDE90398029605941898006835
:107650001899091DCDE9000218912A463846DDE93E
:107660000C13FFF7F4FC054626E004F0400028B1B7
:10767000189810F8041B1890C8B20DE004F08000B0
:1076800028B1189830F8041B189088B204E01898B4
:1076900000681899091D189182460020CDE900A0C4
:1076A000CDE90398029605942A463846DDE90C1385
:1076B000FFF7CDFC054600BF0E98401C0E9093E0EE
:1076C000012604F0020050B905E02A466D1C202076
:1076D000DDE90C13B8473046761C4045F5D31899C0
:1076E00011F8043BD8B22A466D1C1891DDE90C1341
:1076F000B84704F0020050B105E02A466D1C202076
:10770000DDE90C13B8473046761C4045F5D30E989A
:10771000401C0E9068E0189850F804AB1890504642
:10772000B9F1000F01D0494601E04FF0FF310A46A0
:10773000014600E0491C0B781BB1131EA2F10102A7
:10774000F8D10E1A04F4806028B14E4501D23046BB
:1077500000E04846064604F0020050B905E02A461B
:107760006D1C2020DDE90C13B8473046761C4045DF
:10777000F5D306E01AF8010B2A466D1CDDE90C135F
:10778000B8479AF8000040B104F480600028F1D0B6
:10779000B9F10000A9F10109ECD104F0020050B1E7
:1077A00005E02A466D1C2020DDE90C13B847304661
:1077B000761C4045F5D30E98401C0E9014E02A46E6
:1077C0006D1C2520DDE90C13B8470E98401C0E9067
:1077D0000AE02A466D1C0E990878DDE90C13B847BB
:1077E0000E98401C0E9000BF00BF00BF0E9800789E
:1077F00000287FF410AD0D98854201D2284601E0A3
:107800000D98401E02460020DDE90C13B8472846BB
:107810000FB0BDE8F08F2DE9F04104460E46002779
:1078200074B13146204600F02DF80546B5F5803F8D
:1078300005D20C2D01D9284600E00C20074600BFD8
:107840003846BDE8F081024600BF481E084018B126
:1078500000BF00BF00BFFEE700BF481E1040101A67
:10786000704710B502464B1E13444C1E23EA040019
:1078700000BF4B1E0B401BB100BF00BF00BFFEE7A7
:1078800000BF10BD024600BF481E084018B100BF2F
:1078900000BF00BFFEE700BF481E10444B1E9843C8
:1078A000704702460020CB1C23F00301D36E8B42AD
:1078B00005D3D36E5B1AD366906E431893667047F8
:1078C0002DE9F04180460E464446012060860025A1
:1078D00000270DE056F8270025A1F9F7F5F810B1BB
:1078E000681C85B202E0608E401C6086781C87B2FE
:1078F00056F8270020B156F8270000780028E9D173
:10790000208EA84201D1BDE8F081A06A20B1A06A12
:1079100023F0E4F90020A062E06A20B1E06A23F0DD
:10792000DDF90020E062E80023F00AF9A06200BF60
:10793000A06A18B900BF00BF00BFFEE700BF680023
:1079400023F0FEF8E06200BFE06A18B900BF00BF94
:1079500000BFFEE700BFA06A08B1E06A00B90025D9
:107960006900E06A23F0D1FB258600BFCBE7000069
:107970000A0000002DE9F84F81460E46924699F81C
:10798000090000F00700022801D1304600E050460F
:107990008346564501DD304600E050460746032049
:1079A00000EB470020F0030000F1100539480068A3
:1079B00039490968A0EB0108002405EB08003749A4
:1079C0000968884206D233480468606820F00040A5
:1079D00060603AE031480068854221D813E04FF0FA
:1079E000FF300090002269462D4813F0D1FC0022A0
:1079F00069462C4813F0CCFC2648006826490968E3
:107A0000A0EB010800BF08EB050024490968884283
:107A1000E5D820480468606820F00040606014E009
:107A2000284623F08DF8044600BF1CB900BF00BFF4
:107A300000BFFEE700BF14B90020BDE8F88F606802
:107A400020F0004000F10040606032465946484650
:107A500002F0A2F92060606800F04040401C6060C5
:107A6000606820F080406060A781A4F80EB0606874
:107A7000C00F20B1204600F11001A16008E00548C8
:107A800000681030A060034800682844014908607D
:107A90002046D2E760010020B40200205C010020F3
:107AA0001B5F0108B9B90108F0B585B006460D465F
:107AB0003446002004900390029094F83C0000F0BB
:107AC000030020B1012838D0022866D000BF94F806
:107AD0003C0000F003005A49097888421BD0262058
:107AE000005D00EB001000EB4000142190FBF1F072
:107AF000544908702720005D00EB001000EB4000A7
:107B0000142190FBF1F05049087094F83C0000F00B
:107B100003004B49087002A803A9CDE9001005EB4A
:107B200045014FF6FF7202EA410004AB46490A786C
:107B3000444909780DF065FD5FE094F83C0000F0E1
:107B400003003F49097888421AD0A08C00EB40001E
:107B500040024FF4B471B0FBF1F03C49088027209B
:107B6000005D00EB001000EB4000142190FBF1F0F1
:107B70003549087094F83C0000F003003049087063
:107B800002A803A9CDE90010E9B204AB2E4802789F
:107B90002E4800880DF035FD2FE094F83C0000F0F1
:107BA00003002749097888421AD0A08C00EB4000D6
:107BB00040024FF4B471B0FBF1F024490880262054
:107BC000005D00EB001000EB4000142190FBF1F091
:107BD0001C49087094F83C0000F003001849087034
:107BE00002A803A9EAB204ABCDE900101548017858
:107BF000164800880DF005FD00BF00BF9DF810007D
:107C00009DF80C109DF80820D708BDF8003067F3E8
:107C100004038F080093BDF8003067F34A13C708C8
:107C20000093BDF8003067F3CF230093BDF80070D8
:107C30003B460193BDF80410084605B0F0BD0000B6
:107C40001202002010020020110200200E0200206B
:107C500010B50120074908700748FEF798FC20B9C5
:107C6000064800682CF02AFE03E0044800682CF067
:107C700031FE10BD9C020020D0D80020A0020020C0
:107C800010B5044694F83E00C0F3400050B9A08FF0
:107C9000002807DDA08F4FF6FF71884202D0A08F29
:107CA000401EA087A08FA8B9606B20B194F83E0059
:107CB000C0F3400070B121461748FEF7E7FCFFF71C
:107CC000C7FFE06810B12046E1688847204623F0EE
:107CD00005F81FE0A06B4042E062606BD0B194F801
:107CE0003E10C1F3400111B9216B4942E16294F8A1
:107CF0003E104908C94394F83E2061F3410284F8DC
:107D00003E20E069616AE1616062A06A616BA16224
:107D1000606300BF10BD0000D0D800202DE9F04105
:107D20008046424800682CF045FC064640480078F2
:107D300080F001003E4908703E48FEF728FC0446EA
:107D40006BE000203C49087094F83E00C0F38000CE
:107D500037490978884253D0354801782C34A07CC3
:107D600061F38200A07420688719A07C2C3CC0F3CA
:107D7000C00010BBE06A00281FDC002F1DDB94F858
:107D80003E0000F0010060B9206950B12046216931
:107D900088470546E0692844E061606A28446062DB
:107DA00000BFA06810B12046A168884794F83E0043
:107DB00020F00800083084F83E00E06A3044E062B9
:107DC000E06A00281BDBD4E90A10884201DDA06AC2
:107DD000E0622046A16988470546206AA84206D08D
:107DE0002562606818B12946D4E900029047D4E9B9
:107DF0000A10884202DB2046FFF742FF00BF00BFA7
:107E00000D48007820B10B48FEF7C1FB044604E0A2
:107E100021460848FEF7D3FB0446002C91D12CF0F4
:107E2000D6FB02490860BDE8F081000098020020FE
:107E30009D020020D0D800209C020020F7B582B01F
:107E400004460E4614B9049805B0F0BD00BF632285
:107E50003146204626F018FC0190019D00BFBDB1BF
:107E60002868A8B100BF64223146204626F00CFCE9
:107E700001900198C0B207464FB13A462B68284698
:107E8000049998470190BDF80400ADF8100000BFB8
:107E90000498D9E770B504460D46606818B12946C4
:107EA0006068FFF7F7FF206818B12946204622686E
:107EB000904770BD70B505460C46A1B2284618F033
:107EC000B3F870BD70B505460C46A1B2284618F04F
:107ED000FCF870BD10B511F079FB10BD70B505460A
:107EE0000C46164606E028466A1C95B200F008F8D3
:107EF00004F8010B301EA6F101018EB2F3D170BD62
:107F000070B50446002611F02BFC2112A02202EBD2
:107F10004101C8B211F0ECFB11F06AFC2546E117F3
:107F200004EB11610912A4EB0121C8B211F0E0FBCE
:107F300011F05EFC11F014FCA12011F0D9FB11F03E
:107F400057FC002011F0A4FB064611F031FC30462E
:107F500070BD70B505460C46164606E021782846E9
:107F600000F009F8681C85B2641C301EA6F10101FE
:107F70008EB2F3D170BD70B504460E4611F0F0FB21
:107F80002112A02202EB4101C8B211F0B1FB11F0A5
:107F90002FFC2546E11704EB11610912A4EB012126
:107FA000C8B211F0A5FB11F023FC304611F0A0FB84
:107FB00011F01EFC11F0FCFB0A2003F06BFB70BDFE
:107FC0002DE9F04704468846266865684FF0000AA8
:107FD000277BD14600BF1FBB66B9A5684FF400726E
:107FE00029462046236F9847064626B96FF00100C0
:107FF000BDE8F0876D1C761EBAF1000F09D04FF076
:10800000000A287810B16FF00500F1E7FF20287012
:1080100005E02878FF2802D14FF0010A0BE0802705
:108020004FEA49092878384008B149F001097F1022
:10803000A8F1010800BFB8F1000FCCD1277326606A
:1080400065604846D4E770B504460D4600BF20463B
:1080500000F08FF918B100BF00BF00BFFEE700BFFE
:10806000284600F0A4FA001D6168084460602046BC
:1080700000F08EF9204670BD70B505460C462846C6
:1080800000F095FA04F11001884201D3012070BD7F
:108090000020FCE70146A1F1080070472DE9F04FF0
:1080A00087B00C464FF4B55BCDF818B041F2511BC8
:1080B000CDF814B042F6CF1BCDF810B041F6905B6E
:1080C000CDF80CB04FF0000BCDF800B080E0D0F848
:1080D00000C0D0F84080D0F88090D0F8C0100CEBF1
:1080E000090AACEB090BCDF808B0A8EB010B4FF473
:1080F000B55E0BFB0EFB4FEA2B3741447F1A0AEBB0
:10810000010CAAEB0101DDF808B007EB0B08DDF864
:1081100008B0ABEB0709D0F8E050036AD0F8A060D4
:10812000026EA3EB050A5F19A6EB020BCDF808B0AF
:108130003244A7EB020B0BFB0EFB4FEA2B333A4406
:10814000DDF808B0D34441F6905E0BFB0EFB4FEA1E
:108150002B3BCDF804B041F2511B0AFB0BFEDDF8BE
:1081600004B0ABEB2E3542F6CF1EDDF808B00BFBAA
:108170000EFEDDF804B0ABEB2E3BABEB02069B1B17
:10818000ED1A0CEB020BC0F800B0ACEB020BC0F820
:10819000E0B008EB060BC0F820B0A8EB060BC0F867
:1081A000C0B009EB030BC0F840B0A9EB030BC0F85B
:1081B000A0B001EB050BC0F860B0A1EB050BC0F857
:1081C00080B0001DDDF800B00BF1010BCDF800B060
:1081D000DDF800B0BBF1080FFFF679AF20384FF0A3
:1081E000000BCDF800B0A2E0D0F800B00BF5004CC9
:1081F000D0F80880D0F8109081690CEB090AACEB3C
:10820000090BCDF808B0A8EB010B4FF4B55E0BFBE2
:108210000EFB4FEA2B3741447F1A0AEB010CAAEB05
:108220000101DDF808B007EB0B08DDF808B0ABEB97
:108230000709C56943684669C268A3EB050A5F1967
:10824000A6EB020BCDF808B03244A7EB020B0BFBF8
:108250000EFB4FEA2B333A44DDF808B0D34441F625
:10826000905E0BFB0EFB4FEA2B3BCDF804B041F2C6
:10827000511B0AFB0BFEDDF804B0ABEB2E3542F6CA
:10828000CF1EDDF808B00BFB0EFEDDF804B0ABEB43
:108290002E3BABEB02069B1BED1A0CEB020BCBF358
:1082A000092BDFF89CE01EF80BB084F800B0ACEBB3
:1082B000020BCBF3092B1EF80BB084F807B008EBC8
:1082C000060BCBF3092B1EF80BB084F801B0A8EB1A
:1082D000060BCBF3092B1EF80BB084F806B009EBA4
:1082E000030BCBF3092B1EF80BB084F802B0A9EBFB
:1082F000030BCBF3092B1EF80BB084F805B001EB90
:10830000050BCBF3092B1EF80BB084F803B0A1EBDF
:10831000050BCBF3092B1EF80BB084F804B008341E
:108320002030DDF800B00BF1010BCDF800B0DDF826
:1083300000B0BBF1080FFFF657AF07B0BDE8F08FF4
:108340006C2305087CB505460C46204600F02FF945
:1083500006466A4601A92DF0CFFA21462846DDE9F6
:10836000003212F081FB7CBD0146087900F001006B
:10837000704710B50446204600F019F908B90120ED
:1083800010BD0020FCE70146087900F002007047AC
:1083900070B50446204600F097F805462C60284644
:1083A00070BD7CB506460C4600200190009000256B
:1083B0006CB16A4601A920462DF0BBFA01980A2843
:1083C00005DA6A4601A9304630F014FF054685B14A
:1083D00000BF284600F0EBF8A04203D200BF00BF68
:1083E00000BFFEE700BF29463046DDE9003230F02D
:1083F000B8FA28467CBD70B504462046FFF7C8FF92
:108400000546284600F0BEF8204600F0B6F870BDDC
:1084100070B50446204600F057F80546284600F09F
:10842000B6F8204600F0BEF870BD70B506460D46A1
:10843000284600F049F8044600BF1CB900BF00BF41
:1084400000BFFEE700BF2046FFF78EFF90B100BFE0
:108450002846FFF78EFF18B100BF00BF00BFFEE740
:1084600000BF2146304600F076F821462846FFF747
:10847000EAFD0546284670BD70B506460D462846FD
:10848000FFF781FFF0B1284600F057F8044600BF1F
:108490001CB900BF00BF00BFFEE700BF00BF204601
:1084A000FFF762FF18B900BF00BF00BFFEE700BFC3
:1084B0002146304600F04FF829462046FFF7C3FD1D
:1084C000054600BF284670BD2DE9F0410446204610
:1084D00000F06DF8061F204600F0B8F80746314658
:1084E0002EF0DDFC054600BF2046FFF742FF18B125
:1084F00000BF00BF00BFFEE700BF2846BDE8F08117
:108500002DE9F04106460C461546002794B100BF00
:108510001DB900BF00BF00BFFEE700BF2A462146CD
:10852000304600F097F82046FFF772FF204600F033
:108530008DF807463846BDE8F08110B5044600BF07
:108540002046FFF720FF18B900BF00BF00BFFEE7BD
:1085500000BF206810BD7CB505460C46204600F0E3
:1085600026F806466A4601A92DF0C6F92146284696
:10857000DDE9003230F0F5F97CBD416841F00101E0
:1085800041607047416841F00201416070474168B5
:1085900021F0020141607047426802F003030B437F
:1085A00043607047416821F0010141607047014616
:1085B000486820F0030070472DE9F04706460C4656
:1085C000304600F043F88046211F2EF068FC074635
:1085D0003046FFF7ECFF211D451A00BF384600F07A
:1085E00035F88146384600F031F880460421FFF71F
:1085F00038F9814503D000BF00BF00BFFEE700BFD0
:1086000000BF3046FFF7D3FF2919091D884203D068
:1086100000BF00BF00BFFEE700BF29463846FFF796
:10862000BBFF00BF3846FFF7C2FF0C2803D200BFD4
:1086300000BF00BFFEE700BF21463046FFF7ACFF9A
:108640003846FFF7D8FE3846BDE8F087014601F10D
:10865000080070472DE9F04106460C46154600BF5C
:108660002046FFF781FE18B900BF00BF00BFFEE73C
:1086700000BF29462046FFF7FFFC78B12946204677
:10868000FFF79AFF07462046FFF782FE3846FFF7BE
:1086900079FF39463046FFF755FE00BFBDE8F0814F
:1086A0002DE9F04106460C46154600BF2046FFF76F
:1086B0005BFE18B100BF00BF00BFFEE700BF294648
:1086C0002046FFF7D9FC88B129462046FFF774FF02
:1086D00007463846FFF75BFF39463046FFF7A5FEF1
:1086E000074639463046FFF72DFE00BFBDE8F08152
:1086F0002DE9F8430646344620F08CFA8046404681
:1087000020F0CDFA78BB30461DF0BDFE38B33046C0
:108710001DF035FD208FE18E884212D0E08E20873B
:10872000E08E00906A461C2130461EF099F90746FB
:10873000012F02D03846BDE8F883304626F0C5FD4B
:1087400000BF404620F0BBFA0546042D06D1304656
:1087500024F01CFC074600211FF04FF809E03046CA
:108760001DF0F4FE05E0FFE7208FE086304626F09E
:10877000ACFD0120DFE72DE9F041044620461EF064
:1087800069F90546284624F05BFC0646284618F0A1
:10879000F9FC07460122394630462BF0C3F8BDE804
:1087A000F0810146C1F3C01070470146C1F380104B
:1087B00070470146C1F3C01070470146C1F3002065
:1087C00070470146C1F3C00070470146C1F3401035
:1087D00070470146C1F3402070470146C1F30030A5
:1087E00070470146C1F30010704700002DE9F04FBB
:1087F00089B004460D460021204624F0BCFA30B969
:108800001C21284622F081FC09B0BDE8F08F2946E2
:10881000204600F00BFB2946204600F07DF80021A1
:10882000204625F0DBFC08900021204625F05CFE68
:1088300007900021204625F091FA012800D100E0A0
:10884000002081460021204626F004F90746002139
:10885000204625F071FB064642F2D170874205D1D1
:10886000608CC0F3802008B9012000E0002082461F
:10887000204624F020FB069000BF4FF0000824485B
:1088800002884146204625F0FFFE03900398C0B2BF
:1088900000BF8346AA6829692868CDE90209CDE9A5
:1088A00000125A465146089B069810F051F9288349
:1088B00042F2D170864205D1608CC0F3402008B9E5
:1088C000012000E000200590204624F0D5FA049015
:1088D00000BF4FF000080F4802884146204625F0AF
:1088E000D3FE03900398C0B200BF83460023EA681A
:1088F00069686869CDE90213CDE900025A46079B11
:10890000DDE9040110F024F9688300BF7CE7000072
:10891000860100208A0100202DE9F34F87B00C4624
:1089200007980EF001FF8046079824F0C4FA0690DD
:10893000404601F0ACFA20612169480022F03AF982
:1089400020602169480022F035F9A060002548E048
:108950005848029038F9150041F69A7188423FD183
:108960000020019029E00199079824F004FA009072
:108970005149009826F017F900B11BE000980EF05D
:10898000F1FE8246BAF1010F00D013E000980EF01C
:10899000D9FE8346AB4500D00CE0009826F09BF84A
:1089A0000299884201DA029802E0009826F093F8D2
:1089B000029000BF0198401C0190079824F0F9F93B
:1089C00001998842CFD80298002804DB0298A16858
:1089D00021F8150003E00021A06820F8151000BF61
:1089E0006D1C2069A842B3D80026B14600251BE0C3
:1089F00038F9150041F69B71884202DB411A0E449A
:108A000011E041F69A71884206D1A16831F815103B
:108A100049440FFA81F906E0A16821F8150009EB35
:108A200000010FFA81F96D1C2069A842E0D80021ED
:108A3000079825F0D3FB05902169491EDDE9050261
:108A400000FB112000B206900698A0EB090007B2C7
:108A5000002F00DA00274FF0FF3004900020039031
:108A6000002513E038F9150041F69B7188420CDBB4
:108A7000421A11B207FB01F2B2FBF6F212B2A3687E
:108A800023F815200495039100BF6D1C2069A842AE
:108A9000E8D8049800280ADB0398301A7843B0FB22
:108AA000F6F0381A01B2A268049822F8101009B042
:108AB000BDE8F08F01E0FFFF010006002DE9FC5F3B
:108AC000054600221146284627F0C4FC002128460E
:108AD00025F0ABF981460021284625F02CFD4844BD
:108AE00007B20021284625F0DDFA48440FFA80FA43
:108AF000284625F099F8384450440FFA80FB3B4E45
:108B0000284624F056F901904FF000085CE0A86870
:108B1000006850F828403649204626F044F800B155
:108B200050E0204626F04EFC002839D10021204696
:108B300025F0ACF80090009830B1012807D0022849
:108B400004D0032815D100E000BF00BF00BFB4F976
:108B50001A10B5F91600081A401CB04201DA304666
:108B600005E0B4F91A10B5F91600081A401C06B24F
:108B700014E00021204625F0A1FF70B904F1140093
:108B800017F07DFB3844B04201DA304604E004F1CE
:108B9000140017F074FB384406B200BF00BF10E0A9
:108BA000B4F91A10B5F91600081A401CB04201DADF
:108BB000304605E0B4F91A10B5F91600081A401C41
:108BC00006B200BF08F10108019880459FD307480D
:108BD000864209D006EB0A0006B25E4502DD304649
:108BE000BDE8FC9F5846FBE75846F9E701E0FFFF68
:108BF000010004002DE9FC5F0546002211462846CD
:108C000027F00CFC0021284625F00FF982460021B0
:108C1000284625F0CDFB50440FFA80F80021284665
:108C200025F01DFB50440FFA80F9284625F00CF87A
:108C30004844404400B20190724C284624F0B9F8F0
:108C400083460021284625F062F8012866D10026D7
:108C50005BE0A868006850F826706B49384625F03C
:108C6000A2FF00B150E0384626F0ACFB002839D115
:108C70000021384625F00AF80090009830B103280A
:108C800005D0062804D0082815D102E000BF00BF97
:108C900000BFB5F91800B7F91410401A401CA042E3
:108CA00001DA204605E0B5F91800B7F91410401AAA
:108CB000401C04B214E00021384625F0F2FE70B9E1
:108CC00007F1140017F04EFB4044A04201DA2046A1
:108CD00004E007F1140017F045FB404404B200BF64
:108CE00000BF10E0B5F91800B7F91410401A401C85
:108CF000A04201DA204605E0B5F91800B7F91410D2
:108D0000401A401C04B200BF761C5E45A1D33D480A
:108D1000844269D004EB090004B265E000265BE000
:108D2000A868006850F826703749384625F03BFFA0
:108D300000B150E0384626F045FB80BB00213846A4
:108D400024F0A4FF0090009830B1012805D0042839
:108D500004D0072815D102E000BF00BF00BFB7F95B
:108D60001800B5F91410401A401CA04201DA204640
:108D700005E0B7F91800B5F91410401A401C04B208
:108D800015E00021384625F099FE78B907F1140066
:108D900017F0E8FA4844A04202DA204605E008E06D
:108DA00007F1140017F0DEFA484404B200BF00BF18
:108DB00010E0B7F91800B5F91410401A401CA04291
:108DC00001DA204605E0B7F91800B5F91410401A89
:108DD000401C04B200BF761C5E45A1D30948844202
:108DE00002D004EB080004B20648844202D1019884
:108DF000BDE8FC9F0198844201DD2046F8E7019818
:108E0000F6E7000001E0FFFF0100040010B5044692
:108E1000206821F04BFF606821F048FFA06821F036
:108E200045FFE06821F042FF10BD00002DE9F34F3F
:108E300087B00C4607980FF021FC8046404601F0B1
:108E400026F860616169480021F0B4FE60606169E4
:108E5000480021F0AFFEE060002548E0594802904C
:108E600038F9150041F69A7188423FD100200190EF
:108E700029E00199079823F07EFF0090524900985D
:108E800025F091FE00B11BE000980FF0BFFC824678
:108E9000BAF1010F00D013E000980FF0A7FC834651
:108EA000AB4500D00CE0009824F07AF80299884293
:108EB00001DA029802E0009824F072F8029000BFF4
:108EC0000198401C0190079823F073FF0199884294
:108ED000CFD80298002804DB0298E16821F8150039
:108EE00003E00020E16821F8150000BF6D1C6069F7
:108EF000A842B3D80026B14600251BE038F915007A
:108F000041F69B71884202DB411A0E4411E041F6A2
:108F10009A71884206D1E16831F8151049440FFA78
:108F200081F906E0E16821F8150009EB00010FFA6C
:108F300081F96D1C6069A842E0D80021079825F0EE
:108F4000D3FA0690079823F097FF01466269521EF4
:108F5000069800FB121000B205900598A0EB0900DE
:108F600007B2002F00DA00274FF0FF3004900020F6
:108F70000390002511E038F9150041F69B718842F5
:108F80000ADB421A11B207FB01F2B2FBF6F212B28F
:108F9000E36823F8152000BF6D1C6069A842EAD879
:108FA000049800280ADB0398301A7843B0FBF6F0E7
:108FB000381A01B2E268049822F8101009B0BDE82E
:108FC000F08F000001E0FFFF010006007CB50446C1
:108FD0000D46164628882189084400B2ADF80000E5
:108FE00068886189084400B2ADF80200A888218928
:108FF000084400B2ADF80400E8886189084400B272
:10900000ADF80600324669462046636998477CBD44
:109010002DE9F04704460D4690469946AD1E606B1B
:1090200000EB153AC5F3C80605F00701012088409A
:10903000C7B200BF51460AF1010A20462DF046FA98
:1090400010B10120BDE8F08700BF00BF04F13C0073
:10905000805D384008B1012000E00020484501D182
:109060000220EFE704F13C00805D784004F13C0110
:1090700088550120E070A8F10100B0F1000800D18E
:10908000E0E77806000E071EE0D10127701C0646B7
:10909000B0F5007FD9D30026CCE70000F8B505462F
:1090A0000E462C46206B10B1206B007818B9606B0F
:1090B00008B90120F8BD606B58B128462BF027F89D
:1090C0000746104909688847616B884201D3002030
:1090D000F0E7206B98B1002000900AE069460A4A48
:1090E000206B126890470746B74201D10120E1E7A3
:1090F00000BF206B0099405C0028EFD1DAE7012027
:10910000D8E70000F4020020E402002070B5044615
:109110000D460020E070401EA063294620462DF039
:10912000D5F908B1042070BD04F23A2015F010FE04
:109130004AF65521884201D00320F4E70B2214A1FE
:1091400004F13C002CF0AAFE08B90120EBE794F8EA
:109150003C00E92807D094F83C00EB2803D094F8B1
:109160003C00E82811D103220CA104F172002CF07C
:1091700095FE08B90020D6E7052209A104F18E006A
:109180002CF08CFE08B90020CDE70220CBE70000D0
:10919000EB7690455846415420202000464154002B
:1091A00046415433320000002DE9FF4F8FB00F4687
:1091B000209DF87800F0010008B1FA4800E0FA4874
:1091C0000E90F87800F0010008B1F84800E0F84887
:1091D0000D90F87800F0010008B9F44800E0F44878
:1091E0000C9001200B90B5E000220B9200206A88C1
:1091F000B5F804C0A2EB0C0211B200261AE006EB8F
:10920000860CEA6802EB8C02127C02F0010242B981
:1092100006EB860CEA6802EB8C029289024410B2DB
:1092200007E006EB860CEA6802EB8C0212898A1AC8
:1092300011B2761C2A69B242E1D8002685E006EB1D
:10924000860CEA6802EB8C02127C02F00102002A12
:109250007AD191FBF0F80FFA88F306EB8609D5F87E
:109260000C8008EB8908B8F80C8008FB03F80FFAAB
:1092700088F206EB8609D5F80C8008EB8908B8F966
:10928000049006EB860AD5F80C8008EB8A08B8F93A
:109290000680904501DD904607E006EB860AD5F88A
:1092A0000C8008EB8A08B8F90680C14508DD06EB9A
:1092B0008609D5F80C8008EB8908B8F9048013E01A
:1092C00006EB8609D5F80C8008EB8908B8F906800A
:1092D000904501DD904607E006EB8609D5F80C8045
:1092E00008EB8908B8F90680C44694450BD04FF0C6
:1092F000010806EB860AD5F80C9009EB8A09C9F833
:109300001080CDF82C8006EB8609D5F80C8008EB90
:109310008908A8F808C006EB8609D5F80C8008EB88
:109320008908B8F80C80A0EB08080FFA88F006EB63
:109330008609D5F80C8008EB8908B8F80880A1EBFD
:1093400008080FFA88F100BF761C2A69B2423FF67E
:1093500076AF00BF0B9800287FF446AF00210F982E
:1093600024F0EFFC012800D100E000200A9000204A
:109370000990089008A809A9CDE9001029890BB225
:10938000B5F9022038781E992DF0D2FDF87800F05A
:10939000010048B10A9838B10F9823F08CFDBDF850
:1093A0002410084400B2099011990F9823F0E3FCAF
:1093B00004468AE17F49204625F0F5FB40B1F87864
:1093C000C0F3800111AA0F980EF093FF04467CE1D0
:1093D0000021204624F086FD07900798002858D0E9
:1093E00000200390002610E006EB8601E86850F8A4
:1093F0002100A04208D106EB8600E96801EB80005D
:10940000B0F90800039003E0761C2869B042EBD85D
:1094100000BFF87800F0010030B1608C20F480606B
:1094200000F58060608405E0608C20F4007000F539
:109430000070608404F114000D99884703998842F4
:1094400026D0204625F041FF00BFA08AADF80400D9
:10945000E08AADF80600208BADF80800608BADF80F
:109460000A0000BF04F114000E9A0399904701AA64
:10947000292120461DF0F4FA204623F0E1FD224682
:10948000222100901DF0ECFA204625F01EFF00BFBF
:1094900007E0608C20F480606084608C20F40070B1
:1094A0006084002006907878012812D0022819D113
:1094B00004F114000C998847B5F90010491C21F0FB
:1094C0000101081A039000EBD070401000B2069022
:1094D00009E004F114000C9988472988081A00B2A1
:1094E000069000E000BF00BFF87800F0010050B126
:1094F0000A9840B104F114000D998847BDF8241072
:10950000081A00B209900020039043F20C02204692
:10951000039925F0B9F8029002980FFA80F800BF7D
:109520000020039043F20D022046039925F0ACF889
:10953000029002980FFA80F900BF204625F0CBFA7E
:109540000590204623F02CFD049008F4C040B0F5AF
:10955000005F01D1012000E0002030B128F4C040BC
:10956000B0F5FA6F01DC012000E0002090B128F492
:10957000C040B0F57A7F04DD28F4C040C0F57A70B1
:1095800001E028F4C04005994843642190FBF1F0C4
:109590000FFA80F809F4C040B0F5005F0CD101204B
:1095A0000BE00000A304020897040208E30302088A
:1095B000D302020801000600002030B129F4C040A7
:1095C000B0F5FA6F01DC012000E0002090B129F431
:1095D000C040B0F57A7F04DD29F4C040C0F57A7050
:1095E00001E029F4C04004994843642190FBF1F064
:1095F0000FFA80F9A18A1C98401A40440FFA80FAA9
:10960000E18A1D98401A48440FFA80FBF87800F070
:10961000010010B1BDF9240000E0069850440FFA93
:1096200080FAF87800F0010008B1069801E0BDF971
:10963000240058440FFA80FBBAF1000F02D1BBF1AD
:10964000000F1BD0204625F040FEA08A504400B2F7
:10965000A082208B504401B22183E08A584401B299
:10966000E182608B584401B26183204625F02DFED3
:1096700001235A465146204625F004FFF87800F0B1
:10968000010008B10A9870B904F114000D998847D7
:109690001F990844BDF820100844BDF82410084460
:1096A00000B2099008E0BDF820101F980844BDF8EA
:1096B0002410081A00B20990F878C0F3800111AAAA
:1096C0000F980EF016FE044600BF24B1DDE911101C
:1096D00081427FF46FAE13B0BDE8F08F024600E028
:1096E000521C107810B110788842F9D11078704768
:1096F0002DE9F04F8DB005468946B9F1000F02D132
:109700000DB0BDE8F08FA5F81890286810B1286852
:1097100021F0E4FA09EB4901062202EB410021F0B5
:109720000FFA286000BF286818B900BF00BF00BF4B
:10973000FEE700BF286868600221286801FB090075
:10974000801CE8600421286801FB0900001DA86056
:10975000B9F1010F0CD1B420696808700020E968E4
:1097600008800120E96848800020A9680880C7E7D0
:1097700009F10101C80021F01DFA074609F10100B5
:1097800007EB80084FF0000A4FEA890002B20BA9EC
:109790000CA800F067F90024BDF930008010079094
:1097A00000200390CCE0002616E00BA90CA800F0E6
:1097B00061F90CA800F04BF900B90FE0BDF93000D9
:1097C000801007A941F82600BDF8300000F0030022
:1097D00003A941F82600761C042EE6DB00BF042E08
:1097E00000D0B3E00A990798884219D1079800B2CF
:1097F00027F814000FFA8AF028F81400DDE90301B5
:109800000844059908440699084469680855686839
:10981000005D0007000E69680855601C04B28DE009
:10982000DDE9070188422CD0079800B227F8140020
:109830000FFA8AF028F814000398696808556868D8
:10984000005D0007000E69680855601C04B20798A7
:10985000401E00B227F814000FFA8AF028F814000E
:109860000498001D0599084406990844696808553C
:109870006868005D0007000E69680855601C04B246
:109880005CE00999079888422CD0079800B227F825
:1098900014000FFA8AF028F81400DDE903010844E7
:1098A000696808556868005D0007000E696808551A
:1098B000601C04B20798401E00B227F814000FFA8B
:1098C0008AF028F814000598083006990844696859
:1098D00008556868005D0007000E69680855601C3F
:1098E00004B22BE0079800B227F814000FFA8AF0B0
:1098F00028F81400DDE90301084405990844696863
:1099000008556868005D0007000E69680855601C0E
:1099100004B20798401E00B227F814000FFA8AF02C
:1099200028F8140006980C30696808556868005DCE
:109930000007000E69680855601C04B20AF1010AAC
:109940000CA800F084F800287FF42DAF00BF40F28F
:10995000D32109FB01F00290029880120190601E51
:1099600037F910100198814205D1601E38F91010A6
:109970000198814226D0DDE90121A1EB8220B0F5DA
:10998000007F04DC00FB00F14800001407E0C0F594
:10999000806000FB00F148000014C0F10F00019945
:1099A00009B227F81410019909B228F814106A684E
:1099B00010556968095D0907090E6A681155611C2F
:1099C0000CB200BFA61E0EE038F8160027F81400EF
:1099D00037F8160028F814006868805D6968085533
:1099E000761E601C04B2002EEEDA4FF0000B00264B
:1099F0000020E968088023E0E96821F81B6037F857
:109A00001600A96821F81B0010E0A86830F81B00B8
:109A100037F91610884203DAA86830F81B0001E015
:109A200037F91600A96821F81B00761C38F91600D2
:109A3000584501D1A642E8DB0BF101000FFA80FB8B
:109A4000A642D9DB384621F031F900BF58E601467D
:109A5000B1F90200B1F90020904201DC0120704709
:109A60000020FCE7028000234380C2F101031BB207
:109A70000B807047B1F90020002A07DC0B88428870
:109A80005200D21C1A4412B20A800CE042880388A9
:109A9000D21A5200521D0B881A4412B20A80028850
:109AA000521E12B202804288521C12B2428070478B
:109AB0002DE9F84F824615461E46DAF80000009060
:109AC000DAF8500000F104094FF400720023284630
:109AD0003146F6F766FC07460098B0F80AC06246C1
:109AE00000233846F6F75DFC834600BF59F8044B67
:109AF00014B90020BDE8F88FA34500D204E0ABEB19
:109B0000040B09F10409F1E700BFD9F8000058443B
:109B1000F0E70246891ED069801E884201D80020E5
:109B200070475389106B03FB0100F9E72DE9F047FB
:109B300080460C4604F11A0015F00AF910B1002015
:109B4000BDE8F087207800F03F00401E00EB800168
:109B500001EBC0054FF00109002621E01849895D9D
:109B6000081915F0F5F80746B9F1000F11D0FF2DCF
:109B70000BD838460BF02AFE824629466D1C38F871
:109B800011000BF023FE824501D00020D8E7B94632
:109B900005E04FF6FF70874201D00020D0E7761C29
:109BA0000D2EDBD3207800F0400038B1B9F1000F62
:109BB00004D038F8150008B10020C1E70120BFE744
:109BC0006C27050837B582B01546022D04DCBDF8B8
:109BD0000C10084605B030BDBDF80C00C00ABDF839
:109BE000081000EBD1241F2C01D2204600E01F20DA
:109BF000BDF8081060F3CF210291BDF80C00C0F34E
:109C00004510BDF80810C1F3451144183F2C01D28E
:109C1000204600E03F20BDF8081060F34A11029191
:109C2000BDF80C0000F01F00BDF8081001F01F0186
:109C300044181F2C01D2204600E01F20BDF8081058
:109C400060F304010291FF2D03D1BDF8081008460E
:109C5000C0E72A46DDE9020118F09CFC0190BDF83E
:109C600004100846B6E717B581B01446022C04DC90
:109C7000BDF80810084604B010BDBDF80400C00AC5
:109C8000BDF80810C90A10FB01F04109BDF8040035
:109C900061F3CF200190BDF8040000F01F00BDF873
:109CA000081001F01F0110FB01F04109BDF804008C
:109CB00061F304000190BDF80400C0F34510BDF845
:109CC0000810C1F3451110FB01F08109BDF8040033
:109CD00061F34A100190FF2C03D1BDF8041008462F
:109CE000C9E72246DDE9010118F054FC0090BDF8F7
:109CF00000100846BFE737B582B01546022D04DCD8
:109D0000BDF80C10084605B030BDBDF80C00C00A07
:109D1000BDF80810A0EBD124002C01DD204600E0A6
:109D20000020BDF8081060F3CF210291BDF80C00AF
:109D3000C0F34510BDF80810C1F34511441A002CBA
:109D400001DD204600E00020BDF8081060F34A1154
:109D50000291BDF80C0000F01F00BDF8081001F0E2
:109D60001F01441A002C01DD204600E00020BDF850
:109D7000081060F304010291FF2D03D1BDF8081013
:109D80000846C0E72A46DDE9020118F003FC01900D
:109D9000BDF804100846B6E708B5034600930098DE
:109DA000484080EA620008BD2DE9F84F80464046F1
:109DB0001CF050FE824640461CF0EBFD0646504625
:109DC00023F03EF981462B2E09D1484629F09DFD0E
:109DD000044600222146484629F0A4FD3AE00A2E16
:109DE00038D16946504623F0ADF9504623F063F868
:109DF00004460021484623F0BEFF01280AD1204630
:109E000004EBD071BDF90020C2EB610191FBF4F1CC
:109E10000DB209E0204604EBD071BDF9002002EB41
:109E2000610191FBF4F10DB2002D00DA002500274D
:109E3000484629F06AFDA84200D0012701222946A0
:109E4000484629F06FFD27B100221C2148461CF02E
:109E500007FE00BFBDE8F88F10B58060C06000232A
:109E60000361002110E0002400F1140343F82140B5
:109E7000002206E000F13C0303EBC11343F822008B
:109E8000521C202AF6DB491C0A29ECDB10BD0146D6
:109E9000002000E0401C31F9102041F6FF739A4287
:109EA000F8D170472DE9F04706468A463468BAF182
:109EB000000F0AD1D4F81480B8F1000F02D0E06985
:109EC000404516D84FF0010813E0514630460DF0DA
:109ED00080FC0746022F02D20120BDE8F087781CE3
:109EE00008B93846F9E7E069B84201D93846F4E7DD
:109EF000D046A06908B90020EFE7207804284ED1A9
:109F00000122414620460BF0ABFF05460DB1681C0F
:109F100008B92846E1E701231A4629462046FFF7FB
:109F200077F88146B9F1020F01D10120D5E7B9F1E7
:109F3000010F02D14FF0FF30CFE7BAF1000F02D18D
:109F40000220F0710CE0F079022809D108F101003B
:109F5000854205D0B068A8EB0000B0610320F07125
:109F6000F079022869D00AF10100854207D1F06931
:109F700010B1F069401C00E00220F0615DE0F06982
:109F800008B90120F0612A46514630460BF043FDE6
:109F90008146B9F1000F50D10120F0614DE000255C
:109FA000D04519D108F10105E069A84200D8022581
:109FB000294630460DF00DFC0746012F01D0781CD4
:109FC00008B9384689E73FB16769022F03D3E069D2
:109FD000B84200D9B8460025E5B9454600BF6D1C1A
:109FE000E069A84204D80225454501D9002074E75C
:109FF000294630460DF0EDFB074607B909E0012F71
:10A0000001D0781C08B9384667E74545E7D10020FC
:10A0100063E700BF4FF0FF32294620462DF01DFEBA
:10A020008146B9F1000F08D1BAF1000F05D02A46D8
:10A03000514620462DF011FE8146B9F1000F0DD199
:10A040006561D4E90610801E814202D8A069401ED5
:10A05000A061207940F00100207107E0B9F1010F03
:10A0600002D14FF0FF3000E001200546284634E7DA
:10A070002DE9F74F86B00D46164689E0112E03D222
:10A08000062009B0BDE8F08F113E15F801AB0AF0CB
:10A09000EE0008B10620F4E74FEA2A190AF00F0093
:10A0A000039010210698FDF7FCFB8046B8F1000FE5
:10A0B00001D10320E5E706982030039900EBC100A9
:10A0C00040F8298000200446074605E015F8011BEA
:10A0D00008F804100F44641C102CF7D3790006987C
:10A0E000FDF7DFFB0190019808B90320C9E7069846
:10A0F0003030039A00EBC200019940F8291000208B
:10A100000290044605901AE018F8040004900AE052
:10A110000598421C02990592019A22F810100298A3
:10A12000401C80B202900498411E04910028EFD197
:10A130004FF6FF71029801EA40000290641C102C57
:10A14000E2D3BE4201D206209BE7F61B39460698B1
:10A15000FDF7A7FB8346BBF1000F01D1032090E779
:10A1600006984030039900EBC10040F829B0002464
:10A170000CE015F801ABB9F1000F04D1BAF10B0FE7
:10A1800001DD06207DE70BF804A0641CBC42F0D37F
:10A19000002E7FF473AF002073E700002DE9F34F2A
:10A1A00085B08146069800680290D9F80000D0F882
:10A1B0000CA0002500BF02A831F07CFC83460BF107
:10A1C000010018B9062007B0BDE8F08FBBF5803F4D
:10A1D00005D34FEA1B4228466D1C2AF810201FFAAF
:10A1E0008BF4202C03DB2F2C01D05C2C00D111E050
:10A1F000802C06DA214679A0FFF770FA08B1062014
:10A20000E1E7FF2D01D30620DDE728466D1C2AF883
:10A210001040D0E700BF202C01DA04260CE0002615
:10A2200002E00298401C0290029800782F28F8D093
:10A23000029800785C28F4D002990698016008E042
:10A24000681E3AF81040202C02D02E2C00D002E0DC
:10A250006D1E002DF4D100BF00202AF815000DB9A5
:10A260000620B0E7002700E07F1C3AF817002028FE
:10A27000FAD01FB93AF817002E2801D146F003068C
:10A2800000E06D1E25B1681E3AF810002E28F8D1A6
:10A290000B22202109F140002BF01FFE4FF0000897
:10A2A000CDF810800820039000BF38467F1C3AF894
:10A2B000104004B966E0202C03D02E2C04D1AF420C
:10A2C00002D046F00306F0E7DDE90310884201D230
:10A2D000AF4216D103980B2802D146F0030651E095
:10A2E000AF4201D046F00306AF4200D94AE02F4604
:10A2F000082004900B2003904FEA88604FEA106812
:10A30000D3E7802C0ADB46F0020620460BF05EFA0B
:10A310004FF46A7101900BF01FFA0446FF2C11DD17
:10A320000398401E0499884204D846F00306039817
:10A330000490BAE722120498411C049109F14001EB
:10A340000A5418E024B1214627A0FFF7C7F918B135
:10A350005F2446F003060EE0412C03DB5A2C01DC9F
:10A3600048F00208612C06DB7A2C04DC48F0010876
:10A37000A4F1200084B20498411C049109F1400129
:10A380000C5492E700BF99F84000E52802D105205F
:10A3900089F840000398082803D14FEA88604FEA03
:10A3A000106808F00C000C2803D008F00300032804
:10A3B00001D146F0020606F0020048B908F001009B
:10A3C00008B146F0100608F0040008B146F008068F
:10A3D0004B2000F809600020F5E60000222A3A3CF4
:10A3E0003E3F7C7F000000002B2C3B3D5B5D00006E
:10A3F0002DE9F04782460C4616462BE0412E02D24C
:10A400000620BDE8F087413E14F8019B09F0F000FA
:10A4100008B10620F5E709F003074FF480715046B4
:10A42000FDF73FFA05460DB90320EAE70AF15000AF
:10A4300040F8275000270BE0084810F8078014F870
:10A44000010B074931F81810484345F828007F1CD4
:10A45000402FF1D3002ED1D10020D2E7AC22050845
:10A46000EC2205082DE9F04704460E464022002163
:10A4700020462BF032FD85202070C02084F820007B
:10A4800040250020804607464FF0010900BFC12249
:10A4900028466D1C2254002228466D1C225400BF01
:10A4A000B9F1000F06D036F81700B0F1000901D05D
:10A4B000781CC7B2601949462FF07AFAAD1C05F036
:10A4C0001F000028ECD108F1010000F0FF0836F869
:10A4D00017000028DBD184F8237008F101006070B8
:10A4E000304635F0FEF88246514604F124002FF044
:10A4F0005FFABDE8F087000010B500BF00224FF4FE
:10A5000000611148F7F7D6FC00BF00F021F800BF4A
:10A51000012211460D48F7F7CDFC00BF00F018F8F6
:10A5200000BF002201210948F7F7C4FC00BF00F07A
:10A530000FF800BF0122D1020348F7F7BBFC00BFB0
:10A5400000F006F810BD00000014024000040240B4
:10A5500010B5022001F0AAF810BD000000B587B0C8
:10A5600000BF00BF002001901A48006840F00200C0
:10A57000184908600846006800F00200019000BF1A
:10A5800000BF00BF00BF00BF002001900846006868
:10A5900040F0200008600846006800F020000190AC
:10A5A00000BF00BF00BF01200290112003900120D6
:10A5B00004900320059002A90748F7F767FB4FF4C2
:10A5C0000060029002A90548F7F760FB00F0BEF8B2
:10A5D00007B000BD303802400004024000140240C1
:10A5E00010B500BF0122D1020C48F7F763FC00BF91
:10A5F000FFF7AEFF00BF012211460948F7F75AFCEA
:10A6000000BFFFF7A5FF00BF002201210448F7F7B4
:10A6100051FC00BFFFF79CFF10BD0000001402407A
:10A620000004024070B50546002400261DE06006C7
:10A63000040E00BF012211461148F7F73BFC00BF92
:10A64000FFF786FF4FF400610E48F7F721FC08B1D1
:10A65000601CC4B200BF002201210948F7F72AFCA0
:10A6600000BFFFF775FF701CC6B2082EDFDB15B9FF
:10A67000FFF7B6FF01E0FFF73FFF204670BD000087
:10A68000000402400014024070B50446002525E095
:10A6900000BFE00928B10122D1021548F7F70AFCF2
:10A6A00005E000224FF400611148F7F703FC00BFFA
:10A6B000FFF74EFF00BF012211460E48F7F7FAFBE5
:10A6C00000BFFFF745FF00BF002201210948F7F74F
:10A6D000F1FB00BF6006040E681CC5B2082DD7DB75
:10A6E00000BF0122D1020248F7F7E4FB00BF70BDB2
:10A6F000001402400004024010B500BF0122D10244
:10A700001048F7F7D7FB00BF00BF012211460E48E3
:10A71000F7F7D0FB00BFFFF71BFF00BF00224FF48D
:10A7200000610848F7F7C6FB00BFFFF711FF00BF45
:10A73000002201210448F7F7BDFB00BFFFF708FF27
:10A7400010BD0000001402400004024010B500BF1C
:10A7500000224FF400610C48F7F7ACFB00BFFFF795
:10A76000F7FE00BF012211460848F7F7A3FB00BF20
:10A77000FFF7EEFE00BF0122D1020348F7F79AFB74
:10A7800000BFFFF7E5FE10BD0014024000040240C8
:10A7900070B50024002500BF0122D1021648F7F74A
:10A7A00089FB00BFFFF7D4FE00BF0122114613480A
:10A7B000F7F780FB00BFFFF7CBFE09E0601CC4B2D7
:10A7C000FA2C03DDFFF7C2FF012508E0FFF7C0FE0A
:10A7D0004FF400610848F7F75BFB0028EED100BF9B
:10A7E00000BF002201210548F7F764FB00BFFFF717
:10A7F000AFFE284670BD0000001402400004024075
:10A800007CB506460D4634465020005D00F0010040
:10A81000A84233D00DB1012000E000205021095D95
:10A8200060F300015020015504F14401684615F021
:10A8300016FDBDF80000616A898A084400B2ADF8CF
:10A840000000BDF80210606AC08A084400B2ADF88A
:10A850000200BDF80400616A898A084400B2ADF8BC
:10A860000400BDF80610606AC08A084400B2ADF862
:10A8700006006946304624F062FD00BF7CBD37B556
:10A8800082B0054614462146039817F00DFD01904D
:10A89000BDF80410084605B030BD000001460B4865
:10A8A000007888420FDC09484078884201DB0120AB
:10A8B000704706488078884205DC0448C0788842A2
:10A8C00001DB0120F4E70020F2E70000792705080A
:10A8D000014610480079884219DC0E4840798842C8
:10A8E00001DB012070470B488079884205DC09486C
:10A8F000C079884201DB0120F4E70648007A8842EB
:10A9000005DC0448407A884201DB0120EAE70020A8
:10A91000E8E70000792705082DE9FF4F8DB00546CF
:10A920000E461446F07A022803DC012011B0BDE87F
:10A93000F08F3089326901460C901098FBF750FB7C
:10A9400007460FB90020F1E7397D01F01F001DF027
:10A9500030F910B14FF006080AE0397D01F01F0010
:10A960001DF00AF910B14FF0050801E04FF004089E
:10A97000386A38B100BF00BF214628463A6A2EF037
:10A980003AFEDEE0B869002859D021460BA815F040
:10A9900030FC308818B97088B0F5807F32D02046FE
:10A9A00015F00AFD834600BFE0886188401A401C0C
:10A9B00000B20890301D7188CDE90010308803B2D4
:10A9C00059460BA8089AFAF735FEBDF82C002188E5
:10A9D000084400B2ADF82C00BDF82E006188084490
:10A9E00000B2ADF82E00BDF830002188084400B256
:10A9F000ADF83000BDF832006188084400B2ADF80F
:10AA0000320000BF0BAA09A8A968FAF71DFB81460E
:10AA1000B9F1000F04D1384602F07DFE012085E730
:10AA2000D5F808A009A8A860CDF8008022463146D4
:10AA30002846BB6918F07AFEC5F808A081E02246D6
:10AA40000BA8A968FAF700FB0A900A9820B93846C3
:10AA500002F061FE012069E70BA815F0ADFC09903A
:10AA60000BA815F0A9FC00EB4000039020F0A2F821
:10AA70008146D5F808A00BA907A815F0BAFB01215B
:10AA800007A815F008FDBDF92C00B4F90010401A14
:10AA90000690BDF92E00B4F90210A0EB010BBDF930
:10AAA0002E00059042E007AA514602A8FAF7CCFA18
:10AAB0000A900A9800B936E0CDF80090099803B2E0
:10AAC0000FFA8BF2069801B238461DF09FFD0490F4
:10AAD000049801280ED038461DF0B8FC00BF00BF16
:10AAE000484620F0E3F8384602F015FEC5F808A005
:10AAF00000201BE702A8A8604B4607AA314628465B
:10AB0000CDF8008018F012FEBDF81E00401C00B207
:10AB1000ADF81E00BDF82200401C00B2ADF82200C6
:10AB20000BF1010B00BF0598401C0590BDF93210D8
:10AB300005988142B7DAC5F808A0484620F0B6F873
:10AB400000BF384602F0E7FD0120EFE670B506468B
:10AB50000D466C6A04B970BD287C58B101280DD12E
:10AB6000606B18B104F134001CF0EAF8204626F0BE
:10AB70006BFF04E0204626F067FF00E000BF00BF47
:10AB800000BFE8E72DE9F04FADB00E461446304661
:10AB90001DF0E0FF80464FF00109B8F1000F79D1B8
:10ABA000B568D6F804B00722A5A12846F5F779FEC6
:10ABB00068BB0E35206820F0E0002060206820F09F
:10ABC0001F00401C206015F8011B206861F39420D1
:10ABD000206015F8011B2068800A40EA01212068E6
:10ABE00061F39420206015F8011B206861F35F5029
:10ABF000206015F8011B0802216840EA51512068C5
:10AC000061F35F50206048462DB0BDE8F08F2846C4
:10AC100010F0A2F901283BD1206820F0E00020606C
:10AC2000206820F01F00401C20604FF480501FF06F
:10AC300087FF07460FB90020E6E700208DF88C005B
:10AC40002A95CDF8ACB02C9023A84FF480533A4607
:10AC50007D49009005A810F00CFC8246BAF1000F67
:10AC60000CD1BDF83010206861F394202060BDF84D
:10AC70003210206861F35F50206003E04FF000095C
:10AC800001E007E000BF384620F028F84846BBE75F
:10AC900000BFD3E0B8F1010FFBD137463846F5F7D6
:10ACA000E1FD401FC51969A12846F5F70DFF0028F1
:10ACB0006DD1182127A8F5F7E0FE0222394624A815
:10ACC0001CF0EEF88246BAF1000F01D04E209BE74F
:10ACD00023AB082227A924A81CF02DF98246BAF13B
:10ACE000000F02D12398082804D024A81CF028F8CB
:10ACF000002089E752A127A8F5F7E6FE002845D1F4
:10AD000000220E2124A81CF0F2F923AB042227A96B
:10AD100024A81CF010F98246BAF1000F02D1239842
:10AD2000042804D024A81CF00BF800206CE720684D
:10AD300020F0E0002060206820F01F00401C206010
:10AD400027AD15F8011B206861F39420206015F8E9
:10AD5000011B2068800A40EA0121206861F39420E9
:10AD6000206015F8011B206861F35F50206015F822
:10AD7000011B0802216840EA5151206861F35F50CD
:10AD8000206024A81BF0DCFF01203DE755E0384699
:10AD9000F5F768FD001FC5192EA12846F5F794FEAA
:10ADA00000284AD1022239462AA81CF079F88346A5
:10ADB000BBF1000F01D04E2026E74FF480501FF06A
:10ADC000BFFE054625B92AA81BF0BAFF00201BE7E5
:10ADD00001208DF880000020299024902AA807C81F
:10ADE00021AB07C320A84FF480532A461649009090
:10ADF00002A810F03EFB824628461FF06FFF2AA8EB
:10AE00001BF09EFFBAF1000F16D1206820F0E00081
:10AE10002060206820F01F00401C2060BDF8241036
:10AE2000206861F394202060BDF82610206861F34B
:10AE30005F5020600120E7E600BF00BF0020E3E68E
:10AE40005F534A50475F5F00E1A901082E736A70A3
:10AE5000670000002E6A7067000000002DE9F04FC7
:10AE6000ADB00D4601202C90287C00287CD16C6A66
:10AE70009CB958201FF064FE04461CB900202DB078
:10AE8000BDE8F08F58212046F5F7F7FD6C62686841
:10AE9000806820606868406860600722FBA12068C5
:10AEA000F5F7FFFC002871D126680E3616F8010B65
:10AEB000A06016F8011BA06840EA0120A06016F807
:10AEC000010BE06016F8011BE06840EA0120E06039
:10AED00016F8010B206116F8011B206940EA0120D9
:10AEE000206116F8010B606116F8011B606940EAE9
:10AEF00001206061216988001FF022FEE061E069A5
:10AF000028B9204626F0A0FD00240020B7E7002045
:10AF10002062206906EB4007E069076001200DE030
:10AF200016F8011B16F8013B41EA0321421EE369B2
:10AF300053F822200A4443F82020401C2169814212
:10AF4000EEDC4FF0FF30A0616269A168514301EB74
:10AF500041001FF0F5FD6062606A30B9204626F0BE
:10AF600073FD002400208AE7B0E0616A2164A168D3
:10AF700061644FF480501FF0E3FDA062A06A30B915
:10AF8000204626F061FD0024002078E713E07820B9
:10AF90001FF0D6FDE062E06A28B9204626F054FD95
:10AFA000002400206BE7002084F83000002161635A
:10AFB000A8612C9863E720680FF0CEFF012872D1BA
:10AFC00000031FF0BDFD07462FB9204626F03CFDCB
:10AFD0000024002053E700208DF888002068299085
:10AFE00060682A9000202B9022A84FF480533A46A4
:10AFF000A849009004A810F03CFA804638461FF09B
:10B000006DFEB8F1000F57D1BDF82C00A060BDF85F
:10B010002E00E06001202061BDF82E0060612169F2
:10B0200088001FF08DFDE061E06928B9204626F018
:10B030000BFD0024002022E700202062D4F80090BD
:10B04000E069C0F800904FF0FF30A0616269A1682C
:10B05000514301EB41001FF073FD6062606A28B943
:10B06000204626F0F1FC0024002008E7616A2164F4
:10B07000A16861644FF480501FF062FDA062A06A75
:10B0800028B9204626F0E0FC00240020F7E67820CE
:10B090001FF056FDE062E06A30B9204626F0D4FC8D
:10B0A00000240020EBE60FE0002084F830000021AF
:10B0B0006163A8612C98E2E600202C9000BF38461E
:10B0C0001FF00CFE2C98DAE600BFC9E1287C0128AD
:10B0D000FBD16F683846F5F7C5FB401FC4196EA158
:10B0E0002046F5F7F1FC002874D1182126A8F5F7C1
:10B0F000C4FC0222394623A81BF0D2FE8146B9F1D6
:10B10000000F01D04E20BAE622AB162226A923A8B2
:10B110001BF011FF8146B9F1000F02D122981628C9
:10B1200004D023A81BF00CFE0020A8E657A126A8F7
:10B13000F5F7CAFC00287DD16C6AA4B958201FF02D
:10B14000FFFC044624B923A81BF0FAFD002096E674
:10B1500058212046F5F791FC6C6268688068206091
:10B1600068684068606026AE0E3616F8010BA06075
:10B1700016F8011BA06840EA0120A06016F8010B38
:10B18000E06016F8011BE06840EA0120E06016F874
:10B19000010B206116F8011B206940EA01202061A3
:10B1A00016F8010B606116F8011B606940EA012086
:10B1B00060610020E061216988001FF0C1FC20620D
:10B1C000206A40B923A81BF0BBFD204626F03CFCBA
:10B1D000002054E67FE01621206901EB400A206A36
:10B1E000C0F800A04FF0010822E022AB022226A9FD
:10B1F00023A81BF0A0FE8146B9F1000F02D12298CE
:10B20000022804D023A81BF09BFD002037E626AEC1
:10B2100016F801BB16F8011B4BEA012BA8F101003F
:10B22000216A51F82000584441F8280008F101082B
:10B23000206900E04EE04045D7DC4FF0FF30A061D0
:10B240006269A168514301EB41001FF079FC606223
:10B25000606A38B923A81BF073FD204626F0F4FB82
:10B2600000200CE6616A2164A16861644FF480509B
:10B270001FF066FCA062A06A90B923A81BF060FDD5
:10B28000204626F0E1FB0020F9E500005F534A501C
:10B29000475F5F00E1A901082E736A706700000034
:10B2A00078201FF04DFCE062E06A38B923A81BF05B
:10B2B00047FD204626F0C8FB0020E0E5012084F889
:10B2C000300023A90EC9C4E90E2361630020A861E0
:10B2D0000120D4E5C3E03846F5F7C4FA001FC419CD
:10B2E00060A12046F5F7F0FB0028F3D10222394691
:10B2F00029A81BF0D5FD8346BBF1000F01D000202B
:10B30000BDE56C6AA4B958201FF01AFC044624B9A4
:10B3100029A81BF015FD0020B1E558212046F5F7BE
:10B32000ACFB6C6268688068206068684068606038
:10B330004FF480501FF004FC8046B8F1000F07D195
:10B3400029A81BF0FDFC204626F07EFB002096E598
:10B3500001208DF87C0000202890239029A807C8A0
:10B3600020AB07C31FA84FF4805342463F490090CB
:10B3700001A810F07EF8814640461FF0AFFCB9F1FD
:10B38000000F62D1BDF82000A060BDF82200E0608F
:10B3900001202061BDF8220060610020E061216988
:10B3A00088001FF0CDFB2062206A38B929A81BF065
:10B3B000C7FC204626F048FB002060E54FF0000A5D
:10B3C000206AC0F800A04FF0FF30A0616269A16858
:10B3D000514301EB41001FF0B3FB6062606A38B972
:10B3E00029A81BF0ADFC204626F02EFB002046E5E8
:10B3F000616A2164A16861644FF480501FF0A0FB72
:10B40000A062A06A38B929A81BF09AFC204626F051
:10B410001BFB002033E578201FF092FBE062E06A1E
:10B4200038B929A81BF08CFC204626F00DFB002023
:10B4300025E5012084F8300029A90EC9C4E90E23AE
:10B4400061630020A861012019E5686A10B1686A8B
:10B450001FF044FC29A81BF073FC00200FE500BF7F
:10B4600000200CE52E6A706700000000E1A90108C9
:10B470002DE9FF4F83B00E461F46DDF84490307C27
:10B48000002873D1746A606997FBF0F8A0694045A1
:10B4900037D0E06950F82810E1642069401E40452B
:10B4A00006D12268E16C881A61680A1A226507E0F1
:10B4B00008F10100E16951F82010E06C091A2165DA
:10B4C0000021616504F1300000904FF480535F4922
:10B4D000D4E90A200FF0CDFF8246BAF1000F03D065
:10B4E000002007B0BDE8F08F00225949E06A0FF054
:10B4F0006FFF8246BAF1000F01D00020F1E7C4F8D7
:10B5000018804FF0000B606997FBF0F100FB1170A1
:10B51000A168484300EB4001626A059800EB4000D7
:10B5200010440D1800211BE015F8013B03F0F80250
:10B53000100215F8013B03F0FC0240EAC20015F8C6
:10B54000013B40EAE3005A460BF1010B09F8020007
:10B550004FEA202C5A460BF1010B09F802C0491C96
:10B5600010988142E0DB0120BBE7FFE7307C012837
:10B5700067D1746A606997FBF0FA04F134000290B5
:10B58000029800B95FE0A069504526D0206A50F8C3
:10B590002A106165002204F13400616D1BF0A7FDE3
:10B5A00004F1300000904FF480532849D4E90A2078
:10B5B0000FF05FFF8046B8F1000F01D0002090E748
:10B5C00000222349E06A0FF003FF8046B8F1000F24
:10B5D00001D0002085E7C4F818A04FF0000B606987
:10B5E00097FBF0F100FB1170A168484300EB4001AC
:10B5F000626A059800EB400010440D1800211BE022
:10B6000015F8013B03F0F802100215F8013B03F0B6
:10B61000FC0240EAC20015F8013B40EAE3005A464A
:10B620000BF1010B09F802004FEA202C5A460BF1EE
:10B63000010B09F802C0491C10988142E0DB01208F
:10B640004FE700BF00BF00204BE70000E1A9010861
:10B650005998010800BF00BF7047000070B504464C
:10B660000420F8F72FF80A48046025464FF47A7052
:10B6700045434FF0E020006940F002004FF0E02128
:10B68000086108464561006940F00100086170BD2D
:10B690001000002030B50446002504E04FF47A7015
:10B6A00000F004F86D1CA542F8D330BD70B5034618
:10B6B00000224FF0E02675690D4E366803FB06F454
:10B6C0004FF0E026B16910E04FF0E026B069884203
:10B6D0000BD0884202D20E1A324402E02E1A0E44D7
:10B6E00032440146A24200D300E0EDE700BF70BD46
:10B6F000100000202DE9F04104460E46D4F80080E9
:10B700000021204600F06EFB05465DBB002700BF10
:10B710004046A16B2AF0DAFE054605B121E098F813
:10B720000000042805D1E06B0078012121EAD01047
:10B7300009E0E06B0078E52802D0E06B007808B9FA
:10B74000012000E0002020B1781C0746B04201D162
:10B7500007E000270121204600F041F90546002DB1
:10B76000D6D000BF042D00D107252846BDE8F081C2
:10B770002DE9F04704468946204630F00FF910B114
:10B780000120BDE8F08749462046FEF7C2F907468A
:10B79000A7634FF40072002104F13C002AF09DFBE6
:10B7A00060894FF40041B1EB402F01D8084601E019
:10B7B0006089400206464FF0000800E07608B6F5C2
:10B7C000007F05D9304609F085FFB0F10008F5D0BB
:10B7D000B6F5007F17D93246002140462AF07DFB9E
:10B7E000760A002500E035446089A84207D97A1915
:10B7F00060783346414600F0FDFB0028F3D0404618
:10B8000009F06FFF10E004F13C080126002500E07C
:10B8100035446089A84207D97A1960783346414691
:10B8200000F0E8FB0028F3D06089A84201D0012095
:10B83000A7E70020A5E72DE9F04F85B0044625686D
:10B840000021204600F0CEFA07461FB1384605B069
:10B85000BDE8F08F287804284CD1E86833F041FF28
:10B8600001903EE0296901F1240013F071FA019979
:10B87000884200D035E0286990F8230003904FF00B
:10B88000400A002002901FE00AF01F0008B90AF1E8
:10B89000020A296901EB0A0013F05AFA009009F034
:10B8A00095FF8346EA68029932F8110009F08EFF8D
:10B8B000834500D00BE00398401EC0B203900AF10C
:10B8C000020A0298401C029003980028DCD100BFB5
:10B8D000039828B9E968029831F8100000B906E029
:10B8E00000BF0021204600F0EAF8071EBAD000BFD2
:10B8F0003846ACE74FF0FF09CDF810904FF0FF301D
:10B90000E06400BF2846A16B2AF0E0FD074607B1BE
:10B9100062E0E06B06780EB904275DE0E06BC07A68
:10B9200000F03F0884F80680E52E05D008F00800F6
:10B9300040B1B8F10F0F05D04FF0FF094FF0FF30C5
:10B94000E06442E0B8F10F0F22D14B20005D00F01F
:10B950004000A0BB06F0400038B1E06B407B049093
:10B9600006F0BF06B146206BE0644E450CD1E06B9B
:10B97000417B0498814207D1E16BE868FEF7D6F875
:10B9800010B1A9F1010000E0FF2000F0FF091CE068
:10B99000B9F1000F06D1E06B2FF0A8FF049988429F
:10B9A00000D119E04B20005D00F0010040B90B22EE
:10B9B00004F14001E06B2AF071FA08B90CE004E0F0
:10B9C0004FF0FF094FF0FF30E0640021204600F007
:10B9D00006F80746002F95D000BF384637E72DE917
:10B9E000F041044688462768206B00F1200638782D
:10B9F000042801D1800601E04FF40010B04201D8C4
:10BA00000020A063A06B10B90420BDE8F081C6F34C
:10BA1000080000284AD1A06B401CA063606B38B9B5
:10BA20003889B0EB561F41D80020A0630420ECE712
:10BA30007889401E00EA5620002837D12046616BE5
:10BA40000BF0C7FE0546012D01D80220DDE7681C7A
:10BA500008B90120D9E7F869A84221D8B8F1000F48
:10BA600003D10020A0630420CFE72046616BFEF7DE
:10BA700019FA05460DB90720C7E7012D01D10220AB
:10BA8000C3E7681C08B90120BFE729463846FFF71D
:10BA90006FFE08B10120B8E7E07940F00400E071E2
:10BAA000656329463846FEF734F8A0632663C6F37B
:10BAB000080107F13C000844E0630020A5E72DE9F8
:10BAC000F05F04468846042627684FF0FF0AD346F5
:10BAD0006CE03846A16B2AF0F9FC064606B168E036
:10BAE000E06B05780DB9042663E03878042814D19A
:10BAF000B8F1000F02D0832D51D15AE0852D4ED1DF
:10BB0000206BE064204613F059FC064626B93869DC
:10BB1000007900F03F00A0714BE0E06BC07A00F0CC
:10BB20003F0984F80690E52D0AD02E2D08D029F083
:10BB30002000082801D1012000E00020404502D06B
:10BB40004FF0FF0A2BE0B9F10F0F1CD105F04000B8
:10BB500038B1E06B90F80DB005F0BF05AA46206B38
:10BB6000E06455450BD1E06B407B584507D1E16B54
:10BB7000F8682BF097F910B1AAF1010000E0FF205E
:10BB800000F0FF0A0BE0BAF1000F04D1E06B2FF0D8
:10BB9000ADFE584502D04FF0FF30E06409E00021CF
:10BBA0002046FFF71CFF064606B102E0A06B002806
:10BBB0008FD100BF0EB10020A0633046BDE8F09FDA
:10BBC0002DE9F04F99B0044626684B20005D00F047
:10BBD000A00018B1062019B0BDE8F08F4FF0000B9F
:10BBE00001E00BF1010BF06830F81B000028F8D1E0
:10BBF0003078042866D10BF10E000F21B0FBF1F074
:10BC000000F1020949462046FFF774FD05460DB1D3
:10BC10002846E0E7A9F101002022216B02FB101069
:10BC2000E064E07900F00400002845D0E07920F0DD
:10BC30000400E071204609F0D3FE05460DB1284608
:10BC4000C9E74FF0FF322046616B09F0E4FE05467C
:10BC50000DB12846BFE7A06870B32146684613F0CF
:10BC60008DFB05460DB12846B5E770894002D4E941
:10BC70000431181841F10001C4E90401D4E9047346
:10BC8000316901F138003A462DF064FED4E90473BD
:10BC9000316901F128003A462DF05CFEE07940F070
:10BCA0000100316981F8210068462DF005FF054645
:10BCB0000DB128468FE700BFD6E90310FEF7D2FB8F
:10BCC000002088E70C2204F1400115A82AF0F8F8BA
:10BCD0009DF85F0000F0010028B340214B20015582
:10BCE0004FF0010A0EE0534615A904F14000F26836
:10BCF0000BF030FB2046FFF79EFD054605B104E042
:10BD00000AF1010ABAF1640FEDD300BFBAF1640F72
:10BD100001D107205FE7042D01D028465BE79DF89D
:10BD20005F104B2001559DF85F0000F0020030B11C
:10BD30000BF10C000D21B0FBF1F0401C00E00120E4
:10BD4000814649462046FFF7D5FC054675BBA9F15B
:10BD50000100B0F1000929D0206BA0EB4911204669
:10BD600000F040F805460DBB04F140002FF0BEFD89
:10BD7000149000BF3046A16B2AF0A8FB054605B120
:10BD800013E009F0FF02E16BF068149B2CF008F857
:10BD90000120F07000212046FFF721FE054625B95D
:10BDA000A9F10100B0F10009E4D100BFC5B93046E6
:10BDB000A16B2AF08BFB054695B920220021E06B90
:10BDC0002AF08BF80B2204F14001E06B2AF078F89E
:10BDD0004B20005D00F01800E16B08730120F0704B
:10BDE0002846F8E62DE9F04104460D4626683078ED
:10BDF000042801D1800601E04FF40010A84202D9C6
:10BE000005F01F0010B10220BDE8F0812563A7688E
:10BE10002FB93078032802DBF76A0020E07147B9B8
:10BE20003089B0EB551F01D80220EDE7F06AA0631E
:10BE30001CE070894FEA402811E0394620460BF09B
:10BE4000C8FC0746781C08B90120DDE7022F02D3A1
:10BE5000F069B84201D80220D6E7A5EB08054545B0
:10BE6000EBD239463046FDF754FEA0636763A06B02
:10BE700008B90220C8E7A06B00EB5520A063C5F30A
:10BE8000080106F13C000844E0630020BCE770B5FF
:10BE90000446002514B1012C07D103E02DF032F93E
:10BEA000054604E02AF064FD01E0012500BF00BF63
:10BEB0000DB1012070BD0020FCE700002DE9F04726
:10BEC0000646894615465EBBB9F1000F09D0B9F1A7
:10BED000010F13D0B9F1020F05D0B9F1030F1CD136
:10BEE00006E000241BE04FF400702860002416E0F8
:10BEF0001E48B0F858002880002410E01B48416D0F
:10BF0000806DA1FB007001464FF40072002338469B
:10BF1000F4F7BEFA2860002401E0042400BF22E008
:10BF2000012E1FD1B9F1000F09D0B9F1010F11D0C5
:10BF3000B9F1020F05D0B9F1030F10D106E00024CA
:10BF40000FE04FF40070288000240AE008202880C9
:10BF5000002406E04FF4C0402860002401E00424DF
:10BF600000BF00E001242046BDE8F087E004002087
:10BF70002DE9F04180460E4614461D46002715B9AE
:10BF80000420BDE8F081B8F1000F03D0B8F1010F33
:10BF900025D113E02A46214630462DF0DBF807462E
:10BFA00009E0022F01D02DF0ADF82A462146304697
:10BFB0002DF0D0F80746002FF3D112E00BE000205F
:10BFC00000EB44214FF4007230462AF031FD641C2E
:10BFD00006F500766D1E002DF1D1002701E0012746
:10BFE00000BF00BF0FB90020CBE70120C9E7014621
:10BFF000002070472DE9F04107460E4614461D46C5
:10C000004FF0000815B90420BDE8F08117B1012FE9
:10C0100024D112E02A46214630462DF0C3F880464E
:10C0200007E02DF06FF82A46214630462DF0BAF889
:10C030008046B8F1000FF4D113E00BE0002000EBD4
:10C0400044214FF4007230462AF094FD641C06F53A
:10C0500000766D1E002DF1D1A84602E04FF00108D8
:10C0600000BF00BFB8F1000F01D10020CCE70120D4
:10C07000CAE7F8B506460C4615460095B4F90630F1
:10C08000B4F90420B4F90210B4F900000FF011FE65
:10C09000304617F00BF8F8BD10B512F05BF8012030
:10C0A0000FF01AFD10BDF8B505462C461CF0B2FD88
:10C0B0000646206B28F07EFA3168898B88422CD2A4
:10C0C000606A009094F83C0000F0030020B1012861
:10C0D00006D002280CD107E00020ADF8000007E0F0
:10C0E00064208DF8020003E064208DF8030000BF97
:10C0F00000BF30461CF052FF2846009916F06DFE36
:10C1000050B100221C2128461AF0AAFC0746012F34
:10C1100001D03846F8BD00BF00BF28F058FA2063B0
:10C120000120F7E72DE9F04F9BB0074689461646F8
:10C13000BA4617A817F077F84FF4A021384621F037
:10C14000BDFD9DF8691060F382018DF869103046DD
:10C1500014F04EF9054600EBD5704FEA60083088C0
:10C16000404400B2ADF858007088404400B2ADF8C9
:10C170005A000021384621F054FF1590494603A883
:10C1800020F0AEFB17A80B904FF40030109033480E
:10C190000490002005900AF13000FAF71DFA0446D9
:10C1A00057E02079032800D04DE0208BADF85C00EB
:10C1B000208A00B2ADF85E006079FD2801DD159897
:10C1C00003E060791599484300128DF868002568EE
:10C1D000B5F92000E98B08440090B5F92030D5E985
:10C1E0000512A0681EF098FC8346B5F92000E98B83
:10C1F00008440090B5F92030D5E90512E0681EF03A
:10C200008BFC0290608B404400B2ADF8480014945F
:10C2100016A80C9003AA1A2138461AF021FC02989D
:10C2200080B21FFA8BF1CDE90010BDF8480083B24F
:10C2300016AA17A9484616F0D8FF03AA1B213846AC
:10C240001AF00EFC00BF21460AF13000FAF7BEF9E1
:10C250000446002CA5D11BB0BDE8F08F10350408B2
:10C2600070B504460D4600222946204607F082FE9E
:10C2700001222946204607F07DFE0222294620465B
:10C2800007F096FC04222946204607F091FC70BD79
:10C290002DE9F74F9EB00C46E078022802DC21B071
:10C2A000BDE8F08F1CA8209913F09AFFB4F9200084
:10C2B00001282EDD94F82200FD282ADB208840B3D7
:10C2C000BDF8700014F8231F4908C1F38001084429
:10C2D00000B2ADF87000BDF8720021784908C1F3D2
:10C2E0004001084400B2ADF87200BDF87400217836
:10C2F0004908C1F3C001401A00B2ADF87400BDF89E
:10C30000760014F82319C1F34001401A00B2ADF8C9
:10C3100076001E981CA982681AA8F8F795FE00B945
:10C32000BDE7E07B00F0070616B9A088199001E090
:10C33000E0881990BDF864106089814200D1002620
:10C340001CA818F059F918901C2111A8F4F795FBB6
:10C35000A0788DF85D00BDF86400ADF84C00189829
:10C3600060B9208850B94EB91CA81190E0788DF8BA
:10C370005C0011A91E9818F0EFFF90E7E078FD2807
:10C3800001DBFF2000E0E07810901CA814F00DF80D
:10C390000F901CA813F08FFF0E90DDE90E01814273
:10C3A00001DA0F9800E00E980D90B4F900100D9886
:10C3B000B1EB600F02DAB4F9000001E00D98401013
:10C3C00007461AA813F0F1FF81464FF0FF300C909A
:10C3D00000200B90002F01DC189870B148461EF029
:10C3E000E9FB0B9000233AB21CA905A818F07CFCCD
:10C3F000002105A817F0FAFD0C90BDF86800ADF813
:10C400000C00BDF86C00ADF810000B98149003A858
:10C4100011901690FF208DF85C00A01DDDE90E2123
:10C420001AF09AFF8046B8F1000F0CD0022E0AD104
:10C43000BDF96810D8F8080000EB4100BDF9701094
:10C44000A0EB410012901898A0B3BDF96A502CE0FF
:10C4500028B2ADF80E0028B2ADF812004A46109985
:10C460000B981EF018FEBDF968100FFA89F32AB276
:10C470000B9818F071F88DF854009DF854000128BD
:10C4800002D102208DF85400012E09D1BDF972109D
:10C49000691AD8F8080000EB41000088ADF84C009C
:10C4A00011A91E9818F058FF6D1CBDF96E00A84226
:10C4B000CEDACCE0FFE700255CE0BDF8720028444E
:10C4C0000FFA80FABDF87600401B0FFA80FBBDF929
:10C4D0006A00504504DDBDF96E00584500DA48E0B9
:10C4E0004A4610990B981EF0D6FDBDF90C100FFAB4
:10C4F00089F352460B9818F02FF88DF854009DF8E8
:10C500005400012802D102208DF85400BDF96A00C0
:10C51000504514DCADF80EA0ADF812A0012E0AD1E2
:10C52000BDF97210AAEB0101D8F8080000EB410038
:10C530000088ADF84C0011A91E9818F00DFFBDF948
:10C540006E00584514DBADF80EB0ADF812B0012EF8
:10C550000AD1BDF97210ABEB0101D8F8080000EB6D
:10C5600041000088ADF84C0011A91E9818F0F4FEA7
:10C5700000BF6D1CBD42A0DBBDF87000ADF804002B
:10C58000BDF87400ADF80800BDF87200384400B280
:10C59000ADF80600BDF87600C01B00B2ADF80A0089
:10C5A00001A818F029F800900098B0B9AEB9BDF80C
:10C5B0007200384400B2ADF80E00BDF87600C01B22
:10C5C00000B2ADF8120010988DF85C0000201490B5
:10C5D00011A91E9818F0C0FE38E010988DF85C0084
:10C5E00001208DF85400BDF97600A0EB070ABDF9D3
:10C5F0007200C51927E0009870B14A4610990B984F
:10C600001EF049FDBDF968100FFA89F32AB20B98A4
:10C6100017F0A2FF8DF8540028B2ADF80E0028B232
:10C62000ADF81200012E09D1BDF97210691AD8F8BF
:10C63000080000EB41000088ADF84C0011A91E98DD
:10C6400018F08AFE6D1C5545D5DD00BF00BF0B9864
:10C6500010B10B981EF02AFB0C98401C28B10C98C6
:10C6600018F02AFC05A817F0A3FFB8F1000F02D0BC
:10C6700040461AF068FE00BF11E62DE9F0478EB083
:10C6800007460C461546206910B90EB0BDE8F08784
:10C69000A07E022800DCF8E720691CF05BFA064661
:10C6A000022E55D1002041F6FF71CDE90001029024
:10C6B00003460DA8D4E9041228F074FB284613F0B1
:10C6C00074FE814600EBD970298801EB6000BDF94A
:10C6D000348008EBD871A0EB610000B2ADF82C00FB
:10C6E000BDF82C00BDF834100844401E00B2ADF86F
:10C6F0003000284613F0DFFD814600EBD9706988D1
:10C7000001EB6000BDF9368008EBD871A0EB610049
:10C7100000B2ADF82E00BDF82E00BDF8361008446A
:10C72000401E00B2ADF8320003A817F0E7FB6069C5
:10C730000390208BADF81800A07E8DF82600002015
:10C7400000900BAA03A93846236917F023F8AEE03E
:10C750000DA920691BF0A6FE8046B8F1010F02D09A
:10C7600000BF00BF91E707A816F0F7FFA0788DF88B
:10C770002800208BADF82400E07E8DF82600A07EF6
:10C780008DF82700207FE8BB284613F00EFE824676
:10C7900000EBDA70298801EB60000D99C1F38A295A
:10C7A00009EBD971A0EB610000B2ADF81400284686
:10C7B00013F081FD824600EBDA70698801EB6000BE
:10C7C0000D994FEA515909EBD971A0EB610000B204
:10C7D000ADF81600BDF814000D99C1F38A21084484
:10C7E000401E00B2ADF81800BDF816000D9900EB20
:10C7F0005150401E00B2ADF81A0005AA07A93846EC
:10C80000236900E002E016F059FF4FE06888ADF8B8
:10C810001600BDF816000D9900EB5150401E00B2F5
:10C82000ADF81A003BE02888ADF81400BDF81400FC
:10C830000D99C1F38A210844401E00B2ADF81800DA
:10C8400017E005AA07A93846236916F037FFBDF897
:10C8500014000D99C1F38A21084400B2ADF8140008
:10C86000BDF818000D99C1F38A21084400B2ADF853
:10C870001800BDF91400B5F904108842E1DDBDF8D7
:10C8800016000D9900EB515000B2ADF81600BDF83E
:10C890001A000D9900EB515000B2ADF81A00BDF925
:10C8A0001600B5F906108842BDDD00BF00BF00BF0D
:10C8B000EBE62DE9F04F87B083460C46164694F818
:10C8C0002200022802DC07B0BDE8F08F208C00B9FE
:10C8D000F9E794F82300C0F3440000B9F3E794F8B3
:10C8E000230000F0010000B1EDE7304613F05DFDDC
:10C8F0008146304613F0DFFC0746B4F90050B945D5
:10C9000001DA484600E038468246B5EB6A0F01DDA1
:10C910004FEA6A05314605A813F062FCBDF9141010
:10C9200094F82300400800F0040010B1B4F920008E
:10C9300003E0B4F9200028444042084400B2ADF8B6
:10C940001400BDF9181094F82300400800F0080006
:10C9500010B1B4F9200003E0B4F9200028444042AB
:10C96000081A00B2ADF81800BDF9161094F82300AB
:10C97000400800F0020010B1B4F9200003E0B4F95F
:10C98000200028444042084400B2ADF81600BDF92A
:10C990001A1094F82300C0F3400010B1B4F920003D
:10C9A00003E0B4F9200028444042081A00B2ADF870
:10C9B0001A00208C281A0FFA80F8B8F1000F01DA5B
:10C9C0004FF00008A07894F82210CDE90210E08B17
:10C9D000ADF804002BB205AA31465846CDF80080C8
:10C9E00000F002F800BF6EE72DE9FF4FA3B00D463F
:10C9F00016461F463298FF2801DBFF2000E03298E0
:10CA00003290284617F0F8FD2290229868B967B94D
:10CA1000309850B93298009032462946319B23987D
:10CA200000F0A9FA27B0BDE8F08F23982946826864
:10CA300020A8F8F709FB00B9F4E720A813F0B5FC2B
:10CA400081461C2119A81EF060FB48461EF0B2F872
:10CA50001C904FF0FF301890002F0ADD00233A465B
:10CA6000294612A818F040F9002112A817F0BEFAC2
:10CA70001890012331460CA8309A18F035F900219E
:10CA80000CA817F0B3FA0B9009A819901E90BDF8E6
:10CA9000C400ADF86C0032988DF87C0033988DF8A6
:10CAA0007D00B5F900003844B6F90010884203DD76
:10CAB000B5F90000384401E0B6F9000000B2ADF865
:10CAC0001C00B5F90400C01BB6F90410884203DA53
:10CAD000B5F90400C01B01E0B6F9040000B2ADF8DE
:10CAE0002000B5F902003844B6F90210884203DD8F
:10CAF000B5F90200384401E0B6F9020000B2ADF821
:10CB00001E00B5F90600C01BB6F90610884203DA0C
:10CB1000B5F90600C01B01E0B6F9060000B2ADF899
:10CB2000220007A813F041FC0690B5F90200B6F9FF
:10CB30000210884201DC012000E000208246B5F9A5
:10CB40000600B6F90610884201DB012000E0002053
:10CB50008346229800284CD0BDF88000ADF8240010
:10CB6000BDF88400ADF82800BDF9824029E0BAF193
:10CB7000000F04D1BDF91E00A04200DD20E0BBF192
:10CB8000000F04D1BDF92200A04200DA1DE020B25E
:10CB9000ADF8260020B2ADF82A0049461C981EF0D8
:10CBA000EBFABDF980100FFA89F322B21C9817F046
:10CBB000D3FC8DF8740019A9239818F0CDFB00BFA1
:10CBC000641CBDF98600A042D1DA00BF0CA817F0A2
:10CBD000EFFC0B9818F070F91898401C28B112A8B7
:10CBE00017F0E6FC189818F067F91C981EF05EF82C
:10CBF00018E7B5F90000B6F90010884201DC012001
:10CC000000E000200590B5F90400B6F90410884250
:10CC100001DB012000E00020049001200390059832
:10CC200060B1049850B1BAF1000F07D0BBF1000F0A
:10CC300004D00698322801DA0020039001208DF8F4
:10CC40007400BAF1000F15D0039898B1BDF81C001C
:10CC5000ADF82400BDF82000ADF828006888ADF8D4
:10CC600026007088401E00B2ADF82A0019A923984A
:10CC700018F072FBBBF1000F15D0039898B1BDF806
:10CC80001C00ADF82400BDF82000ADF82800F088A5
:10CC9000401C00B2ADF82600E888ADF82A0019A9BA
:10CCA000239818F059FB059898B12888ADF824000E
:10CCB0003088401E00B2ADF82800BDF81E00ADF867
:10CCC0002600BDF82200ADF82A0019A9239818F013
:10CCD00043FB049898B1B088401C00B2ADF8240022
:10CCE000A888ADF82800BDF81E00ADF82600BDF8F4
:10CCF0002200ADF82A0019A9239818F02DFB0398FB
:10CD0000F0BBBDF88000ADF82400BDF88400ADF89C
:10CD10002800B5F90200B6F90210401AB84201DA4B
:10CD2000384604E0B5F90200B6F90210401A00B224
:10CD30000290002442E06888204400B20190E88814
:10CD4000001B00B20090BDF982100198814205DD00
:10CD5000BDF986100098814200DA2EE049461C9801
:10CD60001EF00AFABDF924100FFA89F3019A1C98F3
:10CD700017F0F2FB8DF87400BDF98210019800E005
:10CD800020E0814209DC0198ADF826000198ADF859
:10CD90002A0019A9239818F0DFFABDF98610009827
:10CDA000814209DB0098ADF826000098ADF82A0012
:10CDB00019A9239818F0D0FA00BF641C0298844285
:10CDC000B9DBC7E0BDF88000ADF82400BDF98410E0
:10CDD000BDF91C00401E814202DABDF9840002E068
:10CDE000BDF91C00401E00B2ADF8280009A813F0E0
:10CDF000DCFA8046B8F1000F48DD059810B9BAF1A9
:10CE0000000F1ED0BDF9824017E020B2ADF8260019
:10CE100020B2ADF82A0041461C981EF0ADF9BDF9CC
:10CE20002410434622B21C9817F096FB8DF874002C
:10CE300019A9239818F090FA641CBDF91E00A042AD
:10CE4000E3DC059810B9BBF1000F1FD0BDF922003B
:10CE5000441C17E020B2ADF8260020B2ADF82A003D
:10CE600041461C981EF088F9BDF92410434622B2B1
:10CE70001C9817F071FB8DF8740019A9239818F00D
:10CE80006BFA641CBDF98600A042E3DABDF980109C
:10CE9000BDF92000401C814202DDBDF9800002E0A6
:10CEA000BDF92000401C00B2ADF82400BDF884009C
:10CEB000ADF8280009A813F078FA8046B8F1000F01
:10CEC00048DD049810B9BAF1000F1ED0BDF98240B8
:10CED00017E020B2ADF8260020B2ADF82A00414696
:10CEE0001C981EF049F9BDF92410434622B21C9843
:10CEF00017F032FB8DF8740019A9239818F02CFA5A
:10CF0000641CBDF91E00A042E3DC049810B9BBF11B
:10CF1000000F1FD0BDF92200441C17E020B2ADF86D
:10CF2000260020B2ADF82A0041461C981EF024F9D4
:10CF3000BDF92410434622B21C9817F00DFB8DF862
:10CF4000740019A9239818F007FA641CBDF986002B
:10CF5000A042E3DA0CA817F02BFB0B9817F0ACFFFC
:10CF600012A817F025FB189817F0A6FF1C981DF0C3
:10CF70009DFE00BF56E52DE9FF4F89B080460C4667
:10CF80001546DDF858901C2168461EF0BEF807A82B
:10CF90000090BDF83000ADF808008DF81890B4F995
:10CFA0000200B5F90210884201DC012000E00020F7
:10CFB0000646B4F90600B5F90610884201DB0120E7
:10CFC00000E000200746B4F90000B5F900108842DF
:10CFD00001DC012000E000208246B4F90400B5F92C
:10CFE0000410884201DB012000E0002083462088F5
:10CFF000ADF81C00A088ADF820006088ADF81E00D8
:10D000006888401E00B2ADF822001EB16946404655
:10D0100018F0A2F9E888401C00B2ADF81E00E088C4
:10D02000ADF822001FB16946404618F095F92088F6
:10D03000ADF81C002888401E00B2ADF8200016B1E3
:10D04000B5F9020001E0B4F90200ADF81E0017B115
:10D05000B5F9060001E0B4F90600ADF82200BAF116
:10D06000000F03D06946404618F076F9A888401CA6
:10D0700000B2ADF81C00A088ADF82000BBF1000F95
:10D0800003D06946404618F067F90DB0BDE8F08F4F
:10D090002DE9FF4F93B00746904699464FF6FF7033
:10D0A000804502D117B0BDE8F08F3E46746A208CEF
:10D0B0001290208C484506D0A4F82090608C20F077
:10D0C0000400001D60844FF48021204621F0A9FB5C
:10D0D00011904FF48021204621F013FC0546119851
:10D0E00019F01EFE824638460AF0E3FF8346BBF87D
:10D0F0001600ADF83E00BDF93E000AEB050108FB45
:10D10000010000B2ADF83E00284605EBD071BDF835
:10D110003E20A2EB610109B2ADF83E10BDF83E0021
:10D1200050442844401E00B2ADF84200706A808A24
:10D13000ADF83C00706A008BADF8400001A817F014
:10D14000E9FE01AA4FF48021204621F00FFF0FAA2B
:10D1500001A9149817F0C2FE12982084608C20F068
:10D160000400608400BF9DE72DE9F04F91B00746B1
:10D170000D46904699464FF6FF70804502D111B09A
:10D18000BDE8F08F1097109F7C6A208C0F90208C48
:10D19000484506D0A4F82090608C20F00400001DC3
:10D1A000608407A816F0AAFE07AA4FF48021204643
:10D1B00021F001FE4FF48021204621F0A2FBADF8C2
:10D1C0002E0038460AF075FF064606B9D7E70798DD
:10D1D00019F0A6FD8246F08AADF81600BDF91600DA
:10D1E000BDF92E10514408FB010000B2ADF8160045
:10D1F000BDF92E0000EBD071BDF81620A2EB610145
:10D2000009B2ADF81610BDF816005044BDF82E1046
:10D210000844401E00B2ADF81A00A08AADF8140010
:10D22000208BADF8180005AA03A8A968F7F70CFF32
:10D230008346BBF1000F13D0A868029003A8A86032
:10D2400030461CF01BFC01900020009006F11402F7
:10D2500007A92846019B16F09DFA0298A86000BF16
:10D260000F982084608C20F00400608400BF86E763
:10D270002DE9F04105463548006815F031FF0446B8
:10D280002868866BF06A10B13046F16A88472068DA
:10D2900090B1606880B10CE02C4800680068806A3A
:10D2A00038B12A4A12681068284A12681268916ACE
:10D2B000884720690028EFD10120206123480068B9
:10D2C0000068C068806900F0010050B11F48006824
:10D2D0000068C0688069C0F3400010B1012060613F
:10D2E00001E000206061606908B1012000E00020D9
:10D2F00007462868406998B12868007CC0F301108F
:10D3000048B12868007CC0F3800020B1D6E9001045
:10D3100000F01EF804E0D6E900212868FBF756FE6D
:10D32000206880B1606870B12868007C00F001005E
:10D3300000B147B12168A068884202D16068A0604E
:10D3400001E02068A060BDE8F081000058010020E5
:10D350002DE9F34F83B00446884800680568874884
:10D3600000680068007CC0F3400040B1287CC0F336
:10D37000800020B100BF00BF05B0BDE8F08F287C61
:10D38000C0F3011002280AD121462846049A00F071
:10D3900004F921462846049AFBF718FEEBE0287CA6
:10D3A000C0F30110012804D0287CC0F30110032829
:10D3B000F4D1002002907148006815F091FE824679
:10D3C000204612F0D6FF0646204612F05FFF834645
:10D3D0004FF4A050B0FBF6F000B2584505DA4FF418
:10D3E000A050B0FBF6F000B200E058460190B4F94E
:10D3F0000280287CC0F3011001280BD168882188A5
:10D40000401A401E00B2E080E088801B401C00B241
:10D41000608006E02088608060883044401E00B252
:10D42000E08000279EE0ABEB07010198814201DD1F
:10D43000019801E0ABEB07000FFA80F90120CAF870
:10D44000100047BBB34526DBB146297CC1F301116F
:10D45000032901D1012100E0002108463146049A48
:10D4600000F00FF9287CC0F30110012807D1A4F8BF
:10D47000008008EB0600401E00B2A0803FE0288834
:10D48000401EA0EB080000B2A080A088801B401CBA
:10D4900000B2208033E0029820B94FF420501DF0F4
:10D4A00089FB029002980090297CC1F301110329A5
:10D4B00001D1012100E0002108464A463146049B83
:10D4C00000F0B2F8287CC0F3011001280AD108EB63
:10D4D000070000B2208008EB07004844401E00B25D
:10D4E000A0800CE02888401EA0EB0800C01B00B202
:10D4F000A080A088A0EB0900401C00B2208007EBB0
:10D50000090058450DDBDAF8180000F0010040B1C1
:10D51000DAF81800C0F3400018B10120CAF814006E
:10D5200002E00020CAF81400029808B9049800E04C
:10D530000298024621462846FBF748FD04E0A86A07
:10D5400010B12846A96A8847DAF810000028F6D1F9
:10D5500006FB09F1049800EB4100049007EB090079
:10D5600007B200BF5F45FFF65EAF029810B10298A8
:10D570001DF09CFB00BF00BFFEE60000580100202C
:10D5800018B5048800940C88048014880C801C88CA
:10D590001480BDF800401C8018BD2DE9FC5F0546D5
:10D5A0000C461646204612F0E4FE8246204612F053
:10D5B0006DFE83461AFB0BF001900198471E4FF059
:10D5C000000811E006EB47000088009006EB4700DA
:10D5D00006EB48010988018006EB4800BDF8001001
:10D5E00001807F1E08F101084745EBD8B4F9069089
:10D5F00068886188401A401E00B2E0806888A0EB0D
:10D600000900401E00B26080B4F904902888218887
:10D61000401A401E00B2A0802888A0EB0900401EDE
:10D6200000B22080BDE8FC9F2DE9F04704461D466E
:10D63000089F01FB02F0A0F1010C481E00FB02F85C
:10D6400000231AE008EB03000CB1ACEB000000264D
:10D650000FE0A946AD1C07EB400AB9F80090AAF804
:10D6600000900CB1104400E0801A06F101090FFA95
:10D6700089F68E42EDDB581C03B29342E2DBBDE833
:10D68000F0872DE9F04782460C46154600263BE020
:10D69000002731E0601E801B0FFA80F8601EC01B5F
:10D6A0000FFA80F9BAF1000F12D007FB048C05EBDA
:10D6B0004C0308FB049C05EB4C0209FB046C05EBD6
:10D6C0004C0106FB047C05EB4C00FFF759FF11E011
:10D6D00009FB046C05EB4C0308FB049C05EB4C02B6
:10D6E00007FB048C05EB4C0106FB047C05EB4C00AE
:10D6F000FFF746FF781C07B2601C00EBD071B7EB58
:10D70000610FC7DB701C06B204EBD471B6EB610F7E
:10D71000BEDBBDE8F08710B5044620461AF096FE41
:10D7200010BD00002DE9F14F9EB01E9819F092F93E
:10D7300005462C461E9819F034F91D90606A1CF0BD
:10D740009DF907465020005D00F0010010B91FB0A0
:10D75000BDE8F08F0FA817F0DDFB0FAA4FF4E02112
:10D76000284621F003FC04F144010DA812F077FDD6
:10D77000BDF83400616A898A084400B2ADF834000B
:10D78000BDF83610606AC08A084400B2ADF83600B1
:10D79000BDF83800616A898A084400B2ADF83800E3
:10D7A000BDF83A10606AC08A084400B2ADF83A0089
:10D7B0000DAA0FA91D9817F091FB4FF4E021284600
:10D7C00020F074FB06464FF4E021284620F0D6FDF9
:10D7D00030440FFA80F84FF4E021284620F047FF4C
:10D7E00030440FFA80F900200B900C90E16CC819BE
:10D7F0001F49096888478246E06CC11952460BA848
:10D800001DF0F5FABDF83400404400B2ADF8340024
:10D81000BDF83600484400B2ADF836004FF0000BBA
:10D82000D4F824A040F257425946504620F02CFF2D
:10D83000019001980A9002A816F060FB02AA4FF42A
:10D84000E021284621F0B7FA9DF83F00022805DCC8
:10D85000BDF81400BDF82810884207D000200BAB9B
:10D860000DAA02A900901D9815F094FF00BF6EE765
:10D87000D80200202DE9F04FBDB005460E4600BF8E
:10D8800000BFAB460BF13000F8F7F4FE10B13DB02D
:10D89000BDE8F08F05F114023BA8B168F7F7D4FB9F
:10D8A00000B9F4E7B0683A903BA8B06035A816F02C
:10D8B00071FB35AA4FF4E021284621F0E3FA27A8AE
:10D8C00017F028FB9DF8DC008DF89F0047F6FF70ED
:10D8D000ADF89C004FF4E021284621F0C8F8074637
:10D8E00000EBD7704FEA60094FF4E021284621F0A1
:10D8F000BEF8074600EBD7704FEA600A314604A82D
:10D900001EF0EEFF24A80A9016A808904FF4E0201D
:10D91000119069480590052006900BF13000F8F74A
:10D920005BFE0446C0E00A2235A924A81DF05FFA78
:10D93000382227A916A81DF05AFAE088ADF8900001
:10D94000E088ADF85C0039A80D9038A80E90607B97
:10D9500000F0010020B1B4F90070B4F9028010E0C9
:10D96000A08847F6FF71884200D197E0A28801ABFA
:10D970002846A16814F05EF8BDF90470BDF9068070
:10D9800000BFA88A384407B2E88A40440FFA80F8FA
:10D99000B9F1000F19D0BAF1000F16D0A7EB0900AA
:10D9A00000B2ADF8080007EB090000B2ADF80C00BA
:10D9B000A8EB0A0000B2ADF80A0008EB0A0000B2BA
:10D9C000ADF80E0002A8079001E000200790207B30
:10D9D00000F0030070B3207B00F0010010B1B5F936
:10D9E000140000E03846ADF8E400ADF8E680207B96
:10D9F00000F0020010B1B5F9180000E03846ADF8AB
:10DA0000E000BDF8E600ADF8E20004AA1A212846BD
:10DA100019F026F838AB39AA24A9304616F0A3FA33
:10DA200002AA16A9304617F059FA04AA1B21284663
:10DA300019F016F8207B00F00C0070B3ADF8E4701C
:10DA4000207B00F0040010B1B5F9160000E040465C
:10DA5000ADF8E600BDF8E400ADF8E000207B00F092
:10DA6000080010B1B5F91A0000E04046ADF8E20038
:10DA700004AA1A21284618F0F3FF38AB39AA24A9C2
:10DA8000304616F070FA02AA16A9304617F026FAA8
:10DA900004AA1B21284618F0E3FF00BF21460BF122
:10DAA0003000F8F793FD0446002C7FF43CAF3A9821
:10DAB000B06000BFEBE60000D82F04082DE9F14F5D
:10DAC0009AB01A9818F0C6FF04461A9818F069FF21
:10DAD0001990204620F0FFFF074620461FF060FA0D
:10DAE000834607EBD771A28A02EB610109B2189154
:10DAF0000BEBDB714A10E18A114409B2179107EB75
:10DB0000D7714E1014A816F045FA14AA0021204629
:10DB100021F0B8F94FF41D7016FB00F0552190FB71
:10DB2000F1F0642190FBF1F000B2ADF85200BDF8C5
:10DB30005200801C00B2ADF852000020139000216A
:10DB4000204620F0CAF80546002347F6FF7204F18C
:10DB500014010DA817F0C8F800210DA816F046FA18
:10DB60000C9000BFA08AADF82800E08AADF82A002A
:10DB7000208BADF82C00608BADF82E0000BFBDF8F7
:10DB80002800284400B2ADF82800BDF82C00401B46
:10DB900000B2ADF82C00BDF82A00284400B2ADF860
:10DBA0002A00BDF82E00401B00B2ADF82E00012364
:10DBB00047F6FF720AA904A817F096F8002104A8F6
:10DBC00016F014FA0390BDF952804FF0000A4FE0AE
:10DBD00051462046F9F768FF0090BDF80000ADF807
:10DBE00050001398C0F30F290FFA89F026F0ECFFCC
:10DBF00006EB08014843189901EBE03000B2ADF89C
:10DC000004000FFA89F026F0CFFF06EB0801484325
:10DC1000179901EBE03000B2ADF806000FFA89F079
:10DC200026F0D2FF711BA1EB08014843189901EBC4
:10DC3000E03000B2ADF808000FFA89F026F0B4FF2A
:10DC4000711BA1EB08014843179901EBE03001B2C9
:10DC5000ADF80A1002AB01AA14A9199816F083F9BD
:10DC60000AF103001FFA80FA139800F587601390F9
:10DC7000BAF5807FACDD0DA816F09AFC04A816F06A
:10DC800097FC0C9817F018F9039817F015F91BB0CA
:10DC9000BDE8F08F2DE9F04FA5B004460F462546AC
:10DCA00004F1140123A8BA68F7F7CEF9229022985C
:10DCB00010B925B0BDE8F08FB868219023A8B860EE
:10DCC0000021204620F0CBF81E900021204620F0B5
:10DCD000E0FA01461E98084400B21D90002120463B
:10DCE00020F043FC01461E98084400B21C902046D8
:10DCF0001FF0E1F87E35E9884843001200B21B901E
:10DD000020461FF0B9F829894843001200B21A9042
:10DD100017A816F03FF917AA0021204621F0B2F803
:10DD2000394605A81EF0DCFD002012908C480690B4
:10DD30000020079017A80B904FF0FF3013900020A1
:10DD40000E900F9005AA1A21204618F089FE002097
:10DD5000019031222046019920F096FC0090009815
:10DD600000F0FF0B00BF0021204620F078F804905F
:10DD70000020019033222046019920F085FC00907C
:10DD8000009800F0FF0800BF20461FF0FFF9039045
:10DD900020461FF0F5FA029035F87E09002865D07C
:10DDA000E18A1C9801440298081A00B20190A08AE6
:10DDB000ADF88000208BADF87C004FF00009B5F87D
:10DDC0007E000FFA80FABBF1020F1ADD04980028DA
:10DDD00017DD08F0020040B10021204620F0C5FB0D
:10DDE00018B909F101000FFA80F908F0010040B1FB
:10DDF0000021204620F070F918B9AAF101000FFAAD
:10DE000080FA4E462FE01A987043B5F87E10491EEE
:10DE100090FBF1F000B2ADF88200BDF882100198DD
:10DE2000084400B2ADF88200BDF88200ADF87E0073
:10DE30004B4806900120079020A80E901FA80F9035
:10DE4000139605AA1A21204618F00AFE1FAB20AA35
:10DE500017A9384616F087F805AA1B21204618F0A6
:10DE6000FFFD701C06B25645CDDB00BFB5F8800043
:10DE7000002865D0A18A1D9801440398081A00B2B1
:10DE80000190E08AADF88200608BADF87E004FF023
:10DE90000009B5F880000FFA80FABBF1020F1ADD15
:10DEA0000498002817DD08F0040040B10021204646
:10DEB00020F0EFF918B909F101000FFA80F908F024
:10DEC000080040B10021204620F08CFA18B9AAF1D0
:10DED00001000FFA80FA4E462FE01B987043B5F808
:10DEE0008010491E90FBF1F000B2ADF88000BDF843
:10DEF00080100198084400B2ADF88000BDF88000A1
:10DF0000ADF87C00164806900220079020A80E90DD
:10DF10001FA80F90139605AA1A21204618F0A0FDFD
:10DF20001FAB20AA17A9384616F01DF805AA1B2119
:10DF3000204618F095FD701C06B25645CDDB00BF9B
:10DF40004FF0FF30139000200E900F9005AA1B2178
:10DF5000204618F085FD2198B86000BFA9E60000B2
:10DF6000D82F04082DE9F14F9AB01A9818F011FD36
:10DF700007461A9818F06EFD05462C46122F7DD1E3
:10DF80001A9818F064FD06463078022802D11BB0BA
:10DF9000BDE8F08F94F8380000F00300032805D0A6
:10DFA00094F8380000F00300022802D101203070FC
:10DFB000EDE794F83800C0F38400042808D094F802
:10DFC0003800C0F38400012802D001203070DEE761
:10DFD0004FF0000A46225146284620F055FB199082
:10DFE0001998C0B2FF2802D001203070CFE700217D
:10DFF000284620F0C7FC8146208E8144B9F1000FED
:10E0000002D001203070C2E70021284620F0FBFC3E
:10E010008046E08E00FB08F04FEA20281A9818F09E
:10E0200016FD8346B8F5807F09D1002205F1140161
:10E030005846F7F74AF8E8BB01203070A7E72846B2
:10E040001EF0AEFF8246284620F045FD179004F1F1
:10E0500032001FFA88F100235246CDE9001018A8BB
:10E060001799F7F7E7FABDF86000A98A084400B2EB
:10E07000ADF86000BDF86210E88A00E01DE00844D9
:10E0800000B2ADF86200BDF86400A98A084400B28D
:10E09000ADF86400BDF86610E88A084400B2ADF837
:10E0A0006600002218A95846F7F70FF818B90120A2
:10E0B00030706CE700E000BF19E2152F01D0182F77
:10E0C000FAD10021284620F09EFC8046E08E00FB1D
:10E0D00008F04FEA20280021284620F053FC824611
:10E0E000208E8244284620F0F6FC199028461EF027
:10E0F00057FF1890002641F232023146284620F0A0
:10E10000C3FA0E900E9800B2814600BF41F612028B
:10E110003146284620F0B8FA0E900E9848440FFA7F
:10E1200080FB00BF41F613023146284620F0ACFACE
:10E130000E900E98484400B2179000BF41F61002AE
:10E140003146284620F0A0FA0E900E98484400B2BE
:10E15000169000BF41F611023146284620F094FA8D
:10E160000E900E98484400B21590608E584400B24C
:10E17000ADF85000A18E1698084400B2ADF85200D8
:10E1800094F8390000F00300012804D112A92846B0
:10E190001EF0B0FE27E014A91FFA88F00FFA8AF3E8
:10E1A000CDE9000112A8DDE91821F7F743FABDF81F
:10E1B0004800A98A084400B2ADF84800BDF84A10EA
:10E1C000E88A084400B2ADF84A00BDF84C00A98ABC
:10E1D000084400B2ADF84C00BDF84E10E88A08447F
:10E1E00000B2ADF84E0005F1140110A812F025F8A8
:10E1F00012A905F1140012F020F8BE481A991EF079
:10E2000095FD0F900F98012800D0C0E610A905F1E8
:10E21000140012F012F8152F7ED1E08D08B1A08DF8
:10E2200000B9B4E6B8F1000F00D1B0E61A9818F0C2
:10E23000B8FB064605F114010DA811F0FEFF2846B3
:10E240001AF076FB0C9094F8390000F003000128D6
:10E250003CD1B4F92C10BDF93020891A481C00EBD0
:10E26000D071BDF83420A2EB610109B2ADF83410D1
:10E27000B4F92C10BDF93020891A481C00EBD0717C
:10E28000BDF83820A2EB610109B2ADF83810B4F93D
:10E290002E10BDF93220891A481C00EBD071BDF850
:10E2A0003620A2EB610109B2ADF83610B4F92E1098
:10E2B000BDF93220891A481C00EBD071BDF83A2014
:10E2C000A2EB610109B2ADF83A1013E012A812F006
:10E2D000ABF8BDF834100844401E00B2ADF8380069
:10E2E00012A812F019F8BDF836100844401E00B20A
:10E2F000ADF83A00BDF83400584400B2ADF834002F
:10E30000BDF836101698084400B2ADF83600BDF8D6
:10E3100038101798081A00E0E8E000B2ADF83800AD
:10E32000BDF83A101598081A00B2ADF83A0094F802
:10E33000380000F00300012805D094F8380000F000
:10E34000030000287AD106A815F007FA06AA0021D2
:10E35000284620F0D1FC1FFA88F0ADF81A001FFA09
:10E360008AF0ADF81800608EADF81C00A18EADF8F3
:10E370001E1094F83800C0098DF82C00BDF8480034
:10E38000584400B2ADF81000BDF84A101698084481
:10E3900000B2ADF81200BDF84C101798081A00B280
:10E3A000ADF81400BDF84E101598081A00B2ADF87B
:10E3B0001600B068039004AA04A8B168F6F744FEFA
:10E3C00000B9E4E504A8B060BDF83610608D0844DB
:10E3D00000B2ADF80600BDF90600BDF9361088425E
:10E3E00006DDBDF80600E18D401A00B2ADF806006A
:10E3F000BDF80600E18D0844401E00B2ADF80A00E9
:10E4000049E0BDF83400218D084400B2ADF80400A5
:10E41000BDF90400BDF93410884206DDBDF80400E2
:10E42000A18D401A00B2ADF80400BDF80400A18D22
:10E430000844401E00B2ADF8080016E034E001AA1E
:10E4400006A93046636A15F039F9BDF80400BDF835
:10E450003010084400B2ADF80400BDF80800BDF863
:10E460003010084400B2ADF80800BDF90400BDF951
:10E4700038108842E3DBBDF80600BDF832100844CE
:10E4800000B2ADF80600BDF80A00BDF8321008442D
:10E4900000B2ADF80A00BDF90600BDF93A10884295
:10E4A000AFDB0398B06020E094F8380000F0030080
:10E4B000022811D104A815F021FD04AA0021284644
:10E4C00020F079FC0020009005F1140204A93046E8
:10E4D000636A15F05FF908E000BF00BF002305F193
:10E4E00014021946304615F0E9F800BF00BF00BF1E
:10E4F0004DE50000B02105082DE9F14FDCB05C9836
:10E5000018F0A8FA05462C465C9818F04AFA5B9079
:10E5100059A928461EF0EEFC0020CDE9105040F627
:10E520000A02DDE9100120F0AFF80F900F9800B259
:10E5300058900020CDE9105040F60B02DDE91001A3
:10E5400020F0A2F80F900F9800B25790BDF8641118
:10E550005898081A00B2ADF86401BDF868115898CF
:10E56000084400B2ADF86801BDF866115798081A62
:10E5700000B2ADF86601BDF86A115798084400B2C0
:10E58000ADF86A0159A811F041FF834659A811F06E
:10E59000B5FE5690D4E90A10A0EB010956988345C0
:10E5A00001DB012000E0002080460020559094F817
:10E5B0005C0000F0030001280BD1A06A002808DAF3
:10E5C000E06A002805DDA16A206B884201D10120A4
:10E5D0005590002128461FF083FE549000212846C4
:10E5E0001FF027FF5390002128461FF0E5FF5290AF
:10E5F000002128461FF097FD519059A904F13400DD
:10E6000011F009FEA18E5498084400B2A086218F13
:10E610005398081A01B22187E18E5298084401B23A
:10E62000E186618F5198081A01B26187B8F1000F35
:10E6300013D004F1340011F061FE04280DDA56986D
:10E6400000EBD0714A10E98A1144891E0AB2E286B1
:10E65000E08E001D01B2618715E0B8F1000F12D104
:10E6600004F1340011F0D2FE04280CDA58460BEB0A
:10E67000D071AA8A02EB6101891E09B2A186A08E1F
:10E68000001D01B2218704F1340011F0BFFE50904B
:10E6900004F1340011F032FE4F90B8F1000F01D0B8
:10E6A000509800E04F988246B8F1000F05D004F171
:10E6B0003406371DFE484C9004E004F13606371D41
:10E6C000FC484C90A06D401CF8B1A36A216DC91A9A
:10E6D00001FB0AF191FBF9F108B2A36A616DC91A55
:10E6E00001FB0AF191FBF9F10AB2131AD4F858C0F0
:10E6F00003FB0CF1CB1701EB13631B121BB24D9301
:10E700004D99014409B24D9108E0A16A206B401A6D
:10E7100000FB0AF090FBF9F000B24D90A06C401C99
:10E72000E0B1A36A216CC91A01FB0AF191FBF9F16E
:10E7300008B2A36A616CC91A01FB0AF191FBF9F1F5
:10E740000AB2131AD4F848C003FB0CF1CB1701EB43
:10E75000136300EB23231BB24E9308E0D4E90901B5
:10E76000401A00FB0AF090FBF9F000B24E90002036
:10E77000119041F26A42284611991FF085FF1090CE
:10E780001098C0B24B90B8F1000F0ED04B980128F2
:10E790000BD130463E4607464E99494209B24E914A
:10E7A0004D99494209B24D9100BFB8F1000F0AD00E
:10E7B00031884E98084400B2388031884D9808441A
:10E7C00000B230800AE039884E98081A401C00B226
:10E7D000308039884D98081A00B23880559878B33F
:10E7E000A26A524202FB0AF292FBF9F211B2B8F1AC
:10E7F000000F0CD032880A4410B2B7F900208242D0
:10E8000001DD30801BE03A883280388017E03A889A
:10E81000521A521C10B2B6F90020824201DD388033
:10E8200002E032883A803080B7F90020B6F9003033
:10E830009A4204DAB6F900003A883280388000BF84
:10E84000559800BB04F134004C99884701281ADC24
:10E8500068465B991EF044F84FF400300D909648DE
:10E8600001900020029004F1340003906A461A21BE
:10E87000284618F0F5F86A461B21284618F0F0F8EB
:10E880005DB0BDE8F08F04F1340149A811F0C3FC7C
:10E890003BA816F03FFB3BAA4FF40031284620F07E
:10E8A00065FB29A85B991EF01BF84FF400303690E9
:10E8B00081482A9000202B903BA82D9004F1340031
:10E8C0002C9029AA1A21284618F0CAF80020119085
:10E8D0006022284611991FF0D7FE1090109800B2C0
:10E8E00028905698834501DA584600E056982790BC
:10E8F000DDE92701B1EB600F02DD27984010289079
:10E90000BDF9EC0026904F995098884201DA509852
:10E9100000E04F982790DDE92601B0EB610F02DDA2
:10E92000279840102690B8F1000F08D004F1340069
:10E9300011F06CFD01462698B1EB400F0BDCB8F1ED
:10E94000000F28D104F1340011F0D8FC01462698BC
:10E95000B1EB400F1FDD9DF8EF0011909DF806010F
:10E9600010909DF80E010F9000208DF8EF008DF8AB
:10E9700006018DF80E0104F134023BA95B9816F0F4
:10E98000ADFA11988DF8EF0010988DF806010F98E8
:10E990008DF80E0100BFA98A5498084400B2ADF862
:10E9A0007800298B5398081A00B2ADF87C00E98AE8
:10E9B0005298084400B2ADF87A00698B5198081A51
:10E9C00000B2ADF87E0000231EA920A8289A16F0F8
:10E9D0008BF9002120A815F009FB1D909DF822015C
:10E9E0001C909DF80E011B9000208DF80E018DF8F3
:10E9F000220159A919A811F00EFCBDF86410549811
:10EA0000084400B2ADF86400BDF86610529808449E
:10EA100000B2ADF86600BDF868105398081A00B24D
:10EA2000ADF86800BDF86A105198081A00B2ADF848
:10EA30006A00B8F1000F15D019A811F05FFC042886
:10EA400010DA569800EBD0714A10E98A1144891EF9
:10EA500009B2ADF86610BDF86600001D00B2ADF851
:10EA60006A0017E0B8F1000F14D119A811F0CEFC1C
:10EA700004280FDA58460BEBD071AA8A02EB610129
:10EA8000891E09B2ADF86410BDF86400001D00B223
:10EA9000ADF86800BDF9EC20002304F1340113A89F
:10EAA00016F022F9002113A815F0A0FA129005E043
:10EAB0000D040208FD0202080821050819AA3BA955
:10EAC0005B9816F00BFA1B988DF80E011C988DF8C8
:10EAD000220100208DF8EF008DF806018DF822014B
:10EAE00004F134023BA95B9816F0F8F913A815F06D
:10EAF0005FFD20A815F05CFD129816F0DDF91D9859
:10EB000016F0DAF929AA1B21284617F0A9FF00BF41
:10EB1000B6E6F0B591B00546284617F09BFF0446CF
:10EB2000284617F03EFF0746264603A816F0F2F9DE
:10EB300003AA4FF44031204620F018FA47F6FF7040
:10EB4000ADF80C002C20805D00F0010038B12046AB
:10EB500014F031F90090BDF80000ADF81000214626
:10EB600001A809F0BFF901AA03A9384616F0B6F9C1
:10EB700011B0F0BD2DE9F04FB3B08146484617F013
:10EB800069FF80464446484617F00BFF329000214B
:10EB900040461FF0FDF8054640461FF09CFF8246A8
:10EBA00040461EF0FDF98346DA4501DB012000E016
:10EBB000002006460EB1584600E05046319000272E
:10EBC00094F85C0000F00300012806D1A06A002838
:10EBD00003DAE06A002800DD0127002E3CD097B957
:10EBE0003EB1012D02D1B4F9340009E0B4F9380086
:10EBF00006E0012D02D1B4F9360001E0B4F93A0083
:10EC0000ADF8BC0037E0606A002812DB3EB1012D90
:10EC100002D1B4F9340009E0B4F9380006E0012D5E
:10EC200002D1B4F9360001E0B4F93A00ADF8BC0005
:10EC300021E03EB1012D02D0B4F9340009E0B4F96D
:10EC4000380006E0012D02D0B4F9360001E0B4F935
:10EC50003A00ADF8BC000EE01FB9E08EADF8BE0082
:10EC600009E0606A002803DBE08EADF8BE0002E038
:10EC7000608FADF8BE0021A816F04CF921AA4FF420
:10EC80004031404620F072F933462FA94046319A70
:10EC900028F0A9F92FA904F1680011F0D7FA0FA8FC
:10ECA00032991DF01DFE4FF440301C903C481090EE
:10ECB000002011901D9004F16800129021A813907B
:10ECC000404623F0C8FA022810D00FAA1A21404665
:10ECD00017F0C6FE04F1680221A9329816F0FEF87A
:10ECE0000FAA1B21404617F0BBFE55E0382221A990
:10ECF00001A81CF07CF80FAA1A21404617F0B0FEBC
:10ED000004F1680221A9329816F0E8F80FAA1B2135
:10ED1000404617F0A5FE96B13EB1012D02D0B4F9E0
:10ED2000340009E0B4F9380006E0012D02D0B4F94E
:10ED3000360001E0B4F93A00ADF8BC0002E0608FA3
:10ED4000ADF8BE0033462FA94046319A28F04BF962
:10ED50002FA904F1600011F079FA382201A921A845
:10ED60001CF045F80120119004F16000129021A8D8
:10ED7000139001201D900FAA1A21404617F070FE33
:10ED800004F1600221A9329816F0A8F80FAA1B21FD
:10ED9000404617F065FE00BF33B0BDE8F08F0000BD
:10EDA0003C2205082DE9F04790B00746384617F099
:10EDB00051FE054628461EF043F9064608A815F000
:10EDC0009DF808AA002130461FF0F5FF384617F0DD
:10EDD000E8FD0446D4F8088006F1140206A8A168EC
:10EDE000F6F732F910B910B0BDE8F08706A8A060B8
:10EDF00004A9304609F026FDA88AADF80800E88A83
:10EE0000ADF80A00288BADF80C00BDF81200ADF883
:10EE10000E0002AA02A8A168F6F716F998B1D4F874
:10EE2000089002A8A06028461AF028FE824600201A
:10EE3000534605F1140208A90090204614F0AAFCDC
:10EE4000C4F8089000BFA88AADF80800BDF8160005
:10EE5000ADF80A00288BADF80C00688BADF80E00F9
:10EE600002AA02A8A168F6F7EFF898B1D4F80890C2
:10EE700002A8A06028461AF001FE824600205346F0
:10EE800005F1140208A90090204614F083FCC4F890
:10EE9000089000BFC4F8088000BFA4E72DE9FF4F29
:10EEA000A1B0064614462498807B00F00F052298F6
:10EEB000807E1F90032D00D10425012D06D0022D48
:10EEC0000BD0042D10D0082D1DD114E0DFF86C8379
:10EED0004FF0800A02201E901AE0DFF864834FF0A2
:10EEE000C00A04201E9013E0DFF858834FF0F00AA8
:10EEF00010201E900CE0DFF850834FF0FF0A4FF413
:10EF000080701E9004E000BF00BF25B0BDE8F08F08
:10EF100000BF1F98FD2823DACC4801781F98814252
:10EF200003D1CB480068A84213D000200DE018F8A8
:10EF30000010FF2901D11F9904E018F800101F9A52
:10EF400051430912C34A1154401C1E998842EED302
:10EF500000BFDFF80083BD491F980870BC480560FA
:10EF60002498B0F806B0249800891B900BFB05F09C
:10EF70001A90B4F90000B168B1F90010884201DBC1
:10EF8000002005E0B068B0F90000B4F90010401AA4
:10EF90001990B4F900005844B168B1F904108842DE
:10EFA00001DC584606E0B068B0F90400B4F900107E
:10EFB000401A401C1890B4F90200B168B1F902106F
:10EFC000884201DB002005E0B068B0F90200B4F926
:10EFD0000210401A1790B4F902101B980844B16847
:10EFE000B1F90610884201DC1B9806E0B068B0F960
:10EFF0000600B4F90210401A401C16901A9917988E
:10F000004843199901FB050015902E99159801EBBD
:10F01000D0002E90159800F007071C210DA81CF0B9
:10F0200074F822988089ADF83C002298807E8DF893
:10F030004C002298807FC0F3C2008DF84D00F7F796
:10F04000DFFD019014F050F80C901B980BFB00F1C1
:10F050000C98814201DD0C9802E01B990BFB01F03A
:10F060000B900B981BF0A6FD8146CDF84090002038
:10F070000A9021881998084400B2ADF82000218830
:10F0800018980844401E00B2ADF824006188179813
:10F09000084400B2ADF82200BDF82200ADF8260009
:10F0A00000BFBDF82400BDF82010401A401C00B27B
:10F0B000079000BFBDF82000ADF81400BDF8220095
:10F0C000ADF81600BDF82400ADF81800BDF8260014
:10F0D000ADF81A0000BFBDF816101698084400B22B
:10F0E000ADF81A0005A815F087FA049008A80D904D
:10F0F0001290C5F10800039019980BEB00011898C5
:10F10000081A6843029017981C9078E00A980190BA
:10F110002AFA07F0209019981D9028E02E98007880
:10F12000209908400399C91BC8401490149830B125
:10F13000149818F800100A9809F8001003E000214C
:10F140000A9809F800100398874204D22F442098A7
:10F15000E840209005E00027CDF880A02E98401CC4
:10F160002E900A98401C0A901D98401C1D901899DA
:10F170001D988842D2DB0498A0B1BDF92620BDF9C4
:10F180002010019B09EB0300079B15F0E5F98DF8B2
:10F1900044009DF8440028B9019909EB0100079942
:10F1A0001BF0B3FFDDE91801411A0A9801440B98DE
:10F1B000814206D2BDF82600401C00B2ADF8260000
:10F1C00012E002208DF844000DA9304616F0C4F874
:10F1D000BDF82600401C00B2ADF82200BDF82200A8
:10F1E000ADF8260000200A90029807442E9800EB04
:10F1F000D7002E9007F007071C98401C1C9016990A
:10F200001C98884282DBBDF92200BDF92610884295
:10F210000ED0BDF82600401E00B2ADF82600022038
:10F220008DF844000DA9304616F096F800200A909B
:10F2300048461BF03BFD00BF67E60000242E040893
:10F24000262E0408322E0408422E040868010020ED
:10F250006C01002054D700202DE9FF4F8FB00C46E1
:10F2600015461E46B4F90200401E0E900E9840103E
:10F270000D900E9800F001010D9808440C90B5F91E
:10F280000000B6F90010884202DAB5F9000001E08A
:10F29000B6F90000ADF82800B5F90000B6F9001085
:10F2A000884202DDB5F9000001E0B6F90000401E19
:10F2B00000B2ADF82C0069880C98081A00B2ADF8BD
:10F2C0002A0069880D98084400B2ADF82E000F9806
:10F2D0000AA982680AA8F5F7B7FE8246BAF1000FBC
:10F2E00002D113B0BDE8F08FE08818B1A08808B152
:10F2F000012000E000208346012009900AA815F0B3
:10F300007BF910B10020099004E0BBF1000F01D09F
:10F31000002009901C2102A81BF0F7FE0AA8029009
:10F320002088ADF81000207A8DF82000099820B1CF
:10F3300002A90F9816F010F878E00AA811F02EF83C
:10F340000746BDF92E000190BDF82A00ADF82E0049
:10F3500000200090BBF1000F0BD0B4F90600B4F907
:10F3600004100844BDF9281091FBF0F200FB1210C4
:10F37000009038461BF01EFC8046CDF814800AA889
:10F380000790BDF92A904AE0394640461BF0F4FE4A
:10F39000BDF928103BB20FFA89F2404615F0DCF8AF
:10F3A0008DF81800BBF1000F27D09DF8180020B38E
:10F3B000009800211BE0B4F90420824207DBA388F7
:10F3C0001B1A1AB28B1819B2831818B20BE0B4F9D1
:10F3D0000620B4F904301A44824201DC002002E025
:10F3E000002208F801204A1C11B2421C10B2B94296
:10F3F000E1DB02228DF8182000BF02A90F9815F05A
:10F40000ABFFBDF82A00401C00B2ADF82A00BDF8E1
:10F410002E00401C00B2ADF82E0009F10109019840
:10F420008145B1DD40461BF041FC00BF00BF58E7FD
:10F430002DE9FF4FC7B08B4691469A46B9F90200B5
:10F44000BAF90210884210DAB9F80200ADF81A01D0
:10F45000BAF80200ADF81601B9F80000ADF81801CD
:10F46000BAF80000ADF814010FE0BAF80200ADF8E8
:10F470001A01B9F80200ADF81601BAF80000ADF8AB
:10F480001801B9F80000ADF81401BDF91401BDF977
:10F490001811441ABDF91601BDF91A11451A002CAC
:10F4A00001DD204600E06042002D01DD294600E03C
:10F4B0006942884201DD012000E000204490BBF950
:10F4C000026000204390449870B1002D01DD284671
:10F4D00000E068424101002C01DD204600E060426E
:10F4E00091FBF0F043900DE0002C01DD204600E0A0
:10F4F00060424101002D01DD284600E0684291FB99
:10F50000F0F04390E0494398085C70433F30C611E7
:10F51000771006F0010000EB0708BDF91801BDF9EE
:10F520001411884202DABDF9180101E0BDF9140195
:10F53000801B00B2ADF80401BDF91801BDF914112A
:10F54000884202DDBDF9180101E0BDF91401304423
:10F5500000B2ADF80801BDF91A01BDF916118842D3
:10F5600002DABDF91A0101E0BDF91601801B00B2F3
:10F57000ADF80601BDF91A01BDF91611884202DD88
:10F58000BDF91A0101E0BDF91601304400B2ADF831
:10F590000A01479841A9826841A8F5F755FD4090B6
:10F5A000409810B94BB0BDE8F08F4498F0B3002CF0
:10F5B00024DD0021BDF81601C01B00B2CDE9000119
:10F5C000BDF91431BDF81A01C01B02B2BDF9181102
:10F5D00035A815F00BF90121BDF81601404400B221
:10F5E000CDE90001BDF91431BDF81A01404402B261
:10F5F000BDF918112AA815F0F9F84AE00021BDF864
:10F600001601404400B2CDE90001BDF91431BDF846
:10F610001A01404402B2BDF9181135A815F0E6F8F8
:10F620000121BDF81601C01B00B200E00DE0CDE9DC
:10F630000001BDF91431BDF81A01C01B02B2BDF9B9
:10F6400018112AA815F0D2F823E00021BDF91601FF
:10F65000CDE90001BDF81401404403B2BDF91A21FF
:10F66000BDF81801404401B235A815F0BFF80121DA
:10F67000BDF91601CDE90001BDF81401C01B03B2AC
:10F68000BDF91A21BDF81801C01B01B22AA815F056
:10F69000ADF8002135A814F0A9FC139000212AA888
:10F6A00014F0A4FC12904FF0FF30119010909BF8D2
:10F6B0000900C0F3001068BB0321BDF81A01204403
:10F6C00000B2CDE90001BDF81801401B03B2BDF93D
:10F6D0001A21BDF918111FA815F088F80221BDF8EC
:10F6E0001601204400B2CDE90001BDF81401401B11
:10F6F00003B2BDF91621BDF9141114A815F076F85E
:10F7000000211FA814F072FC1190002114A814F01D
:10F710006DFC109041A810F041FE0F90F7F770FAC1
:10F72000019013F0E1FC0D9041A810F003FE01469A
:10F730000D98814203D241A810F0FCFD00E00D9825
:10F740000C900C981BF036FA0B90BDF90A010A9048
:10F75000BDF80601ADF80A0100200990DDE90B01B2
:10F760001BF00AFD1C2102A81BF0CFFC41A802904F
:10F77000BBF80000ADF810009BF808008DF82000E1
:10F780000B98059041A80790BDF906010E9040E046
:10F79000BDF90411099B0B9AD0180F9A13B20E9A57
:10F7A00012B214F0D9FE8DF818009DF8180028B98F
:10F7B000099A0B9988180F991BF0A7FC0F990998C3
:10F7C000084409900F99099801440C98814206D287
:10F7D000BDF80A01401C00B2ADF80A0116E0022093
:10F7E0008DF8180002A9479815F0B6FDBDF80A017A
:10F7F000401C00B2ADF80601BDF80601ADF80A01E3
:10F8000000200990DDE90B011BF0B6FC0E98401CAE
:10F810000E900A990E988842BADDBDF90601BDF92D
:10F820000A1188420CD0BDF80A01401E00B2ADF8A2
:10F830000A0102208DF8180002A9479815F08CFDE6
:10F840000B981BF033FA35A814F0B2FE2AA814F076
:10F85000AFFE1198401C10B11FA814F0A9FE10981B
:10F86000401C10B114A814F0A3FE139815F024FB4B
:10F87000129815F021FB119815F01EFB109815F049
:10F880001BFB00BF8EE60000422F04082DE9FF4F4E
:10F8900091B00C4615461E46B4F90200401E109069
:10F8A000109840100F90109800F001010F98084434
:10F8B0000E9029880E98081A00B2ADF830002988F9
:10F8C0000F98084400B2ADF83400B5F90200B6F95B
:10F8D0000210884202DAB5F9020001E0B6F902002E
:10F8E000ADF83200B5F90200B6F90210884202DD27
:10F8F000B5F9020001E0B6F90200401E00B2ADF811
:10F90000360011980CA982680CA8F5F79DFB81467A
:10F91000B9F1000F02D115B0BDE8F08FE08818B141
:10F92000A08808B1012000E00020824601200B9051
:10F930000CA814F061FE10B100200B9004E0BAF1A5
:10F94000000F01D000200B901C2104A81BF0DDFB50
:10F950000CA804902088ADF81800207A8DF82800B3
:10F960000B9820B104A9119815F0F6FC66E00CA8DC
:10F9700010F014FD8346BDF936000390BDF8320047
:10F98000ADF8360058461BF015F902900298079022
:10F990000CA8099000200190BAF1000F0BD0B4F927
:10F9A0000600B4F904100844BDF9321091FBF0F2DE
:10F9B00000FB12100190019FBDF9328037E05946DB
:10F9C00002981BF0D9FBBDF930100FFA8BF30FFA38
:10F9D00088F2029814F0C0FD8DF82000BAF1000FF3
:10F9E00013D09DF8200070B1B4F90400B84202DAD7
:10F9F00000208DF82000B4F90600B4F90410084482
:10FA0000B84200DC0027781C07B204A9119815F051
:10FA1000A3FCBDF83200401C00B2ADF83200BDF8C6
:10FA20003600401C00B2ADF8360008F1010803981A
:10FA30008045C4DD02981BF039F900BF00BF6AE7BA
:10FA40002DE9FC5F8046404617F004F80746B946AA
:10FA5000D9F824603446404616F0A3FF0546606A94
:10FA600000F114026846A968F5F7EEFA8246BAF189
:10FA7000000F41D0D5F808B0C5F808D094F83C0084
:10FA8000C0F3401048B3608FE18E88420CD1628F82
:10FA9000212329463046FDF7FBFA628F21232946B0
:10FAA0003046FDF761FB24E0628F20232946304673
:10FAB000FDF7EEFA628F202329463046FDF754FB0E
:10FAC000E28E012329463046FDF7E2FAE28E012359
:10FAD00029463046FDF748FB0BE0628F202329467C
:10FAE0003046FDF7D5FA628F202329463046FDF7D0
:10FAF0003BFBC5F808B000BFBDE8FC9F2DE9F14F06
:10FB0000D0B0509816F0A6FF04462546288E10B9AE
:10FB100051B0BDE8F08F509816F043FF4F90608CC5
:10FB200020F00400001D60844DA920461DF0E2F97C
:10FB30000026B246B4F8208000202084608C20F09B
:10FB40000400001D608427A815F0E4F91FA814F034
:10FB5000D5F927AA4FF4A02120461FF007FA1FAAC3
:10FB60004FF4A02120461FF026F9608C20F00400FD
:10FB70006084A4F82080002120461EF02AFD1E90FB
:10FB8000002120461EF0DCFA1D90002120461EF0C8
:10FB9000B4FB1C90002120461EF058FC1B9009A8C5
:10FBA0004F991CF09DFE4FF4A0201690D7480A9064
:10FBB00000200B903DA80D9035A80E9000BF9BE152
:10FBC00003E00AF101001FFA80FA696A51F82A007D
:10FBD000CFA1F0F779FF0028F3D0E96A31F81600D9
:10FBE000F8F7EFFD00B181E10027E96A31F816006E
:10FBF000F8F7D7FD08B147F00107E96A31F81600B8
:10FC0000F8F7E3FD10B147F0800716E0A88EB04288
:10FC100013D108F0200008B147F0200708F00200D7
:10FC200008B147F0020708F0040008B147F00407E4
:10FC300008F0080008B147F00807A86A00EBC60101
:10FC40004BA810F0F1FABDF82C01BDF834110844AE
:10FC500000B2ADF82C01BDF82E01BDF836110844F4
:10FC600000B2ADF82E01BDF83001BDF834110844E2
:10FC700000B2ADF83001BDF83201BDF836110844CC
:10FC800000B2ADF8320157B9382227A93DA81BF0C0
:10FC9000AEF820221FA935A81BF0A9F81DE0278483
:10FCA000608C20F00400001D60843DA815F032F93E
:10FCB00035A814F023F93DAA4FF4A02120461FF0E7
:10FCC00055F935AA4FF4A02120461FF074F8A4F886
:10FCD0002080608C20F004006084E96A31F816000E
:10FCE000F8F77BFD8346BBF1000F06D09DF8F100CD
:10FCF00040F001008DF8F10005E09DF8F10020F0E2
:10FD000001008DF8F1004BA80C90179609AA1A2152
:10FD1000204616F0A5FE9DF81701400800F01000DF
:10FD2000F0B39DF8170120F03E001E308DF817014A
:10FD3000BDF92C11B4F914201C98104481420AD149
:10FD40009DF81701400820F004009DF8171160F39A
:10FD500045018DF81711BDF93011B4F918201B9821
:10FD6000101A81420AD19DF81701400820F00800BE
:10FD70009DF8171160F345018DF81711BDF92E118B
:10FD8000B4F916201E98104481420CD19DF8170139
:10FD9000400820F002009DF8171160F3450100E0D3
:10FDA00014E08DF81711BDF93211B4F91A201D981D
:10FDB000101A81420AD19DF81701400820F0010075
:10FDC0009DF8171160F345018DF817114BA810F03D
:10FDD0009CFA814607F0200060B1E86A30F816000E
:10FDE00000F4007030B1BDF82E01A0EB090000B2A4
:10FDF000ADF82E014BAA3DA94F9815F06FF8359834
:10FE00000890BDF9E8000790BDF9E6000690686A21
:10FE100050F82A0005904DA810F0FFFA03909DF8C5
:10FE2000F11002460698CDE90121009004A8DDE911
:10FE30000732059924F0B6FF4BA810F0EEFABDF991
:10FE40001010401A039000EBD070BDF82C1101EB9C
:10FE5000600000B2ADF82C014BA810F056FABDF9C5
:10FE60001210401A039000EBD070BDF82E1101EB78
:10FE7000600000B2ADF82E01BDF82C01BDF81010E5
:10FE8000084400B2ADF83001BDF82E01BDF81210E3
:10FE9000084400B2ADF8320107F02000C0B1E86AB2
:10FEA00030F8160000F4007090B1484609EBD071AC
:10FEB000BDF82E21A2EB610109B2ADF82E1109EBBC
:10FEC000D071BDF83221A2EB610109B2ADF8321157
:10FED000002000904BAA35A9059B4F9813F05AFCBF
:10FEE00009AA1B21204616F0BBFD00BF701C86B27C
:10FEF0000AF101001FFA80FA288EB0423FF760AE87
:10FF0000608C20F00400608400BF01E640210508F9
:10FF10000A0000002DE9F14FA2B0229816F09AFDD8
:10FF200004462546229816F03CFD219000212046EB
:10FF30001DF0A2FF81462646002741F612023946EF
:10FF400030461EF0A1FB0A900A98484400B2209067
:10FF500000BF41F61302394630461EF095FB0A9069
:10FF60000A98484400B21F90002120461EF04BFB27
:10FF7000484400B21E9016A813F0C0FF16AA4FF412
:10FF8000003120461EF017FFA86A10B1D5F828806E
:10FF90000AE080201AF00EFE0646802231462046F6
:10FFA00016F032FAB04600BF4FF0000A95F83C0058
:10FFB00000F00F00012800D18246002641F26A427B
:10FFC000314620461EF060FB0A900A98C0B2012814
:10FFD00000D18246E86A00287ED0E86A18F0BAFDAF
:10FFE0000A900A98022814D19DF8750041F6FF7214
:10FFF000BDF96A10CDE900120290BDF96C30169A75
:020000040801F1
:1000000007A8E96A24F0CEFEBDF91C60BDF91E7098
:1000100011E007A9E86A18F045FA8346BBF1010F21
:1000200005D10798C0F38A260798470D02E04FF0E4
:10003000FF36374600BFBAF1000F0DD0A18A2098D5
:10004000084400B2ADF82000BDF820003044401E46
:1000500000B2ADF824000DE0218B1F98081A801B18
:1000600000B2ADF82000BDF820003044401E00B2C0
:10007000ADF824000A98022815D1E18A1E98084498
:1000800000B2ADF82200BDF822003844401E00B294
:10009000ADF826000020009008AA16A9EB6A219866
:1000A00013F078FB40E020461CF07AFFA0EB070B32
:1000B0000BEBDB704110E08A084400B2ADF822007F
:1000C000BDF822003844401E00B2ADF8260002A858
:1000D00013F043FB02AA00E027E04FF40031204672
:1000E0001EF00AFE304606EBD071491009B2ADF899
:1000F0000C10384607EBD07149100AB2ADF80E204B
:100100004FF4003B43F60F02594620461EF0BCFA5E
:100110000190019880B2ADF8080008AA02A9EB6A24
:10012000219813F0CBFA00BF00BF0EA813F0E6FE33
:100130000EAA002120461EF03EFE9DF8550041F615
:10014000FF72BDF94A10CDE900120290BDF94C30A2
:1001500041460DA80E9A24F025FEE18A1E98084417
:1001600000B2ADF82E00BDF82E00BDF836100844E0
:1001700000B2ADF83200E86AB0B920461EF0ABFC20
:10018000BDF93410461A06EBD670A18A01EB600067
:1001900000B2ADF82C00BDF82C00BDF834100844B6
:1001A00000B2ADF8300022E0BAF1000F11D0218B7F
:1001B0001F98081ABDF83410401A00B2ADF82C0090
:1001C000BDF82C00BDF83410084400B2ADF8300082
:1001D0000DE0A18A2098084400B2ADF82C00BDF8CB
:1001E0002C00BDF83410084400B2ADF830000020F7
:1001F00043460BAA0EA90090219813F0CBFAA86AE7
:1002000010B940461AF052FD23B0BDE8F08F2DE939
:10021000F14F90B0109816F01DFC05462C46109832
:1002200016F0BFFB06460EA928461CF0EFFD00277E
:1002300094F84800C0F3001008B147F0010794F8A3
:100240004800C0F3401008B147F0020700212846DB
:100250001EF01AFC42F2D171884205D1688CC0F3BD
:10026000802008B947F0040706A813F047FEB4F849
:100270004400ADF82E004620005BADF830008DF84C
:10028000357006AA002128461EF095FD0DA8411ED6
:10029000626A03780BB90123037000BF284619F086
:1002A000F9FB0790284619F0EFFB08904FF6FF7115
:1002B000079888421ED0089888421BD04FF4802BA4
:1002C00044F25742594628461EF0DEF90290029841
:1002D0000390BDF80C00ADF8260000BF202259465F
:1002E00028461EF0D1F9029002980390BDF80C0048
:1002F000ADF8280094F8480000F00700022805D067
:1003000094F8480000F0070003281FD19DF834003E
:10031000022803D09DF83400032817D141F6FF715D
:10032000BDF92A008DE88300BDF92C30069A03A898
:10033000616A24F037FD0EA810F07DF8BDF90C10AD
:10034000884202DA01208DF8340000BF04F1300841
:1003500094F8480000F00700032805D00EA80FF01D
:10036000E2FFB0F5806F01DA4FF000080EA904A893
:10037000B268F4F769FE8146B9F1000F02D111B0FD
:10038000BDE8F08F94F8480000F0070070B92846E7
:100390001CF0F6FF8346CBF1000002B200210EA84C
:1003A00010F061F8688BADF83E0000BF94F848008B
:1003B00000F00700022805D094F8480000F007007C
:1003C00003280ED1D6F808B004A8B060CDF800809C
:1003D0000EAA06A93046636A13F0DCF9C6F808B025
:1003E00007E0CDF800800EAA06A93046636A13F034
:1003F000D1F9D6F808A004A8B06094F8480000F03D
:10040000070003284FD141F6FF71BDF92A008DE89E
:100410008300BDF92C30069A03A8616A24F0C2FC5F
:100420000EA810F008F8BDF90C1088421BDA202243
:100430001146069816F059FC00EB4000B4F8441041
:10044000BDF80C201144084400B2ADF82E0046203F
:10045000005BADF83000CDF800800EAA06A930464A
:10046000636A13F097F90EA80FF05DFFBDF90E1047
:10047000884217DAB4F84400ADF82E00069816F05A
:1004800053FC4621095BBDF80E201144084400B21C
:10049000ADF83000CDF800800EAA06A93046636A98
:1004A00013F078F900BFC6F808A000BF67E72DE990
:1004B000F14F9AB01A9816F06CFA80461A9816F016
:1004C000C9FA0446B8F1150F16D11A9816F069FA50
:1004D000054618A9204608F0B5F90AA814F01AFD37
:1004E0000AAA4FF4802120461EF040FD18AA0AA94E
:1004F000284614F0F3FCC5E0B8F1180FFBD11A98A8
:1005000016F04FFA054612A813F0F8FC12AA4FF4A1
:10051000802120461EF04FFC10A9204608F092F9D9
:1005200010AA0EA8A968F4F78FFD0D900D98002869
:100530007DD0204607F0C9FD814620461EF0CBFA4B
:100540008346484619F09AFA02210390BDF95A00F1
:10055000CDE901B10090BDF95C300CA8129A039965
:1005600024F020FC20461CF01BFD0646304606EB1E
:10057000D0714A10B4F916100A44B9F91610891A44
:100580000B9148461CF00CFD0B99890391FBF0F090
:100590000B90002120461EF05CF90A901299B1F9E7
:1005A00008200A99B1F90810501A00EBD0714910CF
:1005B00009B20991BDF832100998081A00B2ADF8D5
:1005C0003200304606EBD0714A10B4F916105718B5
:1005D000BDF932000B99484307EBA03709983F1A41
:1005E000002120461DF055FC82464FF0000B41F6DD
:1005F0001202594620461EF047F80390039800B2B5
:10060000089000BF41F61302594620461EF03CF800
:100610000390039800B20790A18A089808445044B8
:1006200000B2ADF8140038B2ADF8160000E028E0D2
:10063000218B0798081AA0EB0A0000B2ADF8180049
:10064000BDF81600BDF83210084400B2ADF81A002B
:100650009DF8650040F002008DF86500A8680490E0
:100660000EA8A860484619F009FA834600205B46A8
:1006700005AA12A90090284613F08CF80498A860E7
:1006800000BF00BF1BB0BDE8F08F2DE9F14FA8B04F
:10069000289816F0DFF904462546289816F081F9C7
:1006A0002790002120461DF04FFE26900021204675
:1006B0001DF0F3FE2590002120461DF0BEFF249082
:1006C000002120461DF063FD239000BFA08AADF8F5
:1006D0008400E08AADF88600208BADF88800608B3E
:1006E000ADF88A0000BFBDF884102698084400B217
:1006F000ADF88400BDF888102598081A00B2ADF84E
:100700008800BDF886102498084400B2ADF8860031
:10071000BDF88A102398081A00B2ADF88A0013A811
:1007200014F0F8FB13AA4FF4003120461EF01EFC13
:1007300021AA13A9279814F0D1FB002620461CF00B
:100740002FFC074600BF208BA18A401A401CC01B0B
:100750000FFA80F8686A401C40B1696A01FB08F032
:10076000C11700EB116109120EB20CE020461DF01A
:100770007BFA00F0010BBBF1000F01D0404600E016
:100780000020064600BF4FF0000B41F26A42594676
:1007900020461DF079FF00900098C0B2012802D1D8
:1007A000A8EB060006B2A08A304400B2ADF84400BF
:1007B000BDF84400384400B2ADF84800E08AADF816
:1007C0004600608BADF84A004FF4403120461DF0E2
:1007D000BBFD81464FF4403120461DF05EFE82464F
:1007E0004FF4403120461DF028FF10904FF4403167
:1007F00020461DF0CCFC0F90BDF84400A0EB090092
:1008000000B2ADF84400BDF84800504400B2ADF865
:100810004800BDF846101098081A00B2ADF846001E
:10082000BDF84A100F98084400B2ADF84A0001A87C
:1008300014F070FB01AA4FF4403120461EF096FBE5
:1008400011AA01A9279814F049FB29B0BDE8F08F3F
:100850002DE9F14FE0B0609816F0FCF8044625460B
:10086000609816F09EF8814604F114015EA8D9F84C
:100870000820F4F7E9FB10B961B0BDE8F08FD9F8B2
:1008800008005D905EA8C9F808004FF0000841F22A
:100890003202414620461DF0F7FE0C900C9800B243
:1008A0005690002120461DF0D5FE5590002120468F
:1008B0001DF07AFC5490002120461DF052FD53900B
:1008C000002120461DF0F6FD52904FF4A021204655
:1008D0001DF047FD51904FF4A02120461DF0EAFD88
:1008E00050904FF4A02120461DF0B4FE4F904FF4DD
:1008F000A02120461DF058FC4E90208C4D900020E9
:100900002084608C20F00400001D60843FA814F057
:1009100001FB3FAA4FF4A02120461EF027FB29A887
:1009200013F0ECFA29AA4FF4A02120461EF043FA56
:100930004D982084608C20F00400608400272046BD
:100940001CF032FD0146E28A55981044401E411ABF
:100950005698084400B2ADF86E0120461CF01AFD0E
:100960002090002120461DF020FA012800D100E04F
:1009700000201F9049460DA81BF0B2FF4FF4A020A5
:100980001A90FE480E9000200F9031A8119021A8D7
:1009900012904FF0000B33E2E86A30F91B000C9024
:1009A000BDF86E01401C00B2ADF86A01BDF86A11D5
:1009B0000C980844401E00B2ADF86E01BDF96A0102
:1009C000BDF97E11884200DD1EE21F9858B1218BCF
:1009D0005298081A401E2099411A5698081A00B2D7
:1009E000ADF868010AE0A18A53980844401E209996
:1009F000411A5698084400B2ADF86C010026F7E1A0
:100A000000200B90A86A50F8270020B1A86A50F87F
:100A1000270000780B901F9880B1BDF86801401E38
:100A200000B2ADF86C01286B30F81600BDF86C11FF
:100A3000081A401C00B2ADF868010FE0BDF86C0167
:100A4000401C00B2ADF86801286B30F81600BDF804
:100A500068110844401E00B2ADF86C014FF0000868
:100A600000BF34E007EB0801A86A50F8210048B342
:100A700007EB0802A96A51F8220008B101780B912E
:100A80000B9901F00101D9B11F9961B106EB080181
:100A9000491C2A6B32F81110BDF86821511A09B2AD
:100AA000ADF868110DE006EB0801491C2A6B32F81D
:100AB0001110BDF86C21114409B2ADF86C1100E0C1
:100AC0000BE000E009E008F101001FFA80F808EBF4
:100AD0000601A88C401E8142C4DB00BFBDF96E0137
:100AE000BDF97A11884207DA08F10100384487B26B
:100AF00006EB080086B279E100BFBDF86801ADF8E9
:100B00002400BDF86A01ADF82600BDF86C01ADF80F
:100B10002800BDF86E01ADF82A0000BF9DF81F0146
:100B2000400800F0040090B1BDF92410B4F914207D
:100B30005398104481420ADDBDF91C0100EBD071CD
:100B4000BDF82420A2EB610109B2ADF824109DF894
:100B50001F01400800F0020090B1BDF92610B4F961
:100B600016205598104481420ADDBDF91C0100EBA6
:100B7000D071BDF82620A2EB610109B2ADF82610B4
:100B80009DF81F01400800F00800B8B1BDF9281019
:100B9000B4F918205298101A401E81420EDABDF99D
:100BA0001C0100EBD07182B202F0010202EB610184
:100BB000BDF82820114409B2ADF828109DF81F0196
:100BC000C0F34000B8B1BDF92A10B4F91A20549806
:100BD000101A401E81420EDABDF91C0100EBD071E3
:100BE00082B202F0010202EB6101BDF82A20114439
:100BF00009B2ADF82A104FF0000AE88E584523D10B
:100C0000A88EB04220D194F8200000F0400030B906
:100C100094F8200000F0200008B14AF0200A94F86F
:100C2000200000F0020008B14AF0020A94F8200007
:100C300000F0040008B14AF0040A94F8200000F023
:100C4000080008B14AF0080ABAF1000F0AD13822A8
:100C50003FA931A81AF0CBF8202229A921A81AF01F
:100C6000C6F81EE0A4F820A0608C20F00400001D4F
:100C7000608431A814F04EF921A813F03FF931AA8D
:100C80004FF4A02120461EF071F921AA4FF4A021B3
:100C900020461EF090F84D982084608C20F00400CF
:100CA000608409A81090A88C0BFB00601B900DAA13
:100CB0001A21204615F0D4FE09AA31A9484614F09D
:100CC0000DF9A86A50F8270000287DD0BDF86811FA
:100CD0005198084400B2ADF86001BDF86C1150980D
:100CE000081A00B2ADF86401BDF86A114F980844C3
:100CF00000B2ADF86201BDF86E114E98081A00B24C
:100D0000ADF866010B98C0F340000890089810B148
:100D10000220579001E00020579000BFBDF8640109
:100D2000BDF86011401A401C00B20490BDF9962035
:100D300004995798CDE900210290A86A50F827003D
:100D4000411CBDF998305CA8299A24F02BF808982A
:100D500018BB0C9901EBD172BDF86A3103EB62024A
:100D6000BDF9720100EBD073A2EB630212B2ADF8D1
:100D700062210C9901EBD17202E000007422050897
:100D8000BDF86A3103EB6202BDF9720100EBD0736A
:100D900002EB630212B2ADF866215AAA5EA906A858
:100DA000F4F752F90590059890B106A8C9F8080023
:100DB00000200090A86A50F82700431C58AA21A9D7
:100DC000484612F0E7FC00E003E05EA8C9F808001E
:100DD00000BF0DAA1B21204615F042FE08F10100BC
:100DE000384487B206EB080086B200BF701C86B29A
:100DF000A88CB0423FF704AE0BF101001FFA80FB54
:100E0000E88C58453FF7C8AD00BF5D98C9F80800A9
:100E100000BF31E52DE9F04FA3B0074689461646DD
:100E2000229730460FF0E4FA054600EBD5704FEA02
:100E300060083088404400B2ADF8840070884044B7
:100E400000B2ADF886001EA813F0A4F81EAA4FF455
:100E5000A02138461EF016F818A812F07EFC18AA39
:100E60004FF4A02138461DF047FF002138461DF001
:100E7000D8F81790494605A81BF032FD7048069037
:100E800021A80E9022983030F5F7A6FB0446D1E059
:100E900025681694207901285CD1B5F92000E98BEA
:100EA00008440090B5F92030D5E90512E06819F042
:100EB00033FE8246A88B00EB0801608A08440FFAD3
:100EC00080FB0FFA8AF023F07FFE10FB0BF047F651
:100ED000FF7190FBF1F0BDF88610084400B2ADF848
:100EE00012000FFA8AF023F067FE10FB0BF047F6B2
:100EF000FF7190FBF1F0BDF88410084400B2ADF82A
:100F00001000A08AADF87800208A00B2ADF87A000F
:100F10006079FD2801DD179803E06079179948434F
:100F200000128DF88000012013901EA80B9004A8D9
:100F30000F9005AA1A21384615F092FD04AB21AA9C
:100F40001EA9484613F00FF805AA1B21384615F0D4
:100F500087FD68E02079002865D1206900B963E049
:100F6000B5F92000E98B08440090B5F92030D5E9A7
:100F70000512E06819F0D0FD824604A9206917F037
:100F800091FABDF88410A08A081A00B2ADF80800E2
:100F9000BDF88610E08A081A00B2ADF80A00BDF864
:100FA00008000499C1F38A210844401E00B2ADF83C
:100FB0000C00BDF80A00049900EB5150401E00B22D
:100FC000ADF80E006079FD2801DD179803E0607927
:100FD0001799484300128DF86B00A08AADF86400A1
:100FE000E18A18A8C1800AEB8A004FEA400ABAF5E4
:100FF000616F01DDAAF5616A1FFA8AF0ADF8600041
:1010000018A80C9005AA1A21384615F029FD02AA45
:1010100018A94846236912F051FB05AA1B2138463E
:1010200015F01EFD00BF00BF214622983030F5F7B5
:10103000CDFA0446002C7FF42BAF23B0BDE8F08F2F
:10104000103504082DE9F74F8AB00C46904694F805
:101050002A00022802DC0DB0BDE8F08FE08C00B958
:10106000F9E794F82A90B9F1FD0F01DD4FF0FF097F
:10107000414608A80FF0B4F8208D401E05B2BDF817
:101080002000401B00B2ADF82000BDF82200401B3C
:1010900000B2ADF82200BDF82400284400B2ADF83B
:1010A0002400BDF82600284400B2ADF8260008A9A7
:1010B00006A80FF095F8BDF81800E18C401A00B2B0
:1010C000ADF81800BDF81C00E18C084400B2ADF882
:1010D0001C00BDF81A00E18C401A00B2ADF81A00ED
:1010E000BDF81E00E18C084400B2ADF81E0008A84F
:1010F0000FF05BF9824608A80FF0DDF80746B4F957
:101100000060BA4501DA504600E038468346B6EB47
:101110006B0F01DD4FEA6B06E08C304400B20590A6
:10112000A07894F82A10CDE90210A08CADF8040044
:1011300030B2009008AA06A9059B0A98FBF754FC58
:1011400000BF88E7F8B50546284615F083FC06463B
:10115000284615F07CFC0446606BB0F5A02F54D1F6
:10116000A06B072806D200202169C870216981F888
:10117000220014E0208F81B22022304610F008F8BF
:1011800068B100202169C870216981F8220012200D
:101190001FF0DCFD0090BDF8001060698181208F98
:1011A00081B24FF4004230460FF0F2FF98B1662052
:1011B0002169C870304623F0DDF90090BDF80010B9
:1011C0002069818030460FF0DDFFA16B884202D19B
:1011D000B2202169C870208F81B24FF4804230461E
:1011E0000FF0D6FF88B1FF20216981F82200304638
:1011F00023F0C0F90090BDF800102069C183206978
:10120000008C401C00B221690884F8BD2DE9F04F24
:101210008BB08146484615F01DFC05462C464846D5
:1012200015F0BFFB8346606A18F028FC82469AF8E6
:10123000000000283ED1A06A00283BD0A06A0078B8
:10124000C0B303A812F05AFE03AA4FF400212846A7
:101250001DF0B1FD94F85C00C0F3C00028B19DF80A
:10126000290040F002008DF82900002128461DF0D9
:1012700085F80746002128461DF0F9F9804600212F
:1012800028461CF013FE064605F1140101A80EF0D5
:10129000E6FF08EB060002B2B81901B201A80FF090
:1012A000E2F80020009001AA03A95846A36A12F0B0
:1012B00071FA00BF0BB0BDE8F08F7CB50446A069A1
:1012C00085686089002856D1A089002853D1E0881C
:1012D000218988424FDAE18808B223F075FCB4F91D
:1012E0000410B4F90E20891A48432168498801EB9B
:1012F000E03000B2ADF80200E1885A3108B223F0C4
:1013000063FCA18810FB01F02168098801EBE03043
:1013100000B2ADF80400218908B223F055FCA18881
:1013200010FB01F02168498801EBE03000B2ADF814
:10133000060021895A3108B223F046FCB4F90410A2
:10134000B4F90E20891A48432168098801EBE0307E
:1013500000B2ADF800002A4669466846F3F774FE0D
:1013600006463EB1A169C1F808D06A462169A06964
:1013700013F0B4FDC2E0608910B1A08900287BD1D0
:101380006089D0BB20680088ADF8000020684088E4
:10139000A188084400B2ADF80600E18808B223F045
:1013A00013FCB4F90410B4F90E20891A48432168DB
:1013B000498801EBE03000B2ADF80200E1885A3113
:1013C00008B223F001FCA18810FB01F02168098814
:1013D00001EBE03000B2ADF804002A4669466846E9
:1013E000F3F732FE06463EB1A169C1F808D06A465D
:1013F0002169A06913F072FD00BFA08900287DD18A
:1014000020680088A188084400B2ADF80400206874
:101410004088ADF80200218908B223F0D5FBA188ED
:1014200010FB01F02168498801EBE03000B2ADF813
:10143000060021895A3108B223F0C6FBB4F9041022
:10144000B4F90E20891A48432168098801EBE0307D
:1014500000B2ADF800002A4669466846F3F7F4FD8D
:1014600006463EB1A169C1F808D06A462169A06963
:1014700013F034FD42E0FFE76089A189884205D17D
:10148000608918B12089E188884211DB60890228CF
:1014900002D1A08901280BD06089032802D1A0893C
:1014A000022805D06089032828D1A089012825D1E8
:1014B00020680088ADF8000020684088ADF8020080
:1014C00020680088A188084400B2ADF804002068B4
:1014D0004088A188084400B2ADF806002A46694653
:1014E0006846F3F7B1FD06463EB1A169C1F808D0E0
:1014F0006A462169A06913F0F1FC00BFA06985600C
:101500007CBD7CB50446A06985686089012856D1F8
:10151000A089012853D1E088218988424FDAE188E7
:1015200008B223F051FBA18810FB01F02168498823
:1015300001EBE03000B2ADF80600E1885A3108B2A4
:1015400023F042FBB4F90410B4F90E20891A484381
:101550002168098801EBE03000B2ADF80400218970
:1015600008B223F031FBB4F90410B4F90E20891A43
:1015700048432168498801EBE03000B2ADF8020031
:1015800021895A3108B223F01FFBA18810FB01F01A
:101590002168098801EBE03000B2ADF800002A466E
:1015A00069466846F3F750FD06463EB1A169C1F8A9
:1015B00008D06A462169A06913F090FCC7E06089F1
:1015C000012802D0A08901287ED1608901283AD162
:1015D00020680088A188401A00B2ADF80000206899
:1015E0004088ADF80200E18808B223F0EDFAA18846
:1015F00010FB01F02168498801EBE03000B2ADF842
:101600000600E1885A3108B223F0DEFAB4F904107A
:10161000B4F90E20891A48432168098801EBE030AB
:1016200000B2ADF804002A4669466846F3F70CFD9F
:1016300006463EB1A169C1F808D06A462169A06991
:1016400013F04CFC00BFA0890128B7D120680088A6
:10165000401E00B2ADF8040020684088A18808440C
:1016600000B2ADF80600218908B223F0ADFAB4F952
:101670000410B4F90E20891A48432168498801EB07
:10168000E03000B2ADF8020021895A3108B223F0EF
:101690009BFAA18810FB01F02168098801EBE0307A
:1016A00000B2ADF800002A4669466846F3F7CCFC64
:1016B00006463EB1A169C1F808D06A462169A06911
:1016C00013F00CFC43E0FFE76089A189884206D152
:1016D0006089012803D02089E18888420FDB608976
:1016E00010B9A08902280AD0608910B9A0890328FE
:1016F00005D0608903282AD1A089022827D1206833
:101700000088A188401A00B2ADF800002068408827
:10171000ADF8020020680088401E00B2ADF8040059
:1017200020684088A188084400B2ADF806002A4627
:1017300069466846F3F788FC06463EB1A169C1F8E0
:1017400008D06A462169A06913F0C8FB00BFA069F0
:1017500085607CBD7CB50446A069856860890228E7
:1017600056D1A089022853D1E088218988424FDAD6
:10177000E1885A3108B223F027FAA18810FB01F062
:101780002168098801EBE03000B2ADF80000E18883
:1017900008B223F019FAB4F90410B4F90E20891A2A
:1017A00048432168498801EBE03000B2ADF80600FB
:1017B000218908B223F008FAA18810FB01F0216802
:1017C000498801EBE03000B2ADF8020021895A31BE
:1017D00008B223F0F9F9B4F90410B4F90E20891A0B
:1017E00048432168098801EBE03000B2ADF80400FD
:1017F0002A4669466846F3F727FC06463EB1A169CA
:10180000C1F808D06A462169A06913F067FBCCE0F3
:101810006089022802D0A08902287DD1608902282F
:101820003CD120680088401E00B2ADF8040020685A
:101830004088A188401A00B2ADF80200E1885A3110
:1018400008B223F0C1F9A18810FB01F021680988D2
:1018500001EBE03000B2ADF80000E18808B223F0FF
:10186000B3F9B4F90410B4F90E20891A4843216879
:10187000498801EBE03000B2ADF806002A4669461F
:101880006846F3F7E1FB06463EB1A169C1F808D00E
:101890006A462169A06913F021FB00BFA0890228D4
:1018A000B5D120680088A188401A00B2ADF80000C8
:1018B00020684088401E00B2ADF8060021895A31E8
:1018C00008B223F081F9B4F90410B4F90E20891A92
:1018D00048432168098801EBE03000B2ADF804000C
:1018E000218908B223F070F9A18810FB01F021686A
:1018F000498801EBE03000B2ADF802002A466946A3
:101900006846F3F7A1FB06464EB1A169C1F808D0BD
:101910006A462169A06900E002E013F0DFFA44E0C2
:101920006089A189884206D16089022803D0208974
:10193000E18888420FDB608910B9A08903280AD0AA
:101940006089012802D1A089032804D06089012878
:101950002BD1A08948BB20680088A188401A00B21A
:10196000ADF8000020684088A188401A00B2ADF8A8
:10197000020020680088401E00B2ADF80400206814
:101980004088401E00B2ADF806002A466946684607
:10199000F3F75AFB06463EB1A169C1F808D06A4682
:1019A0002169A06913F09AFA00BFA06985607CBD27
:1019B0007CB50446A06985686089032856D1A08952
:1019C000032853D1E088218988424FDAE1885A31CF
:1019D00008B223F0F9F8B4F90410B4F90E20891A0A
:1019E00048432168098801EBE03000B2ADF80000FF
:1019F000E18808B223F0E8F8A18810FB01F0216823
:101A0000498801EBE03000B2ADF8020021895A317B
:101A100008B223F0D9F8A18810FB01F021680988E9
:101A200001EBE03000B2ADF80400218908B223F0E8
:101A3000CBF8B4F90410B4F90E20891A4843216890
:101A4000498801EBE03000B2ADF806002A4669464D
:101A50006846F3F7F9FA06463EB1A169C1F808D025
:101A60006A462169A06913F039FAC7E06089032842
:101A700002D0A08903287ED1608903283CD1206848
:101A80000088A188084400B2ADF8040020684088AE
:101A9000401E00B2ADF80600E1885A3108B223F0CA
:101AA00093F8B4F90410B4F90E20891A4843216858
:101AB000098801EBE03000B2ADF80000E18808B21F
:101AC00023F082F8A18810FB01F02168498801EB1E
:101AD000E03000B2ADF802002A4669466846F3F7E6
:101AE000B3FA06463EB1A169C1F808D06A46216939
:101AF000A06913F0F3F900BFA08903287ED1206804
:101B00000088ADF8000020684088A188401A00B223
:101B1000ADF8020021895A3108B223F055F8A188A6
:101B200010FB01F02168098801EBE03000B2ADF84C
:101B30000400218908B223F047F8B4F90410B4F97D
:101B40000E20891A48432168498801EBE03000B231
:101B5000ADF806002A4669466846F3F775FA064668
:101B60003EB1A169C1F808D06A462169A06913F0A5
:101B7000B5F943E0FFE76089A189884206D1608911
:101B8000032803D02089E18888420FDB608902287E
:101B900001D1A08950B16089012801D1A08928B163
:101BA000608902282AD1A089012827D120680088CD
:101BB000ADF8000020684088A188401A00B2ADF856
:101BC000020020680088A188084400B2ADF8040033
:101BD00020684088401E00B2ADF806002A466946DB
:101BE0006846F3F731FA06463EB1A169C1F808D05C
:101BF0006A462169A06913F071F900BFA069856088
