:020000040800F2
:10000000C0FB0020D1020008C32D0008BB2D000852
:10001000BF2D0008DD18000889300008000000002E
:10002000000000000000000000000000390200088D
:10003000E1180008000000007D020008ED2D000816
:10004000EB020008EB020008EB020008EB020008DC
:10005000EB020008EB020008EB020008EB020008CC
:10006000EB020008EB020008EB020008EB020008BC
:10007000EB020008EB020008EB020008EB020008AC
:10008000EB020008EB020008EB020008EB0200089C
:10009000EB020008EB020008EB020008EB0200088C
:1000A000EB020008EB020008EB020008EB0200087C
:1000B000EB020008EB020008EB020008EB0200086C
:1000C000EB020008EB020008EB020008EB0200085C
:1000D000EB02000865300008EB020008EB020008A4
:1000E000EB020008EB020008EB020008EB0200083C
:1000F000EB020008EB020008EB020008EB0200082C
:10010000EB020008EB020008EB020008EB0200081B
:10011000EB020008EB020008052E0008EB020008C5
:10012000EB020008EB020008EB020008EB020008FB
:1001300000F002F800F070F80AA090E8000C824489
:100140008344AAF10107DA4501D100F065F8AFF266
:10015000090EBAE80F0013F0010F18BFFB1A43F0A5
:100160000103184734E9040054E904000A444FF03D
:10017000000C10F8013B13F0070408BF10F8014B06
:100180001D1108BF10F8015B641E05D010F8016B4B
:10019000641E01F8016BF9D113F0080F1EBF10F8AF
:1001A000014BAD1C0C1B09D16D1E58BF01F801CBD2
:1001B000FAD505E014F8016B01F8016B6D1EF9D555
:1001C0009142D6D37047000000230024002500266A
:1001D000103A28BF78C1FBD8520728BF30C148BFAA
:1001E0000B607047662938F03881642900F052812D
:1001F000782900F08B81732900F0838600207047F6
:100200001FB500F0B7FE04000020002137F0C6FB48
:10021000E0601FBD10B510BD00F06AFF1146FFF78A
:10022000EFFF2EF0CFFF00F088FF03B4FFF7F2FFDF
:1002300003BC05F077F80000224B19680868B0E8A5
:10024000F00F80F30988BFF36F8F4FF0000080F349
:1002500011884EF00D0E704700000000064800683F
:10026000006880F3088862B661B6BFF34F8FBFF3B2
:100270006F8F00DF00BF00BF08ED00E0EFF30980E3
:10028000BFF36F8F0F4B1A6820E9F00F106008B5AD
:100290004FF0500080F31188BFF34F8FBFF36F8F83
:1002A00036F000FC4FF0000080F31188BDE80840F4
:1002B00019680868B0E8F00F80F30988BFF36F8F02
:1002C000704700BF98000020EFF3058070470000E2
:1002D0000948804709480047FEE7FEE7FEE7FEE7DA
:1002E000FEE7FEE7FEE7FEE7FEE7FEE70448054916
:1002F000054A064B70470000012E00083101000836
:10030000C0F50020C0FB0020C0F70020C0F700208F
:10031000704753EA020C00F069802DE9F04B4FF072
:100320000006002B1FBFB3FA83F503FA05F424FA85
:1003300005F65E4012BF1643B2FA82F502FA05F4E2
:10034000C5F120051EBF22FA05FC44EA0C04203545
:1003500056EA044C4FEA144418BF641C4FF00008DE
:100360004FF00009904271EB030C39D3002919BFFB
:10037000B1FA81F701FA07F6B0FA80F700FA07F64A
:10038000C7F120071EBF20FA07FC46EA0C062037FB
:10039000B6FBF4FCA7EB0507103F07F01F0BCBF1F2
:1003A00020060CFA0BFB2CFA06F644BFB3460026D7
:1003B000202FA4BF5E464FF0000B5BEA060C08BF7F
:1003C0004FF0010B19EB0B09ABFB027C48EB060865
:1003D000C01B06FB02CC0BFB03CC71EB0C01C1E78D
:1003E0000B46024641464846BDE8F08B13B54FF038
:1003F00000004FF00001AFF30080BDE81C407047E3
:100400000FB4044910B503AA029800F07FFD10BC98
:100410005DF814FB140000200FB41CB5074B06AAAE
:100420007B4469460090059800F041FD0020694634
:1004300000F050FD1CBC5DF814FB0000B10A000088
:1004400070B50C460546012A05D02878800600D5EF
:10045000EA69002302E0012305E05B1C934202D21B
:10046000E05C0028F9D1A869E618C01AA861286ADA
:10047000184428622846AFF3008004E0D5E9012142
:1004800014F8010B9047B442F8D32846AFF300802C
:1004900070BD00002DE9F041064600241068752962
:1004A000314616A510D0AFF30080002802DA404292
:1004B00013A507E031688A0701D512A502E04907B4
:1004C00004D511A5012401E0AFF3008000210A2228
:1004D00006F1240709E0B0FBF2FCB0FBF2F302FBEB
:1004E0001C00303078541846491C0028F3D12346AC
:1004F0002A463046BDE8F04100F06BBA000000002B
:100500002D0000002B0000002000000070B5044604
:100510000D4621461068AFF300802188090502D5F9
:100520000F4A7A4402E00E4A7A440E32002104F166
:10053000240305E000F00F060009965D5E54491C97
:100540000028F7D120780023000704D5702D02D0B1
:1005500009B1022311322046BDE8704000F039BADB
:100560005ADF04002DE9F05F894604464FF0000A87
:10057000DFF874B1FB44C0F820A02046E16888474A
:10058000002874D0252806D0D4E901219047206A9C
:10059000401C2062F1E700265F462046E16888475C
:1005A0002028054607DB312D05D2781910F8200CDC
:1005B00008B10643F1E7B00701D526F00406C4F8F8
:1005C0001CA00027C4F818A02A2D09D0284602F044
:1005D000ABFD38B304EB8708303DC8F8185019E07C
:1005E00059F8041B204604EB87029161E1688847B3
:1005F000012F054618D1E069002820DA26F02006F0
:100600001DE0D8F8180000EB800005EB4000303802
:10061000C8F818002046E1688847054602F084FDC6
:100620000028EED1012F0AD02E2D08D12046E168F6
:1006300088477F1C0546022F46F02006C4DBA069D0
:10064000002803DA404246F00106A061F00701D01D
:1006500026F010066C2D0BD0682D09D04C2D39D00A
:100660006A2D35D0742D35D07A2D33D016E038E090
:10067000E1682F4620468847B842054609D16C2FCD
:1006800026D04FF48060E16806432046884705463F
:1006900004E06C2F1AD04FF4807006430DB3A5F11F
:1006A0004100192802D8203546F400664A462946FA
:1006B000204626604E46FFF795FD80B101280BD0FD
:1006C000F61D26F0070000F1080956E74020E4E790
:1006D0008020D8E70020D6E706F104094DE7284638
:1006E00052E7206ABDE8F09F30DF040040EA0103D2
:1006F000024630B59B0710D14FF0013400E008C22C
:1007000008C91D1B9D4315EAC41FF8D013F0FF0153
:1007100002F8011B0DD01B0AF8E711F8013B002B72
:1007200002F8013B05D011F8013B002B02F8013B18
:10073000F3D130BD10B5431C02E010F8011B71B1BC
:100740008107FAD14FF0013202C88C1A8C4314EAA7
:10075000C211F9D0C01A0A0603D0C01E10BDC01ABB
:1007600010BD0A0401D0801E10BD0902FCD0401E3D
:1007700010BD032A40F2308010F0030C00F0158009
:1007800011F8013BBCF1020F624498BF11F801CB94
:1007900000F8013B38BF11F8013BA2F1040298BFF9
:1007A00000F801CB38BF00F8013B11F0030300F063
:1007B0002580083AC0F0088051F8043B083A51F807
:1007C00004CBA0E80810F5E7121D5CBF51F8043B0C
:1007D00040F8043BAFF30080D20724BF11F8013B7F
:1007E00011F801CB48BF11F8012B24BF00F8013BE1
:1007F00000F801CB48BF00F8012B704710B5203A34
:10080000C0F00B80B1E81850203AA0E81850B1E8C9
:100810001850A0E81850BFF4F5AF5FEA027C24BF7F
:10082000B1E81850A0E8185044BF18C918C0BDE876
:1008300010405FEA827C24BF51F8043B40F8043B3F
:1008400008BF7047D20728BF31F8023B48BF11F8F4
:10085000012B28BF20F8023B48BF00F8012B70474E
:1008600002F0FF0343EA032242EA024200F062BBC5
:100870004FF0000200B5134694469646203922BF39
:10088000A0E80C50A0E80C50B1F12001BFF4F7AF84
:10089000090728BFA0E80C5048BF0CC05DF804EB66
:1008A000890028BF40F8042B08BF704748BF20F8D4
:1008B000022B11F0804F18BF00F8012B7047000089
:1008C0004FF0013C50F8042B51F8043B9A4221D1DF
:1008D000A2EB0C03934313EACC1317D150F8042B6B
:1008E00051F8043B9A4215D1A2EB0C03934313EA4F
:1008F000CC130BD150F8042B51F8043B9A4209D188
:10090000A2EB0C03934313EACC13DBD04FF00000AF
:10091000704700BFD01A01BAB1FA81F101F0180195
:1009200022FA01F0CB40C1F12001DBB2C0B2C01A03
:100930002CFA01F3D11A914311EAC311E6D17047A1
:10094000704770477047704730B5B0F10A024FEA00
:10095000900E71F100034EEA817EB0EB0E0061EB68
:1009600091014FEA101E4EEA017E10EB0E0041EBA2
:1009700011114FEA102E4EEA016E10EB0E0041EB02
:1009800011214FEA104E4EEA014E10EB0E0041EBE2
:100990001141401841F100014FEAD00040EA417096
:1009A0004FEAD10110EB80054FEA810444EA9074CC
:1009B00044EB01046D1944EB0404521BA3414FF0B6
:1009C000000348BF0A3200D530BD401C41F1000190
:1009D00030BD2DE9F0470D4699469246044600F198
:1009E00024080168880604D5E06921F0100121601F
:1009F00000E00120A84201DD471B00E00027A169BB
:100A00007A1902EB0900081AA0612078C00602D406
:100A10002046AFF30080002608E0D4E901211AF84F
:100A200006009047206A401C761C20624E45F4DB8D
:100A30002078C0060AD52046AFF3008006E0D4E94E
:100A4000012130209047206A401C2062381EA7F107
:100A50000107F4DC07E0D4E9012118F8050090470C
:100A6000206A401C2062281EA5F10105F3DC204607
:100A7000AFF300802078000602D50220BDE8F087A1
:100A80000120FBE770472DE9FF4F0C461E464FF053
:100A9000FF378BB0D2E90001DDF860800A908A460A
:100AA000C1F30A5505B93D46002108464FF0000044
:100AB000BAF1000F00F4400005DA00EB80004FF4BB
:100AC000400101EA50004FEA9059B9F1010F00DDF1
:100AD000B9460A9850EA4A000ED044F61050A5F2E2
:100AE000FF3545432F14B8F1000F1ED07542291E63
:100AF0001EDDC9F100021CE0B8F1010F4FF000004B
:100B000001D0302103E0F24305E02154401CB04203
:100B1000FBDB30460022002121540B99C1F80880EC
:100B2000C1E900200FB0BDE8F08FBD1B6D1CDEE7F2
:100B30004A4600DA694206A800F060FA06AB93E87C
:100B4000070003AB83E8070050460A9900F0FEFA5D
:100B50008DE80700A0F500501F3800900398002D85
:100B60000ADD42F21F014A460844002303A903900C
:100B7000684600F067FD09E0A0F500504A461F38BE
:100B8000002303A90390684600F071FD8DE807007B
:100B90000004000C03D04FF0FF30410800E0104685
:100BA000B8F1000F03D00022009215461EE0751E1A
:100BB00005D4FFF7C9FE303262556D1EF9D5B34634
:100BC0000122084302D000227F1C04E02078302854
:100BD00001D100227F1E002A099784D01DE0112D2B
:100BE00007DAFFF7B1FE303262556D1C50EA0102A0
:100BF000F5D1084302D00098C8B10EE00021681E6C
:100C000005E0235C625C63542254401E491C81420F
:100C1000F7DBAB46A81B401E0990002004F80B0030
:100C20000B98099AC0F80880C0E9002B7AE71126D2
:100C30004FF0000857E72DE9F04F88460446D21DD3
:100C400022F0070191B0D1E90001CDE90A0102F0DB
:100C50001DFA02460B98C00F01D02D2007E0206836
:100C6000810701D52B2002E0202101EAC000032AE0
:100C7000099001D0072A05DB03464146204600F0D3
:100C80007DF90BE12078800601D5E06900E00620BF
:100C9000B8F1650F814606D0B8F1660F18D0B8F1EB
:100CA000670F70D131E00020B9F1110F009001DB26
:100CB000112301E009F101030AAA01A90CA8FFF719
:100CC000E2FEDDE90C70002609F10105834647E0EC
:100CD00001204B4600904FF000470AAA01A90CA83A
:100CE000FFF7D1FEDDE90DB00C995D46002610B985
:100CF00009F101000D18B9EB050003D4C0F1FF366E
:100D000009F10105A5EB09002BE0B9F1010F01DAAA
:100D10004FF001090020B9F1110F0090484601DDA4
:100D2000112300E003460AAA01A90CA8FFF7ABFEB5
:100D3000DDE90C704D4600268346207800070AD472
:100D4000AB4500DA5D4601A8012D04DD411911F81B
:100D5000011C302907D04F4502DA17F1040F04DADD
:100D6000012082460FE06D1EEEE7002F02DCED1B36
:100D70003E4403E0781CA84200DD7D1CB81B00F156
:100D8000010A4FF000472078000703D4AA4501DB91
:100D90004FF0FF3A0021B7F1004F0DF143088DF8F5
:100DA000431024D002202B23002F01DA7F422D2371
:100DB0000A21021EA0F1010000DC5FB197FBF1FCEB
:100DC00097FBF1F201FB1C7C17460CF1300C08F884
:100DD00001CDEEE7A8F1010003702188090501D5D6
:100DE000452100E06521A0F1010800F8011C0998E7
:100DF0000FA9A1EB0807FF1D00B10120411901EB6C
:100E0000EA70A1693844081A401EA0612078C00623
:100E100002D42046AFF30080099828B1D4E901211B
:100E20009047206A401C20622078C00622D52046C8
:100E3000AFF300801EE0002E04DBB34502DD01A805
:100E4000805D00E03020D4E901219047206A401CF9
:100E50002062761CAAF101005FEA000A0AD100F0C4
:100E600089F8C0680168405CD4E901219047206A94
:100E7000401C2062281EA5F10105DCDC07E0D4E956
:100E8000012118F8010B9047206A401C2062381E8F
:100E9000A7F10107F3DC2046AFF30080032011B077
:100EA00041E6000001694A1C02610878704700B5FC
:100EB0008FB0CDE901310021059105497944CDE993
:100EC000031011466846FFF74DFB0FB000BD000050
:100ED000E5FFFFFF0A6802F8010B0A60704710B5D2
:100EE000436913B1AFF3008001E0FFF7A9FA0120D5
:100EF00010BD127800F124010A7000224A7001220C
:100F0000EDE711684FF0FF32E9E70000074B70B5DD
:100F10000D467B44FFF7CBFF0446284600F0E0F87F
:100F200010B14FF0FF3070BD204670BD1B0A0100AC
:100F30004FF000020429C0F0128010F0030C3FF4BF
:100F400099ACCCF1040CBCF1020F18BF00F8012BD6
:100F5000A8BF20F8022BA1EB0C01FFF78BBC5FEAC6
:100F6000C17C24BF00F8012B00F8012B48BF00F81A
:100F7000012B7047004870477CF500202DE9F041B7
:100F80001F46044603260168072A01F4006004DBBB
:100F900008B116A505E016A503E008B115A500E007
:100FA00015A521F010002060A069C01EA0610FB13E
:100FB000401EA0612046AFF300804FB1D4E901216B
:100FC00038469047206A401C2062C01C206206E020
:100FD000206AFAE7D4E9012115F8010B9047761E43
:100FE000F8D22046AFF30080BDE8F0814E414E00BC
:100FF0006E616E00494E4600696E66002DE9F0474D
:10100000814616468AB0354878440DC88DE80D00F3
:1010100032487844801C03AC0DC884E80D0041F6CA
:101020009B300844372190FBF1F290FBF1F5A5F1DC
:10103000800501FB12041B3C02D56442012000E044
:101040000020DFF898A080460027FA44AAF1BE0AE3
:101050000EE0E0070AD03246684607EB470101235D
:101060000AEB810100F003FB8DE8070064107F1C90
:10107000002CEED1194F7F44AE3F19E0E80715D0A0
:1010800007EB04100DF1180A90E80E008AE80E0034
:10109000C068F04201D1981908903246012306A990
:1010A00003A800F0E4FA03AB83E807006D10641CAA
:1010B000002DE3D14FF0010332466946B8F1000F2D
:1010C00003A802D000F0BEFA01E000F0D0FAC9E9AE
:1010D0000001C9F808200AB0BDE8F0872CD504004B
:1010E000007B00F080007047004870475CF50020EE
:1010F0007546FFF7F9FFAE4605006946534620F0F6
:101100000700854618B020B5FFF7F0F8BDE820408D
:101110004FF000064FF000074FF000084FF0000BB3
:1011200021F00701AC46ACE8C009ACE8C009ACE866
:10113000C009ACE8C0098D46704710B50446AFF34E
:1011400000802046BDE81040FFF76FB85FEA400C12
:1011500008BF91F0000F4FEA8C234FEAC12243EA07
:1011600051514FEA1C5018BF00F5F0404FEA3000D3
:1011700018BF41F000415FEA6C5C00F02980BCF1CF
:10118000FF3F08BF40F080407047130C06BF1204B9
:101190004FF0100C4FF0000C130E04BF12020CF1B4
:1011A000080C130F04BF12010CF1040C930F04BFC1
:1011B00092000CF1020CD30F04BF52000CF1010C91
:1011C00011464FF00002A0F11F00A0EB0C00704789
:1011D00011F0004F08BF704731F000413FF4D5AF28
:1011E0000B0C06BF09044FF0100C4FF0000C0B0E57
:1011F00004BF09020CF1080C0B0F04BF09010CF12C
:10120000040C8B0F04BF89000CF1020CCB0F04BF40
:1012100049000CF1010CCCF12003A0EB0C0022FAE8
:1012200003F302FA0CF241EA030100F101007047F6
:1012300020F07F4C80EA030023F07F47ACEB0703EC
:1012400003F57C5300F0004003F1FF032DE98049D2
:101250004FEA154B09B44FEA144325EA0B4E24EA32
:1012600003480FF2042606EB132749083E785FEA8D
:10127000320203FB0667C7F5000707FB06F64FEAD5
:1012800054374FEAD64606F1020607FB066CCCF14E
:10129000005C4FEA1C472CEA074C07FB06F40CFBEA
:1012A00006F504EB15464FEA961634BF00204FF0C2
:1012B00000404FEAD13706FB07FC4FEA1C4C0CFB01
:1012C0000BF7D21B03FB0CF761EB07010CFB0EF7CE
:1012D000B0EB074072EB17420CFB08F734BFA2EBF0
:1012E0000742B2EB074261EB17414FEA0C444FEA69
:1012F000910706FB07FC4FEA1C4C0CFB0BF7B0EB0D
:10130000C74072EB573203FB0CF734BFA2EBC74266
:10131000B2EBC74261EB57310CFB0EF7B0EBC700E5
:1013200072EB57720CFB08F734BFA2EBC702B2EBAB
:10133000C70261EB5771039F4FEA816141EA921145
:1013400004EBCC044FEAD1374FEA826206FB07FC7C
:1013500042EA90124FEA80604FEA1C4C0CFB0BF7FC
:10136000D21B03FB0CF761EB07010CFB0EF7B0EB94
:10137000074072EB17420CFB08F734BFA2EB0742A1
:10138000B2EB074261EB17414FEA8C554FEA9107E8
:1013900004EB9C2406FB07FC4FEA1C4C0CFB0BF7F0
:1013A000B0EBC74072EB573203FB0CF734BFA2EB34
:1013B000C742B2EBC74261EB57310CFB0EF7B0EB03
:1013C000C70072EB57720CFB08F734BFA2EBC702E1
:1013D000B2EBC70261EB577115EB4C254FEA816107
:1013E00041EA92114FEA82624FEAD13742EA901203
:1013F00006FB07FC44F100044FEA80604FEA1C4CF6
:101400000CFB0BF7D21B03FB0CF761EB07010CFB8A
:101410000EF7B0EB074072EB17420CFB08F734BF36
:10142000A2EB0742B2EB074261EB174115EB1C152B
:101430004FEA813141EA92414FEA823242EA9042D8
:101440004FEA80304FEA0C7644F1000448EA034347
:101450004EEA0B484FF0000EB2EB080C71EB03079D
:1014600024BF624639464EEB0E0E4FF0000B0018BB
:10147000524149414BEB0B0BB2EB080C71EB0307EC
:101480007BF1000B24BF624639464EEB0E0E4FF047
:10149000000B0018524149414BEB0B0BB2EB080C0F
:1014A00071EB03077BF1000B24BF624639464EEB1C
:1014B0000E0E51EA020718BF46F0010616EB0E7633
:1014C00055F1000254F1000103D5BDE88901BDE8E2
:1014D0000088BDE88901BDE80048B619524141EBDA
:1014E0000101A3F10103704780807F7E7D7C7B7AC0
:1014F0007978777676757473727171706F6E6E6DC0
:101500006C6C6B6A6A696868676666656464636365
:1015100062616160605F5F5E5E5D5D5C5C5B5B5AEB
:101520005A59595858575756565555555454535358
:1015300052525251515050504F4F4F4E4E4D4D4DB3
:101540004C4C4C4B4B4B4A4A4A49494948484847FE
:10155000474747464646454545444444444343433C
:101560004342424242414141002B9C4630D47700E5
:101570002BD01CB54FEA370703B44FF010004FF0E3
:101580001001BAF1000F06D0BCF1000FDCBF40F033
:10159000080040F008014FF000000FBCBDE810400B
:1015A0000BF1010BBBF1010F08BF5FEA170722BF68
:1015B00012F1010211F101014FF0004143F100036A
:1015C00000F0004043EA00007047F9D35708D0E725
:1015D00046EA064613F1400F4FEA16461FDD13F1A7
:1015E000200FDFBF16430A46002120335B42BED0E6
:1015F000C3F1200746EA064602FA07F74FEA164605
:1016000046EA0706C3F1200722FA03F201FA07F7B8
:1016100021FA03F14FF0000342EA0702A7E746EA86
:10162000020646EA06464FEA164646EA0106BCBFEF
:1016300046EA0646360C4FF000034FF000024FF02A
:10164000000194E72DE9804C9A46934670B491E8E6
:10165000380007C831EA400C48BF34EA430C03D5D0
:10166000FFF7E6FDFFF780FFF0BCBDE8008C2DE939
:10167000804C9A46934670B491E8380007C810F041
:10168000804F08BF13F0804F03D100F005F8FFF73B
:101690006BFFF0BCBDE8008C20F07F4780EA0300C0
:1016A00023F07F4C07EB0C03A3F57C5300F00040C4
:1016B000A3F1FE0392F0000F00F0B38095F0000F4D
:1016C00000F077802DE901494FEA11404FEA1446B6
:1016D00021EA004800FB06FC24EA064708FB06F660
:1016E00007FB08F800FB07F718EB06484CEB164C15
:1016F0004FEA124B18EB07484FEA15464CEB1740E0
:1017000022EA0B4E0BFB06FC25EA06470EFB06F60B
:1017100007FB0EFE0BFB07F71EEB064E4CEB164CC1
:101720004FF000061EEB074E4CEB174B18EB0B0867
:1017300040F1000018EB0E0B58EB000840F10000E0
:101740008F1A4FF000013CBFC943661B14BFB5EBB5
:10175000040C00213CBFC943F61B4FEA17444EEA74
:101760008E0E27EA04454FEA1C4704FB07622CEA69
:10177000074C05FB07F70CFB05F604FB0CFC16EB0E
:10178000074642EB174216EB0C4642EB1C421BEBA2
:10179000060658EB0202414146EA9E0601D5BDE825
:1017A0000189B619524141EB0101A3F10103BDE8E2
:1017B00001894FEA14454FEA114724EA054621EA18
:1017C000074C05FB07F406FB07F70CFB06F105FBCE
:1017D0000CFC11EB074144EB17444FEA124711EBA5
:1017E0000C4144EB1C4422EA074C05FB07F206FBC4
:1017F00007F70CFB06F605FB0CFC16EB074642EB65
:10180000174216EB0C4642EB1C456A1854F10001D6
:1018100048BF7047B619524141EB0101A3F10103E2
:10182000704795F0000F37D04FEA11424FEA144746
:1018300021EA024624EA074C02FB07F106FB07F700
:101840000CFB06F402FB0CFC14EB074441EB1741C4
:101850004FEA154714EB0C4441EB1C4125EA074CB9
:1018600002FB07F506FB07F70CFB06F602FB0CFC78
:1018700016EB074645EB174516EB0C4645EB1C42AD
:10188000121951F1000148BF7047B619524141EB9E
:101890000101A3F1010370474FEA14454FEA1147D4
:1018A00024EA054621EA074C05FB07F106FB07F78A
:1018B0000CFB06F24FF0000605FB0CFC12EB074296
:1018C00041EB174112EB0C4251EB1C4148BF7047F2
:1018D000921841EB0101A3F10103704700BFFEE73D
:1018E0007047000070B50446B3F5804F13D1D1E9BD
:1018F000000540EA05108D6840EA05208D692843FF
:101900008D8940EA054054F82250064E3540284360
:1019100044F8220003E06FF0704044F822000020F9
:1019200070BD00000000F0CF70B50246086852F8A4
:10193000200020F001000E6842F826008868082880
:1019400001D1402300E00023486818438E683043EB
:10195000CE6830430E6930434E693043CE69304320
:101960000E6A30434E6A30438E6A3043CE6A30434B
:101970000E6B40EA060488690443486B0443074D34
:1019800045F4806545F4E025086852F82000A84336
:1019900020430E6842F82600002070BD7FFB08003F
:1019A00010B50346D1E9000440EA04108C6840EA0F
:1019B00004208C8940EA0444088A401E44EA00540A
:1019C000087D801E44EA00608C692043541C53F853
:1019D000244004F040442043541C43F824000020D9
:1019E00010BD000070B50446002594F821000228BF
:1019F00003D00420A0630125C1E02068006820F026
:101A00000E00216808602068006820F0010021684D
:101A100008605C492068884252D95A497839206860
:101A2000884201D1012047E0564964392068884244
:101A300001D1102040E0534950392068884201D13B
:101A4000801539E04F493C392068884201D1801423
:101A500032E04C4928392068884202D14FF4803066
:101A60002AE0484914392068884202D14FF4801096
:101A700022E044492068884201D140041CE04249E8
:101A80002068884201D1012016E03F4914312068C6
:101A9000884201D110200FE03B492831206888425C
:101AA00001D1801508E038493C312068884201D1D5
:101AB000801401E04FF480303349091F086051E081
:101AC000304978392068884201D1012047E02D490A
:101AD00064392068884201D1102040E029495039FA
:101AE0002068884201D1801539E026493C392068B8
:101AF000884201D1801432E0224928392068884286
:101B000002D14FF480302AE01E49143920688842FF
:101B100002D14FF4801022E01A492068884201D196
:101B200040041CE018492068884201D1012016E0D9
:101B3000154914312068884201D110200FE0124964
:101B400028312068884201D1801508E00E493C31D7
:101B50002068884201D1801401E04FF480300949A7
:101B600080394860012084F8210000BF002084F8FB
:101B7000200000BF606B10B12046616B884728468B
:101B800070BD000080000240080402402DE9F847C3
:101B9000024600239C467BE14FF0010808FA03F45B
:101BA000D1F8008008EA0400A0427DD1DFF8F4A259
:101BB000D1F80480A8EB0A09D0453AD014DCB8F17A
:101BC000030F50D009DCB8F1000F31D0B8F1010F8C
:101BD0001CD0B8F1020F49D120E0B8F1110F18D094
:101BE000B8F1120F42D11EE0B9F5881F25D006DCEE
:101BF000B9F5803F20D0B9F5801F37D11AE0B9F58B
:101C0000001F18D0B9F5041F30D117E0D1F80CC06F
:101C10002DE0D1F80C8008F1040C28E0D1F80C80FC
:101C200008F1080C23E0D1F80C8008F10C0C1EE040
:101C300000BF00BF00BF00BF00BF00BFD1F80880D9
:101C4000B8F1000F02D14FF0040C0BE0D1F808807E
:101C5000B8F1010F03D14FF0080C146102E04FF00E
:101C6000080C546103E04FF0000C00E000BF00BF1F
:101C7000FF2801D8904601E002F104084646FF28FB
:101C800002D84FEA830803E0A3F108084FEA880866
:101C90004746D6F800804FF00F0909FA07F928EAFD
:101CA00009080CFA07F900E07AE048EA0908C6F8E2
:101CB0000080D1F8048008F08058B8F1805F6FD1BF
:101CC00000BFDFF8E481D8F8188048F00108DFF899
:101CD000D891C9F81880C846D8F8188008F00108CB
:101CE000CDF8008000BF00BF4FEAB9384FEA930932
:101CF00058F829504FEA83784FEA18794FF00F08C7
:101D000008FA09F825EA0805DFF8A081424502D162
:101D10004FF0000824E0DFF89881424502D14FF0EF
:101D200001081DE0DFF88C81424502D14FF0020826
:101D300016E0DFF88481424502D14FF003080FE03E
:101D4000DFF87881424502D14FF0040808E0DFF85F
:101D50007081424502D14FF0050801E04FF00608BE
:101D60004FEA83794FEA197908FA09F848EA050534
:101D7000DFF850814FEA930948F82950D1F80480E0
:101D800008F48038B8F5803F0BD1DFF83C81D8F8F3
:101D9000008048EA0008DFF83091C9F800800AE0C6
:101DA00075E0DFF82481D8F8008028EA0008DFF821
:101DB0001891C9F80080D1F8048008F40038B8F50B
:101DC000003F0ED1DFF8008108F10408D8F8008048
:101DD00048EA0008DFF8F09009F10409C9F800802A
:101DE0000DE0DFF8E48008F10408D8F8008028EA64
:101DF0000008DFF8D49009F10409C9F80080D1F88F
:101E0000048008F48018B8F5801F0ED1DFF8B88080
:101E100008F10808D8F8008048EA0008DFF8A89020
:101E200009F10809C9F800800DE0DFF89C8008F18D
:101E30000808D8F8008028EA0008DFF88C9009F13B
:101E40000809C9F80080D1F8048008F40018B8F532
:101E5000001F0ED1DFF8708008F10C08D8F8008060
:101E600048EA0008DFF8609009F10C09C9F8008021
:101E70000DE0DFF8548008F10C08D8F8008028EA5B
:101E80000008DFF8449009F10C09C9F800805B1CD8
:101E9000D1F8008028FA03F8B8F1000F7FF47CAE87
:101EA000BDE8F88700001110001002400008014052
:101EB000000C0140001001400014014000180140D6
:101EC000001C0140080001400004014002469368E4
:101ED0000B400BB1012000E00020704710B5C26834
:101EE00021EA020302EA010443EA0443036110BD4C
:101EF0000AB1016101E00B04036170470148006809
:101F0000704700001C00002003480068034909785E
:101F100008440149086070471C000020240000208C
:101F200010B50848006840F010000649086003201A
:101F300000F080F80F2000F007F800F02BF80020E8
:101F400010BD00000020024070B504460E48007825
:101F50004FF47A71B1FBF0F00C490968B1FBF0F570
:101F6000284600F073FC08B1012070BD102C07D288
:101F700000222146501E00F01EF80548046001E0D2
:101F80000120F2E70020F0E72400002000000020FC
:101F900020000020704701460846002809DB00F0B9
:101FA0001F0301229A4043099B0003F1E023C3F879
:101FB000002100BF70472DE9F05F80460D461646B0
:101FC000002701F077F8074639462A46334601F0E4
:101FD0000700C0F1070ABAF1040F02D94FF0040A52
:101FE00001E0C0F1070AD14600F1040ABAF1070F77
:101FF00002D24FF0000A01E0A0F1030AD4464FF0EC
:10200000010A0AFA09FAAAF1010A0AEA020A0AFA14
:102010000CFA4FF0010B0BFA0CFBABF1010B0BEAC6
:10202000030B4AEA0B042146404601F04BF8BDE899
:10203000F09F000000BF00F00702064B19684FF642
:10204000FF031940044B0B4343EA0221014B196083
:1020500000BF70470CED00E00000FA0570B50446C3
:102060000D460CB9012070BD5A48006800F0070009
:10207000A8420ED25748006820F00700284355496F
:1020800008600846006800F00700A84201D001205F
:10209000E9E7207800F0020002281DD1207800F046
:1020A0000400042805D14C48406840F4E0604A49E7
:1020B0004860207800F00800082805D146484068AC
:1020C00040F46050444948604348406820F0F000C4
:1020D000A168084340494860207800F0010078B3C7
:1020E0006068012806D13C48006800F4003090B9CF
:1020F0000120B8E76068022806D13748006800F080
:10210000007040B90120AEE73348006800F00200DB
:1021100008B90120A7E73048406820F00300616853
:1021200008432D494860FFF7E9FE064609E0FFF73E
:10213000E5FE801B41F28831884202D9032092E7F4
:1021400007E02548406800F00C006168B0EB810FA3
:10215000EDD12048006800F00700A8420ED91D48C4
:10216000006820F0070028431A4908600846006804
:1021700000F00700A84201D0012074E7207800F0A9
:102180000400042807D11448406820F4E060E168A6
:10219000084311494860207800F00800082808D159
:1021A0000D48406820F46050216940EAC1000A49A6
:1021B000486000F03FF808494968C1F30311074A35
:1021C000515CC8400649086006480068FFF7BCFE3D
:1021D000002048E700200240001002405E8403080F
:1021E0000000002020000020014800687047000027
:1021F0000000002000B5FFF7F7FF04494968C1F36C
:102200000221034A515CC84000BD0000001002409A
:102210006E84030800B5FFF7E7FF04494968C1F37E
:10222000C221034A515CC84000BD000000100240BA
:102230006E840308F0B585B00FF26C0C9CE8E010DA
:1022400001A8A0E8E0101CA52D680095002100223F
:10225000002300240020194D696801F00C05F5B138
:10226000042D02D0082D19D101E0154819E001AD67
:10227000C1F38346AC5D01F4803555B10F4D6D68F7
:10228000C5F340451DF805200D4D6543B5FBF2F340
:1022900002E00C4D04FB05F3184602E000BF0848BD
:1022A00000BF00BF05B0F0BD020304050607080922
:1022B0000A0B0C0D0E0F101001020000001002405E
:1022C00000127A0000093D00F8B504460CB901205F
:1022D000F8BD207800F00100002878D0F848406868
:1022E00000F00C0004280CD0F548406800F00C0009
:1022F000082811D1F248406800F48030B0F5803FE2
:102300000AD1EF48006800F4003000285FD0606810
:1023100000285CD10120DBE700BF6068B0F5803F9A
:1023200006D1E748006840F48030E549086028E0BD
:10233000606858B9E248006820F48030E0490860DD
:102340000846006820F4802008601AE06068B0F554
:10235000A02F0BD1DA48006840F48020D8490860EB
:102360000846006840F4803008600AE0D4480068FD
:1023700020F48030D24908600846006820F48020AC
:10238000086000BF606888B1FFF7B8FD054606E049
:10239000FFF7B4FD401B642801D9032098E7C84823
:1023A000006800F400300028F2D010E0FFF7A6FD2E
:1023B000054606E0FFF7A2FD401B642801D9032073
:1023C00086E7BF48006800F400300028F2D120788A
:1023D00000F00200022857D1B948406800F00C0014
:1023E00050B1B748406800F00C00082818D1B44834
:1023F000406800F4803098B9B148006800F00200ED
:1024000020B12069012801D0012061E7AC480068B3
:1024100020F0F800616940EAC100A949086033E092
:102420002069E8B10120A7490860FFF767FD05466C
:1024300006E0FFF763FD401B022801D9032047E7B0
:102440009F48006800F002000028F2D09C48006815
:1024500020F0F800616940EAC1009949086013E082
:10246000002098490860FFF749FD054606E0FFF7A0
:1024700045FD401B022801D9032029E79048006848
:1024800000F002000028F2D1207800F008000828AF
:102490002DD1A069B8B101208B490860FFF72EFD4E
:1024A000054606E0FFF72AFD401B022801D903205C
:1024B0000EE78348406A00F002000028F2D00120B5
:1024C00000F080FC13E000207F490860FFF716FD54
:1024D000054606E0FFF712FD401B022801D9032044
:1024E000F6E67748406A00F002000028F2D1207832
:1024F00000F00400042873D100277148C06900F07F
:10250000805070B900BF6E48C06940F080506C497F
:10251000C8610846C06900F08050009000BF00BF4D
:1025200001276A48006800F48070B0B96748006805
:1025300040F4807065490860FFF7E0FC054606E05E
:10254000FFF7DCFC401B642801D90320C0E65F488C
:10255000006800F480700028F2D000BFE068012815
:1025600006D15748006A40F001005549086227E04B
:10257000E06858B95248006A20F0010050490862EA
:102580000846006A20F00400086219E0E0680528A7
:102590000BD14B48006A40F00400494908620846E4
:1025A000006A40F0010008620AE04548006A20F035
:1025B0000100434908620846006A20F004000862EE
:1025C00000BFE068A0B1FFF799FC054609E0FFF7FE
:1025D00095FC401B41F28831884202D9032077E6FE
:1025E00022E03748006A00F002000028EFD012E035
:1025F000FFF784FC054608E0FFF780FC401B41F232
:102600008831884201D9032062E62D48006A00F033
:1026100002000028F0D1012F05D12948C06920F01F
:1026200080502749C86100BFE069C8B324484068AA
:1026300000F00C00082860D0E069022848D1002092
:1026400020490866FFF75AFC054606E0FFF756FCEE
:10265000401B022801D903203AE61948006800F01F
:1026600000700028F2D1206AB0F5803F07D11448ED
:10267000406820F40030A168084311494860D4E95B
:10268000080108430E49496821F4741108430C49B4
:10269000486001200B490866FFF730FC054607E05B
:1026A0003DE0FFF72BFC401B022801D903200FE679
:1026B0000348006800F000700028F2D02FE000000E
:1026C000001002400000424280044242007000407C
:1026D000002014490866FFF711FC054606E0FFF7E5
:1026E0000DFC401B022801D90320F1E50E480068CB
:1026F00000F000700028F2D111E0E069012800D15B
:10270000E6E50948466806F48031206A814204D132
:1027100006F47011606A814201D00120D8E50020E2
:10272000D6E50000000042420010024070B50446A9
:102730000E4615461CB1A069B0F5807F01D101207D
:1027400070BD94F8410028B9002084F8400020466C
:1027500000F020F804F108012068FFF7E5F83146A1
:10276000A2682068FFF71CF92946236BD4E901020F
:10277000FFF7B8F8A168206850F8210040F0010088
:10278000A268216841F82200012084F8410000205D
:10279000D6E7000010B586B0044600BF1E48406969
:1027A00040F480701C4948610846406900F480701C
:1027B000019000BF00BF00BF0846806940F02000C4
:1027C00088610846806900F02000019000BF00BFCA
:1027D00000BF0846806940F0400088610846806973
:1027E00000F04000019000BF00BF4CF20370029067
:1027F00002200390012004900320059002A90748BD
:10280000FFF7C4F94FF68070029002A90448FFF761
:10281000BDF906B010BD00000010024000140140D8
:1028200000180140042808D14FF0E021096941F067
:1028300004014FF0E022116107E04FF0E021096947
:1028400021F004014FF0E0221161704770B5044699
:102850002546681EB0F1807F01D301200FE0681E7D
:102860004FF0E02148610F214FF0FF3000F02AFCCB
:1028700000204FF0E021886107200861002070BD32
:1028800070477047704710B5044620680069C0F370
:102890004000D8B12068C068C0F34000B0B16FF00C
:1028A000020021680861012020772068806900F01B
:1028B000030018B12046FFF7E5FF05E0204600F0D1
:1028C000ADF8204600F0ABF80020207720680069C2
:1028D000C0F38000D8B12068C068C0F38000B0B1F8
:1028E0006FF0040021680861022020772068806969
:1028F00000F4407018B12046FFF7C4FF05E0204601
:1029000000F08CF8204600F08AF80020207720683C
:102910000069C0F3C000D8B12068C068C0F3C0002F
:10292000B0B16FF0080021680861042020772068AA
:10293000C06900F0030018B12046FFF7A3FF05E0CF
:10294000204600F06BF8204600F069F80020207760
:1029500020680069C0F30010D8B12068C068C0F3D7
:102960000010B0B16FF010002168086108202077D6
:102970002068C06900F4407018B12046FFF782FF5C
:1029800005E0204600F04AF8204600F048F8002014
:1029900020772068006900F0010058B12068C06805
:1029A00000F0010030B16FF001002168086120469D
:1029B00000F036F820680069C0F3C01058B12068F4
:1029C000C068C0F3C01030B16FF0800021680861AA
:1029D0002046FFF755FF20680069C0F3801058B10A
:1029E0002068C068C0F3801030B16FF040002168EB
:1029F0000861204600F024F820680069C0F3401008
:102A000058B12068C068C0F3401030B16FF02000AA
:102A1000216808612046FFF734FF10BD70477047FA
:102A200010B504460448844205D100BF2021034864
:102A3000FFF754FA00BF10BDC40400200018014085
:102A4000704770472DE9F047044620680568206804
:102A5000C668206847694FF00008C14605F00F08B6
:102A6000B8F1000F0AD105F0200038B106F02000BF
:102A700020B1204600F0F8F9BDE8F087B8F1000F6A
:102A800071D007F0010018B906F4907000286AD0E0
:102A900005F0010030B106F4807018B1E06B40F031
:102AA0000100E06305F0040030B107F0010018B147
:102AB000E06B40F00200E06305F0020030B107F087
:102AC000010018B1E06B40F00400E06305F008007D
:102AD00048B106F0200010B907F0010018B1E06B12
:102AE00040F00800E063E06B68B305F0200028B117
:102AF00006F0200010B1204600F0B6F920684069C9
:102B0000C0F38019E06B00F0080010B9B9F1000FB4
:102B100022D0204600F088F92068406900F040008B
:102B2000B0B12068406920F0400021684861606BC6
:102B300050B11848616B4863606BFEF753FF10B1EA
:102B4000606B416B88470CE02046FFF77AFF08E096
:102B50002046FFF776FF04E02046FFF772FF0020D3
:102B6000E06389E7FFE705F0800030B106F0800000
:102B700018B1204600F046FA7EE705F0400030B17B
:102B800006F0400018B1204600F05EF974E700BF7F
:102B900072E70000152E000810B504460CB901209C
:102BA00010BDA06900B100E000BF94F8390028B959
:102BB000002084F83800204600F028F8242084F80B
:102BC00039002068C06820F400502168C8602046A1
:102BD00000F09AF92068006920F4904021680861AB
:102BE0002068406920F02A00216848612068C06898
:102BF00040F400502168C8600020E063202084F881
:102C0000390084F83A000020CAE7000010B586B009
:102C100004462849206888424AD100BF00BF2648A0
:102C2000806940F00400244988610846806900F00A
:102C30000400019000BF00BF00BF00BF00BF0846F6
:102C4000806940F0040088610846806900F0040053
:102C5000019000BF00BF00BF00BF00BF08468069F1
:102C600040F4804088610846806900F4804001900B
:102C700000BF00BF00BF4815029002200390012052
:102C800004900320059002A90C48FEF77FFF4FF443
:102C9000806002900020039002A90848FEF776FFAA
:102CA0002520FFF778F9032211462520FFF783F945
:102CB00006B010BD0038014000100240000801407D
:102CC00010B5034693F83A0020282FD101B10AB974
:102CD000012010BD00BF93F83800012801D1022067
:102CE000F7E7012083F8380000BF99629A85DA85FA
:102CF0000020D863222083F83A0000BF002083F828
:102D0000380000BF1868C06840F480701C68E0603C
:102D10001868406940F001001C6860611868C0686C
:102D200040F020001C68E0600020D2E70220D0E7DD
:102D30001D4A0168914236D11C49098801F40041BD
:102D400089BB1A49098801F4804171B11849097891
:102D50000A2903D00021154A118024E0134909886B
:102D600041F40041114A11801DE0114909780D29F3
:102D700006D10E49098841F480410C4A118012E0C5
:102D80000B490978094A1288C2F30D02094B99547C
:102D900006490988491C054A118011460988C72936
:102DA00001DD00211180704700380140180000202B
:102DB0001A00002064030020704700BFFEE700BF38
:102DC000FEE7704708B508490968C9084FF47A72E8
:102DD000B1FBF2F14143009100BF00BF00994A1ED0
:102DE00000920029F9D108BD0000002010B5FFF7BE
:102DF0008BF834F067FA012801D034F02DF810BDBB
:102E00007047000010B50248FFF73DFD10BD0000FF
:102E1000C404002070B505466C6A0020E085E0849B
:102E20002046FFF70EFE70BD0168C96821F490715D
:102E30000268D1600168496921F0010102685161AD
:102E4000202180F83A10704710B504462068C06809
:102E500020F040002168C860202084F83900204616
:102E6000FFF7AAFF002010BD70B5044694F83A00A1
:102E7000222847D1A068B0F5805F0CD1206950B9F5
:102E80000025A66A20684068C0F308003080A06A68
:102E9000801CA06215E0A56A0026A068B0F5805FDE
:102EA00003D0A06828B9206918B920684068287044
:102EB00004E02068406800F07F002870A06A401C91
:102EC000A062E08D401E80B2E085C8B92068C0686D
:102ED00020F020002168C8602068C06820F480705D
:102EE0002168C8602068406920F0010021684861BD
:102EF000202084F83A002046FFF71AFF002070BD1A
:102F00000020FCE70220FAE770B504462168096951
:102F100021F44051E2681143226811612269A168DD
:102F20001143626941EA02052168C96841F20C62F5
:102F3000914329432268D1602168496921F4407195
:102F4000A2691143226851612D4A2168914202D140
:102F5000FFF760F901E0FFF74DF900EBC00101EB6D
:102F6000001162689200B1FBF2F100EBC00202EBCB
:102F7000001263689B00B2FBF3F26423B2FBF3F22E
:102F800002EBC20303EB0212A1EB8201322202EB3D
:102F900001116422B1FBF2F101F0F00100EBC0027B
:102FA00002EB001263689B00B2FBF3F26423B2FBF6
:102FB000F3F201EB021200EBC00101EB00116368B8
:102FC0009B00B1FBF3F100EBC00303EB0013666859
:102FD000B600B3FBF6F36426B3FBF6F303EBC306CC
:102FE00006EB0313A1EB8301322303EB01116423EE
:102FF000B1FBF3F101F00F0111442268916070BD43
:1030000000380140014691F83900212828D188680C
:10301000B0F5805F0BD1086948B90A6A1088C0F31F
:1030200008000B685860086A801C086205E00B6A9B
:10303000581C086218780B685860C88C401E80B213
:10304000C88458B90868C06820F080000B68D86050
:103050000868C06840F040000B68D86000207047E6
:103060000220FCE710B50648FFF7ECFC00BF012288
:1030700004490348FFF724FE0028F8D110BD0000E2
:103080002C0400201A00002000BFFEE7490050EA8F
:10309000C12018BF04204A0D18BF40F0010040F2C3
:1030A000FF72B2EB515F08BF40F00200012808BF79
:1030B0000520704702480068C0F3022070470000F6
:1030C0000CED00E010B5002804DB0A07130E054ADA
:1030D000135406E00A07140E034A00F00F031B1FE7
:1030E000D45410BD00E400E018ED00E070B50446D3
:1030F000002508E02168481C20600878303805EB7E
:10310000850100EB41052168087800F004F80028EB
:10311000F0D1284670BD0146302903DB392901DC96
:10312000012070470020FCE730380A2801D2012036
:10313000704700207047000010B54021074801F09B
:10314000E3FA0022042106482BF0DAF90549086069
:1031500002F002FE00200449087010BD909B002080
:10316000255E0008940200209002002030B503463E
:10317000B1F90040B2F90050AC4202DDB1F90040B3
:1031800001E0B2F900401C80B1F90240B2F90250EE
:10319000AC4202DDB1F9024001E0B2F902405C80CC
:1031A000B1F90440B2F90450AC4202DAB1F904407A
:1031B00001E0B2F904409C80B1F90640B2F9065032
:1031C000AC4202DAB1F9064001E0B2F90640DC8017
:1031D0000120B3F90040B3F90450AC4205DCB3F967
:1031E0000240B3F90650AC4200DD002030BDF8B516
:1031F00004460D4616460027B4F90000B5F9001044
:10320000884212DBB4F90200B5F9021088420CDBE7
:10321000B4F90400B5F90410884206DCB4F90600DC
:10322000B5F90610884200DC01270FB90020F8BD6F
:103230000EB90120FBE72088ADF800006088ADF8EA
:10324000020032466946284600F0A7F808B9002077
:10325000EDE7A088ADF800006088ADF802003246C6
:103260006946284600F099F808B90020DFE7208871
:10327000ADF80000E088ADF8020032466946284605
:1032800000F08BF808B90020D1E7A088ADF8000065
:10329000E088ADF8020032466946284600F07DF825
:1032A00008B90020C3E70120C1E70246B2F90000D7
:1032B000B1F90430984213DCB2F90400B1F90030DE
:1032C00098420DDBB2F90200B1F90630984207DCF2
:1032D000B2F90600B1F90230984201DB01207047D3
:1032E0000020FCE7F8B504460D461646B4F9040084
:1032F000B5F90010884211DBB4F90600B5F90210E7
:1033000088420BDBB4F90000B5F90410884205DCF3
:10331000B4F90200B5F90610884201DD0120F8BDBC
:103320000EB90020FBE72088ADF800006088ADF8FA
:10333000020032466946284600F02FF808B1002006
:10334000EDE7A088ADF800006088ADF802003246D5
:103350006946284600F021F808B10020DFE7208800
:10336000ADF80000E088ADF8020032466946284614
:1033700000F013F808B10020D1E7A088ADF80000F4
:10338000E088ADF8020032466946284600F005F8AC
:1033900008B10020C3E70120C1E72DE9FC5F054625
:1033A0000E4614464FF0000AB6F90000B5F90010B9
:1033B000884213DBB6F90000B5F9041088420DDC31
:1033C000B6F90200B5F90210884207DBB6F902002F
:1033D000B5F90610884201DC4FF0010ABAF1000F7E
:1033E00002D10020BDE8FC9F002C01DC0120F9E7A0
:1033F000284616F0C6FD834600EBDB7047102846D2
:1034000016F037FD834600EBDB704FEA6008474556
:1034100001DA384600E0404681464C4500DD4C4626
:103420002888ADF800002888204400B2ADF80400D8
:103430006888ADF802006888204400B2ADF8060044
:10344000002231466846FFF7A8FF80B1BDF80400AE
:10345000204400B2ADF80400BDF80600204400B2DC
:10346000ADF806003146684627F014FCBAE7E88854
:10347000001B00B2ADF80200E888ADF8060000229B
:1034800031466846FFF789FF80B1BDF8040020444B
:1034900000B2ADF80400BDF80200001B00B2ADF8A8
:1034A00002003146684627F0F5FB9BE7A888001B21
:1034B00000B2ADF80000A888ADF804000022314643
:1034C0006846FFF76AFF80B1BDF80000001B00B23C
:1034D000ADF80000BDF80200001B00B2ADF802001C
:1034E0003146684627F0D6FB7CE76888ADF80200D5
:1034F0006888204400B2ADF80600002231466846D4
:10350000FFF74BFF80B1BDF80000001B00B2ADF823
:103510000000BDF80600204400B2ADF806003146B8
:10352000684627F0B7FB5DE701205BE710B5B1F90E
:103530000030B2F90040A34202DAB1F9003001E0F4
:10354000B2F900300380B1F90230B2F90240A3426F
:1035500002DAB1F9023001E0B2F902304380B1F988
:103560000430B2F90440A34202DDB1F9043001E0B5
:10357000B2F904308380B1F90630B2F90640A342B3
:1035800002DDB1F9063001E0B2F90630C38010BDAA
:103590002DE9FF4104462AF054FF05460020039020
:1035A00034B14749E068086020462BF0C1F803E0D9
:1035B00019F052FB4249086041490968086927F03F
:1035C000C7FA3F480068406920B13D490968486929
:1035D00027F0BEFA3A490968C86927F0B9FA3849AC
:1035E0000968086A27F0B4FA35480068006940B9EC
:1035F000002033490968A1F8500100BF00BFBDE8B1
:10360000FF8127F047FE27F08DFD2D480068B0F8B8
:10361000500100284BD02A4800680068007CC0F3A5
:103620004000E8B12648006819F094FB401E06B23D
:103630002348006819F028FB401E07B23B460022D1
:10364000114601A8009616F0E1FC01A81C49096882
:103650000968896B48601A48006805F053FE00BF8E
:103660004FF4807116480068303021F082FC202130
:103670001348006800F5987021F07BFC0020104989
:103680000968A1F8500128462AF0CEFE03900C48A4
:1036900000680068406A50B109490968086808492B
:1036A000096809684B6A07490A680399984721F035
:1036B00097F900F03FF800F007F800BF9FE700001F
:1036C0004C0100204801002010B5002416E0C4EB96
:1036D000C4000C4951F8200030B1C4EBC401094AC0
:1036E00052F8210021F02EFAC4EBC401054A02EB86
:1036F00081001C2121F03DFC601CC4B2042CE6DBDF
:1037000010BD00006C9C00200146094A10680BE0C7
:1037100042688A4202D002688A4204D1027E22F0C4
:103720000102521C027640690028F1D17047000066
:10373000200100207047000010B50421014800F06E
:10374000E3FF10BD849B002010B51C21014800F050
:10375000DBFF10BD9C9B00202DE9FF4F8BB0044682
:103760009A46199DBAF1000F11D11898B0F5807FD3
:103770000DD10020208060800C98401E00B2A080F7
:103780000D98401E00B2E0800FB0BDE8F08FB5F993
:1037900000004042189948430121C1EB202000B2AB
:1037A0002080B5F902004042189948430121C1EB3D
:1037B000202000B26080B5F900100C98401A1899CA
:1037C0004843022101EB202000B2A080B5F902108D
:1037D0000D98401A18994843022101EB202000B2AD
:1037E000E080BAF1000F14D120882988084400B283
:1037F000208060886988084400B26080A088298899
:10380000084400B2A080E0886988084400B2E080E3
:10381000BAE70A209AFBF0F00A900A98401C099037
:103820000A9800EB8000AAEB400B0A9800B22BF03C
:1038300005F90890099800B22BF000F907900A9852
:103840005A3000B22BF0FAF8069009985A3000B2BC
:103850002BF0F4F80590CBF10A0108984143079842
:1038600000FB0B100A2190FBF1F6CBF10A01069840
:103870004143059800FB0B100A2190FBF1F77611EC
:103880007F11B4F90080B4F9029007FB08F006FB41
:103890001900298801EBA02000B2ADF8100006FB4A
:1038A00008F007FB0900698801EBA02000B2ADF821
:1038B0001200B4F90480B4F9029007FB08F006FB8B
:1038C0001900298801EBA02000B2ADF80C0006FB1E
:1038D00008F007FB0900698801EBA02000B2ADF8F1
:1038E0000E00B4F90080B4F9069007FB08F006FB5F
:1038F0001900298801EBA02000B2ADF8080006FBF2
:1039000008F007FB0900698801EBA02000B2ADF8C0
:103910000A00B4F90480B4F9069007FB08F006FB2E
:103920001900298801EBA02000B2ADF8040006FBC5
:1039300008F007FB0900698801EBA02000B2ADF890
:103940000600BDF90800BDF91010884202DABDF981
:10395000080001E0BDF91000BDF90410BDF90C200C
:10396000914202DABDF9041001E0BDF90C10884261
:103970000BDABDF90800BDF91010884202DABDF972
:1039800008000DE0BDF910000AE0BDF90400BDF922
:103990000C10884202DABDF9040001E0BDF90C0008
:1039A0002080BDF90800BDF91010884202DDBDF984
:1039B000080001E0BDF91000BDF90410BDF90C20AC
:1039C000914202DDBDF9041001E0BDF90C108842FE
:1039D0000BDDBDF90800BDF91010884202DDBDF90C
:1039E00008000DE0BDF910000AE0BDF90400BDF9C2
:1039F0000C10884202DDBDF9040001E0BDF90C00A5
:103A0000A080BDF90A00BDF91210884202DABDF9A2
:103A10000A0001E0BDF91200BDF90610BDF90E2043
:103A2000914202DABDF9061001E0BDF90E1088429C
:103A30000BDABDF90A00BDF91210884202DABDF9AD
:103A40000A000DE0BDF912000AE0BDF90600BDF95B
:103A50000E10884202DABDF9060001E0BDF90E0041
:103A60006080BDF90A00BDF91210884202DDBDF97F
:103A70000A0001E0BDF91200BDF90610BDF90E20E3
:103A8000914202DDBDF9061001E0BDF90E10884239
:103A90000BDDBDF90A00BDF91210884202DDBDF947
:103AA0000A000DE0BDF912000AE0BDF90600BDF9FB
:103AB0000E10884202DDBDF9060001E0BDF90E00DE
:103AC000E08000BF60E62DE9F74F86B0044620682D
:103AD0000590B4F908100798A0EB0108B4F90A1092
:103AE0000898A0EB0109E089B0F5807F13D1206B25
:103AF00000FB08F0E16A01FB1901606A00EBA10B11
:103B0000E06A00FB08F0216B01FB0901A06A00EBF1
:103B1000A10004902FE0A08980B9A06B00FB08F001
:103B20004FEA6018A06B00FB09F04FEA6019606A69
:103B300000EB080BA06A484404901CE0A06B00FB5B
:103B400008F04FEA6018A06B00FB09F04FEA60191B
:103B5000206B00FB08F0E16A01FB1901606A00EBD1
:103B6000A12BE06A00FB08F0216B01FB0901A06AB0
:103B700000EBA12004904FEA2B2604980712B4F919
:103B80000400B04203DC002009B0BDE8F08F002E35
:103B900001DA0020F8E7B4F90600B84201DC0020A1
:103BA000F2E7002F01DA0020EEE73420005DC0F3D9
:103BB000800050B33420005DC0F3400078B9022586
:103BC000B4F904007843684306FB050A059800EB46
:103BD0000A012A4604F1140021F079F92CE00325AA
:103BE000B4F904007843684306FB050A6A1E059889
:103BF00000EB0A0104F1140021F069F90AEB050059
:103C0000401E0599095CA17516E04FF0000A0025D9
:103C1000208A03463AB231B2019004F118001DF037
:103C20008FFD0290BDF80800A0823AB231B204F1D3
:103C300018001DF0E5FCA0753420005D00F00100C7
:103C4000B0B14FF47F40002100F47C4241EA5211B0
:103C5000C0F3C40211430191BDF804201146029142
:103C6000A08ABDF80810884201D100208CE700BF6F
:103C7000E07C08B9012087E70FFA8BF1A18704984F
:103C800001B2E18731B24020015339B242200153E1
:103C9000C4F844A084F84850204600F003F803908C
:103CA000039871E72DE9F04F8DB00446D4F80090E9
:103CB00094F83C000C9094F83E000B900C987028FF
:103CC0000BDA4FF0FF35B4F940002844002800DA41
:103CD00000250C988030C7B213E00C9890280EDDB8
:103CE0000125B4F940002844B4F90410884200DBEF
:103CF00000250C98C0F1FF008030C7B201E000251C
:103D0000FF270B9870280CDA4FF0FF36B4F9420009
:103D10003044002800DA00260B98803000F0FF08BD
:103D200015E00B9890280FDD0126B4F942003044CD
:103D3000B4F90610884200DB00260B98C0F1FF00A2
:103D4000803000F0FF0802E000264FF0FF08A08A54
:103D50000A90A07D069000200590049003903420E6
:103D6000005DC0F3800000285BD094F84800626CCE
:103D700000FB052000EB0901022209A821F0A7F8A9
:103D8000B4F9040094F848205043626C00FB06200C
:103D900000EB0901022208A821F099F8B4F9040007
:103DA00094F848205043626C00FB062294F84800C7
:103DB00000FB052000EB0901022207A821F087F88B
:103DC0003420005DC0F3400000287ED094F8480005
:103DD000616C00FB05110844401E19F800000590B5
:103DE000B4F9040094F848104843616C00FB0611D4
:103DF00094F848000844401E19F800000490B4F9F3
:103E0000040094F848104843616C00FB061194F8D4
:103E1000480000FB05110844401E19F800000390FB
:103E200053E0208A0090B4F942204020005B2844EF
:103E300001B204F11800009B1DF082FC0990208A59
:103E400000904220005B304402B2B4F9401004F10B
:103E50001800009B1DF074FC0890208A00904220FE
:103E6000005B304402B24020005B284401B204F100
:103E70001800009B1DF064FC07903420005DC0F327
:103E8000400010B3B4F942204020005B284401B246
:103E900004F118001DF0B4FB05904220005B304493
:103EA00002B2B4F9401004F118001DF0A9FB04900F
:103EB0004220005B304402B24020005B284401B243
:103EC00004F118001DF09CFB0390BA46BB46342059
:103ED000005DC0F34000E0B306987843C7F1FF0CE3
:103EE000059B03FB0C00C0F3072104987843C7F13E
:103EF000FF0C039B03FB0C00C0F3072201FB08F03F
:103F0000C8F1FF0302FB0300030AA375022905DCC5
:103F1000022A03DC00200DB0BDE8F08F022901DC8D
:103F20004FF00008022A01DC4FF0FF080698022833
:103F300001DC4FF0000A0598022801DC4FF0FF0A6F
:103F40000498022801DC4FF0000B0398022803DCE0
:103F500000E002E04FF0FF0B03E0BA46BB46FF2152
:103F6000A175BAF1000F02D1099802900BE0BAF1E5
:103F7000FF0F02D10A98029005E05246DDE90910D0
:103F800018F0D8F80290BBF1000F02D10798019009
:103F90000BE0BBF1FF0F02D10898019005E05A46F3
:103FA000DDE9071018F0C6F80190B8F1000F03D151
:103FB000BDF80400A0820FE0B8F1FF0F03D1BDF8F7
:103FC0000800A08208E04246DDE9011018F0B2F8CE
:103FD0000090BDF80000A08201209CE72DE9F05F71
:103FE0000446B4F9080001026162B4F90A00010252
:103FF000A162B4F90C000A2190FBF1F56F1CB4F931
:104000000C0005EB8501A0EB4106684200B22AF0E6
:1040100015FD8046784200B22AF010FD8146C5F1B8
:104020005A0000B22AF00AFD8246C7F15A0000B2D7
:104030002AF004FD8346C6F10A0000FB08F009FBE4
:1040400006000A2190FBF1F1E162C6F10A0000FBD3
:104050000AF00BFB06000A2190FBF1F12163E06AF4
:104060004111E162206B41112163A07C1DF077FCBE
:104070003421095D60F3000134200155A07C1DF05E
:1040800051FC3421095D60F3410134200155A07CCD
:10409000042805D0A07C052802D0A07C062807D1E2
:1040A0003420005D20F00400001D3421085505E097
:1040B0003420005D20F00401342001552168216284
:1040C000A06920F0E000A061A17CA06961F3040078
:1040D000A061A188A06961F39420A061E188A06932
:1040E00061F35F50A061E08900EBD071491001F5E8
:1040F000001191FBF0F2A263FF21A175208AA0823A
:10410000BDE8F09F2DE9F743054616460024134C01
:104110002AF097F98046334629462046019A1EF038
:10412000CDF807465FB900BF00BF2C21204620F024
:1041300020FF4FF00040A0620020BDE8FE83002079
:10414000A062E06918B940462AF06EF9E061E069C2
:1041500008B90120E0612046EFE70000C09B002085
:1041600010B51421114800F0CFFA1EF059F804469A
:1041700000BF1CB900BF00BF00BFFEE700BF14B9FD
:1041800000BF00BF10BD0A4920461EF031F90949A1
:1041900020461EF02FF9084920461EF02DF9074948
:1041A00020461EF023F900BFECE70000A89B00208A
:1041B0003D1A0208111F02082D210208051A0208E3
:1041C00070B504460D461021284620F0D2FE206826
:1041D0000078012804D1208A2880608A68800CE059
:1041E00020680078022802D1E068686005E0206855
:1041F0000078042801D10A2068602068406820B156
:10420000206829464268904701E000BF00BF70BDAA
:104210002DE9FE430446A66AEEB9A18A208A084425
:1042200001B2A182E18A608A084401B2E18220469B
:104230000CF081FD06460EB9BDE8FE83204610F065
:1042400063FC0022092130461CF0D4F96078C0F3E9
:10425000400000B1F0E7208A10B9608A002870D0D1
:1042600000200290019094F83C0000F00F00032819
:1042700012D1304622F036FF0746304622F0BAFE11
:10428000804603200090B4F910103B464246304669
:104290000CF048F8029012E0304622F0A5FF0746E5
:1042A000304622F019FE80460C200090B4F912101E
:1042B00043463A4630460CF035F8019000BF304690
:1042C00022F06AFE054605F0010028B9BDF9080094
:1042D000002801DD0020029005F0020028B9BDF998
:1042E0000800002801DA0020029005F0040028B937
:1042F000BDF90400002801DD0020019005F0080050
:1043000028B9BDF90400002801DA0020019001AAB3
:1043100002A920462DF0C4FA0023BDF90420BDF9FE
:104320000810304625F03EFEA08ABDF8081008446B
:1043300001B2A182E08ABDF80410084401B2E18212
:1043400000BF00BF78E72DE9F84F0446D4F828B045
:10435000BBF1000F01D1BDE8F88F94F83C0000F0EC
:104360000F0000B9F7E71EF0BBFB06463068477E3A
:104370004021584624F040FB10B90021618321837D
:10438000584622F01DFF8046584622F023FF05467E
:1043900094F83C0000F00F000C2843D10021218349
:1043A0001DBBB4F91A00C7F164014843642190FBB6
:1043B000F1F001B26183584622F08EFD81465846E5
:1043C00022F012FF82460C200090B4F91A104B46DE
:1043D000524658460BF0A6FF6083B4F91A2000231A
:1043E0001946584625F0DEFD69E020462DF0AFFA6B
:1043F0000090002161836A4620462DF051FABDF9F4
:10440000003041F6FF72514258460CF03DFE8146A5
:10441000BDF80000484402B201230021584625F0AF
:10442000C1FD4CE094F83C0000F00F00032846D199
:1044300000216183B8F1000F23D1B4F91800C7F14E
:1044400064014843642190FBF1F001B22183584696
:1044500022F0D0FD8146584622F044FE82460320D9
:104460000090B4F9181053464A4658460BF05AFFCC
:104470002083B4F9181000231A46584625F092FDFF
:104480001DE020462DF048FA0090002121830022F3
:10449000694620462DF004FABDF9003041F6FF725E
:1044A000514258460CF056FD8146BDF80000484484
:1044B00001B201230022584625F074FD00BF208B75
:1044C000002860D1608B00285DD11DBB584622F0CA
:1044D0008BFE8146584622F0FFFC8246B9F1000F60
:1044E00002DCBAF1000F14DDB9F1000F06DA012386
:1044F0004A460021584625F055FD0AE0BAF1000F62
:1045000007DA0123CAF1000002B20021584625F063
:1045100049FD00BFB8F1000F23D1584622F06AFDD3
:104520008146584622F0DEFD8246B9F1000F02DCDA
:10453000BAF1000F14DDB9F1000F06DA01230022F1
:104540004946584625F02EFD0AE0BAF1000F07DA79
:1045500001230022CAF1000001B2584625F022FDD5
:1045600000BF32460A2158461CF044F86078C0F378
:10457000400000B1EFE694F83C0020F00F0184F811
:104580003C100021A16200BFE5E62DE9FF41044691
:104590000F4614B918F060FB04460CB9BDE8FF8162
:1045A0001FB90020A4F85001F8E70020ADF808007A
:1045B000ADF80A00204618F067FB401E00B2ADF8C7
:1045C0000C00204618F0C6FB401E00B2ADF80E00ED
:1045D00002AA39466846FEF7C9FD064606B9DDE778
:1045E0002068007CC0F3400060B10298206303980B
:1045F00060630120A4F85001606810B160682AF07F
:10460000A3F8CBE72068806918B120686946826901
:10461000904700250BE004F1300000EBC5010022BB
:104620006846FEF7E4FD00B1B8E7681C85B2B4F84F
:104630005001A842EFDCB4F85001202809DAB4F8A0
:10464000502104F1300101EBC200694615F081FBF5
:104650000BE00020A4F85001B4F8502104F130011F
:1046600001EBC20002A915F074FBB4F85001401C24
:10467000A4F85001606810B160682AF065F800BFC6
:104680008CE770B50546284600F013F8044600266E
:104690000CE02146284600F024F80646214628462C
:1046A00000F086F8204620F04DFA3446002CF0D178
:1046B00070BD014609B9002070474868FCE770B535
:1046C000064600243046FFF7F4FF054605E0641C6B
:1046D0002946304600F005F80546002DF7D1204662
:1046E00070BD02460B461068001D034418687047F1
:1046F00002460B461068034418687047014609B922
:10470000002070478868FCE7002242608260CA1C73
:1047100022F003010160704770B50446216801F181
:10472000080020F041F90546A5B10022294620469F
:104730002BF03EFA2946204662682BF02BFA60687F
:1047400020B12A46204661682BF032FA6560A068E5
:1047500000B9A560284670BD70B50446216801F116
:10476000080020F021F90546A5B10022294620467F
:104770002BF010FA29462046A2682BF019FAA068FF
:1047800020B12A462046A1682BF004FAA560606893
:1047900000B96560284670BD014609B9012070471F
:1047A000486818B9886808B90120F8E70020F6E7DA
:1047B0002DE9F04104460D460CB9BDE8F0812046D4
:1047C000FFF777FFA8420FD129462046FFF789FF60
:1047D0006060606810B90020A0602FE000222046D1
:1047E00061682BF0E5F929E02046FFF787FFA84232
:1047F0000FD129462046FFF77BFFA060A06810B9C3
:10480000002060601AE000222046A1682BF0C2F967
:1048100014E029462046FFF76BFF0646294620464E
:10482000FFF75FFF07463A46314620462BF0B2F9C4
:104830003246394620462BF0BBF900BF00BFBCE72B
:1048400010B504462068806818B120682146826847
:1048500090472068006828B12068006820602046E2
:10486000FFF7EEFF10BD0146886818B18868B0F9FF
:10487000160070470020FCE72DE9F04F93B0054685
:104880008B4691469A461C9E688C20F00400001DC1
:104890006884A5F8209032895946284623F028FEDE
:1048A0001290A5F820A032895946284623F020FE10
:1048B0001190688C20F004006884DDE911108842B2
:1048C0000CD1DDE91110884208D1BDF84800BDF8CF
:1048D0004410884202D113B0BDE8F08FA5F82090B3
:1048E00032895946284623F003FE1290A5F820A0ED
:1048F000594628460EF0EBFA10903189109A10684C
:10490000129A28F05AFA3089602833D147F6FF719D
:104910001298884202D0119888422BD1284624F060
:104920000EF80F9000EBD0704710284624F007F8DF
:104930000F9000EBD0704FEA600847F6FF711298B5
:10494000884208D1781C08F10101884200DA01E0B0
:1049500008F10100129047F6FF711198884208D1C2
:10496000781C08F10101884200DA01E008F1010039
:10497000119000BF2448FFF7CFFE044600BF1CB9CA
:1049800000BF00BF00BFFEE700BF04B9A3E7129855
:10499000E06011982061ACB325603089A080C4F834
:1049A00008B0684614F0A0FB2146684614F04FFC9E
:1049B0001649684614F01BFC1548029000BF1549C3
:1049C000684614F022FCFF220021684614F02FFCF8
:1049D0003188684614F021FC7188684614F002FCA6
:1049E000F068069000BF6846002190F83E2061F311
:1049F000000280F83E2000BF30690590684614F040
:104A00003DFC00BF00BF66E7B49B0020B55D030816
:104A100061600308915F030810B514210148FFF796
:104A200073FE10BDB49B00202DE9FE4F04460F46D7
:104A300090464FF0000900256BE1E06800EBC500EF
:104A40004068C0F3406000B162E1E16801EBC5017C
:104A5000496821F07F4026F077F8064626EA0700ED
:104A600008B9012000E00020029026EA080008B9F9
:104A7000012000E000200190DDE90101814272D0B7
:104A8000E06850F835A04FF0000B6A4641F610017F
:104A9000504627F02BFE10B14FF0010BA9E06A46FB
:104AA00041F61101504627F021FE10B14FF0010BE5
:104AB0009FE06A4641F61201504627F017FE10B1FA
:104AC0004FF0010B95E06A4641F61301504627F07E
:104AD0000DFE10B14FF0010B8BE06A4641F6150157
:104AE000504627F003FE10B14FF0010B81E06A46FB
:104AF00041F61401504627F0F9FD10B14FF0010BBB
:104B000077E06A4641F26901504627F0EFFD10B1A7
:104B10004FF0010B6DE06A4643F20C01504627F05E
:104B2000E5FD10B14FF0010B63E06A4643F20D0161
:104B3000504627F0DBFD10B14FF0010B59E06A46FB
:104B400041F20101504627F0D1FD10B14FF0010BA9
:104B50004FE06A4641F20401504627F0C7FD18B104
:104B60004FF0010B45E0D2E06A4641F202015046A7
:104B700027F0BCFD10B14FF0010B3AE06A4641F25C
:104B80000301504627F0B2FD10B14FF0010B30E0A9
:104B90006A4641F20501504627F0A8FD10B14FF0DA
:104BA000010B26E06A4641F20601504627F09EFDC1
:104BB00010B14FF0010B1CE06A4641F23201504641
:104BC00027F094FD10B14FF0010B12E06A4643F656
:104BD0000F01504627F08AFD10B14FF0010B08E09D
:104BE0006A4643F60E01504627F080FD08B14FF0AB
:104BF000010BBBF1000F02D00320BDE8FE8F6A4617
:104C000040F60A01504627F071FD10B14FF002093D
:104C10007CE06A4640F60B01504627F067FD10B174
:104C20004FF0020972E06A4643F60F01504627F042
:104C30005DFD10B14FF0020968E06A4643F60E01CF
:104C4000504627F053FD10B14FF002095EE06A466E
:104C500040F63C01504627F049FD10B14FF00209E3
:104C600054E06A4640F63D01504627F03FFD10B142
:104C70004FF002094AE06A4640F63A01504627F0F2
:104C800035FD10B14FF0020940E06A464FF404616F
:104C9000504627F02BFD10B14FF0020936E06A466E
:104CA00040F64501504627F021FD10B14FF00209B2
:104CB0002CE06A4640F64101504627F017FD10B13E
:104CC0004FF0020922E06A4640F64201504627F0C2
:104CD0000DFD10B14FF0020918E06A4640F643019D
:104CE000504627F003FD10B14FF002090EE06A466E
:104CF00040F64901504627F0F9FC10B14FF0020987
:104D000004E0B9F1000F01D14FF0010900BF00BF6D
:104D10006D1C608CC0F3C500A8423FF68EAE4846BD
:104D20006BE7000001480068704700004C0100205C
:104D300070470146C1F30412072A00DD0722D0B2F2
:104D40007047000010B518210348FFF7DDFC012073
:104D500029F012FC10BD0000609B00202DE9F041FD
:104D600005460F4616460DB9BDE8F0812846FBF70B
:104D7000E1FC8046394628460A4A126890470746B1
:104D8000E8193146074A1268904706463C4603E058
:104D9000A019285C2855641CA8EB0600A042F7D295
:104DA00000BFE1E7E00200202DE9F04106460C4695
:104DB00017461D4629463046084A1268904720602B
:104DC000206830B1296888190021044A1268904788
:104DD00000E000203860BDE8F0810000D80200202B
:104DE0002DE9F04F87B004460F4692469846DDE91C
:104DF00010560DB1002028801CB9002007B0BDE876
:104E0000F08F207808B90020F8E70FB90020F5E707
:104E10004FF0000906F0020010B906F0040098B146
:104E2000002000E0401C215C0A2905D0215C0D29EE
:104E300002D0215C0029F5D1215C01B1401C15B1E3
:104E40004FF0FF312980D9E706F0020008B141F6A2
:104E5000FF7800200690059038E000200490059827
:104E600008B9012000E0002006A904AACDE90062EB
:104E7000CDE902100599601843465246394629F09B
:104E800015FE83460498A8EB00000FFA80F80498FA
:104E900048440FFA80F9BBF1000F00D11CE00598DF
:104EA0005844059020780A2802D020780D2800D197
:104EB00012E00598205C0A2803D00598205C0D2894
:104EC00003D10598401C059006E000BF0598205CC2
:104ED00010B1B8F1000FC0DC00BF059870B905A98A
:104EE0002046094A12689047834635B10022594648
:104EF00038461BF040FE0FFA80F900BF0DB1A5F84F
:104F0000009005987AE70000D80200202DE9F047CC
:104F100006468846174606B10FB9BDE8F087304609
:104F2000FBF708FC81463846FBF704FC044604B94D
:104F3000F3E704EB090A414630460B4A12689047F2
:104F40008046554603E0281B305C70556D1E08EB0B
:104F50000400A842F7D906EB0800224639461FF0A4
:104F6000C2FF00BFD9E70000E00200200246002097
:104F70000FA31B788B4211D113781BB90123137037
:104F800001200BE01378012B02D10023137005E000
:104F90001378022B02D10023137001201378012B08
:104FA00004D1202901D10223137001207047000091
:104FB0002300000073B582B0064603980190324684
:104FC00000210846019B2AF08DF80546002001903B
:104FD0000024681C1FF0E8FC044600BF1CB900BF99
:104FE00000BF00BFFEE700BF14B9002004B070BDD1
:104FF000002060553246691C2046039B2AF072F857
:105000002046F3E72DE9F04781460E4614461F4639
:10501000DDF820A035461BE0600800FB0755294657
:105020004846D047B0F1000809DD04F0010080F0E7
:105030000100C0EB5404E8190546064608E0B8F143
:10504000000F02DA6408354602E02846BDE8F08722
:10505000002CE1D10020F9E72DE9FF4F85B0834610
:10506000DDE9158ADDE91349DDE91775129E05F0C2
:105070000200F8B94FB105F0010030B1B9F1000FED
:1050800002D105F00C0000B17F1E03E03022204663
:10509000641C3254544501D2202CF7D303E0302253
:1050A0002046641C325405F0010018B1BC4201D204
:1050B000202CF4D305F01000B0B305F4806050B993
:1050C0004CB1544501D0BC4205D1641E1CB1B8F1AD
:1050D000100F00D1641EB8F1100F09D105F02000A7
:1050E00030B9202C04D278222046641C325415E0BA
:1050F000B8F1100F09D105F0200030B1202C04D2F6
:1051000058222046641C325408E0B8F1020F05D141
:10511000202C03D262222046641C3254202C03D25D
:1051200030222046641C3254202C16D2B9F1000FD4
:1051300004D02D222046641C32540EE005F00400F9
:1051400020B12B222046641C325406E005F00800F2
:1051500018B120222046641C3254CDE90275CDE9F5
:105160000064584606A90EC900F0A2F809B0BDE8CF
:10517000F08F2DE9FF4F8FB08046DDE91FABDDE9F1
:105180001D96219D1C9C00270CB925F0100505F4E7
:10519000806000B1E4B100BFB4FBF6F106FB114141
:1051A000C8B20A2802DA00F1300107E005F0200158
:1051B00009B1412100E0612101440A39CBB23946ED
:1051C0007F1C07AA5354B4FBF6F40CB1202FE3D391
:1051D00007A8CDE904AB8DE8810203960695404609
:1051E00010A90EC9FFF738FF13B0BDE8F08F2DE905
:1051F000FF4F8FB0DDE9217BDDF89080209EDDE957
:105200001C454FF00009002184EA01006940084371
:1052100001D128F0100808F4806028B1002184EA48
:105220000100694008432DD000BF32463B4620466E
:105230002946FBF76EF802F0FF0ABAF10A0F02DA0C
:105240000AF1300007E008F0200008B1412000E03A
:10525000612050440A38C2B2484609F1010907A941
:105260000A5432463B4620462946FBF752F804468C
:105270000D46002184EA01006940084302D0B9F1DB
:10528000200FD2D32398CDE9036BCDE9050807A9F8
:105290001E98CDE9001902900FA80FC8FFF7DCFE99
:1052A00013B0BDE8F08F9A4200D28854704770471F
:1052B0002DE9FF5F05461446DDE90EA6DDE91087FE
:1052C000A34607F0020078B907F0010060B9B146C3
:1052D00007E02246641C2020039B0199A84709F19E
:1052E0000109C145F5D300BF08E02246641C711EC8
:1052F0000E461AF80100039B0199A847002EF4D12D
:1053000007F0020050B105E02246641C2020039BF8
:105310000199A847A4EB0B004045F5D3204604B003
:10532000BDE8F09F00BF70472DE9FF4F8BB00746E7
:1053300000250C9800B9FA4FEAE20E98007825286B
:105340000AD02A466D1C0E990878DDE90C13B8477F
:105350000E98401C0E90DBE20E98401C0E9000242C
:1053600000BF0E9800782B2819D004DC20281ED00E
:1053700023282CD123E02D2809D0302827D144F030
:1053800001040E98401C0E9001200A9022E044F087
:1053900002040E98401C0E9001200A901AE044F07E
:1053A00004040E98401C0E9001200A9012E044F074
:1053B00008040E98401C0E9001200A900AE044F068
:1053C00010040E98401C0E9001200A9002E000206C
:1053D0000A9000BF00BF0A980028C2D180460E99EB
:1053E0000878FDF798FE20B10EA8FDF77FFE8046F5
:1053F00012E00E9800782A280ED1189901C9189148
:10540000002804DA44F00204C0F1000800E08046FD
:105410000E99491C0E9100BF4FF000090E980078BC
:105420002E281FD144F480640E98401C0E900E99D3
:105430000878FDF770FE20B10EA8FDF757FE8146F3
:1054400010E00E9800782A280CD1189901C91891FB
:10545000002801DD014600E0002189460E99491C23
:105460000E9100BF0E9800786C280AD004DC6828E2
:1054700016D06A2835D128E0742820D07A2830D177
:1054800029E044F480740E98401C0E900E98007829
:105490006C2804D144F400740E98401C0E9021E056
:1054A00044F080040E98401C0E900E9800786828F6
:1054B00004D144F040040E98401C0E9012E044F4D5
:1054C00080740E98401C0E900CE044F400740E980A
:1054D000401C0E9006E044F480740E98401C0E9020
:1054E00000E000BF00BF0E98007869281DD00EDCD8
:1054F000622821D006DC25287ED050281AD05828D2
:105500007BD115E0632879D06428F9D10CE07328A9
:1055100075D004DC6F280ED07028F1D109E0752811
:1055200004D07828ECD102E000BF00BF00BF00BF6C
:1055300000BF00BF00BF00BF0E980078782803D0DE
:105540000E980078582801D1102623E00E98007894
:10555000702803D00E98007850280CD1102644F003
:10556000100444F480740E984078562812D10E9896
:10557000401C0E900EE00E9800786F2801D108268E
:1055800008E00E980078622801D1022602E00A267F
:1055900024F010040E980078582803D00E98007854
:1055A000502801D144F020040E980078692805D0D5
:1055B0000E980078642801D024F00C0404F4806074
:1055C00008B124F001040E980078692803D00E98E1
:1055D000007864287CD104F40070B8B31898C01D1A
:1055E00020F007001890D0E900AB189A0832189202
:1055F0000020CDE9069803E073E17CE1F2E01CE1D4
:10560000CDE904600894BAEB00017BEB000001DAFD
:10561000012000E00020002102900846B1EB0A01C1
:1056200070EB0B0002DA5046594605E000200146B7
:10563000B0EB0A0061EB0B01CDE900012A463846C8
:10564000DDE90C13FFF7D3FD0546C7E0FFE704F4DF
:105650008070D0B1189850F804AB18904FEADA7007
:10566000CDE9039802960594BAF1000F01DD514689
:1056700001E0CAF10001CDE900102A463846DDE913
:105680000C13FFF776FD0546A8E004F0400028B1B2
:10569000189810F8041B1890C8B20DE004F08000B0
:1056A00028B1189830F8041B189008B204E0189834
:1056B00000681899091D189182464FEADA70CDE901
:1056C000039802960594BAF1000F02DD514602E0FC
:1056D0000BE0CAF10001CDE900102A463846DDE9A9
:1056E0000C13FFF746FD054678E00E980078562823
:1056F00018D1189850F804AB1890DAF80400006834
:10570000099009980090DAF800300D98421B0C9827
:1057100041193846FFF708FE0544002009905DE076
:10572000AF52000804F40070D0B11898C01D20F0EA
:105730000700CDE90698089418900020CDE9046090
:105740000290189903C9189A08321892CDE90001FD
:105750002A463846DDE90C13FFF749FD05463DE0D2
:1057600004F4807098B10022CDE903980296059464
:10577000189800681899091DCDE9000218912A4669
:105780003846DDE90C13FFF7F4FC054626E004F08B
:10579000400028B1189810F8041B1890C8B20DE00A
:1057A00004F0800028B1189830F8041B189088B2D3
:1057B00004E0189800681899091D18918246002085
:1057C000CDE900A0CDE90398029605942A46384613
:1057D000DDE90C13FFF7CDFC054600BF0E98401C19
:1057E0000E9093E0012604F0020050B905E02A462D
:1057F0006D1C2020DDE90C13B8473046761C40456F
:10580000F5D3189911F8043BD8B22A466D1C1891AB
:10581000DDE90C13B84704F0020050B105E02A4658
:105820006D1C2020DDE90C13B8473046761C40453E
:10583000F5D30E98401C0E9068E0189850F804AB11
:1058400018905046B9F1000F01D0494601E04FF0E1
:10585000FF310A46014600E0491C0B781BB1131EBC
:10586000A2F10102F8D10E1A04F4806028B14E456D
:1058700001D2304600E04846064604F0020050B926
:1058800005E02A466D1C2020DDE90C13B8473046A0
:10589000761C4045F5D306E01AF8010B2A466D1C2C
:1058A000DDE90C13B8479AF8000040B104F48060B9
:1058B0000028F1D0B9F10000A9F10109ECD104F000
:1058C000020050B105E02A466D1C2020DDE90C13D2
:1058D000B8473046761C4045F5D30E98401C0E90D4
:1058E00014E02A466D1C2520DDE90C13B8470E98FC
:1058F000401C0E900AE02A466D1C0E990878DDE9DE
:105900000C13B8470E98401C0E9000BF00BF00BF9C
:105910000E98007800287FF410AD0D98854201D2D2
:10592000284601E00D98401E02460020DDE90C13D8
:10593000B84728460FB0BDE8F08F2DE9F041044686
:105940000E46002774B13146204600F02DF805467A
:10595000B5F5004F05D20C2D01D9284600E00C20EA
:10596000074600BF3846BDE8F081024600BF481E2A
:10597000084018B100BF00BF00BFFEE700BF481ECF
:105980001040101A704710B502464B1E13444C1EAF
:1059900023EA040000BF4B1E0B401BB100BF00BF39
:1059A00000BFFEE700BF10BD024600BF481E084012
:1059B00018B100BF00BF00BFFEE700BF481E104483
:1059C0004B1E9843704700002DE9F04180460E467B
:1059D000444601206086002500270DE056F8270088
:1059E00025A1FAF76DFF10B1681C85B202E0608E48
:1059F000401C6086781C87B256F8270020B156F804
:105A0000270000780028E9D1208EA84201D1BDE806
:105A1000F081A06A20B1A06A1FF094F80020A06273
:105A2000E06A20B1E06A1FF08DF80020E062E80033
:105A30001EF0BAFFA06200BFA06A18B900BF00BF85
:105A400000BFFEE700BF68001EF0AEFFE06200BFCF
:105A5000E06A18B900BF00BF00BFFEE700BFA06A40
:105A600008B1E06A00B900256900E06A1FF081FA18
:105A7000258600BFCBE700000A0000002DE9F84FA3
:105A800081460E46924699F8090000F00700022868
:105A900001D1304600E050468346564501DD304690
:105AA00000E050460746032000EB470020F00300CB
:105AB00000F110053948006839490968A0EB010870
:105AC000002405EB080037490968884206D23348AC
:105AD0000468606820F0004060603AE03148006887
:105AE000854221D813E04FF0FF3000900022694634
:105AF0002D480FF059FD002269462C480FF054FD47
:105B00002648006826490968A0EB010800BF08EB99
:105B10000500244909688842E5D82048046860687F
:105B200020F00040606014E028461EF03DFF04466F
:105B300000BF1CB900BF00BF00BFFEE700BF14B923
:105B40000020BDE8F88F606820F0004000F10040C0
:105B5000606032465946484601F00BFF206060689D
:105B600000F04040401C6060606820F08040606051
:105B7000A781A4F80EB06068C00F20B1204600F1E4
:105B80001001A16008E0054800681030A0600348DB
:105B900000682844014908602046D2E754010020EB
:105BA000A802002050010020190D0108DD5701084E
:105BB000F0B585B006460D463446002004900390AB
:105BC000029094F83C0000F0030020B1012838D086
:105BD000022866D000BF94F83C0000F003005A4948
:105BE000097888421BD02620005D00EB001000EBF6
:105BF0004000142190FBF1F0544908702720005D0B
:105C000000EB001000EB4000142190FBF1F0504934
:105C1000087094F83C0000F003004B49087002A89B
:105C200003A9CDE9001005EB45014FF6FF7202EA2A
:105C3000410004AB46490A78444909780AF042FD1C
:105C40005FE094F83C0000F003003F490978884287
:105C50001AD0A08C00EB400040024FF4B471B0FBAE
:105C6000F1F03C4908802720005D00EB001000EBBC
:105C70004000142190FBF1F03549087094F83C0085
:105C800000F003003049087002A803A9CDE9001014
:105C9000E9B204AB2E4802782E4800880AF012FDC3
:105CA0002FE094F83C0000F003002749097888426F
:105CB0001AD0A08C00EB400040024FF4B471B0FB4E
:105CC000F1F0244908802620005D00EB001000EB75
:105CD0004000142190FBF1F01C49087094F83C003E
:105CE00000F003001849087002A803A9EAB204AB47
:105CF000CDE9001015480178164800880AF0E2FC4A
:105D000000BF00BF9DF810009DF80C109DF8082002
:105D1000D708BDF8003067F304038F080093BDF87F
:105D2000003067F34A13C7080093BDF8003067F3EB
:105D3000CF230093BDF800703B460193BDF80410DB
:105D4000084605B0F0BD0000060200200402002055
:105D5000050200200202002010B50120074908704A
:105D60000748FEF7A6FC20B90648006828F0E0FCCA
:105D700003E00448006828F0E7FC10BD9002002012
:105D8000909B00209402002010B5044694F83E0039
:105D9000C0F3400050B9A08F002807DDA08F4FF658
:105DA000FF71884202D0A08F401EA087A08FA8B9A3
:105DB000606B20B194F83E00C0F3400070B1214602
:105DC0001748FEF7F5FCFFF7C7FFE06810B1204663
:105DD000E168884720461EF0B5FE1FE0A06B4042F8
:105DE000E062606BD0B194F83E10C1F3400111B98C
:105DF000216B4942E16294F83E104908C94394F886
:105E00003E2061F3410284F83E20E069616AE1616D
:105E10006062A06A616BA162606300BF10BD000098
:105E2000909B00202DE9F04180464248006828F010
:105E3000FBFA06464048007880F001003E490870B1
:105E40003E48FEF736FC04466BE000203C490870F3
:105E500094F83E00C0F3800037490978884253D057
:105E6000354801782C34A07C61F38200A07420684E
:105E70008719A07C2C3CC0F3C00010BBE06A00284E
:105E80001FDC002F1DDB94F83E0000F0010060B91C
:105E9000206950B12046216988470546E0692844B9
:105EA000E061606A2844606200BFA06810B12046CB
:105EB000A168884794F83E0020F00800083084F874
:105EC0003E00E06A3044E062E06A00281BDBD4E96F
:105ED0000A10884201DDA06AE0622046A169884775
:105EE0000546206AA84206D02562606818B1294696
:105EF000D4E900029047D4E90A10884202DB204628
:105F0000FFF742FF00BF00BF0D48007820B10B48EB
:105F1000FEF7CFFB044604E021460848FEF7E1FB0C
:105F20000446002C91D128F08CFA02490860BDE8A3
:105F3000F08100008C02002091020020909B002044
:105F400090020020F7B582B004460E4614B90498BA
:105F500005B0F0BD00BF63223146204622F0C8FAEA
:105F60000190019D00BFBDB12868A8B100BF6422A7
:105F70003146204622F0BCFA01900198C0B2074693
:105F80004FB13A462B682846049998470190BDF8CE
:105F90000400ADF8100000BF0498D9E770B50446BE
:105FA0000D46606818B129466068FFF7F7FF206862
:105FB00018B1294620462268904770BD70B5054645
:105FC0000C46A1B2284613F0F1FD70BD70B5054630
:105FD0000C46A1B2284613F03AFE70BD10B50DF084
:105FE000B5FC10BD70B505460C46164606E02846C1
:105FF0006A1C95B200F008F804F8010B301EA6F1F7
:1060000001018EB2F3D170BD70B5044600260DF0CB
:106010005DFD2112A02202EB4101C8B20DF020FD6E
:106020000DF09AFD2546E11704EB11610912A4EB6E
:106030000121C8B20DF014FD0DF08EFD0DF046FDEE
:10604000A1200DF00DFD0DF087FD00200DF0DAFC14
:1060500006460DF061FD304670BD70B505460C4634
:10606000164606E02178284600F009F8681C85B23B
:10607000641C301EA6F101018EB2F3D170BD70B563
:1060800004460E460DF022FD2112A02202EB410132
:10609000C8B20DF0E5FC0DF05FFD2546E11704EBFD
:1060A00011610912A4EB0121C8B20DF0D9FC0DF069
:1060B00053FD30460DF0D4FC0DF04EFD0DF02CFDDF
:1060C0000A2001F0EFFF70BD70B504460D4600BF19
:1060D000204600F03BF818B100BF00BF00BFFEE74C
:1060E00000BF284600F050F9001D61680844606058
:1060F000204600F03AF8204670BD70B505460C46C3
:10610000284600F041F904F11001884201D3012032
:1061100070BD0020FCE70146A1F1080070477CB586
:1061200005460C46204600F02FF906466A4601A9AE
:1061300029F018FB21462846DDE900320EF0B6FDB5
:106140007CBD0146087900F00100704710B5044697
:10615000204600F019F908B9012010BD0020FCE725
:106160000146087900F00200704770B504462046E9
:1061700000F097F805462C60284670BD7CB50646B1
:106180000C4600200190009000256CB16A4601A9E0
:10619000204629F004FB0198092805DA6A4601A97E
:1061A00030462BF0BBFC054685B100BF284600F009
:1061B000EBF8A04203D200BF00BF00BFFEE700BF64
:1061C00029463046DDE900322BF010F928467CBD27
:1061D00070B504462046FFF7C8FF0546284600F084
:1061E000BEF8204600F0B6F870BD70B504462046F3
:1061F00000F057F80546284600F0B6F8204600F0B3
:10620000BEF870BD70B506460D46284600F049F848
:10621000044600BF1CB900BF00BF00BFFEE700BFBF
:106220002046FFF78EFF90B100BF2846FFF78EFF94
:1062300018B100BF00BF00BFFEE700BF21463046D7
:1062400000F076F821462846FFF73EFF054628462F
:1062500070BD70B506460D462846FFF781FFF0B1C8
:10626000284600F057F8044600BF1CB900BF00BF25
:1062700000BFFEE700BF00BF2046FFF762FF18B96E
:1062800000BF00BF00BFFEE700BF2146304600F060
:106290004FF829462046FFF717FF054600BF28465E
:1062A00070BD2DE9F0410446204600F06DF8061F50
:1062B000204600F0B8F80746314629F02DFD054686
:1062C00000BF2046FFF742FF18B100BF00BF00BF6C
:1062D000FEE700BF2846BDE8F0812DE9F041064603
:1062E0000C461546002794B100BF1DB900BF00BF82
:1062F00000BFFEE700BF2A462146304600F097F86F
:106300002046FFF772FF204600F08DF8074638461A
:10631000BDE8F08110B5044600BF2046FFF720FF1E
:1063200018B900BF00BF00BFFEE700BF206810BD66
:106330007CB505460C46204600F026F806466A461F
:1063400001A929F00FFA21462846DDE900322BF099
:106350004DF87CBD416841F00101416070474168E2
:1063600041F0020141607047416821F00201416043
:106370007047426802F003030B4343607047416873
:1063800021F00101416070470146486820F0030098
:1063900070472DE9F04706460C46304600F043F8BA
:1063A0008046211F29F0B8FC07463046FFF7ECFF76
:1063B000211D451A00BF384600F035F881463846A1
:1063C00000F031F880460421FFF7DDFA814503D063
:1063D00000BF00BF00BFFEE700BF00BF3046FFF7B1
:1063E000D3FF2919091D884203D000BF00BF00BF99
:1063F000FEE700BF29463846FFF7BBFF00BF38461F
:10640000FFF7C2FF0C2803D200BF00BF00BFFEE7AA
:1064100000BF21463046FFF7ACFF3846FFF7D8FEF5
:106420003846BDE8F087014601F1080070472DE9C4
:10643000F04106460C46154600BF2046FFF781FE98
:1064400018B900BF00BF00BFFEE700BF29462046C5
:10645000FFF753FE78B129462046FFF79AFF07461B
:106460002046FFF782FE3846FFF779FF394630466F
:10647000FFF755FE00BFBDE8F0812DE9F04106466B
:106480000C46154600BF2046FFF75BFE18B100BF63
:1064900000BF00BFFEE700BF29462046FFF72DFEE4
:1064A00088B129462046FFF774FF07463846FFF7B4
:1064B0005BFF39463046FFF7A5FE074639463046B2
:1064C000FFF72DFE00BFBDE8F0812DE9F843064639
:1064D00034461CF005FB804640461CF046FB78BB6A
:1064E000304619F09AFD38B3304619F012FC208F6F
:1064F000E18E884212D0E08E2087E08E00906A46BE
:106500001C2130461AF076F80746012F02D0384693
:10651000BDE8F883304622F00CFE00BF40461CF078
:1065200034FB0546042D06D1304620F063FC0746B7
:1065300000211BF038F809E0304619F0D1FD05E0E4
:10654000FFE7208FE086304622F0F3FD0120DFE7F1
:106550002DE9F8430546284619F0E5FF064628468A
:106560001AF042F80746012E17D1384614F0CCFB3A
:10657000C4B22146384614F097FB8046414608488D
:1065800000681DF0C7FE0020034609220090054860
:106590000168034800681FF097F9BDE8F883000020
:1065A0005C030020600300202DE9F04104462046F2
:1065B0001AF01AF80546284620F076FC06462846CA
:1065C00014F0A2FB074601223946304627F0E4F8D2
:1065D000BDE8F0810146C1F3C01070470146C1F328
:1065E000801070470146C1F3C01070470146C1F3E7
:1065F000002070470146C1F3C00070470146C1F357
:10660000401070470146C1F3402070470146C1F376
:10661000003070470146C1F3001070472DE9F04F7C
:1066200089B004460D460021204620F0D8FA30B942
:106630001C2128461EF09DFC09B0BDE8F08F2946BC
:10664000204600F00BFB2946204600F07DF8002193
:10665000204621F0F7FC08900021204621F078FE2A
:1066600007900021204621F0ADFA012800D100E07A
:10667000002081460021204622F020F90746002113
:10668000204621F08DFB064642F2D170874205D1AB
:10669000608CC0F3802008B9012000E00020824611
:1066A000204620F03CFB069000BF4FF00008244835
:1066B00002884146204621F01BFF03900398C0B298
:1066C00000BF8346AA6829692868CDE90209CDE997
:1066D00000125A465146089B06980CF085FC288308
:1066E00042F2D170864205D1608CC0F3402008B9D7
:1066F000012000E000200590204620F0F1FA0490EF
:1067000000BF4FF000080F4802884146204621F0A4
:10671000EFFE03900398C0B200BF83460023EA68EF
:1067200069686869CDE90213CDE900025A46079B02
:10673000DDE904010CF058FC688300BF7CE7000031
:106740007A0100207E0100202DE9F34F87B00C462E
:1067500007980BF067FC8046079820F0E0FA069057
:10676000404601F081F92061216948001EF056F988
:106770002060216948001EF051F9A060002548E022
:106780005848029038F9150041F69A7188423FD175
:106790000020019029E00199079820F020FA00904C
:1067A0005149009822F033F900B11BE000980BF03A
:1067B00057FC8246BAF1010F00D013E000980BF0AD
:1067C0003FFC8346AB4500D00CE0009822F0B7F8C0
:1067D0000299884201DA029802E0009822F0AFF8AC
:1067E000029000BF0198401C0190079820F015FA14
:1067F00001998842CFD80298002804DB0298A1684A
:1068000021F8150003E00021A06820F8151000BF52
:106810006D1C2069A842B3D80026B14600251BE0B4
:1068200038F9150041F69B71884202DB411A0E448B
:1068300011E041F69A71884206D1A16831F815102D
:1068400049440FFA81F906E0A16821F8150009EB27
:1068500000010FFA81F96D1C2069A842E0D80021DF
:10686000079821F0EFFB05902169491EDDE905023B
:1068700000FB112000B206900698A0EB090007B2B9
:10688000002F00DA00274FF0FF3004900020039023
:10689000002513E038F9150041F69B7188420CDBA6
:1068A000421A11B207FB01F2B2FBF6F212B2A36870
:1068B00023F815200495039100BF6D1C2069A842A0
:1068C000E8D8049800280ADB0398301A7843B0FB14
:1068D000F6F0381A01B2A268049822F8101009B034
:1068E000BDE8F08F01E0FFFF010006002DE9FC5F2D
:1068F000054600221146284623F0E0FC00212846E8
:1069000021F0C7F981460021284621F048FD48447E
:1069100007B20021284621F0F9FA48440FFA80FA1C
:10692000284621F0B5F8384450440FFA80FB3B4E1E
:10693000284620F072F901904FF000085CE0A8684A
:10694000006850F828403649204622F060F800B12F
:1069500050E0204622F06AFC002839D10021204670
:1069600021F0C8F80090009830B1012807D0022823
:1069700004D0032815D100E000BF00BF00BFB4F968
:106980001A10B5F91600081A401CB04201DA304658
:1069900005E0B4F91A10B5F91600081A401C06B241
:1069A00014E00021204621F0BDFF70B904F114006D
:1069B00013F027FA3844B04201DA304604E004F11B
:1069C000140013F01EFA384406B200BF00BF10E0F6
:1069D000B4F91A10B5F91600081A401CB04201DAD1
:1069E000304605E0B4F91A10B5F91600081A401C33
:1069F00006B200BF08F10108019880459FD30748FF
:106A0000864209D006EB0A0006B25E4502DD30463A
:106A1000BDE8FC9F5846FBE75846F9E701E0FFFF59
:106A2000010004002DE9FC5F0546002211462846BE
:106A300023F028FC0021284621F02BF98246002172
:106A4000284621F0E9FB50440FFA80F8002128463F
:106A500021F039FB50440FFA80F9284621F028F83C
:106A60004844404400B20190724C284620F0D5F8CA
:106A700083460021284621F07EF8012866D10026B1
:106A80005BE0A868006850F826706B49384621F032
:106A9000BEFF00B150E0384622F0C8FB002839D1D3
:106AA0000021384621F026F80090009830B10328E4
:106AB00005D0062804D0082815D102E000BF00BF89
:106AC00000BFB5F91800B7F91410401A401CA042D5
:106AD00001DA204605E0B5F91800B7F91410401A9C
:106AE000401C04B214E00021384621F00EFF70B9BA
:106AF00007F1140013F0F8F94044A04201DA2046EF
:106B000004E007F1140013F0EFF9404404B200BFB1
:106B100000BF10E0B5F91800B7F91410401A401C76
:106B2000A04201DA204605E0B5F91800B7F91410C3
:106B3000401A401C04B200BF761C5E45A1D33D48FC
:106B4000844269D004EB090004B265E000265BE0F2
:106B5000A868006850F826703749384621F057FF7A
:106B600000B150E0384622F061FB80BB002138467E
:106B700020F0C0FF0090009830B1012805D0042813
:106B800004D0072815D102E000BF00BF00BFB7F94D
:106B90001800B5F91410401A401CA04201DA204632
:106BA00005E0B7F91800B5F91410401A401C04B2FA
:106BB00015E00021384621F0B5FE78B907F1140040
:106BC00013F092F94844A04202DA204605E008E0BA
:106BD00007F1140013F088F9484404B200BF00BF65
:106BE00010E0B7F91800B5F91410401A401CA04283
:106BF00001DA204605E0B7F91800B5F91410401A7B
:106C0000401C04B200BF761C5E45A1D309488442F3
:106C100002D004EB080004B20648844202D1019875
:106C2000BDE8FC9F0198844201DD2046F8E7019809
:106C3000F6E7000001E0FFFF0100040010B5044684
:106C400020681DF067FF60681DF064FFA0681DF0FC
:106C500061FFE0681DF05EFF10BD00002DE9F34FFD
:106C600087B00C4607980BF0CDFF8046404600F0F9
:106C7000FBFE6061616948001DF0D0FE60606169E3
:106C800048001DF0CBFEE060002548E05948029026
:106C900038F9150041F69A7188423FD100200190E1
:106CA00029E0019907981FF09AFF00905249009837
:106CB00021F0ADFE00B11BE000980CF06BF88246AD
:106CC000BAF1010F00D013E000980CF053F883469E
:106CD000AB4500D00CE0009820F096F8029988426D
:106CE00001DA029802E0009820F08EF8029000BFCE
:106CF0000198401C019007981FF08FFF019988426E
:106D0000CFD80298002804DB0298E16821F815002A
:106D100003E00020E16821F8150000BF6D1C6069E8
:106D2000A842B3D80026B14600251BE038F915006B
:106D300041F69B71884202DB411A0E4411E041F694
:106D40009A71884206D1E16831F8151049440FFA6A
:106D500081F906E0E16821F8150009EB00010FFA5E
:106D600081F96D1C6069A842E0D80021079821F0E4
:106D7000EFFA069007981FF0B3FF01466269521EB2
:106D8000069800FB121000B205900598A0EB0900D0
:106D900007B2002F00DA00274FF0FF3004900020E8
:106DA0000390002511E038F9150041F69B718842E7
:106DB0000ADB421A11B207FB01F2B2FBF6F212B281
:106DC000E36823F8152000BF6D1C6069A842EAD86B
:106DD000049800280ADB0398301A7843B0FBF6F0D9
:106DE000381A01B2E268049822F8101009B0BDE820
:106DF000F08F000001E0FFFF010006007CB50446B3
:106E00000D46164628882189084400B2ADF80000D6
:106E100068886189084400B2ADF80200A888218919
:106E2000084400B2ADF80400E8886189084400B263
:106E3000ADF80600324669462046636998477CBD36
:106E4000F8B505460E462C46206B10B1206B007835
:106E500018B9606B08B90120F8BD606B58B12846BD
:106E600027F08FF80746104909688847616B884208
:106E700001D30020F0E7206B98B1002000900AE0D9
:106E800069460A4A206B126890470746B74201D10B
:106E90000120E1E700BF206B0099405C0028EFD1A2
:106EA000DAE70120D8E70000E8020020D80200203D
:106EB0002DE9FF4F8FB00F46209DF87800F00100BC
:106EC00008B1FA4800E0FA480E90F87800F00100A6
:106ED00008B1F84800E0F8480D90F87800F001009B
:106EE00008B9F44800E0F4480C9001200B90B5E09C
:106EF00000220B9200206A88B5F804C0A2EB0C02B5
:106F000011B200261AE006EB860CEA6802EB8C024E
:106F1000127C02F0010242B906EB860CEA6802EB31
:106F20008C029289024410B207E006EB860CEA68F4
:106F300002EB8C0212898A1A11B2761C2A69B242BB
:106F4000E1D8002685E006EB860CEA6802EB8C02AD
:106F5000127C02F00102002A7AD191FBF0F80FFABC
:106F600088F306EB8609D5F80C8008EB8908B8F899
:106F70000C8008FB03F80FFA88F206EB8609D5F8B7
:106F80000C8008EB8908B8F9049006EB860AD5F85E
:106F90000C8008EB8A08B8F90680904501DD904620
:106FA00007E006EB860AD5F80C8008EB8A08B8F9EA
:106FB0000680C14508DD06EB8609D5F80C8008EB94
:106FC0008908B8F9048013E006EB8609D5F80C802F
:106FD00008EB8908B8F90680904501DD904607E086
:106FE00006EB8609D5F80C8008EB8908B8F906800D
:106FF000C44694450BD04FF0010806EB860AD5F83D
:107000000C9009EB8A09C9F81080CDF82C8006EBAA
:107010008609D5F80C8008EB8908A8F808C006EBAB
:107020008609D5F80C8008EB8908B8F80C80A0EB2D
:1070300008080FFA88F006EB8609D5F80C8008EBF3
:107040008908B8F80880A1EB08080FFA88F100BF9A
:10705000761C2A69B2423FF676AF00BF0B98002833
:107060007FF446AF00210F9820F09FFD012800D14A
:1070700000E000200A9000200990089008A809A9C3
:10708000CDE9001029890BB2B5F9022038781E9994
:1070900028F045FEF87800F0010048B10A9838B1B0
:1070A0000F981FF03CFEBDF82410084400B2099070
:1070B00011990F981FF093FD04468AE17F492046FD
:1070C00021F0A5FC40B1F878C0F3800111AA0F9817
:1070D0000BF0D3FB04467CE10021204620F036FE75
:1070E00007900798002858D000200390002610E051
:1070F00006EB8601E86850F82100A04208D106EBB3
:107100008600E96801EB8000B0F90800039003E015
:10711000761C2869B042EBD800BFF87800F0010077
:1071200030B1608C20F4806000F58060608405E000
:10713000608C20F4007000F50070608404F114008D
:107140000D9988470399884226D0204621F0F1FF07
:1071500000BFA08AADF80400E08AADF80600208BDD
:10716000ADF80800608BADF80A0000BF04F1140010
:107170000E9A0399904701AA2921204619F03AFA5C
:1071800020461FF091FE22462221009019F032FA8B
:10719000204621F0CEFF00BF07E0608C20F4806025
:1071A0006084608C20F40070608400200690787801
:1071B000012812D0022819D104F114000C99884733
:1071C000B5F90010491C21F00101081A039000EBE9
:1071D000D070401000B2069009E004F114000C9940
:1071E00088472988081A00B2069000E000BF00BF57
:1071F000F87800F0010050B10A9840B104F1140091
:107200000D998847BDF82410081A00B20990002093
:10721000039043F20C022046039921F069F9029091
:1072200002980FFA80F800BF0020039043F20D028D
:107230002046039921F05CF9029002980FFA80F938
:1072400000BF204621F07BFB059020461FF0DCFDAF
:10725000049008F4C040B0F5005F01D1012000E0C7
:10726000002030B128F4C040B0F5FA6F01DC0120F5
:1072700000E0002090B128F4C040B0F57A7F04DD32
:1072800028F4C040C0F57A7001E028F4C0400599A8
:107290004843642190FBF1F00FFA80F809F4C040F4
:1072A000B0F5005F0CD101200BE0000027A0010821
:1072B0001BA00108679F0108579E010801000600F6
:1072C000002030B129F4C040B0F5FA6F01DC012094
:1072D00000E0002090B129F4C040B0F57A7F04DDD1
:1072E00029F4C040C0F57A7001E029F4C040049947
:1072F0004843642190FBF1F00FFA80F9A18A1C98B1
:10730000401A40440FFA80FAE18A1D98401A484416
:107310000FFA80FBF87800F0010010B1BDF92400ED
:1073200000E0069850440FFA80FAF87800F0010067
:1073300008B1069801E0BDF9240058440FFA80FB1B
:10734000BAF1000F02D1BBF1000F1BD0204621F093
:10735000F0FEA08A504400B2A082208B504401B2BB
:107360002183E08A584401B2E182608B584401B223
:107370006183204621F0DDFE01235A465146204616
:1073800021F0B4FFF87800F0010008B10A9870B954
:1073900004F114000D9988471F990844BDF8201086
:1073A0000844BDF82410084400B2099008E0BDF874
:1073B00020101F980844BDF82410081A00B2099044
:1073C000F878C0F3800111AA0F980BF056FA044622
:1073D00000BF24B1DDE9111081427FF46FAE13B01C
:1073E000BDE8F08F2DE9F04F8DB005468946B9F123
:1073F000000F02D10DB0BDE8F08FA5F818902868F5
:1074000010B128681DF09EFB09EB4901062202EB32
:1074100041001DF0C9FA286000BF286818B900BFF4
:1074200000BF00BFFEE700BF28686860022128682F
:1074300001FB0900801CE8600421286801FB0900A9
:10744000001DA860B9F1010F0CD1B4206968087063
:107450000020E96808800120E96848800020A968C8
:107460000880C7E709F10101C8001DF0D7FA0746F7
:1074700009F1010007EB80084FF0000A4FEA89008C
:1074800002B20BA90CA800F067F90024BDF9300086
:107490008010079000200390CCE0002616E00BA996
:1074A0000CA800F061F90CA800F04BF900B90FE04E
:1074B000BDF93000801007A941F82600BDF8300062
:1074C00000F0030003A941F82600761C042EE6DB39
:1074D00000BF042E00D0B3E00A990798884219D162
:1074E000079800B227F814000FFA8AF028F8140061
:1074F000DDE90301084405990844069908446968D0
:1075000008556868005D0007000E69680855601C32
:1075100004B28DE0DDE9070188422CD0079800B263
:1075200027F814000FFA8AF028F814000398696805
:1075300008556868005D0007000E69680855601C02
:1075400004B20798401E00B227F814000FFA8AF020
:1075500028F814000498001D059908440699084469
:10756000696808556868005D0007000E696808557D
:10757000601C04B25CE00999079888422CD00798F7
:1075800000B227F814000FFA8AF028F81400DDE999
:1075900003010844696808556868005D0007000E2B
:1075A00069680855601C04B20798401E00B227F8AD
:1075B00014000FFA8AF028F814000598083006998C
:1075C0000844696808556868005D0007000E69682E
:1075D0000855601C04B22BE0079800B227F814008D
:1075E0000FFA8AF028F81400DDE903010844059930
:1075F0000844696808556868005D0007000E6968FE
:107600000855601C04B20798401E00B227F8140009
:107610000FFA8AF028F8140006980C3069680855AB
:107620006868005D0007000E69680855601C04B2B8
:107630000AF1010A0CA800F084F800287FF42DAFAD
:1076400000BF40F2D32109FB01F0029002988012A2
:107650000190601E37F910100198814205D1601E1B
:1076600038F910100198814226D0DDE90121A1EB03
:107670008220B0F5007F04DC00FB00F1480000141C
:1076800007E0C0F5806000FB00F148000014C0F185
:107690000F00019909B227F81410019909B228F8CE
:1076A00014106A6810556968095D0907090E6A684F
:1076B0001155611C0CB200BFA61E0EE038F8160072
:1076C00027F8140037F8160028F814006868805D61
:1076D00069680855761E601C04B2002EEEDA4FF081
:1076E000000B00260020E968088023E0E96821F803
:1076F0001B6037F81600A96821F81B0010E0A86885
:1077000030F81B0037F91610884203DAA86830F801
:107710001B0001E037F91600A96821F81B00761C50
:1077200038F91600584501D1A642E8DB0BF10100FB
:107730000FFA80FBA642D9DB38461DF0EBF900BFFB
:1077400058E60146B1F90200B1F90020904201DC8F
:10775000012070470020FCE7028000234380C2F133
:1077600001031BB20B807047B1F90020002A07DC2F
:107770000B8842885200D21C1A4412B20A800CE0D4
:1077800042880388D21A5200521D0B881A4412B242
:107790000A800288521E12B202804288521C12B223
:1077A0004280704737B582B01546022D04DCBDF823
:1077B0000C10084605B030BDBDF80C00C00ABDF87D
:1077C000081000EBD1241F2C01D2204600E01F201E
:1077D000BDF8081060F3CF210291BDF80C00C0F392
:1077E0004510BDF80810C1F3451144183F2C01D2D3
:1077F000204600E03F20BDF8081060F34A110291D6
:10780000BDF80C0000F01F00BDF8081001F01F01CA
:1078100044181F2C01D2204600E01F20BDF808109C
:1078200060F304010291FF2D03D1BDF80810084652
:10783000C0E72A46DDE9020114F09EFC0190BDF884
:1078400004100846B6E717B581B01446022C04DCD4
:10785000BDF80810084604B010BDBDF80400C00A09
:10786000BDF80810C90A48434109BDF8040061F396
:10787000CF200190BDF8040000F01F00BDF80810F3
:1078800001F01F0148434109BDF8040061F3040001
:107890000190BDF80400C0F34510BDF80810C1F315
:1078A000451148438109BDF8040061F34A10019075
:1078B000FF2C03D1BDF804100846CCE72246DDE9D1
:1078C000010114F059FC0090BDF800100846C2E711
:1078D00037B582B01546022D04DCBDF80C10084601
:1078E00005B030BDBDF80C00C00ABDF80810A0EB13
:1078F000D124002C01DD204600E00020BDF8081056
:1079000060F3CF210291BDF80C00C0F34510BDF823
:107910000810C1F34511441A002C01DD204600E097
:107920000020BDF8081060F34A110291BDF80C0068
:1079300000F01F00BDF8081001F01F01441A002CD0
:1079400001DD204600E00020BDF8081060F30401CE
:107950000291FF2D03D1BDF808100846C0E72A4662
:10796000DDE9020114F008FC0190BDF8041008469E
:10797000B6E708B5034600930098484080EA6200E5
:1079800008BD2DE9F84F8046404618F02DFE82468E
:10799000404618F0C8FD064650461FF085FA81465D
:1079A0002B2E09D1484625F0EAFE04460022214646
:1079B000484625F0F1FE3AE00A2E38D16946504695
:1079C0001FF0F4FA50461FF0AAF904460021484679
:1079D00020F005F901280AD1204604EBD071BDF949
:1079E0000020C2EB610191FBF4F10DB209E02046E9
:1079F00004EBD071BDF9002002EB610191FBF4F1C1
:107A00000DB2002D00DA00250027484625F0B7FE0C
:107A1000A84200D0012701222946484625F0BCFE95
:107A200027B100221C21484618F0E4FD00BFBDE844
:107A3000F88F10B58060C06000230361002110E062
:107A4000002400F1140343F82140002206E000F175
:107A5000380303EBC11343F82200521C202AF6DB43
:107A6000491C0929ECDB10BD0146002000E0401C48
:107A700031F9102041F6FF739A42F8D170470000A7
:107A800010B500BF00224FF400711148FAF730FA28
:107A900000BF00F021F800BF012202210D48FAF7D3
:107AA00027FA00BF00F018F800BF002202210948A1
:107AB000FAF71EFA00BF00F00FF800BF01225102D2
:107AC0000348FAF715FA00BF00F006F810BD0000F1
:107AD000001C0140000C014010B5022000F0EEFA3D
:107AE00010BD000000B585B000BF00BF1948806917
:107AF00040F00800174988610846806900F00800D6
:107B0000009000BF00BF00BF00BF00BF08468069F3
:107B100040F0800088610846806900F08000009095
:107B200000BF00BF00BF0220019011200290012081
:107B300003900320049001A90748FAF727F84FF4AF
:107B40000070019001A90548FAF720F800F0BEF88E
:107B500005B000BD00100240000C0140001C0140B7
:107B600010B500BF012251020C48FAF7C1F900BF5D
:107B7000FFF7B2FF00BF012202210948FAF7B8F966
:107B800000BFFFF7A9FF00BF002202210448FAF757
:107B9000AFF900BFFFF7A0FF10BD0000001C0140BF
:107BA000000C014070B50546002400261DE060066B
:107BB000040E00BF012202211148FAF799F900BF13
:107BC000FFF78AFF4FF400710E48FAF77FF908B10A
:107BD000601CC4B200BF002202210948FAF788F9EC
:107BE00000BFFFF779FF701CC6B2082EDFDB15B9A6
:107BF000FFF7B6FF01E0FFF743FF204670BD00002E
:107C0000000C0140001C014070B50446002525E031
:107C100000BFE00928B1012251021548FAF768F9BE
:107C200005E000224FF400711148FAF761F900BF36
:107C3000FFF752FF00BF012202210E48FAF758F960
:107C400000BFFFF749FF00BF002202210948FAF7F1
:107C50004FF900BF6006040E681CC5B2082DD7DBC3
:107C600000BF012251020248FAF742F900BF70BD7D
:107C7000001C0140000C014010B500BF0122510260
:107C80001048FAF735F900BF00BF012202210E4863
:107C9000FAF72EF900BFFFF71FFF00BF00224FF4D5
:107CA00000710848FAF724F900BFFFF715FF00BF7D
:107CB000002202210448FAF71BF900BFFFF70CFF6E
:107CC00010BD0000001C0140000C014010B500BFB9
:107CD00000224FF400710C48FAF70AF900BFFFF7D1
:107CE000FBFE00BF012202210848FAF701F900BF9C
:107CF000FFF7F2FE00BF012251020348FAF7F8F83D
:107D000000BFFFF7E9FE10BD001C0140000C014060
:107D100070B50024002500BF012251021648FAF771
:107D2000E7F800BFFFF7D8FE00BF01220221134889
:107D3000FAF7DEF800BFFFF7CFFE09E0601CC4B21F
:107D4000FA2C03DDFFF7C2FF012508E0FFF7C4FEB0
:107D50004FF400710848FAF7B9F80028EED100BFD7
:107D600000BF002202210548FAF7C2F800BFFFF762
:107D7000B3FE284670BD0000001C0140000C01400D
:107D80007CB506460D4634465020005D00F00100EB
:107D9000A84233D00DB1012000E000205021095D40
:107DA00060F300015020015504F14401684612F0CF
:107DB00018F8BDF80000616A898A084400B2ADF87D
:107DC0000000BDF80210606AC08A084400B2ADF835
:107DD0000200BDF80400616A898A084400B2ADF867
:107DE0000400BDF80610606AC08A084400B2ADF80D
:107DF00006006946304621F0D6F900BF7CBD37B594
:107E000082B0054614462146039814F00FF80190FD
:107E1000BDF80410084605B030BD2DE9FF4F8DB008
:107E200005460E461446F07A022803DC012011B004
:107E3000BDE8F08F3089326901460C901098FCF74C
:107E400061F907460FB90020F1E7397D01F01F0005
:107E500019F085FD10B14FF006080AE0397D01F0F8
:107E60001F0019F05FFD10B14FF0050801E04FF061
:107E70000408386A38B100BF00BF214628463A6A74
:107E80002AF04DF8DEE0B869002859D021460BA849
:107E900011F068FF308818B97088B0F5807F32D053
:107EA000204612F02FF8834600BFE0886188401A10
:107EB000401C00B20890301D7188CDE90010308858
:107EC00003B259460BA8089AFBF746FCBDF82C00F4
:107ED0002188084400B2ADF82C00BDF82E0061885E
:107EE000084400B2ADF82E00BDF8300021880844E7
:107EF00000B2ADF83000BDF832006188084400B22D
:107F0000ADF8320000BF0BAA09A8A968FBF72EF94B
:107F10008146B9F1000F04D1384601F046FC01203A
:107F200085E7D5F808A009A8A860CDF8008022460A
:107F300031462846BB6915F0C9F9C5F808A081E0AB
:107F400022460BA8A968FBF711F90A900A9820B9F4
:107F5000384601F02AFC012069E70BA811F0D2FF96
:107F600009900BA811F0CEFF00EB400003901CF02D
:107F700055FD8146D5F808A00BA907A811F0F2FE1F
:107F8000012107A812F049F8BDF92C00B4F900103E
:107F9000401A0690BDF92E00B4F90210A0EB010BB7
:107FA000BDF92E00059042E007AA514602A8FBF752
:107FB000DDF80A900A9800B936E0CDF800900998EB
:107FC00003B20FFA8BF2069801B238461AF0F4F9B0
:107FD0000490049801280ED038461AF00DF900BF1D
:107FE00000BF48461CF096FD384601F0DEFBC5F8A0
:107FF00008A000201BE702A8A8604B4607AA31464C
:108000002846CDF8008015F061F9BDF81E00401C2F
:1080100000B2ADF81E00BDF82200401C00B2ADF861
:1080200022000BF1010B00BF0598401C0590BDF923
:10803000321005988142B7DAC5F808A048461CF00E
:1080400069FD00BF384601F0B0FB0120EFE600BF3C
:1080500000BF704770B5044600204FF0E021086172
:10806000FAF7E0FBE11704EB5171C1F3CF010C4AC1
:108070001180E11704EB5171CD104FF47A70454334
:108080004FF0E020006940F002004FF0E02108616D
:1080900008464561006940F00100086170BD0000BC
:1080A0001000002030B50446002504E04FF47A703B
:1080B00000F004F86D1CA542F8D330BD70B503463E
:1080C00000224FF0E02675690D4E368803FB06F45A
:1080D0004FF0E026B16910E04FF0E026B069884229
:1080E0000BD0884202D20E1A324402E02E1A0E44FD
:1080F00032440146A24200D300E0EDE700BF70BD6C
:1081000010000020F8B506460C4615460095B4F957
:108110000630B4F90420B4F90210B4F900000DF0EF
:10812000DAFC304614F092FDF8BD10B50FF024FFD4
:1081300001200DF0E3FB10BDF8B505462C461AF002
:10814000CFFC0646206B26F06FF93168898B884298
:108150002CD2606A009094F83C0000F0030020B13B
:10816000012806D002280CD107E00020ADF800005D
:1081700007E064208DF8020003E064208DF803001E
:1081800000BF00BF30461AF06FFE2846009914F079
:10819000F4FB50B100221C21284618F02BFA0746A8
:1081A000012F01D03846F8BD00BF00BF26F049F9C5
:1081B00020630120F7E700002DE9F04F9BB0074650
:1081C00089461646BA4617A814F0FDFD4FF4A021C3
:1081D00038461FF0A7FC9DF8691060F382018DF806
:1081E0006910304611F0C6FE054600EBD5704FEA27
:1081F00060083088404400B2ADF8580070884044B0
:1082000000B2ADF85A00002138461FF03EFE15902E
:10821000494603A81EF098FA17A80B904FF40030B7
:10822000109033480490002005900AF13000FCF7CC
:1082300065FA044657E02079032800D04DE0208BF2
:10824000ADF85C00208A00B2ADF85E006079FD28D0
:1082500001DD159803E060791599484300128DF807
:1082600068002568B5F92000E98B08440090B5F94D
:108270002030D5E90512A0681CF082FB8346B5F9D1
:108280002000E98B08440090B5F92030D5E90512AB
:10829000E0681CF075FB0290608B404400B2ADF8C2
:1082A0004800149416A80C9003AA1A21384618F016
:1082B000A1F9029880B21FFA8BF1CDE90010BDF848
:1082C000480083B216AA17A9484614F05EFD03AA17
:1082D0001B21384618F08EF900BF21460AF1300004
:1082E000FCF706FA0446002CA5D11BB0BDE8F08FC0
:1082F00040BB030870B504460D46002229462046BF
:1083000007F07EFE01222946204607F079FE022270
:108310002946204607F092FC04222946204607F011
:108320008DFC70BD2DE9F74F9EB00C46E078022819
:1083300002DC21B0BDE8F08F1CA8209911F024FDCB
:10834000B4F9200001282EDD94F82200FD282ADB54
:10835000208840B3BDF8700014F8231F4908C1F30A
:108360008001084400B2ADF87000BDF872002178B9
:108370004908C1F34001084400B2ADF87200BDF8ED
:10838000740021784908C1F3C001401A00B2ADF869
:108390007400BDF8760014F82319C1F34001401AA7
:1083A00000B2ADF876001E981CA982681AA8FAF7E8
:1083B000DDFE00B9BDE7E07B00F0070616B9A08836
:1083C000199001E0E0881990BDF86410608981423D
:1083D00000D100261CA815F0DFFE18901C2111A862
:1083E000F8F746FAA0788DF85D00BDF86400ADF8A6
:1083F0004C00189860B9208850B94EB91CA811904B
:10840000E0788DF85C0011A91E9816F075FD90E7D4
:10841000E078FD2801DBFF2000E0E07810901CA848
:1084200011F09AFD0F901CA811F00EFD0E90DDE9E1
:108430000E01814201DA0F9800E00E980D90B4F918
:1084400000100D98B1EB600F02DAB4F9000001E002
:108450000D98401007461AA811F07EFD81464FF096
:10846000FF300C9000200B90002F01DC189870B1A9
:1084700048461CF0D3FA0B9000233AB21CA905A879
:1084800016F002FA002105A815F080FB0C90BDF84B
:108490006800ADF80C00BDF86C00ADF810000B984A
:1084A000149003A811901690FF208DF85C00A01D79
:1084B000DDE90E2118F026FE8046B8F1000F0CD041
:1084C000022E0AD1BDF96810D8F8080000EB41006F
:1084D000BDF97010A0EB410012901898A0B3BDF93F
:1084E0006A502CE028B2ADF80E0028B2ADF81200A8
:1084F0004A4610990B981CF002FDBDF968100FFA5E
:1085000089F32AB20B9815F0F7FD8DF854009DF809
:108510005400012802D102208DF85400012E09D107
:10852000BDF97210691AD8F8080000EB4100008804
:10853000ADF84C0011A91E9816F0DEFC6D1CBDF9BB
:108540006E00A842CEDACCE0FFE700255CE0BDF883
:10855000720028440FFA80FABDF87600401B0FFA2B
:1085600080FBBDF96A00504504DDBDF96E00584539
:1085700000DA48E04A4610990B981CF0C0FCBDF99F
:108580000C100FFA89F352460B9815F0B5FD8DF8D3
:1085900054009DF85400012802D102208DF85400A7
:1085A000BDF96A00504514DCADF80EA0ADF812A07C
:1085B000012E0AD1BDF97210AAEB0101D8F808000A
:1085C00000EB41000088ADF84C0011A91E9816F090
:1085D00093FCBDF96E00584514DBADF80EB0ADF854
:1085E00012B0012E0AD1BDF97210ABEB0101D8F81F
:1085F000080000EB41000088ADF84C0011A91E985E
:1086000016F07AFC00BF6D1CBD42A0DBBDF8700007
:10861000ADF80400BDF87400ADF80800BDF87200B4
:10862000384400B2ADF80600BDF87600C01B00B2B9
:10863000ADF80A0001A815F0AFFD00900098B0B9A0
:10864000AEB9BDF87200384400B2ADF80E00BDF806
:108650007600C01B00B2ADF8120010988DF85C00D7
:108660000020149011A91E9816F046FC38E01098CE
:108670008DF85C0001208DF85400BDF97600A0EB68
:10868000070ABDF97200C51927E0009870B14A4683
:1086900010990B981CF033FCBDF968100FFA89F3A0
:1086A0002AB20B9815F028FD8DF8540028B2ADF8C9
:1086B0000E0028B2ADF81200012E09D1BDF97210DA
:1086C000691AD8F8080000EB41000088ADF84C00AA
:1086D00011A91E9816F010FC6D1C5545D5DD00BF84
:1086E00000BF0B9810B10B981CF014FA0C98401CAA
:1086F00028B10C9816F0B0F905A815F029FDB8F1CD
:10870000000F02D0404618F0F4FC00BF11E62DE93E
:10871000F0478EB007460C461546206910B90EB0DA
:10872000BDE8F087A07E022800DCF8E720691AF097
:1087300076F90646022E55D1002041F6FF71CDE9AB
:108740000001029003460DA8D4E9041226F064FA51
:10875000284611F001FC814600EBD970298801EB15
:108760006000BDF9348008EBD871A0EB610000B265
:10877000ADF82C00BDF82C00BDF834100844401EA4
:1087800000B2ADF83000284611F05EFB814600EBE8
:10879000D970698801EB6000BDF9368008EBD871AB
:1087A000A0EB610000B2ADF82E00BDF82E00BDF8C0
:1087B00036100844401E00B2ADF8320003A815F090
:1087C0006DF960690390208BADF81800A07E8DF8DC
:1087D0002600002000900BAA03A93846236914F054
:1087E000A9FDAEE00DA9206919F032FD8046B8F16F
:1087F000010F02D000BF00BF91E707A814F07DFD74
:10880000A0788DF82800208BADF82400E07E8DF84C
:108810002600A07E8DF82700207FE8BB284611F0B7
:108820009BFB824600EBDA70298801EB60000D9912
:10883000C1F38A2909EBD971A0EB610000B2ADF850
:108840001400284611F000FB824600EBDA706988BC
:1088500001EB60000D994FEA515909EBD971A0EB7A
:10886000610000B2ADF81600BDF814000D99C1F317
:108870008A210844401E00B2ADF81800BDF8160069
:108880000D9900EB5150401E00B2ADF81A0005AA38
:1088900007A93846236900E002E014F0DFFC4FE04E
:1088A0006888ADF81600BDF816000D9900EB515020
:1088B000401E00B2ADF81A003BE02888ADF8140065
:1088C000BDF814000D99C1F38A210844401E00B27E
:1088D000ADF8180017E005AA07A93846236914F077
:1088E000BDFCBDF814000D99C1F38A21084400B203
:1088F000ADF81400BDF818000D99C1F38A210844A1
:1089000000B2ADF81800BDF91400B5F904108842A2
:10891000E1DDBDF816000D9900EB515000B2ADF845
:108920001600BDF81A000D9900EB515000B2ADF8D9
:108930001A00BDF91600B5F906108842BDDD00BF6A
:1089400000BF00BFEBE62DE9F04F87B083460C4631
:10895000164694F82200022802DC07B0BDE8F08F2A
:10896000208C00B9F9E794F82300C0F3440000B963
:10897000F3E794F8230000F0010000B1EDE7304682
:1089800011F0EAFA8146304611F05EFA0746B4F972
:108990000050B94501DA484600E038468246B5EB5A
:1089A0006A0F01DD4FEA6A05314605A811F0ECF9BE
:1089B000BDF9141094F82300400800F0040010B131
:1089C000B4F9200003E0B4F92000284440420844F0
:1089D00000B2ADF81400BDF9181094F82300400857
:1089E00000F0080010B1B4F9200003E0B4F9200051
:1089F00028444042081A00B2ADF81800BDF916101C
:108A000094F82300400800F0020010B1B4F92000EF
:108A100003E0B4F9200028444042084400B2ADF815
:108A20001600BDF91A1094F82300C0F3400010B1ED
:108A3000B4F9200003E0B4F9200028444042081AA9
:108A400000B2ADF81A00208C281A0FFA80F8B8F19D
:108A5000000F01DA4FF00008A07894F82210CDE959
:108A60000210E08BADF804002BB205AA314658463F
:108A7000CDF8008000F002F800BF6EE72DE9FF4F4F
:108A8000A3B00D4616461F463298FF2801DBFF2093
:108A900000E032983290284615F07EFB2290229812
:108AA00068B967B9309850B9329800903246294673
:108AB000319B239800F0A9FA27B0BDE8F08F2398E6
:108AC0002946826820A8FAF751FB00B9F4E720A8EC
:108AD00011F042FA81461C2119A81CF04AFA4846B6
:108AE0001BF09CFF1C904FF0FF301890002F0ADD08
:108AF00000233A46294612A815F0C6FE002112A806
:108B000015F044F81890012331460CA8309A15F05E
:108B1000BBFE00210CA815F039F80B9009A819909C
:108B20001E90BDF8C400ADF86C0032988DF87C0042
:108B300033988DF87D00B5F900003844B6F900107F
:108B4000884203DDB5F90000384401E0B6F90000C1
:108B500000B2ADF81C00B5F90400C01BB6F9041052
:108B6000884203DAB5F90400C01B01E0B6F904003D
:108B700000B2ADF82000B5F902003844B6F9021091
:108B8000884203DDB5F90200384401E0B6F902007D
:108B900000B2ADF81E00B5F90600C01BB6F906100C
:108BA000884203DAB5F90600C01B01E0B6F90600F9
:108BB00000B2ADF8220007A811F0CEF90690B5F981
:108BC0000200B6F90210884201DC012000E000201A
:108BD0008246B5F90600B6F90610884201DB01208D
:108BE00000E000208346229800284CD0BDF8800089
:108BF000ADF82400BDF88400ADF82800BDF982402E
:108C000029E0BAF1000F04D1BDF91E00A04200DD39
:108C100020E0BBF1000F04D1BDF92200A04200DA30
:108C20001DE020B2ADF8260020B2ADF82A0049467A
:108C30001C981CF0D5F9BDF980100FFA89F322B207
:108C40001C9815F059FA8DF8740019A9239816F09C
:108C500053F900BF641CBDF98600A042D1DA00BF01
:108C60000CA815F075FA0B9815F0F6FE1898401C34
:108C700028B112A815F06CFA189815F0EDFE1C98A2
:108C80001BF048FF18E7B5F90000B6F9001088425C
:108C900001DC012000E000200590B5F90400B6F9E0
:108CA0000410884201DB012000E000200490012034
:108CB0000390059860B1049850B1BAF1000F07D045
:108CC000BBF1000F04D00698322801DA002003908F
:108CD00001208DF87400BAF1000F15D0039898B1F7
:108CE000BDF81C00ADF82400BDF82000ADF8280048
:108CF0006888ADF826007088401E00B2ADF82A00E2
:108D000019A9239816F0F8F8BBF1000F15D00398B5
:108D100098B1BDF81C00ADF82400BDF82000ADF8F6
:108D20002800F088401C00B2ADF82600E888ADF8B5
:108D30002A0019A9239816F0DFF8059898B1288819
:108D4000ADF824003088401E00B2ADF82800BDF810
:108D50001E00ADF82600BDF82200ADF82A0019A9C2
:108D6000239816F0C9F8049898B1B088401C00B256
:108D7000ADF82400A888ADF82800BDF81E00ADF8B5
:108D80002600BDF82200ADF82A0019A9239816F094
:108D9000B3F80398F0BBBDF88000ADF82400BDF82F
:108DA0008400ADF82800B5F90200B6F90210401AA7
:108DB000B84201DA384604E0B5F90200B6F902100B
:108DC000401A00B20290002442E06888204400B2B9
:108DD0000190E888001B00B20090BDF98210019854
:108DE000814205DDBDF986100098814200DA2EE04F
:108DF00049461C981CF0F4F8BDF924100FFA89F3C9
:108E0000019A1C9815F078F98DF87400BDF982105C
:108E1000019800E020E0814209DC0198ADF82600CD
:108E20000198ADF82A0019A9239816F065F8BDF944
:108E300086100098814209DB0098ADF82600009862
:108E4000ADF82A0019A9239816F056F800BF641C43
:108E500002988442B9DBC7E0BDF88000ADF8240079
:108E6000BDF98410BDF91C00401E814202DABDF933
:108E7000840002E0BDF91C00401E00B2ADF82800DD
:108E800009A811F069F88046B8F1000F48DD05988F
:108E900010B9BAF1000F1ED0BDF9824017E020B220
:108EA000ADF8260020B2ADF82A0041461C981CF00F
:108EB00097F8BDF92410434622B21C9815F01CF90E
:108EC0008DF8740019A9239816F016F8641CBDF9E2
:108ED0001E00A042E3DC059810B9BBF1000F1FD0C3
:108EE000BDF92200441C17E020B2ADF8260020B2E4
:108EF000ADF82A0041461C981CF072F8BDF9241008
:108F0000434622B21C9815F0F7F88DF8740019A9A1
:108F1000239815F0F1FF641CBDF98600A042E3DA46
:108F2000BDF98010BDF92000401C814202DDBDF971
:108F3000800002E0BDF92000401C00B2ADF8240022
:108F4000BDF88400ADF8280009A811F005F88046A6
:108F5000B8F1000F48DD049810B9BAF1000F1ED027
:108F6000BDF9824017E020B2ADF8260020B2ADF87E
:108F70002A0041461C981CF033F8BDF924104346E2
:108F800022B21C9815F0B8F88DF8740019A923982E
:108F900015F0B2FF641CBDF91E00A042E3DC04988A
:108FA00010B9BBF1000F1FD0BDF92200441C17E01F
:108FB00020B2ADF8260020B2ADF82A0041461C9838
:108FC0001CF00EF8BDF92410434622B21C9815F08F
:108FD00093F88DF8740019A9239815F08DFF641C7F
:108FE000BDF98600A042E3DA0CA815F0B1F80B98A1
:108FF00015F032FD12A815F0ABF8189815F02CFDFD
:109000001C981BF087FD00BF56E52DE9FF4F89B086
:1090100080460C461546DDF858901C2168461BF02A
:10902000A8FF07A80090BDF83000ADF808008DF843
:109030001890B4F90200B5F90210884201DC012051
:1090400000E000200646B4F90600B5F90610884293
:1090500001DB012000E000200746B4F90000B5F96B
:109060000010884201DC012000E000208246B4F9B3
:109070000400B5F90410884201DB012000E0002063
:1090800083462088ADF81C00A088ADF820006088D9
:10909000ADF81E006888401E00B2ADF822001EB177
:1090A0006946404615F028FFE888401C00B2ADF83C
:1090B0001E00E088ADF822001FB16946404615F059
:1090C0001BFF2088ADF81C002888401E00B2ADF8B8
:1090D000200016B1B5F9020001E0B4F90200ADF8C4
:1090E0001E0017B1B5F9060001E0B4F90600ADF8AD
:1090F0002200BAF1000F03D06946404615F0FCFE8D
:10910000A888401C00B2ADF81C00A088ADF8200073
:10911000BBF1000F03D06946404615F0EDFE0DB0DF
:10912000BDE8F08F2DE9FF4F93B007469046994672
:109130004FF6FF70804502D117B0BDE8F08F3E4674
:10914000746A208C1290208C484506D0A4F8209098
:10915000608C20F00400001D60844FF480212046C4
:109160001FF093FA11904FF4802120461FF0FDFA72
:109170000546119817F01AFD8246384609F083FA21
:109180008346BBF81600ADF83E00BDF93E000AEB81
:10919000050108FB010000B2ADF83E00284605EBD2
:1091A000D071BDF83E20A2EB610109B2ADF83E10CE
:1091B000BDF83E0050442844401E00B2ADF84200C5
:1091C000706A808AADF83C00706A008BADF8400090
:1091D00001A815F06FFC01AA4FF4802120461FF072
:1091E000F9FD0FAA01A9149815F048FC12982084E3
:1091F000608C20F00400608400BF9DE72DE9F04FF3
:1092000091B007460D46904699464FF6FF7080454F
:1092100002D111B0BDE8F08F1097109F7C6A208CAE
:109220000F90208C484506D0A4F82090608C20F048
:109230000400001D608407A814F030FC07AA4FF456
:10924000802120461FF0EBFC4FF4802120461FF0C8
:109250008CFAADF82E00384609F015FA064606B924
:10926000D7E7079817F0A2FC8246F08AADF81600FF
:10927000BDF91600BDF92E10514408FB010000B2E3
:10928000ADF81600BDF92E0000EBD071BDF8162028
:10929000A2EB610109B2ADF81610BDF816005044FA
:1092A000BDF82E100844401E00B2ADF81A00A08A86
:1092B000ADF81400208BADF8180005AA03A8A96822
:1092C000F9F754FF8346BBF1000F13D0A868029052
:1092D00003A8A86030461AF037FB019000200090E8
:1092E00006F1140207A92846019B14F023F80298FE
:1092F000A86000BF0F982084608C20F00400608478
:1093000000BF86E72DE9F04105463548006813F0B7
:10931000B7FC04462868866BF06A10B13046F16AE3
:109320008847206890B1606880B10CE02C480068E4
:109330000068806A38B12A4A12681068284A1268A0
:109340001268916A884720690028EFD101202061C6
:10935000234800680068C068806900F0010050B1CF
:109360001F4800680068C0688069C0F3400010B101
:109370000120606101E000206061606908B10120A6
:1093800000E0002007462868406998B12868007C02
:10939000C0F3011048B12868007CC0F3800020B100
:1093A000D6E9001000F01EF804E0D6E90021286894
:1093B000FDF724FD206880B1606870B12868007CEA
:1093C00000F0010000B147B12168A068884202D1D5
:1093D0006068A06001E02068A060BDE8F081000046
:1093E0004C0100202DE9F34F83B004468848006803
:1093F0000568874800680068007CC0F3400040B101
:10940000287CC0F3800020B100BF00BF05B0BDE8DC
:10941000F08F287CC0F3011002280AD1214628468B
:10942000049A00F004F921462846049AFDF7E6FC68
:10943000EBE0287CC0F30110012804D0287CC0F3A5
:1094400001100328F4D1002002907148006813F045
:1094500017FC8246204610F04EFD0646204610F0CE
:10946000D7FC83464FF4A050B0FBF6F000B258454D
:1094700005DA4FF4A050B0FBF6F000B200E0584619
:109480000190B4F90280287CC0F3011001280BD1AF
:1094900068882188401A401E00B2E080E088801B66
:1094A000401C00B2608006E0208860806088304404
:1094B000401E00B2E08000279EE0ABEB0701019860
:1094C000814201DD019801E0ABEB07000FFA80F962
:1094D0000120CAF8100047BBB34526DBB146297C02
:1094E000C1F30111032901D1012100E00021084647
:1094F0003146049A00F00FF9287CC0F301100128CE
:1095000007D1A4F8008008EB0600401E00B2A0803E
:109510003FE02888401EA0EB080000B2A080A08891
:10952000801B401C00B2208033E0029820B94FF429
:1095300020501BF073FA029002980090297CC1F32E
:109540000111032901D1012100E0002108464A460A
:109550003146049B00F0B2F8287CC0F301100128CA
:109560000AD108EB070000B2208008EB070048444E
:10957000401E00B2A0800CE02888401EA0EB08002E
:10958000C01B00B2A080A088A0EB0900401C00B264
:10959000208007EB090058450DDBDAF8180000F0D1
:1095A000010040B1DAF81800C0F3400018B1012002
:1095B000CAF8140002E00020CAF81400029808B9A2
:1095C000049800E00298024621462846FDF716FC62
:1095D00004E0A86A10B12846A96A8847DAF81000A2
:1095E0000028F6D106FB09F1049800EB4100049035
:1095F00007EB090007B200BF5F45FFF65EAF0298B8
:1096000010B102981BF086FA00BF00BFFEE6000012
:109610004C01002018B5048800940C88048014883C
:109620000C801C881480BDF800401C8018BD2DE9FA
:10963000FC5F05460C461646204610F05CFC824650
:10964000204610F0E5FB83460AFB0BF001900198E1
:10965000471E4FF0000811E006EB4700008800901D
:1096600006EB470006EB48010988018006EB48003D
:10967000BDF8001001807F1E08F101084745EBD8B6
:10968000B4F9069068886188401A401E00B2E080F4
:109690006888A0EB0900401E00B26080B4F9049015
:1096A00028882188401A401E00B2A0802888A0EB9C
:1096B0000900401E00B22080BDE8FC9F2DE9F04764
:1096C00004461D46089F01FB02F0A0F1010C481E54
:1096D00000FB02F800231AE008EB03000CB1ACEB2E
:1096E000000000260FE0A946AD1C07EB400AB9F8C0
:1096F0000090AAF800900CB1104400E0801A06F126
:1097000001090FFA89F68E42EDDB581C03B2934231
:10971000E2DBBDE8F0872DE9F04782460C461546AE
:1097200000263BE0002731E0601E801B0FFA80F826
:10973000601EC01B0FFA80F9BAF1000F12D007FBB0
:10974000048C05EB4C0308FB049C05EB4C0209FB65
:10975000046C05EB4C0106FB047C05EB4C00FFF7A9
:1097600059FF11E009FB046C05EB4C0308FB049C5A
:1097700005EB4C0207FB048C05EB4C0106FB047C5B
:1097800005EB4C00FFF746FF781C07B2601C00EBAE
:10979000D071B7EB610FC7DB701C06B204EBD4715C
:1097A000B6EB610FBEDBBDE8F08710B5044620467E
:1097B00018F022FD10BD00002DE9F14F9EB01E985B
:1097C00016F012FF05462C461E9816F0B4FE1D90AA
:1097D000606A1AF0B9F807465020005D00F00100F9
:1097E00010B91FB0BDE8F08F0FA815F063F90FAAEC
:1097F0004FF4E02128461FF0EDFA04F144010DA8D2
:1098000010F0EFFABDF83400616A898A084400B2AA
:10981000ADF83400BDF83610606AC08A084400B262
:10982000ADF83600BDF83800616A898A084400B294
:10983000ADF83800BDF83A10606AC08A084400B23A
:10984000ADF83A000DAA0FA91D9815F017F94FF4BD
:10985000E02128461EF05EFA06464FF4E021284635
:109860001EF0C0FC30440FFA80F84FF4E021284687
:109870001EF031FE30440FFA80F900200B900C905E
:10988000E16CC8191F49096888478246E06CC11914
:1098900052460BA81BF0DFF9BDF83400404400B27B
:1098A000ADF83400BDF83600484400B2ADF83600DB
:1098B0004FF0000BD4F824A040F2574259465046CE
:1098C0001EF016FE019001980A9002A814F0E6F826
:1098D00002AA4FF4E02128461FF0A1F99DF83F00AD
:1098E000022805DCBDF81400BDF82810884207D016
:1098F00000200BAB0DAA02A900901D9813F01AFDD1
:1099000000BF6EE7CC0200202DE9F04FBDB0054648
:109910000E4600BF00BFAB460BF13000FAF73CFF2C
:1099200010B13DB0BDE8F08F05F114023BA8B1685D
:10993000F9F71CFC00B9F4E7B0683A903BA8B060B6
:1099400035A814F0F7F835AA4FF4E02128461FF0A7
:10995000CDF927A815F0AEF89DF8DC008DF89F0032
:1099600047F6FF70ADF89C004FF4E02128461EF04A
:10997000B2FF074600EBD7704FEA60094FF4E021D1
:1099800028461EF0A8FF074600EBD7704FEA600A92
:10999000314604A81CF0D8FE24A80A9016A8089006
:1099A0004FF4E020119069480590052006900BF1D6
:1099B0003000FAF7A3FE0446C0E00A2235A924A825
:1099C0001BF049F9382227A916A81BF044F9E088B2
:1099D000ADF89000E088ADF85C0039A80D9038A88B
:1099E0000E90607B00F0010020B1B4F90070B4F972
:1099F000028010E0A08847F6FF71884200D197E00E
:109A0000A28801AB2846A16811F0D6FDBDF904700B
:109A1000BDF9068000BFA88A384407B2E88A4044EE
:109A20000FFA80F8B9F1000F19D0BAF1000F16D073
:109A3000A7EB090000B2ADF8080007EB090000B27F
:109A4000ADF80C00A8EB0A0000B2ADF80A0008EB74
:109A50000A0000B2ADF80E0002A8079001E0002055
:109A60000790207B00F0030070B3207B00F0010022
:109A700010B1B5F9140000E03846ADF8E400ADF8D7
:109A8000E680207B00F0020010B1B5F9180000E07C
:109A90003846ADF8E000BDF8E600ADF8E20004AAF3
:109AA0001A21284616F0A6FD38AB39AA24A930465B
:109AB00014F029F802AA16A9304614F0DFFF04AA10
:109AC0001B21284616F096FD207B00F00C0070B399
:109AD000ADF8E470207B00F0040010B1B5F9160079
:109AE00000E04046ADF8E600BDF8E400ADF8E00067
:109AF000207B00F0080010B1B5F91A0000E04046E4
:109B0000ADF8E20004AA1A21284616F073FD38AB1E
:109B100039AA24A9304613F0F6FF02AA16A9304646
:109B200014F0ACFF04AA1B21284616F063FD00BF09
:109B300021460BF13000FAF7DBFD0446002C7FF4E0
:109B40003CAF3A98B06000BFEBE6000008B60308EF
:109B50002DE9F14F9AB01A9816F046FD04461A986E
:109B600016F0E9FC199020461EF0E9FE0746204653
:109B70001DF04AF9834607EBD771A28A02EB610117
:109B800009B218910BEBDB714A10E18A114409B25A
:109B9000179107EBD7714E1014A813F0CBFF14AA3E
:109BA000002120461FF0A2F84FF41D70704355218C
:109BB00090FBF1F0642190FBF1F000B2ADF852009F
:109BC000BDF85200801C00B2ADF852000020139086
:109BD000002120461DF0B5FF0546002347F6FF7221
:109BE00004F114010DA814F04FFE00210DA813F08C
:109BF000CDFF0C9000BFA08AADF82800E08AADF838
:109C00002A00208BADF82C00608BADF82E0000BF31
:109C1000BDF82800284400B2ADF82800BDF82C009B
:109C2000401B00B2ADF82C00BDF82A00284400B259
:109C3000ADF82A00BDF82E00401B00B2ADF82E0092
:109C4000012347F6FF720AA904A814F01DFE0021A3
:109C500004A813F09BFF0390BDF952804FF0000A57
:109C60004FE051462046FBF7A3FF0090BDF80000EF
:109C7000ADF850001398C0F30F290FFA89F024F0C3
:109C8000DDFE06EB08014843189901EBE03000B215
:109C9000ADF804000FFA89F024F0C0FE06EB0801CD
:109CA0004843179901EBE03000B2ADF806000FFA17
:109CB00089F024F0C3FE711BA1EB080148431899F9
:109CC00001EBE03000B2ADF808000FFA89F024F0A3
:109CD000A5FE711BA1EB08014843179901EBE03089
:109CE00001B2ADF80A1002AB01AA14A9199813F039
:109CF0000AFF0AF103001FFA80FA139800F5876043
:109D00001390BAF5807FACDD0DA814F021FA04A8F9
:109D100014F01EFA0C9814F09FFE039814F09CFEA9
:109D20001BB0BDE8F08F00002DE9F04FA5B0044650
:109D30000F46254604F1140123A8BA68F9F716FA6C
:109D40002290229810B925B0BDE8F08FB868219014
:109D500023A8B860002120461DF0B5FF1E90002109
:109D600020461EF0CAF901461E98084400B21D9014
:109D7000002120461EF02DFB01461E98084400B22B
:109D80001C9020461CF0CBFF7E35E988484300122A
:109D900000B21B9020461CF0A3FF29894843001203
:109DA00000B21A9017A813F0C5FE17AA002120468A
:109DB0001EF09CFF394605A81CF0C6FC002012903E
:109DC0008C4806900020079017A80B904FF0FF30AA
:109DD000139000200E900F9005AA1A21204616F02D
:109DE00009FC002001903122204601991EF080FBE1
:109DF0000090009800F0FF0B00BF002120461DF0EE
:109E000062FF0490002001903322204601991EF049
:109E10006FFB0090009800F0FF0800BF20461DF087
:109E2000E9F8039020461DF0DFF9029035F87E092D
:109E3000002865D0E18A1C9801440298081A00B2F3
:109E40000190A08AADF88000208BADF87C004FF027
:109E50000009B5F87E000FFA80FABBF1020F1ADD97
:109E60000498002817DD08F0020040B100212046C8
:109E70001EF0AFFA18B909F101000FFA80F908F0E5
:109E8000010040B1002120461EF05AF818B9AAF18D
:109E900001000FFA80FA4E462FE01A987043B5F889
:109EA0007E10491E90FBF1F000B2ADF88200BDF8C3
:109EB00082100198084400B2ADF88200BDF882001B
:109EC000ADF87E004B4806900120079020A80E9028
:109ED0001FA80F90139605AA1A21204616F08AFB98
:109EE0001FAB20AA17A9384613F00DFE05AA1B21A7
:109EF000204616F07FFB701C06B25645CDDB00BF36
:109F0000B5F88000002865D0A18A1D980144039807
:109F1000081A00B20190E08AADF88200608BADF8BB
:109F20007E004FF00009B5F880000FFA80FABBF10F
:109F3000020F1ADD0498002817DD08F0040040B174
:109F4000002120461EF0D9F818B909F101000FFAD6
:109F500080F908F0080040B1002120461EF076F993
:109F600018B9AAF101000FFA80FA4E462FE01B98AB
:109F70007043B5F88010491E90FBF1F000B2ADF8C7
:109F80008000BDF880100198084400B2ADF8800050
:109F9000BDF88000ADF87C001648069002200790BE
:109FA00020A80E901FA80F90139605AA1A212046EC
:109FB00016F020FB1FAB20AA17A9384613F0A3FD0B
:109FC00005AA1B21204616F015FB701C06B256454B
:109FD000CDDB00BF4FF0FF30139000200E900F90AC
:109FE00005AA1B21204616F005FB2198B86000BF8A
:109FF000A9E6000008B603082DE9F14F9AB01A98B7
:10A0000016F091FA07461A9816F0EEFA05462C4615
:10A01000122F7DD11A9816F0E4FA064630780228FD
:10A0200002D11BB0BDE8F08F94F8380000F00300B7
:10A03000032805D094F8380000F00300022802D16C
:10A0400001203070EDE794F83800C0F38400042854
:10A0500008D094F83800C0F38400012802D0012011
:10A060003070DEE74FF0000A4622514628461EF0C7
:10A070003FFA19901998C0B2FF2802D00120307021
:10A08000CFE7002128461EF0B1FB8146208E814497
:10A09000B9F1000F02D001203070C2E7002128463C
:10A0A0001EF0E5FB8046E08E00FB08F04FEA20281A
:10A0B0001A9816F096FA8346B8F5807F09D10022E7
:10A0C00005F114015846F9F792F8E8BB0120307009
:10A0D000A7E728461CF098FE824628461EF02FFC73
:10A0E000179004F132001FFA88F100235246CDE99F
:10A0F000001018A81799F9F72FFBBDF86000A98A7E
:10A10000084400B2ADF86000BDF86210E88A00E0D3
:10A110001DE0084400B2ADF86200BDF86400A98AF1
:10A12000084400B2ADF86400BDF86610E88A08443F
:10A1300000B2ADF86600002218A95846F9F757F8A2
:10A1400018B9012030706CE700E000BF19E2152F4C
:10A1500001D0182FFAD1002128461EF088FB804636
:10A16000E08E00FB08F04FEA2028002128461EF070
:10A170003DFB8246208E824428461EF0E0FB19906B
:10A1800028461CF041FE1890002641F2320231466A
:10A1900028461EF0ADF90E900E9800B2814600BF21
:10A1A00041F61202314628461EF0A2F90E900E9892
:10A1B00048440FFA80FB00BF41F61302314628469F
:10A1C0001EF096F90E900E98484400B2179000BF0A
:10A1D00041F61002314628461EF08AF90E900E987C
:10A1E000484400B2169000BF41F61102314628469D
:10A1F0001EF07EF90E900E98484400B21590608EC5
:10A20000584400B2ADF85000A18E1698084400B230
:10A21000ADF8520094F8390000F00300012804D191
:10A2200012A928461CF09AFD27E014A91FFA88F00D
:10A230000FFA8AF3CDE9000112A8DDE91821F9F738
:10A240008BFABDF84800A98A084400B2ADF848006E
:10A25000BDF84A10E88A084400B2ADF84A00BDF8DB
:10A260004C00A98A084400B2ADF84C00BDF84E106D
:10A27000E88A084400B2ADF84E0005F1140110A8B8
:10A280000FF09DFD12A905F114000FF098FDBE48D6
:10A290001A991CF07FFC0F900F98012800D0C0E69F
:10A2A00010A905F114000FF08AFD152F7ED1E08D65
:10A2B00008B1A08D00B9B4E6B8F1000F00D1B0E646
:10A2C0001A9816F038F9064605F114010DA80FF09A
:10A2D00076FD284618F002FA0C9094F8390000F048
:10A2E000030001283CD1B4F92C10BDF93020891AA3
:10A2F000481C00EBD071BDF83420A2EB610109B21B
:10A30000ADF83410B4F92C10BDF93020891A481C6E
:10A3100000EBD071BDF83820A2EB610109B2ADF8B5
:10A320003810B4F92E10BDF93220891A481C00EB00
:10A33000D071BDF83620A2EB610109B2ADF836103C
:10A34000B4F92E10BDF93220891A481C00EBD071E7
:10A35000BDF83A20A2EB610109B2ADF83A1013E062
:10A3600012A80FF023FEBDF834100844401E00B2BE
:10A37000ADF8380012A80FF091FDBDF83610084472
:10A38000401E00B2ADF83A00BDF83400584400B2A7
:10A39000ADF83400BDF836101698084400B2ADF898
:10A3A0003600BDF838101798081A00E0E8E000B24F
:10A3B000ADF83800BDF83A101598081A00B2ADF89B
:10A3C0003A0094F8380000F00300012805D094F812
:10A3D000380000F0030000287AD106A812F08DFFA3
:10A3E00006AA002128461EF0BBFB1FFA88F0ADF834
:10A3F0001A001FFA8AF0ADF81800608EADF81C0044
:10A40000A18EADF81E1094F83800C0098DF82C000C
:10A41000BDF84800584400B2ADF81000BDF84A102D
:10A420001698084400B2ADF81200BDF84C10179809
:10A43000081A00B2ADF81400BDF84E101598081AAD
:10A4400000B2ADF81600B068039004AA04A8B16881
:10A45000F8F78CFE00B9E4E504A8B060BDF836104A
:10A46000608D084400B2ADF80600BDF90600BDF9E4
:10A470003610884206DDBDF80600E18D401A00B2B4
:10A48000ADF80600BDF80600E18D0844401E00B29C
:10A49000ADF80A0049E0BDF83400218D084400B24F
:10A4A000ADF80400BDF90400BDF93410884206DDA2
:10A4B000BDF80400A18D401A00B2ADF80400BDF84B
:10A4C0000400A18D0844401E00B2ADF8080016E05B
:10A4D00034E001AA06A93046636A12F0BFFEBDF857
:10A4E0000400BDF83010084400B2ADF80400BDF817
:10A4F0000800BDF83010084400B2ADF80800BDF9FE
:10A500000400BDF938108842E3DBBDF80600BDF851
:10A510003210084400B2ADF80600BDF80A00BDF8DC
:10A520003210084400B2ADF80A00BDF90600BDF9CA
:10A530003A108842AFDB0398B06020E094F838000E
:10A5400000F00300022811D104A813F0A7FA04AA0E
:10A55000002128461EF063FB0020009005F1140244
:10A5600004A93046636A12F0E5FE08E000BF00BFB0
:10A57000002305F114021946304612F06FFE00BFA9
:10A5800000BF00BF4DE50000789804082DE9F14FA9
:10A59000DCB05C9816F028F805462C465C9815F05F
:10A5A000CAFF5B9059A928461CF0D8FB0020CDE9D2
:10A5B000105040F60A02DDE910011DF099FF0F90DE
:10A5C0000F9800B258900020CDE9105040F60B02D1
:10A5D000DDE910011DF08CFF0F900F9800B257902D
:10A5E000BDF864115898081A00B2ADF86401BDF8BE
:10A5F00068115898084400B2ADF86801BDF86611BA
:10A600005798081A00B2ADF86601BDF86A1157985C
:10A61000084400B2ADF86A0159A80FF0B9FC8346AE
:10A6200059A80FF02DFC5690D4E90A10A0EB0109AF
:10A630005698834501DB012000E000208046002081
:10A64000559094F85C0000F0030001280BD1A06A3B
:10A65000002808DAE06A002805DDA16A206B88423C
:10A6600001D101205590002128461DF06DFD549028
:10A67000002128461DF011FE5390002128461DF0B0
:10A68000CFFE5290002128461DF081FC519059A91F
:10A6900004F134000FF081FBA18E5498084400B2FD
:10A6A000A086218F5398081A01B22187E18E529813
:10A6B000084401B2E186618F5198081A01B261879E
:10A6C000B8F1000F13D004F134000FF0D9FB0428C7
:10A6D0000DDA569800EBD0714A10E98A1144891EB0
:10A6E0000AB2E286E08E001D01B2618715E0B8F182
:10A6F000000F12D104F134000FF04AFC04280CDAE8
:10A7000058460BEBD071AA8A02EB6101891E09B28F
:10A71000A186A08E001D01B2218704F134000FF044
:10A7200037FC509004F134000FF0AAFB4F90B8F1C1
:10A73000000F01D0509800E04F988246B8F1000F0A
:10A7400005D004F13406371DFE484C9004E004F1B6
:10A750003606371DFC484C90A06D401CF8B1A36A2A
:10A76000216DC91A01FB0AF191FBF9F108B2A36A44
:10A77000616DC91A01FB0AF191FBF9F10AB2131AD2
:10A78000D4F858C003FB0CF1CB1701EB13631B1279
:10A790001BB24D934D99014409B24D9108E0A16A55
:10A7A000206B401A00FB0AF090FBF9F000B24D90CC
:10A7B000A06C401CE0B1A36A216CC91A01FB0AF12C
:10A7C00091FBF9F108B2A36A616CC91A01FB0AF1A5
:10A7D00091FBF9F10AB2131AD4F848C003FB0CF14B
:10A7E000CB1701EB136300EB23231BB24E9308E05E
:10A7F000D4E90901401A00FB0AF090FBF9F000B21D
:10A800004E900020119041F26A42284611991DF0A5
:10A810006FFE10901098C0B24B90B8F1000F0ED0A0
:10A820004B9801280BD130463E4607464E99494287
:10A8300009B24E914D99494209B24D9100BFB8F10C
:10A84000000F0AD031884E98084400B23880318811
:10A850004D98084400B230800AE039884E98081AB2
:10A86000401C00B2308039884D98081A00B23880F8
:10A87000559878B3A26A524202FB0AF292FBF9F2AF
:10A8800011B2B8F1000F0CD032880A4410B2B7F9F7
:10A890000020824201DD30801BE03A88328038801F
:10A8A00017E03A88521A521C10B2B6F900208242C0
:10A8B00001DD388002E032883A803080B7F900202C
:10A8C000B6F900309A4204DAB6F900003A883280CC
:10A8D000388000BF559800BB04F134004C9988477C
:10A8E00001281ADC68465B991BF02EFF4FF40030FC
:10A8F0000D90964801900020029004F134000390DE
:10A900006A461A21284615F075FE6A461B2128461C
:10A9100015F070FE5DB0BDE8F08F04F1340149A878
:10A920000FF03BFA3BA814F0C5F83BAA4FF40031F6
:10A9300028461EF04FFA29A85B991BF005FF4FF43B
:10A940000030369081482A9000202B903BA82D9013
:10A9500004F134002C9029AA1A21284615F04AFE49
:10A96000002011906022284611991DF0C1FD109021
:10A97000109800B228905698834501DA584600E0B6
:10A9800056982790DDE92701B1EB600F02DD27988B
:10A9900040102890BDF9EC0026904F9950988842BD
:10A9A00001DA509800E04F982790DDE92601B0EBDE
:10A9B000610F02DD279840102690B8F1000F08D0F3
:10A9C00004F134000FF0E4FA01462698B1EB400F91
:10A9D0000BDCB8F1000F28D104F134000FF050FA6D
:10A9E00001462698B1EB400F1FDD9DF8EF00119056
:10A9F0009DF8060110909DF80E010F9000208DF833
:10AA0000EF008DF806018DF80E0104F134023BA928
:10AA10005B9814F033F811988DF8EF0010988DF8CA
:10AA200006010F988DF80E0100BFA98A54980844BA
:10AA300000B2ADF87800298B5398081A00B2ADF82F
:10AA40007C00E98A5298084400B2ADF87A00698B1C
:10AA50005198081A00B2ADF87E0000231EA920A864
:10AA6000289A13F011FF002120A813F08FF81D90F1
:10AA70009DF822011C909DF80E011B9000208DF87E
:10AA80000E018DF8220159A919A80FF086F9BDF819
:10AA900064105498084400B2ADF86400BDF8661024
:10AAA0005298084400B2ADF86600BDF8681053989B
:10AAB000081A00B2ADF86800BDF86A105198081A7B
:10AAC00000B2ADF86A00B8F1000F15D019A80FF068
:10AAD000D7F9042810DA569800EBD0714A10E98AA9
:10AAE0001144891E09B2ADF86610BDF86600001D5C
:10AAF00000B2ADF86A0017E0B8F1000F14D119A840
:10AB00000FF046FA04280FDA58460BEBD071AA8AE8
:10AB100002EB6101891E09B2ADF86410BDF8640052
:10AB2000001D00B2ADF86800BDF9EC20002304F16F
:10AB3000340113A813F0A8FE002113A813F026F87F
:10AB4000129005E0919F0108819E0108D0970408AA
:10AB500019AA3BA95B9813F091FF1B988DF80E0181
:10AB60001C988DF8220100208DF8EF008DF8060169
:10AB70008DF8220104F134023BA95B9813F07EFFAB
:10AB800013A813F0E5FA20A813F0E2FA129813F0D4
:10AB900063FF1D9813F060FF29AA1B21284615F0BA
:10ABA00029FD00BFB6E6F0B591B00546284615F080
:10ABB0001BFD0446284615F0BEFC0746264603A8A2
:10ABC00013F078FF03AA4FF4403120461EF002F93B
:10ABD00047F6FF70ADF80C002C20805D00F00100FE
:10ABE00038B1204611F0B7FE0090BDF80000ADF876
:10ABF0001000214601A807F05FFC01AA03A938460E
:10AC000013F03CFF11B0F0BD2DE9F04FB3B0814619
:10AC1000484615F0E9FC80464446484615F08BFC52
:10AC20003290002140461CF0E7FF054640461DF0EB
:10AC300086FE824640461CF0E7F88346DA4501DB93
:10AC4000012000E0002006460EB1584600E05046C4
:10AC50003190002794F85C0000F00300012806D131
:10AC6000A06A002803DAE06A002800DD0127002E30
:10AC70003CD097B93EB1012D02D1B4F9340009E0BE
:10AC8000B4F9380006E0012D02D1B4F9360001E034
:10AC9000B4F93A00ADF8BC0037E0606A002812DB76
:10ACA0003EB1012D02D1B4F9340009E0B4F9380005
:10ACB00006E0012D02D1B4F9360001E0B4F93A0002
:10ACC000ADF8BC0021E03EB1012D02D0B4F9340052
:10ACD00009E0B4F9380006E0012D02D0B4F93600DD
:10ACE00001E0B4F93A00ADF8BC000EE01FB9E08E07
:10ACF000ADF8BE0009E0606A002803DBE08EADF825
:10AD0000BE0002E0608FADF8BE0021A813F0D2FEB5
:10AD100021AA4FF4403140461EF05CF833462FA97B
:10AD20004046319A25F056F82FA904F168000FF03B
:10AD30004FF80FA832991BF007FD4FF440301C90DC
:10AD40003C481090002011901D9004F16800129072
:10AD500021A81390404621F0D6F9022810D00FAA5E
:10AD60001A21404615F046FC04F1680221A93298E8
:10AD700013F084FE0FAA1B21404615F03BFC55E062
:10AD8000382221A901A819F066FF0FAA1A2140460E
:10AD900015F030FC04F1680221A9329813F06EFE20
:10ADA0000FAA1B21404615F025FC96B13EB1012D9E
:10ADB00002D0B4F9340009E0B4F9380006E0012DFE
:10ADC00002D0B4F9360001E0B4F93A00ADF8BC00A5
:10ADD00002E0608FADF8BE0033462FA94046319A9D
:10ADE00024F0F8FF2FA904F160000EF0F1FF3822E3
:10ADF00001A921A819F02FFF0120119004F1600092
:10AE0000129021A8139001201D900FAA1A214046EC
:10AE100015F0F0FB04F1600221A9329813F02EFE28
:10AE20000FAA1B21404615F0E5FB00BF33B0BDE87B
:10AE3000F08F0000049904082DE9F04790B0074610
:10AE4000384615F0D1FB054628461CF02DF806467D
:10AE500008A812F023FE08AA002130461DF0DFFEEC
:10AE6000384615F068FB0446D4F8088006F1140251
:10AE700006A8A168F8F77AF910B910B0BDE8F08714
:10AE800006A8A06004A9304607F094FFA88AADF890
:10AE90000800E88AADF80A00288BADF80C00BDF870
:10AEA0001200ADF80E0002AA02A8A168F8F75EF938
:10AEB00098B1D4F8089002A8A060284618F044FD84
:10AEC00082460020534605F1140208A9009020464E
:10AED00012F030FAC4F8089000BFA88AADF8080054
:10AEE000BDF81600ADF80A00288BADF80C00688B91
:10AEF000ADF80E0002AA02A8A168F8F737F998B1D8
:10AF0000D4F8089002A8A060284618F01DFD8246DB
:10AF10000020534605F1140208A90090204612F0C3
:10AF200009FAC4F8089000BFC4F8088000BFA4E77D
:10AF30002DE9FF4FA1B0064614462498807B00F00F
:10AF40000F052298807E1F90032D00D10425012D2E
:10AF500006D0022D0BD0042D10D0082D1DD114E0E9
:10AF6000DFF86C834FF0800A02201E901AE0DFF8B1
:10AF700064834FF0C00A04201E9013E0DFF858836A
:10AF80004FF0F00A10201E900CE0DFF850834FF0D5
:10AF9000FF0A4FF480701E9004E000BF00BF25B090
:10AFA000BDE8F08F00BF1F98FD2823DACC48017858
:10AFB0001F98814203D1CB480068A84213D00020DB
:10AFC0000DE018F80010FF2901D11F9904E018F8CE
:10AFD00000101F9A51430912C34A1154401C1E9974
:10AFE0008842EED300BFDFF80083BD491F98087088
:10AFF000BC4805602498B0F806B0249800891B90DE
:10B000000BFB05F01A90B4F90000B168B1F900101B
:10B01000884201DB002005E0B068B0F90000B4F917
:10B020000010401A1990B4F900005844B168B1F901
:10B030000410884201DC584606E0B068B0F904000C
:10B04000B4F90010401A401C1890B4F90200B1681D
:10B05000B1F90210884201DB002005E0B068B0F9C8
:10B060000200B4F90210401A1790B4F902101B98AC
:10B070000844B168B1F90610884201DC1B9806E06B
:10B08000B068B0F90600B4F90210401A401C1690DE
:10B090001A9917984843199901FB050015902E99A4
:10B0A000159801EBD0002E90159800F007071C2191
:10B0B0000DA819F05EFF22988089ADF83C00229817
:10B0C000807E8DF84C002298807FC0F3C2008DF8FE
:10B0D0004D00F9F727FE019011F0D6FD0C901B985A
:10B0E0000BFB00F10C98814201DD0C9802E01B99EA
:10B0F0000BFB01F00B900B9819F090FC8146CDF8FA
:10B10000409000200A9021881998084400B2ADF8B8
:10B110002000218818980844401E00B2ADF8240091
:10B1200061881798084400B2ADF82200BDF82200EB
:10B13000ADF8260000BFBDF82400BDF82010401A6D
:10B14000401C00B2079000BFBDF82000ADF814000D
:10B15000BDF82200ADF81600BDF82400ADF81800C7
:10B16000BDF82600ADF81A0000BFBDF816101698FD
:10B17000084400B2ADF81A0005A813F00DF80490C9
:10B1800008A80D901290C5F10800039019980BEBD8
:10B1900000011898081A6843029017981C9078E0EC
:10B1A0000A9801902AFA07F0209019981D9028E03B
:10B1B0002E980078209908400399C91BC840149024
:10B1C000149830B1149818F800100A9809F8001073
:10B1D00003E000210A9809F800100398874204D27E
:10B1E0002F442098E840209005E00027CDF880A06B
:10B1F0002E98401C2E900A98401C0A901D98401CC6
:10B200001D9018991D988842D2DB0498A0B1BDF911
:10B210002620BDF92010019B09EB0300079B12F0CB
:10B220006BFF8DF844009DF8440028B9019909EBA3
:10B230000100079919F09DFEDDE91801411A0A98ED
:10B2400001440B98814206D2BDF82600401C00B292
:10B25000ADF8260012E002208DF844000DA930461A
:10B2600013F04AFEBDF82600401C00B2ADF82200E3
:10B27000BDF82200ADF8260000200A90029807448D
:10B280002E9800EBD7002E9007F007071C98401C63
:10B290001C9016991C98884282DBBDF92200BDF9EA
:10B2A000261088420ED0BDF82600401E00B2ADF830
:10B2B000260002208DF844000DA9304613F01CFE34
:10B2C00000200A90484619F025FC00BF67E6000000
:10B2D00054B4030856B4030862B4030872B40308F4
:10B2E0005C01002060010020149A00202DE9FF4F2E
:10B2F0008FB00C4615461E46B4F90200401E0E9053
:10B300000E9840100D900E9800F001010D98084421
:10B310000C90B5F90000B6F90010884202DAB5F9D0
:10B32000000001E0B6F90000ADF82800B5F9000012
:10B33000B6F90010884202DDB5F9000001E0B6F967
:10B340000000401E00B2ADF82C0069880C98081A65
:10B3500000B2ADF82A0069880D98084400B2ADF833
:10B360002E000F980AA982680AA8F7F7FFFE824606
:10B37000BAF1000F02D113B0BDE8F08FE08818B128
:10B38000A08808B1012000E0002083460120099038
:10B390000AA812F001FF10B10020099004E0BBF1EF
:10B3A000000F01D0002009901C2102A819F0E1FD36
:10B3B0000AA802902088ADF81000207A8DF82000AD
:10B3C000099820B102A90F9813F096FD78E00AA819
:10B3D0000EF0BBFD0746BDF92E000190BDF82A0016
:10B3E000ADF82E0000200090BBF1000F0BD0B4F997
:10B3F0000600B4F904100844BDF9281091FBF0F2DE
:10B4000000FB12100090384619F008FB8046CDF87A
:10B4100014800AA80790BDF92A904AE039464046B0
:10B4200019F0DEFDBDF928103BB20FFA89F2404653
:10B4300012F062FE8DF81800BBF1000F27D09DF8C6
:10B44000180020B3009800211BE0B4F904208242C8
:10B4500007DBA3881B1A1AB28B1819B2831818B20B
:10B460000BE0B4F90620B4F904301A44824201DC3E
:10B47000002002E0002208F801204A1C11B2421C00
:10B4800010B2B942E1DB02228DF8182000BF02A9F8
:10B490000F9813F031FDBDF82A00401C00B2ADF842
:10B4A0002A00BDF82E00401C00B2ADF82E0009F1B4
:10B4B000010901988145B1DD404619F02BFB00BF21
:10B4C00000BF58E72DE9FF4FC7B08B4691469A461B
:10B4D000B9F90200BAF90210884210DAB9F802008C
:10B4E000ADF81A01BAF80200ADF81601B9F800007B
:10B4F000ADF81801BAF80000ADF814010FE0BAF881
:10B500000200ADF81A01B9F80200ADF81601BAF858
:10B510000000ADF81801B9F80000ADF81401BDF94C
:10B520001401BDF91811441ABDF91601BDF91A111B
:10B53000451A002C01DD204600E06042002D01DDAF
:10B54000294600E06942884201DD012000E0002038
:10B550004490BBF9026000204390449870B1002DE4
:10B5600001DD284600E068424101002C01DD204653
:10B5700000E0604291FBF0F043900DE0002C01DD13
:10B58000204600E060424101002D01DD284600E038
:10B59000684291FBF0F04390E0494398085C7043A7
:10B5A0003F30C611771006F0010000EB0708BDF927
:10B5B0001801BDF91411884202DABDF9180101E041
:10B5C000BDF91401801B00B2ADF80401BDF91801EA
:10B5D000BDF91411884202DDBDF9180101E0BDF981
:10B5E0001401304400B2ADF80801BDF91A01BDF9EB
:10B5F0001611884202DABDF91A0101E0BDF91601FF
:10B60000801B00B2ADF80601BDF91A01BDF9161193
:10B61000884202DDBDF91A0101E0BDF9160130448E
:10B6200000B2ADF80A01479841A9826841A8F7F72E
:10B630009DFD4090409810B94BB0BDE8F08F449804
:10B64000F0B3002C24DD0021BDF81601C01B00B2B0
:10B65000CDE90001BDF91431BDF81A01C01B02B2D9
:10B66000BDF9181135A812F091FE0121BDF816019F
:10B67000404400B2CDE90001BDF91431BDF81A0112
:10B68000404402B2BDF918112AA812F07FFE4AE028
:10B690000021BDF81601404400B2CDE90001BDF91A
:10B6A0001431BDF81A01404402B2BDF9181135A891
:10B6B00012F06CFE0121BDF81601C01B00B200E0C3
:10B6C0000DE0CDE90001BDF91431BDF81A01C01B30
:10B6D00002B2BDF918112AA812F058FE23E0002189
:10B6E000BDF91601CDE90001BDF81401404403B2D3
:10B6F000BDF91A21BDF81801404401B235A812F075
:10B7000045FE0121BDF91601CDE90001BDF8140186
:10B71000C01B03B2BDF91A21BDF81801C01B01B24C
:10B720002AA812F033FE002135A812F02FFA139048
:10B7300000212AA812F02AFA12904FF0FF3011903F
:10B7400010909BF80900C0F3001068BB0321BDF8FE
:10B750001A01204400B2CDE90001BDF81801401BD8
:10B7600003B2BDF91A21BDF918111FA812F00EFE7F
:10B770000221BDF81601204400B2CDE90001BDF858
:10B780001401401B03B2BDF91621BDF9141114A810
:10B7900012F0FCFD00211FA812F0F8F91190002111
:10B7A00014A812F0F3F9109041A80EF0CEFB0F9000
:10B7B000F9F7B8FA019011F067FA0D9041A80EF070
:10B7C0007BFB01460D98814203D241A80EF074FB29
:10B7D00000E00D980C900C9819F020F90B90BDF931
:10B7E0000A010A90BDF80601ADF80A01002009908F
:10B7F000DDE90B0119F0F4FB1C2102A819F0B9FBDB
:10B8000041A80290BBF80000ADF810009BF80800BA
:10B810008DF820000B98059041A80790BDF906010E
:10B820000E9040E0BDF90411099B0B9AD0180F9AB5
:10B8300013B20E9A12B212F05FFC8DF818009DF848
:10B84000180028B9099A0B9988180F9919F091FBDB
:10B850000F990998084409900F99099801440C9888
:10B86000814206D2BDF80A01401C00B2ADF80A01BF
:10B8700016E002208DF8180002A9479813F03CFB4F
:10B88000BDF80A01401C00B2ADF80601BDF8060182
:10B89000ADF80A0100200990DDE90B0119F0A0FBC9
:10B8A0000E98401C0E900A990E988842BADDBDF998
:10B8B0000601BDF90A1188420CD0BDF80A01401EEC
:10B8C00000B2ADF80A0102208DF8180002A94798CD
:10B8D00013F012FB0B9819F01DF935A812F038FC83
:10B8E0002AA812F035FC1198401C10B11FA812F0C4
:10B8F0002FFC1098401C10B114A812F029FC1398CA
:10B9000013F0AAF8129813F0A7F8119813F0A4F8FE
:10B91000109813F0A1F800BF8EE6000072B503087E
:10B920002DE9FF4F91B00C4615461E46B4F90200B2
:10B93000401E1090109840100F90109800F00101D8
:10B940000F9808440E9029880E98081A00B2ADF896
:10B95000300029880F98084400B2ADF83400B5F9DA
:10B960000200B6F90210884202DAB5F9020001E0DD
:10B97000B6F90200ADF83200B5F90200B6F90210CE
:10B98000884202DDB5F9020001E0B6F90200401E6E
:10B9900000B2ADF8360011980CA982680CA8F7F730
:10B9A000E5FB8146B9F1000F02D115B0BDE8F08F7B
:10B9B000E08818B1A08808B1012000E0002082468C
:10B9C00001200B900CA812F0E7FB10B100200B90A7
:10B9D00004E0BAF1000F01D000200B901C2104A854
:10B9E00019F0C7FA0CA804902088ADF81800207A46
:10B9F0008DF828000B9820B104A9119813F07CFA57
:10BA000066E00CA80EF0A1FA8346BDF9360003905B
:10BA1000BDF83200ADF83600584618F0FFFF02902E
:10BA2000029807900CA8099000200190BAF1000F2D
:10BA30000BD0B4F90600B4F904100844BDF9321073
:10BA400091FBF0F200FB12100190019FBDF93280D2
:10BA500037E05946029819F0C3FABDF930100FFAD1
:10BA60008BF30FFA88F2029812F046FB8DF8200053
:10BA7000BAF1000F13D09DF8200070B1B4F90400A2
:10BA8000B84202DA00208DF82000B4F90600B4F9BB
:10BA900004100844B84200DC0027781C07B204A94F
:10BAA000119813F029FABDF83200401C00B2ADF82D
:10BAB0003200BDF83600401C00B2ADF8360008F187
:10BAC000010803988045C4DD029819F023F800BFEF
:10BAD00000BF6AE72DE9FC5F8046404614F084FD14
:10BAE0000746B946D9F824603446404614F023FD91
:10BAF0000546606A00F114026846A968F7F736FB4C
:10BB00008246BAF1000F41D0D5F808B0C5F808D088
:10BB100094F83C00C0F3401048B3608FE18E884237
:10BB20000CD1628F212329463046FDF7FBFA628F44
:10BB3000212329463046FDF761FB24E0628F202354
:10BB400029463046FDF7EEFA628F2023294630461B
:10BB5000FDF754FBE28E012329463046FDF7E2FA59
:10BB6000E28E012329463046FDF748FB0BE0628F49
:10BB7000202329463046FDF7D5FA628F2023294637
:10BB80003046FDF73BFBC5F808B000BFBDE8FC9FA1
:10BB90002DE9F14FD0B0509814F026FD044625460B
:10BBA000288E10B951B0BDE8F08F509814F0C3FC46
:10BBB0004F90608C20F00400001D60844DA9204649
:10BBC0001BF0CCF80026B246B4F820800020208478
:10BBD000608C20F00400001D608427A812F06AFF2A
:10BBE0001FA811F05BFF27AA4FF4A02120461DF0EB
:10BBF000F1F81FAA4FF4A02120461DF010F8608C28
:10BC000020F004006084A4F82080002120461CF06D
:10BC100014FC1E90002120461CF0C6F91D90002146
:10BC200020461CF09EFA1C90002120461CF042FB8E
:10BC30001B9009A84F991AF087FD4FF4A020169089
:10BC4000D7480A9000200B903DA80D9035A80E9083
:10BC500000BF9BE103E00AF101001FFA80FA696A64
:10BC600051F82A00CFA1F4F72BFE0028F3D0E96A9F
:10BC700031F81600FAF7BEFC00B181E10027E96A4D
:10BC800031F81600FAF7A6FC08B147F00107E96A97
:10BC900031F81600FAF7B2FC10B147F0800716E051
:10BCA000A88EB04213D108F0200008B147F0200759
:10BCB00008F0020008B147F0020708F0040008B1DC
:10BCC00047F0040708F0080008B147F00807A86A21
:10BCD00000EBC6014BA80EF069F8BDF82C01BDF8C9
:10BCE0003411084400B2ADF82C01BDF82E01BDF8A6
:10BCF0003611084400B2ADF82E01BDF83001BDF890
:10BD00003411084400B2ADF83001BDF83201BDF87D
:10BD10003611084400B2ADF8320157B9382227A9CC
:10BD20003DA818F098FF20221FA935A818F093FF0E
:10BD30001DE02784608C20F00400001D60843DA875
:10BD400012F0B8FE35A811F0A9FE3DAA4FF4A021CB
:10BD500020461DF03FF835AA4FF4A02120461CF0E4
:10BD60005EFFA4F82080608C20F004006084E96A03
:10BD700031F81600FAF74AFC8346BBF1000F06D0F3
:10BD80009DF8F10040F001008DF8F10005E09DF80C
:10BD9000F10020F001008DF8F1004BA80C901796EF
:10BDA00009AA1A21204614F025FC9DF81701400825
:10BDB00000F01000F0B39DF8170120F03E001E3097
:10BDC0008DF81701BDF92C11B4F914201C981044FA
:10BDD00081420AD19DF81701400820F004009DF827
:10BDE000171160F345018DF81711BDF93011B4F941
:10BDF00018201B98101A81420AD19DF8170140089B
:10BE000020F008009DF8171160F345018DF8171117
:10BE1000BDF92E11B4F916201E98104481420CD1A0
:10BE20009DF81701400820F002009DF8171160F3FB
:10BE3000450100E014E08DF81711BDF93211B4F995
:10BE40001A201D98101A81420AD19DF81701400846
:10BE500020F001009DF8171160F345018DF81711CE
:10BE60004BA80EF014F8814607F0200060B1E86A94
:10BE700030F8160000F4007030B1BDF82E01A0EBD0
:10BE8000090000B2ADF82E014BAA3DA94F9812F05F
:10BE9000F5FD35980890BDF9E8000790BDF9E6007A
:10BEA0000690686A50F82A0005904DA80EF077F8C1
:10BEB00003909DF8F11002460698CDE9012100900B
:10BEC00004A8DDE90732059922F0A6FE4BA80EF082
:10BED00066F8BDF91010401A039000EBD070BDF861
:10BEE0002C1101EB600000B2ADF82C014BA80DF055
:10BEF000CEFFBDF91210401A039000EBD070BDF8D0
:10BF00002E1101EB600000B2ADF82E01BDF82C013E
:10BF1000BDF81010084400B2ADF83001BDF82E0194
:10BF2000BDF81210084400B2ADF8320107F020004D
:10BF3000C0B1E86A30F8160000F4007090B14846CD
:10BF400009EBD071BDF82E21A2EB610109B2ADF869
:10BF50002E1109EBD071BDF83221A2EB610109B2BB
:10BF6000ADF83211002000904BAA35A9059B4F98DF
:10BF700011F0E0F909AA1B21204614F03BFB00BF99
:10BF8000701C86B20AF101001FFA80FA288EB042B6
:10BF90003FF760AE608C20F00400608400BF01E6D3
:10BFA000089804080A0000002DE9F14FA2B0229879
:10BFB00014F01AFB04462546229814F0BCFA21908E
:10BFC000002120461BF08CFE81462646002741F6C4
:10BFD0001202394630461CF08BFA0A900A984844FF
:10BFE00000B2209000BF41F61302394630461CF0E3
:10BFF0007FFA0A900A98484400B21F900021204618
:10C000001CF035FA484400B21E9016A811F046FD07
:10C0100016AA4FF4003120461CF001FEA86A10B1A8
:10C02000D5F828800AE0802018F0F8FC0646802227
:10C030003146204613F0B2FFB04600BF4FF0000A71
:10C0400095F83C0000F00F00012800D18246002640
:10C0500041F26A42314620461CF04AFA0A900A9898
:10C06000C0B2012800D18246E86A00287ED0E86A82
:10C0700016F0D5FC0A900A98022814D19DF8750094
:10C0800041F6FF72BDF96A10CDE900120290BDF9C8
:10C090006C30169A07A8E96A22F0BEFDBDF91C6053
:10C0A000BDF91E7011E007A9E86A16F0D1F88346C1
:10C0B000BBF1010F05D10798C0F38A260798470DF9
:10C0C00002E04FF0FF36374600BFBAF1000F0DD047
:10C0D000A18A2098084400B2ADF82000BDF82000E5
:10C0E0003044401E00B2ADF824000DE0218B1F98B3
:10C0F000081A801B00B2ADF82000BDF820003044C3
:10C10000401E00B2ADF824000A98022815D1E18A39
:10C110001E98084400B2ADF82200BDF82200384451
:10C12000401E00B2ADF826000020009008AA16A913
:10C13000EB6A219811F0FEF840E020461AF064FE08
:10C14000A0EB070B0BEBDB704110E08A084400B258
:10C15000ADF82200BDF822003844401E00B2ADF810
:10C16000260002A811F0C9F802AA00E027E04FF467
:10C17000003120461CF0F4FC304606EBD07149102B
:10C1800009B2ADF80C10384607EBD07149100AB26D
:10C19000ADF80E204FF4003B43F60F0259462046FF
:10C1A0001CF0A6F90190019880B2ADF8080008AA29
:10C1B00002A9EB6A219811F051F800BF00BF0EA848
:10C1C00011F06CFC0EAA002120461CF028FD9DF801
:10C1D000550041F6FF72BDF94A10CDE900120290F8
:10C1E000BDF94C3041460DA80E9A22F015FDE18AAA
:10C1F0001E98084400B2ADF82E00BDF82E00BDF820
:10C200003610084400B2ADF83200E86AB0B92046F2
:10C210001CF095FBBDF93410461A06EBD670A18AC6
:10C2200001EB600000B2ADF82C00BDF82C00BDF8A9
:10C230003410084400B2ADF8300022E0BAF1000F2B
:10C2400011D0218B1F98081ABDF83410401A00B283
:10C25000ADF82C00BDF82C00BDF83410084400B235
:10C26000ADF830000DE0A18A2098084400B2ADF886
:10C270002C00BDF82C00BDF83410084400B2ADF815
:10C280003000002043460BAA0EA90090219811F01F
:10C2900051F8A86A10B9404618F03CFC23B0BDE83C
:10C2A000F08F2DE9F14F90B0109814F09DF90546EC
:10C2B0002C46109814F03FF906460EA928461AF0AD
:10C2C000D9FC002794F84800C0F3001008B147F0EB
:10C2D000010794F84800C0F3401008B147F0020786
:10C2E000002128461CF004FB42F2D171884205D19E
:10C2F000688CC0F3802008B947F0040706A811F045
:10C30000CDFBB4F84400ADF82E004620005BADF83C
:10C3100030008DF8357006AA002128461CF07FFCFD
:10C320000DA8411E626A03780BB90123037000BF98
:10C33000284617F015FB0790284617F00BFB0890CE
:10C340004FF6FF71079888421ED0089888421BD08C
:10C350004FF4802B44F25742594628461CF0C8F847
:10C36000029002980390BDF80C00ADF8260000BFC3
:10C370002022594628461CF0BBF8029002980390F0
:10C38000BDF80C00ADF8280094F8480000F0070054
:10C39000022805D094F8480000F0070003281FD1B8
:10C3A0009DF83400022803D09DF83400032817D1EB
:10C3B00041F6FF71BDF92A008DE88300BDF92C30EC
:10C3C000069A03A8616A22F027FC0EA80DF0F5FD7D
:10C3D000BDF90C10884202DA01208DF8340000BF4C
:10C3E00004F1300894F8480000F00700032805D055
:10C3F0000EA80DF05AFDB0F5806F01DA4FF000087D
:10C400000EA904A8B268F6F7B1FE8146B9F1000F93
:10C4100002D111B0BDE8F08F94F8480000F0070099
:10C4200070B928461AF0E0FE8346CBF1000002B254
:10C4300000210EA80DF0D9FD688BADF83E0000BFBD
:10C4400094F8480000F00700022805D094F848004E
:10C4500000F0070003280ED1D6F808B004A8B06099
:10C46000CDF800800EAA06A93046636A10F062FF7C
:10C47000C6F808B007E0CDF800800EAA06A930463D
:10C48000636A10F057FFD6F808A004A8B06094F8CB
:10C49000480000F0070003284FD141F6FF71BDF9B5
:10C4A0002A008DE88300BDF92C30069A03A8616A42
:10C4B00022F0B2FB0EA80DF080FDBDF90C108842F1
:10C4C0001BDA20221146069814F055FB00EB4000C1
:10C4D000B4F84410BDF80C201144084400B2ADF883
:10C4E0002E004620005BADF83000CDF800800EAA8B
:10C4F00006A93046636A10F01DFF0EA80DF0D5FCAA
:10C50000BDF90E10884217DAB4F84400ADF82E00D9
:10C51000069814F04FFB4621095BBDF80E2011442C
:10C52000084400B2ADF83000CDF800800EAA06A98C
:10C530003046636A10F0FEFE00BFC6F808A000BFD8
:10C5400067E72DE9F14F9AB01A9813F0ECFF804697
:10C550001A9814F049F80446B8F1150F16D11A9834
:10C5600013F0E9FF054618A9204606F023FC0AA8A7
:10C5700012F0A0FA0AAA4FF4802120461CF02AFCEF
:10C5800018AA0AA9284612F079FAC5E0B8F1180FDE
:10C59000FBD11A9813F0CFFF054612A811F07EFACE
:10C5A00012AA4FF4802120461CF039FB10A9204626
:10C5B00006F000FC10AA0EA8A968F6F7D7FD0D90AA
:10C5C0000D9800287DD0204606F069F88146204667
:10C5D0001CF0B5F98346484617F0B6F902210390DE
:10C5E000BDF95A00CDE901B10090BDF95C300CA84D
:10C5F000129A039922F010FB20461AF005FC064619
:10C60000304606EBD0714A10B4F916100A44B9F955
:10C610001610891A0B9148461AF0F6FB0B998903FC
:10C6200091FBF0F00B90002120461CF046F80A9098
:10C630001299B1F908200A99B1F90810501A00EBC3
:10C64000D071491009B20991BDF832100998081A41
:10C6500000B2ADF83200304606EBD0714A10B4F9A2
:10C6600016105718BDF932000B99484307EBA03755
:10C6700009983F1A002120461BF03FFB82464FF0ED
:10C68000000B41F61202594620461BF031FF039081
:10C69000039800B2089000BF41F6130259462046A5
:10C6A0001BF026FF0390039800B20790A18A089818
:10C6B0000844504400B2ADF8140038B2ADF816008A
:10C6C00000E028E0218B0798081AA0EB0A0000B2CE
:10C6D000ADF81800BDF81600BDF83210084400B2DD
:10C6E000ADF81A009DF8650040F002008DF8650075
:10C6F000A86804900EA8A860484617F025F983465C
:10C7000000205B4605AA12A90090284610F012FEF0
:10C710000498A86000BF00BF1BB0BDE8F08F2DE9F2
:10C72000F14FA8B0289813F05FFF044625462898DB
:10C7300013F001FF2790002120461BF039FD2690C1
:10C74000002120461BF0DDFD2590002120461BF036
:10C75000A8FE2490002120461BF04DFC239000BF32
:10C76000A08AADF88400E08AADF88600208BADF891
:10C770008800608BADF88A0000BFBDF88410269851
:10C78000084400B2ADF88400BDF888102598081A56
:10C7900000B2ADF88800BDF886102498084400B2B5
:10C7A000ADF88600BDF88A102398081A00B2ADF8DB
:10C7B0008A0013A812F07EF913AA4FF40031204624
:10C7C0001CF008FB21AA13A9279812F057F900269C
:10C7D00020461AF019FB074600BF208BA18A401A99
:10C7E000401CC01B0FFA80F8686A401C40B1696A9F
:10C7F00001FB08F0C11700EB116109120EB20CE049
:10C8000020461BF065F900F0010BBBF1000F01D0D1
:10C81000404600E00020064600BF4FF0000B41F20A
:10C820006A42594620461BF063FE00900098C0B251
:10C83000012802D1A8EB060006B2A08A304400B25B
:10C84000ADF84400BDF84400384400B2ADF84800EB
:10C85000E08AADF84600608BADF84A004FF44031F5
:10C8600020461BF0A5FC81464FF4403120461BF0CA
:10C8700048FD82464FF4403120461BF012FE1090D6
:10C880004FF4403120461BF0B6FB0F90BDF844003A
:10C89000A0EB090000B2ADF84400BDF848005044D8
:10C8A00000B2ADF84800BDF846101098081A00B262
:10C8B000ADF84600BDF84A100F98084400B2ADF834
:10C8C0004A0001A812F0F6F801AA4FF440312046C0
:10C8D0001CF080FA11AA01A9279812F0CFF829B00C
:10C8E000BDE8F08F2DE9F14FE0B0609813F07CFEC9
:10C8F00004462546609813F01EFE814604F114019B
:10C900005EA8D9F80820F6F731FC10B961B0BDE88F
:10C91000F08FD9F808005D905EA8C9F808004FF0C4
:10C92000000841F23202414620461BF0E1FD0C9026
:10C930000C9800B25690002120461BF0BFFD559088
:10C94000002120461BF064FB5490002120461BF080
:10C950003CFC5390002120461BF0E0FC52904FF429
:10C96000A02120461BF031FC51904FF4A02120461D
:10C970001BF0D4FC50904FF4A02120461BF09EFDEC
:10C980004F904FF4A02120461BF042FB4E90208C8C
:10C990004D9000202084608C20F00400001D6084F5
:10C9A0003FA812F087F83FAA4FF4A02120461CF0C0
:10C9B00011FA29A811F072F829AA4FF4A0212046F3
:10C9C0001CF02DF94D982084608C20F004006084C8
:10C9D000002720461AF01CFC0146E28A55981044B4
:10C9E000401E411A5698084400B2ADF86E01204628
:10C9F0001AF004FC2090002120461BF00AF90128BF
:10CA000000D100E000201F9049460DA819F09CFEBF
:10CA10004FF4A0201A90FE480E9000200F9031A8ED
:10CA2000119021A812904FF0000B33E2E86A30F920
:10CA30001B000C90BDF86E01401C00B2ADF86A01FD
:10CA4000BDF86A110C980844401E00B2ADF86E01A2
:10CA5000BDF96A01BDF97E11884200DD1EE21F9812
:10CA600058B1218B5298081A401E2099411A5698A5
:10CA7000081A00B2ADF868010AE0A18A5398084488
:10CA8000401E2099411A5698084400B2ADF86C0136
:10CA90000026F7E100200B90A86A50F8270020B18B
:10CAA000A86A50F8270000780B901F9880B1BDF855
:10CAB0006801401E00B2ADF86C01286B30F816001A
:10CAC000BDF86C11081A401C00B2ADF868010FE007
:10CAD000BDF86C01401C00B2ADF86801286B30F85D
:10CAE0001600BDF868110844401E00B2ADF86C0194
:10CAF0004FF0000800BF34E007EB0801A86A50F8C7
:10CB0000210048B307EB0802A96A51F8220008B1D6
:10CB100001780B910B9901F00101D9B11F9961B115
:10CB200006EB0801491C2A6B32F81110BDF8682188
:10CB3000511A09B2ADF868110DE006EB0801491C65
:10CB40002A6B32F81110BDF86C21114409B2ADF80E
:10CB50006C1100E00BE000E009E008F101001FFAB1
:10CB600080F808EB0601A88C401E8142C4DB00BFA0
:10CB7000BDF96E01BDF97A11884207DA08F10100AA
:10CB8000384487B206EB080086B279E100BFBDF8F1
:10CB90006801ADF82400BDF86A01ADF82600BDF8C3
:10CBA0006C01ADF82800BDF86E01ADF82A0000BF99
:10CBB0009DF81F01400800F0040090B1BDF9241059
:10CBC000B4F914205398104481420ADDBDF91C01C8
:10CBD00000EBD071BDF82420A2EB610109B2ADF8E1
:10CBE00024109DF81F01400800F0020090B1BDF92B
:10CBF0002610B4F916205598104481420ADDBDF97B
:10CC00001C0100EBD071BDF82620A2EB610109B236
:10CC1000ADF826109DF81F01400800F00800B8B1DB
:10CC2000BDF92810B4F918205298101A401E8142FC
:10CC30000EDABDF91C0100EBD07182B202F00102E4
:10CC400002EB6101BDF82820114409B2ADF82810AB
:10CC50009DF81F01C0F34000B8B1BDF92A10B4F926
:10CC60001A205498101A401E81420EDABDF91C0198
:10CC700000EBD07182B202F0010202EB6101BDF85B
:10CC80002A20114409B2ADF82A104FF0000AE88EAC
:10CC9000584523D1A88EB04220D194F8200000F04E
:10CCA000400030B994F8200000F0200008B14AF0AC
:10CCB000200A94F8200000F0020008B14AF0020AAD
:10CCC00094F8200000F0040008B14AF0040A94F837
:10CCD000200000F0080008B14AF0080ABAF1000F7D
:10CCE0000AD138223FA931A817F0B5FF202229A97F
:10CCF00021A817F0B0FF1EE0A4F820A0608C20F05F
:10CD00000400001D608431A811F0D4FE21A810F0A9
:10CD1000C5FE31AA4FF4A02120461CF05BF821AAE1
:10CD20004FF4A02120461BF07AFF4D982084608CA0
:10CD300020F00400608409A81090A88C0BFB006010
:10CD40001B900DAA1A21204613F054FC09AA31A900
:10CD5000484611F093FEA86A50F8270000287DD0BD
:10CD6000BDF868115198084400B2ADF86001BDF8F3
:10CD70006C115098081A00B2ADF86401BDF86A1140
:10CD80004F98084400B2ADF86201BDF86E114E989C
:10CD9000081A00B2ADF866010B98C0F34000089085
:10CDA000089810B10220579001E00020579000BF72
:10CDB000BDF86401BDF86011401A401C00B2049037
:10CDC000BDF9962004995798CDE900210290A86AF0
:10CDD00050F82700411CBDF998305CA8299A21F031
:10CDE0001BFF089818BB0C9901EBD172BDF86A3192
:10CDF00003EB6202BDF9720100EBD073A2EB630298
:10CE000012B2ADF862210C9901EBD17202E0000080
:10CE10003C990408BDF86A3103EB6202BDF9720166
:10CE200000EBD07302EB630212B2ADF866215AAA8E
:10CE30005EA906A8F6F79AF90590059890B106A89C
:10CE4000C9F8080000200090A86A50F82700431C89
:10CE500058AA21A9484610F06DFA00E003E05EA848
:10CE6000C9F8080000BF0DAA1B21204613F0C2FB21
:10CE700008F10100384487B206EB080086B200BF13
:10CE8000701C86B2A88CB0423FF704AE0BF10100D3
:10CE90001FFA80FBE88C58453FF7C8AD00BF5D988E
:10CEA000C9F8080000BF31E52DE9F04FA3B00746EF
:10CEB00089461646229730460DF05CF8054600EB91
:10CEC000D5704FEA60083088404400B2ADF8840065
:10CED0007088404400B2ADF886001EA810F02AFE0B
:10CEE0001EAA4FF4A02138461BF000FF18A810F02E
:10CEF00004FA18AA4FF4A02138461BF031FE002195
:10CF000038461AF0C2FF1790494605A819F01CFCD4
:10CF10007048069021A80E9022983030F7F7EEFB6B
:10CF20000446D1E025681694207901285CD1B5F932
:10CF30002000E98B08440090B5F92030D5E90512AE
:10CF4000E06817F01DFD8246A88B00EB0801608A9F
:10CF500008440FFA80FB0FFA8AF021F06FFD00FB06
:10CF60000BF047F6FF7190FBF1F0BDF88610084416
:10CF700000B2ADF812000FFA8AF021F057FD00FB65
:10CF80000BF047F6FF7190FBF1F0BDF884100844F8
:10CF900000B2ADF81000A08AADF87800208A00B287
:10CFA000ADF87A006079FD2801DD179803E060791B
:10CFB0001799484300128DF88000012013901EA895
:10CFC0000B9004A80F9005AA1A21384613F012FB03
:10CFD00004AB21AA1EA9484610F095FD05AA1B2105
:10CFE000384613F007FB68E02079002865D12069F6
:10CFF00000B963E0B5F92000E98B08440090B5F969
:10D000002030D5E90512E06817F0BAFC824604A981
:10D01000206915F01DF9BDF88410A08A081A00B225
:10D02000ADF80800BDF88610E08A081A00B2ADF825
:10D030000A00BDF808000499C1F38A210844401E83
:10D0400000B2ADF80C00BDF80A00049900EB515095
:10D05000401E00B2ADF80E006079FD2801DD179882
:10D0600003E060791799484300128DF86B00A08A9D
:10D07000ADF86400E18A18A8C1800AEB8A004FEA83
:10D08000400ABAF5616F01DDAAF5616A1FFA8AF0FC
:10D09000ADF8600018A80C9005AA1A21384613F0C4
:10D0A000A9FA02AA18A94846236910F0D7F805AAD8
:10D0B0001B21384613F09EFA00BF00BF214622987C
:10D0C0003030F7F715FB0446002C7FF42BAF23B06C
:10D0D000BDE8F08F40BB03082DE9F74F8AB00C463E
:10D0E000904694F82A00022802DC0DB0BDE8F08FCB
:10D0F000E08C00B9F9E794F82A90B9F1FD0F01DD51
:10D100004FF0FF09414608A80CF03EFE208D401E5E
:10D1100005B2BDF82000401B00B2ADF82000BDF8FC
:10D120002200401B00B2ADF82200BDF824002844C4
:10D1300000B2ADF82400BDF82600284400B2ADF8D6
:10D14000260008A906A80CF01FFEBDF81800E18C07
:10D15000401A00B2ADF81800BDF81C00E18C08447C
:10D1600000B2ADF81C00BDF81A00E18C401A00B204
:10D17000ADF81A00BDF81E00E18C084400B2ADF80D
:10D180001E0008A80CF0E8FE824608A80CF05CFE21
:10D190000746B4F90060BA4501DA504600E0384667
:10D1A0008346B6EB6B0F01DD4FEA6B06E08C304433
:10D1B00000B20590A07894F82A10CDE90210A08C56
:10D1C000ADF8040030B2009008AA06A9059B0A98A1
:10D1D000FBF754FC00BF88E7F8B50546284613F076
:10D1E00003FA0646284613F0FCF90446606BB0F5D6
:10D1F000A02F54D1A06B072806D200202169C87047
:10D20000216981F8220014E0208F81B2202230466B
:10D210000DF080FD68B100202169C870216981F896
:10D22000220012201DF012FD0090BDF80010606970
:10D230008181208F81B24FF4004230460DF06AFDAB
:10D2400098B166202169C870304621F0CDF8009071
:10D25000BDF800102069818030460DF055FDA16BAE
:10D26000884202D1B2202169C870208F81B24FF468
:10D27000804230460DF04EFD88B1FF20216981F8D3
:10D280002200304621F0B0F80090BDF8001020696F
:10D29000C1832069008C401C00B221690884F8BD5C
:10D2A0002DE9F04F8BB08146484613F09DF90546B5
:10D2B0002C46484613F03FF98346606A16F044FB5B
:10D2C00082469AF8000000283ED1A06A00283BD090
:10D2D000A06A0078C0B303A810F0E0FB03AA4FF4E3
:10D2E000002128461BF09BFC94F85C00C0F3C000B2
:10D2F00028B19DF8290040F002008DF82900002196
:10D3000028461AF06FFF0746002128461BF0E3F875
:10D310008046002128461AF0FDFC064605F114015E
:10D3200001A80CF05EFD08EB060002B2B81901B2CC
:10D3300001A80CF05AFE0020009001AA03A958464B
:10D34000A36A0FF0F7FF00BF0BB0BDE8F08F7CB50C
:10D350000446A06985686089002856D1A089002804
:10D3600053D1E088218988424FDAE18808B221F060
:10D3700065FBB4F90410B4F90E20891A48432168FA
:10D38000498801EBE03000B2ADF80200E1885A3183
:10D3900008B221F053FBB4F904104843216809880E
:10D3A00001EBE03000B2ADF80400218908B221F0B1
:10D3B00045FBB4F9041048432168498801EBE0308B
:10D3C00000B2ADF8060021895A3108B221F036FBCF
:10D3D000B4F90410B4F90E20891A48432168098869
:10D3E00001EBE03000B2ADF800002A46694668461D
:10D3F000F5F7BCFE06463EB1A169C1F808D06A4601
:10D400002169A06911F03AFBC2E0608910B1A089DE
:10D4100000287BD16089D0BB20680088ADF800006F
:10D4200020684088A188084400B2ADF80600E18871
:10D4300008B221F003FBB4F90410B4F90E20891AE4
:10D4400048432168498801EBE03000B2ADF80200A2
:10D45000E1885A3108B221F0F1FAB4F904104843D6
:10D460002168098801EBE03000B2ADF804002A46DB
:10D4700069466846F5F77AFE06463EB1A169C1F8ED
:10D4800008D06A462169A06911F0F8FA00BFA089A6
:10D4900000287DD120680088A188084400B2ADF83A
:10D4A000040020684088ADF80200218908B221F00C
:10D4B000C5FAB4F9041048432168498801EBE0300B
:10D4C00000B2ADF8060021895A3108B221F0B6FA4F
:10D4D000B4F90410B4F90E20891A48432168098868
:10D4E00001EBE03000B2ADF800002A46694668461C
:10D4F000F5F73CFE06463EB1A169C1F808D06A4680
:10D500002169A06911F0BAFA42E0FFE76089A189B8
:10D51000884205D1608918B12089E188884211DBF1
:10D520006089022802D1A08901280BD060890328D4
:10D5300002D1A089022805D06089032828D1A089BA
:10D54000012825D120680088ADF8000020684088B7
:10D55000ADF8020020680088A188084400B2ADF848
:10D56000040020684088A188084400B2ADF8060095
:10D570002A4669466846F5F7F9FD06463EB1A169B7
:10D58000C1F808D06A462169A06911F077FA00BF96
:10D59000A06985607CBD7CB50446A069856860890A
:10D5A000012856D1A089012853D1E08821898842D9
:10D5B0004FDAE18808B221F041FAB4F90410484387
:10D5C0002168498801EBE03000B2ADF80600E1883F
:10D5D0005A3108B221F032FAB4F90410B4F90E202D
:10D5E000891A48432168098801EBE03000B2ADF8A0
:10D5F0000400218908B221F021FAB4F90410B4F929
:10D600000E20891A48432168498801EBE03000B2B6
:10D61000ADF8020021895A3108B221F00FFAB4F9AD
:10D62000041048432168098801EBE03000B2ADF8EE
:10D6300000002A4669466846F5F798FD06463EB161
:10D64000A169C1F808D06A462169A06911F016FAEB
:10D65000C7E06089012802D0A08901287ED16089B5
:10D6600001283AD120680088A188401A00B2ADF89C
:10D67000000020684088ADF80200E18808B221F07F
:10D68000DDF9B4F9041048432168498801EBE03022
:10D6900000B2ADF80600E1885A3108B221F0CEF9A7
:10D6A000B4F90410B4F90E20891A48432168098896
:10D6B00001EBE03000B2ADF804002A466946684646
:10D6C000F5F754FD06463EB1A169C1F808D06A4697
:10D6D0002169A06911F0D2F900BFA0890128B7D152
:10D6E00020680088401E00B2ADF804002068408821
:10D6F000A188084400B2ADF80600218908B221F0E3
:10D700009DF9B4F90410B4F90E20891A4843216830
:10D71000498801EBE03000B2ADF8020021895A31AE
:10D7200008B221F08BF9B4F9041048432168098844
:10D7300001EBE03000B2ADF800002A4669466846C9
:10D74000F5F714FD06463EB1A169C1F808D06A4656
:10D750002169A06911F092F943E0FFE76089A1898E
:10D76000884206D16089012803D02089E188884257
:10D770000FDB608910B9A08902280AD0608910B92E
:10D78000A089032805D0608903282AD1A08902280E
:10D7900027D120680088A188401A00B2ADF80000A7
:10D7A00020684088ADF8020020680088401E00B262
:10D7B000ADF8040020684088A188084400B2ADF8A4
:10D7C00006002A4669466846F5F7D0FC06463EB193
:10D7D000A169C1F808D06A462169A06911F04EF923
:10D7E00000BFA06985607CBD7CB50446A0698568E2
:10D7F0006089022856D1A089022853D1E088218966
:10D8000088424FDAE1885A3108B221F017F9B4F9A9
:10D81000041048432168098801EBE03000B2ADF8FC
:10D820000000E18808B221F009F9B4F90410B4F954
:10D830000E20891A48432168498801EBE03000B284
:10D84000ADF80600218908B221F0F8F8B4F9041007
:10D8500048432168498801EBE03000B2ADF802008E
:10D8600021895A3108B221F0E9F8B4F90410B4F969
:10D870000E20891A48432168098801EBE03000B284
:10D88000ADF804002A4669466846F5F76FFC06467F
:10D890003EB1A169C1F808D06A462169A06911F0BA
:10D8A000EDF8CCE06089022802D0A08902287DD161
:10D8B000608902283CD120680088401E00B2ADF883
:10D8C000040020684088A188401A00B2ADF8020028
:10D8D000E1885A3108B221F0B1F8B4F90410484394
:10D8E0002168098801EBE03000B2ADF80000E18862
:10D8F00008B221F0A3F8B4F90410B4F90E20891A83
:10D9000048432168498801EBE03000B2ADF80600D9
:10D910002A4669466846F5F729FC06463EB1A169E4
:10D92000C1F808D06A462169A06911F0A7F800BFC4
:10D93000A0890228B5D120680088A188401A00B2C9
:10D94000ADF8000020684088401E00B2ADF8060027
:10D9500021895A3108B221F071F8B4F90410B4F9F0
:10D960000E20891A48432168098801EBE03000B293
:10D97000ADF80400218908B221F060F8B4F9041070
:10D9800048432168498801EBE03000B2ADF802005D
:10D990002A4669466846F5F7E9FB06464EB1A16995
:10D9A000C1F808D06A462169A06900E002E011F0E0
:10D9B00065F844E06089A189884206D1608902281F
:10D9C00003D02089E18888420FDB608910B9A089E3
:10D9D00003280AD06089012802D1A089032804D035
:10D9E000608901282BD1A08948BB20680088A188C4
:10D9F000401A00B2ADF8000020684088A188401AA3
:10DA000000B2ADF8020020680088401E00B2ADF8F8
:10DA1000040020684088401E00B2ADF806002A4687
:10DA200069466846F5F7A2FB06463EB1A169C1F812
:10DA300008D06A462169A06911F020F800BFA069EA
:10DA400085607CBD7CB50446A06985686089032833
:10DA500056D1A089032853D1E088218988424FDA22
:10DA6000E1885A3108B220F0E9FFB4F90410B4F9A2
:10DA70000E20891A48432168098801EBE03000B282
:10DA8000ADF80000E18808B220F0D8FFB4F9041026
:10DA900048432168498801EBE03000B2ADF802004C
:10DAA00021895A3108B220F0C9FFB4F90410484363
:10DAB0002168098801EBE03000B2ADF8040021894B
:10DAC00008B220F0BBFFB4F90410B4F90E20891A93
:10DAD00048432168498801EBE03000B2ADF8060008
:10DAE0002A4669466846F5F741FB06463EB1A169FC
:10DAF000C1F808D06A462169A06910F0BFFFC7E0ED
:10DB00006089032802D0A08903287ED16089032878
:10DB10003CD120680088A188084400B2ADF8040018
:10DB200020684088401E00B2ADF80600E1885A31F6
:10DB300008B220F083FFB4F90410B4F90E20891A5A
:10DB400048432168098801EBE03000B2ADF80000DD
:10DB5000E18808B220F072FFB4F90410484321684C
:10DB6000498801EBE03000B2ADF802002A46694670
:10DB70006846F5F7FBFA06463EB1A169C1F808D040
:10DB80006A462169A06910F079FF00BFA0890328C7
:10DB90007ED120680088ADF8000020684088A18808
:10DBA000401A00B2ADF8020021895A3108B220F0C3
:10DBB00045FFB4F9041048432168098801EBE030BF
:10DBC00000B2ADF80400218908B220F037FFB4F9A3
:10DBD0000410B4F90E20891A48432168498801EBE2
:10DBE000E03000B2ADF806002A4669466846F5F70F
:10DBF000BDFA06463EB1A169C1F808D06A4621695E
:10DC0000A06910F03BFF43E0FFE76089A1898842EB
:10DC100006D16089032803D02089E18888420FDB80
:10DC20006089022801D1A08950B16089012801D101
:10DC3000A08928B1608902282AD1A089012827D18A
:10DC400020680088ADF8000020684088A188401A4C
:10DC500000B2ADF8020020680088A188084400B234
:10DC6000ADF8040020684088401E00B2ADF8060000
:10DC70002A4669466846F5F779FA06463EB1A16933
:10DC8000C1F808D06A462169A06910F0F7FE00BF0C
:10DC9000A06985607CBD000070B5A4B006460D4645
:10DCA00020AA22A9304619F0BDFA22A80CF004F9E6
:10DCB00028B920A80CF000F908B924B070BD12A949
:10DCC000304623F07BFE0446012C00D0F5E72946C0
:10DCD000684618F039FD1B4801900220029012A8F6
:10DCE00004904FF480300D9022A80CF0E5F880B13C
:10DCF00022A803906A461A21304612F07BFC22AA21
:10DD000012A9284610F0BAFE6A461B21304612F0CE
:10DD100071FC20A80CF0D0F890B120A803906A46BE
:10DD20001A21304612F066FC20A8039020AA12A9FE
:10DD3000284610F0A3FE6A461B21304612F05AFC1A
:10DD400000BFBAE730B403082DE9F04FB1B0054683
:10DD50000F4605F114012FA8BA68F5F707FA10B9B4
:10DD600031B0BDE8F08FB8682E902FA8B8602C466F
:10DD7000002128461AF0C1F92B90002128461AF0FC
:10DD800028FB2A90284618F0CAFFB4F884104843AC
:10DD900000120FFA80FA284618F0A2FFB4F8861095
:10DDA000484300120FFA80FB04F12400F6F787FCC9
:10DDB0002890002128461AF052F98234618848439D
:10DDC000001227902188491E279801FB10A0218866
:10DDD00090FBF1F000B2269028992698B0FBF1F064
:10DDE00000B225904FF4A02128461AF038F9618836
:10DDF000823C484300122490284619F0FBF8014663
:10DE00002B98401A00B22390284619F0EDF90146EC
:10DE10002A98401A00B2229014A810F04BFE14AABF
:10DE20004FF4A02128461AF0D5FF14A8C07B20F09B
:10DE3000070114A8C173FF208DF85300688BBDF84B
:10DE40005010084400B2ADF8B600394602A818F0E8
:10DE50007BFC4FF4A0200F905D48039004200490B9
:10DE60004FF00008AAE02798504400FB08F0B4F8EF
:10DE7000821090FBF1F0A98A01442398084400B273
:10DE80000190CDF8408004F12400F6F737FC0646F7
:10DE90008CE0307B00F0010000B181E094F8880054
:10DEA000C0F3C00008B9708900E0002000B2009003
:10DEB0000198ADF8B000BDF8B01025980144249841
:10DEC000081A401E00B2ADF8B40025990198084424
:10DED00000B20190BDF9B400BDF9BC10884200DA6F
:10DEE0005EE0BDF9B000BDF9C010884200DD60E021
:10DEF0003089ADF8540000984044B4F8821090FB8B
:10DF0000F1F201FB12000FFA80F9706830F9191074
:10DF1000307BC0F3001204F16C0030F91200081AD3
:10DF200000FB0BF02990307BC0F3001104F170006E
:10DF300030F91110307BC0F3001204F16C0030F99D
:10DF40001200091A299890FBF1F029902998ABEB5F
:10DF50000001E88A01442298084400B2ADF8B200FA
:10DF6000706830F9190047F6FF71884217D02CA865
:10DF7000059014A806901396706830F91900129055
:10DF800002AA1A21284612F035FB2CAA14A93846F9
:10DF900010F074FD02AA1B21284612F02BFB00BFD3
:10DFA000314604F12400F6F7A3FB0646002E7FF469
:10DFB00070AF00BF08F101001FFA80F8B4F88200CA
:10DFC00040453FF750AF2E98B86000BFC8E600004C
:10DFD00008B603082DE9F34FB9B083463A980BF120
:10DFE0001401826837A8F5F7C1F810B93BB0BDE855
:10DFF000F08F3A988068369037A93A9881605D46EC
:10E00000B5F88200022800DAF0E70021584619F03E
:10E010005AFE3390002158461AF06FF801463398A3
:10E02000084400B23290002158461AF0D2F9014655
:10E030003398084400B23190584618F070FEB5F895
:10E0400084104843001200B23090584618F048FE41
:10E05000B5F886104843001200B22F90584618F0C9
:10E06000C9FF0146BBF8142032981044401A00B290
:10E070002E90584619F0B8F80146BBF81620319892
:10E080001044401A00B22D903A980BF114018268A6
:10E090002BA8F5F76BF82A902A9800B9A6E727A8CD
:10E0A0000FF048FD27AA4FF4A02158461AF01EFE93
:10E0B00019A810F0FFFC19AA4FF4003158461AF0C5
:10E0C00089FE4FF4003158461AF005FC064600EB75
:10E0D000D67047104FF40031584619F06EFE0646D0
:10E0E00000EBD6704FEA600ABDF99E00574501DA91
:10E0F000394600E0514600EBD072B1EB620F06DD0D
:10E100009DF8A50020F0100010308DF8A500BDF896
:10E110009E00012806D19DF8A50020F010001030C7
:10E120008DF8A500B5F882103098814201DB0120FE
:10E1300000E00020189005F12400F6F7DFFA04460D
:10E14000D4E1207B00F0010000B1C9E12089ADF8E5
:10E150009C002089ADF8680095F88800C0F3C000E5
:10E1600008B9608900E0002006B217962E98ADF835
:10E17000D4002E98ADF8D000179E179EB046606868
:10E1800030F91810207BC0F3001205F16C0030F953
:10E190001200081A2F9948431690207BC0F30011F3
:10E1A00005F1700030F91110207BC0F3001205F169
:10E1B0006C0030F91200091A169890FBF1F01690D5
:10E1C00016992F98411A2D98084400B2ADF8D20044
:10E1D00004A83A9918F0B8FAC848059003200690A8
:10E1E0004FF4A020119027A80A9019A80890159420
:10E1F000BDF9D2000390BDF9D20002904FF00009A2
:10E2000023E1BDF8D000ADF8D400BDF8D200ADF8E0
:10E21000D600BDF9D4103698B0F904003844401C3B
:10E22000814200DD16E1309800FB09F0B5F882105C
:10E23000491E90FBF1F12E98084400B2ADF8D000D1
:10E2400017984844B5F8821090FBF1F201FB1200D8
:10E2500006B2606830F91610207BC0F3001205F199
:10E260006C0030F91200081A2F9948431690207B51
:10E27000C0F3001105F1700030F91110207BC0F3DC
:10E28000001205F16C0030F91200091A169890FB83
:10E29000F1F0169016992F98411A2D98084400B263
:10E2A000ADF8D200BDF9D0103698B0F90000C01B0F
:10E2B000401E814201DAB046C3E0B9F1000F58D0E8
:10E2C0001898E8B3606830F9180047F6FF71884283
:10E2D000F5D0606830F916008842F0D0BDF9D21050
:10E2E0000298814201DA029801E0BDF9D200029061
:10E2F000BDF9D2100398814201DD039801E0BDF918
:10E30000D2000390BDF9D400BDF9D010884230D0BE
:10E31000BDF9D2000190BDF8D000401E00B2ADF8AA
:10E32000D000BDF8D000ADF8D4000398ADF8D60009
:10E330000298ADF8D200BDF9D600BDF9D21000E0C8
:10E3400018E0884205D1BDF8D200401C00B2ADF8FB
:10E35000D20034AB35AA27A93A980FF0D4FBBDF808
:10E36000D000401C00B2ADF8D00001980390019895
:10E37000029064E0BDF8D400C01B00B2ADF800000C
:10E38000BDF8D400384400B2ADF80400BDF8D600A2
:10E39000A0EB0A0000B2ADF80200BDF8D600504470
:10E3A00000B2ADF80600A9F101001290606830F9E2
:10E3B000180047F6FF71884201D035A800E0002020
:10E3C0000D90606830F9160047F6FF71884201D061
:10E3D00034A800E000200E90CDF81CD0606830F921
:10E3E0001800149004AA1A21584612F003F9606824
:10E3F00030F9180047F6FF7188420AD0606830F99A
:10E400001600884205D034AB35AA27A93A980FF0F8
:10E410007AFB77B1BAF1000F0BD0606830F91800C1
:10E4200047F6FF71884204D06A4619A93A9810F05D
:10E4300025FB04AA1B21584612F0DCF800BFB046A9
:10E4400000BF09F101001FFA80F9B5F882004845C4
:10E450003FF7D7AE00BF1898E8BBB5F88200484533
:10E460003DD1606830F9160047F6FF71884236D01A
:10E47000BDF8D000C01B00B2ADF80000BDF8D00060
:10E48000384400B2ADF80400BDF8D200A0EB0A0099
:10E4900000B2ADF80200BDF8D200504400B2ADF8B1
:10E4A0000600A9F10100129000200D900E90CDF809
:10E4B0001CD0606830F91600149004AA1A2158463E
:10E4C00012F098F86A4619A93A9810F0D7FA04AAF7
:10E4D0001B21584600E002E012F08CF800BF00BF9C
:10E4E000214605F12400F6F703F90446002C7FF4D9
:10E4F00028AE3A993698886000BF77E508B60308D9
:10E500002DE9F34FB3B08146349809F114018268C4
:10E5100031A8F4F72BFE10B935B0BDE8F08F349870
:10E520008068309031A9349881604D46002148467A
:10E5300019F0C9FB2D900021484619F0DEFD2C9002
:10E540000021484619F045FF2B90484618F0E7FB9C
:10E55000B5F884104843001200B22A90484618F0DB
:10E56000BFFBB5F886104843001200B22990484618
:10E5700018F040FD0146B9F814202C9802442D985B
:10E580001044401A00B22890484618F02DFE01466B
:10E59000B9F816202B9802442D981044401A00B266
:10E5A000279024A80FF0C6FA24AA4FF4A0214846C9
:10E5B0001AF09CFB16A810F07DFA16AA4FF4003151
:10E5C00048461AF007FC4FF4003148461AF083F928
:10E5D000064600EBD67047104FF40031484619F05C
:10E5E000ECFB064600EBD6704FEA6008BDF99200DE
:10E5F000474501DA394600E0414600EBD072B1EB05
:10E60000620F06DD9DF8990020F0100010308DF8A3
:10E610009900BDF89200012806D19DF8990020F0DC
:10E62000100010308DF8990005F12400F6F766F817
:10E63000044698E1207B00F0010000B18DE12089C3
:10E64000ADF890002089ADF85C0095F88800C0F323
:10E65000C00008B9608900E0002006B2159628982D
:10E66000ADF8BC002898ADF8B800159E159EB346CD
:10E67000606830F816000A2847D02A98009023686E
:10E6800033F91600237BC3F3C00C05F1780333F98B
:10E690001C20237BC3F3C00C05F1740333F91C1059
:10E6A000002316F06DF900B2ADF8B800BDF8B8104F
:10E6B0002898084400B2ADF8B80029980090636823
:10E6C00033F91600237BC3F3001C05F1700333F903
:10E6D0001C20237BC3F3001C05F16C0333F91C10D1
:10E6E000002316F04DF900B2ADF8BA00BDF8BA102B
:10E6F0002998401A00B2ADF8BA00BDF8BA102798B0
:10E70000084400B2ADF8BA0005E04EF20100ADF8E1
:10E71000B800ADF8BA0003A8349918F015F84FF412
:10E72000A0201090944804900320059024A80990FC
:10E7300016A8079014944FF0000AC8E0BDF8B8007E
:10E74000ADF8BC00BDF8BA00ADF8BE001598504455
:10E75000B5F8821090FBF1F201FB120006B260687E
:10E7600030F9160047F6FF71884247D0299800908B
:10E77000636833F91600237BC3F3001C05F17003B3
:10E7800033F91C20237BC3F3001C05F16C0333F920
:10E790001C10002316F0F4F800B2ADF8BA00BDF872
:10E7A000BA102998401A00B2ADF8BA00BDF8BA10F4
:10E7B0002798084400B2ADF8BA002A980090236860
:10E7C00033F91600237BC3F3C00C05F1780333F94A
:10E7D0001C20237BC3F3C00C05F1740333F91C1018
:10E7E000002316F0CDF800B2ADF8B800BDF8B810AF
:10E7F0002898084400B2ADF8B80001E0B34662E0E2
:10E80000BAF1000F5DD0BDF8BC00C01B00B2ADF87E
:10E810000400BDF8BC00384400B2ADF80800BDF8F3
:10E82000BE00A0EB080000B2ADF80600BDF8BE00C7
:10E83000404400B2ADF80A00AAF1010011906068EE
:10E8400030F91B0047F6FF71884201D02FA800E085
:10E8500000200C90606830F9160047F6FF7188427E
:10E8600001D02EA800E000200D9001A8069060685D
:10E8700030F91B00139003AA1A21484611F0BAFE82
:10E88000606830F91B0047F6FF71884213D060685A
:10E8900030F9160088420ED02EAB2FAA24A9349846
:10E8A0000FF031F93FB1B8F1000F04D001AA16A959
:10E8B000349810F0E3F803AA1B21484611F09AFEA1
:10E8C00000BFB34600BF0AF101001FFA80FAB5F895
:10E8D000820050453FF732AFB5F8820050453BD13A
:10E8E000606830F9160047F6FF71884234D0BDF8F1
:10E8F000B800C01B00B2ADF80400BDF8B800384441
:10E9000000B2ADF80800BDF8BA00A0EB080000B2F4
:10E91000ADF80600BDF8BA00404400B2ADF80A00F8
:10E92000AAF10100119000200C900D9001A8069012
:10E93000606830F91600139003AA1A21484611F0B6
:10E9400059FE01AA16A9349810F098F803AA1B21C1
:10E95000484611F04FFE00BF00BF214605F12400DC
:10E96000F5F7C6FE0446002C7FF464AE3499309867
:10E97000886000BFD0E5000008B603082DE9F74F16
:10E98000A2B00F46F88D10B925B0BDE8F08F97F80A
:10E990003600022800DCF7E7F88D012808D1B7F926
:10E9A0003400002804DC388E10B9788E00B9EBE70B
:10E9B00024980088398E0844B98E401A00B2ADF808
:10E9C000800024988088398E0844B98E084400B2AB
:10E9D000ADF8840024984088798E0844B98E401A96
:10E9E00000B2ADF882002498C088798E0844B98EB0
:10E9F000084400B2ADF88600B7F92E0000EBD071E4
:10EA0000BDF88020A2EB6101491E09B2ADF8781073
:10EA1000B7F92E0000EBD071BDF8842002EB610144
:10EA2000491C09B2ADF87C10B7F92E0000EBD0718B
:10EA3000BDF88220A2EB6101491E09B2ADF87A103F
:10EA4000B7F92E0000EBD071BDF8862002EB610112
:10EA5000491C09B2ADF87E1097F836001D901D983C
:10EA6000FD2801DDFF201D9022981EA982681BA8A9
:10EA7000F4F77CFB00B987E719A824990BF084F917
:10EA80004FF0FF32114619A80BF09EFAB7F900803B
:10EA900019A80BF061FA834619A80BF0D5F9834544
:10EAA00003DA19A80BF058FA02E019A80BF0CCF918
:10EAB00018901898B8EB600F02DD18984FEA6008BC
:10EAC000B7F90000179020A80BF046FA834620A85B
:10EAD0000BF0BAF9834503DA20A80BF03DFA02E007
:10EAE00020A80BF0B1F91890DDE91701B0EB610F28
:10EAF00002DD189840101790B7F92E1017980C18CF
:10EB000004FB04F1480015F089FF8246B7F92E2076
:10EB1000179803B2514620A823F01EF91EA80FF043
:10EB20003BFB16904FF00109169820B9F878FF28A2
:10EB300001DBB87808B14FF000094FF0FF300F90BB
:10EB4000B9F1000F0BD101230FFA88F219A910A80F
:10EB50000FF09AFE002110A80FF018F80F901EA8D1
:10EB60000BF0FAF9834615F059FF0E901C2102A80C
:10EB700016F0FFF90CA8029007900E980590B88D3A
:10EB8000ADF8100097F836008DF82000B8788DF8B1
:10EB900021001EA80BF0E0F9834600EBDB70BDF806
:10EBA000781001EB600000B201901EA80BF04CF948
:10EBB000834600EBDB70BDF87A1001EB600000B219
:10EBC0000090BDF87C00ADF83400BDF87C00001B5F
:10EBD000401C00B2ADF83000BDF87A00ADF832004C
:10EBE000BDF87A002044401E00B2ADF83600BDF9F1
:10EBF00030100198814202DDBDF9300000E001983B
:10EC0000ADF83000BDF936100098814202DABDF946
:10EC1000360000E00098ADF8360022980CA9826812
:10EC20000AA8F4F7A3FA002866D00FFA88F219A907
:10EC30000AA8F4F7DCFA00285ED10AA80BF08CF9D8
:10EC400083465646BDF92A00BDF97A10401A00FBEA
:10EC50000466BDF92810BDF97C00001B401C081A91
:10EC60000644B9F1000F09D00FFA88F219A90AA8D1
:10EC7000F4F738FB10B10120099001E0CDF82490A1
:10EC8000BBF1000F37DD0E980590BDF82800ADF8F8
:10EC90003000BDF82C00ADF8340002208DF81800CB
:10ECA000BDF92A5023E0ADF83250ADF8365009983E
:10ECB000A8B9224631460E9815F0CDFFBDF92810AF
:10ECC0005B462A460E980FF017FA8DF818009DF84B
:10ECD0001800012804D102208DF8180000E00596E4
:10ECE00002A9229810F008F92644681C05B2BDF963
:10ECF0002E00A842D7DA00BFBDF87C00ADF8340082
:10ED0000BDF87C00001B401C00B2ADF83000BDF81F
:10ED10007E00001B401C00B2ADF83200BDF87E0042
:10ED2000ADF83600BDF930100198814202DDBDF921
:10ED3000300000E00198ADF83000BDF932100098C5
:10ED4000401C814202DDBDF9320001E00098401C08
:10ED500000B2ADF8320022980CA982680AA8F4F734
:10ED600005FA002866D00FFA88F219A90AA8F4F764
:10ED70003EFAA8BB0AA80BF0EFF883465646BDF949
:10ED80003600BDF92E10401A00FB0466BDF92810AC
:10ED9000BDF97C00001B401C081A0644B9F1000FA5
:10EDA00009D00FFA88F219A90AA8F4F79BFA10B152
:10EDB0000120099001E0CDF82490BBF1000F38DD6F
:10EDC0000E980590BDF82800ADF83000BDF82C0075
:10EDD000ADF8340002208DF81800BDF92E5024E063
:10EDE00028E0ADF83250ADF836500998A8B922465F
:10EDF00031460E9815F02FFFBDF928105B462A46C4
:10EE00000E980FF079F98DF818009DF81800012878
:10EE100004D102208DF8180000E0059602A922987E
:10EE200010F06AF82644681E05B2BDF92A00A8420F
:10EE3000D7DD00BFBDF87800204400B2ADF8300047
:10EE4000BDF87C00001B00B2ADF83400BDF87A00BC
:10EE5000ADF83200BDF87A002044401E00B2ADF893
:10EE60003600BDF936100098814202DABDF936004D
:10EE700000E00098ADF8360022980CA982680AA834
:10EE8000F4F774F900286FD00FFA88F219A90AA8CC
:10EE9000F4F7ADF9002867D10AA80BF05DF88346B6
:10EEA0005646BDF92A00BDF93210401A00FB04662F
:10EEB000B9F1000F09D00FFA88F219A90AA8F4F7DE
:10EEC00011FA10B10120099001E0CDF82490BBF1B6
:10EED000000F48DD099810B90E98059001E0002058
:10EEE0000590BDF82800ADF83000BDF82C00ADF855
:10EEF0003400BDF92A5032E0ADF83250ADF836504A
:10EF00000998C8B931785A460E9815F0F8FFBDF93E
:10EF100028105B462A460E980FF0EEF88DF8180080
:10EF20009DF81800012802D102208DF8180002A9CE
:10EF300022980FF0E1FF0FE01D98FF2801D13078F3
:10EF400004E0307897F83610484300128DF820001E
:10EF500002A922980FF0D0FF2644681C05B2BDF923
:10EF60002E00A842C8DA00BF97F836008DF82000BE
:10EF7000BDF87800204400B2ADF83000BDF87C0048
:10EF8000001B00B2ADF83400BDF87E00001B401C31
:10EF900000B2ADF83200BDF87E00ADF83600BDF924
:10EFA00032100098401C814202DDBDF9320001E0C0
:10EFB0000098401C00B2ADF8320022980CA982687B
:10EFC0000AA8F4F7D3F800287ED00FFA88F219A91E
:10EFD0000AA8F4F70CF9002878D10AA80AF0BCFFB7
:10EFE00083465646BDF93600BDF92E10401A00FB87
:10EFF0000466BBF1000F66DDB9F1000F09D00FFA0E
:10F0000088F219A90AA8F4F76DF910B10120099046
:10F0100001E0CDF82490099810B90E98059001E010
:10F0200000200590BDF82800ADF83000BDF82C0098
:10F03000ADF83400BDF92E5041E0ADF83250ADF8D6
:10F040003650B9F1000F09D00FFA88F219A90AA8B1
:10F05000F4F748F910B10120099001E0CDF82490AF
:10F060000998C8B931785A460E9815F048FFBDF98D
:10F0700028105B462A460E980FF03EF88DF81800CF
:10F080009DF81800012802D102208DF8180002A96D
:10F0900022980FF031FF0FE01D98FF2801D1307842
:10F0A00004E0307897F83610484300128DF82000BD
:10F0B00002A922980FF020FF2644681E05B2BDF970
:10F0C0002A00A842B9DD00E000E000BF97F8360052
:10F0D0008DF82000BDF87C00001B401C00B2ADF88C
:10F0E0003000BDF87C00ADF83400BDF87A00204453
:10F0F00000B2ADF83200BDF87E00001B00B2ADF8E2
:10F100003600BDF932100098401C814202DABDF988
:10F11000320001E00098401C00B2ADF83200BDF9A9
:10F1200036100098814202DDBDF9360000E00098FB
:10F13000ADF83600BDF930100198814202DDBDF90D
:10F14000300000E00198ADF8300022980CA98268E8
:10F150000AA8F4F70BF8E0B30FFA88F219A90AA885
:10F16000F4F745F8A8BB0AA80AF0F6FE834656460F
:10F17000601E00FB0466BDF92810BDF97C00001B71
:10F18000401C081A0644B9F1000F09D00FFA88F2A2
:10F1900019A90AA8F4F7A6F810B10120099001E016
:10F1A000CDF82490099808B1304600E00E980590FB
:10F1B000BBF1000F33DDBDF82800ADF83000BDF81D
:10F1C0002C00ADF8340002208DF81800BDF92A504B
:10F1D00021E025E0ADF83250ADF836500998A0B9DD
:10F1E0005A4631460E9815F036FDBDF928105B469B
:10F1F0002A460E980EF080FF8DF818009DF8180032
:10F20000012802D102208DF8180002A922980FF0DF
:10F2100073FE681C05B2BDF92E00A842DADA00BF01
:10F220005646002515E030463319591E002208E0E5
:10F23000037891F800C080F800C00B70401C491E94
:10F24000521C04EBD47CB2EB6C0FF1DB2644681C3F
:10F2500005B2A542E7DBBDF87800ADF83000BDF897
:10F2600078002044401E00B2ADF83400BDF87A00AA
:10F27000204400B2ADF83200BDF87E00001B00B2A1
:10F28000ADF83600BDF932100098401C814202DA18
:10F29000BDF9320001E00098401C00B2ADF8320028
:10F2A000BDF936100098814202DDBDF9360000E05C
:10F2B0000098ADF83600BDF934100198401E814227
:10F2C00002DABDF9340001E00198401E00B2ADF849
:10F2D000340022980CA982680AA8F3F747FFD0B33C
:10F2E0000FFA88F219A90AA8F3F781FF98BB0AA8B8
:10F2F0000AF032FE83465646601E00FB0466BDF9E6
:10F300002800BDF93010401A0644B9F1000F09D0A9
:10F310000FFA88F219A90AA8F3F7E4FF10B1012047
:10F32000099001E0CDF82490099808B1304600E03A
:10F330000E980590BBF1000F33DDBDF82800ADF845
:10F340003000BDF82C00ADF8340002208DF8180014
:10F35000BDF92A5021E025E0ADF83250ADF8365025
:10F360000998A0B95A4631460E9815F074FCBDF9BB
:10F3700028105B462A460E980EF0BEFE8DF8180047
:10F380009DF81800012802D102208DF8180002A96A
:10F3900022980FF0B1FD681C05B2BDF92E00A842FD
:10F3A000DADA00BFBDF87800ADF83000BDF87800BB
:10F3B0002044401E00B2ADF83400BDF87A00ADF82C
:10F3C0003200BDF87A002044401E00B2ADF836008D
:10F3D000BDF934100198401E814202DABDF93400B3
:10F3E00001E00198401E00B2ADF83400BDF93610BE
:10F3F0000098814202DABDF9360000E00098ADF8CD
:10F40000360022980CA982680AA8F3F7AFFED0B3A1
:10F410000FFA88F219A90AA8F3F7E9FE98BB0AA81F
:10F420000AF09AFD83465646BDF92A00BDF932100E
:10F43000401A00FB0466BDF92800BDF93010401ADF
:10F440000644B9F1000F09D00FFA88F219A90AA8E9
:10F45000F3F748FF10B10120099001E0CDF82490A6
:10F460000E980590BBF1000F36DDBDF82800ADF811
:10F470003000BDF82C00ADF8340002208DF81800E3
:10F48000BDF92A5024E028E0ADF83250ADF83650EE
:10F490000998A8B9224631460E9815F0DCFBBDF953
:10F4A00028105B462A460E980EF026FE8DF81800AE
:10F4B0009DF81800012804D102208DF8180000E002
:10F4C000059602A922980FF017FD2644681C05B284
:10F4D000BDF92E00A842D7DA00BFBDF87800ADF81C
:10F4E0003000BDF878002044401E00B2ADF8340072
:10F4F000BDF87E00001B401C00B2ADF83200BDF824
:10F500007E00ADF83600BDF932100098401C8142F3
:10F5100002DDBDF9320001E00098401C00B2ADF8F8
:10F520003200BDF934100198401E814202DABDF963
:10F53000340001E00198401E00B2ADF8340022987A
:10F540000CA982680AA8F3F711FED0B30FFA88F26B
:10F5500019A90AA8F3F74BFE98BB0AA80AF0FCFC0D
:10F5600083465646BDF93600BDF92E10401A00FB01
:10F570000466BDF92800BDF93010401A0644B9F1FF
:10F58000000F09D00FFA88F219A90AA8F3F7AAFE0A
:10F5900010B10120099001E0CDF824900E9805905B
:10F5A000BBF1000F36DDBDF82800ADF83000BDF826
:10F5B0002C00ADF8340002208DF81800BDF92E5053
:10F5C00024E028E0ADF83250ADF836500998A8B9DB
:10F5D000224631460E9815F03EFBBDF928105B46D9
:10F5E0002A460E980EF088FD8DF818009DF8180038
:10F5F000012804D102208DF8180000E0059602A928
:10F6000022980FF079FC2644681E05B2BDF92A0045
:10F61000A842D7DD00BFBDF87800204400B2ADF8A5
:10F620003000BDF87C00001B00B2ADF83400BDF81E
:10F630007A00204400B2ADF83200BDF87E00001B15
:10F6400000B2ADF836000E98059022980CA9826899
:10F650000AA8F3F78BFDA0B30FFA88F219A90AA83C
:10F66000F3F7C5FD68BB0AA80AF076FC8346BBF138
:10F67000000F25DDBDF82800ADF83000BDF82C00E6
:10F68000ADF83400BDF92A5016E0ADF83250ADF8AF
:10F69000365059460E9815F0A3FCBDF928105B466C
:10F6A0002A460E980EF028FD8DF8180002A922981F
:10F6B0000FF022FC681C05B2BDF92E00A842E4DA66
:10F6C00000BFB9F1000F05D110A80EF041FD0F9851
:10F6D0000FF0C2F9504615F01DFA0E9815F01AFAFF
:10F6E00000BFFFF751B900002DE9F74FDEB05E987B
:10F6F0005D9060980AF03EFC804600EBD8704FEABF
:10F70000600A60980AF0AEFB074600EBD770401025
:10F71000824507DA60980AF02DFC064606EBD670A3
:10F72000401006E060980AF09DFB054605EBD57099
:10F73000401000B25B90609801885B98084400B26A
:10F74000ADF87001609841885B98084400B2ADF84C
:10F75000720158A80EF0EEF958AA4FF4C0215E9835
:10F7600019F0C4FA9DF8690120F0100010308DF8EE
:10F77000690150A80EF092F950AA4FF4C0215E988A
:10F7800019F04DFA2CA85F9916F0DEFFFE482D9077
:10F790004FF4C020399003202E9058A832905D98E5
:10F7A0002430F4F7ABFF044641E23D94A18B5B9813
:10F7B000084406B2A088301A00B22B90A089301AF3
:10F7C0000FFA80FABDF870112B98081A00B2ADF844
:10F7D000A400BDF872112B98081A00B2ADF8A6006B
:10F7E000BDF870112B98084400B2ADF8A800BDF820
:10F7F00072112B98084400B2ADF8AA00012347F615
:10F80000FF7229A94AA80FF03FF8BDF87001A0EBDC
:10F810000A0000B2ADF89C00BDF87201A0EB0A002E
:10F8200000B2ADF89E00BDF870015044401E00B219
:10F83000ADF8A000BDF872015044401E00B2ADF812
:10F84000A200012347F6FF7227A944A80FF01CF875
:10F85000BDF87001801B00B2ADF89400BDF87201D4
:10F86000801B00B2ADF89600BDF870013044401E18
:10F8700000B2ADF89800BDF872013044401E00B2ED
:10F88000ADF89A00002347F6FF7225A93EA80EF0B6
:10F89000FBFF00213EA80EF079F924904FF0FF30D5
:10F8A0002390608910B16089401E01E04FF6FF701F
:10F8B00022904FF00009A4E12298401C22900020E1
:10F8C000219061892298814203D100202290012059
:10F8D0002190A06900906088421E0021484663691B
:10F8E00015F04EF807463C97219810B120892090DA
:10F8F00001E02068209020981F90219808B1E089AD
:10F9000000E0E0880FFA80F8CDF87880DDF87880A4
:10F910005D983030F4F7F2FE05465FE02879022862
:10F9200000D055E0A868B84251DCE868B8424EDB28
:10F93000288A40440FFA80F8698AA88A814202D155
:10F94000688A209043E0A87D00F0010050B1FF20BC
:10F95000009000233846D5E9021215F011F8C0B224
:10F96000139009E0FF20009000233846D4E90512E7
:10F9700015F006F8C0B21390A98A1191698A129104
:10F98000139800F1040C4FEAEC00BDF848C04CEAB3
:10F990000C4CDFF8F8E10CEA0E01BDF844C04CEA6B
:10F9A0000C4C0CEA0E03A3EB010C0CFB00FC01EB6E
:10F9B0005C1C0CEA0E0242EA124C1FFA8CFCCDF8D9
:10F9C00040C0BDF840E0F446CDF880C000BF00BFA5
:10F9D00029465D983030F4F78BFE0546002D9DD109
:10F9E000E08B00FB09F001026088401E91FBF0F003
:10F9F0001D901D9800121C901C98401C1B901D9877
:10FA000000F0FF0B228C1C99114408B21FF016F86D
:10FA10001A90228C1B99114408B21FF00FF819900C
:10FA2000CBF580711A984143199800FB0B10001216
:10FA30001890228C1C99114408B21EF0F7FF179001
:10FA4000228C1B99114408B21EF0F0FF1690CBF5E2
:10FA5000807117984143169800FB0B100012159007
:10FA6000BDF88000ADF86001ADF86281BDF870218D
:10FA700006EB0801159848437F3002EBE03000B2F6
:10FA8000ADF85000BDF8722106EB08011898484304
:10FA90007F3002EBE03000B2ADF8520014A8359090
:10FAA0005CA83590CDF8E89050A8319021980028B6
:10FAB0007CD024980EF0D0FFB4F91000AAEB00001F
:10FAC0001390BDF870211399159848437F3002EBCD
:10FAD000E03000B2ADF84800BDF8722113991898D3
:10FAE00048437F3002EBE03000B2ADF84A002022FC
:10FAF00050A90AA815F0AFF80AA831903B4624A2F5
:10FB0000102106A81CF028FB06A837902CAA1A2161
:10FB10005E9810F06FFD002141F6FF72BDF95201B1
:10FB2000CDE901210090BDF9543105A8509A3799CB
:10FB30001FF072F8BDF9140000EBD071BDF8482039
:10FB4000A2EB610109B2ADF80C10BDF9160000EB93
:10FB5000D071BDF84A20A2EB610109B2ADF80E10D8
:10FB6000BDF80C00BDF81410084400B2ADF8100048
:10FB7000BDF80E00BDF81610084400B2ADF8120032
:10FB80000020009003AA06E040BB03081FF8E0072E
:10FB9000256400000AE0379B31995F980DF0CAFB9D
:10FBA00000213EA80DF0F2FF249007E000203190E4
:10FBB00037902CAA1A215E9810F01CFD219909B1EA
:10FBC00044A900E04AA9084600210DF0DFFF239078
:10FBD0005CAB14AA58A95F980DF095FF23980EF01E
:10FBE0003BFF2CAA16215E9810F004FDBDF87C00A6
:10FBF000ADF860011E98ADF8620109F1010000F056
:10FC0000FF09608848453FF757AE4AA80EF0A0FAB2
:10FC100044A80EF09DFA3EA80EF09AFA24980EF031
:10FC20001BFF21465D982430F4F762FD0446002C4A
:10FC30007FF4BBAD61B0BDE8F08F00002DE9F04F5F
:10FC4000B1B005468B4690462E464146284603F005
:10FC500025F904462089C0F30E00012802DC31B0EA
:10FC6000BDE8F08F2089C0F3C03020B9208810B9DA
:10FC7000608800B9F3E70021284618F03EFA824672
:10FC80000021284618F01FF8504400B22E90284654
:10FC900017F045F8B6F884104843001200B22D90D2
:10FCA00025A80DF0FBFE25AA4FF4C021284618F028
:10FCB000B6FF284617F09EF90146AA8A2E981044EE
:10FCC000401A00B22490B8F1020F0ED12089C0F37F
:10FCD000C03028B14FF4C021284618F031F900E0B7
:10FCE00000202390B5F91A900DE02089C0F3C030B0
:10FCF00028B14FF4C021284618F06BFB00E000202B
:10FD00002390B5F91690B8F1020F16D1DBF8080070
:10FD1000B0F90600484500DAA1E723984844259940
:10FD2000B1F908100844B4F900100844DBF80810D1
:10FD3000B1F90210884200DA91E720A80DF0FAFE2E
:10FD400020AA4FF4C021284618F0D0FF0020ADF8BB
:10FD50008600ADF8840059460EA816F0F5FCA648BA
:10FD60000F900620109002201C904FF4C0201B9092
:10FD700025A8139020A81490B8F1020F01D00120FB
:10FD800000E000200D9096F8880000F0070002289F
:10FD900022D10021284618F062F9B6F884104843B1
:10FDA0004FEA202A2D985044B6F8821090FBF1F0CB
:10FDB00000B20B900B99A1EB0A0000EBD0714A1036
:10FDC0002499114409B224910B98A0EB0A012D98B3
:10FDD000401A00B22D9000BFADF8C2902089C0F348
:10FDE0000E00401E6168C1F30E4148430C9000278D
:10FDF000FBE000200B906068C0F30E40B7FBF0F111
:10FE000000FB117008B901200B90BDF982102D98EC
:10FE1000401A78430C99B0FBF1F12498084400B2E1
:10FE2000ADF8C000ADF8BC000D9868B1BDF9C210C6
:10FE30000B9810B1B4F9000001E0B4F90200081AFF
:10FE400000B2ADF8BE000CE0BDF9C2100B9810B1C5
:10FE5000B4F9000001E0B4F90200084400B2ADF8C2
:10FE6000BE0030A817902FA8189096F8880000F0D0
:10FE70000700032810D106F178000D9930F9110020
:10FE8000009006F1740030F91130002138460C9AC8
:10FE900014F076FD824604E06068C0F30E40B7FBC4
:10FEA000F0FACDF878A00B98002871D02089C0F323
:10FEB000C03000286CD0534650A2102107A81CF077
:10FEC0004BF925A8139007A8199010201A900EAA94
:10FED0001A21284610F08EFB002141F6FF72BDF971
:10FEE000A600CDE901210090BDF9A83006A8259A09
:10FEF00019991EF091FEBDF9180000EBD071BDF804
:10FF0000BC20A2EB610109B2ADF81010BDF91800D8
:10FF100000EBD071BDF8BC2002EB610109B2ADF875
:10FF200014100D9878B1BDF8BE102398081A00B2CD
:10FF3000ADF81600BDF81600BDF81A10401A00B250
:10FF4000ADF812000EE0BDF8BE102398084400B2D0
:10FF5000ADF81200BDF81200BDF81A10084400B246
:10FF6000ADF81600BDF91400B5F9141088420DDB88
:10FF7000BDF91010B5F91800814207DC002000908F
:10FF800004AA25A95846199B0DF0D4F909E0FFE70A
:10FF90000020139019901A900EAA1A21284610F0EA
:10FFA00029FBBDF9821001EBD172BDF9C03003EB22
:10FFB0006202B5F914309A4211DBBDF9820000EB00
:10FFC000D072BDF9BC30A3EB6203B5F9182093429F
:10FFD00005DC2FAB30AA20A958460DF094FD0EAADF
:10FFE0001B21284610F006FB7F1C0C9887427FF6E9
:10FFF00000AF00BF33E6000008B603082564000028
:020000040801F1
:100000002DE9F74FB2B005461646319531462846E0
:1000100002F044FF04462089C0F30E00012802DCF0
:1000200035B0BDE8F08F2089C0F3C03020B92088FA
:1000300010B9608800B9F3E70EB1012000E000209C
:1000400083460021284617F03EFE2E9000212846C8
:1000500018F0BFF92D90284616F042FE3199B1F8FC
:1000600086104843001200B22C90284617F0BCF8C6
:100070000146EA8A2D9802442E981044401A00B294
:100080002B904EB94FF4C021284618F036F8074699
:10009000B5F914002A9008E04FF4C021284618F062
:1000A000D5F80746B5F918002A90B4F90000299050
:1000B000B4F902002890012E07D12998404200B2DD
:1000C00029902898404200B2289025A80DF032FDD2
:1000D00025AA4FF4C021284618F008FE1DA80DF0EF
:1000E000DDFC1DAA4FF4C021284618F098FD0BA88E
:1000F000339916F029FB89480C9006200D9019962B
:100100000004189025A811901DA810902089C0F314
:100110000E00401E6168C1F30E4100FB01F94FF073
:100120000008F6E0BDF996102C98401A00FB08F084
:10013000B0FBF9F12B98084400B2ADF8C200ADF85D
:10014000BE002A98ADF8C00036B9BDF8C000401E08
:1001500000B2ADF8C00005E0BDF8C000401C00B220
:10016000ADF8C00000200A906068C0F30E40B8FBF4
:10017000F0F100FB118008B901200A900A9838B10B
:10018000BDF8C0102998081A00B2ADF8BC0006E00E
:10019000BDF8C0102898081A00B2ADF8BC0030A80D
:1001A00014902FA815903198703030F91B000090F2
:1001B00031996C3131F91B30A9EB08004A46002116
:1001C00014F0DEFB8246CDF86CA00A98002872D0AD
:1001D0002089C0F3C03000286DD0534650A21021B2
:1001E00006A81BF0B9FF1DA8109006A816901020B5
:1001F00017900BAA1A21284610F0FCF9002141F6AD
:10020000FF72BDF98600CDE901210090BDF988306B
:1002100005A81D9A16991EF0FFFCBDF9160000EB0B
:10022000D071BDF8BE20A2EB610109B2ADF80E108D
:10023000BDF9160000EBD071BDF8BE2002EB6101E4
:1002400009B2ADF81210BBF1000F0FD1BDF8BC0020
:10025000BDF81410401AC01B00B2ADF80C00BDF878
:10026000BC00C01B00B2ADF810000EE0BDF8BC0031
:10027000384400B2ADF80C00BDF8BC00BDF8141055
:100280000844384400B2ADF81000BDF91210B5F9B9
:10029000160081420DDBBDF90E10B5F91A0081423E
:1002A00007DC0020009003AA1DA9169B33980DF0CF
:1002B00041F809E0FFE700201090169017900BAA74
:1002C0001A21284610F096F9BDF9961001EBD1726B
:1002D000BDF9C23003EB6203B5F91620934211DB7E
:1002E000BDF9960000EBD072BDF9BE30A3EB6203FE
:1002F000B5F91A20934205DC2FAB30AA25A9339813
:100300000DF001FC0BAA1B21284610F073F908F12F
:100310000108C8457FF606AF00BF81E608B60308AE
:10032000256400002DE9FE4F06460C461746984608
:100330002021304618F060FB00287DD00C9803285F
:1003400003D1304616F03CFF02E0304616F042FF83
:10035000814612F0D9FB05464FF0000A00200290BA
:100360000C98032843D10021304617F09FFE8346A6
:100370000021304617F043FF0190B9F1010F23D05F
:10038000B9F1020F28D0B9F1030F2ED106F11400F4
:1003900009F0A3FDA0EB0B010198081A009000EBF7
:1003A000D0700BEB6000B18A08440FFA80FA05F1B7
:1003B000140009F092FD009000EBD070A98A01EBC7
:1003C000600000B2029010E0B08A58440FFA80FA40
:1003D000B5F91400029008E0318B0198081A0FFA61
:1003E00080FAB5F91800029000BF00BF45E0002177
:1003F000304617F0C7FF83460021304617F079FDDD
:100400000190B9F1010F25D0B9F1020F2AD0B9F14D
:10041000030F30D106F1140009F0ECFCA0EB0B0146
:100420000198081A009000EBD0700BEB6001F08A85
:1004300008440FFA80FA00E054E005F1140009F0D6
:10044000D9FC009000EBD0704110E88A084400B25B
:10045000029010E0F08A58440FFA80FAB5F91600BD
:10046000029008E0718B0198081A0FFA80FAB5F92A
:100470001A00029000BF00BF00BFB8F1000F17DAEA
:10048000B9F1000F05D00298504502DD2046BDE8C5
:10049000FE8F002C01DAA01E04B2002C01DDA01C8E
:1004A00004B22146E01704EB9070801000B2EEE732
:1004B000002F16DAB9F1000F04D00298504501DA86
:1004C0002046E4E7002C01DAA01E04B2002C01DD76
:1004D000A01C04B22246E01704EB9070801000B21A
:1004E000D5E709E008EB0400002802DAC8F10000B3
:1004F00004B2381B00D53C462046C8E710B5044678
:10050000207EC0F3800008B1002010BD207A23288F
:1005100002D0242803D100E000BF0120F5E700BF8E
:1005200000BF4FF48041606818F066FA08B90020F7
:10053000EBE7207A11381C2823D2DFE800F00E0FF9
:1005400010111213141516171822221922221A1D1F
:100550001B1C222222221E1F222000BF00BF00BF20
:1005600000BF00BF00BF00BF00BF00BF00BF00BF93
:1005700000BF00BF00BF00BF00BF00BF00BF002022
:10058000C3E70120C1E72DE9F041044612F0A8FAC3
:1005900007469FB13868806818B1217A3868826848
:1005A0009047207EC0F3400010B10120BDE8F081EB
:1005B000207E00F0010008B10020F7E701260EB907
:1005C000002003E00021606816F000FC05464FF0B3
:1005D000000827E02868F0B1287A00F08000802821
:1005E00019D1287A802805D0287A20F08000217A35
:1005F000884210D16868E060204629688847207EDC
:10060000C0F3400008B10120D0E7207E00F00100D7
:1006100008B10020CAE708F101084146606816F0F9
:10062000D5FB05460DB1012ED4D02146002016F091
:10063000B1FA06460EB9002003E00021606816F00A
:10064000C5FB05464FF0000823E02868D0B1287AA2
:1006500000F08000B0B9287A18B1287A217A88424F
:1006600010D16868E060204629688847207EC0F382
:10067000400008B1012099E7207E00F0010008B198
:10068000002093E708F101084146606816F09EFBE0
:1006900005460DB1012ED8D0012E11D160684068F9
:1006A00070B12046FFF72AFF50B160684068606073
:1006B0002046FFF768FF0646012E01D0002075E7AF
:1006C000304673E72DE9F0438046DDE9074521B95F
:1006D0002A7022701A70BDE8F0834FEA282000F0DB
:1006E0000209B9F1000F04D000BF99462B464D46D0
:1006F00000BF00F00409B9F1000F04D000BFA1460B
:100700002C464D4600BF00F00609B9F1000F09D193
:1007100000F00109B9F1000F0ED100BF9946234640
:100720004C4609E000F00109B9F1000F04D000BF08
:10073000994623464C4600BF22706FEA010909F032
:10074000FF0602FB06F74FEA272985F8009008F01C
:10075000FF0C00F00109B9F1000F0DD1BCF1000F41
:1007600002D14FEA012905E0CCF1000909F0FF09A7
:1007700009FB01F94F4601E001FB0CF73E126FEA5D
:10078000060909F0FF0602FB06F74FEA272983F85E
:10079000009000BF9FE700002DE9FF4F87B005469E
:1007A0008B469146DDE914A6584609F0C0FB069039
:1007B000584609F03BFB05901798012804D0022801
:1007C00004D0032806D103E0494F08E0494F06E072
:1007D000494F04E000BF00BF0BB0BDE8F08F00BF81
:1007E0008EBB2888049028885246014602900A98B9
:1007F000B84703904FF0000821E0002418E0BDF84E
:10080000100035F8141088420CD005EB4400008825
:10081000049005EB440000885246014602900A9875
:10082000B847039005EB4400BDF80C100180641C30
:1008300006988442E3DB05EB490508F101080598B9
:100840008045DADB51E0FFE7002002902888049021
:100850003078FD2801DB504603E0307800FB0AF0D9
:10086000000A0190019A04990A98B84703904FF042
:10087000000836E000242BE0305D00B927E0315D50
:100880000298814205D1BDF8100035F81410884255
:1008900017D0305DFD2801DB504603E0305D00FBE2
:1008A0000AF0000A019005EB440000880090014620
:1008B000019A0A98B8470390305D029035F8140009
:1008C000049005EB4400BDF80C10018000BF641CCF
:1008D00006988442D0DB05EB49051698064408F1DA
:1008E000010805988045C5DB00BF00BF74E7000024
:1008F000A5770008D1780008477800082DE9FF4F58
:1009000089B004469246DDE91685F4F70BFA0890A3
:100910000A9809F00CFB81460A9809F087FA834689
:10092000002D78D1B8F1FD0F0CDB002707E04A4617
:1009300020460C990BF08AFA04EB4A047F1C5F45B1
:10094000F5DB7DE100BF0020014602464FEAD20CF4
:10095000BDF804306CF304034FEA910C0193BDF829
:1009600004306CF34A134FEAD00C0193BDF8043005
:100970006CF3CF230193BDF804C063460293BDF826
:10098000081008460790424607990C980BF0F4FBB4
:1009900006900C9904A80291BDF80810C90A01FB41
:1009A00008F10180BDF80810C1F3451101FB08F101
:1009B0004180BDF8081001F01F0101FB08F18180A2
:1009C00000BFC8F1FF000390002720E0002619E0D7
:1009D000BDF81C0034F8161088420DD004EB460018
:1009E0000088079004EB460000880290014604A8A6
:1009F000039A0BF049FC069004EB4600BDF8181072
:100A00000180761C4E45E3DB04EB4A047F1C5F4506
:100A1000DCDB15E1FFE7BDF8300000EB004007909C
:100A2000B8F1FD0F6FDBA9F1040006900027B4E0D8
:100A3000002614E02878FF2803D1BDF8300020807C
:100A40000AE02A782088014604900C980BF094FB69
:100A50000590BDF8140020806D1CA41C761C4E452A
:100A600003DA05F003000028E4D172E0286805905D
:100A70000598401CA8B904F0030048B1BDF8301037
:100A80002180A01C07990160BDF83010E18005E0CD
:100A90002046079901600799416000BF08342D1D69
:100AA00056E00598002851D02878FF2803D1BDF8DA
:100AB000300020800AE02A782088014603900C98B4
:100AC0000BF05AFB0490BDF8100020806D1CA41C94
:100AD0002878FF2803D1BDF8300020800AE02A786A
:100AE0002088014603900C980BF046FB0490BDF85B
:100AF000100020806D1CA41C2878FF2804D1BDF8AC
:100B0000300020800BE04CE02A78208801460390DA
:100B10000C980BF031FB0490BDF8100020806D1C88
:100B2000A41C2878FF2803D1BDF8300020800AE0FB
:100B30002A782088014603900C980BF01DFB049046
:100B4000BDF8100020806D1CA41C01E02D1D083490
:100B5000361D0698864289DD14E02878FF2803D1E7
:100B6000BDF8300020800AE02A78208801460490F1
:100B70000C980BF001FB0590BDF8140020806D1C53
:100B8000A41C761C4E45E8DBAAEB090004EB4004EC
:100B90001898A0EB090005447F1C5F45FFF648AF9D
:100BA0004DE00020049020880690208805900020C9
:100BB0000390002740E0002635E0287888B32978A4
:100BC0000498814209D02878FF2801D1404603E0EB
:100BD000287800FB08F0000A0390297804988142E5
:100BE00005D1BDF8180034F81610884214D00398C7
:100BF000FF2802D10C98059009E004EB460000881C
:100C000002900146039A0C980BF0B6FA05902878EA
:100C1000049034F81600069004EB4600BDF814105A
:100C200001806D1C761C4E45C7DB04EB4A04189806
:100C3000A0EB090005447F1C5F45BCDB00BF00BF83
:100C40000DB0BDE8F08F2DE9FF4F85B081460C4611
:100C5000DDE912A7F4F766F8804607BBB4F9026035
:100C600018E0B4F9005010E0CDF808A0BDF820005D
:100C7000ADF8040030B20090D8F800002BB2D0F8E4
:100C80001CC04946079AE0476D1CB4F90400A8420D
:100C9000EADA761CB4F90600B042E2DA2EE0204629
:100CA00009F045F98346204609F0C0F80490002673
:100CB00020E0002519E0785DB0B1785D00FB0AF016
:100CC000000A0290BDF82000ADF8040060883044AE
:100CD00000B20090218829440BB2D8F80000D0F867
:100CE0001CC04946079AE0476D1C5D45E3DB14983C
:100CF0000744761C04988642DBDB00BF09B0BDE8E0
:100D0000F08F10B502460B4610681C68A04201D156
:100D1000012010BD0020FCE710B502460B465068CC
:100D200020F040401C68A04203D2506820F04040B0
:100D30001860002010BD2DE9F04F89B00446002056
:100D40000890079011F0CCFE069006980068057E8A
:100D5000D4F820800027B946B4F91400002802DD39
:100D6000B4F9140002E0B4F914004042B4F91610CA
:100D7000002902DDB4F9161002E0B4F91610494258
:100D8000884201DD012701E04FF00109CAE010218E
:100D9000404617F031FEB0B94FF48071404617F06D
:100DA0002BFE08B907B1C1E04FF40071404617F0BF
:100DB00023FE18B9B9F1000F00D0B7E0404616F095
:100DC00073F88046AEE0CA46CDF814900497BB464F
:100DD000404616F0E1F8064606F0010008B900208A
:100DE000049006F0020008B94FF0000B06F0040072
:100DF00008B94FF0000A06F0080008B90020059075
:100E0000404616F0F1F90390404616F065F802905E
:100E1000404616F0EFF80190404616F063F9009056
:100E20000398002802DC0298002811DDBAF1000FB7
:100E300003D0B4F91600A84206DA059840B1B4F917
:100E400016006942884203DCCDF820800C20079010
:100E50000198002802DC0098002811DD049818B1E0
:100E6000B4F91400A84207DABBF1000F08D0B4F9B6
:100E700014006942884203DCCDF8208003200790EB
:100E80000398002801DC4FF0000A0298002801DCDA
:100E9000002005900198002801DC002004900098B3
:100EA000002801DC4FF0000B049818B1B4F91400CD
:100EB000A84215DABBF1000F04D0B4F9140069425E
:100EC00088420DDDBAF1000F03D0B4F91600A84234
:100ED00006DA059878B1B4F91600694288420ADC4E
:100EE0000FB1032000E00C2094F83C1060F30301E4
:100EF00084F83C101AE04FF48071404617F07CFDF6
:100F000008B907B112E04FF40071404617F074FDC4
:100F100018B9B9F1000F00D008E0404615F0C4FF41
:100F2000804600BFB8F1000F7FF431AF00BF0898D2
:100F300058B194F83C10079860F3030184F83C1012
:100F40000898A0620021A182E182089809B0BDE85A
:100F5000F08F00002DE9FF4F83B00446204616F0C5
:100F60002FF90290029818B9002007B0BDE8F08F61
:100F700041F6FF750021204617F098F8074600213A
:100F8000204617F03CF98246204615F046FE83467F
:100F90004FF000086AE0A068006850F828603949FE
:100FA000304617F034FD00B15EE04FF4805130461A
:100FB00017F022FD002856D04FF0000900200190C4
:100FC0000298012804D0022809D003282CD10EE071
:100FD000B6F91490A08A384400B2019025E0B6F921
:100FE0001890208BA0EB0A0000B201901DE006F1E2
:100FF000140008F072FF009000EBD070B18A01EB92
:1010000060000FFA80F904F1140008F066FFC01BBD
:10101000A0EB0A00009000EBD070A18A394401EBEC
:10102000600000B2019000E01EE000BF0698484456
:101030000FFA80F90498814514DB0598814511DC8D
:101040000199A9EB010108B2002801DD014600E089
:101050004142002D01DD2A4600E06A42914200DA59
:10106000054600BF00BF00BF08F10108D84592D374
:1010700041F6FF70854201D1002000E0684200B2D5
:1010800073E70000010004002DE9FF4F83B0044620
:10109000204616F09FF80290029818B9002007B079
:1010A000BDE8F08F41F6FF750021204617F06AF980
:1010B00007460021204616F01CFF8246204615F008
:1010C000ACFD83464FF000086AE0A068006850F865
:1010D00028603949304617F09AFC00B15EE04FF4C1
:1010E0008051304617F088FC002856D04FF0000998
:1010F000002001900298012804D0022809D003287A
:101100002CD10EE0B6F91690E08A384400B2019076
:1011100025E0B6F91A90608BA0EB0A0000B20190AE
:101120001DE006F1140008F065FE009000EBD070A1
:101130004110F08A08440FFA80F904F1140008F015
:1011400059FEC01BA0EB0A00009000EBD0704110CC
:10115000E08A3844084400B2019000E01EE000BF7D
:10116000069848440FFA80F90498814514DB0598E5
:10117000814511DC0199A9EB010108B2002801DDCC
:10118000014600E04142002D01DD2A4600E06A42AE
:10119000914200DA054600BF00BF00BF08F1010818
:1011A000D84592D341F6FF70854201D1002000E07E
:1011B000684200B273E70000010004002DE9FF4F10
:1011C00087B00E469046DDE914940021079817F089
:1011D00068FB06900021079816F0D5FD0590F07881
:1011E000C0F34000A8B1F07800F0010020B142F255
:1011F000D1710698884208D0F07800F0010040B91B
:1012000042F2D1710598884203D1F07820F00200B3
:10121000F070F07800F0010008B1964800E09648C0
:101220000490F07800F0010008B9924800E092487C
:10123000824600206080A08020612080A060E06065
:10124000CDF80C800399079815F0C9FC0546E0E03D
:101250000398404506D04FF40001284617F0CCFB18
:1012600000B1D9E08549284617F0D1FB00287CD190
:101270000021284616F06AFD02900298002875D0D9
:101280002069401C2061A088484400B2A080207DD5
:1012900000F0010000286AD0216901EB810188007B
:1012A00013F0BCFB074600BF1FB900BF00BF00BF63
:1012B000FEE700BF1FB903980BB0BDE8F08FE068F0
:1012C00058B12069401E00EB800082003846E1687A
:1012D00013F0C1FCE06813F01DFC2069401E00EB18
:1012E000800047F82050F07800F0010058B14FF02E
:1012F000000B41F202025946284617F0F9F8019016
:10130000019800B20BE04FF0000B41F20502594684
:10131000284617F0EDF80190019800B200BF21694E
:10132000491E01EB810107EB81018880F07800F014
:10133000010058B14FF0000B41F203025946284614
:1013400017F0D6F80190019800B20BE04FF0000BB7
:1013500041F206025946284617F0CAF80190019852
:1013600000B200BF2169491E02E03EE017E02CE018
:1013700001EB810107EB8101C88002982169491EB8
:1013800001EB810107EB8101C86000212069401E4B
:1013900000EB800007EB80000161E76015E0284664
:1013A000049988470746F078C0F3400030B1B4F99B
:1013B0000400C1190A98814200DD2DE0A08807EBE6
:1013C0000901084400B2A08000BF2846D047B4F904
:1013D0000010884202DD2846D04701E0B4F9000041
:1013E0002080A068401CA06000BFF078C0F380009F
:1013F00010B14FF0FF3000E0012003990844039042
:101400000398002800DA07E00399079815F0E7FB36
:101410000546002D7FF41CAF00BFB4F9040000287E
:1014200004DDA088A0EB090000B2A080206908B10B
:101430000A9801E0B4F904006080CDB103984045FA
:1014400016D1079880680068039950F82150F07809
:10145000C0F3800103AA079801F00FFA45B12846AE
:10146000D047208028460499884760800120A060EA
:10147000039821E73F890208096E0208010006006F
:101480002DE9F04F97B0044600BF00BF4FF0000BAE
:10149000DE4802885946204617F02AF80A900A9832
:1014A000C6B200BFF0439DF85B1060F300018DF8F9
:1014B0005B10B0089DF85B1060F341018DF85B1084
:1014C000F0089DF85B1060F382018DF85B1000BF9F
:1014D000CF4802885946204617F00AF80A900A9821
:1014E000C0B28DF8580000BFCA480288594620464D
:1014F00016F0FEFF0A900A98C0B28DF8590000BF9E
:10150000C54802885946204616F0F2FF0A900A980C
:10151000C0B28DF85A000021204616F046FB012883
:1015200000D100E0002015909DF85B0000F0010064
:1015300020B90021204616F078FD03E00021204666
:1015400016F0F9FE14909DF85B0000F0010020B148
:101550000021204616F069FD03E00021204616F028
:10156000EAFE13909DF85B0000F0010018B12046E0
:1015700015F0D5FB02E0204615F0B2FB12904FF0BB
:10158000000B41F232025946204616F0B1FF0A9094
:101590000A9800B2119000BF41F610025946204649
:1015A00016F0A6FF0A900A98E18A0144119801EB0F
:1015B000000B204615F02CFEABEB000000B21090A3
:1015C0004FF0000B41F612025946204616F090FFEC
:1015D0000A900A98A18A0144119801EB000B204659
:1015E00015F00CFEABEB000000B20F909DF85A70A6
:1015F0009DF85B0000F0010008B110A800E00FA802
:1016000005460021204617F04CF90E900021204697
:1016100016F0B9FB0D909DF85B0000F0010040B1A1
:1016200042F2D1710D98884203D1608CC0F3402002
:1016300068B19DF85B0000F0010048B942F2D17139
:101640000E98884204D1608CC0F3802000B9002736
:10165000159850B19DF85B0000F0010028B90FB952
:10166000012702E0012F00D100274FF000080020E1
:101670000C900B90002F49D09DF85B00C0F38000C8
:1016800018B1A0684068401E00E00020814617E0C5
:1016900000200A9005A91398CDE900014A4616A931
:1016A0002046129BFFF78AFD8246BDF8141014985D
:1016B000084440440FFA80F80B98401C0B90D14628
:1016C000A0684068484502DDB9F1000FE0DA0B98E8
:1016D00020B11498A8EB00000FFA80F89DF85B0089
:1016E00000F0010018B1204615F0FAFA02E0204699
:1016F00015F015FB83460CA8CDE900500B9803B2FA
:101700004246594638461EF00AFB00BF9DF85B0072
:10171000C0F3800018B1A0684068401E00E00020BF
:101720008146159840B19DF85B0000F0010018B9A2
:101730002888404400B228804DE001200A9005A985
:101740001398CDE900014A4616A92046129BFFF7DF
:1017500035FD8246159850B19DF85B0000F0010000
:1017600028B92888BDF81410401A00B2288005AAAC
:10177000BDF94030DDE91210CDE90131CDE90302B8
:10178000BDF93C0053464A4616A900902046F5F79D
:101790008FFBD146089813F0BDF9002008901598EA
:1017A00068B19DF85B0000F0010040B92988BDF8E0
:1017B000302014981044081A00B228800AE02988C2
:1017C000BDF81400BDF830200244149810440844B9
:1017D00000B2288000BFA0684068484502DDB9F12A
:1017E000000FAADA42F2D1710E98884202D00D9809
:1017F000884202D1204618F076F800222B2120469C
:101800000EF0F8FE17B0BDE8F08F00006801002070
:101810006A0100206C0100206E0100202DE9FC5FB0
:10182000044689469246207E00F0010008B1BDE8DA
:10183000FC9FE56800264FF0010B0120019000BFDE
:1018400085B9207EC0F3C00000B956B9019800B92F
:10185000EDE72046C84705464FF0000B00200190F9
:1018600000E0E4E716B92E4606B9E0E7BBF1000F49
:1018700006D029462046D0470546B54200D1D6E7D6
:101880004FF0010B05B9DBE7286816F021F900F0ED
:10189000800000B1D4E72F6809E00121384617F035
:1018A000ABF800B105E0384615F0FEFA0746002F08
:1018B000F3D100BF2FB10121384617F09DF800B1D8
:1018C000BEE700BF00BFE068A84200D1AFE7E06814
:1018D00090B1204600F007FD0090E16808680F21F4
:1018E000009A0EF087FE0746012F00D09FE7E168BF
:1018F000086817F01EFC00BFE560204600F0F3FC0E
:101900000746E1683A4608680E210EF073FE8046ED
:10191000B8F1010F00D08AE7E168086817F009FC08
:10192000206910B120462169884700BF7FE7000089
:1019300000BF054A126802F04002002AF9D0C2B284
:10194000014B1B1D1A607047003801402DE9F04122
:101950000446204600F010FB054611480068001BB5
:10196000461B0F480068401B0D490860B6B127466A
:1019700061193246204613F06EF906E0A068401B5C
:10198000A060204600F0F8FA04440548006884424C
:10199000F4D1B819294613F0ECFA00BFBDE8F08184
:1019A0005401002000B587B000BF00BF45488069E2
:1019B00040F08000434988610846806900F080005B
:1019C000019000BF00BF00BF00BF00BF0846806994
:1019D00040F0800088610846806900F08000019036
:1019E00000BF00BF00BFC814039001200490059001
:1019F0000320069003A93448F0F7C8F84FF480603C
:101A0000039000200490012005900320069003A974
:101A10002D48F0F7BBF8F6F765F800BF00224FF449
:101A200000612948F0F764FA00BF1420F6F73AFB8A
:101A300000BF0122D1022448F0F75AFA00BF322039
:101A4000F6F730FB00208DF80800012202A900F013
:101A50003FF9012202A9A42000F03AF916208DF8DE
:101A60000800012202A9802000F032F90C208DF834
:101A70000800012202A9882000F02AF9022202A906
:101A8000A12000F029F89DF80800302803D19DF826
:101A90000900032807D09DF80900012803D09DF80C
:101AA000090002280BD19DF809009DF8082000EBE1
:101AB000022106A0EEF7A4FC002007B000BD012023
:101AC000FBE7000000100240001C0140435450207E
:101AD00049443A25780D0A002DE9F04106460F46A3
:101AE0001546F6F7C9F87020F6F78EF8F6F710F9F4
:101AF000F0B2F6F789F8F6F70BF9F6F7BDF87120B2
:101B0000F6F782F8F6F704F900240BE0691EA1420B
:101B100001D0012100E000210846F6F743F83855CE
:101B2000601CC4B2AC42F1DBF6F7D0F8BDE8F0813E
:101B30002DE9FC4107460020019000240026604862
:101B40000078401C5E490870084600780A2190FB26
:101B5000F1F201FB120018B1594800780A2866DA40
:101B6000012201A90220FFF7B7FF9DF8040000F051
:101B70000F0000287ED09DF8040000F00F0006281A
:101B800078DA9DF8040000F00F014FF6FF708840EE
:101B900085B2E84380B240F440404A498886002438
:101BA0005AE04848808E0121A1400840F0B34649E0
:101BB00031F8140004226946FFF78EFF414890F87F
:101BC000440000F00100C0B19DF801009DF8001034
:101BD00001F00F0100EB01203A49203121F81400F7
:101BE0009DF803009DF8021001F00F0100EB0121A8
:101BF00034480C3020F814101EE09DF801009DF8C8
