:020000040800F2
:10000000E0280120550300083B2D0008332D00088F
:10001000372D00081D190008C1310008000000003C
:100020000000000000000000000000009502000831
:100030002119000800000000F10200083D2D000811
:1000400079030008790300087903000879030008A0
:100050007903000879030008790300087903000890
:100060007903000879030008790300087903000880
:100070007903000879030008790300087903000870
:100080007903000879030008790300087903000860
:100090007903000879030008790300087903000850
:1000A0007903000879030008790300087903000840
:1000B0007903000879030008790300087903000830
:1000C0007903000879030008790300087903000820
:1000D00079030008713100087903000879030008EA
:1000E0007903000879030008790300087903000800
:1000F00079030008790300087903000879030008F0
:1001000079030008790300087903000879030008DF
:100110007903000879030008652D000879030008B9
:1001200079030008790300087903000879030008BF
:1001300079030008790300087903000879030008AF
:10014000790300087903000879030008790300089F
:10015000790300087903000879030008790300088F
:10016000790300087903000879030008790300087F
:1001700079030008790300087903000800000000F3
:10018000790300087903000800F002F800F072F823
:100190000AA090E8000C82448344AAF10107DA45E2
:1001A00001D100F067F8AFF2090EBAE80F0013F0C2
:1001B000010F18BFFB1A43F00103184770690400D0
:1001C000906904000A444FF0000C10F8013B13F052
:1001D000070408BF10F8014B1D1108BF10F8015BA0
:1001E000641E05D010F8016B641E01F8016BF9D193
:1001F00013F0080F1EBF10F8014BAD1C0C1B09D1EA
:100200006D1E58BF01F801CBFAD505E014F8016B5B
:1002100001F8016B6D1EF9D59142D6D370470000ED
:100220000023002400250026103A28BF78C1FBD8FF
:10023000520728BF30C148BF0B607047662938F0AD
:100240006E87642900F06E81782900F0A7817329F8
:1002500000F03186002070471FB538F05BFF00F0DA
:1002600063FE04000020002138F006FCE0601FBDA2
:1002700010B510BD00F05CFF1146FFF7EDFF2FF049
:1002800061FF00F07AFF03B4FFF7F2FF03BC05F053
:1002900009F900002C4B19680868B0E8F04F80F3AA
:1002A0000988BFF36F8F4FF0000080F3118870470B
:1002B0000000000008480068006880F308884FF0DC
:1002C000000080F3148862B661B6BFF34F8FBFF3AE
:1002D0006F8F00DF00BF00BF08ED00E0DFF80C000B
:1002E000016841F470010160704700BF88ED00E0D3
:1002F000EFF30980BFF36F8F134B1A681EF0100FD6
:1003000008BF20ED108A20E9F04F106009B44FF0CB
:10031000500080F31188BFF34F8FBFF36F8F37F01A
:10032000FFFB4FF0000080F3118809BC19680868D2
:10033000B0E8F04F1EF0100F08BFB0EC108A80F349
:100340000988BFF36F8F704798000020EFF3058096
:10035000704700000C48016841F4700101600B48CF
:1003600080470B480047FEE7FEE7FEE7FEE7FEE7B3
:10037000FEE7FEE7FEE7FEE7FEE700000548064968
:10038000044A064B7047000088ED00E0512D00083C
:1003900089010008E0240120E0280120E024012058
:1003A000704753EA020C00F069802DE9F04B4FF0E2
:1003B0000006002B1FBFB3FA83F503FA05F424FAF5
:1003C00005F65E4012BF1643B2FA82F502FA05F452
:1003D000C5F120051EBF22FA05FC44EA0C042035B5
:1003E00056EA044C4FEA144418BF641C4FF000084E
:1003F0004FF00009904271EB030C39D3002919BF6B
:10040000B1FA81F701FA07F6B0FA80F700FA07F6B9
:10041000C7F120071EBF20FA07FC46EA0C0620376A
:10042000B6FBF4FCA7EB0507103F07F01F0BCBF161
:1004300020060CFA0BFB2CFA06F644BFB346002646
:10044000202FA4BF5E464FF0000B5BEA060C08BFEE
:100450004FF0010B19EB0B09ABFB027C48EB0608D4
:10046000C01B06FB02CC0BFB03CC71EB0C01C1E7FC
:100470000B46024641464846BDE8F08B13B54FF0A7
:1004800000004FF00001AFF30080BDE81C40704752
:100490000FB4044910B503AA029800F011FD10BC76
:1004A0005DF814FB140000200FB41CB5074B06AA1E
:1004B0007B4469460090059800F0D3FC0020694613
:1004C00000F0E2FC1CBC5DF814FB0000D509000044
:1004D00070B50C460546012A05D02878800600D55F
:1004E000EA69002302E0012305E05B1C934202D28B
:1004F000E05C0028F9D1A869E618C01AA861286A4A
:10050000184428622846AFF3008004E0D5E90121B1
:1005100014F8010B9047B442F8D32846AFF300809B
:1005200070BD00002DE9F0410646002410687529D1
:10053000314616A510D0AFF30080002802DA404201
:1005400013A507E031688A0701D512A502E0490723
:1005500004D511A5012401E0AFF3008000210A2297
:1005600006F1240709E0B0FBF2FCB0FBF2F302FB5A
:100570001C00303078541846491C0028F3D123461B
:100580002A463046BDE8F04100F0FEB90000000008
:100590002D0000002B0000002000000070B5044674
:1005A0000D4621461068AFF300802188090502D569
:1005B0000F4A7A4402E00E4A7A440E32002104F1D6
:1005C000240305E000F00F060009965D5E54491C07
:1005D0000028F7D120780023000704D5702D02D021
:1005E00009B1022311322046BDE8704000F0CCB9B9
:1005F0005E5F04002DE9F05F894604464FF0000A73
:10060000DFF824B1FB44C0F820A02046E168884709
:1006100000287DD0252806D0D4E901219047206A02
:10062000401C2062F1E700255F462046E1688847CC
:100630002028064607DB312E05D2B81910F8200C09
:1006400008B10543F1E7A80701D525F00405C4F872
:100650001CA00027C4F818A02A2E09D0304602F0AA
:1006600003FE38B304EB8708303EC8F8186019E081
:1006700059F8041B204604EB87029161E168884722
:10068000012F064618D1E069002820DA25F0200560
:100690001DE0D8F8180000EB800006EB4000303871
:1006A000C8F818002046E1688847064602F0DCFDDD
:1006B0000028EED1012F0AD02E2E08D12046E16865
:1006C00088477F1C0646022F45F02005C4DBA06941
:1006D000002803DA404245F00105A061E80701D097
:1006E00025F01005A6B1A6F14100192802D8203640
:1006F00045F400654A463146204625604D46FFF7E1
:100700009DFD60B1012807D0ED1D25F0070000E038
:1007100007E000F1080978E705F1040975E73046BC
:100720007AE7206ABDE8F09F345F040040EA0103E5
:10073000024630B59B0710D14FF0013400E008C2EB
:1007400008C91D1B9D4315EAC41FF8D013F0FF0113
:1007500002F8011B0DD01B0AF8E711F8013B002B32
:1007600002F8013B05D011F8013B002B02F8013BD8
:10077000F3D130BD10B5431C02E010F8011B71B17C
:100780008107FAD14FF0013202C88C1A8C4314EA67
:10079000C211F9D0C01A0A0603D0C01E10BDC01A7B
:1007A00010BD0A0401D0801E10BD0902FCD0401EFD
:1007B00010BD032A40F2308010F0030C00F01580C9
:1007C00011F8013BBCF1020F624498BF11F801CB54
:1007D00000F8013B38BF11F8013BA2F1040298BFB9
:1007E00000F801CB38BF00F8013B11F0030300F023
:1007F0002580083AC0F0088051F8043B083A51F8C7
:1008000004CBA0E80810F5E7121D5CBF51F8043BCB
:1008100040F8043BAFF30080D20724BF11F8013B3E
:1008200011F801CB48BF11F8012B24BF00F8013BA0
:1008300000F801CB48BF00F8012B704710B5203AF3
:10084000C0F00B80B1E81850203AA0E81850B1E889
:100850001850A0E81850BFF4F5AF5FEA027C24BF3F
:10086000B1E81850A0E8185044BF18C918C0BDE836
:1008700010405FEA827C24BF51F8043B40F8043BFF
:1008800008BF7047D20728BF31F8023B48BF11F8B4
:10089000012B28BF20F8023B48BF00F8012B70470E
:1008A00002F0FF0343EA032242EA024200F01CBBCB
:1008B0004FF0000200B5134694469646203922BFF9
:1008C000A0E80C50A0E80C50B1F12001BFF4F7AF44
:1008D000090728BFA0E80C5048BF0CC05DF804EB26
:1008E000890028BF40F8042B08BF704748BF20F894
:1008F000022B11F0804F18BF00F8012B7047000049
:100900004FF0013C50F8042B51F8043B9A4221D19E
:10091000A2EB0C03934313EACC1317D150F8042B2A
:1009200051F8043B9A4215D1A2EB0C03934313EA0E
:10093000CC130BD150F8042B51F8043B9A4209D147
:10094000A2EB0C03934313EACC13DBD04FF000006F
:10095000704700BFD01A01BAB1FA81F101F0180155
:1009600022FA01F0CB40C1F12001DBB2C0B2C01AC3
:100970002CFA01F3D11A914311EAC311E6D1704761
:1009800070477047704770472DE9F0470D4699460C
:100990009246044600F124080168880604D5E069FF
:1009A00021F01001216000E00120A84201DD471B79
:1009B00000E00027A1697A1902EB0900081AA0617A
:1009C0002078C00602D42046AFF30080002608E05D
:1009D000D4E901211AF806009047206A401C761CD1
:1009E00020624E45F4DB2078C0060AD52046AFF3DE
:1009F000008006E0D4E9012130209047206A401CA5
:100A00002062381EA7F10107F4DC07E0D4E90121D8
:100A100018F805009047206A401C2062281EA5F1A6
:100A20000105F3DC2046AFF300802078000602D5F4
:100A30000220BDE8F0870120FBE770472DE9FF4F5A
:100A40000C461E464FF0FF378BB0D2E90001DDF8AF
:100A500060800A908A46C1F30A5505B93D460021D7
:100A600008464FF00000BAF1000F00F4400005DA2C
:100A700000EB80004FF4400101EA50004FEA90592A
:100A8000B9F1010F00DDB9460A9850EA4A000ED0CC
:100A900044F61050A5F2FF3545432F14B8F1000F6E
:100AA0001ED07542291E1EDDC9F100021CE0B8F1FE
:100AB000010F4FF0000001D0302103E0F24305E0C8
:100AC0002154401CB042FBDB30460022002121545F
:100AD0000B99C1F80880C1E900200FB0BDE8F08F84
:100AE000BD1B6D1CDEE74A4600DA694206A800F02D
:100AF000A5FA06AB93E8070003AB83E8070050466E
:100B00000A9900F043FB8DE80700A0F500501F385C
:100B100000900398002D0ADD42F21F014A46084466
:100B2000002303A90390684600F0ACFD09E0A0F59E
:100B300000504A461F38002303A90390684600F07E
:100B4000B6FD8DE807000004000C03D04FF0FF3025
:100B5000410800E01046B8F1000F03D000220092D7
:100B600015461EE0751E05D400F0E2F930326255DC
:100B70006D1EF9D5B3460122084302D000227F1C26
:100B800004E02078302801D100227F1E002A099736
:100B900084D01DE0112D07DA00F0CAF93032625519
:100BA0006D1C50EA0102F5D1084302D00098C8B18B
:100BB0000EE00021681E05E0235C625C6354225451
:100BC000401E491C8142F7DBAB46A81B401E099022
:100BD000002004F80B000B98099AC0F80880C0E9BF
:100BE000002B7AE711264FF0000857E72DE9F04F68
:100BF00088460446D21D22F0070191B0D1E90001D8
:100C0000CDE90A0102F0DEFA02460B98C00F01D0CE
:100C10002D2007E02068810701D52B2002E020214C
:100C200001EAC000032A099001D0072A05DB034628
:100C30004146204600F0C2F90BE12078800601D53C
:100C4000E06900E00620B8F1650F814606D0B8F1F2
:100C5000660F18D0B8F1670F70D131E00020B9F1FC
:100C6000110F009001DB112301E009F101030AAA31
:100C700001A90CA8FFF7E2FEDDE90C70002609F1DE
:100C80000105834647E001204B4600904FF00047A6
:100C90000AAA01A90CA8FFF7D1FEDDE90DB00C9955
:100CA0005D46002610B909F101000D18B9EB0500E9
:100CB00003D4C0F1FF3609F10105A5EB09002BE0D3
:100CC000B9F1010F01DA4FF001090020B9F1110F5C
:100CD0000090484601DD112300E003460AAA01A95D
:100CE0000CA8FFF7ABFEDDE90C704D4600268346ED
:100CF000207800070AD4AB4500DA5D4601A8012D33
:100D000004DD411911F8011C302907D04F4502DAE2
:100D100017F1040F04DA012082460FE06D1EEEE7A2
:100D2000002F02DCED1B3E4403E0781CA84200DDEE
:100D30007D1CB81B00F1010A4FF000472078000726
:100D400003D4AA4501DB4FF0FF3A0021B7F1004F71
:100D50000DF143088DF8431024D002202B23002FDF
:100D600001DA7F422D230A21021EA0F1010000DCDE
:100D70005FB197FBF1FC97FBF1F201FB1C7C17467E
:100D80000CF1300C08F801CDEEE7A8F1010003707A
:100D90002188090501D5452100E06521A0F1010860
:100DA00000F8011C09980FA9A1EB0807FF1D00B16D
:100DB0000120411901EBEA70A1693844081A401E6C
:100DC000A0612078C00602D42046AFF300800998C5
:100DD00028B1D4E901219047206A401C2062207884
:100DE000C00622D52046AFF300801EE0002E04DBB3
:100DF000B34502DD01A8805D00E03020D4E9012187
:100E00009047206A401C2062761CAAF101005FEA2C
:100E1000000A0AD100F088F8C0680168405CD4E993
:100E200001219047206A401C2062281EA5F101057F
:100E3000DCDC07E0D4E9012118F8010B9047206AB7
:100E4000401C2062381EA7F10107F3DC2046AFF3F7
:100E50000080032011B041E601694A1C0261087854
:100E6000704700B58FB0CDE90131002105910549EA
:100E70007944CDE9031011466846FFF7BBFB0FB07C
:100E800000BD0000E5FFFFFF0A6802F8010B0A60E1
:100E9000704710B5436913B1AFF3008001E0FFF76D
:100EA00017FB012010BD127800F124010A70002206
:100EB0004A700122EDE711684FF0FF32E9E70000C8
:100EC000074B70B50D467B44FFF7CBFF0446284621
:100ED00000F026F910B14FF0FF3070BD204670BD14
:100EE000030C01004FF000020429C0F0128010F042
:100EF000030C3FF4DFACCCF1040CBCF1020F18BFC3
:100F000000F8012BA8BF20F8022BA1EB0C01FFF782
:100F1000D1BC5FEAC17C24BF00F8012B00F8012B93
:100F200048BF00F8012B704700487047A0240120FB
:100F300030B5B0F10A024FEA900E71F100034EEAAB
:100F4000817EB0EB0E0061EB91014FEA101E4EEA7C
:100F5000017E10EB0E0041EB11114FEA102E4EEA0C
:100F6000016E10EB0E0041EB11214FEA104E4EEADC
:100F7000014E10EB0E0041EB1141401841F1000110
:100F80004FEAD00040EA41704FEAD10110EB8005F2
:100F90004FEA810444EA907444EB01046D1944EB78
:100FA0000404521BA3414FF0000348BF0A3200D58E
:100FB00030BD401C41F1000130BD00002DE9F04181
:100FC0001F46044603260168072A01F4006004DB7B
:100FD00008B116A505E016A503E008B115A500E0C7
:100FE00015A521F010002060A069C01EA0610FB1FE
:100FF000401EA0612046AFF300804FB1D4E901212B
:1010000038469047206A401C2062C01C206206E0DF
:10101000206AFAE7D4E9012115F8010B9047761E02
:10102000F8D22046AFF30080BDE8F0814E414E007B
:101030006E616E00494E4600696E66002DE9F0470C
:10104000814616468AB0354878440DC88DE80D00B3
:1010500032487844801C03AC0DC884E80D0041F68A
:101060009B300844372190FBF1F290FBF1F5A5F19C
:10107000800501FB12041B3C02D56442012000E004
:101080000020DFF898A080460027FA44AAF1BE0AA3
:101090000EE0E0070AD03246684607EB470101231D
:1010A0000AEB810100F003FB8DE8070064107F1C50
:1010B000002CEED1194F7F44AE3F19E0E80715D060
:1010C00007EB04100DF1180A90E80E008AE80E00F4
:1010D000C068F04201D1981908903246012306A950
:1010E00003A800F0E4FA03AB83E807006D10641C6A
:1010F000002DE3D14FF0010332466946B8F1000FED
:1011000003A802D000F0BEFA01E000F0D0FAC9E96D
:101110000001C9F808200AB0BDE8F0878055040036
:10112000007B00F080007047004870478024012059
:101130007546FFF7F9FFAE4605006946534620F0B5
:101140000700854618B020B5FFF718F9BDE8204024
:101150004FF000064FF000074FF000084FF0000B73
:1011600021F00701AC46ACE8C009ACE8C009ACE826
:10117000C009ACE8C0098D46704710B50446AFF30E
:1011800000802046BDE81040FFF77DB85FEA400CC4
:1011900008BF91F0000F4FEA8C234FEAC12243EAC7
:1011A00051514FEA1C5018BF00F5F0404FEA300093
:1011B00018BF41F000415FEA6C5C00F02980BCF18F
:1011C000FF3F08BF40F080407047130C06BF120479
:1011D0004FF0100C4FF0000C130E04BF12020CF174
:1011E000080C130F04BF12010CF1040C930F04BF81
:1011F00092000CF1020CD30F04BF52000CF1010C51
:1012000011464FF00002A0F11F00A0EB0C00704748
:1012100011F0004F08BF704731F000413FF4D5AFE7
:101220000B0C06BF09044FF0100C4FF0000C0B0E16
:1012300004BF09020CF1080C0B0F04BF09010CF1EB
:10124000040C8B0F04BF89000CF1020CCB0F04BF00
:1012500049000CF1010CCCF12003A0EB0C0022FAA8
:1012600003F302FA0CF241EA030100F101007047B6
:1012700020F07F4C80EA030023F07F47ACEB0703AC
:1012800003F57C5300F0004003F1FF032DE9804992
:101290004FEA154B09B44FEA144325EA0B4E24EAF2
:1012A00003480FF2042606EB132749083E785FEA4D
:1012B000320203FB0667C7F5000707FB06F64FEA95
:1012C00054374FEAD64606F1020607FB066CCCF10E
:1012D000005C4FEA1C472CEA074C07FB06F40CFBAA
:1012E00006F504EB15464FEA961634BF00204FF082
:1012F00000404FEAD13706FB07FC4FEA1C4C0CFBC1
:101300000BF7D21B03FB0CF761EB07010CFB0EF78D
:10131000B0EB074072EB17420CFB08F734BFA2EBAF
:101320000742B2EB074261EB17414FEA0C444FEA28
:10133000910706FB07FC4FEA1C4C0CFB0BF7B0EBCC
:10134000C74072EB573203FB0CF734BFA2EBC74226
:10135000B2EBC74261EB57310CFB0EF7B0EBC700A5
:1013600072EB57720CFB08F734BFA2EBC702B2EB6B
:10137000C70261EB5771039F4FEA816141EA921105
:1013800004EBCC044FEAD1374FEA826206FB07FC3C
:1013900042EA90124FEA80604FEA1C4C0CFB0BF7BC
:1013A000D21B03FB0CF761EB07010CFB0EF7B0EB54
:1013B000074072EB17420CFB08F734BFA2EB074261
:1013C000B2EB074261EB17414FEA8C554FEA9107A8
:1013D00004EB9C2406FB07FC4FEA1C4C0CFB0BF7B0
:1013E000B0EBC74072EB573203FB0CF734BFA2EBF4
:1013F000C742B2EBC74261EB57310CFB0EF7B0EBC3
:10140000C70072EB57720CFB08F734BFA2EBC702A0
:10141000B2EBC70261EB577115EB4C254FEA8161C6
:1014200041EA92114FEA82624FEAD13742EA9012C2
:1014300006FB07FC44F100044FEA80604FEA1C4CB5
:101440000CFB0BF7D21B03FB0CF761EB07010CFB4A
:101450000EF7B0EB074072EB17420CFB08F734BFF6
:10146000A2EB0742B2EB074261EB174115EB1C15EB
:101470004FEA813141EA92414FEA823242EA904298
:101480004FEA80304FEA0C7644F1000448EA034307
:101490004EEA0B484FF0000EB2EB080C71EB03075D
:1014A00024BF624639464EEB0E0E4FF0000B00187B
:1014B000524149414BEB0B0BB2EB080C71EB0307AC
:1014C0007BF1000B24BF624639464EEB0E0E4FF007
:1014D000000B0018524149414BEB0B0BB2EB080CCF
:1014E00071EB03077BF1000B24BF624639464EEBDC
:1014F0000E0E51EA020718BF46F0010616EB0E76F3
:1015000055F1000254F1000103D5BDE88901BDE8A1
:101510000088BDE88901BDE80048B619524141EB99
:101520000101A3F10103704780807F7E7D7C7B7A7F
:101530007978777676757473727171706F6E6E6D7F
:101540006C6C6B6A6A696868676666656464636325
:1015500062616160605F5F5E5E5D5D5C5C5B5B5AAB
:101560005A59595858575756565555555454535318
:1015700052525251515050504F4F4F4E4E4D4D4D73
:101580004C4C4C4B4B4B4A4A4A49494948484847BE
:1015900047474746464645454544444444434343FC
:1015A0004342424242414141002B9C4630D47700A5
:1015B0002BD01CB54FEA370703B44FF010004FF0A3
:1015C0001001BAF1000F06D0BCF1000FDCBF40F0F3
:1015D000080040F008014FF000000FBCBDE81040CB
:1015E0000BF1010BBBF1010F08BF5FEA170722BF28
:1015F00012F1010211F101014FF0004143F100032A
:1016000000F0004043EA00007047F9D35708D0E7E4
:1016100046EA064613F1400F4FEA16461FDD13F166
:10162000200FDFBF16430A46002120335B42BED0A5
:10163000C3F1200746EA064602FA07F74FEA1646C4
:1016400046EA0706C3F1200722FA03F201FA07F778
:1016500021FA03F14FF0000342EA0702A7E746EA46
:10166000020646EA06464FEA164646EA0106BCBFAF
:1016700046EA0646360C4FF000034FF000024FF0EA
:10168000000194E72DE9804C9A46934670B491E8A6
:10169000380007C831EA400C48BF34EA430C03D590
:1016A000FFF7E6FDFFF780FFF0BCBDE8008C2DE9F9
:1016B000804C9A46934670B491E8380007C810F001
:1016C000804F08BF13F0804F03D100F005F8FFF7FB
:1016D0006BFFF0BCBDE8008C20F07F4780EA030080
:1016E00023F07F4C07EB0C03A3F57C5300F0004084
:1016F000A3F1FE0392F0000F00F0B38095F0000F0D
:1017000000F077802DE901494FEA11404FEA144675
:1017100021EA004800FB06FC24EA064708FB06F61F
:1017200007FB08F800FB07F718EB06484CEB164CD4
:101730004FEA124B18EB07484FEA15464CEB17409F
:1017400022EA0B4E0BFB06FC25EA06470EFB06F6CB
:1017500007FB0EFE0BFB07F71EEB064E4CEB164C81
:101760004FF000061EEB074E4CEB174B18EB0B0827
:1017700040F1000018EB0E0B58EB000840F10000A0
:101780008F1A4FF000013CBFC943661B14BFB5EB75
:10179000040C00213CBFC943F61B4FEA17444EEA34
:1017A0008E0E27EA04454FEA1C4704FB07622CEA29
:1017B000074C05FB07F70CFB05F604FB0CFC16EBCE
:1017C000074642EB174216EB0C4642EB1C421BEB62
:1017D000060658EB0202414146EA9E0601D5BDE8E5
:1017E0000189B619524141EB0101A3F10103BDE8A2
:1017F00001894FEA14454FEA114724EA054621EAD8
:10180000074C05FB07F406FB07F70CFB06F105FB8D
:101810000CFC11EB074144EB17444FEA124711EB64
:101820000C4144EB1C4422EA074C05FB07F206FB83
:1018300007F70CFB06F605FB0CFC16EB074642EB24
:10184000174216EB0C4642EB1C456A1854F1000196
:1018500048BF7047B619524141EB0101A3F10103A2
:10186000704795F0000F37D04FEA11424FEA144706
:1018700021EA024624EA074C02FB07F106FB07F7C0
:101880000CFB06F402FB0CFC14EB074441EB174184
:101890004FEA154714EB0C4441EB1C4125EA074C79
:1018A00002FB07F506FB07F70CFB06F602FB0CFC38
:1018B00016EB074645EB174516EB0C4645EB1C426D
:1018C000121951F1000148BF7047B619524141EB5E
:1018D0000101A3F1010370474FEA14454FEA114794
:1018E00024EA054621EA074C05FB07F106FB07F74A
:1018F0000CFB06F24FF0000605FB0CFC12EB074256
:1019000041EB174112EB0C4251EB1C4148BF7047B1
:10191000921841EB0101A3F10103704700BFFEE7FC
:101920007047000070B504461D460023B5F5804F92
:1019300013D154F822300C480340D1E9000640EAA4
:1019400006108E6840EA06208E8940EA06408E69BD
:101950003043034344F8223003E06FF0704044F812
:101960002200002070BD00000000F0CF10B503463B
:101970000022086853F8202012480240D1E90104EF
:101980002043CC6820430C6920434C6920438C6978
:101990002043CC6920430C6A20434C6A20438C6A64
:1019A0002043CC6A2043CC6B20430C6B2043024382
:1019B0008868082801D142F04002086843F82020D6
:1019C000002010BD8000F0FF30B503460024501CFD
:1019D00053F8204004F04044D1E9000540EA0510E6
:1019E0008D6840EA05208D8940EA0545088A401E39
:1019F00045EA0055087D801E45EA00608D69284350
:101A00000443501C43F82040002030BD70B504460C
:101A1000A56D00F085F9064694F83500022808D037
:101A20008020606500BF002084F8340000BF0120E2
:101A300070BD2068006820F01600216808602068EA
:101A4000406920F0800021684861206C08B9A06CD2
:101A500028B12068006820F008002168086020682C
:101A6000006820F00100216808600FE000F058F9DC
:101A7000801B05280AD92020606500BF002084F85B
:101A8000340000BF032084F83500D1E720680068E7
:101A900000F001000028E9D194F85C103F20884054
:101AA000A86000BF002084F8340000BF012084F843
:101AB00035000020BCE7014691F83500022803D02C
:101AC0008020486501207047052081F835000868AE
:101AD000006820F001000A6810600020F3E70000B1
:101AE000F8B502460B460025002400200021DEE068
:101AF000012606FA01F51E6806EA0504AC4275D116
:101B00001E7906F00306012E04D01E7906F00306A6
:101B1000022E13D190684F000326BE40B0434F0001
:101B2000DE68BE4030439060506801268E40B0436E
:101B30001E79C6F300168E40304350601E7906F0C1
:101B40000306032E09D0D0684F000326BE40B043E1
:101B50004F009E68BE403043D0601E7906F00306F9
:101B6000022E13D1CF0802F1200656F827004E07A7
:101B7000F70E0F26BE40B0434F07FF0E1E69BE4052
:101B80003043CF0802F1200646F8270010684F00C6
:101B90000326BE40B0431E7906F003064F00BE4048
:101BA000304310605E6806F08056B6F1805F7DD1EC
:101BB00000BF00260096404E366846F480463E4FF1
:101BC0003E603E46366806F48046009600BF00BF81
:101BD0003A4E8F0856F827008E07370F0F26BE4063
:101BE000B043374EB24202D1002624E05EE0354ECB
:101BF000B24201D101261EE0334EB24201D102268B
:101C000019E0324EB24201D1032614E0304EB24206
:101C100001D104260FE02F4EB24201D105260AE081
:101C20002D4EB24201D1062605E02C4EB24201D122
:101C3000072600E008268F073F0FBE4030431F4EA7
:101C40008F0846F82700264E3068A0435E6806F4E9
:101C50008036B6F5803F00D12043214E3060361DDE
:101C60003068A0435E6806F40036B6F5003F00D148
:101C700020431B4E361D3060361D3068A0435E6821
:101C800006F48016B6F5801F00D12043144E0836A6
:101C90003060361D3068A0435E6806F40016B6F565
:101CA000001F00D120430E4E0C363060491C102915
:101CB000FFF41EAFF8BD0000443802400838014070
:101CC000000002400004024000080240000C0240F4
:101CD000001002400014024000180240001C0240A4
:101CE000003C0140024613690B400BB1012000E0AB
:101CF0000020704710B5426921EA020302EA01049C
:101D000043EA0443836110BD0AB1816101E00B0421
:101D10008361704701480068000C7047002004E0B0
:101D200001480068704700001C000020034800685C
:101D30000349097808440149086070471C000020E5
:101D40002400002010B50A48006840F400700849DB
:101D500008600846006840F480600860032000F0D6
:101D60007FF80F2000F006F800F02AF8002010BDE0
:101D7000003C024070B504460E4800784FF47A717A
:101D8000B1FBF0F00C490968B1FBF0F5284600F012
:101D90009BFC08B1012070BD102C07D20022214607
:101DA000501E00F01EF80548046001E00120F2E733
:101DB0000020F0E724000020000000202000002088
:101DC000704701460846002809DB00F01F03012286
:101DD0009A4043099B0003F1E023C3F8002100BFB0
:101DE00070472DE9F05F80460D461646002701F04A
:101DF00001FA074639462A46334601F00700C0F18A
:101E0000070ABAF1040F02D94FF0040A01E0C0F149
:101E1000070AD14600F1040ABAF1070F02D24FF0C7
:101E2000000A01E0A0F1030AD4464FF0010A0AFAC1
:101E300009FAAAF1010A0AEA020A0AFA0CFA4FF0B0
:101E4000010B0BFA0CFBABF1010B0BEA030B4AEA9B
:101E50000B042146404601F0D5F9BDE8F09F000093
:101E600000BF00F00702064B19684FF6FF03194048
:101E7000044B0B4343EA0221014B196000BF70473A
:101E80000CED00E00000FA0570B504460D460CB9F3
:101E9000012070BD5848006800F00700A84209D230
:101EA00055490D700846006800F00700A84201D0AF
:101EB0000120EEE7207800F0020002281DD12078F2
:101EC00000F00400042805D14C48006840F4E050BC
:101ED0004A490860207800F00800082805D14748E2
:101EE000006840F46040454908604448006820F0BC
:101EF000F000A168084341490860207800F0010023
:101F0000A8B36068012807D13C4808380068C0F3CE
:101F10004040B8B90120BCE76068022802D0606880
:101F2000032807D1354808380068C0F3406048B935
:101F30000120AEE7314808380068C0F3400008B916
:101F40000120A6E72D48006820F0030061680843DF
:101F50002A490860FFF7E4FE064609E0FFF7E0FEC5
:101F6000801B41F28831884202D9032091E707E0C3
:101F70002248006800F00C006168B0EB810FEDD1E1
:101F80001D48006800F00700A84209D91A490D70E1
:101F90000846006800F00700A84201D0012078E759
:101FA000207800F00400042807D11448006820F4C9
:101FB000E050E168084311490860207800F008000B
:101FC000082808D10D48006820F46040216940EAE3
:101FD000C1000A49086000F03FF808490968C1F3E8
:101FE0000311074A515CC84006490860064800686A
:101FF000FFF7C0FE00204CE7003C024008380240DA
:102000002291030800000020200000200148006801
:10201000704700000000002000B5FFF7F7FF0449FB
:102020000968C1F38221034A515CC84000BD000029
:10203000083802403291030800B5FFF7E7FF044972
:102040000968C1F34231034A515CC84000BD000039
:1020500008380240329103082DE9F047002400259A
:102060000026A1462548006800F00C0020B1042895
:1020700005D008283AD105E0DFF8849039E0DFF890
:10208000849036E01D48001F006800F03F041B48A4
:10209000001F006800F4800078B11A481749091F32
:1020A0000968C1F38811A0FB017001462246002394
:1020B0003846FEF776F905460EE011480F49091F2C
:1020C0000968C1F38811A0FB017001462246002374
:1020D0003846FEF766F905460848001F0068C0F359
:1020E0000140401C4600B5FBF6F902E0DFF8109015
:1020F00000BF00BF4846BDE8F08700000838024036
:102100000024F40000127A00F8B504460CB901204E
:10211000F8BD207800F00100002874D0F94800686C
:1021200000F00C0004280DD0F648006800F00C0008
:10213000082813D1F348001F006800F48000B0F5B0
:10214000800F0BD1EF4808380068C0F340400028EA
:1021500059D06068002856D10120D9E700BF6068D7
:10216000B0F5803F08D1E7480838006840F4803077
:10217000E449083908601EE06068B0F5A02F0DD171
:10218000E0480838006840F48020DE4908390860DB
:102190000846006840F4803008600CE0D9480838F0
:1021A000006820F48030D749083908600846006884
:1021B00020F48020086000BF606890B1FFF7B0FD98
:1021C000054606E0FFF7ACFD401B642801D903205B
:1021D0009EE7CC4808380068C0F340400028F1D0A2
:1021E00011E0FFF79DFD054606E0FFF799FD401B56
:1021F000642801D903208BE7C24808380068C0F37F
:1022000040400028F1D1207800F0020002285FD180
:10221000BC48006800F00C0058B1BA48006800F0F3
:102220000C0008281CD1B748001F006800F480008B
:10223000B0B9B44808380068C0F3400020B1E06885
:10224000012801D0012063E7AE480838006820F07B
:10225000F800216940EAC100AA490839086037E05E
:10226000E06800B30120A8490860FFF759FD054662
:1022700006E0FFF755FD401B022801D9032047E780
:10228000A04808380068C0F340000028F1D09D48FD
:102290000838006820F0F800216940EAC100994937
:1022A0000839086014E0002097490860FFF738FDFE
:1022B000054606E0FFF734FD401B022801D9032044
:1022C00026E7904808380068C0F340000028F1D1A4
:1022D000207800F0080008282CD16069A8B10120FE
:1022E0008A490860FFF71CFD054606E0FFF718FD68
:1022F000401B022801D903200AE782486C3000689D
:10230000C0F340000028F1D014E000207F490860AD
:10231000FFF706FD054606E0FFF702FD401B022819
:1023200001D90320F4E677486C300068C0F3400020
:102330000028F1D1207800F00400042870D1002793
:1023400070483830006800F0805090B900BF00201D
:1023500000906C483830006840F08050694938314E
:1023600008600846006800F08050009000BF00BF81
:1023700001276748006800F48070B0B964480068BD
:1023800040F4807062490860FFF7CAFC054606E029
:10239000FFF7C6FC401B022801D90320B8E65C48C1
:1023A000006800F480700028F2D000BFA068012807
:1023B00008D154486830006840F001005149683144
:1023C00008601DE0A06805280DD14E4868300068FF
:1023D00040F004004B49683108600846006840F04E
:1023E000010008600CE047486830006820F00100F8
:1023F0004449683108600846006820F0040008601D
:1024000000BFA068A8B1FFF78BFC054609E0FFF705
:1024100087FC401B41F28831884202D9032077E6CD
:1024200026E0384868300068C0F340000028EED04D
:1024300013E0FFF775FC054608E0FFF771FC401B51
:1024400041F28831884201D9032061E62D48683085
:102450000068C0F340000028EFD1012F07D12948C0
:102460003830006820F0805026493831086000BFBD
:10247000A069002845D02348006800F00C00082817
:102480005DD0A069022845D100201F490866FFF7EA
:1024900047FC054606E0FFF743FC401B022801D934
:1024A000032035E6174808380068C0F3406000286C
:1024B000F1D1D4E907010843616A40EA81110122A0
:1024C000A06AC2EB500041EA00412C20005D41EAC5
:1024D00000600C49091F086001200B490866FFF7DE
:1024E0001FFC054606E0FFF71BFC401B022801D934
:1024F00003200DE6034808380068C0F34060002858
:10250000F1D049E00838024000004742800E4742BF
:1025100000700040002021490866FFF701FC0546D5
:1025200006E0FFF7FDFB401B022801D90320EFE581
:102530001B480068C0F340600028F2D12CE0A0697D
:10254000012800D1E4E51648001D0668A0690128AD
:1025500020D006F48001E06981421BD106F03F01E2
:10256000206A814216D147F6C0703040616AB0EBF4
:10257000811F0FD106F440310122A06AC2EB500046
:10258000B1EB004F06D106F070612C20005DB1EB7D
:10259000006F01D00120BBE50020B9E500004742F3
:1025A0000038024070B504460E4615460CB90120AD
:1025B00070BD94F8490028B9002084F848002046EE
:1025C00000F01CF804F108012068FFF7CFF931464C
:1025D000A2682068FFF7F8F92946236BD4E90102C5
:1025E000FFF7A0F9A168206850F8210040F0010031
:1025F000A268216841F822000020D9E710B586B012
:10260000044600BF002000902248006840F001000E
:10261000204908600846006800F00100009000BFF3
:1026200000BF00BF002000901A480838006840F042
:1026300008001849083908600846006800F00800DA
:10264000009000BF00BF00BF002000900846006857
:1026500040F0100008600846006800F0100000908C
:1026600000BF00BF4CF203700190022002900120D5
:102670000390022004900C20059001A90648FFF762
:102680002FFA4FF68070019001A90448FFF728FA4D
:1026900006B010BD38380240000C02400010024065
:1026A000042808D14FF0E021096941F004014FF0FE
:1026B000E022116107E04FF0E021096921F00401F7
:1026C0004FF0E0221161704770B504462546681E40
:1026D000B0F1807F01D301200FE0681E4FF0E021B0
:1026E00048610F214FF0FF3000F08CFD00204FF0CB
:1026F000E021886107200861002070BD70477047A5
:10270000704710B5044620680069C0F34000D8B196
:102710002068C068C0F34000B0B16FF002002168CB
:102720000861012020772068806900F0030018B15B
:102730002046FFF7E5FF05E0204600F0ADF8204613
:1027400000F0ABF80020207720680069C0F380001B
:10275000D8B12068C068C0F38000B0B16FF0040049
:1027600021680861022020772068806900F44070A9
:1027700018B12046FFF7C4FF05E0204600F08CF8B2
:10278000204600F08AF80020207720680069C0F316
:10279000C000D8B12068C068C0F3C000B0B16FF00D
:1027A000080021680861042020772068C06900F0D3
:1027B000030018B12046FFF7A3FF05E0204600F014
:1027C0006BF8204600F069F8002020772068006947
:1027D000C0F30010D8B12068C068C0F30010B0B1D9
:1027E0006FF0100021680861082020772068C06918
:1027F00000F4407018B12046FFF782FF05E0204644
:1028000000F04AF8204600F048F8002020772068C1
:10281000006900F0010058B12068C06800F00100B4
:1028200030B16FF0010021680861204600F036F8F1
:1028300020680069C0F3C01058B12068C068C0F3B8
:10284000C01030B16FF08000216808612046FFF7AA
:1028500055FF20680069C0F3801058B12068C06837
:10286000C0F3801030B16FF040002168086120464D
:1028700000F024F820680069C0F3401058B12068C7
:10288000C068C0F3401030B16FF0200021680861CB
:102890002046FFF734FF10BD7047704710B504465F
:1028A0000448844205D100BF02210348FFF722FA01
:1028B00000BF10BD80040020001002407047704728
:1028C000704701460022002391F83D2091F83E30E8
:1028D00042EA0300704700002DE9F84F04462068E3
:1028E00005682068C668206847694FF00009CA4635
:1028F00005F00F09B9F1000F0AD105F0200038B139
:1029000006F0200020B1204600F069FABDE8F88FFB
:10291000B9F1000F72D007F0010018B906F49070F9
:1029200000286BD005F0010030B106F4807018B1BA
:10293000206C40F00100206405F0040030B107F085
:10294000010018B1206C40F00200206405F0020084
:1029500030B107F0010018B1206C40F00400206491
:1029600005F0080048B106F0200010B907F001009A
:1029700018B1206C40F008002064206C70B305F0A2
:10298000200028B106F0200010B1204600F027FA00
:1029900020684069C0F3801A206C00F0080010B96C
:1029A000BAF1000F23D0204600F0EEF9206840690C
:1029B00000F04000402816D12068406920F0400017
:1029C00021684861A06B50B15648A16B0865A06BA7
:1029D000FFF771F810B1A06B016D88470CE020463D
:1029E000FFF76EFF08E02046FFF76AFF04E020468D
:1029F000FFF766FF0020206488E7FFE7206B0128CF
:102A000079D105F01000002875D006F010000028DC
:102A100071D000BF002000902068006800902068FE
:102A20004068009000BF00BF2068406900F040008F
:102A3000402839D1A06B006840681FFA80F8B8F1CF
:102A4000000F30D0A08D40452DDDA4F82E80A06B66
:102A5000C069B0F5807F1FD02068C06820F4807006
:102A60002168C8602068406920F001002168486141
:102A70002068406920F0400021684861202084F8E7
:102A80003E00002020632068C06820F0100021680C
:102A9000C860A06BFEF7BAFFA08DE28D801A81B2EC
:102AA0002046FFF70CFF31E7A08DE18D401A1FFA99
:102AB00080F8E08DE8B1B8F1000F1AD02068C06846
:102AC00020F490702168C8602068406920F00100FF
:102AD00021684861202084F83E000020206320689F
:102AE000C06820F010002168C86041462046FFF70A
:102AF000E6FE0BE7FFE705F0800030B106F080004E
:102B000018B1204600F003FB00E705F0400030B1AB
:102B100006F0400018B1204600F051F9F6E600BF7B
:102B2000F4E60000752D000810B504460CB901202C
:102B300010BDA06900B100E000BF94F83D0028B9C5
:102B4000002084F83C00204600F028F8242084F877
:102B50003D002068C06820F400502168C86020460D
:102B600000F09CF92068006920F490402168086119
:102B70002068406920F02A00216848612068C06808
:102B800040F400502168C86000202064202084F8B0
:102B90003D0084F83E000020CAE7000010B586B072
:102BA00004462D492068884254D100BF00BF002050
:102BB00000902A48006840F0100028490860084644
:102BC000006800F01000009000BF00BF00BF00BF11
:102BD00000BF0020009021481438006840F0020037
:102BE0001E49143908600846006800F00200009091
:102BF00000BF00BF00BF00BF00BF0020009008461C
:102C0000006840F0020008600846006800F002001A
:102C1000009000BF00BF00BF402001900220029042
:102C200001200390022004900720059001A90C4880
:102C3000FEF756FF802001900720059001A9084863
:102C4000FEF74EFF2520FFF7BCF803221146252092
:102C5000FFF7C7F806B010BD00100140443802402D
:102C60000004024070B504460D46164694F83E0036
:102C7000202816D105B10EB9012070BD00BF94F80F
:102C80003C00012801D10220F7E7012084F83C0034
:102C900000BF0020206332462946204600F014FA87
:102CA000EBE70220E9E700001D4A0168914236D1B6
:102CB0001C49098801F4004189BB1A49098801F4BB
:102CC000804171B1184909780A2903D00021154AB9
:102CD000118024E01349098841F40041114A118010
:102CE0001DE0114909780D2906D10E49098841F4E2
:102CF00080410C4A118012E00B490978094A128878
:102D0000C2F30D02094B995406490988491C054A2A
:102D1000118011460988C72901DD00211180704703
:102D200000100140180000201A00002014030020A9
:102D3000704700BFFEE700BFFEE7704710B5FEF723
:102D4000F5FF35F02DFB012801D035F0F3F810BD6B
:102D50000348006840F470000149086070470000B3
:102D600088ED00E010B50248FFF7CBFC10BD000075
:102D70008004002070B50546AC6B0020E085E0843F
:102D80002046FFF79DFD70BD0168C96821F4907170
:102D90000268D1600168496921F00101026851614E
:102DA000016B012905D10168C96821F01001026891
:102DB000D160202180F83E1000210163704710B5DA
:102DC00004462068C06820F040002168C8602020C8
:102DD00084F83D002046FFF7ABFF002010BD70B522
:102DE000044694F83E00222856D1A068B0F5805FD2
:102DF0000CD1206950B90025A66A20684068C0F34C
:102E000008003080A06A801CA06215E0A56A002638
:102E1000A068B0F5805F03D0A06828B9206918B910
:102E200020684068287004E02068406800F07F0057
:102E30002870A06A401CA062E08D401E80B2E08530
:102E400040BB2068C06820F020002168C86020686E
:102E5000C06820F480702168C8602068406920F054
:102E6000010021684861202084F83E00206B012881
:102E70000AD12068C06820F010002168C860A18DC8
:102E80002046FFF71CFD02E02046FFF70DFF002063
:102E9000206370BD0020FCE70220FAE72DE9F84F1F
:102EA00004462068006920F44050E1680843216826
:102EB00008612169A068084361690843E169084322
:102EC00000902068C06849F20C618843009908436B
:102ED0002168C8602068406920F44070A1690843F7
:102EE0002168486176492068884203D07549206886
:102EF000884203D1FFF7A0F8814602E0FFF78CF883
:102F00008146E069B0F5004F6CD102206168A0FBFA
:102F1000015003461920A9FB007001462A46384695
:102F2000FDF73FFA6421B0FBF1F04FEA001A0220EE
:102F30006168A0FB01510B461920A9FB00712A46CC
:102F40003846FDF72EFA834602206168A0FB015047
:102F500003461920A9FB00712A463846FDF721FADD
:102F60006421B0FBF1F000EBC00101EB0010ABEB12
:102F70008000322101EBC0006421B0FBF1F000F0D1
:102F8000F8000AEB400A02206168A0FB01500346EA
:102F90001920A9FB007001462A463846FDF701FAC0
:102FA000834602206168A0FB015003461920A9FB5B
:102FB00000712A463846FDF7F4F96421B0FBF1F0C0
:102FC00000EBC00101EB0010ABEB8000322101EB04
:102FD000C0006421B0FBF1F000F00700504421680C
:102FE00088606AE004206168A0FB01500346192054
:102FF000A9FB007001462A463846FDF7D2F9824601
:1030000004206168A0FB015003461920A9FB007051
:1030100001462A463846FDF7C4F96421B0FBF1F0B9
:1030200000EBC00101EB0010AAEB8000322101EBA4
:1030300000106421B0FBF1F000F0F00A0420616898
:10304000A0FB017003461920A9FB00513A4628460F
:10305000FDF7A7F96421B0FBF1F00AEB001A042098
:103060006168A0FB01510B461920A9FB00712A469B
:103070003846FDF796F9834604206168A0FB0150AD
:1030800003461920A9FB007001462A463846FDF781
:1030900088F96421B0FBF1F000EBC00101EB0010F6
:1030A000ABEB8000322101EB00106421B0FBF1F0AA
:1030B00000F00F00504421688860BDE8F88F0000E0
:1030C000001001400014014010B5034699629A8532
:1030D000DA8500201864222083F83E0000BF00201B
:1030E00083F83C0000BF1868C06840F480701C681A
:1030F000E0601868406940F001001C686061186871
:10310000C06840F020001C68E060002010BD01464F
:1031100091F83D00212828D18868B0F5805F0BD157
:10312000086948B90A6A1088C0F308000B6858603B
:10313000086A801C086205E00B6A581C086218784F
:103140000B685860C88C401E80B2C88458B90868A3
:10315000C06820F080000B68D8600868C06840F044
:1031600040000B68D860002070470220FCE7000098
:1031700070B500240F4D1048FFF7AEFB00BF03E011
:10318000641CAC4200D904E00B48FFF79AFB2028EE
:10319000F6D100BF002403E0641CAC4200D906E075
:1031A000012206490448FFF75DFD0028F4D100BF65
:1031B00070BD0000FFFF0100DC0300201A000020AA
:1031C00000BFFEE703B401984100009850EAC12017
:1031D00018BF04204A0D18BF40F0010040F2FF72F2
:1031E000B2EB515F08BF40F00200012808BF052084
:1031F00002B0704702480068C0F302207047000028
:103200000CED00E010B5002804DB0A07130E054A98
:10321000135406E00A07140E034A00F00F031B1FA5
:10322000D45410BD00E400E018ED00E070B5044691
:10323000002508E02168481C20600878303805EB3C
:10324000850100EB41052168087800F004F80028AA
:10325000F0D1284670BD0146302903DB392901DC55
:10326000012070470020FCE730380A2801D20120F5
:10327000704700207047000010B54021074801F05A
:10328000E3FA0022042106482CF0D2F80549086030
:1032900002F022FE00200449087010BDB4CA0020CC
:1032A000A55F00089C0200209802002030B503466C
:1032B000B1F90040B2F90050AC4202DDB1F9004072
:1032C00001E0B2F900401C80B1F90240B2F90250AD
:1032D000AC4202DDB1F9024001E0B2F902405C808B
:1032E000B1F90440B2F90450AC4202DAB1F9044039
:1032F00001E0B2F904409C80B1F90640B2F90650F1
:10330000AC4202DAB1F9064001E0B2F90640DC80D5
:103310000120B3F90040B3F90450AC4205DCB3F925
:103320000240B3F90650AC4200DD002030BDF8B5D4
:1033300004460D4616460027B4F90000B5F9001002
:10334000884212DBB4F90200B5F9021088420CDBA6
:10335000B4F90400B5F90410884206DCB4F906009B
:10336000B5F90610884200DC01270FB90020F8BD2E
:103370000EB90120FBE72088ADF800006088ADF8A9
:10338000020032466946284600F0A7F808B9002036
:10339000EDE7A088ADF800006088ADF80200324685
:1033A0006946284600F099F808B90020DFE7208830
:1033B000ADF80000E088ADF80200324669462846C4
:1033C00000F08BF808B90020D1E7A088ADF8000024
:1033D000E088ADF8020032466946284600F07DF8E4
:1033E00008B90020C3E70120C1E70246B2F9000096
:1033F000B1F90430984213DCB2F90400B1F900309D
:1034000098420DDBB2F90200B1F90630984207DCB0
:10341000B2F90600B1F90230984201DB0120704791
:103420000020FCE7F8B504460D461646B4F9040042
:10343000B5F90010884211DBB4F90600B5F90210A5
:1034400088420BDBB4F90000B5F90410884205DCB2
:10345000B4F90200B5F90610884201DD0120F8BD7B
:103460000EB90020FBE72088ADF800006088ADF8B9
:10347000020032466946284600F02FF808B10020C5
:10348000EDE7A088ADF800006088ADF80200324694
:103490006946284600F021F808B10020DFE72088BF
:1034A000ADF80000E088ADF80200324669462846D3
:1034B00000F013F808B10020D1E7A088ADF80000B3
:1034C000E088ADF8020032466946284600F005F86B
:1034D00008B10020C3E70120C1E72DE9FC5F0546E4
:1034E0000E4614464FF0000AB6F90000B5F9001078
:1034F000884213DBB6F90000B5F9041088420DDCF0
:10350000B6F90200B5F90210884207DBB6F90200ED
:10351000B5F90610884201DC4FF0010ABAF1000F3C
:1035200002D10020BDE8FC9F002C01DC0120F9E75E
:10353000284616F034FE834600EBDB704710284621
:1035400016F0A5FD834600EBDB704FEA60084745A7
:1035500001DA384600E0404681464C4500DD4C46E5
:103560002888ADF800002888204400B2ADF8040097
:103570006888ADF802006888204400B2ADF8060003
:10358000002231466846FFF7A8FF80B1BDF804006D
:10359000204400B2ADF80400BDF80600204400B29B
:1035A000ADF806003146684627F07CFEBAE7E888A9
:1035B000001B00B2ADF80200E888ADF8060000225A
:1035C00031466846FFF789FF80B1BDF8040020440A
:1035D00000B2ADF80400BDF80200001B00B2ADF867
:1035E00002003146684627F05DFE9BE7A888001B75
:1035F00000B2ADF80000A888ADF804000022314602
:103600006846FFF76AFF80B1BDF80000001B00B2FA
:10361000ADF80000BDF80200001B00B2ADF80200DA
:103620003146684627F03EFE7CE76888ADF8020028
:103630006888204400B2ADF8060000223146684692
:10364000FFF74BFF80B1BDF80000001B00B2ADF8E2
:103650000000BDF80600204400B2ADF80600314677
:10366000684627F01FFE5DE701205BE710B5B1F962
:103670000030B2F90040A34202DAB1F9003001E0B3
:10368000B2F900300380B1F90230B2F90240A3422E
:1036900002DAB1F9023001E0B2F902304380B1F947
:1036A0000430B2F90440A34202DDB1F9043001E074
:1036B000B2F904308380B1F90630B2F90640A34272
:1036C00002DDB1F9063001E0B2F90630C38010BD69
:1036D0002DE9FF4104462BF04CFE054600200390E7
:1036E00034B14749E068086020462BF0B9FF03E099
:1036F00019F0B2FB4249086041490968086927F09E
:103700002FFD3F480068406920B13D49096848697C
:1037100027F026FD3A490968C86927F021FD384994
:103720000968086A27F01CFD35480068006940B93F
:10373000002033490968A1F8500100BF00BFBDE86F
:10374000FF8128F0AFF827F0F5FF2D480068B0F8AA
:10375000500100284BD02A4800680068007CC0F364
:103760004000E8B12648006819F0F4FB401E06B29C
:103770002348006819F088FB401E07B23B46002230
:10378000114601A8009616F04FFD01A81C490968D2
:103790000968896B48601A48006805F06DFE00BF33
:1037A0004FF4807116480068303021F002FF20216C
:1037B0001348006800F5987021F0FBFE00201049C6
:1037C0000968A1F8500128462BF0C6FD03900C486B
:1037D00000680068406A50B10949096808680849EA
:1037E000096809684B6A07490A680399984721F0F4
:1037F00017FC00F03FF800F007F800BF9FE700005B
:103800004C0100204801002010B5002416E0C4EB54
:10381000C4000C4951F8200030B1C4EBC401094A7E
:1038200052F8210021F0AEFCC4EBC401054A02EBC2
:1038300081001C2121F0BDFE601CC4B2042CE6DB1B
:1038400010BD000090CB00200146094A10680BE033
:1038500042688A4202D002688A4204D1027E22F083
:103860000102521C027640690028F1D17047000025
:10387000200100207047000010B50421014800F02D
:10388000E3FF10BDA8CA002010B51C21014800F0BC
:10389000DBFF10BDC0CA00202DE9FF4F8BB00446EE
:1038A0009A46199DBAF1000F11D11898B0F5807F92
:1038B0000DD10020208060800C98401E00B2A080B6
:1038C0000D98401E00B2E0800FB0BDE8F08FB5F952
:1038D00000004042189948430121C1EB202000B26A
:1038E0002080B5F902004042189948430121C1EBFC
:1038F000202000B26080B5F900100C98401A189989
:103900004843022101EB202000B2A080B5F902104B
:103910000D98401A18994843022101EB202000B26B
:10392000E080BAF1000F14D120882988084400B241
:10393000208060886988084400B26080A088298857
:10394000084400B2A080E0886988084400B2E080A2
:10395000BAE70A209AFBF0F00A900A98401C0990F6
:103960000A9800EB8000AAEB400B0A9800B22BF0FB
:10397000FDFF0890099800B22BF0F8FF07900A9815
:103980005A3000B22BF0F2FF069009985A3000B27C
:103990002BF0ECFF0590CBF10A0108984143079802
:1039A00000FB0B100A2190FBF1F6CBF10A010698FF
:1039B0004143059800FB0B100A2190FBF1F77611AB
:1039C0007F11B4F90080B4F9029007FB08F006FB00
:1039D0001900298801EBA02000B2ADF8100006FB09
:1039E00008F007FB0900698801EBA02000B2ADF8E0
:1039F0001200B4F90480B4F9029007FB08F006FB4A
:103A00001900298801EBA02000B2ADF80C0006FBDC
:103A100008F007FB0900698801EBA02000B2ADF8AF
:103A20000E00B4F90080B4F9069007FB08F006FB1D
:103A30001900298801EBA02000B2ADF8080006FBB0
:103A400008F007FB0900698801EBA02000B2ADF87F
:103A50000A00B4F90480B4F9069007FB08F006FBED
:103A60001900298801EBA02000B2ADF8040006FB84
:103A700008F007FB0900698801EBA02000B2ADF84F
:103A80000600BDF90800BDF91010884202DABDF940
:103A9000080001E0BDF91000BDF90410BDF90C20CB
:103AA000914202DABDF9041001E0BDF90C10884220
:103AB0000BDABDF90800BDF91010884202DABDF931
:103AC00008000DE0BDF910000AE0BDF90400BDF9E1
:103AD0000C10884202DABDF9040001E0BDF90C00C7
:103AE0002080BDF90800BDF91010884202DDBDF943
:103AF000080001E0BDF91000BDF90410BDF90C206B
:103B0000914202DDBDF9041001E0BDF90C108842BC
:103B10000BDDBDF90800BDF91010884202DDBDF9CA
:103B200008000DE0BDF910000AE0BDF90400BDF980
:103B30000C10884202DDBDF9040001E0BDF90C0063
:103B4000A080BDF90A00BDF91210884202DABDF961
:103B50000A0001E0BDF91200BDF90610BDF90E2002
:103B6000914202DABDF9061001E0BDF90E1088425B
:103B70000BDABDF90A00BDF91210884202DABDF96C
:103B80000A000DE0BDF912000AE0BDF90600BDF91A
:103B90000E10884202DABDF9060001E0BDF90E0000
:103BA0006080BDF90A00BDF91210884202DDBDF93E
:103BB0000A0001E0BDF91200BDF90610BDF90E20A2
:103BC000914202DDBDF9061001E0BDF90E108842F8
:103BD0000BDDBDF90A00BDF91210884202DDBDF906
:103BE0000A000DE0BDF912000AE0BDF90600BDF9BA
:103BF0000E10884202DDBDF9060001E0BDF90E009D
:103C0000E08000BF60E62DE9F74F86B004462068EB
:103C10000590B4F908100798A0EB0108B4F90A1050
:103C20000898A0EB0109E089B0F5807F13D1206BE3
:103C300000FB08F0E16A01FB1901606A00EBA10BCF
:103C4000E06A00FB08F0216B01FB0901A06A00EBB0
:103C5000A10004902FE0A08980B9A06B00FB08F0C0
:103C60004FEA6018A06B00FB09F04FEA6019606A28
:103C700000EB080BA06A484404901CE0A06B00FB1A
:103C800008F04FEA6018A06B00FB09F04FEA6019DA
:103C9000206B00FB08F0E16A01FB1901606A00EB90
:103CA000A12BE06A00FB08F0216B01FB0901A06A6F
:103CB00000EBA12004904FEA2B2604980712B4F9D8
:103CC0000400B04203DC002009B0BDE8F08F002EF4
:103CD00001DA0020F8E7B4F90600B84201DC002060
:103CE000F2E7002F01DA0020EEE73420005DC0F398
:103CF000800050B33420005DC0F3400078B9022545
:103D0000B4F904007843684306FB050A059800EB04
:103D10000A012A4604F1140021F0F9FB2CE00325E6
:103D2000B4F904007843684306FB050A6A1E059847
:103D300000EB0A0104F1140021F0E9FB0AEB050095
:103D4000401E0599095CA17516E04FF0000A002598
:103D5000208A03463AB231B2019004F118001EF0F5
:103D6000BFF80290BDF80800A0823AB231B204F167
:103D700018001EF015F8A0753420005D00F0010059
:103D8000B0B14FF47F40002100F47C4241EA52116F
:103D9000C0F3C40211430191BDF804201146029101
:103DA000A08ABDF80810884201D100208CE700BF2E
:103DB000E07C08B9012087E70FFA8BF1A18704980E
:103DC00001B2E18731B24020015339B242200153A0
:103DD000C4F844A084F84850204600F003F803904B
:103DE000039871E72DE9F04F8DB00446D4F80090A8
:103DF00094F83C000C9094F83E000B900C987028BE
:103E00000BDA4FF0FF35B4F940002844002800DAFF
:103E100000250C988030C7B213E00C9890280EDD76
:103E20000125B4F940002844B4F90410884200DBAD
:103E300000250C98C0F1FF008030C7B201E00025DA
:103E4000FF270B9870280CDA4FF0FF36B4F94200C8
:103E50003044002800DA00260B98803000F0FF087C
:103E600015E00B9890280FDD0126B4F9420030448C
:103E7000B4F90610884200DB00260B98C0F1FF0061
:103E8000803000F0FF0802E000264FF0FF08A08A13
:103E90000A90A07D069000200590049003903420A5
:103EA000005DC0F3800000285BD094F84800626C8D
:103EB00000FB052000EB0901022209A821F027FBE5
:103EC000A28894F8480012FB00F2606C02FB060026
:103ED00000EB0901022208A821F019FBA28894F83E
:103EE000480012FB00F2606C02FB060294F84800E6
:103EF00000FB052000EB0901022207A821F007FBC7
:103F00003420005DC0F3400000287ED094F84800C3
:103F1000616C00FB05110844401E19F80000059073
:103F2000A18894F8480011FB00F1606C01FB0601C8
:103F300094F848000844401E19F800000490A18835
:103F400094F8480011FB00F1606C01FB060194F845
:103F5000480000FB05110844401E19F800000390BA
:103F600053E0208A0090B4F942204020005B2844AE
:103F700001B204F11800009B1DF0B2FF0990208AE5
:103F800000904220005B304402B2B4F9401004F1CA
:103F90001800009B1DF0A4FF0890208A009042208A
:103FA000005B304402B24020005B284401B204F1BF
:103FB0001800009B1DF094FF07903420005DC0F3B3
:103FC000400010B3B4F942204020005B284401B205
:103FD00004F118001DF0E4FE05904220005B30441F
:103FE00002B2B4F9401004F118001DF0D9FE04909B
:103FF0004220005B304402B24020005B284401B202
:1040000004F118001DF0CCFE0390BA46BB463420E4
:10401000005DC0F34000E0B306987843C7F1FF0CA1
:10402000059B03FB0C00C0F3072104987843C7F1FC
:10403000FF0C039B03FB0C00C0F3072201FB08F0FD
:10404000C8F1FF0302FB0300030AA375022905DC84
:10405000022A03DC00200DB0BDE8F08F022901DC4C
:104060004FF00008022A01DC4FF0FF0806980228F2
:1040700001DC4FF0000A0598022801DC4FF0FF0A2E
:104080000498022801DC4FF0000B0398022803DC9F
:1040900000E002E04FF0FF0B03E0BA46BB46FF2111
:1040A000A175BAF1000F02D1099802900BE0BAF1A4
:1040B000FF0F02D10A98029005E05246DDE909108F
:1040C00018F038F90290BBF1000F02D10798019067
:1040D0000BE0BBF1FF0F02D10898019005E05A46B2
:1040E000DDE9071018F026F90190B8F1000F03D1AF
:1040F000BDF80400A0820FE0B8F1FF0F03D1BDF8B6
:104100000800A08208E04246DDE9011018F012F92B
:104110000090BDF80000A08201209CE72DE9F05F2F
:104120000446B4F9080001026162B4F90A00010210
:10413000A162B4F90C000A2190FBF1F56F1CB4F9EF
:104140000C0005EB8501A0EB4106684200B22BF0A4
:104150000DFC8046784200B22BF008FC8146C5F188
:104160005A0000B22BF002FC8246C7F15A0000B29E
:104170002BF0FCFB8346C6F10A0000FB08F009FBAC
:1041800006000A2190FBF1F1E162C6F10A0000FB92
:104190000AF00BFB06000A2190FBF1F12163E06AB3
:1041A0004111E162206B41112163A07C1DF0A7FF4A
:1041B0003421095D60F3000134200155A07C1DF01D
:1041C00081FF3421095D60F3410134200155A07C59
:1041D000042805D0A07C052802D0A07C062807D1A1
:1041E0003420005D20F00400001D3421085505E056
:1041F0003420005D20F00401342001552168216243
:10420000A06920F0E000A061A17CA06961F3040036
:10421000A061A188A06961F39420A061E188A069F0
:1042200061F35F50A061E08900EBD071491001F5A6
:10423000001191FBF0F2A263FF21A175208AA082F8
:10424000BDE8F09F2DE9F743054616460024134CC0
:104250002BF08FF88046334629462046019A1EF0FF
:10426000FDFB07465FB900BF00BF2C21204621F0AF
:10427000A0F94FF00040A0620020BDE8FE830020BE
:10428000A062E06918B940462BF066F8E061E06989
:1042900008B90120E0612046EFE70000E4CA0020F1
:1042A00010B51421114800F0CFFA1EF089FB044626
:1042B00000BF1CB900BF00BF00BFFEE700BF14B9BC
:1042C00000BF00BF10BD0A4920461EF061FC09492D
:1042D00020461EF05FFC084920461EF05DFC0749A1
:1042E00020461EF053FC00BFECE70000CCCA0020C3
:1042F000DD210208B1260208CD280208A521020806
:1043000070B504460D461021284621F052F9206868
:104310000078012804D1208A2880608A68800CE017
:1043200020680078022802D1E068686005E0206813
:104330000078042801D10A2068602068406820B114
:10434000206829464268904701E000BF00BF70BD69
:104350002DE9FE430446A66AEEB9A18A208A0844E4
:1043600001B2A182E18A608A084401B2E18220465A
:104370000CF0AFFD06460EB9BDE8FE83204610F0F6
:104380009FFC0022092130461CF0A2FD6078C0F39A
:10439000400000B1F0E7208A10B9608A002870D090
:1043A00000200290019094F83C0000F00F000328D8
:1043B00012D1304623F0B6F90746304623F03AF9D9
:1043C000804603200090B4F910103B464246304628
:1043D0000CF076F8029012E0304623F025FA0746FA
:1043E000304623F099F880460C200090B4F9121062
:1043F00043463A4630460CF063F8019000BF304621
:1044000023F0EAF8054605F0010028B9BDF90800D7
:10441000002801DD0020029005F0020028B9BDF956
:104420000800002801DA0020029005F0040028B9F5
:10443000BDF90400002801DD0020019005F008000E
:1044400028B9BDF90400002801DA0020019001AA72
:1044500002A920462EF004FA0023BDF90420BDF97C
:104460000810304626F0E6F8A08ABDF80810084487
:1044700001B2A182E08ABDF80410084401B2E182D1
:1044800000BF00BF78E72DE9F84F0446D4F828B004
:10449000BBF1000F01D1BDE8F88F94F83C0000F0AB
:1044A0000F0000B9F7E71EF05BFE06463068477E56
:1044B0004021584624F0E7FD10B900216183218393
:1044C000584623F09DF98046584623F0A3F9054647
:1044D00094F83C0000F00F000C2843D10021218308
:1044E0001DBBB4F91A00C7F164014843642190FB75
:1044F000F1F001B26183584623F00EF88146584628
:1045000023F092F982460C200090B4F91A104B4621
:10451000524658460BF0D4FF6083B4F91A200023AA
:104520001946584626F086F869E020462EF0EFF945
:104530000090002161836A4620462EF091F9BDF972
:10454000003041F6FF72514258460CF06BFE814636
:10455000BDF80000484402B201230021584626F06D
:1045600069F84CE094F83C0000F00F00032846D1B5
:1045700000216183B8F1000F23D1B4F91800C7F10D
:1045800064014843642190FBF1F001B22183584655
:1045900023F050F88146584623F0C4F882460320A1
:1045A0000090B4F9181053464A4658460BF088FF5D
:1045B0002083B4F9181000231A46584626F03AF81A
:1045C0001DE020462EF088F9009000212183002272
:1045D000694620462EF044F9BDF9003041F6FF72DD
:1045E000514258460CF084FD8146BDF80000484415
:1045F00001B201230022584626F01CF800BF208B90
:10460000002860D1608B00285DD11DBB584623F087
:104610000BF98146584622F07FFF8246B9F1000F20
:1046200002DCBAF1000F14DDB9F1000F06DA012344
:104630004A460021584625F0FDFF0AE0BAF1000F76
:1046400007DA0123CAF1000002B20021584625F022
:10465000F1FF00BFB8F1000F23D1584622F0EAFF66
:104660008146584623F05EF88246B9F1000F02DC1D
:10467000BAF1000F14DDB9F1000F06DA01230022B0
:104680004946584625F0D6FF0AE0BAF1000F07DA8E
:1046900001230022CAF1000001B2584625F0CAFFEA
:1046A00000BF32460A2158461CF012FC6078C0F365
:1046B000400000B1EFE694F83C0020F00F0184F8D0
:1046C0003C100021A16200BFE5E62DE9FF41044650
:1046D0000F4614B918F0C0FB04460CB9BDE8FF81C1
:1046E0001FB90020A4F85001F8E70020ADF8080039
:1046F000ADF80A00204618F0C7FB401E00B2ADF826
:104700000C00204618F026FC401E00B2ADF80E004A
:1047100002AA39466846FEF7C9FD064606B9DDE736
:104720002068007CC0F3400060B1029820630398C9
:1047300060630120A4F85001606810B160682AF03D
:104740009BFFCBE72068806918B1206869468269C1
:10475000904700250BE004F1300000EBC50100227A
:104760006846FEF7E4FD00B1B8E7681C85B2B4F80E
:104770005001A842EFDCB4F85001202809DAB4F85F
:10478000502104F1300101EBC200694615F0EFFB46
:104790000BE00020A4F85001B4F8502104F13001DE
:1047A00001EBC20002A915F0E2FBB4F85001401C75
:1047B000A4F85001606810B160682AF05DFF00BF86
:1047C0008CE770B50546284600F013F8044600262D
:1047D0000CE02146284600F024F8064621462846EB
:1047E00000F086F8204620F0CDFC3446002CF0D1B5
:1047F00070BD014609B9002070474868FCE770B5F4
:10480000064600243046FFF7F4FF054605E0641C29
:104810002946304600F005F80546002DF7D1204620
:1048200070BD02460B461068001D034418687047AF
:1048300002460B461068034418687047014609B9E0
:10484000002070478868FCE7002242608260CA1C32
:1048500022F003010160704770B50446216801F140
:10486000080020F0C1FB0546A5B1002229462046DC
:104870002CF066F92946204662682CF053F96068EE
:1048800020B12A46204661682CF05AF96560A0687C
:1048900000B9A560284670BD70B50446216801F1D5
:1048A000080020F0A1FB0546A5B1002229462046BC
:1048B0002CF038F929462046A2682CF041F9A0686E
:1048C00020B12A462046A1682CF02CF9A56060682A
:1048D00000B96560284670BD014609B901207047DE
:1048E000486818B9886808B90120F8E70020F6E799
:1048F0002DE9F04104460D460CB9BDE8F081204693
:10490000FFF777FFA8420FD129462046FFF789FF1E
:104910006060606810B90020A0602FE0002220468F
:1049200061682CF00DF929E02046FFF787FFA842C7
:104930000FD129462046FFF77BFFA060A06810B981
:10494000002060601AE000222046A1682CF0EAF8FE
:1049500014E029462046FFF76BFF0646294620460D
:10496000FFF75FFF07463A46314620462CF0DAF85B
:104970003246394620462CF0E3F800BF00BFBCE7C2
:1049800010B504462068806818B120682146826806
:1049900090472068006828B12068006820602046A1
:1049A000FFF7EEFF10BD0146886818B18868B0F9BE
:1049B000160070470020FCE72DE9F04F93B0054644
:1049C0008B4691469A461C9E688C20F00400001D80
:1049D0006884A5F8209032895946284624F0A8F822
:1049E0001290A5F820A032895946284624F0A0F854
:1049F0001190688C20F004006884DDE91110884271
:104A00000CD1DDE91110884208D1BDF84800BDF88D
:104A10004410884202D113B0BDE8F08FA5F8209071
:104A200032895946284624F083F81290A5F820A030
:104A3000594628460EF01FFB10903189109A1068D5
:104A4000129A29F03CF93089602833D147F6FF717A
:104A50001298884202D0119888422BD1284624F01F
:104A6000B5FA0F9000EBD0704710284624F0AEFA4C
:104A70000F9000EBD0704FEA600847F6FF71129874
:104A8000884208D1781C08F10101884200DA01E06F
:104A900008F10100129047F6FF711198884208D181
:104AA000781C08F10101884200DA01E008F10100F8
:104AB000119000BF2448FFF7CFFE044600BF1CB989
:104AC00000BF00BF00BFFEE700BF04B9A3E7129814
:104AD000E06011982061ACB325603089A080C4F8F3
:104AE00008B0684614F00AFC2146684614F0B9FC88
:104AF0001649684614F085FC1548029000BF154918
:104B0000684614F08CFCFF220021684614F099FCE2
:104B10003188684614F08BFC7188684614F06CFC90
:104B2000F068069000BF6846002190F83E2061F3CF
:104B3000000280F83E2000BF30690590684614F0FE
:104B4000A7FC00BF00BF66E7D8CA00202D6E03088F
:104B5000D97003080970030810B514210148FFF744
:104B600073FE10BDD8CA00202DE9FE4F04460F4643
:104B700090464FF0000900256BE1E06800EBC500AE
:104B80004068C0F3406000B162E1E16801EBC5013B
:104B9000496821F07F4026F0DFFA064626EA070042
:104BA00008B9012000E00020029026EA080008B9B8
:104BB000012000E000200190DDE90101814272D076
:104BC000E06850F835A04FF0000B6A4641F610013E
:104BD000504628F00DFD10B14FF0010BA9E06A46D8
:104BE00041F61101504628F003FD10B14FF0010BC2
:104BF0009FE06A4641F61201504628F0F9FC10B1D8
:104C00004FF0010B95E06A4641F61301504628F03B
:104C1000EFFC10B14FF0010B8BE06A4641F6150135
:104C2000504628F0E5FC10B14FF0010B81E06A46D8
:104C300041F61401504628F0DBFC10B14FF0010B97
:104C400077E06A4641F26901504628F0D1FC10B184
:104C50004FF0010B6DE06A4643F20C01504628F01C
:104C6000C7FC10B14FF0010B63E06A4643F20D013F
:104C7000504628F0BDFC10B14FF0010B59E06A46D8
:104C800041F20101504628F0B3FC10B14FF0010B86
:104C90004FE06A4641F20401504628F0A9FC18B1E1
:104CA0004FF0010B45E0D2E06A4641F20201504666
:104CB00028F09EFC10B14FF0010B3AE06A4641F239
:104CC0000301504628F094FC10B14FF0010B30E086
:104CD0006A4641F20501504628F08AFC10B14FF0B7
:104CE000010B26E06A4641F20601504628F080FC9E
:104CF00010B14FF0010B1CE06A4641F23201504600
:104D000028F076FC10B14FF0010B12E06A4643F632
:104D10000F01504628F06CFC10B14FF0010B08E079
:104D20006A4643F60E01504628F062FC08B14FF087
:104D3000010BBBF1000F02D00320BDE8FE8F6A46D5
:104D400040F60A01504628F053FC10B14FF002091A
:104D50007CE06A4640F60B01504628F049FC10B151
:104D60004FF0020972E06A4643F60F01504628F000
:104D70003FFC10B14FF0020968E06A4643F60E01AD
:104D8000504628F035FC10B14FF002095EE06A464B
:104D900040F63C01504628F02BFC10B14FF00209C0
:104DA00054E06A4640F63D01504628F021FC10B11F
:104DB0004FF002094AE06A4640F63A01504628F0B0
:104DC00017FC10B14FF0020940E06A464FF404614D
:104DD000504628F00DFC10B14FF0020936E06A464B
:104DE00040F64501504628F003FC10B14FF002098F
:104DF0002CE06A4640F64101504628F0F9FB10B11C
:104E00004FF0020922E06A4640F64201504628F07F
:104E1000EFFB10B14FF0020918E06A4640F643017B
:104E2000504628F0E5FB10B14FF002090EE06A464B
:104E300040F64901504628F0DBFB10B14FF0020963
:104E400004E0B9F1000F01D14FF0010900BF00BF2C
:104E50006D1C608CC0F3C500A8423FF68EAE48467C
:104E60006BE7000001480068704700004C0100201B
:104E700070470146C1F30412072A00DD0722D0B2B1
:104E80007047000010B518210348FFF7DDFC012032
:104E90002AF00AFB10BD000084CA00202DE9F04171
:104EA00005460F4616460DB9BDE8F0812846FBF7CA
:104EB00061FC8046394628460A4A126890470746F0
:104EC000E8193146074A1268904706463C4603E017
:104ED000A019285C2855641CA8EB0600A042F7D254
:104EE00000BFE1E7E80200202DE9F04106460C464C
:104EF00017461D4629463046084A126890472060EA
:104F0000206830B1296888190021044A1268904746
:104F100000E000203860BDE8F0810000E0020020E1
:104F20002DE9F04F87B004460F4692469846DDE9DA
:104F300010560DB1002028801CB9002007B0BDE834
:104F4000F08F207808B90020F8E70FB90020F5E7C6
:104F50004FF0000906F0020010B906F0040098B105
:104F6000002000E0401C215C0A2905D0215C0D29AD
:104F700002D0215C0029F5D1215C01B1401C15B1A2
:104F80004FF0FF312980D9E706F0020008B141F661
:104F9000FF7800200690059038E0002004900598E6
:104FA00008B9012000E0002006A904AACDE90062AA
:104FB000CDE90210059960184346524639462AF059
:104FC0000DFD83460498A8EB00000FFA80F80498C2
:104FD00048440FFA80F9BBF1000F00D11CE005989E
:104FE0005844059020780A2802D020780D2800D156
:104FF00012E00598205C0A2803D00598205C0D2853
:1050000003D10598401C059006E000BF0598205C80
:1050100010B1B8F1000FC0DC00BF059870B905A948
:105020002046094A12689047834635B10022594606
:1050300038461CF05CF90FFA80F900BF0DB1A5F8F5
:10504000009005987AE70000E00200202DE9F04783
:1050500006468846174606B10FB9BDE8F0873046C8
:10506000FBF788FB81463846FBF784FB044604B90E
:10507000F3E704EB090A414630460B4A12689047B1
:105080008046554603E0281B305C70556D1E08EBCA
:105090000400A842F7D906EB08002246394620F062
:1050A00042FA00BFD9E70000E802002001460023D1
:1050B000B1F59C4F05D349F6A570814201D8012076
:1050C0007047002207E007A0805C884201D10123DD
:1050D00005E0501CC2B203A0805C0028F3D100BFE1
:1050E0001846EDE7202C2E3B3A2D5F0002460020AB
:1050F0000FA31B788B4211D113781BB901231370B6
:1051000001200BE01378012B02D10023137005E07E
:105110001378022B02D10023137001201378012B86
:1051200004D1202901D1022313700120704700000F
:105130002300000073B582B0064603980190324602
:1051400000210846019B2AF08DFF054600200190B2
:105150000024681C1FF048FF044600BF1CB900BFB4
:1051600000BF00BFFEE700BF14B9002004B070BD4F
:10517000002060553246691C2046039B2AF072FFCE
:105180002046F3E72DE9F04781460E4614461F46B8
:10519000DDF820A035461BE0600800FB07552946D6
:1051A0004846D047B0F1000809DD04F0010080F066
:1051B0000100C0EB5404E8190546064608E0B8F1C2
:1051C000000F02DA6408354602E02846BDE8F087A1
:1051D000002CE1D10020F9E72DE9FF4F85B083468F
:1051E000DDE9158ADDE91349DDE91775129E05F041
:1051F0000200F8B94FB105F0010030B1B9F1000F6C
:1052000002D105F00C0000B17F1E03E030222046E1
:10521000641C3254544501D2202CF7D303E03022D1
:105220002046641C325405F0010018B1BC4201D282
:10523000202CF4D305F01000B0B305F4806050B911
:105240004CB1544501D0BC4205D1641E1CB1B8F12B
:10525000100F00D1641EB8F1100F09D105F0200025
:1052600030B9202C04D278222046641C325415E038
:10527000B8F1100F09D105F0200030B1202C04D274
:1052800058222046641C325408E0B8F1020F05D1C0
:10529000202C03D262222046641C3254202C03D2DC
:1052A00030222046641C3254202C16D2B9F1000F53
:1052B00004D02D222046641C32540EE005F0040078
:1052C00020B12B222046641C325406E005F0080071
:1052D00018B120222046641C3254CDE90275CDE974
:1052E0000064584606A90EC900F0A2F809B0BDE84E
:1052F000F08F2DE9FF4F8FB08046DDE91FABDDE970
:105300001D96219D1C9C00270CB925F0100505F465
:10531000806000B1E4B100BFB4FBF6F106FB1141BF
:10532000C8B20A2802DA00F1300107E005F02001D6
:1053300009B1412100E0612101440A39CBB239466B
:105340007F1C07AA5354B4FBF6F40CB1202FE3D30F
:1053500007A8CDE904AB8DE8810203960695404687
:1053600010A90EC9FFF738FF13B0BDE8F08F2DE983
:10537000FF4F8FB0DDE9217BDDF89080209EDDE9D5
:105380001C454FF00009002184EA010069400843F0
:1053900001D128F0100808F4806028B1002184EAC7
:1053A0000100694008432DD000BF32463B462046ED
:1053B0002946FAF7F6FF02F0FF0ABAF10A0F02DAFD
:1053C0000AF1300007E008F0200008B1412000E0B9
:1053D000612050440A38C2B2484609F1010907A9C0
:1053E0000A5432463B4620462946FAF7DAFF04467D
:1053F0000D46002184EA01006940084302D0B9F15A
:10540000200FD2D32398CDE9036BCDE9050807A976
:105410001E98CDE9001902900FA80FC8FFF7DCFE17
:1054200013B0BDE8F08F9A4200D28854704770479D
:105430002DE9FF5F05461446DDE90EA6DDE910877C
:10544000A34607F0020078B907F0010060B9B14641
:1054500007E02246641C2020039B0199A84709F11C
:105460000109C145F5D300BF08E02246641C711E46
:105470000E461AF80100039B0199A847002EF4D1AB
:1054800007F0020050B105E02246641C2020039B77
:105490000199A847A4EB0B004045F5D3204604B082
:1054A000BDE8F09F00BF70472DE9FF4F8BB0074666
:1054B00000250C9800B9FA4FEAE20E9800782528EA
:1054C0000AD02A466D1C0E990878DDE90C13B847FE
:1054D0000E98401C0E90DBE20E98401C0E900024AB
:1054E00000BF0E9800782B2819D004DC20281ED08D
:1054F00023282CD123E02D2809D0302827D144F0AF
:1055000001040E98401C0E9001200A9022E044F005
:1055100002040E98401C0E9001200A901AE044F0FC
:1055200004040E98401C0E9001200A9012E044F0F2
:1055300008040E98401C0E9001200A900AE044F0E6
:1055400010040E98401C0E9001200A9002E00020EA
:105550000A9000BF00BF0A980028C2D180460E9969
:105560000878FDF778FE20B10EA8FDF75FFE8046B3
:1055700012E00E9800782A280ED1189901C91891C6
:10558000002804DA44F00204C0F1000800E080467C
:105590000E99491C0E9100BF4FF000090E9800783B
:1055A0002E281FD144F480640E98401C0E900E9952
:1055B0000878FDF750FE20B10EA8FDF737FE8146B2
:1055C00010E00E9800782A280CD1189901C918917A
:1055D000002801DD014600E0002189460E99491CA2
:1055E0000E9100BF0E9800786C280AD004DC682861
:1055F00016D06A2835D128E0742820D07A2830D1F6
:1056000029E044F480740E98401C0E900E980078A7
:105610006C2804D144F400740E98401C0E9021E0D4
:1056200044F080040E98401C0E900E980078682874
:1056300004D144F040040E98401C0E9012E044F453
:1056400080740E98401C0E900CE044F400740E9888
:10565000401C0E9006E044F480740E98401C0E909E
:1056600000E000BF00BF0E98007869281DD00EDC56
:10567000622821D006DC25287ED050281AD0582850
:105680007BD115E0632879D06428F9D10CE0732828
:1056900075D004DC6F280ED07028F1D109E0752890
:1056A00004D07828ECD102E000BF00BF00BF00BFEB
:1056B00000BF00BF00BF00BF0E980078782803D05D
:1056C0000E980078582801D1102623E00E98007813
:1056D000702803D00E98007850280CD1102644F082
:1056E000100444F480740E984078562812D10E9815
:1056F000401C0E900EE00E9800786F2801D108260D
:1057000008E00E980078622801D1022602E00A26FD
:1057100024F010040E980078582803D00E980078D2
:10572000502801D144F020040E980078692805D053
:105730000E980078642801D024F00C0404F48060F2
:1057400008B124F001040E980078692803D00E985F
:10575000007864287CD104F40070B8B31898C01D98
:1057600020F007001890D0E900AB189A0832189280
:105770000020CDE9069803E073E17CE1F2E01CE152
:10578000CDE904600894BAEB00017BEB000001DA7C
:10579000012000E00020002102900846B1EB0A0140
:1057A00070EB0B0002DA5046594605E00020014636
:1057B000B0EB0A0061EB0B01CDE900012A46384647
:1057C000DDE90C13FFF7D3FD0546C7E0FFE704F45E
:1057D0008070D0B1189850F804AB18904FEADA7086
:1057E000CDE9039802960594BAF1000F01DD514608
:1057F00001E0CAF10001CDE900102A463846DDE992
:105800000C13FFF776FD0546A8E004F0400028B130
:10581000189810F8041B1890C8B20DE004F080002E
:1058200028B1189830F8041B189008B204E01898B2
:1058300000681899091D189182464FEADA70CDE97F
:10584000039802960594BAF1000F02DD514602E07A
:105850000BE0CAF10001CDE900102A463846DDE927
:105860000C13FFF746FD054678E00E9800785628A1
:1058700018D1189850F804AB1890DAF804000068B2
:10588000099009980090DAF800300D98421B0C98A6
:1058900041193846FFF708FE0544002009905DE0F5
:1058A0002F54000804F40070D0B11898C01D20F0E7
:1058B0000700CDE90698089418900020CDE904600F
:1058C0000290189903C9189A08321892CDE900017C
:1058D0002A463846DDE90C13FFF749FD05463DE051
:1058E00004F4807098B10022CDE9039802960594E3
:1058F000189800681899091DCDE9000218912A46E8
:105900003846DDE90C13FFF7F4FC054626E004F009
:10591000400028B1189810F8041B1890C8B20DE088
:1059200004F0800028B1189830F8041B189088B251
:1059300004E0189800681899091D18918246002003
:10594000CDE900A0CDE90398029605942A46384691
:10595000DDE90C13FFF7CDFC054600BF0E98401C97
:105960000E9093E0012604F0020050B905E02A46AB
:105970006D1C2020DDE90C13B8473046761C4045ED
:10598000F5D3189911F8043BD8B22A466D1C18912A
:10599000DDE90C13B84704F0020050B105E02A46D7
:1059A0006D1C2020DDE90C13B8473046761C4045BD
:1059B000F5D30E98401C0E9068E0189850F804AB90
:1059C00018905046B9F1000F01D0494601E04FF060
:1059D000FF310A46014600E0491C0B781BB1131E3B
:1059E000A2F10102F8D10E1A04F4806028B14E45EC
:1059F00001D2304600E04846064604F0020050B9A5
:105A000005E02A466D1C2020DDE90C13B84730461E
:105A1000761C4045F5D306E01AF8010B2A466D1CAA
:105A2000DDE90C13B8479AF8000040B104F4806037
:105A30000028F1D0B9F10000A9F10109ECD104F07E
:105A4000020050B105E02A466D1C2020DDE90C1350
:105A5000B8473046761C4045F5D30E98401C0E9052
:105A600014E02A466D1C2520DDE90C13B8470E987A
:105A7000401C0E900AE02A466D1C0E990878DDE95C
:105A80000C13B8470E98401C0E9000BF00BF00BF1B
:105A90000E98007800287FF410AD0D98854201D251
:105AA000284601E00D98401E02460020DDE90C1357
:105AB000B84728460FB0BDE8F08F2DE9F041044605
:105AC0000E46002774B13146204600F02DF80546F9
:105AD000B5F5004F05D20C2D01D9284600E00C2069
:105AE000074600BF3846BDE8F081024600BF481EA9
:105AF000084018B100BF00BF00BFFEE700BF481E4E
:105B00001040101A704710B502464B1E13444C1E2D
:105B100023EA040000BF4B1E0B401BB100BF00BFB7
:105B200000BFFEE700BF10BD024600BF481E084090
:105B300018B100BF00BF00BFFEE700BF481E104401
:105B40004B1E9843704700002DE9F04180460E46F9
:105B5000444601206086002500270DE056F8270006
:105B600025A1FAF7CDFE10B1681C85B202E0608E67
:105B7000401C6086781C87B256F8270020B156F882
:105B8000270000780028E9D1208EA84201D1BDE885
:105B9000F081A06A20B1A06A1FF0F4FA0020A06290
:105BA000E06A20B1E06A1FF0EDFA0020E062E80050
:105BB0001FF01AFAA06200BFA06A18B900BF00BFA8
:105BC00000BFFEE700BF68001FF00EFAE06200BFF2
:105BD000E06A18B900BF00BF00BFFEE700BFA06ABF
:105BE00008B1E06A00B900256900E06A1FF0E1FC35
:105BF000258600BFCBE700000A0000002DE9F84F22
:105C000081460E46924699F8090000F007000228E6
:105C100001D1304600E050468346564501DD30460E
:105C200000E050460746032000EB470020F0030049
:105C300000F110053948006839490968A0EB0108EE
:105C4000002405EB080037490968884206D233482A
:105C50000468606820F0004060603AE03148006805
:105C6000854221D813E04FF0FF30009000226946B2
:105C70002D480FF075FD002269462C480FF070FD8D
:105C80002648006826490968A0EB010800BF08EB18
:105C90000500244909688842E5D8204804686068FE
:105CA00020F00040606014E028461FF09DF9044693
:105CB00000BF1CB900BF00BF00BFFEE700BF14B9A2
:105CC0000020BDE8F88F606820F0004000F100403F
:105CD000606032465946484601F0E2FE2060606846
:105CE00000F04040401C6060606820F080406060D0
:105CF000A781A4F80EB06068C00F20B1204600F163
:105D00001001A16008E0054800681030A060034859
:105D100000682844014908602046D2E75401002069
:105D2000B002002050010020B50E010839590108C9
:105D3000F0B585B006460D46344600200490039029
:105D4000029094F83C0000F0030020B1012838D004
:105D5000022866D000BF94F83C0000F003005A49C6
:105D6000097888421BD02620005D00EB001000EB74
:105D70004000142190FBF1F0544908702720005D89
:105D800000EB001000EB4000142190FBF1F05049B3
:105D9000087094F83C0000F003004B49087002A81A
:105DA00003A9CDE9001005EB45014FF6FF7202EAA9
:105DB000410004AB46490A78444909780AF050FD8D
:105DC0005FE094F83C0000F003003F490978884206
:105DD0001AD0A08C00EB400040024FF4B471B0FB2D
:105DE000F1F03C4908802720005D00EB001000EB3B
:105DF0004000142190FBF1F03549087094F83C0004
:105E000000F003003049087002A803A9CDE9001092
:105E1000E9B204AB2E4802782E4800880AF020FD33
:105E20002FE094F83C0000F00300274909788842ED
:105E30001AD0A08C00EB400040024FF4B471B0FBCC
:105E4000F1F0244908802620005D00EB001000EBF3
:105E50004000142190FBF1F01C49087094F83C00BC
:105E600000F003001849087002A803A9EAB204ABC5
:105E7000CDE9001015480178164800880AF0F0FCBA
:105E800000BF00BF9DF810009DF80C109DF8082081
:105E9000D708BDF8003067F304038F080093BDF8FE
:105EA000003067F34A13C7080093BDF8003067F36A
:105EB000CF230093BDF800703B460193BDF804105A
:105EC000084605B0F0BD00000602002004020020D4
:105ED000050200200202002010B5012007490870C9
:105EE0000748FEF786FC20B90648006829F0B8FB91
:105EF00003E00448006829F0BFFB10BD98020020B1
:105F0000B4CA00209C02002010B5044694F83E005C
:105F1000C0F3400050B9A08F002807DDA08F4FF6D6
:105F2000FF71884202D0A08F401EA087A08FA8B921
:105F3000606B20B194F83E00C0F3400070B1214680
:105F40001748FEF7D5FCFFF7C7FFE06810B1204601
:105F5000E168884720461FF015F91FE0A06B40421A
:105F6000E062606BD0B194F83E10C1F3400111B90A
:105F7000216B4942E16294F83E104908C94394F804
:105F80003E2061F3410284F83E20E069616AE161EC
:105F90006062A06A616BA162606300BF10BD000017
:105FA000B4CA00202DE9F04180464248006829F03B
:105FB000D3F906464048007880F001003E49087059
:105FC0003E48FEF716FC04466BE000203C49087092
:105FD00094F83E00C0F3800037490978884253D0D6
:105FE000354801782C34A07C61F38200A0742068CD
:105FF0008719A07C2C3CC0F3C00010BBE06A0028CD
:106000001FDC002F1DDB94F83E0000F0010060B99A
:10601000206950B12046216988470546E069284437
:10602000E061606A2844606200BFA06810B1204649
:10603000A168884794F83E0020F00800083084F8F2
:106040003E00E06A3044E062E06A00281BDBD4E9ED
:106050000A10884201DDA06AE0622046A1698847F3
:106060000546206AA84206D02562606818B1294614
:10607000D4E900029047D4E90A10884202DB2046A6
:10608000FFF742FF00BF00BF0D48007820B10B486A
:10609000FEF7AFFB044604E021460848FEF7C1FBCB
:1060A0000446002C91D129F064F902490860BDE84A
:1060B000F08100009402002099020020B4CA002060
:1060C00098020020F7B582B004460E4614B9049831
:1060D00005B0F0BD00BF63223146204622F028FD06
:1060E0000190019D00BFBDB12868A8B100BF642226
:1060F0003146204622F01CFD01900198C0B20746AF
:106100004FB13A462B682846049998470190BDF84C
:106110000400ADF8100000BF0498D9E770B504463C
:106120000D46606818B129466068FFF7F7FF2068E0
:1061300018B1294620462268904770BD70B50546C3
:106140000C46A1B2284613F03FFE70BD70B505465F
:106150000C46A1B2284613F088FE70BD10B50DF0B4
:10616000CDFC10BD70B505460C46164606E0284627
:106170006A1C95B200F008F804F8010B301EA6F175
:1061800001018EB2F3D170BD70B5044600260DF04A
:1061900079FD2112A02202EB4101C8B20DF03CFDB5
:1061A0000DF0B6FD2546E11704EB11610912A4EBD1
:1061B0000121C8B20DF030FD0DF0AAFD0DF062FD19
:1061C000A1200DF029FD0DF0A3FD00200DF0F6FC3F
:1061D00006460DF07DFD304670BD70B505460C4697
:1061E000164606E02178284600F009F8681C85B2BA
:1061F000641C301EA6F101018EB2F3D170BD70B5E2
:1062000004460E460DF03EFD2112A02202EB410194
:10621000C8B20DF001FD0DF07BFD2546E11704EB42
:1062200011610912A4EB0121C8B20DF0F5FC0DF0CB
:106230006FFD30460DF0F0FC0DF06AFD0DF048FDED
:106240000A2001F0E9FF70BD70B504460D4600BF9D
:10625000204600F03BF818B100BF00BF00BFFEE7CA
:1062600000BF284600F050F9001D616808446060D6
:10627000204600F03AF8204670BD70B505460C4641
:10628000284600F041F904F11001884201D30120B1
:1062900070BD0020FCE70146A1F1080070477CB505
:1062A00005460C46204600F02FF906466A4601A92D
:1062B0002AF016FA21462846DDE900320EF0D2FD1A
:1062C0007CBD0146087900F00100704710B5044616
:1062D000204600F019F908B9012010BD0020FCE7A4
:1062E0000146087900F00200704770B50446204668
:1062F00000F097F805462C60284670BD7CB5064630
:106300000C4600200190009000256CB16A4601A95E
:1063100020462AF002FA0198092805DA6A4601A9FE
:1063200030462CF0DBFB054685B100BF284600F067
:10633000EBF8A04203D200BF00BF00BFFEE700BFE2
:1063400029463046DDE900322CF030F828467CBD85
:1063500070B504462046FFF7C8FF0546284600F002
:10636000BEF8204600F0B6F870BD70B50446204671
:1063700000F057F80546284600F0B6F8204600F031
:10638000BEF870BD70B506460D46284600F049F8C7
:10639000044600BF1CB900BF00BF00BFFEE700BF3E
:1063A0002046FFF78EFF90B100BF2846FFF78EFF13
:1063B00018B100BF00BF00BFFEE700BF2146304656
:1063C00000F076F821462846FFF73EFF05462846AE
:1063D00070BD70B506460D462846FFF781FFF0B147
:1063E000284600F057F8044600BF1CB900BF00BFA4
:1063F00000BFFEE700BF00BF2046FFF762FF18B9ED
:1064000000BF00BF00BFFEE700BF2146304600F0DE
:106410004FF829462046FFF717FF054600BF2846DC
:1064200070BD2DE9F0410446204600F06DF8061FCE
:10643000204600F0B8F8074631462AF035FC0546FC
:1064400000BF2046FFF742FF18B100BF00BF00BFEA
:10645000FEE700BF2846BDE8F0812DE9F041064681
:106460000C461546002794B100BF1DB900BF00BF00
:1064700000BFFEE700BF2A462146304600F097F8ED
:106480002046FFF772FF204600F08DF80746384699
:10649000BDE8F08110B5044600BF2046FFF720FF9D
:1064A00018B900BF00BF00BFFEE700BF206810BDE5
:1064B0007CB505460C46204600F026F806466A469E
:1064C00001A92AF00DF921462846DDE900322BF01A
:1064D0006DFF7CBD416841F001014160704741683A
:1064E00041F0020141607047416821F002014160C2
:1064F0007047426802F003030B43436070474168F2
:1065000021F00101416070470146486820F0030016
:1065100070472DE9F04706460C46304600F043F838
:106520008046211F2AF0C0FB07463046FFF7ECFFEC
:10653000211D451A00BF384600F035F8814638461F
:1065400000F031F880460421FFF7DDFA814503D0E1
:1065500000BF00BF00BFFEE700BF00BF3046FFF72F
:10656000D3FF2919091D884203D000BF00BF00BF17
:10657000FEE700BF29463846FFF7BBFF00BF38469D
:10658000FFF7C2FF0C2803D200BF00BF00BFFEE729
:1065900000BF21463046FFF7ACFF3846FFF7D8FE74
:1065A0003846BDE8F087014601F1080070472DE943
:1065B000F04106460C46154600BF2046FFF781FE17
:1065C00018B900BF00BF00BFFEE700BF2946204644
:1065D000FFF753FE78B129462046FFF79AFF07469A
:1065E0002046FFF782FE3846FFF779FF39463046EE
:1065F000FFF755FE00BFBDE8F0812DE9F0410646EA
:106600000C46154600BF2046FFF75BFE18B100BFE1
:1066100000BF00BFFEE700BF29462046FFF72DFE62
:1066200088B129462046FFF774FF07463846FFF732
:106630005BFF39463046FFF7A5FE07463946304630
:10664000FFF72DFE00BFBDE8F0812DE9F8430646B7
:1066500034461CF085FD804640461CF0C6FD78BBE4
:1066600030461AF048F938B3304619F0C0FF208F91
:10667000E18E884212D0E08E2087E08E00906A463C
:106680001C2130461AF024FC0746012F02D0384660
:10669000BDE8F883304623F093F800BF40461CF075
:1066A000B4FD0546042D06D1304620F0C3FE074652
:1066B00000211BF048FB09E030461AF07FF905E0A5
:1066C000FFE7208FE086304623F07AF80120DFE7ED
:1066D0002DE9F041044620461AF0F4FB0546284611
:1066E00020F002FF0646284614F01CFC0746012253
:1066F0003946304627F0E8FFBDE8F0810146C1F396
:10670000C01070470146C1F3801070470146C1F3C5
:10671000C01070470146C1F3002070470146C1F325
:10672000C00070470146C1F3401070470146C1F3F5
:10673000402070470146C1F3003070470146C1F365
:10674000001070472DE9F04F89B004460D46002136
:10675000204620F064FD30B91C2128461EF029FF98
:1067600009B0BDE8F08F2946204600F00BFB294612
:10677000204600F07DF80021204621F083FF08909C
:106780000021204622F004F907900021204621F044
:1067900039FD012800D100E000208146002120467B
:1067A00022F0C6FB07460021204621F019FE0646CE
:1067B00042F2D170874205D1608CC0F3802008B9C5
:1067C000012000E000208246204620F0C8FD06900F
:1067D00000BF4FF00008244802884146204622F0BE
:1067E000A7F903900398C0B200BF8346AA6829693D
:1067F0002868CDE90209CDE900125A465146089BA6
:1068000006980CF0C5FC288342F2D170864205D16F
:10681000608CC0F3402008B9012000E00020059002
:10682000204620F07DFD049000BF4FF000080F4887
:1068300002884146204622F07BF903900398C0B2BB
:1068400000BF83460023EA6869686869CDE90213DE
:10685000CDE900025A46079BDDE904010CF098FCE3
:10686000688300BF7CE700007A0100207E010020E1
:106870002DE9F34F87B00C4607980BF0A7FC804634
:10688000079820F06CFD0690404601F0BFF92061AA
:10689000216948001EF0E2FB2060216948001EF0DB
:1068A000DDFBA060002548E05848029038F915004B
:1068B00041F69A7188423FD10020019029E0019968
:1068C000079820F0ACFC00905149009822F0E6FBBC
:1068D00000B11BE000980BF097FC8246BAF1010F63
:1068E00000D013E000980BF07FFC8346AB4500D04E
:1068F0000CE0009822F06AFB0299884201DA0298C3
:1069000002E0009822F062FB029000BF0198401C58
:106910000190079820F0A1FC01998842CFD80298F5
:10692000002804DB0298A16821F8150003E000218B
:10693000A06820F8151000BF6D1C2069A842B3D8CC
:106940000026B14600251BE038F9150041F69B7181
:10695000884202DB411A0E4411E041F69A718842E6
:1069600006D1A16831F8151049440FFA81F906E003
:10697000A16821F8150009EB00010FFA81F96D1CDF
:106980002069A842E0D80021079821F07BFE0590FD
:106990002169491EDDE9050200FB112000B20690C5
:1069A0000698A0EB090007B2002F00DA00274FF08D
:1069B000FF30049000200390002513E038F9150003
:1069C00041F69B7188420CDB421A11B207FB01F2BF
:1069D000B2FBF6F212B2A36823F8152004950391D6
:1069E00000BF6D1C2069A842E8D8049800280ADB83
:1069F0000398301A7843B0FBF6F0381A01B2A26857
:106A0000049822F8101009B0BDE8F08F01E0FFFFF4
:106A1000010006002DE9FC5F0546002211462846CC
:106A200023F094FF0021284621F053FC81460021E9
:106A3000284621F0D4FF484407B20021284621F01F
:106A400085FD48440FFA80FA284621F041FB38447E
:106A500050440FFA80FB3B4E284620F0FEFB01908D
:106A60004FF000085CE0A868006850F828403649FC
:106A7000204622F013FB00B150E0204622F01EFF1A
:106A8000002839D10021204621F054FB00900098C5
:106A900030B1012807D0022804D0032815D100E026
:106AA00000BF00BF00BFB4F91A10B5F91600081AEC
:106AB000401CB04201DA304605E0B4F91A10B5F9CD
:106AC0001600081A401C06B214E00021204622F0ED
:106AD00070FA70B904F1140013F0A1FA3844B0420E
:106AE00001DA304604E004F1140013F098FA384457
:106AF00006B200BF00BF10E0B4F91A10B5F91600D5
:106B0000081A401CB04201DA304605E0B4F91A1008
:106B1000B5F91600081A401C06B200BF08F10108BA
:106B2000019880459FD30748864209D006EB0A00AA
:106B300006B25E4502DD3046BDE8FC9F5846FBE7E5
:106B40005846F9E701E0FFFF010004002DE9FC5F72
:106B5000054600221146284623F0DCFE0021284687
:106B600021F0B7FB82460021284621F075FE5044F3
:106B70000FFA80F80021284621F0C5FD50440FFA95
:106B800080F9284621F0B4FA4844404400B201900C
:106B9000724C284620F061FB83460021284621F0F4
:106BA0000AFB012866D100265BE0A868006850F85F
:106BB00026706B49384622F071FA00B150E0384631
:106BC00022F07CFE002839D10021384621F0B2FAAB
:106BD0000090009830B1032805D0062804D008287A
:106BE00015D102E000BF00BF00BFB5F91800B7F92A
:106BF0001410401A401CA04201DA204605E0B5F905
:106C00001800B7F91410401A401C04B214E0002117
:106C1000384622F0C1F970B907F1140013F072FA86
:106C20004044A04201DA204604E007F1140013F0CA
:106C300069FA404404B200BF00BF10E0B5F9180083
:106C4000B7F91410401A401CA04201DA204605E0B2
:106C5000B5F91800B7F91410401A401C04B200BF6F
:106C6000761C5E45A1D33D48844269D004EB0900FF
:106C700004B265E000265BE0A868006850F8267062
:106C80003749384622F00AFA00B150E0384622F07F
:106C900015FE80BB0021384621F04CFA0090009888
:106CA00030B1012805D0042804D0072815D102E00E
:106CB00000BF00BF00BFB7F91800B5F91410401AA3
:106CC000401CA04201DA204605E0B7F91800B5F9EA
:106CD0001410401A401C04B215E00021384622F07E
:106CE00068F978B907F1140013F00CFA4844A0428F
:106CF00002DA204605E008E007F1140013F002FA7A
:106D0000484404B200BF00BF10E0B7F91800B5F95D
:106D10001410401A401CA04201DA204605E0B7F9E1
:106D20001800B5F91410401A401C04B200BF761CBC
:106D30005E45A1D30948844202D004EB080004B2A6
:106D40000648844202D10198BDE8FC9F0198844224
:106D500001DD2046F8E70198F6E7000001E0FFFFBB
:106D60000100040010B5044620681EF0F3F96068C5
:106D70001EF0F0F9A0681EF0EDF9E0681EF0EAF9E7
:106D800010BD00002DE9F34F87B00C4607980CF0BA
:106D90000DF88046404600F039FF606161694800A7
:106DA0001EF05CF96060616948001EF057F9E06010
:106DB000002548E05948029038F9150041F69A71CB
:106DC00088423FD10020019029E00199079820F0E6
:106DD00026FA00905249009822F060F900B11BE0B9
:106DE00000980CF0ABF88246BAF1010F00D013E026
:106DF00000980CF093F88346AB4500D00CE0009867
:106E000020F022FB0299884201DA029802E0009801
:106E100020F01AFB029000BF0198401C01900798D7
:106E200020F01BFA01998842CFD80298002804DB91
:106E30000298E16821F8150003E00020E16821F8DC
:106E4000150000BF6D1C6069A842B3D80026B1468A
:106E500000251BE038F9150041F69B71884202DBE2
:106E6000411A0E4411E041F69A71884206D1E16858
:106E700031F8151049440FFA81F906E0E16821F86C
:106E8000150009EB00010FFA81F96D1C6069A84239
:106E9000E0D80021079821F07BFD0690079820F0AC
:106EA0003FFA01466269521E069800FB121000B2BA
:106EB00005900598A0EB090007B2002F00DA002723
:106EC0004FF0FF30049000200390002511E038F9C6
:106ED000150041F69B7188420ADB421A11B207FB8A
:106EE00001F2B2FBF6F212B2E36823F8152000BFFC
:106EF0006D1C6069A842EAD8049800280ADB039850
:106F0000301A7843B0FBF6F0381A01B2E268049800
:106F100022F8101009B0BDE8F08F000001E0FFFF7B
:106F2000010006007CB504460D46164628882189D6
:106F3000084400B2ADF8000068886189084400B2D6
:106F4000ADF80200A8882189084400B2ADF8040019
:106F5000E8886189084400B2ADF806003246694607
:106F60002046636998477CBDF8B505460E462C4619
:106F7000206B10B1206B007818B9606B08B9012044
:106F8000F8BD606B58B1284627F093FF07461049BB
:106F900009688847616B884201D30020F0E7206BC5
:106FA00098B1002000900AE069460A4A206B1268F6
:106FB00090470746B74201D10120E1E700BF206BAF
:106FC0000099405C0028EFD1DAE70120D8E7000003
:106FD000F0020020E00200202DE9FF4F8FB00F46A5
:106FE000209DF87800F0010008B1FA4800E0FA4866
:106FF0000E90F87800F0010008B1F84800E0F84879
:107000000D90F87800F0010008B9F44800E0F44869
:107010000C9001200B90B5E000220B9200206A88B2
:10702000B5F804C0A2EB0C0211B200261AE006EB80
:10703000860CEA6802EB8C02127C02F0010242B973
:1070400006EB860CEA6802EB8C029289024410B2CD
:1070500007E006EB860CEA6802EB8C0212898A1ABA
:1070600011B2761C2A69B242E1D8002685E006EB0F
:10707000860CEA6802EB8C02127C02F00102002A04
:107080007AD191FBF0F80FFA88F306EB8609D5F870
:107090000C8008EB8908B8F80C8008FB03F80FFA9D
:1070A00088F206EB8609D5F80C8008EB8908B8F958
:1070B000049006EB860AD5F80C8008EB8A08B8F92C
:1070C0000680904501DD904607E006EB860AD5F87C
:1070D0000C8008EB8A08B8F90680C14508DD06EB8C
:1070E0008609D5F80C8008EB8908B8F9048013E00C
:1070F00006EB8609D5F80C8008EB8908B8F90680FC
:10710000904501DD904607E006EB8609D5F80C8036
:1071100008EB8908B8F90680C44694450BD04FF0B7
:10712000010806EB860AD5F80C9009EB8A09C9F824
:107130001080CDF82C8006EB8609D5F80C8008EB82
:107140008908A8F808C006EB8609D5F80C8008EB7A
:107150008908B8F80C80A0EB08080FFA88F006EB55
:107160008609D5F80C8008EB8908B8F80880A1EBEF
:1071700008080FFA88F100BF761C2A69B2423FF670
:1071800076AF00BF0B9800287FF446AF00210F9820
:1071900021F02BF8012800D100E000200A90002007
:1071A0000990089008A809A9CDE9001029890BB217
:1071B000B5F9022038781E9929F079FDF87800F0A9
:1071C000010048B10A9838B10F9820F0C8F8BDF80E
:1071D0002410084400B2099011990F9820F01FF86C
:1071E00004468AE17F49204621F058FF40B1F878F3
:1071F000C0F3800111AA0F980BF013FC04467CE148
:107200000021204621F0C2F807900798002858D0A6
:1072100000200390002610E006EB8601E86850F895
:107220002100A04208D106EB8600E96801EB80004E
:10723000B0F90800039003E0761C2869B042EBD84F
:1072400000BFF87800F0010030B1608C20F480605D
:1072500000F58060608405E0608C20F4007000F52B
:107260000070608404F114000D99884703998842E6
:1072700026D0204622F0A4FA00BFA08AADF8040070
:10728000E08AADF80600208BADF80800608BADF801
:107290000A0000BF04F114000E9A0399904701AA56
:1072A0002921204619F014FE204620F01DF922461F
:1072B0002221009019F00CFE204622F081FA00BF36
:1072C00007E0608C20F480606084608C20F40070A3
:1072D0006084002006907878012812D0022819D105
:1072E00004F114000C998847B5F90010491C21F0ED
:1072F0000101081A039000EBD070401000B2069014
:1073000009E004F114000C9988472988081A00B292
:10731000069000E000BF00BFF87800F0010050B117
:107320000A9840B104F114000D998847BDF8241063
:10733000081A00B209900020039043F20C02204684
:10734000039921F0F5FB029002980FFA80F800BF34
:107350000020039043F20D022046039921F0E8FB40
:10736000029002980FFA80F900BF204621F02EFE0D
:107370000590204620F068F8049008F4C040B0F56D
:10738000005F01D1012000E0002030B128F4C040AE
:10739000B0F5FA6F01DC012000E0002090B128F484
:1073A000C040B0F57A7F04DD28F4C040C0F57A70A3
:1073B00001E028F4C04005994843642190FBF1F0B6
:1073C0000FFA80F809F4C040B0F5005F0CD101203D
:1073D0000BE0000043A2010837A2010883A10108C5
:1073E00073A0010801000600002030B129F4C0405C
:1073F000B0F5FA6F01DC012000E0002090B129F423
:10740000C040B0F57A7F04DD29F4C040C0F57A7041
:1074100001E029F4C04004994843642190FBF1F055
:107420000FFA80F9A18A1C98401A40440FFA80FA9A
:10743000E18A1D98401A48440FFA80FBF87800F062
:10744000010010B1BDF9240000E0069850440FFA85
:1074500080FAF87800F0010008B1069801E0BDF963
:10746000240058440FFA80FBBAF1000F02D1BBF19F
:10747000000F1BD0204622F0A3F9A08A504400B28E
:10748000A082208B504401B22183E08A584401B28B
:10749000E182608B584401B26183204622F090F96A
:1074A00001235A465146204622F068FAF87800F047
:1074B000010008B10A9870B904F114000D998847C9
:1074C0001F990844BDF820100844BDF82410084452
:1074D00000B2099008E0BDF820101F980844BDF8DC
:1074E0002410081A00B20990F878C0F3800111AA9C
:1074F0000F980BF096FA044600BF24B1DDE9111095
:1075000081427FF46FAE13B0BDE8F08F2DE9F04FEC
:107510008DB005468946B9F1000F02D10DB0BDE826
:10752000F08FA5F81890286810B128681DF02AFE81
:1075300009EB4901062202EB41001DF055FD2860D0
:1075400000BF286818B900BF00BF00BFFEE700BF3A
:10755000286868600221286801FB0900801CE86037
:107560000421286801FB0900001DA860B9F1010F82
:107570000CD1B420696808700020E96808800120F7
:10758000E96848800020A9680880C7E709F101017F
:10759000C8001DF063FD074609F1010007EB8008F4
:1075A0004FF0000A4FEA890002B20BA90CA800F0C4
:1075B00067F90024BDF93000801007900020039087
:1075C000CCE0002616E00BA90CA800F061F90CA88D
:1075D00000F04BF900B90FE0BDF93000801007A9A9
:1075E00041F82600BDF8300000F0030003A941F87F
:1075F0002600761C042EE6DB00BF042E00D0B3E08C
:107600000A990798884219D1079800B227F8140000
:107610000FFA8AF028F81400DDE9030108440599FF
:10762000084406990844696808556868005D0007C1
:10763000000E69680855601C04B28DE0DDE90701A1
:1076400088422CD0079800B227F814000FFA8AF06D
:1076500028F814000398696808556868005D0007F9
:10766000000E69680855601C04B20798401E00B2FD
:1076700027F814000FFA8AF028F814000498001D67
:107680000599084406990844696808556868005DCA
:107690000007000E69680855601C04B25CE0099997
:1076A000079888422CD0079800B227F814000FFAE8
:1076B0008AF028F81400DDE90301084469680855D8
:1076C0006868005D0007000E69680855601C04B218
:1076D0000798401E00B227F814000FFA8AF028F825
:1076E00014000598083006990844696808556868C8
:1076F000005D0007000E69680855601C04B22BE0AD
:10770000079800B227F814000FFA8AF028F814003E
:10771000DDE903010844059908446968085568686B
:10772000005D0007000E69680855601C04B20798E8
:10773000401E00B227F814000FFA8AF028F814004F
:1077400006980C30696808556868005D0007000EEF
:1077500069680855601C04B20AF1010A0CA800F01F
:1077600084F800287FF42DAF00BF40F2D32109FB3D
:1077700001F00290029880120190601E37F91010FB
:107780000198814205D1601E38F91010019881429C
:1077900026D0DDE90121A1EB8220B0F5007F04DCD9
:1077A00000FB00F14800001407E0C0F5806000FB1A
:1077B00000F148000014C0F10F00019909B227F848
:1077C0001410019909B228F814106A6810556968F4
:1077D000095D0907090E6A681155611C0CB200BFEA
:1077E000A61E0EE038F8160027F8140037F8160029
:1077F00028F814006868805D69680855761E601C6A
:1078000004B2002EEEDA4FF0000B00260020E968EB
:10781000088023E0E96821F81B6037F81600A968A2
:1078200021F81B0010E0A86830F81B0037F916108B
:10783000884203DAA86830F81B0001E037F9160027
:10784000A96821F81B00761C38F91600584501D1AB
:10785000A642E8DB0BF101000FFA80FBA642D9DB60
:1078600038461DF077FC00BF58E60146B1F902002A
:10787000B1F90020904201DC012070470020FCE7B4
:10788000028000234380C2F101031BB20B807047CA
:10789000B1F90020002A07DC0B8842885200D21C74
:1078A0001A4412B20A800CE042880388D21A5200AD
:1078B000521D0B881A4412B20A800288521E12B25C
:1078C00002804288521C12B24280704737B582B0A3
:1078D0001546022D04DCBDF80C10084605B030BD7D
:1078E000BDF80C00C00ABDF8081000EBD1241F2C15
:1078F00001D2204600E01F20BDF8081060F3CF2120
:107900000291BDF80C00C0F34510BDF80810C1F39A
:10791000451144183F2C01D2204600E03F20BDF81D
:10792000081060F34A110291BDF80C0000F01F002E
:10793000BDF8081001F01F0144181F2C01D2204689
:1079400000E01F20BDF8081060F304010291FF2D34
:1079500003D1BDF808100846C0E72A46DDE9020158
:1079600014F00AFD0190BDF804100846B6E717B5FB
:1079700081B01446022C04DCBDF80810084604B09F
:1079800010BDBDF80400C00ABDF80810C90A10FBFC
:1079900001F04109BDF8040061F3CF200190BDF86A
:1079A000040000F01F00BDF8081001F01F0110FBDB
:1079B00001F04109BDF8040061F304000190BDF835
:1079C0000400C0F34510BDF80810C1F3451110FBC9
:1079D00001F08109BDF8040061F34A100190FF2C09
:1079E00003D1BDF804100846C9E72246DDE90101CC
:1079F00014F0C2FC0090BDF800100846BFE737B590
:107A000082B01546022D04DCBDF80C10084605B006
:107A100030BDBDF80C00C00ABDF80810A0EBD124A1
:107A2000002C01DD204600E00020BDF8081060F3C6
:107A3000CF210291BDF80C00C0F34510BDF808102D
:107A4000C1F34511441A002C01DD204600E000205E
:107A5000BDF8081060F34A110291BDF80C0000F067
:107A60001F00BDF8081001F01F01441A002C01DDB1
:107A7000204600E00020BDF8081060F304010291E8
:107A8000FF2D03D1BDF808100846C0E72A46DDE9FE
:107A9000020114F071FC0190BDF804100846B6E72D
:107AA00008B5034600930098484080EA620008BD8C
:107AB0002DE9F84F8046404619F004FA82464046C8
:107AC00019F09FF9064650461FF00EFD81462B2EF9
:107AD00009D1484626F0EBFD0446002221464846DF
:107AE00026F0F2FD3AE00A2E38D1694650461FF0E2
:107AF0007DFD50461FF033FC04460021484620F02F
:107B00008EFB01280AD1204604EBD071BDF900207C
:107B1000C2EB610191FBF4F10DB209E0204604EBE8
:107B2000D071BDF9002002EB610191FBF4F10DB2BF
:107B3000002D00DA00250027484626F0B8FDA842AF
:107B400000D0012701222946484626F0BDFD27B175
:107B500000221C21484619F0BBF900BFBDE8F88F90
:107B600010B58060C06000230361002110E0002494
:107B700000F1140343F82140002206E000F138032D
:107B800003EBC11343F82200521C202AF6DB491CE8
:107B90000929ECDB10BD30B502460B461146B1F9A0
:107BA00024008C8C04F4C044B4F5005F01D101249E
:107BB00000E0002444B1B1F9244024F4C044B4F5F9
:107BC000FA6F01DC012400E00024F4B191F83840A0
:107BD00004F00304012C01D1002016E0B1F9244087
:107BE00024F4C044B4F57A7F06DDB1F9244024F4CE
:107BF000C044C4F57A7403E0B1F9244024F4C044CD
:107C00005C43642594FBF5F420B230BD01460020AE
:107C100000E0401C31F9102041F6FF739A42F8D180
:107C20007047000010B500BF00224FF4807111486A
:107C3000FAF76AF800BF00F01FF800BF01224021E8
:107C40000C48FAF761F800BF00F016F800BF0022F8
:107C500040210848FAF758F800BF00F00DF800BFBF
:107C6000012211020348FAF74FF800BF00F004F8B0
:107C700010BD0000001C024010B5022000F0D8FA30
:107C800010BD000000B587B000BF00BF002001900C
:107C90001A48006840F080001849086008460068EB
:107CA00000F08000019000BF00BF00BF00BF00BF18
:107CB000002001900846006840F0800008600846F7
:107CC000006800F08000019000BF00BF00BF4020AE
:107CD000029011200390012004900320059002A936
:107CE0000748F9F7FDFE4FF48070029002A904489E
:107CF000F9F7F6FE00F0B4F807B000BD30380240E6
:107D0000001C024010B500BF012211020C48F9F717
:107D1000FBFF00BFFFF7B0FF00BF01224021084872
:107D2000F9F7F2FF00BFFFF7A7FF00BF00224021D5
:107D30000348F9F7E9FF00BFFFF79EFF10BD000001
:107D4000001C024070B50546002400261DE06006B8
:107D5000040E00BF012240211148F9F7D5FF00BFF2
:107D6000FFF78AFF4FF480710D48F9F7BBFF08B1A8
:107D7000601CC4B200BF002240210948F9F7C4FFCB
:107D800000BFFFF779FF701CC6B2082EDFDB15B904
:107D9000FFF7B8FF01E0FFF745FF204670BD000088
:107DA000001C024070B50446002525E000BFE00934
:107DB00028B1012211021548F9F7A6FF05E00022BB
:107DC0004FF480711148F9F79FFF00BFFFF754FF90
:107DD00000BF012240210D48F9F796FF00BFFFF7D1
:107DE0004BFF00BF002240210848F9F78DFF00BF7C
:107DF0006006040E681CC5B2082DD7DB00BF012247
:107E000011020248F9F780FF00BF70BD001C02405C
:107E100010B500BF012211021048F9F775FF00BF2D
:107E200000BF012240210D48F9F76EFF00BFFFF7A8
:107E300023FF00BF00224FF480710848F9F764FF68
:107E400000BFFFF719FF00BF002240210348F9F7E8
:107E50005BFF00BFFFF710FF10BD0000001C0240D9
:107E600010B500BF00224FF480710C48F9F74CFFA9
:107E700000BFFFF701FF00BF012240210748F9F7CB
:107E800043FF00BFFFF7F8FE00BF012211020348C5
:107E9000F9F73AFF00BFFFF7EFFE10BD001C0240EC
:107EA00070B50024002500BF012211021648F9F721
:107EB0002BFF00BFFFF7E0FE00BF01224021124868
:107EC000F9F722FF00BFFFF7D7FE09E0601CC4B23C
:107ED000FA2C03DDFFF7C4FF012508E0FFF7CCFE15
:107EE0004FF480710848F9F7FDFE0028EED100BF7D
:107EF00000BF002240210448F9F706FF00BFFFF74A
:107F0000BBFE284670BD0000001C02407CB5064642
:107F10000D4634465020005D00F00100A84233D0E9
:107F20000DB1012000E000205021095D60F3000147
:107F30005020015504F14401684612F060F8BDF884
:107F40000000616A898A084400B2ADF80000BDF8FB
:107F50000210606AC08A084400B2ADF80200BDF8A1
:107F60000400616A898A084400B2ADF80400BDF8D3
:107F70000610606AC08A084400B2ADF8060069467F
:107F8000304621F057FC00BF7CBD37B582B00546B6
:107F900014462146039814F057F80190BDF80410D8
:107FA000084605B030BD2DE9FF4F8DB005460E46A1
:107FB0001446F07A022803DC012011B0BDE8F08FEE
:107FC0003089326901460C901098FCF73BF907465E
:107FD0000FB90020F1E7397D01F01F001AF08FF88A
:107FE00010B14FF006080AE0397D01F01F001AF0C9
:107FF00069F810B14FF0050801E04FF00408386A45
:1080000038B100BF00BF214628463A6A2AF067FF10
:10801000DEE0B869002859D021460BA811F0B0FF66
:10802000308818B97088B0F5807F32D0204612F0C1
:1080300077F8834600BFE0886188401A401C00B290
:108040000890301D7188CDE90010308803B2594680
:108050000BA8089AFBF720FCBDF82C0021880844E7
:1080600000B2ADF82C00BDF82E006188084400B2C3
:10807000ADF82E00BDF830002188084400B2ADF8FC
:108080003000BDF832006188084400B2ADF832001B
:1080900000BF0BAA09A8A968FBF708F98146B9F146
:1080A000000F04D1384601F03AFC012085E7D5F8ED
:1080B00008A009A8A860CDF80080224631462846CD
:1080C000BB6915F003FAC5F808A081E022460BA8A9
:1080D000A968FBF7EBF80A900A9820B9384601F036
:1080E0001EFC012069E70BA812F01AF809900BA8F2
:1080F00012F016F800EB400003901CF0AFFF814631
:10810000D5F808A00BA907A811F03AFF012107A88C
:1081100012F091F8BDF92C00B4F90010401A069045
:10812000BDF92E00B4F90210A0EB010BBDF92E0031
:10813000059042E007AA514602A8FBF7B7F80A905B
:108140000A9800B936E0CDF80090099803B20FFA0A
:108150008BF2069801B238461AF0FEFC049004989F
:1081600001280ED038461AF017FC00BF00BF484661
:108170001CF0F0FF384601F0D2FBC5F808A0002043
:108180001BE702A8A8604B4607AA31462846CDF84F
:10819000008015F09BF9BDF81E00401C00B2ADF840
:1081A0001E00BDF82200401C00B2ADF822000BF109
:1081B000010B00BF0598401C0590BDF932100598D1
:1081C0008142B7DAC5F808A048461CF0C3FF00BFDB
:1081D000384601F0A4FB0120EFE600BF00BF704766
:1081E00070B504460420FAF75BFA0A480460254695
:1081F0004FF47A7045434FF0E020006940F00200F0
:108200004FF0E021086108464561006940F0010037
:10821000086170BD1000002030B50446002504E060
:108220004FF47A7000F004F86D1CA542F8D330BD0D
:1082300070B5034600224FF0E02675690D4E366892
:1082400003FB06F44FF0E026B16910E04FF0E026A2
:10825000B06988420BD0884202D20E1A324402E042
:108260002E1A0E4432440146A24200D300E0EDE74C
:1082700000BF70BD10000020F8B506460C4615463C
:108280000095B4F90630B4F90420B4F90210B4F939
:1082900000000DF0CEFC304614F0D8FDF8BD10B54E
:1082A0000FF018FF01200DF0D7FB10BDF8B5054603
:1082B0002C461AF055FF0646206B27F04DF8316822
:1082C000898B88422CD2606A009094F83C0000F0C0
:1082D000030020B1012806D002280CD107E00020BD
:1082E000ADF8000007E064208DF8020003E0642090
:1082F0008DF8030000BF00BF30461BF0F5F828469C
:10830000009914F03AFC50B100221C21284618F0C4
:10831000DFFD0746012F01D03846F8BD00BF00BF82
:1083200027F027F820630120F7E700002DE9F04F40
:108330009BB0074689461646BA4617A814F043FE76
:108340004FF4A02138461FF00DFF9DF8691060F32F
:1083500082018DF86910304611F01AFF054600EBD6
:10836000D5704FEA60083088404400B2ADF858003C
:108370007088404400B2ADF85A000021384620F021
:10838000A4F81590494603A81EF0FEFC17A80B9010
:108390004FF40030109033480490002005900AF10B
:1083A0003000FCF74BFA044657E02079032800D050
:1083B0004DE0208BADF85C00208A00B2ADF85E0085
:1083C0006079FD2801DD159803E06079159948432F
:1083D00000128DF868002568B5F92000E98B084483
:1083E0000090B5F92030D5E90512A0681CF0E8FD31
:1083F0008346B5F92000E98B08440090B5F9203098
:10840000D5E90512E0681CF0DBFD0290608B40446A
:1084100000B2ADF84800149416A80C9003AA1A21D3
:10842000384618F055FD029880B21FFA8BF1CDE95D
:108430000010BDF8480083B216AA17A9484614F0E8
:10844000A4FD03AA1B21384618F042FD00BF2146B7
:108450000AF13000FCF7ECF90446002CA5D11BB062
:10846000BDE8F08F04C8030870B504460D4600222D
:108470002946204607F092FE01222946204607F0B1
:108480008DFE02222946204607F0A6FC042229463A
:10849000204607F0A1FC70BD2DE9F74F9EB00C46B9
:1084A000E078022802DC21B0BDE8F08F1CA82099FA
:1084B00011F078FDB4F9200001282EDD94F8220097
:1084C000FD282ADB208840B3BDF8700014F8231F74
:1084D0004908C1F38001084400B2ADF87000BDF84E
:1084E000720021784908C1F34001084400B2ADF898
:1084F0007200BDF8740021784908C1F3C001401A28
:1085000000B2ADF87400BDF8760014F82319C1F379
:108510004001401A00B2ADF876001E981CA982688E
:108520001AA8FAF7C3FE00B9BDE7E07B00F0070622
:1085300016B9A088199001E0E0881990BDF8641080
:108540006089814200D100261CA815F025FF1890F3
:108550001C2111A8F8F7ACF9A0788DF85D00BDF8E2
:108560006400ADF84C00189860B9208850B94EB935
:108570001CA81190E0788DF85C0011A91E9817F0E6
:1085800023F990E7E078FD2801DBFF2000E0E078A8
:1085900010901CA811F0EEFD0F901CA811F062FDC8
:1085A0000E90DDE90E01814201DA0F9800E00E988D
:1085B0000D90B4F900100D98B1EB600F02DAB4F928
:1085C000000001E00D98401007461AA811F0D2FDF6
:1085D00081464FF0FF300C9000200B90002F01DC03
:1085E000189870B148461CF039FD0B9000233AB240
:1085F0001CA905A816F048FA002105A815F0C6FB2D
:108600000C90BDF86800ADF80C00BDF86C00ADF83A
:1086100010000B98149003A811901690FF208DF86D
:108620005C00A01DDDE90E2119F03CF98046B8F18F
:10863000000F0CD0022E0AD1BDF96810D8F808003E
:1086400000EB4100BDF97010A0EB410012901898AA
:10865000A0B3BDF96A502CE028B2ADF80E0028B2E4
:10866000ADF812004A4610990B981CF068FFBDF94E
:1086700068100FFA89F32AB20B9815F03DFE8DF8B9
:1086800054009DF85400012802D102208DF85400B6
:10869000012E09D1BDF97210691AD8F8080000EB53
:1086A00041000088ADF84C0011A91E9817F08CF815
:1086B0006D1CBDF96E00A842CEDACCE0FFE70025C4
:1086C0005CE0BDF8720028440FFA80FABDF876002D
:1086D000401B0FFA80FBBDF96A00504504DDBDF96F
:1086E0006E00584500DA48E04A4610990B981CF095
:1086F00026FFBDF90C100FFA89F352460B9815F0BE
:10870000FBFD8DF854009DF85400012802D1022091
:108710008DF85400BDF96A00504514DCADF80EA088
:10872000ADF812A0012E0AD1BDF97210AAEB010119
:10873000D8F8080000EB41000088ADF84C0011A902
:108740001E9817F041F8BDF96E00584514DBADF8DE
:108750000EB0ADF812B0012E0AD1BDF97210ABEB1C
:108760000101D8F8080000EB41000088ADF84C008A
:1087700011A91E9817F028F800BF6D1CBD42A0DBA0
:10878000BDF87000ADF80400BDF87400ADF8080045
:10879000BDF87200384400B2ADF80600BDF87600AE
:1087A000C01B00B2ADF80A0001A815F0F5FD00905D
:1087B0000098B0B9AEB9BDF87200384400B2ADF857
:1087C0000E00BDF87600C01B00B2ADF81200109884
:1087D0008DF85C000020149011A91E9816F0F4FF8B
:1087E00038E010988DF85C0001208DF85400BDF938
:1087F0007600A0EB070ABDF97200C51927E00098C2
:1088000070B14A4610990B981CF099FEBDF968109A
:108810000FFA89F32AB20B9815F06EFD8DF854000B
:1088200028B2ADF80E0028B2ADF81200012E09D121
:10883000BDF97210691AD8F8080000EB41000088F1
:10884000ADF84C0011A91E9816F0BEFF6D1C5545E1
:10885000D5DD00BF00BF0B9810B10B981CF07AFC5F
:108860000C98401C28B10C9816F0F6F905A815F0E4
:108870006FFDB8F1000F02D0404619F00AF800BFB2
:1088800011E62DE9F0478EB007460C4615462069E3
:1088900010B90EB0BDE8F087A07E022800DCF8E732
:1088A00020691AF0FDFB0646022E55D1002041F644
:1088B000FF71CDE90001029003460DA8D4E904122E
:1088C00027F042F9284611F055FC814600EBD9709B
:1088D000298801EB6000BDF9348008EBD871A0EB6A
:1088E000610000B2ADF82C00BDF82C00BDF83410CA
:1088F0000844401E00B2ADF83000284611F0B2FB2B
:10890000814600EBD970698801EB6000BDF93680C3
:1089100008EBD871A0EB610000B2ADF82E00BDF8F5
:108920002E00BDF836100844401E00B2ADF83200EB
:1089300003A815F0B3F960690390208BADF8180017
:10894000A07E8DF82600002000900BAA03A93846CF
:10895000236914F0EFFDAEE00DA920691AF048F884
:108960008046B8F1010F02D000BF00BF91E707A811
:1089700014F0C3FDA0788DF82800208BADF82400FA
:10898000E07E8DF82600A07E8DF82700207FE8BBD2
:10899000284611F0EFFB824600EBDA70298801EBE4
:1089A00060000D99C1F38A2909EBD971A0EB610030
:1089B00000B2ADF81400284611F054FB824600EBDB
:1089C000DA70698801EB60000D994FEA515909EBA3
:1089D000D971A0EB610000B2ADF81600BDF814002B
:1089E0000D99C1F38A210844401E00B2ADF8180069
:1089F000BDF816000D9900EB5150401E00B2ADF8C5
:108A00001A0005AA07A93846236900E002E014F01D
:108A100025FD4FE06888ADF81600BDF816000D99E9
:108A200000EB5150401E00B2ADF81A003BE0288820
:108A3000ADF81400BDF814000D99C1F38A21084463
:108A4000401E00B2ADF8180017E005AA07A9384685
:108A5000236914F003FDBDF814000D99C1F38A21B8
:108A6000084400B2ADF81400BDF818000D99C1F328
:108A70008A21084400B2ADF81800BDF91400B5F918
:108A800004108842E1DDBDF816000D9900EB51504D
:108A900000B2ADF81600BDF81A000D9900EB515068
:108AA00000B2ADF81A00BDF91600B5F906108842FB
:108AB000BDDD00BF00BF00BFEBE62DE9F04F87B082
:108AC00083460C46164694F82200022802DC07B0C2
:108AD000BDE8F08F208C00B9F9E794F82300C0F3CB
:108AE000440000B9F3E794F8230000F0010000B15E
:108AF000EDE7304611F03EFB8146304611F0B2FA08
:108B00000746B4F90050B94501DA484600E0384656
:108B10008246B5EB6A0F01DD4FEA6A05314605A8CA
:108B200011F040FABDF9141094F82300400800F049
:108B3000040010B1B4F9200003E0B4F92000284487
:108B40004042084400B2ADF81400BDF9181094F882
:108B50002300400800F0080010B1B4F9200003E041
:108B6000B4F9200028444042081A00B2ADF81800B9
:108B7000BDF9161094F82300400800F0020010B16F
:108B8000B4F9200003E0B4F920002844404208442E
:108B900000B2ADF81600BDF91A1094F82300C0F326
:108BA000400010B1B4F9200003E0B4F920002844DB
:108BB0004042081A00B2ADF81A00208C281A0FFAA9
:108BC00080F8B8F1000F01DA4FF00008A07894F8AF
:108BD0002210CDE90210E08BADF804002BB205AAFB
:108BE00031465846CDF8008000F002F800BF6EE72D
:108BF0002DE9FF4FA3B00D4616461F463298FF28B9
:108C000001DBFF2000E032983290284615F0C4FBCB
:108C10002290229868B967B9309850B9329800907C
:108C200032462946319B239800F0A9FA27B0BDE8C7
:108C3000F08F23982946826820A8FAF737FB00B9FD
:108C4000F4E720A811F096FA81461C2119A81CF01F
:108C5000B0FC48461CF002FA1C904FF0FF30189010
:108C6000002F0ADD00233A46294612A815F00CFF12
:108C7000002112A815F08AF81890012331460CA89B
:108C8000309A15F001FF00210CA815F07FF80B9029
:108C900009A819901E90BDF8C400ADF86C00329878
:108CA0008DF87C0033988DF87D00B5F900003844CC
:108CB000B6F90010884203DDB5F90000384401E040
:108CC000B6F9000000B2ADF81C00B5F90400C01BF5
:108CD000B6F90410884203DAB5F90400C01B01E0BC
:108CE000B6F9040000B2ADF82000B5F9020038442E
:108CF000B6F90210884203DDB5F90200384401E0FC
:108D0000B6F9020000B2ADF81E00B5F90600C01BAE
:108D1000B6F90610884203DAB5F90600C01B01E077
:108D2000B6F9060000B2ADF8220007A811F022FA49
:108D30000690B5F90200B6F90210884201DC012064
:108D400000E000208246B5F90600B6F90610884218
:108D500001DB012000E000208346229800284CD04F
:108D6000BDF88000ADF82400BDF88400ADF82800FF
:108D7000BDF9824029E0BAF1000F04D1BDF91E000F
:108D8000A04200DD20E0BBF1000F04D1BDF92200BC
:108D9000A04200DA1DE020B2ADF8260020B2ADF806
:108DA0002A0049461C981CF03BFCBDF980100FFAC4
:108DB00089F322B21C9815F09FFA8DF8740019A956
:108DC000239816F001FD00BF641CBDF98600A04287
:108DD000D1DA00BF0CA815F0BBFA0B9815F03CFFD8
:108DE0001898401C28B112A815F0B2FA189815F07E
:108DF00033FF1C981CF0AEF918E7B5F90000B6F97E
:108E00000010884201DC012000E000200590B5F947
:108E10000400B6F90410884201DB012000E00020C4
:108E2000049001200390059860B1049850B1BAF104
:108E3000000F07D0BBF1000F04D00698322801DAEA
:108E40000020039001208DF87400BAF1000F15D0B6
:108E5000039898B1BDF81C00ADF82400BDF82000BF
:108E6000ADF828006888ADF826007088401E00B272
:108E7000ADF82A0019A9239816F0A6FCBBF1000F43
:108E800015D0039898B1BDF81C00ADF82400BDF8CA
:108E90002000ADF82800F088401C00B2ADF8260094
:108EA000E888ADF82A0019A9239816F08DFC0598DA
:108EB00098B12888ADF824003088401E00B2ADF883
:108EC0002800BDF81E00ADF82600BDF82200ADF860
:108ED0002A0019A9239816F077FC049898B1B08855
:108EE000401C00B2ADF82400A888ADF82800BDF8F9
:108EF0001E00ADF82600BDF82200ADF82A0019A921
:108F0000239816F061FC0398F0BBBDF88000ADF823
:108F10002400BDF88400ADF82800B5F90200B6F9C8
:108F20000210401AB84201DA384604E0B5F90200EE
:108F3000B6F90210401A00B20290002442E068889C
:108F4000204400B20190E888001B00B20090BDF9F7
:108F500082100198814205DDBDF98610009881429A
:108F600000DA2EE049461C981CF05AFBBDF924108B
:108F70000FFA89F3019A1C9815F0BEF98DF8740068
:108F8000BDF98210019800E020E0814209DC0198DF
:108F9000ADF826000198ADF82A0019A9239816F01B
:108FA00013FCBDF986100098814209DB0098ADF8EA
:108FB00026000098ADF82A0019A9239816F004FCA1
:108FC00000BF641C02988442B9DBC7E0BDF8800092
:108FD000ADF82400BDF98410BDF91C00401E81428B
:108FE00002DABDF9840002E0BDF91C00401E00B2A7
:108FF000ADF8280009A811F0BDF88046B8F1000FBF
:1090000048DD059810B9BAF1000F1ED0BDF98240B5
:1090100017E020B2ADF8260020B2ADF82A00414694
:109020001C981CF0FDFABDF92410434622B21C988E
:1090300015F062F98DF8740019A9239816F0C4FB95
:10904000641CBDF91E00A042E3DC059810B9BBF119
:10905000000F1FD0BDF92200441C17E020B2ADF86C
:10906000260020B2ADF82A0041461C981CF0D8FA20
:10907000BDF92410434622B21C9815F03DF98DF835
:10908000740019A9239816F09FFB641CBDF9860093
:10909000A042E3DABDF98010BDF92000401C8142F6
:1090A00002DDBDF9800002E0BDF92000401C00B2E5
:1090B000ADF82400BDF88400ADF8280009A811F02F
:1090C00059F88046B8F1000F48DD049810B9BAF19C
:1090D000000F1ED0BDF9824017E020B2ADF8260087
:1090E00020B2ADF82A0041461C981CF099FABDF94F
:1090F0002410434622B21C9815F0FEF88DF8740037
:1091000019A9239816F060FB641CBDF91E00A0424B
:10911000E3DC049810B9BBF1000F1FD0BDF92200A9
:10912000441C17E020B2ADF8260020B2ADF82A00AA
:1091300041461C981CF074FABDF92410434622B233
:109140001C9815F0D9F88DF8740019A9239816F019
:109150003BFB641CBDF98600A042E3DA0CA815F0C5
:10916000F7F80B9815F078FD12A815F0F1F818989B
:1091700015F072FD1C981BF0EDFF00BF56E52DE9C0
:10918000FF4F89B080460C461546DDF858901C21EB
:1091900068461CF00EFA07A80090BDF83000ADF844
:1091A00008008DF81890B4F90200B5F90210884251
:1091B00001DC012000E000200646B4F90600B5F904
:1091C0000610884201DB012000E000200746B4F9C8
:1091D0000000B5F90010884201DC012000E0002009
:1091E0008246B4F90400B5F90410884201DB01207D
:1091F00000E0002083462088ADF81C00A088ADF870
:1092000020006088ADF81E006888401E00B2ADF8EE
:1092100022001EB16946404616F0D6FAE888401C86
:1092200000B2ADF81E00E088ADF822001FB169461B
:10923000404616F0C9FA2088ADF81C002888401E68
:1092400000B2ADF8200016B1B5F9020001E0B4F9A2
:109250000200ADF81E0017B1B5F9060001E0B4F93F
:109260000600ADF82200BAF1000F03D0694640466F
:1092700016F0AAFAA888401C00B2ADF81C00A0881D
:10928000ADF82000BBF1000F03D06946404616F050
:109290009BFA0DB0BDE8F08F2DE9FF4F93B0074664
:1092A000904699464FF6FF70804502D117B0BDE851
:1092B000F08F3E46746A208C1290208C484506D070
:1092C000A4F82090608C20F00400001D60844FF40E
:1092D000802120461FF006FD11904FF4802120468A
:1092E0001FF07DFD0546119818F020F8824638469B
:1092F00009F09DFA8346BBF81600ADF83E00BDF9B3
:109300003E000AEB050108FB010000B2ADF83E008B
:10931000284605EBD071BDF83E20A2EB610109B2F1
:10932000ADF83E10BDF83E0050442844401E00B247
:10933000ADF84200706A808AADF83C00706A008B1C
:10934000ADF8400001A815F0B5FC01AA4FF480214A
:10935000204620F086F80FAA01A9149815F08EFC7B
:1093600012982084608C20F00400608400BF9DE788
:109370002DE9F04F91B007460D46904699464FF6BD
:10938000FF70804502D111B0BDE8F08F1097109F9B
:109390007C6A208C0F90208C484506D0A4F8209041
:1093A000608C20F00400001D608407A814F076FC97
:1093B00007AA4FF4802120461FF078FF4FF4802148
:1093C00020461FF00CFDADF82E00384609F02FFAAC
:1093D000064606B9D7E7079817F0A8FF8246F08A35
:1093E000ADF81600BDF91600BDF92E10514408FB6A
:1093F000010000B2ADF81600BDF92E0000EBD071EF
:10940000BDF81620A2EB610109B2ADF81610BDF847
:1094100016005044BDF82E100844401E00B2ADF8AE
:109420001A00A08AADF81400208BADF8180005AA28
:1094300003A8A968F9F73AFF8346BBF1000F13D0E0
:10944000A868029003A8A86030461AF0BDFD0190FC
:109450000020009006F1140207A92846019B14F091
:1094600069F80298A86000BF0F982084608C20F0F3
:109470000400608400BF86E72DE9F04105463548C9
:10948000006813F0FDFC04462868866BF06A10B192
:109490003046F16A8847206890B1606880B10CE07E
:1094A0002C4800680068806A38B12A4A126810683F
:1094B000284A12681268916A884720690028EFD10B
:1094C00001202061234800680068C068806900F0BE
:1094D000010050B11F4800680068C0688069C0F38F
:1094E000400010B10120606101E00020606160690E
:1094F00008B1012000E0002007462868406998B1C3
:109500002868007CC0F3011048B12868007CC0F3D3
:10951000800020B1D6E9001000F01EF804E0D6E982
:1095200000212868FDF7FEFC206880B1606870B1FA
:109530002868007C00F0010000B147B12168A068F4
:10954000884202D16068A06001E02068A060BDE8A8
:10955000F08100004C0100202DE9F34F83B0044658
:10956000884800680568874800680068007CC0F388
:10957000400040B1287CC0F3800020B100BF00BF94
:1095800005B0BDE8F08F287CC0F3011002280AD195
:1095900021462846049A00F004F921462846049AF8
:1095A000FDF7C0FCEBE0287CC0F30110012804D0DB
:1095B000287CC0F301100328F4D1002002907148E8
:1095C000006813F05DFC8246204610F0A2FD0646BE
:1095D000204610F02BFD83464FF4A050B0FBF6F070
:1095E00000B2584505DA4FF4A050B0FBF6F000B2D7
:1095F00000E058460190B4F90280287CC0F30110C5
:1096000001280BD168882188401A401E00B2E080F2
:10961000E088801B401C00B2608006E020886080EB
:1096200060883044401E00B2E08000279EE0ABEB33
:1096300007010198814201DD019801E0ABEB0700D1
:109640000FFA80F90120CAF8100047BBB34526DBAA
:10965000B146297CC1F30111032901D1012100E0A8
:10966000002108463146049A00F00FF9287CC0F327
:109670000110012807D1A4F8008008EB0600401E65
:1096800000B2A0803FE02888401EA0EB080000B296
:10969000A080A088801B401C00B2208033E002988C
:1096A00020B94FF420501BF0D9FC02900298009092
:1096B000297CC1F30111032901D1012100E000211E
:1096C00008464A463146049B00F0B2F8287CC0F3B5
:1096D000011001280AD108EB070000B2208008EB36
:1096E00007004844401E00B2A0800CE02888401EBD
:1096F000A0EB0800C01B00B2A080A088A0EB09006E
:10970000401C00B2208007EB090058450DDBDAF859
:10971000180000F0010040B1DAF81800C0F3400072
:1097200018B10120CAF8140002E00020CAF81400A1
:10973000029808B9049800E002980246214628469B
:10974000FDF7F0FB04E0A86A10B12846A96A884733
:10975000DAF810000028F6D106FB09F1049800EBB6
:109760004100049007EB090007B200BF5F45FFF618
:109770005EAF029810B102981BF0ECFC00BF00BF76
:10978000FEE600004C01002018B5048800940C8807
:10979000048014880C801C881480BDF800401C8054
:1097A00018BD2DE9FC5F05460C461646204610F014
:1097B000B0FC8246204610F039FC83461AFB0BF0C1
:1097C00001900198471E4FF0000811E006EB47009A
:1097D0000088009006EB470006EB480109880180ED
:1097E00006EB4800BDF8001001807F1E08F101085B
:1097F0004745EBD8B4F9069068886188401A401E46
:1098000000B2E0806888A0EB0900401E00B26080D2
:10981000B4F9049028882188401A401E00B2A08024
:109820002888A0EB0900401E00B22080BDE8FC9F04
:109830002DE9F04704461D46089F01FB02F0A0F108
:10984000010C481E00FB02F800231AE008EB03009D
:109850000CB1ACEB000000260FE0A946AD1C07EBF5
:10986000400AB9F80090AAF800900CB1104400E04A
:10987000801A06F101090FFA89F68E42EDDB581CB9
:1098800003B29342E2DBBDE8F0872DE9F047824660
:109890000C46154600263BE0002731E0601E801B89
:1098A0000FFA80F8601EC01B0FFA80F9BAF1000FA2
:1098B00012D007FB048C05EB4C0308FB049C05EB62
:1098C0004C0209FB046C05EB4C0106FB047C05EB28
:1098D0004C00FFF759FF11E009FB046C05EB4C034A
:1098E00008FB049C05EB4C0207FB048C05EB4C01C8
:1098F00006FB047C05EB4C00FFF746FF781C07B223
:10990000601C00EBD071B7EB610FC7DB701C06B2B7
:1099100004EBD471B6EB610FBEDBBDE8F08710B588
:109920000446204619F038F810BD00002DE9F14F2B
:109930009EB01E9817F0C6FA05462C461E9817F0E2
:1099400068FA1D90606A1AF03FFB07465020005DE0
:1099500000F0010010B91FB0BDE8F08F0FA815F09E
:10996000A9F90FAA4FF4E02128461FF07AFD04F16F
:1099700044010DA810F043FBBDF83400616A898AE8
:10998000084400B2ADF83400BDF83610606AC08AF1
:10999000084400B2ADF83600BDF83800616A898A23
:1099A000084400B2ADF83800BDF83A10606AC08AC9
:1099B000084400B2ADF83A000DAA0FA91D9815F0A1
:1099C0005DF94FF4E02128461EF0C4FC06464FF432
:1099D000E02128461EF026FF30440FFA80F84FF4AD
:1099E000E02128461FF097F830440FFA80F9002054
:1099F0000B900C90E16CC8191F4909688847824692
:109A0000E06CC11952460BA81BF045FCBDF83400B0
:109A1000404400B2ADF83400BDF83600484400B20E
:109A2000ADF836004FF0000BD4F824A040F25742B6
:109A3000594650461FF07CF8019001980A9002A800
:109A400014F02CF902AA4FF4E02128461FF02EFC56
:109A50009DF83F00022805DCBDF81400BDF8281071
:109A6000884207D000200BAB0DAA02A900901D98D8
:109A700013F060FD00BF6EE7D40200202DE9F04F27
:109A8000BDB005460E4600BF00BFAB460BF130002F
:109A9000FAF722FF10B13DB0BDE8F08F05F11402D6
:109AA0003BA8B168F9F702FC00B9F4E7B0683A9056
:109AB0003BA8B06035A814F03DF935AA4FF4E02179
:109AC00028461FF05AFC27A815F0F4F89DF8DC0092
:109AD0008DF89F0047F6FF70ADF89C004FF4E02131
:109AE00028461FF032FA074600EBD7704FEA6009AC
:109AF0004FF4E02128461FF028FA074600EBD77004
:109B00004FEA600A314604A81DF03EF924A80A90E5
:109B100016A808904FF4E0201190694805900520A0
:109B200006900BF13000FAF789FE0446C0E00A22E5
:109B300035A924A81BF0AFFB382227A916A81BF0D3
:109B4000AAFBE088ADF89000E088ADF85C0039A889
:109B50000D9038A80E90607B00F0010020B1B4F9A0
:109B60000070B4F9028010E0A08847F6FF718842C7
:109B700000D197E0A28801AB2846A16811F02AFE27
:109B8000BDF90470BDF9068000BFA88A384407B249
:109B9000E88A40440FFA80F8B9F1000F19D0BAF101
:109BA000000F16D0A7EB090000B2ADF8080007EBD4
:109BB000090000B2ADF80C00A8EB0A0000B2ADF845
:109BC0000A0008EB0A0000B2ADF80E0002A80790E8
:109BD00001E000200790207B00F0030070B3207BA1
:109BE00000F0010010B1B5F9140000E03846ADF8FE
:109BF000E400ADF8E680207B00F0020010B1B5F97A
:109C0000180000E03846ADF8E000BDF8E600ADF819
:109C1000E20004AA1A21284617F05AF938AB39AAEB
:109C200024A9304614F06FF802AA16A9304615F0A0
:109C300025F804AA1B21284617F04AF9207B00F0DA
:109C40000C0070B3ADF8E470207B00F0040010B19C
:109C5000B5F9160000E04046ADF8E600BDF8E400B6
:109C6000ADF8E000207B00F0080010B1B5F91A0053
:109C700000E04046ADF8E20004AA1A21284617F099
:109C800027F938AB39AA24A9304614F03CF802AAC7
:109C900016A9304614F0F2FF04AA1B21284617F03B
:109CA00017F900BF21460BF13000FAF7C1FD044659
:109CB000002C7FF43CAF3A98B06000BFEBE60000A8
:109CC000CCC203082DE9F14F9AB01A9817F0FAF8B0
:109CD00004461A9817F09DF8199020461FF076F95F
:109CE000074620461DF0B0FB834607EBD771A28ADA
:109CF00002EB610109B218910BEBDB714A10E18AAA
:109D0000114409B2179107EBD7714E1014A814F043
:109D100011F814AA002120461FF02FFB4FF41D70EC
:109D200016FB00F0552190FBF1F0642190FBF1F05F
:109D300000B2ADF85200BDF85200801C00B2ADF880
:109D4000520000201390002120461EF01AFA05460A
:109D5000002347F6FF7204F114010DA814F094FEDD
:109D600000210DA814F012F80C9000BFA08AADF8E5
:109D70002800E08AADF82A00208BADF82C00608B1B
:109D8000ADF82E0000BFBDF82800284400B2ADF8A1
:109D90002800BDF82C00401B00B2ADF82C00BDF827
:109DA0002A00284400B2ADF82A00BDF82E00401B5E
:109DB00000B2ADF82E00012347F6FF720AA904A8ED
:109DC00014F062FE002104A813F0E0FF0390BDF937
:109DD00052804FF0000A4FE051462046FBF7A8FFA3
:109DE0000090BDF80000ADF850001398C0F30F29A3
:109DF0000FFA89F025F0BAFD06EB080148431899DF
:109E000001EBE03000B2ADF804000FFA89F025F064
:109E10009DFD06EB08014843179901EBE03000B2C5
:109E2000ADF806000FFA89F025F0A0FD711BA1EB3B
:109E300008014843189901EBE03000B2ADF8080082
:109E40000FFA89F025F082FD711BA1EB0801484350
:109E5000179901EBE03001B2ADF80A1002AB01AA8C
:109E600014A9199813F04FFF0AF103001FFA80FAA2
:109E7000139800F587601390BAF5807FACDD0DA8CC
:109E800014F066FA04A814F063FA0C9814F0E4FED7
:109E9000039814F0E1FE1BB0BDE8F08F2DE9F04F00
:109EA000A5B004460F46254604F1140123A8BA685C
:109EB000F9F7FCF92290229810B925B0BDE8F08F8F
:109EC000B868219023A8B860002120461EF01BFA34
:109ED0001E90002120461EF030FC01461E980844CA
:109EE00000B21D90002120461EF093FD01461E98F1
:109EF000084400B21C9020461DF031FA7E35E988F6
:109F00004843001200B21B9020461DF009FA29892F
:109F10004843001200B21A9017A813F00BFF17AABB
:109F2000002120461FF029FA394605A81CF02CFF15
:109F3000002012908C4806900020079017A80B90E4
:109F40004FF0FF30139000200E900F9005AA1A21B9
:109F5000204616F0BDFF00200190312220460199D5
:109F60001EF0E6FD0090009800F0FF0B00BF0021FE
:109F700020461EF0C8F904900020019033222046AC
:109F800001991EF0D5FD0090009800F0FF0800BF79
:109F900020461DF04FFB039020461DF045FC02902B
:109FA00035F87E09002865D0E18A1C9801440298A2
:109FB000081A00B20190A08AADF88000208BADF89D
:109FC0007C004FF00009B5F87E000FFA80FABBF173
:109FD000020F1ADD0498002817DD08F0020040B1D6
:109FE000002120461EF015FD18B909F101000FFAF5
:109FF00080F908F0010040B1002120461EF0C0FAAF
:10A0000018B9AAF101000FFA80FA4E462FE01A980B
:10A010007043B5F87E10491E90FBF1F000B2ADF828
:10A020008200BDF882100198084400B2ADF88200A9
:10A03000BDF88200ADF87E004B48069001200790E5
:10A0400020A80E901FA80F90139605AA1A2120464B
:10A0500016F03EFF1FAB20AA17A9384613F053FE97
:10A0600005AA1B21204616F033FF701C06B2564588
:10A07000CDDB00BFB5F88000002865D0A18A1D980F
:10A0800001440398081A00B20190E08AADF88200FA
:10A09000608BADF87E004FF00009B5F880000FFA34
:10A0A00080FABBF1020F1ADD0498002817DD08F0D2
:10A0B000040040B1002120461EF03FFB18B909F111
:10A0C00001000FFA80F908F0080040B10021204695
:10A0D0001EF0DCFB18B9AAF101000FFA80FA4E4617
:10A0E0002FE01B987043B5F88010491E90FBF1F0EB
:10A0F00000B2ADF88000BDF880100198084400B2AD
:10A10000ADF88000BDF88000ADF87C0016480690E0
:10A110000220079020A80E901FA80F90139605AA62
:10A120001A21204616F0D4FE1FAB20AA17A93846E4
:10A1300013F0E9FD05AA1B21204616F0C9FE701C8C
:10A1400006B25645CDDB00BF4FF0FF301390002024
:10A150000E900F9005AA1B21204616F0B9FE2198FB
:10A16000B86000BFA9E60000CCC203082DE9F14F9A
:10A170009AB01A9816F045FE07461A9816F0A2FEF5
:10A1800005462C46122F7DD11A9816F098FE0646E9
:10A190003078022802D11BB0BDE8F08F94F8380067
:10A1A00000F00300032805D094F8380000F0030005
:10A1B000022802D101203070EDE794F83800C0F396
:10A1C0008400042808D094F83800C0F384000128E3
:10A1D00002D001203070DEE74FF0000A46225146DF
:10A1E00028461EF0A5FC19901998C0B2FF2802D08D
:10A1F00001203070CFE7002128461EF031FE814655
:10A20000208E8144B9F1000F02D001203070C2E7E6
:10A21000002128461EF065FE8046E08E00FB08F017
:10A220004FEA20281A9816F04AFE8346B8F5807F38
:10A2300009D1002205F114015846F9F778F8E8BB76
:10A2400001203070A7E728461DF0FEF88246284618
:10A250001EF0BCFE179004F132001FFA88F10023B3
:10A260005246CDE9001018A81799F9F715FBBDF86B
:10A270006000A98A084400B2ADF86000BDF8621021
:10A28000E88A00E01DE0084400B2ADF86200BDF8C5
:10A290006400A98A084400B2ADF86400BDF86610F5
:10A2A000E88A084400B2ADF86600002218A95846B2
:10A2B000F9F73DF818B9012030706CE700E000BFF5
:10A2C00019E2152F01D0182FFAD1002128461EF0CF
:10A2D00008FE8046E08E00FB08F04FEA20280021AF
:10A2E00028461EF0BDFD8246208E824428461EF080
:10A2F0006DFE199028461DF0A7F81890002641F22F
:10A300003202314628461EF013FC0E900E9800B221
:10A31000814600BF41F61202314628461EF008FC75
:10A320000E900E9848440FFA80FB00BF41F61302CE
:10A33000314628461EF0FCFB0E900E98484400B2B1
:10A34000179000BF41F61002314628461EF0F0FB80
:10A350000E900E98484400B2169000BF41F61102CC
:10A36000314628461EF0E4FB0E900E98484400B299
:10A370001590608E584400B2ADF85000A18E16982A
:10A38000084400B2ADF8520094F8390000F0030020
:10A39000012804D112A928461DF000F827E014A9CD
:10A3A0001FFA88F00FFA8AF3CDE9000112A8DDE95F
:10A3B0001821F9F771FABDF84800A98A084400B2DB
:10A3C000ADF84800BDF84A10E88A084400B2ADF87C
:10A3D0004A00BDF84C00A98A084400B2ADF84C0010
:10A3E000BDF84E10E88A084400B2ADF84E0005F101
:10A3F000140110A80FF0F1FD12A905F114000FF0DF
:10A40000ECFDBE481A991CF0E5FE0F900F9801284C
:10A4100000D0C0E610A905F114000FF0DEFD152FE5
:10A420007ED1E08D08B1A08D00B9B4E6B8F1000F7F
:10A4300000D1B0E61A9816F0ECFC064605F11401BE
:10A440000DA80FF0CAFD284618F018FD0C9094F8DE
:10A45000390000F0030001283CD1B4F92C10BDF9FB
:10A460003020891A481C00EBD071BDF83420A2EBD3
:10A47000610109B2ADF83410B4F92C10BDF93020E7
:10A48000891A481C00EBD071BDF83820A2EB61019D
:10A4900009B2ADF83810B4F92E10BDF93220891A7E
:10A4A000481C00EBD071BDF83620A2EB610109B267
:10A4B000ADF83610B4F92E10BDF93220891A481CB7
:10A4C00000EBD071BDF83A20A2EB610109B2ADF802
:10A4D0003A1013E012A80FF077FEBDF834100844CC
:10A4E000401E00B2ADF8380012A80FF0E5FDBDF82F
:10A4F00036100844401E00B2ADF83A00BDF83400F2
:10A50000584400B2ADF83400BDF83610169808442F
:10A5100000B2ADF83600BDF838101798081A00E000
:10A52000E8E000B2ADF83800BDF83A101598081A06
:10A5300000B2ADF83A0094F8380000F003000128AA
:10A5400005D094F8380000F0030000287AD106A85E
:10A5500012F0D3FF06AA002128461EF048FE1FFA7B
:10A5600088F0ADF81A001FFA8AF0ADF81800608E76
:10A57000ADF81C00A18EADF81E1094F83800C0098B
:10A580008DF82C00BDF84800584400B2ADF810001A
:10A59000BDF84A101698084400B2ADF81200BDF894
:10A5A0004C101798081A00B2ADF81400BDF84E1000
:10A5B0001598081A00B2ADF81600B068039004AA06
:10A5C00004A8B168F8F772FE00B9E4E504A8B06029
:10A5D000BDF83610608D084400B2ADF80600BDF934
:10A5E0000600BDF93610884206DDBDF80600E18D93
:10A5F000401A00B2ADF80600BDF80600E18D08442F
:10A60000401E00B2ADF80A0049E0BDF83400218DCB
:10A61000084400B2ADF80400BDF90400BDF93410DF
:10A62000884206DDBDF80400A18D401A00B2ADF8E5
:10A630000400BDF80400A18D0844401E00B2ADF82E
:10A64000080016E034E001AA06A93046636A12F059
:10A6500005FFBDF80400BDF83010084400B2ADF8A5
:10A660000400BDF80800BDF83010084400B2ADF891
:10A670000800BDF90400BDF938108842E3DBBDF8DD
:10A680000600BDF83210084400B2ADF80600BDF86F
:10A690000A00BDF83210084400B2ADF80A00BDF956
:10A6A0000600BDF93A108842AFDB0398B06020E0A5
:10A6B00094F8380000F00300022811D104A813F028
:10A6C000EDFA04AA002128461EF0F0FD00200090BB
:10A6D00005F1140204A93046636A12F02BFF08E06A
:10A6E00000BF00BF002305F114021946304612F0E6
:10A6F000B5FE00BF00BF00BF4DE5000018640408B0
:10A700002DE9F14FDCB05C9816F0DCFB05462C46D9
:10A710005C9816F07EFB5B9059A928461CF03EFE23
:10A720000020CDE9105040F60A02DDE910011EF0CC
:10A73000FFF90F900F9800B258900020CDE910500B
:10A7400040F60B02DDE910011EF0F2F90F900F98B0
:10A7500000B25790BDF864115898081A00B2ADF8CD
:10A760006401BDF868115898084400B2ADF868015A
:10A77000BDF866115798081A00B2ADF86601BDF829
:10A780006A115798084400B2ADF86A0159A80FF051
:10A790000DFD834659A80FF081FC5690D4E90A10AC
:10A7A000A0EB01095698834501DB012000E0002061
:10A7B00080460020559094F85C0000F003000128CA
:10A7C0000BD1A06A002808DAE06A002805DDA16A3A
:10A7D000206B884201D101205590002128461DF0B0
:10A7E000D3FF5490002128461EF077F853900021A3
:10A7F00028461EF035F95290002128461DF0E7FE4C
:10A80000519059A904F134000FF0D5FBA18E549852
:10A81000084400B2A086218F5398081A01B22187FC
:10A82000E18E5298084401B2E186618F5198081A6E
:10A8300001B26187B8F1000F13D004F134000FF0BA
:10A840002DFC04280DDA569800EBD0714A10E98AE5
:10A850001144891E0AB2E286E08E001D01B26187B2
:10A8600015E0B8F1000F12D104F134000FF09EFC96
:10A8700004280CDA58460BEBD071AA8A02EB61016E
:10A88000891E09B2A186A08E001D01B2218704F1A4
:10A8900034000FF08BFC509004F134000FF0FEFBFD
:10A8A0004F90B8F1000F01D0509800E04F988246C9
:10A8B000B8F1000F05D004F13406371DFE484C9066
:10A8C00004E004F13606371DFC484C90A06D401C96
:10A8D000F8B1A36A216DC91A01FB0AF191FBF9F1E4
:10A8E00008B2A36A616DC91A01FB0AF191FBF9F183
:10A8F0000AB2131AD4F858C003FB0CF1CB1701EBC2
:10A9000013631B121BB24D934D99014409B24D9133
:10A9100008E0A16A206B401A00FB0AF090FBF9F0F6
:10A9200000B24D90A06C401CE0B1A36A216CC91A22
:10A9300001FB0AF191FBF9F108B2A36A616CC91A33
:10A9400001FB0AF191FBF9F10AB2131AD4F848C0DD
:10A9500003FB0CF1CB1701EB136300EB23231BB2BA
:10A960004E9308E0D4E90901401A00FB0AF090FB7D
:10A97000F9F000B24E900020119041F26A42284650
:10A9800011991EF0D5F810901098C0B24B90B8F104
:10A99000000F0ED04B9801280BD130463E4607469B
:10A9A0004E99494209B24E914D99494209B24D9191
:10A9B00000BFB8F1000F0AD031884E98084400B2A9
:10A9C000388031884D98084400B230800AE03988D8
:10A9D0004E98081A401C00B2308039884D98081AE9
:10A9E00000B23880559878B3A26A524202FB0AF24C
:10A9F00092FBF9F211B2B8F1000F0CD032880A4480
:10AA000010B2B7F90020824201DD30801BE03A88A5
:10AA10003280388017E03A88521A521C10B2B6F9C8
:10AA20000020824201DD388002E032883A803080A6
:10AA3000B7F90020B6F900309A4204DAB6F90000FE
:10AA40003A883280388000BF559800BB04F134004A
:10AA50004C99884701281ADC68465B991CF094F9E8
:10AA60004FF400300D90964801900020029004F1C0
:10AA7000340003906A461A21284616F029FA6A46DD
:10AA80001B21284616F024FA5DB0BDE8F08F04F1D2
:10AA9000340149A80FF08FFA3BA814F00BF93BAA38
:10AAA0004FF4003128461EF0DCFC29A85B991CF00D
:10AAB0006BF94FF40030369081482A9000202B909B
:10AAC0003BA82D9004F134002C9029AA1A21284685
:10AAD00016F0FEF9002011906022284611991EF010
:10AAE00027F81090109800B228905698834501DA04
:10AAF000584600E056982790DDE92701B1EB600F3A
:10AB000002DD279840102890BDF9EC0026904F995F
:10AB10005098884201DA509800E04F982790DDE97C
:10AB20002601B0EB610F02DD279840102690B8F1A6
:10AB3000000F08D004F134000FF038FB01462698CE
:10AB4000B1EB400F0BDCB8F1000F28D104F1340059
:10AB50000FF0A4FA01462698B1EB400F1FDD9DF8D7
:10AB6000EF0011909DF8060110909DF80E010F90D6
:10AB700000208DF8EF008DF806018DF80E0104F12C
:10AB800034023BA95B9814F079F811988DF8EF0026
:10AB900010988DF806010F988DF80E0100BFA98A54
:10ABA0005498084400B2ADF87800298B5398081ADD
:10ABB00000B2ADF87C00E98A5298084400B2ADF8C2
:10ABC0007A00698B5198081A00B2ADF87E00002314
:10ABD0001EA920A8289A13F057FF002120A813F0DF
:10ABE000D5F81D909DF822011C909DF80E011B9038
:10ABF00000208DF80E018DF8220159A919A80FF037
:10AC0000DAF9BDF864105498084400B2ADF8640055
:10AC1000BDF866105298084400B2ADF86600BDF861
:10AC200068105398081A00B2ADF86800BDF86A10B1
:10AC30005198081A00B2ADF86A00B8F1000F15D0AB
:10AC400019A80FF02BFA042810DA569800EBD071EF
:10AC50004A10E98A1144891E09B2ADF86610BDF8A0
:10AC60006600001D00B2ADF86A0017E0B8F1000FF1
:10AC700014D119A80FF09AFA04280FDA58460BEBF2
:10AC8000D071AA8A02EB6101891E09B2ADF8641085
:10AC9000BDF86400001D00B2ADF86800BDF9EC20FD
:10ACA000002304F1340113A813F0EEFE002113A8D1
:10ACB00013F06CF8129005E0ADA101089DA0010809
:10ACC0007063040819AA3BA95B9813F0D7FF1B987F
:10ACD0008DF80E011C988DF8220100208DF8EF00F0
:10ACE0008DF806018DF8220104F134023BA95B982E
:10ACF00013F0C4FF13A813F02BFB20A813F028FBBC
:10AD0000129813F0A9FF1D9813F0A6FF29AA1B2182
:10AD1000284616F0DDF800BFB6E6F0B591B005465E
:10AD2000284616F0CFF80446284616F072F8074673
:10AD3000264603A813F0BEFF03AA4FF44031204675
:10AD40001EF08FFB47F6FF70ADF80C002C20805DE5
:10AD500000F0010038B1204611F0FDFE0090BDF872
:10AD60000000ADF81000214601A807F079FC01AA07
:10AD700003A9384613F082FF11B0F0BD2DE9F04F62
:10AD8000B3B08146484616F09DF880464446484692
:10AD900016F03FF83290002140461DF04DFA05466E
:10ADA00040461EF013F9824640461CF04DFB834698
:10ADB000DA4501DB012000E0002006460EB15846CE
:10ADC00000E050463190002794F85C0000F003004A
:10ADD000012806D1A06A002803DAE06A002800DD15
:10ADE0000127002E3CD097B93EB1012D02D1B4F914
:10ADF000340009E0B4F9380006E0012D02D1B4F9BD
:10AE0000360001E0B4F93A00ADF8BC0037E0606A02
:10AE1000002812DB3EB1012D02D1B4F9340009E063
:10AE2000B4F9380006E0012D02D1B4F9360001E092
:10AE3000B4F93A00ADF8BC0021E03EB1012D02D0DA
:10AE4000B4F9340009E0B4F9380006E0012D02D06D
:10AE5000B4F9360001E0B4F93A00ADF8BC000EE0F8
:10AE60001FB9E08EADF8BE0009E0606A002803DB80
:10AE7000E08EADF8BE0002E0608FADF8BE0021A804
:10AE800013F018FF21AA4FF4403140461EF0E9FAB2
:10AE900033462FA94046319A25F064FF2FA904F1CB
:10AEA00068000FF0A3F80FA832991BF06DFF4FF464
:10AEB00040301C903C481090002011901D9004F1EF
:10AEC0006800129021A81390404621F01CFC022833
:10AED00010D00FAA1A21404615F0FAFF04F16802BB
:10AEE00021A9329813F0CAFE0FAA1B21404615F083
:10AEF000EFFF55E0382221A901A81AF0CCF90FAADA
:10AF00001A21404615F0E4FF04F1680221A93298A5
:10AF100013F0B4FE0FAA1B21404615F0D9FF96B1DD
:10AF20003EB1012D02D0B4F9340009E0B4F9380083
:10AF300006E0012D02D0B4F9360001E0B4F93A0080
:10AF4000ADF8BC0002E0608FADF8BE0033462FA91B
:10AF50004046319A25F006FF2FA904F160000FF05A
:10AF600045F8382201A921A81AF095F9012011907D
:10AF700004F16000129021A8139001201D900FAAE7
:10AF80001A21404615F0A4FF04F1600221A932986D
:10AF900013F074FE0FAA1B21404615F099FF00BF65
:10AFA00033B0BDE8F08F0000A46404082DE9F04739
:10AFB00090B00746384615F085FF054628461CF038
:10AFC00093FA064608A812F069FE08AA0021304646
:10AFD0001EF06CF9384615F01CFF0446D4F80880C2
:10AFE00006F1140206A8A168F8F760F910B910B0CC
:10AFF000BDE8F08706A8A06004A9304607F0AEFFC0
:10B00000A88AADF80800E88AADF80A00288BADF8E8
:10B010000C00BDF81200ADF80E0002AA02A8A1684B
:10B02000F8F744F998B1D4F8089002A8A06028462F
:10B0300018F0CAFF82460020534605F1140208A901
:10B040000090204612F076FAC4F8089000BFA88A53
:10B05000ADF80800BDF81600ADF80A00288BADF871
:10B060000C00688BADF80E0002AA02A8A168F8F7E0
:10B070001DF998B1D4F8089002A8A060284618F0ED
:10B08000A3FF82460020534605F1140208A9009050
:10B09000204612F04FFAC4F8089000BFC4F80880A8
:10B0A00000BFA4E72DE9FF4FA1B00646144624983F
:10B0B000807B00F00F052298807E1F90032D00D129
:10B0C0000425012D06D0022D0BD0042D10D0082D03
:10B0D0001DD114E0DFF86C834FF0800A02201E902F
:10B0E0001AE0DFF864834FF0C00A04201E9013E0DA
:10B0F000DFF858834FF0F00A10201E900CE0DFF8C4
:10B1000050834FF0FF0A4FF480701E9004E000BFA0
:10B1100000BF25B0BDE8F08F00BF1F98FD2823DADF
:10B12000CC4801781F98814203D1CB480068A842DF
:10B1300013D000200DE018F80010FF2901D11F994D
:10B1400004E018F800101F9A51430912C34A115421
:10B15000401C1E998842EED300BFDFF80083BD4932
:10B160001F980870BC4805602498B0F806B0249871
:10B1700000891B900BFB05F01A90B4F90000B16830
:10B18000B1F90010884201DB002005E0B068B0F999
:10B190000000B4F90010401A1990B4F900005844A6
:10B1A000B168B1F90410884201DC584606E0B06885
:10B1B000B0F90400B4F90010401A401C1890B4F91A
:10B1C0000200B168B1F90210884201DB002005E0FD
:10B1D000B068B0F90200B4F90210401A1790B4F93F
:10B1E00002101B980844B168B1F90610884201DCCE
:10B1F0001B9806E0B068B0F90600B4F90210401AD6
:10B20000401C16901A9917984843199901FB05009C
:10B2100015902E99159801EBD0002E90159800F0FE
:10B2200007071C210DA81AF0C4F922988089ADF8EF
:10B230003C002298807E8DF84C002298807FC0F3DD
:10B24000C2008DF84D00F9F70DFE019011F01CFEC3
:10B250000C901B980BFB00F10C98814201DD0C98BF
:10B2600002E01B990BFB01F00B900B9819F0F6FE16
:10B270008146CDF8409000200A9021881998084412
:10B2800000B2ADF82000218818980844401E00B292
:10B29000ADF8240061881798084400B2ADF8220088
:10B2A000BDF82200ADF8260000BFBDF82400BDF8AF
:10B2B0002010401A401C00B2079000BFBDF82000CB
:10B2C000ADF81400BDF82200ADF81600BDF824005A
:10B2D000ADF81800BDF82600ADF81A0000BFBDF8A3
:10B2E00016101698084400B2ADF81A0005A813F01D
:10B2F00053F8049008A80D901290C5F1080003902F
:10B3000019980BEB00011898081A684302901798D7
:10B310001C9078E00A9801902AFA07F0209019987A
:10B320001D9028E02E980078209908400399C91BA9
:10B33000C8401490149830B1149818F800100A9866
:10B3400009F8001003E000210A9809F8001003989A
:10B35000874204D22F442098E840209005E000273F
:10B36000CDF880A02E98401C2E900A98401C0A9080
:10B370001D98401C1D9018991D988842D2DB049896
:10B38000A0B1BDF92620BDF92010019B09EB0300F7
:10B39000079B12F0B1FF8DF844009DF8440028B9D6
:10B3A000019909EB010007991AF003F9DDE9180189
:10B3B000411A0A9801440B98814206D2BDF8260032
:10B3C000401C00B2ADF8260012E002208DF84400C7
:10B3D0000DA9304614F0F8F9BDF82600401C00B263
:10B3E000ADF82200BDF82200ADF8260000200A903A
:10B3F000029807442E9800EBD7002E9007F007071D
:10B400001C98401C1C9016991C98884282DBBDF940
:10B410002200BDF9261088420ED0BDF82600401E3D
:10B4200000B2ADF8260002208DF844000DA9304688
:10B4300014F0CAF900200A90484619F08BFE00BFAC
:10B4400067E6000018C103081AC1030826C10308F3
:10B4500036C103085C0100206001002034C40020D4
:10B460002DE9FF4F8FB00C4615461E46B4F9020079
:10B47000401E0E900E9840100D900E9800F00101A5
:10B480000D9808440C90B5F90000B6F900108842F8
:10B4900002DAB5F9000001E0B6F90000ADF82800C5
:10B4A000B5F90000B6F90010884202DDB5F90000D8
:10B4B00001E0B6F90000401E00B2ADF82C0069882A
:10B4C0000C98081A00B2ADF82A0069880D98084453
:10B4D00000B2ADF82E000F980AA982680AA8F7F703
:10B4E000E5FE8246BAF1000F02D113B0BDE8F08F3D
:10B4F000E08818B1A08808B1012000E00020834650
:10B50000012009900AA812F047FF10B1002009900D
:10B5100004E0BBF1000F01D0002009901C2102A81B
:10B520001AF047F80AA802902088ADF81000207A97
:10B530008DF82000099820B102A90F9814F044F961
:10B5400078E00AA80EF00FFE0746BDF92E00019024
:10B55000BDF82A00ADF82E0000200090BBF1000FCE
:10B560000BD0B4F90600B4F904100844BDF9281052
:10B5700091FBF0F200FB12100090384619F06EFDBE
:10B580008046CDF814800AA80790BDF92A904AE0B9
:10B59000394640461AF044F8BDF928103BB20FFA7C
:10B5A00089F2404612F0A8FE8DF81800BBF1000F9A
:10B5B00027D09DF8180020B3009800211BE0B4F9B3
:10B5C0000420824207DBA3881B1A1AB28B1819B217
:10B5D000831818B20BE0B4F90620B4F904301A4409
:10B5E000824201DC002002E0002208F801204A1C0F
:10B5F00011B2421C10B2B942E1DB02228DF81820D0
:10B6000000BF02A90F9814F0DFF8BDF82A00401C13
:10B6100000B2ADF82A00BDF82E00401C00B2ADF813
:10B620002E0009F1010901988145B1DD404619F06C
:10B6300091FD00BF00BF58E72DE9FF4FC7B08B4613
:10B6400091469A46B9F90200BAF90210884210DA16
:10B65000B9F80200ADF81A01BAF80200ADF8160107
:10B66000B9F80000ADF81801BAF80000ADF81401FF
:10B670000FE0BAF80200ADF81A01B9F80200ADF80F
:10B680001601BAF80000ADF81801B9F80000ADF8DD
:10B690001401BDF91401BDF91811441ABDF91601C0
:10B6A000BDF91A11451A002C01DD204600E0604268
:10B6B000002D01DD294600E06942884201DD0120BC
:10B6C00000E000204490BBF90260002043904498C1
:10B6D00070B1002D01DD284600E068424101002CD8
:10B6E00001DD204600E0604291FBF0F043900DE068
:10B6F000002C01DD204600E060424101002D01DD0B
:10B70000284600E0684291FBF0F04390E0494398FE
:10B71000085C70433F30C611771006F0010000EB63
:10B720000708BDF91801BDF91411884202DABDF904
:10B73000180101E0BDF91401801B00B2ADF804014D
:10B74000BDF91801BDF91411884202DDBDF91801D7
:10B7500001E0BDF91401304400B2ADF80801BDF9B3
:10B760001A01BDF91611884202DABDF91A0101E089
:10B77000BDF91601801B00B2ADF80601BDF91A0132
:10B78000BDF91611884202DDBDF91A0101E0BDF9CB
:10B790001601304400B2ADF80A01479841A9826809
:10B7A00041A8F7F783FD4090409810B94BB0BDE831
:10B7B000F08F4498F0B3002C24DD0021BDF8160171
:10B7C000C01B00B2CDE90001BDF91431BDF81A016A
:10B7D000C01B02B2BDF9181135A812F0D7FE012125
:10B7E000BDF81601404400B2CDE90001BDF91431A5
:10B7F000BDF81A01404402B2BDF918112AA812F08E
:10B80000C5FE4AE00021BDF81601404400B2CDE972
:10B810000001BDF91431BDF81A01404402B2BDF96E
:10B82000181135A812F0B2FE0121BDF81601C01B97
:10B8300000B200E00DE0CDE90001BDF91431BDF822
:10B840001A01C01B02B2BDF918112AA812F09EFEFF
:10B8500023E00021BDF91601CDE90001BDF8140176
:10B86000404403B2BDF91A21BDF81801404401B2A9
:10B8700035A812F08BFE0121BDF91601CDE90001BA
:10B88000BDF81401C01B03B2BDF91A21BDF818019F
:10B89000C01B01B22AA812F079FE002135A812F0CF
:10B8A00075FA139000212AA812F070FA12904FF046
:10B8B000FF30119010909BF80900C0F3001068BB96
:10B8C0000321BDF81A01204400B2CDE90001BDF802
:10B8D0001801401B03B2BDF91A21BDF918111FA8A8
:10B8E00012F054FE0221BDF81601204400B2CDE949
:10B8F0000001BDF81401401B03B2BDF91621BDF9CA
:10B90000141114A812F042FE00211FA812F03EFAF2
:10B910001190002114A812F039FA109041A80EF0ED
:10B9200022FC0F90F9F79EFA019011F0ADFA0D90FC
:10B9300041A80EF0CFFB01460D98814203D241A8E9
:10B940000EF0C8FB00E00D980C900C9819F086FBE7
:10B950000B90BDF90A010A90BDF80601ADF80A0185
:10B9600000200990DDE90B0119F05AFE1C2102A804
:10B9700019F01FFE41A80290BBF80000ADF81000BE
:10B980009BF808008DF820000B98059041A80790BF
:10B99000BDF906010E9040E0BDF90411099B0B9A18
:10B9A000D0180F9A13B20E9A12B212F0A5FC8DF8AD
:10B9B00018009DF8180028B9099A0B9988180F9952
:10B9C00019F0F7FD0F990998084409900F99099803
:10B9D00001440C98814206D2BDF80A01401C00B215
:10B9E000ADF80A0116E002208DF8180002A9479868
:10B9F00013F0EAFEBDF80A01401C00B2ADF80601E2
:10BA0000BDF80601ADF80A0100200990DDE90B013F
:10BA100019F006FE0E98401C0E900A990E98884266
:10BA2000BADDBDF90601BDF90A1188420CD0BDF896
:10BA30000A01401E00B2ADF80A0102208DF818007C
:10BA400002A9479813F0C0FE0B9819F083FB35A8A4
:10BA500012F07EFC2AA812F07BFC1198401C10B159
:10BA60001FA812F075FC1098401C10B114A812F019
:10BA70006FFC139813F0F0F8129813F0EDF811988A
:10BA800013F0EAF8109813F0E7F800BF8EE6000014
:10BA900036C203082DE9FF4F91B00C4615461E46ED
:10BAA000B4F90200401E1090109840100F901098AA
:10BAB00000F001010F9808440E9029880E98081A8A
:10BAC00000B2ADF8300029880F98084400B2ADF8F4
:10BAD0003400B5F90200B6F90210884202DAB5F96D
:10BAE000020001E0B6F90200ADF83200B5F902003B
:10BAF000B6F90210884202DDB5F9020001E0B6F99C
:10BB00000200401E00B2ADF8360011980CA9826800
:10BB10000CA8F7F7CBFB8146B9F1000F02D115B0A5
:10BB2000BDE8F08FE08818B1A08808B1012000E0DE
:10BB30000020824601200B900CA812F02DFC10B1C1
:10BB400000200B9004E0BAF1000F01D000200B9010
:10BB50001C2104A819F02DFD0CA804902088ADF834
:10BB60001800207A8DF828000B9820B104A91198AC
:10BB700013F02AFE66E00CA80EF0F5FA8346BDF934
:10BB800036000390BDF83200ADF83600584619F083
:10BB900065FA0290029807900CA809900020019085
:10BBA000BAF1000F0BD0B4F90600B4F90410084440
:10BBB000BDF9321091FBF0F200FB12100190019FD1
:10BBC000BDF9328037E05946029819F029FDBDF9D8
:10BBD00030100FFA8BF30FFA88F2029812F08CFBF8
:10BBE0008DF82000BAF1000F13D09DF8200070B13D
:10BBF000B4F90400B84202DA00208DF82000B4F94C
:10BC00000600B4F904100844B84200DC0027781C90
:10BC100007B204A9119813F0D7FDBDF83200401CFB
:10BC200000B2ADF83200BDF83600401C00B2ADF8ED
:10BC3000360008F1010803988045C4DD029819F028
:10BC400089FA00BF00BF6AE72DE9FC5F80464046E5
:10BC500015F038F90746B946D9F82460344640460D
:10BC600015F0D7F80546606A00F114026846A96825
:10BC7000F7F71CFB8246BAF1000F41D0D5F808B0A7
:10BC8000C5F808D094F83C00C0F3401048B3608F6A
:10BC9000E18E88420CD1628F212329463046FDF780
:10BCA000FBFA628F212329463046FDF761FB24E031
:10BCB000628F202329463046FDF7EEFA628F20235B
:10BCC00029463046FDF754FBE28E012329463046D3
:10BCD000FDF7E2FAE28E012329463046FDF748FBE4
:10BCE0000BE0628F202329463046FDF7D5FA628F9C
:10BCF000202329463046FDF73BFBC5F808B000BFBE
:10BD0000BDE8FC9F70B50446204615F0DBF80546FB
:10BD1000204615F07EF806463146284613F008F80E
:10BD200070BD00002DE9F14FD0B0509815F0CAF861
:10BD300004462546288E10B951B0BDE8F08F5098C2
:10BD400015F067F84F90608C20F00400001D6084AF
:10BD50004DA920461BF022FB0026B246B4F82080F5
:10BD600000202084608C20F00400001D608427A83F
:10BD700012F0A0FF1FA811F091FF27AA4FF4A021F5
:10BD800020461DF06EFB1FAA4FF4A02120461DF097
:10BD90008DFA608C20F004006084A4F820800021DB
:10BDA00020461CF06AFE1E90002120461CF01CFC60
:10BDB0001D90002120461CF0F4FC1C900021204620
:10BDC0001CF098FD1B9009A84F991AF0DDFF4FF465
:10BDD000A0201690D7480A9000200B903DA80D9007
:10BDE00035A80E9000BF9BE103E00AF101001FFAA5
:10BDF00080FA696A51F82A00CFA1F4F781FD002882
:10BE0000F3D0E96A31F81600FAF788FC00B181E155
:10BE10000027E96A31F81600FAF770FC08B147F01C
:10BE20000107E96A31F81600FAF77CFC10B147F017
:10BE3000800716E0A88EB04213D108F0200008B1A8
:10BE400047F0200708F0020008B147F0020708F0A9
:10BE5000040008B147F0040708F0080008B147F0F3
:10BE60000807A86A00EBC6014BA80EF0ADF8BDF8B4
:10BE70002C01BDF83411084400B2ADF82C01BDF816
:10BE80002E01BDF83611084400B2ADF82E01BDF800
:10BE90003001BDF83411084400B2ADF83001BDF8EE
:10BEA0003201BDF83611084400B2ADF8320157B97D
:10BEB000382227A93DA819F0EEF920221FA935A89C
:10BEC00019F0E9F91DE02784608C20F00400001DC2
:10BED00060843DA812F0EEFE35A811F0DFFE3DAA09
:10BEE0004FF4A02120461DF0BCFA35AA4FF4A02142
:10BEF00020461DF0DBF9A4F82080608C20F00400BF
:10BF00006084E96A31F81600FAF714FC8346BBF145
:10BF1000000F06D09DF8F10040F001008DF8F1000F
:10BF200005E09DF8F10020F001008DF8F1004BA82C
:10BF30000C90179609AA1A21204614F0C9FF9DF803
:10BF40001701400800F01000F0B39DF8170120F031
:10BF50003E001E308DF81701BDF92C11B4F91420E4
:10BF60001C98104481420AD19DF81701400820F026
:10BF700004009DF8171160F345018DF81711BDF904
:10BF80003011B4F918201B98101A81420AD19DF87B
:10BF90001701400820F008009DF8171160F34501D3
:10BFA0008DF81711BDF92E11B4F916201E98104402
:10BFB00081420CD19DF81701400820F002009DF845
:10BFC000171160F3450100E014E08DF81711BDF979
:10BFD0003211B4F91A201D98101A81420AD19DF825
:10BFE0001701400820F001009DF8171160F345018A
:10BFF0008DF817114BA80EF058F8814607F0200075
:10C0000060B1E86A30F8160000F4007030B1BDF895
:10C010002E01A0EB090000B2ADF82E014BAA3DA9FC
:10C020004F9812F02BFE35980890BDF9E800079064
:10C03000BDF9E6000690686A50F82A0005904DA800
:10C040000EF0BBF803909DF8F11002460698CDE97A
:10C050000121009004A8DDE90732059923F074FD61
:10C060004BA80EF0AAF8BDF91010401A039000EB8F
:10C07000D070BDF82C1101EB600000B2ADF82C01BE
:10C080004BA80EF012F8BDF91210401A039000EB05
:10C09000D070BDF82E1101EB600000B2ADF82E019A
:10C0A000BDF82C01BDF81010084400B2ADF8300105
:10C0B000BDF82E01BDF81210084400B2ADF83201EF
:10C0C00007F02000C0B1E86A30F8160000F40070F4
:10C0D00090B1484609EBD071BDF82E21A2EB610169
:10C0E00009B2ADF82E1109EBD071BDF83221A2EBE7
:10C0F000610109B2ADF83211002000904BAA35A9B8
:10C10000059B4F9811F016FA09AA1B21204614F03E
:10C11000DFFE00BF701C86B20AF101001FFA80FA30
:10C12000288EB0423FF760AE608C20F0040060843F
:10C1300000BF01E6A86304080A0000002DE9F14FE2
:10C14000A2B0229814F0BEFE04462546229814F0B0
:10C1500060FE2190002120461CF0E2F88146264630
:10C16000002741F61202394630461CF0E1FC0A90E5
:10C170000A98484400B2209000BF41F613023946A5
:10C1800030461CF0D5FC0A900A98484400B21F9033
:10C19000002120461CF08BFC484400B21E9016A8DB
:10C1A00011F07CFD16AA4FF4003120461DF07EF8F8
:10C1B000A86A10B1D5F828800AE0802018F04EFF58
:10C1C000064680223146204614F056FBB04600BF9A
:10C1D0004FF0000A95F83C0000F00F00012800D154
:10C1E0008246002641F26A42314620461CF0A0FCFD
:10C1F0000A900A98C0B2012800D18246E86A002855
:10C200007ED0E86A16F04CFF0A900A98022814D1F2
:10C210009DF8750041F6FF72BDF96A10CDE9001274
:10C220000290BDF96C30169A07A8E96A23F08CFCDD
:10C23000BDF91C60BDF91E7011E007A9E86A16F08F
:10C24000D7FB8346BBF1010F05D10798C0F38A26BF
:10C250000798470D02E04FF0FF36374600BFBAF1AE
:10C26000000F0DD0A18A2098084400B2ADF820003C
:10C27000BDF820003044401E00B2ADF824000DE0AF
:10C28000218B1F98081A801B00B2ADF82000BDF862
:10C2900020003044401E00B2ADF824000A98022865
:10C2A00015D1E18A1E98084400B2ADF82200BDF80D
:10C2B00022003844401E00B2ADF826000020009055
:10C2C00008AA16A9EB6A219811F034F940E020463B
:10C2D0001BF0BAF8A0EB070B0BEBDB704110E08A08
:10C2E000084400B2ADF82200BDF822003844401ED8
:10C2F00000B2ADF8260002A811F0FFF802AA00E093
:10C3000027E04FF4003120461CF071FF304606EB69
:10C31000D071491009B2ADF80C10384607EBD07156
:10C3200049100AB2ADF80E204FF4003B43F60F025D
:10C33000594620461CF0FCFB0190019880B2ADF8F4
:10C34000080008AA02A9EB6A219811F087F800BF3B
:10C3500000BF0EA811F0A2FC0EAA002120461CF07E
:10C36000A5FF9DF8550041F6FF72BDF94A10CDE9D1
:10C3700000120290BDF94C3041460DA80E9A23F0F0
:10C38000E3FBE18A1E98084400B2ADF82E00BDF828
:10C390002E00BDF83610084400B2ADF83200E86A4D
:10C3A000B0B920461CF012FEBDF93410461A06EB57
:10C3B000D670A18A01EB600000B2ADF82C00BDF888
:10C3C0002C00BDF83410084400B2ADF8300022E073
:10C3D000BAF1000F11D0218B1F98081ABDF8341044
:10C3E000401A00B2ADF82C00BDF82C00BDF8341096
:10C3F000084400B2ADF830000DE0A18A209808444E
:10C4000000B2ADF82C00BDF82C00BDF83410084483
:10C4100000B2ADF83000002043460BAA0EA90090F0
:10C42000219811F087F8A86A10B9404618F092FEDA
:10C4300023B0BDE8F08F2DE9F14F90B0109814F0C3
:10C4400041FD05462C46109814F0E3FC06460EA963
:10C4500028461AF02FFF002794F84800C0F3001078
:10C4600008B147F0010794F84800C0F3401008B144
:10C4700047F00207002128461CF081FD42F2D171ED
:10C48000884205D1688CC0F3802008B947F00407C2
:10C4900006A811F003FCB4F84400ADF82E004620C5
:10C4A000005BADF830008DF8357006AA00212846F3
:10C4B0001CF0FCFE0DA8411E626A03780BB9012333
:10C4C000037000BF284617F08BFD0790284617F031
:10C4D00081FD08904FF6FF71079888421ED008989A
:10C4E00088421BD04FF4802B44F2574259462846CD
:10C4F0001CF01EFB029002980390BDF80C00ADF8F2
:10C50000260000BF2022594628461CF011FB02904D
:10C5100002980390BDF80C00ADF8280094F848008C
:10C5200000F00700022805D094F8480000F007004A
:10C5300003281FD19DF83400022803D09DF8340051
:10C54000032817D141F6FF71BDF92A008DE8830059
:10C55000BDF92C30069A03A8616A23F0F5FA0EA8FB
:10C560000DF039FEBDF90C10884202DA01208DF879
:10C57000340000BF04F1300894F8480000F00700D0
:10C58000032805D00EA80DF09EFDB0F5806F01DAEE
:10C590004FF000080EA904A8B268F6F787FE81469E
:10C5A000B9F1000F02D111B0BDE8F08F94F8480046
:10C5B00000F0070070B928461BF036F98346CBF12E
:10C5C000000002B200210EA80DF01DFE688BADF830
:10C5D0003E0000BF94F8480000F00700022805D094
:10C5E00094F8480000F0070003280ED1D6F808B0F0
:10C5F00004A8B060CDF800800EAA06A93046636A90
:10C6000010F098FFC6F808B007E0CDF800800EAA39
:10C6100006A93046636A10F08DFFD6F808A004A87A
:10C62000B06094F8480000F0070003284FD141F6AD
:10C63000FF71BDF92A008DE88300BDF92C30069A00
:10C6400003A8616A23F080FA0EA80DF0C4FDBDF9BD
:10C650000C1088421BDA20221146069814F047FE7F
:10C6600000EB4000B4F84410BDF80C20114408441D
:10C6700000B2ADF82E004620005BADF83000CDF8DA
:10C6800000800EAA06A93046636A10F053FF0EA878
:10C690000DF019FDBDF90E10884217DAB4F8440008
:10C6A000ADF82E00069814F045FE4621095BBDF852
:10C6B0000E201144084400B2ADF83000CDF80080DF
:10C6C0000EAA06A93046636A10F034FF00BFC6F810
:10C6D00008A000BF67E72DE9F14F9AB01A9814F04F
:10C6E00090FB80461A9814F0EDFB0446B8F1150F44
:10C6F00016D11A9814F08DFB054618A9204606F0AD
:10C700002DFC0AA812F0D6FA0AAA4FF4802120467E
:10C710001CF0A7FE18AA0AA9284612F0AFFAC5E035
:10C72000B8F1180FFBD11A9814F073FB054612A844
:10C7300011F0B4FA12AA4FF4802120461CF0B6FD85
:10C7400010A9204606F00AFC10AA0EA8A968F6F760
:10C75000ADFD0D900D9800287DD0204606F073F8B1
:10C76000814620461CF032FC8346484617F02CFCDC
:10C7700002210390BDF95A00CDE901B10090BDF945
:10C780005C300CA8129A039923F0DEF920461AF0C7
:10C790005BFE0646304606EBD0714A10B4F916101F
:10C7A0000A44B9F91610891A0B9148461AF04CFE42
:10C7B0000B99890391FBF0F00B90002120461CF0AF
:10C7C000A9FA0A901299B1F908200A99B1F908104A
:10C7D000501A00EBD071491009B20991BDF832101E
:10C7E0000998081A00B2ADF83200304606EBD07155
:10C7F0004A10B4F916105718BDF932000B99484386
:10C8000007EBA03709983F1A002120461BF095FD41
:10C8100082464FF0000B41F61202594620461CF0AA
:10C8200087F90390039800B2089000BF41F6130205
:10C83000594620461CF07CF90390039800B20790FB
:10C84000A18A08980844504400B2ADF8140038B2E8
:10C85000ADF8160000E028E0218B0798081AA0EB3D
:10C860000A0000B2ADF81800BDF81600BDF832108D
:10C87000084400B2ADF81A009DF8650040F00200CF
:10C880008DF86500A86804900EA8A860484617F0C7
:10C890009BFB834600205B4605AA12A90090284610
:10C8A00010F048FE0498A86000BF00BF1BB0BDE8B0
:10C8B000F08F2DE9F14FA8B0289814F003FB04463F
:10C8C0002546289814F0A5FA2790002120461BF051
:10C8D0008FFF2690002120461CF033F82590002180
:10C8E00020461CF0FEF82490002120461BF0A3FEF9
:10C8F000239000BFA08AADF88400E08AADF88600DE
:10C90000208BADF88800608BADF88A0000BFBDF8C1
:10C9100084102698084400B2ADF88400BDF8881051
:10C920002598081A00B2ADF88800BDF88610249842
:10C93000084400B2ADF88600BDF88A102398081AA2
:10C9400000B2ADF88A0013A812F0B4F913AA4FF49C
:10C95000003120461CF085FD21AA13A9279812F06A
:10C960008DF9002620461AF06FFD074600BF208B88
:10C97000A18A401A401CC01B0FFA80F8686A401C4C
:10C9800040B1696A01FB08F0C11700EB116109129F
:10C990000EB20CE020461BF0BBFB00F0010BBBF11C
:10C9A000000F01D0404600E00020064600BF4FF0D7
:10C9B000000B41F26A42594620461CF0B9F800903B
:10C9C0000098C0B2012802D1A8EB060006B2A08AE6
:10C9D000304400B2ADF84400BDF84400384400B221
:10C9E000ADF84800E08AADF84600608BADF84A002B
:10C9F0004FF4403120461BF0FBFE81464FF440319E
:10CA000020461BF09EFF82464FF4403120461CF02A
:10CA100068F810904FF4403120461BF00CFE0F9048
:10CA2000BDF84400A0EB090000B2ADF84400BDF829
:10CA30004800504400B2ADF84800BDF846101098C8
:10CA4000081A00B2ADF84600BDF84A100F98084425
:10CA500000B2ADF84A0001A812F02CF901AA4FF477
:10CA6000403120461CF0FDFC11AA01A9279812F0C4
:10CA700005F929B0BDE8F08F2DE9F14FE0B06098DD
:10CA800014F020FA04462546609814F0C2F9814655
:10CA900004F114015EA8D9F80820F6F707FC10B9D4
:10CAA00061B0BDE8F08FD9F808005D905EA8C9F8C4
:10CAB00008004FF0000841F23202414620461CF0C7
:10CAC00037F80C900C9800B25690002120461CF0CC
:10CAD00015F85590002120461BF0BAFD5490002116
:10CAE00020461BF092FE5390002120461BF036FF9B
:10CAF00052904FF4A02120461BF087FE51904FF436
:10CB0000A02120461BF02AFF50904FF4A021204680
:10CB10001BF0F4FF4F904FF4A02120461BF098FD2E
:10CB20004E90208C4D9000202084608C20F00400DA
:10CB3000001D60843FA812F0BDF83FAA4FF4A02169
:10CB400020461CF08EFC29A811F0A8F829AA4FF461
:10CB5000A02120461CF0AAFB4D982084608C20F078
:10CB600004006084002720461AF072FE0146E28A23
:10CB700055981044401E411A5698084400B2ADF82A
:10CB80006E0120461AF05AFE2090002120461BF02C
:10CB900060FB012800D100E000201F9049460DA84D
:10CBA0001AF0F2F84FF4A0201A90FE480E900020E0
:10CBB0000F9031A8119021A812904FF0000B33E292
:10CBC000E86A30F91B000C90BDF86E01401C00B201
:10CBD000ADF86A01BDF86A110C980844401E00B215
:10CBE000ADF86E01BDF96A01BDF97E11884200DD24
:10CBF0001EE21F9858B1218B5298081A401E2099A6
:10CC0000411A5698081A00B2ADF868010AE0A18AE4
:10CC100053980844401E2099411A5698084400B27F
:10CC2000ADF86C010026F7E100200B90A86A50F8DF
:10CC3000270020B1A86A50F8270000780B901F98B1
:10CC400080B1BDF86801401E00B2ADF86C01286BE0
:10CC500030F81600BDF86C11081A401C00B2ADF88F
:10CC600068010FE0BDF86C01401C00B2ADF868012E
:10CC7000286B30F81600BDF868110844401E00B259
:10CC8000ADF86C014FF0000800BF34E007EB08017D
:10CC9000A86A50F8210048B307EB0802A96A51F8C6
:10CCA000220008B101780B910B9901F00101D9B173
:10CCB0001F9961B106EB0801491C2A6B32F811106B
:10CCC000BDF86821511A09B2ADF868110DE006EB04
:10CCD0000801491C2A6B32F81110BDF86C2111446F
:10CCE00009B2ADF86C1100E00BE000E009E008F1DA
:10CCF00001001FFA80F808EB0601A88C401E814253
:10CD0000C4DB00BFBDF96E01BDF97A11884207DAB4
:10CD100008F10100384487B206EB080086B279E1D9
:10CD200000BFBDF86801ADF82400BDF86A01ADF898
:10CD30002600BDF86C01ADF82800BDF86E01ADF815
:10CD40002A0000BF9DF81F01400800F0040090B1C8
:10CD5000BDF92410B4F914205398104481420ADD1F
:10CD6000BDF91C0100EBD071BDF82420A2EB6101DC
:10CD700009B2ADF824109DF81F01400800F0020030
:10CD800090B1BDF92610B4F916205598104481428F
:10CD90000ADDBDF91C0100EBD071BDF82620A2EB25
:10CDA000610109B2ADF826109DF81F01400800F09E
:10CDB0000800B8B1BDF92810B4F918205298101A1B
:10CDC000401E81420EDABDF91C0100EBD07182B227
:10CDD00002F0010202EB6101BDF82820114409B202
:10CDE000ADF828109DF81F01C0F34000B8B1BDF99F
:10CDF0002A10B4F91A205498101A401E81420EDAF3
:10CE0000BDF91C0100EBD07182B202F0010202EB0D
:10CE10006101BDF82A20114409B2ADF82A104FF083
:10CE2000000AE88E584523D1A88EB04220D194F84C
:10CE3000200000F0400030B994F8200000F02000FD
:10CE400008B14AF0200A94F8200000F0020008B16E
:10CE50004AF0020A94F8200000F0040008B14AF0F9
:10CE6000040A94F8200000F0080008B14AF0080A0B
:10CE7000BAF1000F0AD138223FA931A818F00BFAF5
:10CE8000202229A921A818F006FA1EE0A4F820A063
:10CE9000608C20F00400001D608431A811F00AFFAE
:10CEA00021A810F0FBFE31AA4FF4A02120461CF06F
:10CEB000D8FA21AA4FF4A02120461CF0F7F94D988A
:10CEC0002084608C20F00400608409A81090A88C55
:10CED0000BFB00601B900DAA1A21204613F0F8FFEF
:10CEE00009AA31A9484611F0C9FEA86A50F82700DE
:10CEF00000287DD0BDF868115198084400B2ADF803
:10CF00006001BDF86C115098081A00B2ADF86401C8
:10CF1000BDF86A114F98084400B2ADF86201BDF83F
:10CF20006E114E98081A00B2ADF866010B98C0F366
:10CF300040000890089810B10220579001E00020AE
:10CF4000579000BFBDF86401BDF86011401A401C45
:10CF500000B20490BDF9962004995798CDE90021BC
:10CF60000290A86A50F82700411CBDF998305CA8CF
:10CF7000299A22F0E9FD089818BB0C9901EBD172AF
:10CF8000BDF86A3103EB6202BDF9720100EBD073A8
:10CF9000A2EB630212B2ADF862210C9901EBD172DF
:10CFA00002E00000DC640408BDF86A3103EB6202B1
:10CFB000BDF9720100EBD07302EB630212B2ADF85F
:10CFC00066215AAA5EA906A8F6F770F90590059899
:10CFD00090B106A8C9F8080000200090A86A50F88F
:10CFE0002700431C58AA21A9484610F0A3FA00E0E4
:10CFF00003E05EA8C9F8080000BF0DAA1B21204667
:10D0000013F066FF08F10100384487B206EB080010
:10D0100086B200BF701C86B2A88CB0423FF704AE47
:10D020000BF101001FFA80FBE88C58453FF7C8ADB3
:10D0300000BF5D98C9F8080000BF31E52DE9F04F49
:10D04000A3B0074689461646229730460DF0A0F851
:10D05000054600EBD5704FEA60083088404400B2C6
:10D06000ADF884007088404400B2ADF886001EA878
:10D0700010F060FE1EAA4FF4A02138461CF07DF986
:10D0800018A810F03AFA18AA4FF4A02138461CF05C
:10D09000AEF8002138461BF018FA1790494605A84B
:10D0A00019F072FE7048069021A80E902298303038
:10D0B000F7F7C4FB0446D1E02568169420790128CF
:10D0C0005CD1B5F92000E98B08440090B5F9203017
:10D0D000D5E90512E06817F073FF8246A88B00EBD4
:10D0E0000801608A08440FFA80FB0FFA8AF022F0E8
:10D0F0003DFC10FB0BF047F6FF7190FBF1F0BDF823
:10D100008610084400B2ADF812000FFA8AF022F03F
:10D1100025FC10FB0BF047F6FF7190FBF1F0BDF81A
:10D120008410084400B2ADF81000A08AADF8780071
:10D13000208A00B2ADF87A006079FD2801DD1798E9
:10D1400003E060791799484300128DF880000120B0
:10D1500013901EA80B9004A80F9005AA1A21384618
:10D1600013F0B6FE04AB21AA1EA9484610F0CBFD71
:10D1700005AA1B21384613F0ABFE68E02079002891
:10D1800065D1206900B963E0B5F92000E98B084456
:10D190000090B5F92030D5E90512E06817F010FFCE
:10D1A000824604A9206915F023FCBDF88410A08AEA
:10D1B000081A00B2ADF80800BDF88610E08A081A17
:10D1C00000B2ADF80A00BDF808000499C1F38A2145
:10D1D0000844401E00B2ADF80C00BDF80A000499E6
:10D1E00000EB5150401E00B2ADF80E006079FD28F2
:10D1F00001DD179803E060791799484300128DF814
:10D200006B00A08AADF86400E18A18A8C1800AEB1F
:10D210008A004FEA400ABAF5616F01DDAAF5616A3A
:10D220001FFA8AF0ADF8600018A80C9005AA1A2120
:10D23000384613F04DFE02AA18A94846236910F09B
:10D240000DF905AA1B21384613F042FE00BF00BFAE
:10D25000214622983030F7F7EBFA0446002C7FF491
:10D260002BAF23B0BDE8F08F04C803082DE9F74FBA
:10D270008AB00C46904694F82A00022802DC0DB0D1
:10D28000BDE8F08FE08C00B9F9E794F82A90B9F185
:10D29000FD0F01DD4FF0FF09414608A80CF082FEAA
:10D2A000208D401E05B2BDF82000401B00B2ADF835
:10D2B0002000BDF82200401B00B2ADF82200BDF8EE
:10D2C0002400284400B2ADF82400BDF8260028440C
:10D2D00000B2ADF8260008A906A80CF063FEBDF860
:10D2E0001800E18C401A00B2ADF81800BDF81C001F
:10D2F000E18C084400B2ADF81C00BDF81A00E18CC6
:10D30000401A00B2ADF81A00BDF81E00E18C0844C6
:10D3100000B2ADF81E0008A80CF02CFF824608A849
:10D320000CF0A0FE0746B4F90060BA4501DA504699
:10D3300000E038468346B6EB6B0F01DD4FEA6B0623
:10D34000E08C304400B20590A07894F82A10CDE922
:10D350000210A08CADF8040030B2009008AA06A913
:10D36000059B0A98FBF744FC00BF88E7F8B5054623
:10D37000284613F0A7FD0646284613F0A0FD0446F4
:10D38000606BB0F5A02F54D1A06B072806D2002007
:10D390002169C870216981F8220014E0208F81B2D0
:10D3A000202230460DF0C4FD68B100202169C8700C
:10D3B000216981F8220012201DF050FF0090BDF875
:10D3C000001060698181208F81B24FF400423046A5
:10D3D0000DF0AEFD98B166202169C870304621F08D
:10D3E0009BFF0090BDF800102069818030460DF051
:10D3F00099FDA16B884202D1B2202169C870208FAB
:10D4000081B24FF4804230460DF092FD88B1FF208A
:10D41000216981F82200304621F07EFF0090BDF89E
:10D4200000102069C1832069008C401C00B2216972
:10D430000884F8BD2DE9F04F8BB08146484613F0C3
:10D4400041FD05462C46484613F0E3FC8346606ADE
:10D4500016F0BAFD82469AF8000000283ED1A06A74
:10D4600000283BD0A06A0078C0B303A810F016FCD7
:10D4700003AA4FF4002128461BF018FF94F85C0023
:10D48000C0F3C00028B19DF8290040F002008DF8DB
:10D490002900002128461BF0C5F90746002128462F
:10D4A0001BF039FB8046002128461AF053FF064640
:10D4B00005F1140101A80CF0A2FD08EB060002B270
:10D4C000B81901B201A80CF09EFE0020009001AA3C
:10D4D00003A95846A36A10F02DF800BF0BB0BDE8B1
:10D4E000F08F7CB50446A06985686089002856D114
:10D4F000A089002853D1E088218988424FDAE18849
:10D5000008B222F033FAB4F90410B4F90E20891AE3
:10D5100048432168498801EBE03000B2ADF80200D1
:10D52000E1885A3108B222F021FAA18810FB01F0FB
:10D530002168098801EBE03000B2ADF804002189D0
:10D5400008B222F013FAA18810FB01F02168498883
:10D5500001EBE03000B2ADF8060021895A3108B283
:10D5600022F004FAB4F90410B4F90E20891A4843E1
:10D570002168098801EBE03000B2ADF800002A46CE
:10D5800069466846F5F792FE06463EB1A169C1F8C4
:10D5900008D06A462169A06911F070FBC2E0608979
:10D5A00010B1A08900287BD16089D0BB2068008899
:10D5B000ADF8000020684088A188084400B2ADF8AA
:10D5C0000600E18808B222F0D1F9B4F90410B4F9E8
:10D5D0000E20891A48432168498801EBE03000B2E7
:10D5E000ADF80200E1885A3108B222F0BFF9A188F3
:10D5F00010FB01F02168098801EBE03000B2ADF8C2
:10D6000004002A4669466846F5F750FE06463EB1D4
:10D61000A169C1F808D06A462169A06911F02EFB02
:10D6200000BFA08900287DD120680088A188084417
:10D6300000B2ADF8040020684088ADF802002189EE
:10D6400008B222F093F9A18810FB01F02168498803
:10D6500001EBE03000B2ADF8060021895A3108B282
:10D6600022F084F9B4F90410B4F90E20891A484361
:10D670002168098801EBE03000B2ADF800002A46CD
:10D6800069466846F5F712FE06463EB1A169C1F843
:10D6900008D06A462169A06911F0F0FA42E0FFE77C
:10D6A0006089A189884205D1608918B12089E18803
:10D6B000884211DB6089022802D1A08901280BD0A1
:10D6C0006089032802D1A089022805D06089032837
:10D6D00028D1A089012825D120680088ADF8000054
:10D6E00020684088ADF8020020680088A1880844BE
:10D6F00000B2ADF8040020684088A188084400B258
:10D70000ADF806002A4669466846F5F7CFFD06469D
:10D710003EB1A169C1F808D06A462169A06911F03B
:10D72000ADFA00BFA06985607CBD7CB50446A069E8
:10D7300085686089012856D1A089012853D1E088E5
:10D74000218988424FDAE18808B222F00FF9A188D6
:10D7500010FB01F02168498801EBE03000B2ADF820
:10D760000600E1885A3108B222F000F9B4F9041039
:10D77000B4F90E20891A48432168098801EBE0308A
:10D7800000B2ADF80400218908B222F0EFF8B4F934
:10D790000410B4F90E20891A48432168498801EB26
:10D7A000E03000B2ADF8020021895A3108B222F00F
:10D7B000DDF8A18810FB01F02168098801EBE03059
:10D7C00000B2ADF800002A4669466846F5F76EFDDE
:10D7D00006463EB1A169C1F808D06A462169A06930
:10D7E00011F04CFAC7E06089012802D0A089012815
:10D7F0007ED1608901283AD120680088A188401A2A
:10D8000000B2ADF8000020684088ADF80200E18861
:10D8100008B222F0ABF8A18810FB01F0216849881A
:10D8200001EBE03000B2ADF80600E1885A3108B2F1
:10D8300022F09CF8B4F90410B4F90E20891A484378
:10D840002168098801EBE03000B2ADF804002A46F7
:10D8500069466846F5F72AFD06463EB1A169C1F85A
:10D8600008D06A462169A06911F008FA00BFA089B2
:10D870000128B7D120680088401E00B2ADF804002E
:10D8800020684088A188084400B2ADF806002189CC
:10D8900008B222F06BF8B4F90410B4F90E20891A1A
:10D8A00048432168498801EBE03000B2ADF802003E
:10D8B00021895A3108B222F059F8A18810FB01F0F1
:10D8C0002168098801EBE03000B2ADF800002A467B
:10D8D00069466846F5F7EAFC06463EB1A169C1F81B
:10D8E00008D06A462169A06911F0C8F943E0FFE752
:10D8F0006089A189884206D16089012803D02089E6
:10D90000E18888420FDB608910B9A08902280AD01B
:10D91000608910B9A089032805D0608903282AD11D
:10D92000A089022827D120680088A188401A00B267
:10D93000ADF8000020684088ADF80200206800883B
:10D94000401E00B2ADF8040020684088A188084459
:10D9500000B2ADF806002A4669466846F5F7A6FC0F
:10D9600006463EB1A169C1F808D06A462169A0699E
:10D9700011F084F900BFA06985607CBD7CB50446C8
:10D98000A06985686089022856D1A089022853D1F0
:10D99000E088218988424FDAE1885A3108B221F0C3
:10D9A000E5FFA18810FB01F02168098801EBE03058
:10D9B00000B2ADF80000E18808B221F0D7FFB4F959
:10D9C0000410B4F90E20891A48432168498801EBF4
:10D9D000E03000B2ADF80600218908B221F0C6FFA0
:10D9E000A18810FB01F02168498801EBE03000B20A
:10D9F000ADF8020021895A3108B221F0B7FFB4F91D
:10DA00000410B4F90E20891A48432168098801EBF3
:10DA1000E03000B2ADF804002A4669466846F5F7E2
:10DA200045FC06463EB1A169C1F808D06A462169A5
:10DA3000A06911F023F9CCE06089022802D0A08906
:10DA400002287DD1608902283CD120680088401ED0
:10DA500000B2ADF8040020684088A188401A00B2E6
:10DA6000ADF80200E1885A3108B221F07FFFA188A9
:10DA700010FB01F02168098801EBE03000B2ADF83D
:10DA80000000E18808B221F071FFB4F90410B4F984
:10DA90000E20891A48432168498801EBE03000B222
:10DAA000ADF806002A4669466846F5F7FFFB0646CC
:10DAB0003EB1A169C1F808D06A462169A06911F098
:10DAC000DDF800BFA0890228B5D120680088A188B0
:10DAD000401A00B2ADF8000020684088401E00B235
:10DAE000ADF8060021895A3108B221F03FFFB4F9A0
:10DAF0000410B4F90E20891A48432168098801EB03
:10DB0000E03000B2ADF80400218908B221F02EFF08
:10DB1000A18810FB01F02168498801EBE03000B2D8
:10DB2000ADF802002A4669466846F5F7BFFB06468F
:10DB30004EB1A169C1F808D06A462169A06900E028
:10DB400002E011F09BF844E06089A189884206D187
:10DB50006089022803D02089E18888420FDB608930
:10DB600010B9A08903280AD06089012802D1A089B0
:10DB7000032804D0608901282BD1A08948BB2068E4
:10DB80000088A188401A00B2ADF8000020684088E3
:10DB9000A188401A00B2ADF8020020680088401E3B
:10DBA00000B2ADF8040020684088401E00B2ADF815
:10DBB00006002A4669466846F5F778FB06463EB1F8
:10DBC000A169C1F808D06A462169A06911F056F828
:10DBD00000BFA06985607CBD7CB50446A0698568EE
:10DBE0006089032856D1A089032853D1E088218970
:10DBF00088424FDAE1885A3108B221F0B7FEB4F911
:10DC00000410B4F90E20891A48432168098801EBF1
:10DC1000E03000B2ADF80000E18808B221F0A6FEC5
:10DC2000A18810FB01F02168498801EBE03000B2C7
:10DC3000ADF8020021895A3108B221F097FEA1887F
:10DC400010FB01F02168098801EBE03000B2ADF86B
:10DC50000400218908B221F089FEB4F90410B4F956
:10DC60000E20891A48432168498801EBE03000B250
:10DC7000ADF806002A4669466846F5F717FB0646E2
:10DC80003EB1A169C1F808D06A462169A06910F0C7
:10DC9000F5FFC7E06089032802D0A08903287ED160
:10DCA000608903283CD120680088A188084400B21C
:10DCB000ADF8040020684088401E00B2ADF80600B0
:10DCC000E1885A3108B221F051FEB4F90410B4F9D8
:10DCD0000E20891A48432168098801EBE03000B220
:10DCE000ADF80000E18808B221F040FEA18810FBE9
:10DCF00001F02168498801EBE03000B2ADF8020084
:10DD00002A4669466846F5F7D1FA06463EB1A1694A
:10DD1000C1F808D06A462169A06910F0AFFF00BFC2
:10DD2000A08903287ED120680088ADF80000206813
:10DD30004088A188401A00B2ADF8020021895A310A
:10DD400008B221F013FEA18810FB01F021680988B8
:10DD500001EBE03000B2ADF80400218908B221F0F7
:10DD600005FEB4F90410B4F90E20891A484321685D
:10DD7000498801EBE03000B2ADF806002A4669465A
:10DD80006846F5F793FA06463EB1A169C1F808D096
:10DD90006A462169A06910F071FF43E0FFE76089DE
:10DDA000A189884206D16089032803D02089E188AF
:10DDB00088420FDB6089022801D1A08950B16089B7
:10DDC000012801D1A08928B1608902282AD1A0891F
:10DDD000012827D120680088ADF80000206840881D
:10DDE000A188401A00B2ADF8020020680088A1881E
:10DDF000084400B2ADF8040020684088401E00B21C
:10DE0000ADF806002A4669466846F5F74FFA064619
:10DE10003EB1A169C1F808D06A462169A06910F035
:10DE20002DFF00BFA06985607CBD000070B5A4B067
:10DE300006460D4620AA22A9304619F013FD22A855
:10DE40000CF048F928B920A80CF044F908B924B01E
:10DE500070BD12A9304624F091FD0446012C00D07B
:10DE6000F5E72946684618F08FFF1B48019002200D
:10DE7000029012A804904FF480300D9022A80CF06C
:10DE800029F980B122A803906A461A21304613F07E
:10DE90001FF822AA12A9284610F0F0FE6A461B219C
:10DEA000304613F015F820A80CF014F990B120A812
:10DEB00003906A461A21304613F00AF820A803900E
:10DEC00020AA12A9284610F0D9FE6A461B21304626
:10DED00012F0FEFF00BFBAE7F4C003082DE9F04FCF
:10DEE000B1B005460F4605F114012FA8BA68F5F741
:10DEF000DDF910B931B0BDE8F08FB8682E902FA8C9
:10DF0000B8602C46002128461AF017FC2B900021FF
:10DF100028461AF07EFD2A90284619F020FAB4F817
:10DF20008410484300120FFA80FA284619F0F8F9D5
:10DF3000B4F88610484300120FFA80FB04F1240065
:10DF4000F6F75DFC2890002128461AF0A8FB8234E1
:10DF500061884843001227902188491E279801FBB9
:10DF600010A0218890FBF1F000B226902899269805
:10DF7000B0FBF1F000B225904FF4A02128461AF032
:10DF80008EFB6188823C484300122490284619F099
:10DF900051FB01462B98401A00B22390284619F0F5
:10DFA00043FC01462A98401A00B2229014A810F0AF
:10DFB00081FE14AA4FF4A02128461BF052FA14A89F
:10DFC000C07B20F0070114A8C173FF208DF8530017
:10DFD000688BBDF85010084400B2ADF8B600394661
:10DFE00002A818F0D1FE4FF4A0200F905D480390D6
:10DFF000042004904FF00008AAE02798504400FB4A
:10E0000008F0B4F8821090FBF1F0A98A014423983B
:10E01000084400B20190CDF8408004F12400F6F7E6
:10E020000DFC06468CE0307B00F0010000B181E081
:10E0300094F88800C0F3C00008B9708900E000209F
:10E0400000B200900198ADF8B000BDF8B01025986E
:10E0500001442498081A401E00B2ADF8B400259976
:10E060000198084400B20190BDF9B400BDF9BC109C
:10E07000884200DA5EE0BDF9B000BDF9C010884208
:10E0800000DD60E03089ADF8540000984044B4F8F9
:10E09000821090FBF1F201FB12000FFA80F9706818
:10E0A00030F91910307BC0F3001204F16C0030F924
:10E0B0001200081A00FB0BF02990307BC0F300110E
:10E0C00004F1700030F91110307BC0F3001204F13C
:10E0D0006C0030F91200091A299890FBF1F0299090
:10E0E0002998ABEB0001E88A01442298084400B269
:10E0F000ADF8B200706830F9190047F6FF71884238
:10E1000017D02CA8059014A806901396706830F9C3
:10E110001900129002AA1A21284612F0D9FE2CAA40
:10E1200014A9384610F0AAFD02AA1B21284612F0B5
:10E13000CFFE00BF314604F12400F6F779FB064616
:10E14000002E7FF470AF00BF08F101001FFA80F8C5
:10E15000B4F8820040453FF750AF2E98B86000BF3A
:10E16000C8E60000CCC203082DE9F34FB9B08346DE
:10E170003A980BF11401826837A8F5F797F810B9AF
:10E180003BB0BDE8F08F3A988068369037A93A984E
:10E1900081605D46B5F88200022800DAF0E70021D0
:10E1A00058461AF0B0F83390002158461AF0C5FAD4
:10E1B00001463398084400B23290002158461AF0C4
:10E1C00028FC01463398084400B23190584619F0B3
:10E1D000C6F8B5F884104843001200B23090584693
:10E1E00019F09EF8B5F886104843001200B22F903F
:10E1F000584619F01FFA0146BBF814203298104413
:10E20000401A00B22E90584619F00EFB0146BBF89A
:10E21000162031981044401A00B22D903A980BF114
:10E22000140182682BA8F5F741F82A902A9800B9C2
:10E23000A6E727A80FF07EFD27AA4FF4A021584695
:10E240001BF09BF819A810F035FD19AA4FF4003106
:10E2500058461BF006F94FF4003158461AF075FE87
:10E26000064600EBD67047104FF4003158461AF0BE
:10E27000C4F8064600EBD6704FEA600ABDF99E006E
:10E28000574501DA394600E0514600EBD072B1EB58
:10E29000620F06DD9DF8A50020F0100010308DF80B
:10E2A000A500BDF89E00012806D19DF8A50020F02C
:10E2B000100010308DF8A500B5F88210309881421A
:10E2C00001DB012000E00020189005F12400F6F7A2
:10E2D000B5FA0446D4E1207B00F0010000B1C9E1A9
:10E2E0002089ADF89C002089ADF8680095F8880079
:10E2F000C0F3C00008B9608900E0002006B217969C
:10E300002E98ADF8D4002E98ADF8D000179E179E29
:10E31000B046606830F91810207BC0F3001205F198
:10E320006C0030F91200081A2F9948431690207B90
:10E33000C0F3001105F1700030F91110207BC0F31B
:10E34000001205F16C0030F91200091A169890FBC2
:10E35000F1F0169016992F98411A2D98084400B2A2
:10E36000ADF8D20004A83A9918F00EFDC8480590FF
:10E37000032006904FF4A020119027A80A9019A816
:10E3800008901594BDF9D2000390BDF9D200029017
:10E390004FF0000923E1BDF8D000ADF8D400BDF87E
:10E3A000D200ADF8D600BDF9D4103698B0F904000B
:10E3B0003844401C814200DD16E1309800FB09F032
:10E3C000B5F88210491E90FBF1F12E98084400B276
:10E3D000ADF8D00017984844B5F8821090FBF1F2E0
:10E3E00001FB120006B2606830F91610207BC0F302
:10E3F000001205F16C0030F91200081A2F994843F9
:10E400001690207BC0F3001105F1700030F9111057
:10E41000207BC0F3001205F16C0030F91200091ADC
:10E42000169890FBF1F0169016992F98411A2D9896
:10E43000084400B2ADF8D200BDF9D0103698B0F95A
:10E440000000C01B401E814201DAB046C3E0B9F1B2
:10E45000000F58D01898E8B3606830F9180047F6F4
:10E46000FF718842F5D0606830F916008842F0D01C
:10E47000BDF9D2100298814201DA029801E0BDF99B
:10E48000D2000290BDF9D2100398814201DD0398B9
:10E4900001E0BDF9D2000390BDF9D400BDF9D01060
:10E4A000884230D0BDF9D2000190BDF8D000401EA6
:10E4B00000B2ADF8D000BDF8D000ADF8D40003989C
:10E4C000ADF8D6000298ADF8D200BDF9D600BDF97E
:10E4D000D21000E018E0884205D1BDF8D200401CFF
:10E4E00000B2ADF8D20034AB35AA27A93A980FF0A4
:10E4F0000AFCBDF8D000401C00B2ADF8D000019875
:10E5000003900198029064E0BDF8D400C01B00B2F3
:10E51000ADF80000BDF8D400384400B2ADF80400F6
:10E52000BDF8D600A0EB0A0000B2ADF80200BDF8BD
:10E53000D600504400B2ADF80600A9F101001290D7
:10E54000606830F9180047F6FF71884201D035A89D
:10E5500000E000200D90606830F9160047F6FF716A
:10E56000884201D034A800E000200E90CDF81CD0E5
:10E57000606830F91800149004AA1A21584612F065
:10E58000A7FC606830F9180047F6FF7188420AD08E
:10E59000606830F91600884205D034AB35AA27A947
:10E5A0003A980FF0B0FB77B1BAF1000F0BD060686A
:10E5B00030F9180047F6FF71884204D06A4619A95D
:10E5C0003A9810F05BFB04AA1B21584612F080FC1D
:10E5D00000BFB04600BF09F101001FFA80F9B5F88D
:10E5E000820048453FF7D7AE00BF1898E8BBB5F8A2
:10E5F000820048453DD1606830F9160047F6FF714A
:10E60000884236D0BDF8D000C01B00B2ADF8000083
:10E61000BDF8D000384400B2ADF80400BDF8D20017
:10E62000A0EB0A0000B2ADF80200BDF8D2005044E1
:10E6300000B2ADF80600A9F10100129000200D9083
:10E640000E90CDF81CD0606830F91600149004AA22
:10E650001A21584612F03CFC6A4619A93A9810F063
:10E660000DFB04AA1B21584600E002E012F030FC2A
:10E6700000BF00BF214605F12400F6F7D9F8044693
:10E68000002C7FF428AE3A993698886000BF77E571
:10E69000CCC203082DE9F34FB3B08146349809F199
:10E6A0001401826831A8F4F701FE10B935B0BDE855
:10E6B000F08F34988068309031A9349881604D464D
:10E6C0000021484619F01FFE2D90002148461AF0FF
:10E6D00034F82C90002148461AF09BF92B904846BC
:10E6E00018F03DFEB5F884104843001200B22A909D
:10E6F000484618F015FEB5F886104843001200B2DF
:10E700002990484618F096FF0146B9F814202C9835
:10E7100002442D981044401A00B22890484619F03F
:10E7200083F80146B9F816202B9802442D9810441E
:10E73000401A00B2279024A80FF0FCFA24AA4FF444
:10E74000A02148461AF019FE16A810F0B3FA16AA2E
:10E750004FF4003148461AF084FE4FF40031484629
:10E760001AF0F3FB064600EBD67047104FF4003169
:10E77000484619F042FE064600EBD6704FEA6008A4
:10E78000BDF99200474501DA394600E0414600EB09
:10E79000D072B1EB620F06DD9DF8990020F01000F9
:10E7A00010308DF89900BDF89200012806D19DF82F
:10E7B000990020F0100010308DF8990005F1240028
:10E7C000F6F73CF8044698E1207B00F0010000B128
:10E7D0008DE12089ADF890002089ADF85C0095F8B6
:10E7E0008800C0F3C00008B9608900E0002006B2CC
:10E7F00015962898ADF8BC002898ADF8B800159E7D
:10E80000159EB346606830F816000A2847D02A984B
:10E810000090236833F91600237BC3F3C00C05F185
:10E82000780333F91C20237BC3F3C00C05F1740378
:10E8300033F91C10002316F0C3FB00B2ADF8B8008A
:10E84000BDF8B8102898084400B2ADF8B80029986F
:10E850000090636833F91600237BC3F3001C05F1B5
:10E86000700333F91C20237BC3F3001C05F16C03F8
:10E8700033F91C10002316F0A3FB00B2ADF8BA0068
:10E88000BDF8BA102998401A00B2ADF8BA00BDF828
:10E89000BA102798084400B2ADF8BA0005E04EF26D
:10E8A0000100ADF8B800ADF8BA0003A8349918F02B
:10E8B0006BFA4FF4A0201090944804900320059028
:10E8C00024A8099016A8079014944FF0000AC8E0F5
:10E8D000BDF8B800ADF8BC00BDF8BA00ADF8BE0098
:10E8E00015985044B5F8821090FBF1F201FB12002C
:10E8F00006B2606830F9160047F6FF71884247D0CB
:10E9000029980090636833F91600237BC3F3001C39
:10E9100005F1700333F91C20237BC3F3001C05F1C0
:10E920006C0333F91C10002316F04AFB00B2ADF85B
:10E93000BA00BDF8BA102998401A00B2ADF8BA0072
:10E94000BDF8BA102798084400B2ADF8BA002A986A
:10E950000090236833F91600237BC3F3C00C05F144
:10E96000780333F91C20237BC3F3C00C05F1740337
:10E9700033F91C10002316F023FB00B2ADF8B800E9
:10E98000BDF8B8102898084400B2ADF8B80001E00E
:10E99000B34662E0BAF1000F5DD0BDF8BC00C01B09
:10E9A00000B2ADF80400BDF8BC00384400B2ADF8C8
:10E9B0000800BDF8BE00A0EB080000B2ADF80600EC
:10E9C000BDF8BE00404400B2ADF80A00AAF1010053
:10E9D0001190606830F91B0047F6FF71884201D042
:10E9E0002FA800E000200C90606830F9160047F670
:10E9F000FF71884201D02EA800E000200D9001A8F0
:10EA00000690606830F91B00139003AA1A2148464B
:10EA100012F05EFA606830F91B0047F6FF71884219
:10EA200013D0606830F9160088420ED02EAB2FAAA2
:10EA300024A934980FF067F93FB1B8F1000F04D062
:10EA400001AA16A9349810F019F903AA1B21484607
:10EA500012F03EFA00BFB34600BF0AF101001FFAF0
:10EA600080FAB5F8820050453FF732AFB5F8820022
:10EA700050453BD1606830F9160047F6FF71884277
:10EA800034D0BDF8B800C01B00B2ADF80400BDF82A
:10EA9000B800384400B2ADF80800BDF8BA00A0EBE9
:10EAA000080000B2ADF80600BDF8BA00404400B25C
:10EAB000ADF80A00AAF10100119000200C900D9011
:10EAC00001A80690606830F91600139003AA1A2175
:10EAD000484612F0FDF901AA16A9349810F0CEF8B4
:10EAE00003AA1B21484612F0F3F900BF00BF2146DC
:10EAF00005F12400F5F79CFE0446002C7FF464AE7B
:10EB000034993098886000BFD0E50000CCC203087B
:10EB10002DE9F74FA2B00F46F88D10B925B0BDE82A
:10EB2000F08F97F83600022800DCF7E7F88D01280F
:10EB300008D1B7F93400002804DC388E10B9788E7B
:10EB400000B9EBE724980088398E0844B98E401A42
:10EB500000B2ADF8800024988088398E0844B98EC0
:10EB6000084400B2ADF8840024984088798E0844A7
:10EB7000B98E401A00B2ADF882002498C088798E10
:10EB80000844B98E084400B2ADF88600B7F92E00EB
:10EB900000EBD071BDF88020A2EB6101491E09B2E3
:10EBA000ADF87810B7F92E0000EBD071BDF88420D5
:10EBB00002EB6101491C09B2ADF87C10B7F92E00D7
:10EBC00000EBD071BDF88220A2EB6101491E09B2B1
:10EBD000ADF87A10B7F92E0000EBD071BDF88620A1
:10EBE00002EB6101491C09B2ADF87E1097F83600BE
:10EBF0001D901D98FD2801DDFF201D9022981EA963
:10EC000082681BA8F4F752FB00B987E719A824997A
:10EC10000BF0C8F94FF0FF32114619A80BF0E2FAD9
:10EC2000B7F9008019A80BF0A5FA834619A80BF0D4
:10EC300019FA834503DA19A80BF09CFA02E019A827
:10EC40000BF010FA18901898B8EB600F02DD1898C6
:10EC50004FEA6008B7F90000179020A80BF08AFA75
:10EC6000834620A80BF0FEF9834503DA20A80BF0B9
:10EC700081FA02E020A80BF0F5F91890DDE9170100
:10EC8000B0EB610F02DD189840101790B7F92E1005
:10EC900017980C1804FB04F1480016F0DFF98246BF
:10ECA000B7F92E20179803B2514620A824F034F863
:10ECB0001EA80FF071FB16904FF00109169820B9AD
:10ECC000F878FF2801DBB87808B14FF000094FF061
:10ECD000FF300F90B9F1000F0BD101230FFA88F22A
:10ECE00019A910A80FF0D0FE002110A80FF04EF8BF
:10ECF0000F901EA80BF03EFA834616F0AFF90E9067
:10ED00001C2102A816F055FC0CA8029007900E9842
:10ED10000590B88DADF8100097F836008DF82000FA
:10ED2000B8788DF821001EA80BF024FA834600EB7A
:10ED3000DB70BDF8781001EB600000B201901EA8F6
:10ED40000BF090F9834600EBDB70BDF87A1001EB15
:10ED5000600000B20090BDF87C00ADF83400BDF852
:10ED60007C00001B401C00B2ADF83000BDF87A00FA
:10ED7000ADF83200BDF87A002044401E00B2ADF874
:10ED80003600BDF930100198814202DDBDF9300036
:10ED900000E00198ADF83000BDF9361000988142CE
:10EDA00002DABDF9360000E00098ADF8360022988E
:10EDB0000CA982680AA8F4F779FA002866D00FFA3D
:10EDC00088F219A90AA8F4F7B2FA00285ED10AA8B5
:10EDD0000BF0D0F983465646BDF92A00BDF97A10EA
:10EDE000401A00FB0466BDF92810BDF97C00001B29
:10EDF000401C081A0644B9F1000F09D00FFA88F236
:10EE000019A90AA8F4F70EFB10B10120099001E03E
:10EE1000CDF82490BBF1000F37DD0E980590BDF8BA
:10EE20002800ADF83000BDF82C00ADF83400022009
:10EE30008DF81800BDF92A5023E0ADF83250ADF836
:10EE400036500998A8B9224631460E9816F023FA92
:10EE5000BDF928105B462A460E980FF04DFA8DF842
:10EE600018009DF81800012804D102208DF8180020
:10EE700000E0059602A9229810F0A6FC2644681C22
:10EE800005B2BDF92E00A842D7DA00BFBDF87C005C
:10EE9000ADF83400BDF87C00001B401C00B2ADF89A
:10EEA0003000BDF87E00001B401C00B2ADF83200FF
:10EEB000BDF87E00ADF83600BDF9301001988142F2
:10EEC00002DDBDF9300000E00198ADF83000BDF979
:10EED00032100098401C814202DDBDF9320001E091
:10EEE0000098401C00B2ADF8320022980CA982684C
:10EEF0000AA8F4F7DBF9002866D00FFA88F219A9FE
:10EF00000AA8F4F714FAA8BB0AA80BF033F9834651
:10EF10005646BDF93600BDF92E10401A00FB0466B6
:10EF2000BDF92810BDF97C00001B401C081A0644DE
:10EF3000B9F1000F09D00FFA88F219A90AA8F4F75D
:10EF400071FA10B10120099001E0CDF82490BBF1D5
:10EF5000000F38DD0E980590BDF82800ADF83000A0
:10EF6000BDF82C00ADF8340002208DF81800BDF972
:10EF70002E5024E028E0ADF83250ADF83650099814
:10EF8000A8B9224631460E9816F085F9BDF9281029
:10EF90005B462A460E980FF0AFF98DF818009DF8E1
:10EFA0001800012804D102208DF8180000E0059611
:10EFB00002A9229810F008FC2644681E05B2BDF98B
:10EFC0002A00A842D7DD00BFBDF87800204400B277
:10EFD000ADF83000BDF87C00001B00B2ADF8340085
:10EFE000BDF87A00ADF83200BDF87A002044401E2A
:10EFF00000B2ADF83600BDF936100098814202DA51
:10F00000BDF9360000E00098ADF8360022980CA952
:10F0100082680AA8F4F74AF9002870D00FFA88F23B
:10F0200019A90AA8F4F783F9002868D10AA80BF0F7
:10F03000A1F883465646BDF92A00BDF93210401AA0
:10F0400000FB0466B9F1000F09D00FFA88F219A984
:10F050000AA8F4F7E7F910B10120099001E0CDF812
:10F060002490BBF1000F49DD099810B90E98059066
:10F0700001E000200590BDF82800ADF83000BDF893
:10F080002C00ADF83400BDF92A5033E0ADF8325011
:10F09000ADF836500998C8B931785A460E9816F02E
:10F0A0004EFABDF928105B462A460E980FF024F957
:10F0B0008DF818009DF81800012802D102208DF863
:10F0C000180002A9229810F07FFB10E01D98FF287D
:10F0D00001D1307805E0307897F8361010FB01F058
:10F0E00000128DF8200002A9229810F06DFB264432
:10F0F000681C05B2BDF92E00A842C7DA00BF97F818
:10F1000036008DF82000BDF87800204400B2ADF83C
:10F110003000BDF87C00001B00B2ADF83400BDF833
:10F120007E00001B401C00B2ADF83200BDF87E002E
:10F13000ADF83600BDF932100098401C814202DD66
:10F14000BDF9320001E00098401C00B2ADF8320079
:10F1500022980CA982680AA8F4F7A8F800287DD0A4
:10F160000FFA88F219A90AA8F4F7E1F800287AD171
:10F170000AA80AF0FFFF83465646BDF93600BDF9DE
:10F180002E10401A00FB0466BBF1000F6ADDB9F1D6
:10F19000000F09D00FFA88F219A90AA8F4F742F96A
:10F1A00010B10120099001E0CDF82490099810B920
:10F1B0000E98059001E000200590BDF82800ADF8FC
:10F1C0003000BDF82C00ADF83400BDF92E5042E0FF
:10F1D000ADF83250ADF83650B9F1000F09D00FFA42
:10F1E00088F219A90AA8F4F71DF910B101200990B5
:10F1F00001E0CDF824900998C8B931785A460E98A4
:10F2000016F09DF9BDF928105B462A460E980FF0BE
:10F2100073F88DF818009DF81800012802D102201B
:10F220008DF8180002A9229810F0CEFA10E01D986F
:10F23000FF2801D1307805E0307897F8361010FBC0
:10F2400001F000128DF8200002A9229810F0BCFAFB
:10F250002644681E05B2BDF92A0001E003E001E082
:10F26000A842B5DD00BF97F836008DF82000BDF844
:10F270007C00001B401C00B2ADF83000BDF87C00E3
:10F28000ADF83400BDF87A00204400B2ADF8320089
:10F29000BDF87E00001B00B2ADF83600BDF932109B
:10F2A0000098401C814202DABDF9320001E000986A
:10F2B000401C00B2ADF83200BDF936100098814212
:10F2C00002DDBDF9360000E00098ADF83600BDF96A
:10F2D00030100198814202DDBDF9300000E0019854
:10F2E000ADF8300022980CA982680AA8F3F7DEFF77
:10F2F000E0B30FFA88F219A90AA8F4F718F8A8BB26
:10F300000AA80AF037FF83465646601E00FB0466D3
:10F31000BDF92810BDF97C00001B401C081A0644EA
:10F32000B9F1000F09D00FFA88F219A90AA8F4F769
:10F3300079F810B10120099001E0CDF824900998E6
:10F3400008B1304600E00E980590BBF1000F33DDA8
:10F35000BDF82800ADF83000BDF82C00ADF8340041
:10F3600002208DF81800BDF92A5021E025E0ADF803
:10F370003250ADF836500998A0B95A4631460E9829
:10F3800015F089FFBDF928105B462A460E980EF04D
:10F39000B3FF8DF818009DF81800012802D1022053
:10F3A0008DF8180002A9229810F00EFA681C05B218
:10F3B000BDF92E00A842DADA00BF5646002515E056
:10F3C00030463319591E002208E0037891F800C036
:10F3D00080F800C00B70401C491E521C04EBD47C0A
:10F3E000B2EB6C0FF1DB2644681C05B2A542E7DBEB
:10F3F000BDF87800ADF83000BDF878002044401E1C
:10F4000000B2ADF83400BDF87A00204400B2ADF887
:10F410003200BDF87E00001B00B2ADF83600BDF929
:10F4200032100098401C814202DABDF9320001E03E
:10F430000098401C00B2ADF83200BDF936100098BB
:10F44000814202DDBDF9360000E00098ADF83600DB
:10F45000BDF934100198401E814202DABDF9340032
:10F4600001E00198401E00B2ADF8340022980CA9CA
:10F4700082680AA8F3F71AFFD0B30FFA88F219A925
:10F480000AA8F3F754FF98BB0AA80AF073FE834654
:10F490005646601E00FB0466BDF92800BDF9301019
:10F4A000401A0644B9F1000F09D00FFA88F219A9E1
:10F4B0000AA8F3F7B7FF10B10120099001E0CDF8D9
:10F4C0002490099808B1304600E00E980590BBF1F1
:10F4D000000F33DDBDF82800ADF83000BDF82C007A
:10F4E000ADF8340002208DF81800BDF92A5021E053
:10F4F00025E0ADF83250ADF836500998A0B95A461B
:10F5000031460E9815F0C7FEBDF928105B462A4615
:10F510000E980EF0F1FE8DF818009DF818000128E5
:10F5200002D102208DF8180002A9229810F04CF99F
:10F53000681C05B2BDF92E00A842DADA00BFBDF89A
:10F540007800ADF83000BDF878002044401E00B2CD
:10F55000ADF83400BDF87A00ADF83200BDF87A009D
:10F560002044401E00B2ADF83600BDF934100198B9
:10F57000401E814202DABDF9340001E00198401ECC
:10F5800000B2ADF83400BDF936100098814202DABD
:10F59000BDF9360000E00098ADF8360022980CA9BD
:10F5A00082680AA8F3F782FED0B30FFA88F219A98D
:10F5B0000AA8F3F7BCFE98BB0AA80AF0DBFD834655
:10F5C0005646BDF92A00BDF93210401A00FB046608
:10F5D000BDF92800BDF93010401A0644B9F1000FFA
:10F5E00009D00FFA88F219A90AA8F3F71BFF10B186
:10F5F0000120099001E0CDF824900E980590BBF110
:10F60000000F36DDBDF82800ADF83000BDF82C0045
:10F61000ADF8340002208DF81800BDF92A5024E01E
:10F6200028E0ADF83250ADF836500998A8B9224616
:10F6300031460E9815F02FFEBDF928105B462A467C
:10F640000E980EF059FE8DF818009DF8180001284C
:10F6500004D102208DF8180000E0059602A9229836
:10F6600010F0B2F82644681C05B2BDF92E00A8427D
:10F67000D7DA00BFBDF87800ADF83000BDF87800EB
:10F680002044401E00B2ADF83400BDF87E00001BDF
:10F69000401C00B2ADF83200BDF87E00ADF8360077
:10F6A000BDF932100098401C814202DDBDF93200E4
:10F6B00001E00098401C00B2ADF83200BDF93410F2
:10F6C0000198401E814202DABDF9340001E0019840
:10F6D000401E00B2ADF8340022980CA982680AA836
:10F6E000F3F7E4FDD0B30FFA88F219A90AA8F3F7EB
:10F6F0001EFE98BB0AA80AF03DFD83465646BDF99A
:10F700003600BDF92E10401A00FB0466BDF9280032
:10F71000BDF93010401A0644B9F1000F09D00FFAB4
:10F7200088F219A90AA8F3F77DFE10B1012009900B
:10F7300001E0CDF824900E980590BBF1000F36DD66
:10F74000BDF82800ADF83000BDF82C00ADF834004D
:10F7500002208DF81800BDF92E5024E028E0ADF805
:10F760003250ADF836500998A8B9224631460E9865
:10F7700015F091FDBDF928105B462A460E980EF053
:10F78000BBFD8DF818009DF81800012804D1022057
:10F790008DF8180000E0059602A9229810F014F8E0
:10F7A0002644681E05B2BDF92A00A842D7DD00BF75
:10F7B000BDF87800204400B2ADF83000BDF87C0000
:10F7C000001B00B2ADF83400BDF87A00204400B24E
:10F7D000ADF83200BDF87E00001B00B2ADF8360077
:10F7E0000E98059022980CA982680AA8F3F75EFD8E
:10F7F000A0B30FFA88F219A90AA8F3F798FD68BB1D
:10F800000AA80AF0B7FC8346BBF1000F25DDBDF85E
:10F810002800ADF83000BDF82C00ADF83400BDF97B
:10F820002A5016E0ADF83250ADF8365059460E98D1
:10F8300015F0F6FEBDF928105B462A460E980EF02C
:10F840005BFD8DF8180002A922980FF0BDFF681C1F
:10F8500005B2BDF92E00A842E4DA00BFB9F1000FED
:10F8600005D110A80EF074FD0F980FF0F5F9504671
:10F8700015F070FC0E9815F06DFC00BFFFF74EB947
:10F880002DE9F74FDEB05E985D9060980AF080FC3D
:10F89000804600EBD8704FEA600A60980AF0F0FBEF
:10F8A000074600EBD7704010824507DA60980AF0EF
:10F8B0006FFC064606EBD670401006E060980AF032
:10F8C000DFFB054605EBD570401000B25B906098F9
:10F8D00001885B98084400B2ADF8700160984188D7
:10F8E0005B98084400B2ADF8720158A80EF022FAF5
:10F8F00058AA4FF4C0215E9819F03FFD9DF86901A8
:10F9000020F0100010308DF8690150A80EF0C6F9F3
:10F9100050AA4FF4C0215E9819F0C8FC2CA85F993A
:10F9200017F032FAFE482D904FF4C0203990032092
:10F930002E9058A832905D982430F4F77FFF04464B
:10F9400043E23D94A18B5B98084406B2A088301A2C
:10F9500000B22B90A089301A0FFA80FABDF870110E
:10F960002B98081A00B2ADF8A400BDF872112B98BC
:10F97000081A00B2ADF8A600BDF870112B98084423
:10F9800000B2ADF8A800BDF872112B98084400B27F
:10F99000ADF8AA00012347F6FF7229A94AA80FF083
:10F9A00073F8BDF87001A0EB0A0000B2ADF89C003E
:10F9B000BDF87201A0EB0A0000B2ADF89E00BDF8E0
:10F9C00070015044401E00B2ADF8A000BDF87201B5
:10F9D0005044401E00B2ADF8A200012347F6FF726A
:10F9E00027A944A80FF050F8BDF87001801B00B2A1
:10F9F000ADF89400BDF87201801B00B2ADF896001E
:10FA0000BDF870013044401E00B2ADF89800BDF85A
:10FA100072013044401E00B2ADF89A00002347F650
:10FA2000FF7225A93EA80FF02FF800213EA80EF086
:10FA3000ADF924904FF0FF302390608910B16089B8
:10FA4000401E01E04FF6FF7022904FF00009A6E142
:10FA50002298401C229000202190618922988142A6
:10FA600003D10020229001202190A069009060889D
:10FA7000421E00214846636915F0A2FA07463C97EA
:10FA8000219810B12089209001E0206820902098D2
:10FA90001F90219808B1E08900E0E0880FFA80F813
:10FAA000CDF87880DDF878805D983030F4F7C6FEC8
:10FAB00005465FE02879022800D055E0A868B842E2
:10FAC00051DCE868B8424EDB288A40440FFA80F8DF
:10FAD000698AA88A814202D1688A209043E0A87D81
:10FAE00000F0010050B1FF20009000233846D5E916
:10FAF000021215F065FAC0B2139009E0FF200090E1
:10FB000000233846D4E9051215F05AFAC0B2139012
:10FB1000A98A1191698A1291139800F1040C4FEA95
:10FB2000EC00BDF848C04CEA0C4CDFF8F8E10CEAF8
:10FB30000E01BDF844C04CEA0C4C0CEA0E02A2EBDC
:10FB4000010C0CFB00FC01EB5C1C0CEA0E0343EA0D
:10FB5000134C1FFA8CFCCDF840C0BDF840E0F446D1
:10FB6000CDF880C000BF00BF29465D983030F4F763
:10FB70005FFE0546002D9DD1E08B00FB09F00102E0
:10FB80006088401E91FBF0F01D901D9800121C90A3
:10FB90001C98401C1B901D9800F0FF0B228C1C9998
:10FBA000114408B21FF0E2FE1A90228C1B991144F6
:10FBB00008B21FF0DBFE1990CBF580711A9811FB8B
:10FBC00000F1199810FB0B1000121890228C1C9950
:10FBD000114408B21FF0C2FE1790228C1B991144E9
:10FBE00008B21FF0BBFE1690CBF58071179811FB81
:10FBF00000F1169810FB0B1000121590BDF8800054
:10FC0000ADF86001ADF86281BDF8702106EB080126
:10FC1000159848437F3002EBE03000B2ADF8500059
:10FC2000BDF8722106EB0801189848437F3002EBBB
:10FC3000E03000B2ADF8520014A835905CA83590C1
:10FC4000CDF8E89050A83190219800287CD02498D5
:10FC50000FF002F8B4F91000AAEB00001390BDF801
:10FC600070211399159848437F3002EBE03000B2C1
:10FC7000ADF84800BDF872211399189848437F30B9
:10FC800002EBE03000B2ADF84A00202250A90AA8E9
:10FC900015F001FB0AA831903B4623A2102106A8CB
:10FCA0001CF082FD06A837902CAA1A215E9811F04C
:10FCB0000FF9002141F6FF72BDF95201CDE9012192
:10FCC0000090BDF9543105A8509A37991FF03CFFB8
:10FCD000BDF9140000EBD071BDF84820A2EB610122
:10FCE00009B2ADF80C10BDF9160000EBD071BDF8EB
:10FCF0004A20A2EB610109B2ADF80E10BDF80C006C
:10FD0000BDF81410084400B2ADF81000BDF80E00A4
:10FD1000BDF81610084400B2ADF81200002006E04D
:10FD200004C803081FF8E007256400000CE00090F9
:10FD300003AA379B31995F980DF0FCFB00213EA888
:10FD40000EF024F8249007E00020319037902CAA80
:10FD50001A215E9811F0BCF8219909B144A900E07C
:10FD60004AA9084600210EF011F823905CAB14AAB2
:10FD700058A95F980DF0C7FF23980EF06DFF2CAACD
:10FD800016215E9811F0A4F8BDF87C00ADF8600172
:10FD90001E98ADF8620109F1010000F0FF096088CA
:10FDA00048453FF755AE4AA80EF0D2FA44A80EF0E7
:10FDB000CFFA3EA80EF0CCFA24980EF04DFF214663
:10FDC0005D982430F4F734FD0446002C7FF4B9AD7F
:10FDD00061B0BDE8F08F00002DE9F04FB1B00546ED
:10FDE0008B4690462E464146284603F02BF90446A2
:10FDF0002089C0F30E00012802DC31B0BDE8F08F8D
:10FE00002089C0F3C03020B9208810B9608800B9BB
:10FE1000F3E70021284618F090FC8246002128468E
:10FE200018F071FA504400B22E90284617F097FA55
:10FE3000B6F884104843001200B22D9025A80DF0AA
:10FE40002DFF25AA4FF4C021284619F02FFA284685
:10FE500017F0F0FB0146AA8A2E981044401A00B20F
:10FE60002490B8F1020F0ED12089C0F3C03028B120
:10FE70004FF4C021284618F083FB00E000202390B7
:10FE8000B5F91A900DE02089C0F3C03028B14FF4C5
:10FE9000C021284618F0BDFD00E000202390B5F9F0
:10FEA0001690B8F1020F16D1DBF80800B0F9060081
:10FEB000484500DAA1E7239848442599B1F908108C
:10FEC0000844B4F900100844DBF80810B1F9021036
:10FED000884200DA91E720A80DF02CFF20AA4FF409
:10FEE000C021284619F049FA0020ADF88600ADF887
:10FEF000840059460EA816F047FFA6480F9006202A
:10FF0000109002201C904FF4C0201B9025A8139045
:10FF100020A81490B8F1020F01D0012000E00020C9
:10FF20000D9096F8880000F00700022822D10021E9
:10FF3000284618F0B4FBB6F8841048434FEA202A4C
:10FF40002D985044B6F8821090FBF1F000B20B905F
:10FF50000B99A1EB0A0000EBD0714A1024991144CF
:10FF600009B224910B98A0EB0A012D98401A00B217
:10FF70002D9000BFADF8C2902089C0F30E00401E46
:10FF80006168C1F30E4148430C900027FBE000205C
:10FF90000B906068C0F30E40B7FBF0F100FB1170EE
:10FFA00008B901200B90BDF982102D98401A7843B2
:10FFB0000C99B0FBF1F12498084400B2ADF8C000F0
:10FFC000ADF8BC000D9868B1BDF9C2100B9810B126
:10FFD000B4F9000001E0B4F90200081A00B2ADF86B
:10FFE000BE000CE0BDF9C2100B9810B1B4F90000CE
:10FFF00001E0B4F90200084400B2ADF8BE0030A838
:020000040801F1
:1000000017902FA8189096F8880000F00700032892
:1000100010D106F178000D9930F91100009006F129
:10002000740030F91130002138460C9A14F0C8FFE2
:10003000824604E06068C0F30E40B7FBF0FACDF8EA
:1000400078A00B98002871D02089C0F3C030002818
:100050006CD0534650A2102107A81CF0A5FB25A880
:10006000139007A8199010201A900EAA1A2128465A
:1000700010F02EFF002141F6FF72BDF9A600CDE978
:1000800001210090BDF9A83006A8259A19991FF002
:100090005BFDBDF9180000EBD071BDF8BC20A2EBF0
:1000A000610109B2ADF81010BDF9180000EBD07174
:1000B000BDF8BC2002EB610109B2ADF814100D9837
:1000C00078B1BDF8BE102398081A00B2ADF816003A
:1000D000BDF81600BDF81A10401A00B2ADF81200B3
:1000E0000EE0BDF8BE102398084400B2ADF812002F
:1000F000BDF81200BDF81A10084400B2ADF81600A1
:10010000BDF91400B5F9141088420DDBBDF91010CB
:10011000B5F91800814207DC0020009004AA25A947
:100120005846199B0DF006FA09E0FFE700201390EE
:1001300019901A900EAA1A21284610F0C9FEBDF98E
:10014000821001EBD172BDF9C03003EB6202B5F948
:1001500014309A4211DBBDF9820000EBD072BDF978
:10016000BC30A3EB6203B5F91820934205DC2FAB3A
:1001700030AA20A958460DF0C6FD0EAA1B2128461C
:1001800010F0A6FE7F1C0C9887427FF600AF00BFE0
:1001900033E60000CCC20308256400002DE9F74FC8
:1001A000B2B00546164631953146284602F04AFF60
:1001B00004462089C0F30E00012802DC35B0BDE8FA
:1001C000F08F2089C0F3C03020B9208810B9608832
:1001D00000B9F3E70EB1012000E0002083460021C2
:1001E000284618F090F82E900021284618F011FCAF
:1001F0002D90284617F094F83199B1F886104843AD
:10020000001200B22C90284617F00EFB0146EA8A35
:100210002D9802442E981044401A00B22B904EB9EB
:100220004FF4C021284618F088FA0746B5F91400A3
:100230002A9008E04FF4C021284618F027FB074613
:10024000B5F918002A90B4F900002990B4F9020019
:100250002890012E07D12998404200B22990289871
:10026000404200B2289025A80DF064FD25AA4FF465
:10027000C021284619F081F81DA80DF00FFD1DAA18
:100280004FF4C021284619F011F80BA8339916F045
:100290007BFD89480C9006200D901996000418905B
:1002A00025A811901DA810902089C0F30E00401EB3
:1002B0006168C1F30E4100FB01F94FF00008F6E060
:1002C000BDF996102C98401A00FB08F0B0FBF9F12C
:1002D0002B98084400B2ADF8C200ADF8BE002A98D1
:1002E000ADF8C00036B9BDF8C000401E00B2ADF890
:1002F000C00005E0BDF8C000401C00B2ADF8C00071
:1003000000200A906068C0F30E40B8FBF0F100FBDB
:10031000118008B901200A900A9838B1BDF8C010C0
:100320002998081A00B2ADF8BC0006E0BDF8C0106C
:100330002898081A00B2ADF8BC0030A814902FA875
:1003400015903198703030F91B00009031996C3164
:1003500031F91B30A9EB08004A46002114F030FEA9
:100360008246CDF86CA00A98002872D02089C0F38C
:10037000C03000286DD0534650A2102106A81CF0B2
:1003800013FA1DA8109006A81690102017900BAA1B
:100390001A21284610F09CFD002141F6FF72BDF99C
:1003A0008600CDE901210090BDF9883005A81D9A8D
:1003B00016991FF0C9FBBDF9160000EBD071BDF80E
:1003C000BE20A2EB610109B2ADF80E10BDF9160016
:1003D00000EBD071BDF8BE2002EB610109B2ADF8AF
:1003E0001210BBF1000F0FD1BDF8BC00BDF8141006
:1003F000401AC01B00B2ADF80C00BDF8BC00C01B19
:1004000000B2ADF810000EE0BDF8BC00384400B2F8
:10041000ADF80C00BDF8BC00BDF814100844384419
:1004200000B2ADF81000BDF91210B5F91600814206
:100430000DDBBDF90E10B5F91A00814207DC002072
:10044000009003AA1DA9169B33980DF073F809E0DC
:10045000FFE700201090169017900BAA1A2128464B
:1004600010F036FDBDF9961001EBD172BDF9C23026
:1004700003EB6203B5F91620934211DBBDF9960038
:1004800000EBD072BDF9BE30A3EB6203B5F91A20C0
:10049000934205DC2FAB30AA25A933980DF033FC2D
:1004A0000BAA1B21284610F013FD08F10108C845CE
:1004B0007FF606AF00BF81E6CCC2030825640000CA
:1004C0002DE9FE4F06460C46174698462021304639
:1004D00018F0D9FD00287DD00C98032803D13046B0
:1004E00017F08EF902E0304617F094F9814612F0C9
:1004F0004BFE05464FF0000A002002900C9803289E
:1005000043D10021304618F0F1F8834600213046EF
:1005100018F095F90190B9F1010F23D0B9F1020F4C
:1005200028D0B9F1030F2ED106F1140009F0E3FD34
:10053000A0EB0B010198081A009000EBD0700BEBB8
:100540006000B18A08440FFA80FA05F1140009F03E
:10055000D2FD009000EBD070A98A01EB600000B2E0
:10056000029010E0B08A58440FFA80FAB5F91400EE
:10057000029008E0318B0198081A0FFA80FAB5F959
:100580001800029000BF00BF45E00021304618F07F
:1005900019FA83460021304617F0CBFF0190B9F1DC
:1005A000010F25D0B9F1020F2AD0B9F1030F30D1D4
:1005B00006F1140009F02CFDA0EB0B010198081ABC
:1005C000009000EBD0700BEB6001F08A08440FFA4A
:1005D00080FA00E054E005F1140009F019FD0090E4
:1005E00000EBD0704110E88A084400B2029010E09D
:1005F000F08A58440FFA80FAB5F91600029008E024
:10060000718B0198081A0FFA80FAB5F91A00029056
:1006100000BF00BF00BFB8F1000F17DAB9F1000F3B
:1006200005D00298504502DD2046BDE8FE8F002C23
:1006300001DAA01E04B2002C01DDA01C04B2214688
:10064000E01704EB9070801000B2EEE7002F16DA8E
:10065000B9F1000F04D00298504501DA2046E4E7D2
:10066000002C01DAA01E04B2002C01DDA01C04B293
:100670002246E01704EB9070801000B2D5E709E045
:1006800008EB0400002802DAC8F1000004B2381BAD
:1006900000D53C462046C8E710B50446207EC0F38E
:1006A000800008B1002010BD207A232802D0242821
:1006B00003D100E000BF0120F5E700BF00BF4FF409
:1006C0008041606818F0DFFC08B90020EBE7207A71
:1006D00011381C2823D2DFE800F00E0F101112137E
:1006E000141516171822221922221A1D1B1C222249
:1006F00022221E1F222000BF00BF00BF00BF00BF7C
:1007000000BF00BF00BF00BF00BF00BF00BF00BFF1
:1007100000BF00BF00BF00BF00BF0020C3E7012033
:10072000C1E72DE9F041044612F01AFD07469FB1DA
:100730003868806818B1217A386882689047207ECE
:10074000C0F3400010B10120BDE8F081207E00F030
:10075000010008B10020F7E701260EB9002003E0F0
:100760000021606816F052FE05464FF0000827E0B1
:100770002868F0B1287A00F08000802819D1287A02
:10078000802805D0287A20F08000217A884210D174
:100790006868E060204629688847207EC0F34000F2
:1007A00008B10120D0E7207E00F0010008B1002050
:1007B000CAE708F101084146606816F027FE0546C1
:1007C0000DB1012ED4D02146002016F003FD0646BF
:1007D0000EB9002003E00021606816F017FE054600
:1007E0004FF0000823E02868D0B1287A00F080009C
:1007F000B0B9287A18B1287A217A884210D168686D
:10080000E060204629688847207EC0F3400008B198
:10081000012099E7207E00F0010008B1002093E755
:1008200008F101084146606816F0F0FD05460DB17B
:10083000012ED8D0012E11D16068406870B12046D9
:10084000FFF72AFF50B16068406860602046FFF7FC
:1008500068FF0646012E01D0002075E7304673E799
:100860002DE9F0438046DDE9074521B92A70227061
:100870001A70BDE8F0834FEA282000F00209B9F1B0
:10088000000F04D000BF99462B464D4600BF00F034
:100890000409B9F1000F04D000BFA1462C464D4613
:1008A00000BF00F00609B9F1000F09D100F00109FD
:1008B000B9F1000F0ED100BF994623464C4609E01E
:1008C00000F00109B9F1000F04D000BF994623469A
:1008D0004C4600BF22706FEA010909F0FF0602FBD7
:1008E00006F74FEA272985F8009008F0FF0C00F082
:1008F0000109B9F1000F0DD1BCF1000F02D14FEA8F
:10090000012905E0CCF1000909F0FF0909FB01F913
:100910004F4601E001FB0CF73E126FEA060909F0B1
:10092000FF0602FB06F74FEA272983F8009000BF75
:100930009FE700002DE9FF4F87B005468B469146A3
:10094000DDE914A6584609F000FC0690584609F067
:100950007BFB05901798012804D0022804D00328B7
:1009600006D103E0494F08E0494F06E0494F04E053
:1009700000BF00BF0BB0BDE8F08F00BF8EBB288862
:10098000049028885246014602900A98B84703907E
:100990004FF0000821E0002418E0BDF8100035F801
:1009A000141088420CD005EB44000088049005EB3D
:1009B000440000885246014602900A98B8470390C6
:1009C00005EB4400BDF80C100180641C06988442BD
:1009D000E3DB05EB490508F1010805988045DADB02
:1009E00051E0FFE700200290288804903078FD282D
:1009F00001DB504603E0307800FB0AF0000A01906A
:100A0000019A04990A98B84703904FF0000836E01D
:100A100000242BE0305D00B927E0315D029881426F
:100A200005D1BDF8100035F81410884217D0305D9C
:100A3000FD2801DB504603E0305D00FB0AF0000AB0
:100A4000019005EB4400008800900146019A0A9845
:100A5000B8470390305D029035F81400049005EB20
:100A60004400BDF80C10018000BF641C069884424D
:100A7000D0DB05EB49051698064408F101080598F6
:100A80008045C5DB00BF00BF74E70000CD780008DB
:100A9000FF7900086F7900082DE9FF4F89B00446FF
:100AA0009246DDE91685F4F7DDF908900A9809F019
:100AB0004CFB81460A9809F0C7FA8346002D78D18D
:100AC000B8F1FD0F0CDB002707E04A4620460C99E1
:100AD0000BF0CAFA04EB4A047F1C5F45F5DB7DE1AD
:100AE00000BF0020014602464FEAD20CBDF8043098
:100AF0006CF304034FEA910C0193BDF804306CF3DE
:100B00004A134FEAD00C0193BDF804306CF3CF23A5
:100B10000193BDF804C063460293BDF8081008466F
:100B20000790424607990C980BF026FC06900C990A
:100B300004A80291BDF80810C90A01FB08F1018060
:100B4000BDF80810C1F3451101FB08F14180BDF863
:100B5000081001F01F0101FB08F1818000BFC8F1FE
:100B6000FF000390002720E0002619E0BDF81C00DC
:100B700034F8161088420DD004EB46000088079028
:100B800004EB460000880290014604A8039A0BF08B
:100B90007BFC069004EB4600BDF818100180761C23
:100BA0004E45E3DB04EB4A047F1C5F45DCDB15E1CB
:100BB000FFE7BDF8300000EB00400790B8F1FD0FF3
:100BC0006FDBA9F1040006900027B4E0002614E0D2
:100BD0002878FF2803D1BDF8300020800AE02A7869
:100BE0002088014604900C980BF0C6FB0590BDF8D8
:100BF000140020806D1CA41C761C4E4503DA05F001
:100C000003000028E4D172E0286805900598401C94
:100C1000A8B904F0030048B1BDF830102180A01C31
:100C200007990160BDF83010E18005E02046079982
:100C300001600799416000BF08342D1D56E00598FA
:100C4000002851D02878FF2803D1BDF8300020803B
:100C50000AE02A782088014603900C980BF08CFB60
:100C60000490BDF8100020806D1CA41C2878FF287B
:100C700003D1BDF8300020800AE02A7820880146A0
:100C800003900C980BF078FB0490BDF810002080C6
:100C90006D1CA41C2878FF2804D1BDF830002080EA
:100CA0000BE04CE02A782088014603900C980BF06A
:100CB00063FB0490BDF8100020806D1CA41C2878F4
:100CC000FF2803D1BDF8300020800AE02A78208870
:100CD000014603900C980BF04FFB0490BDF81000F8
:100CE00020806D1CA41C01E02D1D0834361D0698C3
:100CF000864289DD14E02878FF2803D1BDF8300052
:100D000020800AE02A782088014604900C980BF095
:100D100033FB0590BDF8140020806D1CA41C761CCC
:100D20004E45E8DBAAEB090004EB40041898A0EB61
:100D3000090005447F1C5F45FFF648AF4DE00020E9
:100D400004902088069020880590002003900027BA
:100D500040E0002635E0287888B32978049881425D
:100D600009D02878FF2801D1404603E0287800FB0D
:100D700008F0000A039029780498814205D1BDF853
:100D8000180034F81610884214D00398FF2802D1B6
:100D90000C98059009E004EB46000088029001469B
:100DA000039A0C980BF0E8FA05902878049034F830
:100DB0001600069004EB4600BDF8141001806D1C6F
:100DC000761C4E45C7DB04EB4A041898A0EB0900DB
:100DD00005447F1C5F45BCDB00BF00BF0DB0BDE814
:100DE000F08F2DE9FF4F85B081460C46DDE912A753
:100DF000F4F738F8804607BBB4F9026018E0B4F99C
:100E0000005010E0CDF808A0BDF82000ADF80400B7
:100E100030B20090D8F800002BB2D0F81CC0494680
:100E2000079AE0476D1CB4F90400A842EADA761C80
:100E3000B4F90600B042E2DA2EE0204609F085F966
:100E40008346204609F000F90490002620E00025A2
:100E500019E0785DB0B1785D00FB0AF0000A0290FD
:100E6000BDF82000ADF804006088304400B2009066
:100E7000218829440BB2D8F80000D0F81CC049469C
:100E8000079AE0476D1C5D45E3DB14980744761C28
:100E900004988642DBDB00BF09B0BDE8F08F10B5D7
:100EA00002460B4610681C68A04201D1012010BD0B
:100EB0000020FCE710B502460B46506820F0404089
:100EC0001C68A04203D2506820F040401860002007
:100ED00010BD2DE9F04F89B004460020089007901E
:100EE00012F03EF9069006980068057ED4F820803E
:100EF0000027B946B4F91400002802DDB4F9140043
:100F000002E0B4F914004042B4F91610002902DDE1
:100F1000B4F9161002E0B4F916104942884201DD16
:100F2000012701E04FF00109CAE01021404618F006
:100F3000AAF8B0B94FF48071404618F0A4F808B987
:100F400007B1C1E04FF40071404618F09CF818B9A1
:100F5000B9F1000F00D0B7E0404616F0C5FA804660
:100F6000AEE0CA46CDF814900497BB46404616F052
:100F700033FB064606F0010008B90020049006F095
:100F8000020008B94FF0000B06F0040008B94FF05A
:100F9000000A06F0080008B900200590404616F047
:100FA00043FC0390404616F0B7FA0290404616F014
:100FB00041FB0190404616F0B5FB009003980028D5
:100FC00002DC0298002811DDBAF1000F03D0B4F959
:100FD0001600A84206DA059840B1B4F91600694235
:100FE000884203DCCDF820800C200790019800286F
:100FF00002DC0098002811DD049818B1B4F914003F
:10100000A84207DABBF1000F08D0B4F91400694216
:10101000884203DCCDF82080032007900398002845
:1010200001DC4FF0000A0298002801DC0020059046
:101030000198002801DC002004900098002801DCC1
:101040004FF0000B049818B1B4F91400A84215DA57
:10105000BBF1000F04D0B4F91400694288420DDDE1
:10106000BAF1000F03D0B4F91600A84206DA0598C9
:1010700078B1B4F91600694288420ADC0FB1032046
:1010800000E00C2094F83C1060F3030184F83C105D
:101090001AE04FF48071404617F0F5FF08B907B128
:1010A00012E04FF40071404617F0EDFF18B9B9F1A6
:1010B000000F00D008E0404616F016FA804600BF48
:1010C000B8F1000F7FF431AF00BF089858B194F821
:1010D0003C10079860F3030184F83C100898A06264
:1010E0000021A182E182089809B0BDE8F08F0000DC
:1010F0002DE9FF4F83B00446204616F081FB029095
:10110000029818B9002007B0BDE8F08F41F6FF75CE
:101110000021204617F0EAFA07460021204617F082
:101120008EFB8246204616F098F883464FF0000862
:101130006AE0A068006850F828603949304617F026
:10114000ADFF00B15EE04FF48051304617F09BFFD9
:10115000002856D04FF00009002001900298012885
:1011600004D0022809D003282CD10EE0B6F914903F
:10117000A08A384400B2019025E0B6F91890208B7F
:10118000A0EB0A0000B201901DE006F1140008F087
:10119000B2FF009000EBD070B18A01EB60000FFA53
:1011A00080F904F1140008F0A6FFC01BA0EB0A00B0
:1011B000009000EBD070A18A394401EB600000B2CE
:1011C000019000E01EE000BF069848440FFA80F945
:1011D0000498814514DB0598814511DC0199A9EB40
:1011E000010108B2002801DD014600E04142002D66
:1011F00001DD2A4600E06A42914200DA054600BF5E
:1012000000BF00BF08F10108D84592D341F6FF7036
:10121000854201D1002000E0684200B273E700007F
:10122000010004002DE9FF4F83B00446204616F06C
:10123000F1FA0290029818B9002007B0BDE8F08FCB
:1012400041F6FF750021204617F0BCFB0746002140
:10125000204617F06EF98246204615F0FEFF8346C1
:101260004FF000086AE0A068006850F8286039492B
:10127000304617F013FF00B15EE04FF48051304666
:1012800017F001FF002856D04FF000090020019010
:101290000298012804D0022809D003282CD10EE09E
:1012A000B6F91690E08A384400B2019025E0B6F90C
:1012B0001A90608BA0EB0A0000B201901DE006F1CD
:1012C000140008F0A5FE009000EBD0704110F08AE9
:1012D00008440FFA80F904F1140008F099FEC01BCD
:1012E000A0EB0A00009000EBD0704110E08A384477
:1012F000084400B2019000E01EE000BF0698484498
:101300000FFA80F90498814514DB0598814511DCBA
:101310000199A9EB010108B2002801DD014600E0B6
:101320004142002D01DD2A4600E06A42914200DA86
:10133000054600BF00BF00BF08F10108D84592D3A1
:1013400041F6FF70854201D1002000E0684200B202
:1013500073E70000010004002DE9FF4F87B00E463F
:101360009046DDE914940021079817F0D4FD06900B
:101370000021079817F027F80590F078C0F3400097
:10138000A8B1F07800F0010020B142F2D1710698C6
:10139000884208D0F07800F0010040B942F2D171E3
:1013A0000598884203D1F07820F00200F070F078C0
:1013B00000F0010008B1964800E096480490F078EB
:1013C00000F0010008B9924800E0924882460020EF
:1013D0006080A08020612080A060E060CDF80C805B
:1013E0000399079815F01BFF0546E0E00398404578
:1013F00006D04FF40001284617F045FE00B1D9E0B1
:101400008549284617F04AFE00287CD1002128464D
:1014100016F0BCFF02900298002875D02069401C8D
:101420002061A088484400B2A080207D00F0010027
:1014300000286AD0216901EB8101880013F00EFEBB
:10144000074600BF1FB900BF00BF00BFFEE700BFD7
:101450001FB903980BB0BDE8F08FE06858B1206960
:10146000401E00EB800082003846E16813F013FF55
:10147000E06813F06FFE2069401E00EB800047F823
:101480002050F07800F0010058B14FF0000B41F20D
:1014900002025946284617F04BFB0190019800B212
:1014A0000BE04FF0000B41F205025946284617F0B9
:1014B0003FFB0190019800B200BF2169491E01EB7A
:1014C000810107EB81018880F07800F0010058B1BC
:1014D0004FF0000B41F203025946284617F028FB53
:1014E0000190019800B20BE04FF0000B41F20602B0
:1014F0005946284617F01CFB0190019800B200BF26
:101500002169491E02E03EE017E02CE001EB810179
:1015100007EB8101C88002982169491E01EB810116
:1015200007EB8101C86000212069401E00EB8000AC
:1015300007EB80000161E76015E0284604998847C1
:101540000746F078C0F3400030B1B4F90400C11987
:101550000A98814200DD2DE0A08807EB09010844CC
:1015600000B2A08000BF2846D047B4F900108842DE
:1015700002DD2846D04701E0B4F900002080A068D1
:10158000401CA06000BFF078C0F3800010B14FF0A5
:10159000FF3000E0012003990844039003980028DD
:1015A00000DA07E00399079815F039FE0546002D8B
:1015B0007FF41CAF00BFB4F90400002804DDA0884C
:1015C000A0EB090000B2A080206908B10A9801E0F0
:1015D000B4F904006080CDB10398404516D1079856
:1015E00080680068039950F82150F078C0F38001BA
:1015F00003AA079801F015FA45B12846D047208084
:1016000028460499884760800120A060039821E75C
:10161000CD8F020849740208010006002DE9F04F41
:1016200097B0044600BF00BF4FF0000BDE480288B1
:101630005946204617F07CFA0A900A98C6B200BFB5
:10164000F0439DF85B1060F300018DF85B10B0086B
:101650009DF85B1060F341018DF85B10F0089DF878
:101660005B1060F382018DF85B1000BFCF480288E9
:101670005946204617F05CFA0A900A98C0B28DF8D5
:10168000580000BFCA4802885946204617F050FA51
:101690000A900A98C0B28DF8590000BFC548028868
:1016A0005946204617F044FA0A900A98C0B28DF8BD
:1016B0005A000021204616F098FD012800D100E0D4
:1016C000002015909DF85B0000F0010020B900217A
:1016D000204616F0CAFF03E00021204617F04BF920
:1016E00014909DF85B0000F0010020B1002120461D
:1016F00016F0BBFF03E00021204617F03CF91390E1
:101700009DF85B0000F0010018B1204615F027FE9F
:1017100002E0204615F004FE12904FF0000B41F25B
:1017200032025946204617F003FA0A900A9800B28E
:10173000119000BF41F610025946204617F0F8F903
:101740000A900A98E18A0144119801EB000B2046A7
:1017500016F07EF8ABEB000000B210904FF0000BDB
:1017600041F612025946204617F0E2F90A900A980B
:10177000A18A0144119801EB000B204616F05EF897
:10178000ABEB000000B20F909DF85A709DF85B0023
:1017900000F0010008B110A800E00FA805460021E4
:1017A000204617F0B8FB0E900021204616F00BFEE5
:1017B0000D909DF85B0000F0010040B142F2D17144
:1017C0000D98884203D1608CC0F3402068B19DF829
:1017D0005B0000F0010048B942F2D1710E988842D6
:1017E00004D1608CC0F3802000B90027159850B157
:1017F0009DF85B0000F0010028B90FB9012702E055
:10180000012F00D100274FF0000800200C900B9012
:10181000002F49D09DF85B00C0F3800018B1A0688C
:101820004068401E00E00020814617E000200A903A
:1018300005A91398CDE900014A4616A92046129B36
:10184000FFF78AFD8246BDF81410149808444044FE
:101850000FFA80F80B98401C0B90D146A0684068A6
:10186000484502DDB9F1000FE0DA0B9820B1149879
:10187000A8EB00000FFA80F89DF85B0000F0010073
:1018800018B1204615F04CFD02E0204615F067FD2A
:1018900083460CA8CDE900500B9803B24246594646
:1018A00038461FF004FA00BF9DF85B00C0F38000CB
:1018B00018B1A0684068401E00E0002081461598DD
:1018C00040B19DF85B0000F0010018B92888404441
:1018D00000B228804DE001200A9005A91398CDE9B7
:1018E00000014A4616A92046129BFFF735FD8246A5
:1018F000159850B19DF85B0000F0010028B92888C8
:10190000BDF81410401A00B2288005AABDF9403075
:10191000DDE91210CDE90131CDE90302BDF93C004A
:1019200053464A4616A900902046F5F755FBD14686
:10193000089813F00FFC00200890159868B19DF8E6
:101940005B0000F0010040B92988BDF830201498F0
:101950001044081A00B228800AE02988BDF8140053
:10196000BDF83020024414981044084400B2288086
:1019700000BFA0684068484502DDB9F1000FAADA4F
:1019800042F2D1710E98884202D00D98884202D15D
:10199000204618F0F0FA00222B2120460FF098FA8A
:1019A00017B0BDE8F08F0000680100206A01002038
:1019B0006C0100206E0100202DE9FC5F0446894681
:1019C0009246207E00F0010008B1BDE8FC9FE5686A
:1019D00000264FF0010B0120019000BF85B9207E49
:1019E000C0F3C00000B956B9019800B9EDE7204630
:1019F000C84705464FF0000B0020019000E0E4E7E7
:101A000016B92E4606B9E0E7BBF1000F06D029460D
:101A10002046D0470546B54200D1D6E74FF0010B2E
:101A200005B9DBE7286816F073FB00F0800000B111
:101A3000D4E72F6809E00121384617F024FB00B1F4
:101A400005E0384615F050FD0746002FF3D100BFE2
:101A50002FB10121384617F016FB00B1BEE700BFD9
:101A600000BFE068A84200D1AFE7E06890B120462F
:101A700000F00DFD0090E16808680F21009A0FF05A
:101A800027FA0746012F00D09FE7E168086817F0A2
:101A900097FE00BFE560204600F0F9FC0746E168CC
:101AA0003A4608680E210FF013FA8046B8F1010F8C
:101AB00000D08AE7E168086817F082FE206910B15B
:101AC00020462169884700BF7FE7000000BF054A24
:101AD000126802F04002002AF9D0C2B2014B5A60EB
:101AE00070470000001001402DE9F04104462046F7
:101AF00000F016FB054611480068001B461B0F4806
:101B00000068401B0D490860B6B12746611932468E
:101B1000204613F0C0FB06E0A068401BA0602046F2
:101B200000F0FEFA0444054800688442F4D1B81974
:101B3000294613F03EFD00BFBDE8F08154010020AE
:101B400000B587B000BF00BF002000904548006886
:101B500040F04000434908600846006800F040003B
:101B6000009000BF00BF00BF00BF00BF002000907A
:101B70000846006840F0800008600846006800F0F1
:101B80008000009000BF00BF00BF02200290012033
:101B9000039004900320059002A93348EFF7A0FFBB
:101BA00080200290002003900120049003200590E3
:101BB00002A92E48EFF794FFF6F764F800BF002261
:101BC00002212948F0F7A0F800BF1420F6F724FB03
:101BD00000BF012202212448F0F796F800BF32200E
:101BE000F6F71AFB00208DF80400012201A900F08D
:101BF00041F9012201A9A42000F03CF916208DF83A
