:020000040800F2
:10000000C0CB0020D1020008E72F0008DF2F000836
:10001000E32F0008031B0008AD32000800000000B9
:10002000000000000000000000000000390200088D
:10003000071B0008000000007D02000811300008C6
:10004000EB020008EB020008EB020008EB020008DC
:10005000EB020008EB020008EB020008EB020008CC
:10006000EB020008EB020008EB020008EB020008BC
:10007000EB020008EB020008EB020008EB020008AC
:10008000EB020008EB020008EB020008EB0200089C
:10009000EB020008EB020008EB020008EB0200088C
:1000A000EB020008EB020008EB020008EB0200087C
:1000B000EB020008EB020008EB020008EB0200086C
:1000C000EB020008EB020008EB020008EB0200085C
:1000D000EB02000889320008EB020008EB0200087E
:1000E000EB020008EB020008EB020008EB0200083C
:1000F000EB020008EB020008EB020008EB0200082C
:10010000EB020008EB020008EB020008EB0200081B
:10011000EB020008EB02000829300008EB0200089F
:10012000EB020008EB020008EB020008EB020008FB
:1001300000F002F800F070F80AA090E8000C824489
:100140008344AAF10107DA4501D100F065F8AFF266
:10015000090EBAE80F0013F0010F18BFFB1A43F0A5
:100160000103184738BE040058BE04000A444FF08B
:10017000000C10F8013B13F0070408BF10F8014B06
:100180001D1108BF10F8015B641E05D010F8016B4B
:10019000641E01F8016BF9D113F0080F1EBF10F8AF
:1001A000014BAD1C0C1B09D16D1E58BF01F801CBD2
:1001B000FAD505E014F8016B01F8016B6D1EF9D555
:1001C0009142D6D37047000000230024002500266A
:1001D000103A28BF78C1FBD8520728BF30C148BFAA
:1001E0000B60704766293AF08883642900F05281D9
:1001F000782900F08B81732900F027870020704751
:100200001FB500F08BFF04000020002139F016FE1E
:10021000E0601FBD10B510BD01F046F81146FFF7B4
:10022000EFFF30F029FE01F064F803B4FFF7F2FFAE
:1002300003BC05F0DBF90000224B19680868B0E840
:10024000F00F80F30988BFF36F8F4FF0000080F349
:1002500011884EF00D0E704700000000064800683F
:10026000006880F3088862B661B6BFF34F8FBFF3B2
:100270006F8F00DF00BF00BF08ED00E0EFF30980E3
:10028000BFF36F8F0F4B1A6820E9F00F106008B5AD
:100290004FF0500080F31188BFF34F8FBFF36F8F83
:1002A00038F050FE4FF0000080F31188BDE80840A0
:1002B00019680868B0E8F00F80F30988BFF36F8F02
:1002C000704700BF98000020EFF3058070470000E2
:1002D0000948804709480047FEE7FEE7FEE7FEE7DA
:1002E000FEE7FEE7FEE7FEE7FEE7FEE70448054916
:1002F000054A064B70470000253000083101000810
:10030000C0C50020C0CB0020C0C70020C0C700204F
:10031000704753EA020C00F069802DE9F04B4FF072
:100320000006002B1FBFB3FA83F503FA05F424FA85
:1003300005F65E4012BF1643B2FA82F502FA05F4E2
:10034000C5F120051EBF22FA05FC44EA0C04203545
:1003500056EA044C4FEA144418BF641C4FF00008DE
:100360004FF00009904271EB030C39D3002919BFFB
:10037000B1FA81F701FA07F6B0FA80F700FA07F64A
:10038000C7F120071EBF20FA07FC46EA0C062037FB
:10039000B6FBF4FCA7EB0507103F07F01F0BCBF1F2
:1003A00020060CFA0BFB2CFA06F644BFB3460026D7
:1003B000202FA4BF5E464FF0000B5BEA060C08BF7F
:1003C0004FF0010B19EB0B09ABFB027C48EB060865
:1003D000C01B06FB02CC0BFB03CC71EB0C01C1E78D
:1003E0000B46024641464846BDE8F08B13B54FF038
:1003F00000004FF00001AFF30080BDE81C407047E3
:100400000FB4044910B503AA029800F023FE10BCF3
:100410005DF814FB140000200FB41CB5074B06AAAE
:100420007B4469460090059800F0E5FD0020694690
:1004300000F0F4FD1CBC5DF814FB0000F90B00009B
:1004400070B50C460546012A05D02878800600D5EF
:10045000EA69002302E0012305E05B1C934202D21B
:10046000E05C0028F9D1A869E618C01AA861286ADA
:10047000184428622846AFF3008004E0D5E9012142
:1004800014F8010B9047B442F8D32846AFF300802C
:1004900070BD00002DE9F041064600241068752962
:1004A000314616A510D0AFF30080002802DA404292
:1004B00013A507E031688A0701D512A502E04907B4
:1004C00004D511A5012401E0AFF3008000210A2228
:1004D00006F1240709E0B0FBF2FCB0FBF2F302FBEB
:1004E0001C00303078541846491C0028F3D12346AC
:1004F0002A463046BDE8F04100F00FBB0000000086
:100500002D0000002B0000002000000070B5044604
:100510000D4621461068AFF300802188090502D5F9
:100520000F4A7A4402E00E4A7A440E32002104F166
:10053000240305E000F00F060009965D5E54491C97
:100540000028F7D120780023000704D5702D02D0B1
:1005500009B1022311322046BDE8704000F0DDBA37
:10056000D2B104002DE9F05F894604464FF0000A3D
:10057000DFF874B1FB44C0F820A02046E16888474A
:10058000002874D0252806D0D4E901219047206A9C
:10059000401C2062F1E700265F462046E16888475C
:1005A0002028054607DB312D05D2781910F8200CDC
:1005B00008B10643F1E7B00701D526F00406C4F8F8
:1005C0001CA00027C4F818A02A2D09D0284602F044
:1005D0000FFF38B304EB8708303DC8F8185019E016
:1005E00059F8041B204604EB87029161E1688847B3
:1005F000012F054618D1E069002820DA26F02006F0
:100600001DE0D8F8180000EB800005EB4000303802
:10061000C8F818002046E1688847054602F0E8FE61
:100620000028EED1012F0AD02E2D08D12046E168F6
:1006300088477F1C0546022F46F02006C4DBA069D0
:10064000002803DA404246F00106A061F00701D01D
:1006500026F010066C2D0BD0682D09D04C2D39D00A
:100660006A2D35D0742D35D07A2D33D016E038E090
:10067000E1682F4620468847B842054609D16C2FCD
:1006800026D04FF48060E16806432046884705463F
:1006900004E06C2F1AD04FF4807006430DB3A5F11F
:1006A0004100192802D8203546F400664A462946FA
:1006B000204626604E46FFF795FD80B101280BD0FD
:1006C000F61D26F0070000F1080956E74020E4E790
:1006D0008020D8E70020D6E706F104094DE7284638
:1006E00052E7206ABDE8F09FA8B104000EB50546A8
:1006F00014460E4613A000F0CAFC284600F0C7FCC2
:1007000016A000F0C4FC304600F0C1FC15A000F0BB
:10071000BEFC00218DF80B100A210DF10A008DF8A6
:100720000A1008E094FBF1F201FB124294FBF1F491
:10073000303200F8012D002CF4DC00F0A8FC00F0B1
:100740009BFC00002A2A2A20617373657274696F0A
:100750006E206661696C65643A2000002C20666931
:100760006C6520002C206C696E65200040EA010356
:10077000024630B59B0710D14FF0013400E008C2AB
:1007800008C91D1B9D4315EAC41FF8D013F0FF01D3
:1007900002F8011B0DD01B0AF8E711F8013B002BF2
:1007A00002F8013B05D011F8013B002B02F8013B98
:1007B000F3D130BD10B5431C02E010F8011B71B13C
:1007C0008107FAD14FF0013202C88C1A8C4314EA27
:1007D000C211F9D0C01A0A0603D0C01E10BDC01A3B
:1007E00010BD0A0401D0801E10BD0902FCD0401EBD
:1007F00010BD032A40F2308010F0030C00F0158089
:1008000011F8013BBCF1020F624498BF11F801CB13
:1008100000F8013B38BF11F8013BA2F1040298BF78
:1008200000F801CB38BF00F8013B11F0030300F0E2
:100830006780083AC0F0088051F8043B083A51F844
:1008400004CBA0E80810F5E7121D5CBF51F8043B8B
:1008500040F8043BAFF30080D20724BF11F8013BFE
:1008600011F801CB48BF11F8012B24BF00F8013B60
:1008700000F801CB48BF00F8012B7047431A28BF8E
:100880009A427FF6B6AF032A1044114440F2268004
:1008900010F0030F1EBF11F8013D521E00F8013D7C
:1008A00010F0030F7FF4F6AF11F0030300F00C8497
:1008B000083AC0F00B8051F8043D083A51F804CDD5
:1008C00040F8043D40F804CDFFF7F3BF121D5CBFB4
:1008D00051F8043D40F8043DAFF30080D20724BF37
:1008E00011F8013D11F801CD48BF11F8012C24BFCA
:1008F00000F8013D00F801CD48BF00F8012C704719
:1009000010B5203AC0F00B80B1E81850203AA0E8AA
:100910001850B1E81850A0E81850BFF4F5AF5FEADE
:10092000027C24BFB1E81850A0E8185044BF18C991
:1009300018C0BDE810405FEA827C24BF51F8043B38
:1009400040F8043B08BF7047D20728BF31F8023B8C
:1009500048BF11F8012B28BF20F8023B48BF00F820
:10096000012B704702F0FF0343EA032242EA0242EE
:1009700000F002B84FF000020429C0F0128010F01D
:10098000030C00F01B80CCF1040CBCF1020F18BF6B
:1009900000F8012BA8BF20F8022BA1EB0C0100F0FE
:1009A0000DB85FEAC17C24BF00F8012B00F8012BD1
:1009B00048BF00F8012B70474FF0000200B5134606
:1009C00094469646203922BFA0E80C50A0E80C506F
:1009D000B1F12001BFF4F7AF090728BFA0E80C5020
:1009E00048BF0CC05DF804EB890028BF40F8042B19
:1009F00008BF704748BF20F8022B11F0804F18BF86
:100A000000F8012B704700004FF0013C50F8042B18
:100A100051F8043B9A4221D1A2EB0C03934313EA11
:100A2000CC1317D150F8042B51F8043B9A4215D13E
:100A3000A2EB0C03934313EACC130BD150F8042B15
:100A400051F8043B9A4209D1A2EB0C03934313EAF9
:100A5000CC13DBD04FF00000704700BFD01A01BAB2
:100A6000B1FA81F101F0180122FA01F0CB40C1F195
:100A70002001DBB2C0B2C01A2CFA01F3D11A9143A3
:100A800011EAC311E6D1704770477047704770474D
:100A900030B5B0F10A024FEA900E71F100034EEA50
:100AA000817EB0EB0E0061EB91014FEA101E4EEA21
:100AB000017E10EB0E0041EB11114FEA102E4EEAB1
:100AC000016E10EB0E0041EB11214FEA104E4EEA81
:100AD000014E10EB0E0041EB1141401841F10001B5
:100AE0004FEAD00040EA41704FEAD10110EB800597
:100AF0004FEA810444EA907444EB01046D1944EB1D
:100B00000404521BA3414FF0000348BF0A3200D532
:100B100030BD401C41F1000130BD2DE9F0470D46CC
:100B200099469246044600F124080168880604D5D7
:100B3000E06921F01001216000E00120A84201DD00
:100B4000471B00E00027A1697A1902EB0900081A87
:100B5000A0612078C00602D42046AFF300800026B2
:100B600008E0D4E901211AF806009047206A401CE9
:100B7000761C20624E45F4DB2078C0060AD520465C
:100B8000AFF3008006E0D4E9012130209047206ACD
:100B9000401C2062381EA7F10107F4DC07E0D4E90D
:100BA000012118F805009047206A401C2062281E89
:100BB000A5F10105F3DC2046AFF3008020780006A4
:100BC00002D50220BDE8F0870120FBE770472DE940
:100BD000FF4F0C461E464FF0FF378BB0D2E90001A5
:100BE000DDF860800A908A46C1F30A5505B93D4692
:100BF000002108464FF00000BAF1000F00F4400059
:100C000005DA00EB80004FF4400101EA50004FEAA2
:100C10009059B9F1010F00DDB9460A9850EA4A002F
:100C20000ED044F61050A5F2FF3545432F14B8F10D
:100C3000000F1ED07542291E1EDDC9F100021CE006
:100C4000B8F1010F4FF0000001D0302103E0F24372
:100C500005E02154401CB042FBDB3046002200215D
:100C600021540B99C1F80880C1E900200FB0BDE8FC
:100C7000F08FBD1B6D1CDEE74A4600DA694206A80C
:100C800000F090FA06AB93E8070003AB83E8070097
:100C900050460A9900F06DFB8DE80700A0F5005062
:100CA0001F3800900398002D0ADD42F21F014A46CA
:100CB0000844002303A90390684600F0D6FD09E02C
:100CC000A0F500504A461F38002303A90390684648
:100CD00000F0E0FD8DE807000004000C03D04FF0A9
:100CE000FF30410800E01046B8F1000F03D00022A9
:100CF000009215461EE0751E05D4FFF7C9FE30327E
:100D000062556D1EF9D5B3460122084302D0002278
:100D10007F1C04E02078302801D100227F1E002AA9
:100D2000099784D01DE0112D07DAFFF7B1FE3032AC
:100D300062556D1C50EA0102F5D1084302D00098BB
:100D4000C8B10EE00021681E05E0235C625C6354BC
:100D50002254401E491C8142F7DBAB46A81B401EB3
:100D60000990002004F80B000B98099AC0F808803D
:100D7000C0E9002B7AE711264FF0000857E72DE96C
:100D8000F04F88460446D21D22F0070191B0D1E908
:100D90000001CDE90A0102F08BFA02460B98C00F60
:100DA00001D02D2007E02068810701D52B2002E02B
:100DB000202101EAC000032A099001D0072A05DB9F
:100DC00003464146204600F0ADF90BE1207880064D
:100DD00001D5E06900E00620B8F1650F814606D034
:100DE000B8F1660F18D0B8F1670F70D131E000206C
:100DF000B9F1110F009001DB112301E009F10103AA
:100E00000AAA01A90CA8FFF7E2FEDDE90C70002692
:100E100009F10105834647E001204B4600904FF061
:100E200000470AAA01A90CA8FFF7D1FEDDE90DB021
:100E30000C995D46002610B909F101000D18B9EBB7
:100E4000050003D4C0F1FF3609F10105A5EB090047
:100E50002BE0B9F1010F01DA4FF001090020B9F1DF
:100E6000110F0090484601DD112300E003460AAA55
:100E700001A90CA8FFF7ABFEDDE90C704D4600267A
:100E80008346207800070AD4AB4500DA5D4601A806
:100E9000012D04DD411911F8011C302907D04F45FF
:100EA00002DA17F1040F04DA012082460FE06D1E0A
:100EB000EEE7002F02DCED1B3E4403E0781CA84265
:100EC00000DD7D1CB81B00F1010A4FF000472078BF
:100ED000000703D4AA4501DB4FF0FF3A0021B7F128
:100EE000004F0DF143088DF8431024D002202B232E
:100EF000002F01DA7F422D230A21021EA0F10100FA
:100F000000DC5FB197FBF1FC97FBF1F201FB1C7C6D
:100F100017460CF1300C08F801CDEEE7A8F10100FE
:100F200003702188090501D5452100E06521A0F164
:100F3000010800F8011C09980FA9A1EB0807FF1D83
:100F400000B10120411901EBEA70A1693844081A87
:100F5000401EA0612078C00602D42046AFF3008076
:100F6000099828B1D4E901219047206A401C2062E9
:100F70002078C00622D52046AFF300801EE0002E68
:100F800004DBB34502DD01A8805D00E03020D4E938
:100F900001219047206A401C2062761CAAF10100C2
:100FA0005FEA000A0AD100F0B9F8C0680168405C45
:100FB000D4E901219047206A401C2062281EA5F137
:100FC0000105DCDC07E0D4E9012118F8010B9047AA
:100FD000206A401C2062381EA7F10107F3DC20467E
:100FE000AFF30080032011B041E6000001694A1C04
:100FF00002610878704700B58FB0CDE9013100215A
:10100000059105497944CDE9031011466846FFF77B
:10101000A9FA0FB000BD0000E5FFFFFF0A6802F863
:10102000010B0A60704710B5436913B1AFF300803C
:1010300001E0FFF705FA012010BD127800F124014C
:101040000A7000224A700122EDE711684FF0FF326A
:10105000E9E70000074B70B50D467B44FFF7CBFF77
:101060000446284600F010F910B14FF0FF3070BD73
:10107000204670BD4F15010010B5002000F008F9A2
:10108000FFF7C8F8BDE81040012004F0AFBA10B572
:10109000044602E0641C04F0ABFA20780028F9D181
:1010A00010BD431A28BF9A427FF62AAC104410F0B4
:1010B000030F11441EBF11F8013D521E00F8013DFF
:1010C00010F0030F7FF4F6AF103AC0F00A8010B5AD
:1010D00031E91850103A20E91850BFF4F9AFBDE8D3
:1010E0001040530724BF31E9081020E9081044BF1D
:1010F00051F8043D40F8043D12F0030F08BF70475B
:10110000D20728BF31F8023D48BF11F8012C28BF93
:1011100020F8023D48BF00F8012C70470048704796
:101120007CC500202DE9F0411F46044603260168D6
:10113000072A01F4006004DB08B116A505E016A536
:1011400003E008B115A500E015A521F0100020600E
:10115000A069C01EA0610FB1401EA0612046AFF380
:1011600000804FB1D4E9012138469047206A401CE5
:101170002062C01C206206E0206AFAE7D4E901215F
:1011800015F8010B9047761EF8D22046AFF3008089
:10119000BDE8F0814E414E006E616E00494E460042
:1011A000696E66002DE9F047814616468AB03548DB
:1011B00078440DC88DE80D0032487844801C03AC9B
:1011C0000DC884E80D0041F69B300844372190FBA0
:1011D000F1F290FBF1F5A5F1800501FB12041B3C37
:1011E00002D56442012000E00020DFF898A080468C
:1011F0000027FA44AAF1BE0A0EE0E0070AD0324600
:10120000684607EB470101230AEB810100F042FB2E
:101210008DE8070064107F1C002CEED1194F7F442D
:10122000AE3F19E0E80715D007EB04100DF1180ADE
:1012300090E80E008AE80E00C068F04201D19819CB
:1012400008903246012306A903A800F023FB03AB54
:1012500083E807006D10641C002DE3D14FF00103FB
:1012600032466946B8F1000F03A802D000F0FDFA3B
:1012700001E000F00FFBC9E90001C9F808200AB03D
:10128000BDE8F087FCA50400007B00F080007047FB
:1012900010B500F03DF8BDE8104000F033B8000094
:1012A000004870475CC500207546FFF7F9FFAE4661
:1012B00005006946534620F00700854618B020B562
:1012C000FFF714F8BDE820404FF000064FF000078C
:1012D0004FF000084FF0000B21F00701AC46ACE8DE
:1012E000C009ACE8C009ACE8C009ACE8C0098D464B
:1012F000704710B50446AFF300802046BDE81040AB
:10130000FEF793BF002801D004F070B970470000C9
:1013100010B5002102A000F013F8012010BD00005C
:10132000534947414252543A2041626E6F726D6197
:101330006C207465726D696E6174696F6E00000077
:1013400070B505460C460A2000E06D1C04F050F90B
:1013500035B128780028F8D102E0641C04F048F97F
:1013600014B120780028F8D1BDE870400A2004F0BC
:101370003FB95FEA400C08BF91F0000F4FEA8C23A1
:101380004FEAC12243EA51514FEA1C5018BF00F501
:10139000F0404FEA300018BF41F000415FEA6C5C5A
:1013A00000F02980BCF1FF3F08BF40F0804070474B
:1013B000130C06BF12044FF0100C4FF0000C130E6C
:1013C00004BF12020CF1080C130F04BF12010CF140
:1013D000040C930F04BF92000CF1020CD30F04BF56
:1013E00052000CF1010C11464FF00002A0F11F0059
:1013F000A0EB0C00704711F0004F08BF704731F0B0
:1014000000413FF4D5AF0B0C06BF09044FF0100CA0
:101410004FF0000C0B0E04BF09020CF1080C0B0F6F
:1014200004BF09010CF1040C8B0F04BF89000CF1FF
:10143000020CCB0F04BF49000CF1010CCCF12003CE
:10144000A0EB0C0022FA03F302FA0CF241EA0301CA
:1014500000F10100704720F07F4C80EA030023F088
:101460007F47ACEB070303F57C5300F0004003F12A
:10147000FF032DE980494FEA154B09B44FEA1443A5
:1014800025EA0B4E24EA03480FF2042606EB132745
:1014900049083E785FEA320203FB0667C7F500079A
:1014A00007FB06F64FEA54374FEAD64606F1020626
:1014B00007FB066CCCF1005C4FEA1C472CEA074C9A
:1014C00007FB06F40CFB06F504EB15464FEA9616EF
:1014D00034BF00204FF000404FEAD13706FB07FC35
:1014E0004FEA1C4C0CFB0BF7D21B03FB0CF761EB18
:1014F00007010CFB0EF7B0EB074072EB17420CFB39
:1015000008F734BFA2EB0742B2EB074261EB174189
:101510004FEA0C444FEA910706FB07FC4FEA1C4CCC
:101520000CFB0BF7B0EBC74072EB573203FB0CF729
:1015300034BFA2EBC742B2EBC74261EB57310CFBA1
:101540000EF7B0EBC70072EB57720CFB08F734BF15
:10155000A2EBC702B2EBC70261EB5771039F4FEAE0
:10156000816141EA921104EBCC044FEAD1374FEA92
:10157000826206FB07FC42EA90124FEA80604FEA63
:101580001C4C0CFB0BF7D21B03FB0CF761EB0701A8
:101590000CFB0EF7B0EB074072EB17420CFB08F7A1
:1015A00034BFA2EB0742B2EB074261EB17414FEAAF
:1015B0008C554FEA910704EB9C2406FB07FC4FEA8D
:1015C0001C4C0CFB0BF7B0EBC74072EB573203FB24
:1015D0000CF734BFA2EBC742B2EBC74261EB573105
:1015E0000CFB0EF7B0EBC70072EB57720CFB08F761
:1015F00034BFA2EBC702B2EBC70261EB577115EB28
:101600004C254FEA816141EA92114FEA82624FEA2A
:10161000D13742EA901206FB07FC44F100044FEA7E
:1016200080604FEA1C4C0CFB0BF7D21B03FB0CF742
:1016300061EB07010CFB0EF7B0EB074072EB1742B2
:101640000CFB08F734BFA2EB0742B2EB074261EB99
:10165000174115EB1C154FEA813141EA92414FEADF
:10166000823242EA90424FEA80304FEA0C7644F1EF
:10167000000448EA03434EEA0B484FF0000EB2EB79
:10168000080C71EB030724BF624639464EEB0E0E81
:101690004FF0000B0018524149414BEB0B0BB2EBE2
:1016A000080C71EB03077BF1000B24BF624639463F
:1016B0004EEB0E0E4FF0000B0018524149414BEB20
:1016C0000B0BB2EB080C71EB03077BF1000B24BF93
:1016D000624639464EEB0E0E51EA020718BF46F03D
:1016E000010616EB0E7655F1000254F1000103D508
:1016F000BDE88901BDE80088BDE88901BDE8004872
:10170000B619524141EB0101A3F1010370478080FA
:101710007F7E7D7C7B7A797877767675747372714B
:1017200071706F6E6E6D6C6C6B6A6A696868676603
:1017300066656464636362616160605F5F5E5E5D95
:101740005D5C5C5B5B5A5A59595858575756565509
:1017500055555454535352525251515050504F4F6B
:101760004F4E4E4D4D4D4C4C4C4B4B4B4A4A4A49BB
:1017700049494848484747474746464645454544FE
:101780004444444343434342424242414141002B8B
:101790009C4630D477002BD01CB54FEA370703B4F2
:1017A0004FF010004FF01001BAF1000F06D0BCF15D
:1017B000000FDCBF40F0080040F008014FF00000CF
:1017C0000FBCBDE810400BF1010BBBF1010F08BFCE
:1017D0005FEA170722BF12F1010211F101014FF078
:1017E000004143F1000300F0004043EA000070476D
:1017F000F9D35708D0E746EA064613F1400F4FEAFF
:1018000016461FDD13F1200FDFBF16430A460021E5
:1018100020335B42BED0C3F1200746EA064602FAF7
:1018200007F74FEA164646EA0706C3F1200722FAF1
:1018300003F201FA07F721FA03F14FF0000342EA3D
:101840000702A7E746EA020646EA06464FEA1646B8
:1018500046EA0106BCBF46EA0646360C4FF00003D6
:101860004FF000024FF0000194E72DE9804C9A46BA
:10187000934670B491E8380007C831EA400C48BF7D
:1018800034EA430C03D5FFF7E6FDFFF780FFF0BC19
:10189000BDE8008C2DE9804C9A46934670B491E8DF
:1018A000380007C810F0804F08BF13F0804F03D1F5
:1018B00000F005F8FFF76BFFF0BCBDE8008C20F0EE
:1018C0007F4780EA030023F07F4C07EB0C03A3F56E
:1018D0007C5300F00040A3F1FE0392F0000F00F0F3
:1018E000B38095F0000F00F077802DE901494FEAB1
:1018F00011404FEA144621EA004800FB06FC24EAA6
:10190000064708FB06F607FB08F800FB07F718EB8D
:1019100006484CEB164C4FEA124B18EB07484FEABF
:1019200015464CEB174022EA0B4E0BFB06FC25EA52
:1019300006470EFB06F607FB0EFE0BFB07F71EEB3A
:10194000064E4CEB164C4FF000061EEB074E4CEBD0
:10195000174B18EB0B0840F1000018EB0E0B58EB7F
:10196000000840F100008F1A4FF000013CBFC9434E
:10197000661B14BFB5EB040C00213CBFC943F61B2A
:101980004FEA17444EEA8E0E27EA04454FEA1C47F9
:1019900004FB07622CEA074C05FB07F70CFB05F676
:1019A00004FB0CFC16EB074642EB174216EB0C4609
:1019B00042EB1C421BEB060658EB0202414146EA91
:1019C0009E0601D5BDE80189B619524141EB0101DE
:1019D000A3F10103BDE801894FEA14454FEA11471D
:1019E00024EA054621EA074C05FB07F406FB07F746
:1019F0000CFB06F105FB0CFC11EB074144EB174413
:101A00004FEA124711EB0C4144EB1C4422EA074C0D
:101A100005FB07F206FB07F70CFB06F605FB0CFCC3
:101A200016EB074642EB174216EB0C4642EB1C4501
:101A30006A1854F1000148BF7047B619524141EB92
:101A40000101A3F10103704795F0000F37D04FEA71
:101A500011424FEA144721EA024624EA074C02FBEE
:101A600007F106FB07F70CFB06F402FB0CFC14EB7A
:101A7000074441EB17414FEA154714EB0C4441EB87
:101A80001C4125EA074C02FB07F506FB07F70CFB98
:101A900006F602FB0CFC16EB074645EB174516EB6A
:101AA0000C4645EB1C42121951F1000148BF70472A
:101AB000B619524141EB0101A3F1010370474FEA0E
:101AC00014454FEA114724EA054621EA074C05FB75
:101AD00007F106FB07F70CFB06F24FF0000605FBCB
:101AE0000CFC12EB074241EB174112EB0C4251EB9D
:101AF0001C4148BF7047921841EB0101A3F101035B
:101B0000704700BFFEE7704770B50446B3F5804FDD
:101B100013D1D1E9000540EA05108D6840EA05209F
:101B20008D6928438D8940EA054054F82250064EBD
:101B30003540284344F8220003E06FF0704044F839
:101B40002200002070BD00000000F0CF70B50246FA
:101B5000086852F8200020F001000E6842F82600C4
:101B60008868082801D1402300E000234868184312
:101B70008E683043CE6830430E6930434E6930433F
:101B8000CE6930430E6A30434E6A30438E6A30432A
:101B9000CE6A30430E6B40EA060488690443486B02
:101BA0000443074D45F4806545F4E025086852F884
:101BB0002000A84320430E6842F82600002070BD94
:101BC0007FFB080010B50346D1E9000440EA041089
:101BD0008C6840EA04208C8940EA0444088A401E4C
:101BE00044EA0054087D801E44EA00608C6920436A
:101BF000541C53F8244004F040442043541C43F840
:101C00002400002010BD000070B50446002594F8A3
:101C10002100022803D00420A0630125C1E0206830
:101C2000006820F00E00216808602068006820F03D
:101C30000100216808605C492068884252D95A49ED
:101C400078392068884201D1012047E0564964393B
:101C50002068884201D1102040E053495039206863
:101C6000884201D1801539E04F493C3920688842CB
:101C700001D1801432E04C4928392068884202D1D1
:101C80004FF480302AE0484914392068884202D154
:101C90004FF4801022E044492068884201D140047A
:101CA0001CE042492068884201D1012016E03F49EA
:101CB00014312068884201D110200FE03B492831BF
:101CC0002068884201D1801508E038493C312068FD
:101CD000884201D1801401E04FF480303349091F5C
:101CE000086051E0304978392068884201D10120EC
:101CF00047E02D4964392068884201D1102040E036
:101D0000294950392068884201D1801539E0264997
:101D10003C392068884201D1801432E022492839B8
:101D20002068884202D14FF480302AE01E491439DD
:101D30002068884202D14FF4801022E01A492068BE
:101D4000884201D140041CE018492068884201D132
:101D5000012016E0154914312068884201D1102075
:101D60000FE0124928312068884201D1801508E02F
:101D70000E493C312068884201D1801401E04FF4C3
:101D80008030094980394860012084F8210000BF73
:101D9000002084F8200000BF606B10B12046616B0A
:101DA0008847284670BD00008000024008040240B9
:101DB0002DE9F847024600239C467BE14FF00108DD
:101DC00008FA03F4D1F8008008EA0400A0427DD1AB
:101DD000DFF8F4A2D1F80480A8EB0A09D0453AD084
:101DE00014DCB8F1030F50D009DCB8F1000F31D08A
:101DF000B8F1010F1CD0B8F1020F49D120E0B8F1C1
:101E0000110F18D0B8F1120F42D11EE0B9F5881F9A
:101E100025D006DCB9F5803F20D0B9F5801F37D139
:101E20001AE0B9F5001F18D0B9F5041F30D117E03A
:101E3000D1F80CC02DE0D1F80C8008F1040C28E09A
:101E4000D1F80C8008F1080C23E0D1F80C8008F1DF
:101E50000C0C1EE000BF00BF00BF00BF00BF00BFF2
:101E6000D1F80880B8F1000F02D14FF0040C0BE05C
:101E7000D1F80880B8F1010F03D14FF0080C1461BC
:101E800002E04FF0080C546103E04FF0000C00E05A
:101E900000BF00BFFF2801D8904601E002F104080E
:101EA0004646FF2802D84FEA830803E0A3F108085A
:101EB0004FEA88084746D6F800804FF00F0909FA24
:101EC00007F928EA09080CFA07F900E07AE048EA7D
:101ED0000908C6F80080D1F8048008F08058B8F1ED
:101EE000805F6FD100BFDFF8E481D8F8188048F038
:101EF0000108DFF8D891C9F81880C846D8F81880CA
:101F000008F00108CDF8008000BF00BF4FEAB938E3
:101F10004FEA930958F829504FEA83784FEA187925
:101F20004FF00F0808FA09F825EA0805DFF8A08144
:101F3000424502D14FF0000824E0DFF89881424585
:101F400002D14FF001081DE0DFF88C81424502D13B
:101F50004FF0020816E0DFF88481424502D14FF0CD
:101F600003080FE0DFF87881424502D14FF0040802
:101F700008E0DFF87081424502D14FF0050801E02A
:101F80004FF006084FEA83794FEA197908FA09F801
:101F900048EA0505DFF850814FEA930948F82950CF
:101FA000D1F8048008F48038B8F5803F0BD1DFF811
:101FB0003C81D8F8008048EA0008DFF83091C9F881
:101FC00000800AE075E0DFF82481D8F8008028EA74
:101FD0000008DFF81891C9F80080D1F8048008F4EF
:101FE0000038B8F5003F0ED1DFF8008108F1040891
:101FF000D8F8008048EA0008DFF8F09009F10409F9
:10200000C9F800800DE0DFF8E48008F10408D8F892
:10201000008028EA0008DFF8D49009F10409C9F823
:102020000080D1F8048008F48018B8F5801F0ED124
:10203000DFF8B88008F10808D8F8008048EA0008FE
:10204000DFF8A89009F10809C9F800800DE0DFF871
:102050009C8008F10808D8F8008028EA0008DFF81A
:102060008C9009F10809C9F80080D1F8048008F4BF
:102070000018B8F5001F0ED1DFF8708008F10C08C9
:10208000D8F8008048EA0008DFF8609009F10C09F0
:10209000C9F800800DE0DFF8548008F10C08D8F88A
:1020A000008028EA0008DFF8449009F10C09C9F81B
:1020B00000805B1CD1F8008028FA03F8B8F1000F0B
:1020C0007FF47CAEBDE8F8870000111000100240DC
:1020D00000080140000C01400010014000140140C4
:1020E00000180140001C01400800014000040140AC
:1020F000024693680B400BB1012000E000207047BE
:1021000010B5C26821EA020302EA010443EA04436B
:10211000036110BD0AB1016101E00B040361704766
:1021200001480068704700001C0000200348006858
:102130000349097808440149086070471C000020E1
:102140002400002010B50848006840F0100006493F
:102150000860032000F080F80F2000F007F800F07E
:102160002BF8002010BD00000020024070B504468E
:102170000E4800784FF47A71B1FBF0F00C49096811
:10218000B1FBF0F5284600F073FC08B1012070BDEA
:10219000102C07D200222146501E00F01EF80548E0
:1021A000046001E00120F2E70020F0E724000020B5
:1021B000000000202000002070470146084600284B
:1021C00009DB00F01F0301229A4043099B0003F141
:1021D000E023C3F8002100BF70472DE9F05F80467F
:1021E0000D461646002701F077F8074639462A467D
:1021F000334601F00700C0F1070ABAF1040F02D913
:102200004FF0040A01E0C0F1070AD14600F1040AC8
:10221000BAF1070F02D24FF0000A01E0A0F1030A61
:10222000D4464FF0010A0AFA09FAAAF1010A0AEAA9
:10223000020A0AFA0CFA4FF0010B0BFA0CFBABF195
:10224000010B0BEA030B4AEA0B042146404601F05E
:102250004BF8BDE8F09F000000BF00F00702064BFE
:1022600019684FF6FF031940044B0B4343EA022160
:10227000014B196000BF70470CED00E00000FA054B
:1022800070B504460D460CB9012070BD5A4800686F
:1022900000F00700A8420ED25748006820F007005F
:1022A0002843554908600846006800F00700A84226
:1022B00001D00120E9E7207800F0020002281DD1BA
:1022C000207800F00400042805D14C48406840F410
:1022D000E0604A494860207800F00800082805D1ED
:1022E0004648406840F4605044494860434840686C
:1022F00020F0F000A168084340494860207800F0D1
:10230000010078B36068012806D13C48006800F4F9
:10231000003090B90120B8E76068022806D137483C
:10232000006800F0007040B90120AEE73348006853
:1023300000F0020008B90120A7E73048406820F00B
:102340000300616808432D494860FFF7E9FE06462F
:1023500009E0FFF7E5FE801B41F28831884202D98F
:10236000032092E707E02548406800F00C00616810
:10237000B0EB810FEDD12048006800F00700A842C3
:102380000ED91D48006820F0070028431A4908604C
:102390000846006800F00700A84201D0012074E759
:1023A000207800F00400042807D11448406820F485
:1023B000E060E168084311494860207800F00800B7
:1023C000082808D10D48406820F46050216940EA8F
:1023D000C1000A49486000F03FF808494968C1F364
:1023E0000311074A515CC840064908600648006866
:1023F000FFF7BCFE002048E700200240001002402A
:10240000FEA803080000002020000020014800680A
:10241000704700000000002000B5FFF7F7FF0449F7
:102420004968C1F30221034A515CC84000BD000065
:10243000001002400EA9030800B5FFF7E7FF0449AA
:102440004968C1F3C221034A515CC84000BD000085
:10245000001002400EA90308F0B585B00FF26C0C15
:102460009CE8E01001A8A0E8E0101CA52D680095EC
:1024700000210022002300240020194D696801F08A
:102480000C05F5B1042D02D0082D19D101E0154835
:1024900019E001ADC1F38346AC5D01F4803555B15F
:1024A0000F4D6D68C5F340451DF805200D4D654382
:1024B000B5FBF2F302E00C4D04FB05F3184602E015
:1024C00000BF084800BF00BF05B0F0BD020304050F
:1024D000060708090A0B0C0D0E0F10100102000070
:1024E0000010024000127A0000093D00F8B50446D1
:1024F0000CB90120F8BD207800F00100002878D048
:10250000F848406800F00C0004280CD0F5484068FA
:1025100000F00C00082811D1F248406800F4803027
:10252000B0F5803F0AD1EF48006800F40030002881
:102530005FD0606800285CD10120DBE700BF6068E5
:10254000B0F5803F06D1E748006840F48030E549A7
:10255000086028E0606858B9E248006820F48030DC
:10256000E04908600846006820F4802008601AE00E
:102570006068B0F5A02F0BD1DA48006840F48020E5
:10258000D84908600846006840F4803008600AE0D6
:10259000D448006820F48030D249086008460068BA
:1025A00020F48020086000BF606888B1FFF7B8FDA4
:1025B000054606E0FFF7B4FD401B642801D903205F
:1025C00098E7C848006800F400300028F2D010E016
:1025D000FFF7A6FD054606E0FFF7A2FD401B6428B5
:1025E00001D9032086E7BF48006800F400300028C6
:1025F000F2D1207800F00200022857D1B948406893
:1026000000F00C0050B1B748406800F00C000828FA
:1026100018D1B448406800F4803098B9B1480068D7
:1026200000F0020020B12069012801D0012061E7FB
:10263000AC48006820F0F800616940EAC100A9498F
:10264000086033E02069E8B10120A7490860FFF77E
:1026500067FD054606E0FFF763FD401B022801D930
:10266000032047E79F48006800F002000028F2D0EE
:102670009C48006820F0F800616940EAC10099496F
:10268000086013E0002098490860FFF749FD0546FF
:1026900006E0FFF745FD401B022801D9032029E78A
:1026A0009048006800F002000028F2D1207800F085
:1026B000080008282DD1A069B8B101208B49086015
:1026C000FFF72EFD054606E0FFF72AFD401B022816
:1026D00001D903200EE78348406A00F00200002879
:1026E000F2D0012000F080FC13E000207F49086058
:1026F000FFF716FD054606E0FFF712FD401B022816
:1027000001D90320F6E67748406A00F0020000286D
:10271000F2D1207800F00400042873D1002771481A
:10272000C06900F0805070B900BF6E48C06940F0C9
:1027300080506C49C8610846C06900F08050009024
:1027400000BF00BF01276A48006800F48070B0B97C
:102750006748006840F4807065490860FFF7E0FC56
:10276000054606E0FFF7DCFC401B642801D9032086
:10277000C0E65F48006800F480700028F2D000BF17
:10278000E068012806D15748006A40F00100554929
:10279000086227E0E06858B95248006A20F001005A
:1027A000504908620846006A20F00400086219E0F7
:1027B000E06805280BD14B48006A40F00400494905
:1027C00008620846006A40F0010008620AE04548D5
:1027D000006A20F00100434908620846006A20F0C0
:1027E0000400086200BFE068A0B1FFF799FC05464D
:1027F00009E0FFF795FC401B41F28831884202D97D
:10280000032077E622E03748006A00F00200002843
:10281000EFD012E0FFF784FC054608E0FFF780FCEC
:10282000401B41F28831884201D9032062E62D48DD
:10283000006A00F002000028F0D1012F05D12948DC
:10284000C06920F080502749C86100BFE069C8B363
:102850002448406800F00C00082860D0E069022895
:1028600048D1002020490866FFF75AFC054606E0DB
:10287000FFF756FC401B022801D903203AE619480D
:10288000006800F000700028F2D1206AB0F5803FA7
:1028900007D11448406820F40030A168084311496A
:1028A0004860D4E9080108430E49496821F47411CD
:1028B00008430C49486001200B490866FFF730FCCB
:1028C000054607E03DE0FFF72BFC401B022801D93D
:1028D00003200FE60348006800F000700028F2D0E3
:1028E0002FE00000001002400000424280044242FB
:1028F00000700040002014490866FFF711FC0546EF
:1029000006E0FFF70DFC401B022801D90320F1E58A
:102910000E48006800F000700028F2D111E0E06974
:10292000012800D1E6E50948466806F48031206AAE
:10293000814204D106F47011606A814201D0012005
:10294000D8E50020D6E50000000042420010024019
:1029500070B504460E4615461CB1A069B0F5807FDF
:1029600001D1012070BD94F8410028B9002084F8FD
:102970004000204600F020F804F108012068FFF72D
:10298000E5F83146A2682068FFF71CF92946236B59
:10299000D4E90102FFF7B8F8A168206850F82100D7
:1029A00040F00100A268216841F82200012084F86B
:1029B00041000020D6E7000010B586B0044600BFF5
:1029C0001E48406940F480701C49486108464069CF
:1029D00000F48070019000BF00BF00BF084680690E
:1029E00040F0200088610846806900F020000190D6
:1029F00000BF00BF00BF0846806940F0400088610A
:102A00000846806900F04000019000BF00BF4CF212
:102A1000037002900220039001200490032005908F
:102A200002A90748FFF7C4F94FF68070029002A987
:102A30000448FFF7BDF906B010BD000000100240C9
:102A40000014014000180140042808D14FF0E02193
:102A5000096941F004014FF0E022116107E04FF0F5
:102A6000E021096921F004014FF0E0221161704773
:102A700070B504462546681EB0F1807F01D3012061
:102A80000FE0681E4FF0E02148610F214FF0FF304A
:102A900000F02AFC00204FF0E02188610720086147
:102AA000002070BD70477047704710B5044620681D
:102AB0000069C0F34000D8B12068C068C0F340008E
:102AC000B0B16FF002002168086101202077206812
:102AD000806900F0030018B12046FFF7E5FF05E02C
:102AE000204600F0ADF8204600F0ABF8002020773B
:102AF00020680069C0F38000D8B12068C068C0F3C6
:102B00008000B0B16FF004002168086102202077D6
:102B10002068806900F4407018B12046FFF7C4FFB8
:102B200005E0204600F08CF8204600F08AF80020EE
:102B3000207720680069C0F3C000D8B12068C06861
:102B4000C0F3C000B0B16FF0080021680861042034
:102B500020772068C06900F0030018B12046FFF715
:102B6000A3FF05E0204600F06BF8204600F069F86E
:102B70000020207720680069C0F30010D8B12068D9
:102B8000C068C0F30010B0B16FF010002168086198
:102B9000082020772068C06900F4407018B12046F2
:102BA000FFF782FF05E0204600F04AF8204600F0DB
:102BB00048F8002020772068006900F0010058B133
:102BC0002068C06800F0010030B16FF0010021689A
:102BD0000861204600F036F820680069C0F3C01094
:102BE00058B12068C068C0F3C01030B16FF08000E9
:102BF000216808612046FFF755FF20680069C0F38F
:102C0000801058B12068C068C0F3801030B16FF0F8
:102C1000400021680861204600F024F8206800691F
:102C2000C0F3401058B12068C068C0F3401030B104
:102C30006FF02000216808612046FFF734FF10BDC7
:102C40007047704710B504460448844205D100BF60
:102C500020210348FFF754FA00BF10BDF004002004
:102C600000180140704770472DE9F047044620687E
:102C700005682068C668206847694FF00008C146AB
:102C800005F00F08B8F1000F0AD105F0200038B1A7
:102C900006F0200020B1204600F0F8F9BDE8F087EA
:102CA000B8F1000F71D007F0010018B906F4907068
:102CB00000286AD005F0010030B106F4807018B128
:102CC000E06B40F00100E06305F0040030B107F074
:102CD000010018B1E06B40F00200E06305F0020073
:102CE00030B107F0010018B1E06B40F00400E06380
:102CF00005F0080048B106F0200010B907F0010007
:102D000018B1E06B40F00800E063E06B68B305F0D9
:102D1000200028B106F0200010B1204600F0B6F9DE
:102D200020684069C0F38019E06B00F0080010B91A
:102D3000B9F1000F22D0204600F088F920684069E0
:102D400000F04000B0B12068406920F040002168E8
:102D50004861606B50B11848616B4863606BFEF767
:102D600053FF10B1606B416B88470CE02046FFF7C2
:102D70007AFF08E02046FFF776FF04E02046FFF7E1
:102D800072FF0020E06389E7FFE705F0800030B1C3
:102D900006F0800018B1204600F046FA7EE705F004
:102DA000400030B106F0400018B1204600F05EF956
:102DB00074E700BF72E700003930000810B5044620
:102DC0000CB9012010BDA06900B100E000BF94F86B
:102DD000390028B9002084F83800204600F028F88F
:102DE000242084F839002068C06820F4005021684D
:102DF000C860204600F09AF92068006920F49040ED
:102E0000216808612068406920F02A002168486133
:102E10002068C06840F400502168C8600020E0636A
:102E2000202084F8390084F83A000020CAE7000026
:102E300010B586B004462849206888424AD100BFB0
:102E400000BF2648806940F0040024498861084694
:102E5000806900F00400019000BF00BF00BF00BF08
:102E600000BF0846806940F0040088610846806918
:102E700000F00400019000BF00BF00BF00BF00BF12
:102E80000846806940F4804088610846806900F403
:102E90008040019000BF00BF00BF48150290022093
:102EA0000390012004900320059002A90C48FEF72E
:102EB0007FFF4FF4806002900020039002A9084831
:102EC000FEF776FF2520FFF778F90322114625202B
:102ED000FFF783F906B010BD003801400010024032
:102EE0000008014010B5034693F83A0020282FD17E
:102EF00001B10AB9012010BD00BF93F838000128C4
:102F000001D10220F7E7012083F8380000BF996261
:102F10009A85DA850020D863222083F83A0000BF22
:102F2000002083F8380000BF1868C06840F4807043
:102F30001C68E0601868406940F001001C6860612E
:102F40001868C06840F020001C68E0600020D2E7EC
:102F50000220D0E71D4A0168914236D11C490988F8
:102F600001F4004189BB1A49098801F4804171B11B
:102F7000184909780A2903D00021154A118024E054
:102F80001349098841F40041114A11801DE011499B
:102F900009780D2906D10E49098841F480410C4A6F
:102FA000118012E00B490978094A1288C2F30D0218
:102FB000094B995406490988491C054A1180114654
:102FC0000988C72901DD00211180704700380140C0
:102FD000180000201A00002048030020704700BF9E
:102FE000FEE700BFFEE7704708B508490968C90851
:102FF0004FF47A72B1FBF2F14143009100BF00BF80
:1030000000994A1E00920029F9D108BD0000002055
:1030100010B5FFF78BF836F0A5FB012801D036F08C
:103020006BF910BD7047000010B50248FFF73DFD79
:1030300010BD0000F004002070B505466C6A002049
:10304000E085E0842046FFF70EFE70BD0168C96888
:1030500021F490710268D1600168496921F0010191
:1030600002685161202180F83A10704710B504467B
:103070002068C06820F040002168C860202084F8E3
:1030800039002046FFF7AAFF002010BD70B50446A6
:1030900094F83A00222847D1A068B0F5805F0CD19F
:1030A000206950B90025A66A20684068C0F308006E
:1030B0003080A06A801CA06215E0A56A0026A06886
:1030C000B0F5805F03D0A06828B9206918B92068DE
:1030D0004068287004E02068406800F07F00287095
:1030E000A06A401CA062E08D401E80B2E085C8B995
:1030F0002068C06820F020002168C8602068C0688F
:1031000020F480702168C8602068406920F00100C8
:1031100021684861202084F83A002046FFF71AFF12
:10312000002070BD0020FCE70220FAE770B50446DD
:103130002168096921F44051E26811432268116154
:103140002269A1681143626941EA02052168C968E0
:1031500041F20C62914329432268D1602168496998
:1031600021F44071A2691143226851612D4A2168FE
:10317000914202D1FFF760F901E0FFF74DF900EB52
:10318000C00101EB001162689200B1FBF2F100EBAB
:10319000C00202EB001263689B00B2FBF3F26423EF
:1031A000B2FBF3F202EBC20303EB0212A1EB8201CA
:1031B000322202EB01116422B1FBF2F101F0F001C5
:1031C00000EBC00202EB001263689B00B2FBF3F25B
:1031D0006423B2FBF3F201EB021200EBC00101EB3E
:1031E000001163689B00B1FBF3F100EBC00303EB3C
:1031F00000136668B600B3FBF6F36426B3FBF6F380
:1032000003EBC30606EB0313A1EB8301322303EBAD
:1032100001116423B1FBF3F101F00F0111442268A5
:10322000916070BD00380140014691F839002128B5
:1032300028D18868B0F5805F0BD1086948B90A6A5F
:103240001088C0F308000B685860086A801C086288
:1032500005E00B6A581C086218780B685860C88C27
:10326000401E80B2C88458B90868C06820F0800049
:103270000B68D8600868C06840F040000B68D860F0
:10328000002070470220FCE710B50648FFF7ECFC71
:1032900000BF012204490348FFF724FE0028F8D1AB
:1032A00010BD0000100400201A00002000BFFEE73F
:1032B000490050EAC12018BF04204A0D18BF40F051
:1032C000010040F2FF72B2EB515F08BF40F0020014
:1032D000012808BF0520704702480068C0F302209B
:1032E000704700000CED00E010B5002804DB0A0771
:1032F000130E054A135406E00A07140E034A00F0A1
:103300000F031B1FD45410BD00E400E018ED00E0D3
:103310002DE9F04107460E463C69A0680068B042BE
:1033200002D90020BDE8F081B2B2A368198A98687A
:1033300003F0DEF90546681C40B1606800EBC5018A
:1033400020680A68C2F313021044EBE70020E9E7A3
:103350002DE9F04780460C4617469946D8F810509C
:10336000A8680068B84202D90020BDE8F087BAB268
:10337000AB68198A986803F0BBF90646701CB8B1AF
:10338000686800EBC6010868000DA08048792081BC
:103390000879E08091F90600608191F90700A08129
:1033A000688A400AA27B60F30302A2730120DCE773
:1033B0000020DAE770B50446002508E02168481CC3
:1033C00020600878303805EB850100EB4105216865
:1033D000087800F004F80028F0D1284670BD0146B6
:1033E000302903DB392901DC012070470020FCE78C
:1033F00030380A2801D201207047002070470000B1
:1034000010B54021074801F0E3FA002204210648E4
:103410002CF06CFE0549086002F094FE002004497F
:10342000087010BD90C300201162000894020020B3
:103430009002002030B50346B1F90040B2F90050C7
:10344000AC4202DDB1F9004001E0B2F900401C805D
:10345000B1F90240B2F90250AC4202DDB1F90240CA
:1034600001E0B2F902405C80B1F90440B2F90450C5
:10347000AC4202DAB1F9044001E0B2F904409C80A8
:10348000B1F90640B2F90650AC4202DAB1F9064091
:1034900001E0B2F90640DC800120B3F90040B3F945
:1034A0000450AC4205DCB3F90240B3F90650AC421B
:1034B00000DD002030BDF8B504460D461646002755
:1034C000B4F90000B5F90010884212DBB4F902002B
:1034D000B5F9021088420CDBB4F90400B5F9041008
:1034E000884206DCB4F90600B5F90610884200DC13
:1034F00001270FB90020F8BD0EB90120FBE7208895
:10350000ADF800006088ADF80200324669462846F2
:1035100000F0A7F808B90020EDE7A088ADF800009A
:103520006088ADF8020032466946284600F099F8F6
:1035300008B90020DFE72088ADF80000E088ADF88A
:10354000020032466946284600F08BF808B9002090
:10355000D1E7A088ADF80000E088ADF8020032465F
:103560006946284600F07DF808B90020C3E701202D
:10357000C1E70246B2F90000B1F90430984213DC09
:10358000B2F90400B1F9003098420DDBB2F9020043
:10359000B1F90630984207DCB2F90600B1F9023001
:1035A000984201DB012070470020FCE7F8B5044693
:1035B0000D461646B4F90400B5F90010884211DB37
:1035C000B4F90600B5F9021088420BDBB4F900002B
:1035D000B5F90410884205DCB4F90200B5F906100B
:1035E000884201DD0120F8BD0EB90020FBE72088EC
:1035F000ADF800006088ADF8020032466946284602
:1036000000F02FF808B10020EDE7A088ADF8000029
:103610006088ADF8020032466946284600F021F87D
:1036200008B10020DFE72088ADF80000E088ADF8A1
:10363000020032466946284600F013F808B100201F
:10364000D1E7A088ADF80000E088ADF8020032466E
:103650006946284600F005F808B10020C3E70120BC
:10366000C1E72DE9FC5F05460E4614464FF0000AFF
:10367000B6F90000B5F90010884213DBB6F9000076
:10368000B5F9041088420DDCB6F90200B5F9021054
:10369000884207DBB6F90200B5F90610884201DC62
:1036A0004FF0010ABAF1000F02D10020BDE8FC9FE3
:1036B000002C01DC0120F9E7284617F0BCFD834609
:1036C00000EBDB704710284617F02DFD834600EB1A
:1036D000DB704FEA6008474501DA384600E04046B3
:1036E00081464C4500DD4C462888ADF8000028880E
:1036F000204400B2ADF804006888ADF80200688884
:10370000204400B2ADF80600002231466846FFF7BB
:10371000A8FF80B1BDF80400204400B2ADF8040059
:10372000BDF80600204400B2ADF8060031466846F8
:1037300028F006FDBAE7E888001B00B2ADF80200E9
:10374000E888ADF80600002231466846FFF789FF99
:1037500080B1BDF80400204400B2ADF80400BDF80B
:103760000200001B00B2ADF802003146684628F0A6
:10377000E7FC9BE7A888001B00B2ADF80000A88812
:10378000ADF80400002231466846FFF76AFF80B1B9
:10379000BDF80000001B00B2ADF80000BDF802004B
:1037A000001B00B2ADF802003146684628F0C8FCA4
:1037B0007CE76888ADF802006888204400B2ADF864
:1037C0000600002231466846FFF74BFF80B1BDF886
:1037D0000000001B00B2ADF80000BDF80600204458
:1037E00000B2ADF806003146684628F0A9FC5DE756
:1037F00001205BE710B5B1F90030B2F90040A342F7
:1038000002DAB1F9003001E0B2F900300380B1F919
:103810000230B2F90240A34202DAB1F9023001E00B
:10382000B2F902304380B1F90430B2F90440A34246
:1038300002DDB1F9043001E0B2F904308380B1F95E
:103840000630B2F90640A34202DDB1F9063001E0CC
:10385000B2F90630C38010BD2DE9FF4104462CF0BB
:10386000E6FB05460020039034B14749E068086054
:1038700020462CF053FD03E01AF0A0FC42490860FA
:1038800041490968086928F0B9FB3F480068406968
:1038900020B13D490968486928F0B0FB3A490968F8
:1038A000C86928F0ABFB38490968086A28F0A6FB0C
:1038B00035480068006940B9002033490968A1F81B
:1038C000500100BF00BFBDE8FF8129F0B9FA29F01F
:1038D000FFF92D480068B0F8500100284BD02A4865
:1038E00000680068007CC0F34000E8B1264800682A
:1038F0001AF0E2FC401E06B2234800681AF076FC7B
:10390000401E07B23B460022114601A8009617F060
:10391000D7FC01A81C4909680968896B48601A48E6
:10392000006806F0FDFA00BF4FF480711648006889
:10393000303022F09CFD20211348006800F598707B
:1039400022F095FD002010490968A1F85001284691
:103950002CF060FB03900C4800680068406A50B18E
:103960000949096808680849096809684B6A0749EC
:103970000A680399984722F0B3FA00F03FF800F084
:1039800007F800BF9FE700004C010020480100201D
:1039900010B5002416E0C4EBC4000C4951F8200017
:1039A00030B1C4EBC401094A52F8210022F04AFBAD
:1039B000C4EBC401054A02EB81001C2122F057FD33
:1039C000601CC4B2042CE6DB10BD00006CC40020F7
:1039D0000146094A10680BE042688A4202D0026838
:1039E0008A4204D1027E22F00102521C0276406912
:1039F0000028F1D17047000020010020704700002E
:103A000010B50421014800F0E3FF10BD84C300207D
:103A100010B51C21014800F0DBFF10BD9CC3002045
:103A20002DE9FF4F8BB004469A46199DBAF1000F5D
:103A300011D11898B0F5807F0DD1002020806080D2
:103A40000C98401E00B2A0800D98401E00B2E0808D
:103A50000FB0BDE8F08FB5F9000040421899484317
:103A60000121C1EB202000B22080B5F902004042C4
:103A7000189948430121C1EB202000B26080B5F9BC
:103A800000100C98401A18994843022101EB20209D
:103A900000B2A080B5F902100D98401A1899484359
:103AA000022101EB202000B2E080BAF1000F14D116
:103AB00020882988084400B22080608869880844EA
:103AC00000B26080A0882988084400B2A080E08805
:103AD0006988084400B2E080BAE70A209AFBF0F057
:103AE0000A900A98401C09900A9800EB8000AAEB03
:103AF000400B0A9800B22CF097FD0890099800B28C
:103B00002CF092FD07900A985A3000B22CF08CFDF0
:103B1000069009985A3000B22CF086FD0590CBF142
:103B20000A0108984143079800FB0B100A2190FBFB
:103B3000F1F6CBF10A0106984143059800FB0B1002
:103B40000A2190FBF1F776117F11B4F90080B4F9E6
:103B5000029007FB08F006FB1900298801EBA02062
:103B600000B2ADF8100006FB08F007FB09006988F9
:103B700001EBA02000B2ADF81200B4F90480B4F952
:103B8000029007FB08F006FB1900298801EBA02032
:103B900000B2ADF80C0006FB08F007FB09006988CD
:103BA00001EBA02000B2ADF80E00B4F90080B4F92A
:103BB000069007FB08F006FB1900298801EBA020FE
:103BC00000B2ADF8080006FB08F007FB09006988A1
:103BD00001EBA02000B2ADF80A00B4F90480B4F9FA
:103BE000069007FB08F006FB1900298801EBA020CE
:103BF00000B2ADF8040006FB08F007FB0900698875
:103C000001EBA02000B2ADF80600BDF90800BDF937
:103C10001010884202DABDF9080001E0BDF9100079
:103C2000BDF90410BDF90C20914202DABDF904106F
:103C300001E0BDF90C1088420BDABDF90800BDF9AE
:103C40001010884202DABDF908000DE0BDF910003D
:103C50000AE0BDF90400BDF90C10884202DABDF992
:103C6000040001E0BDF90C002080BDF90800BDF999
:103C70001010884202DDBDF9080001E0BDF9100016
:103C8000BDF90410BDF90C20914202DDBDF904100C
:103C900001E0BDF90C1088420BDDBDF90800BDF94B
:103CA0001010884202DDBDF908000DE0BDF91000DA
:103CB0000AE0BDF90400BDF90C10884202DDBDF92F
:103CC000040001E0BDF90C00A080BDF90A00BDF9B7
:103CD0001210884202DABDF90A0001E0BDF91200B3
:103CE000BDF90610BDF90E20914202DABDF90610A9
:103CF00001E0BDF90E1088420BDABDF90A00BDF9EA
:103D00001210884202DABDF90A000DE0BDF9120076
:103D10000AE0BDF90600BDF90E10884202DABDF9CD
:103D2000060001E0BDF90E006080BDF90A00BDF992
:103D30001210884202DDBDF90A0001E0BDF912004F
:103D4000BDF90610BDF90E20914202DDBDF9061045
:103D500001E0BDF90E1088420BDDBDF90A00BDF986
:103D60001210884202DDBDF90A000DE0BDF9120013
:103D70000AE0BDF90600BDF90E10884202DDBDF96A
:103D8000060001E0BDF90E00E08000BF60E62DE90D
:103D9000F74F86B0044620680590B4F908100798DC
:103DA000A0EB0108B4F90A100898A0EB0109E0891A
:103DB000B0F5807F13D1206B00FB08F0E16A01FBB6
:103DC0001901606A00EBA10BE06A00FB08F0216BAF
:103DD00001FB0901A06A00EBA10004902FE0A0897B
:103DE00080B9A06B00FB08F04FEA6018A06B00FBE5
:103DF00009F04FEA6019606A00EB080BA06A4844BA
:103E000004901CE0A06B00FB08F04FEA6018A06B68
:103E100000FB09F04FEA6019206B00FB08F0E16A33
:103E200001FB1901606A00EBA12BE06A00FB08F0BE
:103E3000216B01FB0901A06A00EBA12004904FEA6D
:103E40002B2604980712B4F90400B04203DC0020CA
:103E500009B0BDE8F08F002E01DA0020F8E7B4F9D0
:103E60000600B84201DC0020F2E7002F01DA002052
:103E7000EEE73420005DC0F3800050B33420005DD5
:103E8000C0F3400078B90225B4F9040078436843D0
:103E900006FB050A059800EB0A012A4604F1140006
:103EA00022F093FA2CE00325B4F904007843684328
:103EB00006FB050A6A1E059800EB0A0104F11400CE
:103EC00022F083FA0AEB0500401E0599095CA175F2
:103ED00016E04FF0000A0025208A03463AB231B2BC
:103EE000019004F118001EF075FD0290BDF8080065
:103EF000A0823AB231B204F118001EF0CBFCA075DA
:103F00003420005D00F00100B0B14FF47F4000218B
:103F100000F47C4241EA5211C0F3C4021143019102
:103F2000BDF8042011460291A08ABDF8081088420D
:103F300001D100208CE700BFE07C08B9012087E7B1
:103F40000FFA8BF1A187049801B2E18731B24020CA
:103F5000015339B242200153C4F844A084F84850B8
:103F6000204600F003F80390039871E72DE9F04F25
:103F70008DB00446D4F8009094F83C000C9094F86E
:103F80003E000B900C9870280BDA4FF0FF35B4F917
:103F900040002844002800DA00250C988030C7B281
:103FA00013E00C9890280EDD0125B4F94000284458
:103FB000B4F90410884200DB00250C98C0F1FF0022
:103FC0008030C7B201E00025FF270B9870280CDA7B
:103FD0004FF0FF36B4F942003044002800DA0026E2
:103FE0000B98803000F0FF0815E00B9890280FDD4B
:103FF0000126B4F942003044B4F90610884200DBCF
:1040000000260B98C0F1FF00803000F0FF0802E0AE
:1040100000264FF0FF08A08A0A90A07D069000209D
:104020000590049003903420005DC0F380000028C8
:104030005BD094F84800626C00FB052000EB09019E
:10404000022209A822F0C1F9B4F9040094F848202A
:104050005043626C00FB062000EB0901022208A815
:1040600022F0B3F9B4F9040094F848205043626C8C
:1040700000FB062294F8480000FB052000EB090134
:10408000022207A822F0A1F93420005DC0F340000D
:1040900000287ED094F84800616C00FB05110844AC
:1040A000401E19F800000590B4F9040094F8481077
:1040B0004843616C00FB061194F848000844401E18
:1040C00019F800000490B4F9040094F8481048432B
:1040D000616C00FB061194F8480000FB05110844D0
:1040E000401E19F80000039053E0208A0090B4F9B4
:1040F00042204020005B284401B204F11800009BDC
:104100001EF068FC0990208A00904220005B304439
:1041100002B2B4F9401004F11800009B1EF05AFCE2
:104120000890208A00904220005B304402B2402078
:10413000005B284401B204F11800009B1EF04AFC09
:1041400007903420005DC0F3400010B3B4F9422062
:104150004020005B284401B204F118001EF09AFBD5
:1041600005904220005B304402B2B4F9401004F1E3
:1041700018001EF08FFB04904220005B304402B216
:104180004020005B284401B204F118001EF082FBBD
:104190000390BA46BB463420005DC0F34000E0B354
:1041A00006987843C7F1FF0C059B03FB0C00C0F396
:1041B000072104987843C7F1FF0C039B03FB0C0015
:1041C000C0F3072201FB08F0C8F1FF0302FB030064
:1041D000030AA375022905DC022A03DC00200DB0C6
:1041E000BDE8F08F022901DC4FF00008022A01DC53
:1041F0004FF0FF080698022801DC4FF0000A0598EE
:10420000022801DC4FF0FF0A0498022801DC4FF07D
:10421000000B0398022803DC00E002E04FF0FF0BE4
:1042200003E0BA46BB46FF21A175BAF1000F02D1E7
:10423000099802900BE0BAF1FF0F02D10A980290A0
:1042400005E05246DDE9091019F026FA0290BBF1AB
:10425000000F02D1079801900BE0BBF1FF0F02D1D4
:104260000898019005E05A46DDE9071019F014FAA4
:104270000190B8F1000F03D1BDF80400A0820FE057
:10428000B8F1FF0F03D1BDF80800A08208E0424654
:10429000DDE9011019F000FA0090BDF80000A082DD
:1042A00001209CE72DE9F05F0446B4F90800010203
:1042B0006162B4F90A000102A162B4F90C000A219A
:1042C00090FBF1F56F1CB4F90C0005EB8501A0EB38
:1042D0004106684200B22CF0A7F98046784200B24D
:1042E0002CF0A2F98146C5F15A0000B22CF09CF9DD
:1042F0008246C7F15A0000B22CF096F98346C6F107
:104300000A0000FB08F009FB06000A2190FBF1F10E
:10431000E162C6F10A0000FB0AF00BFB06000A216D
:1043200090FBF1F12163E06A4111E162206B4111E0
:104330002163A07C1EF005FE3421095D60F30001BD
:1043400034200155A07C1EF0DFFD3421095D60F3AF
:10435000410134200155A07C042805D0A07C05280B
:1043600002D0A07C062807D13420005D20F0040094
:10437000001D3421085505E03420005D20F00401C3
:104380003420015521682162A06920F0E000A0617D
:10439000A17CA06961F30400A061A188A06961F318
:1043A0009420A061E188A06961F35F50A061E08979
:1043B00000EBD071491001F5001191FBF0F2A263FE
:1043C000FF21A175208AA082BDE8F09F2DE9F74367
:1043D000054616460024134C2BF029FE8046334632
:1043E00029462046019A1FF05BFA07465FB900BFD5
:1043F00000BF2C21204622F03AF84FF00040A06286
:104400000020BDE8FE830020A062E06918B94046A4
:104410002BF000FEE061E06908B90120E061204670
:10442000EFE70000C0C3002010B51421114800F0D0
:10443000CFFA1FF0E7F9044600BF1CB900BF00BF68
:1044400000BFFEE700BF14B900BF00BF10BD0A499E
:1044500020461FF0BFFA094920461FF0BDFA08495F
:1044600020461FF0BBFA074920461FF0B1FA00BFF3
:10447000ECE70000A8C3002021300208F534020850
:1044800011370208E92F020870B504460D461021C5
:10449000284621F0ECFF20680078012804D1208A0A
:1044A0002880608A68800CE020680078022802D1A9
:1044B000E068686005E020680078042801D10A20DF
:1044C00068602068406820B12068294642689047AB
:1044D00001E000BF00BF70BD2DE9FE430446A66A9F
:1044E000EEB9A18A208A084401B2A182E18A608AD9
:1044F000084401B2E18220460DF045FA06460EB9A5
:10450000BDE8FE83204611F0E5FB0022092130467C
:104510001DF022FB6078C0F3400000B1F0E7208A74
:1045200010B9608A002870D000200290019094F8A1
:104530003C0000F00F00032812D1304624F058F858
:104540000746304623F0DCFF804603200090B4F994
:1045500010103B46424630460CF0F2FC029012E04E
:10456000304624F0C7F80746304623F03BFF80462C
:104570000C200090B4F9121043463A4630460CF035
:10458000DFFC019000BF304623F08CFF054605F0AC
:10459000010028B9BDF90800002801DD00200290C3
:1045A00005F0020028B9BDF90800002801DA002052
:1045B000029005F0040028B9BDF90400002801DDCF
:1045C0000020019005F0080028B9BDF9040000287A
:1045D00001DA0020019001AA02A920462FF07CFAFE
:1045E0000023BDF90420BDF90810304626F060FF15
:1045F000A08ABDF80810084401B2A182E08ABDF883
:104600000410084401B2E18200BF00BF78E72DE941
:10461000F84F0446D4F828B0BBF1000F01D1BDE833
:10462000F88F94F83C0000F00F0000B9F7E71FF096
:10463000B9FC06463068477E4021584625F062FCAA
:1046400010B9002161832183584624F03FF8804649
:10465000584624F045F8054694F83C0000F00F0059
:104660000C2843D1002121831DBBB4F91A00C7F1E6
:1046700064014843642190FBF1F001B26183584624
:1046800023F0B0FE8146584624F034F882460C20D0
:104690000090B4F91A104B46524658460CF050FCA4
:1046A0006083B4F91A2000231946584626F000FF0B
:1046B00069E020462FF067FA0090002161836A4686
:1046C00020462FF009FABDF9003041F6FF72514241
:1046D00058460DF001FB8146BDF80000484402B287
:1046E00001230021584626F0E3FE4CE094F83C00FC
:1046F00000F00F00032846D100216183B8F1000FBC
:1047000023D1B4F91800C7F164014843642190FB38
:10471000F1F001B22183584623F0F2FE814658465B
:1047200023F066FF824603200090B4F91810534628
:104730004A4658460CF004FC2083B4F918100023B4
:104740001A46584626F0B4FE1DE020462FF000FA27
:104750000090002121830022694620462FF0BCF9F9
:10476000BDF9003041F6FF72514258460DF01AFA79
:104770008146BDF80000484401B20123002258469A
:1047800026F096FE00BF208B002860D1608B0028A9
:104790005DD11DBB584623F0ADFF8146584623F03E
:1047A00021FE8246B9F1000F02DCBAF1000F14DDE0
:1047B000B9F1000F06DA01234A460021584626F0D7
:1047C00077FE0AE0BAF1000F07DA0123CAF1000010
:1047D00002B20021584626F06BFE00BFB8F1000F70
:1047E00023D1584623F08CFE8146584623F000FF23
:1047F0008246B9F1000F02DCBAF1000F14DDB9F105
:10480000000F06DA012300224946584626F050FEE2
:104810000AE0BAF1000F07DA01230022CAF1000012
:1048200001B2584626F044FE00BF32460A215846DF
:104830001DF092F96078C0F3400000B1EFE694F803
:104840003C0020F00F0184F83C100021A16200BF61
:10485000E5E62DE9FF4104460F4614B919F0AEFC18
:1048600004460CB9BDE8FF811FB90020A4F850012F
:10487000F8E70020ADF80800ADF80A00204619F06E
:10488000B5FC401E00B2ADF80C00204619F014FD36
:10489000401E00B2ADF80E0002AA39466846FEF787
:1048A000C9FD064606B9DDE72068007CC0F340007C
:1048B00060B102982063039860630120A4F850015E
:1048C000606810B160682BF035FDCBE72068806927
:1048D00018B1206869468269904700250BE004F111
:1048E000300000EBC50100226846FEF7E4FD00B190
:1048F000B8E7681C85B2B4F85001A842EFDCB4F800
:104900005001202809DAB4F8502104F1300101EBFC
:10491000C200694616F077FB0BE00020A4F85001B6
:10492000B4F8502104F1300101EBC20002A916F0E5
:104930006AFBB4F85001401CA4F85001606810B143
:1049400060682BF0F7FC00BF8CE770B50546284681
:1049500000F013F8044600260CE02146284600F03B
:1049600024F806462146284600F086F8204621F025
:1049700069FB3446002CF0D170BD014609B9002016
:1049800070474868FCE770B5064600243046FFF7DC
:10499000F4FF054605E0641C2946304600F005F8A2
:1049A0000546002DF7D1204670BD02460B46106823
:1049B000001D03441868704702460B461068034404
:1049C00018687047014609B9002070478868FCE7FD
:1049D000002242608260CA1C22F00301016070471D
:1049E00070B50446216801F1080021F05DFA054622
:1049F000A5B10022294620462CF03AFF2946204640
:104A000062682CF027FF606820B12A462046616862
:104A10002CF02EFF6560A06800B9A560284670BD27
:104A200070B50446216801F1080021F03DFA054601
:104A3000A5B10022294620462CF00CFF294620462D
:104A4000A2682CF015FFA06820B12A462046A16874
:104A50002CF000FFA560606800B96560284670BD55
:104A6000014609B901207047486818B9886808B933
:104A70000120F8E70020F6E72DE9F04104460D4655
:104A80000CB9BDE8F0812046FFF777FFA8420FD1AF
:104A900029462046FFF789FF6060606810B9002052
:104AA000A0602FE00022204661682CF0E1FE29E0A2
:104AB0002046FFF787FFA8420FD129462046FFF77F
:104AC0007BFFA060A06810B9002060601AE000229F
:104AD0002046A1682CF0BEFE14E029462046FFF7D0
:104AE0006BFF064629462046FFF75FFF07463A461A
:104AF000314620462CF0AEFE3246394620462CF098
:104B0000B7FE00BF00BFBCE710B504462068806850
:104B100018B120682146826890472068006828B153
:104B20002068006820602046FFF7EEFF10BD0146B8
:104B3000886818B18868B0F9160070470020FCE753
:104B40002DE9F04F93B005468B4691469A461C9E40
:104B5000688C20F00400001D6884A5F8209032893C
:104B60005946284624F04AFF1290A5F820A0328921
:104B70005946284624F042FF1190688C20F004002A
:104B80006884DDE9111088420CD1DDE911108842FA
:104B900008D1BDF84800BDF84410884202D113B0D6
:104BA000BDE8F08FA5F8209032895946284624F0B8
:104BB00025FF1290A5F820A0594628460FF04FFA7D
:104BC00010903189109A1068129A29F0CCFE308921
:104BD000602833D147F6FF711298884202D01198AD
:104BE00088422BD1284625F030F90F9000EBD07089
:104BF0004710284625F029F90F9000EBD0704FEAB6
:104C0000600847F6FF711298884208D1781C08F1B5
:104C10000101884200DA01E008F10100129047F634
:104C2000FF711198884208D1781C08F1010188426F
:104C300000DA01E008F10100119000BF2448FFF7FD
:104C4000CFFE044600BF1CB900BF00BF00BFFEE797
:104C500000BF04B9A3E71298E06011982061ACB3DB
:104C600025603089A080C4F808B0684615F096FB2E
:104C70002146684615F045FC1649684615F011FCBA
:104C80001548029000BF1549684615F018FCFF2230
:104C90000021684615F025FC3188684615F017FCA0
:104CA0007188684615F0F8FBF068069000BF68460A
:104CB000002190F83E2061F3000280F83E2000BF02
:104CC00030690590684615F033FC00BF00BF66E709
:104CD000B4C300205582030801850308318403080A
:104CE00010B514210148FFF773FE10BDB4C30020B6
:104CF0002DE9FE4F04460F4690464FF0000900256F
:104D00006BE1E06800EBC5004068C0F3406000B1B3
:104D100062E1E16801EBC501496821F07F4027F0BD
:104D200069F9064626EA070008B9012000E00020DC
:104D3000029026EA080008B9012000E00020019056
:104D4000DDE90101814272D0E06850F835A04FF0F2
:104D5000000B6A4641F61001504629F09DFA10B149
:104D60004FF0010BA9E06A4641F61101504629F0C7
:104D700093FA10B14FF0010B9FE06A4641F6120121
:104D8000504629F089FA10B14FF0010B95E06A46C0
:104D900041F61301504629F07FFA10B14FF0010B94
:104DA0008BE06A4641F61501504629F075FA10B1BC
:104DB0004FF0010B81E06A4641F61401504629F09C
:104DC0006BFA10B14FF0010B77E06A4641F26901CE
:104DD000504629F061FA10B14FF0010B6DE06A46C0
:104DE00043F20C01504629F057FA10B14FF0010B75
:104DF00063E06A4643F20D01504629F04DFA10B1C6
:104E00004FF0010B59E06A4641F20101504629F08A
:104E100043FA10B14FF0010B4FE06A4641F2040132
:104E2000504629F039FA18B14FF0010B45E0D2E0B5
:104E30006A4641F20201504629F02EFA10B14FF0B5
:104E4000010B3AE06A4641F20301504629F024FA88
:104E500010B14FF0010B30E06A4641F205015046B7
:104E600029F01AFA10B14FF0010B26E06A4641F220
:104E70000601504629F010FA10B14FF0010B1CE06A
:104E80006A4641F23201504629F006FA10B14FF05D
:104E9000010B12E06A4643F60F01504629F0FCF977
:104EA00010B14FF0010B08E06A4643F60E01504680
:104EB00029F0F2F908B14FF0010BBBF1000F02D05D
:104EC0000320BDE8FE8F6A4640F60A01504629F0ED
:104ED000E3F910B14FF002097CE06A4640F60B019D
:104EE000504629F0D9F910B14FF0020972E06A4634
:104EF00043F60F01504629F0CFF910B14FF00209E7
:104F000068E06A4643F60E01504629F0C5F910B133
:104F10004FF002095EE06A4640F63C01504629F037
:104F2000BBF910B14FF0020954E06A4640F63D016A
:104F3000504629F0B1F910B14FF002094AE06A4633
:104F400040F63A01504629F0A7F910B14FF0020996
:104F500040E06A464FF40461504629F09DF910B1D3
:104F60004FF0020936E06A4640F64501504629F006
:104F700093F910B14FF002092CE06A4640F6410166
:104F8000504629F089F910B14FF0020922E06A4633
:104F900040F64201504629F07FF910B14FF0020966
:104FA00018E06A4640F64301504629F075F910B101
:104FB0004FF002090EE06A4640F64901504629F0DA
:104FC0006BF910B14FF0020904E0B9F1000F01D103
:104FD0004FF0010900BF00BF6D1C608CC0F3C5001D
:104FE000A8423FF68EAE48466BE7000001480068D5
:104FF000704700004C01002070470146C1F30412C5
:10500000072A00DD0722D0B27047000010B5182132
:105010000348FFF7DDFC01202BF0A4F810BD0000D1
:1050200060C300202DE9F04105460F4616460DB934
:10503000BDE8F0812846FBF7BDFB8046394628468F
:105040000A4A126890470746E8193146074A12682B
:10505000904706463C4603E0A019285C2855641C8E
:10506000A8EB0600A042F7D200BFE1E7E002002073
:105070002DE9F04106460C4617461D4629463046A6
:10508000084A126890472060206830B12968881962
:105090000021044A1268904700E000203860BDE813
:1050A000F0810000D80200202DE9F04F87B00446BF
:1050B0000F4692469846DDE910560DB10020288033
:1050C0001CB9002007B0BDE8F08F207808B9002097
:1050D000F8E70FB90020F5E74FF0000906F00200ED
:1050E00010B906F0040098B1002000E0401C215CDB
:1050F0000A2905D0215C0D2902D0215C0029F5D1B7
:10510000215C01B1401C15B14FF0FF312980D9E776
:1051100006F0020008B141F6FF78002006900590E5
:1051200038E000200490059808B9012000E0002034
:1051300006A904AACDE90062CDE90210059960181C
:105140004346524639462BF0A7FA83460498A8EB0B
:1051500000000FFA80F8049848440FFA80F9BBF178
:10516000000F00D11CE005985844059020780A28CB
:1051700002D020780D2800D112E00598205C0A2882
:1051800003D00598205C0D2803D10598401C05909C
:1051900006E000BF0598205C10B1B8F1000FC0DC3C
:1051A00000BF059870B905A92046094A12689047C2
:1051B000834635B10022594638461CF026FE0FFAC8
:1051C00080F900BF0DB1A5F8009005987AE70000BE
:1051D000D80200202DE9F04706468846174606B15A
:1051E0000FB9BDE8F0873046FBF7E4FA8146384650
:1051F000FBF7E0FA044604B9F3E704EB090A414679
:1052000030460B4A126890478046554603E0281BFB
:10521000305C70556D1E08EB0400A842F7D906EB10
:1052200008002246394621F0DCF800BFD9E700002B
:10523000E0020020024600200FA31B788B4211D110
:1052400013781BB90123137001200BE01378012B95
:1052500002D10023137005E01378022B02D1002342
:10526000137001201378012B04D1202901D10223CE
:1052700013700120704700002300000073B582B056
:10528000064603980190324600210846019B2BF008
:105290001FFD0546002001900024681C20F004FE3C
:1052A000044600BF1CB900BF00BF00BFFEE700BF3F
:1052B00014B9002004B070BD002060553246691C4E
:1052C0002046039B2BF004FD2046F3E72DE9F04731
:1052D00081460E4614461F46DDF820A035461BE0E9
:1052E000600800FB075529464846D047B0F1000842
:1052F00009DD04F0010080F00100C0EB5404E8195E
:105300000546064608E0B8F1000F02DA64083546A3
:1053100002E02846BDE8F087002CE1D10020F9E743
:105320002DE9FF4F85B08346DDE9158ADDE9134994
:10533000DDE91775129E05F00200F8B94FB105F0CE
:10534000010030B1B9F1000F02D105F00C0000B13D
:105350007F1E03E030222046641C3254544501D2A3
:10536000202CF7D303E030222046641C325405F091
:10537000010018B1BC4201D2202CF4D305F010007A
:10538000B0B305F4806050B94CB1544501D0BC4273
:1053900005D1641E1CB1B8F1100F00D1641EB8F124
:1053A000100F09D105F0200030B9202C04D278224A
:1053B0002046641C325415E0B8F1100F09D105F0F5
:1053C000200030B1202C04D258222046641C3254D4
:1053D00008E0B8F1020F05D1202C03D2622220464A
:1053E000641C3254202C03D230222046641C3254D8
:1053F000202C16D2B9F1000F04D02D222046641CB7
:1054000032540EE005F0040020B12B222046641C2B
:10541000325406E005F0080018B120222046641C32
:105420003254CDE90275CDE90064584606A90EC98B
:1054300000F0A2F809B0BDE8F08F2DE9FF4F8FB062
:105440008046DDE91FABDDE91D96219D1C9C0027F0
:105450000CB925F0100505F4806000B1E4B100BF7F
:10546000B4FBF6F106FB1141C8B20A2802DA00F1DA
:10547000300107E005F0200109B1412100E0612180
:1054800001440A39CBB239467F1C07AA5354B4FBF6
:10549000F6F40CB1202FE3D307A8CDE904AB8DE8D7
:1054A000810203960695404610A90EC9FFF738FF02
:1054B00013B0BDE8F08F2DE9FF4F8FB0DDE9217B00
:1054C000DDF89080209EDDE91C454FF000090021A9
:1054D00084EA01006940084301D128F0100808F46B
:1054E000806028B1002184EA0100694008432DD082
:1054F00000BF32463B4620462946FAF70AFF02F033
:10550000FF0ABAF10A0F02DA0AF1300007E008F0E8
:10551000200008B1412000E0612050440A38C2B2A6
:10552000484609F1010907A90A5432463B4620467C
:105530002946FAF7EEFE04460D46002184EA0100F2
:105540006940084302D0B9F1200FD2D32398CDE9A6
:10555000036BCDE9050807A91E98CDE90019029053
:105560000FA80FC8FFF7DCFE13B0BDE8F08F9A421A
:1055700000D28854704770472DE9FF5F05461446F6
:10558000DDE90EA6DDE91087A34607F0020078B931
:1055900007F0010060B9B14607E02246641C2020F4
:1055A000039B0199A84709F10109C145F5D300BF43
:1055B00008E02246641C711E0E461AF80100039B87
:1055C0000199A847002EF4D107F0020050B105E080
:1055D0002246641C2020039B0199A847A4EB0B00E2
:1055E0004045F5D3204604B0BDE8F09F00BF7047AA
:1055F00000BF70472DE9FF4F8BB0074600250C9880
:1056000000B9FA4FEAE20E98007825280AD02A4617
:105610006D1C0E990878DDE90C13B8470E98401CF4
:105620000E90DBE20E98401C0E90002400BF0E98F6
:1056300000782B2819D004DC20281ED023282CD158
:1056400023E02D2809D0302827D144F001040E98FA
:10565000401C0E9001200A9022E044F002040E98B3
:10566000401C0E9001200A901AE044F004040E98A9
:10567000401C0E9001200A9012E044F008040E989D
:10568000401C0E9001200A900AE044F010040E988D
:10569000401C0E9001200A9002E000200A9000BFFA
:1056A00000BF0A980028C2D180460E990878FDF7FD
:1056B00096FE20B10EA8FDF77DFE804612E00E9802
:1056C00000782A280ED1189901C91891002804DA07
:1056D00044F00204C0F1000800E080460E99491C25
:1056E0000E9100BF4FF000090E9800782E281FD1B0
:1056F00044F480640E98401C0E900E990878FDF7D3
:105700006EFE20B10EA8FDF755FE814610E00E9802
:1057100000782A280CD1189901C91891002801DDB8
:10572000014600E0002189460E99491C0E9100BFF8
:105730000E9800786C280AD004DC682816D06A28F5
:1057400035D128E0742820D07A2830D129E044F4DB
:1057500080740E98401C0E900E9800786C2804D12E
:1057600044F400740E98401C0E9021E044F0800434
:105770000E98401C0E900E980078682804D144F0D2
:1057800040040E98401C0E9012E044F480740E9871
:10579000401C0E900CE044F400740E98401C0E90D7
:1057A00006E044F480740E98401C0E9000E000BFA8
:1057B00000BF0E98007869281DD00EDC622821D029
:1057C00006DC25287ED050281AD058287BD115E039
:1057D000632879D06428F9D10CE0732875D004DCF3
:1057E0006F280ED07028F1D109E0752804D07828F0
:1057F000ECD102E000BF00BF00BF00BF00BF00BF90
:1058000000BF00BF0E980078782803D00E9800786B
:10581000582801D1102623E00E980078702803D074
:105820000E98007850280CD1102644F0100444F44F
:1058300080740E984078562812D10E98401C0E9015
:105840000EE00E9800786F2801D1082608E00E9827
:105850000078622801D1022602E00A2624F0100412
:105860000E980078582803D00E980078502801D15F
:1058700044F020040E980078692805D00E9800782E
:10588000642801D024F00C0404F4806008B124F0F2
:1058900001040E980078692803D00E9800786428D7
:1058A0007CD104F40070B8B31898C01D20F0070034
:1058B0001890D0E900AB189A083218920020CDE970
:1058C000069803E073E17CE1F2E01CE1CDE90460BD
:1058D0000894BAEB00017BEB000001DA012000E044
:1058E0000020002102900846B1EB0A0170EB0B008A
:1058F00002DA5046594605E000200146B0EB0A00A6
:1059000061EB0B01CDE900012A463846DDE90C13B5
:10591000FFF7D1FD0546C7E0FFE704F48070D0B182
:10592000189850F804AB18904FEADA70CDE9039854
:1059300002960594BAF1000F01DD514601E0CAF16B
:105940000001CDE900102A463846DDE90C13FFF7C7
:1059500074FD0546A8E004F0400028B1189810F83E
:10596000041B1890C8B20DE004F0800028B118980C
:1059700030F8041B189008B204E0189800681899D1
:10598000091D189182464FEADA70CDE90398029614
:105990000594BAF1000F02DD514602E00BE0CAF1B6
:1059A0000001CDE900102A463846DDE90C13FFF767
:1059B00044FD054678E00E980078562818D11898CE
:1059C00050F804AB1890DAF80400006809900998C0
:1059D0000090DAF800300D98421B0C9841193846B7
:1059E000FFF708FE0544002009905DE077550008A8
:1059F00004F40070D0B11898C01D20F00700CDE964
:105A00000698089418900020CDE904600290189937
:105A100003C9189A08321892CDE900012A4638467F
:105A2000DDE90C13FFF747FD05463DE004F4807007
:105A300098B10022CDE90398029605941898006861
:105A40001899091DCDE9000218912A463846DDE96A
:105A50000C13FFF7F2FC054626E004F0400028B1E5
:105A6000189810F8041B1890C8B20DE004F08000DC
:105A700028B1189830F8041B189088B204E01898E0
:105A800000681899091D189182460020CDE900A0F0
:105A9000CDE90398029605942A463846DDE90C13B1
:105AA000FFF7CBFC054600BF0E98401C0E9093E01C
:105AB000012604F0020050B905E02A466D1C2020A2
:105AC000DDE90C13B8473046761C4045F5D31899EC
:105AD00011F8043BD8B22A466D1C1891DDE90C136D
:105AE000B84704F0020050B105E02A466D1C2020A2
:105AF000DDE90C13B8473046761C4045F5D30E98C7
:105B0000401C0E9068E0189850F804AB189050466E
:105B1000B9F1000F01D0494601E04FF0FF310A46CC
:105B2000014600E0491C0B781BB1131EA2F10102D3
:105B3000F8D10E1A04F4806028B14E4501D23046E7
:105B400000E04846064604F0020050B905E02A4647
:105B50006D1C2020DDE90C13B8473046761C40450B
:105B6000F5D306E01AF8010B2A466D1CDDE90C138B
:105B7000B8479AF8000040B104F480600028F1D0E2
:105B8000B9F10000A9F10109ECD104F0020050B113
:105B900005E02A466D1C2020DDE90C13B84730468D
:105BA000761C4045F5D30E98401C0E9014E02A4612
:105BB0006D1C2520DDE90C13B8470E98401C0E9093
:105BC0000AE02A466D1C0E990878DDE90C13B847E7
:105BD0000E98401C0E9000BF00BF00BF0E980078CA
:105BE00000287FF410AD0D98854201D2284601E0CF
:105BF0000D98401E02460020DDE90C13B8472846E8
:105C00000FB0BDE8F08F00002DE9FF4F8DB00D46BD
:105C10001646002E06DB042E04DA012D02DB282DA9
:105C200000DC05E040F2251236493748FAF75EFD00
:105C300006EBC60000EB461034490844445706EB17
:105C4000C60000EB461032490844475728460CF07E
:105C500039FF8046C01708EB50704FEAE00B314621
:105C600028460CF0F5FE0C909BFBF4F004FB10B002
:105C7000201A0B909BFBF4F0C01B0A9002A9384637
:105C800001F068F8DDF834904FF0000834E00B982C
:105C9000804501DB012100E000210A9801EB000AA8
:105CA000DDE90C100844019001983B4602AA5146D8
:105CB0000090484601F0A6F8002041460AE00A9A02
:105CC000904201D10B9A891A19F80030109A535456
:105CD000401C21445045F2DB00200C9A02EB0801E5
:105CE00005E0019A135C109A5354401C2144B842B9
:105CF000F7DBD14408F10108A045C8DB11B0BDE8CD
:105D0000F08F000008BF040858BE04081C8B04086C
:105D1000788A040870B505460C4606222146601CA8
:105D2000FAF7ACFD257070BD2DE9F04104460E4632
:105D3000002774B13146204600F02DF80546B5F530
:105D4000802F05D20C2D01D9284600E00C200746F3
:105D500000BF3846BDE8F081024600BF481E08403B
:105D600018B100BF00BF00BFFEE700BF481E1040D3
:105D7000101A704710B502464B1E13444C1E23EAFE
:105D8000040000BF4B1E0B401BB100BF00BF00BF93
:105D9000FEE700BF10BD024600BF481E084018B114
:105DA00000BF00BF00BFFEE700BF481E10444B1EEF
:105DB000984370472DE9F04180460E464446012045
:105DC0006086002500270DE056F8270025A1FAF788
:105DD0001BFE10B1681C85B202E0608E401C60861C
:105DE000781C87B256F8270020B156F827000078B3
:105DF0000028E9D1208EA84201D1BDE8F081A06A37
:105E000020B1A06A20F01EF90020A062E06A20B153
:105E1000E06A20F017F90020E062E80020F044F882
:105E2000A06200BFA06A18B900BF00BF00BFFEE7B4
:105E300000BF680020F038F8E06200BFE06A18B9DF
:105E400000BF00BF00BFFEE700BFA06A08B1E06A64
:105E500000B900256900E06A20F009FB258600BF33
:105E6000CBE700000A0000002DE9F84F81460E46FE
:105E7000924699F8090000F00700022801D1304647
:105E800000E050468346564501DD304600E050466E
:105E90000746032000EB470020F0030000F1100547
:105EA0003948006839490968A0EB0108002405EB6E
:105EB000080037490968884206D233480468606898
:105EC00020F0004060603AE031480068854221D807
:105ED00013E04FF0FF300090002269462D4810F08B
:105EE000BDFC002269462C4810F0B8FC264800682A
:105EF00026490968A0EB010800BF08EB050024490A
:105F000009688842E5D820480468606820F00040AD
:105F1000606014E028461FF0C7FF044600BF1CB9AC
:105F200000BF00BF00BFFEE700BF14B90020BDE8FE
:105F3000F88F606820F0004000F100406060324659
:105F40005946484602F01FF92060606800F0404062
:105F5000401C6060606820F080406060A781A4F809
:105F60000EB06068C00F20B1204600F11001A160A2
:105F700008E0054800681030A06003480068284425
:105F8000014908602046D2E754010020A802002001
:105F90005001002069190108916A0108F0B585B027
:105FA00006460D463446002004900390029094F873
:105FB0003C0000F0030020B1012838D0022866D050
:105FC00000BF94F83C0000F003005A490978884269
:105FD0001BD02620005D00EB001000EB40001421D8
:105FE00090FBF1F0544908702720005D00EB001091
:105FF00000EB4000142190FBF1F05049087094F838
:106000003C0000F003004B49087002A803A9CDE949
:10601000001005EB45014FF6FF7202EA410004ABA8
:1060200046490A78444909780BF05AF95FE094F838
:106030003C0000F003003F49097888421AD0A08C48
:1060400000EB400040024FF4B471B0FBF1F03C496A
:1060500008802720005D00EB001000EB40001421B9
:1060600090FBF1F03549087094F83C0000F0030013
:106070003049087002A803A9CDE90010E9B204ABC9
:106080002E4802782E4800880BF02AF92FE094F869
:106090003C0000F003002749097888421AD0A08C00
:1060A00000EB400040024FF4B471B0FBF1F0244922
:1060B00008802620005D00EB001000EB400014215A
:1060C00090FBF1F01C49087094F83C0000F00300CC
:1060D0001849087002A803A9EAB204ABCDE9001080
:1060E00015480178164800880BF0FAF800BF00BF89
:1060F0009DF810009DF80C109DF80820D708BDF8F9
:10610000003067F304038F080093BDF8003067F395
:106110004A13C7080093BDF8003067F3CF230093FC
:10612000BDF800703B460193BDF80410084605B069
:10613000F0BD00000602002004020020050200203D
:106140000202002010B50120074908700748FEF739
:1061500014FC20B9064800682AF0E0F803E004487F
:1061600000682AF0E7F810BD9002002090C30020DC
:106170009402002010B5044694F83E00C0F340009D
:1061800050B9A08F002807DDA08F4FF6FF7188421D
:1061900002D0A08F401EA087A08FA8B9606B20B14D
:1061A00094F83E00C0F3400070B121461748FEF756
:1061B00063FCFFF7C7FFE06810B12046E16888473D
:1061C00020461FF03FFF1FE0A06B4042E062606B83
:1061D000D0B194F83E10C1F3400111B9216B49428E
:1061E000E16294F83E104908C94394F83E2061F3F7
:1061F000410284F83E20E069616AE1616062A06A60
:10620000616BA162606300BF10BD000090C30020FD
:106210002DE9F04180464248006829F0FBFE064621
:106220004048007880F001003E4908703E48FEF783
:10623000A4FB04466BE000203C49087094F83E0043
:10624000C0F3800037490978884253D03548017837
:106250002C34A07C61F38200A07420688719A07C94
:106260002C3CC0F3C00010BBE06A00281FDC002FEC
:106270001DDB94F83E0000F0010060B9206950B1C8
:106280002046216988470546E0692844E061606A44
:106290002844606200BFA06810B12046A16888470A
:1062A00094F83E0020F00800083084F83E00E06AD0
:1062B0003044E062E06A00281BDBD4E90A1088421F
:1062C00001DDA06AE0622046A16988470546206A90
:1062D000A84206D02562606818B12946D4E90002B8
:1062E0009047D4E90A10884202DB2046FFF742FFBC
:1062F00000BF00BF0D48007820B10B48FEF73DFB02
:10630000044604E021460848FEF74FFB0446002CF3
:1063100091D129F08CFE02490860BDE8F0810000AF
:106320008C0200209102002090C3002090020020E7
:106330002DE9F04106460D4617461C46002D05DBAB
:10634000102D03DC26FA05F000B904E0B92210494B
:106350001048FAF7CBF9681E16E026FA00F101F0B2
:106360000101227802F00702C2F10702914022687F
:1063700007EBE20212781143226807EBE202117088
:10638000401E2168491C21600028E6DABDE8F08142
:1063900008BF040868BD04082DE9F05F82468846FE
:1063A0001646002E02DB072E00DC05E04FF41772C4
:1063B000624963A0FAF79AF940462CF06FFD074650
:1063C0000024B5E00025AFE02246294650460CF0F7
:1063D00015FB00B1A7E0082E73D2DFE806F0041029
:1063E0001C2733465B76281900EBD0714910A0EBCF
:1063F000410109B9012100E000218B4684E02046DB
:1064000004EBD0714910A4EB410109B9012100E06E
:1064100000218B4678E0032095FBF0F100FB115042
:1064200008B9012000E0002083466DE0281903210F
:1064300090FBF1F201FB120008B9012000E00020FE
:10644000834661E0032295FBF2F2214604EBD1730F
:1064500002EB630000EBD0725210A0EB42020AB9CB
:10646000012200E0002293464EE005FB04F10322E6
:1064700091FBF2F302FB131205FB04F000EBD07169
:106480004910A0EB4101114409B9012100E00021AC
:106490008B4639E005FB04F2032392FBF3FC03FB7C
:1064A0001C2305FB04F101EBD1725210A1EB420257
:1064B000981800EBD0725210A0EB420212B90122E0
:1064C00001E01BE0002293461EE005FB04F20323DB
:1064D00092FBF3FC03FB1C22291901EBD1735B1027
:1064E000A1EB4303D01800EBD0725210A0EB420294
:1064F0000AB9012200E00022934605E04FF41B7226
:106500000E4918A0FAF7F2F800BF22462946404685
:106510000CF074FA814689EA0B032246294640466C
:106520002DF05AFC00BF6D1CBD42FFF64DAF641C40
:10653000BC42FFF647AFBDE8F09F000008BF04086B
:1065400030203C3D2028696E74296D61736B2026D4
:10655000262028696E74296D61736B203C3D2037BD
:106560000000000066616C7365000000F7B582B042
:1065700004460E4614B9049805B0F0BD00BF63226E
:106580003146204623F03AFA0190019D00BFBDB18B
:106590002868A8B100BF64223146204623F02EFAB5
:1065A00001900198C0B207464FB13A462B68284681
:1065B000049998470190BDF80400ADF8100000BFA1
:1065C0000498D9E770B504460D46606818B12946AD
:1065D0006068FFF7F7FF206818B129462046226857
:1065E000904770BD70B505460C46A1B2284614F020
:1065F00037FC70BD70B505460C46A1B2284614F0B4
:1066000080FC70BD10B50EF087FA10BD70B5054660
:106610000C46164606E028466A1C95B200F008F8BB
:1066200004F8010B301EA6F101018EB2F3D170BD4A
:1066300070B5044600260EF02FFB2112A02202EBBB
:106640004101C8B20EF0F2FA0EF06CFB2546E117DC
:1066500004EB11610912A4EB0121C8B20EF0E6FAB5
:106660000EF060FB0EF018FBA1200EF0DFFA0EF02A
:1066700059FB00200EF0ACFA06460EF033FB304614
:1066800070BD70B505460C46164606E021782846D2
:1066900000F009F8681C85B2641C301EA6F10101E7
:1066A0008EB2F3D170BD70B504460E460EF0F4FA0A
:1066B0002112A02202EB4101C8B20EF0B7FA0EF08F
:1066C00031FB2546E11704EB11610912A4EB01210E
:1066D000C8B20EF0ABFA0EF025FB30460EF0A6FA6B
:1066E0000EF020FB0EF0FEFA0A2002F0E5F870BD75
:1066F000F0B503460C460025661E11E0A81900EB14
:10670000D077791033F81100904201DD4E1E07E07A
:1067100033F81100904201DA4D1C01E00846F0BD4B
:10672000B542EBDD4FF0FF30F9E770B504460D469A
:1067300000BF204600F03BF818B100BF00BF00BF0B
:10674000FEE700BF284600F050F9001D61680844CC
:106750006060204600F03AF8204670BD70B50546EE
:106760000C46284600F041F904F11001884201D39B
:10677000012070BD0020FCE70146A1F10800704730
:106780007CB505460C46204600F02FF906466A46C1
:1067900001A92AF047FE21462846DDE900320FF024
:1067A000DEFB7CBD0146087900F00100704710B5A2
:1067B0000446204600F019F908B9012010BD002058
:1067C000FCE70146087900F00200704770B5044606
:1067D000204600F097F805462C60284670BD7CB531
:1067E00006460C4600200190009000256CB16A46D8
:1067F00001A920462AF033FE01980C2805DA6A46E2
:1068000001A930462DF0A6FA054685B100BF2846FD
:1068100000F0EBF8A04203D200BF00BF00BFFEE7CC
:1068200000BF29463046DDE900322CF0FBFE284649
:106830007CBD70B504462046FFF7C8FF05462846D4
:1068400000F0BEF8204600F0B6F870BD70B5044602
:10685000204600F057F80546284600F0B6F82046D6
:1068600000F0BEF870BD70B506460D46284600F033
:1068700049F8044600BF1CB900BF00BF00BFFEE7D7
:1068800000BF2046FFF78EFF90B100BF2846FFF7FC
:106890008EFF18B100BF00BF00BFFEE700BF21465A
:1068A000304600F076F821462846FFF73EFF0546C1
:1068B000284670BD70B506460D462846FFF781FF95
:1068C000F0B1284600F057F8044600BF1CB900BFDD
:1068D00000BF00BFFEE700BF00BF2046FFF762FF1A
:1068E00018B900BF00BF00BFFEE700BF2146304619
:1068F00000F04FF829462046FFF717FF054600BF76
:10690000284670BD2DE9F0410446204600F06DF8A0
:10691000061F204600F0B8F8074631462BF0A1F8D4
:10692000054600BF2046FFF742FF18B100BF00BF79
:1069300000BFFEE700BF2846BDE8F0812DE9F04129
:1069400006460C461546002794B100BF1DB900BF8E
:1069500000BF00BFFEE700BF2A462146304600F0D8
:1069600097F82046FFF772FF204600F08DF80746A3
:106970003846BDE8F08110B5044600BF2046FFF759
:1069800020FF18B900BF00BF00BFFEE700BF2068AE
:1069900010BD7CB505460C46204600F026F806469C
:1069A0006A4601A92AF03EFD21462846DDE900326B
:1069B0002CF038FE7CBD416841F001014160704718
:1069C000416841F0020141607047416821F00201D5
:1069D00041607047426802F003030B434360704715
:1069E000416821F00101416070470146486820F08C
:1069F000030070472DE9F04706460C46304600F08C
:106A000043F88046211F2BF02CF807463046FFF74D
:106A1000ECFF211D451A00BF384600F035F88146CD
:106A2000384600F031F880460421FFF7A3F981458C
:106A300003D000BF00BF00BFFEE700BF00BF30466D
:106A4000FFF7D3FF2919091D884203D000BF00BFFB
:106A500000BFFEE700BF29463846FFF7BBFF00BF77
:106A60003846FFF7C2FF0C2803D200BF00BF00BFAB
:106A7000FEE700BF21463046FFF7ACFF3846FFF780
:106A8000D8FE3846BDE8F087014601F1080070479E
:106A90002DE9F04106460C46154600BF2046FFF79B
:106AA00081FE18B900BF00BF00BFFEE700BF294646
:106AB0002046FFF753FE78B129462046FFF79AFF9C
:106AC00007462046FFF782FE3846FFF779FF394632
:106AD0003046FFF755FE00BFBDE8F0812DE9F041DB
:106AE00006460C46154600BF2046FFF75BFE18B170
:106AF00000BF00BF00BFFEE700BF29462046FFF7EA
:106B00002DFE88B129462046FFF774FF0746384618
:106B1000FFF75BFF39463046FFF7A5FE07463946CB
:106B20003046FFF72DFE00BFBDE8F0812DE9F843A8
:106B3000064634461DF036FA804640461DF077FA88
:106B400078BB30461AF01BFD38B330461AF093FB81
:106B5000208FE18E884212D0E08E2087E08E009058
:106B60006A461C2130461AF0F7FF0746012F02D073
:106B70003846BDE8F883304623F061FD00BF40464B
:106B80001DF065FA0546042D06D1304621F0B8FB0C
:106B9000074600211BF051FE09E030461AF052FD75
:106BA00005E0FFE7208FE086304623F048FD012016
:106BB000DFE72DE9F041044620461AF0C7FF0546FD
:106BC000284621F0F7FB0646284615F053FA0746FB
:106BD00001223946304628F0C5FBBDE8F081014668
:106BE000C1F3C01070470146C1F3801070470146E1
:106BF000C1F3C01070470146C1F300207047014641
:106C0000C1F3C00070470146C1F340107047014610
:106C1000C1F3402070470146C1F300307047014680
:106C2000C1F30010704700002DE9F04F89B0044611
:106C30000D460021204621F058FA30B91C21284683
:106C40001FF015FC09B0BDE8F08F2946204600F082
:106C50000FFC2946204600F081F90021204622F051
:106C600077FC08900021204622F0F8FD07900021D3
:106C7000204622F02DFA012800D100E000208146B4
:106C80000021204623F0A0F807460021204622F0EC
:106C90000DFB064642F2D170874205D1608CC0F3ED
:106CA000802008B9012000E000208246204621F023
:106CB000BCFA069000BF4FF0000824480288414605
:106CC000204622F09BFE03900398C0B200BF83468B
:106CD000AA6829692868CDE90209CDE900125A4657
:106CE0005146089B06980DF047FA288342F2D1706E
:106CF000864205D1608CC0F3402008B9012000E035
:106D000000200590204621F071FA049000BF4FF05A
:106D100000080F4802884146204622F06FFE03908B
:106D20000398C0B200BF83460023EA6869686869B7
:106D3000CDE90213CDE900025A46079BDDE90401C3
:106D40000DF01AFA688300BF7CE700007A0100208A
:106D50007E0100202DE9F04104460D46012C02DBA6
:106D60001E2C00DC05E040F26312164916A0F9F76C
:106D7000BDFC21462846F9F7FDFD0121601E29547E
:106D800001274FF0000818E000260DE0A85D394605
:106D90000BF09EF9A855701CA04204DAA85D711C86
:106DA000695C4840A855761CA642EFDB02213846B4
:106DB0000BF08EF9074608F10108A045E4DBBDE8B9
:106DC000F081000008BF040831203C3D2064656765
:106DD00072656520262620646567726565203C3DE6
:106DE000207172636F646567656E5F524545445FED
:106DF000534F4C4F4D4F4E5F4445475245455F4DB5
:106E0000415800002DE9F05F8046894692461C46B5
:106E10000A9D012C02DB1E2C00DC05E040F27D12F5
:106E2000144915A0F9F762FC21462846F9F7A2FD9E
:106E300000271AE018F80700297880EA010B621E83
:106E4000691C2846F9F71AFD0021601E2954002606
:106E500008E01AF8060059460BF03AF9A95D4840D7
:106E6000A855761CA642F4DB7F1C4F45E2DBBDE84B
:106E7000F09F000008BF040831203C3D2064656796
:106E800072656520262620646567726565203C3D35
:106E9000207172636F646567656E5F524545445F3C
:106EA000534F4C4F4D4F4E5F4445475245455F4D04
:106EB0004158000070B505460E46B6F5004F02D3A6
:106EC0004FF0FF3070BD3446012D08D104EB840033
:106ED000022101EB4000032190FBF1F421E0022D9F
:106EE00008D104EB440101EBC401481C00EBD07154
:106EF0004C1016E0042D01D1E40012E0082D04D15D
:106F000004EB840000EBC4040BE0072D02D10EB9A2
:106F1000182405E04FF455720A490BA0F9F7E6FB77
:106F200000BF002C00DB05E040F25732054908A005
:106F3000F9F7DCFBB4F5004F02D34FF0FF30C1E7A7
:106F40002046BFE708BF040866616C736500000057
:106F5000726573756C74203E3D2030002DE9F34F4F
:106F600087B00C4607980CF025F98046079821F069
:106F70005CF90690404601F081F9206121694800E2
:106F80001EF0CCFF2060216948001EF0C7FFA06002
:106F9000002548E05848029038F9150041F69A71EA
:106FA00088423FD10020019029E00199079821F003
:106FB0009CF800905149009822F0AFFF00B11BE00F
:106FC00000980CF015F98246BAF1010F00D013E0D9
:106FD00000980CF0FDF88346AB4500D00CE000981B
:106FE00022F033FF0299884201DA029802E0009809
:106FF00022F02BFF029000BF0198401C01900798DF
:1070000021F091F801998842CFD80298002804DB3A
:107010000298A16821F8150003E00021A06820F87B
:10702000151000BF6D1C2069A842B3D80026B146D8
:1070300000251BE038F9150041F69B71884202DB00
:10704000411A0E4411E041F69A71884206D1A168B6
:1070500031F8151049440FFA81F906E0A16821F8CA
:10706000150009EB00010FFA81F96D1C2069A84297
:10707000E0D80021079822F06BFA05902169491E9B
:10708000DDE9050200FB112000B206900698A0EB96
:10709000090007B2002F00DA00274FF0FF300490FC
:1070A00000200390002513E038F9150041F69B718C
:1070B00088420CDB421A11B207FB01F2B2FBF6F276
:1070C00012B2A36823F815200495039100BF6D1C2C
:1070D0002069A842E8D8049800280ADB0398301AEF
:1070E0007843B0FBF6F0381A01B2A268049822F88F
:1070F000101009B0BDE8F08F01E0FFFF01000600AD
:107100002DE9FC5F054600221146284624F05CFB71
:107110000021284622F043F881460021284622F02B
:10712000C4FB484407B20021284622F075F94844C0
:107130000FFA80FA284621F031FF384450440FFA04
:1071400080FB3B4E284620F0EEFF01904FF00008F8
:107150005CE0A868006850F828403649204622F0D4
:10716000DCFE00B150E0204623F0E6FA002839D1D9
:107170000021204621F044FF0090009830B1012802
:1071800007D0022804D0032815D100E000BF00BFBB
:1071900000BFB4F91A10B5F91600081A401CB04225
:1071A00001DA304605E0B4F91A10B5F91600081AEC
:1071B000401C06B214E00021204622F039FE70B9CE
:1071C00004F1140013F077FF3844B04201DA30467E
:1071D00004E004F1140013F06EFF384406B200BF5F
:1071E00000BF10E0B4F91A10B5F91600081A401CD7
:1071F000B04201DA304605E0B4F91A10B5F91600CC
:10720000081A401C06B200BF08F101080198804529
:107210009FD30748864209D006EB0A0006B25E45B6
:1072200002DD3046BDE8FC9F5846FBE75846F9E7CB
:1072300001E0FFFF010004002DE9FC5F054600228C
:107240001146284624F0A4FA0021284621F0A7FF81
:1072500082460021284622F065FA50440FFA80F851
:107260000021284622F0B5F950440FFA80F928464B
:1072700021F0A4FE4844404400B20190724C2846DC
:1072800020F051FF83460021284621F0FAFE012814
:1072900066D100265BE0A868006850F826706B494C
:1072A000384622F03AFE00B150E0384623F044FA66
:1072B000002839D10021384621F0A2FE0090009824
:1072C00030B1032805D0062804D0082815D102E0E3
:1072D00000BF00BF00BFB5F91800B7F91410401A7D
:1072E000401CA04201DA204605E0B5F91800B7F9C4
:1072F0001410401A401C04B214E00021384622F059
:107300008AFD70B907F1140013F048FF4044A04211
:1073100001DA204604E007F1140013F03FFF404477
:1073200004B200BF00BF10E0B5F91800B7F914109F
:10733000401A401CA04201DA204605E0B5F91800C9
:10734000B7F91410401A401C04B200BF761C5E4509
:10735000A1D33D48844269D004EB090004B265E042
:1073600000265BE0A868006850F826703749384668
:1073700022F0D3FD00B150E0384623F0DDF980BBA8
:107380000021384621F03CFE0090009830B10128E1
:1073900005D0042804D0072815D102E000BF00BFA3
:1073A00000BFB7F91800B5F91410401A401CA042EC
:1073B00001DA204605E0B7F91800B5F91410401AB3
:1073C000401C04B215E00021384622F031FD78B9A6
:1073D00007F1140013F0E2FE4844A04202DA20460E
:1073E00005E008E007F1140013F0D8FE484404B2A9
:1073F00000BF00BF10E0B7F91800B5F91410401A2B
:10740000401CA04201DA204605E0B7F91800B5F9A2
:107410001410401A401C04B200BF761C5E45A1D374
:107420000948844202D004EB080004B206488442B2
:1074300002D10198BDE8FC9F0198844201DD2046FD
:10744000F8E70198F6E7000001E0FFFF0100040003
:1074500010B5044620681EF0DDFD60681EF0DAFD00
:10746000A0681EF0D7FDE0681EF0D4FD10BD00003E
:107470002DE9F34F87B00C4607980CF08BFC804643
:10748000404600F0FBFE6061616948001EF046FD69
:107490006060616948001EF041FDE060002548E041
:1074A0005948029038F9150041F69A7188423FD147
:1074B0000020019029E00199079820F016FE009025
:1074C0005249009822F029FD00B11BE000980CF011
:1074D00029FD8246BAF1010F00D013E000980CF0AC
:1074E00011FD8346AB4500D00CE0009820F012FF60
:1074F0000299884201DA029802E0009820F00AFF1F
:10750000029000BF0198401C0190079820F00BFEEC
:1075100001998842CFD80298002804DB0298E168DC
:1075200021F8150003E00020E16821F8150000BFF4
:107530006D1C6069A842B3D80026B14600251BE047
:1075400038F9150041F69B71884202DB411A0E445E
:1075500011E041F69A71884206D1E16831F81510C0
:1075600049440FFA81F906E0E16821F8150009EBBA
:1075700000010FFA81F96D1C6069A842E0D8002172
:10758000079822F06BF90690079820F02FFE01462D
:107590006269521E069800FB121000B20590059811
:1075A000A0EB090007B2002F00DA00274FF0FF30F0
:1075B000049000200390002511E038F9150041F6F1
:1075C0009B7188420ADB421A11B207FB01F2B2FB3F
:1075D000F6F212B2E36823F8152000BF6D1C606953
:1075E000A842EAD8049800280ADB0398301A7843A6
:1075F000B0FBF6F0381A01B2E268049822F81010D5
:1076000009B0BDE8F08F000001E0FFFF01000600B7
:107610007CB504460D46164628882189084400B2E8
:10762000ADF8000068886189084400B2ADF8020036
:10763000A8882189084400B2ADF80400E88861896F
:10764000084400B2ADF80600324669462046636938
:1076500098477CBDF8B505460E462C46206B10B108
:10766000206B007818B9606B08B90120F8BD606B19
:1076700058B1284628F07BFA074610490968884720
:10768000616B884201D30020F0E7206B98B10020A5
:1076900000900AE069460A4A206B12689047074644
:1076A000B74201D10120E1E700BF206B0099405CA7
:1076B0000028EFD1DAE70120D8E70000E802002037
:1076C000D80200202DE9FF4F8FB00F46209DF8789B
:1076D00000F0010008B1FA4800E0FA480E90F8788E
:1076E00000F0010008B1F84800E0F8480D90F87883
:1076F00000F0010008B9F44800E0F4480C900120C3
:107700000B90B5E000220B9200206A88B5F804C007
:10771000A2EB0C0211B200261AE006EB860CEA6816
:1077200002EB8C02127C02F0010242B906EB860CDD
:10773000EA6802EB8C029289024410B207E006EB81
:10774000860CEA6802EB8C0212898A1A11B2761C46
:107750002A69B242E1D8002685E006EB860CEA6889
:1077600002EB8C02127C02F00102002A7AD191FB1A
:10777000F0F80FFA88F306EB8609D5F80C8008EBD1
:107780008908B8F80C8008FB03F80FFA88F206EBBA
:107790008609D5F80C8008EB8908B8F9049006EB47
:1077A000860AD5F80C8008EB8A08B8F9068090455F
:1077B00001DD904607E006EB860AD5F80C8008EB61
:1077C0008A08B8F90680C14508DD06EB8609D5F8B8
:1077D0000C8008EB8908B8F9048013E006EB8609F1
:1077E000D5F80C8008EB8908B8F90680904501DDD2
:1077F000904607E006EB8609D5F80C8008EB89086F
:10780000B8F90680C44694450BD04FF0010806EB4A
:10781000860AD5F80C9009EB8A09C9F81080CDF8D2
:107820002C8006EB8609D5F80C8008EB8908A8F8AF
:1078300008C006EB8609D5F80C8008EB8908B8F873
:107840000C80A0EB08080FFA88F006EB8609D5F843
:107850000C8008EB8908B8F80880A1EB08080FFA3B
:1078600088F100BF761C2A69B2423FF676AF00BFAE
:107870000B9800287FF446AF00210F9821F01BFCE5
:10788000012800D100E000200A9000200990089013
:1078900008A809A9CDE9001029890BB2B5F9022081
:1078A00038781E992AF0E0F8F87800F0010048B125
:1078B0000A9838B10F9820F0B8FCBDF8241008449D
:1078C00000B2099011990F9820F00FFC04468AE14C
:1078D0007F49204622F021FB40B1F878C0F38001B7
:1078E00011AA0F980CF091F804467CE10021204683
:1078F00021F0B2FC07900798002858D00020039090
:10790000002610E006EB8601E86850F82100A0424E
:1079100008D106EB8600E96801EB8000B0F90800A9
:10792000039003E0761C2869B042EBD800BFF878DA
:1079300000F0010030B1608C20F4806000F58060C0
:10794000608405E0608C20F4007000F500706084B5
:1079500004F114000D9988470399884226D02046E7
:1079600022F06DFE00BFA08AADF80400E08AADF8F9
:107970000600208BADF80800608BADF80A0000BF50
:1079800004F114000E9A0399904701AA2921204678
:107990001AF0E2F8204620F00DFD22462221009048
:1079A0001AF0DAF8204622F04AFE00BF07E0608CA9
:1079B00020F480606084608C20F40070608400207B
:1079C00006907878012812D0022819D104F1140009
:1079D0000C998847B5F90010491C21F00101081ADB
:1079E000039000EBD070401000B2069009E004F163
:1079F00014000C9988472988081A00B2069000E004
:107A000000BF00BFF87800F0010050B10A9840B103
:107A100004F114000D998847BDF82410081A00B22B
:107A200009900020039043F20C022046039921F0B4
:107A3000E5FF029002980FFA80F800BF0020039043
:107A400043F20D022046039921F0D8FF02900298DC
:107A50000FFA80F900BF204622F0F7F90590204682
:107A600020F058FC049008F4C040B0F5005F01D14C
:107A7000012000E0002030B128F4C040B0F5FA6FDA
:107A800001DC012000E0002090B128F4C040B0F5F6
:107A90007A7F04DD28F4C040C0F57A7001E028F454
:107AA000C04005994843642190FBF1F00FFA80F83B
:107AB00009F4C040B0F5005F0CD101200BE00000DC
:107AC000DBB20108CFB201081BB201080BB10108FB
:107AD00001000600002030B129F4C040B0F5FA6F73
:107AE00001DC012000E0002090B129F4C040B0F595
:107AF0007A7F04DD29F4C040C0F57A7001E029F4F2
:107B0000C04004994843642190FBF1F00FFA80F9DA
:107B1000A18A1C98401A40440FFA80FAE18A1D9805
:107B2000401A48440FFA80FBF87800F0010010B1C9
:107B3000BDF9240000E0069850440FFA80FAF87866
:107B400000F0010008B1069801E0BDF92400584496
:107B50000FFA80FBBAF1000F02D1BBF1000F1BD06E
:107B6000204622F06CFDA08A504400B2A082208BF7
:107B7000504401B22183E08A584401B2E182608B13
:107B8000584401B26183204622F059FD01235A4630
:107B90005146204622F030FEF87800F0010008B18E
:107BA0000A9870B904F114000D9988471F99084488
:107BB000BDF820100844BDF82410084400B2099014
:107BC00008E0BDF820101F980844BDF82410081ADA
:107BD00000B20990F878C0F3800111AA0F980BF059
:107BE00014FF044600BF24B1DDE9111081427FF487
:107BF0006FAE13B0BDE8F08F2DE9F04F8DB00546A4
:107C00008946B9F1000F02D10DB0BDE8F08FA5F89B
:107C10001890286810B128681EF014FA09EB490181
:107C2000062202EB41001EF03FF9286000BF2868E1
:107C300018B900BF00BF00BFFEE700BF286868603A
:107C40000221286801FB0900801CE86004212868E3
:107C500001FB0900001DA860B9F1010F0CD1B4208F
:107C6000696808700020E96808800120E968488098
:107C70000020A9680880C7E709F10101C8001EF0CB
:107C80004DF9074609F1010007EB80084FF0000AA3
:107C90004FEA890002B20BA90CA800F067F9002492
:107CA000BDF930008010079000200390CCE0002642
:107CB00016E00BA90CA800F061F90CA800F04BF934
:107CC00000B90FE0BDF93000801007A941F8260087
:107CD000BDF8300000F0030003A941F82600761C2F
:107CE000042EE6DB00BF042E00D0B3E00A9907980B
:107CF000884219D1079800B227F814000FFA8AF0C9
:107D000028F81400DDE903010844059908440699A0
:107D10000844696808556868005D0007000E6968D6
:107D20000855601C04B28DE0DDE9070188422CD0C3
:107D3000079800B227F814000FFA8AF028F8140008
:107D40000398696808556868005D0007000E696857
:107D50000855601C04B20798401E00B227F81400B2
:107D60000FFA8AF028F814000498001D05990844B9
:107D700006990844696808556868005D0007000EA8
:107D800069680855601C04B25CE00999079888424C
:107D90002CD0079800B227F814000FFA8AF028F8C0
:107DA0001400DDE903010844696808556868005D4E
:107DB0000007000E69680855601C04B20798401E51
:107DC00000B227F814000FFA8AF028F8140005987A
:107DD000083006990844696808556868005D00071E
:107DE000000E69680855601C04B22BE0079800B2C9
:107DF00027F814000FFA8AF028F81400DDE90301CF
:107E0000084405990844696808556868005D0007DA
:107E1000000E69680855601C04B20798401E00B245
:107E200027F814000FFA8AF028F8140006980C308E
:107E3000696808556868005D0007000E69680855A4
:107E4000601C04B20AF1010A0CA800F084F80028B2
:107E50007FF42DAF00BF40F2D32109FB01F0029067
:107E6000029880120190601E37F91010019881422B
:107E700005D1601E38F910100198814226D0DDE945
:107E80000121A1EB8220B0F5007F04DC00FB00F1B2
:107E90004800001407E0C0F5806000FB00F14800D6
:107EA0000014C0F10F00019909B227F814100199CC
:107EB00009B228F814106A6810556968095D090745
:107EC000090E6A681155611C0CB200BFA61E0EE0B7
:107ED00038F8160027F8140037F8160028F81400B0
:107EE0006868805D69680855761E601C04B2002EC3
:107EF000EEDA4FF0000B00260020E968088023E04E
:107F0000E96821F81B6037F81600A96821F81B0002
:107F100010E0A86830F81B0037F91610884203DA21
:107F2000A86830F81B0001E037F91600A96821F8AD
:107F30001B00761C38F91600584501D1A642E8DB33
:107F40000BF101000FFA80FBA642D9DB38461EF088
:107F500061F800BF58E60146B1F90200B1F900200E
:107F6000904201DC012070470020FCE702800023E2
:107F70004380C2F101031BB20B807047B1F90020AE
:107F8000002A07DC0B8842885200D21C1A4412B225
:107F90000A800CE042880388D21A5200521D0B88D6
:107FA0001A4412B20A800288521E12B2028042881B
:107FB000521C12B24280704737B582B01546022D6E
:107FC00004DCBDF80C10084605B030BDBDF80C004F
:107FD000C00ABDF8081000EBD1241F2C01D22046A6
:107FE00000E01F20BDF8081060F3CF210291BDF81A
:107FF0000C00C0F34510BDF80810C1F3451144183A
:108000003F2C01D2204600E03F20BDF8081060F36D
:108010004A110291BDF80C0000F01F00BDF80810D5
:1080200001F01F0144181F2C01D2204600E01F2040
:10803000BDF8081060F304010291FF2D03D1BDF8D3
:1080400008100846C0E72A46DDE9020115F046FBA4
:108050000190BDF804100846B6E717B581B0144684
:10806000022C04DCBDF80810084604B010BDBDF8B1
:108070000400C00ABDF80810C90A48434109BDF808
:10808000040061F3CF200190BDF8040000F01F0050
:10809000BDF8081001F01F0148434109BDF8040074
:1080A00061F304000190BDF80400C0F34510BDF871
:1080B0000810C1F3451148438109BDF8040061F37C
:1080C0004A100190FF2C03D1BDF804100846CCE7FC
:1080D0002246DDE9010115F001FB0090BDF800101A
:1080E0000846C2E737B582B01546022D04DCBDF85C
:1080F0000C10084605B030BDBDF80C00C00ABDF834
:108100000810A0EBD124002C01DD204600E0002067
:10811000BDF8081060F3CF210291BDF80C00C0F348
:108120004510BDF80810C1F34511441A002C01DDBB
:10813000204600E00020BDF8081060F34A110291CB
:10814000BDF80C0000F01F00BDF8081001F01F0181
:10815000441A002C01DD204600E00020BDF8081084
:1081600060F304010291FF2D03D1BDF80810084609
:10817000C0E72A46DDE9020115F0B0FA0190BDF82A
:1081800004100846B6E708B5034600930098484037
:1081900080EA620008BD2DE9F84F8046404619F09C
:1081A000D5FC8246404619F070FC0646504620F049
:1081B00001F981462B2E09D1484627F0C6F804461E
:1081C00000222146484627F0CDF83AE00A2E38D161
:1081D0006946504620F070F9504620F026F80446D3
:1081E0000021484620F081FF01280AD1204604EBF7
:1081F000D071BDF90020C2EB610191FBF4F10DB229
:1082000009E0204604EBD071BDF9002002EB6101CA
:1082100091FBF4F10DB2002D00DA0025002748464D
:1082200027F093F8A84200D00127012229464846AA
:1082300027F098F827B100221C21484619F08CFC41
:1082400000BFBDE8F88F10B58060C06000230361F7
:10825000002110E0002400F1140343F82140002223
:1082600006E000F1440303EBC11343F82200521C63
:10827000202AF6DB491C0C29ECDB10BD014600204E
:1082800000E0401C31F9102041F6FF739A42F8D10A
:108290007047000010B500BF00224FF40071114874
:1082A000F9F738FF00BF00F021F800BF01220221DA
:1082B0000D48F9F72FFF00BF00F018F800BF0022AB
:1082C00002210948F9F726FF00BF00F00FF800BFB0
:1082D000012251020348F9F71DFF00BF00F006F824
:1082E00010BD0000001C0140000C014010B5022030
:1082F00000F0EEFA10BD000000B585B000BF00BF71
:108300001948806940F0080017498861084680696B
:1083100000F00800009000BF00BF00BF00BF00BF1A
:108320000846806940F0800088610846806900F056
:108330008000009000BF00BF00BF0220019011200C
:108340000290012003900320049001A90748F9F747
:108350002FFD4FF40070019001A90548F9F728FDA1
:1083600000F0BEF805B000BD00100240000C014056
:10837000001C014010B500BF012251020C48F9F762
:10838000C9FE00BFFFF7B2FF00BF0122022109486A
:10839000F9F7C0FE00BFFFF7A9FF00BF00220221CE
:1083A0000448F9F7B7FE00BFFFF7A0FF10BD0000BB
:1083B000001C0140000C014070B505460024002659
:1083C0001DE06006040E00BF012202211148F9F7EA
:1083D000A1FE00BFFFF78AFF4FF400710E48F9F7C6
:1083E00087FE08B1601CC4B200BF00220221094808
:1083F000F9F790FE00BFFFF779FF701CC6B2082E98
:10840000DFDB15B9FFF7B6FF01E0FFF743FF2046BA
:1084100070BD0000000C0140001C014070B5044616
:10842000002525E000BFE00928B1012251021548CE
:10843000F9F770FE05E000224FF400711148F9F7DA
:1084400069FE00BFFFF752FF00BF012202210E4864
:10845000F9F760FE00BFFFF749FF00BF00220221CD
:108460000948F9F757FE00BF6006040E681CC5B244
:10847000082DD7DB00BF012251020248F9F74AFE5E
:1084800000BF70BD001C0140000C014010B500BFD2
:10849000012251021048F9F73DFE00BF00BF012242
:1084A00002210E48F9F736FE00BFFFF71FFF00BF9D
:1084B00000224FF400710848F9F72CFE00BFFFF7C7
:1084C00015FF00BF002202210448F9F723FE00BF78
:1084D000FFF70CFF10BD0000001C0140000C014024
:1084E00010B500BF00224FF400710C48F9F712FEDE
:1084F00000BFFFF7FBFE00BF012202210848F9F789
:1085000009FE00BFFFF7F2FE00BF0122510203483F
:10851000F9F700FE00BFFFF7E9FE10BD001C0140A7
:10852000000C014070B50024002500BF012251025B
:108530001648F9F7EFFD00BFFFF7D8FE00BF012294
:1085400002211348F9F7E6FD00BFFFF7CFFE09E06F
:10855000601CC4B2FA2C03DDFFF7C2FF012508E05E
:10856000FFF7C4FE4FF400710848F9F7C1FD002879
:10857000EED100BF00BF002202210548F9F7CAFD75
:1085800000BFFFF7B3FE284670BD0000001C01408D
:10859000000C01407CB506460D4634465020005D77
:1085A00000F00100A84233D00DB1012000E000200E
:1085B0005021095D60F300015020015504F1440190
:1085C000684612F068FDBDF80000616A898A0844B7
:1085D00000B2ADF80000BDF80210606AC08A08441D
:1085E00000B2ADF80200BDF80400616A898A08444F
:1085F00000B2ADF80400BDF80610606AC08A0844F5
:1086000000B2ADF806006946304622F052F800BFCD
:108610007CBD37B582B0054614462146039814F058
:1086200093FE0190BDF80410084605B030BD2DE959
:10863000FF4F8DB005460E461446F07A022803DC43
:10864000012011B0BDE8F08F3089326901460C90ED
:108650001098FBF7BBFE07460FB90020F1E7397D04
:1086600001F01F001AF06DFC10B14FF006080AE08F
:10867000397D01F01F001AF047FC10B14FF00508DA
:1086800001E04FF00408386A38B100BF00BF21464E
:1086900028463A6A2BF0B0FDDEE0B869002859D0D0
:1086A00021460BA812F0B8FC308818B97088B0F5D4
:1086B000807F32D0204612F07FFD834600BFE088E5
:1086C0006188401A401C00B20890301D7188CDE9C5
:1086D0000010308803B259460BA8089AFBF7A0F99E
:1086E000BDF82C002188084400B2ADF82C00BDF87C
:1086F0002E006188084400B2ADF82E00BDF83000AD
:108700002188084400B2ADF83000BDF8320061881D
:10871000084400B2ADF8320000BF0BAA09A8A9684E
:10872000FAF788FE8146B9F1000F04D1384601F00E
:108730004AFE012085E7D5F808A009A8A860CDF871
:108740000080224631462846BB6916F071F8C5F80C
:1087500008A081E022460BA8A968FAF76BFE0A90F0
:108760000A9820B9384601F02EFE012069E70BA8CF
:1087700012F022FD09900BA812F01EFD00EB400044
:1087800003901DF0CBFB8146D5F808A00BA907A8E4
:1087900012F042FC012107A812F099FDBDF92C004E
:1087A000B4F90010401A0690BDF92E00B4F9021079
:1087B000A0EB010BBDF92E00059042E007AA51463F
:1087C00002A8FAF737FE0A900A9800B936E0CDF809
:1087D0000090099803B20FFA8BF2069801B238465E
:1087E0001BF0DCF80490049801280ED038461AF0EB
:1087F000F5FF00BF00BF48461DF00CFC384601F0F5
:10880000E2FDC5F808A000201BE702A8A8604B46BF
:1088100007AA31462846CDF8008016F009F8BDF8C1
:108820001E00401C00B2ADF81E00BDF82200401C26
:1088300000B2ADF822000BF1010B00BF0598401CFF
:108840000590BDF9321005988142B7DAC5F808A045
:1088500048461DF0DFFB00BF384601F0B4FD0120A3
:10886000EFE600BF00BF704770B5044600204FF030
:10887000E0210861FAF7E8F8E11704EB5171C1F360
:10888000CF010C4A1180E11704EB5171CD104FF468
:108890007A7045434FF0E020006940F002004FF04D
:1088A000E021086108464561006940F00100086167
:1088B00070BD00001000002030B50446002504E023
:1088C0004FF47A7000F004F86D1CA542F8D330BD67
:1088D00070B5034600224FF0E02675690D4E3688CC
:1088E00003FB06F44FF0E026B16910E04FF0E026FC
:1088F000B06988420BD0884202D20E1A324402E09C
:108900002E1A0E4432440146A24200D300E0EDE7A5
:1089100000BF70BD10000020F8B506460C46154695
:108920000095B4F90630B4F90420B4F90210B4F992
:1089300000000EF02AFA304615F03AFCF8BD10B5EA
:1089400010F074FC01200EF033F910BDF8B50546A7
:108950002C461BF027FB0646206B27F05BFB31689B
:10896000898B88422CD2606A009094F83C0000F019
:10897000030020B1012806D002280CD107E0002016
:10898000ADF8000007E064208DF8020003E06420E9
:108990008DF8030000BF00BF30461BF0C7FC28461F
:1089A000009915F09CFA50B100221C21284619F0BC
:1089B000D3F80746012F01D03846F8BD00BF00BFED
:1089C00027F035FB20630120F7E700002DE9FF5F6A
:1089D00082460C46934658462AF060FA0746002520
:1089E0007E1E3DE0062E00D105264FF0000834E043
:1089F0004FF000092CE0A6EB09000390701C012148
:108A000021EA50000290029818B1781EA0EB0800ED
:108A100000E0404601905846019A039909F0EEFFA4
:108A2000A0B9B5EBC40F11DA05F00702C2F10701D6
:108A30000AEBE502107809F0DAFF00905846DDE90C
:108A4000003203992BF0C8F96D1C00BF09F1010930
:108A5000B9F1020FCFDB08F10108B845C8DBB61E3B
:108A6000012EBFDAB5EBC40F00D105E040F252226F
:108A7000024903A0F7F73AFEBDE8FF9F08BF0408CC
:108A800069203D3D20646174614C656E202A203868
:108A9000000000002DE9F84F82460E469346002E56
:108AA00002DB072E00DC05E040F201224B494CA01E
:108AB000F7F71CFE534850F82A0046EAC00844461F
:108AC000002006E0611240F23752514381EA44042B
:108AD000401C0A28F6DB44EA882045F2124180EA6D
:108AE00001094FEAE93000B905E04FF402723B4951
:108AF00045A0F7F7FBFD00270BE03946484609F093
:108B000076FF03463A460821009058462BF064F958
:108B10007F1C052FF1DD0621484609F068FF074656
:108B20003B460722082158462BF056F907214846B4
:108B300009F05DFF07463B460822114658462BF0D8
:108B40004BF90821484609F052FF07463B460822E8
:108B5000072158462BF040F909270CE039464846D2
:108B600009F045FFC7F10E01034608220090584660
:108B70002BF032F97F1C0F2FF0DB58462AF08EF9CC
:108B8000054600270CE03946484609F030FF0090C2
:108B9000681EC11B08225846009B2BF01DF97F1C44
:108BA000082FF0DB08270DE03946484609F01FFF83
:108BB0000090A5F10F00C21908215846009B2BF028
:108BC0000BF97F1C0F2FEFDBA5F108020123082111
:108BD00058462BF001F9BDE8F88F000008BF0408E3
:108BE00030203C3D2028696E74296D61736B20260E
:108BF000262028696E74296D61736B203C3D2037F7
:108C000000000000C08B040862697473203E3E209F
:108C10003135203D3D2030002DE9F34F83B00F4624
:108C200003982AF03BF9804607240CE000232246F3
:108C3000062103982BF0D0F8002306222146039842
:108C40002BF0CAF8A41CA8F10700A042EEDC6FF0DC
:108C5000030435E06FF003052FE0281E01DB014619
:108C600000E041428946201E01DB014600E041420E
:108C7000494505DD201E01DB014600E041428946F1
:108C8000B9F1020F02D0B9F1040F15D1E21CE91CB1
:108C9000002303982BF0DAF8E21CA8F10400411934
:108CA000002303982BF0D2F8A8F104000219E91C64
:108CB000002303982BF0CAF86D1C042DCDDD641C35
:108CC000042CC7DD01A9384609F069FE06460024D8
:108CD00036E0002531E004B93DB114B9701EA84258
:108CE00003D0701EA04201D105B925E04FF0FF3935
:108CF0001EE04FF0FF3A16E0BAF1000F04D1B9F1CF
:108D0000000F01D1012000E00020034601A8405DD2
:108D100000EB090201A8005D00EB0A0103982BF0AB
:108D20005BF80AF1010ABAF1010FE5DD09F1010969
:108D3000B9F1010FDDDD00BF6D1CB542CBDB641C5A
:108D4000B442C6DB072F38DBB946002007E04FEA04
:108D5000E92141F62572514381EA4909401C0C285A
:108D6000F5DB49EA0734A01400B905E040F2ED1242
:108D7000134914A0F7F7BAFC00251BE04FF0000AD6
:108D800014E0A8F10B0000EB0A0B04F001032A46E3
:108D9000594603982BF020F804F001035A4629465F
:108DA00003982BF019F864100AF1010ABAF1030FC5
:108DB000E7DB6D1C062DE1DB00BF05B0BDE8F08FE1
:108DC00008BF040862697473203E3E203138203D9C
:108DD0003D2030002DE9F04F9BB0074689461646EE
:108DE000BA4617A815F0A1FA4FF4A021384620F092
:108DF0001FF99DF8691060F382018DF86910304603
:108E000012F012FA054600EBD5704FEA6008308880
:108E1000404400B2ADF858007088404400B2ADF84C
:108E20005A000021384620F0B6FA1590494603A8AA
:108E30001EF010FF17A80B904FF40030109033482D
:108E40000490002005900AF13000FBF7BBFD0446BA
:108E500057E02079032800D04DE0208BADF85C006E
:108E6000208A00B2ADF85E006079FD2801DD15981A
:108E700003E060791599484300128DF86800256871
:108E8000B5F92000E98B08440090B5F92030D5E908
:108E90000512A0681CF0F4FF8346B5F92000E98BA9
:108EA00008440090B5F92030D5E90512E0681CF0BF
:108EB000E7FF0290608B404400B2ADF84800149484
:108EC00016A80C9003AA1A21384618F045FE0298FD
:108ED00080B21FFA8BF1CDE90010BDF8480083B2D3
:108EE00016AA17A9484615F002FA03AA1B2138460C
:108EF00018F032FE00BF21460AF13000FBF75CFD9E
:108F00000446002CA5D11BB0BDE8F08FE0DF0308BC
:108F100070B504460D4600222946204607F07EFE25
:108F200001222946204607F079FE022229462046E2
:108F300007F092FC04222946204607F08DFC70BD04
:108F40002DE9F74F9EB00C46E078022802DC21B0F4
:108F5000BDE8F08F1CA8209912F070F8B4F9200039
:108F600001282EDD94F82200FD282ADB208840B35A
:108F7000BDF8700014F8231F4908C1F380010844AC
:108F800000B2ADF87000BDF8720021784908C1F355
:108F90004001084400B2ADF87200BDF874002178B9
:108FA0004908C1F3C001401A00B2ADF87400BDF821
:108FB000760014F82319C1F34001401A00B2ADF84D
:108FC00076001E981CA982681AA8FAF733FA00B92D
:108FD000BDE7E07B00F0070616B9A088199001E014
:108FE000E0881990BDF864106089814200D10026A4
:108FF0001CA816F083FB18901C2111A8F7F7DCFCC5
:10900000A0788DF85D00BDF86400ADF84C001898AC
:1090100060B9208850B94EB91CA81190E0788DF83D
:109020005C0011A91E9817F019FA90E7E078FD2866
:1090300001DBFF2000E0E07810901CA812F0E6F8B9
:109040000F901CA812F05AF80E90DDE90E01814233
:1090500001DA0F9800E00E980D90B4F900100D9809
:10906000B1EB600F02DAB4F9000001E00D98401096
:1090700007461AA812F0CAF881464FF0FF300C904C
:1090800000200B90002F01DC189870B148461CF0AE
:1090900045FF0B9000233AB21CA905A816F0A6FEC6
:1090A000002105A816F024F80C90BDF86800ADF872
:1090B0000C00BDF86C00ADF810000B98149003A8DC
:1090C00011901690FF208DF85C00A01DDDE90E21A7
:1090D00019F062F98046B8F1000F0CD0022E0AD1C7
:1090E000BDF96810D8F8080000EB4100BDF9701018
:1090F000A0EB410012901898A0B3BDF96A502CE083
:1091000028B2ADF80E0028B2ADF812004A46109908
:109110000B981DF072F9BDF968100FFA89F32AB2A5
:109120000B9816F09BFA8DF854009DF85400012816
:1091300002D102208DF85400012E09D1BDF9721020
:10914000691AD8F8080000EB41000088ADF84C001F
:1091500011A91E9817F082F96D1CBDF96E00A84286
:10916000CEDACCE0FFE700255CE0BDF872002844D1
:109170000FFA80FABDF87600401B0FFA80FBBDF9AC
:109180006A00504504DDBDF96E00584500DA48E03C
:109190004A4610990B981DF030F9BDF90C100FFAE2
:1091A00089F352460B9816F059FA8DF854009DF841
:1091B0005400012802D102208DF85400BDF96A0044
:1091C000504514DCADF80EA0ADF812A0012E0AD166
:1091D000BDF97210AAEB0101D8F8080000EB4100BC
:1091E0000088ADF84C0011A91E9817F037F9BDF9A9
:1091F0006E00584514DBADF80EB0ADF812B0012E7C
:109200000AD1BDF97210ABEB0101D8F8080000EBF0
:1092100041000088ADF84C0011A91E9817F01EF906
:1092200000BF6D1CBD42A0DBBDF87000ADF80400AE
:10923000BDF87400ADF80800BDF87200384400B203
:10924000ADF80600BDF87600C01B00B2ADF80A000C
:1092500001A816F053FA00900098B0B9AEB9BDF865
:109260007200384400B2ADF80E00BDF87600C01BA5
:1092700000B2ADF8120010988DF85C000020149038
:1092800011A91E9817F0EAF838E010988DF85C00E4
:1092900001208DF85400BDF97600A0EB070ABDF956
:1092A0007200C51927E0009870B14A4610990B98D2
:1092B0001DF0A3F8BDF968100FFA89F32AB20B98D4
:1092C00016F0CCF98DF8540028B2ADF80E0028B293
:1092D000ADF81200012E09D1BDF97210691AD8F843
:1092E000080000EB41000088ADF84C0011A91E9861
:1092F00017F0B4F86D1C5545D5DD00BF00BF0B98C5
:1093000010B10B981CF086FE0C98401C28B10C98EC
:1093100016F054FE05A816F0CDF9B8F1000F02D0F2
:10932000404619F030F800BF11E62DE9F0478EB045
:1093300007460C461546206910B90EB0BDE8F08707
:10934000A07E022800DCF8E720691AF0CBFD064673
:10935000022E55D1002041F6FF71CDE900010290A7
:1093600003460DA8D4E9041227F04CFA284611F060
:109370004DFF814600EBD970298801EB6000BDF9F3
:10938000348008EBD871A0EB610000B2ADF82C007E
:10939000BDF82C00BDF834100844401E00B2ADF8F2
:1093A0003000284611F0AAFE814600EBD97069888A
:1093B00001EB6000BDF9368008EBD871A0EB6100CD
:1093C00000B2ADF82E00BDF82E00BDF836100844EE
:1093D000401E00B2ADF8320003A815F011FE60691E
:1093E0000390208BADF81800A07E8DF82600002099
:1093F00000900BAA03A93846236915F04DFAAEE098
:109400000DA920691AF016FA8046B8F1010F02D0B2
:1094100000BF00BF91E707A815F021FAA0788DF8EA
:109420002800208BADF82400E07E8DF82600A07E79
:109430008DF82700207FE8BB284611F0E7FE824622
:1094400000EBDA70298801EB60000D99C1F38A29DD
:1094500009EBD971A0EB610000B2ADF81400284609
:1094600011F04CFE824600EBDA70698801EB600077
:109470000D994FEA515909EBD971A0EB610000B287
:10948000ADF81600BDF814000D99C1F38A21084407
:10949000401E00B2ADF81800BDF816000D9900EBA3
:1094A0005150401E00B2ADF81A0005AA07A938466F
:1094B000236900E002E015F083F94FE06888ADF819
:1094C0001600BDF816000D9900EB5150401E00B279
:1094D000ADF81A003BE02888ADF81400BDF8140080
:1094E0000D99C1F38A210844401E00B2ADF818005E
:1094F00017E005AA07A93846236915F061F9BDF8F8
:1095000014000D99C1F38A21084400B2ADF814008B
:10951000BDF818000D99C1F38A21084400B2ADF8D6
:109520001800BDF91400B5F904108842E1DDBDF85A
:1095300016000D9900EB515000B2ADF81600BDF8C1
:109540001A000D9900EB515000B2ADF81A00BDF9A8
:109550001600B5F906108842BDDD00BF00BF00BF90
:10956000EBE62DE9F04F87B083460C46164694F89B
:109570002200022802DC07B0BDE8F08F208C00B981
:10958000F9E794F82300C0F3440000B9F3E794F836
:10959000230000F0010000B1EDE7304611F036FE87
:1095A0008146304611F0AAFD0746B4F90050B9458E
:1095B00001DA484600E038468246B5EB6A0F01DD25
:1095C0004FEA6A05314605A811F038FDBDF91410BF
:1095D00094F82300400800F0040010B1B4F9200012
:1095E00003E0B4F9200028444042084400B2ADF83A
:1095F0001400BDF9181094F82300400800F008008A
:1096000010B1B4F9200003E0B4F92000284440422E
:10961000081A00B2ADF81800BDF9161094F823002E
:10962000400800F0020010B1B4F9200003E0B4F9E2
:10963000200028444042084400B2ADF81600BDF9AD
:109640001A1094F82300C0F3400010B1B4F92000C0
:1096500003E0B4F9200028444042081A00B2ADF8F3
:109660001A00208C281A0FFA80F8B8F1000F01DADE
:109670004FF00008A07894F82210CDE90210E08B9A
:10968000ADF804002BB205AA31465846CDF800804B
:1096900000F002F800BF6EE72DE9FF4FA3B00D46C2
:1096A00016461F463298FF2801DBFF2000E0329863
:1096B0003290284616F022F82290229868B967B9AD
:1096C000309850B93298009032462946319B239801
:1096D00000F0A9FA27B0BDE8F08F239829468268E8
:1096E00020A8F9F7A7FE00B9F4E720A811F08EFD35
:1096F00081461C2119A81CF0BAFE48461CF00EFC3D
:109700001C904FF0FF301890002F0ADD00233A46DE
:10971000294612A816F06AFB002112A815F0E8FCF1
:109720001890012331460CA8309A16F05FFB0021F7
:109730000CA815F0DDFC0B9009A819901E90BDF83F
:10974000C400ADF86C0032988DF87C0033988DF829
:109750007D00B5F900003844B6F90010884203DDF9
:10976000B5F90000384401E0B6F9000000B2ADF8E8
:109770001C00B5F90400C01BB6F90410884203DAD6
:10978000B5F90400C01B01E0B6F9040000B2ADF861
:109790002000B5F902003844B6F90210884203DD12
:1097A000B5F90200384401E0B6F9020000B2ADF8A4
:1097B0001E00B5F90600C01BB6F90610884203DA90
:1097C000B5F90600C01B01E0B6F9060000B2ADF81D
:1097D000220007A811F01AFD0690B5F90200B6F9AB
:1097E0000210884201DC012000E000208246B5F929
:1097F0000600B6F90610884201DB012000E00020D7
:109800008346229800284CD0BDF88000ADF8240093
:10981000BDF88400ADF82800BDF9824029E0BAF116
:10982000000F04D1BDF91E00A04200DD20E0BBF115
:10983000000F04D1BDF92200A04200DA1DE020B2E1
:10984000ADF8260020B2ADF82A0049461C981CF05D
:1098500045FEBDF980100FFA89F322B21C9815F06D
:10986000FDFE8DF8740019A9239816F0F7FD00BFCE
:10987000641CBDF98600A042D1DA00BF0CA815F027
:1098800019FF0B9816F09AFB1898401C28B112A8E3
:1098900015F010FF189816F091FB1C981CF0BAFBFD
:1098A00018E7B5F90000B6F90010884201DC012084
:1098B00000E000200590B5F90400B6F904108842D4
:1098C00001DB012000E000200490012003900598B6
:1098D00060B1049850B1BAF1000F07D0BBF1000F8E
:1098E00004D00698322801DA0020039001208DF878
:1098F0007400BAF1000F15D0039898B1BDF81C00A0
:10990000ADF82400BDF82000ADF828006888ADF857
:1099100026007088401E00B2ADF82A0019A92398CD
:1099200016F09CFDBBF1000F15D0039898B1BDF85F
:109930001C00ADF82400BDF82000ADF82800F08828
:10994000401C00B2ADF82600E888ADF82A0019A93D
:10995000239816F083FD059898B12888ADF8240067
:109960003088401E00B2ADF82800BDF81E00ADF8EA
:109970002600BDF82200ADF82A0019A9239816F098
:109980006DFD049898B1B088401C00B2ADF8240079
:10999000A888ADF82800BDF81E00ADF82600BDF877
:1099A0002200ADF82A0019A9239816F057FD039854
:1099B000F0BBBDF88000ADF82400BDF88400ADF820
:1099C0002800B5F90200B6F90210401AB84201DACF
:1099D000384604E0B5F90200B6F90210401A00B2A8
:1099E0000290002442E06888204400B20190E88898
:1099F000001B00B20090BDF982100198814205DD84
:109A0000BDF986100098814200DA2EE049461C9884
:109A10001CF064FDBDF924100FFA89F3019A1C981B
:109A200015F01CFE8DF87400BDF98210019800E05D
:109A300020E0814209DC0198ADF826000198ADF8DC
:109A40002A0019A9239816F009FDBDF9861000987F
:109A5000814209DB0098ADF826000098ADF82A0095
:109A600019A9239816F0FAFC00BF641C02988442DE
:109A7000B9DBC7E0BDF88000ADF82400BDF9841063
:109A8000BDF91C00401E814202DABDF9840002E0EB
:109A9000BDF91C00401E00B2ADF8280009A811F065
:109AA000B5FB8046B8F1000F48DD059810B9BAF152
:109AB000000F1ED0BDF9824017E020B2ADF826009D
:109AC00020B2ADF82A0041461C981CF007FDBDF9F4
:109AD0002410434622B21C9815F0C0FD8DF8740086
:109AE00019A9239816F0BAFC641CBDF91E00A04207
:109AF000E3DC059810B9BBF1000F1FD0BDF92200BF
:109B0000441C17E020B2ADF8260020B2ADF82A00C0
:109B100041461C981CF0E2FCBDF92410434622B2D9
:109B20001C9815F09BFD8DF8740019A9239816F068
:109B300095FC641CBDF98600A042E3DABDF98010F3
:109B4000BDF92000401C814202DDBDF9800002E029
:109B5000BDF92000401C00B2ADF82400BDF884001F
:109B6000ADF8280009A811F051FB8046B8F1000FAC
:109B700048DD049810B9BAF1000F1ED0BDF982403B
:109B800017E020B2ADF8260020B2ADF82A00414619
:109B90001C981CF0A3FCBDF92410434622B21C986B
:109BA00015F05CFD8DF8740019A9239816F056FC89
:109BB000641CBDF91E00A042E3DC049810B9BBF19F
:109BC000000F1FD0BDF92200441C17E020B2ADF8F1
:109BD000260020B2ADF82A0041461C981CF07EFCFD
:109BE000BDF92410434622B21C9815F037FD8DF8BC
:109BF000740019A9239816F031FC641CBDF9860085
:109C0000A042E3DA0CA815F055FD0B9816F0D6F932
:109C100012A815F04FFD189816F0D0F91C981CF0FA
:109C2000F9F900BF56E52DE9FF4F89B080460C4693
:109C30001546DDF858901C2168461CF018FC07A852
:109C40000090BDF83000ADF808008DF81890B4F918
:109C50000200B5F90210884201DC012000E000207A
:109C60000646B4F90600B5F90610884201DB01206A
:109C700000E000200746B4F90000B5F90010884262
:109C800001DC012000E000208246B4F90400B5F9AF
:109C90000410884201DB012000E000208346208878
:109CA000ADF81C00A088ADF820006088ADF81E005B
:109CB0006888401E00B2ADF822001EB169464046D9
:109CC00016F0CCFBE888401C00B2ADF81E00E0881E
:109CD000ADF822001FB16946404616F0BFFB208850
:109CE000ADF81C002888401E00B2ADF8200016B167
:109CF000B5F9020001E0B4F90200ADF81E0017B199
:109D0000B5F9060001E0B4F90600ADF82200BAF199
:109D1000000F03D06946404616F0A0FBA888401CFF
:109D200000B2ADF81C00A088ADF82000BBF1000F18
:109D300003D06946404616F091FB0DB0BDE8F08FA8
:109D40002DE9FF4F93B00746904699464FF6FF70B6
:109D5000804502D117B0BDE8F08F3E46746A208C72
:109D60001290208C484506D0A4F82090608C20F0FA
:109D70000400001D60844FF4802120461FF00BFF7B
:109D800011904FF4802120461FF075FF0546119871
:109D900018F056F88246384609F03DFD8346BBF878
:109DA0001600ADF83E00BDF93E000AEB050108FBC8
:109DB000010000B2ADF83E00284605EBD071BDF8B9
:109DC0003E20A2EB610109B2ADF83E10BDF83E00A5
:109DD00050442844401E00B2ADF84200706A808AA8
:109DE000ADF83C00706A008BADF8400001A816F099
:109DF00013F901AA4FF48021204620F071FA0FAA2E
:109E000001A9149816F0ECF812982084608C20F0C8
:109E10000400608400BF9DE72DE9F04F91B0074634
:109E20000D46904699464FF6FF70804502D111B01D
:109E3000BDE8F08F1097109F7C6A208C0F90208CCB
:109E4000484506D0A4F82090608C20F00400001D46
:109E5000608407A815F0D4F807AA4FF480212046A3
:109E600020F063F94FF4802120461FF004FFADF885
:109E70002E00384609F0CFFC064606B9D7E707980A
:109E800017F0DEFF8246F08AADF81600BDF9160025
:109E9000BDF92E10514408FB010000B2ADF81600C8
:109EA000BDF92E0000EBD071BDF81620A2EB6101C8
:109EB00009B2ADF81610BDF816005044BDF82E10CA
:109EC0000844401E00B2ADF81A00A08AADF8140094
:109ED000208BADF8180005AA03A8A968F9F7AAFA1B
:109EE0008346BBF1000F13D0A868029003A8A860B6
:109EF00030461AF0CBFF01900020009006F11402CA
:109F000007A92846019B14F0C7FC0298A86000BF6F
:109F10000F982084608C20F00400608400BF86E7E6
:109F20002DE9F04105463548006814F05BF9044618
:109F30002868866BF06A10B13046F16A884720685D
:109F400090B1606880B10CE02C4800680068806ABD
:109F500038B12A4A12681068284A12681268916A51
:109F6000884720690028EFD101202061234800683C
:109F70000068C068806900F0010050B11F480068A7
:109F80000068C0688069C0F3400010B101206061C2
:109F900001E000206061606908B1012000E000205C
:109FA00007462868406998B12868007CC0F3011012
:109FB00048B12868007CC0F3800020B1D6E90010C9
:109FC00000F01EF804E0D6E900212868FDF720FB28
:109FD000206880B1606870B12868007C00F00100E2
:109FE00000B147B12168A068884202D16068A060D2
:109FF00001E02068A060BDE8F08100004C01002075
:10A000002DE9F34F83B00446884800680568874807
:10A0100000680068007CC0F3400040B1287CC0F3B9
:10A02000800020B100BF00BF05B0BDE8F08F287CE4
:10A03000C0F3011002280AD121462846049A00F0F4
:10A0400004F921462846049AFDF7E2FAEBE0287C61
:10A05000C0F30110012804D0287CC0F301100328AC
:10A06000F4D1002002907148006814F0BBF88246D9
:10A07000204611F09AF80646204611F023F8834650
:10A080004FF4A050B0FBF6F000B2584505DA4FF49B
:10A09000A050B0FBF6F000B200E058460190B4F9D1
:10A0A0000280287CC0F3011001280BD16888218828
:10A0B000401A401E00B2E080E088801B401C00B2C5
:10A0C000608006E02088608060883044401E00B2D6
:10A0D000E08000279EE0ABEB07010198814201DDA3
:10A0E000019801E0ABEB07000FFA80F90120CAF8F4
:10A0F000100047BBB34526DBB146297CC1F30111F3
:10A10000032901D1012100E0002108463146049ACB
:10A1100000F00FF9287CC0F30110012807D1A4F842
:10A12000008008EB0600401E00B2A0803FE02888B7
:10A13000401EA0EB080000B2A080A088801B401C3D
:10A1400000B2208033E0029820B94FF420501BF079
:10A15000E5FE029002980090297CC1F301110329C9
:10A1600001D1012100E0002108464A463146049B06
:10A1700000F0B2F8287CC0F3011001280AD108EBE6
:10A18000070000B2208008EB07004844401E00B2E0
:10A19000A0800CE02888401EA0EB0800C01B00B285
:10A1A000A080A088A0EB0900401C00B2208007EB33
:10A1B000090058450DDBDAF8180000F0010040B145
:10A1C000DAF81800C0F3400018B10120CAF81400F2
:10A1D00002E00020CAF81400029808B9049800E0D0
:10A1E0000298024621462846FDF712FA04E0A86AC2
:10A1F00010B12846A96A8847DAF810000028F6D17D
:10A2000006FB09F1049800EB4100049007EB0900FC
:10A2100007B200BF5F45FFF65EAF029810B102982B
:10A220001BF0F8FE00BF00BFFEE600004C0100205E
:10A2300018B5048800940C88048014880C801C884D
:10A240001480BDF800401C8018BD2DE9FC5F054658
:10A250000C461646204610F0A8FF8246204610F015
:10A2600031FF83460AFB0BF001900198471E4FF027
:10A27000000811E006EB47000088009006EB47005D
:10A2800006EB48010988018006EB4800BDF8001084
:10A2900001807F1E08F101084745EBD8B4F906900C
:10A2A00068886188401A401E00B2E0806888A0EB90
:10A2B0000900401E00B26080B4F90490288821880B
:10A2C000401A401E00B2A0802888A0EB0900401E62
:10A2D00000B22080BDE8FC9F2DE9F04704461D46F2
:10A2E000089F01FB02F0A0F1010C481E00FB02F8E0
:10A2F00000231AE008EB03000CB1ACEB00000026D1
:10A300000FE0A946AD1C07EB400AB9F80090AAF887
:10A3100000900CB1104400E0801A06F101090FFA18
:10A3200089F68E42EDDB581C03B29342E2DBBDE8B6
:10A33000F0872DE9F04782460C46154600263BE0A3
:10A34000002731E0601E801B0FFA80F8601EC01BE2
:10A350000FFA80F9BAF1000F12D007FB048C05EB5D
:10A360004C0308FB049C05EB4C0209FB046C05EB59
:10A370004C0106FB047C05EB4C00FFF759FF11E094
:10A3800009FB046C05EB4C0308FB049C05EB4C0239
:10A3900007FB048C05EB4C0106FB047C05EB4C0031
:10A3A000FFF746FF781C07B2601C00EBD071B7EBDB
:10A3B000610FC7DB701C06B204EBD471B6EB610F02
:10A3C000BEDBBDE8F08710B50446204619F006FA5A
:10A3D00010BD00002DE9F14F9EB01E9817F0B6FB9E
:10A3E00005462C461E9817F058FB1D90606A1AF01F
:10A3F0004DFD07465020005D00F0010010B91FB070
:10A40000BDE8F08F0FA815F007FE0FAA4FF4E0216A
:10A4100028461FF065FF04F144010DA810F03BFE33
:10A42000BDF83400616A898A084400B2ADF834008E
:10A43000BDF83610606AC08A084400B2ADF8360034
:10A44000BDF83800616A898A084400B2ADF8380066
:10A45000BDF83A10606AC08A084400B2ADF83A000C
:10A460000DAA0FA91D9815F0BBFD4FF4E021284659
:10A470001EF0D6FE06464FF4E02128461FF038F9BC
:10A4800030440FFA80F84FF4E02128461FF0A9FA73
:10A4900030440FFA80F900200B900C90E16CC81941
:10A4A0001F49096888478246E06CC11952460BA8CB
:10A4B0001BF04FFEBDF83400404400B2ADF834004C
:10A4C000BDF83600484400B2ADF836004FF0000B3E
:10A4D000D4F824A040F25742594650461FF08EFA55
:10A4E000019001980A9002A814F08AFD02AA4FF484
:10A4F000E02128461FF019FE9DF83F00022805DCE8
:10A50000BDF81400BDF82810884207D000200BAB1E
:10A510000DAA02A900901D9814F0BEF900BF6EE7C5
:10A52000CC0200202DE9F04FBDB005460E4600BF1D
:10A5300000BFAB460BF13000FAF792FA10B13DB014
:10A54000BDE8F08F05F114023BA8B168F8F772FF7F
:10A5500000B9F4E7B0683A903BA8B06035A814F0B1
:10A560009BFD35AA4FF4E02128461FF045FE27A8A1
:10A5700015F052FD9DF8DC008DF89F0047F6FF7046
:10A58000ADF89C004FF4E02128461FF02AFC074656
:10A5900000EBD7704FEA60094FF4E02128461FF026
:10A5A00020FC074600EBD7704FEA600A314604A84A
:10A5B0001DF050FB24A80A9016A808904FF4E02044
:10A5C000119069480590052006900BF13000FAF7CC
:10A5D000F9F90446C0E00A2235A924A81BF0B9FD08
:10A5E000382227A916A81BF0B4FDE088ADF890002A
:10A5F000E088ADF85C0039A80D9038A80E90607B1B
:10A6000000F0010020B1B4F90070B4F9028010E04C
:10A61000A08847F6FF71884200D197E0A28801AB7D
:10A620002846A16812F056FABDF90470BDF90680FB
:10A6300000BFA88A384407B2E88A40440FFA80F87D
:10A64000B9F1000F19D0BAF1000F16D0A7EB09002D
:10A6500000B2ADF8080007EB090000B2ADF80C003D
:10A66000A8EB0A0000B2ADF80A0008EB0A0000B23D
:10A67000ADF80E0002A8079001E000200790207BB3
:10A6800000F0030070B3207B00F0010010B1B5F9B9
:10A69000140000E03846ADF8E400ADF8E680207B19
:10A6A00000F0020010B1B5F9180000E03846ADF82E
:10A6B000E000BDF8E600ADF8E20004AA1A21284641
:10A6C00017F04AFA38AB39AA24A9304614F0CDFC69
:10A6D00002AA16A9304615F083FC04AA1B212846BD
:10A6E00017F03AFA207B00F00C0070B3ADF8E4707C
:10A6F000207B00F0040010B1B5F9160000E04046E0
:10A70000ADF8E600BDF8E400ADF8E000207B00F015
:10A71000080010B1B5F91A0000E04046ADF8E200BB
:10A7200004AA1A21284617F017FA38AB39AA24A927
:10A73000304614F09AFC02AA16A9304615F050FCD7
:10A7400004AA1B21284617F007FA00BF21460BF187
:10A750003000FAF731F90446002C7FF43CAF3A9808
:10A76000B06000BFEBE60000A8DA03082DE9F14F66
:10A770009AB01A9817F0EAF904461A9817F08DF96A
:10A78000199020461FF061FB074620461DF0C2FDD0
:10A79000834607EBD771A28A02EB610109B21891D7
:10A7A0000BEBDB714A10E18A114409B2179107EBF8
:10A7B000D7714E1014A814F06FFC14AA0021204683
:10A7C0001FF01AFD4FF41D707043552190FBF1F0FE
:10A7D000642190FBF1F000B2ADF85200BDF85200D8
:10A7E000801C00B2ADF852000020139000212046DA
:10A7F0001EF02DFC0546002347F6FF7204F11401FC
:10A800000DA815F0F3FA00210DA814F071FC0C90BE
:10A8100000BFA08AADF82800E08AADF82A00208B9E
:10A82000ADF82C00608BADF82E0000BFBDF82800FD
:10A83000284400B2ADF82800BDF82C00401B00B23F
:10A84000ADF82C00BDF82A00284400B2ADF82A006B
:10A85000BDF82E00401B00B2ADF82E00012347F6D4
:10A86000FF720AA904A815F0C1FA002104A814F087
:10A870003FFC0390BDF952804FF0000A4FE0514673
:10A880002046FBF78BFB0090BDF80000ADF85000B0
:10A890001398C0F30F290FFA89F025F0C5FE06EBD7
:10A8A00008014843189901EBE03000B2ADF804000C
:10A8B0000FFA89F025F0A8FE06EB08014843179926
:10A8C00001EBE03000B2ADF806000FFA89F025F098
:10A8D000ABFE711BA1EB08014843189901EBE03076
:10A8E00000B2ADF808000FFA89F025F08DFE711B5B
:10A8F000A1EB08014843179901EBE03001B2ADF834
:10A900000A1002AB01AA14A9199814F0AEFB0AF1BF
:10A9100003001FFA80FA139800F587601390BAF5C8
:10A92000807FACDD0DA814F0C5FE04A814F0C2FEB3
:10A930000C9815F043FB039815F040FB1BB0BDE8E5
:10A94000F08F00002DE9F04FA5B004460F462546D4
:10A9500004F1140123A8BA68F8F76CFD229022983C
:10A9600010B925B0BDE8F08FB868219023A8B86071
:10A97000002120461EF02DFC1E90002120461EF0D6
:10A9800042FE01461E98084400B21D900021204658
:10A990001EF0A5FF01461E98084400B21C902046F8
:10A9A0001DF043FC7E35E9884843001200B21B903D
:10A9B00020461DF01BFC29894843001200B21A9062
:10A9C00017A814F069FB17AA002120461FF014FCF9
:10A9D000394605A81DF03EF9002012908C480690DB
:10A9E0000020079017A80B904FF0FF301390002025
:10A9F0000E900F9005AA1A21204617F0ADF80020FE
:10AA000001903122204601991EF0F8FF0090009835
:10AA100000F0FF0B00BF002120461EF0DAFB04907F
:10AA2000002001903322204601991EF0E7FF00909C
:10AA3000009800F0FF0800BF20461DF061FD039064
:10AA400020461DF057FE029035F87E09002865D09B
:10AA5000E18A1C9801440298081A00B20190A08A69
:10AA6000ADF88000208BADF87C004FF00009B5F800
:10AA70007E000FFA80FABBF1020F1ADD049800285D
:10AA800017DD08F0020040B1002120461EF027FF2C
:10AA900018B909F101000FFA80F908F0010040B17E
:10AAA000002120461EF0D2FC18B9AAF101000FFACD
:10AAB00080FA4E462FE01A987043B5F87E10491E72
:10AAC00090FBF1F000B2ADF88200BDF88210019861
:10AAD000084400B2ADF88200BDF88200ADF87E00F7
:10AAE0004B4806900120079020A80E901FA80F90B9
:10AAF000139605AA1A21204617F02EF81FAB20AA9C
:10AB000017A9384614F0B1FA05AA1B21204617F000
:10AB100023F8701C06B25645CDDB00BFB5F88000A7
:10AB2000002865D0A18A1D9801440398081A00B234
:10AB30000190E08AADF88200608BADF87E004FF0A6
:10AB40000009B5F880000FFA80FABBF1020F1ADD98
:10AB50000498002817DD08F0040040B100212046C9
:10AB60001EF051FD18B909F101000FFA80F908F043
:10AB7000080040B1002120461EF0EEFD18B9AAF1F0
:10AB800001000FFA80FA4E462FE01B987043B5F88B
:10AB90008010491E90FBF1F000B2ADF88000BDF8C6
:10ABA00080100198084400B2ADF88000BDF8800024
:10ABB000ADF87C00164806900220079020A80E9061
:10ABC0001FA80F90139605AA1A21204616F0C4FF5D
:10ABD0001FAB20AA17A9384614F047FA05AA1B2173
:10ABE000204616F0B9FF701C06B25645CDDB00BFFB
:10ABF0004FF0FF30139000200E900F9005AA1B21FC
:10AC0000204616F0A9FF2198B86000BFA9E6000011
:10AC1000A8DA03082DE9F14F9AB01A9816F035FF1B
:10AC200007461A9816F092FF05462C46122F7DD142
:10AC30001A9816F088FF06463078022802D11BB019
:10AC4000BDE8F08F94F8380000F00300032805D029
:10AC500094F8380000F00300022802D1012030707F
:10AC6000EDE794F83800C0F38400042808D094F885
:10AC70003800C0F38400012802D001203070DEE7E4
:10AC80004FF0000A4622514628461EF0B7FE1990A2
:10AC90001998C0B2FF2802D001203070CFE7002100
:10ACA00028461FF029F88146208E8144B9F1000F13
:10ACB00002D001203070C2E7002128461FF05DF865
:10ACC0008046E08E00FB08F04FEA20281A9816F024
:10ACD0003AFF8346B8F5807F09D1002205F11401BF
:10ACE0005846F8F7E8FBE8BB01203070A7E7284694
:10ACF0001DF010FB824628461FF0A7F8179004F1BC
:10AD000032001FFA88F100235246CDE9001018A83E
:10AD10001799F8F785FEBDF86000A98A084400B2CB
:10AD2000ADF86000BDF86210E88A00E01DE008445C
:10AD300000B2ADF86200BDF86400A98A084400B210
:10AD4000ADF86400BDF86610E88A084400B2ADF8BA
:10AD50006600002218A95846F8F7ADFB18B9012083
:10AD600030706CE700E000BF19E2152F01D0182FFA
:10AD7000FAD1002128461FF000F88046E08E00FB43
:10AD800008F04FEA2028002128461EF0B5FF824631
:10AD9000208E824428461FF058F8199028461DF04E
:10ADA000B9FA1890002641F23202314628461EF0C8
:10ADB00025FE0E900E9800B2814600BF41F61202A9
:10ADC000314628461EF01AFE0E900E9848440FFA9F
:10ADD00080FB00BF41F61302314628461EF00EFEEE
:10ADE0000E900E98484400B2179000BF41F6100232
:10ADF000314628461EF002FE0E900E98484400B2DE
:10AE0000169000BF41F61102314628461EF0F6FDAD
:10AE10000E900E98484400B21590608E584400B2CF
:10AE2000ADF85000A18E1698084400B2ADF852005B
:10AE300094F8390000F00300012804D112A9284633
:10AE40001DF012FA27E014A91FFA88F00FFA8AF30E
:10AE5000CDE9000112A8DDE91821F8F7E1FDBDF800
:10AE60004800A98A084400B2ADF84800BDF84A106D
:10AE7000E88A084400B2ADF84A00BDF84C00A98A3F
:10AE8000084400B2ADF84C00BDF84E10E88A084402
:10AE900000B2ADF84E0005F1140110A810F0E9F869
:10AEA00012A905F1140010F0E4F8BE481A991DF03B
:10AEB000F7F80F900F98012800D0C0E610A905F10F
:10AEC000140010F0D6F8152F7ED1E08D08B1A08DBA
:10AED00000B9B4E6B8F1000F00D1B0E61A9816F048
:10AEE000DCFD064605F114010DA810F0C2F8284655
:10AEF00018F0E6FE0C9094F8390000F003000128E9
:10AF00003CD1B4F92C10BDF93020891A481C00EB53
:10AF1000D071BDF83420A2EB610109B2ADF8341054
:10AF2000B4F92C10BDF93020891A481C00EBD071FF
:10AF3000BDF83820A2EB610109B2ADF83810B4F9C0
:10AF40002E10BDF93220891A481C00EBD071BDF8D3
:10AF50003620A2EB610109B2ADF83610B4F92E101B
:10AF6000BDF93220891A481C00EBD071BDF83A2097
:10AF7000A2EB610109B2ADF83A1013E012A810F08B
:10AF80006FF9BDF834100844401E00B2ADF8380027
:10AF900012A810F0DDF8BDF836100844401E00B2CB
:10AFA000ADF83A00BDF83400584400B2ADF83400B2
:10AFB000BDF836101698084400B2ADF83600BDF85A
:10AFC00038101798081A00E0E8E000B2ADF8380031
:10AFD000BDF83A101598081A00B2ADF83A0094F886
:10AFE000380000F00300012805D094F8380000F084
:10AFF000030000287AD106A813F031FC06AA00212C
:10B0000028461FF033F81FFA88F0ADF81A001FFA2F
:10B010008AF0ADF81800608EADF81C00A18EADF876
:10B020001E1094F83800C0098DF82C00BDF84800B7
:10B03000584400B2ADF81000BDF84A101698084404
:10B0400000B2ADF81200BDF84C101798081A00B203
:10B05000ADF81400BDF84E101598081A00B2ADF8FE
:10B060001600B068039004AA04A8B168F8F7E2F9E2
:10B0700000B9E4E504A8B060BDF83610608D08445E
:10B0800000B2ADF80600BDF90600BDF936108842E1
:10B0900006DDBDF80600E18D401A00B2ADF80600ED
:10B0A000BDF80600E18D0844401E00B2ADF80A006C
:10B0B00049E0BDF83400218D084400B2ADF8040029
:10B0C000BDF90400BDF93410884206DDBDF8040066
:10B0D000A18D401A00B2ADF80400BDF80400A18DA6
:10B0E0000844401E00B2ADF8080016E034E001AAA2
:10B0F00006A93046636A13F063FBBDF80400BDF88F
:10B100003010084400B2ADF80400BDF80800BDF8E6
:10B110003010084400B2ADF80800BDF90400BDF9D4
:10B1200038108842E3DBBDF80600BDF83210084451
:10B1300000B2ADF80600BDF80A00BDF832100844B0
:10B1400000B2ADF80A00BDF90600BDF93A10884218
:10B15000AFDB0398B06020E094F8380000F0030003
:10B16000022811D104A813F04BFF04AA002128469D
:10B170001EF0DBFF0020009005F1140204A9304608
:10B18000636A13F089FB08E000BF00BF002305F1EC
:10B1900014021946304613F013FB00BF00BF00BF76
:10B1A0004DE50000608904082DE9F14FDCB05C98A2
:10B1B00016F0CCFC05462C465C9816F06EFC5B90B5
:10B1C00059A928461DF050F80020CDE9105040F64E
:10B1D0000A02DDE910011EF011FC0F900F9800B279
:10B1E00058900020CDE9105040F60B02DDE9100127
:10B1F0001EF004FC0F900F9800B25790BDF8641138
:10B200005898081A00B2ADF86401BDF86811589852
:10B21000084400B2ADF86801BDF866115798081AE5
:10B2200000B2ADF86601BDF86A115798084400B243
:10B23000ADF86A0159A810F005F8834659A80FF037
:10B2400079FF5690D4E90A10A0EB0109569883457E
:10B2500001DB012000E0002080460020559094F89A
:10B260005C0000F0030001280BD1A06A002808DA76
:10B27000E06A002805DDA16A206B884201D1012027
:10B280005590002128461EF0E5F9549000212846EB
:10B290001EF089FA5390002128461EF047FB529079
:10B2A000002128461EF0F9F8519059A904F1340004
:10B2B0000FF0CDFEA18E5498084400B2A086218FD5
:10B2C0005398081A01B22187E18E5298084401B2BE
:10B2D000E186618F5198081A01B26187B8F1000FB9
:10B2E00013D004F134000FF025FF04280DDA56982E
:10B2F00000EBD0714A10E98A1144891E0AB2E28635
:10B30000E08E001D01B2618715E0B8F1000F12D187
:10B3100004F134000FF096FF04280CDA58460BEBCA
:10B32000D071AA8A02EB6101891E09B2A186A08EA2
:10B33000001D01B2218704F134000FF083FF50900B
:10B3400004F134000FF0F6FE4F90B8F1000F01D079
:10B35000509800E04F988246B8F1000F05D004F1F4
:10B360003406371DFE484C9004E004F13606371DC4
:10B37000FC484C90A06D401CF8B1A36A216DC91A1D
:10B3800001FB0AF191FBF9F108B2A36A616DC91AD8
:10B3900001FB0AF191FBF9F10AB2131AD4F858C073
:10B3A00003FB0CF1CB1701EB13631B121BB24D9384
:10B3B0004D99014409B24D9108E0A16A206B401AF1
:10B3C00000FB0AF090FBF9F000B24D90A06C401C1D
:10B3D000E0B1A36A216CC91A01FB0AF191FBF9F1F2
:10B3E00008B2A36A616CC91A01FB0AF191FBF9F179
:10B3F0000AB2131AD4F848C003FB0CF1CB1701EBC7
:10B40000136300EB23231BB24E9308E0D4E9090138
:10B41000401A00FB0AF090FBF9F000B24E900020B9
:10B42000119041F26A42284611991EF0E7FA1090F5
:10B430001098C0B24B90B8F1000F0ED04B98012875
:10B440000BD130463E4607464E99494209B24E91CD
:10B450004D99494209B24D9100BFB8F1000F0AD091
:10B4600031884E98084400B2388031884D9808449D
:10B4700000B230800AE039884E98081A401C00B2A9
:10B48000308039884D98081A00B23880559878B3C2
:10B49000A26A524202FB0AF292FBF9F211B2B8F12F
:10B4A000000F0CD032880A4410B2B7F90020824253
:10B4B00001DD30801BE03A883280388017E03A881E
:10B4C000521A521C10B2B6F90020824201DD3880B7
:10B4D00002E032883A803080B7F90020B6F90030B7
:10B4E0009A4204DAB6F900003A883280388000BF08
:10B4F000559800BB04F134004C99884701281ADCA8
:10B5000068465B991CF0A6FB4FF400300D909648FE
:10B5100001900020029004F1340003906A461A2141
:10B52000284616F019FB6A461B21284616F014FB24
:10B530005DB0BDE8F08F04F1340149A80FF087FD3C
:10B540003BA814F069FD3BAA4FF4003128461EF0D9
:10B55000C7FE29A85B991CF07DFB4FF400303690A4
:10B5600081482A9000202B903BA82D9004F13400B4
:10B570002C9029AA1A21284616F0EEFA00201190E4
:10B580006022284611991EF039FA1090109800B2E6
:10B5900028905698834501DA584600E0569827903F
:10B5A000DDE92701B1EB600F02DD279840102890FC
:10B5B000BDF9EC0026904F995098884201DA5098D6
:10B5C00000E04F982790DDE92601B0EB610F02DD26
:10B5D000279840102690B8F1000F08D004F13400ED
:10B5E0000FF030FE01462698B1EB400F0BDCB8F1AE
:10B5F000000F28D104F134000FF09CFD014626987D
:10B60000B1EB400F1FDD9DF8EF0011909DF8060192
:10B6100010909DF80E010F9000208DF8EF008DF82E
:10B6200006018DF80E0104F134023BA95B9814F079
:10B63000D7FC11988DF8EF0010988DF806010F983F
:10B640008DF80E0100BFA98A5498084400B2ADF8E5
:10B650007800298B5398081A00B2ADF87C00E98A6B
:10B660005298084400B2ADF87A00698B5198081AD4
:10B6700000B2ADF87E0000231EA920A8289A14F07D
:10B68000B5FB002120A813F033FD1D909DF8220189
:10B690001C909DF80E011B9000208DF80E018DF876
:10B6A000220159A919A80FF0D2FCBDF864105498D2
:10B6B000084400B2ADF86400BDF866105298084422
:10B6C00000B2ADF86600BDF868105398081A00B2D1
:10B6D000ADF86800BDF86A105198081A00B2ADF8CC
:10B6E0006A00B8F1000F15D019A80FF023FD042847
:10B6F00010DA569800EBD0714A10E98A1144891E7D
:10B7000009B2ADF86610BDF86600001D00B2ADF8D4
:10B710006A0017E0B8F1000F14D119A80FF092FDDC
:10B7200004280FDA58460BEBD071AA8A02EB6101AC
:10B73000891E09B2ADF86410BDF86400001D00B2A6
:10B74000ADF86800BDF9EC20002304F1340113A822
:10B7500014F04CFB002113A813F0CAFC129005E072
:10B7600045B2010835B101089C88040819AA3BA913
:10B770005B9814F035FC1B988DF80E011C988DF821
:10B78000220100208DF8EF008DF806018DF82201CE
:10B7900004F134023BA95B9814F022FC13A813F0C7
:10B7A00089FF20A813F086FF129814F007FC1D985B
:10B7B00014F004FC29AA1B21284616F0CDF900BF7D
:10B7C000B6E6F0B591B00546284616F0BFF9044636
:10B7D000284616F062F90746264603A814F01CFC1A
:10B7E00003AA4FF4403120461EF07AFD47F6FF7061
:10B7F000ADF80C002C20805D00F0010038B120462F
:10B8000012F05BFB0090BDF80000ADF8100021467F
:10B8100001A807F019FF01AA03A9384614F0E0FBBC
:10B8200011B0F0BD2DE9F04FB3B08146484616F097
:10B830008DF980464446484616F02FF93290002193
:10B8400040461DF05FFC054640461EF0FEFA82466B
:10B8500040461CF05FFD8346DA4501DB012000E035
:10B86000002006460EB1584600E0504631900027B1
:10B8700094F85C0000F00300012806D1A06A0028BB
:10B8800003DAE06A002800DD0127002E3CD097B9DA
:10B890003EB1012D02D1B4F9340009E0B4F9380009
:10B8A00006E0012D02D1B4F9360001E0B4F93A0006
:10B8B000ADF8BC0037E0606A002812DB3EB1012D14
:10B8C00002D1B4F9340009E0B4F9380006E0012DE2
:10B8D00002D1B4F9360001E0B4F93A00ADF8BC0089
:10B8E00021E03EB1012D02D0B4F9340009E0B4F9F1
:10B8F000380006E0012D02D0B4F9360001E0B4F9B9
:10B900003A00ADF8BC000EE01FB9E08EADF8BE0005
:10B9100009E0606A002803DBE08EADF8BE0002E0BB
:10B92000608FADF8BE0021A814F076FB21AA4FF479
:10B93000403140461EF0D4FC33462FA94046319A90
:10B9400026F0EDF82FA904F168000FF09BFB0FA87B
:10B9500032991CF07FF94FF440301C903C48109015
:10B96000002011901D9004F16800129021A81390FE
:10B97000404622F09EF9022810D00FAA1A21404614
:10B9800016F0EAF804F1680221A9329814F028FBB5
:10B990000FAA1B21404616F0DFF855E0382221A9F6
:10B9A00001A81AF0D6FB0FAA1A21404616F0D4F8C7
:10B9B00004F1680221A9329814F012FB0FAA1B218E
:10B9C000404616F0C9F896B13EB1012D02D0B4F947
:10B9D000340009E0B4F9380006E0012D02D0B4F9D2
:10B9E000360001E0B4F93A00ADF8BC0002E0608F27
:10B9F000ADF8BE0033462FA94046319A26F08FF8A5
:10BA00002FA904F160000FF03DFB382201A921A805
:10BA10001AF09FFB0120119004F16000129021A800
:10BA2000139001201D900FAA1A21404616F094F899
:10BA300004F1600221A9329814F0D2FA0FAA1B2156
:10BA4000404616F089F800BF33B0BDE8F08F000023
:10BA5000EC8904082DE9F04790B00746384616F007
:10BA600075F8054628461CF0A5FC064608A813F004
:10BA7000C7FA08AA002130461EF057FB384616F0D8
:10BA80000CF80446D4F8088006F1140206A8A16850
:10BA9000F7F7D0FC10B910B0BDE8F08706A8A06099
:10BAA00004A9304608F04EFAA88AADF80800E88AE2
:10BAB000ADF80A00288BADF80C00BDF81200ADF807
:10BAC0000E0002AA02A8A168F7F7B4FC98B1D4F856
:10BAD000089002A8A060284619F0D8F982460020F4
:10BAE000534605F1140208A90090204612F0D4FE36
:10BAF000C4F8089000BFA88AADF80800BDF8160089
:10BB0000ADF80A00288BADF80C00688BADF80E007C
:10BB100002AA02A8A168F7F78DFC98B1D4F80890A2
:10BB200002A8A060284619F0B1F9824600205346C9
:10BB300005F1140208A90090204612F0ADFEC4F8E9
:10BB4000089000BFC4F8088000BFA4E72DE9FF4FAC
:10BB5000A1B0064614462498807B00F00F05229879
:10BB6000807E1F90032D00D10425012D06D0022DCB
:10BB70000BD0042D10D0082D1DD114E0DFF86C83FC
:10BB80004FF0800A02201E901AE0DFF864834FF025
:10BB9000C00A04201E9013E0DFF858834FF0F00A2B
:10BBA00010201E900CE0DFF850834FF0FF0A4FF496
:10BBB00080701E9004E000BF00BF25B0BDE8F08F8C
:10BBC00000BF1F98FD2823DACC4801781F988142D6
:10BBD00003D1CB480068A84213D000200DE018F82C
:10BBE0000010FF2901D11F9904E018F800101F9AD6
:10BBF00051430912C34A1154401C1E998842EED386
:10BC000000BFDFF80083BD491F980870BC4805607D
:10BC10002498B0F806B0249800891B900BFB05F01F
:10BC20001A90B4F90000B168B1F90010884201DB44
:10BC3000002005E0B068B0F90000B4F90010401A27
:10BC40001990B4F900005844B168B1F90410884261
:10BC500001DC584606E0B068B0F90400B4F9001001
:10BC6000401A401C1890B4F90200B168B1F90210F2
:10BC7000884201DB002005E0B068B0F90200B4F9A9
:10BC80000210401A1790B4F902101B980844B168CA
:10BC9000B1F90610884201DC1B9806E0B068B0F9E3
:10BCA0000600B4F90210401A401C16901A99179811
:10BCB0004843199901FB050015902E99159801EB41
:10BCC000D0002E90159800F007071C210DA81AF03F
:10BCD000CEFB22988089ADF83C002298807E8DF8BA
:10BCE0004C002298807FC0F3C2008DF84D00F9F718
:10BCF0007DF9019012F07AFA0C901B980BFB00F181
:10BD00000C98814201DD0C9802E01B990BFB01F0BD
:10BD10000B900B981AF002F98146CDF84090002064
:10BD20000A9021881998084400B2ADF820002188B3
:10BD300018980844401E00B2ADF824006188179896
:10BD4000084400B2ADF82200BDF82200ADF826008C
:10BD500000BFBDF82400BDF82010401A401C00B2FE
:10BD6000079000BFBDF82000ADF81400BDF8220018
:10BD7000ADF81600BDF82400ADF81800BDF8260097
:10BD8000ADF81A0000BFBDF816101698084400B2AE
:10BD9000ADF81A0005A813F0B1FC049008A80D90A6
:10BDA0001290C5F10800039019980BEB0001189848
:10BDB000081A6843029017981C9078E00A9801903E
:10BDC0002AFA07F0209019981D9028E02E98007804
:10BDD000209908400399C91BC8401490149830B1A9
:10BDE000149818F800100A9809F8001003E00021D0
:10BDF0000A9809F800100398874204D22F4420982B
:10BE0000E840209005E00027CDF880A02E98401C47
:10BE10002E900A98401C0A901D98401C1D9018995D
:10BE20001D988842D2DB0498A0B1BDF92620BDF947
:10BE30002010019B09EB0300079B13F00FFC8DF80A
:10BE400044009DF8440028B9019909EB01000799C5
:10BE50001AF00DFBDDE91801411A0A9801440B980C
:10BE6000814206D2BDF82600401C00B2ADF8260083
:10BE700012E002208DF844000DA9304614F0EEFACD
:10BE8000BDF82600401C00B2ADF82200BDF822002B
:10BE9000ADF8260000200A90029807442E9800EB87
:10BEA000D7002E9007F007071C98401C1C9016998D
:10BEB0001C98884282DBBDF92200BDF92610884219
:10BEC0000ED0BDF82600401E00B2ADF826000220BC
:10BED0008DF844000DA9304614F0C0FA00200A90F5
:10BEE00048461AF097F800BF67E60000F4D8030848
:10BEF000F6D8030802D9030812D903085C01002010
:10BF00006001002014C200202DE9FF4F8FB00C46C5
:10BF100015461E46B4F90200401E0E900E984010C1
:10BF20000D900E9800F001010D9808440C90B5F9A1
:10BF30000000B6F90010884202DAB5F9000001E00D
:10BF4000B6F90000ADF82800B5F90000B6F9001008
:10BF5000884202DDB5F9000001E0B6F90000401E9C
:10BF600000B2ADF82C0069880C98081A00B2ADF840
:10BF70002A0069880D98084400B2ADF82E000F9889
:10BF80000AA982680AA8F7F755FA8246BAF1000FA3
:10BF900002D113B0BDE8F08FE08818B1A08808B1D5
:10BFA000012000E000208346012009900AA813F038
:10BFB000A5FB10B10020099004E0BBF1000F01D0F7
:10BFC000002009901C2102A81AF051FA0AA8029038
:10BFD0002088ADF81000207A8DF82000099820B153
:10BFE00002A90F9814F03AFA78E00AA80FF007F9BE
:10BFF0000746BDF92E000190BDF82A00ADF82E00CD
:10C0000000200090BBF1000F0BD0B4F90600B4F98A
:10C0100004100844BDF9281091FBF0F200FB121047
:10C020000090384619F07AFF8046CDF814800AA8AF
:10C030000790BDF92A904AE0394640461AF04EFA78
:10C04000BDF928103BB20FFA89F2404613F006FB07
:10C050008DF81800BBF1000F27D09DF8180020B311
:10C06000009800211BE0B4F90420824207DBA3887A
:10C070001B1A1AB28B1819B2831818B20BE0B4F954
:10C080000620B4F904301A44824201DC002002E0A8
:10C09000002208F801204A1C11B2421C10B2B94219
:10C0A000E1DB02228DF8182000BF02A90F9814F0DE
:10C0B000D5F9BDF82A00401C00B2ADF82A00BDF841
:10C0C0002E00401C00B2ADF82E0009F101090198C4
:10C0D0008145B1DD404619F09DFF00BF00BF58E724
:10C0E0002DE9FF4FC7B08B4691469A46B9F9020039
:10C0F000BAF90210884210DAB9F80200ADF81A0154
:10C10000BAF80200ADF81601B9F80000ADF8180150
:10C11000BAF80000ADF814010FE0BAF80200ADF86B
:10C120001A01B9F80200ADF81601BAF80000ADF82E
:10C130001801B9F80000ADF81401BDF91401BDF9FA
:10C140001811441ABDF91601BDF91A11451A002C2F
:10C1500001DD204600E06042002D01DD294600E0BF
:10C160006942884201DD012000E000204490BBF9D3
:10C17000026000204390449870B1002D01DD2846F4
:10C1800000E068424101002C01DD204600E06042F1
:10C1900091FBF0F043900DE0002C01DD204600E023
:10C1A00060424101002D01DD284600E0684291FB1C
:10C1B000F0F04390E0494398085C70433F30C6116B
:10C1C000771006F0010000EB0708BDF91801BDF972
:10C1D0001411884202DABDF9180101E0BDF9140119
:10C1E000801B00B2ADF80401BDF91801BDF91411AE
:10C1F000884202DDBDF9180101E0BDF914013044A7
:10C2000000B2ADF80801BDF91A01BDF91611884256
:10C2100002DABDF91A0101E0BDF91601801B00B276
:10C22000ADF80601BDF91A01BDF91611884202DD0B
:10C23000BDF91A0101E0BDF91601304400B2ADF8B4
:10C240000A01479841A9826841A8F7F7F3F840909E
:10C25000409810B94BB0BDE8F08F4498F0B3002C73
:10C2600024DD0021BDF81601C01B00B2CDE900019C
:10C27000BDF91431BDF81A01C01B02B2BDF9181185
:10C2800035A813F035FB0121BDF81601404400B27A
:10C29000CDE90001BDF91431BDF81A01404402B2E4
:10C2A000BDF918112AA813F023FB4AE00021BDF8BC
:10C2B0001601404400B2CDE90001BDF91431BDF8CA
:10C2C0001A01404402B2BDF9181135A813F010FB51
:10C2D0000121BDF81601C01B00B200E00DE0CDE960
:10C2E0000001BDF91431BDF81A01C01B02B2BDF93D
:10C2F00018112AA813F0FCFA23E00021BDF9160159
:10C30000CDE90001BDF81401404403B2BDF91A2182
:10C31000BDF81801404401B235A813F0E9FA012133
:10C32000BDF91601CDE90001BDF81401C01B03B22F
:10C33000BDF91A21BDF81801C01B01B22AA813F0DB
:10C34000D7FA002135A812F0D3FE139000212AA8B5
:10C3500012F0CEFE12904FF0FF30119010909BF82B
:10C360000900C0F3001068BB0321BDF81A01204486
:10C3700000B2CDE90001BDF81801401B03B2BDF9C0
:10C380001A21BDF918111FA813F0B2FA0221BDF845
:10C390001601204400B2CDE90001BDF81401401B94
:10C3A00003B2BDF91621BDF9141114A813F0A0FAB7
:10C3B00000211FA812F09CFE1190002114A812F079
:10C3C00097FE109041A80EF01AFF0F90F8F70EFE9E
:10C3D000019011F00BFF0D9041A80EF0C7FE014631
:10C3E0000D98814203D241A80EF0C0FE00E00D98E6
:10C3F0000C900C9819F092FD0B90BDF90A010A906F
:10C40000BDF80601ADF80A0100200990DDE90B0135
:10C410001AF064F81C2102A81AF029F841A8029029
:10C42000BBF80000ADF810009BF808008DF8200064
:10C430000B98059041A80790BDF906010E9040E0C9
:10C44000BDF90411099B0B9AD0180F9A13B20E9ADA
:10C4500012B213F003F98DF818009DF8180028B9EE
:10C46000099A0B9988180F991AF001F80F990998F1
:10C47000084409900F99099801440C98814206D20A
:10C48000BDF80A01401C00B2ADF80A0116E0022016
:10C490008DF8180002A9479813F0E0FFBDF80A01D3
:10C4A000401C00B2ADF80601BDF80601ADF80A0166
:10C4B00000200990DDE90B011AF010F80E98401CDD
:10C4C0000E900A990E988842BADDBDF90601BDF9B1
:10C4D0000A1188420CD0BDF80A01401E00B2ADF826
:10C4E0000A0102208DF8180002A9479813F0B6FF40
:10C4F0000B9819F08FFD35A813F0DCF82AA813F07B
:10C50000D9F81198401C10B11FA813F0D3F8109857
:10C51000401C10B114A813F0CDF8139813F04EFD81
:10C52000129813F04BFD119813F048FD109813F07A
:10C5300045FD00BF8EE6000012DA03082DE9FF4F2B
:10C5400091B00C4615461E46B4F90200401E1090EC
:10C55000109840100F90109800F001010F980844B7
:10C560000E9029880E98081A00B2ADF8300029887C
:10C570000F98084400B2ADF83400B5F90200B6F9DE
:10C580000210884202DAB5F9020001E0B6F90200B1
:10C59000ADF83200B5F90200B6F90210884202DDAA
:10C5A000B5F9020001E0B6F90200401E00B2ADF894
:10C5B000360011980CA982680CA8F6F73BFF81465B
:10C5C000B9F1000F02D115B0BDE8F08FE08818B1C5
:10C5D000A08808B1012000E00020824601200B90D5
:10C5E0000CA813F08BF810B100200B9004E0BAF106
:10C5F000000F01D000200B901C2104A819F037FF78
:10C600000CA804902088ADF81800207A8DF8280036
:10C610000B9820B104A9119813F020FF66E00CA834
:10C620000EF0EDFD8346BDF936000390BDF83200F3
:10C63000ADF83600584619F071FC02900298079048
:10C640000CA8099000200190BAF1000F0BD0B4F9AA
:10C650000600B4F904100844BDF9321091FBF0F261
:10C6600000FB12100190019FBDF9328037E059465E
:10C67000029819F033FFBDF930100FFA8BF30FFA5F
:10C6800088F2029812F0EAFF8DF82000BAF1000F4C
:10C6900013D09DF8200070B1B4F90400B84202DA5A
:10C6A00000208DF82000B4F90600B4F90410084405
:10C6B000B84200DC0027781C07B204A9119813F0D7
:10C6C000CDFEBDF83200401C00B2ADF83200BDF81E
:10C6D0003600401C00B2ADF8360008F1010803989E
:10C6E0008045C4DD029819F095FC00BF00BF6AE7E1
:10C6F0002DE9FC5F8046404615F028FA0746B9460A
:10C70000D9F824603446404615F0C7F90546606AFA
:10C7100000F114026846A968F6F78CFE8246BAF169
:10C72000000F41D0D5F808B0C5F808D094F83C0007
:10C73000C0F3401048B3608FE18E88420CD1628F05
:10C74000212329463046FDF7FBFA628F2123294633
:10C750003046FDF761FB24E0628F202329463046F6
:10C76000FDF7EEFA628F202329463046FDF754FB91
:10C77000E28E012329463046FDF7E2FAE28E0123DC
:10C7800029463046FDF748FB0BE0628F20232946FF
:10C790003046FDF7D5FA628F202329463046FDF753
:10C7A0003BFBC5F808B000BFBDE8FC9F2DE9F14F89
:10C7B000D0B0509815F0CAF904462546288E10B915
:10C7C00051B0BDE8F08F509815F067F94F90608C2C
:10C7D00020F00400001D60844DA920461BF044FD9C
:10C7E0000026B246B4F8208000202084608C20F01F
:10C7F0000400001D608427A813F00EFC1FA812F08F
:10C80000FFFB27AA4FF4A02120461DF069FD1FAAB7
:10C810004FF4A02120461DF088FC608C20F004001D
:10C820006084A4F82080002120461DF08CF81E9022
:10C83000002120461CF03EFE1D90002120461CF0E9
:10C8400016FF1C90002120461CF0BAFF1B9009A87F
:10C850004F991BF0FFF94FF4A0201690D7480A908B
:10C8600000200B903DA80D9035A80E9000BF9BE1D5
:10C8700003E00AF101001FFA80FA696A51F82A0000
:10C88000CFA1F4F7C1F80028F3D0E96A31F8160017
:10C89000FAF7B5F900B181E10027E96A31F816002D
:10C8A000FAF79DF908B147F00107E96A31F8160077
:10C8B000FAF7A9F910B147F0800716E0A88EB04248
:10C8C00013D108F0200008B147F0200708F002005B
:10C8D00008B147F0020708F0040008B147F0040768
:10C8E00008F0080008B147F00807A86A00EBC60185
:10C8F0004BA80EF0B5FBBDF82C01BDF8341108446F
:10C9000000B2ADF82C01BDF82E01BDF83611084477
:10C9100000B2ADF82E01BDF83001BDF83411084465
:10C9200000B2ADF83001BDF83201BDF8361108444F
:10C9300000B2ADF8320157B9382227A93DA819F045
:10C9400008FC20221FA935A819F003FC1DE027844C
:10C95000608C20F00400001D60843DA813F05CFB97
:10C9600035A812F04DFB3DAA4FF4A02120461DF042
:10C97000B7FC35AA4FF4A02120461DF0D6FBA4F841
:10C980002080608C20F004006084E96A31F8160091
:10C99000FAF741F98346BBF1000F06D09DF8F1008C
:10C9A00040F001008DF8F10005E09DF8F10020F065
:10C9B00001008DF8F1004BA80C90179609AA1A21D6
:10C9C000204615F0C9F89DF81701400800F0100046
:10C9D000F0B39DF8170120F03E001E308DF81701CE
:10C9E000BDF92C11B4F914201C98104481420AD1CD
:10C9F0009DF81701400820F004009DF8171160F31E
:10CA000045018DF81711BDF93011B4F918201B98A4
:10CA1000101A81420AD19DF81701400820F0080041
:10CA20009DF8171160F345018DF81711BDF92E110E
:10CA3000B4F916201E98104481420CD19DF81701BC
:10CA4000400820F002009DF8171160F3450100E056
:10CA500014E08DF81711BDF93211B4F91A201D98A0
:10CA6000101A81420AD19DF81701400820F00100F8
:10CA70009DF8171160F345018DF817114BA80EF0C2
:10CA800060FB814607F0200060B1E86A30F81600CC
:10CA900000F4007030B1BDF82E01A0EB090000B227
:10CAA000ADF82E014BAA3DA94F9813F099FA35988D
:10CAB0000890BDF9E8000790BDF9E6000690686AA5
:10CAC00050F82A0005904DA80EF0C3FB03909DF886
:10CAD000F11002460698CDE90121009004A8DDE995
:10CAE0000732059923F08EFE4BA80EF0B2FBBDF97C
:10CAF0001010401A039000EBD070BDF82C1101EB20
:10CB0000600000B2ADF82C014BA80EF01AFBBDF985
:10CB10001210401A039000EBD070BDF82E1101EBFB
:10CB2000600000B2ADF82E01BDF82C01BDF8101068
:10CB3000084400B2ADF83001BDF82E01BDF8121066
:10CB4000084400B2ADF8320107F02000C0B1E86A35
:10CB500030F8160000F4007090B1484609EBD0712F
:10CB6000BDF82E21A2EB610109B2ADF82E1109EB3F
:10CB7000D071BDF83221A2EB610109B2ADF83211DA
:10CB8000002000904BAA35A9059B4F9811F084FE18
:10CB900009AA1B21204614F0DFFF00BF701C86B2DB
:10CBA0000AF101001FFA80FA288EB0423FF760AE0A
:10CBB000608C20F00400608400BF01E6D488040883
:10CBC0000A0000002DE9F14FA2B0229814F0BEFF38
:10CBD00004462546229814F060FF2190002120464B
:10CBE0001CF004FB81462646002741F61202394616
:10CBF00030461CF003FF0A900A98484400B2209087
:10CC000000BF41F61302394630461CF0F7FE0A9089
:10CC10000A98484400B21F90002120461CF0ADFE47
:10CC2000484400B21E9016A812F0EAF916AA4FF472
:10CC3000003120461DF079FAA86A10B1D5F8288095
:10CC40000AE0802019F06AF9064680223146204623
:10CC500014F056FCB04600BF4FF0000A95F83C00B7
:10CC600000F00F00012800D18246002641F26A42FE
:10CC7000314620461CF0C2FE0A900A98C0B2012834
:10CC800000D18246E86A00287ED0E86A17F02AF9C7
:10CC90000A900A98022814D19DF8750041F6FF7297
:10CCA000BDF96A10CDE900120290BDF96C30169AF8
:10CCB00007A8E96A23F0A6FDBDF91C60BDF91E7046
:10CCC00011E007A9E86A16F0B5FD8346BBF1010F34
:10CCD00005D10798C0F38A260798470D02E04FF068
:10CCE000FF36374600BFBAF1000F0DD0A18A209859
:10CCF000084400B2ADF82000BDF820003044401ECA
:10CD000000B2ADF824000DE0218B1F98081A801B9B
:10CD100000B2ADF82000BDF820003044401E00B243
:10CD2000ADF824000A98022815D1E18A1E9808441B
:10CD300000B2ADF82200BDF822003844401E00B217
:10CD4000ADF826000020009008AA16A9EB6A2198E9
:10CD500011F0A2FD40E020461BF0DCFAA0EB070B2F
:10CD60000BEBDB704110E08A084400B2ADF8220002
:10CD7000BDF822003844401E00B2ADF8260002A8DB
:10CD800011F06DFD02AA00E027E04FF400312046CB
:10CD90001DF06CF9304606EBD071491009B2ADF8C0
:10CDA0000C10384607EBD07149100AB2ADF80E20CE
:10CDB0004FF4003B43F60F02594620461CF01EFE7E
:10CDC0000190019880B2ADF8080008AA02A9EB6AA8
:10CDD000219811F0F5FC00BF00BF0EA812F010F969
:10CDE0000EAA002120461DF0A0F99DF8550041F63D
:10CDF000FF72BDF94A10CDE900120290BDF94C3026
:10CE000041460DA80E9A23F0FDFCE18A1E980844C5
:10CE100000B2ADF82E00BDF82E00BDF83610084463
:10CE200000B2ADF83200E86AB0B920461DF00DF846
:10CE3000BDF93410461A06EBD670A18A01EB6000EA
:10CE400000B2ADF82C00BDF82C00BDF83410084439
:10CE500000B2ADF8300022E0BAF1000F11D0218B02
:10CE60001F98081ABDF83410401A00B2ADF82C0013
:10CE7000BDF82C00BDF83410084400B2ADF8300005
:10CE80000DE0A18A2098084400B2ADF82C00BDF84E
:10CE90002C00BDF83410084400B2ADF8300000207A
:10CEA00043460BAA0EA90090219811F0F5FCA86A40
:10CEB00010B9404619F0AEF823B0BDE8F08F2DE967
:10CEC000F14F90B0109814F041FE05462C46109892
:10CED00014F0E3FD06460EA928461BF051F9002781
:10CEE00094F84800C0F3001008B147F0010794F827
:10CEF0004800C0F3401008B147F00207002128465F
:10CF00001CF07CFF42F2D171884205D1688CC0F3DD
:10CF1000802008B947F0040706A812F071F8B4F8A9
:10CF20004400ADF82E004620005BADF830008DF8CF
:10CF3000357006AA002128461DF0F7F80DA8411EFD
:10CF4000626A03780BB90123037000BF284617F00B
:10CF5000A9FF0790284617F09FFF08904FF6FF7132
:10CF6000079888421ED0089888421BD04FF4802B27
:10CF700044F25742594628461CF040FD0290029860
:10CF80000390BDF80C00ADF8260000BF20225946E2
:10CF900028461CF033FD029002980390BDF80C0067
:10CFA000ADF8280094F8480000F00700022805D0EA
:10CFB00094F8480000F0070003281FD19DF83400C2
:10CFC000022803D09DF83400032817D141F6FF71E1
:10CFD000BDF92A008DE88300BDF92C30069A03A81C
:10CFE000616A23F00FFC0EA80EF041F9BDF90C1098
:10CFF000884202DA01208DF8340000BF04F13008C5
:10D0000094F8480000F00700032805D00EA80EF0A1
:10D01000A6F8B0F5806F01DA4FF000080EA904A859
:10D02000B268F6F707FA8146B9F1000F02D111B0E4
:10D03000BDE8F08F94F8480000F0070070B928466A
:10D040001BF058FB8346CBF1000002B200210EA872
:10D050000EF025F9688BADF83E0000BF94F848004B
:10D0600000F00700022805D094F8480000F00700FF
:10D0700003280ED1D6F808B004A8B060CDF800801F
:10D080000EAA06A93046636A11F006FCC6F808B07D
:10D0900007E0CDF800800EAA06A93046636A11F0B9
:10D0A000FBFBD6F808A004A8B06094F8480000F094
:10D0B000070003284FD141F6FF71BDF92A008DE822
:10D0C0008300BDF92C30069A03A8616A23F09AFB0D
:10D0D0000EA80EF0CCF8BDF90C1088421BDA202205
:10D0E0001146069814F091FE00EB4000B4F844108D
:10D0F000BDF80C201144084400B2ADF82E004620C3
:10D10000005BADF83000CDF800800EAA06A93046CD
:10D11000636A11F0C1FB0EA80EF021F8BDF90E10E4
:10D12000884217DAB4F84400ADF82E00069814F0DF
:10D130008BFE4621095BBDF80E201144084400B265
:10D14000ADF83000CDF800800EAA06A93046636A1B
:10D1500011F0A2FB00BFC6F808A000BF67E72DE9E9
:10D16000F14F9AB01A9814F090FC80461A9814F077
:10D17000EDFC0446B8F1150F16D11A9814F08DFC89
:10D18000054618A9204606F0DDFE0AA812F044FF65
:10D190000AAA4FF4802120461DF0A2F818AA0AA975
:10D1A000284612F01DFFC5E0B8F1180FFBD11A9800
:10D1B00014F073FC054612A811F022FF12AA4FF4D6
:10D1C000802120461CF0B1FF10A9204606F0BAFECF
:10D1D00010AA0EA8A968F6F72DF90D900D98002851
:10D1E0007DD0204606F023FB814620461CF02DFE14
:10D1F0008346484617F04AFE02210390BDF95A00C3
:10D20000CDE901B10090BDF95C300CA8129A0399E8
:10D2100023F0F8FA20461BF07DF80646304606EB70
:10D22000D0714A10B4F916100A44B9F91610891AC7
:10D230000B9148461BF06EF80B99890391FBF0F0B7
:10D240000B90002120461CF0BEFC0A901299B1F907
:10D2500008200A99B1F90810501A00EBD071491052
:10D2600009B20991BDF832100998081A00B2ADF858
:10D270003200304606EBD0714A10B4F91610571838
:10D28000BDF932000B99484307EBA03709983F1AC4
:10D29000002120461BF0B7FF82464FF0000B41F6FD
:10D2A0001202594620461CF0A9FB0390039800B2D5
:10D2B000089000BF41F61302594620461CF09EFB21
:10D2C0000390039800B20790A18A0898084450443C
:10D2D00000B2ADF8140038B2ADF8160000E028E056
:10D2E000218B0798081AA0EB0A0000B2ADF81800CD
:10D2F000BDF81600BDF83210084400B2ADF81A00AF
:10D300009DF8650040F002008DF86500A868049063
:10D310000EA8A860484617F0B9FD834600205B467A
:10D3200005AA12A90090284611F0B6FA0498A86040
:10D3300000BF00BF1BB0BDE8F08F2DE9F14FA8B0D2
:10D34000289814F003FC04462546289814F0A5FB01
:10D350002790002120461CF0B1F92690002120469C
:10D360001CF055FA2590002120461CF020FB24904B
:10D37000002120461CF0C5F8239000BFA08AADF81C
:10D380008400E08AADF88600208BADF88800608BC1
:10D39000ADF88A0000BFBDF884102698084400B29A
:10D3A000ADF88400BDF888102598081A00B2ADF8D1
:10D3B0008800BDF886102498084400B2ADF88600B5
:10D3C000BDF88A102398081A00B2ADF88A0013A895
:10D3D00012F022FE13AA4FF4003120461CF080FF09
:10D3E00021AA13A9279812F0FBFD002620461AF067
:10D3F00091FF074600BF208BA18A401A401CC01B2A
:10D400000FFA80F8686A401C40B1696A01FB08F0B5
:10D41000C11700EB116109120EB20CE020461BF09F
:10D42000DDFD00F0010BBBF1000F01D0404600E034
:10D430000020064600BF4FF0000B41F26A425946F9
:10D4400020461CF0DBFA00900098C0B2012802D1FF
:10D45000A8EB060006B2A08A304400B2ADF8440042
:10D46000BDF84400384400B2ADF84800E08AADF899
:10D470004600608BADF84A004FF4403120461CF066
:10D480001DF981464FF4403120461CF0C0F9824618
:10D490004FF4403120461CF08AFA10904FF440318E
:10D4A00020461CF02EF80F90BDF84400A0EB0900B8
:10D4B00000B2ADF84400BDF84800504400B2ADF8E9
:10D4C0004800BDF846101098081A00B2ADF84600A2
:10D4D000BDF84A100F98084400B2ADF84A0001A800
:10D4E00012F09AFD01AA4FF4403120461CF0F8FEDC
:10D4F00011AA01A9279812F073FD29B0BDE8F08F99
:10D500002DE9F14FE0B0609814F020FB0446254669
:10D51000609814F0C2FA814604F114015EA8D9F8AB
:10D520000820F5F787FF10B961B0BDE8F08FD9F892
:10D5300008005D905EA8C9F808004FF0000841F2AD
:10D540003202414620461CF059FA0C900C9800B269
:10D550005690002120461CF037FA559000212046B5
:10D560001BF0DCFF5490002120461CF0B4F85390CF
:10D57000002120461CF058F952904FF4A02120467B
:10D580001CF0A9F851904FF4A02120461CF04CF952
:10D5900050904FF4A02120461CF016FA4F904FF403
:10D5A000A02120461BF0BAFF4E90208C4D90002009
:10D5B0002084608C20F00400001D60843FA812F0DD
:10D5C0002BFD3FAA4FF4A02120461CF089FE29A87C
:10D5D00011F016FD29AA4FF4A02120461CF0A5FD4C
:10D5E0004D982084608C20F0040060840027204641
:10D5F0001BF094F80146E28A55981044401E411AE7
:10D600005698084400B2ADF86E0120461BF07CF835
:10D610002090002120461BF082FD012800D100E06F
:10D6200000201F9049460DA81AF014FB4FF4A020CB
:10D630001A90FE480E9000200F9031A8119021A85A
:10D6400012904FF0000B33E2E86A30F91B000C90A7
:10D65000BDF86E01401C00B2ADF86A01BDF86A1158
:10D660000C980844401E00B2ADF86E01BDF96A0185
:10D67000BDF97E11884200DD1EE21F9858B1218B52
:10D680005298081A401E2099411A5698081A00B25A
:10D69000ADF868010AE0A18A53980844401E209919
:10D6A000411A5698084400B2ADF86C010026F7E123
:10D6B00000200B90A86A50F8270020B1A86A50F803
:10D6C000270000780B901F9880B1BDF86801401EBC
:10D6D00000B2ADF86C01286B30F81600BDF86C1183
:10D6E000081A401C00B2ADF868010FE0BDF86C01EB
:10D6F000401C00B2ADF86801286B30F81600BDF888
:10D7000068110844401E00B2ADF86C014FF00008EB
:10D7100000BF34E007EB0801A86A50F8210048B3C5
:10D7200007EB0802A96A51F8220008B101780B91B1
:10D730000B9901F00101D9B11F9961B106EB080104
:10D74000491C2A6B32F81110BDF86821511A09B230
:10D75000ADF868110DE006EB0801491C2A6B32F8A0
:10D760001110BDF86C21114409B2ADF86C1100E044
:10D770000BE000E009E008F101001FFA80F808EB77
:10D780000601A88C401E8142C4DB00BFBDF96E01BA
:10D79000BDF97A11884207DA08F10100384487B2EE
:10D7A00006EB080086B279E100BFBDF86801ADF86C
:10D7B0002400BDF86A01ADF82600BDF86C01ADF893
:10D7C0002800BDF86E01ADF82A0000BF9DF81F01CA
:10D7D000400800F0040090B1BDF92410B4F9142001
:10D7E0005398104481420ADDBDF91C0100EBD07151
:10D7F000BDF82420A2EB610109B2ADF824109DF818
:10D800001F01400800F0020090B1BDF92610B4F9E4
:10D8100016205598104481420ADDBDF91C0100EB29
:10D82000D071BDF82620A2EB610109B2ADF8261037
:10D830009DF81F01400800F00800B8B1BDF928109C
:10D84000B4F918205298101A401E81420EDABDF920
:10D850001C0100EBD07182B202F0010202EB610107
:10D86000BDF82820114409B2ADF828109DF81F0119
:10D87000C0F34000B8B1BDF92A10B4F91A20549889
:10D88000101A401E81420EDABDF91C0100EBD07166
:10D8900082B202F0010202EB6101BDF82A201144BC
:10D8A00009B2ADF82A104FF0000AE88E584523D18E
:10D8B000A88EB04220D194F8200000F0400030B98A
:10D8C00094F8200000F0200008B14AF0200A94F8F3
:10D8D000200000F0020008B14AF0020A94F820008B
:10D8E00000F0040008B14AF0040A94F8200000F0A7
:10D8F000080008B14AF0080ABAF1000F0AD138222C
:10D900003FA931A818F025FC202229A921A818F048
:10D9100020FC1EE0A4F820A0608C20F00400001D74
:10D92000608431A812F078FB21A811F069FB31AABC
:10D930004FF4A02120461CF0D3FC21AA4FF4A021D3
:10D9400020461CF0F2FB4D982084608C20F00400EF
:10D95000608409A81090A88C0BFB00601B900DAA96
:10D960001A21204614F0F8F809AA31A9484612F005
:10D9700037FBA86A50F8270000287DD0BDF8681151
:10D980005198084400B2ADF86001BDF86C11509890
:10D99000081A00B2ADF86401BDF86A114F98084446
:10D9A00000B2ADF86201BDF86E114E98081A00B2CF
:10D9B000ADF866010B98C0F340000890089810B1CC
:10D9C0000220579001E00020579000BFBDF864018D
:10D9D000BDF86011401A401C00B20490BDF99620B9
:10D9E00004995798CDE900210290A86A50F82700C1
:10D9F000411CBDF998305CA8299A22F003FF0898D1
:10DA000018BB0C9901EBD172BDF86A3103EB6202CD
:10DA1000BDF9720100EBD073A2EB630212B2ADF854
:10DA200062210C9901EBD17202E00000248A040803
:10DA3000BDF86A3103EB6202BDF9720100EBD073ED
:10DA400002EB630212B2ADF866215AAA5EA906A8DB
:10DA5000F5F7F0FC0590059890B106A8C9F8080004
:10DA600000200090A86A50F82700431C58AA21A95A
:10DA7000484610F011FF00E003E05EA8C9F8080076
:10DA800000BF0DAA1B21204614F066F808F1010022
:10DA9000384487B206EB080086B200BF701C86B21D
:10DAA000A88CB0423FF704AE0BF101001FFA80FBD7
:10DAB000E88C58453FF7C8AD00BF5D98C9F808002D
:10DAC00000BF31E52DE9F04FA3B007468946164661
:10DAD000229730460DF0A8FB054600EBD5704FEAC3
:10DAE00060083088404400B2ADF88400708840443B
:10DAF00000B2ADF886001EA811F0CEFA1EAA4FF4AF
:10DB0000A02138461CF078FB18A810F0A8FE18AA2F
:10DB10004FF4A02138461CF0A9FA002138461BF02A
:10DB20003AFC1790494605A81AF094F870480690F8
:10DB300021A80E9022983030F6F744FF0446D1E039
:10DB400025681694207901285CD1B5F92000E98B6D
:10DB500008440090B5F92030D5E90512E06818F0C6
:10DB60008FF98246A88B00EB0801608A08440FFAFF
:10DB700080FB0FFA8AF022F057FD00FB0BF047F60E
:10DB8000FF7190FBF1F0BDF88610084400B2ADF8CB
:10DB900012000FFA8AF022F03FFD00FB0BF047F66F
:10DBA000FF7190FBF1F0BDF88410084400B2ADF8AD
:10DBB0001000A08AADF87800208A00B2ADF87A0093
:10DBC0006079FD2801DD179803E0607917994843D3
:10DBD00000128DF88000012013901EA80B9004A85D
:10DBE0000F9005AA1A21384613F0B6FF04AB21AAFC
:10DBF0001EA9484611F039FA05AA1B21384613F030
:10DC0000ABFF68E02079002865D1206900B963E0A6
:10DC1000B5F92000E98B08440090B5F92030D5E92A
:10DC20000512E06818F02CF9824604A9206915F065
:10DC300001FEBDF88410A08A081A00B2ADF80800F1
:10DC4000BDF88610E08A081A00B2ADF80A00BDF8E7
:10DC500008000499C1F38A210844401E00B2ADF8BF
:10DC60000C00BDF80A00049900EB5150401E00B2B0
:10DC7000ADF80E006079FD2801DD179803E06079AA
:10DC80001799484300128DF86B00A08AADF8640024
:10DC9000E18A18A8C1800AEB8A004FEA400ABAF567
:10DCA000616F01DDAAF5616A1FFA8AF0ADF86000C4
:10DCB00018A80C9005AA1A21384613F04DFF02AAA5
:10DCC00018A94846236910F07BFD05AA1B21384698
:10DCD00013F042FF00BF00BF214622983030F6F714
:10DCE0006BFE0446002C7FF42BAF23B0BDE8F08F11
:10DCF000E0DF03082DE9F74F8AB00C46904694F810
:10DD00002A00022802DC0DB0BDE8F08FE08C00B9DB
:10DD1000F9E794F82A90B9F1FD0F01DD4FF0FF0902
:10DD2000414608A80DF08AF9208D401E05B2BDF8C5
:10DD30002000401B00B2ADF82000BDF82200401BBF
:10DD400000B2ADF82200BDF82400284400B2ADF8BE
:10DD50002400BDF82600284400B2ADF8260008A92A
:10DD600006A80DF06BF9BDF81800E18C401A00B25E
:10DD7000ADF81800BDF81C00E18C084400B2ADF805
:10DD80001C00BDF81A00E18C401A00B2ADF81A0070
:10DD9000BDF81E00E18C084400B2ADF81E0008A8D2
:10DDA0000DF034FA824608A80DF0A8F90746B4F938
:10DDB0000060BA4501DA504600E038468346B6EBCB
:10DDC0006B0F01DD4FEA6B06E08C304400B205902A
:10DDD000A07894F82A10CDE90210A08CADF80400C8
:10DDE00030B2009008AA06A9059B0A98FBF754FCDC
:10DDF00000BF88E7F8B50546284613F0A7FE06469B
:10DE0000284613F0A0FE0446606BB0F5A02F54D155
:10DE1000A06B072806D200202169C870216981F80B
:10DE2000220014E0208F81B2202230460EF028F923
:10DE300068B100202169C870216981F82200122090
:10DE40001EF05AF90090BDF8001060698181208FA2
:10DE500081B24FF4004230460EF012F998B16620BC
:10DE60002169C870304622F0B5F80090BDF8001066
:10DE70002069818030460EF0FDF8A16B884202D106
:10DE8000B2202169C870208F81B24FF480423046A1
:10DE90000EF0F6F888B1FF20216981F822003046A3
:10DEA00022F098F80090BDF800102069C183206925
:10DEB000008C401C00B221690884F8BD2DE9F04FA8
:10DEC0008BB08146484613F041FE05462C46484635
:10DED00013F0E3FD8346606A16F0D8FF82469AF895
:10DEE000000000283ED1A06A00283BD0A06A00783C
:10DEF000C0B303A811F084F803AA4FF40021284608
:10DF00001CF013F994F85C00C0F3C00028B19DF830
:10DF1000290040F002008DF82900002128461BF05E
:10DF2000E7FB0746002128461BF05BFD80460021E9
:10DF300028461BF075F9064605F1140101A80DF0FD
:10DF4000AAF808EB060002B2B81901B201A80DF058
:10DF5000A6F90020009001AA03A95846A36A10F070
:10DF60009BFC00BF0BB0BDE8F08F7CB50446A069F8
:10DF700085686089002856D1A089002853D1E0889F
:10DF8000218988424FDAE18808B222F04DFBB4F9CA
:10DF90000410B4F90E20891A48432168498801EB1E
:10DFA000E03000B2ADF80200E1885A3108B222F048
:10DFB0003BFBB4F9041048432168098801EBE030C9
:10DFC00000B2ADF80400218908B222F02DFBB4F9AB
:10DFD000041048432168498801EBE03000B2ADF8F5
:10DFE000060021895A3108B222F01EFBB4F9041050
:10DFF000B4F90E20891A48432168098801EBE03002
:10E0000000B2ADF800002A4669466846F5F712FAF4
:10E0100006463EB1A169C1F808D06A462169A069E7
:10E0200011F0DEFFC2E0608910B1A08900287BD129
:10E030006089D0BB20680088ADF800002068408867
:10E04000A188084400B2ADF80600E18808B222F0C9
:10E05000EBFAB4F90410B4F90E20891A4843216888
:10E06000498801EBE03000B2ADF80200E1885A3196
:10E0700008B222F0D9FAB4F904104843216809889B
:10E0800001EBE03000B2ADF804002A46694668466C
:10E09000F5F7D0F906463EB1A169C1F808D06A4645
:10E0A0002169A06911F09CFF00BFA08900287DD1E3
:10E0B00020680088A188084400B2ADF804002068F8
:10E0C0004088ADF80200218908B222F0ADFAB4F917
:10E0D000041048432168498801EBE03000B2ADF8F4
:10E0E000060021895A3108B222F09EFAB4F90410D0
:10E0F000B4F90E20891A48432168098801EBE03001
:10E1000000B2ADF800002A4669466846F5F792F974
:10E1100006463EB1A169C1F808D06A462169A069E6
:10E1200011F05EFF42E0FFE76089A189884205D1D6
:10E13000608918B12089E188884211DB6089022852
:10E1400002D1A08901280BD06089032802D1A089BF
:10E15000022805D06089032828D1A089012825D16B
:10E1600020680088ADF8000020684088ADF8020003
:10E1700020680088A188084400B2ADF80400206837
:10E180004088A188084400B2ADF806002A466946D6
:10E190006846F5F74FF906463EB1A169C1F808D0C7
:10E1A0006A462169A06911F01BFF00BFA069856064
:10E1B0007CBD7CB50446A06985686089012856D17C
:10E1C000A089012853D1E088218988424FDAE1886B
:10E1D00008B222F029FAB4F90410484321684988AA
:10E1E00001EBE03000B2ADF80600E1885A3108B228
:10E1F00022F01AFAB4F90410B4F90E20891A48432F
:10E200002168098801EBE03000B2ADF804002189F3
:10E2100008B222F009FAB4F90410B4F90E20891AF0
:10E2200048432168498801EBE03000B2ADF80200B4
:10E2300021895A3108B222F0F7F9B4F904104843A1
:10E240002168098801EBE03000B2ADF800002A46F1
:10E2500069466846F5F7EEF806463EB1A169C1F891
:10E2600008D06A462169A06911F0BAFEC7E060894A
:10E27000012802D0A08901287ED1608901283AD1E5
:10E2800020680088A188401A00B2ADF8000020681C
:10E290004088ADF80200E18808B222F0C5F9B4F96F
:10E2A000041048432168498801EBE03000B2ADF822
:10E2B0000600E1885A3108B222F0B6F9B4F9041028
:10E2C000B4F90E20891A48432168098801EBE0302F
:10E2D00000B2ADF804002A4669466846F5F7AAF888
:10E2E00006463EB1A169C1F808D06A462169A06915
:10E2F00011F076FE00BFA0890128B7D12068008800
:10E30000401E00B2ADF8040020684088A18808448F
:10E3100000B2ADF80600218908B222F085F9B4F9FF
:10E320000410B4F90E20891A48432168498801EB8A
:10E33000E03000B2ADF8020021895A3108B222F073
:10E3400073F9B4F9041048432168098801EBE030FF
:10E3500000B2ADF800002A4669466846F5F76AF84B
:10E3600006463EB1A169C1F808D06A462169A06994
:10E3700011F036FE43E0FFE76089A189884206D1AB
:10E380006089012803D02089E18888420FDB6089F9
:10E3900010B9A08902280AD0608910B9A089032881
:10E3A00005D0608903282AD1A089022827D12068B6
:10E3B0000088A188401A00B2ADF8000020684088AB
:10E3C000ADF8020020680088401E00B2ADF80400DD
:10E3D00020684088A188084400B2ADF806002A46AB
:10E3E00069466846F5F726F806463EB1A169C1F8C8
:10E3F00008D06A462169A06911F0F2FD00BFA0694A
:10E4000085607CBD7CB50446A0698568608902286A
:10E4100056D1A089022853D1E088218988424FDA59
:10E42000E1885A3108B222F0FFF8B4F904104843E9
:10E430002168098801EBE03000B2ADF80000E18806
:10E4400008B222F0F1F8B4F90410B4F90E20891AD8
:10E4500048432168498801EBE03000B2ADF806007E
:10E46000218908B222F0E0F8B4F904104843216889
:10E47000498801EBE03000B2ADF8020021895A3141
:10E4800008B222F0D1F8B4F90410B4F90E20891AB8
:10E4900048432168098801EBE03000B2ADF8040080
:10E4A0002A4669466846F4F7C5FF06463EB1A169AB
:10E4B000C1F808D06A462169A06911F091FDCCE04D
:10E4C0006089022802D0A08902287DD160890228B3
:10E4D0003CD120680088401E00B2ADF804002068DE
:10E4E0004088A188401A00B2ADF80200E1885A3194
:10E4F00008B222F099F8B4F9041048432168098859
:10E5000001EBE03000B2ADF80000E18808B222F083
:10E510008BF8B4F90410B4F90E20891A4843216825
:10E52000498801EBE03000B2ADF806002A466946A2
:10E530006846F4F77FFF06463EB1A169C1F808D0EE
:10E540006A462169A06911F04BFD00BFA08902282D
:10E55000B5D120680088A188401A00B2ADF800004B
:10E5600020684088401E00B2ADF8060021895A316B
:10E5700008B222F059F8B4F90410B4F90E20891A3F
:10E5800048432168098801EBE03000B2ADF804008F
:10E59000218908B222F048F8B4F9041048432168F0
:10E5A000498801EBE03000B2ADF802002A46694626
:10E5B0006846F4F73FFF06464EB1A169C1F808D09E
:10E5C0006A462169A06900E002E011F009FD44E01B
:10E5D0006089A189884206D16089022803D02089F8
:10E5E000E18888420FDB608910B9A08903280AD02E
:10E5F0006089012802D1A089032804D060890128FC
:10E600002BD1A08948BB20680088A188401A00B29D
:10E61000ADF8000020684088A188401A00B2ADF82B
:10E62000020020680088401E00B2ADF80400206897
:10E630004088401E00B2ADF806002A46694668468A
:10E64000F4F7F8FE06463EB1A169C1F808D06A4663
:10E650002169A06911F0C4FC00BFA06985607CBD80
:10E660007CB50446A06985686089032856D1A089D5
:10E67000032853D1E088218988424FDAE1885A3152
:10E6800008B221F0D1FFB4F90410B4F90E20891AB0
:10E6900048432168098801EBE03000B2ADF8000082
:10E6A000E18808B221F0C0FFB4F9041048432168A2
:10E6B000498801EBE03000B2ADF8020021895A31FF
:10E6C00008B221F0B1FFB4F9041048432168098869
:10E6D00001EBE03000B2ADF80400218908B221F06E
:10E6E000A3FFB4F90410B4F90E20891A4843216835
:10E6F000498801EBE03000B2ADF806002A466946D1
:10E700006846F4F797FE06463EB1A169C1F808D005
:10E710006A462169A06911F063FCC7E0608903289B
:10E7200002D0A08903287ED1608903283CD12068CB
:10E730000088A188084400B2ADF804002068408831
:10E74000401E00B2ADF80600E1885A3108B221F04F
:10E750006BFFB4F90410B4F90E20891A48432168FC
:10E76000098801EBE03000B2ADF80000E18808B2A2
:10E7700021F05AFFB4F9041048432168498801EB9D
:10E78000E03000B2ADF802002A4669466846F4F768
:10E7900051FE06463EB1A169C1F808D06A4621691A
:10E7A000A06911F01DFC00BFA08903287ED120685C
:10E7B0000088ADF8000020684088A188401A00B2A7
:10E7C000ADF8020021895A3108B221F02DFFB4F9C9
:10E7D000041048432168098801EBE03000B2ADF82D
:10E7E0000400218908B221F01FFFB4F90410B4F924
:10E7F0000E20891A48432168498801EBE03000B2B5
:10E80000ADF806002A4669466846F4F713FE064648
:10E810003EB1A169C1F808D06A462169A06911F02A
:10E82000DFFB43E0FFE76089A189884206D1608968
:10E83000032803D02089E18888420FDB6089022801
:10E8400001D1A08950B16089012801D1A08928B1E6
:10E85000608902282AD1A089012827D12068008850
:10E86000ADF8000020684088A188401A00B2ADF8D9
:10E87000020020680088A188084400B2ADF80400B6
:10E8800020684088401E00B2ADF806002A4669465E
:10E890006846F4F7CFFD06463EB1A169C1F808D03D
:10E8A0006A462169A06911F09BFB00BFA0698560E1
:10E8B0007CBD000070B5A4B006460D4620AA22A972
:10E8C000304619F035FF22A80CF050FC28B920A8DA
:10E8D0000CF04CFC08B924B070BD12A9304625F0EC
:10E8E00089F90446012C00D0F5E72946684619F05D
:10E8F000B1F91B4801900220029012A804904FF435
:10E9000080300D9022A80CF031FC80B122A8039039
:10E910006A461A21304613F01FF922AA12A9284686
:10E9200011F05EFB6A461B21304613F015F920A852
:10E930000CF01CFC90B120A803906A461A213046C6
:10E9400013F00AF920A8039020AA12A9284611F072
:10E9500047FB6A461B21304613F0FEF800BFBAE7BA
:10E96000D0D803082DE9F04FB1B005460F4605F1A8
:10E9700014012FA8BA68F4F75DFD10B931B0BDE8F5
:10E98000F08FB8682E902FA8B8602C46002128463A
:10E990001AF039FE2B90002128461AF0A0FF2A9089
:10E9A000284619F042FCB4F88410484300120FFACC
:10E9B00080FA284619F01AFCB4F886104843001271
:10E9C0000FFA80FB04F12400F5F7DDFF2890002109
:10E9D00028461AF0CAFD8234618848430012279005
:10E9E0002188491E279801FB10A0218890FBF1F097
:10E9F00000B2269028992698B0FBF1F000B225903D
:10EA00004FF4A02128461AF0B0FD6188823C4843AB
:10EA100000122490284619F073FD01462B98401AE5
:10EA200000B22390284619F065FE01462A98401A44
:10EA300000B2229014A811F0EFFA14AA4FF4A0210A
:10EA400028461BF04DFC14A8C07B20F0070114A839
:10EA5000C173FF208DF85300688BBDF85010084437
:10EA600000B2ADF8B600394602A819F0F3F84FF439
:10EA7000A0200F905D480390042004904FF0000800
:10EA8000AAE02798504400FB08F0B4F8821090FBED
:10EA9000F1F0A98A01442398084400B20190CDF80E
:10EAA000408004F12400F5F78DFF06468CE0307BB2
:10EAB00000F0010000B181E094F88800C0F3C000CC
:10EAC00008B9708900E0002000B200900198ADF80C
:10EAD000B000BDF8B010259801442498081A401ED3
:10EAE00000B2ADF8B40025990198084400B2019035
:10EAF000BDF9B400BDF9BC10884200DA5EE0BDF992
:10EB0000B000BDF9C010884200DD60E03089ADF88A
:10EB1000540000984044B4F8821090FBF1F201FBDD
:10EB200012000FFA80F9706830F91910307BC0F3C9
:10EB3000001204F16C0030F91200081A00FB0BF00F
:10EB40002990307BC0F3001104F1700030F91110EE
:10EB5000307BC0F3001204F16C0030F91200091A86
:10EB6000299890FBF1F029902998ABEB0001E88AF5
:10EB700001442298084400B2ADF8B200706830F940
:10EB8000190047F6FF71884217D02CA8059014A8E9
:10EB900006901396706830F91900129002AA1A2193
:10EBA000284612F0D9FF2CAA14A9384611F018FAF9
:10EBB00002AA1B21284612F0CFFF00BF314604F104
:10EBC0002400F5F7F9FE0646002E7FF470AF00BF73
:10EBD00008F101001FFA80F8B4F8820040453FF7C1
:10EBE00050AF2E98B86000BFC8E60000A8DA03084E
:10EBF0002DE9F34FB9B083463A980BF114018268BE
:10EC000037A8F4F717FC10B93BB0BDE8F08F3A987D
:10EC10008068369037A93A9881605D46B5F88200E1
:10EC2000022800DAF0E7002158461AF0D2FA3390B1
:10EC3000002158461AF0E7FC01463398084400B218
:10EC40003290002158461AF04AFE01463398084493
:10EC500000B23190584619F0E8FAB5F884104843EC
:10EC6000001200B23090584619F0C0FAB5F886107C
:10EC70004843001200B22F90584619F041FC01465B
:10EC8000BBF8142032981044401A00B22E90584617
:10EC900019F030FD0146BBF8162031981044401A97
:10ECA00000B22D903A980BF1140182682BA8F4F76A
:10ECB000C1FB2A902A9800B9A6E727A810F0ECF922
:10ECC00027AA4FF4A02158461BF096FA19A811F074
:10ECD000A3F919AA4FF4003158461BF001FB4FF479
:10ECE000003158461BF07DF8064600EBD670471001
:10ECF0004FF4003158461AF0E6FA064600EBD6709B
:10ED00004FEA600ABDF99E00574501DA394600E036
:10ED1000514600EBD072B1EB620F06DD9DF8A50005
:10ED200020F0100010308DF8A500BDF89E000128DD
:10ED300006D19DF8A50020F0100010308DF8A50038
:10ED4000B5F882103098814201DB012000E00020FC
:10ED5000189005F12400F5F735FE0446D4E1207B38
:10ED600000F0010000B1C9E12089ADF89C002089C4
:10ED7000ADF8680095F88800C0F3C00008B9608954
:10ED800000E0002006B217962E98ADF8D4002E9819
:10ED9000ADF8D000179E179EB046606830F9181085
:10EDA000207BC0F3001205F16C0030F91200081A44
:10EDB0002F9948431690207BC0F3001105F1700095
:10EDC00030F91110207BC0F3001205F16C0030F90E
:10EDD0001200091A169890FBF1F0169016992F98C8
:10EDE000411A2D98084400B2ADF8D20004A83A990F
:10EDF00018F030FFC8480590032006904FF4A0207B
:10EE0000119027A80A9019A808901594BDF9D2006E
:10EE10000390BDF9D20002904FF0000923E1BDF844
:10EE2000D000ADF8D400BDF8D200ADF8D600BDF9E1
:10EE3000D4103698B0F904003844401C814200DDFB
:10EE400016E1309800FB09F0B5F88210491E90FBDE
:10EE5000F1F12E98084400B2ADF8D000179848445C
:10EE6000B5F8821090FBF1F201FB120006B2606867
:10EE700030F91610207BC0F3001205F16C0030F958
:10EE80001200081A2F9948431690207BC0F30011F6
:10EE900005F1700030F91110207BC0F3001205F16C
:10EEA0006C0030F91200091A169890FBF1F01690D8
:10EEB00016992F98411A2D98084400B2ADF8D20047
:10EEC000BDF9D0103698B0F90000C01B401E814239
:10EED00001DAB046C3E0B9F1000F58D01898E8B392
:10EEE000606830F9180047F6FF718842F5D0606815
:10EEF00030F916008842F0D0BDF9D2100298814254
:10EF000001DA029801E0BDF9D2000290BDF9D210F9
:10EF10000398814201DD039801E0BDF9D20003901E
:10EF2000BDF9D400BDF9D010884230D0BDF9D2006F
:10EF30000190BDF8D000401E00B2ADF8D000BDF881
:10EF4000D000ADF8D4000398ADF8D6000298ADF823
:10EF5000D200BDF9D600BDF9D21000E018E0884219
:10EF600005D1BDF8D200401C00B2ADF8D20034ABE0
:10EF700035AA27A93A9810F078F8BDF8D000401CBF
:10EF800000B2ADF8D000019803900198029064E0BF
:10EF9000BDF8D400C01B00B2ADF80000BDF8D4002D
:10EFA000384400B2ADF80400BDF8D600A0EB0A006A
:10EFB00000B2ADF80200BDF8D600504400B2ADF882
:10EFC0000600A9F101001290606830F9180047F6B8
:10EFD000FF71884201D035A800E000200D906068E4
:10EFE00030F9160047F6FF71884201D034A800E0DE
:10EFF00000200E90CDF81CD0606830F918001490F5
:10F0000004AA1A21584612F0A7FD606830F91800CA
:10F0100047F6FF7188420AD0606830F916008842CE
:10F0200005D034AB35AA27A93A9810F01EF877B16D
:10F03000BAF1000F0BD0606830F9180047F6FF7185
:10F04000884204D06A4619A93A9810F0C9FF04AA68
:10F050001B21584612F080FD00BFB04600BF09F1E9
:10F0600001001FFA80F9B5F8820048453FF7D7AE96
:10F0700000BF1898E8BBB5F8820048453DD16068EC
:10F0800030F9160047F6FF71884236D0BDF8D0003F
:10F09000C01B00B2ADF80000BDF8D000384400B28B
:10F0A000ADF80400BDF8D200A0EB0A0000B2ADF844
:10F0B0000200BDF8D200504400B2ADF80600A9F13C
:10F0C0000100129000200D900E90CDF81CD06068C9
:10F0D00030F91600149004AA1A21584612F03CFD8B
:10F0E0006A4619A93A9810F07BFF04AA1B215846DA
:10F0F00000E002E012F030FD00BF00BF214605F144
:10F100002400F5F759FC0446002C7FF428AE3A9908
:10F110003698886000BF77E5A8DA03082DE9F34F39
:10F12000B3B08146349809F11401826831A8F4F72C
:10F1300081F910B935B0BDE8F08F3498806830900F
:10F1400031A9349881604D46002148461AF041F8B3
:10F150002D90002148461AF056FA2C90002148467E
:10F160001AF0BDFB2B90484619F05FF8B5F88410F3
:10F170004843001200B22A90484619F037F8B5F813
:10F1800086104843001200B22990484619F0B8F999
:10F190000146B9F814202C9802442D981044401AC6
:10F1A00000B22890484619F0A5FA0146B9F8162091
:10F1B0002B9802442D981044401A00B2279024A89E
:10F1C0000FF06AFF24AA4FF4A02148461BF014F860
:10F1D00016A810F021FF16AA4FF4003148461BF084
:10F1E0007FF84FF4003148461AF0FBFD064600EB6D
:10F1F000D67047104FF4003148461AF064F80646BE
:10F2000000EBD6704FEA6008BDF99200474501DA7D
:10F21000394600E0414600EBD072B1EB620F06DDEB
:10F220009DF8990020F0100010308DF89900BDF87D
:10F230009200012806D19DF8990020F010001030AE
:10F240008DF8990005F12400F5F7BCFB044698E120
:10F25000207B00F0010000B18DE12089ADF8900025
:10F260002089ADF85C0095F88800C0F3C00008B9AB
:10F27000608900E0002006B215962898ADF8BC0021
:10F280002898ADF8B800159E159EB346606830F812
:10F2900016000A2847D02A980090236833F91600F0
:10F2A000237BC3F3C00C05F1780333F91C20237BC7
:10F2B000C3F3C00C05F1740333F91C10002316F0DE
:10F2C000DFFD00B2ADF8B800BDF8B81028980844CA
:10F2D00000B2ADF8B80029980090636833F91600C1
:10F2E000237BC3F3001C05F1700333F91C20237B3F
:10F2F000C3F3001C05F16C0333F91C10002316F056
:10F30000BFFD00B2ADF8BA00BDF8BA102998401A96
:10F3100000B2ADF8BA00BDF8BA102798084400B2A0
:10F32000ADF8BA0005E04EF20100ADF8B800ADF856
:10F33000BA0003A8349918F08DFC4FF4A020109067
:10F34000944804900320059024A8099016A80790DB
:10F3500014944FF0000AC8E0BDF8B800ADF8BC0046
:10F36000BDF8BA00ADF8BE0015985044B5F882104B
:10F3700090FBF1F201FB120006B2606830F9160052
:10F3800047F6FF71884247D029980090636833F9A7
:10F390001600237BC3F3001C05F1700333F91C2016
:10F3A000237BC3F3001C05F16C0333F91C1000230D
:10F3B00016F066FD00B2ADF8BA00BDF8BA10299893
:10F3C000401A00B2ADF8BA00BDF8BA102798084448
:10F3D00000B2ADF8BA002A980090236833F91600FD
:10F3E000237BC3F3C00C05F1780333F91C20237B86
:10F3F000C3F3C00C05F1740333F91C10002316F09D
:10F400003FFD00B2ADF8B800BDF8B8102898084428
:10F4100000B2ADF8B80001E0B34662E0BAF1000F07
:10F420005DD0BDF8BC00C01B00B2ADF80400BDF853
:10F43000BC00384400B2ADF80800BDF8BE00A0EB37
:10F44000080000B2ADF80600BDF8BE00404400B2AE
:10F45000ADF80A00AAF101001190606830F91B00B4
:10F4600047F6FF71884201D02FA800E000200C90E1
:10F47000606830F9160047F6FF71884201D02EA867
:10F4800000E000200D9001A80690606830F91B0094
:10F49000139003AA1A21484612F05EFB606830F907
:10F4A0001B0047F6FF71884213D0606830F91600E0
:10F4B00088420ED02EAB2FAA24A934980FF0D5FD88
:10F4C0003FB1B8F1000F04D001AA16A9349810F08A
:10F4D00087FD03AA1B21484612F03EFB00BFB3463E
:10F4E00000BF0AF101001FFA80FAB5F8820050450A
:10F4F0003FF732AFB5F8820050453BD1606830F934
:10F50000160047F6FF71884234D0BDF8B800C01B22
:10F5100000B2ADF80400BDF8B800384400B2ADF850
:10F520000800BDF8BA00A0EB080000B2ADF8060074
:10F53000BDF8BA00404400B2ADF80A00AAF10100DB
:10F54000119000200C900D9001A80690606830F991
:10F550001600139003AA1A21484612F0FDFA01AAD8
:10F5600016A9349810F03CFD03AA1B21484612F05E
:10F57000F3FA00BF00BF214605F12400F5F71CFA9D
:10F580000446002C7FF464AE34993098886000BF44
:10F59000D0E50000A8DA03082DE9F74FA2B00F4626
:10F5A000F88D10B925B0BDE8F08F97F83600022825
:10F5B00000DCF7E7F88D012808D1B7F934000028FE
:10F5C00004DC388E10B9788E00B9EBE724980088F7
:10F5D000398E0844B98E401A00B2ADF880002498E4
:10F5E0008088398E0844B98E084400B2ADF8840092
:10F5F00024984088798E0844B98E401A00B2ADF83C
:10F6000082002498C088798E0844B98E084400B2DC
:10F61000ADF88600B7F92E0000EBD071BDF8802060
:10F62000A2EB6101491E09B2ADF87810B7F92E00BE
:10F6300000EBD071BDF8842002EB6101491C09B2D6
:10F64000ADF87C10B7F92E0000EBD071BDF8822028
:10F65000A2EB6101491E09B2ADF87A10B7F92E008C
:10F6600000EBD071BDF8862002EB6101491C09B2A4
:10F67000ADF87E1097F836001D901D98FD2801DD2D
:10F68000FF201D9022981EA982681BA8F3F7D2FEC6
:10F6900000B987E719A824990BF0D0FC4FF0FF328E
:10F6A000114619A80BF0EAFDB7F9008019A80BF074
:10F6B000ADFD834619A80BF021FD834503DA19A897
:10F6C0000BF0A4FD02E019A80BF018FD1890189893
:10F6D000B8EB600F02DD18984FEA6008B7F9000038
:10F6E000179020A80BF092FD834620A80BF006FD92
:10F6F000834503DA20A80BF089FD02E020A80BF077
:10F70000FDFC1890DDE91701B0EB610F02DD1898E0
:10F7100040101790B7F92E1017980C1804FB04F13D
:10F72000480016F0FBFB8246B7F92E20179803B26B
:10F73000514620A824F07DFC1EA80FF0DFFF169094
:10F740004FF00109169820B9F878FF2801DBB87846
:10F7500008B14FF000094FF0FF300F90B9F1000FE2
:10F760000BD101230FFA88F219A910A810F03EFB63
:10F77000002110A80FF0BCFC0F901EA80BF046FD56
:10F78000834616F0CBFB0E901C2102A816F06FFEEC
:10F790000CA8029007900E980590B88DADF8100057
:10F7A00097F836008DF82000B8788DF821001EA853
:10F7B0000BF02CFD834600EBDB70BDF8781001EBFD
:10F7C000600000B201901EA80BF098FC834600EB8D
:10F7D000DB70BDF87A1001EB600000B20090BDF85C
:10F7E0007C00ADF83400BDF87C00001B401C00B26A
:10F7F000ADF83000BDF87A00ADF83200BDF87A00FF
:10F800002044401E00B2ADF83600BDF9301001981A
:10F81000814202DDBDF9300000E00198ADF8300012
:10F82000BDF936100098814202DABDF9360000E0D9
:10F830000098ADF8360022980CA982680AA8F3F760
:10F84000F9FD002866D00FFA88F219A90AA8F3F783
:10F8500032FE00285ED10AA80BF0D8FC834656463B
:10F86000BDF92A00BDF97A10401A00FB0466BDF903
:10F870002810BDF97C00001B401C081A0644B9F191
:10F88000000F09D00FFA88F219A90AA8F3F78EFE23
:10F8900010B10120099001E0CDF82490BBF1000FD8
:10F8A00037DD0E980590BDF82800ADF83000BDF8A2
:10F8B0002C00ADF8340002208DF81800BDF92A5054
:10F8C00023E0ADF83250ADF836500998A8B9224679
:10F8D00031460E9816F03DFCBDF928105B462A46CD
:10F8E0000E980FF0BBFE8DF818009DF81800012847
:10F8F00004D102208DF8180000E0059602A9229894
:10F9000010F0ACFD2644681C05B2BDF92E00A842DB
:10F91000D7DA00BFBDF87C00ADF83400BDF87C003C
:10F92000001B401C00B2ADF83000BDF87E00001B8B
:10F93000401C00B2ADF83200BDF87E00ADF83600D4
:10F94000BDF930100198814202DDBDF9300000E0C0
:10F950000198ADF83000BDF932100098401C81428A
:10F9600002DDBDF9320001E00098401C00B2ADF8A4
:10F97000320022980CA982680AA8F3F75BFD0028E0
:10F9800066D00FFA88F219A90AA8F3F794FDA8BB6C
:10F990000AA80BF03BFC83465646BDF93600BDF97C
:10F9A0002E10401A00FB0466BDF92810BDF97C003A
:10F9B000001B401C081A0644B9F1000F09D00FFAC9
:10F9C00088F219A90AA8F3F7F1FD10B101200990F6
:10F9D00001E0CDF82490BBF1000F38DD0E980590C2
:10F9E000BDF82800ADF83000BDF82C00ADF83400AB
:10F9F00002208DF81800BDF92E5024E028E0ADF863
:10FA00003250ADF836500998A8B9224631460E98C2
:10FA100016F09FFBBDF928105B462A460E980FF0A2
:10FA20001DFE8DF818009DF81800012804D1022051
:10FA30008DF8180000E0059602A9229810F00EFD3E
:10FA40002644681E05B2BDF92A00A842D7DD00BFD2
:10FA5000BDF87800204400B2ADF83000BDF87C005D
:10FA6000001B00B2ADF83400BDF87A00ADF83200EA
:10FA7000BDF87A002044401E00B2ADF83600BDF952
:10FA800036100098814202DABDF9360000E0009895
:10FA9000ADF8360022980CA982680AA8F3F7CAFCD0
:10FAA00000286FD00FFA88F219A90AA8F3F703FD0E
:10FAB000002867D10AA80BF0A9FB83465646BDF97A
:10FAC0002A00BDF93210401A00FB0466B9F1000F9C
:10FAD00009D00FFA88F219A90AA8F3F767FD10B147
:10FAE0000120099001E0CDF82490BBF1000F48DD22
:10FAF000099810B90E98059001E000200590BDF816
:10FB00002800ADF83000BDF82C00ADF83400BDF988
:10FB10002A5032E0ADF83250ADF836500998C8B9E5
:10FB200031785A460E9816F068FCBDF928105B46ED
:10FB30002A460E980FF092FD8DF818009DF81800D7
:10FB4000012802D102208DF8180002A9229810F095
:10FB500085FC0FE01D98FF2801D1307804E0307853
:10FB600097F83610484300128DF8200002A9229819
:10FB700010F074FC2644681C05B2BDF92E00A842A2
:10FB8000C8DA00BF97F836008DF82000BDF878007D
:10FB9000204400B2ADF83000BDF87C00001B00B27C
:10FBA000ADF83400BDF87E00001B401C00B2ADF87B
:10FBB0003200BDF87E00ADF83600BDF93210009875
:10FBC000401C814202DDBDF9320001E00098401C7A
:10FBD00000B2ADF8320022980CA982680AA8F3F7A7
:10FBE00029FC00287ED00FFA88F219A90AA8F3F799
:10FBF00062FC002878D10AA80BF008FB8346564621
:10FC0000BDF93600BDF92E10401A00FB0466BBF1A9
:10FC1000000F66DDB9F1000F09D00FFA88F219A9BB
:10FC20000AA8F3F7C3FC10B10120099001E0CDF858
:10FC30002490099810B90E98059001E000200590D5
:10FC4000BDF82800ADF83000BDF82C00ADF8340048
:10FC5000BDF92E5041E0ADF83250ADF83650B9F153
:10FC6000000F09D00FFA88F219A90AA8F3F79EFC31
:10FC700010B10120099001E0CDF824900998C8B98D
:10FC800031785A460E9816F0B8FBBDF928105B463D
:10FC90002A460E980FF0E2FC8DF818009DF8180027
:10FCA000012802D102208DF8180002A9229810F034
:10FCB000D5FB0FE01D98FF2801D1307804E03078A3
:10FCC00097F83610484300128DF8200002A92298B8
:10FCD00010F0C4FB2644681E05B2BDF92A00A842F4
:10FCE000B9DD00E000E000BF97F836008DF8200095
:10FCF000BDF87C00001B401C00B2ADF83000BDF820
:10FD00007C00ADF83400BDF87A00204400B2ADF8B4
:10FD10003200BDF87E00001B00B2ADF83600BDF920
:10FD200032100098401C814202DABDF9320001E035
:10FD30000098401C00B2ADF83200BDF936100098B2
:10FD4000814202DDBDF9360000E00098ADF83600D2
:10FD5000BDF930100198814202DDBDF9300000E0AC
:10FD60000198ADF8300022980CA982680AA8F3F730
:10FD700061FBE0B30FFA88F219A90AA8F3F79BFB1D
:10FD8000A8BB0AA80BF042FA83465646601E00FB49
:10FD90000466BDF92810BDF97C00001B401C081A40
:10FDA0000644B9F1000F09D00FFA88F219A90AA880
:10FDB000F3F7FCFB10B10120099001E0CDF824908D
:10FDC000099808B1304600E00E980590BBF1000F8D
:10FDD00033DDBDF82800ADF83000BDF82C00ADF8DB
:10FDE000340002208DF81800BDF92A5021E025E0EA
:10FDF000ADF83250ADF836500998A0B95A463146A0
:10FE00000E9816F0A6F9BDF928105B462A460E9802
:10FE10000FF024FC8DF818009DF81800012802D17D
:10FE200002208DF8180002A9229810F017FB681C18
:10FE300005B2BDF92E00A842DADA00BF5646002509
:10FE400015E030463319591E002208E0037891F876
:10FE500000C080F800C00B70401C491E521C04EB0F
:10FE6000D47CB2EB6C0FF1DB2644681C05B2A542D2
:10FE7000E7DBBDF87800ADF83000BDF8780020442D
:10FE8000401E00B2ADF83400BDF87A00204400B244
:10FE9000ADF83200BDF87E00001B00B2ADF83600B0
:10FEA000BDF932100098401C814202DABDF93200DF
:10FEB00001E00098401C00B2ADF83200BDF93610E8
:10FEC0000098814202DDBDF9360000E00098ADF8EF
:10FED0003600BDF934100198401E814202DABDF9A6
:10FEE000340001E00198401E00B2ADF834002298C1
:10FEF0000CA982680AA8F3F79DFAD0B30FFA88F22A
:10FF000019A90AA8F3F7D7FA98BB0AA80BF07EF94B
:10FF100083465646601E00FB0466BDF92800BDF905
:10FF20003010401A0644B9F1000F09D00FFA88F2D8
:10FF300019A90AA8F3F73AFB10B10120099001E0D2
:10FF4000CDF82490099808B1304600E00E9805904D
:10FF5000BBF1000F33DDBDF82800ADF83000BDF86F
:10FF60002C00ADF8340002208DF81800BDF92A509D
:10FF700021E025E0ADF83250ADF836500998A0B92F
:10FF80005A4631460E9816F0E4F8BDF928105B4643
:10FF90002A460E980FF062FB8DF818009DF81800A5
:10FFA000012802D102208DF8180002A9229810F031
:10FFB00055FA681C05B2BDF92E00A842DADA00BF76
:10FFC000BDF87800ADF83000BDF878002044401E40
:10FFD00000B2ADF83400BDF87A00ADF83200BDF8DB
:10FFE0007A002044401E00B2ADF83600BDF934104E
:10FFF0000198401E814202DABDF9340001E0019807
:020000040801F1
:10000000401E00B2ADF83400BDF9361000988142B0
:1000100002DABDF9360000E00098ADF8360022980B
:100020000CA982680AA8F3F705FAD0B30FFA88F290
:1000300019A90AA8F3F73FFA98BB0AA80BF0E6F84B
:1000400083465646BDF92A00BDF93210401A00FB1E
:100050000466BDF92800BDF93010401A0644B9F114
:10006000000F09D00FFA88F219A90AA8F3F79EFA2F
:1000700010B10120099001E0CDF824900E98059070
:10008000BBF1000F36DDBDF82800ADF83000BDF83B
:100090002C00ADF8340002208DF81800BDF92A506C
:1000A00024E028E0ADF83250ADF836500998A8B9F0
:1000B000224631460E9816F04CF8BDF928105B46E2
:1000C0002A460E980FF0CAFA8DF818009DF818000D
:1000D000012804D102208DF8180000E0059602A93D
:1000E000229810F0BBF92644681C05B2BDF92E0019
:1000F000A842D7DA00BFBDF87800ADF83000BDF8EF
:1001000078002044401E00B2ADF83400BDF87E00F7
:10011000001B401C00B2ADF83200BDF87E00ADF807
:100120003600BDF932100098401C814202DDBDF955
:10013000320001E00098401C00B2ADF83200BDF979
:1001400034100198401E814202DABDF9340001E00A
:100150000198401E00B2ADF8340022980CA98268C4
:100160000AA8F3F767F9D0B30FFA88F219A90AA819
:10017000F3F7A1F998BB0AA80BF048F88346564656
:10018000BDF93600BDF92E10401A00FB0466BDF91A
:100190002800BDF93010401A0644B9F1000F09D00B
:1001A0000FFA88F219A90AA8F3F700FA10B1012092
:1001B000099001E0CDF824900E980590BBF1000F56
:1001C00036DDBDF82800ADF83000BDF82C00ADF8E4
:1001D000340002208DF81800BDF92E5024E028E0EC
:1001E000ADF83250ADF836500998A8B922463146DC
:1001F0000E9815F0AEFFBDF928105B462A460E9802
:100200000FF02CFA8DF818009DF81800012804D181
:1002100002208DF8180000E0059602A9229810F03F
:100220001DF92644681E05B2BDF92A00A842D7DD93
:1002300000BFBDF87800204400B2ADF83000BDF832
:100240007C00001B00B2ADF83400BDF87A002044F9
:1002500000B2ADF83200BDF87E00001B00B2ADF870
:1002600036000E98059022980CA982680AA8F3F728
:10027000E1F8A0B30FFA88F219A90AA8F3F71BF95D
:1002800068BB0AA80AF0C2FF8346BBF1000F25DD58
:10029000BDF82800ADF83000BDF82C00ADF83400F2
:1002A000BDF92A5016E0ADF83250ADF83650594637
:1002B0000E9816F013F9BDF928105B462A460E98E1
:1002C0000FF0CCF98DF8180002A9229810F0C6F8AA
:1002D000681C05B2BDF92E00A842E4DA00BFB9F1EE
:1002E000000F05D110A80FF0E5F90F980FF066FE8A
:1002F000504615F08FFE0E9815F08CFE00BFFFF7EC
:1003000051B900002DE9F74FDEB05E985D9060981E
:100310000AF08AFF804600EBD8704FEA600A6098C6
:100320000AF0FAFE074600EBD7704010824507DA64
:1003300060980AF079FF064606EBD670401006E09A
:1003400060980AF0E9FE054605EBD570401000B252
:100350005B90609801885B98084400B2ADF870012A
:10036000609841885B98084400B2ADF8720158A8C3
:100370000EF092FE58AA4FF4C0215E9819F03CFF8F
:100380009DF8690120F0100010308DF8690150A827
:100390000EF036FE50AA4FF4C0215E9819F0C5FE4B
:1003A0002CA85F9917F056FCFE482D904FF4C02002
:1003B000399003202E9058A832905D982430F4F79D
:1003C00001FB044641E23D94A18B5B98084406B2D0
:1003D000A088301A00B22B90A089301A0FFA80FA48
:1003E000BDF870112B98081A00B2ADF8A400BDF842
:1003F00072112B98081A00B2ADF8A600BDF8701162
:100400002B98084400B2ADF8A800BDF872112B98E3
:10041000084400B2ADF8AA00012347F6FF7229A9EB
:100420004AA80FF0E3FCBDF87001A0EB0A0000B28F
:10043000ADF89C00BDF87201A0EB0A0000B2ADF867
:100440009E00BDF870015044401E00B2ADF8A000FF
:10045000BDF872015044401E00B2ADF8A200012365
:1004600047F6FF7227A944A80FF0C0FCBDF8700141
:10047000801B00B2ADF89400BDF87201801B00B281
:10048000ADF89600BDF870013044401E00B2ADF8E2
:100490009800BDF872013044401E00B2ADF89A00D9
:1004A000002347F6FF7225A93EA80FF09FFC00210C
:1004B0003EA80EF01DFE24904FF0FF30239060897F
:1004C00010B16089401E01E04FF6FF7022904FF09E
:1004D0000009A4E12298401C22900020219061890B
:1004E0002298814203D10020229001202190A0690E
:1004F00000906088421E00214846636915F0C0FCE8
:1005000007463C97219810B12089209001E020688F
:10051000209020981F90219808B1E08900E0E088A1
:100520000FFA80F8CDF87880DDF878805D9830306B
:10053000F4F748FA05465FE02879022800D055E034
:10054000A868B84251DCE868B8424EDB288A4044CB
:100550000FFA80F8698AA88A814202D1688A2090BD
:1005600043E0A87D00F0010050B1FF20009000237F
:100570003846D5E9021215F083FCC0B2139009E0A9
:10058000FF20009000233846D4E9051215F078FCCE
:10059000C0B21390A98A1191698A1291139800F13F
:1005A000040C4FEAEC00BDF848C04CEA0C4CDFF8F4
:1005B000F8E10CEA0E01BDF844C04CEA0C4C0CEA20
:1005C0000E03A3EB010C0CFB00FC01EB5C1C0CEA22
:1005D0000E0242EA124C1FFA8CFCCDF840C0BDF866
:1005E00040E0F446CDF880C000BF00BF29465D98CA
:1005F0003030F4F7E1F90546002D9DD1E08B00FB8A
:1006000009F001026088401E91FBF0F01D901D98DA
:1006100000121C901C98401C1B901D9800F0FF0BB2
:10062000228C1C99114408B21FF0FEFF1A90228CF4
:100630001B99114408B21FF0F7FF1990CBF5807198
:100640001A984143199800FB0B1000121890228C45
:100650001C99114408B21FF0DFFF1790228C1B99E0
:10066000114408B21FF0D8FF1690CBF5807117988F
:100670004143169800FB0B1000121590BDF8800046
:10068000ADF86001ADF86281BDF8702106EB08019C
:10069000159848437F3002EBE03000B2ADF85000CF
:1006A000BDF8722106EB0801189848437F3002EB31
:1006B000E03000B2ADF8520014A835905CA8359037
:1006C000CDF8E89050A83190219800287CD024984B
:1006D0000FF074FCB4F91000AAEB00001390BDF801
:1006E00070211399159848437F3002EBE03000B237
:1006F000ADF84800BDF872211399189848437F302F
:1007000002EBE03000B2ADF84A00202250A90AA85E
:1007100015F01FFD0AA831903B4624A2102106A81F
:100720001DF0F0FA06A837902CAA1A215E9811F055
:1007300013FA002141F6FF72BDF95201CDE9012102
:100740000090BDF9543105A8509A379920F05AF815
:10075000BDF9140000EBD071BDF84820A2EB610197
:1007600009B2ADF80C10BDF9160000EBD071BDF860
:100770004A20A2EB610109B2ADF80E10BDF80C00E1
:10078000BDF81410084400B2ADF81000BDF80E001A
:10079000BDF81610084400B2ADF812000020009019
:1007A00003AA06E0E0DF03081FF8E0072564000065
:1007B0000AE0379B31995F980EF06EF800213EA851
:1007C0000EF096FC249007E00020319037902CAA80
:1007D0001A215E9811F0C0F9219909B144A900E0ED
:1007E0004AA9084600210EF083FC23905CAB14AAB2
:1007F00058A95F980EF039FC23980FF0DFFB2CAA64
:1008000016215E9811F0A8F9BDF87C00ADF86001E2
:100810001E98ADF8620109F1010000F0FF0960883F
:1008200048453FF757AE4AA80EF044FF44A80EF0E3
:1008300041FF3EA80EF03EFF24980FF0BFFB21467B
:100840005D982430F4F7B8F80446002C7FF4BBAD73
:1008500061B0BDE8F08F00002DE9F04FB1B0054662
:100860008B4690462E464146284603F0DFFB044661
:100870002089C0F30E00012802DC31B0BDE8F08F02
:100880002089C0F3C03020B9208810B9608800B931
:10089000F3E70021284618F0B6FE824600212846DC
:1008A00018F097FC504400B22E90284617F0BDFC7B
:1008B000B6F884104843001200B22D9025A80EF01F
:1008C0009FFB25AA4FF4C021284619F02EFC28468C
:1008D00017F016FE0146AA8A2E981044401A00B25C
:1008E0002490B8F1020F0ED12089C0F3C03028B196
:1008F0004FF4C021284618F0A9FD00E00020239005
:10090000B5F91A900DE02089C0F3C03028B14FF43A
:10091000C021284618F0E3FF00E000202390B5F93D
:100920001690B8F1020F16D1DBF80800B0F90600F6
:10093000484500DAA1E7239848442599B1F9081001
:100940000844B4F900100844DBF80810B1F90210AB
:10095000884200DA91E720A80EF09EFB20AA4FF40F
:10096000C021284619F048FC0020ADF88600ADF8FB
:10097000840059460EA817F06DF9A6480F9006207E
:10098000109002201C904FF4C0201B9025A81390BB
:1009900020A81490B8F1020F01D0012000E000203F
:1009A0000D9096F8880000F00700022822D100215F
:1009B000284618F0DAFDB6F8841048434FEA202A9A
:1009C0002D985044B6F8821090FBF1F000B20B90D5
:1009D0000B99A1EB0A0000EBD0714A102499114445
:1009E00009B224910B98A0EB0A012D98401A00B28D
:1009F0002D9000BFADF8C2902089C0F30E00401EBC
:100A00006168C1F30E4148430C900027FBE00020D1
:100A10000B906068C0F30E40B7FBF0F100FB117063
:100A200008B901200B90BDF982102D98401A784327
:100A30000C99B0FBF1F12498084400B2ADF8C00065
:100A4000ADF8BC000D9868B1BDF9C2100B9810B19B
:100A5000B4F9000001E0B4F90200081A00B2ADF8E0
:100A6000BE000CE0BDF9C2100B9810B1B4F9000043
:100A700001E0B4F90200084400B2ADF8BE0030A8AD
:100A800017902FA8189096F8880000F00700032808
:100A900010D106F178000D9930F91100009006F19F
:100AA000740030F91130002138460C9A15F0E8F93D
:100AB000824604E06068C0F30E40B7FBF0FACDF860
:100AC00078A00B98002871D02089C0F3C03000288E
:100AD0006CD0534650A2102107A81DF013F925A889
:100AE000139007A8199010201A900EAA1A212846D0
:100AF00011F032F8002141F6FF72BDF9A600CDE9F0
:100B000001210090BDF9A83006A8259A19991FF077
:100B100079FEBDF9180000EBD071BDF8BC20A2EB46
:100B2000610109B2ADF81010BDF9180000EBD071E9
:100B3000BDF8BC2002EB610109B2ADF814100D98AC
:100B400078B1BDF8BE102398081A00B2ADF81600AF
:100B5000BDF81600BDF81A10401A00B2ADF8120028
:100B60000EE0BDF8BE102398084400B2ADF81200A4
:100B7000BDF81200BDF81A10084400B2ADF8160016
:100B8000BDF91400B5F9141088420DDBBDF9101041
:100B9000B5F91800814207DC0020009004AA25A9BD
:100BA0005846199B0DF078FE09E0FFE700201390EE
:100BB00019901A900EAA1A21284610F0CDFFBDF9FF
:100BC000821001EBD172BDF9C03003EB6202B5F9BE
:100BD00014309A4211DBBDF9820000EBD072BDF9EE
:100BE000BC30A3EB6203B5F91820934205DC2FABB0
:100BF00030AA20A958460EF038FA0EAA1B21284622
:100C000010F0AAFF7F1C0C9887427FF600AF00BF50
:100C100033E60000A8DA0308256400002DE9F74F49
:100C2000B2B00546164631953146284603F0FEF926
:100C300004462089C0F30E00012802DC35B0BDE86F
:100C4000F08F2089C0F3C03020B9208810B96088A7
:100C500000B9F3E70EB1012000E000208346002137
:100C6000284618F0B6FA2E900021284618F037FED4
:100C70002D90284617F0BAFA3199B1F886104843FA
:100C8000001200B22C90284617F034FD0146EA8A83
:100C90002D9802442E981044401A00B22B904EB961
:100CA0004FF4C021284618F0AEFC0746B5F91400F1
:100CB0002A9008E04FF4C021284618F04DFD074661
:100CC000B5F918002A90B4F900002990B4F902008F
:100CD0002890012E07D12998404200B229902898E7
:100CE000404200B2289025A80EF0D6F925AA4FF46C
:100CF000C021284619F080FA1DA80EF081F91DAA1E
:100D00004FF4C021284619F010FA0BA8339916F0B9
:100D1000A1FF89480C9006200D90199600041890A8
:100D200025A811901DA810902089C0F30E00401E28
:100D30006168C1F30E4100FB01F94FF00008F6E0D5
:100D4000BDF996102C98401A00FB08F0B0FBF9F1A1
:100D50002B98084400B2ADF8C200ADF8BE002A9846
:100D6000ADF8C00036B9BDF8C000401E00B2ADF805
:100D7000C00005E0BDF8C000401C00B2ADF8C000E6
:100D800000200A906068C0F30E40B8FBF0F100FB51
:100D9000118008B901200A900A9838B1BDF8C01036
:100DA0002998081A00B2ADF8BC0006E0BDF8C010E2
:100DB0002898081A00B2ADF8BC0030A814902FA8EB
:100DC00015903198703030F91B00009031996C31DA
:100DD00031F91B30A9EB08004A46002115F050F804
:100DE0008246CDF86CA00A98002872D02089C0F302
:100DF000C03000286DD0534650A2102106A81CF028
:100E000081FF1DA8109006A81690102017900BAA1D
:100E10001A21284610F0A0FE002141F6FF72BDF90C
:100E20008600CDE901210090BDF9883005A81D9A02
:100E300016991FF0E7FCBDF9160000EBD071BDF864
:100E4000BE20A2EB610109B2ADF80E10BDF916008B
:100E500000EBD071BDF8BE2002EB610109B2ADF824
:100E60001210BBF1000F0FD1BDF8BC00BDF814107B
:100E7000401AC01B00B2ADF80C00BDF8BC00C01B8E
:100E800000B2ADF810000EE0BDF8BC00384400B26E
:100E9000ADF80C00BDF8BC00BDF81410084438448F
:100EA00000B2ADF81000BDF91210B5F9160081427C
:100EB0000DDBBDF90E10B5F91A00814207DC0020E8
:100EC000009003AA1DA9169B33980DF0E5FC09E0DC
:100ED000FFE700201090169017900BAA1A212846C1
:100EE00010F03AFEBDF9961001EBD172BDF9C23097
:100EF00003EB6203B5F91620934211DBBDF99600AE
:100F000000EBD072BDF9BE30A3EB6203B5F91A2035
:100F1000934205DC2FAB30AA25A933980EF0A5F833
:100F20000BAA1B21284610F017FE08F10108C8453E
:100F30007FF606AF00BF81E6A8DA0308256400004B
:100F40002DE9FE4F06460C461746984620213046AE
:100F500018F0D8FF00287DD00C98032803D1304624
:100F600017F0B4FB02E0304617F0BAFB814613F0ED
:100F70002DF805464FF0000A002002900C98032837
:100F800043D10021304618F017FB8346002130463C
:100F900018F0BBFB0190B9F1010F23D0B9F1020F9A
:100FA00028D0B9F1030F2ED106F114000AF0EFF8A2
:100FB000A0EB0B010198081A009000EBD0700BEB2E
:100FC0006000B18A08440FFA80FA05F114000AF0B3
:100FD000DEF8009000EBD070A98A01EB600000B24F
:100FE000029010E0B08A58440FFA80FAB5F9140064
:100FF000029008E0318B0198081A0FFA80FAB5F9CF
:101000001800029000BF00BF45E00021304618F0F4
:101010003FFC83460021304618F0F1F90190B9F108
:10102000010F25D0B9F1020F2AD0B9F1030F30D149
:1010300006F114000AF038F8A0EB0B010198081A29
:10104000009000EBD0700BEB6001F08A08440FFABF
:1010500080FA00E054E005F114000AF025F8009051
:1010600000EBD0704110E88A084400B2029010E012
:10107000F08A58440FFA80FAB5F91600029008E099
:10108000718B0198081A0FFA80FAB5F91A000290CC
:1010900000BF00BF00BFB8F1000F17DAB9F1000FB1
:1010A00005D00298504502DD2046BDE8FE8F002C99
:1010B00001DAA01E04B2002C01DDA01C04B22146FE
:1010C000E01704EB9070801000B2EEE7002F16DA04
:1010D000B9F1000F04D00298504501DA2046E4E748
:1010E000002C01DAA01E04B2002C01DDA01C04B209
:1010F0002246E01704EB9070801000B2D5E709E0BB
:1011000008EB0400002802DAC8F1000004B2381B22
:1011100000D53C462046C8E710B50446207EC0F303
:10112000800008B1002010BD207A232802D0242896
:1011300003D100E000BF0120F5E700BF00BF4FF47E
:101140008041606818F0DEFE08B90020EBE7207AE5
:1011500011381C2823D2DFE800F00E0F10111213F3
:10116000141516171822221922221A1D1B1C2222BE
:1011700022221E1F222000BF00BF00BF00BF00BFF1
:1011800000BF00BF00BF00BF00BF00BF00BF00BF67
:1011900000BF00BF00BF00BF00BF0020C3E70120A9
:1011A000C1E72DE9F041044612F0FCFE07469FB16D
:1011B0003868806818B1217A386882689047207E44
:1011C000C0F3400010B10120BDE8F081207E00F0A6
:1011D000010008B10020F7E701260EB9002003E066
:1011E0000021606817F078F805464FF0000827E006
:1011F0002868F0B1287A00F08000802819D1287A78
:10120000802805D0287A20F08000217A884210D1E9
:101210006868E060204629688847207EC0F3400067
:1012200008B10120D0E7207E00F0010008B10020C5
:10123000CAE708F101084146606817F04DF8054615
:101240000DB1012ED4D02146002016F029FF06460C
:101250000EB9002003E00021606817F03DF8054654
:101260004FF0000823E02868D0B1287A00F0800011
:10127000B0B9287A18B1287A217A884210D16868E2
:10128000E060204629688847207EC0F3400008B10E
:10129000012099E7207E00F0010008B1002093E7CB
:1012A00008F101084146606817F016F805460DB1CF
:1012B000012ED8D0012E11D16068406870B120464F
:1012C000FFF72AFF50B16068406860602046FFF772
:1012D00068FF0646012E01D0002075E7304673E70F
:1012E0002DE9F0438046DDE9074521B92A702270D7
:1012F0001A70BDE8F0834FEA282000F00209B9F126
:10130000000F04D000BF99462B464D4600BF00F0A9
:101310000409B9F1000F04D000BFA1462C464D4688
:1013200000BF00F00609B9F1000F09D100F0010972
:10133000B9F1000F0ED100BF994623464C4609E093
:1013400000F00109B9F1000F04D000BF994623460F
:101350004C4600BF22706FEA010909F0FF0602FB4C
:1013600006F74FEA272985F8009008F0FF0C00F0F7
:101370000109B9F1000F0DD1BCF1000F02D14FEA04
:10138000012905E0CCF1000909F0FF0909FB01F989
:101390004F4601E001FB0CF73E126FEA060909F027
:1013A000FF0602FB06F74FEA272983F8009000BFEB
:1013B0009FE72DE9F04706460F4690469946DDF82F
:1013C00020A000240BE0002506E03A197119012342
:1013D000504622F001FD6D1C4545F6DB641C4C4572
:1013E000F1DBBDE8F08700002DE9FF4F87B005462F
:1013F0008B469146DDE914A6584609F0F2FE0690A8
:10140000584609F06DFE05901798012804D002286F
:1014100004D0032806D103E0494F08E0494F06E015
:10142000494F04E000BF00BF0BB0BDE8F08F00BF24
:101430008EBB2888049028885246014602900A985C
:10144000B84703904FF0000821E0002418E0BDF8F1
:10145000100035F8141088420CD005EB44000088C9
:10146000049005EB440000885246014602900A9819
:10147000B847039005EB4400BDF80C100180641CD4
:1014800006988442E3DB05EB490508F1010805985D
:101490008045DADB51E0FFE70020029028880490C5
:1014A0003078FD2801DB504603E0307800FB0AF07D
:1014B000000A0190019A04990A98B84703904FF0E6
:1014C000000836E000242BE0305D00B927E0315DF4
:1014D0000298814205D1BDF8100035F814108842F9
:1014E00017D0305DFD2801DB504603E0305D00FB86
:1014F0000AF0000A019005EB4400008800900146C4
:10150000019A0A98B8470390305D029035F81400AC
:10151000049005EB4400BDF80C10018000BF641C72
:1015200006988442D0DB05EB49051698064408F17D
:10153000010805988045C5DB00BF00BF74E70000C7
:10154000B97F0008E58000085B8000082DE9FF4FA7
:1015500089B004469246DDE91685F3F747FD089009
:101560000A9809F03EFE81460A9809F0B9FD8346C3
:10157000002D78D1B8F1FD0F0CDB002707E04A46BB
:1015800020460C990BF0F0FE04EB4A047F1C5F45EB
:10159000F5DB7DE100BF0020014602464FEAD20C98
:1015A000BDF804306CF304034FEA910C0193BDF8CD
:1015B00004306CF34A134FEAD00C0193BDF80430A9
:1015C0006CF3CF230193BDF804C063460293BDF8CA
:1015D000081008460790424607990C980CF07EF8D0
:1015E00006900C9904A80291BDF80810C90A01FBE5
:1015F00008F10180BDF80810C1F3451101FB08F1A5
:101600004180BDF8081001F01F0101FB08F1818045
:1016100000BFC8F1FF000390002720E0002619E07A
:10162000BDF81C0034F8161088420DD004EB4600BB
:101630000088079004EB460000880290014604A849
:10164000039A0CF0D3F8069004EB4600BDF818108E
:101650000180761C4E45E3DB04EB4A047F1C5F45AA
:10166000DCDB15E1FFE7BDF8300000EB0040079040
:10167000B8F1FD0F6FDBA9F1040006900027B4E07C
:10168000002614E02878FF2803D1BDF83000208020
:101690000AE02A782088014604900C980CF01EF885
:1016A0000590BDF8140020806D1CA41C761C4E45CE
:1016B00003DA05F003000028E4D172E02868059001
:1016C0000598401CA8B904F0030048B1BDF83010DB
:1016D0002180A01C07990160BDF83010E18005E071
:1016E0002046079901600799416000BF08342D1D0D
:1016F00056E00598002851D02878FF2803D1BDF87E
:10170000300020800AE02A782088014603900C9857
:101710000BF0E4FF0490BDF8100020806D1CA41CA9
:101720002878FF2803D1BDF8300020800AE02A780D
:101730002088014603900C980BF0D0FF0490BDF870
:10174000100020806D1CA41C2878FF2804D1BDF84F
:10175000300020800BE04CE02A782088014603907E
:101760000C980BF0BBFF0490BDF8100020806D1C9E
:10177000A41C2878FF2803D1BDF8300020800AE09F
:101780002A782088014603900C980BF0A7FF04905C
:10179000BDF8100020806D1CA41C01E02D1D083434
:1017A000361D0698864289DD14E02878FF2803D18B
:1017B000BDF8300020800AE02A7820880146049095
:1017C0000C980BF08BFF0590BDF8140020806D1C69
:1017D000A41C761C4E45E8DBAAEB090004EB400490
:1017E0001898A0EB090005447F1C5F45FFF648AF41
:1017F0004DE000200490208806902088059000206D
:101800000390002740E0002635E0287888B3297847
:101810000498814209D02878FF2801D1404603E08E
:10182000287800FB08F0000A039029780498814288
:1018300005D1BDF8180034F81610884214D003986A
:10184000FF2802D10C98059009E004EB46000088BF
:1018500002900146039A0C980BF040FF05902878FF
:10186000049034F81600069004EB4600BDF81410FE
:1018700001806D1C761C4E45C7DB04EB4A041898AA
:10188000A0EB090005447F1C5F45BCDB00BF00BF27
:101890000DB0BDE8F08F2DE9FF4F85B081460C46B5
:1018A000DDE912A7F3F7A2FB804607BBB4F902609B
:1018B00018E0B4F9005010E0CDF808A0BDF8200001
:1018C000ADF8040030B20090D8F800002BB2D0F888
:1018D0001CC04946079AE0476D1CB4F90400A842B1
:1018E000EADA761CB4F90600B042E2DA2EE02046CD
:1018F00009F077FC8346204609F0F2FB04900026AD
:1019000020E0002519E0785DB0B1785D00FB0AF0B9
:10191000000A0290BDF82000ADF804006088304451
:1019200000B20090218829440BB2D8F80000D0F80A
:101930001CC04946079AE0476D1C5D45E3DB1498DF
:101940000744761C04988642DBDB00BF09B0BDE883
:10195000F08F10B502460B4610681C68A04201D1FA
:10196000012010BD0020FCE710B502460B46506870
:1019700020F040401C68A04203D2506820F0404054
:101980001860002010BD2DE9F04F89B004460020FA
:101990000890079012F006FB069006980068057EF6
:1019A000D4F820800027B946B4F91400002802DDDD
:1019B000B4F9140002E0B4F914004042B4F916106E
:1019C000002902DDB4F9161002E0B4F916104942FC
:1019D000884201DD012701E04FF00109CAE0102132
:1019E000404618F08FFAB0B94FF48071404618F0B5
:1019F00089FA08B907B1C1E04FF40071404618F008
:101A000081FA18B9B9F1000F00D0B7E0404616F0DE
:101A1000D1FC8046AEE0CA46CDF814900497BB4690
:101A2000404616F03FFD064606F0010008B90020CA
:101A3000049006F0020008B94FF0000B06F0040015
:101A400008B94FF0000A06F0080008B90020059018
:101A5000404616F04FFE0390404616F0C3FC02903D
:101A6000404616F04DFD0190404616F0C1FD009035
:101A70000398002802DC0298002811DDBAF1000F5B
:101A800003D0B4F91600A84206DA059840B1B4F9BB
:101A900016006942884203DCCDF820800C200790B4
:101AA0000198002802DC0098002811DD049818B184
:101AB000B4F91400A84207DABBF1000F08D0B4F95A
:101AC00014006942884203DCCDF82080032007908F
:101AD0000398002801DC4FF0000A0298002801DC7E
:101AE000002005900198002801DC00200490009857
:101AF000002801DC4FF0000B049818B1B4F9140071
:101B0000A84215DABBF1000F04D0B4F91400694201
:101B100088420DDDBAF1000F03D0B4F91600A842D7
:101B200006DA059878B1B4F91600694288420ADCF1
:101B30000FB1032000E00C2094F83C1060F3030187
:101B400084F83C101AE04FF48071404618F0DAF93E
:101B500008B907B112E04FF40071404618F0D2F90D
:101B600018B9B9F1000F00D008E0404616F022FC89
:101B7000804600BFB8F1000F7FF431AF00BF089876
:101B800058B194F83C10079860F3030184F83C10B6
:101B90000898A0620021A182E182089809B0BDE8FE
:101BA000F08F00002DE9FF4F83B00446204616F069
:101BB0008DFD0290029818B9002007B0BDE8F08FA3
:101BC00041F6FF750021204617F0F6FC074600217C
:101BD000204617F09AFD8246204616F0A4FA834666
:101BE0004FF000086AE0A068006850F828603949A2
:101BF000304618F092F900B15EE04FF48051304663
