:020000040800F2
:10000000B0A4012055030008573C00084F3C0008ED
:10001000533C0008B5190008714E000800000000AC
:100020000000000000000000000000009502000831
:10003000B919000800000000F1020008ED490008AD
:1000400079030008790300087903000879030008A0
:100050007903000879030008790300087903000890
:100060007903000879030008790300087903000880
:100070007903000879030008790300087903000870
:100080007903000879030008790300087903000860
:100090007903000879030008790300087903000850
:1000A0007903000879030008790300087903000840
:1000B0007903000879030008790300087903000830
:1000C0007903000879030008790300087903000820
:1000D00079030008214E000879030008790300081D
:1000E0007903000879030008790300087903000800
:1000F00079030008790300087903000879030008F0
:1001000079030008790300087903000879030008DF
:100110007903000879030008154A000879030008EC
:1001200079030008790300087903000879030008BF
:1001300079030008790300087903000879030008AF
:10014000790300087903000879030008790300089F
:10015000790300087903000879030008790300088F
:10016000790300087903000879030008790300087F
:1001700079030008790300087903000800000000F3
:10018000790300087903000800F002F800F072F823
:100190000AA090E8000C82448344AAF10107DA45E2
:1001A00001D100F067F8AFF2090EBAE80F0013F0C2
:1001B000010F18BFFB1A43F00103184784BA070068
:1001C000A4BA07000A444FF0000C10F8013B13F0EA
:1001D000070408BF10F8014B1D1108BF10F8015BA0
:1001E000641E05D010F8016B641E01F8016BF9D193
:1001F00013F0080F1EBF10F8014BAD1C0C1B09D1EA
:100200006D1E58BF01F801CBFAD505E014F8016B5B
:1002100001F8016B6D1EF9D59142D6D370470000ED
:100220000023002400250026103A28BF78C1FBD8FF
:10023000520728BF30C148BF0B60704766293EF0A7
:100240007681642900F09281782900F0CB817329AE
:1002500000F0E586002070471FB53EF063F900F01E
:10026000F5FE0400002000213DF00EFEE0601FBD01
:1002700010B510BD00F0A8FF1146FFF7EDFF33F0F9
:10028000B1FE00F0C6FF03B4FFF7F2FF03BC06F0B7
:1002900041FF00002C4B19680868B0E8F04F80F36C
:1002A0000988BFF36F8F4FF0000080F3118870470B
:1002B0000000000008480068006880F308884FF0DC
:1002C000000080F3148862B661B6BFF34F8FBFF3AE
:1002D0006F8F00DF00BF00BF08ED00E0DFF80C000B
:1002E000016841F470010160704700BF88ED00E0D3
:1002F000EFF30980BFF36F8F134B1A681EF0100FD6
:1003000008BF20ED108A20E9F04F106009B44FF0CB
:10031000500080F31188BFF34F8FBFF36F8F3CF015
:10032000A5FD4FF0000080F3118809BC196808682A
:10033000B0E8F04F1EF0100F08BFB0EC108A80F349
:100340000988BFF36F8F7047A4000020EFF305808A
:10035000704700000C48016841F4700101600B48CF
:1003600080470B480047FEE7FEE7FEE7FEE7FEE7B3
:10037000FEE7FEE7FEE7FEE7FEE700000548064968
:10038000044A064B7047000088ED00E0014A00086F
:1003900089010008B0940120B0A40120B09401208C
:1003A000704753EA020C00F069802DE9F04B4FF0E2
:1003B0000006002B1FBFB3FA83F503FA05F424FAF5
:1003C00005F65E4012BF1643B2FA82F502FA05F452
:1003D000C5F120051EBF22FA05FC44EA0C042035B5
:1003E00056EA044C4FEA144418BF641C4FF000084E
:1003F0004FF00009904271EB030C39D3002919BF6B
:10040000B1FA81F701FA07F6B0FA80F700FA07F6B9
:10041000C7F120071EBF20FA07FC46EA0C0620376A
:10042000B6FBF4FCA7EB0507103F07F01F0BCBF161
:1004300020060CFA0BFB2CFA06F644BFB346002646
:10044000202FA4BF5E464FF0000B5BEA060C08BFEE
:100450004FF0010B19EB0B09ABFB027C48EB0608D4
:10046000C01B06FB02CC0BFB03CC71EB0C01C1E7FC
:100470000B46024641464846BDE8F08B13B54FF0A7
:1004800000004FF00001AFF30080BDE81C40704752
:1004900010B54C1084EA530404D54042C1F1000168
:1004A00038BF491E1B4204D55242C3F1000338BF76
:1004B0005B1EFFF776FF14F0804F04D04042C1F17D
:1004C000000138BF491E14F0004F04D05242C3F15E
:1004D000000338BF5B1E10BD0FB4044910B503AA5A
:1004E000029800F0A1FD10BC5DF814FB1400002080
:1004F0000FB41CB5074B06AA7B44694600900598CB
:1005000000F063FD0020694600F072FD1CBC5DF840
:1005100014FB0000F50A000070B50C460546012AE0
:1005200005D02878800600D5EA69002302E001237F
:1005300005E05B1C934202D2E05C0028F9D1A86977
:10054000E618C01AA861286A184428622846AFF342
:10055000008004E0D5E9012114F8010B9047B44272
:10056000F8D32846AFF3008070BD00002DE9F041BC
:100570000646002410687529314616A510D0AFF341
:100580000080002802DA404213A507E031688A079C
:1005900001D512A502E0490704D511A5012401E007
:1005A000AFF3008000210A2206F1240709E0B0FB26
:1005B000F2FCB0FBF2F302FB1C003030785418461A
:1005C000491C0028F3D123462A463046BDE8F041B5
:1005D00000F08DBA000000002D0000002B0000008C
:1005E0002000000070B504460D4621461068AFF3A8
:1005F00000802188090502D50F4A7A4402E00E4A9C
:100600007A440E32002104F1240305E000F00F06C5
:100610000009965D5E54491C0028F7D1207800231C
:10062000000704D5702D02D009B1022311322046F3
:10063000BDE8704000F05BBADCAF07002DE9F05F69
:10064000894604464FF0000ADFF874B1FB44C0F855
:1006500020A02046E1688847002874D0252806D0CD
:10066000D4E901219047206A401C2062F1E700266E
:100670005F462046E16888472028054607DB312D84
:1006800005D2781910F8200C08B10643F1E7B0073D
:1006900001D526F00406C4F81CA00027C4F818A051
:1006A0002A2D09D0284604F037FC38B304EB87081C
:1006B000303DC8F8185019E059F8041B204604EBE7
:1006C00087029161E1688847012F054618D1E069EA
:1006D000002820DA26F020061DE0D8F8180000EBEC
:1006E000800005EB40003038C8F818002046E1686B
:1006F0008847054604F010FC0028EED1012F0AD0EF
:100700002E2D08D12046E16888477F1C0546022F20
:1007100046F02006C4DBA069002803DA404246F018
:100720000106A061F00701D026F010066C2D0BD059
:10073000682D09D04C2D39D06A2D35D0742D35D087
:100740007A2D33D016E038E0E1682F4620468847FE
:10075000B842054609D16C2F26D04FF48060E1687D
:10076000064320468847054604E06C2F1AD04FF414
:10077000807006430DB3A5F14100192802D8203539
:1007800046F400664A462946204626604E46FFF754
:1007900055FD80B101280BD0F61D26F0070000F1B1
:1007A000080956E74020E4E78020D8E70020D6E794
:1007B00006F104094DE7284652E7206ABDE8F09F9C
:1007C000B2AF070040EA0103024630B59B0710D1E3
:1007D0004FF0013400E008C208C91D1B9D4315EA13
:1007E000C41FF8D013F0FF0102F8011B0DD01B0A43
:1007F000F8E711F8013B002B02F8013B05D011F896
:10080000013B002B02F8013BF3D130BD10B5431C76
:1008100002E010F8011B71B18107FAD14FF00132EB
:1008200002C88C1A8C4314EAC211F9D0C01A0A0605
:1008300003D0C01E10BDC01A10BD0A0401D0801E16
:1008400010BD0902FCD0401E10BD032A40F23080CA
:1008500010F0030C00F0158011F8013BBCF1020F01
:10086000624498BF11F801CB00F8013B38BF11F882
:10087000013BA2F1040298BF00F801CB38BF00F899
:10088000013B11F0030300F02580083AC0F0088016
:1008900051F8043B083A51F804CBA0E80810F5E7FA
:1008A000121D5CBF51F8043B40F8043BAFF30080DD
:1008B000D20724BF11F8013B11F801CB48BF11F852
:1008C000012B24BF00F8013B00F801CB48BF00F822
:1008D000012B704710B5203AC0F00B80B1E81850DA
:1008E000203AA0E81850B1E81850A0E81850BFF41A
:1008F000F5AF5FEA027C24BFB1E81850A0E81850B9
:1009000044BF18C918C0BDE810405FEA827C24BF0C
:1009100051F8043B40F8043B08BF7047D20728BF9A
:1009200031F8023B48BF11F8012B28BF20F8023BE9
:1009300048BF00F8012B704702F0FF0343EA03228F
:1009400042EA024200F002B84FF000020429C0F06F
:10095000128010F0030C00F01B80CCF1040CBCF1F1
:10096000020F18BF00F8012BA8BF20F8022BA1EB43
:100970000C0100F00DB85FEAC17C24BF00F8012B28
:1009800000F8012B48BF00F8012B70474FF0000220
:1009900000B5134694469646203922BFA0E80C5075
:1009A000A0E80C50B1F12001BFF4F7AF090728BF50
:1009B000A0E80C5048BF0CC05DF804EB890028BFCC
:1009C00040F8042B08BF704748BF20F8022B11F0F5
:1009D000804F18BF00F8012B704700004FF0013C1A
:1009E00050F8042B51F8043B9A4221D1A2EB0C039E
:1009F000934313EACC1317D150F8042B51F8043B5E
:100A00009A4215D1A2EB0C03934313EACC130BD1FA
:100A100050F8042B51F8043B9A4209D1A2EB0C0385
:100A2000934313EACC13DBD04FF00000704700BFB4
:100A3000D01A01BAB1FA81F101F0180122FA01F0DD
:100A4000CB40C1F12001DBB2C0B2C01A2CFA01F3D5
:100A5000D11A914311EAC311E6D17047704770472C
:100A60007047704730B5B0F10A024FEA900E71F14D
:100A700000034EEA817EB0EB0E0061EB91014FEA7C
:100A8000101E4EEA017E10EB0E0041EB11114FEAF1
:100A9000102E4EEA016E10EB0E0041EB11214FEAD1
:100AA000104E4EEA014E10EB0E0041EB1141401882
:100AB00041F100014FEAD00040EA41704FEAD10114
:100AC00010EB80054FEA810444EA907444EB010482
:100AD0006D1944EB0404521BA3414FF0000348BFBF
:100AE0000A3200D530BD401C41F1000130BD2DE976
:100AF000F0470D4699469246044600F124080168E5
:100B0000880604D5E06921F01001216000E0012091
:100B1000A84201DD471B00E00027A1697A1902EB1A
:100B20000900081AA0612078C00602D42046AFF35D
:100B30000080002608E0D4E901211AF80600904759
:100B4000206A401C761C20624E45F4DB2078C006EB
:100B50000AD52046AFF3008006E0D4E90121302019
:100B60009047206A401C2062381EA7F10107F4DC80
:100B700007E0D4E9012118F805009047206A401CDD
:100B80002062281EA5F10105F3DC2046AFF30080AA
:100B90002078000602D50220BDE8F0870120FBE79F
:100BA00070472DE9FF4F0C461E464FF0FF378BB0C4
:100BB000D2E90001DDF860800A908A46C1F30A5547
:100BC00005B93D46002108464FF00000BAF1000F7C
:100BD00000F4400005DA00EB80004FF4400101EA28
:100BE00050004FEA9059B9F1010F00DDB9460A985B
:100BF00050EA4A000ED044F61050A5F2FF354543A6
:100C00002F14B8F1000F1ED07542291E1EDDC9F148
:100C100000021CE0B8F1010F4FF0000001D03021BC
:100C200003E0F24305E02154401CB042FBDB3046B8
:100C30000022002121540B99C1F80880C1E900204D
:100C40000FB0BDE8F08FBD1B6D1CDEE74A4600DA31
:100C5000694206A800F03EFA06AB93E8070003AB32
:100C600083E8070050460A9900F0DCFA8DE8070097
:100C7000A0F500501F3800900398002D0ADD42F2C5
:100C80001F014A460844002303A90390684600F068
:100C900045FD09E0A0F500504A461F38002303A98E
:100CA0000390684600F04FFD8DE807000004000C3B
:100CB00003D04FF0FF30410800E01046B8F1000FBC
:100CC00003D00022009215461EE0751E05D4FFF7E2
:100CD000C9FE303262556D1EF9D5B3460122084374
:100CE00002D000227F1C04E02078302801D10022AD
:100CF0007F1E002A099784D01DE0112D07DAFFF727
:100D0000B1FE303262556D1C50EA0102F5D1084344
:100D100002D00098C8B10EE00021681E05E0235CF7
:100D2000625C63542254401E491C8142F7DBAB468F
:100D3000A81B401E0990002004F80B000B98099A8C
:100D4000C0F80880C0E9002B7AE711264FF00008B0
:100D500057E72DE9F04F88460446D21D22F00701DF
:100D600091B0D1E90001CDE90A0104F083F802460F
:100D70000B98C00F01D02D2007E02068810701D516
:100D80002B2002E0202101EAC000032A099001D0B3
:100D9000072A05DB03464146204600F05BF90BE1DC
:100DA0002078800601D5E06900E00620B8F1650FE3
:100DB000814606D0B8F1660F18D0B8F1670F70D130
:100DC00031E00020B9F1110F009001DB112301E0A7
:100DD00009F101030AAA01A90CA8FFF7E2FEDDE967
:100DE0000C70002609F10105834647E001204B46BF
:100DF00000904FF000470AAA01A90CA8FFF7D1FE06
:100E0000DDE90DB00C995D46002610B909F101002D
:100E10000D18B9EB050003D4C0F1FF3609F1010547
:100E2000A5EB09002BE0B9F1010F01DA4FF0010940
:100E30000020B9F1110F0090484601DD112300E0B8
:100E400003460AAA01A90CA8FFF7ABFEDDE90C7066
:100E50004D4600268346207800070AD4AB4500DAC9
:100E60005D4601A8012D04DD411911F8011C30294E
:100E700007D04F4502DA17F1040F04DA0120824649
:100E80000FE06D1EEEE7002F02DCED1B3E4403E099
:100E9000781CA84200DD7D1CB81B00F1010A4FF050
:100EA00000472078000703D4AA4501DB4FF0FF3A42
:100EB0000021B7F1004F0DF143088DF8431024D005
:100EC00002202B23002F01DA7F422D230A21021E4C
:100ED000A0F1010000DC5FB197FBF1FC97FBF1F2A0
:100EE00001FB1C7C17460CF1300C08F801CDEEE735
:100EF000A8F1010003702188090501D5452100E012
:100F00006521A0F1010800F8011C09980FA9A1EBC7
:100F10000807FF1D00B10120411901EBEA70A1692A
:100F20003844081A401EA0612078C00602D420462A
:100F3000AFF30080099828B1D4E901219047206AD5
:100F4000401C20622078C00622D52046AFF30080E6
:100F50001EE0002E04DBB34502DD01A8805D00E049
:100F60003020D4E901219047206A401C2062761C81
:100F7000AAF101005FEA000A0AD100F067F8C06830
:100F80000168405CD4E901219047206A401C20623E
:100F9000281EA5F10105DCDC07E0D4E9012118F8E1
:100FA000010B9047206A401C2062381EA7F1010700
:100FB000F3DC2046AFF30080032011B041E60000CF
:100FC00001694A1C02610878704700B58FB0CDE90D
:100FD00001310021059105497944CDE903101146FD
:100FE0006846FFF72BFB0FB000BD0000E5FFFFFFD9
:100FF0000A6802F8010B0A60704710B5436913B123
:10100000AFF3008001E0FFF787FA012010BD1278EE
:1010100000F124010A7000224A700122EDE71168F4
:101020004FF0FF32E9E70000074B70B50D467B44F7
:10103000FFF7CBFF0446284600F0BEF810B14FF092
:10104000FF3070BD204670BD3F4F01000048704723
:10105000709401202DE9F0411F46044603260168E3
:10106000072A01F4006004DB08B116A505E016A507
:1010700003E008B115A500E015A521F010002060DF
:10108000A069C01EA0610FB1401EA0612046AFF351
:1010900000804FB1D4E9012138469047206A401CB6
:1010A0002062C01C206206E0206AFAE7D4E9012130
:1010B00015F8010B9047761EF8D22046AFF300805A
:1010C000BDE8F0814E414E006E616E00494E460013
:1010D000696E66002DE9F047814616468AB03548AC
:1010E00078440DC88DE80D0032487844801C03AC6C
:1010F0000DC884E80D0041F69B300844372190FB71
:10110000F1F290FBF1F5A5F1800501FB12041B3C07
:1011100002D56442012000E00020DFF898A080465C
:101120000027FA44AAF1BE0A0EE0E0070AD03246D0
:10113000684607EB470101230AEB810100F003FB3E
:101140008DE8070064107F1C002CEED1194F7F44FE
:10115000AE3F19E0E80715D007EB04100DF1180AAF
:1011600090E80E008AE80E00C068F04201D198199C
:1011700008903246012306A903A800F0E4FA03AB65
:1011800083E807006D10641C002DE3D14FF00103CC
:1011900032466946B8F1000F03A802D000F0BEFA4B
:1011A00001E000F0D0FAC9E90001C9F808200AB04E
:1011B000BDE8F087ACA50700007B00F08000704719
:1011C00000487047509401207546FFF7F9FFAE467E
:1011D00005006946534620F00700854618B020B543
:1011E000FFF7CCF8BDE820404FF000064FF00007B5
:1011F0004FF000084FF0000B21F00701AC46ACE8BF
:10120000C009ACE8C009ACE8C009ACE8C0098D462B
:10121000704710B50446AFF300802046BDE810408B
:10122000FFF731B85FEA400C08BF91F0000F4FEABA
:101230008C234FEAC12243EA51514FEA1C5018BF98
:1012400000F5F0404FEA300018BF41F000415FEA7E
:101250006C5C00F02980BCF1FF3F08BF40F080408B
:101260007047130C06BF12044FF0100C4FF0000C27
:10127000130E04BF12020CF1080C130F04BF12016D
:101280000CF1040C930F04BF92000CF1020CD30F6D
:1012900004BF52000CF1010C11464FF00002A0F106
:1012A0001F00A0EB0C00704711F0004F08BF704703
:1012B00031F000413FF4D5AF0B0C06BF09044FF0ED
:1012C000100C4FF0000C0B0E04BF09020CF1080CBF
:1012D0000B0F04BF09010CF1040C8B0F04BF890034
:1012E0000CF1020CCB0F04BF49000CF1010CCCF146
:1012F0002003A0EB0C0022FA03F302FA0CF241EAFD
:10130000030100F10100704720F07F4C80EA0300E8
:1013100023F07F47ACEB070303F57C5300F000405C
:1013200003F1FF032DE980494FEA154B09B44FEA59
:10133000144325EA0B4E24EA03480FF2042606EB79
:10134000132749083E785FEA320203FB0667C7F5B8
:10135000000707FB06F64FEA54374FEAD64606F178
:10136000020607FB066CCCF1005C4FEA1C472CEA36
:10137000074C07FB06F40CFB06F504EB15464FEA99
:10138000961634BF00204FF000404FEAD13706FBDD
:1013900007FC4FEA1C4C0CFB0BF7D21B03FB0CF7B2
:1013A00061EB07010CFB0EF7B0EB074072EB174245
:1013B0000CFB08F734BFA2EB0742B2EB074261EB2C
:1013C00017414FEA0C444FEA910706FB07FC4FEA2E
:1013D0001C4C0CFB0BF7B0EBC74072EB573203FB16
:1013E0000CF734BFA2EBC742B2EBC74261EB5731F7
:1013F0000CFB0EF7B0EBC70072EB57720CFB08F753
:1014000034BFA2EBC702B2EBC70261EB5771039F77
:101410004FEA816141EA921104EBCC044FEAD137E3
:101420004FEA826206FB07FC42EA90124FEA8060B4
:101430004FEA1C4C0CFB0BF7D21B03FB0CF761EBC8
:1014400007010CFB0EF7B0EB074072EB17420CFBE9
:1014500008F734BFA2EB0742B2EB074261EB17413A
:101460004FEA8C554FEA910704EB9C2406FB07FCDE
:101470004FEA1C4C0CFB0BF7B0EBC74072EB57323A
:1014800003FB0CF734BFA2EBC742B2EBC74261EBE0
:1014900057310CFB0EF7B0EBC70072EB57720CFB29
:1014A00008F734BFA2EBC702B2EBC70261EB57717A
:1014B00015EB4C254FEA816141EA92114FEA8262B5
:1014C0004FEAD13742EA901206FB07FC44F10004D0
:1014D0004FEA80604FEA1C4C0CFB0BF7D21B03FB5E
:1014E0000CF761EB07010CFB0EF7B0EB074072EB5A
:1014F00017420CFB08F734BFA2EB0742B2EB0742DE
:1015000061EB174115EB1C154FEA813141EA92411D
:101510004FEA823242EA90424FEA80304FEA0C763C
:1015200044F1000448EA03434EEA0B484FF0000E32
:10153000B2EB080C71EB030724BF624639464EEB51
:101540000E0E4FF0000B0018524149414BEB0B0BB4
:10155000B2EB080C71EB03077BF1000B24BF624672
:1015600039464EEB0E0E4FF0000B00185241494128
:101570004BEB0B0BB2EB080C71EB03077BF1000B91
:1015800024BF624639464EEB0E0E51EA020718BFE1
:1015900046F0010616EB0E7655F1000254F10001FB
:1015A00003D5BDE88901BDE80088BDE88901BDE833
:1015B0000048B619524141EB0101A3F10103704704
:1015C00080807F7E7D7C7B7A797877767675747380
:1015D000727171706F6E6E6D6C6C6B6A6A6968683F
:1015E000676666656464636362616160605F5F5ED5
:1015F0005E5D5D5C5C5B5B5A5A595958585757564B
:1016000056555555545453535252525151505050AF
:101610004F4F4F4E4E4D4D4D4C4C4C4B4B4B4A4A01
:101620004A49494948484847474747464646454545
:10163000454444444443434343424242424141417E
:10164000002B9C4630D477002BD01CB54FEA3707CF
:1016500003B44FF010004FF01001BAF1000F06D0A4
:10166000BCF1000FDCBF40F0080040F008014FF073
:1016700000000FBCBDE810400BF1010BBBF1010FE6
:1016800008BF5FEA170722BF12F1010211F1010141
:101690004FF0004143F1000300F0004043EA000036
:1016A0007047F9D35708D0E746EA064613F1400FD2
:1016B0004FEA16461FDD13F1200FDFBF16430A461F
:1016C000002120335B42BED0C3F1200746EA064624
:1016D00002FA07F74FEA164646EA0706C3F1200763
:1016E00022FA03F201FA07F721FA03F14FF000039F
:1016F00042EA0702A7E746EA020646EA06464FEA3A
:10170000164646EA0106BCBF46EA0646360C4FF0CE
:1017100000034FF000024FF0000194E72DE9804CE8
:101720009A46934670B491E8380007C831EA400CF5
:1017300048BF34EA430C03D5FFF7E6FDFFF780FF0F
:10174000F0BCBDE8008C2DE9804C9A46934670B4FD
:1017500091E8380007C810F0804F08BF13F0804FA1
:1017600003D100F005F8FFF76BFFF0BCBDE8008C7B
:1017700020F07F4780EA030023F07F4C07EB0C0347
:10178000A3F57C5300F00040A3F1FE0392F0000F9C
:1017900000F0B38095F0000F00F077802DE901494B
:1017A0004FEA11404FEA144621EA004800FB06FCCC
:1017B00024EA064708FB06F607FB08F800FB07F7D4
:1017C00018EB06484CEB164C4FEA124B18EB074847
:1017D0004FEA15464CEB174022EA0B4E0BFB06FC7A
:1017E00025EA06470EFB06F607FB0EFE0BFB07F786
:1017F0001EEB064E4CEB164C4FF000061EEB074E50
:101800004CEB174B18EB0B0840F1000018EB0E0BDC
:1018100058EB000840F100008F1A4FF000013CBF68
:10182000C943661B14BFB5EB040C00213CBFC94380
:10183000F61B4FEA17444EEA8E0E27EA04454FEA9C
:101840001C4704FB07622CEA074C05FB07F70CFB5F
:1018500005F604FB0CFC16EB074642EB174216EBB1
:101860000C4642EB1C421BEB060658EB02024141C0
:1018700046EA9E0601D5BDE80189B619524141EB01
:101880000101A3F10103BDE801894FEA14454FEAC4
:10189000114724EA054621EA074C05FB07F406FB3D
:1018A00007F70CFB06F105FB0CFC11EB074144EBC1
:1018B00017444FEA124711EB0C4144EB1C4422EA57
:1018C000074C05FB07F206FB07F70CFB06F605FBCA
:1018D0000CFC16EB074642EB174216EB0C4642EBAC
:1018E0001C456A1854F1000148BF7047B6195241AF
:1018F00041EB0101A3F10103704795F0000F37D0D0
:101900004FEA11424FEA144721EA024624EA074C03
:1019100002FB07F106FB07F70CFB06F402FB0CFCCD
:1019200014EB074441EB17414FEA154714EB0C4405
:1019300041EB1C4125EA074C02FB07F506FB07F7C4
:101940000CFB06F602FB0CFC16EB074645EB1745B5
:1019500016EB0C4645EB1C42121951F1000148BF31
:101960007047B619524141EB0101A3F101037047E1
:101970004FEA14454FEA114724EA054621EA074C8D
:1019800005FB07F106FB07F70CFB06F24FF000061C
:1019900005FB0CFC12EB074241EB174112EB0C422A
:1019A00051EB1C4148BF7047921841EB0101A3F174
:1019B0000103704700BFFEE77047000070B50446A2
:1019C0001D460023B5F5804F13D154F822300C4842
:1019D0000340D1E9000640EA06108E6840EA06207E
:1019E0008E8940EA06408E693043034344F8223032
:1019F00003E06FF0704044F82200002070BD00004A
:101A00000000F0CF10B503460022086853F82020EC
:101A100012480240D1E901042043CC6820430C69FC
:101A200020434C6920438C692043CC6920430C6AD5
:101A300020434C6A20438C6A2043CC6A2043CC6B01
:101A400020430C6B204302438868082801D142F0F0
:101A50004002086843F82020002010BD8000F0FFFD
:101A600030B503460024501C53F8204004F0404495
:101A7000D1E9000540EA05108D6840EA05208D890E
:101A800040EA0545088A401E45EA0055087D801E4B
:101A900045EA00608D6928430443501C43F8204008
:101AA000002030BD70B50446A56D00F099F90646DA
:101AB00094F83500022808D08020606500BF00201F
:101AC00084F8340000BF012070BD2068006820F059
:101AD0001600216808602068406920F080002168B5
:101AE0004861206C08B9A06C28B12068006820F01B
:101AF0000800216808602068006820F00100216863
:101B000008600FE000F06CF9801B05280AD920203E
:101B1000606500BF002084F8340000BF032084F813
:101B20003500D1E72068006800F001000028E9D105
:101B300094F85C103F208840A86000BF002084F823
:101B4000340000BF012084F835000020BCE70146C6
:101B500091F83500022803D08020486501207047A5
:101B6000052081F835000868006820F001000A6847
:101B700010600020F3E7000070B5044600F030F973
:101B800006462546681C10B104480078054400BF8D
:101B900000F026F9801BA842FAD370BD2400002073
:101BA000F8B502460B460025002400200021DEE0A7
:101BB000012606FA01F51E6806EA0504AC4275D155
:101BC0001E7906F00306012E04D01E7906F00306E6
:101BD000022E13D190684F000326BE40B0434F0041
:101BE000DE68BE4030439060506801268E40B043AE
:101BF0001E79C6F300168E40304350601E7906F001
:101C00000306032E09D0D0684F000326BE40B04320
:101C10004F009E68BE403043D0601E7906F0030638
:101C2000022E13D1CF0802F1200656F827004E07E6
:101C3000F70E0F26BE40B0434F07FF0E1E69BE4091
:101C40003043CF0802F1200646F8270010684F0005
:101C50000326BE40B0431E7906F003064F00BE4087
:101C6000304310605E6806F08056B6F1805F7DD12B
:101C700000BF00260096404E366846F480463E4F30
:101C80003E603E46366806F48046009600BF00BFC0
:101C90003A4E8F0856F827008E07370F0F26BE40A2
:101CA000B043374EB24202D1002624E05EE0354E0A
:101CB000B24201D101261EE0334EB24201D10226CA
:101CC00019E0324EB24201D1032614E0304EB24246
:101CD00001D104260FE02F4EB24201D105260AE0C1
:101CE0002D4EB24201D1062605E02C4EB24201D162
:101CF000072600E008268F073F0FBE4030431F4EE7
:101D00008F0846F82700264E3068A0435E6806F428
:101D10008036B6F5803F00D12043214E3060361D1D
:101D20003068A0435E6806F40036B6F5003F00D187
:101D300020431B4E361D3060361D3068A0435E6860
:101D400006F48016B6F5801F00D12043144E0836E5
:101D50003060361D3068A0435E6806F40016B6F5A4
:101D6000001F00D120430E4E0C363060491C102954
:101D7000FFF41EAFF8BD00004438024008380140AF
:101D8000000002400004024000080240000C024033
:101D9000001002400014024000180240001C0240E3
:101DA000003C0140024613690B400BB1012000E0EA
:101DB0000020704710B5426921EA020302EA0104DB
:101DC00043EA0443836110BD0AB1816101E00B0461
:101DD0008361704701480068000C7047002004E0F0
:101DE00001480068704700001C000020034800689C
:101DF0000349097808440149086070471C00002025
:101E00002400002010B50A48006840F4007008491A
:101E100008600846006840F480600860032000F015
:101E20007FF80F2000F006F800F02AF8002010BD1F
:101E3000003C024070B504460E4800784FF47A71B9
:101E4000B1FBF0F00C490968B1FBF0F5284601F050
:101E5000D7FB08B1012070BD102C07D2002221460B
:101E6000501E00F01EF80548046001E00120F2E772
:101E70000020F0E7240000200000002020000020C7
:101E8000704701460846002809DB00F01F030122C5
:101E90009A4043099B0003F1E023C3F8002100BFEF
:101EA00070472DE9F05F80460D461646002702F088
:101EB000F9FF074639462A46334601F00700C0F1CC
:101EC000070ABAF1040F02D94FF0040A01E0C0F189
:101ED000070AD14600F1040ABAF1070F02D24FF007
:101EE000000A01E0A0F1030AD4464FF0010A0AFA01
:101EF00009FAAAF1010A0AEA020A0AFA0CFA4FF0F0
:101F0000010B0BFA0CFBABF1010B0BEA030B4AEADA
:101F10000B042146404602F0CDFFBDE8F09F0000D3
:101F200000BF00F00702064B19684FF6FF03194087
:101F3000044B0B4343EA0221014B196000BF704779
:101F40000CED00E00000FA0570B504460D460CB932
:101F5000012070BD5848006800F00700A84209D26F
:101F600055490D700846006800F00700A84201D0EE
:101F70000120EEE7207800F0020002281DD1207831
:101F800000F00400042805D14C48006840F4E050FB
:101F90004A490860207800F00800082805D1474821
:101FA000006840F46040454908604448006820F0FB
:101FB000F000A168084341490860207800F0010062
:101FC000A8B36068012807D13C4808380068C0F30E
:101FD0004040B8B90120BCE76068022802D06068C0
:101FE000032807D1354808380068C0F3406048B975
:101FF0000120AEE7314808380068C0F3400008B956
:102000000120A6E72D48006820F00300616808431E
:102010002A490860FFF7E4FE064609E0FFF7E0FE04
:10202000801B41F28831884202D9032091E707E002
:102030002248006800F00C006168B0EB810FEDD120
:102040001D48006800F00700A84209D91A490D7020
:102050000846006800F00700A84201D0012078E798
:10206000207800F00400042807D11448006820F408
:10207000E050E168084311490860207800F008004A
:10208000082808D10D48006820F46040216940EA22
:10209000C1000A49086000F03FF808490968C1F327
:1020A0000311074A515CC8400649086006480068A9
:1020B000FFF7C0FE00204CE7003C02400838024019
:1020C00032E50308000000202000002001480068DD
:1020D000704700000000002000B5FFF7F7FF04493B
:1020E0000968C1F38221034A515CC84000BD000069
:1020F0000838024042E5030800B5FFF7E7FF04494E
:102100000968C1F34231034A515CC84000BD000078
:102110000838024042E503082DE9F0470024002575
:102120000026A1462548006800F00C0020B10428D4
:1021300005D008283AD105E0DFF8849039E0DFF8CF
:10214000849036E01D48001F006800F03F041B48E3
:10215000001F006800F4800078B11A481749091F71
:102160000968C1F38811A0FB0170014622460023D3
:102170003846FEF716F905460EE011480F49091FCB
:102180000968C1F38811A0FB0170014622460023B3
:102190003846FEF706F905460848001F0068C0F3F8
:1021A0000140401C4600B5FBF6F902E0DFF8109054
:1021B00000BF00BF4846BDE8F08700000838024075
:1021C0000024F40000127A00F8B504460CB901208E
:1021D000F8BD207800F00100002874D0F9480068AC
:1021E00000F00C0004280DD0F648006800F00C0048
:1021F000082813D1F348001F006800F48000B0F5F0
:10220000800F0BD1EF4808380068C0F34040002829
:1022100059D06068002856D10120D9E700BF606816
:10222000B0F5803F08D1E7480838006840F48030B6
:10223000E449083908601EE06068B0F5A02F0DD1B0
:10224000E0480838006840F48020DE49083908601A
:102250000846006840F4803008600CE0D94808382F
:10226000006820F48030D7490839086008460068C3
:1022700020F48020086000BF606890B1FFF7B0FDD7
:10228000054606E0FFF7ACFD401B642801D903209A
:102290009EE7CC4808380068C0F340400028F1D0E1
:1022A00011E0FFF79DFD054606E0FFF799FD401B95
:1022B000642801D903208BE7C24808380068C0F3BE
:1022C00040400028F1D1207800F0020002285FD1C0
:1022D000BC48006800F00C0058B1BA48006800F033
:1022E0000C0008281CD1B748001F006800F48000CB
:1022F000B0B9B44808380068C0F3400020B1E068C5
:10230000012801D0012063E7AE480838006820F0BA
:10231000F800216940EAC100AA490839086037E09D
:10232000E06800B30120A8490860FFF759FD0546A1
:1023300006E0FFF755FD401B022801D9032047E7BF
:10234000A04808380068C0F340000028F1D09D483C
:102350000838006820F0F800216940EAC100994976
:102360000839086014E0002097490860FFF738FD3D
:10237000054606E0FFF734FD401B022801D9032083
:1023800026E7904808380068C0F340000028F1D1E3
:10239000207800F0080008282CD16069A8B101203D
:1023A0008A490860FFF71CFD054606E0FFF718FDA7
:1023B000401B022801D903200AE782486C300068DC
:1023C000C0F340000028F1D014E000207F490860ED
:1023D000FFF706FD054606E0FFF702FD401B022859
:1023E00001D90320F4E677486C300068C0F3400060
:1023F0000028F1D1207800F00400042870D10027D3
:1024000070483830006800F0805090B900BF00205C
:1024100000906C483830006840F08050694938318D
:1024200008600846006800F08050009000BF00BFC0
:1024300001276748006800F48070B0B964480068FC
:1024400040F4807062490860FFF7CAFC054606E068
:10245000FFF7C6FC401B022801D90320B8E65C4800
:10246000006800F480700028F2D000BFA068012846
:1024700008D154486830006840F001005149683183
:1024800008601DE0A06805280DD14E48683000683E
:1024900040F004004B49683108600846006840F08D
:1024A000010008600CE047486830006820F0010037
:1024B0004449683108600846006820F0040008605C
:1024C00000BFA068A8B1FFF78BFC054609E0FFF745
:1024D00087FC401B41F28831884202D9032077E60D
:1024E00026E0384868300068C0F340000028EED08D
:1024F00013E0FFF775FC054608E0FFF771FC401B91
:1025000041F28831884201D9032061E62D486830C4
:102510000068C0F340000028EFD1012F07D12948FF
:102520003830006820F0805026493831086000BFFC
:10253000A069002845D02348006800F00C00082856
:102540005DD0A069022845D100201F490866FFF729
:1025500047FC054606E0FFF743FC401B022801D973
:10256000032035E6174808380068C0F340600028AB
:10257000F1D1D4E907010843616A40EA81110122DF
:10258000A06AC2EB500041EA00412C20005D41EA04
:1025900000600C49091F086001200B490866FFF71D
:1025A0001FFC054606E0FFF71BFC401B022801D973
:1025B00003200DE6034808380068C0F34060002897
:1025C000F1D049E00838024000004742800E4742FF
:1025D00000700040002021490866FFF701FC054615
:1025E00006E0FFF7FDFB401B022801D90320EFE5C1
:1025F0001B480068C0F340600028F2D12CE0A069BD
:10260000012800D1E4E51648001D0668A0690128EC
:1026100020D006F48001E06981421BD106F03F0121
:10262000206A814216D147F6C0703040616AB0EB33
:10263000811F0FD106F440310122A06AC2EB500085
:10264000B1EB004F06D106F070612C20005DB1EBBC
:10265000006F01D00120BBE50020B9E50000474232
:1026600000380240F0B589B004460E46002703202A
:1026700084F83400606C032820D0B6F5805F04D164
:10268000A06B40F08050A0631CE0B6F5006F07D14E
:10269000204602F0D5F80546A06B2843A06311E060
:1026A0003EB9204602F098F80546A06B2843A06387
:1026B00008E0A06B40F00060A06303E0A06B40F076
:1026C0008050A063A06B38B117482168886301204F
:1026D00084F83400012713E060680390A068049038
:1026E000E0680590069660690790A069089006A8C2
:1026F00007C88DE80700206803A90EC901F0D1FAC8
:102700004FF40071206801F047FB054635B10648DB
:1027100021688863A06B2843A0630127012084F807
:102720003400384609B0F0BDFF05400010B5024640
:10273000506E800F0870506EC0F383604870506E0A
:10274000C0F301608870506E000CC870B2F864006D
:10275000000A087192F864004871906E000DC880FC
:10276000906EC0F3034008726820805AC0F3C030F6
:1027700048726820805AC0F3803088726820805A7E
:10278000C0F34030C8726820805AC0F3003008732C
:1027900000204873506C002836D16820805A80058C
:1027A000030DD06E43EA90700861D06EC0F3C26032
:1027B0000875D06EC0F302604875D06EC0F3425009
:1027C0008875D06EC0F38240C875D06EC0F3C23039
:1027D00008760869401C50650B7E506D03F00703B6
:1027E0009B1C01249C4060435065087A00F00F0355
:1027F000012098409065D2E915035B0A5843D065E3
:102800004FF40073136621E0506C012813D1682047
:10281000805C8006830AD06E43EA10400861086934
:10282000401C83025365536DD3654FF40073936569
:10283000936D13660AE02E4813689863906B40F01E
:1028400080509063012082F8340010BD6C20805AC3
:10285000C0F3803001F8190F6C20805AC0F3C61005
:1028600048706C20805C00F07F008870106FC00F93
:10287000C870106FC0F341700871106FC0F38260B0
:102880004871106FC0F383508871106FC0F34050CF
:10289000C87100200872106FC0F3004048727020A9
:1028A000805AC0F3C03088727020805AC0F38030E4
:1028B000C8727020805AC0F3403008737020805A6C
:1028C000C0F3003048737020805AC0F381208873B1
:1028D0007020805AC0F30120C8737020805CC0F360
:1028E000460008740120487419390020ADE7000043
:1028F000FF0540000246506C0860906C4860D06C48
:102900008860106DC860506D0861906D4861D06D31
:102910008861106EC86100207047F8B50446002039
:1029200000906946204601F03FFF054615B1A06BB7
:102930002843A0630098C0F343263046F8BD10B585
:1029400004460CB9012010BD94F8340020B90020D1
:102950002077204600F068F8032084F834002046F1
:1029600000F00CF808B10120EDE70020A06320631F
:10297000012084F834000020E5E7000070B58AB03B
:102980000446002004900590069007900890762059
:10299000099007A807C88DE80700206804A90EC998
:1029A00001F07FF9064616B101200AB070BD002083
:1029B0001B490860206801F08EF901201849A039F0
:1029C000C1F8A000204601F089FE05463DB1012076
:1029D00084F83400A06B2843A0630120E5E720467B
:1029E00001F0FBFD05463DB1012084F83400A06BE9
:1029F0002843A0630120D8E74FF40071206801F05C
:102A0000CBF905464DB1074821688863A06B284380
:102A1000A063012084F83400C7E70020C5E7000068
:102A2000A0802542FF05400010B586B004465949F4
:102A3000206888427ED100BF002000905648006880
:102A400040F40060544908600846006800F40060E3
:102A5000009000BF00BF00BF00BF002000904E48A4
:102A60001438006840F004004B49143908600846E7
:102A7000006800F00400009000BF00BF00BF00BF6E
:102A800000BF002000900846006840F00400086085
:102A90000846006800F00400009000BF00BF00BFBF
:102AA00000BF00BF002000900846006840F004000E
:102AB00008600846006800F00400009000BF00BFF6
:102AC00000BF00BF00BF002000900846006840F033
:102AD000040008600846006800F00400009000BF91
:102AE00000BF00BF00BF00BF002000900846006884
:102AF00040F0040008600846006800F00400009000
:102B000000BF00BF00BF00BF00BF0020009008460C
:102B1000006840F0080008600846006800F00800FF
:102B2000009000BF00BF00BF8815019002200290F6
:102B3000012000E02BE00390022004900C2005907F
:102B400001A91648FFF72CF84FF40070019001A975
:102B50001248FFF725F84FF48060019001A90F4853
:102B6000FFF71EF84FF40060019001A90B48FFF732
:102B700017F84FF48050019001A90848FFF710F8AA
:102B80000420019001A90648FFF70AF800BF06B02B
:102B900010BD0000002C01404438024000080240F3
:102BA000000C02402DE9FF4F89B004468B46994640
:102BB000DDF858A0FFF714F902900B9800905D46DD
:102BC000BBF1000F07D1A06B40F00060A0630120B3
:102BD0000DB0BDE8F08F94F8340001287ED10020BC
:102BE000A063009800EB0901E06D814205D9A06B5C
:102BF00040F00070A0630120EAE7032084F834006D
:102C000000202168C862606C012802D00098400250
:102C100000904FF0FF3003904FEA4920049090203D
:102C2000059002200690002007900120089003A93B
:102C3000206801F011F8B9F1010F07D902202063D3
:102C40002068009901F010F9804606E00120206319
:102C50002068009901F024F98046B8F1000F0DD0EA
:102C6000754821688863A06B40EA0800A0630120D2
:102C700084F83400002020630120A9E7049E3AE094
:102C80002068406B00F40040E0B1DEB1002001900C
:102C900015E0206801F028F807462F706D1C761E9D
:102CA000380A28706D1C761E380C28706D1C761E34
:102CB000380E28706D1C761E0198401C01900198FA
:102CC0000828E6D3FFF78CF80299401A504502D243
:102CD000BAF1000F0FD15848216800E0A6E08863E0
:102CE000A06B40F00040A063012084F83400002075
:102CF000206303206CE72068406B40F22A310840D3
:102D00000028BDD02068406B00F48070D0B1B9F1CC
:102D1000010F17D9606C032814D0206801F080F9E6
:102D20008046B8F1000F0DD0434821688863A06B3E
:102D300040EA0800A063012084F8340000202063EA
:102D4000012045E72068406B00F0080068B13A4870
:102D500021688863A06B40F00800A063012084F81C
:102D6000340000202063012032E72068406B00F02F
:102D7000020068B1304821688863A06B40F002000F
:102D8000A063012084F834000020206301201FE7A5
:102D90002068406B00F0200068B1274821688863F4
:102DA000A06B40F02000A063012084F834000020D4
:102DB000206301200CE729E0206800F095FF07461A
:102DC0002F706D1C761E380A28706D1C761E380C0C
:102DD00028706D1C761E380E28706D1C761EFEF74E
:102DE000FFFF0299401A504502D2BAF1000F0DD1EF
:102DF000114821688863A06B40F00040A063012067
:102E000084F83400002020630120E1E62068406B54
:102E100000F4001008B1002ECED140F23A502168E3
:102E20008863012084F834000020D1E6A06B40F0D4
:102E30000050A0630120CBE6FF0540002DE9F04FD4
:102E400089B00446894693469846FEF7C9FF02902A
:102E5000DA464D46B9F1000F07D1A06B40F0006093
:102E6000A063012009B0BDE8F08F94F83400012878
:102E70007ED10020A0630AEB0801E06D814205D9F4
:102E8000A06B40F00070A0630120EBE7032084F802
:102E9000340000202168C862606C012801D04FEA2C
:102EA0004A2A4FF0FF3003904FEA482004909020C8
:102EB00005900020069007900120089003A9206843
:102EC00000F0CAFEB8F1010F07D920202063514657
:102ED000206801F0C3F8064606E010202063514642
:102EE000206801F0D7F8064666B15F48216888631C
:102EF000A06B3043A063012084F8340000202063DD
:102F00000120AFE7049F43E02068406B00F480405D
:102F100030B32FB3002001901FE0287800906D1C83
:102F20007F1E2878009941EA002000906D1C7F1ECA
:102F30002878009941EA004000906D1C7F1E287897
:102F4000009941EA006000906D1C7F1E6946206870
:102F500000F0E2FE0198401C019001980828DCD3A3
:102F6000FEF73EFF0299411A1298814203D200E017
:102F700074E0129860B93C4821688863A06B3043C4
:102F8000A063012084F8340000202063032069E757
:102F90002068406B40F21A3108400028B4D0206805
:102FA000406B00F48070B8B1B8F1010F14D9606CB7
:102FB000032811D0206801F033F8064666B12A488C
:102FC00021688863A06B3043A063012084F834003B
:102FD00000202063012045E72068406B00F00800D6
:102FE00068B1214821688863A06B40F00800A063A5
:102FF000012084F8340000202063012032E720689B
:10300000406B00F0020068B1174821688863A06B2C
:1030100040F00200A063012084F834000020206307
:1030200001201FE72068406B00F0100068B10E48D7
:1030300021688863A06B40F01000A063012084F831
:1030400034000020206301200CE740F23A50216850
:103050008863012084F83400002003E7A06B40F06F
:103060000050A0630120FDE6FF05400010B50446B6
:103070000CB9012010BD606A38B96068B0F5827F74
:1030800000D105E00021E16102E0002121616161E0
:10309000A06AB0F5005F00D100BF94F8510028B9D4
:1030A000002084F85000204600F050F8022084F8F8
:1030B00051002068006820F0400021680860A08866
:1030C00000F48270218901F404410843A18901F4CC
:1030D00000610843217C01F002010843217D01F0D9
:1030E00001010843218B01F400710843217F01F0A5
:1030F000380108432021095D01F080010843218D3A
:1031000001F400510843216808600421A06901EA24
:10311000104094F8241001F0100108432168486021
:10312000A06AB0F5005F03D1A08D80B2216808616C
:103130002068C06920F400602168C86100206065D3
:10314000012084F85100002094E7000010B586B0FB
:1031500004462A49206888424DD100BF00BF0020A4
:1031600000902748006840F00200254908600846A2
:10317000006800F00200009000BF00BF00BF00BF69
:1031800000BF002000900846006840F00200086080
:103190000846006800F00200009000BF00BF00BFBA
:1031A00000BF00BF002000900846006840F0020009
:1031B00008600846006800F00200009000BF00BFF1
:1031C00000BF0820019002200290012003900220FD
:1031D00004900520059001A90A48FEF7E1FC1020A3
:1031E000019001A90748FEF7DBFC2020019001A90E
:1031F0000448FEF7D5FC06B010BD000000300140C9
:1032000030380240000402402DE9F04F85B00446FA
:10321000884691461D460E9E002004900120029093
:103220000020019000BF94F85000012803D1022033
:1032300005B0BDE8F08F012084F8500000BFFEF714
:10324000CFFD074694F851B060680390AA46BBF1E1
:10325000010F0BD00398B0F5827F04D1A06810B99C
:10326000BBF1040F02D0022001902CE1B8F1000F55
:1032700003D0B9F1000F00D015B90120019022E16F
:1032800094F85100042802D0052084F85100002051
:103290006065C4F83890E587A587C4F83080E58676
:1032A000A58620646064A06AB0F5005F0DD100BF00
:1032B0002068006820F400502168086020680068D9
:1032C00040F400502168086000BF2068006800F0EA
:1032D0004000402805D02068006840F04000216888
:1032E0000860E068B0F5006F56D1606810B1BAF1BF
:1032F000010F09D1206B00882168C860206B801CF9
:103300002063E08E401EE0863FE02068806800F089
:10331000020002281CD1E08ED0B10298012817D1FA
:10332000206B00882168C860206B801C2063E08EC1
:10333000401EE08600200290E08E48B9A06AB0F5F9
:10334000005F05D12068006840F480502168086063
:103350002068806800F0010068B1E08F58B12068F3
:10336000C068A16B0880A06B801CA063E08F401E2A
:10337000E08701200290FEF733FDC01BB04204D36A
:10338000701C10B1032001909DE0E08E0028BCD19C
:10339000E08F0028B9D156E0606810B1BAF1010F92
:1033A00009D1206B007821680873206B401C2063D2
:1033B000E08E401EE08640E02068806800F0020059
:1033C00002281CD1E08ED0B10298012817D1206BC1
:1033D000007821680873206B401C2063E08E401E3B
:1033E000E08600200290E08E48B9A06AB0F5005F48
:1033F00005D12068006840F480502168086020688A
:10340000806800F0010068B1E08F58B12068C068A2
:10341000A16B0870A06B401CA063E08F401EE0878A
:1034200001200290FEF7DCFCC01BB04201D3701CEF
:1034300000B916B90320019045E0E08E0028BBD109
:10344000E08F0028B8D1A06AB0F5005F12D13346F2
:10345000012211462046009701F05CFA30B1606D00
:1034600040F002006065032001902CE02068C068F5
:10347000049000BF2068806800F01000102809D177
:10348000606D40F0020060654FF6EF702168886063
:10349000012001903A463146204601F005FA20B15C
:1034A00001200190202060650DE0A06850B900BFA8
:1034B000002000902068C06800902068806800901C
:1034C00000BF00BF00BF012084F8510000BF0020F2
:1034D00084F8500000BF0198AAE670B504460E4675
:1034E00015460CB9012070BD94F8490028B9002098
:1034F00084F84800204600F01DF804F10801206817
:10350000FEF780FA3146A2682068FEF7A9FA29463C
:10351000236BD4E90102FEF751FAA168206850F844
:10352000210040F00100A268216841F8220000203B
:10353000D9E7000010B586B0044600BF0020009017
:103540002248006840F001002049086008460068F1
:1035500000F00100009000BF00BF00BF00200090FD
:103560001A480838006840F008001849083908600F
:103570000846006800F00800009000BF00BF00BFD0
:10358000002000900846006840F0100008600846DF
:10359000006800F01000009000BF00BF4CF2037004
:1035A00001900220029001200390022004900C2040
:1035B000059001A90648FEF7F3FA4FF680700190D6
:1035C00001A90448FEF7ECFA06B010BD38380240F5
:1035D000000C024000100240042808D14FF0E02106
:1035E000096941F004014FF0E022116107E04FF05A
:1035F000E021096921F004014FF0E02211617047D8
:1036000070B504462546681EB0F1807F01D30120C5
:103610000FE0681E4FF0E02148610F214FF0FF30AE
:1036200001F048FC00204FF0E0218861072008618C
:10363000002070BD70477047704710B50446206881
:103640000069C0F34000D8B12068C068C0F34000F2
:10365000B0B16FF002002168086101202077206876
:10366000806900F0030018B12046FFF7E5FF05E090
:10367000204600F0ADF8204600F0ABF8002020779F
:1036800020680069C0F38000D8B12068C068C0F32A
:103690008000B0B16FF0040021680861022020773B
:1036A0002068806900F4407018B12046FFF7C4FF1D
:1036B00005E0204600F08CF8204600F08AF8002053
:1036C000207720680069C0F3C000D8B12068C068C6
:1036D000C0F3C000B0B16FF0080021680861042099
:1036E00020772068C06900F0030018B12046FFF77A
:1036F000A3FF05E0204600F06BF8204600F069F8D3
:103700000020207720680069C0F30010D8B120683D
:10371000C068C0F30010B0B16FF0100021680861FC
:10372000082020772068C06900F4407018B1204656
:10373000FFF782FF05E0204600F04AF8204600F03F
:1037400048F8002020772068006900F0010058B197
:103750002068C06800F0010030B16FF001002168FE
:103760000861204600F036F820680069C0F3C010F8
:1037700058B12068C068C0F3C01030B16FF080004D
:10378000216808612046FFF755FF20680069C0F3F3
:10379000801058B12068C068C0F3801030B16FF05D
:1037A000400021680861204600F015F82068006993
:1037B000C0F3401058B12068C068C0F3401030B169
:1037C0006FF02000216808612046FFF734FF10BD2C
:1037D0007047704770477047704770470146002236
:1037E000002391F83D2091F83E3042EA03007047F3
:1037F0002DE9F84F0446206805682068C6682068EF
:1038000047694FF00009CA4605F00F09B9F1000FEA
:103810000AD105F0200038B106F0200020B1204682
:1038200001F035F9BDE8F88FB9F1000F72D007F05B
:10383000010018B906F4907000286BD005F0010063
:1038400030B106F4807018B1206C40F001002064A3
:1038500005F0040030B107F0010018B1206C40F011
:103860000200206405F0020030B107F0010018B139
:10387000206C40F00400206405F0080048B106F018
:10388000200010B907F0010018B1206C40F00800CA
:103890002064206C70B305F0200028B106F02000F1
:1038A00010B1204601F0F3F820684069C0F3801A97
:1038B000206C00F0080010B9BAF1000F23D02046A8
:1038C00001F0BAF82068406900F04000402816D1A5
:1038D0002068406920F0400021684861A06B50B129
:1038E0005648A16B0865A06BFEF731F910B1A06BCB
:1038F000016D88470CE02046FFF76FFF08E0204687
:10390000FFF76BFF04E02046FFF767FF002020640D
:1039100088E7FFE7206B012879D105F01000002827
:1039200075D006F01000002871D000BF0020009074
:1039300020680068009020684068009000BF00BFC9
:103940002068406900F04000402839D1A06B006831
:1039500040681FFA80F8B8F1000F30D0A08D4045C4
:103960002DDDA4F82E80A06BC069B0F5807F1FD03C
:103970002068C06820F480702168C86020684069B1
:1039800020F00100216848612068406920F0400073
:1039900021684861202084F83E00002020632068D0
:1039A000C06820F010002168C860A06BFEF77AF8AC
:1039B000A08DE28D801A81B22046FFF70DFF31E71E
:1039C000A08DE18D401A1FFA80F8E08DE8B1B8F1C2
:1039D000000F1AD02068C06820F490702168C86079
:1039E0002068406920F0010021684861202084F8A7
:1039F0003E00002020632068C06820F0100021688D
:103A0000C86041462046FFF7E7FE0BE7FFE705F0F9
:103A1000800030B106F0800018B1204601F0CFF9E7
:103A200000E705F0400030B106F0400018B1204634
:103A300001F01DF8F6E600BFF4E60000254A000894
:103A400010B504460CB9012010BDA06900B100E01A
:103A500000BF94F83D0028B9002084F83C002046BF
:103A600000F028F8242084F83D002068C06820F485
:103A700000502168C860204601F068F8206800699D
:103A800020F49040216808612068406920F02A00F5
:103A9000216848612068C06840F400502168C8600F
:103AA00000202064202084F83D0084F83E0000209F
:103AB000CAE7000010B586B004462E492068884247
:103AC00055D100BF00BF002000902B48006840F097
:103AD0001000294908600846006800F010000090B6
:103AE00000BF00BF00BF00BF00BF00200090224801
:103AF0001438006840F001001F4914390860084676
:103B0000006800F00100009000BF00BF00BF00BFD0
:103B100000BF002000900846006840F001000860E7
:103B20000846006800F00100009000BF00BF00BF21
:103B30004815019002200290012003900220049079
:103B40000720059001A90D48FEF72AF84FF4806080
:103B500001900720059001A90848FEF721F82520CB
:103B6000FEF78FF9032211462520FEF79AF906B0D9
:103B700010BD000000100140443802400000024027
:103B800070B504460D46164694F83E00202816D11E
:103B900005B10EB9012070BD00BF94F83C000128AA
:103BA00001D10220F7E7012084F83C0000BF00208B
:103BB000206332462946204601F0DEF8EBE702207A
:103BC000E9E700001D4A0168914236D11C49098885
:103BD00001F4004189BB1A49098801F4804171B19F
:103BE000184909780A2903D00021154A118024E0D8
:103BF0001349098841F40041114A11801DE011491F
:103C000009780D2906D10E49098841F480410C4AF2
:103C1000118012E00B490978094A1288C2F30D029B
:103C2000094B995406490988491C054A11801146D7
:103C30000988C72901DD002111807047001001406B
:103C4000180000201A00002030030020704700BF39
:103C5000FEE700BFFEE7704710B502460023086884
:103C6000506248689062D1E9020420430C69204305
:103C70004C6920430343D06A20F0F7001843D06218
:103C8000002010BD01460869C0B2704701460868AF
:103C900000F003007047024602F114004318186850
:103CA00070470FB410B504460021DDE9030210434C
:103CB000059A1043069A1043079A1043089A104336
:103CC0000143606847F6FF6290430843606000204C
:103CD00010BC5DF814FB10B50446032020600220E0
:103CE000FDF74AFF002010BD0146D1F88000704763
:103CF00010B50246002308689060D1E90104204312
:103D0000CC6820430C6920430343D0686FF30B0059
:103D10001843D060002010BD02460868C2F8800039
:103D20000020704770B586B005460C4601943720D8
:103D3000029040200390002004904FF48060059092
:103D400001A92846FFF7D4FF41F2883237212846DF
:103D500000F0DCF90646304606B070BD70B586B09E
:103D600005460C460B482043019029200290402034
:103D70000390002004904FF48060059001A928462C
:103D8000FFF7B6FF284600F0C9FA0646304606B0EF
:103D900070BD00000000108070B586B005460C466E
:103DA00001941020029040200390002004904FF4D2
:103DB0008060059001A92846FFF79AFF41F28832FA
:103DC0001021284600F0A2F90646304606B070BD24
:103DD00070B586B005460C4601940620029040203E
:103DE0000390002004904FF48060059001A92846BC
:103DF000FFF77EFF41F288320621284600F086F95F
:103E00000646304606B070BD30B585B00446002089
:103E100000900190029003904FF4806004906946F6
:103E20002046FFF765FF204600F050F9054628467A
:103E300005B030BD30B585B004464FF4D570009064
:103E40000820019040200290002003904FF48060F1
:103E5000049069462046FFF74BFF204600F0E6FA43
:103E60000546284605B030BD70B586B005460C46FF
:103E700001941220029040200390002004904FF4FF
:103E80008060059001A92846FFF732FF41F2883291
:103E90001221284600F03AF90646304606B070BDB9
:103EA00070B586B005460C46019411200290402062
:103EB0000390002004904FF48060059001A92846EB
:103EC000FFF716FF41F288321121284600F01EF953
:103ED0000646304606B070BDF0B585B006461446BD
:103EE0001D4600940720019040200290002003907E
:103EF0004FF48060049069463046FFF7F9FE41F2C6
:103F000088320721304600F001F90746384605B0EF
:103F1000F0BD30B585B0044600200090022001902D
:103F2000C0200290002003904FF480600490694606
:103F30002046FFF7DDFE204600F0BEF90546284684
:103F400005B030BD70B586B005460C460194092019
:103F50000290C0200390002004904FF480600590F0
:103F600001A92846FFF7C4FE284600F0A5F9064639
:103F7000304606B070BD30B585B0044600200090D4
:103F80003320019040200290002003904FF4806085
:103F9000049069462046FFF7ABFE41F28832332198
:103FA000204600F0B3F80546284605B030BD70B590
:103FB00086B005460C4601940D20029040200390E7
:103FC000002004904FF48060059001A92846FFF777
:103FD0008FFE41F288320D21284600F097F8064600
:103FE000304606B070BD70B586B005460C46002060
:103FF00001900320029040200390002004904FF491
:104000008060059001A92846FFF772FE2246032131
:10401000284600F0AFF90646304606B070BD0000F5
:1040200030B585B00446002000900C20019040205F
:104030000290002003904FF480600490694620466F
:10404000FFF756FE044A0C21204600F05FF80546B3
:10405000284605B030BD000000E1F50570B586B01A
:1040600005460C4601941920029040200390002040
:1040700004904FF48060059001A92846FFF738FEB0
:1040800041F288321921284600F040F806463046B1
:1040900006B070BD70B586B005460C460194182078
:1040A000029040200390002004904FF4806005901F
:1040B00001A92846FFF71CFE41F288321821284644
:1040C00000F024F80646304606B070BD01460E48A2
:1040D0000068C0084FF47A73B0FBF3F041F2883304
:1040E00000FB03F200BF101EA2F1010202D14FF04B
:1040F00000407047486B00F080000028F3D0C520D6
:1041000088630020F5E70000000000202DE9F0435F
:1041100005460F46904666480068C0084FF47A711D
:10412000B0FBF1F000FB08F900BFB9F10000A9F104
:10413000010903D14FF00040BDE8F0836E6B06F03B
:1041400045000028F1D006F400600028EDD1686B2E
:1041500000F0040010B10420A863EDE7686B00F0E4
:10416000010010B10120A863E6E7C520A863284636
:10417000FFF788FDB84201D00120DDE70021284685
:10418000FFF789FD04464B48204008B90020D3E7DB
:1041900004F00040B0F1004F02D14FF00070CBE7C7
:1041A00004F08040B0F1804F01D14020C4E704F01A
:1041B0000050B0F1005F01D18020BDE704F08050D5
:1041C000B0F1805F02D14FF48070B5E704F0006079
:1041D000B0F1006F02D14FF40070ADE704F08060E1
:1041E000B0F1806F02D14FF48060A5E704F08070D9
:1041F000B0F1807F02D14FF400609DE704F400002D
:10420000B0F5000F02D14FF4805095E704F4800020
:10421000B0F5800F02D14FF400508DE704F4001088
:10422000B0F5001F02D14FF4804085E704F4801000
:10423000B0F5801F02D14FF400407DE704F48020E8
:10424000B0F5802F02D14FF4003075E704F4003050
:10425000B0F5003F02D14FF480206DE704F48030C8
:10426000B0F5803F02D14FF4002065E704F4004030
:10427000B0F5004F02D14FF480105DE704F48040A8
:10428000B0F5804F02D14FF4001055E704F4005010
:10429000B0F5005F02D14FF480004DE704F0080054
:1042A000082801D1000547E74FF4803044E70000BB
:1042B0000000002008E0FFFD10B501461648006828
:1042C000C0084FF47A74B0FBF4F041F2883400FB7C
:1042D00004F300BF181EA3F1010302D14FF0004008
:1042E00010BD4A6B02F045000028F3D002F40060D4
:1042F0000028EFD1486B00F0040010B1042088635F
:10430000EEE7486B00F0010010B101208863E7E799
:10431000C52088630020E3E70000002010B50146B7
:1043200013480068C0084FF47A74B0FBF4F041F20F
:10433000883400FB04F300BF181EA3F1010302D16F
:104340004FF0004010BD4A6B02F045000028F3D04A
:1043500002F400600028EFD1486B00F0040010B1B7
:1043600004208863EEE7C52088630020EAE70000A8
:10437000000000202DE9F04304460F4690462A48ED
:104380000068C0084FF47A71B0FBF1F041F2883157
:1043900000FB01F900BFB9F10000A9F1010903D147
:1043A0004FF00040BDE8F083666B06F04500002842
:1043B000F1D006F400600028EDD1606B00F004003D
:1043C00010B10420A063EDE7606B00F0010010B1B4
:1043D0000120A063E6E72046FFF754FCB84201D075
:1043E0000120DFE7C520A06300212046FFF753FC32
:1043F000054605F4604020B9280CA8F8000000200C
:10440000D0E705F48040B0F5804F02D14FF4005062
:10441000C8E705F40040B0F5004F02D14FF48050DA
:10442000C0E74FF48030BDE70000002010B5014622
:1044300018480068C0084FF47A74B0FBF4F041F2F9
:10444000883400FB04F300BF181EA3F1010302D15E
:104450004FF0004010BD4A6B02F045000028F3D039
:1044600002F400600028EFD1486B00F0040010B1A6
:1044700004208863EEE7486B00F0010010B10120D2
:104480008863E7E7486B00F0400008B1402088638C
:104490000020DFE7000000202DE9F04389B004464A
:1044A0000F46FDF79DFC81464FF00008002001906B
:1044B00002903E4608212068FFF76EFC05461DB1BC
:1044C000284609B0BDE8F0835022125B1104206831
:1044D000FFF728FC05460DB12846F2E74FF0FF3004
:1044E00003900820049030200590022006900020C0
:1044F00007900120089003A92068FFF7ADFB206812
:10450000FFF739FD05460DB12846DAE71CE02068C3
:10451000406B00F4001040B12068FFF7E5FB01A9F3
:1045200041F8280008F1010805E02068406B00F41C
:10453000005000B90EE0FDF753FCA0EB0900401C51
:1045400010B94FF00040BCE72068406B00F02A0033
:104550000028DCD000BF2068406B00F0080018B1D4
:10456000082021688863ACE72068406B00F00200F7
:1045700018B1022021688863A3E72068406B00F02F
:10458000200018B12020216888639AE740F23A5051
:104590002168886302980006029901F47F4140EA8D
:1045A0000120029901F47F0140EA1120029940EABA
:1045B00011603060361D01980006019901F47F41B9
:1045C00040EA0120019901F47F0140EA112001999C
:1045D00040EA11603060002073E730B58FB00446C8
:1045E000012003902068FFF751FB18B94FF080605D
:1045F0000FB030BD606C03281BD02068FFF789FC2A
:1046000005460DB12846F3E700212068FFF743FB7C
:10461000606704212068FFF73EFBA067082120683F
:10462000FFF739FBE0670C212068FFF734FB80219E
:104630000851606C032807D003A92068FFF7D3FC5A
:1046400005460DB12846D3E7606C032820D0BDF89D
:104650000C1021655022125B11042068FFF772FCD8
:1046600005460DB12846C3E700212068FFF713FB7C
:10467000606604212068FFF70EFBA0660821206811
:10468000FFF709FBE0660C212068FFF704FB2067B9
:1046900004212068FFF7FFFA010DE16404A9204618
:1046A000FEF744F810B14FF08050A1E75020005BB6
:1046B00001040A4600232068FFF70EFC05460DB1F1
:1046C000284695E7D4E90412A069CDE900120290CA
:1046D00094E80F00FFF7E5FA002089E7F8B50446F3
:1046E00000200090002600272068FFF78DFB05467C
:1046F0000DB12846F8BD2068FFF79CFB054645B183
:104700000021A1642068FFF77FFB05461DB1284604
:10471000F0E70121A164A06C012808D100212068E4
:10472000FFF700FB054615B14FF08050E2E71DE0B2
:1047300000212068FFF7F6FA05460DB12846D9E7B3
:1047400018492068FFF70AFB054615B14FF0805065
:10475000D0E700212068FFF79EFA0646012080EA94
:10476000D67080F001070098401C00904FF6FF7152
:104770000098884201D2002FDAD04FF6FF710098DE
:10478000884202D34FF08070B4E706F08040B0F169
:10479000804F02D10120606401E0002060640020AD
:1047A000A8E70000000010C170B504460D4615B919
:1047B0004FF0006070BD5022125B11042068FFF7BB
:1047C000F6FB06460EB13046F4E700212068FFF7FD
:1047D00062FA28600020EDE77CB5044600200090D6
:1047E000019000212068FFF756FA00F00070B0F148
:1047F000007F02D14FF400607CBD69462046FFF780
:104800004BFE05460DB12846F6E7019800F48030CE
:1048100098B15022125B11042068FFF783FA054615
:104820000DB12846E8E700212068FFF7D1FA0546D8
:104830000DB12846E0E70020DEE74FF08060DBE7BF
:104840007CB5044600200090019000212068FFF70D
:1048500022FA00F00070B0F1007F02D14FF4006046
:104860007CBD69462046FFF717FE05460DB1284678
:10487000F6E7019800F4802098B15022125B1104F1
:104880002068FFF74FFA05460DB12846E8E70221F8
:104890002068FFF79DFA05460DB12846E0E70020A5
:1048A000DEE74FF08060DBE77CB504460D46164638
:1048B000164800681821B0FBF1F01549B0FBF1F083
:1048C0004FF47A71484301906068B0F5827F0DD152
:1048D0002B46002280212046009600F01BF898B15C
:1048E000606D40F02000606503207CBD00BF019832
:1048F00000B908E00198401E019020688068C0F36C
:10490000C0100028F3D100BF0020EEE70000002017
:1049100040420F002DE9F84F04460D4690461E46D2
:10492000DDF82890FDF75CFAA0EB0900371AFDF7D7
:1049300057FA82462C480068C0F3CB307843009089
:1049400045E0701C002842D0FDF74AFAA0EB0A00AF
:10495000B84200D2A7BB2068406820F0E000216880
:1049600048606068B0F5827F0DD1A068B0F5004F57
:1049700003D0A068B0F5806F05D12068006820F0F2
:10498000400021680860A06AB0F5005F0DD100BF4B
:104990002068006820F400502168086020680068E2
:1049A00040F400502168086000BF012084F85100E5
:1049B00000BF002084F8500000BF0320BDE8F88F3E
:1049C000FFE7009800B900270098401E009020687B
:1049D00080682840A84201D1012000E00020404525
:1049E000AFD10020EAE700000000002010B5FDF77D
:1049F000FDF938F099FE012801D038F05FFC10BDB8
:104A00000348006840F470000149086070470000E6
:104A100088ED00E010B50248FEF70FFE10BD000063
:104A20009C04002070B50546AC6B0020E085E08456
:104A30002046FEF7D2FE70BD0168C96821F490716E
:104A40000268D1600168496921F001010268516181
:104A5000016B012905D10168C96821F010010268C4
:104A6000D160202180F83E1000210163704710B50D
:104A700004462068C06820F040002168C8602020FB
:104A800084F83D002046FFF7E1F8002010BD70B526
:104A9000044694F83E00222856D1A068B0F5805F05
:104AA0000CD1206950B90025A66A20684068C0F37F
:104AB00008003080A06A801CA06215E0A56A00266C
:104AC000A068B0F5805F03D0A06828B9206918B944
:104AD00020684068287004E02068406800F07F008B
:104AE0002870A06A401CA062E08D401E80B2E08564
:104AF00040BB2068C06820F020002168C8602068A2
:104B0000C06820F480702168C8602068406920F087
:104B1000010021684861202084F83E00206B0128B4
:104B20000AD12068C06820F010002168C860A18DFB
:104B30002046FEF751FE02E02046FFF743F8002032
:104B4000206370BD0020FCE70220FAE72DE9F84F52
:104B500004462068006920F44050E1680843216859
:104B600008612169A068084361690843E169084355
:104B700000902068C06849F20C618843009908439E
:104B80002168C8602068406920F44070A16908432A
:104B90002168486176492068884203D075492068B9
:104BA000884203D1FDF7A8FA814602E0FDF794FAA6
:104BB0008146E069B0F5004F6CD102206168A0FB2E
:104BC000015003461920A9FB007001462A463846C9
:104BD000FBF7E7FB6421B0FBF1F04FEA001A02207B
:104BE0006168A0FB01510B461920A9FB00712A4600
:104BF0003846FBF7D6FB834602206168A0FB0150D4
:104C000003461920A9FB00712A463846FBF7C9FB69
:104C10006421B0FBF1F000EBC00101EB0010ABEB45
:104C20008000322101EBC0006421B0FBF1F000F004
:104C3000F8000AEB400A02206168A0FB015003461D
:104C40001920A9FB007001462A463846FBF7A9FB4C
:104C5000834602206168A0FB015003461920A9FB8E
:104C600000712A463846FBF79CFB6421B0FBF1F04B
:104C700000EBC00101EB0010ABEB8000322101EB37
:104C8000C0006421B0FBF1F000F00700504421683F
:104C900088606AE004206168A0FB01500346192087
:104CA000A9FB007001462A463846FBF77AFB82468C
:104CB00004206168A0FB015003461920A9FB007085
:104CC00001462A463846FBF76CFB6421B0FBF1F045
:104CD00000EBC00101EB0010AAEB8000322101EBD8
:104CE00000106421B0FBF1F000F0F00A04206168CC
:104CF000A0FB017003461920A9FB00513A46284643
:104D0000FBF74FFB6421B0FBF1F00AEB001A042023
:104D10006168A0FB01510B461920A9FB00712A46CE
:104D20003846FBF73EFB834604206168A0FB015038
:104D300003461920A9FB007001462A463846FBF7B6
:104D400030FB6421B0FBF1F000EBC00101EB00107F
:104D5000ABEB8000322101EB00106421B0FBF1F0DD
:104D600000F00F00504421688860BDE8F88F000013
:104D7000001001400014014010B5034699629A8565
:104D8000DA8500201864222083F83E0000BF00204E
:104D900083F83C0000BF1868C06840F480701C684D
:104DA000E0601868406940F001001C6860611868A4
:104DB000C06840F020001C68E060002010BD014683
:104DC00091F83D00212828D18868B0F5805F0BD18B
:104DD000086948B90A6A1088C0F308000B6858606F
:104DE000086A801C086205E00B6A581C0862187883
:104DF0000B685860C88C401E80B2C88458B90868D7
:104E0000C06820F080000B68D8600868C06840F077
:104E100040000B68D860002070470220FCE70000CB
:104E200070B500240F4D1048FEF7E2FC00BF03E010
:104E3000641CAC4200D904E00B48FEF7CFFC2028EC
:104E4000F6D100BF002403E0641CAC4200D906E0A8
:104E5000012206490448FEF793FE0028F4D100BF62
:104E600070BD0000FFFF0100F80300201A000020C1
:104E700000BFFEE703B401984100009850EAC1204A
:104E800018BF04204A0D18BF40F0010040F2FF7225
:104E9000B2EB515F08BF40F00200012808BF0520B7
:104EA00002B0704702480068C0F30220704700005B
:104EB0000CED00E010B5002804DB0A07130E054ACC
:104EC000135406E00A07140E034A00F00F031B1FD9
:104ED000D45410BD00E400E018ED00E070B50446C5
:104EE000002508E02168481C20600878303805EB70
:104EF000850100EB41052168087800F004F80028DE
:104F0000F0D1284670BD0146302903DB392901DC88
:104F1000012070470020FCE730380A2801D2012028
:104F2000704700207047000010B54021074801F08D
:104F3000E3FA0022042106482EF0F2F90549086040
:104F400002F002FE00200449087010BDD0D80020F5
:104F5000157C0008A00200209C02002030B503460A
:104F6000B1F90040B2F90050AC4202DDB1F90040A5
:104F700001E0B2F900401C80B1F90240B2F90250E0
:104F8000AC4202DDB1F9024001E0B2F902405C80BE
:104F9000B1F90440B2F90450AC4202DAB1F904406C
:104FA00001E0B2F904409C80B1F90640B2F9065024
:104FB000AC4202DAB1F9064001E0B2F90640DC8009
:104FC0000120B3F90040B3F90450AC4205DCB3F959
:104FD0000240B3F90650AC4200DD002030BDF8B508
:104FE00004460D4616460027B4F90000B5F9001036
:104FF000884212DBB4F90200B5F9021088420CDBDA
:10500000B4F90400B5F90410884206DCB4F90600CE
:10501000B5F90610884200DC01270FB90020F8BD61
:105020000EB90120FBE72088ADF800006088ADF8DC
:10503000020032466946284600F0A7F808B9002069
:10504000EDE7A088ADF800006088ADF802003246B8
:105050006946284600F099F808B90020DFE7208863
:10506000ADF80000E088ADF80200324669462846F7
:1050700000F08BF808B90020D1E7A088ADF8000057
:10508000E088ADF8020032466946284600F07DF817
:1050900008B90020C3E70120C1E70246B2F90000C9
:1050A000B1F90430984213DCB2F90400B1F90030D0
:1050B00098420DDBB2F90200B1F90630984207DCE4
:1050C000B2F90600B1F90230984201DB01207047C5
:1050D0000020FCE7F8B504460D461646B4F9040076
:1050E000B5F90010884211DBB4F90600B5F90210D9
:1050F00088420BDBB4F90000B5F90410884205DCE6
:10510000B4F90200B5F90610884201DD0120F8BDAE
:105110000EB90020FBE72088ADF800006088ADF8EC
:10512000020032466946284600F02FF808B10020F8
:10513000EDE7A088ADF800006088ADF802003246C7
:105140006946284600F021F808B10020DFE72088F2
:10515000ADF80000E088ADF8020032466946284606
:1051600000F013F808B10020D1E7A088ADF80000E6
:10517000E088ADF8020032466946284600F005F89E
:1051800008B10020C3E70120C1E72DE9FC5F054617
:105190000E4614464FF0000AB6F90000B5F90010AB
:1051A000884213DBB6F90000B5F9041088420DDC23
:1051B000B6F90200B5F90210884207DBB6F9020021
:1051C000B5F90610884201DC4FF0010ABAF1000F70
:1051D00002D10020BDE8FC9F002C01DC0120F9E792
:1051E000284619F088FF834600EBDB7047102846FD
:1051F00019F0F9FE834600EBDB704FEA6008474583
:1052000001DA384600E0404681464C4500DD4C4618
:105210002888ADF800002888204400B2ADF80400CA
:105220006888ADF802006888204400B2ADF8060036
:10523000002231466846FFF7A8FF80B1BDF80400A0
:10524000204400B2ADF80400BDF80600204400B2CE
:10525000ADF80600314668462AF02CFCBAE7E8882B
:10526000001B00B2ADF80200E888ADF8060000228D
:1052700031466846FFF789FF80B1BDF8040020443D
:1052800000B2ADF80400BDF80200001B00B2ADF89A
:105290000200314668462AF00DFC9BE7A888001BF7
:1052A00000B2ADF80000A888ADF804000022314635
:1052B0006846FFF76AFF80B1BDF80000001B00B22E
:1052C000ADF80000BDF80200001B00B2ADF802000E
:1052D000314668462AF0EEFB7CE76888ADF80200AC
:1052E0006888204400B2ADF80600002231466846C6
:1052F000FFF74BFF80B1BDF80000001B00B2ADF816
:105300000000BDF80600204400B2ADF806003146AA
:1053100068462AF0CFFB5DE701205BE710B5B1F9E5
:105320000030B2F90040A34202DAB1F9003001E0E6
:10533000B2F900300380B1F90230B2F90240A34261
:1053400002DAB1F9023001E0B2F902304380B1F97A
:105350000430B2F90440A34202DDB1F9043001E0A7
:10536000B2F904308380B1F90630B2F90640A342A5
:1053700002DDB1F9063001E0B2F90630C38010BD9C
:105380002DE9FF4104462DF06CFF054600200390F7
:1053900034B14749E068086020462EF0D9F803E0B0
:1053A0001CF03EFD424908604149096808692AF03D
:1053B000DFFA3F480068406920B13D490968486903
:1053C0002AF0D6FA3A490968C8692AF0D1FA384968
:1053D0000968086A2AF0CCFA35480068006940B9C3
:1053E000002033490968A1F8500100BF00BFBDE8A3
:1053F000FF812AF05FFE2AF0A5FD2D480068B0F875
:10540000500100284BD02A4800680068007CC0F397
:105410004000E8B1264800681CF080FD401E06B23E
:10542000234800681CF014FD401E07B23B460022D2
:10543000114601A8009619F0A3FE01A81C490968AD
:105440000968896B48601A48006807F093F800BF44
:105450004FF4807116480068303024F0E6FC2021BB
:105460001348006800F5987024F0DFFC0020104914
:105470000968A1F8500128462DF0E6FE03900C487B
:1054800000680068406A50B109490968086808491D
:10549000096809684B6A07490A680399984724F024
:1054A000FBF900F03FF800F007F800BF9FE70000AD
:1054B000580100205401002010B5002416E0C4EB70
:1054C000C4000C4951F8200030B1C4EBC401094AB2
:1054D00052F8210024F092FAC4EBC401054A02EB11
:1054E00081001C2124F0A1FC601CC4B2042CE6DB6A
:1054F00010BD0000ACD900200146094A10680BE03D
:1055000042688A4202D002688A4204D1027E22F0B6
:105510000102521C027640690028F1D17047000058
:105520002C0100207047000010B50421014800F054
:10553000E3FF10BDC4D8002010B51C21014800F0C5
:10554000DBFF10BDDCD800202DE9FF4F8BB00446F7
:105550009A46199DBAF1000F11D11898B0F5807FC5
:105560000DD10020208060800C98401E00B2A080E9
:105570000D98401E00B2E0800FB0BDE8F08FB5F985
:1055800000004042189948430121C1EB202000B29D
:105590002080B5F902004042189948430121C1EB2F
:1055A000202000B26080B5F900100C98401A1899BC
:1055B0004843022101EB202000B2A080B5F902107F
:1055C0000D98401A18994843022101EB202000B29F
:1055D000E080BAF1000F14D120882988084400B275
:1055E000208060886988084400B26080A08829888B
:1055F000084400B2A080E0886988084400B2E080D6
:10560000BAE70A209AFBF0F00A900A98401C099029
:105610000A9800EB8000AAEB400B0A9800B22EF02B
:105620001DF90890099800B22EF018F907900A9811
:105630005A3000B22EF012F9069009985A3000B292
:105640002EF00CF90590CBF10A0108984143079818
:1056500000FB0B100A2190FBF1F6CBF10A01069832
:105660004143059800FB0B100A2190FBF1F77611DE
:105670007F11B4F90080B4F9029007FB08F006FB33
:105680001900298801EBA02000B2ADF8100006FB3C
:1056900008F007FB0900698801EBA02000B2ADF813
:1056A0001200B4F90480B4F9029007FB08F006FB7D
:1056B0001900298801EBA02000B2ADF80C0006FB10
:1056C00008F007FB0900698801EBA02000B2ADF8E3
:1056D0000E00B4F90080B4F9069007FB08F006FB51
:1056E0001900298801EBA02000B2ADF8080006FBE4
:1056F00008F007FB0900698801EBA02000B2ADF8B3
:105700000A00B4F90480B4F9069007FB08F006FB20
:105710001900298801EBA02000B2ADF8040006FBB7
:1057200008F007FB0900698801EBA02000B2ADF882
:105730000600BDF90800BDF91010884202DABDF973
:10574000080001E0BDF91000BDF90410BDF90C20FE
:10575000914202DABDF9041001E0BDF90C10884253
:105760000BDABDF90800BDF91010884202DABDF964
:1057700008000DE0BDF910000AE0BDF90400BDF914
:105780000C10884202DABDF9040001E0BDF90C00FA
:105790002080BDF90800BDF91010884202DDBDF976
:1057A000080001E0BDF91000BDF90410BDF90C209E
:1057B000914202DDBDF9041001E0BDF90C108842F0
:1057C0000BDDBDF90800BDF91010884202DDBDF9FE
:1057D00008000DE0BDF910000AE0BDF90400BDF9B4
:1057E0000C10884202DDBDF9040001E0BDF90C0097
:1057F000A080BDF90A00BDF91210884202DABDF995
:105800000A0001E0BDF91200BDF90610BDF90E2035
:10581000914202DABDF9061001E0BDF90E1088428E
:105820000BDABDF90A00BDF91210884202DABDF99F
:105830000A000DE0BDF912000AE0BDF90600BDF94D
:105840000E10884202DABDF9060001E0BDF90E0033
:105850006080BDF90A00BDF91210884202DDBDF971
:105860000A0001E0BDF91200BDF90610BDF90E20D5
:10587000914202DDBDF9061001E0BDF90E1088422B
:105880000BDDBDF90A00BDF91210884202DDBDF939
:105890000A000DE0BDF912000AE0BDF90600BDF9ED
:1058A0000E10884202DDBDF9060001E0BDF90E00D0
:1058B000E08000BF60E62DE9F74F86B0044620681F
:1058C0000590B4F908100798A0EB0108B4F90A1084
:1058D0000898A0EB0109E089B0F5807F13D1206B17
:1058E00000FB08F0E16A01FB1901606A00EBA10B03
:1058F000E06A00FB08F0216B01FB0901A06A00EBE4
:10590000A10004902FE0A08980B9A06B00FB08F0F3
:105910004FEA6018A06B00FB09F04FEA6019606A5B
:1059200000EB080BA06A484404901CE0A06B00FB4D
:1059300008F04FEA6018A06B00FB09F04FEA60190D
:10594000206B00FB08F0E16A01FB1901606A00EBC3
:10595000A12BE06A00FB08F0216B01FB0901A06AA2
:1059600000EBA12004904FEA2B2604980712B4F90B
:105970000400B04203DC002009B0BDE8F08F002E27
:1059800001DA0020F8E7B4F90600B84201DC002093
:10599000F2E7002F01DA0020EEE73420005DC0F3CB
:1059A000800050B33420005DC0F3400078B9022578
:1059B000B4F904007843684306FB050A059800EB38
:1059C0000A012A4604F1140024F0DDF92CE0032535
:1059D000B4F904007843684306FB050A6A1E05987B
:1059E00000EB0A0104F1140024F0CDF90AEB0500E4
:1059F000401E0599095CA17516E04FF0000A0025CC
:105A0000208A03463AB231B2019004F1180020F026
:105A100055FE0290BDF80800A0823AB231B204F1FE
:105A2000180020F0ABFDA0753420005D00F00100EF
:105A3000B0B14FF47F40002100F47C4241EA5211A2
:105A4000C0F3C40211430191BDF804201146029134
:105A5000A08ABDF80810884201D100208CE700BF61
:105A6000E07C08B9012087E70FFA8BF1A187049841
:105A700001B2E18731B24020015339B242200153D3
:105A8000C4F844A084F84850204600F003F803907E
:105A9000039871E72DE9F04F8DB00446D4F80090DB
:105AA00094F83C000C9094F83E000B900C987028F1
:105AB0000BDA4FF0FF35B4F940002844002800DA33
:105AC00000250C988030C7B213E00C9890280EDDAA
:105AD0000125B4F940002844B4F90410884200DBE1
:105AE00000250C98C0F1FF008030C7B201E000250E
:105AF000FF270B9870280CDA4FF0FF36B4F94200FC
:105B00003044002800DA00260B98803000F0FF08AF
:105B100015E00B9890280FDD0126B4F942003044BF
:105B2000B4F90610884200DB00260B98C0F1FF0094
:105B3000803000F0FF0802E000264FF0FF08A08A46
:105B40000A90A07D069000200590049003903420D8
:105B5000005DC0F3800000285BD094F84800626CC0
:105B600000FB052000EB0901022209A824F00BF933
:105B7000A28894F8480012FB00F2606C02FB060059
:105B800000EB0901022208A824F0FDF8A28894F88D
:105B9000480012FB00F2606C02FB060294F8480019
:105BA00000FB052000EB0901022207A824F0EBF816
:105BB0003420005DC0F3400000287ED094F84800F7
:105BC000616C00FB05110844401E19F800000590A7
:105BD000A18894F8480011FB00F1606C01FB0601FC
:105BE00094F848000844401E19F800000490A18869
:105BF00094F8480011FB00F1606C01FB060194F879
:105C0000480000FB05110844401E19F800000390ED
:105C100053E0208A0090B4F942204020005B2844E1
:105C200001B204F11800009B20F048FD0990208A81
:105C300000904220005B304402B2B4F9401004F1FD
:105C40001800009B20F03AFD0890208A0090422026
:105C5000005B304402B24020005B284401B204F1F2
:105C60001800009B20F02AFD07903420005DC0F34F
:105C7000400010B3B4F942204020005B284401B238
:105C800004F1180020F07AFC05904220005B3044BB
:105C900002B2B4F9401004F1180020F06FFC049037
:105CA0004220005B304402B24020005B284401B235
:105CB00004F1180020F062FC0390BA46BB46342081
:105CC000005DC0F34000E0B306987843C7F1FF0CD5
:105CD000059B03FB0C00C0F3072104987843C7F130
:105CE000FF0C039B03FB0C00C0F3072201FB08F031
:105CF000C8F1FF0302FB0300030AA375022905DCB8
:105D0000022A03DC00200DB0BDE8F08F022901DC7F
:105D10004FF00008022A01DC4FF0FF080698022825
:105D200001DC4FF0000A0598022801DC4FF0FF0A61
:105D30000498022801DC4FF0000B0398022803DCD2
:105D400000E002E04FF0FF0B03E0BA46BB46FF2144
:105D5000A175BAF1000F02D1099802900BE0BAF1D7
:105D6000FF0F02D10A98029005E05246DDE90910C2
:105D70001BF0E6FA0290BBF1000F02D107980190E8
:105D80000BE0BBF1FF0F02D10898019005E05A46E5
:105D9000DDE907101BF0D4FA0190B8F1000F03D130
:105DA000BDF80400A0820FE0B8F1FF0F03D1BDF8E9
:105DB0000800A08208E04246DDE901101BF0C0FAAD
:105DC0000090BDF80000A08201209CE72DE9F05F63
:105DD0000446B4F9080001026162B4F90A00010244
:105DE000A162B4F90C000A2190FBF1F56F1CB4F923
:105DF0000C0005EB8501A0EB4106684200B22DF0D6
:105E00002DFD8046784200B22DF028FD8146C5F177
:105E10005A0000B22DF022FD8246C7F15A0000B2AE
:105E20002DF01CFD8346C6F10A0000FB08F009FBBB
:105E300006000A2190FBF1F1E162C6F10A0000FBC5
:105E40000AF00BFB06000A2190FBF1F12163E06AE6
:105E50004111E162206B41112163A07C20F03DFDE6
:105E60003421095D60F3000134200155A07C20F04D
:105E700017FD3421095D60F3410134200155A07CF8
:105E8000042805D0A07C052802D0A07C062807D1D4
:105E90003420005D20F00400001D3421085505E089
:105EA0003420005D20F00401342001552168216276
:105EB000A06920F0E000A061A17CA06961F304006A
:105EC000A061A188A06961F39420A061E188A06924
:105ED00061F35F50A061E08900EBD071491001F5DA
:105EE000001191FBF0F2A263FF21A175208AA0822C
:105EF000BDE8F09F2DE9F743054616460024134CF4
:105F00002DF0AFF98046334629462046019A21F00C
:105F100093F907465FB900BF00BF2C21204623F04C
:105F200084FF4FF00040A0620020BDE8FE83002007
:105F3000A062E06918B940462DF086F9E061E06999
:105F400008B90120E0612046EFE7000000D90020F9
:105F500010B51421114800F0CFFA21F01FF90446C2
:105F600000BF1CB900BF00BF00BFFEE700BF14B9EF
:105F700000BF00BF10BD0A49204621F0F7F90949CA
:105F8000204621F0F5F90849204621F0F3F90749A8
:105F9000204621F0E9F900BFECE70000E8D8002036
:105FA000B96902088D6E0208A970020881690208A9
:105FB00070B504460D461021284623F036FF2068B0
:105FC0000078012804D1208A2880608A68800CE04B
:105FD00020680078022802D1E068686005E0206847
:105FE0000078042801D10A2068602068406820B148
:105FF000206829464268904701E000BF00BF70BD9D
:106000002DE9FE430446A66AEEB9A18A208A084417
:1060100001B2A182E18A608A084401B2E18220468D
:106020000FF00CF906460EB9BDE8FE83204613F0CA
:10603000CFFC0022092130461FF0C6FB6078C0F378
:10604000400000B1F0E7208A10B9608A002870D0C3
:1060500000200290019094F83C0000F00F0003280B
:1060600012D1304625F09AFF0746304625F01EFF34
:10607000804603200090B4F910103B46424630465B
:106080000DF08CFA029012E0304626F009F807462F
:10609000304625F07DFE80460C200090B4F91210A9
:1060A00043463A4630460DF079FA019000BF30463B
:1060B00025F0CEFE054605F0010028B9BDF908001F
:1060C000002801DD0020029005F0020028B9BDF98A
:1060D0000800002801DA0020029005F0040028B929
:1060E000BDF90400002801DD0020019005F0080042
:1060F00028B9BDF90400002801DA0020019001AAA6
:1061000002A9204631F048FA0023BDF90420BDF968
:106110000810304628F0A2FEA08ABDF808100844F6
:1061200001B2A182E08ABDF80410084401B2E18204
:1061300000BF00BF78E72DE9F84F0446D4F828B037
:10614000BBF1000F01D1BDE8F88F94F83C0000F0DE
:106150000F0000B9F7E721F0F1FB06463068477EF3
:106160004021584627F0A4FB10B900216183218308
:10617000584625F081FF8046584625F087FF0546A2
:1061800094F83C0000F00F000C2843D1002121833B
:106190001DBBB4F91A00C7F164014843642190FBA8
:1061A000F1F001B26183584625F0F2FD8146584670
:1061B00025F076FF82460C200090B4F91A104B4669
:1061C000524658460DF0EAF96083B4F91A200023CC
:1061D0001946584628F042FE69E0204631F033FA6D
:1061E0000090002161836A46204631F0D5F9BDF95F
:1061F000003041F6FF72514258460FF0C7F9814610
:10620000BDF80000484402B201230021584628F09E
:1062100025FE4CE094F83C0000F00F00032846D126
:1062200000216183B8F1000F23D1B4F91800C7F140
:1062300064014843642190FBF1F001B22183584688
:1062400025F034FE8146584625F0A8FE82460320FC
:106250000090B4F9181053464A4658460DF09EF97E
:106260002083B4F9181000231A46584628F0F6FD8A
:106270001DE0204631F0CCF900900021218300225E
:106280006946204631F088F9BDF9003041F6FF72C9
:10629000514258460FF0E0F88146BDF800004844EE
:1062A00001B201230022584628F0D8FD00BF208B00
:1062B000002860D1608B00285DD11DBB584625F0B9
:1062C000EFFE8146584625F063FD8246B9F1000F86
:1062D00002DCBAF1000F14DDB9F1000F06DA012378
:1062E0004A460021584628F0B9FD0AE0BAF1000FED
:1062F00007DA0123CAF1000002B20021584628F053
:10630000ADFD00BFB8F1000F23D1584625F0CEFDFA
:106310008146584625F042FE8246B9F1000F02DC64
:10632000BAF1000F14DDB9F1000F06DA01230022E3
:106330004946584628F092FD0AE0BAF1000F07DA04
:1063400001230022CAF1000001B2584628F086FD60
:1063500000BF32460A2158461FF036FA6078C0F373
:10636000400000B1EFE694F83C0020F00F0184F803
:106370003C100021A16200BFE5E62DE9FF41044683
:106380000F4614B91BF04CFD04460CB9BDE8FF8163
:106390001FB90020A4F85001F8E70020ADF808006C
:1063A000ADF80A0020461BF053FD401E00B2ADF8C8
:1063B0000C0020461BF0B2FD401E00B2ADF80E00EE
:1063C00002AA39466846FEF7C9FD064606B9DDE76A
:1063D0002068007CC0F3400060B1029820630398FD
:1063E00060630120A4F85001606810B160682DF06E
:1063F000BBF8CBE72068806918B1206869468269DC
:10640000904700250BE004F1300000EBC5010022AD
:106410006846FEF7E4FD00B1B8E7681C85B2B4F841
:106420005001A842EFDCB4F85001202809DAB4F892
:10643000502104F1300101EBC200694618F043FD20
:106440000BE00020A4F85001B4F8502104F1300111
:1064500001EBC20002A918F036FDB4F85001401C4F
:10646000A4F85001606810B160682DF07DF800BF9D
:106470008CE770B50546284600F013F80446002660
:106480000CE02146284600F024F80646214628461E
:1064900000F086F8204623F0B1FA3446002CF0D103
:1064A00070BD014609B9002070474868FCE770B527
:1064B000064600243046FFF7F4FF054605E0641C5D
:1064C0002946304600F005F80546002DF7D1204654
:1064D00070BD02460B461068001D034418687047E3
:1064E00002460B461068034418687047014609B914
:1064F000002070478868FCE7002242608260CA1C66
:1065000022F003010160704770B50446216801F173
:10651000080023F0A5F90546A5B10022294620462A
:106520002EF0B6FD2946204662682EF0A3FD606875
:1065300020B12A46204661682EF0AAFD6560A06859
:1065400000B9A560284670BD70B50446216801F108
:10655000080023F085F90546A5B10022294620460A
:106560002EF088FD29462046A2682EF091FDA068F5
:1065700020B12A462046A1682EF07CFDA560606807
:1065800000B96560284670BD014609B90120704711
:10659000486818B9886808B90120F8E70020F6E7CC
:1065A0002DE9F04104460D460CB9BDE8F0812046C6
:1065B000FFF777FFA8420FD129462046FFF789FF52
:1065C0006060606810B90020A0602FE000222046C3
:1065D00061682EF05DFD29E02046FFF787FFA842A5
:1065E0000FD129462046FFF77BFFA060A06810B9B5
:1065F000002060601AE000222046A1682EF03AFDDB
:1066000014E029462046FFF76BFF06462946204640
:10661000FFF75FFF07463A46314620462EF02AFD37
:106620003246394620462EF033FD00BF00BFBCE79E
:1066300010B504462068806818B120682146826839
:1066400090472068006828B12068006820602046D4
:10665000FFF7EEFF10BD0146886818B18868B0F9F1
:10666000160070470020FCE72DE9F04F93B0054677
:106670008B4691469A461C9E688C20F00400001DB3
:106680006884A5F8209032895946284626F08CFE69
:106690001290A5F820A032895946284626F084FE9B
:1066A0001190688C20F004006884DDE911108842A4
:1066B0000CD1DDE91110884208D1BDF84800BDF8C1
:1066C0004410884202D113B0BDE8F08FA5F82090A5
:1066D00032895946284626F067FE1290A5F820A078
:1066E0005946284611F0BDFA10903189109A106869
:1066F000129A2BF072FA3089602833D147F6FF7175
:106700001298884202D0119888422BD1284627F04F
:1067100072F80F9000EBD0704710284627F06BF806
:106720000F9000EBD0704FEA600847F6FF711298A7
:10673000884208D1781C08F10101884200DA01E0A2
:1067400008F10100129047F6FF711198884208D1B4
:10675000781C08F10101884200DA01E008F101002B
:10676000119000BF2448FFF7CFFE044600BF1CB9BC
:1067700000BF00BF00BFFEE700BF04B9A3E7129847
:10678000E06011982061ACB325603089A080C4F826
:1067900008B0684617F05EFD2146684617F00DFE0A
:1067A0001649684617F0D9FD1548029000BF1549F3
:1067B000684617F0E0FDFF220021684617F0EDFD66
:1067C0003188684617F0DFFD7188684617F0C0FD14
:1067D000F068069000BF6846002190F83E2061F303
:1067E000000280F83E2000BF30690590684617F02F
:1067F000FBFD00BF00BF66E7F4D8002079C10308A5
:1068000025C4030855C3030810B514210148FFF738
:1068100073FE10BDF4D800202DE9FE4F04460F464C
:1068200090464FF0000900256BE1E06800EBC500E1
:106830004068C0F3406000B162E1E16801EBC5016E
:10684000496821F07F4029F08FF8064626EA0700C4
:1068500008B9012000E00020029026EA080008B9EB
:10686000012000E000200190DDE90101814272D0A9
:10687000E06850F835A04FF0000B6A4641F6100171
:1068800050462AF043FE10B14FF0010BA9E06A46D2
:1068900041F6110150462AF039FE10B14FF0010BBC
:1068A0009FE06A4641F6120150462AF02FFE10B1D1
:1068B0004FF0010B95E06A4641F6130150462AF06D
:1068C00025FE10B14FF0010B8BE06A4641F6150131
:1068D00050462AF01BFE10B14FF0010B81E06A46D2
:1068E00041F6140150462AF011FE10B14FF0010B91
:1068F00077E06A4641F2690150462AF007FE10B17E
:106900004FF0010B6DE06A4643F20C0150462AF04D
:10691000FDFD10B14FF0010B63E06A4643F20D013B
:1069200050462AF0F3FD10B14FF0010B59E06A46D2
:1069300041F2010150462AF0E9FD10B14FF0010B80
:106940004FE06A4641F2040150462AF0DFFD18B1DB
:106950004FF0010B45E0D2E06A4641F20201504699
:106960002AF0D4FD10B14FF0010B3AE06A4641F233
:10697000030150462AF0CAFD10B14FF0010B30E080
:106980006A4641F2050150462AF0C0FD10B14FF0B1
:10699000010B26E06A4641F2060150462AF0B6FD98
:1069A00010B14FF0010B1CE06A4641F23201504633
:1069B0002AF0ACFD10B14FF0010B12E06A4643F62D
:1069C0000F0150462AF0A2FD10B14FF0010B08E074
:1069D0006A4643F60E0150462AF098FD08B14FF082
:1069E000010BBBF1000F02D00320BDE8FE8F6A4609
:1069F00040F60A0150462AF089FD10B14FF0020915
:106A00007CE06A4640F60B0150462AF07FFD10B14B
:106A10004FF0020972E06A4643F60F0150462AF031
:106A200075FD10B14FF0020968E06A4643F60E01A9
:106A300050462AF06BFD10B14FF002095EE06A4645
:106A400040F63C0150462AF061FD10B14FF00209BA
:106A500054E06A4640F63D0150462AF057FD10B119
:106A60004FF002094AE06A4640F63A0150462AF0E1
:106A70004DFD10B14FF0020940E06A464FF4046149
:106A800050462AF043FD10B14FF0020936E06A4645
:106A900040F6450150462AF039FD10B14FF0020989
:106AA0002CE06A4640F6410150462AF02FFD10B115
:106AB0004FF0020922E06A4640F6420150462AF0B1
:106AC00025FD10B14FF0020918E06A4640F6430177
:106AD00050462AF01BFD10B14FF002090EE06A4645
:106AE00040F6490150462AF011FD10B14FF002095D
:106AF00004E0B9F1000F01D14FF0010900BF00BF60
:106B00006D1C608CC0F3C500A8423FF68EAE4846AF
:106B10006BE7000001480068704700005801002042
:106B200070470146C1F30412072A00DD0722D0B2E4
:106B30007047000010B518210348FFF7DDFC012065
:106B40002CF02AFC10BD0000A0D800202DE9F04157
:106B500005460F4616460DB9BDE8F0812846F9F7FF
:106B600055FE8046394628460A4A1268904707462D
:106B7000E8193146074A1268904706463C4603E04A
:106B8000A019285C2855641CA8EB0600A042F7D287
:106B900000BFE1E7EC0200202DE9F04106460C467B
:106BA00017461D4629463046084A1268904720601D
:106BB000206830B1296888190021044A126890477A
:106BC00000E000203860BDE8F0810000E402002011
:106BD0002DE9F04F87B004460F4692469846DDE90E
:106BE00010560DB1002028801CB9002007B0BDE868
:106BF000F08F207808B90020F8E70FB90020F5E7FA
:106C00004FF0000906F0020010B906F0040098B138
:106C1000002000E0401C215C0A2905D0215C0D29E0
:106C200002D0215C0029F5D1215C01B1401C15B1D5
:106C30004FF0FF312980D9E706F0020008B141F694
:106C4000FF7800200690059038E000200490059819
:106C500008B9012000E0002006A904AACDE90062DD
:106C6000CDE90210059960184346524639462CF08A
:106C70002DFE83460498A8EB00000FFA80F80498D4
:106C800048440FFA80F9BBF1000F00D11CE00598D1
:106C90005844059020780A2802D020780D2800D189
:106CA00012E00598205C0A2803D00598205C0D2886
:106CB00003D10598401C059006E000BF0598205CB4
:106CC00010B1B8F1000FC0DC00BF059870B905A97C
:106CD0002046094A12689047834635B1002259463A
:106CE00038461EF0B6FE0FFA80F900BF0DB1A5F8C8
:106CF000009005987AE70000E40200202DE9F047B3
:106D000006468846174606B10FB9BDE8F0873046FB
:106D1000F9F77CFD81463846F9F778FD044604B959
:106D2000F3E704EB090A414630460B4A12689047E4
:106D30008046554603E0281B305C70556D1E08EBFD
:106D40000400A842F7D906EB08002246394623F092
:106D500026F800BFD9E70000EC0200200246002020
:106D60000FA31B788B4211D113781BB90123137029
:106D700001200BE01378012B02D10023137005E0F2
:106D80001378022B02D10023137001201378012BFA
:106D900004D1202901D10223137001207047000083
:106DA0002300000073B582B0064603980190324676
:106DB00000210846019B2DF0A5F805460020019012
:106DC0000024681C22F04CFD044600BF1CB900BF23
:106DD00000BF00BFFEE700BF14B9002004B070BDC3
:106DE000002060553246691C2046039B2DF08AF82E
:106DF0002046F3E72DE9F04781460E4614461F462C
:106E0000DDF820A035461BE0600800FB0755294649
:106E10004846D047B0F1000809DD04F0010080F0D9
:106E20000100C0EB5404E8190546064608E0B8F135
:106E3000000F02DA6408354602E02846BDE8F08714
:106E4000002CE1D10020F9E72DE9FF4F85B0834602
:106E5000DDE9158ADDE91349DDE91775129E05F0B4
:106E60000200F8B94FB105F0010030B1B9F1000FDF
:106E700002D105F00C0000B17F1E03E03022204655
:106E8000641C3254544501D2202CF7D303E0302245
:106E90002046641C325405F0010018B1BC4201D2F6
:106EA000202CF4D305F01000B0B305F4806050B985
:106EB0004CB1544501D0BC4205D1641E1CB1B8F19F
:106EC000100F00D1641EB8F1100F09D105F0200099
:106ED00030B9202C04D278222046641C325415E0AC
:106EE000B8F1100F09D105F0200030B1202C04D2E8
:106EF00058222046641C325408E0B8F1020F05D134
:106F0000202C03D262222046641C3254202C03D24F
:106F100030222046641C3254202C16D2B9F1000FC6
:106F200004D02D222046641C32540EE005F00400EB
:106F300020B12B222046641C325406E005F00800E4
:106F400018B120222046641C3254CDE90275CDE9E7
:106F50000064584606A90EC900F0A2F809B0BDE8C1
:106F6000F08F2DE9FF4F8FB08046DDE91FABDDE9E3
:106F70001D96219D1C9C00270CB925F0100505F4D9
:106F8000806000B1E4B100BFB4FBF6F106FB114133
:106F9000C8B20A2802DA00F1300107E005F020014A
:106FA00009B1412100E0612101440A39CBB23946DF
:106FB0007F1C07AA5354B4FBF6F40CB1202FE3D383
:106FC00007A8CDE904AB8DE88102039606954046FB
:106FD00010A90EC9FFF738FF13B0BDE8F08F2DE9F7
:106FE000FF4F8FB0DDE9217BDDF89080209EDDE949
:106FF0001C454FF00009002184EA01006940084364
:1070000001D128F0100808F4806028B1002184EA3A
:107010000100694008432DD000BF32463B46204660
:107020002946F9F7BEF902F0FF0ABAF10A0F02DAAF
:107030000AF1300007E008F0200008B1412000E02C
:10704000612050440A38C2B2484609F1010907A933
:107050000A5432463B4620462946F9F7A2F904462F
:107060000D46002184EA01006940084302D0B9F1CD
:10707000200FD2D32398CDE9036BCDE9050807A9EA
:107080001E98CDE9001902900FA80FC8FFF7DCFE8B
:1070900013B0BDE8F08F9A4200D288547047704711
:1070A0002DE9FF5F05461446DDE90EA6DDE91087F0
:1070B000A34607F0020078B907F0010060B9B146B5
:1070C00007E02246641C2020039B0199A84709F190
:1070D0000109C145F5D300BF08E02246641C711EBA
:1070E0000E461AF80100039B0199A847002EF4D11F
:1070F00007F0020050B105E02246641C2020039BEB
:107100000199A847A4EB0B004045F5D3204604B0F5
:10711000BDE8F09F00BF70472DE9FF4F8BB00746D9
:1071200000250C9800B9FA4FEAE20E98007825285D
:107130000AD02A466D1C0E990878DDE90C13B84771
:107140000E98401C0E90DBE20E98401C0E9000241E
:1071500000BF0E9800782B2819D004DC20281ED000
:1071600023282CD123E02D2809D0302827D144F022
:1071700001040E98401C0E9001200A9022E044F079
:1071800002040E98401C0E9001200A901AE044F070
:1071900004040E98401C0E9001200A9012E044F066
:1071A00008040E98401C0E9001200A900AE044F05A
:1071B00010040E98401C0E9001200A9002E000205E
:1071C0000A9000BF00BF0A980028C2D180460E99DD
:1071D0000878FDF798FE20B10EA8FDF77FFE8046E7
:1071E00012E00E9800782A280ED1189901C918913A
:1071F000002804DA44F00204C0F1000800E08046F0
:107200000E99491C0E9100BF4FF000090E980078AE
:107210002E281FD144F480640E98401C0E900E99C5
:107220000878FDF770FE20B10EA8FDF757FE8146E5
:1072300010E00E9800782A280CD1189901C91891ED
:10724000002801DD014600E0002189460E99491C15
:107250000E9100BF0E9800786C280AD004DC6828D4
:1072600016D06A2835D128E0742820D07A2830D169
:1072700029E044F480740E98401C0E900E9800781B
:107280006C2804D144F400740E98401C0E9021E048
:1072900044F080040E98401C0E900E9800786828E8
:1072A00004D144F040040E98401C0E9012E044F4C7
:1072B00080740E98401C0E900CE044F400740E98FC
:1072C000401C0E9006E044F480740E98401C0E9012
:1072D00000E000BF00BF0E98007869281DD00EDCCA
:1072E000622821D006DC25287ED050281AD05828C4
:1072F0007BD115E0632879D06428F9D10CE073289C
:1073000075D004DC6F280ED07028F1D109E0752803
:1073100004D07828ECD102E000BF00BF00BF00BF5E
:1073200000BF00BF00BF00BF0E980078782803D0D0
:107330000E980078582801D1102623E00E98007886
:10734000702803D00E98007850280CD1102644F0F5
:10735000100444F480740E984078562812D10E9888
:10736000401C0E900EE00E9800786F2801D1082680
:1073700008E00E980078622801D1022602E00A2671
:1073800024F010040E980078582803D00E98007846
:10739000502801D144F020040E980078692805D0C7
:1073A0000E980078642801D024F00C0404F4806066
:1073B00008B124F001040E980078692803D00E98D3
:1073C000007864287CD104F40070B8B31898C01D0C
:1073D00020F007001890D0E900AB189A08321892F4
:1073E0000020CDE9069803E073E17CE1F2E01CE1C6
:1073F000CDE904600894BAEB00017BEB000001DAF0
:10740000012000E00020002102900846B1EB0A01B3
:1074100070EB0B0002DA5046594605E000200146A9
:10742000B0EB0A0061EB0B01CDE900012A463846BA
:10743000DDE90C13FFF7D3FD0546C7E0FFE704F4D1
:107440008070D0B1189850F804AB18904FEADA70F9
:10745000CDE9039802960594BAF1000F01DD51467B
:1074600001E0CAF10001CDE900102A463846DDE905
:107470000C13FFF776FD0546A8E004F0400028B1A4
:10748000189810F8041B1890C8B20DE004F08000A2
:1074900028B1189830F8041B189008B204E0189826
:1074A00000681899091D189182464FEADA70CDE9F3
:1074B000039802960594BAF1000F02DD514602E0EE
:1074C0000BE0CAF10001CDE900102A463846DDE99B
:1074D0000C13FFF746FD054678E00E980078562815
:1074E00018D1189850F804AB1890DAF80400006826
:1074F000099009980090DAF800300D98421B0C981A
:1075000041193846FFF708FE0544002009905DE068
:107510009F70000804F40070D0B11898C01D20F0CE
:107520000700CDE90698089418900020CDE9046082
:107530000290189903C9189A08321892CDE90001EF
:107540002A463846DDE90C13FFF749FD05463DE0C4
:1075500004F4807098B10022CDE903980296059456
:10756000189800681899091DCDE9000218912A465B
:107570003846DDE90C13FFF7F4FC054626E004F07D
:10758000400028B1189810F8041B1890C8B20DE0FC
:1075900004F0800028B1189830F8041B189088B2C5
:1075A00004E0189800681899091D18918246002077
:1075B000CDE900A0CDE90398029605942A46384605
:1075C000DDE90C13FFF7CDFC054600BF0E98401C0B
:1075D0000E9093E0012604F0020050B905E02A461F
:1075E0006D1C2020DDE90C13B8473046761C404561
:1075F000F5D3189911F8043BD8B22A466D1C18919E
:10760000DDE90C13B84704F0020050B105E02A464A
:107610006D1C2020DDE90C13B8473046761C404530
:10762000F5D30E98401C0E9068E0189850F804AB03
:1076300018905046B9F1000F01D0494601E04FF0D3
:10764000FF310A46014600E0491C0B781BB1131EAE
:10765000A2F10102F8D10E1A04F4806028B14E455F
:1076600001D2304600E04846064604F0020050B918
:1076700005E02A466D1C2020DDE90C13B847304692
:10768000761C4045F5D306E01AF8010B2A466D1C1E
:10769000DDE90C13B8479AF8000040B104F48060AB
:1076A0000028F1D0B9F10000A9F10109ECD104F0F2
:1076B000020050B105E02A466D1C2020DDE90C13C4
:1076C000B8473046761C4045F5D30E98401C0E90C6
:1076D00014E02A466D1C2520DDE90C13B8470E98EE
:1076E000401C0E900AE02A466D1C0E990878DDE9D0
:1076F0000C13B8470E98401C0E9000BF00BF00BF8F
:107700000E98007800287FF410AD0D98854201D2C4
:10771000284601E00D98401E02460020DDE90C13CA
:10772000B84728460FB0BDE8F08F2DE9F041044678
:107730000E46002774B13146204600F02DF805466C
:10774000B5F5803F05D20C2D01D9284600E00C206C
:10775000074600BF3846BDE8F081024600BF481E1C
:10776000084018B100BF00BF00BFFEE700BF481EC1
:107770001040101A704710B502464B1E13444C1EA1
:1077800023EA040000BF4B1E0B401BB100BF00BF2B
:1077900000BFFEE700BF10BD024600BF481E084004
:1077A00018B100BF00BF00BFFEE700BF481E104475
:1077B0004B1E9843704700002DE9F04180460E466D
:1077C000444601206086002500270DE056F827007A
:1077D00025A1F9F703F910B1681C85B202E0608EAB
:1077E000401C6086781C87B256F8270020B156F8F6
:1077F000270000780028E9D1208EA84201D1BDE8F9
:10780000F081A06A20B1A06A22F0F8F80020A062FE
:10781000E06A20B1E06A22F0F1F80020E062E800BE
:1078200022F01EF8A06200BFA06A18B900BF00BF16
:1078300000BFFEE700BF680022F012F8E06200BF60
:10784000E06A18B900BF00BF00BFFEE700BFA06A32
:1078500008B1E06A00B900256900E06A22F0E5FAA3
:10786000258600BFCBE700000A0000002DE9F84F95
:1078700081460E46924699F8090000F0070002285A
:1078800001D1304600E050468346564501DD304682
:1078900000E050460746032000EB470020F00300BD
:1078A00000F110053948006839490968A0EB010862
:1078B000002405EB080037490968884206D233489E
:1078C0000468606820F0004060603AE03148006879
:1078D000854221D813E04FF0FF3000900022694626
:1078E0002D4812F0C5FD002269462C4812F0C0FD5B
:1078F0002648006826490968A0EB010800BF08EB8C
:107900000500244909688842E5D820480468606871
:1079100020F00040606014E0284621F0A1FF0446FA
:1079200000BF1CB900BF00BF00BFFEE700BF14B915
:107930000020BDE8F88F606820F0004000F10040B2
:10794000606032465946484602F00AF82060606896
:1079500000F04040401C6060606820F08040606043
:10796000A781A4F80EB06068C00F20B1204600F1D6
:107970001001A16008E0054800681030A0600348CD
:1079800000682844014908602046D2E760010020D1
:10799000B40200205C0100201F520108B1A60108BA
:1079A000F0B585B006460D4634460020049003909D
:1079B000029094F83C0000F0030020B1012838D078
:1079C000022866D000BF94F83C0000F003005A493A
:1079D000097888421BD02620005D00EB001000EBE8
:1079E0004000142190FBF1F0544908702720005DFD
:1079F00000EB001000EB4000142190FBF1F0504927
:107A0000087094F83C0000F003004B49087002A88D
:107A100003A9CDE9001005EB45014FF6FF7202EA1C
:107A2000410004AB46490A78444909780CF06BFFE1
:107A30005FE094F83C0000F003003F490978884279
:107A40001AD0A08C00EB400040024FF4B471B0FBA0
:107A5000F1F03C4908802720005D00EB001000EBAE
:107A60004000142190FBF1F03549087094F83C0077
:107A700000F003003049087002A803A9CDE9001006
:107A8000E9B204AB2E4802782E4800880CF03BFF88
:107A90002FE094F83C0000F0030027490978884261
:107AA0001AD0A08C00EB400040024FF4B471B0FB40
:107AB000F1F0244908802620005D00EB001000EB67
:107AC0004000142190FBF1F01C49087094F83C0030
:107AD00000F003001849087002A803A9EAB204AB39
:107AE000CDE9001015480178164800880CF00BFF0E
:107AF00000BF00BF9DF810009DF80C109DF80820F5
:107B0000D708BDF8003067F304038F080093BDF871
:107B1000003067F34A13C7080093BDF8003067F3DD
:107B2000CF230093BDF800703B460193BDF80410CD
:107B3000084605B0F0BD000012020020100200202F
:107B4000110200200E02002010B501200749087024
:107B50000748FEF7A6FC20B9064800682BF0F8FCA1
:107B600003E0044800682BF0FFFC10BD9C020020DD
:107B7000D0D80020A002002010B5044694F83E00A2
:107B8000C0F3400050B9A08F002807DDA08F4FF64A
:107B9000FF71884202D0A08F401EA087A08FA8B995
:107BA000606B20B194F83E00C0F3400070B12146F4
:107BB0001748FEF7F5FCFFF7C7FFE06810B1204655
:107BC000E1688847204621F019FF1FE0A06B404282
:107BD000E062606BD0B194F83E10C1F3400111B97E
:107BE000216B4942E16294F83E104908C94394F878
:107BF0003E2061F3410284F83E20E069616AE16160
:107C00006062A06A616BA162606300BF10BD00008A
:107C1000D0D800202DE9F0418046424800682BF082
:107C200013FB06464048007880F001003E4908708A
:107C30003E48FEF736FC04466BE000203C490870E5
:107C400094F83E00C0F3800037490978884253D049
:107C5000354801782C34A07C61F38200A074206840
:107C60008719A07C2C3CC0F3C00010BBE06A002840
:107C70001FDC002F1DDB94F83E0000F0010060B90E
:107C8000206950B12046216988470546E0692844AB
:107C9000E061606A2844606200BFA06810B12046BD
:107CA000A168884794F83E0020F00800083084F866
:107CB0003E00E06A3044E062E06A00281BDBD4E961
:107CC0000A10884201DDA06AE0622046A169884767
:107CD0000546206AA84206D02562606818B1294688
:107CE000D4E900029047D4E90A10884202DB20461A
:107CF000FFF742FF00BF00BF0D48007820B10B48DE
:107D0000FEF7CFFB044604E021460848FEF7E1FBFE
:107D10000446002C91D12BF0A4FA02490860BDE87A
:107D2000F0810000980200209D020020D0D80020A1
:107D30009C020020F7B582B004460E4614B90498A0
:107D400005B0F0BD00BF63223146204625F02CFB74
:107D50000190019D00BFBDB12868A8B100BF642299
:107D60003146204625F020FB01900198C0B207461D
:107D70004FB13A462B682846049998470190BDF8C0
:107D80000400ADF8100000BF0498D9E770B50446B0
:107D90000D46606818B129466068FFF7F7FF206854
:107DA00018B1294620462268904770BD70B5054637
:107DB0000C46A1B2284616F0B3FF70BD70B505465B
:107DC0000C46A1B2284616F0FCFF70BD10B510F0AD
:107DD000FBFC10BD70B505460C46164606E028466D
:107DE0006A1C95B200F008F804F8010B301EA6F1E9
:107DF00001018EB2F3D170BD70B50446002610F0BB
:107E0000ADFD2112A02202EB4101C8B210F06EFDBF
:107E100010F0ECFD2546E11704EB11610912A4EB0B
:107E20000121C8B210F062FD10F0E0FD10F096FDE7
:107E3000A12010F05BFD10F0D9FD002010F026FD10
:107E4000064610F0B3FD304670BD70B505460C46D1
:107E5000164606E02178284600F009F8681C85B22D
:107E6000641C301EA6F101018EB2F3D170BD70B555
:107E700004460E4610F072FD2112A02202EB4101D1
:107E8000C8B210F033FD10F0B1FD2546E11704EB48
:107E900011610912A4EB0121C8B210F027FD10F006
:107EA000A5FD304610F022FD10F0A0FD10F07EFD83
:107EB0000A2002F071FD70BD70B504460D4600BF8A
:107EC000204600F03BF818B100BF00BF00BFFEE73E
:107ED00000BF284600F050F9001D6168084460604A
:107EE000204600F03AF8204670BD70B505460C46B5
:107EF000284600F041F904F11001884201D3012025
:107F000070BD0020FCE70146A1F1080070477CB578
:107F100005460C46204600F02FF906466A4601A9A0
:107F20002CF034FB21462846DDE9003211F022FE18
:107F30007CBD0146087900F00100704710B5044689
:107F4000204600F019F908B9012010BD0020FCE717
:107F50000146087900F00200704770B504462046DB
:107F600000F097F805462C60284670BD7CB50646A3
:107F70000C4600200190009000256CB16A4601A9D2
:107F800020462CF020FB01980A2805DA6A4601A950
:107F900030462FF0B7FC054685B100BF284600F0FB
:107FA000EBF8A04203D200BF00BF00BFFEE700BF56
:107FB00029463046DDE900322FF093F828467CBD93
:107FC00070B504462046FFF7C8FF0546284600F076
:107FD000BEF8204600F0B6F870BD70B504462046E5
:107FE00000F057F80546284600F0B6F8204600F0A5
:107FF000BEF870BD70B506460D46284600F049F83B
:10800000044600BF1CB900BF00BF00BFFEE700BFB1
:108010002046FFF78EFF90B100BF2846FFF78EFF86
:1080200018B100BF00BF00BFFEE700BF21463046C9
:1080300000F076F821462846FFF73EFF0546284621
:1080400070BD70B506460D462846FFF781FFF0B1BA
:10805000284600F057F8044600BF1CB900BF00BF17
:1080600000BFFEE700BF00BF2046FFF762FF18B960
:1080700000BF00BF00BFFEE700BF2146304600F052
:108080004FF829462046FFF717FF054600BF284650
:1080900070BD2DE9F0410446204600F06DF8061F42
:1080A000204600F0B8F8074631462DF0B8FA0546EC
:1080B00000BF2046FFF742FF18B100BF00BF00BF5E
:1080C000FEE700BF2846BDE8F0812DE9F0410646F5
:1080D0000C461546002794B100BF1DB900BF00BF74
:1080E00000BFFEE700BF2A462146304600F097F861
:1080F0002046FFF772FF204600F08DF8074638460D
:10810000BDE8F08110B5044600BF2046FFF720FF10
:1081100018B900BF00BF00BFFEE700BF206810BD58
:108120007CB505460C46204600F026F806466A4611
:1081300001A92CF02BFA21462846DDE900322EF069
:10814000D0FF7CBD416841F001014160704741684A
:1081500041F0020141607047416821F00201416035
:108160007047426802F003030B4343607047416865
:1081700021F00101416070470146486820F003008A
:1081800070472DE9F04706460C46304600F043F8AC
:108190008046211F2DF043FA07463046FFF7ECFFDB
:1081A000211D451A00BF384600F035F88146384693
:1081B00000F031F880460421FFF7DDFA814503D055
:1081C00000BF00BF00BFFEE700BF00BF3046FFF7A3
:1081D000D3FF2919091D884203D000BF00BF00BF8B
:1081E000FEE700BF29463846FFF7BBFF00BF384611
:1081F000FFF7C2FF0C2803D200BF00BF00BFFEE79D
:1082000000BF21463046FFF7ACFF3846FFF7D8FEE7
:108210003846BDE8F087014601F1080070472DE9B6
:10822000F04106460C46154600BF2046FFF781FE8A
:1082300018B900BF00BF00BFFEE700BF29462046B7
:10824000FFF753FE78B129462046FFF79AFF07460D
:108250002046FFF782FE3846FFF779FF3946304661
:10826000FFF755FE00BFBDE8F0812DE9F04106465D
:108270000C46154600BF2046FFF75BFE18B100BF55
:1082800000BF00BFFEE700BF29462046FFF72DFED6
:1082900088B129462046FFF774FF07463846FFF7A6
:1082A0005BFF39463046FFF7A5FE074639463046A4
:1082B000FFF72DFE00BFBDE8F0812DE9F84306462B
:1082C00034461FF03BFB804640461FF07CFB78BBEA
:1082D00030461CF08CFF38B330461CF004FE208F73
:1082E000E18E884212D0E08E2087E08E00906A46B0
:1082F0001C2130461DF068FA0746012F02D038468F
:10830000BDE8F883304625F070FE00BF40461FF000
:108310006AFB0546042D06D1304623F0C7FC07460C
:1083200000211EF0FEF809E030461CF0C3FF05E016
:10833000FFE7208FE086304625F057FE0120DFE77B
:108340002DE9F041044620461DF038FA054628463E
:1083500023F006FD0646284617F0B0FD0746012229
:10836000394630462AF028F9BDE8F0810146C1F3CC
:10837000C01070470146C1F3801070470146C1F339
:10838000C01070470146C1F3002070470146C1F399
:10839000C00070470146C1F3401070470146C1F369
:1083A000402070470146C1F3003070470146C1F3D9
:1083B000001070472DE9F04F89B004460D460021AA
:1083C000204623F068FB30B91C21284621F02DFD02
:1083D00009B0BDE8F08F2946204600F00BFB294686
:1083E000204600F07DF80021204624F087FD08900B
:1083F0000021204624F008FF07900021204624F0A9
:108400003DFB012800D100E00020814600212046EC
:1084100025F0B0F907460021204624F01DFC064651
:1084200042F2D170874205D1608CC0F3802008B938
:10843000012000E000208246204623F0CCFB06907D
:1084400000BF4FF00008244802884146204624F02F
:10845000ABFF03900398C0B200BF8346AA682969A6
:108460002868CDE90209CDE900125A465146089B19
:1084700006980FF0EFFC288342F2D170864205D1B6
:10848000608CC0F3402008B9012000E00020059076
:10849000204623F081FB049000BF4FF000080F48F6
:1084A00002884146204624F07FFF03900398C0B223
:1084B00000BF83460023EA6869686869CDE9021352
:1084C000CDE900025A46079BDDE904010FF0C2FC2A
:1084D000688300BF7CE70000860100208A0100203D
:1084E0002DE9F34F87B00C4607980EF09FFA8046AF
:1084F000079823F070FB0690404601F0ACFA20612B
:108500002169480021F0E6F920602169480021F046
:10851000E1F9A060002548E05848029038F91500BC
:1085200041F69A7188423FD10020019029E00199DB
:10853000079823F0B0FA00905149009825F0C3F94C
:1085400000B11BE000980EF08FFA8246BAF1010FDD
:1085500000D013E000980EF077FA8346AB4500D0C8
:108560000CE0009825F047F90299884201DA029858
:1085700002E0009825F03FF9029000BF0198401CEE
:108580000190079823F0A5FA01998842CFD8029864
:10859000002804DB0298A16821F8150003E00021FF
:1085A000A06820F8151000BF6D1C2069A842B3D840
:1085B0000026B14600251BE038F9150041F69B71F5
:1085C000884202DB411A0E4411E041F69A7188425A
:1085D00006D1A16831F8151049440FFA81F906E077
:1085E000A16821F8150009EB00010FFA81F96D1C53
:1085F0002069A842E0D80021079824F07FFC05906C
:108600002169491EDDE9050200FB112000B2069038
:108610000698A0EB090007B2002F00DA00274FF000
:10862000FF30049000200390002513E038F9150076
:1086300041F69B7188420CDB421A11B207FB01F232
:10864000B2FBF6F212B2A36823F815200495039149
:1086500000BF6D1C2069A842E8D8049800280ADBF6
:108660000398301A7843B0FBF6F0381A01B2A268CA
:10867000049822F8101009B0BDE8F08F01E0FFFF68
:10868000010006002DE9FC5F054600221146284640
:1086900026F070FD0021284624F057FA814600217B
:1086A000284624F0D8FD484407B20021284624F08B
:1086B00089FB48440FFA80FA284624F045F93844EB
:1086C00050440FFA80FB3B4E284623F002FA0190FB
:1086D0004FF000085CE0A868006850F82840364970
:1086E000204625F0F0F800B150E0204625F0FAFCD5
:1086F000002839D10021204624F058F90090009834
:1087000030B1012807D0022804D0032815D100E099
:1087100000BF00BF00BFB4F91A10B5F91600081A5F
:10872000401CB04201DA304605E0B4F91A10B5F940
:108730001600081A401C06B214E00021204625F05D
:108740004DF870B904F1140016F015FC3844B0422D
:1087500001DA304604E004F1140016F00CFC384451
:1087600006B200BF00BF10E0B4F91A10B5F9160048
:10877000081A401CB04201DA304605E0B4F91A107C
:10878000B5F91600081A401C06B200BF08F101082E
:10879000019880459FD30748864209D006EB0A001E
:1087A00006B25E4502DD3046BDE8FC9F5846FBE759
:1087B0005846F9E701E0FFFF010004002DE9FC5FE6
:1087C000054600221146284626F0B8FC002128461E
:1087D00024F0BBF982460021284624F079FC50445D
:1087E0000FFA80F80021284624F0C9FB50440FFA04
:1087F00080F9284624F0B8F84844404400B201907B
:10880000724C284623F065F983460021284624F05F
:108810000EF9012866D100265BE0A868006850F8D0
:1088200026706B49384625F04EF800B150E03846C6
:1088300025F058FC002839D10021384624F0B6F83C
:108840000090009830B1032805D0062804D00828ED
:1088500015D102E000BF00BF00BFB5F91800B7F99D
:108860001410401A401CA04201DA204605E0B5F978
:108870001800B7F91410401A401C04B214E000218B
:10888000384624F09EFF70B907F1140016F0E6FB9D
:108890004044A04201DA204604E007F1140016F03B
:1088A000DDFB404404B200BF00BF10E0B5F9180082
:1088B000B7F91410401A401CA04201DA204605E026
:1088C000B5F91800B7F91410401A401C04B200BFE3
:1088D000761C5E45A1D33D48844269D004EB090073
:1088E00004B265E000265BE0A868006850F82670D6
:1088F0003749384624F0E7FF00B150E0384625F00C
:10890000F1FB80BB0021384624F050F8009000981D
:1089100030B1012805D0042804D0072815D102E081
:1089200000BF00BF00BFB7F91800B5F91410401A16
:10893000401CA04201DA204605E0B7F91800B5F95D
:108940001410401A401C04B215E00021384624F0EF
:1089500045FF78B907F1140016F080FB4844A042A7
:1089600002DA204605E008E007F1140016F076FB75
:10897000484404B200BF00BF10E0B7F91800B5F9D1
:108980001410401A401CA04201DA204605E0B7F955
:108990001800B5F91410401A401C04B200BF761C30
:1089A0005E45A1D30948844202D004EB080004B21A
:1089B0000648844202D10198BDE8FC9F0198844298
:1089C00001DD2046F8E70198F6E7000001E0FFFF2F
:1089D0000100040010B50446206820F0F7FF60682D
:1089E00020F0F4FFA06820F0F1FFE06820F0EEFF37
:1089F00010BD00002DE9F34F87B00C4607980EF02C
:108A0000BFFF8046404601F026F86061616948007A
:108A100020F060FF60606169480020F05BFFE0606B
:108A2000002548E05948029038F9150041F69A713E
:108A300088423FD10020019029E00199079823F056
:108A40002AF800905249009824F03DFF00B11BE045
:108A500000980FF05DF88246BAF1010F00D013E0E4
:108A600000980FF045F88346AB4500D00CE0009825
:108A700023F026F90299884201DA029802E0009870
:108A800023F01EF9029000BF0198401C0190079846
:108A900023F01FF801998842CFD80298002804DB00
:108AA0000298E16821F8150003E00020E16821F850
:108AB000150000BF6D1C6069A842B3D80026B146FE
:108AC00000251BE038F9150041F69B71884202DB56
:108AD000411A0E4411E041F69A71884206D1E168CC
:108AE00031F8151049440FFA81F906E0E16821F8E0
:108AF000150009EB00010FFA81F96D1C6069A842AD
:108B0000E0D80021079824F07FFB0690079823F017
:108B100043F801466269521E069800FB121000B22B
:108B200005900598A0EB090007B2002F00DA002796
:108B30004FF0FF30049000200390002511E038F939
:108B4000150041F69B7188420ADB421A11B207FBFD
:108B500001F2B2FBF6F212B2E36823F8152000BF6F
:108B60006D1C6069A842EAD8049800280ADB0398C3
:108B7000301A7843B0FBF6F0381A01B2E268049874
:108B800022F8101009B0BDE8F08F000001E0FFFFEF
:108B9000010006007CB504460D461646288821894A
:108BA000084400B2ADF8000068886189084400B24A
:108BB000ADF80200A8882189084400B2ADF804008D
:108BC000E8886189084400B2ADF80600324669467B
:108BD0002046636998477CBD2DE9F04704460D4661
:108BE00090469946AD1E606B00EB153AC5F3C8067A
:108BF00005F0070101208840C7B200BF51460AF1C5
:108C0000010A20462CF022F810B10120BDE8F087BF
:108C100000BF00BF04F13C00805D384008B1012076
:108C200000E00020484501D10220EFE704F13C00BC
:108C3000805D784004F13C0188550120E070A8F186
:108C40000100B0F1000800D1E0E77806000E071E31
:108C5000E0D10127701C0646B0F5007FD9D300266D
:108C6000CCE70000F8B505460E462C46206B10B147
:108C7000206B007818B9606B08B90120F8BD606BF3
:108C800058B128462AF08DF80746104909688847E8
:108C9000616B884201D30020F0E7206B98B100207F
:108CA00000900AE069460A4A206B1268904707461E
:108CB000B74201D10120E1E700BF206B0099405C81
:108CC0000028EFD1DAE70120D8E70000F402002005
:108CD000E402002070B504460D460020E070401EFE
:108CE000A063294620462BF0B1FF08B1042070BDD7
:108CF00004F23A2014F0A8FE4AF65521884201D029
:108D00000320F4E70B2214A104F13C002BF085FCB6
:108D100008B90120EBE794F83C00E92807D094F863
:108D20003C00EB2803D094F83C00E82811D1032242
:108D30000CA104F172002BF070FC08B90020D6E7FA
:108D4000052209A104F18E002BF067FC08B9002070
:108D5000CDE70220CBE70000EB7690455846415422
:108D60002020200046415400464154333200000088
:108D70002DE9FF4F8FB00F46209DF87800F00100DD
:108D800008B1FA4800E0FA480E90F87800F00100C7
:108D900008B1F84800E0F8480D90F87800F00100BC
:108DA00008B9F44800E0F4480C9001200B90B5E0BD
:108DB00000220B9200206A88B5F804C0A2EB0C02D6
:108DC00011B200261AE006EB860CEA6802EB8C0270
:108DD000127C02F0010242B906EB860CEA6802EB53
:108DE0008C029289024410B207E006EB860CEA6816
:108DF00002EB8C0212898A1A11B2761C2A69B242DD
:108E0000E1D8002685E006EB860CEA6802EB8C02CE
:108E1000127C02F00102002A7AD191FBF0F80FFADD
:108E200088F306EB8609D5F80C8008EB8908B8F8BA
:108E30000C8008FB03F80FFA88F206EB8609D5F8D8
:108E40000C8008EB8908B8F9049006EB860AD5F87F
:108E50000C8008EB8A08B8F90680904501DD904641
:108E600007E006EB860AD5F80C8008EB8A08B8F90B
:108E70000680C14508DD06EB8609D5F80C8008EBB5
:108E80008908B8F9048013E006EB8609D5F80C8050
:108E900008EB8908B8F90680904501DD904607E0A7
:108EA00006EB8609D5F80C8008EB8908B8F906802E
:108EB000C44694450BD04FF0010806EB860AD5F85E
:108EC0000C9009EB8A09C9F81080CDF82C8006EBCC
:108ED0008609D5F80C8008EB8908A8F808C006EBCD
:108EE0008609D5F80C8008EB8908B8F80C80A0EB4F
:108EF00008080FFA88F006EB8609D5F80C8008EB15
:108F00008908B8F80880A1EB08080FFA88F100BFBB
:108F1000761C2A69B2423FF676AF00BF0B98002854
:108F20007FF446AF00210F9823F09BFD012800D16C
:108F300000E000200A9000200990089008A809A9E4
:108F4000CDE9001029890BB2B5F9022038781E99B5
:108F50002CF0AEFBF87800F0010048B10A9838B167
:108F60000F9822F038FEBDF82410084400B2099092
:108F700011990F9822F08FFD04468AE17F4920461F
:108F800024F0A1FC40B1F878C0F3800111AA0F9839
:108F90000EF031FB04467CE10021204623F032FE36
:108FA00007900798002858D000200390002610E072
:108FB00006EB8601E86850F82100A04208D106EBD4
:108FC0008600E96801EB8000B0F90800039003E037
:108FD000761C2869B042EBD800BFF87800F0010099
:108FE00030B1608C20F4806000F58060608405E022
:108FF000608C20F4007000F50070608404F11400AF
:109000000D9988470399884226D0204624F0EDFF29
:1090100000BFA08AADF80400E08AADF80600208BFE
:10902000ADF80800608BADF80A0000BF04F1140031
:109030000E9A0399904701AA292120461CF0C4FBEF
:10904000204622F08DFE2246222100901CF0BCFB1F
:10905000204624F0CAFF00BF07E0608C20F4806047
:109060006084608C20F40070608400200690787822
:10907000012812D0022819D104F114000C99884754
:10908000B5F90010491C21F00101081A039000EB0A
:10909000D070401000B2069009E004F114000C9961
:1090A00088472988081A00B2069000E000BF00BF78
:1090B000F87800F0010050B10A9840B104F11400B2
:1090C0000D998847BDF82410081A00B209900020B5
:1090D000039043F20C022046039924F065F90290B4
:1090E00002980FFA80F800BF0020039043F20D02AF
:1090F0002046039924F058F9029002980FFA80F95B
:1091000000BF204624F077FB0590204622F0D8FDD2
:10911000049008F4C040B0F5005F01D1012000E0E8
:10912000002030B128F4C040B0F5FA6F01DC012016
:1091300000E0002090B128F4C040B0F57A7F04DD53
:1091400028F4C040C0F57A7001E028F4C0400599C9
:109150004843642190FBF1F00FFA80F809F4C04015
:10916000B0F5005F0CD101200BE000009BF101087D
:109170008FF10108DBF00108CBEF010801000600C8
:10918000002030B129F4C040B0F5FA6F01DC0120B5
:1091900000E0002090B129F4C040B0F57A7F04DDF2
:1091A00029F4C040C0F57A7001E029F4C040049968
:1091B0004843642190FBF1F00FFA80F9A18A1C98D2
:1091C000401A40440FFA80FAE18A1D98401A484438
:1091D0000FFA80FBF87800F0010010B1BDF924000F
:1091E00000E0069850440FFA80FAF87800F0010089
:1091F00008B1069801E0BDF9240058440FFA80FB3D
:10920000BAF1000F02D1BBF1000F1BD0204624F0B1
:10921000ECFEA08A504400B2A082208B504401B2E0
:109220002183E08A584401B2E182608B584401B244
:109230006183204624F0D9FE01235A465146204638
:1092400024F0B0FFF87800F0010008B10A9870B976
:1092500004F114000D9988471F990844BDF82010A7
:109260000844BDF82410084400B2099008E0BDF895
:1092700020101F980844BDF82410081A00B2099065
:10928000F878C0F3800111AA0F980EF0B4F90446E3
:1092900000BF24B1DDE9111081427FF46FAE13B03D
:1092A000BDE8F08F024600E0521C107810B1107833
:1092B0008842F9D1107870472DE9F04F8DB00546FE
:1092C0008946B9F1000F02D10DB0BDE8F08FA5F8C5
:1092D0001890286810B1286820F090FB09EB49012C
:1092E000062202EB410020F0BBFA286000BF28688C
:1092F00018B900BF00BF00BFFEE700BF2868686064
:109300000221286801FB0900801CE860042128680C
:1093100001FB0900001DA860B9F1010F0CD1B420B8
:10932000696808700020E96808800120E9684880C1
:109330000020A9680880C7E709F10101C80020F0F2
:10934000C9FA074609F1010007EB80084FF0000A4F
:109350004FEA890002B20BA90CA800F067F90024BB
:10936000BDF930008010079000200390CCE000266B
:1093700016E00BA90CA800F061F90CA800F04BF95D
:1093800000B90FE0BDF93000801007A941F82600B0
:10939000BDF8300000F0030003A941F82600761C58
:1093A000042EE6DB00BF042E00D0B3E00A99079834
:1093B000884219D1079800B227F814000FFA8AF0F2
:1093C00028F81400DDE903010844059908440699CA
:1093D0000844696808556868005D0007000E696800
:1093E0000855601C04B28DE0DDE9070188422CD0ED
:1093F000079800B227F814000FFA8AF028F8140032
:109400000398696808556868005D0007000E696880
:109410000855601C04B20798401E00B227F81400DB
:109420000FFA8AF028F814000498001D05990844E2
:1094300006990844696808556868005D0007000ED1
:1094400069680855601C04B25CE009990798884275
:109450002CD0079800B227F814000FFA8AF028F8E9
:109460001400DDE903010844696808556868005D77
:109470000007000E69680855601C04B20798401E7A
:1094800000B227F814000FFA8AF028F814000598A3
:10949000083006990844696808556868005D000747
:1094A000000E69680855601C04B22BE0079800B2F2
:1094B00027F814000FFA8AF028F81400DDE90301F8
:1094C000084405990844696808556868005D000704
:1094D000000E69680855601C04B20798401E00B26F
:1094E00027F814000FFA8AF028F8140006980C30B8
:1094F000696808556868005D0007000E69680855CE
:10950000601C04B20AF1010A0CA800F084F80028DB
:109510007FF42DAF00BF40F2D32109FB01F0029090
:10952000029880120190601E37F910100198814254
:1095300005D1601E38F910100198814226D0DDE96E
:109540000121A1EB8220B0F5007F04DC00FB00F1DB
:109550004800001407E0C0F5806000FB00F14800FF
:109560000014C0F10F00019909B227F814100199F5
:1095700009B228F814106A6810556968095D09076E
:10958000090E6A681155611C0CB200BFA61E0EE0E0
:1095900038F8160027F8140037F8160028F81400D9
:1095A0006868805D69680855761E601C04B2002EEC
:1095B000EEDA4FF0000B00260020E968088023E077
:1095C000E96821F81B6037F81600A96821F81B002C
:1095D00010E0A86830F81B0037F91610884203DA4B
:1095E000A86830F81B0001E037F91600A96821F8D7
:1095F0001B00761C38F91600584501D1A642E8DB5D
:109600000BF101000FFA80FBA642D9DB384620F0AF
:10961000DDF900BF58E60146B1F90200B1F90020BA
:10962000904201DC012070470020FCE7028000230B
:109630004380C2F101031BB20B807047B1F90020D7
:10964000002A07DC0B8842885200D21C1A4412B24E
:109650000A800CE042880388D21A5200521D0B88FF
:109660001A4412B20A800288521E12B20280428844
:10967000521C12B2428070472DE9F84F82461546BF
:109680001E46DAF800000090DAF8500000F10409F4
:109690004FF40072002328463146F6F782FE074653
:1096A0000098B0F80AC0624600233846F6F779FE03
:1096B000834600BF59F8044B14B90020BDE8F88F69
:1096C000A34500D204E0ABEB040B09F10409F1E778
:1096D00000BFD9F800005844F0E70246891ED0695F
:1096E000801E884201D8002070475389106B03FB0D
:1096F0000100F9E72DE9F04780460C4604F11A0015
:1097000014F0A2F910B10020BDE8F087207800F035
:109710003F00401E00EB800101EBC0054FF0010946
:10972000002621E01849895D081914F08DF90746D3
:10973000B9F1000F11D0FF2D0BD838460BF0C8F946
:10974000824629466D1C38F811000BF0C1F982459C
:1097500001D00020D8E7B94605E04FF6FF708742F8
:1097600001D00020D0E7761C0D2EDBD3207800F04E
:10977000400038B1B9F1000F04D038F8150008B135
:109780000020C1E70120BFE7CC09050837B582B04A
:109790001546022D04DCBDF80C10084605B030BD9E
:1097A000BDF80C00C00ABDF8081000EBD1241F2C36
:1097B00001D2204600E01F20BDF8081060F3CF2141
:1097C0000291BDF80C00C0F34510BDF80810C1F3BC
:1097D000451144183F2C01D2204600E03F20BDF83F
:1097E000081060F34A110291BDF80C0000F01F0050
:1097F000BDF8081001F01F0144181F2C01D22046AB
:1098000000E01F20BDF8081060F304010291FF2D55
:1098100003D1BDF808100846C0E72A46DDE9020179
:1098200017F06CFD0190BDF804100846B6E717B5B7
:1098300081B01446022C04DCBDF80810084604B0C0
:1098400010BDBDF80400C00ABDF80810C90A10FB1D
:1098500001F04109BDF8040061F3CF200190BDF88B
:10986000040000F01F00BDF8081001F01F0110FBFC
:1098700001F04109BDF8040061F304000190BDF856
:109880000400C0F34510BDF80810C1F3451110FBEA
:1098900001F08109BDF8040061F34A100190FF2C2A
:1098A00003D1BDF804100846C9E72246DDE90101ED
:1098B00017F024FD0090BDF800100846BFE737B54B
:1098C00082B01546022D04DCBDF80C10084605B028
:1098D00030BDBDF80C00C00ABDF80810A0EBD124C3
:1098E000002C01DD204600E00020BDF8081060F3E8
:1098F000CF210291BDF80C00C0F34510BDF808104F
:10990000C1F34511441A002C01DD204600E000207F
:10991000BDF8081060F34A110291BDF80C0000F088
:109920001F00BDF8081001F01F01441A002C01DDD2
:10993000204600E00020BDF8081060F30401029109
:10994000FF2D03D1BDF808100846C0E72A46DDE91F
:10995000020117F0D3FC0190BDF804100846B6E7E9
:1099600008B5034600930098484080EA620008BDAD
:109970002DE9F84F804640461BF020FF82464046C6
:109980001BF0BBFE0646504622F0EAF981462B2E1C
:1099900009D1484628F003FE0446002221464846E5
:1099A00028F00AFE3AE00A2E38D16946504622F0E5
:1099B00059FA504622F00FF904460021484623F098
:1099C0006AF801280AD1204604EBD071BDF90020C5
:1099D000C2EB610191FBF4F10DB209E0204604EB0A
:1099E000D071BDF9002002EB610191FBF4F10DB2E1
:1099F000002D00DA00250027484628F0D0FDA842B7
:109A000000D0012701222946484628F0D5FD27B17C
:109A100000221C2148461BF0D7FE00BFBDE8F88F8E
:109A200010B58060C06000230361002110E00024B5
:109A300000F1140343F82140002206E000F13C034A
:109A400003EBC11343F82200521C202AF6DB491C09
:109A50000A29ECDB10BD0146002000E0401C31F972
:109A6000102041F6FF739A42F8D170472DE9F04774
:109A700006468A463468BAF1000F0AD1D4F8148039
:109A8000B8F1000F02D0E069404516D84FF0010848
:109A900013E0514630460DF01EF80746022F02D261
:109AA0000120BDE8F087781C08B93846F9E7E0697D
:109AB000B84201D93846F4E7D046A06908B9002079
:109AC000EFE7207804284ED10122414620460BF0D2
:109AD00049FB05460DB1681C08B92846E1E701239A
:109AE0001A4629462046FFF777F88146B9F1020F5A
:109AF00001D10120D5E7B9F1010F02D14FF0FF30BC
:109B0000CFE7BAF1000F02D10220F0710CE0F0793A
:109B1000022809D108F10100854205D0B068A8EB00
:109B20000000B0610320F071F079022869D00AF1D9
:109B30000100854207D1F06910B1F069401C00E0D6
:109B40000220F0615DE0F06908B90120F0612A4669
:109B5000514630460BF0E1F88146B9F1000F50D183
:109B60000120F0614DE00025D04519D108F1010533
:109B7000E069A84200D80225294630460CF0ABFF28
:109B80000746012F01D0781C08B9384689E73FB154
:109B90006769022F03D3E069B84200D9B8460025AF
:109BA000E5B9454600BF6D1CE069A84204D802250E
:109BB000454501D9002074E7294630460CF08BFF5B
:109BC000074607B909E0012F01D0781C08B93846CB
:109BD00067E74545E7D1002063E700BF4FF0FF325C
:109BE000294620462CF0F9FB8146B9F1000F08D137
:109BF000BAF1000F05D02A46514620462CF0EDFB65
:109C00008146B9F1000F0DD16561D4E90610801EBF
:109C1000814202D8A069401EA061207940F0010075
:109C2000207107E0B9F1010F02D14FF0FF3000E0E1
:109C300001200546284634E72DE9F34F85B08146DB
:109C4000069800680290D9F80000D0F80CA0002512
:109C500000BF02A830F0B6FA83460BF1010018B934
:109C6000062007B0BDE8F08FBBF5803F05D34FEA73
:109C70001B4228466D1C2AF810201FFA8BF4202C5A
:109C800003DB2F2C01D05C2C00D111E0802C06DAF4
:109C9000214679A0FFF706FB08B10620E1E7FF2D7A
:109CA00001D30620DDE728466D1C2AF81040D0E7D6
:109CB00000BF202C01DA04260CE0002602E0029806
:109CC000401C0290029800782F28F8D00298007863
:109CD0005C28F4D002990698016008E0681E3AF802
:109CE0001040202C02D02E2C00D002E06D1E002D42
:109CF000F4D100BF00202AF815000DB90620B0E706
:109D0000002700E07F1C3AF817002028FAD01FB97E
:109D10003AF817002E2801D146F0030600E06D1E28
:109D200025B1681E3AF810002E28F8D10B22202108
:109D300009F140002AF090FC4FF00008CDF81080A7
:109D40000820039000BF38467F1C3AF8104004B941
:109D500066E0202C03D02E2C04D1AF4202D046F076
:109D60000306F0E7DDE90310884201D2AF4216D1C5
:109D700003980B2802D146F0030651E0AF4201D010
:109D800046F00306AF4200D94AE02F46082004906F
:109D90000B2003904FEA88604FEA1068D3E7802CCD
:109DA0000ADB46F0020620460AF092FE4FF46A7182
:109DB00001900AF053FE0446FF2C11DD0398401E6B
:109DC0000499884204D846F0030603980490BAE741
:109DD00022120498411C049109F140010A5418E030
:109DE00024B1214627A0FFF75DFA18B15F2446F0A1
:109DF00003060EE0412C03DB5A2C01DC48F002087C
:109E0000612C06DB7A2C04DC48F00108A4F1200068
:109E100084B20498411C049109F140010C5492E76A
:109E200000BF99F84000E52802D1052089F84000DC
:109E30000398082803D14FEA88604FEA106808F0B9
:109E40000C000C2803D008F00300032801D146F0D1
:109E5000020606F0020048B908F0010008B146F019
:109E6000100608F0040008B146F008064B2000F880
:109E700009600020F5E60000222A3A3C3E3F7C7F44
:109E8000000000002B2C3B3D5B5D00002DE9F047FE
:109E900004460E464022002120462AF0DDFB8520A4
:109EA0002070C02084F8200040250020804607460E
:109EB0004FF0010900BFC12228466D1C2254002228
:109EC00028466D1C225400BFB9F1000F06D036F8A9
:109ED0001700B0F1000901D0781CC7B260194946DB
:109EE0002EF0EEF8AD1C05F01F000028ECD108F1B3
:109EF000010000F0FF0836F817000028DBD184F8D5
:109F0000237008F101006070304633F072FF824622
:109F1000514604F124002EF0D3F8BDE8F08700008C
:109F200010B500BF00224FF400611148F7F74CFF55
:109F300000BF00F021F800BF012211460D48F7F7DD
:109F400043FF00BF00F018F800BF002201210948BC
:109F5000F7F73AFF00BF00F00FF800BF0122D1026F
:109F60000348F7F731FF00BF00F006F810BD00000E
:109F7000001402400004024010B5022000F018FD59
:109F800010BD000000B587B000BF00BF00200190E9
:109F90001A48006840F00200184908600846006846
:109FA00000F00200019000BF00BF00BF00BF00BF73
:109FB000002001900846006840F020000860084634
:109FC000006800F02000019000BF00BF00BF01202A
:109FD000029011200390012004900320059002A913
:109FE0000748F7F7DDFD4FF40060029002A905482D
:109FF000F7F7D6FD00F0BEF807B000BD30380240DC
:10A00000000402400014024010B500BF0122D1023A
:10A010000C48F7F7D9FE00BFFFF7AEFF00BF0122E3
:10A0200011460948F7F7D0FE00BFFFF7A5FF00BFB4
:10A03000002201210448F7F7C7FE00BFFFF79CFF8D
:10A0400010BD0000001402400004024070B5054637
:10A05000002400261DE06006040E00BF0122114608
:10A060001148F7F7B1FE00BFFFF786FF4FF400611C
:10A070000E48F7F797FE08B1601CC4B200BF00227B
:10A0800001210948F7F7A0FE00BFFFF775FF701C1C
:10A09000C6B2082EDFDB15B9FFF7B6FF01E0FFF708
:10A0A0003FFF204670BD0000000402400014024043
:10A0B00070B50446002525E000BFE00928B1012263
:10A0C000D1021548F7F780FE05E000224FF4006149
:10A0D0001148F7F779FE00BFFFF74EFF00BF0122DE
:10A0E00011460E48F7F770FE00BFFFF745FF00BFAF
:10A0F000002201210948F7F767FE00BF6006040E41
:10A10000681CC5B2082DD7DB00BF0122D10202486E
:10A11000F7F75AFE00BF70BD001402400004024071
:10A1200010B500BF0122D1021048F7F74DFE00BF65
:10A1300000BF012211460E48F7F746FE00BFFFF7A9
:10A140001BFF00BF00224FF400610848F7F73CFEF8
:10A1500000BFFFF711FF00BF002201210448F7F7FD
:10A1600033FE00BFFFF708FF10BD000000140240DF
:10A170000004024010B500BF00224FF400610C48FB
:10A18000F7F722FE00BFFFF7F7FE00BF01221146DE
:10A190000848F7F719FE00BFFFF7EEFE00BF0122E7
:10A1A000D1020348F7F710FE00BFFFF7E5FE10BD30
:10A1B000001402400004024070B50024002500BFD6
:10A1C0000122D1021648F7F7FFFD00BFFFF7D4FECA
:10A1D00000BF012211461348F7F7F6FD00BFFFF755
:10A1E000CBFE09E0601CC4B2FA2C03DDFFF7C2FF0E
:10A1F000012508E0FFF7C0FE4FF400610848F7F7BB
:10A20000D1FD0028EED100BF00BF0022012105488A
:10A21000F7F7DAFD00BFFFF7AFFE284670BD00007C
:10A2200000140240000402407CB506460D46344648
:10A230005020005D00F00100A84233D00DB1012094
:10A2400000E000205021095D60F30001502001551D
:10A2500004F14401684614F07EFEBDF80000616A16
:10A26000898A084400B2ADF80000BDF80210606AA7
:10A27000C08A084400B2ADF80200BDF80400616A6B
:10A28000898A084400B2ADF80400BDF80610606A7F
:10A29000C08A084400B2ADF806006946304623F093
:10A2A000DEFE00BF7CBD37B582B0054614462146B0
:10A2B000039816F095FE0190BDF80410084605B00D
:10A2C00030BD000001460B48007888420FDC094889
:10A2D0004078884201DB0120704706488078884238
:10A2E00005DC0448C078884201DB0120F4E7002047
:10A2F000F2E70000D90905080146104800798842B4
:10A3000019DC0E484079884201DB012070470B4878
:10A310008079884205DC0948C079884201DB012048
:10A32000F4E70648007A884205DC0448407A88420F
:10A3300001DB0120EAE70020E8E70000D909050871
:10A340002DE9FF4F8DB005460E461446F07A0228DF
:10A3500003DC012011B0BDE8F08F3089326901467D
:10A360000C901098FBF7C6FD07460FB90020F1E7E7
:10A37000397D01F01F001CF0B0FA10B14FF0060853
:10A380000AE0397D01F01F001CF08AFA10B14FF08D
:10A39000050801E04FF00408386A38B100BF00BF7B
:10A3A000214628463A6A2DF0AEFCDEE0B869002866
:10A3B00059D021460BA814F098FD308818B9708840
:10A3C000B0F5807F32D0204614F072FE834600BF85
:10A3D000E0886188401A401C00B20890301D7188E6
:10A3E000CDE90010308803B259460BA8089AFBF754
:10A3F000ABF8BDF82C002188084400B2ADF82C0061
:10A40000BDF82E006188084400B2ADF82E00BDF8FA
:10A4100030002188084400B2ADF83000BDF83200A9
:10A420006188084400B2ADF8320000BF0BAA09A849
:10A43000A968FAF793FD8146B9F1000F04D13846B7
:10A4400002F0EBFA012085E7D5F808A009A8A8607A
:10A45000CDF80080224631462846BB6918F01AF82C
:10A46000C5F808A081E022460BA8A968FAF776FD96
:10A470000A900A9820B9384602F0CFFA012069E71D
:10A480000BA814F015FE09900BA814F011FE00EBB8
:10A49000400003901FF01EFA8146D5F808A00BA9D2
:10A4A00007A814F022FD012107A814F070FEBDF9E1
:10A4B0002C00B4F90010401A0690BDF92E00B4F932
:10A4C0000210A0EB010BBDF92E00059042E007AA97
:10A4D000514602A8FAF742FD0A900A9800B936E000
:10A4E000CDF80090099803B20FFA8BF2069801B2EA
:10A4F00038461CF01FFF0490049801280ED03846FF
:10A500001CF038FE00BF00BF48461FF05FFA384617
:10A5100002F083FAC5F808A000201BE702A8A86093
:10A520004B4607AA31462846CDF8008017F0B2FF07
:10A53000BDF81E00401C00B2ADF81E00BDF82200A0
:10A54000401C00B2ADF822000BF1010B00BF0598D2
:10A55000401C0590BDF9321005988142B7DAC5F864
:10A5600008A048461FF032FA00BF384602F055FAFC
:10A570000120EFE670B506460C46656A28461BF0DA
:10A5800093FA606A1FF03AFA70BD00002DE9F04FAF
:10A5900091B083460D46144628461DF06FF90646D5
:10A5A000012E39D12F463846F6F730F9C01E00EBA0
:10A5B00007081CA14046F6F711FA60BB02222946A3
:10A5C0000EA81BF021FB8246BAF1000F03D0002039
:10A5D00011B0BDE8F08F0023362269460EA81BF0AB
:10A5E0005EFBDDF81280DDF81690206868F3942099
:10A5F0002060206869F35F502060206820F0E00050
:10A6000020600EA81BF050FA206820F01F00001DEB
:10A6100020600120DCE702E00EB90020D8E700202E
:10A62000D6E70000626D70002DE9F041ADF58B6D4D
:10A6300080460C46207C01285BD166683046F6F7E0
:10A64000E5F8C01E87192EA13846F6F7C7F920B1E4
:10A6500000200DF58B6DBDE8F0814FF484610EA8EC
:10A66000F6F794F902220EA861681BF0CDFA0546B0
:10A67000012D01D10020ECE70023362269460EA807
:10A680001BF00DFB9DF80000422803D19DF801004E
:10A690004D2801D00020DCE7DDF80A001190DDF83C
:10A6A00012001290DDF816001390BDF81C00ADF8F2
:10A6B0005000129914984843C00815904FF48460D4
:10A6C0001FF0CEF8606200BF606A18B900BF00BF1B
:10A6D00000BFFEE700BF606A08B90020B9E74FF489
:10A6E00084620EA9606AF6F7B0F80020A06101202C
:10A6F000AFE7207C08B90020ABE70020A9E7000005
:10A70000626D70002DE9F04F85B0894692469846FB
:10A710000E9DD9F82440A08A401EA0EB08000FFA35
:10A7200080F8E169E06801FB08000490A069C108B5
:10A7300004980AFB010004900022204604991BF0B3
:10A740008AFBA069C00800FB05F2002320460F9990
:10A750001BF0A5FAA06910280CD3A069102809D114
:10A76000A069C00800FB05F2002320460F991BF0EA
:10A7700096FAEDE00F9EA06910283FD006DC012874
:10A780007CD004287DD008287AD156E018281BD028
:10A790002028F9D1002714E00023042203A9204631
:10A7A0001BF07DFA9DF80C209DF80D109DF80E0011
:10A7B00016F08BFD029006EB4700BDF808100180F3
:10A7C0007F1CAF42E8DBC1E0002714E00023032236
:10A7D00003A920461BF063FA9DF80C209DF80D108C
:10A7E0009DF80E0016F071FD029006EB4700BDF8D3
:10A7F000081001807F1CAF42E8DBA7E0002719E0CA
:10A800000023022203A920461BF049FABDF80CB030
:10A810004FEACB631A0ECBF3451399004FEADB23C3
:10A82000D80016F052FD029006EB4700BDF8081064
:10A8300001807F1CAF42E3DB88E000271BE00023A0
:10A84000012203A920461BF02AFA9DF80CB004F15E
:10A85000200050F82B0002909DF808209DF8091068
:10A860009DF80A0016F031FD019006EB4700BDF897
:10A87000041001807F1CAF42E1DB67E033E000E0C1
:10A8800063E000272CE00023012203A920461BF0EF
:10A8900006FA4FF0000B1EE09DF80C00CBF104010E
:10A8A000084100F00F00029004F12000029950F8D6
:10A8B000210001909DF804209DF805109DF80600E8
:10A8C00016F003FD009006EB4700BDF80010018074
:10A8D0000BF1040B7F1CBBF1080F01DAAF42DBDB8D
:10A8E000AF42D0DB32E000272CE00023012203A995
:10A8F00020461BF0D4F94FF0000B1EE09DF80C0031
:10A90000CBF10701084100F00100029004F12000A2
:10A91000029950F8210001909DF804209DF805103F
:10A920009DF8060016F0D1FC009006EB4700BDF83C
:10A93000001001800BF1010B7F1CBBF1080F01DA45
:10A94000AF42DBDBAF42D0DB00E000BF00BF00BFA7
:10A95000012005B0BDE8F08F00BF00BF70470000C8
:10A9600070B504460420F8F737FE0A48046025460F
:10A970004FF47A7045434FF0E020006940F0020048
:10A980004FF0E021086108464561006940F0010090
:10A99000086170BD1000002030B50446002504E0B9
:10A9A0004FF47A7000F004F86D1CA542F8D330BD66
:10A9B00070B5034600224FF0E02675690D4E3668EB
:10A9C00003FB06F44FF0E026B16910E04FF0E026FB
:10A9D000B06988420BD0884202D20E1A324402E09B
:10A9E0002E1A0E4432440146A24200D300E0EDE7A5
:10A9F00000BF70BD100000202DE9F04104460E4656
:10AA0000D4F800800021204600F06EFB05465DBBB7
:10AA1000002700BF4046A16B2AF018F9054605B192
:10AA200021E098F80000042805D1E06B00780121AE
:10AA300021EAD01009E0E06B0078E52802D0E06B55
:10AA4000007808B9012000E0002020B1781C0746FA
:10AA5000B04201D107E000270121204600F041F972
:10AA60000546002DD6D000BF042D00D1072528466D
:10AA7000BDE8F0812DE9F0470446894620462FF0D5
:10AA800015FB10B10120BDE8F08749462046FEF7CE
:10AA900024FE0746A7634FF40072002104F13C0036
:10AAA00029F0DAFD60894FF40041B1EB402F01D865
:10AAB000084601E06089400206464FF0000800E0C9
:10AAC0007608B6F5007F05D9304609F085FFB0F16C
:10AAD0000008F5D0B6F5007F17D932460021404670
:10AAE00029F0BAFD760A002500E035446089A842C5
:10AAF00007D97A1960783346414600F0FDFB0028FB
:10AB0000F3D0404609F06FFF10E004F13C08012645
:10AB1000002500E035446089A84207D97A19607899
:10AB20003346414600F0E8FB0028F3D06089A84294
:10AB300001D00120A7E70020A5E72DE9F04F85B05F
:10AB4000044625680021204600F0CEFA07461FB1D2
:10AB5000384605B0BDE8F08F287804284CD1E86865
:10AB600033F047F901903EE0296901F1240012F029
:10AB70006BFF0199884200D035E0286990F82300E6
:10AB800003904FF0400A002002901FE00AF01F00DF
:10AB900008B90AF1020A296901EB0A0012F054FF10
:10ABA000009009F095FF8346EA68029932F8110097
:10ABB00009F08EFF834500D00BE00398401EC0B221
:10ABC00003900AF1020A0298401C029003980028A0
:10ABD000DCD100BF039828B9E968029831F8100069
:10ABE00000B906E000BF0021204600F0EAF8071E89
:10ABF000BAD000BF3846ACE74FF0FF09CDF810904F
:10AC00004FF0FF30E06400BF2846A16B2AF01EF829
:10AC1000074607B162E0E06B06780EB904275DE0F5
:10AC2000E06BC07A00F03F0884F80680E52E05D07E
:10AC300008F0080040B1B8F10F0F05D04FF0FF0940
:10AC40004FF0FF30E06442E0B8F10F0F22D14B200B
:10AC5000005D00F04000A0BB06F0400038B1E06BA2
:10AC6000407B049006F0BF06B146206BE0644E4581
:10AC70000CD1E06B417B0498814207D1E16BE8681D
:10AC8000FEF738FD10B1A9F1010000E0FF2000F04F
:10AC9000FF091CE0B9F1000F06D1E06B2FF0AEF90F
:10ACA0000499884200D119E04B20005D00F00100BA
:10ACB00040B90B2204F14001E06B29F0AEFC08B969
:10ACC0000CE004E04FF0FF094FF0FF30E06400219A
:10ACD000204600F006F80746002F95D000BF384602
:10ACE00037E72DE9F041044688462768206B00F1DC
:10ACF00020063878042801D1800601E04FF40010C6
:10AD0000B04201D80020A063A06B10B90420BDE8B8
:10AD1000F081C6F3080000284AD1A06B401CA06354
:10AD2000606B38B93889B0EB561F41D80020A0635A
:10AD30000420ECE77889401E00EA5620002837D12D
:10AD40002046616B0BF0C7FE0546012D01D802209D
:10AD5000DDE7681C08B90120D9E7F869A84221D8C5
:10AD6000B8F1000F03D10020A0630420CFE72046F4
:10AD7000616BFEF77BFE05460DB90720C7E7012D85
:10AD800001D10220C3E7681C08B90120BFE72946AA
:10AD90003846FFF76FFE08B10120B8E7E07940F0D0
:10ADA0000400E071656329463846FEF796FCA0630F
:10ADB0002663C6F3080107F13C000844E063002065
:10ADC000A5E72DE9F05F04468846042627684FF082
:10ADD000FF0AD3466CE03846A16B29F037FF0646E0
:10ADE00006B168E0E06B05780DB9042663E03878B9
:10ADF000042814D1B8F1000F02D0832D51D15AE0AC
:10AE0000852D4ED1206BE064204613F053F90646A1
:10AE100026B93869007900F03F00A0714BE0E06B83
:10AE2000C07A00F03F0984F80690E52D0AD02E2D57
:10AE300008D029F02000082801D1012000E00020DE
:10AE4000404502D04FF0FF0A2BE0B9F10F0F1CD1A3
:10AE500005F0400038B1E06B90F80DB005F0BF058B
:10AE6000AA46206BE06455450BD1E06B407B58450A
:10AE700007D1E16BF8682AF0D5FB10B1AAF1010007
:10AE800000E0FF2000F0FF0A0BE0BAF1000F04D150
:10AE9000E06B2FF0B3F8584502D04FF0FF30E0647C
:10AEA00009E000212046FFF71CFF064606B102E03C
:10AEB000A06B00288FD100BF0EB10020A0633046E8
:10AEC000BDE8F09F2DE9F04F99B0044626684B206D
:10AED000005D00F0A00018B1062019B0BDE8F08FA9
:10AEE0004FF0000B01E00BF1010BF06830F81B0094
:10AEF0000028F8D13078042866D10BF10E000F211C
:10AF0000B0FBF1F000F1020949462046FFF774FD5D
:10AF100005460DB12846E0E7A9F101002022216B8A
:10AF200002FB1010E064E07900F00400002845D036
:10AF3000E07920F00400E071204609F0D3FE0546D8
:10AF40000DB12846C9E74FF0FF322046616B09F08A
:10AF5000E4FE05460DB12846BFE7A06870B3214660
:10AF6000684613F087F805460DB12846B5E77089A5
:10AF70004002D4E90431181841F10001C4E9040188
:10AF8000D4E90473316901F138003A462DF06AF8CA
:10AF9000D4E90473316901F128003A462DF062F8D2
:10AFA000E07940F00100316981F8210068462DF018
:10AFB0000BF905460DB128468FE700BFD6E903100F
:10AFC000FEF764FF002088E70C2204F1400115A879
:10AFD00029F035FB9DF85F0000F0010028B3402107
:10AFE0004B2001554FF0010A0EE0534615A904F11C
:10AFF0004000F2680BF030FB2046FFF79EFD05464F
:10B0000005B104E00AF1010ABAF1640FEDD300BF03
:10B01000BAF1640F01D107205FE7042D01D0284663
:10B020005BE79DF85F104B2001559DF85F0000F035
:10B03000020030B10BF10C000D21B0FBF1F0401C0F
:10B0400000E00120814649462046FFF7D5FC054631
:10B0500075BBA9F10100B0F1000929D0206BA0EB6C
:10B060004911204600F040F805460DBB04F14000B0
:10B070002EF0C4FF149000BF3046A16B29F0E6FD0E
:10B08000054605B113E009F0FF02E16BF068149B7F
:10B090002BF046FA0120F07000212046FFF721FE38
:10B0A000054625B9A9F10100B0F10009E4D100BFBE
:10B0B000C5B93046A16B29F0C9FD054695B92022D6
:10B0C0000021E06B29F0C8FA0B2204F14001E06B8B
:10B0D00029F0B5FA4B20005D00F01800E16B087311
:10B0E0000120F0702846F8E62DE9F04104460D46AF
:10B0F00026683078042801D1800601E04FF4001062
:10B10000A84202D905F01F0010B10220BDE8F0816D
:10B110002563A7682FB93078032802DBF76A00207F
:10B12000E07147B93089B0EB551F01D80220EDE737
:10B13000F06AA0631CE070894FEA402811E03946AC
:10B1400020460BF0C8FC0746781C08B90120DDE753
:10B15000022F02D3F069B84201D80220D6E7A5EB4E
:10B1600008054545EBD239463046FEF7B6FAA063EE
:10B170006763A06B08B90220C8E7A06B00EB5520FD
:10B18000A063C5F3080106F13C000844E063002019
:10B19000BCE770B50446002514B1012C07D103E0CB
:10B1A0002CF038FB054604E029F0A2FF01E0012560
:10B1B00000BF00BF0DB1012070BD0020FCE7000002
:10B1C0002DE9F0470646894615465EBBB9F1000FEA
:10B1D00009D0B9F1010F13D0B9F1020F05D0B9F1BF
:10B1E000030F1CD106E000241BE04FF40070286020
:10B1F000002416E01E48B0F858002880002410E013
:10B200001B48416D806DA1FB007001464FF4007238
:10B2100000233846F5F73CF92860002401E00424B7
:10B2200000BF22E0012E1FD1B9F1000F09D0B9F102
:10B23000010F11D0B9F1020F05D0B9F1030F10D1F0
:10B2400006E000240FE04FF40070288000240AE09C
:10B2500008202880002406E04FF4C0402860002425
:10B2600001E0042400BF00E001242046BDE8F0878F
:10B27000E40400202DE9F04180460E4614461D46A8
:10B28000002715B90420BDE8F081B8F1000F03D004
:10B29000B8F1010F25D113E02A46214630462CF0A3
:10B2A000E1FA074609E0022F01D02CF0B3FA2A4652
:10B2B000214630462CF0D6FA0746002FF3D112E093
:10B2C0000BE0002000EB44214FF40072304629F0DF
:10B2D0006FFF641C06F500766D1E002DF1D100276E
:10B2E00001E0012700BF00BF0FB90020CBE701201C
:10B2F000C9E70146002070472DE9F04107460E4698
:10B3000014461D464FF0000815B90420BDE8F08131
:10B3100017B1012F24D112E02A46214630462CF0E5
:10B32000C9FA804607E02CF075FA2A4621463046D5
:10B330002CF0C0FA8046B8F1000FF4D113E00BE016
:10B34000002000EB44214FF40072304629F0D2FF78
:10B35000641C06F500766D1E002DF1D1A84602E0B2
:10B360004FF0010800BF00BFB8F1000F01D100206D
:10B37000CCE70120CAE7F8B506460C46154600950D
:10B38000B4F90630B4F90420B4F90210B4F900009D
:10B390000FF00BFB304616F03DFDF8BD10B511F077
:10B3A00055FD01200FF014FA10BDF8B505462C46E6
:10B3B0001CF0C4FA0646206B27F046FF3168898BE3
:10B3C00088422CD2606A009094F83C0000F00300A0
:10B3D00020B1012806D002280CD107E00020ADF8EA
:10B3E000000007E064208DF8020003E064208DF87F
:10B3F000030000BF00BF30461CF064FC28460099E3
:10B4000016F09FFB50B100221C2128461AF0DCF9EF
:10B410000746012F01D03846F8BD00BF00BF27F016
:10B4200020FF20630120F7E72DE9F04F9BB007468E
:10B4300089461646BA4617A816F0A9FD4FF4A02172
:10B44000384621F0CBFA9DF8691060F382018DF83F
:10B450006910304613F048FE054600EBD5704FEA00
:10B4600060083088404400B2ADF85800708840440D
:10B4700000B2ADF85A000021384621F062FC159068
:10B48000494603A820F0BCF817A80B904FF40030F1
:10B49000109033480490002005900AF13000FBF72B
:10B4A00025F8044657E02079032800D04DE0208B92
:10B4B000ADF85C00208A00B2ADF85E006079FD282E
:10B4C00001DD159803E060791599484300128DF865
:10B4D00068002568B5F92000E98B08440090B5F9AB
:10B4E0002030D5E90512A0681EF0A6F98346B5F90B
:10B4F0002000E98B08440090B5F92030D5E9051209
:10B50000E0681EF099F90290608B404400B2ADF8FB
:10B510004800149416A80C9003AA1A2138461AF071
:10B5200053F9029880B21FFA8BF1CDE90010BDF8F3
:10B53000480083B216AA17A9484616F00AFD03AAC6
:10B540001B2138461AF040F900BF21460AF13000AD
:10B55000FAF7C6FF0446002CA5D11BB0BDE8F08F5A
:10B56000201C040870B504460D46002229462046DA
:10B5700007F082FE01222946204607F07DFE0222C6
:10B580002946204607F096FC04222946204607F06B
:10B5900091FC70BD2DE9F74F9EB00C46E078022873
:10B5A00002DC21B0BDE8F08F1CA8209913F094FCB8
:10B5B000B4F9200001282EDD94F82200FD282ADBB2
:10B5C000208840B3BDF8700014F8231F4908C1F368
:10B5D0008001084400B2ADF87000BDF87200217817
:10B5E0004908C1F34001084400B2ADF87200BDF84B
:10B5F000740021784908C1F3C001401A00B2ADF8C7
:10B600007400BDF8760014F82319C1F34001401A04
:10B6100000B2ADF876001E981CA982681AA8F9F746
:10B620009DFC00B9BDE7E07B00F0070616B9A088D5
:10B63000199001E0E0881990BDF86410608981429A
:10B6400000D100261CA817F08BFE18901C2111A811
:10B65000F5F79CF9A0788DF85D00BDF86400ADF8B1
:10B660004C00189860B9208850B94EB91CA81190A8
:10B67000E0788DF85C0011A91E9818F021FD90E784
:10B68000E078FD2801DBFF2000E0E07810901CA8A6
:10B6900013F007FD0F901CA813F089FC0E90DDE954
:10B6A0000E01814201DA0F9800E00E980D90B4F976
:10B6B00000100D98B1EB600F02DAB4F9000001E060
:10B6C0000D98401007461AA813F0EBFC81464FF086
:10B6D000FF300C9000200B90002F01DC189870B107
:10B6E00048461EF0F7F80B9000233AB21CA905A8B3
:10B6F00018F0AEF9002105A817F02CFB0C90BDF84E
:10B700006800ADF80C00BDF86C00ADF810000B98A7
:10B71000149003A811901690FF208DF85C00A01DD6
:10B72000DDE90E211AF0ACFC8046B8F1000F0CD018
:10B73000022E0AD1BDF96810D8F8080000EB4100CC
:10B74000BDF97010A0EB410012901898A0B3BDF99C
:10B750006A502CE028B2ADF80E0028B2ADF8120005
:10B760004A4610990B981EF026FBBDF968100FFA97
:10B7700089F32AB20B9817F0A3FD8DF854009DF8B9
:10B780005400012802D102208DF85400012E09D165
:10B79000BDF97210691AD8F8080000EB4100008862
:10B7A000ADF84C0011A91E9818F08AFC6D1CBDF96B
:10B7B0006E00A842CEDACCE0FFE700255CE0BDF8E1
:10B7C000720028440FFA80FABDF87600401B0FFA89
:10B7D00080FBBDF96A00504504DDBDF96E00584597
:10B7E00000DA48E04A4610990B981EF0E4FABDF9D9
:10B7F0000C100FFA89F352460B9817F061FD8DF883
:10B8000054009DF85400012802D102208DF8540004
:10B81000BDF96A00504514DCADF80EA0ADF812A0D9
:10B82000012E0AD1BDF97210AAEB0101D8F8080067
:10B8300000EB41000088ADF84C0011A91E9818F0EB
:10B840003FFCBDF96E00584514DBADF80EB0ADF805
:10B8500012B0012E0AD1BDF97210ABEB0101D8F87C
:10B86000080000EB41000088ADF84C0011A91E98BB
:10B8700018F026FC00BF6D1CBD42A0DBBDF87000B7
:10B88000ADF80400BDF87400ADF80800BDF8720012
:10B89000384400B2ADF80600BDF87600C01B00B217
:10B8A000ADF80A0001A817F05BFD00900098B0B950
:10B8B000AEB9BDF87200384400B2ADF80E00BDF864
:10B8C0007600C01B00B2ADF8120010988DF85C0035
:10B8D0000020149011A91E9818F0F2FB38E010987F
:10B8E0008DF85C0001208DF85400BDF97600A0EBC6
:10B8F000070ABDF97200C51927E0009870B14A46E1
:10B9000010990B981EF057FABDF968100FFA89F3D9
:10B910002AB20B9817F0D4FC8DF8540028B2ADF879
:10B920000E0028B2ADF81200012E09D1BDF9721037
:10B93000691AD8F8080000EB41000088ADF84C0007
:10B9400011A91E9818F0BCFB6D1C5545D5DD00BF34
:10B9500000BF0B9810B10B981EF038F80C98401CE3
:10B9600028B10C9818F05CF905A817F0D5FCB8F1CF
:10B97000000F02D040461AF07AFB00BF11E62DE915
:10B98000F0478EB007460C461546206910B90EB038
:10B99000BDE8F087A07E022800DCF8E720691BF0F4
:10B9A0006DFF0646022E55D1002041F6FF71CDE90C
:10B9B0000001029003460DA8D4E9041228F03CF8D7
:10B9C000284613F06EFB814600EBD970298801EB05
:10B9D0006000BDF9348008EBD871A0EB610000B2C3
:10B9E000ADF82C00BDF82C00BDF834100844401E02
:10B9F00000B2ADF83000284613F0D9FA814600EBCA
:10BA0000D970698801EB6000BDF9368008EBD87108
:10BA1000A0EB610000B2ADF82E00BDF82E00BDF81D
:10BA200036100844401E00B2ADF8320003A817F0EB
:10BA300019F960690390208BADF81800A07E8DF88D
:10BA40002600002000900BAA03A93846236916F0AF
:10BA500055FDAEE00DA920691BF0B8FB8046B8F19A
:10BA6000010F02D000BF00BF91E707A816F029FD23
:10BA7000A0788DF82800208BADF82400E07E8DF8AA
:10BA80002600A07E8DF82700207FE8BB284613F013
:10BA900008FB824600EBDA70298801EB60000D9903
:10BAA000C1F38A2909EBD971A0EB610000B2ADF8AE
:10BAB0001400284613F07BFA824600EBDA7069889E
:10BAC00001EB60000D994FEA515909EBD971A0EBD8
:10BAD000610000B2ADF81600BDF814000D99C1F375
:10BAE0008A210844401E00B2ADF81800BDF81600C7
:10BAF0000D9900EB5150401E00B2ADF81A0005AA96
:10BB000007A93846236900E002E016F08BFC4FE0FD
:10BB10006888ADF81600BDF816000D9900EB51507D
:10BB2000401E00B2ADF81A003BE02888ADF81400C2
:10BB3000BDF814000D99C1F38A210844401E00B2DB
:10BB4000ADF8180017E005AA07A93846236916F0D2
:10BB500069FCBDF814000D99C1F38A21084400B2B4
:10BB6000ADF81400BDF818000D99C1F38A210844FE
:10BB700000B2ADF81800BDF91400B5F90410884200
:10BB8000E1DDBDF816000D9900EB515000B2ADF8A3
:10BB90001600BDF81A000D9900EB515000B2ADF837
:10BBA0001A00BDF91600B5F906108842BDDD00BFC8
:10BBB00000BF00BFEBE62DE9F04F87B083460C468F
:10BBC000164694F82200022802DC07B0BDE8F08F88
:10BBD000208C00B9F9E794F82300C0F3440000B9C1
:10BBE000F3E794F8230000F0010000B1EDE73046E0
:10BBF00013F057FA8146304613F0D9F90746B4F9E5
:10BC00000050B94501DA484600E038468246B5EBB7
:10BC10006A0F01DD4FEA6A05314605A813F05CF9A9
:10BC2000BDF9141094F82300400800F0040010B18E
:10BC3000B4F9200003E0B4F920002844404208444D
:10BC400000B2ADF81400BDF9181094F823004008B4
:10BC500000F0080010B1B4F9200003E0B4F92000AE
:10BC600028444042081A00B2ADF81800BDF9161079
:10BC700094F82300400800F0020010B1B4F920004D
:10BC800003E0B4F9200028444042084400B2ADF873
:10BC90001600BDF91A1094F82300C0F3400010B14B
:10BCA000B4F9200003E0B4F9200028444042081A07
:10BCB00000B2ADF81A00208C281A0FFA80F8B8F1FB
:10BCC000000F01DA4FF00008A07894F82210CDE9B7
:10BCD0000210E08BADF804002BB205AA314658469D
:10BCE000CDF8008000F002F800BF6EE72DE9FF4FAD
:10BCF000A3B00D4616461F463298FF2801DBFF20F1
:10BD000000E032983290284617F02AFB22902298C1
:10BD100068B967B9309850B93298009032462946D0
:10BD2000319B239800F0A9FA27B0BDE8F08F239843
:10BD30002946826820A8F9F711F900B9F4E720A88C
:10BD400013F0AFF981461C2119A81EF06EF8484681
:10BD50001DF0C0FD1C904FF0FF301890002F0ADD41
:10BD600000233A46294612A817F072FE002112A8B5
:10BD700016F0F0FF1890012331460CA8309A17F006
:10BD800067FE00210CA816F0E5FF0B9009A819909A
:10BD90001E90BDF8C400ADF86C0032988DF87C00A0
:10BDA00033988DF87D00B5F900003844B6F90010DD
:10BDB000884203DDB5F90000384401E0B6F900001F
:10BDC00000B2ADF81C00B5F90400C01BB6F90410B0
:10BDD000884203DAB5F90400C01B01E0B6F904009B
:10BDE00000B2ADF82000B5F902003844B6F90210EF
:10BDF000884203DDB5F90200384401E0B6F90200DB
:10BE000000B2ADF81E00B5F90600C01BB6F9061069
:10BE1000884203DAB5F90600C01B01E0B6F9060056
:10BE200000B2ADF8220007A813F03BF90690B5F96F
:10BE30000200B6F90210884201DC012000E0002077
:10BE40008246B5F90600B6F90610884201DB0120EA
:10BE500000E000208346229800284CD0BDF88000E6
:10BE6000ADF82400BDF88400ADF82800BDF982408B
:10BE700029E0BAF1000F04D1BDF91E00A04200DD97
:10BE800020E0BBF1000F04D1BDF92200A04200DA8E
:10BE90001DE020B2ADF8260020B2ADF82A004946D8
:10BEA0001C981DF0F9FFBDF980100FFA89F322B23A
:10BEB0001C9817F005FA8DF8740019A9239818F04A
:10BEC000FFF800BF641CBDF98600A042D1DA00BFB4
:10BED0000CA817F021FA0B9817F0A2FE1898401C36
:10BEE00028B112A817F018FA189817F099FE1C98A4
:10BEF0001DF06CFD18E7B5F90000B6F90010884296
:10BF000001DC012000E000200590B5F90400B6F93D
:10BF10000410884201DB012000E000200490012091
:10BF20000390059860B1049850B1BAF1000F07D0A2
:10BF3000BBF1000F04D00698322801DA00200390EC
:10BF400001208DF87400BAF1000F15D0039898B154
:10BF5000BDF81C00ADF82400BDF82000ADF82800A5
:10BF60006888ADF826007088401E00B2ADF82A003F
:10BF700019A9239818F0A4F8BBF1000F15D0039865
:10BF800098B1BDF81C00ADF82400BDF82000ADF854
:10BF90002800F088401C00B2ADF82600E888ADF813
:10BFA0002A0019A9239818F08BF8059898B12888C9
:10BFB000ADF824003088401E00B2ADF82800BDF86E
:10BFC0001E00ADF82600BDF82200ADF82A0019A920
:10BFD000239818F075F8049898B1B088401C00B206
:10BFE000ADF82400A888ADF82800BDF81E00ADF813
:10BFF0002600BDF82200ADF82A0019A9239818F0F0
:10C000005FF80398F0BBBDF88000ADF82400BDF8E0
:10C010008400ADF82800B5F90200B6F90210401A04
:10C02000B84201DA384604E0B5F90200B6F9021068
:10C03000401A00B20290002442E06888204400B216
:10C040000190E888001B00B20090BDF982100198B1
:10C05000814205DDBDF986100098814200DA2EE0AC
:10C0600049461C981DF018FFBDF924100FFA89F3FA
:10C07000019A1C9817F024F98DF87400BDF982100C
:10C08000019800E020E0814209DC0198ADF826002B
:10C090000198ADF82A0019A9239818F011F8BDF9F4
:10C0A00086100098814209DB0098ADF826000098C0
:10C0B000ADF82A0019A9239818F002F800BF641CF3
:10C0C00002988442B9DBC7E0BDF88000ADF82400D7
:10C0D000BDF98410BDF91C00401E814202DABDF991
:10C0E000840002E0BDF91C00401E00B2ADF828003B
:10C0F00009A812F0D6FF8046B8F1000F48DD059878
:10C1000010B9BAF1000F1ED0BDF9824017E020B27D
:10C11000ADF8260020B2ADF82A0041461C981DF06B
:10C12000BBFEBDF92410434622B21C9817F0C8F894
:10C130008DF8740019A9239817F0C2FF641CBDF98B
:10C140001E00A042E3DC059810B9BBF1000F1FD020
:10C15000BDF92200441C17E020B2ADF8260020B241
:10C16000ADF82A0041461C981DF096FEBDF924103A
:10C17000434622B21C9817F0A3F88DF8740019A951
:10C18000239817F09DFF641CBDF98600A042E3DAF6
:10C19000BDF98010BDF92000401C814202DDBDF9CF
:10C1A000800002E0BDF92000401C00B2ADF8240080
:10C1B000BDF88400ADF8280009A812F072FF80468F
:10C1C000B8F1000F48DD049810B9BAF1000F1ED085
:10C1D000BDF9824017E020B2ADF8260020B2ADF8DC
:10C1E0002A0041461C981DF057FEBDF92410434615
:10C1F00022B21C9817F064F88DF8740019A92398DE
:10C2000017F05EFF641CBDF91E00A042E3DC049839
:10C2100010B9BBF1000F1FD0BDF92200441C17E07C
:10C2200020B2ADF8260020B2ADF82A0041461C9895
:10C230001DF032FEBDF92410434622B21C9817F0BF
:10C240003FF88DF8740019A9239817F039FF641C82
:10C25000BDF98600A042E3DA0CA817F05DF80B9850
:10C2600017F0DEFC12A817F057F8189817F0D8FC52
:10C270001C981DF0ABFB00BF56E52DE9FF4F89B0C0
:10C2800080460C461546DDF858901C2168461DF086
:10C29000CCFD07A80090BDF83000ADF808008DF87F
:10C2A0001890B4F90200B5F90210884201DC0120AF
:10C2B00000E000200646B4F90600B5F906108842F1
:10C2C00001DB012000E000200746B4F90000B5F9C9
:10C2D0000010884201DC012000E000208246B4F911
:10C2E0000400B5F90410884201DB012000E00020C1
:10C2F00083462088ADF81C00A088ADF82000608837
:10C30000ADF81E006888401E00B2ADF822001EB1D4
:10C310006946404617F0D4FEE888401C00B2ADF8EC
:10C320001E00E088ADF822001FB16946404617F0B4
:10C33000C7FE2088ADF81C002888401E00B2ADF86A
:10C34000200016B1B5F9020001E0B4F90200ADF821
:10C350001E0017B1B5F9060001E0B4F90600ADF80A
:10C360002200BAF1000F03D06946404617F0A8FE3C
:10C37000A888401C00B2ADF81C00A088ADF82000D1
:10C38000BBF1000F03D06946404617F099FE0DB08F
:10C39000BDE8F08F2DE9FF4F93B0074690469946D0
:10C3A0004FF6FF70804502D117B0BDE8F08F3E46D2
:10C3B000746A208C1290208C484506D0A4F82090F6
:10C3C000608C20F00400001D60844FF48021204622
:10C3D00021F0B7F811904FF48021204621F021F987
:10C3E0000546119819F050FB824638460AF0E3FFE3
:10C3F0008346BBF81600ADF83E00BDF93E000AEBDF
:10C40000050108FB010000B2ADF83E00284605EB2F
:10C41000D071BDF83E20A2EB610109B2ADF83E102B
:10C42000BDF83E0050442844401E00B2ADF8420022
:10C43000706A808AADF83C00706A008BADF84000ED
:10C4400001A817F01BFC01AA4FF48021204621F01F
:10C450001DFC0FAA01A9149817F0F4FB1298208470
:10C46000608C20F00400608400BF9DE72DE9F04F50
:10C4700091B007460D46904699464FF6FF708045AD
:10C4800002D111B0BDE8F08F1097109F7C6A208C0C
:10C490000F90208C484506D0A4F82090608C20F0A6
:10C4A0000400001D608407A816F0DCFB07AA4FF407
:10C4B0008021204621F00FFB4FF48021204621F0FF
:10C4C000B0F8ADF82E0038460AF075FF064606B9FA
:10C4D000D7E7079819F0D8FA8246F08AADF8160027
:10C4E000BDF91600BDF92E10514408FB010000B241
:10C4F000ADF81600BDF92E0000EBD071BDF8162086
:10C50000A2EB610109B2ADF81610BDF81600504457
:10C51000BDF82E100844401E00B2ADF81A00A08AE3
:10C52000ADF81400208BADF8180005AA03A8A9687F
:10C53000F8F714FD8346BBF1000F13D0A8680290F2
:10C5400003A8A86030461CF02DF90190002000904F
:10C5500006F1140207A92846019B15F0CFFF0298A7
:10C56000A86000BF0F982084608C20F004006084D5
:10C5700000BF86E72DE9F04105463548006815F013
:10C5800063FC04462868866BF06A10B13046F16A95
:10C590008847206890B1606880B10CE02C48006842
:10C5A0000068806A38B12A4A12681068284A1268FE
:10C5B0001268916A884720690028EFD10120206124
:10C5C000234800680068C068806900F0010050B12D
:10C5D0001F4800680068C0688069C0F3400010B15F
:10C5E0000120606101E000206061606908B1012004
:10C5F00000E0002007462868406998B12868007C60
:10C60000C0F3011048B12868007CC0F3800020B15D
:10C61000D6E9001000F01EF804E0D6E900212868F1
:10C62000FCF7B8FA206880B1606870B12868007CB7
:10C6300000F0010000B147B12168A068884202D132
:10C640006068A06001E02068A060BDE8F0810000A3
:10C65000580100202DE9F34F83B004468848006854
:10C660000568874800680068007CC0F3400040B15E
:10C67000287CC0F3800020B100BF00BF05B0BDE83A
:10C68000F08F287CC0F3011002280AD121462846E9
:10C69000049A00F004F921462846049AFCF77AFA35
:10C6A000EBE0287CC0F30110012804D0287CC0F303
:10C6B00001100328F4D1002002907148006815F0A1
:10C6C000C3FB8246204612F0D0FC0646204612F0FC
:10C6D00059FC83464FF4A050B0FBF6F000B2584529
:10C6E00005DA4FF4A050B0FBF6F000B200E0584677
:10C6F0000190B4F90280287CC0F3011001280BD10D
:10C7000068882188401A401E00B2E080E088801BC3
:10C71000401C00B2608006E0208860806088304461
:10C72000401E00B2E08000279EE0ABEB07010198BD
:10C73000814201DD019801E0ABEB07000FFA80F9BF
:10C740000120CAF8100047BBB34526DBB146297C5F
:10C75000C1F30111032901D1012100E000210846A4
:10C760003146049A00F00FF9287CC0F3011001282B
:10C7700007D1A4F8008008EB0600401E00B2A0809C
:10C780003FE02888401EA0EB080000B2A080A088EF
:10C79000801B401C00B2208033E0029820B94FF487
:10C7A00020501DF097F8029002980090297CC1F368
:10C7B0000111032901D1012100E0002108464A4668
:10C7C0003146049B00F0B2F8287CC0F30110012828
:10C7D0000AD108EB070000B2208008EB07004844AC
:10C7E000401E00B2A0800CE02888401EA0EB08008C
:10C7F000C01B00B2A080A088A0EB0900401C00B2C2
:10C80000208007EB090058450DDBDAF8180000F02E
:10C81000010040B1DAF81800C0F3400018B101205F
:10C82000CAF8140002E00020CAF81400029808B9FF
:10C83000049800E00298024621462846FCF7AAF92F
:10C8400004E0A86A10B12846A96A8847DAF81000FF
:10C850000028F6D106FB09F1049800EB4100049092
:10C8600007EB090007B200BF5F45FFF65EAF029815
:10C8700010B102981DF0AAF800BF00BFFEE600004C
:10C880005801002018B5048800940C88048014888E
:10C890000C801C881480BDF800401C8018BD2DE958
:10C8A000FC5F05460C461646204612F0DEFB82462B
:10C8B000204612F067FB83461AFB0BF001900198AB
:10C8C000471E4FF0000811E006EB4700008800907B
:10C8D00006EB470006EB48010988018006EB48009B
:10C8E000BDF8001001807F1E08F101084745EBD814
:10C8F000B4F9069068886188401A401E00B2E08052
:10C900006888A0EB0900401E00B26080B4F9049072
:10C9100028882188401A401E00B2A0802888A0EBF9
:10C920000900401E00B22080BDE8FC9F2DE9F047C1
:10C9300004461D46089F01FB02F0A0F1010C481EB1
:10C9400000FB02F800231AE008EB03000CB1ACEB8B
:10C95000000000260FE0A946AD1C07EB400AB9F81D
:10C960000090AAF800900CB1104400E0801A06F183
:10C9700001090FFA89F68E42EDDB581C03B293428F
:10C98000E2DBBDE8F0872DE9F04782460C4615460C
:10C9900000263BE0002731E0601E801B0FFA80F884
:10C9A000601EC01B0FFA80F9BAF1000F12D007FB0E
:10C9B000048C05EB4C0308FB049C05EB4C0209FBC3
:10C9C000046C05EB4C0106FB047C05EB4C00FFF707
:10C9D00059FF11E009FB046C05EB4C0308FB049CB8
:10C9E00005EB4C0207FB048C05EB4C0106FB047CB9
:10C9F00005EB4C00FFF746FF781C07B2601C00EB0C
:10CA0000D071B7EB610FC7DB701C06B204EBD471B9
:10CA1000B6EB610FBEDBBDE8F08710B504462046DB
:10CA20001AF0A8FB10BD00002DE9F14F9EB01E9832
:10CA300018F0C4FE05462C461E9818F066FE1D90A0
:10CA4000606A1BF0AFFE07465020005D00F0010059
:10CA500010B91FB0BDE8F08F0FA817F00FF90FAA9B
:10CA60004FF4E021284621F011F904F144010DA80A
:10CA700012F071FABDF83400616A898A084400B284
:10CA8000ADF83400BDF83610606AC08A084400B2C0
:10CA9000ADF83600BDF83800616A898A084400B2F2
:10CAA000ADF83800BDF83A10606AC08A084400B298
:10CAB000ADF83A000DAA0FA91D9817F0C3F84FF46E
:10CAC000E021284620F082F806464FF4E02128466F
:10CAD00020F0E4FA30440FFA80F84FF4E0212846C1
:10CAE00020F055FC30440FFA80F900200B900C9098
:10CAF000E16CC8191F49096888478246E06CC11972
:10CB000052460BA81DF003F8BDF83400404400B2B3
:10CB1000ADF83400BDF83600484400B2ADF8360038
:10CB20004FF0000BD4F824A040F25742594650462B
:10CB300020F03AFC019001980A9002A816F092F8B1
:10CB400002AA4FF4E021284620F0C5FF9DF83F00DF
:10CB5000022805DCBDF81400BDF82810884207D073
:10CB600000200BAB0DAA02A900901D9815F0C6FC81
:10CB700000BF6EE7D80200202DE9F04FBDB005469A
:10CB80000E4600BF00BFAB460BF13000F9F7FCFCCE
:10CB900010B13DB0BDE8F08F05F114023BA8B168BB
:10CBA000F8F7DCF900B9F4E7B0683A903BA8B06058
:10CBB00035A816F0A3F835AA4FF4E021284620F056
:10CBC000F1FF27A817F05AF89DF8DC008DF89F00B8
:10CBD00047F6FF70ADF89C004FF4E021284620F0A6
:10CBE000D6FD074600EBD7704FEA60094FF4E0210D
:10CBF000284620F0CCFD074600EBD7704FEA600ACC
:10CC0000314604A81EF0FCFC24A80A9016A808903F
:10CC10004FF4E020119069480590052006900BF133
:10CC20003000F9F763FC0446C0E00A2235A924A8C5
:10CC30001CF06DFF382227A916A81CF068FFE088B9
:10CC4000ADF89000E088ADF85C0039A80D9038A8E8
:10CC50000E90607B00F0010020B1B4F90070B4F9CF
:10CC6000028010E0A08847F6FF71884200D197E06B
:10CC7000A28801AB2846A16813F078FDBDF90470C5
:10CC8000BDF9068000BFA88A384407B2E88A40444C
:10CC90000FFA80F8B9F1000F19D0BAF1000F16D0D1
:10CCA000A7EB090000B2ADF8080007EB090000B2DD
:10CCB000ADF80C00A8EB0A0000B2ADF80A0008EBD2
:10CCC0000A0000B2ADF80E0002A8079001E00020B3
:10CCD0000790207B00F0030070B3207B00F0010080
:10CCE00010B1B5F9140000E03846ADF8E400ADF835
:10CCF000E680207B00F0020010B1B5F9180000E0DA
:10CD00003846ADF8E000BDF8E600ADF8E20004AA50
:10CD10001A21284618F058FD38AB39AA24A9304604
:10CD200015F0D5FF02AA16A9304616F08BFF04AA0B
:10CD30001B21284618F048FD207B00F00C0070B342
:10CD4000ADF8E470207B00F0040010B1B5F91600D6
:10CD500000E04046ADF8E600BDF8E400ADF8E000C4
:10CD6000207B00F0080010B1B5F91A0000E0404641
:10CD7000ADF8E20004AA1A21284618F025FD38ABC8
:10CD800039AA24A9304615F0A2FF02AA16A93046F6
:10CD900016F058FF04AA1B21284618F015FD00BF05
:10CDA00021460BF13000F9F79BFB0446002C7FF481
:10CDB0003CAF3A98B06000BFEBE60000E81604080C
:10CDC0002DE9F14F9AB01A9818F0F8FC04461A9819
:10CDD00018F09BFC1990204620F00DFD07462046D8
:10CDE0001EF06EFF834607EBD771A28A02EB61014A
:10CDF00009B218910BEBDB714A10E18A114409B2B8
:10CE0000179107EBD7714E1014A815F077FF14AAED
:10CE10000021204620F0C6FE4FF41D7016FB00F0E6
:10CE2000552190FBF1F0642190FBF1F000B2ADF8D8
:10CE30005200BDF85200801C00B2ADF85200002034
:10CE40001390002120461FF0D8FD0546002347F629
:10CE5000FF7204F114010DA816F0FAFD00210DA8CF
:10CE600015F078FF0C9000BFA08AADF82800E08A8A
:10CE7000ADF82A00208BADF82C00608BADF82E00A9
:10CE800000BFBDF82800284400B2ADF82800BDF866
:10CE90002C00401B00B2ADF82C00BDF82A0028443D
:10CEA00000B2ADF82A00BDF82E00401B00B2ADF86C
:10CEB0002E00012347F6FF720AA904A816F0C8FD48
:10CEC000002104A815F046FF0390BDF952804FF0F1
:10CED000000A4FE051462046FAF762FD0090BDF887
:10CEE0000000ADF850001398C0F30F290FFA89F035
:10CEF00026F0B4FC06EB08014843189901EBE0303A
:10CF000000B2ADF804000FFA89F026F097FC06EBAA
:10CF100008014843179901EBE03000B2ADF8060074
:10CF20000FFA89F026F09AFC711BA1EB0801484327
:10CF3000189901EBE03000B2ADF808000FFA89F063
:10CF400026F07CFC711BA1EB08014843179901EB0B
:10CF5000E03001B2ADF80A1002AB01AA14A9199889
:10CF600015F0B5FE0AF103001FFA80FA139800F5D8
:10CF700087601390BAF5807FACDD0DA816F0CCF970
:10CF800004A816F0C9F90C9816F04AFE039816F09A
:10CF900047FE1BB0BDE8F08F2DE9F04FA5B0044669
:10CFA0000F46254604F1140123A8BA68F7F7D6FF07
:10CFB0002290229810B925B0BDE8F08FB868219072
:10CFC00023A8B860002120461FF0D9FD1E90002143
:10CFD00020461FF0EEFF01461E98084400B21D9047
:10CFE0000021204620F051F901461E98084400B265
:10CFF0001C9020461EF0EFFD7E35E9884843001264
:10D0000000B21B9020461EF0C7FD2989484300123C
:10D0100000B21A9017A815F071FE17AA0021204639
:10D0200020F0C0FD394605A81EF0EAFA0020129053
:10D030008C4806900020079017A80B904FF0FF3007
:10D04000139000200E900F9005AA1A21204618F088
:10D05000BBFB0020019031222046019920F0A4F969
:10D060000090009800F0FF0B00BF002120461FF049
:10D0700086FD04900020019033222046019920F083
:10D0800093F90090009800F0FF0800BF20461EF0C2
:10D090000DFF039020461FF003F8029035F87E093B
:10D0A000002865D0E18A1C9801440298081A00B251
:10D0B0000190A08AADF88000208BADF87C004FF085
:10D0C0000009B5F87E000FFA80FABBF1020F1ADDF5
:10D0D0000498002817DD08F0020040B10021204626
:10D0E00020F0D3F818B909F101000FFA80F908F01F
:10D0F000010040B1002120461FF07EFE18B9AAF1C0
:10D1000001000FFA80FA4E462FE01A987043B5F8E6
:10D110007E10491E90FBF1F000B2ADF88200BDF820
:10D1200082100198084400B2ADF88200BDF8820078
:10D13000ADF87E004B4806900120079020A80E9085
:10D140001FA80F90139605AA1A21204618F03CFB41
:10D150001FAB20AA17A9384615F0B9FD05AA1B2157
:10D16000204618F031FB701C06B25645CDDB00BFDF
:10D17000B5F88000002865D0A18A1D980144039865
:10D18000081A00B20190E08AADF88200608BADF819
:10D190007E004FF00009B5F880000FFA80FABBF16D
:10D1A000020F1ADD0498002817DD08F0040040B1D2
:10D1B000002120461FF0FDFE18B909F101000FFA09
:10D1C00080F908F0080040B1002120461FF09AFFC6
:10D1D00018B9AAF101000FFA80FA4E462FE01B9809
:10D1E0007043B5F88010491E90FBF1F000B2ADF825
:10D1F0008000BDF880100198084400B2ADF88000AE
:10D20000BDF88000ADF87C0016480690022007901B
:10D2100020A80E901FA80F90139605AA1A21204649
:10D2200018F0D2FA1FAB20AA17A9384615F04FFD07
:10D2300005AA1B21204618F0C7FA701C06B25645F5
:10D24000CDDB00BF4FF0FF30139000200E900F9009
:10D2500005AA1B21204618F0B7FA2198B86000BF34
:10D26000A9E60000E81604082DE9F14F9AB01A98D3
:10D2700018F043FA07461A9818F0A0FA05462C460B
:10D28000122F7DD11A9818F096FA064630780228A7
:10D2900002D11BB0BDE8F08F94F8380000F0030015
:10D2A000032805D094F8380000F00300022802D1CA
:10D2B00001203070EDE794F83800C0F384000428B2
:10D2C00008D094F83800C0F38400012802D001206F
:10D2D0003070DEE74FF0000A46225146284620F023
:10D2E00063F819901998C0B2FF2802D0012030705D
:10D2F000CFE70021284620F0D5F98146208E8144D1
:10D30000B9F1000F02D001203070C2E70021284699
:10D3100020F009FA8046E08E00FB08F04FEA202852
:10D320001A9818F048FA8346B8F5807F09D1002290
:10D3300005F114015846F7F752FEE8BB01203070A2
:10D34000A7E728461EF0BCFC8246284620F053FA88
:10D35000179004F132001FFA88F100235246CDE9FC
:10D36000001018A81799F8F7EFF8BDF86000A98A1F
:10D37000084400B2ADF86000BDF86210E88A00E031
:10D380001DE0084400B2ADF86200BDF86400A98A4F
:10D39000084400B2ADF86400BDF86610E88A08449D
:10D3A00000B2ADF86600002218A95846F7F717FE3C
:10D3B00018B9012030706CE700E000BF19E2152FAA
:10D3C00001D0182FFAD10021284620F0ACF9804670
:10D3D000E08E00FB08F04FEA20280021284620F0CC
:10D3E00061F98246208E8244284620F004FA199082
:10D3F00028461EF065FC1890002641F232023146A4
:10D4000028461FF0D1FF0E900E9800B2814600BF53
:10D4100041F61202314628461FF0C6FF0E900E98C4
:10D4200048440FFA80FB00BF41F6130231462846FC
:10D430001FF0BAFF0E900E98484400B2179000BF3C
:10D4400041F61002314628461FF0AEFF0E900E98AE
:10D45000484400B2169000BF41F6110231462846FA
:10D460001FF0A2FF0E900E98484400B21590608EF7
:10D47000584400B2ADF85000A18E1698084400B28E
:10D48000ADF8520094F8390000F00300012804D1EF
:10D4900012A928461EF0BEFB27E014A91FFA88F047
:10D4A0000FFA8AF3CDE9000112A8DDE91821F8F797
:10D4B0004BF8BDF84800A98A084400B2ADF848000E
:10D4C000BDF84A10E88A084400B2ADF84A00BDF839
:10D4D0004C00A98A084400B2ADF84C00BDF84E10CB
:10D4E000E88A084400B2ADF84E0005F1140110A816
:10D4F00011F01FFD12A905F1140011F01AFDBE482C
:10D500001A991EF0A3FA0F900F98012800D0C0E6D8
:10D5100010A905F1140011F00CFD152F7ED1E08D3E
:10D5200008B1A08D00B9B4E6B8F1000F00D1B0E6A3
:10D530001A9818F0EAF8064605F114010DA811F042
:10D54000F8FC28461AF088F80C9094F8390000F09E
:10D55000030001283CD1B4F92C10BDF93020891A00
:10D56000481C00EBD071BDF83420A2EB610109B278
:10D57000ADF83410B4F92C10BDF93020891A481CCC
:10D5800000EBD071BDF83820A2EB610109B2ADF813
:10D590003810B4F92E10BDF93220891A481C00EB5E
:10D5A000D071BDF83620A2EB610109B2ADF836109A
:10D5B000B4F92E10BDF93220891A481C00EBD07145
:10D5C000BDF83A20A2EB610109B2ADF83A1013E0C0
:10D5D00012A811F0A5FDBDF834100844401E00B299
:10D5E000ADF8380012A811F013FDBDF8361008444C
:10D5F000401E00B2ADF83A00BDF83400584400B205
:10D60000ADF83400BDF836101698084400B2ADF8F5
:10D610003600BDF838101798081A00E0E8E000B2AC
:10D62000ADF83800BDF83A101598081A00B2ADF8F8
:10D630003A0094F8380000F00300012805D094F86F
:10D64000380000F0030000287AD106A814F039FF52
:10D6500006AA0021284620F0DFF91FFA88F0ADF86D
:10D660001A001FFA8AF0ADF81800608EADF81C00A1
:10D67000A18EADF81E1094F83800C0098DF82C006A
:10D68000BDF84800584400B2ADF81000BDF84A108B
:10D690001698084400B2ADF81200BDF84C10179867
:10D6A000081A00B2ADF81400BDF84E101598081A0B
:10D6B00000B2ADF81600B068039004AA04A8B168DF
:10D6C000F7F74CFC00B9E4E504A8B060BDF83610EB
:10D6D000608D084400B2ADF80600BDF90600BDF942
:10D6E0003610884206DDBDF80600E18D401A00B212
:10D6F000ADF80600BDF80600E18D0844401E00B2FA
:10D70000ADF80A0049E0BDF83400218D084400B2AC
:10D71000ADF80400BDF90400BDF93410884206DDFF
:10D72000BDF80400A18D401A00B2ADF80400BDF8A8
:10D730000400A18D0844401E00B2ADF8080016E0B8
:10D7400034E001AA06A93046636A14F06BFEBDF806
:10D750000400BDF83010084400B2ADF80400BDF874
:10D760000800BDF83010084400B2ADF80800BDF95B
:10D770000400BDF938108842E3DBBDF80600BDF8AF
:10D780003210084400B2ADF80600BDF80A00BDF83A
:10D790003210084400B2ADF80A00BDF90600BDF928
:10D7A0003A108842AFDB0398B06020E094F838006C
:10D7B00000F00300022811D104A815F053FA04AABE
:10D7C0000021284620F087F90020009005F114027E
:10D7D00004A93046636A14F091FE08E000BF00BF60
:10D7E000002305F114021946304614F01BFE00BF59
:10D7F00000BF00BF4DE50000C00805082DE9F14F4E
:10D80000DCB05C9817F0DAFF05462C465C9817F000
:10D810007CFF5B9059A928461EF0FCF90020CDE959
:10D82000105040F60A02DDE910011FF0BDFD0F9017
:10D830000F9800B258900020CDE9105040F60B022E
:10D84000DDE910011FF0B0FD0F900F9800B2579066
:10D85000BDF864115898081A00B2ADF86401BDF81B
:10D8600068115898084400B2ADF86801BDF8661117
:10D870005798081A00B2ADF86601BDF86A115798BA
:10D88000084400B2ADF86A0159A811F03BFC834688
:10D8900059A811F0AFFB5690D4E90A10A0EB01098A
:10D8A0005698834501DB012000E0002080460020DF
:10D8B000559094F85C0000F0030001280BD1A06A99
:10D8C000002808DAE06A002805DDA16A206B88429A
:10D8D00001D101205590002128461FF091FB549062
:10D8E000002128461FF035FC5390002128461FF0E8
:10D8F000F3FC5290002128461FF0A5FA519059A937
:10D9000004F1340011F003FBA18E5498084400B2D6
:10D91000A086218F5398081A01B22187E18E529870
:10D92000084401B2E186618F5198081A01B26187FB
:10D93000B8F1000F13D004F1340011F05BFB0428A0
:10D940000DDA569800EBD0714A10E98A1144891E0D
:10D950000AB2E286E08E001D01B2618715E0B8F1DF
:10D96000000F12D104F1340011F0CCFB04280CDAC2
:10D9700058460BEBD071AA8A02EB6101891E09B2ED
:10D98000A186A08E001D01B2218704F1340011F0A0
:10D99000B9FB509004F1340011F02CFB4F90B8F11A
:10D9A000000F01D0509800E04F988246B8F1000F68
:10D9B00005D004F13406371DFE484C9004E004F114
:10D9C0003606371DFC484C90A06D401CF8B1A36A88
:10D9D000216DC91A01FB0AF191FBF9F108B2A36AA2
:10D9E000616DC91A01FB0AF191FBF9F10AB2131A30
:10D9F000D4F858C003FB0CF1CB1701EB13631B12D7
:10DA00001BB24D934D99014409B24D9108E0A16AB2
:10DA1000206B401A00FB0AF090FBF9F000B24D9029
:10DA2000A06C401CE0B1A36A216CC91A01FB0AF189
:10DA300091FBF9F108B2A36A616CC91A01FB0AF102
:10DA400091FBF9F10AB2131AD4F848C003FB0CF1A8
:10DA5000CB1701EB136300EB23231BB24E9308E0BB
:10DA6000D4E90901401A00FB0AF090FBF9F000B27A
:10DA70004E900020119041F26A42284611991FF001
:10DA800093FC10901098C0B24B90B8F1000F0ED0DC
:10DA90004B9801280BD130463E4607464E994942E5
:10DAA00009B24E914D99494209B24D9100BFB8F16A
:10DAB000000F0AD031884E98084400B2388031886F
:10DAC0004D98084400B230800AE039884E98081A10
:10DAD000401C00B2308039884D98081A00B2388056
:10DAE000559878B3A26A524202FB0AF292FBF9F20D
:10DAF00011B2B8F1000F0CD032880A4410B2B7F955
:10DB00000020824201DD30801BE03A88328038807C
:10DB100017E03A88521A521C10B2B6F9002082421D
:10DB200001DD388002E032883A803080B7F9002089
:10DB3000B6F900309A4204DAB6F900003A88328029
:10DB4000388000BF559800BB04F134004C998847D9
:10DB500001281ADC68465B991DF052FD4FF4003035
:10DB60000D90964801900020029004F1340003903B
:10DB70006A461A21284617F027FE6A461B212846C6
:10DB800017F022FE5DB0BDE8F08F04F1340149A822
:10DB900011F0BDF93BA816F071F83BAA4FF4003123
:10DBA000284620F073F829A85B991DF029FD4FF451
:10DBB0000030369081482A9000202B903BA82D9071
:10DBC00004F134002C9029AA1A21284617F0FCFDF4
:10DBD000002011906022284611991FF0E5FB10905B
:10DBE000109800B228905698834501DA584600E014
:10DBF00056982790DDE92701B1EB600F02DD2798E9
:10DC000040102890BDF9EC0026904F99509888421A
:10DC100001DA509800E04F982790DDE92601B0EB3B
:10DC2000610F02DD279840102690B8F1000F08D050
:10DC300004F1340011F066FA01462698B1EB400F6A
:10DC40000BDCB8F1000F28D104F1340011F0D2F947
:10DC500001462698B1EB400F1FDD9DF8EF001190B3
:10DC60009DF8060110909DF80E010F9000208DF890
:10DC7000EF008DF806018DF80E0104F134023BA986
:10DC80005B9815F0DFFF11988DF8EF0010988DF874
:10DC900006010F988DF80E0100BFA98A5498084418
:10DCA00000B2ADF87800298B5398081A00B2ADF88D
:10DCB0007C00E98A5298084400B2ADF87A00698B7A
:10DCC0005198081A00B2ADF87E0000231EA920A8C2
:10DCD000289A15F0BDFE002120A815F03BF81D90F4
:10DCE0009DF822011C909DF80E011B9000208DF8DC
:10DCF0000E018DF8220159A919A811F008F9BDF8F3
:10DD000064105498084400B2ADF86400BDF8661081
:10DD10005298084400B2ADF86600BDF868105398F8
:10DD2000081A00B2ADF86800BDF86A105198081AD8
:10DD300000B2ADF86A00B8F1000F15D019A811F0C3
:10DD400059F9042810DA569800EBD0714A10E98A84
:10DD50001144891E09B2ADF86610BDF86600001DB9
:10DD600000B2ADF86A0017E0B8F1000F14D119A89D
:10DD700011F0C8F904280FDA58460BEBD071AA8AC3
:10DD800002EB6101891E09B2ADF86410BDF86400B0
:10DD9000001D00B2ADF86800BDF9EC20002304F1CD
:10DDA000340113A815F054FE002113A814F0D2FF7B
:10DDB000129005E005F10108F5EF010818080508C3
:10DDC00019AA3BA95B9815F03DFF1B988DF80E0131
:10DDD0001C988DF8220100208DF8EF008DF80601C7
:10DDE0008DF8220104F134023BA95B9815F02AFF5B
:10DDF00013A815F091FA20A815F08EFA129815F0D4
:10DE00000FFF1D9815F00CFF29AA1B21284617F0BB
:10DE1000DBFC00BFB6E6F0B591B00546284617F02A
:10DE2000CDFC0446284617F070FC0746264603A89A
:10DE300015F024FF03AA4FF4403120461FF026FFBF
:10DE400047F6FF70ADF80C002C20805D00F001005B
:10DE500038B1204613F063FE0090BDF80000ADF825
:10DE60001000214601A809F0BFF901AA03A938460C
:10DE700015F0E8FE11B0F0BD2DE9F04FB3B08146CA
:10DE8000484617F09BFC80464446484617F03DFC48
:10DE90003290002140461EF00BFE054640461FF022
:10DEA000AAFC824640461DF00BFF8346DA4501DBA3
:10DEB000012000E0002006460EB1584600E0504622
:10DEC0003190002794F85C0000F00300012806D18F
:10DED000A06A002803DAE06A002800DD0127002E8E
:10DEE0003CD097B93EB1012D02D1B4F9340009E01C
:10DEF000B4F9380006E0012D02D1B4F9360001E092
:10DF0000B4F93A00ADF8BC0037E0606A002812DBD3
:10DF10003EB1012D02D1B4F9340009E0B4F9380062
:10DF200006E0012D02D1B4F9360001E0B4F93A005F
:10DF3000ADF8BC0021E03EB1012D02D0B4F93400AF
:10DF400009E0B4F9380006E0012D02D0B4F936003A
:10DF500001E0B4F93A00ADF8BC000EE01FB9E08E64
:10DF6000ADF8BE0009E0606A002803DBE08EADF882
:10DF7000BE0002E0608FADF8BE0021A815F07EFE65
:10DF800021AA4FF4403140461FF080FE33462FA9AE
:10DF90004046319A27F0E7FB2FA904F1680010F002
:10DFA000D1FF0FA832991DF02BFB4FF440301C908D
:10DFB0003C481090002011901D9004F168001290D0
:10DFC00021A81390404622F0AEFF022810D00FAADD
:10DFD0001A21404617F0F8FB04F1680221A9329893
:10DFE00015F030FE0FAA1B21404617F0EDFB55E05F
:10DFF000382221A901A81BF08AFD0FAA1A21404648
:10E0000017F0E2FB04F1680221A9329815F01AFE1C
:10E010000FAA1B21404617F0D7FB96B13EB1012D48
:10E0200002D0B4F9340009E0B4F9380006E0012D5B
:10E0300002D0B4F9360001E0B4F93A00ADF8BC0002
:10E0400002E0608FADF8BE0033462FA94046319AFA
:10E0500027F089FB2FA904F1600010F073FF38222C
:10E0600001A921A81BF053FD0120119004F16000CB
:10E07000129021A8139001201D900FAA1A2140464A
:10E0800017F0A2FB04F1600221A9329815F0DAFD25
:10E090000FAA1B21404617F097FB00BF33B0BDE825
:10E0A000F08F00004C0905082DE9F04790B00746B5
:10E0B000384617F083FB054628461DF051FE0646FC
:10E0C00008A814F0CFFD08AA002130461FF003FD78
:10E0D000384617F01AFB0446D4F8088006F11402FB
:10E0E00006A8A168F6F73AFF10B910B0BDE8F087AE
:10E0F00006A8A06004A9304609F026FDA88AADF85C
:10E100000800E88AADF80A00288BADF80C00BDF8CD
:10E110001200ADF80E0002AA02A8A168F6F71EFFD1
:10E1200098B1D4F8089002A8A06028461AF03AFBEB
:10E1300082460020534605F1140208A900902046AB
:10E1400014F0DCF9C4F8089000BFA88AADF8080004
:10E15000BDF81600ADF80A00288BADF80C00688BEE
:10E16000ADF80E0002AA02A8A168F6F7F7FE98B172
:10E17000D4F8089002A8A06028461AF013FB824643
:10E180000020534605F1140208A90090204614F01F
:10E19000B5F9C4F8089000BFC4F8088000BFA4E730
:10E1A0002DE9FF4FA1B0064614462498807B00F06D
:10E1B0000F052298807E1F90032D00D10425012D8C
:10E1C00006D0022D0BD0042D10D0082D1DD114E047
:10E1D000DFF86C834FF0800A02201E901AE0DFF80F
:10E1E00064834FF0C00A04201E9013E0DFF85883C8
:10E1F0004FF0F00A10201E900CE0DFF850834FF033
:10E20000FF0A4FF480701E9004E000BF00BF25B0ED
:10E21000BDE8F08F00BF1F98FD2823DACC480178B5
:10E220001F98814203D1CB480068A84213D0002038
:10E230000DE018F80010FF2901D11F9904E018F82B
:10E2400000101F9A51430912C34A1154401C1E99D1
:10E250008842EED300BFDFF80083BD491F980870E5
:10E26000BC4805602498B0F806B0249800891B903B
:10E270000BFB05F01A90B4F90000B168B1F9001079
:10E28000884201DB002005E0B068B0F90000B4F975
:10E290000010401A1990B4F900005844B168B1F95F
:10E2A0000410884201DC584606E0B068B0F904006A
:10E2B000B4F90010401A401C1890B4F90200B1687B
:10E2C000B1F90210884201DB002005E0B068B0F926
:10E2D0000200B4F90210401A1790B4F902101B980A
:10E2E0000844B168B1F90610884201DC1B9806E0C9
:10E2F000B068B0F90600B4F90210401A401C16903C
:10E300001A9917984843199901FB050015902E9901
:10E31000159801EBD0002E90159800F007071C21EE
:10E320000DA81BF082FD22988089ADF83C00229850
:10E33000807E8DF84C002298807FC0F3C2008DF85B
:10E340004D00F8F7E7FB019013F082FD0C901B984D
:10E350000BFB00F10C98814201DD0C9802E01B9947
:10E360000BFB01F00B900B981BF0B4FA8146CDF833
:10E37000409000200A9021881998084400B2ADF816
:10E380002000218818980844401E00B2ADF82400EF
:10E3900061881798084400B2ADF82200BDF8220049
:10E3A000ADF8260000BFBDF82400BDF82010401ACB
:10E3B000401C00B2079000BFBDF82000ADF814006B
:10E3C000BDF82200ADF81600BDF82400ADF8180025
:10E3D000BDF82600ADF81A0000BFBDF8161016985B
:10E3E000084400B2ADF81A0005A814F0B9FF049073
:10E3F00008A80D901290C5F10800039019980BEB36
:10E4000000011898081A6843029017981C9078E049
:10E410000A9801902AFA07F0209019981D9028E098
:10E420002E980078209908400399C91BC840149081
:10E43000149830B1149818F800100A9809F80010D0
:10E4400003E000210A9809F800100398874204D2DB
:10E450002F442098E840209005E00027CDF880A0C8
:10E460002E98401C2E900A98401C0A901D98401C23
:10E470001D9018991D988842D2DB0498A0B1BDF96F
:10E480002620BDF92010019B09EB0300079B14F027
:10E4900017FF8DF844009DF8440028B9019909EB55
:10E4A000010007991BF0C1FCDDE91801411A0A9827
:10E4B00001440B98814206D2BDF82600401C00B2F0
:10E4C000ADF8260012E002208DF844000DA9304678
:10E4D00015F0F6FDBDF82600401C00B2ADF8220094
:10E4E000BDF82200ADF8260000200A9002980744EB
:10E4F0002E9800EBD7002E9007F007071C98401CC1
:10E500001C9016991C98884282DBBDF92200BDF947
:10E51000261088420ED0BDF82600401E00B2ADF88D
:10E52000260002208DF844000DA9304615F0C8FDE4
:10E5300000200A9048461BF049FA00BF67E6000039
:10E540003415040836150408421504085215040849
:10E55000680100206C01002054D700202DE9FF4FF6
:10E560008FB00C4615461E46B4F90200401E0E90B0
:10E570000E9840100D900E9800F001010D9808447F
:10E580000C90B5F90000B6F90010884202DAB5F92E
:10E59000000001E0B6F90000ADF82800B5F9000070
:10E5A000B6F90010884202DDB5F9000001E0B6F9C5
:10E5B0000000401E00B2ADF82C0069880C98081AC3
:10E5C00000B2ADF82A0069880D98084400B2ADF891
:10E5D0002E000F980AA982680AA8F6F7BFFC8246A7
:10E5E000BAF1000F02D113B0BDE8F08FE08818B186
:10E5F000A08808B1012000E0002083460120099096
:10E600000AA814F0ADFE10B10020099004E0BBF19F
:10E61000000F01D0002009901C2102A81BF005FC6E
:10E620000AA802902088ADF81000207A8DF820000A
:10E63000099820B102A90F9815F042FD78E00AA8C8
:10E6400010F028FD0746BDF92E000190BDF82A0004
:10E65000ADF82E0000200090BBF1000F0BD0B4F9F4
:10E660000600B4F904100844BDF9281091FBF0F23B
:10E6700000FB1210009038461BF02CF98046CDF8B4
:10E6800014800AA80790BDF92A904AE0394640460E
:10E690001BF002FCBDF928103BB20FFA89F240468C
:10E6A00014F00EFE8DF81800BBF1000F27D09DF876
:10E6B000180020B3009800211BE0B4F90420824226
:10E6C00007DBA3881B1A1AB28B1819B2831818B269
:10E6D0000BE0B4F90620B4F904301A44824201DC9C
:10E6E000002002E0002208F801204A1C11B2421C5E
:10E6F00010B2B942E1DB02228DF8182000BF02A956
:10E700000F9815F0DDFCBDF82A00401C00B2ADF8F2
:10E710002A00BDF82E00401C00B2ADF82E0009F111
:10E72000010901988145B1DD40461BF04FF900BF5A
:10E7300000BF58E72DE9FF4FC7B08B4691469A4678
:10E74000B9F90200BAF90210884210DAB9F80200E9
:10E75000ADF81A01BAF80200ADF81601B9F80000D8
:10E76000ADF81801BAF80000ADF814010FE0BAF8DE
:10E770000200ADF81A01B9F80200ADF81601BAF8B6
:10E780000000ADF81801B9F80000ADF81401BDF9AA
:10E790001401BDF91811441ABDF91601BDF91A1179
:10E7A000451A002C01DD204600E06042002D01DD0D
:10E7B000294600E06942884201DD012000E0002096
:10E7C0004490BBF9026000204390449870B1002D42
:10E7D00001DD284600E068424101002C01DD2046B1
:10E7E00000E0604291FBF0F043900DE0002C01DD71
:10E7F000204600E060424101002D01DD284600E096
:10E80000684291FBF0F04390E0494398085C704304
:10E810003F30C611771006F0010000EB0708BDF984
:10E820001801BDF91411884202DABDF9180101E09E
:10E83000BDF91401801B00B2ADF80401BDF9180147
:10E84000BDF91411884202DDBDF9180101E0BDF9DE
:10E850001401304400B2ADF80801BDF91A01BDF948
:10E860001611884202DABDF91A0101E0BDF916015C
:10E87000801B00B2ADF80601BDF91A01BDF91611F1
:10E88000884202DDBDF91A0101E0BDF916013044EC
:10E8900000B2ADF80A01479841A9826841A8F6F78D
:10E8A0005DFB4090409810B94BB0BDE8F08F4498A4
:10E8B000F0B3002C24DD0021BDF81601C01B00B20E
:10E8C000CDE90001BDF91431BDF81A01C01B02B237
:10E8D000BDF9181135A814F03DFE0121BDF816014F
:10E8E000404400B2CDE90001BDF91431BDF81A0170
:10E8F000404402B2BDF918112AA814F02BFE4AE0D8
:10E900000021BDF81601404400B2CDE90001BDF977
:10E910001431BDF81A01404402B2BDF9181135A8EE
:10E9200014F018FE0121BDF81601C01B00B200E072
:10E930000DE0CDE90001BDF91431BDF81A01C01B8D
:10E9400002B2BDF918112AA814F004FE23E0002138
:10E95000BDF91601CDE90001BDF81401404403B230
:10E96000BDF91A21BDF81801404401B235A814F0D0
:10E97000F1FD0121BDF91601CDE90001BDF8140139
:10E98000C01B03B2BDF91A21BDF81801C01B01B2AA
:10E990002AA814F0DFFD002135A814F0DBF913904C
:10E9A00000212AA814F0D6F912904FF0FF301190F0
:10E9B00010909BF80900C0F3001068BB0321BDF85C
:10E9C0001A01204400B2CDE90001BDF81801401B36
:10E9D00003B2BDF91A21BDF918111FA814F0BAFD30
:10E9E0000221BDF81601204400B2CDE90001BDF8B6
:10E9F0001401401B03B2BDF91621BDF9141114A86E
:10EA000014F0A8FD00211FA814F0A4F91190002112
:10EA100014A814F09FF9109041A810F03BFB0F9040
:10EA2000F8F778F8019013F013FA0D9041A810F060
:10EA3000FDFA01460D98814203D241A810F0F6FA82
:10EA400000E00D980C900C981AF044FF0B90BDF963
:10EA50000A010A90BDF80601ADF80A0100200990EC
:10EA6000DDE90B011BF018FA1C2102A81BF0DDF9EF
:10EA700041A80290BBF80000ADF810009BF8080018
:10EA80008DF820000B98059041A80790BDF906016C
:10EA90000E9040E0BDF90411099B0B9AD0180F9A13
:10EAA00013B20E9A12B214F00BFC8DF818009DF8F8
:10EAB000180028B9099A0B9988180F991BF0B5F915
:10EAC0000F990998084409900F99099801440C98E6
:10EAD000814206D2BDF80A01401C00B2ADF80A011D
:10EAE00016E002208DF8180002A9479815F0E8FA00
:10EAF000BDF80A01401C00B2ADF80601BDF80601E0
:10EB0000ADF80A0100200990DDE90B011BF0C4F902
:10EB10000E98401C0E900A990E988842BADDBDF9F5
:10EB20000601BDF90A1188420CD0BDF80A01401E49
:10EB300000B2ADF80A0102208DF8180002A947982A
:10EB400015F0BEFA0B981AF041FF35A814F0E4FB5B
:10EB50002AA814F0E1FB1198401C10B11FA814F072
:10EB6000DBFB1098401C10B114A814F0D5FB1398CF
:10EB700015F056F8129815F053F8119815F050F852
:10EB8000109815F04DF800BF8EE6000052160408EC
:10EB90002DE9FF4F91B00C4615461E46B4F9020010
:10EBA000401E1090109840100F90109800F0010136
:10EBB0000F9808440E9029880E98081A00B2ADF8F4
:10EBC000300029880F98084400B2ADF83400B5F938
:10EBD0000200B6F90210884202DAB5F9020001E03B
:10EBE000B6F90200ADF83200B5F90200B6F902102C
:10EBF000884202DDB5F9020001E0B6F90200401ECC
:10EC000000B2ADF8360011980CA982680CA8F6F78E
:10EC1000A5F98146B9F1000F02D115B0BDE8F08F1A
:10EC2000E08818B1A08808B1012000E000208246E9
:10EC300001200B900CA814F093FB10B100200B9056
:10EC400004E0BAF1000F01D000200B901C2104A8B1
:10EC50001BF0EBF80CA804902088ADF81800207A7F
:10EC60008DF828000B9820B104A9119815F028FA06
:10EC700066E00CA810F00EFA8346BDF9360003904A
:10EC8000BDF83200ADF8360058461AF023FE029067
:10EC9000029807900CA8099000200190BAF1000F8B
:10ECA0000BD0B4F90600B4F904100844BDF93210D1
:10ECB00091FBF0F200FB12100190019FBDF9328030
:10ECC00037E0594602981BF0E7F8BDF930100FFA0B
:10ECD0008BF30FFA88F2029814F0F2FA8DF8200004
:10ECE000BAF1000F13D09DF8200070B1B4F9040000
:10ECF000B84202DA00208DF82000B4F90600B4F919
:10ED000004100844B84200DC0027781C07B204A9AC
:10ED1000119815F0D5F9BDF83200401C00B2ADF8DD
:10ED20003200BDF83600401C00B2ADF8360008F1E4
:10ED3000010803988045C4DD02981AF047FE00BF21
:10ED400000BF6AE72DE9FC5F8046404616F036FDBD
:10ED50000746B946D9F824603446404616F0D5FC3B
:10ED60000546606A00F114026846A968F6F7F6F8ED
:10ED70008246BAF1000F41D0D5F808B0C5F808D0E6
:10ED800094F83C00C0F3401048B3608FE18E884295
:10ED90000CD1628F212329463046FDF7FBFA628FA2
:10EDA000212329463046FDF761FB24E0628F2023B2
:10EDB00029463046FDF7EEFA628F20232946304679
:10EDC000FDF754FBE28E012329463046FDF7E2FAB7
:10EDD000E28E012329463046FDF748FB0BE0628FA7
:10EDE000202329463046FDF7D5FA628F2023294695
:10EDF0003046FDF73BFBC5F808B000BFBDE8FC9FFF
:10EE00002DE9F14FD0B0509816F0D8FC04462546B5
:10EE1000288E10B951B0BDE8F08F509816F075FCEF
:10EE20004F90608C20F00400001D60844DA92046A6
:10EE30001CF0F0FE0026B246B4F8208000202084AA
:10EE4000608C20F00400001D608427A814F016FFD9
:10EE50001FA813F007FF27AA4FF4A02120461EF099
:10EE600015FF1FAA4FF4A02120461EF034FE608C2F
:10EE700020F004006084A4F82080002120461EF0C9
:10EE800038FA1E90002120461DF0EAFF1D90002157
:10EE900020461EF0C2F81C90002120461EF066F9A4
:10EEA0001B9009A84F991CF0ABFB4FF4A0201690C3
:10EEB000D7480A9000200B903DA80D9035A80E90E1
:10EEC00000BF9BE103E00AF101001FFA80FA696AC2
:10EED00051F82A00CFA1F1F781FD0028F3D0E96AAB
:10EEE00031F81600F9F752FA00B181E10027E96A1A
:10EEF00031F81600F9F73AFA08B147F00107E96A64
:10EF000031F81600F9F746FA10B147F0800716E01D
:10EF1000A88EB04213D108F0200008B147F02007B6
:10EF200008F0020008B147F0020708F0040008B139
:10EF300047F0040708F0080008B147F00807A86A7E
:10EF400000EBC6014BA80FF0EBFFBDF82C01BDF89C
:10EF50003411084400B2ADF82C01BDF82E01BDF803
:10EF60003611084400B2ADF82E01BDF83001BDF8ED
:10EF70003411084400B2ADF83001BDF83201BDF8DB
:10EF80003611084400B2ADF8320157B9382227A92A
:10EF90003DA81AF0BCFD20221FA935A81AF0B7FD24
:10EFA0001DE02784608C20F00400001D60843DA8D3
:10EFB00014F064FE35A813F055FE3DAA4FF4A021CD
:10EFC00020461EF063FE35AA4FF4A02120461EF015
:10EFD00082FDA4F82080608C20F004006084E96A3F
:10EFE00031F81600F9F7DEF98346BBF1000F06D0C1
:10EFF0009DF8F10040F001008DF8F10005E09DF86A
:10F00000F10020F001008DF8F1004BA80C9017964C
:10F0100009AA1A21204616F0D7FB9DF817014008CF
:10F0200000F01000F0B39DF8170120F03E001E30F4
:10F030008DF81701BDF92C11B4F914201C98104457
:10F0400081420AD19DF81701400820F004009DF884
:10F05000171160F345018DF81711BDF93011B4F99E
:10F0600018201B98101A81420AD19DF817014008F8
:10F0700020F008009DF8171160F345018DF8171175
:10F08000BDF92E11B4F916201E98104481420CD1FE
:10F090009DF81701400820F002009DF8171160F359
:10F0A000450100E014E08DF81711BDF93211B4F9F3
:10F0B0001A201D98101A81420AD19DF817014008A4
:10F0C00020F001009DF8171160F345018DF817112C
:10F0D0004BA80FF096FF814607F0200060B1E86A68
:10F0E00030F8160000F4007030B1BDF82E01A0EB2E
:10F0F000090000B2ADF82E014BAA3DA94F9814F0BB
:10F10000A1FD35980890BDF9E8000790BDF9E6002B
:10F110000690686A50F82A0005904DA80FF0F9FF94
:10F1200003909DF8F11002460698CDE90121009068
:10F1300004A8DDE90732059924F07EFC4BA80FF006
:10F14000E8FFBDF91010401A039000EBD070BDF835
:10F150002C1101EB600000B2ADF82C014BA80FF0B0
:10F1600050FFBDF91210401A039000EBD070BDF8AB
:10F170002E1101EB600000B2ADF82E01BDF82C019C
:10F18000BDF81010084400B2ADF83001BDF82E01F2
:10F19000BDF81210084400B2ADF8320107F02000AB
:10F1A000C0B1E86A30F8160000F4007090B148462B
:10F1B00009EBD071BDF82E21A2EB610109B2ADF8C7
:10F1C0002E1109EBD071BDF83221A2EB610109B219
:10F1D000ADF83211002000904BAA35A9059B4F983D
:10F1E00013F08CF909AA1B21204616F0EDFA00BF96
:10F1F000701C86B20AF101001FFA80FA288EB04214
:10F200003FF760AE608C20F00400608400BF01E630
:10F21000500805080A0000002DE9F14FA2B022981D
:10F2200016F0CCFA04462546229816F06EFA219084
:10F23000002120461DF0B0FC81462646002741F6FD
:10F240001202394630461EF0AFF80A900A98484438
:10F2500000B2209000BF41F61302394630461EF03E
:10F26000A3F80A900A98484400B21F900021204653
:10F270001EF059F8484400B21E9016A813F0F2FC94
:10F2800016AA4FF4003120461EF025FCA86A10B1E2
:10F29000D5F828800AE080201AF01CFB0646802260
:10F2A0003146204615F064FFB04600BF4FF0000A1B
:10F2B00095F83C0000F00F00012800D1824600269E
:10F2C00041F26A42314620461EF06EF80A900A98D2
:10F2D000C0B2012800D18246E86A00287ED0E86AE0
:10F2E00018F0CCFA0A900A98022814D19DF87500FB
:10F2F00041F6FF72BDF96A10CDE900120290BDF926
:10F300006C30169A07A8E96A24F096FBBDF91C60D8
:10F31000BDF91E7011E007A9E86A17F057FF834690
:10F32000BBF1010F05D10798C0F38A260798470D56
:10F3300002E04FF0FF36374600BFBAF1000F0DD0A4
:10F34000A18A2098084400B2ADF82000BDF8200042
:10F350003044401E00B2ADF824000DE0218B1F9810
:10F36000081A801B00B2ADF82000BDF82000304420
:10F37000401E00B2ADF824000A98022815D1E18A97
:10F380001E98084400B2ADF82200BDF822003844AF
:10F39000401E00B2ADF826000020009008AA16A971
:10F3A000EB6A219813F0AAF840E020461CF088FC94
:10F3B000A0EB070B0BEBDB704110E08A084400B2B6
:10F3C000ADF82200BDF822003844401E00B2ADF86E
:10F3D000260002A813F075F802AA00E027E04FF417
:10F3E000003120461EF018FB304606EBD071491064
:10F3F00009B2ADF80C10384607EBD07149100AB2CB
:10F40000ADF80E204FF4003B43F60F02594620465C
:10F410001DF0CAFF0190019880B2ADF8080008AA5B
:10F4200002A9EB6A219812F0FDFF00BF00BF0EA8F1
:10F4300013F018FC0EAA002120461EF04CFB9DF88C
:10F44000550041F6FF72BDF94A10CDE90012029055
:10F45000BDF94C3041460DA80E9A24F0EDFAE18A30
:10F460001E98084400B2ADF82E00BDF82E00BDF87D
:10F470003610084400B2ADF83200E86AB0B9204650
:10F480001EF0B9F9BDF93410461A06EBD670A18A00
:10F4900001EB600000B2ADF82C00BDF82C00BDF807
:10F4A0003410084400B2ADF8300022E0BAF1000F89
:10F4B00011D0218B1F98081ABDF83410401A00B2E1
:10F4C000ADF82C00BDF82C00BDF83410084400B293
:10F4D000ADF830000DE0A18A2098084400B2ADF8E4
:10F4E0002C00BDF82C00BDF83410084400B2ADF873
:10F4F0003000002043460BAA0EA90090219812F07C
:10F50000FDFFA86A10B940461AF060FA23B0BDE8C2
:10F51000F08F2DE9F14F90B0109816F04FF9054695
:10F520002C46109816F0F1F806460EA928461CF055
:10F53000FDFA002794F84800C0F3001008B147F026
:10F54000010794F84800C0F3401008B147F00207E3
:10F55000002128461EF028F942F2D171884205D1D7
:10F56000688CC0F3802008B947F0040706A813F0A0
:10F5700079FBB4F84400ADF82E004620005BADF8EE
:10F5800030008DF8357006AA002128461EF0A3FA37
:10F590000DA8411E626A03780BB90123037000BFF6
:10F5A000284619F00BF90790284619F001F9089040
:10F5B0004FF6FF71079888421ED0089888421BD0EA
:10F5C0004FF4802B44F25742594628461DF0ECFE7A
:10F5D000029002980390BDF80C00ADF8260000BF21
:10F5E0002022594628461DF0DFFE02900298039023
:10F5F000BDF80C00ADF8280094F8480000F00700B2
:10F60000022805D094F8480000F0070003281FD115
:10F610009DF83400022803D09DF83400032817D148
:10F6200041F6FF71BDF92A008DE88300BDF92C3049
:10F63000069A03A8616A24F0FFF90EA80FF077FD7F
:10F64000BDF90C10884202DA01208DF8340000BFA9
:10F6500004F1300894F8480000F00700032805D0B2
:10F660000EA80FF0DCFCB0F5806F01DA4FF0000857
:10F670000EA904A8B268F5F771FC8146B9F1000F34
:10F6800002D111B0BDE8F08F94F8480000F00700F7
:10F6900070B928461CF004FD8346CBF1000002B28D
:10F6A00000210EA80FF05BFD688BADF83E0000BF97
:10F6B00094F8480000F00700022805D094F84800AC
:10F6C00000F0070003280ED1D6F808B004A8B060F7
:10F6D000CDF800800EAA06A93046636A12F00EFF2C
:10F6E000C6F808B007E0CDF800800EAA06A930469B
:10F6F000636A12F003FFD6F808A004A8B06094F87B
:10F70000480000F0070003284FD141F6FF71BDF912
:10F710002A008DE88300BDF92C30069A03A8616A9F
:10F7200024F08AF90EA80FF002FDBDF90C108842F2
:10F730001BDA20221146069816F08BF900EB4000E8
:10F74000B4F84410BDF80C201144084400B2ADF8E0
:10F750002E004620005BADF83000CDF800800EAAE8
:10F7600006A93046636A12F0C9FE0EA80FF057FCD6
:10F77000BDF90E10884217DAB4F84400ADF82E0037
:10F78000069816F085F94621095BBDF80E20114454
:10F79000084400B2ADF83000CDF800800EAA06A9EA
:10F7A0003046636A12F0AAFE00BFC6F808A000BF88
:10F7B00067E72DE9F14F9AB01A9815F09EFF804641
:10F7C0001A9815F0FBFF0446B8F1150F16D11A98D8
:10F7D00015F09BFF054618A9204608F0B5F90AA8C0
:10F7E00014F04CFA0AAA4FF4802120461EF04EFA7B
:10F7F00018AA0AA9284614F025FAC5E0B8F1180F8E
:10F80000FBD11A9815F081FF054612A813F02AFAC9
:10F8100012AA4FF4802120461EF05DF910A920465F
:10F8200008F092F910AA0EA8A968F5F797FB0D90B9
:10F830000D9800287DD0204607F0C9FD814620465E
:10F840001DF0D9FF8346484618F0ACFF0221039013
:10F85000BDF95A00CDE901B10090BDF95C300CA8AA
:10F86000129A039924F0E8F820461CF029FA06467B
:10F87000304606EBD0714A10B4F916100A44B9F9B3
:10F880001610891A0B9148461CF01AFA0B99890335
:10F8900091FBF0F00B90002120461DF06AFE0A90CB
:10F8A0001299B1F908200A99B1F90810501A00EB21
:10F8B000D071491009B20991BDF832100998081A9F
:10F8C00000B2ADF83200304606EBD0714A10B4F900
:10F8D00016105718BDF932000B99484307EBA037B3
:10F8E00009983F1A002120461DF063F982464FF027
:10F8F000000B41F61202594620461DF055FD0390BB
:10F90000039800B2089000BF41F613025946204602
:10F910001DF04AFD0390039800B20790A18A089851
:10F920000844504400B2ADF8140038B2ADF81600E7
:10F9300000E028E0218B0798081AA0EB0A0000B22B
:10F94000ADF81800BDF81600BDF83210084400B23A
:10F95000ADF81A009DF8650040F002008DF86500D2
:10F96000A86804900EA8A860484618F01BFF8346BC
:10F9700000205B4605AA12A90090284612F0BEFDA1
:10F980000498A86000BF00BF1BB0BDE8F08F2DE950
:10F99000F14FA8B0289815F011FF04462546289885
:10F9A00015F0B3FE2790002120461DF05DFB269048
:10F9B000002120461DF001FC2590002120461DF06D
:10F9C000CCFC2490002120461DF071FA239000BF4A
:10F9D000A08AADF88400E08AADF88600208BADF8EF
:10F9E0008800608BADF88A0000BFBDF884102698AF
:10F9F000084400B2ADF88400BDF888102598081AB4
:10FA000000B2ADF88800BDF886102498084400B212
:10FA1000ADF88600BDF88A102398081A00B2ADF838
:10FA20008A0013A814F02AF913AA4FF400312046D3
:10FA30001EF02CF921AA13A9279814F003F9002627
:10FA400020461CF03DF9074600BF208BA18A401AD2
:10FA5000401CC01B0FFA80F8686A401C40B1696AFC
:10FA600001FB08F0C11700EB116109120EB20CE0A6
:10FA700020461CF089FF00F0010BBBF1000F01D004
:10FA8000404600E00020064600BF4FF0000B41F268
:10FA90006A42594620461DF087FC00900098C0B28B
:10FAA000012802D1A8EB060006B2A08A304400B2B9
:10FAB000ADF84400BDF84400384400B2ADF8480049
:10FAC000E08AADF84600608BADF84A004FF4403153
:10FAD00020461DF0C9FA81464FF4403120461DF002
:10FAE0006CFB82464FF4403120461DF036FC1090EE
:10FAF0004FF4403120461DF0DAF90F90BDF8440074
:10FB0000A0EB090000B2ADF84400BDF84800504435
:10FB100000B2ADF84800BDF846101098081A00B2BF
:10FB2000ADF84600BDF84A100F98084400B2ADF891
:10FB30004A0001A814F0A2F801AA4FF4403120466F
:10FB40001EF0A4F811AA01A9279814F07BF829B097
:10FB5000BDE8F08F2DE9F14FE0B0609815F02EFE72
:10FB600004462546609815F0D0FD814604F1140145
:10FB70005EA8D9F80820F5F7F1F910B961B0BDE831
:10FB8000F08FD9F808005D905EA8C9F808004FF022
:10FB9000000841F23202414620461DF005FC0C905F
:10FBA0000C9800B25690002120461DF0E3FB5590C2
:10FBB000002120461DF088F95490002120461DF0B8
:10FBC00060FA5390002120461DF004FB52904FF440
:10FBD000A02120461DF055FA51904FF4A021204657
:10FBE0001DF0F8FA50904FF4A02120461DF0C2FB02
:10FBF0004F904FF4A02120461DF066F94E90208CC6
:10FC00004D9000202084608C20F00400001D608452
:10FC10003FA814F033F83FAA4FF4A02120461EF06D
:10FC200035F829A813F01EF829AA4FF4A021204680
:10FC30001DF051FF4D982084608C20F004006084FA
:10FC4000002720461CF040FA0146E28A55981044ED
:10FC5000401E411A5698084400B2ADF86E01204685
:10FC60001CF028FA2090002120461CF02EFF0128CD
:10FC700000D100E000201F9049460DA81BF0C0FCF9
:10FC80004FF4A0201A90FE480E9000200F9031A84B
:10FC9000119021A812904FF0000B33E2E86A30F97E
:10FCA0001B000C90BDF86E01401C00B2ADF86A015B
:10FCB000BDF86A110C980844401E00B2ADF86E0100
:10FCC000BDF96A01BDF97E11884200DD1EE21F9870
:10FCD00058B1218B5298081A401E2099411A569803
:10FCE000081A00B2ADF868010AE0A18A53980844E6
:10FCF000401E2099411A5698084400B2ADF86C0194
:10FD00000026F7E100200B90A86A50F8270020B1E8
:10FD1000A86A50F8270000780B901F9880B1BDF8B2
:10FD20006801401E00B2ADF86C01286B30F8160077
:10FD3000BDF86C11081A401C00B2ADF868010FE064
:10FD4000BDF86C01401C00B2ADF86801286B30F8BA
:10FD50001600BDF868110844401E00B2ADF86C01F1
:10FD60004FF0000800BF34E007EB0801A86A50F824
:10FD7000210048B307EB0802A96A51F8220008B134
:10FD800001780B910B9901F00101D9B11F9961B173
:10FD900006EB0801491C2A6B32F81110BDF86821E6
:10FDA000511A09B2ADF868110DE006EB0801491CC3
:10FDB0002A6B32F81110BDF86C21114409B2ADF86C
:10FDC0006C1100E00BE000E009E008F101001FFA0F
:10FDD00080F808EB0601A88C401E8142C4DB00BFFE
:10FDE000BDF96E01BDF97A11884207DA08F1010008
:10FDF000384487B206EB080086B279E100BFBDF84F
:10FE00006801ADF82400BDF86A01ADF82600BDF820
:10FE10006C01ADF82800BDF86E01ADF82A0000BFF6
:10FE20009DF81F01400800F0040090B1BDF92410B6
:10FE3000B4F914205398104481420ADDBDF91C0125
:10FE400000EBD071BDF82420A2EB610109B2ADF83E
:10FE500024109DF81F01400800F0020090B1BDF988
:10FE60002610B4F916205598104481420ADDBDF9D8
:10FE70001C0100EBD071BDF82620A2EB610109B294
:10FE8000ADF826109DF81F01400800F00800B8B139
:10FE9000BDF92810B4F918205298101A401E81425A
:10FEA0000EDABDF91C0100EBD07182B202F0010242
:10FEB00002EB6101BDF82820114409B2ADF8281009
:10FEC0009DF81F01C0F34000B8B1BDF92A10B4F984
:10FED0001A205498101A401E81420EDABDF91C01F6
:10FEE00000EBD07182B202F0010202EB6101BDF8B9
:10FEF0002A20114409B2ADF82A104FF0000AE88E0A
:10FF0000584523D1A88EB04220D194F8200000F0AB
:10FF1000400030B994F8200000F0200008B14AF009
:10FF2000200A94F8200000F0020008B14AF0020A0A
:10FF300094F8200000F0040008B14AF0040A94F894
:10FF4000200000F0080008B14AF0080ABAF1000FDA
:10FF50000AD138223FA931A819F0D9FD202229A9B8
:10FF600021A819F0D4FD1EE0A4F820A0608C20F098
:10FF70000400001D608431A813F080FE21A812F057
:10FF800071FE31AA4FF4A02120461DF07FFE21AA68
:10FF90004FF4A02120461DF09EFD4D982084608CDA
:10FFA00020F00400608409A81090A88C0BFB00606E
:10FFB0001B900DAA1A21204615F006FC09AA31A9AA
:10FFC000484613F03FFEA86A50F8270000287DD06D
:10FFD000BDF868115198084400B2ADF86001BDF851
:10FFE0006C115098081A00B2ADF86401BDF86A119E
:10FFF0004F98084400B2ADF86201BDF86E114E98FA
:020000040801F1
:10000000081A00B2ADF866010B98C0F340000890E2
:10001000089810B10220579001E00020579000BFCF
:10002000BDF86401BDF86011401A401C00B2049094
:10003000BDF9962004995798CDE900210290A86A4D
:1000400050F82700411CBDF998305CA8299A23F08C
:10005000F3FC089818BB0C9901EBD172BDF86A311A
:1000600003EB6202BDF9720100EBD073A2EB6302F5
:1000700012B2ADF862210C9901EBD17202E00000DE
:1000800084090508BDF86A3103EB6202BDF972010B
:1000900000EBD07302EB630212B2ADF866215AAAEC
:1000A0005EA906A8F4F75AFF0590059890B106A836
:1000B000C9F8080000200090A86A50F82700431CE7
:1000C00058AA21A9484612F019FA00E003E05EA8F8
:1000D000C9F8080000BF0DAA1B21204615F074FBCB
:1000E00008F10100384487B206EB080086B200BF71
:1000F000701C86B2A88CB0423FF704AE0BF1010031
:100100001FFA80FBE88C58453FF7C8AD00BF5D98EB
:10011000C9F8080000BF31E52DE9F04FA3B007464C
:1001200089461646229730460EF0DEFF054600EB64
:10013000D5704FEA60083088404400B2ADF88400C2
:100140007088404400B2ADF886001EA812F0D6FDBB
:100150001EAA4FF4A02138461DF024FD18A812F065
:10016000B0F918AA4FF4A02138461DF055FC002123
:1001700038461CF0E6FD1790494605A81BF040FAEA
:100180007048069021A80E9022983030F6F7AEF90C
:100190000446D1E025681694207901285CD1B5F990
:1001A0002000E98B08440090B5F92030D5E905120C
:1001B000E06819F041FB8246A88B00EB0801608AD9
:1001C00008440FFA80FB0FFA8AF023F047FB10FB7C
:1001D0000BF047F6FF7190FBF1F0BDF88610084474
:1001E00000B2ADF812000FFA8AF023F02FFB10FBDB
:1001F0000BF047F6FF7190FBF1F0BDF88410084456
:1002000000B2ADF81000A08AADF87800208A00B2E4
:10021000ADF87A006079FD2801DD179803E0607978
:100220001799484300128DF88000012013901EA8F2
:100230000B9004A80F9005AA1A21384615F0C4FAAD
:1002400004AB21AA1EA9484612F041FD05AA1B21B4
:10025000384615F0B9FA68E02079002865D12069A0
:1002600000B963E0B5F92000E98B08440090B5F9C6
:100270002030D5E90512E06819F0DEFA824604A9BB
:10028000206916F0A3FFBDF88410A08A081A00B2F6
:10029000ADF80800BDF88610E08A081A00B2ADF883
:1002A0000A00BDF808000499C1F38A210844401EE1
:1002B00000B2ADF80C00BDF80A00049900EB5150F3
:1002C000401E00B2ADF80E006079FD2801DD1798E0
:1002D00003E060791799484300128DF86B00A08AFB
:1002E000ADF86400E18A18A8C1800AEB8A004FEAE1
:1002F000400ABAF5616F01DDAAF5616A1FFA8AF05A
:10030000ADF8600018A80C9005AA1A21384615F01F
:100310005BFA02AA18A94846236912F083F805AAD5
:100320001B21384615F050FA00BF00BF2146229825
:100330003030F6F7D5F80446002C7FF42BAF23B00D
:10034000BDE8F08F201C04082DE9F74F8AB00C4659
:10035000904694F82A00022802DC0DB0BDE8F08F28
:10036000E08C00B9F9E794F82A90B9F1FD0F01DDAE
:100370004FF0FF09414608A80EF0AEFD208D401E4B
:1003800005B2BDF82000401B00B2ADF82000BDF85A
:100390002200401B00B2ADF82200BDF82400284422
:1003A00000B2ADF82400BDF82600284400B2ADF834
:1003B000260008A906A80EF08FFDBDF81800E18CF4
:1003C000401A00B2ADF81800BDF81C00E18C0844DA
:1003D00000B2ADF81C00BDF81A00E18C401A00B262
:1003E000ADF81A00BDF81E00E18C084400B2ADF86B
:1003F0001E0008A80EF055FE824608A80EF0D7FD94
:100400000746B4F90060BA4501DA504600E03846C4
:100410008346B6EB6B0F01DD4FEA6B06E08C304490
:1004200000B20590A07894F82A10CDE90210A08CB3
:10043000ADF8040030B2009008AA06A9059B0A98FE
:10044000FBF754FC00BF88E7F8B50546284615F0D1
:10045000B5F90646284615F0AEF90446606BB0F5CE
:10046000A02F54D1A06B072806D200202169C870A4
:10047000216981F8220014E0208F81B220223046C9
:100480000FF022FD68B100202169C870216981F850
:10049000220012201FF0EAFA0090BDF800106069F7
:1004A0008181208F81B24FF4004230460FF00CFD65
:1004B00098B166202169C870304622F0A5FE0090F0
:1004C000BDF800102069818030460FF0F7FCA16B69
:1004D000884202D1B2202169C870208F81B24FF4C6
:1004E000804230460FF0F0FC88B1FF20216981F88E
:1004F0002200304622F088FE0090BDF800102069EE
:10050000C1832069008C401C00B221690884F8BDB9
:100510002DE9F04F8BB08146484615F04FF905465E
:100520002C46484615F0F1F88346606A18F03AF90F
:1005300082469AF8000000283ED1A06A00283BD0ED
:10054000A06A0078C0B303A812F08CFB03AA4FF492
:10055000002128461DF0BFFA94F85C00C0F3C000EB
:1005600028B19DF8290040F002008DF829000021F3
:1005700028461CF093FD0746002128461CF007FF83
:100580008046002128461CF021FB064605F1140197
:1005900001A80EF0E0FC08EB060002B2B81901B2A7
:1005A00001A80EF0DCFD0020009001AA03A9584626
:1005B000A36A11F0A3FF00BF0BB0BDE8F08F7CB5BC
:1005C0000446A06985686089002856D1A089002862
:1005D00053D1E088218988424FDAE18808B223F0BC
:1005E0003DF9B4F90410B4F90E20891A4843216882
:1005F000498801EBE03000B2ADF80200E1885A31E1
:1006000008B223F02BF9A18810FB01F021680988BA
:1006100001EBE03000B2ADF80400218908B223F00C
:100620001DF9A18810FB01F02168498801EBE03039
:1006300000B2ADF8060021895A3108B223F00EF954
:10064000B4F90410B4F90E20891A484321680988C6
:1006500001EBE03000B2ADF800002A46694668467A
:10066000F4F77CFC06463EB1A169C1F808D06A46A1
:100670002169A06913F0E6FAC2E0608910B1A0898F
:1006800000287BD16089D0BB20680088ADF80000CD
:1006900020684088A188084400B2ADF80600E188CF
:1006A00008B223F0DBF8B4F90410B4F90E20891A6B
:1006B00048432168498801EBE03000B2ADF8020000
:1006C000E1885A3108B223F0C9F8A18810FB01F083
:1006D0002168098801EBE03000B2ADF804002A4639
:1006E00069466846F4F73AFC06463EB1A169C1F88E
:1006F00008D06A462169A06913F0A4FA00BFA08956
:1007000000287DD120680088A188084400B2ADF897
:10071000040020684088ADF80200218908B223F067
:100720009DF8A18810FB01F02168498801EBE030B9
:1007300000B2ADF8060021895A3108B223F08EF8D4
:10074000B4F90410B4F90E20891A484321680988C5
:1007500001EBE03000B2ADF800002A466946684679
:10076000F4F7FCFB06463EB1A169C1F808D06A4621
:100770002169A06913F066FA42E0FFE76089A18968
:10078000884205D1608918B12089E188884211DB4F
:100790006089022802D1A08901280BD06089032832
:1007A00002D1A089022805D06089032828D1A08918
:1007B000012825D120680088ADF800002068408815
:1007C000ADF8020020680088A188084400B2ADF8A6
:1007D000040020684088A188084400B2ADF80600F3
:1007E0002A4669466846F4F7B9FB06463EB1A16958
:1007F000C1F808D06A462169A06913F023FA00BF46
:10080000A06985607CBD7CB50446A0698568608967
:10081000012856D1A089012853D1E0882189884236
:100820004FDAE18808B223F019F8A18810FB01F033
:100830002168498801EBE03000B2ADF80600E1889C
:100840005A3108B223F00AF8B4F90410B4F90E20B2
:10085000891A48432168098801EBE03000B2ADF8FD
:100860000400218908B222F0F9FFB4F90410B4F9A8
:100870000E20891A48432168498801EBE03000B214
:10088000ADF8020021895A3108B222F0E7FFA188B1
:1008900010FB01F02168098801EBE03000B2ADF8EF
:1008A00000002A4669466846F4F758FB06463EB102
:1008B000A169C1F808D06A462169A06913F0C2F99C
:1008C000C7E06089012802D0A08901287ED1608913
:1008D00001283AD120680088A188401A00B2ADF8FA
:1008E000000020684088ADF80200E18808B222F0DC
:1008F000B5FFA18810FB01F02168498801EBE030C9
:1009000000B2ADF80600E1885A3108B222F0A6FF25
:10091000B4F90410B4F90E20891A484321680988F3
:1009200001EBE03000B2ADF804002A4669466846A3
:10093000F4F714FB06463EB1A169C1F808D06A4637
:100940002169A06913F07EF900BFA0890128B7D101
:1009500020680088401E00B2ADF80400206840887E
:10096000A188084400B2ADF80600218908B222F03F
:1009700075FFB4F90410B4F90E20891A48432168B0
:10098000498801EBE03000B2ADF8020021895A310C
:1009900008B222F063FFA18810FB01F021680988EA
:1009A00001EBE03000B2ADF800002A466946684627
:1009B000F4F7D4FA06463EB1A169C1F808D06A46F8
:1009C0002169A06913F03EF943E0FFE76089A1893E
:1009D000884206D16089012803D02089E1888842B5
:1009E0000FDB608910B9A08902280AD0608910B98C
:1009F000A089032805D0608903282AD1A08902286C
:100A000027D120680088A188401A00B2ADF8000004
:100A100020684088ADF8020020680088401E00B2BF
:100A2000ADF8040020684088A188084400B2ADF801
:100A300006002A4669466846F4F790FA06463EB133
:100A4000A169C1F808D06A462169A06913F0FAF8D3
:100A500000BFA06985607CBD7CB50446A06985683F
:100A60006089022856D1A089022853D1E0882189C3
:100A700088424FDAE1885A3108B222F0EFFEA188AD
:100A800010FB01F02168098801EBE03000B2ADF8FD
:100A90000000E18808B222F0E1FEB4F90410B4F9D4
:100AA0000E20891A48432168498801EBE03000B2E2
:100AB000ADF80600218908B222F0D0FEA18810FB13
:100AC00001F02168498801EBE03000B2ADF8020086
:100AD00021895A3108B222F0C1FEB4F90410B4F9E8
:100AE0000E20891A48432168098801EBE03000B2E2
:100AF000ADF804002A4669466846F4F72FFA064620
:100B00003EB1A169C1F808D06A462169A06913F015
:100B100099F8CCE06089022802D0A08902287DD112
:100B2000608902283CD120680088401E00B2ADF8E0
:100B3000040020684088A188401A00B2ADF8020085
:100B4000E1885A3108B222F089FEA18810FB01F039
:100B50002168098801EBE03000B2ADF80000E188BF
:100B600008B222F07BFEB4F90410B4F90E20891A01
:100B700048432168498801EBE03000B2ADF8060037
:100B80002A4669466846F4F7E9F906463EB1A16986
:100B9000C1F808D06A462169A06913F053F800BF74
:100BA000A0890228B5D120680088A188401A00B227
:100BB000ADF8000020684088401E00B2ADF8060085
:100BC00021895A3108B222F049FEB4F90410B4F96F
:100BD0000E20891A48432168098801EBE03000B2F1
:100BE000ADF80400218908B222F038FEA18810FB7C
:100BF00001F02168498801EBE03000B2ADF8020055
:100C00002A4669466846F4F7A9F906464EB1A16935
:100C1000C1F808D06A462169A06900E002E013F03B
:100C200011F844E06089A189884206D160890228D0
:100C300003D02089E18888420FDB608910B9A08940
:100C400003280AD06089012802D1A089032804D092
:100C5000608901282BD1A08948BB20680088A18821
:100C6000401A00B2ADF8000020684088A188401A00
:100C700000B2ADF8020020680088401E00B2ADF856
:100C8000040020684088401E00B2ADF806002A46E5
:100C900069466846F4F762F906463EB1A169C1F8B3
:100CA00008D06A462169A06912F0CCFF00BFA06994
:100CB00085607CBD7CB50446A06985686089032891
:100CC00056D1A089032853D1E088218988424FDA80
:100CD000E1885A3108B222F0C1FDB4F90410B4F928
:100CE0000E20891A48432168098801EBE03000B2E0
:100CF000ADF80000E18808B222F0B0FDA18810FB39
:100D000001F02168498801EBE03000B2ADF8020043
:100D100021895A3108B222F0A1FDA18810FB01F00F
:100D20002168098801EBE03000B2ADF804002189A8
:100D300008B222F093FDB4F90410B4F90E20891A18
:100D400048432168498801EBE03000B2ADF8060065
:100D50002A4669466846F4F701F906463EB1A1699C
:100D6000C1F808D06A462169A06912F06BFFC7E09C
:100D70006089032802D0A08903287ED160890328D6
:100D80003CD120680088A188084400B2ADF8040076
:100D900020684088401E00B2ADF80600E1885A3154
:100DA00008B222F05BFDB4F90410B4F90E20891AE0
:100DB00048432168098801EBE03000B2ADF800003B
:100DC000E18808B222F04AFDA18810FB01F02168F9
:100DD000498801EBE03000B2ADF802002A466946CE
:100DE0006846F4F7BBF806463EB1A169C1F808D0E1
:100DF0006A462169A06912F025FF00BFA089032877
:100E00007ED120680088ADF8000020684088A18865
:100E1000401A00B2ADF8020021895A3108B222F01E
:100E20001DFDA18810FB01F02168098801EBE0306D
:100E300000B2ADF80400218908B222F00FFDB4F928
:100E40000410B4F90E20891A48432168498801EB3F
:100E5000E03000B2ADF806002A4669466846F4F76D
:100E60007DF806463EB1A169C1F808D06A462169FD
:100E7000A06912F0E7FE43E0FFE76089A18988429C
:100E800006D16089032803D02089E18888420FDBDE
:100E90006089022801D1A08950B16089012801D15F
:100EA000A08928B1608902282AD1A089012827D1E8
:100EB00020680088ADF8000020684088A188401AAA
:100EC00000B2ADF8020020680088A188084400B292
:100ED000ADF8040020684088401E00B2ADF806005E
:100EE0002A4669466846F4F739F806463EB1A169D4
:100EF000C1F808D06A462169A06912F0A3FE00BFBC
:100F0000A06985607CBD000070B5A4B006460D46A2
:100F100020AA22A930461BF0E1F822A80EF086F89C
:100F200028B920A80EF082F808B924B070BD12A923
:100F3000304626F0BFFB0446012C00D0F5E72946D9
:100F400068461AF05DFB1B4801900220029012A82F
:100F500004904FF480300D9022A80EF067F880B115
:100F600022A803906A461A21304614F02DFC22AACA
:100F700012A9284612F066FE6A461B21304614F07C
:100F800023FC20A80EF052F890B120A803906A46E6
:100F90001A21304614F018FC20A8039020AA12A9A8
:100FA000284612F04FFE6A461B21304614F00CFC16
:100FB00000BFBAE7101504082DE9F04FB1B005469F
:100FC0000F4605F114012FA8BA68F3F7C7FF10B94F
:100FD00031B0BDE8F08FB8682E902FA8B8602C46CD
:100FE000002128461BF0E5FF2B90002128461CF02D
:100FF0004CF92A9028461AF0EEFDB4F884104843C4
:1010000000120FFA80FA28461AF0C6FDB4F88610CE
:10101000484300120FFA80FB04F12400F5F747FA69
:101020002890002128461BF076FF823461884843CF
:10103000001227902188491E279801FB10A02188C3
:1010400090FBF1F000B2269028992698B0FBF1F0C1
:1010500000B225904FF4A02128461BF05CFF618868
:10106000823C48430012249028461AF01FFF014694
:101070002B98401A00B2239028461BF011F8014625
:101080002A98401A00B2229014A812F0F7FD14AA70
:101090004FF4A02128461CF0F9FD14A8C07B20F0D5
:1010A000070114A8C173FF208DF85300688BBDF8A9
:1010B0005010084400B2ADF8B600394602A81AF044
:1010C0009FFA4FF4A0200F905D48039004200490F5
:1010D0004FF00008AAE02798504400FB08F0B4F84D
:1010E000821090FBF1F0A98A01442398084400B2D1
:1010F0000190CDF8408004F12400F5F7F7F9064699
:101100008CE0307B00F0010000B181E094F88800B1
:10111000C0F3C00008B9708900E0002000B2009060
:101120000198ADF8B000BDF8B0102598014424989E
:10113000081A401E00B2ADF8B40025990198084481
:1011400000B20190BDF9B400BDF9BC10884200DACC
:101150005EE0BDF9B000BDF9C010884200DD60E07E
:101160003089ADF8540000984044B4F8821090FBE8
:10117000F1F201FB12000FFA80F9706830F91910D2
:10118000307BC0F3001204F16C0030F91200081A31
:1011900000FB0BF02990307BC0F3001104F17000CC
:1011A00030F91110307BC0F3001204F16C0030F9FB
:1011B0001200091A299890FBF1F029902998ABEBBD
:1011C0000001E88A01442298084400B2ADF8B20058
:1011D000706830F9190047F6FF71884217D02CA8C3
:1011E000059014A806901396706830F919001290B3
:1011F00002AA1A21284614F0E7FA2CAA14A93846A4
:1012000012F020FD02AA1B21284614F0DDFA00BFCF
:10121000314604F12400F5F763F90646002E7FF409
:1012200070AF00BF08F101001FFA80F8B4F8820027
:1012300040453FF750AF2E98B86000BFC8E60000A9
:10124000E81604082DE9F34FB9B083463A980BF13C
:101250001401826837A8F3F781FE10B93BB0BDE8EE
:10126000F08F3A988068369037A93A9881605D4649
:10127000B5F88200022800DAF0E7002158461BF09A
:101280007EFC3390002158461BF093FE01463398B4
:10129000084400B23290002158461BF0F6FF014688
:1012A0003398084400B2319058461AF094FCB5F8CF
:1012B00084104843001200B2309058461AF06CFC7B
:1012C000B5F886104843001200B22F9058461AF025
:1012D000EDFD0146BBF8142032981044401A00B2CC
:1012E0002E9058461AF0DCFE0146BBF816203198C5
:1012F0001044401A00B22D903A980BF11401826804
:101300002BA8F3F72BFE2A902A9800B9A6E727A866
:1013100011F0F4FC27AA4FF4A02158461CF042FC1F
:1013200019A812F0ABFC19AA4FF4003158461CF072
:10133000ADFC4FF4003158461CF029FA064600EB8C
:10134000D67047104FF4003158461BF092FC064609
:1013500000EBD6704FEA600ABDF99E00574501DAEE
:10136000394600E0514600EBD072B1EB620F06DD6A
:101370009DF8A50020F0100010308DF8A500BDF8F4
:101380009E00012806D19DF8A50020F01000103025
:101390008DF8A500B5F882103098814201DB01205C
:1013A00000E00020189005F12400F5F79FF80446AE
:1013B000D4E1207B00F0010000B1C9E12089ADF843
:1013C0009C002089ADF8680095F88800C0F3C00043
:1013D00008B9608900E0002006B217962E98ADF893
:1013E000D4002E98ADF8D000179E179EB0466068C6
:1013F00030F91810207BC0F3001205F16C0030F9B1
:101400001200081A2F9948431690207BC0F3001150
:1014100005F1700030F91110207BC0F3001205F1C6
:101420006C0030F91200091A169890FBF1F0169032
:1014300016992F98411A2D98084400B2ADF8D200A1
:1014400004A83A991AF0DCF8C848059003200690E1
:101450004FF4A020119027A80A9019A8089015947D
:10146000BDF9D2000390BDF9D20002904FF00009FF
:1014700023E1BDF8D000ADF8D400BDF8D200ADF83E
:10148000D600BDF9D4103698B0F904003844401C99
:10149000814200DD16E1309800FB09F0B5F88210BA
:1014A000491E90FBF1F12E98084400B2ADF8D0002F
:1014B00017984844B5F8821090FBF1F201FB120036
:1014C00006B2606830F91610207BC0F3001205F1F7
:1014D0006C0030F91200081A2F9948431690207BAF
:1014E000C0F3001105F1700030F91110207BC0F33A
:1014F000001205F16C0030F91200091A169890FBE1
:10150000F1F0169016992F98411A2D98084400B2C0
:10151000ADF8D200BDF9D0103698B0F90000C01B6C
:10152000401E814201DAB046C3E0B9F1000F58D045
:101530001898E8B3606830F9180047F6FF718842E0
:10154000F5D0606830F916008842F0D0BDF9D210AD
:101550000298814201DA029801E0BDF9D2000290BE
:10156000BDF9D2100398814201DD039801E0BDF975
:10157000D2000390BDF9D400BDF9D010884230D01C
:10158000BDF9D2000190BDF8D000401E00B2ADF808
:10159000D000BDF8D000ADF8D4000398ADF8D60067
:1015A0000298ADF8D200BDF9D600BDF9D21000E026
:1015B00018E0884205D1BDF8D200401C00B2ADF859
:1015C000D20034AB35AA27A93A9811F080FBBDF8B8
:1015D000D000401C00B2ADF8D000019803900198F3
:1015E000029064E0BDF8D400C01B00B2ADF800006A
:1015F000BDF8D400384400B2ADF80400BDF8D60000
:10160000A0EB0A0000B2ADF80200BDF8D6005044CD
:1016100000B2ADF80600A9F101001290606830F93F
:10162000180047F6FF71884201D035A800E000207D
:101630000D90606830F9160047F6FF71884201D0BE
:1016400034A800E000200E90CDF81CD0606830F97E
:101650001800149004AA1A21584614F0B5F86068CE
:1016600030F9180047F6FF7188420AD0606830F9F7
:101670001600884205D034AB35AA27A93A9811F054
:1016800026FB77B1BAF1000F0BD0606830F9180073
:1016900047F6FF71884204D06A4619A93A9812F0B9
:1016A000D1FA04AA1B21584614F08EF800BFB046A8
:1016B00000BF09F101001FFA80F9B5F88200484522
:1016C0003FF7D7AE00BF1898E8BBB5F88200484591
:1016D0003DD1606830F9160047F6FF71884236D078
:1016E000BDF8D000C01B00B2ADF80000BDF8D000BE
:1016F000384400B2ADF80400BDF8D200A0EB0A00F7
:1017000000B2ADF80200BDF8D200504400B2ADF80E
:101710000600A9F10100129000200D900E90CDF866
:101720001CD0606830F91600149004AA1A2158469B
:1017300014F04AF86A4619A93A9812F083FA04AAF2
:101740001B21584600E002E014F03EF800BF00BF45
:10175000214605F12400F4F7C3FE0446002C7FF473
:1017600028AE3A993698886000BF77E5E8160408F5
:101770002DE9F34FB3B08146349809F11401826822
:1017800031A8F3F7EBFB10B935B0BDE8F08F349812
:101790008068309031A9349881604D4600214846D8
:1017A0001BF0EDF92D90002148461BF002FC2C9017
:1017B000002148461BF069FD2B9048461AF00BFAB1
:1017C000B5F884104843001200B22A9048461AF037
:1017D000E3F9B5F886104843001200B22990484654
:1017E0001AF064FB0146B9F814202C9802442D9895
:1017F0001044401A00B2289048461AF051FC0146A5
:10180000B9F816202B9802442D981044401A00B2C3
:10181000279024A811F072FA24AA4FF4A021484678
:101820001CF0C0F916A812F029FA16AA4FF40031DC
:1018300048461CF02BFA4FF4003148461BF0A7FF36
:10184000064600EBD67047104FF4003148461BF0B7
:1018500010FA064600EBD6704FEA6008BDF9920018
:10186000474501DA394600E0414600EBD072B1EB62
:10187000620F06DD9DF8990020F0100010308DF801
:101880009900BDF89200012806D19DF8990020F03A
:10189000100010308DF8990005F12400F4F726FEB1
:1018A000044698E1207B00F0010000B18DE1208921
:1018B000ADF890002089ADF85C0095F88800C0F381
:1018C000C00008B9608900E0002006B2159628988B
:1018D000ADF8BC002898ADF8B800159E159EB3462B
:1018E000606830F816000A2847D02A9800902368CC
:1018F00033F91600237BC3F3C00C05F1780333F9E9
:101900001C20237BC3F3C00C05F1740333F91C10B6
:10191000002317F091FF00B2ADF8B800BDF8B81081
:101920002898084400B2ADF8B80029980090636880
:1019300033F91600237BC3F3001C05F1700333F960
:101940001C20237BC3F3001C05F16C0333F91C102E
:10195000002317F071FF00B2ADF8BA00BDF8BA105D
:101960002998401A00B2ADF8BA00BDF8BA1027980D
:10197000084400B2ADF8BA0005E04EF20100ADF83F
:10198000B800ADF8BA0003A8349919F039FE4FF445
:10199000A0201090944804900320059024A809905A
:1019A00016A8079014944FF0000AC8E0BDF8B800DC
:1019B000ADF8BC00BDF8BA00ADF8BE0015985044B3
:1019C000B5F8821090FBF1F201FB120006B26068DC
:1019D00030F9160047F6FF71884247D029980090E9
:1019E000636833F91600237BC3F3001C05F1700311
:1019F00033F91C20237BC3F3001C05F16C0333F97E
:101A00001C10002317F018FF00B2ADF8BA00BDF8A3
:101A1000BA102998401A00B2ADF8BA00BDF8BA1051
:101A20002798084400B2ADF8BA002A9800902368BD
:101A300033F91600237BC3F3C00C05F1780333F9A7
:101A40001C20237BC3F3C00C05F1740333F91C1075
:101A5000002317F0F1FE00B2ADF8B800BDF8B810E1
:101A60002898084400B2ADF8B80001E0B34662E03F
:101A7000BAF1000F5DD0BDF8BC00C01B00B2ADF8DC
:101A80000400BDF8BC00384400B2ADF80800BDF851
:101A9000BE00A0EB080000B2ADF80600BDF8BE0025
:101AA000404400B2ADF80A00AAF10100119060684C
:101AB00030F91B0047F6FF71884201D02FA800E0E3
:101AC00000200C90606830F9160047F6FF718842DC
:101AD00001D02EA800E000200D9001A806906068BB
:101AE00030F91B00139003AA1A21484613F06CFE2C
:101AF000606830F91B0047F6FF71884213D06068B8
:101B000030F9160088420ED02EAB2FAA24A93498A3
:101B100011F0DDF83FB1B8F1000F04D001AA16A909
:101B2000349812F08FF803AA1B21484613F04CFE9C
:101B300000BFB34600BF0AF101001FFA80FAB5F8F2
:101B4000820050453FF732AFB5F8820050453BD197
:101B5000606830F9160047F6FF71884234D0BDF84E
:101B6000B800C01B00B2ADF80400BDF8B80038449E
:101B700000B2ADF80800BDF8BA00A0EB080000B252
:101B8000ADF80600BDF8BA00404400B2ADF80A0056
:101B9000AAF10100119000200C900D9001A8069070
:101BA000606830F91600139003AA1A21484613F012
:101BB0000BFE01AA16A9349812F044F803AA1B21BF
:101BC000484613F001FE00BF00BF214605F1240086
:101BD000F4F786FC0446002C7FF464AE3499309808
:101BE000886000BFD0E50000E81604082DE9F74F33
:101BF000A2B00F46F88D10B925B0BDE8F08F97F868
