:020000040800F2
:1000000080DF002051030008473400083F34000817
:1000100043340008631F00080D370008000000008B
:10002000000000000000000000000000B90200080D
:10003000671F000800000000FD020008713400087E
:100040006B0300086B0300086B0300086B030008D8
:100050006B0300086B0300086B0300086B030008C8
:100060006B0300086B0300086B0300086B030008B8
:100070006B0300086B0300086B0300086B030008A8
:100080006B0300086B0300086B0300086B03000898
:100090006B0300086B0300086B0300086B03000888
:1000A0006B0300086B0300086B0300086B03000878
:1000B0006B0300086B0300086B0300086B03000868
:1000C0006B0300086B0300086B0300086B03000858
:1000D0006B030008E93600086B0300086B03000897
:1000E0006B0300086B0300086B0300086B03000838
:1000F0006B0300086B0300086B0300086B03000828
:100100006B0300086B0300086B0300086B03000817
:100110006B0300086B030008893400086B030008B8
:100120006B0300086B0300086B0300086B030008F7
:1001300000F002F800F0B0F80AA090E8000C824449
:100140008344AAF10107DA4501D100F0A5F8AFF226
:10015000090EBAE80F0013F0010F18BFFB1A43F0A5
:1001600001031847CC860400EC8604000A444FF0D3
:10017000000C10F8013B13F0070408BF10F8014B06
:100180001D1108BF10F8015B641E05D010F8016B4B
:10019000641E01F8016BF9D113F0080F1EBF10F8AF
:1001A000014BAD1C0C1B09D16D1E58BF01F801CBD2
:1001B000FAD505E014F8016B01F8016B6D1EF9D555
:1001C0009142D6D37047000000230024002500266A
:1001D000103A28BF78C1FBD8520728BF30C148BFAA
:1001E0000B6070476E2900F0A684702900F03B82F6
:1001F00066293FF0288465293FF0258467293FF070
:10020000228461293FF0218403681B0A28BF41F042
:100210008001692900F0AC81642900F0A981752969
:1002200000F0A6816F2900F0AC87782900F00782E2
:10023000E92900F04787E42900F04487F52900F018
:100240004187EF2900F0A987F82900F006820368AA
:10025000DB0928BF41F08001632900F0B6867329CD
:1002600000F0BB86E32901F0D781F32901F0DC819E
:10027000002070471FB500F0BDFF040000200021E2
:100280003EF082FE401C6060002000213EF066FED1
:10029000E0601FBD10B510BD01F064FA1146FFF714
:1002A000E9FF35F0A1FA01F08BFA03B4FFF7F2FF92
:1002B00003BC05F077FD0000224B19680868B0E820
:1002C000F00F80F30988BFF36F8F4FF0000080F3C9
:1002D00011884EF00D0E70470000000006480068BF
:1002E000006880F3088862B661B6BFF34F8FBFF332
:1002F0006F8F00DF00BF00BF08ED00E0EFF3098063
:10030000BFF36F8F0F4B1A6820E9F00F106008B52C
:100310004FF0500080F31188BFF34F8FBFF36F8F02
:100320003DF06CFE4FF0000080F31188BDE80840FE
:1003300019680868B0E8F00F80F30988BFF36F8F81
:10034000704700BF98000020EFF305807047000061
:100350000948804709480047FEE7FEE7FEE7FEE759
:10036000FEE7FEE7FEE7FEE7FEE7FEE70448054995
:10037000054A064B7047000085340008310100082B
:1003800080D9002080DF002080DB002080DB00207F
:10039000704753EA020C00F069802DE9F04B4FF0F2
:1003A0000006002B1FBFB3FA83F503FA05F424FA05
:1003B00005F65E4012BF1643B2FA82F502FA05F462
:1003C000C5F120051EBF22FA05FC44EA0C042035C5
:1003D00056EA044C4FEA144418BF641C4FF000085E
:1003E0004FF00009904271EB030C39D3002919BF7B
:1003F000B1FA81F701FA07F6B0FA80F700FA07F6CA
:10040000C7F120071EBF20FA07FC46EA0C0620377A
:10041000B6FBF4FCA7EB0507103F07F01F0BCBF171
:1004200020060CFA0BFB2CFA06F644BFB346002656
:10043000202FA4BF5E464FF0000B5BEA060C08BFFE
:100440004FF0010B19EB0B09ABFB027C48EB0608E4
:10045000C01B06FB02CC0BFB03CC71EB0C01C1E70C
:100460000B46024641464846BDE8F08B13B54FF0B7
:1004700000004FF00001AFF30080BDE81C40704762
:100480000A46014900F0AEBD140000200FB4044933
:1004900010B503AA029800F0A5FD10BC5DF814FB8E
:1004A000140000200FB41CB5084B06AA7B44694613
:1004B0000090059800F067FD04460020694600F0B2
:1004C00075FD20461CBC5DF814FB0000FD0A000011
:1004D00070B5044685690068C10601D5302600E084
:1004E0002026C00707D070BDD4E9012130469047CF
:1004F000206A401C20626D1EF6D570BD70B50446A2
:1005000085690078C00707D170BDD4E9012120209A
:100510009047206A401C20626D1EF6D570BD70B5F4
:100520000C460546012A05D02878800600D5EA69E0
:10053000002302E0012305E05B1C934202D2E05C51
:100540000028F9D1A869E618C01AA861286A1844D9
:1005500028622846FFF7BCFF04E0D5E9012114F822
:10056000010B9047B442F8D32846FFF7C7FF70BD90
:100570002DE9F0410646002410687529314616A57C
:1005800010D000F06DFA002802DA404213A507E00F
:1005900031688A0701D512A502E0490704D511A5E3
:1005A000012401E000F065FA00210A2206F1240787
:1005B00009E0B0FBF2FCB0FBF2F302FB1C003030B0
:1005C00078541846491C0028F3D123462A46304661
:1005D000BDE8F04100F056BA000000002D00000018
:1005E0002B00000020000000F0B40D460188090532
:1005F00002D5214C7C4402E01F4C7C440E34002187
:1006000000F1240608E002F00F071209E75D42EA54
:1006100003721B097754491C52EA0307F3D102788D
:100620000023120704D5702D06D009B1022311341E
:100630002246F0BC00F026BA01231034F8E770B56A
:1006400004460D462146106800F013FA024629467A
:100650002046BDE870400023C6E7D21D22F0070304
:10066000D3E90023C0E70368126843F02003036066
:100670000823C3610023B7E7BA7404002DE9F05FD3
:10068000894604464FF0000ADFF874B1FB44C0F815
:1006900020A02046E1688847002874D0252806D08D
:1006A000D4E901219047206A401C2062F1E700262E
:1006B0005F462046E16888472028054607DB312D44
:1006C00005D2781910F8200C08B10643F1E7B007FD
:1006D00001D526F00406C4F81CA00027C4F818A011
:1006E0002A2D09D0284603F061F838B304EB8708B7
:1006F000303DC8F8185019E059F8041B204604EBA7
:1007000087029161E1688847012F054618D1E069A9
:10071000002820DA26F020061DE0D8F8180000EBAB
:10072000800005EB40003038C8F818002046E1682A
:100730008847054603F03AF80028EED1012F0AD089
:100740002E2D08D12046E16888477F1C0546022FE0
:1007500046F02006C4DBA069002803DA404246F0D8
:100760000106A061F00701D026F010066C2D0BD019
:10077000682D09D04C2D39D06A2D35D0742D35D047
:100780007A2D33D016E038E0E1682F4620468847BE
:10079000B842054609D16C2F26D04FF48060E1683D
:1007A000064320468847054604E06C2F1AD04FF4D4
:1007B000807006430DB3A5F14100192802D82035F9
:1007C00046F400664A462946204626604E46FFF714
:1007D00009FD80B101280BD0F61D26F0070000F1BD
:1007E000080956E74020E4E78020D8E70020D6E754
:1007F00006F104094DE7284652E7206ABDE8F09F5C
:100800004A74040040EA0103024630B59B0710D148
:100810004FF0013400E008C208C91D1B9D4315EAD2
:10082000C41FF8D013F0FF0102F8011B0DD01B0A02
:10083000F8E711F8013B002B02F8013B05D011F855
:10084000013B002B02F8013BF3D130BD10B5431C36
:1008500002E010F8011B71B18107FAD14FF00132AB
:1008600002C88C1A8C4314EAC211F9D0C01A0A06C5
:1008700003D0C01E10BDC01A10BD0A0401D0801ED6
:1008800010BD0902FCD0401E10BD032A40F230808A
:1008900010F0030C00F0158011F8013BBCF1020FC1
:1008A000624498BF11F801CB00F8013B38BF11F842
:1008B000013BA2F1040298BF00F801CB38BF00F859
:1008C000013B11F0030300F02580083AC0F00880D6
:1008D00051F8043B083A51F804CBA0E80810F5E7BA
:1008E000121D5CBF51F8043B40F8043BAFF300809D
:1008F000D20724BF11F8013B11F801CB48BF11F812
:10090000012B24BF00F8013B00F801CB48BF00F8E1
:10091000012B704710B5203AC0F00B80B1E8185099
:10092000203AA0E81850B1E81850A0E81850BFF4D9
:10093000F5AF5FEA027C24BFB1E81850A0E8185078
:1009400044BF18C918C0BDE810405FEA827C24BFCC
:1009500051F8043B40F8043B08BF7047D20728BF5A
:1009600031F8023B48BF11F8012B28BF20F8023BA9
:1009700048BF00F8012B704702F0FF0343EA03224F
:1009800042EA024200F016BC4FF0000200B51346E6
:1009900094469646203922BFA0E80C50A0E80C509F
:1009A000B1F12001BFF4F7AF090728BFA0E80C5050
:1009B00048BF0CC05DF804EB890028BF40F8042B49
:1009C00008BF704748BF20F8022B11F0804F18BFB6
:1009D00000F8012B704700004FF0013C50F8042B49
:1009E00051F8043B9A4221D1A2EB0C03934313EA42
:1009F000CC1317D150F8042B51F8043B9A4215D16F
:100A0000A2EB0C03934313EACC130BD150F8042B45
:100A100051F8043B9A4209D1A2EB0C03934313EA29
:100A2000CC13DBD04FF00000704700BFD01A01BAE2
:100A3000B1FA81F101F0180122FA01F0CB40C1F1C5
:100A40002001DBB2C0B2C01A2CFA01F3D11A9143D3
:100A500011EAC311E6D1704770477047704770477D
:100A600009684A0501D540B27047C905FCD500B2F6
:100A7000704709684A0501D5C0B27047C905FCD561
:100A800080B270472DE9F0470D46994692460446DC
:100A900000F124080168880604D5E06921F01001FE
:100AA000216000E00120A84201DD471B00E0002793
:100AB000A1697A1902EB0900081AA0612078C00622
:100AC00002D42046FFF704FD002608E0D4E9012106
:100AD0001AF806009047206A401C761C20624E459A
:100AE000F4DB2078C0060AD52046FFF7F1FC06E0CB
:100AF000D4E9012130209047206A401C2062381E32
:100B0000A7F10107F4DC07E0D4E9012118F805009A
:100B10009047206A401C2062281EA5F10105F3DCE5
:100B20002046FFF7EBFC2078000602D50220BDE846
:100B3000F0870120FBE711680268006A530501D5C0
:100B400008700AE0D30501D5088006E0130603D536
:100B5000C217C1E9000200E0086001207047704739
:100B60002DE9FF4F0C461E464FF0FF378BB0D2E900
:100B70000001DDF860800A908A46C1F30A5505B984
:100B80003D46002108464FF00000BAF1000F00F486
:100B9000400005DA00EB80004FF4400101EA50000C
:100BA0004FEA9059B9F1010F00DDB9460A9850EAB1
:100BB0004A000ED044F61050A5F2FF3545432F14DD
:100BC000B8F1000F1ED07542291E1EDDC9F10002CA
:100BD0001CE0B8F1010F4FF0000001D0302103E01C
:100BE000F24305E02154401CB042FBDB30460022BA
:100BF000002121540B99C1F80880C1E900200FB0F1
:100C0000BDE8F08FBD1B6D1CDEE74A4600DA694285
:100C100006A800F00DFD06AB93E8070003AB83E8E0
:100C2000070050460A9900F0D4FD8DE80700A0F5B2
:100C300000501F3800900398002D0ADD42F21F017A
:100C40004A460844002303A90390684601F03DF892
:100C500009E0A0F500504A461F38002303A903907D
:100C6000684601F047F88DE807000004000C03D047
:100C70004FF0FF30410800E01046B8F1000F03D0FC
:100C80000022009215461EE0751E05D400F0B6FA4B
:100C9000303262556D1EF9D5B3460122084302D0A9
:100CA00000227F1C04E02078302801D100227F1E22
:100CB000002A099784D01DE0112D07DA00F09EFA72
:100CC000303262556D1C50EA0102F5D1084302D062
:100CD0000098C8B10EE00021681E05E0235C625C4C
:100CE00063542254401E491C8142F7DBAB46A81BCB
:100CF000401E0990002004F80B000B98099AC0F8D8
:100D00000880C0E9002B7AE711264FF0000857E76A
:100D10002DE9F04F88460446D21D22F0070191B01C
:100D2000D1E90001CDE90A0102F0F2FC02460B987C
:100D3000C00F01D02D2007E02068810701D52B20AE
:100D400002E0202101EAC000032A099001D0072A0D
:100D500005DB03464146204600F014FC0BE12078F9
:100D6000800601D5E06900E00620B8F1650F8146F4
:100D700006D0B8F1660F18D0B8F1670F70D131E026
:100D80000020B9F1110F009001DB112301E009F1FE
:100D900001030AAA01A90CA8FFF7E2FEDDE90C7025
:100DA000002609F10105834647E001204B460090EB
:100DB0004FF000470AAA01A90CA8FFF7D1FEDDE910
:100DC0000DB00C995D46002610B909F101000D180F
:100DD000B9EB050003D4C0F1FF3609F10105A5EB1D
:100DE00009002BE0B9F1010F01DA4FF001090020F1
:100DF000B9F1110F0090484601DD112300E00346D0
:100E00000AAA01A90CA8FFF7ABFEDDE90C704D465C
:100E100000268346207800070AD4AB4500DA5D46F9
:100E200001A8012D04DD411911F8011C302907D05A
:100E30004F4502DA17F1040F04DA012082460FE071
:100E40006D1EEEE7002F02DCED1B3E4403E0781C34
:100E5000A84200DD7D1CB81B00F1010A4FF00047DD
:100E60002078000703D4AA4501DB4FF0FF3A0021A8
:100E7000B7F1004F0DF143088DF8431024D0022044
:100E80002B23002F01DA7F422D230A21021EA0F11D
:100E9000010000DC5FB197FBF1FC97FBF1F201FB75
:100EA0001C7C17460CF1300C08F801CDEEE7A8F1D8
:100EB000010003702188090501D5452100E0652165
:100EC000A0F1010800F8011C09980FA9A1EB08077F
:100ED000FF1D00B10120411901EBEA70A1693844FE
:100EE000081A401EA0612078C00602D42046FFF7F1
:100EF000EFFA099828B1D4E901219047206A401CF3
:100F000020622078C00622D52046FFF7E1FA1EE0D5
:100F1000002E04DBB34502DD01A8805D00E0302037
:100F2000D4E901219047206A401C2062761CAAF176
:100F300001005FEA000A0AD100F05CF9C0680168AC
:100F4000405CD4E901219047206A401C2062281EA1
:100F5000A5F10105DCDC07E0D4E9012118F8010B5B
:100F60009047206A401C2062381EA7F10107F3DC7D
:100F70002046FFF7C3FA032011B041E601694A1C7D
:100F800002610878704700B58FB0CDE901310021CA
:100F9000059105497944CDE9031011466846FFF7EC
:100FA0006DFB0FB000BD0000E5FFFFFF0A6802F80F
:100FB000010B0A60704710B5436913B1AFF30080AD
:100FC00001E0FFF7ACFA012010BD127800F1240116
:100FD0000A7000224A700122EDE711684FF0FF32DB
:100FE000E9E70000074B70B50D467B44FFF7CBFFE8
:100FF0000446284600F08EFB10B14FF0FF3070BD64
:10100000204670BDBF2101002DE9FF5F15468A46CD
:101010000446DFF8AC80F8440027D8E900103E46CB
:10102000CDE9001010E03AF816106A4602A800F068
:1010300075FB411C07D02178890603D5E269391870
:1010400091420DD80744761C2078800602D5E069CD
:10105000B84205DDAE42E6DB3AF816000028E2D1E0
:10106000A069C01BA0612046FFF732FAD8E9001042
:10107000CDE90010002017E03AF818106A4602A8DF
:1010800000F04CFBB0F1FF3F81460BD000250DF185
:10109000080B05E0D4E901211BF8050090476D1C01
:1010A0004D45F7D308F10100B0428046E4DB206AE9
:1010B000384420622046FFF721FABDE8FF9F000078
:1010C000D26A04002DE9F0418046D21D22F00702C9
:1010D0000025D2E90002F52915A614D0011E72F1EF
:1010E000000106DA0023D0EB030063EB020211A635
:1010F00008E0D8F800108B0701D50FA602E04907D9
:1011000001D50EA601251146002408F1240704E0AC
:1011100000F074F830323A55641C50EA0102F7D1FD
:101120002B46324621464046BDE8F041FFF7AABCB7
:10113000000000002D0000002B0000002000000037
:1011400030B4002100F1240408E002F00705D208C1
:10115000303542EA4372DB086554491C52EA030504
:10116000F3D10468002310A2250707D5A40600D4F4
:1011700021B1C46901230DA2641EC46130BCFFF714
:1011800081BC10B5044621461068FFF772FC024688
:101190002046BDE810400023D2E7D21D22F007010F
:1011A000D1E90023CCE7000000000000300000007F
:1011B0004FF000020429C0F0128010F0030C3FF43D
:1011C000E5ABCCF1040CBCF1020F18BF00F8012B09
:1011D000A8BF20F8022BA1EB0C01FFF7D7BB5FEAF9
:1011E000C17C24BF00F8012B00F8012B48BF00F898
:1011F000012B7047004870473CD9002030B5B0F152
:101200000A024FEA900E71F100034EEA817EB0EBC4
:101210000E0061EB91014FEA101E4EEA017E10EBC9
:101220000E0041EB11114FEA102E4EEA016E10EB49
:101230000E0041EB11214FEA104E4EEA014E10EB29
:101240000E0041EB1141401841F100014FEAD0007E
:1012500040EA41704FEAD10110EB80054FEA81046A
:1012600044EA907444EB01046D1944EB0404521BEE
:10127000A3414FF0000348BF0A3200D530BD401CE7
:1012800041F1000130BD00002DE9F04F04460D464C
:10129000D21D22F0070089B0D0E9009748463946B0
:1012A00002F036FA0246F80F01D02D2307E020683D
:1012B000810701D52B2302E0202101EAC0038DF82C
:1012C00020300BB1012000E00020032A824601D02B
:1012D000072A04DB2946204600F054F93FE1207834
:1012E000800601D40D2500E0E569C7F30A560D2DEF
:1012F00049DA00214FEA175B08464FF00000002F43
:1013000000F4400007DA00EB80004FF4400100EBEE
:10131000D07001EA60008115012901DD4FF0FF3135
:1013200000224FEA850CBCF1180F06D31346ACF12E
:1013300018004FF08052C24003E04FF4801323FAAC
:101340000CF30CF10C0CBCF1200F04D3ACF1200C0D
:1013500009FA0CF001E007FA0CF000294FF0004800
:1013600001DD18B90FE00ED140450CD319EB02098D
:101370005F4121B9404502D19F4329EA0209BBEBF5
:10138000175F00D0761C2088000502D57B48784482
:1013900002E07A487844193808AA302302F80A3063
:1013A000037C0AF10101002E0AF1020A53546A4635
:1013B00002DC4FF0300101E04FF031014FF0010845
:1013C0008DF8001002D0A6F2FF3603E059EA47017B
:1013D00000D06B4E002D02DC2178090704D54FF0B8
:1013E00002082E218DF80110C44600210BE0C7F33E
:1013F00003433F01C35C491C6D1E02F808300529F8
:1014000008F1010801DA002DF1DC00210CE000EB0D
:101410001973491C1B786D1E082902F808304FEA21
:10142000091908F1010801DA002DF0DC21688B06AA
:1014300002D516E0A8F10108E04505DD02EB08033E
:1014400013F8013C302BF5D0B8F1000F09DD02EBA9
:10145000080313F8013C2E2B03D1090701D4A8F18E
:101460000108002D05DD3E2102F808106D1E08F16F
:101470000108407C002E02F8080008F1010804DA97
:101480002D20764202F8080002E02B2002F8080026
:101490000A214FF47A70864208F101080BDB96FBB3
:1014A000F0F3303302F8083096FBF0F308F101084E
:1014B00000FB136601E0642E0CDB642096FBF0F366
:1014C000303302F8083096FBF0F308F1010800FB16
:1014D000136601E00A2E06DB96FBF1F0303002F8CD
:1014E000080008F1010896FBF1F001FB10603030B4
:1014F00002F80800A16908F1010808EB050202EBF7
:101500000A00081AA0612078C00602D42046FEF71F
:10151000DFFF216A08AE01EB0A00206204E0D4E993
:10152000012116F8010B9047BAF1010AF7D2207891
:10153000C00602D52046FEF7CBFF6E4609E016F83E
:10154000010B3E280FD0D4E901219047206A401CAE
:101550002062B8F10108F2D22046FEF7CFFF09B0B1
:101560000320BDE8F08F206A2844206203E0D4E91C
:101570000121302090476D1EEBD3F8E7756704001A
:1015800002FCFFFF2DE9F0411F46044603260168D7
:10159000072A01F4006004DB08B116A505E016A5D2
:1015A00003E008B115A500E015A521F010002060AA
:1015B000A069C01EA0610FB1401EA0612046FEF7C9
:1015C00087FF4FB1D4E9012138469047206A401C7B
:1015D0002062C01C206206E0206AFAE7D4E90121FB
:1015E00015F8010B9047761EF8D22046FEF786FFCD
:1015F000BDE8F0814E414E006E616E00494E4600DE
:10160000696E660010B5436913B1AFF3008001E065
:10161000FFF7FAFC012010BD128800F1240182843A
:101620000022C2840122EDE711684FF0FF32E9E7A2
:101630002DE9F047814616468AB0354878440DC8F2
:101640008DE80D0032487844801C03AC0DC884E856
:101650000D0041F69B300844372190FBF1F290FBDE
:10166000F1F5A5F1800501FB12041B3C02D5644293
:10167000012000E00020DFF898A080460027FA440F
:10168000AAF1BE0A0EE0E0070AD03246684607EB30
:10169000470101230AEB810100F02CFB8DE80700D4
:1016A00064107F1C002CEED1194F7F44AE3F19E02F
:1016B000E80715D007EB04100DF1180A90E80E00AA
:1016C0008AE80E00C068F04201D1981908903246AD
:1016D000012306A903A800F00DFB03AB83E8070074
:1016E0006D10641C002DE3D14FF0010332466946B2
:1016F000B8F1000F03A802D000F0E7FA01E000F013
:10170000F9FAC9E90001C9F808200AB0BDE8F08774
:1017100058650400007B00F08000704770B51646E5
:101720000C46054600F044F8036893F801010128CF
:1017300006D0FF2C0FD8185D68B101202C7070BD49
:10174000D3F807013246214603F207130344284623
:10175000BDE8704018474FF0FF3070BD004870473B
:101760001CD900207546FFF7F9FFAE460500694613
:10177000534620F00700854618B020B5FEF7F6FD69
:10178000BDE820404FF000064FF000074FF0000882
:101790004FF0000B21F00701AC46ACE8C009ACE803
:1017A000C009ACE8C009ACE8C0098D46704700002C
:1017B00010B5FFF71FFD001D10BD00BFCDD7030002
:1017C00010B50446AFF300802046BDE81040FEF798
:1017D0006CBD5FEA400C08BF91F0000F4FEA8C230C
:1017E0004FEAC12243EA51514FEA1C5018BF00F59D
:1017F000F0404FEA300018BF41F000415FEA6C5CF6
:1018000000F02980BCF1FF3F08BF40F080407047E6
:10181000130C06BF12044FF0100C4FF0000C130E07
:1018200004BF12020CF1080C130F04BF12010CF1DB
:10183000040C930F04BF92000CF1020CD30F04BFF1
:1018400052000CF1010C11464FF00002A0F11F00F4
:10185000A0EB0C00704711F0004F08BF704731F04B
:1018600000413FF4D5AF0B0C06BF09044FF0100C3C
:101870004FF0000C0B0E04BF09020CF1080C0B0F0B
:1018800004BF09010CF1040C8B0F04BF89000CF19B
:10189000020CCB0F04BF49000CF1010CCCF120036A
:1018A000A0EB0C0022FA03F302FA0CF241EA030166
:1018B00000F10100704720F07F4C80EA030023F024
:1018C0007F47ACEB070303F57C5300F0004003F1C6
:1018D000FF032DE980494FEA154B09B44FEA144341
:1018E00025EA0B4E24EA03480FF2042606EB1327E1
:1018F00049083E785FEA320203FB0667C7F5000736
:1019000007FB06F64FEA54374FEAD64606F10206C1
:1019100007FB066CCCF1005C4FEA1C472CEA074C35
:1019200007FB06F40CFB06F504EB15464FEA96168A
:1019300034BF00204FF000404FEAD13706FB07FCD0
:101940004FEA1C4C0CFB0BF7D21B03FB0CF761EBB3
:1019500007010CFB0EF7B0EB074072EB17420CFBD4
:1019600008F734BFA2EB0742B2EB074261EB174125
:101970004FEA0C444FEA910706FB07FC4FEA1C4C68
:101980000CFB0BF7B0EBC74072EB573203FB0CF7C5
:1019900034BFA2EBC742B2EBC74261EB57310CFB3D
:1019A0000EF7B0EBC70072EB57720CFB08F734BFB1
:1019B000A2EBC702B2EBC70261EB5771039F4FEA7C
:1019C000816141EA921104EBCC044FEAD1374FEA2E
:1019D000826206FB07FC42EA90124FEA80604FEAFF
:1019E0001C4C0CFB0BF7D21B03FB0CF761EB070144
:1019F0000CFB0EF7B0EB074072EB17420CFB08F73D
:101A000034BFA2EB0742B2EB074261EB17414FEA4A
:101A10008C554FEA910704EB9C2406FB07FC4FEA28
:101A20001C4C0CFB0BF7B0EBC74072EB573203FBBF
:101A30000CF734BFA2EBC742B2EBC74261EB5731A0
:101A40000CFB0EF7B0EBC70072EB57720CFB08F7FC
:101A500034BFA2EBC702B2EBC70261EB577115EBC3
:101A60004C254FEA816141EA92114FEA82624FEAC6
:101A7000D13742EA901206FB07FC44F100044FEA1A
:101A800080604FEA1C4C0CFB0BF7D21B03FB0CF7DE
:101A900061EB07010CFB0EF7B0EB074072EB17424E
:101AA0000CFB08F734BFA2EB0742B2EB074261EB35
:101AB000174115EB1C154FEA813141EA92414FEA7B
:101AC000823242EA90424FEA80304FEA0C7644F18B
:101AD000000448EA03434EEA0B484FF0000EB2EB15
:101AE000080C71EB030724BF624639464EEB0E0E1D
:101AF0004FF0000B0018524149414BEB0B0BB2EB7E
:101B0000080C71EB03077BF1000B24BF62463946DA
:101B10004EEB0E0E4FF0000B0018524149414BEBBB
:101B20000B0BB2EB080C71EB03077BF1000B24BF2E
:101B3000624639464EEB0E0E51EA020718BF46F0D8
:101B4000010616EB0E7655F1000254F1000103D5A3
:101B5000BDE88901BDE80088BDE88901BDE800480D
:101B6000B619524141EB0101A3F101037047808096
:101B70007F7E7D7C7B7A79787776767574737271E7
:101B800071706F6E6E6D6C6C6B6A6A69686867669F
:101B900066656464636362616160605F5F5E5E5D31
:101BA0005D5C5C5B5B5A5A595958585757565655A5
:101BB00055555454535352525251515050504F4F07
:101BC0004F4E4E4D4D4D4C4C4C4B4B4B4A4A4A4957
:101BD000494948484847474747464646454545449A
:101BE0004444444343434342424242414141002B27
:101BF0009C4630D477002BD01CB54FEA370703B48E
:101C00004FF010004FF01001BAF1000F06D0BCF1F8
:101C1000000FDCBF40F0080040F008014FF000006A
:101C20000FBCBDE810400BF1010BBBF1010F08BF69
:101C30005FEA170722BF12F1010211F101014FF013
:101C4000004143F1000300F0004043EA0000704708
:101C5000F9D35708D0E746EA064613F1400F4FEA9A
:101C600016461FDD13F1200FDFBF16430A46002181
:101C700020335B42BED0C3F1200746EA064602FA93
:101C800007F74FEA164646EA0706C3F1200722FA8D
:101C900003F201FA07F721FA03F14FF0000342EAD9
:101CA0000702A7E746EA020646EA06464FEA164654
:101CB00046EA0106BCBF46EA0646360C4FF0000372
:101CC0004FF000024FF0000194E72DE9804C9A4656
:101CD000934670B491E8380007C831EA400C48BF19
:101CE00034EA430C03D5FFF7E6FDFFF780FFF0BCB5
:101CF000BDE8008C2DE9804C9A46934670B491E87B
:101D0000380007C810F0804F08BF13F0804F03D190
:101D100000F005F8FFF76BFFF0BCBDE8008C20F089
:101D20007F4780EA030023F07F4C07EB0C03A3F509
:101D30007C5300F00040A3F1FE0392F0000F00F08E
:101D4000B38095F0000F00F077802DE901494FEA4C
:101D500011404FEA144621EA004800FB06FC24EA41
:101D6000064708FB06F607FB08F800FB07F718EB29
:101D700006484CEB164C4FEA124B18EB07484FEA5B
:101D800015464CEB174022EA0B4E0BFB06FC25EAEE
:101D900006470EFB06F607FB0EFE0BFB07F71EEBD6
:101DA000064E4CEB164C4FF000061EEB074E4CEB6C
:101DB000174B18EB0B0840F1000018EB0E0B58EB1B
:101DC000000840F100008F1A4FF000013CBFC943EA
:101DD000661B14BFB5EB040C00213CBFC943F61BC6
:101DE0004FEA17444EEA8E0E27EA04454FEA1C4795
:101DF00004FB07622CEA074C05FB07F70CFB05F612
:101E000004FB0CFC16EB074642EB174216EB0C46A4
:101E100042EB1C421BEB060658EB0202414146EA2C
:101E20009E0601D5BDE80189B619524141EB010179
:101E3000A3F10103BDE801894FEA14454FEA1147B8
:101E400024EA054621EA074C05FB07F406FB07F7E1
:101E50000CFB06F105FB0CFC11EB074144EB1744AE
:101E60004FEA124711EB0C4144EB1C4422EA074CA9
:101E700005FB07F206FB07F70CFB06F605FB0CFC5F
:101E800016EB074642EB174216EB0C4642EB1C459D
:101E90006A1854F1000148BF7047B619524141EB2E
:101EA0000101A3F10103704795F0000F37D04FEA0D
:101EB00011424FEA144721EA024624EA074C02FB8A
:101EC00007F106FB07F70CFB06F402FB0CFC14EB16
:101ED000074441EB17414FEA154714EB0C4441EB23
:101EE0001C4125EA074C02FB07F506FB07F70CFB34
:101EF00006F602FB0CFC16EB074645EB174516EB06
:101F00000C4645EB1C42121951F1000148BF7047C5
:101F1000B619524141EB0101A3F1010370474FEAA9
:101F200014454FEA114724EA054621EA074C05FB10
:101F300007F106FB07F70CFB06F24FF0000605FB66
:101F40000CFC12EB074241EB174112EB0C4251EB38
:101F50001C4148BF7047921841EB0101A3F10103F6
:101F6000704700BFFEE7704770B50446B3F5804F79
:101F700013D1D1E9000540EA05108D6840EA05203B
:101F80008D6928438D8940EA054054F82250064E59
:101F90003540284344F8220003E06FF0704044F8D5
:101FA0002200002070BD00000000F0CF70B5024696
:101FB000086852F8200020F001000E6842F8260060
:101FC0008868082801D1402300E0002348681843AE
:101FD0008E683043CE6830430E6930434E693043DB
:101FE000CE6930430E6A30434E6A30438E6A3043C6
:101FF000CE6A30430E6B40EA060488690443486B9E
:102000000443074D45F4806545F4E025086852F81F
:102010002000A84320430E6842F82600002070BD2F
:102020007FFB080010B50346D1E9000440EA041024
:102030008C6840EA04208C8940EA0444088A401EE7
:1020400044EA0054087D801E44EA00608C69204305
:10205000541C53F8244004F040442043541C43F8DB
:102060002400002010BD000070B50446002594F83F
:102070002100022803D00420A0630125C1E02068CC
:10208000006820F00E00216808602068006820F0D9
:102090000100216808605C492068884252D95A4989
:1020A00078392068884201D1012047E056496439D7
:1020B0002068884201D1102040E0534950392068FF
:1020C000884201D1801539E04F493C392068884267
:1020D00001D1801432E04C4928392068884202D16D
:1020E0004FF480302AE0484914392068884202D1F0
:1020F0004FF4801022E044492068884201D1400416
:102100001CE042492068884201D1012016E03F4985
:1021100014312068884201D110200FE03B4928315A
:102120002068884201D1801508E038493C31206898
:10213000884201D1801401E04FF480303349091FF7
:10214000086051E0304978392068884201D1012087
:1021500047E02D4964392068884201D1102040E0D1
:10216000294950392068884201D1801539E0264933
:102170003C392068884201D1801432E02249283954
:102180002068884202D14FF480302AE01E49143979
:102190002068884202D14FF4801022E01A4920685A
:1021A000884201D140041CE018492068884201D1CE
:1021B000012016E0154914312068884201D1102011
:1021C0000FE0124928312068884201D1801508E0CB
:1021D0000E493C312068884201D1801401E04FF45F
:1021E0008030094980394860012084F8210000BF0F
:1021F000002084F8200000BF606B10B12046616BA6
:102200008847284670BD0000800002400804024054
:102210002DE9F847024600239C467BE14FF0010878
:1022200008FA03F4D1F8008008EA0400A0427DD146
:10223000DFF8F4A2D1F80480A8EB0A09D0453AD01F
:1022400014DCB8F1030F50D009DCB8F1000F31D025
:10225000B8F1010F1CD0B8F1020F49D120E0B8F15C
:10226000110F18D0B8F1120F42D11EE0B9F5881F36
:1022700025D006DCB9F5803F20D0B9F5801F37D1D5
:102280001AE0B9F5001F18D0B9F5041F30D117E0D6
:10229000D1F80CC02DE0D1F80C8008F1040C28E036
:1022A000D1F80C8008F1080C23E0D1F80C8008F17B
:1022B0000C0C1EE000BF00BF00BF00BF00BF00BF8E
:1022C000D1F80880B8F1000F02D14FF0040C0BE0F8
:1022D000D1F80880B8F1010F03D14FF0080C146158
:1022E00002E04FF0080C546103E04FF0000C00E0F6
:1022F00000BF00BFFF2801D8904601E002F10408AA
:102300004646FF2802D84FEA830803E0A3F10808F5
:102310004FEA88084746D6F800804FF00F0909FABF
:1023200007F928EA09080CFA07F900E07AE048EA18
:102330000908C6F80080D1F8048008F08058B8F188
:10234000805F6FD100BFDFF8E481D8F8188048F0D3
:102350000108DFF8D891C9F81880C846D8F8188065
:1023600008F00108CDF8008000BF00BF4FEAB9387F
:102370004FEA930958F829504FEA83784FEA1879C1
:102380004FF00F0808FA09F825EA0805DFF8A081E0
:10239000424502D14FF0000824E0DFF89881424521
:1023A00002D14FF001081DE0DFF88C81424502D1D7
:1023B0004FF0020816E0DFF88481424502D14FF069
:1023C00003080FE0DFF87881424502D14FF004089E
:1023D00008E0DFF87081424502D14FF0050801E0C6
:1023E0004FF006084FEA83794FEA197908FA09F89D
:1023F00048EA0505DFF850814FEA930948F829506B
:10240000D1F8048008F48038B8F5803F0BD1DFF8AC
:102410003C81D8F8008048EA0008DFF83091C9F81C
:1024200000800AE075E0DFF82481D8F8008028EA0F
:102430000008DFF81891C9F80080D1F8048008F48A
:102440000038B8F5003F0ED1DFF8008108F104082C
:10245000D8F8008048EA0008DFF8F09009F1040994
:10246000C9F800800DE0DFF8E48008F10408D8F82E
:10247000008028EA0008DFF8D49009F10409C9F8BF
:102480000080D1F8048008F48018B8F5801F0ED1C0
:10249000DFF8B88008F10808D8F8008048EA00089A
:1024A000DFF8A89009F10809C9F800800DE0DFF80D
:1024B0009C8008F10808D8F8008028EA0008DFF8B6
:1024C0008C9009F10809C9F80080D1F8048008F45B
:1024D0000018B8F5001F0ED1DFF8708008F10C0865
:1024E000D8F8008048EA0008DFF8609009F10C098C
:1024F000C9F800800DE0DFF8548008F10C08D8F826
:10250000008028EA0008DFF8449009F10C09C9F8B6
:1025100000805B1CD1F8008028FA03F8B8F1000FA6
:102520007FF47CAEBDE8F887000011100010024077
:1025300000080140000C014000100140001401405F
:1025400000180140001C0140080001400004014047
:10255000024693680B400BB1012000E00020704759
:1025600010B5C26821EA020302EA010443EA044307
:10257000036110BD0AB1016101E00B040361704702
:1025800001480068704700001C00002003480068F4
:102590000349097808440149086070471C0000207D
:1025A0002400002010B50848006840F010000649DB
:1025B0000860032000F080F80F2000F007F800F01A
:1025C0002BF8002010BD00000020024070B504462A
:1025D0000E4800784FF47A71B1FBF0F00C490968AD
:1025E000B1FBF0F5284600F073FC08B1012070BD86
:1025F000102C07D200222146501E00F01EF805487C
:10260000046001E00120F2E70020F0E72400002050
:1026100000000020200000207047014608460028E6
:1026200009DB00F01F0301229A4043099B0003F1DC
:10263000E023C3F8002100BF70472DE9F05F80461A
:102640000D461646002701F077F8074639462A4618
:10265000334601F00700C0F1070ABAF1040F02D9AE
:102660004FF0040A01E0C0F1070AD14600F1040A64
:10267000BAF1070F02D24FF0000A01E0A0F1030AFD
:10268000D4464FF0010A0AFA09FAAAF1010A0AEA45
:10269000020A0AFA0CFA4FF0010B0BFA0CFBABF131
:1026A000010B0BEA030B4AEA0B042146404601F0FA
:1026B0004BF8BDE8F09F000000BF00F00702064B9A
:1026C00019684FF6FF031940044B0B4343EA0221FC
:1026D000014B196000BF70470CED00E00000FA05E7
:1026E00070B504460D460CB9012070BD5A4800680B
:1026F00000F00700A8420ED25748006820F00700FB
:102700002843554908600846006800F00700A842C1
:1027100001D00120E9E7207800F0020002281DD155
:10272000207800F00400042805D14C48406840F4AB
:10273000E0604A494860207800F00800082805D188
:102740004648406840F46050444948604348406807
:1027500020F0F000A168084340494860207800F06C
:10276000010078B36068012806D13C48006800F495
:10277000003090B90120B8E76068022806D13748D8
:10278000006800F0007040B90120AEE733480068EF
:1027900000F0020008B90120A7E73048406820F0A7
:1027A0000300616808432D494860FFF7E9FE0646CB
:1027B00009E0FFF7E5FE801B41F28831884202D92B
:1027C000032092E707E02548406800F00C006168AC
:1027D000B0EB810FEDD12048006800F00700A8425F
:1027E0000ED91D48006820F0070028431A490860E8
:1027F0000846006800F00700A84201D0012074E7F5
:10280000207800F00400042807D11448406820F420
:10281000E060E168084311494860207800F0080052
:10282000082808D10D48406820F46050216940EA2A
:10283000C1000A49486000F03FF808494968C1F3FF
:102840000311074A515CC840064908600648006801
:10285000FFF7BCFE002048E70020024000100240C5
:102860004EFA030800000020200000200148006804
:10287000704700000000002000B5FFF7F7FF044993
:102880004968C1F30221034A515CC84000BD000001
:10289000001002405EFA030800B5FFF7E7FF0449A5
:1028A0004968C1F3C221034A515CC84000BD000021
:1028B000001002405EFA0308F0B585B00FF26C0C10
:1028C0009CE8E01001A8A0E8E0101CA52D68009588
:1028D00000210022002300240020194D696801F026
:1028E0000C05F5B1042D02D0082D19D101E01548D1
:1028F00019E001ADC1F38346AC5D01F4803555B1FB
:102900000F4D6D68C5F340451DF805200D4D65431D
:10291000B5FBF2F302E00C4D04FB05F3184602E0B0
:1029200000BF084800BF00BF05B0F0BD02030405AA
:10293000060708090A0B0C0D0E0F1010010200000B
:102940000010024000127A0000093D00F8B504466C
:102950000CB90120F8BD207800F00100002878D0E3
:10296000F848406800F00C0004280CD0F548406896
:1029700000F00C00082811D1F248406800F48030C3
:10298000B0F5803F0AD1EF48006800F4003000281D
:102990005FD0606800285CD10120DBE700BF606881
:1029A000B0F5803F06D1E748006840F48030E54943
:1029B000086028E0606858B9E248006820F4803078
:1029C000E04908600846006820F4802008601AE0AA
:1029D0006068B0F5A02F0BD1DA48006840F4802081
:1029E000D84908600846006840F4803008600AE072
:1029F000D448006820F48030D24908600846006856
:102A000020F48020086000BF606888B1FFF7B8FD3F
:102A1000054606E0FFF7B4FD401B642801D90320FA
:102A200098E7C848006800F400300028F2D010E0B1
:102A3000FFF7A6FD054606E0FFF7A2FD401B642850
:102A400001D9032086E7BF48006800F40030002861
:102A5000F2D1207800F00200022857D1B94840682E
:102A600000F00C0050B1B748406800F00C00082896
:102A700018D1B448406800F4803098B9B148006873
:102A800000F0020020B12069012801D0012061E797
:102A9000AC48006820F0F800616940EAC100A9492B
:102AA000086033E02069E8B10120A7490860FFF71A
:102AB00067FD054606E0FFF763FD401B022801D9CC
:102AC000032047E79F48006800F002000028F2D08A
:102AD0009C48006820F0F800616940EAC10099490B
:102AE000086013E0002098490860FFF749FD05469B
:102AF00006E0FFF745FD401B022801D9032029E726
:102B00009048006800F002000028F2D1207800F020
:102B1000080008282DD1A069B8B101208B490860B0
:102B2000FFF72EFD054606E0FFF72AFD401B0228B1
:102B300001D903200EE78348406A00F00200002814
:102B4000F2D0012000F080FC13E000207F490860F3
:102B5000FFF716FD054606E0FFF712FD401B0228B1
:102B600001D90320F6E67748406A00F00200002809
:102B7000F2D1207800F00400042873D100277148B6
:102B8000C06900F0805070B900BF6E48C06940F065
:102B900080506C49C8610846C06900F080500090C0
:102BA00000BF00BF01276A48006800F48070B0B918
:102BB0006748006840F4807065490860FFF7E0FCF2
:102BC000054606E0FFF7DCFC401B642801D9032022
:102BD000C0E65F48006800F480700028F2D000BFB3
:102BE000E068012806D15748006A40F001005549C5
:102BF000086227E0E06858B95248006A20F00100F6
:102C0000504908620846006A20F00400086219E092
:102C1000E06805280BD14B48006A40F004004949A0
:102C200008620846006A40F0010008620AE0454870
:102C3000006A20F00100434908620846006A20F05B
:102C40000400086200BFE068A0B1FFF799FC0546E8
:102C500009E0FFF795FC401B41F28831884202D918
:102C6000032077E622E03748006A00F002000028DF
:102C7000EFD012E0FFF784FC054608E0FFF780FC88
:102C8000401B41F28831884201D9032062E62D4879
:102C9000006A00F002000028F0D1012F05D1294878
:102CA000C06920F080502749C86100BFE069C8B3FF
:102CB0002448406800F00C00082860D0E069022831
:102CC00048D1002020490866FFF75AFC054606E077
:102CD000FFF756FC401B022801D903203AE61948A9
:102CE000006800F000700028F2D1206AB0F5803F43
:102CF00007D11448406820F40030A1680843114906
:102D00004860D4E9080108430E49496821F4741168
:102D100008430C49486001200B490866FFF730FC66
:102D2000054607E03DE0FFF72BFC401B022801D9D8
:102D300003200FE60348006800F000700028F2D07E
:102D40002FE0000000100240000042428004424296
:102D500000700040002014490866FFF711FC05468A
:102D600006E0FFF70DFC401B022801D90320F1E526
:102D70000E48006800F000700028F2D111E0E06910
:102D8000012800D1E6E50948466806F48031206A4A
:102D9000814204D106F47011606A814201D00120A1
:102DA000D8E50020D6E500000000424200100240B5
:102DB00070B504460E4615461CB1A069B0F5807F7B
:102DC00001D1012070BD94F8410028B9002084F899
:102DD0004000204600F020F804F108012068FFF7C9
:102DE000E5F83146A2682068FFF71CF92946236BF5
:102DF000D4E90102FFF7B8F8A168206850F8210073
:102E000040F00100A268216841F82200012084F806
:102E100041000020D6E7000010B586B0044600BF90
:102E20001E48406940F480701C494861084640696A
:102E300000F48070019000BF00BF00BF08468069A9
:102E400040F0200088610846806900F02000019071
:102E500000BF00BF00BF0846806940F040008861A5
:102E60000846806900F04000019000BF00BF4CF2AE
:102E7000037002900220039001200490032005902B
:102E800002A90748FFF7C4F94FF68070029002A923
:102E90000448FFF7BDF906B010BD00000010024065
:102EA0000014014000180140042808D14FF0E0212F
:102EB000096941F004014FF0E022116107E04FF091
:102EC000E021096921F004014FF0E022116170470F
:102ED00070B504462546681EB0F1807F01D30120FD
:102EE0000FE0681E4FF0E02148610F214FF0FF30E6
:102EF00000F02AFC00204FF0E021886107200861E3
:102F0000002070BD70477047704710B504462068B8
:102F10000069C0F34000D8B12068C068C0F3400029
:102F2000B0B16FF0020021680861012020772068AD
:102F3000806900F0030018B12046FFF7E5FF05E0C7
:102F4000204600F0ADF8204600F0ABF800202077D6
:102F500020680069C0F38000D8B12068C068C0F361
:102F60008000B0B16FF00400216808610220207772
:102F70002068806900F4407018B12046FFF7C4FF54
:102F800005E0204600F08CF8204600F08AF800208A
:102F9000207720680069C0F3C000D8B12068C068FD
:102FA000C0F3C000B0B16FF00800216808610420D0
:102FB00020772068C06900F0030018B12046FFF7B1
:102FC000A3FF05E0204600F06BF8204600F069F80A
:102FD0000020207720680069C0F30010D8B1206875
:102FE000C068C0F30010B0B16FF010002168086134
:102FF000082020772068C06900F4407018B120468E
:10300000FFF782FF05E0204600F04AF8204600F076
:1030100048F8002020772068006900F0010058B1CE
:103020002068C06800F0010030B16FF00100216835
:103030000861204600F036F820680069C0F3C0102F
:1030400058B12068C068C0F3C01030B16FF0800084
:10305000216808612046FFF755FF20680069C0F32A
:10306000801058B12068C068C0F3801030B16FF094
:10307000400021680861204600F024F820680069BB
:10308000C0F3401058B12068C068C0F3401030B1A0
:103090006FF02000216808612046FFF734FF10BD63
:1030A0007047704710B504460448844205D100BFFC
:1030B00020210348FFF754FA00BF10BD9C040020F4
:1030C00000180140704770472DE9F047044620681A
:1030D00005682068C668206847694FF00008C14647
:1030E00005F00F08B8F1000F0AD105F0200038B143
:1030F00006F0200020B1204600F0F8F9BDE8F08786
:10310000B8F1000F71D007F0010018B906F4907003
:1031100000286AD005F0010030B106F4807018B1C3
:10312000E06B40F00100E06305F0040030B107F00F
:10313000010018B1E06B40F00200E06305F002000E
:1031400030B107F0010018B1E06B40F00400E0631B
:1031500005F0080048B106F0200010B907F00100A2
:1031600018B1E06B40F00800E063E06B68B305F075
:10317000200028B106F0200010B1204600F0B6F97A
:1031800020684069C0F38019E06B00F0080010B9B6
:10319000B9F1000F22D0204600F088F9206840697C
:1031A00000F04000B0B12068406920F04000216884
:1031B0004861606B50B11848616B4863606BFEF703
:1031C00053FF10B1606B416B88470CE02046FFF75E
:1031D0007AFF08E02046FFF776FF04E02046FFF77D
:1031E00072FF0020E06389E7FFE705F0800030B15F
:1031F00006F0800018B1204600F046FA7EE705F0A0
:10320000400030B106F0400018B1204600F05EF9F1
:1032100074E700BF72E700009934000810B5044657
:103220000CB9012010BDA06900B100E000BF94F806
:10323000390028B9002084F83800204600F028F82A
:10324000242084F839002068C06820F400502168E8
:10325000C860204600F09AF92068006920F4904088
:10326000216808612068406920F02A0021684861CF
:103270002068C06840F400502168C8600020E06306
:10328000202084F8390084F83A000020CAE70000C2
:1032900010B586B004462849206888424AD100BF4C
:1032A00000BF2648806940F0040024498861084630
:1032B000806900F00400019000BF00BF00BF00BFA4
:1032C00000BF0846806940F00400886108468069B4
:1032D00000F00400019000BF00BF00BF00BF00BFAE
:1032E0000846806940F4804088610846806900F49F
:1032F0008040019000BF00BF00BF4815029002202F
:103300000390012004900320059002A90C48FEF7C9
:103310007FFF4FF4806002900020039002A90848CC
:10332000FEF776FF2520FFF778F9032211462520C6
:10333000FFF783F906B010BD0038014000100240CD
:103340000008014010B5034693F83A0020282FD119
:1033500001B10AB9012010BD00BF93F8380001285F
:1033600001D10220F7E7012083F8380000BF9962FD
:103370009A85DA850020D863222083F83A0000BFBE
:10338000002083F8380000BF1868C06840F48070DF
:103390001C68E0601868406940F001001C686061CA
:1033A0001868C06840F020001C68E0600020D2E788
:1033B0000220D0E71D4A0168914236D11C49098894
:1033C00001F4004189BB1A49098801F4804171B1B7
:1033D000184909780A2903D00021154A118024E0F0
:1033E0001349098841F40041114A11801DE0114937
:1033F00009780D2906D10E49098841F480410C4A0B
:10340000118012E00B490978094A1288C2F30D02B3
:10341000094B995406490988491C054A11801146EF
:103420000988C72901DD002111807047003801405B
:10343000180000201A0000203C030020704700BF45
:10344000FEE700BFFEE7704708B508490968C908EC
:103450004FF47A72B1FBF2F14143009100BF00BF1B
:1034600000994A1E00920029F9D108BD00000020F1
:1034700010B5FFF78BF83BF005FA012801D03AF0C0
:10348000CBFF10BD7047000010B50248FFF73DFDAF
:1034900010BD00009C04002070B505466C6A002039
:1034A000E085E0842046FFF70EFE70BD0168C96824
:1034B00021F490710268D1600168496921F001012D
:1034C00002685161202180F83A10704710B5044617
:1034D0002068C06820F040002168C860202084F87F
:1034E00039002046FFF7AAFF002010BD70B5044642
:1034F00094F83A00222847D1A068B0F5805F0CD13B
:10350000206950B90025A66A20684068C0F3080009
:103510003080A06A801CA06215E0A56A0026A06821
:10352000B0F5805F03D0A06828B9206918B9206879
:103530004068287004E02068406800F07F00287030
:10354000A06A401CA062E08D401E80B2E085C8B930
:103550002068C06820F020002168C8602068C0682A
:1035600020F480702168C8602068406920F0010064
:1035700021684861202084F83A002046FFF71AFFAE
:10358000002070BD0020FCE70220FAE770B5044679
:103590002168096921F44051E268114322681161F0
:1035A0002269A1681143626941EA02052168C9687C
:1035B00041F20C62914329432268D1602168496934
:1035C00021F44071A2691143226851612D4A21689A
:1035D000914202D1FFF760F901E0FFF74DF900EBEE
:1035E000C00101EB001162689200B1FBF2F100EB47
:1035F000C00202EB001263689B00B2FBF3F264238B
:10360000B2FBF3F202EBC20303EB0212A1EB820165
:10361000322202EB01116422B1FBF2F101F0F00160
:1036200000EBC00202EB001263689B00B2FBF3F2F6
:103630006423B2FBF3F201EB021200EBC00101EBD9
:10364000001163689B00B1FBF3F100EBC00303EBD7
:1036500000136668B600B3FBF6F36426B3FBF6F31B
:1036600003EBC30606EB0313A1EB8301322303EB49
:1036700001116423B1FBF3F101F00F011144226841
:10368000916070BD00380140014691F83900212851
:1036900028D18868B0F5805F0BD1086948B90A6AFB
:1036A0001088C0F308000B685860086A801C086224
:1036B00005E00B6A581C086218780B685860C88CC3
:1036C000401E80B2C88458B90868C06820F08000E5
:1036D0000B68D8600868C06840F040000B68D8608C
:1036E000002070470220FCE710B50648FFF7ECFC0D
:1036F00000BF012204490348FFF724FE0028F8D147
:1037000010BD0000040400201A00002000BFFEE7E6
:10371000490050EAC12018BF04204A0D18BF40F0EC
:10372000010040F2FF72B2EB515F08BF40F00200AF
:10373000012808BF0520704702480068C0F3022036
:10374000704700000CED00E010B5002804DB0A070C
:10375000130E054A135406E00A07140E034A00F03C
:103760000F031B1FD45410BD00E400E018ED00E06F
:1037700070B50446002508E02168481C20600878E0
:10378000303805EB850100EB41052168087800F031
:1037900004F80028F0D1284670BD0146302903DB2B
:1037A000392901DC012070470020FCE730380A2865
:1037B00001D20120704700207047000010B5402161
:1037C000074801F0EDFB00220421064830F0ACFC74
:1037D0000549086003F09CF900200449087010BDF9
:1037E000509B0020DD6B00088C0200208802002026
:1037F00030B50346B1F90040B2F90050AC4202DDE9
:10380000B1F9004001E0B2F900401C80B1F902407A
:10381000B2F90250AC4202DDB1F9024001E0B2F966
:1038200002405C80B1F90440B2F90450AC4202DAC3
:10383000B1F9044001E0B2F904409C80B1F90640BE
:10384000B2F90650AC4202DAB1F9064001E0B2F931
:103850000640DC800120B3F90040B3F90450AC42CB
:1038600005DCB3F90240B3F90650AC4200DD00209C
:1038700030BDF8B504460D4616460027B4F90000E1
:10388000B5F90010884212DBB4F90200B5F9021054
:1038900088420CDBB4F90400B5F90410884206DC58
:1038A000B4F90600B5F90610884200DC01270FB90B
:1038B0000020F8BD0EB90120FBE72088ADF800001C
:1038C0006088ADF8020032466946284600F0A7F845
:1038D00008B90020EDE7A088ADF800006088ADF8D9
:1038E000020032466946284600F099F808B90020DF
:1038F000DFE72088ADF80000E088ADF8020032462E
:103900006946284600F08BF808B90020D1E7A08866
:10391000ADF80000E088ADF802003246694628465E
:1039200000F07DF808B90020C3E70120C1E7024696
:10393000B2F90000B1F90430984213DCB2F9040086
:10394000B1F9003098420DDBB2F90200B1F906304E
:10395000984207DCB2F90600B1F90230984201DB67
:10396000012070470020FCE7F8B504460D461646D6
:10397000B4F90400B5F90010884211DBB4F906006F
:10398000B5F9021088420BDBB4F90000B5F9041058
:10399000884205DCB4F90200B5F90610884201DD61
:1039A0000120F8BD0EB90020FBE72088ADF800002B
:1039B0006088ADF8020032466946284600F02FF8CC
:1039C00008B10020EDE7A088ADF800006088ADF8F0
:1039D000020032466946284600F021F808B100206E
:1039E000DFE72088ADF80000E088ADF8020032463D
:1039F0006946284600F013F808B10020D1E7A088F6
:103A0000ADF80000E088ADF802003246694628466D
:103A100000F005F808B10020C3E70120C1E72DE957
:103A2000FC5F05460E4614464FF0000AB6F900004A
:103A3000B5F90010884213DBB6F90000B5F904109F
:103A400088420DDCB6F90200B5F90210884207DBA6
:103A5000B6F90200B5F90610884201DC4FF0010A00
:103A6000BAF1000F02D10020BDE8FC9F002C01DC60
:103A70000120F9E7284618F07CF9834600EBDB705B
:103A80004710284618F0EDF8834600EBDB704FEA4C
:103A90006008474501DA384600E0404681464C451B
:103AA00000DD4C462888ADF800002888204400B28C
:103AB000ADF804006888ADF802006888204400B2C0
:103AC000ADF80600002231466846FFF7A8FF80B136
:103AD000BDF80400204400B2ADF80400BDF80600B3
:103AE000204400B2ADF80600314668462BF012FEC5
:103AF000BAE7E888001B00B2ADF80200E888ADF82C
:103B00000600002231466846FFF789FF80B1BDF804
:103B10000400204400B2ADF80400BDF80200001B10
:103B200000B2ADF80200314668462BF0F3FD9BE78A
:103B3000A888001B00B2ADF80000A888ADF804000A
:103B4000002231466846FFF76AFF80B1BDF80000E9
:103B5000001B00B2ADF80000BDF80200001B00B26F
:103B6000ADF80200314668462BF0D4FD7CE768884A
:103B7000ADF802006888204400B2ADF806000022CB
:103B800031466846FFF74BFF80B1BDF80000001BCF
:103B900000B2ADF80000BDF80600204400B2ADF858
:103BA0000600314668462BF0B5FD5DE701205BE776
:103BB00010B5B1F90030B2F90040A34202DAB1F910
:103BC000003001E0B2F900300380B1F90230B2F9FF
:103BD0000240A34202DAB1F9023001E0B2F9023048
:103BE0004380B1F90430B2F90440A34202DDB1F9D7
:103BF000043001E0B2F904308380B1F90630B2F943
:103C00000640A34202DDB1F9063001E0B2F9063008
:103C1000C38010BD2DE9FF41044600BF00BF30F056
:103C2000F2F905460020039034B14C49E068086081
:103C3000204630F01BFC03E01BF016FA47490860F1
:103C40004649096808692BF0FDFB44480068406953
:103C500020B14249096848692BF0F4FB3F490968E3
:103C6000C8692BF0EFFB3D490968086A2BF0EAFBB5
:103C70003A480068006988B9002038490968A1F805
:103C8000500137A03D4B4FF499723DA100900220A6
:103C900001F022FA00BF00BFBDE8FF812CF06EF8F2
:103CA0002BF0B4FF2D480068B0F8500100284BD02D
:103CB0002A4800680068007CC0F34000E8B127484B
:103CC00000681BF049FB401E06B2244800681BF048
:103CD000E3F9401E07B23B460022114601A80096B8
:103CE00018F08CF801A81D4909680968896B4860BB
:103CF0001A48006806F030FE00BF4FF48071174884
:103D00000068303025F015F920211448006800F5CE
:103D1000987025F00EF9002010490968A1F85001AB
:103D2000284630F063F903900C4800680068406A48
:103D300050B10A49096808680849096809684B6A66
:103D40001C490A680399984724F0BAFC00F06AF805
:103D500000F032F800BF00BF00BF9DE74C0100201B
:103D60007468657265206973206E6F206163746981
:103D700076652073637265656E000000952D0408FA
:103D80002E2E5C2E2E5C4D6964646C6577617265C5
:103D9000735C4C56474C5C4755495C6C76676C5C71
:103DA0007372635C636F72655C6C765F726566727A
:103DB0002E6300004801002010B5002416E0C4EB7B
:103DC000C4000C4951F8200030B1C4EBC401094AC9
:103DD00052F8210024F0E2FDC4EBC401054A02EBD5
:103DE00081001C2125F0A5F8601CC4B2042CE6DB80
:103DF00010BD00002C9C00200146094A10680BE011
:103E000042688A4202D002688A4204D1027E22F0CD
:103E10000102521C027640690028F1D1704700006F
:103E2000200100207047000010B50421014801F076
:103E3000B7F810BD449B002010B51C21014801F0CB
:103E4000AFF810BD5C9B00202DE9FF4F8BB00446FE
:103E50009A46199DBAF1000F11D11898B0F5807FDC
:103E60000DD10020208060800C98401E00B2A08000
:103E70000D98401E00B2E0800FB0BDE8F08FB5F99C
:103E800000004042189948430121C1EB202000B2B4
:103E90002080B5F902004042189948430121C1EB46
:103EA000202000B26080B5F900100C98401A1899D3
:103EB0004843022101EB202000B2A080B5F9021096
:103EC0000D98401A18994843022101EB202000B2B6
:103ED000E080BAF1000F14D120882988084400B28C
:103EE000208060886988084400B26080A0882988A2
:103EF000084400B2A080E0886988084400B2E080ED
:103F0000BAE70A209AFBF0F00A900A98401C099040
:103F10000A9800EB8000AAEB400B0A9800B230F040
:103F2000F9FF0890099800B230F0F4FF07900A9862
:103F30005A3000B230F0EEFF069009985A3000B2C5
:103F400030F0E8FF0590CBF10A010898414307984B
:103F500000FB0B100A2190FBF1F6CBF10A01069849
:103F60004143059800FB0B100A2190FBF1F77611F5
:103F70007F11B4F90080B4F9029007FB08F006FB4A
:103F80001900298801EBA02000B2ADF8100006FB53
:103F900008F007FB0900698801EBA02000B2ADF82A
:103FA0001200B4F90480B4F9029007FB08F006FB94
:103FB0001900298801EBA02000B2ADF80C0006FB27
:103FC00008F007FB0900698801EBA02000B2ADF8FA
:103FD0000E00B4F90080B4F9069007FB08F006FB68
:103FE0001900298801EBA02000B2ADF8080006FBFB
:103FF00008F007FB0900698801EBA02000B2ADF8CA
:104000000A00B4F90480B4F9069007FB08F006FB37
:104010001900298801EBA02000B2ADF8040006FBCE
:1040200008F007FB0900698801EBA02000B2ADF899
:104030000600BDF90800BDF91010884202DABDF98A
:10404000080001E0BDF91000BDF90410BDF90C2015
:10405000914202DABDF9041001E0BDF90C1088426A
:104060000BDABDF90800BDF91010884202DABDF97B
:1040700008000DE0BDF910000AE0BDF90400BDF92B
:104080000C10884202DABDF9040001E0BDF90C0011
:104090002080BDF90800BDF91010884202DDBDF98D
:1040A000080001E0BDF91000BDF90410BDF90C20B5
:1040B000914202DDBDF9041001E0BDF90C10884207
:1040C0000BDDBDF90800BDF91010884202DDBDF915
:1040D00008000DE0BDF910000AE0BDF90400BDF9CB
:1040E0000C10884202DDBDF9040001E0BDF90C00AE
:1040F000A080BDF90A00BDF91210884202DABDF9AC
:104100000A0001E0BDF91200BDF90610BDF90E204C
:10411000914202DABDF9061001E0BDF90E108842A5
:104120000BDABDF90A00BDF91210884202DABDF9B6
:104130000A000DE0BDF912000AE0BDF90600BDF964
:104140000E10884202DABDF9060001E0BDF90E004A
:104150006080BDF90A00BDF91210884202DDBDF988
:104160000A0001E0BDF91200BDF90610BDF90E20EC
:10417000914202DDBDF9061001E0BDF90E10884242
:104180000BDDBDF90A00BDF91210884202DDBDF950
:104190000A000DE0BDF912000AE0BDF90600BDF904
:1041A0000E10884202DDBDF9060001E0BDF90E00E7
:1041B000E08000BF60E62DE9F74F86B00446206836
:1041C0000590B4F908100798A0EB0108B4F90A109B
:1041D0000898A0EB0109E089B0F5807F13D1206B2E
:1041E00000FB08F0E16A01FB1901606A00EBA10B1A
:1041F000E06A00FB08F0216B01FB0901A06A00EBFB
:10420000A10004902FE0A08980B9A06B00FB08F00A
:104210004FEA6018A06B00FB09F04FEA6019606A72
:1042200000EB080BA06A484404901CE0A06B00FB64
:1042300008F04FEA6018A06B00FB09F04FEA601924
:10424000206B00FB08F0E16A01FB1901606A00EBDA
:10425000A12BE06A00FB08F0216B01FB0901A06AB9
:1042600000EBA12004904FEA2B2604980712B4F922
:104270000400B04203DC002009B0BDE8F08F002E3E
:1042800001DA0020F8E7B4F90600B84201DC0020AA
:10429000F2E7002F01DA0020EEE73420005DC0F3E2
:1042A000800050B33420005DC0F3400078B902258F
:1042B000B4F904007843684306FB050A059800EB4F
:1042C0000A012A4604F1140024F0D5FD2CE0032550
:1042D000B4F904007843684306FB050A6A1E059892
:1042E00000EB0A0104F1140024F0C5FD0AEB0500FF
:1042F000401E0599095CA17516E04FF0000A0025E3
:10430000208A03463AB231B2019004F1180020F03D
:10431000DFF90290BDF80800A0823AB231B204F190
:10432000180020F035F9A0753420005D00F0010080
:10433000B0B14FF47F40002100F47C4241EA5211B9
:10434000C0F3C40211430191BDF80420114602914B
:10435000A08ABDF80810884201D100208CE700BF78
:10436000E07C08B9012087E70FFA8BF1A187049858
:1043700001B2E18731B24020015339B242200153EA
:10438000C4F844A084F84850204600F003F8039095
:10439000039871E72DE9F04F8DB00446D4F80090F2
:1043A00094F83C000C9094F83E000B900C98702808
:1043B0000BDA4FF0FF35B4F940002844002800DA4A
:1043C00000250C988030C7B213E00C9890280EDDC1
:1043D0000125B4F940002844B4F90410884200DBF8
:1043E00000250C98C0F1FF008030C7B201E0002525
:1043F000FF270B9870280CDA4FF0FF36B4F9420013
:104400003044002800DA00260B98803000F0FF08C6
:1044100015E00B9890280FDD0126B4F942003044D6
:10442000B4F90610884200DB00260B98C0F1FF00AB
:10443000803000F0FF0802E000264FF0FF08A08A5D
:104440000A90A07D069000200590049003903420EF
:10445000005DC0F3800000285BD094F84800626CD7
:1044600000FB052000EB0901022209A824F003FD4E
:10447000B4F9040094F848205043626C00FB062015
:1044800000EB0901022208A824F0F5FCB4F90400AD
:1044900094F848205043626C00FB062294F84800D0
:1044A00000FB052000EB0901022207A824F0E3FC31
:1044B0003420005DC0F3400000287ED094F848000E
:1044C000616C00FB05110844401E19F800000590BE
:1044D000B4F9040094F848104843616C00FB0611DD
:1044E00094F848000844401E19F800000490B4F9FC
:1044F000040094F848104843616C00FB061194F8DE
:10450000480000FB05110844401E19F80000039004
:1045100053E0208A0090B4F942204020005B2844F8
:1045200001B204F11800009B20F0D2F80990208A13
:1045300000904220005B304402B2B4F9401004F114
:104540001800009B20F0C4F80890208A00904220B8
:10455000005B304402B24020005B284401B204F109
:104560001800009B20F0B4F807903420005DC0F3E1
:10457000400010B3B4F942204020005B284401B24F
:1045800004F1180020F004F805904220005B30444C
:1045900002B2B4F9401004F118001FF0F9FF0490C2
:1045A0004220005B304402B24020005B284401B24C
:1045B00004F118001FF0ECFF0390BA46BB4634200C
:1045C000005DC0F34000E0B306987843C7F1FF0CEC
:1045D000059B03FB0C00C0F3072104987843C7F147
:1045E000FF0C039B03FB0C00C0F3072201FB08F048
:1045F000C8F1FF0302FB0300030AA375022905DCCF
:10460000022A03DC00200DB0BDE8F08F022901DC96
:104610004FF00008022A01DC4FF0FF08069802283C
:1046200001DC4FF0000A0598022801DC4FF0FF0A78
:104630000498022801DC4FF0000B0398022803DCE9
:1046400000E002E04FF0FF0B03E0BA46BB46FF215B
:10465000A175BAF1000F02D1099802900BE0BAF1EE
:10466000FF0F02D10A98029005E05246DDE90910D9
:1046700019F0A8FE0290BBF1000F02D1079801903B
:104680000BE0BBF1FF0F02D10898019005E05A46FC
:10469000DDE9071019F096FE0190B8F1000F03D183
:1046A000BDF80400A0820FE0B8F1FF0F03D1BDF800
:1046B0000800A08208E04246DDE9011019F082FE00
:1046C0000090BDF80000A08201209CE72DE9F05F7A
:1046D0000446B4F9080001026162B4F90A0001025B
:1046E000A162B4F90C000A2190FBF1F56F1CB4F93A
:1046F0000C0005EB8501A0EB4106684200B230F0EA
:1047000009FC8046784200B230F004FC8146C5F1D5
:104710005A0000B230F0FEFB8246C7F15A0000B2E8
:1047200030F0F8FB8346C6F10A0000FB08F009FBF5
:1047300006000A2190FBF1F1E162C6F10A0000FBDC
:104740000AF00BFB06000A2190FBF1F12163E06AFD
:104750004111E162206B41112163A07C20F0C7F878
:104760003421095D60F3000134200155A07C20F064
:10477000A1F83421095D60F3410134200155A07C8A
:10478000042805D0A07C052802D0A07C062807D1EB
:104790003420005D20F00400001D3421085505E0A0
:1047A0003420005D20F0040134200155216821628D
:1047B000A06920F0E000A061A17CA06961F3040081
:1047C000A061A188A06961F39420A061E188A0693B
:1047D00061F35F50A061E08900EBD071491001F5F1
:1047E000001191FBF0F2A263FF21A175208AA08243
:1047F000BDE8F09F2DE9F74181B00546164600243B
:10480000164C2FF000FC8046334629462046029A7B
:1048100020F04CFF0746002F12D111A01B4B7D2228
:104820001BA10090022000F057FC2C21204624F010
:1048300080FB4FF00040A062002004B0BDE8F08192
:104840000020A062E06918B940462FF0CFFBE0617C
:10485000E06908B90120E0612046EEE7809B002076
:10486000496D61676520647261772063616E6E6F68
:1048700074206F70656E2074686520696D6167656E
:10488000207265736F75726365000000652E040801
:104890002E2E5C2E2E5C4D6964646C6577617265AA
:1048A000735C4C56474C5C4755495C6C76676C5C56
:1048B0007372635C647261775C6C765F696D675F6D
:1048C00063616368652E63003EB51421194800F0EA
:1048D00067FB20F053FE044600BF002C0DD116A04C
:1048E00019A11DA2244BCDE900210290402223A151
:1048F000032000F0F1FB00BFFEE700BF44B92EA08B
:104900001D4B42221DA10090022000F0E5FB3EBDA0
:104910003249204620F0CAFF3149204620F0C8FF26
:104920003049204620F0C6FF2F49204620F0BCFF2A
:1049300000BFECE7689B00204F7574206F66206D08
:10494000656D6F72790000006465636F6465722045
:10495000213D204E554C4C00417373657274656463
:104960002061742065787072657373696F6E3A2088
:1049700025732028257329008E2E04082E2E5C2EE8
:104980002E5C4D6964646C6577617265735C4C562E
:10499000474C5C4755495C6C76676C5C7372635C32
:1049A000647261775C6C765F696D675F6465636F85
:1049B0006465722E630000006C765F696D675F64EA
:1049C00065636F6465725F696E69743A206F7574B0
:1049D000206F66206D656D6F72790000D549020801
:1049E000F94F0208FD5302089D49020838B50446F4
:1049F0000D461021284624F09CFA206800780128F2
:104A000004D1208A2880608A68800CE020680078C1
:104A1000022802D1E068686005E020680078042878
:104A200001D10A2068602068406830B100BF00BF33
:104A3000206829464268904707E004A00B4BBE223D
:104A40000BA10090022000F047FB38BD696E646541
:104A5000765F726561645F6362206973206E6F7454
:104A6000207265676973746572656400E27004089A
:104A70002E2E5C2E2E5C4D6964646C6577617265C8
:104A8000735C4C56474C5C4755495C6C76676C5C74
:104A90007372635C68616C5C6C765F68616C5F69A3
:104AA0006E6465762E6300002DE9FE430446A66A17
:104AB000EEB9A18A208A084401B2A182E18A608A03
:104AC000084401B2E18220460DF041FD06460EB9D0
:104AD000BDE8FE83204611F085FD00220921304605
:104AE0001EF0E4FB6078C0F3400000B1F0E7208ADC
:104AF00010B9608A002870D000200290019094F8CC
:104B00003C0000F00F00032812D1304626F0E0FEF2
:104B10000746304626F064FE804603200090B4F934
:104B200010103B46424630460CF0CAFF029012E09D
:104B3000304626F04FFF0746304626F0C3FD80463C
:104B40000C200090B4F9121043463A4630460CF05F
:104B5000B7FF019000BF304626F014FE054605F071
:104B6000010028B9BDF90800002801DD00200290ED
:104B700005F0020028B9BDF90800002801DA00207C
:104B8000029005F0040028B9BDF90400002801DDF9
:104B90000020019005F0080028B9BDF904000028A4
:104BA00001DA0020019001AA02A9204634F0C0F8E1
:104BB0000023BDF90420BDF90810304629F0F4FDAA
:104BC000A08ABDF80810084401B2A182E08ABDF8AD
:104BD0000410084401B2E18200BF00BF78E72DE96C
:104BE000F84F0446D4F828B0BBF1000F01D1BDE85E
:104BF000F88F94F83C0000F00F0000B9F7E721F0BF
:104C000057FA06463068477E4021584628F0F6FAA3
:104C100010B9002161832183584626F0C7FE8046E3
:104C2000584626F0CDFE054694F83C0000F00F00F3
:104C30000C2843D1002121831DBBB4F91A00C7F110
:104C400064014843642190FBF1F001B2618358464E
:104C500026F038FD8146584626F0BCFE82460C20E0
:104C60000090B4F91A104B46524658460CF028FFF3
:104C70006083B4F91A2000231946584629F094FDA0
:104C800069E0204634F0ABF80090002161836A4669
:104C9000204634F04DF8BDF9003041F6FF72514224
:104CA00058460DF0FDFD8146BDF80000484402B2B3
:104CB00001230021584629F077FD4CE094F83C0090
:104CC00000F00F00032846D100216183B8F1000FE6
:104CD00023D1B4F91800C7F164014843642190FB63
:104CE000F1F001B22183584626F07AFD81465846FC
:104CF00026F0EEFD824603200090B4F918105346CA
:104D00004A4658460CF0DCFE2083B4F91810002304
:104D10001A46584629F048FD1DE0204634F044F874
:104D200000900021218300226946204634F000F8DB
:104D3000BDF9003041F6FF72514258460DF016FDA4
:104D40008146BDF80000484401B2012300225846C4
:104D500029F02AFD00BF208B002860D1608B00283D
:104D60005DD11DBB584626F035FE8146584626F0DB
:104D7000A9FC8246B9F1000F02DCBAF1000F14DD84
:104D8000B9F1000F06DA01234A460021584629F0FE
:104D90000BFD0AE0BAF1000F07DA0123CAF10000A7
:104DA00002B20021584629F0FFFC00BFB8F1000F05
:104DB00023D1584626F014FD8146584626F088FD3A
:104DC0008246B9F1000F02DCBAF1000F14DDB9F12F
:104DD000000F06DA012300224946584629F0E4FC78
:104DE0000AE0BAF1000F07DA01230022CAF100003D
:104DF00001B2584629F0D8FC00BF32460A21584675
:104E00001EF054FA6078C0F3400000B1EFE694F869
:104E10003C0020F00F0184F83C100021A16200BF8B
:104E2000E5E62DE9FF4104460F4614B91AF01CF9D6
:104E300004460CB9BDE8FF811FB90020A4F8500159
:104E4000F8E70020ADF80800ADF80A0020461AF097
:104E500023F9401E00B2ADF80C0020461AF07CFA8F
:104E6000401E00B2ADF80E0002AA39466846FEF7B1
:104E7000BFFC064606B9DDE72068007CC0F34000B1
:104E800060B102982063039860630120A4F8500188
:104E9000606810B160682FF0F5FACBE72068806990
:104EA00018B1206869468269904700250BE004F13B
:104EB000300000EBC50100226846FEF7DAFC00B1C5
:104EC000B8E7681C85B2B4F85001A842EFDCB4F82A
:104ED0005001202809DAB4F8502104F1300101EB27
:104EE000C200694616F02DFE0BE00020A4F8500128
:104EF000B4F8502104F1300101EBC20002A916F010
:104F000020FEB4F85001401CA4F85001606810B1B4
:104F100060682FF0B7FA00BF8CE770B505462846E9
:104F200000F013F8044600260CE02146284600F065
:104F300024F806462146284600F086F8204623F04D
:104F40002DFD3446002CF0D170BD014609B900207A
:104F500070474868FCE770B5064600243046FFF706
:104F6000F4FF054605E0641C2946304600F005F8CC
:104F70000546002DF7D1204670BD02460B4610684D
:104F8000001D03441868704702460B46106803442E
:104F900018687047014609B9002070478868FCE727
:104FA000002242608260CA1C22F003010160704747
:104FB00070B50446216801F1080023F0FBFA0546AC
:104FC000A5B100222946204631F05AF9294620464B
:104FD000626831F047F9606820B12A46204661686E
:104FE00031F04EF96560A06800B9A560284670BD33
:104FF00070B50446216801F1080023F0DBFA05468C
:10500000A5B100222946204631F02CF92946204638
:10501000A26831F035F9A06820B12A462046A1687F
:1050200031F020F9A560606800B96560284670BD60
:10503000014609B901207047486818B9886808B95D
:105040000120F8E70020F6E72DE9F04104460D467F
:105050000CB9BDE8F0812046FFF777FFA8420FD1D9
:1050600029462046FFF789FF6060606810B900207C
:10507000A0602FE000222046616831F001F929E0AC
:105080002046FFF787FFA8420FD129462046FFF7A9
:105090007BFFA060A06810B9002060601AE00022C9
:1050A0002046A16831F0DEF814E029462046FFF7DB
:1050B0006BFF064629462046FFF75FFF07463A4644
:1050C0003146204631F0CEF832463946204631F09E
:1050D000D7F800BF00BFBCE72DE9FE4F07460D46DD
:1050E00091469846062F01DBBDE8FE8F022F38DB84
:1050F0000DA802902846FBF7A9FB044608E0285DAE
:105100002F2802D0285D5C2801D1641C02E0641EB7
:10511000002CF4D100BF2EF076FF06464FF47A70D3
:10512000B6FBF0F100FB116AB6FBF0FB0E4800681D
:10513000301ACDE900080D4850F8271053465A465A
:105140000BA0FBF7A3F902990C98FBF799F9291921
:105150004A460EA0FBF79AF9034806600020029029
:1051600000BF00BFC0E70000A8020020AC02002082
:105170005B25735D092825642E253033642C202B94
:10518000256429092025733A200000002009286998
:105190006E202573206C696E6520232564290A0022
:1051A00010B504462068806818B1206821468268DE
:1051B00090472068006828B1206800682060204679
:1051C000FFF7EEFF10BD0146886818B18868B0F996
:1051D000160070470020FCE72DE9F04F93B005461C
:1051E0008B4691469A461C9E688C20F00400001D58
:1051F0006884A5F8209032895946284627F06EFD2C
:105200001290A5F820A032895946284627F066FD5D
:105210001190688C20F004006884DDE91110884248
:105220000CD1DDE91110884208D1BDF84800BDF865
:105230004410884202D113B0BDE8F08FA5F8209049
:1052400032895946284627F049FD1290A5F820A03A
:10525000594628460FF0EBFA10903189109A1068E1
:10526000129A2CF067FC3089602833D147F6FF7121
:105270001298884202D0119888422BD1284627F0F4
:1052800060FF0F9000EBD0704710284627F059FFC1
:105290000F9000EBD0704FEA600847F6FF7112984C
:1052A000884208D1781C08F10101884200DA01E047
:1052B00008F10100129047F6FF711198884208D159
:1052C000781C08F10101884200DA01E008F10100D0
:1052D000119000BF2A48FFF76BFE044600BF74B967
:1052E00028A02CA12EA2364BCDE9002102904FF42C
:1052F000A57234A10320FFF7EFFE00BFFEE700BF59
:1053000004B998E71298E06011982061ACB3256069
:105310003089A080C4F808B0684615F069FD2146C0
:10532000684615F027FE3549684615F0E7FD344814
:10533000029000BF3349684615F0F2FDFF220021BC
:10534000684615F003FE3188684615F0F3FD718854
:10535000684615F0CBFDF068069000BF6846002156
:1053600090F83E2061F3000280F83E2000BF3069D3
:105370000590684615F018FE00BF00BF5BE700000F
:10538000749B00204F7574206F66206D656D6F7281
:1053900079000000747220213D204E554C4C0000D5
:1053A00041737365727465642061742065787072EE
:1053B000657373696F6E3A20257320282573290061
:1053C000382D04082E2E5C2E2E5C4D6964646C65AD
:1053D00077617265735C4C56474C5C4755495C6C11
:1053E00076676C5C7372635C636F72655C6C765F2E
:1053F0006F626A5F7374796C652E63000DD3030866
:10540000B9D50308E9D4030810B514210148FFF702
:10541000C7FD10BD749B00202DE9FE4F04460F46CA
:1054200090464FF0000900256BE1E06800EBC500F5
:105430004068C0F3406000B162E1E16801EBC50182
:10544000496821F07F4029F0FAFF064626EA070066
:1054500008B9012000E00020029026EA080008B9FF
:10546000012000E000200190DDE90101814272D0BD
:10547000E06850F835A04FF0000B6A4641F6100185
:1054800050462BF08BFF10B14FF0010BA9E06A469C
:1054900041F6110150462BF081FF10B14FF0010B86
:1054A0009FE06A4641F6120150462BF077FF10B19B
:1054B0004FF0010B95E06A4641F6130150462BF080
:1054C0006DFF10B14FF0010B8BE06A4641F61501FC
:1054D00050462BF063FF10B14FF0010B81E06A469C
:1054E00041F6140150462BF059FF10B14FF0010B5B
:1054F00077E06A4641F2690150462BF04FFF10B148
:105500004FF0010B6DE06A4643F20C0150462BF060
:1055100045FF10B14FF0010B63E06A4643F20D0105
:1055200050462BF03BFF10B14FF0010B59E06A469B
:1055300041F2010150462BF031FF10B14FF0010B49
:105540004FE06A4641F2040150462BF027FF18B1A4
:105550004FF0010B45E0D2E06A4641F202015046AD
:105560002BF01CFF10B14FF0010B3AE06A4641F2FC
:10557000030150462BF012FF10B14FF0010B30E049
:105580006A4641F2050150462BF008FF10B14FF07A
:10559000010B26E06A4641F2060150462BF0FEFE62
:1055A00010B14FF0010B1CE06A4641F23201504647
:1055B0002BF0F4FE10B14FF0010B12E06A4643F6F7
:1055C0000F0150462BF0EAFE10B14FF0010B08E03E
:1055D0006A4643F60E0150462BF0E0FE08B14FF04C
:1055E000010BBBF1000F02D00320BDE8FE8F6A461D
:1055F00040F60A0150462BF0D1FE10B14FF00209DF
:105600007CE06A4640F60B0150462BF0C7FE10B115
:105610004FF0020972E06A4643F60F0150462BF044
:10562000BDFE10B14FF0020968E06A4643F60E0174
:1056300050462BF0B3FE10B14FF002095EE06A460F
:1056400040F63C0150462BF0A9FE10B14FF0020984
:1056500054E06A4640F63D0150462BF09FFE10B1E3
:105660004FF002094AE06A4640F63A0150462BF0F4
:1056700095FE10B14FF0020940E06A464FF4046114
:1056800050462BF08BFE10B14FF0020936E06A460F
:1056900040F6450150462BF081FE10B14FF0020953
:1056A0002CE06A4640F6410150462BF077FE10B1DF
:1056B0004FF0020922E06A4640F6420150462BF0C4
:1056C0006DFE10B14FF0020918E06A4640F6430142
:1056D00050462BF063FE10B14FF002090EE06A460F
:1056E00040F6490150462BF059FE10B14FF0020927
:1056F00004E0B9F1000F01D14FF0010900BF00BF74
:105700006D1C608CC0F3C500A8423FF68EAE4846C3
:105710006BE7000001480068704700004C01002062
:1057200070470146C1F30412072A00DD0722D0B2F8
:105730007047000010B518210348FFF731FC012025
:105740002EF074FD10BD0000209B00202DE9F041DB
:1057500005460F4616460DB9BDE8F0812846FBF711
:1057600075F88046394628460A4A12689047074627
:10577000E8193146074A1268904706463C4603E05E
:10578000A019285C2855641CA8EB0600A042F7D29B
:1057900000BFE1E7F40200202DE9F04106460C4687
:1057A00017461D4629463046084A12689047206031
:1057B000206830B1296888190021044A126890478E
:1057C00000E000203860BDE8F0810000EC0200201D
:1057D0002DE9F04F87B004460F4692469846DDE922
:1057E00010560DB1002028801CB9002007B0BDE87C
:1057F000F08F207808B90020F8E70FB90020F5E70E
:105800004FF0000906F0020010B906F0040098B14C
:10581000002000E0401C215C0A2905D0215C0D29F4
:1058200002D0215C0029F5D1215C01B1401C15B1E9
:105830004FF0FF312980D9E706F0020008B141F6A8
:10584000FF7800200690059038E00020049005982D
:1058500008B9012000E0002006A904AACDE90062F1
:10586000CDE90210059960184346524639462FF09B
:1058700089FB83460498A8EB00000FFA80F804988F
:1058800048440FFA80F9BBF1000F00D11CE00598E5
:105890005844059020780A2802D020780D2800D19D
:1058A00012E00598205C0A2803D00598205C0D289A
:1058B00003D10598401C059006E000BF0598205CC8
:1058C00010B1B8F1000FC0DC00BF059870B905A990
:1058D0002046094A12689047834635B1002259464E
:1058E00038461DF025FF0FFA80F900BF0DB1A5F86D
:1058F000009005987AE70000EC0200202DE9F047BF
:1059000006468846174606B10FB9BDE8F08730460F
:10591000FAF79CFF81463846FAF798FF044604B927
:10592000F3E704EB090A414630460B4A12689047F8
:105930008046554603E0281B305C70556D1E08EB11
:105940000400A842F7D906EB08002246394623F0A6
:10595000AAFA00BFD9E70000F402002002460020A6
:105960000FA31B788B4211D113781BB9012313703D
:1059700001200BE01378012B02D10023137005E006
:105980001378022B02D10023137001201378012B0E
:1059900004D1202901D10223137001207047000097
:1059A0002300000073B584B0064605980390324684
:1059B00000210846039B2FF043FE0546002003907C
:1059C0000024681C22F0F6FD044600BF002C0ED116
:1059D0000EA012A115A21D4BCDE9002102904FF49B
:1059E000F0721BA10320FFF777FB00BFFEE700BFAB
:1059F00014B9002006B070BD002060553246691C05
:105A00002046059B2FF01CFE2046F3E74F757420BF
:105A10006F66206D656D6F72790000007465787433
:105A200020213D204E554C4C000000004173736511
:105A3000727465642061742065787072657373692F
:105A40006F6E3A202573202825732900C775040836
:105A50002E2E5C2E2E5C4D6964646C6577617265D8
:105A6000735C4C56474C5C4755495C6C76676C5C84
:105A70007372635C6D6973635C6C765F7478742EAB
:105A8000630000002DE9F04781460E4614461F468C
:105A9000DDF820A035461BE0600800FB07552946CD
:105AA0004846D047B0F1000809DD04F0010080F05D
:105AB0000100C0EB5404E8190546064608E0B8F1B9
:105AC000000F02DA6408354602E02846BDE8F08798
:105AD000002CE1D10020F9E72DE9FF4F85B0834686
:105AE000DDE9158ADDE91349DDE91775129E05F038
:105AF0000200F8B94FB105F0010030B1B9F1000F63
:105B000002D105F00C0000B17F1E03E030222046D8
:105B1000641C3254544501D2202CF7D303E03022C8
:105B20002046641C325405F0010018B1BC4201D279
:105B3000202CF4D305F01000B0B305F4806050B908
:105B40004CB1544501D0BC4205D1641E1CB1B8F122
:105B5000100F00D1641EB8F1100F09D105F020001C
:105B600030B9202C04D278222046641C325415E02F
:105B7000B8F1100F09D105F0200030B1202C04D26B
:105B800058222046641C325408E0B8F1020F05D1B7
:105B9000202C03D262222046641C3254202C03D2D3
:105BA00030222046641C3254202C16D2B9F1000F4A
:105BB00004D02D222046641C32540EE005F004006F
:105BC00020B12B222046641C325406E005F0080068
:105BD00018B120222046641C3254CDE90275CDE96B
:105BE0000064584606A90EC900F0A2F809B0BDE845
:105BF000F08F2DE9FF4F8FB08046DDE91FABDDE967
:105C00001D96219D1C9C00270CB925F0100505F45C
:105C1000806000B1E4B100BFB4FBF6F106FB1141B6
:105C2000C8B20A2802DA00F1300107E005F02001CD
:105C300009B1412100E0612101440A39CBB2394662
:105C40007F1C07AA5354B4FBF6F40CB1202FE3D306
:105C500007A8CDE904AB8DE881020396069540467E
:105C600010A90EC9FFF738FF13B0BDE8F08F2DE97A
:105C7000FF4F8FB0DDE9217BDDF89080209EDDE9CC
:105C80001C454FF00009002184EA010069400843E7
:105C900001D128F0100808F4806028B1002184EABE
:105CA0000100694008432DD000BF32463B462046E4
:105CB0002946FAF76EFB02F0FF0ABAF10A0F02DA80
:105CC0000AF1300007E008F0200008B1412000E0B0
:105CD000612050440A38C2B2484609F1010907A9B7
:105CE0000A5432463B4620462946FAF752FB044600
:105CF0000D46002184EA01006940084302D0B9F151
:105D0000200FD2D32398CDE9036BCDE9050807A96D
:105D10001E98CDE9001902900FA80FC8FFF7DCFE0E
:105D200013B0BDE8F08F9A4200D288547047704794
:105D30002DE9FF5F05461446DDE90EA6DDE9108773
:105D4000A34607F0020078B907F0010060B9B14638
:105D500007E02246641C2020039B0199A84709F113
:105D60000109C145F5D300BF08E02246641C711E3D
:105D70000E461AF80100039B0199A847002EF4D1A2
:105D800007F0020050B105E02246641C2020039B6E
:105D90000199A847A4EB0B004045F5D3204604B079
:105DA000BDE8F09F00BF70472DE9FF4F8BB007465D
:105DB00000250C9800B9FA4FEAE20E9800782528E1
:105DC0000AD02A466D1C0E990878DDE90C13B847F5
:105DD0000E98401C0E90DBE20E98401C0E900024A2
:105DE00000BF0E9800782B2819D004DC20281ED084
:105DF00023282CD123E02D2809D0302827D144F0A6
:105E000001040E98401C0E9001200A9022E044F0FC
:105E100002040E98401C0E9001200A901AE044F0F3
:105E200004040E98401C0E9001200A9012E044F0E9
:105E300008040E98401C0E9001200A900AE044F0DD
:105E400010040E98401C0E9001200A9002E00020E1
:105E50000A9000BF00BF0A980028C2D180460E9960
:105E60000878FDF79AFC20B10EA8FDF781FC80466A
:105E700012E00E9800782A280ED1189901C91891BD
:105E8000002804DA44F00204C0F1000800E0804673
:105E90000E99491C0E9100BF4FF000090E98007832
:105EA0002E281FD144F480640E98401C0E900E9949
:105EB0000878FDF772FC20B10EA8FDF759FC814669
:105EC00010E00E9800782A280CD1189901C9189171
:105ED000002801DD014600E0002189460E99491C99
:105EE0000E9100BF0E9800786C280AD004DC682858
:105EF00016D06A2835D128E0742820D07A2830D1ED
:105F000029E044F480740E98401C0E900E9800789E
:105F10006C2804D144F400740E98401C0E9021E0CB
:105F200044F080040E98401C0E900E98007868286B
:105F300004D144F040040E98401C0E9012E044F44A
:105F400080740E98401C0E900CE044F400740E987F
:105F5000401C0E9006E044F480740E98401C0E9095
:105F600000E000BF00BF0E98007869281DD00EDC4D
:105F7000622821D006DC25287ED050281AD0582847
:105F80007BD115E0632879D06428F9D10CE073281F
:105F900075D004DC6F280ED07028F1D109E0752887
:105FA00004D07828ECD102E000BF00BF00BF00BFE2
:105FB00000BF00BF00BF00BF0E980078782803D054
:105FC0000E980078582801D1102623E00E9800780A
:105FD000702803D00E98007850280CD1102644F079
:105FE000100444F480740E984078562812D10E980C
:105FF000401C0E900EE00E9800786F2801D1082604
:1060000008E00E980078622801D1022602E00A26F4
:1060100024F010040E980078582803D00E980078C9
:10602000502801D144F020040E980078692805D04A
:106030000E980078642801D024F00C0404F48060E9
:1060400008B124F001040E980078692803D00E9856
:10605000007864287CD104F40070B8B31898C01D8F
:1060600020F007001890D0E900AB189A0832189277
:106070000020CDE9069803E073E17CE1F2E01CE149
:10608000CDE904600894BAEB00017BEB000001DA73
:10609000012000E00020002102900846B1EB0A0137
:1060A00070EB0B0002DA5046594605E0002001462D
:1060B000B0EB0A0061EB0B01CDE900012A4638463E
:1060C000DDE90C13FFF7D3FD0546C7E0FFE704F455
:1060D0008070D0B1189850F804AB18904FEADA707D
:1060E000CDE9039802960594BAF1000F01DD5146FF
:1060F00001E0CAF10001CDE900102A463846DDE989
:106100000C13FFF776FD0546A8E004F0400028B127
:10611000189810F8041B1890C8B20DE004F0800025
:1061200028B1189830F8041B189008B204E01898A9
:1061300000681899091D189182464FEADA70CDE976
:10614000039802960594BAF1000F02DD514602E071
:106150000BE0CAF10001CDE900102A463846DDE91E
:106160000C13FFF746FD054678E00E980078562898
:1061700018D1189850F804AB1890DAF804000068A9
:10618000099009980090DAF800300D98421B0C989D
:1061900041193846FFF708FE0544002009905DE0EC
:1061A0002F5D000804F40070D0B11898C01D20F0D5
:1061B0000700CDE90698089418900020CDE9046006
:1061C0000290189903C9189A08321892CDE9000173
:1061D0002A463846DDE90C13FFF749FD05463DE048
:1061E00004F4807098B10022CDE9039802960594DA
:1061F000189800681899091DCDE9000218912A46DF
:106200003846DDE90C13FFF7F4FC054626E004F000
:10621000400028B1189810F8041B1890C8B20DE07F
:1062200004F0800028B1189830F8041B189088B248
:1062300004E0189800681899091D189182460020FA
:10624000CDE900A0CDE90398029605942A46384688
:10625000DDE90C13FFF7CDFC054600BF0E98401C8E
:106260000E9093E0012604F0020050B905E02A46A2
:106270006D1C2020DDE90C13B8473046761C4045E4
:10628000F5D3189911F8043BD8B22A466D1C189121
:10629000DDE90C13B84704F0020050B105E02A46CE
:1062A0006D1C2020DDE90C13B8473046761C4045B4
:1062B000F5D30E98401C0E9068E0189850F804AB87
:1062C00018905046B9F1000F01D0494601E04FF057
:1062D000FF310A46014600E0491C0B781BB1131E32
:1062E000A2F10102F8D10E1A04F4806028B14E45E3
:1062F00001D2304600E04846064604F0020050B99C
:1063000005E02A466D1C2020DDE90C13B847304615
:10631000761C4045F5D306E01AF8010B2A466D1CA1
:10632000DDE90C13B8479AF8000040B104F480602E
:106330000028F1D0B9F10000A9F10109ECD104F075
:10634000020050B105E02A466D1C2020DDE90C1347
:10635000B8473046761C4045F5D30E98401C0E9049
:1063600014E02A466D1C2520DDE90C13B8470E9871
:10637000401C0E900AE02A466D1C0E990878DDE953
:106380000C13B8470E98401C0E9000BF00BF00BF12
:106390000E98007800287FF410AD0D98854201D248
:1063A000284601E00D98401E02460020DDE90C134E
:1063B000B84728460FB0BDE8F08F2DE9F0410446FC
:1063C0000E46002774B13146204600F0DBF8054642
:1063D000B5F5804F05D20C2D01D9284600E00C20E0
:1063E000074600BF3846BDE8F08100007CB5054691
:1063F0000C4600BF601E204000280CD008A018A149
:106400001E4B40F2ED12CDE900101DA10320FEF756
:1064100063FE00BFFEE700BF601E2840281A7CBD57
:1064200030203D3D2028616C69676E202620286160
:106430006C69676E202D2031292920262620226DA7
:1064400075737420616C69676E20746F20612070B1
:106450006F776572206F662074776F2200000000EE
:10646000417373657274656420617420657870721D
:10647000657373696F6E3A202573000058740408C1
:106480002E2E5C2E2E5C4D6964646C65776172659E
:10649000735C4C56474C5C4755495C6C76676C5C4A
:1064A0007372635C6D6973635C6C765F746C736646
:1064B0002E6300007CB505460C46601E2844611E14
:1064C00020EA010600BF601E204000280CD008A072
:1064D00017A11E4B40F2F512CDE900101CA10320BC
:1064E000FEF7FAFD00BFFEE700BF30467CBD0000AE
:1064F00030203D3D2028616C69676E202620286190
:106500006C69676E202D2031292920262620226DD6
:1065100075737420616C69676E20746F20612070E0
:106520006F776572206F662074776F22000000001D
:10653000417373657274656420617420657870724C
:10654000657373696F6E3A202573000063740408E5
:106550002E2E5C2E2E5C4D6964646C6577617265CD
:10656000735C4C56474C5C4755495C6C76676C5C79
:106570007372635C6D6973635C6C765F746C736675
:106580002E6300007CB505460C4600BF601E20400F
:1065900000280CD009A019A11F4B40F2E712CDE949
:1065A00000101EA10320FEF797FD00BFFEE700BF0D
:1065B000601E2844611E88437CBD000030203D3DA4
:1065C0002028616C69676E20262028616C69676EDF
:1065D000202D2031292920262620226D7573742034
:1065E000616C69676E20746F206120706F776572CF
:1065F000206F662074776F2200000000417373657E
:106600007274656420617420657870726573736953
:106610006F6E3A20257300004F7404082E2E5C2EF6
:106620002E5C4D6964646C6577617265735C4C5671
:10663000474C5C4755495C6C76676C5C7372635C75
:106640006D6973635C6C765F746C73662E630000B7
:106650002DE9FE4380460E46444601206086002513
:1066600000270DE056F8270031A1FAF7B5F910B16F
:10667000681C85B202E0608E401C6086781C87B280
:1066800056F8270020B156F8270000780028E9D1F5
:10669000208EA84201D1BDE8FE83A06A20B1A06A85
:1066A00022F07CF90020A062E06A20B1E06A22F0CA
:1066B00075F90020E062E80021F07CFFA06200BFD5
:1066C000A06A00280ED11BA01EA125A22C4BCDE94B
:1066D000002102904FF454722AA10320FEF7FCFC23
:1066E00000BFFEE700BF680021F064FFE06200BF6A
:1066F000E06A00280ED10FA031A119A2204BCDE9EC
:106700000021029040F252321EA10320FEF7E4FC69
:1067100000BFFEE700BFA06A08B1E06A00B900252B
:106720006900E06A22F005FC258600BFB3E700009F
:106730000A0000004F7574206F66206D656D6F72E2
:106740007900000062746E6D2D3E627574746F6E18
:106750005F617265617320213D204E554C4C0000F5
:10676000417373657274656420617420657870721A
:10677000657373696F6E3A2025732028257329008D
:10678000607604082E2E5C2E2E5C4D6964646C6568
:1067900077617265735C4C56474C5C4755495C6C3D
:1067A00076676C5C7372635C776964676574735C4D
:1067B0006C765F62746E6D61747269782E6300002E
:1067C00062746E6D2D3E6374726C5F6269747320C7
:1067D000213D204E554C4C002DE9FE4F81460E4682
:1067E000924699F8090000F00700022801D13046CE
:1067F00000E050468346564501DD304600E05046F5
:106800000746032000EB470020F0030000F11005CD
:106810003E4800683E490968A0EB0108002405EBEA
:1068200008003C490968884206D238480468606814
:1068300020F00040606044E036480068854221D87E
:1068400013E04FF0FF300290002202A9324810F00E
:106850002DFD002202A9314810F028FD2B480068C8
:106860002B490968A0EB010800BF08EB0500294986
:1068700009688842E5D825480468606820F000402F
:1068800060601EE0284621F095FE044600BF6CB90A
:1068900023A027A12AA2324BCDE900210290CA22CF
:1068A00030490320FEF718FC00BFFEE700BF14B913
:1068B0000020BDE8FE8F606820F0004000F100403D
:1068C000606032465946484602F0AEFA2060606881
:1068D00000F04040401C6060606820F080406060D4
:1068E000A781A4F80EB06068C00F20B1204600F167
:1068F0001001A16008E0054800681030A06003485E
:1069000000682844014908602046D2E7540100206D
:10691000A00200205001002031250108E174010887
:106920004F7574206F66206D656D6F727900000081
:106930006974656D20213D204E554C4C00000000CF
:106940004173736572746564206174206578707238
:10695000657373696F6E3A202573202825732900AB
:106960006A2F04086C7D0408F0B585B006460D4614
:106970003446002004900390029094F83C0000F00C
:10698000030020B1012838D0022866D000BF94F857
:106990003C0000F003005A49097888421BD02620A9
:1069A000005D00EB001000EB4000142190FBF1F0C3
:1069B000544908702720005D00EB001000EB4000F8
:1069C000142190FBF1F05049087094F83C0000F05D
:1069D00003004B49087002A803A9CDE9001005EB9C
:1069E00045014FF6FF7202EA410004AB46490A78BE
:1069F000444909780BF036FA5FE094F83C0000F067
:106A000003003F49097888421AD0A08C00EB40006F
:106A100040024FF4B471B0FBF1F03C4908802720EC
:106A2000005D00EB001000EB4000142190FBF1F042
:106A30003549087094F83C0000F0030030490870B4
:106A400002A803A9CDE90010E9B204AB2E480278F0
:106A50002E4800880BF006FA2FE094F83C0000F076
:106A600003002749097888421AD0A08C00EB400027
:106A700040024FF4B471B0FBF1F0244908802620A5
:106A8000005D00EB001000EB4000142190FBF1F0E2
:106A90001C49087094F83C0000F003001849087085
:106AA00002A803A9EAB204ABCDE9001015480178A9
:106AB000164800880BF0D6F900BF00BF9DF8100003
:106AC0009DF80C109DF80820D708BDF8003067F33A
:106AD00004038F080093BDF8003067F34A13C7081A
:106AE0000093BDF8003067F3CF230093BDF800702A
:106AF0003B460193BDF80410084605B0F0BD000008
:106B000006020020040200200502002002020020EC
:106B100010B50120074908700748FEF716FA20B99A
:106B2000064800682DF0A2FC03E0044800682DF040
:106B3000A9FC10BD88020020509B00208C02002080
:106B400010B5044694F83E00C0F3400050B9A08F41
:106B5000002807DDA08F4FF6FF71884202D0A08F7A
:106B6000401EA087A08FA8B9606B20B194F83E00AA
:106B7000C0F3400070B121461748FEF765FAFFF7F1
:106B8000C7FFE06810B12046E1688847204621F041
:106B900005FF1FE0A06B4042E062606BD0B194F84B
:106BA0003E10C1F3400111B9216B4942E16294F8F2
:106BB0003E104908C94394F83E2061F3410284F82D
:106BC0003E20E069616AE1616062A06A616BA16276
:106BD000606300BF10BD0000509B00202DE9F04114
:106BE0008046424800682DF001FA06464048007889
:106BF00080F001003E4908703E48FEF7A6F90446C1
:106C00006BE000203C49087094F83E00C0F380001F
:106C100037490978884253D0354801782C34A07C14
:106C200061F38200A07420688719A07C2C3CC0F31B
:106C3000C00010BBE06A00281FDC002F1DDB94F8A9
:106C40003E0000F0010060B9206950B12046216982
:106C500088470546E0692844E061606A284460622C
:106C600000BFA06810B12046A168884794F83E0094
:106C700020F00800083084F83E00E06A3044E0620A
:106C8000E06A00281BDBD4E90A10884201DDA06A13
:106C9000E0622046A16988470546206AA84206D0DE
:106CA0002562606818B12946D4E900029047D4E90A
:106CB0000A10884202DB2046FFF742FF00BF00BFF8
:106CC0000D48007820B10B48FEF73FF9044604E078
:106CD00021460848FEF751F90446002C91D12DF0C9
:106CE00092F902490860BDE8F081000084020020AA
:106CF00089020020509B002088020020F7B582B056
:106D000004460E4614B9049805B0F0BD00BF6322D6
:106D10003146204625F0E2FF0190019D00BFBDB144
:106D20002868A8B100BF64223146204625F0D6FF6E
:106D300001900198C0B207464FB13A462B682846E9
:106D4000049998470190BDF80400ADF8100000BF09
:106D50000498D9E770B504460D46606818B1294615
:106D60006068FFF7F7FF206818B1294620462268BF
:106D7000904770BD70B505460C46A1B2284614F088
:106D80000DFE70BD70B505460C46A1B2284614F044
:106D900056FE70BD70B505460C46A1B2284614F0EB
:106DA000FDFD70BD10B50EF083FA10BD70B505463F
:106DB0000C46164606E028466A1C95B200F008F814
:106DC00004F8010B301EA6F101018EB2F3D170BDA3
:106DD00070B5044600260EF02BFB2112A02202EB18
:106DE0004101C8B20EF0EEFA0EF068FB2546E1173D
:106DF00004EB11610912A4EB0121C8B20EF0E2FA12
:106E00000EF05CFB0EF014FBA1200EF0DBFA0EF08E
:106E100055FB00200EF0A8FA06460EF02FFB304678
:106E200070BD70B505460C46164606E0217828462A
:106E300000F009F8681C85B2641C301EA6F101013F
:106E40008EB2F3D170BD70B504460E460EF0F0FA66
:106E50002112A02202EB4101C8B20EF0B3FA0EF0EB
:106E60002DFB2546E11704EB11610912A4EB01216A
:106E7000C8B20EF0A7FA0EF021FB30460EF0A2FACF
:106E80000EF01CFB0EF0FAFA0A2002F0F7FB70BDC0
:106E900030B591B004460D4601A813F0A9FF214674
:106EA00001A814F06DF8002101A814F049F8294652
:106EB00001A814F01EF80448049000BF01A814F0C3
:106EC00073F811B030BD000009AB02087CB5044670
:106ED0000D4600BF204600F08CF800280CD00DA015
:106EE0001AA1214B40F2A622CDE900101FA10320D8
:106EF000FEF7F2F800BFFEE700BF284600F07AFB7D
:106F0000001D616808446060204600F081F820465A
:106F10007CBD000021626C6F636B5F69735F6C61A5
:106F20007374287072657629202626202270726577
:106F300076696F757320626C6F636B2063616E2777
:106F400074206265206C6173742200004173736564
:106F500072746564206174206578707265737369FA
:106F60006F6E3A2025730000B37404082E2E5C2E39
:106F70002E5C4D6964646C6577617265735C4C5618
:106F8000474C5C4755495C6C76676C5C7372635C1C
:106F90006D6973635C6C765F746C73662E6300005E
:106FA00070B505460C46284600F024FB04F110019C
:106FB000884201D3012070BD0020FCE70146A1F109
:106FC000080070477CB505460C46204600F012FBD1
:106FD00006466A4601A92EF015FF21462846DDE93E
:106FE00000320FF0D1FB7CBD0146087900F00100B2
:106FF000704710B50446204600F0FCFA08B901209D
:1070000010BD0020FCE70146087900F0020070473F
:1070100070B50446204600F0A3F905462C602846CA
:1070200070BD00007FB506460C460020039002901C
:1070300000256CB102AA03A920462EF000FF039898
:10704000082805DA02AA03A9304631F0AFFF054649
:10705000002D19D000BF284600F0CCFAA0420CD277
:107060000BA012A1184B40F20732CDE9001017A176
:107070000320FEF731F800BFFEE700BF2946304687
:10708000DDE9023231F084FB284604B070BD000017
:10709000626C6F636B5F73697A6528626C6F636B98
:1070A00029203E3D2073697A6500000041737365B5
:1070B0007274656420617420657870726573736999
:1070C0006F6E3A2025730000027504082E2E5C2E88
:1070D0002E5C4D6964646C6577617265735C4C56B7
:1070E000474C5C4755495C6C76676C5C7372635CBB
:1070F0006D6973635C6C765F746C73662E630000FD
:1071000070B504462046FFF783FF0546284600F089
:107110005CFA204600F054FA70BD70B50446204673
:1071200000F01EF90546284600F054FA204600F00B
:107130005CFA70BD7CB506460D46284600F010F995
:10714000044600BF002C0CD118A023A1294B40F20B
:10715000BF22CDE9001028A10320FDF7BDFF00BF2D
:10716000FEE700BF2046FFF73FFF00281CD000BF0E
:107170002846FFF73EFF00280CD02CA016A11D4B7F
:1071800040F2C222CDE900101BA10320FDF7A4FFAD
:1071900000BFFEE700BF2146304600F0FFF9214660
:1071A0002846FFF793FE054628467CBD6E65787439
:1071B00020262620226E65787420706879736963B2
:1071C000616C20626C6F636B2063616E2774206258
:1071D00065206E756C6C2200417373657274656412
:1071E0002061742065787072657373696F6E3A20E0
:1071F00025730000D17404082E2E5C2E2E5C4D6980
:1072000064646C6577617265735C4C56474C5C478F
:1072100055495C6C76676C5C7372635C6D69736313
:107220005C6C765F746C73662E63000021626C6F19
:10723000636B5F69735F6C61737428626C6F636BFF
:1072400029202626202270726576696F7573206268
:107250006C6F636B2063616E2774206265206C61C4
:10726000737422007CB506460D462846FFF7CBFE18
:10727000002831D0284600F031F9044600BF002C28
:107280000CD116A020A1274B40F2B222CDE900106C
:1072900025A10320FDF720FF00BFFEE700BF00BFD0
:1072A0002046FFF7A1FE60B92C4817A11D4B40F204
:1072B000B322CDE900101CA10320FDF70DFF00BF94
:1072C000FEE700BF2146304600F068F92946204617
:1072D000FFF7FCFD054600BF28467CBD7072657651
:1072E0002026262022707265762070687973696383
:1072F000616C20626C6F636B2063616E2774206227
:1073000065206E756C6C22004173736572746564E0
:107310002061742065787072657373696F6E3A20AE
:1073200025730000C07404082E2E5C2E2E5C4D695F
:1073300064646C6577617265735C4C56474C5C475E
:1073400055495C6C76676C5C7372635C6D697363E2
:107350005C6C765F746C73662E630000B485040801
:107360002DE9FC410446204600F044F9061F204662
:1073700000F0FAF9074631462FF0A0FE054600BF9F
:107380002046FFF736FE00280CD008A00DA1144BB4
:107390004FF4E572CDE9001012A10320FDF79CFE29
:1073A00000BFFEE700BF2846BDE8FC8121626C6F8C
:1073B000636B5F69735F6C61737428626C6F636B7E
:1073C0002900000041737365727465642061742044
:1073D00065787072657373696F6E3A20257300006B
:1073E000447404082E2E5C2E2E5C4D6964646C651A
:1073F00077617265735C4C56474C5C4755495C6CD1
:1074000076676C5C7372635C6D6973635C6C765FEA
:10741000746C73662E6300002DE9FC4106460C4631
:1074200015460027002C1CD000BF002D0CD10EA04B
:1074300015A11C4B40F21232CDE900101AA1032015
:10744000FDF74AFE00BFFEE700BF2A462146304650
:1074500000F08EF92046FFF760FE204600F084F928
:1074600007463846BDE8FC8173697A6520262620E8
:107470002273697A65206D757374206265206E6F62
:107480006E2D7A65726F2200417373657274656444
:107490002061742065787072657373696F6E3A202D
:1074A00025730000147504082E2E5C2E2E5C4D6989
:1074B00064646C6577617265735C4C56474C5C47DD
:1074C00055495C6C76676C5C7372635C6D69736361
:1074D0005C6C765F746C73662E6300001CB50446AA
:1074E00000BF2046FFF78FFD00280CD107A016A192
:1074F0001C4B40F2C112CDE900101BA10320FDF787
:10750000EBFD00BFFEE700BF20681CBD626C6F632F
:107510006B5F69735F707265765F6672656528621E
:107520006C6F636B29202626202270726576696F46
:10753000757320626C6F636B206D75737420626568
:10754000206672656522000041737365727465641C
:107550002061742065787072657373696F6E3A206C
:1075600025730000397404082E2E5C2E2E5C4D69A4
:1075700064646C6577617265735C4C56474C5C471C
:1075800055495C6C76676C5C7372635C6D697363A0
:107590005C6C765F746C73662E6300007CB5054688
:1075A0000C46204600F026F806466A4601A92EF051
:1075B00029FC21462846DDE9003231F0E9F87CBD9E
:1075C000416841F0010141607047416841F00201AA
:1075D00041607047416821F0020141607047426894
:1075E00002F003030B4343607047416821F001013F
:1075F000416070470146486820F003007047000072
:107600002DE9FC4706460C46304600F0ADF88046B2
:10761000211F2FF053FD07463046FFF7EBFF211DDA
:10762000451A00BF384600F09FF88146384600F002
:107630009BF880460421FEF73DFF81450CD023488E
:1076400023A12A4B40F29622CDE9001028A1032065
:10765000FDF742FD00BFFEE700BF00BF3046FFF769
:10766000C9FF2919091D88420CD02EA018A11F4B53
:1076700040F29922CDE900101DA10320FDF72CFD59
:1076800000BFFEE700BF29463846FFF7A8FF00BF4E
:107690003846FFF7AFFF0C280CD232480CA1134B31
:1076A00040F29B22CDE9001011A10320FDF714FD4B
:1076B00000BFFEE700BF21463046FFF790FF384687
:1076C000FFF71EFD3846BDE8FC8700004086040831
:1076D000417373657274656420617420657870729B
:1076E000657373696F6E3A2025730000A7740408F0
:1076F0002E2E5C2E2E5C4D6964646C65776172651C
:10770000735C4C56474C5C4755495C6C76676C5CC7
:107710007372635C6D6973635C6C765F746C7366C3
:107720002E630000626C6F636B5F73697A65286219
:107730006C6F636B29203D3D2072656D61696E5FE2
:1077400073697A65202B2073697A65202B20626C1F
:107750006F636B5F6865616465725F6F76657268A1
:107760006561640068850408014601F108007047FE
:107770002DE9FC4106460C46154600BF2046FFF7A2
:1077800033FC00280CD112A01DA1244B40F2CD22C5
:10779000CDE9001022A10320FDF79EFC00BFFEE70B
:1077A00000BF29462046FFF7FBFB78B1294620465B
:1077B000FFF726FF07462046FFF72AFC3846FFF76B
:1077C00004FF39463046FFF7FDFB00BFBDE8FC81F2
:1077D000626C6F636B5F69735F6672656528626C6C
:1077E0006F636B292026262022626C6F636B206DED
:1077F0007573742062652066726565220000000062
:107800004173736572746564206174206578707269
:10781000657373696F6E3A2025730000E274040883
:107820002E2E5C2E2E5C4D6964646C6577617265EA
:10783000735C4C56474C5C4755495C6C76676C5C96
:107840007372635C6D6973635C6C765F746C736692
:107850002E6300002DE9FC4106460C46154600BF8C
:107860002046FFF7C1FB00280CD013A01EA1254B1A
:1078700040F2D922CDE9001023A10320FDF72CFC12
:1078800000BFFEE700BF29462046FFF789FB88B10D
:1078900029462046FFF7B4FE07463846FFF79AFE12
:1078A00039463046FFF746FC074639463046FFF773
:1078B00089FB00BFBDE8FC8121626C6F636B5F696F
:1078C000735F6672656528626C6F636B292026267C
:1078D0002022626C6F636B206D757374206265206B
:1078E000757365642200000041737365727465648A
:1078F0002061742065787072657373696F6E3A20C9
:1079000025730000F27404082E2E5C2E2E5C4D6947
:1079100064646C6577617265735C4C56474C5C4778
:1079200055495C6C76676C5C7372635C6D697363FC
:107930005C6C765F746C73662E6300002DE9F8430F
:10794000064634461EF0B4FB804640461EF0F5FB6A
:1079500078BB30461BF092F838B330461AF0C3FEBD
:10796000208FE18E884212D0E08E2087E08E00903A
:107970006A461C2130461BF099FC0746012F02D0B5
:107980003846BDE8F883304625F0D5FF00BF4046B5
:107990001EF0E3FB0546042D06D1304623F020FE01
:1079A000074600211CF0C7FD09E030461BF0C8F86F
:1079B00005E0FFE7208FE086304625F0BCFF012080
:1079C000DFE72DE9F041044620461BF068FC054640
:1079D000284623F05FFE0646284615F009F90746BB
:1079E0000122394630462BF089FABDE8F081014684
:1079F000C1F3C01070470146C1F3801070470146C3
:107A0000C1F3C01070470146C1F300207047014622
:107A1000C1F3C00070470146C1F3401070470146F2
:107A2000C1F3402070470146C1F300307047014662
:107A3000C1F30010704700002DE9F04F89B00446F3
:107A40000D460021204623F094FC30B91C21284625
:107A500021F06FFA09B0BDE8F08F2946204600F00A
:107A60000BFB2946204600F07DF80021204624F03B
:107A7000DFFE08900021204625F060F807900021E5
:107A8000204624F095FC012800D100E0002081462A
:107A90000021204625F014FB07460021204624F053
:107AA00075FD064642F2D170874205D1608CC0F365
:107AB000802008B9012000E000208246204623F003
:107AC000F8FC069000BF4FF00008244802884146A9
:107AD000204625F003F903900398C0B200BF834607
:107AE000AA6829692868CDE90209CDE900125A4639
:107AF0005146089B06980CF027FF288342F2D1706C
:107B0000864205D1608CC0F3402008B9012000E016
:107B100000200590204623F0ADFC049000BF4FF0FC
:107B200000080F4802884146204625F0D7F8039008
:107B30000398C0B200BF83460023EA686968686999
:107B4000CDE90213CDE900025A46079BDDE90401A5
:107B50000CF0FAFE688300BF7CE700007A01002089
:107B60007E0100202DE9F34F87B00C4607980BF0FB
:107B700097FE8046079823F09CFC0690404601F053
:107B8000CEF920612169480020F0B8FD206021690C
:107B9000480020F0B3FDA060002548E0584802905E
:107BA00038F9150041F69A7188423FD100200190C2
:107BB00029E00199079823F0DCFB009051490098D7
:107BC00025F027FB00B11BE000980BF087FE8246F2
:107BD000BAF1010F00D013E000980BF06FFE83465E
:107BE000AB4500D00CE0009825F0ABFA0299884232
:107BF00001DA029802E0009825F0A3FA029000BF93
:107C00000198401C0190079823F0D1FB019988420C
:107C1000CFD80298002804DB0298A16821F815004B
:107C200003E00021A06820F8151000BF6D1C20693A
:107C3000A842B3D80026B14600251BE038F915004C
:107C400041F69B71884202DB411A0E4411E041F675
:107C50009A71884206D1A16831F8151049440FFA8B
:107C600081F906E0A16821F8150009EB00010FFA7F
:107C700081F96D1C2069A842E0D80021079824F002
:107C8000D7FD05902169491EDDE9050200FB1120A1
:107C900000B206900698A0EB090007B2002F00DAA8
:107CA00000274FF0FF30049000200390002513E0E0
:107CB00038F9150041F69B7188420CDB421A11B26B
:107CC00007FB01F2B2FBF6F212B2A36823F815200B
:107CD0000495039100BF6D1C2069A842E8D8049860
:107CE00000280ADB0398301A7843B0FBF6F0381A04
:107CF00001B2A268049822F8101009B0BDE8F08F14
:107D000001E0FFFF010006002DE9FC5F05460022AF
:107D10001146284626F0E4FE0021284624F0AFFB59
:107D200081460021284624F030FF484407B2002154
:107D3000284624F0E1FC48440FFA80FA284624F053
:107D40009DFA384450440FFA80FB3B4E284623F0FE
:107D50002EFB01904FF000085CE0A868006850F826
:107D600028403649204625F054FA00B150E020461C
:107D700025F05EFE002839D10021204624F0B0FA1B
:107D80000090009830B1012807D0022804D00328C1
:107D900015D100E000BF00BF00BFB4F91A10B5F95B
:107DA0001600081A401CB04201DA304605E0B4F96A
:107DB0001A10B5F91600081A401C06B214E000218A
:107DC000204625F0B1F970B904F1140013F011FF49
:107DD0003844B04201DA304604E004F1140013F0F4
:107DE00008FF384406B200BF00BF10E0B4F91A1013
:107DF000B5F91600081A401CB04201DA304605E019
:107E0000B4F91A10B5F91600081A401C06B200BFE2
:107E100008F10108019880459FD30748864209D0A0
:107E200006EB0A0006B25E4502DD3046BDE8FC9F67
:107E30005846FBE75846F9E701E0FFFF0100040060
:107E40002DE9FC5F054600221146284626F02CFE4F
:107E50000021284624F013FB82460021284624F006
:107E6000D1FD50440FFA80F80021284624F021FD6E
:107E700050440FFA80F9284624F010FA4844404450
:107E800000B20190724C284623F091FA83460021FB
:107E9000284624F066FA012866D100265BE0A8682F
:107EA000006850F826706B49384625F0B2F900B1E9
:107EB00050E0384625F0BCFD002839D10021384675
:107EC00024F00EFA0090009830B1032805D006285F
:107ED00004D0082815D102E000BF00BF00BFB5F9EB
:107EE0001800B7F91410401A401CA04201DA2046CD
:107EF00005E0B5F91800B7F91410401A401C04B297
:107F000014E00021384625F002F970B907F1140099
:107F100013F0E2FE4044A04201DA204604E007F1FB
:107F2000140013F0D9FE404404B200BF00BF10E0BB
:107F3000B5F91800B7F91410401A401CA04201DA34
:107F4000204605E0B5F91800B7F91410401A401C96
:107F500004B200BF761C5E45A1D33D48844269D07F
:107F600004EB090004B265E000265BE0A868006845
:107F700050F826703749384625F04BF900B150E0EB
:107F8000384625F055FD80BB0021384624F0A8F97D
:107F90000090009830B1012805D0042804D00728AB
:107FA00015D102E000BF00BF00BFB7F91800B5F956
:107FB0001410401A401CA04201DA204605E0B7F92F
:107FC0001800B5F91410401A401C04B215E0002145
:107FD000384625F0A9F878B907F1140013F07CFEB3
:107FE0004844A04202DA204605E008E007F1140008
:107FF00013F072FE484404B200BF00BF10E0B7F9AE
:108000001800B5F91410401A401CA04201DA2046AD
:1080100005E0B7F91800B5F91410401A401C04B275
:1080200000BF761C5E45A1D30948844202D004EB10
:10803000080004B20648844202D10198BDE8FC9FC2
:108040000198844201DD2046F8E70198F6E7000038
:1080500001E0FFFF0100040010B50446206820F095
:1080600053FC606820F050FCA06820F04DFCE068F4
:1080700020F04AFC10BD00002DE9F34F87B00C46FC
:1080800007980CF06FFA8046404600F048FF6061A8
:108090006169480020F032FB60606169480020F0AF
:1080A0002DFBE060002548E05948029038F91500A2
:1080B00041F69A7188423FD10020019029E0019950
:1080C000079823F056F900905249009825F0A1F83E
:1080D00000B11BE000980CF00DFB8246BAF1010FD5
:1080E00000D013E000980CF0F5FA8346AB4500D0C1
:1080F0000CE0009823F07EFA0299884201DA029897
:1081000002E0009823F076FA029000BF0198401C2C
:108110000190079823F04BF901998842CFD8029833
:10812000002804DB0298E16821F8150003E0002034
:10813000E16821F8150000BF6D1C6069A842B3D842
:108140000026B14600251BE038F9150041F69B7169
:10815000884202DB411A0E4411E041F69A718842CE
:1081600006D1E16831F8151049440FFA81F906E0AB
:10817000E16821F8150009EB00010FFA81F96D1C87
:108180006069A842E0D80021079824F0D7FC069047
:10819000079823F06FF901466269521E069800FBAA
:1081A000121000B205900598A0EB090007B2002F4D
:1081B00000DA00274FF0FF300490002003900025E4
:1081C00011E038F9150041F69B7188420ADB421A2A
:1081D00011B207FB01F2B2FBF6F212B2E36823F828
:1081E000152000BF6D1C6069A842EAD804980028D9
:1081F0000ADB0398301A7843B0FBF6F0381A01B264
:10820000E268049822F8101009B0BDE8F08F000071
:1082100001E0FFFF010006007CB504460D4616464E
:1082200000BF00BF28882189084400B2ADF80000D3
:1082300068886189084400B2ADF80200A8882189E5
:10824000084400B2ADF80400E8886189084400B22F
:10825000ADF80600324669462046636998477CBD02
:10826000F8B505460E462C46206B10B1206B007801
:1082700018B9606B08B90120F8BD606B58B1284689
:108280002BF049FB0746104909688847616B884213
:1082900001D30020F0E7206B98B1002000900AE0A5
:1082A00069460A4A206B126890470746B74201D1D7
:1082B0000120E1E700BF206B0099405C0028EFD16E
:1082C000DAE70120D8E70000FC020020EC020020E1
:1082D0002DE9FF4F8FB00F46209DF87800F0010088
:1082E00008B1FA4800E0FA480E90F87800F0010072
:1082F00008B1F84800E0F8480D90F87800F0010067
:1083000008B9F44800E0F4480C9001200B90B5E067
:1083100000220B9200206A88B5F804C0A2EB0C0280
:1083200011B200261AE006EB860CEA6802EB8C021A
:10833000127C02F0010242B906EB860CEA6802EBFD
:108340008C029289024410B207E006EB860CEA68C0
:1083500002EB8C0212898A1A11B2761C2A69B24287
:10836000E1D8002685E006EB860CEA6802EB8C0279
:10837000127C02F00102002A7AD191FBF0F80FFA88
:1083800088F306EB8609D5F80C8008EB8908B8F865
:108390000C8008FB03F80FFA88F206EB8609D5F883
:1083A0000C8008EB8908B8F9049006EB860AD5F82A
:1083B0000C8008EB8A08B8F90680904501DD9046EC
:1083C00007E006EB860AD5F80C8008EB8A08B8F9B6
:1083D0000680C14508DD06EB8609D5F80C8008EB60
:1083E0008908B8F9048013E006EB8609D5F80C80FB
:1083F00008EB8908B8F90680904501DD904607E052
:1084000006EB8609D5F80C8008EB8908B8F90680D8
:10841000C44694450BD04FF0010806EB860AD5F808
:108420000C9009EB8A09C9F81080CDF82C8006EB76
:108430008609D5F80C8008EB8908A8F808C006EB77
:108440008609D5F80C8008EB8908B8F80C80A0EBF9
:1084500008080FFA88F006EB8609D5F80C8008EBBF
:108460008908B8F80880A1EB08080FFA88F100BF66
:10847000761C2A69B2423FF676AF00BF0B980028FF
:108480007FF446AF00210F9823F085FF012800D12B
:1084900000E000200A9000200990089008A809A98F
:1084A000CDE9001029890BB2B5F9022038781E9960
:1084B0002EF007FEF87800F0010048B10A9838B1B4
:1084C0000F9822F0F6FFBDF82410084400B209907E
:1084D00011990F9822F04DFF04468AE17F4920460A
:1084E00024F097FE40B1F878C0F3800111AA0F98EC
:1084F0000BF073FE04467CE10021204624F01CF8BA
:1085000007900798002858D000200390002610E01C
:1085100006EB8601E86850F82100A04208D106EB7E
:108520008600E96801EB8000B0F90800039003E0E1
:10853000761C2869B042EBD800BFF87800F0010043
:1085400030B1608C20F4806000F58060608405E0CC
:10855000608C20F4007000F50070608404F1140059
:108560000D9988470399884226D0204625F0E3F9E3
:1085700000BFA08AADF80400E08AADF80600208BA9
:10858000ADF80800608BADF80A0000BF04F11400DC
:108590000E9A0399904701AA292120461AF086FED7
:1085A000204623F077F82246222100901AF07EFE22
:1085B000204625F0C0F900BF07E0608C20F4806001
:1085C0006084608C20F400706084002006907878CD
:1085D000012812D0022819D104F114000C998847FF
:1085E000B5F90010491C21F00101081A039000EBB5
:1085F000D070401000B2069009E004F114000C990C
:1086000088472988081A00B2069000E000BF00BF22
:10861000F87800F0010050B10A9840B104F114005C
:108620000D998847BDF82410081A00B2099000205F
:10863000039043F20C022046039924F04FFB029072
:1086400002980FFA80F800BF0020039043F20D0259
:108650002046039924F042FB029002980FFA80F919
:1086600000BF204624F06DFD0590204622F0C2FF99
:10867000049008F4C040B0F5005F01D1012000E093
:10868000002030B128F4C040B0F5FA6F01DC0120C1
:1086900000E0002090B128F4C040B0F57A7F04DDFE
:1086A00028F4C040C0F57A7001E028F4C040059974
:1086B0004843642190FBF1F00FFA80F809F4C040C0
:1086C000B0F5005F0CD101200BE0000017BE0108DF
:1086D0000BBE010857BD010847BC01080100060098
:1086E000002030B129F4C040B0F5FA6F01DC012060
:1086F00000E0002090B129F4C040B0F57A7F04DD9D
:1087000029F4C040C0F57A7001E029F4C040049912
:108710004843642190FBF1F00FFA80F9A18A1C987C
:10872000401A40440FFA80FAE18A1D98401A4844E2
:108730000FFA80FBF87800F0010010B1BDF92400B9
:1087400000E0069850440FFA80FAF87800F0010033
:1087500008B1069801E0BDF9240058440FFA80FBE7
:10876000BAF1000F02D1BBF1000F1BD0204625F05B
:10877000E2F8A08A504400B2A082208B504401B29B
:108780002183E08A584401B2E182608B584401B2EF
:108790006183204625F0CFF801235A4651462046F2
:1087A00025F0A6F9F87800F0010008B10A9870B930
:1087B00004F114000D9988471F990844BDF8201052
:1087C0000844BDF82410084400B2099008E0BDF840
:1087D00020101F980844BDF82410081A00B2099010
:1087E000F878C0F3800111AA0F980BF0F6FC04464C
:1087F00000BF24B1DDE9111081427FF46FAE13B0E8
:10880000BDE8F08F2DE9F04F8FB005468946B9F1EC
:10881000000F02D10FB0BDE8F08FA5F818902868BE
:1088200010B1286820F0BAF809EB4901062202EBE2
:1088300041001FF0BFFE286000BF286800280ED14D
:10884000CEA0D2A1D5A2DD4BCDE9002102904FF4FC
:10885000AC62DBA10320FCF73FFC00BFFEE700BFDA
:10886000286868600221286801FB0900801CE86014
:108870000421286801FB0900001DA860B9F1010F5F
:108880000CD1B420696808700020E96808800120D4
:10889000E96848800020A9680880BBE709F1010168
:1088A000C8001FF02BFF074609F1010007EB800805
:1088B0004FF0000A4FEA890002B20DA90EA800F09D
:1088C000A6F90024BDF93800801009900020059019
:1088D000CCE0002616E00DA90EA800F0A0F90EA825
:1088E00000F08AF900B90FE0BDF93800801009A93D
:1088F00041F82600BDF8380000F0030005A941F852
:108900002600761C042EE6DB00BF042E00D0B3E068
:108910000C990998884219D1099800B227F81400D7
:108920000FFA8AF028F81400DDE9050108440799D8
:10893000084408990844696808556868005D00079C
:10894000000E69680855601C04B28DE0DDE909017C
:1089500088422CD0099800B227F814000FFA8AF048
:1089600028F814000598696808556868005D0007D4
:10897000000E69680855601C04B20998401E00B2D8
:1089800027F814000FFA8AF028F814000698001D42
:108990000799084408990844696808556868005DA3
:1089A0000007000E69680855601C04B25CE00B9972
:1089B000099888422CD0099800B227F814000FFAC1
:1089C0008AF028F81400DDE90501084469680855B3
:1089D0006868005D0007000E69680855601C04B2F5
:1089E0000998401E00B227F814000FFA8AF028F800
:1089F00014000798083008990844696808556868A1
:108A0000005D0007000E69680855601C04B22BE089
:108A1000099800B227F814000FFA8AF028F8140019
:108A2000DDE9050108440799084469680855686844
:108A3000005D0007000E69680855601C04B20998C3
:108A4000401E00B227F814000FFA8AF028F814002C
:108A500008980C30696808556868005D0007000ECA
:108A600069680855601C04B20AF1010A0EA800F0FA
:108A7000C3F800287FF42DAF00BF40F2D32109FBDB
:108A800001F00490049880120390601E37F91010D2
:108A90000398814205D1601E38F910100398814275
:108AA00026D0DDE90321A1EB8220B0F5007F04DCB4
:108AB00000FB00F14800001407E0C0F5806000FBF7
:108AC00000F148000014C0F10F00039909B227F823
:108AD0001410039909B228F814106A6810556968CF
:108AE000095D0907090E6A681155611C0CB200BFC7
:108AF000A61E0EE038F8160027F8140037F8160006
:108B000028F814006868805D69680855761E601C46
:108B100004B2002EEEDA4FF0000B00260020E968C8
:108B2000088023E0E96821F81B6037F81600A9687F
:108B300021F81B0010E0A86830F81B0037F9161068
:108B4000884203DAA86830F81B0001E037F9160004
:108B5000A96821F81B00761C38F91600584501D188
:108B6000A642E8DB0BF101000FFA80FBA642D9DB3D
:108B700038461FF0C9FE00BF4CE600004F75742058
:108B80006F66206D656D6F7279000000632D3E6227
:108B9000756620213D204E554C4C00004173736595
:108BA000727465642061742065787072657373698E
:108BB0006F6E3A202573202825732900572E04084C
:108BC0002E2E5C2E2E5C4D6964646C657761726537
:108BD000735C4C56474C5C4755495C6C76676C5CE3
:108BE0007372635C647261775C6C765F64726177E8
:108BF0005F6D61736B2E63000146B1F90200B1F93C
:108C00000020904201DC012070470020FCE7028038
:108C100000234380C2F101031BB20B807047B1F9FE
:108C20000020002A07DC0B8842885200D21C1A441C
:108C300012B20A800CE042880388D21A5200521DF8
:108C40000B881A4412B20A800288521E12B20280A5
:108C50004288521C12B24280704737B582B0154626
:108C6000022D04DCBDF80C10084605B030BDBDF87F
:108C70000C00C00ABDF8081000EBD1241F2C01D253
:108C8000204600E01F20BDF8081060F3CF210291BC
:108C9000BDF80C00C0F34510BDF80810C1F3451134
:108CA00044183F2C01D2204600E03F20BDF80810B8
:108CB00060F34A110291BDF80C0000F01F00BDF8EE
:108CC000081001F01F0144181F2C01D2204600E0BB
:108CD0001F20BDF8081060F304010291FF2D03D19D
:108CE000BDF808100846C0E72A46DDE9020115F084
:108CF0008BFB0190BDF804100846B6E717B581B0AC
:108D00001446022C04DCBDF80810084604B010BD5F
:108D1000BDF80400C00ABDF80810C90A484341095B
:108D2000BDF8040061F3CF200190BDF8040000F00D
:108D30001F00BDF8081001F01F0148434109BDF8AC
:108D4000040061F304000190BDF80400C0F3451075
:108D5000BDF80810C1F3451148438109BDF804006E
:108D600061F34A100190FF2C03D1BDF804100846AE
:108D7000CCE72246DDE9010115F046FB0090BDF885
:108D800000100846C2E737B582B01546022D04DC54
:108D9000BDF80C10084605B030BDBDF80C00C00A87
:108DA000BDF80810A0EBD124002C01DD204600E026
:108DB0000020BDF8081060F3CF210291BDF80C002F
:108DC000C0F34510BDF80810C1F34511441A002C3A
:108DD00001DD204600E00020BDF8081060F34A11D4
:108DE0000291BDF80C0000F01F00BDF8081001F062
:108DF0001F01441A002C01DD204600E00020BDF8D0
:108E0000081060F304010291FF2D03D1BDF8081092
:108E10000846C0E72A46DDE9020115F0F5FA01909F
:108E2000BDF804100846B6E708B50346009300985D
:108E3000484080EA620008BD2DE9F84F8046404670
:108E40001AF02DFA824640461AF058F90646504666
:108E500022F020FC81462B2E09D148462AF041F809
:108E600004460022214648462AF048F83AE00A2EF5
:108E700038D16946504622F08FFC504622F019FB4B
:108E800004460021484623F0A0FA01280AD12046D2
:108E900004EBD071BDF90020C2EB610191FBF4F14C
:108EA0000DB209E0204604EBD071BDF9002002EBC1
:108EB000610191FBF4F10DB2002D00DA00250027CD
:108EC00048462AF00EF8A84200D001270122294680
:108ED00048462AF013F827B100221C2148461AF010
:108EE000E5F900BFBDE8F88F10B58060C0600023D1
:108EF0000361002110E0002400F1140343F8214035
:108F0000002206E000F1340303EBC11343F8220012
:108F1000521C202AF6DB491C0829ECDB10BD014657
:108F2000002000E0401C31F9102041F6FF739A4206
:108F3000F8D1704710B500BF00224FF400711148FE
:108F4000F9F718FB00BF00F021F800BF0122022151
:108F50000D48F9F70FFB00BF00F018F800BF002222
:108F600002210948F9F706FB00BF00F00FF800BF27
:108F7000012251020348F9F7FDFA00BF00F006F89C
:108F800010BD0000001C0140000C014010B5022083
:108F900000F080FB10BD000000B585B000BF00BF31
:108FA0001948806940F008001749886108468069BF
:108FB00000F00800009000BF00BF00BF00BF00BF6E
:108FC0000846806940F0800088610846806900F0AA
:108FD0008000009000BF00BF00BF02200190112060
:108FE0000290012003900320049001A90748F9F79B
:108FF0000FF94FF40070019001A90548F9F708F93D
:1090000000F0BEF805B000BD00100240000C0140A9
:10901000001C014010B500BF012251020C48F9F7B5
:10902000A9FA00BFFFF7B2FF00BF012202210948E1
:10903000F9F7A0FA00BFFFF7A9FF00BF0022022145
:109040000448F9F797FA00BFFFF7A0FF10BD000032
:10905000001C0140000C014070B5054600240026AC
:109060001DE06006040E00BF012202211148F9F73D
:1090700081FA00BFFFF78AFF4FF400710E48F9F73D
:1090800067FA08B1601CC4B200BF0022022109487F
:10909000F9F770FA00BFFFF779FF701CC6B2082E0F
:1090A000DFDB15B9FFF7B6FF01E0FFF743FF20460E
:1090B00070BD0000000C0140001C014070B504466A
:1090C000002525E000BFE00928B101225102154822
:1090D000F9F750FA05E000224FF400711148F9F752
:1090E00049FA00BFFFF752FF00BF012202210E48DC
:1090F000F9F740FA00BFFFF749FF00BF0022022145
:109100000948F9F737FA00BF6006040E681CC5B2BB
:10911000082DD7DB00BF012251020248F9F72AFAD5
:1091200000BF70BD001C0140000C014010B500BF25
:10913000012251021048F9F71DFA00BF00BF0122B9
:1091400002210E48F9F716FA00BFFFF71FFF00BF14
:1091500000224FF400710848F9F70CFA00BFFFF73E
:1091600015FF00BF002202210448F9F703FA00BFEF
:10917000FFF70CFF10BD0000001C0140000C014077
:1091800010B500BF00224FF400710C48F9F7F2F956
:1091900000BFFFF7FBFE00BF012202210848F9F7DC
:1091A000E9F900BFFFF7F2FE00BF012251020348B8
:1091B000F9F7E0F900BFFFF7E9FE10BD001C014020
:1091C000000C014070B50024002500BF01225102AF
:1091D0001648F9F7CFF900BFFFF7D8FE00BF01220C
:1091E00002211348F9F7C6F900BFFFF7CFFE09E0E7
:1091F000601CC4B2FA2C03DDFFF7C2FF012508E0B2
:10920000FFF7C4FE4FF400710848F9F7A1F90028F0
:10921000EED100BF00BF002202210548F9F7AAF9EC
:1092200000BFFFF7B3FE284670BD0000001C0140E0
:10923000000C01407CB506460D4634465020005DCA
:1092400000F00100A84233D00DB1012000E0002061
:109250005021095D60F300015020015504F14401E3
:10926000684612F0B6FCBDF80000616A898A0844BD
:1092700000B2ADF80000BDF80210606AC08A084470
:1092800000B2ADF80200BDF80400616A898A0844A2
:1092900000B2ADF80400BDF80610606AC08A084448
:1092A00000B2ADF806006946304624F07EFB00BFF0
:1092B0007CBD37B582B0054614462146039814F0AC
:1092C0000DFF0190BDF80410084605B030BD000048
:1092D0002DE9FF4F8DB005460E461446F07A022860
:1092E00003DC012011B0BDE8F08F308932690146FE
:1092F0000C901098FBF77EFA07460FB90020F1E7B3
:10930000397D01F01F001BF0F2FA10B14FF0060892
:109310000AE0397D01F01F001BF0CCFA10B14FF0CC
:10932000050801E04FF00408386A68B17CA0814B61
:10933000F62281A100900220FBF7CEFE21462846AE
:109340003A6A30F096F8E5E0B869002859D021462D
:109350000BA812F0FFFB308818B97088B0F5807F39
:1093600032D0204612F0C6FC834600BFE0886188F8
:10937000401A401C00B20890301D7188CDE90010E1
:10938000308803B259460BA8089AFAF75DFDBDF87C
:109390002C002188084400B2ADF82C00BDF82E0046
:1093A0006188084400B2ADF82E00BDF83000218875
:1093B000084400B2ADF83000BDF8320061880844BE
:1093C00000B2ADF8320000BF0BAA09A8A968FAF7ED
:1093D0000FFA8146B9F1000F04D1384601F045FD7E
:1093E00001207FE7D5F808A009A8A860CDF8008083
:1093F000224631462846BB6916F0AAFAC5F808A0ED
:1094000088E022460BA8A968FAF7F2F90A900A98B0
:1094100020B9384601F029FD012063E70BA812F0BE
:1094200069FC09900BA812F065FC00EB400003906A
:109430001FF064F98146D5F808A00BA907A812F01F
:1094400089FB012107A812F0E0FCBDF92C00B4F95A
:109450000010401A0690BDF92E00B4F90210A0EBDE
:10946000010BBDF92E00059049E007AA514602A85C
:10947000FAF7BEF90A900A9800B93DE0CDF80090DD
:10948000099803B20FFA8BF2069801B238461CF025
:10949000F1F904900498012815D038461CF05AF8C8
:1094A00033A0244B40F2391223A100900220FBF795
:1094B00013FE48461FF028FA384601F0D6FCC5F8DE
:1094C00008A000200EE702A8A8604B4607AA314674
:1094D0002846CDF8008016F03BFABDF81E00401C6F
:1094E00000B2ADF81E00BDF82200401C00B2ADF87D
:1094F00022000BF1010B00BF0598401C0590BDF93F
:10950000321005988142B0DAC5F808A048461FF02D
:10951000FBF900BF384601F0A8FC0120E2E600009C
:10952000496D6167652064726177206572726F7240
:1095300000000000F72D04082E2E5C2E2E5C4D69D5
:1095400064646C6577617265735C4C56474C5C472C
:1095500055495C6C76676C5C7372635C64726177AE
:109560005C6C765F647261775F696D672E63000083
:10957000496D61676520647261772063616E27744D
:10958000207265616420746865206C696E650000F6
:109590002DE9F04186B004460D4616469846204611
:1095A000FDF70CFD07460EB108A000E009A002A9D6
:1095B000A1C1019409A00F4B40F27B320EA1009093
:1095C0000320FBF789FD06B0BDE8F0817573656483
:1095D000000000006672656500000000092570202B
:1095E00025732073697A653A20257820282570290B
:1095F0000A000000467504082E2E5C2E2E5C4D6974
:1096000064646C6577617265735C4C56474C5C476B
:1096100055495C6C76676C5C7372635C6D697363EF
:109620005C6C765F746C73662E63000070B50446E4
:1096300000204FF0E0210861F9F736FCE11704EB58
:109640005171C1F3CF010C4A1180E11704EB517144
:10965000CD104FF47A7045434FF0E020006940F0A0
:1096600002004FF0E021086108464561006940F0C2
:109670000100086170BD00001000002030B50446F4
:10968000002504E04FF47A7000F004F86D1CA54248
:10969000F8D330BD70B5034600224FF0E02675695F
:1096A0000D4E368803FB06F44FF0E026B16910E05A
:1096B0004FF0E026B06988420BD0884202D20E1AE1
:1096C000324402E02E1A0E4432440146A24200D334
:1096D00000E0EDE700BF70BD10000020F8B50646C1
:1096E0000C4615460095B4F90630B4F90420B4F9D7
:1096F0000210B4F900000EF070F8304615F0AEFC20
:10970000F8BD10B510F0BAFA01200DF079FF10BDC8
:10971000F8B505462C461CF0CBFC0646206B2AF01B
:1097200065FC3168898B88422CD2606A009094F87D
:109730003C0000F0030020B1012806D002280CD123
:1097400007E00020ADF8000007E064208DF802007B
:1097500003E064208DF8030000BF00BF30461CF01A
:109760006FFE2846009915F066FA50B100221C21C0
:10977000284619F09BFD0746012F01D03846F8BD59
:1097800000BF00BF2AF03FFC20630120F7E7000084
:109790002DE9F04F9BB0074689461646BA4617A8F2
:1097A00015F013FE4FF4A021384622F0B1FD9DF8CC
:1097B000691060F382018DF86910304612F0D2FA18
:1097C000054600EBD5704FEA60083088404400B28F
:1097D000ADF858007088404400B2ADF85A0000213E
:1097E000384622F048FF1590494603A821F076FB41
:1097F00017A80B904FF400301090334804900020CD
:1098000005900AF13000FBF7C5FB044657E02079CC
:10981000032800D04DE0208BADF85C00208A00B218
:10982000ADF85E006079FD2801DD159803E06079F0
:109830001599484300128DF868002568B5F9200095
:10984000E98B08440090B5F92030D5E90512A068ED
:109850001EF09CFE8346B5F92000E98B0844009079
:10986000B5F92030D5E90512E0681EF08FFE0290B0
:10987000608B404400B2ADF84800149416A80C90D8
:1098800003AA1A21384619F011FD029880B21FFA76
:109890008BF1CDE90010BDF8480083B216AA17A9D4
:1098A000484615F074FD03AA1B21384619F0FEFC4A
:1098B00000BF21460AF13000FBF766FB0446002C8E
:1098C000A5D11BB0BDE8F08F1039040870B504466F
:1098D0000D4600222946204607F060FF0122294656
:1098E000204607F05BFF02222946204607F074FD60
:1098F00004222946204607F06FFD70BD2DE9F74F81
:109900009EB00C46E078022802DC21B0BDE8F08F62
:109910001CA8209912F030F9B4F9200001282EDD9E
:1099200094F82200FD282ADB208840B3BDF870009F
:1099300014F8231F4908C1F38001084400B2ADF8B0
:109940007000BDF8720021784908C1F34001084455
:1099500000B2ADF87200BDF8740021784908C1F377
:10996000C001401A00B2ADF87400BDF8760014F8DA
:109970002319C1F34001401A00B2ADF876001E98D9
:109980001CA982681AA8F9F733FF00B9BDE7E07B8C
:1099900000F0070616B9A088199001E0E088199038
:1099A000BDF864106089814200D100261CA817F020
:1099B0002BF818901C2111A8F6F7E6FFA0788DF877
:1099C0005D00BDF86400ADF84C00189860B92088BF
:1099D00050B94EB91CA81190E0788DF85C0011A91F
:1099E0001E9817F00BFF90E7E078FD2801DBFF20C1
:1099F00000E0E07810901CA812F0A6F90F901CA8C7
:109A000012F01AF90E90DDE90E01814201DA0F9889
:109A100000E00E980D90B4F900100D98B1EB600FB6
:109A200002DAB4F9000001E00D98401007461AA8C8
:109A300012F08AF981464FF0FF300C9000200B9015
:109A4000002F01DC189870B148461EF057FE0B90AD
:109A500000233AB21CA905A817F04EFB002105A867
:109A600016F010FC0C90BDF86800ADF80C00BDF8C5
:109A70006C00ADF810000B98149003A8119016908C
:109A8000FF208DF85C00A01DDDE90E211AF068FAB8
:109A90008046B8F1000F0CD0022E0AD1BDF9681033
:109AA000D8F8080000EB4100BDF97010A0EB4100B0
:109AB00012901898A0B3BDF96A502CE028B2ADF806
:109AC0000E0028B2ADF812004A4610990B981FF00C
:109AD000F6F9BDF968100FFA89F32AB20B9816F05F
:109AE00043FF8DF854009DF85400012802D1022054
:109AF0008DF85400012E09D1BDF97210691AD8F8F9
:109B0000080000EB41000088ADF84C0011A91E9838
:109B100017F074FE6D1CBDF96E00A842CEDACCE0E1
:109B2000FFE700255CE0BDF8720028440FFA80FAD8
:109B3000BDF87600401B0FFA80FBBDF96A00504566
:109B400004DDBDF96E00584500DA48E04A46109938
:109B50000B981FF0B4F9BDF90C100FFA89F35246B7
:109B60000B9816F001FF8DF854009DF85400012861
:109B700002D102208DF85400BDF96A00504514DC72
:109B8000ADF80EA0ADF812A0012E0AD1BDF97210E9
:109B9000AAEB0101D8F8080000EB41000088ADF8FD
:109BA0004C0011A91E9817F029FEBDF96E0058450A
:109BB00014DBADF80EB0ADF812B0012E0AD1BDF92C
:109BC0007210ABEB0101D8F8080000EB41000088EF
:109BD000ADF84C0011A91E9817F010FE00BF6D1CC7
:109BE000BD42A0DBBDF87000ADF80400BDF8740004
:109BF000ADF80800BDF87200384400B2ADF80600B8
:109C0000BDF87600C01B00B2ADF80A0001A816F03E
:109C1000FBFE00900098B0B9AEB9BDF872003844B0
:109C200000B2ADF80E00BDF87600C01B00B2ADF872
:109C3000120010988DF85C000020149011A91E9855
:109C400017F0DCFD38E010988DF85C0001208DF8ED
:109C50005400BDF97600A0EB070ABDF97200C519E2
:109C600027E0009870B14A4610990B981FF027F929
:109C7000BDF968100FFA89F32AB20B9816F074FE3A
:109C80008DF8540028B2ADF80E0028B2ADF81200DD
:109C9000012E09D1BDF97210691AD8F8080000EB3D
:109CA00041000088ADF84C0011A91E9817F0A6FDE0
:109CB0006D1C5545D5DD00BF00BF0B9810B10B984A
:109CC0001EF022FE0C98401C28B10C9817F046FBA1
:109CD00005A816F075FEB8F1000F02D040461AF044
:109CE00035F900BF11E600002DE9F0478EB00746B8
:109CF0000C461546206910B90EB0BDE8F087A07E6D
:109D0000022800DCF8E720691CF0E4F80646022E81
:109D100055D1002041F6FF71CDE9000102900346C4
:109D20000DA8D4E904122BF0E3F9284612F00CF840
:109D3000814600EBD970298801EB6000BDF93480C1
:109D400008EBD871A0EB610000B2ADF82C00BDF8B3
:109D50002C00BDF834100844401E00B2ADF83000AD
:109D6000284611F069FF814600EBD970698801EB44
:109D70006000BDF9368008EBD871A0EB610000B23D
:109D8000ADF82E00BDF82E00BDF836100844401E78
:109D900000B2ADF8320003A816F0FCF96069039038
:109DA000208BADF81800A07E8DF8260000200090D2
:109DB0000BAA03A93846236915F0FEFDB5E00DA9ED
:109DC00020691BF03DFC8046B8F1010F09D058A076
:109DD000604B40F2651260A100900220FBF77CF915
:109DE0008AE707A815F0CBFDA0788DF82800208B16
:109DF000ADF82400E07E8DF82600A07E8DF82700C7
:109E0000207FE8BB284611F09FFF824600EBDA7006
:109E1000298801EB60000D99C1F38A2909EBD971FA
:109E2000A0EB610000B2ADF81400284611F004FF69
:109E3000824600EBDA70698801EB60000D994FEA09
:109E4000515909EBD971A0EB610000B2ADF81600D1
:109E5000BDF814000D99C1F38A210844401E00B2D8
:109E6000ADF81800BDF816000D9900EB5150401EDA
:109E700000B2ADF81A0005AA07A93846236900E028
:109E800002E015F0EDFC4FE06888ADF81600BDF873
:109E900016000D9900EB5150401E00B2ADF81A00AB
:109EA0003BE02888ADF81400BDF814000D99C1F30B
:109EB0008A210844401E00B2ADF8180017E005AA38
:109EC00007A93846236915F0CBFCBDF814000D999D
:109ED000C1F38A21084400B2ADF81400BDF818009F
:109EE0000D99C1F38A21084400B2ADF81800BDF9FC
:109EF0001400B5F904108842E1DDBDF816000D9993
:109F000000EB515000B2ADF81600BDF81A000D99E3
:109F100000EB515000B2ADF81A00BDF91600B5F9CA
:109F200006108842BDDD00BF00BF00BFE4E60000B0
:109F3000436F756C646E2774207265616420746869
:109F400065206261636B67726F756E6420696D6115
:109F500067650000103104082E2E5C2E2E5C4D69C2
:109F600064646C6577617265735C4C56474C5C4702
:109F700055495C6C76676C5C7372635C6472617784
:109F80005C73775C6C765F647261775F73775F7226
:109F90006563742E630000002DE9F04F87B083469F
:109FA0000C46164694F82200022802DC07B0BDE8F1
:109FB000F08F208C00B9F9E794F82300C0F3440037
:109FC00000B9F3E794F8230000F0010000B1EDE7D9
:109FD000304611F0B9FE8146304611F02DFE07469D
:109FE000B4F90050B94501DA484600E038468246E7
:109FF000B5EB6A0F01DD4FEA6A05314605A811F09D
:10A00000BBFDBDF9141094F82300400800F00400D3
:10A0100010B1B4F9200003E0B4F920002844404214
:10A02000084400B2ADF81400BDF9181094F82300EC
:10A03000400800F0080010B1B4F9200003E0B4F9C2
:10A04000200028444042081A00B2ADF81800BDF9BB
:10A05000161094F82300400800F0020010B1B4F983
:10A06000200003E0B4F9200028444042084400B234
:10A07000ADF81600BDF91A1094F82300C0F34000A3
:10A0800010B1B4F9200003E0B4F9200028444042A4
:10A09000081A00B2ADF81A00208C281A0FFA80F8BE
:10A0A000B8F1000F01DA4FF00008A07894F8221000
:10A0B000CDE90210E08BADF804002BB205AA3146C1
:10A0C0005846CDF8008000F002F800BF6EE72DE999
:10A0D000FF4FA3B00D4616461F463298FF2801DBFE
:10A0E000FF2000E032983290284616F08DFC229036
:10A0F000229868B967B9309850B9329800903246C2
:10A100002946319B239800F0A9FA27B0BDE8F08FCB
:10A1100023982946826820A8F9F76AFB00B9F4E77A
:10A1200020A811F011FE81461C2119A81EF001FF84
:10A1300048461EF0E3FA1C904FF0FF301890002FB5
:10A140000ADD00233A46294612A816F0D5FF002161
:10A1500012A816F097F81890012331460CA8309AEF
:10A1600016F0CAFF00210CA816F08CF80B9009A875
:10A1700019901E90BDF8C400ADF86C0032988DF8AF
:10A180007C0033988DF87D00B5F900003844B6F9AD
:10A190000010884203DDB5F90000384401E0B6F94B
:10A1A000000000B2ADF81C00B5F90400C01BB6F900
:10A1B0000410884203DAB5F90400C01B01E0B6F9C7
:10A1C000040000B2ADF82000B5F902003844B6F939
:10A1D0000210884203DDB5F90200384401E0B6F907
:10A1E000020000B2ADF81E00B5F90600C01BB6F9BA
:10A1F0000610884203DAB5F90600C01B01E0B6F983
:10A20000060000B2ADF8220007A811F09DFD0690EF
:10A21000B5F90200B6F90210884201DC012000E025
:10A2200000208246B5F90600B6F90610884201DB27
:10A23000012000E000208346229800284CD0BDF881
:10A240008000ADF82400BDF88400ADF82800BDF909
:10A25000824029E0BAF1000F04D1BDF91E00A042EE
:10A2600000DD20E0BBF1000F04D1BDF92200A042C7
:10A2700000DA1DE020B2ADF8260020B2ADF82A00C9
:10A2800049461C981EF08CFEBDF980100FFA89F328
:10A2900022B21C9816F068FB8DF8740019A9239857
:10A2A00017F0ACFA00BF641CBDF98600A042D1DAF9
:10A2B00000BF0CA816F084FB0B9817F04FF8189805
:10A2C000401C28B112A816F07BFB189817F046F82E
:10A2D0001C981EF019FB18E7B5F90000B6F900103C
:10A2E000884201DC012000E000200590B5F904005F
:10A2F000B6F90410884201DB012000E00020049040
:10A3000001200390059860B1049850B1BAF1000F94
:10A3100007D0BBF1000F04D00698322801DA0020E4
:10A32000039001208DF87400BAF1000F15D0039846
:10A3300098B1BDF81C00ADF82400BDF82000ADF8C0
:10A3400028006888ADF826007088401E00B2ADF87D
:10A350002A0019A9239817F051FABBF1000F15D064
:10A36000039898B1BDF81C00ADF82400BDF820009A
:10A37000ADF82800F088401C00B2ADF82600E8884F
:10A38000ADF82A0019A9239817F038FA059898B162
:10A390002888ADF824003088401E00B2ADF82800AF
:10A3A000BDF81E00ADF82600BDF82200ADF82A0069
:10A3B00019A9239817F022FA049898B1B088401C84
:10A3C00000B2ADF82400A888ADF82800BDF81E0042
:10A3D000ADF82600BDF82200ADF82A0019A923988F
:10A3E00017F00CFA0398F0BBBDF88000ADF824001C
:10A3F000BDF88400ADF82800B5F90200B6F90210E6
:10A40000401AB84201DA384604E0B5F90200B6F95C
:10A410000210401A00B20290002442E068882044F2
:10A4200000B20190E888001B00B20090BDF98210D4
:10A430000198814205DDBDF986100098814200DA5D
:10A440002EE049461C981EF0ABFDBDF924100FFA12
:10A4500089F3019A1C9816F087FA8DF87400BDF9FB
:10A460008210019800E020E0814209DC0198ADF8FB
:10A4700026000198ADF82A0019A9239817F0BEF913
:10A48000BDF986100098814209DB0098ADF82600DE
:10A490000098ADF82A0019A9239817F0AFF900BF6A
:10A4A000641C02988442B9DBC7E0BDF88000ADF8B7
:10A4B0002400BDF98410BDF91C00401E814202DA5F
:10A4C000BDF9840002E0BDF91C00401E00B2ADF8E9
:10A4D000280009A811F038FC8046B8F1000F48DDCB
:10A4E000059810B9BAF1000F1ED0BDF9824017E0EF
:10A4F00020B2ADF8260020B2ADF82A0041461C98E3
:10A500001EF04EFDBDF92410434622B21C9816F0F1
:10A510002BFA8DF8740019A9239817F06FF9641CB1
:10A52000BDF91E00A042E3DC059810B9BBF1000F95
:10A530001FD0BDF92200441C17E020B2ADF8260060
:10A5400020B2ADF82A0041461C981EF029FDBDF945
:10A550002410434622B21C9816F006FA8DF87400B7
:10A5600019A9239817F04AF9641CBDF98600A04286
:10A57000E3DABDF98010BDF92000401C814202DD04
:10A58000BDF9800002E0BDF92000401C00B2ADF82A
:10A590002400BDF88400ADF8280009A811F0D4FB10
:10A5A0008046B8F1000F48DD049810B9BAF1000FE9
:10A5B0001ED0BDF9824017E020B2ADF8260020B2CF
:10A5C000ADF82A0041461C981EF0EAFCBDF92410A3
:10A5D000434622B21C9816F0C7F98DF8740019A9E9
:10A5E000239817F00BF9641CBDF91E00A042E3DCB0
:10A5F000049810B9BBF1000F1FD0BDF92200441C14
:10A6000017E020B2ADF8260020B2ADF82A0041468E
:10A610001C981EF0C5FCBDF92410434622B21C98BC
:10A6200016F0A2F98DF8740019A9239817F0E6F82E
:10A63000641CBDF98600A042E3DA0CA816F0C0F94C
:10A640000B9816F08BFE12A816F0BAF9189816F0AF
:10A6500085FE1C981EF058F900BF56E52DE9FF4F06
:10A6600089B080460C461546DDF858901C21684696
:10A670001EF05FFC07A80090BDF83000ADF80800A0
:10A680008DF81890B4F90200B5F90210884201DC87
:10A69000012000E000200646B4F90600B5F90610D6
:10A6A000884201DB012000E000200746B4F90000E9
:10A6B000B5F90010884201DC012000E0002082464C
:10A6C000B4F90400B5F90410884201DB012000E070
:10A6D000002083462088ADF81C00A088ADF820003B
:10A6E0006088ADF81E006888401E00B2ADF82200F8
:10A6F0001EB16946404617F081F8E888401C00B258
:10A70000ADF81E00E088ADF822001FB16946404652
:10A7100017F074F82088ADF81C002888401E00B29D
:10A72000ADF8200016B1B5F9020001E0B4F902005D
:10A73000ADF81E0017B1B5F9060001E0B4F9060046
:10A74000ADF82200BAF1000F03D06946404617F079
:10A7500055F8A888401C00B2ADF81C00A088ADF8E0
:10A760002000BBF1000F03D06946404617F046F8C1
:10A770000DB0BDE8F08F2DE9FF4F93B0074690462E
:10A7800099464FF6FF70804502D117B0BDE8F08FB3
:10A790003E46746A208C1290208C484506D0A4F85E
:10A7A0002090608C20F00400001D60844FF4802114
:10A7B000204622F06CFB11904FF48021204622F0BD
:10A7C000D6FB0546119819F015F88246384609F06F
:10A7D00098FB8346BBF81600ADF83E00BDF93E007D
:10A7E0000AEB050108FB010000B2ADF83E00284667
:10A7F00005EBD071BDF83E20A2EB610109B2ADF8C6
:10A800003E10BDF83E0050442844401E00B2ADF852
:10A810004200706A808AADF83C00706A008BADF827
:10A82000400001A816F0C8FD01AA4FF4802120467F
:10A8300022F0D2FE0FAA01A9149816F0A1FD1298D9
:10A840002084608C20F00400608400BF9DE72DE927
:10A85000F04F91B007460D46904699464FF6FF706F
:10A86000804502D111B0BDE8F08F1097109F7C6A2F
:10A87000208C0F90208C484506D0A4F82090608C46
:10A8800020F00400001D608407A815F083FC07AACF
:10A890004FF48021204622F0C4FD4FF48021204651
:10A8A00022F065FBADF82E00384609F02AFB06467B
:10A8B00006B9D7E7079818F09DFF8246F08AADF8F1
:10A8C0001600BDF91600BDF92E10514408FB010019
:10A8D00000B2ADF81600BDF92E0000EBD071BDF846
:10A8E0001620A2EB610109B2ADF81610BDF81600F2
:10A8F0005044BDF82E100844401E00B2ADF81A00B6
:10A90000A08AADF81400208BADF8180005AA03A8A2
:10A91000A968F8F76DFF8346BBF1000F13D0A86854
:10A92000029003A8A86030461CF014FC019000209F
:10A93000009006F1140207A92846019B15F03CF887
:10A940000298A86000BF0F982084608C20F004005B
:10A95000608400BF86E700002DE9F04105463548D8
:10A96000006814F095FB04462868866BF06A10B105
:10A970003046F16A8847206890B1606880B10CE089
:10A980002C4800680068806A38B12A4A126810684A
:10A99000284A12681268916A884720690028EFD116
:10A9A00001202061234800680068C068806900F0C9
:10A9B000010050B11F4800680068C0688069C0F39A
:10A9C000400010B10120606101E000206061606919
:10A9D00008B1012000E0002007462868406998B1CE
:10A9E0002868007CC0F3011048B12868007CC0F3DF
:10A9F000800020B1D6E9001000F01EF804E0D6E98E
:10AA000000212868FDF708FC206880B1606870B1FB
:10AA10002868007C00F0010000B147B12168A068FF
:10AA2000884202D16068A06001E02068A060BDE8B3
:10AA3000F08100004C0100202DE9F34F83B0044663
:10AA40008B48006805688A4800680068007CC0F38D
:10AA5000400078B1287CC0F3800058B185A08F4BAE
:10AA600040F27A328EA100900320FAF735FB05B050
:10AA7000BDE8F08F287CC0F3011002280AD12146DE
:10AA80002846049A00F033F921462846049AFDF737
:10AA9000C3FBEBE0287CC0F30110012804D0287C24
:10AAA000C0F301100328F4D1002002907048006820
:10AAB00014F0EEFA8246204611F015F906462046BB
:10AAC00011F09EF883464FF4A050B0FBF6F000B2B0
:10AAD000584505DA4FF4A050B0FBF6F000B200E0A4
:10AAE00058460190B4F90280287CC0F30110012877
:10AAF0000BD168882188401A401E00B2E080E088AF
:10AB0000801B401C00B2608006E020886080608866
:10AB10003044401E00B2E08000279EE0ABEB07010E
:10AB20000198814201DD019801E0ABEB07000FFACB
:10AB300080F90120CAF8100047BBB34526DBB146B7
:10AB4000297CC1F30111032901D1012100E0002179
:10AB500008463146049A00F03EF9287CC0F3011003
:10AB6000012807D1A4F8008008EB0600401E00B2BF
:10AB7000A0803FE02888401EA0EB080000B2A08023
:10AB8000A088801B401C00B2208033E0029820B9CE
:10AB90004FF420501DF0B2FD029002980090297CE5
:10ABA000C1F30111032901D1012100E00021084670
:10ABB0004A463146049B00F0E1F8287CC0F30110BE
:10ABC00001280AD108EB070000B2208008EB07003B
:10ABD0004844401E00B2A0800CE02888401EA0EB34
:10ABE0000800C01B00B2A080A088A0EB0900401C98
:10ABF00000B2208007EB090058450DDBDAF8180099
:10AC000000F0010040B1DAF81800C0F3400018B1BC
:10AC10000120CAF8140002E00020CAF814000298CB
:10AC200008B9049800E00298024621462846FDF73C
:10AC3000F3FA04E0A86A10B12846A96A8847DAF84E
:10AC400010000028F6D106FB09F1049800EB410042
:10AC5000049007EB090007B200BF5F45FFF65EAF47
:10AC6000029810B102981DF04FFE00BF00BFFEE633
:10AC70004C01002063616E6E6F7420726F7461749A
:10AC80006520612066756C6C2072656672657368FC
:10AC9000656420646973706C61792100C72D0408B4
:10ACA0002E2E5C2E2E5C4D6964646C657761726536
:10ACB000735C4C56474C5C4755495C6C76676C5CE2
:10ACC0007372635C636F72655C6C765F72656672EB
:10ACD0002E63000018B5048800940C880480148842
:10ACE0000C801C881480BDF800401C8018BD2DE924
:10ACF000FC5F05460C461646204610F0F4FF8246DF
:10AD0000204610F07DFF83460AFB0BF0019001986E
:10AD1000471E4FF0000811E006EB47000088009046
:10AD200006EB470006EB48010988018006EB480066
:10AD3000BDF8001001807F1E08F101084745EBD8DF
:10AD4000B4F9069068886188401A401E00B2E0801D
:10AD50006888A0EB0900401E00B26080B4F904903E
:10AD600028882188401A401E00B2A0802888A0EBC5
:10AD70000900401E00B22080BDE8FC9F2DE9F0478D
:10AD800004461D46089F01FB02F0A0F1010C481E7D
:10AD900000FB02F800231AE008EB03000CB1ACEB57
:10ADA000000000260FE0A946AD1C07EB400AB9F8E9
:10ADB0000090AAF800900CB1104400E0801A06F14F
:10ADC00001090FFA89F68E42EDDB581C03B293425B
:10ADD000E2DBBDE8F0872DE9F04782460C461546D8
:10ADE00000263BE0002731E0601E801B0FFA80F850
:10ADF000601EC01B0FFA80F9BAF1000F12D007FBDA
:10AE0000048C05EB4C0308FB049C05EB4C0209FB8E
:10AE1000046C05EB4C0106FB047C05EB4C00FFF7D2
:10AE200059FF11E009FB046C05EB4C0308FB049C83
:10AE300005EB4C0207FB048C05EB4C0106FB047C84
:10AE400005EB4C00FFF746FF781C07B2601C00EBD7
:10AE5000D071B7EB610FC7DB701C06B204EBD47185
:10AE6000B6EB610FBEDBBDE8F08710B504462046A7
:10AE70001AF070FB10BD00002DE9F14F9EB01E9836
:10AE800018F00DFA05462C461E9818F03FF91D9053
:10AE9000606A1CF05FF907465020005D00F0010079
:10AEA00010B91FB0BDE8F08F0FA816F085FA0FAAF1
:10AEB0004FF4E021284622F08FFB04F144010DA855
:10AEC00010F087FEBDF83400616A898A084400B238
:10AED000ADF83400BDF83610606AC08A084400B28C
:10AEE000ADF83600BDF83800616A898A084400B2BE
:10AEF000ADF83800BDF83A10606AC08A084400B264
:10AF0000ADF83A000DAA0FA91D9816F039FA4FF4C2
:10AF1000E021284621F0F4FA06464FF4E0212846C5
:10AF200021F056FD30440FFA80F84FF4E021284616
:10AF300021F0C7FE30440FFA80F900200B900C90EE
:10AF4000E16CC8191F49096888478246E06CC1193D
:10AF500052460BA81DF053FEBDF83400404400B229
:10AF6000ADF83400BDF83600484400B2ADF8360004
:10AF70004FF0000BD4F824A040F2574259465046F7
:10AF800021F0ACFE019001980A9002A815F002F998
:10AF900002AA4FF4E021284622F043FA9DF83F0030
:10AFA000022805DCBDF81400BDF82810884207D03F
:10AFB00000200BAB0DAA02A900901D9814F0FCFC18
:10AFC00000BF6EE7E00200202DE9F04FBDB005465E
:10AFD0000E4600BF00BFAB460BF13000FAF728F871
:10AFE00010B13DB0BDE8F08F05F114023BA8B16887
:10AFF000F8F7FEFB00B9F4E7B0683A903BA8B06000
:10B0000035A815F013F935AA4FF4E021284622F0AF
:10B010006FFA27A816F0D0F99DF8DC008DF89F0094
:10B0200047F6FF70ADF89C004FF4E021284622F06F
:10B0300054F8074600EBD7704FEA60094FF4E0215F
:10B04000284622F04AF8074600EBD7704FEA600A1C
:10B05000314604A81FF042FF24A80A9016A80890C1
:10B060004FF4E020119069480590052006900BF1FF
:10B070003000F9F78FFF0446C0E00A2235A924A862
:10B080001DF0BDFD382227A916A81DF0B8FDE088E7
:10B09000ADF89000E088ADF85C0039A80D9038A8B4
:10B0A0000E90607B00F0010020B1B4F90070B4F99B
:10B0B000028010E0A08847F6FF71884200D197E037
:10B0C000A28801AB2846A16812F0E4FABDF9047029
:10B0D000BDF9068000BFA88A384407B2E88A404418
:10B0E0000FFA80F8B9F1000F19D0BAF1000F16D09D
:10B0F000A7EB090000B2ADF8080007EB090000B2A9
:10B10000ADF80C00A8EB0A0000B2ADF80A0008EB9D
:10B110000A0000B2ADF80E0002A8079001E000207E
:10B120000790207B00F0030070B3207B00F001004B
:10B1300010B1B5F9140000E03846ADF8E400ADF800
:10B14000E680207B00F0020010B1B5F9180000E0A5
:10B150003846ADF8E000BDF8E600ADF8E20004AA1C
:10B160001A21284618F0A2F838AB39AA24A930468B
:10B1700015F045F802AA16A9304616F001F904AAFE
:10B180001B21284618F092F8207B00F00C0070B3C9
:10B19000ADF8E470207B00F0040010B1B5F91600A2
:10B1A00000E04046ADF8E600BDF8E400ADF8E00090
:10B1B000207B00F0080010B1B5F91A0000E040460D
:10B1C000ADF8E20004AA1A21284618F06FF838AB4F
:10B1D00039AA24A9304615F012F802AA16A9304659
:10B1E00016F0CEF804AA1B21284618F05FF800BF1D
:10B1F00021460BF13000F9F7C7FE0446002C7FF41E
:10B200003CAF3A98B06000BFEBE60000BC310408E8
:10B210002DE9F14F9AB01A9818F041F804461A989F
:10B2200017F074FF1990204621F08BFF0746204647
:10B2300020F0E0F9834607EBD771A28A02EB6101A7
:10B2400009B218910BEBDB714A10E18A114409B283
:10B25000179107EBD7714E1014A814F0E7FF14AA4A
:10B260000021204622F044F94FF41D70704355210F
:10B2700090FBF1F0642190FBF1F000B2ADF85200C8
:10B28000BDF85200801C00B2ADF8520000201390AF
:10B290000021204621F04BF80546002347F6FF72B7
:10B2A00004F114010DA815F027FF00210DA814F0DA
:10B2B000E9FF0C9000BFA08AADF82800E08AADF845
:10B2C0002A00208BADF82C00608BADF82E0000BF5B
:10B2D000BDF82800284400B2ADF82800BDF82C00C5
:10B2E000401B00B2ADF82C00BDF82A00284400B283
:10B2F000ADF82A00BDF82E00401B00B2ADF82E00BC
:10B30000012347F6FF720AA904A815F0F5FE0021F3
:10B3100004A814F0B7FF0390BDF952804FF0000A63
:10B320004FE051462046FBF71FFB0090BDF80000A0
:10B33000ADF850001398C0F30F290FFA89F029F0E7
:10B34000E9FD06EB08014843189901EBE03000B233
:10B35000ADF804000FFA89F029F0CCFD06EB0801E6
:10B360004843179901EBE03000B2ADF806000FFA40
:10B3700089F029F0CFFD711BA1EB08014843189912
:10B3800001EBE03000B2ADF808000FFA89F029F0C7
:10B39000B1FD711BA1EB08014843179901EBE030A7
:10B3A00001B2ADF80A1002AB01AA14A9199814F061
:10B3B00026FF0AF103001FFA80FA139800F5876050
:10B3C0001390BAF5807FACDD0DA815F0F9FA04A84A
:10B3D00015F0F6FA0C9815F0C1FF039815F0BEFFB2
:10B3E0001BB0BDE8F08F00002DE9F04FA5B004467A
:10B3F0000F46254604F1140123A8BA68F8F7F8F9B6
:10B400002290229810B925B0BDE8F08FB86821903D
:10B4100023A8B8600021204621F04BF81E9000219F
:10B42000204621F060FA01461E98084400B21D90A3
:10B430000021204621F0C3FB01461E98084400B2BB
:10B440001C90204620F035F87E35E98848430012EC
:10B4500000B21B90204620F00DF8298948430012C5
:10B4600000B21A9017A814F0E1FE17AA0021204696
:10B4700022F03EF8394605A81FF030FD002012905A
:10B480008C4806900020079017A80B904FF0FF30D3
:10B49000139000200E900F9005AA1A21204617F055
:10B4A00005FF0020019031222046019921F016FC71
:10B4B0000090009800F0FF0B00BF0021204620F014
:10B4C000F8FF04900020019033222046019921F0DA
:10B4D00005FC0090009800F0FF0800BF204620F017
:10B4E0007FF90390204620F075FA029035F87E0926
:10B4F000002865D0E18A1C9801440298081A00B21D
:10B500000190A08AADF88000208BADF87C004FF050
:10B510000009B5F87E000FFA80FABBF1020F1ADDC0
:10B520000498002817DD08F0020040B100212046F1
:10B5300021F045FB18B909F101000FFA80F908F074
:10B54000010040B10021204621F0F0F818B9AAF11D
:10B5500001000FFA80FA4E462FE01A987043B5F8B2
:10B560007E10491E90FBF1F000B2ADF88200BDF8EC
:10B5700082100198084400B2ADF88200BDF8820044
:10B58000ADF87E004B4806900120079020A80E9051
:10B590001FA80F90139605AA1A21204617F086FEC1
:10B5A0001FAB20AA17A9384614F029FE05AA1B21B3
:10B5B000204617F07BFE701C06B25645CDDB00BF5F
:10B5C000B5F88000002865D0A18A1D980144039831
:10B5D000081A00B20190E08AADF88200608BADF8E5
:10B5E0007E004FF00009B5F880000FFA80FABBF139
:10B5F000020F1ADD0498002817DD08F0040040B19E
:10B600000021204621F06FF918B909F101000FFA65
:10B6100080F908F0080040B10021204621F00CFA22
:10B6200018B9AAF101000FFA80FA4E462FE01B98D4
:10B630007043B5F88010491E90FBF1F000B2ADF8F0
:10B640008000BDF880100198084400B2ADF8800079
:10B65000BDF88000ADF87C001648069002200790E7
:10B6600020A80E901FA80F90139605AA1A21204615
:10B6700017F01CFE1FAB20AA17A9384614F0BFFD17
:10B6800005AA1B21204617F011FE701C06B2564574
:10B69000CDDB00BF4FF0FF30139000200E900F90D5
:10B6A00005AA1B21204617F001FE2198B86000BFB3
:10B6B000A9E60000BC3104082DE9F14F9AB01A98B0
:10B6C00017F01CFD07461A9817F0E9FD05462C46B1
:10B6D000122F7DD11A9817F0DFFD06463078022828
:10B6E00002D11BB0BDE8F08F94F8380000F00300E1
:10B6F000032805D094F8380000F00300022802D196
:10B7000001203070EDE794F83800C0F3840004287D
:10B7100008D094F83800C0F38400012802D001203A
:10B720003070DEE74FF0000A46225146284621F0ED
:10B73000D5FA19901998C0B2FF2802D001203070B4
:10B74000CFE70021284621F053FC8146208E81441A
:10B75000B9F1000F02D001203070C2E70021284665
:10B7600021F087FC8046E08E00FB08F04FEA20289D
:10B770001A9817F091FD8346B8F5807F09D1002211
:10B7800005F114015846F8F774F8E8BB0120307051
:10B79000A7E728461FF02EFF8246284621F0D1FC5D
:10B7A000179004F132001FFA88F100235246CDE9C8
:10B7B000001018A81799F8F747FBBDF86000A98A90
:10B7C000084400B2ADF86000BDF86210E88A00E0FD
:10B7D0001DE0084400B2ADF86200BDF86400A98A1B
:10B7E000084400B2ADF86400BDF86610E88A084469
:10B7F00000B2ADF86600002218A95846F8F739F8EB
:10B8000018B9012030706CE700E000BF20E2152F6E
:10B8100001D0182FFAD10021284621F02AFC8046B9
:10B82000E08E00FB08F04FEA20280021284621F096
:10B83000DFFB8246208E8244284621F082FC19904C
:10B8400028461FF0D7FE1890002641F232023146FA
:10B85000284621F043FA0E900E9800B2814600BFB0
:10B8600041F612023146284621F038FA0E900E9821
:10B8700048440FFA80FB00BF41F6130231462846C8
:10B8800021F02CFA0E900E98484400B2179000BF99
:10B8900041F610023146284621F020FA0E900E980B
:10B8A000484400B2169000BF41F6110231462846C6
:10B8B00021F014FA0E900E98484400B21590608E54
:10B8C000584400B2ADF85000A18E1698084400B25A
:10B8D000ADF8520094F8390000F00300012804D1BB
:10B8E00012A928461FF004FE27E014A91FFA88F0C9
:10B8F0000FFA8AF3CDE9000112A8DDE91821F8F763
:10B90000A3FABDF84810A88A084400B2ADF8480070
:10B91000BDF84A10E88A084400B2ADF84A00BDF804
:10B920004C00A98A084400B2ADF84C00BDF84E1096
:10B93000E88A084400B2ADF84E0005F1140110A8E1
:10B9400010F035F912A905F1140010F030F9C148D2
:10B950001A991FF0E9FC0F900F98012800D0C0E65B
:10B9600010A905F1140010F022F9152F7ED1E08DF9
:10B9700008B1A08D00B9B4E6B8F1000F00D1B0E66F
:10B980001A9817F0C3FB064605F114010DA810F034
:10B990000EF928461AF000F90C9094F8390000F0DE
:10B9A000030001283CD1B4F92C10BDF93020891ACC
:10B9B000481C00EBD071BDF83420A2EB610109B244
:10B9C000ADF83410B4F92C10BDF93020891A481C98
:10B9D00000EBD071BDF83820A2EB610109B2ADF8DF
:10B9E0003810B4F92E10BDF93220891A481C00EB2A
:10B9F000D071BDF83620A2EB610109B2ADF8361066
:10BA0000B4F92E10BDF93220891A481C00EBD07110
:10BA1000BDF83A20A2EB610109B2ADF83A1013E08B
:10BA200012A810F0BBF9BDF834100844401E00B253
:10BA3000ADF8380012A810F029F9BDF83610084406
:10BA4000401E00B2ADF83A00BDF83400584400B2D0
:10BA5000ADF83400BDF836101698084400B2ADF8C1
:10BA60003600BDF838101798081A00E0EFE000B271
:10BA7000ADF83800BDF83A101598081A00B2ADF8C4
:10BA80003A0094F8380000F00300012805D094F83B
:10BA9000380000F0030000287AD106A813F06FFFE9
:10BAA00006AA0021284621F05DFC1FFA88F0ADF8B7
:10BAB0001A001FFA8AF0ADF81800608EADF81C006D
:10BAC000A18EADF81E1094F83800C0098DF82C0036
:10BAD000BDF84800584400B2ADF81000BDF84A1057
:10BAE0001698084400B2ADF81200BDF84C10179833
:10BAF000081A00B2ADF81400BDF84E101598081AD7
:10BB000000B2ADF81600B068039004AA04A8B168AA
:10BB1000F7F76EFE00B9E4E504A8B060BDF8361092
:10BB2000608D084400B2ADF80600BDF90600BDF90D
:10BB30003610884206DDBDF80600E18D401A00B2DD
:10BB4000ADF80600BDF80600E18D0844401E00B2C5
:10BB5000ADF80A0049E0BDF83400218D084400B278
:10BB6000ADF80400BDF90400BDF93410884206DDCB
:10BB7000BDF80400A18D401A00B2ADF80400BDF874
:10BB80000400A18D0844401E00B2ADF8080016E084
:10BB900034E001AA06A93046636A13F061FEBDF8DD
:10BBA0000400BDF83010084400B2ADF80400BDF840
:10BBB0000800BDF83010084400B2ADF80800BDF927
:10BBC0000400BDF938108842E3DBBDF80600BDF87B
:10BBD0003210084400B2ADF80600BDF80A00BDF806
:10BBE0003210084400B2ADF80A00BDF90600BDF9F4
:10BBF0003A108842AFDB0398B06027E094F8380031
:10BC000000F00300022811D104A814F0C3FA04AA1A
:10BC10000021284621F005FC0020009005F11402C7
:10BC200004A93046636A13F0C7FE0FE00AA0144B64
:10BC300040F2C62213A100900220F9F74DFA00232A
:10BC400005F114021946304613F00AFE00BF00BF8A
:10BC500000BF46E540770408647261775F696D67ED
:10BC60003A20696D61676520736F75726365207432
:10BC700079706520697320756E6B6E6F776E00004A
:10BC80006B7704082E2E5C2E2E5C4D6964646C6507
:10BC900077617265735C4C56474C5C4755495C6CE8
:10BCA00076676C5C7372635C776964676574735CF8
:10BCB0006C765F696D672E63000000002DE9F14F1F
:10BCC000DCB05C9817F0EBFA05462C465C9817F050
:10BCD0001DFA5B9059A928461FF00AFC0020CDE907
:10BCE000105040F60A02DDE9100120F0F7FF0F9036
:10BCF0000F9800B258900020CDE9105040F60B028A
:10BD0000DDE9100120F0EAFF0F900F9800B2579084
:10BD1000BDF864115898081A00B2ADF86401BDF876
:10BD200068115898084400B2ADF86801BDF8661172
:10BD30005798081A00B2ADF86601BDF86A11579815
:10BD4000084400B2ADF86A0159A810F019F883460A
:10BD500059A80FF08DFF5690D4E90A10A0EB010905
:10BD60005698834501DB012000E00020804600203A
:10BD7000559094F85C0000F0030001280BD1A06AF4
:10BD8000002808DAE06A002805DDA16A206B8842F5
:10BD900001D1012055900021284620F0CBFD549080
:10BDA0000021284620F06FFE53900021284620F005
:10BDB0002DFF52900021284620F0DFFC519059A918
:10BDC00004F134000FF0E1FEA18E5498084400B253
:10BDD000A086218F5398081A01B22187E18E5298CC
:10BDE000084401B2E186618F5198081A01B2618757
:10BDF000B8F1000F13D004F134000FF039FF04281C
:10BE00000DDA569800EBD0714A10E98A1144891E68
:10BE10000AB2E286E08E001D01B2618715E0B8F13A
:10BE2000000F12D104F134000FF0AAFF04280CDA3D
:10BE300058460BEBD071AA8A02EB6101891E09B248
:10BE4000A186A08E001D01B2218704F134000FF0FD
:10BE500097FF509004F134000FF00AFF4F90B8F1B3
:10BE6000000F01D0509800E04F988246B8F1000FC3
:10BE700005D004F13406371DFE484C9004E004F16F
:10BE80003606371DFC484C90A06D401CF8B1A36AE3
:10BE9000216DC91A01FB0AF191FBF9F108B2A36AFD
:10BEA000616DC91A01FB0AF191FBF9F10AB2131A8B
:10BEB000D4F858C003FB0CF1CB1701EB13631B1232
:10BEC0001BB24D934D99014409B24D9108E0A16A0E
:10BED000206B401A00FB0AF090FBF9F000B24D9085
:10BEE000A06C401CE0B1A36A216CC91A01FB0AF1E5
:10BEF00091FBF9F108B2A36A616CC91A01FB0AF15E
:10BF000091FBF9F10AB2131AD4F848C003FB0CF103
:10BF1000CB1701EB136300EB23231BB24E9308E016
:10BF2000D4E90901401A00FB0AF090FBF9F000B2D5
:10BF30004E900020119041F26A422846119920F05B
:10BF4000CDFE10901098C0B24B90B8F1000F0ED0FB
:10BF50004B9801280BD130463E4607464E99494240
:10BF600009B24E914D99494209B24D9100BFB8F1C5
:10BF7000000F0AD031884E98084400B238803188CA
:10BF80004D98084400B230800AE039884E98081A6B
:10BF9000401C00B2308039884D98081A00B23880B1
:10BFA000559878B3A26A524202FB0AF292FBF9F268
:10BFB00011B2B8F1000F0CD032880A4410B2B7F9B0
:10BFC0000020824201DD30801BE03A8832803880D8
:10BFD00017E03A88521A521C10B2B6F90020824279
:10BFE00001DD388002E032883A803080B7F90020E5
:10BFF000B6F900309A4204DAB6F900003A88328085
:10C00000388000BF559800BB04F134004C99884734
:10C0100001281ADC68465B991EF060FF4FF400307F
:10C020000D90964801900020029004F13400039096
:10C030006A461A21284617F039F96A461B21284614
:10C0400017F034F95DB0BDE8F08F04F1340149A870
:10C050000FF09BFD3BA815F0AFF93BAA4FF4003160
:10C06000284621F0B9FA29A85B991EF037FF4FF452
:10C070000030369081482A9000202B903BA82D90CC
:10C0800004F134002C9029AA1A21284617F00EF941
:10C090000020119060222846119920F01FFE109078
:10C0A000109800B228905698834501DA584600E06F
:10C0B00056982790DDE92701B1EB600F02DD279844
:10C0C00040102890BDF9EC0026904F995098884276
:10C0D00001DA509800E04F982790DDE92601B0EB97
:10C0E000610F02DD279840102690B8F1000F08D0AC
:10C0F00004F134000FF044FE01462698B1EB400FE6
:10C100000BDCB8F1000F28D104F134000FF0B0FDC2
:10C1100001462698B1EB400F1FDD9DF8EF0011900E
:10C120009DF8060110909DF80E010F9000208DF8EB
:10C13000EF008DF806018DF80E0104F134023BA9E1
:10C140005B9815F01DF911988DF8EF0010988DF897
:10C1500006010F988DF80E0100BFA98A5498084473
:10C1600000B2ADF87800298B5398081A00B2ADF8E8
:10C170007C00E98A5298084400B2ADF87A00698BD5
:10C180005198081A00B2ADF87E0000231EA920A81D
:10C19000289A14F0B1FF002120A814F073F81D9024
:10C1A0009DF822011C909DF80E011B9000208DF837
:10C1B0000E018DF8220159A919A80FF0E6FCBDF86F
:10C1C00064105498084400B2ADF86400BDF86610DD
:10C1D0005298084400B2ADF86600BDF86810539854
:10C1E000081A00B2ADF86800BDF86A105198081A34
:10C1F00000B2ADF86A00B8F1000F15D019A80FF021
:10C2000037FD042810DA569800EBD0714A10E98AFD
:10C210001144891E09B2ADF86610BDF86600001D14
:10C2200000B2ADF86A0017E0B8F1000F14D119A8F8
:10C230000FF0A6FD04280FDA58460BEBD071AA8A3E
:10C2400002EB6101891E09B2ADF86410BDF864000B
:10C25000001D00B2ADF86800BDF9EC20002304F128
:10C26000340113A814F048FF002113A814F00AF8B1
:10C27000129005E081BD010871BC01080C7604082C
:10C2800019AA3BA95B9815F07BF81B988DF80E0155
:10C290001C988DF8220100208DF8EF008DF8060122
:10C2A0008DF8220104F134023BA95B9815F068F87F
:10C2B00013A814F085FB20A814F082FB129815F047
:10C2C0004DF81D9815F04AF829AA1B21284616F0AA
:10C2D000EDFF00BFB6E6F0B591B00546284616F072
:10C2E000DEFF0446284616F011FF0746264603A83F
:10C2F00015F062F803AA4FF44031204621F06CF9A2
:10C3000047F6FF70ADF80C002C20805D00F00100B6
:10C3100038B1204612F07DFC0090BDF80000ADF869
:10C320001000214601A807F005FD01AA03A938461F
:10C3300015F026F811B0F0BD2DE9F04FB3B08146ED
:10C34000484616F0ACFF80464446484616F0DEFEEE
:10C3500032900021404620F045F80546404620F046
:10C36000F0FE824640461FF045F98346DA4501DB80
:10C37000012000E0002006460EB1584600E050467D
:10C380003190002794F85C0000F00300012806D1EA
:10C39000A06A002803DAE06A002800DD0127002EE9
:10C3A0003CD097B93EB1012D02D1B4F9340009E077
:10C3B000B4F9380006E0012D02D1B4F9360001E0ED
:10C3C000B4F93A00ADF8BC0037E0606A002812DB2F
:10C3D0003EB1012D02D1B4F9340009E0B4F93800BE
:10C3E00006E0012D02D1B4F9360001E0B4F93A00BB
:10C3F000ADF8BC0021E03EB1012D02D0B4F934000B
:10C4000009E0B4F9380006E0012D02D0B4F9360095
:10C4100001E0B4F93A00ADF8BC000EE01FB9E08EBF
:10C42000ADF8BE0009E0606A002803DBE08EADF8DD
:10C43000BE0002E0608FADF8BE0021A814F0BCFF82
:10C4400021AA4FF44031404621F0C6F833462FA9C7
:10C450004046319A2AF090FE2FA904F168000FF0AF
:10C46000AFFB0FA832991EF039FD4FF440301C90FD
:10C470003C481090002011901D9004F1680012902B
:10C4800021A81390404624F01AFC022810D00FAACD
:10C490001A21404616F00AFF04F1680221A93298D9
:10C4A00014F06EFF0FAA1B21404616F0FFFE55E068
:10C4B000382221A901A81CF0A2FB0FAA1A2140468C
:10C4C00016F0F4FE04F1680221A9329814F058FF26
:10C4D0000FAA1B21404616F0E9FE96B13EB1012D90
:10C4E00002D0B4F9340009E0B4F9380006E0012DB7
:10C4F00002D0B4F9360001E0B4F93A00ADF8BC005E
:10C5000002E0608FADF8BE0033462FA94046319A55
:10C510002AF032FE2FA904F160000FF051FB3822FF
:10C5200001A921A81CF06BFB0120119004F160000F
:10C53000129021A8139001201D900FAA1A214046A5
:10C5400016F0B4FE04F1600221A9329814F018FF2D
:10C550000FAA1B21404616F0A9FE00BF33B0BDE86C
:10C56000F08F0000B47804082DE9F04790B007463A
:10C57000384616F094FE054628461FF08BF806460E
:10C5800008A813F007FE08AA0021304620F049FF52
:10C59000384616F0BBFD0446D4F8088006F11402B4
:10C5A00006A8A168F7F724F910B910B0BDE8F08724
:10C5B00006A8A06004A9304608F0ACF8A88AADF837
:10C5C0000800E88AADF80A00288BADF80C00BDF829
:10C5D0001200ADF80E0002AA02A8A168F7F708F948
:10C5E00098B1D4F8089002A8A06028461AF0B2FDCD
:10C5F00082460020534605F1140208A90090204607
:10C6000013F0DAF9C4F8089000BFA88AADF8080062
:10C61000BDF81600ADF80A00288BADF80C00688B49
:10C62000ADF80E0002AA02A8A168F7F7E1F898B1E8
:10C63000D4F8089002A8A06028461AF08BFD824624
:10C640000020534605F1140208A90090204613F07B
:10C65000B3F9C4F8089000BFC4F8088000BFA4E78D
:10C660002DE9FF4FA1B0064614462498807B00F0C8
:10C670000F052298807E1F90032D00D10425012DE7
:10C6800006D0022D0BD0042D10D0082D1DD114E0A2
:10C69000DFF878834FF0800A02201E9020E0DFF858
:10C6A00070834FF0C00A04201E9019E0DFF8648305
:10C6B0004FF0F00A10201E9012E0DFF85C834FF07C
:10C6C000FF0A4FF480701E900AE0D4A0DA4BB62225
:10C6D000DAA100900220F8F7FFFC25B0BDE8F08F4A
:10C6E00000BF1F98FD2823DAE44801781F98814293
:10C6F00003D1E3480068A84213D000200DE018F8E9
:10C700000010FF2901D11F9904E018F800101F9AAA
:10C7100051430912DB4A1154401C1E998842EED342
:10C7200000BFDFF86083D5491F980870D4480560C2
:10C730002498B0F806B0249800891B900BFB05F0F4
:10C740001A90B4F90000B168B1F90010884201DB19
:10C75000002005E0B068B0F90000B4F90010401AFC
:10C760001990B4F900005844B168B1F90410884236
:10C7700001DC584606E0B068B0F90400B4F90010D6
:10C78000401A401C1890B4F90200B168B1F90210C7
:10C79000884201DB002005E0B068B0F90200B4F97E
:10C7A0000210401A1790B4F902101B980844B1689F
:10C7B000B1F90610884201DC1B9806E0B068B0F9B8
:10C7C0000600B4F90210401A401C16901A991798E6
:10C7D0004143199800FB051015902E99159801EB0F
:10C7E000D0002E90159800F007071C210DA81CF012
:10C7F000A0FB22988089ADF83C002298807E8DF8BD
:10C800004C002298807FC0F3C2008DF84D00F8F7ED
:10C8100081FF019012F040FC0C901B980BFB00F183
:10C820000C98814201DD0C9802E01B990BFB01F092
:10C830000B900B981BF062FF8146CDF840900020D2
:10C840000A9021881998084400B2ADF82000218888
:10C8500018980844401E00B2ADF82400618817986B
:10C86000084400B2ADF82200BDF82200ADF8260061
:10C8700000BFBDF82400BDF82010401A401C00B2D3
:10C88000079000BFBDF82000ADF81400BDF82200ED
:10C89000ADF81600BDF82400ADF81800BDF826006C
:10C8A000ADF81A0000BFBDF816101698084400B283
:10C8B000ADF81A0005A814F0A7F8049008A80D9088
:10C8C0001290C5F10800039019980BEB000118981D
:10C8D000081A6843029017981C9078E00A98019013
:10C8E0002AFA07F0209019981D9028E02E980078D9
:10C8F000209908400399C91BC8401490149830B17E
:10C90000149818F800100A9809F8001003E00021A4
:10C910000A9809F800100398874204D22F442098FF
:10C92000E840209005E00027CDF880A02E98401C1C
:10C930002E900A98401C0A901D98401C1D90189932
:10C940001D988842D2DB0498A0B1BDF92620BDF91C
:10C950002010019B09EB0300079B14F005F88DF8EC
:10C9600044009DF8440028B9019909EB010007999A
:10C970001CF0DFFADDE91801411A0A9801440B980E
:10C98000814206D2BDF82600401C00B2ADF8260058
:10C9900012E002208DF844000DA9304614F02EFF5D
:10C9A000BDF82600401C00B2ADF82200BDF8220000
:10C9B000ADF8260000200A90029807442E9800EB5C
:10C9C000D7002E9007F007071C98401C1C90169962
:10C9D0001C98884282DBBDF92200BDF926108842EE
:10C9E0000ED0BDF82600401E00B2ADF82600022091
:10C9F0008DF844000DA9304614F000FF00200A9085
:10CA000048461BF081FF00BF67E60000A32F040823
:10CA1000A52F0408B12F0408C12F04086C765F64A9
:10CA20007261775F6C65747465723A20696E7661C5
:10CA30006C69642062707000D33004082E2E5C2E66
:10CA40002E5C4D6964646C6577617265735C4C56ED
:10CA5000474C5C4755495C6C76676C5C7372635CF1
:10CA6000647261775C73775C6C765F647261775F28
:10CA700073775F6C65747465722E63005C010020CF
:10CA800060010020D49900202DE9FF4F8FB00C46A3
:10CA900015461E46B4F90200401E0E900E98401036
:10CAA0000D900E9800F001010D9808440C90B5F916
:10CAB0000000B6F90010884202DAB5F9000001E082
:10CAC000B6F90000ADF82800B5F90000B6F900107D
:10CAD000884202DDB5F9000001E0B6F90000401E11
:10CAE00000B2ADF82C0069880C98081A00B2ADF8B5
:10CAF0002A0069880D98084400B2ADF82E000F98FE
:10CB00000AA982680AA8F6F773FE8246BAF1000FF6
:10CB100002D113B0BDE8F08FE08818B1A08808B149
:10CB2000012000E000208346012009900AA813F0AC
:10CB30006BFF10B10020099004E0BBF1000F01D0A1
:10CB4000002009901C2102A81CF0F3F90AA8029009
:10CB50002088ADF81000207A8DF82000099820B1C7
:10CB600002A90F9814F04AFE78E00AA80FF0E5F841
:10CB70000746BDF92E000190BDF82A00ADF82E0041
:10CB800000200090BBF1000F0BD0B4F90600B4F9FF
:10CB900004100844BDF9281091FBF0F200FB1210BC
:10CBA000009038461BF0AAFD8046CDF814800AA8F4
:10CBB0000790BDF92A904AE0394640461CF0F0F94A
:10CBC000BDF928103BB20FFA89F2404613F0CCFEB3
:10CBD0008DF81800BBF1000F27D09DF8180020B386
:10CBE000009800211BE0B4F90420824207DBA388EF
:10CBF0001B1A1AB28B1819B2831818B20BE0B4F9C9
:10CC00000620B4F904301A44824201DC002002E01C
:10CC1000002208F801204A1C11B2421C10B2B9428D
:10CC2000E1DB02228DF8182000BF02A90F9814F052
:10CC3000E5FDBDF82A00401C00B2ADF82A00BDF8A1
:10CC40002E00401C00B2ADF82E0009F10109019838
:10CC50008145B1DD40461BF057FE00BF00BF58E7DD
:10CC60002DE9FF4FC7B08B4691469A46B9F90200AD
:10CC7000BAF90210884210DAB9F80200ADF81A01C8
:10CC8000BAF80200ADF81601B9F80000ADF81801C5
:10CC9000BAF80000ADF814010FE0BAF80200ADF8E0
:10CCA0001A01B9F80200ADF81601BAF80000ADF8A3
:10CCB0001801B9F80000ADF81401BDF91401BDF96F
:10CCC0001811441ABDF91601BDF91A11451A002CA4
:10CCD00001DD204600E06042002D01DD294600E034
:10CCE0006942884201DD012000E000204490BBF948
:10CCF000026000204390449870B1002D01DD284669
:10CD000000E068424101002C01DD204600E0604265
:10CD100091FBF0F043900DE0002C01DD204600E097
:10CD200060424101002D01DD284600E0684291FB90
:10CD3000F0F04390E0494398085C70433F30C611DF
:10CD4000771006F0010000EB0708BDF91801BDF9E6
:10CD50001411884202DABDF9180101E0BDF914018D
:10CD6000801B00B2ADF80401BDF91801BDF9141122
:10CD7000884202DDBDF9180101E0BDF9140130441B
:10CD800000B2ADF80801BDF91A01BDF916118842CB
:10CD900002DABDF91A0101E0BDF91601801B00B2EB
:10CDA000ADF80601BDF91A01BDF91611884202DD80
:10CDB000BDF91A0101E0BDF91601304400B2ADF829
:10CDC0000A01479841A9826841A8F6F711FD4090F1
:10CDD000409810B94BB0BDE8F08F4498F0B3002CE8
:10CDE00024DD0021BDF81601C01B00B2CDE9000111
:10CDF000BDF91431BDF81A01C01B02B2BDF91811FA
:10CE000035A813F0FBFE0121BDF81601404400B225
:10CE1000CDE90001BDF91431BDF81A01404402B258
:10CE2000BDF918112AA813F0E9FE4AE00021BDF867
:10CE30001601404400B2CDE90001BDF91431BDF83E
:10CE40001A01404402B2BDF9181135A813F0D6FEFC
:10CE50000121BDF81601C01B00B200E00DE0CDE9D4
:10CE60000001BDF91431BDF81A01C01B02B2BDF9B1
:10CE700018112AA813F0C2FE23E00021BDF9160103
:10CE8000CDE90001BDF81401404403B2BDF91A21F7
:10CE9000BDF81801404401B235A813F0AFFE0121DE
:10CEA000BDF91601CDE90001BDF81401C01B03B2A4
:10CEB000BDF91A21BDF81801C01B01B22AA813F050
:10CEC0009DFE002135A813F0DDF9139000212AA85A
:10CED00013F0D8F912904FF0FF30119010909BF89A
:10CEE0000900C0F3001068BB0321BDF81A012044FB
:10CEF00000B2CDE90001BDF81801401B03B2BDF935
:10CF00001A21BDF918111FA813F078FE0221BDF8EF
:10CF10001601204400B2CDE90001BDF81401401B08
:10CF200003B2BDF91621BDF9141114A813F066FE61
:10CF300000211FA813F0A6F91190002114A813F0E6
:10CF4000A1F9109041A80EF0F8FE0F90F8F7E2FB5F
:10CF5000019012F0A1F80D9041A80EF0A5FE014637
:10CF60000D98814203D241A80EF09EFE00E00D987C
:10CF70000C900C981BF0C2FB0B90BDF90A010A90B3
:10CF8000BDF80601ADF80A0100200990DDE90B01AA
:10CF90001CF006F81C2102A81BF0CBFF41A8029050
:10CFA000BBF80000ADF810009BF808008DF82000D9
:10CFB0000B98059041A80790BDF906010E9040E03E
:10CFC000BDF90411099B0B9AD0180F9A13B20E9A4F
:10CFD00012B213F0C9FC8DF818009DF8180028B99A
:10CFE000099A0B9988180F991BF0A3FF0F990998BC
:10CFF000084409900F99099801440C98814206D27F
:10D00000BDF80A01401C00B2ADF80A0116E002208A
:10D010008DF8180002A9479814F0F0FBBDF80A013A
:10D02000401C00B2ADF80601BDF80601ADF80A01DA
:10D0300000200990DDE90B011BF0B2FF0E98401CA7
:10D040000E900A990E988842BADDBDF90601BDF925
:10D050000A1188420CD0BDF80A01401E00B2ADF89A
:10D060000A0102208DF8180002A9479814F0C6FBA7
:10D070000B981BF049FC35A813F0A2FC2AA813F06A
:10D080009FFC1198401C10B11FA813F099FC109838
:10D09000401C10B114A813F093FC139814F05EF91F
:10D0A000129814F05BF9119814F058F9109814F0D4
:10D0B00055F900BF8EE60000E63004082DE9FF4F69
:10D0C00091B00C4615461E46B4F90200401E109061
:10D0D000109840100F90109800F001010F9808442C
:10D0E0000E9029880E98081A00B2ADF830002988F1
:10D0F0000F98084400B2ADF83400B5F90200B6F953
:10D100000210884202DAB5F9020001E0B6F9020025
:10D11000ADF83200B5F90200B6F90210884202DD1E
:10D12000B5F9020001E0B6F90200401E00B2ADF808
:10D13000360011980CA982680CA8F6F759FB8146B5
:10D14000B9F1000F02D115B0BDE8F08FE08818B139
:10D15000A08808B1012000E00020824601200B9049
:10D160000CA813F051FC10B100200B9004E0BAF1B0
:10D17000000F01D000200B901C2104A81BF0D9FE49
:10D180000CA804902088ADF81800207A8DF82800AB
:10D190000B9820B104A9119814F030FB66E00CA89C
:10D1A0000EF0CBFD8346BDF936000390BDF832008A
:10D1B000ADF8360058461BF0A1FA0290029807908D
:10D1C0000CA8099000200190BAF1000F0BD0B4F91F
:10D1D0000600B4F904100844BDF9321091FBF0F2D6
:10D1E00000FB12100190019FBDF9328037E05946D3
:10D1F00002981BF0D5FEBDF930100FFA8BF30FFA31
:10D2000088F2029813F0B0FB8DF82000BAF1000FFD
:10D2100013D09DF8200070B1B4F90400B84202DACE
:10D2200000208DF82000B4F90600B4F90410084479
:10D23000B84200DC0027781C07B204A9119814F04A
:10D24000DDFABDF83200401C00B2ADF83200BDF886
:10D250003600401C00B2ADF8360008F10108039812
:10D260008045C4DD02981BF04FFB00BF00BF6AE79A
:10D270002DE9FC5F8046404616F011F80746B94696
:10D28000D9F824603446404615F040FF0546606AF0
:10D2900000F114026846A968F6F7AAFA8246BAF1C4
:10D2A000000F41D0D5F808B0C5F808D094F83C007C
:10D2B000C0F3401048B3608FE18E88420CD1628F7A
:10D2C000212329463046FDF756FA628F212329464D
:10D2D0003046FDF7BCFA24E0628F20232946304611
:10D2E000FDF749FA628F202329463046FDF7AFFA51
:10D2F000E28E012329463046FDF73DFAE28E0123F6
:10D3000029463046FDF7A3FA0BE0628F2023294619
:10D310003046FDF730FA628F202329463046FDF76C
:10D3200096FAC5F808B000BFBDE8FC9F2DE9F14FA3
:10D33000D0B0509815F0B3FF04462546288E10B99A
:10D3400051B0BDE8F08F509815F0E0FE4F90608C22
:10D3500020F00400001D60844DA920461EF0C8F88E
:10D360000026B246B4F8208000202084608C20F093
:10D370000400001D608427A814F01EF81FA812F0F6
:10D3800009FF27AA4FF4A021204620F025F91FAA63
:10D390004FF4A021204620F044F8608C20F00400D7
:10D3A0006084A4F82080002120461FF03CFC1E90E1
:10D3B000002120461FF0EEF91D90002120461FF0AD
:10D3C000C6FA1C90002120461FF06AFB1B9009A89A
:10D3D0004F991DF083FD4FF4A0201690D7480A9076
:10D3E00000200B903DA80D9035A80E9000BF9BE14A
:10D3F00003E00AF101001FFA80FA696A51F82A0075
:10D40000CFA1F3F7E9FA0028F3D0E96A31F8160062
:10D41000FAF7FDFA00B181E10027E96A31F8160058
:10D42000FAF7E5FA08B147F00107E96A31F81600A2
:10D43000FAF7F1FA10B147F0800716E0A88EB04273
:10D4400013D108F0200008B147F0200708F00200CF
:10D4500008B147F0020708F0040008B147F00407DC
:10D4600008F0080008B147F00807A86A00EBC601F9
:10D470004BA80EF093FBBDF82C01BDF83411084405
:10D4800000B2ADF82C01BDF82E01BDF836110844EC
:10D4900000B2ADF82E01BDF83001BDF834110844DA
:10D4A00000B2ADF83001BDF83201BDF836110844C4
:10D4B00000B2ADF8320157B9382227A93DA81BF0B8
:10D4C0009EFB20221FA935A81BF099FB1DE0278495
:10D4D000608C20F00400001D60843DA813F06CFFF8
:10D4E00035A812F057FE3DAA4FF4A021204620F0A7
:10D4F00073F835AA4FF4A02120461FF092FFA4F83C
:10D500002080608C20F004006084E96A31F8160005
:10D51000FAF789FA8346BBF1000F06D09DF8F100B7
:10D5200040F001008DF8F10005E09DF8F10020F0D9
:10D5300001008DF8F1004BA80C90179609AA1A214A
:10D54000204615F0B3FE9DF81701400800F01000CA
:10D55000F0B39DF8170120F03E001E308DF8170142
:10D56000BDF92C11B4F914201C98104481420AD141
:10D570009DF81701400820F004009DF8171160F392
:10D5800045018DF81711BDF93011B4F918201B9819
:10D59000101A81420AD19DF81701400820F00800B6
:10D5A0009DF8171160F345018DF81711BDF92E1183
:10D5B000B4F916201E98104481420CD19DF8170131
:10D5C000400820F002009DF8171160F3450100E0CB
:10D5D00014E08DF81711BDF93211B4F91A201D9815
:10D5E000101A81420AD19DF81701400820F001006D
:10D5F0009DF8171160F345018DF817114BA80EF037
:10D600003EFB814607F0200060B1E86A30F8160062
:10D6100000F4007030B1BDF82E01A0EB090000B29B
:10D62000ADF82E014BAA3DA94F9813F0A9FE3598ED
:10D630000890BDF9E8000790BDF9E6000690686A19
:10D6400050F82A0005904DA80EF0A1FB03909DF81C
:10D65000F11002460698CDE90121009004A8DDE909
:10D660000732059927F044FD4BA80EF090FBBDF959
:10D670001010401A039000EBD070BDF82C1101EB94
:10D68000600000B2ADF82C014BA80EF0F8FABDF91D
:10D690001210401A039000EBD070BDF82E1101EB70
:10D6A000600000B2ADF82E01BDF82C01BDF81010DD
:10D6B000084400B2ADF83001BDF82E01BDF81210DB
:10D6C000084400B2ADF8320107F02000C0B1E86AAA
:10D6D00030F8160000F4007090B1484609EBD071A4
:10D6E000BDF82E21A2EB610109B2ADF82E1109EBB4
:10D6F000D071BDF83221A2EB610109B2ADF832114F
:10D70000002000904BAA35A9059B4F9812F054F9C0
:10D7100009AA1B21204615F0C9FD00BF701C86B266
:10D720000AF101001FFA80FA288EB0423FF760AE7E
:10D73000608C20F00400608400BF01E64476040899
:10D740000A0000002DE9F14FA2B0229815F0A7FDC4
:10D7500004462546229815F0D9FC21900021204648
:10D760001EF0B4FE81462646002741F612023946D5
:10D7700030461FF0B3FA0A900A98484400B220904D
:10D7800000BF41F61302394630461FF0A7FA0A904F
:10D790000A98484400B21F90002120461FF05DFA0D
:10D7A000484400B21E9016A812F0F4FC16AA4FF4DA
:10D7B000003120461FF035FEA86A10B1D5F8288048
:10D7C0000AE080201AF09AFF064680223146204661
:10D7D00015F0D2F8B04600BF4FF0000A95F83C00B3
:10D7E00000F00F00012800D18246002641F26A4273
:10D7F000314620461FF072FA0A900A98C0B20128FA
:10D8000000D18246E86A00287ED0E86A18F062FB00
:10D810000A900A98022814D19DF8750041F6FF720B
:10D82000BDF96A10CDE900120290BDF96C30169A6C
:10D8300007A8E96A27F05CFCBDF91C60BDF91E7001
:10D8400011E007A9E86A17F0FBFE8346BBF1010F60
:10D8500005D10798C0F38A260798470D02E04FF0DC
:10D86000FF36374600BFBAF1000F0DD0A18A2098CD
:10D87000084400B2ADF82000BDF820003044401E3E
:10D8800000B2ADF824000DE0218B1F98081A801B10
:10D8900000B2ADF82000BDF820003044401E00B2B8
:10D8A000ADF824000A98022815D1E18A1E98084490
:10D8B00000B2ADF82200BDF822003844401E00B28C
:10D8C000ADF826000020009008AA16A9EB6A21985E
:10D8D00012F072F840E020461DF08CFEA0EB070B22
:10D8E0000BEBDB704110E08A084400B2ADF8220077
:10D8F000BDF822003844401E00B2ADF8260002A850
:10D9000012F03DF802AA00E027E04FF40031204673
:10D910001FF028FD304606EBD071491009B2ADF872
:10D920000C10384607EBD07149100AB2ADF80E2042
:10D930004FF4003B43F60F02594620461FF0CEF944
:10D940000190019880B2ADF8080008AA02A9EB6A1C
:10D95000219811F085FF00BF00BF0EA812F01AFC3D
:10D960000EAA002120461FF05CFD9DF8550041F6EF
:10D97000FF72BDF94A10CDE900120290BDF94C309A
:10D9800041460DA80E9A27F0B3FBE18A1E98084481
:10D9900000B2ADF82E00BDF82E00BDF836100844D8
:10D9A00000B2ADF83200E86AB0B920461FF0C9FBFA
:10D9B000BDF93410461A06EBD670A18A01EB60005F
:10D9C00000B2ADF82C00BDF82C00BDF834100844AE
:10D9D00000B2ADF8300022E0BAF1000F11D0218B77
:10D9E0001F98081ABDF83410401A00B2ADF82C0088
:10D9F000BDF82C00BDF83410084400B2ADF830007A
:10DA00000DE0A18A2098084400B2ADF82C00BDF8C2
:10DA10002C00BDF83410084400B2ADF830000020EE
:10DA200043460BAA0EA90090219811F0C5FFA86AE1
:10DA300010B940461AF068FF23B0BDE8F08F2DE919
:10DA4000F14F90B0109815F02AFC05462C4610981E
:10DA500015F05CFB06460EA928461DF0D5FC0027F4
:10DA600094F84800C0F3001008B147F0010794F89B
:10DA70004800C0F3401008B147F0020700212846D3
:10DA80001FF038FB42F2D171884205D1688CC0F397
:10DA9000802008B947F0040706A812F07BFBB4F811
:10DAA0004400ADF82E004620005BADF830008DF844
:10DAB000357006AA002128461FF0B3FC0DA8411EB0
:10DAC000626A03780BB90123037000BF284619F07E
:10DAD0004DFB0790284619F043FB08904FF6FF7165
:10DAE000079888421ED0089888421BD04FF4802B9C
:10DAF00044F25742594628461FF0F0F80290029827
:10DB00000390BDF80C00ADF8260000BF2022594656
:10DB100028461FF0E3F8029002980390BDF80C002D
:10DB2000ADF8280094F8480000F00700022805D05E
:10DB300094F8480000F0070003281FD19DF8340036
:10DB4000022803D09DF83400032817D141F6FF7155
:10DB5000BDF92A008DE88300BDF92C30069A03A890
:10DB6000616A27F0C5FA0EA80EF01FF9BDF90C1076
:10DB7000884202DA01208DF8340000BF04F1300839
:10DB800094F8480000F00700032805D00EA80EF016
:10DB900084F8B0F5806F01DA4FF000080EA904A8F0
:10DBA000B268F5F725FE8146B9F1000F02D111B038
:10DBB000BDE8F08F94F8480000F0070070B92846DF
:10DBC0001DF008FF8346CBF1000002B200210EA831
:10DBD0000EF003F9688BADF83E0000BF94F84800E2
:10DBE00000F00700022805D094F8480000F0070074
:10DBF00003280ED1D6F808B004A8B060CDF8008094
:10DC00000EAA06A93046636A11F0D6FEC6F808B01F
:10DC100007E0CDF800800EAA06A93046636A11F02D
:10DC2000CBFED6F808A004A8B06094F8480000F035
:10DC3000070003284FD141F6FF71BDF92A008DE896
:10DC40008300BDF92C30069A03A8616A27F050FAC8
:10DC50000EA80EF0AAF8BDF90C1088421BDA20229B
:10DC60001146069815F064FD00EB4000B4F844102E
:10DC7000BDF80C201144084400B2ADF82E00462037
:10DC8000005BADF83000CDF800800EAA06A9304642
:10DC9000636A11F091FE0EA80DF0FFFFBDF90E10A2
:10DCA000884217DAB4F84400ADF82E00069815F053
:10DCB000A5FD4621095BBDF80E201144084400B2C1
:10DCC000ADF83000CDF800800EAA06A93046636A90
:10DCD00011F072FE00BFC6F808A000BF67E72DE98B
:10DCE000F14F9AB01A9815F009FA80461A9815F073
:10DCF000D6FA0446B8F1150F16D11A9815F006FA9F
:10DD0000054618A9204606F005FD0AA813F054FBA5
:10DD10000AAA4FF4802120461FF05EFC18AA0AA927
:10DD2000284613F02DFBC5E0B8F1180FFBD11A9867
:10DD300015F0ECF9054612A812F02CFA12AA4FF4CD
:10DD4000802120461FF06DFB10A9204606F0E2FC62
:10DD500010AA0EA8A968F5F74BFD0D900D980028A4
:10DD60007DD0204606F0D9F8814620461FF0E9F91B
:10DD70008346484619F0EEF902210390BDF95A0096
:10DD8000CDE901B10090BDF95C300CA8129A03995D
:10DD900027F0AEF920461DF02DFC0646304606EB76
:10DDA000D0714A10B4F916100A44B9F91610891A3C
:10DDB0000B9148461DF01EFC0B99890391FBF0F076
:10DDC0000B90002120461FF07AF80A901299B1F9C1
:10DDD00008200A99B1F90810501A00EBD0714910C7
:10DDE00009B20991BDF832100998081A00B2ADF8CD
:10DDF0003200304606EBD0714A10B4F916105718AD
:10DE0000BDF932000B99484307EBA03709983F1A38
:10DE1000002120461EF067FB82464FF0000B41F6C2
:10DE20001202594620461EF059FF0390039800B293
:10DE3000089000BF41F61302594620461EF04EFFDF
:10DE40000390039800B20790A18A089808445044B0
:10DE500000B2ADF8140038B2ADF8160000E028E0CA
:10DE6000218B0798081AA0EB0A0000B2ADF8180041
:10DE7000BDF81600BDF83210084400B2ADF81A0023
:10DE80009DF8650040F002008DF86500A8680490D8
:10DE90000EA8A860484619F05DF9834600205B464D
:10DEA00005AA12A90090284611F086FD0498A860E2
:10DEB00000BF00BF1BB0BDE8F08F2DE9F14FA8B047
:10DEC000289815F0ECF904462546289815F01EF917
:10DED0002790002120461EF061FD2690002120465B
:10DEE0001EF005FE2590002120461EF0D0FE249055
:10DEF000002120461EF075FC239000BFA08AADF8DB
:10DF00008400E08AADF88600208BADF88800608B35
:10DF1000ADF88A0000BFBDF884102698084400B20E
:10DF2000ADF88400BDF888102598081A00B2ADF845
:10DF30008800BDF886102498084400B2ADF8860029
:10DF4000BDF88A102398081A00B2ADF88A0013A809
:10DF500013F032FA13AA4FF4003120461FF03CFBB5
:10DF600021AA13A9279813F00BFA002620461DF0CA
:10DF700041FB074600BF208BA18A401A401CC01BF2
:10DF80000FFA80F8686A401C40B1696A01FB08F02A
:10DF9000C11700EB116109120EB20CE020461EF011
:10DFA0008DF900F0010BBBF1000F01D0404600E0FD
:10DFB0000020064600BF4FF0000B41F26A4259466E
:10DFC00020461EF08BFE00900098C0B2012802D1BE
:10DFD000A8EB060006B2A08A304400B2ADF84400B7
:10DFE000BDF84400384400B2ADF84800E08AADF80E
:10DFF0004600608BADF84A004FF4403120461EF0D9
:10E00000CDFC81464FF4403120461EF070FD824623
:10E010004FF4403120461EF03AFE10904FF440314C
:10E0200020461EF0DEFB0F90BDF84400A0EB090077
:10E0300000B2ADF84400BDF84800504400B2ADF85D
:10E040004800BDF846101098081A00B2ADF8460016
:10E05000BDF84A100F98084400B2ADF84A0001A874
:10E0600013F0AAF901AA4FF4403120461FF0B4FA88
:10E0700011AA01A9279813F083F929B0BDE8F08F00
:10E080002DE9F14FE0B0609815F009F904462546F6
:10E09000609815F03BF8814604F114015EA8D9F8A8
:10E0A0000820F5F7A5FB10B961B0BDE8F08FD9F8ED
:10E0B00008005D905EA8C9F808004FF0000841F222
:10E0C0003202414620461EF009FE0C900C9800B228
:10E0D0005690002120461EF0E7FD55900021204675
:10E0E0001EF08CFB5490002120461EF064FC5390DF
:10E0F000002120461EF008FD52904FF4A02120463A
:10E100001EF059FC51904FF4A02120461EF0FCFC5B
:10E1100050904FF4A02120461EF0C6FD4F904FF4C2
:10E12000A02120461EF06AFB4E90208C4D900020CE
:10E130002084608C20F00400001D60843FA813F050
:10E140003BF93FAA4FF4A02120461FF045FA29A829
:10E1500012F020F829AA4FF4A02120461FF061F9FF
:10E160004D982084608C20F00400608400272046B5
:10E170001DF044FC0146E28A55981044401E411AA5
:10E180005698084400B2ADF86E0120461DF02CFCF4
:10E190002090002120461EF032F9012800D100E035
:10E1A00000201F9049460DA81CF098FE4FF4A020B7
:10E1B0001A90FE480E9000200F9031A8119021A8CF
:10E1C00012904FF0000B33E2E86A30F91B000C901C
:10E1D000BDF86E01401C00B2ADF86A01BDF86A11CD
:10E1E0000C980844401E00B2ADF86E01BDF96A01FA
:10E1F000BDF97E11884200DD1EE21F9858B1218BC7
:10E200005298081A401E2099411A5698081A00B2CE
:10E21000ADF868010AE0A18A53980844401E20998D
:10E22000411A5698084400B2ADF86C010026F7E197
:10E2300000200B90A86A50F8270020B1A86A50F877
:10E24000270000780B901F9880B1BDF86801401E30
:10E2500000B2ADF86C01286B30F81600BDF86C11F7
:10E26000081A401C00B2ADF868010FE0BDF86C015F
:10E27000401C00B2ADF86801286B30F81600BDF8FC
:10E2800068110844401E00B2ADF86C014FF0000860
:10E2900000BF34E007EB0801A86A50F8210048B33A
:10E2A00007EB0802A96A51F8220008B101780B9126
:10E2B0000B9901F00101D9B11F9961B106EB080179
:10E2C000491C2A6B32F81110BDF86821511A09B2A5
:10E2D000ADF868110DE006EB0801491C2A6B32F815
:10E2E0001110BDF86C21114409B2ADF86C1100E0B9
:10E2F0000BE000E009E008F101001FFA80F808EBEC
:10E300000601A88C401E8142C4DB00BFBDF96E012E
:10E31000BDF97A11884207DA08F10100384487B262
:10E3200006EB080086B279E100BFBDF86801ADF8E0
:10E330002400BDF86A01ADF82600BDF86C01ADF807
:10E340002800BDF86E01ADF82A0000BF9DF81F013E
:10E35000400800F0040090B1BDF92410B4F9142075
:10E360005398104481420ADDBDF91C0100EBD071C5
:10E37000BDF82420A2EB610109B2ADF824109DF88C
:10E380001F01400800F0020090B1BDF92610B4F959
:10E3900016205598104481420ADDBDF91C0100EB9E
:10E3A000D071BDF82620A2EB610109B2ADF82610AC
:10E3B0009DF81F01400800F00800B8B1BDF9281011
:10E3C000B4F918205298101A401E81420EDABDF995
:10E3D0001C0100EBD07182B202F0010202EB61017C
:10E3E000BDF82820114409B2ADF828109DF81F018E
:10E3F000C0F34000B8B1BDF92A10B4F91A205498FE
:10E40000101A401E81420EDABDF91C0100EBD071DA
:10E4100082B202F0010202EB6101BDF82A20114430
:10E4200009B2ADF82A104FF0000AE88E584523D102
:10E43000A88EB04220D194F8200000F0400030B9FE
:10E4400094F8200000F0200008B14AF0200A94F867
:10E45000200000F0020008B14AF0020A94F82000FF
:10E4600000F0040008B14AF0040A94F8200000F01B
:10E47000080008B14AF0080ABAF1000F0AD13822A0
:10E480003FA931A81AF0BBFB202229A921A81AF024
:10E49000B6FB1EE0A4F820A0608C20F00400001D54
:10E4A000608431A812F088FF21A811F073FE31AA10
:10E4B0004FF4A02120461FF08FF821AA4FF4A0218D
:10E4C00020461EF0AEFF4D982084608C20F00400A2
:10E4D000608409A81090A88C0BFB00601B900DAA0B
:10E4E0001A21204614F0E2FE09AA31A9484612F08A
:10E4F00047FFA86A50F8270000287DD0BDF86811B2
:10E500005198084400B2ADF86001BDF86C11509804
:10E51000081A00B2ADF86401BDF86A114F980844BA
:10E5200000B2ADF86201BDF86E114E98081A00B243
:10E53000ADF866010B98C0F340000890089810B140
:10E540000220579001E00020579000BFBDF8640101
:10E55000BDF86011401A401C00B20490BDF996202D
:10E5600004995798CDE900210290A86A50F8270035
:10E57000411CBDF998305CA8299A26F0B9FD08988D
:10E5800018BB0C9901EBD172BDF86A3103EB620242
:10E59000BDF9720100EBD073A2EB630212B2ADF8C9
:10E5A00062210C9901EBD17202E00000EC780408C2
:10E5B000BDF86A3103EB6202BDF9720100EBD07362
:10E5C00002EB630212B2ADF866215AAA5EA906A850
:10E5D000F5F70EF90590059890B106A8C9F808005E
:10E5E00000200090A86A50F82700431C58AA21A9CF
:10E5F000484611F0E1F900E003E05EA8C9F8080020
:10E6000000BF0DAA1B21204614F050FE08F10100A6
:10E61000384487B206EB080086B200BF701C86B291
:10E62000A88CB0423FF704AE0BF101001FFA80FB4B
:10E63000E88C58453FF7C8AD00BF5D98C9F80800A1
:10E6400000BF31E52DE9F04FA3B0074689461646D5
:10E65000229730460DF086FB054600EBD5704FEA59
:10E6600060083088404400B2ADF8840070884044AF
:10E6700000B2ADF886001EA811F0D8FD1EAA4FF416
:10E68000A02138461EF034FF18A811F078F918AA16
:10E690004FF4A02138461EF065FE002138461DF0DB
:10E6A000EAFF1790494605A81CF018FC7048069030
:10E6B00021A80E9022983030F6F76CFC0446D1E089
:10E6C00025681694207901285CD1B5F92000E98BE2
:10E6D00008440090B5F92030D5E90512E06819F03A
:10E6E00055FF8246A88B00EB0801608A08440FFAA8
:10E6F00080FB0FFA8AF026F00DFC00FB0BF047F6CA
:10E70000FF7190FBF1F0BDF88610084400B2ADF83F
:10E7100012000FFA8AF026F0F5FB00FB0BF047F62B
:10E72000FF7190FBF1F0BDF88410084400B2ADF821
:10E730001000A08AADF87800208A00B2ADF87A0007
:10E740006079FD2801DD179803E060791799484347
:10E7500000128DF88000012013901EA80B9004A8D1
:10E760000F9005AA1A21384614F0A0FD04AB21AA87
:10E770001EA9484611F043FD05AA1B21384614F096
:10E7800095FD68E02079002865D1206900B963E033
:10E79000B5F92000E98B08440090B5F92030D5E99F
:10E7A0000512E06819F0F2FE824604A9206916F00D
:10E7B00047FFBDF88410A08A081A00B2ADF808001F
:10E7C000BDF88610E08A081A00B2ADF80A00BDF85C
:10E7D00008000499C1F38A210844401E00B2ADF834
:10E7E0000C00BDF80A00049900EB5150401E00B225
:10E7F000ADF80E006079FD2801DD179803E060791F
:10E800001799484300128DF86B00A08AADF8640098
:10E81000E18A18A8C1800AEB8A004FEA400ABAF5DB
:10E82000616F01DDAAF5616A1FFA8AF0ADF8600038
:10E8300018A80C9005AA1A21384614F037FD02AA30
:10E8400018A94846236911F00BF805AA1B21384680
:10E8500014F02CFD00BF00BF214622983030F6F79F
:10E8600093FB0446002C7FF42BAF23B0BDE8F08F60
:10E87000103904082DE9F74F8AB00C46904694F8F9
:10E880002A00022802DC0DB0BDE8F08FE08C00B950
:10E89000F9E794F82A90B9F1FD0F01DD4FF0FF0977
:10E8A000414608A80DF068F9208D401E05B2BDF85C
:10E8B0002000401B00B2ADF82000BDF82200401B34
:10E8C00000B2ADF82200BDF82400284400B2ADF833
:10E8D0002400BDF82600284400B2ADF8260008A99F
:10E8E00006A80DF049F9BDF81800E18C401A00B2F5
:10E8F000ADF81800BDF81C00E18C084400B2ADF87A
:10E900001C00BDF81A00E18C401A00B2ADF81A00E4
:10E91000BDF81E00E18C084400B2ADF81E0008A846
:10E920000DF012FA824608A80DF086F90746B4F9F0
:10E930000060BA4501DA504600E038468346B6EB3F
:10E940006B0F01DD4FEA6B06E08C304400B205909E
:10E95000A07894F82A10CDE90210A08CADF804003C
:10E9600030B2009008AA06A9059B0A98FBF7AFFBF6
:10E9700000BF88E7F8B50546284614F090FC064627
:10E98000284614F089FC0446606BB0F5A02F54D1E2
:10E99000A06B072806D200202169C870216981F880
:10E9A000220014E0208F81B2202230460EF026F99A
:10E9B00068B100202169C870216981F82200122005
:10E9C00020F04AFE0090BDF8001060698181208F20
:10E9D00081B24FF4004230460EF010F998B1662033
:10E9E0002169C870304625F0E1FA0090BDF80010AA
:10E9F0002069818030460EF0FBF8A16B884202D17D
:10EA0000B2202169C870208F81B24FF48042304615
:10EA10000EF0F4F888B1FF20216981F82200304619
:10EA200025F0C4FA0090BDF800102069C183206968
:10EA3000008C401C00B221690884F8BD2DE9F04F1C
:10EA40008BB08146484614F02AFC05462C464846C1
:10EA500014F05CFB8346606A18F07CFB82469AF8EF
:10EA6000000000283ED1A06A00283BD0A06A0078B0
:10EA7000C0B303A811F08EFB03AA4FF4002128466F
:10EA80001EF0CFFC94F85C00C0F3C00028B19DF8E4
:10EA9000290040F002008DF82900002128461DF0D1
:10EAA00097FF0746002128461EF00BF980460021FB
:10EAB00028461DF025FD064605F1140101A80DF0BC
:10EAC00088F808EB060002B2B81901B201A80DF0EF
:10EAD00084F90020009001AA03A95846A36A10F007
:10EAE0006BFF00BF0BB0BDE8F08F7CB50446A0699A
:10EAF00085686089002856D1A089002853D1E08814
:10EB0000218988424FDAE18808B226F003FAB4F985
:10EB10000410B4F90E20891A48432168498801EB92
:10EB2000E03000B2ADF80200E1885A3108B226F0B8
:10EB3000F1F9B4F9041048432168098801EBE03089
:10EB400000B2ADF80400218908B226F0E3F9B4F967
:10EB5000041048432168498801EBE03000B2ADF869
:10EB6000060021895A3108B226F0D4F9B4F904100C
:10EB7000B4F90E20891A48432168098801EBE03076
:10EB800000B2ADF800002A4669466846F4F730FE48
:10EB900006463EB1A169C1F808D06A462169A0695C
:10EBA00012F0EEFBC2E0608910B1A08900287BD191
:10EBB0006089D0BB20680088ADF8000020684088DC
:10EBC000A188084400B2ADF80600E18808B226F03A
:10EBD000A1F9B4F90410B4F90E20891A4843216848
:10EBE000498801EBE03000B2ADF80200E1885A310B
:10EBF00008B226F08FF9B4F9041048432168098857
:10EC000001EBE03000B2ADF804002A4669466846E0
:10EC1000F4F7EEFD06463EB1A169C1F808D06A4698
:10EC20002169A06912F0ACFB00BFA08900287DD14A
:10EC300020680088A188084400B2ADF8040020686C
:10EC40004088ADF80200218908B226F063F9B4F9D2
:10EC5000041048432168498801EBE03000B2ADF868
:10EC6000060021895A3108B226F054F9B4F904108B
:10EC7000B4F90E20891A48432168098801EBE03075
:10EC800000B2ADF800002A4669466846F4F7B0FDC8
:10EC900006463EB1A169C1F808D06A462169A0695B
:10ECA00012F06EFB42E0FFE76089A189884205D13E
:10ECB000608918B12089E188884211DB60890228C7
:10ECC00002D1A08901280BD06089032802D1A08934
:10ECD000022805D06089032828D1A089012825D1E0
:10ECE00020680088ADF8000020684088ADF8020078
:10ECF00020680088A188084400B2ADF804002068AC
:10ED00004088A188084400B2ADF806002A4669464A
:10ED10006846F4F76DFD06463EB1A169C1F808D01A
:10ED20006A462169A06912F02BFB00BFA0698560CB
:10ED30007CBD7CB50446A06985686089012856D1F0
:10ED4000A089012853D1E088218988424FDAE188DF
:10ED500008B226F0DFF8B4F9041048432168498866
:10ED600001EBE03000B2ADF80600E1885A3108B29C
:10ED700026F0D0F8B4F90410B4F90E20891A4843EB
:10ED80002168098801EBE03000B2ADF80400218968
:10ED900008B226F0BFF8B4F90410B4F90E20891AAD
:10EDA00048432168498801EBE03000B2ADF8020029
:10EDB00021895A3108B226F0ADF8B4F9041048435D
:10EDC0002168098801EBE03000B2ADF800002A4666
:10EDD00069466846F4F70CFD06463EB1A169C1F8E4
:10EDE00008D06A462169A06912F0CAFAC7E06089B2
:10EDF000012802D0A08901287ED1608901283AD15A
:10EE000020680088A188401A00B2ADF80000206890
:10EE10004088ADF80200E18808B226F07BF8B4F92A
:10EE2000041048432168498801EBE03000B2ADF896
:10EE30000600E1885A3108B226F06CF8B4F90410E3
:10EE4000B4F90E20891A48432168098801EBE030A3
:10EE500000B2ADF804002A4669466846F4F7C8FCDB
:10EE600006463EB1A169C1F808D06A462169A06989
:10EE700012F086FA00BFA0890128B7D12068008867
:10EE8000401E00B2ADF8040020684088A188084404
:10EE900000B2ADF80600218908B226F03BF8B4F9BB
:10EEA0000410B4F90E20891A48432168498801EBFF
:10EEB000E03000B2ADF8020021895A3108B226F0E4
:10EEC00029F8B4F9041048432168098801EBE030BF
:10EED00000B2ADF800002A4669466846F4F788FC9F
:10EEE00006463EB1A169C1F808D06A462169A06909
:10EEF00012F046FA43E0FFE76089A189884206D113
:10EF00006089012803D02089E18888420FDB60896D
:10EF100010B9A08902280AD0608910B9A0890328F5
:10EF200005D0608903282AD1A089022827D120682A
:10EF30000088A188401A00B2ADF80000206840881F
:10EF4000ADF8020020680088401E00B2ADF8040051
:10EF500020684088A188084400B2ADF806002A461F
:10EF600069466846F4F744FC06463EB1A169C1F81B
:10EF700008D06A462169A06912F002FA00BFA069B0
:10EF800085607CBD7CB50446A069856860890228DF
:10EF900056D1A089022853D1E088218988424FDACE
:10EFA000E1885A3108B225F0B5FFB4F9041048439E
:10EFB0002168098801EBE03000B2ADF80000E1887B
:10EFC00008B225F0A7FFB4F90410B4F90E20891A8D
:10EFD00048432168498801EBE03000B2ADF80600F3
:10EFE000218908B225F096FFB4F90410484321683E
:10EFF000498801EBE03000B2ADF8020021895A31B6
:10F0000008B225F087FFB4F90410B4F90E20891A6C
:10F0100048432168098801EBE03000B2ADF80400F4
:10F020002A4669466846F4F7E3FB06463EB1A16905
:10F03000C1F808D06A462169A06912F0A1F9CCE0B4
:10F040006089022802D0A08902287DD16089022827
:10F050003CD120680088401E00B2ADF80400206852
:10F060004088A188401A00B2ADF80200E1885A3108
:10F0700008B225F04FFFB4F904104843216809880D
:10F0800001EBE03000B2ADF80000E18808B225F0F5
:10F0900041FFB4F90410B4F90E20891A48432168DD
:10F0A000498801EBE03000B2ADF806002A46694617
:10F0B0006846F4F79DFB06463EB1A169C1F808D049
:10F0C0006A462169A06912F05BF900BFA089022895
:10F0D000B5D120680088A188401A00B2ADF80000C0
:10F0E00020684088401E00B2ADF8060021895A31E0
:10F0F00008B225F00FFFB4F90410B4F90E20891AF4
:10F1000048432168098801EBE03000B2ADF8040003
:10F11000218908B225F0FEFEB4F9041048432168A5
:10F12000498801EBE03000B2ADF802002A4669469A
:10F130006846F4F75DFB06464EB1A169C1F808D0F8
:10F140006A462169A06900E002E012F019F944E082
:10F150006089A189884206D16089022803D020896C
:10F16000E18888420FDB608910B9A08903280AD0A2
:10F170006089012802D1A089032804D06089012870
:10F180002BD1A08948BB20680088A188401A00B212
:10F19000ADF8000020684088A188401A00B2ADF8A0
:10F1A000020020680088401E00B2ADF8040020680C
:10F1B0004088401E00B2ADF806002A4669466846FF
:10F1C000F4F716FB06463EB1A169C1F808D06A46BD
:10F1D0002169A06912F0D4F800BFA06985607CBDE8
:10F1E0007CB50446A06985686089032856D1A0894A
:10F1F000032853D1E088218988424FDAE1885A31C7
:10F2000008B225F087FEB4F90410B4F90E20891A6B
:10F2100048432168098801EBE03000B2ADF80000F6
:10F22000E18808B225F076FEB4F90410484321685D
:10F23000498801EBE03000B2ADF8020021895A3173
:10F2400008B225F067FEB4F9041048432168098824
:10F2500001EBE03000B2ADF80400218908B225F0DE
:10F2600059FEB4F90410B4F90E20891A48432168F4
:10F27000498801EBE03000B2ADF806002A46694645
:10F280006846F4F7B5FA06463EB1A169C1F808D060
:10F290006A462169A06912F073F8C7E06089032803
:10F2A00002D0A08903287ED1608903283CD1206840
:10F2B0000088A188084400B2ADF8040020684088A6
:10F2C000401E00B2ADF80600E1885A3108B225F0C0
:10F2D00021FEB4F90410B4F90E20891A48432168BC
:10F2E000098801EBE03000B2ADF80000E18808B217
:10F2F00025F010FEB4F9041048432168498801EB59
:10F30000E03000B2ADF802002A4669466846F4F7DC
:10F310006FFA06463EB1A169C1F808D06A46216974
:10F32000A06912F02DF800BFA08903287ED12068C3
:10F330000088ADF8000020684088A188401A00B21B
:10F34000ADF8020021895A3108B225F0E3FDB4F985
:10F35000041048432168098801EBE03000B2ADF8A1
:10F360000400218908B225F0D5FDB4F90410B4F9E0
:10F370000E20891A48432168498801EBE03000B229
:10F38000ADF806002A4669466846F4F731FA0646A3
:10F390003EB1A169C1F808D06A462169A06911F09F
:10F3A000EFFF43E0FFE76089A189884206D16089C9
:10F3B000032803D02089E18888420FDB6089022876
:10F3C00001D1A08950B16089012801D1A08928B15B
:10F3D000608902282AD1A089012827D120680088C5
:10F3E000ADF8000020684088A188401A00B2ADF84E
:10F3F000020020680088A188084400B2ADF804002B
:10F4000020684088401E00B2ADF806002A466946D2
:10F410006846F4F7EDF906463EB1A169C1F808D097
:10F420006A462169A06911F0ABFF00BFA069856041
:10F430007CBD000070B5A4B006460D4620AA22A9E6
:10F4400030461CF0E5FA22A80CF02EFC28B920A8C2
:10F450000CF02AFC08B924B070BD12A9304629F07E
:10F46000F5FC0446012C00D0F5E7294668461BF060
:10F4700035FD1B4801900220029012A804904FF421
:10F4800080300D9022A80CF00FFC80B122A80390D0
:10F490006A461A21304613F009FF22AA12A928460B
:10F4A00011F06EFF6A461B21304613F0FFFE20A8C4
:10F4B0000CF0FAFB90B120A803906A461A2130465E
:10F4C00013F0F4FE20A8039020AA12A9284611F0F8
:10F4D00057FF6A461B21304613F0E8FE00BFBAE72B
:10F4E000C42C04082DE9F04FB1B005460F4605F1D4
:10F4F00014012FA8BA68F4F77BF910B931B0BDE850
:10F50000F08FB8682E902FA8B8602C4600212846AE
:10F510001DF0E9F92B90002128461DF050FB2A90A0
:10F5200028461BF0C6FFB4F88410484300120FFAB7
:10F5300080FA28461BF09EFFB4F88610484300125C
:10F540000FFA80FB04F12400F5F705FD2890002157
:10F5500028461DF07AF982346188484300122790CA
:10F560002188491E279801FB10A0218890FBF1F00B
:10F5700000B2269028992698B0FBF1F000B22590B1
:10F580004FF4A02128461DF060F96188823C484371
:10F590000012249028461CF023F901462B98401AAB
:10F5A00000B2239028461CF015FA01462A98401A0A
:10F5B00000B2229014A811F0FFFE14AA4FF4A0216B
:10F5C00028461EF009F814A8C07B20F0070114A8F3
:10F5D000C173FF208DF85300688BBDF850100844AC
:10F5E00000B2ADF8B600394602A81BF077FC4FF424
:10F5F000A0200F905D480390042004904FF0000875
:10F60000AAE02798504400FB08F0B4F8821090FB61
:10F61000F1F0A98A01442398084400B20190CDF882
:10F62000408004F12400F5F7B5FC06468CE0307B01
:10F6300000F0010000B181E094F88800C0F3C00040
:10F6400008B9708900E0002000B200900198ADF880
:10F65000B000BDF8B010259801442498081A401E47
:10F6600000B2ADF8B40025990198084400B20190A9
:10F67000BDF9B400BDF9BC10884200DA5EE0BDF906
:10F68000B000BDF9C010884200DD60E03089ADF8FF
:10F69000540000984044B4F8821090FBF1F201FB52
:10F6A00012000FFA80F9706830F91910307BC0F33E
:10F6B000001204F16C0030F91200081A00FB0BF084
:10F6C0002990307BC0F3001104F1700030F9111063
:10F6D000307BC0F3001204F16C0030F91200091AFB
:10F6E000299890FBF1F029902998ABEB0001E88A6A
:10F6F00001442298084400B2ADF8B200706830F9B5
:10F70000190047F6FF71884217D02CA8059014A85D
:10F7100006901396706830F91900129002AA1A2107
:10F72000284613F0C3FD2CAA14A9384611F028FE70
:10F7300002AA1B21284613F0B9FD00BF314604F18F
:10F740002400F5F721FC0646002E7FF470AF00BFC1
:10F7500008F101001FFA80F8B4F8820040453FF735
:10F7600050AF2E98B86000BFC8E60000BC31040856
:10F770002DE9F34FB9B083463A980BF11401826832
:10F7800037A8F4F735F810B93BB0BDE8F08F3A98D8
:10F790008068369037A93A9881605D46B5F8820056
:10F7A000022800DAF0E7002158461CF082FE339070
:10F7B000002158461DF097F801463398084400B2DE
:10F7C0003290002158461DF0FAF90146339808445A
:10F7D00000B2319058461BF06CFEB5F884104843D7
:10F7E000001200B2309058461BF044FEB5F8861067
:10F7F0004843001200B22F9058461BF0F1FF01461B
:10F80000BBF8142032981044401A00B22E9058468B
:10F810001CF0E0F80146BBF8162031981044401A5D
:10F8200000B22D903A980BF1140182682BA8F3F7DF
:10F83000DFFF2A902A9800B9A6E727A810F0F6FC67
:10F8400027AA4FF4A02158461DF052FE19A811F026
:10F85000B3FD19AA4FF4003158461DF0BDFE4FF418
:10F86000003158461DF039FC064600EBD6704710B3
:10F870004FF4003158461CF096FE064600EBD67059
:10F880004FEA600ABDF99E00574501DA394600E0AB
:10F89000514600EBD072B1EB620F06DD9DF8A5007A
:10F8A00020F0100010308DF8A500BDF89E00012852
:10F8B00006D19DF8A50020F0100010308DF8A500AD
:10F8C000B5F882103098814201DB012000E0002071
:10F8D000189005F12400F5F75DFB0446D4E1207B88
:10F8E00000F0010000B1C9E12089ADF89C00208939
:10F8F000ADF8680095F88800C0F3C00008B96089C9
:10F9000000E0002006B217962E98ADF8D4002E988D
:10F91000ADF8D000179E179EB046606830F91810F9
:10F92000207BC0F3001205F16C0030F91200081AB8
:10F930002F9948431690207BC0F3001105F1700009
:10F9400030F91110207BC0F3001205F16C0030F982
:10F950001200091A169890FBF1F0169016992F983C
:10F96000411A2D98084400B2ADF8D20004A83A9983
:10F970001BF0B4FAC8480590032006904FF4A0206D
:10F98000119027A80A9019A808901594BDF9D200E3
:10F990000390BDF9D20002904FF0000923E1BDF8B9
:10F9A000D000ADF8D400BDF8D200ADF8D600BDF956
:10F9B000D4103698B0F904003844401C814200DD70
:10F9C00016E1309800FB09F0B5F88210491E90FB53
:10F9D000F1F12E98084400B2ADF8D00017984844D1
:10F9E000B5F8821090FBF1F201FB120006B26068DC
:10F9F00030F91610207BC0F3001205F16C0030F9CD
:10FA00001200081A2F9948431690207BC0F300116A
:10FA100005F1700030F91110207BC0F3001205F1E0
:10FA20006C0030F91200091A169890FBF1F016904C
:10FA300016992F98411A2D98084400B2ADF8D200BB
:10FA4000BDF9D0103698B0F90000C01B401E8142AD
:10FA500001DAB046C3E0B9F1000F58D01898E8B306
:10FA6000606830F9180047F6FF718842F5D0606889
:10FA700030F916008842F0D0BDF9D21002988142C8
:10FA800001DA029801E0BDF9D2000290BDF9D2106E
:10FA90000398814201DD039801E0BDF9D200039093
:10FAA000BDF9D400BDF9D010884230D0BDF9D200E4
:10FAB0000190BDF8D000401E00B2ADF8D000BDF8F6
:10FAC000D000ADF8D4000398ADF8D6000298ADF898
:10FAD000D200BDF9D600BDF9D21000E018E088428E
:10FAE00005D1BDF8D200401C00B2ADF8D20034AB55
:10FAF00035AA27A93A9810F082FBBDF8D000401C27
:10FB000000B2ADF8D000019803900198029064E033
:10FB1000BDF8D400C01B00B2ADF80000BDF8D400A1
:10FB2000384400B2ADF80400BDF8D600A0EB0A00DE
:10FB300000B2ADF80200BDF8D600504400B2ADF8F6
:10FB40000600A9F101001290606830F9180047F62C
:10FB5000FF71884201D035A800E000200D90606858
:10FB600030F9160047F6FF71884201D034A800E052
:10FB700000200E90CDF81CD0606830F91800149069
:10FB800004AA1A21584613F091FB606830F9180056
:10FB900047F6FF7188420AD0606830F91600884243
:10FBA00005D034AB35AA27A93A9810F028FB77B1D5
:10FBB000BAF1000F0BD0606830F9180047F6FF71FA
:10FBC000884204D06A4619A93A9811F0D9FB04AAD0
:10FBD0001B21584613F06AFB00BFB04600BF09F175
:10FBE00001001FFA80F9B5F8820048453FF7D7AE0B
:10FBF00000BF1898E8BBB5F8820048453DD1606861
:10FC000030F9160047F6FF71884236D0BDF8D000B3
:10FC1000C01B00B2ADF80000BDF8D000384400B2FF
:10FC2000ADF80400BDF8D200A0EB0A0000B2ADF8B8
:10FC30000200BDF8D200504400B2ADF80600A9F1B0
:10FC40000100129000200D900E90CDF81CD060683D
:10FC500030F91600149004AA1A21584613F026FB16
:10FC60006A4619A93A9811F08BFB04AA1B21584641
:10FC700000E002E013F01AFB00BF00BF214605F1CF
:10FC80002400F5F781F90446002C7FF428AE3A9958
:10FC90003698886000BF77E5BC3104082DE9F34F42
:10FCA000B3B08146349809F11401826831A8F3F7A2
:10FCB0009FFD10B935B0BDE8F08F34988068309062
:10FCC00031A9349881604D46002148461CF0F1FB73
:10FCD0002D90002148461CF006FE2C90002148463D
:10FCE0001CF06DFF2B9048461BF0E3FBB5F8841029
:10FCF0004843001200B22A9048461BF0BBFBB5F8FF
:10FD000086104843001200B2299048461BF068FD57
:10FD10000146B9F814202C9802442D981044401A3A
:10FD200000B2289048461BF055FE0146B9F816204F
:10FD30002B9802442D981044401A00B2279024A812
:10FD400010F074FA24AA4FF4A02148461DF0D0FB0D
:10FD500016A811F031FB16AA4FF4003148461DF0E9
:10FD60003BFC4FF4003148461DF0B7F9064600EB66
:10FD7000D67047104FF4003148461CF014FC06467C
:10FD800000EBD6704FEA6008BDF99200474501DAF2
:10FD9000394600E0414600EBD072B1EB620F06DD60
:10FDA0009DF8990020F0100010308DF89900BDF8F2
:10FDB0009200012806D19DF8990020F01000103023
:10FDC0008DF8990005F12400F5F7E4F8044698E170
:10FDD000207B00F0010000B18DE12089ADF890009A
:10FDE0002089ADF85C0095F88800C0F3C00008B920
:10FDF000608900E0002006B215962898ADF8BC0096
:10FE00002898ADF8B800159E159EB346606830F886
:10FE100016000A2847D02A980090236833F9160064
:10FE2000237BC3F3C00C05F1780333F91C20237B3B
:10FE3000C3F3C00C05F1740333F91C10002318F050
:10FE4000A5FB00B2ADF8B800BDF8B810289808447A
:10FE500000B2ADF8B80029980090636833F9160035
:10FE6000237BC3F3001C05F1700333F91C20237BB3
:10FE7000C3F3001C05F16C0333F91C10002318F0C8
:10FE800085FB00B2ADF8BA00BDF8BA102998401A47
:10FE900000B2ADF8BA00BDF8BA102798084400B215
:10FEA000ADF8BA0005E04EF20100ADF8B800ADF8CB
:10FEB000BA0003A834991BF011F84FF4A020109059
:10FEC000944804900320059024A8099016A8079050
:10FED00014944FF0000AC8E0BDF8B800ADF8BC00BB
:10FEE000BDF8BA00ADF8BE0015985044B5F88210C0
:10FEF00090FBF1F201FB120006B2606830F91600C7
:10FF000047F6FF71884247D029980090636833F91B
:10FF10001600237BC3F3001C05F1700333F91C208A
:10FF2000237BC3F3001C05F16C0333F91C10002381
:10FF300018F02CFB00B2ADF8BA00BDF8BA10299841
:10FF4000401A00B2ADF8BA00BDF8BA1027980844BC
:10FF500000B2ADF8BA002A980090236833F9160071
:10FF6000237BC3F3C00C05F1780333F91C20237BFA
:10FF7000C3F3C00C05F1740333F91C10002318F00F
:10FF800005FB00B2ADF8B800BDF8B81028980844D9
:10FF900000B2ADF8B80001E0B34662E0BAF1000F7C
:10FFA0005DD0BDF8BC00C01B00B2ADF80400BDF8C8
:10FFB000BC00384400B2ADF80800BDF8BE00A0EBAC
:10FFC000080000B2ADF80600BDF8BE00404400B223
:10FFD000ADF80A00AAF101001190606830F91B0029
:10FFE00047F6FF71884201D02FA800E000200C9056
:10FFF000606830F9160047F6FF71884201D02EA8DC
:020000040801F1
:1000000000E000200D9001A80690606830F91B0008
:10001000139003AA1A21484613F048F9606830F992
:100020001B0047F6FF71884213D0606830F9160054
:1000300088420ED02EAB2FAA24A9349810F0DFF8F6
:100040003FB1B8F1000F04D001AA16A9349811F0FD
:1000500097F903AA1B21484613F028F900BFB346BD
:1000600000BF0AF101001FFA80FAB5F8820050457E
:100070003FF732AFB5F8820050453BD1606830F9A8
:10008000160047F6FF71884234D0BDF8B800C01B97
:1000900000B2ADF80400BDF8B800384400B2ADF8C5
:1000A0000800BDF8BA00A0EB080000B2ADF80600E9
:1000B000BDF8BA00404400B2ADF80A00AAF1010050
:1000C000119000200C900D9001A80690606830F906
:1000D0001600139003AA1A21484613F0E7F801AA64
:1000E00016A9349811F04CF903AA1B21484613F0C5
:1000F000DDF800BF00BF214605F12400F4F744FFFE
:100100000446002C7FF464AE34993098886000BFB8
:10011000D0E50000BC3104082DE9F74FA2B00F462E
:10012000F88D10B925B0BDE8F08F97F83600022899
:1001300000DCF7E7F88D012808D1B7F93400002872
:1001400004DC388E10B9788E00B9EBE7249800886B
:10015000398E0844B98E401A00B2ADF88000249858
:100160008088398E0844B98E084400B2ADF8840006
:1001700024984088798E0844B98E401A00B2ADF8B0
:1001800082002498C088798E0844B98E084400B251
:10019000ADF88600B7F92E0000EBD071BDF88020D5
:1001A000A2EB6101491E09B2ADF87810B7F92E0033
:1001B00000EBD071BDF8842002EB6101491C09B24B
:1001C000ADF87C10B7F92E0000EBD071BDF882209D
:1001D000A2EB6101491E09B2ADF87A10B7F92E0001
:1001E00000EBD071BDF8862002EB6101491C09B219
:1001F000ADF87E1097F836001D901D98FD2801DDA2
:10020000FF201D9022981EA982681BA8F3F7F0FA20
:1002100000B987E719A824990BF0AEFC4FF0FF3224
:10022000114619A80BF0C8FDB7F9008019A80BF00A
:100230008BFD834619A80BF0FFFC834503DA19A850
:100240000BF082FD02E019A80BF0F6FC189018984C
:10025000B8EB600F02DD18984FEA6008B7F90000AC
:10026000179020A80BF070FD834620A80BF0E4FC4B
:10027000834503DA20A80BF067FD02E020A80BF00D
:10028000DBFC1890DDE91701B0EB610F02DD189877
:1002900040101790B7F92E1017980C1804FB04F1B2
:1002A000480018F02BFA8246B7F92E20179803B2AF
:1002B000514620A828F0FAFF1EA810F0A5FB1690C2
:1002C0004FF00109169820B9F878FF2801DBB878BB
:1002D00008B14FF000094FF0FF300F90B9F1000F57
:1002E0000BD101230FFA88F219A910A810F004FF0E
:1002F000002110A80FF0C6FF0F901EA80BF024FDE0
:10030000834618F0FBF90E901C2102A818F011FE8C
:100310000CA8029007900E980590B88DADF81000CB
:1003200097F836008DF82000B8788DF821001EA8C7
:100330000BF00AFD834600EBDB70BDF8781001EB93
:10034000600000B201901EA80BF076FC834600EB23
:10035000DB70BDF87A1001EB600000B20090BDF8D0
:100360007C00ADF83400BDF87C00001B401C00B2DE
:10037000ADF83000BDF87A00ADF83200BDF87A0073
:100380002044401E00B2ADF83600BDF9301001988F
:10039000814202DDBDF9300000E00198ADF8300087
:1003A000BDF936100098814202DABDF9360000E04E
:1003B0000098ADF8360022980CA982680AA8F3F7D5
:1003C00017FA002866D00FFA88F219A90AA8F3F7DD
:1003D00050FA00285ED10AA80BF0B6FC83465646B8
:1003E000BDF92A00BDF97A10401A00FB0466BDF978
:1003F0002810BDF97C00001B401C081A0644B9F106
:10040000000F09D00FFA88F219A90AA8F3F7ACFA7D
:1004100010B10120099001E0CDF82490BBF1000F4C
:1004200037DD0E980590BDF82800ADF83000BDF816
:100430002C00ADF8340002208DF81800BDF92A50C8
:1004400023E0ADF83250ADF836500998A8B92246ED
:1004500031460E9818F0D3FBBDF928105B462A46AA
:100460000E9810F081FA8DF818009DF818000128F8
:1004700004D102208DF8180000E0059602A9229808
:1004800011F0BCF92644681C05B2BDF92E00A84243
:10049000D7DA00BFBDF87C00ADF83400BDF87C00B1
:1004A000001B401C00B2ADF83000BDF87E00001B00
:1004B000401C00B2ADF83200BDF87E00ADF8360049
:1004C000BDF930100198814202DDBDF9300000E035
:1004D0000198ADF83000BDF932100098401C8142FF
:1004E00002DDBDF9320001E00098401C00B2ADF819
:1004F000320022980CA982680AA8F3F779F900283B
:1005000066D00FFA88F219A90AA8F3F7B2F9A8BBC6
:100510000AA80BF019FC83465646BDF93600BDF912
:100520002E10401A00FB0466BDF92810BDF97C00AE
:10053000001B401C081A0644B9F1000F09D00FFA3D
:1005400088F219A90AA8F3F70FFA10B1012009904F
:1005500001E0CDF82490BBF1000F38DD0E98059036
:10056000BDF82800ADF83000BDF82C00ADF834001F
:1005700002208DF81800BDF92E5024E028E0ADF8D7
:100580003250ADF836500998A8B9224631460E9837
:1005900018F035FBBDF928105B462A460E9810F07E
:1005A000E3F98DF818009DF81800012804D1022005
:1005B0008DF8180000E0059602A9229811F01EF9A6
:1005C0002644681E05B2BDF92A00A842D7DD00BF47
:1005D000BDF87800204400B2ADF83000BDF87C00D2
:1005E000001B00B2ADF83400BDF87A00ADF832005F
:1005F000BDF87A002044401E00B2ADF83600BDF9C7
:1006000036100098814202DABDF9360000E0009809
:10061000ADF8360022980CA982680AA8F3F7E8F82A
:1006200000286FD00FFA88F219A90AA8F3F721F968
:10063000002867D10AA80BF087FB83465646BDF910
:100640002A00BDF93210401A00FB0466B9F1000F10
:1006500009D00FFA88F219A90AA8F3F785F910B1A1
:100660000120099001E0CDF82490BBF1000F48DD96
:10067000099810B90E98059001E000200590BDF88A
:100680002800ADF83000BDF82C00ADF83400BDF9FD
:100690002A5032E0ADF83250ADF836500998C8B95A
:1006A00031785A460E9818F00AFCBDF928105B46BE
:1006B0002A460E9810F058F98DF818009DF8180089
:1006C000012802D102208DF8180002A9229811F009
:1006D00095F80FE01D98FF2801D1307804E03078BC
:1006E00097F83610484300128DF8200002A922988E
:1006F00011F084F82644681C05B2BDF92E00A8420A
:10070000C8DA00BF97F836008DF82000BDF87800F1
:10071000204400B2ADF83000BDF87C00001B00B2F0
:10072000ADF83400BDF87E00001B401C00B2ADF8EF
:100730003200BDF87E00ADF83600BDF932100098E9
:10074000401C814202DDBDF9320001E00098401CEE
:1007500000B2ADF8320022980CA982680AA8F3F71B
:1007600047F800287ED00FFA88F219A90AA8F3F7F3
:1007700080F8002878D10AA80BF0E6FA834656469E
:10078000BDF93600BDF92E10401A00FB0466BBF11E
:10079000000F66DDB9F1000F09D00FFA88F219A930
:1007A0000AA8F3F7E1F810B10120099001E0CDF8B3
:1007B0002490099810B90E98059001E0002005904A
:1007C000BDF82800ADF83000BDF82C00ADF83400BD
:1007D000BDF92E5041E0ADF83250ADF83650B9F1C8
:1007E000000F09D00FFA88F219A90AA8F3F7BCF88C
:1007F00010B10120099001E0CDF824900998C8B902
:1008000031785A460E9818F05AFBBDF928105B460D
:100810002A460E9810F0A8F88DF818009DF81800D8
:10082000012802D102208DF8180002A9229810F0A8
:10083000E5FF0FE01D98FF2801D1307804E0307803
:1008400097F83610484300128DF8200002A922982C
:1008500010F0D4FF2644681E05B2BDF92A00A84254
:10086000B9DD00E000E000BF97F836008DF8200009
:10087000BDF87C00001B401C00B2ADF83000BDF894
:100880007C00ADF83400BDF87A00204400B2ADF829
:100890003200BDF87E00001B00B2ADF83600BDF995
:1008A00032100098401C814202DABDF9320001E0AA
:1008B0000098401C00B2ADF83200BDF93610009827
:1008C000814202DDBDF9360000E00098ADF8360047
:1008D000BDF930100198814202DDBDF9300000E021
:1008E0000198ADF8300022980CA982680AA8F2F7A6
:1008F0007FFFE0B30FFA88F219A90AA8F2F7B9FF4F
:10090000A8BB0AA80BF020FA83465646601E00FBDF
:100910000466BDF92810BDF97C00001B401C081AB4
:100920000644B9F1000F09D00FFA88F219A90AA8F4
:10093000F3F71AF810B10120099001E0CDF82490E6
:10094000099808B1304600E00E980590BBF1000F01
:1009500033DDBDF82800ADF83000BDF82C00ADF84F
:10096000340002208DF81800BDF92A5021E025E05E
:10097000ADF83250ADF836500998A0B95A46314614
:100980000E9818F03CF9BDF928105B462A460E98DF
:100990000FF0EAFF8DF818009DF81800012802D129
:1009A00002208DF8180002A9229810F027FF681C79
:1009B00005B2BDF92E00A842DADA00BF564600257E
:1009C00015E030463319591E002208E0037891F8EB
:1009D00000C080F800C00B70401C491E521C04EB84
:1009E000D47CB2EB6C0FF1DB2644681C05B2A54247
:1009F000E7DBBDF87800ADF83000BDF878002044A2
:100A0000401E00B2ADF83400BDF87A00204400B2B8
:100A1000ADF83200BDF87E00001B00B2ADF8360024
:100A2000BDF932100098401C814202DABDF9320053
:100A300001E00098401C00B2ADF83200BDF936105C
:100A40000098814202DDBDF9360000E00098ADF863
:100A50003600BDF934100198401E814202DABDF91A
:100A6000340001E00198401E00B2ADF83400229835
:100A70000CA982680AA8F2F7BBFED0B30FFA88F27D
:100A800019A90AA8F2F7F5FE98BB0AA80BF05CF9C1
:100A900083465646601E00FB0466BDF92800BDF97A
:100AA0003010401A0644B9F1000F09D00FFA88F24D
:100AB00019A90AA8F2F758FF10B10120099001E026
:100AC000CDF82490099808B1304600E00E980590C2
:100AD000BBF1000F33DDBDF82800ADF83000BDF8E4
:100AE0002C00ADF8340002208DF81800BDF92A5012
:100AF00021E025E0ADF83250ADF836500998A0B9A4
:100B00005A4631460E9818F07AF8BDF928105B461F
:100B10002A460E980FF028FF8DF818009DF818004F
:100B2000012802D102208DF8180002A9229810F0A5
:100B300065FE681C05B2BDF92E00A842DADA00BFD6
:100B4000BDF87800ADF83000BDF878002044401EB4
:100B500000B2ADF83400BDF87A00ADF83200BDF84F
:100B60007A002044401E00B2ADF83600BDF93410C2
:100B70000198401E814202DABDF9340001E001987B
:100B8000401E00B2ADF83400BDF936100098814225
:100B900002DABDF9360000E00098ADF83600229880
:100BA0000CA982680AA8F2F723FED0B30FFA88F2E4
:100BB00019A90AA8F2F75DFE98BB0AA80BF0C4F8C1
:100BC00083465646BDF92A00BDF93210401A00FB93
:100BD0000466BDF92800BDF93010401A0644B9F189
:100BE000000F09D00FFA88F219A90AA8F2F7BCFE83
:100BF00010B10120099001E0CDF824900E980590E5
:100C0000BBF1000F36DDBDF82800ADF83000BDF8AF
:100C10002C00ADF8340002208DF81800BDF92A50E0
:100C200024E028E0ADF83250ADF836500998A8B964
:100C3000224631460E9817F0E2FFBDF928105B46B8
:100C40002A460E980FF090FE8DF818009DF81800B7
:100C5000012804D102208DF8180000E0059602A9B1
:100C6000229810F0CBFD2644681C05B2BDF92E0079
:100C7000A842D7DA00BFBDF87800ADF83000BDF863
:100C800078002044401E00B2ADF83400BDF87E006C
:100C9000001B401C00B2ADF83200BDF87E00ADF87C
:100CA0003600BDF932100098401C814202DDBDF9CA
:100CB000320001E00098401C00B2ADF83200BDF9EE
:100CC00034100198401E814202DABDF9340001E07F
:100CD0000198401E00B2ADF8340022980CA9826839
:100CE0000AA8F2F785FDD0B30FFA88F219A90AA86D
:100CF000F2F7BFFD98BB0AA80BF026F883465646CC
:100D0000BDF93600BDF92E10401A00FB0466BDF98E
:100D10002800BDF93010401A0644B9F1000F09D07F
:100D20000FFA88F219A90AA8F2F71EFE10B10120E5
:100D3000099001E0CDF824900E980590BBF1000FCA
:100D400036DDBDF82800ADF83000BDF82C00ADF858
:100D5000340002208DF81800BDF92E5024E028E060
:100D6000ADF83250ADF836500998A8B92246314650
:100D70000E9817F044FFBDF928105B462A460E98DE
:100D80000FF0F2FD8DF818009DF81800012804D12D
:100D900002208DF8180000E0059602A9229810F0B4
:100DA0002DFD2644681E05B2BDF92A00A842D7DDF4
:100DB00000BFBDF87800204400B2ADF83000BDF8A7
:100DC0007C00001B00B2ADF83400BDF87A0020446E
:100DD00000B2ADF83200BDF87E00001B00B2ADF8E5
:100DE00036000E98059022980CA982680AA8F2F79E
:100DF000FFFCA0B30FFA88F219A90AA8F2F739FD8F
:100E000068BB0AA80AF0A0FF8346BBF1000F25DDEE
:100E1000BDF82800ADF83000BDF82C00ADF8340066
:100E2000BDF92A5016E0ADF83250ADF836505946AB
:100E30000E9818F0B5F8BDF928105B462A460E98B2
:100E40000FF092FD8DF8180002A9229810F0D6FC40
:100E5000681C05B2BDF92E00A842E4DA00BFB9F162
:100E6000000F05D110A80FF0ABFD0F9810F076FA27
:100E7000504617F049FD0E9817F046FD00BFFFF7EA
:100E800051B900002DE9F74FDEB05E985D90609893
:100E90000AF068FF804600EBD8704FEA600A60985D
:100EA0000AF0D8FE074600EBD7704010824507DAFB
:100EB00060980AF057FF064606EBD670401006E031
:100EC00060980AF0C7FE054605EBD570401000B2E9
:100ED0005B90609801885B98084400B2ADF870019F
:100EE000609841885B98084400B2ADF8720158A838
:100EF0000FF09CF958AA4FF4C0215E981CF0F8FA44
:100F00009DF8690120F0100010308DF8690150A89B
:100F10000FF040F950AA4FF4C0215E981CF081FAFE
:100F20002CA85F9919F0DAFFFE482D904FF4C020ED
:100F3000399003202E9058A832905D982430F4F711
:100F400029F8044641E23D94A18B5B98084406B21F
:100F5000A088301A00B22B90A089301A0FFA80FABC
:100F6000BDF870112B98081A00B2ADF8A400BDF8B6
:100F700072112B98081A00B2ADF8A600BDF87011D6
:100F80002B98084400B2ADF8A800BDF872112B9858
:100F9000084400B2ADF8AA00012347F6FF7229A960
:100FA0004AA810F0A9F8BDF87001A0EB0A0000B241
:100FB000ADF89C00BDF87201A0EB0A0000B2ADF8DC
:100FC0009E00BDF870015044401E00B2ADF8A00074
:100FD000BDF872015044401E00B2ADF8A2000123DA
:100FE00047F6FF7227A944A810F086F8BDF87001F3
:100FF000801B00B2ADF89400BDF87201801B00B2F6
:10100000ADF89600BDF870013044401E00B2ADF856
:101010009800BDF872013044401E00B2ADF89A004D
:10102000002347F6FF7225A93EA810F065F80021BD
:101030003EA80FF027F924904FF0FF3023906089ED
:1010400010B16089401E01E04FF6FF7022904FF012
:101050000009A4E12298401C22900020219061897F
:101060002298814203D10020229001202190A06982
:1010700000906088421E00214846636917F086FA96
:1010800007463C97219810B12089209001E0206804
:10109000209020981F90219808B1E08900E0E08816
:1010A0000FFA80F8CDF87880DDF878805D983030E0
:1010B000F3F770FF05465FE02879022800D055E07D
:1010C000A868B84251DCE868B8424EDB288A404440
:1010D0000FFA80F8698AA88A814202D1688A209032
:1010E00043E0A87D00F0010050B1FF2000900023F4
:1010F0003846D5E9021217F049FAC0B2139009E058
:10110000FF20009000233846D4E9051217F03EFA7C
:10111000C0B21390A98A1191698A1291139800F1B3
:10112000040C4FEAEC00BDF848C04CEA0C4CDFF868
:10113000F8E10CEA0E01BDF844C04CEA0C4C0CEA94
:101140000E03A3EB010C0CFB00FC01EB5C1C0CEA96
:101150000E0242EA124C1FFA8CFCCDF840C0BDF8DA
:1011600040E0F446CDF880C000BF00BF29465D983E
:101170003030F3F709FF0546002D9DD1E08B00FBD1
:1011800009F001026088401E91FBF0F01D901D984F
:1011900000121C901C98401C1B901D9800F0FF0B27
:1011A000228C1C99114408B223F0B4FE1A90228CB0
:1011B0001B99114408B223F0ADFE1990CBF5807154
:1011C0001A984143199800FB0B1000121890228CBA
:1011D0001C99114408B223F095FE1790228C1B999C
:1011E000114408B223F08EFE1690CBF5807117984B
:1011F0004143169800FB0B1000121590BDF88000BB
:10120000ADF86001ADF86281BDF8702106EB080110
:10121000159848437F3002EBE03000B2ADF8500043
:10122000BDF8722106EB0801189848437F3002EBA5
:10123000E03000B2ADF8520014A835905CA83590AB
:10124000CDF8E89050A83190219800287CD02498BF
:1012500010F084F8B4F91000AAEB00001390BDF868
:1012600070211399159848437F3002EBE03000B2AB
:10127000ADF84800BDF872211399189848437F30A3
:1012800002EBE03000B2ADF84A00202250A90AA8D3
:1012900017F0B5FC0AA831903B4624A2102106A8FD
:1012A0001FF036FD06A837902CAA1A215E9811F07F
:1012B000FDFF002141F6FF72BDF95201CDE9012188
:1012C0000090BDF9543105A8509A379923F010FFCA
:1012D000BDF9140000EBD071BDF84820A2EB61010C
:1012E00009B2ADF80C10BDF9160000EBD071BDF8D5
:1012F0004A20A2EB610109B2ADF80E10BDF80C0056
:10130000BDF81410084400B2ADF81000BDF80E008E
:10131000BDF81610084400B2ADF81200002000908D
:1013200003AA06E0103904081FF8E007256400004E
:101330000AE0379B31995F980EF03EFB00213EA8F2
:101340000EF0A0FF249007E00020319037902CAAE7
:101350001A215E9811F0AAFF219909B144A900E071
:101360004AA9084600210EF08DFF23905CAB14AA19
:1013700058A95F980EF043FF23980FF0EFFF2CAAB7
:1013800016215E9811F092FFBDF87C00ADF8600167
:101390001E98ADF8620109F1010000F0FF096088B4
:1013A00048453FF757AE4AA80FF00AFB44A80FF094
:1013B00007FB3EA80FF004FB24980FF0CFFF214657
:1013C0005D982430F3F7E0FD0446002C7FF4BBADBC
:1013D00061B0BDE8F08F00002DE9F04FB1B00546D7
:1013E0008B4690462E464146284603F007FA0446AF
:1013F0002089C0F30E00012802DC31B0BDE8F08F77
:101400002089C0F3C03020B9208810B9608800B9A5
:10141000F3E7002128461BF066FA824600212846A1
:101420001BF047F8504400B22E9028461AF041F8BD
:10143000B6F884104843001200B22D9025A80EF093
:10144000A9FE25AA4FF4C02128461BF0EAFF284632
:101450001AF0C6F90146AA8A2E981044401A00B222
:101460002490B8F1020F0ED12089C0F3C03028B10A
:101470004FF4C02128461BF059F900E000202390CA
:10148000B5F91A900DE02089C0F3C03028B14FF4AF
:10149000C02128461BF093FB00E000202390B5F903
:1014A0001690B8F1020F16D1DBF80800B0F906006B
:1014B000484500DAA1E7239848442599B1F9081076
:1014C0000844B4F900100844DBF80810B1F9021020
:1014D000884200DA91E720A80EF0A8FE20AA4FF477
:1014E000C02128461CF004F80020ADF88600ADF8B5
:1014F000840059460EA819F0F1FCA6480F9006206A
:10150000109002201C904FF4C0201B9025A813902F
:1015100020A81490B8F1020F01D0012000E00020B3
:101520000D9096F8880000F00700022822D10021D3
:1015300028461BF08AF9B6F8841048434FEA202A5F
:101540002D985044B6F8821090FBF1F000B20B9049
:101550000B99A1EB0A0000EBD0714A1024991144B9
:1015600009B224910B98A0EB0A012D98401A00B201
:101570002D9000BFADF8C2902089C0F30E00401E30
:101580006168C1F30E4148430C900027FBE0002046
:101590000B906068C0F30E40B7FBF0F100FB1170D8
:1015A00008B901200B90BDF982102D98401A78439C
:1015B0000C99B0FBF1F12498084400B2ADF8C000DA
:1015C000ADF8BC000D9868B1BDF9C2100B9810B110
:1015D000B4F9000001E0B4F90200081A00B2ADF855
:1015E000BE000CE0BDF9C2100B9810B1B4F90000B8
:1015F00001E0B4F90200084400B2ADF8BE0030A822
:1016000017902FA8189096F8880000F0070003287C
:1016100010D106F178000D9930F91100009006F113
:10162000740030F91130002138460C9A16F0AEFFE4
:10163000824604E06068C0F30E40B7FBF0FACDF8D4
:1016400078A00B98002871D02089C0F3C030002802
:101650006CD0534650A2102107A81FF059FB25A8B3
:10166000139007A8199010201A900EAA1A21284644
:1016700011F01CFE002141F6FF72BDF9A600CDE974
:1016800001210090BDF9A83006A8259A199923F0E8
:101690002FFDBDF9180000EBD071BDF8BC20A2EB06
:1016A000610109B2ADF81010BDF9180000EBD0715E
:1016B000BDF8BC2002EB610109B2ADF814100D9821
:1016C00078B1BDF8BE102398081A00B2ADF8160024
:1016D000BDF81600BDF81A10401A00B2ADF812009D
:1016E0000EE0BDF8BE102398084400B2ADF8120019
:1016F000BDF81200BDF81A10084400B2ADF816008B
:10170000BDF91400B5F9141088420DDBBDF91010B5
:10171000B5F91800814207DC0020009004AA25A931
:101720005846199B0EF048F909E0FFE70020139096
:1017300019901A900EAA1A21284611F0B7FDBDF98A
:10174000821001EBD172BDF9C03003EB6202B5F932
:1017500014309A4211DBBDF9820000EBD072BDF962
:10176000BC30A3EB6203B5F91820934205DC2FAB24
:1017700030AA20A958460EF042FD0EAA1B21284689
:1017800011F094FD7F1C0C9887427FF600AF00BFDC
:1017900033E60000BC310408256400002DE9F74F52
:1017A000B2B00546164631953146284603F026F874
:1017B00004462089C0F30E00012802DC35B0BDE8E4
:1017C000F08F2089C0F3C03020B9208810B960881C
:1017D00000B9F3E70EB1012000E0002083460021AC
:1017E00028461AF066FE2E90002128461BF0E7F9E5
:1017F0002D90284619F03EFE3199B1F886104843E5
:10180000001200B22C9028461AF0E4F80146EA8A49
:101810002D9802442E981044401A00B22B904EB9D5
:101820004FF4C02128461BF05EF80746B5F91400B6
:101830002A9008E04FF4C02128461BF0FDF8074627
:10184000B5F918002A90B4F900002990B4F9020003
:101850002890012E07D12998404200B2299028985B
:10186000404200B2289025A80EF0E0FC25AA4FF4D3
:10187000C02128461BF03CFE1DA80EF08BFC1DAAC3
:101880004FF4C02128461BF0CCFD0BA8339919F06A
:1018900025FB89480C9006200D901996000418909D
:1018A00025A811901DA810902089C0F30E00401E9D
:1018B0006168C1F30E4100FB01F94FF00008F6E04A
:1018C000BDF996102C98401A00FB08F0B0FBF9F116
:1018D0002B98084400B2ADF8C200ADF8BE002A98BB
:1018E000ADF8C00036B9BDF8C000401E00B2ADF87A
:1018F000C00005E0BDF8C000401C00B2ADF8C0005B
:1019000000200A906068C0F30E40B8FBF0F100FBC5
:10191000118008B901200A900A9838B1BDF8C010AA
:101920002998081A00B2ADF8BC0006E0BDF8C01056
:101930002898081A00B2ADF8BC0030A814902FA85F
:1019400015903198703030F91B00009031996C314E
:1019500031F91B30A9EB08004A46002116F016FEAB
:101960008246CDF86CA00A98002872D02089C0F376
:10197000C03000286DD0534650A2102106A81FF099
:10198000C7F91DA8109006A81690102017900BAA52
:101990001A21284611F08AFC002141F6FF72BDF998
:1019A0008600CDE901210090BDF9883005A81D9A77
:1019B000169923F09DFBBDF9160000EBD071BDF820
:1019C000BE20A2EB610109B2ADF80E10BDF9160000
:1019D00000EBD071BDF8BE2002EB610109B2ADF899
:1019E0001210BBF1000F0FD1BDF8BC00BDF81410F0
:1019F000401AC01B00B2ADF80C00BDF8BC00C01B03
:101A000000B2ADF810000EE0BDF8BC00384400B2E2
:101A1000ADF80C00BDF8BC00BDF814100844384403
:101A200000B2ADF81000BDF91210B5F916008142F0
:101A30000DDBBDF90E10B5F91A00814207DC00205C
:101A4000009003AA1DA9169B33980DF0B5FF09E07D
:101A5000FFE700201090169017900BAA1A21284635
:101A600011F024FCBDF9961001EBD172BDF9C23022
:101A700003EB6203B5F91620934211DBBDF9960022
:101A800000EBD072BDF9BE30A3EB6203B5F91A20AA
:101A9000934205DC2FAB30AA25A933980EF0AFFB9B
:101AA0000BAA1B21284611F001FC08F10108C845CA
:101AB0007FF606AF00BF81E6BC3104082564000054
:101AC0002DE9FE4F06460C46174698462021304623
:101AD0001BF094FB00287DD00C98032803D13046DE
:101AE00019F064FF02E0304619F06AFF814614F0F5
:101AF000F3FA05464FF0000A002002900C980328E4
:101B000043D1002130461AF0C7FE834600213046FB
:101B10001AF06BFF0190B9F1010F23D0B9F1020F58
:101B200028D0B9F1030F2ED106F114000AF0CDF838
:101B3000A0EB0B010198081A009000EBD0700BEBA2
:101B40006000B18A08440FFA80FA05F114000AF027
:101B5000BCF8009000EBD070A98A01EB600000B2E5
:101B6000029010E0B08A58440FFA80FAB5F91400D8
:101B7000029008E0318B0198081A0FFA80FAB5F943
:101B80001800029000BF00BF45E0002130461AF067
:101B9000EFFF8346002130461AF0A1FD0190B9F114
:101BA000010F25D0B9F1020F2AD0B9F1030F30D1BE
:101BB00006F114000AF016F8A0EB0B010198081AC0
:101BC000009000EBD0700BEB6001F08A08440FFA34
:101BD00080FA00E054E005F114000AF003F80090E8
:101BE00000EBD0704110E88A084400B2029010E087
:101BF000F08A58440FFA80FAB5F91600029008E00E
