:020000040800F2
:1000000080CB0020D1020008C32D0008BB2D0008C2
:10001000BF2D0008DD18000889300008000000002E
:10002000000000000000000000000000390200088D
:10003000E1180008000000007D020008ED2D000816
:10004000EB020008EB020008EB020008EB020008DC
:10005000EB020008EB020008EB020008EB020008CC
:10006000EB020008EB020008EB020008EB020008BC
:10007000EB020008EB020008EB020008EB020008AC
:10008000EB020008EB020008EB020008EB0200089C
:10009000EB020008EB020008EB020008EB0200088C
:1000A000EB020008EB020008EB020008EB0200087C
:1000B000EB020008EB020008EB020008EB0200086C
:1000C000EB020008EB020008EB020008EB0200085C
:1000D000EB02000865300008EB020008EB020008A4
:1000E000EB020008EB020008EB020008EB0200083C
:1000F000EB020008EB020008EB020008EB0200082C
:10010000EB020008EB020008EB020008EB0200081B
:10011000EB020008EB020008052E0008EB020008C5
:10012000EB020008EB020008EB020008EB020008FB
:1001300000F002F800F070F80AA090E8000C824489
:100140008344AAF10107DA4501D100F065F8AFF266
:10015000090EBAE80F0013F0010F18BFFB1A43F0A5
:1001600001031847B0F70300D0F703000A444FF02B
:10017000000C10F8013B13F0070408BF10F8014B06
:100180001D1108BF10F8015B641E05D010F8016B4B
:10019000641E01F8016BF9D113F0080F1EBF10F8AF
:1001A000014BAD1C0C1B09D16D1E58BF01F801CBD2
:1001B000FAD505E014F8016B01F8016B6D1EF9D555
:1001C0009142D6D37047000000230024002500266A
:1001D000103A28BF78C1FBD8520728BF30C148BFAA
:1001E0000B607047662937F0EE87642900F0528172
:1001F000782900F08B81732900F0838600207047F6
:100200001FB500F0B7FE04000020002137F07CFA93
:10021000E0601FBD10B510BD00F06AFF1146FFF78A
:10022000EFFF2EF09DFD00F088FF03B4FFF7F2FF13
:1002300003BC05F077F80000224B19680868B0E8A5
:10024000F00F80F30988BFF36F8F4FF0000080F349
:1002500011884EF00D0E704700000000064800683F
:10026000006880F3088862B661B6BFF34F8FBFF3B2
:100270006F8F00DF00BF00BF08ED00E0EFF30980E3
:10028000BFF36F8F0F4B1A6820E9F00F106008B5AD
:100290004FF0500080F31188BFF34F8FBFF36F8F83
:1002A00036F0B6FA4FF0000080F31188BDE8084040
:1002B00019680868B0E8F00F80F30988BFF36F8F02
:1002C000704700BF98000020EFF3058070470000E2
:1002D0000948804709480047FEE7FEE7FEE7FEE7DA
:1002E000FEE7FEE7FEE7FEE7FEE7FEE70448054916
:1002F000054A064B70470000012E00083101000836
:1003000080C5002080CB002080C7002080C700204F
:10031000704753EA020C00F069802DE9F04B4FF072
:100320000006002B1FBFB3FA83F503FA05F424FA85
:1003300005F65E4012BF1643B2FA82F502FA05F4E2
:10034000C5F120051EBF22FA05FC44EA0C04203545
:1003500056EA044C4FEA144418BF641C4FF00008DE
:100360004FF00009904271EB030C39D3002919BFFB
:10037000B1FA81F701FA07F6B0FA80F700FA07F64A
:10038000C7F120071EBF20FA07FC46EA0C062037FB
:10039000B6FBF4FCA7EB0507103F07F01F0BCBF1F2
:1003A00020060CFA0BFB2CFA06F644BFB3460026D7
:1003B000202FA4BF5E464FF0000B5BEA060C08BF7F
:1003C0004FF0010B19EB0B09ABFB027C48EB060865
:1003D000C01B06FB02CC0BFB03CC71EB0C01C1E78D
:1003E0000B46024641464846BDE8F08B13B54FF038
:1003F00000004FF00001AFF30080BDE81C407047E3
:100400000FB4044910B503AA029800F07FFD10BC98
:100410005DF814FB140000200FB41CB5074B06AAAE
:100420007B4469460090059800F041FD0020694634
:1004300000F050FD1CBC5DF814FB0000B10A000088
:1004400070B50C460546012A05D02878800600D5EF
:10045000EA69002302E0012305E05B1C934202D21B
:10046000E05C0028F9D1A869E618C01AA861286ADA
:10047000184428622846AFF3008004E0D5E9012142
:1004800014F8010B9047B442F8D32846AFF300802C
:1004900070BD00002DE9F041064600241068752962
:1004A000314616A510D0AFF30080002802DA404292
:1004B00013A507E031688A0701D512A502E04907B4
:1004C00004D511A5012401E0AFF3008000210A2228
:1004D00006F1240709E0B0FBF2FCB0FBF2F302FBEB
:1004E0001C00303078541846491C0028F3D12346AC
:1004F0002A463046BDE8F04100F06BBA000000002B
:100500002D0000002B0000002000000070B5044604
:100510000D4621461068AFF300802188090502D5F9
:100520000F4A7A4402E00E4A7A440E32002104F166
:10053000240305E000F00F060009965D5E54491C97
:100540000028F7D120780023000704D5702D02D0B1
:1005500009B1022311322046BDE8704000F039BADB
:10056000D6ED03002DE9F05F894604464FF0000AFE
:10057000DFF874B1FB44C0F820A02046E16888474A
:10058000002874D0252806D0D4E901219047206A9C
:10059000401C2062F1E700265F462046E16888475C
:1005A0002028054607DB312D05D2781910F8200CDC
:1005B00008B10643F1E7B00701D526F00406C4F8F8
:1005C0001CA00027C4F818A02A2D09D0284602F044
:1005D000ABFD38B304EB8708303DC8F8185019E07C
:1005E00059F8041B204604EB87029161E1688847B3
:1005F000012F054618D1E069002820DA26F02006F0
:100600001DE0D8F8180000EB800005EB4000303802
:10061000C8F818002046E1688847054602F084FDC6
:100620000028EED1012F0AD02E2D08D12046E168F6
:1006300088477F1C0546022F46F02006C4DBA069D0
:10064000002803DA404246F00106A061F00701D01D
:1006500026F010066C2D0BD0682D09D04C2D39D00A
:100660006A2D35D0742D35D07A2D33D016E038E090
:10067000E1682F4620468847B842054609D16C2FCD
:1006800026D04FF48060E16806432046884705463F
:1006900004E06C2F1AD04FF4807006430DB3A5F11F
:1006A0004100192802D8203546F400664A462946FA
:1006B000204626604E46FFF795FD80B101280BD0FD
:1006C000F61D26F0070000F1080956E74020E4E790
:1006D0008020D8E70020D6E706F104094DE7284638
:1006E00052E7206ABDE8F09FACED030040EA010349
:1006F000024630B59B0710D14FF0013400E008C22C
:1007000008C91D1B9D4315EAC41FF8D013F0FF0153
:1007100002F8011B0DD01B0AF8E711F8013B002B72
:1007200002F8013B05D011F8013B002B02F8013B18
:10073000F3D130BD10B5431C02E010F8011B71B1BC
:100740008107FAD14FF0013202C88C1A8C4314EAA7
:10075000C211F9D0C01A0A0603D0C01E10BDC01ABB
:1007600010BD0A0401D0801E10BD0902FCD0401E3D
:1007700010BD032A40F2308010F0030C00F0158009
:1007800011F8013BBCF1020F624498BF11F801CB94
:1007900000F8013B38BF11F8013BA2F1040298BFF9
:1007A00000F801CB38BF00F8013B11F0030300F063
:1007B0002580083AC0F0088051F8043B083A51F807
:1007C00004CBA0E80810F5E7121D5CBF51F8043B0C
:1007D00040F8043BAFF30080D20724BF11F8013B7F
:1007E00011F801CB48BF11F8012B24BF00F8013BE1
:1007F00000F801CB48BF00F8012B704710B5203A34
:10080000C0F00B80B1E81850203AA0E81850B1E8C9
:100810001850A0E81850BFF4F5AF5FEA027C24BF7F
:10082000B1E81850A0E8185044BF18C918C0BDE876
:1008300010405FEA827C24BF51F8043B40F8043B3F
:1008400008BF7047D20728BF31F8023B48BF11F8F4
:10085000012B28BF20F8023B48BF00F8012B70474E
:1008600002F0FF0343EA032242EA024200F062BBC5
:100870004FF0000200B5134694469646203922BF39
:10088000A0E80C50A0E80C50B1F12001BFF4F7AF84
:10089000090728BFA0E80C5048BF0CC05DF804EB66
:1008A000890028BF40F8042B08BF704748BF20F8D4
:1008B000022B11F0804F18BF00F8012B7047000089
:1008C0004FF0013C50F8042B51F8043B9A4221D1DF
:1008D000A2EB0C03934313EACC1317D150F8042B6B
:1008E00051F8043B9A4215D1A2EB0C03934313EA4F
:1008F000CC130BD150F8042B51F8043B9A4209D188
:10090000A2EB0C03934313EACC13DBD04FF00000AF
:10091000704700BFD01A01BAB1FA81F101F0180195
:1009200022FA01F0CB40C1F12001DBB2C0B2C01A03
:100930002CFA01F3D11A914311EAC311E6D17047A1
:10094000704770477047704730B5B0F10A024FEA00
:10095000900E71F100034EEA817EB0EB0E0061EB68
:1009600091014FEA101E4EEA017E10EB0E0041EBA2
:1009700011114FEA102E4EEA016E10EB0E0041EB02
:1009800011214FEA104E4EEA014E10EB0E0041EBE2
:100990001141401841F100014FEAD00040EA417096
:1009A0004FEAD10110EB80054FEA810444EA9074CC
:1009B00044EB01046D1944EB0404521BA3414FF0B6
:1009C000000348BF0A3200D530BD401C41F1000190
:1009D00030BD2DE9F0470D4699469246044600F198
:1009E00024080168880604D5E06921F0100121601F
:1009F00000E00120A84201DD471B00E00027A169BB
:100A00007A1902EB0900081AA0612078C00602D406
:100A10002046AFF30080002608E0D4E901211AF84F
:100A200006009047206A401C761C20624E45F4DB8D
:100A30002078C0060AD52046AFF3008006E0D4E94E
:100A4000012130209047206A401C2062381EA7F107
:100A50000107F4DC07E0D4E9012118F8050090470C
:100A6000206A401C2062281EA5F10105F3DC204607
:100A7000AFF300802078000602D50220BDE8F087A1
:100A80000120FBE770472DE9FF4F0C461E464FF053
:100A9000FF378BB0D2E90001DDF860800A908A460A
:100AA000C1F30A5505B93D46002108464FF0000044
:100AB000BAF1000F00F4400005DA00EB80004FF4BB
:100AC000400101EA50004FEA9059B9F1010F00DDF1
:100AD000B9460A9850EA4A000ED044F61050A5F2E2
:100AE000FF3545432F14B8F1000F1ED07542291E63
:100AF0001EDDC9F100021CE0B8F1010F4FF000004B
:100B000001D0302103E0F24305E02154401CB04203
:100B1000FBDB30460022002121540B99C1F80880EC
:100B2000C1E900200FB0BDE8F08FBD1B6D1CDEE7F2
:100B30004A4600DA694206A800F060FA06AB93E87C
:100B4000070003AB83E8070050460A9900F0FEFA5D
:100B50008DE80700A0F500501F3800900398002D85
:100B60000ADD42F21F014A460844002303A903900C
:100B7000684600F067FD09E0A0F500504A461F38BE
:100B8000002303A90390684600F071FD8DE807007B
:100B90000004000C03D04FF0FF30410800E0104685
:100BA000B8F1000F03D00022009215461EE0751E1A
:100BB00005D4FFF7C9FE303262556D1EF9D5B34634
:100BC0000122084302D000227F1C04E02078302854
:100BD00001D100227F1E002A099784D01DE0112D2B
:100BE00007DAFFF7B1FE303262556D1C50EA0102A0
:100BF000F5D1084302D00098C8B10EE00021681E6C
:100C000005E0235C625C63542254401E491C81420F
:100C1000F7DBAB46A81B401E0990002004F80B0030
:100C20000B98099AC0F80880C0E9002B7AE71126D2
:100C30004FF0000857E72DE9F04F88460446D21DD3
:100C400022F0070191B0D1E90001CDE90A0102F0DB
:100C50001DFA02460B98C00F01D02D2007E0206836
:100C6000810701D52B2002E0202101EAC000032AE0
:100C7000099001D0072A05DB03464146204600F0D3
:100C80007DF90BE12078800601D5E06900E00620BF
:100C9000B8F1650F814606D0B8F1660F18D0B8F1EB
:100CA000670F70D131E00020B9F1110F009001DB26
:100CB000112301E009F101030AAA01A90CA8FFF719
:100CC000E2FEDDE90C70002609F10105834647E0EC
:100CD00001204B4600904FF000470AAA01A90CA83A
:100CE000FFF7D1FEDDE90DB00C995D46002610B985
:100CF00009F101000D18B9EB050003D4C0F1FF366E
:100D000009F10105A5EB09002BE0B9F1010F01DAAA
:100D10004FF001090020B9F1110F0090484601DDA4
:100D2000112300E003460AAA01A90CA8FFF7ABFEB5
:100D3000DDE90C704D4600268346207800070AD472
:100D4000AB4500DA5D4601A8012D04DD411911F81B
:100D5000011C302907D04F4502DA17F1040F04DADD
:100D6000012082460FE06D1EEEE7002F02DCED1B36
:100D70003E4403E0781CA84200DD7D1CB81B00F156
:100D8000010A4FF000472078000703D4AA4501DB91
:100D90004FF0FF3A0021B7F1004F0DF143088DF8F5
:100DA000431024D002202B23002F01DA7F422D2371
:100DB0000A21021EA0F1010000DC5FB197FBF1FCEB
:100DC00097FBF1F201FB1C7C17460CF1300C08F884
:100DD00001CDEEE7A8F1010003702188090501D5D6
:100DE000452100E06521A0F1010800F8011C0998E7
:100DF0000FA9A1EB0807FF1D00B10120411901EB6C
:100E0000EA70A1693844081A401EA0612078C00623
:100E100002D42046AFF30080099828B1D4E901211B
:100E20009047206A401C20622078C00622D52046C8
:100E3000AFF300801EE0002E04DBB34502DD01A805
:100E4000805D00E03020D4E901219047206A401CF9
:100E50002062761CAAF101005FEA000A0AD100F0C4
:100E600089F8C0680168405CD4E901219047206A94
:100E7000401C2062281EA5F10105DCDC07E0D4E956
:100E8000012118F8010B9047206A401C2062381E8F
:100E9000A7F10107F3DC2046AFF30080032011B077
:100EA00041E6000001694A1C02610878704700B5FC
:100EB0008FB0CDE901310021059105497944CDE993
:100EC000031011466846FFF74DFB0FB000BD000050
:100ED000E5FFFFFF0A6802F8010B0A60704710B5D2
:100EE000436913B1AFF3008001E0FFF7A9FA0120D5
:100EF00010BD127800F124010A7000224A7001220C
:100F0000EDE711684FF0FF32E9E70000074B70B5DD
:100F10000D467B44FFF7CBFF0446284600F0E0F87F
:100F200010B14FF0FF3070BD204670BDC309010005
:100F30004FF000020429C0F0128010F0030C3FF4BF
:100F400099ACCCF1040CBCF1020F18BF00F8012BD6
:100F5000A8BF20F8022BA1EB0C01FFF78BBC5FEAC6
:100F6000C17C24BF00F8012B00F8012B48BF00F81A
:100F7000012B7047004870473CC500202DE9F04127
:100F80001F46044603260168072A01F4006004DBBB
:100F900008B116A505E016A503E008B115A500E007
:100FA00015A521F010002060A069C01EA0610FB13E
:100FB000401EA0612046AFF300804FB1D4E901216B
:100FC00038469047206A401C2062C01C206206E020
:100FD000206AFAE7D4E9012115F8010B9047761E43
:100FE000F8D22046AFF30080BDE8F0814E414E00BC
:100FF0006E616E00494E4600696E66002DE9F0474D
:10100000814616468AB0354878440DC88DE80D00F3
:1010100032487844801C03AC0DC884E80D0041F6CA
:101020009B300844372190FBF1F290FBF1F5A5F1DC
:10103000800501FB12041B3C02D56442012000E044
:101040000020DFF898A080460027FA44AAF1BE0AE3
:101050000EE0E0070AD03246684607EB470101235D
:101060000AEB810100F003FB8DE8070064107F1C90
:10107000002CEED1194F7F44AE3F19E0E80715D0A0
:1010800007EB04100DF1180A90E80E008AE80E0034
:10109000C068F04201D1981908903246012306A990
:1010A00003A800F0E4FA03AB83E807006D10641CAA
:1010B000002DE3D14FF0010332466946B8F1000F2D
:1010C00003A802D000F0BEFA01E000F0D0FAC9E9AE
:1010D0000001C9F808200AB0BDE8F087A8E30300C2
:1010E000007B00F080007047004870471CC500205E
:1010F0007546FFF7F9FFAE4605006946534620F0F6
:101100000700854618B020B5FFF7F0F8BDE820408D
:101110004FF000064FF000074FF000084FF0000BB3
:1011200021F00701AC46ACE8C009ACE8C009ACE866
:10113000C009ACE8C0098D46704710B50446AFF34E
:1011400000802046BDE81040FFF76FB85FEA400C12
:1011500008BF91F0000F4FEA8C234FEAC12243EA07
:1011600051514FEA1C5018BF00F5F0404FEA3000D3
:1011700018BF41F000415FEA6C5C00F02980BCF1CF
:10118000FF3F08BF40F080407047130C06BF1204B9
:101190004FF0100C4FF0000C130E04BF12020CF1B4
:1011A000080C130F04BF12010CF1040C930F04BFC1
:1011B00092000CF1020CD30F04BF52000CF1010C91
:1011C00011464FF00002A0F11F00A0EB0C00704789
:1011D00011F0004F08BF704731F000413FF4D5AF28
:1011E0000B0C06BF09044FF0100C4FF0000C0B0E57
:1011F00004BF09020CF1080C0B0F04BF09010CF12C
:10120000040C8B0F04BF89000CF1020CCB0F04BF40
:1012100049000CF1010CCCF12003A0EB0C0022FAE8
:1012200003F302FA0CF241EA030100F101007047F6
:1012300020F07F4C80EA030023F07F47ACEB0703EC
:1012400003F57C5300F0004003F1FF032DE98049D2
:101250004FEA154B09B44FEA144325EA0B4E24EA32
:1012600003480FF2042606EB132749083E785FEA8D
:10127000320203FB0667C7F5000707FB06F64FEAD5
:1012800054374FEAD64606F1020607FB066CCCF14E
:10129000005C4FEA1C472CEA074C07FB06F40CFBEA
:1012A00006F504EB15464FEA961634BF00204FF0C2
:1012B00000404FEAD13706FB07FC4FEA1C4C0CFB01
:1012C0000BF7D21B03FB0CF761EB07010CFB0EF7CE
:1012D000B0EB074072EB17420CFB08F734BFA2EBF0
:1012E0000742B2EB074261EB17414FEA0C444FEA69
:1012F000910706FB07FC4FEA1C4C0CFB0BF7B0EB0D
:10130000C74072EB573203FB0CF734BFA2EBC74266
:10131000B2EBC74261EB57310CFB0EF7B0EBC700E5
:1013200072EB57720CFB08F734BFA2EBC702B2EBAB
:10133000C70261EB5771039F4FEA816141EA921145
:1013400004EBCC044FEAD1374FEA826206FB07FC7C
:1013500042EA90124FEA80604FEA1C4C0CFB0BF7FC
:10136000D21B03FB0CF761EB07010CFB0EF7B0EB94
:10137000074072EB17420CFB08F734BFA2EB0742A1
:10138000B2EB074261EB17414FEA8C554FEA9107E8
:1013900004EB9C2406FB07FC4FEA1C4C0CFB0BF7F0
:1013A000B0EBC74072EB573203FB0CF734BFA2EB34
:1013B000C742B2EBC74261EB57310CFB0EF7B0EB03
:1013C000C70072EB57720CFB08F734BFA2EBC702E1
:1013D000B2EBC70261EB577115EB4C254FEA816107
:1013E00041EA92114FEA82624FEAD13742EA901203
:1013F00006FB07FC44F100044FEA80604FEA1C4CF6
:101400000CFB0BF7D21B03FB0CF761EB07010CFB8A
:101410000EF7B0EB074072EB17420CFB08F734BF36
:10142000A2EB0742B2EB074261EB174115EB1C152B
:101430004FEA813141EA92414FEA823242EA9042D8
:101440004FEA80304FEA0C7644F1000448EA034347
:101450004EEA0B484FF0000EB2EB080C71EB03079D
:1014600024BF624639464EEB0E0E4FF0000B0018BB
:10147000524149414BEB0B0BB2EB080C71EB0307EC
:101480007BF1000B24BF624639464EEB0E0E4FF047
:10149000000B0018524149414BEB0B0BB2EB080C0F
:1014A00071EB03077BF1000B24BF624639464EEB1C
:1014B0000E0E51EA020718BF46F0010616EB0E7633
:1014C00055F1000254F1000103D5BDE88901BDE8E2
:1014D0000088BDE88901BDE80048B619524141EBDA
:1014E0000101A3F10103704780807F7E7D7C7B7AC0
:1014F0007978777676757473727171706F6E6E6DC0
:101500006C6C6B6A6A696868676666656464636365
:1015100062616160605F5F5E5E5D5D5C5C5B5B5AEB
:101520005A59595858575756565555555454535358
:1015300052525251515050504F4F4F4E4E4D4D4DB3
:101540004C4C4C4B4B4B4A4A4A49494948484847FE
:10155000474747464646454545444444444343433C
:101560004342424242414141002B9C4630D47700E5
:101570002BD01CB54FEA370703B44FF010004FF0E3
:101580001001BAF1000F06D0BCF1000FDCBF40F033
:10159000080040F008014FF000000FBCBDE810400B
:1015A0000BF1010BBBF1010F08BF5FEA170722BF68
:1015B00012F1010211F101014FF0004143F100036A
:1015C00000F0004043EA00007047F9D35708D0E725
:1015D00046EA064613F1400F4FEA16461FDD13F1A7
:1015E000200FDFBF16430A46002120335B42BED0E6
:1015F000C3F1200746EA064602FA07F74FEA164605
:1016000046EA0706C3F1200722FA03F201FA07F7B8
:1016100021FA03F14FF0000342EA0702A7E746EA86
:10162000020646EA06464FEA164646EA0106BCBFEF
:1016300046EA0646360C4FF000034FF000024FF02A
:10164000000194E72DE9804C9A46934670B491E8E6
:10165000380007C831EA400C48BF34EA430C03D5D0
:10166000FFF7E6FDFFF780FFF0BCBDE8008C2DE939
:10167000804C9A46934670B491E8380007C810F041
:10168000804F08BF13F0804F03D100F005F8FFF73B
:101690006BFFF0BCBDE8008C20F07F4780EA0300C0
:1016A00023F07F4C07EB0C03A3F57C5300F00040C4
:1016B000A3F1FE0392F0000F00F0B38095F0000F4D
:1016C00000F077802DE901494FEA11404FEA1446B6
:1016D00021EA004800FB06FC24EA064708FB06F660
:1016E00007FB08F800FB07F718EB06484CEB164C15
:1016F0004FEA124B18EB07484FEA15464CEB1740E0
:1017000022EA0B4E0BFB06FC25EA06470EFB06F60B
:1017100007FB0EFE0BFB07F71EEB064E4CEB164CC1
:101720004FF000061EEB074E4CEB174B18EB0B0867
:1017300040F1000018EB0E0B58EB000840F10000E0
:101740008F1A4FF000013CBFC943661B14BFB5EBB5
:10175000040C00213CBFC943F61B4FEA17444EEA74
:101760008E0E27EA04454FEA1C4704FB07622CEA69
:10177000074C05FB07F70CFB05F604FB0CFC16EB0E
:10178000074642EB174216EB0C4642EB1C421BEBA2
:10179000060658EB0202414146EA9E0601D5BDE825
:1017A0000189B619524141EB0101A3F10103BDE8E2
:1017B00001894FEA14454FEA114724EA054621EA18
:1017C000074C05FB07F406FB07F70CFB06F105FBCE
:1017D0000CFC11EB074144EB17444FEA124711EBA5
:1017E0000C4144EB1C4422EA074C05FB07F206FBC4
:1017F00007F70CFB06F605FB0CFC16EB074642EB65
:10180000174216EB0C4642EB1C456A1854F10001D6
:1018100048BF7047B619524141EB0101A3F10103E2
:10182000704795F0000F37D04FEA11424FEA144746
:1018300021EA024624EA074C02FB07F106FB07F700
:101840000CFB06F402FB0CFC14EB074441EB1741C4
:101850004FEA154714EB0C4441EB1C4125EA074CB9
:1018600002FB07F506FB07F70CFB06F602FB0CFC78
:1018700016EB074645EB174516EB0C4645EB1C42AD
:10188000121951F1000148BF7047B619524141EB9E
:101890000101A3F1010370474FEA14454FEA1147D4
:1018A00024EA054621EA074C05FB07F106FB07F78A
:1018B0000CFB06F24FF0000605FB0CFC12EB074296
:1018C00041EB174112EB0C4251EB1C4148BF7047F2
:1018D000921841EB0101A3F10103704700BFFEE73D
:1018E0007047000070B50446B3F5804F13D1D1E9BD
:1018F000000540EA05108D6840EA05208D692843FF
:101900008D8940EA054054F82250064E3540284360
:1019100044F8220003E06FF0704044F822000020F9
:1019200070BD00000000F0CF70B50246086852F8A4
:10193000200020F001000E6842F826008868082880
:1019400001D1402300E00023486818438E683043EB
:10195000CE6830430E6930434E693043CE69304320
:101960000E6A30434E6A30438E6A3043CE6A30434B
:101970000E6B40EA060488690443486B0443074D34
:1019800045F4806545F4E025086852F82000A84336
:1019900020430E6842F82600002070BD7FFB08003F
:1019A00010B50346D1E9000440EA04108C6840EA0F
:1019B00004208C8940EA0444088A401E44EA00540A
:1019C000087D801E44EA00608C692043541C53F853
:1019D000244004F040442043541C43F824000020D9
:1019E00010BD000070B50446002594F821000228BF
:1019F00003D00420A0630125C1E02068006820F026
:101A00000E00216808602068006820F0010021684D
:101A100008605C492068884252D95A497839206860
:101A2000884201D1012047E0564964392068884244
:101A300001D1102040E0534950392068884201D13B
:101A4000801539E04F493C392068884201D1801423
:101A500032E04C4928392068884202D14FF4803066
:101A60002AE0484914392068884202D14FF4801096
:101A700022E044492068884201D140041CE04249E8
:101A80002068884201D1012016E03F4914312068C6
:101A9000884201D110200FE03B492831206888425C
:101AA00001D1801508E038493C312068884201D1D5
:101AB000801401E04FF480303349091F086051E081
:101AC000304978392068884201D1012047E02D490A
:101AD00064392068884201D1102040E029495039FA
:101AE0002068884201D1801539E026493C392068B8
:101AF000884201D1801432E0224928392068884286
:101B000002D14FF480302AE01E49143920688842FF
:101B100002D14FF4801022E01A492068884201D196
:101B200040041CE018492068884201D1012016E0D9
:101B3000154914312068884201D110200FE0124964
:101B400028312068884201D1801508E00E493C31D7
:101B50002068884201D1801401E04FF480300949A7
:101B600080394860012084F8210000BF002084F8FB
:101B7000200000BF606B10B12046616B884728468B
:101B800070BD000080000240080402402DE9F847C3
:101B9000024600239C467BE14FF0010808FA03F45B
:101BA000D1F8008008EA0400A0427DD1DFF8F4A259
:101BB000D1F80480A8EB0A09D0453AD014DCB8F17A
:101BC000030F50D009DCB8F1000F31D0B8F1010F8C
:101BD0001CD0B8F1020F49D120E0B8F1110F18D094
:101BE000B8F1120F42D11EE0B9F5881F25D006DCEE
:101BF000B9F5803F20D0B9F5801F37D11AE0B9F58B
:101C0000001F18D0B9F5041F30D117E0D1F80CC06F
:101C10002DE0D1F80C8008F1040C28E0D1F80C80FC
:101C200008F1080C23E0D1F80C8008F10C0C1EE040
:101C300000BF00BF00BF00BF00BF00BFD1F80880D9
:101C4000B8F1000F02D14FF0040C0BE0D1F808807E
:101C5000B8F1010F03D14FF0080C146102E04FF00E
:101C6000080C546103E04FF0000C00E000BF00BF1F
:101C7000FF2801D8904601E002F104084646FF28FB
:101C800002D84FEA830803E0A3F108084FEA880866
:101C90004746D6F800804FF00F0909FA07F928EAFD
:101CA00009080CFA07F900E07AE048EA0908C6F8E2
:101CB0000080D1F8048008F08058B8F1805F6FD1BF
:101CC00000BFDFF8E481D8F8188048F00108DFF899
:101CD000D891C9F81880C846D8F8188008F00108CB
:101CE000CDF8008000BF00BF4FEAB9384FEA930932
:101CF00058F829504FEA83784FEA18794FF00F08C7
:101D000008FA09F825EA0805DFF8A081424502D162
:101D10004FF0000824E0DFF89881424502D14FF0EF
:101D200001081DE0DFF88C81424502D14FF0020826
:101D300016E0DFF88481424502D14FF003080FE03E
:101D4000DFF87881424502D14FF0040808E0DFF85F
:101D50007081424502D14FF0050801E04FF00608BE
:101D60004FEA83794FEA197908FA09F848EA050534
:101D7000DFF850814FEA930948F82950D1F80480E0
:101D800008F48038B8F5803F0BD1DFF83C81D8F8F3
:101D9000008048EA0008DFF83091C9F800800AE0C6
:101DA00075E0DFF82481D8F8008028EA0008DFF821
:101DB0001891C9F80080D1F8048008F40038B8F50B
:101DC000003F0ED1DFF8008108F10408D8F8008048
:101DD00048EA0008DFF8F09009F10409C9F800802A
:101DE0000DE0DFF8E48008F10408D8F8008028EA64
:101DF0000008DFF8D49009F10409C9F80080D1F88F
:101E0000048008F48018B8F5801F0ED1DFF8B88080
:101E100008F10808D8F8008048EA0008DFF8A89020
:101E200009F10809C9F800800DE0DFF89C8008F18D
:101E30000808D8F8008028EA0008DFF88C9009F13B
:101E40000809C9F80080D1F8048008F40018B8F532
:101E5000001F0ED1DFF8708008F10C08D8F8008060
:101E600048EA0008DFF8609009F10C09C9F8008021
:101E70000DE0DFF8548008F10C08D8F8008028EA5B
:101E80000008DFF8449009F10C09C9F800805B1CD8
:101E9000D1F8008028FA03F8B8F1000F7FF47CAE87
:101EA000BDE8F88700001110001002400008014052
:101EB000000C0140001001400014014000180140D6
:101EC000001C0140080001400004014002469368E4
:101ED0000B400BB1012000E00020704710B5C26834
:101EE00021EA020302EA010443EA0443036110BD4C
:101EF0000AB1016101E00B04036170470148006809
:101F0000704700001C00002003480068034909785E
:101F100008440149086070471C000020240000208C
:101F200010B50848006840F010000649086003201A
:101F300000F080F80F2000F007F800F02BF80020E8
:101F400010BD00000020024070B504460E48007825
:101F50004FF47A71B1FBF0F00C490968B1FBF0F570
:101F6000284600F073FC08B1012070BD102C07D288
:101F700000222146501E00F01EF80548046001E0D2
:101F80000120F2E70020F0E72400002000000020FC
:101F900020000020704701460846002809DB00F0B9
:101FA0001F0301229A4043099B0003F1E023C3F879
:101FB000002100BF70472DE9F05F80460D461646B0
:101FC000002701F077F8074639462A46334601F0E4
:101FD0000700C0F1070ABAF1040F02D94FF0040A52
:101FE00001E0C0F1070AD14600F1040ABAF1070F77
:101FF00002D24FF0000A01E0A0F1030AD4464FF0EC
:10200000010A0AFA09FAAAF1010A0AEA020A0AFA14
:102010000CFA4FF0010B0BFA0CFBABF1010B0BEAC6
:10202000030B4AEA0B042146404601F04BF8BDE899
:10203000F09F000000BF00F00702064B19684FF642
:10204000FF031940044B0B4343EA0221014B196083
:1020500000BF70470CED00E00000FA0570B50446C3
:102060000D460CB9012070BD5A48006800F0070009
:10207000A8420ED25748006820F00700284355496F
:1020800008600846006800F00700A84201D001205F
:10209000E9E7207800F0020002281DD1207800F046
:1020A0000400042805D14C48406840F4E0604A49E7
:1020B0004860207800F00800082805D146484068AC
:1020C00040F46050444948604348406820F0F000C4
:1020D000A168084340494860207800F0010078B3C7
:1020E0006068012806D13C48006800F4003090B9CF
:1020F0000120B8E76068022806D13748006800F080
:10210000007040B90120AEE73348006800F00200DB
:1021100008B90120A7E73048406820F00300616853
:1021200008432D494860FFF7E9FE064609E0FFF73E
:10213000E5FE801B41F28831884202D9032092E7F4
:1021400007E02548406800F00C006168B0EB810FA3
:10215000EDD12048006800F00700A8420ED91D48C4
:10216000006820F0070028431A4908600846006804
:1021700000F00700A84201D0012074E7207800F0A9
:102180000400042807D11448406820F4E060E168A6
:10219000084311494860207800F00800082808D159
:1021A0000D48406820F46050216940EAC1000A49A6
:1021B000486000F03FF808494968C1F30311074A35
:1021C000515CC8400649086006480068FFF7BCFE3D
:1021D000002048E70020024000100240CA810308A6
:1021E0000000002020000020014800687047000027
:1021F0000000002000B5FFF7F7FF04494968C1F36C
:102200000221034A515CC84000BD0000001002409A
:10221000DA81030800B5FFF7E7FF04494968C1F315
:10222000C221034A515CC84000BD000000100240BA
:10223000DA810308F0B585B00FF26C0C9CE8E01071
:1022400001A8A0E8E0101CA52D680095002100223F
:10225000002300240020194D696801F00C05F5B138
:10226000042D02D0082D19D101E0154819E001AD67
:10227000C1F38346AC5D01F4803555B10F4D6D68F7
:10228000C5F340451DF805200D4D6543B5FBF2F340
:1022900002E00C4D04FB05F3184602E000BF0848BD
:1022A00000BF00BF05B0F0BD020304050607080922
:1022B0000A0B0C0D0E0F101001020000001002405E
:1022C00000127A0000093D00F8B504460CB901205F
:1022D000F8BD207800F00100002878D0F848406868
:1022E00000F00C0004280CD0F548406800F00C0009
:1022F000082811D1F248406800F48030B0F5803FE2
:102300000AD1EF48006800F4003000285FD0606810
:1023100000285CD10120DBE700BF6068B0F5803F9A
:1023200006D1E748006840F48030E549086028E0BD
:10233000606858B9E248006820F48030E0490860DD
:102340000846006820F4802008601AE06068B0F554
:10235000A02F0BD1DA48006840F48020D8490860EB
:102360000846006840F4803008600AE0D4480068FD
:1023700020F48030D24908600846006820F48020AC
:10238000086000BF606888B1FFF7B8FD054606E049
:10239000FFF7B4FD401B642801D9032098E7C84823
:1023A000006800F400300028F2D010E0FFF7A6FD2E
:1023B000054606E0FFF7A2FD401B642801D9032073
:1023C00086E7BF48006800F400300028F2D120788A
:1023D00000F00200022857D1B948406800F00C0014
:1023E00050B1B748406800F00C00082818D1B44834
:1023F000406800F4803098B9B148006800F00200ED
:1024000020B12069012801D0012061E7AC480068B3
:1024100020F0F800616940EAC100A949086033E092
:102420002069E8B10120A7490860FFF767FD05466C
:1024300006E0FFF763FD401B022801D9032047E7B0
:102440009F48006800F002000028F2D09C48006815
:1024500020F0F800616940EAC1009949086013E082
:10246000002098490860FFF749FD054606E0FFF7A0
:1024700045FD401B022801D9032029E79048006848
:1024800000F002000028F2D1207800F008000828AF
:102490002DD1A069B8B101208B490860FFF72EFD4E
:1024A000054606E0FFF72AFD401B022801D903205C
:1024B0000EE78348406A00F002000028F2D00120B5
:1024C00000F080FC13E000207F490860FFF716FD54
:1024D000054606E0FFF712FD401B022801D9032044
:1024E000F6E67748406A00F002000028F2D1207832
:1024F00000F00400042873D100277148C06900F07F
:10250000805070B900BF6E48C06940F080506C497F
:10251000C8610846C06900F08050009000BF00BF4D
:1025200001276A48006800F48070B0B96748006805
:1025300040F4807065490860FFF7E0FC054606E05E
:10254000FFF7DCFC401B642801D90320C0E65F488C
:10255000006800F480700028F2D000BFE068012815
:1025600006D15748006A40F001005549086227E04B
:10257000E06858B95248006A20F0010050490862EA
:102580000846006A20F00400086219E0E0680528A7
:102590000BD14B48006A40F00400494908620846E4
:1025A000006A40F0010008620AE04548006A20F035
:1025B0000100434908620846006A20F004000862EE
:1025C00000BFE068A0B1FFF799FC054609E0FFF7FE
:1025D00095FC401B41F28831884202D9032077E6FE
:1025E00022E03748006A00F002000028EFD012E035
:1025F000FFF784FC054608E0FFF780FC401B41F232
:102600008831884201D9032062E62D48006A00F033
:1026100002000028F0D1012F05D12948C06920F01F
:1026200080502749C86100BFE069C8B324484068AA
:1026300000F00C00082860D0E069022848D1002092
:1026400020490866FFF75AFC054606E0FFF756FCEE
:10265000401B022801D903203AE61948006800F01F
:1026600000700028F2D1206AB0F5803F07D11448ED
:10267000406820F40030A168084311494860D4E95B
:10268000080108430E49496821F4741108430C49B4
:10269000486001200B490866FFF730FC054607E05B
:1026A0003DE0FFF72BFC401B022801D903200FE679
:1026B0000348006800F000700028F2D02FE000000E
:1026C000001002400000424280044242007000407C
:1026D000002014490866FFF711FC054606E0FFF7E5
:1026E0000DFC401B022801D90320F1E50E480068CB
:1026F00000F000700028F2D111E0E069012800D15B
:10270000E6E50948466806F48031206A814204D132
:1027100006F47011606A814201D00120D8E50020E2
:10272000D6E50000000042420010024070B50446A9
:102730000E4615461CB1A069B0F5807F01D101207D
:1027400070BD94F8410028B9002084F8400020466C
:1027500000F020F804F108012068FFF7E5F83146A1
:10276000A2682068FFF71CF92946236BD4E901020F
:10277000FFF7B8F8A168206850F8210040F0010088
:10278000A268216841F82200012084F8410000205D
:10279000D6E7000010B586B0044600BF1E48406969
:1027A00040F480701C4948610846406900F480701C
:1027B000019000BF00BF00BF0846806940F02000C4
:1027C00088610846806900F02000019000BF00BFCA
:1027D00000BF0846806940F0400088610846806973
:1027E00000F04000019000BF00BF4CF20370029067
:1027F00002200390012004900320059002A90748BD
:10280000FFF7C4F94FF68070029002A90448FFF761
:10281000BDF906B010BD00000010024000140140D8
:1028200000180140042808D14FF0E021096941F067
:1028300004014FF0E022116107E04FF0E021096947
:1028400021F004014FF0E0221161704770B5044699
:102850002546681EB0F1807F01D301200FE0681E7D
:102860004FF0E02148610F214FF0FF3000F02AFCCB
:1028700000204FF0E021886107200861002070BD32
:1028800070477047704710B5044620680069C0F370
:102890004000D8B12068C068C0F34000B0B16FF00C
:1028A000020021680861012020772068806900F01B
:1028B000030018B12046FFF7E5FF05E0204600F0D1
:1028C000ADF8204600F0ABF80020207720680069C2
:1028D000C0F38000D8B12068C068C0F38000B0B1F8
:1028E0006FF0040021680861022020772068806969
:1028F00000F4407018B12046FFF7C4FF05E0204601
:1029000000F08CF8204600F08AF80020207720683C
:102910000069C0F3C000D8B12068C068C0F3C0002F
:10292000B0B16FF0080021680861042020772068AA
:10293000C06900F0030018B12046FFF7A3FF05E0CF
:10294000204600F06BF8204600F069F80020207760
:1029500020680069C0F30010D8B12068C068C0F3D7
:102960000010B0B16FF010002168086108202077D6
:102970002068C06900F4407018B12046FFF782FF5C
:1029800005E0204600F04AF8204600F048F8002014
:1029900020772068006900F0010058B12068C06805
:1029A00000F0010030B16FF001002168086120469D
:1029B00000F036F820680069C0F3C01058B12068F4
:1029C000C068C0F3C01030B16FF0800021680861AA
:1029D0002046FFF755FF20680069C0F3801058B10A
:1029E0002068C068C0F3801030B16FF040002168EB
:1029F0000861204600F024F820680069C0F3401008
:102A000058B12068C068C0F3401030B16FF02000AA
:102A1000216808612046FFF734FF10BD70477047FA
:102A200010B504460448844205D100BF2021034864
:102A3000FFF754FA00BF10BDAC040020001801409D
:102A4000704770472DE9F047044620680568206804
:102A5000C668206847694FF00008C14605F00F08B6
:102A6000B8F1000F0AD105F0200038B106F02000BF
:102A700020B1204600F0F8F9BDE8F087B8F1000F6A
:102A800071D007F0010018B906F4907000286AD0E0
:102A900005F0010030B106F4807018B1E06B40F031
:102AA0000100E06305F0040030B107F0010018B147
:102AB000E06B40F00200E06305F0020030B107F087
:102AC000010018B1E06B40F00400E06305F008007D
:102AD00048B106F0200010B907F0010018B1E06B12
:102AE00040F00800E063E06B68B305F0200028B117
:102AF00006F0200010B1204600F0B6F920684069C9
:102B0000C0F38019E06B00F0080010B9B9F1000FB4
:102B100022D0204600F088F92068406900F040008B
:102B2000B0B12068406920F0400021684861606BC6
:102B300050B11848616B4863606BFEF753FF10B1EA
:102B4000606B416B88470CE02046FFF77AFF08E096
:102B50002046FFF776FF04E02046FFF772FF0020D3
:102B6000E06389E7FFE705F0800030B106F0800000
:102B700018B1204600F046FA7EE705F0400030B17B
:102B800006F0400018B1204600F05EF974E700BF7F
:102B900072E70000152E000810B504460CB901209C
:102BA00010BDA06900B100E000BF94F8390028B959
:102BB000002084F83800204600F028F8242084F80B
:102BC00039002068C06820F400502168C8602046A1
:102BD00000F09AF92068006920F4904021680861AB
:102BE0002068406920F02A00216848612068C06898
:102BF00040F400502168C8600020E063202084F881
:102C0000390084F83A000020CAE7000010B586B009
:102C100004462849206888424AD100BF00BF2648A0
:102C2000806940F00400244988610846806900F00A
:102C30000400019000BF00BF00BF00BF00BF0846F6
:102C4000806940F0040088610846806900F0040053
:102C5000019000BF00BF00BF00BF00BF08468069F1
:102C600040F4804088610846806900F4804001900B
:102C700000BF00BF00BF4815029002200390012052
:102C800004900320059002A90C48FEF77FFF4FF443
:102C9000806002900020039002A90848FEF776FFAA
:102CA0002520FFF778F9032211462520FFF783F945
:102CB00006B010BD0038014000100240000801407D
:102CC00010B5034693F83A0020282FD101B10AB974
:102CD000012010BD00BF93F83800012801D1022067
:102CE000F7E7012083F8380000BF99629A85DA85FA
:102CF0000020D863222083F83A0000BF002083F828
:102D0000380000BF1868C06840F480701C68E0603C
:102D10001868406940F001001C6860611868C0686C
:102D200040F020001C68E0600020D2E70220D0E7DD
:102D30001D4A0168914236D11C49098801F40041BD
:102D400089BB1A49098801F4804171B11849097891
:102D50000A2903D00021154A118024E0134909886B
:102D600041F40041114A11801DE0114909780D29F3
:102D700006D10E49098841F480410C4A118012E0C5
:102D80000B490978094A1288C2F30D02094B99547C
:102D900006490988491C054A118011460988C72936
:102DA00001DD00211180704700380140180000202B
:102DB0001A00002004030020704700BFFEE700BF98
:102DC000FEE7704708B508490968C9084FF47A72E8
:102DD000B1FBF2F14143009100BF00BF00994A1ED0
:102DE00000920029F9D108BD0000002010B5FFF7BE
:102DF0008BF834F01DF9012801D033F0E3FE10BD4B
:102E00007047000010B50248FFF73DFD10BD0000FF
:102E1000AC04002070B505466C6A0020E085E084B3
:102E20002046FFF70EFE70BD0168C96821F490715D
:102E30000268D1600168496921F0010102685161AD
:102E4000202180F83A10704710B504462068C06809
:102E500020F040002168C860202084F83900204616
:102E6000FFF7AAFF002010BD70B5044694F83A00A1
:102E7000222847D1A068B0F5805F0CD1206950B9F5
:102E80000025A66A20684068C0F308003080A06A68
:102E9000801CA06215E0A56A0026A068B0F5805FDE
:102EA00003D0A06828B9206918B920684068287044
:102EB00004E02068406800F07F002870A06A401C91
:102EC000A062E08D401E80B2E085C8B92068C0686D
:102ED00020F020002168C8602068C06820F480705D
:102EE0002168C8602068406920F0010021684861BD
:102EF000202084F83A002046FFF71AFF002070BD1A
:102F00000020FCE70220FAE770B504462168096951
:102F100021F44051E2681143226811612269A168DD
:102F20001143626941EA02052168C96841F20C62F5
:102F3000914329432268D1602168496921F4407195
:102F4000A2691143226851612D4A2168914202D140
:102F5000FFF760F901E0FFF74DF900EBC00101EB6D
:102F6000001162689200B1FBF2F100EBC00202EBCB
:102F7000001263689B00B2FBF3F26423B2FBF3F22E
:102F800002EBC20303EB0212A1EB8201322202EB3D
:102F900001116422B1FBF2F101F0F00100EBC0027B
:102FA00002EB001263689B00B2FBF3F26423B2FBF6
:102FB000F3F201EB021200EBC00101EB00116368B8
:102FC0009B00B1FBF3F100EBC00303EB0013666859
:102FD000B600B3FBF6F36426B3FBF6F303EBC306CC
:102FE00006EB0313A1EB8301322303EB01116423EE
:102FF000B1FBF3F101F00F0111442268916070BD43
:1030000000380140014691F83900212828D188680C
:10301000B0F5805F0BD1086948B90A6A1088C0F31F
:1030200008000B685860086A801C086205E00B6A9B
:10303000581C086218780B685860C88C401E80B213
:10304000C88458B90868C06820F080000B68D86050
:103050000868C06840F040000B68D86000207047E6
:103060000220FCE710B50648FFF7ECFC00BF012288
:1030700004490348FFF724FE0028F8D110BD0000E2
:10308000CC0300201A00002000BFFEE7490050EAF0
:10309000C12018BF04204A0D18BF40F0010040F2C3
:1030A000FF72B2EB515F08BF40F00200012808BF79
:1030B0000520704702480068C0F3022070470000F6
:1030C0000CED00E010B5002804DB0A07130E054ADA
:1030D000135406E00A07140E034A00F00F031B1FE7
:1030E000D45410BD00E400E018ED00E070B50446D3
:1030F000002508E02168481C20600878303805EB7E
:10310000850100EB41052168087800F004F80028EB
:10311000F0D1284670BD0146302903DB392901DC96
:10312000012070470020FCE730380A2801D2012036
:10313000704700207047000010B54021074801F09B
:10314000E3FA0022042106482AF0A8FF0549086096
:1031500002F002FE00200449087010BD50C3002098
:10316000255E00088C0200208802002030B503464E
:10317000B1F90040B2F90050AC4202DDB1F90040B3
:1031800001E0B2F900401C80B1F90240B2F90250EE
:10319000AC4202DDB1F9024001E0B2F902405C80CC
:1031A000B1F90440B2F90450AC4202DAB1F904407A
:1031B00001E0B2F904409C80B1F90640B2F9065032
:1031C000AC4202DAB1F9064001E0B2F90640DC8017
:1031D0000120B3F90040B3F90450AC4205DCB3F967
:1031E0000240B3F90650AC4200DD002030BDF8B516
:1031F00004460D4616460027B4F90000B5F9001044
:10320000884212DBB4F90200B5F9021088420CDBE7
:10321000B4F90400B5F90410884206DCB4F90600DC
:10322000B5F90610884200DC01270FB90020F8BD6F
:103230000EB90120FBE72088ADF800006088ADF8EA
:10324000020032466946284600F0A7F808B9002077
:10325000EDE7A088ADF800006088ADF802003246C6
:103260006946284600F099F808B90020DFE7208871
:10327000ADF80000E088ADF8020032466946284605
:1032800000F08BF808B90020D1E7A088ADF8000065
:10329000E088ADF8020032466946284600F07DF825
:1032A00008B90020C3E70120C1E70246B2F90000D7
:1032B000B1F90430984213DCB2F90400B1F90030DE
:1032C00098420DDBB2F90200B1F90630984207DCF2
:1032D000B2F90600B1F90230984201DB01207047D3
:1032E0000020FCE7F8B504460D461646B4F9040084
:1032F000B5F90010884211DBB4F90600B5F90210E7
:1033000088420BDBB4F90000B5F90410884205DCF3
:10331000B4F90200B5F90610884201DD0120F8BDBC
:103320000EB90020FBE72088ADF800006088ADF8FA
:10333000020032466946284600F02FF808B1002006
:10334000EDE7A088ADF800006088ADF802003246D5
:103350006946284600F021F808B10020DFE7208800
:10336000ADF80000E088ADF8020032466946284614
:1033700000F013F808B10020D1E7A088ADF80000F4
:10338000E088ADF8020032466946284600F005F8AC
:1033900008B10020C3E70120C1E72DE9FC5F054625
:1033A0000E4614464FF0000AB6F90000B5F90010B9
:1033B000884213DBB6F90000B5F9041088420DDC31
:1033C000B6F90200B5F90210884207DBB6F902002F
:1033D000B5F90610884201DC4FF0010ABAF1000F7E
:1033E00002D10020BDE8FC9F002C01DC0120F9E7A0
:1033F000284616F0C8FD834600EBDB7047102846D0
:1034000016F039FD834600EBDB704FEA6008474554
:1034100001DA384600E0404681464C4500DD4C4626
:103420002888ADF800002888204400B2ADF80400D8
:103430006888ADF802006888204400B2ADF8060044
:10344000002231466846FFF7A8FF80B1BDF80400AE
:10345000204400B2ADF80400BDF80600204400B2DC
:10346000ADF806003146684627F0D2F9BAE7E88899
:10347000001B00B2ADF80200E888ADF8060000229B
:1034800031466846FFF789FF80B1BDF8040020444B
:1034900000B2ADF80400BDF80200001B00B2ADF8A8
:1034A00002003146684627F0B3F99BE7A888001B65
:1034B00000B2ADF80000A888ADF804000022314643
:1034C0006846FFF76AFF80B1BDF80000001B00B23C
:1034D000ADF80000BDF80200001B00B2ADF802001C
:1034E0003146684627F094F97CE76888ADF8020019
:1034F0006888204400B2ADF80600002231466846D4
:10350000FFF74BFF80B1BDF80000001B00B2ADF823
:103510000000BDF80600204400B2ADF806003146B8
:10352000684627F075F95DE701205BE710B5B1F952
:103530000030B2F90040A34202DAB1F9003001E0F4
:10354000B2F900300380B1F90230B2F90240A3426F
:1035500002DAB1F9023001E0B2F902304380B1F988
:103560000430B2F90440A34202DDB1F9043001E0B5
:10357000B2F904308380B1F90630B2F90640A342B3
:1035800002DDB1F9063001E0B2F90630C38010BDAA
:103590002DE9FF4104462AF022FD05460020039054
:1035A00034B14749E068086020462AF08FFE03E006
:1035B00019F044FB4249086041490968086927F04D
:1035C00085F83F480068406920B13D49096848696D
:1035D00027F07CF83A490968C86927F077F8384934
:1035E0000968086A27F072F835480068006940B930
:1035F000002033490968A1F8500100BF00BFBDE8B1
:10360000FF8127F005FC27F04BFB2D480068B0F840
:10361000500100284BD02A4800680068007CC0F3A5
:103620004000E8B12648006819F086FB401E06B24B
:103630002348006819F01AFB401E07B23B460022DF
:10364000114601A8009616F0E3FC01A81C49096880
:103650000968896B48601A48006805F027FE00BFBA
:103660004FF4807116480068303021F0BAFA2021FA
:103670001348006800F5987021F0B3FA0020104953
:103680000968A1F8500128462AF09CFC03900C48D8
:1036900000680068406A50B109490968086808492B
:1036A000096809684B6A07490A680399984720F036
:1036B000D1FF00F03FF800F007F800BF9FE70000DF
:1036C0004C0100204801002010B5002416E0C4EB96
:1036D000C4000C4951F8200030B1C4EBC401094AC0
:1036E00052F8210021F068F8C4EBC401054A02EB4E
:1036F00081001C2121F075FA601CC4B2042CE6DBA9
:1037000010BD00002CC400200146094A10680BE0DF
:1037100042688A4202D002688A4204D1027E22F0C4
:103720000102521C027640690028F1D17047000066
:10373000200100207047000010B50421014800F06E
:10374000E3FF10BD44C3002010B51C21014800F068
:10375000DBFF10BD5CC300202DE9FF4F8BB004469A
:103760009A46199DBAF1000F11D11898B0F5807FD3
:103770000DD10020208060800C98401E00B2A080F7
:103780000D98401E00B2E0800FB0BDE8F08FB5F993
:1037900000004042189948430121C1EB202000B2AB
:1037A0002080B5F902004042189948430121C1EB3D
:1037B000202000B26080B5F900100C98401A1899CA
:1037C0004843022101EB202000B2A080B5F902108D
:1037D0000D98401A18994843022101EB202000B2AD
:1037E000E080BAF1000F14D120882988084400B283
:1037F000208060886988084400B26080A088298899
:10380000084400B2A080E0886988084400B2E080E3
:10381000BAE70A209AFBF0F00A900A98401C099037
:103820000A9800EB8000AAEB400B0A9800B22AF03D
:10383000D3FE0890099800B22AF0CEFE07900A98AD
:103840005A3000B22AF0C8FE069009985A3000B2E9
:103850002AF0C2FE0590CBF10A010898414307986F
:1038600000FB0B100A2190FBF1F6CBF10A01069840
:103870004143059800FB0B100A2190FBF1F77611EC
:103880007F11B4F90080B4F9029007FB08F006FB41
:103890001900298801EBA02000B2ADF8100006FB4A
:1038A00008F007FB0900698801EBA02000B2ADF821
:1038B0001200B4F90480B4F9029007FB08F006FB8B
:1038C0001900298801EBA02000B2ADF80C0006FB1E
:1038D00008F007FB0900698801EBA02000B2ADF8F1
:1038E0000E00B4F90080B4F9069007FB08F006FB5F
:1038F0001900298801EBA02000B2ADF8080006FBF2
:1039000008F007FB0900698801EBA02000B2ADF8C0
:103910000A00B4F90480B4F9069007FB08F006FB2E
:103920001900298801EBA02000B2ADF8040006FBC5
:1039300008F007FB0900698801EBA02000B2ADF890
:103940000600BDF90800BDF91010884202DABDF981
:10395000080001E0BDF91000BDF90410BDF90C200C
:10396000914202DABDF9041001E0BDF90C10884261
:103970000BDABDF90800BDF91010884202DABDF972
:1039800008000DE0BDF910000AE0BDF90400BDF922
:103990000C10884202DABDF9040001E0BDF90C0008
:1039A0002080BDF90800BDF91010884202DDBDF984
:1039B000080001E0BDF91000BDF90410BDF90C20AC
:1039C000914202DDBDF9041001E0BDF90C108842FE
:1039D0000BDDBDF90800BDF91010884202DDBDF90C
:1039E00008000DE0BDF910000AE0BDF90400BDF9C2
:1039F0000C10884202DDBDF9040001E0BDF90C00A5
:103A0000A080BDF90A00BDF91210884202DABDF9A2
:103A10000A0001E0BDF91200BDF90610BDF90E2043
:103A2000914202DABDF9061001E0BDF90E1088429C
:103A30000BDABDF90A00BDF91210884202DABDF9AD
:103A40000A000DE0BDF912000AE0BDF90600BDF95B
:103A50000E10884202DABDF9060001E0BDF90E0041
:103A60006080BDF90A00BDF91210884202DDBDF97F
:103A70000A0001E0BDF91200BDF90610BDF90E20E3
:103A8000914202DDBDF9061001E0BDF90E10884239
:103A90000BDDBDF90A00BDF91210884202DDBDF947
:103AA0000A000DE0BDF912000AE0BDF90600BDF9FB
:103AB0000E10884202DDBDF9060001E0BDF90E00DE
:103AC000E08000BF60E62DE9F74F86B0044620682D
:103AD0000590B4F908100798A0EB0108B4F90A1092
:103AE0000898A0EB0109E089B0F5807F13D1206B25
:103AF00000FB08F0E16A01FB1901606A00EBA10B11
:103B0000E06A00FB08F0216B01FB0901A06A00EBF1
:103B1000A10004902FE0A08980B9A06B00FB08F001
:103B20004FEA6018A06B00FB09F04FEA6019606A69
:103B300000EB080BA06A484404901CE0A06B00FB5B
:103B400008F04FEA6018A06B00FB09F04FEA60191B
:103B5000206B00FB08F0E16A01FB1901606A00EBD1
:103B6000A12BE06A00FB08F0216B01FB0901A06AB0
:103B700000EBA12004904FEA2B2604980712B4F919
:103B80000400B04203DC002009B0BDE8F08F002E35
:103B900001DA0020F8E7B4F90600B84201DC0020A1
:103BA000F2E7002F01DA0020EEE73420005DC0F3D9
:103BB000800050B33420005DC0F3400078B9022586
:103BC000B4F904007843684306FB050A059800EB46
:103BD0000A012A4604F1140020F0B1FF2CE003256D
:103BE000B4F904007843684306FB050A6A1E059889
:103BF00000EB0A0104F1140020F0A1FF0AEB05001C
:103C0000401E0599095CA17516E04FF0000A0025D9
:103C1000208A03463AB231B2019004F118001DF037
:103C20003BFC0290BDF80800A0823AB231B204F128
:103C300018001DF091FBA0753420005D00F001001C
:103C4000B0B14FF47F40002100F47C4241EA5211B0
:103C5000C0F3C40211430191BDF804201146029142
:103C6000A08ABDF80810884201D100208CE700BF6F
:103C7000E07C08B9012087E70FFA8BF1A18704984F
:103C800001B2E18731B24020015339B242200153E1
:103C9000C4F844A084F84850204600F003F803908C
:103CA000039871E72DE9F04F8DB00446D4F80090E9
:103CB00094F83C000C9094F83E000B900C987028FF
:103CC0000BDA4FF0FF35B4F940002844002800DA41
:103CD00000250C988030C7B213E00C9890280EDDB8
:103CE0000125B4F940002844B4F90410884200DBEF
:103CF00000250C98C0F1FF008030C7B201E000251C
:103D0000FF270B9870280CDA4FF0FF36B4F9420009
:103D10003044002800DA00260B98803000F0FF08BD
:103D200015E00B9890280FDD0126B4F942003044CD
:103D3000B4F90610884200DB00260B98C0F1FF00A2
:103D4000803000F0FF0802E000264FF0FF08A08A54
:103D50000A90A07D069000200590049003903420E6
:103D6000005DC0F3800000285BD094F84800626CCE
:103D700000FB052000EB0901022209A820F0DFFE6C
:103D8000B4F9040094F848205043626C00FB06200C
:103D900000EB0901022208A820F0D1FEB4F90400CA
:103DA00094F848205043626C00FB062294F84800C7
:103DB00000FB052000EB0901022207A820F0BFFE4E
:103DC0003420005DC0F3400000287ED094F8480005
:103DD000616C00FB05110844401E19F800000590B5
:103DE000B4F9040094F848104843616C00FB0611D4
:103DF00094F848000844401E19F800000490B4F9F3
:103E0000040094F848104843616C00FB061194F8D4
:103E1000480000FB05110844401E19F800000390FB
:103E200053E0208A0090B4F942204020005B2844EF
:103E300001B204F11800009B1DF02EFB0990208AAE
:103E400000904220005B304402B2B4F9401004F10B
:103E50001800009B1DF020FB0890208A0090422053
:103E6000005B304402B24020005B284401B204F100
:103E70001800009B1DF010FB07903420005DC0F37C
:103E8000400010B3B4F942204020005B284401B246
:103E900004F118001DF060FA05904220005B3044E8
:103EA00002B2B4F9401004F118001DF055FA049064
:103EB0004220005B304402B24020005B284401B243
:103EC00004F118001DF048FA0390BA46BB463420AE
:103ED000005DC0F34000E0B306987843C7F1FF0CE3
:103EE000059B03FB0C00C0F3072104987843C7F13E
:103EF000FF0C039B03FB0C00C0F3072201FB08F03F
:103F0000C8F1FF0302FB0300030AA375022905DCC5
:103F1000022A03DC00200DB0BDE8F08F022901DC8D
:103F20004FF00008022A01DC4FF0FF080698022833
:103F300001DC4FF0000A0598022801DC4FF0FF0A6F
:103F40000498022801DC4FF0000B0398022803DCE0
:103F500000E002E04FF0FF0B03E0BA46BB46FF2152
:103F6000A175BAF1000F02D1099802900BE0BAF1E5
:103F7000FF0F02D10A98029005E05246DDE90910D0
:103F800018F0CAF80290BBF1000F02D10798019017
:103F90000BE0BBF1FF0F02D10898019005E05A46F3
:103FA000DDE9071018F0B8F80190B8F1000F03D15F
:103FB000BDF80400A0820FE0B8F1FF0F03D1BDF8F7
:103FC0000800A08208E04246DDE9011018F0A4F8DC
:103FD0000090BDF80000A08201209CE72DE9F05F71
:103FE0000446B4F9080001026162B4F90A00010252
:103FF000A162B4F90C000A2190FBF1F56F1CB4F931
:104000000C0005EB8501A0EB4106684200B22AF0E6
:10401000E3FA8046784200B22AF0DEFA8146C5F122
:104020005A0000B22AF0D8FA8246C7F15A0000B20C
:104030002AF0D2FA8346C6F10A0000FB08F009FB19
:1040400006000A2190FBF1F1E162C6F10A0000FBD3
:104050000AF00BFB06000A2190FBF1F12163E06AF4
:104060004111E162206B41112163A07C1DF023FB13
:104070003421095D60F3000134200155A07C1DF05E
:10408000FDFA3421095D60F3410134200155A07C23
:10409000042805D0A07C052802D0A07C062807D1E2
:1040A0003420005D20F00400001D3421085505E097
:1040B0003420005D20F00401342001552168216284
:1040C000A06920F0E000A061A17CA06961F3040078
:1040D000A061A188A06961F39420A061E188A06932
:1040E00061F35F50A061E08900EBD071491001F5E8
:1040F000001191FBF0F2A263FF21A175208AA0823A
:10410000BDE8F09F2DE9F743054616460024134C01
:1041100029F065FF8046334629462046019A1DF066
:1041200079FF07465FB900BF00BF2C21204620F071
:1041300058FD4FF00040A0620020BDE8FE83002043
:10414000A062E06918B9404629F03CFFE061E069EF
:1041500008B90120E0612046EFE7000080C300209D
:1041600010B51421114800F0CFFA1DF005FF0446E8
:1041700000BF1CB900BF00BF00BFFEE700BF14B9FD
:1041800000BF00BF10BD0A4920461DF0DDFF0949F0
:1041900020461DF0DBFF084920461DF0D9FF0749E6
:1041A00020461DF0CFFF00BFECE7000068C30020F1
:1041B00095170208691C0208851E02085D1702088F
:1041C00070B504460D461021284620F00AFD2068EF
:1041D0000078012804D1208A2880608A68800CE059
:1041E00020680078022802D1E068686005E0206855
:1041F0000078042801D10A2068602068406820B156
:10420000206829464268904701E000BF00BF70BDAA
:104210002DE9FE430446A66AEEB9A18A208A084425
:1042200001B2A182E18A608A084401B2E18220469B
:104230000CF055FD06460EB9BDE8FE83204610F091
:1042400037FC0022092130461CF0C6F96078C0F323
:10425000400000B1F0E7208A10B9608A002870D0D1
:1042600000200290019094F83C0000F00F00032819
:1042700012D1304622F06EFD0746304622F0F2FCA5
:10428000804603200090B4F910103B464246304669
:104290000CF01CF8029012E0304622F0DDFD0746DB
:1042A000304622F051FC80460C200090B4F91210E8
:1042B00043463A4630460CF009F8019000BF3046BC
:1042C00022F0A2FC054605F0010028B9BDF908005E
:1042D000002801DD0020029005F0020028B9BDF998
:1042E0000800002801DA0020029005F0040028B937
:1042F000BDF90400002801DD0020019005F0080050
:1043000028B9BDF90400002801DA0020019001AAB3
:1043100002A920462DF098F80023BDF90420BDF92C
:104320000810304625F076FCA08ABDF80810084435
:1043300001B2A182E08ABDF80410084401B2E18212
:1043400000BF00BF78E72DE9F84F0446D4F828B045
:10435000BBF1000F01D1BDE8F88F94F83C0000F0EC
:104360000F0000B9F7E71EF0D7F906463068477E20
:104370004021584624F078F910B900216183218347
:10438000584622F055FD8046584622F05BFD054612
:1043900094F83C0000F00F000C2843D10021218349
:1043A0001DBBB4F91A00C7F164014843642190FBB6
:1043B000F1F001B26183584622F0C6FB81465846AF
:1043C00022F04AFD82460C200090B4F91A104B46A8
:1043D000524658460BF07AFF6083B4F91A20002346
:1043E0001946584625F016FC69E020462DF083F862
:1043F0000090002161836A4620462DF025F8BDF922
:10440000003041F6FF72514258460CF011FE8146D1
:10441000BDF80000484402B201230021584625F0AF
:10442000F9FB4CE094F83C0000F00F00032846D163
:1044300000216183B8F1000F23D1B4F91800C7F14E
:1044400064014843642190FBF1F001B22183584696
:1044500022F008FC8146584622F07CFC824603206C
:104460000090B4F9181053464A4658460BF02EFFF8
:104470002083B4F9181000231A46584625F0CAFBC9
:104480001DE020462DF01CF8009000212183002221
:10449000694620462CF0D8FFBDF9003041F6FF7286
:1044A000514258460CF02AFD8146BDF800004844B0
:1044B00001B201230022584625F0ACFB00BF208B3F
:1044C000002860D1608B00285DD11DBB584622F0CA
:1044D000C3FC8146584622F037FB8246B9F1000FF3
:1044E00002DCBAF1000F14DDB9F1000F06DA012386
:1044F0004A460021584625F08DFB0AE0BAF1000F2C
:1045000007DA0123CAF1000002B20021584625F063
:1045100081FB00BFB8F1000F23D1584622F0A2FB67
:104520008146584622F016FC8246B9F1000F02DCA3
:10453000BAF1000F14DDB9F1000F06DA01230022F1
:104540004946584625F066FB0AE0BAF1000F07DA43
:1045500001230022CAF1000001B2584625F05AFB9F
:1045600000BF32460A2158461CF036F86078C0F386
:10457000400000B1EFE694F83C0020F00F0184F811
:104580003C100021A16200BFE5E62DE9FF41044691
:104590000F4614B918F052FB04460CB9BDE8FF8170
:1045A0001FB90020A4F85001F8E70020ADF808007A
:1045B000ADF80A00204618F059FB401E00B2ADF8D5
:1045C0000C00204618F0B8FB401E00B2ADF80E00FB
:1045D00002AA39466846FEF7C9FD064606B9DDE778
:1045E0002068007CC0F3400060B10298206303980B
:1045F00060630120A4F85001606810B1606829F080
:1046000071FECBE72068806918B12068694682692D
:10461000904700250BE004F1300000EBC5010022BB
:104620006846FEF7E4FD00B1B8E7681C85B2B4F84F
:104630005001A842EFDCB4F85001202809DAB4F8A0
:10464000502104F1300101EBC200694615F083FBF3
:104650000BE00020A4F85001B4F8502104F130011F
:1046600001EBC20002A915F076FBB4F85001401C22
:10467000A4F85001606810B1606829F033FE00BFF3
:104680008CE770B50546284600F013F8044600266E
:104690000CE02146284600F024F80646214628462C
:1046A00000F086F8204620F087F83446002CF0D140
:1046B00070BD014609B9002070474868FCE770B535
:1046C000064600243046FFF7F4FF054605E0641C6B
:1046D0002946304600F005F80546002DF7D1204662
:1046E00070BD02460B461068001D034418687047F1
:1046F00002460B461068034418687047014609B922
:10470000002070478868FCE7002242608260CA1C73
:1047100022F003010160704770B50446216801F181
:1047200008001FF07BFF0546A5B100222946204660
:104730002BF012F82946204662682AF0FFFF6068D5
:1047400020B12A46204661682BF006F86560A06813
:1047500000B9A560284670BD70B50446216801F116
:1047600008001FF05BFF0546A5B100222946204640
:104770002AF0E4FF29462046A2682AF0EDFFA0684F
:1047800020B12A462046A1682AF0D8FFA5606068BB
:1047900000B96560284670BD014609B9012070471F
:1047A000486818B9886808B90120F8E70020F6E7DA
:1047B0002DE9F04104460D460CB9BDE8F0812046D4
:1047C000FFF777FFA8420FD129462046FFF789FF60
:1047D0006060606810B90020A0602FE000222046D1
:1047E00061682AF0B9FF29E02046FFF787FFA84259
:1047F0000FD129462046FFF77BFFA060A06810B9C3
:10480000002060601AE000222046A1682AF096FF8E
:1048100014E029462046FFF76BFF0646294620464E
:10482000FFF75FFF07463A46314620462AF086FFEB
:104830003246394620462AF08FFF00BF00BFBCE752
:1048400010B504462068806818B120682146826847
:1048500090472068006828B12068006820602046E2
:10486000FFF7EEFF10BD0146886818B18868B0F9FF
:10487000160070470020FCE72DE9F04F93B0054685
:104880008B4691469A461C9E688C20F00400001DC1
:104890006884A5F8209032895946284623F060FCA8
:1048A0001290A5F820A032895946284623F058FCDA
:1048B0001190688C20F004006884DDE911108842B2
:1048C0000CD1DDE91110884208D1BDF84800BDF8CF
:1048D0004410884202D113B0BDE8F08FA5F82090B3
:1048E00032895946284623F03BFC1290A5F820A0B7
:1048F000594628460EF0BFFA10903189109A106878
:10490000129A28F018F83089602833D147F6FF71E1
:104910001298884202D0119888422BD1284623F061
:1049200046FE0F9000EBD0704710284623F03FFE64
:104930000F9000EBD0704FEA600847F6FF711298B5
:10494000884208D1781C08F10101884200DA01E0B0
:1049500008F10100129047F6FF711198884208D1C2
:10496000781C08F10101884200DA01E008F1010039
:10497000119000BF2448FFF7CFFE044600BF1CB9CA
:1049800000BF00BF00BFFEE700BF04B9A3E7129855
:10499000E06011982061ACB325603089A080C4F834
:1049A00008B0684614F0A2FB2146684614F051FC9A
:1049B0001649684614F01DFC1548029000BF1549C1
:1049C000684614F024FCFF220021684614F031FCF4
:1049D0003188684614F023FC7188684614F004FCA2
:1049E000F068069000BF6846002190F83E2061F311
:1049F000000280F83E2000BF30690590684614F040
:104A00003FFC00BF00BF66E774C30020215B0308C2
:104A1000CD5D0308FD5C030810B514210148FFF7C4
:104A200073FE10BD74C300202DE9FE4F04460F46EF
:104A300090464FF0000900256BE1E06800EBC500EF
:104A40004068C0F3406000B162E1E16801EBC5017C
:104A5000496821F07F4025F035FE064626EA07002A
:104A600008B9012000E00020029026EA080008B9F9
:104A7000012000E000200190DDE90101814272D0B7
:104A8000E06850F835A04FF0000B6A4641F610017F
:104A9000504627F0E9FB10B14FF0010BA9E06A4640
:104AA00041F61101504627F0DFFB10B14FF0010B2A
:104AB0009FE06A4641F61201504627F0D5FB10B13F
:104AC0004FF0010B95E06A4641F61301504627F07E
:104AD000CBFB10B14FF0010B8BE06A4641F615019C
:104AE000504627F0C1FB10B14FF0010B81E06A4640
:104AF00041F61401504627F0B7FB10B14FF0010BFF
:104B000077E06A4641F26901504627F0ADFB10B1EB
:104B10004FF0010B6DE06A4643F20C01504627F05E
:104B2000A3FB10B14FF0010B63E06A4643F20D01A5
:104B3000504627F099FB10B14FF0010B59E06A463F
:104B400041F20101504627F08FFB10B14FF0010BED
:104B50004FE06A4641F20401504627F085FB18B148
:104B60004FF0010B45E0D2E06A4641F202015046A7
:104B700027F07AFB10B14FF0010B3AE06A4641F2A0
:104B80000301504627F070FB10B14FF0010B30E0ED
:104B90006A4641F20501504627F066FB10B14FF01E
:104BA000010B26E06A4641F20601504627F05CFB05
:104BB00010B14FF0010B1CE06A4641F23201504641
:104BC00027F052FB10B14FF0010B12E06A4643F69A
:104BD0000F01504627F048FB10B14FF0010B08E0E1
:104BE0006A4643F60E01504627F03EFB08B14FF0EF
:104BF000010BBBF1000F02D00320BDE8FE8F6A4617
:104C000040F60A01504627F02FFB10B14FF0020981
:104C10007CE06A4640F60B01504627F025FB10B1B8
:104C20004FF0020972E06A4643F60F01504627F042
:104C30001BFB10B14FF0020968E06A4643F60E0113
:104C4000504627F011FB10B14FF002095EE06A46B2
:104C500040F63C01504627F007FB10B14FF0020927
:104C600054E06A4640F63D01504627F0FDFA10B187
:104C70004FF002094AE06A4640F63A01504627F0F2
:104C8000F3FA10B14FF0020940E06A464FF40461B4
:104C9000504627F0E9FA10B14FF0020936E06A46B3
:104CA00040F64501504627F0DFFA10B14FF00209F7
:104CB0002CE06A4640F64101504627F0D5FA10B183
:104CC0004FF0020922E06A4640F64201504627F0C2
:104CD000CBFA10B14FF0020918E06A4640F64301E2
:104CE000504627F0C1FA10B14FF002090EE06A46B3
:104CF00040F64901504627F0B7FA10B14FF00209CB
:104D000004E0B9F1000F01D14FF0010900BF00BF6D
:104D10006D1C608CC0F3C500A8423FF68EAE4846BD
:104D20006BE7000001480068704700004C0100205C
:104D300070470146C1F30412072A00DD0722D0B2F2
:104D40007047000010B518210348FFF7DDFC012073
:104D500029F0E0F910BD000020C300202DE9F0414A
:104D600005460F4616460DB9BDE8F0812846FBF70B
:104D7000E1FC8046394628460A4A126890470746B1
:104D8000E8193146074A1268904706463C4603E058
:104D9000A019285C2855641CA8EB0600A042F7D295
:104DA00000BFE1E7D80200202DE9F04106460C469D
:104DB00017461D4629463046084A1268904720602B
:104DC000206830B1296888190021044A1268904788
:104DD00000E000203860BDE8F0810000D002002033
:104DE0002DE9F04F87B004460F4692469846DDE91C
:104DF00010560DB1002028801CB9002007B0BDE876
:104E0000F08F207808B90020F8E70FB90020F5E707
:104E10004FF0000906F0020010B906F0040098B146
:104E2000002000E0401C215C0A2905D0215C0D29EE
:104E300002D0215C0029F5D1215C01B1401C15B1E3
:104E40004FF0FF312980D9E706F0020008B141F6A2
:104E5000FF7800200690059038E000200490059827
:104E600008B9012000E0002006A904AACDE90062EB
:104E7000CDE902100599601843465246394629F09B
:104E8000E3FB83460498A8EB00000FFA80F804982F
:104E900048440FFA80F9BBF1000F00D11CE00598DF
:104EA0005844059020780A2802D020780D2800D197
:104EB00012E00598205C0A2803D00598205C0D2894
:104EC00003D10598401C059006E000BF0598205CC2
:104ED00010B1B8F1000FC0DC00BF059870B905A98A
:104EE0002046094A12689047834635B10022594648
:104EF00038461BF0ECFC0FFA80F900BF0DB1A5F8A5
:104F0000009005987AE70000D00200202DE9F047D4
:104F100006468846174606B10FB9BDE8F087304609
:104F2000FBF708FC81463846FBF704FC044604B94D
:104F3000F3E704EB090A414630460B4A12689047F2
:104F40008046554603E0281B305C70556D1E08EB0B
:104F50000400A842F7D906EB0800224639461FF0A4
:104F6000FAFD00BFD9E70000D80200200246002069
:104F70000FA31B788B4211D113781BB90123137037
:104F800001200BE01378012B02D10023137005E000
:104F90001378022B02D10023137001201378012B08
:104FA00004D1202901D10223137001207047000091
:104FB0002300000073B582B0064603980190324684
:104FC00000210846019B29F05BFE05460020019068
:104FD0000024681C1FF022FB044600BF1CB900BF60
:104FE00000BF00BFFEE700BF14B9002004B070BDD1
:104FF000002060553246691C2046039B29F040FE84
:105000002046F3E72DE9F04781460E4614461F4639
:10501000DDF820A035461BE0600800FB0755294657
:105020004846D047B0F1000809DD04F0010080F0E7
:105030000100C0EB5404E8190546064608E0B8F143
:10504000000F02DA6408354602E02846BDE8F08722
:10505000002CE1D10020F9E72DE9FF4F85B0834610
:10506000DDE9158ADDE91349DDE91775129E05F0C2
:105070000200F8B94FB105F0010030B1B9F1000FED
:1050800002D105F00C0000B17F1E03E03022204663
:10509000641C3254544501D2202CF7D303E0302253
:1050A0002046641C325405F0010018B1BC4201D204
:1050B000202CF4D305F01000B0B305F4806050B993
:1050C0004CB1544501D0BC4205D1641E1CB1B8F1AD
:1050D000100F00D1641EB8F1100F09D105F02000A7
:1050E00030B9202C04D278222046641C325415E0BA
:1050F000B8F1100F09D105F0200030B1202C04D2F6
:1051000058222046641C325408E0B8F1020F05D141
:10511000202C03D262222046641C3254202C03D25D
:1051200030222046641C3254202C16D2B9F1000FD4
:1051300004D02D222046641C32540EE005F00400F9
:1051400020B12B222046641C325406E005F00800F2
:1051500018B120222046641C3254CDE90275CDE9F5
:105160000064584606A90EC900F0A2F809B0BDE8CF
:10517000F08F2DE9FF4F8FB08046DDE91FABDDE9F1
:105180001D96219D1C9C00270CB925F0100505F4E7
:10519000806000B1E4B100BFB4FBF6F106FB114141
:1051A000C8B20A2802DA00F1300107E005F0200158
:1051B00009B1412100E0612101440A39CBB23946ED
:1051C0007F1C07AA5354B4FBF6F40CB1202FE3D391
:1051D00007A8CDE904AB8DE8810203960695404609
:1051E00010A90EC9FFF738FF13B0BDE8F08F2DE905
:1051F000FF4F8FB0DDE9217BDDF89080209EDDE957
:105200001C454FF00009002184EA01006940084371
:1052100001D128F0100808F4806028B1002184EA48
:105220000100694008432DD000BF32463B4620466E
:105230002946FBF76EF802F0FF0ABAF10A0F02DA0C
:105240000AF1300007E008F0200008B1412000E03A
:10525000612050440A38C2B2484609F1010907A941
:105260000A5432463B4620462946FBF752F804468C
:105270000D46002184EA01006940084302D0B9F1DB
:10528000200FD2D32398CDE9036BCDE9050807A9F8
:105290001E98CDE9001902900FA80FC8FFF7DCFE99
:1052A00013B0BDE8F08F9A4200D28854704770471F
:1052B0002DE9FF5F05461446DDE90EA6DDE91087FE
:1052C000A34607F0020078B907F0010060B9B146C3
:1052D00007E02246641C2020039B0199A84709F19E
:1052E0000109C145F5D300BF08E02246641C711EC8
:1052F0000E461AF80100039B0199A847002EF4D12D
:1053000007F0020050B105E02246641C2020039BF8
:105310000199A847A4EB0B004045F5D3204604B003
:10532000BDE8F09F00BF70472DE9FF4F8BB00746E7
:1053300000250C9800B9FA4FEAE20E98007825286B
:105340000AD02A466D1C0E990878DDE90C13B8477F
:105350000E98401C0E90DBE20E98401C0E9000242C
:1053600000BF0E9800782B2819D004DC20281ED00E
:1053700023282CD123E02D2809D0302827D144F030
:1053800001040E98401C0E9001200A9022E044F087
:1053900002040E98401C0E9001200A901AE044F07E
:1053A00004040E98401C0E9001200A9012E044F074
:1053B00008040E98401C0E9001200A900AE044F068
:1053C00010040E98401C0E9001200A9002E000206C
:1053D0000A9000BF00BF0A980028C2D180460E99EB
:1053E0000878FDF798FE20B10EA8FDF77FFE8046F5
:1053F00012E00E9800782A280ED1189901C9189148
:10540000002804DA44F00204C0F1000800E08046FD
:105410000E99491C0E9100BF4FF000090E980078BC
:105420002E281FD144F480640E98401C0E900E99D3
:105430000878FDF770FE20B10EA8FDF757FE8146F3
:1054400010E00E9800782A280CD1189901C91891FB
:10545000002801DD014600E0002189460E99491C23
:105460000E9100BF0E9800786C280AD004DC6828E2
:1054700016D06A2835D128E0742820D07A2830D177
:1054800029E044F480740E98401C0E900E98007829
:105490006C2804D144F400740E98401C0E9021E056
:1054A00044F080040E98401C0E900E9800786828F6
:1054B00004D144F040040E98401C0E9012E044F4D5
:1054C00080740E98401C0E900CE044F400740E980A
:1054D000401C0E9006E044F480740E98401C0E9020
:1054E00000E000BF00BF0E98007869281DD00EDCD8
:1054F000622821D006DC25287ED050281AD05828D2
:105500007BD115E0632879D06428F9D10CE07328A9
:1055100075D004DC6F280ED07028F1D109E0752811
:1055200004D07828ECD102E000BF00BF00BF00BF6C
:1055300000BF00BF00BF00BF0E980078782803D0DE
:105540000E980078582801D1102623E00E98007894
:10555000702803D00E98007850280CD1102644F003
:10556000100444F480740E984078562812D10E9896
:10557000401C0E900EE00E9800786F2801D108268E
:1055800008E00E980078622801D1022602E00A267F
:1055900024F010040E980078582803D00E98007854
:1055A000502801D144F020040E980078692805D0D5
:1055B0000E980078642801D024F00C0404F4806074
:1055C00008B124F001040E980078692803D00E98E1
:1055D000007864287CD104F40070B8B31898C01D1A
:1055E00020F007001890D0E900AB189A0832189202
:1055F0000020CDE9069803E073E17CE1F2E01CE1D4
:10560000CDE904600894BAEB00017BEB000001DAFD
:10561000012000E00020002102900846B1EB0A01C1
:1056200070EB0B0002DA5046594605E000200146B7
:10563000B0EB0A0061EB0B01CDE900012A463846C8
:10564000DDE90C13FFF7D3FD0546C7E0FFE704F4DF
:105650008070D0B1189850F804AB18904FEADA7007
:10566000CDE9039802960594BAF1000F01DD514689
:1056700001E0CAF10001CDE900102A463846DDE913
:105680000C13FFF776FD0546A8E004F0400028B1B2
:10569000189810F8041B1890C8B20DE004F08000B0
:1056A00028B1189830F8041B189008B204E0189834
:1056B00000681899091D189182464FEADA70CDE901
:1056C000039802960594BAF1000F02DD514602E0FC
:1056D0000BE0CAF10001CDE900102A463846DDE9A9
:1056E0000C13FFF746FD054678E00E980078562823
:1056F00018D1189850F804AB1890DAF80400006834
:10570000099009980090DAF800300D98421B0C9827
:1057100041193846FFF708FE0544002009905DE076
:10572000AF52000804F40070D0B11898C01D20F0EA
:105730000700CDE90698089418900020CDE9046090
:105740000290189903C9189A08321892CDE90001FD
:105750002A463846DDE90C13FFF749FD05463DE0D2
:1057600004F4807098B10022CDE903980296059464
:10577000189800681899091DCDE9000218912A4669
:105780003846DDE90C13FFF7F4FC054626E004F08B
:10579000400028B1189810F8041B1890C8B20DE00A
:1057A00004F0800028B1189830F8041B189088B2D3
:1057B00004E0189800681899091D18918246002085
:1057C000CDE900A0CDE90398029605942A46384613
:1057D000DDE90C13FFF7CDFC054600BF0E98401C19
:1057E0000E9093E0012604F0020050B905E02A462D
:1057F0006D1C2020DDE90C13B8473046761C40456F
:10580000F5D3189911F8043BD8B22A466D1C1891AB
:10581000DDE90C13B84704F0020050B105E02A4658
:105820006D1C2020DDE90C13B8473046761C40453E
:10583000F5D30E98401C0E9068E0189850F804AB11
:1058400018905046B9F1000F01D0494601E04FF0E1
:10585000FF310A46014600E0491C0B781BB1131EBC
:10586000A2F10102F8D10E1A04F4806028B14E456D
:1058700001D2304600E04846064604F0020050B926
:1058800005E02A466D1C2020DDE90C13B8473046A0
:10589000761C4045F5D306E01AF8010B2A466D1C2C
:1058A000DDE90C13B8479AF8000040B104F48060B9
:1058B0000028F1D0B9F10000A9F10109ECD104F000
:1058C000020050B105E02A466D1C2020DDE90C13D2
:1058D000B8473046761C4045F5D30E98401C0E90D4
:1058E00014E02A466D1C2520DDE90C13B8470E98FC
:1058F000401C0E900AE02A466D1C0E990878DDE9DE
:105900000C13B8470E98401C0E9000BF00BF00BF9C
:105910000E98007800287FF410AD0D98854201D2D2
:10592000284601E00D98401E02460020DDE90C13D8
:10593000B84728460FB0BDE8F08F2DE9F041044686
:105940000E46002774B13146204600F02DF805467A
:10595000B5F5802F05D20C2D01D9284600E00C208A
:10596000074600BF3846BDE8F081024600BF481E2A
:10597000084018B100BF00BF00BFFEE700BF481ECF
:105980001040101A704710B502464B1E13444C1EAF
:1059900023EA040000BF4B1E0B401BB100BF00BF39
:1059A00000BFFEE700BF10BD024600BF481E084012
:1059B00018B100BF00BF00BFFEE700BF481E104483
:1059C0004B1E9843704700002DE9F04180460E467B
:1059D000444601206086002500270DE056F8270088
:1059E00025A1FAF76DFF10B1681C85B202E0608E48
:1059F000401C6086781C87B256F8270020B156F804
:105A0000270000780028E9D1208EA84201D1BDE806
:105A1000F081A06A20B1A06A1EF0CEFE0020A06234
:105A2000E06A20B1E06A1EF0C7FE0020E062E800F4
:105A30001EF0F4FDA06200BFA06A18B900BF00BF4D
:105A400000BFFEE700BF68001EF0E8FDE06200BF97
:105A5000E06A18B900BF00BF00BFFEE700BFA06A40
:105A600008B1E06A00B900256900E06A1FF0B9F8E2
:105A7000258600BFCBE700000A0000002DE9F84FA3
:105A800081460E46924699F8090000F00700022868
:105A900001D1304600E050468346564501DD304690
:105AA00000E050460746032000EB470020F00300CB
:105AB00000F110053948006839490968A0EB010870
:105AC000002405EB080037490968884206D23348AC
:105AD0000468606820F0004060603AE03148006887
:105AE000854221D813E04FF0FF3000900022694634
:105AF0002D480FF02DFD002269462C480FF028FD9F
:105B00002648006826490968A0EB010800BF08EB99
:105B10000500244909688842E5D82048046860687F
:105B200020F00040606014E028461EF077FD044637
:105B300000BF1CB900BF00BF00BFFEE700BF14B923
:105B40000020BDE8F88F606820F0004000F10040C0
:105B5000606032465946484601F0DFFE20606068CA
:105B600000F04040401C6060606820F08040606051
:105B7000A781A4F80EB06068C00F20B1204600F1E4
:105B80001001A16008E0054800681030A0600348DB
:105B900000682844014908602046D2E754010020EB
:105BA000A002002050010020C10C0108E1570108AB
:105BB000F0B585B006460D463446002004900390AB
:105BC000029094F83C0000F0030020B1012838D086
:105BD000022866D000BF94F83C0000F003005A4948
:105BE000097888421BD02620005D00EB001000EBF6
:105BF0004000142190FBF1F0544908702720005D0B
:105C000000EB001000EB4000142190FBF1F0504934
:105C1000087094F83C0000F003004B49087002A89B
:105C200003A9CDE9001005EB45014FF6FF7202EA2A
:105C3000410004AB46490A78444909780AF016FD48
:105C40005FE094F83C0000F003003F490978884287
:105C50001AD0A08C00EB400040024FF4B471B0FBAE
:105C6000F1F03C4908802720005D00EB001000EBBC
:105C70004000142190FBF1F03549087094F83C0085
:105C800000F003003049087002A803A9CDE9001014
:105C9000E9B204AB2E4802782E4800880AF0E6FCF0
:105CA0002FE094F83C0000F003002749097888426F
:105CB0001AD0A08C00EB400040024FF4B471B0FB4E
:105CC000F1F0244908802620005D00EB001000EB75
:105CD0004000142190FBF1F01C49087094F83C003E
:105CE00000F003001849087002A803A9EAB204AB47
:105CF000CDE9001015480178164800880AF0B6FC76
:105D000000BF00BF9DF810009DF80C109DF8082002
:105D1000D708BDF8003067F304038F080093BDF87F
:105D2000003067F34A13C7080093BDF8003067F3EB
:105D3000CF230093BDF800703B460193BDF80410DB
:105D4000084605B0F0BD0000060200200402002055
:105D5000050200200202002010B50120074908704A
:105D60000748FEF7A6FC20B90648006828F0AEFAFE
:105D700003E00448006828F0B5FA10BD880200204E
:105D800050C300208C02002010B5044694F83E0059
:105D9000C0F3400050B9A08F002807DDA08F4FF658
:105DA000FF71884202D0A08F401EA087A08FA8B9A3
:105DB000606B20B194F83E00C0F3400070B1214602
:105DC0001748FEF7F5FCFFF7C7FFE06810B1204663
:105DD000E168884720461EF0EFFC1FE0A06B4042C0
:105DE000E062606BD0B194F83E10C1F3400111B98C
:105DF000216B4942E16294F83E104908C94394F886
:105E00003E2061F3410284F83E20E069616AE1616D
:105E10006062A06A616BA162606300BF10BD000098
:105E200050C300202DE9F04180464248006828F028
:105E3000C9F806464048007880F001003E490870E5
:105E40003E48FEF736FC04466BE000203C490870F3
:105E500094F83E00C0F3800037490978884253D057
:105E6000354801782C34A07C61F38200A07420684E
:105E70008719A07C2C3CC0F3C00010BBE06A00284E
:105E80001FDC002F1DDB94F83E0000F0010060B91C
:105E9000206950B12046216988470546E0692844B9
:105EA000E061606A2844606200BFA06810B12046CB
:105EB000A168884794F83E0020F00800083084F874
:105EC0003E00E06A3044E062E06A00281BDBD4E96F
:105ED0000A10884201DDA06AE0622046A169884775
:105EE0000546206AA84206D02562606818B1294696
:105EF000D4E900029047D4E90A10884202DB204628
:105F0000FFF742FF00BF00BF0D48007820B10B48EB
:105F1000FEF7CFFB044604E021460848FEF7E1FB0C
:105F20000446002C91D128F05AF802490860BDE8D7
:105F3000F0810000840200208902002050C300206C
:105F400088020020F7B582B004460E4614B90498C2
:105F500005B0F0BD00BF63223146204622F000F9B3
:105F60000190019D00BFBDB12868A8B100BF6422A7
:105F70003146204622F0F4F801900198C0B207465D
:105F80004FB13A462B682846049998470190BDF8CE
:105F90000400ADF8100000BF0498D9E770B50446BE
:105FA0000D46606818B129466068FFF7F7FF206862
:105FB00018B1294620462268904770BD70B5054645
:105FC0000C46A1B2284613F0F3FD70BD70B505462E
:105FD0000C46A1B2284613F03CFE70BD10B50DF082
:105FE00089FC10BD70B505460C46164606E02846ED
:105FF0006A1C95B200F008F804F8010B301EA6F1F7
:1060000001018EB2F3D170BD70B5044600260DF0CB
:1060100031FD2112A02202EB4101C8B20DF0F4FCC7
:106020000DF06EFD2546E11704EB11610912A4EB9A
:106030000121C8B20DF0E8FC0DF062FD0DF01AFD73
:10604000A1200DF0E1FC0DF05BFD00200DF0AEFC99
:1060500006460DF035FD304670BD70B505460C4660
:10606000164606E02178284600F009F8681C85B23B
:10607000641C301EA6F101018EB2F3D170BD70B563
:1060800004460E460DF0F6FC2112A02202EB41015F
:10609000C8B20DF0B9FC0DF033FD2546E11704EB55
:1060A00011610912A4EB0121C8B20DF0ADFC0DF095
:1060B00027FD30460DF0A8FC0DF022FD0DF000FD8F
:1060C0000A2001F0C3FF70BD70B504460D4600BF45
:1060D000204600F03BF818B100BF00BF00BFFEE74C
:1060E00000BF284600F050F9001D61680844606058
:1060F000204600F03AF8204670BD70B505460C46C3
:10610000284600F041F904F11001884201D3012032
:1061100070BD0020FCE70146A1F1080070477CB586
:1061200005460C46204600F02FF906466A4601A9AE
:1061300029F0ECF821462846DDE900320EF08AFD10
:106140007CBD0146087900F00100704710B5044697
:10615000204600F019F908B9012010BD0020FCE725
:106160000146087900F00200704770B504462046E9
:1061700000F097F805462C60284670BD7CB50646B1
:106180000C4600200190009000256CB16A4601A9E0
:10619000204629F0D8F801980C2805DA6A4601A9AA
:1061A00030462BF08FFA054685B100BF284600F037
:1061B000EBF8A04203D200BF00BF00BFFEE700BF64
:1061C00029463046DDE900322AF0E4FE28467CBD4F
:1061D00070B504462046FFF7C8FF0546284600F084
:1061E000BEF8204600F0B6F870BD70B504462046F3
:1061F00000F057F80546284600F0B6F8204600F0B3
:10620000BEF870BD70B506460D46284600F049F848
:10621000044600BF1CB900BF00BF00BFFEE700BFBF
:106220002046FFF78EFF90B100BF2846FFF78EFF94
:1062300018B100BF00BF00BFFEE700BF21463046D7
:1062400000F076F821462846FFF73EFF054628462F
:1062500070BD70B506460D462846FFF781FFF0B1C8
:10626000284600F057F8044600BF1CB900BF00BF25
:1062700000BFFEE700BF00BF2046FFF762FF18B96E
:1062800000BF00BF00BFFEE700BF2146304600F060
:106290004FF829462046FFF717FF054600BF28465E
:1062A00070BD2DE9F0410446204600F06DF8061F50
:1062B000204600F0B8F80746314629F001FB0546B4
:1062C00000BF2046FFF742FF18B100BF00BF00BF6C
:1062D000FEE700BF2846BDE8F0812DE9F041064603
:1062E0000C461546002794B100BF1DB900BF00BF82
:1062F00000BFFEE700BF2A462146304600F097F86F
:106300002046FFF772FF204600F08DF8074638461A
:10631000BDE8F08110B5044600BF2046FFF720FF1E
:1063200018B900BF00BF00BFFEE700BF206810BD66
:106330007CB505460C46204600F026F806466A461F
:1063400001A928F0E3FF21462846DDE900322AF0C2
:1063500021FE7CBD416841F0010141607047416808
:1063600041F0020141607047416821F00201416043
:106370007047426802F003030B4343607047416873
:1063800021F00101416070470146486820F0030098
:1063900070472DE9F04706460C46304600F043F8BA
:1063A0008046211F29F08CFA07463046FFF7ECFFA4
:1063B000211D451A00BF384600F035F881463846A1
:1063C00000F031F880460421FFF7DDFA814503D063
:1063D00000BF00BF00BFFEE700BF00BF3046FFF7B1
:1063E000D3FF2919091D884203D000BF00BF00BF99
:1063F000FEE700BF29463846FFF7BBFF00BF38461F
:10640000FFF7C2FF0C2803D200BF00BF00BFFEE7AA
:1064100000BF21463046FFF7ACFF3846FFF7D8FEF5
:106420003846BDE8F087014601F1080070472DE9C4
:10643000F04106460C46154600BF2046FFF781FE98
:1064400018B900BF00BF00BFFEE700BF29462046C5
:10645000FFF753FE78B129462046FFF79AFF07461B
:106460002046FFF782FE3846FFF779FF394630466F
:10647000FFF755FE00BFBDE8F0812DE9F04106466B
:106480000C46154600BF2046FFF75BFE18B100BF63
:1064900000BF00BFFEE700BF29462046FFF72DFEE4
:1064A00088B129462046FFF774FF07463846FFF7B4
:1064B0005BFF39463046FFF7A5FE074639463046B2
:1064C000FFF72DFE00BFBDE8F0812DE9F843064639
:1064D00034461CF021F9804640461CF062F978BB36
:1064E000304619F08CFD38B3304619F004FC208F8B
:1064F000E18E884212D0E08E2087E08E00906A46BE
:106500001C2130461AF068F80746012F02D03846A1
:10651000BDE8F883304622F044FC00BF40461CF042
:1065200050F90546042D06D1304620F09BFA074667
:1065300000211AF0E4FE09E0304619F0C3FD05E041
:10654000FFE7208FE086304622F02BFC0120DFE7BA
:106550002DE9F041044620461AF038F80546284651
:1065600020F0DAFA0646284614F0D0FB074601224E
:106570003946304626F0CEFEBDE8F0810146C1F333
:10658000C01070470146C1F3801070470146C1F347
:10659000C01070470146C1F3002070470146C1F3A7
:1065A000C00070470146C1F3401070470146C1F377
:1065B000402070470146C1F3003070470146C1F3E7
:1065C000001070472DE9F04F89B004460D460021B8
:1065D000204620F03CF930B91C2128461EF001FB72
:1065E00009B0BDE8F08F2946204600F00BFB294694
:1065F000204600F07DF80021204621F05BFB08904A
:106600000021204621F0DCFC07900021204621F0EB
:1066100011F9012800D100E0002081460021204628
:1066200021F084FF07460021204621F0F1F90646BB
:1066300042F2D170874205D1608CC0F3802008B946
:10664000012000E000208246204620F0A0F90690BC
:1066500000BF4FF00008244802884146204621F040
:106660007FFD03900398C0B200BF8346AA682969E2
:106670002868CDE90209CDE900125A465146089B27
:1066800006980CF085FC288342F2D170864205D131
:10669000608CC0F3402008B9012000E00020059084
:1066A000204620F055F9049000BF4FF000080F4835
:1066B00002884146204621F053FD03900398C0B262
:1066C00000BF83460023EA6869686869CDE9021360
:1066D000CDE900025A46079BDDE904010CF058FCA5
:1066E000688300BF7CE700007A0100207E01002063
:1066F0002DE9F34F87B00C4607980BF067FC8046F6
:10670000079820F044F90690404601F081F9206195
:10671000216948001DF0BCFF2060216948001DF080
:10672000B7FFA060002548E05848029038F91500EE
:1067300041F69A7188423FD10020019029E00199E9
:10674000079820F084F800905149009821F097FFB5
:1067500000B11BE000980BF057FC8246BAF1010F24
:1067600000D013E000980BF03FFC8346AB4500D00F
:106770000CE0009821F01BFF0299884201DA029890
:1067800002E0009821F013FF029000BF0198401C26
:106790000190079820F079F801998842CFD80298A3
:1067A000002804DB0298A16821F8150003E000210D
:1067B000A06820F8151000BF6D1C2069A842B3D84E
:1067C0000026B14600251BE038F9150041F69B7103
:1067D000884202DB411A0E4411E041F69A71884268
:1067E00006D1A16831F8151049440FFA81F906E085
:1067F000A16821F8150009EB00010FFA81F96D1C61
:106800002069A842E0D80021079821F053FA0590AA
:106810002169491EDDE9050200FB112000B2069046
:106820000698A0EB090007B2002F00DA00274FF00E
:10683000FF30049000200390002513E038F9150084
:1068400041F69B7188420CDB421A11B207FB01F240
:10685000B2FBF6F212B2A36823F815200495039157
:1068600000BF6D1C2069A842E8D8049800280ADB04
:106870000398301A7843B0FBF6F0381A01B2A268D8
:10688000049822F8101009B0BDE8F08F01E0FFFF76
:10689000010006002DE9FC5F05460022114628464E
:1068A00023F044FB0021284621F02BF881460021EB
:1068B000284621F0ACFB484407B20021284621F0CD
:1068C0005DF948440FFA80FA284620F019FF384451
:1068D00050440FFA80FB3B4E28461FF0D6FF019034
:1068E0004FF000085CE0A868006850F8284036497E
:1068F000204621F0C4FE00B150E0204622F0CEFA3E
:10690000002839D10021204620F02CFF009000986B
:1069100030B1012807D0022804D0032815D100E0A7
:1069200000BF00BF00BFB4F91A10B5F91600081A6D
:10693000401CB04201DA304605E0B4F91A10B5F94E
:106940001600081A401C06B214E00021204621F06F
:1069500021FE70B904F1140013F055FA3844B04226
:1069600001DA304604E004F1140013F04CFA384424
:1069700006B200BF00BF10E0B4F91A10B5F9160056
:10698000081A401CB04201DA304605E0B4F91A108A
:10699000B5F91600081A401C06B200BF08F101083C
:1069A000019880459FD30748864209D006EB0A002C
:1069B00006B25E4502DD3046BDE8FC9F5846FBE767
:1069C0005846F9E701E0FFFF010004002DE9FC5FF4
:1069D000054600221146284623F08CFA002128465D
:1069E00020F08FFF82460021284621F04DFA5044C6
:1069F0000FFA80F80021284621F09DF950440FFA43
:106A000080F9284620F08CFE4844404400B20190B2
:106A1000724C28461FF039FF83460021284620F09B
:106A2000E2FE012866D100265BE0A868006850F805
:106A300026706B49384621F022FE00B150E03846FE
:106A400022F02CFA002839D10021384620F08AFEA5
:106A50000090009830B1032805D0062804D00828FB
:106A600015D102E000BF00BF00BFB5F91800B7F9AB
:106A70001410401A401CA04201DA204605E0B5F986
:106A80001800B7F91410401A401C04B214E0002199
:106A9000384621F072FD70B907F1140013F026FAA0
:106AA0004044A04201DA204604E007F1140013F04C
:106AB0001DFA404404B200BF00BF10E0B5F9180051
:106AC000B7F91410401A401CA04201DA204605E034
:106AD000B5F91800B7F91410401A401C04B200BFF1
:106AE000761C5E45A1D33D48844269D004EB090081
:106AF00004B265E000265BE0A868006850F82670E4
:106B00003749384621F0BBFD00B150E0384622F04D
:106B1000C5F980BB0021384620F024FE0090009883
:106B200030B1012805D0042804D0072815D102E08F
:106B300000BF00BF00BFB7F91800B5F91410401A24
:106B4000401CA04201DA204605E0B7F91800B5F96B
:106B50001410401A401C04B215E00021384621F000
:106B600019FD78B907F1140013F0C0F94844A042A8
:106B700002DA204605E008E007F1140013F0B6F948
:106B8000484404B200BF00BF10E0B7F91800B5F9DF
:106B90001410401A401CA04201DA204605E0B7F963
:106BA0001800B5F91410401A401C04B200BF761C3E
:106BB0005E45A1D30948844202D004EB080004B228
:106BC0000648844202D10198BDE8FC9F01988442A6
:106BD00001DD2046F8E70198F6E7000001E0FFFF3D
:106BE0000100040010B5044620681DF0CDFD60686A
:106BF0001DF0CAFDA0681DF0C7FDE0681DF0C4FDD2
:106C000010BD00002DE9F34F87B00C4607980BF03C
:106C1000CDFF8046404600F0FBFE606161694800A0
:106C20001DF036FD6060616948001DF031FDE060D7
:106C3000002548E05948029038F9150041F69A714C
:106C400088423FD10020019029E0019907981FF068
:106C5000FEFD00905249009821F011FD00B11BE0AB
:106C600000980CF06BF88246BAF1010F00D013E0E7
:106C700000980CF053F88346AB4500D00CE0009828
:106C80001FF0FAFE0299884201DA029802E00098A9
:106C90001FF0F2FE029000BF0198401C019007987F
:106CA0001FF0F3FD01998842CFD80298002804DB39
:106CB0000298E16821F8150003E00020E16821F85E
:106CC000150000BF6D1C6069A842B3D80026B1460C
:106CD00000251BE038F9150041F69B71884202DB64
:106CE000411A0E4411E041F69A71884206D1E168DA
:106CF00031F8151049440FFA81F906E0E16821F8EE
:106D0000150009EB00010FFA81F96D1C6069A842BA
:106D1000E0D80021079821F053F9069007981FF05A
:106D200017FE01466269521E069800FB121000B25F
:106D300005900598A0EB090007B2002F00DA0027A4
:106D40004FF0FF30049000200390002511E038F947
:106D5000150041F69B7188420ADB421A11B207FB0B
:106D600001F2B2FBF6F212B2E36823F8152000BF7D
:106D70006D1C6069A842EAD8049800280ADB0398D1
:106D8000301A7843B0FBF6F0381A01B2E268049882
:106D900022F8101009B0BDE8F08F000001E0FFFFFD
:106DA000010006007CB504460D4616462888218958
:106DB000084400B2ADF8000068886189084400B258
:106DC000ADF80200A8882189084400B2ADF804009B
:106DD000E8886189084400B2ADF806003246694689
:106DE0002046636998477CBDF8B505460E462C469B
:106DF000206B10B1206B007818B9606B08B90120C6
:106E0000F8BD606B58B1284626F089FE0746104948
:106E100009688847616B884201D30020F0E7206B46
:106E200098B1002000900AE069460A4A206B126877
:106E300090470746B74201D10120E1E700BF206B30
:106E40000099405C0028EFD1DAE70120D8E7000084
:106E5000E0020020D00200202DE9FF4F8FB00F4646
:106E6000209DF87800F0010008B1FA4800E0FA48E7
:106E70000E90F87800F0010008B1F84800E0F848FA
:106E80000D90F87800F0010008B9F44800E0F448EB
:106E90000C9001200B90B5E000220B9200206A8834
:106EA000B5F804C0A2EB0C0211B200261AE006EB02
:106EB000860CEA6802EB8C02127C02F0010242B9F5
:106EC00006EB860CEA6802EB8C029289024410B24F
:106ED00007E006EB860CEA6802EB8C0212898A1A3C
:106EE00011B2761C2A69B242E1D8002685E006EB91
:106EF000860CEA6802EB8C02127C02F00102002A86
:106F00007AD191FBF0F80FFA88F306EB8609D5F8F1
:106F10000C8008EB8908B8F80C8008FB03F80FFA1E
:106F200088F206EB8609D5F80C8008EB8908B8F9D9
:106F3000049006EB860AD5F80C8008EB8A08B8F9AD
:106F40000680904501DD904607E006EB860AD5F8FD
:106F50000C8008EB8A08B8F90680C14508DD06EB0D
:106F60008609D5F80C8008EB8908B8F9048013E08D
:106F700006EB8609D5F80C8008EB8908B8F906807D
:106F8000904501DD904607E006EB8609D5F80C80B8
:106F900008EB8908B8F90680C44694450BD04FF039
:106FA000010806EB860AD5F80C9009EB8A09C9F8A6
:106FB0001080CDF82C8006EB8609D5F80C8008EB04
:106FC0008908A8F808C006EB8609D5F80C8008EBFC
:106FD0008908B8F80C80A0EB08080FFA88F006EBD7
:106FE0008609D5F80C8008EB8908B8F80880A1EB71
:106FF00008080FFA88F100BF761C2A69B2423FF6F2
:1070000076AF00BF0B9800287FF446AF00210F98A1
:1070100020F003FC012800D100E000200A900020AD
:107020000990089008A809A9CDE9001029890BB298
:10703000B5F9022038781E9928F045FCF87800F060
:10704000010048B10A9838B10F981FF0A0FCBDF8B4
:107050002410084400B2099011990F981FF0F7FB13
:1070600004468AE17F49204621F009FB40B1F878C7
:10707000C0F3800111AA0F980BF0D3FB04467CE10A
:107080000021204620F09AFC07900798002858D04D
:1070900000200390002610E006EB8601E86850F817
:1070A0002100A04208D106EB8600E96801EB8000D0
:1070B000B0F90800039003E0761C2869B042EBD8D1
:1070C00000BFF87800F0010030B1608C20F48060DF
:1070D00000F58060608405E0608C20F4007000F5AD
:1070E0000070608404F114000D9988470399884268
:1070F00026D0204621F055FE00BFA08AADF804003E
:10710000E08AADF80600208BADF80800608BADF882
:107110000A0000BF04F114000E9A0399904701AAD7
:107120002921204619F058FA20461FF0F5FC224686
:107130002221009019F050FA204621F032FE00BFC3
:1071400007E0608C20F480606084608C20F4007024
:107150006084002006907878012812D0022819D186
:1071600004F114000C998847B5F90010491C21F06E
:107170000101081A039000EBD070401000B2069095
:1071800009E004F114000C9988472988081A00B214
:10719000069000E000BF00BFF87800F0010050B199
:1071A0000A9840B104F114000D998847BDF82410E5
:1071B000081A00B209900020039043F20C02204606
:1071C000039920F0CDFF029002980FFA80F800BFDB
:1071D0000020039043F20D022046039920F0C0FFE7
:1071E000029002980FFA80F900BF204621F0DFF9E3
:1071F000059020461FF040FC049008F4C040B0F514
:10720000005F01D1012000E0002030B128F4C0402F
:10721000B0F5FA6F01DC012000E0002090B128F405
:10722000C040B0F57A7F04DD28F4C040C0F57A7024
:1072300001E028F4C04005994843642190FBF1F037
:107240000FFA80F809F4C040B0F5005F0CD10120BE
:107250000BE000002BA001081FA001086B9F010894
:107260005B9E010801000600002030B129F4C040F7
:10727000B0F5FA6F01DC012000E0002090B129F4A4
:10728000C040B0F57A7F04DD29F4C040C0F57A70C3
:1072900001E029F4C04004994843642190FBF1F0D7
:1072A0000FFA80F9A18A1C98401A40440FFA80FA1C
:1072B000E18A1D98401A48440FFA80FBF87800F0E4
:1072C000010010B1BDF9240000E0069850440FFA07
:1072D00080FAF87800F0010008B1069801E0BDF9E5
:1072E000240058440FFA80FBBAF1000F02D1BBF121
:1072F000000F1BD0204621F054FDA08A504400B25C
:10730000A082208B504401B22183E08A584401B20C
:10731000E182608B584401B26183204621F041FD37
:1073200001235A465146204621F018FEF87800F015
:10733000010008B10A9870B904F114000D9988474A
:107340001F990844BDF820100844BDF824100844D3
:1073500000B2099008E0BDF820101F980844BDF85D
:107360002410081A00B20990F878C0F3800111AA1D
:107370000F980BF056FA044600BF24B1DDE9111056
:1073800081427FF46FAE13B0BDE8F08F2DE9F04F6E
:107390008DB005468946B9F1000F02D10DB0BDE8A8
:1073A000F08FA5F81890286810B128681DF004FA2D
:1073B00009EB4901062202EB41001DF02FF928607C
:1073C00000BF286818B900BF00BF00BFFEE700BFBC
:1073D000286868600221286801FB0900801CE860B9
:1073E0000421286801FB0900001DA860B9F1010F04
:1073F0000CD1B420696808700020E9680880012079
:10740000E96848800020A9680880C7E709F1010100
:10741000C8001DF03DF9074609F1010007EB80089F
:107420004FF0000A4FEA890002B20BA90CA800F045
:1074300067F90024BDF93000801007900020039008
:10744000CCE0002616E00BA90CA800F061F90CA80E
:1074500000F04BF900B90FE0BDF93000801007A92A
:1074600041F82600BDF8300000F0030003A941F800
:107470002600761C042EE6DB00BF042E00D0B3E00D
:107480000A990798884219D1079800B227F8140082
:107490000FFA8AF028F81400DDE903010844059981
:1074A000084406990844696808556868005D000743
:1074B000000E69680855601C04B28DE0DDE9070123
:1074C00088422CD0079800B227F814000FFA8AF0EF
:1074D00028F814000398696808556868005D00077B
:1074E000000E69680855601C04B20798401E00B27F
:1074F00027F814000FFA8AF028F814000498001DE9
:107500000599084406990844696808556868005D4B
:107510000007000E69680855601C04B25CE0099918
:10752000079888422CD0079800B227F814000FFA69
:107530008AF028F81400DDE9030108446968085559
:107540006868005D0007000E69680855601C04B299
:107550000798401E00B227F814000FFA8AF028F8A6
:107560001400059808300699084469680855686849
:10757000005D0007000E69680855601C04B22BE02E
:10758000079800B227F814000FFA8AF028F81400C0
:10759000DDE90301084405990844696808556868ED
:1075A000005D0007000E69680855601C04B207986A
:1075B000401E00B227F814000FFA8AF028F81400D1
:1075C00006980C30696808556868005D0007000E71
:1075D00069680855601C04B20AF1010A0CA800F0A1
:1075E00084F800287FF42DAF00BF40F2D32109FBBF
:1075F00001F00290029880120190601E37F910107D
:107600000198814205D1601E38F91010019881421D
:1076100026D0DDE90121A1EB8220B0F5007F04DC5A
:1076200000FB00F14800001407E0C0F5806000FB9B
:1076300000F148000014C0F10F00019909B227F8C9
:107640001410019909B228F814106A681055696875
:10765000095D0907090E6A681155611C0CB200BF6B
:10766000A61E0EE038F8160027F8140037F81600AA
:1076700028F814006868805D69680855761E601CEB
:1076800004B2002EEEDA4FF0000B00260020E9686D
:10769000088023E0E96821F81B6037F81600A96824
:1076A00021F81B0010E0A86830F81B0037F916100D
:1076B000884203DAA86830F81B0001E037F91600A9
:1076C000A96821F81B00761C38F91600584501D12D
:1076D000A642E8DB0BF101000FFA80FBA642D9DBE2
:1076E00038461DF051F800BF58E60146B1F90200D6
:1076F000B1F90020904201DC012070470020FCE736
:10770000028000234380C2F101031BB20B8070474B
:10771000B1F90020002A07DC0B8842885200D21CF5
:107720001A4412B20A800CE042880388D21A52002E
:10773000521D0B881A4412B20A800288521E12B2DD
:1077400002804288521C12B24280704737B582B024
:107750001546022D04DCBDF80C10084605B030BDFE
:10776000BDF80C00C00ABDF8081000EBD1241F2C96
:1077700001D2204600E01F20BDF8081060F3CF21A1
:107780000291BDF80C00C0F34510BDF80810C1F31C
:10779000451144183F2C01D2204600E03F20BDF89F
:1077A000081060F34A110291BDF80C0000F01F00B0
:1077B000BDF8081001F01F0144181F2C01D220460B
:1077C00000E01F20BDF8081060F304010291FF2DB6
:1077D00003D1BDF808100846C0E72A46DDE90201DA
:1077E00014F0BCFC0190BDF804100846B6E717B5CC
:1077F00081B01446022C04DCBDF80810084604B021
:1078000010BDBDF80400C00ABDF80810C90A4843FD
:107810004109BDF8040061F3CF200190BDF80400D8
:1078200000F01F00BDF8081001F01F014843410996
:10783000BDF8040061F304000190BDF80400C0F33A
:107840004510BDF80810C1F3451148438109BDF842
:10785000040061F34A100190FF2C03D1BDF804101D
:107860000846CCE72246DDE9010114F077FC0090E0
:10787000BDF800100846C2E737B582B01546022DA4
:1078800004DCBDF80C10084605B030BDBDF80C0096
:10789000C00ABDF80810A0EBD124002C01DD204661
:1078A00000E00020BDF8081060F3CF210291BDF880
:1078B0000C00C0F34510BDF80810C1F34511441A7F
:1078C000002C01DD204600E00020BDF8081060F328
:1078D0004A110291BDF80C0000F01F00BDF808101D
:1078E00001F01F01441A002C01DD204600E00020B9
:1078F000BDF8081060F304010291FF2D03D1BDF81B
:1079000008100846C0E72A46DDE9020114F026FC0B
:107910000190BDF804100846B6E708B50346009389
:107920000098484080EA620008BD2DE9F84F804683
:10793000404618F04BFE8246404618F0E6FD0646EB
:1079400050461FF0E9F881462B2E09D1484625F014
:10795000D4FC044600222146484625F0DBFC3AE0F0
:107960000A2E38D1694650461FF058F950461FF08C
:107970000EF80446002148461FF069FF01280AD18D
:10798000204604EBD071BDF90020C2EB610191FBF0
:10799000F4F10DB209E0204604EBD071BDF90020EE
:1079A00002EB610191FBF4F10DB2002D00DA00252C
:1079B0000027484625F0A1FCA84200D0012701225B
:1079C0002946484625F0A6FC27B100221C2148463E
:1079D00018F002FE00BFBDE8F88F10B58060C060EF
:1079E00000230361002110E0002400F1140343F898
:1079F0002140002206E000F1440303EBC11343F8E9
:107A00002200521C202AF6DB491C0C29ECDB10BD9D
:107A10000146002000E0401C31F9102041F6FF73C0
:107A20009A42F8D17047000010B500BF00224FF411
:107A300000711148FAF75CFA00BF00F021F800BFAE
:107A4000012202210D48FAF753FA00BF00F018F89E
:107A500000BF002202210948FAF74AFA00BF00F0ED
:107A60000FF800BF012251020348FAF741FA00BFA4
:107A700000F006F810BD0000001C0140000C0140A1
:107A800010B5022000F0EEFA10BD000000B585B080
:107A900000BF00BF1948806940F00800174988619D
:107AA0000846806900F00800009000BF00BF00BFDA
:107AB00000BF00BF0846806940F08000886108462A
:107AC000806900F08000009000BF00BF00BF02206E
:107AD000019011200290012003900320049001A93D
:107AE0000748FAF753F84FF40070019001A90548D0
:107AF000FAF74CF800F0BEF805B000BD00100240E7
:107B0000000C0140001C014010B500BF01225102D1
:107B10000C48FAF7EDF900BFFFF7B2FF00BF0122F2
:107B200002210948FAF7E4F900BFFFF7A9FF00BFF7
:107B3000002202210448FAF7DBF900BFFFF7A0FF9B
:107B400010BD0000001C0140000C014070B505464E
:107B5000002400261DE06006040E00BF0122022161
:107B60001148FAF7C5F900BFFFF78AFF4FF400711B
:107B70000E48FAF7ABF908B1601CC4B200BF00228E
:107B800002210948FAF7B4F900BFFFF779FF701C2A
:107B9000C6B2082EDFDB15B9FFF7B6FF01E0FFF72D
:107BA00043FF204670BD0000000C0140001C014056
:107BB00070B50446002525E000BFE00928B1012288
:107BC00051021548FAF794F905E000224FF40071CC
:107BD0001148FAF78DF900BFFFF752FF00BF0122ED
:107BE00002210E48FAF784F900BFFFF749FF00BFF2
:107BF000002202210948FAF77BF900BF6006040E53
:107C0000681CC5B2082DD7DB00BF01225102024813
:107C1000FAF76EF900BF70BD001C0140000C014076
:107C200010B500BF012251021048FAF761F900BFF8
:107C300000BF012202210E48FAF75AF900BFFFF7F0
:107C40001FFF00BF00224FF400710848FAF750F9F7
:107C500000BFFFF715FF00BF002202210448FAF71A
:107C600047F900BFFFF70CFF10BD0000001C0140EA
:107C7000000C014010B500BF00224FF400710C4809
:107C8000FAF736F900BFFFF7FBFE00BF0122022121
:107C90000848FAF72DF900BFFFF7F2FE00BF0122F6
:107CA00051020348FAF724F900BFFFF7E9FE10BDBF
:107CB000001C0140000C014070B50024002500BFED
:107CC000012251021648FAF713F900BFFFF7D8FE58
:107CD00000BF012202211348FAF70AF900BFFFF79B
:107CE000CFFE09E0601CC4B2FA2C03DDFFF7C2FF2F
:107CF000012508E0FFF7C4FE4FF400710848FAF7C9
:107D0000E5F80028EED100BF00BF0022022105489F
:107D1000FAF7EEF800BFFFF7B3FE284670BD00008B
:107D2000001C0140000C01407CB506460D4634465F
:107D30005020005D00F00100A84233D00DB10120B9
:107D400000E000205021095D60F300015020015542
:107D500004F14401684612F046F8BDF80000616A7B
:107D6000898A084400B2ADF80000BDF80210606ACC
:107D7000C08A084400B2ADF80200BDF80400616A90
:107D8000898A084400B2ADF80400BDF80610606AA4
:107D9000C08A084400B2ADF806006946304621F0BA
:107DA0003AF800BF7CBD37B582B00546144621467F
:107DB000039814F03DF80190BDF80410084605B092
:107DC00030BD2DE9FF4F8DB005460E461446F07AC2
:107DD000022803DC012011B0BDE8F08F3089326940
:107DE00001460C901098FCF78DF907460FB900205A
:107DF000F1E7397D01F01F0019F05DFC10B14FF083
:107E000006080AE0397D01F01F0019F037FC10B1B7
:107E10004FF0050801E04FF00408386A38B100BFA0
:107E200000BF214628463A6A29F04DFEDEE0B869D7
:107E3000002859D021460BA811F096FF308818B9B8
:107E40007088B0F5807F32D0204612F05DF883460E
:107E500000BFE0886188401A401C00B20890301DC5
:107E60007188CDE90010308803B259460BA8089AF2
:107E7000FBF772FCBDF82C002188084400B2ADF875
:107E80002C00BDF82E006188084400B2ADF82E0029
:107E9000BDF830002188084400B2ADF83000BDF8CC
:107EA00032006188084400B2ADF8320000BF0BAA6E
:107EB00009A8A968FBF75AF98146B9F1000F04D166
:107EC000384601F046FC012085E7D5F808A009A84E
:107ED000A860CDF80080224631462846BB6915F0DF
:107EE000E7F9C5F808A081E022460BA8A968FBF7CE
:107EF0003DF90A900A9820B9384601F02AFC012081
:107F000069E70BA812F000F809900BA811F0FCFF2C
:107F100000EB400003901CF0BBFB8146D5F808A0A5
:107F20000BA907A811F020FF012107A812F077F88C
:107F3000BDF92C00B4F90010401A0690BDF92E00CE
:107F4000B4F90210A0EB010BBDF92E00059042E040
:107F500007AA514602A8FBF709F90A900A9800B946
:107F600036E0CDF80090099803B20FFA8BF206982C
:107F700001B238461AF0CCF80490049801280ED0CB
:107F8000384619F0E5FF00BF00BF48461CF0FCFB77
:107F9000384601F0DEFBC5F808A000201BE702A868
:107FA000A8604B4607AA31462846CDF8008015F058
:107FB0007FF9BDF81E00401C00B2ADF81E00BDF8F0
:107FC0002200401C00B2ADF822000BF1010B00BFF3
:107FD0000598401C0590BDF9321005988142B7DA2A
:107FE000C5F808A048461CF0CFFB00BF384601F09A
:107FF000B0FB0120EFE600BF00BF704770B504463C
:1080000000204FF0E0210861FAF70CFCE11704EBC7
:108010005171C1F3CF010C4A1180E11704EB51718A
:10802000CD104FF47A7045434FF0E020006940F0E6
:1080300002004FF0E021086108464561006940F008
:108040000100086170BD00001000002030B504463A
:10805000002504E04FF47A7000F004F86D1CA5428E
:10806000F8D330BD70B5034600224FF0E0267569A5
:108070000D4E368803FB06F44FF0E026B16910E0A0
:108080004FF0E026B06988420BD0884202D20E1A27
:10809000324402E02E1A0E4432440146A24200D37A
:1080A00000E0EDE700BF70BD10000020F8B5064607
:1080B0000C4615460095B4F90630B4F90420B4F91D
:1080C0000210B4F900000DF008FD304614F0B0FDC8
:1080D000F8BD10B50FF052FF01200DF011FC10BDDE
:1080E000F8B505462C461AF017FB0646206B25F01E
:1080F00069FF3168898B88422CD2606A009094F8BD
:108100003C0000F0030020B1012806D002280CD169
:1081100007E00020ADF8000007E064208DF80200C1
:1081200003E064208DF8030000BF00BF30461AF062
:10813000B7FC2846009914F012FC50B100221C2113
:10814000284618F049FA0746012F01D03846F8BDF5
:1081500000BF00BF25F043FF20630120F7E70000C8
:108160002DE9F04F9BB0074689461646BA4617A838
:1081700014F01BFE4FF4A02138461FF00BFB9DF8B6
:10818000691060F382018DF86910304611F0F4FE39
:10819000054600EBD5704FEA60083088404400B2D5
:1081A000ADF858007088404400B2ADF85A00002184
:1081B00038461FF0A2FC1590494603A81EF0FCF8B3
:1081C00017A80B904FF40030109033480490002013
:1081D00005900AF13000FCF791FA044657E0207947
:1081E000032800D04DE0208BADF85C00208A00B25F
:1081F000ADF85E006079FD2801DD159803E0607937
:108200001599484300128DF868002568B5F92000DB
:10821000E98B08440090B5F92030D5E90512A06833
:108220001CF0E8F98346B5F92000E98B084400907A
:10823000B5F92030D5E90512E0681CF0DBF90290B1
:10824000608B404400B2ADF84800149416A80C901E
:1082500003AA1A21384618F0BFF9029880B21FFA13
:108260008BF1CDE90010BDF8480083B216AA17A91A
:10827000484614F07CFD03AA1B21384618F0ACF9DF
:1082800000BF21460AF13000FCF732FA0446002C08
:10829000A5D11BB0BDE8F08FACB8030870B504469B
:1082A0000D4600222946204607F07EFE012229467F
:1082B000204607F079FE02222946204607F092FC6C
:1082C00004222946204607F08DFC70BD2DE9F74FAA
:1082D0009EB00C46E078022802DC21B0BDE8F08FA9
:1082E0001CA8209911F052FDB4F9200001282EDDC0
:1082F00094F82200FD282ADB208840B3BDF87000E6
:1083000014F8231F4908C1F38001084400B2ADF8F6
:108310007000BDF8720021784908C1F3400108449B
:1083200000B2ADF87200BDF8740021784908C1F3BD
:10833000C001401A00B2ADF87400BDF8760014F820
:108340002319C1F34001401A00B2ADF876001E981F
:108350001CA982681AA8FAF709FF00B9BDE7E07BFB
:1083600000F0070616B9A088199001E0E08819907E
:10837000BDF864106089814200D100261CA815F068
:10838000FDFE18901C2111A8F8F772FAA0788DF85C
:108390005D00BDF86400ADF84C00189860B9208805
:1083A00050B94EB91CA81190E0788DF85C0011A965
:1083B0001E9816F093FD90E7E078FD2801DBFF2082
:1083C00000E0E07810901CA811F0C8FD0F901CA8E8
:1083D00011F03CFD0E90DDE90E01814201DA0F98AB
:1083E00000E00E980D90B4F900100D98B1EB600FFD
:1083F00002DAB4F9000001E00D98401007461AA80F
:1084000011F0ACFD81464FF0FF300C9000200B9036
:10841000002F01DC189870B148461CF039F90B9018
:1084200000233AB21CA905A816F020FA002105A8DD
:1084300015F09EFB0C90BDF86800ADF80C00BDF87F
:108440006C00ADF810000B98149003A811901690D2
:10845000FF208DF85C00A01DDDE90E2118F0FEFC68
:108460008046B8F1000F0CD0022E0AD1BDF9681079
:10847000D8F8080000EB4100BDF97010A0EB4100F6
:1084800012901898A0B3BDF96A502CE028B2ADF84C
:108490000E0028B2ADF812004A4610990B981CF055
:1084A00066FBBDF968100FFA89F32AB20B9815F034
:1084B00015FE8DF854009DF85400012802D10220C9
:1084C0008DF85400012E09D1BDF97210691AD8F83F
:1084D000080000EB41000088ADF84C0011A91E987F
:1084E00016F0FCFC6D1CBDF96E00A842CEDACCE0A3
:1084F000FFE700255CE0BDF8720028440FFA80FA1F
:10850000BDF87600401B0FFA80FBBDF96A005045AC
:1085100004DDBDF96E00584500DA48E04A4610997E
:108520000B981CF024FBBDF90C100FFA89F352468E
:108530000B9815F0D3FD8DF854009DF854000128D8
:1085400002D102208DF85400BDF96A00504514DCB8
:10855000ADF80EA0ADF812A0012E0AD1BDF972102F
:10856000AAEB0101D8F8080000EB41000088ADF843
:108570004C0011A91E9816F0B1FCBDF96E005845CB
:1085800014DBADF80EB0ADF812B0012E0AD1BDF972
:108590007210ABEB0101D8F8080000EB4100008835
:1085A000ADF84C0011A91E9816F098FC00BF6D1C88
:1085B000BD42A0DBBDF87000ADF80400BDF874004A
:1085C000ADF80800BDF87200384400B2ADF80600FE
:1085D000BDF87600C01B00B2ADF80A0001A815F086
:1085E000CDFD00900098B0B9AEB9BDF87200384426
:1085F00000B2ADF80E00BDF87600C01B00B2ADF8B9
:10860000120010988DF85C000020149011A91E989B
:1086100016F064FC38E010988DF85C0001208DF8AD
:108620005400BDF97600A0EB070ABDF97200C51928
:1086300027E0009870B14A4610990B981CF097FA01
:10864000BDF968100FFA89F32AB20B9815F046FDB0
:108650008DF8540028B2ADF80E0028B2ADF8120023
:10866000012E09D1BDF97210691AD8F8080000EB83
:1086700041000088ADF84C0011A91E9816F02EFCA0
:108680006D1C5545D5DD00BF00BF0B9810B10B9890
:108690001CF07AF80C98401C28B10C9816F0CEF912
:1086A00005A815F047FDB8F1000F02D0404618F0BC
:1086B000CCFB00BF11E62DE9F0478EB007460C4613
:1086C0001546206910B90EB0BDE8F087A07E0228DB
:1086D00000DCF8E7206919F0BFFF0646022E55D1ED
:1086E000002041F6FF71CDE90001029003460DA87C
:1086F000D4E9041226F05EF8284611F02FFC8146DA
:1087000000EBD970298801EB6000BDF9348008EBDB
:10871000D871A0EB610000B2ADF82C00BDF82C00C0
:10872000BDF834100844401E00B2ADF830002846B1
:1087300011F08CFB814600EBD970698801EB600079
:10874000BDF9368008EBD871A0EB610000B2ADF83E
:108750002E00BDF82E00BDF836100844401E00B2B1
:10876000ADF8320003A815F08BF960690390208BF7
:10877000ADF81800A07E8DF82600002000900BAA0E
:1087800003A93846236914F0C7FDAEE00DA920699E
:1087900019F00AFC8046B8F1010F02D000BF00BFFB
:1087A00091E707A814F09BFDA0788DF82800208B96
:1087B000ADF82400E07E8DF82600A07E8DF827001D
:1087C000207FE8BB284611F0C9FB824600EBDA7037
:1087D000298801EB60000D99C1F38A2909EBD97151
:1087E000A0EB610000B2ADF81400284611F02EFB9A
:1087F000824600EBDA70698801EB60000D994FEA60
:10880000515909EBD971A0EB610000B2ADF8160027
:10881000BDF814000D99C1F38A210844401E00B22E
:10882000ADF81800BDF816000D9900EB5150401E30
:1088300000B2ADF81A0005AA07A93846236900E07E
:1088400002E014F0FDFC4FE06888ADF81600BDF8BA
:1088500016000D9900EB5150401E00B2ADF81A0001
:108860003BE02888ADF81400BDF814000D99C1F361
:108870008A210844401E00B2ADF8180017E005AA8E
:1088800007A93846236914F0DBFCBDF814000D99E4
:10889000C1F38A21084400B2ADF81400BDF81800F5
:1088A0000D99C1F38A21084400B2ADF81800BDF952
:1088B0001400B5F904108842E1DDBDF816000D99E9
:1088C00000EB515000B2ADF81600BDF81A000D993A
:1088D00000EB515000B2ADF81A00BDF91600B5F921
:1088E00006108842BDDD00BF00BF00BFEBE62DE9EA
:1088F000F04F87B083460C46164694F822000228B3
:1089000002DC07B0BDE8F08F208C00B9F9E794F8DD
:108910002300C0F3440000B9F3E794F8230000F00B
:10892000010000B1EDE7304611F018FB81463046FA
:1089300011F08CFA0746B4F90050B94501DA4846FF
:1089400000E038468246B5EB6A0F01DD4FEA6A0562
:10895000314605A811F01AFABDF9141094F8230055
:10896000400800F0040010B1B4F9200003E0B4F9AD
:10897000200028444042084400B2ADF81400BDF97C
:10898000181094F82300400800F0080010B1B4F962
:10899000200003E0B4F9200028444042081A00B245
:1089A000ADF81800BDF9161094F82300400800F047
:1089B000020010B1B4F9200003E0B4F9200028440B
:1089C0004042084400B2ADF81600BDF91A1094F800
:1089D0002300C0F3400010B1B4F9200003E0B4F963
:1089E000200028444042081A00B2ADF81A00208C3A
:1089F000281A0FFA80F8B8F1000F01DA4FF00008DA
:108A0000A07894F82210CDE90210E08BADF80400B4
:108A10002BB205AA31465846CDF8008000F002F886
:108A200000BF6EE72DE9FF4FA3B00D4616461F4667
:108A30003298FF2801DBFF2000E032983290284670
:108A400015F09CFB2290229868B967B9309850B90C
:108A50003298009032462946319B239800F0A9FABB
:108A600027B0BDE8F08F23982946826820A8FAF73E
:108A70007DFB00B9F4E720A811F070FA81461C21B3
:108A800019A81CF0AEF848461BF002FE1C904FF0EF
:108A9000FF301890002F0ADD00233A46294612A81D
:108AA00015F0E4FE002112A815F062F818900123D9
:108AB00031460CA8309A15F0D9FE00210CA815F00B
:108AC00057F80B9009A819901E90BDF8C400ADF896
:108AD0006C0032988DF87C0033988DF87D00B5F9E4
:108AE00000003844B6F90010884203DDB5F90000F3
:108AF000384401E0B6F9000000B2ADF81C00B5F949
:108B00000400C01BB6F90410884203DAB5F904006A
:108B1000C01B01E0B6F9040000B2ADF82000B5F9C1
:108B200002003844B6F90210884203DDB5F90200AC
:108B3000384401E0B6F9020000B2ADF81E00B5F904
:108B40000600C01BB6F90610884203DAB5F9060024
:108B5000C01B01E0B6F9060000B2ADF8220007A87C
:108B600011F0FCF90690B5F90200B6F9021088423E
:108B700001DC012000E000208246B5F90600B6F9CC
:108B80000610884201DB012000E000208346229885
:108B900000284CD0BDF88000ADF82400BDF884005A
:108BA000ADF82800BDF9824029E0BAF1000F04D1E8
:108BB000BDF91E00A04200DD20E0BBF1000F04D192
:108BC000BDF92200A04200DA1DE020B2ADF8260077
:108BD00020B2ADF82A0049461C981CF039F8BDF9BE
:108BE00080100FFA89F322B21C9815F077FA8DF8ED
:108BF000740019A9239816F071F900BF641CBDF91F
:108C00008600A042D1DA00BF0CA815F093FA0B98A9
:108C100015F014FF1898401C28B112A815F08AFA14
:108C2000189815F00BFF1C981BF0AEFD18E7B5F96E
:108C30000000B6F90010884201DC012000E00020AD
:108C40000590B5F90400B6F90410884201DB012053
:108C500000E00020049001200390059860B1049882
:108C600050B1BAF1000F07D0BBF1000F04D0069845
:108C7000322801DA0020039001208DF87400BAF147
:108C8000000F15D0039898B1BDF81C00ADF8240072
:108C9000BDF82000ADF828006888ADF8260070887F
:108CA000401E00B2ADF82A0019A9239816F016F953
:108CB000BBF1000F15D0039898B1BDF81C00ADF8BA
:108CC0002400BDF82000ADF82800F088401C00B258
:108CD000ADF82600E888ADF82A0019A9239816F007
:108CE000FDF8059898B12888ADF824003088401E1A
:108CF00000B2ADF82800BDF81E00ADF82600BDF8A2
:108D00002200ADF82A0019A9239816F0E7F8049874
:108D100098B1B088401C00B2ADF82400A888ADF826
:108D20002800BDF81E00ADF82600BDF82200ADF801
:108D30002A0019A9239816F0D1F80398F0BBBDF8C2
:108D40008000ADF82400BDF88400ADF82800B5F926
:108D50000200B6F90210401AB84201DA384604E0BF
:108D6000B5F90200B6F90210401A00B202900024D0
:108D700042E06888204400B20190E888001B00B2FD
:108D80000090BDF982100198814205DDBDF9861081
:108D90000098814200DA2EE049461C981BF058FFEB
:108DA000BDF924100FFA89F3019A1C9815F096F971
:108DB0008DF87400BDF98210019800E020E0814236
:108DC00009DC0198ADF826000198ADF82A0019A930
:108DD000239816F083F8BDF986100098814209DBCC
:108DE0000098ADF826000098ADF82A0019A923983C
:108DF00016F074F800BF641C02988442B9DBC7E027
:108E0000BDF88000ADF82400BDF98410BDF91C0048
:108E1000401E814202DABDF9840002E0BDF91C0067
:108E2000401E00B2ADF8280009A811F097F880465E
:108E3000B8F1000F48DD059810B9BAF1000F1ED047
:108E4000BDF9824017E020B2ADF8260020B2ADF89F
:108E50002A0041461C981BF0FBFEBDF92410434636
:108E600022B21C9815F03AF98DF8740019A92398CC
:108E700016F034F8641CBDF91E00A042E3DC05982E
:108E800010B9BBF1000F1FD0BDF92200441C17E040
:108E900020B2ADF8260020B2ADF82A0041461C9859
:108EA0001BF0D6FEBDF92410434622B21C9815F0E3
:108EB00015F98DF8740019A9239816F00FF8641CA1
:108EC000BDF98600A042E3DABDF98010BDF92000AB
:108ED000401C814202DDBDF9800002E0BDF92000A6
:108EE000401C00B2ADF82400BDF88400ADF82800A5
:108EF00009A811F033F88046B8F1000F48DD049856
:108F000010B9BAF1000F1ED0BDF9824017E020B2AF
:108F1000ADF8260020B2ADF82A0041461C981BF09F
:108F200097FEBDF92410434622B21C9815F0D6F8DE
:108F30008DF8740019A9239815F0D0FF641CBDF9B1
:108F40001E00A042E3DC049810B9BBF1000F1FD053
:108F5000BDF92200441C17E020B2ADF8260020B273
:108F6000ADF82A0041461C981BF072FEBDF9241092
:108F7000434622B21C9815F0B1F88DF8740019A977
:108F8000239815F0ABFF641CBDF98600A042E3DA1C
:108F90000CA815F0CFF80B9815F050FD12A815F09D
:108FA000C9F8189815F04AFD1C981BF0EDFB00BF9E
:108FB00056E52DE9FF4F89B080460C461546DDF891
:108FC00058901C2168461BF00CFE07A80090BDF8C5
:108FD0003000ADF808008DF81890B4F90200B5F92A
:108FE0000210884201DC012000E000200646B4F9AE
:108FF0000600B5F90610884201DB012000E00020E0
:109000000746B4F90000B5F90010884201DC0120E0
:1090100000E000208246B4F90400B5F9041088424B
:1090200001DB012000E0002083462088ADF81C0011
:10903000A088ADF820006088ADF81E006888401E4A
:1090400000B2ADF822001EB16946404615F046FF59
:10905000E888401C00B2ADF81E00E088ADF82200A0
:109060001FB16946404615F039FF2088ADF81C0055
:109070002888401E00B2ADF8200016B1B5F90200F4
:1090800001E0B4F90200ADF81E0017B1B5F9060011
:1090900001E0B4F90600ADF82200BAF1000F03D0E8
:1090A0006946404615F01AFFA888401C00B2ADF88A
:1090B0001C00A088ADF82000BBF1000F03D069466A
:1090C000404615F00BFF0DB0BDE8F08F2DE9FF4FC6
:1090D00093B00746904699464FF6FF70804502D1FF
:1090E00017B0BDE8F08F3E46746A208C1290208C39
:1090F000484506D0A4F82090608C20F00400001DA4
:1091000060844FF4802120461FF0F7F811904FF44F
:10911000802120461FF061F90546119817F0F2FBF7
:109120008246384609F083FA8346BBF81600ADF84C
:109130003E00BDF93E000AEB050108FB010000B24C
:10914000ADF83E00284605EBD071BDF83E20A2EBFD
:10915000610109B2ADF83E10BDF83E00504428440C
:10916000401E00B2ADF84200706A808AADF83C0043
:10917000706A008BADF8400001A815F08DFC01AAC3
:109180004FF4802120461FF05DFC0FAA01A914981E
:1091900015F066FC12982084608C20F00400608436
:1091A00000BF9DE72DE9F04F91B007460D46904670
:1091B00099464FF6FF70804502D111B0BDE8F08F9F
:1091C0001097109F7C6A208C0F90208C484506D009
:1091D000A4F82090608C20F00400001D608407A893
:1091E00014F04EFC07AA4FF4802120461FF04FFBDD
:1091F0004FF4802120461FF0F0F8ADF82E003846DD
:1092000009F015FA064606B9D7E7079817F07AFB72
:109210008246F08AADF81600BDF91600BDF92E1091
:10922000514408FB010000B2ADF81600BDF92E0054
:1092300000EBD071BDF81620A2EB610109B2ADF8C8
:109240001610BDF816005044BDF82E100844401EFC
:1092500000B2ADF81A00A08AADF81400208BADF86A
:10926000180005AA03A8A968F9F780FF8346BBF197
:10927000000F13D0A868029003A8A86030461AF027
:10928000BFF901900020009006F1140207A92846BA
:10929000019B14F041F80298A86000BF0F98208449
:1092A000608C20F00400608400BF86E72DE9F04167
:1092B00005463548006813F0D5FC04462868866BDF
:1092C000F06A10B13046F16A8847206890B1606852
:1092D00080B10CE02C4800680068806A38B12A4AE6
:1092E00012681068284A12681268916A88472069D3
:1092F0000028EFD101202061234800680068C06881
:10930000806900F0010050B11F4800680068C06823
:109310008069C0F3400010B10120606101E00020CD
:109320006061606908B1012000E0002007462868FC
:10933000406998B12868007CC0F3011048B12868E2
:10934000007CC0F3800020B1D6E9001000F01EF8C8
:1093500004E0D6E900212868FDF724FD206880B1EB
:10936000606870B12868007C00F0010000B147B16E
:109370002168A068884202D16068A06001E020688E
:10938000A060BDE8F08100004C0100202DE9F34F02
:1093900083B004468848006805688748006800680C
:1093A000007CC0F3400040B1287CC0F3800020B1B5
:1093B00000BF00BF05B0BDE8F08F287CC0F30110EE
:1093C00002280AD121462846049A00F004F92146D1
:1093D0002846049AFDF7E6FCEBE0287CC0F3011078
:1093E000012804D0287CC0F301100328F4D1002008
:1093F00002907148006813F035FC8246204610F058
:109400007CFD0646204610F005FD83464FF4A05033
:10941000B0FBF6F000B2584505DA4FF4A050B0FBAF
:10942000F6F000B200E058460190B4F90280287CC2
:10943000C0F3011001280BD168882188401A401E12
:1094400000B2E080E088801B401C00B2608006E033
:109450002088608060883044401E00B2E080002791
:109460009EE0ABEB07010198814201DD019801E02C
:10947000ABEB07000FFA80F90120CAF8100047BBD8
:10948000B34526DBB146297CC1F30111032901D183
:10949000012100E0002108463146049A00F00FF94E
:1094A000287CC0F30110012807D1A4F8008008EB44
:1094B0000600401E00B2A0803FE02888401EA0EBBE
:1094C000080000B2A080A088801B401C00B2208051
:1094D00033E0029820B94FF420501BF0D9F80290E5
:1094E00002980090297CC1F30111032901D10121C7
:1094F00000E0002108464A463146049B00F0B2F8DD
:10950000287CC0F3011001280AD108EB070000B243
:10951000208008EB07004844401E00B2A0800CE009
:109520002888401EA0EB0800C01B00B2A080A088C5
:10953000A0EB0900401C00B2208007EB0900584551
:109540000DDBDAF8180000F0010040B1DAF818007D
:10955000C0F3400018B10120CAF8140002E0002056
:10956000CAF81400029808B9049800E0029802466C
:1095700021462846FDF716FC04E0A86A10B12846EB
:10958000A96A8847DAF810000028F6D106FB09F12D
:10959000049800EB4100049007EB090007B200BFFC
:1095A0005F45FFF65EAF029810B102981BF0ECF831
:1095B00000BF00BFFEE600004C01002018B5048883
:1095C00000940C88048014880C801C881480BDF8DA
:1095D00000401C8018BD2DE9FC5F05460C46164670
:1095E000204610F08AFC8246204610F013FC834689
:1095F0000AFB0BF001900198471E4FF0000811E0A4
:1096000006EB47000088009006EB470006EB480198
:109610000988018006EB4800BDF8001001807F1E1C
:1096200008F101084745EBD8B4F9069068886188CD
:10963000401A401E00B2E0806888A0EB0900401E7E
:1096400000B26080B4F9049028882188401A401E36
:1096500000B2A0802888A0EB0900401E00B2208044
:10966000BDE8FC9F2DE9F04704461D46089F01FB1D
:1096700002F0A0F1010C481E00FB02F800231AE0E2
:1096800008EB03000CB1ACEB000000260FE0A9468C
:10969000AD1C07EB400AB9F80090AAF800900CB195
:1096A000104400E0801A06F101090FFA89F68E4293
:1096B000EDDB581C03B29342E2DBBDE8F0872DE9F5
:1096C000F04782460C46154600263BE0002731E075
:1096D000601E801B0FFA80F8601EC01B0FFA80F915
:1096E000BAF1000F12D007FB048C05EB4C0308FB0A
:1096F000049C05EB4C0209FB046C05EB4C0106FBDA
:10970000047C05EB4C00FFF759FF11E009FB046CEA
:1097100005EB4C0308FB049C05EB4C0207FB048C97
:1097200005EB4C0106FB047C05EB4C00FFF746FF04
:10973000781C07B2601C00EBD071B7EB610FC7DB80
:10974000701C06B204EBD471B6EB610FBEDBBDE852
:10975000F08710B50446204618F0FAFB10BD000053
:109760002DE9F14F9EB01E9816F030FF05462C46AD
:109770001E9816F0D2FE1D90606A19F041FF074650
:109780005020005D00F0010010B91FB0BDE8F08F5F
:109790000FA815F081F90FAA4FF4E02128461FF019
:1097A00051F904F144010DA810F01DFBBDF834007F
:1097B000616A898A084400B2ADF83400BDF83610F9
:1097C000606AC08A084400B2ADF83600BDF83800BF
:1097D000616A898A084400B2ADF83800BDF83A10D1
:1097E000606AC08A084400B2ADF83A000DAA0FA919
:1097F0001D9815F035F94FF4E02128461EF0C2F807
:1098000006464FF4E02128461EF024FB30440FFAB0
:1098100080F84FF4E02128461EF095FC30440FFA02
:1098200080F900200B900C90E16CC8191F49096861
:1098300088478246E06CC11952460BA81BF043F8DA
:10984000BDF83400404400B2ADF83400BDF8360035
:10985000484400B2ADF836004FF0000BD4F824A015
:1098600040F25742594650461EF07AFC019001984A
:109870000A9002A814F004F902AA4FF4E021284645
:109880001FF005F89DF83F00022805DCBDF8140024
:10989000BDF82810884207D000200BAB0DAA02A902
:1098A00000901D9813F038FD00BF6EE7C402002041
:1098B0002DE9F04FBDB005460E4600BF00BFAB46D8
:1098C0000BF13000FAF768FF10B13DB0BDE8F08F42
:1098D00005F114023BA8B168F9F748FC00B9F4E7B8
:1098E000B0683A903BA8B06035A814F015F935AAD5
:1098F0004FF4E02128461FF031F827A815F0CCF8E6
:109900009DF8DC008DF89F0047F6FF70ADF89C00D5
:109910004FF4E02128461EF016FE074600EBD770F4
:109920004FEA60094FF4E02128461EF00CFE07467E
:1099300000EBD7704FEA600A314604A81CF03CFDEA
:1099400024A80A9016A808904FF4E02011906948C6
:109950000590052006900BF13000FAF7CFFE044683
:10996000C0E00A2235A924A81AF0ADFF382227A9A1
:1099700016A81AF0A8FFE088ADF89000E088ADF8CE
:109980005C0039A80D9038A80E90607B00F00100B3
:1099900020B1B4F90070B4F9028010E0A08847F655
:1099A000FF71884200D197E0A28801AB2846A168E8
:1099B00011F004FEBDF90470BDF9068000BFA88A4D
:1099C000384407B2E88A40440FFA80F8B9F1000F32
:1099D00019D0BAF1000F16D0A7EB090000B2ADF80C
:1099E000080007EB090000B2ADF80C00A8EB0A0074
:1099F00000B2ADF80A0008EB0A0000B2ADF80E00A4
:109A000002A8079001E000200790207B00F00300EF
:109A100070B3207B00F0010010B1B5F9140000E034
:109A20003846ADF8E400ADF8E680207B00F0020097
:109A300010B1B5F9180000E03846ADF8E000BDF807
:109A4000E600ADF8E20004AA1A21284616F0C4FD8B
:109A500038AB39AA24A9304614F047F802AA16A94F
:109A6000304614F0FDFF04AA1B21284616F0B4FD71
:109A7000207B00F00C0070B3ADF8E470207B00F0A8
:109A8000040010B1B5F9160000E04046ADF8E6005C
:109A9000BDF8E400ADF8E000207B00F0080010B154
:109AA000B5F91A0000E04046ADF8E20004AA1A2118
:109AB000284616F091FD38AB39AA24A9304614F097
:109AC00014F802AA16A9304614F0CAFF04AA1B21F2
:109AD000284616F081FD00BF21460BF13000FAF751
:109AE00007FE0446002C7FF43CAF3A98B06000BFFC
:109AF000EBE6000074B303082DE9F14F9AB01A9811
:109B000016F064FD04461A9816F007FD19902046D9
:109B10001EF04DFD074620461CF0AEFF834607EBC6
:109B2000D771A28A02EB610109B218910BEBDB71CC
:109B30004A10E18A114409B2179107EBD7714E1010
:109B400014A813F0E9FF14AA002120461EF006FF16
:109B50004FF41D707043552190FBF1F0642190FB90
:109B6000F1F000B2ADF85200BDF85200801C00B216
:109B7000ADF8520000201390002120461DF019FE80
:109B80000546002347F6FF7204F114010DA814F0F6
:109B90006DFE00210DA813F0EBFF0C9000BFA08A12
:109BA000ADF82800E08AADF82A00208BADF82C0033
:109BB000608BADF82E0000BFBDF82800284400B22D
:109BC000ADF82800BDF82C00401B00B2ADF82C0009
:109BD000BDF82A00284400B2ADF82A00BDF82E00D6
:109BE000401B00B2ADF82E00012347F6FF720AA910
:109BF00004A814F03BFE002104A813F0B9FF039061
:109C0000BDF952804FF0000A4FE051462046FBF765
:109C1000CFFF0090BDF80000ADF850001398C0F3DE
:109C20000F290FFA89F024F0D7FC06EB080148430E
:109C3000189901EBE03000B2ADF804000FFA89F09A
:109C400024F0BAFC06EB08014843179901EBE03019
:109C500000B2ADF806000FFA89F024F0BDFC711BCC
:109C6000A1EB08014843189901EBE03000B2ADF8D0
:109C700008000FFA89F024F09FFC711BA1EB08018A
:109C80004843179901EBE03001B2ADF80A1002AB7E
:109C900001AA14A9199813F028FF0AF103001FFA6A
:109CA00080FA139800F587601390BAF5807FACDDD9
:109CB0000DA814F03FFA04A814F03CFA0C9814F024
:109CC000BDFE039814F0BAFE1BB0BDE8F08F000093
:109CD0002DE9F04FA5B004460F46254604F11401C6
:109CE00023A8BA68F9F742FA2290229810B925B051
:109CF000BDE8F08FB868219023A8B8600021204605
:109D00001DF019FE1E90002120461EF02EF801467F
:109D10001E98084400B21D90002120461EF091F9C3
:109D200001461E98084400B21C9020461CF02FFEED
:109D30007E35E9884843001200B21B9020461CF093
:109D400007FE29894843001200B21A9017A813F0A1
:109D5000E3FE17AA002120461EF000FE394605A8A2
:109D60001CF02AFB002012908C48069000200790DF
:109D700017A80B904FF0FF30139000200E900F901B
:109D800005AA1A21204616F027FC00200190312256
:109D9000204601991EF0E4F90090009800F0FF0BB6
:109DA00000BF002120461DF0C6FD04900020019058
:109DB0003322204601991EF0D3F90090009800F05C
:109DC000FF0800BF20461CF04DFF039020461DF009
:109DD00043F8029035F87E09002865D0E18A1C9886
:109DE00001440298081A00B20190A08AADF88000E0
:109DF000208BADF87C004FF00009B5F87E000FFA1B
:109E000080FABBF1020F1ADD0498002817DD08F074
:109E1000020040B1002120461EF013F918B909F1E3
:109E200001000FFA80F908F0010040B1002120463E
:109E30001DF0BEFE18B9AAF101000FFA80FA4E46D5
:109E40002FE01A987043B5F87E10491E90FBF1F090
:109E500000B2ADF88200BDF882100198084400B24B
:109E6000ADF88200BDF88200ADF87E004B48069048
:109E70000120079020A80E901FA80F90139605AA06
:109E80001A21204616F0A8FB1FAB20AA17A93846B6
:109E900013F02BFE05AA1B21204616F09DFB701C1B
:109EA00006B25645CDDB00BFB5F88000002865D06E
:109EB000A18A1D9801440398081A00B20190E08A13
:109EC000ADF88200608BADF87E004FF00009B5F868
:109ED00080000FFA80FABBF1020F1ADD0498002807
:109EE00017DD08F0040040B1002120461DF03DFFC1
:109EF00018B909F101000FFA80F908F0080040B123
:109F0000002120461DF0DAFF18B9AAF101000FFA6E
:109F100080FA4E462FE01B987043B5F88010491E1A
:109F200090FBF1F000B2ADF88000BDF88010019810
:109F3000084400B2ADF88000BDF88000ADF87C00A8
:109F4000164806900220079020A80E901FA80F9098
:109F5000139605AA1A21204616F03EFB1FAB20AA35
:109F600017A9384613F0C1FD05AA1B21204616F09B
:109F700033FB701C06B25645CDDB00BF4FF0FF30FF
:109F8000139000200E900F9005AA1B21204616F07A
:109F900023FB2198B86000BFA9E6000074B3030852
:109FA0002DE9F14F9AB01A9816F0AFFA07461A98B1
:109FB00016F00CFB05462C46122F7DD11A9816F090
:109FC00002FB06463078022802D11BB0BDE8F08FB4
:109FD00094F8380000F00300032805D094F8380006
:109FE00000F00300022802D101203070EDE794F860
:109FF0003800C0F38400042808D094F83800C0F377
:10A000008400012802D001203070DEE74FF0000A02
:10A010004622514628461EF0A3F819901998C0B25E
:10A02000FF2802D001203070CFE7002128461EF023
:10A0300015FA8146208E8144B9F1000F02D001202B
:10A040003070C2E7002128461EF049FA8046E08EB3
:10A0500000FB08F04FEA20281A9816F0B4FA83465D
:10A06000B8F5807F09D1002205F114015846F9F7AF
:10A07000BEF8E8BB01203070A7E728461CF0FCFCC6
:10A08000824628461EF093FA179004F132001FFA18
:10A0900088F100235246CDE9001018A81799F9F766
:10A0A0005BFBBDF86000A98A084400B2ADF860000F
:10A0B000BDF86210E88A00E01DE0084400B2ADF887
:10A0C0006200BDF86400A98A084400B2ADF86400DB
:10A0D000BDF86610E88A084400B2ADF866000022B8
:10A0E00018A95846F9F783F818B9012030706CE7C1
:10A0F00000E000BF19E2152F01D0182FFAD100217E
:10A1000028461EF0ECF98046E08E00FB08F04FEA8E
:10A110002028002128461EF0A1F98246208E824484
:10A1200028461EF044FA199028461CF0A5FC189009
:10A13000002641F23202314628461EF011F80E90F8
:10A140000E9800B2814600BF41F612023146284601
:10A150001EF006F80E900E9848440FFA80FB00BFE0
:10A1600041F61302314628461DF0FAFF0E900E9874
:10A17000484400B2179000BF41F61002314628460D
:10A180001DF0EEFF0E900E98484400B2169000BFEE
:10A1900041F61102314628461DF0E2FF0E900E985E
:10A1A000484400B21590608E584400B2ADF850009B
:10A1B000A18E1698084400B2ADF8520094F8390008
:10A1C00000F00300012804D112A928461CF0FEFB70
:10A1D00027E014A91FFA88F00FFA8AF3CDE90001ED
:10A1E00012A8DDE91821F9F7B7FABDF84800A98AE5
:10A1F000084400B2ADF84800BDF84A10E88A0844A7
:10A2000000B2ADF84A00BDF84C00A98A084400B27B
:10A21000ADF84C00BDF84E10E88A084400B2ADF825
:10A220004E0005F1140110A80FF0CBFD12A905F1A5
:10A2300014000FF0C6FDBE481A991CF0E3FA0F9007
:10A240000F98012800D0C0E610A905F114000FF006
:10A25000B8FD152F7ED1E08D08B1A08D00B9B4E610
:10A26000B8F1000F00D1B0E61A9816F056F906467C
:10A2700005F114010DA80FF0A4FD284618F0DAF836
:10A280000C9094F8390000F0030001283CD1B4F997
:10A290002C10BDF93020891A481C00EBD071BDF894
:10A2A0003420A2EB610109B2ADF83410B4F92C10DE
:10A2B000BDF93020891A481C00EBD071BDF8382058
:10A2C000A2EB610109B2ADF83810B4F92E10BDF956
:10A2D0003220891A481C00EBD071BDF83620A2EB61
:10A2E000610109B2ADF83610B4F92E10BDF9322073
:10A2F000891A481C00EBD071BDF83A20A2EB61012D
:10A3000009B2ADF83A1013E012A80FF051FEBDF8F3
:10A3100034100844401E00B2ADF8380012A80FF007
:10A32000BFFDBDF836100844401E00B2ADF83A003B
:10A33000BDF83400584400B2ADF83400BDF8361012
:10A340001698084400B2ADF83600BDF838101798DA
:10A35000081A00E0E8E000B2ADF83800BDF83A10A5
:10A360001598081A00B2ADF83A0094F8380000F0D9
:10A370000300012805D094F8380000F003000028FD
:10A380007AD106A812F0ABFF06AA002128461EF0DB
:10A390001FFA1FFA88F0ADF81A001FFA8AF0ADF81C
:10A3A0001800608EADF81C00A18EADF81E1094F858
:10A3B0003800C0098DF82C00BDF84800584400B2A0
:10A3C000ADF81000BDF84A101698084400B2ADF878
:10A3D0001200BDF84C101798081A00B2ADF814001E
:10A3E000BDF84E101598081A00B2ADF81600B06806
:10A3F000039004AA04A8B168F8F7B8FE00B9E4E530
:10A4000004A8B060BDF83610608D084400B2ADF805
:10A410000600BDF90600BDF93610884206DDBDF81C
:10A420000600E18D401A00B2ADF80600BDF8060046
:10A43000E18D0844401E00B2ADF80A0049E0BDF8C5
:10A440003400218D084400B2ADF80400BDF90400C9
:10A45000BDF93410884206DDBDF80400A18D401A14
:10A4600000B2ADF80400BDF80400A18D0844401E00
:10A4700000B2ADF8080016E034E001AA06A93046A3
:10A48000636A12F0DDFEBDF80400BDF83010084428
:10A4900000B2ADF80400BDF80800BDF83010084463
:10A4A00000B2ADF80800BDF90400BDF938108842CB
:10A4B000E3DBBDF80600BDF83210084400B2ADF889
:10A4C0000600BDF80A00BDF83210084400B2ADF82D
:10A4D0000A00BDF90600BDF93A108842AFDB0398C7
:10A4E000B06020E094F8380000F00300022811D199
:10A4F00004A813F0C5FA04AA002128461EF0C7F9E3
:10A500000020009005F1140204A93046636A12F09D
:10A5100003FF08E000BF00BF002305F11402194645
:10A52000304612F08DFE00BF00BF00BF4DE50000B9
:10A5300000F203082DE9F14FDCB05C9816F046F804
:10A5400005462C465C9815F0E8FF5B9059A9284613
:10A550001CF03CFA0020CDE9105040F60A02DDE97B
:10A5600010011DF0FDFD0F900F9800B258900020D3
:10A57000CDE9105040F60B02DDE910011DF0F0FDB1
:10A580000F900F9800B25790BDF864115898081AB0
:10A5900000B2ADF86401BDF868115898084400B2E3
:10A5A000ADF86801BDF866115798081A00B2ADF809
:10A5B0006601BDF86A115798084400B2ADF86A0107
:10A5C00059A80FF0E7FC834659A80FF05BFC5690A2
:10A5D000D4E90A10A0EB01095698834501DB01205C
:10A5E00000E0002080460020559094F85C0000F0C8
:10A5F000030001280BD1A06A002808DAE06A0028CD
:10A6000005DDA16A206B884201D10120559000210F
:10A6100028461DF0D1FB5490002128461DF075FC02
:10A620005390002128461DF033FD5290002128460A
:10A630001DF0E5FA519059A904F134000FF0AFFB79
:10A64000A18E5498084400B2A086218F5398081A0E
:10A6500001B22187E18E5298084401B2E186618FF0
:10A660005198081A01B26187B8F1000F13D004F1B4
:10A6700034000FF007FC04280DDA569800EBD07177
:10A680004A10E98A1144891E0AB2E286E08E001D52
:10A6900001B2618715E0B8F1000F12D104F1340066
:10A6A0000FF078FC04280CDA58460BEBD071AA8A1C
:10A6B00002EB6101891E09B2A186A08E001D01B2C4
:10A6C000218704F134000FF065FC509004F1340050
:10A6D0000FF0D8FB4F90B8F1000F01D0509800E078
:10A6E0004F988246B8F1000F05D004F13406371DAB
:10A6F000FE484C9004E004F13606371DFC484C90AF
:10A70000A06D401CF8B1A36A216DC91A01FB0AF1C2
:10A7100091FBF9F108B2A36A616DC91A01FB0AF154
:10A7200091FBF9F10AB2131AD4F858C003FB0CF1EB
:10A73000CB1701EB13631B121BB24D934D990144D0
:10A7400009B24D9108E0A16A206B401A00FB0AF0A3
:10A7500090FBF9F000B24D90A06C401CE0B1A36AF0
:10A76000216CC91A01FB0AF191FBF9F108B2A36A45
:10A77000616CC91A01FB0AF191FBF9F10AB2131AD3
:10A78000D4F848C003FB0CF1CB1701EB136300EBCB
:10A7900023231BB24E9308E0D4E90901401A00FBC1
:10A7A0000AF090FBF9F000B24E900020119041F2B7
:10A7B0006A42284611991DF0D3FC10901098C0B23F
:10A7C0004B90B8F1000F0ED04B9801280BD13046BA
:10A7D0003E4607464E99494209B24E914D9949422B
:10A7E00009B24D9100BFB8F1000F0AD031884E98E0
:10A7F000084400B2388031884D98084400B2308057
:10A800000AE039884E98081A401C00B23080398816
:10A810004D98081A00B23880559878B3A26A52420F
:10A8200002FB0AF292FBF9F211B2B8F1000F0CD060
:10A8300032880A4410B2B7F90020824201DD30802C
:10A840001BE03A883280388017E03A88521A521C4E
:10A8500010B2B6F90020824201DD388002E0328871
:10A860003A803080B7F90020B6F900309A4204DA15
:10A87000B6F900003A883280388000BF559800BB96
:10A8800004F134004C99884701281ADC68465B992A
:10A890001BF092FD4FF400300D909648019000207F
:10A8A000029004F1340003906A461A21284615F0FC
:10A8B00093FE6A461B21284615F08EFE5DB0BDE86A
:10A8C000F08F04F1340149A80FF069FA3BA814F0A5
:10A8D000E3F83BAA4FF4003128461EF0B3F829A84C
:10A8E0005B991BF069FD4FF40030369081482A9047
:10A8F00000202B903BA82D9004F134002C9029AA25
:10A900001A21284615F068FE002011906022284682
:10A9100011991DF025FC1090109800B228905698BF
:10A92000834501DA584600E056982790DDE9270173
:10A93000B1EB600F02DD279840102890BDF9EC00C4
:10A9400026904F995098884201DA509800E04F982D
:10A950002790DDE92601B0EB610F02DD279840105A
:10A960002690B8F1000F08D004F134000FF012FB6C
:10A9700001462698B1EB400F0BDCB8F1000F28D14F
:10A9800004F134000FF07EFA01462698B1EB400F37
:10A990001FDD9DF8EF0011909DF8060110909DF8C5
:10A9A0000E010F9000208DF8EF008DF806018DF854
:10A9B0000E0104F134023BA95B9814F051F8119890
:10A9C0008DF8EF0010988DF806010F988DF80E01A4
:10A9D00000BFA98A5498084400B2ADF87800298BCA
:10A9E0005398081A00B2ADF87C00E98A52980844DE
:10A9F00000B2ADF87A00698B5198081A00B2ADF830
:10AA00007E0000231EA920A8289A13F02FFF002102
:10AA100020A813F0ADF81D909DF822011C909DF820
:10AA20000E011B9000208DF80E018DF8220159A90E
:10AA300019A80FF0B4F9BDF864105498084400B296
:10AA4000ADF86400BDF866105298084400B2ADF845
:10AA50006600BDF868105398081A00B2ADF8680097
:10AA6000BDF86A105198081A00B2ADF86A00B8F142
:10AA7000000F15D019A80FF005FA042810DA56981F
:10AA800000EBD0714A10E98A1144891E09B2ADF871
:10AA90006610BDF86600001D00B2ADF86A0017E050
:10AAA000B8F1000F14D119A80FF074FA04280FDAC6
:10AAB00058460BEBD071AA8A02EB6101891E09B2DC
:10AAC000ADF86410BDF86400001D00B2ADF8680078
:10AAD000BDF9EC20002304F1340113A813F0C6FEE5
:10AAE000002113A813F044F8129005E0959F010887
:10AAF000859E010858F1030819AA3BA95B9813F039
:10AB0000AFFF1B988DF80E011C988DF822010020D4
:10AB10008DF8EF008DF806018DF8220104F1340262
:10AB20003BA95B9813F09CFF13A813F003FB20A82C
:10AB300013F000FB129813F081FF1D9813F07EFFB5
:10AB400029AA1B21284615F047FD00BFB6E6F0B53F
:10AB500091B00546284615F039FD0446284615F003
:10AB6000DCFC0746264603A813F096FF03AA4FF421
:10AB7000403120461DF066FF47F6FF70ADF80C002F
:10AB80002C20805D00F0010038B1204611F0D5FE88
:10AB90000090BDF80000ADF81000214601A807F0B4
:10ABA0005FFC01AA03A9384613F05AFF11B0F0BDAB
:10ABB0002DE9F04FB3B08146484615F007FD8046B9
:10ABC0004446484615F0A9FC3290002140461CF04E
:10ABD0004BFE054640461DF0EAFC824640461BF00F
:10ABE0004BFF8346DA4501DB012000E000200646EA
:10ABF0000EB1584600E050463190002794F85C00B2
:10AC000000F00300012806D1A06A002803DAE06AF8
:10AC1000002800DD0127002E3CD097B93EB1012D60
:10AC200002D1B4F9340009E0B4F9380006E0012D8E
:10AC300002D1B4F9360001E0B4F93A00ADF8BC0035
:10AC400037E0606A002812DB3EB1012D02D1B4F971
:10AC5000340009E0B4F9380006E0012D02D1B4F95E
:10AC6000360001E0B4F93A00ADF8BC0021E03EB195
:10AC7000012D02D0B4F9340009E0B4F9380006E03F
:10AC8000012D02D0B4F9360001E0B4F93A00ADF874
:10AC9000BC000EE01FB9E08EADF8BE0009E0606AAE
:10ACA000002803DBE08EADF8BE0002E0608FADF857
:10ACB000BE0021A813F0F0FE21AA4FF44031404617
:10ACC0001DF0C0FE33462FA94046319A24F056FEAF
:10ACD0002FA904F168000FF07DF80FA832991BF03E
:10ACE0006BFB4FF440301C903C48109000201190BA
:10ACF0001D9004F16800129021A81390404620F0A6
:10AD0000C0FF022810D00FAA1A21404615F064FC9B
:10AD100004F1680221A9329813F0A2FE0FAA1B21A8
:10AD2000404615F059FC55E0382221A901A819F038
:10AD3000CAFD0FAA1A21404615F04EFC04F1680224
:10AD400021A9329813F08CFE0FAA1B21404615F062
:10AD500043FC96B13EB1012D02D0B4F9340009E0B4
:10AD6000B4F9380006E0012D02D0B4F9360001E054
:10AD7000B4F93A00ADF8BC0002E0608FADF8BE0057
:10AD800033462FA94046319A24F0F8FD2FA904F14B
:10AD900060000FF01FF8382201A921A819F093FDD7
:10ADA0000120119004F16000129021A8139001205D
:10ADB0001D900FAA1A21404615F00EFC04F1600206
:10ADC00021A9329813F04CFE0FAA1B21404615F022
:10ADD00003FC00BF33B0BDE8F08F00008CF2030825
:10ADE0002DE9F04790B00746384615F0EFFB0546D1
:10ADF00028461BF091FE064608A812F041FE08AA5C
:10AE0000002130461DF043FD384615F086FB044610
:10AE1000D4F8088006F1140206A8A168F8F7A6F98C
:10AE200010B910B0BDE8F08706A8A06004A93046AC
:10AE300007F094FFA88AADF80800E88AADF80A0088
:10AE4000288BADF80C00BDF81200ADF80E0002AA78
:10AE500002A8A168F8F78AF998B1D4F8089002A876
:10AE6000A060284618F0CCFB82460020534605F12E
:10AE7000140208A90090204612F04EFAC4F8089077
:10AE800000BFA88AADF80800BDF81600ADF80A00AA
:10AE9000288BADF80C00688BADF80E0002AA02A852
:10AEA000A168F8F763F998B1D4F8089002A8A060F7
:10AEB000284618F0A5FB82460020534605F11402EF
:10AEC00008A90090204612F027FAC4F8089000BFA5
:10AED000C4F8088000BFA4E72DE9FF4FA1B00646E3
:10AEE00014462498807B00F00F052298807E1F90E6
:10AEF000032D00D10425012D06D0022D0BD0042DE9
:10AF000010D0082D1DD114E0DFF86C834FF0800ABB
:10AF100002201E901AE0DFF864834FF0C00A04207C
:10AF20001E9013E0DFF858834FF0F00A10201E90B7
:10AF30000CE0DFF850834FF0FF0A4FF480701E9052
:10AF400004E000BF00BF25B0BDE8F08F00BF1F9830
:10AF5000FD2823DACC4801781F98814203D1CB48E1
:10AF60000068A84213D000200DE018F80010FF2957
:10AF700001D11F9904E018F800101F9A51430912DB
:10AF8000C34A1154401C1E998842EED300BFDFF81B
:10AF90000083BD491F980870BC4805602498B0F82C
:10AFA00006B0249800891B900BFB05F01A90B4F9A9
:10AFB0000000B168B1F90010884201DB002005E013
:10AFC000B068B0F90000B4F90010401A1990B4F953
:10AFD00000005844B168B1F90410884201DC5846B9
:10AFE00006E0B068B0F90400B4F90010401A401C43
:10AFF0001890B4F90200B168B1F90210884201DB7F
:10B00000002005E0B068B0F90200B4F90210401A5F
:10B010001790B4F902101B980844B168B1F90610F2
:10B02000884201DC1B9806E0B068B0F90600B4F96C
:10B030000210401A401C16901A9917984843199903
:10B0400001FB050015902E99159801EBD0002E906C
:10B05000159800F007071C210DA819F0C2FD2298D1
:10B060008089ADF83C002298807E8DF84C002298B3
:10B07000807FC0F3C2008DF84D00F9F753FE0190B8
:10B0800011F0F4FD0C901B980BFB00F10C98814221
:10B0900001DD0C9802E01B990BFB01F00B900B9863
:10B0A00019F0F6FA8146CDF8409000200A902188E8
:10B0B0001998084400B2ADF8200021881898084477
:10B0C000401E00B2ADF8240061881798084400B211
:10B0D000ADF82200BDF82200ADF8260000BFBDF893
:10B0E0002400BDF82010401A401C00B2079000BF99
:10B0F000BDF82000ADF81400BDF82200ADF8160030
:10B10000BDF82400ADF81800BDF82600ADF81A000F
:10B1100000BFBDF816101698084400B2ADF81A002A
:10B1200005A813F02BF8049008A80D901290C5F113
:10B130000800039019980BEB00011898081A68434F
:10B14000029017981C9078E00A9801902AFA07F06C
:10B15000209019981D9028E02E980078209908409A
:10B160000399C91BC8401490149830B1149818F86A
:10B1700000100A9809F8001003E000210A9809F865
:10B1800000100398874204D22F442098E840209072
:10B1900005E00027CDF880A02E98401C2E900A983C
:10B1A000401C0A901D98401C1D9018991D988842BB
:10B1B000D2DB0498A0B1BDF92620BDF92010019B77
:10B1C00009EB0300079B12F089FF8DF844009DF8FE
:10B1D000440028B9019909EB0100079919F001FD14
:10B1E000DDE91801411A0A9801440B98814206D200
:10B1F000BDF82600401C00B2ADF8260012E0022087
:10B200008DF844000DA9304613F068FEBDF8260005
:10B21000401C00B2ADF82200BDF82200ADF82600B7
:10B2200000200A90029807442E9800EBD7002E9039
:10B2300007F007071C98401C1C9016991C98884220
:10B2400082DBBDF92200BDF9261088420ED0BDF880
:10B250002600401E00B2ADF8260002208DF8440002
:10B260000DA9304613F03AFE00200A90484619F026
:10B270008BFA00BF67E60000C0B10308C2B1030843
:10B28000CEB10308DEB103085C010020600100209C
:10B29000D4C100202DE9FF4F8FB00C4615461E4645
:10B2A000B4F90200401E0E900E9840100D900E98BA
:10B2B00000F001010D9808440C90B5F90000B6F9B2
:10B2C0000010884202DAB5F9000001E0B6F900008A
:10B2D000ADF82800B5F90000B6F90010884202DD8B
:10B2E000B5F9000001E0B6F90000401E00B2ADF86B
:10B2F0002C0069880C98081A00B2ADF82A006988F9
:10B300000D98084400B2ADF82E000F980AA9826883
:10B310000AA8F7F72BFF8246BAF1000F02D113B04B
:10B32000BDE8F08FE08818B1A08808B1012000E0E6
:10B3300000208346012009900AA812F01FFF10B1D7
:10B340000020099004E0BBF1000F01D0002009901B
:10B350001C2102A819F045FC0AA802902088ADF82B
:10B360001000207A8DF82000099820B102A90F98CA
:10B3700013F0B4FD78E00AA80EF0E9FD0746BDF928
:10B380002E000190BDF82A00ADF82E00002000909C
:10B39000BBF1000F0BD0B4F90600B4F90410084457
:10B3A000BDF9281091FBF0F200FB12100090384616
:10B3B00019F06EF98046CDF814800AA80790BDF9FF
:10B3C0002A904AE03946404619F042FCBDF928105F
:10B3D0003BB20FFA89F2404612F080FE8DF8180059
:10B3E000BBF1000F27D09DF8180020B30098002172
:10B3F0001BE0B4F90420824207DBA3881B1A1AB2AF
:10B400008B1819B2831818B20BE0B4F90620B4F9FE
:10B4100004301A44824201DC002002E0002208F8D5
:10B4200001204A1C11B2421C10B2B942E1DB0222D7
:10B430008DF8182000BF02A90F9813F04FFDBDF83A
:10B440002A00401C00B2ADF82A00BDF82E00401CB6
:10B4500000B2ADF82E0009F1010901988145B1DD76
:10B46000404619F091F900BF00BF58E72DE9FF4FA2
:10B47000C7B08B4691469A46B9F90200BAF9021054
:10B48000884210DAB9F80200ADF81A01BAF80200E1
:10B49000ADF81601B9F80000ADF81801BAF80000CF
:10B4A000ADF814010FE0BAF80200ADF81A01B9F8CE
:10B4B0000200ADF81601BAF80000ADF81801B9F8AD
:10B4C0000000ADF81401BDF91401BDF91811441ABA
:10B4D000BDF91601BDF91A11451A002C01DD2046EF
:10B4E00000E06042002D01DD294600E0694288420B
:10B4F00001DD012000E000204490BBF90260002043
:10B500004390449870B1002D01DD284600E0684268
:10B510004101002C01DD204600E0604291FBF0F08B
:10B5200043900DE0002C01DD204600E06042410127
:10B53000002D01DD284600E0684291FBF0F04390C9
:10B54000E0494398085C70433F30C611771006F01D
:10B55000010000EB0708BDF91801BDF9141188427C
:10B5600002DABDF9180101E0BDF91401801B00B237
:10B57000ADF80401BDF91801BDF91411884202DDCE
:10B58000BDF9180101E0BDF91401304400B2ADF875
:10B590000801BDF91A01BDF91611884202DABDF998
:10B5A0001A0101E0BDF91601801B00B2ADF80601D9
:10B5B000BDF91A01BDF91611884202DDBDF91A0163
:10B5C00001E0BDF91601304400B2ADF80A01479818
:10B5D00041A9826841A8F7F7C9FD4090409810B989
:10B5E0004BB0BDE8F08F4498F0B3002C24DD00216F
:10B5F000BDF81601C01B00B2CDE90001BDF9143140
:10B60000BDF81A01C01B02B2BDF9181135A812F01D
:10B61000AFFE0121BDF81601404400B2CDE90001A2
:10B62000BDF91431BDF81A01404402B2BDF9181138
:10B630002AA812F09DFE4AE00021BDF81601404400
:10B6400000B2CDE90001BDF91431BDF81A01404442
:10B6500002B2BDF9181135A812F08AFE0121BDF819
:10B660001601C01B00B200E00DE0CDE90001BDF9FC
:10B670001431BDF81A01C01B02B2BDF918112AA875
:10B6800012F076FE23E00021BDF91601CDE900019C
:10B69000BDF81401404403B2BDF91A21BDF81801E8
:10B6A000404401B235A812F063FE0121BDF9160134
:10B6B000CDE90001BDF81401C01B03B2BDF91A2188
:10B6C000BDF81801C01B01B22AA812F051FE0021DA
:10B6D00035A812F04DFA139000212AA812F048FA6A
:10B6E00012904FF0FF30119010909BF80900C0F3BA
:10B6F000001068BB0321BDF81A01204400B2CDE957
:10B700000001BDF81801401B03B2BDF91A21BDF9B3
:10B7100018111FA812F02CFE0221BDF816012044BA
:10B7200000B2CDE90001BDF81401401B03B2BDF920
:10B730001621BDF9141114A812F01AFE00211FA839
:10B7400012F016FA1190002114A812F011FA1090BC
:10B7500041A80EF0FCFB0F90F9F7E4FA019011F00C
:10B7600085FA0D9041A80EF0A9FB01460D98814283
:10B7700003D241A80EF0A2FB00E00D980C900C98AB
:10B7800018F086FF0B90BDF90A010A90BDF806017A
:10B79000ADF80A0100200990DDE90B0119F058FA13
:10B7A0001C2102A819F01DFA41A80290BBF8000064
:10B7B000ADF810009BF808008DF820000B9805905C
:10B7C00041A80790BDF906010E9040E0BDF90411B3
:10B7D000099B0B9AD0180F9A13B20E9A12B212F05C
:10B7E0007DFC8DF818009DF8180028B9099A0B996E
:10B7F00088180F9919F0F5F90F99099808440990DC
:10B800000F99099801440C98814206D2BDF80A01AB
:10B81000401C00B2ADF80A0116E002208DF81800B5
:10B8200002A9479813F05AFBBDF80A01401C00B268
:10B83000ADF80601BDF80601ADF80A010020099037
:10B84000DDE90B0119F004FA0E98401C0E900A99DC
:10B850000E988842BADDBDF90601BDF90A11884289
:10B860000CD0BDF80A01401E00B2ADF80A0102205A
:10B870008DF8180002A9479813F030FB0B9818F0C8
:10B8800083FF35A812F056FC2AA812F053FC119839
:10B89000401C10B11FA812F04DFC1098401C10B1B4
:10B8A00014A812F047FC139813F0C8F8129813F07C
:10B8B000C5F8119813F0C2F8109813F0BFF800BF44
:10B8C0008EE60000DEB203082DE9FF4F91B00C4672
:10B8D00015461E46B4F90200401E10901098401004
:10B8E0000F90109800F001010F9808440E902988DD
:10B8F0000E98081A00B2ADF8300029880F98084455
:10B9000000B2ADF83400B5F90200B6F90210884271
:10B9100002DAB5F9020001E0B6F90200ADF8320032
:10B92000B5F90200B6F90210884202DDB5F902004D
:10B9300001E0B6F90200401E00B2ADF836001198E1
:10B940000CA982680CA8F7F711FC8146B9F1000F29
:10B9500002D115B0BDE8F08FE08818B1A08808B119
:10B96000012000E00020824601200B900CA812F07C
:10B9700005FC10B100200B9004E0BAF1000F01D0DB
:10B9800000200B901C2104A819F02BF90CA804909E
:10B990002088ADF81800207A8DF828000B9820B187
:10B9A00004A9119813F09AFA66E00CA80EF0CFFAE9
:10B9B0008346BDF936000390BDF83200ADF836007D
:10B9C000584618F065FE0290029807900CA809905E
:10B9D00000200190BAF1000F0BD0B4F90600B4F9C1
:10B9E00004100844BDF9321091FBF0F200FB121074
:10B9F0000190019FBDF9328037E05946029819F055
:10BA000027F9BDF930100FFA8BF30FFA88F202987C
:10BA100012F064FB8DF82000BAF1000F13D09DF8EE
:10BA2000200070B1B4F90400B84202DA00208DF8A9
:10BA30002000B4F90600B4F904100844B84200DC50
:10BA40000027781C07B204A9119813F047FABDF833
:10BA50003200401C00B2ADF83200BDF83600401C88
:10BA600000B2ADF8360008F1010803988045C4DD46
:10BA7000029818F089FE00BF00BF6AE72DE9FC5F5D
:10BA80008046404614F0A2FD0746B946D9F8246026
:10BA90003446404614F041FD0546606A00F1140248
:10BAA0006846A968F7F762FB8246BAF1000F41D0F9
:10BAB000D5F808B0C5F808D094F83C00C0F34010A1
:10BAC00048B3608FE18E88420CD1628F21232946D2
:10BAD0003046FDF7FBFA628F212329463046FDF7F9
:10BAE00061FB24E0628F202329463046FDF7EEFA01
:10BAF000628F202329463046FDF754FBE28E012356
:10BB000029463046FDF7E2FAE28E01232946304607
:10BB1000FDF748FB0BE0628F202329463046FDF7F6
:10BB2000D5FA628F202329463046FDF73BFBC5F846
:10BB300008B000BFBDE8FC9F2DE9F14FD0B0509890
:10BB400014F044FD04462546288E10B951B0BDE8D6
:10BB5000F08F509814F0E1FC4F90608C20F00400BE
:10BB6000001D60844DA920461AF030FF0026B24621
:10BB7000B4F8208000202084608C20F00400001D98
:10BB8000608427A812F088FF1FA811F079FF27AA68
:10BB90004FF4A02120461CF055FF1FAA4FF4A0210E
:10BBA00020461CF074FE608C20F004006084A4F831
:10BBB0002080002120461CF078FA1E9000212046AB
:10BBC0001CF02AF81D90002120461CF002F91C9060
:10BBD000002120461CF0A6F91B9009A84F991AF0E5
:10BBE000EBFB4FF4A0201690D7480A9000200B9052
:10BBF0003DA80D9035A80E9000BF9BE103E00AF12F
:10BC000001001FFA80FA696A51F82A00CFA1F4F7FF
:10BC100057FE0028F3D0E96A31F81600FAF7BEFCA7
:10BC200000B181E10027E96A31F81600FAF7A6FCB5
:10BC300008B147F00107E96A31F81600FAF7B2FCDB
:10BC400010B147F0800716E0A88EB04213D108F07B
:10BC5000200008B147F0200708F0020008B147F0C3
:10BC6000020708F0040008B147F0040708F00800D4
:10BC700008B147F00807A86A00EBC6014BA80EF010
:10BC800097F8BDF82C01BDF83411084400B2ADF8A6
:10BC90002C01BDF82E01BDF83611084400B2ADF8F4
:10BCA0002E01BDF83001BDF83411084400B2ADF8E2
:10BCB0003001BDF83201BDF83611084400B2ADF8CC
:10BCC000320157B9382227A93DA818F0FCFD2022DF
:10BCD0001FA935A818F0F7FD1DE02784608C20F01F
:10BCE0000400001D60843DA812F0D6FE35A811F0B6
:10BCF000C7FE3DAA4FF4A02120461CF0A3FE35AAA2
:10BD00004FF4A02120461CF0C2FDA4F82080608CD6
:10BD100020F004006084E96A31F81600FAF74AFC62
:10BD20008346BBF1000F06D09DF8F10040F0010002
:10BD30008DF8F10005E09DF8F10020F001008DF88C
:10BD4000F1004BA80C90179609AA1A21204614F06E
:10BD500043FC9DF81701400800F01000F0B39DF877
:10BD6000170120F03E001E308DF81701BDF92C118F
:10BD7000B4F914201C98104481420AD19DF817018F
:10BD8000400820F004009DF8171160F345018DF87C
:10BD90001711BDF93011B4F918201B98101A8142FF
:10BDA0000AD19DF81701400820F008009DF81711EE
:10BDB00060F345018DF81711BDF92E11B4F9162065
:10BDC0001E98104481420CD19DF81701400820F0C4
:10BDD00002009DF8171160F3450100E014E08DF8B2
:10BDE0001711BDF93211B4F91A201D98101A8142A9
:10BDF0000AD19DF81701400820F001009DF81711A5
:10BE000060F345018DF817114BA80EF042F88146FA
:10BE100007F0200060B1E86A30F8160000F4007006
:10BE200030B1BDF82E01A0EB090000B2ADF82E0133
:10BE30004BAA3DA94F9812F013FE35980890BDF912
:10BE4000E8000790BDF9E6000690686A50F82A00FD
:10BE500005904DA80EF0A5F803909DF8F11002464C
:10BE60000698CDE90121009004A8DDE90732059983
:10BE700022F0A0FC4BA80EF094F8BDF91010401A67
:10BE8000039000EBD070BDF82C1101EB600000B204
:10BE9000ADF82C014BA80DF0FCFFBDF91210401AB3
:10BEA000039000EBD070BDF82E1101EB600000B2E2
:10BEB000ADF82E01BDF82C01BDF81010084400B2F9
:10BEC000ADF83001BDF82E01BDF81210084400B2E3
:10BED000ADF8320107F02000C0B1E86A30F8160072
:10BEE00000F4007090B1484609EBD071BDF82E21E6
:10BEF000A2EB610109B2ADF82E1109EBD071BDF8CA
:10BF00003221A2EB610109B2ADF83211002000909C
:10BF10004BAA35A9059B4F9811F0FEF909AA1B21E0
:10BF2000204614F059FB00BF701C86B20AF10100D4
:10BF30001FFA80FA288EB0423FF760AE608C20F086
:10BF40000400608400BF01E690F103080A000000CD
:10BF50002DE9F14FA2B0229814F038FB0446254693
:10BF6000229814F0DAFA2190002120461BF0F0FC10
:10BF700081462646002741F61202394630461CF01B
:10BF8000EFF80A900A98484400B2209000BF41F6AA
:10BF90001302394630461CF0E3F80A900A984844E8
:10BFA00000B21F90002120461CF099F8484400B2CE
:10BFB0001E9016A811F064FD16AA4FF40031204619
:10BFC0001CF065FCA86A10B1D5F828800AE0802032
:10BFD00018F05EFB064680223146204613F0D0FF63
:10BFE000B04600BF4FF0000A95F83C0000F00F008B
:10BFF000012800D18246002641F26A42314620469D
:10C000001CF0AEF80A900A98C0B2012800D182460E
:10C01000E86A00287ED0E86A16F01EFB0A900A98AB
:10C02000022814D19DF8750041F6FF72BDF96A101F
:10C03000CDE900120290BDF96C30169A07A8E96AA2
:10C0400022F0B8FBBDF91C60BDF91E7011E007A914
:10C05000E86A15F0A9FF8346BBF1010F05D10798E7
:10C06000C0F38A260798470D02E04FF0FF363746A7
:10C0700000BFBAF1000F0DD0A18A2098084400B289
:10C08000ADF82000BDF820003044401E00B2ADF8ED
:10C0900024000DE0218B1F98081A801B00B2ADF818
:10C0A0002000BDF820003044401E00B2ADF824004E
:10C0B0000A98022815D1E18A1E98084400B2ADF80A
:10C0C0002200BDF822003844401E00B2ADF8260020
:10C0D0000020009008AA16A9EB6A219811F01CF91B
:10C0E00040E020461AF0C8FCA0EB070B0BEBDB701E
:10C0F0004110E08A084400B2ADF82200BDF82200E9
:10C100003844401E00B2ADF8260002A811F0E7F84E
:10C1100002AA00E027E04FF4003120461CF058FB53
:10C12000304606EBD071491009B2ADF80C10384614
:10C1300007EBD07149100AB2ADF80E204FF4003B66
:10C1400043F60F02594620461CF00AF80190019868
:10C1500080B2ADF8080008AA02A9EB6A219811F094
:10C160006FF800BF00BF0EA811F08AFC0EAA0021D4
:10C1700020461CF08CFB9DF8550041F6FF72BDF97E
:10C180004A10CDE900120290BDF94C3041460DA88D
:10C190000E9A22F00FFBE18A1E98084400B2ADF817
:10C1A0002E00BDF82E00BDF83610084400B2ADF8E0
:10C1B0003200E86AB0B920461CF0F9F9BDF9341034
:10C1C000461A06EBD670A18A01EB600000B2ADF80A
:10C1D0002C00BDF82C00BDF83410084400B2ADF8B6
:10C1E000300022E0BAF1000F11D0218B1F98081AFD
:10C1F000BDF83410401A00B2ADF82C00BDF82C0088
:10C20000BDF83410084400B2ADF830000DE0A18A4A
:10C210002098084400B2ADF82C00BDF82C00BDF801
:10C220003410084400B2ADF83000002043460BAA99
:10C230000EA90090219811F06FF8A86A10B9404635
:10C2400018F0A2FA23B0BDE8F08F2DE9F14F90B0BD
:10C25000109814F0BBF905462C46109814F05DF9BF
:10C2600006460EA928461AF03DFB002794F8480020
:10C27000C0F3001008B147F0010794F84800C0F37C
:10C28000401008B147F00207002128461CF068F969
:10C2900042F2D171884205D1688CC0F3802008B980
:10C2A00047F0040706A811F0EBFBB4F84400ADF822
:10C2B0002E004620005BADF830008DF8357006AAE0
:10C2C000002128461CF0E3FA0DA8411E626A03789B
:10C2D0000BB90123037000BF284617F09DF90790A2
:10C2E000284617F093F908904FF6FF710798884297
:10C2F0001ED0089888421BD04FF4802B44F257423E
:10C30000594628461BF02CFF029002980390BDF876
:10C310000C00ADF8260000BF2022594628461BF02D
:10C320001FFF029002980390BDF80C00ADF82800A2
:10C3300094F8480000F00700022805D094F848005F
:10C3400000F0070003281FD19DF83400022803D015
:10C350009DF83400032817D141F6FF71BDF92A007A
:10C360008DE88300BDF92C30069A03A8616A22F09B
:10C3700021FA0EA80DF023FEBDF90C10884202DA56
:10C3800001208DF8340000BF04F1300894F8480013
:10C3900000F00700032805D00EA80DF088FDB0F5C9
:10C3A000806F01DA4FF000080EA904A8B268F6F712
:10C3B000DDFE8146B9F1000F02D111B0BDE8F08F6A
:10C3C00094F8480000F0070070B928461AF044FDC0
:10C3D0008346CBF1000002B200210EA80DF007FE4B
:10C3E000688BADF83E0000BF94F8480000F00700ED
:10C3F000022805D094F8480000F0070003280ED169
:10C40000D6F808B004A8B060CDF800800EAA06A93E
:10C410003046636A10F080FFC6F808B007E0CDF838
:10C4200000800EAA06A93046636A10F075FFD6F8A0
:10C4300008A004A8B06094F8480000F007000328A2
:10C440004FD141F6FF71BDF92A008DE88300BDF997
:10C450002C30069A03A8616A22F0ACF90EA80DF000
:10C46000AEFDBDF90C1088421BDA20221146069859
:10C4700014F02DFA00EB4000B4F84410BDF80C2085
:10C480001144084400B2ADF82E004620005BADF820
:10C490003000CDF800800EAA06A93046636A10F07D
:10C4A0003BFF0EA80DF003FDBDF90E10884217DA10
:10C4B000B4F84400ADF82E00069814F027FA46218F
:10C4C000095BBDF80E201144084400B2ADF83000FD
:10C4D000CDF800800EAA06A93046636A10F01CFF52
:10C4E00000BFC6F808A000BF67E72DE9F14F9AB07A
:10C4F0001A9814F00AF880461A9814F067F804465F
:10C50000B8F1150F16D11A9814F007F8054618A9B6
:10C51000204606F023FC0AA812F0BEFA0AAA4FF43D
:10C52000802120461CF08EFA18AA0AA9284612F08B
:10C5300097FAC5E0B8F1180FFBD11A9813F0EDFF88
:10C54000054612A811F09CFA12AA4FF48021204649
:10C550001CF09DF910A9204606F000FC10AA0EA8B8
:10C56000A968F6F703FE0D900D9800287DD02046AF
:10C5700006F069F8814620461CF019F883464846C3
:10C5800017F03EF802210390BDF95A00CDE901B140
:10C590000090BDF95C300CA8129A039922F00AF9B8
:10C5A00020461AF069FA0646304606EBD0714A106A
:10C5B000B4F916100A44B9F91610891A0B914846B5
:10C5C0001AF05AFA0B99890391FBF0F00B900021B5
:10C5D00020461BF0AAFE0A901299B1F908200A9988
:10C5E000B1F90810501A00EBD071491009B2099145
:10C5F000BDF832100998081A00B2ADF83200304682
:10C6000006EBD0714A10B4F916105718BDF9320074
:10C610000B99484307EBA03709983F1A00212046A1
:10C620001BF0A3F982464FF0000B41F61202594667
:10C6300020461BF095FD0390039800B2089000BFC0
:10C6400041F61302594620461BF08AFD03900398D9
:10C6500000B20790A18A08980844504400B2ADF88F
:10C66000140038B2ADF8160000E028E0218B0798DE
:10C67000081AA0EB0A0000B2ADF81800BDF81600C9
:10C68000BDF83210084400B2ADF81A009DF86500FC
:10C6900040F002008DF86500A86804900EA8A8601C
:10C6A000484616F0ADFF834600205B4605AA12A956
:10C6B0000090284610F030FE0498A86000BF00BF2C
:10C6C0001BB0BDE8F08F2DE9F14FA8B0289813F00A
:10C6D0007DFF04462546289813F01FFF2790002170
:10C6E00020461BF09DFB2690002120461BF041FCBC
:10C6F0002590002120461BF00CFD249000212046AF
:10C700001BF0B1FA239000BFA08AADF88400E08A44
:10C71000ADF88600208BADF88800608BADF88A00FC
:10C7200000BFBDF884102698084400B2ADF884001C
:10C73000BDF888102598081A00B2ADF88800BDF839
:10C7400086102498084400B2ADF88600BDF88A101F
:10C750002398081A00B2ADF88A0013A812F09CF9C9
:10C7600013AA4FF4003120461CF06CF921AA13A93A
:10C77000279812F075F9002620461AF07DF9074631
:10C7800000BF208BA18A401A401CC01B0FFA80F802
:10C79000686A401C40B1696A01FB08F0C11700EBF0
:10C7A000116109120EB20CE020461AF0C9FF00F028
:10C7B000010BBBF1000F01D0404600E0002006460F
:10C7C00000BF4FF0000B41F26A42594620461BF071
:10C7D000C7FC00900098C0B2012802D1A8EB060067
:10C7E00006B2A08A304400B2ADF84400BDF844005F
:10C7F000384400B2ADF84800E08AADF84600608BDE
:10C80000ADF84A004FF4403120461BF009FB814649
:10C810004FF4403120461BF0ACFB82464FF44031D0
:10C8200020461BF076FC10904FF4403120461BF060
:10C830001AFA0F90BDF84400A0EB090000B2ADF861
:10C840004400BDF84800504400B2ADF84800BDF8BF
:10C8500046101098081A00B2ADF84600BDF84A100C
:10C860000F98084400B2ADF84A0001A812F014F97C
:10C8700001AA4FF4403120461CF0E4F811AA01A9A6
:10C88000279812F0EDF829B0BDE8F08F2DE9F14FAF
:10C89000E0B0609813F09AFE04462546609813F0C5
:10C8A0003CFE814604F114015EA8D9F80820F6F791
:10C8B0005DFC10B961B0BDE8F08FD9F808005D905B
:10C8C0005EA8C9F808004FF0000841F23202414664
:10C8D00020461BF045FC0C900C9800B256900021AD
:10C8E00020461BF023FC5590002120461BF0C8F980
:10C8F0005490002120461BF0A0FA539000212046BE
:10C900001BF044FB52904FF4A02120461BF095FAF7
:10C9100051904FF4A02120461BF038FB50904FF46B
:10C92000A02120461BF002FC4F904FF4A02120468E
:10C930001BF0A6F94E90208C4D9000202084608C36
:10C9400020F00400001D60843FA812F0A5F83FAA63
:10C950004FF4A02120461CF075F829A811F090F89A
:10C9600029AA4FF4A02120461BF091FF4D98208466
:10C97000608C20F004006084002720461AF080FAC2
:10C980000146E28A55981044401E411A56980844C0
:10C9900000B2ADF86E0120461AF068FA209000212E
:10C9A00020461AF06EFF012800D100E000201F9001
:10C9B00049460DA819F000FD4FF4A0201A90FE483A
:10C9C0000E9000200F9031A8119021A812904FF0E6
:10C9D000000B33E2E86A30F91B000C90BDF86E01E1
:10C9E000401C00B2ADF86A01BDF86A110C98084409
:10C9F000401E00B2ADF86E01BDF96A01BDF97E11AD
:10CA0000884200DD1EE21F9858B1218B5298081A07
:10CA1000401E2099411A5698081A00B2ADF86801D4
:10CA20000AE0A18A53980844401E2099411A56985A
:10CA3000084400B2ADF86C010026F7E100200B902D
:10CA4000A86A50F8270020B1A86A50F8270000789B
:10CA50000B901F9880B1BDF86801401E00B2ADF880
:10CA60006C01286B30F81600BDF86C11081A401CD8
:10CA700000B2ADF868010FE0BDF86C01401C00B2D7
:10CA8000ADF86801286B30F81600BDF8681108444D
:10CA9000401E00B2ADF86C014FF0000800BF34E05A
:10CAA00007EB0801A86A50F8210048B307EB080219
:10CAB000A96A51F8220008B101780B910B9901F095
:10CAC0000101D9B11F9961B106EB0801491C2A6B1C
:10CAD00032F81110BDF86821511A09B2ADF8681189
:10CAE0000DE006EB0801491C2A6B32F81110BDF865
:10CAF0006C21114409B2ADF86C1100E00BE000E0CC
:10CB000009E008F101001FFA80F808EB0601A88C83
:10CB1000401E8142C4DB00BFBDF96E01BDF97A1130
:10CB2000884207DA08F10100384487B206EB0800B2
:10CB300086B279E100BFBDF86801ADF82400BDF808
:10CB40006A01ADF82600BDF86C01ADF82800BDF80B
:10CB50006E01ADF82A0000BF9DF81F01400800F0EB
:10CB6000040090B1BDF92410B4F914205398104476
:10CB700081420ADDBDF91C0100EBD071BDF8242013
:10CB8000A2EB610109B2ADF824109DF81F01400825
:10CB900000F0020090B1BDF92610B4F916205598A6
:10CBA000104481420ADDBDF91C0100EBD071BDF8D3
:10CBB0002620A2EB610109B2ADF826109DF81F01F5
:10CBC000400800F00800B8B1BDF92810B4F91820E9
:10CBD0005298101A401E81420EDABDF91C0100EB7A
:10CBE000D07182B202F0010202EB6101BDF828208F
:10CBF000114409B2ADF828109DF81F01C0F34000A0
:10CC0000B8B1BDF92A10B4F91A205498101A401E70
:10CC100081420EDABDF91C0100EBD07182B202F044
:10CC2000010202EB6101BDF82A20114409B2ADF8FE
:10CC30002A104FF0000AE88E584523D1A88EB04242
:10CC400020D194F8200000F0400030B994F8200082
:10CC500000F0200008B14AF0200A94F8200000F00B
:10CC6000020008B14AF0020A94F8200000F0040023
:10CC700008B14AF0040A94F8200000F0080008B156
:10CC80004AF0080ABAF1000F0AD138223FA931A8A8
:10CC900017F019FE202229A921A817F014FE1EE082
:10CCA000A4F820A0608C20F00400001D608431A84E
:10CCB00011F0F2FE21A810F0E3FE31AA4FF4A021FA
:10CCC00020461BF0BFFE21AA4FF4A02120461BF0F6
:10CCD000DEFD4D982084608C20F00400608409A85B
:10CCE0001090A88C0BFB00601B900DAA1A21204607
:10CCF00013F072FC09AA31A9484611F0B1FEA86AE6
:10CD000050F8270000287DD0BDF8681151980844DC
:10CD100000B2ADF86001BDF86C115098081A00B26D
:10CD2000ADF86401BDF86A114F98084400B2ADF83F
:10CD30006201BDF86E114E98081A00B2ADF8660196
:10CD40000B98C0F340000890089810B1022057904B
:10CD500001E00020579000BFBDF86401BDF86011EC
:10CD6000401A401C00B20490BDF9962004995798CF
:10CD7000CDE900210290A86A50F82700411CBDF9B6
:10CD800098305CA8299A21F015FD089818BB0C99D9
:10CD900001EBD172BDF86A3103EB6202BDF9720199
:10CDA00000EBD073A2EB630212B2ADF862210C99D2
:10CDB00001EBD17202E00000C4F20308BDF86A3151
:10CDC00003EB6202BDF9720100EBD07302EB630268
:10CDD00012B2ADF866215AAA5EA906A8F6F7C6F9FE
:10CDE0000590059890B106A8C9F8080000200090A9
:10CDF000A86A50F82700431C58AA21A9484610F0F9
:10CE00008BFA00E003E05EA8C9F8080000BF0DAA95
:10CE10001B21204613F0E0FB08F10100384487B2E3
:10CE200006EB080086B200BF701C86B2A88CB04228
:10CE30003FF704AE0BF101001FFA80FBE88C584568
:10CE40003FF7C8AD00BF5D98C9F8080000BF31E5E5
:10CE50002DE9F04FA3B00746894616462297304683
:10CE60000DF08AF8054600EBD5704FEA600830886F
:10CE7000404400B2ADF884007088404400B2ADF880
:10CE800086001EA810F048FE1EAA4FF4A0213846C6
:10CE90001BF064FD18A810F022FA18AA4FF4A02184
:10CEA00038461BF095FC002138461AF026FE1790F4
:10CEB000494605A819F080FA7048069021A80E90FE
:10CEC00022983030F7F71AFC0446D1E02568169412
:10CED000207901285CD1B5F92000E98B0844009045
:10CEE000B5F92030D5E90512E06817F083FB8246DA
:10CEF000A88B00EB0801608A08440FFA80FB0FFA48
:10CF00008AF021F069FB00FB0BF047F6FF7190FB04
:10CF1000F1F0BDF88610084400B2ADF812000FFA27
:10CF20008AF021F051FB00FB0BF047F6FF7190FBFC
:10CF3000F1F0BDF88410084400B2ADF81000A08AEA
:10CF4000ADF87800208A00B2ADF87A006079FD284B
:10CF500001DD179803E060791799484300128DF8B6
:10CF60008000012013901EA80B9004A80F9005AA22
:10CF70001A21384613F030FB04AB21AA1EA94846FB
:10CF800010F0B3FD05AA1B21384613F025FB68E01D
:10CF90002079002865D1206900B963E0B5F9200047
:10CFA000E98B08440090B5F92030D5E90512E06816
:10CFB00017F020FB824604A9206914F0F5FFBDF8A4
:10CFC0008410A08A081A00B2ADF80800BDF88610D7
:10CFD000E08A081A00B2ADF80A00BDF8080004990A
:10CFE000C1F38A210844401E00B2ADF80C00BDF820
:10CFF0000A00049900EB5150401E00B2ADF80E003B
:10D000006079FD2801DD179803E06079179948439E
:10D0100000128DF86B00A08AADF86400E18A18A8B0
:10D02000C1800AEB8A004FEA400ABAF5616F01DD60
:10D03000AAF5616A1FFA8AF0ADF8600018A80C9092
:10D0400005AA1A21384613F0C7FA02AA18A94846B9
:10D05000236910F0F5F805AA1B21384613F0BCFA35
:10D0600000BF00BF214622983030F7F741FB04464D
:10D07000002C7FF42BAF23B0BDE8F08FACB80308D1
:10D080002DE9F74F8AB00C46904694F82A00022802
:10D0900002DC0DB0BDE8F08FE08C00B9F9E794F840
:10D0A0002A90B9F1FD0F01DD4FF0FF09414608A8B4
:10D0B0000CF06CFE208D401E05B2BDF82000401B18
:10D0C00000B2ADF82000BDF82200401B00B2ADF860
:10D0D0002200BDF82400284400B2ADF82400BDF8B9
:10D0E0002600284400B2ADF8260008A906A80CF0D6
:10D0F0004DFEBDF81800E18C401A00B2ADF81800E2
:10D10000BDF81C00E18C084400B2ADF81C00BDF86D
:10D110001A00E18C401A00B2ADF81A00BDF81E00EA
:10D12000E18C084400B2ADF81E0008A80CF016FF10
:10D13000824608A80CF08AFE0746B4F90060BA459A
:10D1400001DA504600E038468346B6EB6B0F01DD4E
:10D150004FEA6B06E08C304400B20590A07894F85A
:10D160002A10CDE90210A08CADF8040030B2009076
:10D1700008AA06A9059B0A98FBF754FC00BF88E79C
:10D18000F8B50546284613F021FA0646284613F05E
:10D190001AFA0446606BB0F5A02F54D1A06B072893
:10D1A00006D200202169C870216981F8220014E0AC
:10D1B000208F81B2202230460DF0AEFD68B10020F4
:10D1C0002169C870216981F8220012201DF0FCFA43
:10D1D0000090BDF8001060698181208F81B24FF40A
:10D1E000004230460DF098FD98B166202169C87064
:10D1F000304620F0C7FE0090BDF800102069818005
:10D2000030460DF083FDA16B884202D1B220216926
:10D21000C870208F81B24FF4804230460DF07CFD03
:10D2200088B1FF20216981F82200304620F0AAFE53
:10D230000090BDF800102069C1832069008C401C5B
:10D2400000B221690884F8BD2DE9F04F8BB081460A
:10D25000484613F0BBF905462C46484613F05DF9E5
:10D260008346606A16F0CCF982469AF800000028DE
:10D270003ED1A06A00283BD0A06A0078C0B303A8C2
:10D2800010F0FEFB03AA4FF4002128461BF0FFFA22
:10D2900094F85C00C0F3C00028B19DF8290040F06C
:10D2A00002008DF82900002128461AF0D3FD074618
:10D2B000002128461AF047FF8046002128461AF030
:10D2C00061FB064605F1140101A80CF08CFD08EB8A
:10D2D000060002B2B81901B201A80CF088FE0020C5
:10D2E000009001AA03A95846A36A10F015F800BFE0
:10D2F0000BB0BDE8F08F7CB50446A06985686089F5
:10D30000002856D1A089002853D1E088218988427D
:10D310004FDAE18808B221F05FF9B4F90410B4F9EA
:10D320000E20891A48432168498801EBE03000B299
:10D33000ADF80200E1885A3108B221F04DF9B4F994
:10D34000041048432168098801EBE03000B2ADF8D1
:10D350000400218908B221F03FF9B4F904104843D0
:10D360002168498801EBE03000B2ADF80600218960
:10D370005A3108B221F030F9B4F90410B4F90E2092
:10D38000891A48432168098801EBE03000B2ADF802
:10D3900000002A4669466846F5F7E8FE06463EB1B3
:10D3A000A169C1F808D06A462169A06911F058FB4B
:10D3B000C2E0608910B1A08900287BD16089D0BB10
:10D3C00020680088ADF8000020684088A1880844E3
:10D3D00000B2ADF80600E18808B221F0FDF8B4F91A
:10D3E0000410B4F90E20891A48432168498801EBDA
:10D3F000E03000B2ADF80200E1885A3108B221F005
:10D40000EBF8B4F9041048432168098801EBE030D7
:10D4100000B2ADF804002A4669466846F5F7A6FE54
:10D4200006463EB1A169C1F808D06A462169A069E3
:10D4300011F016FB00BFA08900287DD1206800886C
:10D44000A188084400B2ADF8040020684088ADF817
:10D450000200218908B221F0BFF8B4F90410484352
:10D460002168498801EBE03000B2ADF8060021895F
:10D470005A3108B221F0B0F8B4F90410B4F90E2012
:10D48000891A48432168098801EBE03000B2ADF801
:10D4900000002A4669466846F5F768FE06463EB132
:10D4A000A169C1F808D06A462169A06911F0D8FACB
:10D4B00042E0FFE76089A189884205D1608918B1FF
:10D4C0002089E188884211DB6089022802D1A08985
:10D4D00001280BD06089032802D1A089022805D039
:10D4E0006089032828D1A089012825D120680088D7
:10D4F000ADF8000020684088ADF802002068008880
:10D50000A188084400B2ADF8040020684088A188D2
:10D51000084400B2ADF806002A4669466846F5F7A9
:10D5200025FE06463EB1A169C1F808D06A462169C8
:10D53000A06911F095FA00BFA06985607CBD7CB53B
:10D540000446A06985686089012856D1A089012810
:10D5500053D1E088218988424FDAE18808B221F06E
:10D560003BF8B4F9041048432168498801EBE030E6
:10D5700000B2ADF80600E1885A3108B221F02CF86B
:10D58000B4F90410B4F90E20891A484321680988B7
:10D5900001EBE03000B2ADF80400218908B221F0BF
:10D5A0001BF8B4F90410B4F90E20891A4843216815
:10D5B000498801EBE03000B2ADF8020021895A3110
:10D5C00008B221F009F8B4F9041048432168098829
:10D5D00001EBE03000B2ADF800002A46694668462B
:10D5E000F5F7C4FD06463EB1A169C1F808D06A4608
:10D5F0002169A06911F034FAC7E06089012802D0DE
:10D60000A08901287ED1608901283AD1206800884C
:10D61000A188401A00B2ADF8000020684088ADF83B
:10D620000200E18808B220F0D7FFB4F904104843A3
:10D630002168498801EBE03000B2ADF80600E188CE
:10D640005A3108B220F0C8FFB4F90410B4F90E2022
:10D65000891A48432168098801EBE03000B2ADF82F
:10D6600004002A4669466846F5F780FD06463EB145
:10D67000A169C1F808D06A462169A06911F0F0F9E2
:10D6800000BFA0890128B7D120680088401E00B2E1
:10D69000ADF8040020684088A188084400B2ADF8C5
:10D6A0000600218908B220F097FFB4F90410B4F9FC
:10D6B0000E20891A48432168498801EBE03000B206
:10D6C000ADF8020021895A3108B220F085FFB4F983
:10D6D000041048432168098801EBE03000B2ADF83E
:10D6E00000002A4669466846F5F740FD06463EB109
:10D6F000A169C1F808D06A462169A06911F0B0F9A2
:10D7000043E0FFE76089A189884206D1608901284A
:10D7100003D02089E18888420FDB608910B9A08995
:10D7200002280AD0608910B9A089032805D0608931
:10D7300003282AD1A089022827D120680088A1883F
:10D74000401A00B2ADF8000020684088ADF8020031
:10D7500020680088401E00B2ADF8040020684088B0
:10D76000A188084400B2ADF806002A46694668461A
:10D77000F5F7FCFC06463EB1A169C1F808D06A463F
:10D780002169A06911F06CF900BFA06985607CBDBA
:10D790007CB50446A06985686089022856D1A089B5
:10D7A000022853D1E088218988424FDAE1885A3132
:10D7B00008B220F011FFB4F9041048432168098829
:10D7C00001EBE03000B2ADF80000E18808B220F0D3
:10D7D00003FFB4F90410B4F90E20891A48432168F4
:10D7E000498801EBE03000B2ADF80600218908B2AB
:10D7F00020F0F2FEB4F9041048432168498801EB97
:10D80000E03000B2ADF8020021895A3108B220F0B0
:10D81000E3FEB4F90410B4F90E20891A48432168D4
:10D82000098801EBE03000B2ADF804002A466946F1
:10D830006846F5F79BFC06463EB1A169C1F808D0E1
:10D840006A462169A06911F00BF9CCE060890228D1
:10D8500002D0A08902287DD1608902283CD12068AD
:10D860000088401E00B2ADF8040020684088A188FE
:10D87000401A00B2ADF80200E1885A3108B220F037
:10D88000ABFEB4F9041048432168098801EBE0308D
:10D8900000B2ADF80000E18808B220F09DFEB4F9B6
:10D8A0000410B4F90E20891A48432168498801EB15
:10D8B000E03000B2ADF806002A4669466846F5F742
:10D8C00055FC06463EB1A169C1F808D06A462169F7
:10D8D000A06911F0C5F800BFA0890228B5D1206861
:10D8E0000088A188401A00B2ADF800002068408886
:10D8F000401E00B2ADF8060021895A3108B220F06E
:10D900006BFEB4F90410B4F90E20891A484321685B
:10D91000098801EBE03000B2ADF80400218908B2BB
:10D9200020F05AFEB4F9041048432168498801EBFD
:10D93000E03000B2ADF802002A4669466846F5F7C5
:10D9400015FC06464EB1A169C1F808D06A462169A6
:10D95000A06900E002E011F083F844E06089A18949
:10D96000884206D16089022803D02089E188884254
:10D970000FDB608910B9A08903280AD060890128CB
:10D9800002D1A089032804D0608901282BD1A08965
:10D9900048BB20680088A188401A00B2ADF800009A
:10D9A00020684088A188401A00B2ADF802002068C3
:10D9B0000088401E00B2ADF8040020684088401E78
:10D9C00000B2ADF806002A4669466846F5F7CEFB78
:10D9D00006463EB1A169C1F808D06A462169A0692E
:10D9E00011F03EF800BFA06985607CBD7CB504469F
:10D9F000A06985686089032856D1A089032853D17E
:10DA0000E088218988424FDAE1885A3108B220F053
:10DA1000E3FDB4F90410B4F90E20891A48432168D3
:10DA2000098801EBE03000B2ADF80000E18808B2EF
:10DA300020F0D2FDB4F9041048432168498801EB75
:10DA4000E03000B2ADF8020021895A3108B220F06E
:10DA5000C3FDB4F9041048432168098801EBE030A4
:10DA600000B2ADF80400218908B220F0B5FDB4F988
:10DA70000410B4F90E20891A48432168498801EB43
:10DA8000E03000B2ADF806002A4669466846F5F770
:10DA90006DFB06463EB1A169C1F808D06A4621690E
:10DAA000A06910F0DDFFC7E06089032802D0A089DB
:10DAB00003287ED1608903283CD120680088A18892
:10DAC000084400B2ADF8040020684088401E00B24F
:10DAD000ADF80600E1885A3108B220F07DFDB4F9B6
:10DAE0000410B4F90E20891A48432168098801EB13
:10DAF000E03000B2ADF80000E18808B220F06CFD23
:10DB0000B4F9041048432168498801EBE03000B2C1
:10DB1000ADF802002A4669466846F5F727FB064637
:10DB20003EB1A169C1F808D06A462169A06910F028
:10DB300097FF00BFA08903287ED120680088ADF838
:10DB4000000020684088A188401A00B2ADF80200A9
:10DB500021895A3108B220F03FFDB4F9041048433E
:10DB60002168098801EBE03000B2ADF8040021899A
:10DB700008B220F031FDB4F90410B4F90E20891A6E
:10DB800048432168498801EBE03000B2ADF8060057
:10DB90002A4669466846F5F7E9FA06463EB1A169A4
:10DBA000C1F808D06A462169A06910F059FF43E026
:10DBB000FFE76089A189884206D16089032803D0E4
:10DBC0002089E18888420FDB6089022801D1A08981
:10DBD00050B16089012801D1A08928B1608902284B
:10DBE0002AD1A089012827D120680088ADF800003B
:10DBF00020684088A188401A00B2ADF80200206871
:10DC00000088A188084400B2ADF80400206840886C
:10DC1000401E00B2ADF806002A4669466846F5F790
:10DC2000A5FA06463EB1A169C1F808D06A46216945
:10DC3000A06910F015FF00BFA06985607CBD0000E1
:10DC400070B5A4B006460D4620AA22A9304619F0A8
:10DC500021F922A80CF032F928B920A80CF02EF9ED
:10DC600008B924B070BD12A9304623F07BFC0446ED
:10DC7000012C00D0F5E72946684618F09DFB1B48AB
:10DC800001900220029012A804904FF480300D9071
:10DC900022A80CF013F980B122A803906A461A2139
:10DCA000304612F099FC22AA12A9284610F0D8FE9C
:10DCB0006A461B21304612F08FFC20A80CF0FEF8BB
:10DCC00090B120A803906A461A21304612F084FCD5
:10DCD00020A8039020AA12A9284610F0C1FE6A4687
:10DCE0001B21304612F078FC00BFBAE79CB1030854
:10DCF0002DE9F04FB1B005460F4605F114012FA8EC
:10DD0000BA68F5F733FA10B931B0BDE8F08FB868EA
:10DD10002E902FA8B8602C46002128461AF025F82E
:10DD20002B90002128461AF08CF92A90284618F0EA
:10DD30002EFEB4F88410484300120FFA80FA2846E9
:10DD400018F006FEB4F88610484300120FFA80FB64
:10DD500004F12400F6F7B3FC28900021284619F0BE
:10DD6000B6FF823461884843001227902188491EFB
:10DD7000279801FB10A0218890FBF1F000B22690BB
:10DD800028992698B0FBF1F000B225904FF4A0211D
:10DD9000284619F09CFF6188823C48430012249079
:10DDA000284618F05FFF01462B98401A00B22390D6
:10DDB000284619F051F801462A98401A00B22290DC
:10DDC00014A810F069FE14AA4FF4A02128461AF0F6
:10DDD00039FE14A8C07B20F0070114A8C173FF20EE
:10DDE0008DF85300688BBDF85010084400B2ADF8B0
:10DDF000B600394602A818F0DFFA4FF4A0200F90C1
:10DE00005D480390042004904FF00008AAE0279892
:10DE1000504400FB08F0B4F8821090FBF1F0A98A9E
:10DE200001442398084400B20190CDF8408004F1E9
:10DE30002400F6F763FC06468CE0307B00F001001E
:10DE400000B181E094F88800C0F3C00008B970897F
:10DE500000E0002000B200900198ADF8B000BDF8DD
:10DE6000B010259801442498081A401E00B2ADF85D
:10DE7000B40025990198084400B20190BDF9B4009E
:10DE8000BDF9BC10884200DA5EE0BDF9B000BDF912
:10DE9000C010884200DD60E03089ADF85400009881
:10DEA0004044B4F8821090FBF1F201FB12000FFA2B
:10DEB00080F9706830F91910307BC0F3001204F15A
:10DEC0006C0030F91200081A00FB0BF02990307B2F
:10DED000C0F3001104F1700030F91110307BC0F371
:10DEE000001204F16C0030F91200091A299890FB15
:10DEF000F1F029902998ABEB0001E88A01442298BF
:10DF0000084400B2ADF8B200706830F9190047F665
:10DF1000FF71884217D02CA8059014A8069013967C
:10DF2000706830F91900129002AA1A21284612F0DE
:10DF300053FB2CAA14A9384610F092FD02AA1B210B
:10DF4000284612F049FB00BF314604F12400F6F7E1
:10DF5000CFFB0646002E7FF470AF00BF08F1010032
:10DF60001FFA80F8B4F8820040453FF750AF2E9872
:10DF7000B86000BFC8E6000074B303082DE9F34F92
:10DF8000B9B083463A980BF11401826837A8F5F7C7
:10DF9000EDF810B93BB0BDE8F08F3A988068369044
:10DFA00037A93A9881605D46B5F88200022800DA08
:10DFB000F0E70021584619F0BEFC33900021584686
:10DFC00019F0D3FE01463398084400B23290002184
:10DFD00058461AF036F801463398084400B231909A
:10DFE000584618F0D4FCB5F884104843001200B22B
:10DFF0003090584618F0ACFCB5F886104843001233
:10E0000000B22F90584618F02DFE0146BBF81420A0
:10E0100032981044401A00B22E90584618F01CFF57
:10E020000146BBF8162031981044401A00B22D90DA
:10E030003A980BF1140182682BA8F5F797F82A900B
:10E040002A9800B9A6E727A80FF066FD27AA4FF483
:10E05000A02158461AF082FC19A810F01DFD19AA3B
:10E060004FF4003158461AF0EDFC4FF40031584699
:10E070001AF069FA064600EBD67047104FF40031EB
:10E08000584619F0D2FC064600EBD6704FEA600AFB
:10E09000BDF99E00574501DA394600E0514600EBD4
:10E0A000D072B1EB620F06DD9DF8A50020F01000E4
:10E0B00010308DF8A500BDF89E00012806D19DF80E
:10E0C000A50020F0100010308DF8A500B5F88210E2
:10E0D0003098814201DB012000E00020189005F11A
:10E0E0002400F6F70BFB0446D4E1207B00F001008E
:10E0F00000B1C9E12089ADF89C002089ADF8680025
:10E1000095F88800C0F3C00008B9608900E00020DD
:10E1100006B217962E98ADF8D4002E98ADF8D00020
:10E12000179E179EB046606830F91810207BC0F328
:10E13000001205F16C0030F91200081A2F994843BB
:10E140001690207BC0F3001105F1700030F911101A
:10E15000207BC0F3001205F16C0030F91200091A9F
:10E16000169890FBF1F0169016992F98411A2D9859
:10E17000084400B2ADF8D20004A83A9918F01CF98E
:10E18000C8480590032006904FF4A020119027A8BE
:10E190000A9019A808901594BDF9D2000390BDF912
:10E1A000D20002904FF0000923E1BDF8D000ADF895
:10E1B000D400BDF8D200ADF8D600BDF9D410369821
:10E1C000B0F904003844401C814200DD16E130986B
:10E1D00000FB09F0B5F88210491E90FBF1F12E9872
:10E1E000084400B2ADF8D00017984844B5F8821042
:10E1F00090FBF1F201FB120006B2606830F91610D4
:10E20000207BC0F3001205F16C0030F91200081AEF
:10E210002F9948431690207BC0F3001105F1700040
:10E2200030F91110207BC0F3001205F16C0030F9B9
:10E230001200091A169890FBF1F0169016992F9873
:10E24000411A2D98084400B2ADF8D200BDF9D010A3
:10E250003698B0F90000C01B401E814201DAB0467A
:10E26000C3E0B9F1000F58D01898E8B3606830F9EE
:10E27000180047F6FF718842F5D0606830F9160043
:10E280008842F0D0BDF9D2100298814201DA02989A
:10E2900001E0BDF9D2000290BDF9D210039881428D
:10E2A00001DD039801E0BDF9D2000390BDF9D4006F
:10E2B000BDF9D010884230D0BDF9D2000190BDF830
:10E2C000D000401E00B2ADF8D000BDF8D000ADF8CF
:10E2D000D4000398ADF8D6000298ADF8D200BDF98D
:10E2E000D600BDF9D21000E018E0884205D1BDF893
:10E2F000D200401C00B2ADF8D20034AB35AA27A939
:10E300003A980FF0F2FBBDF8D000401C00B2ADF817
:10E31000D000019803900198029064E0BDF8D40009
:10E32000C01B00B2ADF80000BDF8D400384400B204
:10E33000ADF80400BDF8D600A0EB0A0000B2ADF8BD
:10E340000200BDF8D600504400B2ADF80600A9F1B5
:10E3500001001290606830F9180047F6FF7188429A
:10E3600001D035A800E000200D90606830F916005B
:10E3700047F6FF71884201D034A800E000200E90DB
:10E38000CDF81CD0606830F91800149004AA1A2146
:10E39000584612F021F9606830F9180047F6FF710D
:10E3A00088420AD0606830F91600884205D034AB44
:10E3B00035AA27A93A980FF098FB77B1BAF1000F68
:10E3C0000BD0606830F9180047F6FF71884204D01E
:10E3D0006A4619A93A9810F043FB04AA1B21584633
:10E3E00012F0FAF800BFB04600BF09F101001FFAB1
:10E3F00080F9B5F8820048453FF7D7AE00BF1898BE
:10E40000E8BBB5F8820048453DD1606830F9160098
:10E4100047F6FF71884236D0BDF8D000C01B00B26D
:10E42000ADF80000BDF8D000384400B2ADF80400EB
:10E43000BDF8D200A0EB0A0000B2ADF80200BDF8B2
:10E44000D200504400B2ADF80600A9F101001290CC
:10E4500000200D900E90CDF81CD0606830F91600A9
:10E46000149004AA1A21584612F0B6F86A4619A95F
:10E470003A9810F0F5FA04AA1B21584600E002E091
:10E4800012F0AAF800BF00BF214605F12400F6F7FC
:10E490002FF90446002C7FF428AE3A99369888600C
:10E4A00000BF77E574B303082DE9F34FB3B081469D
:10E4B000349809F11401826831A8F4F757FE10B9B5
:10E4C00035B0BDE8F08F34988068309031A9349829
:10E4D00081604D460021484619F02DFA2D9000210B
:10E4E000484619F042FC2C900021484619F0A9FD3D
:10E4F0002B90484618F04BFAB5F8841048430012A8
:10E5000000B22A90484618F023FAB5F8861048431E
:10E51000001200B22990484618F0A4FB0146B9F851
:10E5200014202C9802442D981044401A00B22890D0
:10E53000484618F091FC0146B9F816202B98024481
:10E540002D981044401A00B2279024A80FF0E4FA46
:10E5500024AA4FF4A02148461AF000FA16A810F099
:10E560009BFA16AA4FF4003148461AF06BFA4FF4A2
:10E570000031484619F0E7FF064600EBD670471019
:10E580004FF40031484619F050FA064600EBD670B9
:10E590004FEA6008BDF99200474501DA394600E0CC
:10E5A000414600EBD072B1EB620F06DD9DF8990099
:10E5B00020F0100010308DF89900BDF8920001286D
:10E5C00006D19DF8990020F0100010308DF89900C8
:10E5D00005F12400F6F792F8044698E1207B00F05C
:10E5E000010000B18DE12089ADF890002089ADF8DF
:10E5F0005C0095F88800C0F3C00008B9608900E0AD
:10E60000002006B215962898ADF8BC002898ADF801
:10E61000B800159E159EB346606830F816000A28AB
:10E6200047D02A980090236833F91600237BC3F360
:10E63000C00C05F1780333F91C20237BC3F3C00C15
:10E6400005F1740333F91C10002315F0D3FF00B259
:10E65000ADF8B800BDF8B8102898084400B2ADF87D
:10E66000B80029980090636833F91600237BC3F340
:10E67000001C05F1700333F91C20237BC3F3001C3D
:10E6800005F16C0333F91C10002315F0B3FF00B241
:10E69000ADF8BA00BDF8BA102998401A00B2ADF82A
:10E6A000BA00BDF8BA102798084400B2ADF8BA0015
:10E6B00005E04EF20100ADF8B800ADF8BA0003A8CD
:10E6C000349917F079FE4FF4A020109094480490EC
:10E6D0000320059024A8099016A8079014944FF0E1
:10E6E000000AC8E0BDF8B800ADF8BC00BDF8BA003B
:10E6F000ADF8BE0015985044B5F8821090FBF1F2C9
:10E7000001FB120006B2606830F9160047F6FF718F
:10E71000884247D029980090636833F91600237B1C
:10E72000C3F3001C05F1700333F91C20237BC3F3F2
:10E73000001C05F16C0333F91C10002315F05AFF7F
:10E7400000B2ADF8BA00BDF8BA102998401A00B26C
:10E75000ADF8BA00BDF8BA102798084400B2ADF879
:10E76000BA002A980090236833F91600237BC3F37C
:10E77000C00C05F1780333F91C20237BC3F3C00CD4
:10E7800005F1740333F91C10002315F033FF00B2B8
:10E79000ADF8B800BDF8B8102898084400B2ADF83C
:10E7A000B80001E0B34662E0BAF1000F5DD0BDF8F9
:10E7B000BC00C01B00B2ADF80400BDF8BC0038447A
:10E7C00000B2ADF80800BDF8BE00A0EB080000B232
:10E7D000ADF80600BDF8BE00404400B2ADF80A0036
:10E7E000AAF101001190606830F91B0047F6FF7133
:10E7F000884201D02FA800E000200C90606830F91A
:10E80000160047F6FF71884201D02EA800E00020D4
:10E810000D9001A80690606830F91B00139003AAC0
:10E820001A21484611F0D8FE606830F91B0047F6FF
:10E83000FF71884213D0606830F9160088420ED00C
:10E840002EAB2FAA24A934980FF04FF93FB1B8F19D
:10E85000000F04D001AA16A9349810F001F903AAF8
:10E860001B21484611F0B8FE00BFB34600BF0AF1B5
:10E8700001001FFA80FAB5F8820050453FF732AF29
:10E88000B5F8820050453BD1606830F9160047F674
:10E89000FF71884234D0BDF8B800C01B00B2ADF89B
:10E8A0000400BDF8B800384400B2ADF80800BDF867
:10E8B000BA00A0EB080000B2ADF80600BDF8BA003F
:10E8C000404400B2ADF80A00AAF101001190002006
:10E8D0000C900D9001A80690606830F91600139016
:10E8E00003AA1A21484611F077FE01AA16A9349806
:10E8F00010F0B6F803AA1B21484611F06DFE00BFC8
:10E9000000BF214605F12400F5F7F2FE0446002C75
:10E910007FF464AE34993098886000BFD0E5000081
:10E9200074B303082DE9F74FA2B00F46F88D10B964
:10E9300025B0BDE8F08F97F83600022800DCF7E735
:10E94000F88D012808D1B7F93400002804DC388E8E
:10E9500010B9788E00B9EBE724980088398E084406
:10E96000B98E401A00B2ADF8800024988088398EA4
:10E970000844B98E084400B2ADF884002498408859
:10E98000798E0844B98E401A00B2ADF882002498FE
:10E99000C088798E0844B98E084400B2ADF886006C
:10E9A000B7F92E0000EBD071BDF88020A2EB610119
:10E9B000491E09B2ADF87810B7F92E0000EBD071FE
:10E9C000BDF8842002EB6101491C09B2ADF87C104E
:10E9D000B7F92E0000EBD071BDF88220A2EB6101E7
:10E9E000491E09B2ADF87A10B7F92E0000EBD071CC
:10E9F000BDF8862002EB6101491C09B2ADF87E101A
:10EA000097F836001D901D98FD2801DDFF201D9010
:10EA100022981EA982681BA8F4F7A8FB00B987E713
:10EA200019A824990BF0B2F94FF0FF32114619A83A
:10EA30000BF0CCFAB7F9008019A80BF08FFA8346D7
:10EA400019A80BF003FA834503DA19A80BF086FA2C
:10EA500002E019A80BF0FAF918901898B8EB600FBB
:10EA600002DD18984FEA6008B7F90000179020A857
:10EA70000BF074FA834620A80BF0E8F9834503DA1B
:10EA800020A80BF06BFA02E020A80BF0DFF9189039
:10EA9000DDE91701B0EB610F02DD18984010179007
:10EAA000B7F92E1017980C1804FB04F1480015F064
:10EAB000EFFD8246B7F92E20179803B2514620A8E1
:10EAC00022F01EFF1EA80FF059FB16904FF001090F
:10EAD000169820B9F878FF2801DBB87808B14FF014
:10EAE00000094FF0FF300F90B9F1000F0BD1012357
:10EAF0000FFA88F219A910A80FF0B8FE002110A88B
:10EB00000FF036F80F901EA80BF028FA834615F088
:10EB1000BFFD0E901C2102A816F063F80CA802900D
:10EB200007900E980590B88DADF8100097F8360054
:10EB30008DF82000B8788DF821001EA80BF00EFA91
:10EB4000834600EBDB70BDF8781001EB600000B28B
:10EB500001901EA80BF07AF9834600EBDB70BDF83C
:10EB60007A1001EB600000B20090BDF87C00ADF8B7
:10EB70003400BDF87C00001B401C00B2ADF8300032
:10EB8000BDF87A00ADF83200BDF87A002044401E8E
:10EB900000B2ADF83600BDF930100198814202DDB7
:10EBA000BDF9300000E00198ADF83000BDF9361035
:10EBB0000098814202DABDF9360000E00098ADF815
:10EBC000360022980CA982680AA8F4F7CFFA002828
:10EBD00066D00FFA88F219A90AA8F4F708FB0028F2
:10EBE0005ED10AA80BF0BAF983465646BDF92A0051
:10EBF000BDF97A10401A00FB0466BDF92810BDF972
:10EC00007C00001B401C081A0644B9F1000F09D013
:10EC10000FFA88F219A90AA8F4F764FB10B10120D1
:10EC2000099001E0CDF82490BBF1000F37DD0E987C
:10EC30000590BDF82800ADF83000BDF82C00ADF807
:10EC4000340002208DF81800BDF92A5023E0ADF8F9
:10EC50003250ADF836500998A8B9224631460E9880
:10EC600015F031FEBDF928105B462A460E980FF0CC
:10EC700035FA8DF818009DF81800012804D10220FB
:10EC80008DF8180000E0059602A9229810F026F9E8
:10EC90002644681C05B2BDF92E00A842D7DA00BF91
:10ECA000BDF87C00ADF83400BDF87C00001B401CB2
:10ECB00000B2ADF83000BDF87E00001B401C00B271
:10ECC000ADF83200BDF87E00ADF83600BDF9301069
:10ECD0000198814202DDBDF9300000E00198ADF8F5
:10ECE0003000BDF932100098401C814202DDBDF9B0
:10ECF000320001E00098401C00B2ADF832002298CA
:10ED00000CA982680AA8F4F731FA002866D00FFA35
:10ED100088F219A90AA8F4F76AFAA8BB0AA80BF0A6
:10ED20001DF983465646BDF93600BDF92E10401A2E
:10ED300000FB0466BDF92810BDF97C00001B401CD7
:10ED4000081A0644B9F1000F09D00FFA88F219A980
:10ED50000AA8F4F7C7FA10B10120099001E0CDF834
:10ED60002490BBF1000F38DD0E980590BDF8280007
:10ED7000ADF83000BDF82C00ADF8340002208DF85D
:10ED80001800BDF92E5024E028E0ADF83250ADF85F
:10ED900036500998A8B9224631460E9815F093FDD1
:10EDA000BDF928105B462A460E980FF097F98DF8AA
:10EDB00018009DF81800012804D102208DF81800D1
:10EDC00000E0059602A9229810F088F82644681EF3
:10EDD00005B2BDF92A00A842D7DD00BFBDF8780012
:10EDE000204400B2ADF83000BDF87C00001B00B23A
:10EDF000ADF83400BDF87A00ADF83200BDF87A0005
:10EE00002044401E00B2ADF83600BDF9361000981F
:10EE1000814202DABDF9360000E00098ADF8360014
:10EE200022980CA982680AA8F4F7A0F900286FD0EC
:10EE30000FFA88F219A90AA8F4F7D9F9002867D1BE
:10EE40000AA80BF08BF883465646BDF92A00BDF997
:10EE50003210401A00FB0466B9F1000F09D00FFA16
:10EE600088F219A90AA8F4F73DFA10B10120099017
:10EE700001E0CDF82490BBF1000F48DD099810B9EE
:10EE80000E98059001E000200590BDF82800ADF82F
:10EE90003000BDF82C00ADF83400BDF92A5032E046
:10EEA000ADF83250ADF836500998C8B931785A46A5
:10EEB0000E9815F05CFEBDF928105B462A460E98A8
:10EEC0000FF00CF98DF818009DF81800012802D1F8
:10EED00002208DF8180002A922980FF0FFFF0FE022
:10EEE0001D98FF2801D1307804E0307897F836106B
:10EEF000484300128DF8200002A922980FF0EEFF7F
:10EF00002644681C05B2BDF92E00A842C8DA00BF2D
:10EF100097F836008DF82000BDF87800204400B244
:10EF2000ADF83000BDF87C00001B00B2ADF8340035
:10EF3000BDF87E00001B401C00B2ADF83200BDF8E9
:10EF40007E00ADF83600BDF932100098401C8142B9
:10EF500002DDBDF9320001E00098401C00B2ADF8BE
:10EF6000320022980CA982680AA8F4F7FFF800285A
:10EF70007ED00FFA88F219A90AA8F4F738F9002808
:10EF800078D10AA80AF0EAFF83465646BDF9360052
:10EF9000BDF92E10401A00FB0466BBF1000F66DDC0
:10EFA000B9F1000F09D00FFA88F219A90AA8F4F7ED
:10EFB00099F910B10120099001E0CDF82490099849
:10EFC00010B90E98059001E000200590BDF82800CA
:10EFD000ADF83000BDF82C00ADF83400BDF92E506E
:10EFE00041E0ADF83250ADF83650B9F1000F09D01C
:10EFF0000FFA88F219A90AA8F4F774F910B10120E0
:10F00000099001E0CDF824900998C8B931785A46A2
:10F010000E9815F0ACFDBDF928105B462A460E98F7
:10F020000FF05CF88DF818009DF81800012802D147
:10F0300002208DF8180002A922980FF04FFF0FE070
:10F040001D98FF2801D1307804E0307897F8361009
:10F05000484300128DF8200002A922980FF03EFFCD
:10F060002644681E05B2BDF92A00A842B9DD00E0B9
:10F0700000E000BF97F836008DF82000BDF87C0056
:10F08000001B401C00B2ADF83000BDF87C00ADF8AC
:10F090003400BDF87A00204400B2ADF83200BDF86B
:10F0A0007E00001B00B2ADF83600BDF932100098AA
:10F0B000401C814202DABDF9320001E00098401C98
:10F0C00000B2ADF83200BDF936100098814202DD81
:10F0D000BDF9360000E00098ADF83600BDF93010FB
:10F0E0000198814202DDBDF9300000E00198ADF8E1
:10F0F000300022980CA982680AA8F4F737F8E0B328
:10F100000FFA88F219A90AA8F4F771F8A8BB0AA89F
:10F110000AF024FF83465646601E00FB0466BDF9D4
:10F120002810BDF97C00001B401C081A0644B9F1E8
:10F13000000F09D00FFA88F219A90AA8F4F7D2F83B
:10F1400010B10120099001E0CDF82490099808B190
:10F15000304600E00E980590BBF1000F33DDBDF89E
:10F160002800ADF83000BDF82C00ADF834000220C6
:10F170008DF81800BDF92A5021E025E0ADF8325095
:10F18000ADF836500998A0B95A4631460E9815F098
:10F190009AFBBDF928105B462A460E980EF09EFF9A
:10F1A0008DF818009DF81800012802D102208DF872
:10F1B000180002A922980FF091FE681C05B2BDF953
:10F1C0002E00A842DADA00BF5646002515E0304688
:10F1D0003319591E002208E0037891F800C080F826
:10F1E00000C00B70401C491E521C04EBD47CB2EBD7
:10F1F0006C0FF1DB2644681C05B2A542E7DBBDF8C5
:10F200007800ADF83000BDF878002044401E00B210
:10F21000ADF83400BDF87A00204400B2ADF83200F9
:10F22000BDF87E00001B00B2ADF83600BDF932100B
:10F230000098401C814202DABDF9320001E00098DA
:10F24000401C00B2ADF83200BDF936100098814282
:10F2500002DDBDF9360000E00098ADF83600BDF9DA
:10F2600034100198401E814202DABDF9340001E0F9
:10F270000198401E00B2ADF8340022980CA98268B3
:10F280000AA8F3F773FFD0B30FFA88F219A90AA8F6
:10F29000F3F7ADFF98BB0AA80AF060FE8346564616
:10F2A000601E00FB0466BDF92800BDF93010401A4D
:10F2B0000644B9F1000F09D00FFA88F219A90AA87B
:10F2C000F4F710F810B10120099001E0CDF8249076
:10F2D000099808B1304600E00E980590BBF1000F88
:10F2E00033DDBDF82800ADF83000BDF82C00ADF8D6
:10F2F000340002208DF81800BDF92A5021E025E0E5
:10F30000ADF83250ADF836500998A0B95A4631469A
:10F310000E9815F0D8FABDF928105B462A460E98CB
:10F320000EF0DCFE8DF818009DF81800012802D1BF
:10F3300002208DF8180002A922980FF0CFFD681C5A
:10F3400005B2BDF92E00A842DADA00BFBDF8780098
:10F35000ADF83000BDF878002044401E00B2ADF892
:10F360003400BDF87A00ADF83200BDF87A002044D0
:10F37000401E00B2ADF83600BDF934100198401EB1
:10F38000814202DABDF9340001E00198401E00B26A
:10F39000ADF83400BDF936100098814202DABDF9AB
:10F3A000360000E00098ADF8360022980CA982687B
:10F3B0000AA8F3F7DBFED0B30FFA88F219A90AA85E
:10F3C000F3F715FF98BB0AA80AF0C8FD8346564616
:10F3D000BDF92A00BDF93210401A00FB0466BDF9E0
:10F3E0002800BDF93010401A0644B9F1000F09D0C9
:10F3F0000FFA88F219A90AA8F3F774FF10B10120D7
:10F40000099001E0CDF824900E980590BBF1000F13
:10F4100036DDBDF82800ADF83000BDF82C00ADF8A1
:10F42000340002208DF81800BDF92A5024E028E0AD
:10F43000ADF83250ADF836500998A8B92246314699
:10F440000E9815F040FABDF928105B462A460E9832
:10F450000EF044FE8DF818009DF81800012804D124
:10F4600002208DF8180000E0059602A922980FF0FE
:10F4700035FD2644681C05B2BDF92E00A842D7DA36
:10F4800000BFBDF87800ADF83000BDF8780020442A
:10F49000401E00B2ADF83400BDF87E00001B401CD9
:10F4A00000B2ADF83200BDF87E00ADF83600BDF90F
:10F4B00032100098401C814202DDBDF9320001E0AB
:10F4C0000098401C00B2ADF83200BDF9341001982C
:10F4D000401E814202DABDF9340001E00198401E6D
:10F4E00000B2ADF8340022980CA982680AA8F3F79C
:10F4F0003DFED0B30FFA88F219A90AA8F3F777FEF8
:10F5000098BB0AA80AF02AFD83465646BDF9360084
:10F51000BDF92E10401A00FB0466BDF92800BDF9A4
:10F520003010401A0644B9F1000F09D00FFA88F2E2
:10F5300019A90AA8F3F7D6FE10B10120099001E03D
:10F54000CDF824900E980590BBF1000F36DDBDF884
:10F550002800ADF83000BDF82C00ADF834000220D2
:10F560008DF81800BDF92E5024E028E0ADF8325097
:10F57000ADF836500998A8B9224631460E9815F0D4
:10F58000A2F9BDF928105B462A460E980EF0A6FD9A
:10F590008DF818009DF81800012804D102208DF87C
:10F5A000180000E0059602A922980FF097FC264467
:10F5B000681E05B2BDF92A00A842D7DD00BFBDF81C
:10F5C0007800204400B2ADF83000BDF87C00001B8C
:10F5D00000B2ADF83400BDF87A00204400B2ADF8B6
:10F5E0003200BDF87E00001B00B2ADF836000E9868
:10F5F000059022980CA982680AA8F3F7B7FDA0B37A
:10F600000FFA88F219A90AA8F3F7F1FD68BB0AA856
:10F610000AF0A4FC8346BBF1000F25DDBDF82800ED
:10F62000ADF83000BDF82C00ADF83400BDF92A501B
:10F6300016E0ADF83250ADF8365059460E9815F038
:10F6400007FBBDF928105B462A460E980EF046FDD2
:10F650008DF8180002A922980FF040FC681C05B232
:10F66000BDF92E00A842E4DA00BFB9F1000F05D1C0
:10F6700010A80EF05FFD0F980FF0E0F9504615F05E
:10F6800083F80E9815F080F800BFFFF751B900001D
:10F690002DE9F74FDEB05E985D9060980AF06CFC43
:10F6A000804600EBD8704FEA600A60980AF0DCFBF5
:10F6B000074600EBD7704010824507DA60980AF0E1
:10F6C0005BFC064606EBD670401006E060980AF038
:10F6D000CBFB054605EBD570401000B25B906098FF
:10F6E00001885B98084400B2ADF8700160984188C9
:10F6F0005B98084400B2ADF8720158A80EF00CFAFD
:10F7000058AA4FF4C0215E9819F028F99DF86901B4
:10F7100020F0100010308DF8690150A80EF0B0F9FB
:10F7200050AA4FF4C0215E9819F0B1F82CA85F9947
:10F7300016F042FEFE482D904FF4C0203990032071
:10F740002E9058A832905D982430F4F7D7FF0446E5
:10F7500041E23D94A18B5B98084406B2A088301A20
:10F7600000B22B90A089301A0FFA80FABDF8701100
:10F770002B98081A00B2ADF8A400BDF872112B98AE
:10F78000081A00B2ADF8A600BDF870112B98084415
:10F7900000B2ADF8A800BDF872112B98084400B271
:10F7A000ADF8AA00012347F6FF7229A94AA80FF075
:10F7B0005DF8BDF87001A0EB0A0000B2ADF89C0046
:10F7C000BDF87201A0EB0A0000B2ADF89E00BDF8D2
:10F7D00070015044401E00B2ADF8A000BDF87201A7
:10F7E0005044401E00B2ADF8A200012347F6FF725C
:10F7F00027A944A80FF03AF8BDF87001801B00B2A9
:10F80000ADF89400BDF87201801B00B2ADF896000F
:10F81000BDF870013044401E00B2ADF89800BDF84C
:10F8200072013044401E00B2ADF89A00002347F642
:10F83000FF7225A93EA80FF019F800213EA80EF08E
:10F8400097F924904FF0FF302390608910B16089C0
:10F85000401E01E04FF6FF7022904FF00009A4E136
:10F860002298401C22900020219061892298814298
:10F8700003D10020229001202190A069009060888F
:10F88000421E00214846636914F0B4FE07463C97C7
:10F89000219810B12089209001E0206820902098C4
:10F8A0001F90219808B1E08900E0E0880FFA80F805
:10F8B000CDF87880DDF878805D983030F4F71EFF61
:10F8C00005465FE02879022800D055E0A868B842D4
:10F8D00051DCE868B8424EDB288A40440FFA80F8D1
:10F8E000698AA88A814202D1688A209043E0A87D73
:10F8F00000F0010050B1FF20009000233846D5E908
:10F90000021214F077FEC0B2139009E0FF200090BD
:10F9100000233846D4E9051214F06CFEC0B21390EF
:10F92000A98A1191698A1291139800F1040C4FEA87
:10F93000EC00BDF848C04CEA0C4CDFF8F8E10CEAEA
:10F940000E01BDF844C04CEA0C4C0CEA0E03A3EBCC
:10F95000010C0CFB00FC01EB5C1C0CEA0E0242EA01
:10F96000124C1FFA8CFCCDF840C0BDF840E0F446C4
:10F97000CDF880C000BF00BF29465D983030F4F755
:10F98000B7FE0546002D9DD1E08B00FB09F001027A
:10F990006088401E91FBF0F01D901D9800121C9095
:10F9A0001C98401C1B901D9800F0FF0B228C1C998A
:10F9B000114408B21EF010FE1A90228C1B991144BB
:10F9C00008B21EF009FE1990CBF580711A984143D8
:10F9D000199800FB0B1000121890228C1C991144EE
:10F9E00008B21EF0F1FD1790228C1B99114408B249
:10F9F0001EF0EAFD1690CBF58071179841431698DA
:10FA000000FB0B1000121590BDF88000ADF86001EE
:10FA1000ADF86281BDF8702106EB080115984843E6
:10FA20007F3002EBE03000B2ADF85000BDF872213B
:10FA300006EB0801189848437F3002EBE03000B233
:10FA4000ADF8520014A835905CA83590CDF8E89038
:10FA500050A83190219800287CD024980EF0EEFF19
:10FA6000B4F91000AAEB00001390BDF870211399AF
:10FA7000159848437F3002EBE03000B2ADF8480003
:10FA8000BDF872211399189848437F3002EBE0309B
:10FA900000B2ADF84A00202250A90AA814F013FFC2
:10FAA0000AA831903B4624A2102106A81CF012F9A6
:10FAB00006A837902CAA1A215E9810F08DFD00211F
:10FAC00041F6FF72BDF95201CDE901210090BDF967
:10FAD000543105A8509A37991EF06CFEBDF91400F8
:10FAE00000EBD071BDF84820A2EB610109B2ADF87E
:10FAF0000C10BDF9160000EBD071BDF84A20A2EB46
:10FB0000610109B2ADF80E10BDF80C00BDF814107B
:10FB1000084400B2ADF81000BDF80E00BDF8161094
:10FB2000084400B2ADF812000020009003AA06E0DD
:10FB3000ACB803081FF8E007256400000AE0379B13
:10FB400031995F980DF0E8FB00213EA80EF010F807
:10FB5000249007E00020319037902CAA1A215E985B
:10FB600010F03AFD219909B144A900E04AA90846DC
:10FB700000210DF0FDFF23905CAB14AA58A95F98FB
:10FB80000DF0B3FF23980EF059FF2CAA16215E98B2
:10FB900010F022FDBDF87C00ADF860011E98ADF8B4
:10FBA000620109F1010000F0FF09608848453FF754
:10FBB00057AE4AA80EF0BEFA44A80EF0BBFA3EA813
:10FBC0000EF0B8FA24980EF039FF21465D982430E3
:10FBD000F4F78EFD0446002C7FF4BBAD61B0BDE8A8
:10FBE000F08F00002DE9F04FB1B005468B469046EE
:10FBF0002E464146284603F025F904462089C0F3E5
:10FC00000E00012802DC31B0BDE8F08F2089C0F37E
:10FC1000C03020B9208810B9608800B9F3E700210E
:10FC2000284618F0A2F882460021284617F083FEE5
:10FC3000504400B22E90284616F0A9FEB6F8841063
:10FC40004843001200B22D9025A80DF019FF25AAF7
:10FC50004FF4C021284618F01AFE284617F002F883
:10FC60000146AA8A2E981044401A00B22490B8F196
:10FC7000020F0ED12089C0F3C03028B14FF4C0214B
:10FC8000284617F095FF00E000202390B5F91A9060
:10FC90000DE02089C0F3C03028B14FF4C0212846C0
:10FCA00018F0CFF900E000202390B5F91690B8F1D4
:10FCB000020F16D1DBF80800B0F90600484500DA5B
:10FCC000A1E7239848442599B1F908100844B4F9EC
:10FCD00000100844DBF80810B1F90210884200DA7D
:10FCE00091E720A80DF018FF20AA4FF4C021284664
:10FCF00018F034FE0020ADF88600ADF884005946B7
:10FD00000EA816F059FBA6480F900620109002206E
:10FD10001C904FF4C0201B9025A8139020A814908D
:10FD2000B8F1020F01D0012000E000200D9096F8FC
:10FD3000880000F00700022822D10021284617F091
:10FD4000C6FFB6F8841048434FEA202A2D98504445
:10FD5000B6F8821090FBF1F000B20B900B99A1EB7A
:10FD60000A0000EBD0714A102499114409B2249181
:10FD70000B98A0EB0A012D98401A00B22D9000BFFD
:10FD8000ADF8C2902089C0F30E00401E6168C1F337
:10FD90000E4148430C900027FBE000200B90606868
:10FDA000C0F30E40B7FBF0F100FB117008B9012061
:10FDB0000B90BDF982102D98401A78430C99B0FB36
:10FDC000F1F12498084400B2ADF8C000ADF8BC00D1
:10FDD0000D9868B1BDF9C2100B9810B1B4F90000CC
:10FDE00001E0B4F90200081A00B2ADF8BE000CE060
:10FDF000BDF9C2100B9810B1B4F9000001E0B4F9DC
:10FE00000200084400B2ADF8BE0030A817902FA839
:10FE1000189096F8880000F00700032810D106F12A
:10FE200078000D9930F91100009006F1740030F956
:10FE30001130002138460C9A14F0DCFB824604E0B5
:10FE40006068C0F30E40B7FBF0FACDF878A00B98CD
:10FE5000002871D02089C0F3C03000286CD05346F0
:10FE600050A2102107A81BF035FF25A8139007A862
:10FE7000199010201A900EAA1A21284610F0ACFBF7
:10FE8000002141F6FF72BDF9A600CDE901210090E5
:10FE9000BDF9A83006A8259A19991EF08BFCBDF96A
:10FEA000180000EBD071BDF8BC20A2EB610109B2D3
:10FEB000ADF81010BDF9180000EBD071BDF8BC20F2
:10FEC00002EB610109B2ADF814100D9878B1BDF8DC
:10FED000BE102398081A00B2ADF81600BDF816003F
:10FEE000BDF81A10401A00B2ADF812000EE0BDF8CD
:10FEF000BE102398084400B2ADF81200BDF81200FD
:10FF0000BDF81A10084400B2ADF81600BDF914008F
:10FF1000B5F9141088420DDBBDF91010B5F91800C1
:10FF2000814207DC0020009004AA25A95846199BAD
:10FF30000DF0F2F909E0FFE70020139019901A90F4
:10FF40000EAA1A21284610F047FBBDF9821001EBDA
:10FF5000D172BDF9C03003EB6202B5F914309A4298
:10FF600011DBBDF9820000EBD072BDF9BC30A3EB10
:10FF70006203B5F91820934205DC2FAB30AA20A903
:10FF800058460DF0B2FD0EAA1B21284610F024FBA6
:10FF90007F1C0C9887427FF600AF00BF33E600005D
:10FFA00074B30308256400002DE9F74FB2B005468D
:10FFB000164631953146284602F044FF0446208912
:10FFC000C0F30E00012802DC35B0BDE8F08F2089B7
:10FFD000C0F3C03020B9208810B9608800B9F3E7B9
:10FFE0000EB1012000E0002083460021284617F0D2
:10FFF000A2FC2E900021284618F023F82D902846C8
:020000040801F1
:1000000016F0A6FC3199B1F886104843001200B2F0
:100010002C90284616F020FF0146EA8A2D980244CB
:100020002E981044401A00B22B904EB94FF4C021C4
:10003000284617F09AFE0746B5F914002A9008E002
:100040004FF4C021284617F039FF0746B5F91800CC
:100050002A90B4F900002990B4F902002890012EEA
:1000600007D12998404200B229902898404200B216
:10007000289025A80DF050FD25AA4FF4C021284650
:1000800018F06CFC1DA80DF0FBFC1DAA4FF4C0215C
:10009000284618F0FCFB0BA8339916F08DF9894817
:1000A0000C9006200D9019960004189025A8119028
:1000B0001DA810902089C0F30E00401E6168C1F396
:1000C0000E4100FB01F94FF00008F6E0BDF9961073
:1000D0002C98401A00FB08F0B0FBF9F12B9808446B
:1000E00000B2ADF8C200ADF8BE002A98ADF8C0006D
:1000F00036B9BDF8C000401E00B2ADF8C00005E042
:10010000BDF8C000401C00B2ADF8C00000200A904D
:100110006068C0F30E40B8FBF0F100FB118008B935
:1001200001200A900A9838B1BDF8C0102998081A21
:1001300000B2ADF8BC0006E0BDF8C0102898081A5F
:1001400000B2ADF8BC0030A814902FA815903198DB
:10015000703030F91B00009031996C3131F91B304F
:10016000A9EB08004A46002114F044FA8246CDF873
:100170006CA00A98002872D02089C0F3C0300028F3
:100180006DD0534650A2102106A81BF0A3FD1DA858
:10019000109006A81690102017900BAA1A21284636
:1001A00010F01AFA002141F6FF72BDF98600CDE980
:1001B00001210090BDF9883005A81D9A16991EF0FE
:1001C000F9FABDF9160000EBD071BDF8BE20A2EB24
:1001D000610109B2ADF80E10BDF9160000EBD07147
:1001E000BDF8BE2002EB610109B2ADF81210BBF1FF
:1001F000000F0FD1BDF8BC00BDF81410401AC01B91
:1002000000B2ADF80C00BDF8BC00C01B00B2ADF8E8
:1002100010000EE0BDF8BC00384400B2ADF80C0090
:10022000BDF8BC00BDF814100844384400B2ADF865
:100230001000BDF91210B5F9160081420DDBBDF9B1
:100240000E10B5F91A00814207DC0020009003AAC5
:100250001DA9169B33980DF05FF809E0FFE7002019
:100260001090169017900BAA1A21284610F0B4F996
:10027000BDF9961001EBD172BDF9C23003EB6203F8
:10028000B5F91620934211DBBDF9960000EBD07250
:10029000BDF9BE30A3EB6203B5F91A20934205DC29
:1002A0002FAB30AA25A933980DF01FFC0BAA1B21F8
:1002B000284610F091F908F10108C8457FF606AF0D
:1002C00000BF81E674B30308256400002DE9FE4FEA
:1002D00006460C46174698462021304618F0C4F9C9
:1002E00000287DD00C98032803D1304616F0A0FDDD
:1002F00002E0304616F0A6FD814612F021FA0546CE
:100300004FF0000A002002900C98032843D10021EE
:10031000304617F003FD83460021304617F0A7FD55
:100320000190B9F1010F23D0B9F1020F28D0B9F132
:10033000030F2ED106F1140009F0D1FDA0EB0B0143
:100340000198081A009000EBD0700BEB6000B18AA6
:1003500008440FFA80FA05F1140009F0C0FD00907E
:1003600000EBD070A98A01EB600000B2029010E0AF
:10037000B08A58440FFA80FAB5F91400029008E0E8
:10038000318B0198081A0FFA80FAB5F9180002901B
:1003900000BF00BF45E00021304617F02BFE83462A
:1003A0000021304617F0DDFB0190B9F1010F25D097
:1003B000B9F1020F2AD0B9F1030F30D106F11400C0
:1003C00009F01AFDA0EB0B010198081A009000EB50
:1003D000D0700BEB6001F08A08440FFA80FA00E05D
:1003E00054E005F1140009F007FD009000EBD07017
:1003F0004110E88A084400B2029010E0F08A5844A4
:100400000FFA80FAB5F91600029008E0718B019896
:10041000081A0FFA80FAB5F91A00029000BF00BF5F
:1004200000BFB8F1000F17DAB9F1000F05D002983C
:10043000504502DD2046BDE8FE8F002C01DAA01EEB
:1004400004B2002C01DDA01C04B22146E01704EB2D
:100450009070801000B2EEE7002F16DAB9F1000FAD
:1004600004D00298504501DA2046E4E7002C01DA76
:10047000A01E04B2002C01DDA01C04B22246E0172D
:1004800004EB9070801000B2D5E709E008EB04009F
:10049000002802DAC8F1000004B2381B00D53C463F
:1004A0002046C8E710B50446207EC0F3800008B19E
:1004B000002010BD207A232802D0242803D100E098
:1004C00000BF0120F5E700BF00BF4FF48041606826
:1004D00018F0CAF808B90020EBE7207A11381C2878
:1004E00023D2DFE800F00E0F1011121314151617A7
:1004F0001822221922221A1D1B1C222222221E1F10
:10050000222000BF00BF00BF00BF00BF00BF00BF70
:1005100000BF00BF00BF00BF00BF00BF00BF00BFE3
:1005200000BF00BF00BF0020C3E70120C1E72DE9E5
:10053000F041044612F0F0F807469FB13868806831
:1005400018B1217A386882689047207EC0F3400055
:1005500010B10120BDE8F081207E00F0010008B15B
:100560000020F7E701260EB9002003E000216068B3
:1005700016F064FA05464FF0000827E02868F0B14D
:10058000287A00F08000802819D1287A802805D0A8
:10059000287A20F08000217A884210D16868E060D3
:1005A000204629688847207EC0F3400008B101201A
:1005B000D0E7207E00F0010008B10020CAE708F172
:1005C00001084146606816F039FA05460DB1012E62
:1005D000D4D02146002016F015F906460EB90020A9
:1005E00003E00021606816F029FA05464FF0000884
:1005F00023E02868D0B1287A00F08000B0B9287ACA
:1006000018B1287A217A884210D16868E0602046C3
:1006100029688847207EC0F3400008B1012099E78F
:10062000207E00F0010008B1002093E708F10108E6
:100630004146606816F002FA05460DB1012ED8D089
:10064000012E11D16068406870B12046FFF72AFF83
:1006500050B16068406860602046FFF768FF06465A
:10066000012E01D0002075E7304673E72DE9F043F5
:100670008046DDE9074521B92A7022701A70BDE86D
:10068000F0834FEA282000F00209B9F1000F04D0EE
:1006900000BF99462B464D4600BF00F00409B9F152
:1006A000000F04D000BFA1462C464D4600BF00F00D
:1006B0000609B9F1000F09D100F00109B9F1000FE5
:1006C0000ED100BF994623464C4609E000F00109CF
:1006D000B9F1000F04D000BF994623464C4600BF35
:1006E00022706FEA010909F0FF0602FB06F74FEAE4
:1006F000272985F8009008F0FF0C00F00109B9F1F6
:10070000000F0DD1BCF1000F02D14FEA012905E025
:10071000CCF1000909F0FF0909FB01F94F4601E09E
:1007200001FB0CF73E126FEA060909F0FF0602FB17
:1007300006F74FEA272983F8009000BF9FE70000E3
:100740002DE9FF4F87B005468B469146DDE914A69B
:10075000584609F0EEFB0690584609F069FB0590F3
:100760001798012804D0022804D0032806D103E0FA
:10077000494F08E0494F06E0494F04E000BF00BF81
:100780000BB0BDE8F08F00BF8EBB2888049028888E
:100790005246014602900A98B84703904FF000086D
:1007A00021E0002418E0BDF8100035F8141088424C
:1007B0000CD005EB44000088049005EB4400008851
:1007C0005246014602900A98B847039005EB440050
:1007D000BDF80C100180641C06988442E3DB05EB35
:1007E000490508F1010805988045DADB51E0FFE78B
:1007F00000200290288804903078FD2801DB5046C4
:1008000003E0307800FB0AF0000A0190019A049995
:100810000A98B84703904FF0000836E000242BE018
:10082000305D00B927E0315D0298814205D1BDF805
:10083000100035F81410884217D0305DFD2801DB18
:10084000504603E0305D00FB0AF0000A019005EB22
:100850004400008800900146019A0A98B847039026
:10086000305D029035F81400049005EB4400BDF8AB
:100870000C10018000BF641C06988442D0DB05EB9D
:1008800049051698064408F1010805988045C5DB1E
:1008900000BF00BF74E700004D77000879780008BA
:1008A000EF7700082DE9FF4F89B004469246DDE955
:1008B0001685F4F737FA08900A9809F03AFB814652
:1008C0000A9809F0B5FA8346002D78D1B8F1FD0FEA
:1008D0000CDB002707E04A4620460C990BF0B8FADB
:1008E00004EB4A047F1C5F45F5DB7DE100BF00207F
:1008F000014602464FEAD20CBDF804306CF3040303
:100900004FEA910C0193BDF804306CF34A134FEA9F
:10091000D00C0193BDF804306CF3CF230193BDF8E4
:1009200004C063460293BDF808100846079042468B
:1009300007990C980BF012FC06900C9904A80291F0
:10094000BDF80810C90A01FB08F10180BDF80810C4
:10095000C1F3451101FB08F14180BDF8081001F019
:100960001F0101FB08F1818000BFC8F1FF00039067
:10097000002720E0002619E0BDF81C0034F816100E
:1009800088420DD004EB46000088079004EB460037
:1009900000880290014604A8039A0BF067FC0690B9
:1009A00004EB4600BDF818100180761C4E45E3DBD1
:1009B00004EB4A047F1C5F45DCDB15E1FFE7BDF873
:1009C000300000EB00400790B8F1FD0F6FDBA9F19C
:1009D000040006900027B4E0002614E02878FF28E1
:1009E00003D1BDF8300020800AE02A782088014633
:1009F00004900C980BF0B2FB0590BDF81400208019
:100A00006D1CA41C761C4E4503DA05F0030000287B
:100A1000E4D172E0286805900598401CA8B904F05C
:100A2000030048B1BDF830102180A01C0799016077
:100A3000BDF83010E18005E0204607990160079974
:100A4000416000BF08342D1D56E00598002851D0A4
:100A50002878FF2803D1BDF8300020800AE02A78EA
:100A60002088014603900C980BF078FB0490BDF8A9
:100A7000100020806D1CA41C2878FF2803D1BDF82D
:100A8000300020800AE02A782088014603900C98E4
:100A90000BF064FB0490BDF8100020806D1CA41CBA
:100AA0002878FF2804D1BDF8300020800BE04CE00E
:100AB0002A782088014603900C980BF04FFB049095
:100AC000BDF8100020806D1CA41C2878FF2803D1DD
:100AD000BDF8300020800AE02A7820880146039083
:100AE0000C980BF03BFB0490BDF8100020806D1CAF
:100AF000A41C01E02D1D0834361D0698864289DDB0
:100B000014E02878FF2803D1BDF8300020800AE0E7
:100B10002A782088014604900C980BF01FFB059062
:100B2000BDF8140020806D1CA41C761C4E45E8DB2B
:100B3000AAEB090004EB40041898A0EB0900054457
:100B40007F1C5F45FFF648AF4DE0002004902088F1
:100B500006902088059000200390002740E00026A2
:100B600035E0287888B329780498814209D028781C
:100B7000FF2801D1404603E0287800FB08F0000A76
:100B8000039029780498814205D1BDF8180034F803
:100B90001610884214D00398FF2802D10C980590B3
:100BA00009E004EB4600008802900146039A0C9885
:100BB0000BF0D4FA05902878049034F816000690CB
:100BC00004EB4600BDF8141001806D1C761C4E45E8
:100BD000C7DB04EB4A041898A0EB090005447F1C0E
:100BE0005F45BCDB00BF00BF0DB0BDE8F08F2DE955
:100BF000FF4F85B081460C46DDE912A7F4F792F865
:100C0000804607BBB4F9026018E0B4F9005010E068
:100C1000CDF808A0BDF82000ADF8040030B2009077
:100C2000D8F800002BB2D0F81CC04946079AE0471C
:100C30006D1CB4F90400A842EADA761CB4F9060087
:100C4000B042E2DA2EE0204609F073F983462046EE
:100C500009F0EEF80490002620E0002519E0785D08
:100C6000B0B1785D00FB0AF0000A0290BDF82000E8
:100C7000ADF804006088304400B200902188294417
:100C80000BB2D8F80000D0F81CC04946079AE047DC
:100C90006D1C5D45E3DB14980744761C049886427E
:100CA000DBDB00BF09B0BDE8F08F10B502460B4694
:100CB00010681C68A04201D1012010BD0020FCE793
:100CC00010B502460B46506820F040401C68A04218
:100CD00003D2506820F040401860002010BD2DE97C
:100CE000F04F89B0044600200890079011F014FDE1
:100CF000069006980068057ED4F820800027B94643
:100D0000B4F91400002802DDB4F9140002E0B4F9CB
:100D100014004042B4F91610002902DDB4F916108F
:100D200002E0B4F916104942884201DD012701E0D2
:100D30004FF00109CAE01021404617F095FCB0B908
:100D40004FF48071404617F08FFC08B907B1C1E03D
:100D50004FF40071404617F087FC18B9B9F1000F45
:100D600000D0B7E0404615F0D7FE8046AEE0CA4658
:100D7000CDF814900497BB46404615F045FF064653
:100D800006F0010008B90020049006F0020008B93E
:100D90004FF0000B06F0040008B94FF0000A06F00F
:100DA000080008B900200590404616F055F8039059
:100DB000404615F0C9FE0290404615F053FF0190E1
:100DC000404615F0C7FF00900398002802DC029807
:100DD000002811DDBAF1000F03D0B4F91600A842C3
:100DE00006DA059840B1B4F916006942884203DC7E
:100DF000CDF820800C2007900198002802DC009894
:100E0000002811DD049818B1B4F91400A84207DADB
:100E1000BBF1000F08D0B4F914006942884203DC2A
:100E2000CDF82080032007900398002801DC4FF0C4
:100E3000000A0298002801DC002005900198002893
:100E400001DC002004900098002801DC4FF0000B2A
:100E5000049818B1B4F91400A84215DABBF1000FD8
:100E600004D0B4F91400694288420DDDBAF1000FD4
:100E700003D0B4F91600A84206DA059878B1B4F99F
:100E80001600694288420ADC0FB1032000E00C2002
:100E900094F83C1060F3030184F83C101AE04FF41E
:100EA0008071404617F0E0FB08B907B112E04FF43B
:100EB0000071404617F0D8FB18B9B9F1000F00D007
:100EC00008E0404615F028FE804600BFB8F1000F4C
:100ED0007FF431AF00BF089858B194F83C100798E0
:100EE00060F3030184F83C100898A0620021A182FD
:100EF000E182089809B0BDE8F08F00002DE9FF4FAE
:100F000083B00446204615F093FF0290029818B96A
:100F1000002007B0BDE8F08F41F6FF7500212046A4
:100F200016F0FCFE07460021204616F0A0FF824680
:100F3000204615F0AAFC83464FF000086AE0A0683E
:100F4000006850F828603949304617F098FB00B126
:100F50005EE04FF48051304617F086FB002856D0F3
:100F60004FF00009002001900298012804D00228C7
:100F700009D003282CD10EE0B6F91490A08A384489
:100F800000B2019025E0B6F91890208BA0EB0A0082
:100F900000B201901DE006F1140008F0A0FF0090DF
:100FA00000EBD070B18A01EB60000FFA80F904F118
:100FB000140008F094FFC01BA0EB0A00009000EBA7
:100FC000D070A18A394401EB600000B2019000E0CA
:100FD0001EE000BF069848440FFA80F90498814546
:100FE00014DB0598814511DC0199A9EB010108B2D8
:100FF000002801DD014600E04142002D01DD2A46C6
:1010000000E06A42914200DA054600BF00BF00BF1F
:1010100008F10108D84592D341F6FF70854201D10D
:10102000002000E0684200B273E700000100040005
:101030002DE9FF4F83B00446204615F003FF0290D0
:10104000029818B9002007B0BDE8F08F41F6FF758F
:101050000021204616F0CEFF07460021204616F05C
:1010600080FD8246204615F010FC83464FF00008B4
:101070006AE0A068006850F828603949304617F0E7
:10108000FEFA00B15EE04FF48051304617F0ECFA02
:10109000002856D04FF00009002001900298012846
:1010A00004D0022809D003282CD10EE0B6F91690FE
:1010B000E08A384400B2019025E0B6F91A90608BBE
:1010C000A0EB0A0000B201901DE006F1140008F048
:1010D00093FE009000EBD0704110F08A08440FFAA4
:1010E00080F904F1140008F087FEC01BA0EB0A0091
:1010F000009000EBD0704110E08A3844084400B200
:10110000019000E01EE000BF069848440FFA80F905
:101110000498814514DB0598814511DC0199A9EB00
:10112000010108B2002801DD014600E04142002D26
:1011300001DD2A4600E06A42914200DA054600BF1E
:1011400000BF00BF08F10108D84592D341F6FF70F7
:10115000854201D1002000E0684200B273E7000040
:10116000010004002DE9FF4F87B00E469046DDE9EF
:1011700014940021079817F0CCF9069000210798E5
:1011800016F039FC0590F078C0F34000A8B1F07873
:1011900000F0010020B142F2D1710698884208D0D7
:1011A000F07800F0010040B942F2D1710598884210
:1011B00003D1F07820F00200F070F07800F0010028
:1011C00008B1964800E096480490F07800F00100DD
:1011D00008B9924800E09248824600206080A080D2
:1011E00020612080A060E060CDF80C800399079812
:1011F00015F02DFB0546E0E00398404506D04FF47E
:101200000001284617F030FA00B1D9E08549284698
:1012100017F035FA00287CD10021284616F0CEFBC5
:1012200002900298002875D02069401C2061A08897
:10123000484400B2A080207D00F0010000286AD060
:10124000216901EB8101880013F022FA074600BFF3
:101250001FB900BF00BF00BFFEE700BF1FB9039862
:101260000BB0BDE8F08FE06858B12069401E00EB7C
:10127000800082003846E16813F025FBE06813F037
:1012800083FA2069401E00EB800047F82050F07878
:1012900000F0010058B14FF0000B41F20202594634
:1012A000284616F05DFF0190019800B20BE04FF068
:1012B000000B41F205025946284616F051FF0190F5
:1012C000019800B200BF2169491E01EB810107EBC3
:1012D00081018880F07800F0010058B14FF0000BD8
:1012E00041F203025946284616F03AFF0190019850
:1012F00000B20BE04FF0000B41F2060259462846BF
:1013000016F02EFF0190019800B200BF2169491E1E
:1013100002E03EE017E02CE001EB810107EB8101E8
:10132000C88002982169491E01EB810107EB810108
:10133000C86000212069401E00EB800007EB8000A0
:101340000161E76015E02846049988470746F07870
:10135000C0F3400030B1B4F90400C1190A988142C9
:1013600000DD2DE0A08807EB0901084400B2A08051
:1013700000BF2846D047B4F90010884202DD284655
:10138000D04701E0B4F900002080A068401CA060B4
:1013900000BFF078C0F3800010B14FF0FF3000E0E4
:1013A00001200399084403900398002800DA07E01D
:1013B0000399079815F04BFA0546002D7FF41CAFF2
:1013C00000BFB4F90400002804DDA088A0EB0900E8
:1013D00000B2A080206908B10A9801E0B4F90400C5
:1013E0006080CDB10398404516D1079880680068A9
:1013F000039950F82150F078C0F3800103AA0798B0
:1014000001F00FFA45B12846D047208028460499BC
:10141000884760800120A060039821E7AF8502081B
:10142000796A0208010006002DE9F04F97B00446E2
:1014300000BF00BF4FF0000BDE480288594620462F
:1014400016F08EFE0A900A98C6B200BFF0439DF8CF
:101450005B1060F300018DF85B10B0089DF85B1025
:1014600060F341018DF85B10F0089DF85B1060F3AC
:1014700082018DF85B1000BFCF4802885946204694
:1014800016F06EFE0A900A98C0B28DF8580000BFA0
:10149000CA4802885946204616F062FE0A900A9809
:1014A000C0B28DF8590000BFC54802885946204691
:1014B00016F056FE0A900A98C0B28DF85A00002124
:1014C000204616F0AAF9012800D100E0002015906E
:1014D0009DF85B0000F0010020B90021204616F0C5
:1014E000DCFB03E00021204616F05DFD14909DF822
:1014F0005B0000F0010020B10021204616F0CDFB7A
:1015000003E00021204616F04EFD13909DF85B008D
:1015100000F0010018B1204615F039FA02E020462B
:1015200015F016FA12904FF0000B41F232025946B4
:10153000204616F015FE0A900A9800B2119000BFDE
:1015400041F610025946204616F00AFE0A900A9803
:10155000E18A0144119801EB000B204615F090FC44
:10156000ABEB000000B210904FF0000B41F61202FE
:101570005946204616F0F4FD0A900A98A18A0144C3
:10158000119801EB000B204615F070FCABEB00004E
:1015900000B20F909DF85A709DF85B0000F00100BA
:1015A00008B110A800E00FA805460021204616F05B
:1015B000B0FF0E900021204616F01DFA0D909DF808
:1015C0005B0000F0010040B142F2D1710D988842F9
:1015D00003D1608CC0F3402068B19DF85B0000F03F
:1015E000010048B942F2D1710E98884204D1608C52
:1015F000C0F3802000B90027159850B19DF85B001A
:1016000000F0010028B90FB9012702E0012F00D135
:1016100000274FF0000800200C900B90002F49D0BD
:101620009DF85B00C0F3800018B1A0684068401EC0
:1016300000E00020814617E000200A9005A91398D9
:10164000CDE900014A4616A92046129BFFF78AFD04
:101650008246BDF814101498084440440FFA80F8EC
:101660000B98401C0B90D146A0684068484502DDAD
:10167000B9F1000FE0DA0B9820B11498A8EB000044
:101680000FFA80F89DF85B0000F0010018B12046C9
:1016900015F05EF902E0204615F079F983460CA8B2
:1016A000CDE900500B9803B24246594638461EF029
:1016B0000AF900BF9DF85B00C0F3800018B1A06874
:1016C0004068401E00E000208146159840B19DF81A
:1016D0005B0000F0010018B92888404400B228805F
:1016E0004DE001200A9005A91398CDE900014A4672
:1016F00016A92046129BFFF735FD8246159850B17A
:101700009DF85B0000F0010028B92888BDF814108E
:10171000401A00B2288005AABDF94030DDE9121058
:10172000CDE90131CDE90302BDF93C0053464A46FB
:1017300016A900902046F5F78FFBD146089813F0C4
:1017400023F800200890159868B19DF85B0000F020
:10175000010040B92988BDF8302014981044081AB7
:1017600000B228800AE02988BDF81400BDF83020B6
:10177000024414981044084400B2288000BFA068B6
:101780004068484502DDB9F1000FAADA42F2D17192
:101790000E98884202D00D98884202D1204617F058
:1017A000DAFE00222B2120460EF016FF17B0BDE80E
:1017B000F08F0000680100206A0100206C01002009
:1017C0006E0100202DE9FC5F044689469246207E8A
:1017D00000F0010008B1BDE8FC9FE56800264FF06D
:1017E000010B0120019000BF85B9207EC0F3C0002D
:1017F00000B956B9019800B9EDE72046C84705463B
:101800004FF0000B0020019000E0E4E716B92E46EF
:1018100006B9E0E7BBF1000F06D029462046D047C5
:101820000546B54200D1D6E74FF0010B05B9DBE71D
:10183000286815F085FF00F0800000B1D4E72F681C
:1018400009E00121384616F00FFF00B105E03846E7
:1018500015F062F90746002FF3D100BF2FB1012127
:10186000384616F001FF00B1BEE700BF00BFE068D8
:10187000A84200D1AFE7E06890B1204600F007FD34
:101880000090E16808680F21009A0EF0A5FE074657
:10189000012F00D09FE7E168086817F082FA00BFC7
:1018A000E560204600F0F3FC0746E1683A46086828
:1018B0000E210EF091FE8046B8F1010F00D08AE7AC
:1018C000E168086817F06DFA206910B120462169B7
:1018D000884700BF7FE7000000BF054A126802F09A
:1018E0004002002AF9D0C2B2014B1B1D1A6070479A
:1018F000003801402DE9F0410446204600F010FB7D
:10190000054611480068001B461B0F480068401B35
:101910000D490860B6B1274661193246204612F0DB
:10192000D2FF06E0A068401BA060204600F0F8FA55
:101930000444054800688442F4D1B819294613F0DC
:1019400050F900BFBDE8F0815401002000B587B018
:1019500000BF00BF4548806940F08000434988616E
:101960000846806900F08000019000BF00BF00BF02
:1019700000BF00BF0846806940F0800088610846CB
:10198000806900F08000019000BF00BF00BFC81454
:1019900003900120049005900320069003A9344889
:1019A000F0F7F4F84FF480600390002004900120D9
:1019B00005900320069003A92D48F0F7E7F8F6F705
:1019C00065F800BF00224FF400612948F0F790FA53
:1019D00000BF1420F6F73AFB00BF0122D1022448D1
:1019E000F0F786FA00BF3220F6F730FB00208DF8C2
:1019F0000800012202A900F03FF9012202A9A42057
:101A000000F03AF916208DF80800012202A9802082
:101A100000F032F90C208DF80800012202A988207C
:101A200000F02AF9022202A9A12000F029F89DF86D
:101A30000800302803D19DF80900032807D09DF83D
:101A40000900012803D09DF8090002280BD19DF858
:101A500009009DF8082000EB022106A0EEF7D0FC5B
:101A6000002007B000BD0120FBE70000001002408D
:101A7000001C01404354502049443A25780D0A0087
:101A80002DE9F04106460F461546F6F7C9F87020D5
:101A9000F6F78EF8F6F710F9F0B2F6F789F8F6F7E0
:101AA0000BF9F6F7BDF87120F6F782F8F6F704F9AE
:101AB00000240BE0691EA14201D0012100E00021B9
:101AC0000846F6F743F83855601CC4B2AC42F1DB67
:101AD000F6F7D0F8BDE8F0812DE9FC41074600207B
:101AE00001900024002660480078401C5E49087080
:101AF000084600780A2190FBF1F201FB120018B1B0
:101B0000594800780A2866DA012201A90220FFF765
:101B1000B7FF9DF8040000F00F0000287ED09DF86C
:101B2000040000F00F00062878DA9DF8040000F0A9
:101B30000F014FF6FF70884085B2E84380B240F451
:101B400040404A49888600245AE04848808E012156
:101B5000A1400840F0B3464931F814000422694618
:101B6000FFF78EFF414890F8440000F00100C0B13B
:101B70009DF801009DF8001001F00F0100EB01201D
:101B80003A49203121F814009DF803009DF8021015
:101B900001F00F0100EB012134480C3020F8141043
:101BA0001EE09DF801009DF8001001F00F0100EB10
:101BB000012030490988081A81B22C480C3020F8DD
:101BC00014109DF803009DF8021001F00F0100EBC6
:101BD000012001E012E021E02449203121F8140025
:101BE0009DF8000000F0F000802807D000211F4879
:101BF000203020F81410143820F81410601CC4B2DF
