:020000040800F2
:1000000030DE01205503000831440008673F000836
:100010002D440008CD1C00084D56000800000000CB
:100020000000000000000000000000009502000831
:10003000D11C000800000000F1020008C9510008AE
:1000400079030008790300087903000879030008A0
:100050007903000879030008790300087903000890
:100060007903000879030008790300087903000880
:100070007903000879030008790300087903000870
:100080007903000879030008790300087903000860
:100090007903000879030008790300087903000850
:1000A0007903000879030008790300087903000840
:1000B0007903000879030008790300087903000830
:1000C0007903000879030008790300087903000820
:1000D00079030008FD55000879030008790300083A
:1000E0007903000879030008790300087903000800
:1000F00079030008790300087903000879030008F0
:1001000079030008790300087903000879030008DF
:100110007903000879030008F15100087903000809
:1001200079030008790300087903000879030008BF
:1001300079030008790300087903000879030008AF
:10014000790300087903000879030008790300089F
:10015000790300087903000879030008790300088F
:10016000790300087903000879030008790300087F
:1001700079030008790300087903000800000000F3
:10018000790300087903000800F002F800F072F823
:100190000AA090E8000C82448344AAF10107DA45E2
:1001A00001D100F067F8AFF2090EBAE80F0013F0C2
:1001B000010F18BFFB1A43F001031847F04A07006C
:1001C000104B07000A444FF0000C10F8013B13F0ED
:1001D000070408BF10F8014B1D1108BF10F8015BA0
:1001E000641E05D010F8016B641E01F8016BF9D193
:1001F00013F0080F1EBF10F8014BAD1C0C1B09D1EA
:100200006D1E58BF01F801CBFAD505E014F8016B5B
:1002100001F8016B6D1EF9D59142D6D370470000ED
:100220000023002400250026103A28BF78C1FBD8FF
:10023000520728BF30C148BF0B607047662902F0E3
:10024000E6A1642900F09281782900F0CB8173291E
:1002500000F01187002070471FB542F0D3F900F07D
:1002600021FF04000020002141F07EFEE0601FBD60
:1002700010B510BD00F0D4FF1146FFF7EDFF36F0CA
:100280000BFE00F0F2FF03B4FFF7F2FF03BC07F030
:100290002FFB00002C4B19680868B0E8F04F80F382
:1002A0000988BFF36F8F4FF0000080F3118870470B
:1002B0000000000008480068006880F308884FF0DC
:1002C000000080F3148862B661B6BFF34F8FBFF3AE
:1002D0006F8F00DF00BF00BF08ED00E0DFF80C000B
:1002E000016841F470010160704700BF88ED00E0D3
:1002F000EFF30980BFF36F8F134B1A681EF0100FD6
:1003000008BF20ED108A20E9F04F106009B44FF0CB
:10031000500080F31188BFF34F8FBFF36F8F40F011
:10032000D9FD4FF0000080F3118809BC19680868F6
:10033000B0E8F04F1EF0100F08BFB0EC108A80F349
:100340000988BFF36F8F7047A4000020EFF305808A
:10035000704700000C48016841F4700101600B48CF
:1003600080470B480047FEE7FEE7FEE7FEE7FEE7B3
:10037000FEE7FEE7FEE7FEE7FEE700000548064968
:10038000044A064B7047000088ED00E0DD5100088C
:100390008901000830CE012030DE012030CE01205E
:1003A000704753EA020C00F069802DE9F04B4FF0E2
:1003B0000006002B1FBFB3FA83F503FA05F424FAF5
:1003C00005F65E4012BF1643B2FA82F502FA05F452
:1003D000C5F120051EBF22FA05FC44EA0C042035B5
:1003E00056EA044C4FEA144418BF641C4FF000084E
:1003F0004FF00009904271EB030C39D3002919BF6B
:10040000B1FA81F701FA07F6B0FA80F700FA07F6B9
:10041000C7F120071EBF20FA07FC46EA0C0620376A
:10042000B6FBF4FCA7EB0507103F07F01F0BCBF161
:1004300020060CFA0BFB2CFA06F644BFB346002646
:10044000202FA4BF5E464FF0000B5BEA060C08BFEE
:100450004FF0010B19EB0B09ABFB027C48EB0608D4
:10046000C01B06FB02CC0BFB03CC71EB0C01C1E7FC
:100470000B46024641464846BDE8F08B13B54FF0A7
:1004800000004FF00001AFF30080BDE81C40704752
:1004900010B54C1084EA530404D54042C1F1000168
:1004A00038BF491E1B4204D55242C3F1000338BF76
:1004B0005B1EFFF776FF14F0804F04D04042C1F17D
:1004C000000138BF491E14F0004F04D05242C3F15E
:1004D000000338BF5B1E10BD0FB4044910B503AA5A
:1004E000029800F0CDFD10BC5DF814FB1400002054
:1004F0000FB41CB5074B06AA7B44694600900598CB
:1005000000F08FFD0020694600F09EFD1CBC5DF8E8
:1005100014FB00004D0B000070B50C460546012A87
:1005200005D02878800600D5EA69002302E001237F
:1005300005E05B1C934202D2E05C0028F9D1A86977
:10054000E618C01AA861286A184428622846AFF342
:10055000008004E0D5E9012114F8010B9047B44272
:10056000F8D32846AFF3008070BD00002DE9F041BC
:100570000646002410687529314616A510D0AFF341
:100580000080002802DA404213A507E031688A079C
:1005900001D512A502E0490704D511A5012401E007
:1005A000AFF3008000210A2206F1240709E0B0FB26
:1005B000F2FCB0FBF2F302FB1C003030785418461A
:1005C000491C0028F3D123462A463046BDE8F041B5
:1005D00000F0B9BA000000002D0000002B00000060
:1005E0002000000070B504460D4621461068AFF3A8
:1005F00000802188090502D50F4A7A4402E00E4A9C
:100600007A440E32002104F1240305E000F00F06C5
:100610000009965D5E54491C0028F7D1207800231C
:10062000000704D5702D02D009B1022311322046F3
:10063000BDE8704000F087BA404007002DE9F05F48
:10064000894604464FF0000ADFF874B1FB44C0F855
:1006500020A02046E1688847002874D0252806D0CD
:10066000D4E901219047206A401C2062F1E700266E
:100670005F462046E16888472028054607DB312D84
:1006800005D2781910F8200C08B10643F1E7B0073D
:1006900001D526F00406C4F81CA00027C4F818A051
:1006A0002A2D09D0284605F025F838B304EB870831
:1006B000303DC8F8185019E059F8041B204604EBE7
:1006C00087029161E1688847012F054618D1E069EA
:1006D000002820DA26F020061DE0D8F8180000EBEC
:1006E000800005EB40003038C8F818002046E1686B
:1006F0008847054604F0FEFF0028EED1012F0AD0FE
:100700002E2D08D12046E16888477F1C0546022F20
:1007100046F02006C4DBA069002803DA404246F018
:100720000106A061F00701D026F010066C2D0BD059
:10073000682D09D04C2D39D06A2D35D0742D35D087
:100740007A2D33D016E038E0E1682F4620468847FE
:10075000B842054609D16C2F26D04FF48060E1687D
:10076000064320468847054604E06C2F1AD04FF414
:10077000807006430DB3A5F14100192802D8203539
:1007800046F400664A462946204626604E46FFF754
:1007900055FD80B101280BD0F61D26F0070000F1B1
:1007A000080956E74020E4E78020D8E70020D6E794
:1007B00006F104094DE7284652E7206ABDE8F09F9C
:1007C0001640070040EA010310B59B070FD1042A29
:1007D0000DD310C808C9121F9C42F8D020BA19BA0C
:1007E000884201D9012010BD4FF0FF3010BD1AB171
:1007F000D30703D0521C07E0002010BD10F8013BC6
:1008000011F8014B1B1B07D110F8013B11F8014BEC
:100810001B1B01D1921EF1D1184610BD40EA010305
:10082000024630B59B0710D14FF0013400E008C2FA
:1008300008C91D1B9D4315EAC41FF8D013F0FF0122
:1008400002F8011B0DD01B0AF8E711F8013B002B41
:1008500002F8013B05D011F8013B002B02F8013BE7
:10086000F3D130BD10B5431C02E010F8011B71B18B
:100870008107FAD14FF0013202C88C1A8C4314EA76
:10088000C211F9D0C01A0A0603D0C01E10BDC01A8A
:1008900010BD0A0401D0801E10BD0902FCD0401E0C
:1008A00010BD032A40F2308010F0030C00F01580D8
:1008B00011F8013BBCF1020F624498BF11F801CB63
:1008C00000F8013B38BF11F8013BA2F1040298BFC8
:1008D00000F801CB38BF00F8013B11F0030300F032
:1008E0002580083AC0F0088051F8043B083A51F8D6
:1008F00004CBA0E80810F5E7121D5CBF51F8043BDB
:1009000040F8043BAFF30080D20724BF11F8013B4D
:1009100011F801CB48BF11F8012B24BF00F8013BAF
:1009200000F801CB48BF00F8012B704710B5203A02
:10093000C0F00B80B1E81850203AA0E81850B1E898
:100940001850A0E81850BFF4F5AF5FEA027C24BF4E
:10095000B1E81850A0E8185044BF18C918C0BDE845
:1009600010405FEA827C24BF51F8043B40F8043B0E
:1009700008BF7047D20728BF31F8023B48BF11F8C3
:10098000012B28BF20F8023B48BF00F8012B70471D
:1009900002F0FF0343EA032242EA024200F002B8F7
:1009A0004FF000020429C0F0128010F0030C00F098
:1009B0001B80CCF1040CBCF1020F18BF00F8012B16
:1009C000A8BF20F8022BA1EB0C0100F00DB85FEAE4
:1009D000C17C24BF00F8012B00F8012B48BF00F8B0
:1009E000012B70474FF0000200B51346944696461F
:1009F000203922BFA0E80C50A0E80C50B1F1200132
:100A0000BFF4F7AF090728BFA0E80C5048BF0CC0DF
:100A10005DF804EB890028BF40F8042B08BF70473D
:100A200048BF20F8022B11F0804F18BF00F8012BAF
:100A3000704700004FF0013C50F8042B51F8043B84
:100A40009A4221D1A2EB0C03934313EACC1317D1A2
:100A500050F8042B51F8043B9A4215D1A2EB0C0339
:100A6000934313EACC130BD150F8042B51F8043BF9
:100A70009A4209D1A2EB0C03934313EACC13DBD0C7
:100A80004FF00000704700BFD01A01BAB1FA81F1EF
:100A900001F0180122FA01F0CB40C1F12001DBB2D4
:100AA000C0B2C01A2CFA01F3D11A914311EAC31152
:100AB000E6D17047704770477047704730B5B0F166
:100AC0000A024FEA900E71F100034EEA817EB0EB0C
:100AD0000E0061EB91014FEA101E4EEA017E10EB11
:100AE0000E0041EB11114FEA102E4EEA016E10EB91
:100AF0000E0041EB11214FEA104E4EEA014E10EB71
:100B00000E0041EB1141401841F100014FEAD000C5
:100B100040EA41704FEAD10110EB80054FEA8104B1
:100B200044EA907444EB01046D1944EB0404521B35
:100B3000A3414FF0000348BF0A3200D530BD401C2E
:100B400041F1000130BD2DE9F0470D46994692462E
:100B5000044600F124080168880604D5E06921F004
:100B60001001216000E00120A84201DD471B00E0E8
:100B70000027A1697A1902EB0900081AA061207800
:100B8000C00602D42046AFF30080002608E0D4E976
:100B900001211AF806009047206A401C761C20624A
:100BA0004E45F4DB2078C0060AD52046AFF300801E
:100BB00006E0D4E9012130209047206A401C2062E1
:100BC000381EA7F10107F4DC07E0D4E9012118F889
:100BD00005009047206A401C2062281EA5F10105EF
:100BE000F3DC2046AFF300802078000602D5022017
:100BF000BDE8F0870120FBE770472DE9FF4F0C4669
:100C00001E464FF0FF378BB0D2E90001DDF860805F
:100C10000A908A46C1F30A5505B93D4600210846A7
:100C20004FF00000BAF1000F00F4400005DA00EBCD
:100C300080004FF4400101EA50004FEA9059B9F1A9
:100C4000010F00DDB9460A9850EA4A000ED044F67A
:100C50001050A5F2FF3545432F14B8F1000F1ED0F8
:100C60007542291E1EDDC9F100021CE0B8F1010F1A
:100C70004FF0000001D0302103E0F24305E02154A1
:100C8000401CB042FBDB30460022002121540B996E
:100C9000C1F80880C1E900200FB0BDE8F08FBD1B8E
:100CA0006D1CDEE74A4600DA694206A800F03EFA0B
:100CB00006AB93E8070003AB83E8070050460A99A8
:100CC00000F0DCFA8DE80700A0F500501F38009016
:100CD0000398002D0ADD42F21F014A460844002312
:100CE00003A90390684600F045FD09E0A0F5005017
:100CF0004A461F38002303A90390684600F04FFDC1
:100D00008DE807000004000C03D04FF0FF304108CD
:100D100000E01046B8F1000F03D000220092154603
:100D20001EE0751E05D4FFF7C9FE303262556D1EF8
:100D3000F9D5B3460122084302D000227F1C04E00B
:100D40002078302801D100227F1E002A099784D004
:100D50001DE0112D07DAFFF7B1FE303262556D1C30
:100D600050EA0102F5D1084302D00098C8B10EE064
:100D70000021681E05E0235C625C63542254401E1F
:100D8000491C8142F7DBAB46A81B401E099000209E
:100D900004F80B000B98099AC0F80880C0E9002BF2
:100DA0007AE711264FF0000857E72DE9F04F884603
:100DB0000446D21D22F0070191B0D1E90001CDE92E
:100DC0000A0104F045FC02460B98C00F01D02D200B
:100DD00007E02068810701D52B2002E0202101EAED
:100DE000C000032A099001D0072A05DB03464146CB
:100DF000204600F05BF90BE12078800601D5E06920
:100E000000E00620B8F1650F814606D0B8F1660F04
:100E100018D0B8F1670F70D131E00020B9F1110F8F
:100E2000009001DB112301E009F101030AAA01A9E5
:100E30000CA8FFF7E2FEDDE90C70002609F10105C0
:100E4000834647E001204B4600904FF000470AAA36
:100E500001A90CA8FFF7D1FEDDE90DB00C995D46A4
:100E6000002610B909F101000D18B9EB050003D4F3
:100E7000C0F1FF3609F10105A5EB09002BE0B9F13E
:100E8000010F01DA4FF001090020B9F1110F0090B4
:100E9000484601DD112300E003460AAA01A90CA877
:100EA000FFF7ABFEDDE90C704D4600268346207847
:100EB00000070AD4AB4500DA5D4601A8012D04DD28
:100EC000411911F8011C302907D04F4502DA17F1FA
:100ED000040F04DA012082460FE06D1EEEE7002FBA
:100EE00002DCED1B3E4403E0781CA84200DD7D1CC3
:100EF000B81B00F1010A4FF000472078000703D427
:100F0000AA4501DB4FF0FF3A0021B7F1004F0DF188
:100F100043088DF8431024D002202B23002F01DA40
:100F20007F422D230A21021EA0F1010000DC5FB1E7
:100F300097FBF1FC97FBF1F201FB1C7C17460CF1CF
:100F4000300C08F801CDEEE7A8F10100037021880C
:100F5000090501D5452100E06521A0F1010800F84F
:100F6000011C09980FA9A1EB0807FF1D00B1012082
:100F7000411901EBEA70A1693844081A401EA061CA
:100F80002078C00602D42046AFF30080099828B12B
:100F9000D4E901219047206A401C20622078C006D5
:100FA00022D52046AFF300801EE0002E04DBB345BF
:100FB00002DD01A8805D00E03020D4E901219047E6
:100FC000206A401C2062761CAAF101005FEA000A38
:100FD0000AD100F067F8C0680168405CD4E90121DB
:100FE0009047206A401C2062281EA5F10105DCDC28
:100FF00007E0D4E9012118F8010B9047206A401C52
:101000002062381EA7F10107F3DC2046AFF3008011
:10101000032011B041E6000001694A1C0261087812
:10102000704700B58FB0CDE9013100210591054928
:101030007944CDE9031011466846FFF7FFFA0FB077
:1010400000BD0000E5FFFFFF0A6802F8010B0A601F
:10105000704710B5436913B1AFF3008001E0FFF7AB
:101060005BFA012010BD127800F124010A70002201
:101070004A700122EDE711684FF0FF32E9E7000006
:10108000074B70B50D467B44FFF7CBFF044628465F
:1010900000F0BEF810B14FF0FF3070BD204670BDBB
:1010A000475F010000487047F0CD01202DE9F04175
:1010B0001F46044603260168072A01F4006004DB8A
:1010C00008B116A505E016A503E008B115A500E0D6
:1010D00015A521F010002060A069C01EA0610FB10D
:1010E000401EA0612046AFF300804FB1D4E901213A
:1010F00038469047206A401C2062C01C206206E0EF
:10110000206AFAE7D4E9012115F8010B9047761E11
:10111000F8D22046AFF30080BDE8F0814E414E008A
:101120006E616E00494E4600696E66002DE9F0471B
:10113000814616468AB0354878440DC88DE80D00C2
:1011400032487844801C03AC0DC884E80D0041F699
:101150009B300844372190FBF1F290FBF1F5A5F1AB
:10116000800501FB12041B3C02D56442012000E013
:101170000020DFF898A080460027FA44AAF1BE0AB2
:101180000EE0E0070AD03246684607EB470101232C
:101190000AEB810100F003FB8DE8070064107F1C5F
:1011A000002CEED1194F7F44AE3F19E0E80715D06F
:1011B00007EB04100DF1180A90E80E008AE80E0003
:1011C000C068F04201D1981908903246012306A95F
:1011D00003A800F0E4FA03AB83E807006D10641C79
:1011E000002DE3D14FF0010332466946B8F1000FFC
:1011F00003A802D000F0BEFA01E000F0D0FAC9E97D
:101200000001C9F808200AB0BDE8F087B83507002A
:10121000007B00F08000704700487047D0CD01206F
:101220007546FFF7F9FFAE4605006946534620F0C4
:101230000700854618B020B5FFF7A0F8BDE82040AC
:101240004FF000064FF000074FF000084FF0000B82
:1012500021F00701AC46ACE8C009ACE8C009ACE835
:10126000C009ACE8C0098D46704710B50446AFF31D
:1012700000802046BDE81040FFF705B85FEA400C4B
:1012800008BF91F0000F4FEA8C234FEAC12243EAD6
:1012900051514FEA1C5018BF00F5F0404FEA3000A2
:1012A00018BF41F000415FEA6C5C00F02980BCF19E
:1012B000FF3F08BF40F080407047130C06BF120488
:1012C0004FF0100C4FF0000C130E04BF12020CF183
:1012D000080C130F04BF12010CF1040C930F04BF90
:1012E00092000CF1020CD30F04BF52000CF1010C60
:1012F00011464FF00002A0F11F00A0EB0C00704758
:1013000011F0004F08BF704731F000413FF4D5AFF6
:101310000B0C06BF09044FF0100C4FF0000C0B0E25
:1013200004BF09020CF1080C0B0F04BF09010CF1FA
:10133000040C8B0F04BF89000CF1020CCB0F04BF0F
:1013400049000CF1010CCCF12003A0EB0C0022FAB7
:1013500003F302FA0CF241EA030100F101007047C5
:1013600020F07F4C80EA030023F07F47ACEB0703BB
:1013700003F57C5300F0004003F1FF032DE98049A1
:101380004FEA154B09B44FEA144325EA0B4E24EA01
:1013900003480FF2042606EB132749083E785FEA5C
:1013A000320203FB0667C7F5000707FB06F64FEAA4
:1013B00054374FEAD64606F1020607FB066CCCF11D
:1013C000005C4FEA1C472CEA074C07FB06F40CFBB9
:1013D00006F504EB15464FEA961634BF00204FF091
:1013E00000404FEAD13706FB07FC4FEA1C4C0CFBD0
:1013F0000BF7D21B03FB0CF761EB07010CFB0EF79D
:10140000B0EB074072EB17420CFB08F734BFA2EBBE
:101410000742B2EB074261EB17414FEA0C444FEA37
:10142000910706FB07FC4FEA1C4C0CFB0BF7B0EBDB
:10143000C74072EB573203FB0CF734BFA2EBC74235
:10144000B2EBC74261EB57310CFB0EF7B0EBC700B4
:1014500072EB57720CFB08F734BFA2EBC702B2EB7A
:10146000C70261EB5771039F4FEA816141EA921114
:1014700004EBCC044FEAD1374FEA826206FB07FC4B
:1014800042EA90124FEA80604FEA1C4C0CFB0BF7CB
:10149000D21B03FB0CF761EB07010CFB0EF7B0EB63
:1014A000074072EB17420CFB08F734BFA2EB074270
:1014B000B2EB074261EB17414FEA8C554FEA9107B7
:1014C00004EB9C2406FB07FC4FEA1C4C0CFB0BF7BF
:1014D000B0EBC74072EB573203FB0CF734BFA2EB03
:1014E000C742B2EBC74261EB57310CFB0EF7B0EBD2
:1014F000C70072EB57720CFB08F734BFA2EBC702B0
:10150000B2EBC70261EB577115EB4C254FEA8161D5
:1015100041EA92114FEA82624FEAD13742EA9012D1
:1015200006FB07FC44F100044FEA80604FEA1C4CC4
:101530000CFB0BF7D21B03FB0CF761EB07010CFB59
:101540000EF7B0EB074072EB17420CFB08F734BF05
:10155000A2EB0742B2EB074261EB174115EB1C15FA
:101560004FEA813141EA92414FEA823242EA9042A7
:101570004FEA80304FEA0C7644F1000448EA034316
:101580004EEA0B484FF0000EB2EB080C71EB03076C
:1015900024BF624639464EEB0E0E4FF0000B00188A
:1015A000524149414BEB0B0BB2EB080C71EB0307BB
:1015B0007BF1000B24BF624639464EEB0E0E4FF016
:1015C000000B0018524149414BEB0B0BB2EB080CDE
:1015D00071EB03077BF1000B24BF624639464EEBEB
:1015E0000E0E51EA020718BF46F0010616EB0E7602
:1015F00055F1000254F1000103D5BDE88901BDE8B1
:101600000088BDE88901BDE80048B619524141EBA8
:101610000101A3F10103704780807F7E7D7C7B7A8E
:101620007978777676757473727171706F6E6E6D8E
:101630006C6C6B6A6A696868676666656464636334
:1016400062616160605F5F5E5E5D5D5C5C5B5B5ABA
:101650005A59595858575756565555555454535327
:1016600052525251515050504F4F4F4E4E4D4D4D82
:101670004C4C4C4B4B4B4A4A4A49494948484847CD
:10168000474747464646454545444444444343430B
:101690004342424242414141002B9C4630D47700B4
:1016A0002BD01CB54FEA370703B44FF010004FF0B2
:1016B0001001BAF1000F06D0BCF1000FDCBF40F002
:1016C000080040F008014FF000000FBCBDE81040DA
:1016D0000BF1010BBBF1010F08BF5FEA170722BF37
:1016E00012F1010211F101014FF0004143F1000339
:1016F00000F0004043EA00007047F9D35708D0E7F4
:1017000046EA064613F1400F4FEA16461FDD13F175
:10171000200FDFBF16430A46002120335B42BED0B4
:10172000C3F1200746EA064602FA07F74FEA1646D3
:1017300046EA0706C3F1200722FA03F201FA07F787
:1017400021FA03F14FF0000342EA0702A7E746EA55
:10175000020646EA06464FEA164646EA0106BCBFBE
:1017600046EA0646360C4FF000034FF000024FF0F9
:10177000000194E72DE9804C9A46934670B491E8B5
:10178000380007C831EA400C48BF34EA430C03D59F
:10179000FFF7E6FDFFF780FFF0BCBDE8008C2DE908
:1017A000804C9A46934670B491E8380007C810F010
:1017B000804F08BF13F0804F03D100F005F8FFF70A
:1017C0006BFFF0BCBDE8008C20F07F4780EA03008F
:1017D00023F07F4C07EB0C03A3F57C5300F0004093
:1017E000A3F1FE0392F0000F00F0B38095F0000F1C
:1017F00000F077802DE901494FEA11404FEA144685
:1018000021EA004800FB06FC24EA064708FB06F62E
:1018100007FB08F800FB07F718EB06484CEB164CE3
:101820004FEA124B18EB07484FEA15464CEB1740AE
:1018300022EA0B4E0BFB06FC25EA06470EFB06F6DA
:1018400007FB0EFE0BFB07F71EEB064E4CEB164C90
:101850004FF000061EEB074E4CEB174B18EB0B0836
:1018600040F1000018EB0E0B58EB000840F10000AF
:101870008F1A4FF000013CBFC943661B14BFB5EB84
:10188000040C00213CBFC943F61B4FEA17444EEA43
:101890008E0E27EA04454FEA1C4704FB07622CEA38
:1018A000074C05FB07F70CFB05F604FB0CFC16EBDD
:1018B000074642EB174216EB0C4642EB1C421BEB71
:1018C000060658EB0202414146EA9E0601D5BDE8F4
:1018D0000189B619524141EB0101A3F10103BDE8B1
:1018E00001894FEA14454FEA114724EA054621EAE7
:1018F000074C05FB07F406FB07F70CFB06F105FB9D
:101900000CFC11EB074144EB17444FEA124711EB73
:101910000C4144EB1C4422EA074C05FB07F206FB92
:1019200007F70CFB06F605FB0CFC16EB074642EB33
:10193000174216EB0C4642EB1C456A1854F10001A5
:1019400048BF7047B619524141EB0101A3F10103B1
:10195000704795F0000F37D04FEA11424FEA144715
:1019600021EA024624EA074C02FB07F106FB07F7CF
:101970000CFB06F402FB0CFC14EB074441EB174193
:101980004FEA154714EB0C4441EB1C4125EA074C88
:1019900002FB07F506FB07F70CFB06F602FB0CFC47
:1019A00016EB074645EB174516EB0C4645EB1C427C
:1019B000121951F1000148BF7047B619524141EB6D
:1019C0000101A3F1010370474FEA14454FEA1147A3
:1019D00024EA054621EA074C05FB07F106FB07F759
:1019E0000CFB06F24FF0000605FB0CFC12EB074265
:1019F00041EB174112EB0C4251EB1C4148BF7047C1
:101A0000921841EB0101A3F1010370472DE9FF4F4B
:101A1000ABB081468A461646389D05A92E980DAB77
:101A200015AACDE90016CDE902051DA924A800F0EC
:101A3000A7F8082D48D3002443E0EB08002139E043
:101A4000002031E00DF1140858F824800DF1900BBE
:101A50005BF824B001FB0B0B0BFB0387DFF8108155
:101A600058F82480DFF80CB15BF824B001FB0B8838
:101A7000DFF804B15BF824B008FB06B8DFF8FCB06F
:101A80005BF824B000FB0B8808FB03FC002208E095
:101A900007EB02081AF808800CEB020B09F80B8020
:101AA000521C9A42F4D3401C24AF57F8247087424A
:101AB000C8D8491C1DAF57F824708F42C0D8601C8D
:101AC0000446072CB9D150E000244CE024A850F87B
:101AD00024006843049005FB06F003904FF00008D3
:101AE0003BE0002732E0049808FB00F007FB05000C
:101AF00005A951F82410082202FB010001901C489E
:101B000050F824001B4951F8241008FB01000399E8
:101B10004843194951F82410184A52F8242007FB69
:101B2000021101FB050002904FF0000B0BE0514643
:101B300001A837F0C3FE0090494602A8009A39F088
:101B400015FD0BF1010BAB45F1D37F1C24A850F818
:101B50002400B842C7D808F101081DA850F8240095
:101B60004045BED8641C072CB0D12FB0BDE8F08F23
:101B7000CC990408049A0408B0990408E899040868
:101B80002DE9F0470446DDE9097C0B9E089D002005
:101B90003CE0DFF8288158F82080B844DFF8209135
:101BA00059F82090A8EB0908A8F10108DFF80C917A
:101BB00059F82090B8FBF9F844F82080DFF8048148
:101BC00058F82080E044DFF8009159F82090A8EB05
:101BD0000908A8F10108DFF8EC9059F82090B8FB4B
:101BE000F9F841F8208054F82080B8F1000F03D1B3
:101BF0004FF0000841F8208051F82080B8F1000F24
:101C000003D14FF0000844F82080401C0728C0D1C1
:101C10004FF00008C5F80080C3F80080C2F80080CB
:101C2000002046E054F82080B8F1000F13D051F89E
:101C30002080B8F1000F0ED051F8209054F8208089
:101C400008FB06F808F107084FF0010A0AEBD8086C
:101C500009FB08F801E04FF0000852F82090C14459
:101C600000F1010842F8289053F8209051F820A084
:101C700054F8208008FB06F808F107084FEAD80856
:101C80000AFB089900F1010843F8289051F82080D8
:101C900054F8209008FB09F808FB06F808F107083B
:101CA00055F8209009EBD80900F1010845F8289073
:101CB000401C0728B6D1BDE8F0870000E899040869
:101CC000B0990408049A0408CC99040800BFFEE700
:101CD0007047000070B504461D460023B5F5804FDF
:101CE00013D154F822300C480340D1E9000640EAF1
:101CF00006108E6840EA06208E8940EA06408E690A
:101D00003043034344F8223003E06FF0704044F85E
:101D10002200002070BD00000000F0CF10B5034687
:101D20000022086853F8202012480240D1E901043B
:101D30002043CC6820430C6920434C6920438C69C4
:101D40002043CC6920430C6A20434C6A20438C6AB0
:101D50002043CC6A2043CC6B20430C6B20430243CE
:101D60008868082801D142F04002086843F8202022
:101D7000002010BD8000F0FF30B503460024501C49
:101D800053F8204004F04044D1E9000540EA051032
:101D90008D6840EA05208D8940EA0545088A401E85
:101DA00045EA0055087D801E45EA00608D6928439C
:101DB0000443501C43F82040002030BD70B5044659
:101DC000A56D00F099F9064694F83500022808D070
:101DD0008020606500BF002084F8340000BF01202F
:101DE00070BD2068006820F0160021680860206837
:101DF000406920F0800021684861206C08B9A06C1F
:101E000028B12068006820F0080021680860206878
:101E1000006820F00100216808600FE000F06CF914
:101E2000801B05280AD92020606500BF002084F8A7
:101E3000340000BF032084F83500D1E72068006833
:101E400000F001000028E9D194F85C103F208840A0
:101E5000A86000BF002084F8340000BF012084F88F
:101E600035000020BCE7014691F83500022803D078
:101E70008020486501207047052081F835000868FA
:101E8000006820F001000A6810600020F3E70000FD
:101E900070B5044600F030F906462546681C10B1BE
:101EA00004480078054400BF00F026F9801BA842D2
:101EB000FAD370BD24000020F8B502460B46002579
:101EC000002400200021DEE0012606FA01F51E684C
:101ED00006EA0504AC4275D11E7906F00306012E10
:101EE00004D01E7906F00306022E13D190684F002D
:101EF0000326BE40B0434F00DE68BE4030439060D2
:101F0000506801268E40B0431E79C6F300168E40FD
:101F1000304350601E7906F00306032E09D0D068C6
:101F20004F000326BE40B0434F009E68BE40304382
:101F3000D0601E7906F00306022E13D1CF0802F1FD
:101F4000200656F827004E07F70E0F26BE40B04376
:101F50004F07FF0E1E69BE403043CF0802F1200636
:101F600046F8270010684F000326BE40B0431E7994
:101F700006F003064F00BE40304310605E6806F076
:101F80008056B6F1805F7DD100BF00260096404E9E
:101F9000366846F480463E4F3E603E46366806F45C
:101FA0008046009600BF00BF3A4E8F0856F82700C3
:101FB0008E07370F0F26BE40B043374EB24202D1D4
:101FC000002624E05EE0354EB24201D101261EE03B
:101FD000334EB24201D1022619E0324EB24201D153
:101FE000032614E0304EB24201D104260FE02F4EFA
:101FF000B24201D105260AE02D4EB24201D1062699
:1020000005E02C4EB24201D1072600E008268F07DA
:102010003F0FBE4030431F4E8F0846F82700264E24
:102020003068A0435E6806F48036B6F5803F00D184
:102030002043214E3060361D3068A0435E6806F4B0
:102040000036B6F5003F00D120431B4E361D3060F0
:10205000361D3068A0435E6806F48016B6F5801F12
:1020600000D12043144E08363060361D3068A0433E
:102070005E6806F40016B6F5001F00D120430E4E30
:102080000C363060491C1029FFF41EAFF8BD00006B
:102090004438024008380140000002400004024079
:1020A00000080240000C02400010024000140240F0
:1020B00000180240001C0240003C01400246136927
:1020C0000B400BB1012000E00020704710B54269C1
:1020D00021EA020302EA010443EA0443836110BDDA
:1020E0000AB1816101E00B04836170470148006817
:1020F000000C7047002004E00148006870470000B1
:102100001C0000200348006803490978084401497D
:10211000086070471C0000202400002010B50A4809
:10212000006840F40070084908600846006840F400
:1021300080600860032000F07FF80F2000F006F8B0
:1021400000F02AF8002010BD003C024070B50446A3
:102150000E4800784FF47A71B1FBF0F00C49096831
:10216000B1FBF0F5284601F0D7FB08B1012070BDA6
:10217000102C07D200222146501E00F01EF8054800
:10218000046001E00120F2E70020F0E724000020D5
:10219000000000202000002070470146084600286B
:1021A00009DB00F01F0301229A4043099B0003F161
:1021B000E023C3F8002100BF70472DE9F05F80469F
:1021C0000D461646002703F05BFA074639462A46B5
:1021D000334601F00700C0F1070ABAF1040F02D933
:1021E0004FF0040A01E0C0F1070AD14600F1040AE9
:1021F000BAF1070F02D24FF0000A01E0A0F1030A82
:10220000D4464FF0010A0AFA09FAAAF1010A0AEAC9
:10221000020A0AFA0CFA4FF0010B0BFA0CFBABF1B5
:10222000010B0BEA030B4AEA0B042146404603F07C
:102230002FFABDE8F09F000000BF00F00702064B38
:1022400019684FF6FF031940044B0B4343EA022180
:10225000014B196000BF70470CED00E00000FA056B
:1022600070B504460D460CB9012070BD5848006891
:1022700000F00700A84209D255490D7008460068D1
:1022800000F00700A84201D00120EEE7207800F01E
:10229000020002281DD1207800F00400042805D196
:1022A0004C48006840F4E0504A490860207800F04B
:1022B0000800082805D14748006840F460404549B7
:1022C00008604448006820F0F000A16808434149D4
:1022D0000860207800F00100A8B36068012807D1E9
:1022E0003C4808380068C0F34040B8B90120BCE75A
:1022F0006068022802D06068032807D13548083892
:102300000068C0F3406048B90120AEE731480838A2
:102310000068C0F3400008B90120A6E72D48006816
:1023200020F00300616808432A490860FFF7E4FED3
:10233000064609E0FFF7E0FE801B41F28831884243
:1023400002D9032091E707E02248006800F00C0062
:102350006168B0EB810FEDD11D48006800F0070007
:10236000A84209D91A490D700846006800F0070014
:10237000A84201D0012078E7207800F0040004286A
:1023800007D11448006820F4E050E168084311497F
:102390000860207800F00800082808D10D4800687F
:1023A00020F46040216940EAC1000A49086000F059
:1023B0003FF808490968C1F30311074A515CC84056
:1023C0000649086006480068FFF7C0FE00204CE799
:1023D000003C024008380240122604080000002099
:1023E0002000002001480068704700000000002025
:1023F00000B5FFF7F7FF04490968C1F38221034ADA
:10240000515CC84000BD0000083802402226040884
:1024100000B5FFF7E7FF04490968C1F34231034AF9
:10242000515CC84000BD0000083802402226040864
:102430002DE9F047002400250026A1462548006824
:1024400000F00C0020B1042805D008283AD105E09E
:10245000DFF8849039E0DFF8849036E01D48001FF3
:10246000006800F03F041B48001F006800F4800073
:1024700078B11A481749091F0968C1F38811A0FBF0
:1024800001700146224600233846FDF78AFF0546C3
:102490000EE011480F49091F0968C1F38811A0FB1C
:1024A00001700146224600233846FDF77AFF0546B3
:1024B0000848001F0068C0F30140401C4600B5FBFF
:1024C000F6F902E0DFF8109000BF00BF4846BDE813
:1024D000F0870000083802400024F40000127A005F
:1024E000F8B504460CB90120F8BD207800F00100D1
:1024F000002874D0F948006800F00C0004280DD0C2
:10250000F648006800F00C00082813D1F348001FBB
:10251000006800F48000B0F5800F0BD1EF48083858
:102520000068C0F34040002859D06068002856D1A8
:102530000120D9E700BF6068B0F5803F08D1E748C7
:102540000838006840F48030E449083908601EE02B
:102550006068B0F5A02F0DD1E0480838006840F45D
:102560008020DE49083908600846006840F4803061
:1025700008600CE0D9480838006820F48030D7495A
:10258000083908600846006820F48020086000BF11
:10259000606890B1FFF7B0FD054606E0FFF7ACFDBF
:1025A000401B642801D903209EE7CC480838006806
:1025B000C0F340400028F1D011E0FFF79DFD054633
:1025C00006E0FFF799FD401B642801D903208BE743
:1025D000C24808380068C0F340400028F1D1207894
:1025E00000F0020002285FD1BC48006800F00C0037
:1025F00058B1BA48006800F00C0008281CD1B74850
:10260000001F006800F48000B0B9B44808380068C2
:10261000C0F3400020B1E068012801D0012063E749
:10262000AE480838006820F0F800216940EAC1008F
:10263000AA490839086037E0E06800B30120A849DA
:102640000860FFF759FD054606E0FFF755FD401B02
:10265000022801D9032047E7A04808380068C0F3E2
:1026600040000028F1D09D480838006820F0F800AC
:10267000216940EAC10099490839086014E0002046
:1026800097490860FFF738FD054606E0FFF734FD7F
:10269000401B022801D9032026E79048083800682B
:1026A000C0F340000028F1D1207800F0080008288D
:1026B0002CD16069A8B101208A490860FFF71CFD90
:1026C000054606E0FFF718FD401B022801D903204C
:1026D0000AE782486C300068C0F340000028F1D05F
:1026E00014E000207F490860FFF706FD054606E07C
:1026F000FFF702FD401B022801D90320F4E67748CA
:102700006C300068C0F340000028F1D1207800F060
:102710000400042870D1002770483830006800F0A9
:10272000805090B900BF002000906C48383000689D
:1027300040F080506949383108600846006800F070
:102740008050009000BF00BF01276748006800F478
:102750008070B0B96448006840F4807062490860D5
:10276000FFF7CAFC054606E0FFF7C6FC401B02283F
:1027700001D90320B8E65C48006800F480700028A6
:10278000F2D000BFA068012808D154486830006822
:1027900040F001005149683108601DE0A06805283B
:1027A0000DD14E486830006840F004004B49683154
:1027B00008600846006840F0010008600CE04748E7
:1027C0006830006820F0010044496831086008461C
:1027D000006820F00400086000BFA068A8B1FFF7FF
:1027E0008BFC054609E0FFF787FC401B41F288316E
:1027F000884202D9032077E626E03848683000682E
:10280000C0F340000028EED013E0FFF775FC05464A
:1028100008E0FFF771FC401B41F28831884201D982
:10282000032061E62D4868300068C0F340000028AE
:10283000EFD1012F07D129483830006820F08050AF
:1028400026493831086000BFA069002845D02348D8
:10285000006800F00C0008285DD0A069022845D16E
:1028600000201F490866FFF747FC054606E0FFF712
:1028700043FC401B022801D9032035E617480838DD
:102880000068C0F340600028F1D1D4E90701084393
:10289000616A40EA81110122A06AC2EB500041EA5C
:1028A00000412C20005D41EA00600C49091F0860CE
:1028B00001200B490866FFF71FFC054606E0FFF7FD
:1028C0001BFC401B022801D903200DE603480838F1
:1028D0000068C0F340600028F1D049E008380240A9
:1028E00000004742800E474200700040002021490E
:1028F0000866FFF701FC054606E0FFF7FDFB401BFD
:10290000022801D90320EFE51B480068C0F34060AE
:102910000028F2D12CE0A069012800D1E4E5164896
:10292000001D0668A069012820D006F48001E06936
:1029300081421BD106F03F01206A814216D147F641
:10294000C0703040616AB0EB811F0FD106F4403196
:102950000122A06AC2EB5000B1EB004F06D106F095
:1029600070612C20005DB1EB006F01D00120BBE550
:102970000020B9E50000474200380240F0B589B0B8
:1029800004460E460027032084F83400606C0328B8
:1029900020D0B6F5805F04D1A06B40F08050A063DA
:1029A0001CE0B6F5006F07D1204602F037FB054664
:1029B000A06B2843A06311E03EB9204602F0FAFA6A
:1029C0000546A06B2843A06308E0A06B40F00060C0
:1029D000A06303E0A06B40F08050A063A06B38B10F
:1029E000174821688863012084F83400012713E028
:1029F00060680390A0680490E0680590069660699E
:102A00000790A069089006A807C88DE8070020680D
:102A100003A90EC901F032FD4FF40071206801F0E6
:102A2000A9FD054635B1064821688863A06B284397
:102A3000A0630127012084F83400384609B0F0BDB6
:102A4000FF05400010B50246506E800F0870506EB2
:102A5000C0F383604870506EC0F301608870506EA0
:102A6000000CC870B2F86400000A087192F86400A3
:102A70004871906E000DC880906EC0F303400872DC
:102A80006820805AC0F3C03048726820805AC0F372
:102A9000803088726820805AC0F34030C872682045
:102AA000805AC0F30030087300204873506C00282F
:102AB00036D16820805A8005030DD06E43EA9070AD
:102AC0000861D06EC0F3C2600875D06EC0F30260BA
:102AD0004875D06EC0F342508875D06EC0F3824006
:102AE000C875D06EC0F3C23008760869401C5065C6
:102AF0000B7E506D03F007039B1C01249C40604338
:102B00005065087A00F00F03012098409065D2E9E3
:102B100015035B0A5843D0654FF40073136621E038
:102B2000506C012813D16820805C8006830AD06E27
:102B300043EA104008610869401C83025365536DE5
:102B4000D3654FF400739365936D13660AE02E48C6
:102B500013689863906B40F080509063012082F876
:102B6000340010BD6C20805AC0F3803001F8190F7A
:102B70006C20805AC0F3C61048706C20805C00F056
:102B80007F008870106FC00FC870106FC0F3417065
:102B90000871106FC0F382604871106FC0F38350EA
:102BA0008871106FC0F34050C87100200872106F18
:102BB000C0F3004048727020805AC0F3C030887261
:102BC0007020805AC0F38030C8727020805AC0F3E1
:102BD000403008737020805AC0F300304873702072
:102BE000805AC0F3812088737020805AC0F301207E
:102BF000C8737020805CC0F34600087401204874DC
:102C000019390020ADE70000FF0540000246506C76
:102C10000860906C4860D06C8860106DC860506D22
:102C20000861906D4861D06D8861106EC8610020A8
:102C30007047F8B50446002000906946204602F02F
:102C4000A1F9054615B1A06B2843A0630098C0F315
:102C500043263046F8BD10B504460CB9012010BD1E
:102C600094F8340020B900202077204600F068F85E
:102C7000032084F83400204600F00CF808B101204D
:102C8000EDE70020A0632063012084F834000020D9
:102C9000E5E7000070B58AB0044600200490059076
:102CA0000690079008907620099007A807C88DE83D
:102CB0000700206804A90EC901F0E0FB064616B122
:102CC00001200AB070BD00201B490860206801F097
:102CD000EFFB01201849A039C1F8A000204602F0FE
:102CE000EBF805463DB1012084F83400A06B284381
:102CF000A0630120E5E7204602F05DF805463DB1FE
:102D0000012084F83400A06B2843A0630120D8E799
:102D10004FF40071206801F02DFC05464DB10748C5
:102D200021688863A06B2843A063012084F83400E5
:102D3000C7E70020C5E70000A0802542FF0540004E
:102D400010B586B004465949206888427ED100BF3C
:102D5000002000905648006840F400605449086024
:102D60000846006800F40060009000BF00BF00BF8C
:102D700000BF002000904E481438006840F0040066
:102D80004B49143908600846006800F004000090C0
:102D900000BF00BF00BF00BF00BF0020009008467A
:102DA000006840F0040008600846006800F0040075
:102DB000009000BF00BF00BF00BF00BF0020009018
:102DC0000846006840F0040008600846006800F00B
:102DD0000400009000BF00BF00BF00BF00BF002084
:102DE00000900846006840F004000860084600684B
:102DF00000F00400009000BF00BF00BF00BF00BF94
:102E0000002000900846006840F004000860084672
:102E1000006800F00400009000BF00BF00BF00BFCA
:102E200000BF002000900846006840F008000860DD
:102E30000846006800F00800009000BF00BF00BF17
:102E40008815019002200290012000E02BE0039001
:102E5000022004900C20059001A91648FFF72CF8D9
:102E60004FF40070019001A91248FFF725F84FF4C4
:102E70008060019001A90F48FFF71EF84FF4006031
:102E8000019001A90B48FFF717F84FF4805001900B
:102E900001A90848FFF710F80420019001A906488D
:102EA000FFF70AF800BF06B010BD0000002C01407B
:102EB0004438024000080240000C02402DE9FF4F58
:102EC00089B004468B469946DDF858A0FFF714F9FF
:102ED00002900B9800905D46BBF1000F07D1A06BEC
:102EE00040F00060A06301200DB0BDE8F08F94F8C1
:102EF000340001287ED10020A063009800EB090176
:102F0000E06D814205D9A06B40F00070A063012004
:102F1000EAE7032084F8340000202168C862606C6E
:102F2000012802D00098400200904FF0FF3003903B
:102F30004FEA49200490902005900220069000203E
:102F400007900120089003A9206801F072FAB9F1F6
:102F5000010F07D9022020632068009901F072FB5D
:102F6000804606E0012020632068009901F086FB7E
:102F70008046B8F1000F0DD0754821688863A06BBA
:102F800040EA0800A063012084F834000020206398
:102F90000120A9E7049E3AE02068406B00F400405D
:102FA000E0B1DEB10020019015E0206801F089FA5F
:102FB00007462F706D1C761E380A28706D1C761E11
:102FC000380C28706D1C761E380E28706D1C761E0D
:102FD0000198401C019001980828E6D3FFF78CF86F
:102FE0000299401A504502D2BAF1000F0FD1584849
:102FF000216800E0A6E08863A06B40F00040A06379
:10300000012084F834000020206303206CE720684E
:10301000406B40F22A3108400028BDD02068406B48
:1030200000F48070D0B1B9F1010F17D9606C03289A
:1030300014D0206801F0E2FB8046B8F1000F0DD0FB
:10304000434821688863A06B40EA0800A063012020
:1030500084F8340000202063012045E72068406B9D
:1030600000F0080068B13A4821688863A06B40F01E
:103070000800A063012084F83400002020630120B0
:1030800032E72068406B00F0020068B130482168E8
:103090008863A06B40F00200A063012084F8340034
:1030A0000020206301201FE72068406B00F0200013
:1030B00068B1274821688863A06B40F02000A063B6
:1030C000012084F834000020206301200CE729E06F
:1030D000206801F0F6F907462F706D1C761E380A3D
:1030E00028706D1C761E380C28706D1C761E380EEC
:1030F00028706D1C761EFEF7FFFF0299401A50459E
:1031000002D2BAF1000F0DD1114821688863A06B7B
:1031100040F00040A063012084F8340000202063C8
:103120000120E1E62068406B00F4001008B1002E99
:10313000CED140F23A5021688863012084F83400EF
:103140000020D1E6A06B40F00050A0630120CBE648
:10315000FF0540002DE9F04F89B0044689469346AB
:103160009846FEF7C9FF0290DA464D46B9F1000FC6
:1031700007D1A06B40F00060A063012009B0BDE85A
:10318000F08F94F8340001287ED10020A0630AEB70
:103190000801E06D814205D9A06B40F00070A0638A
:1031A0000120EBE7032084F8340000202168C86286
:1031B000606C012801D04FEA4A2A4FF0FF3003909B
:1031C0004FEA482004909020059000200690079038
:1031D0000120089003A9206801F02BF9B8F1010F34
:1031E00007D9202020635146206801F025FB0646C0
:1031F00006E0102020635146206801F039FB0646A6
:1032000066B15F4821688863A06B3043A0630120EA
:1032100084F83400002020630120AFE7049F43E0DE
:103220002068406B00F4804030B32FB30020019041
:103230001FE0287800906D1C7F1E2878009941EAD5
:10324000002000906D1C7F1E2878009941EA004004
:1032500000906D1C7F1E2878009941EA0060009064
:103260006D1C7F1E6946206801F043F90198401CDF
:10327000019001980828DCD3FEF73EFF0299411A1D
:103280001298814203D200E074E0129860B93C4881
:1032900021688863A06B3043A063012084F8340068
:1032A00000202063032069E72068406B40F21A3158
:1032B00008400028B4D02068406B00F48070B8B19A
:1032C000B8F1010F14D9606C032811D0206801F007
:1032D00095FA064666B12A4821688863A06B304398
:1032E000A063012084F8340000202063012045E71A
:1032F0002068406B00F0080068B1214821688863AD
:10330000A06B40F00800A063012084F83400002086
:103310002063012032E72068406B00F0020068B1B2
:10332000174821688863A06B40F00200A063012069
:1033300084F834000020206301201FE72068406BE0
:1033400000F0100068B10E4821688863A06B40F05F
:103350001000A063012084F83400002020630120C5
:103360000CE740F23A5021688863012084F8340069
:10337000002003E7A06B40F00050A0630120FDE6B1
:10338000FF05400010B504460CB9012010BD606A6D
:1033900038B96068B0F5827F00D105E00021E161B5
:1033A00002E0002121616161A06AB0F5005F00D1F7
:1033B00000BF94F8510028B9002084F8500020463E
:1033C00000F050F8022084F851002068006820F0D6
:1033D000400021680860A08800F48270218901F40F
:1033E00004410843A18901F400610843217C01F0F4
:1033F00002010843217D01F001010843218B01F402
:1034000000710843217F01F0380108432021095D44
:1034100001F080010843218D01F400510843216827
:1034200008600421A06901EA104094F8241001F01A
:103430001001084321684860A06AB0F5005F03D11D
:10344000A08D80B2216808612068C06920F4006006
:103450002168C86100206065012084F851000020C7
:1034600094E7000010B586B004462A4920688842D7
:103470004DD100BF00BF002000902748006840F0F9
:103480000200254908600846006800F0020000902C
:1034900000BF00BF00BF00BF00BF00200090084673
:1034A000006840F0020008600846006800F0020072
:1034B000009000BF00BF00BF00BF00BF0020009011
:1034C0000846006840F0020008600846006800F006
:1034D0000200009000BF00BF00BF08200190022042
:1034E000029001200390022004900520059001A97C
:1034F0000A48FEF7E1FC1020019001A90748FEF7F9
:10350000DBFC2020019001A90448FEF7D5FC06B0A1
:1035100010BD00000030014030380240000402407D
:103520002DE9F04F85B00446884691461D460E9E13
:1035300000200490012002900020019000BF94F828
:103540005000012803D1022005B0BDE8F08F012012
:1035500084F8500000BFFEF7CFFD074694F851B045
:1035600060680390AA46BBF1010F0BD00398B0F539
:10357000827F04D1A06810B9BBF1040F02D00220F1
:1035800001902CE1B8F1000F03D0B9F1000F00D089
:1035900015B90120019022E194F85100042802D0CD
:1035A000052084F8510000206065C4F83890E58754
:1035B000A587C4F83080E586A58620646064A06A8B
:1035C000B0F5005F0DD100BF2068006820F4005006
:1035D000216808602068006840F400502168086095
:1035E00000BF2068006800F04000402805D0206837
:1035F000006840F0400021680860E068B0F5006FA6
:1036000056D1606810B1BAF1010F09D1206B008862
:103610002168C860206B801C2063E08E401EE0861D
:103620003FE02068806800F0020002281CD1E08E94
:10363000D0B10298012817D1206B00882168C8609A
:10364000206B801C2063E08E401EE08600200290EC
:10365000E08E48B9A06AB0F5005F05D12068006827
:1036600040F48050216808602068806800F0010004
:1036700068B1E08F58B12068C068A16B0880A06B6A
:10368000801CA063E08F401EE08701200290FEF7BF
:1036900033FDC01BB04204D3701C10B10320019055
:1036A0009DE0E08E0028BCD1E08F0028B9D156E023
:1036B000606810B1BAF1010F09D1206B0078216860
:1036C0000873206B401C2063E08E401EE08640E0C3
:1036D0002068806800F0020002281CD1E08ED0B182
:1036E0000298012817D1206B007821680873206B9D
:1036F000401C2063E08E401EE08600200290E08E99
:1037000048B9A06AB0F5005F05D12068006840F4B0
:103710008050216808602068806800F0010068B16E
:10372000E08F58B12068C068A16B0870A06B401C86
:10373000A063E08F401EE08701200290FEF7DCFCD2
:10374000C01BB04201D3701C00B916B90320019010
:1037500045E0E08E0028BBD1E08F0028B8D1A06AF8
:10376000B0F5005F12D13346012211462046009782
:1037700001F0BEFC30B1606D40F0020060650320D6
:1037800001902CE02068C068049000BF2068806829
:1037900000F01000102809D1606D40F00200606553
:1037A0004FF6EF7021688860012001903A4631465B
:1037B000204601F067FC20B10120019020206065C7
:1037C0000DE0A06850B900BF002000902068C068DC
:1037D000009020688068009000BF00BF00BF0120FB
:1037E00084F8510000BF002084F8500000BF019809
:1037F000AAE670B504460E4615460CB9012070BD08
:1038000094F8490028B9002084F84800204600F0C8
:103810001DF804F108012068FEF780FA3146A2681D
:103820002068FEF7A9FA2946236BD4E90102FEF7C6
:1038300051FAA168206850F8210040F00100A26808
:10384000216841F822000020D9E7000010B586B0B9
:10385000044600BF002000902248006840F00100AC
:10386000204908600846006800F00100009000BF91
:1038700000BF00BF002000901A480838006840F0E0
:1038800008001849083908600846006800F0080078
:10389000009000BF00BF00BF0020009008460068F5
:1038A00040F0100008600846006800F0100000902A
:1038B00000BF00BF4CF20370019002200290012073
:1038C0000390022004900C20059001A90648FEF701
:1038D000F3FA4FF68070019001A90448FEF7ECFA64
:1038E00006B010BD38380240000C02400010024003
:1038F000042808D14FF0E021096941F004014FF09C
:10390000E022116107E04FF0E021096921F0040194
:103910004FF0E0221161704770B504462546681EDD
:10392000B0F1807F01D301200FE0681E4FF0E0214D
:1039300048610F214FF0FF3001F0AAFE00204FF048
:10394000E021886107200861002070BD7047704742
:10395000704710B5044620680069C0F34000D8B134
:103960002068C068C0F34000B0B16FF00200216869
:103970000861012020772068806900F0030018B1F9
:103980002046FFF7E5FF05E0204600F0ADF82046B1
:1039900000F0ABF80020207720680069C0F38000B9
:1039A000D8B12068C068C0F38000B0B16FF00400E7
:1039B00021680861022020772068806900F4407047
:1039C00018B12046FFF7C4FF05E0204600F08CF850
:1039D000204600F08AF80020207720680069C0F3B4
:1039E000C000D8B12068C068C0F3C000B0B16FF0AB
:1039F000080021680861042020772068C06900F071
:103A0000030018B12046FFF7A3FF05E0204600F0B1
:103A10006BF8204600F069F80020207720680069E4
:103A2000C0F30010D8B12068C068C0F30010B0B176
:103A30006FF0100021680861082020772068C069B5
:103A400000F4407018B12046FFF782FF05E02046E1
:103A500000F04AF8204600F048F80020207720685F
:103A6000006900F0010058B12068C06800F0010052
:103A700030B16FF0010021680861204600F036F88F
:103A800020680069C0F3C01058B12068C068C0F356
:103A9000C01030B16FF08000216808612046FFF748
:103AA00055FF20680069C0F3801058B12068C068D5
:103AB000C0F3801030B16FF04000216808612046EB
:103AC00000F015F820680069C0F3401058B1206874
:103AD000C068C0F3401030B16FF020002168086169
:103AE0002046FFF734FF10BD70477047704770479E
:103AF0007047704701460022002391F83D2091F85D
:103B00003E3042EA030070472DE9F84F0446206832
:103B100005682068C668206847694FF00009CA46F2
:103B200005F00F09B9F1000F0AD105F0200038B1F6
:103B300006F0200020B1204601F097FBBDE8F88F89
:103B4000B9F1000F72D007F0010018B906F49070B7
:103B500000286BD005F0010030B106F4807018B178
:103B6000206C40F00100206405F0040030B107F043
:103B7000010018B1206C40F00200206405F0020042
:103B800030B107F0010018B1206C40F0040020644F
:103B900005F0080048B106F0200010B907F0010058
:103BA00018B1206C40F008002064206C70B305F060
:103BB000200028B106F0200010B1204601F055FB8E
:103BC00020684069C0F3801A206C00F0080010B92A
:103BD000BAF1000F23D0204601F01CFB2068406999
:103BE00000F04000402816D12068406920F04000D5
:103BF00021684861A06B50B15648A16B0865A06B65
:103C0000FEF731F910B1A06B016D88470CE020463A
:103C1000FFF76FFF08E02046FFF76BFF04E0204648
:103C2000FFF767FF0020206488E7FFE7206B01288B
:103C300079D105F01000002875D006F0100000289A
:103C400071D000BF002000902068006800902068BC
:103C50004068009000BF00BF2068406900F040004D
:103C6000402839D1A06B006840681FFA80F8B8F18D
:103C7000000F30D0A08D40452DDDA4F82E80A06B24
:103C8000C069B0F5807F1FD02068C06820F48070C4
:103C90002168C8602068406920F0010021684861FF
:103CA0002068406920F0400021684861202084F8A5
:103CB0003E00002020632068C06820F010002168CA
:103CC000C860A06BFEF77AF8A08DE28D801A81B2F1
:103CD0002046FFF70DFF31E7A08DE18D401A1FFA56
:103CE00080F8E08DE8B1B8F1000F1AD02068C06804
:103CF00020F490702168C8602068406920F00100BD
:103D000021684861202084F83E000020206320685C
:103D1000C06820F010002168C86041462046FFF7C7
:103D2000E7FE0BE7FFE705F0800030B106F080000A
:103D300018B1204601F031FC00E705F0400030B139
:103D400006F0400018B1204601F07FFAF6E600BF09
:103D5000F4E600000152000810B504460CB9012039
:103D600010BDA06900B100E000BF94F83D0028B983
:103D7000002084F83C00204600F028F8242084F835
:103D80003D002068C06820F400502168C8602046CB
:103D900001F0CAFA2068006920F4904021680861A7
:103DA0002068406920F02A00216848612068C068C6
:103DB00040F400502168C86000202064202084F86E
:103DC0003D0084F83E000020CAE7000010B586B030
:103DD00004462E492068884255D100BF00BF00200C
:103DE00000902B48006840F0100029490860084600
:103DF000006800F01000009000BF00BF00BF00BFCF
:103E000000BF0020009022481438006840F00100F4
:103E10001F49143908600846006800F0010000904E
:103E200000BF00BF00BF00BF00BF002000900846D9
:103E3000006840F0010008600846006800F00100DA
:103E4000009000BF00BF00BF481501900220029003
:103E500001200390022004900720059001A90D483D
:103E6000FEF72AF84FF4806001900720059001A921
:103E70000848FEF721F82520FEF78FF903221146A6
:103E80002520FEF79AF906B010BD00000010014091
:103E9000443802400000024070B504460D46164604
:103EA00094F83E00202816D105B10EB9012070BD4E
:103EB00000BF94F83C00012801D10220F7E701205F
:103EC00084F83C0000BF002020633246294620468B
:103ED00001F040FBEBE70220E9E700001D4A016822
:103EE000914236D11C49098801F4004189BB1A4925
:103EF000098801F4804171B1184909780A2903D071
:103F00000021154A118024E01349098841F4004139
:103F1000114A11801DE0114909780D2906D10E4979
:103F2000098841F480410C4A118012E00B4909785C
:103F3000094A1288C2F30D02094B995406490988AF
:103F4000491C054A118011460988C72901DD002155
:103F50001180704700100140180000201A00002056
:103F60002C070020704700BFFEE710B5044620680C
:103F70001CF008FE60681CF005FE20691CF002FEC3
:103F800060691CF0FFFD10BD00210160416001610E
:103F9000416170472DE9F04104460F4616469846A8
:103FA000B0001CF09CFF6060606810B95320BDE851
:103FB000F081002505E057F82500616841F82500EB
:103FC0006D1CB542F7D1E660C4F80880204600F0C9
:103FD00001F8ECE72DE9F04704464FF00009E168ED
:103FE00088001CF07CFF2060A168491C88001CF040
:103FF00076FF8046A168491C88001CF070FF0746C8
:10400000206818B1B8F1000F00D00FB94FF0530974
:10401000B9F1000F55D1002505E0002047F8250033
:1040200048F825006D1CA068401CA842F5D1002668
:104030000BE0606850F8260058F82000401C6168CA
:1040400051F8261048F82100761CE068B042F0D103
:10405000012609E0701E57F8201058F82000084487
:10406000400047F82600761CA068B042F2D2002536
:1040700024E0606850F82500F8B1606850F8250029
:1040800057F82000216841F82500606850F82500A5
:1040900057F82000401C616851F8251047F82100AE
:1040A000206850F82510606810F825200120904005
:1040B000401E0140206840F825106D1CE068A842B1
:1040C000D7D140461CF05EFD38461CF05BFDB9F1CF
:1040D000000F03D1204600F004F881464846BDE8B1
:1040E000F0872DE9F04F85B005464FF400601CF0D5
:1040F000F6FE8046B8F1000F03D1532005B0BDE8AD
:10410000F08F4FF40062002140461CF0F8FE0024BE
:104110001FE0286850F824000490686850F824B024
:10412000BBF1090F00D813E0ABF10902049921FAA1
:1041300002F0092136F07DFC064658F82600584565
:1041400002D958F8260000E0584648F8260000BF7B
:10415000641CE868A042DCD84FF40077002409E032
:1041600058F82400092804D9A0F1090101228A4045
:104170001744641CB4F5007FF2D338461CF0AFFE40
:10418000286178001CF0ABFE6861286908B1686995
:1041900020B940461CF0F6FC5320AFE7002403E0B2
:1041A000102029690855641CBC42F9D34FF4007AE9
:1041B000002410E058F82400092800D80AE02A69F1
:1041C00010556A6922F814A0A0F1090101228A4061
:1041D000924400BF641CB4F5007FEBD340461CF052
:1041E000D1FC4FF00009002468E0686850F82460B2
:1041F000286850F8240004903146049836F019FCE1
:10420000834606B959E009F10109092E1CD8C6F107
:104210000902012000FA02F3002112E001FA06F07F
:1042200040EA0B022869805C102801D0372065E73E
:10423000D5F810C00CF80260D5F814C02CF8124064
:10424000491C9942EAD337E0CBF308022869835C22
:10425000A3F109000390686930F812000290A6F1FA
:104260000900DDF80CC0ACEB000C012000FA0CF0EA
:104270000190B34201D2372040E7002118E04FEA15
:104280005B2CCDF800C0A6F1090C01FA0CFCDDF89E
:1042900000E04CEA0E0CDDF808E00CEB0E00D5F85F
:1042A00010E00EF80060D5F814E02EF81040491C1C
:1042B00001988142E3D300BF00BF641CE868A042BC
:1042C00093D8B9F1020F16D2002411E02869005DDD
:1042D00010280CD1B4F5007F01D2012000E00A20A3
:1042E000296908554FF6FF70696921F81400641CAC
:1042F000BC42EBD30AE0002406E02869005D1028E8
:1043000001D13720FAE6641CBC42F6D30020F5E662
:10431000F8B504460E4615462660656004F10802AD
:10432000082128461CF0F4FD08B16920F8BD6A4652
:104330004021A0681CF08FF808B16920F6E7002042
:10434000E060206100BFF1E770B50446002514E08D
:10435000E16C01EB850037F08AFD216D01EB8500F2
:1043600037F085FD616D01EB850037F080FDA16DB3
:1043700001EB850037F07BFD6D1CA06CA842E7D1F6
:10438000E06C1CF0FFFB206D1CF0FCFB606D1CF072
:10439000F9FBA06D1CF0F6FB70BD00218164C164C7
:1043A000016541658165704770B5044600250AE0E6
:1043B000216C01EB850037F05AFD616C01EB850043
:1043C00037F055FD6D1CE06BA842F1D1206C1CF05C
:1043D000D9FB606C1CF0D6FB70BD0021C163016489
:1043E0004164704770B50546002406E005F1CC0134
:1043F00051F824001CF0C6FB641C032CF6D170BDE0
:104400000146002005E0002301F1CC0242F82030F3
:10441000401C0328F7D1002005E0002301F1D80259
:1044200042F82030401C0328F7D1704700BFFEE758
:10443000704710B5024600230868506248689062D1
:10444000D1E9020420430C6920434C692043034313
:10445000D06A20F0F7001843D062002010BD01465A
:104460000869C0B270470146086800F00300704751
:10447000024602F114004318186870470FB410B5D3
:1044800004460021DDE903021043059A1043069A11
:104490001043079A1043089A10430143606847F697
:1044A000FF62904308436060002010BC5DF814FB7D
:1044B00010B50446032020600220FDF7E9FC00202F
:1044C00010BD0146D1F88000704710B502460023A8
:1044D00008689060D1E901042043CC6820430C694E
:1044E00020430343D0686FF30B001843D0600020D3
:1044F00010BD02460868C2F880000020704770B501
:1045000086B005460C460194372002904020039067
:10451000002004904FF48060059001A92846FFF721
:10452000D4FF41F288323721284600F0DDF90646F3
:10453000304606B070BD000070B586B005460C462A
:104540000B48204301902920029040200390002036
:1045500004904FF48060059001A92846FFF7B5FF4D
:10456000284600F0C9FA0646304606B070BD000085
:104570000000108070B586B005460C4601941020EE
:10458000029040200390002004904FF4806005903A
:1045900001A92846FFF799FF41F2883210212846E9
:1045A00000F0A2F90646304606B070BD70B586B080
:1045B00005460C46019406200290402003900020FE
:1045C00004904FF48060059001A92846FFF77DFF15
:1045D00041F288320621284600F086F90646304628
:1045E00006B070BD30B585B0044600200090019043
:1045F000029003904FF48060049069462046FFF7D4
:1046000064FF204600F050F90546284605B030BD4D
:1046100030B585B004464FF4D57000900820019065
:1046200040200290002003904FF48060049069467F
:104630002046FFF74AFF204600F0E6FA05462846E6
:1046400005B030BD70B586B005460C460194122009
:10465000029040200390002004904FF48060059069
:1046600001A92846FFF731FF41F28832122128467E
:1046700000F03AF90646304606B070BD70B586B017
:1046800005460C4601941120029040200390002022
:1046900004904FF48060059001A92846FFF715FFAC
:1046A00041F288321121284600F01EF906463046B4
:1046B00006B070BDF0B585B0064614461D460094A0
:1046C0000720019040200290002003904FF480606A
:1046D000049069463046FFF7F8FE41F28832072120
:1046E000304600F001F90746384605B0F0BD30B558
:1046F00085B004460020009002200190C020029066
:10470000002003904FF48060049069462046FFF734
:10471000DCFE204600F0BEF90546284605B030BD57
:1047200070B586B005460C46019409200290C02061
:104730000390002004904FF48060059001A9284662
:10474000FFF7C3FE284600F0A5F90646304606B03E
:1047500070BD30B585B00446002000903320019034
:1047600040200290002003904FF48060049069463E
:104770002046FFF7AAFE41F288323321204600F09E
:10478000B3F80546284605B030BD70B586B005467D
:104790000C4601940D2002904020039000200490CC
:1047A0004FF48060059001A92846FFF78EFE41F284
:1047B00088320D21284600F097F80646304606B0AC
:1047C00070BD70B586B005460C46002001900320F0
:1047D000029040200390002004904FF480600590E8
:1047E00001A92846FFF771FE22460321284600F062
:1047F000AFF90646304606B070BD000030B585B052
:104800000446002000900C200190402002900020DF
:1048100003904FF48060049069462046FFF755FEF0
:10482000044A0C21204600F05FF80546284605B0F2
:1048300030BD000000E1F50570B586B005460C46B8
:1048400001941920029040200390002004904FF41E
:104850008060059001A92846FFF737FE41F28832B3
:104860001921284600F040F80646304606B070BDD3
:1048700070B586B005460C46019418200290402081
:104880000390002004904FF48060059001A9284611
:10489000FFF71BFE41F288321821284600F024F869
:1048A0000646304606B070BD01460E480068C00896
:1048B0004FF47A73B0FBF3F041F2883300FB03F25C
:1048C00000BF101EA2F1010202D14FF0004070475C
:1048D000486B00F080000028F3D0C52088630020DA
:1048E000F5E70000000000202DE9F04305460F46E3
:1048F000904666480068C0084FF47A71B0FBF1F04A
:1049000000FB08F900BFB9F10000A9F1010903D1CA
:104910004FF00040BDE8F0836E6B06F045000028C4
:10492000F1D006F400600028EDD1686B00F00400BF
:1049300010B10420A863EDE7686B00F0010010B12E
:104940000120A863E6E7C520A8632846FFF787FD96
:10495000B84201D00120DDE700212846FFF788FD9D
:1049600004464B48204008B90020D3E704F000403B
:10497000B0F1004F02D14FF00070CBE704F080405F
:10498000B0F1804F01D14020C4E704F00050B0F1F5
:10499000005F01D18020BDE704F08050B0F1805F5E
:1049A00002D14FF48070B5E704F00060B0F1006F01
:1049B00002D14FF40070ADE704F08060B0F1806F79
:1049C00002D14FF48060A5E704F08070B0F1807FE1
:1049D00002D14FF400609DE704F40000B0F5000F31
:1049E00002D14FF4805095E704F48000B0F5800FB9
:1049F00002D14FF400508DE704F40010B0F5001F11
:104A000002D14FF4804085E704F48010B0F5801F98
:104A100002D14FF400407DE704F48020B0F5802FF0
:104A200002D14FF4003075E704F40030B0F5003FD8
:104A300002D14FF480206DE704F48030B0F5803F60
:104A400002D14FF4002065E704F40040B0F5004FB8
:104A500002D14FF480105DE704F48040B0F5804F40
:104A600002D14FF4001055E704F40050B0F5005F98
:104A700002D14FF480004DE704F00800082801D16E
:104A8000000547E74FF4803044E7000000000020B5
:104A900008E0FFFD10B5014616480068C0084FF455
:104AA0007A74B0FBF4F041F2883400FB04F300BFE9
:104AB000181EA3F1010302D14FF0004010BD4A6B54
:104AC00002F045000028F3D002F400600028EFD186
:104AD000486B00F0040010B104208863EEE7486BD7
:104AE00000F0010010B101208863E7E7C52088636A
:104AF0000020E3E70000002010B5014613480068DD
:104B0000C0084FF47A74B0FBF4F041F2883400FB33
:104B100004F300BF181EA3F1010302D14FF00040BF
:104B200010BD4A6B02F045000028F3D002F400608B
:104B30000028EFD1486B00F0040010B10420886316
:104B4000EEE7C52088630020EAE7000000000020AF
:104B50002DE9F04304460F4690462A480068C008F5
:104B60004FF47A71B0FBF1F041F2883100FB01F9AA
:104B700000BFB9F10000A9F1010903D14FF00040D5
:104B8000BDE8F083666B06F045000028F1D006F41E
:104B900000600028EDD1606B00F0040010B104202B
:104BA000A063EDE7606B00F0010010B10120A0638D
:104BB000E6E72046FFF753FCB84201D00120DFE7CB
:104BC000C520A06300212046FFF752FC054605F4EE
:104BD000604020B9280CA8F800000020D0E705F4B8
:104BE0008040B0F5804F02D14FF40050C8E705F483
:104BF0000040B0F5004F02D14FF48050C0E74FF4B1
:104C00008030BDE70000002010B50146184800685C
:104C1000C0084FF47A74B0FBF4F041F2883400FB22
:104C200004F300BF181EA3F1010302D14FF00040AE
:104C300010BD4A6B02F045000028F3D002F400607A
:104C40000028EFD1486B00F0040010B10420886305
:104C5000EEE7486B00F0010010B101208863E7E740
:104C6000486B00F0400008B1402088630020DFE777
:104C7000000000202DE9F04389B004460F46FDF7FF
:104C80003BFA81464FF000080020019002903E461A
:104C900008212068FFF76EFC05461DB1284609B0C3
:104CA000BDE8F0835022125B11042068FFF727FC57
:104CB00005460DB12846F2E74FF0FF30039008207B
:104CC00004903020059002200690002007900120DB
:104CD000089003A92068FFF7ACFB2068FFF739FDB7
:104CE00005460DB12846DAE71CE02068406B00F469
:104CF000001040B12068FFF7E4FB01A941F828004B
:104D000008F1010805E02068406B00F4005000B98C
:104D10000EE0FDF7F1F9A0EB0900401C10B94FF0CF
:104D20000040BCE72068406B00F02A000028DCD07F
:104D300000BF2068406B00F0080018B1082021680F
:104D40008863ACE72068406B00F0020018B10220D5
:104D500021688863A3E72068406B00F0200018B149
:104D60002020216888639AE740F23A5021688863DE
:104D700002980006029901F47F4140EA012002995D
:104D800001F47F0140EA1120029940EA116030608D
:104D9000361D01980006019901F47F4140EA012087
:104DA000019901F47F0140EA1120019940EA116064
:104DB0003060002073E730B58FB0044601200390C7
:104DC0002068FFF750FB18B94FF080600FB030BD7E
:104DD000606C03281BD02068FFF789FC05460DB1E5
:104DE0002846F3E700212068FFF742FB60670421B3
:104DF0002068FFF73DFBA06708212068FFF738FB1C
:104E0000E0670C212068FFF733FB80210851606CBC
:104E1000032807D003A92068FFF7D3FC05460DB18E
:104E20002846D3E7606C032820D0BDF80C1021651C
:104E30005022125B11042068FFF772FC05460DB189
:104E40002846C3E700212068FFF712FB60660421B3
:104E50002068FFF70DFBA06608212068FFF708FB1C
:104E6000E0660C212068FFF703FB2067042120681F
:104E7000FFF7FEFA010DE16404A92046FDF7E2FD0B
:104E800010B14FF08050A1E75020005B01040A46AA
:104E900000232068FFF70EFC05460DB1284695E774
:104EA000D4E90412A069CDE90012029094E80F0041
:104EB000FFF7E4FA002089E7F8B5044600200090E7
:104EC000002600272068FFF78DFB05460DB1284618
:104ED000F8BD2068FFF79CFB054645B10021A164A1
:104EE0002068FFF77FFB05461DB12846F0E701214A
:104EF000A164A06C012808D100212068FFF7FFFA07
:104F0000054615B14FF08050E2E71DE00021206812
:104F1000FFF7F5FA05460DB12846D9E7184920688C
:104F2000FFF70AFB054615B14FF08050D0E700218E
:104F30002068FFF79DFA0646012080EAD67080F0CF
:104F400001070098401C00904FF6FF7100988842BE
:104F500001D2002FDAD04FF6FF710098884202D3B9
:104F60004FF08070B4E706F08040B0F1804F02D17E
:104F70000120606401E0002060640020A8E70000D8
:104F8000000010C170B504460D4615B94FF0006021
:104F900070BD5022125B11042068FFF7F6FB064635
:104FA0000EB13046F4E700212068FFF761FA28606F
:104FB0000020EDE77CB50446002000900190002120
:104FC0002068FFF755FA00F00070B0F1007F02D1C1
:104FD0004FF400607CBD69462046FFF74BFE054656
:104FE0000DB12846F6E7019800F4803098B15022C0
:104FF000125B11042068FFF782FA05460DB12846BE
:10500000E8E700212068FFF7D1FA05460DB12846F0
:10501000E0E70020DEE74FF08060DBE77CB5044688
:1050200000200090019000212068FFF721FA00F095
:105030000070B0F1007F02D14FF400607CBD694682
:105040002046FFF717FE05460DB12846F6E7019802
:1050500000F4802098B15022125B11042068FFF701
:105060004EFA05460DB12846E8E702212068FFF711
:105070009DFA05460DB12846E0E70020DEE74FF037
:105080008060DBE77CB504460D461646164800688E
:105090001821B0FBF1F01549B0FBF1F04FF47A7133
:1050A000484301906068B0F5827F0DD12B46002205
:1050B00080212046009600F01BF898B1606D40F00A
:1050C0002000606503207CBD00BF019800B908E0A6
:1050D0000198401E019020688068C0F3C01000282D
:1050E000F3D100BF0020EEE70000002040420F0097
:1050F0002DE9F84F04460D4690461E46DDF82890EF
:10510000FCF7FAFFA0EB0900371AFCF7F5FF82461F
:105110002C480068C0F3CB307843009045E0701C09
:10512000002842D0FCF7E8FFA0EB0A00B84200D20A
:10513000A7BB2068406820F0E000216848606068F4
:10514000B0F5827F0DD1A068B0F5004F03D0A06804
:10515000B0F5806F05D12068006820F0400021681C
:105160000860A06AB0F5005F0DD100BF206800683C
:1051700020F40050216808602068006840F4005066
:105180002168086000BF012084F8510000BF0020A2
:1051900084F8500000BF0320BDE8F88FFFE70098B7
:1051A00000B900270098401E0090206880682840C1
:1051B000A84201D1012000E000204045AFD10020ED
:1051C000EAE700000000002010B5FCF79BFF3CF070
:1051D000DFFA012801D03CF0A5F810BD03480068B3
:1051E00040F47000014908607047000088ED00E05D
:1051F00010B50248FEF7ADFB10BD00009808002076
:1052000070B50546AC6B0020E085E0842046FEF7D3
:1052100070FC70BD0168C96821F490710268D160AA
:105220000168496921F0010102685161016B01299E
:1052300005D10168C96821F010010268D160202100
:1052400080F83E1000210163704710B504462068C5
:10525000C06820F040002168C860202084F83D002C
:105260002046FEF77FFE002010BD70B5044694F87E
:105270003E00222856D1A068B0F5805F0CD120698D
:1052800050B90025A66A20684068C0F30800308045
:10529000A06A801CA06215E0A56A0026A068B0F58F
:1052A000805F03D0A06828B9206918B920684068D9
:1052B000287004E02068406800F07F002870A06A31
:1052C000401CA062E08D401E80B2E08540BB20689B
:1052D000C06820F020002168C8602068C06820F401
:1052E00080702168C8602068406920F00100216852
:1052F0004861202084F83E00206B01280AD12068F4
:10530000C06820F010002168C860A18D2046FEF71B
:10531000EFFB02E02046FEF7E1FD0020206370BDB8
:105320000020FCE70220FAE72DE9F84F0446206848
:10533000006920F44050E168084321680861216950
:10534000A068084361690843E16908430090206848
:10535000C06849F20C618843009908432168C8601D
:105360002068406920F44070A169084321684861C1
:1053700076492068884203D075492068884203D165
:10538000FDF746F8814602E0FDF732F88146E06914
:10539000B0F5004F6CD102206168A0FB01500346BC
:1053A0001920A9FB007001462A463846FAF7F9FF92
:1053B0006421B0FBF1F04FEA001A02206168A0FB03
:1053C00001510B461920A9FB00712A463846FAF70D
:1053D000E8FF834602206168A0FB015003461920C4
:1053E000A9FB00712A463846FAF7DBFF6421B0FBBF
:1053F000F1F000EBC00101EB0010ABEB80003221BB
:1054000001EBC0006421B0FBF1F000F0F8000AEB02
:10541000400A02206168A0FB015003461920A9FB45
:10542000007001462A463846FAF7BBFF8346022041
:105430006168A0FB015003461920A9FB00712A46B0
:105440003846FAF7AEFF6421B0FBF1F000EBC00183
:1054500001EB0010ABEB8000322101EBC0006421B6
:10546000B0FBF1F000F007005044216888606AE06A
:1054700004206168A0FB015003461920A9FB0070BD
:1054800001462A463846FAF78CFF824604206168B6
:10549000A0FB015003461920A9FB007001462A46D3
:1054A0003846FAF77EFF6421B0FBF1F000EBC00153
:1054B00001EB0010AAEB8000322101EB0010642107
:1054C000B0FBF1F000F0F00A04206168A0FB01706D
:1054D00003461920A9FB00513A462846FAF761FF16
:1054E0006421B0FBF1F00AEB001A04206168A0FB14
:1054F00001510B461920A9FB00712A463846FAF7DC
:1055000050FF834604206168A0FB01500346192028
:10551000A9FB007001462A463846FAF742FF64218B
:10552000B0FBF1F000EBC00101EB0010ABEB800031
:10553000322101EB00106421B0FBF1F000F00F000C
:10554000504421688860BDE8F88F000000100140D9
:105550000014014010B5034699629A85DA8500204F
:105560001864222083F83E0000BF002083F83C002E
:1055700000BF1868C06840F480701C68E06018685C
:10558000406940F001001C6860611868C06840F024
:1055900020001C68E060002010BD014691F83D002D
:1055A000212828D18868B0F5805F0BD1086948B9F7
:1055B0000A6A1088C0F308000B685860086A801CEB
:1055C000086205E00B6A581C086218780B6858607E
:1055D000C88C401E80B2C88458B90868C06820F0E2
:1055E00080000B68D8600868C06840F040000B6815
:1055F000D860002070470220FCE7000070B500244E
:105600000F4D1048FEF780FA00BF03E0641CAC4267
:1056100000D904E00B48FEF76DFA2028F6D100BF50
:10562000002403E0641CAC4200D906E001220649D4
:105630000448FEF731FC0028F4D100BF70BD000023
:10564000FFFF0100F40700201A00002000BFFEE762
:1056500003B401984100009850EAC12018BF04200B
:105660004A0D18BF40F0010040F2FF72B2EB515FEB
:1056700008BF40F00200012808BF052002B07047B3
:1056800002480068C0F30220704700000CED00E003
:1056900010B5002804DB0A07130E054A135406E070
:1056A0000A07140E034A00F00F031B1FD45410BD49
:1056B00000E400E018ED00E070B50446002508E0C5
:1056C0002168481C20600878303805EB850100EB24
:1056D00041052168087800F004F80028F0D1284638
:1056E00070BD0146302903DB392901DC01207047F8
:1056F0000020FCE730380A2801D201207047002042
:105700007047000010B54021074801F0E3FA00227D
:105710000421064830F05EFD0549086002F056FE9F
:1057200000200449087010BD50B200209984000880
:10573000980200209402002030B50346B1F90040E1
:10574000B2F90050AC4202DDB1F9004001E0B2F91B
:1057500000401C80B1F90240B2F90250AC4202DDB7
:10576000B1F9024001E0B2F902405C80B1F90440B5
:10577000B2F90450AC4202DAB1F9044001E0B2F9E6
:1057800004409C80B1F90640B2F90650AC4202DAFE
:10579000B1F9064001E0B2F90640DC800120B3F91E
:1057A0000040B3F90450AC4205DCB3F90240B3F950
:1057B0000650AC4200DD002030BDF8B504460D4671
:1057C00016460027B4F90000B5F90010884212DB34
:1057D000B4F90200B5F9021088420CDBB4F90400F8
:1057E000B5F90410884206DCB4F90600B5F90610D4
:1057F000884200DC01270FB90020F8BD0EB9012056
:10580000FBE72088ADF800006088ADF80200324662
:105810006946284600F0A7F808B90020EDE7A088FF
:10582000ADF800006088ADF80200324669462846AF
:1058300000F099F808B90020DFE72088ADF80000F3
:10584000E088ADF8020032466946284600F08BF841
:1058500008B90020D1E7A088ADF80000E088ADF8D5
:10586000020032466946284600F07DF808B900205B
:10587000C3E70120C1E70246B2F90000B1F90430E4
:10588000984213DCB2F90400B1F9003098420DDB04
:10589000B2F90200B1F90630984207DCB2F906000D
:1058A000B1F90230984201DB012070470020FCE78B
:1058B000F8B504460D461646B4F90400B5F90010D3
:1058C000884211DBB4F90600B5F9021088420BDBFF
:1058D000B4F90000B5F90410884205DCB4F90200FF
:1058E000B5F90610884201DD0120F8BD0EB900208F
:1058F000FBE72088ADF800006088ADF80200324672
:105900006946284600F02FF808B10020EDE7A0888E
:10591000ADF800006088ADF80200324669462846BE
:1059200000F021F808B10020DFE72088ADF8000082
:10593000E088ADF8020032466946284600F013F8C8
:1059400008B10020D1E7A088ADF80000E088ADF8EC
:10595000020032466946284600F005F808B10020EA
:10596000C3E70120C1E72DE9FC5F05460E4614465A
:105970004FF0000AB6F90000B5F90010884213DBB9
:10598000B6F90000B5F9041088420DDCB6F9020042
:10599000B5F90210884207DBB6F90200B5F9061026
:1059A000884201DC4FF0010ABAF1000F02D1002059
:1059B000BDE8FC9F002C01DC0120F9E728461CF023
:1059C00034FB834600EBDB70471028461CF0A5FA39
:1059D000834600EBDB704FEA6008474501DA384642
:1059E00000E0404681464C4500DD4C462888ADF835
:1059F00000002888204400B2ADF804006888ADF8A3
:105A000002006888204400B2ADF80600002231464A
:105A10006846FFF7A8FF80B1BDF80400204400B23B
:105A2000ADF80400BDF80600204400B2ADF8060051
:105A3000314668462CF098FFBAE7E888001B00B2B0
:105A4000ADF80200E888ADF806000022314668464D
:105A5000FFF789FF80B1BDF80400204400B2ADF823
:105A60000400BDF80200001B00B2ADF80200314690
:105A700068462CF079FF9BE7A888001B00B2ADF8C0
:105A80000000A888ADF80400002231466846FFF700
:105A90006AFF80B1BDF80000001B00B2ADF8000045
:105AA000BDF80200001B00B2ADF8020031466846A6
:105AB0002CF05AFF7CE76888ADF802006888204423
:105AC00000B2ADF80600002231466846FFF74BFFF2
:105AD00080B1BDF80000001B00B2ADF80000BDF8B9
:105AE0000600204400B2ADF80600314668462CF0AE
:105AF0003BFF5DE701205BE710B5B1F90030B2F97B
:105B00000040A34202DAB1F9003001E0B2F90030FE
:105B10000380B1F90230B2F90240A34202DAB1F9CE
:105B2000023001E0B2F902304380B1F90430B2F939
:105B30000440A34202DDB1F9043001E0B2F90430BF
:105B40008380B1F90630B2F90640A34202DDB1F913
:105B5000063001E0B2F90630C38010BD2DE9FF41E7
:105B6000044630F0D8FA05460020039034B1474986
:105B7000E0680860204630F045FC03E01FF0B2F812
:105B8000424908604149096808692CF01DFE3F48F8
:105B90000068406920B13D49096848692CF014FE4D
:105BA0003A490968C8692CF00FFE38490968086A43
:105BB0002CF00AFE35480068006940B900203349DE
:105BC0000968A1F8500100BF00BFBDE8FF812DF0BA
:105BD000CBF92DF011F92D480068B0F850010028DC
:105BE0004BD02A4800680068007CC0F34000E8B150
:105BF000264800681FF0F4F8401E06B223480068EB
:105C00001FF088F8401E07B23B460022114601A84B
:105C100000961CF04FFA01A81C4909680968896BB5
:105C200048601A48006807F0B7FB00BF4FF4807166
:105C300016480068303027F052F8202113480068D9
:105C400000F5987027F04BF8002010490968A1F87A
:105C50005001284630F052FA03900C480068006862
:105C6000406A50B109490968086808490968096823
:105C70004B6A07490A680399984726F067FD00F0C8
:105C80003FF800F007F800BF9FE700005801002030
:105C90005401002010B5002416E0C4EBC4000C49E8
:105CA00051F8200030B1C4EBC401094A52F8210078
:105CB00026F0FEFDC4EBC401054A02EB81001C2165
:105CC00027F00DF8601CC4B2042CE6DB10BD000008
:105CD0002CB300200146094A10680BE042688A4252
:105CE00002D002688A4204D1027E22F00102521CD4
:105CF000027640690028F1D1704700002C01002095
:105D00007047000010B50421014800F0E3FF10BD0A
:105D100044B2002010B51C21014800F0DBFF10BD8B
:105D20005CB200202DE9FF4F8BB004469A46199DC6
:105D3000BAF1000F11D11898B0F5807F0DD1002075
:105D4000208060800C98401E00B2A0800D98401EFC
:105D500000B2E0800FB0BDE8F08FB5F9000040421E
:105D6000189948430121C1EB202000B22080B5F9E9
:105D700002004042189948430121C1EB202000B2A3
:105D80006080B5F900100C98401A18994843022118
:105D900001EB202000B2A080B5F902100D98401A46
:105DA00018994843022101EB202000B2E080BAF1AB
:105DB000000F14D120882988084400B22080608810
:105DC0006988084400B26080A0882988084400B22D
:105DD000A080E0886988084400B2E080BAE70A2021
:105DE0009AFBF0F00A900A98401C09900A9800EB80
:105DF0008000AAEB400B0A9800B230F089FC0890B2
:105E0000099800B230F084FC07900A985A3000B22A
:105E100030F07EFC069009985A3000B230F078FCE1
:105E20000590CBF10A0108984143079800FB0B103D
:105E30000A2190FBF1F6CBF10A010698414305983F
:105E400000FB0B100A2190FBF1F776117F11B4F9DA
:105E50000080B4F9029007FB08F006FB19002988BE
:105E600001EBA02000B2ADF8100006FB08F007FB24
:105E70000900698801EBA02000B2ADF81200B4F966
:105E80000480B4F9029007FB08F006FB190029888A
:105E900001EBA02000B2ADF80C0006FB08F007FBF8
:105EA0000900698801EBA02000B2ADF80E00B4F93A
:105EB0000080B4F9069007FB08F006FB190029885A
:105EC00001EBA02000B2ADF8080006FB08F007FBCC
:105ED0000900698801EBA02000B2ADF80A00B4F90E
:105EE0000480B4F9069007FB08F006FB1900298826
:105EF00001EBA02000B2ADF8040006FB08F007FBA0
:105F00000900698801EBA02000B2ADF80600BDF9D8
:105F10000800BDF91010884202DABDF9080001E05E
:105F2000BDF91000BDF90410BDF90C20914202DA50
:105F3000BDF9041001E0BDF90C1088420BDABDF97F
:105F40000800BDF91010884202DABDF908000DE022
:105F5000BDF910000AE0BDF90400BDF90C1088423B
:105F600002DABDF9040001E0BDF90C002080BDF9A2
:105F70000800BDF91010884202DDBDF9080001E0FB
:105F8000BDF91000BDF90410BDF90C20914202DDED
:105F9000BDF9041001E0BDF90C1088420BDDBDF91C
:105FA0000800BDF91010884202DDBDF908000DE0BF
:105FB000BDF910000AE0BDF90400BDF90C108842DB
:105FC00002DDBDF9040001E0BDF90C00A080BDF9BF
:105FD0000A00BDF91210884202DABDF90A0001E098
:105FE000BDF91200BDF90610BDF90E20914202DA8A
:105FF000BDF9061001E0BDF90E1088420BDABDF9BB
:106000000A00BDF91210884202DABDF90A000DE05B
:10601000BDF912000AE0BDF90600BDF90E10884274
:1060200002DABDF9060001E0BDF90E006080BDF99D
:106030000A00BDF91210884202DDBDF90A0001E034
:10604000BDF91200BDF90610BDF90E20914202DD26
:10605000BDF9061001E0BDF90E1088420BDDBDF957
:106060000A00BDF91210884202DDBDF90A000DE0F8
:10607000BDF912000AE0BDF90600BDF90E10884214
:1060800002DDBDF9060001E0BDF90E00E08000BFB1
:1060900060E62DE9F74F86B0044620680590B4F914
:1060A00008100798A0EB0108B4F90A100898A0EBB3
:1060B0000109E089B0F5807F13D1206B00FB08F067
:1060C000E16A01FB1901606A00EBA10BE06A00FBC9
:1060D00008F0216B01FB0901A06A00EBA10004900C
:1060E0002FE0A08980B9A06B00FB08F04FEA601890
:1060F000A06B00FB09F04FEA6019606A00EB080B27
:10610000A06A484404901CE0A06B00FB08F04FEA32
:106110006018A06B00FB09F04FEA6019206B00FBD0
:1061200008F0E16A01FB1901606A00EBA12BE06A4B
:1061300000FB08F0216B01FB0901A06A00EBA12024
:1061400004904FEA2B2604980712B4F90400B042D9
:1061500003DC002009B0BDE8F08F002E01DA00203A
:10616000F8E7B4F90600B84201DC0020F2E7002F9E
:1061700001DA0020EEE73420005DC0F3800050B368
:106180003420005DC0F3400078B90225B4F9040062
:106190007843684306FB050A059800EB0A012A4686
:1061A00004F1140026F049FD2CE00325B4F90400A5
:1061B0007843684306FB050A6A1E059800EB0A014E
:1061C00004F1140026F039FD0AEB0500401E059984
:1061D000095CA17516E04FF0000A0025208A0346ED
:1061E0003AB231B2019004F1180023F0E9F90290BB
:1061F000BDF80800A0823AB231B204F1180023F0D1
:106200003FF9A0753420005D00F00100B0B14FF4FB
:106210007F40002100F47C4241EA5211C0F3C402E5
:1062200011430191BDF8042011460291A08ABDF8E6
:106230000810884201D100208CE700BFE07C08B93B
:10624000012087E70FFA8BF1A187049801B2E1875B
:1062500031B24020015339B242200153C4F844A066
:1062600084F84850204600F003F80390039871E743
:106270002DE9F04F8DB00446D4F8009094F83C001E
:106280000C9094F83E000B900C9870280BDA4FF0AD
:10629000FF35B4F940002844002800DA00250C98A6
:1062A0008030C7B213E00C9890280EDD0125B4F9B8
:1062B00040002844B4F90410884200DB00250C9803
:1062C000C0F1FF008030C7B201E00025FF270B9826
:1062D00070280CDA4FF0FF36B4F942003044002841
:1062E00000DA00260B98803000F0FF0815E00B98CC
:1062F00090280FDD0126B4F942003044B4F90610AD
:10630000884200DB00260B98C0F1FF00803000F0CF
:10631000FF0802E000264FF0FF08A08A0A90A07D47
:10632000069000200590049003903420005DC0F397
:10633000800000285BD094F84800626C00FB0520C8
:1063400000EB0901022209A826F077FCA28894F844
:10635000480012FB00F2606C02FB060000EB090132
:10636000022208A826F069FCA28894F8480012FBD3
:1063700000F2606C02FB060294F8480000FB052066
:1063800000EB0901022207A826F057FC3420005D2B
:10639000C0F3400000287ED094F84800616C00FBF8
:1063A00005110844401E19F800000590A18894F8D2
:1063B000480011FB00F1606C01FB060194F84800F5
:1063C0000844401E19F800000490A18894F8480081
:1063D00011FB00F1606C01FB060194F8480000FB22
:1063E00005110844401E19F80000039053E0208A6C
:1063F0000090B4F942204020005B284401B204F12F
:106400001800009B23F0DCF80990208A00904220BD
:10641000005B304402B2B4F9401004F11800009B54
:1064200023F0CEF80890208A00904220005B304490
:1064300002B24020005B284401B204F11800009B26
:1064400023F0BEF807903420005DC0F3400010B385
:10645000B4F942204020005B284401B204F1180046
:1064600023F00EF805904220005B304402B2B4F9EC
:10647000401004F1180023F003F804904220005B60
:10648000304402B24020005B284401B204F11800FD
:1064900022F0F6FF0390BA46BB463420005DC0F3FD
:1064A0004000E0B306987843C7F1FF0C059B03FB5F
:1064B0000C00C0F3072104987843C7F1FF0C039B3D
:1064C00003FB0C00C0F3072201FB08F0C8F1FF0337
:1064D00002FB0300030AA375022905DC022A03DC80
:1064E00000200DB0BDE8F08F022901DC4FF000085C
:1064F000022A01DC4FF0FF080698022801DC4FF069
:10650000000A0598022801DC4FF0FF0A04980228CF
:1065100001DC4FF0000B0398022803DC00E002E0EE
:106520004FF0FF0B03E0BA46BB46FF21A175BAF15D
:10653000000F02D1099802900BE0BAF1FF0F02D1CF
:106540000A98029005E05246DDE909101DF05AFE56
:106550000290BBF1000F02D1079801900BE0BBF154
:10656000FF0F02D10898019005E05A46DDE90710B7
:106570001DF048FE0190B8F1000F03D1BDF80400F2
:10658000A0820FE0B8F1FF0F03D1BDF80800A08290
:1065900008E04246DDE901101DF034FE0090BDF830
:1065A0000000A08201209CE72DE9F05F0446B4F9C9
:1065B000080001026162B4F90A000102A162B4F9A3
:1065C0000C000A2190FBF1F56F1CB4F90C0005EBEF
:1065D0008501A0EB4106684200B230F099F8804690
:1065E000784200B230F094F88146C5F15A0000B20A
:1065F00030F08EF88246C7F15A0000B230F088F8C9
:106600008346C6F10A0000FB08F009FB06000A21D8
:1066100090FBF1F1E162C6F10A0000FB0AF00BFB0E
:1066200006000A2190FBF1F12163E06A4111E16269
:10663000206B41112163A07C23F0D1F83421095D46
:1066400060F3000134200155A07C23F0ABF8342125
:10665000095D60F3410134200155A07C042805D078
:10666000A07C052802D0A07C062807D13420005D3C
:1066700020F00400001D3421085505E03420005DA1
:1066800020F004013420015521682162A06920F026
:10669000E000A061A17CA06961F30400A061A18871
:1066A000A06961F39420A061E188A06961F35F5063
:1066B000A061E08900EBD071491001F5001191FB58
:1066C000F0F2A263FF21A175208AA082BDE8F09FAD
:1066D0002DE9F743054616460024134C2FF01BFD09
:1066E0008046334629462046019A23F027FD074677
:1066F0005FB900BF00BF2C21204626F0F0FA4FF012
:106700000040A0620020BDE8FE830020A062E06996
:1067100018B940462FF0F2FCE061E06908B90120A9
:10672000E0612046EFE7000080B2002010B51421A0
:10673000114800F0CFFA23F0B3FC044600BF1CB9A7
:1067400000BF00BF00BFFEE700BF14B900BF00BF1D
:1067500010BD0A49204623F08BFD0949204623F04D
:1067600089FD0849204623F087FD0749204623F08C
:106770007DFD00BFECE7000068B20020BD98020874
:10678000919D0208AD9F02088598020870B50446E5
:106790000D461021284626F0A2FA2068007801282C
:1067A00004D1208A2880608A68800CE02068007804
:1067B000022802D1E068686005E0206800780428BB
:1067C00001D10A2068602068406820B1206829460D
:1067D0004268904701E000BF00BF70BD2DE9FE4355
:1067E0000446A66AEEB9A18A208A084401B2A182B1
:1067F000E18A608A084401B2E18220460FF04EFD32
:1068000006460EB9BDE8FE83204615F07DF900224C
:106810000921304621F03AFF6078C0F3400000B112
:10682000F0E7208A10B9608A002870D0002002901A
:10683000019094F83C0000F00F00032812D130467C
:1068400028F006FB0746304628F08AFA80460320E7
:106850000090B4F910103B46424630460DF0B0FDB2
:10686000029012E0304628F075FB0746304628F0CB
:10687000E9F980460C200090B4F9121043463A46DC
:1068800030460DF09DFD019000BF304628F03AFAE9
:10689000054605F0010028B9BDF90800002801DD12
:1068A0000020029005F0020028B9BDF90800002878
:1068B00001DA0020029005F0040028B9BDF90400B7
:1068C000002801DD0020019005F0080028B9BDF97D
:1068D0000400002801DA0020019001AA02A9204644
:1068E00034F04CFC0023BDF90420BDF908103046FB
:1068F0002BF00EFAA08ABDF80810084401B2A1825C
:10690000E08ABDF80410084401B2E18200BF00BF74
:1069100078E72DE9F84F0446D4F828B0BBF1000F12
:1069200001D1BDE8F88F94F83C0000F00F0000B9E9
:10693000F7E723F085FF06463068477E402158463A
:1069400029F010FF10B9002161832183584628F0F7
:10695000EDFA8046584628F0F3FA054694F83C00D4
:1069600000F00F000C2843D1002121831DBBB4F996
:106970001A00C7F164014843642190FBF1F001B2B1
:106980006183584628F05EF98146584628F0E2FABD
:1069900082460C200090B4F91A104B4652465846D5
:1069A0000DF00EFD6083B4F91A20002319465846F5
:1069B0002BF0AEF969E0204634F037FC009000215E
:1069C00061836A46204634F0D9FBBDF9003041F6B8
:1069D000FF72514258460FF009FE8146BDF8000093
:1069E000484402B20123002158462BF091F94CE0B3
:1069F00094F83C0000F00F00032846D10021618389
:106A0000B8F1000F23D1B4F91800C7F1640148436D
:106A1000642190FBF1F001B22183584628F0A0F9DF
:106A20008146584628F014FA824603200090B4F9B3
:106A3000181053464A4658460DF0C2FC2083B4F95C
:106A4000181000231A4658462BF062F91DE0204624
:106A500034F0D0FB009000212183002269462046BB
:106A600034F08CFBBDF9003041F6FF7251425846BC
:106A70000FF022FD8146BDF80000484401B2012319
:106A8000002258462BF044F900BF208B002860D12B
:106A9000608B00285DD11DBB584628F05BFA81460B
:106AA000584628F0CFF88246B9F1000F02DCBAF15F
:106AB000000F14DDB9F1000F06DA01234A46002168
:106AC00058462BF025F90AE0BAF1000F07DA012346
:106AD000CAF1000002B2002158462BF019F900BF9C
:106AE000B8F1000F23D1584628F03AF981465846AC
:106AF00028F0AEF98246B9F1000F02DCBAF1000FBE
:106B000014DDB9F1000F06DA012300224946584688
:106B10002BF0FEF80AE0BAF1000F07DA0123002299
:106B2000CAF1000001B258462BF0F2F800BF32461D
:106B30000A21584621F0AAFD6078C0F3400000B158
:106B4000EFE694F83C0020F00F0184F83C1000219F
:106B5000A16200BFE5E62DE9FF4104460F4614B9E6
:106B60001EF0C0F804460CB9BDE8FF811FB9002033
:106B7000A4F85001F8E70020ADF80800ADF80A00CD
:106B800020461EF0C7F8401E00B2ADF80C002046AB
:106B90001EF026F9401E00B2ADF80E0002AA3946DA
:106BA0006846FEF7C9FD064606B9DDE72068007CA9
:106BB000C0F3400060B10298206303986063012035
:106BC000A4F85001606810B160682FF027FCCBE793
:106BD0002068806918B1206869468269904700255D
:106BE0000BE004F1300000EBC50100226846FEF71F
:106BF000E4FD00B1B8E7681C85B2B4F85001A842C2
:106C0000EFDCB4F85001202809DAB4F8502104F17F
:106C1000300101EBC20069461BF0EFF80BE00020E9
:106C2000A4F85001B4F8502104F1300101EBC20086
:106C300002A91BF0E2F8B4F85001401CA4F850017E
:106C4000606810B160682FF0E9FB00BF8CE770B599
:106C50000546284600F013F8044600260CE02146BD
:106C6000284600F024F806462146284600F086F81B
:106C7000204625F01DFE3446002CF0D170BD0146A3
:106C800009B9002070474868FCE770B50646002443
:106C90003046FFF7F4FF054605E0641C2946304600
:106CA00000F005F80546002DF7D1204670BD0246DC
:106CB0000B461068001D03441868704702460B46D7
:106CC0001068034418687047014609B900207047EE
:106CD0008868FCE7002242608260CA1C22F003013F
:106CE0000160704770B50446216801F1080025F085
:106CF00011FD0546A5B100222946204631F022F9B2
:106D000029462046626831F00FF9606820B12A46B2
:106D10002046616831F016F96560A06800B9A56089
:106D2000284670BD70B50446216801F1080025F0C1
:106D3000F1FC0546A5B100222946204631F0F4F8C1
:106D400029462046A26831F0FDF8A06820B12A4605
:106D50002046A16831F0E8F8A560606800B9656078
:106D6000284670BD014609B901207047486818B926
:106D7000886808B90120F8E70020F6E72DE9F0411E
:106D800004460D460CB9BDE8F0812046FFF777FFB9
:106D9000A8420FD129462046FFF789FF606060684E
:106DA00010B90020A0602FE000222046616831F079
:106DB000C9F829E02046FFF787FFA8420FD12946EE
:106DC0002046FFF77BFFA060A06810B9002060603C
:106DD0001AE000222046A16831F0A6F814E0294606
:106DE0002046FFF76BFF064629462046FFF75FFF68
:106DF00007463A463146204631F096F83246394643
:106E0000204631F09FF800BF00BFBCE710B5044634
:106E10002068806818B12068214682689047206801
:106E2000006828B12068006820602046FFF7EEFF68
:106E300010BD0146886818B18868B0F9160070471F
:106E40000020FCE72DE9F04F93B005468B469146B4
:106E50009A461C9E688C20F00400001D6884A5F8EA
:106E6000209032895946284629F0F8F91290A5F861
:106E700020A032895946284629F0F0F91190688CF3
:106E800020F004006884DDE9111088420CD1DDE9AE
:106E90001110884208D1BDF84800BDF8441088425E
:106EA00002D113B0BDE8F08FA5F820903289594681
:106EB000284629F0D3F91290A5F820A05946284673
:106EC00012F0F5FD10903189109A1068129A2DF089
:106ED000DEFD3089602833D147F6FF711298884271
:106EE00002D0119888422BD1284629F0DEFB0F9062
:106EF00000EBD0704710284629F0D7FB0F9000EB2D
:106F0000D0704FEA600847F6FF711298884208D1A6
:106F1000781C08F10101884200DA01E008F1010063
:106F2000129047F6FF711198884208D1781C08F139
:106F30000101884200DA01E008F10100119000BF70
:106F40002448FFF7CFFE044600BF1CB900BF00BFB6
:106F500000BFFEE700BF04B9A3E71298E0601198F4
:106F60002061ACB325603089A080C4F808B06846C1
:106F70001AF00AF9214668461AF0B9F91649684626
:106F80001AF085F91548029000BF154968461AF0B5
:106F90008CF9FF22002168461AF099F93188684679
:106FA0001AF08BF9718868461AF06CF9F06806904F
:106FB00000BF6846002190F83E2061F3000280F88F
:106FC0003E2000BF3069059068461AF0A7F900BF5F
:106FD00000BF66E774B20020BDFD03086900040825
:106FE00099FF030810B514210148FFF773FE10BD87
:106FF00074B200202DE9FE4F04460F4690464FF034
:10700000000900256BE1E06800EBC5004068C0F3B3
:10701000406000B162E1E16801EBC501496821F01F
:107020007F402BF0CDFB064626EA070008B9012079
:1070300000E00020029026EA080008B9012000E0E4
:1070400000200190DDE90101814272D0E06850F832
:1070500035A04FF0000B6A4641F6100150462DF066
:10706000AFF910B14FF0010BA9E06A4641F61101EA
:1070700050462DF0A5F910B14FF0010B9FE06A4684
:1070800041F6120150462DF09BF910B14FF0010B63
:1070900095E06A4641F6130150462DF091F910B182
:1070A0004FF0010B8BE06A4641F6150150462DF07A
:1070B00087F910B14FF0010B81E06A4641F61401E7
:1070C00050462DF07DF910B14FF0010B77E06A4684
:1070D00041F2690150462DF073F910B14FF0010BE8
:1070E0006DE06A4643F20C0150462DF069F910B18B
:1070F0004FF0010B63E06A4643F20D0150462DF05C
:107100005FF910B14FF0010B59E06A4641F20101FD
:1071100050462DF055F910B14FF0010B4FE06A4683
:1071200041F2040150462DF04BF918B14FF0010B1C
:1071300045E0D2E06A4641F2020150462DF040F9A6
:1071400010B14FF0010B3AE06A4641F2030150469C
:107150002DF036F910B14FF0010B30E06A4641F2E4
:10716000050150462DF02CF910B14FF0010B26E02F
:107170006A4641F2060150462DF022F910B14FF057
:10718000010B1CE06A4641F2320150462DF018F91D
:1071900010B14FF0010B12E06A4643F60F01504662
:1071A0002DF00EF910B14FF0010B08E06A4643F6DE
:1071B0000E0150462DF004F908B14FF0010BBBF160
:1071C000000F02D00320BDE8FE8F6A4640F60A0198
:1071D00050462DF0F5F810B14FF002097CE06A46F8
:1071E00040F60B0150462DF0EBF810B14FF00209BC
:1071F00072E06A4643F60F0150462DF0E1F810B1F7
:107200004FF0020968E06A4643F60E0150462DF041
:10721000D7F810B14FF002095EE06A4640F63C0133
:1072200050462DF0CDF810B14FF0020954E06A46F7
:1072300040F63D0150462DF0C3F810B14FF0020961
:107240004AE06A4640F63A0150462DF0B9F810B1CE
:107250004FF0020940E06A464FF4046150462DF0B9
:10726000AFF810B14FF0020936E06A4640F645012A
:1072700050462DF0A5F810B14FF002092CE06A46F7
:1072800040F6410150462DF09BF810B14FF0020935
:1072900022E06A4640F6420150462DF091F810B1C6
:1072A0004FF0020918E06A4640F6430150462DF0BF
:1072B00087F810B14FF002090EE06A4640F6490126
:1072C00050462DF07DF810B14FF0020904E0B9F1FD
:1072D000000F01D14FF0010900BF00BF6D1C608C91
:1072E000C0F3C500A8423FF68EAE48466BE70000EB
:1072F00001480068704700005801002070470146AF
:10730000C1F30412072A00DD0722D0B27047000043
:1073100010B518210348FFF7DDFC01202EF096FF81
:1073200010BD000020B200202DE9F04105460F46B7
:1073300016460DB9BDE8F0812846F9F793FA804664
:10734000394628460A4A126890470746E8193146E6
:10735000074A1268904706463C4603E0A019285C9D
:107360002855641CA8EB0600A042F7D200BFE1E755
:10737000E40200202DE9F04106460C4617461D4662
:1073800029463046084A126890472060206830B18C
:10739000296888190021044A1268904700E00020FB
:1073A0003860BDE8F0810000DC0200202DE9F04FDC
:1073B00087B004460F4692469846DDE910560DB157
:1073C000002028801CB9002007B0BDE8F08F20788D
:1073D00008B90020F8E70FB90020F5E74FF00009E1
:1073E00006F0020010B906F0040098B1002000E099
:1073F000401C215C0A2905D0215C0D2902D0215CAA
:107400000029F5D1215C01B1401C15B14FF0FF31CD
:107410002980D9E706F0020008B141F6FF78002084
:107420000690059038E000200490059808B90120E6
:1074300000E0002006A904AACDE90062CDE902100F
:10744000059960184346524639462FF099F983460C
:107450000498A8EB00000FFA80F8049848440FFA4B
:1074600080F9BBF1000F00D11CE00598584405904D
:1074700020780A2802D020780D2800D112E0059843
:10748000205C0A2803D00598205C0D2803D10598BC
:10749000401C059006E000BF0598205C10B1B8F1D3
:1074A000000FC0DC00BF059870B905A92046094A45
:1074B00012689047834635B100225946384621F07C
:1074C0002AFA0FFA80F900BF0DB1A5F800900598CF
:1074D0007AE70000DC0200202DE9F04706468846E6
:1074E000174606B10FB9BDE8F0873046F9F7BAF98B
:1074F00081463846F9F7B6F9044604B9F3E704EBD8
:10750000090A414630460B4A126890478046554664
:1075100003E0281B305C70556D1E08EB0400A84288
:10752000F7D906EB08002246394625F092FB00BF4A
:10753000D9E70000E4020020024600200FA31B78D8
:107540008B4211D113781BB90123137001200BE07A
:107550001378012B02D10023137005E01378022B5E
:1075600002D10023137001201378012B04D12029AC
:1075700001D1022313700120704700002300000096
:1075800073B582B006460398019032460021084642
:10759000019B2FF011FC0546002001900024681C7F
:1075A00025F0B8F8044600BF1CB900BF00BF00BFFB
:1075B000FEE700BF14B9002004B070BD0020605584
:1075C0003246691C2046039B2FF0F6FB2046F3E76A
:1075D0002DE9F04781460E4614461F46DDF820A0EF
:1075E00035461BE0600800FB075529464846D04752
:1075F000B0F1000809DD04F0010080F00100C0EBEB
:107600005404E8190546064608E0B8F1000F02DA0E
:107610006408354602E02846BDE8F087002CE1D139
:107620000020F9E72DE9FF4F85B08346DDE9158A93
:10763000DDE91349DDE91775129E05F00200F8B97E
:107640004FB105F0010030B1B9F1000F02D105F0E2
:107650000C0000B17F1E03E030222046641C32542F
:10766000544501D2202CF7D303E030222046641C7D
:10767000325405F0010018B1BC4201D2202CF4D3E1
:1076800005F01000B0B305F4806050B94CB154451A
:1076900001D0BC4205D1641E1CB1B8F1100F00D15D
:1076A000641EB8F1100F09D105F0200030B9202C6C
:1076B00004D278222046641C325415E0B8F1100F31
:1076C00009D105F0200030B1202C04D258222046E8
:1076D000641C325408E0B8F1020F05D1202C03D20B
:1076E00062222046641C3254202C03D230222046D1
:1076F000641C3254202C16D2B9F1000F04D02D2274
:107700002046641C32540EE005F0040020B12B2208
:107710002046641C325406E005F0080018B120220F
:107720002046641C3254CDE90275CDE90064584608
:1077300006A90EC900F0A2F809B0BDE8F08F2DE946
:10774000FF4F8FB08046DDE91FABDDE91D96219D1F
:107750001C9C00270CB925F0100505F4806000B1D1
:10776000E4B100BFB4FBF6F106FB1141C8B20A2830
:1077700002DA00F1300107E005F0200109B14121F2
:1077800000E0612101440A39CBB239467F1C07AAC7
:107790005354B4FBF6F40CB1202FE3D307A8CDE982
:1077A00004AB8DE8810203960695404610A90EC9E8
:1077B000FFF738FF13B0BDE8F08F2DE9FF4F8FB012
:1077C000DDE9217BDDF89080209EDDE91C454FF04E
:1077D0000009002184EA01006940084301D128F032
:1077E000100808F4806028B1002184EA0100694093
:1077F00008432DD000BF32463B4620462946F8F7C5
:10780000D0FD02F0FF0ABAF10A0F02DA0AF13000E5
:1078100007E008F0200008B1412000E0612050445A
:107820000A38C2B2484609F1010907A90A5432468A
:107830003B4620462946F8F7B4FD04460D46002194
:1078400084EA01006940084302D0B9F1200FD2D385
:107850002398CDE9036BCDE9050807A91E98CDE96A
:10786000001902900FA80FC8FFF7DCFE13B0BDE8A7
:10787000F08F9A4200D28854704770472DE9FF5F1D
:1078800005461446DDE90EA6DDE91087A34607F09C
:10789000020078B907F0010060B9B14607E022465E
:1078A000641C2020039B0199A84709F10109C145E7
:1078B000F5D300BF08E02246641C711E0E461AF87C
:1078C0000100039B0199A847002EF4D107F00200A4
:1078D00050B105E02246641C2020039B0199A84773
:1078E000A4EB0B004045F5D3204604B0BDE8F09F63
:1078F00000BF70472DE9FF4F8BB0074600250C985D
:1079000000B9FA4FEAE20E98007825280AD02A46F4
:107910006D1C0E990878DDE90C13B8470E98401CD1
:107920000E90DBE20E98401C0E90002400BF0E98D3
:1079300000782B2819D004DC20281ED023282CD135
:1079400023E02D2809D0302827D144F001040E98D7
:10795000401C0E9001200A9022E044F002040E9890
:10796000401C0E9001200A901AE044F004040E9886
:10797000401C0E9001200A9012E044F008040E987A
:10798000401C0E9001200A900AE044F010040E986A
:10799000401C0E9001200A9002E000200A9000BFD7
:1079A00000BF0A980028C2D180460E990878FDF7DA
:1079B00098FE20B10EA8FDF77FFE804612E00E98DB
:1079C00000782A280ED1189901C91891002804DAE4
:1079D00044F00204C0F1000800E080460E99491C02
:1079E0000E9100BF4FF000090E9800782E281FD18D
:1079F00044F480640E98401C0E900E990878FDF7B0
:107A000070FE20B10EA8FDF757FE814610E00E98DB
:107A100000782A280CD1189901C91891002801DD95
:107A2000014600E0002189460E99491C0E9100BFD5
:107A30000E9800786C280AD004DC682816D06A28D2
:107A400035D128E0742820D07A2830D129E044F4B8
:107A500080740E98401C0E900E9800786C2804D10B
:107A600044F400740E98401C0E9021E044F0800411
:107A70000E98401C0E900E980078682804D144F0AF
:107A800040040E98401C0E9012E044F480740E984E
:107A9000401C0E900CE044F400740E98401C0E90B4
:107AA00006E044F480740E98401C0E9000E000BF85
:107AB00000BF0E98007869281DD00EDC622821D006
:107AC00006DC25287ED050281AD058287BD115E016
:107AD000632879D06428F9D10CE0732875D004DCD0
:107AE0006F280ED07028F1D109E0752804D07828CD
:107AF000ECD102E000BF00BF00BF00BF00BF00BF6D
:107B000000BF00BF0E980078782803D00E98007848
:107B1000582801D1102623E00E980078702803D051
:107B20000E98007850280CD1102644F0100444F42C
:107B300080740E984078562812D10E98401C0E90F2
:107B40000EE00E9800786F2801D1082608E00E9804
:107B50000078622801D1022602E00A2624F01004EF
:107B60000E980078582803D00E980078502801D13C
:107B700044F020040E980078692805D00E9800780B
:107B8000642801D024F00C0404F4806008B124F0CF
:107B900001040E980078692803D00E9800786428B4
:107BA0007CD104F40070B8B31898C01D20F0070011
:107BB0001890D0E900AB189A083218920020CDE94D
:107BC000069803E073E17CE1F2E01CE1CDE904609A
:107BD0000894BAEB00017BEB000001DA012000E021
:107BE0000020002102900846B1EB0A0170EB0B0067
:107BF00002DA5046594605E000200146B0EB0A0083
:107C000061EB0B01CDE900012A463846DDE90C1392
:107C1000FFF7D3FD0546C7E0FFE704F48070D0B15D
:107C2000189850F804AB18904FEADA70CDE9039831
:107C300002960594BAF1000F01DD514601E0CAF148
:107C40000001CDE900102A463846DDE90C13FFF7A4
:107C500076FD0546A8E004F0400028B1189810F819
:107C6000041B1890C8B20DE004F0800028B11898E9
:107C700030F8041B189008B204E0189800681899AE
:107C8000091D189182464FEADA70CDE903980296F1
:107C90000594BAF1000F02DD514602E00BE0CAF193
:107CA0000001CDE900102A463846DDE90C13FFF744
:107CB00046FD054678E00E980078562818D11898A9
:107CC00050F804AB1890DAF804000068099009989D
:107CD0000090DAF800300D98421B0C984119384694
:107CE000FFF708FE0544002009905DE07B7800085E
:107CF00004F40070D0B11898C01D20F00700CDE941
:107D00000698089418900020CDE904600290189914
:107D100003C9189A08321892CDE900012A4638465C
:107D2000DDE90C13FFF749FD05463DE004F48070E2
:107D300098B10022CDE9039802960594189800683E
:107D40001899091DCDE9000218912A463846DDE947
:107D50000C13FFF7F4FC054626E004F0400028B1C0
:107D6000189810F8041B1890C8B20DE004F08000B9
:107D700028B1189830F8041B189088B204E01898BD
:107D800000681899091D189182460020CDE900A0CD
:107D9000CDE90398029605942A463846DDE90C138E
:107DA000FFF7CDFC054600BF0E98401C0E9093E0F7
:107DB000012604F0020050B905E02A466D1C20207F
:107DC000DDE90C13B8473046761C4045F5D31899C9
:107DD00011F8043BD8B22A466D1C1891DDE90C134A
:107DE000B84704F0020050B105E02A466D1C20207F
:107DF000DDE90C13B8473046761C4045F5D30E98A4
:107E0000401C0E9068E0189850F804AB189050464B
:107E1000B9F1000F01D0494601E04FF0FF310A46A9
:107E2000014600E0491C0B781BB1131EA2F10102B0
:107E3000F8D10E1A04F4806028B14E4501D23046C4
:107E400000E04846064604F0020050B905E02A4624
:107E50006D1C2020DDE90C13B8473046761C4045E8
:107E6000F5D306E01AF8010B2A466D1CDDE90C1368
:107E7000B8479AF8000040B104F480600028F1D0BF
:107E8000B9F10000A9F10109ECD104F0020050B1F0
:107E900005E02A466D1C2020DDE90C13B84730466A
:107EA000761C4045F5D30E98401C0E9014E02A46EF
:107EB0006D1C2520DDE90C13B8470E98401C0E9070
:107EC0000AE02A466D1C0E990878DDE90C13B847C4
:107ED0000E98401C0E9000BF00BF00BF0E980078A7
:107EE00000287FF410AD0D98854201D2284601E0AC
:107EF0000D98401E02460020DDE90C13B8472846C5
:107F00000FB0BDE8F08FF0B5012A01D1072604E0DB
:107F1000022A01D1032600E00126354601EA0504C4
:107F200001269640761E33402E1B5643B3402CB993
:107F300001FB02F600EBD60633700BE001FB02F604
:107F400000EBD60636781E43F7B201FB02F600EBD3
:107F5000D6063770F0BD2DE9F04104460E460027E5
:107F600074B13146204600F03DF80546B5F5003FB6
:107F700005D20C2D01D9284600E00C20074600BF91
:107F80003846BDE8F08170B504460D462A462146C4
:107F9000012038F0D6FA70BD0269CA400261C26899
:107FA0000A44C2607047024600BF481E084018B12C
:107FB00000BF00BF00BFFEE700BF481E1040101A00
:107FC000704710B502464B1E13444C1E23EA0400B2
:107FD00000BF4B1E0B401BB100BF00BF00BFFEE740
:107FE00000BF10BD024600BF481E084018B100BFC8
:107FF00000BF00BFFEE700BF481E10444B1E984361
:10800000704770B50446204619F01DF8054629460C
:10801000204600F001F870BD70B506460C46601CA5
:1080200018F05DFF054635B122463146284618F066
:108030005CFF00202855284670BD00002DE9F04166
:1080400080460E46444601206086002500270DE04C
:1080500056F8270025A1F8F7EDFC10B1681C85B291
:1080600002E0608E401C6086781C87B256F82700BC
:1080700020B156F8270000780028E9D1208EA842C8
:1080800001D1BDE8F081A06A20B1A06A24F010FC03
:108090000020A062E06A20B1E06A24F009FC002020
:1080A000E062E80024F036FBA06200BFA06A18B9C5
:1080B00000BF00BF00BFFEE700BF680024F02AFB3E
:1080C000E06200BFE06A18B900BF00BF00BFFEE772
:1080D00000BFA06A08B1E06A00B900256900E06A43
:1080E00024F0FDFD258600BFCBE700000A0000005C
:1080F0002DE9F84F81460E46924699F8090000F0A6
:108100000700022801D1304600E05046834656451C
:1081100001DD304600E050460746032000EB4700F3
:1081200020F0030000F1100539480068394909685A
:10813000A0EB0108002405EB0800374909688842D4
:1081400006D233480468606820F0004060603AE07E
:1081500031480068854221D813E04FF0FF3000908D
:10816000002269462D4814F01FFA002269462C4867
:1081700014F01AFA2648006826490968A0EB01089D
:1081800000BF08EB0500244909688842E5D820486B
:108190000468606820F00040606014E0284624F025
:1081A000B9FA044600BF1CB900BF00BF00BFFEE71C
:1081B00000BF14B90020BDE8F88F606820F00040CF
:1081C00000F10040606032465946484602F0E1F84E
:1081D0002060606800F04040401C6060606820F0F3
:1081E00080406060A781A4F80EB06068C00F20B125
:1081F000204600F11001A16008E005480068103039
:10820000A060034800682844014908602046D2E77E
:1082100060010020AC0200205C0100207F620108A8
:10822000E9C70108F0B585B006460D463446002082
:1082300004900390029094F83C0000F0030020B1F9
:10824000012838D0022866D000BF94F83C0000F026
:1082500003005A49097888421BD02620005D00EBB4
:10826000001000EB4000142190FBF1F0544908701D
:108270002720005D00EB001000EB4000142190FB74
:10828000F1F05049087094F83C0000F003004B49AD
:10829000087002A803A9CDE9001005EB45014FF6CF
:1082A000FF7202EA410004AB46490A784449097862
:1082B0000DF059FB5FE094F83C0000F003003F49EB
:1082C000097888421AD0A08C00EB400040024FF49D
:1082D000B471B0FBF1F03C4908802720005D00EB51
:1082E000001000EB4000142190FBF1F035490870BC
:1082F00094F83C0000F003003049087002A803A97C
:10830000CDE90010E9B204AB2E4802782E4800886F
:108310000DF029FB2FE094F83C0000F00300274902
:10832000097888421AD0A08C00EB400040024FF43C
:10833000B471B0FBF1F0244908802620005D00EB09
:10834000001000EB4000142190FBF1F01C49087074
:1083500094F83C0000F003001849087002A803A933
:10836000EAB204ABCDE90010154801781648008840
:108370000DF0F9FA00BF00BF9DF810009DF80C1039
:108380009DF80820D708BDF8003067F304038F0874
:108390000093BDF8003067F34A13C7080093BDF897
:1083A000003067F3CF230093BDF800703B46019384
:1083B000BDF80410084605B0F0BD00001202002010
:1083C00010020020110200200E02002010B5012032
:1083D000074908700748FEF752FC20B906480068B4
:1083E0002EF010F803E0044800682EF017F810BDD6
:1083F0009402002050B200209802002010B50446DC
:1084000094F83E00C0F3400050B9A08F002807DD6B
:10841000A08F4FF6FF71884202D0A08F401EA08728
:10842000A08FA8B9606B20B194F83E00C0F3400063
:1084300070B121461748FEF7A1FCFFF7C7FFE068BF
:1084400010B12046E1688847204624F031FA1FE049
:10845000A06B4042E062606BD0B194F83E10C1F373
:10846000400111B9216B4942E16294F83E1049087C
:10847000C94394F83E2061F3410284F83E20E0694C
:10848000616AE1616062A06A616BA162606300BFC2
:1084900010BD000050B200202DE9F0418046424856
:1084A00000682DF02BFE06464048007880F0010061
:1084B0003E4908703E48FEF7E2FB04466BE00020B0
:1084C0003C49087094F83E00C0F3800037490978B1
:1084D000884253D0354801782C34A07C61F3820067
:1084E000A07420688719A07C2C3CC0F3C00010BB8E
:1084F000E06A00281FDC002F1DDB94F83E0000F02E
:10850000010060B9206950B12046216988470546BD
:10851000E0692844E061606A2844606200BFA068A6
:1085200010B12046A168884794F83E0020F008006A
:10853000083084F83E00E06A3044E062E06A0028D7
:108540001BDBD4E90A10884201DDA06AE062204604
:10855000A16988470546206AA84206D0256260685E
:1085600018B12946D4E900029047D4E90A1088429C
:1085700002DB2046FFF742FF00BF00BF0D48007836
:1085800020B10B48FEF77BFB044604E02146084877
:10859000FEF78DFB0446002C91D12DF0BCFD024965
:1085A0000860BDE8F08100009002002095020020E4
:1085B00050B2002094020020F7B582B004460E4667
:1085C00014B9049805B0F0BD00BF632231462046BF
:1085D00027F044FE0190019D00BFBDB12868A8B1FD
:1085E00000BF64223146204627F038FE01900198F2
:1085F000C0B207464FB13A462B68284604999847BF
:108600000190BDF80400ADF8100000BF0498D9E750
:1086100070B504460D46606818B129466068FFF7DA
:10862000F7FF206818B1294620462268904770BDA0
:1086300070B505460C46A1B2284619F00BFB70BD7B
:1086400070B505460C46A1B2284619F054FB70BD22
:1086500010B512F00DF810BD70B505460C46164663
:1086600006E028466A1C95B200F008F804F8010BF1
:10867000301EA6F101018EB2F3D170BD70B5044673
:10868000002612F0BFF82112A02202EB4101C8B26D
:1086900012F080F812F0FEF82546E11704EB1161A4
:1086A0000912A4EB0121C8B212F074F812F0F2F82A
:1086B00012F0A8F8A12012F06DF812F0EBF80020EB
:1086C00012F038F8064612F0C5F8304670BD70B5A5
:1086D00005460C46164606E02178284600F009F8C3
:1086E000681C85B2641C301EA6F101018EB2F3D164
:1086F00070BD70B504460E4612F084F82112A02217
:1087000002EB4101C8B212F045F812F0C3F8254659
:10871000E11704EB11610912A4EB0121C8B212F0B8
:1087200039F812F0B7F8304612F034F812F0B2F817
:1087300012F090F80A2003F041F870BD70B50446BD
:108740000D4600BF204600F03BF818B100BF00BF47
:1087500000BFFEE700BF284600F050F9001D616829
:1087600008446060204600F03AF8204670BD70B5BD
:1087700005460C46284600F041F904F110018842F4
:1087800001D3012070BD0020FCE70146A1F10800E3
:1087900070477CB505460C46204600F02FF906468A
:1087A0006A4601A92EF04CFE21462846DDE900323A
:1087B00013F07CFA7CBD0146087900F00100704797
:1087C00010B50446204600F019F908B9012010BD83
:1087D0000020FCE70146087900F00200704770B500
:1087E0000446204600F097F805462C60284670BDE8
:1087F0007CB506460C4600200190009000256CB127
:108800006A4601A920462EF038FE01980B2805DAA9
:108810006A4601A9304632F067FE054685B100BFC1
:10882000284600F0EBF8A04203D200BF00BF00BF13
:10883000FEE700BF29463046DDE9003232F093F80A
:1088400028467CBD70B504462046FFF7C8FF0546A4
:10885000284600F0BEF8204600F0B6F870BD70B5AE
:108860000446204600F057F80546284600F0B6F8C2
:10887000204600F0BEF870BD70B506460D4628468D
:1088800000F049F8044600BF1CB900BF00BF00BF9C
:10889000FEE700BF2046FFF78EFF90B100BF2846DD
:1088A000FFF78EFF18B100BF00BF00BFFEE700BF9B
:1088B0002146304600F076F821462846FFF73EFF75
:1088C0000546284670BD70B506460D462846FFF79A
:1088D00081FFF0B1284600F057F8044600BF1CB9EC
:1088E00000BF00BF00BFFEE700BF00BF2046FFF78C
:1088F00062FF18B900BF00BF00BFFEE700BF2146FE
:10890000304600F04FF829462046FFF717FF05468E
:1089100000BF284670BD2DE9F0410446204600F016
:108920006DF8061F204600F0B8F8074631462FF0D4
:10893000D0FD054600BF2046FFF742FF18B100BF3B
:1089400000BF00BFFEE700BF2846BDE8F0812DE96B
:10895000F04106460C461546002794B100BF1DB9EC
:1089600000BF00BF00BFFEE700BF2A4621463046D9
:1089700000F097F82046FFF772FF204600F08DF8D0
:1089800007463846BDE8F08110B5044600BF2046D2
:10899000FFF720FF18B900BF00BF00BFFEE700BF10
:1089A000206810BD7CB505460C46204600F026F830
:1089B00006466A4601A92EF043FD21462846DDE918
:1089C000003231F0D0FF7CBD416841F001014160CF
:1089D0007047416841F0020141607047416821F0F1
:1089E000020141607047426802F003030B43436099
:1089F0007047416821F001014160704701464868B5
:108A000020F0030070472DE9F04706460C4630463B
:108A100000F043F88046211F2FF05BFD07463046EB
:108A2000FFF7ECFF211D451A00BF384600F035F86E
:108A30008146384600F031F880460421FFF7C1FA3C
:108A4000814503D000BF00BF00BFFEE700BF00BFED
:108A50003046FFF7D3FF2919091D884203D000BF14
:108A600000BF00BFFEE700BF29463846FFF7BBFF47
:108A700000BF3846FFF7C2FF0C2803D200BF00BF7B
:108A800000BFFEE700BF21463046FFF7ACFF384687
:108A9000FFF7D8FE3846BDE8F087014601F108002F
:108AA00070472DE9F04106460C46154600BF2046AA
:108AB000FFF781FE18B900BF00BF00BFFEE700BF8F
:108AC00029462046FFF753FE78B129462046FFF796
:108AD0009AFF07462046FFF782FE3846FFF779FFE8
:108AE00039463046FFF755FE00BFBDE8F0812DE95D
:108AF000F04106460C46154600BF2046FFF75BFED8
:108B000018B100BF00BF00BFFEE700BF29462046E6
:108B1000FFF72DFE88B129462046FFF774FF074670
:108B20003846FFF75BFF39463046FFF7A5FE07469C
:108B300039463046FFF72DFE00BFBDE8F0812DE934
:108B4000F8430646344621F07BFE8046404621F03D
:108B5000BCFE78BB30461FF0ACFA38B330461FF08D
:108B600024F9208FE18E884212D0E08E2087E08E9B
:108B700000906A461C2130461FF088FD0746012FF1
:108B800002D03846BDE8F883304628F088F900BFA7
:108B9000404621F0AAFE0546042D06D1304625F0B8
:108BA000DFFF0746002120F03EFC09E030461FF0C1
:108BB000E3FA05E0FFE7208FE086304628F06FF902
:108BC0000120DFE72DE9F041044620461FF058FD63
:108BD0000546284626F01EF8064628461AF0E8F80C
:108BE00007460122394630462CF040FCBDE8F081B2
:108BF0000146C1F3C01070470146C1F380107047B1
:108C00000146C1F3C01070470146C1F30020704710
:108C10000146C1F3C00070470146C1F340107047E0
:108C20000146C1F3402070470146C1F30030704750
:108C30000146C1F3001070472DE9F04F89B004469A
:108C40000D460021204625F080FE30B91C21284623
:108C500024F045F809B0BDE8F08F2946204600F021
:108C60000BFB2946204600F07DF80021204627F026
:108C70009FF808900021204627F020FA0790002155
:108C8000204626F055FE012800D100E00020814654
:108C90000021204627F0C8FC07460021204626F088
:108CA00035FF064642F2D170874205D1608CC0F391
:108CB000802008B9012000E000208246204625F0EF
:108CC000E4FE069000BF4FF00008244802884146A9
:108CD000204627F0C3FA03900398C0B200BF834632
:108CE000AA6829692868CDE90209CDE900125A4627
:108CF0005146089B069810F0D3FF288342F2D170AA
:108D0000864205D1608CC0F3402008B9012000E004
:108D100000200590204625F099FE049000BF4FF0FA
:108D200000080F4802884146204627F097FA039032
:108D30000398C0B200BF83460023EA686968686987
:108D4000CDE90213CDE900025A46079BDDE9040193
:108D500010F0A6FF688300BF7CE7000086010020BA
:108D60008A0100202DE9F34F87B00C4607980FF0D9
:108D700083FD8046079825F088FE0690404601F066
:108D8000C2FB20612169480023F0FEFC20602169BC
:108D9000480023F0F9FCA060002548E05848029004
:108DA00038F9150041F69A7188423FD100200190B0
:108DB00029E00199079825F0C8FD009051490098D5
:108DC00027F0DBFC00B11BE000980FF073FD82463A
:108DD000BAF1010F00D013E000980FF05BFD83465D
:108DE000AB4500D00CE0009827F05FFC0299884268
:108DF00001DA029802E0009827F057FC029000BFC9
:108E00000198401C0190079825F0BDFD019988420A
:108E1000CFD80298002804DB0298A16821F8150039
:108E200003E00021A06820F8151000BF6D1C206928
:108E3000A842B3D80026B14600251BE038F915003A
:108E400041F69B71884202DB411A0E4411E041F663
:108E50009A71884206D1A16831F8151049440FFA79
:108E600081F906E0A16821F8150009EB00010FFA6D
:108E700081F96D1C2069A842E0D80021079826F0EE
:108E800097FF05902169491EDDE9050200FB1120CD
:108E900000B206900698A0EB090007B2002F00DA96
:108EA00000274FF0FF30049000200390002513E0CE
:108EB00038F9150041F69B7188420CDB421A11B259
:108EC00007FB01F2B2FBF6F212B2A36823F81520F9
:108ED0000495039100BF6D1C2069A842E8D804984E
:108EE00000280ADB0398301A7843B0FBF6F0381AF2
:108EF00001B2A268049822F8101009B0BDE8F08F02
:108F000001E0FFFF010006002DE9FC5F054600229D
:108F10001146284629F088F80021284626F06FFDE2
:108F200081460021284627F0F0F8484407B2002186
:108F3000284626F0A1FE48440FFA80FA284626F07B
:108F40005DFC384450440FFA80FB3B4E284625F028
:108F50001AFD01904FF000085CE0A868006850F826
:108F600028403649204627F008FC00B150E0204652
:108F700028F012F8002839D10021204626F070FC94
:108F80000090009830B1012807D0022804D00328AF
:108F900015D100E000BF00BF00BFB4F91A10B5F949
:108FA0001600081A401CB04201DA304605E0B4F958
:108FB0001A10B5F91600081A401C06B214E0002178
:108FC000204627F065FB70B904F1140018F06DFF1E
:108FD0003844B04201DA304604E004F1140018F0DD
:108FE00064FF384406B200BF00BF10E0B4F91A10A5
:108FF000B5F91600081A401CB04201DA304605E007
:10900000B4F91A10B5F91600081A401C06B200BFD0
:1090100008F10108019880459FD30748864209D08E
:1090200006EB0A0006B25E4502DD3046BDE8FC9F55
:109030005846FBE75846F9E701E0FFFF010004004E
:109040002DE9FC5F054600221146284628F0D0FF96
:109050000021284626F0D3FC82460021284626F02F
:1090600091FF50440FFA80F80021284626F0E1FED7
:1090700050440FFA80F9284626F0D0FB484440447B
:1090800000B20190724C284625F07DFC83460021F9
:10909000284626F026FC012866D100265BE0A86859
:1090A000006850F826706B49384627F066FB00B11F
:1090B00050E0384627F070FF002839D100213846AB
:1090C00026F0CEFB0090009830B1032805D006288A
:1090D00004D0082815D102E000BF00BF00BFB5F9D9
:1090E0001800B7F91410401A401CA04201DA2046BB
:1090F00005E0B5F91800B7F91410401A401C04B285
:1091000014E00021384627F0B6FA70B907F11400D0
:1091100018F03EFF4044A04201DA204604E007F187
:10912000140018F035FF404404B200BF00BF10E047
:10913000B5F91800B7F91410401A401CA04201DA22
:10914000204605E0B5F91800B7F91410401A401C84
:1091500004B200BF761C5E45A1D33D48844269D06D
:1091600004EB090004B265E000265BE0A868006833
:1091700050F826703749384627F0FFFA00B150E022
:10918000384627F009FF80BB0021384626F068FBEF
:109190000090009830B1012805D0042804D0072899
:1091A00015D102E000BF00BF00BFB7F91800B5F944
:1091B0001410401A401CA04201DA204605E0B7F91D
:1091C0001800B5F91410401A401C04B215E0002133
:1091D000384627F05DFA78B907F1140018F0D8FE88
:1091E0004844A04202DA204605E008E007F11400F6
:1091F00018F0CEFE484404B200BF00BF10E0B7F93B
:109200001800B5F91410401A401CA04201DA20469B
:1092100005E0B7F91800B5F91410401A401C04B263
:1092200000BF761C5E45A1D30948844202D004EBFE
:10923000080004B20648844202D10198BDE8FC9FB0
:109240000198844201DD2046F8E70198F6E7000026
:1092500001E0FFFF0100040010B50446206823F080
:109260000FFB606823F00CFBA06823F009FBE068AB
:1092700023F006FB10BD00002DE9F34F87B00C462C
:10928000079810F0A3FA8046404601F03CF960616F
:109290006169480023F078FA60606169480023F052
:1092A00073FAE060002548E05948029038F915004B
:1092B00041F69A7188423FD10020019029E001993E
:1092C000079825F042FB00905249009827F055FA84
:1092D00000B11BE0009810F041FB8246BAF1010F8B
:1092E00000D013E0009810F029FB8346AB4500D076
:1092F0000CE0009825F03EFC0299884201DA0298C1
:1093000002E0009825F036FC029000BF0198401C56
:109310000190079825F037FB01998842CFD8029831
:10932000002804DB0298E16821F8150003E0002022
:10933000E16821F8150000BF6D1C6069A842B3D830
:109340000026B14600251BE038F9150041F69B7157
:10935000884202DB411A0E4411E041F69A718842BC
:1093600006D1E16831F8151049440FFA81F906E099
:10937000E16821F8150009EB00010FFA81F96D1C75
:109380006069A842E0D80021079826F097FE069071
:10939000079825F05BFB01466269521E069800FBA8
:1093A000121000B205900598A0EB090007B2002F3B
:1093B00000DA00274FF0FF300490002003900025D2
:1093C00011E038F9150041F69B7188420ADB421A18
:1093D00011B207FB01F2B2FBF6F212B2E36823F816
:1093E000152000BF6D1C6069A842EAD804980028C7
:1093F0000ADB0398301A7843B0FBF6F0381A01B252
:10940000E268049822F8101009B0BDE8F08F00005F
:1094100001E0FFFF010006007CB504460D4616463C
:1094200028882189084400B2ADF800006888618965
:10943000084400B2ADF80200A8882189084400B2AF
:10944000ADF80400E8886189084400B2ADF8060070
:10945000324669462046636998477CBD2DE9F0474E
:1094600004460D4690469946AD1E606B00EB153ADA
:10947000C5F3C80605F0070101208840C7B200BF48
:1094800051460AF1010A20462EF03AFB10B10120A4
:10949000BDE8F08700BF00BF04F13C00805D3840AC
:1094A00008B1012000E00020484501D10220EFE78B
:1094B00004F13C00805D784004F13C0188550120B6
:1094C000E070A8F10100B0F1000800D1E0E77806F3
:1094D000000E071EE0D10127701C0646B0F5007F84
:1094E000D9D30026CCE70000F8B505460E462C4639
:1094F000206B10B1206B007818B9606B08B901209F
:10950000F8BD606B58B128462CF0A5FB0746104902
:1095100009688847616B884201D30020F0E7206B1F
:1095200098B1002000900AE069460A4A206B126850
:1095300090470746B74201D10120E1E700BF206B09
:109540000099405C0028EFD1DAE70120D8E700005D
:10955000EC020020DC0200200246042A2AD005DCAE
:109560004AB1022A14D0032A34D118E0062A28D09E
:10957000FF2A2FD12CE0012909D0022907D0042984
:1095800005D0082903D0102901D02520704723E0F9
:10959000082903D0102901D02520F7E71CE0012974
:1095A00007D0022905D0042903D0082901D025209D
:1095B000ECE711E0082903D0102901D02520E5E7C8
:1095C0000AE0082903D0102901D02520DEE703E0B6
:1095D0001F20DBE71F20D9E700BF0020D6E70000EF
:1095E00070B504460D460020E070401EA063294679
:1095F00020462EF085FA08B1042070BD04F23A200E
:1096000016F0BEFA4AF65521884201D00320F4E74D
:109610000B2214A104F13C002DF059FF08B90120E0
:10962000EBE794F83C00E92807D094F83C00EB28DD
:1096300003D094F83C00E82811D103220CA104F1D6
:1096400072002DF044FF08B90020D6E7052209A1D9
:1096500004F18E002DF03BFF08B90020CDE7022079
:10966000CBE70000EB76904558464154202020007F
:109670004641540046415433320000002DE9FF4F6B
:109680008FB00F46209DF87800F0010008B1FA482D
:1096900000E0FA480E90F87800F0010008B1F848B0
:1096A00000E0F8480D90F87800F0010008B9F4489F
:1096B00000E0F4480C9001200B90B5E000220B92E2
:1096C00000206A88B5F804C0A2EB0C0211B2002693
:1096D0001AE006EB860CEA6802EB8C02127C02F0C0
:1096E000010242B906EB860CEA6802EB8C02928911
:1096F000024410B207E006EB860CEA6802EB8C022B
:1097000012898A1A11B2761C2A69B242E1D800265F
:1097100085E006EB860CEA6802EB8C02127C02F014
:109720000102002A7AD191FBF0F80FFA88F306EBD8
:109730008609D5F80C8008EB8908B8F80C8008FB7E
:1097400003F80FFA88F206EB8609D5F80C8008EBCF
:109750008908B8F9049006EB860AD5F80C8008EB66
:109760008A08B8F90680904501DD904607E006EBCF
:10977000860AD5F80C8008EB8A08B8F90680C1453E
:1097800008DD06EB8609D5F80C8008EB8908B8F9E6
:10979000048013E006EB8609D5F80C8008EB8908F5
:1097A000B8F90680904501DD904607E006EB860992
:1097B000D5F80C8008EB8908B8F90680C4469445B2
:1097C0000BD04FF0010806EB860AD5F80C9009EB98
:1097D0008A09C9F81080CDF82C8006EB8609D5F8E7
:1097E0000C8008EB8908A8F808C006EB8609D5F8B4
:1097F0000C8008EB8908B8F80C80A0EB08080FFA79
:1098000088F006EB8609D5F80C8008EB8908B8F8D3
:109810000880A1EB08080FFA88F100BF761C2A69BE
:10982000B2423FF676AF00BF0B9800287FF446AFF8
:1098300000210F9826F06FF8012800D100E00020E9
:109840000A9000200990089008A809A9CDE9001005
:1098500029890BB2B5F9022038781E992EF0AEFE98
:10986000F87800F0010048B10A9838B10F9825F057
:109870000CF9BDF82410084400B2099011990F9812
:1098800025F063F804468AE17F49204626F075FFFB
:1098900040B1F878C0F3800111AA0F980FF0D1FD04
:1098A00004467CE10021204626F006F9079007983F
:1098B000002858D000200390002610E006EB860117
:1098C000E86850F82100A04208D106EB8600E9685C
:1098D00001EB8000B0F90800039003E0761C2869D2
:1098E000B042EBD800BFF87800F0010030B1608CD6
:1098F00020F4806000F58060608405E0608C20F4D6
:10990000007000F50070608404F114000D99884720
:109910000399884226D0204627F0C1FA00BFA08ACA
:10992000ADF80400E08AADF80600208BADF8080021
:10993000608BADF80A0000BF04F114000E9A039981
:10994000904701AA292120461EF0A0FE204625F0BE
:1099500061F92246222100901EF098FE204627F051
:109960009EFA00BF07E0608C20F480606084608C09
:1099700020F400706084002006907878012812D0CE
:10998000022819D104F114000C998847B5F9001088
:10999000491C21F00101081A039000EBD07040101F
:1099A00000B2069009E004F114000C998847298858
:1099B000081A00B2069000E000BF00BFF87800F07F
:1099C000010050B10A9840B104F114000D99884784
:1099D000BDF82410081A00B209900020039043F249
:1099E0000C022046039926F039FC029002980FFAE7
:1099F00080F800BF0020039043F20D022046039937
:109A000026F02CFC029002980FFA80F900BF204645
:109A100026F04BFE0590204625F0ACF8049008F4A3
:109A2000C040B0F5005F01D1012000E0002030B15E
:109A300028F4C040B0F5FA6F01DC012000E00020FE
:109A400090B128F4C040B0F57A7F04DD28F4C0401E
:109A5000C0F57A7001E028F4C040059948436421BC
:109A600090FBF1F00FFA80F809F4C040B0F5005F08
:109A70000CD101200BE00000CF200208C320020817
:109A80000F200208FF1E020801000600002030B16E
:109A900029F4C040B0F5FA6F01DC012000E000209D
:109AA00090B129F4C040B0F57A7F04DD29F4C040BC
:109AB000C0F57A7001E029F4C0400499484364215C
:109AC00090FBF1F00FFA80F9A18A1C98401A4044EB
:109AD0000FFA80FAE18A1D98401A48440FFA80FB79
:109AE000F87800F0010010B1BDF9240000E00698FC
:109AF00050440FFA80FAF87800F0010008B1069897
:109B000001E0BDF9240058440FFA80FBBAF1000FC0
:109B100002D1BBF1000F1BD0204627F0C0F9A08A6C
:109B2000504400B2A082208B504401B22183E08ACD
:109B3000584401B2E182608B584401B261832046EF
:109B400027F0ADF901235A465146204627F084FA02
:109B5000F87800F0010008B10A9870B904F1140017
:109B60000D9988471F990844BDF820100844BDF896
:109B70002410084400B2099008E0BDF820101F9896
:109B80000844BDF82410081A00B20990F878C0F310
:109B9000800111AA0F980FF054FC044600BF24B1B5
:109BA000DDE9111081427FF46FAE13B0BDE8F08F94
:109BB000024600E0521C107810B110788842F9D1AA
:109BC000107870472DE9F04F8DB005468946B9F100
:109BD000000F02D10DB0BDE8F08FA5F818902868ED
:109BE00010B1286822F064FE09EB4901062202EB5D
:109BF000410022F08FFD286000BF286818B900BF1F
:109C000000BF00BFFEE700BF286868600221286827
:109C100001FB0900801CE8600421286801FB0900A1
:109C2000001DA860B9F1010F0CD1B420696808705B
:109C30000020E96808800120E96848800020A968C0
:109C40000880C7E709F10101C80022F09DFD074621
:109C500009F1010007EB80084FF0000A4FEA890084
:109C600002B20BA90CA800F067F90024BDF930007E
:109C70008010079000200390CCE0002616E00BA98E
:109C80000CA800F061F90CA800F04BF900B90FE046
:109C9000BDF93000801007A941F82600BDF830005A
:109CA00000F0030003A941F82600761C042EE6DB31
:109CB00000BF042E00D0B3E00A990798884219D15A
:109CC000079800B227F814000FFA8AF028F8140059
:109CD000DDE90301084405990844069908446968C8
:109CE00008556868005D0007000E69680855601C2B
:109CF00004B28DE0DDE9070188422CD0079800B25C
:109D000027F814000FFA8AF028F8140003986968FD
:109D100008556868005D0007000E69680855601CFA
:109D200004B20798401E00B227F814000FFA8AF018
:109D300028F814000498001D059908440699084461
:109D4000696808556868005D0007000E6968085575
:109D5000601C04B25CE00999079888422CD00798EF
:109D600000B227F814000FFA8AF028F81400DDE991
:109D700003010844696808556868005D0007000E23
:109D800069680855601C04B20798401E00B227F8A5
:109D900014000FFA8AF028F8140005980830069984
:109DA0000844696808556868005D0007000E696826
:109DB0000855601C04B22BE0079800B227F8140085
:109DC0000FFA8AF028F81400DDE903010844059928
:109DD0000844696808556868005D0007000E6968F6
:109DE0000855601C04B20798401E00B227F8140002
:109DF0000FFA8AF028F8140006980C3069680855A4
:109E00006868005D0007000E69680855601C04B2B0
:109E10000AF1010A0CA800F084F800287FF42DAFA5
:109E200000BF40F2D32109FB01F00290029880129A
:109E30000190601E37F910100198814205D1601E13
:109E400038F910100198814226D0DDE90121A1EBFB
:109E50008220B0F5007F04DC00FB00F14800001414
:109E600007E0C0F5806000FB00F148000014C0F17D
:109E70000F00019909B227F81410019909B228F8C6
:109E800014106A6810556968095D0907090E6A6847
:109E90001155611C0CB200BFA61E0EE038F816006A
:109EA00027F8140037F8160028F814006868805D59
:109EB00069680855761E601C04B2002EEEDA4FF079
:109EC000000B00260020E968088023E0E96821F8FB
:109ED0001B6037F81600A96821F81B0010E0A8687D
:109EE00030F81B0037F91610884203DAA86830F8FA
:109EF0001B0001E037F91600A96821F81B00761C49
:109F000038F91600584501D1A642E8DB0BF10100F3
:109F10000FFA80FBA642D9DB384622F0B1FC00BF25
:109F200058E60146B1F90200B1F90020904201DC87
:109F3000012070470020FCE7028000234380C2F12B
:109F400001031BB20B807047B1F90020002A07DC27
:109F50000B8842885200D21C1A4412B20A800CE0CC
:109F600042880388D21A5200521D0B881A4412B23A
:109F70000A800288521E12B202804288521C12B21B
:109F8000428070472DE9F84F824615461E46DAF8A2
:109F900000000090DAF8500000F104094FF400725C
:109FA000002328463146F6F7FCF907460098B0F83A
:109FB0000AC0624600233846F6F7F3F9834600BF2D
:109FC00059F8044B14B90020BDE8F88FA34500D21E
:109FD00004E0ABEB040B09F10409F1E700BFD9F889
:109FE00000005844F0E70246891ED069801E88426E
:109FF00001D8002070475389106B03FB0100F9E77B
:10A000002DE9F04780460C4604F11A0015F0B8FD22
:10A0100010B10020BDE8F087207800F03F00401E1E
:10A0200000EB800101EBC0054FF00109002621E0A3
:10A030001849895D081915F0A3FD0746B9F1000F0D
:10A0400011D0FF2D0BD838460BF072FD8246294601
:10A050006D1C38F811000BF06BFD824501D000201B
:10A06000D8E7B94605E04FF6FF70874201D00020DF
:10A07000D0E7761C0D2EDBD3207800F0400038B1FD
:10A08000B9F1000F04D038F8150008B10020C1E77D
:10A090000120BFE7309A040837B582B01546022D7B
:10A0A00004DCBDF80C10084605B030BDBDF80C004E
:10A0B000C00ABDF8081000EBD1241F2C01D22046A5
:10A0C00000E01F20BDF8081060F3CF210291BDF819
:10A0D0000C00C0F34510BDF80810C1F34511441839
:10A0E0003F2C01D2204600E03F20BDF8081060F36D
:10A0F0004A110291BDF80C0000F01F00BDF80810D5
:10A1000001F01F0144181F2C01D2204600E01F203F
:10A11000BDF8081060F304010291FF2D03D1BDF8D2
:10A1200008100846C0E72A46DDE902011AF048F89F
:10A130000190BDF804100846B6E717B581B0144683
:10A14000022C04DCBDF80810084604B010BDBDF8B0
:10A150000400C00ABDF80810C90A10FB01F041094B
:10A16000BDF8040061F3CF200190BDF8040000F0B9
:10A170001F00BDF8081001F01F0110FB01F041099C
:10A18000BDF8040061F304000190BDF80400C0F3C1
:10A190004510BDF80810C1F3451110FB01F081090D
:10A1A000BDF8040061F34A100190FF2C03D1BDF803
:10A1B00004100846C9E72246DDE901011AF000F85B
:10A1C0000090BDF800100846BFE737B582B01546CD
:10A1D000022D04DCBDF80C10084605B030BDBDF8FA
:10A1E0000C00C00ABDF80810A0EBD124002C01DD42
:10A1F000204600E00020BDF8081060F3CF21029156
:10A20000BDF80C00C0F34510BDF80810C1F34511AE
:10A21000441A002C01DD204600E00020BDF80810A3
:10A2200060F34A110291BDF80C0000F01F00BDF868
:10A23000081001F01F01441A002C01DD204600E047
:10A240000020BDF8081060F304010291FF2D03D136
:10A25000BDF808100846C0E72A46DDE9020119F0FA
:10A26000AFFF0190BDF804100846B6E72DE9F05F96
:10A2700004460F4690469946DDE90AAB00252DE0DD
:10A2800047FA05F0C007010F48FA05F000F0010099
:10A29000042212FB001149FA05F000F0010002222D
:10A2A00012FB00114AFA05F000F00100012212FB36
:10A2B000001654F8260070B9442016F010FE44F839
:10A2C000260054F8260010B95320BDE8F09F54F83A
:10A2D000260000F053F854F826406D1C082DCFDB03
:10A2E000C4F840B00020F0E770B5054600240BE04C
:10A2F00055F8240038B155F82400FFF7F5FF55F85C
:10A30000240016F03FFC641C102CF1D170BD2DE927
:10A31000F04104460D46069F002100BF26E045FAA5
:10A3200001F0C0074FEA107C42FA01F000F0010092
:10A330004FF0040818FB00CC43FA01F000F00100D4
:10A340004FF0020818FB00CC47FA01F000F00100C2
:10A350004FF0010818FB00C654F8260018B94FF05A
:10A36000FF30BDE8F08154F82640491C0829D6DBAF
:10A370000CB1206CF5E74FF0FF30F2E710B5044662
:10A3800040220021204616F0BAFD4FF0FF30206435
:10A3900010BD08B5034600930098484080EA62006B
:10A3A00008BD2DE9F84F804640461EF069F9824607
:10A3B00040461EF004F90646504624F02BFC814628
:10A3C0002B2E09D148462BF044F8044600222146A2
:10A3D00048462BF04BF83AE00A2E38D169465046F1
:10A3E00024F09AFC504624F050FB044600214846D5
:10A3F00025F0ABFA01280AD1204604EBD071BDF953
:10A400000020C2EB610191FBF4F10DB209E020469E
:10A4100004EBD071BDF9002002EB610191FBF4F176
:10A420000DB2002D00DA0025002748462BF011F868
:10A43000A84200D001270122294648462BF016F8F1
:10A4400027B100221C2148461EF020F900BFBDE8BC
:10A45000F88F10B58060C06000230361002110E018
:10A46000002400F1140343F82140002206E000F12B
:10A47000400303EBC11343F82200521C202AF6DBF1
:10A48000491C0B29ECDB10BDFCB502460B461146FE
:10A49000002035E011F8204001EB80077D7801EBCA
:10A4A0008007BE784FEAD60CBDF800706CF3040745
:10A4B0004FEA950C0097BDF800706CF34A174FEA0D
:10A4C000D40C0097BDF800706CF3CF270097BDF84F
:10A4D00000C06746019701EB8004E57800EB40047B
:10A4E000A41C1555BDF80440251200EB4004641C63
:10A4F0001555BDF80440E5B200EB40041555401C6D
:10A500009842C7D3FCBD0146002000E0401C31F951
:10A51000102041F6FF739A42F8D170472DE9F047B9
:10A5200006468A463468BAF1000F0AD1D4F814807E
:10A53000B8F1000F02D0E069404516D84FF001088D
:10A5400013E0514630460EF0ECF90746022F02D2D6
:10A550000120BDE8F087781C08B93846F9E7E069C2
:10A56000B84201D93846F4E7D046A06908B90020BE
:10A57000EFE7207804284ED10122414620460BF017
:10A5800021FE05460DB1681C08B92846E1E7012304
:10A590001A4629462046FEF761FF8146B9F1020FAF
:10A5A00001D10120D5E7B9F1010F02D14FF0FF3001
:10A5B000CFE7BAF1000F02D10220F0710CE0F07980
:10A5C000022809D108F10100854205D0B068A8EB46
:10A5D0000000B0610320F071F079022869D00AF11F
:10A5E0000100854207D1F06910B1F069401C00E01C
:10A5F0000220F0615DE0F06908B90120F0612A46AF
:10A60000514630460BF0B9FB8146B9F1000F50D1ED
:10A610000120F0614DE00025D04519D108F1010578
:10A62000E069A84200D80225294630460EF079F9A3
:10A630000746012F01D0781C08B9384689E73FB199
:10A640006769022F03D3E069B84200D9B8460025F4
:10A65000E5B9454600BF6D1CE069A84204D8022553
:10A66000454501D9002074E7294630460EF059F9D6
:10A67000074607B909E0012F01D0781C08B9384610
:10A6800067E74545E7D1002063E700BF4FF0FF32A1
:10A69000294620462EF0C9FE8146B9F1000F08D1A7
:10A6A000BAF1000F05D02A46514620462EF0BDFED5
:10A6B0008146B9F1000F0DD16561D4E90610801E05
:10A6C000814202D8A069401EA061207940F00100BB
:10A6D000207107E0B9F1010F02D14FF0FF3000E027
:10A6E00001200546284634E72DE9F34F85B0814621
:10A6F000069800680290D9F80000D0F80CA0002558
:10A7000000BF02A833F080FB83460BF1010018B9AB
:10A71000062007B0BDE8F08FBBF5803F05D34FEAB8
:10A720001B4228466D1C2AF810201FFA8BF4202C9F
:10A7300003DB2F2C01D05C2C00D111E0802C06DA39
:10A74000214679A0FFF734FA08B10620E1E7FF2D92
:10A7500001D30620DDE728466D1C2AF81040D0E71B
:10A7600000BF202C01DA04260CE0002602E002984B
:10A77000401C0290029800782F28F8D002980078A8
:10A780005C28F4D002990698016008E0681E3AF847
:10A790001040202C02D02E2C00D002E06D1E002D87
:10A7A000F4D100BF00202AF815000DB90620B0E74B
:10A7B000002700E07F1C3AF817002028FAD01FB9C4
:10A7C0003AF817002E2801D146F0030600E06D1E6E
:10A7D00025B1681E3AF810002E28F8D10B2220214E
:10A7E00009F140002CF092FE4FF00008CDF81080E7
:10A7F0000820039000BF38467F1C3AF8104004B987
:10A8000066E0202C03D02E2C04D1AF4202D046F0BB
:10A810000306F0E7DDE90310884201D2AF4216D10A
:10A8200003980B2802D146F0030651E0AF4201D055
:10A8300046F00306AF4200D94AE02F4608200490B4
:10A840000B2003904FEA88604FEA1068D3E7802C12
:10A850000ADB46F0020620460BF06AF94FF46A71F3
:10A8600001900BF02BF90446FF2C11DD0398401EDC
:10A870000499884204D846F0030603980490BAE786
:10A8800022120498411C049109F140010A5418E075
:10A8900024B1214627A0FFF78BF918B15F2446F0B9
:10A8A00003060EE0412C03DB5A2C01DC48F00208C1
:10A8B000612C06DB7A2C04DC48F00108A4F12000AE
:10A8C00084B20498411C049109F140010C5492E7B0
:10A8D00000BF99F84000E52802D1052089F8400022
:10A8E0000398082803D14FEA88604FEA106808F0FF
:10A8F0000C000C2803D008F00300032801D146F017
:10A90000020606F0020048B908F0010008B146F05E
:10A91000100608F0040008B146F008064B2000F8C5
:10A9200009600020F5E60000222A3A3C3E3F7C7F89
:10A93000000000002B2C3B3D5B5D00002DE9F04743
:10A9400004460E464022002120462CF0DFFD8520E3
:10A950002070C02084F82000402500208046074653
:10A960004FF0010900BFC12228466D1C225400226D
:10A9700028466D1C225400BFB9F1000F06D036F8EE
:10A980001700B0F1000901D0781CC7B26019494620
:10A9900031F0B0F9AD1C05F01F000028ECD108F132
:10A9A000010000F0FF0836F817000028DBD184F81A
:10A9B000237008F101006070304637F04EFA82468D
:10A9C000514604F1240031F095F9BDE8F08700000C
:10A9D00010B500BF00224FF400611148F7F780FB6B
:10A9E00000BF00F021F800BF012211460D48F7F723
:10A9F00077FB00BF00F018F800BF002201210948D2
:10AA0000F7F76EFB00BF00F00FF800BF0122D10284
:10AA10000348F7F765FB00BF00F006F810BD000023
:10AA2000001402400004024010B5022000F0D2FEE3
:10AA300010BD000000B587B000BF00BF002001902E
:10AA40001A48006840F0020018490860084600688B
:10AA500000F00200019000BF00BF00BF00BF00BFB8
:10AA6000002001900846006840F020000860084679
:10AA7000006800F02000019000BF00BF00BF01206F
:10AA8000029011200390012004900320059002A958
:10AA90000748F7F711FA4FF40060029002A9054841
:10AAA000F7F70AFA00F0BEF807B000BD30380240F0
:10AAB000000402400014024010B500BF0122D10280
:10AAC0000C48F7F70DFB00BFFFF7AEFF00BF0122F8
:10AAD00011460948F7F704FB00BFFFF7A5FF00BFC9
:10AAE000002201210448F7F7FBFA00BFFFF79CFFA3
:10AAF00010BD0000001402400004024070B505467D
:10AB0000002400261DE06006040E00BF012211464D
:10AB10001148F7F7E5FA00BFFFF786FF4FF4006131
:10AB20000E48F7F7CBFA08B1601CC4B200BF002290
:10AB300001210948F7F7D4FA00BFFFF775FF701C31
:10AB4000C6B2082EDFDB15B9FFF7B6FF01E0FFF74D
:10AB50003FFF204670BD0000000402400014024088
:10AB600070B50446002525E000BFE00928B10122A8
:10AB7000D1021548F7F7B4FA05E000224FF400615E
:10AB80001148F7F7ADFA00BFFFF74EFF00BF0122F3
:10AB900011460E48F7F7A4FA00BFFFF745FF00BFC4
:10ABA000002201210948F7F79BFA00BF6006040E56
:10ABB000681CC5B2082DD7DB00BF0122D1020248B4
:10ABC000F7F78EFA00BF70BD001402400004024087
:10ABD00010B500BF0122D1021048F7F781FA00BF7B
:10ABE00000BF012211460E48F7F77AFA00BFFFF7BF
:10ABF0001BFF00BF00224FF400610848F7F770FA0E
:10AC000000BFFFF711FF00BF002201210448F7F742
:10AC100067FA00BFFFF708FF10BD000000140240F4
:10AC20000004024010B500BF00224FF400610C4840
:10AC3000F7F756FA00BFFFF7F7FE00BF01221146F3
:10AC40000848F7F74DFA00BFFFF7EEFE00BF0122FC
:10AC5000D1020348F7F744FA00BFFFF7E5FE10BD45
:10AC6000001402400004024070B50024002500BF1B
:10AC70000122D1021648F7F733FA00BFFFF7D4FEDE
:10AC800000BF012211461348F7F72AFA00BFFFF769
:10AC9000CBFE09E0601CC4B2FA2C03DDFFF7C2FF53
:10ACA000012508E0FFF7C0FE4FF400610848F7F700
:10ACB00005FA0028EED100BF00BF0022012105489F
:10ACC000F7F70EFA00BFFFF7AFFE284670BD000091
:10ACD00000140240000402407CB506460D4634468E
:10ACE0005020005D00F00100A84233D00DB10120DA
:10ACF00000E000205021095D60F300015020015563
:10AD000004F14401684617F0C0F8BDF80000616A1C
:10AD1000898A084400B2ADF80000BDF80210606AEC
:10AD2000C08A084400B2ADF80200BDF80400616AB0
:10AD3000898A084400B2ADF80400BDF80610606AC4
:10AD4000C08A084400B2ADF806006946304626F0D5
:10AD5000E0F800BF7CBD37B582B0054614462146F9
:10AD6000039819F0B7F80190BDF80410084605B033
:10AD700030BD000001460B48007888420FDC0948CE
:10AD80004078884201DB012070470648807888427D
:10AD900005DC0448C078884201DB0120F4E700208C
:10ADA000F2E700003D9A0408014610480079884205
:10ADB00019DC0E484079884201DB012070470B48BE
:10ADC0008079884205DC0948C079884201DB01208E
:10ADD000F4E70648007A884205DC0448407A884255
:10ADE00001DB0120EAE70020E8E700003D9A0408C3
:10ADF0002DE9F04F8BB083460D4616461C46DDF814
:10AE0000509000200A900890079006900027059027
:10AE10000490012003900020CBF8000030602860EF
:10AE200015984B46224631460090284615F086FF7D
:10AE3000C4F87C01D4F87C0110B10BB0BDE8F08FF0
:10AE4000316804F1780304F1A402286816F079F857
:10AE500018B15C20C4F87C01EFE7159816F03FF8B4
:10AE60000990099818B95320C4F87C01E5E709F165
:10AE7000210A7AE1AAEB09000C301599884201D821
:10AE8000CA4506D2206A00B176E11E20C4F87C01D2
:10AE900072E1504615F065FB8046B8F1004F06D3CD
:10AEA000206A00B168E13F20C4F87C0164E1AAEBAC
:10AEB000090040440C301599884204D80AEB080078
:10AEC0000C30484503D24020C4F87C0154E1504680
:10AED00015F043FB029000200490FEA1504615F0AF
:10AEE0007EFBF0B101AA4146089815F0B4FA18B1FA
:10AEF0005F20C4F87C013FE101991598814203D994
:10AF00005F20C4F87C0137E1DDE90821881842465A
:10AF1000029915F0EAFF0898404408900320039036
:10AF20000DE1EEA1504615F05AFB10B101200A9038
:10AF300005E1ECA1504615F052FB70B1424604F118
:10AF4000A40002992EF0EEFCC4F87C01D4F87C0138
:10AF500000B111E102200390F1E0E4A1504615F0A8
:10AF60003EFB60B1424604F1A40002992EF0E5FFD9
:10AF7000C4F87C01D4F87C010028D1D0FCE0DDA12C
:10AF8000504615F02CFB60B1424604F1980002993E
:10AF90002EF007FDC4F87C01D4F87C010028BFD056
:10AFA000EAE0D6A1504615F01AFB78B1A06A002855
:10AFB000B6D0424604F1980002992EF04FFFC4F833
:10AFC0007C01D4F87C010028AAD0D5E0CDA1504660
:10AFD00015F005FB80B1A06A0028A1D043462146A8
:10AFE00004F19800029A2EF0EEFFC4F87C01D4F828
:10AFF0007C01002894D0BFE0C4A1504615F0EFFAC0
:10B0000080B1A06A00288BD04346214604F1980005
:10B01000029A2EF018FEC4F87C01D4F87C010028B6
:10B0200086D0A9E0BBA1504615F0D9FA60B14246DE
:10B0300004F1980002992EF065FFC4F87C01D4F861
:10B040007C0100287BD097E0B4A1504615F0C7FAE8
:10B0500060B1424604F1980002992EF0C9FEC4F88E
:10B060007C01D4F87C01002869D085E0ADA1504670
:10B0700015F0B5FA58B1424604F1980002992EF045
:10B080004FFDC4F87C01D4F87C01A0B374E0A7A103
:10B09000504615F0A4FA58B1424604F198000299BE
:10B0A0002EF0C9FCC4F87C01D4F87C0118B363E02D
:10B0B000A0A1504615F093FA58B1424604F1980009
:10B0C00002992EF0BEFEC4F87C01D4F87C0190B148
:10B0D00052E09AA1504615F082FA68B143462146E3
:10B0E00004F19800029A2EF035FDC4F87C01D4F8E2
:10B0F0007C0100B140E022E0E06938B9504615F02B
:10B10000D8F918B94520C4F87C0135E00120049035
:10B11000E06AA0B1039A531E04F5B87202EB8301F2
:10B12000039A531E04F5B27202EB8300524615F0E7
:10B13000C5F9C4F87C01D4F87C0100B11CE0A06919
:10B1400048B9049838B9504615F0EEF918B13920CD
:10B15000C4F87C0110E00A9830B9159809EB000199
:10B16000504615F004FA824600BF0A9820B9D4F878
:10B170007C0100283FF47EAE00BFD4F87C0148B9C2
:10B18000A420005D032805D1D4F8AC0010B96A20D2
:10B19000C4F87C01D4F87C0100286BD1A0200059B0
:10B1A00058B904F1A40015F0F3FC8046316842461A
:10B1B000286815F007FD074651E004F1A40015F0DA
:10B1C000E7FC804600273268D21DD1082A68D21DCC
:10B1D000D008424615F0F6FC07442868042809D92F
:10B1E0003268D21DD1082A68D21CD008424615F018
:10B1F000E9FC07443268D21CD1082A68D21C9008A6
:10B20000424615F0DFFC07442868022809D9326855
:10B21000D21C91082A68521C9008424615F0D2FCB4
:10B2200007443268521C91082A68521C5008424652
:10B2300015F0C8FC07442868012808D93268521C58
:10B2400051082A685008424615F0BCFC0744326891
:10B2500051084246286815F0B5FC074400BF08981D
:10B26000CDE900043A4606A907A8099B36F03FFE3F
:10B27000C4F87C01D4F87C0128B90698B84202D001
:10B280005B20C4F87C01099815F07CFCD4F87C01A3
:10B2900088B9316804F1A402286815F088FC05908B
:10B2A000059815F01CFECBF80000DBF8000010B983
:10B2B0005320C4F87C01D4F87C0148B9DBF80000C5
:10B2C0000021059A15F01BFE04F19800009039E06A
:10B2D00041E00000494441540000000049454E440B
:10B2E00000000000504C54450000000074524E53C2
:10B2F00000000000624B4744000000007445587491
:10B30000000000007A54587400000000695458741A
:10B310000000000074494D4500000000704859735A
:10B320000000000067414D41000000006348524D9D
:10B330000000000073524742000000006943435080
:10B340000000000033682A68DBF8000007992DF040
:10B350002AFAC4F87C01079815F014FC00BF6CE5CC
:10B360002DE9FF4F8DB005460E461446F07A0228AF
:10B3700003DC012011B0BDE8F08F3089326901464D
:10B380000C901098FBF7A4F907460FB90020F1E7DD
:10B39000397D01F01F001EF022FA10B14FF00608AF
:10B3A0000AE0397D01F01F001EF0FCF910B14FF0EA
:10B3B000050801E04FF00408386A38B100BF00BF4B
:10B3C000214628463A6A30F0B7FADEE0B86900282C
:10B3D00059D021460BA816F022FD308818B9708884
:10B3E000B0F5807F32D0204616F0FCFD834600BFCA
:10B3F000E0886188401A401C00B20890301D7188B6
:10B40000CDE90010308803B259460BA8089AFAF724
:10B4100089FCBDF82C002188084400B2ADF82C004E
:10B42000BDF82E006188084400B2ADF82E00BDF8CA
:10B4300030002188084400B2ADF83000BDF8320079
:10B440006188084400B2ADF8320000BF0BAA09A819
:10B45000A968FAF771F98146B9F1000F04D13846AD
:10B4600002F0EDF9012085E7D5F808A009A8A86049
:10B47000CDF80080224631462846BB6919F06CFFA2
:10B48000C5F808A081E022460BA8A968FAF754F98C
:10B490000A900A9820B9384602F0D1F9012069E7EC
:10B4A0000BA816F09FFD09900BA816F09BFD00EB72
:10B4B0004000039021F068F98146D5F808A00BA957
:10B4C00007A816F0ACFC012107A816F0FAFDBDF99B
:10B4D0002C00B4F90010401A0690BDF92E00B4F902
:10B4E0000210A0EB010BBDF92E00059042E007AA67
:10B4F000514602A8FAF720F90A900A9800B936E0F6
:10B50000CDF80090099803B20FFA8BF2069801B2B9
:10B5100038461EF091FE0490049801280ED038465B
:10B520001EF0AAFD00BF00BF484621F0A9F9384629
:10B5300002F085F9C5F808A000201BE702A8A86062
:10B540004B4607AA31462846CDF8008019F004FF83
:10B55000BDF81E00401C00B2ADF81E00BDF8220070
:10B56000401C00B2ADF822000BF1010B00BF0598A2
:10B57000401C0590BDF9321005988142B7DAC5F834
:10B5800008A0484621F07CF900BF384602F057F980
:10B590000120EFE670B505460C46A06920B1A06910
:10B5A00021F086F90020A06170BD00002DE9F04374
:10B5B00087B081460D46144628461FF0E1F807463D
:10B5C000012F4ED12E463046F5F74CF9C01E00EB48
:10B5D000060838A14046F5F72DFA002840D102228E
:10B5E000314602A81DF072FA8046B8F1000F03D070
:10B5F000002007B0BDE8F0830022102102A81DF052
:10B600008CFB01AB082205A902A81DF0AAFA01983B
:10B61000082801D00020ECE702A81DF0A7F9206857
:10B6200020F0E0002060206820F01F00801C2060D7
:10B630000598000E059901F47F0100EB11212068A7
:10B6400061F3942020600698000E069901F47F01B2
:10B6500000EB1121206861F35F5020600120C8E7F2
:10B6600025E01FBB2E4614A103C9CDE90501082220
:10B6700005A8B168F5F7A6F808B10020B9E7206879
:10B6800020F0E00020603078216860F30401216040
:10B690003068810A206861F3942020603068410D91
:10B6A000206861F35F5020600120A2E700BF002006
:10B6B0009FE70000706E670089504E470D0A1A0A16
:10B6C0002DE9F04186B080460C4600200590207C94
:10B6D000012834D166683046F5F7C4F8C01E8719D2
:10B6E00025A13846F5F7A6F940BB324603A904A8C0
:10B6F00015F0D6FB05462DB100BF00BF002006B0F7
:10B70000BDE8F0810398009001AA02A905A8049B56
:10B7100015F0ACF90546049821F0CAF81DB100BF38
:10B7200000BF0020EBE7DDE9012000FB02F10598F6
:10B73000FEF7AAFE0598A0610120E0E71AE0207C50
:10B74000B8B966687068009003AA04A905A8B36830
:10B7500015F08CF905460DB10020D0E7DDE9032096
:10B7600000FB02F10598FEF78FFE0598A06101200D
:10B77000C5E700BF0020C2E7706E670000BF00BFD2
:10B780007047000070B504460420F8F7B1F80A4885
:10B79000046025464FF47A7045434FF0E02000697D
:10B7A00040F002004FF0E021086108464561006961
:10B7B00040F00100086170BD1000002030B5044663
:10B7C000002504E04FF47A7000F004F86D1CA542E7
:10B7D000F8D330BD70B5034600224FF0E0267569FE
:10B7E0000D4E366803FB06F44FF0E026B16910E019
:10B7F0004FF0E026B06988420BD0884202D20E1A80
:10B80000324402E02E1A0E4432440146A24200D3D2
:10B8100000E0EDE700BF70BD100000202DE9F04111
:10B8200004460E46D4F800800021204600F06EFB4E
:10B8300005465DBB002700BF4046A16B2CF060F9B8
:10B84000054605B121E098F80000042805D1E06B19
:10B850000078012121EAD01009E0E06B0078E528AA
:10B8600002D0E06B007808B9012000E0002020B190
:10B87000781C0746B04201D107E00027012120468D
:10B8800000F041F90546002DD6D000BF042D00D1AF
:10B8900007252846BDE8F0812DE9F0470446894692
:10B8A000204632F025FA10B10120BDE8F087494664
:10B8B0002046FEF798FB0746A7634FF4007200216D
:10B8C00004F13C002BF022FE60894FF40041B1EB03
:10B8D000402F01D8084601E06089400206464FF03B
:10B8E000000800E07608B6F5007F05D930460AF07A
:10B8F000A3F8B0F10008F5D0B6F5007F17D93246AD
:10B90000002140462BF002FE760A002500E0354477
:10B910006089A84207D97A1960783346414600F019
:10B92000FDFB0028F3D040460AF08DF810E004F14A
:10B930003C080126002500E035446089A84207D96B
:10B940007A1960783346414600F0E8FB0028F3D0CE
:10B950006089A84201D00120A7E70020A5E72DE9D2
:10B96000F04F85B0044625680021204600F0CEFA4D
:10B9700007461FB1384605B0BDE8F08F2878042887
:10B980004CD1E86836F069FA01903EE0296901F18E
:10B99000240014F0F5F80199884200D035E02869B8
:10B9A00090F8230003904FF0400A002002901FE01F
:10B9B0000AF01F0008B90AF1020A296901EB0A001E
:10B9C00014F0DEF800900AF0B3F88346EA680299B2
:10B9D00032F811000AF0ACF8834500D00BE0039870
:10B9E000401EC0B203900AF1020A0298401C029065
:10B9F00003980028DCD100BF039828B9E9680298B1
:10BA000031F8100000B906E000BF0021204600F028
:10BA1000EAF8071EBAD000BF3846ACE74FF0FF097E
:10BA2000CDF810904FF0FF30E06400BF2846A16BC6
:10BA30002CF066F8074607B162E0E06B06780EB9B5
:10BA400004275DE0E06BC07A00F03F0884F80680D0
:10BA5000E52E05D008F0080040B1B8F10F0F05D071
:10BA60004FF0FF094FF0FF30E06442E0B8F10F0FF4
:10BA700022D14B20005D00F04000A0BB06F040004A
:10BA800038B1E06B407B049006F0BF06B146206BF6
:10BA9000E0644E450CD1E06B417B0498814207D1B4
:10BAA000E16BE868FEF7ACFA10B1A9F1010000E023
:10BAB000FF2000F0FF091CE0B9F1000F06D1E06B98
:10BAC00032F0BEF80499884200D119E04B20005DA5
:10BAD00000F0010040B90B2204F14001E06B2BF0B3
:10BAE000F6FC08B90CE004E04FF0FF094FF0FF301E
:10BAF000E0640021204600F006F80746002F95D0AC
:10BB000000BF384637E72DE9F041044688462768EC
:10BB1000206B00F120063878042801D1800601E06E
:10BB20004FF40010B04201D80020A063A06B10B900
:10BB30000420BDE8F081C6F3080000284AD1A06BBC
:10BB4000401CA063606B38B93889B0EB561F41D8F0
:10BB50000020A0630420ECE77889401E00EA56200C
:10BB6000002837D12046616B0CF0DBFE0546012D25
:10BB700001D80220DDE7681C08B90120D9E7F8697F
:10BB8000A84221D8B8F1000F03D10020A0630420FF
:10BB9000CFE72046616BFEF7C1FC05460DB90720D3
:10BBA000C7E7012D01D10220C3E7681C08B90120B5
:10BBB000BFE729463846FFF76FFE08B10120B8E716
:10BBC000E07940F00400E071656329463846FEF7ED
:10BBD0000AFAA0632663C6F3080107F13C00084493
:10BBE000E0630020A5E72DE9F05F044688460426BF
:10BBF00027684FF0FF0AD3466CE03846A16B2BF064
:10BC00007FFF064606B168E0E06B05780DB90426B3
:10BC100063E03878042814D1B8F1000F02D0832DE6
:10BC200051D15AE0852D4ED1206BE064204614F0AE
:10BC3000DDFA064626B93869007900F03F00A071A8
:10BC40004BE0E06BC07A00F03F0984F80690E52DE8
:10BC50000AD02E2D08D029F02000082801D101207B
:10BC600000E00020404502D04FF0FF0A2BE0B9F180
:10BC70000F0F1CD105F0400038B1E06B90F80DB00B
:10BC800005F0BF05AA46206BE06455450BD1E06B7B
:10BC9000407B584507D1E16BF8682CF049FC10B1A6
:10BCA000AAF1010000E0FF2000F0FF0A0BE0BAF16A
:10BCB000000F04D1E06B31F0C3FF584502D04FF0C4
:10BCC000FF30E06409E000212046FFF71CFF064634
:10BCD00006B102E0A06B00288FD100BF0EB100209A
:10BCE000A0633046BDE8F09F2DE9F04F99B00446BF
:10BCF00026684B20005D00F0A00018B1062019B0A6
:10BD0000BDE8F08F4FF0000B01E00BF1010BF06884
:10BD100030F81B000028F8D13078042866D10BF1E8
:10BD20000E000F21B0FBF1F000F102094946204658
:10BD3000FFF774FD05460DB12846E0E7A9F10100C3
:10BD40002022216B02FB1010E064E07900F0040077
:10BD5000002845D0E07920F00400E071204609F089
:10BD6000F1FF05460DB12846C9E74FF0FF322046E6
:10BD7000616B0AF002F805460DB12846BFE7A068DE
:10BD800070B32146684614F011FA05460DB12846F5
:10BD9000B5E770894002D4E90431181841F1000177
:10BDA000C4E90401D4E90473316901F138003A4669
:10BDB0002FF072FFD4E90473316901F128003A468B
:10BDC0002FF06AFFE07940F00100316981F821002D
:10BDD000684630F013F805460DB128468FE700BFDE
:10BDE000D6E90310FEF7AAFD002088E70C2204F133
:10BDF000400115A82BF07DFB9DF85F0000F00100CD
:10BE000028B340214B2001554FF0010A0EE0534664
:10BE100015A904F14000F2680BF04EFC2046FFF734
:10BE20009EFD054605B104E00AF1010ABAF1640F6E
:10BE3000EDD300BFBAF1640F01D107205FE7042DF5
:10BE400001D028465BE79DF85F104B2001559DF817
:10BE50005F0000F0020030B10BF10C000D21B0FBCF
:10BE6000F1F0401C00E00120814649462046FFF7E2
:10BE7000D5FC054675BBA9F10100B0F1000929D038
:10BE8000206BA0EB4911204600F040F805460DBBA1
:10BE900004F1400031F0D4FE149000BF3046A16B95
:10BEA0002BF02EFE054605B113E009F0FF02E16B11
:10BEB000F068149B2DF05CFB0120F07000212046FF
:10BEC000FFF721FE054625B9A9F10100B0F10009EF
:10BED000E4D100BFC5B93046A16B2BF011FE054679
:10BEE00095B920220021E06B2BF010FB0B2204F10E
:10BEF0004001E06B2BF0FDFA4B20005D00F01800D4
:10BF0000E16B08730120F0702846F8E62DE9F04156
:10BF100004460D4626683078042801D1800601E0E9
:10BF20004FF40010A84202D905F01F0010B1022002
:10BF3000BDE8F0812563A7682FB93078032802DBBC
:10BF4000F76A0020E07147B93089B0EB551F01D87E
:10BF50000220EDE7F06AA0631CE070894FEA4028F8
:10BF600011E0394620460CF0DCFC0746781C08B985
:10BF70000120DDE7022F02D3F069B84201D8022088
:10BF8000D6E7A5EB08054545EBD239463046FEF726
:10BF90002AF8A0636763A06B08B90220C8E7A06B0A
:10BFA00000EB5520A063C5F3080106F13C000844EE
:10BFB000E0630020BCE770B50446002514B1012CF5
:10BFC00007D103E02FF018FA054604E02BF0EAFF52
:10BFD00001E0012500BF00BF0DB1012070BD0020B0
:10BFE000FCE700002DE9F0470646894615465EBB92
:10BFF000B9F1000F09D0B9F1010F13D0B9F1020F57
:10C0000005D0B9F1030F1CD106E000241BE04FF46A
:10C0100000702860002416E01E48B0F85800288000
:10C02000002410E01B48416D806DA1FB00700146AB
:10C030004FF4007200233846F4F72AFA28600024EF
:10C0400001E0042400BF22E0012E1FD1B9F1000F4E
:10C0500009D0B9F1010F11D0B9F1020F05D0B9F132
:10C06000030F10D106E000240FE04FF40070288089
:10C0700000240AE008202880002406E04FF4C04095
:10C080002860002401E0042400BF00E001242046D1
:10C09000BDE8F087E00800202DE9F04180460E461B
:10C0A00014461D46002715B90420BDE8F081B8F1FB
:10C0B000000F03D0B8F1010F25D113E02A46214625
:10C0C00030462FF0C1F9074609E0022F01D02FF0CA
:10C0D00093F92A46214630462FF0B6F90746002F3D
:10C0E000F3D112E00BE0002000EB44214FF400728A
:10C0F00030462BF0B7FF641C06F500766D1E002D50
:10C10000F1D1002701E0012700BF00BF0FB90020D7
:10C11000CBE70120C9E70146002070472DE9F04137
:10C1200007460E4614461D464FF0000815B9042078
:10C13000BDE8F08117B1012F24D112E02A46214633
:10C1400030462FF0A9F9804607E02FF055F92A462E
:10C15000214630462FF0A0F98046B8F1000FF4D107
:10C1600013E00BE0002000EB44214FF40072304656
:10C170002CF01AF8641C06F500766D1E002DF1D126
:10C18000A84602E04FF0010800BF00BFB8F1000F61
:10C1900001D10020CCE70120CAE7F8B506460C46DD
:10C1A00015460095B4F90630B4F90420B4F902102C
:10C1B000B4F9000010F095FC304618F08DFDF8BD84
:10C1C00010B512F0DFFE012010F09EFB10BDF8B597
:10C1D00005462C461EF034FB0646206B29F08EFFE8
:10C1E0003168898B88422CD2606A009094F83C00B8
:10C1F00000F0030020B1012806D002280CD107E08E
:10C200000020ADF8000007E064208DF8020003E094
:10C2100064208DF8030000BF00BF30461EF0D4FC40
:10C220002846009918F0EFFB50B100221C21284647
:10C230001CF02CFA0746012F01D03846F8BD00BF8C
:10C2400000BF29F068FF20630120F7E72DE9F04FD8
:10C250009BB0074689461646BA4617A818F0F9FD5E
:10C260004FF4A021384623F013FB9DF8691060F3CA
:10C2700082018DF86910304615F0D0FE054600EBBE
:10C28000D5704FEA60083088404400B2ADF85800DD
:10C290007088404400B2ADF85A000021384623F0BF
:10C2A000AAFC1590494603A822F004F917A80B90A0
:10C2B0004FF40030109033480490002005900AF1AC
:10C2C0003000FAF701FD044657E02079032800D03A
:10C2D0004DE0208BADF85C00208A00B2ADF85E0026
:10C2E0006079FD2801DD159803E0607915994843D0
:10C2F00000128DF868002568B5F92000E98B084424
:10C300000090B5F92030D5E90512A06820F0EEF9CB
:10C310008346B5F92000E98B08440090B5F9203038
:10C32000D5E90512E06820F0E1F90290608B404405
:10C3300000B2ADF84800149416A80C9003AA1A2174
:10C3400038461CF0A3F9029880B21FFA8BF1CDE9B0
:10C350000010BDF8480083B216AA17A9484618F085
:10C360005AFD03AA1B2138461CF090F900BF214654
:10C370000AF13000FAF7A2FC0446002CA5D11BB04C
:10C38000BDE8F08F005D040870B504460D4600223C
:10C390002946204607F082FE01222946204607F062
:10C3A0007DFE02222946204607F096FC04222946FB
:10C3B000204607F091FC70BD2DE9F74F9EB00C466A
:10C3C000E078022802DC21B0BDE8F08F1CA820999B
:10C3D00015F01CFDB4F9200001282EDD94F8220090
:10C3E000FD282ADB208840B3BDF8700014F8231F15
:10C3F0004908C1F38001084400B2ADF87000BDF8EF
:10C40000720021784908C1F34001084400B2ADF838
:10C410007200BDF8740021784908C1F3C001401AC8
:10C4200000B2ADF87400BDF8760014F82319C1F31A
:10C430004001401A00B2ADF876001E981CA982682F
:10C440001AA8F9F779F900B9BDE7E07B00F0070613
:10C4500016B9A088199001E0E0881990BDF8641021
:10C460006089814200D100261CA819F0DBFE1890DB
:10C470001C2111A8F4F7B6FAA0788DF85D00BDF87C
:10C480006400ADF84C00189860B9208850B94EB9D6
:10C490001CA81190E0788DF85C0011A91E981AF084
:10C4A00071FD90E7E078FD2801DBFF2000E0E078F7
:10C4B00010901CA815F08FFD0F901CA815F011FD11
:10C4C0000E90DDE90E01814201DA0F9800E00E982E
:10C4D0000D90B4F900100D98B1EB600F02DAB4F9C9
:10C4E000000001E00D98401007461AA815F073FDF2
:10C4F00081464FF0FF300C9000200B90002F01DCA4
:10C50000189870B1484620F03FF90B9000233AB2DA
:10C510001CA905A81AF0FEF9002105A819F07CFB5A
:10C520000C90BDF86800ADF80C00BDF86C00ADF8DB
:10C5300010000B98149003A811901690FF208DF80E
:10C540005C00A01DDDE90E211CF01CFD8046B8F149
:10C55000000F0CD0022E0AD1BDF96810D8F80800DF
:10C5600000EB4100BDF97010A0EB4100129018984B
:10C57000A0B3BDF96A502CE028B2ADF80E0028B285
:10C58000ADF812004A4610990B9820F06EFBBDF9E9
:10C5900068100FFA89F32AB20B9819F0F3FD8DF8A1
:10C5A00054009DF85400012802D102208DF8540057
:10C5B000012E09D1BDF97210691AD8F8080000EBF4
:10C5C00041000088ADF84C0011A91E981AF0DAFC61
:10C5D0006D1CBDF96E00A842CEDACCE0FFE7002565
:10C5E0005CE0BDF8720028440FFA80FABDF87600CE
:10C5F000401B0FFA80FBBDF96A00504504DDBDF910
:10C600006E00584500DA48E04A4610990B9820F031
:10C610002CFBBDF90C100FFA89F352460B9819F058
:10C62000B1FD8DF854009DF85400012802D102207C
:10C630008DF85400BDF96A00504514DCADF80EA029
:10C64000ADF812A0012E0AD1BDF97210AAEB0101BA
:10C65000D8F8080000EB41000088ADF84C0011A9A3
:10C660001E981AF08FFCBDF96E00584514DBADF82A
:10C670000EB0ADF812B0012E0AD1BDF97210ABEBBD
:10C680000101D8F8080000EB41000088ADF84C002B
:10C6900011A91E981AF076FC00BF6D1CBD42A0DBEC
:10C6A000BDF87000ADF80400BDF87400ADF80800E6
:10C6B000BDF87200384400B2ADF80600BDF876004F
:10C6C000C01B00B2ADF80A0001A819F0ABFD009044
:10C6D0000098B0B9AEB9BDF87200384400B2ADF8F8
:10C6E0000E00BDF87600C01B00B2ADF81200109825
:10C6F0008DF85C000020149011A91E981AF042FCDD
:10C7000038E010988DF85C0001208DF85400BDF9D8
:10C710007600A0EB070ABDF97200C51927E0009862
:10C7200070B14A4610990B9820F09FFABDF9681035
:10C730000FFA89F32AB20B9819F024FD8DF85400F2
:10C7400028B2ADF80E0028B2ADF81200012E09D1C2
:10C75000BDF97210691AD8F8080000EB4100008892
:10C76000ADF84C0011A91E981AF00CFC6D1C554533
:10C77000D5DD00BF00BF0B9810B10B9820F080F8FA
:10C780000C98401C28B10C981AF0ACF905A819F0C7
:10C7900025FDB8F1000F02D040461CF0EAFB00BFB7
:10C7A00011E62DE9F0478EB007460C461546206984
:10C7B00010B90EB0BDE8F087A07E022800DCF8E7D3
:10C7C00020691DF0DDFF0646022E55D1002041F6FE
:10C7D000FF71CDE90001029003460DA8D4E90412CF
:10C7E0002AF084F8284615F0F6FB814600EBD97054
:10C7F000298801EB6000BDF9348008EBD871A0EB0B
:10C80000610000B2ADF82C00BDF82C00BDF834106A
:10C810000844401E00B2ADF83000284615F061FB18
:10C82000814600EBD970698801EB6000BDF9368064
:10C8300008EBD871A0EB610000B2ADF82E00BDF896
:10C840002E00BDF836100844401E00B2ADF832008C
:10C8500003A819F069F960690390208BADF81800FE
:10C86000A07E8DF82600002000900BAA03A9384670
:10C87000236918F0A5FDAEE00DA920691DF028FC84
:10C880008046B8F1010F02D000BF00BF91E707A8B2
:10C8900018F079FDA0788DF82800208BADF82400E1
:10C8A000E07E8DF82600A07E8DF82700207FE8BB73
:10C8B000284615F090FB824600EBDA70298801EBE0
:10C8C00060000D99C1F38A2909EBD971A0EB6100D1
:10C8D00000B2ADF81400284615F003FB824600EBC9
:10C8E000DA70698801EB60000D994FEA515909EB44
:10C8F000D971A0EB610000B2ADF81600BDF81400CC
:10C900000D99C1F38A210844401E00B2ADF8180009
:10C91000BDF816000D9900EB5150401E00B2ADF865
:10C920001A0005AA07A93846236900E002E018F0BA
:10C93000DBFC4FE06888ADF81600BDF816000D99D5
:10C9400000EB5150401E00B2ADF81A003BE02888C1
:10C95000ADF81400BDF814000D99C1F38A21084404
:10C96000401E00B2ADF8180017E005AA07A9384626
:10C97000236918F0B9FCBDF814000D99C1F38A21A0
:10C98000084400B2ADF81400BDF818000D99C1F3C9
:10C990008A21084400B2ADF81800BDF91400B5F9B9
:10C9A00004108842E1DDBDF816000D9900EB5150EE
:10C9B00000B2ADF81600BDF81A000D9900EB515009
:10C9C00000B2ADF81A00BDF91600B5F9061088429C
:10C9D000BDDD00BF00BF00BFEBE62DE9F04F87B023
:10C9E00083460C46164694F82200022802DC07B063
:10C9F000BDE8F08F208C00B9F9E794F82300C0F36C
:10CA0000440000B9F3E794F8230000F0010000B1FE
:10CA1000EDE7304615F0DFFA8146304615F061FA51
:10CA20000746B4F90050B94501DA484600E03846F7
:10CA30008246B5EB6A0F01DD4FEA6A05314605A86B
:10CA400015F0E4F9BDF9141094F82300400800F043
:10CA5000040010B1B4F9200003E0B4F92000284428
:10CA60004042084400B2ADF81400BDF9181094F823
:10CA70002300400800F0080010B1B4F9200003E0E2
:10CA8000B4F9200028444042081A00B2ADF818005A
:10CA9000BDF9161094F82300400800F0020010B110
:10CAA000B4F9200003E0B4F92000284440420844CF
:10CAB00000B2ADF81600BDF91A1094F82300C0F3C7
:10CAC000400010B1B4F9200003E0B4F9200028447C
:10CAD0004042081A00B2ADF81A00208C281A0FFA4A
:10CAE00080F8B8F1000F01DA4FF00008A07894F850
:10CAF0002210CDE90210E08BADF804002BB205AA9C
:10CB000031465846CDF8008000F002F800BF6EE7CD
:10CB10002DE9FF4FA3B00D4616461F463298FF2859
:10CB200001DBFF2000E032983290284619F07AFBB2
:10CB30002290229868B967B9309850B9329800901D
:10CB400032462946319B239800F0A9FA27B0BDE868
:10CB5000F08F23982946826820A8F8F7EDFD00B9E8
:10CB6000F4E720A815F037FA81461C2119A820F017
:10CB7000B6F848461FF008FE1C904FF0FF301890A2
:10CB8000002F0ADD00233A46294612A819F0C2FEFA
:10CB9000002112A819F040F81890012331460CA882
:10CBA000309A19F0B7FE00210CA819F035F80B9057
:10CBB00009A819901E90BDF8C400ADF86C00329819
:10CBC0008DF87C0033988DF87D00B5F9000038446D
:10CBD000B6F90010884203DDB5F90000384401E0E1
:10CBE000B6F9000000B2ADF81C00B5F90400C01B96
:10CBF000B6F90410884203DAB5F90400C01B01E05D
:10CC0000B6F9040000B2ADF82000B5F902003844CE
:10CC1000B6F90210884203DDB5F90200384401E09C
:10CC2000B6F9020000B2ADF81E00B5F90600C01B4F
:10CC3000B6F90610884203DAB5F90600C01B01E018
:10CC4000B6F9060000B2ADF8220007A815F0C3F946
:10CC50000690B5F90200B6F90210884201DC012005
:10CC600000E000208246B5F90600B6F906108842B9
:10CC700001DB012000E000208346229800284CD0F0
:10CC8000BDF88000ADF82400BDF88400ADF82800A0
:10CC9000BDF9824029E0BAF1000F04D1BDF91E00B0
:10CCA000A04200DD20E0BBF1000F04D1BDF922005D
:10CCB000A04200DA1DE020B2ADF8260020B2ADF8A7
:10CCC0002A0049461C9820F041F8BDF980100FFA5F
:10CCD00089F322B21C9819F055FA8DF8740019A93D
:10CCE00023981AF04FF900BF641CBDF98600A042DA
:10CCF000D1DA00BF0CA819F071FA0B9819F0F2FE06
:10CD00001898401C28B112A819F068FA189819F060
:10CD1000E9FE1C981FF0B4FD18E7B5F90000B6F95C
:10CD20000010884201DC012000E000200590B5F9E8
:10CD30000400B6F90410884201DB012000E0002065
:10CD4000049001200390059860B1049850B1BAF1A5
:10CD5000000F07D0BBF1000F04D00698322801DA8B
:10CD60000020039001208DF87400BAF1000F15D057
:10CD7000039898B1BDF81C00ADF82400BDF8200060
:10CD8000ADF828006888ADF826007088401E00B213
:10CD9000ADF82A0019A923981AF0F4F8BBF1000F96
:10CDA00015D0039898B1BDF81C00ADF82400BDF86B
:10CDB0002000ADF82800F088401C00B2ADF8260035
:10CDC000E888ADF82A0019A923981AF0DBF805982D
:10CDD00098B12888ADF824003088401E00B2ADF824
:10CDE0002800BDF81E00ADF82600BDF82200ADF801
:10CDF0002A0019A923981AF0C5F8049898B1B088A8
:10CE0000401C00B2ADF82400A888ADF82800BDF899
:10CE10001E00ADF82600BDF82200ADF82A0019A9C1
:10CE200023981AF0AFF80398F0BBBDF88000ADF876
:10CE30002400BDF88400ADF82800B5F90200B6F969
:10CE40000210401AB84201DA384604E0B5F902008F
:10CE5000B6F90210401A00B20290002442E068883D
:10CE6000204400B20190E888001B00B20090BDF998
:10CE700082100198814205DDBDF98610009881423B
:10CE800000DA2EE049461C981FF060FFBDF924101F
:10CE90000FFA89F3019A1C9819F074F98DF874004F
:10CEA000BDF98210019800E020E0814209DC019880
:10CEB000ADF826000198ADF82A0019A923981AF0B8
:10CEC00061F8BDF986100098814209DB0098ADF841
:10CED00026000098ADF82A0019A923981AF052F8F4
:10CEE00000BF641C02988442B9DBC7E0BDF8800033
:10CEF000ADF82400BDF98410BDF91C00401E81422C
:10CF000002DABDF9840002E0BDF91C00401E00B247
:10CF1000ADF8280009A815F05EF88046B8F1000FBA
:10CF200048DD059810B9BAF1000F1ED0BDF9824056
:10CF300017E020B2ADF8260020B2ADF82A00414635
:10CF40001C981FF003FFBDF92410434622B21C9821
:10CF500019F018F98DF8740019A923981AF012F82D
:10CF6000641CBDF91E00A042E3DC059810B9BBF1BA
:10CF7000000F1FD0BDF92200441C17E020B2ADF80D
:10CF8000260020B2ADF82A0041461C981FF0DEFEB4
:10CF9000BDF92410434622B21C9819F0F3F88DF81D
:10CFA000740019A9239819F0EDFF641CBDF98600DF
:10CFB000A042E3DABDF98010BDF92000401C814297
:10CFC00002DDBDF9800002E0BDF92000401C00B286
:10CFD000ADF82400BDF88400ADF8280009A814F0CD
:10CFE000FAFF8046B8F1000F48DD049810B9BAF195
:10CFF000000F1ED0BDF9824017E020B2ADF8260028
:10D0000020B2ADF82A0041461C981FF09FFEBDF9E2
:10D010002410434622B21C9819F0B4F88DF874001D
:10D0200019A9239819F0AEFF641CBDF91E00A04297
:10D03000E3DC049810B9BBF1000F1FD0BDF922004A
:10D04000441C17E020B2ADF8260020B2ADF82A004B
:10D0500041461C981FF07AFEBDF92410434622B2C7
:10D060001C9819F08FF88DF8740019A9239819F0FD
:10D0700089FF641CBDF98600A042E3DA0CA819F010
:10D08000ADF80B9819F02EFD12A819F0A7F8189812
:10D0900019F028FD1C981FF0F3FB00BF56E52DE9A1
:10D0A000FF4F89B080460C461546DDF858901C218C
:10D0B00068461FF014FE07A80090BDF83000ADF8D8
:10D0C00008008DF81890B4F90200B5F902108842F2
:10D0D00001DC012000E000200646B4F90600B5F9A5
:10D0E0000610884201DB012000E000200746B4F969
:10D0F0000000B5F90010884201DC012000E00020AA
:10D100008246B4F90400B5F90410884201DB01201D
:10D1100000E0002083462088ADF81C00A088ADF810
:10D1200020006088ADF81E006888401E00B2ADF88F
:10D1300022001EB16946404619F024FFE888401CD1
:10D1400000B2ADF81E00E088ADF822001FB16946BC
:10D15000404619F017FF2088ADF81C002888401EB3
:10D1600000B2ADF8200016B1B5F9020001E0B4F943
:10D170000200ADF81E0017B1B5F9060001E0B4F9E0
:10D180000600ADF82200BAF1000F03D06946404610
:10D1900019F0F8FEA888401C00B2ADF81C00A08869
:10D1A000ADF82000BBF1000F03D06946404619F0EE
:10D1B000E9FE0DB0BDE8F08F2DE9FF4F93B00746B3
:10D1C000904699464FF6FF70804502D117B0BDE8F2
:10D1D000F08F3E46746A208C1290208C484506D011
:10D1E000A4F82090608C20F00400001D60844FF4AF
:10D1F0008021204623F0FFF811904FF48021204633
:10D2000023F069F9054611981BF0A0FB82463846C9
:10D210000BF0F7FF8346BBF81600ADF83E00BDF9F2
:10D220003E000AEB050108FB010000B2ADF83E002C
:10D23000284605EBD071BDF83E20A2EB610109B292
:10D24000ADF83E10BDF83E0050442844401E00B2E8
:10D25000ADF84200706A808AADF83C00706A008BBD
:10D26000ADF8400001A819F06BFC01AA4FF4802131
:10D27000204623F065FC0FAA01A9149819F044FC7C
:10D2800012982084608C20F00400608400BF9DE729
:10D290002DE9F04F91B007460D46904699464FF65E
:10D2A000FF70804502D111B0BDE8F08F1097109F3C
:10D2B0007C6A208C0F90208C484506D0A4F82090E2
:10D2C000608C20F00400001D608407A818F02CFC7E
:10D2D00007AA4FF48021204623F057FB4FF480210A
:10D2E000204623F0F8F8ADF82E0038460BF089FF01
:10D2F000064606B9D7E707981BF028FB8246F08A56
:10D30000ADF81600BDF91600BDF92E10514408FB0A
:10D31000010000B2ADF81600BDF92E0000EBD0718F
:10D32000BDF81620A2EB610109B2ADF81610BDF8E8
:10D3300016005044BDF82E100844401E00B2ADF84F
:10D340001A00A08AADF81400208BADF8180005AAC9
:10D3500003A8A968F8F7F0F98346BBF1000F13D0D2
:10D36000A868029003A8A86030461EF09DF90190BD
:10D370000020009006F1140207A92846019B18F02E
:10D380001FF80298A86000BF0F982084608C20F0DE
:10D390000400608400BF86E72DE9F041054635486A
:10D3A000006817F0B3FC04462868866BF06A10B179
:10D3B0003046F16A8847206890B1606880B10CE01F
:10D3C0002C4800680068806A38B12A4A12681068E0
:10D3D000284A12681268916A884720690028EFD1AC
:10D3E00001202061234800680068C068806900F05F
:10D3F000010050B11F4800680068C0688069C0F330
:10D40000400010B10120606101E0002060616069AE
:10D4100008B1012000E0002007462868406998B163
:10D420002868007CC0F3011048B12868007CC0F374
:10D43000800020B1D6E9001000F01EF804E0D6E923
:10D4400000212868FBF7E8FF206880B1606870B1B0
:10D450002868007C00F0010000B147B12168A06895
:10D46000884202D16068A06001E02068A060BDE849
:10D47000F0810000580100202DE9F34F83B00446ED
:10D48000884800680568874800680068007CC0F329
:10D49000400040B1287CC0F3800020B100BF00BF35
:10D4A00005B0BDE8F08F287CC0F3011002280AD136
:10D4B00021462846049A00F004F921462846049A99
:10D4C000FBF7AAFFEBE0287CC0F30110012804D091
:10D4D000287CC0F301100328F4D100200290714889
:10D4E000006817F013FC8246204614F058FD0646EB
:10D4F000204614F0E1FC83464FF4A050B0FBF6F058
:10D5000000B2584505DA4FF4A050B0FBF6F000B277
:10D5100000E058460190B4F90280287CC0F3011065
:10D5200001280BD168882188401A401E00B2E08093
:10D53000E088801B401C00B2608006E0208860808C
:10D5400060883044401E00B2E08000279EE0ABEBD4
:10D5500007010198814201DD019801E0ABEB070072
:10D560000FFA80F90120CAF8100047BBB34526DB4B
:10D57000B146297CC1F30111032901D1012100E049
:10D58000002108463146049A00F00FF9287CC0F3C8
:10D590000110012807D1A4F8008008EB0600401E06
:10D5A00000B2A0803FE02888401EA0EB080000B237
:10D5B000A080A088801B401C00B2208033E002982D
:10D5C00020B94FF420501FF0DFF80290029800902D
:10D5D000297CC1F30111032901D1012100E00021BF
:10D5E00008464A463146049B00F0B2F8287CC0F356
:10D5F000011001280AD108EB070000B2208008EBD7
:10D6000007004844401E00B2A0800CE02888401E5D
:10D61000A0EB0800C01B00B2A080A088A0EB09000E
:10D62000401C00B2208007EB090058450DDBDAF8FA
:10D63000180000F0010040B1DAF81800C0F3400013
:10D6400018B10120CAF8140002E00020CAF8140042
:10D65000029808B9049800E002980246214628463C
:10D66000FBF7DAFE04E0A86A10B12846A96A8847E9
:10D67000DAF810000028F6D106FB09F1049800EB57
:10D680004100049007EB090007B200BF5F45FFF6B9
:10D690005EAF029810B102981FF0F2F800BF00BF11
:10D6A000FEE600005801002018B5048800940C889C
:10D6B000048014880C801C881480BDF800401C80F5
:10D6C00018BD2DE9FC5F05460C461646204614F0B1
:10D6D00066FC8246204614F0EFFB83461AFB0BF0F3
:10D6E00001900198471E4FF0000811E006EB47003B
:10D6F0000088009006EB470006EB4801098801808E
:10D7000006EB4800BDF8001001807F1E08F10108FB
:10D710004745EBD8B4F9069068886188401A401EE6
:10D7200000B2E0806888A0EB0900401E00B2608073
:10D73000B4F9049028882188401A401E00B2A080C5
:10D740002888A0EB0900401E00B22080BDE8FC9FA5
:10D750002DE9F04704461D46089F01FB02F0A0F1A9
:10D76000010C481E00FB02F800231AE008EB03003E
:10D770000CB1ACEB000000260FE0A946AD1C07EB96
:10D78000400AB9F80090AAF800900CB1104400E0EB
:10D79000801A06F101090FFA89F68E42EDDB581C5A
:10D7A00003B29342E2DBBDE8F0872DE9F047824601
:10D7B0000C46154600263BE0002731E0601E801B2A
:10D7C0000FFA80F8601EC01B0FFA80F9BAF1000F43
:10D7D00012D007FB048C05EB4C0308FB049C05EB03
:10D7E0004C0209FB046C05EB4C0106FB047C05EBC9
:10D7F0004C00FFF759FF11E009FB046C05EB4C03EB
:10D8000008FB049C05EB4C0207FB048C05EB4C0168
:10D8100006FB047C05EB4C00FFF746FF781C07B2C3
:10D82000601C00EBD071B7EB610FC7DB701C06B258
:10D8300004EBD471B6EB610FBEDBBDE8F08710B529
:10D84000044620461CF018FC10BD00002DE9F14FE5
:10D850009EB01E981AF014FF05462C461E981AF02A
:10D86000B6FE1D90606A1DF01FFF07465020005D48
:10D8700000F0010010B91FB0BDE8F08F0FA819F03B
:10D880005FF90FAA4FF4E021284623F059F904F17B
:10D8900044010DA814F0F9FABDF83400616A898AD0
:10D8A000084400B2ADF83400BDF83610606AC08A92
:10D8B000084400B2ADF83600BDF83800616A898AC4
:10D8C000084400B2ADF83800BDF83A10606AC08A6A
:10D8D000084400B2ADF83A000DAA0FA91D9819F03E
:10D8E00013F94FF4E021284622F0CAF806464FF417
:10D8F000E021284622F02CFB30440FFA80F84FF448
:10D90000E021284622F09DFC30440FFA80F90020E7
:10D910000B900C90E16CC8191F4909688847824632
:10D92000E06CC11952460BA81FF04BF8BDF834004B
:10D93000404400B2ADF83400BDF83600484400B2AF
:10D94000ADF836004FF0000BD4F824A040F2574257
:10D950005946504622F082FC019001980A9002A894
:10D9600018F0E2F802AA4FF4E021284623F00DF85F
:10D970009DF83F00022805DCBDF81400BDF8281012
:10D98000884207D000200BAB0DAA02A900901D9879
:10D9900017F016FD00BF6EE7D00200202DE9F04F12
:10D9A000BDB005460E4600BF00BFAB460BF13000D0
:10D9B000F9F7D8F910B13DB0BDE8F08F05F11402C8
:10D9C0003BA8B168F7F7B8FE00B9F4E7B0683A9041
:10D9D0003BA8B06035A818F0F3F835AA4FF4E02161
:10D9E000284623F039F827A819F0AAF89DF8DC009A
:10D9F0008DF89F0047F6FF70ADF89C004FF4E021D2
:10DA0000284622F01EFE074600EBD7704FEA600959
:10DA10004FF4E021284622F014FE074600EBD770B1
:10DA20004FEA600A314604A820F044FD24A80A9079
:10DA300016A808904FF4E020119069480590052041
:10DA400006900BF13000F9F73FF90446C0E00A22D6
:10DA500035A924A81EF0B5FF382227A916A81EF064
:10DA6000B0FFE088ADF89000E088ADF85C0039A820
:10DA70000D9038A80E90607B00F0010020B1B4F941
:10DA80000070B4F9028010E0A08847F6FF71884268
:10DA900000D197E0A28801AB2846A16815F0E0FD0F
:10DAA000BDF90470BDF9068000BFA88A384407B2EA
:10DAB000E88A40440FFA80F8B9F1000F19D0BAF1A2
:10DAC000000F16D0A7EB090000B2ADF8080007EB75
:10DAD000090000B2ADF80C00A8EB0A0000B2ADF8E6
:10DAE0000A0008EB0A0000B2ADF80E0002A8079089
:10DAF00001E000200790207B00F0030070B3207B42
:10DB000000F0010010B1B5F9140000E03846ADF89E
:10DB1000E400ADF8E680207B00F0020010B1B5F91A
:10DB2000180000E03846ADF8E000BDF8E600ADF8BA
:10DB3000E20004AA1A2128461AF0A8FD38AB39AA37
:10DB400024A9304618F025F802AA16A9304618F084
:10DB5000DBFF04AA1B2128461AF098FD207B00F069
:10DB60000C0070B3ADF8E470207B00F0040010B13D
:10DB7000B5F9160000E04046ADF8E600BDF8E40057
:10DB8000ADF8E000207B00F0080010B1B5F91A00F4
:10DB900000E04046ADF8E20004AA1A2128461AF037
:10DBA00075FD38AB39AA24A9304617F0F2FF02AA56
:10DBB00016A9304618F0A8FF04AA1B2128461AF01F
:10DBC00065FD00BF21460BF13000F9F777F80446F8
:10DBD000002C7FF43CAF3A98B06000BFEBE6000049
:10DBE000C85704082DE9F14F9AB01A981AF048FD69
:10DBF00004461A981AF0EBFC1990204622F055FDC5
:10DC00000746204620F0B6FF834607EBD771A28A6D
:10DC100002EB610109B218910BEBDB714A10E18A4A
:10DC2000114409B2179107EBD7714E1014A817F0E1
:10DC3000C7FF14AA0021204622F00EFF4FF41D70EA
:10DC400016FB00F0552190FBF1F0642190FBF1F000
:10DC500000B2ADF85200BDF85200801C00B2ADF821
:10DC60005200002013900021204621F020FE05469E
:10DC7000002347F6FF7204F114010DA818F04AFEC4
:10DC800000210DA817F0C8FF0C9000BFA08AADF8C6
:10DC90002800E08AADF82A00208BADF82C00608BBC
:10DCA000ADF82E0000BFBDF82800284400B2ADF842
:10DCB0002800BDF82C00401B00B2ADF82C00BDF8C8
:10DCC0002A00284400B2ADF82A00BDF82E00401BFF
:10DCD00000B2ADF82E00012347F6FF720AA904A88E
:10DCE00018F018FE002104A817F096FF0390BDF964
:10DCF00052804FF0000A4FE051462046FAF792FA60
:10DD00000090BDF80000ADF850001398C0F30F2943
:10DD10000FFA89F028F0FCFC06EB0801484318993B
:10DD200001EBE03000B2ADF804000FFA89F028F002
:10DD3000DFFC06EB08014843179901EBE03000B225
:10DD4000ADF806000FFA89F028F0E2FC711BA1EB98
:10DD500008014843189901EBE03000B2ADF8080023
:10DD60000FFA89F028F0C4FC711BA1EB08014843AD
:10DD7000179901EBE03001B2ADF80A1002AB01AA2D
:10DD800014A9199817F005FF0AF103001FFA80FA89
:10DD9000139800F587601390BAF5807FACDD0DA86D
:10DDA00018F01CFA04A818F019FA0C9818F09AFE4A
:10DDB000039818F097FE1BB0BDE8F08F2DE9F04FE7
:10DDC000A5B004460F46254604F1140123A8BA68FD
:10DDD000F7F7B2FC2290229810B925B0BDE8F08F79
:10DDE000B868219023A8B8600021204621F021FEC8
:10DDF0001E900021204622F036F801461E98084465
:10DE000000B21D900021204622F099F901461E988B
:10DE1000084400B21C90204620F037FE7E35E98889
:10DE20004843001200B21B90204620F00FFE2989C3
:10DE30004843001200B21A9017A817F0C1FE17AAA3
:10DE40000021204622F008FE394605A820F032FBCA
:10DE5000002012908C4806900020079017A80B9085
:10DE60004FF0FF30139000200E900F9005AA1A215A
:10DE700020461AF00BFC0020019031222046019927
:10DE800022F0ECF90090009800F0FF0B00BF002199
:10DE9000204621F0CEFD0490002001903322204640
:10DEA000019922F0DBF90090009800F0FF0800BF14
:10DEB000204620F055FF0390204621F04BF80290B9
:10DEC00035F87E09002865D0E18A1C980144029843
:10DED000081A00B20190A08AADF88000208BADF83E
:10DEE0007C004FF00009B5F87E000FFA80FABBF114
:10DEF000020F1ADD0498002817DD08F0020040B177
:10DF00000021204622F01BF918B909F101000FFA8F
:10DF100080F908F0010040B10021204621F0C6FE42
:10DF200018B9AAF101000FFA80FA4E462FE01A98AC
:10DF30007043B5F87E10491E90FBF1F000B2ADF8C9
:10DF40008200BDF882100198084400B2ADF882004A
:10DF5000BDF88200ADF87E004B4806900120079086
:10DF600020A80E901FA80F90139605AA1A212046EC
:10DF70001AF08CFB1FAB20AA17A9384617F009FE30
:10DF800005AA1B2120461AF081FB701C06B25645DB
:10DF9000CDDB00BFB5F88000002865D0A18A1D98B0
:10DFA00001440398081A00B20190E08AADF882009B
:10DFB000608BADF87E004FF00009B5F880000FFAD5
:10DFC00080FABBF1020F1ADD0498002817DD08F073
:10DFD000040040B10021204621F045FF18B909F1A5
:10DFE00001000FFA80F908F0080040B10021204636
:10DFF00021F0E2FF18B9AAF101000FFA80FA4E46AB
:10E000002FE01B987043B5F88010491E90FBF1F08B
:10E0100000B2ADF88000BDF880100198084400B24D
:10E02000ADF88000BDF88000ADF87C001648069081
:10E030000220079020A80E901FA80F90139605AA03
:10E040001A2120461AF022FB1FAB20AA17A9384636
:10E0500017F09FFD05AA1B2120461AF017FB701C24
:10E0600006B25645CDDB00BF4FF0FF3013900020C5
:10E070000E900F9005AA1B2120461AF007FB21984D
:10E08000B86000BFA9E60000C85704082DE9F14FA9
:10E090009AB01A981AF093FA07461A981AF0F0FAFA
:10E0A00005462C46122F7DD11A981AF0E6FA06463C
:10E0B0003078022802D11BB0BDE8F08F94F8380008
:10E0C00000F00300032805D094F8380000F00300A6
:10E0D000022802D101203070EDE794F83800C0F337
:10E0E0008400042808D094F83800C0F38400012884
:10E0F00002D001203070DEE74FF0000A4622514680
:10E10000284622F0ABF819901998C0B2FF2802D027
:10E1100001203070CFE70021284622F01DFA814609
:10E12000208E8144B9F1000F02D001203070C2E787
:10E130000021284622F051FA8046E08E00FB08F0CC
:10E140004FEA20281A981AF098FA8346B8F5807F8B
:10E1500009D1002205F114015846F7F72EFBE8BB60
:10E1600001203070A7E7284620F004FD82462846AB
:10E1700022F09BFA179004F132001FFA88F1002375
:10E180005246CDE9001018A81799F7F7CBFDBDF856
:10E190006000A98A084400B2ADF86000BDF86210C2
:10E1A000E88A00E01DE0084400B2ADF86200BDF866
:10E1B0006400A98A084400B2ADF86400BDF8661096
:10E1C000E88A084400B2ADF86600002218A9584653
:10E1D000F7F7F3FA18B9012030706CE700E000BFE0
:10E1E00019E2152F01D0182FFAD10021284622F06C
:10E1F000F4F98046E08E00FB08F04FEA2028002169
:10E20000284622F0A9F98246208E8244284622F030
:10E210004CFA1990284620F0ADFC1890002641F2E7
:10E2200032023146284622F019F80E900E9800B2BC
:10E23000814600BF41F612023146284622F00EF810
:10E240000E900E9848440FFA80FB00BF41F613026F
:10E250003146284622F002F80E900E98484400B24B
:10E26000179000BF41F610023146284621F0F6FF14
:10E270000E900E98484400B2169000BF41F611026D
:10E280003146284621F0EAFF0E900E98484400B22D
:10E290001590608E584400B2ADF85000A18E1698CB
:10E2A000084400B2ADF8520094F8390000F00300C1
:10E2B000012804D112A9284620F006FC27E014A961
:10E2C0001FFA88F00FFA8AF3CDE9000112A8DDE900
:10E2D0001821F7F727FDBDF84800A98A084400B2C5
:10E2E000ADF84800BDF84A10E88A084400B2ADF81D
:10E2F0004A00BDF84C00A98A084400B2ADF84C00B1
:10E30000BDF84E10E88A084400B2ADF84E0005F1A1
:10E31000140110A813F0A7FD12A905F1140013F0C1
:10E32000A2FDBE481A9920F0EBFA0F900F98012831
:10E3300000D0C0E610A905F1140013F094FD152FCC
:10E340007ED1E08D08B1A08D00B9B4E6B8F1000F20
:10E3500000D1B0E61A981AF03AF9064605F1140110
:10E360000DA813F080FD28461CF0F8F80C9094F8E6
:10E37000390000F0030001283CD1B4F92C10BDF99C
:10E380003020891A481C00EBD071BDF83420A2EB74
:10E39000610109B2ADF83410B4F92C10BDF9302088
:10E3A000891A481C00EBD071BDF83820A2EB61013E
:10E3B00009B2ADF83810B4F92E10BDF93220891A1F
:10E3C000481C00EBD071BDF83620A2EB610109B208
:10E3D000ADF83610B4F92E10BDF93220891A481C58
:10E3E00000EBD071BDF83A20A2EB610109B2ADF8A3
:10E3F0003A1013E012A813F02DFEBDF834100844B3
:10E40000401E00B2ADF8380012A813F09BFDBDF815
:10E4100036100844401E00B2ADF83A00BDF8340092
:10E42000584400B2ADF83400BDF8361016980844D0
:10E4300000B2ADF83600BDF838101798081A00E0A1
:10E44000E8E000B2ADF83800BDF83A101598081AA7
:10E4500000B2ADF83A0094F8380000F0030001284B
:10E4600005D094F8380000F0030000287AD106A8FF
:10E4700016F089FF06AA0021284622F027FA1FFA83
:10E4800088F0ADF81A001FFA8AF0ADF81800608E17
:10E49000ADF81C00A18EADF81E1094F83800C0092C
:10E4A0008DF82C00BDF84800584400B2ADF81000BB
:10E4B000BDF84A101698084400B2ADF81200BDF835
:10E4C0004C101798081A00B2ADF81400BDF84E10A1
:10E4D0001598081A00B2ADF81600B068039004AAA7
:10E4E00004A8B168F7F728F900B9E4E504A8B0601A
:10E4F000BDF83610608D084400B2ADF80600BDF9D5
:10E500000600BDF93610884206DDBDF80600E18D33
:10E51000401A00B2ADF80600BDF80600E18D0844CF
:10E52000401E00B2ADF80A0049E0BDF83400218D6C
:10E53000084400B2ADF80400BDF90400BDF9341080
:10E54000884206DDBDF80400A18D401A00B2ADF886
:10E550000400BDF80400A18D0844401E00B2ADF8CF
:10E56000080016E034E001AA06A93046636A16F0F6
:10E57000BBFEBDF80400BDF83010084400B2ADF891
:10E580000400BDF80800BDF83010084400B2ADF832
:10E590000800BDF90400BDF938108842E3DBBDF87E
:10E5A0000600BDF83210084400B2ADF80600BDF810
:10E5B0000A00BDF83210084400B2ADF80A00BDF9F7
:10E5C0000600BDF93A108842AFDB0398B06020E046
:10E5D00094F8380000F00300022811D104A817F0C5
:10E5E000A3FA04AA0021284622F0CFF900200090C7
:10E5F00005F1140204A93046636A16F0E1FE08E052
:10E6000000BF00BF002305F114021946304616F082
:10E610006BFE00BF00BF00BF4DE50000549604082C
:10E620002DE9F14FDCB05C981AF02AF805462C462B
:10E630005C9819F0CCFF5B9059A9284620F044FA69
:10E640000020CDE9105040F60A02DDE9100121F06A
:10E6500005FE0F900F9800B258900020CDE91050A1
:10E6600040F60B02DDE9100121F0F8FD0F900F9844
:10E6700000B25790BDF864115898081A00B2ADF86E
:10E680006401BDF868115898084400B2ADF86801FB
:10E69000BDF866115798081A00B2ADF86601BDF8CA
:10E6A0006A115798084400B2ADF86A0159A813F0EE
:10E6B000C3FC834659A813F037FC5690D4E90A10DE
:10E6C000A0EB01095698834501DB012000E0002002
:10E6D00080460020559094F85C0000F0030001286B
:10E6E0000BD1A06A002808DAE06A002805DDA16ADB
:10E6F000206B884201D1012055900021284621F04D
:10E70000D9FB54900021284621F07DFC5390002134
:10E71000284621F03BFD52900021284621F0EDFAD9
:10E72000519059A904F1340013F08BFBA18E549839
:10E73000084400B2A086218F5398081A01B221879D
:10E74000E18E5298084401B2E186618F5198081A0F
:10E7500001B26187B8F1000F13D004F1340013F057
:10E76000E3FB04280DDA569800EBD0714A10E98AD1
:10E770001144891E0AB2E286E08E001D01B2618753
:10E7800015E0B8F1000F12D104F1340013F054FC7D
:10E7900004280CDA58460BEBD071AA8A02EB61010F
:10E7A000891E09B2A186A08E001D01B2218704F145
:10E7B000340013F041FC509004F1340013F0B4FB2A
:10E7C0004F90B8F1000F01D0509800E04F9882466A
:10E7D000B8F1000F05D004F13406371DFE484C9007
:10E7E00004E004F13606371DFC484C90A06D401C37
:10E7F000F8B1A36A216DC91A01FB0AF191FBF9F185
:10E8000008B2A36A616DC91A01FB0AF191FBF9F123
:10E810000AB2131AD4F858C003FB0CF1CB1701EB62
:10E8200013631B121BB24D934D99014409B24D91D4
:10E8300008E0A16A206B401A00FB0AF090FBF9F097
:10E8400000B24D90A06C401CE0B1A36A216CC91AC3
:10E8500001FB0AF191FBF9F108B2A36A616CC91AD4
:10E8600001FB0AF191FBF9F10AB2131AD4F848C07E
:10E8700003FB0CF1CB1701EB136300EB23231BB25B
:10E880004E9308E0D4E90901401A00FB0AF090FB1E
:10E89000F9F000B24E900020119041F26A422846F1
:10E8A000119921F0DBFC10901098C0B24B90B8F198
:10E8B000000F0ED04B9801280BD130463E4607463C
:10E8C0004E99494209B24E914D99494209B24D9132
:10E8D00000BFB8F1000F0AD031884E98084400B24A
:10E8E000388031884D98084400B230800AE0398879
:10E8F0004E98081A401C00B2308039884D98081A8A
:10E9000000B23880559878B3A26A524202FB0AF2EC
:10E9100092FBF9F211B2B8F1000F0CD032880A4420
:10E9200010B2B7F90020824201DD30801BE03A8846
:10E930003280388017E03A88521A521C10B2B6F969
:10E940000020824201DD388002E032883A80308047
:10E95000B7F90020B6F900309A4204DAB6F900009F
:10E960003A883280388000BF559800BB04F13400EB
:10E970004C99884701281ADC68465B991FF09AFD7C
:10E980004FF400300D90964801900020029004F161
:10E99000340003906A461A21284619F077FE6A4629
:10E9A0001B21284619F072FE5DB0BDE8F08F04F11E
:10E9B000340149A813F045FA3BA818F0C1F83BAA66
:10E9C0004FF40031284622F0BBF829A85B991FF0CC
:10E9D00071FD4FF40030369081482A9000202B9032
:10E9E0003BA82D9004F134002C9029AA1A21284626
:10E9F00019F04CFE0020119060222846119921F058
:10EA00002DFC1090109800B228905698834501DA9A
:10EA1000584600E056982790DDE92701B1EB600FDA
:10EA200002DD279840102890BDF9EC0026904F9900
:10EA30005098884201DA509800E04F982790DDE91D
:10EA40002601B0EB610F02DD279840102690B8F147
:10EA5000000F08D004F1340013F0EEFA01462698B6
:10EA6000B1EB400F0BDCB8F1000F28D104F13400FA
:10EA700013F05AFA01462698B1EB400F1FDD9DF8BE
:10EA8000EF0011909DF8060110909DF80E010F9077
:10EA900000208DF8EF008DF806018DF80E0104F1CD
:10EAA00034023BA95B9818F02FF811988DF8EF000D
:10EAB00010988DF806010F988DF80E0100BFA98AF5
:10EAC0005498084400B2ADF87800298B5398081A7E
:10EAD00000B2ADF87C00E98A5298084400B2ADF863
:10EAE0007A00698B5198081A00B2ADF87E000023B5
:10EAF0001EA920A8289A17F00DFF002120A817F0C2
:10EB00008BF81D909DF822011C909DF80E011B9022
:10EB100000208DF80E018DF8220159A919A813F0D3
:10EB200090F9BDF864105498084400B2ADF8640040
:10EB3000BDF866105298084400B2ADF86600BDF802
:10EB400068105398081A00B2ADF86800BDF86A1052
:10EB50005198081A00B2ADF86A00B8F1000F15D04C
:10EB600019A813F0E1F9042810DA569800EBD071D7
:10EB70004A10E98A1144891E09B2ADF86610BDF841
:10EB80006600001D00B2ADF86A0017E0B8F1000F92
:10EB900014D119A813F050FA04280FDA58460BEBD9
:10EBA000D071AA8A02EB6101891E09B2ADF8641026
:10EBB000BDF86400001D00B2ADF86800BDF9EC209E
:10EBC000002304F1340113A817F0A4FE002113A8B8
:10EBD00017F022F8129005E039200208291F0208D8
:10EBE000AC95040819AA3BA95B9817F08DFF1B98F8
:10EBF0008DF80E011C988DF8220100208DF8EF0091
:10EC00008DF806018DF8220104F134023BA95B98CE
:10EC100017F07AFF13A817F0E1FA20A817F0DEFA30
:10EC2000129817F05FFF1D9817F05CFF29AA1B21AF
:10EC3000284619F02BFD00BFB6E6F0B591B00546A9
:10EC4000284619F01DFD0446284619F0C0FC074669
:10EC5000264603A817F074FF03AA4FF4403120465C
:10EC600021F06EFF47F6FF70ADF80C002C20805DA0
:10EC700000F0010038B1204615F0B3FE0090BDF859
:10EC80000000ADF81000214601A80AF0D3F901AA4E
:10EC900003A9384617F038FF11B0F0BD2DE9F04F49
:10ECA000B3B08146484619F0EBFC804644464846DE
:10ECB00019F08DFC32900021404620F053FE0546AD
:10ECC000404621F0F2FC824640461FF053FF834647
:10ECD000DA4501DB012000E0002006460EB158466F
:10ECE00000E050463190002794F85C0000F00300EB
:10ECF000012806D1A06A002803DAE06A002800DDB6
:10ED00000127002E3CD097B93EB1012D02D1B4F9B4
:10ED1000340009E0B4F9380006E0012D02D1B4F95D
:10ED2000360001E0B4F93A00ADF8BC0037E0606AA3
:10ED3000002812DB3EB1012D02D1B4F9340009E004
:10ED4000B4F9380006E0012D02D1B4F9360001E033
:10ED5000B4F93A00ADF8BC0021E03EB1012D02D07B
:10ED6000B4F9340009E0B4F9380006E0012D02D00E
:10ED7000B4F9360001E0B4F93A00ADF8BC000EE099
:10ED80001FB9E08EADF8BE0009E0606A002803DB21
:10ED9000E08EADF8BE0002E0608FADF8BE0021A8A5
:10EDA00017F0CEFE21AA4FF44031404621F0C8FEB4
:10EDB00033462FA94046319A29F05BFC2FA904F174
:10EDC000680013F059F80FA832991FF073FB4FF445
:10EDD00040301C903C481090002011901D9004F190
:10EDE0006800129021A81390404624F0F6FF0228F4
:10EDF00010D00FAA1A21404619F048FC04F168020D
:10EE000021A9329817F080FE0FAA1B21404619F065
:10EE10003DFC55E0382221A901A81DF0D2FD0FAA22
:10EE20001A21404619F032FC04F1680221A93298F7
:10EE300017F06AFE0FAA1B21404619F027FC96B175
:10EE40003EB1012D02D0B4F9340009E0B4F9380024
:10EE500006E0012D02D0B4F9360001E0B4F93A0021
:10EE6000ADF8BC0002E0608FADF8BE0033462FA9BC
:10EE70004046319A29F0FDFB2FA904F1600012F001
:10EE8000FBFF382201A921A81DF09BFD0120119054
:10EE900004F16000129021A8139001201D900FAA88
:10EEA0001A21404619F0F2FB04F1600221A93298C0
:10EEB00017F02AFE0FAA1B21404619F0E7FB00BFFE
:10EEC00033B0BDE8F08F0000E09604082DE9F0476C
:10EED00090B00746384619F0D3FB054628461FF088
:10EEE00099FE064608A816F01FFE08AA0021304623
:10EEF00021F04BFD384619F06AFB0446D4F808802F
:10EF000006F1140206A8A168F6F716FC10B910B0B5
:10EF1000BDE8F08706A8A06004A930460AF03AFDD3
:10EF2000A88AADF80800E88AADF80A00288BADF889
:10EF30000C00BDF81200ADF80E0002AA02A8A168EC
:10EF4000F6F7FAFB98B1D4F8089002A8A06028461A
:10EF50001CF0AAFB82460020534605F1140208A9C2
:10EF60000090204616F02CFAC4F8089000BFA88A3A
:10EF7000ADF80800BDF81600ADF80A00288BADF812
:10EF80000C00688BADF80E0002AA02A8A168F6F783
:10EF9000D3FB98B1D4F8089002A8A06028461CF0D2
:10EFA00083FB82460020534605F1140208A9009015
:10EFB000204616F005FAC4F8089000BFC4F808808F
:10EFC00000BFA4E72DE9FF4FA1B0064614462498E0
:10EFD000807B00F00F052298807E1F90032D00D1CA
:10EFE0000425012D06D0022D0BD0042D10D0082DA4
:10EFF0001DD114E0DFF86C834FF0800A02201E90D0
:10F000001AE0DFF864834FF0C00A04201E9013E07A
:10F01000DFF858834FF0F00A10201E900CE0DFF864
:10F0200050834FF0FF0A4FF480701E9004E000BF41
:10F0300000BF25B0BDE8F08F00BF1F98FD2823DA80
:10F04000CC4801781F98814203D1CB480068A84280
:10F0500013D000200DE018F80010FF2901D11F99EE
:10F0600004E018F800101F9A51430912C34A1154C2
:10F07000401C1E998842EED300BFDFF80083BD49D3
:10F080001F980870BC4805602498B0F806B0249812
:10F0900000891B900BFB05F01A90B4F90000B168D1
:10F0A000B1F90010884201DB002005E0B068B0F93A
:10F0B0000000B4F90010401A1990B4F90000584447
:10F0C000B168B1F90410884201DC584606E0B06826
:10F0D000B0F90400B4F90010401A401C1890B4F9BB
:10F0E0000200B168B1F90210884201DB002005E09E
:10F0F000B068B0F90200B4F90210401A1790B4F9E0
:10F1000002101B980844B168B1F90610884201DC6E
:10F110001B9806E0B068B0F90600B4F90210401A76
:10F12000401C16901A9917984843199901FB05003D
:10F1300015902E99159801EBD0002E90159800F09F
:10F1400007071C210DA81DF0CAFD22988089ADF883
:10F150003C002298807E8DF84C002298807FC0F37E
:10F16000C2008DF84D00F8F7C3F8019015F0D2FDFC
:10F170000C901B980BFB00F10C98814201DD0C9860
:10F1800002E01B990BFB01F00B900B981DF0FCFAB1
:10F190008146CDF8409000200A90218819980844B3
:10F1A00000B2ADF82000218818980844401E00B233
:10F1B000ADF8240061881798084400B2ADF8220029
:10F1C000BDF82200ADF8260000BFBDF82400BDF850
:10F1D0002010401A401C00B2079000BFBDF820006C
:10F1E000ADF81400BDF82200ADF81600BDF82400FB
:10F1F000ADF81800BDF82600ADF81A0000BFBDF844
:10F2000016101698084400B2ADF81A0005A817F0B9
:10F2100009F8049008A80D901290C5F10800039019
:10F2200019980BEB00011898081A68430290179878
:10F230001C9078E00A9801902AFA07F0209019981B
:10F240001D9028E02E980078209908400399C91B4A
:10F25000C8401490149830B1149818F800100A9807
:10F2600009F8001003E000210A9809F8001003983B
:10F27000874204D22F442098E840209005E00027E0
:10F28000CDF880A02E98401C2E900A98401C0A9021
:10F290001D98401C1D9018991D988842D2DB049837
:10F2A000A0B1BDF92620BDF92010019B09EB030098
:10F2B000079B16F067FF8DF844009DF8440028B9BD
:10F2C000019909EB010007991DF009FDDDE918011D
:10F2D000411A0A9801440B98814206D2BDF82600D3
:10F2E000401C00B2ADF8260012E002208DF8440068
:10F2F0000DA9304617F046FEBDF82600401C00B2AE
:10F30000ADF82200BDF82200ADF8260000200A90DA
:10F31000029807442E9800EBD7002E9007F00707BD
:10F320001C98401C1C9016991C98884282DBBDF9E1
:10F330002200BDF9261088420ED0BDF82600401EDE
:10F3400000B2ADF8260002208DF844000DA9304629
:10F3500017F018FE00200A9048461DF091FA00BFF1
:10F3600067E60000145604081656040822560408DE
:10F3700032560408680100206C010020D4B000203F
:10F380002DE9FF4F8FB00C4615461E46B4F902001A
:10F39000401E0E900E9840100D900E9800F0010146
:10F3A0000D9808440C90B5F90000B6F90010884299
:10F3B00002DAB5F9000001E0B6F90000ADF8280066
:10F3C000B5F90000B6F90010884202DDB5F9000079
:10F3D00001E0B6F90000401E00B2ADF82C006988CB
:10F3E0000C98081A00B2ADF82A0069880D980844F4
:10F3F00000B2ADF82E000F980AA982680AA8F6F7A5
:10F400009BF98246BAF1000F02D113B0BDE8F08F2C
:10F41000E08818B1A08808B1012000E000208346F0
:10F42000012009900AA816F0FDFE10B100200990F5
:10F4300004E0BBF1000F01D0002009901C2102A8BC
:10F440001DF04DFC0AA802902088ADF81000207A2B
:10F450008DF82000099820B102A90F9817F092FDAD
:10F4600078E00AA812F0B0FD0746BDF92E00019021
:10F47000BDF82A00ADF82E0000200090BBF1000F6F
:10F480000BD0B4F90600B4F904100844BDF92810F3
:10F4900091FBF0F200FB1210009038461DF074F959
:10F4A0008046CDF814800AA80790BDF92A904AE05A
:10F4B000394640461DF04AFCBDF928103BB20FFA10
:10F4C00089F2404616F05EFE8DF81800BBF1000F81
:10F4D00027D09DF8180020B3009800211BE0B4F954
:10F4E0000420824207DBA3881B1A1AB28B1819B2B8
:10F4F000831818B20BE0B4F90620B4F904301A44AA
:10F50000824201DC002002E0002208F801204A1CAF
:10F5100011B2421C10B2B942E1DB02228DF8182070
:10F5200000BF02A90F9817F02DFDBDF82A00401C5E
:10F5300000B2ADF82A00BDF82E00401C00B2ADF8B4
:10F540002E0009F1010901988145B1DD40461DF009
:10F5500097F900BF00BF58E72DE9FF4FC7B08B46B2
:10F5600091469A46B9F90200BAF90210884210DAB7
:10F57000B9F80200ADF81A01BAF80200ADF81601A8
:10F58000B9F80000ADF81801BAF80000ADF81401A0
:10F590000FE0BAF80200ADF81A01B9F80200ADF8B0
:10F5A0001601BAF80000ADF81801B9F80000ADF87E
:10F5B0001401BDF91401BDF91811441ABDF9160161
:10F5C000BDF91A11451A002C01DD204600E0604209
:10F5D000002D01DD294600E06942884201DD01205D
:10F5E00000E000204490BBF9026000204390449862
:10F5F00070B1002D01DD284600E068424101002C79
:10F6000001DD204600E0604291FBF0F043900DE008
:10F61000002C01DD204600E060424101002D01DDAB
:10F62000284600E0684291FBF0F04390E04943989F
:10F63000085C70433F30C611771006F0010000EB04
:10F640000708BDF91801BDF91411884202DABDF9A5
:10F65000180101E0BDF91401801B00B2ADF80401EE
:10F66000BDF91801BDF91411884202DDBDF9180178
:10F6700001E0BDF91401304400B2ADF80801BDF954
:10F680001A01BDF91611884202DABDF91A0101E02A
:10F69000BDF91601801B00B2ADF80601BDF91A01D3
:10F6A000BDF91611884202DDBDF91A0101E0BDF96C
:10F6B0001601304400B2ADF80A01479841A98268AA
:10F6C00041A8F6F739F84090409810B94BB0BDE822
:10F6D000F08F4498F0B3002C24DD0021BDF8160112
:10F6E000C01B00B2CDE90001BDF91431BDF81A010B
:10F6F000C01B02B2BDF9181135A816F08DFE01210C
:10F70000BDF81601404400B2CDE90001BDF9143145
:10F71000BDF81A01404402B2BDF918112AA816F02A
:10F720007BFE4AE00021BDF81601404400B2CDE95D
:10F730000001BDF91431BDF81A01404402B2BDF90F
:10F74000181135A816F068FE0121BDF81601C01B7E
:10F7500000B200E00DE0CDE90001BDF91431BDF8C3
:10F760001A01C01B02B2BDF918112AA816F054FEE6
:10F7700023E00021BDF91601CDE90001BDF8140117
:10F78000404403B2BDF91A21BDF81801404401B24A
:10F7900035A816F041FE0121BDF91601CDE90001A1
:10F7A000BDF81401C01B03B2BDF91A21BDF8180140
:10F7B000C01B01B22AA816F02FFE002135A816F0B2
:10F7C0002BFA139000212AA816F026FA12904FF077
:10F7D000FF30119010909BF80900C0F3001068BB37
:10F7E0000321BDF81A01204400B2CDE90001BDF8A3
:10F7F0001801401B03B2BDF91A21BDF918111FA849
:10F8000016F00AFE0221BDF81601204400B2CDE92F
:10F810000001BDF81401401B03B2BDF91621BDF96A
:10F82000141114A816F0F8FD00211FA816F0F4F921
:10F830001190002114A816F0EFF9109041A812F0D1
:10F84000C3FB0F90F7F754FD019015F063FA0D908C
:10F8500041A812F085FB01460D98814203D241A8D0
:10F8600012F07EFB00E00D980C900C981CF08CFFC1
:10F870000B90BDF90A010A90BDF80601ADF80A0126
:10F8800000200990DDE90B011DF060FA1C2102A89F
:10F890001DF025FA41A80290BBF80000ADF8100059
:10F8A0009BF808008DF820000B98059041A8079060
:10F8B000BDF906010E9040E0BDF90411099B0B9AB9
:10F8C000D0180F9A13B20E9A12B216F05BFC8DF894
:10F8D00018009DF8180028B9099A0B9988180F99F3
:10F8E0001DF0FDF90F990998084409900F9909989E
:10F8F00001440C98814206D2BDF80A01401C00B2B6
:10F90000ADF80A0116E002208DF8180002A9479808
:10F9100017F038FBBDF80A01401C00B2ADF8060133
:10F92000BDF80601ADF80A0100200990DDE90B01E0
:10F930001DF00CFA0E98401C0E900A990E98884201
:10F94000BADDBDF90601BDF90A1188420CD0BDF837
:10F950000A01401E00B2ADF80A0102208DF818001D
:10F9600002A9479817F00EFB0B981CF089FF35A8E9
:10F9700016F034FC2AA816F031FC1198401C10B186
:10F980001FA816F02BFC1098401C10B114A816F0FC
:10F9900025FC139817F0A6F8129817F0A3F8119801
:10F9A00017F0A0F8109817F09DF800BF8EE6000041
:10F9B000325704082DE9FF4F91B00C4615461E46FC
:10F9C000B4F90200401E1090109840100F9010984B
:10F9D00000F001010F9808440E9029880E98081A2B
:10F9E00000B2ADF8300029880F98084400B2ADF895
:10F9F0003400B5F90200B6F90210884202DAB5F90E
:10FA0000020001E0B6F90200ADF83200B5F90200DB
:10FA1000B6F90210884202DDB5F9020001E0B6F93C
:10FA20000200401E00B2ADF8360011980CA98268A1
:10FA30000CA8F5F781FE8146B9F1000F02D115B08F
:10FA4000BDE8F08FE08818B1A08808B1012000E07F
:10FA50000020824601200B900CA816F0E3FB10B1A9
:10FA600000200B9004E0BAF1000F01D000200B90B1
:10FA70001C2104A81DF033F90CA804902088ADF8CF
:10FA80001800207A8DF828000B9820B104A911984D
:10FA900017F078FA66E00CA812F096FA8346BDF9E2
:10FAA00036000390BDF83200ADF8360058461CF021
:10FAB0006BFE0290029807900CA80990002001901C
:10FAC000BAF1000F0BD0B4F90600B4F904100844E1
:10FAD000BDF9321091FBF0F200FB12100190019F72
:10FAE000BDF9328037E0594602981DF02FF9BDF973
:10FAF00030100FFA8BF30FFA88F2029816F042FBDF
:10FB00008DF82000BAF1000F13D09DF8200070B1DD
:10FB1000B4F90400B84202DA00208DF82000B4F9EC
:10FB20000600B4F904100844B84200DC0027781C31
:10FB300007B204A9119817F025FABDF83200401C4D
:10FB400000B2ADF83200BDF83600401C00B2ADF88E
:10FB5000360008F1010803988045C4DD02981CF0C6
:10FB60008FFE00BF00BF6AE72DE9FC5F804640467C
:10FB700018F086FD0746B946D9F824603446404659
:10FB800018F025FD0546606A00F114026846A96870
:10FB9000F5F7D2FD8246BAF1000F41D0D5F808B092
:10FBA000C5F808D094F83C00C0F3401048B3608F0B
:10FBB000E18E88420CD1628F212329463046FDF721
:10FBC000FBFA628F212329463046FDF761FB24E0D2
:10FBD000628F202329463046FDF7EEFA628F2023FC
:10FBE00029463046FDF754FBE28E01232946304674
:10FBF000FDF7E2FAE28E012329463046FDF748FB85
:10FC00000BE0628F202329463046FDF7D5FA628F3C
:10FC1000202329463046FDF73BFBC5F808B000BF5E
:10FC2000BDE8FC9F2DE9F14FD0B0509818F028FDA9
:10FC300004462546288E10B951B0BDE8F08F509883
:10FC400018F0C5FC4F90608C20F00400001D60840B
:10FC50004DA920461EF038FF0026B246B4F8208099
:10FC600000202084608C20F00400001D608427A800
:10FC700016F066FF1FA815F057FF27AA4FF4A02122
:10FC8000204620F05DFF1FAA4FF4A021204620F05F
:10FC90007CFE608C20F004006084A4F820800021A9
:10FCA000204620F080FA1E900021204620F032F8F5
:10FCB0001D900021204620F00AF91C9000212046CA
:10FCC00020F0AEF91B9009A84F991EF0F3FB4FF4FA
:10FCD000A0201690D7480A9000200B903DA80D90C8
:10FCE00035A80E9000BF9BE103E00AF101001FFA66
:10FCF00080FA696A51F82A00CFA1F0F79BFE00282C
:10FD0000F3D0E96A31F81600F8F782FF00B181E11B
:10FD10000027E96A31F81600F8F76AFF08B147F0E2
:10FD20000107E96A31F81600F8F776FF10B147F0DD
:10FD3000800716E0A88EB04213D108F0200008B169
:10FD400047F0200708F0020008B147F0020708F06A
:10FD5000040008B147F0040708F0080008B147F0B4
:10FD60000807A86A00EBC6014BA812F073F8BDF8AB
:10FD70002C01BDF83411084400B2ADF82C01BDF8D7
:10FD80002E01BDF83611084400B2ADF82E01BDF8C1
:10FD90003001BDF83411084400B2ADF83001BDF8AF
:10FDA0003201BDF83611084400B2ADF8320157B93E
:10FDB000382227A93DA81CF004FE20221FA935A83F
:10FDC0001CF0FFFD1DE02784608C20F00400001D66
:10FDD00060843DA816F0B4FE35A815F0A5FE3DAA36
:10FDE0004FF4A021204620F0ABFE35AA4FF4A0210D
:10FDF000204620F0CAFDA4F82080608C20F004008A
:10FE00006084E96A31F81600F8F70EFF8346BBF10B
:10FE1000000F06D09DF8F10040F001008DF8F100D0
:10FE200005E09DF8F10020F001008DF8F1004BA8ED
:10FE30000C90179609AA1A21204618F027FC9DF865
:10FE40001701400800F01000F0B39DF8170120F0F2
:10FE50003E001E308DF81701BDF92C11B4F91420A5
:10FE60001C98104481420AD19DF81701400820F0E7
:10FE700004009DF8171160F345018DF81711BDF9C5
:10FE80003011B4F918201B98101A81420AD19DF83C
:10FE90001701400820F008009DF8171160F3450194
:10FEA0008DF81711BDF92E11B4F916201E981044C3
:10FEB00081420CD19DF81701400820F002009DF806
:10FEC000171160F3450100E014E08DF81711BDF93A
:10FED0003211B4F91A201D98101A81420AD19DF8E6
:10FEE0001701400820F001009DF8171160F345014B
:10FEF0008DF817114BA812F01EF8814607F020006C
:10FF000060B1E86A30F8160000F4007030B1BDF856
:10FF10002E01A0EB090000B2ADF82E014BAA3DA9BD
:10FF20004F9816F0F1FD35980890BDF9E80007905C
:10FF3000BDF9E6000690686A50F82A0005904DA8C1
:10FF400012F081F803909DF8F11002460698CDE971
:10FF50000121009004A8DDE90732059926F0C6FCCE
:10FF60004BA812F070F8BDF91010401A039000EB86
:10FF7000D070BDF82C1101EB600000B2ADF82C017F
:10FF80004BA811F0D8FFBDF91210401A039000EBF6
:10FF9000D070BDF82E1101EB600000B2ADF82E015B
:10FFA000BDF82C01BDF81010084400B2ADF83001C6
:10FFB000BDF82E01BDF81210084400B2ADF83201B0
:10FFC00007F02000C0B1E86A30F8160000F40070B5
:10FFD00090B1484609EBD071BDF82E21A2EB61012A
:10FFE00009B2ADF82E1109EBD071BDF83221A2EBA8
:10FFF000610109B2ADF83211002000904BAA35A979
:020000040801F1
:10000000059B4F9815F0DCF909AA1B21204618F032
:100010003DFB00BF701C86B20AF101001FFA80FA96
:10002000288EB0423FF760AE608C20F00400608400
:1000300000BF01E6E49504080A0000002DE9F14F35
:10004000A2B0229818F01CFB04462546229818F00E
:10005000BEFA2190002120461FF0F8FC814626467A
:10006000002741F612023946304620F0F7F80A9090
:100070000A98484400B2209000BF41F61302394666
:10008000304620F0EBF80A900A98484400B21F90DE
:100090000021204620F0A1F8484400B21E9016A886
:1000A00015F042FD16AA4FF40031204620F06DFCF9
:1000B000A86A10B1D5F828800AE080201CF064FB03
:1000C000064680223146204617F0B4FFB04600BFF6
:1000D0004FF0000A95F83C0000F00F00012800D115
:1000E0008246002641F26A423146204620F0B6F8A8
:1000F0000A900A98C0B2012800D18246E86A002816
:100100007ED0E86A1AF03CFB0A900A98022814D1C3
:100110009DF8750041F6FF72BDF96A10CDE9001235
:100120000290BDF96C30169A07A8E96A26F0DEFB4A
:10013000BDF91C60BDF91E7011E007A9E86A19F04D
:10014000C7FF8346BBF1010F05D10798C0F38A268C
:100150000798470D02E04FF0FF36374600BFBAF16F
:10016000000F0DD0A18A2098084400B2ADF82000FD
:10017000BDF820003044401E00B2ADF824000DE070
:10018000218B1F98081A801B00B2ADF82000BDF823
:1001900020003044401E00B2ADF824000A98022826
:1001A00015D1E18A1E98084400B2ADF82200BDF8CE
:1001B00022003844401E00B2ADF826000020009016
:1001C00008AA16A9EB6A219815F0FAF840E0204633
:1001D0001EF0D0FCA0EB070B0BEBDB704110E08AAC
:1001E000084400B2ADF82200BDF822003844401E99
:1001F00000B2ADF8260002A815F0C5F802AA00E08A
:1002000027E04FF40031204620F060FB304606EB3B
:10021000D071491009B2ADF80C10384607EBD07117
:1002200049100AB2ADF80E204FF4003B43F60F021E
:100230005946204620F012F80190019880B2ADF89E
:10024000080008AA02A9EB6A219815F04DF800BF32
:1002500000BF0EA815F068FC0EAA0021204620F071
:1002600094FB9DF8550041F6FF72BDF94A10CDE9A7
:1002700000120290BDF94C3041460DA80E9A26F0AE
:1002800035FBE18A1E98084400B2ADF82E00BDF897
:100290002E00BDF83610084400B2ADF83200E86A0E
:1002A000B0B9204620F001FABDF93410461A06EB29
:1002B000D670A18A01EB600000B2ADF82C00BDF849
:1002C0002C00BDF83410084400B2ADF8300022E034
:1002D000BAF1000F11D0218B1F98081ABDF8341005
:1002E000401A00B2ADF82C00BDF82C00BDF8341057
:1002F000084400B2ADF830000DE0A18A209808440F
:1003000000B2ADF82C00BDF82C00BDF83410084444
:1003100000B2ADF83000002043460BAA0EA90090B1
:10032000219815F04DF8A86A10B940461CF0A8FABB
:1003300023B0BDE8F08F2DE9F14F90B0109818F080
:100340009FF905462C46109818F041F906460EA96B
:1003500028461EF045FB002794F84800C0F3001023
:1003600008B147F0010794F84800C0F3401008B105
:1003700047F002070021284620F070F942F2D171BF
:10038000884205D1688CC0F3802008B947F0040783
:1003900006A815F0C9FBB4F84400ADF82E004620BD
:1003A000005BADF830008DF8357006AA00212846B4
:1003B00020F0EBFA0DA8411E626A03780BB9012305
:1003C000037000BF28461BF07BF9079028461BF0FE
:1003D00071F908904FF6FF71079888421ED008986F
:1003E00088421BD04FF4802B44F25742594628468E
:1003F0001FF034FF029002980390BDF80C00ADF896
:10040000260000BF2022594628461FF027FF0290F1
:1004100002980390BDF80C00ADF8280094F848004D
:1004200000F00700022805D094F8480000F007000B
:1004300003281FD19DF83400022803D09DF8340012
:10044000032817D141F6FF71BDF92A008DE883001A
:10045000BDF92C30069A03A8616A26F047FA0EA867
:1004600011F0FFFDBDF90C10884202DA01208DF871
:10047000340000BF04F1300894F8480000F0070091
:10048000032805D00EA811F064FDB0F5806F01DAE5
:100490004FF000080EA904A8B268F5F74DF981469F
:1004A000B9F1000F02D111B0BDE8F08F94F8480007
:1004B00000F0070070B928461EF04CFD8346CBF1D2
:1004C000000002B200210EA811F0E3FD688BADF828
:1004D0003E0000BF94F8480000F00700022805D055
:1004E00094F8480000F0070003280ED1D6F808B0B1
:1004F00004A8B060CDF800800EAA06A93046636A51
:1005000014F05EFFC6F808B007E0CDF800800EAA30
:1005100006A93046636A14F053FFD6F808A004A871
:10052000B06094F8480000F0070003284FD141F66E
:10053000FF71BDF92A008DE88300BDF92C30069AC1
:1005400003A8616A26F0D2F90EA811F08AFDBDF960
:100550000C1088421BDA20221146069818F0DBF9AD
:1005600000EB4000B4F84410BDF80C2011440844DE
:1005700000B2ADF82E004620005BADF83000CDF89B
:1005800000800EAA06A93046636A14F019FF0EA86F
:1005900011F0DFFCBDF90E10884217DAB4F8440000
:1005A000ADF82E00069818F0D5F94621095BBDF884
:1005B0000E201144084400B2ADF83000CDF80080A0
:1005C0000EAA06A93046636A14F0FAFE00BFC6F808
:1005D00008A000BF67E72DE9F14F9AB01A9817F00D
:1005E000EEFF80461A9818F04BF80446B8F1150F44
:1005F00016D11A9817F0EBFF054618A9204609F006
:10060000C9F90AA816F09CFA0AAA4FF480212046DC
:1006100020F096FA18AA0AA9284616F075FAC5E03D
:10062000B8F1180FFBD11A9817F0D1FF054612A8A0
:1006300015F07AFA12AA4FF48021204620F0A5F98D
:1006400010A9204609F0A6F910AA0EA8A968F5F786
:1006500073F80D900D9800287DD0204608F0DDFD40
:100660008146204620F021F8834648461BF01CF8BE
:1006700002210390BDF95A00CDE901B10090BDF906
:100680005C300CA8129A039926F030F920461EF02F
:1006900071FA0646304606EBD0714A10B4F91610CE
:1006A0000A44B9F91610891A0B9148461EF062FAED
:1006B0000B99890391FBF0F00B90002120461FF06D
:1006C000B2FE0A901299B1F908200A99B1F90810FE
:1006D000501A00EBD071491009B20991BDF83210DF
:1006E0000998081A00B2ADF83200304606EBD07116
:1006F0004A10B4F916105718BDF932000B99484347
:1007000007EBA03709983F1A002120461FF0ABF9EC
:1007100082464FF0000B41F61202594620461FF068
:100720009DFD0390039800B2089000BF41F61302AC
:10073000594620461FF092FD0390039800B207909F
:10074000A18A08980844504400B2ADF8140038B2A9
:10075000ADF8160000E028E0218B0798081AA0EBFE
:100760000A0000B2ADF81800BDF81600BDF832104E
:10077000084400B2ADF81A009DF8650040F0020090
:100780008DF86500A86804900EA8A86048461AF085
:100790008BFF834600205B4605AA12A900902846DD
:1007A00014F00EFE0498A86000BF00BF1BB0BDE8A7
:1007B000F08F2DE9F14FA8B0289817F061FF04469B
:1007C0002546289817F003FF2790002120461FF0A8
:1007D000A5FB2690002120461FF049FC2590002112
:1007E00020461FF014FD2490002120461FF0B9FA86
:1007F000239000BFA08AADF88400E08AADF886009F
:10080000208BADF88800608BADF88A0000BFBDF882
:1008100084102698084400B2ADF88400BDF8881012
:100820002598081A00B2ADF88800BDF88610249803
:10083000084400B2ADF88600BDF88A102398081A63
:1008400000B2ADF88A0013A816F07AF913AA4FF493
:100850000031204620F074F921AA13A9279816F038
:1008600053F9002620461EF085F9074600BF208B6D
:10087000A18A401A401CC01B0FFA80F8686A401C0D
:1008800040B1696A01FB08F0C11700EB1161091260
:100890000EB20CE020461EF0D1FF00F0010BBBF1C0
:1008A000000F01D0404600E00020064600BF4FF098
:1008B000000B41F26A42594620461FF0CFFC0090DF
:1008C0000098C0B2012802D1A8EB060006B2A08AA7
:1008D000304400B2ADF84400BDF84400384400B2E2
:1008E000ADF84800E08AADF84600608BADF84A00EC
:1008F0004FF4403120461FF011FB81464FF4403148
:1009000020461FF0B4FB82464FF4403120461FF0D2
:100910007EFC10904FF4403120461FF022FA0F90D9
:10092000BDF84400A0EB090000B2ADF84400BDF8EA
:100930004800504400B2ADF84800BDF84610109889
:10094000081A00B2ADF84600BDF84A100F980844E6
:1009500000B2ADF84A0001A816F0F2F801AA4FF46F
:100960004031204620F0ECF811AA01A9279816F092
:10097000CBF829B0BDE8F08F2DE9F14FE0B06098D9
:1009800017F07EFE04462546609817F020FE81464B
:1009900004F114015EA8D9F80820F4F7CDFE10B9CF
:1009A00061B0BDE8F08FD9F808005D905EA8C9F885
:1009B00008004FF0000841F23202414620461FF085
:1009C0004DFC0C900C9800B25690002120461FF070
:1009D0002BFC5590002120461FF0D0F954900021A7
:1009E00020461FF0A8FA5390002120461FF04CFB30
:1009F00052904FF4A02120461FF09DFA51904FF4E1
:100A0000A02120461FF040FB50904FF4A02120462B
:100A10001FF00AFC4F904FF4A02120461FF0AEF9C2
:100A20004E90208C4D9000202084608C20F004009B
:100A3000001D60843FA816F083F83FAA4FF4A02160
:100A4000204620F07DF829A815F06EF829AA4FF469
:100A5000A02120461FF099FF4D982084608C20F043
:100A600004006084002720461EF088FA0146E28ACE
:100A700055981044401E411A5698084400B2ADF8EB
:100A80006E0120461EF070FA2090002120461EF0D4
:100A900076FF012800D100E000201F9049460DA8F4
:100AA0001DF008FD4FF4A0201A90FE480E90002083
:100AB0000F9031A8119021A812904FF0000B33E253
:100AC000E86A30F91B000C90BDF86E01401C00B2C2
:100AD000ADF86A01BDF86A110C980844401E00B2D6
:100AE000ADF86E01BDF96A01BDF97E11884200DDE5
:100AF0001EE21F9858B1218B5298081A401E209967
:100B0000411A5698081A00B2ADF868010AE0A18AA5
:100B100053980844401E2099411A5698084400B240
:100B2000ADF86C010026F7E100200B90A86A50F8A0
:100B3000270020B1A86A50F8270000780B901F9872
:100B400080B1BDF86801401E00B2ADF86C01286BA1
:100B500030F81600BDF86C11081A401C00B2ADF850
:100B600068010FE0BDF86C01401C00B2ADF86801EF
:100B7000286B30F81600BDF868110844401E00B21A
:100B8000ADF86C014FF0000800BF34E007EB08013E
:100B9000A86A50F8210048B307EB0802A96A51F887
:100BA000220008B101780B910B9901F00101D9B134
:100BB0001F9961B106EB0801491C2A6B32F811102C
:100BC000BDF86821511A09B2ADF868110DE006EBC5
:100BD0000801491C2A6B32F81110BDF86C21114430
:100BE00009B2ADF86C1100E00BE000E009E008F19B
:100BF00001001FFA80F808EB0601A88C401E814214
:100C0000C4DB00BFBDF96E01BDF97A11884207DA75
:100C100008F10100384487B206EB080086B279E19A
:100C200000BFBDF86801ADF82400BDF86A01ADF859
:100C30002600BDF86C01ADF82800BDF86E01ADF8D6
:100C40002A0000BF9DF81F01400800F0040090B189
:100C5000BDF92410B4F914205398104481420ADDE0
:100C6000BDF91C0100EBD071BDF82420A2EB61019D
:100C700009B2ADF824109DF81F01400800F00200F1
:100C800090B1BDF92610B4F9162055981044814250
:100C90000ADDBDF91C0100EBD071BDF82620A2EBE6
:100CA000610109B2ADF826109DF81F01400800F05F
:100CB0000800B8B1BDF92810B4F918205298101ADC
:100CC000401E81420EDABDF91C0100EBD07182B2E8
:100CD00002F0010202EB6101BDF82820114409B2C3
:100CE000ADF828109DF81F01C0F34000B8B1BDF960
:100CF0002A10B4F91A205498101A401E81420EDAB4
:100D0000BDF91C0100EBD07182B202F0010202EBCE
:100D10006101BDF82A20114409B2ADF82A104FF044
:100D2000000AE88E584523D1A88EB04220D194F80D
:100D3000200000F0400030B994F8200000F02000BE
:100D400008B14AF0200A94F8200000F0020008B12F
:100D50004AF0020A94F8200000F0040008B14AF0BA
:100D6000040A94F8200000F0080008B14AF0080ACC
:100D7000BAF1000F0AD138223FA931A81BF021FE99
:100D8000202229A921A81BF01CFE1EE0A4F820A007
:100D9000608C20F00400001D608431A815F0D0FEA6
:100DA00021A814F0C1FE31AA4FF4A02120461FF063
:100DB000C7FE21AA4FF4A02120461FF0E6FD4D9862
:100DC0002084608C20F00400608409A81090A88C16
:100DD0000BFB00601B900DAA1A21204617F056FC51
:100DE00009AA31A9484615F08FFEA86A50F82700D5
:100DF00000287DD0BDF868115198084400B2ADF8C4
:100E00006001BDF86C115098081A00B2ADF8640189
:100E1000BDF86A114F98084400B2ADF86201BDF800
:100E20006E114E98081A00B2ADF866010B98C0F327
:100E300040000890089810B10220579001E000206F
:100E4000579000BFBDF86401BDF86011401A401C06
:100E500000B20490BDF9962004995798CDE900217D
:100E60000290A86A50F82700411CBDF998305CA890
:100E7000299A25F03BFD089818BB0C9901EBD1721B
:100E8000BDF86A3103EB6202BDF9720100EBD07369
:100E9000A2EB630212B2ADF862210C9901EBD172A0
:100EA00002E0000018970408BDF86A3103EB620203
:100EB000BDF9720100EBD07302EB630212B2ADF820
:100EC00066215AAA5EA906A8F4F736FC0590059893
:100ED00090B106A8C9F8080000200090A86A50F850
:100EE0002700431C58AA21A9484614F069FA00E0DB
:100EF00003E05EA8C9F8080000BF0DAA1B21204628
:100F000017F0C4FB08F10100384487B206EB080073
:100F100086B200BF701C86B2A88CB0423FF704AE08
:100F20000BF101001FFA80FBE88C58453FF7C8AD74
:100F300000BF5D98C9F8080000BF31E52DE9F04F0A
:100F4000A3B00746894616462297304611F066F848
:100F5000054600EBD5704FEA60083088404400B287
:100F6000ADF884007088404400B2ADF886001EA839
:100F700014F026FE1EAA4FF4A02138461FF06CFD87
:100F800018A814F000FA18AA4FF4A02138461FF050
:100F90009DFC002138461EF02EFE1790494605A8FC
:100FA0001DF088FA7048069021A80E9022983030E3
:100FB000F5F78AFE0446D1E02568169420790128C9
:100FC0005CD1B5F92000E98B08440090B5F92030D8
:100FD000D5E90512E0681BF089FB8246A88B00EB7F
:100FE0000801608A08440FFA80FB0FFA8AF025F0A6
:100FF0008FFB10FB0BF047F6FF7190FBF1F0BDF893
:101000008610084400B2ADF812000FFA8AF025F0FD
:1010100077FB10FB0BF047F6FF7190FBF1F0BDF88A
:101020008410084400B2ADF81000A08AADF8780032
:10103000208A00B2ADF87A006079FD2801DD1798AA
:1010400003E060791799484300128DF88000012071
:1010500013901EA80B9004A80F9005AA1A213846D9
:1010600017F014FB04AB21AA1EA9484614F091FD09
:1010700005AA1B21384617F009FB68E020790028F3
:1010800065D1206900B963E0B5F92000E98B084417
:101090000090B5F92030D5E90512E0681BF026FB79
:1010A000824604A9206919F013F8BDF88410A08ABB
:1010B000081A00B2ADF80800BDF88610E08A081AD8
:1010C00000B2ADF80A00BDF808000499C1F38A2106
:1010D0000844401E00B2ADF80C00BDF80A000499A7
:1010E00000EB5150401E00B2ADF80E006079FD28B3
:1010F00001DD179803E060791799484300128DF8D5
:101100006B00A08AADF86400E18A18A8C1800AEBE0
:101110008A004FEA400ABAF5616F01DDAAF5616AFB
:101120001FFA8AF0ADF8600018A80C9005AA1A21E1
:10113000384617F0ABFA02AA18A94846236914F0FA
:10114000D3F805AA1B21384617F0A0FA00BF00BF4C
:10115000214622983030F5F7B1FD0446002C7FF48B
:101160002BAF23B0BDE8F08F005D04082DE9F74FE9
:101170008AB00C46904694F82A00022802DC0DB092
:10118000BDE8F08FE08C00B9F9E794F82A90B9F146
:10119000FD0F01DD4FF0FF09414608A810F036FEB3
:1011A000208D401E05B2BDF82000401B00B2ADF8F6
:1011B0002000BDF82200401B00B2ADF82200BDF8AF
:1011C0002400284400B2ADF82400BDF826002844CD
:1011D00000B2ADF8260008A906A810F017FEBDF869
:1011E0001800E18C401A00B2ADF81800BDF81C00E0
:1011F000E18C084400B2ADF81C00BDF81A00E18C87
:10120000401A00B2ADF81A00BDF81E00E18C084487
:1012100000B2ADF81E0008A810F0DDFE824608A856
:1012200010F05FFE0746B4F90060BA4501DA504697
:1012300000E038468346B6EB6B0F01DD4FEA6B06E4
:10124000E08C304400B20590A07894F82A10CDE9E3
:101250000210A08CADF8040030B2009008AA06A9D4
:10126000059B0A98FBF754FC00BF88E7F8B50546D4
:10127000284617F005FA0646284617F0FEF90446F8
:10128000606BB0F5A02F54D1A06B072806D20020C8
:101290002169C870216981F8220014E0208F81B291
:1012A0002022304611F08AFD68B100202169C87003
:1012B000216981F82200122021F004FB0090BDF882
:1012C000001060698181208F81B24FF40042304666
:1012D00011F074FD98B166202169C870304624F081
:1012E000EDFE0090BDF8001020698180304611F0BD
:1012F0005FFDA16B884202D1B2202169C870208FA6
:1013000081B24FF48042304611F058FD88B1FF2081
:10131000216981F82200304624F0D0FE0090BDF80B
:1013200000102069C1832069008C401C00B2216933
:101330000884F8BD2DE9F04F8BB08146484617F080
:101340009FF905462C46484617F041F98346606AE6
:101350001AF0AAF982469AF8000000283ED1A06A45
:1013600000283BD0A06A0078C0B303A814F0DCFBCF
:1013700003AA4FF4002128461FF007FB94F85C00F5
:10138000C0F3C00028B19DF8290040F002008DF89C
:101390002900002128461EF0DBFD074600212846D3
:1013A0001EF04FFF8046002128461EF069FB0646CE
:1013B00005F1140101A810F068FD08EB060002B267
:1013C000B81901B201A810F064FE0020009001AA33
:1013D00003A95846A36A13F0F3FF00BF0BB0BDE8A2
:1013E000F08F7CB50446A06985686089002856D1D5
:1013F000A089002853D1E088218988424FDAE1880A
:1014000008B225F085F9B4F90410B4F90E20891A50
:1014100048432168498801EBE03000B2ADF8020092
:10142000E1885A3108B225F073F9A18810FB01F068
:101430002168098801EBE03000B2ADF80400218991
:1014400008B225F065F9A18810FB01F021684988F0
:1014500001EBE03000B2ADF8060021895A3108B244
:1014600025F056F9B4F90410B4F90E20891A48434E
:101470002168098801EBE03000B2ADF800002A468F
:1014800069466846F4F758F906463EB1A169C1F8C5
:1014900008D06A462169A06915F036FBC2E0608970
:1014A00010B1A08900287BD16089D0BB206800885A
:1014B000ADF8000020684088A188084400B2ADF86B
:1014C0000600E18808B225F023F9B4F90410B4F954
:1014D0000E20891A48432168498801EBE03000B2A8
:1014E000ADF80200E1885A3108B225F011F9A1885F
:1014F00010FB01F02168098801EBE03000B2ADF883
:1015000004002A4669466846F4F716F906463EB1D5
:10151000A169C1F808D06A462169A06915F0F4FAFA
:1015200000BFA08900287DD120680088A1880844D8
:1015300000B2ADF8040020684088ADF802002189AF
:1015400008B225F0E5F8A18810FB01F02168498870
:1015500001EBE03000B2ADF8060021895A3108B243
:1015600025F0D6F8B4F90410B4F90E20891A4843CE
:101570002168098801EBE03000B2ADF800002A468E
:1015800069466846F4F7D8F806463EB1A169C1F845
:1015900008D06A462169A06915F0B6FA42E0FFE773
:1015A0006089A189884205D1608918B12089E188C4
:1015B000884211DB6089022802D1A08901280BD062
:1015C0006089032802D1A089022805D060890328F8
:1015D00028D1A089012825D120680088ADF8000015
:1015E00020684088ADF8020020680088A18808447F
:1015F00000B2ADF8040020684088A188084400B219
:10160000ADF806002A4669466846F4F795F806469E
:101610003EB1A169C1F808D06A462169A06915F0F8
:1016200073FA00BFA06985607CBD7CB50446A069E3
:1016300085686089012856D1A089012853D1E088A6
:10164000218988424FDAE18808B225F061F8A18843
:1016500010FB01F02168498801EBE03000B2ADF8E1
:101660000600E1885A3108B225F052F8B4F90410A6
:10167000B4F90E20891A48432168098801EBE0304B
:1016800000B2ADF80400218908B225F041F8B4F9A0
:101690000410B4F90E20891A48432168498801EBE7
:1016A000E03000B2ADF8020021895A3108B225F0CD
:1016B0002FF8A18810FB01F02168098801EBE030C8
:1016C00000B2ADF800002A4669466846F4F734F8DF
:1016D00006463EB1A169C1F808D06A462169A069F1
:1016E00015F012FAC7E06089012802D0A08901280C
:1016F0007ED1608901283AD120680088A188401AEB
:1017000000B2ADF8000020684088ADF80200E18822
:1017100008B224F0FDFFA18810FB01F02168498880
:1017200001EBE03000B2ADF80600E1885A3108B2B2
:1017300024F0EEFFB4F90410B4F90E20891A4843DE
:101740002168098801EBE03000B2ADF804002A46B8
:1017500069466846F3F7F0FF06463EB1A169C1F855
:1017600008D06A462169A06915F0CEF900BFA089AA
:101770000128B7D120680088401E00B2ADF80400EF
:1017800020684088A188084400B2ADF8060021898D
:1017900008B224F0BDFFB4F90410B4F90E20891A80
:1017A00048432168498801EBE03000B2ADF80200FF
:1017B00021895A3108B224F0ABFFA18810FB01F057
:1017C0002168098801EBE03000B2ADF800002A463C
:1017D00069466846F3F7B0FF06463EB1A169C1F815
:1017E00008D06A462169A06915F08EF943E0FFE749
:1017F0006089A189884206D16089012803D02089A7
:10180000E18888420FDB608910B9A08902280AD0DC
:10181000608910B9A089032805D0608903282AD1DE
:10182000A089022827D120680088A188401A00B228
:10183000ADF8000020684088ADF8020020680088FC
:10184000401E00B2ADF8040020684088A18808441A
:1018500000B2ADF806002A4669466846F3F76CFF09
:1018600006463EB1A169C1F808D06A462169A0695F
:1018700015F04AF900BFA06985607CBD7CB50446BF
:10188000A06985686089022856D1A089022853D1B1
:10189000E088218988424FDAE1885A3108B224F081
:1018A00037FFA18810FB01F02168098801EBE030C7
:1018B00000B2ADF80000E18808B224F029FFB4F9C5
:1018C0000410B4F90E20891A48432168498801EBB5
:1018D000E03000B2ADF80600218908B224F018FF0C
:1018E000A18810FB01F02168498801EBE03000B2CB
:1018F000ADF8020021895A3108B224F009FFB4F989
:101900000410B4F90E20891A48432168098801EBB4
:10191000E03000B2ADF804002A4669466846F3F7A5
:101920000BFF06463EB1A169C1F808D06A4621699D
:10193000A06915F0E9F8CCE06089022802D0A089FE
:1019400002287DD1608902283CD120680088401E91
:1019500000B2ADF8040020684088A188401A00B2A7
:10196000ADF80200E1885A3108B224F0D1FEA18816
:1019700010FB01F02168098801EBE03000B2ADF8FE
:101980000000E18808B224F0C3FEB4F90410B4F9F1
:101990000E20891A48432168498801EBE03000B2E3
:1019A000ADF806002A4669466846F3F7C5FE0646C6
:1019B0003EB1A169C1F808D06A462169A06915F055
:1019C000A3F800BFA0890228B5D120680088A188AB
:1019D000401A00B2ADF8000020684088401E00B2F6
:1019E000ADF8060021895A3108B224F091FEB4F90D
:1019F0000410B4F90E20891A48432168098801EBC4
:101A0000E03000B2ADF80400218908B224F080FE75
:101A1000A18810FB01F02168498801EBE03000B299
:101A2000ADF802002A4669466846F3F785FE064689
:101A30004EB1A169C1F808D06A462169A06900E0E9
:101A400002E015F061F844E06089A189884206D17E
:101A50006089022803D02089E18888420FDB6089F1
:101A600010B9A08903280AD06089012802D1A08971
:101A7000032804D0608901282BD1A08948BB2068A5
:101A80000088A188401A00B2ADF8000020684088A4
:101A9000A188401A00B2ADF8020020680088401EFC
:101AA00000B2ADF8040020684088401E00B2ADF8D6
:101AB00006002A4669466846F3F73EFE06463EB1F2
:101AC000A169C1F808D06A462169A06915F01CF81F
:101AD00000BFA06985607CBD7CB50446A0698568AF
:101AE0006089032856D1A089032853D1E088218931
:101AF00088424FDAE1885A3108B224F009FEB4F97D
:101B00000410B4F90E20891A48432168098801EBB2
:101B1000E03000B2ADF80000E18808B224F0F8FD32
:101B2000A18810FB01F02168498801EBE03000B288
:101B3000ADF8020021895A3108B224F0E9FDA188EC
:101B400010FB01F02168098801EBE03000B2ADF82C
:101B50000400218908B224F0DBFDB4F90410B4F9C3
:101B60000E20891A48432168498801EBE03000B211
:101B7000ADF806002A4669466846F3F7DDFD0646DD
:101B80003EB1A169C1F808D06A462169A06914F084
:101B9000BBFFC7E06089032802D0A08903287ED15B
:101BA000608903283CD120680088A188084400B2DD
:101BB000ADF8040020684088401E00B2ADF8060071
:101BC000E1885A3108B224F0A3FDB4F90410B4F945
:101BD0000E20891A48432168098801EBE03000B2E1
:101BE000ADF80000E18808B224F092FDA18810FB56
:101BF00001F02168498801EBE03000B2ADF8020045
