:020000040800F2
:1000000040CE0020D1020008AF280008AB2800082D
:10001000AD2800086B1A00085D2A000800000000E7
:10002000000000000000000000000000390200088D
:100030006D1A0008000000007D020008B1280008C9
:10004000EB020008EB020008EB020008EB020008DC
:10005000EB020008EB020008EB020008EB020008CC
:10006000EB020008EB020008EB020008EB020008BC
:10007000EB020008EB020008EB020008EB020008AC
:10008000EB020008EB020008EB020008EB0200089C
:10009000EB020008EB020008EB020008EB0200088C
:1000A000EB020008EB020008EB020008EB0200087C
:1000B000EB020008EB020008EB020008EB0200086C
:1000C000EB020008EB020008EB020008EB0200085C
:1000D000EB0200083D2A0008EB020008EB020008D2
:1000E000EB020008EB020008EB020008EB0200083C
:1000F000EB020008EB020008EB020008EB0200082C
:10010000EB020008EB020008EB020008EB0200081B
:10011000EB020008EB020008EB020008EB0200080B
:10012000EB020008EB020008EB020008EB020008FB
:1001300000F002F800F070F80AA090E8000C824489
:100140008344AAF10107DA4501D100F065F8AFF266
:10015000090EBAE80F0013F0010F18BFFB1A43F0A5
:100160000103184700C1020020C102000A444FF0F9
:10017000000C10F8013B13F0070408BF10F8014B06
:100180001D1108BF10F8015B641E05D010F8016B4B
:10019000641E01F8016BF9D113F0080F1EBF10F8AF
:1001A000014BAD1C0C1B09D16D1E58BF01F801CBD2
:1001B000FAD505E014F8016B01F8016B6D1EF9D555
:1001C0009142D6D37047000000230024002500266A
:1001D000103A28BF78C1FBD8520728BF30C148BFAA
:1001E0000B607047662924F0F286642900F0528182
:1001F000782900F08B81732900F0F1860020704788
:100200001FB500F047FF04000020002124F06EF924
:10021000E0601FBD10B510BD01F018F81146FFF7E2
:10022000EFFF1FF01FF801F036F803B4FFF7F2FFFD
:1002300003BC04F07AF90000224B19680868B0E8A2
:10024000F00F80F30988BFF36F8F4FF0000080F349
:1002500011884EF00D0E704700000000064800683F
:10026000006880F3088862B661B6BFF34F8FBFF3B2
:100270006F8F00DF00BF00BF08ED00E0EFF30980E3
:10028000BFF36F8F0F4B1A6820E9F00F106008B5AD
:100290004FF0500080F31188BFF34F8FBFF36F8F83
:1002A00023F04CFB4FF0000080F31188BDE80840BC
:1002B00019680868B0E8F00F80F30988BFF36F8F02
:1002C000704700BF94000020EFF3058070470000E6
:1002D0000948804709480047FEE7FEE7FEE7FEE7DA
:1002E000FEE7FEE7FEE7FEE7FEE7FEE70448054916
:1002F000054A064B70470000C92800083101000874
:1003000040C8002040CE002040CA002040CA002043
:10031000704753EA020C00F069802DE9F04B4FF072
:100320000006002B1FBFB3FA83F503FA05F424FA85
:1003300005F65E4012BF1643B2FA82F502FA05F4E2
:10034000C5F120051EBF22FA05FC44EA0C04203545
:1003500056EA044C4FEA144418BF641C4FF00008DE
:100360004FF00009904271EB030C39D3002919BFFB
:10037000B1FA81F701FA07F6B0FA80F700FA07F64A
:10038000C7F120071EBF20FA07FC46EA0C062037FB
:10039000B6FBF4FCA7EB0507103F07F01F0BCBF1F2
:1003A00020060CFA0BFB2CFA06F644BFB3460026D7
:1003B000202FA4BF5E464FF0000B5BEA060C08BF7F
:1003C0004FF0010B19EB0B09ABFB027C48EB060865
:1003D000C01B06FB02CC0BFB03CC71EB0C01C1E78D
:1003E0000B46024641464846BDE8F08B13B54FF038
:1003F00000004FF00001AFF30080BDE81C407047E3
:100400000FB4044910B503AA029800F0EDFD10BC2A
:100410005DF814FB180000200FB41CB5074B06AAAA
:100420007B4469460090059800F0AFFD00206946C6
:1004300000F0BEFD1CBC5DF814FB00008D0B00003D
:1004400070B50C460546012A05D02878800600D5EF
:10045000EA69002302E0012305E05B1C934202D21B
:10046000E05C0028F9D1A869E618C01AA861286ADA
:10047000184428622846AFF3008004E0D5E9012142
:1004800014F8010B9047B442F8D32846AFF300802C
:1004900070BD00002DE9F041064600241068752962
:1004A000314616A510D0AFF30080002802DA404292
:1004B00013A507E031688A0701D512A502E04907B4
:1004C00004D511A5012401E0AFF3008000210A2228
:1004D00006F1240709E0B0FBF2FCB0FBF2F302FBEB
:1004E0001C00303078541846491C0028F3D12346AC
:1004F0002A463046BDE8F04100F0D9BA00000000BD
:100500002D0000002B0000002000000070B5044604
:100510000D4621461068AFF300802188090502D5F9
:100520000F4A7A4402E00E4A7A440E32002104F166
:10053000240305E000F00F060009965D5E54491C97
:100540000028F7D120780023000704D5702D02D0B1
:1005500009B1022311322046BDE8704000F0A7BA6D
:1005600032BA02002DE9F05F894604464FF0000AD6
:10057000DFF874B1FB44C0F820A02046E16888474A
:10058000002874D0252806D0D4E901219047206A9C
:10059000401C2062F1E700265F462046E16888475C
:1005A0002028054607DB312D05D2781910F8200CDC
:1005B00008B10643F1E7B00701D526F00406C4F8F8
:1005C0001CA00027C4F818A02A2D09D0284602F044
:1005D00088FA38B304EB8708303DC8F8185019E0A2
:1005E00059F8041B204604EB87029161E1688847B3
:1005F000012F054618D1E069002820DA26F02006F0
:100600001DE0D8F8180000EB800005EB4000303802
:10061000C8F818002046E1688847054602F061FAEC
:100620000028EED1012F0AD02E2D08D12046E168F6
:1006300088477F1C0546022F46F02006C4DBA069D0
:10064000002803DA404246F00106A061F00701D01D
:1006500026F010066C2D0BD0682D09D04C2D39D00A
:100660006A2D35D0742D35D07A2D33D016E038E090
:10067000E1682F4620468847B842054609D16C2FCD
:1006800026D04FF48060E16806432046884705463F
:1006900004E06C2F1AD04FF4807006430DB3A5F11F
:1006A0004100192802D8203546F400664A462946FA
:1006B000204626604E46FFF795FD80B101280BD0FD
:1006C000F61D26F0070000F1080956E74020E4E790
:1006D0008020D8E70020D6E706F104094DE7284638
:1006E00052E7206ABDE8F09F08BA020010B500206A
:1006F00000F08CFCFFF78EFDBDE81040012003F0F8
:1007000014BF40EA0103024630B59B0710D14FF0F9
:10071000013400E008C208C91D1B9D4315EAC41F2F
:10072000F8D013F0FF0102F8011B0DD01B0AF8E707
:1007300011F8013B002B02F8013B05D011F8013BF9
:10074000002B02F8013BF3D130BD10B5431C02E091
:1007500010F8011B71B18107FAD14FF0013202C8C4
:100760008C1A8C4314EAC211F9D0C01A0A0603D0BD
:10077000C01E10BDC01A10BD0A0401D0801E10BDDD
:100780000902FCD0401E10BD032A40F2308010F058
:10079000030C00F0158011F8013BBCF1020F62441C
:1007A00098BF11F801CB00F8013B38BF11F8013BAD
:1007B000A2F1040298BF00F801CB38BF00F8013B5A
:1007C00011F0030300F06780083AC0F0088051F888
:1007D000043B083A51F804CBA0E80810F5E7121DD5
:1007E0005CBF51F8043B40F8043BAFF30080D207F4
:1007F00024BF11F8013B11F801CB48BF11F8012BC0
:1008000024BF00F8013B00F801CB48BF00F8012BE2
:100810007047431A28BF9A427FF6B6AF032A1044A6
:10082000114440F2268010F0030F1EBF11F8013D65
:10083000521E00F8013D10F0030F7FF4F6AF11F0E7
:10084000030300F0FD83083AC0F00B8051F8043D2B
:10085000083A51F804CD40F8043D40F804CDFFF7C4
:10086000F3BF121D5CBF51F8043D40F8043DAFF3E7
:100870000080D20724BF11F8013D11F801CD48BF17
:1008800011F8012C24BF00F8013D00F801CD48BF4C
:1008900000F8012C704710B5203AC0F00B80B1E889
:1008A0001850203AA0E81850B1E81850A0E81850A5
:1008B000BFF4F5AF5FEA027C24BFB1E81850A0E8AE
:1008C000185044BF18C918C0BDE810405FEA827CC8
:1008D00024BF51F8043B40F8043B08BF7047D207DF
:1008E00028BF31F8023B48BF11F8012B28BF20F880
:1008F000023B48BF00F8012B704702F0FF0343EAB8
:10090000032242EA024200F002B84FF0000204293A
:10091000C0F0128010F0030C00F01B80CCF1040C2E
:10092000BCF1020F18BF00F8012BA8BF20F8022B62
:10093000A1EB0C0100F00DB85FEAC17C24BF00F808
:10094000012B00F8012B48BF00F8012B70474FF036
:10095000000200B5134694469646203922BFA0E80F
:100960000C50A0E80C50B1F12001BFF4F7AF09071B
:1009700028BFA0E80C5048BF0CC05DF804EB89000C
:1009800028BF40F8042B08BF704748BF20F8022B4F
:1009900011F0804F18BF00F8012B70474FF0013C59
:1009A00050F8042B51F8043B9A4221D1A2EB0C03DE
:1009B000934313EACC1317D150F8042B51F8043B9E
:1009C0009A4215D1A2EB0C03934313EACC130BD13B
:1009D00050F8042B51F8043B9A4209D1A2EB0C03C6
:1009E000934313EACC13DBD04FF00000704700BFF5
:1009F000D01A01BAB1FA81F101F0180122FA01F01E
:100A0000CB40C1F12001DBB2C0B2C01A2CFA01F315
:100A1000D11A914311EAC311E6D17047704770476C
:100A20007047704730B5B0F10A024FEA900E71F18D
:100A300000034EEA817EB0EB0E0061EB91014FEABC
:100A4000101E4EEA017E10EB0E0041EB11114FEA31
:100A5000102E4EEA016E10EB0E0041EB11214FEA11
:100A6000104E4EEA014E10EB0E0041EB11414018C2
:100A700041F100014FEAD00040EA41704FEAD10154
:100A800010EB80054FEA810444EA907444EB0104C2
:100A90006D1944EB0404521BA3414FF0000348BFFF
:100AA0000A3200D530BD401C41F1000130BD2DE9B6
:100AB000F0470D4699469246044600F12408016825
:100AC000880604D5E06921F01001216000E00120D2
:100AD000A84201DD471B00E00027A1697A1902EB5B
:100AE0000900081AA0612078C00602D42046AFF39E
:100AF0000080002608E0D4E901211AF8060090479A
:100B0000206A401C761C20624E45F4DB2078C0062B
:100B10000AD52046AFF3008006E0D4E90121302059
:100B20009047206A401C2062381EA7F10107F4DCC0
:100B300007E0D4E9012118F805009047206A401C1D
:100B40002062281EA5F10105F3DC2046AFF30080EA
:100B50002078000602D50220BDE8F0870120FBE7DF
:100B600070472DE9FF4F0C461E464FF0FF378BB004
:100B7000D2E90001DDF860800A908A46C1F30A5587
:100B800005B93D46002108464FF00000BAF1000FBC
:100B900000F4400005DA00EB80004FF4400101EA68
:100BA00050004FEA9059B9F1010F00DDB9460A989B
:100BB00050EA4A000ED044F61050A5F2FF354543E6
:100BC0002F14B8F1000F1ED07542291E1EDDC9F189
:100BD00000021CE0B8F1010F4FF0000001D03021FD
:100BE00003E0F24305E02154401CB042FBDB3046F9
:100BF0000022002121540B99C1F80880C1E900208E
:100C00000FB0BDE8F08FBD1B6D1CDEE74A4600DA71
:100C1000694206A800F082FA06AB93E8070003AB2E
:100C200083E8070050460A9900F057FB8DE807005B
:100C3000A0F500501F3800900398002D0ADD42F205
:100C40001F014A460844002303A90390684600F0A8
:100C5000C0FD09E0A0F500504A461F38002303A953
:100C60000390684600F0CAFD8DE807000004000C00
:100C700003D04FF0FF30410800E01046B8F1000FFC
:100C800003D00022009215461EE0751E05D4FFF722
:100C9000C9FE303262556D1EF9D5B34601220843B4
:100CA00002D000227F1C04E02078302801D10022ED
:100CB0007F1E002A099784D01DE0112D07DAFFF767
:100CC000B1FE303262556D1C50EA0102F5D1084385
:100CD00002D00098C8B10EE00021681E05E0235C38
:100CE000625C63542254401E491C8142F7DBAB46D0
:100CF000A81B401E0990002004F80B000B98099ACD
:100D0000C0F80880C0E9002B7AE711264FF00008F0
:100D100057E72DE9F04F88460446D21D22F007011F
:100D200091B0D1E90001CDE90A0101F098FE024637
:100D30000B98C00F01D02D2007E02068810701D556
:100D40002B2002E0202101EAC000032A099001D0F3
:100D5000072A05DB03464146204600F09FF90BE1D8
:100D60002078800601D5E06900E00620B8F1650F23
:100D7000814606D0B8F1660F18D0B8F1670F70D170
:100D800031E00020B9F1110F009001DB112301E0E7
:100D900009F101030AAA01A90CA8FFF7E2FEDDE9A7
:100DA0000C70002609F10105834647E001204B46FF
:100DB00000904FF000470AAA01A90CA8FFF7D1FE46
:100DC000DDE90DB00C995D46002610B909F101006E
:100DD0000D18B9EB050003D4C0F1FF3609F1010588
:100DE000A5EB09002BE0B9F1010F01DA4FF0010981
:100DF0000020B9F1110F0090484601DD112300E0F9
:100E000003460AAA01A90CA8FFF7ABFEDDE90C70A6
:100E10004D4600268346207800070AD4AB4500DA09
:100E20005D4601A8012D04DD411911F8011C30298E
:100E300007D04F4502DA17F1040F04DA0120824689
:100E40000FE06D1EEEE7002F02DCED1B3E4403E0D9
:100E5000781CA84200DD7D1CB81B00F1010A4FF090
:100E600000472078000703D4AA4501DB4FF0FF3A82
:100E70000021B7F1004F0DF143088DF8431024D045
:100E800002202B23002F01DA7F422D230A21021E8C
:100E9000A0F1010000DC5FB197FBF1FC97FBF1F2E0
:100EA00001FB1C7C17460CF1300C08F801CDEEE775
:100EB000A8F1010003702188090501D5452100E052
:100EC0006521A0F1010800F8011C09980FA9A1EB08
:100ED0000807FF1D00B10120411901EBEA70A1696B
:100EE0003844081A401EA0612078C00602D420466B
:100EF000AFF30080099828B1D4E901219047206A16
:100F0000401C20622078C00622D52046AFF3008026
:100F10001EE0002E04DBB34502DD01A8805D00E089
:100F20003020D4E901219047206A401C2062761CC1
:100F3000AAF101005FEA000A0AD100F0ABF8C0682C
:100F40000168405CD4E901219047206A401C20627E
:100F5000281EA5F10105DCDC07E0D4E9012118F821
:100F6000010B9047206A401C2062381EA7F1010740
:100F7000F3DC2046AFF30080032011B041E600000F
:100F800001694A1C02610878704700B58FB0CDE94D
:100F900001310021059105497944CDE9031011463D
:100FA0006846FFF7DFFA0FB000BD0000E5FFFFFF66
:100FB0000A6802F8010B0A60704710B5436913B163
:100FC000AFF3008001E0FFF73BFA012010BD12787B
:100FD00000F124010A7000224A700122EDE7116835
:100FE0004FF0FF32E9E70000074B70B50D467B4438
:100FF000FFF7CBFF0446284600F002F910B14FF08E
:10100000FF3070BD204670BD47AC000010B500F049
:1010100001F9BDE8104000F0F7B8431A28BF9A4222
:101020007FF639AC104410F0030F11441EBF11F8C5
:10103000013D521E00F8013D10F0030F7FF4F6AFA2
:10104000103AC0F00A8010B531E91850103A20E982
:101050001850BFF4F9AFBDE81040530724BF31E981
:10106000081020E9081044BF51F8043D40F8043D41
:1010700012F0030F08BF7047D20728BF31F8023DB6
:1010800048BF11F8012C28BF20F8023D48BF00F8E6
:10109000012C704700487047FCC700202DE9F04143
:1010A0001F46044603260168072A01F4006004DB9A
:1010B00008B116A505E016A503E008B115A500E0E6
:1010C00015A521F010002060A069C01EA0610FB11D
:1010D000401EA0612046AFF300804FB1D4E901214A
:1010E00038469047206A401C2062C01C206206E0FF
:1010F000206AFAE7D4E9012115F8010B9047761E22
:10110000F8D22046AFF30080BDE8F0814E414E009A
:101110006E616E00494E4600696E66002DE9F0472B
:10112000814616468AB0354878440DC88DE80D00D2
:1011300032487844801C03AC0DC884E80D0041F6A9
:101140009B300844372190FBF1F290FBF1F5A5F1BB
:10115000800501FB12041B3C02D56442012000E023
:101160000020DFF898A080460027FA44AAF1BE0AC2
:101170000EE0E0070AD03246684607EB470101233C
:101180000AEB810100F03AFB8DE8070064107F1C38
:10119000002CEED1194F7F44AE3F19E0E80715D07F
:1011A00007EB04100DF1180A90E80E008AE80E0013
:1011B000C068F04201D1981908903246012306A96F
:1011C00003A800F01BFB03AB83E807006D10641C51
:1011D000002DE3D14FF0010332466946B8F1000F0C
:1011E00003A802D000F0F5FA01E000F007FBC9E91E
:1011F0000001C9F808200AB0BDE8F087E4AE02009B
:10120000007B00F080007047002801D003F08DB90A
:101210007047000010B5002102A000F045F8012041
:1012200010BD0000534947414252543A2041626E7A
:101230006F726D616C207465726D696E6174696F37
:101240006E00000000487047DCC700207546FFF7BD
:10125000F9FFAE4605006946534620F00700854673
:1012600018B020B5FFF742F8BDE820404FF0000667
:101270004FF000074FF000084FF0000B21F007017E
:10128000AC46ACE8C009ACE8C009ACE8C009ACE8C1
:10129000C0098D46704710B50446AFF30080204664
:1012A000BDE81040FEF7C1BF70B505460C460A20E8
:1012B00000E06D1C03F03AF935B128780028F8D128
:1012C00002E0641C03F032F914B120780028F8D150
:1012D000BDE870400A2003F029B95FEA400C08BF5E
:1012E00091F0000F4FEA8C234FEAC12243EA51519B
:1012F0004FEA1C5018BF00F5F0404FEA300018BF0D
:1013000041F000415FEA6C5C00F02980BCF1FF3FD6
:1013100008BF40F080407047130C06BF12044FF026
:10132000100C4FF0000C130E04BF12020CF1080C4D
:10133000130F04BF12010CF1040C930F04BF9200B1
:101340000CF1020CD30F04BF52000CF1010C11463A
:101350004FF00002A0F11F00A0EB0C00704711F04D
:10136000004F08BF704731F000413FF4D5AF0B0C80
:1013700006BF09044FF0100C4FF0000C0B0E04BF19
:1013800009020CF1080C0B0F04BF09010CF1040C4D
:101390008B0F04BF89000CF1020CCB0F04BF490076
:1013A0000CF1010CCCF12003A0EB0C0022FA03F3AA
:1013B00002FA0CF241EA030100F10100704720F04B
:1013C0007F4C80EA030023F07F47ACEB070303F573
:1013D0007C5300F0004003F1FF032DE980494FEA00
:1013E000154B09B44FEA144325EA0B4E24EA03488F
:1013F0000FF2042606EB132749083E785FEA320213
:1014000003FB0667C7F5000707FB06F64FEA5437EC
:101410004FEAD64606F1020607FB066CCCF1005CEB
:101420004FEA1C472CEA074C07FB06F40CFB06F5B9
:1014300004EB15464FEA961634BF00204FF00040EB
:101440004FEAD13706FB07FC4FEA1C4C0CFB0BF7AD
:10145000D21B03FB0CF761EB07010CFB0EF7B0EBA3
:10146000074072EB17420CFB08F734BFA2EB0742B0
:10147000B2EB074261EB17414FEA0C444FEA910788
:1014800006FB07FC4FEA1C4C0CFB0BF7B0EBC7400C
:1014900072EB573203FB0CF734BFA2EBC742B2EB3F
:1014A000C74261EB57310CFB0EF7B0EBC70072EB94
:1014B00057720CFB08F734BFA2EBC702B2EBC702AE
:1014C00061EB5771039F4FEA816141EA921104EB8E
:1014D000CC044FEAD1374FEA826206FB07FC42EAAE
:1014E00090124FEA80604FEA1C4C0CFB0BF7D21BAA
:1014F00003FB0CF761EB07010CFB0EF7B0EB0740A9
:1015000072EB17420CFB08F734BFA2EB0742B2EBB9
:10151000074261EB17414FEA8C554FEA910704EB04
:101520009C2406FB07FC4FEA1C4C0CFB0BF7B0EBB2
:10153000C74072EB573203FB0CF734BFA2EBC74234
:10154000B2EBC74261EB57310CFB0EF7B0EBC700B3
:1015500072EB57720CFB08F734BFA2EBC702B2EB79
:10156000C70261EB577115EB4C254FEA816141EAE7
:1015700092114FEA82624FEAD13742EA901206FB9B
:1015800007FC44F100044FEA80604FEA1C4C0CFB5E
:101590000BF7D21B03FB0CF761EB07010CFB0EF7FB
:1015A000B0EB074072EB17420CFB08F734BFA2EB1D
:1015B0000742B2EB074261EB174115EB1C154FEAEE
:1015C000813141EA92414FEA823242EA90424FEA47
:1015D00080304FEA0C7644F1000448EA03434EEAB7
:1015E0000B484FF0000EB2EB080C71EB030724BF61
:1015F000624639464EEB0E0E4FF0000B001852417A
:1016000049414BEB0B0BB2EB080C71EB03077BF181
:10161000000B24BF624639464EEB0E0E4FF0000B16
:101620000018524149414BEB0B0BB2EB080C71EB2C
:1016300003077BF1000B24BF624639464EEB0E0ECA
:1016400051EA020718BF46F0010616EB0E7655F177
:10165000000254F1000103D5BDE88901BDE800880E
:10166000BDE88901BDE80048B619524141EB0101CE
:10167000A3F10103704780807F7E7D7C7B7A79783F
:10168000777676757473727171706F6E6E6D6C6C47
:101690006B6A6A69686867666665646463636261E9
:1016A0006160605F5F5E5E5D5D5C5C5B5B5A5A596A
:1016B00059585857575656555555545453535252D6
:1016C0005251515050504F4F4F4E4E4D4D4D4C4C2E
:1016D0004C4B4B4B4A4A4A49494948484847474777
:1016E00047464646454545444444444343434342B4
:1016F000424242414141002B9C4630D477002BD0DE
:101700001CB54FEA370703B44FF010004FF010013B
:10171000BAF1000F06D0BCF1000FDCBF40F00800AA
:1017200040F008014FF000000FBCBDE810400BF185
:10173000010BBBF1010F08BF5FEA170722BF12F1CF
:10174000010211F101014FF0004143F1000300F0EB
:10175000004043EA00007047F9D35708D0E746EA53
:10176000064613F1400F4FEA16461FDD13F1200F16
:10177000DFBF16430A46002120335B42BED0C3F1CF
:10178000200746EA064602FA07F74FEA164646EAF7
:101790000706C3F1200722FA03F201FA07F721FA3C
:1017A00003F14FF0000342EA0702A7E746EA020608
:1017B00046EA06464FEA164646EA0106BCBF46EA36
:1017C0000646360C4FF000034FF000024FF00001C8
:1017D00094E72DE9804C9A46934670B491E838001E
:1017E00007C831EA400C48BF34EA430C03D5FFF781
:1017F000E6FDFFF780FFF0BCBDE8008C2DE9804CD2
:101800009A46934670B491E8380007C810F0804FAC
:1018100008BF13F0804F03D100F005F8FFF76BFF0E
:10182000F0BCBDE8008C20F07F4780EA030023F085
:101830007F4C07EB0C03A3F57C5300F00040A3F1B1
:10184000FE0392F0000F00F0B38095F0000F00F05F
:1018500077802DE901494FEA11404FEA144621EA09
:10186000004800FB06FC24EA064708FB06F607FBD7
:1018700008F800FB07F718EB06484CEB164C4FEA4C
:10188000124B18EB07484FEA15464CEB174022EA7B
:101890000B4E0BFB06FC25EA06470EFB06F607FB84
:1018A0000EFE0BFB07F71EEB064E4CEB164C4FF0F3
:1018B00000061EEB074E4CEB174B18EB0B0840F1E4
:1018C000000018EB0E0B58EB000840F100008F1AD7
:1018D0004FF000013CBFC943661B14BFB5EB040CBD
:1018E00000213CBFC943F61B4FEA17444EEA8E0E57
:1018F00027EA04454FEA1C4704FB07622CEA074C21
:1019000005FB07F70CFB05F604FB0CFC16EB074682
:1019100042EB174216EB0C4642EB1C421BEB060651
:1019200058EB0202414146EA9E0601D5BDE8018915
:10193000B619524141EB0101A3F10103BDE8018950
:101940004FEA14454FEA114724EA054621EA074CBD
:1019500005FB07F406FB07F70CFB06F105FB0CFC87
:1019600011EB074144EB17444FEA124711EB0C41CE
:1019700044EB1C4422EA074C05FB07F206FB07F781
:101980000CFB06F605FB0CFC16EB074642EB174278
:1019900016EB0C4642EB1C456A1854F1000148BF97
:1019A0007047B619524141EB0101A3F101037047A1
:1019B00095F0000F37D04FEA11424FEA144721EA61
:1019C000024624EA074C02FB07F106FB07F70CFB73
:1019D00006F402FB0CFC14EB074441EB17414FEA01
:1019E000154714EB0C4441EB1C4125EA074C02FB64
:1019F00007F506FB07F70CFB06F602FB0CFC16EBE3
:101A0000074645EB174516EB0C4645EB1C421219F1
:101A100051F1000148BF7047B619524141EB010135
:101A2000A3F1010370474FEA14454FEA114724EA36
:101A3000054621EA074C05FB07F106FB07F70CFBFF
:101A400006F24FF0000605FB0CFC12EB074241EBDF
:101A5000174112EB0C4251EB1C4148BF70479218E2
:101A600041EB0101A3F101037047FEE7704700005D
:101A700030B5B3F5804F05D06FF0704140F82210BB
:101A8000002030BD8C690B688D6823434C688989C0
:101A9000240144EA0524234343EA014150F822305B
:101AA000014C23401943E9E70000F0CF10B50A6864
:101AB00050F8223023F0010340F822308B68082BC5
:101AC00023D000224C681C43CB6813430A691C4393
:101AD00014434A698B691443CA6914430A6A14435C
:101AE0004A6A14438A6A1443CA6A14430A6B144349
:101AF0004A6B234309681A43054C50F82130A3432D
:101B0000134340F82130002010BD4022DAE70000E6
:101B10007FFF0F0030B5D1E9003443EA04138C682D
:101B20008D89240244EA054423430C8A094D00EBC5
:101B3000820005EB045423430C7D6D0105EB046426
:101B4000896923430B43416801F040410B434360E3
:101B5000002030BD0000F0FF2DE9F05F90F821106B
:101B60000024022903D004218163012485E0016857
:101B70000A6822F00E020A6001680A6822F0010277
:101B80000A603F4E3E4FB215DFF8F4C0DFF8F09028
:101B9000DFF8ECA0DFF8E8B0DFF8E4E00168783FB8
:101BA00013011502ACF1640CA9F15009AAF13C0A29
:101BB000ABF1280BAEF1140E4FF48018B14227D9C7
:101BC000B9420ED0614512D049451DD0514518D0BB
:101BD000594518D0714501D1424615E0294EB14210
:101BE00001D1012210E0274E1436B14201D110225A
:101BF0000AE0244E2836B14206D0224A3C329142B5
:101C000001D11A4600E02A461E49091F0A602BE04E
:101C1000B94213D0614517D0494522D051451DD056
:101C200059451DD0714501D142461AE0B14202D159
:101C30004FF0807215E0134EB14201D1012210E045
:101C4000104E1436B14201D110220AE00D4E283652
:101C5000B14206D00B4A3C32914201D11A4600E013
:101C60002A46074980394A60012180F82110002165
:101C700080F82010416B01B188472046BDE8F09FF5
:101C800080000240080402402DE9F84FDFF8C091BF
:101C9000002409F1040A0AF1040B23464FF00F084F
:101CA0000BF1040ECCE00127A7403A40BA4272D1B2
:101CB000DFF8A0C14D68A5EB0C0665452BD00DDC07
:101CC000032D34D005DC35B3012D19D0022D2FD1D1
:101CD0001BE0112D16D0122D2AD119E0B6F5881F60
:101CE00019D006DCB6F5803F15D0B6F5801F1FD1A0
:101CF00011E0B6F5001F0ED0B6F5041F18D10AE0AA
:101D0000CB6815E0CB681B1D12E0CB6808330FE0F1
:101D1000CB680C330CE08B682BB1012B4FF0080320
:101D200003D0476104E0042302E0076100E00023E0
:101D3000FF2A01D8064601E000F104064FEA8405B7
:101D400001D9A5F12005376808FA05FC27EA0C0738
:101D500003FA05F547EA050737604D68ED006ED5D3
:101D60003D4DAE6946F00106AE61AD6924F0030653
:101D700005F001050095394D7719BE68A5072D0FAF
:101D800008FA05FC26EA0C06DFF8D4C0604503D14A
:101D90004FF0000C25E052E0DFF8C8C0604502D1EA
:101DA0004FF0010C1DE0DFF8C0C0604502D14FF0DC
:101DB000020C16E0DFF8B4C0604502D14FF0030C0E
:101DC0000FE0DFF8ACC0604502D14FF0040C08E032
:101DD000DFF8A0C0604502D14FF0050C01E04FF0E4
:101DE000060C0CFA05FC4CEA060CC7F808C04D6856
:101DF000D9F80060ED034D4601D5164300E0964347
:101E00002E604D68DAF80060AD03554601D51643E3
:101E100000E096432E604D68DBF80060ED025D4601
:101E200001D5164300E096432E604D68DEF8006051
:101E3000AD02754601D5164300E096432E60641C42
:101E40000A6832FA04F57FF42EAFBDE8F88F00007F
:101E50000004014000001110001002400000014089
:101E600000080140000C0140001001400014014036
:101E700000180140001C01408068084000D001208B
:101E80007047C26821EA02030A4043EA0241016145
:101E900070470AB1016170470904FBE70148806897
:101EA000704700001C00002002488168027811443D
:101EB000816070471C000020074810B5016841F0A0
:101EC00010010160032000F057F80F2000F006F821
:101ED00000F024F8002010BD0020024070B50D4D28
:101EE00004464FF47A712878B1FBF0F00A4909688A
:101EF000B1FBF0F000F046FB48B9102C07D20022ED
:101F00002146501E00F018F800206C6070BD0120C2
:101F100070BD00001C000020000000207047002859
:101F200009DB00F01F02012191404009800000F10F
:101F3000E020C0F800117047F0B40E4B1B68C3F3EB
:101F40000223C3F10704042C00D904241D1D072D0E
:101F500001D2002300E0DB1E012606FA04F56D1E07
:101F60000D409D409E40761E164045EA0601F0BC9D
:101F700000F089BD0CED00E0064A00F00701106892
:101F80004FF6FF03184040EA012003490843106060
:101F9000704700000CED00E00000FA052DE9F04765
:101FA0000D46040067D0DFF81881D8F8000000F073
:101FB0000700A8420CD2D8F8001021F007012943ED
:101FC000C8F80010D8F8000000F00700A84252D16D
:101FD00020683C4E810712D5400703D5706840F455
:101FE000E06070602078000703D5706840F46050AE
:101FF00070607068A16820F0F0000843706020787D
:10200000C00727D06068012810D03168022810D09E
:10201000890700292FDA716821F0030101437160FB
:10202000FFF73CFF074641F288390CE0316889032D
:10203000EFE78901EDE7FFF731FFC11B494502D901
:102040000320BDE8F0877068616800F00C00B0EB19
:10205000810FF0D1D8F80010404601F00701A942E5
:102060000BD9016821F0070129430160006800F0E5
:102070000700A84201D00120E3E72078400705D5FA
:102080007068E16820F4E060084370602078000721
:1020900006D57068216920F4605040EAC100706084
:1020A00000F038F87168084AC1F30311515CC84068
:1020B0000649086006480068FFF710FF0020C0E7E7
:1020C0000020024000100240D24F02080000002011
:1020D000200000200448054900684968044AC1F30B
:1020E0000221515CC84070470000002000100240EF
:1020F000E24F02080448054900684968044AC1F3F0
:10210000C221515CC840704700000020001002400E
:10211000E24F020812A085B00FC88DE80F0014A08E
:10212000144B006804905968134801F00C02042A0B
:1021300010D0082A0ED1C1F38342C9031DF8020052
:102140000AD5596804AAC1F34041515C0A4A504378
:10215000B0FBF1F005B0704708494843FAE70000CA
:1021600002030405060708090A0B0C0D0E0F1010D8
:10217000010200000010024000127A0000093D0038
:102180002DE9F84F04006FD02078BE4DC00747D02E
:102190006868C0F38100012807D06868C0F3810037
:1021A000022809D16868C00306D52868800337D59E
:1021B00060680028E7D033E06068B0F5803F0BD05E
:1021C00010B1B0F5A02F11D0286820F4803028601D
:1021D000286820F4802002E0286840F480302860DD
:1021E000606888B1FFF75AFE064609E0286840F4A7
:1021F00080202860F0E7FFF751FE801B642873D829
:1022000028688003F7D50BE0FFF748FE064604E098
:10221000FFF744FE801B6428F1D828688003F7D4B8
:102220002078DFF8648280074FF0010A4FF0000940
:1022300039D5686810F00C0F07D06868C0F38100CA
:10224000022809D16868C00306D42868800714D51D
:102250002069012808D110E02069B0B1C8F800A0B9
:10226000FFF71CFE064605E007E1FFF717FE801B9F
:102270000228C4D828688007F7D52868616920F04B
:10228000F80040EAC10028600DE0C8F80090FFF7B0
:1022900005FE064604E0FFF701FE801B022823D856
:1022A00028688007F7D4207800072CD57748A169E3
:1022B000D9B1C0F800A0FFF7F1FD064604E0FFF732
:1022C000EDFD801B02280FD8686A8007F7D570489B
:1022D0004FF4FA510068B0FBF1F0009000BF009895
:1022E000411E0091FAD20EE07CE0C0F80090FFF7AA
:1022F000D5FD064604E0FFF7D1FD801B022871D80A
:10230000686A8007F7D4207840075BD5E869002722
:10231000C00008D4E86940F08050E861E86901270E
:1023200000F0805000905B480168C90511D4016835
:10233000834641F480710160FFF7B0FD064604E07A
:10234000FFF7ACFD801B64284CD8DBF80000C0050B
:10235000F6D5E06801280AD008B1052813D0286A0C
:1023600020F001002862286A20F0040002E0286AB8
:1023700040F001002862E06841F2883B88B1FFF735
:102380008DFD064609E0286A40F004002862EEE769
:10239000FFF784FD811B59455BD8286A8007F7D574
:1023A0000BE0FFF77BFD064604E0FFF777FD811B9E
:1023B00059454ED8286A8007F7D41FB1E86920F044
:1023C0008050E861E069A8B36968C1F3810102291E
:1023D00046D00228484606D0C8F86000FFF75EFDE8
:1023E000044639E035E04746C8F86000FFF756FD7F
:1023F000064604E0FFF752FD801B022829D8286812
:102400008001F7D4206AB0F5803F05D16868A168E3
:1024100020F4003008436860D4E908010843696883
:1024200021F4741108436860C7F860A0FFF736FD17
:10243000044605E023E0FFF731FD001B022808D821
:1024400028688001F7D51AE0FFF728FD001B022855
:1024500002D90320BDE8F88F28688001F4D40EE08B
:102460000128F7D06868226A00F48031914204D1D3
:10247000616A00F47010884201D00120EAE7002070
:10248000E8E700000010024000004242800442429F
:10249000000000200070004070B515460E46040094
:1024A00007D0A069B0F5807F03D094F8410010B147
:1024B00007E0012070BD002084F84000204600F0B5
:1024C0001DF804F108012068FFF7F0FA3146A26810
:1024D0002068FFF71FFBD4E901022946236BFFF7B1
:1024E000C7FAA168206850F8212042F0010240F8A4
:1024F0002120012084F84100002070BD184800B55B
:10250000416985B041F480714161416901F4807194
:102510000491816941F020018161816901F020010C
:102520000491816941F0400181618069694600F050
:10253000400004904CF203700090022001900120B2
:102540000290032003900748FFF79EFB4FF6807030
:10255000009069460448FFF797FB05B000BD0000F6
:102560000010024000140140001801404FF0E0212B
:102570000428086903D020F004000861704740F087
:102580000400FAE710B5401EB0F1807F01D30120AE
:1025900010BD4FF0E02460610F21601700F073FA66
:1025A0000020A06107202061002010BD70470000BE
:1025B00070B5026804461068D168536910F00F0FB7
:1025C00052D003F0010501F490762E435FD0C2078C
:1025D00005D0CA0503D5E26B42F00102E26342076F
:1025E00005D5DA0703D0E26B42F00202E26382070C
:1025F00005D5DA0703D0E26B42F00402E26302077A
:1026000007D501F020022A4303D0E26B42F0080212
:10261000E263E26B002A33D0800604D5880602D537
:10262000204600F068F920684069E16BC0F3801033
:10263000090700D428B3204600F04FF9206841690B
:1026400049061AD5416921F040014161606BA0B192
:102650002D494163606BFFF77FFA002810D0606B53
:10266000416BBDE870400847830610D58B060ED538
:102670002046BDE8704000F03EB92046FFF796FFC7
:1026800070BD2046FFF792FF0020E06370BD030697
:102690002BD50B0629D594F839002128F6D1A0684E
:1026A000B0F5805F01D12069B0B1206A411C216280
:1026B000216800784860E08C401E0004000CE08433
:1026C000E4D12068C16821F08001C1602068C16840
:1026D00041F04001C16070BD206A0088C0F308006D
:1026E0005060206A801C2062E5E74006F3D548066A
:1026F000F1D5D168204621F04001D160202184F835
:10270000391000F0D1F870BDCB28000870B5040076
:1027100004D094F83900002510B106E0012070BD06
:1027200084F83850204600F023F8242084F839003B
:102730002068C16821F40051C160204600F022F9F0
:102740002068016921F4904101612068416921F00C
:102750002A0141612068C16841F40051C160E5630C
:10276000202084F8390084F83A00002070BD000071
:1027700010B500681E4986B0884236D11D4881696F
:1027800041F004018161816901F0040104918169D2
:1027900041F004018161816901F0040104918169C2
:1027A00041F4804181618069134C00F480400490C1
:1027B0004FF400700090022001900120029003204D
:1027C000039069462046FFF75FFA2115009100212A
:1027D000019169462046FFF757FA2520FFF79FFB36
:1027E000032211462520FFF7A7FB06B010BD00000D
:1027F00000380140001002400008014090F83A30D3
:10280000202B22D1F9B1F2B190F83830012B1CD035
:1028100081628285C2850021C163222280F83A202C
:1028200080F838100168CA6842F48072CA60016892
:102830004A6942F001024A610068C16841F0200122
:10284000C1600020704701207047022070470000DF
:1028500030B50068114988420CD1114A50880104F2
:1028600008D41146440409784FF0000306D50A291C
:1028700001D0538030BD40F400400DE00D2909D057
:10288000C0F30D04074D401C80B229555080C72865
:10289000EFD830BD40F48040508030BD003801405A
:1028A00012000020B00200207047FEE7FEE77047EC
:1028B00010B5FFF7F9FA21F073FB012803D0BDE84A
:1028C000104021F063B910BD704710B5406A002177
:1028D000C185C184FFF76AFE10BD0168CA6822F491
:1028E0009072CA6001684A6922F001024A6120219F
:1028F00080F83A10704710B590F83A10222901D0AC
:10290000022010BD81684FF48053994201D10269C1
:1029100022B1826A99421BD049B10AE00268816AF9
:102920005268C2F308020A80816A891C08E00169C2
:1029300071B10168496801F07F011170816A491C19
:102940008162C18D491E0904090CC18503D016E0BE
:1029500001684968F1E70168CA6822F02002CA608C
:102960000168CA6822F48072CA6001684A6922F06C
:1029700001024A61202180F83A10FFF769FF002028
:1029800010BD000070B5044600680169E26821F4DA
:10299000405111430161A16820690143606901430D
:1029A0002068C26841F20C639A430A43C2602068FF
:1029B0004169A26921F44071114341611E492068B7
:1029C000884202D1FFF796FB01E0FFF783FB00EBA3
:1029D000C00101EB0011606864228000B1FBF0F3DC
:1029E000B3FBF2F36FF018067343B1FBF0F5B1FBE4
:1029F000F0F605EB8305322303EB0515B5FBF2F585
:102A0000B6FBF2F605F0F00505EB0615B1FBF0F6A6
:102A1000B1FBF0F0B0FBF2F06FF01801484306EBA9
:102A2000800003EB0010B0FBF2F0216800F00F0013
:102A30002844886070BD00000038014010B505488A
:102A4000FFF7B6FD012204490248FFF7D7FE002830
:102A5000F8D110BD7803002012000020FEE74900E5
:102A600050EAC12018BF04204A0D18BF40F00100F1
:102A700040F2FF72B2EB515F08BF40F00200012844
:102A800008BF052070470907090E002804DB00F184
:102A9000E02080F80014704700F00F0000F1E02003
:102AA00080F8141D704770B5044600256FF02F069E
:102AB00008E02068411C2160007805EB850106EBE9
:102AC000410145182068007800F004F80028F0D192
:102AD000284670BD3038092801D8012070470020F1
:102AE000704730380A2801D2012070470020704713
:102AF00010B54021074801F079F80022042106486A
:102B00001BF088FE054CA06002F0ACF8002020709D
:102B100010BD0000106E00200D4D000810020020B6
:102B200070B5B1F90040B2F900309C4200DD234697
:102B30000380B1F90240B2F90250AC4200DC2C46ED
:102B40004480B1F90450B2F90460B54200DB354667
:102B50008580B1F90610B2F90620914200DB1146DA
:102B6000C1800120AB4201DC8C4200DD002070BD41
:102B7000F8B50D460446B0F90000B1F9001016464C
:102B8000884247DBB4F90210B5F90220914241DBDB
:102B9000B4F90410B5F9042091423BDCB4F90610F5
:102BA000B5F90620914235DC96B3ADF80000608897
:102BB000ADF8020032466946284600F099F8002830
:102BC00027D0A088ADF800006088ADF8020032463A
:102BD0006946284600F08CF800281AD02088ADF805
:102BE0000000E088ADF8020032466946284600F051
:102BF0007FF800280DD0A088ADF80000E088ADF87F
:102C0000020032466946284600F072F8002800D0DB
:102C10000120F8BD0020F8BDB0F90020B1F9043062
:102C20009A4213DCB0F90420B1F900309A420DDB6E
:102C3000B0F90220B1F906309A4207DCB0F906007B
:102C4000B1F90210884201DB012070470020704773
:102C5000F8B50D460446B0F90400B1F90010164667
:102C6000884243DBB4F90600B5F9021088423DDB27
:102C7000B4F90000B5F90410884237DCB4F9021049
:102C8000B5F90620914231DC76B3ADF800006088DA
:102C9000ADF8020032466946284600F029F818BB14
:102CA000A088ADF800006088ADF8020032466946A1
:102CB000284600F01DF8B8B92088ADF80000E0887B
:102CC000ADF8020032466946284600F011F858B9BE
:102CD000A088ADF80000E088ADF8020032466946F1
:102CE000284600F005F808B10020F8BD0120F8BD25
:102CF0002DE9FC4105460F46B1F90000B5F9001079
:102D0000144688423BDBB5F90410884237DCB7F93A
:102D10000200B5F90210884231DBB5F9061088428D
:102D20002DDC002C76DD28460FF0D5FB00EBD070B3
:102D3000461028460FF08BFB00EBD0704010864207
:102D400000DA3046844200DD04462888ADF80000F1
:102D5000288800222044ADF804006888ADF80200FD
:102D6000688839462044ADF806006846FFF7C0FF82
:102D700040B1BDF804002044ADF804003FE000205D
:102D8000BDE8FC81E8880022001BADF80200E8885D
:102D9000ADF8060039466846FFF7AAFF28B1BDF82E
:102DA00004002044ADF8040011E0A8880022001BB4
:102DB000ADF80000A888ADF8040039466846FFF772
:102DC00097FF50B1BDF80000001BADF80000BDF842
:102DD0000200001BADF8020016E06888ADF80200A2
:102DE000688800222044ADF8060039466846FFF79F
:102DF0007FFF70B1BDF80000001BADF80000BDF80A
:102E000006002044ADF806003946684619F08CFFEC
:102E1000B6E7FFE70120B3E710B5B1F90030B2F92A
:102E20000040A34200DB23460380B1F90230B2F92F
:102E30000240A34200DB23464380B1F90430B2F9DB
:102E40000440A34200DC23468380B1F90610B2F9A6
:102E50000620914200DC1146C18010BDFEB505463A
:102E60001BF0D6FC0024354E0746009435B1E868C7
:102E7000706028461BF09CFD706802E010F080FC3A
:102E80007060006919F0ECFE7068406908B119F0D3
:102E9000E7FE7068C06919F0E3FE7068006A19F017
:102EA000DFFE70680169E1B31AF026FC1AF0A0FB9E
:102EB0007068B0F8501199B30168097C890715D57D
:102EC00010F0BCFC401E05B2706810F071FC401E92
:102ED00003B20022114601A800950FF028FB70688C
:102EE00001A90268926B516004F078FC70684FF49D
:102EF0008071303016F0B8F97068202100F59870B4
:102F000016F0B2F97068A0F8504138461BF07AFC10
:102F1000009070680068436A13B13268009998475E
:102F200000E007E015F0E6FF00F034F8BDE8FE40F1
:102F300000F006B8A0F85041FEBD00004801002096
:102F400070B5094E0024C4EBC40556F8250008B13D
:102F500016F044F806EB85001C2116F085F9641C78
:102F6000E4B2042CEFD370BDEC6E00200849496830
:102F70000AE04A68824202D00A68824203D10A7E8D
:102F800042F001020A7649690029F2D17047000037
:102F90001C010020704700000421014800F026BEFB
:102FA000046E00201C21014800F020BE1C6E002091
:102FB0002DE9FE4F0446DDE90C0513B9B0F5807F1D
:102FC0007ED0B5F900604FF0FF3C764246430CEBF3
:102FD000262636B22680B5F902707F4247430CEBB5
:102FE00027273FB26780B5F900C0A1EB0C01414330
:102FF0004FF0020C0CEB212109B2A180B5F902803F
:10300000A2EB080242430CEB222000B2E080002B2E
:103010007ED04FF00A0A93FBFAF6704200EB800074
:1030200003EB400706F1010930B21BF009FE0090E6
:103030000FFA89F01BF004FE83465A3630B21BF0BB
:10304000FFFD804609F15A0000B21BF0F9FD014670
:10305000009AC7F10A0000FB02F300FB08F001FB35
:1030600007010BFB073393FBFAF291FBFAF15011C6
:10307000B4F900204FEA611BB4F902100BFB02F611
:10308000B5F800C000FB11630CEBA323E646B5F8CE
:1030900002C00FFA83FACDF800C0B4F9043000FB87
:1030A00002F90BFB01920BFB03F800FB11850CEB03
:1030B000A2220EEBA52512B22DB200FB03FC00E00C
:1030C0002EE0CDE901C80BFB01C1DDF800C0B4F969
:1030D00006700CEBA1210BB200FB17610EEBA121D6
:1030E0000EB2DDF808800BFB079100FB17800CEB9C
:1030F000A121DDF804C00EEBA0200BFB07C7DDF813
:1031000000C009B20CEBA72700B23FB2D44600E0E2
:103110000FE0564500DAB446A84217DA804616E0BA
:1031200000202080491E6080A180521EE280BDE800
:10313000FE8F2A88324422806A883A4462802A8834
:103140001144A18069880844E080F0E7A846C4459E
:1031500004DAD446564506DAB44604E0A84201DA59
:10316000844600E0AC46A4F800C0D446564500DDD5
:10317000B446A84201DD804600E0A846C44504DD0F
:103180005046564504DD304602E0A84200DC2846A1
:10319000A080914201DA084600E010469F4201DA21
:1031A0003D4600E01D46A84205DA914201DA084694
:1031B00006E0104604E09F4201DA384600E0184677
:1031C0006080914201DD084600E010469F4201DD2B
:1031D0003D4600E01D46A84203DD914206DC114653
:1031E00004E09F4201DD394600E01946E1809EE798
:1031F0002DE9FE4F0446D0F800B0B0F90800E5898B
:10320000081AB4F90A10511AD4E90932B5F5807FC9
:103210003AD0A589002DA56B05FB00F005FB01F553
:103220004FEA60104FEA65113CD0256BE66A05FB5A
:1032300000F706FB1177464305FB016003EBA72966
:1032400002EBA020B4F904104FEA292706128046A9
:10325000B94246DD002F44DBB4F90600B04240DD40
:10326000002E3EDB94F8340042073DD5820704F17E
:1032700014001BD401FB067102224D0092460BEB99
:10328000050115F0AAFF21E0256BE66A05FB00F7B2
:1032900006FB1177464305FB016003EBA70902EB30
:1032A000A000CFE703EB00095018CBE701FB067144
:1032B00001EB41054FF0030A0BEB0501022215F06B
:1032C0008CFFE81C584410F8010CA07594F83400E9
:1032D000C0071FD04FF4FC60ADF80000A18A814206
:1032E00018D10020BDE8FE8F32B204F11800236926
:1032F000CDE90102002539B2AA468B4613F02AFA1D
:103300000090BDF80000A082DDE90102594613F0EB
:10331000B9F9DAE7E07C78B1A4F83C90A4F83E80F3
:10332000A4F84070A4F84260656484F848A0204680
:10333000BDE8FE4F00F002B80120D3E72DE9F04FC1
:10334000044690F83C10D0F8009090F83E0087B00A
:103350004FF0FF36702907DAB4F940203546012ACC
:1033600000D5002580310DE0902916DDB4F940200C
:10337000B4F904300125521C9A4200DB0025A1F269
:103380007F114942C9B28846702809DAB4F942105F
:10339000012900D50026803010E00025FF21F2E74A
:1033A00090280DDDB4F94210B4F906200126491C1D
:1033B000914200DB0026A0F27F104042C7B201E03C
:1033C0000026FF2760690590A07D019000208246BD
:1033D0008346009094F83400400744D594F8481090
:1033E000606C022201FB0501494404A815F0F5FEBA
:1033F000B4F9040094F8481002224843616C06FBBB
:103400000011494403A815F0E8FEB4F9041094F83B
:103410004800626C414306FB012200FB0590111835
:10342000022202A815F0D9FE94F83400800761D575
:1034300094F84800626C00EB090100FB05230B4483
:1034400013F8013C0093B4F90430434306FB032214
:10345000114400FB050011F801AC111801EB090043
:1034600010F8010C45E0B4F84000B4F942202844BB
:1034700001B204F118008146236913F06BF904903E
:10348000B4F84200B4F94010304402B254F8103F8E
:10349000484613F05FF90390608E2368304402B20F
:1034A000208E284401B2484613F054F9029094F853
:1034B0002400103C80071DD5B4F9422034F8400F99
:1034C000284401B2484613F0DDF800906088B4F952
:1034D0000010304402B2484613F0D4F882466088A7
:1034E000304402B234F84009284401B2484613F08F
:1034F000C9F8834694F8340042464546800735D5DE
:103500000199009B01FB08F1C8F1FF0003FB0011CA
:103510000AFB08F30BFB0030C1F30721C0F30720BF
:1035200001FB07F3C7F1FF0600FB06331B0AA37577
:10353000022907D8022803D8002007B0BDE8F08F81
:10354000002702E0022800D8FF270198022800D8AF
:1035500000220098022800D8FF22BAF1020F00D8FA
:103560000025BBF1020F03D8FF2501E0FF20A07565
:10357000DAB1FF2A1BD0DDE904100FF041FF019002
:10358000BDB1FF2D17D0DDE902102A460FF038FF3C
:1035900000903FB1FF2F10D001463A4601980FF03E
:1035A0002FFF0090BDF8000009E00498E7E70598B8
:1035B000E5E70298ECE70398EAE7BDF80400A0828B
:1035C0000120BAE72DE9F0470446B0F908000A27C0
:1035D00000026062B4F90A000002A062B4F90C00B3
:1035E00090FBF7F5694201EB810100EB410668426F
:1035F00005F1010800B21BF023FB8246E84300B24C
:103600001BF01EFB8146C5F15A0000B21BF018FBEF
:103610000546C8F15A0000B21BF012FB0146C6F184
:103620000A0000FB0AF3684301FB060009FB0632AF
:1036300092FBF7F290FBF7F051114011C4E90B1027
:10364000A07C13F04EFA94F8341060F3000184F873
:103650003410A07C13F035FA94F8341060F3410173
:1036600084F83410A07C042823D0052821D0062813
:103670001FD021F0040184F8341021682162A1696F
:1036800021F0E00160F30401A08860F39421E08858
:1036900060F35F51A161E0894FF4001101EB50012B
:1036A000B1FBF0F0A063FF20A075208AA082BDE8E6
:1036B000F08741F00401DEE72DE9F04115460E46A2
:1036C0000746114C1BF0A4F880462B46324639467B
:1036D000204613F083FD20B10020A062E06950B1C4
:1036E00010E02C21204615F0BFFD4FF00040A062F5
:1036F0000020BDE8F08140461BF084F8E06108B985
:103700000120E0612046F4E7406E002010B514214E
:10371000074800F06BFA13F027FD40B1054901603E
:1037200005494160054981600549C16010BDFEE75A
:10373000286E00209D6B0108116F01088970010837
:10374000696B010870B50D4604461021284615F036
:103750008BFD20680078012804D0022807D00428B7
:1037600007D008E0208A2880608A688003E0E0684B
:1037700000E00A20686020684268002A03D02946D9
:10378000BDE87040104770BDFEB5856A0446BDB9FE
:10379000A08A218A0844A082E08A618A0844E082E3
:1037A000204607F055FD050079D020460AF068FB59
:1037B00000220921284612F0AFFA607880076ED403
:1037C000208A10B9608A002869D00026ADF8086008
:1037D000ADF8046094F83C0000F00F000328284680
:1037E00016D017F095F80746284616F06BFF0346EB
:1037F0000C200090B4F912103A46284607F01EF942
:10380000ADF80400284616F0AFFFC10712D017E04C
:1038100017F012F80746284616F0AEFF02460320BE
:103820000090B4F910103B46284607F007F9ADF8B0
:103830000800E7E7BDF90810002901DDADF80860D0
:10384000810705D4BDF90810002901DAADF8086038
:10385000410705D4BDF90410002901DDADF804606D
:10386000000705D4BDF90400002801DAADF80460B2
:1038700001AA02A920461DF0BCFA0023BDF90420CC
:10388000BDF90810284618F01FFEA08ABDF80810E0
:103890000844A082E08ABDF804100844E082FEBD1E
:1038A0002DE9FC5F0446806A5FEA000B71D094F852
:1038B0003C0000076DD013F04BFF019000684021E1
:1038C000457E584617F012FE4FF0000818B9A4F8CC
:1038D0001A80A4F81880584617F00CF8824658460B
:1038E00017F00FF8064694F83C004FF0640900F01A
:1038F0000F000C2802D003284CD09AE0A4F81880BE
:1039000056B1B4F91A50002713F022FF0068494657
:10391000407EC0F1640222E0B4F91A00C5F16401EE
:10392000484390FBF9F06083584616F0CBFE0546FD
:10393000584616F0EDFF02460C200090B4F91A101C
:103940002B46584607F07AF86083024600231EE0B3
:10395000781907B202FB05F090FBF1F005B2002DDB
:10396000F6D1ADF80070A4F81A806A46002120460E
:103970001DF03FFA41F6FF72BDF900305142584642
:1039800007F0CAFDBDF800100123084402B200216F
:103990004CE09AE0A4F81A80BAF1000F0AD0B4F90A
:1039A0001850002713F0D4FE00684946407EC0F14D
:1039B000640222E0B4F91800C5F16401484390FBA9
:1039C000F9F02083584616F0D7FE0546584616F003
:1039D00033FF034603200090B4F918102A465846D6
:1039E00007F02CF82083014600231EE0781907B267
:1039F00002FB05F090FBF1F005B2002DF6D1ADF819
:103A00000070A4F818800022694620461DF0F1F9E4
:103A100041F6FF72BDF900305142584607F0FAFCFA
:103A2000BDF800100123084401B20022584618F0E6
:103A30004BFD208B002848D1608B002845D1C6B9AA
:103A4000584616F065FF0546584616F03BFE002D19
:103A500006DC00280DDD002D02DA01232A4604E0F1
:103A6000002806DA0123404202B20021584618F02D
:103A70002BFDBAF1000F19D1584616F07DFE054610
:103A8000584616F0D9FE002D07DC00280EDD002D6B
:103A900003DA01230022294605E0002806DA012383
:103AA0000022404201B2584618F00EFD0A21584645
:103AB000019A12F031F96078800706D414F83C0FAF
:103AC00020F00F00207044F8148CBDE8FC9F7FB5F7
:103AD0000D46040003D10FF053FE040023D000264E
:103AE000FDB1ADF80060ADF802600FF061FE401E60
:103AF000ADF8040020460FF0A1FE401EADF8060010
:103B00006A46294602A8FFF70BF800280BD0206868
:103B1000017C890708D5DDE90001C4E90C01012019
:103B200029E0A0F850617FBD82690AB102A99047DF
:103B300000250AE004EBC501002202A83031FFF79E
:103B400017F80028EFD16D1CADB2B4F85001A842AF
:103B5000F0D880B2202804D204EBC00002A9303093
:103B600004E0A4F8506104F1300069460EF012FC44
:103B7000B4F85001401CA4F8500160680028D2D06D
:103B80001AF022FF7FBD70B5054600F012F804461A
:103B90000CE02146284600F01EF80646214628463D
:103BA00000F071F8204615F019FA3446002CF0D1D7
:103BB00070BD002800D04068704700B50346002261
:103BC000FFF7F7FF03E01846521C00F004F801006D
:103BD000F9D1104600BD0068091D405870470068C3
:103BE00040587047002800D080687047002242602B
:103BF000C91C21F0030182600160704770B5044662
:103C00000068083015F060F9050013D00146002265
:103C100020461BF03AFE2946204662681BF02CFE27
:103C2000616819B12A4620461BF02FFE6560A06826
:103C300000B9A560284670BD70B50446006808301C
:103C400015F042F9050013D00146002220461BF072
:103C500013FE29462046A2681BF017FEA16819B181
:103C60002A4620461BF008FEA560606800B9656022
:103C7000284670BD28B1416809B9806808B10020A4
:103C800070470120704770B504000DD0FFF791FF19
:103C900000228842204608D1FFF79DFF606010B1E6
:103CA000002201461EE0A26070BDFFF79BFF884224
:103CB000206808440AD10168A16029B12046BDE806
:103CC000704000221BF0D8BD626070BD05682046C0
:103CD000FFF781FF06460246294620461BF0CCFD31
:103CE0002A4631462046BDE870401BF0CEBD10B5D7
:103CF0000446006882680AB121469047206800683F
:103D0000002801D02060F5E710BD8068002801D0B0
:103D1000B0F91600704700002DE9F047054690B055
:103D2000408C189C40F00400688490462A84994690
:103D30008A462289284617F0DFFA0646A5F8209021
:103D400022895146284617F0D7FA0746688CBE42AA
:103D500020F00400688403D13104B1EB074F68D030
:103D6000A5F8208022895146284617F0C5FA064654
:103D70008046A5F820905146284608F095FE2189F6
:103D80000068324619F0DDFF2089602823D147F60C
:103D9000FF794E4501D04F451DD1284617F0A3FBB2
:103DA00000EBD0704610284617F09DFB00EBD0705A
:103DB0004010C84506D1711C431C994200DA00E04E
:103DC000194688464F4506D1711C421C914201DAC2
:103DD0000F4600E017461948FFF710FF06002BD0EA
:103DE0003560C6E903872089B0806846C6F808A018
:103DF0000DF07CFE1248FF21CDE9006011480290D1
:103E00001148039000200790CDE9080120880A900E
:103E100060889DF83E1040420B90E06806900020BC
:103E200060F300018DF83E102069059068460DF0A2
:103E3000BBFE10B0BDE8F087FEE70000346E002046
:103E4000712E020861300208B92F020814210148BE
:103E5000FFF7CCBE346E00202DE9F84F00249046C9
:103E600089460646254643F60F0A43F60E0B00E147
:103E70000420F16800EBC500085881017ED480B2AF
:103E800030EA090112D0002130EA080010D00020E9
:103E9000814273D0F0686A4641F6100150F83570DF
:103EA000384619F04BFD002869D103E00121EBE70A
:103EB0000120EDE76A4641F61101384619F03EFD52
:103EC000002873D16A4641F61201384619F036FDD2
:103ED00000286BD16A4641F61301384619F02EFDD1
:103EE000002863D16A4641F61501384619F026FDCF
:103EF00000285BD16A4641F61401384619F01EFDD0
:103F0000E8BB6A4641F26901384619F017FDB0BBBB
:103F10006A4643F20C01384619F010FD78BB6A4638
:103F200043F20D01384619F009FD40BB6A4641F2E3
:103F30000101384619F002FD08BB6A4641F204014E
:103F4000384619F0FBFCD0B96A4641F20201384606
:103F500019F0F4FC98B96A4641F20301384619F0A9
:103F6000EDFC60B96A4641F20501384619F0E6FCFD
:103F700028B96A4641F20601384601E078E015E0CA
:103F800019F0DCFC90B96A4641F23201384619F06A
:103F9000D5FC58B96A465146384619F0CFFC28B9C5
:103FA0006A465946384619F0C9FC10B10320BDE8ED
:103FB000F88F6A4640F60A01384619F0BFFCE8BBA4
:103FC0006A4640F60B01384619F0B8FCB0BB6A46A9
:103FD0005146384619F0B2FC80BB6A46594638460D
:103FE00019F0ACFC50BB6A4640F63C01384619F06B
:103FF000A5FC18BB6A4640F63D01384619F09EFC08
:10400000E0B96A4640F63A01384619F097FCA8B97B
:104010006A464FF40461384619F090FC70B96A465C
:1040200040F64501384619F089FC38B96A4640F631
:104030004101384619F082FC00B900E014E06A46FC
:1040400040F64201384619F079FC68B96A4640F6F4
:104050004301384619F072FC30B96A4640F649010E
:10406000384619F06BFC08B1022401E004B90124C0
:104070006D1C708CC0F3C500A8423FF6F9AE204617
:1040800095E70000014840687047000048010020A3
:104090007047C0F30410072800D9072070470000BC
:1040A00010B518210348FFF7A1FD0349012008704E
:1040B00010BD0000E06D00203C0200202DE9F04121
:1040C00090460D46040016D0FCF73FFB29460B4DE9
:1040D00006462046AA6890470746AA68E019414666
:1040E000904701463846721A03E04318E35C2354B4
:1040F000401C8242F9D2BDE8F0810000500200204D
:104100002DE9F041094C90460E4662681D4607466F
:1041100019469047306020B1286862683844002111
:104120009047C8F80000BDE8F08100005002002070
:104130002DE9F04F87B08A46DDE910581F469346B7
:104140000446002105B129805CB12078002809D0FF
:10415000BAF1000F05D0002618F0060F15D0002088
:1041600004E0002007B0BDE8F08F401C215C0A2964
:1041700004D00D2902D00029F7D100E0401C002D09
:10418000F0D04FF0FF312980ECE75FEA887001D56D
:1041900041F6FF77894608468DF81010059125E015
:1041A0000598CDF8189058B3002104ABCDE9023141
:1041B0000DF1180CCDE9008C20443B465A4651467F
:1041C0001AF068FD06997A1A314417B20EB288B116
:1041D00005990844059021780A290BD00D2909D0AA
:1041E000205C0A280ED00D280CD00598205C08B160
:1041F000002FD5DC059848B105B12E800598B1E7B0
:104200000121D2E70598401C0590F3E7064A05A96D
:104210002046526890470146002DEFD000225046BC
:1042200011F053FE06B2E8E7500200202DE9F041FC
:104230001746884606001ED0002F1CD0FCF785FAD2
:1042400004463846FCF781FA050014D00B4A2C448A
:104250004146926830469047411903E0621BB25CC8
:104260003255641EA142F9D930442A463946BDE888
:10427000F04114F0BDBFBDE8F08100005002002005
:1042800000230278232902D0012A0DD00FE02AB1A1
:104290000021012A04D0022A04D008E0012101E013
:1042A000017004E0017001E0202902D001231846CA
:1042B00070470221F6E72DE9F047984614460D466F
:1042C0008246DDF8209013E0660806FB0857394661
:1042D00050464A469047002808DD44F30000C0EBF2
:1042E000540407EB0805A4F1010401E005DA3446A3
:1042F000002CE9D12046BDE8F0873846FBE72DE9E0
:10430000FC5F0CAD9E4692468B4695E81201DDE9B6
:104310001132DDE90F7C96074FF0300519D453B107
:10432000D60708D002F00C0656EA080603D05B1E3A
:1043300001E00D55641C644504D2202CF9D301E042
:104340000D55641C5FEAC27903D09C4201D2202C37
:10435000F6D3D60624D556050AD44CB1644501D00F
:104360009C4205D1641E03D0102F03D1641E04E0CB
:10437000102F02D0022F0AD00EE0960603D4202C74
:104380001ED2782606E0202C1AD2582602E0202CD5
:1043900016D262260E55641C202C11D20D55641CB9
:1043A000202C0DD2B8F1000F01D02D2506E05507C5
:1043B00001D52B2502E0150702D520250D55641CDB
:1043C000CDE900EB064655468B4698469146900748
:1043D00013D1274606E02A46DDE900316D1C202076
:1043E000B0477F1C4745F6D307E02A466D1C641E84
:1043F000DDE900311BF80400B047002CF5D15FEA7D
:10440000897006D409E02A46DDE900316D1C2020C0
:10441000B047A5EB0A014145F5D32846BDE8FC9F0E
:104420002DE9F04F8FB099468B46DDE91818DDE98C
:104430001C63DDE91A4786469246002009B923F03D
:1044400010035A0507AD00D5C9B1B1FBF4F204FB66
:104450001212D2B20A2A01D2303209E05FEA836C2A
:1044600002D54FF0410C01E04FF0610C62440A3A72
:10447000B1FBF4F12A54401C09B12028E5D3CDF852
:104480000880CDE90563CDE90050CDE903474B46EF
:10449000524659467046FFF732FF0FB0BDE8F08F25
:1044A0002DE9FF4F8FB01CACDDE9239594E803089C
:1044B00020AC94E8C004002450EA010201D125F0A8
:1044C00010056A050DF11C0802D550EA010217D04B
:1044D00032463B46FBF71DFFD2B20A2A01D23032E8
:1044E00006E0AB0601D5412300E061231A440A3AF5
:1044F00008F80420641C50EA010201D0202CE7D304
:10450000CDE90084CDF808B0CDE90595CDE9036A81
:104510000FAF97E80F00FFF7F2FE13B0BDE8F08F82
:104520009A4200D288547047704770477047000025
:104530002DE9FF4F89B082460A980024169D002875
:1045400001D1DFF8F0A367E1252802D02246641CE0
:10455000E2E1491C002608460C9101782B291BD06A
:1045600004DC20291BD0232904D11BE02D290ED0E7
:10457000302909D00027C8B2FEF7ACFAA8B10CA8C0
:10458000FEF791FA07461CE046F0010601E046F00E
:104590000206401C0C90E0E746F00406F9E746F0FE
:1045A0000806F6E746F01006F3E70C9801782A298A
:1045B00007D180CD002F02DA46F002067F42401C70
:1045C0000C900C984FF0000801782E2917D1401C50
:1045D0000C9046F480660078FEF77CFA20B10CA8B7
:1045E000FEF761FA80460AE00C9908782A2806D17D
:1045F00001CD002800DC0020491C80460C910C985D
:1046000001786C290AD004DC68290FD06A2918D1F6
:1046100027E0742928D07A2913D125E0401C0C907A
:10462000017846F480766C291BD00AE0401C0C907F
:10463000017846F08006682903D146F04006401C08
:104640000C9002460078692822D015DC62281FD021
:104650000DDC252877D050281AD058287FF476AF63
:1046600016E046F40076EAE746F48076E7E763284A
:104670006AD06428F2D10BE073286FD004DC6F2875
:1046800006D07028EAD103E0752801D07828E5D15A
:1046900078280DD058280BD070280BD0502809D07E
:1046A0006F2816D0622816D00A2126F0100616E0D0
:1046B000102107E05078102146F48876562804D15E
:1046C000521C0C921078582807D01078502804D02B
:1046D00005E0082108E0022106E046F020061078F7
:1046E000692803D0642801D026F00C06700501D596
:1046F00026F001061078692813D0642811D05628B6
:1047000054D0B00560D5ED1D0020CDE90410CDF8E2
:1047100018800290CDE9077625F00705F5E802013B
:1047200021E0B00528D5ED1D25F007050023F5E8AB
:1047300002020DF11009002A89E80A01CDE9077685
:1047400003DA012102E0E4E070E00021002302919D
:1047500019461B1A914102DA114604E08EE000214D
:10476000404261EB0201CDE90001DDE90A13224676
:104770005046FFF795FE4BE0F00503D501CD0BE069
:10478000404210E0700602D515F8040B04E0300634
:10479000F4D535F8040B00B2CDE90218CDE9047662
:1047A000C10F0028ECDDCDE900012BE001CD41680F
:1047B0000968009103680B98021B0A98011950467A
:1047C000FFF7B6FE044424E0F00508D5CDE9021851
:1047D000CDE9047602CD0020CDE9001012E070068C
:1047E00002D515F8040B06E0300603D535F8040BA6
:1047F00080B200E001CDCDE902180021CDE9000131
:10480000CDE90476DDE90A1322465046FFF708FE9B
:1048100004460C98401C0C900C99087800287FF4F2
:1048200093AE0B9884427BD222467AE04FF0010887
:10483000B00707D50BE02246DDE90A13641C2020EF
:10484000D446E047414608F10108B942F3D3DDE917
:104850000A13224615F8040B641CD446E047B0073F
:1048600006D4D6E72246DDE90A13641C2020D0478F
:10487000414608F10108B942F4D3CAE755F804BB30
:10488000B8F100005A4601D0014601E04FF0FF3177
:10489000584600E0401C03780BB1491EFAD2A0EB49
:1048A0000209700505D548464146C14500D3084672
:1048B0008146B00707D514E02246DDE90A13641CDF
:1048C0002020D446E047494609F10109B942F3D313
:1048D00007E0DDE90A1322460BF1010B641CD44604
:1048E000E0479BF8000020B17105F2D5B8F101084E
:1048F000EFD2B00706D48CE72246DDE90A13641C28
:104900002020D047494609F10109B942F4D380E794
:1049100006E02246641C2520DDE90A13D04778E72B
:10492000421E034600200A99D0470DB02046BDE83C
:10493000F08F0000294500082DE9FF4F8FB0154684
:104940000C46042A68D2012C66DB282C64DC05EBBB
:10495000C50000EB45115648084410F9049054482E
:10496000A438084410F90480204607F041FBC11721
:1049700000EB5170C6102946204607F01BFB96FB42
:10498000F9F109FB11610B90A9EB010096FBF9F11C
:104990000A90A1EB080046460990701E6D460C90E7
:1049A0001D2839D831462846FBF7AFFF0120A91949
:1049B000824601F8010C002716E000240CE0285D77
:1049C000514606F041FF611C2855B14203DA29190E
:1049D000497848402855641CB442F0DB0221504617
:1049E00006F032FF82467F1CB742E6DB0027DDF887
:1049F0003CA057E00A98874201DB012000E000203C
:104A00000999CDF838D000EB010B0B990F98451898
:104A10000C9808951D2801D9FBF768FE41462846E9
:104A2000FBF773FF00261DE01AF806002978A8F1AD
:104A3000010248400D90691C2846FBF7EAFE002160
:104A400005EB08000C4600F8011C08E00E980D99D3
:104A5000005D06F0F9FE295D48402855641C444578
:104A6000F4DB761C5E45DFDB00203E460AE0099958
:104A7000884201D10A99761A12991AF80020401C2E
:104A80008A554E445845F2DB0B990020394405E025
:104A9000089A135C129A401C535449444045F7DB72
:104AA000DA447F1C4F45A5DB13B0BDE8F08F000052
:104AB00074BE020870B505460C460622481CFBF77A
:104AC000A8FE257070BD10B503004FF000000DD09A
:104AD0004A1E114200D0FEE71944491E91430A467E
:104AE000B1F5004F02D20C2A01D9084610BD0C20A6
:104AF00010BD08444A1E401E9043114200D0FEE7FC
:104B0000704700002DE9F0410446012000250F46C2
:104B100060862E460BE01B49FBF740FF10B16D1C71
:104B2000ADB202E0608E401C6086761CB6B257F8CB
:104B3000260010B101780029EDD1208EA8421ED0A8
:104B4000A06A002610B114F049FAA662E06A10B11A
:104B500014F044FAE662E80014F0B6F9A06238B145
:104B6000680014F0B1F9E06218B1A16A11B102E075
:104B7000FEE7FEE70025690014F076FB2586BDE818
:104B8000F08100007C2B01082DE9F84F8146407A26
:104B90000D4600F00700022819D0104680469542C5
:104BA00000DD2A46164603202A4F2B4B00EB460019
:104BB00020F00304B86819681034411A7A6804EBCD
:104BC000010C944505D2416821F0004124E00846DB
:104BD000E4E7944219D89A464FF0FF3B08197968E8
:104BE000884210D9002269461C48CDF800B009F06F
:104BF000B1FC002269461A4809F0ACFCB968DAF841
:104C00000000091AEAE7B868DDE7204614F05CF90D
:104C1000C0B1416841F0004188EA6502416089EA1B
:104C200002010160416801F04041491C31F08041BE
:104C300041608681A0F80E8005D500F110018160E9
:104C4000BDE8F88FFEE7B96801F1100221448260E7
:104C5000B960F5E7500100202C0200203FB20008A7
:104C600019E7000810B5084C012020700748FEF72E
:104C7000A0FF0028A06803D0BDE8104019F0A4BE32
:104C8000BDE8104019F094BE10020020106E002004
:104C900010B5044690F83E00616B820707D4A28FDE
:104CA0003AB1A2F57F43FF3B15D0521EA287A28FD7
:104CB0008AB909B182070ED521461348FEF7E3FFF2
:104CC000FFF7D0FFE16809B1204688472046BDE8DC
:104CD000104014F083B9A26B5242E262002911D055
:104CE000820702D4226B5242E2624210521C62F3EB
:104CF000410084F83E00626AE069E2616062A06A95
:104D0000A162606310BD0000106E002070B5304ECF
:104D1000706819F077FD0546707880F001007070BA
:104D200047E00020307094F83E007178C0F38002B4
:104D30008A4242D061F3820084F83E00E16A4A1957
:104D4000030719D4002917DC002A15DBC00709D195
:104D5000216939B120468847E1690144E161616A0E
:104D600008446062A16809B12046884794F83E0073
:104D700040F0080084F83E00E06A4019E06216D472
:104D8000A16A884200DDE162A169204688470146A8
:104D9000206A884204D0216262680AB12068904784
:104DA000D4E90A01814202DB2046FFF771FF307827
:104DB00018B10848FEF7FDFE03E021460548FEF75E
:104DC0000AFF0400ADD119F023FD706070BD000032
:104DD00010020020106E002070B5102902D830FAA1
:104DE00001F401D0FBF782FC491E12D420FA01F431
:104DF00004F001051C6804F00706C6F1070602EB83
:104E0000E404B5402678354325701C68641C1C609A
:104E1000EAE770BD2DE9F05F914683468A46072A8E
:104E200070D808461BF0EAFC00258046032764E0A2
:104E300000245FE02A462146584607F09FF8C8BB89
:104E4000B9F1080F5ED2DFE809F0040C131820282E
:104E5000363D601900EBD07121F0010181423BD059
:104E600011E005EBD57020F00100A84234D00AE033
:104E700094FBF7F007FB104004E0601990FBF7F19A
:104E800007FB110040B3002627E094FBF7F005EB89
:104E9000D57180EA6100C007F4E704FB05F090FBE0
:104EA000F7F107FB110100EBD07222F00102801A2A
:104EB0000844E7E71DE004FB05F090FBF7F107FB72
:104EC000110106E004FB05F191FBF7F207FB12115B
:104ED00060194140C807D5E701262A4621465046B9
:104EE00007F04CF880EA06032A46214650461CF09B
:104EF0004AF8641C44459DDB6D1C454598DBBDE8C4
:104F0000F09FFFE7FBF7F2FB70B5044640680D46E3
:104F100008B1FFF7F9FF2268002A04D0294620468D
:104F2000BDE87040104770BD08F07CB970B51546FB
:104F30000E46044606E02046641CA4B200F006F8C3
:104F400006F8010B6D1EADB2F5D270BD10B504466A
:104F500008F00EFA200AA02101EB4000C0B208F0D0
:104F6000DBF908F047FAE0B208F0D6F908F042FAA7
:104F700008F0FEF9A12008F0CFF908F03BFA002074
:104F800008F09CF9044608F017FA204610BD70B5E9
:104F900014460D46064606E02978304600F007F82C
:104FA000761CB6B26D1C641EA4B2F5D270BD70B58D
:104FB0000D46044608F0DCF9200AA02101EB400070
:104FC000C0B208F0A9F908F015FAE0B208F0A4F9A7
:104FD00008F010FA284608F09FF908F00BFA08F0DC
:104FE000EBF9BDE870400A2001F0B6BB30B50F48C0
:104FF00085B0816941F00801816180694FF4807456
:1050000000F0080004900120CDE900400290032048
:10501000074D039069462846FCF736FE00222146DC
:105020002846FCF736FF05B030BD000000100240F6
:10503000000C014070B50D46044600F04DF800B17B
:10504000FEE76868616820F00300001D08446060A6
:10505000204600F049F8204670BD4068103120F02D
:105060000300884201D301207047002070472DE9DA
:10507000FC47054648680C4620F0030001AA694633
:105080001AF083FBDDE9006005EBC61101EB800936
:105090008046D9F8380060B164B1C4E9020504F172
:1050A0000807C46038460421FFF723FD874202D079
:1050B000FEE7FEE7FEE7C9F838400123286903FA56
:1050C00006F10843286105EB860003FA08F14269FE
:1050D0000A434261BDE8FC87406830F0030001D01C
:1050E000002070470120704710B5044600F08CF88E
:1050F000046010BD2DE9FC474FF0000780460E000C
:1051000001973D46009745D00C460DF1040AE9464B
:10511000802907D308461DF00FFA411F012088405F
:10512000401E04444A46514620461AF02EFB019C7C
:10513000092C2FDA08EB8400009940694FF0FF3208
:1051400002FA01F1454608400CD1641C2869A240CE
:10515000104016D01DF0E8F90446019005EB8000E0
:10516000406980B11DF0E0F905EBC411009001EB3E
:105170008000856B75B1686820F00300B04203D2EF
:10518000FEE73D46F6E7FEE7DDE900322946404608
:105190001BF071FC2846BDE8FC8710B50446FFF7FC
:1051A000A3FF416841F002014160606840F00100E6
:1051B000606010BD10B5044600F026F8416821F08B
:1051C00002014160606820F00100606010BD70B5B0
:1051D00006460D46084600F017F8040008D020796E
:1051E00010F0010F0ED02846FFF776FF08B1FEE75A
:1051F000FEE72146304600F03EF821462846FFF7FC
:1052000019FF0546284670BD10B5426800F1080137
:1052100022F00302121F8C18FFF75EFF00B1FEE7B9
:10522000204610BD70B506460C004FF000001FD0A0
:10523000FAB12079154610F0010F1BD01146204617
:10524000FFF70BFF78B12946204600F025F8054608
:105250002046FFF749FF6868294640F00200686071
:105260003046FFF704FF2046FFF7A4FF04F10800D3
:1052700070BDFEE7FEE77CB5054648680C4620F0A9
:1052800003006A4601A91AF080FADDE900322146DE
:1052900028461BF0F0FB7CBD2DE9F0410D4604468D
:1052A0000830091F4618606806F1080720F003005F
:1052B000401BA0F1040838460421FFF71AFC87427E
:1052C00000D0FEE7606808EB050120F00300091D2F
:1052D000884200D0FEE7307900F0030040EA080081
:1052E000706020F003000C2800D2FEE7207900F067
:1052F0000300284360603046FFF74FFF3046BDE8AB
:10530000F08100002DE9F04F0C4687B005460021E2
:1053100015F0BBF860B32146284600F087FA214615
:10532000284600F0A5F80021284615F04BFF05900F
:105330000021284615F0A8FF04900021284615F00A
:105340007CFE012800D0002080460021284616F06F
:10535000AEF806460021284615F0C4FE42F2D17987
:1053600007464E450BD1688C400508D4012607E05E
:1053700007B02046BDE8F04F1C2113F075BF002692
:10538000284615F000F9DFF878A08346284600216A
:10539000BAF8022015F0B0FFD4F810C0A368216855
:1053A000CDF800C0CDF80C80CDE90131C2B2314654
:1053B0005846059B07F0EAFB20834F4504D1688CD3
:1053C000800501D4012600E00026284615F0C1F82A
:1053D000074628460021BAF8062015F08DFFC2B214
:1053E000606900256368E1688DE82B003146384626
:1053F000049B07F0CBFB608307B0BDE8F08F000093
:105400007401002010B54FF400434FF0FF32994271
:105410002CD2012808D002280FD0042816D0082842
:1054200016D007281CD019E001EB8100022101EB06
:105430004000032190FBF1F00EE001EB410000EB96
:10544000C100401C00EBD070401005E0C80003E034
:1054500001EB810000EBC100002805DAFBF746F9FB
:105460000029FBD1182010BD9842FCD3104610BD76
:105470002DE9F34F81B00C46019807F013F88046F0
:10548000019815F080F88346404600F0B0FE206198
:10549000400013F045FD20602069400013F040FDFE
:1054A000002541F69A79A06035E038F91510454E8F
:1054B00049452FD10027DFF810A11CE0394601989B
:1054C00014F0E3FF5146009016F017F890B90098D9
:1054D00006F0FAFF01280DD1009806F0EBFFA84274
:1054E00008D1009815F0FFFFB04203DB009815F0DB
:1054F000FAFF06467F1C019814F0D9FFB842DDD8A8
:10550000002E03DBA06820F8156003E0A1680020EE
:1055100021F815006D1C2069A842C6D800252F4629
:10552000284641F69B764A4615E038F91010B142FC
:1055300004DB0D44A5F5F8559B3D0BE0914204D1E9
:10554000A16831F81010394403E0A36823F8101063
:1055500039440FB2401C21698142E6D800210198EC
:1055600015F030FE2169C1F1010200FB02B0C01B41
:1055700001B2002900DA002100224FF0FF37104667
:1055800010E038F91030B3420BDBA3F5F8539B3B26
:105590001AB201FB02F3B3FBF5F3A76827F810304A
:1055A0000746401C23698342EBD8002F07DBA81A6B
:1055B0004843B0FBF5F0081AA16821F81700BDE8D0
:1055C000FE8F000001E0FFFF010006002DE9F05F03
:1055D00000220746114617F0B5F80021384615F0AD
:1055E0004BFD04460021384615F063FE20440FFAB7
:1055F00080F80021384615F0C2FD20440FFA80FBE8
:10560000384615F0C7FC00EB080101EB0B000FFA60
:1056100080F9254C384614F04AFF8246002627E0E0
:10562000B8682249006850F82650284615F065FFF2
:10563000E8B9284616F082FA48BB0021284615F042
:10564000CEFC20B3012822D0022820D003281ED06F
:105650000021284615F040FF48B9688BE98A401AB6
:10566000401C00B24044A04200DB044624B2761C39
:105670005645D5D341F6FF70C44212D004EB0B005F
:1056800000B24946484500DC0846BDE8F09FB5F940
:105690001A00B7F91610401A411CA142E6DB0C466D
:1056A000E4E74846F1E7000001E0FFFF01000400E5
:1056B0002DE9F05F00220546114617F02DF8002174
:1056C000284615F0D9FC04460021284615F0B9FDFE
:1056D00020440FFA80F90021284615F088FD204467
:1056E0000FFA80F8284615F063FC00EB080101EB87
:1056F00009000FFA80FB4B4C284614F0D8FE824676
:105700000021284615F084FC01284FF000062CD01B
:105710006AE0A8684449006850F82670384615F0D9
:10572000ECFE08BB384616F009FA38BB00213846B3
:1057300015F055FC10B3032820D006281ED00828E9
:105740001CD00021384615F0C0FE68B907F11400DE
:1057500007460CF09CFE4844A04204DB38460CF09F
:1057600096FE00EB090424B2761C5645D1D341F6CF
:10577000FF70C44241D004EB08003DE0B5F91800C9
:10578000B7F91410401A411CA142ECDB0C46EAE7C1
:10579000A8682549006850F82670384615F0ADFE17
:1057A00008BB384616F0CAF988BB0021384615F008
:1057B00016FC60B301282BD0042829D0072827D055
:1057C0000021384615F088FE68B907F11400074635
:1057D0000CF05DFE4044A04204DB38460CF057FE5E
:1057E00000EB080424B2761C5645D1D341F6FF7075
:1057F000C44202D004EB090004B241F6FF70C44277
:10580000584602D05C4500DD2046BDE8F09FFFE72A
:10581000B7F91800B5F91410401A411CA142E1DB98
:105820000C46DFE701E0FFFF010004002DE9F84F1F
:105830000C46834607F01CF9804600F0D8FC6061F6
:10584000400013F06DFB60606069400013F068FB7E
:10585000002541F69A79E06035E038F91510464E9A
:1058600049452FD10027DFF814A11CE039465846DE
:1058700014F00BFE5146009015F03FFE90B90098D1
:1058800007F008F901280DD1009807F0F9F8A842AF
:1058900008D1009814F0CBFEB04203DB009814F05E
:1058A000C6FE06467F1C584614F001FEB842DDD8FD
:1058B000002E03DBE06820F8156003E0E1680020BB
:1058C00021F815006D1C6069A842C6D8002635462F
:1058D000304641F69B774A4615E038F91010B94238
:1058E00004DB0E44A6F5F8569B3E0BE0914204D132
:1058F000E16831F81010294403E0E36823F8101040
:1059000029440DB2401C61698142E6D80021584605
:1059100015F0BAFC8146584614F01BFE6169C1F1CE
:10592000010209FB0200401B01B2002900DA00213C
:1059300000254FF0FF3328460FE038F91020BA4217
:105940000ADBA2F5F8529B3A12B24A43B2FBF6F2D6
:10595000D4F80CC02CF81020401C62698242ECD8AC
:10596000002B07DB701B4843B0FBF6F0081AE16818
:1059700021F81300BDE8F88F01E0FFFF01000600E9
:105980001CB50B8804892344ADF800304B8844894A
:105990002344ADF802308B8804892344ADF80430E9
:1059A000C98843891944ADF8061043696946984788
:1059B0001CBD0000F8B50D46D0E90C21044682B1AB
:1059C000127872B139B118F088FD0E49096888471C
:1059D000616B884211D2206B88B100200A4E009082
:1059E00006E061B1EFE7326869469047A84206D009
:1059F000206B0099415C0029F5D10020F8BD012001
:105A0000F8BD000068020020540200202DE9FF4F7D
:105A100087B0C878189CC0070D46002801D0E6481A
:105A200000E0E648059001D0E54800E0E548824600
:105A300001D1E34800E0E34804906088A1884FF07A
:105A4000000BA0EB010001B25A465846D4F810C032
:105A500010E000EB80034FF01007E66807EB8307C8
:105A6000F75DFF070AD0082707EB8303F35AC91A2B
:105A700009B2401C8445ECD8002043E00C2707EB1A
:105A80008303F35A1A4412B2F3E709EB8903102097
:105A9000E66800EB830E16F80E00C00730D191FBCC
:105AA000F2F70C2000EB83000090305A7843042773
:105AB00007EB830736F907C0062707EB8307F75F75
:105AC00000B2874201DD804600E0B846C44501DDF2
:105AD000674602E0874200DD0746874204D04FF068
:105AE000010C46F80EC0E346E668082000EB830090
:105AF0003752E3680098185A101A02B2C81B01B254
:105B000009F10100236981464B45BED8BBF1000F66
:105B100093D10021079815F089FA012800D00020C0
:105B200083460020ADF80800ADF80C0003A902A8D8
:105B3000CDE900012089B4F9022003B22878169932
:105B400019F05CFFE97811EA0B0F07D0079814F001
:105B50001AFDBDF808100844ADF808000999079827
:105B600014F093FC0BE09849304615F0C6FC78B170
:105B7000E87809AAC0F38001079806F0B7FE06008E
:105B800003D0DDE909018842EDD10BB0BDE8F08F0B
:105B90000021304615F08EFAE8B300273846216917
:105BA0000FE0E26800EB800352F82320B24207D1F5
:105BB00000EB8002E168082000EB82000F5E02E04B
:105BC000401C8142EDD8E878C007708C02D040F4C8
:105BD000806001E040F40070708406F1140080469B
:105BE00051468847B84228D0304615F045FFB08A64
:105BF000ADF80000F08AADF80200308BADF804007B
:105C0000708BADF80600059A3946404690476A46C3
:105C10002921304600E00CE010F07EF8304614F008
:105C200044FD3246222110F077F8304615F024FF6B
:105C300003E0708C20F4C060708468784FF0000935
:105C400001280FD0022815D1049906F114008847C5
:105C5000B4F90010491C21F00101081A00EBD070C2
:105C6000401005E0049906F1140088472188081ABD
:105C70000FFA80F9E87810EA0B0F08D006F114004B
:105C800051468847BDF80810081AADF8080030469C
:105C9000002143F20C0215F02FFB0FFA80F830467A
:105CA000002143F20D0215F027FB07B2304615F034
:105CB0001AFC0090304614F0BAFC0146C8F341309B
:105CC000012810D128F4C040B0F5FA6F0BDCB0F514
:105CD0007A7F01DDC0F57A70009A5043642290FB10
:105CE000F2F00FFA80F8C7F3413001280ED127F403
:105CF000C040B0F5FA6F09DCB0F57A7F01DDC0F580
:105D00007A704843642190FBF1F007B2B18A14988D
:105D1000411A01EB080002B2F18A1598401A384482
:105D200001B2E878C007002802D0BDF9080000E001
:105D30004846104407B201D0484601E0BDF90800CA
:105D400008440FFA80F857EA080019D0304615F0D9
:105D500093FEB08A3844B082308B38443083F18A65
:105D600001EB0800F082718B01EB08007083304674
:105D700015F082FE012342463946304615F02CFFCD
:105D8000E87810EA0B0F0CD106F114005146884751
:105D900017990844BDF80C100844BDF808100844D1
:105DA00006E0BDF80C1017980844BDF80810081A52
:105DB000ADF80800DCE60000472501083D25010894
:105DC000BF24010843240108010006002DE9F04F1B
:105DD0008BB05FEA010A054643D0A5F818A02868F1
:105DE00008B113F0FBF80AEB4A00062101EB400072
:105DF00013F06AF8286058B3022202EB4A0101440A
:105E00000422E96002EB8A010144C5E90101012194
:105E10000024BAF1010F1CD04FEACA00083013F079
:105E20007FF8064600EB8A074FEA8A0000B2ADF819
:105E30000000C0F101022146ADF802408010A146E9
:105E4000A346ADF824204C463F1D01910590B3E0D8
:105E5000FEE7B4220270E8680480E8684180A86820
:105E600004800BB0BDE8F08F4FF00008BDF92400AE
:105E7000002808DCBDF80210032202EB41010844AF
:105E8000ADF824000DE0BDF80220BDF80010052398
:105E9000521A03EB42021044491EADF82400ADF83B
:105EA0000010BDF80200401CADF80200684600F08A
:105EB000F0F878B1BDF9000005AB821043F8282056
:105EC00001AA00F0030142F8281008F10108B8F116
:105ED000040FCBDBB8F1040F74D108990598884200
:105EE00012D126F8140027F81490DDE901010844C6
:105EF000DDE9031211440844696808556968000126
:105F00000855641C24B255E00699884219D026F839
:105F1000140027F814906A68019810556A68000107
:105F20001055641C059A20B2521E26F8102027F83E
:105F30001090DDE902120A440499091D11446A68AF
:105F400032E0079926F814008842494627F8149051
:105F500015D0DDE9012010446A6810556A68000117
:105F60001055641C059A20B2521E26F8102027F8FE
:105F70001010DDE90312114408316A6814E0DDE90C
:105F800001021044039A10446A6810556A680001BF
:105F90001055641C059A20B2521E26F8102027F8CE
:105FA000101004996A680C3111546A68090111547F
:105FB000401C04B209F10109684600F06AF80028A3
:105FC0007FF452AF06EB440240F2D3200AFB00F10B
:105FD00032F9022C8812824205D107EB440232F9D1
:105FE000022C82421AD0A1EB8021B1F5007F03DCA4
:105FF000494341F3CF3106E0C1F58061494341F3A4
:10600000CF31C1F10F0126F8140027F81400686899
:106010000155686809010155641C24B2A01E0DE0F9
:1060200037F8101026F8141036F8101027F814104E
:1060300069680A5C0A55641C24B2401E0028EFDA25
:10604000EB6800210846A3F800B01CE0EA6822F8DB
:106050001100AB6836F8102023F811200BE0D5F8BA
:1060600008C036F910303CF811209A4200DB1A467D
:106070002CF81120401C37F910208A4201D1A0428F
:10608000EDDB491C09B2A042E0DB304612F094FF80
:10609000E7E6B0F90210B0F90000814201DC01200E
:1060A00070470020704717B581B0022A03D8BDF8A9
:1060B000080004B010BDBDF80830BDF80400D90ACE
:1060C00001EBD0211F2900D31F2161F3CF20C3F39F
:1060D0004511C0F345142144ADF804003F2900D315
:1060E0003F2161F34A1003F01F0100F01F03194420
:1060F000ADF804001F2900D31F2161F30400ADF89F
:106100000400FF2A07D0DDE901010DF093F90090AA
:10611000BDF80000CDE780B2CBE717B581B0022A09
:1061200003D8BDF8080004B010BDBDF80410BDF8D8
:106130000800CB0AC40A63435B0963F3CF2100F074
:106140001F0401F01F0363435B0963F30401C1F300
:106150004513C0F345104343980960F34A11ADF865
:106160000410FF2A07D0DDE901010DF063F900906A
:10617000BDF80000D7E788B2D5E717B581B0022A8D
:1061800003D8BDF8080004B010BDBDF80830BDF854
:106190000400D90AA1EBD021002900DC002161F321
:1061A000CF20C3F34511C0F34514091BADF804001B
:1061B000002900DC002161F34A1003F01F0100F008
:1061C0001F03C91AADF80400002900DC002161F3A7
:1061D0000400ADF80400FF2A07D0DDE901010DF04D
:1061E00029F90090BDF80000CDE780B2CBE7014669
:1061F000002041F6FF7200E0401C31F9103093425C
:10620000FAD1704770B5134D4FF400740022214647
:106210002846FBF73EFE022000F0ACFA0E4E0122AB
:1062200002213046FBF735FE022000F0A3FA0022DF
:1062300002213046FBF72DFE022000F09BFA0122DE
:1062400021462846FBF725FEBDE87040022000F0FD
:1062500091BA0000001C0140000C0140144800B538
:10626000816985B041F008018161816901F008010F
:106270000491816941F0800181618069694600F083
:1062800080000490022000901120019001200290D3
:10629000032003900748FBF7F7FC4FF400700090D1
:1062A00069460548FBF7F0FC00F0B8F805B000BD02
:1062B00000100240000C0140001C014010B50122FA
:1062C00051020C48FBF7E5FD022000F053FA0A4C9E
:1062D000012202212046FBF7DCFD022000F04AFAF1
:1062E000002202212046FBF7D4FDBDE81040022029
:1062F00000F040BA001C0140000C01402DE9F047BD
:106300000024DFF85890164E074625464FF40078D3
:106310006006040E012202213046FBF7BAFD02207E
:1063200000F028FA41464846FBF7A6FD08B1641C78
:10633000E4B2002202213046FBF7ABFD022000F060
:1063400019FA6D1CEDB2082DE2D327B1FFF75AFF01
:106350002046BDE8F087FFF7B1FFF9E7001C0140D8
:10636000000C01402DE9F041DFF85880164E05463B
:1063700000244FF40077280601D5012200E0002216
:1063800039464046FBF785FD022000F0F3F9012273
:1063900002213046FBF77DFD022000F0EBF90022E0
:1063A00002213046FBF775FD6806641C050EE4B259
:1063B000082CE0D339464046BDE8F0410122FBF706
:1063C00068BD0000001C0140000C014070B50122B6
:1063D000104D540221462846FBF75BFD0E4E01226C
:1063E00002213046FBF755FD022000F0C3F90022E0
:1063F00021462846FBF74DFD022000F0BBF90022A4
:1064000002213046FBF745FDBDE87040022000F058
:10641000B1B90000001C0140000C014070B50E4DE8
:106420004FF40074002221462846FBF732FD02207B
:1064300000F0A0F9012202210848FBF72AFD022002
:1064400000F098F9012221462846FBF722FDBDE81D
:106450007040022000F08EB9001C0140000C014089
:106460002DE9F0410122174F0024560225463146FE
:106470003846FBF70EFD022000F07CF9DFF848807B
:10648000012202214046FBF704FD07E0641CE4B250
:10649000FA2C03D9FFF7C2FF012508E0022000F023
:1064A00069F931463846FBF7E7FC0028EED10022B7
:1064B00002214046FBF7EDFC022000F05BF9284684
:1064C000BDE8F081001C0140000C01401CB50446F1
:1064D00090F8500000F0010088422DD094F8500050
:1064E00011B140F0010101E020F0010184F85010E9
:1064F00004F1440168460BF083FF616ABDF8002097
:10650000888A1044ADF80000BDF80200C98A08442A
:10651000ADF80200606ABDF80410808A0844ADF846
:106520000400606ABDF80610C08A0844ADF8060091
:106530006946204615F0D4FA1CBD08B50846114638
:106540000CF044FE0090BDF8000008BD2DE9F04FAE
:106550000646C87A89B015460F46022803D801209E
:1065600009B0BDE8F08F18463A69B968FDF7A4F89C
:10657000041EF5D0207D00F01F0010F0B2FA08B123
:10658000062008E0207D00F01F0010F09AFA08B104
:10659000052000E00420226A814622B129463046C7
:1065A0001AF084FEB7E0A069E8B3294602A80BF010
:1065B000FAFE388818B97888B0F5807F2AD0A88884
:1065C00029886A88401A401C01B2E8883B1D801A5D
:1065D000401C02B27888CDE90003B7F9003002A868
:1065E000FCF7E6FCBDF8080029880844ADF808006F
:1065F000BDF80A0069880844ADF80A00BDF80C002F
:1066000029880844ADF80C00BDF80E0069880844DC
:10661000ADF80E0002AA04A8B168FCF781FA0028C0
:1066200079D004A800E00DE0D6F80880B060CDF87D
:1066300000902A4639463046A3690DF027FBC6F87C
:10664000088068E02A4603A8B168FCF769FA0028C8
:1066500061D0BDF81000BDF80C10401A401C0FFAB4
:1066600080FA0AEB4A0012F05BFC059003A901A82E
:10667000D6F808B00BF097FE012101A80BF05EFFE1
:10668000BDF90C00B5F90010401A0890BDF90E8054
:10669000B5F90200A8EB000534E001AA594606A8A6
:1066A000FCF73EFA60B3059800900898534601B293
:1066B0002AB2204610F0F0FD01280CD0204610F040
:1066C00040FD059812F078FC204610F03AFD0020BD
:1066D000C6F808B044E706A8B060CDF8009001AA5B
:1066E00039463046059B0DF0D1FABDF80600401C36
:1066F000ADF80600BDF80A00401CADF80A006D1C9C
:1067000008F10108BDF912004045C6DAC6F808B024
:10671000059812F051FC204610F013FD1FE770475A
:1067200070B54FF0E0240021054621610846FBF7D3
:106730001DFF0849E80808804FF47A714843216931
:1067400041F0020121616061206940F00100206197
:1067500070BD00001000002070B5054600244FF405
:106760007A7603E0304600F005F8641CAC42F9D3B9
:1067700070BD000070B54FF0E02500216C69094A3A
:10678000AB6912885043AA699A42FCD002D2A3EBAB
:10679000020302E0A4EB020633441944134681428B
:1067A000F1D370BD1000002038B505460092B1F954
:1067B0000240B1F90630B1F90420B1F900002146D8
:1067C00008F00CF92846BDE838400CF0D3BF2DE99D
:1067D000F74F82B08A4604981AF010F800248046D9
:1067E000471E34E0062F00D1052700262CE00025A7
:1067F000781C40F34009781B0090B9F1FF3F03D0AB
:10680000A8EB0600401E00E0304683460246009991
:10681000049805F0B3FB98B9B4EBCA0F10DA0298EC
:1068200004F0070100EBE400C1F1070100785A46CB
:10683000C84000F00103009904981AF0A4FB641CFE
:106840006D1C022DD7DB761C4645D0DBBF1E012F09
:10685000C8DAB4EBCA0F01D0F9F748FF05B0BDE8BC
:10686000F08F00002DE9F0411746072916D8394A64
:1068700052F8200041EAC00318460021421240F2BB
:1068800037546243491C82EA40000A29F6DB40EA99
:10689000832445F212404440E01301D0F9F726FF6B
:1068A000002544FA05F000F001032A460821384685
:1068B0001AF069FB6D1C052DF3DDC4F3801307226C
:1068C000082138461AF05FFB0822C4F3C0131146B2
:1068D00038461AF058FBC4F3002308220721384633
:1068E0001AF051FB092544FA05F000F00103C5F147
:1068F0000E01082238461AF046FB6D1C0F2DF2DB04
:10690000384619F07BFF0646002544FA05F000F0F2
:106910000103711B08223846491E1AF034FB6D1C16
:10692000082DF2DB082544FA05F000F00103721986
:10693000082138460F3A1AF026FB6D1C0F2DF2DBAA
:10694000A6F108023846BDE8F041012308211AF0FB
:106950001ABB000018BF02082DE9F34F83B003985B
:1069600019F04CFF07248146C51F0CE00023224686
:10697000062103981AF007FB0023062221460398FC
:106980001AF001FBA41CAC42F0DB6FF003052E46AD
:106990003446200000D56042002D01DB294600E08E
:1069A0006942814202DD280000D56842022801D0F8
:1069B000042815D10023EA1CE11C03981AF004FBFB
:1069C00009EB04010023EA1C091F03981AF0FCFAE2
:1069D00009EB05020023E11C121F03981AF0F4FAD8
:1069E000641C042CD5DD6D1C042DD1DD6946049892
:1069F00005F09EFA804600274FF0FF3B26E0002678
:106A000021E027B9F6B1A8F1010086421AD0A8F119
:106A10000100874200D1AEB15D46EA465C4654EAC9
:106A2000050029D000231AF806101AF807004A19A1
:106A3000011903981AF0A7FA641C012CEFDD6D1CF4
:106A4000012DEBDD761C4645DBDB7F1C4745D6DBA5
:106A5000049807282DDB0021C21241F625735A4302
:106A6000491C82EA40000C29F6DB049940EA013512
:106A7000A81403D0F9F73AFE0123D4E70026002436
:106A800005F0010009EB0407804603460B3F324640
:106A9000394603981AF077FA43463A463146039846
:106AA0001AF071FA6D10641C032CE9DB761C062EBB
:106AB000E5DB05B0BDE8F08F2DE9F04F99B08146D8
:106AC000044615468A4614A80CF0DEFE4FF4A021B9
:106AD000484614F08EFA9DF85D1060F382018DF83F
:106AE0005D1028460BF0F1FC00EBD07046102888B2
:106AF00000213044ADF8600068883044ADF8620091
:106B0000484614F019FB8046514602A813F0FCFADF
:106B100014A80A904FF400300F902C4803900020E6
:106B2000049004F130008346FDF75CF849E02079D9
:106B3000032842D1208BADF85000208AADF85200D6
:106B40006079FD2801D9404602E000FB08F0000A08
:106B50008DF85C002568B5F92030E88B184400906A
:106B6000D5E90512A06812F09DF90746B5F9203065
:106B7000E88B18440090D5E90512E06812F092F90C
:106B80000546608B02AA3044ADF8440018A80B906B
:106B90001A21139448460FF0BFF8A9B2B8B2CDE954
:106BA0000001BDF8443018AA14A950460CF05CFE50
:106BB00002AA1B2148460FF0AFF821465846FDF7C0
:106BC0000EF80400B3D119B0BDE8F08F2485020897
:106BD0002DE9F74FC87898B00C4602287ED91146A7
:106BE0000AA80BF0F2FBB4F92000012829DD94F883
:106BF0002200FD2825D3208818B394F82300BDF87F
:106C000028104008C0F380021144ADF82810BDF8E8
:106C10002A10C0F340000844ADF82A0094F823106D
:106C2000BDF82C004908C1F3C001401AADF82C0092
:106C300094F82310BDF82E00C1F34001401AADF8BE
:106C40002E0018980AA982680CA8FBF769FF002893
:106C50007ED0E07B10F0070519D0E088ADF8000089
:106C6000BDF800006189884200D100250AA80DF016
:106C70000BFD07461C2103A8F9F769FEA0788DF8E3
:106C80002500BDF80000ADF814001FB105E06068F4
:106C90000090E5E7208800B9F5B3E078FD2800D33F
:106CA000FF2083460AA80BF004FC81460AA80BF0DB
:106CB000C2FB06464846B14500DB3046B4F9001039
:106CC000B1EB600F00DB411088460CA80BF0F1FB24
:106CD00082464FF0FF301690002000E038E0009030
:106CE000B8F1000F00DC77B1504612F019F90090AE
:106CF000002342460AA90EA80DF030FF00210EA87D
:106D00000DF0D2FA1690BDF83000ADF80400BDF8D1
:106D10003400ADF8080000E011E00098069001A8EA
:106D200003900890FF208DF8240032464946A01DAC
:106D30000FF0D2FA060018D0022D0CD015E00AA8E8
:106D40000390E0788DF8240003A918980EF0BBF9A1
:106D50001BB0BDE8F08FBDF93010B06800EB41000A
:106D6000BDF92810A0EB410004907FB3BDF932407B
:106D700027E027B2ADF80670ADF80A7052465946C2
:106D8000009812F040FABDF9301053463A46009888
:106D90000DF03CFC8DF81C00012802D102208DF87A
:106DA0001C00012D08D1BDF92A10B068611A00EB52
:106DB00041000088ADF8140003A918980EF083F97B
:106DC000641CBDF93600A042D3DABCE0FFE7002026
:106DD00054E0BDF82A1001EB0900BDF82E1004B2F2
:106DE000A1EB090007B2BDF93200A04203DDBDF9F5
:106DF0003600B84240DB52465946009812F003FA7A
:106E0000BDF904105346224600980DF0FFFB8DF8A3
:106E10001C00012802D102208DF81C00BDF93200AF
:106E2000A04212DCADF80640ADF80A40012D08D1B1
:106E3000BDF92A10B068611A00EB41000088ADF876
:106E4000140003A918980EF03EF9BDF93600B842B7
:106E500012DBADF80670ADF80A70012D08D1BDF94E
:106E60002A10B068791A00EB41000088ADF81400D0
:106E700003A918980EF027F909F101008146404551
:106E8000A7DBBDF82800ADF85000BDF82C00BDF818
:106E90002A10ADF8540001EB0800BDF82E10ADF833
:106EA0005200A1EB0800ADF8560014A80DF0ECFB61
:106EB000074628430DD0BDF92E100120A1EB08098B
:106EC000BDF92A108DF824B08DF81C0001EB0804E0
:106ED00037E0BDF82A108DF824B001EB0800ADF8BA
:106EE0000600BDF82E10A1EB0800ADF80A00002046
:106EF000069003A918980EF0E6F824E06FB1524608
:106F00005946009812F07FF9BDF93010534622B26D
:106F100000980DF07BFB8DF81C00ADF80640ADF835
:106F20000A40012D08D1BDF92A10B068611A00EBA2
:106F300041000088ADF8140003A918980EF0C3F8BA
:106F4000641C4C45DADD009808B112F035F816984B
:106F5000401C05D016980DF0ABFE0EA80DF078FB86
:106F6000002E3FF4F5AE30460FF0B0F9F0E6F0B584
:106F7000064608698FB015460C46002871D0A17EE0
:106F800002296ED910F09BFB022820D001A92069AC
:106F900010F0F8F8012864D104A80CF07FFEA07866
:106FA0008DF81C00208BADF81800E07E8DF81A00DB
:106FB000A07E8DF81B00207F4FF0FF37E0B30199D2
:106FC0006888ADF80A0007EB51510844A8E0002793
:106FD00041F6FF70CDE900700297D4E904123B46F8
:106FE0000DA817F0F9FE28460BF063FA01462A882F
:106FF000BDF9340001EBD17102EB610100EBD072FD
:10700000A1EB62010844401EADF83000ADF82C1031
:1070100028460BF010FA01466A88BDF9360001EBEC
:10702000D17102EB610100EBD072A1EB6201084467
:10703000ADF82E10401E00E015E0ADF8320003A8B8
:107040000DF0DAF860690390208BADF81800A07E8F
:107050008DF8260000970BAA03A9304623690CF08F
:1070600037FE0FB0F0BD28460BF023FA298800EB5D
:10707000D07001EB60000199C1F38A21A0EB5100AF
:10708000ADF8080028460BF0D6F9698800EBD070FF
:1070900001EB60010198A1EB9051C0F38A22ADF899
:1070A0000A10BDF80830521E1A4407EB5050ADF8D4
:1070B0000C200844ADF80E0002AA04A9304623694A
:1070C0000CF0C4FDCDE701992888C1F38A21ADF801
:1070D0000800491E084410E002AA04A930462369AA
:1070E0000CF0B4FD0198BDF80810C0F38A200144EB
:1070F000ADF80810BDF80C100844ADF80C00BDF94F
:107100000800B5F904108842E6DDBDF80A100198C0
:1071100001EB5051ADF80A10BDF80E1001EB5050C4
:10712000ADF80E00BDF90A00B5F906108842CADDB7
:1071300097E72DE9F041804691F8220086B00C4691
:107140001646022868D9208C002865D094F82300C0
:1071500010F03E0F60D0C0075ED110460BF0A9F9C9
:10716000074630460BF067F9B4F90050874200DA61
:107170003846B5EB600F00DD4510314604A80BF032
:1071800024F994F82300BDF91020C0F34401480706
:10719000B4F9200001D4284440421044ADF8100056
:1071A0000807BDF91420B4F9200001D42844404256
:1071B000101AADF8140094F82300BDF9121040081D
:1071C0008007B4F9200001D4284440420844ADF8B7
:1071D000120094F82300BDF916104008C007B4F956
:1071E000200001D128444042081AADF81600208C36
:1071F000281A01B2002900DA0021A27894F82200AE
:10720000CDE90202E08BADF8040000912B4604AA00
:107210003146404600F003F806B0BDE8F0812DE9A4
:10722000FF4FA3B01F46DDE9326ADDF8C080154686
:107230000C46FF2E00D3FF2608460DF025FA8146A6
:10724000384350EA08006DD023982146826803A88D
:10725000FBF766FC00286CD003A80BF02AF902901B
:107260001C2108A812F000F8029811F059FE0B90AA
:107270004FF0FF300090002F0ADD00233A462146F0
:1072800016A80DF06BFC002116A80DF00DF800906B
:107290000123424629461CA80DF060FC00211CA8D1
:1072A0000DF002F801900FA808900D90BDF8C400F1
:1072B0008DF83860ADF828008DF839A0B4F90000D9
:1072C000B5F900103844884200DC0846ADF850009B
:1072D000B4F90400B5F90410C01B884200DB08466D
:1072E000ADF85400B4F90200B5F9021038448842F0
:1072F00000DC0846ADF85200B4F90600B5F90610F6
:10730000C01B884200DB0846ADF8560014A80BF0FD
:10731000D0F80146B4F90200B5F9022090420BDC26
:1073200001200AE000962A462146319B239800F06E
:10733000D0F927B0BDE8F08F00208046B4F90600F0
:10734000B5F90620904201DB012600E00026B9F1E4
:10735000000F44D0BDF80C00ADF83C00BDF81000A3
:10736000ADF84000BDF90E4022E0B8F1000F03D1A6
:10737000BDF95200A0421ADC1EB9BDF95600A04268
:107380001ADB25B2ADF84250ADF83E5002990B9889
:1073900011F097FFBDF90C102A46029B0B980DF0D7
:1073A00035F98DF8300008A923980DF08CFE641C87
:1073B000BDF91200A042D8DA1CA80DF049F90198D5
:1073C0000DF076FC0098401C05D016A80DF040F991
:1073D00000980DF06DFC0B9811F0EEFDA9E7B4F9E3
:1073E0000000B5F90020904201DC012000E00020FF
:1073F0008146B4F90400B5F90420904201DB012074
:1074000000E00020824609EA0A0202EA08024FF080
:10741000010B324203D0322901DA4FF0000B012078
:107420008DF8300018EA0B0F12D0BDF85000ADF8FF
:107430003C00BDF85400ADF840006088ADF83E0057
:10744000688808A9401EADF8420023980DF03BFE65
:1074500016EA0B0F12D0BDF85000ADF83C00BDF895
:107460005400ADF84000E88808A9401CADF83E0083
:10747000E088ADF8420023980DF025FEB9F1000F29
:1074800012D02088ADF83C00288808A9401EADF82D
:107490004000BDF85200ADF83E00BDF85600ADF812
:1074A000420023980DF00FFEBAF1000F12D0A88809
:1074B00008A9401CADF83C00A088ADF84000BDF81C
:1074C0005200ADF83E00BDF85600ADF842002398DA
:1074D0000DF0F9FDBDF80C00BBF1000FADF83C005C
:1074E00008D0BDF95000BDF91010421E914248DA93
:1074F000084647E0BDF81000ADF84000B4F90200BE
:10750000B5F90210401AB84200DB07460FFA87F8B7
:10751000002533E06088284406B2E088401B07B2AB
:10752000BDF90E00B04203DDBDF91200B84224DB04
:1075300002990B9811F0C5FEBDF93C103246029B32
:107540000B980DF063F88DF83000BDF90E00B042D5
:1075500007DCADF83E60ADF8426008A923980DF055
:10756000B2FDBDF91200B84207DBADF83E70ADF8D0
:10757000427008A923980DF0A6FD6D1C4545C9DB96
:10758000A0E0401EADF840000FA80AF092FF051ED3
:1075900041DD59EA08001DD0BDF90E4016E027B2C2
:1075A000ADF84270ADF83E7029460B9811F089FE97
:1075B000BDF93C102B463A460B980DF027F88DF894
:1075C000300008A923980DF07EFD641CBDF952001F
:1075D000A042E4DC59EA06001DD0BDF9564015E092
:1075E00027B2ADF84270ADF83E7029460B9811F005
:1075F00068FEBDF93C102B463A460B980DF006F894
:107600008DF8300008A923980DF05DFDBDF912003A
:10761000641CA042E4DABDF95400BDF90C10421C10
:10762000914201DD084600E0401CADF83C00BDF889
:107630001000ADF840000FA80AF03BFF051E41DD29
:107640005AEA08001DD0BDF90E4016E027B2ADF889
:107650004270ADF83E7029460B9811F032FEBDF92C
:107660003C102B463A460B980CF0D0FF8DF83000BA
:1076700008A923980DF027FD641CBDF95200A04213
:10768000E4DC5AEA06001DD0BDF9564015E026B2EA
:10769000ADF84260ADF83E6029460B9811F011FE3E
:1076A000BDF93C102B4632460B980CF0AFFF8DF81D
:1076B000300008A923980DF006FDBDF91200641CE6
:1076C000A042E4DA1CA80CF0C3FF01980DF0F0FA18
:1076D0007BE62DE9FF478AB00C46824615461C2101
:1076E0006846169E11F0C0FD07A80090BDF8340052
:1076F000ADF808008DF81860B4F90200B5F9021071
:10770000884201DC012700E00027B4F90600B5F942
:107710000610884201DB012600E00026B4F90000D3
:10772000B5F90010884201DC012100E00021884603
:10773000B4F90410B5F90420914201DB012100E005
:107740000021ADF81C00A088ADF820006088ADF8DD
:107750001E0068888946401EADF822001FB16946A8
:1077600050460DF0B0FCE888401CADF81E00E088E3
:10777000ADF822001EB1694650460DF0A4FC2088E9
:10778000ADF81C002888401EADF8200017B1B5F9EF
:10779000020001E0B4F90200ADF81E0016B1B5F91F
:1077A000060001E0B4F90600ADF82200B8F1000FC0
:1077B00003D0694650460DF086FCA888401CADF801
:1077C0001C00A088ADF82000B9F1000F03D0694675
:1077D00050460DF078FC0EB0BDE8F0872DE9F04181
:1077E000284F064678680BF0DFFF04463068856B4B
:1077F000E96A09B128468847206850B1606828B90D
:1078000007E078680068816A01B18847206900282C
:10781000F7D10121216178680068C0688269D207C8
:1078200004D08069800701D5616101E000206061BA
:10783000606908B1012700E000273068416971B133
:10784000016911F0300F06D0490704D5D5E90010C1
:1078500000F01AF803E0D5E90021FEF791F820685E
:1078600000280BD06168002908D03268127CBA4326
:10787000D20703D1A268824202D1A160BDE8F081A3
:10788000A060FBE7480100202DE9F34F044686483D
:1078900087B041680D682869820701D5420770D416
:1078A000C0F3011002282AD0012801D0032868D192
:1078B0000020009008460BF077FF8346A0882188BF
:1078C000401A401C06B220460AF0A9FD4FF4A05110
:1078D000B1FBF6F20190824201DAB1FBF6F00390BF
:1078E000B4F902000290287CC0F30110012813D0E3
:1078F00020886080711E0844E0800027C4E0214693
:107900002846089A00F0DCF8089A09B02146284673
:10791000BDE8F04FFEF734B868882188401A401E51
:10792000E080801B401C6080E7E70399C01B884211
:1079300000DD08460FFA80F90120CBF810000FBBDC
:107940000198B0421EDB287CB146C0F30110032829
:1079500010D000204946089A00F0E6F8287CC0F3D1
:107960000110012808D029880298081A401EA0801A
:10797000801B54E00120EDE70298208002983044FB
:1079800063E08DE0009820B94FF4205011F0C8FA60
:107990000090287CC0F3011003281AD000208646EE
:1079A00000984946069006FB01F0401E0590701EA7
:1079B0004843DDF820C0049000208246884221DA46
:1079C0000498BEF1000F504401D0059A101A00220D
:1079D00012E00120E3E7069BBEF1000F03EB400835
:1079E00063460CF1020C1B88A8F8003001D0084453
:1079F00000E0401A521C12B2B242ECDB0AF1010064
:107A000000B2DAE7287CC0F30110012819D02988D8
:107A10000298081AC01B401EA080A0EB0900401C61
:107A2000208001984F44874212DBDBF81800C00722
:107A30000ED0DBF8180080070AD50120CBF814001F
:107A400009E00298384420804844401EA080E8E7BE
:107A50000021CBF81410009828B102462146284690
:107A6000FDF78EFF05E0089AF8E7A96A09B12846F4
:107A70008847DBF810000028F7D1089906FB09F0C9
:107A800001EB40003FB2089001988742FFF64DAFEE
:107A90000098002804D009B0BDE8F04F11F08CBA6E
:107AA00009B0BDE8F08F00004801002030B504881F
:107AB0000D88058010880880188810801C8030BDD3
:107AC000F8B506460C46888809881746401A401CB7
:107AD00005B220460AF0A3FC454300200CE007EB6A
:107AE000450107EB40020B88ADF80030B2F800C04A
:107AF000A1F800C01380401C6D1E8542EFD871882C
:107B00006288E088891A491EE1807188081A401E3F
:107B1000608031882288A088891A491EA180318816
:107B2000081A401E2080F8BD2DE9F0470C46164685
:107B30008246002701EBD47931E00025601C00EB80
:107B4000D07827E0E01B401E01B2601B401E00B24F
:107B5000BAF1000F0AD005FB041201FB040106EB89
:107B6000420300FB047006EB410209E000FB0472D3
:107B700001FB040006EB420306EB400205FB041088
:107B800006EB400107FB045006EB4000FFF78EFFB9
:107B90006D1C2DB2B5EB680FD4DB7F1C3FB2B7EB89
:107BA000690FCADBBDE8F0872DE9F0479CB00546B8
:107BB0000EF0AFF8044628460EF073F88246606A6D
:107BC00010F094FB054694F85000C00778D001A847
:107BD0000DF092F84FF4E02901AA4946204613F02F
:107BE000F4FD04F144010FA80AF00AFC606ABDF834
:107BF0003C10828A1144ADF83C10BDF83E10C08A9A
:107C00000FAA0844ADF83E00606ABDF84010808AB3
:107C10000844ADF84000606ABDF84210C08A0844CC
:107C2000ADF8420001A950460DF052F849462046F1
:107C300013F030FA06464946204613F0F4FA871945
:107C40004946204613F051FB4FF000081E490644F8
:107C5000CDF86480CDF86880E06C096828448847D6
:107C60000246E06C411919A811F024FABDF83C0055
:107C700040F257423844ADF83C00BDF83E00414662
:107C80003044ADF83E00606A13F036FB054611A89B
:107C90000CF0B2FA11AA4946204613F0F5FC9DF803
:107CA0000700022804D8BDF85000A9B2884207D0C6
:107CB00019AB0FAA11A95046CDF800800CF008F8B6
:107CC0001CB0BDE8F0870000500200202DE9F14F04
:107CD00094B014980DF0DFFF064614980EF019F8D2
:107CE0000446122E7ED0152E01D0182E7BD10021F5
:107CF00013F0C8FBE18E41430F120021204613F020
:107D0000ACFB218E01EB000A204613F0ECFB049043
:107D1000204612F08CFC03902046002141F23202F2
:107D200013F0EAFA05462046002141F6120213F04C
:107D3000E3FA28440FFA80F92046002141F61302A5
:107D400013F0DAFA284400B202902046002141F6EE
:107D5000100213F0D1FA28440FFA80F820460021CF
:107D600041F6110213F0C8FA2844618E0FFA80FB25
:107D700001EB0900ADF84400A18E01EB0800ADF85D
:107D8000460094F8390000F0030001287DD011A9C5
:107D9000B8B2CDE90001DDE903210FFA8AF307A8A3
:107DA000FBF706F9BDF81C10A08A0844ADF81C00CA
:107DB000BDF81E10E08A0844ADF81E00BDF8201082
:107DC000A08A0844ADF82000BDF82210E08A0844DB
:107DD000ADF8220004F114010D4612A801910AF039
:107DE00006FB01E06BE067E007A928460AF0FFFA0E
:107DF000CE48149912F033FB01285DD112A90198E5
:107E00000AF0F5FA152E57D1E08D002854D0A08D38
:107E1000002851D0002F4FD014980DF042FF064695
:107E200003A801990AF0E3FA20460FF06FFB05461C
:107E300094F8390000F0030001287DD0BDF820003F
:107E4000BDF81C10401ABDF80C100844ADF8100025
:107E5000BDF82200BDF81E10401ABDF80E100844EF
:107E6000BDF80C10ADF8120001EB0900ADF80C00E4
:107E7000BDF80E1001EB0800ADF80E00BDF81010B3
:107E80000298081AADF8100000E088E0BDF8121062
:107E9000A1EB0B00ADF8120094F8380000F00301DC
:107EA000012976D0800774D0022973D000231946A7
:107EB0003046019A0BF0CAFE15B0BDE8F08F149859
:107EC0000DF025FF054600780228F5D094F838001B
:107ED0004FF00106C143890759D000F00301022980
:107EE00055D0C0F38400042801D001284FD120468A
:107EF0000021462213F000FAC0B2FF2847D100212A
:107F0000204613F0AAFA218EC14240D1002120461A
:107F100013F0B8FAE18E41430F1214980DF0F7FEFA
:107F20008046B7F5807F36D0204612F080FB814630
:107F3000204613F0D8FA00E036E0014604F13202A0
:107F4000B8B2CDE9000200234A4602A8FBF730F898
:107F5000BDF80800A18A00220844ADF80800BDF869
:107F60000A00E18A0844ADF80A00BDF80C00A18AB5
:107F70000844ADF80C00BDF80E00E18A0844ADF8E5
:107F80000E0002A94046FAF7F3FD002894D12E70A6
:107F900092E734E0B9E0002204F11401F3E707A905
:107FA000204612F00CFB15E7B4F92C0029B2401A58
:107FB000BDF80C10401C00EBD070A1EB6001ADF8D7
:107FC0000C10BDF81010BDF80E20A1EB6000ADF84C
:107FD0001000B4F92E002914401A401C00EBD07098
:107FE000A2EB6000ADF80E00B4F92E00401ABDF807
:107FF0001210401C00EBD070A1EB600030E709A824
:108000000BF04CFE09AA0021204613F0F5FAADF85A
:108010002670ADF824A0608EADF82800A08EADF8D3
:108020002A0094F83800BDF81C10C0098DF83800FB
:1080300001EB0900BDF81E10ADF8140001EB0800BB
:10804000ADF81600BDF82010029805AA081ABDF870
:108050002210ADF81800A1EB0B00ADF81A00B768BC
:1080600010463946FAF75CFD002891D005A8B060AB
:10807000BDF90E10608D084400B2ADF802008842D0
:1080800003DDE18D401AADF80200E18D80B20844B5
:10809000401E30E0BDF90C10208D084400B2ADF850
:1080A0000000884203DDA18D401AADF80000A18DCB
:1080B00080B20844401E0DE06A4609A93046636A52
:1080C0000BF0C4FDBDF800002844ADF80000BDF879
:1080D00004002844ADF80400BDF90000BDF91010FB
:1080E0008842E9DBBDF8021028140144ADF8021003
:1080F000BDF806100844ADF80600BDF90200BDF950
:1081000012108842C6DBB760D6E609A80CF074F8F6
:1081100009AA0021204613F0B7FA00200090636AF4
:1081200009A93046019A0BF0D3FDC5E644BD02080B
:108130002DE9FF4F95B0987B8A7E00F00F04DDF8A3
:1081400088800D46032C00D10424012C19D0022C68
:108150001FD0042C25D0082C7ED1DFF88C924FF054
:10816000FF0A6101FD2A34D2DFF880C29CF80000CA
:10817000904203D1DCF80400A04224D000209C4FA0
:108180001FE0DFF864924FF0800AA9F1160902217E
:10819000E8E7DFF854924FF0C00AA9F1140904216E
:1081A000E0E7DFF844924FF0F00AA9F1100910213E
:1081B000D8E719F80060FF2E1BD05643360A3E540C
:1081C000401C8842F5D3DFF828928CF80020CCF8C8
:1081D00004401798DE880996B0F900101598B3F896
:1081E00008B066438068B0F90020914203DB0022AA
:1081F00002E01646E3E7521A0A92099A8B18B0F980
:108200000420934201DC099901E0511A491C0B91A9
:108210001799B0F90220B1F90210914201DB002256
:1082200000E0521A0E92B0F9060001EB0B028242F6
:1082300001DC584601E0401A401C0F900E980A9944
:10824000704301FB040008EBD00700F007061C2177
:10825000684611F009F800E0C3E0A889ADF808000D
:10826000A87E8DF81800A87FC0F3C2008DF8190011
:10827000FBF708FF0BF09CFA099901FB0BF1814217
:1082800000DC0846109010F04BFE834603901798D0
:10829000002501880A9801441798ADF81C1002883F
:1082A0000B98401E0244ADF82020179843880E9882
:1082B0001844531A5B1CADF81E001BB21193ADF8A5
:1082C0003010ADF822000F99ADF83200ADF834202F
:1082D0000844ADF836000CA80CF0D6F9139007A8A6
:1082E00000900590C4F108001290DDE909100144E6
:1082F0000B98081A604314900E985BE02B462AFAFC
:1083000006F04FF0000C0A991AE03A78DDF8488040
:108310000240A8EB060832FA08F204D019F80280ED
:108320000BF8058001E00BF805C0129A964202D2C4
:108330002644E04002E0002650467F1C491C6D1C8C
:108340000B9A9142E1DB139880B10BEB0300BDF96E
:108350002220BDF91C108046119B0CF057F98DF8B6
:10836000100018B94046119910F07EFFDDE90A109F
:10837000401A41191098814205D2BDF82200401CD4
:10838000ADF822000EE002208DF810006946159825
:108390000CF099FEBDF82200401CADF81E00ADF8AF
:1083A000220000251498304407EBD00700F00706A0
:1083B0000998401C0F99099088429FDBBDF91E1057
:1083C000BDF92200814209D0401EADF822000220F2
:1083D0008DF81000694615980CF075FE584610F09F
:1083E000EBFD19B0BDE8F08FDE7F02085C010020D4
:1083F000946C00202DE9F04F8346B1F902000C4641
:10840000401E411000F001004618B2F90000B3F917
:10841000005089B0A84200DB2846ADF80000B2F950
:108420000000B3F90030984200DC1846401EADF859
:1084300004005088801BADF8020050880844ADF855
:10844000060069460846DBF80820FAF769FB0028B1
:1084500022D0E08818B1A08808B1012000E00020F7
:108460008046012668460CF00FF910B9B8F1000FEC
:1084700000D000261C2102A810F0F6FECDF808D08E
:108480002088ADF81000207A6D468DF8200036B1B6
:1084900002A958460CF017FE09B0BDE8F08FBDF8F0
:1084A0000410BDF90000BDF906A0091A491C0EB25E
:1084B000BDF80210ADF806104FF00009B8F1000F3A
:1084C00008D0B4F90610B4F90420114490FBF1F27D
:1084D00001FB1209304610F023FD07950590074671
:1084E000BDF902503EE03146384610F0EAFEBDF9D3
:1084F000001033462AB238460CF088F88DF8180080
:10850000B8F1000F1FD0F0B1002148460B4615E02E
:10851000B4F90420824205DB121A1144104409B256
:1085200000B207E0B4F906C06244824201DC0020D8
:1085300000E07B54491C401C09B200B2B142E7DBA9
:1085400002208DF8180002A958460CF0BCFDBDF8B9
:108550000200401CADF80200BDF80600401CADF85A
:1085600006006D1C5545BEDD384610F025FD93E72D
:108570002DE9FF4FB2F90250B3F90240BBB0A5425A
:1085800008DA128865F31F4062F30F0064F31F419D
:108590001A8807E01B8864F31F40128865F31F41A7
:1085A00063F30F0062F30F010FFA81F906B20714AB
:1085B000A9EB06044FEA214AAAEB07053791002CE4
:1085C00001DD204600E06042002D01DD294600E08B
:1085D0006942884201DD012000E0002000903C98C3
:1085E000B0F90210009858B1002D01DD284600E0D6
:1085F00068424201002C01DD20460CE060420AE0A6
:10860000002C01DD204600E060424201002D01DD2A
:10861000284600E0684292FBF0F0AB4A105C484309
:108620003F30C0114FEA600800F0010202EB080B76
:1086300049464E4500DA3146A1EB0001ADF8601025
:1086400001DD314600E049460144ADF86410514671
:10865000574500DA3946A1EB0001ADF8621001DDA3
:10866000394600E051460844ADF866003B9818A929
:1086700082680846FAF754FA00287DD00098002155
:1086800000287AD0002C16DDAAEB080000B2CDE954
:108690000001A7EB080002B24B46314602A80CF0DD
:1086A00091F80AEB0B00012100B2CDE900014B4625
:1086B00007EB0B0015E00AEB0B0000B2CDE900015F
:1086C00007EB0B0002B24B46314602A80CF07AF8D9
:1086D000AAEB0800012100B2CDE900014B46A7EB4F
:1086E000080002B231460DA80CF06CF8002102A877
:1086F0000BF0DAFD399000210DA80BF0D5FD389074
:108700004FF0FF30804600903C98407AC00623D45A
:108710003819032100B2CDE90001701B03B23A46BB
:10872000314621A80CF04EF8379902200A1411198D
:1087300009B2CDE90010379801B2481B03B22CA84A
:108740000CF040F8002121A80BF0AEFD00900021B4
:108750002CA80BF0A9FD8046BDF86400BDF86010A0
:10876000401A401C06B2FBF78DFC0BF021F80446C2
:1087700018A809F078FE01E0A2E029E0A04203D2A7
:1087800018A809F070FE0446A146204610F0C8FB68
:108790008246BDF966B0BDF86200ADF866000024FF
:1087A0004946504610F08DFD1C211AA810F05CFDC2
:1087B0003C9818A91A910088ADF870003C98007A8E
:1087C000CDF874A08DF880001F91BDF9625044E08F
:1087D00009EB0B00CDE900A103B206EB0B0001B2DF
:1087E0003A4602A80BF0EEFF0121A9EB0800CDE903
:1087F00000A103B2A6EB080001B23A4673E70AEB08
:108800000400BDF96010074633462AB20BF0FEFEA5
:108810008DF8780018B93846314610F025FD3444FB
:10882000A119494505D2BDF86600401CADF86600A7
:1088300012E002208DF878001AA93B980CF043FC56
:10884000BDF866000024401CADF86200ADF866007B
:108850004946504610F035FD6D1C5D45CFDDBDF934
:108860006210BDF96600814209D0401EADF8660075
:1088700002208DF878001AA93B980CF024FC504691
:1088800010F09AFB02A80BF0E3FE0DA80BF0E0FE3F
:108890000098401C02D021A80BF0DAFEB8F1FF3F8F
:1088A00002D02CA80BF0D4FE39980CF001FA3898BD
:1088B0000CF0FEF900980CF0FBF940460CF0F8F9CA
:1088C0003FB0BDE8F08F0000DE8002082DE9F04FD8
:1088D0008346B1F902000C46401E411000F0010031
:1088E000158889B00844281AADF80000108808449B
:1088F000ADF80400B2F90200B3F90210884200DBBF
:108900000846ADF80200B2F90200B3F9021088423D
:1089100000DC0846401EADF8060069460846DBF854
:108920000820FAF7FDF800281FD0E08818B1A088C9
:1089300008B1012700E00027012568460BF0A4FEDE
:1089400000B907B100251C2102A810F08DFCCDF85C
:1089500008D02088ADF81000207A6E468DF82000EF
:1089600035B102A958460CF0AEFB09B0BDE8F08F56
:10897000BDF80400BDF80010BDF90690401A401C77
:108980000FFA80F8BDF80200ADF80600404610F07E
:10899000C7FA824600250796059057B1B4F906003C
:1089A000B4F904100844BDF9021091FBF0F200FB89
:1089B0001215BDF902602EE04146504610F081FCD0
:1089C000BDF90010434632B250460BF01FFE8DF841
:1089D00018008FB170B1B4F90400A84202DA002087
:1089E0008DF81800B4F90600B4F904100844A84240
:1089F00000DC00256D1C2DB202A958460CF063FB6B
:108A0000BDF80200401CADF80200BDF80600401C95
:108A1000ADF80600761C4E45CEDD504610F0CCFA7F
:108A2000A3E700002DE9F04FCDB005460DF071F938
:108A30000446008E00287CD028460DF032F945907F
:108A4000608C40F004016184204643A911F0B7FD19
:108A50000026B4F820802684608C374640F004015C
:108A6000354661842DA80CF047F93BA80BF0C4FBF8
:108A70004FF4A0292DAA4946204612F0A6FE3BAA93
:108A80004946204612F000FE608C20F0040161840B
:108A9000A4F820800021204612F020FC4C900021F8
:108AA000204612F081FB4B900021204612F0B4FBCF
:108AB0004A900021204612F0D9FB499011A845990F
:108AC00011F022FBB248CDE9120503A8159025A8A4
:108AD000CDF87890169050E17F1CBFB2606AADA1CE
:108AE00050F82700F7F75AFF0028F5D0E06A30F871
:108AF0001600C0F3C001002976D10025C0F3C011D3
:108B000001B10125C0F3401010B145F0800518E017
:108B1000A08EB04215D15FEA886001D545F02005EE
:108B20005FEA887001D545F002055FEA487003D519
:108B300000E02AE145F004055FEA087001D545F040
:108B40000805A06A00EBC60123A809F047FCBDF8A0
:108B50008C10BDF80C010144ADF88C10BDF88E20CE
:108B6000BDF80E110A44ADF88E20BDF890201044D7
:108B7000ADF89000BDF892000844ADF8920045B3FE
:108B80002584608C40F00401618403A80CF0B4F8E3
:108B900025A80BF031FB4FF4A02903AA4946204633
:108BA00012F013FE25AA4946204612F06DFDA4F8E6
:108BB0002080608C20F004016184E06A30F81600A7
:108BC000C0F3003000289DF8B1000ED040F0010045
:108BD0000DE038222DA903A810F06CFA20223BA941
:108BE00025A810F067FAE8E7C3E020F001008DF84F
:108BF000B10023A8149011AA1A211F9620460DF047
:108C00008BF89DF82F004108C9063CD520F03E00A6
:108C10001E308DF82F00B4F914304A99BDF98C201C
:108C200019448A4203D120F008008DF82F00B4F9CE
:108C300018204998BDF99010101A814205D19DF86D
:108C40002F0020F010008DF82F00B4F916204C985A
:108C5000BDF98E101044814205D19DF82F0020F0FF
:108C600004008DF82F00B4F91A204B98BDF992102A
:108C7000101A814207D19DF82F008108490061F345
:108C800045008DF82F00BDF89210BDF98E00091A2D
:108C9000491C0FFA81F9A90608D5E16A31F81610C6
:108CA000890503D5A0EB0900ADF88E0023AA03A91E
:108CB00045980CF00DF825984890606ABDF9A8B069
:108CC000BDF9A6A050F82700469043A809F009FC7A
:108CD0009DF8B120CDF800A0CDE901025B4647A880
:108CE000489A469916F078F823A809F0FAFBBDF9DE
:108CF0001C31BDF88C10C01A00EBD07001EB600184
:108D0000ADF88C10BDF89200BDF88EC0BDF91E21E3
:108D1000A0EB0C00401C00B2801A00EBD0700CEBF2
:108D2000600000B21944ADF8901081180AB2ADF895
:108D30008E00ADF89220A9060ED5E16A31F8161022
:108D4000890509D509EBD971A0EB6100ADF88E005A
:108D5000A2EB6100ADF892000020009023AA25A9A3
:108D6000469B45980AF0B4FF11AA1B2120460CF03F
:108D7000D3FF761C7F1CB6B2BFB2208EB0423FF646
:108D8000ADAE608C20F0040060844DB0BDE8F08F83
:108D90000CBD02080A0000002DE9F04790B005461E
:108DA0000CF0B7FF044628460CF07BFF06460BA9E3
:108DB000204611F0A0FB94F848000025C10600D51C
:108DC0000125800601D545F002050021204612F05C
:108DD00075FBA0F51C51D13904D1608C400501D43C
:108DE00045F0040503A80BF007FAB4F84400ADF809
:108DF0002200B4F84600ADF824008DF8295003AAEB
:108E00000021204612F040FC9DF82800012708B9F7
:108E10008DF82870E06B0490206C059004994FF653
:108E2000FF70814219D00599814216D04FF48028F5
:108E3000204644F25742414612F05EFA0090BDF8D7
:108E40000000ADF81A0020462022414612F054FAE4
:108E50000090BDF80000ADF81C0094F8480041F601
:108E6000FF7A00F00700022801D003281AD19DF8EC
:108E70002800022801D0032814D1BDF91E10CDE925
:108E8000001A0295BDF92030039A0DA8616A15F009
:108E9000A3FF0BA809F02BFBBDF93410884201DABF
:108EA0008DF8287094F8480004F1300700F00700AE
:108EB000032805D00BA809F0D0FAB0F5806F00DACE
:108EC00000270BA90EA8B268F9F72AFE00287DD06A
:108ED00094F8480040070BD1204611F019FD40429C
:108EE00002B200210BA809F015FB608BADF832002F
:108EF00094F848000DF1380900F00700022813D05B
:108F0000032811D000970BAA03A93046636A0AF020
:108F1000DFFEB068C6F80890804694F8480000F07C
:108F2000070003280FD058E0D6F80880C6F808904C
:108F300000970BAA03A93046636A0AF0C9FE4046AF
:108F4000C6F80880E6E7BDF91E10CDE9001A0295C3
:108F5000BDF92030039A0DA8616A15F03DFF0BA8FA
:108F600009F0C5FABDF93410884219DA20221146F9
:108F700003980CF0AAFFB4F84410BDF8342000EBBD
:108F8000400011440844ADF82200B4F84600ADF8A2
:108F9000240000970BAA03A93046636A0AF098FEE2
:108FA0000BA809F05AFA0146BDF93600814214DADD
:108FB000B4F84410ADF822100399B4F8462009899A
:108FC00010440844ADF82400009700E007E00BAA25
:108FD00003A93046636A0AF07BFEC6F8088010B029
:108FE000BDE8F0872DE9F04F82460446A1B08B46DC
:108FF0001546104609F069FA00EBD0704710288832
:109000003844ADF8700068883844ADF8720019A88B
:109010000BF02AF94FF4A02519AA2946504612F060
:1090200081FB13A80AF03AFE13AA2946504612F013
:10903000E3FA0021504612F07FF80646594601A88F
:1090400011F062F85E4802901CA80A9004F130000A
:109050001F90FAF7C7FDACE025681294207901282B
:1090600001D098B3A1E0B5F92030E88B1844009006
:10907000D5E90512E0680FF015FFA98B628A00B2EE
:10908000114439440DB2804615F0DAFD684347F6C5
:10909000FF7990FBF9F0BDF872100844ADF8760046
:1090A000404615F0C9FD684390FBF9F0BDF870101B
:1090B0000844ADF87400A08AADF86400208AADF8C9
:1090C00066006079FD2802D9304602E015E0704361
:1090D000000A8DF86C0001200F9019A807901DA8B8
:1090E0000B9001AA1A2150460CF016FE1DAB1CAACB
:1090F00019A958460BF0ABF852E02069F0B3B5F966
:109100002030E88B18440090D5E90512E0680FF094
:10911000C9FE054620A920690EF034F8BDF870009C
:10912000A18A401AADF87400BDF87210E28A891A5B
:10913000209AADF87610C2F38A235B1E1844ADF86E
:1091400078004FF0FF3000EB52500844ADF87A0041
:109150006079FD2801D9304601E07043000A8DF89E
:109160005700A08AADF85000E08AADF8520005EB38
:1091700085004000B0F5616F03DD00E015E0A0F56B
:109180006160ADF84C0013A8089001AA1A2150465E
:109190000CF0C2FD1DAA13A9584623690AF056FD1A
:1091A00001AA1B2150460CF0B7FD21461F98FAF783
:1091B00016FD04007FF450AF21B0BDE8F08F000031
:1091C0002485020870B5054691F82A0088B00C463F
:1091D000022858D9E18C002955D0114604A809F07D
:1091E000F4F8218DBDF81000491E401AADF81000AA
:1091F000BDF81200401AADF81200BDF81400084482
:10920000ADF81400BDF816000844ADF8160004A926
:1092100006A809F0DAF8BDF81810E08C091AADF8C4
:109220001810BDF81C100844ADF81C00BDF81A0059
:10923000E18C401AADF81A00BDF81E00E18C08441C
:10924000ADF81E0004A809F034F9064604A809F098
:10925000F2F8B4F90010864200DA3046B1EB600F44
:1092600000DD4110E08CA278084403B294F82A0093
:10927000CDE90202A08CADF80400009104AA06A971
:109280002846FDF7CCFF08B070BD2DE9F0418CB049
:1092900005460CF03EFD044628460CF002FD8046D3
:1092A000606A0FF023F8007800283BD1A06A0028FC
:1092B00038D00078002835D001A80AF09DFF01AA17
:1092C0004FF40021204612F0DFF994F85C0000070B
:1092D00005D59DF8210040F002008DF82100002105
:1092E000204611F0A0FF07460021204611F0FDFFA7
:1092F00006460021204611F0CDFE054604F114017A
:1093000009A809F07DF8701902B2781901B209A80C
:1093100009F000F90020009009AA01A94046A36ABB
:109320000AF0D6FC0CB0BDE8F0817CB5044680693B
:1093300061896D468668A08961B1002865D0814247
:1093400003D12289E3889A427CD302297BD0032966
:109350007AD0AFE010BBE088218988421ED2B4F9F0
:10936000060015F06DFCB4F90410B4F90E20891A4A
:1093700048432168498801EBE030ADF80200E088FD
:109380005A3000B215F05CFCB4F90410484321686F
:10939000098801EBE030ADF8040040E02068008867
:1093A000ADF800002068A18840880844ADF80600A8
:1093B000B4F9060015F044FCB4F90410B4F90E2019
:1093C000891A48432168498801EBE030ADF8020072
:1093D000E0885A3000B215F033FCB4F9041032467C
:1093E00048432168098801EBE030ADF80400694684
:1093F0000846F9F795FB30B1A0696A468560216996
:10940000A0690BF065FCA08970BB2068A18800886A
:109410000844ADF8040020684088ADF80200B4F9B3
:10942000080015F00DFCB4F9041048432168498880
:1094300001EBE030ADF8060020895A3000B215F09B
:10944000FFFB02E015E012E00FE0B4F90410B4F9FC
:109450000E20891A484321683246098801EBE03022
:10946000ADF8000069461AE024E0022801D0012886
:1094700020D1206832460088ADF80000206840887E
:10948000ADF802002068A18800880844ADF8040007
:109490002068A18840880844ADF80600294608469F
:1094A000F9F73EFB30B1A0696A4685602169A06981
:1094B0000BF00EFCA06986607CBD7CB5044680691B
:1094C00061896D468668A08901290CD0012867D082
:1094D000814203D12289E3889A427ED300297DD03C
:1094E00003297CD0B5E0012822D1E0882189884277
:1094F0001ED2B4F9060015F0A3FBB4F904104843DA
:109500002168498801EBE030ADF80600E0885A3068
:1095100000B215F095FBB4F90410B4F90E20891AC5
:1095200048432168098801EBE030ADF8040042E0CF
:109530002068A1880088401AADF8000020684088A3
:10954000ADF80200B4F9060015F07AFBB4F9041086
:1095500048432168498801EBE030ADF80600E08817
:109560005A3000B215F06CFBB4F90410B4F90E20B7
:10957000891A484321683246098801EBE030ADF88A
:10958000040069460846F9F7CBFA30B1A0696A468B
:1095900085602169A0690BF09BFBA089012858D147
:1095A00020680088401EADF804002068A18840882B
:1095B0000844ADF80600B4F9080015F041FBB4F911
:1095C0000410B4F90E20891A48432168498801EB38
:1095D000E030ADF80200208902E018E010E014E06D
:1095E0005A3000B215F02CFBB4F90410324648434F
:1095F0002168098801EBE030ADF8000069461DE004
:10960000022804D0032802D023E0022821D12068B8
:10961000A18832460088401AADF8000020684088D2
:10962000ADF8020020680088401EADF804002068F4
:10963000A18840880844ADF8060029460846F9F795
:109640006FFA30B1A0696A4685602169A0690BF0A4
:109650003FFBA06986607CBD7CB50446806961895A
:109660006D468668A08902290CD002287ED08142EE
:1096700003D12289E3889A4279D3002978D001293D
:1096800077D0D4E002283FD1E088218988423BD2BC
:109690005A3000B215F0D4FAB4F9041048432168E6
:1096A000098801EBE030ADF80000B4F9060015F0D0
:1096B000C7FAB4F90410B4F90E20891A4843216896
:1096C000498801EBE030ADF80600B4F9080015F068
:1096D000B7FAB4F9041048432168498801EBE03037
:1096E000ADF8020020895A3000B215F0A9FAB4F999
:1096F0000410B4F90E20891A48432168098801EB47
:10970000E030ADF8040066E020680088401EADF847
:1097100004002068A1884088401AADF80200E08863
:109720005A3000B215F08CFAB4F90410484321689D
:10973000098801EBE030ADF80000B4F9060015F03F
:109740007FFAB4F90410B4F90E20891A484321684D
:109750003246498801EBE030ADF80600694608461C
:10976000F9F7DEF958B1A069856003E00AE03BE053
:1097700034E036E06A462169A0690BF0A9FAA089B5
:10978000022854D12068A1880088401AADF8000052
:1097900020684088401EADF8060020895A3000B28B
:1097A00015F04EFAB4F90410B4F90E20891A4843A2
:1097B0002168098801EBE030ADF80400B4F9080035
:1097C00015F03EFAB4F9041048432168498801EBCA
:1097D000E030ADF80200324669461DE0032803D0B0
:1097E00025E0032800D010BB2068A18832460088FD
:1097F000401AADF800002068A1884088401AADF8F2
:109800000200206829460088401EADF80400206848
:109810004088401EADF806000846F9F781F930B1DE
:10982000A0696A4685602169A0690BF051FAA069B8
:1098300086607CBD7CB50446806961896D4686681A
:10984000A08903290ED0032867D0814203D1228941
:10985000E3889A427ED302297DD001297CD0022957
:109860007BD0B1E003281FD1E088218988421BD238
:109870005A3000B215F0E4F9B4F90410B4F90E202E
:10988000891A48432168098801EBE030ADF80000EF
:10989000B4F9060015F0D4F9B4F90410484321686E
:1098A000498801EBE03040E02068A1880088084446
:1098B000ADF8040020684088401EADF80600E0883E
:1098C0005A3000B215F0BCF9B4F90410B4F90E2006
:1098D000891A48432168098801EBE030ADF800009F
:1098E000B4F9060015F0ACF9B4F904103246484357
:1098F0002168498801EBE030ADF80200694608466E
:10990000F9F70EF930B1A0696A4685602169A0694E
:109910000BF0DEF9A089032856D120680088ADF845
:1099200000002068A1884088401AADF80200208914
:109930005A3000B215F084F9B4F904104843216894
:10994000098801EBE030ADF80400B4F9080015F027
:1099500077F903E016E010E013E00FE0B4F904102B
:10996000B4F90E20891A484321683246498801EB30
:10997000E030ADF8060069461BE018B1012801D0BF
:1099800022E008BB206832460088ADF8000020685D
:10999000A1884088401AADF802002068A18800889C
:1099A0000844ADF80400206829464088401EADF800
:1099B00006000846F9F7B4F830B1A0696A46856038
:1099C0002169A0690BF084F9A06986607CBD000064
:1099D00070B5A4B00C46054622AA20A910F0ADFF30
:1099E00020A808F040FD20B922A808F03CFD00287E
:1099F0003ED012A9284617F045FA012838D1214651
:109A0000684610F081FB1B4801900220029012A8CA
:109A100004904FF480300D9020A808F024FD80B110
:109A200020A803906A461A2128460CF075F920AA4E
:109A300012A920460BF04CF96A461B2128460CF06F
:109A40006BF922A808F00FFD002811D022AE6A465B
:109A50001A21284603960CF05FF922AA12A9204683
:109A600003960BF035F96A461B2128460CF054F991
:109A700024B070BDA47F02082DE9F74FB1F92E0084
:109A8000A2B014460D46002872D095F8361002296F
:109A90006ED9012808D1B5F93400002804DC288EDD
:109AA00010B9688E0028EFD02088298EAA8E08442D
:109AB000801AADF82000A38819441144ADF8241091
:109AC00062886B8E1A44AB8ED21AADF82220E388DE
:109AD0006E8E3344AE8E3344ADF82630B5F92E6029
:109AE00006EBD676A0EB6600401EADF828000120FC
:109AF00000EB66063144ADF82C10B5F92E1001EBE1
:109B0000D171A2EB6101491EADF82A10B5F92E10F2
:109B100001EBD17100EB61001844ADF82E0095F80F
:109B200036000D90FD2801D9FF200D9022980AA93A
:109B3000826820A8F8F7F4FF0028A5D0214603A8E2
:109B400008F043FC4FF0FF3739463A4603A808F0C7
:109B5000D4FCB5F9009003A808F0ABFC044603A8B8
:109B600008F069FC844203A803DA08F0A2FC02E0D2
:109B7000FEE308F060FCB9EB600F01DD4FEA60091D
:109B8000B5F9006008A808F094FC044608A808F09D
:109B900052FC844208A802DA08F08BFC01E008F0CD
:109BA0004AFCB6EB600F00DD4610B5F92E008419B3
:109BB00004FB04F040000FF0B3F900900146B5F942
:109BC0002E20334608A817F0B0FA0AA80AF05CFD68
:109BD000012620B9E878FF2801D3A87800B1002633
:109BE0001F9756B901234A4603A912A80AF0B6FFE7
:109BF000002112A80AF058FB1F900AA808F059FC8F
:109C00000FF08EF983461C2118A80FF02DFB01A838
:109C10001890CDF86CB01D90A88DADF8680095F83F
:109C200036008DF87800A8788DF879000AA808F039
:109C300040FCBDF8281000EBD07001EB60000FFA7B
:109C400080FA0AA808F0F7FBBDF82A1000EBD070E4
:109C500001EB600007B2BDF82C00ADF80800001B56
:109C6000401C00B2621EADF80400ADF806101144AD
:109C70000C9209B2ADF80A105246504500DC10466D
:109C8000ADF80400B94200DB39462298ADF80A105D
:109C900001A9826805A8F8F743FFC0B34A4603A9A3
:109CA00005A8F8F765FF90BB05A808F002FCBDF910
:109CB0001610BDF92A200E90891A0098BDF92C20A3
:109CC00001FB0400BDF91410121B891A0844401E40
:109CD000119046B14A4603A905A8F8F7B9FF10B19B
:109CE0000120079000E007960E98002827DDBDF8B8
:109CF0001400ADF80400CDF86CB0BDF81800ADF854
:109D0000080002208DF87000BDF9168013E016E0FF
:109D1000ADF80A800798ADF80680E8B311981B905B
:109D200018A922980BF0CFF911982044119008F14E
:109D300001000FFA80F8BDF91A104145E8DABDF8C4
:109D40002C00ADF80800001B401C00B2ADF8040068
:109D5000BDF82E20ADF80A20111B491C09B2ADF840
:109D600006105246504500DC1046ADF80400781C41
:109D70000F90814200DC791C2298ADF8061001A9F1
:109D8000826805A8F8F7CCFED0B34A4603A905A817
:109D9000F8F7EEFEA8B15FE0FFE7224658461199BA
:109DA0000FF088F9BDF91410424658460E9B0AF090
:109DB0002DFC8DF870000128B2D102208DF87000C2
:109DC000AEE705A808F075FBBDF90A10BDF91A2029
:109DD0000E90891A0098BDF92C2001FB0400BDF9F2
:109DE0001410121B891A0844401E11904EB14A46A5
:109DF00003A905A8F8F72CFF18B10120079001E08E
:109E00002AE007960E98002826DDBDF81400ADF86C
:109E10000400CDF86CB0BDF81800ADF808000220C1
:109E20008DF87000BDF91A8012E0ADF80A8007982D
:109E3000ADF80680B0B311981B9018A922980BF0CA
:109E400042F9119820441190A8F101000FFA80F80E
:109E5000BDF916104145E8DDBDF828002044ADF8F5
:109E60000400BDF82C00001BADF80800BDF82A0066
:109E70000C99ADF80600084400B2ADF80A00B842EB
:109E800000DB3846ADF80A00229801A9826805A8CF
:109E9000F8F746FE90B34A4603A905A8F8F768FE0E
:109EA000A8B177E0FFE72246584611990FF002F972
:109EB000BDF91410424658460E9B0AF0A7FB8DF8D8
:109EC00070000128B9D102208DF87000B5E705A80F
:109ED00008F0EFFA0E90BDF91610BDF906200098B3
:109EE000891A01FB040011904EB14A4603A905A846
:109EF000F8F7AEFE18B10120079001E04AE007969E
:109F00000E98002846DD079860B100201B90BDF830
:109F10001400ADF80400BDF81800ADF80800BDF954
:109F2000160032E0CDF86CB0F1E7ADF80A80079882
:109F3000ADF8068058B10D98FF281198007803D02D
:109F400095F836104843000A8DF8780013E0119810
:109F50000E9A017858460FF056F9BDF91410424692
:109F600058460E9B0AF052FB8DF87000012802D172
:109F700002208DF8700018A922980BF0A4F811980F
:109F80002044119008F1010000B2BDF91A1080467A
:109F90004145CADA95F836008DF87800BDF82800FA
:109FA0002044ADF80400BDF82C00BDF82E10001BB5
:109FB000ADF80800081B401CADF80A1000B20F995C
:109FC000ADF80600884200DC781CADF80600229847
:109FD00001A9826805A8F8F7A3FDE8B34A4603A9DA
:109FE00005A8F8F7C5FDB8BB05A808F062FA079008
:109FF000BDF90A10BDF91A200098891A01FB040066
:10A0000011900798002854DD2EB14A4603A905A8EF
:10A01000F8F71EFE00B966B100201B90BDF81400D1
:10A02000ADF80400BDF81800ADF80800BDF91A003D
:10A030003AE0CDF86CB0F1E7ADF80680ADF80A80F3
:10A040002EB14A4603A905A8F8F702FE00B96EB181
:10A050000D98FF28119800E02BE0007803D095F8C8
:10A0600036104843000A8DF8780013E01198079ADB
:10A07000017858460FF0C7F8BDF91410424658460B
:10A08000079B0AF0C3FA8DF87000012802D1022064
:10A090008DF8700018A922980BF015F8119820443B
:10A0A0001190A8F1010000B2BDF91610804641459B
:10A0B000C2DD95F836008DF87800BDF82C00ADF8BB
:10A0C0000800011BBDF82A00491C09B22044ADF864
:10A0D000041000B2ADF80600BDF82E200F9B121B35
:10A0E00012B2ADF80A20984200DB781CADF80600E9
:10A0F000BA4200DC3A46ADF80A205046514500DC31
:10A1000001462298ADF8041001A9826805A8F8F765
:10A1100007FDC8B34A464D4603A905A8F8F728FD30
:10A1200090BB05A808F0C5F910900C990098BDF9EE
:10A130002C2001FB0400BDF91410121B891A0844DD
:10A14000401E119046B12A4603A905A8F8F780FDE4
:10A1500010B14FF0010802E0B6F1000801D01198EB
:10A1600000E058461B901098002832DDBDF814001E
:10A17000ADF80400BDF81800ADF8080002208DF815
:10A180007000BDF9165020E023E0ADF80650ADF8A0
:10A190000A50B8F1000F12D1DDE9102158460EF037
:10A1A00089FFBDF914102A465846109B0AF02EFA72
:10A1B0008DF87000012802D102208DF8700018A9D6
:10A1C00022980AF080FF6D1C2DB2BDF91A00A8423A
:10A1D000DBDA0023009815E000EB040EAEF101017C
:10A1E000002204EBD47C07E0057891F8008000F8A9
:10A1F000018B01F80159521CB2EB6C0FF4DB5B1CB4
:10A2000070461BB2A342E7DBBDF828000C99ADF8FD
:10A210000400084401B2BDF82A000F9B204400B29C
:10A22000ADF80600BDF82E20ADF80810121B12B2D2
:10A23000ADF80A20984200DB781CADF80600BA425F
:10A2400000DC3A46AAF10100ADF80A2010908142E4
:10A2500000DB01462298ADF8081001A9826805A824
:10A26000F8F75EFCB8B34A464D4603A905A8F8F7CF
:10A270007FFC80BB05A808F01CF90E900C99009893
:10A28000BDF9042001FB0400BDF91410891A08442B
:10A29000119046B12A4603A905A8F8F7D9FC10B1D8
:10A2A0004FF0010802E0B6F1000801D0119800E07B
:10A2B00058461B900E98002832DDBDF81400ADF80A
:10A2C0000400BDF81800ADF8080002208DF87000F9
:10A2D000BDF9165020E023E0ADF80650ADF80A5065
:10A2E000B8F1000F12D158460E9A11990EF0E2FE05
:10A2F000BDF914102A4658460E9B0AF087F98DF8CE
:10A300007000012802D102208DF8700018A922984F
:10A310000AF0D9FE6D1C2DB2BDF91A00A842DBDA95
:10A32000BDF828000C99ADF80400084400B2ADF85F
:10A330000800BDF82A100C9AADF806101144109AC6
:10A3400009B2ADF80A10904201DBAAF10100ADF8A4
:10A350000800B94200DB39462298ADF80A1001A97D
:10A36000826805A8F8F7DCFBC8B34A464D4600E012
:10A3700042E103A905A8F8F7FBFB80BB05A808F09C
:10A3800098F8BDF91620BDF906100D90511A0098E5
:10A39000BDF9042001FB0400BDF91410891A01EB7A
:10A3A000000846B12A4603A905A8F8F751FC10B1E8
:10A3B0000120079000E007960D98CDF86CB00028BA
:10A3C00021DDBDF81400ADF80400BDF81800ADF8AB
:10A3D000080002208DF87000BDF916500FE012E061
:10A3E000ADF80A500798ADF80650D0B3CDF86C80A0
:10A3F00018A922980AF067FE6D1CA0442DB2BDF981
:10A400001A00A842ECDABDF82800ADF804000C9957
:10A41000BDF82E20084401B2101BADF80810401CF6
:10A42000ADF80A2000B20F9AADF80600904200DCA9
:10A43000781CADF806001098814201DBAAF10101F9
:10A440002298ADF8081001A9826805A8F8F768FB02
:10A45000C0B34A464D4603A905A8F8F789FBA8B141
:10A4600058E0FFE72246414658460EF023FEBDF96C
:10A4700014102A4658460D9B0AF0C8F88DF8700053
:10A480000128B5D102208DF87000B1E705A808F0C9
:10A4900010F8BDF90A10BDF91A208246891A0098F1
:10A4A000BDF9042001FB0400BDF91410891A0F182E
:10A4B0004EB12A4603A905A8F8F7CAFB18B14FF018
:10A4C000010801E026E0B046CDF86CB0BAF1000F0B
:10A4D00020DDBDF81400ADF80400BDF81800ADF89B
:10A4E000080002208DF87000BDF91A500EE0ADF89A
:10A4F0000650ADF80A50B8F1000F2FD01B9718A9DD
:10A5000022980AF0E0FD6D1E27442DB2BDF9160019
:10A51000A842ECDDBDF8280001A92044ADF80400F4
:10A52000BDF82C00001BADF80800BDF82A0020443F
:10A53000ADF80600BDF82E00001BADF80A00229809
:10A54000CDF86CB0826805A8F8F7EAFAF0B34A468D
:10A5500003A905A8F8F70CFBA0B140E02246394654
:10A5600058460EF0A7FDBDF9141053462A4658462A
:10A570000AF04CF88DF870000128C0D102208DF847
:10A580007000BCE705A807F094FF051E27DDBDF8A5
:10A590001400ADF80400BDF81800ADF80800BDF9CE
:10A5A000164018E0ADF80640ADF80A402946584676
:10A5B0000EF087FEBDF914102B46224658460AF0CD
:10A5C00025F88DF8700018A9229800E007E00AF03D
:10A5D0007AFD641C24B2BDF91A00A042E2DA2EB959
:10A5E00012A80AF035F81F980AF062FB00980EF0E6
:10A5F000E3FC58460EF0E0FC25B0BDE8F08F00000B
:10A600002DE9F74FD2B0144652984A90104607F001
:10A610005CFFE188628800EBD070891A491C09B29E
:10A62000421001EBD170B2EB600F04DA204607F064
:10A630004CFF00EBD0704010489021880844ADF8E2
:10A640000C00618848980844ADF80E001FA809F076
:10A650000BFE4FF4C0241FAA2146529811F062F855
:10A660009DF8850040F010008DF8850017A809F0CE
:10A67000C3FD17AA2146529811F006F805A8539970
:10A680000FF042FDEA480690032007901FA80B90A8
:10A690004A98129424305090F9F7A4FAC1E1169424
:10A6A000A18B4898A28908440FFA80F8A8EB020110
:10A6B000A08809B2BDF80C20A8EB00000491111A83
:10A6C000ADF8F810BDF80E1002440B1AADF8FC20DE
:10A6D0000844ADF8FA30ADF8FE0047F6FF750123E7
:10A6E0002A463EA928A80AF039FABDF80C20049998
:10A6F0000123501AADF80001BDF80E00411AADF863
:10A7000002110499491E0A44ADF804210844ADF829
:10A7100006012A4640A92EA80AF020FABDF80C002E
:10A72000BDF80E20A0EB0801ADF80811A2EB08015E
:10A73000ADF80A11A8F101010844ADF80C01501858
:10A74000ADF80E0100232A4642A922A80AF006FA13
:10A75000002122A809F0A8FD4990608908B1401E97
:10A7600001E04FF6FF708246002646E161890AF15A
:10A77000010A4FF00009514502D1CA464FF00109C4
:10A78000A0690090628800213046521E63690EF075
:10A7900089FB83461590B9F1000F01D0A06800E055
:10A7A000206800904F9001D0E08900E0E08807B277
:10A7B0004A984B9700F130000190F9F713FA3DE009
:10A7C0002879022836D1A968594533DCEA685A4508
:10A7D00030DB288AAB8A384407B2688A984203D1B2
:10A7E000688AADF8000025E0A87D4FF00003C0079F
:10A7F0004FF0FF000090584601D1D4E905120EF049
:10A8000051FBC0B26A8A001DC308A98A90B2894A66
:10A8100089B240EA004041EA014110401140091A62
:10A82000594300EB5110104040EA1040ADF80000D1
:10A8300080B2009029460198F9F7D1F90500BFD1FF
:10A84000E08B704301026088401E91FBF0F0011222
:10A850000291491C3491C5B2208C0299084400B27F
:10A8600014F0EEF93590208C3499084400B214F0BD
:10A87000E7F90146C5F58070359A0190504301FB18
:10A88000050001124C91208C0299084400B214F08A
:10A89000D3F90290208C3499084400B214F0CCF91A
:10A8A0000146DDE90102504301FB05000512BDF838
:10A8B0000000ADF87C0008EB0700BDF80C2000FBA1
:10A8C00005F17F3102EBE131ADF87E70ADF8341166
:10A8D0004C99BDF80E2048437F3002EBE030ADF8D4
:10A8E000360103A813960E9017A80A90B9F1000F2D
:10A8F0005AD049980AF0DCF9B4F910100498BDF860
:10A900000E20401ABDF80C1045437F3501EBE535AC
:10A910004C9941437F3102EBE137202217A934A83B
:10A920000EF0C8FB34A80A905B4643A2102144A84D
:10A9300012F0F4FF44A8109005AA1A2152980BF0C7
:10A94000EBF9BDF96E004FF0000B41F6FF728DE898
:10A950000508BDF970304EA8179A109914F03CFA0A
:10A96000BDF9380100EBD071A5EB6102BDF93A11D8
:10A97000104401EBD173A7EB6303ADF8F020ADF801
:10A98000F4005818ADF8F230ADF8F600CDF800B08C
:10A990003CAA109B0A99539809F09AF9002122A821
:10A9A00009F082FC499007E000200A90109005AA67
:10A9B0001A2152980BF0B0F9B9F1000F01D02EA86E
:10A9C00000E028A8002109F06FFC054603AB4DAA62
:10A9D0001FA9539809F03BFC28460AF069F905AA1B
:10A9E000162152980BF098F9BDF83C01ADF87C00A7
:10A9F0004B98761CADF87E00F6B26088B0423FF608
:10AA0000B5AE28A809F024FE2EA809F021FE22A840
:10AA100009F01EFE49980AF04BF921465098F9F7C3
:10AA2000DEF804007FF43BAE55B0BDE8F08F0000C7
:10AA3000248502081FF8E007256400002DE9FF4F78
:10AA400081B00C4680462021DDF838A010F04EFD84
:10AA5000002878D0BAF1030F404621D00FF051FF03
:10AA600081460CF085FE0546002708F11400009091
:10AA70003E46BAF1030F3946404614D010F012FC9E
:10AA800082460021404610F073FB83464846B9F1E8
:10AA9000010F59D002285FD0B9F1030F63D138E01C
:10AAA0000FF028FFDCE710F09BFB834600214046B7
:10AAB00010F0C0FB82464846B9F1010F19D00228B8
:10AAC0001FD0B9F1030F4ED1009807F0DAFCA0EBCC
:10AAD0000B01A1EB0A00B8F8141000EBD0720BEBDD
:10AAE0006200084407B205F1140007F0CAFCA98A05
:10AAF00023E0B8F81410B5F9146001EB0B0007B2AD
:10AB000031E0B8F81810B5F91860A1EB0A0007B2E7
:10AB100029E0009807F07DFCA0EB0A01A1EB0B00F7
:10AB2000B8F8161000EBD0720AEB6200084407B2C6
:10AB300005F1140007F06DFCE98A00EBD07001EB21
:10AB4000600006B20FE030E0B8F81610B5F91660F4
:10AB500001EB0A0007B206E0B8F81A10B5F91A605E
:10AB6000A1EB0B0007B2A01E049900B2002910DA75
:10AB7000B9F1000F15D0BE4221DC12E0002C01DD3E
:10AB8000A41C24B2E01704EB9070801005B0BDE85F
:10AB9000F08F0399002912DAB9F1000F01D0BE42FB
:10ABA0000DDB002CEADA0446E8E70498E04202D51F
:10ABB0000498404204B20398001B00D5039C204631
:10ABC000E4E770B504460CF0C3FD48B10068826844
:10ABD0000AB1217A9047207E810743D4C0077CD1F7
:10ABE0000126002160680FF00FFD00251AE00168C2
:10ABF00099B1017ACA0910D0802904D0227A21F0B3
:10AC00008001914209D14168E1600168204688478E
:10AC1000207E810726D4C0075FD16D1C294660685D
:10AC20000FF0F2FC08B1002EE1D1214600200FF018
:10AC300016FC051E03D0002160680FF0E5FC00261D
:10AC400019E0016891B1017A0A060FD411B1227A94
:10AC500091420BD14168E160016820468847207E1F
:10AC6000810701D5012070BDC00736D1761C314661
:10AC700060680FF0C9FC10B1012DE2D02FE0012D6A
:10AC80002DD16068416851B3217E490727D4217ACC
:10AC9000232919D0242917D0A90310F027FCF0B1DB
:10ACA000207A11381C280FD2DFE800F01919191981
:10ACB000191919191919190E0E190E0E1919191930
:10ACC0000E0E0E0E19190E1960684068606020465D
:10ACD000FFF777FF0546012801D0002070BD284608
:10ACE00070BD2DE9F05F994616468A4680460025DC
:10ACF000DDF828B00EE000240AEB050707E03A462D
:10AD000008EB04010123584616F03DF9641CB442D7
:10AD1000F5DB6D1C4D45EEDBBDE8F09F2DE9FF4FE7
:10AD200083B00446DDE910870E460846139D07F000
:10AD3000BAFB8346304607F078FB0190012D0FD017
:10AD4000022D0FD0032D3ED1404E6FB12088ADF8BB
:10AD5000000038784FF0000AFD2837D3424638E02B
:10AD60003B4EF2E73B4EF0E72088ADF80800ADF827
:10AD70000000424602990698B047002702901FE063
:10AD8000002517E0BDF8000034F8151088420BD0FC
:10AD900004EB450042460088ADF80800ADF800001D
:10ADA00002990698B047029004EB4500BDF80810E0
:10ADB00001806D1C5D45E5DB05987F1C04EB4004BC
:10ADC00001988742DCDB07B0BDE8F08F00FB08F09C
:10ADD000020A00990698B0470290002030E0002552
:10ADE00025E0785D10B3504505D1BDF8001034F86A
:10ADF0001520914215D0FD2801D3424602E000FB08
:10AE000008F0020A04EB45000088ADF8080002993A
:10AE10000698B047029017F805A034F81500ADF871
:10AE2000000004EB4500BDF8081001806D1C5D4575
:10AE3000D7DB059804EB40041298074409F10100A0
:10AE4000019981468842CADBBDE700001B6100080A
:10AE5000A76000087B6100082DE9FF4F85B093468D
:10AE6000DDE912750E460446F9F70CF9304607F095
:10AE70001AFB8046304607F0D8FA82466DB1BDF81D
:10AE80002000FD2F00EB00497ED3A8F104000190C3
:10AE900000200090BDF8207026E1FD2F0ED3002584
:10AEA00007E042462046089908F09DF904EB4B0460
:10AEB0006D1C5545F5DB09B0BDE8F08FBDF80010FD
:10AEC000002060F3040189B260F34A1189B260F393
:10AED000CF21ADF8001088B20090BDF800000090BE
:10AEE00001463A46089808F0A5FA0190089880B201
:10AEF000C10A7943ADF80810C0F34511794300F059
:10AF00001F007843ADF80A10ADF80C00C7F1FF013F
:10AF100000254FE0002048E0BDF8002034F8103054
:10AF20009A423CD004EB40021288ADF80420ADF800
:10AF30000020BDF80430BDF80820DE0A06FB01221F
:10AF4000803202EBC21606EBC232BDF81060C2F3CB
:10AF5000C45262F3CF26BDF80A20C3F3451707FB9E
:10AF60000122803202EBC21707EBC232C2F3C55294
:10AF700062F34A16BDF80C2003F01F0303FB012205
:10AF8000803202EBC21300E0B4E003EBC232C2F342
:10AF9000C45262F30406B2B2ADF81060019204EB41
:10AFA0004002BDF804301380401C4045B4DB04EB84
:10AFB0004B046D1C5545ADDB7DE7002610E02A787B
:10AFC000FF2A12D02088ADF808000299089808F0EE
:10AFD00031FA0290BDF808002080A41C6D1C761C7C
:10AFE000464557DAA807EAD154E02780F5E72868F4
:10AFF000411C43D0F0B32A78FF2A4FD02088ADF807
:10B0000008000299089808F015FA0290BDF80800A7
:10B01000208015F8012FA41CFF2A41D02088ADF80C
:10B0200008000299089808F005FA0290BDF8080097
:10B03000208015F8012FA41CFF2A33D02088ADF8FA
:10B0400008000299089808F0F5F90290BDF8080088
:10B05000208015F8012FA41CFF2A25D02088ADF8E8
:10B0600008000299089808F0E5F90290BDF8080078
:10B07000208000E00BE0A41C6D1C0AE0A00704D0B7
:10B080002780C4F80290E78001E0C4E90099083401
:10B090002D1D361D01988642A9DD18E02780B8E7EE
:10B0A0002780C6E72780D4E72780E2E72A78FF2AAF
:10B0B0001ED02088ADF808000299089808F0BAF967
:10B0C0000290BDF808002080A41C6D1C761C46452B
:10B0D000ECDBABEB080004EB40041498A0EB080099
:10B0E00005440098401C00905045FFF666AFE2E62C
:10B0F0002780E9E700212388ADF804308946084617
:10B1000033E0002627E0287818B3884205D0FF28CE
:10B110002FD000FB07F2120A9146884203D134F87F
:10B120001600834210D0B9F1FF0F24D004EB460083
:10B130004A460088ADF804000199089808F07AF9A9
:10B140000190297834F8163004EB4600BDF804204D
:10B1500002806D1C761C4645D5DB149804EB4B042D
:10B16000A0EB080005440098401C00905045C8DB47
:10B17000A1E63A46D0E70898E2E72DE9FF4F85B00F
:10B180000D46DDE912A7F8F77DFFBDF82090804657
:10B190004FB1284607F087F90390284607F045F994
:10B1A0008346002640E0B5F9026017E0B5F900409B
:10B1B0000FFA86FB0DE0CDF808A0ADF80490CDF8AD
:10B1C00000B0D8F8000023B2079AC7690599B847BC
:10B1D000641CB5F90400A042EDDA761CB5F906004E
:10B1E000B042E3DA09B0BDE8F08F002416E0385D24
:10B1F00098B100FB0AF0000A0290ADF8049068884C
:10B20000079A304400B2009028880599204403B280
:10B21000D8F80000D0F81CC0E047641C03988442B2
:10B22000E5DB1498761C07445E45DEDBDAE7006850
:10B230000968884201D101207047002070474068AA
:10B240000A6820F04040904200D208600020704719
:10B250002DE9F04F87B004460020019002900CF0D9
:10B2600077FA006800263746057E206A0090B4F918
:10B270001410002900DC4942B4F91600002800DC53
:10B280004042814201DD0126AEE00127ACE0102101
:10B2900010F02CF900287DD0BB46B146DA46C846EE
:10B2A00000980FF061FAC10700D18946810701D4E7
:10B2B0004FF00008410701D44FF0000B000701D404
:10B2C0004FF0000A00980FF023FB059000980FF054
:10B2D000F9F9049000980FF04FFA039000980FF0DE
:10B2E000ABFA0599002902DC0499002912DDBBF1B3
:10B2F000000F03D0B4F91610A94207DABAF1000F13
:10B3000008D0B4F916106A42914203DC0099019109
:10B310000C2102910399002901DC002812DDB9F10A
:10B32000000F03D0B4F91410A94207DAB8F1000FE6
:10B3300008D0B4F914106A42914203DC00990191DB
:10B34000032102910599002901DC4FF0000B0499BB
:10B35000002901DC4FF0000A0399002901DC4FF0BD
:10B360000009002801DC4FF00008B9F1000F03D0FC
:10B37000B4F91400A84218DAB8F1000F04D0B4F9F7
:10B3800014006942884210DDBBF1000F05D0B4F90A
:10B39000160000E014E0A84207DABAF1000F0FD05F
:10B3A000B4F91600694288420ADC0EB1032000E0BD
:10B3B0000C2094F83C1060F3030184F83C1017E073
:10B3C0004FF48071009810F091F836EA00000FD128
:10B3D0004FF40071009810F089F837EA000007D1A7
:10B3E00000980FF062F90090009800287FF44FAFAA
:10B3F000019858B194F83C10029860F3030184F866
:10B400003C100198A0620020A082E082019807B061
:10B41000BDE8F08F2DE9FF5F06460FF06BFAB0F143
:10B42000000A72D041F6FF74002130460FF0D8FEBA
:10B430008046002130460FF0FDFE814630460FF079
:10B4400036F88346002758E0B0683249006850F863
:10B450002750284610F051F8F0BB4FF48051284691
:10B4600010F044F8C0B35046BAF1010F05D00228DD
:10B4700009D0BAF1030F3FD11AE0B18AB5F91450DF
:10B4800001EB080004E0318BB5F91850A1EB09007D
:10B490000399019A294409B200B291422CDB029A25
:10B4A000914229DC081A00B200281CDD01461BE08D
:10B4B00005F1140006F0E5FFA98A00EBD07001EB5E
:10B4C000600005B206F1140006F0DBFFA0EB0801F6
:10B4D000A1EB0900B18A00E00EE000EBD07208EBAE
:10B4E00062000844D4E74142002C01DD224600E01E
:10B4F0006242914200DA04467F1C5F45A4D3A4F562
:10B50000F850FF3804D0604200B204B0BDE8F09FAC
:10B510000020F9E7010004002DE9FF5F06460FF067
:10B52000F0F9B0F1000A72D041F6FF740021304604
:10B530000FF0B8FE8046002130460FF019FE81461C
:10B5400030460EF0B4FF8346002758E0B068324919
:10B55000006850F8275028460FF0CFFFF0BB4FF49B
:10B56000805128460FF0C2FFC0B35046BAF1010F18
:10B5700005D0022809D0BAF1030F3FD11AE0F18AB1
:10B58000B5F9165001EB080004E0718BB5F91A50BB
:10B59000A1EB09000399019A294409B200B2914232
:10B5A0002CDB029A914229DC081A00B200281CDD2B
:10B5B00001461BE005F1140006F02BFFE98A00EBC1
:10B5C000D07001EB600005B206F1140006F021FF17
:10B5D000A0EB0801A1EB0900F18A00E00EE000EB0E
:10B5E000D07208EB62000844D4E74142002C01DD30
:10B5F000224600E06242914200DA04467F1C5F4529
:10B60000A4D3A4F5F850FF3804D0604200B204B0CF
:10B61000BDE8F09F0020F9E7010004002DE9FF4F8D
:10B6200083B00F46DDE910A49346002103980FF084
:10B6300037FF0546002103980FF04DFDF9788A0782
:10B640000BD5CB0742F2D17202D0954202D007E06F
:10B65000904207D121F00200F870F878C00701D0BD
:10B66000764800E076480190F878C0070CD074481E
:10B670005946814600206080A08020612080A06023
:10B68000E060CDF800B0A6E06C48F1E700995945BC
:10B6900006D04FF4000130460FF028FF00287DD17E
:10B6A000684930460FF029FF002878D10021304644
:10B6B0000FF000FD5FEA000860D02069401C2061A7
:10B6C000A28802EB0A01A180217DC90769D000EBA5
:10B6D000800080000DF024FC05001CD0E16851B111
:10B6E0002069401E00EB8000820028460DF0E2FC3D
:10B6F000E0680DF061FC20694FF0000100EB800074
:10B7000005EB800040F8146CF878C007304603D091
:10B7100041F2020202E0FEE741F205020FF0ECFD09
:10B72000216900B201EB810105EB810121F8100CC8
:10B73000F8784FF00001C007304602D041F2030212
:10B7400001E041F206020FF0D7FD216900B201EBE2
:10B75000810105EB810121F80E0C2069002100EB2D
:10B76000800005EB800040F8088C206900EB800029
:10B7700005EB800040F8041CE56012E001993046BA
:10B780008847F978890705D5B4F904100A1806998D
:10B790008A4226DCA2885044104401E021E00FE0F8
:10B7A000A0803046494688470146B4F900008142EE
:10B7B00002DD3046494688472080A068401CA060D2
:10B7C000F878400702D54FF0FF3000E001200099E3
:10B7D0004118009105D403980EF057FE061E7FF421
:10B7E00055AFB4F90400002802DDA0EB0A00A080E8
:10B7F000206908B1069801E0B4F904006080CEB178
:10B800000098584516D103996A468968096851F825
:10B810002050F878C0F38001039801F067F84DB12B
:10B8200028464946884720800199284688476080F5
:10B830000120A060009807B0BDE8F08FE7B40108D0
:10B840002FA601080100060030B50446002007229B
:10B85000C3091D256B4383EA400021FA02F303F07C
:10B86000010363434340D8B2521EF1D530BD0000FE
:10B870002DE9F04FB44D93B0044600212A880FF013
:10B880003BFD9DF81710421C62F30001820862F331
:10B890004101C00860F382018DF817102046002195
:10B8A0006A880FF029FD8DF8140020460021AA882F
:10B8B0000FF022FD8DF8150020460021EA880FF0D8
:10B8C0001BFD8DF81600002120460FF0AFFB01286C
:10B8D00000D0002083469DF817004FF00001C007FC
:10B8E00020460CD00FF0C9FC06469DF817004FF01B
:10B8F0000001C007204605D00FF05DFC04E00FF00A
:10B900005AFCF1E70FF0B9FC81469DF81700C0071B
:10B91000204602D00EF037FE01E00EF01AFE0C9029
:10B920002046002141F232020FF0E6FC0546204697
:10B93000002141F610020FF0DFFCE18A284447188D
:10B9400020460EF0F3FF381AADF8340020460021EF
:10B9500041F612020FF0D0FCA18A28444518204677
:10B960000EF0DDFF281AADF83C009DF817009DF899
:10B970001680C00701D00DAD00E00FAD00212046BC
:10B980000FF08EFD1190002120460FF0A4FB1090C7
:10B990009DF81700C10709D01099A1F51C52D13AA2
:10B9A00002D1618C890509D5C10709D11199A1F589
:10B9B0001C52D13A04D1618C490501D44FF00008E2
:10B9C000BBF1000F0CD0C0070AD1B8F1000F03D0B3
:10B9D000B8F1010F02D003E0012000E00020804612
:10B9E0000027ADF83870BA46B8F1000F3AD09DF88C
:10B9F0001700400703D5A0684268521E13E00022DA
:10BA000011E000200B9006A8CDE9009005A9204682
:10BA10000C9BFFF703FEBDF81810BA1911440FB2C2
:10BA20000AF1010A0246A0684068904201DD002A3E
:10BA3000E7DABAF1000F01D0B81B07B29DF8170082
:10BA4000C007204602D00EF084FD01E00EF09BFD01
:10BA50000EA9CDE9005101460FFA8AF33A46404655
:10BA600013F0CCFF9DF81710480703D5A068406875
:10BA7000401E00E000208046BBF1000F04D0C80744
:10BA800002D12888384428800DF1180AA06841683E
:10BA9000414546DDB8F1000F43DB01200B90CDE9B5
:10BAA000009A424605A920460C9BFFF7B7FD0746C2
:10BAB000BBF1000F08D09DF81700C00704D12888FB
:10BAC000BDF81810401A2880BDF934300C9A02A82D
:10BAD000019380E80406BDF93C0000903B464246D5
:10BAE00005A92046F9F792FFB84609980DF064FAC7
:10BAF00000200990BBF1000F03D09DF81700C0078C
:10BB000009D02888BDF818100844BDF83810314411
:10BB100008442880BAE7BDF8381028883144401A14
:10BB2000F7E7119942F2D170814202D01099814217
:10BB300002D1204610F039FA00222B2120460AF0CB
:10BB4000EBF813B0BDE8F08F640100202DE9F05F41
:10BB50000546007E92468B46C0076BD14FF0010828
:10BB6000EC680026C1467CB9287EC0F3C000401EA8
:10BB700030425FD1B9F1000F5CD028465946884762
:10BB80004FF000080446C1460EB9261E52D0B8F147
:10BB9000000F06D021462846524690470446B04240
:10BBA00048D04FF00108002CDDD020680FF00EFACD
:10BBB0000006D8D427683AE0012138460FF096FCF9
:10BBC00080B32FB1012138460FF090FC0028CAD174
:10BBD000E868A0422ED070B1284600F011FD024660
:10BBE000E8680F2100680AF097F8012822D1E86878
:10BBF00000680FF041FF2846EC6000F001FD0246AE
:10BC0000E8680E2100680AF087F8012812D1E86878
:10BC100000680FF031FF296900290BD02846BDE8E4
:10BC2000F05F0847FFE738460EF03FFD0746002F5C
:10BC3000C2D1CDE7BDE8F09F04490A685206FCD5A1
:10BC4000024AC1B2121D1160704700000038014065
:10BC50002DE9F0413B4886B0816941F08001816166
:10BC6000816901F080010591816941F08001816164
:10BC70008069012400F0800005904FF400660327DE
:10BC8000CDE90064DFF8C080CDE90247694640464F
:10BC9000F5F7FAFFA0020025CDE90005CDE902473E
:10BCA00069464046F5F7F0FFFAF7D8FA0022314628
:10BCB0004046F6F7EEF81420FAF74EFD0122314621
:10BCC0004046F6F7E6F83220FAF746FD8DF81050B8
:10BCD000012204A9002000F007F9012204A9A420F0
:10BCE00000F002F916208DF81000012204A980202E
:10BCF00000F0FAF80C208DF81000012204A9882029
:10BD000000F0F2F8022204A9A12000F025F89DF825
:10BD10001000302803D19DF81110032909D09DF897
:10BD20001110012905D0022903D0012006B0BDE879
:10BD3000F081C9B201EB002104A0F4F761FB0020FF
:10BD4000F4E7000000100240001C01404354502062
:10BD500049443A25780D0A002DE9F04115460F4671
:10BD60000446FAF733FB7020FAF7FCFAFAF778FB8F
:10BD7000E0B2FAF7F7FAFAF773FBFAF727FB71204C
:10BD8000FAF7F0FAFAF76CFB00246E1E09E0B442F1
:10BD900001D0012000E00020FAF7B0FA3855641C09
:10BDA000E4B2AC42F3D3BDE8F041FAF737BB000090
:10BDB0002DE9FC470026484F8DF804604FF00A0A31
:10BDC0003878464D401CC0B2B0FBFAF20AFB1201B3
:10BDD0003446B04638704FF6FF7909B10A2861D26F
:10BDE000012201A90220FFF7B7FF9DF80400010717
:10BDF00058D000F00F00062854D209FA00F1C843C9
:10BE000040F44040A8864FF00108A98E08FA04F0DB
:10BE100001423AD032480422694630F81400FFF754
:10BE20009BFF95F844009DF80010C0079DF80100A5
:10BE300001F00F010ED000EB012105EB440001845D
:10BE40009DF802209DF8031002F00F0201EB022181
:10BE5000818110E000EB012022490988091A05EBD5
:10BE6000440081819DF802209DF8031002F00F022A
:10BE700001EB022101849DF800000821B1EB101FA5
:10BE800003D005EB440006848681641CE4B2052CD3
:10BE9000BBD3A9894FF0010819B9288C08B98DF8CE
:10BEA00004603E709DF80400C0060CD1A88E010409
:10BEB00002D520F4004005E0A5F80C90A5F82090EC
:10BEC00000F46040A8863878F02801D987F800A0EF
:10BED0004046BDE8FC8700002D0000203000002017
:10BEE0006A7F0208000400202DE9F04115460E4645
:10BEF00004460027FAF76AFA7020FAF733FAFAF7DD
:10BF0000AFFAE0B2FAF72EFAFAF7AAFA002408E03C
:10BF1000305DFAF727FAFAF7A3FA070003D1641C99
:10BF2000E4B2AC42F4D3FAF779FA3846BDE8F081CE
:10BF300030B50346012815D0072093FBF0F0801C94
:10BF4000202B11D09A0002EB40026FF0010404EBA9
:10BF50004004521C92FBF4F25400421E0A2505EBE9
:10BF6000830306E0002030BD1A24F6E78B541B1B28
:10BF7000521E012AFADA06220A7030BD10B5037883
:10BF8000A3F115049C2C07D8002905DB994203DA9C
:10BF9000002A01DB9A4201DBF4F7A8FB02FB031144
:10BFA00000EBE10001F007014078C84000F001001B
:10BFB00010BD000070B50C460546042901D3F4F706
:10BFC00095FB00F015F804EBC401084A01EB44119D
:10BFD000064B0A44A4331944525749574A43C117E0
:10BFE00000EB5170C2EBE00070BD0000D0BD020854
:10BFF000014610B5401E272801D9F4F777FB8020B1
:10C0000000EB01104843403002290DDB072291FB71
:10C01000F2F26FF01803921C534337300A3303FBDC
:10C020000200072900DB243810BD2DE9FC5F8346A0
:10C0300014F0E4FB00240546A146A24642E04FF07E
:10C040000008CDF800A046464746CDF804A025E0FC
:10C050004A4639465846FFF791FF40450AD1761CBB
:10C06000F6B2052E03D018D904F1010415E004F14D
:10C07000030412E069463046F8F71CFDB8F1000FE2
:10C0800004D1684601F06BF800B128344A463946BD
:10C090005846FFF773FF804601267F1CAF42D7DB6F
:10C0A00069463046F8F706FDB8F1000F03D069463F
:10C0B0000020F8F7FFFC684601F051F800B1283481
:10C0C00009F10109A945BADB002042E04FF0000860
:10C0D000CDF800A046464746CDF804A025E03A46F4
:10C0E00049465846FFF74AFF40450AD1761CF6B24A
:10C0F000052E03D018D904F1010415E004F103045E
:10C1000012E069463046F8F7D5FCB8F1000F04D1CB
:10C11000684601F024F800B128343A4649465846AA
:10C12000FFF72CFF804601267F1CAF42D7DB694614
:10C130003046F8F7BFFCB8F1000F03D06946002085
:10C14000F8F7B8FC684601F00AF800B1283409F1A4
:10C1500001008146A842B9DB0027A5F1010921E0D1
:10C1600000261CE03A4631465846FFF707FF804656
:10C170003A46711C5846FFF701FF40450ED17A1C24
:10C1800031465846FFF7FAFE404507D17A1C711C2C
:10C190005846FFF7F3FE404500D1E41C761C4E459F
:10C1A000E0DB7F1C4F45DBDB002738460DE0002637
:10C1B00007E0424631465846FFF7E0FE00B17F1CDB
:10C1C000761CAE42F5DB08F101008046A842EEDBAA
:10C1D00007EB87006D438100684200EB800011EBA4
:10C1E000400000D540422844401E90FBF5F0401E20
:10C1F00000EB800004EB4000BDE8FC9F2DE9F74F09
:10C2000089465FEA000A02D1B9F1000F25D1002565
:10C210002C464FF0FF3B4FF400481AE00AEB0410A5
:10C220004768C668474518D2464516D20078029935
:10C2300013F034FB102810D801218140B94204DDED
:10C24000304405442D1D454502DB5846BDE8FE8FB0
:10C25000641C4C45E2D3454501D3F4F747FA284620
:10C26000F4E72DE9F34F87B00746804669460EF0A4
:10C27000A6F938460FF037F9039038460EF0D7F993
:10C280000690002138460EF0C7FF8146002138464F
:10C290000EF0ECFF0546002138460FF01FF8064669
:10C2A000002138460EF080FF0290002138460EF043
:10C2B000F2FF0446002138460EF08BFF04F0010126
:10C2C00004EBD47201EB620100F0010200EBD070CC
:10C2D00002EB6000491C401C09B200B20D2900DBD2
:10C2E0000D218B460D2800DB0D2082460D2D00DB35
:10C2F0000D250D2E00DB0D2602980D2801DA0746CC
:10C3000000E00D27002469E0D8F8280000EBC40104
:10C3100004A806F063F8BDF910004946484513DC4F
:10C32000BDF90020B9F10D0F00DB0D21511A0844B1
:10C33000ADF81000BDF91200B0421EDCBDF90220BC
:10C340000D2E07DA314606E0BDF80020A2EB0A0107
:10C350000844EDE70D21511A08440399ADF8120085
:10C36000BDF91400491B891E88421EDBBDF900106F
:10C370000D2D014407DA284606E0BDF80220A2EBA5
:10C380000B010844E9E70D2008440699ADF81400B4
:10C39000BDF91600C91B891E884217DBBDF90210C2
:10C3A0000D2F014407DA384606E0BDF800100144BD
:10C3B00001EB0A00E9E70D200844ADF81600002261
:10C3C00004A80899F6F794FC60B905E0BDF80210DE
:10C3D000014401EB0B00F0E7641CA4B2B8F8300094
:10C3E000A04291D8B8F83000A04201D14FF6FF74B6
:10C3F00009B02046BDE8F08F10F0070000D1012001
:10C400007047B0F90C00032101EB400020F003005D
:10C41000103070472DE9F05F89469346824600212F
:10C420000EF0F3FE0546002150460EF018FF804640
:10C43000002150460EF04BFF0446002150460EF0FE
:10C44000ACFE064650460FF04EF8411BA1EB080724
:10C4500050460EF0ECF8001B801B8742504605DA70
:10C460000FF041F8411BA1EB080003E00EF0DFF8EC
:10C47000001B801B00EBD070401001B2BAF8140012
:10C480004A191044A9F80000BAF816000A19104415
:10C49000A9F80200BBF1000F01D0ABF80010BDE815
:10C4A000F09F0000024A002112880EF025BF000014
:10C4B00074010020034A10B5002112890EF01CFF00
:10C4C000C0B210BD74010020034A10B5002152898A
:10C4D0000EF012FFC0B210BD740100202DE9FC4720
:10C4E0000F0023D0046965692DB12868B84202D1D4
:10C4F0006868BDE8FC87618A00204FF0040CC1F336
:10C5000008060CE0A26800EB800352F823100CEB45
:10C510008303D25A791A8A420AD2401C80B28642D8
:10C52000F0D81DB12F606169002048600020E0E76D
:10C5300000EB80051220A26800EB85000026105C4D
:10C540004FF0060802280BD04FF00C0A68B1DFF854
:10C55000ACC010220823032810D0012828D046E0C0
:10C5600008EB8500105A461841E00AEB850008EBFD
:10C5700085031058D25A405C161838E0ADF8041004
:10C58000CDF800C0A06802EB850103EB8509425A93
:10C5900050F80910022301A8F7F78DFE38B3A168FF
:10C5A00051F80920801A08EB85024010895A1DE0D5
:10C5B000ADF80410CDF800C0A06802EB850103EBD4
:10C5C0008509425A50F80910022301A8F7F773FEB3
:10C5D00068B1A16808EB850351F80920801A421060
:10C5E0000AEB85000858C95A30F812000E18606925
:10C5F00010B107606069466030467AE74D31020845
:10C600002DE9F04100260746354630460FE00BF095
:10C61000E0F8216DB94209D1022802D0042803D0E4
:10C6200003E02046BDE8F0812646254620460BF073
:10C6300095F80400EBD10EB13046F3E70DB1284672
:10C64000F0E7BDE8F04100200BF088B87CB5036945
:10C65000006900255B8AC4689B04A0682AD4830F04
:10C6600016D00123B3EB907F30D101EB0240266856
:10C67000019017480090A068042320F04042314602
:10C6800001A8F7F718FE08B3801B801061681CE052
:10C6900001EB02212668ADF804100E4920F040425B
:10C6A00000910223314601A8F7F705FE70B1801B07
:10C6B0004010EBE76368805C595C39B130B1637B53
:10C6C000491E2268401E01FB03210D5628467CBDF1
:10C6D0008BE500089FE500082DE9FC5F88461F46B2
:10C6E0001446824605464FF400310EF08AFC00EBFA
:10C6F000D0704610A01B0FFA80F9A88EAC8C10F0F9
:10C70000060F06D0C0F34100022804D0012845D00E
:10C7100004E0288D00E0E88C204484B204F15A0043
:10C7200000B212F08DFA00FB09F0C51320B212F02E
:10C7300087FA00FB09F0C4134FF4403949465046CC
:10C740000EF063FD8346494650460EF088FD019089
:10C75000494650460EF0BBFD0090494650460EF04B
:10C760001CFDB8F8001030444A19A2EB0B01891BDC
:10C770003980B8F800104A19019931441144B98040
:10C78000B8F802100A190099511A891B7980B8F873
:10C79000021021440844F880BDE8FC9FB5F9300040
:10C7A000B5F93210084400EBD070B5F92E104010E6
:10C7B0008142B0DBADE72DE9F041054600206B8CEE
:10C7C0000E460427C3F3C504EA680EE007EBC00178
:10C7D00051585FEAC11C07D521F07F41B14203D116
:10C7E00052F83000BDE8F081401C8442EED84FF092
:10C7F000806000EB73204FEAF0506884C0F3C500FE
:10C80000C10010460CF02EFCE860C0B3688CC0F389
:10C81000C504641E16D06FF003025300E86802EBF3
:10C82000C40141585FEAC11C0CD489010AD400EB51
:10C83000C40103EBC40C6044641ED0E900C0C1E92C
:10C8400000C0EBD1E868082100EBC4000CF00CFD3F
:10C8500008200CF039FBE96841F8340011F09FF82A
:10C86000EA6807EBC400115841F080711150EA6882
:10C8700066F317011150E86850F83400B2E7FFE79B
:10C88000FEE700002DE9FC410068C068C068B0FB0D
:10C89000F1F5954200DD1546134F78680068806910
:10C8A00000B30020ADF80000ADF80400ADF80200C0
:10C8B0002CB2601E06B2ADF8066078686946006862
:10C8C00082699047684605F0AAFDA84202DD341E41
:10C8D000EFDC01E0002C02DC0020BDE8FC81BDF9AA
:10C8E00006506D1C2846F8E748010020136821B166
:10C8F0005B1E13600BD4806805E05B1C13608068CE
:10C9000041688B4203DA006850F82300704700202A
:10C9100070472DE9FF4F83B0064698468B46059831
:10C92000F7F7B7FB01218140B6F820A001F0FF091D
:10C930006FEA0A0080B2019096F822004FF0FF37AC
:10C94000C0F3800500241BE0F16801EBC4004268DD
:10C95000920141D59DB9042202EBC402895801F429
:10C960007F0159450BD10068817911EA090F06D082
:10C970006A46059910F0E2FF00B1012098BB641CE3
:10C98000708CC0F3C500A042DED825E0F068042218
:10C9900002EBC40200EBC401805800F47F0285B2B0
:10C9A0005A4518D10868817911EA090F13D0019905
:10C9B0000D4210D1BD420EDD6A46059910F0BEFF52
:10C9C00000B1012038B155450DD0AF4203DA0099CE
:10C9D0002F46C8F80010641C708CC0F3C500A0423C
:10C9E000D4D8002F06DB00990120C8F8001007B04A
:10C9F000BDE8F08F0020FAE72DE9F047814642F3C9
:10CA00000006C0F15A001D460F46540800B2761CBD
:10CA100012F016F9A7EB040800FB08F0C71148460E
:10CA200012F00EF900FB08F0C011002F06DD7F3F69
:10CA300039120A1B32442A80214405E07F3739121B
:10CA40000A1B21442A80891BA980002806DD7F3823
:10CA50000012011B31446980204405E07F30001240
:10CA6000011B20446980801BE880BDE8F08700003E
:10CA7000024A002192880EF03FBC000074010020A1
:10CA8000034A10B50021D2890EF036FCC0B210BDA9
:10CA900074010020034A10B50021128A0EF02CFC0C
:10CAA000C0B210BD740100202DE9F0410446002001
:10CAB000678C0D460426C7F3C503E2680AE006EB5F
:10CAC000C00151585FEA811C03D521F07F41A94282
:10CAD00002D0401C8342F2D8834203D002EBC00054
:10CAE000BDE8F0814FF0806000EB77204FEAF05016
:10CAF0006084C0F3C500C10010460CF0B3FAE060DA
:10CB0000608CC0F3C500401E0DD06FF00703E168D4
:10CB100003EBC00601EBC0023144401ED1E90061C5
:10CB2000C2E90061F3D10821E0680CF09DFB082008
:10CB30000CF0CAF9E168086010F031FFE16848685C
:10CB400040F000704860E16865F317004860E068F5
:10CB5000C6E7000038B50C480D46144690F8200092
:10CB60004FF00201C0074FF0120002D010F092F80F
:10CB700001E010F0A7F82246294606F075FC009067
:10CB8000BDF8000038BD0000BC6D00202DE9F04765
:10CB90004FF0000CDDE90964089DDDF82CA0E146AA
:10CBA0006F1EF9B9052A03D0062A01D0042A03D141
:10CBB0000023012D00D10122002106E036F811806A
:10CBC0009C44C4440FFA8CFC491CA942F6D3ACEB3C
:10CBD000030109B2072A2AD2DFE802F004070B2971
:10CBE00021160D00A4F8009021E0411A01EBD1714B
:10CBF00012E0411A11E0411A09B23AB291FBF2F186
:10CC0000A4F800900BB212E0411A09B22AB291FBCB
:10CC1000F2F10BB203EBD3714910218007E0411A06
:10CC20000AB2691C09B292FBF1F10BB22380002118
:10CC30000AE034F8112036F811C0624404EB410CCC
:10CC40001A44ACF80220491CB942F2D304EB450166
:10CC500006EB450231F8021C32F8022C11442288FE
:10CC6000891A0BB2BAF1000F0CD0002108E034F899
:10CC7000112036F81170821AD21B24F81120491C99
:10CC8000A942F4D31846BDE8F08770B58AB00546CE
:10CC9000FFF708FC04462846FFF7EAFE002C5FD0A9
:10CCA00000285DD069462846F8F72CFB0C2107A820
:10CCB0000CF0DAFA2846002141F232020EF01CFB99
:10CCC00004462846002141F612020EF015FB061913
:10CCD0002846002141F610020EF00EFB04442846BF
:10CCE0000DF01DFEA98A3144081AADF8240028462B
:10CCF0000DF01CFEE98A2144081AADF82600002434
:10CD000007E0006807AA694650F8240001F0B6FA67
:10CD1000641CA8684168A142F3D800980CF04CF953
:10CD200001980CF049F902980CF046F903980CF0C0
:10CD300043F9002128460EF0BAFB0446002128469C
:10CD40000EF0D0F942F2D1718C4201D0884202D16A
:10CD500028460FF02AF900222B21284608F0DCFF94
:10CD60000AB070BD2DE9F043394887B0816941F0C0
:10CD700080018161816901F080010691816941F042
:10CD8000800181618069012500F0800006904FF4E8
:10CD900000680326CDE90085DFF8B890CDE902569A
:10CDA00069464846F4F770FFAF0201AA00240097D5
:10CDB00082E8700069464846F4F766FFF9F74EFAD4
:10CDC000002241464846F5F764F80A20F9F7C4FC0A
:10CDD000012241464846F5F75CF80A20F9F7BCFC09
:10CDE000CDE90074CDE9024669464846F4F74CFFA8
:10CDF0006420F9F7B1FC042204A948F2401000F0C5
:10CE000037F88DF8144004A913A0F3F7F9FA15A127
:10CE100004A8F3F7C3FD10B914490A2008700220D2
:10CE20008DF8100048F24005012204A9284600F0C0
:10CE30006DF90A20F9F790FC8DF81040012204A941
:10CE4000284600F063F907B00020BDE8F083000039
:10CE500000100240001C01404354502049443A2530
:10CE6000730D0A0039323731000000002E00002017
:10CE70002DE9F04115460F460446F9F7A7FA282098
:10CE8000F9F770FAF9F7ECFA200AF9F76BFAF9F703
:10CE9000E7FAE0B2F9F766FAF9F7E2FAF9F796FA83
:10CEA0002920F9F75FFAF9F7DBFA00246E1E09E092
:10CEB000B44201D0012000E00020F9F71FFA3855F4
:10CEC000641CE4B2AC42F3D3BDE8F041F9F7A6BA72
:10CED0002DE9F14F82B00026884D8DF804604FF0A7
:10CEE0000A0B6878864C401CC0B2B0FBFBF20BFB0F
:10CEF0001201B04668704FF6FF7A09B10A2873D262
:10CF000048F24E17012202A93846FFF7B1FF9DF8FB
:10CF1000080001060BD5297800F00F00884206D8DA
:10CF20008DF80460012201A9384600F0EFF89DF861
:10CF30000800010758D000F00F012878814253D82B
:10CF40000AFA01F2D143B4F8349041F44041A18689
:10CF500004EB4000A1894181218CC1838DF80460DC
:10CF6000684F86E0A18E0122824011427CD0664942
:10CF7000042231F810006946FFF77AFFB888A0F55F
:10CF8000AA41103908D0A0F5864142392DD0A0F52C
:10CF90008051183941D067E094F84400C00713D09D
:10CFA0009DF800009DF8011000EB01219DF80400A0
:10CFB00004EB400001849DF802109DF8032001EB72
:10CFC0000221C1F548713DE09DF800009DF8011077
:10CFD00000EB01219DF8040004EB400081819DF8E5
:10CFE00002109DF803203CE05EE094F84400C00786
:10CFF000EAD19DF800009DF8011000EB01219DF899
:10D00000040004EB400001849DF802109DF8032009
:10D0100001EB0221C1F5887114E094F844009DF8F9
:10D020000310C0079DF802000ED000EB01219DF80F
:10D03000040004EB400001849DF800109DF80120DD
:10D0400001EB022181810FE000EB0120C0F5487166
:10D050009DF8040004EB400081819DF800109DF8CC
:10D06000012001EB022101849DF80400401C8DF891
:10D0700004009DF8040029788842FFF473AFA0896A
:10D0800039884FF00108884203D8208C798888427B
:10D0900009D99DF8080000F00F0001280BD9E0899C
:10D0A000A081608C20846E709DF8080000F08F00D5
:10D0B00080280DD019E0287804EB40004189A18137
:10D0C000C08B208480208DF80800A4F83490EBE712
:10D0D000A08E010402D520F4004005E0A4F80CA0C5
:10D0E000A4F820A000F46040A0866878F02801D958
:10D0F00085F801B04046BDE8FE8F00002E000020FC
:10D100003000002000040020747F02082DE9F04167
:10D1100015460E4604460027F9F758F92820F9F776
:10D1200021F9F9F79DF9200AF9F71CF9F9F798F9AF
:10D13000E0B2F9F717F9F9F793F9002408E0305D48
:10D14000F9F710F9F9F78CF9070003D1641CE4B280
:10D15000AC42F4D3F9F762F93846BDE8F081417882
:10D16000B9B182788A4214D102798A4211D14279C6
:10D170008A420ED1C27801EB41039A4209D102786A
:10D18000B2EB810F03D28079B0EB810F01D3012084
:10D1900070470020704701460020A1F13002092AA3
:10D1A00001D8D0B27047612901D32039C9B24139C1
:10D1B0000629F7D2DFE801F0030507090B0D0A2065
:10D1C00070470B2070470C2070470D2070470E20D1
:10D1D00070470F207047000010B5114C00228021CD
:10D1E0002046F4F756FE0220F9F7C4FA0122402146
:10D1F0002046F4F74EFE0220F9F7BCFA0022402147
:10D200002046F4F746FE0220F9F7B4FA0122802105
:10D210002046F4F73EFEBDE810400220F9F7AABA16
:10D22000000C0140144810B5816986B041F0080136
:10D230008161816901F008010491816941F008016F
:10D24000816180690D4C00F008000490402000903E
:10D25000112001900120029003200390694620468E
:10D26000F4F712FD8021009169462046F4F70CFD89
:10D2700000F0A2F806B010BD00100240000C014002
:10D2800010B50D4C012280212046F4F702FE022049
:10D29000F9F770FA012240212046F4F7FAFD022046
:10D2A000F9F768FA002240212046F4F7F2FDBDE8C4
:10D2B00010400220F9F75EBA000C01402DE9F04160
:10D2C0000024144E074625466006040E0122402124
:10D2D0003046F4F7DEFD0220F9F74CFA80213046A3
:10D2E000F4F7CAFD08B1641CE4B2002240213046C4
:10D2F000F4F7CFFD0220F9F73DFA6D1CEDB2082DD1
:10D30000E2D327B1FFF768FF2046BDE8F081FFF7C1
:10D31000B7FFF9E7000C014070B5144E0546002434
:10D32000280601D5012200E0002280213046F4F7D2
:10D33000B0FD0220F9F71EFA012240213046F4F731
:10D34000A8FD0220F9F716FA002240213046F4F732
:10D35000A0FD6806641C050EE4B2082CE0D330463C
:10D36000BDE8704001228021F4F793BD000C01401C
:10D3700010B5104C012280212046F4F78AFD0122CD
:10D3800040212046F4F785FD0220F9F7F3F9002249
:10D3900080212046F4F77DFD0220F9F7EBF9002209
:10D3A00040212046F4F775FDBDE810400220F9F752
:10D3B000E1B90000000C014010B50D4C00228021A5
:10D3C0002046F4F766FD0220F9F7D4F90122402146
:10D3D0002046F4F75EFD0220F9F7CCF90122802106
:10D3E0002046F4F756FDBDE810400220F9F7C2B917
:10D3F000000C014070B5164E002425460122802104
:10D400003046F4F746FD0220F9F7B4F90122402135
:10D410003046F4F73EFD0220F9F7ACF907E0641C52
:10D42000E4B2FA2C03D9FFF7C7FF012505E08021FC
:10D430003046F4F721FD0028F1D10022402130468A
:10D44000F4F727FD0220F9F795F9284670BD000092
:10D45000000C01402DE9F0410446406D0D460028C6
:10D460002BD0A968022230F9217002EB8101465EBF
:10D47000A87B01280AD1B4F90C00B84203D1B4F951
:10D480000E00B04202D0201D00F08AFC201D00F0EA
:10D49000EBFC002811D127816681A87B012804F1CB
:10D4A00004000CD000F07CFC201D00F0DDFC002806
:10D4B00003D12089A0816089E081BDE8F08100F07E
:10D4C0007FFBF1E770B5254D0446042168680EF036
:10D4D0000DF8002828D0E16A6868814224D00DF058
:10D4E000A1F80646E06A08B10DF09CF886421CD10E
:10D4F0001EB1686808F0D4FF0FE0E06A40B10F2168
:10D50000AA6808F009FC204600F0AEFC00280BD108
:10D51000D5E901020E2108F0FFFB204600F0A4FC33
:10D52000002801D16868E06270BD78B1E36A53B148
:10D53000AA6888B11021184608F0EEFB204600F0DA
:10D5400093FC0028F0D1002EE2D0D2E7E06A002858
:10D55000F9D00F21AA68EFE70F21ECE7280100209E
:10D560002DE9F0470D460446897B40794FF00008CD
:10D57000012928D0010706D520F00900C4F844800D
:10D58000607184F80880277AA87B20726868E06060
:10D59000D4F850905FEA09007DD008F0DDFFB44E6A
:10D5A0000028706077D0A87B08B1A5F80C804846A9
:10D5B00008F0D2FF706000286DD0A97B012905D04A
:10D5C000002969D00EE1000765D4DCE717B1012F0F
:10D5D00030D007E111F01CF9606469680A2909D0AC
:10D5E00014291AD013291BD01B291DD0484609F035
:10D5F0001DF8F7E070680EF085FA20B91021706808
:10D600000DF074FF08B1012700E00027484608F03C
:10D610009DFF8743D6D1012165E0A889401E01E026
:10D62000A889401CA881DDE01B21484608F0FEFFC8
:10D63000202158E06079C0073FD1606C11F0E2F81A
:10D640002168898B8842607935D940F0010060718A
:10D6500011F0DEF8A06468680A2828D170680EF01E
:10D6600051FA20B9102170680DF040FF00B101207F
:10D6700098B1484608F077FF012818D9484608F0C5
:10D6800065FF80F00101484608F0DBFF202170684B
:10D690000CF00EFB0BE089E02FE0D6E9010205213A
:10D6A00008F03AFB201D00F0DFFB00287ED16079F6
:10D6B00040F0010095E0C0071ED0A06C11F0A2F868
:10D6C0002168C98B884217D911F0A2F8A064696853
:10D6D0000A2907D01429A0D01329A1D0484608F060
:10D6E000A5FF04E00621D6E9010208F015FB201D84
:10D6F00000F0BAFB002859D174E0012F72D169689B
:10D700000A2969D10EF0FEF920B9102170680DF0D8
:10D71000EDFE00B1012080B3484608F017FF002855
:10D7200060794FEAC07052D020B1484608F01BFF24
:10D73000012847D8D6E90102082108F0EDFA201D9A
:10D7400000F092FB002869D1D6E90102042108F01B
:10D75000E3FA201D00F088FB00285FD1D6E9010222
:10D76000072108F0D9FA201D00F07EFB002855D1D2
:10D770000A21484608F05AFF2EE0FFE7D6E90102E9
:10D78000082108F0C9FA201D00F06EFB002845D1E1
:10D790006079C00704D1D6E90102042108F0BCFA7F
:10D7A000201D00F061FB002838D100E036E0D6E90A
:10D7B0000102072108F0B0FA201D00F055FB0028F7
:10D7C0002CD109E0202170680CF072FA04E018B93D
:10D7D0000121484608F035FFC4F84480607920F004
:10D7E00001006071C6F80480A889002816D0484658
:10D7F00008F0ACFE0028B5F90C001ED000280FDAA6
:10D800004FF0000405E04FF01401484608F00EFF09
:10D81000641CB5F90C004042A042F4DCBDE8F0877E
:10D82000FCDD002404E01321484608F0FFFE641CE0
:10D83000B5F90C00A042F6DCF0E700280CDA4FF056
:10D84000000403E0484608F073FE641CB5F90C00C0
:10D850004042A042F6DCE1E7E0DD002403E0484678
:10D8600008F016FE641CB5F90C00A042F7DCD5E701
:10D870002801002070B50446806A002870D194F811
:10D880003D00C0076CD14FF40046256A03E02846EE
:10D890000CF00BFF0546002D62D0314628460DF0F6
:10D8A00025FE0028F3D1B4F91000002801DD01465F
:10D8B00000E041422B4A926813689B7E994209DA44
:10D8C000B4F91210002900DC4942994202DA002121
:10D8D00021876187218F084401B22187608F638A85
:10D8E0000029184400B2608701DD0B4600E04B427E
:10D8F0001668F67EB34206DC002801DD034600E030
:10D900004342B3422CDD012384F83D30002901DD80
:10D910000B4600E04B42002801DD064600E046428F
:10D92000B34209DD94F83C00002920F0F00001DD4D
:10D9300020300AE0103008E0002894F83C0020F085
:10D94000F00001DD803000E0403084F83C000C2124
:10D95000284608F0E1F92046BDE8704000F084BA9E
:10D9600070BD0000280100202DE9F0410D4604465D
:10D97000897B4079002701291DD0010704D520F0BB
:10D980000900676460712772D4F850805FEA08006C
:10D990007ED008F0E1FD5C4E0300736078D0E16852
:10D9A0006868E060207AAA7B2272AA7B012A05D0EF
:10D9B000002A7BD0A5E000076AD4E5E710B1012872
:10D9C00030D09EE010F024FF606469680A2909D015
:10D9D0001B290DD0092915D00B291BD0404608F072
:10D9E00025FE8EE00A21404608F020FE012104E0D9
:10D9F0001B21404608F01AFE2021D6E9010208F05A
:10DA00008BF94BE00021404608F01BFE404608F031
:10DA10003FFD43E00021404608F013FE404608F079
:10DA200087FD3BE068680A2809D102211846B268E0
:10DA300008F072F9201D00F017FA002862D1607911
:10DA4000C00714D1606C10F0DDFE2168898B88421C
:10DA500060790AD940F00100607168680A2850D1E5
:10DA600010F0D6FE0521A064C7E7C00749D0A06C1E
:10DA700010F0C8FE2168C98B884242D910F0C8FE58
:10DA8000A06469680A290FD00929BBD00B2901E0DD
:10DA900038E00BE0BED0404608F0C8FD201D00F085
:10DAA000E3F900282ED12CE00621A6E7012828D191
:10DAB00069600A2920D108211846B26808F02CF9BB
:10DAC000201D00F0D1F900281CD16079C00709D1D0
:10DAD000D6E90102042108F01FF9201D00F0C4F965
:10DAE00000280FD1D6E90102072108F015F9201D01
:10DAF00000F0BAF9002805D16764607920F00100D0
:10DB000060717760BDE8F0812801002070B504469F
:10DB100000680D4609880069218269886182016870
:10DB20000A7CC2F30112022A01D0032A0AD1098811
:10DB30002A88891A491E298001686A884988891AB1
:10DB4000491E69800168097CC1F30111012901D0D6
:10DB5000032907D169882A886A8000684088401AAA
:10DB6000401E28802068006905F022FE20680069B8
:10DB700005F064FEE06C78B1B4F90C20B5F9001042
:10DB80008A4205D1B4F90E20B5F902309A4203D089
:10DB9000B5F902200EF079FE28882081688860811E
:10DBA0002079012804F1040006D000F0F9F820895A
:10DBB000A0816089E08170BD00F002F8F7E7000005
:10DBC0002DE9F041754E0446006A706061780907DE
:10DBD0007DD4B168002509680F6930B1A16A39BBED
:10DBE0004FF400510DF082FC10BB384605F0F6FDF5
:10DBF000211D09F0A8FE706070B9384605F0F6FDE9
:10DC0000211D09F0A0FE706030B9384605F000FE15
:10DC1000211D09F098FE7060606A48B12583658314
:10DC20002046F5F73DFE204600F01EF900284ED1B3
:10DC3000206A716888423CD0A1882181E188618195
:10DC400040B10321B26808F067F8204600F00CF9F3
:10DC500000283CD170682062606250B310F0D8FD9B
:10DC600020646078012120F001006070A582E582C7
:10DC700094F83C0020F0FF0084F83C0084F83D500C
:10DC80002587658725826582D6E9010208F044F878
:10DC9000204600F0E9F800287DD1B06841790907F5
:10DCA00079D4001DFFF70EFC204600F0DDF80028B7
:10DCB00071D1A0882189401A00B22082E18862894E
:10DCC000891A09B26182B4F91820531000E062E0A9
:10DCD000B4F91A2003EB60005210208302EB6100BC
:10DCE0006083A069E0617068002854D00221B268A6
:10DCF00008F012F8204600F0B7F800284BD1B068C1
:10DD00004079000747D42046F5F73EFD204600F055
:10DD1000ABF800283FD12046FFF7ACFD204600F0CD
:10DD2000A3F8002837D1A06A002834D16078C00752
:10DD30001DD1206C10F066FDB2681168898B884295
:10DD40000FD90521706807F0E7FF204600F08CF836
:10DD5000002820D1607840F00100607010F058FD7C
:10DD60006064A06A002816D16078C00713D0606C88
:10DD700010F048FDB2681168C98B88420BD90621A2
:10DD8000706807F0C9FF204600F06EF8002802D145
:10DD900010F03EFD6064BDE8F08100002801002025
:10DDA0002DE9F041044640784FF00007010706D501
:10DDB00027626762276420F00800676460701A4E6B
:10DDC000206A7060A56A18B30821B26807F0A4FF42
:10DDD000204600F049F8002824D1B5B96078C00782
:10DDE00009D1D6E90102042107F096FF204600F090
:10DDF0003BF8002816D1D6E90102072107F08CFF75
:10DE0000204600F031F800280CD1276227646764AF
:10DE1000002D07D02046F5F743FD2046BDE8F04130
:10DE200000F022B8BDE8F081280100204279910776
:10DE300016D5002141628162C1624164816401831F
:10DE4000418390F8403022F0030223F00F0380F862
:10DE500040308183C1838187C1874271014841601D
:10DE600070470000280100204078810702D5034A4E
:10DE700000215160C0F340007047000028010020DD
:10DE80002DE9F843856A0446802128460DF02EFBD3
:10DE90004D4FFE0CC8B128460CF033FD01281DD0B3
:10DEA000022828D0032837D06786E68628460CF05B
:10DEB00021FD012847D0022850D003285AD02786B8
:10DEC000A686208E002872D072E0334639463A4644
:10DED00004F13000009604F02AFBF2E7E88A002300
:10DEE000401C01B232462846FDF716FB6086E88AE0
:10DEF000401E02B209E0B5F91A1000233246284646
:10DF0000FDF70AFB6086B5F91A200023394628463A
:10DF1000FDF702FBE086C9E705F1140004F079FA89
:10DF2000E98A00EBD07001EB600808F1010001B252
:10DF3000002332462846FDF7EFFA6086A8F101007B
:10DF4000002302B2E2E7B5F9141000233246284656
:10DF5000FDF760FA2086B5F9142009E0B5F918102C
:10DF6000002332462846FDF755FA2086B5F91820D9
:10DF7000002315E005F1140004F083FAA98A00EBF0
:10DF8000D07001EB600808F1010001B200233246B5
:10DF90002846FDF73FFA2086A8F10100002302B2CF
:10DFA00039462846FDF736FAA0868AE7FFE7278636
:10DFB000A08E00B9A686608E00B96786E08E002824
:10DFC00000D1E686BDE8F88301E0FFFF2DE9FE4FB2
:10DFD0000E468346112101EB8B0909FB09F0C01D98
:10DFE000C11700EB5170012101EBE0013046F2F75F
:10DFF0008CFC86F800904B460122002106200096FA
:10E00000FCF76FFE01234A46062100200096FCF72C
:10E0100068FE092300211A4608460096FCF761FEB7
:10E02000A9F1080009230822002104460096FCF704
:10E0300058FE08230922214600200096FCF751FED5
:10E0400001A95846FDF774FF074600251BE0002490
:10E05000A7F101080DF1040A12E015B97CB144459D
:10E060000DD0454500D154B100961AF804101AF8A5
:10E07000050005231A46801E891EFCF732FE641C2B
:10E08000BC42EADB6D1CBD42E1DBBBF1070F0FDBDD
:10E09000A9F10B0006230322002104460096FCF799
:10E0A00020FE03230622214600200096FCF719FEDD
:10E0B000BDE8FE8F70B50D4C064600200D460A46A1
:10E0C00020601D21304607F027FE206858B10178F6
:10E0D00039B12946F2F762FC28B1304621680FF0C9
:10E0E000A9FF002070BD012070BD00008802002043
:10E0F0002DE9F04188B01F4614460D4606460DF046
:10E1000033FD002842D0A54240D04FF4B4718D4277
:10E1100002D9A5F5B475ADB28C4202D9A4F5B47498
:10E12000A4B2B08C421995B2204484B28D4202D977
:10E13000A5F5B475ADB28C4202D9A4F5B474A4B2FD
:10E1400007AA04A93046FEF765F9394630460CF0B7
:10E1500058FF80463046394651220DF0CDF800B1C7
:10E16000012005AA00B10120CDE90202BDF81C0082
:10E17000CDE9004882B2BDF91210BDF910002B465E
:10E1800005F0A1FB05A930460DF0AAFC08B0BDE8DA
:10E19000F0811FB5044603AA02A9FEF73BF96B46BE
:10E1A000BDF90C2002A92046FEF796FA69462046E2
:10E1B0000DF096FC1FBD2DE9FF410446A1F57F40FF
:10E1C0000D46FF3858D0208EA84255D9A06A00EBE2
:10E1D000C50102A804F002F9694620460CF0EFF9E7
:10E1E000002120460DF057F80746002120460CF08C
:10E1F000F0FF064620460CF0E9F905F0C7FA0A22BE
:10E2000090FBF2F1B94201DB90FBF2F790FBF2F3E5
:10E2100039B2B34201DB90FBF2F6BDF80020BDF845
:10E220000800531A1844ADF80800BDF80230BDF8D4
:10E230000A009F1B3844BDF80C7000B23A441144E8
:10E24000ADF80C10BDF80E10ADF80A0019443144B9
:10E2500009B2ADF80E10A28EAA4209D1E26A32F8D4
:10E260001520920504D5091A491C401AADF80A0078
:10E2700002A920460DF034FCBDE8FF812DE9F74FDF
:10E280000D4682B00446B1490DF037F900287DD122
:10E290002046FEF719F982462046FEF7FBFB5FEAAF
:10E2A000000973D0BAF1000F70D02046FEF702F9D2
:10E2B00007462046FEF7E4FBDFF894B20646204608
:10E2C0000021BBF80C200DF017F800F0FF082046E5
:10E2D0000021BBF812200DF00FF8C0B201902868A1
:10E2E00007EB0A016FF00103D5F808C030F81720DA
:10E2F00003EB4101405A3CF801100844801A00B277
:10E300000090686806EB090103EB4101EB6830F807
:10E310001620405A595A0844801A0FFA80FB0021EF
:10E3200020460CF08AFE01280AD1B8F1000F03D074
:10E33000B8F1020F02D003E0022000E00020804686
:10E34000208BA18A401A401C0FFA80FA608BE18A68
:10E35000401A401C0FFA80F94046B8F1010F1BD05B
:10E36000022824D02868B8F1030F30F9170028D10B
:10E370008046608CDDF800A040F4806060840198E5
:10E3800001287DD0022879D0032800E0DAE068680F
:10E3900030F9167073D119E029680098A0EB0A00D3
:10E3A00031F8171000EBD07001EB600008E0204658
:10E3B0000DF099F8296831F8172000991144081ACE
:10E3C00000B28046608C20F48060D7E7608CD9462C
:10E3D00040F40070608420460DF085F8504504D16B
:10E3E00020460CF024F9484527D0A08AADF800005B
:10E3F000E08AADF80200208BADF80400608BADF828
:10E40000060020460DF038FB04F114005146054685
:10E4100004F099F84946284604F090F820460DF09B
:10E420002BFB6A462921204607F076FC20460CF09B
:10E430003CF92246222107F06FFC2046002143F2DE
:10E440000C020CF059FF06B22046002143F20D02E7
:10E450000CF052FF05B220460DF045F881462046EB
:10E460000CF0E5F80146C6F3413064224FF4FA633C
:10E470004FF47A7C01281BD027E001E00AE013E08A
:10E480006968ABEB090000EBD07031F8161001EBB6
:10E49000600008E020460CF0CAF8696831F81620E0
:10E4A00002EB0B01081A07B2608C20F4007091E7B0
:10E4B00026F4C040984208DC604501DDC0F57A7062
:10E4C00000FB09F090FBF2F006B2C5F341300128E1
:10E4D0000BD125F4C040984207DC604501DDC0F552
:10E4E0007A70484390FBF2F005B2049A08EB0600FC
:10E4F000791912891044A28A801A05B204984089B9
:10E500000844E18A401A06B255EA06001AD02046AD
:10E510000DF0B2FAA08A2844A082208B28442083E0
:10E52000E08A3044E082608B3044608320460DF006
:10E53000A3FA05B0324629462046BDE8F04F012334
:10E540000DF04ABB05B0BDE8F08F000001000600E9
:10E55000740100202DE9F041064615460F460020C3
:10E5600005E039462046B04701280AD0204611F080
:10E570006BF9040002D060688000F2D10020BDE891
:10E58000F08105B12C600120F9E703880A889342E5
:10E5900001D0981A704740884988401A704703781C
:10E5A0000A78934201D0981A704740784978401A07
:10E5B00070470000F0B5234885B0816941F0400103
:10E5C0008161816901F040010491816941F040015C
:10E5D0008161816901F040010491816941F040014C
:10E5E0008161816901F040010491816941F0040178
:10E5F00081618069002400F004000490102001254E
:10E6000003268DE87100104F69463846F3F73CFB4E
:10E6100008208DE8710069463846F3F735FB042081
:10E620008DE8710069463846F3F72EFB0220039609
:10E630000095CDE9014069460448F3F725FB05B094
:10E64000F0BD000000100240001801400008014029
:10E650002DE9F04100242D4DDFF8B4802D4E012727
:10E6600008B12F7001E02878A0B110213046F3F7EF
:10E6700003FCB0B108213046F3F7FEFB88B104215A
:10E680003046F3F7F9FB60B101214046F3F7F4FBA4
:10E69000012806D010213046F3F7EEFB01281FD0E9
:10E6A00030E00A20F8F758F8002028701021304692
:10E6B000F3F7E2FB00B9012408213046F3F7DCFB55
:10E6C00000B9022404213046F3F7D6FB00B9032435
:10E6D00001214046F3F7D0FB012813D1042411E0B7
:10E6E00008213046F3F7C8FB01280BD1042130463E
:10E6F000F3F7C2FB012805D101214046F3F7BCFB2B
:10E7000000B92F702046BDE8F08100002C000020E9
:10E7100000080140001801402DE9F041044640681E
:10E72000096820F04040884227D12046FDF769FE65
:10E73000DFF84C800546D8F80800021BA0EB050066
:10E74000561BC8F8080015D02746611932463846CE
:10E750000AF0B0FC06E0A068401BA0602046FDF770
:10E7600050FE0444D8F808008442F4D1B819294670
:10E770000AF07AFD0120BDE8F0810020FBE70000EF
:10E780005001002070B5054607F085FA044628467A
:10E7900007F0BFFA06460BF088FF05462A2C01D089
:10E7A000292C0BD1002130460AF04EF9284612F0F0
:10E7B00039F82846BDE8704012F0A0BD70BD0000D9
:10E7C00070B505460BF073FE0646002406E0A86807
:10E7D000006850F82400FFF7F3FF641CB442F6D33E
:10E7E000688CC1071ED020F00100688428460DF017
:10E7F000DCFB28460DF0F3FA002E13D0002128464A
:10E800000CF07EFC00280DD007494968884209D8E1
:10E810000649096801EBC00050E902212846BDE81D
:10E820007040104770BD00003C0100201C02002019
:10E8300070B509490646002408884D88214645439D
:10E84000204602F02BFD02F023FF044801E0068081
:10E85000641CAC42FBD370BD000400200008006CB7
:10E860002DE9F04F2B4B2C27194698712B258988C1
:10E870004FF4305A4FF4285B4FF4487441F6631E4E
:10E880002A264FF0F00845F210594FF4A07C4FF4BF
:10E89000F072C8B1A3F800C0A3F80280494533D193
:10E8A000A3F808A0A3F80AB0280298811C805A8017
:10E8B000A1F5A640103802D11A80A3F802C0BDE825
:10E8C000F04F002002F01CBCA3F80080A3F802C0A7
:10E8D000494507D1A3F808A0A3F80AB04FF42C507B
:10E8E000988104E071451F8104D15D819E811A8069
:10E8F0005C8001E05E819D81A1F5A6401038DED1EB
:10E90000A3F800C05A80DAE71F815E8171459D81BE
:10E91000CCD0CDE7000400202DE9FF4F8046002435
:10E920001546032082B00F46A0EB450651E0781B48
:10E9300081B208EB040A01901FFA8AF0059A00F0F0
:10E94000B5F8381B009081B208EB05091FFA89F071
:10E95000059A00F0ABF807EB040B1FFA8BF11FFAD6
:10E9600089F0059A00F0A2F807EB05091FFA89F172
:10E970001FFA8AF0059A00F099F8A8EB040A1FFA2A
:10E9800089F11FFA8AF0059A00F090F8A8EB0509C2
:10E990001FFA8BF11FFA89F0059A00F087F80198A9
:10E9A000059A81B21FFA8AF000F080F80098059A63
:10E9B00081B21FFA89F000F079F8641C002E03DAA6
:10E9C00006EB8406B61D04E0601B06EB80066D1E98
:10E9D0000A36AC42ABDD06B0BDE8F08F70B5121A56
:10E9E000521C95B25A1A521C94B289B280B2234674
:10E9F0002A46049E02F0CAFC654302F049FE002448
:10EA000004E036F8140002F02BFE641CAC42F8D38C
:10EA100070BD2DE9FE4F0026A2EB000882465F1A6A
:10EA2000701E35468946B8F1000F02DD4FF0010136
:10EA300002E003D14FF00001019102E0C8F10008AB
:10EA40000190002F02DD4FF0010002E003D14FF0F2
:10EA50000000009002E0C7F1000700904046B84572
:10EA600001DD044600E03C46601C4FF0000B0290C4
:10EA700016E01FFA89F11FFA8AF00C9A00F016F8D6
:10EA800046443D44A64202DD0199361B8A44A54214
:10EA900002DD00992D1B89440BF101001FFA80FB58
:10EAA00002998B45E5DDBDE8FE8F000010B51446E8
:10EAB00002F0F4FB02F0ECFD0148048010BD000000
:10EAC0000008006C10B5CF2002F0D6FD002002F047
:10EAD000C7FDC12002F0C4FD302002F0C1FDED20D1
:10EAE00002F0CAFD642002F0BBFD032002F0B8FD75
:10EAF000122002F0B5FD812002F0B2FDE82002F004
:10EB0000BBFD852002F0ACFD102002F0A9FD7A20AB
:10EB100002F0A6FDCB2002F0AFFD392002F0A0FDEF
:10EB20002C2002F09DFD002002F09AFD342002F01E
:10EB300097FD022002F094FDF72002F09DFD2020B9
:10EB400002F08EFDEA2002F097FD002002F088FD21
:10EB5000002002F085FDC02002F08EFD1B2002F097
:10EB60007FFDC12002F088FD012002F079FDC52063
:10EB700002F082FD302002F073FD302002F070FDC3
:10EB8000C72002F079FDB72002F06AFD362002F0BE
:10EB900073FD482002F064FD3A2002F06DFD55201F
:10EBA00002F05EFDB12002F067FD002002F058FD8A
:10EBB0001A2002F055FDB62002F05EFD0A2002F098
:10EBC0004FFDA22002F04CFDF22002F055FD002086
:10EBD00002F046FD262002F04FFD012002F040FD2C
:10EBE000E02002F049FD0F2002F03AFD2A2002F059
:10EBF00037FD282002F034FD082002F031FD0E2000
:10EC000002F02EFD082002F02BFD542002F028FD1A
:10EC1000A92002F025FD432002F022FD0A2002F087
:10EC20001FFD0F2002F01CFD002002F019FD002046
:10EC300002F016FD002002F013FD002002F010FD8E
:10EC4000E12002F019FD002002F00AFD152002F07B
:10EC500007FD172002F004FD072002F001FD11203E
:10EC600002F0FEFC062002F0FBFC2B2002F0F8FC78
:10EC7000562002F0F5FC3C2002F0F2FC052002F0E8
:10EC8000EFFC102002F0ECFC0F2002F0E9FC3F202A
:10EC900002F0E6FC3F2002F0E3FC0F2002F0E0FC73
:10ECA0002B2002F0E9FC002002F0DAFC002002F048
:10ECB000D7FC012002F0D4FC3F2002F0D1FC2A2036
:10ECC00002F0DAFC002002F0CBFC002002F0C8FCCD
:10ECD000002002F0C5FCEF2002F0C2FC112002F07F
:10ECE000CBFC7820F7F738FDBDE81040292002F072
:10ECF000C3BC10B5ED2002F0BFFC012002F0B0FC57
:10ED0000FE2002F0ADFCEE2002F0B6FCDE2002F0A8
:10ED1000A7FC212002F0A4FCF12002F0ADFC0120B0
:10ED200002F09EFCDF2002F0A7FC102002F098FC0D
:10ED3000C42002F0A1FC8F2002F092FCC62002F059
:10ED40009BFC002002F08CFCE22002F089FCE22017
:10ED500002F086FCE22002F083FCBF2002F08CFC73
:10ED6000AA2002F07DFCB02002F086FC0D2002F00B
:10ED700077FC002002F074FC0D2002F071FC0020F2
:10ED800002F06EFC112002F06BFC002002F068FC27
:10ED9000192002F065FC002002F062FC212002F044
:10EDA0005FFC002002F05CFC2D2002F059FC0020EA
:10EDB00002F056FC3D2002F053FC002002F050FC13
:10EDC0005D2002F04DFC002002F04AFC5D2002F0C4
:10EDD00047FC002002F044FCB12002F04DFC8020F2
:10EDE00002F03EFC002002F03BFC8B2002F038FCDD
:10EDF000002002F035FC962002F032FC002002F0E8
:10EE00002FFCB22002F038FC002002F029FC002088
:10EE100002F026FC022002F023FC002002F020FC7D
:10EE2000032002F01DFC002002F01AFCB32002F0C7
:10EE300023FC002002F014FC002002F011FC002052
:10EE400002F00EFC002002F00BFC002002F008FC97
:10EE5000002002F005FC002002F002FC002002F07D
:10EE6000FFFB002002F0FCFB002002F0F9FB002079
:10EE700002F0F6FB002002F0F3FB002002F0F0FBB2
:10EE8000002002F0EDFB002002F0EAFB002002F07F
:10EE9000E7FB002002F0E4FB002002F0E1FB002091
:10EEA00002F0DEFB002002F0DBFB002002F0D8FBCA
:10EEB000002002F0D5FB002002F0D2FB002002F07F
:10EEC000CFFBB42002F0D8FB8B2002F0C9FB00205E
:10EED00002F0C6FB962002F0C3FB002002F0C0FB4C
:10EEE000A12002F0BDFB002002F0BAFBB52002F029
:10EEF000C3FB022002F0B4FB002002F0B1FB0320B0
:10EF000002F0AEFB002002F0ABFB042002F0A8FBF5
:10EF1000002002F0A5FBB62002F0AEFB002002F0BC
:10EF20009FFB002002F09CFBB72002F0A5FB002015
:10EF300002F096FB002002F093FB3F2002F090FBD2
:10EF4000002002F08DFB5E2002F08AFB002002F020
:10EF500087FB642002F084FB002002F081FB8C2000
:10EF600002F07EFB002002F07BFBAC2002F078FB7D
:10EF7000002002F075FBDC2002F072FB002002F0A2
:10EF80006FFB702002F06CFB002002F069FB902008
:10EF900002F066FB002002F063FBEB2002F060FB56
:10EFA000002002F05DFBDC2002F05AFB002002F0A2
:10EFB00057FBB82002F060FB002002F051FB00205C
:10EFC00002F04EFB002002F04BFB002002F048FB59
:10EFD000002002F045FB002002F042FB002002F07E
:10EFE0003FFB002002F03CFBBA2002F045FB24204E
:10EFF00002F036FB002002F033FB002002F030FB71
:10F00000002002F02DFBC12002F036FB202002F090
:10F0100027FB002002F024FB542002F021FB0020FB
:10F0200002F01EFBFF2002F01BFB002002F018FB89
:10F03000C22002F021FB0A2002F012FB002002F0A5
:10F040000FFB042002F00CFB002002F009FBC320A0
:10F0500002F012FB3C2002F003FB002002F000FB58
:10F060003A2002F0FDFA002002F0FAFA392002F00C
:10F07000F7FA002002F0F4FA372002F0F1FA00204B
:10F0800002F0EEFA3C2002F0EBFA002002F0E8FA7F
:10F09000362002F0E5FA002002F0E2FA322002F017
:10F0A000DFFA002002F0DCFA2F2002F0D9FA00206B
:10F0B00002F0D6FA2C2002F0D3FA002002F0D0FAA7
:10F0C000292002F0CDFA002002F0CAFA262002F030
:10F0D000C7FA002002F0C4FA242002F0C1FA00208E
:10F0E00002F0BEFA242002F0BBFA002002F0B8FAC7
:10F0F000232002F0B5FA002002F0B2FA3C2002F020
:10F10000AFFA002002F0ACFA362002F0A9FA002093
:10F1100002F0A6FA322002F0A3FA002002F0A0FAD0
:10F120002F2002F09DFA002002F09AFA2C2002F023
:10F1300097FA002002F094FA292002F091FA0020B8
:10F1400002F08EFA262002F08BFA002002F088FAF4
:10F15000242002F085FA002002F082FA242002F036
:10F160007FFA002002F07CFA232002F079FA0020D6
:10F1700002F076FAC42002F07FFA622002F070FA00
:10F18000002002F06DFA052002F06AFA002002F079
:10F1900067FA842002F064FA002002F061FAF0209D
:10F1A00002F05EFA002002F05BFA182002F058FA32
:10F1B000002002F055FAA42002F052FA002002F0DA
:10F1C0004FFA182002F04CFA002002F049FA5020C1
:10F1D00002F046FA002002F043FA0C2002F040FA56
:10F1E000002002F03DFA172002F03AFA002002F067
:10F1F00037FA952002F034FA002002F031FAF320B9
:10F2000002F02EFA002002F02BFAE62002F028FA93
:10F21000002002F025FAC52002F02EFA322002F07A
:10F220001FFA002002F01CFA442002F019FA002014
:10F2300002F016FA652002F013FA002002F010FA2C
:10F24000762002F00DFA002002F00AFA882002F07F
:10F2500007FA002002F004FAC62002F00DFA20207E
:10F2600002F0FEF9002002F0FBF9172002F0F8F995
:10F27000002002F0F5F9012002F0F2F9002002F07E
:10F28000EFF9C72002F0F8F9002002F0E9F90020B8
:10F2900002F0E6F9002002F0E3F9002002F0E0F9C4
:10F2A000C82002F0E9F9002002F0DAF9002002F0AB
:10F2B000D7F9002002F0D4F9002002F0D1F9C920DA
:10F2C00002F0DAF9002002F0CBF9002002F0C8F9D0
:10F2D000002002F0C5F9002002F0C2F9002002F07F
:10F2E000BFF9002002F0BCF9002002F0B9F90020BB
:10F2F00002F0B6F9002002F0B3F9002002F0B0F9F4
:10F30000002002F0ADF9002002F0AAF9002002F07E
:10F31000A7F9002002F0A4F9002002F0A1F90020D2
:10F3200002F09EF9E02002F0A7F9162002F098F909
:10F33000002002F095F91C2002F092F9002002F062
:10F340008FF9212002F08CF9002002F089F9362093
:10F3500002F086F9002002F083F9462002F080F9DD
:10F36000002002F07DF9522002F07AF9002002F02C
:10F3700077F9642002F074F9002002F071F97A2024
:10F3800002F06EF9002002F06BF98B2002F068F9B0
:10F39000002002F065F9992002F062F9002002F0E5
:10F3A0005FF9A82002F05CF9002002F059F9B920B9
:10F3B00002F056F9002002F053F9C42002F050F98F
:10F3C000002002F04DF9CA2002F04AF9002002F0B4
:10F3D00047F9D22002F044F9002002F041F9D92087
:10F3E00002F03EF9002002F03BF9E02002F038F98B
:10F3F000002002F035F9F32002F032F9002002F08B
:10F400002FF9E12002F038F9162002F029F9002046
:10F4100002F026F91C2002F023F9002002F020F966
:10F42000222002F01DF9002002F01AF9362002F025
:10F4300017F9002002F014F9452002F011F900201C
:10F4400002F00EF9522002F00BF9002002F008F948
:10F45000642002F005F9002002F002F97A2002F09F
:10F46000FFF8002002F0FCF88B2002F0F9F80020F1
:10F4700002F0F6F8992002F0F3F8002002F0F0F81C
:10F48000A82002F0EDF8002002F0EAF8B92002F01E
:10F49000E7F8002002F0E4F8C42002F0E1F80020D0
:10F4A00002F0DEF8CA2002F0DBF8002002F0D8F803
:10F4B000D22002F0D5F8002002F0D2F8D82002F0D5
:10F4C000CFF8002002F0CCF8E02002F0C9F80020CC
:10F4D00002F0C6F8F32002F0C3F8002002F0C0F8F2
:10F4E000E22002F0C9F8052002F0BAF8002002F08C
:10F4F000B7F80B2002F0B4F8002002F0B1F81B209E
:10F5000002F0AEF8002002F0ABF8342002F0A8F8C8
:10F51000002002F0A5F8442002F0A2F8002002F03A
:10F520009FF84F2002F09CF8002002F099F861202B
:10F5300002F096F8002002F093F8792002F090F89B
:10F54000002002F08DF8882002F08AF8002002F0F6
:10F5500087F8972002F084F8002002F081F8A620B6
:10F5600002F07EF8002002F07BF8B72002F078F875
:10F57000002002F075F8C22002F072F8002002F0BC
:10F580006FF8C72002F06CF8002002F069F8D12073
:10F5900002F066F8002002F063F8D62002F060F86E
:10F5A000002002F05DF8DD2002F05AF8002002F0A1
:10F5B00057F8F32002F054F8002002F051F8E3204D
:10F5C00002F05AF8052002F04BF8002002F048F84B
:10F5D0000A2002F045F8002002F042F81C2002F058
:10F5E0003FF8002002F03CF8332002F039F8002008
:10F5F00002F036F8442002F033F8002002F030F830
:10F60000502002F02DF8002002F02AF8622002F0CB
:10F6100027F8002002F024F8782002F021F80020DA
:10F6200002F01EF8882002F01BF8002002F018F803
:10F63000972002F015F8002002F012F8A62002F040
:10F640000FF8002002F00CF8B72002F009F80020B3
:10F6500002F006F8C22002F003F8002002F000F8E1
:10F66000C72001F0FDFF002001F0FAFFD12001F0DA
:10F67000F7FF002001F0F4FFD52001F0F1FF00209A
:10F6800001F0EEFFDD2001F0EBFF002001F0E8FFCC
:10F69000F32001F0E5FF002001F0E2FFE42001F09B
:10F6A000EBFF012001F0DCFF002001F0D9FF012079
:10F6B00001F0D6FF002001F0D3FF022001F0D0FFBF
:10F6C000002001F0CDFF2A2001F0CAFF002001F048
:10F6D000C7FF3C2001F0C4FF002001F0C1FF4B2018
:10F6E00001F0BEFF002001F0BBFF5D2001F0B8FF7C
:10F6F000002001F0B5FF742001F0B2FF002001F0FE
:10F70000AFFF842001F0ACFF002001F0A9FF93209F
:10F7100001F0A6FF002001F0A3FFA22001F0A0FF4E
:10F72000002001F09DFFB32001F09AFF002001F0BE
:10F7300097FFBE2001F094FF002001F091FFC4204C
:10F7400001F08EFF002001F08BFFCD2001F088FF3B
:10F75000002001F085FFD32001F082FF002001F09E
:10F760007FFFDD2001F07CFF002001F079FFF32016
:10F7700001F076FF002001F073FFE52001F07CFF2F
:10F78000002001F06DFF002001F06AFF002001F071
:10F7900067FF002001F064FF022001F061FF0020FC
:10F7A00001F05EFF292001F05BFF002001F058FF0F
:10F7B0003C2001F055FF002001F052FF4B2001F0EA
:10F7C0004FFF002001F04CFF5D2001F049FF0020B9
:10F7D00001F046FF742001F043FF002001F040FFDC
:10F7E000842001F03DFF002001F03AFF932001F05A
:10F7F00037FF002001F034FFA22001F031FF00208C
:10F8000001F02EFFB32001F02BFF002001F028FFB4
:10F81000BE2001F025FF002001F022FFC42001F0EE
:10F820001FFF002001F01CFFCD2001F019FF002078
:10F8300001F016FFD32001F013FF002001F010FFAC
:10F84000DC2001F00DFF002001F00AFFF32001F0A1
:10F8500007FF002001F004FFE62001F00DFF11205A
:10F8600001F0FEFE002001F0FBFE342001F0F8FE66
:10F87000002001F0F5FE562001F0F2FE002001F01C
:10F88000EFFE762001F0ECFE002001F0E9FE77208B
:10F8900001F0E6FE002001F0E3FE662001F0E0FE4C
:10F8A000002001F0DDFE882001F0DAFE002001F0EA
:10F8B000D7FE992001F0D4FE002001F0D1FEBB203C
:10F8C00001F0CEFE002001F0CBFE992001F0C8FE31
:10F8D000002001F0C5FE662001F0C2FE002001F00C
:10F8E000BFFE552001F0BCFE002001F0B9FE5520FE
:10F8F00001F0B6FE002001F0B3FE452001F0B0FE9D
:10F90000002001F0ADFE432001F0AAFE002001F02E
:10F91000A7FE442001F0A4FE002001F0A1FEE72094
:10F9200001F0AAFE322001F09BFE002001F098FEBB
:10F93000552001F095FE002001F092FE762001F0A6
:10F940008FFE002001F08CFE662001F089FE002071
:10F9500001F086FE672001F083FE002001F080FEAA
:10F96000672001F07DFE002001F07AFE872001F083
:10F9700077FE002001F074FE992001F071FE002056
:10F9800001F06EFEBB2001F06BFE002001F068FE6E
:10F99000992001F065FE002001F062FE772001F061
:10F9A0005FFE002001F05CFE442001F059FE0020C3
:10F9B00001F056FE562001F053FE002001F050FEEB
:10F9C000232001F04DFE002001F04AFE332001F01B
:10F9D00047FE002001F044FE452001F041FE0020DA
:10F9E00001F03EFEE82001F047FE002001F038FE65
:10F9F000002001F035FE992001F032FE002001F0D8
:10FA00002FFE872001F02CFE002001F029FE882027
:10FA100001F026FE002001F023FE772001F020FEF9
:10FA2000002001F01DFE662001F01AFE002001F00A
:10FA300017FE882001F014FE002001F011FEAA201C
:10FA400001F00EFE002001F00BFEBB2001F008FECD
:10FA5000002001F005FE992001F002FE002001F0D7
:10FA6000FFFD662001F0FCFD002001F0F9FD5520AE
:10FA700001F0F6FD002001F0F3FD552001F0F0FD4E
:10FA8000002001F0EDFD442001F0EAFD002001F02E
:10FA9000E7FD442001F0E4FD002001F0E1FD5520E8
:10FAA00001F0DEFD002001F0DBFDE92001F0E4FDC6
:10FAB000AA2001F0D5FD002001F0D2FD002001F0C8
:10FAC000CFFD002001F0CCFD002001F0D5FDAA20E3
:10FAD00001F0C6FDCF2001F0CFFD002001F0C0FDF8
:10FAE000002001F0BDFD002001F0BAFD002001F072
:10FAF000B7FD002001F0B4FD002001F0B1FD0020B1
:10FB000001F0AEFD002001F0ABFD002001F0A8FDEA
:10FB1000002001F0A5FD002001F0A2FD002001F071
:10FB20009FFD002001F09CFD002001F099FD0020C8
:10FB300001F096FD002001F093FD002001F090FD02
:10FB4000F02001F099FD002001F08AFD502001F025
:10FB500087FD002001F084FD002001F081FD0020E0
:10FB600001F07EFDF32001F087FD002001F078FD1B
:10FB7000F92001F081FD062001F072FD102001F056
:10FB80006FFD292001F06CFD002001F069FD3A2095
:10FB900001F072FD552001F063FD112001F06CFDB4
:10FBA0006420F6F7D9FD292001F066FD352001F02B
:10FBB00063FD002001F054FD512001F05DFDFF20A8
:10FBC00001F04EFD532001F057FD2C2001F048FDBF
:10FBD000552001F051FD822001F042FDBDE81040AA
:10FBE0002C2001F049BD2DE9F05F4FF47043552101
:10FBF000184601F057FD4FF20104AA21204601F0FA
:10FC000051FD651C5221284601F04CFDA61C08211F
:10FC1000304601F047FDE71C0121384601F042FD66
:10FC20000D214FF4304001F03DFD0D214BF201005C
:10FC300001F038FD0D214BF2020001F033FD4FF4CD
:10FC400036483421404601F02DFD34214BF201604D
:10FC500001F028FD34214BF2026001F023FD4FF446
:10FC600031490D21484601F01DFD4BF2011A0D21CD
:10FC7000504601F017FD0D214BF2021001F012FD6C
:10FC80004FF4374B3421584601F00CFD34214BF230
:10FC9000017001F007FD34214BF2027001F002FD0A
:10FCA00000214FF4324001F0FDFC00214BF2012015
:10FCB00001F0F8FC00214BF2022001F0F3FC2421BA
:10FCC0004FF4384001F0EEFC24214BF6010001F026
:10FCD000E9FC24214BF6020001F0E4FC01214FF481
:10FCE0003F4001F0DFFC0F214FF4334001F0DAFC1C
:10FCF0000F214BF2013001F0D5FC0F214BF2023005
:10FD000001F0D0FC34214FF4394001F0CBFC342118
:10FD10004BF6011001F0C6FC34214BF6021001F045
:10FD2000C1FC08214FF4354001F0BCFC08214BF226
:10FD3000015001F0B7FC08214BF2025001F0B2FC77
:10FD400003214FF4424001F0ADFC24214FF43A402E
:10FD500001F0A8FC24214BF6012001F0A3FC242192
:10FD60004BF6022001F09EFC00214FF43C4001F0D4
:10FD700099FC78214BF6014001F094FC00214BF6F0
:10FD8000024001F08FFC00214FF43D4001F08AFC5D
:10FD900078214BF6015001F085FC00214BF6025012
:10FDA00001F080FC00214FF43E4001F07BFC642117
:10FDB0004BF6016001F076FC00214FF4514001F058
:10FDC00071FC33214DF2011001F06CFC00214DF269
:10FDD000021001F067FC34214DF2031001F062FCC7
:10FDE00000214DF2041001F05DFC3A214DF20510A6
:10FDF00001F058FC00214DF2061001F053FC4A219D
:10FE00004DF2071001F04EFC00214DF2081001F0F8
:10FE100049FC5C214DF2091001F044FC00214DF237
:10FE20000A1001F03FFC81214DF20B1001F03AFC69
:10FE300000214DF20C1001F035FCA6214DF20D1001
:10FE400001F030FC00214DF20E1001F02BFCE521F9
:10FE50004DF20F1001F026FC01214DF2101001F0BF
:10FE600021FC13214DF2111001F01CFC01214DF277
:10FE7000121001F017FC54214DF2131001F012FC86
:10FE800001214DF2141001F00DFC82214DF21510EC
:10FE900001F008FC01214DF2161001F003FCCA210B
:10FEA0004DF2171001F0FEFB02214DF2181001F087
:10FEB000F9FB00214DF2191001F0F4FB02214DF283
:10FEC0001A1001F0EFFB01214DF21B1001F0EAFBCB
:10FED00002214DF21C1001F0E5FB34214DF21D1002
:10FEE00001F0E0FB02214DF21E1001F0DBFB672167
:10FEF0004DF21F1001F0D6FB02214DF2201001F04F
:10FF0000D1FB84214DF2211001F0CCFB02214DF2F6
:10FF1000221001F0C7FBA4214DF2231001F0C2FB17
:10FF200002214DF2241001F0BDFBB7214DF2251046
:10FF300001F0B8FB02214DF2261001F0B3FBCF21F6
:10FF40004DF2271001F0AEFB02214DF2281001F016
:10FF5000A9FBDE214DF2291001F0A4FB02214DF294
:10FF60002A1001F09FFBF2214DF22B1001F09AFBB9
:10FF700002214DF22C1001F095FBFE214DF22D10C7
:10FF800001F090FB03214DF22E1001F08BFB1021AC
:10FF90004DF22F1001F086FB03214DF2301001F0DD
:10FFA00081FB33214DF2311001F07CFB03214DF236
:10FFB000321001F077FB6D214DF2331001F072FB2E
:10FFC00000214FF4524001F06DFB33214DF201202E
:10FFD00001F068FB00214DF2022001F063FB3421A7
:10FFE0004DF2032001F05EFB00214DF2042001F0F0
:10FFF00059FB3A214DF2052001F054FB00214DF24E
:020000040801F1
:10000000062001F04FFB4A214DF2072001F04AFB88
:1000100000214DF2082001F045FB5C214DF2092042
:1000200001F040FB00214DF20A2001F03BFB812151
:100030004DF20B2001F036FB00214DF20C2001F0B7
:1000400031FBA6214DF20D2001F02CFB00214DF2D9
:100050000E2001F027FBE5214DF20F2001F022FBDD
:1000600001214DF2102001F01DFB13214DF2112052
:1000700001F018FB01214DF2122001F013FB542175
:100080004DF2132001F00EFB01214DF2142001F07E
:1000900009FB82214DF2152001F004FB01214DF2F4
:1000A000162001F0FFFACA214DF2172001F0FAFAEA
:1000B00002214DF2182001F0F5FA00214DF219202D
:1000C00001F0F0FA02214DF21A2001F0EBFA0121C1
:1000D0004DF21B2001F0E6FA02214DF21C2001F046
:1000E000E1FA34214DF21D2001F0DCFA02214DF23B
:1000F0001E2001F0D7FA67214DF21F2001F0D2FA3D
:1001000002214DF2202001F0CDFA84214DF2212070
:1001100001F0C8FA02214DF2222001F0C3FAA42115
:100120004DF2232001F0BEFA02214DF2242001F00D
:10013000B9FAB7214DF2252001F0B4FA02214DF2AF
:10014000262001F0AFFACF214DF2272001F0AAFAC4
:1001500002214DF2282001F0A5FADE214DF22920DE
:1001600001F0A0FA02214DF22A2001F09BFAF221BF
:100170004DF22B2001F096FA02214DF22C2001F0D5
:1001800091FAFE214DF22D2001F08CFA03214DF25F
:100190002E2001F087FA10214DF22F2001F082FA73
:1001A00003214DF2302001F07DFA33214DF2312050
:1001B00001F078FA03214DF2322001F073FA6D213B
:1001C0004DF2332001F06EFA00214FF4534001F05C
:1001D00069FA33214DF2013001F064FA00214DF249
:1001E000023001F05FFA34214DF2033001F05AFA87
:1001F00000214DF2043001F055FA3A214DF205305C
:1002000001F050FA00214DF2063001F04BFA4A217C
:100210004DF2073001F046FA00214DF2083001F0AE
:1002200041FA5C214DF2093001F03CFA00214DF217
:100230000A3001F037FA81214DF20B3001F032FA29
:1002400000214DF20C3001F02DFAA6214DF20D30B7
:1002500001F028FA00214DF20E3001F023FAE521D9
:100260004DF20F3001F01EFA01214DF2103001F075
:1002700019FA13214DF2113001F014FA01214DF257
:10028000123001F00FFA54214DF2133001F00AFA46
:1002900001214DF2143001F005FA82214DF21530A2
:1002A00001F000FA01214DF2163001F0FBF9CA21EC
:1002B0004DF2173001F0F6F902214DF2183001F03D
:1002C000F1F900214DF2193001F0ECF902214DF263
:1002D0001A3001F0E7F901214DF21B3001F0E2F98B
:1002E00002214DF21C3001F0DDF934214DF21D30B8
:1002F00001F0D8F902214DF21E3001F0D3F9672147
:100300004DF21F3001F0CEF902214DF2203001F004
:10031000C9F984214DF2213001F0C4F902214DF2D6
:10032000223001F0BFF9A4214DF2233001F0BAF9D7
:1003300002214DF2243001F0B5F9B7214DF22530FC
:1003400001F0B0F902214DF2263001F0ABF9CF21D6
:100350004DF2273001F0A6F902214DF2283001F0CC
:10036000A1F9DE214DF2293001F09CF902214DF274
:100370002A3001F097F9F2214DF22B3001F092F979
:1003800002214DF22C3001F08DF9FE214DF22D307D
:1003900001F088F903214DF22E3001F083F910218C
:1003A0004DF22F3001F07EF903214DF2303001F093
:1003B00079F933214DF2313001F074F903214DF216
:1003C000323001F06FF96D214DF2333001F06AF9EE
:1003D00000214FF4544001F065F933214DF2014002
:1003E00001F060F900214DF2024001F05BF9342187
:1003F0004DF2034001F056F900214DF2044001F0A6
:1004000051F93A214DF2054001F04CF900214DF22D
:10041000064001F047F94A214DF2074001F042F948
:1004200000214DF2084001F03DF95C214DF20940F8
:1004300001F038F900214DF20A4001F033F9812131
:100440004DF20B4001F02EF900214DF20C4001F06D
:1004500029F9A6214DF20D4001F024F900214DF2B9
:100460000E4001F01FF9E5214DF20F4001F01AF99D
:1004700001214DF2104001F015F913214DF2114008
:1004800001F010F901214DF2124001F00BF9542155
:100490004DF2134001F006F901214DF2144001F034
:1004A00001F982214DF2154001F0FCF801214DF2D5
:1004B000164001F0F7F8CA214DF2174001F0F2F8AA
:1004C00002214DF2184001F0EDF800214DF21940E3
:1004D00001F0E8F802214DF21A4001F0E3F80121A1
:1004E0004DF21B4001F0DEF802214DF21C4001F0FC
:1004F000D9F834214DF21D4001F0D4F802214DF21B
:100500001E4001F0CFF867214DF21F4001F0CAF8FC
:1005100002214DF2204001F0C5F884214DF2214026
:1005200001F0C0F802214DF2224001F0BBF8A421F5
:100530004DF2234001F0B6F802214DF2244001F0C3
:10054000B1F8B7214DF2254001F0ACF802214DF28F
:10055000264001F0A7F8CF214DF2274001F0A2F884
:1005600002214DF2284001F09DF8DE214DF2294094
:1005700001F098F802214DF22A4001F093F8F2219F
:100580004DF22B4001F08EF802214DF22C4001F08B
:1005900089F8FE214DF22D4001F084F803214DF23F
:1005A0002E4001F07FF810214DF22F4001F07AF833
:1005B00003214DF2304001F075F833214DF2314006
:1005C00001F070F803214DF2324001F06BF86D211B
:1005D0004DF2334001F066F800214FF4554001F030
:1005E00061F833214DF2015001F05CF800214DF229
:1005F000025001F057F834214DF2035001F052F847
:1006000000214DF2045001F04DF83A214DF2055011
:1006100001F048F800214DF2065001F043F84A215C
:100620004DF2075001F03EF800214DF2085001F064
:1006300039F85C214DF2095001F034F800214DF2F7
:100640000A5001F02FF881214DF20B5001F02AF8E9
:1006500000214DF20C5001F025F8A6214DF20D506D
:1006600001F020F800214DF20E5001F01BF8E521B9
:100670004DF20F5001F016F801214DF2105001F02B
:1006800011F813214DF2115001F00CF801214DF237
:10069000125001F007F854214DF2135001F002F806
:1006A00001214DF2145000F0FDFF82214DF2155052
:1006B00000F0F8FF01214DF2165000F0F3FFCA21BF
:1006C0004DF2175000F0EEFF02214DF2185000F0ED
:1006D000E9FF00214DF2195000F0E4FF02214DF234
:1006E0001A5000F0DFFF01214DF21B5000F0DAFF3D
:1006F00002214DF21C5000F0D5FF34214DF21D5067
:1007000000F0D0FF02214DF21E5000F0CBFF672118
:100710004DF21F5000F0C6FF02214DF2205000F0B4
:10072000C1FF84214DF2215000F0BCFF02214DF2A7
:10073000225000F0B7FFA4214DF2235000F0B2FF89
:1007400002214DF2245000F0ADFFB7214DF22550AB
:1007500000F0A8FF02214DF2265000F0A3FFCF21A8
:100760004DF2275000F09EFF02214DF2285000F07C
:1007700099FFDE214DF2295000F094FF02214DF245
:100780002A5000F08FFFF2214DF22B5000F08AFF2B
:1007900002214DF22C5000F085FFFE214DF22D502C
:1007A00000F080FF03214DF22E5000F07BFF10215E
:1007B0004DF22F5000F076FF03214DF2305000F043
:1007C00071FF33214DF2315000F06CFF03214DF2E7
:1007D000325000F067FF6D214DF2335000F062FFA0
:1007E00000214FF4564000F05DFF33214DF20160CF
:1007F00000F058FF00214DF2026000F053FF342159
:100800004DF2036000F04EFF00214DF2046000F055
:1008100049FF3A214DF2056000F044FF00214DF2FE
:10082000066000F03FFF4A214DF2076000F03AFFFA
:1008300000214DF2086000F035FF5C214DF20960A7
:1008400000F030FF00214DF20A6000F02BFF812103
:100850004DF20B6000F026FF00214DF20C6000F01D
:1008600021FFA6214DF20D6000F01CFF00214DF28A
:100870000E6000F017FFE5214DF20F6000F012FF4F
:1008800001214DF2106000F00DFF13214DF21160B7
:1008900000F008FF01214DF2126000F003FF542127
:1008A0004DF2136000F0FEFE01214DF2146000F0E5
:1008B000F9FE82214DF2156000F0F4FE01214DF2A7
:1008C000166000F0EFFECA214DF2176000F0EAFE5C
:1008D00002214DF2186000F0E5FE00214DF2196092
:1008E00000F0E0FE02214DF21A6000F0DBFE012173
:1008F0004DF21B6000F0D6FE02214DF21C6000F0AC
:10090000D1FE34214DF21D6000F0CCFE02214DF2EB
:100910001E6000F0C7FE67214DF21F6000F0C2FEAE
:1009200002214DF2206000F0BDFE84214DF22160D5
:1009300000F0B8FE02214DF2226000F0B3FEA421C7
:100940004DF2236000F0AEFE02214DF2246000F073
:10095000A9FEB7214DF2256000F0A4FE02214DF260
:10096000266000F09FFECF214DF2276000F09AFE36
:1009700002214DF2286000F095FEDE214DF2296043
:1009800000F090FE02214DF22A6000F08BFEF22171
:100990004DF22B6000F086FE02214DF22C6000F03B
:1009A00081FEFE214DF22D6000F07CFE03214DF210
:1009B0002E6000F077FE10214DF22F6000F072FEE5
:1009C00003214DF2306000F06DFE33214DF23160B5
:1009D00000F068FE03214DF2326000F063FE6D21ED
:1009E0004DF2336000F05EFE5521184600F05AFECD
:1009F000AA21204600F056FE5221284600F052FE61
:100A00000821304600F04EFE0021384600F04AFE34
:100A1000CC21484600F046FE0021504600F042FE40
:100A20000521404600F03EFE7021584600F03AFE97
:100A300070214BF2017000F035FE01214FF4384077
:100A400000F030FE03214BF6010000F02BFE0321E5
:100A50004BF6020000F026FE03214BF6030000F0E7
:100A600021FE02214FF43C4000F01CFE00214BF619
:100A7000014000F017FE00214BF6024000F012FE8C
:100A8000D0214FF4494000F00DFE02214CF6011038
:100A900000F008FE50214CF6021000F003FE502139
:100AA0004CF6031000F0FEFD50214CF6041000F04F
:100AB000F9FD00214FF4545000F0F4FD55214FF49E
:100AC000685000F0EFFD4FF4885000F0D5FD78201D
:100AD000F5F750FEBDE8F05F4FF4245000F0CCBDB8
:100AE00010B5E22000F0C8FD1D2000F0B9FD022085
:100AF00000F0B6FD042000F0B3FD6420F5F73AFEE7
:100B0000E02000F0B9FD012000F0AAFD0A20F5F771
:100B100023FEE02000F0B0FD032000F0A1FD0C203A
:100B2000F5F71AFE012000F0A7FD0A20F5F714FEE4
:100B3000E62000F0A1FD2F2000F092FDFF2000F044
:100B40008FFDFF2000F08CFDB02000F095FD2020EF
:100B500000F086FD002000F083FD032000F080FD02
:100B600040F21F3000F07CFD012000F079FD40F2E2
:100B7000DF1000F075FD002000F072FDB42000F0E1
:100B80007BFD042000F06CFD40F21F4000F068FD8A
:100B9000002000F065FD2E2000F062FD002000F036
:100BA0005FFD002000F05CFD002000F059FD0020FA
:100BB00000F056FDB62000F05FFD022000F050FD71
:100BC0004FF4037000F04CFD002000F049FD1720A9
:100BD00000F046FD152000F043FD002000F040FD30
:100BE000002000F03DFDF02000F046FD032000F065
:100BF00037FD292000F040FDD02000F03DFD002011
:100C000000F02EFDBE2000F037FD052000F028FD8D
:100C1000FE2000F025FD012000F022FD002000F064
:100C20001FFD002000F01CFD002000F019FDB82081
:100C300000F022FD032000F013FD012000F010FD64
:100C4000BA2000F019FDBDE81040012000F008BDF9
:100C500010B5112000F010FD7820F5F77DFD36204D
:100C600000F00AFD002000F0FBFC3A2000F004FD3B
:100C7000052000F0F5FCB22000F0FEFC0C2000F096
:100C8000EFFC0C2000F0ECFC002000F0E9FC33202D
:100C900000F0E6FC332000F0E3FCB72000F0ECFCB1
:100CA000352000F0DDFCBB2000F0E6FC322000F037
:100CB000D7FCC02000F0E0FC0C2000F0D1FCC220EA
:100CC00000F0DAFC012000F0CBFCC32000F0D4FCE3
:100CD000102000F0C5FCC42000F0CEFC202000F065
:100CE000BFFCC62000F0C8FC0F2000F0B9FCD020EB
:100CF00000F0C2FCA42000F0B3FCA12000F0B0FC86
:100D0000E02000F0B9FCD02000F0AAFC002000F0A8
:100D1000A7FC022000F0A4FC072000F0A1FC0A20A0
:100D200000F09EFC282000F09BFC322000F098FC94
:100D3000442000F095FC422000F092FC062000F0D8
:100D40008FFC0E2000F08CFC122000F089FC142097
:100D500000F086FC172000F083FCE12000F08CFC02
:100D6000D02000F07DFC002000F07AFC022000F092
:100D700077FC072000F074FC0A2000F071FC2820AA
:100D800000F06EFC312000F06BFC542000F068FC99
:100D9000472000F065FC0E2000F062FC1C2000F0F3
:100DA0005FFC172000F05CFC1B2000F059FC1E20AB
:100DB00000F056FC2A2000F05FFC002000F050FC00
:100DC000002000F04DFC002000F04AFCEF2000F075
:100DD00047FC2B2000F050FC002000F041FC0020DC
:100DE00000F03EFC012000F03BFC3F2000F038FC0E
:100DF000BDE81040292000F03FBC00002DE9F04381
:100E00001F468146A2EB0900079B401C0C4686B298
:100E10009DB2DFF82C800FE02146484600F03EFAF4
:100E200000F036FC0020414602E00D80401C80B2FC
:100E3000B042FAD3641CA4B2BC42EDD9BDE8F08341
:100E40000008006C2DE9F04F9F4893B0816941F490
:100E500080718161816901F480711291816941F031
:100E600020018161816901F020011291816941F0C5
:100E700020018161816901F020011291816941F4B1
:100E800080718161816901F480711291816941F001
:100E90000801816180694FF4805500F008001290CC
:100EA000009502200124CDE901040320874F03901F
:100EB00069463846F0F7E8FE2020DFF814820090FB
:100EC00069464046F0F7E0FE102669464046009627
:100ED000F0F7DAFE694638460094F0F7D5FEDFF801
:100EE000F4B10094694658460194F0F7CDFE7A4972
:100EF0004FF02040784A08607848486006208860B3
:100F00000020C8604E618861C86148628D62C86215
:100F1000A1031163114604AA486388630F21CDE938
:100F20000C010B9011900490CDE905040A900BA9D7
:100F30006948F1F7B1FA3220F5F70EFCD32000F042
:100F40009BFB00F0D3F8644C4834A08000F0CEF84E
:100F5000A08000F0CBF84FF6FF7606EA0020A080D4
:100F600000F0C4F8A18849F241370843A08047F255
:100F7000897545F2103845F2105941F6631AB842A6
:100F800073D0042000F078FB00F0B0F8A08000F0EF
:100F9000ADF8A08000F0AAF806EA0020A08000F0DA
:100FA000A5F8A1880843A0F50541A080523958D082
:100FB000A8425AD0D42000F05FFB00F097F8A08040
:100FC00000F094F8A08000F091F806EA0020A080DC
:100FD00000F08CF8A1880843A080404545D05521F9
:100FE0004FF4704000F05EFBAA214FF2010000F0C8
:100FF00059FB52214FF2020000F054FB08214FF23E
:10100000030000F04FFB01214FF2040000F04AFB07
:101010004FF4454000F030FB00F068F806EA00208D
:10102000A0804CF2015000F027FB00F05FF8A1888F
:101030000843A080484518D0A12000F01DFB00F017
:1010400055F8A08000F052F806EA0020A08000F0D9
:101050004DF8A1880843A0F5AE41A080613902D0C7
:1010600003E0A58001E0A4F804A0A1881CA0EFF78C
:10107000C7F9A088A84202D1FFF7EAFD15E0B842FF
:1010800002D1FDF71FFD10E0404502D1FDF731FE12
:101090000BE0484502D1FEF7A6FD06E0504504D11D
:1010A000FFF71EFD642000F0B5FA0020FDF7D8FB25
:1010B000012211465846F0F7ECFE3046FDF7B8FB2A
:1010C00013B0BDE8F08F0000001002400020014086
:1010D00000140140000C0140B8030020040100A0EE
:1010E0004C43442049443A25780D0A00034808B58A
:1010F0000088ADF80000BDF8000008BD0008006CD5
:1011000070B5654C00232146A279898841F66315A4
:10111000012A01D01AB11BE0A94202D118E0A9426C
:1011200016D1082814D2DFE800F00406080A0C0ED5
:10113000101206200CE007200AE0042008E0052039
:1011400006E0012004E0002002E0032000E002208D
:10115000082812D2DFE800F0110406080A0C0E106D
:1011600080230AE0402308E0C02306E0202304E0B7
:10117000602302E0A02300E0E023362045F2105671
:10118000B14200D10002A1F51342413A03D0A1F5CA
:10119000EE42893A01D143F00803194600F082FA81
:1011A000A288AA420AD098062088618802D588427F
:1011B00002D303E0884201D9218060806089B24275
:1011C00040D100F059FA002000F04AFA6089401C32
:1011D00080B200F051FA002000F042FA6089801CD1
:1011E00080B200F049FA2088401EC0F30F2000F0C2
:1011F00037FA6089C01C80B200F03EFA2078401EA9
:10120000C0B200F02DFAA08900F036FA002000F0FC
:1012100027FAA089401C80B200F02EFA002000F0CE
:101220001FFAA089801C80B200F026FA6088401E58
:10123000C0F30F2000F014FAA089C01C80B200F0A7
:101240001BFA21E000F018FA002000F009FA002053
:1012500000F006FA2088401EC0F30F2000F000FACC
:101260002078401EC0B200F0FBF9A08900F004FA1B
:10127000002000F0F5F9002000F0F2F96088401E2F
:10128000C0F30F2000F0ECF9A078BDE87040401EDC
:10129000C0B200F0E5B9000000040020F0B53A4DFE
:1012A0000C460246060AA9882846270A4089A1F565
:1012B000C853633B16D0A1F5AA43103B4BD000F0B6
:1012C000DBF9304600F0CCF9D0B200F0C9F9A889BA
:1012D00000F0D2F9384600F0C3F9E0B2BDE8F040C2
:1012E00000F0BEB9A97929B300F0C6F9304600F084
:1012F000B7F9D0B200F0B4F92888401EC0F30F202F
:1013000000F0AEF92878401EC0B200F0A9F9A88913
:1013100000F0B2F9384600F0A3F9E0B200F0A0F90D
:101320006888401EC0F30F2000F09AF9A878401E8C
:10133000C0B2D3E72988891A491E8AB200F09CF905
:10134000002000F08DF9002000F08AF9100A00F06A
:1013500087F9D0B2D9E700F08FF9304600F080F974
:101360006889401C80B200F087F9D0B200F078F9AB
:10137000A88900F081F9384600F072F9A889401C6C
:1013800080B200F079F9A8E7000400202DE9F04FC1
:10139000054699461044514E401E01EB09030C4688
:1013A0001FFA80F8B18830465B1E4089A1F5C85C01
:1013B0009FB24FEA142BBCF1630C25D196F806C0FE
:1013C000BCF1010F20D031889FB2891A491B8DB220
:1013D00000F052F9280A00F043F9E8B200F040F9B1
:1013E0002A44521EC2F30F2000F03AF9D0B200F0A6
:1013F00037F9B08900F040F9584600F031F9E0B211
:1014000000F02EF9380A27E004EB09032A44521EA3
:101410005B1EC2F307292A0AA1F5A04CC3F3072AD1
:10142000BCF5A26C1FD000F027F9104600F018F9A7
:10143000E8B200F015F9484600F012F908F0FF0094
:1014400000F00EF9B08900F017F9584600F008F9DD
:10145000E0B200F005F9504600F002F9F8B2BDE83C
:10146000F04F00F0FDB800F007F9104600F0F8F872
:101470007089401C80B200F0FFF8E8B200F0F0F88C
:101480007089801C80B200F0F7F8484600F0E8F858
:101490007089C01C80B200F0EFF808F0FF0000F087
:1014A000DFF8B08900F0E8F8584600F0D9F8B089C4
:1014B000401C80B200F0E0F8E0B200F0D1F8B08952
:1014C000801C80B200F0D8F8504600F0C9F8B0890E
:1014D000C01C80B200F0D0F8C0E70000000400207B
:1014E0002DE9F84F824698460C468B46580700D0A7
:1014F000012000EBD8004FEA58014843C0B2203A1F
:101500000090D0B24146B8F10C0F0AD010290CD08F
:10151000182910D0B8F1200F41D1224901EB8010D9
:1015200006E000EB4000204908E0204901EB0010F4
:101530008146002730E01E4900EBC00001EB80002F
:10154000F6E719F807600025300601D50B9A03E08D
:101550000A9828B91748026821465046FDF7A6FAAE
:101560007006060E1448641CA4B24088A04216D926
:10157000A4EB0B01414509D10AF101001FFA80FAE1
:101580000D485C460188514509D903E06D1CEDB258
:10159000082DD9D37F1CFFB200988742D1D3BDE874
:1015A000F88F0000AA670208EA4F02085E5402089A
:1015B0004E5A020828000020000400202DE9FC4FAC
:1015C000044600F0FF0910190D46DDE90B761FFAFD
:1015D00080F858191FFA80FADDF834B012E044455B
:1015E00002D3E8194C4685B2554510D20021CDE909
:1015F000001B3B4629462046FFF772FF04EB5700CD
:1016000084B2761C3278A2F120005E28E7D9BDE8CA
:10161000FC8F000010B50246BE2000F02DF805201A
:1016200000F01EF8104613F01FF94FF066320B4B16
:1016300013F06AF913F0D4F880B200F011F8012029
:1016400000F00EF8FF2000F00BF8002000F008F882
:10165000BDE81040002000F003B8000066660440BA
:1016600001B5BDF80000ADF80000BDF8000001496B
:10167000088008BD0008006C01B5BDF80000ADF899
:101680000000BDF800000149088008BDFE07006C9D
:1016900002480349008908807047000000040020C8
:1016A000FE07006C024A1080901C01807047000009
:1016B000FE07006C30B5184885B0816941F008011B
:1016C0008161816901F008010491816941F0400163
:1016D00081618069202400F0400004900120CDE960
:1016E0000040029003200D4D039069462846F0F714
:1016F000CBFA00940A4C69462046F0F7C5FA01225D
:1017000020212846F0F7C5FB012220212046F0F7D2
:10171000C0FB05B030BD000000100240000C0140CD
:1017200000180140054C4FF47A7520212046F0F74F
:10173000A8FB284611F076FFF7E70000000C0140F7
:101740002DE9F0478046089D1F46E86900FB01F33C
:101750009B12002806DD934206DD95F828008007DD
:101760000DD489E09342F8DBCB1943439B12002848
:1017700008DD934237DA95F8280080077CD40120F1
:10178000BDE8F0879342F6DCA869521C504340F351
:1017900095000212C0B2FF23002826D06E6AC0F165
:1017A000FF0404FB06F4A3EB2426A2EB0104A146EC
:1017B00036D0002C15DBBC4213DAC0F1FF00C6F1B5
:1017C000FF014843A3EB6020C1B295F828008007D1
:1017D00001D5C1F1FF0118F804000DF0ECFF08F885
:1017E0000400641C1CE0A869D0E74FF0FF06DCE7AA
:1017F000002C10DBBC420EDAA6EB6000C1B295F8FB
:101800002800800701D5C1F1FF0118F804000DF090
:10181000D2FF08F80400686A641C361ABC4202DA77
:10182000686AB042E4DBBC4218DA002C16DBA86917
:10183000704380127043C0F34721E869002801DA41
:10184000C1F1FF0195F82800800701D5C1F1FF0122
:1018500018F804000DF0AFFF08F8040095F8280010
:10186000800707D54946B94506DC00290DDB40460F
:1018700009E001E0641C01D5002081E7BC4204DCE2
:10188000391B08EB040007F0EFFC022078E72DE994
:10189000F05F8A460A9F06461D46B96901FB02F4BD
:1018A000A012002900DD401C97F82830504502DACC
:1018B000980707D4D2E0A0120AEB050C844502DA9F
:1018C00098077ED480E044F39500521C4A4342F3CB
:1018D00095044FEA2029221204F0FF08C0B2A9EBB8
:1018E0000A04914505D0002903DA10B9FF2091467A
:1018F000641E914526D1002C0BDBAC4209DA404432
:101900004108980701D5C1F1FF01305D0DF053FF8B
:10191000305597F82800641C800706D5A9EB0A010A
:10192000A9424EDA8CE0304609E0AC4200DD2C469C
:10193000002C46D005DDA5EB040106EB040007F002
:1019400093FC88E04FF0FF0B002943DAF969494224
:1019500041434FEAA128002C0DDBAC420BDA08FB17
:1019600000F1C1F34721980701D5C1F1FF01305DB6
:101970000DF021FF3055B969A8F1FF0041438812ED
:10198000641E11D4AC420FDAC8F1FF014143ABEB46
:101990006120C1B297F82800800701D5C1F1FF018D
:1019A000305D0DF008FF305597F82800A41C800723
:1019B00008D5A9EB0A01491EA9424CDC0029B2DC7A
:1019C00049E04BE0AC4202DD0120BDE8F09F002C75
:1019D000B1DA40E0F969C0F1FF0041434FEAA128C4
:1019E000002C0EDBAC420CDA00FB08F0ABEB602005
:1019F000C1B2980701D5C1F1FF01305D0DF0DBFEEA
:101A00003055B969C8F1FF0041438912641C0ED4F6
:101A1000AC420CDA4843C0F3472197F8280080070E
:101A200001D5C1F1FF01305D0DF0C5FE305597F8CD
:101A30002800641C800707D5A9EB0A01A9420DDC28
:101A40000029BFF670AF06E0AC4200DD2C46002C4A
:101A500004D03FF770AF4FF00200B6E74FF0000040
:101A6000B3E700002DE9F04107460E464FF00008AD
:101A70001148F2F79EF8044618E021460E48F2F7A6
:101A8000AAF805462068B84200D077B96068B0422D
:101A900000D056B921460848F2F7F5F8204607F07D
:101AA0009DFAF3F7DFF84FF001082C46002CE4D143
:101AB0004046BDE8F0810000106E002070B505467C
:101AC0000C460948F2F775F80BE00168A94204D109
:101AD0004168A14207D0002C05D001460248F2F728
:101AE0007AF80028F1D170BD106E002010B50446C0
:101AF000402107F0B9FB4FF4FA70A0620020E061CA
:101B0000642060620120A0870448A06194F83E0030
:101B100040F0010084F83E0010BD0000571B010892
:101B200038B504464FF480650095D4E90A200023B7
:101B3000194607F0B7F940F2B6334FF4617200214D
:101B4000009500F04EFD0146626AE069121A4A43B0
:101B500000EBA22038BD38B504464FF480600090F9
:101B6000D4E90A200023194607F09CF90146626A6D
:101B7000E069121A4A4300EBA22038BDD0E90A12EC
:101B80008A4201DB406A7047C06970478B1A002B9C
:101B900000DC531A4FF47A714B43B3FBF0F000288A
:101BA00000D101207047000070B54168054611B1B1
:101BB0002868FFF757FF1948F2F75CF8184E10B184
:101BC0000CF026FE70601548F2F718F8040024D0D7
:101BD0004022294607F06EFA2868A84200D1246006
:101BE000717894F83E0061F3820084F83E00C007EB
:101BF0000FD0216939B120468847E1690144E1618C
