:020000040800F2
:1000000000900120550300086F2D0008672D00089F
:100010006B2D00086D190008F53100080000000084
:100020000000000000000000000000009502000831
:100030007119000800000000F1020008712D00088D
:1000400079030008790300087903000879030008A0
:100050007903000879030008790300087903000890
:100060007903000879030008790300087903000880
:100070007903000879030008790300087903000870
:100080007903000879030008790300087903000860
:100090007903000879030008790300087903000850
:1000A0007903000879030008790300087903000840
:1000B0007903000879030008790300087903000830
:1000C0007903000879030008790300087903000820
:1000D00079030008A53100087903000879030008B6
:1000E0007903000879030008790300087903000800
:1000F00079030008790300087903000879030008F0
:1001000079030008790300087903000879030008DF
:100110007903000879030008992D00087903000885
:1001200079030008790300087903000879030008BF
:1001300079030008790300087903000879030008AF
:10014000790300087903000879030008790300089F
:10015000790300087903000879030008790300088F
:10016000790300087903000879030008790300087F
:1001700079030008790300087903000800000000F3
:10018000790300087903000800F002F800F072F823
:100190000AA090E8000C82448344AAF10107DA45E2
:1001A00001D100F067F8AFF2090EBAE80F0013F0C2
:1001B000010F18BFFB1A43F00103184798430400CE
:1001C000B84304000A444FF0000C10F8013B13F050
:1001D000070408BF10F8014B1D1108BF10F8015BA0
:1001E000641E05D010F8016B641E01F8016BF9D193
:1001F00013F0080F1EBF10F8014BAD1C0C1B09D1EA
:100200006D1E58BF01F801CBFAD505E014F8016B5B
:1002100001F8016B6D1EF9D59142D6D370470000ED
:100220000023002400250026103A28BF78C1FBD8FF
:10023000520728BF30C148BF0B607047662938F0AD
:10024000B580642900F06E81782900F0A7817329B8
:1002500000F0C186002070471FB538F0A2F800F00A
:10026000D1FE04000020002137F0DCFCE0601FBD5F
:1002700010B510BD00F084FF1146FFF7EDFF2EF022
:1002800033FF00F0A2FF03B4FFF7F2FF03BC05F059
:1002900003F900002C4B19680868B0E8F04F80F3B0
:1002A0000988BFF36F8F4FF0000080F3118870470B
:1002B0000000000008480068006880F308884FF0DC
:1002C000000080F3148862B661B6BFF34F8FBFF3AE
:1002D0006F8F00DF00BF00BF08ED00E0DFF80C000B
:1002E000016841F470010160704700BF88ED00E0D3
:1002F000EFF30980BFF36F8F134B1A681EF0100FD6
:1003000008BF20ED108A20E9F04F106009B44FF0CB
:10031000500080F31188BFF34F8FBFF36F8F36F01B
:10032000D5FC4FF0000080F3118809BC19680868FB
:10033000B0E8F04F1EF0100F08BFB0EC108A80F349
:100340000988BFF36F8F7047A0000020EFF305808E
:10035000704700000C48016841F4700101600B48CF
:1003600080470B480047FEE7FEE7FEE7FEE7FEE7B3
:10037000FEE7FEE7FEE7FEE7FEE700000548064968
:10038000044A064B7047000088ED00E0852D000808
:1003900089010008008001200090012000800120D8
:1003A000704753EA020C00F069802DE9F04B4FF0E2
:1003B0000006002B1FBFB3FA83F503FA05F424FAF5
:1003C00005F65E4012BF1643B2FA82F502FA05F452
:1003D000C5F120051EBF22FA05FC44EA0C042035B5
:1003E00056EA044C4FEA144418BF641C4FF000084E
:1003F0004FF00009904271EB030C39D3002919BF6B
:10040000B1FA81F701FA07F6B0FA80F700FA07F6B9
:10041000C7F120071EBF20FA07FC46EA0C0620376A
:10042000B6FBF4FCA7EB0507103F07F01F0BCBF161
:1004300020060CFA0BFB2CFA06F644BFB346002646
:10044000202FA4BF5E464FF0000B5BEA060C08BFEE
:100450004FF0010B19EB0B09ABFB027C48EB0608D4
:10046000C01B06FB02CC0BFB03CC71EB0C01C1E7FC
:100470000B46024641464846BDE8F08B13B54FF0A7
:1004800000004FF00001AFF30080BDE81C40704752
:100490000FB4044910B503AA029800F0A1FD10BCE6
:1004A0005DF814FB140000200FB41CB5074B06AA1E
:1004B0007B4469460090059800F063FD0020694682
:1004C00000F072FD1CBC5DF814FB0000F50A000092
:1004D00070B50C460546012A05D02878800600D55F
:1004E000EA69002302E0012305E05B1C934202D28B
:1004F000E05C0028F9D1A869E618C01AA861286A4A
:10050000184428622846AFF3008004E0D5E90121B1
:1005100014F8010B9047B442F8D32846AFF300809B
:1005200070BD00002DE9F0410646002410687529D1
:10053000314616A510D0AFF30080002802DA404201
:1005400013A507E031688A0701D512A502E0490723
:1005500004D511A5012401E0AFF3008000210A2297
:1005600006F1240709E0B0FBF2FCB0FBF2F302FB5A
:100570001C00303078541846491C0028F3D123461B
:100580002A463046BDE8F04100F08DBA0000000078
:100590002D0000002B0000002000000070B5044674
:1005A0000D4621461068AFF300802188090502D569
:1005B0000F4A7A4402E00E4A7A440E32002104F1D6
:1005C000240305E000F00F060009965D5E54491C07
:1005D0000028F7D120780023000704D5702D02D021
:1005E00009B1022311322046BDE8704000F05BBA29
:1005F000863904002DE9F05F894604464FF0000A71
:10060000DFF874B1FB44C0F820A02046E1688847B9
:10061000002874D0252806D0D4E901219047206A0B
:10062000401C2062F1E700265F462046E1688847CB
:100630002028054607DB312D05D2781910F8200C4B
:1006400008B10643F1E7B00701D526F00406C4F867
:100650001CA00027C4F818A02A2D09D0284602F0B3
:100660001DFE38B304EB8708303DC8F8185019E078
:1006700059F8041B204604EB87029161E168884722
:10068000012F054618D1E069002820DA26F020065F
:100690001DE0D8F8180000EB800005EB4000303872
:1006A000C8F818002046E1688847054602F0F6FDC4
:1006B0000028EED1012F0AD02E2D08D12046E16866
:1006C00088477F1C0546022F46F02006C4DBA06940
:1006D000002803DA404246F00106A061F00701D08D
:1006E00026F010066C2D0BD0682D09D04C2D39D07A
:1006F0006A2D35D0742D35D07A2D33D016E038E000
:10070000E1682F4620468847B842054609D16C2F3C
:1007100026D04FF48060E1680643204688470546AE
:1007200004E06C2F1AD04FF4807006430DB3A5F18E
:100730004100192802D8203546F400664A46294669
:10074000204626604E46FFF779FD80B101280BD088
:10075000F61D26F0070000F1080956E74020E4E7FF
:100760008020D8E70020D6E706F104094DE72846A7
:1007700052E7206ABDE8F09F5C39040040EA0103BB
:10078000024630B59B0710D14FF0013400E008C29B
:1007900008C91D1B9D4315EAC41FF8D013F0FF01C3
:1007A00002F8011B0DD01B0AF8E711F8013B002BE2
:1007B00002F8013B05D011F8013B002B02F8013B88
:1007C000F3D130BD10B5431C02E010F8011B71B12C
:1007D0008107FAD14FF0013202C88C1A8C4314EA17
:1007E000C211F9D0C01A0A0603D0C01E10BDC01A2B
:1007F00010BD0A0401D0801E10BD0902FCD0401EAD
:1008000010BD032A40F2308010F0030C00F0158078
:1008100011F8013BBCF1020F624498BF11F801CB03
:1008200000F8013B38BF11F8013BA2F1040298BF68
:1008300000F801CB38BF00F8013B11F0030300F0D2
:100840002580083AC0F0088051F8043B083A51F876
:1008500004CBA0E80810F5E7121D5CBF51F8043B7B
:1008600040F8043BAFF30080D20724BF11F8013BEE
:1008700011F801CB48BF11F8012B24BF00F8013B50
:1008800000F801CB48BF00F8012B704710B5203AA3
:10089000C0F00B80B1E81850203AA0E81850B1E839
:1008A0001850A0E81850BFF4F5AF5FEA027C24BFEF
:1008B000B1E81850A0E8185044BF18C918C0BDE8E6
:1008C00010405FEA827C24BF51F8043B40F8043BAF
:1008D00008BF7047D20728BF31F8023B48BF11F864
:1008E000012B28BF20F8023B48BF00F8012B7047BE
:1008F00002F0FF0343EA032242EA024200F002B898
:100900004FF000020429C0F0128010F0030C00F038
:100910001B80CCF1040CBCF1020F18BF00F8012BB6
:10092000A8BF20F8022BA1EB0C0100F00DB85FEA84
:10093000C17C24BF00F8012B00F8012B48BF00F850
:10094000012B70474FF0000200B5134694469646BF
:10095000203922BFA0E80C50A0E80C50B1F12001D2
:10096000BFF4F7AF090728BFA0E80C5048BF0CC080
:100970005DF804EB890028BF40F8042B08BF7047DE
:1009800048BF20F8022B11F0804F18BF00F8012B50
:10099000704700004FF0013C50F8042B51F8043B25
:1009A0009A4221D1A2EB0C03934313EACC1317D143
:1009B00050F8042B51F8043B9A4215D1A2EB0C03DA
:1009C000934313EACC130BD150F8042B51F8043B9A
:1009D0009A4209D1A2EB0C03934313EACC13DBD068
:1009E0004FF00000704700BFD01A01BAB1FA81F190
:1009F00001F0180122FA01F0CB40C1F12001DBB275
:100A0000C0B2C01A2CFA01F3D11A914311EAC311F2
:100A1000E6D17047704770477047704730B5B0F106
:100A20000A024FEA900E71F100034EEA817EB0EBAC
:100A30000E0061EB91014FEA101E4EEA017E10EBB1
:100A40000E0041EB11114FEA102E4EEA016E10EB31
:100A50000E0041EB11214FEA104E4EEA014E10EB11
:100A60000E0041EB1141401841F100014FEAD00066
:100A700040EA41704FEAD10110EB80054FEA810452
:100A800044EA907444EB01046D1944EB0404521BD6
:100A9000A3414FF0000348BF0A3200D530BD401CCF
:100AA00041F1000130BD2DE9F0470D4699469246CF
:100AB000044600F124080168880604D5E06921F0A5
:100AC0001001216000E00120A84201DD471B00E089
:100AD0000027A1697A1902EB0900081AA0612078A1
:100AE000C00602D42046AFF30080002608E0D4E917
:100AF00001211AF806009047206A401C761C2062EB
:100B00004E45F4DB2078C0060AD52046AFF30080BE
:100B100006E0D4E9012130209047206A401C206281
:100B2000381EA7F10107F4DC07E0D4E9012118F829
:100B300005009047206A401C2062281EA5F101058F
:100B4000F3DC2046AFF300802078000602D50220B7
:100B5000BDE8F0870120FBE770472DE9FF4F0C4609
:100B60001E464FF0FF378BB0D2E90001DDF8608000
:100B70000A908A46C1F30A5505B93D460021084648
:100B80004FF00000BAF1000F00F4400005DA00EB6E
:100B900080004FF4400101EA50004FEA9059B9F14A
:100BA000010F00DDB9460A9850EA4A000ED044F61B
:100BB0001050A5F2FF3545432F14B8F1000F1ED099
:100BC0007542291E1EDDC9F100021CE0B8F1010FBB
:100BD0004FF0000001D0302103E0F24305E0215442
:100BE000401CB042FBDB30460022002121540B990F
:100BF000C1F80880C1E900200FB0BDE8F08FBD1B2F
:100C00006D1CDEE74A4600DA694206A800F03EFAAB
:100C100006AB93E8070003AB83E8070050460A9948
:100C200000F0DCFA8DE80700A0F500501F380090B6
:100C30000398002D0ADD42F21F014A4608440023B2
:100C400003A90390684600F045FD09E0A0F50050B7
:100C50004A461F38002303A90390684600F04FFD61
:100C60008DE807000004000C03D04FF0FF3041086E
:100C700000E01046B8F1000F03D0002200921546A4
:100C80001EE0751E05D4FFF7C9FE303262556D1E99
:100C9000F9D5B3460122084302D000227F1C04E0AC
:100CA0002078302801D100227F1E002A099784D0A5
:100CB0001DE0112D07DAFFF7B1FE303262556D1CD1
:100CC00050EA0102F5D1084302D00098C8B10EE005
:100CD0000021681E05E0235C625C63542254401EC0
:100CE000491C8142F7DBAB46A81B401E099000203F
:100CF00004F80B000B98099AC0F80880C0E9002B93
:100D00007AE711264FF0000857E72DE9F04F8846A3
:100D10000446D21D22F0070191B0D1E90001CDE9CE
:100D20000A0102F069FA02460B98C00F01D02D208B
:100D300007E02068810701D52B2002E0202101EA8D
:100D4000C000032A099001D0072A05DB034641466B
:100D5000204600F05BF90BE12078800601D5E069C0
:100D600000E00620B8F1650F814606D0B8F1660FA5
:100D700018D0B8F1670F70D131E00020B9F1110F30
:100D8000009001DB112301E009F101030AAA01A986
:100D90000CA8FFF7E2FEDDE90C70002609F1010561
:100DA000834647E001204B4600904FF000470AAAD7
:100DB00001A90CA8FFF7D1FEDDE90DB00C995D4645
:100DC000002610B909F101000D18B9EB050003D494
:100DD000C0F1FF3609F10105A5EB09002BE0B9F1DF
:100DE000010F01DA4FF001090020B9F1110F009055
:100DF000484601DD112300E003460AAA01A90CA818
:100E0000FFF7ABFEDDE90C704D46002683462078E7
:100E100000070AD4AB4500DA5D4601A8012D04DDC8
:100E2000411911F8011C302907D04F4502DA17F19A
:100E3000040F04DA012082460FE06D1EEEE7002F5A
:100E400002DCED1B3E4403E0781CA84200DD7D1C63
:100E5000B81B00F1010A4FF000472078000703D4C7
:100E6000AA4501DB4FF0FF3A0021B7F1004F0DF129
:100E700043088DF8431024D002202B23002F01DAE1
:100E80007F422D230A21021EA0F1010000DC5FB188
:100E900097FBF1FC97FBF1F201FB1C7C17460CF170
:100EA000300C08F801CDEEE7A8F1010003702188AD
:100EB000090501D5452100E06521A0F1010800F8F0
:100EC000011C09980FA9A1EB0807FF1D00B1012023
:100ED000411901EBEA70A1693844081A401EA0616B
:100EE0002078C00602D42046AFF30080099828B1CC
:100EF000D4E901219047206A401C20622078C00676
:100F000022D52046AFF300801EE0002E04DBB3455F
:100F100002DD01A8805D00E03020D4E90121904786
:100F2000206A401C2062761CAAF101005FEA000AD8
:100F30000AD100F067F8C0680168405CD4E901217B
:100F40009047206A401C2062281EA5F10105DCDCC8
:100F500007E0D4E9012118F8010B9047206A401CF2
:100F60002062381EA7F10107F3DC2046AFF30080B2
:100F7000032011B041E6000001694A1C02610878B3
:100F8000704700B58FB0CDE90131002105910549C9
:100F90007944CDE9031011466846FFF72BFB0FB0EB
:100FA00000BD0000E5FFFFFF0A6802F8010B0A60C0
:100FB000704710B5436913B1AFF3008001E0FFF74C
:100FC00087FA012010BD127800F124010A70002276
:100FD0004A700122EDE711684FF0FF32E9E70000A7
:100FE000074B70B50D467B44FFF7CBFF0446284600
:100FF00000F0BEF810B14FF0FF3070BD204670BD5C
:101000009F0A010000487047BC7F01202DE9F04194
:101010001F46044603260168072A01F4006004DB2A
:1010200008B116A505E016A503E008B115A500E076
:1010300015A521F010002060A069C01EA0610FB1AD
:10104000401EA0612046AFF300804FB1D4E90121DA
:1010500038469047206A401C2062C01C206206E08F
:10106000206AFAE7D4E9012115F8010B9047761EB2
:10107000F8D22046AFF30080BDE8F0814E414E002B
:101080006E616E00494E4600696E66002DE9F047BC
:10109000814616468AB0354878440DC88DE80D0063
:1010A00032487844801C03AC0DC884E80D0041F63A
:1010B0009B300844372190FBF1F290FBF1F5A5F14C
:1010C000800501FB12041B3C02D56442012000E0B4
:1010D0000020DFF898A080460027FA44AAF1BE0A53
:1010E0000EE0E0070AD03246684607EB47010123CD
:1010F0000AEB810100F003FB8DE8070064107F1C00
:10110000002CEED1194F7F44AE3F19E0E80715D00F
:1011100007EB04100DF1180A90E80E008AE80E00A3
:10112000C068F04201D1981908903246012306A9FF
:1011300003A800F0E4FA03AB83E807006D10641C19
:10114000002DE3D14FF0010332466946B8F1000F9C
:1011500003A802D000F0BEFA01E000F0D0FAC9E91D
:101160000001C9F808200AB0BDE8F087582F040034
:10117000007B00F080007047004870479C7F012092
:101180007546FFF7F9FFAE4605006946534620F065
:101190000700854618B020B5FFF7F0F8BDE82040FD
:1011A0004FF000064FF000074FF000084FF0000B23
:1011B00021F00701AC46ACE8C009ACE8C009ACE8D6
:1011C000C009ACE8C0098D46704710B50446AFF3BE
:1011D00000802046BDE81040FFF755B85FEA400C9C
:1011E00008BF91F0000F4FEA8C234FEAC12243EA77
:1011F00051514FEA1C5018BF00F5F0404FEA300043
:1012000018BF41F000415FEA6C5C00F02980BCF13E
:10121000FF3F08BF40F080407047130C06BF120428
:101220004FF0100C4FF0000C130E04BF12020CF123
:10123000080C130F04BF12010CF1040C930F04BF30
:1012400092000CF1020CD30F04BF52000CF1010C00
:1012500011464FF00002A0F11F00A0EB0C007047F8
:1012600011F0004F08BF704731F000413FF4D5AF97
:101270000B0C06BF09044FF0100C4FF0000C0B0EC6
:1012800004BF09020CF1080C0B0F04BF09010CF19B
:10129000040C8B0F04BF89000CF1020CCB0F04BFB0
:1012A00049000CF1010CCCF12003A0EB0C0022FA58
:1012B00003F302FA0CF241EA030100F10100704766
:1012C00020F07F4C80EA030023F07F47ACEB07035C
:1012D00003F57C5300F0004003F1FF032DE9804942
:1012E0004FEA154B09B44FEA144325EA0B4E24EAA2
:1012F00003480FF2042606EB132749083E785FEAFD
:10130000320203FB0667C7F5000707FB06F64FEA44
:1013100054374FEAD64606F1020607FB066CCCF1BD
:10132000005C4FEA1C472CEA074C07FB06F40CFB59
:1013300006F504EB15464FEA961634BF00204FF031
:1013400000404FEAD13706FB07FC4FEA1C4C0CFB70
:101350000BF7D21B03FB0CF761EB07010CFB0EF73D
:10136000B0EB074072EB17420CFB08F734BFA2EB5F
:101370000742B2EB074261EB17414FEA0C444FEAD8
:10138000910706FB07FC4FEA1C4C0CFB0BF7B0EB7C
:10139000C74072EB573203FB0CF734BFA2EBC742D6
:1013A000B2EBC74261EB57310CFB0EF7B0EBC70055
:1013B00072EB57720CFB08F734BFA2EBC702B2EB1B
:1013C000C70261EB5771039F4FEA816141EA9211B5
:1013D00004EBCC044FEAD1374FEA826206FB07FCEC
:1013E00042EA90124FEA80604FEA1C4C0CFB0BF76C
:1013F000D21B03FB0CF761EB07010CFB0EF7B0EB04
:10140000074072EB17420CFB08F734BFA2EB074210
:10141000B2EB074261EB17414FEA8C554FEA910757
:1014200004EB9C2406FB07FC4FEA1C4C0CFB0BF75F
:10143000B0EBC74072EB573203FB0CF734BFA2EBA3
:10144000C742B2EBC74261EB57310CFB0EF7B0EB72
:10145000C70072EB57720CFB08F734BFA2EBC70250
:10146000B2EBC70261EB577115EB4C254FEA816176
:1014700041EA92114FEA82624FEAD13742EA901272
:1014800006FB07FC44F100044FEA80604FEA1C4C65
:101490000CFB0BF7D21B03FB0CF761EB07010CFBFA
:1014A0000EF7B0EB074072EB17420CFB08F734BFA6
:1014B000A2EB0742B2EB074261EB174115EB1C159B
:1014C0004FEA813141EA92414FEA823242EA904248
:1014D0004FEA80304FEA0C7644F1000448EA0343B7
:1014E0004EEA0B484FF0000EB2EB080C71EB03070D
:1014F00024BF624639464EEB0E0E4FF0000B00182B
:10150000524149414BEB0B0BB2EB080C71EB03075B
:101510007BF1000B24BF624639464EEB0E0E4FF0B6
:10152000000B0018524149414BEB0B0BB2EB080C7E
:1015300071EB03077BF1000B24BF624639464EEB8B
:101540000E0E51EA020718BF46F0010616EB0E76A2
:1015500055F1000254F1000103D5BDE88901BDE851
:101560000088BDE88901BDE80048B619524141EB49
:101570000101A3F10103704780807F7E7D7C7B7A2F
:101580007978777676757473727171706F6E6E6D2F
:101590006C6C6B6A6A6968686766666564646363D5
:1015A00062616160605F5F5E5E5D5D5C5C5B5B5A5B
:1015B0005A595958585757565655555554545353C8
:1015C00052525251515050504F4F4F4E4E4D4D4D23
:1015D0004C4C4C4B4B4B4A4A4A494949484848476E
:1015E00047474746464645454544444444434343AC
:1015F0004342424242414141002B9C4630D4770055
:101600002BD01CB54FEA370703B44FF010004FF052
:101610001001BAF1000F06D0BCF1000FDCBF40F0A2
:10162000080040F008014FF000000FBCBDE810407A
:101630000BF1010BBBF1010F08BF5FEA170722BFD7
:1016400012F1010211F101014FF0004143F10003D9
:1016500000F0004043EA00007047F9D35708D0E794
:1016600046EA064613F1400F4FEA16461FDD13F116
:10167000200FDFBF16430A46002120335B42BED055
:10168000C3F1200746EA064602FA07F74FEA164674
:1016900046EA0706C3F1200722FA03F201FA07F728
:1016A00021FA03F14FF0000342EA0702A7E746EAF6
:1016B000020646EA06464FEA164646EA0106BCBF5F
:1016C00046EA0646360C4FF000034FF000024FF09A
:1016D000000194E72DE9804C9A46934670B491E856
:1016E000380007C831EA400C48BF34EA430C03D540
:1016F000FFF7E6FDFFF780FFF0BCBDE8008C2DE9A9
:10170000804C9A46934670B491E8380007C810F0B0
:10171000804F08BF13F0804F03D100F005F8FFF7AA
:101720006BFFF0BCBDE8008C20F07F4780EA03002F
:1017300023F07F4C07EB0C03A3F57C5300F0004033
:10174000A3F1FE0392F0000F00F0B38095F0000FBC
:1017500000F077802DE901494FEA11404FEA144625
:1017600021EA004800FB06FC24EA064708FB06F6CF
:1017700007FB08F800FB07F718EB06484CEB164C84
:101780004FEA124B18EB07484FEA15464CEB17404F
:1017900022EA0B4E0BFB06FC25EA06470EFB06F67B
:1017A00007FB0EFE0BFB07F71EEB064E4CEB164C31
:1017B0004FF000061EEB074E4CEB174B18EB0B08D7
:1017C00040F1000018EB0E0B58EB000840F1000050
:1017D0008F1A4FF000013CBFC943661B14BFB5EB25
:1017E000040C00213CBFC943F61B4FEA17444EEAE4
:1017F0008E0E27EA04454FEA1C4704FB07622CEAD9
:10180000074C05FB07F70CFB05F604FB0CFC16EB7D
:10181000074642EB174216EB0C4642EB1C421BEB11
:10182000060658EB0202414146EA9E0601D5BDE894
:101830000189B619524141EB0101A3F10103BDE851
:1018400001894FEA14454FEA114724EA054621EA87
:10185000074C05FB07F406FB07F70CFB06F105FB3D
:101860000CFC11EB074144EB17444FEA124711EB14
:101870000C4144EB1C4422EA074C05FB07F206FB33
:1018800007F70CFB06F605FB0CFC16EB074642EBD4
:10189000174216EB0C4642EB1C456A1854F1000146
:1018A00048BF7047B619524141EB0101A3F1010352
:1018B000704795F0000F37D04FEA11424FEA1447B6
:1018C00021EA024624EA074C02FB07F106FB07F770
:1018D0000CFB06F402FB0CFC14EB074441EB174134
:1018E0004FEA154714EB0C4441EB1C4125EA074C29
:1018F00002FB07F506FB07F70CFB06F602FB0CFCE8
:1019000016EB074645EB174516EB0C4645EB1C421C
:10191000121951F1000148BF7047B619524141EB0D
:101920000101A3F1010370474FEA14454FEA114743
:1019300024EA054621EA074C05FB07F106FB07F7F9
:101940000CFB06F24FF0000605FB0CFC12EB074205
:1019500041EB174112EB0C4251EB1C4148BF704761
:10196000921841EB0101A3F10103704700BFFEE7AC
:101970007047000070B504461D460023B5F5804F42
:1019800013D154F822300C480340D1E9000640EA54
:1019900006108E6840EA06208E8940EA06408E696D
:1019A0003043034344F8223003E06FF0704044F8C2
:1019B0002200002070BD00000000F0CF10B50346EB
:1019C0000022086853F8202012480240D1E901049F
:1019D0002043CC6820430C6920434C6920438C6928
:1019E0002043CC6920430C6A20434C6A20438C6A14
:1019F0002043CC6A2043CC6B20430C6B2043024332
:101A00008868082801D142F04002086843F8202085
:101A1000002010BD8000F0FF30B503460024501CAC
:101A200053F8204004F04044D1E9000540EA051095
:101A30008D6840EA05208D8940EA0545088A401EE8
:101A400045EA0055087D801E45EA00608D692843FF
:101A50000443501C43F82040002030BD70B50446BC
:101A6000A56D00F085F9064694F83500022808D0E7
:101A70008020606500BF002084F8340000BF012092
:101A800070BD2068006820F016002168086020689A
:101A9000406920F0800021684861206C08B9A06C82
:101AA00028B12068006820F00800216808602068DC
:101AB000006820F00100216808600FE000F058F98C
:101AC000801B05280AD92020606500BF002084F80B
:101AD000340000BF032084F83500D1E72068006897
:101AE00000F001000028E9D194F85C103F20884004
:101AF000A86000BF002084F8340000BF012084F8F3
:101B000035000020BCE7014691F83500022803D0DB
:101B10008020486501207047052081F8350008685D
:101B2000006820F001000A6810600020F3E7000060
:101B3000F8B502460B460025002400200021DEE017
:101B4000012606FA01F51E6806EA0504AC4275D1C5
:101B50001E7906F00306012E04D01E7906F0030656
:101B6000022E13D190684F000326BE40B0434F00B1
:101B7000DE68BE4030439060506801268E40B0431E
:101B80001E79C6F300168E40304350601E7906F071
:101B90000306032E09D0D0684F000326BE40B04391
:101BA0004F009E68BE403043D0601E7906F00306A9
:101BB000022E13D1CF0802F1200656F827004E0757
:101BC000F70E0F26BE40B0434F07FF0E1E69BE4002
:101BD0003043CF0802F1200646F8270010684F0076
:101BE0000326BE40B0431E7906F003064F00BE40F8
:101BF000304310605E6806F08056B6F1805F7DD19C
:101C000000BF00260096404E366846F480463E4FA0
:101C10003E603E46366806F48046009600BF00BF30
:101C20003A4E8F0856F827008E07370F0F26BE4012
:101C3000B043374EB24202D1002624E05EE0354E7A
:101C4000B24201D101261EE0334EB24201D102263A
:101C500019E0324EB24201D1032614E0304EB242B6
:101C600001D104260FE02F4EB24201D105260AE031
:101C70002D4EB24201D1062605E02C4EB24201D1D2
:101C8000072600E008268F073F0FBE4030431F4E57
:101C90008F0846F82700264E3068A0435E6806F499
:101CA0008036B6F5803F00D12043214E3060361D8E
:101CB0003068A0435E6806F40036B6F5003F00D1F8
:101CC00020431B4E361D3060361D3068A0435E68D1
:101CD00006F48016B6F5801F00D12043144E083656
:101CE0003060361D3068A0435E6806F40016B6F515
:101CF000001F00D120430E4E0C363060491C1029C5
:101D0000FFF41EAFF8BD000044380240083801401F
:101D1000000002400004024000080240000C0240A3
:101D2000001002400014024000180240001C024053
:101D3000003C0140024613690B400BB1012000E05A
:101D40000020704710B5426921EA020302EA01044B
:101D500043EA0443836110BD0AB1816101E00B04D1
:101D60008361704701480068000C7047002004E060
:101D700001480068704700001C000020034800680C
:101D80000349097808440149086070471C00002095
:101D90002400002010B50A48006840F4007008498B
:101DA00008600846006840F480600860032000F086
:101DB0007FF80F2000F006F800F02AF8002010BD90
:101DC000003C024070B504460E4800784FF47A712A
:101DD000B1FBF0F00C490968B1FBF0F5284600F0C2
:101DE0009BFC08B1012070BD102C07D200222146B7
:101DF000501E00F01EF80548046001E00120F2E7E3
:101E00000020F0E724000020000000202000002037
:101E1000704701460846002809DB00F01F03012235
:101E20009A4043099B0003F1E023C3F8002100BF5F
:101E300070472DE9F05F80460D461646002701F0F9
:101E4000F3F9074639462A46334601F00700C0F148
:101E5000070ABAF1040F02D94FF0040A01E0C0F1F9
:101E6000070AD14600F1040ABAF1070F02D24FF077
:101E7000000A01E0A0F1030AD4464FF0010A0AFA71
:101E800009FAAAF1010A0AEA020A0AFA0CFA4FF060
:101E9000010B0BFA0CFBABF1010B0BEA030B4AEA4B
:101EA0000B042146404601F0C7F9BDE8F09F000051
:101EB00000BF00F00702064B19684FF6FF031940F8
:101EC000044B0B4343EA0221014B196000BF7047EA
:101ED0000CED00E00000FA0570B504460D460CB9A3
:101EE000012070BD5848006800F00700A84209D2E0
:101EF00055490D700846006800F00700A84201D05F
:101F00000120EEE7207800F0020002281DD12078A1
:101F100000F00400042805D14C48006840F4E0506B
:101F20004A490860207800F00800082805D1474891
:101F3000006840F46040454908604448006820F06B
:101F4000F000A168084341490860207800F00100D2
:101F5000A8B36068012807D13C4808380068C0F37E
:101F60004040B8B90120BCE76068022802D0606830
:101F7000032807D1354808380068C0F3406048B9E5
:101F80000120AEE7314808380068C0F3400008B9C6
:101F90000120A6E72D48006820F00300616808438F
:101FA0002A490860FFF7E4FE064609E0FFF7E0FE75
:101FB000801B41F28831884202D9032091E707E073
:101FC0002248006800F00C006168B0EB810FEDD191
:101FD0001D48006800F00700A84209D91A490D7091
:101FE0000846006800F00700A84201D0012078E709
:101FF000207800F00400042807D11448006820F479
:10200000E050E168084311490860207800F00800BA
:10201000082808D10D48006820F46040216940EA92
:10202000C1000A49086000F03FF808490968C1F397
:102030000311074A515CC840064908600648006819
:10204000FFF7C0FE00204CE7003C02400838024089
:10205000B083030800000020200000200148006831
:10206000704700000000002000B5FFF7F7FF0449AB
:102070000968C1F38221034A515CC84000BD0000D9
:1020800008380240C083030800B5FFF7E7FF0449A2
:102090000968C1F34231034A515CC84000BD0000E9
:1020A00008380240C08303082DE9F04700240025CA
:1020B0000026A1462548006800F00C0020B1042845
:1020C00005D008283AD105E0DFF8849039E0DFF840
:1020D000849036E01D48001F006800F03F041B4854
:1020E000001F006800F4800078B11A481749091FE2
:1020F0000968C1F38811A0FB017001462246002344
:102100003846FEF74EF905460EE011480F49091F03
:102110000968C1F38811A0FB017001462246002323
:102120003846FEF73EF905460848001F0068C0F330
:102130000140401C4600B5FBF6F902E0DFF81090C4
:1021400000BF00BF4846BDE8F087000008380240E5
:102150000024F40000127A00F8B504460CB90120FE
:10216000F8BD207800F00100002874D0F94800681C
:1021700000F00C0004280DD0F648006800F00C00B8
:10218000082813D1F348001F006800F48000B0F560
:10219000800F0BD1EF4808380068C0F3404000289A
:1021A00059D06068002856D10120D9E700BF606887
:1021B000B0F5803F08D1E7480838006840F4803027
:1021C000E449083908601EE06068B0F5A02F0DD121
:1021D000E0480838006840F48020DE49083908608B
:1021E0000846006840F4803008600CE0D9480838A0
:1021F000006820F48030D749083908600846006834
:1022000020F48020086000BF606890B1FFF7B0FD47
:10221000054606E0FFF7ACFD401B642801D903200A
:102220009EE7CC4808380068C0F340400028F1D051
:1022300011E0FFF79DFD054606E0FFF799FD401B05
:10224000642801D903208BE7C24808380068C0F32E
:1022500040400028F1D1207800F0020002285FD130
:10226000BC48006800F00C0058B1BA48006800F0A3
:102270000C0008281CD1B748001F006800F480003B
:10228000B0B9B44808380068C0F3400020B1E06835
:10229000012801D0012063E7AE480838006820F02B
:1022A000F800216940EAC100AA490839086037E00E
:1022B000E06800B30120A8490860FFF759FD054612
:1022C00006E0FFF755FD401B022801D9032047E730
:1022D000A04808380068C0F340000028F1D09D48AD
:1022E0000838006820F0F800216940EAC1009949E7
:1022F0000839086014E0002097490860FFF738FDAE
:10230000054606E0FFF734FD401B022801D90320F3
:1023100026E7904808380068C0F340000028F1D153
:10232000207800F0080008282CD16069A8B10120AD
:102330008A490860FFF71CFD054606E0FFF718FD17
:10234000401B022801D903200AE782486C3000684C
:10235000C0F340000028F1D014E000207F4908605D
:10236000FFF706FD054606E0FFF702FD401B0228C9
:1023700001D90320F4E677486C300068C0F34000D0
:102380000028F1D1207800F00400042870D1002743
:1023900070483830006800F0805090B900BF0020CD
:1023A00000906C483830006840F0805069493831FE
:1023B00008600846006800F08050009000BF00BF31
:1023C00001276748006800F48070B0B9644800686D
:1023D00040F4807062490860FFF7CAFC054606E0D9
:1023E000FFF7C6FC401B022801D90320B8E65C4871
:1023F000006800F480700028F2D000BFA0680128B7
:1024000008D154486830006840F0010051496831F3
:1024100008601DE0A06805280DD14E4868300068AE
:1024200040F004004B49683108600846006840F0FD
:10243000010008600CE047486830006820F00100A7
:102440004449683108600846006820F004000860CC
:1024500000BFA068A8B1FFF78BFC054609E0FFF7B5
:1024600087FC401B41F28831884202D9032077E67D
:1024700026E0384868300068C0F340000028EED0FD
:1024800013E0FFF775FC054608E0FFF771FC401B01
:1024900041F28831884201D9032061E62D48683035
:1024A0000068C0F340000028EFD1012F07D1294870
:1024B0003830006820F0805026493831086000BF6D
:1024C000A069002845D02348006800F00C000828C7
:1024D0005DD0A069022845D100201F490866FFF79A
:1024E00047FC054606E0FFF743FC401B022801D9E4
:1024F000032035E6174808380068C0F3406000281C
:10250000F1D1D4E907010843616A40EA811101224F
:10251000A06AC2EB500041EA00412C20005D41EA74
:1025200000600C49091F086001200B490866FFF78D
:102530001FFC054606E0FFF71BFC401B022801D9E3
:1025400003200DE6034808380068C0F34060002807
:10255000F1D049E00838024000004742800E47426F
:1025600000700040002021490866FFF701FC054685
:1025700006E0FFF7FDFB401B022801D90320EFE531
:102580001B480068C0F340600028F2D12CE0A0692D
:10259000012800D1E4E51648001D0668A06901285D
:1025A00020D006F48001E06981421BD106F03F0192
:1025B000206A814216D147F6C0703040616AB0EBA4
:1025C000811F0FD106F440310122A06AC2EB5000F6
:1025D000B1EB004F06D106F070612C20005DB1EB2D
:1025E000006F01D00120BBE50020B9E500004742A3
:1025F0000038024070B504460E4615460CB901205D
:1026000070BD94F8490028B9002084F8480020469D
:1026100000F01CF804F108012068FFF7CFF93146FB
:10262000A2682068FFF7F8F92946236BD4E9010274
:10263000FFF7A0F9A168206850F8210040F00100E0
:10264000A268216841F822000020D9E710B586B0C1
:10265000044600BF002000902248006840F00100BE
:10266000204908600846006800F00100009000BFA3
:1026700000BF00BF002000901A480838006840F0F2
:1026800008001849083908600846006800F008008A
:10269000009000BF00BF00BF002000900846006807
:1026A00040F0100008600846006800F0100000903C
:1026B00000BF00BF4CF20370019002200290012085
:1026C0000390022004900C20059001A90648FFF712
:1026D0002FFA4FF68070019001A90448FFF728FAFD
:1026E00006B010BD38380240000C02400010024015
:1026F000042808D14FF0E021096941F004014FF0AE
:10270000E022116107E04FF0E021096921F00401A6
:102710004FF0E0221161704770B504462546681EEF
:10272000B0F1807F01D301200FE0681E4FF0E0215F
:1027300048610F214FF0FF3000F07EFD00204FF088
:10274000E021886107200861002070BD7047704754
:10275000704710B5044620680069C0F34000D8B146
:102760002068C068C0F34000B0B16FF0020021687B
:102770000861012020772068806900F0030018B10B
:102780002046FFF7E5FF05E0204600F0ADF82046C3
:1027900000F0ABF80020207720680069C0F38000CB
:1027A000D8B12068C068C0F38000B0B16FF00400F9
:1027B00021680861022020772068806900F4407059
:1027C00018B12046FFF7C4FF05E0204600F08CF862
:1027D000204600F08AF80020207720680069C0F3C6
:1027E000C000D8B12068C068C0F3C000B0B16FF0BD
:1027F000080021680861042020772068C06900F083
:10280000030018B12046FFF7A3FF05E0204600F0C3
:102810006BF8204600F069F80020207720680069F6
:10282000C0F30010D8B12068C068C0F30010B0B188
:102830006FF0100021680861082020772068C069C7
:1028400000F4407018B12046FFF782FF05E02046F3
:1028500000F04AF8204600F048F800202077206871
:10286000006900F0010058B12068C06800F0010064
:1028700030B16FF0010021680861204600F036F8A1
:1028800020680069C0F3C01058B12068C068C0F368
:10289000C01030B16FF08000216808612046FFF75A
:1028A00055FF20680069C0F3801058B12068C068E7
:1028B000C0F3801030B16FF04000216808612046FD
:1028C00000F015F820680069C0F3401058B1206886
:1028D000C068C0F3401030B16FF02000216808617B
:1028E0002046FFF734FF10BD7047704770477047B0
:1028F0007047704701460022002391F83D2091F86F
:102900003E3042EA030070472DE9F84F0446206844
:1029100005682068C668206847694FF00009CA4604
:1029200005F00F09B9F1000F0AD105F0200038B108
:1029300006F0200020B1204600F06BFABDE8F88FC9
:10294000B9F1000F72D007F0010018B906F49070C9
:1029500000286BD005F0010030B106F4807018B18A
:10296000206C40F00100206405F0040030B107F055
:10297000010018B1206C40F00200206405F0020054
:1029800030B107F0010018B1206C40F00400206461
:1029900005F0080048B106F0200010B907F001006A
:1029A00018B1206C40F008002064206C70B305F072
:1029B000200028B106F0200010B1204600F029FACE
:1029C00020684069C0F3801A206C00F0080010B93C
:1029D000BAF1000F23D0204600F0F0F920684069DA
:1029E00000F04000402816D12068406920F04000E7
:1029F00021684861A06B50B15648A16B0865A06B77
:102A0000FFF781F810B1A06B016D88470CE02046FC
:102A1000FFF76FFF08E02046FFF76BFF04E020465A
:102A2000FFF767FF0020206488E7FFE7206B01289D
:102A300079D105F01000002875D006F010000028AC
:102A400071D000BF002000902068006800902068CE
:102A50004068009000BF00BF2068406900F040005F
:102A6000402839D1A06B006840681FFA80F8B8F19F
:102A7000000F30D0A08D40452DDDA4F82E80A06B36
:102A8000C069B0F5807F1FD02068C06820F48070D6
:102A90002168C8602068406920F001002168486111
:102AA0002068406920F0400021684861202084F8B7
:102AB0003E00002020632068C06820F010002168DC
:102AC000C860A06BFEF7CAFFA08DE28D801A81B2AC
:102AD0002046FFF70DFF31E7A08DE18D401A1FFA68
:102AE00080F8E08DE8B1B8F1000F1AD02068C06816
:102AF00020F490702168C8602068406920F00100CF
:102B000021684861202084F83E000020206320686E
:102B1000C06820F010002168C86041462046FFF7D9
:102B2000E7FE0BE7FFE705F0800030B106F080001C
:102B300018B1204600F005FB00E705F0400030B179
:102B400006F0400018B1204600F053F9F6E600BF49
:102B5000F4E60000A92D000810B504460CB90120C8
:102B600010BDA06900B100E000BF94F83D0028B995
:102B7000002084F83C00204600F028F8242084F847
:102B80003D002068C06820F400502168C8602046DD
:102B900000F09EF92068006920F4904021680861E7
:102BA0002068406920F02A00216848612068C068D8
:102BB00040F400502168C86000202064202084F880
:102BC0003D0084F83E000020CAE7000010B586B042
:102BD00004462E492068884255D100BF00BF00201E
:102BE00000902B48006840F0100029490860084612
:102BF000006800F01000009000BF00BF00BF00BFE1
:102C000000BF0020009022481438006840F0010006
:102C10001F49143908600846006800F00100009060
:102C200000BF00BF00BF00BF00BF002000900846EB
:102C3000006840F0010008600846006800F00100EC
:102C4000009000BF00BF00BF481501900220029015
:102C500001200390022004900720059001A90D484F
:102C6000FEF766FF4FF4806001900720059001A9F0
:102C70000848FEF75DFF2520FFF7CBF80322114639
:102C80002520FFF7D6F806B010BD00000010014067
:102C9000443802400000024070B504460D46164616
:102CA00094F83E00202816D105B10EB9012070BD60
:102CB00000BF94F83C00012801D10220F7E7012071
:102CC00084F83C0000BF002020633246294620469D
:102CD00000F014FAEBE70220E9E700001D4A016862
:102CE000914236D11C49098801F4004189BB1A4937
:102CF000098801F4804171B1184909780A2903D083
:102D00000021154A118024E01349098841F400414B
:102D1000114A11801DE0114909780D2906D10E498B
:102D2000098841F480410C4A118012E00B4909786E
:102D3000094A1288C2F30D02094B995406490988C1
:102D4000491C054A118011460988C72901DD002167
:102D50001180704700100140180000201A00002068
:102D600020030020704700BFFEE700BFFEE770476A
:102D700010B5FFF703F834F0E9FB012801D034F077
:102D8000AFF910BD0348006840F4700001490860C5
:102D90007047000088ED00E010B50248FFF7D9FC4D
:102DA00010BD00008C04002070B50546AC6B0020FF
:102DB000E085E0842046FFF79CFD70BD0168C9688E
:102DC00021F490710268D1600168496921F0010124
:102DD00002685161016B012905D10168C96821F0C0
:102DE00010010268D160202180F83E1000210163AB
:102DF000704710B504462068C06820F04000216884
:102E0000C860202084F83D002046FFF7ABFF00207B
:102E100010BD70B5044694F83E00222856D1A06833
:102E2000B0F5805F0CD1206950B90025A66A2068F2
:102E30004068C0F308003080A06A801CA06215E0E2
:102E4000A56A0026A068B0F5805F03D0A06828B905
:102E5000206918B920684068287004E0206840683C
:102E600000F07F002870A06A401CA062E08D401E28
:102E700080B2E08540BB2068C06820F02000216857
:102E8000C8602068C06820F480702168C86020682D
:102E9000406920F0010021684861202084F83E004C
:102EA000206B01280AD12068C06820F0100021683A
:102EB000C860A18D2046FFF71BFD02E02046FFF70A
:102EC0000DFF0020206370BD0020FCE70220FAE720
:102ED0002DE9F84F04462068006920F44050E1686D
:102EE0000843216808612169A068084361690843B3
:102EF000E169084300902068C06849F20C6188438A
:102F0000009908432168C8602068406920F4407037
:102F1000A16908432168486176492068884203D046
:102F200075492068884203D1FFF7AEF8814602E078
:102F3000FFF79AF88146E069B0F5004F6CD10220A6
:102F40006168A0FB015003461920A9FB00700146EF
:102F50002A463846FDF725FA6421B0FBF1F04FEA26
:102F6000001A02206168A0FB01510B461920A9FB41
:102F700000712A463846FDF714FA8346022061683C
:102F8000A0FB015003461920A9FB00712A463846D0
:102F9000FDF707FA6421B0FBF1F000EBC00101EB93
:102FA0000010ABEB8000322101EBC0006421B0FBCC
:102FB000F1F000F0F8000AEB400A02206168A0FB83
:102FC000015003461920A9FB007001462A463846E5
:102FD000FDF7E7F9834602206168A0FB0150034634
:102FE0001920A9FB00712A463846FDF7DAF9642159
:102FF000B0FBF1F000EBC00101EB0010ABEB800087
:10300000322101EBC0006421B0FBF1F000F00700B9
:103010005044216888606AE004206168A0FB015088
:1030200003461920A9FB007001462A463846FDF7E1
:10303000B8F9824604206168A0FB015003461920BC
:10304000A9FB007001462A463846FDF7AAF964211B
:10305000B0FBF1F000EBC00101EB0010AAEB800027
:10306000322101EB00106421B0FBF1F000F0F00A16
:1030700004206168A0FB017003461920A9FB0051E0
:103080003A462846FDF78DF96421B0FBF1F00AEBD2
:10309000001A04206168A0FB01510B461920A9FB0E
:1030A00000712A463846FDF77CF9834604206168A2
:1030B000A0FB015003461920A9FB007001462A46D7
:1030C0003846FDF76EF96421B0FBF1F000EBC0016A
:1030D00001EB0010ABEB8000322101EB001064210A
:1030E000B0FBF1F000F00F00504421688860BDE8AB
:1030F000F88F0000001001400014014010B5034695
:1031000099629A85DA8500201864222083F83E00AF
:1031100000BF002083F83C0000BF1868C06840F47E
:1031200080701C68E0601868406940F001001C680D
:1031300060611868C06840F020001C68E0600020F2
:1031400010BD014691F83D00212828D18868B0F5CE
:10315000805F0BD1086948B90A6A1088C0F308007B
:103160000B685860086A801C086205E00B6A581CEE
:10317000086218780B685860C88C401E80B2C884FA
:1031800058B90868C06820F080000B68D8600868EB
:10319000C06840F040000B68D860002070470220F3
:1031A000FCE7000070B500240F4D1048FFF7ACFBA2
:1031B00000BF03E0641CAC4200D904E00B48FFF7F9
:1031C00099FB2028F6D100BF002403E0641CAC4228
:1031D00000D906E0012206490448FFF75DFD0028FA
:1031E000F4D100BF70BD0000FFFF0100E803002024
:1031F0001A00002000BFFEE703B4019841000098C8
:1032000050EAC12018BF04204A0D18BF40F0010049
:1032100040F2FF72B2EB515F08BF40F0020001289C
:1032200008BF052002B0704702480068C0F30220C2
:10323000704700000CED00E010B5002804DB0A0721
:10324000130E054A135406E00A07140E034A00F051
:103250000F031B1FD45410BD00E400E018ED00E084
:1032600070B50446002508E02168481C20600878F5
:10327000303805EB850100EB41052168087800F046
:1032800004F80028F0D1284670BD0146302903DB40
:10329000392901DC012070470020FCE730380A287A
:1032A00001D20120704700207047000010B5402176
:1032B000074801F0E3FA0022042106482BF0B2F897
:1032C0000549086002F002FE00200449087010BDA4
:1032D000D0C50020995F00089C02002098020020C1
:1032E00030B50346B1F90040B2F90050AC4202DDFE
:1032F000B1F9004001E0B2F900401C80B1F9024090
:10330000B2F90250AC4202DDB1F9024001E0B2F97B
:1033100002405C80B1F90440B2F90450AC4202DAD8
:10332000B1F9044001E0B2F904409C80B1F90640D3
:10333000B2F90650AC4202DAB1F9064001E0B2F946
:103340000640DC800120B3F90040B3F90450AC42E0
:1033500005DCB3F90240B3F90650AC4200DD0020B1
:1033600030BDF8B504460D4616460027B4F90000F6
:10337000B5F90010884212DBB4F90200B5F9021069
:1033800088420CDBB4F90400B5F90410884206DC6D
:10339000B4F90600B5F90610884200DC01270FB920
:1033A0000020F8BD0EB90120FBE72088ADF8000031
:1033B0006088ADF8020032466946284600F0A7F85A
:1033C00008B90020EDE7A088ADF800006088ADF8EE
:1033D000020032466946284600F099F808B90020F4
:1033E000DFE72088ADF80000E088ADF80200324643
:1033F0006946284600F08BF808B90020D1E7A0887C
:10340000ADF80000E088ADF8020032466946284673
:1034100000F07DF808B90020C3E70120C1E70246AB
:10342000B2F90000B1F90430984213DCB2F904009B
:10343000B1F9003098420DDBB2F90200B1F9063063
:10344000984207DCB2F90600B1F90230984201DB7C
:10345000012070470020FCE7F8B504460D461646EB
:10346000B4F90400B5F90010884211DBB4F9060084
:10347000B5F9021088420BDBB4F90000B5F904106D
:10348000884205DCB4F90200B5F90610884201DD76
:103490000120F8BD0EB90020FBE72088ADF8000040
:1034A0006088ADF8020032466946284600F02FF8E1
:1034B00008B10020EDE7A088ADF800006088ADF805
:1034C000020032466946284600F021F808B1002083
:1034D000DFE72088ADF80000E088ADF80200324652
:1034E0006946284600F013F808B10020D1E7A0880B
:1034F000ADF80000E088ADF8020032466946284683
:1035000000F005F808B10020C3E70120C1E72DE96C
:10351000FC5F05460E4614464FF0000AB6F900005F
:10352000B5F90010884213DBB6F90000B5F90410B4
:1035300088420DDCB6F90200B5F90210884207DBBB
:10354000B6F90200B5F90610884201DC4FF0010A15
:10355000BAF1000F02D10020BDE8FC9F002C01DC75
:103560000120F9E7284616F030FE834600EBDB70B9
:103570004710284616F0A1FD834600EBDB704FEAAA
:103580006008474501DA384600E0404681464C4530
:1035900000DD4C462888ADF800002888204400B2A1
:1035A000ADF804006888ADF802006888204400B2D5
:1035B000ADF80600002231466846FFF7A8FF80B14B
:1035C000BDF80400204400B2ADF80400BDF80600C8
:1035D000204400B2ADF806003146684627F06EFA86
:1035E000BAE7E888001B00B2ADF80200E888ADF841
:1035F0000600002231466846FFF789FF80B1BDF81A
:103600000400204400B2ADF80400BDF80200001B25
:1036100000B2ADF802003146684627F04FFA9BE74A
:10362000A888001B00B2ADF80000A888ADF804001F
:10363000002231466846FFF76AFF80B1BDF80000FE
:10364000001B00B2ADF80000BDF80200001B00B284
:10365000ADF802003146684627F030FA7CE768880A
:10366000ADF802006888204400B2ADF806000022E0
:1036700031466846FFF74BFF80B1BDF80000001BE4
:1036800000B2ADF80000BDF80600204400B2ADF86D
:1036900006003146684627F011FA5DE701205BE736
:1036A00010B5B1F90030B2F90040A34202DAB1F925
:1036B000003001E0B2F900300380B1F90230B2F914
:1036C0000240A34202DAB1F9023001E0B2F902305D
:1036D0004380B1F90430B2F90440A34202DDB1F9EC
:1036E000043001E0B2F904308380B1F90630B2F958
:1036F0000640A34202DDB1F9063001E0B2F906301E
:10370000C38010BD2DE9FF4104462AF02CFE05467A
:103710000020039034B14749E068086020462AF051
:1037200099FF03E019F0AEFB42490860414909687E
:10373000086927F021F93F480068406920B13D49F8
:103740000968486927F018F93A490968C86927F0F3
:1037500013F938490968086A27F00EF935480068F6
:10376000006940B9002033490968A1F8500100BF41
:1037700000BFBDE8FF8127F0A1FC27F0E7FB2D4843
:103780000068B0F8500100284BD02A480068006853
:10379000007CC0F34000E8B12648006819F0F0FB57
:1037A000401E06B22348006819F084FB401E07B291
:1037B0003B460022114601A8009616F04BFD01A8D9
:1037C0001C4909680968896B48601A48006805F057
:1037D00041FE00BF4FF4807116480068303021F080
:1037E0004AFB20211348006800F5987021F043FB44
:1037F000002010490968A1F8500128462AF0A6FDCA
:1038000003900C4800680068406A50B10949096893
:1038100008680849096809684B6A07490A680399F2
:10382000984721F05FF800F03FF800F007F800BF7C
:103830009FE70000540100205001002010B5002433
:1038400016E0C4EBC4000C4951F8200030B1C4EBC1
:10385000C401094A52F8210021F0F6F8C4EBC40172
:10386000054A02EB81001C2121F005FB601CC4B25B
:10387000042CE6DB10BD0000ACC600200146094A5E
:1038800010680BE042688A4202D002688A4204D182
:10389000027E22F00102521C027640690028F1D11A
:1038A00070470000280100207047000010B5042177
:1038B000014800F0E3FF10BDC4C5002010B51C2175
:1038C000014800F0DBFF10BDDCC500202DE9FF4FF3
:1038D0008BB004469A46199DBAF1000F11D1189881
:1038E000B0F5807F0DD10020208060800C98401EB4
:1038F00000B2A0800D98401E00B2E0800FB0BDE87D
:10390000F08FB5F900004042189948430121C1EBFE
:10391000202000B22080B5F90200404218994843A7
:103920000121C1EB202000B26080B5F900100C9895
:10393000401A18994843022101EB202000B2A080D0
:10394000B5F902100D98401A18994843022101EB6D
:10395000202000B2E080BAF1000F14D1208829881D
:10396000084400B2208060886988084400B2608002
:10397000A0882988084400B2A080E08869880844AB
:1039800000B2E080BAE70A209AFBF0F00A900A98A9
:10399000401C09900A9800EB8000AAEB400B0A98A3
:1039A00000B22AF0DDFF0890099800B22AF0D8FF93
:1039B00007900A985A3000B22AF0D2FF0690099870
:1039C0005A3000B22AF0CCFF0590CBF10A010898DA
:1039D0004143079800FB0B100A2190FBF1F6CBF155
:1039E0000A0106984143059800FB0B100A2190FB41
:1039F000F1F776117F11B4F90080B4F9029007FB5A
:103A000008F006FB1900298801EBA02000B2ADF8F0
:103A1000100006FB08F007FB0900698801EBA020F5
:103A200000B2ADF81200B4F90480B4F9029007FBBB
:103A300008F006FB1900298801EBA02000B2ADF8C0
:103A40000C0006FB08F007FB0900698801EBA020C9
:103A500000B2ADF80E00B4F90080B4F9069007FB8F
:103A600008F006FB1900298801EBA02000B2ADF890
:103A7000080006FB08F007FB0900698801EBA0209D
:103A800000B2ADF80A00B4F90480B4F9069007FB5F
:103A900008F006FB1900298801EBA02000B2ADF860
:103AA000040006FB08F007FB0900698801EBA02071
:103AB00000B2ADF80600BDF90800BDF9101088424B
:103AC00002DABDF9080001E0BDF91000BDF90410EB
:103AD000BDF90C20914202DABDF9041001E0BDF9F4
:103AE0000C1088420BDABDF90800BDF910108842AD
:103AF00002DABDF908000DE0BDF910000AE0BDF9D9
:103B00000400BDF90C10884202DABDF9040001E09E
:103B1000BDF90C002080BDF90800BDF910108842E5
:103B200002DDBDF9080001E0BDF91000BDF9041087
:103B3000BDF90C20914202DDBDF9041001E0BDF990
:103B40000C1088420BDDBDF90800BDF91010884249
:103B500002DDBDF908000DE0BDF910000AE0BDF975
:103B60000400BDF90C10884202DDBDF9040001E03B
:103B7000BDF90C00A080BDF90A00BDF91210884201
:103B800002DABDF90A0001E0BDF91200BDF9061024
:103B9000BDF90E20914202DABDF9061001E0BDF92F
:103BA0000E1088420BDABDF90A00BDF912108842E6
:103BB00002DABDF90A000DE0BDF912000AE0BDF914
:103BC0000600BDF90E10884202DABDF9060001E0D8
:103BD000BDF90E006080BDF90A00BDF912108842DF
:103BE00002DDBDF90A0001E0BDF91200BDF90610C1
:103BF000BDF90E20914202DDBDF9061001E0BDF9CC
:103C00000E1088420BDDBDF90A00BDF91210884282
:103C100002DDBDF90A000DE0BDF912000AE0BDF9B0
:103C20000600BDF90E10884202DDBDF9060001E074
:103C3000BDF90E00E08000BF60E62DE9F74F86B0C9
:103C4000044620680590B4F908100798A0EB010815
:103C5000B4F90A100898A0EB0109E089B0F5807F5B
:103C600013D1206B00FB08F0E16A01FB1901606AC7
:103C700000EBA10BE06A00FB08F0216B01FB0901DE
:103C8000A06A00EBA10004902FE0A08980B9A06B8E
:103C900000FB08F04FEA6018A06B00FB09F04FEA48
:103CA0006019606A00EB080BA06A484404901CE0AD
:103CB000A06B00FB08F04FEA6018A06B00FB09F056
:103CC0004FEA6019206B00FB08F0E16A01FB190163
:103CD000606A00EBA12BE06A00FB08F0216B01FB9E
:103CE0000901A06A00EBA12004904FEA2B2604985A
:103CF0000712B4F90400B04203DC002009B0BDE8AB
:103D0000F08F002E01DA0020F8E7B4F90600B8427F
:103D100001DC0020F2E7002F01DA0020EEE734207A
:103D2000005DC0F3800050B33420005DC0F340005C
:103D300078B90225B4F904007843684306FB050A04
:103D4000059800EB0A012A4604F1140021F041F81D
:103D50002CE00325B4F904007843684306FB050A08
:103D60006A1E059800EB0A0104F1140021F031F8F5
:103D70000AEB0500401E0599095CA17516E04FF09D
:103D8000000A0025208A03463AB231B2019004F1BC
:103D900018001DF007FD0290BDF80800A0823AB29D
:103DA00031B204F118001DF05DFCA0753420005DF7
:103DB00000F00100B0B14FF47F40002100F47C42DC
:103DC00041EA5211C0F3C40211430191BDF804202D
:103DD00011460291A08ABDF80810884201D1002046
:103DE0008CE700BFE07C08B9012087E70FFA8BF170
:103DF000A187049801B2E18731B24020015339B262
:103E000042200153C4F844A084F84850204600F0F2
:103E100003F80390039871E72DE9F04F8DB0044645
:103E2000D4F8009094F83C000C9094F83E000B906D
:103E30000C9870280BDA4FF0FF35B4F94000284495
:103E4000002800DA00250C988030C7B213E00C98E7
:103E500090280EDD0125B4F940002844B4F904107F
:103E6000884200DB00250C98C0F1FF008030C7B20B
:103E700001E00025FF270B9870280CDA4FF0FF3681
:103E8000B4F942003044002800DA00260B98803054
:103E900000F0FF0815E00B9890280FDD0126B4F91B
:103EA00042003044B4F90610884200DB00260B982B
:103EB000C0F1FF00803000F0FF0802E000264FF064
:103EC000FF08A08A0A90A07D06900020059004902B
:103ED00003903420005DC0F3800000285BD094F88C
:103EE0004800626C00FB052000EB0901022209A8D2
:103EF00020F06FFFA28894F8480012FB00F2606C7B
:103F000002FB060000EB0901022208A820F061FF75
:103F1000A28894F8480012FB00F2606C02FB0602D3
:103F200094F8480000FB052000EB0901022207A8D5
:103F300020F04FFF3420005DC0F3400000287ED009
:103F400094F84800616C00FB05110844401E19F804
:103F500000000590A18894F8480011FB00F1606C06
:103F600001FB060194F848000844401E19F80000BF
:103F70000490A18894F8480011FB00F1606C01FBEB
:103F8000060194F8480000FB05110844401E19F88A
:103F90000000039053E0208A0090B4F942204020B2
:103FA000005B284401B204F11800009B1DF0FAFBED
:103FB0000990208A00904220005B304402B2B4F99C
:103FC000401004F11800009B1DF0ECFB0890208AC3
:103FD00000904220005B304402B24020005B284445
:103FE00001B204F11800009B1DF0DCFB07903420A7
:103FF000005DC0F3400010B3B4F942204020005BE4
:10400000284401B204F118001DF02CFB0590422059
:10401000005B304402B2B4F9401004F118001DF006
:1040200021FB04904220005B304402B24020005B40
:10403000284401B204F118001DF014FB0390BA46A5
:10404000BB463420005DC0F34000E0B306987843DF
:10405000C7F1FF0C059B03FB0C00C0F3072104987C
:104060007843C7F1FF0C039B03FB0C00C0F307224E
:1040700001FB08F0C8F1FF0302FB0300030AA3756C
:10408000022905DC022A03DC00200DB0BDE8F08F18
:10409000022901DC4FF00008022A01DC4FF0FF0882
:1040A0000698022801DC4FF0000A0598022801DC7E
:1040B0004FF0FF0A0498022801DC4FF0000B039830
:1040C000022803DC00E002E04FF0FF0B03E0BA46F9
:1040D000BB46FF21A175BAF1000F02D109980290E9
:1040E0000BE0BAF1FF0F02D10A98029005E05246A8
:1040F000DDE9091018F056F90290BBF1000F02D16A
:10410000079801900BE0BBF1FF0F02D108980190D6
:1041100005E05A46DDE9071018F044F90190B8F1BE
:10412000000F03D1BDF80400A0820FE0B8F1FF0F2B
:1041300003D1BDF80800A08208E04246DDE9011085
:1041400018F030F90090BDF80000A08201209CE733
:104150002DE9F05F0446B4F9080001026162B4F988
:104160000A000102A162B4F90C000A2190FBF1F5EA
:104170006F1CB4F90C0005EB8501A0EB4106684209
:1041800000B22AF0EDFB8046784200B22AF0E8FB4C
:104190008146C5F15A0000B22AF0E2FB8246C7F11F
:1041A0005A0000B22AF0DCFB8346C6F10A0000FB8D
:1041B00008F009FB06000A2190FBF1F1E162C6F16B
:1041C0000A0000FB0AF00BFB06000A2190FBF1F14C
:1041D0002163E06A4111E162206B41112163A07CFF
:1041E0001DF0EFFB3421095D60F30001342001551F
:1041F000A07C1DF0C9FB3421095D60F3410134202E
:104200000155A07C042805D0A07C052802D0A07C04
:10421000062807D13420005D20F00400001D342161
:10422000085505E03420005D20F0040134200155DC
:1042300021682162A06920F0E000A061A17CA06952
:1042400061F30400A061A188A06961F39420A061DA
:10425000E188A06961F35F50A061E08900EBD07153
:10426000491001F5001191FBF0F2A263FF21A17545
:10427000208AA082BDE8F09F2DE9F7430546164647
:104280000024134C2AF06FF8804633462946204616
:10429000019A1EF045F807465FB900BF00BF2C2108
:1042A000204620F0E8FD4FF00040A0620020BDE86D
:1042B000FE830020A062E06918B940462AF046F863
:1042C000E061E06908B90120E0612046EFE7000005
:1042D00000C6002010B51421114800F0CFFA1DF0DF
:1042E000D1FF044600BF1CB900BF00BF00BFFEE7FE
:1042F00000BF14B900BF00BF10BD0A4920461EF020
:10430000A9F8094920461EF0A7F8084920461EF0E2
:10431000A5F8074920461EF09BF800BFECE7000017
:10432000E8C50020A11A0208751F020891210208A1
:10433000691A020870B504460D461021284620F07F
:104340009AFD20680078012804D1208A2880608A9C
:1043500068800CE020680078022802D1E06868607C
:1043600005E020680078042801D10A2068602068F0
:10437000406820B1206829464268904701E000BFAC
:1043800000BF70BD2DE9FE430446A66AEEB9A18ABE
:10439000208A084401B2A182E18A608A084401B2FD
:1043A000E18220460CF073FD06460EB9BDE8FE839F
:1043B000204610F075FC0022092130461CF036FA28
:1043C0006078C0F3400000B1F0E7208A10B9608A3D
:1043D000002870D000200290019094F83C0000F07A
:1043E0000F00032812D1304622F0FEFD074630466A
:1043F00022F082FD804603200090B4F910103B4665
:10440000424630460CF03AF8029012E0304622F074
:104410006DFE0746304622F0E1FC80460C200090FD
:10442000B4F9121043463A4630460CF027F8019092
:1044300000BF304622F032FD054605F0010028B9E4
:10444000BDF90800002801DD0020029005F00200FF
:1044500028B9BDF90800002801DA0020029005F013
:10446000040028B9BDF90400002801DD00200190F6
:1044700005F0080028B9BDF90400002801DA002081
:10448000019001AA02A920462DF0A6F90023BDF94A
:104490000420BDF90810304625F006FDA08ABDF8BD
:1044A0000810084401B2A182E08ABDF80410084453
:1044B00001B2E18200BF00BF78E72DE9F84F044662
:1044C000D4F828B0BBF1000F01D1BDE8F88F94F803
:1044D0003C0000F00F0000B9F7E71EF0A3FA064613
:1044E0003068477E4021584624F008FA10B9002170
:1044F00061832183584622F0E5FD8046584622F02C
:10450000EBFD054694F83C0000F00F000C2843D169
:10451000002121831DBBB4F91A00C7F1640148438F
:10452000642190FBF1F001B26183584622F056FC01
:104530008146584622F0DAFD82460C200090B4F9FC
:104540001A104B46524658460BF098FF6083B4F958
:104550001A2000231946584625F0A6FC69E020469B
:104560002DF091F90090002161836A4620462DF0DC
:1045700033F9BDF9003041F6FF72514258460CF054
:104580002FFE8146BDF80000484402B201230021FD
:10459000584625F089FC4CE094F83C0000F00F00F0
:1045A000032846D100216183B8F1000F23D1B4F96B
:1045B0001800C7F164014843642190FBF1F001B297
:1045C0002183584622F098FC8146584622F00CFD83
:1045D000824603200090B4F9181053464A465846C4
:1045E0000BF04CFF2083B4F9181000231A465846EC
:1045F00025F05AFC1DE020462DF02AF900900021FC
:1046000021830022694620462DF0E6F8BDF90030EE
:1046100041F6FF72514258460CF048FD8146BDF804
:104620000000484401B201230022584625F03CFC1A
:1046300000BF208B002860D1608B00285DD11DBB9E
:10464000584622F053FD8146584622F0C7FB824669
:10465000B9F1000F02DCBAF1000F14DDB9F1000F5F
:1046600006DA01234A460021584625F01DFC0AE0DF
:10467000BAF1000F07DA0123CAF1000002B20021EB
:10468000584625F011FC00BFB8F1000F23D1584661
:1046900022F032FC8146584622F0A6FC8246B9F14F
:1046A000000F02DCBAF1000F14DDB9F1000F06DAD9
:1046B000012300224946584625F0F6FB0AE0BAF1EC
:1046C000000F07DA01230022CAF1000001B25846A8
:1046D00025F0EAFB00BF32460A2158461CF0A6F836
:1046E0006078C0F3400000B1EFE694F83C0020F0A1
:1046F0000F0184F83C100021A16200BFE5E62DE91E
:10470000FF4104460F4614B918F0BCFB04460CB92F
:10471000BDE8FF811FB90020A4F85001F8E7002090
:10472000ADF80800ADF80A00204618F0C3FB401EA3
:1047300000B2ADF80C00204618F022FC401E00B27A
:10474000ADF80E0002AA39466846FEF7C9FD0646D6
:1047500006B9DDE72068007CC0F3400060B1029834
:104760002063039860630120A4F85001606810B1D1
:10477000606829F07BFFCBE72068806918B120686A
:1047800069468269904700250BE004F1300000EB98
:10479000C50100226846FEF7E4FD00B1B8E7681CD9
:1047A00085B2B4F85001A842EFDCB4F850012028DB
:1047B00009DAB4F8502104F1300101EBC200694676
:1047C00015F0EBFB0BE00020A4F85001B4F85021E9
:1047D00004F1300101EBC20002A915F0DEFBB4F8D0
:1047E0005001401CA4F85001606810B1606829F0C5
:1047F0003DFF00BF8CE770B50546284600F013F872
:10480000044600260CE02146284600F024F806461F
:104810002146284600F086F8204620F015F9344657
:10482000002CF0D170BD014609B9002070474868DE
:10483000FCE770B5064600243046FFF7F4FF054656
:1048400005E0641C2946304600F005F80546002DB9
:10485000F7D1204670BD02460B461068001D034488
:104860001868704702460B46106803441868704782
:10487000014609B9002070478868FCE700224260C1
:104880008260CA1C22F003010160704770B50446C3
:10489000216801F1080020F009F80546A5B10022C1
:1048A000294620462BF018F92946204662682BF04D
:1048B00005F9606820B12A46204661682BF00CF9A2
:1048C0006560A06800B9A560284670BD70B5044653
:1048D000216801F108001FF0E9FF0546A5B100229B
:1048E000294620462BF0EAF829462046A2682BF0FC
:1048F000F3F8A06820B12A462046A1682BF0DEF824
:10490000A560606800B96560284670BD014609B9B8
:1049100001207047486818B9886808B90120F8E78D
:104920000020F6E72DE9F04104460D460CB9BDE83C
:10493000F0812046FFF777FFA8420FD12946204695
:10494000FFF789FF6060606810B90020A0602FE069
:104950000022204661682BF0BFF829E02046FFF7CF
:1049600087FFA8420FD129462046FFF77BFFA060B2
:10497000A06810B9002060601AE000222046A168FB
:104980002BF09CF814E029462046FFF76BFF064603
:1049900029462046FFF75FFF07463A463146204644
:1049A0002BF08CF83246394620462BF095F800BFA4
:1049B00000BFBCE710B504462068806818B12068C5
:1049C0002146826890472068006828B12068006806
:1049D00020602046FFF7EEFF10BD0146886818B141
:1049E0008868B0F9160070470020FCE72DE9F04F09
:1049F00093B005468B4691469A461C9E688C20F0E3
:104A00000400001D6884A5F8209032895946284684
:104A100023F0F0FC1290A5F820A0328959462846D0
:104A200023F0E8FC1190688C20F004006884DDE934
:104A3000111088420CD1DDE91110884208D1BDF86F
:104A40004800BDF84410884202D113B0BDE8F08F91
:104A5000A5F8209032895946284623F0CBFC1290C5
:104A6000A5F820A0594628460EF0E7FA10903189A3
:104A7000109A1068129A28F032F93089602833D1E0
:104A800047F6FF711298884202D0119888422BD1C4
:104A9000284623F0D6FE0F9000EBD0704710284632
:104AA00023F0CFFE0F9000EBD0704FEA600847F67E
:104AB000FF711298884208D1781C08F101018842E0
:104AC00000DA01E008F10100129047F6FF71119839
:104AD000884208D1781C08F10101884200DA01E01F
:104AE00008F10100119000BF2448FFF7CFFE0446F3
:104AF00000BF1CB900BF00BF00BFFEE700BF04B984
:104B0000A3E71298E06011982061ACB3256030896A
:104B1000A080C4F808B0684614F006FC2146684638
:104B200014F0B5FC1649684614F081FC1548029053
:104B300000BF1549684614F088FCFF220021684632
:104B400014F095FC3188684614F087FC718868463B
:104B500014F068FCF068069000BF6846002190F8E9
:104B60003E2061F3000280F83E2000BF30690590CE
:104B7000684614F0A3FC00BF00BF66E7F4C5002040
:104B8000D95F030885620308B561030810B51421D5
:104B90000148FFF773FE10BDF4C500202DE9FE4F5C
:104BA00004460F4690464FF0000900256BE1E0688F
:104BB00000EBC5004068C0F3406000B162E1E1680D
:104BC00001EBC501496821F07F4025F0D2FE064681
:104BD00026EA070008B9012000E00020029026EA3A
:104BE000080008B9012000E000200190DDE9010182
:104BF000814272D0E06850F835A04FF0000B6A4651
:104C000041F61001504627F003FD10B14FF0010BA3
:104C1000A9E06A4641F61101504627F0F9FC10B1AF
:104C20004FF0010B9FE06A4641F61201504627F013
:104C3000EFFC10B14FF0010B95E06A4641F613010D
:104C4000504627F0E5FC10B14FF0010B8BE06A46AF
:104C500041F61501504627F0DBFC10B14FF0010B77
:104C600081E06A4641F61401504627F0D1FC10B1AC
:104C70004FF0010B77E06A4641F26901504627F098
:104C8000C7FC10B14FF0010B6DE06A4643F20C0116
:104C9000504627F0BDFC10B14FF0010B63E06A46AF
:104CA00043F20D01504627F0B3FC10B14FF0010B59
:104CB00059E06A4641F20101504627F0A9FC10B1C3
:104CC0004FF0010B4FE06A4641F20401504627F0D5
:104CD0009FFC18B14FF0010B45E0D2E06A4641F26B
:104CE0000201504627F094FC10B14FF0010B3AE05E
:104CF0006A4641F20301504627F08AFC10B14FF09A
:104D0000010B30E06A4641F20501504627F080FC75
:104D100010B14FF0010B26E06A4641F20601504601
:104D200027F076FC10B14FF0010B1CE06A4641F20F
:104D30003201504627F06CFC10B14FF0010B12E02D
:104D40006A4643F60F01504627F062FC10B14FF05F
:104D5000010B08E06A4643F60E01504627F058FC66
:104D600008B14FF0010BBBF1000F02D00320BDE8EA
:104D7000FE8F6A4640F60A01504627F049FC10B102
:104D80004FF002097CE06A4640F60B01504627F0DE
:104D90003FFC10B14FF0020972E06A4643F60F0182
:104DA000504627F035FC10B14FF0020968E06A4622
:104DB00043F60E01504627F02BFC10B14FF00209CC
:104DC0005EE06A4640F63C01504627F021FC10B1F7
:104DD0004FF0020954E06A4640F63D01504627F084
:104DE00017FC10B14FF002094AE06A4640F63A015A
:104DF000504627F00DFC10B14FF0020940E06A4622
:104E00004FF40461504627F003FC10B14FF0020943
:104E100036E06A4640F64501504627F0F9FB10B1EE
:104E20004FF002092CE06A4640F64101504627F057
:104E3000EFFB10B14FF0020922E06A4640F6420152
:104E4000504627F0E5FB10B14FF0020918E06A4622
:104E500040F64301504627F0DBFB10B14FF002094A
:104E60000EE06A4640F64901504627F0D1FB10B1EA
:104E70004FF0020904E0B9F1000F01D14FF0010930
:104E800000BF00BF6D1C608CC0F3C500A8423FF698
:104E90008EAE48466BE7000001480068704700008E
:104EA0005401002070470146C1F30412072A00DDB7
:104EB0000722D0B27047000010B518210348FFF751
:104EC000DDFC012029F0EAFA10BD0000A0C5002099
:104ED0002DE9F04105460F4616460DB9BDE8F081B3
:104EE0002846FBF76FFC8046394628460A4A126876
:104EF00090470746E8193146074A12689047064628
:104F00003C4603E0A019285C2855641CA8EB060069
:104F1000A042F7D200BFE1E7E80200202DE9F0410E
:104F200006460C4617461D4629463046084A126872
:104F300090472060206830B1296888190021044A10
:104F40001268904700E000203860BDE8F081000062
:104F5000E00200202DE9F04F87B004460F4692464C
:104F60009846DDE910560DB1002028801CB90020BC
:104F700007B0BDE8F08F207808B90020F8E70FB936
:104F80000020F5E74FF0000906F0020010B906F026
:104F9000040098B1002000E0401C215C0A2905D0E3
:104FA000215C0D2902D0215C0029F5D1215C01B1E1
:104FB000401C15B14FF0FF312980D9E706F00200FF
:104FC00008B141F6FF7800200690059038E00020F7
:104FD0000490059808B9012000E0002006A904AA61
:104FE000CDE90062CDE902100599601843465246AA
:104FF000394629F0EDFC83460498A8EB00000FFA2F
:1050000080F8049848440FFA80F9BBF1000F00D1F2
:105010001CE005985844059020780A2802D0207892
:105020000D2800D112E00598205C0A2803D00598CD
:10503000205C0D2803D10598401C059006E000BFB8
:105040000598205C10B1B8F1000FC0DC00BF0598D6
:1050500070B905A92046094A12689047834635B1C0
:105060000022594638461BF0B8FD0FFA80F900BF00
:105070000DB1A5F8009005987AE70000E002002045
:105080002DE9F04706468846174606B10FB9BDE838
:10509000F0873046FBF796FB81463846FBF792FBDC
:1050A000044604B9F3E704EB090A414630460B4ACB
:1050B000126890478046554603E0281B305C7055C7
:1050C0006D1E08EB0400A842F7D906EB0800224643
:1050D00039461FF08AFE00BFD9E70000E802002031
:1050E000024600200FA31B788B4211D113781BB905
:1050F0000123137001200BE01378012B02D1002350
:10510000137005E01378022B02D1002313700120E5
:105110001378012B04D1202901D10223137001201F
:10512000704700002300000073B582B00646039864
:105130000190324600210846019B29F065FF054693
:10514000002001900024681C1FF0B0FB044600BF43
:105150001CB900BF00BF00BFFEE700BF14B90020AC
:1051600004B070BD002060553246691C2046039B88
:1051700029F04AFF2046F3E72DE9F04781460E4625
:1051800014461F46DDF820A035461BE0600800FBF2
:10519000075529464846D047B0F1000809DD04F01C
:1051A000010080F00100C0EB5404E81905460646F2
:1051B00008E0B8F1000F02DA6408354602E028463C
:1051C000BDE8F087002CE1D10020F9E72DE9FF4F81
:1051D00085B08346DDE9158ADDE91349DDE91775F8
:1051E000129E05F00200F8B94FB105F0010030B190
:1051F000B9F1000F02D105F00C0000B17F1E03E0F1
:1052000030222046641C3254544501D2202CF7D35E
:1052100003E030222046641C325405F0010018B12E
:10522000BC4201D2202CF4D305F01000B0B305F439
:10523000806050B94CB1544501D0BC4205D1641EC8
:105240001CB1B8F1100F00D1641EB8F1100F09D1D4
:1052500005F0200030B9202C04D278222046641CAE
:10526000325415E0B8F1100F09D105F0200030B12B
:10527000202C04D258222046641C325408E0B8F195
:10528000020F05D1202C03D262222046641C325426
:10529000202C03D230222046641C3254202C16D2FB
:1052A000B9F1000F04D02D222046641C32540EE0C8
:1052B00005F0040020B12B222046641C325406E085
:1052C00005F0080018B120222046641C3254CDE9B4
:1052D0000275CDE90064584606A90EC900F0A2F88F
:1052E00009B0BDE8F08F2DE9FF4F8FB08046DDE9B2
:1052F0001FABDDE91D96219D1C9C00270CB925F0F4
:10530000100505F4806000B1E4B100BFB4FBF6F114
:1053100006FB1141C8B20A2802DA00F1300107E0A9
:1053200005F0200109B1412100E0612101440A3961
:10533000CBB239467F1C07AA5354B4FBF6F40CB128
:10534000202FE3D307A8CDE904AB8DE881020396B3
:105350000695404610A90EC9FFF738FF13B0BDE807
:10536000F08F2DE9FF4F8FB0DDE9217BDDF89080D4
:10537000209EDDE91C454FF00009002184EA010070
:105380006940084301D128F0100808F4806028B172
:10539000002184EA0100694008432DD000BF324655
:1053A0003B4620462946FAF7FCFF02F0FF0ABAF115
:1053B0000A0F02DA0AF1300007E008F0200008B115
:1053C000412000E0612050440A38C2B2484609F149
:1053D000010907A90A5432463B4620462946FAF7F6
:1053E000E0FF04460D46002184EA010069400843BD
:1053F00002D0B9F1200FD2D32398CDE9036BCDE9C8
:10540000050807A91E98CDE9001902900FA80FC83A
:10541000FFF7DCFE13B0BDE8F08F9A4200D288544B
:10542000704770472DE9FF5F05461446DDE90EA67B
:10543000DDE91087A34607F0020078B907F0010004
:1054400060B9B14607E02246641C2020039B019905
:10545000A84709F10109C145F5D300BF08E022467C
:10546000641C711E0E461AF80100039B0199A8479F
:10547000002EF4D107F0020050B105E02246641C72
:105480002020039B0199A847A4EB0B004045F5D3CE
:10549000204604B0BDE8F09F00BF70472DE9FF4FE4
:1054A0008BB0074600250C9800B9FA4FEAE20E9837
:1054B000007825280AD02A466D1C0E990878DDE967
:1054C0000C13B8470E98401C0E90DBE20E98401C5F
:1054D0000E90002400BF0E9800782B2819D004DC11
:1054E00020281ED023282CD123E02D2809D03028B5
:1054F00027D144F001040E98401C0E9001200A9020
:1055000022E044F002040E98401C0E9001200A9004
:105510001AE044F004040E98401C0E9001200A90FA
:1055200012E044F008040E98401C0E9001200A90EE
:105530000AE044F010040E98401C0E9001200A90DE
:1055400002E000200A9000BF00BF0A980028C2D1E4
:1055500080460E990878FDF798FE20B10EA8FDF759
:105560007FFE804612E00E9800782A280ED1189906
:1055700001C91891002804DA44F00204C0F10008BF
:1055800000E080460E99491C0E9100BF4FF00009C3
:105590000E9800782E281FD144F480640E98401C89
:1055A0000E900E990878FDF770FE20B10EA8FDF759
:1055B00057FE814610E00E9800782A280CD11899E1
:1055C00001C91891002801DD014600E0002189464B
:1055D0000E99491C0E9100BF0E9800786C280AD0D5
:1055E00004DC682816D06A2835D128E0742820D039
:1055F0007A2830D129E044F480740E98401C0E9033
:105600000E9800786C2804D144F400740E98401C65
:105610000E9021E044F080040E98401C0E900E98ED
:105620000078682804D144F040040E98401C0E9085
:1056300012E044F480740E98401C0E900CE044F488
:1056400000740E98401C0E9006E044F480740E988E
:10565000401C0E9000E000BF00BF0E980078692843
:105660001DD00EDC622821D006DC25287ED05028F3
:105670001AD058287BD115E0632879D06428F9D155
:105680000CE0732875D004DC6F280ED07028F1D19F
:1056900009E0752804D07828ECD102E000BF00BFF3
:1056A00000BF00BF00BF00BF00BF00BF0E98007862
:1056B000782803D00E980078582801D1102623E0CE
:1056C0000E980078702803D00E98007850280CD1DE
:1056D000102644F0100444F480740E984078562844
:1056E00012D10E98401C0E900EE00E9800786F2894
:1056F00001D1082608E00E980078622801D1022620
:1057000002E00A2624F010040E980078582803D0EE
:105710000E980078502801D144F020040E980078AB
:10572000692805D00E980078642801D024F00C0474
:1057300004F4806008B124F001040E980078692810
:1057400003D00E98007864287CD104F40070B8B3BC
:105750001898C01D20F007001890D0E900AB189AE7
:10576000083218920020CDE9069803E073E17CE14D
:10577000F2E01CE1CDE904600894BAEB00017BEB98
:10578000000001DA012000E000200021029008461C
:10579000B1EB0A0170EB0B0002DA5046594605E006
:1057A00000200146B0EB0A0061EB0B01CDE90001DE
:1057B0002A463846DDE90C13FFF7D3FD0546C7E05E
:1057C000FFE704F48070D0B1189850F804AB18903B
:1057D0004FEADA70CDE9039802960594BAF1000F0A
:1057E00001DD514601E0CAF10001CDE900102A4671
:1057F0003846DDE90C13FFF776FD0546A8E004F016
:10580000400028B1189810F8041B1890C8B20DE099
:1058100004F0800028B1189830F8041B189008B2E2
:1058200004E0189800681899091D189182464FEAFB
:10583000DA70CDE9039802960594BAF1000F02DD03
:10584000514602E00BE0CAF10001CDE900102A4602
:105850003846DDE90C13FFF746FD054678E00E9863
:105860000078562818D1189850F804AB1890DAF838
:1058700004000068099009980090DAF800300D984B
:10588000421B0C9841193846FFF708FE05440020DA
:1058900009905DE02354000804F40070D0B118981A
:1058A000C01D20F00700CDE906980894189000204C
:1058B000CDE904600290189903C9189A0832189229
:1058C000CDE900012A463846DDE90C13FFF749FD12
:1058D00005463DE004F4807098B10022CDE90398BC
:1058E00002960594189800681899091DCDE90002E0
:1058F00018912A463846DDE90C13FFF7F4FC0546FB
:1059000026E004F0400028B1189810F8041B189005
:10591000C8B20DE004F0800028B1189830F8041BDC
:10592000189088B204E0189800681899091D189119
:1059300082460020CDE900A0CDE9039802960594A7
:105940002A463846DDE90C13FFF7CDFC054600BFBB
:105950000E98401C0E9093E0012604F0020050B90E
:1059600005E02A466D1C2020DDE90C13B8473046BF
:10597000761C4045F5D3189911F8043BD8B22A4655
:105980006D1C1891DDE90C13B84704F0020050B10A
:1059900005E02A466D1C2020DDE90C13B84730468F
:1059A000761C4045F5D30E98401C0E9068E0189880
:1059B00050F804AB18905046B9F1000F01D0494699
:1059C00001E04FF0FF310A46014600E0491C0B7828
:1059D0001BB1131EA2F10102F8D10E1A04F480606B
:1059E00028B14E4501D2304600E04846064604F054
:1059F000020050B905E02A466D1C2020DDE90C1399
:105A0000B8473046761C4045F5D306E01AF8010B3E
:105A10002A466D1CDDE90C13B8479AF8000040B126
:105A200004F480600028F1D0B9F10000A9F1010967
:105A3000ECD104F0020050B105E02A466D1C202094
:105A4000DDE90C13B8473046761C4045F5D30E9877
:105A5000401C0E9014E02A466D1C2520DDE90C1335
:105A6000B8470E98401C0E900AE02A466D1C0E990D
:105A70000878DDE90C13B8470E98401C0E9000BF63
:105A800000BF00BF0E98007800287FF410AD0D987D
:105A9000854201D2284601E00D98401E02460020B2
:105AA000DDE90C13B84728460FB0BDE8F08F2DE9AB
:105AB000F04104460E46002774B13146204600F0FE
:105AC0002DF80546B5F5803F05D20C2D01D92846A5
:105AD00000E00C20074600BF3846BDE8F0810246D2
:105AE00000BF481E084018B100BF00BF00BFFEE75E
:105AF00000BF481E1040101A704710B502464B1EDA
:105B000013444C1E23EA040000BF4B1E0B401BB184
:105B100000BF00BF00BFFEE700BF10BD024600BFD0
:105B2000481E084018B100BF00BF00BFFEE700BF1D
:105B3000481E10444B1E9843704700002DE9F04169
:105B400080460E46444601206086002500270DE071
:105B500056F8270025A1FAF71DFF10B1681C85B281
:105B600002E0608E401C6086781C87B256F82700E1
:105B700020B156F8270000780028E9D1208EA842ED
:105B800001D1BDE8F081A06A20B1A06A1EF05CFFDF
:105B90000020A062E06A20B1E06A1EF055FF0020FC
:105BA000E062E8001EF082FEA06200BFA06A18B9A1
:105BB00000BF00BF00BFFEE700BF68001EF076FE1A
:105BC000E06200BFE06A18B900BF00BF00BFFEE797
:105BD00000BFA06A08B1E06A00B900256900E06A68
:105BE0001FF049F9258600BFCBE700000A0000003E
:105BF0002DE9F84F81460E46924699F8090000F0CB
:105C00000700022801D1304600E050468346564541
:105C100001DD304600E050460746032000EB470018
:105C200020F0030000F1100539480068394909687F
:105C3000A0EB0108002405EB0800374909688842F9
:105C400006D233480468606820F0004060603AE0A3
:105C500031480068854221D813E04FF0FF300090B2
:105C6000002269462D480FF06BFD002269462C4842
:105C70000FF066FD2648006826490968A0EB010878
:105C800000BF08EB0500244909688842E5D8204890
:105C90000468606820F00040606014E028461EF050
:105CA00005FE044600BF1CB900BF00BF00BFFEE7F1
:105CB00000BF14B90020BDE8F88F606820F00040F4
:105CC00000F10040606032465946484601F002FF4C
:105CD0002060606800F04040401C6060606820F018
:105CE00080406060A781A4F80EB06068C00F20B14A
:105CF000204600F11001A16008E00548006810305E
:105D0000A060034800682844014908602046D2E7A3
:105D10005C010020B002002058010020710E010833
:105D200081590108F0B585B006460D46344600207D
:105D300004900390029094F83C0000F0030020B11E
:105D4000012838D0022866D000BF94F83C0000F04B
:105D500003005A49097888421BD02620005D00EBD9
:105D6000001000EB4000142190FBF1F05449087042
:105D70002720005D00EB001000EB4000142190FB99
:105D8000F1F05049087094F83C0000F003004B49D2
:105D9000087002A803A9CDE9001005EB45014FF6F4
:105DA000FF7202EA410004AB46490A784449097887
:105DB0000AF034FD5FE094F83C0000F003003F4936
:105DC000097888421AD0A08C00EB400040024FF4C2
:105DD000B471B0FBF1F03C4908802720005D00EB76
:105DE000001000EB4000142190FBF1F035490870E1
:105DF00094F83C0000F003003049087002A803A9A1
:105E0000CDE90010E9B204AB2E4802782E48008894
:105E10000AF004FD2FE094F83C0000F0030027494D
:105E2000097888421AD0A08C00EB400040024FF461
:105E3000B471B0FBF1F0244908802620005D00EB2E
:105E4000001000EB4000142190FBF1F01C49087099
:105E500094F83C0000F003001849087002A803A958
:105E6000EAB204ABCDE90010154801781648008865
:105E70000AF0D4FC00BF00BF9DF810009DF80C1084
:105E80009DF80820D708BDF8003067F304038F0899
:105E90000093BDF8003067F34A13C7080093BDF8BC
:105EA000003067F3CF230093BDF800703B460193A9
:105EB000BDF80410084605B0F0BD00000E02002039
:105EC0000C0200200D0200200A02002010B5012063
:105ED000074908700748FEF7A6FC20B90648006885
:105EE00028F0B8FB03E00448006828F0BFFB10BDB1
:105EF00098020020D0C500209C02002010B5044666
:105F000094F83E00C0F3400050B9A08F002807DD90
:105F1000A08F4FF6FF71884202D0A08F401EA0874D
:105F2000A08FA8B9606B20B194F83E00C0F3400088
:105F300070B121461748FEF7F5FCFFF7C7FFE06890
:105F400010B12046E168884720461EF07DFD1FE025
:105F5000A06B4042E062606BD0B194F83E10C1F398
:105F6000400111B9216B4942E16294F83E104908A1
:105F7000C94394F83E2061F3410284F83E20E06971
:105F8000616AE1616062A06A616BA162606300BFE7
:105F900010BD0000D0C500202DE9F04180464248E8
:105FA000006828F0D3F906464048007880F00100E8
:105FB0003E4908703E48FEF736FC04466BE0002080
:105FC0003C49087094F83E00C0F3800037490978D6
:105FD000884253D0354801782C34A07C61F382008C
:105FE000A07420688719A07C2C3CC0F3C00010BBB3
:105FF000E06A00281FDC002F1DDB94F83E0000F053
:10600000010060B9206950B12046216988470546E2
:10601000E0692844E061606A2844606200BFA068CB
:1060200010B12046A168884794F83E0020F008008F
:10603000083084F83E00E06A3044E062E06A0028FC
:106040001BDBD4E90A10884201DDA06AE062204629
:10605000A16988470546206AA84206D02562606883
:1060600018B12946D4E900029047D4E90A108842C1
:1060700002DB2046FFF742FF00BF00BF0D4800785B
:1060800020B10B48FEF7CFFB044604E02146084848
:10609000FEF7E1FB0446002C91D128F064F9024997
:1060A0000860BDE8F0810000940200209902002001
:1060B000D0C5002098020020F7B582B004460E46F5
:1060C00014B9049805B0F0BD00BF632231462046E4
:1060D00022F090F90190019D00BFBDB12868A8B1E0
:1060E00000BF64223146204622F084F901900198D5
:1060F000C0B207464FB13A462B68284604999847E4
:106100000190BDF80400ADF8100000BF0498D9E775
:1061100070B504460D46606818B129466068FFF7FF
:10612000F7FF206818B1294620462268904770BDC5
:1061300070B505460C46A1B2284613F05BFE70BD53
:1061400070B505460C46A1B2284613F0A4FE70BDFA
:1061500010B50DF0B9FC10BD70B505460C461646DD
:1061600006E028466A1C95B200F008F804F8010B16
:10617000301EA6F101018EB2F3D170BD70B5044698
:1061800000260DF06BFD2112A02202EB4101C8B2E6
:106190000DF02CFD0DF0AAFD2546E11704EB116171
:1061A0000912A4EB0121C8B20DF020FD0DF09EFDF7
:1061B0000DF054FDA1200DF019FD0DF097FD00200C
:1061C0000DF0E4FC06460DF071FD304670BD70B573
:1061D00005460C46164606E02178284600F009F8E8
:1061E000681C85B2641C301EA6F101018EB2F3D189
:1061F00070BD70B504460E460DF030FD2112A02290
:1062000002EB4101C8B20DF0F1FC0DF06FFD254627
:10621000E11704EB11610912A4EB0121C8B20DF0E2
:10622000E5FC0DF063FD30460DF0E0FC0DF05EFD89
:106230000DF03CFD0A2001F0DDFF70BD70B5044695
:106240000D4600BF204600F03BF818B100BF00BF6C
:1062500000BFFEE700BF284600F050F9001D61684E
:1062600008446060204600F03AF8204670BD70B5E2
:1062700005460C46284600F041F904F11001884219
:1062800001D3012070BD0020FCE70146A1F1080008
:1062900070477CB505460C46204600F02FF90646AF
:1062A0006A4601A929F0F2F921462846DDE90032C3
:1062B0000EF0C8FD7CBD0146087900F00100704772
:1062C00010B50446204600F019F908B9012010BDA8
:1062D0000020FCE70146087900F00200704770B525
:1062E0000446204600F097F805462C60284670BD0D
:1062F0007CB506460C4600200190009000256CB14C
:106300006A4601A9204629F0DEF901980A2805DA33
:106310006A4601A930462BF09DFB054685B100BFBA
:10632000284600F0EBF8A04203D200BF00BF00BF38
:10633000FEE700BF29463046DDE900322AF0F2FFD1
:1063400028467CBD70B504462046FFF7C8FF0546C9
:10635000284600F0BEF8204600F0B6F870BD70B5D3
:106360000446204600F057F80546284600F0B6F8E7
:10637000204600F0BEF870BD70B506460D462846B2
:1063800000F049F8044600BF1CB900BF00BF00BFC1
:10639000FEE700BF2046FFF78EFF90B100BF284602
:1063A000FFF78EFF18B100BF00BF00BFFEE700BFC0
:1063B0002146304600F076F821462846FFF73EFF9A
:1063C0000546284670BD70B506460D462846FFF7BF
:1063D00081FFF0B1284600F057F8044600BF1CB911
:1063E00000BF00BF00BFFEE700BF00BF2046FFF7B1
:1063F00062FF18B900BF00BF00BFFEE700BF214623
:10640000304600F04FF829462046FFF717FF0546B3
:1064100000BF284670BD2DE9F0410446204600F03B
:106420006DF8061F204600F0B8F80746314629F0FF
:1064300007FC054600BF2046FFF742FF18B100BF2A
:1064400000BF00BFFEE700BF2846BDE8F0812DE990
:10645000F04106460C461546002794B100BF1DB911
:1064600000BF00BF00BFFEE700BF2A4621463046FE
:1064700000F097F82046FFF772FF204600F08DF8F5
:1064800007463846BDE8F08110B5044600BF2046F7
:10649000FFF720FF18B900BF00BF00BFFEE700BF35
:1064A000206810BD7CB505460C46204600F026F855
:1064B00006466A4601A929F0E9F821462846DDE9A1
:1064C00000322AF02FFF7CBD416841F0010141609C
:1064D0007047416841F0020141607047416821F016
:1064E000020141607047426802F003030B434360BE
:1064F0007047416821F001014160704701464868DA
:1065000020F0030070472DE9F04706460C46304660
:1065100000F043F88046211F29F092FB07463046E1
:10652000FFF7ECFF211D451A00BF384600F035F893
:106530008146384600F031F880460421FFF7DDFA45
:10654000814503D000BF00BF00BFFEE700BF00BF12
:106550003046FFF7D3FF2919091D884203D000BF39
:1065600000BF00BFFEE700BF29463846FFF7BBFF6C
:1065700000BF3846FFF7C2FF0C2803D200BF00BFA0
:1065800000BFFEE700BF21463046FFF7ACFF3846AC
:10659000FFF7D8FE3846BDE8F087014601F1080054
:1065A00070472DE9F04106460C46154600BF2046CF
:1065B000FFF781FE18B900BF00BF00BFFEE700BFB4
:1065C00029462046FFF753FE78B129462046FFF7BB
:1065D0009AFF07462046FFF782FE3846FFF779FF0D
:1065E00039463046FFF755FE00BFBDE8F0812DE982
:1065F000F04106460C46154600BF2046FFF75BFEFD
:1066000018B100BF00BF00BFFEE700BF294620460B
:10661000FFF72DFE88B129462046FFF774FF074695
:106620003846FFF75BFF39463046FFF7A5FE0746C1
:1066300039463046FFF72DFE00BFBDE8F08100006F
:1066400070B5054628461AF0EBF80446084800687D
:10665000844204D10748006825F01AFE07E0064886
:106660000068844203D10348006825F0E9FC70BD4E
:1066700018030020140300201C0300202DE9F84318
:10668000064634461CF0CEF9804640461CF00FFA10
:1066900078BB304619F0DDFD38B3304619F055FCB3
:1066A000208FE18E884212D0E08E2087E08E00900D
:1066B0006A461C2130461AF0B9F80746012F02D06D
:1066C0003846BDE8F883304622F0B5FC00BF4046AE
:1066D0001CF0FDF90546042D06D1304620F00CFBD8
:1066E000074600211AF091FF09E0304619F014FE28
:1066F00005E0FFE7208FE086304622F09CFC012079
:10670000DFE72DE9F041044620461AF089F80546F6
:10671000284620F04BFB0646284614F019FC074695
:1067200001223946304626F0C9FFBDE8F081014616
:10673000C1F3C01070470146C1F380107047014695
:10674000C1F3C01070470146C1F3002070470146F5
:10675000C1F3C00070470146C1F3401070470146C5
:10676000C1F3402070470146C1F300307047014635
:10677000C1F30010704700002DE9F04F89B00446C6
:106780000D460021204620F0ACF930B91C212846E6
:106790001EF071FB09B0BDE8F08F2946204600F0DD
:1067A0000BFB2946204600F07DF80021204621F011
:1067B000CBFB08900021204621F04CFD07900021E2
:1067C000204621F081F9012800D100E00020814617
:1067D0000021204621F0F4FF07460021204621F049
:1067E00061FA064642F2D170874205D1608CC0F34F
:1067F000802008B9012000E000208246204620F0D9
:1068000010FA069000BF4FF0000824480288414665
:10681000204621F0EFFD03900398C0B200BF8346ED
:10682000AA6829692868CDE90209CDE900125A460B
:106830005146089B06980CF08DFC288342F2D170DB
:10684000864205D1608CC0F3402008B9012000E0E9
:1068500000200590204620F0C5F9049000BF4FF0BD
:1068600000080F4802884146204621F0C3FD0390EE
:106870000398C0B200BF83460023EA68696868696C
:10688000CDE90213CDE900025A46079BDDE9040178
:106890000CF060FC688300BF7CE7000082010020F0
:1068A000860100202DE9F34F87B00C4607980BF0C6
:1068B0006DFC8046079820F0B4F90690404601F040
:1068C00084F92061216948001EF02AF820602169BE
:1068D00048001EF025F8A060002548E058480290C6
:1068E00038F9150041F69A7188423FD10020019095
:1068F00029E00199079820F0F4F800905149009898
:1069000022F007F800B11BE000980BF05DFC824616
:10691000BAF1010F00D013E000980BF045FC83465C
:10692000AB4500D00CE0009821F08BFF0299884223
:1069300001DA029802E0009821F083FF029000BF84
:106940000198401C0190079820F0E9F801998842CD
:10695000CFD80298002804DB0298A16821F815001E
:1069600003E00021A06820F8151000BF6D1C20690D
:10697000A842B3D80026B14600251BE038F915001F
:1069800041F69B71884202DB411A0E4411E041F648
:106990009A71884206D1A16831F8151049440FFA5E
:1069A00081F906E0A16821F8150009EB00010FFA52
:1069B00081F96D1C2069A842E0D80021079821F0D8
:1069C000C3FA05902169491EDDE9050200FB11208B
:1069D00000B206900698A0EB090007B2002F00DA7B
:1069E00000274FF0FF30049000200390002513E0B3
:1069F00038F9150041F69B7188420CDB421A11B23E
:106A000007FB01F2B2FBF6F212B2A36823F81520DD
:106A10000495039100BF6D1C2069A842E8D8049832
:106A200000280ADB0398301A7843B0FBF6F0381AD6
:106A300001B2A268049822F8101009B0BDE8F08FE6
:106A400001E0FFFF010006002DE9FC5F0546002282
:106A50001146284623F0B4FB0021284621F09BF87C
:106A600081460021284621F01CFC484407B2002141
:106A7000284621F0CDF948440FFA80FA284620F044
:106A800089FF384450440FFA80FB3B4E284620F0E3
:106A900046F801904FF000085CE0A868006850F8E4
:106AA00028403649204621F034FF00B150E020460E
:106AB00022F03EFB002839D10021204620F09CFF27
:106AC0000090009830B1012807D0022804D0032894
:106AD00015D100E000BF00BF00BFB4F91A10B5F92E
:106AE0001600081A401CB04201DA304605E0B4F93D
:106AF0001A10B5F91600081A401C06B214E000215D
:106B0000204621F091FE70B904F1140013F09DFAB3
:106B10003844B04201DA304604E004F1140013F0C6
:106B200094FA384406B200BF00BF10E0B4F91A105E
:106B3000B5F91600081A401CB04201DA304605E0EB
:106B4000B4F91A10B5F91600081A401C06B200BFB5
:106B500008F10108019880459FD30748864209D073
:106B600006EB0A0006B25E4502DD3046BDE8FC9F3A
:106B70005846FBE75846F9E701E0FFFF0100040033
:106B80002DE9FC5F054600221146284623F0FCFA59
:106B90000021284620F0FFFF82460021284621F0F0
:106BA000BDFA50440FFA80F80021284621F00DFA72
:106BB00050440FFA80F9284620F0FCFE4844404437
:106BC00000B20190724C28461FF0A9FF83460021B5
:106BD000284620F052FF012866D100265BE0A86815
:106BE000006850F826706B49384621F092FE00B1DB
:106BF00050E0384622F09CFA002839D1002138466E
:106C000020F0FAFE0090009830B1032805D0062845
:106C100004D0082815D102E000BF00BF00BFB5F9BD
:106C20001800B7F91410401A401CA04201DA20469F
:106C300005E0B5F91800B7F91410401A401C04B269
:106C400014E00021384621F0E2FD70B907F114008C
:106C500013F06EFA4044A04201DA204604E007F146
:106C6000140013F065FA404404B200BF00BF10E006
:106C7000B5F91800B7F91410401A401CA04201DA07
:106C8000204605E0B5F91800B7F91410401A401C69
:106C900004B200BF761C5E45A1D33D48844269D052
:106CA00004EB090004B265E000265BE0A868006818
:106CB00050F826703749384621F02BFE00B150E0DD
:106CC000384622F035FA80BB0021384620F094FE89
:106CD0000090009830B1012805D0042804D007287E
:106CE00015D102E000BF00BF00BFB7F91800B5F929
:106CF0001410401A401CA04201DA204605E0B7F902
:106D00001800B5F91410401A401C04B215E0002117
:106D1000384621F089FD78B907F1140013F008FA1C
:106D20004844A04202DA204605E008E007F11400DA
:106D300013F0FEF9484404B200BF00BF10E0B7F9F9
:106D40001800B5F91410401A401CA04201DA204680
:106D500005E0B7F91800B5F91410401A401C04B248
:106D600000BF761C5E45A1D30948844202D004EBE3
:106D7000080004B20648844202D10198BDE8FC9F95
:106D80000198844201DD2046F8E70198F6E700000B
:106D900001E0FFFF0100040010B5044620681DF06B
:106DA0003BFE60681DF038FEA0681DF035FEE0680F
:106DB0001DF032FE10BD00002DE9F34F87B00C46E8
:106DC00007980BF0D5FF8046404600F0FEFE60615C
:106DD000616948001DF0A4FD6060616948001DF014
:106DE0009FFDE060002548E05948029038F9150001
:106DF00041F69A7188423FD10020019029E0019923
:106E000007981FF06EFE00905249009821F081FD16
:106E100000B11BE000980CF073F88246BAF1010F44
:106E200000D013E000980CF05BF88346AB4500D02F
:106E30000CE000981FF06AFF0299884201DA02987C
:106E400002E000981FF062FF029000BF0198401C12
:106E5000019007981FF063FE01998842CFD80298ED
:106E6000002804DB0298E16821F8150003E0002007
:106E7000E16821F8150000BF6D1C6069A842B3D815
:106E80000026B14600251BE038F9150041F69B713C
:106E9000884202DB411A0E4411E041F69A718842A1
:106EA00006D1E16831F8151049440FFA81F906E07E
:106EB000E16821F8150009EB00010FFA81F96D1C5A
:106EC0006069A842E0D80021079821F0C3F9069034
:106ED00007981FF087FE01466269521E069800FB64
:106EE000121000B205900598A0EB090007B2002F20
:106EF00000DA00274FF0FF300490002003900025B7
:106F000011E038F9150041F69B7188420ADB421AFC
:106F100011B207FB01F2B2FBF6F212B2E36823F8FA
:106F2000152000BF6D1C6069A842EAD804980028AB
:106F30000ADB0398301A7843B0FBF6F0381A01B236
:106F4000E268049822F8101009B0BDE8F08F000044
:106F500001E0FFFF010006007CB504460D46164621
:106F600028882189084400B2ADF80000688861894A
:106F7000084400B2ADF80200A8882189084400B294
:106F8000ADF80400E8886189084400B2ADF8060055
:106F9000324669462046636998477CBDF8B5054688
:106FA0000E462C46206B10B1206B007818B9606B30
:106FB00008B90120F8BD606B58B1284626F073FF70
:106FC0000746104909688847616B884201D3002051
:106FD000F0E7206B98B1002000900AE069460A4A69
:106FE000206B126890470746B74201D10120E1E7C4
:106FF00000BF206B0099405C0028EFD1DAE7012048
:10700000D8E70000F0020020E00200202DE9FF4F49
:107010008FB00F46209DF87800F0010008B1FA48C3
:1070200000E0FA480E90F87800F0010008B1F84846
:1070300000E0F8480D90F87800F0010008B9F44835
:1070400000E0F4480C9001200B90B5E000220B9278
:1070500000206A88B5F804C0A2EB0C0211B2002629
:107060001AE006EB860CEA6802EB8C02127C02F056
:10707000010242B906EB860CEA6802EB8C029289A7
:10708000024410B207E006EB860CEA6802EB8C02C1
:1070900012898A1A11B2761C2A69B242E1D80026F6
:1070A00085E006EB860CEA6802EB8C02127C02F0AB
:1070B0000102002A7AD191FBF0F80FFA88F306EB6F
:1070C0008609D5F80C8008EB8908B8F80C8008FB15
:1070D00003F80FFA88F206EB8609D5F80C8008EB66
:1070E0008908B8F9049006EB860AD5F80C8008EBFD
:1070F0008A08B8F90680904501DD904607E006EB66
:10710000860AD5F80C8008EB8A08B8F90680C145D4
:1071100008DD06EB8609D5F80C8008EB8908B8F97C
:10712000048013E006EB8609D5F80C8008EB89088B
:10713000B8F90680904501DD904607E006EB860928
:10714000D5F80C8008EB8908B8F90680C446944548
:107150000BD04FF0010806EB860AD5F80C9009EB2E
:107160008A09C9F81080CDF82C8006EB8609D5F87D
:107170000C8008EB8908A8F808C006EB8609D5F84A
:107180000C8008EB8908B8F80C80A0EB08080FFA0F
:1071900088F006EB8609D5F80C8008EB8908B8F86A
:1071A0000880A1EB08080FFA88F100BF761C2A6955
:1071B000B2423FF676AF00BF0B9800287FF446AF8F
:1071C00000210F9820F073FC012800D100E000207E
:1071D0000A9000200990089008A809A9CDE900109C
:1071E00029890BB2B5F9022038781E9928F02BFDB9
:1071F000F87800F0010048B10A9838B10F981FF0F4
:1072000010FDBDF82410084400B2099011990F98A0
:107210001FF067FC04468AE17F49204621F079FB94
:1072200040B1F878C0F3800111AA0F980BF0DBFB96
:1072300004467CE10021204620F00AFD07900798D3
:10724000002858D000200390002610E006EB8601AD
:10725000E86850F82100A04208D106EB8600E968F2
:1072600001EB8000B0F90800039003E0761C286968
:10727000B042EBD800BFF87800F0010030B1608C6C
:1072800020F4806000F58060608405E0608C20F46C
:10729000007000F50070608404F114000D998847B7
:1072A0000399884226D0204621F0C5FE00BFA08A5F
:1072B000ADF80400E08AADF80600208BADF80800B8
:1072C000608BADF80A0000BF04F114000E9A039918
:1072D000904701AA2921204619F0A8FA20461FF05C
:1072E00065FD22462221009019F0A0FA204621F0E7
:1072F000A2FE00BF07E0608C20F480606084608C98
:1073000020F400706084002006907878012812D064
:10731000022819D104F114000C998847B5F900101E
:10732000491C21F00101081A039000EBD0704010B5
:1073300000B2069009E004F114000C9988472988EE
:10734000081A00B2069000E000BF00BFF87800F015
:10735000010050B10A9840B104F114000D9988471A
:10736000BDF82410081A00B209900020039043F2DF
:107370000C022046039921F03DF8029002980FFA82
:1073800080F800BF0020039043F20D0220460399CD
:1073900021F030F8029002980FFA80F900BF2046E1
:1073A00021F04FFA059020461FF0B0FC049008F43D
:1073B000C040B0F5005F01D1012000E0002030B1F5
:1073C00028F4C040B0F5FA6F01DC012000E0002095
:1073D00090B128F4C040B0F57A7F04DD28F4C040B5
:1073E000C0F57A7001E028F4C04005994843642153
:1073F00090FBF1F00FFA80F809F4C040B0F5005F9F
:107400000CD101200BE000006FA2010863A201086B
:10741000AFA101089FA0010801000600002030B1C3
:1074200029F4C040B0F5FA6F01DC012000E0002033
:1074300090B129F4C040B0F57A7F04DD29F4C04052
:10744000C0F57A7001E029F4C040049948436421F2
:1074500090FBF1F00FFA80F9A18A1C98401A404481
:107460000FFA80FAE18A1D98401A48440FFA80FB0F
:10747000F87800F0010010B1BDF9240000E0069892
:1074800050440FFA80FAF87800F0010008B106982D
:1074900001E0BDF9240058440FFA80FBBAF1000F57
:1074A00002D1BBF1000F1BD0204621F0C4FDA08A01
:1074B000504400B2A082208B504401B22183E08A64
:1074C000584401B2E182608B584401B26183204686
:1074D00021F0B1FD01235A465146204621F088FE95
:1074E000F87800F0010008B10A9870B904F11400AE
:1074F0000D9988471F990844BDF820100844BDF82D
:107500002410084400B2099008E0BDF820101F982C
:107510000844BDF82410081A00B20990F878C0F3A6
:10752000800111AA0F980BF05EFA044600BF24B147
:10753000DDE9111081427FF46FAE13B0BDE8F08F2A
:107540002DE9F04F8DB005468946B9F1000F02D103
:107550000DB0BDE8F08FA5F81890286810B1286824
:107560001DF072FA09EB4901062202EB41001DF001
:107570009DF9286000BF286818B900BF00BF00BF90
:10758000FEE700BF286868600221286801FB090047
:10759000801CE8600421286801FB0900001DA86028
:1075A000B9F1010F0CD1B420696808700020E968B6
:1075B00008800120E96848800020A9680880C7E7A2
:1075C00009F10101C8001DF0ABF9074609F10100FE
:1075D00007EB80084FF0000A4FEA890002B20BA9BE
:1075E0000CA800F067F90024BDF930008010079066
:1075F00000200390CCE0002616E00BA90CA800F0B8
:1076000061F90CA800F04BF900B90FE0BDF93000AA
:10761000801007A941F82600BDF8300000F00300F3
:1076200003A941F82600761C042EE6DB00BF042ED9
:1076300000D0B3E00A990798884219D1079800B2A0
:1076400027F814000FFA8AF028F81400DDE9030186
:10765000084405990844069908446968085568680B
:10766000005D0007000E69680855601C04B28DE0DB
:10767000DDE9070188422CD0079800B227F81400F2
:107680000FFA8AF028F814000398696808556868AA
:10769000005D0007000E69680855601C04B2079879
:1076A000401E00B227F814000FFA8AF028F81400E0
:1076B0000498001D0599084406990844696808550E
:1076C0006868005D0007000E69680855601C04B218
:1076D0005CE00999079888422CD0079800B227F8F7
:1076E00014000FFA8AF028F81400DDE903010844B9
:1076F000696808556868005D0007000E69680855EC
:10770000601C04B20798401E00B227F814000FFA5C
:107710008AF028F81400059808300699084469682A
:1077200008556868005D0007000E69680855601C10
:1077300004B22BE0079800B227F814000FFA8AF081
:1077400028F81400DDE90301084405990844696834
:1077500008556868005D0007000E69680855601CE0
:1077600004B20798401E00B227F814000FFA8AF0FE
:1077700028F8140006980C30696808556868005DA0
:107780000007000E69680855601C04B20AF1010A7E
:107790000CA800F084F800287FF42DAF00BF40F261
:1077A000D32109FB01F00290029880120190601E23
:1077B00037F910100198814205D1601E38F9101078
:1077C0000198814226D0DDE90121A1EB8220B0F5AC
:1077D000007F04DC00FB00F14800001407E0C0F566
:1077E000806000FB00F148000014C0F10F00019917
:1077F00009B227F81410019909B228F814106A6820
:1078000010556968095D0907090E6A681155611C00
:107810000CB200BFA61E0EE038F8160027F81400C0
:1078200037F8160028F814006868805D6968085504
:10783000761E601C04B2002EEEDA4FF0000B00261C
:107840000020E968088023E0E96821F81B6037F828
:107850001600A96821F81B0010E0A86830F81B008A
:1078600037F91610884203DAA86830F81B0001E0E7
:1078700037F91600A96821F81B00761C38F91600A4
:10788000584501D1A642E8DB0BF101000FFA80FB5D
:10789000A642D9DB38461DF0BFF800BF58E60146C6
:1078A000B1F90200B1F90020904201DC01207047DB
:1078B0000020FCE7028000234380C2F101031BB2D9
:1078C0000B807047B1F90020002A07DC0B88428842
:1078D0005200D21C1A4412B20A800CE0428803887B
:1078E000D21A5200521D0B881A4412B20A80028822
:1078F000521E12B202804288521C12B2428070475D
:1079000037B582B01546022D04DCBDF80C100846D0
:1079100005B030BDBDF80C00C00ABDF8081000EB82
:10792000D1241F2C01D2204600E01F20BDF80810F2
:1079300060F3CF210291BDF80C00C0F34510BDF8F3
:107940000810C1F3451144183F2C01D2204600E035
:107950003F20BDF8081060F34A110291BDF80C00F9
:1079600000F01F00BDF8081001F01F0144181F2C83
:1079700001D2204600E01F20BDF8081060F304018A
:107980000291FF2D03D1BDF808100846C0E72A4632
:10799000DDE9020114F0E4FC0190BDF80410084692
:1079A000B6E717B581B01446022C04DCBDF8081008
:1079B000084604B010BDBDF80400C00ABDF80810A8
:1079C000C90A10FB01F04109BDF8040061F3CF20A2
:1079D0000190BDF8040000F01F00BDF8081001F090
:1079E0001F0110FB01F04109BDF8040061F3040020
:1079F0000190BDF80400C0F34510BDF80810C1F3B4
:107A0000451110FB01F08109BDF8040061F34A1033
:107A10000190FF2C03D1BDF804100846C9E72246A7
:107A2000DDE9010114F09CFC0090BDF8001008464F
:107A3000BFE737B582B01546022D04DCBDF80C1047
:107A4000084605B030BDBDF80C00C00ABDF80810EE
:107A5000A0EBD124002C01DD204600E00020BDF881
:107A6000081060F3CF210291BDF80C00C0F345105F
:107A7000BDF80810C1F34511441A002C01DD204661
:107A800000E00020BDF8081060F34A110291BDF833
:107A90000C0000F01F00BDF8081001F01F01441A8F
:107AA000002C01DD204600E00020BDF8081060F346
:107AB00004010291FF2D03D1BDF808100846C0E76C
:107AC0002A46DDE9020114F04BFC0190BDF80410D8
:107AD0000846B6E708B5034600930098484080EA98
:107AE000620008BD2DE9F84F8046404618F098FE28
:107AF0008246404618F033FE064650461FF056F9BF
:107B000081462B2E09D1484625F0CBFD04460022A4
:107B10002146484625F0D2FD3AE00A2E38D1694682
:107B200050461FF0C5F950461FF07BF8044600216F
:107B300048461FF0D6FF01280AD1204604EBD07139
:107B4000BDF90020C2EB610191FBF4F10DB209E037
:107B5000204604EBD071BDF9002002EB610191FBDE
:107B6000F4F10DB2002D00DA00250027484625F07B
:107B700098FDA84200D0012701222946484625F059
:107B80009DFD27B100221C21484618F04FFE00BF82
:107B9000BDE8F88F10B58060C0600023036100214C
:107BA00010E0002400F1140343F82140002206E015
:107BB00000F13C0303EBC11343F82200521C202ABE
:107BC000F6DB491C0A29ECDB10BD0146002000E071
:107BD000401C31F9102041F6FF739A42F8D17047EA
:107BE00010B500BF00224FF400611148FAF7B4F855
:107BF00000BF00F021F800BF012211460D48FAF73E
:107C0000ABF800BF00F018F800BF002201210948BE
:107C1000FAF7A2F800BF00F00FF800BF0122D1026E
:107C20000348FAF799F800BF00F006F810BD00000D
:107C3000001402400004024010B5022000F0E6FAF1
:107C400010BD000000B587B000BF00BF002001904C
:107C50001A48006840F002001849086008460068A9
:107C600000F00200019000BF00BF00BF00BF00BFD6
:107C7000002001900846006840F020000860084697
:107C8000006800F02000019000BF00BF00BF01208D
:107C9000029011200390012004900320059002A976
:107CA0000748F9F745FF4FF40060029002A9054824
:107CB000F9F73EFF00F0BEF807B000BD30380240D3
:107CC000000402400014024010B500BF0122D1029E
:107CD0000C48FAF741F800BFFFF7AEFF00BF0122E2
:107CE00011460948FAF738F800BFFFF7A5FF00BFB3
:107CF000002201210448FAF72FF800BFFFF79CFF8C
:107D000010BD0000001402400004024070B505469A
:107D1000002400261DE06006040E00BF012211466B
:107D20001148FAF719F800BFFFF786FF4FF400611A
:107D30000E48F9F7FFFF08B1601CC4B200BF002273
:107D400001210948FAF708F800BFFFF775FF701C1A
:107D5000C6B2082EDFDB15B9FFF7B6FF01E0FFF76B
:107D60003FFF204670BD00000004024000140240A6
:107D700070B50446002525E000BFE00928B10122C6
:107D8000D1021548F9F7E8FF05E000224FF4006141
:107D90001148F9F7E1FF00BFFFF74EFF00BF0122D6
:107DA00011460E48F9F7D8FF00BFFFF745FF00BFA7
:107DB000002201210948F9F7CFFF00BF6006040E39
:107DC000681CC5B2082DD7DB00BF0122D1020248D2
:107DD000F9F7C2FF00BF70BD00140240000402406A
:107DE00010B500BF0122D1021048F9F7B5FF00BF5E
:107DF00000BF012211460E48F9F7AEFF00BFFFF7A2
:107E00001BFF00BF00224FF400610848F9F7A4FFF0
:107E100000BFFFF711FF00BF002201210448F9F75E
:107E20009BFF00BFFFF708FF10BD000000140240D9
:107E30000004024010B500BF00224FF400610C485E
:107E4000F9F78AFF00BFFFF7F7FE00BF01221146D6
:107E50000848F9F781FF00BFFFF7EEFE00BF0122DF
:107E6000D1020348F9F778FF00BFFFF7E5FE10BD28
:107E7000001402400004024070B50024002500BF39
:107E80000122D1021648F9F767FF00BFFFF7D4FEC1
:107E900000BF012211461348F9F75EFF00BFFFF74C
:107EA000CBFE09E0601CC4B2FA2C03DDFFF7C2FF71
:107EB000012508E0FFF7C0FE4FF400610848F9F71C
:107EC00039FF0028EED100BF00BF00220121054884
:107ED000F9F742FF00BFFFF7AFFE284670BD000074
:107EE00000140240000402407CB506460D463446AC
:107EF0005020005D00F00100A84233D00DB10120F8
:107F000000E000205021095D60F300015020015580
:107F100004F14401684612F088F8BDF80000616A77
:107F2000898A084400B2ADF80000BDF80210606A0A
:107F3000C08A084400B2ADF80200BDF80400616ACE
:107F4000898A084400B2ADF80400BDF80610606AE2
:107F5000C08A084400B2ADF806006946304621F0F8
:107F6000A4F800BF7CBD37B582B005461446214653
:107F7000039814F07FF80190BDF80410084605B08E
:107F800030BD2DE9FF4F8DB005460E461446F07A00
:107F9000022803DC012011B0BDE8F08F308932697E
:107FA00001460C901098FCF767F907460FB90020BE
:107FB000F1E7397D01F01F0019F003FD10B14FF01A
:107FC00006080AE0397D01F01F0019F0DDFC10B150
:107FD0004FF0050801E04FF00408386A38B100BFDF
:107FE00000BF214628463A6A29F035FFDEE0B8692D
:107FF000002859D021460BA811F0E1FF308818B9AC
:108000007088B0F5807F32D0204612F0BBF88346EE
:1080100000BFE0886188401A401C00B20890301D03
:108020007188CDE90010308803B259460BA8089A30
:10803000FBF74CFCBDF82C002188084400B2ADF8D9
:108040002C00BDF82E006188084400B2ADF82E0067
:10805000BDF830002188084400B2ADF83000BDF80A
:1080600032006188084400B2ADF8320000BF0BAAAC
:1080700009A8A968FBF734F98146B9F1000F04D1CA
:10808000384601F03AFC012085E7D5F808A009A898
:10809000A860CDF80080224631462846BB6915F01D
:1080A0002BFAC5F808A081E022460BA8A968FBF7C7
:1080B00017F90A900A9820B9384601F01EFC0120F1
:1080C00069E70BA812F05EF809900BA812F05AF8B5
:1080D00000EB400003901CF023FC8146D5F808A07B
:1080E0000BA907A811F06BFF012107A812F0B9F83E
:1080F000BDF92C00B4F90010401A0690BDF92E000D
:10810000B4F90210A0EB010BBDF92E00059042E07E
:1081100007AA514602A8FBF7E3F80A900A9800B9AB
:1081200036E0CDF80090099803B20FFA8BF206986A
:1081300001B238461AF072F90490049801280ED062
:1081400038461AF08BF800BF00BF48461CF064FCAC
:10815000384601F0D2FBC5F808A000201BE702A8B2
:10816000A8604B4607AA31462846CDF8008015F096
:10817000C3F9BDF81E00401C00B2ADF81E00BDF8EA
:108180002200401C00B2ADF822000BF1010B00BF31
:108190000598401C0590BDF9321005988142B7DA68
:1081A000C5F808A048461CF037FC00BF384601F06F
:1081B000A4FB0120EFE600BF00BF704770B5044686
:1081C0000420FAF795FA0A48046025464FF47A70BD
:1081D00045434FF0E020006940F002004FF0E021FD
:1081E000086108464561006940F00100086170BD02
:1081F0001000002030B50446002504E04FF47A70EA
:1082000000F004F86D1CA542F8D330BD70B50346EC
:1082100000224FF0E02675690D4E366803FB06F428
:108220004FF0E026B16910E04FF0E026B0698842D7
:108230000BD0884202D20E1A324402E02E1A0E44AB
:1082400032440146A24200D300E0EDE700BF70BD1A
:1082500010000020F8B506460C4615460095B4F906
:108260000630B4F90420B4F90210B4F900000DF09E
:1082700004FD304614F000FEF8BD10B50FF04EFFBF
:1082800001200DF00DFC10BDF8B505462C461AF086
:10829000C9FB0646206B26F059F83168898B884265
:1082A0002CD2606A009094F83C0000F0030020B1EA
:1082B000012806D002280CD107E00020ADF800000C
:1082C00007E064208DF8020003E064208DF80300CD
:1082D00000BF00BF30461AF069FD2846009914F02F
:1082E00062FC50B100221C21284618F09FFA074674
:1082F000012F01D03846F8BD00BF00BF26F033F88B
:1083000020630120F7E700002DE9F04F9BB00746FE
:1083100089461646BA4617A814F06BFE4FF4A02102
:1083200038461FF081FB9DF8691060F382018DF8DB
:108330006910304611F042FF054600EBD5704FEA58
:1083400060083088404400B2ADF85800708840445E
:1083500000B2ADF85A00002138461FF018FD159004
:10836000494603A81EF072F917A80B904FF400308D
:10837000109033480490002005900AF13000FCF77B
:1083800077FA044657E02079032800D04DE0208B8F
:10839000ADF85C00208A00B2ADF85E006079FD287F
:1083A00001DD159803E060791599484300128DF8B6
:1083B00068002568B5F92000E98B08440090B5F9FC
:1083C0002030D5E90512A0681CF05CFA8346B5F9A7
:1083D0002000E98B08440090B5F92030D5E905125A
:1083E000E0681CF04FFA0290608B404400B2ADF898
:1083F0004800149416A80C9003AA1A21384618F0C5
:1084000015FA029880B21FFA8BF1CDE90010BDF881
:10841000480083B216AA17A9484614F0CCFD03AA57
:108420001B21384618F002FA00BF21460AF130003D
:10843000FCF718FA0446002CA5D11BB0BDE8F08F5C
:10844000A0BA030870B504460D460022294620460E
:1084500007F082FE01222946204607F07DFE022217
:108460002946204607F096FC04222946204607F0BC
:1084700091FC70BD2DE9F74F9EB00C46E0780228C4
:1084800002DC21B0BDE8F08F1CA8209911F08EFD10
:10849000B4F9200001282EDD94F82200FD282ADB03
:1084A000208840B3BDF8700014F8231F4908C1F3B9
:1084B0008001084400B2ADF87000BDF87200217868
:1084C0004908C1F34001084400B2ADF87200BDF89C
:1084D000740021784908C1F3C001401A00B2ADF818
:1084E0007400BDF8760014F82319C1F34001401A56
:1084F00000B2ADF876001E981CA982681AA8FAF797
:10850000EFFE00B9BDE7E07B00F0070616B9A088D2
:10851000199001E0E0881990BDF8641060898142EB
:1085200000D100261CA815F04DFF18901C2111A8A1
:10853000F8F708FAA0788DF85D00BDF86400ADF892
:108540004C00189860B9208850B94EB91CA81190F9
:10855000E0788DF85C0011A91E9816F0E3FD90E715
:10856000E078FD2801DBFF2000E0E07810901CA8F7
:1085700011F001FE0F901CA811F083FD0E90DDE9B3
:108580000E01814201DA0F9800E00E980D90B4F9C7
:1085900000100D98B1EB600F02DAB4F9000001E0B1
:1085A0000D98401007461AA811F0E5FD81464FF0DE
:1085B000FF300C9000200B90002F01DC189870B158
:1085C00048461CF0ADF90B9000233AB21CA905A84F
:1085D00016F070FA002105A815F0EEFB0C90BDF81E
:1085E0006800ADF80C00BDF86C00ADF810000B98F9
:1085F000149003A811901690FF208DF85C00A01D28
:10860000DDE90E2118F0B0FD8046B8F1000F0CD066
:10861000022E0AD1BDF96810D8F8080000EB41001D
:10862000BDF97010A0EB410012901898A0B3BDF9ED
:108630006A502CE028B2ADF80E0028B2ADF8120056
:108640004A4610990B981CF0DCFBBDF968100FFA34
:1086500089F32AB20B9815F065FE8DF854009DF849
:108660005400012802D102208DF85400012E09D1B6
:10867000BDF97210691AD8F8080000EB41000088B3
:10868000ADF84C0011A91E9816F04CFD6D1CBDF9FB
:108690006E00A842CEDACCE0FFE700255CE0BDF832
:1086A000720028440FFA80FABDF87600401B0FFADA
:1086B00080FBBDF96A00504504DDBDF96E005845E8
:1086C00000DA48E04A4610990B981CF09AFBBDF975
:1086D0000C100FFA89F352460B9815F023FE8DF813
:1086E00054009DF85400012802D102208DF8540056
:1086F000BDF96A00504514DCADF80EA0ADF812A02B
:10870000012E0AD1BDF97210AAEB0101D8F80800B8
:1087100000EB41000088ADF84C0011A91E9816F03E
:1087200001FDBDF96E00584514DBADF80EB0ADF893
:1087300012B0012E0AD1BDF97210ABEB0101D8F8CD
:10874000080000EB41000088ADF84C0011A91E980C
:1087500016F0E8FC00BF6D1CBD42A0DBBDF8700048
:10876000ADF80400BDF87400ADF80800BDF8720063
:10877000384400B2ADF80600BDF87600C01B00B268
:10878000ADF80A0001A815F01DFE00900098B0B9E0
:10879000AEB9BDF87200384400B2ADF80E00BDF8B5
:1087A0007600C01B00B2ADF8120010988DF85C0086
:1087B0000020149011A91E9816F0B4FC38E010980F
:1087C0008DF85C0001208DF85400BDF97600A0EB17
:1087D000070ABDF97200C51927E0009870B14A4632
:1087E00010990B981CF00DFBBDF968100FFA89F376
:1087F0002AB20B9815F096FD8DF8540028B2ADF80A
:108800000E0028B2ADF81200012E09D1BDF9721088
:10881000691AD8F8080000EB41000088ADF84C0058
:1088200011A91E9816F07EFC6D1C5545D5DD00BFC4
:1088300000BF0B9810B10B981CF0EEF80C98401C80
:1088400028B10C9816F01EFA05A815F097FDB8F19E
:10885000000F02D0404618F07EFC00BF11E62DE963
:10886000F0478EB007460C461546206910B90EB089
:10887000BDE8F087A07E022800DCF8E720691AF046
:1088800071F80646022E55D1002041F6FF71CDE960
:108890000001029003460DA8D4E9041226F04EF917
:1088A000284611F068FC814600EBD970298801EB5D
:1088B0006000BDF9348008EBD871A0EB610000B214
:1088C000ADF82C00BDF82C00BDF834100844401E53
:1088D00000B2ADF83000284611F0D3FB814600EB22
:1088E000D970698801EB6000BDF9368008EBD8715A
:1088F000A0EB610000B2ADF82E00BDF82E00BDF86F
:1089000036100844401E00B2ADF8320003A815F03E
:10891000DBF960690390208BADF81800A07E8DF81C
:108920002600002000900BAA03A93846236914F002
:1089300017FEAEE00DA9206919F0BCFC8046B8F125
:10894000010F02D000BF00BF91E707A814F0EBFDB4
:10895000A0788DF82800208BADF82400E07E8DF8FB
:108960002600A07E8DF82700207FE8BB284611F066
:1089700002FC824600EBDA70298801EB60000D9959
:10898000C1F38A2909EBD971A0EB610000B2ADF8FF
:108990001400284611F075FB824600EBDA706988F6
:1089A00001EB60000D994FEA515909EBD971A0EB29
:1089B000610000B2ADF81600BDF814000D99C1F3C6
:1089C0008A210844401E00B2ADF81800BDF8160018
:1089D0000D9900EB5150401E00B2ADF81A0005AAE7
:1089E00007A93846236900E002E014F04DFD4FE08E
:1089F0006888ADF81600BDF816000D9900EB5150CF
:108A0000401E00B2ADF81A003BE02888ADF8140013
:108A1000BDF814000D99C1F38A210844401E00B22C
:108A2000ADF8180017E005AA07A93846236914F025
:108A30002BFDBDF814000D99C1F38A21084400B242
:108A4000ADF81400BDF818000D99C1F38A2108444F
:108A500000B2ADF81800BDF91400B5F90410884251
:108A6000E1DDBDF816000D9900EB515000B2ADF8F4
:108A70001600BDF81A000D9900EB515000B2ADF888
:108A80001A00BDF91600B5F906108842BDDD00BF19
:108A900000BF00BFEBE62DE9F04F87B083460C46E0
:108AA000164694F82200022802DC07B0BDE8F08FD9
:108AB000208C00B9F9E794F82300C0F3440000B912
:108AC000F3E794F8230000F0010000B1EDE7304631
:108AD00011F051FB8146304611F0D3FA0746B4F944
:108AE0000050B94501DA484600E038468246B5EB09
:108AF0006A0F01DD4FEA6A05314605A811F056FA02
:108B0000BDF9141094F82300400800F0040010B1DF
:108B1000B4F9200003E0B4F920002844404208449E
:108B200000B2ADF81400BDF9181094F82300400805
:108B300000F0080010B1B4F9200003E0B4F92000FF
:108B400028444042081A00B2ADF81800BDF91610CA
:108B500094F82300400800F0020010B1B4F920009E
:108B600003E0B4F9200028444042084400B2ADF8C4
:108B70001600BDF91A1094F82300C0F3400010B19C
:108B8000B4F9200003E0B4F9200028444042081A58
:108B900000B2ADF81A00208C281A0FFA80F8B8F14C
:108BA000000F01DA4FF00008A07894F82210CDE908
:108BB0000210E08BADF804002BB205AA31465846EE
:108BC000CDF8008000F002F800BF6EE72DE9FF4FFE
:108BD000A3B00D4616461F463298FF2801DBFF2042
:108BE00000E032983290284615F0ECFB2290229853
:108BF00068B967B9309850B9329800903246294622
:108C0000319B239800F0A9FA27B0BDE8F08F239894
:108C10002946826820A8FAF763FB00B9F4E720A888
:108C200011F0A9FA81461C2119A81CF024F9484624
:108C30001BF076FE1C904FF0FF301890002F0ADDDD
:108C400000233A46294612A815F034FF002112A845
:108C500015F0B2F81890012331460CA8309A15F09F
:108C600029FF00210CA815F0A7F80B9009A819906E
:108C70001E90BDF8C400ADF86C0032988DF87C00F1
:108C800033988DF87D00B5F900003844B6F900102E
:108C9000884203DDB5F90000384401E0B6F9000070
:108CA00000B2ADF81C00B5F90400C01BB6F9041001
:108CB000884203DAB5F90400C01B01E0B6F90400EC
:108CC00000B2ADF82000B5F902003844B6F9021040
:108CD000884203DDB5F90200384401E0B6F902002C
:108CE00000B2ADF81E00B5F90600C01BB6F90610BB
:108CF000884203DAB5F90600C01B01E0B6F90600A8
:108D000000B2ADF8220007A811F035FA0690B5F9C7
:108D10000200B6F90210884201DC012000E00020C8
:108D20008246B5F90600B6F90610884201DB01203B
:108D300000E000208346229800284CD0BDF8800037
:108D4000ADF82400BDF88400ADF82800BDF98240DC
:108D500029E0BAF1000F04D1BDF91E00A04200DDE8
:108D600020E0BBF1000F04D1BDF92200A04200DADF
:108D70001DE020B2ADF8260020B2ADF82A00494629
:108D80001C981CF0AFF8BDF980100FFA89F322B2DD
:108D90001C9815F0C7FA8DF8740019A9239816F0DD
:108DA000C1F900BF641CBDF98600A042D1DA00BF42
:108DB0000CA815F0E3FA0B9815F064FF1898401C06
:108DC00028B112A815F0DAFA189815F05BFF1C9874
:108DD0001BF022FE18E7B5F90000B6F90010884232
:108DE00001DC012000E000200590B5F90400B6F98F
:108DF0000410884201DB012000E0002004900120E3
:108E00000390059860B1049850B1BAF1000F07D0F3
:108E1000BBF1000F04D00698322801DA002003903D
:108E200001208DF87400BAF1000F15D0039898B1A5
:108E3000BDF81C00ADF82400BDF82000ADF82800F6
:108E40006888ADF826007088401E00B2ADF82A0090
:108E500019A9239816F066F9BBF1000F15D00398F5
:108E600098B1BDF81C00ADF82400BDF82000ADF8A5
:108E70002800F088401C00B2ADF82600E888ADF864
:108E80002A0019A9239816F04DF9059898B1288859
:108E9000ADF824003088401E00B2ADF82800BDF8BF
:108EA0001E00ADF82600BDF82200ADF82A0019A971
:108EB000239816F037F9049898B1B088401C00B296
:108EC000ADF82400A888ADF82800BDF81E00ADF864
:108ED0002600BDF82200ADF82A0019A9239816F043
:108EE00021F90398F0BBBDF88000ADF82400BDF86F
:108EF0008400ADF82800B5F90200B6F90210401A56
:108F0000B84201DA384604E0B5F90200B6F90210B9
:108F1000401A00B20290002442E06888204400B267
:108F20000190E888001B00B20090BDF98210019802
:108F3000814205DDBDF986100098814200DA2EE0FD
:108F400049461C981BF0CEFFBDF924100FFA89F397
:108F5000019A1C9815F0E6F98DF87400BDF982109D
:108F6000019800E020E0814209DC0198ADF826007C
:108F70000198ADF82A0019A9239816F0D3F8BDF985
:108F800086100098814209DB0098ADF82600009811
:108F9000ADF82A0019A9239816F0C4F800BF641C84
:108FA00002988442B9DBC7E0BDF88000ADF8240028
:108FB000BDF98410BDF91C00401E814202DABDF9E2
:108FC000840002E0BDF91C00401E00B2ADF828008C
:108FD00009A811F0D0F88046B8F1000F48DD0598D7
:108FE00010B9BAF1000F1ED0BDF9824017E020B2CF
:108FF000ADF8260020B2ADF82A0041461C981BF0BF
:1090000071FFBDF92410434622B21C9815F08AF96D
:109010008DF8740019A9239816F084F8641CBDF922
:109020001E00A042E3DC059810B9BBF1000F1FD071
:10903000BDF92200441C17E020B2ADF8260020B292
:10904000ADF82A0041461C981BF04CFFBDF92410D6
:10905000434622B21C9815F065F98DF8740019A9E1
:10906000239816F05FF8641CBDF98600A042E3DA8D
:10907000BDF98010BDF92000401C814202DDBDF920
:10908000800002E0BDF92000401C00B2ADF82400D1
:10909000BDF88400ADF8280009A811F06CF88046EE
:1090A000B8F1000F48DD049810B9BAF1000F1ED0D6
:1090B000BDF9824017E020B2ADF8260020B2ADF82D
:1090C0002A0041461C981BF00DFFBDF924104346B1
:1090D00022B21C9815F026F98DF8740019A923986E
:1090E00016F020F8641CBDF91E00A042E3DC0498D1
:1090F00010B9BBF1000F1FD0BDF92200441C17E0CE
:1091000020B2ADF8260020B2ADF82A0041461C98E6
:109110001BF0E8FEBDF92410434622B21C9815F05E
:1091200001F98DF8740019A9239815F0FBFF641C50
:10913000BDF98600A042E3DA0CA815F01FF90B98E0
:1091400015F0A0FD12A815F019F9189815F09AFD60
:109150001C981BF061FC00BF56E52DE9FF4F89B05C
:1091600080460C461546DDF858901C2168461BF0D9
:1091700082FE07A80090BDF83000ADF808008DF819
:109180001890B4F90200B5F90210884201DC012000
:1091900000E000200646B4F90600B5F90610884242
:1091A00001DB012000E000200746B4F90000B5F91A
:1091B0000010884201DC012000E000208246B4F962
:1091C0000400B5F90410884201DB012000E0002012
:1091D00083462088ADF81C00A088ADF82000608888
:1091E000ADF81E006888401E00B2ADF822001EB126
:1091F0006946404615F096FFE888401C00B2ADF87D
:109200001E00E088ADF822001FB16946404615F007
:1092100089FF2088ADF81C002888401E00B2ADF8F8
:10922000200016B1B5F9020001E0B4F90200ADF872
:109230001E0017B1B5F9060001E0B4F90600ADF85B
:109240002200BAF1000F03D06946404615F06AFFCC
:10925000A888401C00B2ADF81C00A088ADF8200022
:10926000BBF1000F03D06946404615F05BFF0DB01F
:10927000BDE8F08F2DE9FF4F93B007469046994621
:109280004FF6FF70804502D117B0BDE8F08F3E4623
:10929000746A208C1290208C484506D0A4F8209047
:1092A000608C20F00400001D60844FF48021204673
:1092B0001FF06DF911904FF4802120461FF0D7F96F
:1092C0000546119817F0A4FC8246384609F091FA39
:1092D0008346BBF81600ADF83E00BDF93E000AEB30
:1092E000050108FB010000B2ADF83E00284605EB81
:1092F000D071BDF83E20A2EB610109B2ADF83E107D
:10930000BDF83E0050442844401E00B2ADF8420073
:10931000706A808AADF83C00706A008BADF840003E
:1093200001A815F0DDFC01AA4FF4802120461FF0B2
:10933000D3FC0FAA01A9149815F0B6FC129820844A
:10934000608C20F00400608400BF9DE72DE9F04FA1
:1093500091B007460D46904699464FF6FF708045FE
:1093600002D111B0BDE8F08F1097109F7C6A208C5D
:109370000F90208C484506D0A4F82090608C20F0F7
:109380000400001D608407A814F09EFC07AA4FF497
:10939000802120461FF0C5FB4FF4802120461FF09E
:1093A00066F9ADF82E00384609F023FA064606B9EC
:1093B000D7E7079817F02CFC8246F08AADF8160024
:1093C000BDF91600BDF92E10514408FB010000B292
:1093D000ADF81600BDF92E0000EBD071BDF81620D7
:1093E000A2EB610109B2ADF81610BDF816005044A9
:1093F000BDF82E100844401E00B2ADF81A00A08A35
:10940000ADF81400208BADF8180005AA03A8A968D0
:10941000F9F766FF8346BBF1000F13D0A8680290EE
:1094200003A8A86030461AF031FA0190002000909D
:1094300006F1140207A92846019B14F091F802983E
:10944000A86000BF0F982084608C20F00400608426
:1094500000BF86E72DE9F04105463548006813F066
:1094600025FD04462868866BF06A10B13046F16A23
:109470008847206890B1606880B10CE02C48006893
:109480000068806A38B12A4A12681068284A12684F
:109490001268916A884720690028EFD10120206175
:1094A000234800680068C068806900F0010050B17E
:1094B0001F4800680068C0688069C0F3400010B1B0
:1094C0000120606101E000206061606908B1012055
:1094D00000E0002007462868406998B12868007CB1
:1094E000C0F3011048B12868007CC0F3800020B1AF
:1094F000D6E9001000F01EF804E0D6E90021286843
:10950000FDF72AFD206880B1606870B12868007C92
:1095100000F0010000B147B12168A068884202D183
:109520006068A06001E02068A060BDE8F0810000F4
:10953000540100202DE9F34F83B0044688480068A9
:109540000568874800680068007CC0F3400040B1AF
:10955000287CC0F3800020B100BF00BF05B0BDE88B
:10956000F08F287CC0F3011002280AD1214628463A
:10957000049A00F004F921462846049AFDF7ECFC11
:10958000EBE0287CC0F30110012804D0287CC0F354
:1095900001100328F4D1002002907148006813F0F4
:1095A00085FC8246204610F0CAFD0646204610F093
:1095B00053FD83464FF4A050B0FBF6F000B258457F
:1095C00005DA4FF4A050B0FBF6F000B200E05846C8
:1095D0000190B4F90280287CC0F3011001280BD15E
:1095E00068882188401A401E00B2E080E088801B15
:1095F000401C00B2608006E02088608060883044B3
:10960000401E00B2E08000279EE0ABEB070101980E
:10961000814201DD019801E0ABEB07000FFA80F910
:109620000120CAF8100047BBB34526DBB146297CB0
:10963000C1F30111032901D1012100E000210846F5
:109640003146049A00F00FF9287CC0F3011001287C
:1096500007D1A4F8008008EB0600401E00B2A080ED
:109660003FE02888401EA0EB080000B2A080A08840
:10967000801B401C00B2208033E0029820B94FF4D8
:1096800020501BF04DF9029002980090297CC1F304
:109690000111032901D1012100E0002108464A46B9
:1096A0003146049B00F0B2F8287CC0F30110012879
:1096B0000AD108EB070000B2208008EB07004844FD
:1096C000401E00B2A0800CE02888401EA0EB0800DD
:1096D000C01B00B2A080A088A0EB0900401C00B213
:1096E000208007EB090058450DDBDAF8180000F080
:1096F000010040B1DAF81800C0F3400018B10120B1
:10970000CAF8140002E00020CAF81400029808B950
:10971000049800E00298024621462846FDF71CFC0A
:1097200004E0A86A10B12846A96A8847DAF8100050
:109730000028F6D106FB09F1049800EB41000490E3
:1097400007EB090007B200BF5F45FFF65EAF029866
:1097500010B102981BF060F900BF00BFFEE60000E8
:109760005401002018B5048800940C8804801488E3
:109770000C801C881480BDF800401C8018BD2DE9A9
:10978000FC5F05460C461646204610F0D8FC824683
:10979000204610F061FC83461AFB0BF00190019803
:1097A000471E4FF0000811E006EB470000880090CC
:1097B00006EB470006EB48010988018006EB4800EC
:1097C000BDF8001001807F1E08F101084745EBD865
:1097D000B4F9069068886188401A401E00B2E080A3
:1097E0006888A0EB0900401E00B26080B4F90490C4
:1097F00028882188401A401E00B2A0802888A0EB4B
:109800000900401E00B22080BDE8FC9F2DE9F04712
:1098100004461D46089F01FB02F0A0F1010C481E02
:1098200000FB02F800231AE008EB03000CB1ACEBDC
:10983000000000260FE0A946AD1C07EB400AB9F86E
:109840000090AAF800900CB1104400E0801A06F1D4
:1098500001090FFA89F68E42EDDB581C03B29342E0
:10986000E2DBBDE8F0872DE9F04782460C4615465D
:1098700000263BE0002731E0601E801B0FFA80F8D5
:10988000601EC01B0FFA80F9BAF1000F12D007FB5F
:10989000048C05EB4C0308FB049C05EB4C0209FB14
:1098A000046C05EB4C0106FB047C05EB4C00FFF758
:1098B00059FF11E009FB046C05EB4C0308FB049C09
:1098C00005EB4C0207FB048C05EB4C0106FB047C0A
:1098D00005EB4C00FFF746FF781C07B2601C00EB5D
:1098E000D071B7EB610FC7DB701C06B204EBD4710B
:1098F000B6EB610FBEDBBDE8F08710B5044620462D
:1099000018F0ACFC10BD00002DE9F14F9EB01E9880
:1099100016F086FF05462C461E9816F028FF1D906F
:10992000606A19F0B3FF07465020005D00F00100A7
:1099300010B91FB0BDE8F08F0FA815F0D1F90FAA2C
:109940004FF4E02128461FF0C7F904F144010DA8A7
:1099500010F06BFBBDF83400616A898A084400B2DC
:10996000ADF83400BDF83610606AC08A084400B211
:10997000ADF83600BDF83800616A898A084400B243
:10998000ADF83800BDF83A10606AC08A084400B2E9
:10999000ADF83A000DAA0FA91D9815F085F94FF4FE
:1099A000E02128461EF038F906464FF4E02128460B
:1099B0001EF09AFB30440FFA80F84FF4E02128465D
:1099C0001EF00BFD30440FFA80F900200B900C9034
:1099D000E16CC8191F49096888478246E06CC119C3
:1099E00052460BA81BF0B9F8BDF83400404400B251
:1099F000ADF83400BDF83600484400B2ADF836008A
:109A00004FF0000BD4F824A040F25742594650467C
:109A10001EF0F0FC019001980A9002A814F054F98D
:109A200002AA4FF4E02128461FF07BF89DF83F0082
:109A3000022805DCBDF81400BDF82810884207D0C4
:109A400000200BAB0DAA02A900901D9813F088FD11
:109A500000BF6EE7D40200202DE9F04FBDB00546EF
:109A60000E4600BF00BFAB460BF13000FAF74EFFC9
:109A700010B13DB0BDE8F08F05F114023BA8B1680C
:109A8000F9F72EFC00B9F4E7B0683A903BA8B06053
:109A900035A814F065F935AA4FF4E02128461FF0E7
:109AA000A7F827A815F01CF99DF8DC008DF89F0099
:109AB00047F6FF70ADF89C004FF4E02128461EF0F9
:109AC0008CFE074600EBD7704FEA60094FF4E021A7
:109AD00028461EF082FE074600EBD7704FEA600A68
:109AE000314604A81CF0B2FD24A80A9016A80890DC
:109AF0004FF4E020119069480590052006900BF185
:109B00003000FAF7B5FE0446C0E00A2235A924A8C1
:109B10001BF023F8382227A916A81BF01EF8E088AE
:109B2000ADF89000E088ADF85C0039A80D9038A839
:109B30000E90607B00F0010020B1B4F90070B4F920
:109B4000028010E0A08847F6FF71884200D197E0BC
:109B5000A28801AB2846A16811F052FEBDF904703D
:109B6000BDF9068000BFA88A384407B2E88A40449D
:109B70000FFA80F8B9F1000F19D0BAF1000F16D022
:109B8000A7EB090000B2ADF8080007EB090000B22E
:109B9000ADF80C00A8EB0A0000B2ADF80A0008EB23
:109BA0000A0000B2ADF80E0002A8079001E0002004
:109BB0000790207B00F0030070B3207B00F00100D1
:109BC00010B1B5F9140000E03846ADF8E400ADF886
:109BD000E680207B00F0020010B1B5F9180000E02B
:109BE0003846ADF8E000BDF8E600ADF8E20004AAA2
:109BF0001A21284616F01AFE38AB39AA24A9304695
:109C000014F097F802AA16A9304615F04DF804AAE8
:109C10001B21284616F00AFE207B00F00C0070B3D2
:109C2000ADF8E470207B00F0040010B1B5F9160027
:109C300000E04046ADF8E600BDF8E400ADF8E00015
:109C4000207B00F0080010B1B5F91A0000E0404692
:109C5000ADF8E20004AA1A21284616F0E7FD38AB59
:109C600039AA24A9304614F064F802AA16A930468D
:109C700015F01AF804AA1B21284616F0D7FD00BFDC
:109C800021460BF13000FAF7EDFD0446002C7FF47D
:109C90003CAF3A98B06000BFEBE6000068B503083F
:109CA0002DE9F14F9AB01A9816F0BAFD04461A98A9
:109CB00016F05DFD199020461EF0C3FD07462046B4
:109CC0001DF024F8834607EBD771A28A02EB6101ED
:109CD00009B218910BEBDB714A10E18A114409B209
:109CE000179107EBD7714E1014A814F039F814AA85
:109CF000002120461EF07CFF4FF41D7016FB00F083
:109D0000552190FBF1F0642190FBF1F000B2ADF829
:109D10005200BDF85200801C00B2ADF85200002085
:109D20001390002120461DF08EFE0546002347F6C5
:109D3000FF7204F114010DA814F0BCFE00210DA85F
:109D400014F03AF80C9000BFA08AADF82800E08A21
:109D5000ADF82A00208BADF82C00608BADF82E00FA
:109D600000BFBDF82800284400B2ADF82800BDF8B7
:109D70002C00401B00B2ADF82C00BDF82A0028448E
:109D800000B2ADF82A00BDF82E00401B00B2ADF8BD
:109D90002E00012347F6FF720AA904A814F08AFED8
:109DA000002104A814F008F80390BDF952804FF088
:109DB000000A4FE051462046FBF7B4FF0090BDF883
:109DC0000000ADF850001398C0F30F290FFA89F086
:109DD00024F0C6FD06EB08014843189901EBE0307A
:109DE00000B2ADF804000FFA89F024F0A9FD06EBEB
:109DF00008014843179901EBE03000B2ADF80600C6
:109E00000FFA89F024F0ACFD711BA1EB0801484367
:109E1000189901EBE03000B2ADF808000FFA89F0B4
:109E200024F08EFD711BA1EB08014843179901EB4B
:109E3000E03001B2ADF80A1002AB01AA14A91998DA
:109E400013F077FF0AF103001FFA80FA139800F568
:109E500087601390BAF5807FACDD0DA814F08EFA00
:109E600004A814F08BFA0C9814F00CFF039814F06B
:109E700009FF1BB0BDE8F08F2DE9F04FA5B00446F7
:109E80000F46254604F1140123A8BA68F9F728FA09
:109E90002290229810B925B0BDE8F08FB8682190C3
:109EA00023A8B860002120461DF08FFE1E900021DF
:109EB00020461EF0A4F801461E98084400B21D90EA
:109EC000002120461EF007FA01461E98084400B201
:109ED0001C9020461CF0A5FE7E35E9884843001200
:109EE00000B21B9020461CF07DFE298948430012D9
:109EF00000B21A9017A813F033FF17AA00212046CA
:109F00001EF076FE394605A81CF0A0FB002012903A
:109F10008C4806900020079017A80B904FF0FF3058
:109F2000139000200E900F9005AA1A21204616F0DB
:109F30007DFC002001903122204601991EF05AFA42
:109F40000090009800F0FF0B00BF002120461DF09C
:109F50003CFE0490002001903322204601991EF01F
:109F600049FA0090009800F0FF0800BF20461CF05E
:109F7000C3FF039020461DF0B9F8029035F87E0922
:109F8000002865D0E18A1C9801440298081A00B2A2
:109F90000190A08AADF88000208BADF87C004FF0D6
:109FA0000009B5F87E000FFA80FABBF1020F1ADD46
:109FB0000498002817DD08F0020040B10021204677
:109FC0001EF089F918B909F101000FFA80F908F0BB
:109FD000010040B1002120461DF034FF18B9AAF15C
:109FE00001000FFA80FA4E462FE01A987043B5F838
:109FF0007E10491E90FBF1F000B2ADF88200BDF872
:10A0000082100198084400B2ADF88200BDF88200C9
:10A01000ADF87E004B4806900120079020A80E90D6
:10A020001FA80F90139605AA1A21204616F0FEFBD2
:10A030001FAB20AA17A9384613F07BFE05AA1B21E7
:10A04000204616F0F3FB701C06B25645CDDB00BF70
:10A05000B5F88000002865D0A18A1D9801440398B6
:10A06000081A00B20190E08AADF88200608BADF86A
:10A070007E004FF00009B5F880000FFA80FABBF1BE
:10A08000020F1ADD0498002817DD08F0040040B123
:10A09000002120461DF0B3FF18B909F101000FFAA5
:10A0A00080F908F0080040B1002120461EF050F869
:10A0B00018B9AAF101000FFA80FA4E462FE01B985A
:10A0C0007043B5F88010491E90FBF1F000B2ADF876
:10A0D0008000BDF880100198084400B2ADF88000FF
:10A0E000BDF88000ADF87C0016480690022007906D
:10A0F00020A80E901FA80F90139605AA1A2120469B
:10A1000016F094FB1FAB20AA17A9384613F011FED6
:10A1100005AA1B21204616F089FB701C06B2564585
:10A12000CDDB00BF4FF0FF30139000200E900F905A
:10A1300005AA1B21204616F079FB2198B86000BFC4
:10A14000A9E6000068B503082DE9F14F9AB01A9806
:10A1500016F005FB07461A9816F062FB05462C46DA
:10A16000122F7DD11A9816F058FB06463078022837
:10A1700002D11BB0BDE8F08F94F8380000F0030066
:10A18000032805D094F8380000F00300022802D11B
:10A1900001203070EDE794F83800C0F38400042803
:10A1A00008D094F83800C0F38400012802D00120C0
:10A1B0003070DEE74FF0000A4622514628461EF076
:10A1C00019F919901998C0B2FF2802D001203070F7
:10A1D000CFE7002128461EF08BFA8146208E81446D
:10A1E000B9F1000F02D001203070C2E700212846EB
:10A1F0001EF0BFFA8046E08E00FB08F04FEA2028F0
:10A200001A9816F00AFB8346B8F5807F09D1002220
:10A2100005F114015846F9F7A4F8E8BB01203070A5
:10A22000A7E728461CF072FD824628461EF009FB6F
:10A23000179004F132001FFA88F100235246CDE94D
:10A24000001018A81799F9F741FBBDF86000A98A1A
:10A25000084400B2ADF86000BDF86210E88A00E082
:10A260001DE0084400B2ADF86200BDF86400A98AA0
:10A27000084400B2ADF86400BDF86610E88A0844EE
:10A2800000B2ADF86600002218A95846F9F769F83F
:10A2900018B9012030706CE700E000BF19E2152FFB
:10A2A00001D0182FFAD1002128461EF062FA80460C
:10A2B000E08E00FB08F04FEA2028002128461EF01F
:10A2C00017FA8246208E824428461EF0BAFA199068
:10A2D00028461CF01BFD1890002641F23202314640
:10A2E00028461EF087F80E900E9800B2814600BFF7
:10A2F00041F61202314628461EF07CF80E900E9868
:10A3000048440FFA80FB00BF41F61302314628464D
:10A310001EF070F80E900E98484400B2179000BFDF
:10A3200041F61002314628461EF064F80E900E9851
:10A33000484400B2169000BF41F61102314628464B
:10A340001EF058F80E900E98484400B21590608E9A
:10A35000584400B2ADF85000A18E1698084400B2DF
:10A36000ADF8520094F8390000F00300012804D140
:10A3700012A928461CF074FC27E014A91FFA88F0E3
:10A380000FFA8AF3CDE9000112A8DDE91821F9F7E7
:10A390009DFABDF84800A98A084400B2ADF848000B
:10A3A000BDF84A10E88A084400B2ADF84A00BDF88A
:10A3B0004C00A98A084400B2ADF84C00BDF84E101C
:10A3C000E88A084400B2ADF84E0005F1140110A867
:10A3D0000FF019FE12A905F114000FF014FEBE488B
:10A3E0001A991CF059FB0F900F98012800D0C0E675
:10A3F00010A905F114000FF006FE152F7ED1E08D97
:10A4000008B1A08D00B9B4E6B8F1000F00D1B0E6F4
:10A410001A9816F0ACF9064605F114010DA80FF0D4
:10A42000F2FD284618F08CF90C9094F8390000F0F1
:10A43000030001283CD1B4F92C10BDF93020891A51
:10A44000481C00EBD071BDF83420A2EB610109B2C9
:10A45000ADF83410B4F92C10BDF93020891A481C1D
:10A4600000EBD071BDF83820A2EB610109B2ADF864
:10A470003810B4F92E10BDF93220891A481C00EBAF
:10A48000D071BDF83620A2EB610109B2ADF83610EB
:10A49000B4F92E10BDF93220891A481C00EBD07196
:10A4A000BDF83A20A2EB610109B2ADF83A1013E011
:10A4B00012A80FF09FFEBDF834100844401E00B2F1
:10A4C000ADF8380012A80FF00DFEBDF836100844A4
:10A4D000401E00B2ADF83A00BDF83400584400B256
:10A4E000ADF83400BDF836101698084400B2ADF847
:10A4F0003600BDF838101798081A00E0E8E000B2FE
:10A50000ADF83800BDF83A101598081A00B2ADF849
:10A510003A0094F8380000F00300012805D094F8C0
:10A52000380000F0030000287AD106A812F0FBFFE3
:10A5300006AA002128461EF095FA1FFA88F0ADF809
:10A540001A001FFA8AF0ADF81800608EADF81C00F2
:10A55000A18EADF81E1094F83800C0098DF82C00BB
:10A56000BDF84800584400B2ADF81000BDF84A10DC
:10A570001698084400B2ADF81200BDF84C101798B8
:10A58000081A00B2ADF81400BDF84E101598081A5C
:10A5900000B2ADF81600B068039004AA04A8B16830
:10A5A000F8F79EFE00B9E4E504A8B060BDF83610E7
:10A5B000608D084400B2ADF80600BDF90600BDF993
:10A5C0003610884206DDBDF80600E18D401A00B263
:10A5D000ADF80600BDF80600E18D0844401E00B24B
:10A5E000ADF80A0049E0BDF83400218D084400B2FE
:10A5F000ADF80400BDF90400BDF93410884206DD51
:10A60000BDF80400A18D401A00B2ADF80400BDF8F9
:10A610000400A18D0844401E00B2ADF8080016E009
:10A6200034E001AA06A93046636A12F02DFFBDF896
:10A630000400BDF83010084400B2ADF80400BDF8C5
:10A640000800BDF83010084400B2ADF80800BDF9AC
:10A650000400BDF938108842E3DBBDF80600BDF800
:10A660003210084400B2ADF80600BDF80A00BDF88B
:10A670003210084400B2ADF80A00BDF90600BDF979
:10A680003A108842AFDB0398B06020E094F83800BD
:10A6900000F00300022811D104A813F015FB04AA4E
:10A6A000002128461EF03DFA0020009005F114021A
:10A6B00004A93046636A12F053FF08E000BF00BFF0
:10A6C000002305F114021946304612F0DDFE00BFEA
:10A6D00000BF00BF4DE50000403E04082DE9F14FEA
:10A6E000DCB05C9816F09CF805462C465C9816F099
:10A6F0003EF85B9059A928461CF0B2FA0020CDE93B
:10A70000105040F60A02DDE910011DF073FE0F90B3
:10A710000F9800B258900020CDE9105040F60B027F
:10A72000DDE910011DF066FE0F900F9800B2579002
:10A73000BDF864115898081A00B2ADF86401BDF86C
:10A7400068115898084400B2ADF86801BDF8661168
:10A750005798081A00B2ADF86601BDF86A1157980B
:10A76000084400B2ADF86A0159A80FF035FD8346E0
:10A7700059A80FF0A9FC5690D4E90A10A0EB0109E2
:10A780005698834501DB012000E000208046002030
:10A79000559094F85C0000F0030001280BD1A06AEA
:10A7A000002808DAE06A002805DDA16A206B8842EB
:10A7B00001D101205590002128461DF047FC5490FE
:10A7C000002128461DF0EBFC5390002128461DF087
:10A7D000A9FD5290002128461DF05BFB519059A91C
:10A7E00004F134000FF0FDFBA18E5498084400B230
:10A7F000A086218F5398081A01B22187E18E5298C2
:10A80000084401B2E186618F5198081A01B261874C
:10A81000B8F1000F13D004F134000FF055FC0428F8
:10A820000DDA569800EBD0714A10E98A1144891E5E
:10A830000AB2E286E08E001D01B2618715E0B8F130
:10A84000000F12D104F134000FF0C6FC04280CDA1A
:10A8500058460BEBD071AA8A02EB6101891E09B23E
:10A86000A186A08E001D01B2218704F134000FF0F3
:10A87000B3FC509004F134000FF026FC4F90B8F177
:10A88000000F01D0509800E04F988246B8F1000FB9
:10A8900005D004F13406371DFE484C9004E004F165
:10A8A0003606371DFC484C90A06D401CF8B1A36AD9
:10A8B000216DC91A01FB0AF191FBF9F108B2A36AF3
:10A8C000616DC91A01FB0AF191FBF9F10AB2131A81
:10A8D000D4F858C003FB0CF1CB1701EB13631B1228
:10A8E0001BB24D934D99014409B24D9108E0A16A04
:10A8F000206B401A00FB0AF090FBF9F000B24D907B
:10A90000A06C401CE0B1A36A216CC91A01FB0AF1DA
:10A9100091FBF9F108B2A36A616CC91A01FB0AF153
:10A9200091FBF9F10AB2131AD4F848C003FB0CF1F9
:10A93000CB1701EB136300EB23231BB24E9308E00C
:10A94000D4E90901401A00FB0AF090FBF9F000B2CB
:10A950004E900020119041F26A42284611991DF054
:10A9600049FD10901098C0B24B90B8F1000F0ED076
:10A970004B9801280BD130463E4607464E99494236
:10A9800009B24E914D99494209B24D9100BFB8F1BB
:10A99000000F0AD031884E98084400B238803188C0
:10A9A0004D98084400B230800AE039884E98081A61
:10A9B000401C00B2308039884D98081A00B23880A7
:10A9C000559878B3A26A524202FB0AF292FBF9F25E
:10A9D00011B2B8F1000F0CD032880A4410B2B7F9A6
:10A9E0000020824201DD30801BE03A8832803880CE
:10A9F00017E03A88521A521C10B2B6F9002082426F
:10AA000001DD388002E032883A803080B7F90020DA
:10AA1000B6F900309A4204DAB6F900003A8832807A
:10AA2000388000BF559800BB04F134004C9988472A
:10AA300001281ADC68465B991BF008FE4FF40030D1
:10AA40000D90964801900020029004F1340003908C
:10AA50006A461A21284615F0E9FE6A461B21284657
:10AA600015F0E4FE5DB0BDE8F08F04F1340149A8B3
:10AA70000FF0B7FA3BA814F033F93BAA4FF40031BA
:10AA800028461EF029F929A85B991BF0DFFD4FF439
:10AA90000030369081482A9000202B903BA82D90C2
:10AAA00004F134002C9029AA1A21284615F0BEFE84
:10AAB000002011906022284611991DF09BFC1090F7
:10AAC000109800B228905698834501DA584600E065
:10AAD00056982790DDE92701B1EB600F02DD27983A
:10AAE00040102890BDF9EC0026904F99509888426C
:10AAF00001DA509800E04F982790DDE92601B0EB8D
:10AB0000610F02DD279840102690B8F1000F08D0A1
:10AB100004F134000FF060FB01462698B1EB400FC2
:10AB20000BDCB8F1000F28D104F134000FF0CCFA9F
:10AB300001462698B1EB400F1FDD9DF8EF00119004
:10AB40009DF8060110909DF80E010F9000208DF8E1
:10AB5000EF008DF806018DF80E0104F134023BA9D7
:10AB60005B9814F0A1F811988DF8EF0010988DF80B
:10AB700006010F988DF80E0100BFA98A5498084469
:10AB800000B2ADF87800298B5398081A00B2ADF8DE
:10AB90007C00E98A5298084400B2ADF87A00698BCB
:10ABA0005198081A00B2ADF87E0000231EA920A813
:10ABB000289A13F07FFF002120A813F0FDF81D90C4
:10ABC0009DF822011C909DF80E011B9000208DF82D
:10ABD0000E018DF8220159A919A80FF002FABDF84B
:10ABE00064105498084400B2ADF86400BDF86610D3
:10ABF0005298084400B2ADF86600BDF8681053984A
:10AC0000081A00B2ADF86800BDF86A105198081A29
:10AC100000B2ADF86A00B8F1000F15D019A80FF016
:10AC200053FA042810DA569800EBD0714A10E98ADA
:10AC30001144891E09B2ADF86610BDF86600001D0A
:10AC400000B2ADF86A0017E0B8F1000F14D119A8EE
:10AC50000FF0C2FA04280FDA58460BEBD071AA8A1B
:10AC600002EB6101891E09B2ADF86410BDF8640001
:10AC7000001D00B2ADF86800BDF9EC20002304F11E
:10AC8000340113A813F016FF002113A813F094F851
:10AC9000129005E0D9A10108C9A00108983D040857
:10ACA00019AA3BA95B9813F0FFFF1B988DF80E01C2
:10ACB0001C988DF8220100208DF8EF008DF8060118
:10ACC0008DF8220104F134023BA95B9813F0ECFFEC
:10ACD00013A813F053FB20A813F050FB129813F0A5
:10ACE000D1FF1D9813F0CEFF29AA1B21284615F08D
:10ACF0009DFD00BFB6E6F0B591B00546284615F0BB
:10AD00008FFD0446284615F032FD0746264603A867
:10AD100013F0E6FF03AA4FF4403120461DF0DCFF9C
:10AD200047F6FF70ADF80C002C20805D00F00100AC
:10AD300038B1204611F025FF0090BDF80000ADF8B5
:10AD40001000214601A807F06DFC01AA03A93846AE
:10AD500013F0AAFF11B0F0BD2DE9F04FB3B081465A
:10AD6000484615F05DFD80464446484615F0FFFC18
:10AD70003290002140461CF0C1FE054640461DF0C1
:10AD800060FD824640461BF0C1FF8346DA4501DB89
:10AD9000012000E0002006460EB1584600E0504673
:10ADA0003190002794F85C0000F00300012806D1E0
:10ADB000A06A002803DAE06A002800DD0127002EDF
:10ADC0003CD097B93EB1012D02D1B4F9340009E06D
:10ADD000B4F9380006E0012D02D1B4F9360001E0E3
:10ADE000B4F93A00ADF8BC0037E0606A002812DB25
:10ADF0003EB1012D02D1B4F9340009E0B4F93800B4
:10AE000006E0012D02D1B4F9360001E0B4F93A00B0
:10AE1000ADF8BC0021E03EB1012D02D0B4F9340000
:10AE200009E0B4F9380006E0012D02D0B4F936008B
:10AE300001E0B4F93A00ADF8BC000EE01FB9E08EB5
:10AE4000ADF8BE0009E0606A002803DBE08EADF8D3
:10AE5000BE0002E0608FADF8BE0021A813F040FFF5
:10AE600021AA4FF4403140461DF036FF33462FA94A
:10AE70004046319A24F042FF2FA904F168000FF0F8
:10AE8000CBF80FA832991BF0E1FB4FF440301C9037
:10AE90003C481090002011901D9004F16800129021
:10AEA00021A81390404621F042F8022810D00FAAA2
:10AEB0001A21404615F0BAFC04F1680221A9329823
:10AEC00013F0F2FE0FAA1B21404615F0AFFC55E02F
:10AED000382221A901A819F040FE0FAA1A214046E4
:10AEE00015F0A4FC04F1680221A9329813F0DCFEED
:10AEF0000FAA1B21404615F099FC96B13EB1012DD9
:10AF000002D0B4F9340009E0B4F9380006E0012DAC
:10AF100002D0B4F9360001E0B4F93A00ADF8BC0053
:10AF200002E0608FADF8BE0033462FA94046319A4B
:10AF300024F0E4FE2FA904F160000FF06DF8382230
:10AF400001A921A819F009FE0120119004F1600067
:10AF5000129021A8139001201D900FAA1A2140469B
:10AF600015F064FC04F1600221A9329813F09CFEF4
:10AF70000FAA1B21404615F059FC00BF33B0BDE8B5
:10AF8000F08F0000CC3E04082DE9F04790B0074652
:10AF9000384615F045FC054628461BF007FF0646D7
:10AFA00008A812F091FE08AA002130461DF0B9FD54
:10AFB000384615F0DCFB0446D4F8088006F114028C
:10AFC00006A8A168F8F78CF910B910B0BDE8F087B1
:10AFD00006A8A06004A9304607F0A2FFA88AADF831
:10AFE0000800E88AADF80A00288BADF80C00BDF81F
:10AFF0001200ADF80E0002AA02A8A168F8F770F9D5
:10B0000098B1D4F8089002A8A060284618F03EFC39
:10B0100082460020534605F1140208A900902046FC
:10B0200012F09EFAC4F8089000BFA88AADF8080094
:10B03000BDF81600ADF80A00288BADF80C00688B3F
:10B04000ADF80E0002AA02A8A168F8F749F998B174
:10B05000D4F8089002A8A060284618F017FC824691
:10B060000020534605F1140208A90090204612F072
:10B0700077FAC4F8089000BFC4F8088000BFA4E7BE
:10B080002DE9FF4FA1B0064614462498807B00F0BE
:10B090000F052298807E1F90032D00D10425012DDD
:10B0A00006D0022D0BD0042D10D0082D1DD114E098
:10B0B000DFF86C834FF0800A02201E901AE0DFF860
:10B0C00064834FF0C00A04201E9013E0DFF8588319
:10B0D0004FF0F00A10201E900CE0DFF850834FF084
:10B0E000FF0A4FF480701E9004E000BF00BF25B03F
:10B0F000BDE8F08F00BF1F98FD2823DACC48017807
:10B100001F98814203D1CB480068A84213D0002089
:10B110000DE018F80010FF2901D11F9904E018F87C
:10B1200000101F9A51430912C34A1154401C1E9922
:10B130008842EED300BFDFF80083BD491F98087036
:10B14000BC4805602498B0F806B0249800891B908C
:10B150000BFB05F01A90B4F90000B168B1F90010CA
:10B16000884201DB002005E0B068B0F90000B4F9C6
:10B170000010401A1990B4F900005844B168B1F9B0
:10B180000410884201DC584606E0B068B0F90400BB
:10B19000B4F90010401A401C1890B4F90200B168CC
:10B1A000B1F90210884201DB002005E0B068B0F977
:10B1B0000200B4F90210401A1790B4F902101B985B
:10B1C0000844B168B1F90610884201DC1B9806E01A
:10B1D000B068B0F90600B4F90210401A401C16908D
:10B1E0001A9917984843199901FB050015902E9953
:10B1F000159801EBD0002E90159800F007071C2140
:10B200000DA819F038FE22988089ADF83C002298EC
:10B21000807E8DF84C002298807FC0F3C2008DF8AC
:10B220004D00F9F739FE019011F044FE0C901B9887
:10B230000BFB00F10C98814201DD0C9802E01B9998
:10B240000BFB01F00B900B9819F06AFB8146CDF8CF
:10B25000409000200A9021881998084400B2ADF867
:10B260002000218818980844401E00B2ADF8240040
:10B2700061881798084400B2ADF82200BDF822009A
:10B28000ADF8260000BFBDF82400BDF82010401A1C
:10B29000401C00B2079000BFBDF82000ADF81400BC
:10B2A000BDF82200ADF81600BDF82400ADF8180076
:10B2B000BDF82600ADF81A0000BFBDF816101698AC
:10B2C000084400B2ADF81A0005A813F07BF804900A
:10B2D00008A80D901290C5F10800039019980BEB87
:10B2E00000011898081A6843029017981C9078E09B
:10B2F0000A9801902AFA07F0209019981D9028E0EA
:10B300002E980078209908400399C91BC8401490D2
:10B31000149830B1149818F800100A9809F8001021
:10B3200003E000210A9809F800100398874204D22C
:10B330002F442098E840209005E00027CDF880A019
:10B340002E98401C2E900A98401C0A901D98401C74
:10B350001D9018991D988842D2DB0498A0B1BDF9C0
:10B360002620BDF92010019B09EB0300079B12F07A
:10B37000D9FF8DF844009DF8440028B9019909EBE4
:10B380000100079919F077FDDDE91801411A0A98C3
:10B3900001440B98814206D2BDF82600401C00B241
:10B3A000ADF8260012E002208DF844000DA93046C9
:10B3B00013F0B8FEBDF82600401C00B2ADF8220024
:10B3C000BDF82200ADF8260000200A90029807443C
:10B3D0002E9800EBD7002E9007F007071C98401C12
:10B3E0001C9016991C98884282DBBDF92200BDF999
:10B3F000261088420ED0BDF82600401E00B2ADF8DF
:10B40000260002208DF844000DA9304613F08AFE74
:10B4100000200A90484619F0FFFA00BF67E60000D6
:10B42000B4B30308B6B30308C2B30308D2B3030826
:10B43000640100206801002054C400202DE9FF4F62
:10B440008FB00C4615461E46B4F90200401E0E9001
:10B450000E9840100D900E9800F001010D980844D0
:10B460000C90B5F90000B6F90010884202DAB5F97F
:10B47000000001E0B6F90000ADF82800B5F90000C1
:10B48000B6F90010884202DDB5F9000001E0B6F916
:10B490000000401E00B2ADF82C0069880C98081A14
:10B4A00000B2ADF82A0069880D98084400B2ADF8E2
:10B4B0002E000F980AA982680AA8F7F711FF8246A2
:10B4C000BAF1000F02D113B0BDE8F08FE08818B1D7
:10B4D000A08808B1012000E00020834601200990E7
:10B4E0000AA812F06FFF10B10020099004E0BBF130
:10B4F000000F01D0002009901C2102A819F0BBFC0C
:10B500000AA802902088ADF81000207A8DF820005B
:10B51000099820B102A90F9813F004FE78E00AA858
:10B520000EF022FE0746BDF92E000190BDF82A005C
:10B53000ADF82E0000200090BBF1000F0BD0B4F945
:10B540000600B4F904100844BDF9281091FBF0F28C
:10B5500000FB12100090384619F0E2F98046CDF851
:10B5600014800AA80790BDF92A904AE0394640465F
:10B5700019F0B8FCBDF928103BB20FFA89F2404629
:10B5800012F0D0FE8DF81800BBF1000F27D09DF807
:10B59000180020B3009800211BE0B4F90420824277
:10B5A00007DBA3881B1A1AB28B1819B2831818B2BA
:10B5B0000BE0B4F90620B4F904301A44824201DCED
:10B5C000002002E0002208F801204A1C11B2421CAF
:10B5D00010B2B942E1DB02228DF8182000BF02A9A7
:10B5E0000F9813F09FFDBDF82A00401C00B2ADF883
:10B5F0002A00BDF82E00401C00B2ADF82E0009F163
:10B60000010901988145B1DD404619F005FA00BFF6
:10B6100000BF58E72DE9FF4FC7B08B4691469A46C9
:10B62000B9F90200BAF90210884210DAB9F802003A
:10B63000ADF81A01BAF80200ADF81601B9F8000029
:10B64000ADF81801BAF80000ADF814010FE0BAF82F
:10B650000200ADF81A01B9F80200ADF81601BAF807
:10B660000000ADF81801B9F80000ADF81401BDF9FB
:10B670001401BDF91811441ABDF91601BDF91A11CA
:10B68000451A002C01DD204600E06042002D01DD5E
:10B69000294600E06942884201DD012000E00020E7
:10B6A0004490BBF9026000204390449870B1002D93
:10B6B00001DD284600E068424101002C01DD204602
:10B6C00000E0604291FBF0F043900DE0002C01DDC2
:10B6D000204600E060424101002D01DD284600E0E7
:10B6E000684291FBF0F04390E0494398085C704356
:10B6F0003F30C611771006F0010000EB0708BDF9D6
:10B700001801BDF91411884202DABDF9180101E0EF
:10B71000BDF91401801B00B2ADF80401BDF9180198
:10B72000BDF91411884202DDBDF9180101E0BDF92F
:10B730001401304400B2ADF80801BDF91A01BDF999
:10B740001611884202DABDF91A0101E0BDF91601AD
:10B75000801B00B2ADF80601BDF91A01BDF9161142
:10B76000884202DDBDF91A0101E0BDF9160130443D
:10B7700000B2ADF80A01479841A9826841A8F7F7DD
:10B78000AFFD4090409810B94BB0BDE8F08F4498A1
:10B79000F0B3002C24DD0021BDF81601C01B00B25F
:10B7A000CDE90001BDF91431BDF81A01C01B02B288
:10B7B000BDF9181135A812F0FFFE0121BDF81601E0
:10B7C000404400B2CDE90001BDF91431BDF81A01C1
:10B7D000404402B2BDF918112AA812F0EDFE4AE069
:10B7E0000021BDF81601404400B2CDE90001BDF9C9
:10B7F0001431BDF81A01404402B2BDF9181135A840
:10B8000012F0DAFE0121BDF81601C01B00B200E003
:10B810000DE0CDE90001BDF91431BDF81A01C01BDE
:10B8200002B2BDF918112AA812F0C6FE23E00021C9
:10B83000BDF91601CDE90001BDF81401404403B281
:10B84000BDF91A21BDF81801404401B235A812F023
:10B85000B3FE0121BDF91601CDE90001BDF81401C7
:10B86000C01B03B2BDF91A21BDF81801C01B01B2FB
:10B870002AA812F0A1FE002135A812F09DFA13901B
:10B8800000212AA812F098FA12904FF0FF30119080
:10B8900010909BF80900C0F3001068BB0321BDF8AD
:10B8A0001A01204400B2CDE90001BDF81801401B87
:10B8B00003B2BDF91A21BDF918111FA812F07CFEC0
:10B8C0000221BDF81601204400B2CDE90001BDF807
:10B8D0001401401B03B2BDF91621BDF9141114A8BF
:10B8E00012F06AFE00211FA812F066FA11900021E2
:10B8F00014A812F061FA109041A80EF035FC0F90D8
:10B90000F9F7CAFA019011F0D5FA0D9041A80EF09E
:10B91000F7FB01460D98814203D241A80EF0F0FBDF
:10B9200000E00D980C900C9818F0FAFF0B90BDF900
:10B930000A010A90BDF80601ADF80A01002009903D
:10B94000DDE90B0119F0CEFA1C2102A819F093FAD7
:10B9500041A80290BBF80000ADF810009BF8080069
:10B960008DF820000B98059041A80790BDF90601BD
:10B970000E9040E0BDF90411099B0B9AD0180F9A64
:10B9800013B20E9A12B212F0CDFC8DF818009DF889
:10B99000180028B9099A0B9988180F9919F06BFAB1
:10B9A0000F990998084409900F99099801440C9837
:10B9B000814206D2BDF80A01401C00B2ADF80A016E
:10B9C00016E002208DF8180002A9479813F0AAFB90
:10B9D000BDF80A01401C00B2ADF80601BDF8060131
:10B9E000ADF80A0100200990DDE90B0119F07AFA9F
:10B9F0000E98401C0E900A990E988842BADDBDF947
:10BA00000601BDF90A1188420CD0BDF80A01401E9A
:10BA100000B2ADF80A0102208DF8180002A947987B
:10BA200013F080FB0B9818F0F7FF35A812F0A6FC76
:10BA30002AA812F0A3FC1198401C10B11FA812F004
:10BA40009DFC1098401C10B114A812F097FC13989C
:10BA500013F018F9129813F015F9119813F012F960
:10BA6000109813F00FF900BF8EE60000D2B403085F
:10BA70002DE9FF4F91B00C4615461E46B4F9020061
:10BA8000401E1090109840100F90109800F0010187
:10BA90000F9808440E9029880E98081A00B2ADF845
:10BAA000300029880F98084400B2ADF83400B5F989
:10BAB0000200B6F90210884202DAB5F9020001E08C
:10BAC000B6F90200ADF83200B5F90200B6F902107D
:10BAD000884202DDB5F9020001E0B6F90200401E1D
:10BAE00000B2ADF8360011980CA982680CA8F7F7DF
:10BAF000F7FB8146B9F1000F02D115B0BDE8F08F18
:10BB0000E08818B1A08808B1012000E0002082463A
:10BB100001200B900CA812F055FC10B100200B90E6
:10BB200004E0BAF1000F01D000200B901C2104A802
:10BB300019F0A1F90CA804902088ADF81800207A1B
:10BB40008DF828000B9820B104A9119813F0EAFA97
:10BB500066E00CA80EF008FB8346BDF936000390A2
:10BB6000BDF83200ADF83600584618F0D9FE029004
:10BB7000029807900CA8099000200190BAF1000FDC
:10BB80000BD0B4F90600B4F904100844BDF9321022
:10BB900091FBF0F200FB12100190019FBDF9328081
:10BBA00037E05946029819F09DF9BDF930100FFAA7
:10BBB0008BF30FFA88F2029812F0B4FB8DF8200094
:10BBC000BAF1000F13D09DF8200070B1B4F9040051
:10BBD000B84202DA00208DF82000B4F90600B4F96A
:10BBE00004100844B84200DC0027781C07B204A9FE
:10BBF000119813F097FABDF83200401C00B2ADF86E
:10BC00003200BDF83600401C00B2ADF8360008F135
:10BC1000010803988045C4DD029818F0FDFE00BFBE
:10BC200000BF6AE72DE9FC5F8046404614F0F8FD4E
:10BC30000746B946D9F824603446404614F097FDCB
:10BC40000546606A00F114026846A968F7F748FBE8
:10BC50008246BAF1000F41D0D5F808B0C5F808D037
:10BC600094F83C00C0F3401048B3608FE18E8842E6
:10BC70000CD1628F212329463046FDF7FBFA628FF3
:10BC8000212329463046FDF761FB24E0628F202303
:10BC900029463046FDF7EEFA628F202329463046CA
:10BCA000FDF754FBE28E012329463046FDF7E2FA08
:10BCB000E28E012329463046FDF748FB0BE0628FF8
:10BCC000202329463046FDF7D5FA628F20232946E6
:10BCD0003046FDF73BFBC5F808B000BFBDE8FC9F50
:10BCE0002DE9F14FD0B0509814F09AFD0446254646
:10BCF000288E10B951B0BDE8F08F509814F037FD80
:10BD00004F90608C20F00400001D60844DA92046F7
:10BD10001AF0A6FF0026B246B4F820800020208446
:10BD2000608C20F00400001D608427A812F0D8FF6A
:10BD30001FA811F0C9FF27AA4FF4A02120461CF02C
:10BD4000CBFF1FAA4FF4A02120461CF0EAFE608C16
:10BD500020F004006084A4F82080002120461CF01C
:10BD6000EEFA1E90002120461CF0A0F81D90002144
:10BD700020461CF078F91C90002120461CF01CFA8B
:10BD80001B9009A84F991AF061FC4FF4A02016905F
:10BD9000D7480A9000200B903DA80D9035A80E9032
:10BDA00000BF9BE103E00AF101001FFA80FA696A13
:10BDB00051F82A00CFA1F4F7EDFD0028F3D0E96A8D
:10BDC00031F81600FAF7C3FC00B181E10027E96AF7
:10BDD00031F81600FAF7ABFC08B147F00107E96A41
:10BDE00031F81600FAF7B7FC10B147F0800716E0FB
:10BDF000A88EB04213D108F0200008B147F0200708
:10BE000008F0020008B147F0020708F0040008B18A
:10BE100047F0040708F0080008B147F00807A86ACF
:10BE200000EBC6014BA80EF0E5F8BDF82C01BDF8FB
:10BE30003411084400B2ADF82C01BDF82E01BDF854
:10BE40003611084400B2ADF82E01BDF83001BDF83E
:10BE50003411084400B2ADF83001BDF83201BDF82C
:10BE60003611084400B2ADF8320157B9382227A97B
:10BE70003DA818F072FE20221FA935A818F06DFE0B
:10BE80001DE02784608C20F00400001D60843DA824
:10BE900012F026FF35A811F017FF3DAA4FF4A0219C
:10BEA00020461CF019FF35AA4FF4A02120461CF0B3
:10BEB00038FEA4F82080608C20F004006084E96AD9
:10BEC00031F81600FAF74FFC8346BBF1000F06D09D
:10BED0009DF8F10040F001008DF8F10005E09DF8BB
:10BEE000F10020F001008DF8F1004BA80C9017969E
:10BEF00009AA1A21204614F099FC9DF81701400860
:10BF000000F01000F0B39DF8170120F03E001E3045
:10BF10008DF81701BDF92C11B4F914201C981044A8
:10BF200081420AD19DF81701400820F004009DF8D5
:10BF3000171160F345018DF81711BDF93011B4F9EF
:10BF400018201B98101A81420AD19DF81701400849
:10BF500020F008009DF8171160F345018DF81711C6
:10BF6000BDF92E11B4F916201E98104481420CD14F
:10BF70009DF81701400820F002009DF8171160F3AA
:10BF8000450100E014E08DF81711BDF93211B4F944
:10BF90001A201D98101A81420AD19DF817014008F5
:10BFA00020F001009DF8171160F345018DF817117D
:10BFB0004BA80EF090F8814607F0200060B1E86AC7
:10BFC00030F8160000F4007030B1BDF82E01A0EB7F
:10BFD000090000B2ADF82E014BAA3DA94F9812F00E
:10BFE00063FE35980890BDF9E8000790BDF9E600BA
:10BFF0000690686A50F82A0005904DA80EF0F3F8F4
:10C0000003909DF8F11002460698CDE901210090B9
:10C0100004A8DDE90732059922F090FD4BA80EF047
:10C02000E2F8BDF91010401A039000EBD070BDF893
:10C030002C1101EB600000B2ADF82C014BA80EF002
:10C040004AF8BDF91210401A039000EBD070BDF809
:10C050002E1101EB600000B2ADF82E01BDF82C01ED
:10C06000BDF81010084400B2ADF83001BDF82E0143
:10C07000BDF81210084400B2ADF8320107F02000FC
:10C08000C0B1E86A30F8160000F4007090B148467C
:10C0900009EBD071BDF82E21A2EB610109B2ADF818
:10C0A0002E1109EBD071BDF83221A2EB610109B26A
:10C0B000ADF83211002000904BAA35A9059B4F988E
:10C0C00011F04EFA09AA1B21204614F0AFFB00BF65
:10C0D000701C86B20AF101001FFA80FA288EB04265
:10C0E0003FF760AE608C20F00400608400BF01E682
:10C0F000D03D04080A0000002DE9F14FA2B02298BB
:10C1000014F08EFB04462546229814F030FB219053
:10C11000002120461BF066FD81462646002741F699
:10C120001202394630461CF065F90A900A984844D4
:10C1300000B2209000BF41F61302394630461CF091
:10C1400059F90A900A98484400B21F9000212046ED
:10C150001CF00FF9484400B21E9016A811F0B4FD6F
:10C1600016AA4FF4003120461CF0DBFCA86A10B17F
:10C17000D5F828800AE0802018F0D2FB06468022FD
:10C180003146204614F026F8B04600BF4FF0000AB2
:10C1900095F83C0000F00F00012800D182460026EF
:10C1A00041F26A42314620461CF024F90A900A986E
:10C1B000C0B2012800D18246E86A00287ED0E86A31
:10C1C00016F0D0FB0A900A98022814D19DF8750049
:10C1D00041F6FF72BDF96A10CDE900120290BDF977
:10C1E0006C30169A07A8E96A22F0A8FCBDF91C6019
:10C1F000BDF91E7011E007A9E86A16F05BF88346E6
:10C20000BBF1010F05D10798C0F38A260798470DA7
:10C2100002E04FF0FF36374600BFBAF1000F0DD0F5
:10C22000A18A2098084400B2ADF82000BDF8200093
:10C230003044401E00B2ADF824000DE0218B1F9861
:10C24000081A801B00B2ADF82000BDF82000304471
:10C25000401E00B2ADF824000A98022815D1E18AE8
:10C260001E98084400B2ADF82200BDF82200384400
:10C27000401E00B2ADF826000020009008AA16A9C2
:10C28000EB6A219811F06CF940E020461AF03EFD6F
:10C29000A0EB070B0BEBDB704110E08A084400B207
:10C2A000ADF82200BDF822003844401E00B2ADF8BF
:10C2B000260002A811F037F902AA00E027E04FF4A7
:10C2C000003120461CF0CEFB304606EBD071491001
:10C2D00009B2ADF80C10384607EBD07149100AB21C
:10C2E000ADF80E204FF4003B43F60F0259462046AE
:10C2F0001CF080F80190019880B2ADF8080008AAFF
:10C3000002A9EB6A219811F0BFF800BF00BF0EA888
:10C3100011F0DAFC0EAA002120461CF002FC9DF868
:10C32000550041F6FF72BDF94A10CDE900120290A6
:10C33000BDF94C3041460DA80E9A22F0FFFBE18A70
:10C340001E98084400B2ADF82E00BDF82E00BDF8CE
:10C350003610084400B2ADF83200E86AB0B92046A1
:10C360001CF06FFABDF93410461A06EBD670A18A9C
:10C3700001EB600000B2ADF82C00BDF82C00BDF858
:10C380003410084400B2ADF8300022E0BAF1000FDA
:10C3900011D0218B1F98081ABDF83410401A00B232
:10C3A000ADF82C00BDF82C00BDF83410084400B2E4
:10C3B000ADF830000DE0A18A2098084400B2ADF835
:10C3C0002C00BDF82C00BDF83410084400B2ADF8C4
:10C3D0003000002043460BAA0EA90090219811F0CE
:10C3E000BFF8A86A10B9404618F016FB23B0BDE8A4
:10C3F000F08F2DE9F14F90B0109814F011FA054626
:10C400002C46109814F0B3F906460EA928461AF0E7
:10C41000B3FB002794F84800C0F3001008B147F0C0
:10C42000010794F84800C0F3401008B147F0020734
:10C43000002128461CF0DEF942F2D171884205D174
:10C44000688CC0F3802008B947F0040706A811F0F3
:10C450003BFCB4F84400ADF82E004620005BADF87C
:10C4600030008DF8357006AA002128461CF059FBD3
:10C470000DA8411E626A03780BB90123037000BF47
:10C48000284617F00FFA0790284617F005FA08908B
:10C490004FF6FF71079888421ED0089888421BD03B
:10C4A0004FF4802B44F25742594628461BF0A2FF16
:10C4B000029002980390BDF80C00ADF8260000BF72
:10C4C0002022594628461BF095FF029002980390BF
:10C4D000BDF80C00ADF8280094F8480000F0070003
:10C4E000022805D094F8480000F0070003281FD167
:10C4F0009DF83400022803D09DF83400032817D19A
:10C5000041F6FF71BDF92A008DE88300BDF92C309A
:10C51000069A03A8616A22F011FB0EA80DF071FEC5
:10C52000BDF90C10884202DA01208DF8340000BFFA
:10C5300004F1300894F8480000F00700032805D003
:10C540000EA80DF0D6FDB0F5806F01DA4FF00008AF
:10C550000EA904A8B268F6F7C3FE8146B9F1000F30
:10C5600002D111B0BDE8F08F94F8480000F0070048
:10C5700070B928461AF0BAFD8346CBF1000002B22A
:10C5800000210EA80DF055FE688BADF83E0000BFEF
:10C5900094F8480000F00700022805D094F84800FD
:10C5A00000F0070003280ED1D6F808B004A8B06048
:10C5B000CDF800800EAA06A93046636A10F0D0FFBD
:10C5C000C6F808B007E0CDF800800EAA06A93046EC
:10C5D000636A10F0C5FFD6F808A004A8B06094F80C
:10C5E000480000F0070003284FD141F6FF71BDF964
:10C5F0002A008DE88300BDF92C30069A03A8616AF1
:10C6000022F09CFA0EA80DF0FCFDBDF90C1088423A
:10C610001BDA20221146069814F0DFFA00EB4000E6
:10C62000B4F84410BDF80C201144084400B2ADF831
:10C630002E004620005BADF83000CDF800800EAA39
:10C6400006A93046636A10F08BFF0EA80DF051FD6D
:10C65000BDF90E10884217DAB4F84400ADF82E0088
:10C66000069814F0D9FA4621095BBDF80E20114452
:10C67000084400B2ADF83000CDF800800EAA06A93B
:10C680003046636A10F06CFF00BFC6F808A000BF18
:10C6900067E72DE9F14F9AB01A9814F060F88046D8
:10C6A0001A9814F0BDF80446B8F1150F16D11A986F
:10C6B00014F05DF8054618A9204606F031FC0AA8DA
:10C6C00012F00EFB0AAA4FF4802120461CF004FB56
:10C6D00018AA0AA9284612F0E7FAC5E0B8F1180F1F
:10C6E000FBD11A9814F043F8054612A811F0ECFAA1
:10C6F00012AA4FF4802120461CF013FA10A92046FC
:10C7000006F00EFC10AA0EA8A968F6F7E9FD0D9038
:10C710000D9800287DD0204606F077F88146204607
:10C720001CF08FF88346484617F0B0F802210390BA
:10C73000BDF95A00CDE901B10090BDF95C300CA8FB
:10C74000129A039922F0FAF920461AF0DFFA064607
:10C75000304606EBD0714A10B4F916100A44B9F904
:10C760001610891A0B9148461AF0D0FA0B998903D2
:10C7700091FBF0F00B90002120461BF020FF0A9067
:10C780001299B1F908200A99B1F90810501A00EB72
:10C79000D071491009B20991BDF832100998081AF0
:10C7A00000B2ADF83200304606EBD0714A10B4F951
:10C7B00016105718BDF932000B99484307EBA03704
:10C7C00009983F1A002120461BF019FA82464FF0C3
:10C7D000000B41F61202594620461BF00BFE039057
:10C7E000039800B2089000BF41F613025946204654
:10C7F0001BF000FE0390039800B20790A18A0898EE
:10C800000844504400B2ADF8140038B2ADF8160038
:10C8100000E028E0218B0798081AA0EB0A0000B27C
:10C82000ADF81800BDF81600BDF83210084400B28B
:10C83000ADF81A009DF8650040F002008DF8650023
:10C84000A86804900EA8A860484617F01FF8834611
:10C8500000205B4605AA12A90090284610F080FE31
:10C860000498A86000BF00BF1BB0BDE8F08F2DE9A1
:10C87000F14FA8B0289813F0D3FF04462546289816
:10C8800013F075FF2790002120461BF013FC269023
:10C89000002120461BF0B7FC2590002120461BF00C
:10C8A00082FD2490002120461BF027FB239000BF2F
:10C8B000A08AADF88400E08AADF88600208BADF840
:10C8C0008800608BADF88A0000BFBDF88410269800
:10C8D000084400B2ADF88400BDF888102598081A05
:10C8E00000B2ADF88800BDF886102498084400B264
:10C8F000ADF88600BDF88A102398081A00B2ADF88A
:10C900008A0013A812F0ECF913AA4FF40031204664
:10C910001CF0E2F921AA13A9279812F0C5F9002604
:10C9200020461AF0F3F9074600BF208BA18A401A6F
:10C93000401CC01B0FFA80F8686A401C40B1696A4D
:10C9400001FB08F0C11700EB116109120EB20CE0F7
:10C9500020461BF03FF800F0010BBBF1000F01D0A7
:10C96000404600E00020064600BF4FF0000B41F2B9
:10C970006A42594620461BF03DFD00900098C0B227
:10C98000012802D1A8EB060006B2A08A304400B20A
:10C99000ADF84400BDF84400384400B2ADF848009A
:10C9A000E08AADF84600608BADF84A004FF44031A4
:10C9B00020461BF07FFB81464FF4403120461BF0A0
:10C9C00022FC82464FF4403120461BF0ECFC1090D4
:10C9D0004FF4403120461BF090FA0F90BDF8440010
:10C9E000A0EB090000B2ADF84400BDF84800504487
:10C9F00000B2ADF84800BDF846101098081A00B211
:10CA0000ADF84600BDF84A100F98084400B2ADF8E2
:10CA10004A0001A812F064F901AA4FF440312046FF
:10CA20001CF05AF911AA01A9279812F03DF929B072
:10CA3000BDE8F08F2DE9F14FE0B0609813F0F0FE03
:10CA400004462546609813F092FE814604F11401D5
:10CA50005EA8D9F80820F6F743FC10B961B0BDE82C
:10CA6000F08FD9F808005D905EA8C9F808004FF073
:10CA7000000841F23202414620461BF0BBFC0C90FC
:10CA80000C9800B25690002120461BF099FC55905E
:10CA9000002120461BF03EFA5490002120461BF056
:10CAA00016FB5390002120461BF0BAFB52904FF426
:10CAB000A02120461BF00BFB51904FF4A0212046F3
:10CAC0001BF0AEFB50904FF4A02120461BF078FCE9
:10CAD0004F904FF4A02120461BF01CFA4E90208C62
:10CAE0004D9000202084608C20F00400001D6084A4
:10CAF0003FA812F0F5F83FAA4FF4A02120461CF001
:10CB0000EBF829A811F0E0F829AA4FF4A02120465B
:10CB10001CF007F84D982084608C20F0040060849D
:10CB2000002720461AF0F6FA0146E28A559810448A
:10CB3000401E411A5698084400B2ADF86E012046D6
:10CB40001AF0DEFA2090002120461AF0E4FF0128B6
:10CB500000D100E000201F9049460DA819F076FD95
:10CB60004FF4A0201A90FE480E9000200F9031A89C
:10CB7000119021A812904FF0000B33E2E86A30F9CF
:10CB80001B000C90BDF86E01401C00B2ADF86A01AC
:10CB9000BDF86A110C980844401E00B2ADF86E0151
:10CBA000BDF96A01BDF97E11884200DD1EE21F98C1
:10CBB00058B1218B5298081A401E2099411A569854
:10CBC000081A00B2ADF868010AE0A18A5398084437
:10CBD000401E2099411A5698084400B2ADF86C01E5
:10CBE0000026F7E100200B90A86A50F8270020B13A
:10CBF000A86A50F8270000780B901F9880B1BDF804
:10CC00006801401E00B2ADF86C01286B30F81600C8
:10CC1000BDF86C11081A401C00B2ADF868010FE0B5
:10CC2000BDF86C01401C00B2ADF86801286B30F80B
:10CC30001600BDF868110844401E00B2ADF86C0142
:10CC40004FF0000800BF34E007EB0801A86A50F875
:10CC5000210048B307EB0802A96A51F8220008B185
:10CC600001780B910B9901F00101D9B11F9961B1C4
:10CC700006EB0801491C2A6B32F81110BDF8682137
:10CC8000511A09B2ADF868110DE006EB0801491C14
:10CC90002A6B32F81110BDF86C21114409B2ADF8BD
:10CCA0006C1100E00BE000E009E008F101001FFA60
:10CCB00080F808EB0601A88C401E8142C4DB00BF4F
:10CCC000BDF96E01BDF97A11884207DA08F1010059
:10CCD000384487B206EB080086B279E100BFBDF8A0
:10CCE0006801ADF82400BDF86A01ADF82600BDF872
:10CCF0006C01ADF82800BDF86E01ADF82A0000BF48
:10CD00009DF81F01400800F0040090B1BDF9241007
:10CD1000B4F914205398104481420ADDBDF91C0176
:10CD200000EBD071BDF82420A2EB610109B2ADF88F
:10CD300024109DF81F01400800F0020090B1BDF9D9
:10CD40002610B4F916205598104481420ADDBDF929
:10CD50001C0100EBD071BDF82620A2EB610109B2E5
:10CD6000ADF826109DF81F01400800F00800B8B18A
:10CD7000BDF92810B4F918205298101A401E8142AB
:10CD80000EDABDF91C0100EBD07182B202F0010293
:10CD900002EB6101BDF82820114409B2ADF828105A
:10CDA0009DF81F01C0F34000B8B1BDF92A10B4F9D5
:10CDB0001A205498101A401E81420EDABDF91C0147
:10CDC00000EBD07182B202F0010202EB6101BDF80A
:10CDD0002A20114409B2ADF82A104FF0000AE88E5B
:10CDE000584523D1A88EB04220D194F8200000F0FD
:10CDF000400030B994F8200000F0200008B14AF05B
:10CE0000200A94F8200000F0020008B14AF0020A5B
:10CE100094F8200000F0040008B14AF0040A94F8E5
:10CE2000200000F0080008B14AF0080ABAF1000F2B
:10CE30000AD138223FA931A817F08FFE202229A954
:10CE400021A817F08AFE1EE0A4F820A0608C20F034
:10CE50000400001D608431A811F042FF21A810F0E9
:10CE600033FF31AA4FF4A02120461BF035FF21AA41
:10CE70004FF4A02120461BF054FE4D982084608C76
:10CE800020F00400608409A81090A88C0BFB0060BF
:10CE90001B900DAA1A21204613F0C8FC09AA31A93B
:10CEA000484611F001FFA86A50F8270000287DD0FD
:10CEB000BDF868115198084400B2ADF86001BDF8A2
:10CEC0006C115098081A00B2ADF86401BDF86A11EF
:10CED0004F98084400B2ADF86201BDF86E114E984B
:10CEE000081A00B2ADF866010B98C0F34000089034
:10CEF000089810B10220579001E00020579000BF21
:10CF0000BDF86401BDF86011401A401C00B20490E5
:10CF1000BDF9962004995798CDE900210290A86A9E
:10CF200050F82700411CBDF998305CA8299A21F0DF
:10CF300005FE089818BB0C9901EBD172BDF86A3157
:10CF400003EB6202BDF9720100EBD073A2EB630246
:10CF500012B2ADF862210C9901EBD17202E000002F
:10CF6000043F0408BDF86A3103EB6202BDF97201A7
:10CF700000EBD07302EB630212B2ADF866215AAA3D
:10CF80005EA906A8F6F7ACF90590059890B106A839
:10CF9000C9F8080000200090A86A50F82700431C38
:10CFA00058AA21A9484610F0DBFA00E003E05EA889
:10CFB000C9F8080000BF0DAA1B21204613F036FC5B
:10CFC00008F10100384487B206EB080086B200BFC2
:10CFD000701C86B2A88CB0423FF704AE0BF1010082
:10CFE0001FFA80FBE88C58453FF7C8AD00BF5D983D
:10CFF000C9F8080000BF31E52DE9F04FA3B007469E
:10D0000089461646229730460DF0D8F8054600EBC3
:10D01000D5704FEA60083088404400B2ADF8840013
:10D020007088404400B2ADF886001EA810F098FE4B
:10D030001EAA4FF4A02138461BF0DAFD18A810F004
:10D0400072FA18AA4FF4A02138461BF00BFD0021FC
:10D0500038461AF09CFE1790494605A819F0F6FAD2
:10D060007048069021A80E9022983030F7F700FC07
:10D070000446D1E025681694207901285CD1B5F9E1
:10D080002000E98B08440090B5F92030D5E905125D
:10D09000E06817F0F7FB8246A88B00EB0801608A76
:10D0A00008440FFA80FB0FFA8AF021F059FC10FBBC
:10D0B0000BF047F6FF7190FBF1F0BDF886100844C5
:10D0C00000B2ADF812000FFA8AF021F041FC10FB1B
:10D0D0000BF047F6FF7190FBF1F0BDF884100844A7
:10D0E00000B2ADF81000A08AADF87800208A00B236
:10D0F000ADF87A006079FD2801DD179803E06079CA
:10D100001799484300128DF88000012013901EA843
:10D110000B9004A80F9005AA1A21384613F086FB3D
:10D1200004AB21AA1EA9484610F003FE05AA1B2144
:10D13000384613F07BFB68E02079002865D1206930
:10D1400000B963E0B5F92000E98B08440090B5F917
:10D150002030D5E90512E06817F094FB824604A957
:10D16000206915F0A7F8BDF88410A08A081A00B24B
:10D17000ADF80800BDF88610E08A081A00B2ADF8D4
:10D180000A00BDF808000499C1F38A210844401E32
:10D1900000B2ADF80C00BDF80A00049900EB515044
:10D1A000401E00B2ADF80E006079FD2801DD179831
:10D1B00003E060791799484300128DF86B00A08A4C
:10D1C000ADF86400E18A18A8C1800AEB8A004FEA32
:10D1D000400ABAF5616F01DDAAF5616A1FFA8AF0AB
:10D1E000ADF8600018A80C9005AA1A21384613F073
:10D1F0001DFB02AA18A94846236910F045F905AAA3
:10D200001B21384613F012FB00BF00BF21462298B5
:10D210003030F7F727FB0446002C7FF42BAF23B008
:10D22000BDE8F08FA0BA03082DE9F74F8AB00C468D
:10D23000904694F82A00022802DC0DB0BDE8F08F79
:10D24000E08C00B9F9E794F82A90B9F1FD0F01DDFF
:10D250004FF0FF09414608A80CF0A8FE208D401EA3
:10D2600005B2BDF82000401B00B2ADF82000BDF8AB
:10D270002200401B00B2ADF82200BDF82400284473
:10D2800000B2ADF82400BDF82600284400B2ADF885
:10D29000260008A906A80CF089FEBDF81800E18C4C
:10D2A000401A00B2ADF81800BDF81C00E18C08442B
:10D2B00000B2ADF81C00BDF81A00E18C401A00B2B3
:10D2C000ADF81A00BDF81E00E18C084400B2ADF8BC
:10D2D0001E0008A80CF04FFF824608A80CF0D1FEF3
:10D2E0000746B4F90060BA4501DA504600E0384616
:10D2F0008346B6EB6B0F01DD4FEA6B06E08C3044E2
:10D3000000B20590A07894F82A10CDE90210A08C04
:10D31000ADF8040030B2009008AA06A9059B0A984F
:10D32000FBF754FC00BF88E7F8B50546284613F024
:10D3300077FA0646284613F070FA0446606BB0F59B
:10D34000A02F54D1A06B072806D200202169C870F5
:10D35000216981F8220014E0208F81B2202230461A
:10D360000DF0FCFD68B100202169C870216981F8C9
:10D37000220012201DF07EFB0090BDF800106069B5
:10D380008181208F81B24FF4004230460DF0E6FDDE
:10D3900098B166202169C870304620F0B7FF009030
:10D3A000BDF800102069818030460DF0D1FDA16BE1
:10D3B000884202D1B2202169C870208F81B24FF417
:10D3C000804230460DF0CAFD88B1FF20216981F806
:10D3D0002200304620F09AFF0090BDF8001020692E
:10D3E000C1832069008C401C00B221690884F8BD0B
:10D3F0002DE9F04F8BB08146484613F011FA0546EF
:10D400002C46484613F0B3F98346606A16F03EFA9C
:10D4100082469AF8000000283ED1A06A00283BD03E
:10D42000A06A0078C0B303A810F04EFC03AA4FF422
:10D43000002128461BF075FB94F85C00C0F3C00087
:10D4400028B19DF8290040F002008DF82900002144
:10D4500028461AF049FE0746002128461AF0BDFF6B
:10D460008046002128461AF0D7FB064605F1140134
:10D4700001A80CF0DAFD08EB060002B2B81901B2FF
:10D4800001A80CF0D6FE0020009001AA03A958467E
:10D49000A36A10F065F800BF0BB0BDE8F08F7CB553
:10D4A0000446A06985686089002856D1A0890028B3
:10D4B00053D1E088218988424FDAE18808B221F00F
:10D4C0004FFAB4F90410B4F90E20891A48432168C0
:10D4D000498801EBE03000B2ADF80200E1885A3132
:10D4E00008B221F03DFAA18810FB01F021680988FB
:10D4F00001EBE03000B2ADF80400218908B221F060
:10D500002FFAA18810FB01F02168498801EBE03077
:10D5100000B2ADF8060021895A3108B221F020FA94
:10D52000B4F90410B4F90E20891A48432168098817
:10D5300001EBE03000B2ADF800002A4669466846CB
:10D54000F5F7CEFE06463EB1A169C1F808D06A469D
:10D550002169A06911F0A8FBC2E0608910B1A0891F
:10D5600000287BD16089D0BB20680088ADF800001E
:10D5700020684088A188084400B2ADF80600E18820
:10D5800008B221F0EDF9B4F90410B4F90E20891AAB
:10D5900048432168498801EBE03000B2ADF8020051
:10D5A000E1885A3108B221F0DBF9A18810FB01F0C3
:10D5B0002168098801EBE03000B2ADF804002A468A
:10D5C00069466846F5F78CFE06463EB1A169C1F88A
:10D5D00008D06A462169A06911F066FB00BFA089E6
:10D5E00000287DD120680088A188084400B2ADF8E9
:10D5F000040020684088ADF80200218908B221F0BB
:10D60000AFF9A18810FB01F02168498801EBE030F7
:10D6100000B2ADF8060021895A3108B221F0A0F914
:10D62000B4F90410B4F90E20891A48432168098816
:10D6300001EBE03000B2ADF800002A4669466846CA
:10D64000F5F74EFE06463EB1A169C1F808D06A461C
:10D650002169A06911F028FB42E0FFE76089A189F8
:10D66000884205D1608918B12089E188884211DBA0
:10D670006089022802D1A08901280BD06089032883
:10D6800002D1A089022805D06089032828D1A08969
:10D69000012825D120680088ADF800002068408866
:10D6A000ADF8020020680088A188084400B2ADF8F7
:10D6B000040020684088A188084400B2ADF8060044
:10D6C0002A4669466846F5F70BFE06463EB1A16953
:10D6D000C1F808D06A462169A06911F0E5FA00BFD7
:10D6E000A06985607CBD7CB50446A06985686089B9
:10D6F000012856D1A089012853D1E0882189884288
:10D700004FDAE18808B221F02BF9A18810FB01F073
:10D710002168498801EBE03000B2ADF80600E188ED
:10D720005A3108B221F01CF9B4F90410B4F90E20F2
:10D73000891A48432168098801EBE03000B2ADF84E
:10D740000400218908B221F00BF9B4F90410B4F9EE
:10D750000E20891A48432168498801EBE03000B265
:10D76000ADF8020021895A3108B221F0F9F8A188F8
:10D7700010FB01F02168098801EBE03000B2ADF840
:10D7800000002A4669466846F5F7AAFD06463EB1FE
:10D79000A169C1F808D06A462169A06911F084FA2C
:10D7A000C7E06089012802D0A08901287ED1608964
:10D7B00001283AD120680088A188401A00B2ADF84B
:10D7C000000020684088ADF80200E18808B221F02E
:10D7D000C7F8A18810FB01F02168498801EBE0300F
:10D7E00000B2ADF80600E1885A3108B221F0B8F86D
:10D7F000B4F90410B4F90E20891A48432168098845
:10D8000001EBE03000B2ADF804002A4669466846F4
:10D81000F5F766FD06463EB1A169C1F808D06A4633
:10D820002169A06911F040FA00BFA0890128B7D191
:10D8300020680088401E00B2ADF8040020684088CF
:10D84000A188084400B2ADF80600218908B221F091
:10D8500087F8B4F90410B4F90E20891A48432168F6
:10D86000498801EBE03000B2ADF8020021895A315D
:10D8700008B221F075F8A18810FB01F02168098831
:10D8800001EBE03000B2ADF800002A466946684678
:10D89000F5F726FD06463EB1A169C1F808D06A46F3
:10D8A0002169A06911F000FA43E0FFE76089A189CE
:10D8B000884206D16089012803D02089E188884206
:10D8C0000FDB608910B9A08902280AD0608910B9DD
:10D8D000A089032805D0608903282AD1A0890228BD
:10D8E00027D120680088A188401A00B2ADF8000056
:10D8F00020684088ADF8020020680088401E00B211
:10D90000ADF8040020684088A188084400B2ADF852
:10D9100006002A4669466846F5F7E2FC06463EB12F
:10D92000A169C1F808D06A462169A06911F0BCF963
:10D9300000BFA06985607CBD7CB50446A069856890
:10D940006089022856D1A089022853D1E088218914
:10D9500088424FDAE1885A3108B221F001F8A188F3
:10D9600010FB01F02168098801EBE03000B2ADF84E
:10D970000000E18808B220F0F3FFB4F90410B4F914
:10D980000E20891A48432168498801EBE03000B233
:10D99000ADF80600218908B220F0E2FFA18810FB53
:10D9A00001F02168498801EBE03000B2ADF80200D7
:10D9B00021895A3108B220F0D3FFB4F90410B4F928
:10D9C0000E20891A48432168098801EBE03000B233
:10D9D000ADF804002A4669466846F5F781FC06461C
:10D9E0003EB1A169C1F808D06A462169A06911F069
:10D9F0005BF9CCE06089022802D0A08902287DD1A1
:10DA0000608902283CD120680088401E00B2ADF831
:10DA1000040020684088A188401A00B2ADF80200D6
:10DA2000E1885A3108B220F09BFFA18810FB01F079
:10DA30002168098801EBE03000B2ADF80000E18810
:10DA400008B220F08DFFB4F90410B4F90E20891A41
:10DA500048432168498801EBE03000B2ADF8060088
:10DA60002A4669466846F5F73BFC06463EB1A16981
:10DA7000C1F808D06A462169A06911F015F900BF04
:10DA8000A0890228B5D120680088A188401A00B278
:10DA9000ADF8000020684088401E00B2ADF80600D6
:10DAA00021895A3108B220F05BFFB4F90410B4F9AF
:10DAB0000E20891A48432168098801EBE03000B242
:10DAC000ADF80400218908B220F04AFFA18810FBBC
:10DAD00001F02168498801EBE03000B2ADF80200A6
:10DAE0002A4669466846F5F7FBFB06464EB1A16932
:10DAF000C1F808D06A462169A06900E002E011F08F
:10DB0000D3F844E06089A189884206D1608902285F
:10DB100003D02089E18888420FDB608910B9A08991
:10DB200003280AD06089012802D1A089032804D0E3
:10DB3000608901282BD1A08948BB20680088A18872
:10DB4000401A00B2ADF8000020684088A188401A51
:10DB500000B2ADF8020020680088401E00B2ADF8A7
:10DB6000040020684088401E00B2ADF806002A4636
:10DB700069466846F5F7B4FB06463EB1A169C1F8AF
:10DB800008D06A462169A06911F08EF800BFA0692B
:10DB900085607CBD7CB50446A069856860890328E2
:10DBA00056D1A089032853D1E088218988424FDAD1
:10DBB000E1885A3108B220F0D3FEB4F90410B4F968
:10DBC0000E20891A48432168098801EBE03000B231
:10DBD000ADF80000E18808B220F0C2FEA18810FB79
:10DBE00001F02168498801EBE03000B2ADF8020095
:10DBF00021895A3108B220F0B3FEA18810FB01F050
:10DC00002168098801EBE03000B2ADF804002189F9
:10DC100008B220F0A5FEB4F90410B4F90E20891A58
:10DC200048432168498801EBE03000B2ADF80600B6
:10DC30002A4669466846F5F753FB06463EB1A16998
:10DC4000C1F808D06A462169A06911F02DF8C7E033
:10DC50006089032802D0A08903287ED16089032827
:10DC60003CD120680088A188084400B2ADF80400C7
:10DC700020684088401E00B2ADF80600E1885A31A5
:10DC800008B220F06DFEB4F90410B4F90E20891A20
:10DC900048432168098801EBE03000B2ADF800008C
:10DCA000E18808B220F05CFEA18810FB01F0216839
:10DCB000498801EBE03000B2ADF802002A4669461F
:10DCC0006846F5F70DFB06463EB1A169C1F808D0DC
:10DCD0006A462169A06910F0E7FF00BFA089032808
:10DCE0007ED120680088ADF8000020684088A188B7
:10DCF000401A00B2ADF8020021895A3108B220F072
:10DD00002FFEA18810FB01F02168098801EBE030AB
:10DD100000B2ADF80400218908B220F021FEB4F968
:10DD20000410B4F90E20891A48432168498801EB90
:10DD3000E03000B2ADF806002A4669466846F5F7BD
:10DD4000CFFA06463EB1A169C1F808D06A462169FA
:10DD5000A06910F0A9FF43E0FFE76089A18988422C
:10DD600006D16089032803D02089E18888420FDB2F
:10DD70006089022801D1A08950B16089012801D1B0
:10DD8000A08928B1608902282AD1A089012827D139
:10DD900020680088ADF8000020684088A188401AFB
:10DDA00000B2ADF8020020680088A188084400B2E3
:10DDB000ADF8040020684088401E00B2ADF80600AF
:10DDC0002A4669466846F5F78BFA06463EB1A169D0
:10DDD000C1F808D06A462169A06910F065FF00BF4C
:10DDE000A06985607CBD000070B5A4B006460D46F4
:10DDF00020AA22A9304619F097F922A80CF080F940
:10DE000028B920A80CF07CF908B924B070BD12A97B
:10DE1000304623F06FFD0446012C00D0F5E729467B
:10DE2000684618F013FC1B4801900220029012A8CB
:10DE300004904FF480300D9022A80CF061F980B16D
:10DE400022A803906A461A21304612F0EFFC22AA5B
:10DE500012A9284610F028FF6A461B21304612F00E
:10DE6000E5FC20A80CF04CF990B120A803906A467C
:10DE70001A21304612F0DAFC20A8039020AA12A939
:10DE8000284610F011FF6A461B21304612F0CEFCE6
:10DE900000BFBAE790B303082DE9F04FB1B00546D3
:10DEA0000F4605F114012FA8BA68F5F719FA10B951
:10DEB00031B0BDE8F08FB8682E902FA8B8602C461E
:10DEC000002128461AF09BF82B90002128461AF0D2
:10DED00002FA2A90284618F0A4FEB4F884104843A9
:10DEE00000120FFA80FA284618F07CFEB4F886106B
:10DEF000484300120FFA80FB04F12400F6F799FC66
:10DF00002890002128461AF02CF882346188484372
:10DF1000001227902188491E279801FB10A0218814
:10DF200090FBF1F000B2269028992698B0FBF1F012
:10DF300000B225904FF4A02128461AF012F861880B
:10DF4000823C484300122490284618F0D5FF014631
:10DF50002B98401A00B22390284619F0C7F80146C2
:10DF60002A98401A00B2229014A810F0B9FE14AA00
:10DF70004FF4A02128461AF0AFFE14A8C07B20F071
:10DF8000070114A8C173FF208DF85300688BBDF8FA
:10DF90005010084400B2ADF8B600394602A818F097
:10DFA00055FB4FF4A0200F905D480390042004908F
:10DFB0004FF00008AAE02798504400FB08F0B4F89E
:10DFC000821090FBF1F0A98A01442398084400B222
:10DFD0000190CDF8408004F12400F6F749FC064694
:10DFE0008CE0307B00F0010000B181E094F8880003
:10DFF000C0F3C00008B9708900E0002000B20090B2
:10E000000198ADF8B000BDF8B010259801442498EF
:10E01000081A401E00B2ADF8B400259901980844D2
:10E0200000B20190BDF9B400BDF9BC10884200DA1D
:10E030005EE0BDF9B000BDF9C010884200DD60E0CF
:10E040003089ADF8540000984044B4F8821090FB39
:10E05000F1F201FB12000FFA80F9706830F9191023
:10E06000307BC0F3001204F16C0030F91200081A82
:10E0700000FB0BF02990307BC0F3001104F170001D
:10E0800030F91110307BC0F3001204F16C0030F94C
:10E090001200091A299890FBF1F029902998ABEB0E
:10E0A0000001E88A01442298084400B2ADF8B200A9
:10E0B000706830F9190047F6FF71884217D02CA814
:10E0C000059014A806901396706830F91900129004
:10E0D00002AA1A21284612F0A9FB2CAA14A9384634
:10E0E00010F0E2FD02AA1B21284612F09FFB00BFA0
:10E0F000314604F12400F6F7B5FB0646002E7FF406
:10E1000070AF00BF08F101001FFA80F8B4F8820078
:10E1100040453FF750AF2E98B86000BFC8E60000FA
:10E1200068B503082DE9F34FB9B083463A980BF16F
:10E130001401826837A8F5F7D3F810B93BB0BDE8F1
:10E14000F08F3A988068369037A93A9881605D469A
:10E15000B5F88200022800DAF0E70021584619F0ED
:10E1600034FD33900021584619F049FF0146339899
:10E17000084400B23290002158461AF0ACF801462B
:10E180003398084400B23190584618F04AFDB5F86B
:10E1900084104843001200B23090584618F022FD17
:10E1A000B5F886104843001200B22F90584618F078
:10E1B000A3FE0146BBF8142032981044401A00B266
:10E1C0002E90584618F092FF0146BBF81620319861
:10E1D0001044401A00B22D903A980BF11401826855
:10E1E0002BA8F5F77DF82A902A9800B9A6E727A86A
:10E1F0000FF0B6FD27AA4FF4A02158461AF0F8FCFC
:10E2000019A810F06DFD19AA4FF4003158461AF004
:10E2100063FD4FF4003158461AF0DFFA064600EB72
:10E22000D67047104FF40031584619F048FD0646A5
:10E2300000EBD6704FEA600ABDF99E00574501DA3F
:10E24000394600E0514600EBD072B1EB620F06DDBB
:10E250009DF8A50020F0100010308DF8A500BDF845
:10E260009E00012806D19DF8A50020F01000103076
:10E270008DF8A500B5F882103098814201DB0120AD
:10E2800000E00020189005F12400F6F7F1FA0446AA
:10E29000D4E1207B00F0010000B1C9E12089ADF894
:10E2A0009C002089ADF8680095F88800C0F3C00094
:10E2B00008B9608900E0002006B217962E98ADF8E4
:10E2C000D4002E98ADF8D000179E179EB046606817
:10E2D00030F91810207BC0F3001205F16C0030F902
:10E2E0001200081A2F9948431690207BC0F30011A2
:10E2F00005F1700030F91110207BC0F3001205F118
:10E300006C0030F91200091A169890FBF1F0169083
:10E3100016992F98411A2D98084400B2ADF8D200F2
:10E3200004A83A9918F092F9C8480590032006907D
:10E330004FF4A020119027A80A9019A808901594CE
:10E34000BDF9D2000390BDF9D20002904FF0000950
:10E3500023E1BDF8D000ADF8D400BDF8D200ADF88F
:10E36000D600BDF9D4103698B0F904003844401CEA
:10E37000814200DD16E1309800FB09F0B5F882100B
:10E38000491E90FBF1F12E98084400B2ADF8D00080
:10E3900017984844B5F8821090FBF1F201FB120087
:10E3A00006B2606830F91610207BC0F3001205F148
:10E3B0006C0030F91200081A2F9948431690207B00
:10E3C000C0F3001105F1700030F91110207BC0F38B
:10E3D000001205F16C0030F91200091A169890FB32
:10E3E000F1F0169016992F98411A2D98084400B212
:10E3F000ADF8D200BDF9D0103698B0F90000C01BBE
:10E40000401E814201DAB046C3E0B9F1000F58D096
:10E410001898E8B3606830F9180047F6FF71884231
:10E42000F5D0606830F916008842F0D0BDF9D210FE
:10E430000298814201DA029801E0BDF9D20002900F
:10E44000BDF9D2100398814201DD039801E0BDF9C6
:10E45000D2000390BDF9D400BDF9D010884230D06D
:10E46000BDF9D2000190BDF8D000401E00B2ADF859
:10E47000D000BDF8D000ADF8D4000398ADF8D600B8
:10E480000298ADF8D200BDF9D600BDF9D21000E077
:10E4900018E0884205D1BDF8D200401C00B2ADF8AA
:10E4A000D20034AB35AA27A93A980FF042FCBDF848
:10E4B000D000401C00B2ADF8D00001980390019844
:10E4C000029064E0BDF8D400C01B00B2ADF80000BB
:10E4D000BDF8D400384400B2ADF80400BDF8D60051
:10E4E000A0EB0A0000B2ADF80200BDF8D60050441F
:10E4F00000B2ADF80600A9F101001290606830F991
:10E50000180047F6FF71884201D035A800E00020CE
:10E510000D90606830F9160047F6FF71884201D00F
:10E5200034A800E000200E90CDF81CD0606830F9CF
:10E530001800149004AA1A21584612F077F960685E
:10E5400030F9180047F6FF7188420AD0606830F948
:10E550001600884205D034AB35AA27A93A980FF0A7
:10E56000E8FB77B1BAF1000F0BD0606830F9180002
:10E5700047F6FF71884204D06A4619A93A9810F00C
:10E5800093FB04AA1B21584612F050F900BFB04675
:10E5900000BF09F101001FFA80F9B5F88200484573
:10E5A0003FF7D7AE00BF1898E8BBB5F882004845E2
:10E5B0003DD1606830F9160047F6FF71884236D0C9
:10E5C000BDF8D000C01B00B2ADF80000BDF8D0000F
:10E5D000384400B2ADF80400BDF8D200A0EB0A0048
:10E5E00000B2ADF80200BDF8D200504400B2ADF860
:10E5F0000600A9F10100129000200D900E90CDF8B8
:10E600001CD0606830F91600149004AA1A215846EC
:10E6100012F00CF96A4619A93A9810F045FB04AAC1
:10E620001B21584600E002E012F000F900BF00BFD5
:10E63000214605F12400F6F715F90446002C7FF475
:10E6400028AE3A993698886000BF77E568B5030828
:10E650002DE9F34FB3B08146349809F11401826873
:10E6600031A8F4F73DFE10B935B0BDE8F08F34980D
:10E670008068309031A9349881604D460021484629
:10E6800019F0A3FA2D900021484619F0B8FC2C90FF
:10E690000021484619F01FFE2B90484618F0C1FA99
:10E6A000B5F884104843001200B22A90484618F08A
:10E6B00099FAB5F886104843001200B229904846EE
:10E6C00018F01AFC0146B9F814202C9802442D9831
:10E6D0001044401A00B22890484618F007FD014641
:10E6E000B9F816202B9802442D981044401A00B215
:10E6F000279024A80FF034FB24AA4FF4A021484609
:10E700001AF076FA16A810F0EBFA16AA4FF40031B8
:10E7100048461AF0E1FA4FF4003148461AF05DF825
:10E72000064600EBD67047104FF40031484619F00A
:10E73000C6FA064600EBD6704FEA6008BDF99200B3
:10E74000474501DA394600E0414600EBD072B1EBB3
:10E75000620F06DD9DF8990020F0100010308DF852
:10E760009900BDF89200012806D19DF8990020F08B
:10E77000100010308DF8990005F12400F6F778F8B4
:10E78000044698E1207B00F0010000B18DE1208972
:10E79000ADF890002089ADF85C0095F88800C0F3D2
:10E7A000C00008B9608900E0002006B215962898DC
:10E7B000ADF8BC002898ADF8B800159E159EB3467C
:10E7C000606830F816000A2847D02A98009023681D
:10E7D00033F91600237BC3F3C00C05F1780333F93A
:10E7E0001C20237BC3F3C00C05F1740333F91C1008
:10E7F000002316F047F800B2ADF8B800BDF8B81025
:10E800002898084400B2ADF8B800299800906368D1
:10E8100033F91600237BC3F3001C05F1700333F9B1
:10E820001C20237BC3F3001C05F16C0333F91C107F
:10E83000002316F027F800B2ADF8BA00BDF8BA1000
:10E840002998401A00B2ADF8BA00BDF8BA1027985E
:10E85000084400B2ADF8BA0005E04EF20100ADF890
:10E86000B800ADF8BA0003A8349917F0EFFE4FF4E2
:10E87000A0201090944804900320059024A80990AB
:10E8800016A8079014944FF0000AC8E0BDF8B8002D
:10E89000ADF8BC00BDF8BA00ADF8BE001598504404
:10E8A000B5F8821090FBF1F201FB120006B260682D
:10E8B00030F9160047F6FF71884247D0299800903A
:10E8C000636833F91600237BC3F3001C05F1700362
:10E8D00033F91C20237BC3F3001C05F16C0333F9CF
:10E8E0001C10002315F0CEFF00B2ADF8BA00BDF841
:10E8F000BA102998401A00B2ADF8BA00BDF8BA10A3
:10E900002798084400B2ADF8BA002A98009023680E
:10E9100033F91600237BC3F3C00C05F1780333F9F8
:10E920001C20237BC3F3C00C05F1740333F91C10C6
:10E93000002315F0A7FF00B2ADF8B800BDF8B8107D
:10E940002898084400B2ADF8B80001E0B34662E090
:10E95000BAF1000F5DD0BDF8BC00C01B00B2ADF82D
:10E960000400BDF8BC00384400B2ADF80800BDF8A2
:10E97000BE00A0EB080000B2ADF80600BDF8BE0076
:10E98000404400B2ADF80A00AAF10100119060689D
:10E9900030F91B0047F6FF71884201D02FA800E034
:10E9A00000200C90606830F9160047F6FF7188422D
:10E9B00001D02EA800E000200D9001A8069060680C
:10E9C00030F91B00139003AA1A21484611F02EFFBC
:10E9D000606830F91B0047F6FF71884213D0606809
:10E9E00030F9160088420ED02EAB2FAA24A93498F5
:10E9F0000FF09FF93FB1B8F1000F04D001AA16A99A
:10EA0000349810F051F903AA1B21484611F00EFF6B
:10EA100000BFB34600BF0AF101001FFA80FAB5F843
:10EA2000820050453FF732AFB5F8820050453BD1E8
:10EA3000606830F9160047F6FF71884234D0BDF89F
:10EA4000B800C01B00B2ADF80400BDF8B8003844EF
:10EA500000B2ADF80800BDF8BA00A0EB080000B2A3
:10EA6000ADF80600BDF8BA00404400B2ADF80A00A7
:10EA7000AAF10100119000200C900D9001A80690C1
:10EA8000606830F91600139003AA1A21484611F065
:10EA9000CDFE01AA16A9349810F006F903AA1B218D
:10EAA000484611F0C3FE00BF00BF214605F1240017
:10EAB000F5F7D8FE0446002C7FF464AE3499309804
:10EAC000886000BFD0E5000068B503082DE9F74F66
:10EAD000A2B00F46F88D10B925B0BDE8F08F97F8B9
:10EAE0003600022800DCF7E7F88D012808D1B7F9D5
:10EAF0003400002804DC388E10B9788E00B9EBE7BA
:10EB000024980088398E0844B98E401A00B2ADF8B6
:10EB1000800024988088398E0844B98E084400B259
:10EB2000ADF8840024984088798E0844B98E401A44
:10EB300000B2ADF882002498C088798E0844B98E5E
:10EB4000084400B2ADF88600B7F92E0000EBD07192
:10EB5000BDF88020A2EB6101491E09B2ADF8781022
:10EB6000B7F92E0000EBD071BDF8842002EB6101F3
:10EB7000491C09B2ADF87C10B7F92E0000EBD0713A
:10EB8000BDF88220A2EB6101491E09B2ADF87A10EE
:10EB9000B7F92E0000EBD071BDF8862002EB6101C1
:10EBA000491C09B2ADF87E1097F836001D901D98EB
:10EBB000FD2801DDFF201D9022981EA982681BA858
:10EBC000F4F78EFB00B987E719A824990BF0EEF94A
:10EBD0004FF0FF32114619A80BF01AFBB7F900806D
:10EBE00019A80BF0C8FA834619A80BF04AFA834516
:10EBF00003DA19A80BF0BFFA02E019A80BF041FAEA
:10EC000018901898B8EB600F02DD18984FEA60086A
:10EC1000B7F90000179020A80BF0ADFA834620A8A2
:10EC20000BF02FFA834503DA20A80BF0A4FA02E0D8
:10EC300020A80BF026FA1890DDE91701B0EB610F60
:10EC400002DD189840101790B7F92E1017980C187D
:10EC500004FB04F1480015F063FE8246B7F92E204C
:10EC6000179803B2514620A823F012F81EA80FF0FF
:10EC7000A9FB16904FF00109169820B9F878FF28E3
:10EC800001DBB87808B14FF000094FF0FF300F906A
:10EC9000B9F1000F0BD101230FFA88F219A910A8BE
:10ECA0000FF008FF002110A80FF086F80F901EA8A3
:10ECB0000BF061FA834615F033FE0E901C2102A87A
:10ECC00016F0D9F80CA8029007900E980590B88D10
:10ECD000ADF8100097F836008DF82000B8788DF860
:10ECE00021001EA80BF047FA834600EBDB70BDF84D
:10ECF000781001EB600000B201901EA80BF0C1F982
:10ED0000834600EBDB70BDF87A1001EB600000B2C7
:10ED10000090BDF87C00ADF83400BDF87C00001B0D
:10ED2000401C00B2ADF83000BDF87A00ADF83200FA
:10ED3000BDF87A002044401E00B2ADF83600BDF99F
:10ED400030100198814202DDBDF9300000E00198E9
:10ED5000ADF83000BDF936100098814202DABDF9F5
:10ED6000360000E00098ADF8360022980CA98268C1
:10ED70000AA8F4F7B5FA002866D00FFA88F219A9A4
:10ED80000AA8F4F7EEFA00285ED10AA80BF0F3F90E
:10ED900083465646BDF92A00BDF97A10401A00FB99
:10EDA0000466BDF92810BDF97C00001B401C081A40
:10EDB0000644B9F1000F09D00FFA88F219A90AA880
:10EDC000F4F74AFB10B10120099001E0CDF824903E
:10EDD000BBF1000F37DD0E980590BDF82800ADF8A7
:10EDE0003000BDF82C00ADF8340002208DF818007A
:10EDF000BDF92A5023E0ADF83250ADF836500998ED
:10EE0000A8B9224631460E9815F0A7FEBDF9281084
:10EE10005B462A460E980FF085FA8DF818009DF88B
:10EE20001800012804D102208DF8180000E0059692
:10EE300002A9229810F076F92644681C05B2BDF9A3
:10EE40002E00A842D7DA00BFBDF87C00ADF8340030
:10EE5000BDF87C00001B401C00B2ADF83000BDF8CE
:10EE60007E00001B401C00B2ADF83200BDF87E00F1
:10EE7000ADF83600BDF930100198814202DDBDF9D0
:10EE8000300000E00198ADF83000BDF93210009874
:10EE9000401C814202DDBDF9320001E00098401CB7
:10EEA00000B2ADF8320022980CA982680AA8F4F7E3
:10EEB00017FA002866D00FFA88F219A90AA8F4F701
:10EEC00050FAA8BB0AA80BF056F983465646BDF97E
:10EED0003600BDF92E10401A00FB0466BDF928105B
:10EEE000BDF97C00001B401C081A0644B9F1000F54
:10EEF00009D00FFA88F219A90AA8F4F7ADFA10B1EF
:10EF00000120099001E0CDF82490BBF1000F38DD1D
:10EF10000E980590BDF82800ADF83000BDF82C0023
:10EF2000ADF8340002208DF81800BDF92E5024E011
:10EF300028E0ADF83250ADF836500998A8B922460D
:10EF400031460E9815F009FEBDF928105B462A4699
:10EF50000E980FF0E7F98DF818009DF818000128B9
:10EF600004D102208DF8180000E0059602A922982D
:10EF700010F0D8F82644681E05B2BDF92A00A84250
:10EF8000D7DD00BFBDF87800204400B2ADF83000F6
:10EF9000BDF87C00001B00B2ADF83400BDF87A006B
:10EFA000ADF83200BDF87A002044401E00B2ADF842
:10EFB0003600BDF936100098814202DABDF93600FC
:10EFC00000E00098ADF8360022980CA982680AA8E3
:10EFD000F4F786F9002870D00FFA88F219A90AA868
:10EFE000F4F7BFF9002868D10AA80BF0C4F88346EB
:10EFF0005646BDF92A00BDF93210401A00FB0466DE
:10F00000B9F1000F09D00FFA88F219A90AA8F4F78C
:10F0100023FA10B10120099001E0CDF82490BBF152
:10F02000000F49DD099810B90E98059001E0002005
:10F030000590BDF82800ADF83000BDF82C00ADF803
:10F040003400BDF92A5033E0ADF83250ADF83650F7
:10F050000998C8B931785A460E9815F0D2FEBDF914
:10F0600028105B462A460E980FF05CF98DF81800C0
:10F070009DF81800012802D102208DF8180002A97D
:10F08000229810F04FF810E01D98FF2801D1307839
:10F0900005E0307897F8361010FB01F000128DF87B
:10F0A000200002A9229810F03DF82644681C05B201
:10F0B000BDF92E00A842C7DA00BF97F836008DF8D8
:10F0C0002000BDF87800204400B2ADF83000BDF853
:10F0D0007C00001B00B2ADF83400BDF87E00001BC0
:10F0E000401C00B2ADF83200BDF87E00ADF836002D
:10F0F000BDF932100098401C814202DDBDF932009A
:10F1000001E00098401C00B2ADF8320022980CA932
:10F1100082680AA8F4F7E4F800287DD00FFA88F294
:10F1200019A90AA8F4F71DF900287AD10AA80BF04A
:10F1300022F883465646BDF93600BDF92E10401A16
:10F1400000FB0466BBF1000F6ADDB9F1000F09D0C6
:10F150000FFA88F219A90AA8F4F77EF910B1012074
:10F16000099001E0CDF82490099810B90E98059007
:10F1700001E000200590BDF82800ADF83000BDF892
:10F180002C00ADF83400BDF92E5042E0ADF83250FD
:10F19000ADF83650B9F1000F09D00FFA88F219A96D
:10F1A0000AA8F4F759F910B10120099001E0CDF84F
:10F1B00024900998C8B931785A460E9815F021FE66
:10F1C000BDF928105B462A460E980FF0ABF88DF873
:10F1D00018009DF81800012802D102208DF81800AF
:10F1E00002A922980FF09EFF10E01D98FF2801D180
:10F1F000307805E0307897F8361010FB01F00012F7
:10F200008DF8200002A922980FF08CFF2644681E7A
:10F2100005B2BDF92A0001E003E001E0A842B5DD36
:10F2200000BF97F836008DF82000BDF87C00001B69
:10F23000401C00B2ADF83000BDF87C00ADF83400E1
:10F24000BDF87A00204400B2ADF83200BDF87E006F
:10F25000001B00B2ADF83600BDF932100098401C1A
:10F26000814202DABDF9320001E00098401C00B290
:10F27000ADF83200BDF936100098814202DDBDF9CB
:10F28000360000E00098ADF83600BDF93010019866
:10F29000814202DDBDF9300000E00198ADF8300098
:10F2A00022980CA982680AA8F4F71AF8E0B30FFABA
:10F2B00088F219A90AA8F4F754F8A8BB0AA80AF01A
:10F2C0005AFF83465646601E00FB0466BDF92810AF
:10F2D000BDF97C00001B401C081A0644B9F1000F60
:10F2E00009D00FFA88F219A90AA8F4F7B5F810B1F5
:10F2F0000120099001E0CDF82490099808B130462A
:10F3000000E00E980590BBF1000F33DDBDF828003A
:10F31000ADF83000BDF82C00ADF8340002208DF8B7
:10F320001800BDF92A5021E025E0ADF83250ADF8C3
:10F3300036500998A0B95A4631460E9815F00DFC82
:10F34000BDF928105B462A460E980EF0EBFF8DF8AB
:10F3500018009DF81800012802D102208DF818002D
:10F3600002A922980FF0DEFE681C05B2BDF92E003E
:10F37000A842DADA00BF5646002515E030463319B8
:10F38000591E002208E0037891F800C080F800C000
:10F390000B70401C491E521C04EBD47CB2EB6C0F6A
:10F3A000F1DB2644681C05B2A542E7DBBDF8780016
:10F3B000ADF83000BDF878002044401E00B2ADF832
:10F3C0003400BDF87A00204400B2ADF83200BDF838
:10F3D0007E00001B00B2ADF83600BDF93210009877
:10F3E000401C814202DABDF9320001E00098401C65
:10F3F00000B2ADF83200BDF936100098814202DD4E
:10F40000BDF9360000E00098ADF83600BDF93410C3
:10F410000198401E814202DABDF9340001E00198F2
:10F42000401E00B2ADF8340022980CA982680AA8E8
:10F43000F3F756FFD0B30FFA88F219A90AA8F3F729
:10F4400090FF98BB0AA80AF096FE83465646601EB7
:10F4500000FB0466BDF92800BDF93010401A0644CF
:10F46000B9F1000F09D00FFA88F219A90AA8F3F729
:10F47000F3FF10B10120099001E0CDF82490099824
:10F4800008B1304600E00E980590BBF1000F33DD67
:10F49000BDF82800ADF83000BDF82C00ADF8340000
:10F4A00002208DF81800BDF92A5021E025E0ADF8C2
:10F4B0003250ADF836500998A0B95A4631460E98E8
:10F4C00015F04BFBBDF928105B462A460E980EF04E
:10F4D00029FF8DF818009DF81800012802D102209C
:10F4E0008DF8180002A922980FF01CFE681C05B2C6
:10F4F000BDF92E00A842DADA00BFBDF87800ADF8F9
:10F500003000BDF878002044401E00B2ADF8340051
:10F51000BDF87A00ADF83200BDF87A002044401EF4
:10F5200000B2ADF83600BDF934100198401E81429A
:10F5300002DABDF9340001E00198401E00B2ADF8D6
:10F540003400BDF936100098814202DABDF9360068
:10F5500000E00098ADF8360022980CA982680AA84D
:10F56000F3F7BEFED0B30FFA88F219A90AA8F3F791
:10F57000F8FE98BB0AA80AF0FEFD83465646BDF980
:10F580002A00BDF93210401A00FB0466BDF92800BC
:10F59000BDF93010401A0644B9F1000F09D00FFA36
:10F5A00088F219A90AA8F3F757FF10B101200990B2
:10F5B00001E0CDF824900E980590BBF1000F36DDE8
:10F5C000BDF82800ADF83000BDF82C00ADF83400CF
:10F5D00002208DF81800BDF92A5024E028E0ADF88B
:10F5E0003250ADF836500998A8B9224631460E98E7
:10F5F00015F0B3FABDF928105B462A460E980EF0B6
:10F6000091FE8DF818009DF81800012804D1022001
:10F610008DF8180000E0059602A922980FF082FDEF
:10F620002644681C05B2BDF92E00A842D7DA00BFF7
:10F63000BDF87800ADF83000BDF878002044401ED9
:10F6400000B2ADF83400BDF87E00001B401C00B2D3
:10F65000ADF83200BDF87E00ADF83600BDF93210CD
:10F660000098401C814202DDBDF9320001E00098A3
:10F67000401C00B2ADF83200BDF934100198401EB4
:10F68000814202DABDF9340001E00198401E00B267
:10F69000ADF8340022980CA982680AA8F3F720FE7E
:10F6A000D0B30FFA88F219A90AA8F3F75AFE98BB4B
:10F6B0000AA80AF060FD83465646BDF93600BDF93A
:10F6C0002E10401A00FB0466BDF92800BDF9301069
:10F6D000401A0644B9F1000F09D00FFA88F219A9AF
:10F6E0000AA8F3F7B9FE10B10120099001E0CDF8A6
:10F6F00024900E980590BBF1000F36DDBDF8280070
:10F70000ADF83000BDF82C00ADF8340002208DF8C3
:10F710001800BDF92E5024E028E0ADF83250ADF8C5
:10F7200036500998A8B9224631460E9815F015FAB8
:10F73000BDF928105B462A460E980EF0F3FD8DF8B1
:10F7400018009DF81800012804D102208DF8180037
:10F7500000E0059602A922980FF0E4FC2644681EFA
:10F7600005B2BDF92A00A842D7DD00BFBDF8780078
:10F77000204400B2ADF83000BDF87C00001B00B2A0
:10F78000ADF83400BDF87A00204400B2ADF8320084
:10F79000BDF87E00001B00B2ADF836000E98059053
:10F7A00022980CA982680AA8F3F79AFDA0B30FFA71
:10F7B00088F219A90AA8F3F7D4FD68BB0AA80AF0D1
:10F7C000DAFC8346BBF1000F25DDBDF82800ADF85B
:10F7D0003000BDF82C00ADF83400BDF92A5016E019
:10F7E000ADF83250ADF8365059460E9815F07AFB08
:10F7F000BDF928105B462A460E980EF093FD8DF851
:10F80000180002A922980FF08DFC681C05B2BDF902
:10F810002E00A842E4DA00BFB9F1000F05D110A80C
:10F820000EF0ACFD0F980FF02DFA504615F0F4F8DD
:10F830000E9815F0F1F800BFFFF74EB92DE9F74F1C
:10F84000DEB05E985D9060980AF0B8FC804600EBF0
:10F85000D8704FEA600A60980AF028FC074600EB6F
:10F86000D7704010824507DA60980AF0A7FC064678
:10F8700006EBD670401006E060980AF017FC0546CB
:10F8800005EBD570401000B25B90609801885B98E2
:10F89000084400B2ADF87001609841885B98084454
:10F8A00000B2ADF8720158A80EF05AFA58AA4FF4F7
:10F8B000C0215E9819F09CF99DF8690120F01000B4
:10F8C00010308DF8690150A80EF0FEF950AA4FF4DF
:10F8D000C0215E9819F025F92CA85F9916F0B6FEA4
:10F8E000FE482D904FF4C020399003202E9058A848
:10F8F00032905D982430F4F7BBFF044643E23D9418
:10F90000A18B5B98084406B2A088301A00B22B90F5
:10F91000A089301A0FFA80FABDF870112B98081AD6
:10F9200000B2ADF8A400BDF872112B98081A00B20D
:10F93000ADF8A600BDF870112B98084400B2ADF8E0
:10F94000A800BDF872112B98084400B2ADF8AA00C7
:10F95000012347F6FF7229A94AA80FF0ABF8BDF8BA
:10F960007001A0EB0A0000B2ADF89C00BDF8720176
:10F97000A0EB0A0000B2ADF89E00BDF87001504443
:10F98000401E00B2ADF8A000BDF872015044401E08
:10F9900000B2ADF8A200012347F6FF7227A944A8E0
:10F9A0000FF088F8BDF87001801B00B2ADF894002C
:10F9B000BDF87201801B00B2ADF89600BDF8700171
:10F9C0003044401E00B2ADF89800BDF872013044DA
:10F9D000401E00B2ADF89A00002347F6FF7225A939
:10F9E0003EA80FF067F800213EA80EF0E5F924903C
:10F9F0004FF0FF302390608910B16089401E01E014
:10FA00004FF6FF7022904FF00009A6E12298401CAB
:10FA100022900020219061892298814203D1002008
:10FA2000229001202190A06900906088421E002150
:10FA30004846636914F026FF07463C97219810B1A9
:10FA40002089209001E02068209020981F90219824
:10FA500008B1E08900E0E0880FFA80F8CDF87880FE
:10FA6000DDF878805D983030F4F702FF05465FE0FE
:10FA70002879022800D055E0A868B84251DCE8682F
:10FA8000B8424EDB288A40440FFA80F8698AA88A77
:10FA9000814202D1688A209043E0A87D00F00100F5
:10FAA00050B1FF20009000233846D5E9021214F02F
:10FAB000E9FEC0B2139009E0FF2000900023384611
:10FAC000D4E9051214F0DEFEC0B21390A98A119198
:10FAD000698A1291139800F1040C4FEAEC00BDF80A
:10FAE00048C04CEA0C4CDFF8F8E10CEA0E01BDF816
:10FAF00044C04CEA0C4C0CEA0E02A2EB010C0CFBCD
:10FB000000FC01EB5C1C0CEA0E0343EA134C1FFAE9
:10FB10008CFCCDF840C0BDF840E0F446CDF880C084
:10FB200000BF00BF29465D983030F4F79BFE0546C4
:10FB3000002D9DD1E08B00FB09F001026088401E82
:10FB400091FBF0F01D901D9800121C901C98401C19
:10FB50001B901D9800F0FF0B228C1C99114408B2D9
:10FB60001EF0FEFE1A90228C1B99114408B21EF062
:10FB7000F7FE1990CBF580711A9811FB00F11998D6
:10FB800010FB0B1000121890228C1C99114408B223
:10FB90001EF0DEFE1790228C1B99114408B21EF055
:10FBA000D7FE1690CBF58071179811FB00F11698CF
:10FBB00010FB0B1000121590BDF88000ADF860012D
:10FBC000ADF86281BDF8702106EB08011598484335
:10FBD0007F3002EBE03000B2ADF85000BDF872218A
:10FBE00006EB0801189848437F3002EBE03000B282
:10FBF000ADF8520014A835905CA83590CDF8E89087
:10FC000050A83190219800287CD024980FF03AF821
:10FC1000B4F91000AAEB00001390BDF870211399FD
:10FC2000159848437F3002EBE03000B2ADF8480051
:10FC3000BDF872211399189848437F3002EBE030E9
:10FC400000B2ADF84A00202250A90AA814F085FF9E
:10FC50000AA831903B4623A2102106A81CF090F977
:10FC600006A837902CAA1A215E9810F0DFFD00211B
:10FC700041F6FF72BDF95201CDE901210090BDF9B5
:10FC8000543105A8509A37991EF058FFBDF9140059
:10FC900000EBD071BDF84820A2EB610109B2ADF8CC
:10FCA0000C10BDF9160000EBD071BDF84A20A2EB94
:10FCB000610109B2ADF80E10BDF80C00BDF81410CA
:10FCC000084400B2ADF81000BDF80E00BDF81610E3
:10FCD000084400B2ADF81200002006E0A0BA030804
:10FCE0001FF8E007256400000CE0009003AA379B92
:10FCF00031995F980DF034FC00213EA80EF05CF8BD
:10FD0000249007E00020319037902CAA1A215E98A9
:10FD100010F08CFD219909B144A900E04AA90846D8
:10FD200000210EF049F823905CAB14AA58A95F9803
:10FD30000DF0FFFF23980EF0A5FF2CAA16215E9868
:10FD400010F074FDBDF87C00ADF860011E98ADF8B0
:10FD5000620109F1010000F0FF09608848453FF7A2
:10FD600055AE4AA80EF00AFB44A80EF007FB3EA8C9
:10FD70000EF004FB24980EF085FF21465D98243098
:10FD8000F4F770FD0446002C7FF4B9AD61B0BDE816
:10FD9000F08F00002DE9F04FB1B005468B4690463C
:10FDA0002E464146284603F02FF904462089C0F329
:10FDB0000E00012802DC31B0BDE8F08F2089C0F3CD
:10FDC000C03020B9208810B9608800B9F3E700215D
:10FDD000284618F014F982460021284617F0F5FE4F
:10FDE000504400B22E90284616F01BFFB6F884103F
:10FDF0004843001200B22D9025A80DF065FF25AAFA
:10FE00004FF4C021284618F08CFE284617F074F8ED
:10FE10000146AA8A2E981044401A00B22490B8F1E4
:10FE2000020F0ED12089C0F3C03028B14FF4C02199
:10FE3000284618F007F800E000202390B5F91A9042
:10FE40000DE02089C0F3C03028B14FF4C02128460E
:10FE500018F041FA00E000202390B5F91690B8F1AF
:10FE6000020F16D1DBF80800B0F90600484500DAA9
:10FE7000A1E7239848442599B1F908100844B4F93A
:10FE800000100844DBF80810B1F90210884200DACB
:10FE900091E720A80DF064FF20AA4FF4C021284666
:10FEA00018F0A6FE0020ADF88600ADF88400594693
:10FEB0000EA816F0CBFBA6480F900620109002204B
:10FEC0001C904FF4C0201B9025A8139020A81490DC
:10FED000B8F1020F01D0012000E000200D9096F84B
:10FEE000880000F00700022822D10021284618F0DF
:10FEF00038F8B6F8841048434FEA202A2D98504429
:10FF0000B6F8821090FBF1F000B20B900B99A1EBC8
:10FF10000A0000EBD0714A102499114409B22491CF
:10FF20000B98A0EB0A012D98401A00B22D9000BF4B
:10FF3000ADF8C2902089C0F30E00401E6168C1F385
:10FF40000E4148430C900027FBE000200B906068B6
:10FF5000C0F30E40B7FBF0F100FB117008B90120AF
:10FF60000B90BDF982102D98401A78430C99B0FB84
:10FF7000F1F12498084400B2ADF8C000ADF8BC001F
:10FF80000D9868B1BDF9C2100B9810B1B4F900001A
:10FF900001E0B4F90200081A00B2ADF8BE000CE0AE
:10FFA000BDF9C2100B9810B1B4F9000001E0B4F92A
:10FFB0000200084400B2ADF8BE0030A817902FA888
:10FFC000189096F8880000F00700032810D106F179
:10FFD00078000D9930F91100009006F1740030F9A5
:10FFE0001130002138460C9A14F04CFC824604E093
:10FFF0006068C0F30E40B7FBF0FACDF878A00B981C
:020000040801F1
:10000000002871D02089C0F3C03000286CD053463E
:1000100050A2102107A81BF0B3FF25A8139007A832
:10002000199010201A900EAA1A21284610F0FEFBF3
:10003000002141F6FF72BDF9A600CDE90121009033
:10004000BDF9A83006A8259A19991EF077FDBDF9CB
:10005000180000EBD071BDF8BC20A2EB610109B221
:10006000ADF81010BDF9180000EBD071BDF8BC2040
:1000700002EB610109B2ADF814100D9878B1BDF82A
:10008000BE102398081A00B2ADF81600BDF816008D
:10009000BDF81A10401A00B2ADF812000EE0BDF81B
:1000A000BE102398084400B2ADF81200BDF812004B
:1000B000BDF81A10084400B2ADF81600BDF91400DE
:1000C000B5F9141088420DDBBDF91010B5F9180010
:1000D000814207DC0020009004AA25A95846199BFC
:1000E0000DF03EFA09E0FFE70020139019901A90F6
:1000F0000EAA1A21284610F099FBBDF9821001EBD7
:10010000D172BDF9C03003EB6202B5F914309A42E6
:1001100011DBBDF9820000EBD072BDF9BC30A3EB5E
:100120006203B5F91820934205DC2FAB30AA20A951
:1001300058460DF0FEFD0EAA1B21284610F076FB56
:100140007F1C0C9887427FF600AF00BF33E60000AB
:1001500068B50308256400002DE9F74FB2B00546E5
:10016000164631953146284602F04EFF0446208956
:10017000C0F30E00012802DC35B0BDE8F08F208905
:10018000C0F3C03020B9208810B9608800B9F3E707
:100190000EB1012000E0002083460021284617F020
:1001A00014FD2E900021284618F095F82D90284631
:1001B00016F018FD3199B1F886104843001200B2CC
:1001C0002C90284616F092FF0146EA8A2D980244A8
:1001D0002E981044401A00B22B904EB94FF4C02113
:1001E000284617F00CFF0746B5F914002A9008E0DE
:1001F0004FF4C021284617F0ABFF0746B5F91800A9
:100200002A90B4F900002990B4F902002890012E38
:1002100007D12998404200B229902898404200B264
:10022000289025A80DF09CFD25AA4FF4C021284652
:1002300018F0DEFC1DA80DF047FD1DAA4FF4C021EB
:10024000284618F06EFC0BA8339916F0FFF9894880
:100250000C9006200D9019960004189025A8119076
:100260001DA810902089C0F30E00401E6168C1F3E4
:100270000E4100FB01F94FF00008F6E0BDF99610C1
:100280002C98401A00FB08F0B0FBF9F12B980844B9
:1002900000B2ADF8C200ADF8BE002A98ADF8C000BB
:1002A00036B9BDF8C000401E00B2ADF8C00005E090
:1002B000BDF8C000401C00B2ADF8C00000200A909C
:1002C0006068C0F30E40B8FBF0F100FB118008B984
:1002D00001200A900A9838B1BDF8C0102998081A70
:1002E00000B2ADF8BC0006E0BDF8C0102898081AAE
:1002F00000B2ADF8BC0030A814902FA8159031982A
:10030000703030F91B00009031996C3131F91B309D
:10031000A9EB08004A46002114F0B4FA8246CDF851
:100320006CA00A98002872D02089C0F3C030002841
:100330006DD0534650A2102106A81BF021FE1DA827
:10034000109006A81690102017900BAA1A21284684
:1003500010F06CFA002141F6FF72BDF98600CDE97C
:1003600001210090BDF9883005A81D9A16991EF04C
:10037000E5FBBDF9160000EBD071BDF8BE20A2EB85
:10038000610109B2ADF80E10BDF9160000EBD07195
:10039000BDF8BE2002EB610109B2ADF81210BBF14D
:1003A000000F0FD1BDF8BC00BDF81410401AC01BDF
:1003B00000B2ADF80C00BDF8BC00C01B00B2ADF837
:1003C00010000EE0BDF8BC00384400B2ADF80C00DF
:1003D000BDF8BC00BDF814100844384400B2ADF8B4
:1003E0001000BDF91210B5F9160081420DDBBDF900
:1003F0000E10B5F91A00814207DC0020009003AA14
:100400001DA9169B33980DF0ABF809E0FFE700201B
:100410001090169017900BAA1A21284610F006FA91
:10042000BDF9961001EBD172BDF9C23003EB620346
:10043000B5F91620934211DBBDF9960000EBD0729E
:10044000BDF9BE30A3EB6203B5F91A20934205DC77
:100450002FAB30AA25A933980DF06BFC0BAA1B21FA
:10046000284610F0E3F908F10108C8457FF606AF09
:1004700000BF81E668B50308256400002DE9FE4F42
:1004800006460C46174698462021304618F036FAA4
:1004900000287DD00C98032803D1304616F012FEB8
:1004A00002E0304616F018FE814612F0CFFA0546FB
:1004B0004FF0000A002002900C98032843D100213D
:1004C000304617F075FD83460021304617F019FEBF
:1004D0000190B9F1010F23D0B9F1020F28D0B9F181
:1004E000030F2ED106F1140009F01BFEA0EB0B0147
:1004F0000198081A009000EBD0700BEB6000B18AF5
:1005000008440FFA80FA05F1140009F00AFE009081
:1005100000EBD070A98A01EB600000B2029010E0FD
:10052000B08A58440FFA80FAB5F91400029008E036
:10053000318B0198081A0FFA80FAB5F91800029069
:1005400000BF00BF45E00021304617F09DFE834606
:100550000021304617F04FFC0190B9F1010F25D072
:10056000B9F1020F2AD0B9F1030F30D106F114000E
:1005700009F064FDA0EB0B010198081A009000EB54
:10058000D0700BEB6001F08A08440FFA80FA00E0AB
:1005900054E005F1140009F051FD009000EBD0701B
:1005A0004110E88A084400B2029010E0F08A5844F2
:1005B0000FFA80FAB5F91600029008E0718B0198E5
:1005C000081A0FFA80FAB5F91A00029000BF00BFAE
:1005D00000BFB8F1000F17DAB9F1000F05D002988B
:1005E000504502DD2046BDE8FE8F002C01DAA01E3A
:1005F00004B2002C01DDA01C04B22146E01704EB7C
:100600009070801000B2EEE7002F16DAB9F1000FFB
:1006100004D00298504501DA2046E4E7002C01DAC4
:10062000A01E04B2002C01DDA01C04B22246E0177B
:1006300004EB9070801000B2D5E709E008EB0400ED
:10064000002802DAC8F1000004B2381B00D53C468D
:100650002046C8E710B50446207EC0F3800008B1EC
:10066000002010BD207A232802D0242803D100E0E6
:1006700000BF0120F5E700BF00BF4FF48041606874
:1006800018F03CF908B90020EBE7207A11381C2853
:1006900023D2DFE800F00E0F1011121314151617F5
:1006A0001822221922221A1D1B1C222222221E1F5E
:1006B000222000BF00BF00BF00BF00BF00BF00BFBF
:1006C00000BF00BF00BF00BF00BF00BF00BF00BF32
:1006D00000BF00BF00BF0020C3E70120C1E72DE934
:1006E000F041044612F09EF907469FB138688068D1
:1006F00018B1217A386882689047207EC0F34000A4
:1007000010B10120BDE8F081207E00F0010008B1A9
:100710000020F7E701260EB9002003E00021606801
:1007200016F0D6FA05464FF0000827E02868F0B129
:10073000287A00F08000802819D1287A802805D0F6
:10074000287A20F08000217A884210D16868E06021
:10075000204629688847207EC0F3400008B1012068
:10076000D0E7207E00F0010008B10020CAE708F1C0
:1007700001084146606816F0ABFA05460DB1012E3E
:10078000D4D02146002016F087F906460EB9002085
:1007900003E00021606816F09BFA05464FF0000860
:1007A00023E02868D0B1287A00F08000B0B9287A18
:1007B00018B1287A217A884210D16868E060204612
:1007C00029688847207EC0F3400008B1012099E7DE
:1007D000207E00F0010008B1002093E708F1010835
:1007E0004146606816F074FA05460DB1012ED8D066
:1007F000012E11D16068406870B12046FFF72AFFD2
:1008000050B16068406860602046FFF768FF0646A8
:10081000012E01D0002075E7304673E72DE9F04343
:100820008046DDE9074521B92A7022701A70BDE8BB
:10083000F0834FEA282000F00209B9F1000F04D03C
:1008400000BF99462B464D4600BF00F00409B9F1A0
:10085000000F04D000BFA1462C464D4600BF00F05B
:100860000609B9F1000F09D100F00109B9F1000F33
:100870000ED100BF994623464C4609E000F001091D
:10088000B9F1000F04D000BF994623464C4600BF83
:1008900022706FEA010909F0FF0602FB06F74FEA32
:1008A000272985F8009008F0FF0C00F00109B9F144
:1008B000000F0DD1BCF1000F02D14FEA012905E074
:1008C000CCF1000909F0FF0909FB01F94F4601E0ED
:1008D00001FB0CF73E126FEA060909F0FF0602FB66
:1008E00006F74FEA272983F8009000BF9FE7000032
:1008F0002DE9FF4F87B005468B469146DDE914A6EA
:10090000584609F023FC0690584609F0ACFB0590C8
:100910001798012804D0022804D0032806D103E048
:10092000494F08E0494F06E0494F04E000BF00BFCF
:100930000BB0BDE8F08F00BF8EBB288804902888DC
:100940005246014602900A98B84703904FF00008BB
:1009500021E0002418E0BDF8100035F8141088429A
:100960000CD005EB44000088049005EB440000889F
:100970005246014602900A98B847039005EB44009E
:10098000BDF80C100180641C06988442E3DB05EB83
:10099000490508F1010805988045DADB51E0FFE7D9
:1009A00000200290288804903078FD2801DB504612
:1009B00003E0307800FB0AF0000A0190019A0499E4
:1009C0000A98B84703904FF0000836E000242BE067
:1009D000305D00B927E0315D0298814205D1BDF854
:1009E000100035F81410884217D0305DFD2801DB67
:1009F000504603E0305D00FB0AF0000A019005EB71
:100A00004400008800900146019A0A98B847039074
:100A1000305D029035F81400049005EB4400BDF8F9
:100A20000C10018000BF641C06988442D0DB05EBEB
:100A300049051698064408F1010805988045C5DB6C
:100A400000BF00BF74E7000001790008337A000896
:100A5000A37900082DE9FF4F89B004469246DDE9ED
:100A60001685F4F719FA08900A9809F06FFB814689
:100A70000A9809F0F8FA8346002D78D1B8F1FD0FF5
:100A80000CDB002707E04A4620460C990BF002FBDE
:100A900004EB4A047F1C5F45F5DB7DE100BF0020CD
:100AA000014602464FEAD20CBDF804306CF3040351
:100AB0004FEA910C0193BDF804306CF34A134FEAEE
:100AC000D00C0193BDF804306CF3CF230193BDF833
:100AD00004C063460293BDF80810084607904246DA
:100AE00007990C980BF03CFC06900C9904A8029115
:100AF000BDF80810C90A01FB08F10180BDF8081013
:100B0000C1F3451101FB08F14180BDF8081001F067
:100B10001F0101FB08F1818000BFC8F1FF000390B5
:100B2000002720E0002619E0BDF81C0034F816105C
:100B300088420DD004EB46000088079004EB460085
:100B400000880290014604A8039A0BF0B3FC0690BB
:100B500004EB4600BDF818100180761C4E45E3DB1F
:100B600004EB4A047F1C5F45DCDB15E1FFE7BDF8C1
:100B7000300000EB00400790B8F1FD0F6FDBA9F1EA
:100B8000040006900027B4E0002614E02878FF282F
:100B900003D1BDF8300020800AE02A782088014681
:100BA00004900C980BF0DCFB0590BDF8140020803D
:100BB0006D1CA41C761C4E4503DA05F003000028CA
:100BC000E4D172E0286805900598401CA8B904F0AB
:100BD000030048B1BDF830102180A01C07990160C6
:100BE000BDF83010E18005E02046079901600799C3
:100BF000416000BF08342D1D56E00598002851D0F3
:100C00002878FF2803D1BDF8300020800AE02A7838
:100C10002088014603900C980BF0A2FB0490BDF8CD
:100C2000100020806D1CA41C2878FF2803D1BDF87B
:100C3000300020800AE02A782088014603900C9832
:100C40000BF08EFB0490BDF8100020806D1CA41CDE
:100C50002878FF2804D1BDF8300020800BE04CE05C
:100C60002A782088014603900C980BF079FB0490B9
:100C7000BDF8100020806D1CA41C2878FF2803D12B
:100C8000BDF8300020800AE02A78208801460390D1
:100C90000C980BF065FB0490BDF8100020806D1CD3
:100CA000A41C01E02D1D0834361D0698864289DDFE
:100CB00014E02878FF2803D1BDF8300020800AE036
:100CC0002A782088014604900C980BF049FB059087
:100CD000BDF8140020806D1CA41C761C4E45E8DB7A
:100CE000AAEB090004EB40041898A0EB09000544A6
:100CF0007F1C5F45FFF648AF4DE000200490208840
:100D000006902088059000200390002740E00026F0
:100D100035E0287888B329780498814209D028786A
:100D2000FF2801D1404603E0287800FB08F0000AC4
:100D3000039029780498814205D1BDF8180034F851
:100D40001610884214D00398FF2802D10C98059001
:100D500009E004EB4600008802900146039A0C98D3
:100D60000BF0FEFA05902878049034F816000690EF
:100D700004EB4600BDF8141001806D1C761C4E4536
:100D8000C7DB04EB4A041898A0EB090005447F1C5C
:100D90005F45BCDB00BF00BF0DB0BDE8F08F2DE9A3
:100DA000FF4F85B081460C46DDE912A7F4F774F8D1
:100DB000804607BBB4F9026018E0B4F9005010E0B7
:100DC000CDF808A0BDF82000ADF8040030B20090C6
:100DD000D8F800002BB2D0F81CC04946079AE0476B
:100DE0006D1CB4F90400A842EADA761CB4F90600D6
:100DF000B042E2DA2EE0204609F0A8F98346204608
:100E000009F031F90490002620E0002519E0785D12
:100E1000B0B1785D00FB0AF0000A0290BDF8200036
:100E2000ADF804006088304400B200902188294465
:100E30000BB2D8F80000D0F81CC04946079AE0472A
:100E40006D1C5D45E3DB14980744761C04988642CC
:100E5000DBDB00BF09B0BDE8F08F10B502460B46E2
:100E600010681C68A04201D1012010BD0020FCE7E1
:100E700010B502460B46506820F040401C68A04266
:100E800003D2506820F040401860002010BD2DE9CA
:100E9000F04F89B0044600200890079011F0C2FD81
:100EA000069006980068057ED4F820800027B94691
:100EB000B4F91400002802DDB4F9140002E0B4F91A
:100EC00014004042B4F91610002902DDB4F91610DE
:100ED00002E0B4F916104942884201DD012701E021
:100EE0004FF00109CAE01021404617F007FDB0B9E4
:100EF0004FF48071404617F001FD08B907B1C1E019
:100F00004FF40071404617F0F9FC18B9B9F1000F21
:100F100000D0B7E0404615F049FF8046AEE0CA4633
:100F2000CDF814900497BB46404615F0B7FF06462F
:100F300006F0010008B90020049006F0020008B98C
:100F40004FF0000B06F0040008B94FF0000A06F05D
:100F5000080008B900200590404616F0C7F8039035
:100F6000404615F03BFF0290404615F0C5FF01904A
:100F7000404616F039F800900398002802DC0298E9
:100F8000002811DDBAF1000F03D0B4F91600A84211
:100F900006DA059840B1B4F916006942884203DCCC
:100FA000CDF820800C2007900198002802DC0098E2
:100FB000002811DD049818B1B4F91400A84207DA2A
:100FC000BBF1000F08D0B4F914006942884203DC79
:100FD000CDF82080032007900398002801DC4FF013
:100FE000000A0298002801DC0020059001980028E2
:100FF00001DC002004900098002801DC4FF0000B79
:10100000049818B1B4F91400A84215DABBF1000F26
:1010100004D0B4F91400694288420DDDBAF1000F22
:1010200003D0B4F91600A84206DA059878B1B4F9ED
:101030001600694288420ADC0FB1032000E00C2050
:1010400094F83C1060F3030184F83C101AE04FF46C
:101050008071404617F052FC08B907B112E04FF416
:101060000071404617F04AFC18B9B9F1000F00D0E2
:1010700008E0404615F09AFE804600BFB8F1000F28
:101080007FF431AF00BF089858B194F83C1007982E
:1010900060F3030184F83C100898A0620021A1824B
:1010A000E182089809B0BDE8F08F00002DE9FF4FFC
:1010B00083B00446204616F005F80290029818B94D
:1010C000002007B0BDE8F08F41F6FF7500212046F3
:1010D00016F06EFF07460021204617F012F88246F0
:1010E000204615F01CFD83464FF000086AE0A0681A
:1010F000006850F828603949304617F00AFC00B102
:101100005EE04FF48051304617F0F8FB002856D0CF
:101110004FF00009002001900298012804D0022815
:1011200009D003282CD10EE0B6F91490A08A3844D7
:1011300000B2019025E0B6F91890208BA0EB0A00D0
:1011400000B201901DE006F1140008F0EAFF0090E3
:1011500000EBD070B18A01EB60000FFA80F904F166
:10116000140008F0DEFFC01BA0EB0A00009000EBAB
:10117000D070A18A394401EB600000B2019000E018
:101180001EE000BF069848440FFA80F90498814594
:1011900014DB0598814511DC0199A9EB010108B226
:1011A000002801DD014600E04142002D01DD2A4614
:1011B00000E06A42914200DA054600BF00BF00BF6E
:1011C00008F10108D84592D341F6FF70854201D15C
:1011D000002000E0684200B273E700000100040054
:1011E0002DE9FF4F83B00446204615F075FF0290AD
:1011F000029818B9002007B0BDE8F08F41F6FF75DE
:101200000021204617F040F807460021204616F03E
:10121000F2FD8246204615F082FC83464FF000081E
:101220006AE0A068006850F828603949304617F035
:1012300070FB00B15EE04FF48051304617F05EFB6A
:10124000002856D04FF00009002001900298012894
:1012500004D0022809D003282CD10EE0B6F916904C
:10126000E08A384400B2019025E0B6F91A90608B0C
:10127000A0EB0A0000B201901DE006F1140008F096
:10128000DDFE009000EBD0704110F08A08440FFAA8
:1012900080F904F1140008F0D1FEC01BA0EB0A0095
:1012A000009000EBD0704110E08A3844084400B24E
:1012B000019000E01EE000BF069848440FFA80F954
:1012C0000498814514DB0598814511DC0199A9EB4F
:1012D000010108B2002801DD014600E04142002D75
:1012E00001DD2A4600E06A42914200DA054600BF6D
:1012F00000BF00BF08F10108D84592D341F6FF7046
:10130000854201D1002000E0684200B273E700008E
:10131000010004002DE9FF4F87B00E469046DDE93D
:1013200014940021079817F03EFA069000210798C0
:1013300016F0ABFC0590F078C0F34000A8B1F0784F
:1013400000F0010020B142F2D1710698884208D025
:10135000F07800F0010040B942F2D171059888425E
:1013600003D1F07820F00200F070F07800F0010076
:1013700008B1964800E096480490F07800F001002B
:1013800008B9924800E09248824600206080A08020
:1013900020612080A060E060CDF80C800399079860
:1013A00015F09FFB0546E0E00398404506D04FF45A
:1013B0000001284617F0A2FA00B1D9E08549284675
:1013C00017F0A7FA00287CD10021284616F040FC2F
:1013D00002900298002875D02069401C2061A088E6
:1013E000484400B2A080207D00F0010000286AD0AF
:1013F000216901EB8101880013F092FA074600BFD2
:101400001FB900BF00BF00BFFEE700BF1FB90398B0
:101410000BB0BDE8F08FE06858B12069401E00EBCA
:10142000800082003846E16813F097FBE06813F013
:10143000F3FA2069401E00EB800047F82050F07856
:1014400000F0010058B14FF0000B41F20202594682
:10145000284616F0CFFF0190019800B20BE04FF044
:10146000000B41F205025946284616F0C3FF0190D1
:10147000019800B200BF2169491E01EB810107EB11
:1014800081018880F07800F0010058B14FF0000B26
:1014900041F203025946284616F0ACFF019001982C
:1014A00000B20BE04FF0000B41F20602594628460D
:1014B00016F0A0FF0190019800B200BF2169491EFB
:1014C00002E03EE017E02CE001EB810107EB810137
:1014D000C88002982169491E01EB810107EB810157
:1014E000C86000212069401E00EB800007EB8000EF
:1014F0000161E76015E02846049988470746F078BF
:10150000C0F3400030B1B4F90400C1190A98814217
:1015100000DD2DE0A08807EB0901084400B2A0809F
:1015200000BF2846D047B4F90010884202DD2846A3
:10153000D04701E0B4F900002080A068401CA06002
:1015400000BFF078C0F3800010B14FF0FF3000E032
:1015500001200399084403900398002800DA07E06B
:101560000399079815F0BDFA0546002D7FF41CAFCE
:1015700000BFB4F90400002804DDA088A0EB090036
:1015800000B2A080206908B10A9801E0B4F9040013
:101590006080CDB10398404516D1079880680068F7
:1015A000039950F82150F078C0F3800103AA0798FE
:1015B00001F019FA45B12846D04720802846049901
:1015C000884760800120A060039821E743880208D3
:1015D0000D6D0208010006002DE9F04F97B004469A
:1015E00000BF00BF4FF0000BDE480288594620467E
:1015F00016F000FF0A900A98C6B200BFF0439DF8AB
:101600005B1060F300018DF85B10B0089DF85B1073
:1016100060F341018DF85B10F0089DF85B1060F3FA
:1016200082018DF85B1000BFCF48028859462046E2
:1016300016F0E0FE0A900A98C0B28DF8580000BF7C
:10164000CA4802885946204616F0D4FE0A900A98E5
:10165000C0B28DF8590000BFC548028859462046DF
:1016600016F0C8FE0A900A98C0B28DF85A00002100
:10167000204616F01CFA012800D100E00020159049
:101680009DF85B0000F0010020B90021204616F013
:101690004EFC03E00021204616F0CFFD14909DF88B
:1016A0005B0000F0010020B10021204616F03FFC55
:1016B00003E00021204616F0C0FD13909DF85B006A
:1016C00000F0010018B1204615F0ABFA02E0204608
:1016D00015F088FA12904FF0000B41F23202594691
:1016E000204616F087FE0A900A9800B2119000BFBB
:1016F00041F610025946204616F07CFE0A900A98E0
:10170000E18A0144119801EB000B204615F002FD1F
:10171000ABEB000000B210904FF0000B41F612024C
:101720005946204616F066FE0A900A98A18A01449E
:10173000119801EB000B204615F0E2FCABEB00002A
:1017400000B20F909DF85A709DF85B0000F0010008
:1017500008B110A800E00FA805460021204617F0A8
:1017600022F80E900021204616F08FFA0D909DF879
:101770005B0000F0010040B142F2D1710D98884247
:1017800003D1608CC0F3402068B19DF85B0000F08D
:10179000010048B942F2D1710E98884204D1608CA0
:1017A000C0F3802000B90027159850B19DF85B0068
:1017B00000F0010028B90FB9012702E0012F00D184
:1017C00000274FF0000800200C900B90002F49D00C
:1017D0009DF85B00C0F3800018B1A0684068401E0F
:1017E00000E00020814617E000200A9005A9139828
:1017F000CDE900014A4616A92046129BFFF78AFD53
:101800008246BDF814101498084440440FFA80F83A
:101810000B98401C0B90D146A0684068484502DDFB
:10182000B9F1000FE0DA0B9820B11498A8EB000092
:101830000FFA80F89DF85B0000F0010018B1204617
:1018400015F0D0F902E0204615F0EBF983460CA81C
:10185000CDE900500B9803B24246594638461EF077
:10186000F2F900BF9DF85B00C0F3800018B1A068DA
:101870004068401E00E000208146159840B19DF868
:101880005B0000F0010018B92888404400B22880AD
:101890004DE001200A9005A91398CDE900014A46C0
:1018A00016A92046129BFFF735FD8246159850B1C8
:1018B0009DF85B0000F0010028B92888BDF81410DD
:1018C000401A00B2288005AABDF94030DDE91210A7
:1018D000CDE90131CDE90302BDF93C0053464A464A
:1018E00016A900902046F5F791FBD146089813F011
:1018F00093F800200890159868B19DF85B0000F0FF
:10190000010040B92988BDF8302014981044081A05
:1019100000B228800AE02988BDF81400BDF8302004
:10192000024414981044084400B2288000BFA06804
:101930004068484502DDB9F1000FAADA42F2D171E0
:101940000E98884202D00D98884202D1204617F0A6
:101950004CFF00222B2120460EF068FF17B0BDE897
:10196000F08F00007001002072010020740100203F
:10197000760100202DE9FC5F044689469246207ED0
:1019800000F0010008B1BDE8FC9FE56800264FF0BB
:10199000010B0120019000BF85B9207EC0F3C0007B
:1019A00000B956B9019800B9EDE72046C847054689
:1019B0004FF0000B0020019000E0E4E716B92E463E
:1019C00006B9E0E7BBF1000F06D029462046D04714
:1019D0000546B54200D1D6E74FF0010B05B9DBE76C
:1019E000286815F0F7FF00F0800000B1D4E72F68F9
:1019F00009E00121384616F081FF00B105E03846C4
:101A000015F0D4F90746002FF3D100BF2FB1012103
:101A1000384616F073FF00B1BEE700BF00BFE068B4
:101A2000A84200D1AFE7E06890B1204600F011FD78
:101A30000090E16808680F21009A0EF0F7FE074653
:101A4000012F00D09FE7E168086817F0F4FA00BFA3
:101A5000E560204600F0FDFC0746E1683A4608686C
:101A60000E210EF0E3FE8046B8F1010F00D08AE7A8
:101A7000E168086817F0DFFA206910B12046216993
:101A8000884700BF7FE7000000BF054A126802F0E8
:101A90004002002AF9D0C2B2014B5A6070470000E0
:101AA000001001402DE9F0410446204600F018FBEB
:101AB000054611480068001B461B0F480068401B84
:101AC0000D490860B6B1274661193246204613F029
:101AD00044F806E0A068401BA060204600F000FB30
:101AE0000444054800688442F4D1B819294613F02B
:101AF000C2F900BFBDE8F0815C01002000B587B0ED
:101B000000BF00BF002000904648006840F004007D
:101B1000444908600846006800F00400009000BFD7
:101B200000BF00BF00BF00BF002000900846006853
:101B300040F0020008600846006800F002000090D3
:101B400000BF00BF00BF4FF400500290012003907F
:101B500004900320059002A93348EFF7E9FF022023
:101B6000029000200390012004900320059002A918
:101B70002E48EFF7DDFFF6F765F800BF00224FF4BF
:101B800000512948F0F7E8F800BF1420F6F732FBBF
:101B900000BF012251032448F0F7DEF800BF3220D5
:101BA000F6F728FB00208DF80400012201A900F0BF
:101BB00041F9012201A9A42000F03CF916208DF87A
:101BC0000400012201A9802000F034F90C208DF8D6
:101BD0000400012201A9882000F02CF9022201A9A9
:101BE000A12000F02BF89DF80400302803D19DF8C7
:101BF0000500032807D09DF80500012803D09DF8B3
